{"abi":[{"inputs":[{"internalType":"address","name":"setOwner","type":"address"}],"stateMutability":"nonpayable","type":"constructor"},{"inputs":[],"name":"AA","outputs":[{"internalType":"uint256","name":"","type":"uint256"}],"stateMutability":"view","type":"function"},{"inputs":[{"internalType":"uint256","name":"a","type":"uint256"},{"internalType":"uint256","name":"b","type":"uint256"},{"internalType":"uint256","name":"c","type":"uint256"},{"internalType":"uint256","name":"d","type":"uint256"}],"name":"Add","outputs":[{"internalType":"uint256","name":"ECC_checked_x","type":"uint256"},{"internalType":"uint256","name":"ECC_checked_y","type":"uint256"}],"stateMutability":"pure","type":"function"},{"inputs":[],"name":"BB","outputs":[{"internalType":"uint256","name":"","type":"uint256"}],"stateMutability":"view","type":"function"},{"inputs":[],"name":"GX","outputs":[{"internalType":"uint256","name":"","type":"uint256"}],"stateMutability":"view","type":"function"},{"inputs":[],"name":"GY","outputs":[{"internalType":"uint256","name":"","type":"uint256"}],"stateMutability":"view","type":"function"},{"inputs":[{"internalType":"uint256","name":"v_random","type":"uint256"},{"internalType":"uint256","name":"v_value","type":"uint256"},{"internalType":"address","name":"entity_addr","type":"address"}],"name":"Go_Vote","outputs":[],"stateMutability":"nonpayable","type":"function"},{"inputs":[{"internalType":"uint256","name":"sum","type":"uint256"}],"name":"Mul","outputs":[{"internalType":"uint256","name":"ECC_checked_x","type":"uint256"},{"internalType":"uint256","name":"ECC_checked_y","type":"uint256"}],"stateMutability":"pure","type":"function"},{"inputs":[],"name":"PP","outputs":[{"internalType":"uint256","name":"","type":"uint256"}],"stateMutability":"view","type":"function"},{"inputs":[],"name":"SetFinish","outputs":[],"stateMutability":"nonpayable","type":"function"},{"inputs":[{"internalType":"address","name":"e_addr","type":"address"}],"name":"Validation","outputs":[{"internalType":"bool","name":"","type":"bool"}],"stateMutability":"view","type":"function"},{"inputs":[],"name":"Vote_sum","outputs":[{"internalType":"uint256","name":"","type":"uint256"}],"stateMutability":"view","type":"function"},{"inputs":[],"name":"Vote_sum_ECC_x","outputs":[{"internalType":"uint256","name":"","type":"uint256"}],"stateMutability":"view","type":"function"},{"inputs":[],"name":"Vote_sum_ECC_y","outputs":[{"internalType":"uint256","name":"","type":"uint256"}],"stateMutability":"view","type":"function"},{"inputs":[{"internalType":"uint256","name":"i","type":"uint256"}],"name":"blockOrTimeReached","outputs":[{"internalType":"bool","name":"","type":"bool"}],"stateMutability":"view","type":"function"},{"inputs":[{"internalType":"uint256","name":"s","type":"uint256"}],"name":"checkECCMath","outputs":[{"internalType":"bool","name":"","type":"bool"}],"stateMutability":"view","type":"function"},{"inputs":[],"name":"description","outputs":[{"internalType":"string","name":"","type":"string"}],"stateMutability":"view","type":"function"},{"inputs":[{"internalType":"address","name":"","type":"address"}],"name":"eligible_voter_list","outputs":[{"internalType":"address","name":"EOA_address","type":"address"},{"internalType":"address","name":"registry_addr","type":"address"},{"internalType":"bool","name":"register_or_not","type":"bool"},{"internalType":"uint256","name":"vote_value","type":"uint256"},{"internalType":"int256","name":"vote_time","type":"int256"}],"stateMutability":"view","type":"function"},{"inputs":[],"name":"exponent","outputs":[{"internalType":"uint256","name":"","type":"uint256"}],"stateMutability":"view","type":"function"},{"inputs":[],"name":"isSet","outputs":[{"internalType":"bool","name":"","type":"bool"}],"stateMutability":"view","type":"function"},{"inputs":[],"name":"m","outputs":[{"internalType":"uint256","name":"","type":"uint256"}],"stateMutability":"view","type":"function"},{"inputs":[{"internalType":"uint256","name":"","type":"uint256"}],"name":"msgsender_voter_list","outputs":[{"internalType":"address","name":"","type":"address"}],"stateMutability":"view","type":"function"},{"inputs":[{"internalType":"uint256","name":"","type":"uint256"}],"name":"options","outputs":[{"internalType":"string","name":"","type":"string"}],"stateMutability":"view","type":"function"},{"inputs":[],"name":"options_num","outputs":[{"internalType":"uint256","name":"","type":"uint256"}],"stateMutability":"view","type":"function"},{"inputs":[],"name":"owner","outputs":[{"internalType":"address","name":"","type":"address"}],"stateMutability":"view","type":"function"},{"inputs":[{"internalType":"string","name":"","type":"string"}],"name":"requirements","outputs":[{"internalType":"string","name":"requirement","type":"string"},{"internalType":"uint256","name":"rq_type","type":"uint256"}],"stateMutability":"view","type":"function"},{"inputs":[{"internalType":"uint256","name":"","type":"uint256"}],"name":"requirements_key","outputs":[{"internalType":"string","name":"","type":"string"}],"stateMutability":"view","type":"function"},{"inputs":[{"internalType":"uint256","name":"","type":"uint256"}],"name":"result","outputs":[{"internalType":"int256","name":"","type":"int256"}],"stateMutability":"view","type":"function"},{"inputs":[],"name":"return_msgsender_voter_list","outputs":[{"internalType":"address[]","name":"","type":"address[]"}],"stateMutability":"view","type":"function"},{"inputs":[{"internalType":"uint256","name":"index","type":"uint256"}],"name":"return_requirements_key","outputs":[{"internalType":"string","name":"","type":"string"}],"stateMutability":"view","type":"function"},{"inputs":[],"name":"return_requirements_length","outputs":[{"internalType":"uint256","name":"","type":"uint256"}],"stateMutability":"view","type":"function"},{"inputs":[{"internalType":"string","name":"temp","type":"string"}],"name":"return_requirements_rq","outputs":[{"internalType":"string","name":"","type":"string"}],"stateMutability":"view","type":"function"},{"inputs":[{"internalType":"string","name":"temp","type":"string"}],"name":"return_requirements_type","outputs":[{"internalType":"uint256","name":"","type":"uint256"}],"stateMutability":"view","type":"function"},{"inputs":[],"name":"return_result","outputs":[{"internalType":"int256[]","name":"","type":"int256[]"}],"stateMutability":"view","type":"function"},{"inputs":[{"internalType":"address","name":"sender","type":"address"}],"name":"return_voter_register_status","outputs":[{"internalType":"bool","name":"","type":"bool"}],"stateMutability":"view","type":"function"},{"inputs":[{"internalType":"address","name":"sender","type":"address"}],"name":"return_voter_vote_status","outputs":[{"internalType":"uint256","name":"","type":"uint256"}],"stateMutability":"view","type":"function"},{"inputs":[{"internalType":"string","name":"q","type":"string"},{"internalType":"uint256","name":"vst","type":"uint256"},{"internalType":"uint256","name":"vet","type":"uint256"},{"internalType":"string","name":"rq_description","type":"string"},{"internalType":"address","name":"write_entity","type":"address"},{"internalType":"uint256","name":"exp","type":"uint256"},{"internalType":"uint256","name":"M","type":"uint256"}],"name":"set_up_all","outputs":[],"stateMutability":"nonpayable","type":"function"},{"inputs":[{"internalType":"string","name":"o","type":"string"}],"name":"set_up_options","outputs":[],"stateMutability":"nonpayable","type":"function"},{"inputs":[{"internalType":"string","name":"_key","type":"string"},{"internalType":"string","name":"_value","type":"string"},{"internalType":"uint256","name":"_type","type":"uint256"}],"name":"set_up_requirement","outputs":[],"stateMutability":"nonpayable","type":"function"},{"inputs":[],"name":"state","outputs":[{"internalType":"enum vote.State","name":"","type":"uint8"}],"stateMutability":"view","type":"function"},{"inputs":[{"internalType":"string","name":"s","type":"string"}],"name":"stringToUint","outputs":[{"internalType":"uint256","name":"","type":"uint256"}],"stateMutability":"pure","type":"function"},{"inputs":[{"internalType":"uint256","name":"sum","type":"uint256"}],"name":"tally","outputs":[],"stateMutability":"nonpayable","type":"function"},{"inputs":[{"internalType":"uint256","name":"","type":"uint256"}],"name":"times","outputs":[{"internalType":"uint256","name":"","type":"uint256"}],"stateMutability":"view","type":"function"},{"inputs":[],"name":"vote_question","outputs":[{"internalType":"string","name":"","type":"string"}],"stateMutability":"view","type":"function"},{"inputs":[],"name":"win_option","outputs":[{"internalType":"string","name":"","type":"string"}],"stateMutability":"view","type":"function"},{"inputs":[],"name":"winner","outputs":[{"internalType":"int256","name":"","type":"int256"}],"stateMutability":"view","type":"function"},{"inputs":[],"name":"write_entity_addr","outputs":[{"internalType":"address","name":"","type":"address"}],"stateMutability":"view","type":"function"}],"devdoc":{"methods":{}},"evm":{"assembly":"    /* \"Vote2.sol\":386:12002  contract vote{\r... */\n  mstore(0x40, 0x80)\n    /* \"Vote2.sol\":2163:2463  constructor(address setOwner)public {\r... */\n  callvalue\n    /* \"--CODEGEN--\":5:14   */\n  dup1\n    /* \"--CODEGEN--\":2:4   */\n  iszero\n  tag_1\n  jumpi\n    /* \"--CODEGEN--\":27:28   */\n  0x00\n    /* \"--CODEGEN--\":24:25   */\n  dup1\n    /* \"--CODEGEN--\":17:29   */\n  revert\n    /* \"--CODEGEN--\":2:4   */\ntag_1:\n    /* \"Vote2.sol\":2163:2463  constructor(address setOwner)public {\r... */\n  pop\n  mload(0x40)\n  sub(codesize, bytecodeSize)\n  dup1\n  bytecodeSize\n  dup4\n  codecopy\n  dup2\n  dup2\n  add\n  0x40\n  mstore\n    /* \"--CODEGEN--\":15:17   */\n  0x20\n    /* \"--CODEGEN--\":10:13   */\n  dup2\n    /* \"--CODEGEN--\":7:18   */\n  lt\n    /* \"--CODEGEN--\":4:6   */\n  iszero\n  tag_2\n  jumpi\n    /* \"--CODEGEN--\":31:32   */\n  0x00\n    /* \"--CODEGEN--\":28:29   */\n  dup1\n    /* \"--CODEGEN--\":21:33   */\n  revert\n    /* \"--CODEGEN--\":4:6   */\ntag_2:\n  pop\n    /* \"Vote2.sol\":2163:2463  constructor(address setOwner)public {\r... */\n  mload\n    /* \"Vote2.sol\":2210:2215  owner */\n  0x05\n    /* \"Vote2.sol\":2210:2226  owner = setOwner */\n  dup1\n  sload\n  not(sub(shl(0xa0, 0x01), 0x01))\n  and\n  sub(shl(0xa0, 0x01), 0x01)\n  swap1\n  swap3\n  and\n  swap2\n  swap1\n  swap2\n  or\n  swap1\n  sstore\n    /* \"Vote2.sol\":2237:2242  state */\n  0x14\n    /* \"Vote2.sol\":2237:2256  state = State.SETUP */\n  dup1\n  sload\n  not(0x00)\n    /* \"Vote2.sol\":2267:2273  winner */\n  0x12\n    /* \"Vote2.sol\":2267:2278  winner = -1 */\n  sstore\n  0x00\n    /* \"Vote2.sol\":2289:2300  options_num */\n  0x08\n    /* \"Vote2.sol\":2289:2304  options_num = 0 */\n  dup2\n  swap1\n  sstore\n  not(0xffff)\n    /* \"Vote2.sol\":2315:2328  isSet = false */\n  swap1\n  swap2\n  and\n  swap1\n  swap2\n  sstore\n    /* \"Vote2.sol\":2339:2351  Vote_sum = 0 */\n  dup1\n  dup1\n  sstore\n    /* \"Vote2.sol\":475:541  0x79BE667EF9DCBBAC55A06295CE870B07029BFCDB2DCE28D959F2815B16F81798 */\n  0x79be667ef9dcbbac55a06295ce870b07029bfcdb2dce28d959f2815b16f81798\n  0x01\n    /* \"Vote2.sol\":2362:2381  Vote_sum_ECC_x = GX */\n  sstore\n    /* \"Vote2.sol\":579:645  0x483ADA7726A3C4655DA4FBFC0E1108A8FD17B448A68554199C47D08FFB10D4B8 */\n  0x483ada7726a3c4655da4fbfc0e1108a8fd17b448a68554199c47d08ffb10d4b8\n  0x02\n    /* \"Vote2.sol\":2392:2411  Vote_sum_ECC_y = GY */\n  sstore\n  0x2fdf\n  swap1\n  dup2\n  swap1\n    /* \"Vote2.sol\":386:12002  contract vote{\r... */\n  dataOffset(sub_0)\n  swap1\n  codecopy\n  0x00\n  return\nstop\n\nsub_0: assembly {\n        /* \"Vote2.sol\":386:12002  contract vote{\r... */\n      mstore(0x40, 0x80)\n      callvalue\n        /* \"--CODEGEN--\":5:14   */\n      dup1\n        /* \"--CODEGEN--\":2:4   */\n      iszero\n      tag_1\n      jumpi\n        /* \"--CODEGEN--\":27:28   */\n      0x00\n        /* \"--CODEGEN--\":24:25   */\n      dup1\n        /* \"--CODEGEN--\":17:29   */\n      revert\n        /* \"--CODEGEN--\":2:4   */\n    tag_1:\n        /* \"Vote2.sol\":386:12002  contract vote{\r... */\n      pop\n      jumpi(tag_2, lt(calldatasize, 0x04))\n      shr(0xe0, calldataload(0x00))\n      dup1\n      0x78cff08b\n      gt\n      tag_49\n      jumpi\n      dup1\n      0xc65fb380\n      gt\n      tag_50\n      jumpi\n      dup1\n      0xe0f3615d\n      gt\n      tag_51\n      jumpi\n      dup1\n      0xe0f3615d\n      eq\n      tag_43\n      jumpi\n      dup1\n      0xe8380187\n      eq\n      tag_44\n      jumpi\n      dup1\n      0xed8b6b31\n      eq\n      tag_45\n      jumpi\n      dup1\n      0xee58b141\n      eq\n      tag_46\n      jumpi\n      dup1\n      0xeeeac01e\n      eq\n      tag_47\n      jumpi\n      dup1\n      0xf00dd10e\n      eq\n      tag_48\n      jumpi\n      jump(tag_2)\n    tag_51:\n      dup1\n      0xc65fb380\n      eq\n      tag_37\n      jumpi\n      dup1\n      0xc68a11c2\n      eq\n      tag_38\n      jumpi\n      dup1\n      0xc7b28050\n      eq\n      tag_39\n      jumpi\n      dup1\n      0xd5ffc449\n      eq\n      tag_40\n      jumpi\n      dup1\n      0xd78e4d9d\n      eq\n      tag_41\n      jumpi\n      dup1\n      0xdfbf53ae\n      eq\n      tag_42\n      jumpi\n      jump(tag_2)\n    tag_50:\n      dup1\n      0x9998c692\n      gt\n      tag_52\n      jumpi\n      dup1\n      0x9998c692\n      eq\n      tag_31\n      jumpi\n      dup1\n      0xa16dcc65\n      eq\n      tag_32\n      jumpi\n      dup1\n      0xabf68fcc\n      eq\n      tag_33\n      jumpi\n      dup1\n      0xaf7789e6\n      eq\n      tag_34\n      jumpi\n      dup1\n      0xc19d93fb\n      eq\n      tag_35\n      jumpi\n      dup1\n      0xc3e50f09\n      eq\n      tag_36\n      jumpi\n      jump(tag_2)\n    tag_52:\n      dup1\n      0x78cff08b\n      eq\n      tag_26\n      jumpi\n      dup1\n      0x7a308a4c\n      eq\n      tag_27\n      jumpi\n      dup1\n      0x847b6327\n      eq\n      tag_28\n      jumpi\n      dup1\n      0x8da5cb5b\n      eq\n      tag_29\n      jumpi\n      dup1\n      0x997da8d4\n      eq\n      tag_30\n      jumpi\n      jump(tag_2)\n    tag_49:\n      dup1\n      0x39cd1f40\n      gt\n      tag_53\n      jumpi\n      dup1\n      0x4c01ac97\n      gt\n      tag_54\n      jumpi\n      dup1\n      0x4c01ac97\n      eq\n      tag_20\n      jumpi\n      dup1\n      0x52f6ee58\n      eq\n      tag_21\n      jumpi\n      dup1\n      0x5727dc5c\n      eq\n      tag_22\n      jumpi\n      dup1\n      0x5a2ee019\n      eq\n      tag_23\n      jumpi\n      dup1\n      0x696f4468\n      eq\n      tag_24\n      jumpi\n      dup1\n      0x7284e416\n      eq\n      tag_25\n      jumpi\n      jump(tag_2)\n    tag_54:\n      dup1\n      0x39cd1f40\n      eq\n      tag_14\n      jumpi\n      dup1\n      0x3c594059\n      eq\n      tag_15\n      jumpi\n      dup1\n      0x3eb8d9f2\n      eq\n      tag_16\n      jumpi\n      dup1\n      0x4002bd0d\n      eq\n      tag_17\n      jumpi\n      dup1\n      0x409e2205\n      eq\n      tag_18\n      jumpi\n      dup1\n      0x43f4dd9f\n      eq\n      tag_19\n      jumpi\n      jump(tag_2)\n    tag_53:\n      dup1\n      0x19c7a165\n      gt\n      tag_55\n      jumpi\n      dup1\n      0x19c7a165\n      eq\n      tag_8\n      jumpi\n      dup1\n      0x1bd95155\n      eq\n      tag_9\n      jumpi\n      dup1\n      0x1c32382f\n      eq\n      tag_10\n      jumpi\n      dup1\n      0x1ed39fc2\n      eq\n      tag_11\n      jumpi\n      dup1\n      0x20982bce\n      eq\n      tag_12\n      jumpi\n      dup1\n      0x2a251c56\n      eq\n      tag_13\n      jumpi\n      jump(tag_2)\n    tag_55:\n      dup1\n      0x03a507be\n      eq\n      tag_3\n      jumpi\n      dup1\n      0x03f673ff\n      eq\n      tag_4\n      jumpi\n      dup1\n      0x0c1ce9dd\n      eq\n      tag_5\n      jumpi\n      dup1\n      0x0fe9e0fd\n      eq\n      tag_6\n      jumpi\n      dup1\n      0x12045e57\n      eq\n      tag_7\n      jumpi\n    tag_2:\n        /* \"--CODEGEN--\":12:13   */\n      0x00\n        /* \"--CODEGEN--\":9:10   */\n      dup1\n        /* \"--CODEGEN--\":2:14   */\n      revert\n        /* \"Vote2.sol\":446:541  uint256 public constant GX = 0x79BE667EF9DCBBAC55A06295CE870B07029BFCDB2DCE28D959F2815B16F81798 */\n    tag_3:\n      tag_56\n      tag_57\n      jump\t// in\n    tag_56:\n      0x40\n      dup1\n      mload\n      swap2\n      dup3\n      mstore\n      mload\n      swap1\n      dup2\n      swap1\n      sub\n      0x20\n      add\n      swap1\n      return\n        /* \"Vote2.sol\":1581:1631  mapping(address=>voter) public eligible_voter_list */\n    tag_4:\n      tag_58\n      0x04\n      dup1\n      calldatasize\n      sub\n        /* \"--CODEGEN--\":15:17   */\n      0x20\n        /* \"--CODEGEN--\":10:13   */\n      dup2\n        /* \"--CODEGEN--\":7:18   */\n      lt\n        /* \"--CODEGEN--\":4:6   */\n      iszero\n      tag_59\n      jumpi\n        /* \"--CODEGEN--\":31:32   */\n      0x00\n        /* \"--CODEGEN--\":28:29   */\n      dup1\n        /* \"--CODEGEN--\":21:33   */\n      revert\n        /* \"--CODEGEN--\":4:6   */\n    tag_59:\n      pop\n        /* \"Vote2.sol\":1581:1631  mapping(address=>voter) public eligible_voter_list */\n      calldataload\n      sub(shl(0xa0, 0x01), 0x01)\n      and\n      tag_60\n      jump\t// in\n    tag_58:\n      0x40\n      dup1\n      mload\n      sub(shl(0xa0, 0x01), 0x01)\n      swap7\n      dup8\n      and\n      dup2\n      mstore\n      swap5\n      swap1\n      swap6\n      and\n      0x20\n      dup6\n      add\n      mstore\n      swap2\n      iszero\n      iszero\n      dup4\n      dup6\n      add\n      mstore\n      0x60\n      dup4\n      add\n      mstore\n      0x80\n      dup3\n      add\n      mstore\n      swap1\n      mload\n      swap1\n      dup2\n      swap1\n      sub\n      0xa0\n      add\n      swap1\n      return\n        /* \"Vote2.sol\":1056:1083  string public vote_question */\n    tag_5:\n      tag_61\n      tag_62\n      jump\t// in\n    tag_61:\n      0x40\n      dup1\n      mload\n      0x20\n      dup1\n      dup3\n      mstore\n      dup4\n      mload\n      dup2\n      dup4\n      add\n      mstore\n      dup4\n      mload\n      swap2\n      swap3\n      dup4\n      swap3\n      swap1\n      dup4\n      add\n      swap2\n      dup6\n      add\n      swap1\n      dup1\n      dup4\n      dup4\n      0x00\n        /* \"--CODEGEN--\":8:108   */\n    tag_63:\n        /* \"--CODEGEN--\":33:36   */\n      dup4\n        /* \"--CODEGEN--\":30:31   */\n      dup2\n        /* \"--CODEGEN--\":27:37   */\n      lt\n        /* \"--CODEGEN--\":8:108   */\n      iszero\n      tag_65\n      jumpi\n        /* \"--CODEGEN--\":90:101   */\n      dup2\n      dup2\n      add\n        /* \"--CODEGEN--\":84:102   */\n      mload\n        /* \"--CODEGEN--\":71:82   */\n      dup4\n      dup3\n      add\n        /* \"--CODEGEN--\":64:103   */\n      mstore\n        /* \"--CODEGEN--\":52:54   */\n      0x20\n        /* \"--CODEGEN--\":45:55   */\n      add\n        /* \"--CODEGEN--\":8:108   */\n      jump(tag_63)\n    tag_65:\n        /* \"--CODEGEN--\":12:26   */\n      pop\n        /* \"Vote2.sol\":1056:1083  string public vote_question */\n      pop\n      pop\n      pop\n      swap1\n      pop\n      swap1\n      dup2\n      add\n      swap1\n      0x1f\n      and\n      dup1\n      iszero\n      tag_66\n      jumpi\n      dup1\n      dup3\n      sub\n      dup1\n      mload\n      0x01\n      dup4\n      0x20\n      sub\n      0x0100\n      exp\n      sub\n      not\n      and\n      dup2\n      mstore\n      0x20\n      add\n      swap2\n      pop\n    tag_66:\n      pop\n      swap3\n      pop\n      pop\n      pop\n      mload(0x40)\n      dup1\n      swap2\n      sub\n      swap1\n      return\n        /* \"Vote2.sol\":6815:8593  function Go_Vote(uint256 v_random,uint256 v_value,address entity_addr)public checkInVoteStage{\r... */\n    tag_6:\n      tag_67\n      0x04\n      dup1\n      calldatasize\n      sub\n        /* \"--CODEGEN--\":15:17   */\n      0x60\n        /* \"--CODEGEN--\":10:13   */\n      dup2\n        /* \"--CODEGEN--\":7:18   */\n      lt\n        /* \"--CODEGEN--\":4:6   */\n      iszero\n      tag_68\n      jumpi\n        /* \"--CODEGEN--\":31:32   */\n      0x00\n        /* \"--CODEGEN--\":28:29   */\n      dup1\n        /* \"--CODEGEN--\":21:33   */\n      revert\n        /* \"--CODEGEN--\":4:6   */\n    tag_68:\n      pop\n        /* \"Vote2.sol\":6815:8593  function Go_Vote(uint256 v_random,uint256 v_value,address entity_addr)public checkInVoteStage{\r... */\n      dup1\n      calldataload\n      swap1\n      0x20\n      dup2\n      add\n      calldataload\n      swap1\n      0x40\n      add\n      calldataload\n      sub(shl(0xa0, 0x01), 0x01)\n      and\n      tag_69\n      jump\t// in\n    tag_67:\n      stop\n        /* \"Vote2.sol\":6546:6722  function Mul(uint sum)public pure returns(uint256 ECC_checked_x,uint256 ECC_checked_y){\r... */\n    tag_7:\n      tag_70\n      0x04\n      dup1\n      calldatasize\n      sub\n        /* \"--CODEGEN--\":15:17   */\n      0x20\n        /* \"--CODEGEN--\":10:13   */\n      dup2\n        /* \"--CODEGEN--\":7:18   */\n      lt\n        /* \"--CODEGEN--\":4:6   */\n      iszero\n      tag_71\n      jumpi\n        /* \"--CODEGEN--\":31:32   */\n      0x00\n        /* \"--CODEGEN--\":28:29   */\n      dup1\n        /* \"--CODEGEN--\":21:33   */\n      revert\n        /* \"--CODEGEN--\":4:6   */\n    tag_71:\n      pop\n        /* \"Vote2.sol\":6546:6722  function Mul(uint sum)public pure returns(uint256 ECC_checked_x,uint256 ECC_checked_y){\r... */\n      calldataload\n      tag_72\n      jump\t// in\n    tag_70:\n      0x40\n      dup1\n      mload\n      swap3\n      dup4\n      mstore\n      0x20\n      dup4\n      add\n      swap2\n      swap1\n      swap2\n      mstore\n      dup1\n      mload\n      swap2\n      dup3\n      swap1\n      sub\n      add\n      swap1\n      return\n        /* \"Vote2.sol\":11041:11182  function return_requirements_rq(string memory temp)public view returns(string memory){\r... */\n    tag_8:\n      tag_61\n      0x04\n      dup1\n      calldatasize\n      sub\n        /* \"--CODEGEN--\":15:17   */\n      0x20\n        /* \"--CODEGEN--\":10:13   */\n      dup2\n        /* \"--CODEGEN--\":7:18   */\n      lt\n        /* \"--CODEGEN--\":4:6   */\n      iszero\n      tag_74\n      jumpi\n        /* \"--CODEGEN--\":31:32   */\n      0x00\n        /* \"--CODEGEN--\":28:29   */\n      dup1\n        /* \"--CODEGEN--\":21:33   */\n      revert\n        /* \"--CODEGEN--\":4:6   */\n    tag_74:\n        /* \"Vote2.sol\":11041:11182  function return_requirements_rq(string memory temp)public view returns(string memory){\r... */\n      dup2\n      add\n      swap1\n      0x20\n      dup2\n      add\n      dup2\n      calldataload\n      shl(0x20, 0x01)\n        /* \"--CODEGEN--\":11:39   */\n      dup2\n      gt\n        /* \"--CODEGEN--\":8:10   */\n      iszero\n      tag_75\n      jumpi\n        /* \"--CODEGEN--\":52:53   */\n      0x00\n        /* \"--CODEGEN--\":49:50   */\n      dup1\n        /* \"--CODEGEN--\":42:54   */\n      revert\n        /* \"--CODEGEN--\":8:10   */\n    tag_75:\n        /* \"Vote2.sol\":11041:11182  function return_requirements_rq(string memory temp)public view returns(string memory){\r... */\n      dup3\n      add\n        /* \"--CODEGEN--\":41:50   */\n      dup4\n        /* \"--CODEGEN--\":34:38   */\n      0x20\n        /* \"--CODEGEN--\":18:32   */\n      dup3\n        /* \"--CODEGEN--\":14:39   */\n      add\n        /* \"--CODEGEN--\":11:51   */\n      gt\n        /* \"--CODEGEN--\":8:10   */\n      iszero\n      tag_76\n      jumpi\n        /* \"--CODEGEN--\":64:65   */\n      0x00\n        /* \"--CODEGEN--\":61:62   */\n      dup1\n        /* \"--CODEGEN--\":54:66   */\n      revert\n        /* \"--CODEGEN--\":8:10   */\n    tag_76:\n        /* \"Vote2.sol\":11041:11182  function return_requirements_rq(string memory temp)public view returns(string memory){\r... */\n      dup1\n      calldataload\n      swap1\n      0x20\n      add\n      swap2\n        /* \"--CODEGEN--\":100:109   */\n      dup5\n        /* \"--CODEGEN--\":95:96   */\n      0x01\n        /* \"--CODEGEN--\":81:93   */\n      dup4\n        /* \"--CODEGEN--\":77:97   */\n      mul\n        /* \"--CODEGEN--\":67:75   */\n      dup5\n        /* \"--CODEGEN--\":63:98   */\n      add\n        /* \"--CODEGEN--\":60:110   */\n      gt\n      shl(0x20, 0x01)\n        /* \"--CODEGEN--\":25:37   */\n      dup4\n        /* \"--CODEGEN--\":22:51   */\n      gt\n        /* \"--CODEGEN--\":11:118   */\n      or\n        /* \"--CODEGEN--\":8:10   */\n      iszero\n      tag_77\n      jumpi\n        /* \"--CODEGEN--\":131:132   */\n      0x00\n        /* \"--CODEGEN--\":128:129   */\n      dup1\n        /* \"--CODEGEN--\":121:133   */\n      revert\n        /* \"--CODEGEN--\":8:10   */\n    tag_77:\n        /* \"Vote2.sol\":11041:11182  function return_requirements_rq(string memory temp)public view returns(string memory){\r... */\n      swap2\n      swap1\n      dup1\n      dup1\n      0x1f\n      add\n      0x20\n      dup1\n      swap2\n      div\n      mul\n      0x20\n      add\n      mload(0x40)\n      swap1\n      dup2\n      add\n      0x40\n      mstore\n      dup1\n      swap4\n      swap3\n      swap2\n      swap1\n      dup2\n      dup2\n      mstore\n      0x20\n      add\n      dup4\n      dup4\n        /* \"--CODEGEN--\":30:33   */\n      dup1\n        /* \"--CODEGEN--\":22:28   */\n      dup3\n        /* \"--CODEGEN--\":14:20   */\n      dup5\n        /* \"--CODEGEN--\":1:34   */\n      calldatacopy\n        /* \"--CODEGEN--\":99:100   */\n      0x00\n        /* \"--CODEGEN--\":81:97   */\n      swap3\n      add\n        /* \"--CODEGEN--\":74:101   */\n      swap2\n      swap1\n      swap2\n      mstore\n      pop\n        /* \"Vote2.sol\":11041:11182  function return_requirements_rq(string memory temp)public view returns(string memory){\r... */\n      swap3\n      swap6\n      pop\n      tag_78\n      swap5\n      pop\n      pop\n      pop\n      pop\n      pop\n      jump\t// in\n        /* \"Vote2.sol\":4507:4873  function stringToUint(string memory s)public pure returns (uint) {\r... */\n    tag_9:\n      tag_56\n      0x04\n      dup1\n      calldatasize\n      sub\n        /* \"--CODEGEN--\":15:17   */\n      0x20\n        /* \"--CODEGEN--\":10:13   */\n      dup2\n        /* \"--CODEGEN--\":7:18   */\n      lt\n        /* \"--CODEGEN--\":4:6   */\n      iszero\n      tag_84\n      jumpi\n        /* \"--CODEGEN--\":31:32   */\n      0x00\n        /* \"--CODEGEN--\":28:29   */\n      dup1\n        /* \"--CODEGEN--\":21:33   */\n      revert\n        /* \"--CODEGEN--\":4:6   */\n    tag_84:\n        /* \"Vote2.sol\":4507:4873  function stringToUint(string memory s)public pure returns (uint) {\r... */\n      dup2\n      add\n      swap1\n      0x20\n      dup2\n      add\n      dup2\n      calldataload\n      shl(0x20, 0x01)\n        /* \"--CODEGEN--\":11:39   */\n      dup2\n      gt\n        /* \"--CODEGEN--\":8:10   */\n      iszero\n      tag_85\n      jumpi\n        /* \"--CODEGEN--\":52:53   */\n      0x00\n        /* \"--CODEGEN--\":49:50   */\n      dup1\n        /* \"--CODEGEN--\":42:54   */\n      revert\n        /* \"--CODEGEN--\":8:10   */\n    tag_85:\n        /* \"Vote2.sol\":4507:4873  function stringToUint(string memory s)public pure returns (uint) {\r... */\n      dup3\n      add\n        /* \"--CODEGEN--\":41:50   */\n      dup4\n        /* \"--CODEGEN--\":34:38   */\n      0x20\n        /* \"--CODEGEN--\":18:32   */\n      dup3\n        /* \"--CODEGEN--\":14:39   */\n      add\n        /* \"--CODEGEN--\":11:51   */\n      gt\n        /* \"--CODEGEN--\":8:10   */\n      iszero\n      tag_86\n      jumpi\n        /* \"--CODEGEN--\":64:65   */\n      0x00\n        /* \"--CODEGEN--\":61:62   */\n      dup1\n        /* \"--CODEGEN--\":54:66   */\n      revert\n        /* \"--CODEGEN--\":8:10   */\n    tag_86:\n        /* \"Vote2.sol\":4507:4873  function stringToUint(string memory s)public pure returns (uint) {\r... */\n      dup1\n      calldataload\n      swap1\n      0x20\n      add\n      swap2\n        /* \"--CODEGEN--\":100:109   */\n      dup5\n        /* \"--CODEGEN--\":95:96   */\n      0x01\n        /* \"--CODEGEN--\":81:93   */\n      dup4\n        /* \"--CODEGEN--\":77:97   */\n      mul\n        /* \"--CODEGEN--\":67:75   */\n      dup5\n        /* \"--CODEGEN--\":63:98   */\n      add\n        /* \"--CODEGEN--\":60:110   */\n      gt\n      shl(0x20, 0x01)\n        /* \"--CODEGEN--\":25:37   */\n      dup4\n        /* \"--CODEGEN--\":22:51   */\n      gt\n        /* \"--CODEGEN--\":11:118   */\n      or\n        /* \"--CODEGEN--\":8:10   */\n      iszero\n      tag_87\n      jumpi\n        /* \"--CODEGEN--\":131:132   */\n      0x00\n        /* \"--CODEGEN--\":128:129   */\n      dup1\n        /* \"--CODEGEN--\":121:133   */\n      revert\n        /* \"--CODEGEN--\":8:10   */\n    tag_87:\n        /* \"Vote2.sol\":4507:4873  function stringToUint(string memory s)public pure returns (uint) {\r... */\n      swap2\n      swap1\n      dup1\n      dup1\n      0x1f\n      add\n      0x20\n      dup1\n      swap2\n      div\n      mul\n      0x20\n      add\n      mload(0x40)\n      swap1\n      dup2\n      add\n      0x40\n      mstore\n      dup1\n      swap4\n      swap3\n      swap2\n      swap1\n      dup2\n      dup2\n      mstore\n      0x20\n      add\n      dup4\n      dup4\n        /* \"--CODEGEN--\":30:33   */\n      dup1\n        /* \"--CODEGEN--\":22:28   */\n      dup3\n        /* \"--CODEGEN--\":14:20   */\n      dup5\n        /* \"--CODEGEN--\":1:34   */\n      calldatacopy\n        /* \"--CODEGEN--\":99:100   */\n      0x00\n        /* \"--CODEGEN--\":81:97   */\n      swap3\n      add\n        /* \"--CODEGEN--\":74:101   */\n      swap2\n      swap1\n      swap2\n      mstore\n      pop\n        /* \"Vote2.sol\":4507:4873  function stringToUint(string memory s)public pure returns (uint) {\r... */\n      swap3\n      swap6\n      pop\n      tag_88\n      swap5\n      pop\n      pop\n      pop\n      pop\n      pop\n      jump\t// in\n        /* \"Vote2.sol\":1148:1171  uint public options_num */\n    tag_10:\n      tag_56\n      tag_90\n      jump\t// in\n        /* \"Vote2.sol\":11188:11318  function return_requirements_type(string memory temp)public view returns(uint){\r... */\n    tag_11:\n      tag_56\n      0x04\n      dup1\n      calldatasize\n      sub\n        /* \"--CODEGEN--\":15:17   */\n      0x20\n        /* \"--CODEGEN--\":10:13   */\n      dup2\n        /* \"--CODEGEN--\":7:18   */\n      lt\n        /* \"--CODEGEN--\":4:6   */\n      iszero\n      tag_92\n      jumpi\n        /* \"--CODEGEN--\":31:32   */\n      0x00\n        /* \"--CODEGEN--\":28:29   */\n      dup1\n        /* \"--CODEGEN--\":21:33   */\n      revert\n        /* \"--CODEGEN--\":4:6   */\n    tag_92:\n        /* \"Vote2.sol\":11188:11318  function return_requirements_type(string memory temp)public view returns(uint){\r... */\n      dup2\n      add\n      swap1\n      0x20\n      dup2\n      add\n      dup2\n      calldataload\n      shl(0x20, 0x01)\n        /* \"--CODEGEN--\":11:39   */\n      dup2\n      gt\n        /* \"--CODEGEN--\":8:10   */\n      iszero\n      tag_93\n      jumpi\n        /* \"--CODEGEN--\":52:53   */\n      0x00\n        /* \"--CODEGEN--\":49:50   */\n      dup1\n        /* \"--CODEGEN--\":42:54   */\n      revert\n        /* \"--CODEGEN--\":8:10   */\n    tag_93:\n        /* \"Vote2.sol\":11188:11318  function return_requirements_type(string memory temp)public view returns(uint){\r... */\n      dup3\n      add\n        /* \"--CODEGEN--\":41:50   */\n      dup4\n        /* \"--CODEGEN--\":34:38   */\n      0x20\n        /* \"--CODEGEN--\":18:32   */\n      dup3\n        /* \"--CODEGEN--\":14:39   */\n      add\n        /* \"--CODEGEN--\":11:51   */\n      gt\n        /* \"--CODEGEN--\":8:10   */\n      iszero\n      tag_94\n      jumpi\n        /* \"--CODEGEN--\":64:65   */\n      0x00\n        /* \"--CODEGEN--\":61:62   */\n      dup1\n        /* \"--CODEGEN--\":54:66   */\n      revert\n        /* \"--CODEGEN--\":8:10   */\n    tag_94:\n        /* \"Vote2.sol\":11188:11318  function return_requirements_type(string memory temp)public view returns(uint){\r... */\n      dup1\n      calldataload\n      swap1\n      0x20\n      add\n      swap2\n        /* \"--CODEGEN--\":100:109   */\n      dup5\n        /* \"--CODEGEN--\":95:96   */\n      0x01\n        /* \"--CODEGEN--\":81:93   */\n      dup4\n        /* \"--CODEGEN--\":77:97   */\n      mul\n        /* \"--CODEGEN--\":67:75   */\n      dup5\n        /* \"--CODEGEN--\":63:98   */\n      add\n        /* \"--CODEGEN--\":60:110   */\n      gt\n      shl(0x20, 0x01)\n        /* \"--CODEGEN--\":25:37   */\n      dup4\n        /* \"--CODEGEN--\":22:51   */\n      gt\n        /* \"--CODEGEN--\":11:118   */\n      or\n        /* \"--CODEGEN--\":8:10   */\n      iszero\n      tag_95\n      jumpi\n        /* \"--CODEGEN--\":131:132   */\n      0x00\n        /* \"--CODEGEN--\":128:129   */\n      dup1\n        /* \"--CODEGEN--\":121:133   */\n      revert\n        /* \"--CODEGEN--\":8:10   */\n    tag_95:\n        /* \"Vote2.sol\":11188:11318  function return_requirements_type(string memory temp)public view returns(uint){\r... */\n      swap2\n      swap1\n      dup1\n      dup1\n      0x1f\n      add\n      0x20\n      dup1\n      swap2\n      div\n      mul\n      0x20\n      add\n      mload(0x40)\n      swap1\n      dup2\n      add\n      0x40\n      mstore\n      dup1\n      swap4\n      swap3\n      swap2\n      swap1\n      dup2\n      dup2\n      mstore\n      0x20\n      add\n      dup4\n      dup4\n        /* \"--CODEGEN--\":30:33   */\n      dup1\n        /* \"--CODEGEN--\":22:28   */\n      dup3\n        /* \"--CODEGEN--\":14:20   */\n      dup5\n        /* \"--CODEGEN--\":1:34   */\n      calldatacopy\n        /* \"--CODEGEN--\":99:100   */\n      0x00\n        /* \"--CODEGEN--\":81:97   */\n      swap3\n      add\n        /* \"--CODEGEN--\":74:101   */\n      swap2\n      swap1\n      swap2\n      mstore\n      pop\n        /* \"Vote2.sol\":11188:11318  function return_requirements_type(string memory temp)public view returns(uint){\r... */\n      swap3\n      swap6\n      pop\n      tag_96\n      swap5\n      pop\n      pop\n      pop\n      pop\n      pop\n      jump\t// in\n        /* \"Vote2.sol\":1194:1214  uint[2] public times */\n    tag_12:\n      tag_56\n      0x04\n      dup1\n      calldatasize\n      sub\n        /* \"--CODEGEN--\":15:17   */\n      0x20\n        /* \"--CODEGEN--\":10:13   */\n      dup2\n        /* \"--CODEGEN--\":7:18   */\n      lt\n        /* \"--CODEGEN--\":4:6   */\n      iszero\n      tag_98\n      jumpi\n        /* \"--CODEGEN--\":31:32   */\n      0x00\n        /* \"--CODEGEN--\":28:29   */\n      dup1\n        /* \"--CODEGEN--\":21:33   */\n      revert\n        /* \"--CODEGEN--\":4:6   */\n    tag_98:\n      pop\n        /* \"Vote2.sol\":1194:1214  uint[2] public times */\n      calldataload\n      tag_99\n      jump\t// in\n        /* \"Vote2.sol\":4879:6345  function Validation(address e_addr)public view returns (bool){\r... */\n    tag_13:\n      tag_100\n      0x04\n      dup1\n      calldatasize\n      sub\n        /* \"--CODEGEN--\":15:17   */\n      0x20\n        /* \"--CODEGEN--\":10:13   */\n      dup2\n        /* \"--CODEGEN--\":7:18   */\n      lt\n        /* \"--CODEGEN--\":4:6   */\n      iszero\n      tag_101\n      jumpi\n        /* \"--CODEGEN--\":31:32   */\n      0x00\n        /* \"--CODEGEN--\":28:29   */\n      dup1\n        /* \"--CODEGEN--\":21:33   */\n      revert\n        /* \"--CODEGEN--\":4:6   */\n    tag_101:\n      pop\n        /* \"Vote2.sol\":4879:6345  function Validation(address e_addr)public view returns (bool){\r... */\n      calldataload\n      sub(shl(0xa0, 0x01), 0x01)\n      and\n      tag_102\n      jump\t// in\n    tag_100:\n      0x40\n      dup1\n      mload\n      swap2\n      iszero\n      iszero\n      dup3\n      mstore\n      mload\n      swap1\n      dup2\n      swap1\n      sub\n      0x20\n      add\n      swap1\n      return\n        /* \"Vote2.sol\":6351:6540  function Add(uint a,uint b,uint c,uint d)public pure returns(uint256 ECC_checked_x,uint256 ECC_checked_y){\r... */\n    tag_14:\n      tag_70\n      0x04\n      dup1\n      calldatasize\n      sub\n        /* \"--CODEGEN--\":15:18   */\n      0x80\n        /* \"--CODEGEN--\":10:13   */\n      dup2\n        /* \"--CODEGEN--\":7:19   */\n      lt\n        /* \"--CODEGEN--\":4:6   */\n      iszero\n      tag_104\n      jumpi\n        /* \"--CODEGEN--\":32:33   */\n      0x00\n        /* \"--CODEGEN--\":29:30   */\n      dup1\n        /* \"--CODEGEN--\":22:34   */\n      revert\n        /* \"--CODEGEN--\":4:6   */\n    tag_104:\n      pop\n        /* \"Vote2.sol\":6351:6540  function Add(uint a,uint b,uint c,uint d)public pure returns(uint256 ECC_checked_x,uint256 ECC_checked_y){\r... */\n      dup1\n      calldataload\n      swap1\n      0x20\n      dup2\n      add\n      calldataload\n      swap1\n      0x40\n      dup2\n      add\n      calldataload\n      swap1\n      0x60\n      add\n      calldataload\n      tag_105\n      jump\t// in\n        /* \"Vote2.sol\":1949:1967  int[]public result */\n    tag_15:\n      tag_56\n      0x04\n      dup1\n      calldatasize\n      sub\n        /* \"--CODEGEN--\":15:17   */\n      0x20\n        /* \"--CODEGEN--\":10:13   */\n      dup2\n        /* \"--CODEGEN--\":7:18   */\n      lt\n        /* \"--CODEGEN--\":4:6   */\n      iszero\n      tag_107\n      jumpi\n        /* \"--CODEGEN--\":31:32   */\n      0x00\n        /* \"--CODEGEN--\":28:29   */\n      dup1\n        /* \"--CODEGEN--\":21:33   */\n      revert\n        /* \"--CODEGEN--\":4:6   */\n    tag_107:\n      pop\n        /* \"Vote2.sol\":1949:1967  int[]public result */\n      calldataload\n      tag_108\n      jump\t// in\n        /* \"Vote2.sol\":2643:3167  function blockOrTimeReached(uint i)public view returns(bool){\r... */\n    tag_16:\n      tag_100\n      0x04\n      dup1\n      calldatasize\n      sub\n        /* \"--CODEGEN--\":15:17   */\n      0x20\n        /* \"--CODEGEN--\":10:13   */\n      dup2\n        /* \"--CODEGEN--\":7:18   */\n      lt\n        /* \"--CODEGEN--\":4:6   */\n      iszero\n      tag_110\n      jumpi\n        /* \"--CODEGEN--\":31:32   */\n      0x00\n        /* \"--CODEGEN--\":28:29   */\n      dup1\n        /* \"--CODEGEN--\":21:33   */\n      revert\n        /* \"--CODEGEN--\":4:6   */\n    tag_110:\n      pop\n        /* \"Vote2.sol\":2643:3167  function blockOrTimeReached(uint i)public view returns(bool){\r... */\n      calldataload\n      tag_111\n      jump\t// in\n        /* \"Vote2.sol\":3397:3574  function set_up_options(string memory o)public isOwner{\r... */\n    tag_17:\n      tag_67\n      0x04\n      dup1\n      calldatasize\n      sub\n        /* \"--CODEGEN--\":15:17   */\n      0x20\n        /* \"--CODEGEN--\":10:13   */\n      dup2\n        /* \"--CODEGEN--\":7:18   */\n      lt\n        /* \"--CODEGEN--\":4:6   */\n      iszero\n      tag_113\n      jumpi\n        /* \"--CODEGEN--\":31:32   */\n      0x00\n        /* \"--CODEGEN--\":28:29   */\n      dup1\n        /* \"--CODEGEN--\":21:33   */\n      revert\n        /* \"--CODEGEN--\":4:6   */\n    tag_113:\n        /* \"Vote2.sol\":3397:3574  function set_up_options(string memory o)public isOwner{\r... */\n      dup2\n      add\n      swap1\n      0x20\n      dup2\n      add\n      dup2\n      calldataload\n      shl(0x20, 0x01)\n        /* \"--CODEGEN--\":11:39   */\n      dup2\n      gt\n        /* \"--CODEGEN--\":8:10   */\n      iszero\n      tag_114\n      jumpi\n        /* \"--CODEGEN--\":52:53   */\n      0x00\n        /* \"--CODEGEN--\":49:50   */\n      dup1\n        /* \"--CODEGEN--\":42:54   */\n      revert\n        /* \"--CODEGEN--\":8:10   */\n    tag_114:\n        /* \"Vote2.sol\":3397:3574  function set_up_options(string memory o)public isOwner{\r... */\n      dup3\n      add\n        /* \"--CODEGEN--\":41:50   */\n      dup4\n        /* \"--CODEGEN--\":34:38   */\n      0x20\n        /* \"--CODEGEN--\":18:32   */\n      dup3\n        /* \"--CODEGEN--\":14:39   */\n      add\n        /* \"--CODEGEN--\":11:51   */\n      gt\n        /* \"--CODEGEN--\":8:10   */\n      iszero\n      tag_115\n      jumpi\n        /* \"--CODEGEN--\":64:65   */\n      0x00\n        /* \"--CODEGEN--\":61:62   */\n      dup1\n        /* \"--CODEGEN--\":54:66   */\n      revert\n        /* \"--CODEGEN--\":8:10   */\n    tag_115:\n        /* \"Vote2.sol\":3397:3574  function set_up_options(string memory o)public isOwner{\r... */\n      dup1\n      calldataload\n      swap1\n      0x20\n      add\n      swap2\n        /* \"--CODEGEN--\":100:109   */\n      dup5\n        /* \"--CODEGEN--\":95:96   */\n      0x01\n        /* \"--CODEGEN--\":81:93   */\n      dup4\n        /* \"--CODEGEN--\":77:97   */\n      mul\n        /* \"--CODEGEN--\":67:75   */\n      dup5\n        /* \"--CODEGEN--\":63:98   */\n      add\n        /* \"--CODEGEN--\":60:110   */\n      gt\n      shl(0x20, 0x01)\n        /* \"--CODEGEN--\":25:37   */\n      dup4\n        /* \"--CODEGEN--\":22:51   */\n      gt\n        /* \"--CODEGEN--\":11:118   */\n      or\n        /* \"--CODEGEN--\":8:10   */\n      iszero\n      tag_116\n      jumpi\n        /* \"--CODEGEN--\":131:132   */\n      0x00\n        /* \"--CODEGEN--\":128:129   */\n      dup1\n        /* \"--CODEGEN--\":121:133   */\n      revert\n        /* \"--CODEGEN--\":8:10   */\n    tag_116:\n        /* \"Vote2.sol\":3397:3574  function set_up_options(string memory o)public isOwner{\r... */\n      swap2\n      swap1\n      dup1\n      dup1\n      0x1f\n      add\n      0x20\n      dup1\n      swap2\n      div\n      mul\n      0x20\n      add\n      mload(0x40)\n      swap1\n      dup2\n      add\n      0x40\n      mstore\n      dup1\n      swap4\n      swap3\n      swap2\n      swap1\n      dup2\n      dup2\n      mstore\n      0x20\n      add\n      dup4\n      dup4\n        /* \"--CODEGEN--\":30:33   */\n      dup1\n        /* \"--CODEGEN--\":22:28   */\n      dup3\n        /* \"--CODEGEN--\":14:20   */\n      dup5\n        /* \"--CODEGEN--\":1:34   */\n      calldatacopy\n        /* \"--CODEGEN--\":99:100   */\n      0x00\n        /* \"--CODEGEN--\":81:97   */\n      swap3\n      add\n        /* \"--CODEGEN--\":74:101   */\n      swap2\n      swap1\n      swap2\n      mstore\n      pop\n        /* \"Vote2.sol\":3397:3574  function set_up_options(string memory o)public isOwner{\r... */\n      swap3\n      swap6\n      pop\n      tag_117\n      swap5\n      pop\n      pop\n      pop\n      pop\n      pop\n      jump\t// in\n        /* \"Vote2.sol\":1104:1127  string[] public options */\n    tag_18:\n      tag_61\n      0x04\n      dup1\n      calldatasize\n      sub\n        /* \"--CODEGEN--\":15:17   */\n      0x20\n        /* \"--CODEGEN--\":10:13   */\n      dup2\n        /* \"--CODEGEN--\":7:18   */\n      lt\n        /* \"--CODEGEN--\":4:6   */\n      iszero\n      tag_119\n      jumpi\n        /* \"--CODEGEN--\":31:32   */\n      0x00\n        /* \"--CODEGEN--\":28:29   */\n      dup1\n        /* \"--CODEGEN--\":21:33   */\n      revert\n        /* \"--CODEGEN--\":4:6   */\n    tag_119:\n      pop\n        /* \"Vote2.sol\":1104:1127  string[] public options */\n      calldataload\n      tag_120\n      jump\t// in\n        /* \"Vote2.sol\":844:867  uint256 public Vote_sum */\n    tag_19:\n      tag_56\n      tag_126\n      jump\t// in\n        /* \"Vote2.sol\":9391:9772  function checkECCMath(uint s)public view returns(bool){\r... */\n    tag_20:\n      tag_100\n      0x04\n      dup1\n      calldatasize\n      sub\n        /* \"--CODEGEN--\":15:17   */\n      0x20\n        /* \"--CODEGEN--\":10:13   */\n      dup2\n        /* \"--CODEGEN--\":7:18   */\n      lt\n        /* \"--CODEGEN--\":4:6   */\n      iszero\n      tag_128\n      jumpi\n        /* \"--CODEGEN--\":31:32   */\n      0x00\n        /* \"--CODEGEN--\":28:29   */\n      dup1\n        /* \"--CODEGEN--\":21:33   */\n      revert\n        /* \"--CODEGEN--\":4:6   */\n    tag_128:\n      pop\n        /* \"Vote2.sol\":9391:9772  function checkECCMath(uint s)public view returns(bool){\r... */\n      calldataload\n      tag_129\n      jump\t// in\n        /* \"Vote2.sol\":960:983  uint256 public exponent */\n    tag_21:\n      tag_56\n      tag_131\n      jump\t// in\n        /* \"Vote2.sol\":693:723  uint256 public constant BB = 7 */\n    tag_22:\n      tag_56\n      tag_133\n      jump\t// in\n        /* \"Vote2.sol\":992:1008  uint256 public m */\n    tag_23:\n      tag_56\n      tag_135\n      jump\t// in\n        /* \"Vote2.sol\":10813:10902  function return_result()public view returns(int[] memory){\r... */\n    tag_24:\n      tag_136\n      tag_137\n      jump\t// in\n    tag_136:\n      0x40\n      dup1\n      mload\n      0x20\n      dup1\n      dup3\n      mstore\n      dup4\n      mload\n      dup2\n      dup4\n      add\n      mstore\n      dup4\n      mload\n      swap2\n      swap3\n      dup4\n      swap3\n      swap1\n      dup4\n      add\n      swap2\n      dup6\n      dup2\n      add\n      swap2\n      mul\n      dup1\n      dup4\n      dup4\n      0x00\n        /* \"--CODEGEN--\":8:108   */\n    tag_138:\n        /* \"--CODEGEN--\":33:36   */\n      dup4\n        /* \"--CODEGEN--\":30:31   */\n      dup2\n        /* \"--CODEGEN--\":27:37   */\n      lt\n        /* \"--CODEGEN--\":8:108   */\n      iszero\n      tag_140\n      jumpi\n        /* \"--CODEGEN--\":90:101   */\n      dup2\n      dup2\n      add\n        /* \"--CODEGEN--\":84:102   */\n      mload\n        /* \"--CODEGEN--\":71:82   */\n      dup4\n      dup3\n      add\n        /* \"--CODEGEN--\":64:103   */\n      mstore\n        /* \"--CODEGEN--\":52:54   */\n      0x20\n        /* \"--CODEGEN--\":45:55   */\n      add\n        /* \"--CODEGEN--\":8:108   */\n      jump(tag_138)\n    tag_140:\n        /* \"--CODEGEN--\":12:26   */\n      pop\n        /* \"Vote2.sol\":10813:10902  function return_result()public view returns(int[] memory){\r... */\n      pop\n      pop\n      pop\n      swap1\n      pop\n      add\n      swap3\n      pop\n      pop\n      pop\n      mload(0x40)\n      dup1\n      swap2\n      sub\n      swap1\n      return\n        /* \"Vote2.sol\":1778:1803  string public description */\n    tag_25:\n      tag_61\n      tag_142\n      jump\t// in\n        /* \"Vote2.sol\":10908:11035  function return_requirements_key(uint index)public view returns(string memory){\r... */\n    tag_26:\n      tag_61\n      0x04\n      dup1\n      calldatasize\n      sub\n        /* \"--CODEGEN--\":15:17   */\n      0x20\n        /* \"--CODEGEN--\":10:13   */\n      dup2\n        /* \"--CODEGEN--\":7:18   */\n      lt\n        /* \"--CODEGEN--\":4:6   */\n      iszero\n      tag_148\n      jumpi\n        /* \"--CODEGEN--\":31:32   */\n      0x00\n        /* \"--CODEGEN--\":28:29   */\n      dup1\n        /* \"--CODEGEN--\":21:33   */\n      revert\n        /* \"--CODEGEN--\":4:6   */\n    tag_148:\n      pop\n        /* \"Vote2.sol\":10908:11035  function return_requirements_key(uint index)public view returns(string memory){\r... */\n      calldataload\n      tag_149\n      jump\t// in\n        /* \"Vote2.sol\":550:645  uint256 public constant GY = 0x483ADA7726A3C4655DA4FBFC0E1108A8FD17B448A68554199C47D08FFB10D4B8 */\n    tag_27:\n      tag_56\n      tag_155\n      jump\t// in\n        /* \"Vote2.sol\":4355:4473  function SetFinish()public isOwner{\r... */\n    tag_28:\n      tag_67\n      tag_157\n      jump\t// in\n        /* \"Vote2.sol\":1023:1043  address public owner */\n    tag_29:\n      tag_158\n      tag_159\n      jump\t// in\n    tag_158:\n      0x40\n      dup1\n      mload\n      0x01\n      dup1\n      0xa0\n      shl\n      sub\n      swap1\n      swap3\n      and\n      dup3\n      mstore\n      mload\n      swap1\n      dup2\n      swap1\n      sub\n      0x20\n      add\n      swap1\n      return\n        /* \"Vote2.sol\":654:684  uint256 public constant AA = 0 */\n    tag_30:\n      tag_56\n      tag_161\n      jump\t// in\n        /* \"Vote2.sol\":876:905  uint256 public Vote_sum_ECC_x */\n    tag_31:\n      tag_56\n      tag_163\n      jump\t// in\n        /* \"Vote2.sol\":11324:11435  function return_requirements_length()public view returns(uint){\r... */\n    tag_32:\n      tag_56\n      tag_165\n      jump\t// in\n        /* \"Vote2.sol\":1690:1722  address public write_entity_addr */\n    tag_33:\n      tag_158\n      tag_167\n      jump\t// in\n        /* \"Vote2.sol\":1810:1851  mapping(string => rq) public requirements */\n    tag_34:\n      tag_168\n      0x04\n      dup1\n      calldatasize\n      sub\n        /* \"--CODEGEN--\":15:17   */\n      0x20\n        /* \"--CODEGEN--\":10:13   */\n      dup2\n        /* \"--CODEGEN--\":7:18   */\n      lt\n        /* \"--CODEGEN--\":4:6   */\n      iszero\n      tag_169\n      jumpi\n        /* \"--CODEGEN--\":31:32   */\n      0x00\n        /* \"--CODEGEN--\":28:29   */\n      dup1\n        /* \"--CODEGEN--\":21:33   */\n      revert\n        /* \"--CODEGEN--\":4:6   */\n    tag_169:\n        /* \"Vote2.sol\":1810:1851  mapping(string => rq) public requirements */\n      dup2\n      add\n      swap1\n      0x20\n      dup2\n      add\n      dup2\n      calldataload\n      shl(0x20, 0x01)\n        /* \"--CODEGEN--\":11:39   */\n      dup2\n      gt\n        /* \"--CODEGEN--\":8:10   */\n      iszero\n      tag_170\n      jumpi\n        /* \"--CODEGEN--\":52:53   */\n      0x00\n        /* \"--CODEGEN--\":49:50   */\n      dup1\n        /* \"--CODEGEN--\":42:54   */\n      revert\n        /* \"--CODEGEN--\":8:10   */\n    tag_170:\n        /* \"Vote2.sol\":1810:1851  mapping(string => rq) public requirements */\n      dup3\n      add\n        /* \"--CODEGEN--\":41:50   */\n      dup4\n        /* \"--CODEGEN--\":34:38   */\n      0x20\n        /* \"--CODEGEN--\":18:32   */\n      dup3\n        /* \"--CODEGEN--\":14:39   */\n      add\n        /* \"--CODEGEN--\":11:51   */\n      gt\n        /* \"--CODEGEN--\":8:10   */\n      iszero\n      tag_171\n      jumpi\n        /* \"--CODEGEN--\":64:65   */\n      0x00\n        /* \"--CODEGEN--\":61:62   */\n      dup1\n        /* \"--CODEGEN--\":54:66   */\n      revert\n        /* \"--CODEGEN--\":8:10   */\n    tag_171:\n        /* \"Vote2.sol\":1810:1851  mapping(string => rq) public requirements */\n      dup1\n      calldataload\n      swap1\n      0x20\n      add\n      swap2\n        /* \"--CODEGEN--\":100:109   */\n      dup5\n        /* \"--CODEGEN--\":95:96   */\n      0x01\n        /* \"--CODEGEN--\":81:93   */\n      dup4\n        /* \"--CODEGEN--\":77:97   */\n      mul\n        /* \"--CODEGEN--\":67:75   */\n      dup5\n        /* \"--CODEGEN--\":63:98   */\n      add\n        /* \"--CODEGEN--\":60:110   */\n      gt\n      shl(0x20, 0x01)\n        /* \"--CODEGEN--\":25:37   */\n      dup4\n        /* \"--CODEGEN--\":22:51   */\n      gt\n        /* \"--CODEGEN--\":11:118   */\n      or\n        /* \"--CODEGEN--\":8:10   */\n      iszero\n      tag_172\n      jumpi\n        /* \"--CODEGEN--\":131:132   */\n      0x00\n        /* \"--CODEGEN--\":128:129   */\n      dup1\n        /* \"--CODEGEN--\":121:133   */\n      revert\n        /* \"--CODEGEN--\":8:10   */\n    tag_172:\n        /* \"Vote2.sol\":1810:1851  mapping(string => rq) public requirements */\n      swap2\n      swap1\n      dup1\n      dup1\n      0x1f\n      add\n      0x20\n      dup1\n      swap2\n      div\n      mul\n      0x20\n      add\n      mload(0x40)\n      swap1\n      dup2\n      add\n      0x40\n      mstore\n      dup1\n      swap4\n      swap3\n      swap2\n      swap1\n      dup2\n      dup2\n      mstore\n      0x20\n      add\n      dup4\n      dup4\n        /* \"--CODEGEN--\":30:33   */\n      dup1\n        /* \"--CODEGEN--\":22:28   */\n      dup3\n        /* \"--CODEGEN--\":14:20   */\n      dup5\n        /* \"--CODEGEN--\":1:34   */\n      calldatacopy\n        /* \"--CODEGEN--\":99:100   */\n      0x00\n        /* \"--CODEGEN--\":81:97   */\n      swap3\n      add\n        /* \"--CODEGEN--\":74:101   */\n      swap2\n      swap1\n      swap2\n      mstore\n      pop\n        /* \"Vote2.sol\":1810:1851  mapping(string => rq) public requirements */\n      swap3\n      swap6\n      pop\n      tag_173\n      swap5\n      pop\n      pop\n      pop\n      pop\n      pop\n      jump\t// in\n    tag_168:\n      mload(0x40)\n      dup1\n      dup1\n      0x20\n      add\n      dup4\n      dup2\n      mstore\n      0x20\n      add\n      dup3\n      dup2\n      sub\n      dup3\n      mstore\n      dup5\n      dup2\n      dup2\n      mload\n      dup2\n      mstore\n      0x20\n      add\n      swap2\n      pop\n      dup1\n      mload\n      swap1\n      0x20\n      add\n      swap1\n      dup1\n      dup4\n      dup4\n        /* \"--CODEGEN--\":23:24   */\n      0x00\n        /* \"--CODEGEN--\":8:108   */\n    tag_174:\n        /* \"--CODEGEN--\":33:36   */\n      dup4\n        /* \"--CODEGEN--\":30:31   */\n      dup2\n        /* \"--CODEGEN--\":27:37   */\n      lt\n        /* \"--CODEGEN--\":8:108   */\n      iszero\n      tag_176\n      jumpi\n        /* \"--CODEGEN--\":90:101   */\n      dup2\n      dup2\n      add\n        /* \"--CODEGEN--\":84:102   */\n      mload\n        /* \"--CODEGEN--\":71:82   */\n      dup4\n      dup3\n      add\n        /* \"--CODEGEN--\":64:103   */\n      mstore\n        /* \"--CODEGEN--\":52:54   */\n      0x20\n        /* \"--CODEGEN--\":45:55   */\n      add\n        /* \"--CODEGEN--\":8:108   */\n      jump(tag_174)\n    tag_176:\n        /* \"--CODEGEN--\":12:26   */\n      pop\n        /* \"Vote2.sol\":1810:1851  mapping(string => rq) public requirements */\n      pop\n      pop\n      pop\n      swap1\n      pop\n      swap1\n      dup2\n      add\n      swap1\n      0x1f\n      and\n      dup1\n      iszero\n      tag_177\n      jumpi\n      dup1\n      dup3\n      sub\n      dup1\n      mload\n      0x01\n      dup4\n      0x20\n      sub\n      0x0100\n      exp\n      sub\n      not\n      and\n      dup2\n      mstore\n      0x20\n      add\n      swap2\n      pop\n    tag_177:\n      pop\n      swap4\n      pop\n      pop\n      pop\n      pop\n      mload(0x40)\n      dup1\n      swap2\n      sub\n      swap1\n      return\n        /* \"Vote2.sol\":2083:2101  State public state */\n    tag_35:\n      tag_178\n      tag_179\n      jump\t// in\n    tag_178:\n      mload(0x40)\n      dup1\n      dup3\n      0x03\n      dup2\n      gt\n      iszero\n      tag_180\n      jumpi\n      invalid\n    tag_180:\n      0xff\n      and\n      dup2\n      mstore\n      0x20\n      add\n      swap2\n      pop\n      pop\n      mload(0x40)\n      dup1\n      swap2\n      sub\n      swap1\n      return\n        /* \"Vote2.sol\":914:943  uint256 public Vote_sum_ECC_y */\n    tag_36:\n      tag_56\n      tag_182\n      jump\t// in\n        /* \"Vote2.sol\":2108:2125  bool public isSet */\n    tag_37:\n      tag_100\n      tag_184\n      jump\t// in\n        /* \"Vote2.sol\":3582:3903  function set_up_requirement(string memory _key,string memory _value, uint _type)public isOwner{\r... */\n    tag_38:\n      tag_67\n      0x04\n      dup1\n      calldatasize\n      sub\n        /* \"--CODEGEN--\":15:17   */\n      0x60\n        /* \"--CODEGEN--\":10:13   */\n      dup2\n        /* \"--CODEGEN--\":7:18   */\n      lt\n        /* \"--CODEGEN--\":4:6   */\n      iszero\n      tag_186\n      jumpi\n        /* \"--CODEGEN--\":31:32   */\n      0x00\n        /* \"--CODEGEN--\":28:29   */\n      dup1\n        /* \"--CODEGEN--\":21:33   */\n      revert\n        /* \"--CODEGEN--\":4:6   */\n    tag_186:\n        /* \"Vote2.sol\":3582:3903  function set_up_requirement(string memory _key,string memory _value, uint _type)public isOwner{\r... */\n      dup2\n      add\n      swap1\n      0x20\n      dup2\n      add\n      dup2\n      calldataload\n      shl(0x20, 0x01)\n        /* \"--CODEGEN--\":11:39   */\n      dup2\n      gt\n        /* \"--CODEGEN--\":8:10   */\n      iszero\n      tag_187\n      jumpi\n        /* \"--CODEGEN--\":52:53   */\n      0x00\n        /* \"--CODEGEN--\":49:50   */\n      dup1\n        /* \"--CODEGEN--\":42:54   */\n      revert\n        /* \"--CODEGEN--\":8:10   */\n    tag_187:\n        /* \"Vote2.sol\":3582:3903  function set_up_requirement(string memory _key,string memory _value, uint _type)public isOwner{\r... */\n      dup3\n      add\n        /* \"--CODEGEN--\":41:50   */\n      dup4\n        /* \"--CODEGEN--\":34:38   */\n      0x20\n        /* \"--CODEGEN--\":18:32   */\n      dup3\n        /* \"--CODEGEN--\":14:39   */\n      add\n        /* \"--CODEGEN--\":11:51   */\n      gt\n        /* \"--CODEGEN--\":8:10   */\n      iszero\n      tag_188\n      jumpi\n        /* \"--CODEGEN--\":64:65   */\n      0x00\n        /* \"--CODEGEN--\":61:62   */\n      dup1\n        /* \"--CODEGEN--\":54:66   */\n      revert\n        /* \"--CODEGEN--\":8:10   */\n    tag_188:\n        /* \"Vote2.sol\":3582:3903  function set_up_requirement(string memory _key,string memory _value, uint _type)public isOwner{\r... */\n      dup1\n      calldataload\n      swap1\n      0x20\n      add\n      swap2\n        /* \"--CODEGEN--\":100:109   */\n      dup5\n        /* \"--CODEGEN--\":95:96   */\n      0x01\n        /* \"--CODEGEN--\":81:93   */\n      dup4\n        /* \"--CODEGEN--\":77:97   */\n      mul\n        /* \"--CODEGEN--\":67:75   */\n      dup5\n        /* \"--CODEGEN--\":63:98   */\n      add\n        /* \"--CODEGEN--\":60:110   */\n      gt\n      shl(0x20, 0x01)\n        /* \"--CODEGEN--\":25:37   */\n      dup4\n        /* \"--CODEGEN--\":22:51   */\n      gt\n        /* \"--CODEGEN--\":11:118   */\n      or\n        /* \"--CODEGEN--\":8:10   */\n      iszero\n      tag_189\n      jumpi\n        /* \"--CODEGEN--\":131:132   */\n      0x00\n        /* \"--CODEGEN--\":128:129   */\n      dup1\n        /* \"--CODEGEN--\":121:133   */\n      revert\n        /* \"--CODEGEN--\":8:10   */\n    tag_189:\n        /* \"Vote2.sol\":3582:3903  function set_up_requirement(string memory _key,string memory _value, uint _type)public isOwner{\r... */\n      swap2\n      swap1\n      dup1\n      dup1\n      0x1f\n      add\n      0x20\n      dup1\n      swap2\n      div\n      mul\n      0x20\n      add\n      mload(0x40)\n      swap1\n      dup2\n      add\n      0x40\n      mstore\n      dup1\n      swap4\n      swap3\n      swap2\n      swap1\n      dup2\n      dup2\n      mstore\n      0x20\n      add\n      dup4\n      dup4\n        /* \"--CODEGEN--\":30:33   */\n      dup1\n        /* \"--CODEGEN--\":22:28   */\n      dup3\n        /* \"--CODEGEN--\":14:20   */\n      dup5\n        /* \"--CODEGEN--\":1:34   */\n      calldatacopy\n        /* \"--CODEGEN--\":99:100   */\n      0x00\n        /* \"--CODEGEN--\":81:97   */\n      swap3\n      add\n        /* \"--CODEGEN--\":74:101   */\n      swap2\n      swap1\n      swap2\n      mstore\n      pop\n        /* \"Vote2.sol\":3582:3903  function set_up_requirement(string memory _key,string memory _value, uint _type)public isOwner{\r... */\n      swap3\n      swap6\n      swap5\n      swap4\n      0x20\n      dup2\n      add\n      swap4\n      pop\n      calldataload\n      swap2\n      pop\n      pop\n      shl(0x20, 0x01)\n        /* \"--CODEGEN--\":11:39   */\n      dup2\n      gt\n        /* \"--CODEGEN--\":8:10   */\n      iszero\n      tag_190\n      jumpi\n        /* \"--CODEGEN--\":52:53   */\n      0x00\n        /* \"--CODEGEN--\":49:50   */\n      dup1\n        /* \"--CODEGEN--\":42:54   */\n      revert\n        /* \"--CODEGEN--\":8:10   */\n    tag_190:\n        /* \"Vote2.sol\":3582:3903  function set_up_requirement(string memory _key,string memory _value, uint _type)public isOwner{\r... */\n      dup3\n      add\n        /* \"--CODEGEN--\":41:50   */\n      dup4\n        /* \"--CODEGEN--\":34:38   */\n      0x20\n        /* \"--CODEGEN--\":18:32   */\n      dup3\n        /* \"--CODEGEN--\":14:39   */\n      add\n        /* \"--CODEGEN--\":11:51   */\n      gt\n        /* \"--CODEGEN--\":8:10   */\n      iszero\n      tag_191\n      jumpi\n        /* \"--CODEGEN--\":64:65   */\n      0x00\n        /* \"--CODEGEN--\":61:62   */\n      dup1\n        /* \"--CODEGEN--\":54:66   */\n      revert\n        /* \"--CODEGEN--\":8:10   */\n    tag_191:\n        /* \"Vote2.sol\":3582:3903  function set_up_requirement(string memory _key,string memory _value, uint _type)public isOwner{\r... */\n      dup1\n      calldataload\n      swap1\n      0x20\n      add\n      swap2\n        /* \"--CODEGEN--\":100:109   */\n      dup5\n        /* \"--CODEGEN--\":95:96   */\n      0x01\n        /* \"--CODEGEN--\":81:93   */\n      dup4\n        /* \"--CODEGEN--\":77:97   */\n      mul\n        /* \"--CODEGEN--\":67:75   */\n      dup5\n        /* \"--CODEGEN--\":63:98   */\n      add\n        /* \"--CODEGEN--\":60:110   */\n      gt\n      shl(0x20, 0x01)\n        /* \"--CODEGEN--\":25:37   */\n      dup4\n        /* \"--CODEGEN--\":22:51   */\n      gt\n        /* \"--CODEGEN--\":11:118   */\n      or\n        /* \"--CODEGEN--\":8:10   */\n      iszero\n      tag_192\n      jumpi\n        /* \"--CODEGEN--\":131:132   */\n      0x00\n        /* \"--CODEGEN--\":128:129   */\n      dup1\n        /* \"--CODEGEN--\":121:133   */\n      revert\n        /* \"--CODEGEN--\":8:10   */\n    tag_192:\n        /* \"Vote2.sol\":3582:3903  function set_up_requirement(string memory _key,string memory _value, uint _type)public isOwner{\r... */\n      swap2\n      swap1\n      dup1\n      dup1\n      0x1f\n      add\n      0x20\n      dup1\n      swap2\n      div\n      mul\n      0x20\n      add\n      mload(0x40)\n      swap1\n      dup2\n      add\n      0x40\n      mstore\n      dup1\n      swap4\n      swap3\n      swap2\n      swap1\n      dup2\n      dup2\n      mstore\n      0x20\n      add\n      dup4\n      dup4\n        /* \"--CODEGEN--\":30:33   */\n      dup1\n        /* \"--CODEGEN--\":22:28   */\n      dup3\n        /* \"--CODEGEN--\":14:20   */\n      dup5\n        /* \"--CODEGEN--\":1:34   */\n      calldatacopy\n        /* \"--CODEGEN--\":99:100   */\n      0x00\n        /* \"--CODEGEN--\":81:97   */\n      swap3\n      add\n        /* \"--CODEGEN--\":74:101   */\n      swap2\n      swap1\n      swap2\n      mstore\n      pop\n        /* \"Vote2.sol\":3582:3903  function set_up_requirement(string memory _key,string memory _value, uint _type)public isOwner{\r... */\n      swap3\n      swap6\n      pop\n      pop\n      swap2\n      calldataload\n      swap3\n      pop\n      tag_193\n      swap2\n      pop\n      pop\n      jump\t// in\n        /* \"Vote2.sol\":1998:2022  string public win_option */\n    tag_39:\n      tag_61\n      tag_195\n      jump\t// in\n        /* \"Vote2.sol\":1638:1677  address [] public  msgsender_voter_list */\n    tag_40:\n      tag_158\n      0x04\n      dup1\n      calldatasize\n      sub\n        /* \"--CODEGEN--\":15:17   */\n      0x20\n        /* \"--CODEGEN--\":10:13   */\n      dup2\n        /* \"--CODEGEN--\":7:18   */\n      lt\n        /* \"--CODEGEN--\":4:6   */\n      iszero\n      tag_201\n      jumpi\n        /* \"--CODEGEN--\":31:32   */\n      0x00\n        /* \"--CODEGEN--\":28:29   */\n      dup1\n        /* \"--CODEGEN--\":21:33   */\n      revert\n        /* \"--CODEGEN--\":4:6   */\n    tag_201:\n      pop\n        /* \"Vote2.sol\":1638:1677  address [] public  msgsender_voter_list */\n      calldataload\n      tag_202\n      jump\t// in\n        /* \"Vote2.sol\":11792:11999  function return_voter_vote_status(address sender)public view returns(uint){\r... */\n    tag_41:\n      tag_56\n      0x04\n      dup1\n      calldatasize\n      sub\n        /* \"--CODEGEN--\":15:17   */\n      0x20\n        /* \"--CODEGEN--\":10:13   */\n      dup2\n        /* \"--CODEGEN--\":7:18   */\n      lt\n        /* \"--CODEGEN--\":4:6   */\n      iszero\n      tag_204\n      jumpi\n        /* \"--CODEGEN--\":31:32   */\n      0x00\n        /* \"--CODEGEN--\":28:29   */\n      dup1\n        /* \"--CODEGEN--\":21:33   */\n      revert\n        /* \"--CODEGEN--\":4:6   */\n    tag_204:\n      pop\n        /* \"Vote2.sol\":11792:11999  function return_voter_vote_status(address sender)public view returns(uint){\r... */\n      calldataload\n      sub(shl(0xa0, 0x01), 0x01)\n      and\n      tag_205\n      jump\t// in\n        /* \"Vote2.sol\":1974:1991  int public winner */\n    tag_42:\n      tag_56\n      tag_207\n      jump\t// in\n        /* \"Vote2.sol\":11441:11564  function return_msgsender_voter_list()public view returns (address [] memory){\r... */\n    tag_43:\n      tag_136\n      tag_209\n      jump\t// in\n        /* \"Vote2.sol\":3915:4349  function set_up_all(string memory q ,uint vst,uint vet ,string memory rq_description ,address write_entity,uint256 exp,uint256 M)public isOwner{\r... */\n    tag_44:\n      tag_67\n      0x04\n      dup1\n      calldatasize\n      sub\n        /* \"--CODEGEN--\":15:18   */\n      0xe0\n        /* \"--CODEGEN--\":10:13   */\n      dup2\n        /* \"--CODEGEN--\":7:19   */\n      lt\n        /* \"--CODEGEN--\":4:6   */\n      iszero\n      tag_214\n      jumpi\n        /* \"--CODEGEN--\":32:33   */\n      0x00\n        /* \"--CODEGEN--\":29:30   */\n      dup1\n        /* \"--CODEGEN--\":22:34   */\n      revert\n        /* \"--CODEGEN--\":4:6   */\n    tag_214:\n        /* \"Vote2.sol\":3915:4349  function set_up_all(string memory q ,uint vst,uint vet ,string memory rq_description ,address write_entity,uint256 exp,uint256 M)public isOwner{\r... */\n      dup2\n      add\n      swap1\n      0x20\n      dup2\n      add\n      dup2\n      calldataload\n      shl(0x20, 0x01)\n        /* \"--CODEGEN--\":11:39   */\n      dup2\n      gt\n        /* \"--CODEGEN--\":8:10   */\n      iszero\n      tag_215\n      jumpi\n        /* \"--CODEGEN--\":52:53   */\n      0x00\n        /* \"--CODEGEN--\":49:50   */\n      dup1\n        /* \"--CODEGEN--\":42:54   */\n      revert\n        /* \"--CODEGEN--\":8:10   */\n    tag_215:\n        /* \"Vote2.sol\":3915:4349  function set_up_all(string memory q ,uint vst,uint vet ,string memory rq_description ,address write_entity,uint256 exp,uint256 M)public isOwner{\r... */\n      dup3\n      add\n        /* \"--CODEGEN--\":41:50   */\n      dup4\n        /* \"--CODEGEN--\":34:38   */\n      0x20\n        /* \"--CODEGEN--\":18:32   */\n      dup3\n        /* \"--CODEGEN--\":14:39   */\n      add\n        /* \"--CODEGEN--\":11:51   */\n      gt\n        /* \"--CODEGEN--\":8:10   */\n      iszero\n      tag_216\n      jumpi\n        /* \"--CODEGEN--\":64:65   */\n      0x00\n        /* \"--CODEGEN--\":61:62   */\n      dup1\n        /* \"--CODEGEN--\":54:66   */\n      revert\n        /* \"--CODEGEN--\":8:10   */\n    tag_216:\n        /* \"Vote2.sol\":3915:4349  function set_up_all(string memory q ,uint vst,uint vet ,string memory rq_description ,address write_entity,uint256 exp,uint256 M)public isOwner{\r... */\n      dup1\n      calldataload\n      swap1\n      0x20\n      add\n      swap2\n        /* \"--CODEGEN--\":100:109   */\n      dup5\n        /* \"--CODEGEN--\":95:96   */\n      0x01\n        /* \"--CODEGEN--\":81:93   */\n      dup4\n        /* \"--CODEGEN--\":77:97   */\n      mul\n        /* \"--CODEGEN--\":67:75   */\n      dup5\n        /* \"--CODEGEN--\":63:98   */\n      add\n        /* \"--CODEGEN--\":60:110   */\n      gt\n      shl(0x20, 0x01)\n        /* \"--CODEGEN--\":25:37   */\n      dup4\n        /* \"--CODEGEN--\":22:51   */\n      gt\n        /* \"--CODEGEN--\":11:118   */\n      or\n        /* \"--CODEGEN--\":8:10   */\n      iszero\n      tag_217\n      jumpi\n        /* \"--CODEGEN--\":131:132   */\n      0x00\n        /* \"--CODEGEN--\":128:129   */\n      dup1\n        /* \"--CODEGEN--\":121:133   */\n      revert\n        /* \"--CODEGEN--\":8:10   */\n    tag_217:\n        /* \"Vote2.sol\":3915:4349  function set_up_all(string memory q ,uint vst,uint vet ,string memory rq_description ,address write_entity,uint256 exp,uint256 M)public isOwner{\r... */\n      swap2\n      swap1\n      dup1\n      dup1\n      0x1f\n      add\n      0x20\n      dup1\n      swap2\n      div\n      mul\n      0x20\n      add\n      mload(0x40)\n      swap1\n      dup2\n      add\n      0x40\n      mstore\n      dup1\n      swap4\n      swap3\n      swap2\n      swap1\n      dup2\n      dup2\n      mstore\n      0x20\n      add\n      dup4\n      dup4\n        /* \"--CODEGEN--\":30:33   */\n      dup1\n        /* \"--CODEGEN--\":22:28   */\n      dup3\n        /* \"--CODEGEN--\":14:20   */\n      dup5\n        /* \"--CODEGEN--\":1:34   */\n      calldatacopy\n        /* \"--CODEGEN--\":99:100   */\n      0x00\n        /* \"--CODEGEN--\":81:97   */\n      swap3\n      add\n        /* \"--CODEGEN--\":74:101   */\n      swap2\n      swap1\n      swap2\n      mstore\n      pop\n        /* \"Vote2.sol\":3915:4349  function set_up_all(string memory q ,uint vst,uint vet ,string memory rq_description ,address write_entity,uint256 exp,uint256 M)public isOwner{\r... */\n      swap3\n      swap6\n      dup5\n      calldataload\n      swap6\n      0x20\n      dup7\n      add\n      calldataload\n      swap6\n      swap2\n      swap5\n      pop\n      swap3\n      pop\n      0x60\n      dup2\n      add\n      swap2\n      pop\n      0x40\n      add\n      calldataload\n      shl(0x20, 0x01)\n        /* \"--CODEGEN--\":11:39   */\n      dup2\n      gt\n        /* \"--CODEGEN--\":8:10   */\n      iszero\n      tag_218\n      jumpi\n        /* \"--CODEGEN--\":52:53   */\n      0x00\n        /* \"--CODEGEN--\":49:50   */\n      dup1\n        /* \"--CODEGEN--\":42:54   */\n      revert\n        /* \"--CODEGEN--\":8:10   */\n    tag_218:\n        /* \"Vote2.sol\":3915:4349  function set_up_all(string memory q ,uint vst,uint vet ,string memory rq_description ,address write_entity,uint256 exp,uint256 M)public isOwner{\r... */\n      dup3\n      add\n        /* \"--CODEGEN--\":41:50   */\n      dup4\n        /* \"--CODEGEN--\":34:38   */\n      0x20\n        /* \"--CODEGEN--\":18:32   */\n      dup3\n        /* \"--CODEGEN--\":14:39   */\n      add\n        /* \"--CODEGEN--\":11:51   */\n      gt\n        /* \"--CODEGEN--\":8:10   */\n      iszero\n      tag_219\n      jumpi\n        /* \"--CODEGEN--\":64:65   */\n      0x00\n        /* \"--CODEGEN--\":61:62   */\n      dup1\n        /* \"--CODEGEN--\":54:66   */\n      revert\n        /* \"--CODEGEN--\":8:10   */\n    tag_219:\n        /* \"Vote2.sol\":3915:4349  function set_up_all(string memory q ,uint vst,uint vet ,string memory rq_description ,address write_entity,uint256 exp,uint256 M)public isOwner{\r... */\n      dup1\n      calldataload\n      swap1\n      0x20\n      add\n      swap2\n        /* \"--CODEGEN--\":100:109   */\n      dup5\n        /* \"--CODEGEN--\":95:96   */\n      0x01\n        /* \"--CODEGEN--\":81:93   */\n      dup4\n        /* \"--CODEGEN--\":77:97   */\n      mul\n        /* \"--CODEGEN--\":67:75   */\n      dup5\n        /* \"--CODEGEN--\":63:98   */\n      add\n        /* \"--CODEGEN--\":60:110   */\n      gt\n      shl(0x20, 0x01)\n        /* \"--CODEGEN--\":25:37   */\n      dup4\n        /* \"--CODEGEN--\":22:51   */\n      gt\n        /* \"--CODEGEN--\":11:118   */\n      or\n        /* \"--CODEGEN--\":8:10   */\n      iszero\n      tag_220\n      jumpi\n        /* \"--CODEGEN--\":131:132   */\n      0x00\n        /* \"--CODEGEN--\":128:129   */\n      dup1\n        /* \"--CODEGEN--\":121:133   */\n      revert\n        /* \"--CODEGEN--\":8:10   */\n    tag_220:\n        /* \"Vote2.sol\":3915:4349  function set_up_all(string memory q ,uint vst,uint vet ,string memory rq_description ,address write_entity,uint256 exp,uint256 M)public isOwner{\r... */\n      swap2\n      swap1\n      dup1\n      dup1\n      0x1f\n      add\n      0x20\n      dup1\n      swap2\n      div\n      mul\n      0x20\n      add\n      mload(0x40)\n      swap1\n      dup2\n      add\n      0x40\n      mstore\n      dup1\n      swap4\n      swap3\n      swap2\n      swap1\n      dup2\n      dup2\n      mstore\n      0x20\n      add\n      dup4\n      dup4\n        /* \"--CODEGEN--\":30:33   */\n      dup1\n        /* \"--CODEGEN--\":22:28   */\n      dup3\n        /* \"--CODEGEN--\":14:20   */\n      dup5\n        /* \"--CODEGEN--\":1:34   */\n      calldatacopy\n        /* \"--CODEGEN--\":99:100   */\n      0x00\n        /* \"--CODEGEN--\":81:97   */\n      swap3\n      add\n        /* \"--CODEGEN--\":74:101   */\n      swap2\n      swap1\n      swap2\n      mstore\n      pop\n        /* \"Vote2.sol\":3915:4349  function set_up_all(string memory q ,uint vst,uint vet ,string memory rq_description ,address write_entity,uint256 exp,uint256 M)public isOwner{\r... */\n      swap3\n      swap6\n      pop\n      pop\n      pop\n      dup2\n      calldataload\n      sub(shl(0xa0, 0x01), 0x01)\n      and\n      swap3\n      pop\n      pop\n      0x20\n      dup2\n      add\n      calldataload\n      swap1\n      0x40\n      add\n      calldataload\n      tag_221\n      jump\t// in\n        /* \"Vote2.sol\":9778:10751  function tally(uint sum)public {\r... */\n    tag_45:\n      tag_67\n      0x04\n      dup1\n      calldatasize\n      sub\n        /* \"--CODEGEN--\":15:17   */\n      0x20\n        /* \"--CODEGEN--\":10:13   */\n      dup2\n        /* \"--CODEGEN--\":7:18   */\n      lt\n        /* \"--CODEGEN--\":4:6   */\n      iszero\n      tag_223\n      jumpi\n        /* \"--CODEGEN--\":31:32   */\n      0x00\n        /* \"--CODEGEN--\":28:29   */\n      dup1\n        /* \"--CODEGEN--\":21:33   */\n      revert\n        /* \"--CODEGEN--\":4:6   */\n    tag_223:\n      pop\n        /* \"Vote2.sol\":9778:10751  function tally(uint sum)public {\r... */\n      calldataload\n      tag_224\n      jump\t// in\n        /* \"Vote2.sol\":11570:11786  function return_voter_register_status(address sender)public view returns(bool){\r... */\n    tag_46:\n      tag_100\n      0x04\n      dup1\n      calldatasize\n      sub\n        /* \"--CODEGEN--\":15:17   */\n      0x20\n        /* \"--CODEGEN--\":10:13   */\n      dup2\n        /* \"--CODEGEN--\":7:18   */\n      lt\n        /* \"--CODEGEN--\":4:6   */\n      iszero\n      tag_226\n      jumpi\n        /* \"--CODEGEN--\":31:32   */\n      0x00\n        /* \"--CODEGEN--\":28:29   */\n      dup1\n        /* \"--CODEGEN--\":21:33   */\n      revert\n        /* \"--CODEGEN--\":4:6   */\n    tag_226:\n      pop\n        /* \"Vote2.sol\":11570:11786  function return_voter_register_status(address sender)public view returns(bool){\r... */\n      calldataload\n      sub(shl(0xa0, 0x01), 0x01)\n      and\n      tag_227\n      jump\t// in\n        /* \"Vote2.sol\":732:827  uint256 public constant PP = 0xFFFFFFFFFFFFFFFFFFFFFFFFFFFFFFFFFFFFFFFFFFFFFFFFFFFFFFFEFFFFFC2F */\n    tag_47:\n      tag_56\n      tag_229\n      jump\t// in\n        /* \"Vote2.sol\":1881:1913  string[] public requirements_key */\n    tag_48:\n      tag_61\n      0x04\n      dup1\n      calldatasize\n      sub\n        /* \"--CODEGEN--\":15:17   */\n      0x20\n        /* \"--CODEGEN--\":10:13   */\n      dup2\n        /* \"--CODEGEN--\":7:18   */\n      lt\n        /* \"--CODEGEN--\":4:6   */\n      iszero\n      tag_231\n      jumpi\n        /* \"--CODEGEN--\":31:32   */\n      0x00\n        /* \"--CODEGEN--\":28:29   */\n      dup1\n        /* \"--CODEGEN--\":21:33   */\n      revert\n        /* \"--CODEGEN--\":4:6   */\n    tag_231:\n      pop\n        /* \"Vote2.sol\":1881:1913  string[] public requirements_key */\n      calldataload\n      tag_232\n      jump\t// in\n        /* \"Vote2.sol\":446:541  uint256 public constant GX = 0x79BE667EF9DCBBAC55A06295CE870B07029BFCDB2DCE28D959F2815B16F81798 */\n    tag_57:\n      0x00\n      dup1\n      mload\n      0x20\n      data_bd48405ed3251dbb9f783c5a51cbf46016252921b268ebd47d0a0389f7b93cc0\n      dup4\n      codecopy\n      dup2\n      mload\n      swap2\n      mstore\n      dup2\n      jump\t// out\n        /* \"Vote2.sol\":1581:1631  mapping(address=>voter) public eligible_voter_list */\n    tag_60:\n      mstore(0x20, 0x0b)\n      0x00\n      swap1\n      dup2\n      mstore\n      0x40\n      swap1\n      keccak256\n      dup1\n      sload\n      0x01\n      dup3\n      add\n      sload\n      0x02\n      dup4\n      add\n      sload\n      0x03\n      swap1\n      swap4\n      add\n      sload\n      sub(shl(0xa0, 0x01), 0x01)\n      swap3\n      dup4\n      and\n      swap4\n      swap3\n      dup3\n      and\n      swap3\n      shl(0xa0, 0x01)\n      swap1\n      swap3\n      div\n      0xff\n      and\n      swap2\n      swap1\n      dup6\n      jump\t// out\n        /* \"Vote2.sol\":1056:1083  string public vote_question */\n    tag_62:\n      0x06\n      dup1\n      sload\n      0x40\n      dup1\n      mload\n      0x20\n      0x02\n      0x01\n      dup6\n      and\n      iszero\n      0x0100\n      mul\n      not(0x00)\n      add\n      swap1\n      swap5\n      and\n      swap4\n      swap1\n      swap4\n      div\n      0x1f\n      dup2\n      add\n      dup5\n      swap1\n      div\n      dup5\n      mul\n      dup3\n      add\n      dup5\n      add\n      swap1\n      swap3\n      mstore\n      dup2\n      dup2\n      mstore\n      swap3\n      swap2\n      dup4\n      add\n      dup3\n      dup3\n      dup1\n      iszero\n      tag_237\n      jumpi\n      dup1\n      0x1f\n      lt\n      tag_238\n      jumpi\n      0x0100\n      dup1\n      dup4\n      sload\n      div\n      mul\n      dup4\n      mstore\n      swap2\n      0x20\n      add\n      swap2\n      jump(tag_237)\n    tag_238:\n      dup3\n      add\n      swap2\n      swap1\n      0x00\n      mstore\n      keccak256(0x00, 0x20)\n      swap1\n    tag_239:\n      dup2\n      sload\n      dup2\n      mstore\n      swap1\n      0x01\n      add\n      swap1\n      0x20\n      add\n      dup1\n      dup4\n      gt\n      tag_239\n      jumpi\n      dup3\n      swap1\n      sub\n      0x1f\n      and\n      dup3\n      add\n      swap2\n    tag_237:\n      pop\n      pop\n      pop\n      pop\n      pop\n      dup2\n      jump\t// out\n        /* \"Vote2.sol\":6815:8593  function Go_Vote(uint256 v_random,uint256 v_value,address entity_addr)public checkInVoteStage{\r... */\n    tag_69:\n        /* \"Vote2.sol\":3220:3241  blockOrTimeReached(1) */\n      tag_241\n        /* \"Vote2.sol\":3239:3240  1 */\n      0x01\n        /* \"Vote2.sol\":3220:3238  blockOrTimeReached */\n      tag_111\n        /* \"Vote2.sol\":3220:3241  blockOrTimeReached(1) */\n      jump\t// in\n    tag_241:\n        /* \"Vote2.sol\":3212:3242  require(blockOrTimeReached(1)) */\n      tag_242\n      jumpi\n        /* \"--CODEGEN--\":12:13   */\n      0x00\n        /* \"--CODEGEN--\":9:10   */\n      dup1\n        /* \"--CODEGEN--\":2:14   */\n      revert\n        /* \"Vote2.sol\":3212:3242  require(blockOrTimeReached(1)) */\n    tag_242:\n        /* \"Vote2.sol\":6927:6932  isSet */\n      sload(0x14)\n      0x0100\n      swap1\n      div\n      0xff\n      and\n        /* \"Vote2.sol\":6919:6953  require(isSet,\"Set is not Finish\") */\n      tag_244\n      jumpi\n      0x40\n      dup1\n      mload\n      shl(0xe5, 0x461bcd)\n      dup2\n      mstore\n      0x20\n      0x04\n      dup3\n      add\n      mstore\n      0x11\n      0x24\n      dup3\n      add\n      mstore\n      shl(0x7b, 0x0a6cae840d2e640dcdee8408cd2dcd2e6d)\n      0x44\n      dup3\n      add\n      mstore\n      swap1\n      mload\n      swap1\n      dup2\n      swap1\n      sub\n      0x64\n      add\n      swap1\n      revert\n    tag_244:\n        /* \"Vote2.sol\":7604:7627  Validation(entity_addr) */\n      tag_245\n        /* \"Vote2.sol\":7615:7626  entity_addr */\n      dup2\n        /* \"Vote2.sol\":7604:7614  Validation */\n      tag_102\n        /* \"Vote2.sol\":7604:7627  Validation(entity_addr) */\n      jump\t// in\n    tag_245:\n        /* \"Vote2.sol\":7596:7628  require(Validation(entity_addr)) */\n      tag_246\n      jumpi\n        /* \"--CODEGEN--\":12:13   */\n      0x00\n        /* \"--CODEGEN--\":9:10   */\n      dup1\n        /* \"--CODEGEN--\":2:14   */\n      revert\n        /* \"Vote2.sol\":7596:7628  require(Validation(entity_addr)) */\n    tag_246:\n        /* \"Vote2.sol\":7663:7673  msg.sender */\n      caller\n        /* \"Vote2.sol\":7643:7674  eligible_voter_list[msg.sender] */\n      0x00\n      swap1\n      dup2\n      mstore\n        /* \"Vote2.sol\":7643:7662  eligible_voter_list */\n      0x0b\n        /* \"Vote2.sol\":7643:7674  eligible_voter_list[msg.sender] */\n      0x20\n      mstore\n      0x40\n      swap1\n      keccak256\n        /* \"Vote2.sol\":7693:7697  true */\n      0x01\n        /* \"Vote2.sol\":7643:7690  eligible_voter_list[msg.sender].register_or_not */\n      dup2\n      add\n        /* \"Vote2.sol\":7643:7697  eligible_voter_list[msg.sender].register_or_not = true */\n      dup1\n      sload\n      not(shl(0xa0, 0xff))\n      and\n      shl(0xa0, 0x01)\n      or\n      swap1\n      sstore\n        /* \"Vote2.sol\":7762:7803  eligible_voter_list[msg.sender].vote_time */\n      0x03\n      add\n      sload\n        /* \"Vote2.sol\":7759:8034  if(eligible_voter_list[msg.sender].vote_time == 0){\r... */\n      tag_247\n      jumpi\n        /* \"Vote2.sol\":7848:7858  msg.sender */\n      caller\n        /* \"Vote2.sol\":7828:7859  eligible_voter_list[msg.sender] */\n      0x00\n      dup2\n      dup2\n      mstore\n        /* \"Vote2.sol\":7828:7847  eligible_voter_list */\n      0x0b\n        /* \"Vote2.sol\":7828:7859  eligible_voter_list[msg.sender] */\n      0x20\n      mstore\n      0x40\n      dup2\n      keccak256\n        /* \"Vote2.sol\":7828:7873  eligible_voter_list[msg.sender].registry_addr */\n      0x01\n      dup1\n      dup3\n      add\n        /* \"Vote2.sol\":7828:7887  eligible_voter_list[msg.sender].registry_addr = entity_addr */\n      dup1\n      sload\n      not(sub(shl(0xa0, 0x01), 0x01))\n      swap1\n      dup2\n      and\n      sub(shl(0xa0, 0x01), 0x01)\n      dup9\n      and\n      or\n      swap1\n      swap2\n      sstore\n        /* \"Vote2.sol\":7906:7962  eligible_voter_list[msg.sender].EOA_address = msg.sender */\n      dup3\n      sload\n      dup2\n      and\n      dup6\n      or\n      swap1\n      swap3\n      sstore\n        /* \"Vote2.sol\":7981:8001  msgsender_voter_list */\n      0x0c\n        /* \"--CODEGEN--\":27:37   */\n      dup1\n      sload\n        /* \"--CODEGEN--\":23:41   */\n      swap2\n      dup3\n      add\n        /* \"--CODEGEN--\":45:68   */\n      dup2\n      sstore\n        /* \"Vote2.sol\":7981:8018  msgsender_voter_list.push(msg.sender) */\n      swap1\n      swap3\n      mstore\n      0xdf6966c971051c3d54ec59162606531493a51404a002842f56009d7e5cf4a8c7\n      swap1\n      swap2\n      add\n      dup1\n      sload\n      swap1\n      swap2\n      and\n      swap1\n      swap2\n      or\n      swap1\n      sstore\n        /* \"Vote2.sol\":7759:8034  if(eligible_voter_list[msg.sender].vote_time == 0){\r... */\n    tag_247:\n        /* \"Vote2.sol\":8108:8118  msg.sender */\n      caller\n        /* \"Vote2.sol\":8088:8119  eligible_voter_list[msg.sender] */\n      0x00\n      swap1\n      dup2\n      mstore\n        /* \"Vote2.sol\":8088:8107  eligible_voter_list */\n      0x0b\n        /* \"Vote2.sol\":8088:8119  eligible_voter_list[msg.sender] */\n      0x20\n      mstore\n      0x40\n      swap1\n      keccak256\n        /* \"Vote2.sol\":8088:8135  eligible_voter_list[msg.sender].register_or_not */\n      0x01\n      add\n      sload\n      shl(0xa0, 0x01)\n      swap1\n      div\n      0xff\n      and\n        /* \"Vote2.sol\":8085:8287  if(eligible_voter_list[msg.sender].register_or_not){\r... */\n      iszero\n      tag_249\n      jumpi\n        /* \"Vote2.sol\":8175:8185  msg.sender */\n      caller\n        /* \"Vote2.sol\":8155:8186  eligible_voter_list[msg.sender] */\n      0x00\n      swap1\n      dup2\n      mstore\n        /* \"Vote2.sol\":8155:8174  eligible_voter_list */\n      0x0b\n        /* \"Vote2.sol\":8155:8186  eligible_voter_list[msg.sender] */\n      0x20\n      mstore\n      0x40\n      swap1\n      keccak256\n        /* \"Vote2.sol\":8155:8197  eligible_voter_list[msg.sender].vote_value */\n      0x02\n      dup2\n      add\n        /* \"Vote2.sol\":8155:8208  eligible_voter_list[msg.sender].vote_value = v_random */\n      dup5\n      swap1\n      sstore\n        /* \"Vote2.sol\":8227:8268  eligible_voter_list[msg.sender].vote_time */\n      0x03\n      add\n        /* \"Vote2.sol\":8227:8271  eligible_voter_list[msg.sender].vote_time ++ */\n      dup1\n      sload\n      0x01\n      add\n      swap1\n      sstore\n        /* \"Vote2.sol\":8085:8287  if(eligible_voter_list[msg.sender].register_or_not){\r... */\n    tag_249:\n        /* \"Vote2.sol\":8323:8331  Vote_sum */\n      0x00\n        /* \"Vote2.sol\":8323:8342  Vote_sum += v_value */\n      dup1\n      sload\n      dup4\n      add\n      dup2\n      sstore\n        /* \"Vote2.sol\":8323:8331  Vote_sum */\n      dup1\n        /* \"Vote2.sol\":8395:8436  EllipticCurve.ecMul(v_random,GX,GY,AA,PP) */\n      tag_250\n        /* \"Vote2.sol\":8415:8423  v_random */\n      dup6\n      0x00\n      dup1\n      mload\n      0x20\n      data_bd48405ed3251dbb9f783c5a51cbf46016252921b268ebd47d0a0389f7b93cc0\n      dup4\n      codecopy\n      dup2\n      mload\n      swap2\n      mstore\n      0x00\n      dup1\n      mload\n      0x20\n      data_1daeff61fd986edf5d823d715532dcfe6ec9ea427c85800271e0d847a34dbe18\n      dup4\n      codecopy\n      dup2\n      mload\n      swap2\n      mstore\n        /* \"Vote2.sol\":8323:8331  Vote_sum */\n      dup5\n      not(0x01000003d0)\n        /* \"Vote2.sol\":8395:8414  EllipticCurve.ecMul */\n      tag_251\n        /* \"Vote2.sol\":8395:8436  EllipticCurve.ecMul(v_random,GX,GY,AA,PP) */\n      jump\t// in\n    tag_250:\n        /* \"Vote2.sol\":8457:8471  Vote_sum_ECC_x */\n      sload(0x01)\n        /* \"Vote2.sol\":8491:8505  Vote_sum_ECC_y */\n      sload(0x02)\n        /* \"Vote2.sol\":8387:8436  (a,b) = EllipticCurve.ecMul(v_random,GX,GY,AA,PP) */\n      swap3\n      swap5\n      pop\n      swap1\n      swap3\n      pop\n        /* \"Vote2.sol\":8457:8471  Vote_sum_ECC_x */\n      swap1\n        /* \"Vote2.sol\":8550:8584  EllipticCurve.ecAdd(a,b,c,d,AA,PP) */\n      tag_252\n        /* \"Vote2.sol\":8387:8436  (a,b) = EllipticCurve.ecMul(v_random,GX,GY,AA,PP) */\n      dup5\n      dup5\n        /* \"Vote2.sol\":8457:8471  Vote_sum_ECC_x */\n      dup5\n        /* \"Vote2.sol\":8491:8505  Vote_sum_ECC_y */\n      dup5\n        /* \"Vote2.sol\":8448:8454  uint c */\n      0x00\n      not(0x01000003d0)\n        /* \"Vote2.sol\":8550:8569  EllipticCurve.ecAdd */\n      tag_253\n        /* \"Vote2.sol\":8550:8584  EllipticCurve.ecAdd(a,b,c,d,AA,PP) */\n      jump\t// in\n    tag_252:\n        /* \"Vote2.sol\":8532:8546  Vote_sum_ECC_y */\n      0x02\n        /* \"Vote2.sol\":8516:8584  (Vote_sum_ECC_x,Vote_sum_ECC_y) = EllipticCurve.ecAdd(a,b,c,d,AA,PP) */\n      sstore\n        /* \"Vote2.sol\":8517:8531  Vote_sum_ECC_x */\n      0x01\n        /* \"Vote2.sol\":8516:8584  (Vote_sum_ECC_x,Vote_sum_ECC_y) = EllipticCurve.ecAdd(a,b,c,d,AA,PP) */\n      sstore\n      pop\n      pop\n      pop\n      pop\n      pop\n      pop\n      pop\n        /* \"Vote2.sol\":6815:8593  function Go_Vote(uint256 v_random,uint256 v_value,address entity_addr)public checkInVoteStage{\r... */\n      jump\t// out\n        /* \"Vote2.sol\":6546:6722  function Mul(uint sum)public pure returns(uint256 ECC_checked_x,uint256 ECC_checked_y){\r... */\n    tag_72:\n        /* \"Vote2.sol\":6588:6609  uint256 ECC_checked_x */\n      0x00\n        /* \"Vote2.sol\":6610:6631  uint256 ECC_checked_y */\n      dup1\n        /* \"Vote2.sol\":6675:6711  EllipticCurve.ecMul(sum,GX,GY,AA,PP) */\n      tag_255\n        /* \"Vote2.sol\":6695:6698  sum */\n      dup4\n      0x00\n      dup1\n      mload\n      0x20\n      data_bd48405ed3251dbb9f783c5a51cbf46016252921b268ebd47d0a0389f7b93cc0\n      dup4\n      codecopy\n      dup2\n      mload\n      swap2\n      mstore\n      0x00\n      dup1\n      mload\n      0x20\n      data_1daeff61fd986edf5d823d715532dcfe6ec9ea427c85800271e0d847a34dbe18\n      dup4\n      codecopy\n      dup2\n      mload\n      swap2\n      mstore\n      0x00\n      not(0x01000003d0)\n        /* \"Vote2.sol\":6675:6694  EllipticCurve.ecMul */\n      tag_251\n        /* \"Vote2.sol\":6675:6711  EllipticCurve.ecMul(sum,GX,GY,AA,PP) */\n      jump\t// in\n    tag_255:\n        /* \"Vote2.sol\":6643:6711  (ECC_checked_x,ECC_checked_y) = EllipticCurve.ecMul(sum,GX,GY,AA,PP) */\n      swap1\n      swap5\n      swap1\n      swap4\n      pop\n        /* \"Vote2.sol\":6546:6722  function Mul(uint sum)public pure returns(uint256 ECC_checked_x,uint256 ECC_checked_y){\r... */\n      swap2\n      pop\n      pop\n      jump\t// out\n        /* \"Vote2.sol\":11041:11182  function return_requirements_rq(string memory temp)public view returns(string memory){\r... */\n    tag_78:\n        /* \"Vote2.sol\":11112:11125  string memory */\n      0x60\n        /* \"Vote2.sol\":11144:11156  requirements */\n      0x0f\n        /* \"Vote2.sol\":11157:11161  temp */\n      dup3\n        /* \"Vote2.sol\":11144:11162  requirements[temp] */\n      mload(0x40)\n      dup1\n      dup3\n      dup1\n      mload\n      swap1\n      0x20\n      add\n      swap1\n      dup1\n      dup4\n      dup4\n        /* \"--CODEGEN--\":36:189   */\n    tag_257:\n        /* \"--CODEGEN--\":66:68   */\n      0x20\n        /* \"--CODEGEN--\":61:64   */\n      dup4\n        /* \"--CODEGEN--\":58:69   */\n      lt\n        /* \"--CODEGEN--\":36:189   */\n      tag_259\n      jumpi\n        /* \"--CODEGEN--\":176:186   */\n      dup1\n      mload\n        /* \"--CODEGEN--\":164:187   */\n      dup3\n      mstore\n      not(0x1f)\n        /* \"--CODEGEN--\":139:151   */\n      swap1\n      swap3\n      add\n      swap2\n        /* \"--CODEGEN--\":98:100   */\n      0x20\n        /* \"--CODEGEN--\":89:101   */\n      swap2\n      dup3\n      add\n      swap2\n        /* \"--CODEGEN--\":114:126   */\n      add\n        /* \"--CODEGEN--\":36:189   */\n      jump(tag_257)\n    tag_259:\n        /* \"--CODEGEN--\":299:309   */\n      mload\n        /* \"--CODEGEN--\":344:354   */\n      dup2\n      mload\n      not(0x00)\n        /* \"--CODEGEN--\":263:265   */\n      0x20\n        /* \"--CODEGEN--\":259:271   */\n      swap5\n      dup6\n      sub\n        /* \"--CODEGEN--\":254:257   */\n      0x0100\n        /* \"--CODEGEN--\":250:272   */\n      swap1\n      dup2\n      exp\n        /* \"--CODEGEN--\":246:276   */\n      dup3\n      add\n        /* \"--CODEGEN--\":340:361   */\n      swap3\n      dup4\n      and\n        /* \"--CODEGEN--\":311:320   */\n      swap3\n      not\n        /* \"--CODEGEN--\":295:321   */\n      swap4\n      swap1\n      swap4\n      and\n        /* \"--CODEGEN--\":377:397   */\n      swap2\n      swap1\n      swap2\n      or\n        /* \"--CODEGEN--\":365:398   */\n      swap1\n      swap3\n      mstore\n        /* \"Vote2.sol\":11144:11162  requirements[temp] */\n      swap5\n      swap1\n      swap3\n      add\n      swap7\n      dup8\n      mstore\n      0x40\n      dup1\n      mload\n      swap8\n      dup9\n      swap1\n      sub\n      dup3\n      add\n      dup9\n      keccak256\n        /* \"Vote2.sol\":11137:11174  return requirements[temp].requirement */\n      dup1\n      sload\n      0x1f\n      0x02\n        /* \"--CODEGEN--\":274:275   */\n      0x01\n        /* \"Vote2.sol\":11137:11174  return requirements[temp].requirement */\n      dup4\n      and\n      iszero\n      swap1\n      swap9\n      mul\n      swap1\n      swap6\n      add\n      and\n      swap6\n      swap1\n      swap6\n      div\n      swap3\n      dup4\n      add\n      dup3\n      swap1\n      div\n      dup3\n      mul\n      dup9\n      add\n      dup3\n      add\n      swap1\n      mstore\n      dup2\n      dup8\n      mstore\n        /* \"Vote2.sol\":11144:11162  requirements[temp] */\n      swap3\n      swap5\n      pop\n        /* \"Vote2.sol\":11137:11174  return requirements[temp].requirement */\n      swap3\n      pop\n      pop\n      dup4\n      add\n        /* \"Vote2.sol\":11144:11162  requirements[temp] */\n      dup3\n        /* \"Vote2.sol\":11137:11174  return requirements[temp].requirement */\n      dup3\n      dup1\n      iszero\n      tag_260\n      jumpi\n      dup1\n      0x1f\n      lt\n      tag_261\n      jumpi\n      0x0100\n      dup1\n      dup4\n      sload\n      div\n      mul\n      dup4\n      mstore\n      swap2\n      0x20\n      add\n      swap2\n      jump(tag_260)\n    tag_261:\n      dup3\n      add\n      swap2\n      swap1\n      0x00\n      mstore\n      keccak256(0x00, 0x20)\n      swap1\n    tag_262:\n      dup2\n      sload\n      dup2\n      mstore\n      swap1\n      0x01\n      add\n      swap1\n      0x20\n      add\n      dup1\n      dup4\n      gt\n      tag_262\n      jumpi\n      dup3\n      swap1\n      sub\n      0x1f\n      and\n      dup3\n      add\n      swap2\n    tag_260:\n      pop\n      pop\n      pop\n      pop\n      pop\n      swap1\n      pop\n        /* \"Vote2.sol\":11041:11182  function return_requirements_rq(string memory temp)public view returns(string memory){\r... */\n    tag_256:\n      swap2\n      swap1\n      pop\n      jump\t// out\n        /* \"Vote2.sol\":4507:4873  function stringToUint(string memory s)public pure returns (uint) {\r... */\n    tag_88:\n        /* \"Vote2.sol\":4566:4570  uint */\n      0x00\n        /* \"Vote2.sol\":4606:4607  s */\n      dup2\n        /* \"Vote2.sol\":4566:4570  uint */\n      dup2\n      dup1\n        /* \"Vote2.sol\":4660:4844  for (i = 0; i < b.length; i++) {\r... */\n    tag_264:\n        /* \"Vote2.sol\":4676:4677  b */\n      dup3\n        /* \"Vote2.sol\":4676:4684  b.length */\n      mload\n        /* \"Vote2.sol\":4672:4673  i */\n      dup3\n        /* \"Vote2.sol\":4672:4684  i < b.length */\n      lt\n        /* \"Vote2.sol\":4660:4844  for (i = 0; i < b.length; i++) {\r... */\n      iszero\n      tag_265\n      jumpi\n        /* \"Vote2.sol\":4706:4712  uint c */\n      0x00\n        /* \"Vote2.sol\":4726:4727  b */\n      dup4\n        /* \"Vote2.sol\":4728:4729  i */\n      dup4\n        /* \"Vote2.sol\":4726:4730  b[i] */\n      dup2\n      mload\n      dup2\n      lt\n      tag_267\n      jumpi\n      invalid\n    tag_267:\n      add\n      0x20\n      add\n      mload\n      0xf8\n      shr\n      swap1\n      pop\n        /* \"Vote2.sol\":4756:4758  48 */\n      0x30\n        /* \"Vote2.sol\":4751:4758  c >= 48 */\n      dup2\n      lt\n      dup1\n      iszero\n      swap1\n        /* \"Vote2.sol\":4751:4769  c >= 48 && c <= 57 */\n      tag_268\n      jumpi\n      pop\n        /* \"Vote2.sol\":4767:4769  57 */\n      0x39\n        /* \"Vote2.sol\":4762:4763  c */\n      dup2\n        /* \"Vote2.sol\":4762:4769  c <= 57 */\n      gt\n      iszero\n        /* \"Vote2.sol\":4751:4769  c >= 48 && c <= 57 */\n    tag_268:\n        /* \"Vote2.sol\":4747:4833  if (c >= 48 && c <= 57) {\r... */\n      iszero\n      tag_269\n      jumpi\n        /* \"Vote2.sol\":4814:4816  48 */\n      0x30\n        /* \"Vote2.sol\":4810:4811  c */\n      dup2\n        /* \"Vote2.sol\":4810:4816  c - 48 */\n      sub\n        /* \"Vote2.sol\":4797:4801  temp */\n      dup3\n        /* \"Vote2.sol\":4804:4806  10 */\n      0x0a\n        /* \"Vote2.sol\":4797:4806  temp * 10 */\n      mul\n        /* \"Vote2.sol\":4797:4817  temp * 10 + (c - 48) */\n      add\n        /* \"Vote2.sol\":4790:4817  temp = temp * 10 + (c - 48) */\n      swap2\n      pop\n        /* \"Vote2.sol\":4747:4833  if (c >= 48 && c <= 57) {\r... */\n    tag_269:\n      pop\n        /* \"Vote2.sol\":4686:4689  i++ */\n      0x01\n      swap1\n      swap2\n      add\n      swap1\n        /* \"Vote2.sol\":4660:4844  for (i = 0; i < b.length; i++) {\r... */\n      jump(tag_264)\n    tag_265:\n        /* \"Vote2.sol\":4861:4865  temp */\n      swap5\n        /* \"Vote2.sol\":4507:4873  function stringToUint(string memory s)public pure returns (uint) {\r... */\n      swap4\n      pop\n      pop\n      pop\n      pop\n      jump\t// out\n        /* \"Vote2.sol\":1148:1171  uint public options_num */\n    tag_90:\n      sload(0x08)\n      dup2\n      jump\t// out\n        /* \"Vote2.sol\":11188:11318  function return_requirements_type(string memory temp)public view returns(uint){\r... */\n    tag_96:\n        /* \"Vote2.sol\":11261:11265  uint */\n      0x00\n        /* \"Vote2.sol\":11284:11296  requirements */\n      0x0f\n        /* \"Vote2.sol\":11297:11301  temp */\n      dup3\n        /* \"Vote2.sol\":11284:11302  requirements[temp] */\n      mload(0x40)\n      dup1\n      dup3\n      dup1\n      mload\n      swap1\n      0x20\n      add\n      swap1\n      dup1\n      dup4\n      dup4\n        /* \"--CODEGEN--\":36:189   */\n    tag_271:\n        /* \"--CODEGEN--\":66:68   */\n      0x20\n        /* \"--CODEGEN--\":61:64   */\n      dup4\n        /* \"--CODEGEN--\":58:69   */\n      lt\n        /* \"--CODEGEN--\":36:189   */\n      tag_273\n      jumpi\n        /* \"--CODEGEN--\":176:186   */\n      dup1\n      mload\n        /* \"--CODEGEN--\":164:187   */\n      dup3\n      mstore\n      not(0x1f)\n        /* \"--CODEGEN--\":139:151   */\n      swap1\n      swap3\n      add\n      swap2\n        /* \"--CODEGEN--\":98:100   */\n      0x20\n        /* \"--CODEGEN--\":89:101   */\n      swap2\n      dup3\n      add\n      swap2\n        /* \"--CODEGEN--\":114:126   */\n      add\n        /* \"--CODEGEN--\":36:189   */\n      jump(tag_271)\n    tag_273:\n        /* \"--CODEGEN--\":299:309   */\n      mload\n        /* \"--CODEGEN--\":344:354   */\n      dup2\n      mload\n        /* \"--CODEGEN--\":263:265   */\n      0x20\n        /* \"--CODEGEN--\":259:271   */\n      swap4\n      dup5\n      sub\n        /* \"--CODEGEN--\":254:257   */\n      0x0100\n        /* \"--CODEGEN--\":250:272   */\n      exp\n      not(0x00)\n        /* \"--CODEGEN--\":246:276   */\n      add\n        /* \"--CODEGEN--\":311:320   */\n      dup1\n      not\n        /* \"--CODEGEN--\":295:321   */\n      swap1\n      swap3\n      and\n        /* \"--CODEGEN--\":340:361   */\n      swap2\n      and\n        /* \"--CODEGEN--\":377:397   */\n      or\n        /* \"--CODEGEN--\":365:398   */\n      swap1\n      mstore\n        /* \"Vote2.sol\":11284:11302  requirements[temp] */\n      swap3\n      add\n      swap5\n      dup6\n      mstore\n      pop\n      mload(0x40)\n      swap4\n      dup5\n      swap1\n      sub\n      add\n      swap1\n      swap3\n      keccak256\n        /* \"--CODEGEN--\":274:275   */\n      0x01\n        /* \"Vote2.sol\":11284:11310  requirements[temp].rq_type */\n      add\n      sload\n      swap5\n        /* \"Vote2.sol\":11188:11318  function return_requirements_type(string memory temp)public view returns(uint){\r... */\n      swap4\n      pop\n      pop\n      pop\n      pop\n      jump\t// out\n        /* \"Vote2.sol\":1194:1214  uint[2] public times */\n    tag_99:\n      0x09\n      dup2\n      0x02\n      dup2\n      lt\n      tag_274\n      jumpi\n      invalid\n    tag_274:\n      add\n      sload\n      swap1\n      pop\n      dup2\n      jump\t// out\n        /* \"Vote2.sol\":4879:6345  function Validation(address e_addr)public view returns (bool){\r... */\n    tag_102:\n        /* \"Vote2.sol\":5046:5071  stemp.isOwner(msg.sender) */\n      0x40\n      dup1\n      mload\n      shl(0xe1, 0x17aa5fb7)\n      dup2\n      mstore\n        /* \"Vote2.sol\":5060:5070  msg.sender */\n      caller\n        /* \"Vote2.sol\":5046:5071  stemp.isOwner(msg.sender) */\n      0x04\n      dup3\n      add\n      mstore\n      swap1\n      mload\n      0x00\n      swap2\n        /* \"Vote2.sol\":4972:4978  e_addr */\n      dup4\n      swap2\n      dup3\n      swap2\n      sub(shl(0xa0, 0x01), 0x01)\n        /* \"Vote2.sol\":5046:5059  stemp.isOwner */\n      dup4\n      and\n      swap2\n      0x2f54bf6e\n      swap2\n        /* \"Vote2.sol\":5046:5071  stemp.isOwner(msg.sender) */\n      0x24\n      dup1\n      dup3\n      add\n      swap3\n      0x20\n      swap3\n      swap1\n      swap2\n      swap1\n      dup3\n      swap1\n      sub\n      add\n      dup2\n        /* \"Vote2.sol\":5046:5059  stemp.isOwner */\n      dup7\n        /* \"Vote2.sol\":5046:5071  stemp.isOwner(msg.sender) */\n      dup1\n      extcodesize\n      iszero\n        /* \"--CODEGEN--\":2:4   */\n      dup1\n      iszero\n      tag_277\n      jumpi\n        /* \"--CODEGEN--\":27:28   */\n      0x00\n        /* \"--CODEGEN--\":24:25   */\n      dup1\n        /* \"--CODEGEN--\":17:29   */\n      revert\n        /* \"--CODEGEN--\":2:4   */\n    tag_277:\n        /* \"Vote2.sol\":5046:5071  stemp.isOwner(msg.sender) */\n      pop\n      gas\n      staticcall\n      iszero\n        /* \"--CODEGEN--\":8:17   */\n      dup1\n        /* \"--CODEGEN--\":5:7   */\n      iszero\n      tag_279\n      jumpi\n        /* \"--CODEGEN--\":45:61   */\n      returndatasize\n        /* \"--CODEGEN--\":42:43   */\n      0x00\n        /* \"--CODEGEN--\":39:40   */\n      dup1\n        /* \"--CODEGEN--\":24:62   */\n      returndatacopy\n        /* \"--CODEGEN--\":77:93   */\n      returndatasize\n        /* \"--CODEGEN--\":74:75   */\n      0x00\n        /* \"--CODEGEN--\":67:94   */\n      revert\n        /* \"--CODEGEN--\":5:7   */\n    tag_279:\n        /* \"Vote2.sol\":5046:5071  stemp.isOwner(msg.sender) */\n      pop\n      pop\n      pop\n      pop\n      mload(0x40)\n      returndatasize\n        /* \"--CODEGEN--\":15:17   */\n      0x20\n        /* \"--CODEGEN--\":10:13   */\n      dup2\n        /* \"--CODEGEN--\":7:18   */\n      lt\n        /* \"--CODEGEN--\":4:6   */\n      iszero\n      tag_280\n      jumpi\n        /* \"--CODEGEN--\":31:32   */\n      0x00\n        /* \"--CODEGEN--\":28:29   */\n      dup1\n        /* \"--CODEGEN--\":21:33   */\n      revert\n        /* \"--CODEGEN--\":4:6   */\n    tag_280:\n      pop\n        /* \"Vote2.sol\":5046:5071  stemp.isOwner(msg.sender) */\n      mload\n        /* \"Vote2.sol\":5042:5087  if(!stemp.isOwner(msg.sender)){return false;} */\n      tag_281\n      jumpi\n        /* \"Vote2.sol\":5080:5085  false */\n      0x00\n        /* \"Vote2.sol\":5073:5085  return false */\n      swap3\n      pop\n      pop\n      pop\n      jump(tag_256)\n        /* \"Vote2.sol\":5042:5087  if(!stemp.isOwner(msg.sender)){return false;} */\n    tag_281:\n        /* \"Vote2.sol\":5101:5107  uint i */\n      0x00\n        /* \"Vote2.sol\":5097:6316  for(uint i = 0;i<requirements_key.length;i++){\r... */\n    tag_282:\n        /* \"Vote2.sol\":5114:5130  requirements_key */\n      0x10\n        /* \"Vote2.sol\":5114:5137  requirements_key.length */\n      sload\n        /* \"Vote2.sol\":5112:5137  i<requirements_key.length */\n      dup2\n      lt\n        /* \"Vote2.sol\":5097:6316  for(uint i = 0;i<requirements_key.length;i++){\r... */\n      iszero\n      tag_283\n      jumpi\n        /* \"Vote2.sol\":5160:5172  requirements */\n      0x0f\n        /* \"Vote2.sol\":5173:5189  requirements_key */\n      0x10\n        /* \"Vote2.sol\":5190:5191  i */\n      dup3\n        /* \"Vote2.sol\":5173:5192  requirements_key[i] */\n      dup2\n      sload\n      dup2\n      lt\n      tag_285\n      jumpi\n      invalid\n    tag_285:\n      swap1\n      0x00\n      mstore\n      keccak256(0x00, 0x20)\n      add\n        /* \"Vote2.sol\":5160:5193  requirements[requirements_key[i]] */\n      mload(0x40)\n      dup1\n      dup3\n      dup1\n      sload\n      0x01\n      dup2\n      0x01\n      and\n      iszero\n      0x0100\n      mul\n      sub\n      and\n      0x02\n      swap1\n      div\n      dup1\n      iszero\n      tag_287\n      jumpi\n      dup1\n      0x1f\n      lt\n      tag_288\n      jumpi\n      0x0100\n      dup1\n      dup4\n      sload\n      div\n      mul\n      dup4\n      mstore\n      swap2\n      dup3\n      add\n      swap2\n      jump(tag_287)\n    tag_288:\n      dup3\n      add\n      swap2\n      swap1\n      0x00\n      mstore\n      keccak256(0x00, 0x20)\n      swap1\n    tag_289:\n      dup2\n      sload\n      dup2\n      mstore\n      swap1\n      0x01\n      add\n      swap1\n      0x20\n      add\n      dup1\n      dup4\n      gt\n      tag_289\n      jumpi\n    tag_287:\n      pop\n      pop\n      swap3\n      dup4\n      mstore\n      pop\n      pop\n      mload(0x40)\n      swap1\n      dup2\n      swap1\n      sub\n      0x20\n      add\n      swap1\n      keccak256\n        /* \"Vote2.sol\":5160:5201  requirements[requirements_key[i]].rq_type */\n      0x01\n      add\n      sload\n        /* \"Vote2.sol\":5157:6305  if(requirements[requirements_key[i]].rq_type == 0){////\r... */\n      tag_290\n      jumpi\n        /* \"Vote2.sol\":5364:5381  write_entity_addr */\n      sload(0x0d)\n        /* \"Vote2.sol\":5394:5410  requirements_key */\n      0x10\n        /* \"Vote2.sol\":5394:5413  requirements_key[i] */\n      dup1\n      sload\n      sub(shl(0xa0, 0x01), 0x01)\n        /* \"Vote2.sol\":5347:5363  temp.columnValue */\n      dup1\n      dup8\n      and\n      swap4\n      0x8cba76b1\n      swap4\n        /* \"Vote2.sol\":5364:5381  write_entity_addr */\n      swap2\n      and\n      swap2\n        /* \"Vote2.sol\":5382:5393  description */\n      0x0e\n      swap2\n        /* \"Vote2.sol\":5394:5410  requirements_key */\n      swap1\n        /* \"Vote2.sol\":5411:5412  i */\n      dup7\n      swap1\n        /* \"Vote2.sol\":5394:5413  requirements_key[i] */\n      dup2\n      lt\n      tag_291\n      jumpi\n      invalid\n    tag_291:\n      0x00\n      swap2\n      dup3\n      mstore\n      0x20\n      swap1\n      swap2\n      keccak256\n        /* \"Vote2.sol\":5347:5414  temp.columnValue(write_entity_addr,description,requirements_key[i]) */\n      mload(0x40)\n      not(sub(shl(0xe0, 0x01), 0x01))\n      0xe0\n      dup8\n      swap1\n      shl\n      and\n      dup2\n      mstore\n      sub(shl(0xa0, 0x01), 0x01)\n      dup6\n      and\n      0x04\n      dup3\n      add\n      swap1\n      dup2\n      mstore\n      0x60\n      0x24\n      dup4\n      add\n      swap1\n      dup2\n      mstore\n      dup6\n      sload\n      0x02\n      not(0x00)\n      0x0100\n      0x01\n      dup5\n      and\n      iszero\n      mul\n      add\n      swap1\n      swap2\n      and\n      div\n      0x64\n      dup5\n      add\n      dup2\n      swap1\n      mstore\n        /* \"Vote2.sol\":5394:5413  requirements_key[i] */\n      swap4\n      swap1\n      swap5\n      add\n      swap4\n        /* \"Vote2.sol\":5347:5414  temp.columnValue(write_entity_addr,description,requirements_key[i]) */\n      swap1\n      swap3\n      swap1\n      swap2\n      0x44\n      dup2\n      add\n      swap2\n      0x84\n      swap1\n      swap2\n      add\n      swap1\n      dup7\n      swap1\n      dup1\n      iszero\n      tag_293\n      jumpi\n      dup1\n      0x1f\n      lt\n      tag_294\n      jumpi\n      0x0100\n      dup1\n      dup4\n      sload\n      div\n      mul\n      dup4\n      mstore\n      swap2\n      0x20\n      add\n      swap2\n      jump(tag_293)\n    tag_294:\n      dup3\n      add\n      swap2\n      swap1\n      0x00\n      mstore\n      keccak256(0x00, 0x20)\n      swap1\n    tag_295:\n      dup2\n      sload\n      dup2\n      mstore\n      swap1\n      0x01\n      add\n      swap1\n      0x20\n      add\n      dup1\n      dup4\n      gt\n      tag_295\n      jumpi\n      dup3\n      swap1\n      sub\n      0x1f\n      and\n      dup3\n      add\n      swap2\n    tag_293:\n      pop\n      pop\n      dup4\n      dup2\n      sub\n      dup3\n      mstore\n      dup5\n      sload\n      0x02\n      0x01\n      dup3\n      and\n      iszero\n      0x0100\n      mul\n      not(0x00)\n      add\n      swap1\n      swap2\n      and\n      div\n      dup1\n      dup3\n      mstore\n      0x20\n      swap1\n      swap2\n      add\n      swap1\n      dup6\n      swap1\n      dup1\n      iszero\n      tag_296\n      jumpi\n      dup1\n      0x1f\n      lt\n      tag_297\n      jumpi\n      0x0100\n      dup1\n      dup4\n      sload\n      div\n      mul\n      dup4\n      mstore\n      swap2\n      0x20\n      add\n      swap2\n      jump(tag_296)\n    tag_297:\n      dup3\n      add\n      swap2\n      swap1\n      0x00\n      mstore\n      keccak256(0x00, 0x20)\n      swap1\n    tag_298:\n      dup2\n      sload\n      dup2\n      mstore\n      swap1\n      0x01\n      add\n      swap1\n      0x20\n      add\n      dup1\n      dup4\n      gt\n      tag_298\n      jumpi\n      dup3\n      swap1\n      sub\n      0x1f\n      and\n      dup3\n      add\n      swap2\n    tag_296:\n      pop\n      pop\n      swap6\n      pop\n      pop\n      pop\n      pop\n      pop\n      pop\n      0x00\n      mload(0x40)\n      dup1\n      dup4\n      sub\n      dup2\n      dup7\n      dup1\n      extcodesize\n      iszero\n        /* \"--CODEGEN--\":5:14   */\n      dup1\n        /* \"--CODEGEN--\":2:4   */\n      iszero\n      tag_299\n      jumpi\n        /* \"--CODEGEN--\":27:28   */\n      0x00\n        /* \"--CODEGEN--\":24:25   */\n      dup1\n        /* \"--CODEGEN--\":17:29   */\n      revert\n        /* \"--CODEGEN--\":2:4   */\n    tag_299:\n        /* \"Vote2.sol\":5347:5414  temp.columnValue(write_entity_addr,description,requirements_key[i]) */\n      pop\n      gas\n      staticcall\n      iszero\n        /* \"--CODEGEN--\":8:17   */\n      dup1\n        /* \"--CODEGEN--\":5:7   */\n      iszero\n      tag_301\n      jumpi\n        /* \"--CODEGEN--\":45:61   */\n      returndatasize\n        /* \"--CODEGEN--\":42:43   */\n      0x00\n        /* \"--CODEGEN--\":39:40   */\n      dup1\n        /* \"--CODEGEN--\":24:62   */\n      returndatacopy\n        /* \"--CODEGEN--\":77:93   */\n      returndatasize\n        /* \"--CODEGEN--\":74:75   */\n      0x00\n        /* \"--CODEGEN--\":67:94   */\n      revert\n        /* \"--CODEGEN--\":5:7   */\n    tag_301:\n        /* \"Vote2.sol\":5347:5414  temp.columnValue(write_entity_addr,description,requirements_key[i]) */\n      pop\n      pop\n      pop\n      pop\n      mload(0x40)\n        /* \"--CODEGEN--\":39:55   */\n      returndatasize\n        /* \"--CODEGEN--\":36:37   */\n      0x00\n        /* \"--CODEGEN--\":17:34   */\n      dup3\n        /* \"--CODEGEN--\":2:56   */\n      returndatacopy\n        /* \"--CODEGEN--\":101:105   */\n      0x1f\n        /* \"Vote2.sol\":5347:5414  temp.columnValue(write_entity_addr,description,requirements_key[i]) */\n      returndatasize\n        /* \"--CODEGEN--\":80:95   */\n      swap1\n      dup2\n      add\n      not(0x1f)\n        /* \"--CODEGEN--\":76:107   */\n      and\n        /* \"--CODEGEN--\":65:108   */\n      dup3\n      add\n        /* \"--CODEGEN--\":120:124   */\n      0x40\n        /* \"--CODEGEN--\":113:133   */\n      mstore\n        /* \"--CODEGEN--\":15:17   */\n      0x20\n        /* \"--CODEGEN--\":7:18   */\n      dup2\n      lt\n        /* \"--CODEGEN--\":4:6   */\n      iszero\n      tag_302\n      jumpi\n        /* \"--CODEGEN--\":31:32   */\n      0x00\n        /* \"--CODEGEN--\":28:29   */\n      dup1\n        /* \"--CODEGEN--\":21:33   */\n      revert\n        /* \"--CODEGEN--\":4:6   */\n    tag_302:\n        /* \"Vote2.sol\":5347:5414  temp.columnValue(write_entity_addr,description,requirements_key[i]) */\n      dup2\n      mload\n      mload(0x40)\n      swap3\n      swap2\n      dup3\n      add\n      swap2\n      swap1\n      dup2\n      swap1\n      dup5\n      shl(0x20, 0x01)\n        /* \"--CODEGEN--\":11:31   */\n      dup3\n      gt\n        /* \"--CODEGEN--\":8:10   */\n      iszero\n      tag_303\n      jumpi\n        /* \"--CODEGEN--\":44:45   */\n      0x00\n        /* \"--CODEGEN--\":41:42   */\n      dup1\n        /* \"--CODEGEN--\":34:46   */\n      revert\n        /* \"--CODEGEN--\":8:10   */\n    tag_303:\n        /* \"--CODEGEN--\":62:83   */\n      swap1\n      dup4\n      add\n      swap1\n        /* \"--CODEGEN--\":123:127   */\n      0x20\n        /* \"--CODEGEN--\":114:128   */\n      dup3\n      add\n        /* \"--CODEGEN--\":138:169   */\n      dup6\n      dup2\n      gt\n        /* \"--CODEGEN--\":135:137   */\n      iszero\n      tag_304\n      jumpi\n        /* \"--CODEGEN--\":182:183   */\n      0x00\n        /* \"--CODEGEN--\":179:180   */\n      dup1\n        /* \"--CODEGEN--\":172:184   */\n      revert\n        /* \"--CODEGEN--\":135:137   */\n    tag_304:\n        /* \"--CODEGEN--\":213:223   */\n      dup3\n      mload\n        /* \"--CODEGEN--\":285:328   */\n      dup2\n      dup2\n      add\n      dup8\n      lt\n      shl(0x20, 0x01)\n        /* \"--CODEGEN--\":244:273   */\n      dup3\n      gt\n        /* \"--CODEGEN--\":233:348   */\n      or\n        /* \"--CODEGEN--\":230:232   */\n      iszero\n      tag_305\n      jumpi\n        /* \"--CODEGEN--\":361:362   */\n      0x00\n        /* \"--CODEGEN--\":358:359   */\n      dup1\n        /* \"--CODEGEN--\":351:363   */\n      revert\n        /* \"--CODEGEN--\":230:232   */\n    tag_305:\n        /* \"--CODEGEN--\":372:397   */\n      dup3\n      mstore\n      pop\n        /* \"Vote2.sol\":5347:5414  temp.columnValue(write_entity_addr,description,requirements_key[i]) */\n      dup2\n      mload\n        /* \"--CODEGEN--\":420:424   */\n      0x20\n        /* \"--CODEGEN--\":411:425   */\n      swap2\n      dup3\n      add\n      swap3\n        /* \"Vote2.sol\":5347:5414  temp.columnValue(write_entity_addr,description,requirements_key[i]) */\n      swap1\n      swap2\n      add\n      swap1\n      dup1\n        /* \"--CODEGEN--\":411:425   */\n      dup4\n        /* \"Vote2.sol\":5347:5414  temp.columnValue(write_entity_addr,description,requirements_key[i]) */\n      dup4\n        /* \"--CODEGEN--\":23:24   */\n      0x00\n        /* \"--CODEGEN--\":8:108   */\n    tag_306:\n        /* \"--CODEGEN--\":33:36   */\n      dup4\n        /* \"--CODEGEN--\":30:31   */\n      dup2\n        /* \"--CODEGEN--\":27:37   */\n      lt\n        /* \"--CODEGEN--\":8:108   */\n      iszero\n      tag_308\n      jumpi\n        /* \"--CODEGEN--\":90:101   */\n      dup2\n      dup2\n      add\n        /* \"--CODEGEN--\":84:102   */\n      mload\n        /* \"--CODEGEN--\":71:82   */\n      dup4\n      dup3\n      add\n        /* \"--CODEGEN--\":64:103   */\n      mstore\n        /* \"--CODEGEN--\":52:54   */\n      0x20\n        /* \"--CODEGEN--\":45:55   */\n      add\n        /* \"--CODEGEN--\":8:108   */\n      jump(tag_306)\n    tag_308:\n        /* \"--CODEGEN--\":12:26   */\n      pop\n        /* \"Vote2.sol\":5347:5414  temp.columnValue(write_entity_addr,description,requirements_key[i]) */\n      pop\n      pop\n      pop\n      swap1\n      pop\n      swap1\n      dup2\n      add\n      swap1\n      0x1f\n      and\n      dup1\n      iszero\n      tag_309\n      jumpi\n      dup1\n      dup3\n      sub\n      dup1\n      mload\n      0x01\n      dup4\n      0x20\n      sub\n      0x0100\n      exp\n      sub\n      not\n      and\n      dup2\n      mstore\n      0x20\n      add\n      swap2\n      pop\n    tag_309:\n      pop\n      0x40\n      mstore\n      pop\n      pop\n      pop\n        /* \"Vote2.sol\":5330:5415  abi.encodePacked(temp.columnValue(write_entity_addr,description,requirements_key[i])) */\n      add(0x20, mload(0x40))\n      dup1\n      dup3\n      dup1\n      mload\n      swap1\n      0x20\n      add\n      swap1\n      dup1\n      dup4\n      dup4\n        /* \"--CODEGEN--\":36:189   */\n    tag_310:\n        /* \"--CODEGEN--\":66:68   */\n      0x20\n        /* \"--CODEGEN--\":61:64   */\n      dup4\n        /* \"--CODEGEN--\":58:69   */\n      lt\n        /* \"--CODEGEN--\":36:189   */\n      tag_312\n      jumpi\n        /* \"--CODEGEN--\":176:186   */\n      dup1\n      mload\n        /* \"--CODEGEN--\":164:187   */\n      dup3\n      mstore\n      not(0x1f)\n        /* \"--CODEGEN--\":139:151   */\n      swap1\n      swap3\n      add\n      swap2\n        /* \"--CODEGEN--\":98:100   */\n      0x20\n        /* \"--CODEGEN--\":89:101   */\n      swap2\n      dup3\n      add\n      swap2\n        /* \"--CODEGEN--\":114:126   */\n      add\n        /* \"--CODEGEN--\":36:189   */\n      jump(tag_310)\n    tag_312:\n        /* \"--CODEGEN--\":274:275   */\n      0x01\n        /* \"--CODEGEN--\":267:270   */\n      dup4\n        /* \"--CODEGEN--\":263:265   */\n      0x20\n        /* \"--CODEGEN--\":259:271   */\n      sub\n        /* \"--CODEGEN--\":254:257   */\n      0x0100\n        /* \"--CODEGEN--\":250:272   */\n      exp\n        /* \"--CODEGEN--\":246:276   */\n      sub\n        /* \"--CODEGEN--\":315:319   */\n      dup1\n        /* \"--CODEGEN--\":311:320   */\n      not\n        /* \"--CODEGEN--\":305:308   */\n      dup3\n        /* \"--CODEGEN--\":299:309   */\n      mload\n        /* \"--CODEGEN--\":295:321   */\n      and\n        /* \"--CODEGEN--\":356:360   */\n      dup2\n        /* \"--CODEGEN--\":350:353   */\n      dup5\n        /* \"--CODEGEN--\":344:354   */\n      mload\n        /* \"--CODEGEN--\":340:361   */\n      and\n        /* \"--CODEGEN--\":389:396   */\n      dup1\n        /* \"--CODEGEN--\":380:387   */\n      dup3\n        /* \"--CODEGEN--\":377:397   */\n      or\n        /* \"--CODEGEN--\":372:375   */\n      dup6\n        /* \"--CODEGEN--\":365:398   */\n      mstore\n        /* \"--CODEGEN--\":3:402   */\n      pop\n      pop\n      pop\n        /* \"Vote2.sol\":5330:5415  abi.encodePacked(temp.columnValue(write_entity_addr,description,requirements_key[i])) */\n      pop\n      pop\n      pop\n      swap1\n      pop\n      add\n      swap2\n      pop\n      pop\n      mload(0x40)\n        /* \"--CODEGEN--\":49:53   */\n      0x20\n        /* \"--CODEGEN--\":39:46   */\n      dup2\n        /* \"--CODEGEN--\":30:37   */\n      dup4\n        /* \"--CODEGEN--\":26:47   */\n      sub\n        /* \"--CODEGEN--\":22:54   */\n      sub\n        /* \"--CODEGEN--\":13:20   */\n      dup2\n        /* \"--CODEGEN--\":6:55   */\n      mstore\n        /* \"Vote2.sol\":5330:5415  abi.encodePacked(temp.columnValue(write_entity_addr,description,requirements_key[i])) */\n      swap1\n      0x40\n      mstore\n        /* \"Vote2.sol\":5320:5416  keccak256(abi.encodePacked(temp.columnValue(write_entity_addr,description,requirements_key[i]))) */\n      dup1\n      mload\n      swap1\n      0x20\n      add\n      keccak256\n        /* \"Vote2.sol\":5269:5281  requirements */\n      0x0f\n        /* \"Vote2.sol\":5282:5298  requirements_key */\n      0x10\n        /* \"Vote2.sol\":5299:5300  i */\n      dup4\n        /* \"Vote2.sol\":5282:5301  requirements_key[i] */\n      dup2\n      sload\n      dup2\n      lt\n      tag_313\n      jumpi\n      invalid\n    tag_313:\n      swap1\n      0x00\n      mstore\n      keccak256(0x00, 0x20)\n      add\n        /* \"Vote2.sol\":5269:5302  requirements[requirements_key[i]] */\n      mload(0x40)\n      dup1\n      dup3\n      dup1\n      sload\n      0x01\n      dup2\n      0x01\n      and\n      iszero\n      0x0100\n      mul\n      sub\n      and\n      0x02\n      swap1\n      div\n      dup1\n      iszero\n      tag_315\n      jumpi\n      dup1\n      0x1f\n      lt\n      tag_316\n      jumpi\n      0x0100\n      dup1\n      dup4\n      sload\n      div\n      mul\n      dup4\n      mstore\n      swap2\n      dup3\n      add\n      swap2\n      jump(tag_315)\n    tag_316:\n      dup3\n      add\n      swap2\n      swap1\n      0x00\n      mstore\n      keccak256(0x00, 0x20)\n      swap1\n    tag_317:\n      dup2\n      sload\n      dup2\n      mstore\n      swap1\n      0x01\n      add\n      swap1\n      0x20\n      add\n      dup1\n      dup4\n      gt\n      tag_317\n      jumpi\n    tag_315:\n      pop\n      pop\n      swap2\n      pop\n      pop\n      swap1\n      dup2\n      mstore\n      0x20\n      add\n      mload(0x40)\n      dup1\n      swap2\n      sub\n      swap1\n      keccak256\n        /* \"Vote2.sol\":5269:5314  requirements[requirements_key[i]].requirement */\n      0x00\n      add\n        /* \"Vote2.sol\":5252:5315  abi.encodePacked(requirements[requirements_key[i]].requirement) */\n      add(0x20, mload(0x40))\n      dup1\n      dup3\n      dup1\n      sload\n      0x01\n      dup2\n      0x01\n      and\n      iszero\n      0x0100\n      mul\n      sub\n      and\n      0x02\n      swap1\n      div\n      dup1\n      iszero\n      tag_318\n      jumpi\n      dup1\n      0x1f\n      lt\n      tag_319\n      jumpi\n      0x0100\n      dup1\n      dup4\n      sload\n      div\n      mul\n      dup4\n      mstore\n      swap2\n      dup3\n      add\n      swap2\n      jump(tag_318)\n    tag_319:\n      dup3\n      add\n      swap2\n      swap1\n      0x00\n      mstore\n      keccak256(0x00, 0x20)\n      swap1\n    tag_320:\n      dup2\n      sload\n      dup2\n      mstore\n      swap1\n      0x01\n      add\n      swap1\n      0x20\n      add\n      dup1\n      dup4\n      gt\n      tag_320\n      jumpi\n    tag_318:\n      pop\n      pop\n      swap2\n      pop\n      pop\n      mload(0x40)\n        /* \"--CODEGEN--\":49:53   */\n      0x20\n        /* \"--CODEGEN--\":39:46   */\n      dup2\n        /* \"--CODEGEN--\":30:37   */\n      dup4\n        /* \"--CODEGEN--\":26:47   */\n      sub\n        /* \"--CODEGEN--\":22:54   */\n      sub\n        /* \"--CODEGEN--\":13:20   */\n      dup2\n        /* \"--CODEGEN--\":6:55   */\n      mstore\n        /* \"Vote2.sol\":5252:5315  abi.encodePacked(requirements[requirements_key[i]].requirement) */\n      swap1\n      0x40\n      mstore\n        /* \"Vote2.sol\":5242:5316  keccak256(abi.encodePacked(requirements[requirements_key[i]].requirement)) */\n      dup1\n      mload\n      swap1\n      0x20\n      add\n      keccak256\n        /* \"Vote2.sol\":5242:5416  keccak256(abi.encodePacked(requirements[requirements_key[i]].requirement)) != keccak256(abi.encodePacked(temp.columnValue(write_entity_addr,description,requirements_key[i]))) */\n      eq\n        /* \"Vote2.sol\":5239:5472  if(keccak256(abi.encodePacked(requirements[requirements_key[i]].requirement)) != keccak256(abi.encodePacked(temp.columnValue(write_entity_addr,description,requirements_key[i])))){\r... */\n      tag_321\n      jumpi\n        /* \"Vote2.sol\":5447:5452  false */\n      0x00\n        /* \"Vote2.sol\":5440:5452  return false */\n      swap4\n      pop\n      pop\n      pop\n      pop\n      jump(tag_256)\n        /* \"Vote2.sol\":5239:5472  if(keccak256(abi.encodePacked(requirements[requirements_key[i]].requirement)) != keccak256(abi.encodePacked(temp.columnValue(write_entity_addr,description,requirements_key[i])))){\r... */\n    tag_321:\n        /* \"Vote2.sol\":5157:6305  if(requirements[requirements_key[i]].rq_type == 0){////\r... */\n      jump(tag_365)\n    tag_290:\n        /* \"Vote2.sol\":5509:5521  requirements */\n      0x0f\n        /* \"Vote2.sol\":5522:5538  requirements_key */\n      0x10\n        /* \"Vote2.sol\":5539:5540  i */\n      dup3\n        /* \"Vote2.sol\":5522:5541  requirements_key[i] */\n      dup2\n      sload\n      dup2\n      lt\n      tag_323\n      jumpi\n      invalid\n    tag_323:\n      swap1\n      0x00\n      mstore\n      keccak256(0x00, 0x20)\n      add\n        /* \"Vote2.sol\":5509:5542  requirements[requirements_key[i]] */\n      mload(0x40)\n      dup1\n      dup3\n      dup1\n      sload\n      0x01\n      dup2\n      0x01\n      and\n      iszero\n      0x0100\n      mul\n      sub\n      and\n      0x02\n      swap1\n      div\n      dup1\n      iszero\n      tag_325\n      jumpi\n      dup1\n      0x1f\n      lt\n      tag_326\n      jumpi\n      0x0100\n      dup1\n      dup4\n      sload\n      div\n      mul\n      dup4\n      mstore\n      swap2\n      dup3\n      add\n      swap2\n      jump(tag_325)\n    tag_326:\n      dup3\n      add\n      swap2\n      swap1\n      0x00\n      mstore\n      keccak256(0x00, 0x20)\n      swap1\n    tag_327:\n      dup2\n      sload\n      dup2\n      mstore\n      swap1\n      0x01\n      add\n      swap1\n      0x20\n      add\n      dup1\n      dup4\n      gt\n      tag_327\n      jumpi\n    tag_325:\n      pop\n      pop\n      swap2\n      pop\n      pop\n      swap1\n      dup2\n      mstore\n      0x20\n      add\n      mload(0x40)\n      dup1\n      swap2\n      sub\n      swap1\n      keccak256\n        /* \"Vote2.sol\":5509:5550  requirements[requirements_key[i]].rq_type */\n      0x01\n      add\n      sload\n        /* \"Vote2.sol\":5554:5555  1 */\n      0x01\n        /* \"Vote2.sol\":5509:5555  requirements[requirements_key[i]].rq_type == 1 */\n      eq\n        /* \"Vote2.sol\":5506:6305  if(requirements[requirements_key[i]].rq_type == 1){////\r... */\n      iszero\n      tag_328\n      jumpi\n        /* \"Vote2.sol\":5588:5598  uint temp1 */\n      0x00\n        /* \"Vote2.sol\":5601:5660  stringToUint(requirements[requirements_key[i]].requirement) */\n      tag_329\n        /* \"Vote2.sol\":5614:5626  requirements */\n      0x0f\n        /* \"Vote2.sol\":5627:5643  requirements_key */\n      0x10\n        /* \"Vote2.sol\":5644:5645  i */\n      dup5\n        /* \"Vote2.sol\":5627:5646  requirements_key[i] */\n      dup2\n      sload\n      dup2\n      lt\n      tag_330\n      jumpi\n      invalid\n    tag_330:\n      swap1\n      0x00\n      mstore\n      keccak256(0x00, 0x20)\n      add\n        /* \"Vote2.sol\":5614:5647  requirements[requirements_key[i]] */\n      mload(0x40)\n      dup1\n      dup3\n      dup1\n      sload\n      0x01\n      dup2\n      0x01\n      and\n      iszero\n      0x0100\n      mul\n      sub\n      and\n      0x02\n      swap1\n      div\n      dup1\n      iszero\n      tag_332\n      jumpi\n      dup1\n      0x1f\n      lt\n      tag_333\n      jumpi\n      0x0100\n      dup1\n      dup4\n      sload\n      div\n      mul\n      dup4\n      mstore\n      swap2\n      dup3\n      add\n      swap2\n      jump(tag_332)\n    tag_333:\n      dup3\n      add\n      swap2\n      swap1\n      0x00\n      mstore\n      keccak256(0x00, 0x20)\n      swap1\n    tag_334:\n      dup2\n      sload\n      dup2\n      mstore\n      swap1\n      0x01\n      add\n      swap1\n      0x20\n      add\n      dup1\n      dup4\n      gt\n      tag_334\n      jumpi\n    tag_332:\n      pop\n      pop\n      swap3\n      dup4\n      mstore\n      pop\n      pop\n      0x40\n      dup1\n      mload\n      0x20\n      swap3\n      dup2\n      swap1\n      sub\n      dup4\n      add\n      dup2\n      keccak256\n        /* \"Vote2.sol\":5601:5660  stringToUint(requirements[requirements_key[i]].requirement) */\n      dup1\n      sload\n      0x02\n      0x01\n      dup3\n      and\n      iszero\n      0x0100\n      mul\n      not(0x00)\n      add\n      swap1\n      swap2\n      and\n      div\n      0x1f\n      dup2\n      add\n      dup6\n      swap1\n      div\n      dup6\n      mul\n      dup4\n      add\n      dup6\n      add\n      swap1\n      swap4\n      mstore\n      dup3\n      dup3\n      mstore\n        /* \"Vote2.sol\":5614:5647  requirements[requirements_key[i]] */\n      swap1\n      swap3\n      swap1\n      swap2\n        /* \"Vote2.sol\":5601:5660  stringToUint(requirements[requirements_key[i]].requirement) */\n      swap1\n      dup4\n      add\n        /* \"Vote2.sol\":5614:5647  requirements[requirements_key[i]] */\n      dup3\n        /* \"Vote2.sol\":5601:5660  stringToUint(requirements[requirements_key[i]].requirement) */\n      dup3\n      dup1\n      iszero\n      tag_335\n      jumpi\n      dup1\n      0x1f\n      lt\n      tag_336\n      jumpi\n      0x0100\n      dup1\n      dup4\n      sload\n      div\n      mul\n      dup4\n      mstore\n      swap2\n      0x20\n      add\n      swap2\n      jump(tag_335)\n    tag_336:\n      dup3\n      add\n      swap2\n      swap1\n      0x00\n      mstore\n      keccak256(0x00, 0x20)\n      swap1\n    tag_337:\n      dup2\n      sload\n      dup2\n      mstore\n      swap1\n      0x01\n      add\n      swap1\n      0x20\n      add\n      dup1\n      dup4\n      gt\n      tag_337\n      jumpi\n      dup3\n      swap1\n      sub\n      0x1f\n      and\n      dup3\n      add\n      swap2\n    tag_335:\n      pop\n      pop\n      pop\n      pop\n      pop\n        /* \"Vote2.sol\":5601:5613  stringToUint */\n      tag_88\n        /* \"Vote2.sol\":5601:5660  stringToUint(requirements[requirements_key[i]].requirement) */\n      jump\t// in\n    tag_329:\n        /* \"Vote2.sol\":5730:5747  write_entity_addr */\n      sload(0x0d)\n        /* \"Vote2.sol\":5760:5776  requirements_key */\n      0x10\n        /* \"Vote2.sol\":5760:5779  requirements_key[i] */\n      dup1\n      sload\n        /* \"Vote2.sol\":5588:5660  uint temp1 = stringToUint(requirements[requirements_key[i]].requirement) */\n      swap3\n      swap4\n      pop\n        /* \"Vote2.sol\":5687:5697  uint temp2 */\n      0x00\n      swap3\n        /* \"Vote2.sol\":5700:5781  stringToUint(temp.columnValue(write_entity_addr,description,requirements_key[i])) */\n      tag_338\n      swap3\n      sub(shl(0xa0, 0x01), 0x01)\n        /* \"Vote2.sol\":5713:5729  temp.columnValue */\n      dup10\n      dup2\n      and\n      swap4\n      0x8cba76b1\n      swap4\n        /* \"Vote2.sol\":5730:5747  write_entity_addr */\n      swap2\n      swap1\n      swap3\n      and\n      swap2\n        /* \"Vote2.sol\":5748:5759  description */\n      0x0e\n      swap2\n        /* \"Vote2.sol\":5777:5778  i */\n      dup10\n      swap1\n        /* \"Vote2.sol\":5760:5779  requirements_key[i] */\n      dup2\n      lt\n      tag_339\n      jumpi\n      invalid\n    tag_339:\n      0x00\n      swap2\n      dup3\n      mstore\n      0x20\n      swap1\n      swap2\n      keccak256\n        /* \"Vote2.sol\":5713:5780  temp.columnValue(write_entity_addr,description,requirements_key[i]) */\n      mload(0x40)\n      not(sub(shl(0xe0, 0x01), 0x01))\n      0xe0\n      dup8\n      swap1\n      shl\n      and\n      dup2\n      mstore\n      sub(shl(0xa0, 0x01), 0x01)\n      dup6\n      and\n      0x04\n      dup3\n      add\n      swap1\n      dup2\n      mstore\n      0x60\n      0x24\n      dup4\n      add\n      swap1\n      dup2\n      mstore\n      dup6\n      sload\n      0x02\n      not(0x00)\n      0x0100\n      0x01\n      dup5\n      and\n      iszero\n      mul\n      add\n      swap1\n      swap2\n      and\n      div\n      0x64\n      dup5\n      add\n      dup2\n      swap1\n      mstore\n        /* \"Vote2.sol\":5760:5779  requirements_key[i] */\n      swap4\n      swap1\n      swap5\n      add\n      swap4\n        /* \"Vote2.sol\":5713:5780  temp.columnValue(write_entity_addr,description,requirements_key[i]) */\n      swap1\n      swap3\n      swap1\n      swap2\n      0x44\n      dup2\n      add\n      swap2\n      0x84\n      swap1\n      swap2\n      add\n      swap1\n      dup7\n      swap1\n      dup1\n      iszero\n      tag_341\n      jumpi\n      dup1\n      0x1f\n      lt\n      tag_342\n      jumpi\n      0x0100\n      dup1\n      dup4\n      sload\n      div\n      mul\n      dup4\n      mstore\n      swap2\n      0x20\n      add\n      swap2\n      jump(tag_341)\n    tag_342:\n      dup3\n      add\n      swap2\n      swap1\n      0x00\n      mstore\n      keccak256(0x00, 0x20)\n      swap1\n    tag_343:\n      dup2\n      sload\n      dup2\n      mstore\n      swap1\n      0x01\n      add\n      swap1\n      0x20\n      add\n      dup1\n      dup4\n      gt\n      tag_343\n      jumpi\n      dup3\n      swap1\n      sub\n      0x1f\n      and\n      dup3\n      add\n      swap2\n    tag_341:\n      pop\n      pop\n      dup4\n      dup2\n      sub\n      dup3\n      mstore\n      dup5\n      sload\n      0x02\n      0x01\n      dup3\n      and\n      iszero\n      0x0100\n      mul\n      not(0x00)\n      add\n      swap1\n      swap2\n      and\n      div\n      dup1\n      dup3\n      mstore\n      0x20\n      swap1\n      swap2\n      add\n      swap1\n      dup6\n      swap1\n      dup1\n      iszero\n      tag_344\n      jumpi\n      dup1\n      0x1f\n      lt\n      tag_345\n      jumpi\n      0x0100\n      dup1\n      dup4\n      sload\n      div\n      mul\n      dup4\n      mstore\n      swap2\n      0x20\n      add\n      swap2\n      jump(tag_344)\n    tag_345:\n      dup3\n      add\n      swap2\n      swap1\n      0x00\n      mstore\n      keccak256(0x00, 0x20)\n      swap1\n    tag_346:\n      dup2\n      sload\n      dup2\n      mstore\n      swap1\n      0x01\n      add\n      swap1\n      0x20\n      add\n      dup1\n      dup4\n      gt\n      tag_346\n      jumpi\n      dup3\n      swap1\n      sub\n      0x1f\n      and\n      dup3\n      add\n      swap2\n    tag_344:\n      pop\n      pop\n      swap6\n      pop\n      pop\n      pop\n      pop\n      pop\n      pop\n      0x00\n      mload(0x40)\n      dup1\n      dup4\n      sub\n      dup2\n      dup7\n      dup1\n      extcodesize\n      iszero\n        /* \"--CODEGEN--\":5:14   */\n      dup1\n        /* \"--CODEGEN--\":2:4   */\n      iszero\n      tag_347\n      jumpi\n        /* \"--CODEGEN--\":27:28   */\n      0x00\n        /* \"--CODEGEN--\":24:25   */\n      dup1\n        /* \"--CODEGEN--\":17:29   */\n      revert\n        /* \"--CODEGEN--\":2:4   */\n    tag_347:\n        /* \"Vote2.sol\":5713:5780  temp.columnValue(write_entity_addr,description,requirements_key[i]) */\n      pop\n      gas\n      staticcall\n      iszero\n        /* \"--CODEGEN--\":8:17   */\n      dup1\n        /* \"--CODEGEN--\":5:7   */\n      iszero\n      tag_349\n      jumpi\n        /* \"--CODEGEN--\":45:61   */\n      returndatasize\n        /* \"--CODEGEN--\":42:43   */\n      0x00\n        /* \"--CODEGEN--\":39:40   */\n      dup1\n        /* \"--CODEGEN--\":24:62   */\n      returndatacopy\n        /* \"--CODEGEN--\":77:93   */\n      returndatasize\n        /* \"--CODEGEN--\":74:75   */\n      0x00\n        /* \"--CODEGEN--\":67:94   */\n      revert\n        /* \"--CODEGEN--\":5:7   */\n    tag_349:\n        /* \"Vote2.sol\":5713:5780  temp.columnValue(write_entity_addr,description,requirements_key[i]) */\n      pop\n      pop\n      pop\n      pop\n      mload(0x40)\n        /* \"--CODEGEN--\":39:55   */\n      returndatasize\n        /* \"--CODEGEN--\":36:37   */\n      0x00\n        /* \"--CODEGEN--\":17:34   */\n      dup3\n        /* \"--CODEGEN--\":2:56   */\n      returndatacopy\n        /* \"--CODEGEN--\":101:105   */\n      0x1f\n        /* \"Vote2.sol\":5713:5780  temp.columnValue(write_entity_addr,description,requirements_key[i]) */\n      returndatasize\n        /* \"--CODEGEN--\":80:95   */\n      swap1\n      dup2\n      add\n      not(0x1f)\n        /* \"--CODEGEN--\":76:107   */\n      and\n        /* \"--CODEGEN--\":65:108   */\n      dup3\n      add\n        /* \"--CODEGEN--\":120:124   */\n      0x40\n        /* \"--CODEGEN--\":113:133   */\n      mstore\n        /* \"--CODEGEN--\":15:17   */\n      0x20\n        /* \"--CODEGEN--\":7:18   */\n      dup2\n      lt\n        /* \"--CODEGEN--\":4:6   */\n      iszero\n      tag_350\n      jumpi\n        /* \"--CODEGEN--\":31:32   */\n      0x00\n        /* \"--CODEGEN--\":28:29   */\n      dup1\n        /* \"--CODEGEN--\":21:33   */\n      revert\n        /* \"--CODEGEN--\":4:6   */\n    tag_350:\n        /* \"Vote2.sol\":5713:5780  temp.columnValue(write_entity_addr,description,requirements_key[i]) */\n      dup2\n      mload\n      mload(0x40)\n      swap3\n      swap2\n      dup3\n      add\n      swap2\n      swap1\n      dup2\n      swap1\n      dup5\n      shl(0x20, 0x01)\n        /* \"--CODEGEN--\":11:31   */\n      dup3\n      gt\n        /* \"--CODEGEN--\":8:10   */\n      iszero\n      tag_351\n      jumpi\n        /* \"--CODEGEN--\":44:45   */\n      0x00\n        /* \"--CODEGEN--\":41:42   */\n      dup1\n        /* \"--CODEGEN--\":34:46   */\n      revert\n        /* \"--CODEGEN--\":8:10   */\n    tag_351:\n        /* \"--CODEGEN--\":62:83   */\n      swap1\n      dup4\n      add\n      swap1\n        /* \"--CODEGEN--\":123:127   */\n      0x20\n        /* \"--CODEGEN--\":114:128   */\n      dup3\n      add\n        /* \"--CODEGEN--\":138:169   */\n      dup6\n      dup2\n      gt\n        /* \"--CODEGEN--\":135:137   */\n      iszero\n      tag_352\n      jumpi\n        /* \"--CODEGEN--\":182:183   */\n      0x00\n        /* \"--CODEGEN--\":179:180   */\n      dup1\n        /* \"--CODEGEN--\":172:184   */\n      revert\n        /* \"--CODEGEN--\":135:137   */\n    tag_352:\n        /* \"--CODEGEN--\":213:223   */\n      dup3\n      mload\n        /* \"--CODEGEN--\":285:328   */\n      dup2\n      dup2\n      add\n      dup8\n      lt\n      shl(0x20, 0x01)\n        /* \"--CODEGEN--\":244:273   */\n      dup3\n      gt\n        /* \"--CODEGEN--\":233:348   */\n      or\n        /* \"--CODEGEN--\":230:232   */\n      iszero\n      tag_353\n      jumpi\n        /* \"--CODEGEN--\":361:362   */\n      0x00\n        /* \"--CODEGEN--\":358:359   */\n      dup1\n        /* \"--CODEGEN--\":351:363   */\n      revert\n        /* \"--CODEGEN--\":230:232   */\n    tag_353:\n        /* \"--CODEGEN--\":372:397   */\n      dup3\n      mstore\n      pop\n        /* \"Vote2.sol\":5713:5780  temp.columnValue(write_entity_addr,description,requirements_key[i]) */\n      dup2\n      mload\n        /* \"--CODEGEN--\":420:424   */\n      0x20\n        /* \"--CODEGEN--\":411:425   */\n      swap2\n      dup3\n      add\n      swap3\n        /* \"Vote2.sol\":5713:5780  temp.columnValue(write_entity_addr,description,requirements_key[i]) */\n      swap1\n      swap2\n      add\n      swap1\n      dup1\n        /* \"--CODEGEN--\":411:425   */\n      dup4\n        /* \"Vote2.sol\":5713:5780  temp.columnValue(write_entity_addr,description,requirements_key[i]) */\n      dup4\n        /* \"--CODEGEN--\":23:24   */\n      0x00\n        /* \"--CODEGEN--\":8:108   */\n    tag_354:\n        /* \"--CODEGEN--\":33:36   */\n      dup4\n        /* \"--CODEGEN--\":30:31   */\n      dup2\n        /* \"--CODEGEN--\":27:37   */\n      lt\n        /* \"--CODEGEN--\":8:108   */\n      iszero\n      tag_356\n      jumpi\n        /* \"--CODEGEN--\":90:101   */\n      dup2\n      dup2\n      add\n        /* \"--CODEGEN--\":84:102   */\n      mload\n        /* \"--CODEGEN--\":71:82   */\n      dup4\n      dup3\n      add\n        /* \"--CODEGEN--\":64:103   */\n      mstore\n        /* \"--CODEGEN--\":52:54   */\n      0x20\n        /* \"--CODEGEN--\":45:55   */\n      add\n        /* \"--CODEGEN--\":8:108   */\n      jump(tag_354)\n    tag_356:\n        /* \"--CODEGEN--\":12:26   */\n      pop\n        /* \"Vote2.sol\":5713:5780  temp.columnValue(write_entity_addr,description,requirements_key[i]) */\n      pop\n      pop\n      pop\n      swap1\n      pop\n      swap1\n      dup2\n      add\n      swap1\n      0x1f\n      and\n      dup1\n      iszero\n      tag_357\n      jumpi\n      dup1\n      dup3\n      sub\n      dup1\n      mload\n      0x01\n      dup4\n      0x20\n      sub\n      0x0100\n      exp\n      sub\n      not\n      and\n      dup2\n      mstore\n      0x20\n      add\n      swap2\n      pop\n    tag_357:\n      pop\n      0x40\n      mstore\n      pop\n      pop\n      pop\n        /* \"Vote2.sol\":5700:5712  stringToUint */\n      tag_88\n        /* \"Vote2.sol\":5700:5781  stringToUint(temp.columnValue(write_entity_addr,description,requirements_key[i])) */\n      jump\t// in\n    tag_338:\n        /* \"Vote2.sol\":5687:5781  uint temp2 = stringToUint(temp.columnValue(write_entity_addr,description,requirements_key[i])) */\n      swap1\n      pop\n        /* \"Vote2.sol\":5820:5825  temp2 */\n      dup1\n        /* \"Vote2.sol\":5814:5819  temp1 */\n      dup3\n        /* \"Vote2.sol\":5814:5825  temp1>temp2 */\n      gt\n        /* \"Vote2.sol\":5811:5881  if(temp1>temp2){\r... */\n      iszero\n      tag_358\n      jumpi\n        /* \"Vote2.sol\":5856:5861  false */\n      0x00\n        /* \"Vote2.sol\":5849:5861  return false */\n      swap6\n      pop\n      pop\n      pop\n      pop\n      pop\n      pop\n      jump(tag_256)\n        /* \"Vote2.sol\":5811:5881  if(temp1>temp2){\r... */\n    tag_358:\n        /* \"Vote2.sol\":5506:6305  if(requirements[requirements_key[i]].rq_type == 1){////\r... */\n      pop\n      pop\n      jump(tag_365)\n    tag_328:\n        /* \"Vote2.sol\":5918:5930  requirements */\n      0x0f\n        /* \"Vote2.sol\":5931:5947  requirements_key */\n      0x10\n        /* \"Vote2.sol\":5948:5949  i */\n      dup3\n        /* \"Vote2.sol\":5931:5950  requirements_key[i] */\n      dup2\n      sload\n      dup2\n      lt\n      tag_360\n      jumpi\n      invalid\n    tag_360:\n      swap1\n      0x00\n      mstore\n      keccak256(0x00, 0x20)\n      add\n        /* \"Vote2.sol\":5918:5951  requirements[requirements_key[i]] */\n      mload(0x40)\n      dup1\n      dup3\n      dup1\n      sload\n      0x01\n      dup2\n      0x01\n      and\n      iszero\n      0x0100\n      mul\n      sub\n      and\n      0x02\n      swap1\n      div\n      dup1\n      iszero\n      tag_362\n      jumpi\n      dup1\n      0x1f\n      lt\n      tag_363\n      jumpi\n      0x0100\n      dup1\n      dup4\n      sload\n      div\n      mul\n      dup4\n      mstore\n      swap2\n      dup3\n      add\n      swap2\n      jump(tag_362)\n    tag_363:\n      dup3\n      add\n      swap2\n      swap1\n      0x00\n      mstore\n      keccak256(0x00, 0x20)\n      swap1\n    tag_364:\n      dup2\n      sload\n      dup2\n      mstore\n      swap1\n      0x01\n      add\n      swap1\n      0x20\n      add\n      dup1\n      dup4\n      gt\n      tag_364\n      jumpi\n    tag_362:\n      pop\n      pop\n      swap2\n      pop\n      pop\n      swap1\n      dup2\n      mstore\n      0x20\n      add\n      mload(0x40)\n      dup1\n      swap2\n      sub\n      swap1\n      keccak256\n        /* \"Vote2.sol\":5918:5959  requirements[requirements_key[i]].rq_type */\n      0x01\n      add\n      sload\n        /* \"Vote2.sol\":5963:5964  2 */\n      0x02\n        /* \"Vote2.sol\":5918:5964  requirements[requirements_key[i]].rq_type == 2 */\n      eq\n        /* \"Vote2.sol\":5915:6305  if(requirements[requirements_key[i]].rq_type == 2){////\r... */\n      iszero\n      tag_365\n      jumpi\n        /* \"Vote2.sol\":5997:6007  uint temp1 */\n      0x00\n        /* \"Vote2.sol\":6010:6069  stringToUint(requirements[requirements_key[i]].requirement) */\n      tag_366\n        /* \"Vote2.sol\":6023:6035  requirements */\n      0x0f\n        /* \"Vote2.sol\":6036:6052  requirements_key */\n      0x10\n        /* \"Vote2.sol\":6053:6054  i */\n      dup5\n        /* \"Vote2.sol\":6036:6055  requirements_key[i] */\n      dup2\n      sload\n      dup2\n      lt\n      tag_330\n      jumpi\n      invalid\n        /* \"Vote2.sol\":6010:6069  stringToUint(requirements[requirements_key[i]].requirement) */\n    tag_366:\n        /* \"Vote2.sol\":6139:6156  write_entity_addr */\n      sload(0x0d)\n        /* \"Vote2.sol\":6169:6185  requirements_key */\n      0x10\n        /* \"Vote2.sol\":6169:6188  requirements_key[i] */\n      dup1\n      sload\n        /* \"Vote2.sol\":5997:6069  uint temp1 = stringToUint(requirements[requirements_key[i]].requirement) */\n      swap3\n      swap4\n      pop\n        /* \"Vote2.sol\":6096:6106  uint temp2 */\n      0x00\n      swap3\n        /* \"Vote2.sol\":6109:6190  stringToUint(temp.columnValue(write_entity_addr,description,requirements_key[i])) */\n      tag_375\n      swap3\n      sub(shl(0xa0, 0x01), 0x01)\n        /* \"Vote2.sol\":6122:6138  temp.columnValue */\n      dup10\n      dup2\n      and\n      swap4\n      0x8cba76b1\n      swap4\n        /* \"Vote2.sol\":6139:6156  write_entity_addr */\n      swap2\n      swap1\n      swap3\n      and\n      swap2\n        /* \"Vote2.sol\":6157:6168  description */\n      0x0e\n      swap2\n        /* \"Vote2.sol\":6186:6187  i */\n      dup10\n      swap1\n        /* \"Vote2.sol\":6169:6188  requirements_key[i] */\n      dup2\n      lt\n      tag_339\n      jumpi\n      invalid\n        /* \"Vote2.sol\":6109:6190  stringToUint(temp.columnValue(write_entity_addr,description,requirements_key[i])) */\n    tag_375:\n        /* \"Vote2.sol\":6096:6190  uint temp2 = stringToUint(temp.columnValue(write_entity_addr,description,requirements_key[i])) */\n      swap1\n      pop\n        /* \"Vote2.sol\":6229:6234  temp2 */\n      dup1\n        /* \"Vote2.sol\":6223:6228  temp1 */\n      dup3\n        /* \"Vote2.sol\":6223:6234  temp1<temp2 */\n      lt\n        /* \"Vote2.sol\":6220:6290  if(temp1<temp2){\r... */\n      iszero\n      tag_395\n      jumpi\n        /* \"Vote2.sol\":6265:6270  false */\n      0x00\n        /* \"Vote2.sol\":6258:6270  return false */\n      swap6\n      pop\n      pop\n      pop\n      pop\n      pop\n      pop\n      jump(tag_256)\n        /* \"Vote2.sol\":6220:6290  if(temp1<temp2){\r... */\n    tag_395:\n        /* \"Vote2.sol\":5915:6305  if(requirements[requirements_key[i]].rq_type == 2){////\r... */\n      pop\n      pop\n    tag_365:\n        /* \"Vote2.sol\":5138:5141  i++ */\n      0x01\n      add\n        /* \"Vote2.sol\":5097:6316  for(uint i = 0;i<requirements_key.length;i++){\r... */\n      jump(tag_282)\n    tag_283:\n      pop\n        /* \"Vote2.sol\":6333:6337  true */\n      0x01\n      swap5\n        /* \"Vote2.sol\":4879:6345  function Validation(address e_addr)public view returns (bool){\r... */\n      swap4\n      pop\n      pop\n      pop\n      pop\n      jump\t// out\n        /* \"Vote2.sol\":6351:6540  function Add(uint a,uint b,uint c,uint d)public pure returns(uint256 ECC_checked_x,uint256 ECC_checked_y){\r... */\n    tag_105:\n        /* \"Vote2.sol\":6412:6433  uint256 ECC_checked_x */\n      0x00\n      dup1\n        /* \"Vote2.sol\":6498:6532  EllipticCurve.ecAdd(a,b,c,d,AA,PP) */\n      tag_397\n        /* \"Vote2.sol\":6518:6519  a */\n      dup7\n        /* \"Vote2.sol\":6520:6521  b */\n      dup7\n        /* \"Vote2.sol\":6522:6523  c */\n      dup7\n        /* \"Vote2.sol\":6524:6525  d */\n      dup7\n        /* \"Vote2.sol\":6412:6433  uint256 ECC_checked_x */\n      dup6\n      not(0x01000003d0)\n        /* \"Vote2.sol\":6498:6517  EllipticCurve.ecAdd */\n      tag_253\n        /* \"Vote2.sol\":6498:6532  EllipticCurve.ecAdd(a,b,c,d,AA,PP) */\n      jump\t// in\n    tag_397:\n        /* \"Vote2.sol\":6466:6532  (ECC_checked_x,ECC_checked_y) = EllipticCurve.ecAdd(a,b,c,d,AA,PP) */\n      swap1\n      swap8\n      swap1\n      swap7\n      pop\n        /* \"Vote2.sol\":6351:6540  function Add(uint a,uint b,uint c,uint d)public pure returns(uint256 ECC_checked_x,uint256 ECC_checked_y){\r... */\n      swap5\n      pop\n      pop\n      pop\n      pop\n      pop\n      jump\t// out\n        /* \"Vote2.sol\":1949:1967  int[]public result */\n    tag_108:\n      0x11\n      dup2\n      dup2\n      sload\n      dup2\n      lt\n      tag_398\n      jumpi\n      invalid\n    tag_398:\n      0x00\n      swap2\n      dup3\n      mstore\n      0x20\n      swap1\n      swap2\n      keccak256\n      add\n      sload\n      swap1\n      pop\n      dup2\n      jump\t// out\n        /* \"Vote2.sol\":2643:3167  function blockOrTimeReached(uint i)public view returns(bool){\r... */\n    tag_111:\n        /* \"Vote2.sol\":2698:2702  bool */\n      0x00\n        /* \"Vote2.sol\":2717:2723  i == 0 */\n      dup2\n        /* \"Vote2.sol\":2714:3159  if(i == 0){//////////////Setting\r... */\n      tag_401\n      jumpi\n        /* \"Vote2.sol\":2776:2781  times */\n      0x09\n        /* \"Vote2.sol\":2776:2784  times[0] */\n      sload\n        /* \"Vote2.sol\":2769:2773  1000 */\n      0x03e8\n        /* \"Vote2.sol\":2763:2766  now */\n      timestamp\n        /* \"Vote2.sol\":2763:2773  now * 1000 */\n      mul\n        /* \"Vote2.sol\":2763:2784  now * 1000 < times[0] */\n      lt\n        /* \"Vote2.sol\":2760:2828  if(now * 1000 < times[0])return true;\r... */\n      iszero\n      tag_404\n      jumpi\n      pop\n        /* \"Vote2.sol\":2792:2796  true */\n      0x01\n        /* \"Vote2.sol\":2785:2796  return true */\n      jump(tag_256)\n        /* \"Vote2.sol\":2760:2828  if(now * 1000 < times[0])return true;\r... */\n    tag_404:\n      pop\n        /* \"Vote2.sol\":2823:2828  false */\n      0x00\n        /* \"Vote2.sol\":2816:2828  return false */\n      jump(tag_256)\n        /* \"Vote2.sol\":2714:3159  if(i == 0){//////////////Setting\r... */\n    tag_401:\n        /* \"Vote2.sol\":2858:2859  i */\n      dup2\n        /* \"Vote2.sol\":2863:2864  1 */\n      0x01\n        /* \"Vote2.sol\":2858:2864  i == 1 */\n      eq\n        /* \"Vote2.sol\":2855:3159  if(i == 1){/////////Vote\r... */\n      iszero\n      tag_407\n      jumpi\n        /* \"Vote2.sol\":2910:2918  times[1] */\n      sload(0x0a)\n        /* \"Vote2.sol\":2903:2907  1000 */\n      0x03e8\n        /* \"Vote2.sol\":2897:2900  now */\n      timestamp\n        /* \"Vote2.sol\":2897:2907  now * 1000 */\n      mul\n        /* \"Vote2.sol\":2897:2918  now * 1000 < times[1] */\n      lt\n        /* \"Vote2.sol\":2896:2943  (now * 1000 < times[1])&& (now *1000> times[0]) */\n      dup1\n      iszero\n      tag_410\n      jumpi\n      pop\n        /* \"Vote2.sol\":2934:2939  times */\n      0x09\n        /* \"Vote2.sol\":2940:2941  0 */\n      0x00\n        /* \"Vote2.sol\":2934:2942  times[0] */\n    tag_411:\n      add\n      sload\n        /* \"Vote2.sol\":2923:2926  now */\n      timestamp\n        /* \"Vote2.sol\":2928:2932  1000 */\n      0x03e8\n        /* \"Vote2.sol\":2923:2932  now *1000 */\n      mul\n        /* \"Vote2.sol\":2923:2942  now *1000> times[0] */\n      gt\n        /* \"Vote2.sol\":2896:2943  (now * 1000 < times[1])&& (now *1000> times[0]) */\n    tag_410:\n        /* \"Vote2.sol\":2893:2987  if((now * 1000 < times[1])&& (now *1000> times[0]))return true;\r... */\n      iszero\n      tag_404\n      jumpi\n      pop\n        /* \"Vote2.sol\":2951:2955  true */\n      0x01\n        /* \"Vote2.sol\":2944:2955  return true */\n      jump(tag_256)\n        /* \"Vote2.sol\":2855:3159  if(i == 1){/////////Vote\r... */\n    tag_407:\n        /* \"Vote2.sol\":3017:3018  i */\n      dup2\n        /* \"Vote2.sol\":3022:3023  2 */\n      0x02\n        /* \"Vote2.sol\":3017:3023  i == 2 */\n      eq\n        /* \"Vote2.sol\":3014:3159  if(i == 2){/////////Tally\r... */\n      iszero\n      tag_404\n      jumpi\n        /* \"Vote2.sol\":3068:3073  times */\n      0x09\n        /* \"Vote2.sol\":3074:3075  1 */\n      0x01\n        /* \"Vote2.sol\":3068:3076  times[1] */\n      jump(tag_411)\n        /* \"Vote2.sol\":3397:3574  function set_up_options(string memory o)public isOwner{\r... */\n    tag_117:\n        /* \"Vote2.sol\":2560:2565  owner */\n      sload(0x05)\n        /* \"Vote2.sol\":2585:2610  stemp.isOwner(msg.sender) */\n      0x40\n      dup1\n      mload\n      shl(0xe1, 0x17aa5fb7)\n      dup2\n      mstore\n        /* \"Vote2.sol\":2599:2609  msg.sender */\n      caller\n        /* \"Vote2.sol\":2585:2610  stemp.isOwner(msg.sender) */\n      0x04\n      dup3\n      add\n      mstore\n      swap1\n      mload\n      sub(shl(0xa0, 0x01), 0x01)\n        /* \"Vote2.sol\":2560:2565  owner */\n      swap1\n      swap3\n      and\n      swap2\n      dup3\n      swap2\n        /* \"Vote2.sol\":2585:2598  stemp.isOwner */\n      0x2f54bf6e\n      swap2\n        /* \"Vote2.sol\":2585:2610  stemp.isOwner(msg.sender) */\n      0x24\n      dup1\n      dup4\n      add\n      swap3\n      0x20\n      swap3\n      swap2\n      swap1\n      dup3\n      swap1\n      sub\n      add\n      dup2\n        /* \"Vote2.sol\":2560:2565  owner */\n      dup7\n        /* \"Vote2.sol\":2585:2610  stemp.isOwner(msg.sender) */\n      dup1\n      extcodesize\n      iszero\n        /* \"--CODEGEN--\":2:4   */\n      dup1\n      iszero\n      tag_423\n      jumpi\n        /* \"--CODEGEN--\":27:28   */\n      0x00\n        /* \"--CODEGEN--\":24:25   */\n      dup1\n        /* \"--CODEGEN--\":17:29   */\n      revert\n        /* \"--CODEGEN--\":2:4   */\n    tag_423:\n        /* \"Vote2.sol\":2585:2610  stemp.isOwner(msg.sender) */\n      pop\n      gas\n      staticcall\n      iszero\n        /* \"--CODEGEN--\":8:17   */\n      dup1\n        /* \"--CODEGEN--\":5:7   */\n      iszero\n      tag_425\n      jumpi\n        /* \"--CODEGEN--\":45:61   */\n      returndatasize\n        /* \"--CODEGEN--\":42:43   */\n      0x00\n        /* \"--CODEGEN--\":39:40   */\n      dup1\n        /* \"--CODEGEN--\":24:62   */\n      returndatacopy\n        /* \"--CODEGEN--\":77:93   */\n      returndatasize\n        /* \"--CODEGEN--\":74:75   */\n      0x00\n        /* \"--CODEGEN--\":67:94   */\n      revert\n        /* \"--CODEGEN--\":5:7   */\n    tag_425:\n        /* \"Vote2.sol\":2585:2610  stemp.isOwner(msg.sender) */\n      pop\n      pop\n      pop\n      pop\n      mload(0x40)\n      returndatasize\n        /* \"--CODEGEN--\":15:17   */\n      0x20\n        /* \"--CODEGEN--\":10:13   */\n      dup2\n        /* \"--CODEGEN--\":7:18   */\n      lt\n        /* \"--CODEGEN--\":4:6   */\n      iszero\n      tag_426\n      jumpi\n        /* \"--CODEGEN--\":31:32   */\n      0x00\n        /* \"--CODEGEN--\":28:29   */\n      dup1\n        /* \"--CODEGEN--\":21:33   */\n      revert\n        /* \"--CODEGEN--\":4:6   */\n    tag_426:\n      pop\n        /* \"Vote2.sol\":2585:2610  stemp.isOwner(msg.sender) */\n      mload\n        /* \"Vote2.sol\":2577:2611  require(stemp.isOwner(msg.sender)) */\n      tag_427\n      jumpi\n        /* \"--CODEGEN--\":12:13   */\n      0x00\n        /* \"--CODEGEN--\":9:10   */\n      dup1\n        /* \"--CODEGEN--\":2:14   */\n      revert\n        /* \"Vote2.sol\":2577:2611  require(stemp.isOwner(msg.sender)) */\n    tag_427:\n        /* \"Vote2.sol\":3471:3476  isSet */\n      sload(0x14)\n      0x0100\n      swap1\n      div\n      0xff\n      and\n        /* \"Vote2.sol\":3470:3476  !isSet */\n      iszero\n        /* \"Vote2.sol\":3462:3491  require(!isSet,\"Can not Set\") */\n      tag_429\n      jumpi\n      0x40\n      dup1\n      mload\n      shl(0xe5, 0x461bcd)\n      dup2\n      mstore\n      0x20\n      0x04\n      dup3\n      add\n      mstore\n      0x0b\n      0x24\n      dup3\n      add\n      mstore\n      shl(0xaa, 0x10d85b881b9bdd0814d95d)\n      0x44\n      dup3\n      add\n      mstore\n      swap1\n      mload\n      swap1\n      dup2\n      swap1\n      sub\n      0x64\n      add\n      swap1\n      revert\n    tag_429:\n        /* \"Vote2.sol\":3502:3509  options */\n      0x07\n        /* \"--CODEGEN--\":27:37   */\n      dup1\n      sload\n        /* \"--CODEGEN--\":39:40   */\n      0x01\n        /* \"--CODEGEN--\":23:41   */\n      dup2\n      add\n        /* \"--CODEGEN--\":45:68   */\n      dup3\n      sstore\n      0x00\n        /* \"Vote2.sol\":3502:3517  options.push(o) */\n      swap2\n      swap1\n      swap2\n      mstore\n      dup3\n      mload\n      tag_431\n      swap2\n      0xa66cc928b5edb82af9bd49922954155ab7b0942694bea4ce44661d9a8736c688\n      add\n      swap1\n      0x20\n      dup6\n      add\n      swap1\n      tag_432\n      jump\t// in\n    tag_431:\n      pop\n      pop\n        /* \"Vote2.sol\":3528:3539  options_num */\n      0x08\n        /* \"Vote2.sol\":3528:3541  options_num++ */\n      dup1\n      sload\n      0x01\n      swap1\n      dup2\n      add\n      swap1\n      swap2\n      sstore\n        /* \"Vote2.sol\":3552:3558  result */\n      0x11\n        /* \"--CODEGEN--\":27:37   */\n      dup1\n      sload\n        /* \"--CODEGEN--\":23:41   */\n      swap2\n      dup3\n      add\n        /* \"--CODEGEN--\":45:68   */\n      dup2\n      sstore\n        /* \"Vote2.sol\":3528:3539  options_num */\n      0x00\n        /* \"Vote2.sol\":3552:3566  result.push(0) */\n      swap1\n      dup2\n      mstore\n      0x31ecc21a745e3968a04e9570e4425bc18fa8019c68028196b546d1669c200c68\n      swap1\n      swap2\n      add\n      sstore\n      pop\n        /* \"Vote2.sol\":3397:3574  function set_up_options(string memory o)public isOwner{\r... */\n      jump\t// out\n        /* \"Vote2.sol\":1104:1127  string[] public options */\n    tag_120:\n      0x07\n      dup2\n      dup2\n      sload\n      dup2\n      lt\n      tag_434\n      jumpi\n      invalid\n    tag_434:\n      0x00\n      swap2\n      dup3\n      mstore\n      0x20\n      swap2\n      dup3\n      swap1\n      keccak256\n      add\n      dup1\n      sload\n      0x40\n      dup1\n      mload\n      0x02\n      0x01\n      dup5\n      and\n      iszero\n      0x0100\n      mul\n      not(0x00)\n      add\n      swap1\n      swap4\n      and\n      swap3\n      swap1\n      swap3\n      div\n      0x1f\n      dup2\n      add\n      dup6\n      swap1\n      div\n      dup6\n      mul\n      dup4\n      add\n      dup6\n      add\n      swap1\n      swap2\n      mstore\n      dup1\n      dup3\n      mstore\n      swap1\n      swap4\n      pop\n      swap1\n      swap2\n      dup4\n      add\n      dup3\n      dup3\n      dup1\n      iszero\n      tag_237\n      jumpi\n      dup1\n      0x1f\n      lt\n      tag_238\n      jumpi\n      0x0100\n      dup1\n      dup4\n      sload\n      div\n      mul\n      dup4\n      mstore\n      swap2\n      0x20\n      add\n      swap2\n      jump(tag_237)\n        /* \"Vote2.sol\":844:867  uint256 public Vote_sum */\n    tag_126:\n      sload(0x00)\n      dup2\n      jump\t// out\n        /* \"Vote2.sol\":9391:9772  function checkECCMath(uint s)public view returns(bool){\r... */\n    tag_129:\n        /* \"Vote2.sol\":9440:9444  bool */\n      0x00\n        /* \"Vote2.sol\":9456:9477  uint256 ECC_checked_x */\n      dup1\n        /* \"Vote2.sol\":9488:9509  uint256 ECC_checked_y */\n      0x00\n        /* \"Vote2.sol\":9552:9588  EllipticCurve.ecMul(s+1,GX,GY,AA,PP) */\n      tag_440\n        /* \"Vote2.sol\":9572:9573  s */\n      dup5\n        /* \"Vote2.sol\":9574:9575  1 */\n      0x01\n        /* \"Vote2.sol\":9572:9575  s+1 */\n      add\n      0x00\n      dup1\n      mload\n      0x20\n      data_bd48405ed3251dbb9f783c5a51cbf46016252921b268ebd47d0a0389f7b93cc0\n      dup4\n      codecopy\n      dup2\n      mload\n      swap2\n      mstore\n      0x00\n      dup1\n      mload\n      0x20\n      data_1daeff61fd986edf5d823d715532dcfe6ec9ea427c85800271e0d847a34dbe18\n      dup4\n      codecopy\n      dup2\n      mload\n      swap2\n      mstore\n      0x00\n      not(0x01000003d0)\n        /* \"Vote2.sol\":9552:9571  EllipticCurve.ecMul */\n      tag_251\n        /* \"Vote2.sol\":9552:9588  EllipticCurve.ecMul(s+1,GX,GY,AA,PP) */\n      jump\t// in\n    tag_440:\n        /* \"Vote2.sol\":9620:9634  Vote_sum_ECC_x */\n      sload(0x01)\n        /* \"Vote2.sol\":9520:9588  (ECC_checked_x,ECC_checked_y) = EllipticCurve.ecMul(s+1,GX,GY,AA,PP) */\n      swap2\n      swap4\n      pop\n      swap2\n      pop\n        /* \"Vote2.sol\":9603:9634  ECC_checked_x == Vote_sum_ECC_x */\n      dup3\n      eq\n        /* \"Vote2.sol\":9602:9672  (ECC_checked_x == Vote_sum_ECC_x) && (ECC_checked_y == Vote_sum_ECC_y) */\n      dup1\n      iszero\n      tag_441\n      jumpi\n      pop\n        /* \"Vote2.sol\":9657:9671  Vote_sum_ECC_y */\n      sload(0x02)\n        /* \"Vote2.sol\":9640:9653  ECC_checked_y */\n      dup2\n        /* \"Vote2.sol\":9640:9671  ECC_checked_y == Vote_sum_ECC_y */\n      eq\n        /* \"Vote2.sol\":9602:9672  (ECC_checked_x == Vote_sum_ECC_x) && (ECC_checked_y == Vote_sum_ECC_y) */\n    tag_441:\n        /* \"Vote2.sol\":9599:9765  if((ECC_checked_x == Vote_sum_ECC_x) && (ECC_checked_y == Vote_sum_ECC_y)){\r... */\n      iszero\n      tag_442\n      jumpi\n        /* \"Vote2.sol\":9695:9699  true */\n      0x01\n        /* \"Vote2.sol\":9688:9699  return true */\n      swap3\n      pop\n      pop\n      pop\n      jump(tag_256)\n        /* \"Vote2.sol\":9599:9765  if((ECC_checked_x == Vote_sum_ECC_x) && (ECC_checked_y == Vote_sum_ECC_y)){\r... */\n    tag_442:\n        /* \"Vote2.sol\":9748:9753  false */\n      0x00\n        /* \"Vote2.sol\":9741:9753  return false */\n      swap3\n      pop\n      pop\n      pop\n      jump(tag_256)\n        /* \"Vote2.sol\":960:983  uint256 public exponent */\n    tag_131:\n      sload(0x03)\n      dup2\n      jump\t// out\n        /* \"Vote2.sol\":693:723  uint256 public constant BB = 7 */\n    tag_133:\n        /* \"Vote2.sol\":722:723  7 */\n      0x07\n        /* \"Vote2.sol\":693:723  uint256 public constant BB = 7 */\n      dup2\n      jump\t// out\n        /* \"Vote2.sol\":992:1008  uint256 public m */\n    tag_135:\n      sload(0x04)\n      dup2\n      jump\t// out\n        /* \"Vote2.sol\":10813:10902  function return_result()public view returns(int[] memory){\r... */\n    tag_137:\n        /* \"Vote2.sol\":10857:10869  int[] memory */\n      0x60\n        /* \"Vote2.sol\":10888:10894  result */\n      0x11\n        /* \"Vote2.sol\":10881:10894  return result */\n      dup1\n      sload\n      dup1\n      0x20\n      mul\n      0x20\n      add\n      mload(0x40)\n      swap1\n      dup2\n      add\n      0x40\n      mstore\n      dup1\n      swap3\n      swap2\n      swap1\n      dup2\n      dup2\n      mstore\n      0x20\n      add\n      dup3\n      dup1\n      sload\n      dup1\n      iszero\n      tag_445\n      jumpi\n      0x20\n      mul\n      dup3\n      add\n      swap2\n      swap1\n      0x00\n      mstore\n      keccak256(0x00, 0x20)\n      swap1\n    tag_446:\n      dup2\n      sload\n      dup2\n      mstore\n      0x20\n      add\n      swap1\n      0x01\n      add\n      swap1\n      dup1\n      dup4\n      gt\n      tag_446\n      jumpi\n    tag_445:\n      pop\n      pop\n      pop\n      pop\n      pop\n      swap1\n      pop\n        /* \"Vote2.sol\":10813:10902  function return_result()public view returns(int[] memory){\r... */\n    tag_444:\n      swap1\n      jump\t// out\n        /* \"Vote2.sol\":1778:1803  string public description */\n    tag_142:\n      0x0e\n      dup1\n      sload\n      0x40\n      dup1\n      mload\n      0x20\n      0x02\n      0x01\n      dup6\n      and\n      iszero\n      0x0100\n      mul\n      not(0x00)\n      add\n      swap1\n      swap5\n      and\n      swap4\n      swap1\n      swap4\n      div\n      0x1f\n      dup2\n      add\n      dup5\n      swap1\n      div\n      dup5\n      mul\n      dup3\n      add\n      dup5\n      add\n      swap1\n      swap3\n      mstore\n      dup2\n      dup2\n      mstore\n      swap3\n      swap2\n      dup4\n      add\n      dup3\n      dup3\n      dup1\n      iszero\n      tag_237\n      jumpi\n      dup1\n      0x1f\n      lt\n      tag_238\n      jumpi\n      0x0100\n      dup1\n      dup4\n      sload\n      div\n      mul\n      dup4\n      mstore\n      swap2\n      0x20\n      add\n      swap2\n      jump(tag_237)\n        /* \"Vote2.sol\":10908:11035  function return_requirements_key(uint index)public view returns(string memory){\r... */\n    tag_149:\n        /* \"Vote2.sol\":10972:10985  string memory */\n      0x60\n        /* \"Vote2.sol\":11004:11020  requirements_key */\n      0x10\n        /* \"Vote2.sol\":11021:11026  index */\n      dup3\n        /* \"Vote2.sol\":11004:11027  requirements_key[index] */\n      dup2\n      sload\n      dup2\n      lt\n      tag_451\n      jumpi\n      invalid\n    tag_451:\n      0x00\n      swap2\n      dup3\n      mstore\n      0x20\n      swap2\n      dup3\n      swap1\n      keccak256\n      add\n        /* \"Vote2.sol\":10997:11027  return requirements_key[index] */\n      dup1\n      sload\n      0x40\n      dup1\n      mload\n      0x02\n      0x01\n      dup5\n      and\n      iszero\n      0x0100\n      mul\n      not(0x00)\n      add\n      swap1\n      swap4\n      and\n      swap3\n      swap1\n      swap3\n      div\n      0x1f\n      dup2\n      add\n      dup6\n      swap1\n      div\n      dup6\n      mul\n      dup4\n      add\n      dup6\n      add\n      swap1\n      swap2\n      mstore\n      dup1\n      dup3\n      mstore\n      swap1\n      swap3\n      dup4\n      add\n        /* \"Vote2.sol\":11004:11027  requirements_key[index] */\n      dup3\n        /* \"Vote2.sol\":10997:11027  return requirements_key[index] */\n      dup3\n      dup1\n      iszero\n      tag_260\n      jumpi\n      dup1\n      0x1f\n      lt\n      tag_261\n      jumpi\n      0x0100\n      dup1\n      dup4\n      sload\n      div\n      mul\n      dup4\n      mstore\n      swap2\n      0x20\n      add\n      swap2\n      jump(tag_260)\n        /* \"Vote2.sol\":550:645  uint256 public constant GY = 0x483ADA7726A3C4655DA4FBFC0E1108A8FD17B448A68554199C47D08FFB10D4B8 */\n    tag_155:\n      0x00\n      dup1\n      mload\n      0x20\n      data_1daeff61fd986edf5d823d715532dcfe6ec9ea427c85800271e0d847a34dbe18\n      dup4\n      codecopy\n      dup2\n      mload\n      swap2\n      mstore\n      dup2\n      jump\t// out\n        /* \"Vote2.sol\":4355:4473  function SetFinish()public isOwner{\r... */\n    tag_157:\n        /* \"Vote2.sol\":2560:2565  owner */\n      sload(0x05)\n        /* \"Vote2.sol\":2585:2610  stemp.isOwner(msg.sender) */\n      0x40\n      dup1\n      mload\n      shl(0xe1, 0x17aa5fb7)\n      dup2\n      mstore\n        /* \"Vote2.sol\":2599:2609  msg.sender */\n      caller\n        /* \"Vote2.sol\":2585:2610  stemp.isOwner(msg.sender) */\n      0x04\n      dup3\n      add\n      mstore\n      swap1\n      mload\n      sub(shl(0xa0, 0x01), 0x01)\n        /* \"Vote2.sol\":2560:2565  owner */\n      swap1\n      swap3\n      and\n      swap2\n      dup3\n      swap2\n        /* \"Vote2.sol\":2585:2598  stemp.isOwner */\n      0x2f54bf6e\n      swap2\n        /* \"Vote2.sol\":2585:2610  stemp.isOwner(msg.sender) */\n      0x24\n      dup1\n      dup4\n      add\n      swap3\n      0x20\n      swap3\n      swap2\n      swap1\n      dup3\n      swap1\n      sub\n      add\n      dup2\n        /* \"Vote2.sol\":2560:2565  owner */\n      dup7\n        /* \"Vote2.sol\":2585:2610  stemp.isOwner(msg.sender) */\n      dup1\n      extcodesize\n      iszero\n        /* \"--CODEGEN--\":2:4   */\n      dup1\n      iszero\n      tag_457\n      jumpi\n        /* \"--CODEGEN--\":27:28   */\n      0x00\n        /* \"--CODEGEN--\":24:25   */\n      dup1\n        /* \"--CODEGEN--\":17:29   */\n      revert\n        /* \"--CODEGEN--\":2:4   */\n    tag_457:\n        /* \"Vote2.sol\":2585:2610  stemp.isOwner(msg.sender) */\n      pop\n      gas\n      staticcall\n      iszero\n        /* \"--CODEGEN--\":8:17   */\n      dup1\n        /* \"--CODEGEN--\":5:7   */\n      iszero\n      tag_459\n      jumpi\n        /* \"--CODEGEN--\":45:61   */\n      returndatasize\n        /* \"--CODEGEN--\":42:43   */\n      0x00\n        /* \"--CODEGEN--\":39:40   */\n      dup1\n        /* \"--CODEGEN--\":24:62   */\n      returndatacopy\n        /* \"--CODEGEN--\":77:93   */\n      returndatasize\n        /* \"--CODEGEN--\":74:75   */\n      0x00\n        /* \"--CODEGEN--\":67:94   */\n      revert\n        /* \"--CODEGEN--\":5:7   */\n    tag_459:\n        /* \"Vote2.sol\":2585:2610  stemp.isOwner(msg.sender) */\n      pop\n      pop\n      pop\n      pop\n      mload(0x40)\n      returndatasize\n        /* \"--CODEGEN--\":15:17   */\n      0x20\n        /* \"--CODEGEN--\":10:13   */\n      dup2\n        /* \"--CODEGEN--\":7:18   */\n      lt\n        /* \"--CODEGEN--\":4:6   */\n      iszero\n      tag_460\n      jumpi\n        /* \"--CODEGEN--\":31:32   */\n      0x00\n        /* \"--CODEGEN--\":28:29   */\n      dup1\n        /* \"--CODEGEN--\":21:33   */\n      revert\n        /* \"--CODEGEN--\":4:6   */\n    tag_460:\n      pop\n        /* \"Vote2.sol\":2585:2610  stemp.isOwner(msg.sender) */\n      mload\n        /* \"Vote2.sol\":2577:2611  require(stemp.isOwner(msg.sender)) */\n      tag_461\n      jumpi\n        /* \"--CODEGEN--\":12:13   */\n      0x00\n        /* \"--CODEGEN--\":9:10   */\n      dup1\n        /* \"--CODEGEN--\":2:14   */\n      revert\n        /* \"Vote2.sol\":2577:2611  require(stemp.isOwner(msg.sender)) */\n    tag_461:\n        /* \"Vote2.sol\":4409:4414  isSet */\n      sload(0x14)\n      0x0100\n      swap1\n      div\n      0xff\n      and\n        /* \"Vote2.sol\":4408:4414  !isSet */\n      iszero\n        /* \"Vote2.sol\":4400:4442  require(!isSet,\"Set should have finished\") */\n      tag_463\n      jumpi\n      0x40\n      dup1\n      mload\n      shl(0xe5, 0x461bcd)\n      dup2\n      mstore\n      0x20\n      0x04\n      dup3\n      add\n      mstore\n      0x18\n      0x24\n      dup3\n      add\n      mstore\n      shl(0x42, 0x14d95d081cda1bdd5b19081a185d9948199a5b9a5cda1959)\n      0x44\n      dup3\n      add\n      mstore\n      swap1\n      mload\n      swap1\n      dup2\n      swap1\n      sub\n      0x64\n      add\n      swap1\n      revert\n    tag_463:\n      pop\n        /* \"Vote2.sol\":4453:4458  isSet */\n      0x14\n        /* \"Vote2.sol\":4453:4465  isSet = true */\n      dup1\n      sload\n      not(0xff00)\n      and\n      0x0100\n      or\n      swap1\n      sstore\n        /* \"Vote2.sol\":4355:4473  function SetFinish()public isOwner{\r... */\n      jump\t// out\n        /* \"Vote2.sol\":1023:1043  address public owner */\n    tag_159:\n      and(sub(shl(0xa0, 0x01), 0x01), sload(0x05))\n      dup2\n      jump\t// out\n        /* \"Vote2.sol\":654:684  uint256 public constant AA = 0 */\n    tag_161:\n        /* \"Vote2.sol\":683:684  0 */\n      0x00\n        /* \"Vote2.sol\":654:684  uint256 public constant AA = 0 */\n      dup2\n      jump\t// out\n        /* \"Vote2.sol\":876:905  uint256 public Vote_sum_ECC_x */\n    tag_163:\n      sload(0x01)\n      dup2\n      jump\t// out\n        /* \"Vote2.sol\":11324:11435  function return_requirements_length()public view returns(uint){\r... */\n    tag_165:\n        /* \"Vote2.sol\":11404:11420  requirements_key */\n      0x10\n        /* \"Vote2.sol\":11404:11427  requirements_key.length */\n      sload\n        /* \"Vote2.sol\":11324:11435  function return_requirements_length()public view returns(uint){\r... */\n      swap1\n      jump\t// out\n        /* \"Vote2.sol\":1690:1722  address public write_entity_addr */\n    tag_167:\n      and(sub(shl(0xa0, 0x01), 0x01), sload(0x0d))\n      dup2\n      jump\t// out\n        /* \"Vote2.sol\":1810:1851  mapping(string => rq) public requirements */\n    tag_173:\n        /* \"--CODEGEN--\":22:36   */\n      dup1\n      mload\n        /* \"--CODEGEN--\":169:173   */\n      0x20\n        /* \"--CODEGEN--\":143:175   */\n      dup2\n      dup4\n      add\n      dup2\n      add\n        /* \"--CODEGEN--\":198:218   */\n      dup1\n      mload\n        /* \"Vote2.sol\":1810:1851  mapping(string => rq) public requirements */\n      0x0f\n        /* \"--CODEGEN--\":224:255   */\n      dup3\n      mstore\n        /* \"--CODEGEN--\":156:174   */\n      swap3\n      dup3\n      add\n        /* \"--CODEGEN--\":283:301   */\n      swap4\n      dup3\n      add\n        /* \"--CODEGEN--\":273:322   */\n      swap4\n      swap1\n      swap4\n      keccak256\n        /* \"--CODEGEN--\":328:360   */\n      swap2\n      swap1\n      swap3\n      mstore\n        /* \"Vote2.sol\":1810:1851  mapping(string => rq) public requirements */\n      dup1\n      sload\n      0x40\n      dup1\n      mload\n      0x02\n      0x01\n      dup5\n      and\n      iszero\n      0x0100\n      mul\n      not(0x00)\n      add\n      swap1\n      swap4\n      and\n      swap3\n      swap1\n      swap3\n      div\n      0x1f\n      dup2\n      add\n      dup6\n      swap1\n      div\n      dup6\n      mul\n      dup4\n      add\n      dup6\n      add\n      swap1\n      swap2\n      mstore\n      dup1\n      dup3\n      mstore\n        /* \"--CODEGEN--\":273:322   */\n      swap2\n      swap3\n        /* \"Vote2.sol\":1810:1851  mapping(string => rq) public requirements */\n      swap1\n      swap2\n        /* \"--CODEGEN--\":273:322   */\n      dup4\n      swap2\n        /* \"Vote2.sol\":1810:1851  mapping(string => rq) public requirements */\n      dup4\n      add\n        /* \"--CODEGEN--\":273:322   */\n      dup3\n        /* \"Vote2.sol\":1810:1851  mapping(string => rq) public requirements */\n      dup3\n      dup1\n      iszero\n      tag_465\n      jumpi\n      dup1\n      0x1f\n      lt\n      tag_466\n      jumpi\n      0x0100\n      dup1\n      dup4\n      sload\n      div\n      mul\n      dup4\n      mstore\n      swap2\n      0x20\n      add\n      swap2\n      jump(tag_465)\n    tag_466:\n      dup3\n      add\n      swap2\n      swap1\n      0x00\n      mstore\n      keccak256(0x00, 0x20)\n      swap1\n    tag_467:\n      dup2\n      sload\n      dup2\n      mstore\n      swap1\n      0x01\n      add\n      swap1\n      0x20\n      add\n      dup1\n      dup4\n      gt\n      tag_467\n      jumpi\n      dup3\n      swap1\n      sub\n      0x1f\n      and\n      dup3\n      add\n      swap2\n    tag_465:\n      pop\n      pop\n      pop\n      pop\n      pop\n      swap1\n      dup1\n      0x01\n      add\n      sload\n      swap1\n      pop\n      dup3\n      jump\t// out\n        /* \"Vote2.sol\":2083:2101  State public state */\n    tag_179:\n      and(0xff, sload(0x14))\n      dup2\n      jump\t// out\n        /* \"Vote2.sol\":914:943  uint256 public Vote_sum_ECC_y */\n    tag_182:\n      sload(0x02)\n      dup2\n      jump\t// out\n        /* \"Vote2.sol\":2108:2125  bool public isSet */\n    tag_184:\n      sload(0x14)\n      0x0100\n      swap1\n      div\n      0xff\n      and\n      dup2\n      jump\t// out\n        /* \"Vote2.sol\":3582:3903  function set_up_requirement(string memory _key,string memory _value, uint _type)public isOwner{\r... */\n    tag_193:\n        /* \"Vote2.sol\":2560:2565  owner */\n      sload(0x05)\n        /* \"Vote2.sol\":2585:2610  stemp.isOwner(msg.sender) */\n      0x40\n      dup1\n      mload\n      shl(0xe1, 0x17aa5fb7)\n      dup2\n      mstore\n        /* \"Vote2.sol\":2599:2609  msg.sender */\n      caller\n        /* \"Vote2.sol\":2585:2610  stemp.isOwner(msg.sender) */\n      0x04\n      dup3\n      add\n      mstore\n      swap1\n      mload\n      sub(shl(0xa0, 0x01), 0x01)\n        /* \"Vote2.sol\":2560:2565  owner */\n      swap1\n      swap3\n      and\n      swap2\n      dup3\n      swap2\n        /* \"Vote2.sol\":2585:2598  stemp.isOwner */\n      0x2f54bf6e\n      swap2\n        /* \"Vote2.sol\":2585:2610  stemp.isOwner(msg.sender) */\n      0x24\n      dup1\n      dup4\n      add\n      swap3\n      0x20\n      swap3\n      swap2\n      swap1\n      dup3\n      swap1\n      sub\n      add\n      dup2\n        /* \"Vote2.sol\":2560:2565  owner */\n      dup7\n        /* \"Vote2.sol\":2585:2610  stemp.isOwner(msg.sender) */\n      dup1\n      extcodesize\n      iszero\n        /* \"--CODEGEN--\":2:4   */\n      dup1\n      iszero\n      tag_469\n      jumpi\n        /* \"--CODEGEN--\":27:28   */\n      0x00\n        /* \"--CODEGEN--\":24:25   */\n      dup1\n        /* \"--CODEGEN--\":17:29   */\n      revert\n        /* \"--CODEGEN--\":2:4   */\n    tag_469:\n        /* \"Vote2.sol\":2585:2610  stemp.isOwner(msg.sender) */\n      pop\n      gas\n      staticcall\n      iszero\n        /* \"--CODEGEN--\":8:17   */\n      dup1\n        /* \"--CODEGEN--\":5:7   */\n      iszero\n      tag_471\n      jumpi\n        /* \"--CODEGEN--\":45:61   */\n      returndatasize\n        /* \"--CODEGEN--\":42:43   */\n      0x00\n        /* \"--CODEGEN--\":39:40   */\n      dup1\n        /* \"--CODEGEN--\":24:62   */\n      returndatacopy\n        /* \"--CODEGEN--\":77:93   */\n      returndatasize\n        /* \"--CODEGEN--\":74:75   */\n      0x00\n        /* \"--CODEGEN--\":67:94   */\n      revert\n        /* \"--CODEGEN--\":5:7   */\n    tag_471:\n        /* \"Vote2.sol\":2585:2610  stemp.isOwner(msg.sender) */\n      pop\n      pop\n      pop\n      pop\n      mload(0x40)\n      returndatasize\n        /* \"--CODEGEN--\":15:17   */\n      0x20\n        /* \"--CODEGEN--\":10:13   */\n      dup2\n        /* \"--CODEGEN--\":7:18   */\n      lt\n        /* \"--CODEGEN--\":4:6   */\n      iszero\n      tag_472\n      jumpi\n        /* \"--CODEGEN--\":31:32   */\n      0x00\n        /* \"--CODEGEN--\":28:29   */\n      dup1\n        /* \"--CODEGEN--\":21:33   */\n      revert\n        /* \"--CODEGEN--\":4:6   */\n    tag_472:\n      pop\n        /* \"Vote2.sol\":2585:2610  stemp.isOwner(msg.sender) */\n      mload\n        /* \"Vote2.sol\":2577:2611  require(stemp.isOwner(msg.sender)) */\n      tag_473\n      jumpi\n        /* \"--CODEGEN--\":12:13   */\n      0x00\n        /* \"--CODEGEN--\":9:10   */\n      dup1\n        /* \"--CODEGEN--\":2:14   */\n      revert\n        /* \"Vote2.sol\":2577:2611  require(stemp.isOwner(msg.sender)) */\n    tag_473:\n        /* \"Vote2.sol\":3696:3701  isSet */\n      sload(0x14)\n      0x0100\n      swap1\n      div\n      0xff\n      and\n        /* \"Vote2.sol\":3695:3701  !isSet */\n      iszero\n        /* \"Vote2.sol\":3687:3729  require(!isSet,\"Set should have finished\") */\n      tag_475\n      jumpi\n      0x40\n      dup1\n      mload\n      shl(0xe5, 0x461bcd)\n      dup2\n      mstore\n      0x20\n      0x04\n      dup3\n      add\n      mstore\n      0x18\n      0x24\n      dup3\n      add\n      mstore\n      shl(0x42, 0x14d95d081cda1bdd5b19081a185d9948199a5b9a5cda1959)\n      0x44\n      dup3\n      add\n      mstore\n      swap1\n      mload\n      swap1\n      dup2\n      swap1\n      sub\n      0x64\n      add\n      swap1\n      revert\n    tag_475:\n        /* \"Vote2.sol\":3740:3754  rq memory temp */\n      tag_476\n      tag_477\n      jump\t// in\n    tag_476:\n        /* \"Vote2.sol\":3765:3790  temp.requirement = _value */\n      dup4\n      dup2\n      mstore\n        /* \"Vote2.sol\":3801:3813  temp.rq_type */\n      0x20\n      dup1\n      dup3\n      add\n        /* \"Vote2.sol\":3801:3821  temp.rq_type = _type */\n      dup5\n      swap1\n      mstore\n        /* \"Vote2.sol\":3832:3850  requirements[_key] */\n      mload(0x40)\n      dup7\n      mload\n        /* \"Vote2.sol\":3765:3769  temp */\n      dup4\n      swap3\n        /* \"Vote2.sol\":3832:3844  requirements */\n      0x0f\n      swap3\n        /* \"Vote2.sol\":3845:3849  _key */\n      dup10\n      swap3\n        /* \"Vote2.sol\":3832:3850  requirements[_key] */\n      swap1\n      swap2\n      dup3\n      swap2\n      swap1\n      dup5\n      add\n      swap1\n      dup1\n      dup4\n      dup4\n        /* \"--CODEGEN--\":36:189   */\n    tag_478:\n        /* \"--CODEGEN--\":66:68   */\n      0x20\n        /* \"--CODEGEN--\":61:64   */\n      dup4\n        /* \"--CODEGEN--\":58:69   */\n      lt\n        /* \"--CODEGEN--\":36:189   */\n      tag_480\n      jumpi\n        /* \"--CODEGEN--\":176:186   */\n      dup1\n      mload\n        /* \"--CODEGEN--\":164:187   */\n      dup3\n      mstore\n      not(0x1f)\n        /* \"--CODEGEN--\":139:151   */\n      swap1\n      swap3\n      add\n      swap2\n        /* \"--CODEGEN--\":98:100   */\n      0x20\n        /* \"--CODEGEN--\":89:101   */\n      swap2\n      dup3\n      add\n      swap2\n        /* \"--CODEGEN--\":114:126   */\n      add\n        /* \"--CODEGEN--\":36:189   */\n      jump(tag_478)\n    tag_480:\n        /* \"--CODEGEN--\":299:309   */\n      mload\n        /* \"--CODEGEN--\":344:354   */\n      dup2\n      mload\n        /* \"--CODEGEN--\":263:265   */\n      0x20\n        /* \"--CODEGEN--\":259:271   */\n      swap4\n      dup5\n      sub\n        /* \"--CODEGEN--\":254:257   */\n      0x0100\n        /* \"--CODEGEN--\":250:272   */\n      exp\n      not(0x00)\n        /* \"--CODEGEN--\":246:276   */\n      add\n        /* \"--CODEGEN--\":311:320   */\n      dup1\n      not\n        /* \"--CODEGEN--\":295:321   */\n      swap1\n      swap3\n      and\n        /* \"--CODEGEN--\":340:361   */\n      swap2\n      and\n        /* \"--CODEGEN--\":377:397   */\n      or\n        /* \"--CODEGEN--\":365:398   */\n      swap1\n      mstore\n        /* \"Vote2.sol\":3832:3850  requirements[_key] */\n      swap3\n      add\n      swap5\n      dup6\n      mstore\n      pop\n      mload(0x40)\n      swap4\n      dup5\n      swap1\n      sub\n      dup2\n      add\n      swap1\n      swap4\n      keccak256\n        /* \"Vote2.sol\":3832:3857  requirements[_key] = temp */\n      dup5\n      mload\n      dup1\n      mload\n        /* \"Vote2.sol\":3832:3850  requirements[_key] */\n      swap2\n      swap5\n        /* \"Vote2.sol\":3832:3857  requirements[_key] = temp */\n      tag_481\n      swap5\n      pop\n        /* \"Vote2.sol\":3832:3850  requirements[_key] */\n      dup6\n      swap4\n      pop\n        /* \"Vote2.sol\":3832:3857  requirements[_key] = temp */\n      add\n      swap1\n      tag_432\n      jump\t// in\n    tag_481:\n      pop\n      0x20\n      swap2\n      dup3\n      add\n      mload\n      0x01\n      swap2\n      dup3\n      add\n      sstore\n        /* \"Vote2.sol\":3868:3884  requirements_key */\n      0x10\n        /* \"--CODEGEN--\":27:37   */\n      dup1\n      sload\n        /* \"--CODEGEN--\":23:41   */\n      swap2\n      dup3\n      add\n        /* \"--CODEGEN--\":45:68   */\n      dup2\n      sstore\n      0x00\n        /* \"Vote2.sol\":3868:3895  requirements_key.push(_key) */\n      mstore\n      dup7\n      mload\n      tag_483\n      swap3\n      0x1b6847dc741a1b0cd08d278845f9d819d87b734759afb55fe2de5cb82a9ae672\n      swap1\n      swap3\n      add\n      swap2\n      dup9\n      add\n      swap1\n      tag_432\n      jump\t// in\n    tag_483:\n      pop\n        /* \"Vote2.sol\":2622:2623  _ */\n      pop\n        /* \"Vote2.sol\":3582:3903  function set_up_requirement(string memory _key,string memory _value, uint _type)public isOwner{\r... */\n      pop\n      pop\n      pop\n      pop\n      jump\t// out\n        /* \"Vote2.sol\":1998:2022  string public win_option */\n    tag_195:\n      0x13\n      dup1\n      sload\n      0x40\n      dup1\n      mload\n      0x20\n      0x02\n      0x01\n      dup6\n      and\n      iszero\n      0x0100\n      mul\n      not(0x00)\n      add\n      swap1\n      swap5\n      and\n      swap4\n      swap1\n      swap4\n      div\n      0x1f\n      dup2\n      add\n      dup5\n      swap1\n      div\n      dup5\n      mul\n      dup3\n      add\n      dup5\n      add\n      swap1\n      swap3\n      mstore\n      dup2\n      dup2\n      mstore\n      swap3\n      swap2\n      dup4\n      add\n      dup3\n      dup3\n      dup1\n      iszero\n      tag_237\n      jumpi\n      dup1\n      0x1f\n      lt\n      tag_238\n      jumpi\n      0x0100\n      dup1\n      dup4\n      sload\n      div\n      mul\n      dup4\n      mstore\n      swap2\n      0x20\n      add\n      swap2\n      jump(tag_237)\n        /* \"Vote2.sol\":1638:1677  address [] public  msgsender_voter_list */\n    tag_202:\n      0x0c\n      dup2\n      dup2\n      sload\n      dup2\n      lt\n      tag_487\n      jumpi\n      invalid\n    tag_487:\n      0x00\n      swap2\n      dup3\n      mstore\n      0x20\n      swap1\n      swap2\n      keccak256\n      add\n      sload\n      sub(shl(0xa0, 0x01), 0x01)\n      and\n      swap1\n      pop\n      dup2\n      jump\t// out\n        /* \"Vote2.sol\":11792:11999  function return_voter_vote_status(address sender)public view returns(uint){\r... */\n    tag_205:\n      sub(shl(0xa0, 0x01), 0x01)\n        /* \"Vote2.sol\":11953:11980  eligible_voter_list[sender] */\n      and\n        /* \"Vote2.sol\":11861:11865  uint */\n      0x00\n        /* \"Vote2.sol\":11953:11980  eligible_voter_list[sender] */\n      swap1\n      dup2\n      mstore\n        /* \"Vote2.sol\":11953:11972  eligible_voter_list */\n      0x0b\n        /* \"Vote2.sol\":11953:11980  eligible_voter_list[sender] */\n      0x20\n      mstore\n      0x40\n      swap1\n      keccak256\n        /* \"Vote2.sol\":11953:11991  eligible_voter_list[sender].vote_value */\n      0x02\n      add\n      sload\n      swap1\n        /* \"Vote2.sol\":11792:11999  function return_voter_vote_status(address sender)public view returns(uint){\r... */\n      jump\t// out\n        /* \"Vote2.sol\":1974:1991  int public winner */\n    tag_207:\n      sload(0x12)\n      dup2\n      jump\t// out\n        /* \"Vote2.sol\":11441:11564  function return_msgsender_voter_list()public view returns (address [] memory){\r... */\n    tag_209:\n        /* \"Vote2.sol\":11500:11517  address [] memory */\n      0x60\n        /* \"Vote2.sol\":11536:11556  msgsender_voter_list */\n      0x0c\n        /* \"Vote2.sol\":11529:11556  return msgsender_voter_list */\n      dup1\n      sload\n      dup1\n      0x20\n      mul\n      0x20\n      add\n      mload(0x40)\n      swap1\n      dup2\n      add\n      0x40\n      mstore\n      dup1\n      swap3\n      swap2\n      swap1\n      dup2\n      dup2\n      mstore\n      0x20\n      add\n      dup3\n      dup1\n      sload\n      dup1\n      iszero\n      tag_445\n      jumpi\n      0x20\n      mul\n      dup3\n      add\n      swap2\n      swap1\n      0x00\n      mstore\n      keccak256(0x00, 0x20)\n      swap1\n    tag_492:\n      dup2\n      sload\n      sub(shl(0xa0, 0x01), 0x01)\n      and\n      dup2\n      mstore\n      0x01\n      swap1\n      swap2\n      add\n      swap1\n      0x20\n      add\n      dup1\n      dup4\n      gt\n      tag_492\n      jumpi\n      pop\n      pop\n      pop\n      pop\n      pop\n      swap1\n      pop\n        /* \"Vote2.sol\":11441:11564  function return_msgsender_voter_list()public view returns (address [] memory){\r... */\n      swap1\n      jump\t// out\n        /* \"Vote2.sol\":3915:4349  function set_up_all(string memory q ,uint vst,uint vet ,string memory rq_description ,address write_entity,uint256 exp,uint256 M)public isOwner{\r... */\n    tag_221:\n        /* \"Vote2.sol\":2560:2565  owner */\n      sload(0x05)\n        /* \"Vote2.sol\":2585:2610  stemp.isOwner(msg.sender) */\n      0x40\n      dup1\n      mload\n      shl(0xe1, 0x17aa5fb7)\n      dup2\n      mstore\n        /* \"Vote2.sol\":2599:2609  msg.sender */\n      caller\n        /* \"Vote2.sol\":2585:2610  stemp.isOwner(msg.sender) */\n      0x04\n      dup3\n      add\n      mstore\n      swap1\n      mload\n      sub(shl(0xa0, 0x01), 0x01)\n        /* \"Vote2.sol\":2560:2565  owner */\n      swap1\n      swap3\n      and\n      swap2\n      dup3\n      swap2\n        /* \"Vote2.sol\":2585:2598  stemp.isOwner */\n      0x2f54bf6e\n      swap2\n        /* \"Vote2.sol\":2585:2610  stemp.isOwner(msg.sender) */\n      0x24\n      dup1\n      dup4\n      add\n      swap3\n      0x20\n      swap3\n      swap2\n      swap1\n      dup3\n      swap1\n      sub\n      add\n      dup2\n        /* \"Vote2.sol\":2560:2565  owner */\n      dup7\n        /* \"Vote2.sol\":2585:2610  stemp.isOwner(msg.sender) */\n      dup1\n      extcodesize\n      iszero\n        /* \"--CODEGEN--\":2:4   */\n      dup1\n      iszero\n      tag_494\n      jumpi\n        /* \"--CODEGEN--\":27:28   */\n      0x00\n        /* \"--CODEGEN--\":24:25   */\n      dup1\n        /* \"--CODEGEN--\":17:29   */\n      revert\n        /* \"--CODEGEN--\":2:4   */\n    tag_494:\n        /* \"Vote2.sol\":2585:2610  stemp.isOwner(msg.sender) */\n      pop\n      gas\n      staticcall\n      iszero\n        /* \"--CODEGEN--\":8:17   */\n      dup1\n        /* \"--CODEGEN--\":5:7   */\n      iszero\n      tag_496\n      jumpi\n        /* \"--CODEGEN--\":45:61   */\n      returndatasize\n        /* \"--CODEGEN--\":42:43   */\n      0x00\n        /* \"--CODEGEN--\":39:40   */\n      dup1\n        /* \"--CODEGEN--\":24:62   */\n      returndatacopy\n        /* \"--CODEGEN--\":77:93   */\n      returndatasize\n        /* \"--CODEGEN--\":74:75   */\n      0x00\n        /* \"--CODEGEN--\":67:94   */\n      revert\n        /* \"--CODEGEN--\":5:7   */\n    tag_496:\n        /* \"Vote2.sol\":2585:2610  stemp.isOwner(msg.sender) */\n      pop\n      pop\n      pop\n      pop\n      mload(0x40)\n      returndatasize\n        /* \"--CODEGEN--\":15:17   */\n      0x20\n        /* \"--CODEGEN--\":10:13   */\n      dup2\n        /* \"--CODEGEN--\":7:18   */\n      lt\n        /* \"--CODEGEN--\":4:6   */\n      iszero\n      tag_497\n      jumpi\n        /* \"--CODEGEN--\":31:32   */\n      0x00\n        /* \"--CODEGEN--\":28:29   */\n      dup1\n        /* \"--CODEGEN--\":21:33   */\n      revert\n        /* \"--CODEGEN--\":4:6   */\n    tag_497:\n      pop\n        /* \"Vote2.sol\":2585:2610  stemp.isOwner(msg.sender) */\n      mload\n        /* \"Vote2.sol\":2577:2611  require(stemp.isOwner(msg.sender)) */\n      tag_498\n      jumpi\n        /* \"--CODEGEN--\":12:13   */\n      0x00\n        /* \"--CODEGEN--\":9:10   */\n      dup1\n        /* \"--CODEGEN--\":2:14   */\n      revert\n        /* \"Vote2.sol\":2577:2611  require(stemp.isOwner(msg.sender)) */\n    tag_498:\n        /* \"Vote2.sol\":4078:4083  isSet */\n      sload(0x14)\n      0x0100\n      swap1\n      div\n      0xff\n      and\n        /* \"Vote2.sol\":4077:4083  !isSet */\n      iszero\n        /* \"Vote2.sol\":4069:4111  require(!isSet,\"Set should have finished\") */\n      tag_500\n      jumpi\n      0x40\n      dup1\n      mload\n      shl(0xe5, 0x461bcd)\n      dup2\n      mstore\n      0x20\n      0x04\n      dup3\n      add\n      mstore\n      0x18\n      0x24\n      dup3\n      add\n      mstore\n      shl(0x42, 0x14d95d081cda1bdd5b19081a185d9948199a5b9a5cda1959)\n      0x44\n      dup3\n      add\n      mstore\n      swap1\n      mload\n      swap1\n      dup2\n      swap1\n      sub\n      0x64\n      add\n      swap1\n      revert\n    tag_500:\n        /* \"Vote2.sol\":4122:4139  vote_question = q */\n      dup8\n      mload\n      tag_501\n      swap1\n        /* \"Vote2.sol\":4122:4135  vote_question */\n      0x06\n      swap1\n        /* \"Vote2.sol\":4122:4139  vote_question = q */\n      0x20\n      dup12\n      add\n      swap1\n      tag_432\n      jump\t// in\n    tag_501:\n      pop\n        /* \"Vote2.sol\":4150:4178  description = rq_description */\n      dup5\n      mload\n      tag_502\n      swap1\n        /* \"Vote2.sol\":4150:4161  description */\n      0x0e\n      swap1\n        /* \"Vote2.sol\":4150:4178  description = rq_description */\n      0x20\n      dup9\n      add\n      swap1\n      tag_432\n      jump\t// in\n    tag_502:\n      pop\n      pop\n        /* \"Vote2.sol\":4189:4194  times */\n      0x09\n        /* \"Vote2.sol\":4189:4203  times[0] = vst */\n      swap6\n      swap1\n      swap6\n      sstore\n        /* \"Vote2.sol\":4214:4222  times[1] */\n      0x0a\n        /* \"Vote2.sol\":4214:4228  times[1] = vet */\n      swap4\n      swap1\n      swap4\n      sstore\n        /* \"Vote2.sol\":4239:4256  write_entity_addr */\n      0x0d\n        /* \"Vote2.sol\":4239:4271  write_entity_addr = write_entity */\n      dup1\n      sload\n      not(sub(shl(0xa0, 0x01), 0x01))\n      and\n      sub(shl(0xa0, 0x01), 0x01)\n      swap3\n      swap1\n      swap3\n      and\n      swap2\n      swap1\n      swap2\n      or\n      swap1\n      sstore\n      pop\n        /* \"Vote2.sol\":4282:4287  state */\n      0x14\n        /* \"Vote2.sol\":4282:4300  state = State.VOTE */\n      dup1\n      sload\n      not(0xff)\n      and\n      0x01\n      or\n      swap1\n      sstore\n        /* \"Vote2.sol\":4311:4319  exponent */\n      0x03\n        /* \"Vote2.sol\":4311:4325  exponent = exp */\n      sstore\n        /* \"Vote2.sol\":4336:4337  m */\n      0x04\n        /* \"Vote2.sol\":4336:4341  m = M */\n      sstore\n      pop\n        /* \"Vote2.sol\":3915:4349  function set_up_all(string memory q ,uint vst,uint vet ,string memory rq_description ,address write_entity,uint256 exp,uint256 M)public isOwner{\r... */\n      jump\t// out\n        /* \"Vote2.sol\":9778:10751  function tally(uint sum)public {\r... */\n    tag_224:\n        /* \"Vote2.sol\":9828:9833  isSet */\n      sload(0x14)\n      0x0100\n      swap1\n      div\n      0xff\n      and\n        /* \"Vote2.sol\":9820:9854  require(isSet,\"Set is not Finish\") */\n      tag_509\n      jumpi\n      0x40\n      dup1\n      mload\n      shl(0xe5, 0x461bcd)\n      dup2\n      mstore\n      0x20\n      0x04\n      dup3\n      add\n      mstore\n      0x11\n      0x24\n      dup3\n      add\n      mstore\n      shl(0x7b, 0x0a6cae840d2e640dcdee8408cd2dcd2e6d)\n      0x44\n      dup3\n      add\n      mstore\n      swap1\n      mload\n      swap1\n      dup2\n      swap1\n      sub\n      0x64\n      add\n      swap1\n      revert\n    tag_509:\n        /* \"Vote2.sol\":9875:9896  uint256 ECC_checked_x */\n      0x00\n        /* \"Vote2.sol\":9907:9928  uint256 ECC_checked_y */\n      dup1\n        /* \"Vote2.sol\":9981:10019  EllipticCurve.ecMul(sum+1,GX,GY,AA,PP) */\n      tag_510\n        /* \"Vote2.sol\":10001:10004  sum */\n      dup4\n        /* \"Vote2.sol\":10005:10006  1 */\n      0x01\n        /* \"Vote2.sol\":10001:10006  sum+1 */\n      add\n      0x00\n      dup1\n      mload\n      0x20\n      data_bd48405ed3251dbb9f783c5a51cbf46016252921b268ebd47d0a0389f7b93cc0\n      dup4\n      codecopy\n      dup2\n      mload\n      swap2\n      mstore\n      0x00\n      dup1\n      mload\n      0x20\n      data_1daeff61fd986edf5d823d715532dcfe6ec9ea427c85800271e0d847a34dbe18\n      dup4\n      codecopy\n      dup2\n      mload\n      swap2\n      mstore\n      0x00\n      not(0x01000003d0)\n        /* \"Vote2.sol\":9981:10000  EllipticCurve.ecMul */\n      tag_251\n        /* \"Vote2.sol\":9981:10019  EllipticCurve.ecMul(sum+1,GX,GY,AA,PP) */\n      jump\t// in\n    tag_510:\n        /* \"Vote2.sol\":10040:10052  uint256 temp */\n      0x00\n        /* \"Vote2.sol\":10055:10063  Vote_sum */\n      sload\n        /* \"Vote2.sol\":10125:10139  Vote_sum_ECC_x */\n      sload(0x01)\n        /* \"Vote2.sol\":9949:10019  (ECC_checked_x,ECC_checked_y) = EllipticCurve.ecMul(sum+1,GX,GY,AA,PP) */\n      swap3\n      swap5\n      pop\n      swap1\n      swap3\n      pop\n        /* \"Vote2.sol\":10055:10069  Vote_sum - sum */\n      dup5\n      swap1\n      sub\n      swap1\n        /* \"Vote2.sol\":10108:10139  ECC_checked_x == Vote_sum_ECC_x */\n      dup4\n      eq\n        /* \"Vote2.sol\":10100:10140  require(ECC_checked_x == Vote_sum_ECC_x) */\n      tag_511\n      jumpi\n        /* \"--CODEGEN--\":12:13   */\n      0x00\n        /* \"--CODEGEN--\":9:10   */\n      dup1\n        /* \"--CODEGEN--\":2:14   */\n      revert\n        /* \"Vote2.sol\":10100:10140  require(ECC_checked_x == Vote_sum_ECC_x) */\n    tag_511:\n        /* \"Vote2.sol\":10176:10190  Vote_sum_ECC_y */\n      sload(0x02)\n        /* \"Vote2.sol\":10159:10172  ECC_checked_y */\n      dup3\n        /* \"Vote2.sol\":10159:10190  ECC_checked_y == Vote_sum_ECC_y */\n      eq\n        /* \"Vote2.sol\":10151:10191  require(ECC_checked_y == Vote_sum_ECC_y) */\n      tag_512\n      jumpi\n        /* \"--CODEGEN--\":12:13   */\n      0x00\n        /* \"--CODEGEN--\":9:10   */\n      dup1\n        /* \"--CODEGEN--\":2:14   */\n      revert\n        /* \"Vote2.sol\":10151:10191  require(ECC_checked_y == Vote_sum_ECC_y) */\n    tag_512:\n      not(0x00)\n        /* \"Vote2.sol\":10202:10208  winner */\n      0x12\n        /* \"Vote2.sol\":10202:10213  winner = -1 */\n      sstore\n      0x00\n        /* \"Vote2.sol\":10224:10299  for(uint i = 0;i<result.length;i++){\r... */\n    tag_513:\n        /* \"Vote2.sol\":10241:10247  result */\n      0x11\n        /* \"Vote2.sol\":10241:10254  result.length */\n      sload\n        /* \"Vote2.sol\":10239:10254  i<result.length */\n      dup2\n      lt\n        /* \"Vote2.sol\":10224:10299  for(uint i = 0;i<result.length;i++){\r... */\n      iszero\n      tag_514\n      jumpi\n        /* \"Vote2.sol\":10286:10287  0 */\n      0x00\n        /* \"Vote2.sol\":10274:10280  result */\n      0x11\n        /* \"Vote2.sol\":10281:10282  i */\n      dup3\n        /* \"Vote2.sol\":10274:10283  result[i] */\n      dup2\n      sload\n      dup2\n      lt\n      tag_516\n      jumpi\n      invalid\n    tag_516:\n      0x00\n      swap2\n      dup3\n      mstore\n      0x20\n      swap1\n      swap2\n      keccak256\n      add\n        /* \"Vote2.sol\":10274:10287  result[i] = 0 */\n      sstore\n        /* \"Vote2.sol\":10255:10258  i++ */\n      0x01\n      add\n        /* \"Vote2.sol\":10224:10299  for(uint i = 0;i<result.length;i++){\r... */\n      jump(tag_513)\n    tag_514:\n      pop\n        /* \"Vote2.sol\":10355:10366  options_num */\n      sload(0x08)\n      not(0x00)\n        /* \"Vote2.sol\":10355:10368  options_num-1 */\n      add\n        /* \"Vote2.sol\":10342:10510  for(uint i = options_num-1;i+1>0;i--){\r... */\n    tag_518:\n        /* \"Vote2.sol\":10371:10372  1 */\n      0x01\n        /* \"Vote2.sol\":10369:10372  i+1 */\n      dup2\n      add\n        /* \"Vote2.sol\":10369:10374  i+1>0 */\n      iszero\n        /* \"Vote2.sol\":10342:10510  for(uint i = options_num-1;i+1>0;i--){\r... */\n      tag_519\n      jumpi\n        /* \"Vote2.sol\":10433:10434  i */\n      dup1\n        /* \"Vote2.sol\":10431:10432  m */\n      sload(0x04)\n        /* \"Vote2.sol\":10431:10434  m*i */\n      mul\n        /* \"Vote2.sol\":10418:10426  exponent */\n      sload(0x03)\n        /* \"Vote2.sol\":10418:10435  exponent ** (m*i) */\n      exp\n        /* \"Vote2.sol\":10412:10416  temp */\n      dup3\n        /* \"Vote2.sol\":10412:10436  temp/(exponent ** (m*i)) */\n      dup2\n      tag_521\n      jumpi\n      invalid\n    tag_521:\n      div\n        /* \"Vote2.sol\":10394:10400  result */\n      0x11\n        /* \"Vote2.sol\":10401:10402  i */\n      dup3\n        /* \"Vote2.sol\":10394:10403  result[i] */\n      dup2\n      sload\n      dup2\n      lt\n      tag_522\n      jumpi\n      invalid\n    tag_522:\n      swap1\n      0x00\n      mstore\n      keccak256(0x00, 0x20)\n      add\n        /* \"Vote2.sol\":10394:10437  result[i] = (int)(temp/(exponent ** (m*i))) */\n      dup2\n      swap1\n      sstore\n      pop\n        /* \"Vote2.sol\":10488:10494  result */\n      0x11\n        /* \"Vote2.sol\":10495:10496  i */\n      dup2\n        /* \"Vote2.sol\":10488:10497  result[i] */\n      dup2\n      sload\n      dup2\n      lt\n      tag_524\n      jumpi\n      invalid\n    tag_524:\n      0x00\n      swap2\n      dup3\n      mstore\n      0x20\n      swap1\n      swap2\n      keccak256\n      add\n      sload\n        /* \"Vote2.sol\":10474:10475  m */\n      sload(0x04)\n        /* \"Vote2.sol\":10461:10469  exponent */\n      sload(0x03)\n        /* \"Vote2.sol\":10474:10477  m*i */\n      swap1\n      dup4\n      mul\n        /* \"Vote2.sol\":10461:10478  exponent ** (m*i) */\n      swap1\n      exp\n        /* \"Vote2.sol\":10460:10498  (exponent ** (m*i))*uint256(result[i]) */\n      mul\n        /* \"Vote2.sol\":10452:10498  temp -= (exponent ** (m*i))*uint256(result[i]) */\n      swap1\n      swap2\n      sub\n      swap1\n      not(0x00)\n        /* \"Vote2.sol\":10375:10378  i-- */\n      add\n        /* \"Vote2.sol\":10342:10510  for(uint i = options_num-1;i+1>0;i--){\r... */\n      jump(tag_518)\n    tag_519:\n      pop\n        /* \"Vote2.sol\":10570:10576  uint i */\n      0x00\n        /* \"Vote2.sol\":10566:10699  for(uint i = 0;i<result.length;i++){\r... */\n    tag_526:\n        /* \"Vote2.sol\":10583:10589  result */\n      0x11\n        /* \"Vote2.sol\":10583:10596  result.length */\n      sload\n        /* \"Vote2.sol\":10581:10596  i<result.length */\n      dup2\n      lt\n        /* \"Vote2.sol\":10566:10699  for(uint i = 0;i<result.length;i++){\r... */\n      iszero\n      tag_527\n      jumpi\n        /* \"Vote2.sol\":10631:10637  winner */\n      sload(0x12)\n        /* \"Vote2.sol\":10619:10625  result */\n      0x11\n        /* \"Vote2.sol\":10626:10627  i */\n      dup3\n        /* \"Vote2.sol\":10619:10628  result[i] */\n      dup2\n      sload\n      dup2\n      lt\n      tag_529\n      jumpi\n      invalid\n    tag_529:\n      swap1\n      0x00\n      mstore\n      keccak256(0x00, 0x20)\n      add\n      sload\n        /* \"Vote2.sol\":10619:10637  result[i] > winner */\n      sgt\n        /* \"Vote2.sol\":10616:10688  if(result[i] > winner){\r... */\n      iszero\n      tag_531\n      jumpi\n        /* \"Vote2.sol\":10657:10663  winner */\n      0x12\n        /* \"Vote2.sol\":10657:10672  winner = int(i) */\n      dup2\n      swap1\n      sstore\n        /* \"Vote2.sol\":10616:10688  if(result[i] > winner){\r... */\n    tag_531:\n        /* \"Vote2.sol\":10597:10600  i++ */\n      0x01\n      add\n        /* \"Vote2.sol\":10566:10699  for(uint i = 0;i<result.length;i++){\r... */\n      jump(tag_526)\n    tag_527:\n      pop\n        /* \"Vote2.sol\":10722:10729  options */\n      0x07\n        /* \"Vote2.sol\":10735:10741  winner */\n      sload(0x12)\n        /* \"Vote2.sol\":10722:10743  options[uint(winner)] */\n      dup2\n      sload\n      dup2\n      lt\n      tag_532\n      jumpi\n      invalid\n    tag_532:\n      swap1\n      0x00\n      mstore\n      keccak256(0x00, 0x20)\n      add\n        /* \"Vote2.sol\":10709:10719  win_option */\n      0x13\n        /* \"Vote2.sol\":10709:10743  win_option = options[uint(winner)] */\n      swap1\n      dup1\n      sload\n      0x01\n      dup2\n      0x01\n      and\n      iszero\n      0x0100\n      mul\n      sub\n      and\n      0x02\n      swap1\n      div\n      tag_534\n      swap3\n      swap2\n      swap1\n      tag_535\n      jump\t// in\n    tag_534:\n      pop\n        /* \"Vote2.sol\":9778:10751  function tally(uint sum)public {\r... */\n      pop\n      pop\n      pop\n      pop\n      jump\t// out\n        /* \"Vote2.sol\":11570:11786  function return_voter_register_status(address sender)public view returns(bool){\r... */\n    tag_227:\n      sub(shl(0xa0, 0x01), 0x01)\n        /* \"Vote2.sol\":11735:11762  eligible_voter_list[sender] */\n      and\n        /* \"Vote2.sol\":11643:11647  bool */\n      0x00\n        /* \"Vote2.sol\":11735:11762  eligible_voter_list[sender] */\n      swap1\n      dup2\n      mstore\n        /* \"Vote2.sol\":11735:11754  eligible_voter_list */\n      0x0b\n        /* \"Vote2.sol\":11735:11762  eligible_voter_list[sender] */\n      0x20\n      mstore\n      0x40\n      swap1\n      keccak256\n      0x01\n        /* \"Vote2.sol\":11735:11778  eligible_voter_list[sender].register_or_not */\n      add\n      sload\n      shl(0xa0, 0x01)\n      swap1\n      div\n      0xff\n      and\n      swap1\n        /* \"Vote2.sol\":11570:11786  function return_voter_register_status(address sender)public view returns(bool){\r... */\n      jump\t// out\n        /* \"Vote2.sol\":732:827  uint256 public constant PP = 0xFFFFFFFFFFFFFFFFFFFFFFFFFFFFFFFFFFFFFFFFFFFFFFFFFFFFFFFEFFFFFC2F */\n    tag_229:\n      not(0x01000003d0)\n      dup2\n      jump\t// out\n        /* \"Vote2.sol\":1881:1913  string[] public requirements_key */\n    tag_232:\n      0x10\n      dup2\n      dup2\n      sload\n      dup2\n      lt\n      tag_434\n      jumpi\n      invalid\n        /* \"ECC.sol\":7000:7402  function ecMul(\r... */\n    tag_251:\n        /* \"ECC.sol\":7128:7135  uint256 */\n      0x00\n        /* \"ECC.sol\":7137:7144  uint256 */\n      dup1\n        /* \"ECC.sol\":7189:7199  uint256 x1 */\n      0x00\n        /* \"ECC.sol\":7201:7211  uint256 y1 */\n      dup1\n        /* \"ECC.sol\":7213:7223  uint256 z1 */\n      0x00\n        /* \"ECC.sol\":7227:7301  jacMul(\r... */\n      tag_543\n        /* \"ECC.sol\":7242:7244  _k */\n      dup11\n        /* \"ECC.sol\":7253:7255  _x */\n      dup11\n        /* \"ECC.sol\":7264:7266  _y */\n      dup11\n        /* \"ECC.sol\":7275:7276  1 */\n      0x01\n        /* \"ECC.sol\":7285:7288  _aa */\n      dup12\n        /* \"ECC.sol\":7297:7300  _pp */\n      dup12\n        /* \"ECC.sol\":7227:7233  jacMul */\n      tag_544\n        /* \"ECC.sol\":7227:7301  jacMul(\r... */\n      jump\t// in\n    tag_543:\n        /* \"ECC.sol\":7188:7301  (uint256 x1, uint256 y1, uint256 z1) = jacMul(\r... */\n      swap3\n      pop\n      swap3\n      pop\n      swap3\n      pop\n        /* \"ECC.sol\":7342:7396  toAffine(\r... */\n      tag_545\n        /* \"ECC.sol\":7359:7361  x1 */\n      dup4\n        /* \"ECC.sol\":7370:7372  y1 */\n      dup4\n        /* \"ECC.sol\":7381:7383  z1 */\n      dup4\n        /* \"ECC.sol\":7392:7395  _pp */\n      dup10\n        /* \"ECC.sol\":7342:7350  toAffine */\n      tag_546\n        /* \"ECC.sol\":7342:7396  toAffine(\r... */\n      jump\t// in\n    tag_545:\n        /* \"ECC.sol\":7335:7396  return toAffine(\r... */\n      swap5\n      pop\n      swap5\n      pop\n      pop\n      pop\n      pop\n        /* \"ECC.sol\":7000:7402  function ecMul(\r... */\n      swap6\n      pop\n      swap6\n      swap4\n      pop\n      pop\n      pop\n      pop\n      jump\t// out\n        /* \"ECC.sol\":5215:5981  function ecAdd(\r... */\n    tag_253:\n        /* \"ECC.sol\":5366:5373  uint256 */\n      0x00\n      dup1\n      dup1\n      dup1\n      dup1\n        /* \"ECC.sol\":5485:5493  _x1==_x2 */\n      dup11\n      dup10\n      eq\n        /* \"ECC.sol\":5481:5884  if (_x1==_x2) {\r... */\n      iszero\n      tag_548\n      jumpi\n        /* \"ECC.sol\":5550:5553  _pp */\n      dup6\n        /* \"ECC.sol\":5533:5554  addmod(_y1, _y2, _pp) */\n      dup1\n      tag_549\n      jumpi\n      invalid\n    tag_549:\n        /* \"ECC.sol\":5545:5548  _y2 */\n      dup9\n        /* \"ECC.sol\":5540:5543  _y1 */\n      dup12\n        /* \"ECC.sol\":5533:5554  addmod(_y1, _y2, _pp) */\n      addmod\n        /* \"ECC.sol\":5529:5741  if (addmod(_y1, _y2, _pp) == 0) {\r... */\n      tag_550\n      jumpi\n      pop\n        /* \"ECC.sol\":5579:5580  0 */\n      0x00\n      swap4\n      pop\n      dup4\n      swap3\n      pop\n        /* \"ECC.sol\":5572:5584  return(0, 0) */\n      tag_547\n      swap2\n      pop\n      pop\n      jump\n        /* \"ECC.sol\":5529:5741  if (addmod(_y1, _y2, _pp) == 0) {\r... */\n    tag_550:\n        /* \"ECC.sol\":5643:5731  jacDouble(\r... */\n      tag_552\n        /* \"ECC.sol\":5665:5668  _x1 */\n      dup12\n        /* \"ECC.sol\":5681:5684  _y1 */\n      dup12\n        /* \"ECC.sol\":5697:5698  1 */\n      0x01\n        /* \"ECC.sol\":5711:5714  _aa */\n      dup11\n        /* \"ECC.sol\":5727:5730  _pp */\n      dup11\n        /* \"ECC.sol\":5643:5652  jacDouble */\n      tag_553\n        /* \"ECC.sol\":5643:5731  jacDouble(\r... */\n      jump\t// in\n    tag_552:\n        /* \"ECC.sol\":5631:5731  (x, y, z) = jacDouble(\r... */\n      swap2\n      swap5\n      pop\n      swap3\n      pop\n      swap1\n      pop\n        /* \"ECC.sol\":5481:5884  if (_x1==_x2) {\r... */\n      jump(tag_554)\n    tag_548:\n        /* \"ECC.sol\":5775:5876  jacAdd(\r... */\n      tag_555\n        /* \"ECC.sol\":5792:5795  _x1 */\n      dup12\n        /* \"ECC.sol\":5806:5809  _y1 */\n      dup12\n        /* \"ECC.sol\":5820:5821  1 */\n      0x01\n        /* \"ECC.sol\":5832:5835  _x2 */\n      dup13\n        /* \"ECC.sol\":5846:5849  _y2 */\n      dup13\n        /* \"ECC.sol\":5860:5861  1 */\n      0x01\n        /* \"ECC.sol\":5872:5875  _pp */\n      dup13\n        /* \"ECC.sol\":5775:5781  jacAdd */\n      tag_556\n        /* \"ECC.sol\":5775:5876  jacAdd(\r... */\n      jump\t// in\n    tag_555:\n        /* \"ECC.sol\":5763:5876  (x, y, z) = jacAdd(\r... */\n      swap2\n      swap5\n      pop\n      swap3\n      pop\n      swap1\n      pop\n        /* \"ECC.sol\":5481:5884  if (_x1==_x2) {\r... */\n    tag_554:\n        /* \"ECC.sol\":5924:5975  toAffine(\r... */\n      tag_557\n        /* \"ECC.sol\":5941:5942  x */\n      dup4\n        /* \"ECC.sol\":5951:5952  y */\n      dup4\n        /* \"ECC.sol\":5961:5962  z */\n      dup4\n        /* \"ECC.sol\":5971:5974  _pp */\n      dup10\n        /* \"ECC.sol\":5924:5932  toAffine */\n      tag_546\n        /* \"ECC.sol\":5924:5975  toAffine(\r... */\n      jump\t// in\n    tag_557:\n        /* \"ECC.sol\":5917:5975  return toAffine(\r... */\n      swap5\n      pop\n      swap5\n      pop\n      pop\n      pop\n      pop\n        /* \"ECC.sol\":5215:5981  function ecAdd(\r... */\n    tag_547:\n      swap7\n      pop\n      swap7\n      swap5\n      pop\n      pop\n      pop\n      pop\n      pop\n      jump\t// out\n        /* \"ECC.sol\":11350:12142  function jacMul(\r... */\n    tag_544:\n        /* \"ECC.sol\":11497:11504  uint256 */\n      0x00\n      dup1\n      dup1\n        /* \"ECC.sol\":11582:11589  _d == 0 */\n      dup9\n        /* \"ECC.sol\":11578:11627  if (_d == 0) {\r... */\n      tag_559\n      jumpi\n      pop\n        /* \"ECC.sol\":11608:11610  _x */\n      dup7\n      swap2\n      pop\n        /* \"ECC.sol\":11612:11614  _y */\n      dup6\n      swap1\n      pop\n        /* \"ECC.sol\":11616:11618  _z */\n      dup5\n        /* \"ECC.sol\":11600:11619  return (_x, _y, _z) */\n      jump(tag_558)\n        /* \"ECC.sol\":11578:11627  if (_d == 0) {\r... */\n    tag_559:\n        /* \"ECC.sol\":11655:11657  _d */\n      dup9\n        /* \"ECC.sol\":11635:11652  uint256 remaining */\n      0x00\n      dup1\n        /* \"ECC.sol\":11719:11720  1 */\n      0x01\n        /* \"ECC.sol\":11762:12111  while (remaining != 0) {\r... */\n    tag_560:\n        /* \"ECC.sol\":11769:11783  remaining != 0 */\n      dup4\n      iszero\n        /* \"ECC.sol\":11762:12111  while (remaining != 0) {\r... */\n      tag_561\n      jumpi\n        /* \"ECC.sol\":11811:11812  1 */\n      0x01\n        /* \"ECC.sol\":11799:11812  remaining & 1 */\n      dup5\n      and\n        /* \"ECC.sol\":11798:11818  (remaining & 1) != 0 */\n      iszero\n        /* \"ECC.sol\":11794:11969  if ((remaining & 1) != 0) {\r... */\n      tag_562\n      jumpi\n        /* \"ECC.sol\":11846:11959  jacAdd(\r... */\n      tag_563\n        /* \"ECC.sol\":11865:11867  qx */\n      dup4\n        /* \"ECC.sol\":11880:11882  qy */\n      dup4\n        /* \"ECC.sol\":11895:11897  qz */\n      dup4\n        /* \"ECC.sol\":11910:11912  _x */\n      dup16\n        /* \"ECC.sol\":11925:11927  _y */\n      dup16\n        /* \"ECC.sol\":11940:11942  _z */\n      dup16\n        /* \"ECC.sol\":11955:11958  _pp */\n      dup15\n        /* \"ECC.sol\":11846:11852  jacAdd */\n      tag_556\n        /* \"ECC.sol\":11846:11959  jacAdd(\r... */\n      jump\t// in\n    tag_563:\n        /* \"ECC.sol\":11831:11959  (qx, qy, qz) = jacAdd(\r... */\n      swap2\n      swap5\n      pop\n      swap3\n      pop\n      swap1\n      pop\n        /* \"ECC.sol\":11794:11969  if ((remaining & 1) != 0) {\r... */\n    tag_562:\n        /* \"ECC.sol\":12001:12002  2 */\n      0x02\n        /* \"ECC.sol\":11989:11998  remaining */\n      dup5\n        /* \"ECC.sol\":11989:12002  remaining / 2 */\n      div\n        /* \"ECC.sol\":11977:12002  remaining = remaining / 2 */\n      swap4\n      pop\n        /* \"ECC.sol\":12026:12103  jacDouble(\r... */\n      tag_565\n        /* \"ECC.sol\":12046:12048  _x */\n      dup13\n        /* \"ECC.sol\":12059:12061  _y */\n      dup13\n        /* \"ECC.sol\":12072:12074  _z */\n      dup13\n        /* \"ECC.sol\":12085:12088  _aa */\n      dup13\n        /* \"ECC.sol\":12099:12102  _pp */\n      dup13\n        /* \"ECC.sol\":12026:12035  jacDouble */\n      tag_553\n        /* \"ECC.sol\":12026:12103  jacDouble(\r... */\n      jump\t// in\n    tag_565:\n        /* \"ECC.sol\":12011:12103  (_x, _y, _z) = jacDouble(\r... */\n      swap2\n      swap14\n      pop\n      swap12\n      pop\n      swap10\n      pop\n        /* \"ECC.sol\":11762:12111  while (remaining != 0) {\r... */\n      jump(tag_560)\n    tag_561:\n        /* \"ECC.sol\":12125:12127  qx */\n      swap2\n      swap6\n      pop\n        /* \"ECC.sol\":12129:12131  qy */\n      swap4\n      pop\n        /* \"ECC.sol\":12133:12135  qz */\n      swap2\n      pop\n      pop\n        /* \"ECC.sol\":11350:12142  function jacMul(\r... */\n    tag_558:\n      swap7\n      pop\n      swap7\n      pop\n      swap7\n      swap4\n      pop\n      pop\n      pop\n      pop\n      jump\t// out\n        /* \"ECC.sol\":2443:2794  function toAffine(\r... */\n    tag_546:\n        /* \"ECC.sol\":2557:2564  uint256 */\n      0x00\n        /* \"ECC.sol\":2566:2573  uint256 */\n      dup1\n        /* \"ECC.sol\":2585:2597  uint256 zInv */\n      0x00\n        /* \"ECC.sol\":2600:2615  invMod(_z, _pp) */\n      tag_567\n        /* \"ECC.sol\":2607:2609  _z */\n      dup6\n        /* \"ECC.sol\":2611:2614  _pp */\n      dup6\n        /* \"ECC.sol\":2600:2606  invMod */\n      tag_568\n        /* \"ECC.sol\":2600:2615  invMod(_z, _pp) */\n      jump\t// in\n    tag_567:\n        /* \"ECC.sol\":2585:2615  uint256 zInv = invMod(_z, _pp) */\n      swap1\n      pop\n        /* \"ECC.sol\":2622:2635  uint256 zInv2 */\n      0x00\n        /* \"ECC.sol\":2657:2660  _pp */\n      dup5\n        /* \"ECC.sol\":2638:2661  mulmod(zInv, zInv, _pp) */\n      dup1\n      tag_569\n      jumpi\n      invalid\n    tag_569:\n        /* \"ECC.sol\":2651:2655  zInv */\n      dup3\n        /* \"ECC.sol\":2645:2649  zInv */\n      dup4\n        /* \"ECC.sol\":2638:2661  mulmod(zInv, zInv, _pp) */\n      mulmod\n        /* \"ECC.sol\":2622:2661  uint256 zInv2 = mulmod(zInv, zInv, _pp) */\n      swap1\n      pop\n        /* \"ECC.sol\":2668:2678  uint256 x2 */\n      0x00\n        /* \"ECC.sol\":2699:2702  _pp */\n      dup6\n        /* \"ECC.sol\":2681:2703  mulmod(_x, zInv2, _pp) */\n      dup1\n      tag_570\n      jumpi\n      invalid\n    tag_570:\n        /* \"ECC.sol\":2692:2697  zInv2 */\n      dup3\n        /* \"ECC.sol\":2688:2690  _x */\n      dup11\n        /* \"ECC.sol\":2681:2703  mulmod(_x, zInv2, _pp) */\n      mulmod\n        /* \"ECC.sol\":2668:2703  uint256 x2 = mulmod(_x, zInv2, _pp) */\n      swap1\n      pop\n        /* \"ECC.sol\":2710:2720  uint256 y2 */\n      0x00\n        /* \"ECC.sol\":2760:2763  _pp */\n      dup7\n        /* \"ECC.sol\":2723:2764  mulmod(_y, mulmod(zInv, zInv2, _pp), _pp) */\n      dup1\n      tag_571\n      jumpi\n      invalid\n    tag_571:\n        /* \"ECC.sol\":2754:2757  _pp */\n      dup8\n        /* \"ECC.sol\":2734:2758  mulmod(zInv, zInv2, _pp) */\n      dup1\n      tag_572\n      jumpi\n      invalid\n    tag_572:\n        /* \"ECC.sol\":2747:2752  zInv2 */\n      dup5\n        /* \"ECC.sol\":2741:2745  zInv */\n      dup7\n        /* \"ECC.sol\":2734:2758  mulmod(zInv, zInv2, _pp) */\n      mulmod\n        /* \"ECC.sol\":2730:2732  _y */\n      dup11\n        /* \"ECC.sol\":2723:2764  mulmod(_y, mulmod(zInv, zInv2, _pp), _pp) */\n      mulmod\n        /* \"ECC.sol\":2781:2783  x2 */\n      swap2\n      swap11\n      swap2\n      swap10\n      pop\n        /* \"ECC.sol\":2443:2794  function toAffine(\r... */\n      swap1\n      swap8\n      pop\n      pop\n      pop\n      pop\n      pop\n      pop\n      pop\n      pop\n      jump\t// out\n        /* \"ECC.sol\":9766:11043  function jacDouble(\r... */\n    tag_553:\n        /* \"ECC.sol\":9899:9906  uint256 */\n      0x00\n      dup1\n      dup1\n        /* \"ECC.sol\":9940:9947  _z == 0 */\n      dup6\n        /* \"ECC.sol\":9936:9975  if (_z == 0)\r... */\n      tag_574\n      jumpi\n      pop\n        /* \"ECC.sol\":9964:9966  _x */\n      dup7\n      swap2\n      pop\n        /* \"ECC.sol\":9968:9970  _y */\n      dup6\n      swap1\n      pop\n        /* \"ECC.sol\":9972:9974  _z */\n      dup5\n        /* \"ECC.sol\":9956:9975  return (_x, _y, _z) */\n      jump(tag_573)\n        /* \"ECC.sol\":9936:9975  if (_z == 0)\r... */\n    tag_574:\n        /* \"ECC.sol\":10273:10282  uint256 x */\n      0x00\n        /* \"ECC.sol\":10300:10303  _pp */\n      dup5\n        /* \"ECC.sol\":10285:10304  mulmod(_x, _x, _pp) */\n      dup1\n      tag_575\n      jumpi\n      invalid\n    tag_575:\n        /* \"ECC.sol\":10296:10298  _x */\n      dup10\n        /* \"ECC.sol\":10292:10294  _x */\n      dup11\n        /* \"ECC.sol\":10285:10304  mulmod(_x, _x, _pp) */\n      mulmod\n        /* \"ECC.sol\":10273:10304  uint256 x = mulmod(_x, _x, _pp) */\n      swap1\n      pop\n        /* \"ECC.sol\":10318:10327  uint256 y */\n      0x00\n        /* \"ECC.sol\":10345:10348  _pp */\n      dup6\n        /* \"ECC.sol\":10330:10349  mulmod(_y, _y, _pp) */\n      dup1\n      tag_576\n      jumpi\n      invalid\n    tag_576:\n        /* \"ECC.sol\":10341:10343  _y */\n      dup10\n        /* \"ECC.sol\":10337:10339  _y */\n      dup11\n        /* \"ECC.sol\":10330:10349  mulmod(_y, _y, _pp) */\n      mulmod\n        /* \"ECC.sol\":10318:10349  uint256 y = mulmod(_y, _y, _pp) */\n      swap1\n      pop\n        /* \"ECC.sol\":10363:10372  uint256 z */\n      0x00\n        /* \"ECC.sol\":10390:10393  _pp */\n      dup7\n        /* \"ECC.sol\":10375:10394  mulmod(_z, _z, _pp) */\n      dup1\n      tag_577\n      jumpi\n      invalid\n    tag_577:\n        /* \"ECC.sol\":10386:10388  _z */\n      dup10\n        /* \"ECC.sol\":10382:10384  _z */\n      dup11\n        /* \"ECC.sol\":10375:10394  mulmod(_z, _z, _pp) */\n      mulmod\n        /* \"ECC.sol\":10363:10394  uint256 z = mulmod(_z, _z, _pp) */\n      swap1\n      pop\n        /* \"ECC.sol\":10420:10426  uint s */\n      0x00\n        /* \"ECC.sol\":10459:10462  _pp */\n      dup8\n        /* \"ECC.sol\":10429:10463  mulmod(4, mulmod(_x, y, _pp), _pp) */\n      dup1\n      tag_578\n      jumpi\n      invalid\n    tag_578:\n        /* \"ECC.sol\":10453:10456  _pp */\n      dup9\n        /* \"ECC.sol\":10439:10457  mulmod(_x, y, _pp) */\n      dup1\n      tag_579\n      jumpi\n      invalid\n    tag_579:\n        /* \"ECC.sol\":10450:10451  y */\n      dup5\n        /* \"ECC.sol\":10446:10448  _x */\n      dup15\n        /* \"ECC.sol\":10439:10457  mulmod(_x, y, _pp) */\n      mulmod\n        /* \"ECC.sol\":10436:10437  4 */\n      0x04\n        /* \"ECC.sol\":10429:10463  mulmod(4, mulmod(_x, y, _pp), _pp) */\n      mulmod\n        /* \"ECC.sol\":10420:10463  uint s = mulmod(4, mulmod(_x, y, _pp), _pp) */\n      swap1\n      pop\n        /* \"ECC.sol\":10480:10486  uint m */\n      0x00\n        /* \"ECC.sol\":10552:10555  _pp */\n      dup9\n        /* \"ECC.sol\":10489:10556  addmod(mulmod(3, x, _pp), mulmod(_aa, mulmod(z, z, _pp), _pp), _pp) */\n      dup1\n      tag_580\n      jumpi\n      invalid\n    tag_580:\n        /* \"ECC.sol\":10546:10549  _pp */\n      dup10\n        /* \"ECC.sol\":10515:10550  mulmod(_aa, mulmod(z, z, _pp), _pp) */\n      dup1\n      tag_581\n      jumpi\n      invalid\n    tag_581:\n        /* \"ECC.sol\":10540:10543  _pp */\n      dup11\n        /* \"ECC.sol\":10527:10544  mulmod(z, z, _pp) */\n      dup1\n      tag_582\n      jumpi\n      invalid\n    tag_582:\n        /* \"ECC.sol\":10537:10538  z */\n      dup6\n        /* \"ECC.sol\":10534:10535  z */\n      dup7\n        /* \"ECC.sol\":10527:10544  mulmod(z, z, _pp) */\n      mulmod\n        /* \"ECC.sol\":10522:10525  _aa */\n      dup13\n        /* \"ECC.sol\":10515:10550  mulmod(_aa, mulmod(z, z, _pp), _pp) */\n      mulmod\n        /* \"ECC.sol\":10509:10512  _pp */\n      dup11\n        /* \"ECC.sol\":10496:10513  mulmod(3, x, _pp) */\n      dup1\n      tag_583\n      jumpi\n      invalid\n    tag_583:\n        /* \"ECC.sol\":10506:10507  x */\n      dup8\n        /* \"ECC.sol\":10503:10504  3 */\n      0x03\n        /* \"ECC.sol\":10496:10513  mulmod(3, x, _pp) */\n      mulmod\n        /* \"ECC.sol\":10489:10556  addmod(mulmod(3, x, _pp), mulmod(_aa, mulmod(z, z, _pp), _pp), _pp) */\n      addmod\n        /* \"ECC.sol\":10480:10556  uint m = addmod(mulmod(3, x, _pp), mulmod(_aa, mulmod(z, z, _pp), _pp), _pp) */\n      swap1\n      pop\n        /* \"ECC.sol\":10807:10810  _pp */\n      dup9\n        /* \"ECC.sol\":10756:10811  addmod(mulmod(m, m, _pp), _pp - addmod(s, s, _pp), _pp) */\n      dup1\n      tag_584\n      jumpi\n      invalid\n    tag_584:\n        /* \"ECC.sol\":10801:10804  _pp */\n      dup10\n        /* \"ECC.sol\":10788:10805  addmod(s, s, _pp) */\n      dup1\n      tag_585\n      jumpi\n      invalid\n    tag_585:\n        /* \"ECC.sol\":10798:10799  s */\n      dup4\n        /* \"ECC.sol\":10795:10796  s */\n      dup5\n        /* \"ECC.sol\":10788:10805  addmod(s, s, _pp) */\n      addmod\n        /* \"ECC.sol\":10782:10785  _pp */\n      dup11\n        /* \"ECC.sol\":10782:10805  _pp - addmod(s, s, _pp) */\n      sub\n        /* \"ECC.sol\":10776:10779  _pp */\n      dup11\n        /* \"ECC.sol\":10763:10780  mulmod(m, m, _pp) */\n      dup1\n      tag_586\n      jumpi\n      invalid\n    tag_586:\n        /* \"ECC.sol\":10773:10774  m */\n      dup4\n        /* \"ECC.sol\":10770:10771  m */\n      dup5\n        /* \"ECC.sol\":10763:10780  mulmod(m, m, _pp) */\n      mulmod\n        /* \"ECC.sol\":10756:10811  addmod(mulmod(m, m, _pp), _pp - addmod(s, s, _pp), _pp) */\n      addmod\n        /* \"ECC.sol\":10752:10811  x = addmod(mulmod(m, m, _pp), _pp - addmod(s, s, _pp), _pp) */\n      swap5\n      pop\n        /* \"ECC.sol\":10941:10944  _pp */\n      dup9\n        /* \"ECC.sol\":10852:10945  addmod(mulmod(m, addmod(s, _pp - x, _pp), _pp), _pp - mulmod(8, mulmod(y, y, _pp), _pp), _pp) */\n      dup1\n      tag_587\n      jumpi\n      invalid\n    tag_587:\n        /* \"ECC.sol\":10935:10938  _pp */\n      dup10\n        /* \"ECC.sol\":10906:10939  mulmod(8, mulmod(y, y, _pp), _pp) */\n      dup1\n      tag_588\n      jumpi\n      invalid\n    tag_588:\n        /* \"ECC.sol\":10929:10932  _pp */\n      dup11\n        /* \"ECC.sol\":10916:10933  mulmod(y, y, _pp) */\n      dup1\n      tag_589\n      jumpi\n      invalid\n    tag_589:\n        /* \"ECC.sol\":10926:10927  y */\n      dup7\n        /* \"ECC.sol\":10923:10924  y */\n      dup8\n        /* \"ECC.sol\":10916:10933  mulmod(y, y, _pp) */\n      mulmod\n        /* \"ECC.sol\":10913:10914  8 */\n      0x08\n        /* \"ECC.sol\":10906:10939  mulmod(8, mulmod(y, y, _pp), _pp) */\n      mulmod\n        /* \"ECC.sol\":10900:10903  _pp */\n      dup11\n        /* \"ECC.sol\":10900:10939  _pp - mulmod(8, mulmod(y, y, _pp), _pp) */\n      sub\n        /* \"ECC.sol\":10894:10897  _pp */\n      dup11\n        /* \"ECC.sol\":10859:10898  mulmod(m, addmod(s, _pp - x, _pp), _pp) */\n      dup1\n      tag_590\n      jumpi\n      invalid\n    tag_590:\n        /* \"ECC.sol\":10888:10891  _pp */\n      dup12\n        /* \"ECC.sol\":10869:10892  addmod(s, _pp - x, _pp) */\n      dup1\n      tag_591\n      jumpi\n      invalid\n    tag_591:\n        /* \"ECC.sol\":10885:10886  x */\n      dup9\n        /* \"ECC.sol\":10879:10882  _pp */\n      dup14\n        /* \"ECC.sol\":10879:10886  _pp - x */\n      sub\n        /* \"ECC.sol\":10876:10877  s */\n      dup7\n        /* \"ECC.sol\":10869:10892  addmod(s, _pp - x, _pp) */\n      addmod\n        /* \"ECC.sol\":10866:10867  m */\n      dup5\n        /* \"ECC.sol\":10859:10898  mulmod(m, addmod(s, _pp - x, _pp), _pp) */\n      mulmod\n        /* \"ECC.sol\":10852:10945  addmod(mulmod(m, addmod(s, _pp - x, _pp), _pp), _pp - mulmod(8, mulmod(y, y, _pp), _pp), _pp) */\n      addmod\n        /* \"ECC.sol\":10848:10945  y = addmod(mulmod(m, addmod(s, _pp - x, _pp), _pp), _pp - mulmod(8, mulmod(y, y, _pp), _pp), _pp) */\n      swap4\n      pop\n        /* \"ECC.sol\":11008:11011  _pp */\n      dup9\n        /* \"ECC.sol\":10977:11012  mulmod(2, mulmod(_y, _z, _pp), _pp) */\n      dup1\n      tag_592\n      jumpi\n      invalid\n    tag_592:\n        /* \"ECC.sol\":11002:11005  _pp */\n      dup10\n        /* \"ECC.sol\":10987:11006  mulmod(_y, _z, _pp) */\n      dup1\n      tag_593\n      jumpi\n      invalid\n    tag_593:\n        /* \"ECC.sol\":10998:11000  _z */\n      dup13\n        /* \"ECC.sol\":10994:10996  _y */\n      dup15\n        /* \"ECC.sol\":10987:11006  mulmod(_y, _z, _pp) */\n      mulmod\n        /* \"ECC.sol\":10984:10985  2 */\n      0x02\n        /* \"ECC.sol\":10977:11012  mulmod(2, mulmod(_y, _z, _pp), _pp) */\n      mulmod\n        /* \"ECC.sol\":11029:11030  x */\n      swap5\n      swap8\n      pop\n        /* \"ECC.sol\":11032:11033  y */\n      swap3\n      swap6\n      pop\n        /* \"ECC.sol\":10973:11012  z = mulmod(2, mulmod(_y, _z, _pp), _pp) */\n      swap3\n      swap4\n      pop\n      pop\n      pop\n      pop\n        /* \"ECC.sol\":9766:11043  function jacDouble(\r... */\n    tag_573:\n      swap6\n      pop\n      swap6\n      pop\n      swap6\n      swap3\n      pop\n      pop\n      pop\n      jump\t// out\n        /* \"ECC.sol\":7780:9486  function jacAdd(\r... */\n    tag_556:\n        /* \"ECC.sol\":7949:7956  uint256 */\n      0x00\n      dup1\n      dup1\n        /* \"ECC.sol\":7990:7996  _x1==0 */\n      dup10\n      iszero\n        /* \"ECC.sol\":7990:8006  _x1==0 && _y1==0 */\n      dup1\n      iszero\n      tag_595\n      jumpi\n      pop\n        /* \"ECC.sol\":8000:8006  _y1==0 */\n      dup9\n      iszero\n        /* \"ECC.sol\":7990:8006  _x1==0 && _y1==0 */\n    tag_595:\n        /* \"ECC.sol\":7986:8037  if (_x1==0 && _y1==0)\r... */\n      iszero\n      tag_596\n      jumpi\n      pop\n        /* \"ECC.sol\":8023:8026  _x2 */\n      dup6\n      swap2\n      pop\n        /* \"ECC.sol\":8028:8031  _y2 */\n      dup5\n      swap1\n      pop\n        /* \"ECC.sol\":8033:8036  _z2 */\n      dup4\n        /* \"ECC.sol\":8015:8037  return (_x2, _y2, _z2) */\n      jump(tag_594)\n        /* \"ECC.sol\":7986:8037  if (_x1==0 && _y1==0)\r... */\n    tag_596:\n        /* \"ECC.sol\":8048:8054  _x2==0 */\n      dup7\n      iszero\n        /* \"ECC.sol\":8048:8064  _x2==0 && _y2==0 */\n      dup1\n      iszero\n      tag_597\n      jumpi\n      pop\n        /* \"ECC.sol\":8058:8064  _y2==0 */\n      dup6\n      iszero\n        /* \"ECC.sol\":8048:8064  _x2==0 && _y2==0 */\n    tag_597:\n        /* \"ECC.sol\":8044:8095  if (_x2==0 && _y2==0)\r... */\n      iszero\n      tag_598\n      jumpi\n      pop\n        /* \"ECC.sol\":8081:8084  _x1 */\n      dup9\n      swap2\n      pop\n        /* \"ECC.sol\":8086:8089  _y1 */\n      dup8\n      swap1\n      pop\n        /* \"ECC.sol\":8091:8094  _z1 */\n      dup7\n        /* \"ECC.sol\":8073:8095  return (_x1, _y1, _z1) */\n      jump(tag_594)\n        /* \"ECC.sol\":8044:8095  if (_x2==0 && _y2==0)\r... */\n    tag_598:\n        /* \"ECC.sol\":8238:8255  uint[4] memory zs */\n      tag_599\n      tag_600\n      jump\t// in\n    tag_599:\n        /* \"ECC.sol\":8313:8316  _pp */\n      dup5\n        /* \"ECC.sol\":8296:8317  mulmod(_z1, _z1, _pp) */\n      dup1\n      tag_601\n      jumpi\n      invalid\n    tag_601:\n        /* \"ECC.sol\":8308:8311  _z1 */\n      dup10\n        /* \"ECC.sol\":8303:8306  _z1 */\n      dup11\n        /* \"ECC.sol\":8296:8317  mulmod(_z1, _z1, _pp) */\n      mulmod\n        /* \"ECC.sol\":8288:8317  zs[0] = mulmod(_z1, _z1, _pp) */\n      dup2\n      mstore\n        /* \"ECC.sol\":8351:8354  _pp */\n      dup5\n      dup1\n        /* \"ECC.sol\":8332:8355  mulmod(_z1, zs[0], _pp) */\n      tag_603\n      jumpi\n      invalid\n    tag_603:\n        /* \"ECC.sol\":8344:8349  zs[0] */\n      dup2\n      mload\n        /* \"ECC.sol\":8339:8342  _z1 */\n      dup11\n        /* \"ECC.sol\":8332:8355  mulmod(_z1, zs[0], _pp) */\n      mulmod\n        /* \"ECC.sol\":8324:8329  zs[1] */\n      0x20\n      dup3\n      add\n        /* \"ECC.sol\":8324:8355  zs[1] = mulmod(_z1, zs[0], _pp) */\n      mstore\n        /* \"ECC.sol\":8387:8390  _pp */\n      dup5\n      dup1\n        /* \"ECC.sol\":8370:8391  mulmod(_z2, _z2, _pp) */\n      tag_606\n      jumpi\n      invalid\n    tag_606:\n        /* \"ECC.sol\":8382:8385  _z2 */\n      dup7\n        /* \"ECC.sol\":8377:8380  _z2 */\n      dup8\n        /* \"ECC.sol\":8370:8391  mulmod(_z2, _z2, _pp) */\n      mulmod\n        /* \"ECC.sol\":8362:8367  zs[2] */\n      0x40\n      dup3\n      add\n        /* \"ECC.sol\":8362:8391  zs[2] = mulmod(_z2, _z2, _pp) */\n      mstore\n        /* \"ECC.sol\":8425:8428  _pp */\n      dup5\n      dup1\n        /* \"ECC.sol\":8406:8429  mulmod(_z2, zs[2], _pp) */\n      tag_608\n      jumpi\n      invalid\n    tag_608:\n        /* \"ECC.sol\":8418:8423  zs[2] */\n      0x40\n      dup3\n      add\n      mload\n        /* \"ECC.sol\":8413:8416  _z2 */\n      dup8\n        /* \"ECC.sol\":8406:8429  mulmod(_z2, zs[2], _pp) */\n      mulmod\n        /* \"ECC.sol\":8398:8403  zs[3] */\n      0x60\n      dup3\n      add\n        /* \"ECC.sol\":8398:8429  zs[3] = mulmod(_z2, zs[2], _pp) */\n      mstore\n        /* \"ECC.sol\":8461:8601  zs = [\r... */\n      0x40\n      dup1\n      mload\n      0x80\n      dup2\n      add\n      swap1\n      swap2\n      mstore\n      dup1\n        /* \"ECC.sol\":8494:8497  _pp */\n      dup7\n      dup1\n        /* \"ECC.sol\":8475:8498  mulmod(_x1, zs[2], _pp) */\n      tag_611\n      jumpi\n      invalid\n    tag_611:\n        /* \"ECC.sol\":8487:8492  zs[2] */\n      0x40\n      dup5\n      add\n      mload\n        /* \"ECC.sol\":8482:8485  _x1 */\n      dup15\n        /* \"ECC.sol\":8475:8498  mulmod(_x1, zs[2], _pp) */\n      mulmod\n        /* \"ECC.sol\":8461:8601  zs = [\r... */\n      dup2\n      mstore\n      0x20\n      add\n        /* \"ECC.sol\":8526:8529  _pp */\n      dup7\n        /* \"ECC.sol\":8507:8530  mulmod(_y1, zs[3], _pp) */\n      dup1\n      tag_613\n      jumpi\n      invalid\n    tag_613:\n        /* \"ECC.sol\":8519:8524  zs[3] */\n      0x60\n      dup5\n      add\n      mload\n        /* \"ECC.sol\":8514:8517  _y1 */\n      dup14\n        /* \"ECC.sol\":8507:8530  mulmod(_y1, zs[3], _pp) */\n      mulmod\n        /* \"ECC.sol\":8461:8601  zs = [\r... */\n      dup2\n      mstore\n      0x20\n      add\n        /* \"ECC.sol\":8558:8561  _pp */\n      dup7\n        /* \"ECC.sol\":8539:8562  mulmod(_x2, zs[0], _pp) */\n      dup1\n      tag_615\n      jumpi\n      invalid\n    tag_615:\n        /* \"ECC.sol\":8551:8556  zs[0] */\n      dup4\n      mload\n        /* \"ECC.sol\":8546:8549  _x2 */\n      dup12\n        /* \"ECC.sol\":8539:8562  mulmod(_x2, zs[0], _pp) */\n      mulmod\n        /* \"ECC.sol\":8461:8601  zs = [\r... */\n      dup2\n      mstore\n      0x20\n      add\n        /* \"ECC.sol\":8590:8593  _pp */\n      dup7\n        /* \"ECC.sol\":8571:8594  mulmod(_y2, zs[1], _pp) */\n      dup1\n      tag_617\n      jumpi\n      invalid\n    tag_617:\n        /* \"ECC.sol\":8583:8588  zs[1] */\n      0x20\n      dup5\n      add\n      mload\n        /* \"ECC.sol\":8578:8581  _y2 */\n      dup11\n        /* \"ECC.sol\":8571:8594  mulmod(_y2, zs[1], _pp) */\n      mulmod\n        /* \"ECC.sol\":8461:8601  zs = [\r... */\n      swap1\n      mstore\n        /* \"ECC.sol\":8711:8716  zs[2] */\n      0x40\n      dup2\n      add\n      mload\n        /* \"ECC.sol\":8702:8707  zs[0] */\n      dup2\n      mload\n        /* \"ECC.sol\":8461:8601  zs = [\r... */\n      swap2\n      swap3\n      pop\n        /* \"ECC.sol\":8702:8716  zs[0] != zs[2] */\n      eq\n      iszero\n      dup1\n        /* \"ECC.sol\":8702:8734  zs[0] != zs[2] || zs[1] != zs[3] */\n      tag_621\n      jumpi\n      pop\n        /* \"ECC.sol\":8729:8734  zs[3] */\n      0x60\n      dup2\n      add\n      mload\n      0x20\n        /* \"ECC.sol\":8720:8725  zs[1] */\n      dup3\n      add\n      mload\n        /* \"ECC.sol\":8720:8734  zs[1] != zs[3] */\n      eq\n      iszero\n        /* \"ECC.sol\":8702:8734  zs[0] != zs[2] || zs[1] != zs[3] */\n    tag_621:\n        /* \"ECC.sol\":8694:8769  require(zs[0] != zs[2] || zs[1] != zs[3], \"Use jacDouble function instead\") */\n      tag_624\n      jumpi\n      0x40\n      dup1\n      mload\n      shl(0xe5, 0x461bcd)\n      dup2\n      mstore\n      0x20\n      0x04\n      dup3\n      add\n      mstore\n      0x1e\n      0x24\n      dup3\n      add\n      mstore\n      0x557365206a6163446f75626c652066756e6374696f6e20696e73746561640000\n      0x44\n      dup3\n      add\n      mstore\n      swap1\n      mload\n      swap1\n      dup2\n      swap1\n      sub\n      0x64\n      add\n      swap1\n      revert\n    tag_624:\n        /* \"ECC.sol\":8778:8795  uint[4] memory hr */\n      tag_625\n      tag_600\n      jump\t// in\n    tag_625:\n        /* \"ECC.sol\":8846:8849  _pp */\n      dup6\n        /* \"ECC.sol\":8819:8850  addmod(zs[2], _pp - zs[0], _pp) */\n      dup1\n      tag_626\n      jumpi\n      invalid\n    tag_626:\n        /* \"ECC.sol\":8839:8844  zs[0] */\n      dup3\n      mload\n        /* \"ECC.sol\":8826:8831  zs[2] */\n      0x40\n      dup5\n      add\n      mload\n        /* \"ECC.sol\":8833:8844  _pp - zs[0] */\n      swap1\n      dup9\n      sub\n      swap1\n        /* \"ECC.sol\":8819:8850  addmod(zs[2], _pp - zs[0], _pp) */\n      addmod\n        /* \"ECC.sol\":8811:8850  hr[0] = addmod(zs[2], _pp - zs[0], _pp) */\n      dup2\n      mstore\n        /* \"ECC.sol\":8901:8904  _pp */\n      dup6\n      dup1\n        /* \"ECC.sol\":8874:8905  addmod(zs[3], _pp - zs[1], _pp) */\n      tag_630\n      jumpi\n      invalid\n    tag_630:\n        /* \"ECC.sol\":8894:8899  zs[1] */\n      0x20\n      dup4\n      add\n      mload\n        /* \"ECC.sol\":8881:8886  zs[3] */\n      0x60\n      dup5\n      add\n      mload\n        /* \"ECC.sol\":8888:8899  _pp - zs[1] */\n      swap1\n      dup9\n      sub\n      swap1\n        /* \"ECC.sol\":8874:8905  addmod(zs[3], _pp - zs[1], _pp) */\n      addmod\n        /* \"ECC.sol\":8866:8871  hr[1] */\n      0x20\n      dup3\n      add\n        /* \"ECC.sol\":8866:8905  hr[1] = addmod(zs[3], _pp - zs[1], _pp) */\n      mstore\n        /* \"ECC.sol\":8952:8955  _pp */\n      dup6\n      dup1\n        /* \"ECC.sol\":8931:8956  mulmod(hr[0], hr[0], _pp) */\n      tag_634\n      jumpi\n      invalid\n    tag_634:\n        /* \"ECC.sol\":8945:8950  hr[0] */\n      dup2\n      mload\n      dup1\n        /* \"ECC.sol\":8931:8956  mulmod(hr[0], hr[0], _pp) */\n      mulmod\n        /* \"ECC.sol\":8923:8928  hr[2] */\n      0x40\n      dup3\n      add\n        /* \"ECC.sol\":8923:8956  hr[2] = mulmod(hr[0], hr[0], _pp) */\n      mstore\n        /* \"ECC.sol\":9004:9007  _pp */\n      dup6\n      dup1\n        /* \"ECC.sol\":8983:9008  mulmod(hr[2], hr[0], _pp) */\n      tag_638\n      jumpi\n      invalid\n    tag_638:\n        /* \"ECC.sol\":8997:9002  hr[0] */\n      dup2\n      mload\n        /* \"ECC.sol\":8990:8995  hr[2] */\n      0x40\n      dup4\n      add\n      mload\n        /* \"ECC.sol\":8983:9008  mulmod(hr[2], hr[0], _pp) */\n      mulmod\n        /* \"ECC.sol\":8975:8980  hr[3] */\n      0x60\n      dup3\n      add\n        /* \"ECC.sol\":8975:9008  hr[3] = mulmod(hr[2], hr[0], _pp) */\n      mstore\n        /* \"ECC.sol\":9046:9056  uint256 qx */\n      0x00\n        /* \"ECC.sol\":9106:9109  _pp */\n      dup7\n      dup1\n        /* \"ECC.sol\":9059:9110  addmod(mulmod(hr[1], hr[1], _pp), _pp - hr[3], _pp) */\n      tag_642\n      jumpi\n      invalid\n    tag_642:\n        /* \"ECC.sol\":9099:9104  hr[3] */\n      0x60\n      dup4\n      add\n      mload\n        /* \"ECC.sol\":9093:9104  _pp - hr[3] */\n      dup9\n      sub\n        /* \"ECC.sol\":9093:9096  _pp */\n      dup9\n      dup1\n        /* \"ECC.sol\":9066:9091  mulmod(hr[1], hr[1], _pp) */\n      tag_644\n      jumpi\n      invalid\n    tag_644:\n        /* \"ECC.sol\":9080:9085  hr[1] */\n      0x20\n      dup6\n      add\n      mload\n      dup1\n        /* \"ECC.sol\":9066:9091  mulmod(hr[1], hr[1], _pp) */\n      mulmod\n        /* \"ECC.sol\":9059:9110  addmod(mulmod(hr[1], hr[1], _pp), _pp - hr[3], _pp) */\n      addmod\n        /* \"ECC.sol\":9046:9110  uint256 qx = addmod(mulmod(hr[1], hr[1], _pp), _pp - hr[3], _pp) */\n      swap1\n      pop\n        /* \"ECC.sol\":9182:9185  _pp */\n      dup7\n        /* \"ECC.sol\":9122:9186  addmod(qx, _pp - mulmod(2, mulmod(zs[0], hr[2], _pp), _pp), _pp) */\n      dup1\n      tag_647\n      jumpi\n      invalid\n    tag_647:\n        /* \"ECC.sol\":9176:9179  _pp */\n      dup8\n        /* \"ECC.sol\":9139:9180  mulmod(2, mulmod(zs[0], hr[2], _pp), _pp) */\n      dup1\n      tag_648\n      jumpi\n      invalid\n    tag_648:\n        /* \"ECC.sol\":9170:9173  _pp */\n      dup9\n        /* \"ECC.sol\":9149:9174  mulmod(zs[0], hr[2], _pp) */\n      dup1\n      tag_649\n      jumpi\n      invalid\n    tag_649:\n        /* \"ECC.sol\":9163:9168  hr[2] */\n      0x40\n      dup6\n      add\n      mload\n        /* \"ECC.sol\":9156:9161  zs[0] */\n      dup7\n      mload\n        /* \"ECC.sol\":9149:9174  mulmod(zs[0], hr[2], _pp) */\n      mulmod\n        /* \"ECC.sol\":9146:9147  2 */\n      0x02\n        /* \"ECC.sol\":9139:9180  mulmod(2, mulmod(zs[0], hr[2], _pp), _pp) */\n      mulmod\n        /* \"ECC.sol\":9133:9136  _pp */\n      dup9\n        /* \"ECC.sol\":9133:9180  _pp - mulmod(2, mulmod(zs[0], hr[2], _pp), _pp) */\n      sub\n        /* \"ECC.sol\":9129:9131  qx */\n      dup3\n        /* \"ECC.sol\":9122:9186  addmod(qx, _pp - mulmod(2, mulmod(zs[0], hr[2], _pp), _pp), _pp) */\n      addmod\n        /* \"ECC.sol\":9117:9186  qx = addmod(qx, _pp - mulmod(2, mulmod(zs[0], hr[2], _pp), _pp), _pp) */\n      swap1\n      pop\n        /* \"ECC.sol\":9232:9242  uint256 qy */\n      0x00\n        /* \"ECC.sol\":9309:9312  _pp */\n      dup8\n        /* \"ECC.sol\":9245:9313  mulmod(hr[1], addmod(mulmod(zs[0], hr[2], _pp), _pp - qx, _pp), _pp) */\n      dup1\n      tag_652\n      jumpi\n      invalid\n    tag_652:\n        /* \"ECC.sol\":9303:9306  _pp */\n      dup9\n        /* \"ECC.sol\":9259:9307  addmod(mulmod(zs[0], hr[2], _pp), _pp - qx, _pp) */\n      dup1\n      tag_653\n      jumpi\n      invalid\n    tag_653:\n        /* \"ECC.sol\":9299:9301  qx */\n      dup4\n        /* \"ECC.sol\":9293:9296  _pp */\n      dup11\n        /* \"ECC.sol\":9293:9301  _pp - qx */\n      sub\n        /* \"ECC.sol\":9287:9290  _pp */\n      dup11\n        /* \"ECC.sol\":9266:9291  mulmod(zs[0], hr[2], _pp) */\n      dup1\n      tag_654\n      jumpi\n      invalid\n    tag_654:\n        /* \"ECC.sol\":9280:9285  hr[2] */\n      0x40\n      dup8\n      add\n      mload\n        /* \"ECC.sol\":9273:9278  zs[0] */\n      dup9\n      mload\n        /* \"ECC.sol\":9266:9291  mulmod(zs[0], hr[2], _pp) */\n      mulmod\n        /* \"ECC.sol\":9259:9307  addmod(mulmod(zs[0], hr[2], _pp), _pp - qx, _pp) */\n      addmod\n        /* \"ECC.sol\":9252:9257  hr[1] */\n      0x20\n      dup6\n      add\n      mload\n        /* \"ECC.sol\":9245:9313  mulmod(hr[1], addmod(mulmod(zs[0], hr[2], _pp), _pp - qx, _pp), _pp) */\n      mulmod\n        /* \"ECC.sol\":9232:9313  uint256 qy = mulmod(hr[1], addmod(mulmod(zs[0], hr[2], _pp), _pp - qx, _pp), _pp) */\n      swap1\n      pop\n        /* \"ECC.sol\":9369:9372  _pp */\n      dup8\n        /* \"ECC.sol\":9325:9373  addmod(qy, _pp - mulmod(zs[1], hr[3], _pp), _pp) */\n      dup1\n      tag_658\n      jumpi\n      invalid\n    tag_658:\n        /* \"ECC.sol\":9363:9366  _pp */\n      dup9\n        /* \"ECC.sol\":9342:9367  mulmod(zs[1], hr[3], _pp) */\n      dup1\n      tag_659\n      jumpi\n      invalid\n    tag_659:\n        /* \"ECC.sol\":9356:9361  hr[3] */\n      0x60\n      dup6\n      add\n      mload\n      0x20\n        /* \"ECC.sol\":9349:9354  zs[1] */\n      dup8\n      add\n      mload\n        /* \"ECC.sol\":9342:9367  mulmod(zs[1], hr[3], _pp) */\n      mulmod\n        /* \"ECC.sol\":9336:9339  _pp */\n      dup10\n        /* \"ECC.sol\":9336:9367  _pp - mulmod(zs[1], hr[3], _pp) */\n      sub\n        /* \"ECC.sol\":9332:9334  qy */\n      dup3\n        /* \"ECC.sol\":9325:9373  addmod(qy, _pp - mulmod(zs[1], hr[3], _pp), _pp) */\n      addmod\n        /* \"ECC.sol\":9320:9373  qy = addmod(qy, _pp - mulmod(zs[1], hr[3], _pp), _pp) */\n      swap1\n      pop\n        /* \"ECC.sol\":9401:9411  uint256 qz */\n      0x00\n        /* \"ECC.sol\":9451:9454  _pp */\n      dup9\n        /* \"ECC.sol\":9414:9455  mulmod(hr[0], mulmod(_z1, _z2, _pp), _pp) */\n      dup1\n      tag_662\n      jumpi\n      invalid\n    tag_662:\n        /* \"ECC.sol\":9445:9448  _pp */\n      dup10\n        /* \"ECC.sol\":9428:9449  mulmod(_z1, _z2, _pp) */\n      dup1\n      tag_663\n      jumpi\n      invalid\n    tag_663:\n        /* \"ECC.sol\":9440:9443  _z2 */\n      dup12\n        /* \"ECC.sol\":9435:9438  _z1 */\n      dup16\n        /* \"ECC.sol\":9428:9449  mulmod(_z1, _z2, _pp) */\n      mulmod\n        /* \"ECC.sol\":9421:9426  hr[0] */\n      dup6\n      mload\n        /* \"ECC.sol\":9414:9455  mulmod(hr[0], mulmod(_z1, _z2, _pp), _pp) */\n      mulmod\n        /* \"ECC.sol\":9469:9471  qx */\n      swap3\n      swap8\n      pop\n        /* \"ECC.sol\":9473:9475  qy */\n      swap1\n      swap6\n      pop\n        /* \"ECC.sol\":9401:9455  uint256 qz = mulmod(hr[0], mulmod(_z1, _z2, _pp), _pp) */\n      swap1\n      swap4\n      pop\n      pop\n      pop\n      pop\n        /* \"ECC.sol\":7780:9486  function jacAdd(\r... */\n    tag_594:\n      swap8\n      pop\n      swap8\n      pop\n      swap8\n      swap5\n      pop\n      pop\n      pop\n      pop\n      pop\n      jump\t// out\n        /* \"ECC.sol\":721:1121  function invMod(uint256 _x, uint256 _pp) internal pure returns (uint256) {\r... */\n    tag_568:\n        /* \"ECC.sol\":785:792  uint256 */\n      0x00\n        /* \"ECC.sol\":809:816  _x != 0 */\n      dup3\n      iszero\n      dup1\n      iszero\n      swap1\n        /* \"ECC.sol\":809:829  _x != 0 && _x != _pp */\n      tag_666\n      jumpi\n      pop\n        /* \"ECC.sol\":826:829  _pp */\n      dup2\n        /* \"ECC.sol\":820:822  _x */\n      dup4\n        /* \"ECC.sol\":820:829  _x != _pp */\n      eq\n      iszero\n        /* \"ECC.sol\":809:829  _x != 0 && _x != _pp */\n    tag_666:\n        /* \"ECC.sol\":809:841  _x != 0 && _x != _pp && _pp != 0 */\n      dup1\n      iszero\n      tag_667\n      jumpi\n      pop\n        /* \"ECC.sol\":833:841  _pp != 0 */\n      dup2\n      iszero\n      iszero\n        /* \"ECC.sol\":809:841  _x != 0 && _x != _pp && _pp != 0 */\n    tag_667:\n        /* \"ECC.sol\":801:860  require(_x != 0 && _x != _pp && _pp != 0, \"Invalid number\") */\n      tag_668\n      jumpi\n      0x40\n      dup1\n      mload\n      shl(0xe5, 0x461bcd)\n      dup2\n      mstore\n      0x20\n      0x04\n      dup3\n      add\n      mstore\n      0x0e\n      0x24\n      dup3\n      add\n      mstore\n      shl(0x91, 0x24b73b30b634b210373ab6b132b9)\n      0x44\n      dup3\n      add\n      mstore\n      swap1\n      mload\n      swap1\n      dup2\n      swap1\n      sub\n      0x64\n      add\n      swap1\n      revert\n    tag_668:\n        /* \"ECC.sol\":867:876  uint256 q */\n      0x00\n        /* \"ECC.sol\":902:903  1 */\n      0x01\n        /* \"ECC.sol\":922:925  _pp */\n      dup4\n        /* \"ECC.sol\":867:876  uint256 q */\n      dup3\n        /* \"ECC.sol\":948:1099  while (_x != 0) {\r... */\n    tag_669:\n        /* \"ECC.sol\":955:962  _x != 0 */\n      dup7\n      iszero\n        /* \"ECC.sol\":948:1099  while (_x != 0) {\r... */\n      tag_670\n      jumpi\n        /* \"ECC.sol\":981:983  _x */\n      dup7\n        /* \"ECC.sol\":977:978  r */\n      dup3\n        /* \"ECC.sol\":977:983  r / _x */\n      dup2\n      tag_671\n      jumpi\n      invalid\n    tag_671:\n      div\n        /* \"ECC.sol\":973:983  t = r / _x */\n      swap1\n      pop\n        /* \"ECC.sol\":1005:1009  newT */\n      dup3\n        /* \"ECC.sol\":1051:1054  _pp */\n      dup7\n        /* \"ECC.sol\":1011:1055  addmod(q, (_pp - mulmod(t, newT, _pp)), _pp) */\n      dup1\n      tag_672\n      jumpi\n      invalid\n    tag_672:\n        /* \"ECC.sol\":1044:1047  _pp */\n      dup8\n        /* \"ECC.sol\":1028:1048  mulmod(t, newT, _pp) */\n      dup1\n      tag_673\n      jumpi\n      invalid\n    tag_673:\n        /* \"ECC.sol\":1038:1042  newT */\n      dup6\n        /* \"ECC.sol\":1035:1036  t */\n      dup5\n        /* \"ECC.sol\":1028:1048  mulmod(t, newT, _pp) */\n      mulmod\n        /* \"ECC.sol\":1022:1025  _pp */\n      dup9\n        /* \"ECC.sol\":1022:1048  _pp - mulmod(t, newT, _pp) */\n      sub\n        /* \"ECC.sol\":1018:1019  q */\n      dup7\n        /* \"ECC.sol\":1011:1055  addmod(q, (_pp - mulmod(t, newT, _pp)), _pp) */\n      addmod\n        /* \"ECC.sol\":1084:1090  t * _x */\n      dup3\n      dup10\n      mul\n        /* \"ECC.sol\":1080:1090  r - t * _x */\n      swap1\n      swap4\n      sub\n      swap8\n        /* \"ECC.sol\":992:1056  (q, newT) = (newT, addmod(q, (_pp - mulmod(t, newT, _pp)), _pp)) */\n      swap1\n      swap5\n      pop\n      swap2\n      swap3\n      pop\n        /* \"ECC.sol\":948:1099  while (_x != 0) {\r... */\n      jump(tag_669)\n    tag_670:\n      pop\n        /* \"ECC.sol\":1114:1115  q */\n      swap2\n      swap6\n        /* \"ECC.sol\":721:1121  function invMod(uint256 _x, uint256 _pp) internal pure returns (uint256) {\r... */\n      swap5\n      pop\n      pop\n      pop\n      pop\n      pop\n      jump\t// out\n        /* \"Vote2.sol\":386:12002  contract vote{\r... */\n    tag_432:\n      dup3\n      dup1\n      sload\n      0x01\n      dup2\n      0x01\n      and\n      iszero\n      0x0100\n      mul\n      sub\n      and\n      0x02\n      swap1\n      div\n      swap1\n      0x00\n      mstore\n      keccak256(0x00, 0x20)\n      swap1\n      0x1f\n      add\n      0x20\n      swap1\n      div\n      dup2\n      add\n      swap3\n      dup3\n      0x1f\n      lt\n      tag_675\n      jumpi\n      dup1\n      mload\n      not(0xff)\n      and\n      dup4\n      dup1\n      add\n      or\n      dup6\n      sstore\n      jump(tag_677)\n    tag_675:\n      dup3\n      dup1\n      add\n      0x01\n      add\n      dup6\n      sstore\n      dup3\n      iszero\n      tag_677\n      jumpi\n      swap2\n      dup3\n      add\n    tag_676:\n      dup3\n      dup2\n      gt\n      iszero\n      tag_677\n      jumpi\n      dup3\n      mload\n      dup3\n      sstore\n      swap2\n      0x20\n      add\n      swap2\n      swap1\n      0x01\n      add\n      swap1\n      jump(tag_676)\n    tag_677:\n      pop\n      tag_678\n      swap3\n      swap2\n      pop\n      tag_679\n      jump\t// in\n    tag_678:\n      pop\n      swap1\n      jump\t// out\n    tag_477:\n      mload(0x40)\n      dup1\n      0x40\n      add\n      0x40\n      mstore\n      dup1\n      0x60\n      dup2\n      mstore\n      0x20\n      add\n      0x00\n      dup2\n      mstore\n      pop\n      swap1\n      jump\t// out\n    tag_535:\n      dup3\n      dup1\n      sload\n      0x01\n      dup2\n      0x01\n      and\n      iszero\n      0x0100\n      mul\n      sub\n      and\n      0x02\n      swap1\n      div\n      swap1\n      0x00\n      mstore\n      keccak256(0x00, 0x20)\n      swap1\n      0x1f\n      add\n      0x20\n      swap1\n      div\n      dup2\n      add\n      swap3\n      dup3\n      0x1f\n      lt\n      tag_681\n      jumpi\n      dup1\n      sload\n      dup6\n      sstore\n      jump(tag_677)\n    tag_681:\n      dup3\n      dup1\n      add\n      0x01\n      add\n      dup6\n      sstore\n      dup3\n      iszero\n      tag_677\n      jumpi\n      0x00\n      mstore\n      keccak256(0x00, 0x20)\n      swap2\n      0x1f\n      add\n      0x20\n      swap1\n      div\n      dup3\n      add\n    tag_682:\n      dup3\n      dup2\n      gt\n      iszero\n      tag_677\n      jumpi\n      dup3\n      sload\n      dup3\n      sstore\n      swap2\n      0x01\n      add\n      swap2\n      swap1\n      0x01\n      add\n      swap1\n      jump(tag_682)\n    tag_600:\n      mload(0x40)\n      dup1\n      0x80\n      add\n      0x40\n      mstore\n      dup1\n      0x04\n      swap1\n        /* \"--CODEGEN--\":29:31   */\n      0x20\n        /* \"--CODEGEN--\":21:27   */\n      dup3\n        /* \"--CODEGEN--\":17:32   */\n      mul\n        /* \"--CODEGEN--\":125:129   */\n      dup1\n        /* \"--CODEGEN--\":109:123   */\n      calldatasize\n        /* \"--CODEGEN--\":101:107   */\n      dup4\n        /* \"--CODEGEN--\":88:130   */\n      calldatacopy\n      pop\n        /* \"Vote2.sol\":386:12002  contract vote{\r... */\n      swap2\n      swap3\n      swap2\n      pop\n      pop\n      jump\t// out\n    tag_679:\n      tag_444\n      swap2\n      swap1\n    tag_686:\n      dup1\n      dup3\n      gt\n      iszero\n      tag_678\n      jumpi\n      0x00\n      dup2\n      sstore\n      0x01\n      add\n      jump(tag_686)\n    stop\n    data_1daeff61fd986edf5d823d715532dcfe6ec9ea427c85800271e0d847a34dbe18 483ada7726a3c4655da4fbfc0e1108a8fd17b448a68554199c47d08ffb10d4b8\n    data_bd48405ed3251dbb9f783c5a51cbf46016252921b268ebd47d0a0389f7b93cc0 79be667ef9dcbbac55a06295ce870b07029bfcdb2dce28d959f2815b16f81798\n\n    auxdata: 0xa2646970667358221220a855db659f5a85d8f138a4fef70683ecbf03fd5d660af31198d95b43f6a008e064736f6c63430006060033\n}\n","bytecode":{"linkReferences":{},"object":"608060405234801561001057600080fd5b506040516130a93803806130a98339818101604052602081101561003357600080fd5b5051600580546001600160a01b0319166001600160a01b03909216919091179055601480546000196012556000600881905561ffff199091169091558080557f79be667ef9dcbbac55a06295ce870b07029bfcdb2dce28d959f2815b16f817986001557f483ada7726a3c4655da4fbfc0e1108a8fd17b448a68554199c47d08ffb10d4b8600255612fdf9081906100ca90396000f3fe608060405234801561001057600080fd5b506004361061028a5760003560e01c806378cff08b1161015c578063c65fb380116100ce578063e0f3615d11610087578063e0f3615d14610b4d578063e838018714610b55578063ed8b6b3114610c9e578063ee58b14114610cbb578063eeeac01e14610ce1578063f00dd10e14610ce95761028a565b8063c65fb380146109c7578063c68a11c2146109cf578063c7b2805014610afa578063d5ffc44914610b02578063d78e4d9d14610b1f578063dfbf53ae14610b455761028a565b80639998c692116101205780639998c69214610858578063a16dcc6514610860578063abf68fcc14610868578063af7789e614610870578063c19d93fb14610993578063c3e50f09146109bf5761028a565b806378cff08b146107ff5780637a308a4c1461081c578063847b6327146108245780638da5cb5b1461082c578063997da8d4146108505761028a565b806339cd1f40116102005780634c01ac97116101b95780634c01ac971461076a57806352f6ee58146107875780635727dc5c1461078f5780635a2ee01914610797578063696f44681461079f5780637284e416146107f75761028a565b806339cd1f40146106385780633c594059146106675780633eb8d9f2146106845780634002bd0d146106a1578063409e22051461074557806343f4dd9f146107625761028a565b806319c7a1651161025257806319c7a165146103ed5780631bd95155146104915780631c32382f146105355780631ed39fc21461053d57806320982bce146105e15780632a251c56146105fe5761028a565b806303a507be1461028f57806303f673ff146102a95780630c1ce9dd146103065780630fe9e0fd1461038357806312045e57146103b7575b600080fd5b610297610d06565b60408051918252519081900360200190f35b6102cf600480360360208110156102bf57600080fd5b50356001600160a01b0316610d18565b604080516001600160a01b039687168152949095166020850152911515838501526060830152608082015290519081900360a00190f35b61030e610d58565b6040805160208082528351818301528351919283929083019185019080838360005b83811015610348578181015183820152602001610330565b50505050905090810190601f1680156103755780820380516001836020036101000a031916815260200191505b509250505060405180910390f35b6103b56004803603606081101561039957600080fd5b50803590602081013590604001356001600160a01b0316610de6565b005b6103d4600480360360208110156103cd57600080fd5b5035610fa7565b6040805192835260208301919091528051918290030190f35b61030e6004803603602081101561040357600080fd5b810190602081018135600160201b81111561041d57600080fd5b82018360208201111561042f57600080fd5b803590602001918460018302840111600160201b8311171561045057600080fd5b91908080601f016020809104026020016040519081016040528093929190818152602001838380828437600092019190915250929550610fe4945050505050565b610297600480360360208110156104a757600080fd5b810190602081018135600160201b8111156104c157600080fd5b8201836020820111156104d357600080fd5b803590602001918460018302840111600160201b831117156104f457600080fd5b91908080601f0160208091040260200160405190810160405280939291908181526020018383808284376000920191909152509295506110d9945050505050565b610297611137565b6102976004803603602081101561055357600080fd5b810190602081018135600160201b81111561056d57600080fd5b82018360208201111561057f57600080fd5b803590602001918460018302840111600160201b831117156105a057600080fd5b91908080601f01602080910402602001604051908101604052809392919081815260200183838082843760009201919091525092955061113d945050505050565b610297600480360360208110156105f757600080fd5b50356111a8565b6106246004803603602081101561061457600080fd5b50356001600160a01b03166111bc565b604080519115158252519081900360200190f35b6103d46004803603608081101561064e57600080fd5b5080359060208101359060408101359060600135611c2f565b6102976004803603602081101561067d57600080fd5b5035611c54565b6106246004803603602081101561069a57600080fd5b5035611c72565b6103b5600480360360208110156106b757600080fd5b810190602081018135600160201b8111156106d157600080fd5b8201836020820111156106e357600080fd5b803590602001918460018302840111600160201b8311171561070457600080fd5b91908080601f016020809104026020016040519081016040528093929190818152602001838380828437600092019190915250929550611cdd945050505050565b61030e6004803603602081101561075b57600080fd5b5035611e30565b610297611ea3565b6106246004803603602081101561078057600080fd5b5035611ea9565b610297611f13565b610297611f19565b610297611f1e565b6107a7611f24565b60408051602080825283518183015283519192839290830191858101910280838360005b838110156107e35781810151838201526020016107cb565b505050509050019250505060405180910390f35b61030e611f7d565b61030e6004803603602081101561081557600080fd5b5035611fd8565b61029761204a565b6103b561205c565b610834612147565b604080516001600160a01b039092168252519081900360200190f35b610297612156565b61029761215b565b610297612161565b610834612167565b6109146004803603602081101561088657600080fd5b810190602081018135600160201b8111156108a057600080fd5b8201836020820111156108b257600080fd5b803590602001918460018302840111600160201b831117156108d357600080fd5b91908080601f016020809104026020016040519081016040528093929190818152602001838380828437600092019190915250929550612176945050505050565b6040518080602001838152602001828103825284818151815260200191508051906020019080838360005b8381101561095757818101518382015260200161093f565b50505050905090810190601f1680156109845780820380516001836020036101000a031916815260200191505b50935050505060405180910390f35b61099b612229565b604051808260038111156109ab57fe5b60ff16815260200191505060405180910390f35b610297612232565b610624612238565b6103b5600480360360608110156109e557600080fd5b810190602081018135600160201b8111156109ff57600080fd5b820183602082011115610a1157600080fd5b803590602001918460018302840111600160201b83111715610a3257600080fd5b91908080601f0160208091040260200160405190810160405280939291908181526020018383808284376000920191909152509295949360208101935035915050600160201b811115610a8457600080fd5b820183602082011115610a9657600080fd5b803590602001918460018302840111600160201b83111715610ab757600080fd5b91908080601f0160208091040260200160405190810160405280939291908181526020018383808284376000920191909152509295505091359250612246915050565b61030e6123fe565b61083460048036036020811015610b1857600080fd5b5035612459565b61029760048036036020811015610b3557600080fd5b50356001600160a01b0316612480565b61029761249e565b6107a76124a4565b6103b5600480360360e0811015610b6b57600080fd5b810190602081018135600160201b811115610b8557600080fd5b820183602082011115610b9757600080fd5b803590602001918460018302840111600160201b83111715610bb857600080fd5b91908080601f0160208091040260200160405190810160405280939291908181526020018383808284376000920191909152509295843595602086013595919450925060608101915060400135600160201b811115610c1657600080fd5b820183602082011115610c2857600080fd5b803590602001918460018302840111600160201b83111715610c4957600080fd5b91908080601f016020809104026020016040519081016040528093929190818152602001838380828437600092019190915250929550506001600160a01b038335169350505060208101359060400135612505565b6103b560048036036020811015610cb457600080fd5b503561264a565b61062460048036036020811015610cd157600080fd5b50356001600160a01b031661281f565b610297612847565b61030e60048036036020811015610cff57600080fd5b5035612851565b600080516020612f8a83398151915281565b600b6020526000908152604090208054600182015460028301546003909301546001600160a01b039283169392821692600160a01b90920460ff16919085565b6006805460408051602060026001851615610100026000190190941693909304601f81018490048402820184019092528181529291830182828015610dde5780601f10610db357610100808354040283529160200191610dde565b820191906000526020600020905b815481529060010190602001808311610dc157829003601f168201915b505050505081565b610df06001611c72565b610df957600080fd5b601454610100900460ff16610e49576040805162461bcd60e51b81526020600482015260116024820152700a6cae840d2e640dcdee8408cd2dcd2e6d607b1b604482015290519081900360640190fd5b610e52816111bc565b610e5b57600080fd5b336000908152600b6020526040902060018101805460ff60a01b1916600160a01b17905560030154610efb57336000818152600b60205260408120600180820180546001600160a01b0387166001600160a01b031991821617909155825481168517909255600c805491820181559092527fdf6966c971051c3d54ec59162606531493a51404a002842f56009d7e5cf4a8c7909101805490911690911790555b336000908152600b6020526040902060010154600160a01b900460ff1615610f3e57336000908152600b6020526040902060028101849055600301805460010190555b600080548301815580610f7685600080516020612f8a833981519152600080516020612f6a833981519152846401000003d01961285e565b60015460025492945090925090610f988484848460006401000003d019612898565b60025560015550505050505050565b600080610fda83600080516020612f8a833981519152600080516020612f6a83398151915260006401000003d01961285e565b9094909350915050565b6060600f826040518082805190602001908083835b602083106110185780518252601f199092019160209182019101610ff9565b518151600019602094850361010090810a820192831692199390931691909117909252949092019687526040805197889003820188208054601f60026001831615909802909501169590950492830182900482028801820190528187529294509250508301828280156110cc5780601f106110a1576101008083540402835291602001916110cc565b820191906000526020600020905b8154815290600101906020018083116110af57829003601f168201915b505050505090505b919050565b60008181805b825182101561112f5760008383815181106110f657fe5b016020015160f81c905060308110801590611112575060398111155b15611123576030810382600a020191505b506001909101906110df565b949350505050565b60085481565b6000600f826040518082805190602001908083835b602083106111715780518252601f199092019160209182019101611152565b51815160209384036101000a6000190180199092169116179052920194855250604051938490030190922060010154949350505050565b600981600281106111b557fe5b0154905081565b604080516317aa5fb760e11b81523360048201529051600091839182916001600160a01b03831691632f54bf6e91602480820192602092909190829003018186803b15801561120a57600080fd5b505afa15801561121e573d6000803e3d6000fd5b505050506040513d602081101561123457600080fd5b5051611245576000925050506110d4565b60005b601054811015611c2457600f6010828154811061126157fe5b9060005260206000200160405180828054600181600116156101000203166002900480156112c65780601f106112a45761010080835404028352918201916112c6565b820191906000526020600020905b8154815290600101906020018083116112b2575b50509283525050604051908190036020019020600101546116d957826001600160a01b0316638cba76b1600d60009054906101000a90046001600160a01b0316600e6010858154811061131557fe5b906000526020600020016040518463ffffffff1660e01b815260040180846001600160a01b03166001600160a01b0316815260200180602001806020018381038352858181546001816001161561010002031660029004815260200191508054600181600116156101000203166002900480156113d35780601f106113a8576101008083540402835291602001916113d3565b820191906000526020600020905b8154815290600101906020018083116113b657829003601f168201915b50508381038252845460026000196101006001841615020190911604808252602090910190859080156114475780601f1061141c57610100808354040283529160200191611447565b820191906000526020600020905b81548152906001019060200180831161142a57829003601f168201915b50509550505050505060006040518083038186803b15801561146857600080fd5b505afa15801561147c573d6000803e3d6000fd5b505050506040513d6000823e601f3d908101601f1916820160405260208110156114a557600080fd5b8101908080516040519392919084600160201b8211156114c457600080fd5b9083019060208201858111156114d957600080fd5b8251600160201b8111828201881017156114f257600080fd5b82525081516020918201929091019080838360005b8381101561151f578181015183820152602001611507565b50505050905090810190601f16801561154c5780820380516001836020036101000a031916815260200191505b506040525050506040516020018082805190602001908083835b602083106115855780518252601f199092019160209182019101611566565b6001836020036101000a03801982511681845116808217855250505050505090500191505060405160208183030381529060405280519060200120600f601083815481106115cf57fe5b9060005260206000200160405180828054600181600116156101000203166002900480156116345780601f10611612576101008083540402835291820191611634565b820191906000526020600020905b815481529060010190602001808311611620575b5050915050908152602001604051809103902060000160405160200180828054600181600116156101000203166002900480156116a85780601f106116865761010080835404028352918201916116a8565b820191906000526020600020905b815481529060010190602001808311611694575b505091505060405160208183030381529060405280519060200120146116d457600093505050506110d4565b611c1c565b600f601082815481106116e857fe5b90600052602060002001604051808280546001816001161561010002031660029004801561174d5780601f1061172b57610100808354040283529182019161174d565b820191906000526020600020905b815481529060010190602001808311611739575b505091505090815260200160405180910390206001015460011415611b1f576000611882600f6010848154811061178057fe5b9060005260206000200160405180828054600181600116156101000203166002900480156117e55780601f106117c35761010080835404028352918201916117e5565b820191906000526020600020905b8154815290600101906020018083116117d1575b505092835250506040805160209281900383018120805460026001821615610100026000190190911604601f810185900485028301850190935282825290929091908301828280156118785780601f1061184d57610100808354040283529160200191611878565b820191906000526020600020905b81548152906001019060200180831161185b57829003601f168201915b50505050506110d9565b90506000611b00856001600160a01b0316638cba76b1600d60009054906101000a90046001600160a01b0316600e601088815481106118bd57fe5b906000526020600020016040518463ffffffff1660e01b815260040180846001600160a01b03166001600160a01b03168152602001806020018060200183810383528581815460018160011615610100020316600290048152602001915080546001816001161561010002031660029004801561197b5780601f106119505761010080835404028352916020019161197b565b820191906000526020600020905b81548152906001019060200180831161195e57829003601f168201915b50508381038252845460026000196101006001841615020190911604808252602090910190859080156119ef5780601f106119c4576101008083540402835291602001916119ef565b820191906000526020600020905b8154815290600101906020018083116119d257829003601f168201915b50509550505050505060006040518083038186803b158015611a1057600080fd5b505afa158015611a24573d6000803e3d6000fd5b505050506040513d6000823e601f3d908101601f191682016040526020811015611a4d57600080fd5b8101908080516040519392919084600160201b821115611a6c57600080fd5b908301906020820185811115611a8157600080fd5b8251600160201b811182820188101715611a9a57600080fd5b82525081516020918201929091019080838360005b83811015611ac7578181015183820152602001611aaf565b50505050905090810190601f168015611af45780820380516001836020036101000a031916815260200191505b506040525050506110d9565b905080821115611b18576000955050505050506110d4565b5050611c1c565b600f60108281548110611b2e57fe5b906000526020600020016040518082805460018160011615610100020316600290048015611b935780601f10611b71576101008083540402835291820191611b93565b820191906000526020600020905b815481529060010190602001808311611b7f575b505091505090815260200160405180910390206001015460021415611c1c576000611bc6600f6010848154811061178057fe5b90506000611c01856001600160a01b0316638cba76b1600d60009054906101000a90046001600160a01b0316600e601088815481106118bd57fe5b905080821015611c19576000955050505050506110d4565b50505b600101611248565b506001949350505050565b600080611c478686868660006401000003d019612898565b9097909650945050505050565b60118181548110611c6157fe5b600091825260209091200154905081565b600081611c97576009546103e842021015611c8f575060016110d4565b5060006110d4565b8160011415611ccb57600a546103e84202108015611cbe5750600960005b0154426103e802115b15611c8f575060016110d4565b8160021415611c8f5760096001611cb5565b600554604080516317aa5fb760e11b815233600482015290516001600160a01b03909216918291632f54bf6e916024808301926020929190829003018186803b158015611d2957600080fd5b505afa158015611d3d573d6000803e3d6000fd5b505050506040513d6020811015611d5357600080fd5b5051611d5e57600080fd5b601454610100900460ff1615611da9576040805162461bcd60e51b815260206004820152600b60248201526a10d85b881b9bdd0814d95d60aa1b604482015290519081900360640190fd5b600780546001810182556000919091528251611dec917fa66cc928b5edb82af9bd49922954155ab7b0942694bea4ce44661d9a8736c68801906020850190612e24565b505060088054600190810190915560118054918201815560009081527f31ecc21a745e3968a04e9570e4425bc18fa8019c68028196b546d1669c200c689091015550565b60078181548110611e3d57fe5b600091825260209182902001805460408051601f6002600019610100600187161502019094169390930492830185900485028101850190915281815293509091830182828015610dde5780601f10610db357610100808354040283529160200191610dde565b60005481565b6000806000611ee184600101600080516020612f8a833981519152600080516020612f6a83398151915260006401000003d01961285e565b600154919350915082148015611ef8575060025481145b15611f08576001925050506110d4565b6000925050506110d4565b60035481565b600781565b60045481565b60606011805480602002602001604051908101604052809291908181526020018280548015611f7257602002820191906000526020600020905b815481526020019060010190808311611f5e575b505050505090505b90565b600e805460408051602060026001851615610100026000190190941693909304601f81018490048402820184019092528181529291830182828015610dde5780601f10610db357610100808354040283529160200191610dde565b606060108281548110611fe757fe5b600091825260209182902001805460408051601f60026000196101006001871615020190941693909304928301859004850281018501909152818152928301828280156110cc5780601f106110a1576101008083540402835291602001916110cc565b600080516020612f6a83398151915281565b600554604080516317aa5fb760e11b815233600482015290516001600160a01b03909216918291632f54bf6e916024808301926020929190829003018186803b1580156120a857600080fd5b505afa1580156120bc573d6000803e3d6000fd5b505050506040513d60208110156120d257600080fd5b50516120dd57600080fd5b601454610100900460ff1615612135576040805162461bcd60e51b815260206004820152601860248201527714d95d081cda1bdd5b19081a185d9948199a5b9a5cda195960421b604482015290519081900360640190fd5b506014805461ff001916610100179055565b6005546001600160a01b031681565b600081565b60015481565b60105490565b600d546001600160a01b031681565b8051602081830181018051600f8252928201938201939093209190925280546040805160026001841615610100026000190190931692909204601f81018590048502830185019091528082529192909183918301828280156122195780601f106121ee57610100808354040283529160200191612219565b820191906000526020600020905b8154815290600101906020018083116121fc57829003601f168201915b5050505050908060010154905082565b60145460ff1681565b60025481565b601454610100900460ff1681565b600554604080516317aa5fb760e11b815233600482015290516001600160a01b03909216918291632f54bf6e916024808301926020929190829003018186803b15801561229257600080fd5b505afa1580156122a6573d6000803e3d6000fd5b505050506040513d60208110156122bc57600080fd5b50516122c757600080fd5b601454610100900460ff161561231f576040805162461bcd60e51b815260206004820152601860248201527714d95d081cda1bdd5b19081a185d9948199a5b9a5cda195960421b604482015290519081900360640190fd5b612327612ea2565b838152602080820184905260405186518392600f92899290918291908401908083835b602083106123695780518252601f19909201916020918201910161234a565b51815160209384036101000a60001901801990921691161790529201948552506040519384900381019093208451805191946123aa94508593500190612e24565b5060209182015160019182015560108054918201815560005286516123f6927f1b6847dc741a1b0cd08d278845f9d819d87b734759afb55fe2de5cb82a9ae67290920191880190612e24565b505050505050565b6013805460408051602060026001851615610100026000190190941693909304601f81018490048402820184019092528181529291830182828015610dde5780601f10610db357610100808354040283529160200191610dde565b600c818154811061246657fe5b6000918252602090912001546001600160a01b0316905081565b6001600160a01b03166000908152600b602052604090206002015490565b60125481565b6060600c805480602002602001604051908101604052809291908181526020018280548015611f7257602002820191906000526020600020905b81546001600160a01b031681526001909101906020018083116124de575050505050905090565b600554604080516317aa5fb760e11b815233600482015290516001600160a01b03909216918291632f54bf6e916024808301926020929190829003018186803b15801561255157600080fd5b505afa158015612565573d6000803e3d6000fd5b505050506040513d602081101561257b57600080fd5b505161258657600080fd5b601454610100900460ff16156125de576040805162461bcd60e51b815260206004820152601860248201527714d95d081cda1bdd5b19081a185d9948199a5b9a5cda195960421b604482015290519081900360640190fd5b87516125f19060069060208b0190612e24565b50845161260590600e906020880190612e24565b5050600995909555600a93909355600d80546001600160a01b0319166001600160a01b0392909216919091179055506014805460ff1916600117905560035560045550565b601454610100900460ff1661269a576040805162461bcd60e51b81526020600482015260116024820152700a6cae840d2e640dcdee8408cd2dcd2e6d607b1b604482015290519081900360640190fd5b6000806126d083600101600080516020612f8a833981519152600080516020612f6a83398151915260006401000003d01961285e565b6000546001549294509092508490039083146126eb57600080fd5b60025482146126f957600080fd5b60001960125560005b60115481101561272f5760006011828154811061271b57fe5b600091825260209091200155600101612702565b50600854600019015b60018101156127a05780600454026003540a828161275257fe5b046011828154811061276057fe5b90600052602060002001819055506011818154811061277b57fe5b600091825260209091200154600454600354908302900a029091039060001901612738565b5060005b6011548110156127dd57601254601182815481106127be57fe5b906000526020600020015413156127d55760128190555b6001016127a4565b506007601254815481106127ed57fe5b9060005260206000200160139080546001816001161561010002031660029004612818929190612ebc565b5050505050565b6001600160a01b03166000908152600b6020526040902060010154600160a01b900460ff1690565b6401000003d01981565b60108181548110611e3d57fe5b60008060008060006128758a8a8a60018b8b612917565b9250925092506128878383838961298e565b945094505050509550959350505050565b6000808080808a8914156128df5785806128ae57fe5b888b086128c557506000935083925061290c915050565b6128d38b8b60018a8a6129e5565b919450925090506128f8565b6128f08b8b60018c8c60018c612afb565b919450925090505b6129048383838961298e565b945094505050505b965096945050505050565b600080808861292d575086915085905084612982565b8860008060015b831561297957600184161561295a576129528383838f8f8f8e612afb565b919450925090505b60028404935061296d8c8c8c8c8c6129e5565b919d509b509950612934565b91955093509150505b96509650969350505050565b600080600061299d8585612d78565b9050600084806129a957fe5b8283099050600085806129b857fe5b828a099050600086806129c757fe5b87806129cf57fe5b8486098a09919a91995090975050505050505050565b60008080856129fb575086915085905084612af0565b60008480612a0557fe5b898a09905060008580612a1457fe5b898a09905060008680612a2357fe5b898a09905060008780612a3257fe5b8880612a3a57fe5b848e09600409905060008880612a4c57fe5b8980612a5457fe5b8a80612a5c57fe5b8586098c098a80612a6957fe5b876003090890508880612a7857fe5b8980612a8057fe5b8384088a038a80612a8d57fe5b8384090894508880612a9b57fe5b8980612aa357fe5b8a80612aab57fe5b8687096008098a038a80612abb57fe5b8b80612ac357fe5b888d03860884090893508880612ad557fe5b8980612add57fe5b8c8e096002099497509295509293505050505b955095509592505050565b6000808089158015612b0b575088155b15612b1d575085915084905083612d6b565b86158015612b29575085155b15612b3b575088915087905086612d6b565b612b43612f31565b8480612b4b57fe5b898a0981528480612b5857fe5b81518a0960208201528480612b6957fe5b86870960408201528480612b7957fe5b6040820151870960608201526040805160808101909152808680612b9957fe5b60408401518e0981526020018680612bad57fe5b60608401518d0981526020018680612bc157fe5b83518b0981526020018680612bd257fe5b60208401518a09905260408101518151919250141580612bfa57506060810151602082015114155b612c4b576040805162461bcd60e51b815260206004820152601e60248201527f557365206a6163446f75626c652066756e6374696f6e20696e73746561640000604482015290519081900360640190fd5b612c53612f31565b8580612c5b57fe5b82516040840151908803900881528580612c7157fe5b60208301516060840151908803900860208201528580612c8d57fe5b8151800960408201528580612c9e57fe5b8151604083015109606082015260008680612cb557fe5b606083015188038880612cc457fe5b602085015180090890508680612cd657fe5b8780612cde57fe5b8880612ce657fe5b604085015186510960020988038208905060008780612d0157fe5b8880612d0957fe5b838a038a80612d1457fe5b60408701518851090860208501510990508780612d2d57fe5b8880612d3557fe5b606085015160208701510989038208905060008880612d5057fe5b8980612d5857fe5b8b8f098551099297509095509093505050505b9750975097945050505050565b60008215801590612d895750818314155b8015612d9457508115155b612dd6576040805162461bcd60e51b815260206004820152600e60248201526d24b73b30b634b210373ab6b132b960911b604482015290519081900360640190fd5b6000600183825b8615612e1957868281612dec57fe5b049050828680612df857fe5b8780612e0057fe5b8584098803860882890290930397909450919250612ddd565b509195945050505050565b828054600181600116156101000203166002900490600052602060002090601f016020900481019282601f10612e6557805160ff1916838001178555612e92565b82800160010185558215612e92579182015b82811115612e92578251825591602001919060010190612e77565b50612e9e929150612f4f565b5090565b604051806040016040528060608152602001600081525090565b828054600181600116156101000203166002900490600052602060002090601f016020900481019282601f10612ef55780548555612e92565b82800160010185558215612e9257600052602060002091601f016020900482015b82811115612e92578254825591600101919060010190612f16565b60405180608001604052806004906020820280368337509192915050565b611f7a91905b80821115612e9e5760008155600101612f5556fe483ada7726a3c4655da4fbfc0e1108a8fd17b448a68554199c47d08ffb10d4b879be667ef9dcbbac55a06295ce870b07029bfcdb2dce28d959f2815b16f81798a2646970667358221220a855db659f5a85d8f138a4fef70683ecbf03fd5d660af31198d95b43f6a008e064736f6c63430006060033","opcodes":"PUSH1 0x80 PUSH1 0x40 MSTORE CALLVALUE DUP1 ISZERO PUSH2 0x10 JUMPI PUSH1 0x0 DUP1 REVERT JUMPDEST POP PUSH1 0x40 MLOAD PUSH2 0x30A9 CODESIZE SUB DUP1 PUSH2 0x30A9 DUP4 CODECOPY DUP2 DUP2 ADD PUSH1 0x40 MSTORE PUSH1 0x20 DUP2 LT ISZERO PUSH2 0x33 JUMPI PUSH1 0x0 DUP1 REVERT JUMPDEST POP MLOAD PUSH1 0x5 DUP1 SLOAD PUSH1 0x1 PUSH1 0x1 PUSH1 0xA0 SHL SUB NOT AND PUSH1 0x1 PUSH1 0x1 PUSH1 0xA0 SHL SUB SWAP1 SWAP3 AND SWAP2 SWAP1 SWAP2 OR SWAP1 SSTORE PUSH1 0x14 DUP1 SLOAD PUSH1 0x0 NOT PUSH1 0x12 SSTORE PUSH1 0x0 PUSH1 0x8 DUP2 SWAP1 SSTORE PUSH2 0xFFFF NOT SWAP1 SWAP2 AND SWAP1 SWAP2 SSTORE DUP1 DUP1 SSTORE PUSH32 0x79BE667EF9DCBBAC55A06295CE870B07029BFCDB2DCE28D959F2815B16F81798 PUSH1 0x1 SSTORE PUSH32 0x483ADA7726A3C4655DA4FBFC0E1108A8FD17B448A68554199C47D08FFB10D4B8 PUSH1 0x2 SSTORE PUSH2 0x2FDF SWAP1 DUP2 SWAP1 PUSH2 0xCA SWAP1 CODECOPY PUSH1 0x0 RETURN INVALID PUSH1 0x80 PUSH1 0x40 MSTORE CALLVALUE DUP1 ISZERO PUSH2 0x10 JUMPI PUSH1 0x0 DUP1 REVERT JUMPDEST POP PUSH1 0x4 CALLDATASIZE LT PUSH2 0x28A JUMPI PUSH1 0x0 CALLDATALOAD PUSH1 0xE0 SHR DUP1 PUSH4 0x78CFF08B GT PUSH2 0x15C JUMPI DUP1 PUSH4 0xC65FB380 GT PUSH2 0xCE JUMPI DUP1 PUSH4 0xE0F3615D GT PUSH2 0x87 JUMPI DUP1 PUSH4 0xE0F3615D EQ PUSH2 0xB4D JUMPI DUP1 PUSH4 0xE8380187 EQ PUSH2 0xB55 JUMPI DUP1 PUSH4 0xED8B6B31 EQ PUSH2 0xC9E JUMPI DUP1 PUSH4 0xEE58B141 EQ PUSH2 0xCBB JUMPI DUP1 PUSH4 0xEEEAC01E EQ PUSH2 0xCE1 JUMPI DUP1 PUSH4 0xF00DD10E EQ PUSH2 0xCE9 JUMPI PUSH2 0x28A JUMP JUMPDEST DUP1 PUSH4 0xC65FB380 EQ PUSH2 0x9C7 JUMPI DUP1 PUSH4 0xC68A11C2 EQ PUSH2 0x9CF JUMPI DUP1 PUSH4 0xC7B28050 EQ PUSH2 0xAFA JUMPI DUP1 PUSH4 0xD5FFC449 EQ PUSH2 0xB02 JUMPI DUP1 PUSH4 0xD78E4D9D EQ PUSH2 0xB1F JUMPI DUP1 PUSH4 0xDFBF53AE EQ PUSH2 0xB45 JUMPI PUSH2 0x28A JUMP JUMPDEST DUP1 PUSH4 0x9998C692 GT PUSH2 0x120 JUMPI DUP1 PUSH4 0x9998C692 EQ PUSH2 0x858 JUMPI DUP1 PUSH4 0xA16DCC65 EQ PUSH2 0x860 JUMPI DUP1 PUSH4 0xABF68FCC EQ PUSH2 0x868 JUMPI DUP1 PUSH4 0xAF7789E6 EQ PUSH2 0x870 JUMPI DUP1 PUSH4 0xC19D93FB EQ PUSH2 0x993 JUMPI DUP1 PUSH4 0xC3E50F09 EQ PUSH2 0x9BF JUMPI PUSH2 0x28A JUMP JUMPDEST DUP1 PUSH4 0x78CFF08B EQ PUSH2 0x7FF JUMPI DUP1 PUSH4 0x7A308A4C EQ PUSH2 0x81C JUMPI DUP1 PUSH4 0x847B6327 EQ PUSH2 0x824 JUMPI DUP1 PUSH4 0x8DA5CB5B EQ PUSH2 0x82C JUMPI DUP1 PUSH4 0x997DA8D4 EQ PUSH2 0x850 JUMPI PUSH2 0x28A JUMP JUMPDEST DUP1 PUSH4 0x39CD1F40 GT PUSH2 0x200 JUMPI DUP1 PUSH4 0x4C01AC97 GT PUSH2 0x1B9 JUMPI DUP1 PUSH4 0x4C01AC97 EQ PUSH2 0x76A JUMPI DUP1 PUSH4 0x52F6EE58 EQ PUSH2 0x787 JUMPI DUP1 PUSH4 0x5727DC5C EQ PUSH2 0x78F JUMPI DUP1 PUSH4 0x5A2EE019 EQ PUSH2 0x797 JUMPI DUP1 PUSH4 0x696F4468 EQ PUSH2 0x79F JUMPI DUP1 PUSH4 0x7284E416 EQ PUSH2 0x7F7 JUMPI PUSH2 0x28A JUMP JUMPDEST DUP1 PUSH4 0x39CD1F40 EQ PUSH2 0x638 JUMPI DUP1 PUSH4 0x3C594059 EQ PUSH2 0x667 JUMPI DUP1 PUSH4 0x3EB8D9F2 EQ PUSH2 0x684 JUMPI DUP1 PUSH4 0x4002BD0D EQ PUSH2 0x6A1 JUMPI DUP1 PUSH4 0x409E2205 EQ PUSH2 0x745 JUMPI DUP1 PUSH4 0x43F4DD9F EQ PUSH2 0x762 JUMPI PUSH2 0x28A JUMP JUMPDEST DUP1 PUSH4 0x19C7A165 GT PUSH2 0x252 JUMPI DUP1 PUSH4 0x19C7A165 EQ PUSH2 0x3ED JUMPI DUP1 PUSH4 0x1BD95155 EQ PUSH2 0x491 JUMPI DUP1 PUSH4 0x1C32382F EQ PUSH2 0x535 JUMPI DUP1 PUSH4 0x1ED39FC2 EQ PUSH2 0x53D JUMPI DUP1 PUSH4 0x20982BCE EQ PUSH2 0x5E1 JUMPI DUP1 PUSH4 0x2A251C56 EQ PUSH2 0x5FE JUMPI PUSH2 0x28A JUMP JUMPDEST DUP1 PUSH4 0x3A507BE EQ PUSH2 0x28F JUMPI DUP1 PUSH4 0x3F673FF EQ PUSH2 0x2A9 JUMPI DUP1 PUSH4 0xC1CE9DD EQ PUSH2 0x306 JUMPI DUP1 PUSH4 0xFE9E0FD EQ PUSH2 0x383 JUMPI DUP1 PUSH4 0x12045E57 EQ PUSH2 0x3B7 JUMPI JUMPDEST PUSH1 0x0 DUP1 REVERT JUMPDEST PUSH2 0x297 PUSH2 0xD06 JUMP JUMPDEST PUSH1 0x40 DUP1 MLOAD SWAP2 DUP3 MSTORE MLOAD SWAP1 DUP2 SWAP1 SUB PUSH1 0x20 ADD SWAP1 RETURN JUMPDEST PUSH2 0x2CF PUSH1 0x4 DUP1 CALLDATASIZE SUB PUSH1 0x20 DUP2 LT ISZERO PUSH2 0x2BF JUMPI PUSH1 0x0 DUP1 REVERT JUMPDEST POP CALLDATALOAD PUSH1 0x1 PUSH1 0x1 PUSH1 0xA0 SHL SUB AND PUSH2 0xD18 JUMP JUMPDEST PUSH1 0x40 DUP1 MLOAD PUSH1 0x1 PUSH1 0x1 PUSH1 0xA0 SHL SUB SWAP7 DUP8 AND DUP2 MSTORE SWAP5 SWAP1 SWAP6 AND PUSH1 0x20 DUP6 ADD MSTORE SWAP2 ISZERO ISZERO DUP4 DUP6 ADD MSTORE PUSH1 0x60 DUP4 ADD MSTORE PUSH1 0x80 DUP3 ADD MSTORE SWAP1 MLOAD SWAP1 DUP2 SWAP1 SUB PUSH1 0xA0 ADD SWAP1 RETURN JUMPDEST PUSH2 0x30E PUSH2 0xD58 JUMP JUMPDEST PUSH1 0x40 DUP1 MLOAD PUSH1 0x20 DUP1 DUP3 MSTORE DUP4 MLOAD DUP2 DUP4 ADD MSTORE DUP4 MLOAD SWAP2 SWAP3 DUP4 SWAP3 SWAP1 DUP4 ADD SWAP2 DUP6 ADD SWAP1 DUP1 DUP4 DUP4 PUSH1 0x0 JUMPDEST DUP4 DUP2 LT ISZERO PUSH2 0x348 JUMPI DUP2 DUP2 ADD MLOAD DUP4 DUP3 ADD MSTORE PUSH1 0x20 ADD PUSH2 0x330 JUMP JUMPDEST POP POP POP POP SWAP1 POP SWAP1 DUP2 ADD SWAP1 PUSH1 0x1F AND DUP1 ISZERO PUSH2 0x375 JUMPI DUP1 DUP3 SUB DUP1 MLOAD PUSH1 0x1 DUP4 PUSH1 0x20 SUB PUSH2 0x100 EXP SUB NOT AND DUP2 MSTORE PUSH1 0x20 ADD SWAP2 POP JUMPDEST POP SWAP3 POP POP POP PUSH1 0x40 MLOAD DUP1 SWAP2 SUB SWAP1 RETURN JUMPDEST PUSH2 0x3B5 PUSH1 0x4 DUP1 CALLDATASIZE SUB PUSH1 0x60 DUP2 LT ISZERO PUSH2 0x399 JUMPI PUSH1 0x0 DUP1 REVERT JUMPDEST POP DUP1 CALLDATALOAD SWAP1 PUSH1 0x20 DUP2 ADD CALLDATALOAD SWAP1 PUSH1 0x40 ADD CALLDATALOAD PUSH1 0x1 PUSH1 0x1 PUSH1 0xA0 SHL SUB AND PUSH2 0xDE6 JUMP JUMPDEST STOP JUMPDEST PUSH2 0x3D4 PUSH1 0x4 DUP1 CALLDATASIZE SUB PUSH1 0x20 DUP2 LT ISZERO PUSH2 0x3CD JUMPI PUSH1 0x0 DUP1 REVERT JUMPDEST POP CALLDATALOAD PUSH2 0xFA7 JUMP JUMPDEST PUSH1 0x40 DUP1 MLOAD SWAP3 DUP4 MSTORE PUSH1 0x20 DUP4 ADD SWAP2 SWAP1 SWAP2 MSTORE DUP1 MLOAD SWAP2 DUP3 SWAP1 SUB ADD SWAP1 RETURN JUMPDEST PUSH2 0x30E PUSH1 0x4 DUP1 CALLDATASIZE SUB PUSH1 0x20 DUP2 LT ISZERO PUSH2 0x403 JUMPI PUSH1 0x0 DUP1 REVERT JUMPDEST DUP2 ADD SWAP1 PUSH1 0x20 DUP2 ADD DUP2 CALLDATALOAD PUSH1 0x1 PUSH1 0x20 SHL DUP2 GT ISZERO PUSH2 0x41D JUMPI PUSH1 0x0 DUP1 REVERT JUMPDEST DUP3 ADD DUP4 PUSH1 0x20 DUP3 ADD GT ISZERO PUSH2 0x42F JUMPI PUSH1 0x0 DUP1 REVERT JUMPDEST DUP1 CALLDATALOAD SWAP1 PUSH1 0x20 ADD SWAP2 DUP5 PUSH1 0x1 DUP4 MUL DUP5 ADD GT PUSH1 0x1 PUSH1 0x20 SHL DUP4 GT OR ISZERO PUSH2 0x450 JUMPI PUSH1 0x0 DUP1 REVERT JUMPDEST SWAP2 SWAP1 DUP1 DUP1 PUSH1 0x1F ADD PUSH1 0x20 DUP1 SWAP2 DIV MUL PUSH1 0x20 ADD PUSH1 0x40 MLOAD SWAP1 DUP2 ADD PUSH1 0x40 MSTORE DUP1 SWAP4 SWAP3 SWAP2 SWAP1 DUP2 DUP2 MSTORE PUSH1 0x20 ADD DUP4 DUP4 DUP1 DUP3 DUP5 CALLDATACOPY PUSH1 0x0 SWAP3 ADD SWAP2 SWAP1 SWAP2 MSTORE POP SWAP3 SWAP6 POP PUSH2 0xFE4 SWAP5 POP POP POP POP POP JUMP JUMPDEST PUSH2 0x297 PUSH1 0x4 DUP1 CALLDATASIZE SUB PUSH1 0x20 DUP2 LT ISZERO PUSH2 0x4A7 JUMPI PUSH1 0x0 DUP1 REVERT JUMPDEST DUP2 ADD SWAP1 PUSH1 0x20 DUP2 ADD DUP2 CALLDATALOAD PUSH1 0x1 PUSH1 0x20 SHL DUP2 GT ISZERO PUSH2 0x4C1 JUMPI PUSH1 0x0 DUP1 REVERT JUMPDEST DUP3 ADD DUP4 PUSH1 0x20 DUP3 ADD GT ISZERO PUSH2 0x4D3 JUMPI PUSH1 0x0 DUP1 REVERT JUMPDEST DUP1 CALLDATALOAD SWAP1 PUSH1 0x20 ADD SWAP2 DUP5 PUSH1 0x1 DUP4 MUL DUP5 ADD GT PUSH1 0x1 PUSH1 0x20 SHL DUP4 GT OR ISZERO PUSH2 0x4F4 JUMPI PUSH1 0x0 DUP1 REVERT JUMPDEST SWAP2 SWAP1 DUP1 DUP1 PUSH1 0x1F ADD PUSH1 0x20 DUP1 SWAP2 DIV MUL PUSH1 0x20 ADD PUSH1 0x40 MLOAD SWAP1 DUP2 ADD PUSH1 0x40 MSTORE DUP1 SWAP4 SWAP3 SWAP2 SWAP1 DUP2 DUP2 MSTORE PUSH1 0x20 ADD DUP4 DUP4 DUP1 DUP3 DUP5 CALLDATACOPY PUSH1 0x0 SWAP3 ADD SWAP2 SWAP1 SWAP2 MSTORE POP SWAP3 SWAP6 POP PUSH2 0x10D9 SWAP5 POP POP POP POP POP JUMP JUMPDEST PUSH2 0x297 PUSH2 0x1137 JUMP JUMPDEST PUSH2 0x297 PUSH1 0x4 DUP1 CALLDATASIZE SUB PUSH1 0x20 DUP2 LT ISZERO PUSH2 0x553 JUMPI PUSH1 0x0 DUP1 REVERT JUMPDEST DUP2 ADD SWAP1 PUSH1 0x20 DUP2 ADD DUP2 CALLDATALOAD PUSH1 0x1 PUSH1 0x20 SHL DUP2 GT ISZERO PUSH2 0x56D JUMPI PUSH1 0x0 DUP1 REVERT JUMPDEST DUP3 ADD DUP4 PUSH1 0x20 DUP3 ADD GT ISZERO PUSH2 0x57F JUMPI PUSH1 0x0 DUP1 REVERT JUMPDEST DUP1 CALLDATALOAD SWAP1 PUSH1 0x20 ADD SWAP2 DUP5 PUSH1 0x1 DUP4 MUL DUP5 ADD GT PUSH1 0x1 PUSH1 0x20 SHL DUP4 GT OR ISZERO PUSH2 0x5A0 JUMPI PUSH1 0x0 DUP1 REVERT JUMPDEST SWAP2 SWAP1 DUP1 DUP1 PUSH1 0x1F ADD PUSH1 0x20 DUP1 SWAP2 DIV MUL PUSH1 0x20 ADD PUSH1 0x40 MLOAD SWAP1 DUP2 ADD PUSH1 0x40 MSTORE DUP1 SWAP4 SWAP3 SWAP2 SWAP1 DUP2 DUP2 MSTORE PUSH1 0x20 ADD DUP4 DUP4 DUP1 DUP3 DUP5 CALLDATACOPY PUSH1 0x0 SWAP3 ADD SWAP2 SWAP1 SWAP2 MSTORE POP SWAP3 SWAP6 POP PUSH2 0x113D SWAP5 POP POP POP POP POP JUMP JUMPDEST PUSH2 0x297 PUSH1 0x4 DUP1 CALLDATASIZE SUB PUSH1 0x20 DUP2 LT ISZERO PUSH2 0x5F7 JUMPI PUSH1 0x0 DUP1 REVERT JUMPDEST POP CALLDATALOAD PUSH2 0x11A8 JUMP JUMPDEST PUSH2 0x624 PUSH1 0x4 DUP1 CALLDATASIZE SUB PUSH1 0x20 DUP2 LT ISZERO PUSH2 0x614 JUMPI PUSH1 0x0 DUP1 REVERT JUMPDEST POP CALLDATALOAD PUSH1 0x1 PUSH1 0x1 PUSH1 0xA0 SHL SUB AND PUSH2 0x11BC JUMP JUMPDEST PUSH1 0x40 DUP1 MLOAD SWAP2 ISZERO ISZERO DUP3 MSTORE MLOAD SWAP1 DUP2 SWAP1 SUB PUSH1 0x20 ADD SWAP1 RETURN JUMPDEST PUSH2 0x3D4 PUSH1 0x4 DUP1 CALLDATASIZE SUB PUSH1 0x80 DUP2 LT ISZERO PUSH2 0x64E JUMPI PUSH1 0x0 DUP1 REVERT JUMPDEST POP DUP1 CALLDATALOAD SWAP1 PUSH1 0x20 DUP2 ADD CALLDATALOAD SWAP1 PUSH1 0x40 DUP2 ADD CALLDATALOAD SWAP1 PUSH1 0x60 ADD CALLDATALOAD PUSH2 0x1C2F JUMP JUMPDEST PUSH2 0x297 PUSH1 0x4 DUP1 CALLDATASIZE SUB PUSH1 0x20 DUP2 LT ISZERO PUSH2 0x67D JUMPI PUSH1 0x0 DUP1 REVERT JUMPDEST POP CALLDATALOAD PUSH2 0x1C54 JUMP JUMPDEST PUSH2 0x624 PUSH1 0x4 DUP1 CALLDATASIZE SUB PUSH1 0x20 DUP2 LT ISZERO PUSH2 0x69A JUMPI PUSH1 0x0 DUP1 REVERT JUMPDEST POP CALLDATALOAD PUSH2 0x1C72 JUMP JUMPDEST PUSH2 0x3B5 PUSH1 0x4 DUP1 CALLDATASIZE SUB PUSH1 0x20 DUP2 LT ISZERO PUSH2 0x6B7 JUMPI PUSH1 0x0 DUP1 REVERT JUMPDEST DUP2 ADD SWAP1 PUSH1 0x20 DUP2 ADD DUP2 CALLDATALOAD PUSH1 0x1 PUSH1 0x20 SHL DUP2 GT ISZERO PUSH2 0x6D1 JUMPI PUSH1 0x0 DUP1 REVERT JUMPDEST DUP3 ADD DUP4 PUSH1 0x20 DUP3 ADD GT ISZERO PUSH2 0x6E3 JUMPI PUSH1 0x0 DUP1 REVERT JUMPDEST DUP1 CALLDATALOAD SWAP1 PUSH1 0x20 ADD SWAP2 DUP5 PUSH1 0x1 DUP4 MUL DUP5 ADD GT PUSH1 0x1 PUSH1 0x20 SHL DUP4 GT OR ISZERO PUSH2 0x704 JUMPI PUSH1 0x0 DUP1 REVERT JUMPDEST SWAP2 SWAP1 DUP1 DUP1 PUSH1 0x1F ADD PUSH1 0x20 DUP1 SWAP2 DIV MUL PUSH1 0x20 ADD PUSH1 0x40 MLOAD SWAP1 DUP2 ADD PUSH1 0x40 MSTORE DUP1 SWAP4 SWAP3 SWAP2 SWAP1 DUP2 DUP2 MSTORE PUSH1 0x20 ADD DUP4 DUP4 DUP1 DUP3 DUP5 CALLDATACOPY PUSH1 0x0 SWAP3 ADD SWAP2 SWAP1 SWAP2 MSTORE POP SWAP3 SWAP6 POP PUSH2 0x1CDD SWAP5 POP POP POP POP POP JUMP JUMPDEST PUSH2 0x30E PUSH1 0x4 DUP1 CALLDATASIZE SUB PUSH1 0x20 DUP2 LT ISZERO PUSH2 0x75B JUMPI PUSH1 0x0 DUP1 REVERT JUMPDEST POP CALLDATALOAD PUSH2 0x1E30 JUMP JUMPDEST PUSH2 0x297 PUSH2 0x1EA3 JUMP JUMPDEST PUSH2 0x624 PUSH1 0x4 DUP1 CALLDATASIZE SUB PUSH1 0x20 DUP2 LT ISZERO PUSH2 0x780 JUMPI PUSH1 0x0 DUP1 REVERT JUMPDEST POP CALLDATALOAD PUSH2 0x1EA9 JUMP JUMPDEST PUSH2 0x297 PUSH2 0x1F13 JUMP JUMPDEST PUSH2 0x297 PUSH2 0x1F19 JUMP JUMPDEST PUSH2 0x297 PUSH2 0x1F1E JUMP JUMPDEST PUSH2 0x7A7 PUSH2 0x1F24 JUMP JUMPDEST PUSH1 0x40 DUP1 MLOAD PUSH1 0x20 DUP1 DUP3 MSTORE DUP4 MLOAD DUP2 DUP4 ADD MSTORE DUP4 MLOAD SWAP2 SWAP3 DUP4 SWAP3 SWAP1 DUP4 ADD SWAP2 DUP6 DUP2 ADD SWAP2 MUL DUP1 DUP4 DUP4 PUSH1 0x0 JUMPDEST DUP4 DUP2 LT ISZERO PUSH2 0x7E3 JUMPI DUP2 DUP2 ADD MLOAD DUP4 DUP3 ADD MSTORE PUSH1 0x20 ADD PUSH2 0x7CB JUMP JUMPDEST POP POP POP POP SWAP1 POP ADD SWAP3 POP POP POP PUSH1 0x40 MLOAD DUP1 SWAP2 SUB SWAP1 RETURN JUMPDEST PUSH2 0x30E PUSH2 0x1F7D JUMP JUMPDEST PUSH2 0x30E PUSH1 0x4 DUP1 CALLDATASIZE SUB PUSH1 0x20 DUP2 LT ISZERO PUSH2 0x815 JUMPI PUSH1 0x0 DUP1 REVERT JUMPDEST POP CALLDATALOAD PUSH2 0x1FD8 JUMP JUMPDEST PUSH2 0x297 PUSH2 0x204A JUMP JUMPDEST PUSH2 0x3B5 PUSH2 0x205C JUMP JUMPDEST PUSH2 0x834 PUSH2 0x2147 JUMP JUMPDEST PUSH1 0x40 DUP1 MLOAD PUSH1 0x1 PUSH1 0x1 PUSH1 0xA0 SHL SUB SWAP1 SWAP3 AND DUP3 MSTORE MLOAD SWAP1 DUP2 SWAP1 SUB PUSH1 0x20 ADD SWAP1 RETURN JUMPDEST PUSH2 0x297 PUSH2 0x2156 JUMP JUMPDEST PUSH2 0x297 PUSH2 0x215B JUMP JUMPDEST PUSH2 0x297 PUSH2 0x2161 JUMP JUMPDEST PUSH2 0x834 PUSH2 0x2167 JUMP JUMPDEST PUSH2 0x914 PUSH1 0x4 DUP1 CALLDATASIZE SUB PUSH1 0x20 DUP2 LT ISZERO PUSH2 0x886 JUMPI PUSH1 0x0 DUP1 REVERT JUMPDEST DUP2 ADD SWAP1 PUSH1 0x20 DUP2 ADD DUP2 CALLDATALOAD PUSH1 0x1 PUSH1 0x20 SHL DUP2 GT ISZERO PUSH2 0x8A0 JUMPI PUSH1 0x0 DUP1 REVERT JUMPDEST DUP3 ADD DUP4 PUSH1 0x20 DUP3 ADD GT ISZERO PUSH2 0x8B2 JUMPI PUSH1 0x0 DUP1 REVERT JUMPDEST DUP1 CALLDATALOAD SWAP1 PUSH1 0x20 ADD SWAP2 DUP5 PUSH1 0x1 DUP4 MUL DUP5 ADD GT PUSH1 0x1 PUSH1 0x20 SHL DUP4 GT OR ISZERO PUSH2 0x8D3 JUMPI PUSH1 0x0 DUP1 REVERT JUMPDEST SWAP2 SWAP1 DUP1 DUP1 PUSH1 0x1F ADD PUSH1 0x20 DUP1 SWAP2 DIV MUL PUSH1 0x20 ADD PUSH1 0x40 MLOAD SWAP1 DUP2 ADD PUSH1 0x40 MSTORE DUP1 SWAP4 SWAP3 SWAP2 SWAP1 DUP2 DUP2 MSTORE PUSH1 0x20 ADD DUP4 DUP4 DUP1 DUP3 DUP5 CALLDATACOPY PUSH1 0x0 SWAP3 ADD SWAP2 SWAP1 SWAP2 MSTORE POP SWAP3 SWAP6 POP PUSH2 0x2176 SWAP5 POP POP POP POP POP JUMP JUMPDEST PUSH1 0x40 MLOAD DUP1 DUP1 PUSH1 0x20 ADD DUP4 DUP2 MSTORE PUSH1 0x20 ADD DUP3 DUP2 SUB DUP3 MSTORE DUP5 DUP2 DUP2 MLOAD DUP2 MSTORE PUSH1 0x20 ADD SWAP2 POP DUP1 MLOAD SWAP1 PUSH1 0x20 ADD SWAP1 DUP1 DUP4 DUP4 PUSH1 0x0 JUMPDEST DUP4 DUP2 LT ISZERO PUSH2 0x957 JUMPI DUP2 DUP2 ADD MLOAD DUP4 DUP3 ADD MSTORE PUSH1 0x20 ADD PUSH2 0x93F JUMP JUMPDEST POP POP POP POP SWAP1 POP SWAP1 DUP2 ADD SWAP1 PUSH1 0x1F AND DUP1 ISZERO PUSH2 0x984 JUMPI DUP1 DUP3 SUB DUP1 MLOAD PUSH1 0x1 DUP4 PUSH1 0x20 SUB PUSH2 0x100 EXP SUB NOT AND DUP2 MSTORE PUSH1 0x20 ADD SWAP2 POP JUMPDEST POP SWAP4 POP POP POP POP PUSH1 0x40 MLOAD DUP1 SWAP2 SUB SWAP1 RETURN JUMPDEST PUSH2 0x99B PUSH2 0x2229 JUMP JUMPDEST PUSH1 0x40 MLOAD DUP1 DUP3 PUSH1 0x3 DUP2 GT ISZERO PUSH2 0x9AB JUMPI INVALID JUMPDEST PUSH1 0xFF AND DUP2 MSTORE PUSH1 0x20 ADD SWAP2 POP POP PUSH1 0x40 MLOAD DUP1 SWAP2 SUB SWAP1 RETURN JUMPDEST PUSH2 0x297 PUSH2 0x2232 JUMP JUMPDEST PUSH2 0x624 PUSH2 0x2238 JUMP JUMPDEST PUSH2 0x3B5 PUSH1 0x4 DUP1 CALLDATASIZE SUB PUSH1 0x60 DUP2 LT ISZERO PUSH2 0x9E5 JUMPI PUSH1 0x0 DUP1 REVERT JUMPDEST DUP2 ADD SWAP1 PUSH1 0x20 DUP2 ADD DUP2 CALLDATALOAD PUSH1 0x1 PUSH1 0x20 SHL DUP2 GT ISZERO PUSH2 0x9FF JUMPI PUSH1 0x0 DUP1 REVERT JUMPDEST DUP3 ADD DUP4 PUSH1 0x20 DUP3 ADD GT ISZERO PUSH2 0xA11 JUMPI PUSH1 0x0 DUP1 REVERT JUMPDEST DUP1 CALLDATALOAD SWAP1 PUSH1 0x20 ADD SWAP2 DUP5 PUSH1 0x1 DUP4 MUL DUP5 ADD GT PUSH1 0x1 PUSH1 0x20 SHL DUP4 GT OR ISZERO PUSH2 0xA32 JUMPI PUSH1 0x0 DUP1 REVERT JUMPDEST SWAP2 SWAP1 DUP1 DUP1 PUSH1 0x1F ADD PUSH1 0x20 DUP1 SWAP2 DIV MUL PUSH1 0x20 ADD PUSH1 0x40 MLOAD SWAP1 DUP2 ADD PUSH1 0x40 MSTORE DUP1 SWAP4 SWAP3 SWAP2 SWAP1 DUP2 DUP2 MSTORE PUSH1 0x20 ADD DUP4 DUP4 DUP1 DUP3 DUP5 CALLDATACOPY PUSH1 0x0 SWAP3 ADD SWAP2 SWAP1 SWAP2 MSTORE POP SWAP3 SWAP6 SWAP5 SWAP4 PUSH1 0x20 DUP2 ADD SWAP4 POP CALLDATALOAD SWAP2 POP POP PUSH1 0x1 PUSH1 0x20 SHL DUP2 GT ISZERO PUSH2 0xA84 JUMPI PUSH1 0x0 DUP1 REVERT JUMPDEST DUP3 ADD DUP4 PUSH1 0x20 DUP3 ADD GT ISZERO PUSH2 0xA96 JUMPI PUSH1 0x0 DUP1 REVERT JUMPDEST DUP1 CALLDATALOAD SWAP1 PUSH1 0x20 ADD SWAP2 DUP5 PUSH1 0x1 DUP4 MUL DUP5 ADD GT PUSH1 0x1 PUSH1 0x20 SHL DUP4 GT OR ISZERO PUSH2 0xAB7 JUMPI PUSH1 0x0 DUP1 REVERT JUMPDEST SWAP2 SWAP1 DUP1 DUP1 PUSH1 0x1F ADD PUSH1 0x20 DUP1 SWAP2 DIV MUL PUSH1 0x20 ADD PUSH1 0x40 MLOAD SWAP1 DUP2 ADD PUSH1 0x40 MSTORE DUP1 SWAP4 SWAP3 SWAP2 SWAP1 DUP2 DUP2 MSTORE PUSH1 0x20 ADD DUP4 DUP4 DUP1 DUP3 DUP5 CALLDATACOPY PUSH1 0x0 SWAP3 ADD SWAP2 SWAP1 SWAP2 MSTORE POP SWAP3 SWAP6 POP POP SWAP2 CALLDATALOAD SWAP3 POP PUSH2 0x2246 SWAP2 POP POP JUMP JUMPDEST PUSH2 0x30E PUSH2 0x23FE JUMP JUMPDEST PUSH2 0x834 PUSH1 0x4 DUP1 CALLDATASIZE SUB PUSH1 0x20 DUP2 LT ISZERO PUSH2 0xB18 JUMPI PUSH1 0x0 DUP1 REVERT JUMPDEST POP CALLDATALOAD PUSH2 0x2459 JUMP JUMPDEST PUSH2 0x297 PUSH1 0x4 DUP1 CALLDATASIZE SUB PUSH1 0x20 DUP2 LT ISZERO PUSH2 0xB35 JUMPI PUSH1 0x0 DUP1 REVERT JUMPDEST POP CALLDATALOAD PUSH1 0x1 PUSH1 0x1 PUSH1 0xA0 SHL SUB AND PUSH2 0x2480 JUMP JUMPDEST PUSH2 0x297 PUSH2 0x249E JUMP JUMPDEST PUSH2 0x7A7 PUSH2 0x24A4 JUMP JUMPDEST PUSH2 0x3B5 PUSH1 0x4 DUP1 CALLDATASIZE SUB PUSH1 0xE0 DUP2 LT ISZERO PUSH2 0xB6B JUMPI PUSH1 0x0 DUP1 REVERT JUMPDEST DUP2 ADD SWAP1 PUSH1 0x20 DUP2 ADD DUP2 CALLDATALOAD PUSH1 0x1 PUSH1 0x20 SHL DUP2 GT ISZERO PUSH2 0xB85 JUMPI PUSH1 0x0 DUP1 REVERT JUMPDEST DUP3 ADD DUP4 PUSH1 0x20 DUP3 ADD GT ISZERO PUSH2 0xB97 JUMPI PUSH1 0x0 DUP1 REVERT JUMPDEST DUP1 CALLDATALOAD SWAP1 PUSH1 0x20 ADD SWAP2 DUP5 PUSH1 0x1 DUP4 MUL DUP5 ADD GT PUSH1 0x1 PUSH1 0x20 SHL DUP4 GT OR ISZERO PUSH2 0xBB8 JUMPI PUSH1 0x0 DUP1 REVERT JUMPDEST SWAP2 SWAP1 DUP1 DUP1 PUSH1 0x1F ADD PUSH1 0x20 DUP1 SWAP2 DIV MUL PUSH1 0x20 ADD PUSH1 0x40 MLOAD SWAP1 DUP2 ADD PUSH1 0x40 MSTORE DUP1 SWAP4 SWAP3 SWAP2 SWAP1 DUP2 DUP2 MSTORE PUSH1 0x20 ADD DUP4 DUP4 DUP1 DUP3 DUP5 CALLDATACOPY PUSH1 0x0 SWAP3 ADD SWAP2 SWAP1 SWAP2 MSTORE POP SWAP3 SWAP6 DUP5 CALLDATALOAD SWAP6 PUSH1 0x20 DUP7 ADD CALLDATALOAD SWAP6 SWAP2 SWAP5 POP SWAP3 POP PUSH1 0x60 DUP2 ADD SWAP2 POP PUSH1 0x40 ADD CALLDATALOAD PUSH1 0x1 PUSH1 0x20 SHL DUP2 GT ISZERO PUSH2 0xC16 JUMPI PUSH1 0x0 DUP1 REVERT JUMPDEST DUP3 ADD DUP4 PUSH1 0x20 DUP3 ADD GT ISZERO PUSH2 0xC28 JUMPI PUSH1 0x0 DUP1 REVERT JUMPDEST DUP1 CALLDATALOAD SWAP1 PUSH1 0x20 ADD SWAP2 DUP5 PUSH1 0x1 DUP4 MUL DUP5 ADD GT PUSH1 0x1 PUSH1 0x20 SHL DUP4 GT OR ISZERO PUSH2 0xC49 JUMPI PUSH1 0x0 DUP1 REVERT JUMPDEST SWAP2 SWAP1 DUP1 DUP1 PUSH1 0x1F ADD PUSH1 0x20 DUP1 SWAP2 DIV MUL PUSH1 0x20 ADD PUSH1 0x40 MLOAD SWAP1 DUP2 ADD PUSH1 0x40 MSTORE DUP1 SWAP4 SWAP3 SWAP2 SWAP1 DUP2 DUP2 MSTORE PUSH1 0x20 ADD DUP4 DUP4 DUP1 DUP3 DUP5 CALLDATACOPY PUSH1 0x0 SWAP3 ADD SWAP2 SWAP1 SWAP2 MSTORE POP SWAP3 SWAP6 POP POP PUSH1 0x1 PUSH1 0x1 PUSH1 0xA0 SHL SUB DUP4 CALLDATALOAD AND SWAP4 POP POP POP PUSH1 0x20 DUP2 ADD CALLDATALOAD SWAP1 PUSH1 0x40 ADD CALLDATALOAD PUSH2 0x2505 JUMP JUMPDEST PUSH2 0x3B5 PUSH1 0x4 DUP1 CALLDATASIZE SUB PUSH1 0x20 DUP2 LT ISZERO PUSH2 0xCB4 JUMPI PUSH1 0x0 DUP1 REVERT JUMPDEST POP CALLDATALOAD PUSH2 0x264A JUMP JUMPDEST PUSH2 0x624 PUSH1 0x4 DUP1 CALLDATASIZE SUB PUSH1 0x20 DUP2 LT ISZERO PUSH2 0xCD1 JUMPI PUSH1 0x0 DUP1 REVERT JUMPDEST POP CALLDATALOAD PUSH1 0x1 PUSH1 0x1 PUSH1 0xA0 SHL SUB AND PUSH2 0x281F JUMP JUMPDEST PUSH2 0x297 PUSH2 0x2847 JUMP JUMPDEST PUSH2 0x30E PUSH1 0x4 DUP1 CALLDATASIZE SUB PUSH1 0x20 DUP2 LT ISZERO PUSH2 0xCFF JUMPI PUSH1 0x0 DUP1 REVERT JUMPDEST POP CALLDATALOAD PUSH2 0x2851 JUMP JUMPDEST PUSH1 0x0 DUP1 MLOAD PUSH1 0x20 PUSH2 0x2F8A DUP4 CODECOPY DUP2 MLOAD SWAP2 MSTORE DUP2 JUMP JUMPDEST PUSH1 0xB PUSH1 0x20 MSTORE PUSH1 0x0 SWAP1 DUP2 MSTORE PUSH1 0x40 SWAP1 KECCAK256 DUP1 SLOAD PUSH1 0x1 DUP3 ADD SLOAD PUSH1 0x2 DUP4 ADD SLOAD PUSH1 0x3 SWAP1 SWAP4 ADD SLOAD PUSH1 0x1 PUSH1 0x1 PUSH1 0xA0 SHL SUB SWAP3 DUP4 AND SWAP4 SWAP3 DUP3 AND SWAP3 PUSH1 0x1 PUSH1 0xA0 SHL SWAP1 SWAP3 DIV PUSH1 0xFF AND SWAP2 SWAP1 DUP6 JUMP JUMPDEST PUSH1 0x6 DUP1 SLOAD PUSH1 0x40 DUP1 MLOAD PUSH1 0x20 PUSH1 0x2 PUSH1 0x1 DUP6 AND ISZERO PUSH2 0x100 MUL PUSH1 0x0 NOT ADD SWAP1 SWAP5 AND SWAP4 SWAP1 SWAP4 DIV PUSH1 0x1F DUP2 ADD DUP5 SWAP1 DIV DUP5 MUL DUP3 ADD DUP5 ADD SWAP1 SWAP3 MSTORE DUP2 DUP2 MSTORE SWAP3 SWAP2 DUP4 ADD DUP3 DUP3 DUP1 ISZERO PUSH2 0xDDE JUMPI DUP1 PUSH1 0x1F LT PUSH2 0xDB3 JUMPI PUSH2 0x100 DUP1 DUP4 SLOAD DIV MUL DUP4 MSTORE SWAP2 PUSH1 0x20 ADD SWAP2 PUSH2 0xDDE JUMP JUMPDEST DUP3 ADD SWAP2 SWAP1 PUSH1 0x0 MSTORE PUSH1 0x20 PUSH1 0x0 KECCAK256 SWAP1 JUMPDEST DUP2 SLOAD DUP2 MSTORE SWAP1 PUSH1 0x1 ADD SWAP1 PUSH1 0x20 ADD DUP1 DUP4 GT PUSH2 0xDC1 JUMPI DUP3 SWAP1 SUB PUSH1 0x1F AND DUP3 ADD SWAP2 JUMPDEST POP POP POP POP POP DUP2 JUMP JUMPDEST PUSH2 0xDF0 PUSH1 0x1 PUSH2 0x1C72 JUMP JUMPDEST PUSH2 0xDF9 JUMPI PUSH1 0x0 DUP1 REVERT JUMPDEST PUSH1 0x14 SLOAD PUSH2 0x100 SWAP1 DIV PUSH1 0xFF AND PUSH2 0xE49 JUMPI PUSH1 0x40 DUP1 MLOAD PUSH3 0x461BCD PUSH1 0xE5 SHL DUP2 MSTORE PUSH1 0x20 PUSH1 0x4 DUP3 ADD MSTORE PUSH1 0x11 PUSH1 0x24 DUP3 ADD MSTORE PUSH17 0xA6CAE840D2E640DCDEE8408CD2DCD2E6D PUSH1 0x7B SHL PUSH1 0x44 DUP3 ADD MSTORE SWAP1 MLOAD SWAP1 DUP2 SWAP1 SUB PUSH1 0x64 ADD SWAP1 REVERT JUMPDEST PUSH2 0xE52 DUP2 PUSH2 0x11BC JUMP JUMPDEST PUSH2 0xE5B JUMPI PUSH1 0x0 DUP1 REVERT JUMPDEST CALLER PUSH1 0x0 SWAP1 DUP2 MSTORE PUSH1 0xB PUSH1 0x20 MSTORE PUSH1 0x40 SWAP1 KECCAK256 PUSH1 0x1 DUP2 ADD DUP1 SLOAD PUSH1 0xFF PUSH1 0xA0 SHL NOT AND PUSH1 0x1 PUSH1 0xA0 SHL OR SWAP1 SSTORE PUSH1 0x3 ADD SLOAD PUSH2 0xEFB JUMPI CALLER PUSH1 0x0 DUP2 DUP2 MSTORE PUSH1 0xB PUSH1 0x20 MSTORE PUSH1 0x40 DUP2 KECCAK256 PUSH1 0x1 DUP1 DUP3 ADD DUP1 SLOAD PUSH1 0x1 PUSH1 0x1 PUSH1 0xA0 SHL SUB DUP8 AND PUSH1 0x1 PUSH1 0x1 PUSH1 0xA0 SHL SUB NOT SWAP2 DUP3 AND OR SWAP1 SWAP2 SSTORE DUP3 SLOAD DUP2 AND DUP6 OR SWAP1 SWAP3 SSTORE PUSH1 0xC DUP1 SLOAD SWAP2 DUP3 ADD DUP2 SSTORE SWAP1 SWAP3 MSTORE PUSH32 0xDF6966C971051C3D54EC59162606531493A51404A002842F56009D7E5CF4A8C7 SWAP1 SWAP2 ADD DUP1 SLOAD SWAP1 SWAP2 AND SWAP1 SWAP2 OR SWAP1 SSTORE JUMPDEST CALLER PUSH1 0x0 SWAP1 DUP2 MSTORE PUSH1 0xB PUSH1 0x20 MSTORE PUSH1 0x40 SWAP1 KECCAK256 PUSH1 0x1 ADD SLOAD PUSH1 0x1 PUSH1 0xA0 SHL SWAP1 DIV PUSH1 0xFF AND ISZERO PUSH2 0xF3E JUMPI CALLER PUSH1 0x0 SWAP1 DUP2 MSTORE PUSH1 0xB PUSH1 0x20 MSTORE PUSH1 0x40 SWAP1 KECCAK256 PUSH1 0x2 DUP2 ADD DUP5 SWAP1 SSTORE PUSH1 0x3 ADD DUP1 SLOAD PUSH1 0x1 ADD SWAP1 SSTORE JUMPDEST PUSH1 0x0 DUP1 SLOAD DUP4 ADD DUP2 SSTORE DUP1 PUSH2 0xF76 DUP6 PUSH1 0x0 DUP1 MLOAD PUSH1 0x20 PUSH2 0x2F8A DUP4 CODECOPY DUP2 MLOAD SWAP2 MSTORE PUSH1 0x0 DUP1 MLOAD PUSH1 0x20 PUSH2 0x2F6A DUP4 CODECOPY DUP2 MLOAD SWAP2 MSTORE DUP5 PUSH5 0x1000003D0 NOT PUSH2 0x285E JUMP JUMPDEST PUSH1 0x1 SLOAD PUSH1 0x2 SLOAD SWAP3 SWAP5 POP SWAP1 SWAP3 POP SWAP1 PUSH2 0xF98 DUP5 DUP5 DUP5 DUP5 PUSH1 0x0 PUSH5 0x1000003D0 NOT PUSH2 0x2898 JUMP JUMPDEST PUSH1 0x2 SSTORE PUSH1 0x1 SSTORE POP POP POP POP POP POP POP JUMP JUMPDEST PUSH1 0x0 DUP1 PUSH2 0xFDA DUP4 PUSH1 0x0 DUP1 MLOAD PUSH1 0x20 PUSH2 0x2F8A DUP4 CODECOPY DUP2 MLOAD SWAP2 MSTORE PUSH1 0x0 DUP1 MLOAD PUSH1 0x20 PUSH2 0x2F6A DUP4 CODECOPY DUP2 MLOAD SWAP2 MSTORE PUSH1 0x0 PUSH5 0x1000003D0 NOT PUSH2 0x285E JUMP JUMPDEST SWAP1 SWAP5 SWAP1 SWAP4 POP SWAP2 POP POP JUMP JUMPDEST PUSH1 0x60 PUSH1 0xF DUP3 PUSH1 0x40 MLOAD DUP1 DUP3 DUP1 MLOAD SWAP1 PUSH1 0x20 ADD SWAP1 DUP1 DUP4 DUP4 JUMPDEST PUSH1 0x20 DUP4 LT PUSH2 0x1018 JUMPI DUP1 MLOAD DUP3 MSTORE PUSH1 0x1F NOT SWAP1 SWAP3 ADD SWAP2 PUSH1 0x20 SWAP2 DUP3 ADD SWAP2 ADD PUSH2 0xFF9 JUMP JUMPDEST MLOAD DUP2 MLOAD PUSH1 0x0 NOT PUSH1 0x20 SWAP5 DUP6 SUB PUSH2 0x100 SWAP1 DUP2 EXP DUP3 ADD SWAP3 DUP4 AND SWAP3 NOT SWAP4 SWAP1 SWAP4 AND SWAP2 SWAP1 SWAP2 OR SWAP1 SWAP3 MSTORE SWAP5 SWAP1 SWAP3 ADD SWAP7 DUP8 MSTORE PUSH1 0x40 DUP1 MLOAD SWAP8 DUP9 SWAP1 SUB DUP3 ADD DUP9 KECCAK256 DUP1 SLOAD PUSH1 0x1F PUSH1 0x2 PUSH1 0x1 DUP4 AND ISZERO SWAP1 SWAP9 MUL SWAP1 SWAP6 ADD AND SWAP6 SWAP1 SWAP6 DIV SWAP3 DUP4 ADD DUP3 SWAP1 DIV DUP3 MUL DUP9 ADD DUP3 ADD SWAP1 MSTORE DUP2 DUP8 MSTORE SWAP3 SWAP5 POP SWAP3 POP POP DUP4 ADD DUP3 DUP3 DUP1 ISZERO PUSH2 0x10CC JUMPI DUP1 PUSH1 0x1F LT PUSH2 0x10A1 JUMPI PUSH2 0x100 DUP1 DUP4 SLOAD DIV MUL DUP4 MSTORE SWAP2 PUSH1 0x20 ADD SWAP2 PUSH2 0x10CC JUMP JUMPDEST DUP3 ADD SWAP2 SWAP1 PUSH1 0x0 MSTORE PUSH1 0x20 PUSH1 0x0 KECCAK256 SWAP1 JUMPDEST DUP2 SLOAD DUP2 MSTORE SWAP1 PUSH1 0x1 ADD SWAP1 PUSH1 0x20 ADD DUP1 DUP4 GT PUSH2 0x10AF JUMPI DUP3 SWAP1 SUB PUSH1 0x1F AND DUP3 ADD SWAP2 JUMPDEST POP POP POP POP POP SWAP1 POP JUMPDEST SWAP2 SWAP1 POP JUMP JUMPDEST PUSH1 0x0 DUP2 DUP2 DUP1 JUMPDEST DUP3 MLOAD DUP3 LT ISZERO PUSH2 0x112F JUMPI PUSH1 0x0 DUP4 DUP4 DUP2 MLOAD DUP2 LT PUSH2 0x10F6 JUMPI INVALID JUMPDEST ADD PUSH1 0x20 ADD MLOAD PUSH1 0xF8 SHR SWAP1 POP PUSH1 0x30 DUP2 LT DUP1 ISZERO SWAP1 PUSH2 0x1112 JUMPI POP PUSH1 0x39 DUP2 GT ISZERO JUMPDEST ISZERO PUSH2 0x1123 JUMPI PUSH1 0x30 DUP2 SUB DUP3 PUSH1 0xA MUL ADD SWAP2 POP JUMPDEST POP PUSH1 0x1 SWAP1 SWAP2 ADD SWAP1 PUSH2 0x10DF JUMP JUMPDEST SWAP5 SWAP4 POP POP POP POP JUMP JUMPDEST PUSH1 0x8 SLOAD DUP2 JUMP JUMPDEST PUSH1 0x0 PUSH1 0xF DUP3 PUSH1 0x40 MLOAD DUP1 DUP3 DUP1 MLOAD SWAP1 PUSH1 0x20 ADD SWAP1 DUP1 DUP4 DUP4 JUMPDEST PUSH1 0x20 DUP4 LT PUSH2 0x1171 JUMPI DUP1 MLOAD DUP3 MSTORE PUSH1 0x1F NOT SWAP1 SWAP3 ADD SWAP2 PUSH1 0x20 SWAP2 DUP3 ADD SWAP2 ADD PUSH2 0x1152 JUMP JUMPDEST MLOAD DUP2 MLOAD PUSH1 0x20 SWAP4 DUP5 SUB PUSH2 0x100 EXP PUSH1 0x0 NOT ADD DUP1 NOT SWAP1 SWAP3 AND SWAP2 AND OR SWAP1 MSTORE SWAP3 ADD SWAP5 DUP6 MSTORE POP PUSH1 0x40 MLOAD SWAP4 DUP5 SWAP1 SUB ADD SWAP1 SWAP3 KECCAK256 PUSH1 0x1 ADD SLOAD SWAP5 SWAP4 POP POP POP POP JUMP JUMPDEST PUSH1 0x9 DUP2 PUSH1 0x2 DUP2 LT PUSH2 0x11B5 JUMPI INVALID JUMPDEST ADD SLOAD SWAP1 POP DUP2 JUMP JUMPDEST PUSH1 0x40 DUP1 MLOAD PUSH4 0x17AA5FB7 PUSH1 0xE1 SHL DUP2 MSTORE CALLER PUSH1 0x4 DUP3 ADD MSTORE SWAP1 MLOAD PUSH1 0x0 SWAP2 DUP4 SWAP2 DUP3 SWAP2 PUSH1 0x1 PUSH1 0x1 PUSH1 0xA0 SHL SUB DUP4 AND SWAP2 PUSH4 0x2F54BF6E SWAP2 PUSH1 0x24 DUP1 DUP3 ADD SWAP3 PUSH1 0x20 SWAP3 SWAP1 SWAP2 SWAP1 DUP3 SWAP1 SUB ADD DUP2 DUP7 DUP1 EXTCODESIZE ISZERO DUP1 ISZERO PUSH2 0x120A JUMPI PUSH1 0x0 DUP1 REVERT JUMPDEST POP GAS STATICCALL ISZERO DUP1 ISZERO PUSH2 0x121E JUMPI RETURNDATASIZE PUSH1 0x0 DUP1 RETURNDATACOPY RETURNDATASIZE PUSH1 0x0 REVERT JUMPDEST POP POP POP POP PUSH1 0x40 MLOAD RETURNDATASIZE PUSH1 0x20 DUP2 LT ISZERO PUSH2 0x1234 JUMPI PUSH1 0x0 DUP1 REVERT JUMPDEST POP MLOAD PUSH2 0x1245 JUMPI PUSH1 0x0 SWAP3 POP POP POP PUSH2 0x10D4 JUMP JUMPDEST PUSH1 0x0 JUMPDEST PUSH1 0x10 SLOAD DUP2 LT ISZERO PUSH2 0x1C24 JUMPI PUSH1 0xF PUSH1 0x10 DUP3 DUP2 SLOAD DUP2 LT PUSH2 0x1261 JUMPI INVALID JUMPDEST SWAP1 PUSH1 0x0 MSTORE PUSH1 0x20 PUSH1 0x0 KECCAK256 ADD PUSH1 0x40 MLOAD DUP1 DUP3 DUP1 SLOAD PUSH1 0x1 DUP2 PUSH1 0x1 AND ISZERO PUSH2 0x100 MUL SUB AND PUSH1 0x2 SWAP1 DIV DUP1 ISZERO PUSH2 0x12C6 JUMPI DUP1 PUSH1 0x1F LT PUSH2 0x12A4 JUMPI PUSH2 0x100 DUP1 DUP4 SLOAD DIV MUL DUP4 MSTORE SWAP2 DUP3 ADD SWAP2 PUSH2 0x12C6 JUMP JUMPDEST DUP3 ADD SWAP2 SWAP1 PUSH1 0x0 MSTORE PUSH1 0x20 PUSH1 0x0 KECCAK256 SWAP1 JUMPDEST DUP2 SLOAD DUP2 MSTORE SWAP1 PUSH1 0x1 ADD SWAP1 PUSH1 0x20 ADD DUP1 DUP4 GT PUSH2 0x12B2 JUMPI JUMPDEST POP POP SWAP3 DUP4 MSTORE POP POP PUSH1 0x40 MLOAD SWAP1 DUP2 SWAP1 SUB PUSH1 0x20 ADD SWAP1 KECCAK256 PUSH1 0x1 ADD SLOAD PUSH2 0x16D9 JUMPI DUP3 PUSH1 0x1 PUSH1 0x1 PUSH1 0xA0 SHL SUB AND PUSH4 0x8CBA76B1 PUSH1 0xD PUSH1 0x0 SWAP1 SLOAD SWAP1 PUSH2 0x100 EXP SWAP1 DIV PUSH1 0x1 PUSH1 0x1 PUSH1 0xA0 SHL SUB AND PUSH1 0xE PUSH1 0x10 DUP6 DUP2 SLOAD DUP2 LT PUSH2 0x1315 JUMPI INVALID JUMPDEST SWAP1 PUSH1 0x0 MSTORE PUSH1 0x20 PUSH1 0x0 KECCAK256 ADD PUSH1 0x40 MLOAD DUP5 PUSH4 0xFFFFFFFF AND PUSH1 0xE0 SHL DUP2 MSTORE PUSH1 0x4 ADD DUP1 DUP5 PUSH1 0x1 PUSH1 0x1 PUSH1 0xA0 SHL SUB AND PUSH1 0x1 PUSH1 0x1 PUSH1 0xA0 SHL SUB AND DUP2 MSTORE PUSH1 0x20 ADD DUP1 PUSH1 0x20 ADD DUP1 PUSH1 0x20 ADD DUP4 DUP2 SUB DUP4 MSTORE DUP6 DUP2 DUP2 SLOAD PUSH1 0x1 DUP2 PUSH1 0x1 AND ISZERO PUSH2 0x100 MUL SUB AND PUSH1 0x2 SWAP1 DIV DUP2 MSTORE PUSH1 0x20 ADD SWAP2 POP DUP1 SLOAD PUSH1 0x1 DUP2 PUSH1 0x1 AND ISZERO PUSH2 0x100 MUL SUB AND PUSH1 0x2 SWAP1 DIV DUP1 ISZERO PUSH2 0x13D3 JUMPI DUP1 PUSH1 0x1F LT PUSH2 0x13A8 JUMPI PUSH2 0x100 DUP1 DUP4 SLOAD DIV MUL DUP4 MSTORE SWAP2 PUSH1 0x20 ADD SWAP2 PUSH2 0x13D3 JUMP JUMPDEST DUP3 ADD SWAP2 SWAP1 PUSH1 0x0 MSTORE PUSH1 0x20 PUSH1 0x0 KECCAK256 SWAP1 JUMPDEST DUP2 SLOAD DUP2 MSTORE SWAP1 PUSH1 0x1 ADD SWAP1 PUSH1 0x20 ADD DUP1 DUP4 GT PUSH2 0x13B6 JUMPI DUP3 SWAP1 SUB PUSH1 0x1F AND DUP3 ADD SWAP2 JUMPDEST POP POP DUP4 DUP2 SUB DUP3 MSTORE DUP5 SLOAD PUSH1 0x2 PUSH1 0x0 NOT PUSH2 0x100 PUSH1 0x1 DUP5 AND ISZERO MUL ADD SWAP1 SWAP2 AND DIV DUP1 DUP3 MSTORE PUSH1 0x20 SWAP1 SWAP2 ADD SWAP1 DUP6 SWAP1 DUP1 ISZERO PUSH2 0x1447 JUMPI DUP1 PUSH1 0x1F LT PUSH2 0x141C JUMPI PUSH2 0x100 DUP1 DUP4 SLOAD DIV MUL DUP4 MSTORE SWAP2 PUSH1 0x20 ADD SWAP2 PUSH2 0x1447 JUMP JUMPDEST DUP3 ADD SWAP2 SWAP1 PUSH1 0x0 MSTORE PUSH1 0x20 PUSH1 0x0 KECCAK256 SWAP1 JUMPDEST DUP2 SLOAD DUP2 MSTORE SWAP1 PUSH1 0x1 ADD SWAP1 PUSH1 0x20 ADD DUP1 DUP4 GT PUSH2 0x142A JUMPI DUP3 SWAP1 SUB PUSH1 0x1F AND DUP3 ADD SWAP2 JUMPDEST POP POP SWAP6 POP POP POP POP POP POP PUSH1 0x0 PUSH1 0x40 MLOAD DUP1 DUP4 SUB DUP2 DUP7 DUP1 EXTCODESIZE ISZERO DUP1 ISZERO PUSH2 0x1468 JUMPI PUSH1 0x0 DUP1 REVERT JUMPDEST POP GAS STATICCALL ISZERO DUP1 ISZERO PUSH2 0x147C JUMPI RETURNDATASIZE PUSH1 0x0 DUP1 RETURNDATACOPY RETURNDATASIZE PUSH1 0x0 REVERT JUMPDEST POP POP POP POP PUSH1 0x40 MLOAD RETURNDATASIZE PUSH1 0x0 DUP3 RETURNDATACOPY PUSH1 0x1F RETURNDATASIZE SWAP1 DUP2 ADD PUSH1 0x1F NOT AND DUP3 ADD PUSH1 0x40 MSTORE PUSH1 0x20 DUP2 LT ISZERO PUSH2 0x14A5 JUMPI PUSH1 0x0 DUP1 REVERT JUMPDEST DUP2 ADD SWAP1 DUP1 DUP1 MLOAD PUSH1 0x40 MLOAD SWAP4 SWAP3 SWAP2 SWAP1 DUP5 PUSH1 0x1 PUSH1 0x20 SHL DUP3 GT ISZERO PUSH2 0x14C4 JUMPI PUSH1 0x0 DUP1 REVERT JUMPDEST SWAP1 DUP4 ADD SWAP1 PUSH1 0x20 DUP3 ADD DUP6 DUP2 GT ISZERO PUSH2 0x14D9 JUMPI PUSH1 0x0 DUP1 REVERT JUMPDEST DUP3 MLOAD PUSH1 0x1 PUSH1 0x20 SHL DUP2 GT DUP3 DUP3 ADD DUP9 LT OR ISZERO PUSH2 0x14F2 JUMPI PUSH1 0x0 DUP1 REVERT JUMPDEST DUP3 MSTORE POP DUP2 MLOAD PUSH1 0x20 SWAP2 DUP3 ADD SWAP3 SWAP1 SWAP2 ADD SWAP1 DUP1 DUP4 DUP4 PUSH1 0x0 JUMPDEST DUP4 DUP2 LT ISZERO PUSH2 0x151F JUMPI DUP2 DUP2 ADD MLOAD DUP4 DUP3 ADD MSTORE PUSH1 0x20 ADD PUSH2 0x1507 JUMP JUMPDEST POP POP POP POP SWAP1 POP SWAP1 DUP2 ADD SWAP1 PUSH1 0x1F AND DUP1 ISZERO PUSH2 0x154C JUMPI DUP1 DUP3 SUB DUP1 MLOAD PUSH1 0x1 DUP4 PUSH1 0x20 SUB PUSH2 0x100 EXP SUB NOT AND DUP2 MSTORE PUSH1 0x20 ADD SWAP2 POP JUMPDEST POP PUSH1 0x40 MSTORE POP POP POP PUSH1 0x40 MLOAD PUSH1 0x20 ADD DUP1 DUP3 DUP1 MLOAD SWAP1 PUSH1 0x20 ADD SWAP1 DUP1 DUP4 DUP4 JUMPDEST PUSH1 0x20 DUP4 LT PUSH2 0x1585 JUMPI DUP1 MLOAD DUP3 MSTORE PUSH1 0x1F NOT SWAP1 SWAP3 ADD SWAP2 PUSH1 0x20 SWAP2 DUP3 ADD SWAP2 ADD PUSH2 0x1566 JUMP JUMPDEST PUSH1 0x1 DUP4 PUSH1 0x20 SUB PUSH2 0x100 EXP SUB DUP1 NOT DUP3 MLOAD AND DUP2 DUP5 MLOAD AND DUP1 DUP3 OR DUP6 MSTORE POP POP POP POP POP POP SWAP1 POP ADD SWAP2 POP POP PUSH1 0x40 MLOAD PUSH1 0x20 DUP2 DUP4 SUB SUB DUP2 MSTORE SWAP1 PUSH1 0x40 MSTORE DUP1 MLOAD SWAP1 PUSH1 0x20 ADD KECCAK256 PUSH1 0xF PUSH1 0x10 DUP4 DUP2 SLOAD DUP2 LT PUSH2 0x15CF JUMPI INVALID JUMPDEST SWAP1 PUSH1 0x0 MSTORE PUSH1 0x20 PUSH1 0x0 KECCAK256 ADD PUSH1 0x40 MLOAD DUP1 DUP3 DUP1 SLOAD PUSH1 0x1 DUP2 PUSH1 0x1 AND ISZERO PUSH2 0x100 MUL SUB AND PUSH1 0x2 SWAP1 DIV DUP1 ISZERO PUSH2 0x1634 JUMPI DUP1 PUSH1 0x1F LT PUSH2 0x1612 JUMPI PUSH2 0x100 DUP1 DUP4 SLOAD DIV MUL DUP4 MSTORE SWAP2 DUP3 ADD SWAP2 PUSH2 0x1634 JUMP JUMPDEST DUP3 ADD SWAP2 SWAP1 PUSH1 0x0 MSTORE PUSH1 0x20 PUSH1 0x0 KECCAK256 SWAP1 JUMPDEST DUP2 SLOAD DUP2 MSTORE SWAP1 PUSH1 0x1 ADD SWAP1 PUSH1 0x20 ADD DUP1 DUP4 GT PUSH2 0x1620 JUMPI JUMPDEST POP POP SWAP2 POP POP SWAP1 DUP2 MSTORE PUSH1 0x20 ADD PUSH1 0x40 MLOAD DUP1 SWAP2 SUB SWAP1 KECCAK256 PUSH1 0x0 ADD PUSH1 0x40 MLOAD PUSH1 0x20 ADD DUP1 DUP3 DUP1 SLOAD PUSH1 0x1 DUP2 PUSH1 0x1 AND ISZERO PUSH2 0x100 MUL SUB AND PUSH1 0x2 SWAP1 DIV DUP1 ISZERO PUSH2 0x16A8 JUMPI DUP1 PUSH1 0x1F LT PUSH2 0x1686 JUMPI PUSH2 0x100 DUP1 DUP4 SLOAD DIV MUL DUP4 MSTORE SWAP2 DUP3 ADD SWAP2 PUSH2 0x16A8 JUMP JUMPDEST DUP3 ADD SWAP2 SWAP1 PUSH1 0x0 MSTORE PUSH1 0x20 PUSH1 0x0 KECCAK256 SWAP1 JUMPDEST DUP2 SLOAD DUP2 MSTORE SWAP1 PUSH1 0x1 ADD SWAP1 PUSH1 0x20 ADD DUP1 DUP4 GT PUSH2 0x1694 JUMPI JUMPDEST POP POP SWAP2 POP POP PUSH1 0x40 MLOAD PUSH1 0x20 DUP2 DUP4 SUB SUB DUP2 MSTORE SWAP1 PUSH1 0x40 MSTORE DUP1 MLOAD SWAP1 PUSH1 0x20 ADD KECCAK256 EQ PUSH2 0x16D4 JUMPI PUSH1 0x0 SWAP4 POP POP POP POP PUSH2 0x10D4 JUMP JUMPDEST PUSH2 0x1C1C JUMP JUMPDEST PUSH1 0xF PUSH1 0x10 DUP3 DUP2 SLOAD DUP2 LT PUSH2 0x16E8 JUMPI INVALID JUMPDEST SWAP1 PUSH1 0x0 MSTORE PUSH1 0x20 PUSH1 0x0 KECCAK256 ADD PUSH1 0x40 MLOAD DUP1 DUP3 DUP1 SLOAD PUSH1 0x1 DUP2 PUSH1 0x1 AND ISZERO PUSH2 0x100 MUL SUB AND PUSH1 0x2 SWAP1 DIV DUP1 ISZERO PUSH2 0x174D JUMPI DUP1 PUSH1 0x1F LT PUSH2 0x172B JUMPI PUSH2 0x100 DUP1 DUP4 SLOAD DIV MUL DUP4 MSTORE SWAP2 DUP3 ADD SWAP2 PUSH2 0x174D JUMP JUMPDEST DUP3 ADD SWAP2 SWAP1 PUSH1 0x0 MSTORE PUSH1 0x20 PUSH1 0x0 KECCAK256 SWAP1 JUMPDEST DUP2 SLOAD DUP2 MSTORE SWAP1 PUSH1 0x1 ADD SWAP1 PUSH1 0x20 ADD DUP1 DUP4 GT PUSH2 0x1739 JUMPI JUMPDEST POP POP SWAP2 POP POP SWAP1 DUP2 MSTORE PUSH1 0x20 ADD PUSH1 0x40 MLOAD DUP1 SWAP2 SUB SWAP1 KECCAK256 PUSH1 0x1 ADD SLOAD PUSH1 0x1 EQ ISZERO PUSH2 0x1B1F JUMPI PUSH1 0x0 PUSH2 0x1882 PUSH1 0xF PUSH1 0x10 DUP5 DUP2 SLOAD DUP2 LT PUSH2 0x1780 JUMPI INVALID JUMPDEST SWAP1 PUSH1 0x0 MSTORE PUSH1 0x20 PUSH1 0x0 KECCAK256 ADD PUSH1 0x40 MLOAD DUP1 DUP3 DUP1 SLOAD PUSH1 0x1 DUP2 PUSH1 0x1 AND ISZERO PUSH2 0x100 MUL SUB AND PUSH1 0x2 SWAP1 DIV DUP1 ISZERO PUSH2 0x17E5 JUMPI DUP1 PUSH1 0x1F LT PUSH2 0x17C3 JUMPI PUSH2 0x100 DUP1 DUP4 SLOAD DIV MUL DUP4 MSTORE SWAP2 DUP3 ADD SWAP2 PUSH2 0x17E5 JUMP JUMPDEST DUP3 ADD SWAP2 SWAP1 PUSH1 0x0 MSTORE PUSH1 0x20 PUSH1 0x0 KECCAK256 SWAP1 JUMPDEST DUP2 SLOAD DUP2 MSTORE SWAP1 PUSH1 0x1 ADD SWAP1 PUSH1 0x20 ADD DUP1 DUP4 GT PUSH2 0x17D1 JUMPI JUMPDEST POP POP SWAP3 DUP4 MSTORE POP POP PUSH1 0x40 DUP1 MLOAD PUSH1 0x20 SWAP3 DUP2 SWAP1 SUB DUP4 ADD DUP2 KECCAK256 DUP1 SLOAD PUSH1 0x2 PUSH1 0x1 DUP3 AND ISZERO PUSH2 0x100 MUL PUSH1 0x0 NOT ADD SWAP1 SWAP2 AND DIV PUSH1 0x1F DUP2 ADD DUP6 SWAP1 DIV DUP6 MUL DUP4 ADD DUP6 ADD SWAP1 SWAP4 MSTORE DUP3 DUP3 MSTORE SWAP1 SWAP3 SWAP1 SWAP2 SWAP1 DUP4 ADD DUP3 DUP3 DUP1 ISZERO PUSH2 0x1878 JUMPI DUP1 PUSH1 0x1F LT PUSH2 0x184D JUMPI PUSH2 0x100 DUP1 DUP4 SLOAD DIV MUL DUP4 MSTORE SWAP2 PUSH1 0x20 ADD SWAP2 PUSH2 0x1878 JUMP JUMPDEST DUP3 ADD SWAP2 SWAP1 PUSH1 0x0 MSTORE PUSH1 0x20 PUSH1 0x0 KECCAK256 SWAP1 JUMPDEST DUP2 SLOAD DUP2 MSTORE SWAP1 PUSH1 0x1 ADD SWAP1 PUSH1 0x20 ADD DUP1 DUP4 GT PUSH2 0x185B JUMPI DUP3 SWAP1 SUB PUSH1 0x1F AND DUP3 ADD SWAP2 JUMPDEST POP POP POP POP POP PUSH2 0x10D9 JUMP JUMPDEST SWAP1 POP PUSH1 0x0 PUSH2 0x1B00 DUP6 PUSH1 0x1 PUSH1 0x1 PUSH1 0xA0 SHL SUB AND PUSH4 0x8CBA76B1 PUSH1 0xD PUSH1 0x0 SWAP1 SLOAD SWAP1 PUSH2 0x100 EXP SWAP1 DIV PUSH1 0x1 PUSH1 0x1 PUSH1 0xA0 SHL SUB AND PUSH1 0xE PUSH1 0x10 DUP9 DUP2 SLOAD DUP2 LT PUSH2 0x18BD JUMPI INVALID JUMPDEST SWAP1 PUSH1 0x0 MSTORE PUSH1 0x20 PUSH1 0x0 KECCAK256 ADD PUSH1 0x40 MLOAD DUP5 PUSH4 0xFFFFFFFF AND PUSH1 0xE0 SHL DUP2 MSTORE PUSH1 0x4 ADD DUP1 DUP5 PUSH1 0x1 PUSH1 0x1 PUSH1 0xA0 SHL SUB AND PUSH1 0x1 PUSH1 0x1 PUSH1 0xA0 SHL SUB AND DUP2 MSTORE PUSH1 0x20 ADD DUP1 PUSH1 0x20 ADD DUP1 PUSH1 0x20 ADD DUP4 DUP2 SUB DUP4 MSTORE DUP6 DUP2 DUP2 SLOAD PUSH1 0x1 DUP2 PUSH1 0x1 AND ISZERO PUSH2 0x100 MUL SUB AND PUSH1 0x2 SWAP1 DIV DUP2 MSTORE PUSH1 0x20 ADD SWAP2 POP DUP1 SLOAD PUSH1 0x1 DUP2 PUSH1 0x1 AND ISZERO PUSH2 0x100 MUL SUB AND PUSH1 0x2 SWAP1 DIV DUP1 ISZERO PUSH2 0x197B JUMPI DUP1 PUSH1 0x1F LT PUSH2 0x1950 JUMPI PUSH2 0x100 DUP1 DUP4 SLOAD DIV MUL DUP4 MSTORE SWAP2 PUSH1 0x20 ADD SWAP2 PUSH2 0x197B JUMP JUMPDEST DUP3 ADD SWAP2 SWAP1 PUSH1 0x0 MSTORE PUSH1 0x20 PUSH1 0x0 KECCAK256 SWAP1 JUMPDEST DUP2 SLOAD DUP2 MSTORE SWAP1 PUSH1 0x1 ADD SWAP1 PUSH1 0x20 ADD DUP1 DUP4 GT PUSH2 0x195E JUMPI DUP3 SWAP1 SUB PUSH1 0x1F AND DUP3 ADD SWAP2 JUMPDEST POP POP DUP4 DUP2 SUB DUP3 MSTORE DUP5 SLOAD PUSH1 0x2 PUSH1 0x0 NOT PUSH2 0x100 PUSH1 0x1 DUP5 AND ISZERO MUL ADD SWAP1 SWAP2 AND DIV DUP1 DUP3 MSTORE PUSH1 0x20 SWAP1 SWAP2 ADD SWAP1 DUP6 SWAP1 DUP1 ISZERO PUSH2 0x19EF JUMPI DUP1 PUSH1 0x1F LT PUSH2 0x19C4 JUMPI PUSH2 0x100 DUP1 DUP4 SLOAD DIV MUL DUP4 MSTORE SWAP2 PUSH1 0x20 ADD SWAP2 PUSH2 0x19EF JUMP JUMPDEST DUP3 ADD SWAP2 SWAP1 PUSH1 0x0 MSTORE PUSH1 0x20 PUSH1 0x0 KECCAK256 SWAP1 JUMPDEST DUP2 SLOAD DUP2 MSTORE SWAP1 PUSH1 0x1 ADD SWAP1 PUSH1 0x20 ADD DUP1 DUP4 GT PUSH2 0x19D2 JUMPI DUP3 SWAP1 SUB PUSH1 0x1F AND DUP3 ADD SWAP2 JUMPDEST POP POP SWAP6 POP POP POP POP POP POP PUSH1 0x0 PUSH1 0x40 MLOAD DUP1 DUP4 SUB DUP2 DUP7 DUP1 EXTCODESIZE ISZERO DUP1 ISZERO PUSH2 0x1A10 JUMPI PUSH1 0x0 DUP1 REVERT JUMPDEST POP GAS STATICCALL ISZERO DUP1 ISZERO PUSH2 0x1A24 JUMPI RETURNDATASIZE PUSH1 0x0 DUP1 RETURNDATACOPY RETURNDATASIZE PUSH1 0x0 REVERT JUMPDEST POP POP POP POP PUSH1 0x40 MLOAD RETURNDATASIZE PUSH1 0x0 DUP3 RETURNDATACOPY PUSH1 0x1F RETURNDATASIZE SWAP1 DUP2 ADD PUSH1 0x1F NOT AND DUP3 ADD PUSH1 0x40 MSTORE PUSH1 0x20 DUP2 LT ISZERO PUSH2 0x1A4D JUMPI PUSH1 0x0 DUP1 REVERT JUMPDEST DUP2 ADD SWAP1 DUP1 DUP1 MLOAD PUSH1 0x40 MLOAD SWAP4 SWAP3 SWAP2 SWAP1 DUP5 PUSH1 0x1 PUSH1 0x20 SHL DUP3 GT ISZERO PUSH2 0x1A6C JUMPI PUSH1 0x0 DUP1 REVERT JUMPDEST SWAP1 DUP4 ADD SWAP1 PUSH1 0x20 DUP3 ADD DUP6 DUP2 GT ISZERO PUSH2 0x1A81 JUMPI PUSH1 0x0 DUP1 REVERT JUMPDEST DUP3 MLOAD PUSH1 0x1 PUSH1 0x20 SHL DUP2 GT DUP3 DUP3 ADD DUP9 LT OR ISZERO PUSH2 0x1A9A JUMPI PUSH1 0x0 DUP1 REVERT JUMPDEST DUP3 MSTORE POP DUP2 MLOAD PUSH1 0x20 SWAP2 DUP3 ADD SWAP3 SWAP1 SWAP2 ADD SWAP1 DUP1 DUP4 DUP4 PUSH1 0x0 JUMPDEST DUP4 DUP2 LT ISZERO PUSH2 0x1AC7 JUMPI DUP2 DUP2 ADD MLOAD DUP4 DUP3 ADD MSTORE PUSH1 0x20 ADD PUSH2 0x1AAF JUMP JUMPDEST POP POP POP POP SWAP1 POP SWAP1 DUP2 ADD SWAP1 PUSH1 0x1F AND DUP1 ISZERO PUSH2 0x1AF4 JUMPI DUP1 DUP3 SUB DUP1 MLOAD PUSH1 0x1 DUP4 PUSH1 0x20 SUB PUSH2 0x100 EXP SUB NOT AND DUP2 MSTORE PUSH1 0x20 ADD SWAP2 POP JUMPDEST POP PUSH1 0x40 MSTORE POP POP POP PUSH2 0x10D9 JUMP JUMPDEST SWAP1 POP DUP1 DUP3 GT ISZERO PUSH2 0x1B18 JUMPI PUSH1 0x0 SWAP6 POP POP POP POP POP POP PUSH2 0x10D4 JUMP JUMPDEST POP POP PUSH2 0x1C1C JUMP JUMPDEST PUSH1 0xF PUSH1 0x10 DUP3 DUP2 SLOAD DUP2 LT PUSH2 0x1B2E JUMPI INVALID JUMPDEST SWAP1 PUSH1 0x0 MSTORE PUSH1 0x20 PUSH1 0x0 KECCAK256 ADD PUSH1 0x40 MLOAD DUP1 DUP3 DUP1 SLOAD PUSH1 0x1 DUP2 PUSH1 0x1 AND ISZERO PUSH2 0x100 MUL SUB AND PUSH1 0x2 SWAP1 DIV DUP1 ISZERO PUSH2 0x1B93 JUMPI DUP1 PUSH1 0x1F LT PUSH2 0x1B71 JUMPI PUSH2 0x100 DUP1 DUP4 SLOAD DIV MUL DUP4 MSTORE SWAP2 DUP3 ADD SWAP2 PUSH2 0x1B93 JUMP JUMPDEST DUP3 ADD SWAP2 SWAP1 PUSH1 0x0 MSTORE PUSH1 0x20 PUSH1 0x0 KECCAK256 SWAP1 JUMPDEST DUP2 SLOAD DUP2 MSTORE SWAP1 PUSH1 0x1 ADD SWAP1 PUSH1 0x20 ADD DUP1 DUP4 GT PUSH2 0x1B7F JUMPI JUMPDEST POP POP SWAP2 POP POP SWAP1 DUP2 MSTORE PUSH1 0x20 ADD PUSH1 0x40 MLOAD DUP1 SWAP2 SUB SWAP1 KECCAK256 PUSH1 0x1 ADD SLOAD PUSH1 0x2 EQ ISZERO PUSH2 0x1C1C JUMPI PUSH1 0x0 PUSH2 0x1BC6 PUSH1 0xF PUSH1 0x10 DUP5 DUP2 SLOAD DUP2 LT PUSH2 0x1780 JUMPI INVALID JUMPDEST SWAP1 POP PUSH1 0x0 PUSH2 0x1C01 DUP6 PUSH1 0x1 PUSH1 0x1 PUSH1 0xA0 SHL SUB AND PUSH4 0x8CBA76B1 PUSH1 0xD PUSH1 0x0 SWAP1 SLOAD SWAP1 PUSH2 0x100 EXP SWAP1 DIV PUSH1 0x1 PUSH1 0x1 PUSH1 0xA0 SHL SUB AND PUSH1 0xE PUSH1 0x10 DUP9 DUP2 SLOAD DUP2 LT PUSH2 0x18BD JUMPI INVALID JUMPDEST SWAP1 POP DUP1 DUP3 LT ISZERO PUSH2 0x1C19 JUMPI PUSH1 0x0 SWAP6 POP POP POP POP POP POP PUSH2 0x10D4 JUMP JUMPDEST POP POP JUMPDEST PUSH1 0x1 ADD PUSH2 0x1248 JUMP JUMPDEST POP PUSH1 0x1 SWAP5 SWAP4 POP POP POP POP JUMP JUMPDEST PUSH1 0x0 DUP1 PUSH2 0x1C47 DUP7 DUP7 DUP7 DUP7 PUSH1 0x0 PUSH5 0x1000003D0 NOT PUSH2 0x2898 JUMP JUMPDEST SWAP1 SWAP8 SWAP1 SWAP7 POP SWAP5 POP POP POP POP POP JUMP JUMPDEST PUSH1 0x11 DUP2 DUP2 SLOAD DUP2 LT PUSH2 0x1C61 JUMPI INVALID JUMPDEST PUSH1 0x0 SWAP2 DUP3 MSTORE PUSH1 0x20 SWAP1 SWAP2 KECCAK256 ADD SLOAD SWAP1 POP DUP2 JUMP JUMPDEST PUSH1 0x0 DUP2 PUSH2 0x1C97 JUMPI PUSH1 0x9 SLOAD PUSH2 0x3E8 TIMESTAMP MUL LT ISZERO PUSH2 0x1C8F JUMPI POP PUSH1 0x1 PUSH2 0x10D4 JUMP JUMPDEST POP PUSH1 0x0 PUSH2 0x10D4 JUMP JUMPDEST DUP2 PUSH1 0x1 EQ ISZERO PUSH2 0x1CCB JUMPI PUSH1 0xA SLOAD PUSH2 0x3E8 TIMESTAMP MUL LT DUP1 ISZERO PUSH2 0x1CBE JUMPI POP PUSH1 0x9 PUSH1 0x0 JUMPDEST ADD SLOAD TIMESTAMP PUSH2 0x3E8 MUL GT JUMPDEST ISZERO PUSH2 0x1C8F JUMPI POP PUSH1 0x1 PUSH2 0x10D4 JUMP JUMPDEST DUP2 PUSH1 0x2 EQ ISZERO PUSH2 0x1C8F JUMPI PUSH1 0x9 PUSH1 0x1 PUSH2 0x1CB5 JUMP JUMPDEST PUSH1 0x5 SLOAD PUSH1 0x40 DUP1 MLOAD PUSH4 0x17AA5FB7 PUSH1 0xE1 SHL DUP2 MSTORE CALLER PUSH1 0x4 DUP3 ADD MSTORE SWAP1 MLOAD PUSH1 0x1 PUSH1 0x1 PUSH1 0xA0 SHL SUB SWAP1 SWAP3 AND SWAP2 DUP3 SWAP2 PUSH4 0x2F54BF6E SWAP2 PUSH1 0x24 DUP1 DUP4 ADD SWAP3 PUSH1 0x20 SWAP3 SWAP2 SWAP1 DUP3 SWAP1 SUB ADD DUP2 DUP7 DUP1 EXTCODESIZE ISZERO DUP1 ISZERO PUSH2 0x1D29 JUMPI PUSH1 0x0 DUP1 REVERT JUMPDEST POP GAS STATICCALL ISZERO DUP1 ISZERO PUSH2 0x1D3D JUMPI RETURNDATASIZE PUSH1 0x0 DUP1 RETURNDATACOPY RETURNDATASIZE PUSH1 0x0 REVERT JUMPDEST POP POP POP POP PUSH1 0x40 MLOAD RETURNDATASIZE PUSH1 0x20 DUP2 LT ISZERO PUSH2 0x1D53 JUMPI PUSH1 0x0 DUP1 REVERT JUMPDEST POP MLOAD PUSH2 0x1D5E JUMPI PUSH1 0x0 DUP1 REVERT JUMPDEST PUSH1 0x14 SLOAD PUSH2 0x100 SWAP1 DIV PUSH1 0xFF AND ISZERO PUSH2 0x1DA9 JUMPI PUSH1 0x40 DUP1 MLOAD PUSH3 0x461BCD PUSH1 0xE5 SHL DUP2 MSTORE PUSH1 0x20 PUSH1 0x4 DUP3 ADD MSTORE PUSH1 0xB PUSH1 0x24 DUP3 ADD MSTORE PUSH11 0x10D85B881B9BDD0814D95D PUSH1 0xAA SHL PUSH1 0x44 DUP3 ADD MSTORE SWAP1 MLOAD SWAP1 DUP2 SWAP1 SUB PUSH1 0x64 ADD SWAP1 REVERT JUMPDEST PUSH1 0x7 DUP1 SLOAD PUSH1 0x1 DUP2 ADD DUP3 SSTORE PUSH1 0x0 SWAP2 SWAP1 SWAP2 MSTORE DUP3 MLOAD PUSH2 0x1DEC SWAP2 PUSH32 0xA66CC928B5EDB82AF9BD49922954155AB7B0942694BEA4CE44661D9A8736C688 ADD SWAP1 PUSH1 0x20 DUP6 ADD SWAP1 PUSH2 0x2E24 JUMP JUMPDEST POP POP PUSH1 0x8 DUP1 SLOAD PUSH1 0x1 SWAP1 DUP2 ADD SWAP1 SWAP2 SSTORE PUSH1 0x11 DUP1 SLOAD SWAP2 DUP3 ADD DUP2 SSTORE PUSH1 0x0 SWAP1 DUP2 MSTORE PUSH32 0x31ECC21A745E3968A04E9570E4425BC18FA8019C68028196B546D1669C200C68 SWAP1 SWAP2 ADD SSTORE POP JUMP JUMPDEST PUSH1 0x7 DUP2 DUP2 SLOAD DUP2 LT PUSH2 0x1E3D JUMPI INVALID JUMPDEST PUSH1 0x0 SWAP2 DUP3 MSTORE PUSH1 0x20 SWAP2 DUP3 SWAP1 KECCAK256 ADD DUP1 SLOAD PUSH1 0x40 DUP1 MLOAD PUSH1 0x1F PUSH1 0x2 PUSH1 0x0 NOT PUSH2 0x100 PUSH1 0x1 DUP8 AND ISZERO MUL ADD SWAP1 SWAP5 AND SWAP4 SWAP1 SWAP4 DIV SWAP3 DUP4 ADD DUP6 SWAP1 DIV DUP6 MUL DUP2 ADD DUP6 ADD SWAP1 SWAP2 MSTORE DUP2 DUP2 MSTORE SWAP4 POP SWAP1 SWAP2 DUP4 ADD DUP3 DUP3 DUP1 ISZERO PUSH2 0xDDE JUMPI DUP1 PUSH1 0x1F LT PUSH2 0xDB3 JUMPI PUSH2 0x100 DUP1 DUP4 SLOAD DIV MUL DUP4 MSTORE SWAP2 PUSH1 0x20 ADD SWAP2 PUSH2 0xDDE JUMP JUMPDEST PUSH1 0x0 SLOAD DUP2 JUMP JUMPDEST PUSH1 0x0 DUP1 PUSH1 0x0 PUSH2 0x1EE1 DUP5 PUSH1 0x1 ADD PUSH1 0x0 DUP1 MLOAD PUSH1 0x20 PUSH2 0x2F8A DUP4 CODECOPY DUP2 MLOAD SWAP2 MSTORE PUSH1 0x0 DUP1 MLOAD PUSH1 0x20 PUSH2 0x2F6A DUP4 CODECOPY DUP2 MLOAD SWAP2 MSTORE PUSH1 0x0 PUSH5 0x1000003D0 NOT PUSH2 0x285E JUMP JUMPDEST PUSH1 0x1 SLOAD SWAP2 SWAP4 POP SWAP2 POP DUP3 EQ DUP1 ISZERO PUSH2 0x1EF8 JUMPI POP PUSH1 0x2 SLOAD DUP2 EQ JUMPDEST ISZERO PUSH2 0x1F08 JUMPI PUSH1 0x1 SWAP3 POP POP POP PUSH2 0x10D4 JUMP JUMPDEST PUSH1 0x0 SWAP3 POP POP POP PUSH2 0x10D4 JUMP JUMPDEST PUSH1 0x3 SLOAD DUP2 JUMP JUMPDEST PUSH1 0x7 DUP2 JUMP JUMPDEST PUSH1 0x4 SLOAD DUP2 JUMP JUMPDEST PUSH1 0x60 PUSH1 0x11 DUP1 SLOAD DUP1 PUSH1 0x20 MUL PUSH1 0x20 ADD PUSH1 0x40 MLOAD SWAP1 DUP2 ADD PUSH1 0x40 MSTORE DUP1 SWAP3 SWAP2 SWAP1 DUP2 DUP2 MSTORE PUSH1 0x20 ADD DUP3 DUP1 SLOAD DUP1 ISZERO PUSH2 0x1F72 JUMPI PUSH1 0x20 MUL DUP3 ADD SWAP2 SWAP1 PUSH1 0x0 MSTORE PUSH1 0x20 PUSH1 0x0 KECCAK256 SWAP1 JUMPDEST DUP2 SLOAD DUP2 MSTORE PUSH1 0x20 ADD SWAP1 PUSH1 0x1 ADD SWAP1 DUP1 DUP4 GT PUSH2 0x1F5E JUMPI JUMPDEST POP POP POP POP POP SWAP1 POP JUMPDEST SWAP1 JUMP JUMPDEST PUSH1 0xE DUP1 SLOAD PUSH1 0x40 DUP1 MLOAD PUSH1 0x20 PUSH1 0x2 PUSH1 0x1 DUP6 AND ISZERO PUSH2 0x100 MUL PUSH1 0x0 NOT ADD SWAP1 SWAP5 AND SWAP4 SWAP1 SWAP4 DIV PUSH1 0x1F DUP2 ADD DUP5 SWAP1 DIV DUP5 MUL DUP3 ADD DUP5 ADD SWAP1 SWAP3 MSTORE DUP2 DUP2 MSTORE SWAP3 SWAP2 DUP4 ADD DUP3 DUP3 DUP1 ISZERO PUSH2 0xDDE JUMPI DUP1 PUSH1 0x1F LT PUSH2 0xDB3 JUMPI PUSH2 0x100 DUP1 DUP4 SLOAD DIV MUL DUP4 MSTORE SWAP2 PUSH1 0x20 ADD SWAP2 PUSH2 0xDDE JUMP JUMPDEST PUSH1 0x60 PUSH1 0x10 DUP3 DUP2 SLOAD DUP2 LT PUSH2 0x1FE7 JUMPI INVALID JUMPDEST PUSH1 0x0 SWAP2 DUP3 MSTORE PUSH1 0x20 SWAP2 DUP3 SWAP1 KECCAK256 ADD DUP1 SLOAD PUSH1 0x40 DUP1 MLOAD PUSH1 0x1F PUSH1 0x2 PUSH1 0x0 NOT PUSH2 0x100 PUSH1 0x1 DUP8 AND ISZERO MUL ADD SWAP1 SWAP5 AND SWAP4 SWAP1 SWAP4 DIV SWAP3 DUP4 ADD DUP6 SWAP1 DIV DUP6 MUL DUP2 ADD DUP6 ADD SWAP1 SWAP2 MSTORE DUP2 DUP2 MSTORE SWAP3 DUP4 ADD DUP3 DUP3 DUP1 ISZERO PUSH2 0x10CC JUMPI DUP1 PUSH1 0x1F LT PUSH2 0x10A1 JUMPI PUSH2 0x100 DUP1 DUP4 SLOAD DIV MUL DUP4 MSTORE SWAP2 PUSH1 0x20 ADD SWAP2 PUSH2 0x10CC JUMP JUMPDEST PUSH1 0x0 DUP1 MLOAD PUSH1 0x20 PUSH2 0x2F6A DUP4 CODECOPY DUP2 MLOAD SWAP2 MSTORE DUP2 JUMP JUMPDEST PUSH1 0x5 SLOAD PUSH1 0x40 DUP1 MLOAD PUSH4 0x17AA5FB7 PUSH1 0xE1 SHL DUP2 MSTORE CALLER PUSH1 0x4 DUP3 ADD MSTORE SWAP1 MLOAD PUSH1 0x1 PUSH1 0x1 PUSH1 0xA0 SHL SUB SWAP1 SWAP3 AND SWAP2 DUP3 SWAP2 PUSH4 0x2F54BF6E SWAP2 PUSH1 0x24 DUP1 DUP4 ADD SWAP3 PUSH1 0x20 SWAP3 SWAP2 SWAP1 DUP3 SWAP1 SUB ADD DUP2 DUP7 DUP1 EXTCODESIZE ISZERO DUP1 ISZERO PUSH2 0x20A8 JUMPI PUSH1 0x0 DUP1 REVERT JUMPDEST POP GAS STATICCALL ISZERO DUP1 ISZERO PUSH2 0x20BC JUMPI RETURNDATASIZE PUSH1 0x0 DUP1 RETURNDATACOPY RETURNDATASIZE PUSH1 0x0 REVERT JUMPDEST POP POP POP POP PUSH1 0x40 MLOAD RETURNDATASIZE PUSH1 0x20 DUP2 LT ISZERO PUSH2 0x20D2 JUMPI PUSH1 0x0 DUP1 REVERT JUMPDEST POP MLOAD PUSH2 0x20DD JUMPI PUSH1 0x0 DUP1 REVERT JUMPDEST PUSH1 0x14 SLOAD PUSH2 0x100 SWAP1 DIV PUSH1 0xFF AND ISZERO PUSH2 0x2135 JUMPI PUSH1 0x40 DUP1 MLOAD PUSH3 0x461BCD PUSH1 0xE5 SHL DUP2 MSTORE PUSH1 0x20 PUSH1 0x4 DUP3 ADD MSTORE PUSH1 0x18 PUSH1 0x24 DUP3 ADD MSTORE PUSH24 0x14D95D081CDA1BDD5B19081A185D9948199A5B9A5CDA1959 PUSH1 0x42 SHL PUSH1 0x44 DUP3 ADD MSTORE SWAP1 MLOAD SWAP1 DUP2 SWAP1 SUB PUSH1 0x64 ADD SWAP1 REVERT JUMPDEST POP PUSH1 0x14 DUP1 SLOAD PUSH2 0xFF00 NOT AND PUSH2 0x100 OR SWAP1 SSTORE JUMP JUMPDEST PUSH1 0x5 SLOAD PUSH1 0x1 PUSH1 0x1 PUSH1 0xA0 SHL SUB AND DUP2 JUMP JUMPDEST PUSH1 0x0 DUP2 JUMP JUMPDEST PUSH1 0x1 SLOAD DUP2 JUMP JUMPDEST PUSH1 0x10 SLOAD SWAP1 JUMP JUMPDEST PUSH1 0xD SLOAD PUSH1 0x1 PUSH1 0x1 PUSH1 0xA0 SHL SUB AND DUP2 JUMP JUMPDEST DUP1 MLOAD PUSH1 0x20 DUP2 DUP4 ADD DUP2 ADD DUP1 MLOAD PUSH1 0xF DUP3 MSTORE SWAP3 DUP3 ADD SWAP4 DUP3 ADD SWAP4 SWAP1 SWAP4 KECCAK256 SWAP2 SWAP1 SWAP3 MSTORE DUP1 SLOAD PUSH1 0x40 DUP1 MLOAD PUSH1 0x2 PUSH1 0x1 DUP5 AND ISZERO PUSH2 0x100 MUL PUSH1 0x0 NOT ADD SWAP1 SWAP4 AND SWAP3 SWAP1 SWAP3 DIV PUSH1 0x1F DUP2 ADD DUP6 SWAP1 DIV DUP6 MUL DUP4 ADD DUP6 ADD SWAP1 SWAP2 MSTORE DUP1 DUP3 MSTORE SWAP2 SWAP3 SWAP1 SWAP2 DUP4 SWAP2 DUP4 ADD DUP3 DUP3 DUP1 ISZERO PUSH2 0x2219 JUMPI DUP1 PUSH1 0x1F LT PUSH2 0x21EE JUMPI PUSH2 0x100 DUP1 DUP4 SLOAD DIV MUL DUP4 MSTORE SWAP2 PUSH1 0x20 ADD SWAP2 PUSH2 0x2219 JUMP JUMPDEST DUP3 ADD SWAP2 SWAP1 PUSH1 0x0 MSTORE PUSH1 0x20 PUSH1 0x0 KECCAK256 SWAP1 JUMPDEST DUP2 SLOAD DUP2 MSTORE SWAP1 PUSH1 0x1 ADD SWAP1 PUSH1 0x20 ADD DUP1 DUP4 GT PUSH2 0x21FC JUMPI DUP3 SWAP1 SUB PUSH1 0x1F AND DUP3 ADD SWAP2 JUMPDEST POP POP POP POP POP SWAP1 DUP1 PUSH1 0x1 ADD SLOAD SWAP1 POP DUP3 JUMP JUMPDEST PUSH1 0x14 SLOAD PUSH1 0xFF AND DUP2 JUMP JUMPDEST PUSH1 0x2 SLOAD DUP2 JUMP JUMPDEST PUSH1 0x14 SLOAD PUSH2 0x100 SWAP1 DIV PUSH1 0xFF AND DUP2 JUMP JUMPDEST PUSH1 0x5 SLOAD PUSH1 0x40 DUP1 MLOAD PUSH4 0x17AA5FB7 PUSH1 0xE1 SHL DUP2 MSTORE CALLER PUSH1 0x4 DUP3 ADD MSTORE SWAP1 MLOAD PUSH1 0x1 PUSH1 0x1 PUSH1 0xA0 SHL SUB SWAP1 SWAP3 AND SWAP2 DUP3 SWAP2 PUSH4 0x2F54BF6E SWAP2 PUSH1 0x24 DUP1 DUP4 ADD SWAP3 PUSH1 0x20 SWAP3 SWAP2 SWAP1 DUP3 SWAP1 SUB ADD DUP2 DUP7 DUP1 EXTCODESIZE ISZERO DUP1 ISZERO PUSH2 0x2292 JUMPI PUSH1 0x0 DUP1 REVERT JUMPDEST POP GAS STATICCALL ISZERO DUP1 ISZERO PUSH2 0x22A6 JUMPI RETURNDATASIZE PUSH1 0x0 DUP1 RETURNDATACOPY RETURNDATASIZE PUSH1 0x0 REVERT JUMPDEST POP POP POP POP PUSH1 0x40 MLOAD RETURNDATASIZE PUSH1 0x20 DUP2 LT ISZERO PUSH2 0x22BC JUMPI PUSH1 0x0 DUP1 REVERT JUMPDEST POP MLOAD PUSH2 0x22C7 JUMPI PUSH1 0x0 DUP1 REVERT JUMPDEST PUSH1 0x14 SLOAD PUSH2 0x100 SWAP1 DIV PUSH1 0xFF AND ISZERO PUSH2 0x231F JUMPI PUSH1 0x40 DUP1 MLOAD PUSH3 0x461BCD PUSH1 0xE5 SHL DUP2 MSTORE PUSH1 0x20 PUSH1 0x4 DUP3 ADD MSTORE PUSH1 0x18 PUSH1 0x24 DUP3 ADD MSTORE PUSH24 0x14D95D081CDA1BDD5B19081A185D9948199A5B9A5CDA1959 PUSH1 0x42 SHL PUSH1 0x44 DUP3 ADD MSTORE SWAP1 MLOAD SWAP1 DUP2 SWAP1 SUB PUSH1 0x64 ADD SWAP1 REVERT JUMPDEST PUSH2 0x2327 PUSH2 0x2EA2 JUMP JUMPDEST DUP4 DUP2 MSTORE PUSH1 0x20 DUP1 DUP3 ADD DUP5 SWAP1 MSTORE PUSH1 0x40 MLOAD DUP7 MLOAD DUP4 SWAP3 PUSH1 0xF SWAP3 DUP10 SWAP3 SWAP1 SWAP2 DUP3 SWAP2 SWAP1 DUP5 ADD SWAP1 DUP1 DUP4 DUP4 JUMPDEST PUSH1 0x20 DUP4 LT PUSH2 0x2369 JUMPI DUP1 MLOAD DUP3 MSTORE PUSH1 0x1F NOT SWAP1 SWAP3 ADD SWAP2 PUSH1 0x20 SWAP2 DUP3 ADD SWAP2 ADD PUSH2 0x234A JUMP JUMPDEST MLOAD DUP2 MLOAD PUSH1 0x20 SWAP4 DUP5 SUB PUSH2 0x100 EXP PUSH1 0x0 NOT ADD DUP1 NOT SWAP1 SWAP3 AND SWAP2 AND OR SWAP1 MSTORE SWAP3 ADD SWAP5 DUP6 MSTORE POP PUSH1 0x40 MLOAD SWAP4 DUP5 SWAP1 SUB DUP2 ADD SWAP1 SWAP4 KECCAK256 DUP5 MLOAD DUP1 MLOAD SWAP2 SWAP5 PUSH2 0x23AA SWAP5 POP DUP6 SWAP4 POP ADD SWAP1 PUSH2 0x2E24 JUMP JUMPDEST POP PUSH1 0x20 SWAP2 DUP3 ADD MLOAD PUSH1 0x1 SWAP2 DUP3 ADD SSTORE PUSH1 0x10 DUP1 SLOAD SWAP2 DUP3 ADD DUP2 SSTORE PUSH1 0x0 MSTORE DUP7 MLOAD PUSH2 0x23F6 SWAP3 PUSH32 0x1B6847DC741A1B0CD08D278845F9D819D87B734759AFB55FE2DE5CB82A9AE672 SWAP1 SWAP3 ADD SWAP2 DUP9 ADD SWAP1 PUSH2 0x2E24 JUMP JUMPDEST POP POP POP POP POP POP JUMP JUMPDEST PUSH1 0x13 DUP1 SLOAD PUSH1 0x40 DUP1 MLOAD PUSH1 0x20 PUSH1 0x2 PUSH1 0x1 DUP6 AND ISZERO PUSH2 0x100 MUL PUSH1 0x0 NOT ADD SWAP1 SWAP5 AND SWAP4 SWAP1 SWAP4 DIV PUSH1 0x1F DUP2 ADD DUP5 SWAP1 DIV DUP5 MUL DUP3 ADD DUP5 ADD SWAP1 SWAP3 MSTORE DUP2 DUP2 MSTORE SWAP3 SWAP2 DUP4 ADD DUP3 DUP3 DUP1 ISZERO PUSH2 0xDDE JUMPI DUP1 PUSH1 0x1F LT PUSH2 0xDB3 JUMPI PUSH2 0x100 DUP1 DUP4 SLOAD DIV MUL DUP4 MSTORE SWAP2 PUSH1 0x20 ADD SWAP2 PUSH2 0xDDE JUMP JUMPDEST PUSH1 0xC DUP2 DUP2 SLOAD DUP2 LT PUSH2 0x2466 JUMPI INVALID JUMPDEST PUSH1 0x0 SWAP2 DUP3 MSTORE PUSH1 0x20 SWAP1 SWAP2 KECCAK256 ADD SLOAD PUSH1 0x1 PUSH1 0x1 PUSH1 0xA0 SHL SUB AND SWAP1 POP DUP2 JUMP JUMPDEST PUSH1 0x1 PUSH1 0x1 PUSH1 0xA0 SHL SUB AND PUSH1 0x0 SWAP1 DUP2 MSTORE PUSH1 0xB PUSH1 0x20 MSTORE PUSH1 0x40 SWAP1 KECCAK256 PUSH1 0x2 ADD SLOAD SWAP1 JUMP JUMPDEST PUSH1 0x12 SLOAD DUP2 JUMP JUMPDEST PUSH1 0x60 PUSH1 0xC DUP1 SLOAD DUP1 PUSH1 0x20 MUL PUSH1 0x20 ADD PUSH1 0x40 MLOAD SWAP1 DUP2 ADD PUSH1 0x40 MSTORE DUP1 SWAP3 SWAP2 SWAP1 DUP2 DUP2 MSTORE PUSH1 0x20 ADD DUP3 DUP1 SLOAD DUP1 ISZERO PUSH2 0x1F72 JUMPI PUSH1 0x20 MUL DUP3 ADD SWAP2 SWAP1 PUSH1 0x0 MSTORE PUSH1 0x20 PUSH1 0x0 KECCAK256 SWAP1 JUMPDEST DUP2 SLOAD PUSH1 0x1 PUSH1 0x1 PUSH1 0xA0 SHL SUB AND DUP2 MSTORE PUSH1 0x1 SWAP1 SWAP2 ADD SWAP1 PUSH1 0x20 ADD DUP1 DUP4 GT PUSH2 0x24DE JUMPI POP POP POP POP POP SWAP1 POP SWAP1 JUMP JUMPDEST PUSH1 0x5 SLOAD PUSH1 0x40 DUP1 MLOAD PUSH4 0x17AA5FB7 PUSH1 0xE1 SHL DUP2 MSTORE CALLER PUSH1 0x4 DUP3 ADD MSTORE SWAP1 MLOAD PUSH1 0x1 PUSH1 0x1 PUSH1 0xA0 SHL SUB SWAP1 SWAP3 AND SWAP2 DUP3 SWAP2 PUSH4 0x2F54BF6E SWAP2 PUSH1 0x24 DUP1 DUP4 ADD SWAP3 PUSH1 0x20 SWAP3 SWAP2 SWAP1 DUP3 SWAP1 SUB ADD DUP2 DUP7 DUP1 EXTCODESIZE ISZERO DUP1 ISZERO PUSH2 0x2551 JUMPI PUSH1 0x0 DUP1 REVERT JUMPDEST POP GAS STATICCALL ISZERO DUP1 ISZERO PUSH2 0x2565 JUMPI RETURNDATASIZE PUSH1 0x0 DUP1 RETURNDATACOPY RETURNDATASIZE PUSH1 0x0 REVERT JUMPDEST POP POP POP POP PUSH1 0x40 MLOAD RETURNDATASIZE PUSH1 0x20 DUP2 LT ISZERO PUSH2 0x257B JUMPI PUSH1 0x0 DUP1 REVERT JUMPDEST POP MLOAD PUSH2 0x2586 JUMPI PUSH1 0x0 DUP1 REVERT JUMPDEST PUSH1 0x14 SLOAD PUSH2 0x100 SWAP1 DIV PUSH1 0xFF AND ISZERO PUSH2 0x25DE JUMPI PUSH1 0x40 DUP1 MLOAD PUSH3 0x461BCD PUSH1 0xE5 SHL DUP2 MSTORE PUSH1 0x20 PUSH1 0x4 DUP3 ADD MSTORE PUSH1 0x18 PUSH1 0x24 DUP3 ADD MSTORE PUSH24 0x14D95D081CDA1BDD5B19081A185D9948199A5B9A5CDA1959 PUSH1 0x42 SHL PUSH1 0x44 DUP3 ADD MSTORE SWAP1 MLOAD SWAP1 DUP2 SWAP1 SUB PUSH1 0x64 ADD SWAP1 REVERT JUMPDEST DUP8 MLOAD PUSH2 0x25F1 SWAP1 PUSH1 0x6 SWAP1 PUSH1 0x20 DUP12 ADD SWAP1 PUSH2 0x2E24 JUMP JUMPDEST POP DUP5 MLOAD PUSH2 0x2605 SWAP1 PUSH1 0xE SWAP1 PUSH1 0x20 DUP9 ADD SWAP1 PUSH2 0x2E24 JUMP JUMPDEST POP POP PUSH1 0x9 SWAP6 SWAP1 SWAP6 SSTORE PUSH1 0xA SWAP4 SWAP1 SWAP4 SSTORE PUSH1 0xD DUP1 SLOAD PUSH1 0x1 PUSH1 0x1 PUSH1 0xA0 SHL SUB NOT AND PUSH1 0x1 PUSH1 0x1 PUSH1 0xA0 SHL SUB SWAP3 SWAP1 SWAP3 AND SWAP2 SWAP1 SWAP2 OR SWAP1 SSTORE POP PUSH1 0x14 DUP1 SLOAD PUSH1 0xFF NOT AND PUSH1 0x1 OR SWAP1 SSTORE PUSH1 0x3 SSTORE PUSH1 0x4 SSTORE POP JUMP JUMPDEST PUSH1 0x14 SLOAD PUSH2 0x100 SWAP1 DIV PUSH1 0xFF AND PUSH2 0x269A JUMPI PUSH1 0x40 DUP1 MLOAD PUSH3 0x461BCD PUSH1 0xE5 SHL DUP2 MSTORE PUSH1 0x20 PUSH1 0x4 DUP3 ADD MSTORE PUSH1 0x11 PUSH1 0x24 DUP3 ADD MSTORE PUSH17 0xA6CAE840D2E640DCDEE8408CD2DCD2E6D PUSH1 0x7B SHL PUSH1 0x44 DUP3 ADD MSTORE SWAP1 MLOAD SWAP1 DUP2 SWAP1 SUB PUSH1 0x64 ADD SWAP1 REVERT JUMPDEST PUSH1 0x0 DUP1 PUSH2 0x26D0 DUP4 PUSH1 0x1 ADD PUSH1 0x0 DUP1 MLOAD PUSH1 0x20 PUSH2 0x2F8A DUP4 CODECOPY DUP2 MLOAD SWAP2 MSTORE PUSH1 0x0 DUP1 MLOAD PUSH1 0x20 PUSH2 0x2F6A DUP4 CODECOPY DUP2 MLOAD SWAP2 MSTORE PUSH1 0x0 PUSH5 0x1000003D0 NOT PUSH2 0x285E JUMP JUMPDEST PUSH1 0x0 SLOAD PUSH1 0x1 SLOAD SWAP3 SWAP5 POP SWAP1 SWAP3 POP DUP5 SWAP1 SUB SWAP1 DUP4 EQ PUSH2 0x26EB JUMPI PUSH1 0x0 DUP1 REVERT JUMPDEST PUSH1 0x2 SLOAD DUP3 EQ PUSH2 0x26F9 JUMPI PUSH1 0x0 DUP1 REVERT JUMPDEST PUSH1 0x0 NOT PUSH1 0x12 SSTORE PUSH1 0x0 JUMPDEST PUSH1 0x11 SLOAD DUP2 LT ISZERO PUSH2 0x272F JUMPI PUSH1 0x0 PUSH1 0x11 DUP3 DUP2 SLOAD DUP2 LT PUSH2 0x271B JUMPI INVALID JUMPDEST PUSH1 0x0 SWAP2 DUP3 MSTORE PUSH1 0x20 SWAP1 SWAP2 KECCAK256 ADD SSTORE PUSH1 0x1 ADD PUSH2 0x2702 JUMP JUMPDEST POP PUSH1 0x8 SLOAD PUSH1 0x0 NOT ADD JUMPDEST PUSH1 0x1 DUP2 ADD ISZERO PUSH2 0x27A0 JUMPI DUP1 PUSH1 0x4 SLOAD MUL PUSH1 0x3 SLOAD EXP DUP3 DUP2 PUSH2 0x2752 JUMPI INVALID JUMPDEST DIV PUSH1 0x11 DUP3 DUP2 SLOAD DUP2 LT PUSH2 0x2760 JUMPI INVALID JUMPDEST SWAP1 PUSH1 0x0 MSTORE PUSH1 0x20 PUSH1 0x0 KECCAK256 ADD DUP2 SWAP1 SSTORE POP PUSH1 0x11 DUP2 DUP2 SLOAD DUP2 LT PUSH2 0x277B JUMPI INVALID JUMPDEST PUSH1 0x0 SWAP2 DUP3 MSTORE PUSH1 0x20 SWAP1 SWAP2 KECCAK256 ADD SLOAD PUSH1 0x4 SLOAD PUSH1 0x3 SLOAD SWAP1 DUP4 MUL SWAP1 EXP MUL SWAP1 SWAP2 SUB SWAP1 PUSH1 0x0 NOT ADD PUSH2 0x2738 JUMP JUMPDEST POP PUSH1 0x0 JUMPDEST PUSH1 0x11 SLOAD DUP2 LT ISZERO PUSH2 0x27DD JUMPI PUSH1 0x12 SLOAD PUSH1 0x11 DUP3 DUP2 SLOAD DUP2 LT PUSH2 0x27BE JUMPI INVALID JUMPDEST SWAP1 PUSH1 0x0 MSTORE PUSH1 0x20 PUSH1 0x0 KECCAK256 ADD SLOAD SGT ISZERO PUSH2 0x27D5 JUMPI PUSH1 0x12 DUP2 SWAP1 SSTORE JUMPDEST PUSH1 0x1 ADD PUSH2 0x27A4 JUMP JUMPDEST POP PUSH1 0x7 PUSH1 0x12 SLOAD DUP2 SLOAD DUP2 LT PUSH2 0x27ED JUMPI INVALID JUMPDEST SWAP1 PUSH1 0x0 MSTORE PUSH1 0x20 PUSH1 0x0 KECCAK256 ADD PUSH1 0x13 SWAP1 DUP1 SLOAD PUSH1 0x1 DUP2 PUSH1 0x1 AND ISZERO PUSH2 0x100 MUL SUB AND PUSH1 0x2 SWAP1 DIV PUSH2 0x2818 SWAP3 SWAP2 SWAP1 PUSH2 0x2EBC JUMP JUMPDEST POP POP POP POP POP JUMP JUMPDEST PUSH1 0x1 PUSH1 0x1 PUSH1 0xA0 SHL SUB AND PUSH1 0x0 SWAP1 DUP2 MSTORE PUSH1 0xB PUSH1 0x20 MSTORE PUSH1 0x40 SWAP1 KECCAK256 PUSH1 0x1 ADD SLOAD PUSH1 0x1 PUSH1 0xA0 SHL SWAP1 DIV PUSH1 0xFF AND SWAP1 JUMP JUMPDEST PUSH5 0x1000003D0 NOT DUP2 JUMP JUMPDEST PUSH1 0x10 DUP2 DUP2 SLOAD DUP2 LT PUSH2 0x1E3D JUMPI INVALID JUMPDEST PUSH1 0x0 DUP1 PUSH1 0x0 DUP1 PUSH1 0x0 PUSH2 0x2875 DUP11 DUP11 DUP11 PUSH1 0x1 DUP12 DUP12 PUSH2 0x2917 JUMP JUMPDEST SWAP3 POP SWAP3 POP SWAP3 POP PUSH2 0x2887 DUP4 DUP4 DUP4 DUP10 PUSH2 0x298E JUMP JUMPDEST SWAP5 POP SWAP5 POP POP POP POP SWAP6 POP SWAP6 SWAP4 POP POP POP POP JUMP JUMPDEST PUSH1 0x0 DUP1 DUP1 DUP1 DUP1 DUP11 DUP10 EQ ISZERO PUSH2 0x28DF JUMPI DUP6 DUP1 PUSH2 0x28AE JUMPI INVALID JUMPDEST DUP9 DUP12 ADDMOD PUSH2 0x28C5 JUMPI POP PUSH1 0x0 SWAP4 POP DUP4 SWAP3 POP PUSH2 0x290C SWAP2 POP POP JUMP JUMPDEST PUSH2 0x28D3 DUP12 DUP12 PUSH1 0x1 DUP11 DUP11 PUSH2 0x29E5 JUMP JUMPDEST SWAP2 SWAP5 POP SWAP3 POP SWAP1 POP PUSH2 0x28F8 JUMP JUMPDEST PUSH2 0x28F0 DUP12 DUP12 PUSH1 0x1 DUP13 DUP13 PUSH1 0x1 DUP13 PUSH2 0x2AFB JUMP JUMPDEST SWAP2 SWAP5 POP SWAP3 POP SWAP1 POP JUMPDEST PUSH2 0x2904 DUP4 DUP4 DUP4 DUP10 PUSH2 0x298E JUMP JUMPDEST SWAP5 POP SWAP5 POP POP POP POP JUMPDEST SWAP7 POP SWAP7 SWAP5 POP POP POP POP POP JUMP JUMPDEST PUSH1 0x0 DUP1 DUP1 DUP9 PUSH2 0x292D JUMPI POP DUP7 SWAP2 POP DUP6 SWAP1 POP DUP5 PUSH2 0x2982 JUMP JUMPDEST DUP9 PUSH1 0x0 DUP1 PUSH1 0x1 JUMPDEST DUP4 ISZERO PUSH2 0x2979 JUMPI PUSH1 0x1 DUP5 AND ISZERO PUSH2 0x295A JUMPI PUSH2 0x2952 DUP4 DUP4 DUP4 DUP16 DUP16 DUP16 DUP15 PUSH2 0x2AFB JUMP JUMPDEST SWAP2 SWAP5 POP SWAP3 POP SWAP1 POP JUMPDEST PUSH1 0x2 DUP5 DIV SWAP4 POP PUSH2 0x296D DUP13 DUP13 DUP13 DUP13 DUP13 PUSH2 0x29E5 JUMP JUMPDEST SWAP2 SWAP14 POP SWAP12 POP SWAP10 POP PUSH2 0x2934 JUMP JUMPDEST SWAP2 SWAP6 POP SWAP4 POP SWAP2 POP POP JUMPDEST SWAP7 POP SWAP7 POP SWAP7 SWAP4 POP POP POP POP JUMP JUMPDEST PUSH1 0x0 DUP1 PUSH1 0x0 PUSH2 0x299D DUP6 DUP6 PUSH2 0x2D78 JUMP JUMPDEST SWAP1 POP PUSH1 0x0 DUP5 DUP1 PUSH2 0x29A9 JUMPI INVALID JUMPDEST DUP3 DUP4 MULMOD SWAP1 POP PUSH1 0x0 DUP6 DUP1 PUSH2 0x29B8 JUMPI INVALID JUMPDEST DUP3 DUP11 MULMOD SWAP1 POP PUSH1 0x0 DUP7 DUP1 PUSH2 0x29C7 JUMPI INVALID JUMPDEST DUP8 DUP1 PUSH2 0x29CF JUMPI INVALID JUMPDEST DUP5 DUP7 MULMOD DUP11 MULMOD SWAP2 SWAP11 SWAP2 SWAP10 POP SWAP1 SWAP8 POP POP POP POP POP POP POP POP JUMP JUMPDEST PUSH1 0x0 DUP1 DUP1 DUP6 PUSH2 0x29FB JUMPI POP DUP7 SWAP2 POP DUP6 SWAP1 POP DUP5 PUSH2 0x2AF0 JUMP JUMPDEST PUSH1 0x0 DUP5 DUP1 PUSH2 0x2A05 JUMPI INVALID JUMPDEST DUP10 DUP11 MULMOD SWAP1 POP PUSH1 0x0 DUP6 DUP1 PUSH2 0x2A14 JUMPI INVALID JUMPDEST DUP10 DUP11 MULMOD SWAP1 POP PUSH1 0x0 DUP7 DUP1 PUSH2 0x2A23 JUMPI INVALID JUMPDEST DUP10 DUP11 MULMOD SWAP1 POP PUSH1 0x0 DUP8 DUP1 PUSH2 0x2A32 JUMPI INVALID JUMPDEST DUP9 DUP1 PUSH2 0x2A3A JUMPI INVALID JUMPDEST DUP5 DUP15 MULMOD PUSH1 0x4 MULMOD SWAP1 POP PUSH1 0x0 DUP9 DUP1 PUSH2 0x2A4C JUMPI INVALID JUMPDEST DUP10 DUP1 PUSH2 0x2A54 JUMPI INVALID JUMPDEST DUP11 DUP1 PUSH2 0x2A5C JUMPI INVALID JUMPDEST DUP6 DUP7 MULMOD DUP13 MULMOD DUP11 DUP1 PUSH2 0x2A69 JUMPI INVALID JUMPDEST DUP8 PUSH1 0x3 MULMOD ADDMOD SWAP1 POP DUP9 DUP1 PUSH2 0x2A78 JUMPI INVALID JUMPDEST DUP10 DUP1 PUSH2 0x2A80 JUMPI INVALID JUMPDEST DUP4 DUP5 ADDMOD DUP11 SUB DUP11 DUP1 PUSH2 0x2A8D JUMPI INVALID JUMPDEST DUP4 DUP5 MULMOD ADDMOD SWAP5 POP DUP9 DUP1 PUSH2 0x2A9B JUMPI INVALID JUMPDEST DUP10 DUP1 PUSH2 0x2AA3 JUMPI INVALID JUMPDEST DUP11 DUP1 PUSH2 0x2AAB JUMPI INVALID JUMPDEST DUP7 DUP8 MULMOD PUSH1 0x8 MULMOD DUP11 SUB DUP11 DUP1 PUSH2 0x2ABB JUMPI INVALID JUMPDEST DUP12 DUP1 PUSH2 0x2AC3 JUMPI INVALID JUMPDEST DUP9 DUP14 SUB DUP7 ADDMOD DUP5 MULMOD ADDMOD SWAP4 POP DUP9 DUP1 PUSH2 0x2AD5 JUMPI INVALID JUMPDEST DUP10 DUP1 PUSH2 0x2ADD JUMPI INVALID JUMPDEST DUP13 DUP15 MULMOD PUSH1 0x2 MULMOD SWAP5 SWAP8 POP SWAP3 SWAP6 POP SWAP3 SWAP4 POP POP POP POP JUMPDEST SWAP6 POP SWAP6 POP SWAP6 SWAP3 POP POP POP JUMP JUMPDEST PUSH1 0x0 DUP1 DUP1 DUP10 ISZERO DUP1 ISZERO PUSH2 0x2B0B JUMPI POP DUP9 ISZERO JUMPDEST ISZERO PUSH2 0x2B1D JUMPI POP DUP6 SWAP2 POP DUP5 SWAP1 POP DUP4 PUSH2 0x2D6B JUMP JUMPDEST DUP7 ISZERO DUP1 ISZERO PUSH2 0x2B29 JUMPI POP DUP6 ISZERO JUMPDEST ISZERO PUSH2 0x2B3B JUMPI POP DUP9 SWAP2 POP DUP8 SWAP1 POP DUP7 PUSH2 0x2D6B JUMP JUMPDEST PUSH2 0x2B43 PUSH2 0x2F31 JUMP JUMPDEST DUP5 DUP1 PUSH2 0x2B4B JUMPI INVALID JUMPDEST DUP10 DUP11 MULMOD DUP2 MSTORE DUP5 DUP1 PUSH2 0x2B58 JUMPI INVALID JUMPDEST DUP2 MLOAD DUP11 MULMOD PUSH1 0x20 DUP3 ADD MSTORE DUP5 DUP1 PUSH2 0x2B69 JUMPI INVALID JUMPDEST DUP7 DUP8 MULMOD PUSH1 0x40 DUP3 ADD MSTORE DUP5 DUP1 PUSH2 0x2B79 JUMPI INVALID JUMPDEST PUSH1 0x40 DUP3 ADD MLOAD DUP8 MULMOD PUSH1 0x60 DUP3 ADD MSTORE PUSH1 0x40 DUP1 MLOAD PUSH1 0x80 DUP2 ADD SWAP1 SWAP2 MSTORE DUP1 DUP7 DUP1 PUSH2 0x2B99 JUMPI INVALID JUMPDEST PUSH1 0x40 DUP5 ADD MLOAD DUP15 MULMOD DUP2 MSTORE PUSH1 0x20 ADD DUP7 DUP1 PUSH2 0x2BAD JUMPI INVALID JUMPDEST PUSH1 0x60 DUP5 ADD MLOAD DUP14 MULMOD DUP2 MSTORE PUSH1 0x20 ADD DUP7 DUP1 PUSH2 0x2BC1 JUMPI INVALID JUMPDEST DUP4 MLOAD DUP12 MULMOD DUP2 MSTORE PUSH1 0x20 ADD DUP7 DUP1 PUSH2 0x2BD2 JUMPI INVALID JUMPDEST PUSH1 0x20 DUP5 ADD MLOAD DUP11 MULMOD SWAP1 MSTORE PUSH1 0x40 DUP2 ADD MLOAD DUP2 MLOAD SWAP2 SWAP3 POP EQ ISZERO DUP1 PUSH2 0x2BFA JUMPI POP PUSH1 0x60 DUP2 ADD MLOAD PUSH1 0x20 DUP3 ADD MLOAD EQ ISZERO JUMPDEST PUSH2 0x2C4B JUMPI PUSH1 0x40 DUP1 MLOAD PUSH3 0x461BCD PUSH1 0xE5 SHL DUP2 MSTORE PUSH1 0x20 PUSH1 0x4 DUP3 ADD MSTORE PUSH1 0x1E PUSH1 0x24 DUP3 ADD MSTORE PUSH32 0x557365206A6163446F75626C652066756E6374696F6E20696E73746561640000 PUSH1 0x44 DUP3 ADD MSTORE SWAP1 MLOAD SWAP1 DUP2 SWAP1 SUB PUSH1 0x64 ADD SWAP1 REVERT JUMPDEST PUSH2 0x2C53 PUSH2 0x2F31 JUMP JUMPDEST DUP6 DUP1 PUSH2 0x2C5B JUMPI INVALID JUMPDEST DUP3 MLOAD PUSH1 0x40 DUP5 ADD MLOAD SWAP1 DUP9 SUB SWAP1 ADDMOD DUP2 MSTORE DUP6 DUP1 PUSH2 0x2C71 JUMPI INVALID JUMPDEST PUSH1 0x20 DUP4 ADD MLOAD PUSH1 0x60 DUP5 ADD MLOAD SWAP1 DUP9 SUB SWAP1 ADDMOD PUSH1 0x20 DUP3 ADD MSTORE DUP6 DUP1 PUSH2 0x2C8D JUMPI INVALID JUMPDEST DUP2 MLOAD DUP1 MULMOD PUSH1 0x40 DUP3 ADD MSTORE DUP6 DUP1 PUSH2 0x2C9E JUMPI INVALID JUMPDEST DUP2 MLOAD PUSH1 0x40 DUP4 ADD MLOAD MULMOD PUSH1 0x60 DUP3 ADD MSTORE PUSH1 0x0 DUP7 DUP1 PUSH2 0x2CB5 JUMPI INVALID JUMPDEST PUSH1 0x60 DUP4 ADD MLOAD DUP9 SUB DUP9 DUP1 PUSH2 0x2CC4 JUMPI INVALID JUMPDEST PUSH1 0x20 DUP6 ADD MLOAD DUP1 MULMOD ADDMOD SWAP1 POP DUP7 DUP1 PUSH2 0x2CD6 JUMPI INVALID JUMPDEST DUP8 DUP1 PUSH2 0x2CDE JUMPI INVALID JUMPDEST DUP9 DUP1 PUSH2 0x2CE6 JUMPI INVALID JUMPDEST PUSH1 0x40 DUP6 ADD MLOAD DUP7 MLOAD MULMOD PUSH1 0x2 MULMOD DUP9 SUB DUP3 ADDMOD SWAP1 POP PUSH1 0x0 DUP8 DUP1 PUSH2 0x2D01 JUMPI INVALID JUMPDEST DUP9 DUP1 PUSH2 0x2D09 JUMPI INVALID JUMPDEST DUP4 DUP11 SUB DUP11 DUP1 PUSH2 0x2D14 JUMPI INVALID JUMPDEST PUSH1 0x40 DUP8 ADD MLOAD DUP9 MLOAD MULMOD ADDMOD PUSH1 0x20 DUP6 ADD MLOAD MULMOD SWAP1 POP DUP8 DUP1 PUSH2 0x2D2D JUMPI INVALID JUMPDEST DUP9 DUP1 PUSH2 0x2D35 JUMPI INVALID JUMPDEST PUSH1 0x60 DUP6 ADD MLOAD PUSH1 0x20 DUP8 ADD MLOAD MULMOD DUP10 SUB DUP3 ADDMOD SWAP1 POP PUSH1 0x0 DUP9 DUP1 PUSH2 0x2D50 JUMPI INVALID JUMPDEST DUP10 DUP1 PUSH2 0x2D58 JUMPI INVALID JUMPDEST DUP12 DUP16 MULMOD DUP6 MLOAD MULMOD SWAP3 SWAP8 POP SWAP1 SWAP6 POP SWAP1 SWAP4 POP POP POP POP JUMPDEST SWAP8 POP SWAP8 POP SWAP8 SWAP5 POP POP POP POP POP JUMP JUMPDEST PUSH1 0x0 DUP3 ISZERO DUP1 ISZERO SWAP1 PUSH2 0x2D89 JUMPI POP DUP2 DUP4 EQ ISZERO JUMPDEST DUP1 ISZERO PUSH2 0x2D94 JUMPI POP DUP2 ISZERO ISZERO JUMPDEST PUSH2 0x2DD6 JUMPI PUSH1 0x40 DUP1 MLOAD PUSH3 0x461BCD PUSH1 0xE5 SHL DUP2 MSTORE PUSH1 0x20 PUSH1 0x4 DUP3 ADD MSTORE PUSH1 0xE PUSH1 0x24 DUP3 ADD MSTORE PUSH14 0x24B73B30B634B210373AB6B132B9 PUSH1 0x91 SHL PUSH1 0x44 DUP3 ADD MSTORE SWAP1 MLOAD SWAP1 DUP2 SWAP1 SUB PUSH1 0x64 ADD SWAP1 REVERT JUMPDEST PUSH1 0x0 PUSH1 0x1 DUP4 DUP3 JUMPDEST DUP7 ISZERO PUSH2 0x2E19 JUMPI DUP7 DUP3 DUP2 PUSH2 0x2DEC JUMPI INVALID JUMPDEST DIV SWAP1 POP DUP3 DUP7 DUP1 PUSH2 0x2DF8 JUMPI INVALID JUMPDEST DUP8 DUP1 PUSH2 0x2E00 JUMPI INVALID JUMPDEST DUP6 DUP5 MULMOD DUP9 SUB DUP7 ADDMOD DUP3 DUP10 MUL SWAP1 SWAP4 SUB SWAP8 SWAP1 SWAP5 POP SWAP2 SWAP3 POP PUSH2 0x2DDD JUMP JUMPDEST POP SWAP2 SWAP6 SWAP5 POP POP POP POP POP JUMP JUMPDEST DUP3 DUP1 SLOAD PUSH1 0x1 DUP2 PUSH1 0x1 AND ISZERO PUSH2 0x100 MUL SUB AND PUSH1 0x2 SWAP1 DIV SWAP1 PUSH1 0x0 MSTORE PUSH1 0x20 PUSH1 0x0 KECCAK256 SWAP1 PUSH1 0x1F ADD PUSH1 0x20 SWAP1 DIV DUP2 ADD SWAP3 DUP3 PUSH1 0x1F LT PUSH2 0x2E65 JUMPI DUP1 MLOAD PUSH1 0xFF NOT AND DUP4 DUP1 ADD OR DUP6 SSTORE PUSH2 0x2E92 JUMP JUMPDEST DUP3 DUP1 ADD PUSH1 0x1 ADD DUP6 SSTORE DUP3 ISZERO PUSH2 0x2E92 JUMPI SWAP2 DUP3 ADD JUMPDEST DUP3 DUP2 GT ISZERO PUSH2 0x2E92 JUMPI DUP3 MLOAD DUP3 SSTORE SWAP2 PUSH1 0x20 ADD SWAP2 SWAP1 PUSH1 0x1 ADD SWAP1 PUSH2 0x2E77 JUMP JUMPDEST POP PUSH2 0x2E9E SWAP3 SWAP2 POP PUSH2 0x2F4F JUMP JUMPDEST POP SWAP1 JUMP JUMPDEST PUSH1 0x40 MLOAD DUP1 PUSH1 0x40 ADD PUSH1 0x40 MSTORE DUP1 PUSH1 0x60 DUP2 MSTORE PUSH1 0x20 ADD PUSH1 0x0 DUP2 MSTORE POP SWAP1 JUMP JUMPDEST DUP3 DUP1 SLOAD PUSH1 0x1 DUP2 PUSH1 0x1 AND ISZERO PUSH2 0x100 MUL SUB AND PUSH1 0x2 SWAP1 DIV SWAP1 PUSH1 0x0 MSTORE PUSH1 0x20 PUSH1 0x0 KECCAK256 SWAP1 PUSH1 0x1F ADD PUSH1 0x20 SWAP1 DIV DUP2 ADD SWAP3 DUP3 PUSH1 0x1F LT PUSH2 0x2EF5 JUMPI DUP1 SLOAD DUP6 SSTORE PUSH2 0x2E92 JUMP JUMPDEST DUP3 DUP1 ADD PUSH1 0x1 ADD DUP6 SSTORE DUP3 ISZERO PUSH2 0x2E92 JUMPI PUSH1 0x0 MSTORE PUSH1 0x20 PUSH1 0x0 KECCAK256 SWAP2 PUSH1 0x1F ADD PUSH1 0x20 SWAP1 DIV DUP3 ADD JUMPDEST DUP3 DUP2 GT ISZERO PUSH2 0x2E92 JUMPI DUP3 SLOAD DUP3 SSTORE SWAP2 PUSH1 0x1 ADD SWAP2 SWAP1 PUSH1 0x1 ADD SWAP1 PUSH2 0x2F16 JUMP JUMPDEST PUSH1 0x40 MLOAD DUP1 PUSH1 0x80 ADD PUSH1 0x40 MSTORE DUP1 PUSH1 0x4 SWAP1 PUSH1 0x20 DUP3 MUL DUP1 CALLDATASIZE DUP4 CALLDATACOPY POP SWAP2 SWAP3 SWAP2 POP POP JUMP JUMPDEST PUSH2 0x1F7A SWAP2 SWAP1 JUMPDEST DUP1 DUP3 GT ISZERO PUSH2 0x2E9E JUMPI PUSH1 0x0 DUP2 SSTORE PUSH1 0x1 ADD PUSH2 0x2F55 JUMP INVALID 0x48 GASPRICE 0xDA PUSH24 0x26A3C4655DA4FBFC0E1108A8FD17B448A68554199C47D08F 0xFB LT 0xD4 0xB8 PUSH26 0xBE667EF9DCBBAC55A06295CE870B07029BFCDB2DCE28D959F281 JUMPDEST AND 0xF8 OR SWAP9 LOG2 PUSH5 0x6970667358 0x22 SLT KECCAK256 0xA8 SSTORE 0xDB PUSH6 0x9F5A85D8F138 LOG4 INVALID 0xF7 MOD DUP4 0xEC 0xBF SUB REVERT 0x5D PUSH7 0xAF31198D95B43 0xF6 LOG0 ADDMOD 0xE0 PUSH5 0x736F6C6343 STOP MOD MOD STOP CALLER "},"gasEstimates":{"creation":{"codeDepositCost":"2451000","executionCost":"infinite","totalCost":"infinite"},"external":{"AA()":"332","Add(uint256,uint256,uint256,uint256)":"infinite","BB()":"287","GX()":"infinite","GY()":"infinite","Go_Vote(uint256,uint256,address)":"2132","Mul(uint256)":"infinite","PP()":"333","SetFinish()":"infinite","Validation(address)":"infinite","Vote_sum()":"1154","Vote_sum_ECC_x()":"1043","Vote_sum_ECC_y()":"1153","blockOrTimeReached(uint256)":"2078","checkECCMath(uint256)":"infinite","description()":"infinite","eligible_voter_list(address)":"3802","exponent()":"1065","isSet()":"1066","m()":"1109","msgsender_voter_list(uint256)":"2081","options(uint256)":"infinite","options_num()":"1088","owner()":"1149","requirements(string)":"infinite","requirements_key(uint256)":"infinite","result(uint256)":"1999","return_msgsender_voter_list()":"infinite","return_requirements_key(uint256)":"infinite","return_requirements_length()":"1065","return_requirements_rq(string)":"infinite","return_requirements_type(string)":"infinite","return_result()":"infinite","return_voter_register_status(address)":"1287","return_voter_vote_status(address)":"1281","set_up_all(string,uint256,uint256,string,address,uint256,uint256)":"infinite","set_up_options(string)":"infinite","set_up_requirement(string,string,uint256)":"infinite","state()":"1176","stringToUint(string)":"infinite","tally(uint256)":"infinite","times(uint256)":"1208","vote_question()":"infinite","win_option()":"infinite","winner()":"1153","write_entity_addr()":"1126"}},"methodIdentifiers":{"AA()":"997da8d4","Add(uint256,uint256,uint256,uint256)":"39cd1f40","BB()":"5727dc5c","GX()":"03a507be","GY()":"7a308a4c","Go_Vote(uint256,uint256,address)":"0fe9e0fd","Mul(uint256)":"12045e57","PP()":"eeeac01e","SetFinish()":"847b6327","Validation(address)":"2a251c56","Vote_sum()":"43f4dd9f","Vote_sum_ECC_x()":"9998c692","Vote_sum_ECC_y()":"c3e50f09","blockOrTimeReached(uint256)":"3eb8d9f2","checkECCMath(uint256)":"4c01ac97","description()":"7284e416","eligible_voter_list(address)":"03f673ff","exponent()":"52f6ee58","isSet()":"c65fb380","m()":"5a2ee019","msgsender_voter_list(uint256)":"d5ffc449","options(uint256)":"409e2205","options_num()":"1c32382f","owner()":"8da5cb5b","requirements(string)":"af7789e6","requirements_key(uint256)":"f00dd10e","result(uint256)":"3c594059","return_msgsender_voter_list()":"e0f3615d","return_requirements_key(uint256)":"78cff08b","return_requirements_length()":"a16dcc65","return_requirements_rq(string)":"19c7a165","return_requirements_type(string)":"1ed39fc2","return_result()":"696f4468","return_voter_register_status(address)":"ee58b141","return_voter_vote_status(address)":"d78e4d9d","set_up_all(string,uint256,uint256,string,address,uint256,uint256)":"e8380187","set_up_options(string)":"4002bd0d","set_up_requirement(string,string,uint256)":"c68a11c2","state()":"c19d93fb","stringToUint(string)":"1bd95155","tally(uint256)":"ed8b6b31","times(uint256)":"20982bce","vote_question()":"0c1ce9dd","win_option()":"c7b28050","winner()":"dfbf53ae","write_entity_addr()":"abf68fcc"}},"storageLayout":{"storage":[{"astId":2380,"contract":"Vote2.sol:vote","label":"Vote_sum","offset":0,"slot":"0","type":"t_uint256"},{"astId":2382,"contract":"Vote2.sol:vote","label":"Vote_sum_ECC_x","offset":0,"slot":"1","type":"t_uint256"},{"astId":2384,"contract":"Vote2.sol:vote","label":"Vote_sum_ECC_y","offset":0,"slot":"2","type":"t_uint256"},{"astId":2386,"contract":"Vote2.sol:vote","label":"exponent","offset":0,"slot":"3","type":"t_uint256"},{"astId":2388,"contract":"Vote2.sol:vote","label":"m","offset":0,"slot":"4","type":"t_uint256"},{"astId":2390,"contract":"Vote2.sol:vote","label":"owner","offset":0,"slot":"5","type":"t_address"},{"astId":2392,"contract":"Vote2.sol:vote","label":"vote_question","offset":0,"slot":"6","type":"t_string_storage"},{"astId":2395,"contract":"Vote2.sol:vote","label":"options","offset":0,"slot":"7","type":"t_array(t_string_storage)dyn_storage"},{"astId":2397,"contract":"Vote2.sol:vote","label":"options_num","offset":0,"slot":"8","type":"t_uint256"},{"astId":2401,"contract":"Vote2.sol:vote","label":"times","offset":0,"slot":"9","type":"t_array(t_uint256)2_storage"},{"astId":2421,"contract":"Vote2.sol:vote","label":"eligible_voter_list","offset":0,"slot":"11","type":"t_mapping(t_address,t_struct(voter)2412_storage)"},{"astId":2424,"contract":"Vote2.sol:vote","label":"msgsender_voter_list","offset":0,"slot":"12","type":"t_array(t_address)dyn_storage"},{"astId":2426,"contract":"Vote2.sol:vote","label":"write_entity_addr","offset":0,"slot":"13","type":"t_address"},{"astId":2428,"contract":"Vote2.sol:vote","label":"description","offset":0,"slot":"14","type":"t_string_storage"},{"astId":2432,"contract":"Vote2.sol:vote","label":"requirements","offset":0,"slot":"15","type":"t_mapping(t_string_memory_ptr,t_struct(rq)2417_storage)"},{"astId":2435,"contract":"Vote2.sol:vote","label":"requirements_key","offset":0,"slot":"16","type":"t_array(t_string_storage)dyn_storage"},{"astId":2438,"contract":"Vote2.sol:vote","label":"result","offset":0,"slot":"17","type":"t_array(t_int256)dyn_storage"},{"astId":2440,"contract":"Vote2.sol:vote","label":"winner","offset":0,"slot":"18","type":"t_int256"},{"astId":2442,"contract":"Vote2.sol:vote","label":"win_option","offset":0,"slot":"19","type":"t_string_storage"},{"astId":2449,"contract":"Vote2.sol:vote","label":"state","offset":0,"slot":"20","type":"t_enum(State)2447"},{"astId":2451,"contract":"Vote2.sol:vote","label":"isSet","offset":1,"slot":"20","type":"t_bool"}],"types":{"t_address":{"encoding":"inplace","label":"address","numberOfBytes":"20"},"t_array(t_address)dyn_storage":{"base":"t_address","encoding":"dynamic_array","label":"address[]","numberOfBytes":"32"},"t_array(t_int256)dyn_storage":{"base":"t_int256","encoding":"dynamic_array","label":"int256[]","numberOfBytes":"32"},"t_array(t_string_storage)dyn_storage":{"base":"t_string_storage","encoding":"dynamic_array","label":"string[]","numberOfBytes":"32"},"t_array(t_uint256)2_storage":{"base":"t_uint256","encoding":"inplace","label":"uint256[2]","numberOfBytes":"64"},"t_bool":{"encoding":"inplace","label":"bool","numberOfBytes":"1"},"t_enum(State)2447":{"encoding":"inplace","label":"enum vote.State","numberOfBytes":"1"},"t_int256":{"encoding":"inplace","label":"int256","numberOfBytes":"32"},"t_mapping(t_address,t_struct(voter)2412_storage)":{"encoding":"mapping","key":"t_address","label":"mapping(address => struct vote.voter)","numberOfBytes":"32","value":"t_struct(voter)2412_storage"},"t_mapping(t_string_memory_ptr,t_struct(rq)2417_storage)":{"encoding":"mapping","key":"t_string_memory_ptr","label":"mapping(string => struct vote.rq)","numberOfBytes":"32","value":"t_struct(rq)2417_storage"},"t_string_memory_ptr":{"encoding":"bytes","label":"string","numberOfBytes":"32"},"t_string_storage":{"encoding":"bytes","label":"string","numberOfBytes":"32"},"t_struct(rq)2417_storage":{"encoding":"inplace","label":"struct vote.rq","members":[{"astId":2414,"contract":"Vote2.sol:vote","label":"requirement","offset":0,"slot":"0","type":"t_string_storage"},{"astId":2416,"contract":"Vote2.sol:vote","label":"rq_type","offset":0,"slot":"1","type":"t_uint256"}],"numberOfBytes":"64"},"t_struct(voter)2412_storage":{"encoding":"inplace","label":"struct vote.voter","members":[{"astId":2403,"contract":"Vote2.sol:vote","label":"EOA_address","offset":0,"slot":"0","type":"t_address"},{"astId":2405,"contract":"Vote2.sol:vote","label":"registry_addr","offset":0,"slot":"1","type":"t_address"},{"astId":2407,"contract":"Vote2.sol:vote","label":"register_or_not","offset":20,"slot":"1","type":"t_bool"},{"astId":2409,"contract":"Vote2.sol:vote","label":"vote_value","offset":0,"slot":"2","type":"t_uint256"},{"astId":2411,"contract":"Vote2.sol:vote","label":"vote_time","offset":0,"slot":"3","type":"t_int256"}],"numberOfBytes":"128"},"t_uint256":{"encoding":"inplace","label":"uint256","numberOfBytes":"32"}}},"userdoc":{"methods":{"Go_Vote(uint256,uint256,address)":{"notice":"//////// VOTE//////////////"},"checkECCMath(uint256)":{"notice":"//////// TALLY"},"constructor":"///////////constructor","return_result()":{"notice":"//////////////////////////////////view function"},"set_up_options(string)":{"notice":"/////////SETUP"},"stringToUint(string)":{"notice":"//////// Validation"}}}}