{"abi":[{"inputs":[],"stateMutability":"nonpayable","type":"constructor"},{"anonymous":false,"inputs":[{"indexed":false,"internalType":"address","name":"artist","type":"address"}],"name":"ArtistRequestingPermission","type":"event"},{"anonymous":false,"inputs":[{"indexed":false,"internalType":"string","name":"info","type":"string"},{"indexed":false,"internalType":"address","name":"CHaddress","type":"address"}],"name":"AttestationDenied","type":"event"},{"anonymous":false,"inputs":[{"indexed":false,"internalType":"string","name":"info","type":"string"},{"indexed":false,"internalType":"address","name":"CHaddress","type":"address"}],"name":"AttestationGranted","type":"event"},{"anonymous":false,"inputs":[{"indexed":false,"internalType":"string","name":"info","type":"string"},{"indexed":false,"internalType":"address","name":"artist","type":"address"}],"name":"PermissionDenied","type":"event"},{"anonymous":false,"inputs":[{"indexed":false,"internalType":"string","name":"info","type":"string"},{"indexed":false,"internalType":"address","name":"artist","type":"address"}],"name":"PermissionGranted","type":"event"},{"inputs":[{"internalType":"bool","name":"result","type":"bool"},{"internalType":"bytes32","name":"hash","type":"bytes32"},{"internalType":"string","name":"meta","type":"string"},{"internalType":"address","name":"editor","type":"address"},{"internalType":"uint256","name":"index","type":"uint256"}],"name":"Attestation","outputs":[],"stateMutability":"nonpayable","type":"function"},{"inputs":[{"internalType":"address","name":"owner","type":"address"},{"internalType":"address","name":"editor","type":"address"},{"internalType":"uint256","name":"checkIndex","type":"uint256"}],"name":"BeforeAttestation","outputs":[{"internalType":"address","name":"","type":"address"},{"internalType":"bytes32","name":"","type":"bytes32"},{"internalType":"uint256","name":"","type":"uint256"},{"internalType":"string","name":"","type":"string"}],"stateMutability":"view","type":"function"},{"inputs":[{"internalType":"address","name":"","type":"address"},{"internalType":"address","name":"","type":"address"},{"internalType":"uint256","name":"","type":"uint256"}],"name":"Check_Waiting_ChildContent","outputs":[{"internalType":"string","name":"ownJour","type":"string"},{"internalType":"address","name":"jourAddr","type":"address"},{"internalType":"string","name":"ownMedia","type":"string"},{"internalType":"address","name":"mediaAddr","type":"address"},{"internalType":"string","name":"metadata","type":"string"},{"internalType":"bytes32","name":"IPFS_Hash","type":"bytes32"},{"internalType":"uint256","name":"timestamp","type":"uint256"},{"internalType":"uint256","name":"index","type":"uint256"}],"stateMutability":"view","type":"function"},{"inputs":[{"internalType":"bytes32","name":"IPFShash","type":"bytes32"},{"internalType":"string","name":"metadata","type":"string"},{"internalType":"address","name":"owner","type":"address"},{"internalType":"uint256","name":"referIndex","type":"uint256"}],"name":"ChildContentInfo","outputs":[],"stateMutability":"nonpayable","type":"function"},{"inputs":[{"internalType":"address","name":"","type":"address"},{"internalType":"address","name":"","type":"address"},{"internalType":"uint256","name":"","type":"uint256"}],"name":"Denied_Permission_ChildContent","outputs":[{"internalType":"string","name":"ownJour","type":"string"},{"internalType":"address","name":"jourAddr","type":"address"},{"internalType":"string","name":"ownMedia","type":"string"},{"internalType":"address","name":"mediaAddr","type":"address"},{"internalType":"string","name":"metadata","type":"string"},{"internalType":"bytes32","name":"IPFS_Hash","type":"bytes32"},{"internalType":"uint256","name":"timestamp","type":"uint256"},{"internalType":"uint256","name":"index","type":"uint256"}],"stateMutability":"view","type":"function"},{"inputs":[{"internalType":"bool","name":"result","type":"bool"},{"internalType":"address","name":"editor","type":"address"},{"internalType":"uint256","name":"index","type":"uint256"}],"name":"GrantedPermission","outputs":[],"stateMutability":"nonpayable","type":"function"},{"inputs":[{"internalType":"address","name":"","type":"address"},{"internalType":"address","name":"","type":"address"},{"internalType":"uint256","name":"","type":"uint256"}],"name":"Granted_Permission_ChildContent","outputs":[{"internalType":"string","name":"ownJour","type":"string"},{"internalType":"address","name":"jourAddr","type":"address"},{"internalType":"string","name":"ownMedia","type":"string"},{"internalType":"address","name":"mediaAddr","type":"address"},{"internalType":"string","name":"metadata","type":"string"},{"internalType":"bytes32","name":"IPFS_Hash","type":"bytes32"},{"internalType":"uint256","name":"timestamp","type":"uint256"},{"internalType":"uint256","name":"index","type":"uint256"}],"stateMutability":"view","type":"function"},{"inputs":[{"internalType":"address","name":"","type":"address"},{"internalType":"uint256","name":"","type":"uint256"}],"name":"JourUnderMedia","outputs":[{"internalType":"address","name":"","type":"address"}],"stateMutability":"view","type":"function"},{"inputs":[{"internalType":"address","name":"","type":"address"},{"internalType":"uint256","name":"","type":"uint256"}],"name":"Requests","outputs":[{"internalType":"enum Certificate.ownerState","name":"state","type":"uint8"},{"internalType":"address","name":"EA","type":"address"},{"internalType":"uint256","name":"OwnedContent","type":"uint256"},{"internalType":"bytes32","name":"IPFS_Hash","type":"bytes32"},{"internalType":"bool","name":"result","type":"bool"}],"stateMutability":"view","type":"function"},{"inputs":[],"name":"getMediasCount","outputs":[{"internalType":"uint256","name":"","type":"uint256"}],"stateMutability":"view","type":"function"},{"inputs":[{"internalType":"string","name":"jourName","type":"string"},{"internalType":"address","name":"jourAddr","type":"address"},{"internalType":"string","name":"mediaName","type":"string"},{"internalType":"address","name":"mediaAddr","type":"address"},{"internalType":"string","name":"department","type":"string"},{"internalType":"string","name":"jourTimePeriod","type":"string"},{"internalType":"string","name":"jourcerHash","type":"string"}],"name":"jourCert","outputs":[],"stateMutability":"nonpayable","type":"function"},{"inputs":[{"internalType":"address","name":"jourAddr","type":"address"},{"internalType":"address","name":"mediaEntity","type":"address"}],"name":"jourLogin","outputs":[],"stateMutability":"view","type":"function"},{"inputs":[{"internalType":"address","name":"","type":"address"},{"internalType":"address","name":"","type":"address"},{"internalType":"uint256","name":"","type":"uint256"}],"name":"jourNews","outputs":[{"internalType":"string","name":"ownJour","type":"string"},{"internalType":"address","name":"jourAddr","type":"address"},{"internalType":"string","name":"ownMedia","type":"string"},{"internalType":"address","name":"mediaAddr","type":"address"},{"internalType":"string","name":"metadata","type":"string"},{"internalType":"bytes32","name":"IPFS_Hash","type":"bytes32"},{"internalType":"uint256","name":"timestamp","type":"uint256"},{"internalType":"uint256","name":"index","type":"uint256"}],"stateMutability":"view","type":"function"},{"inputs":[{"internalType":"string","name":"mediaName","type":"string"},{"internalType":"address","name":"mediaAddr","type":"address"},{"internalType":"string","name":"repre","type":"string"},{"internalType":"address","name":"repreAddr","type":"address"},{"internalType":"string","name":"timeperiod","type":"string"},{"internalType":"string","name":"mediacerHash","type":"string"}],"name":"mediaCert","outputs":[],"stateMutability":"nonpayable","type":"function"},{"inputs":[{"internalType":"address","name":"mediaAddr","type":"address"}],"name":"mediaLogin","outputs":[],"stateMutability":"view","type":"function"},{"inputs":[],"name":"nccEntity","outputs":[{"internalType":"address","name":"","type":"address"}],"stateMutability":"view","type":"function"},{"inputs":[{"internalType":"address","name":"nccAddr","type":"address"}],"name":"nccLogin","outputs":[],"stateMutability":"view","type":"function"},{"inputs":[{"internalType":"string","name":"jourName","type":"string"},{"internalType":"address","name":"jourAddr","type":"address"},{"internalType":"string","name":"MediaName","type":"string"},{"internalType":"address","name":"mediaAddr","type":"address"},{"internalType":"string","name":"metadata","type":"string"},{"internalType":"bytes32","name":"contHash","type":"bytes32"},{"internalType":"uint256","name":"duedate","type":"uint256"}],"name":"newsConBookeeping","outputs":[],"stateMutability":"nonpayable","type":"function"},{"inputs":[{"internalType":"address","name":"owner","type":"address"},{"internalType":"uint256","name":"index","type":"uint256"}],"name":"requestPermission","outputs":[],"stateMutability":"nonpayable","type":"function"},{"inputs":[{"internalType":"bytes32","name":"news_validation_hash","type":"bytes32"},{"internalType":"address","name":"jourAddr","type":"address"},{"internalType":"address","name":"mediaAddr","type":"address"},{"internalType":"uint256","name":"index","type":"uint256"}],"name":"retrieveNewsContents","outputs":[{"internalType":"string","name":"","type":"string"}],"stateMutability":"view","type":"function"}],"devdoc":{"methods":{}},"evm":{"assembly":"    /* \"dNews_entity.sol\":187:11404  contract Certificate {\r... */\n  mstore(0x40, 0x80)\n    /* \"dNews_entity.sol\":1285:1327  0x82671b9d3ABAa76277d5b38167b09646c2c32d94 */\n  0x82671b9d3abaa76277d5b38167b09646c2c32d94\n    /* \"dNews_entity.sol\":1258:1327  address public nccEntity = 0x82671b9d3ABAa76277d5b38167b09646c2c32d94 */\n  0x01\n  exp(0x0100, 0x00)\n  dup2\n  sload\n  dup2\n  0xffffffffffffffffffffffffffffffffffffffff\n  mul\n  not\n  and\n  swap1\n  dup4\n  0xffffffffffffffffffffffffffffffffffffffff\n  and\n  mul\n  or\n  swap1\n  sstore\n  pop\n    /* \"dNews_entity.sol\":1960:2017  constructor () public {\r... */\n  callvalue\n    /* \"--CODEGEN--\":5:14   */\n  dup1\n    /* \"--CODEGEN--\":2:4   */\n  iszero\n  tag_1\n  jumpi\n    /* \"--CODEGEN--\":27:28   */\n  0x00\n    /* \"--CODEGEN--\":24:25   */\n  dup1\n    /* \"--CODEGEN--\":17:29   */\n  revert\n    /* \"--CODEGEN--\":2:4   */\ntag_1:\n    /* \"dNews_entity.sol\":1960:2017  constructor () public {\r... */\n  pop\n    /* \"dNews_entity.sol\":1999:2009  msg.sender */\n  caller\n    /* \"dNews_entity.sol\":1993:1996  NCC */\n  0x00\n  dup1\n    /* \"dNews_entity.sol\":1993:2009  NCC = msg.sender */\n  0x0100\n  exp\n  dup2\n  sload\n  dup2\n  0xffffffffffffffffffffffffffffffffffffffff\n  mul\n  not\n  and\n  swap1\n  dup4\n  0xffffffffffffffffffffffffffffffffffffffff\n  and\n  mul\n  or\n  swap1\n  sstore\n  pop\n    /* \"dNews_entity.sol\":187:11404  contract Certificate {\r... */\n  dataSize(sub_0)\n  dup1\n  dataOffset(sub_0)\n  0x00\n  codecopy\n  0x00\n  return\nstop\n\nsub_0: assembly {\n        /* \"dNews_entity.sol\":187:11404  contract Certificate {\r... */\n      mstore(0x40, 0x80)\n      callvalue\n        /* \"--CODEGEN--\":5:14   */\n      dup1\n        /* \"--CODEGEN--\":2:4   */\n      iszero\n      tag_1\n      jumpi\n        /* \"--CODEGEN--\":27:28   */\n      0x00\n        /* \"--CODEGEN--\":24:25   */\n      dup1\n        /* \"--CODEGEN--\":17:29   */\n      revert\n        /* \"--CODEGEN--\":2:4   */\n    tag_1:\n        /* \"dNews_entity.sol\":187:11404  contract Certificate {\r... */\n      pop\n      jumpi(tag_2, lt(calldatasize, 0x04))\n      shr(0xe0, calldataload(0x00))\n      dup1\n      0x995975d8\n      gt\n      tag_23\n      jumpi\n      dup1\n      0xb7e06216\n      gt\n      tag_24\n      jumpi\n      dup1\n      0xb7e06216\n      eq\n      tag_18\n      jumpi\n      dup1\n      0xdb76cb07\n      eq\n      tag_19\n      jumpi\n      dup1\n      0xef536e4f\n      eq\n      tag_20\n      jumpi\n      dup1\n      0xf0b2c594\n      eq\n      tag_21\n      jumpi\n      dup1\n      0xfbcf9575\n      eq\n      tag_22\n      jumpi\n      jump(tag_2)\n    tag_24:\n      dup1\n      0x995975d8\n      eq\n      tag_13\n      jumpi\n      dup1\n      0xa32f69c0\n      eq\n      tag_14\n      jumpi\n      dup1\n      0xa6b43aca\n      eq\n      tag_15\n      jumpi\n      dup1\n      0xa9588eda\n      eq\n      tag_16\n      jumpi\n      dup1\n      0xb30485fc\n      eq\n      tag_17\n      jumpi\n      jump(tag_2)\n    tag_23:\n      dup1\n      0x3101c146\n      gt\n      tag_25\n      jumpi\n      dup1\n      0x3101c146\n      eq\n      tag_8\n      jumpi\n      dup1\n      0x532a1bd2\n      eq\n      tag_9\n      jumpi\n      dup1\n      0x681bcf09\n      eq\n      tag_10\n      jumpi\n      dup1\n      0x86fb1ff5\n      eq\n      tag_11\n      jumpi\n      dup1\n      0x8d449861\n      eq\n      tag_12\n      jumpi\n      jump(tag_2)\n    tag_25:\n      dup1\n      0x0ab2039f\n      eq\n      tag_3\n      jumpi\n      dup1\n      0x108246f0\n      eq\n      tag_4\n      jumpi\n      dup1\n      0x156836e3\n      eq\n      tag_5\n      jumpi\n      dup1\n      0x253245b5\n      eq\n      tag_6\n      jumpi\n      dup1\n      0x2a4f0c98\n      eq\n      tag_7\n      jumpi\n    tag_2:\n        /* \"--CODEGEN--\":12:13   */\n      0x00\n        /* \"--CODEGEN--\":9:10   */\n      dup1\n        /* \"--CODEGEN--\":2:14   */\n      revert\n        /* \"dNews_entity.sol\":9536:10020  function BeforeAttestation(address owner, address editor, uint checkIndex)public view returns(address, bytes32, uint, string memory){\r... */\n    tag_3:\n      tag_26\n      0x04\n      dup1\n      calldatasize\n      sub\n      dup2\n      add\n      swap1\n      tag_27\n      swap2\n      swap1\n      jump(tag_28)\n    tag_27:\n      tag_29\n      jump\t// in\n    tag_26:\n      mload(0x40)\n      tag_30\n      swap5\n      swap4\n      swap3\n      swap2\n      swap1\n      jump(tag_31)\n    tag_30:\n      mload(0x40)\n      dup1\n      swap2\n      sub\n      swap1\n      return\n        /* \"dNews_entity.sol\":1258:1327  address public nccEntity = 0x82671b9d3ABAa76277d5b38167b09646c2c32d94 */\n    tag_4:\n      tag_32\n      tag_33\n      jump\t// in\n    tag_32:\n      mload(0x40)\n      tag_34\n      swap2\n      swap1\n      jump(tag_35)\n    tag_34:\n      mload(0x40)\n      dup1\n      swap2\n      sub\n      swap1\n      return\n        /* \"dNews_entity.sol\":2771:3127  function jourLogin(address jourAddr, address mediaEntity) public view {\r... */\n    tag_5:\n      tag_36\n      0x04\n      dup1\n      calldatasize\n      sub\n      dup2\n      add\n      swap1\n      tag_37\n      swap2\n      swap1\n      jump(tag_38)\n    tag_37:\n      tag_39\n      jump\t// in\n    tag_36:\n      stop\n        /* \"dNews_entity.sol\":5649:5744  function getMediasCount() public view returns (uint256) {\r... */\n    tag_6:\n      tag_40\n      tag_41\n      jump\t// in\n    tag_40:\n      mload(0x40)\n      tag_42\n      swap2\n      swap1\n      jump(tag_43)\n    tag_42:\n      mload(0x40)\n      dup1\n      swap2\n      sub\n      swap1\n      return\n        /* \"dNews_entity.sol\":3217:3890  function mediaCert (string memory mediaName, address mediaAddr, string memory repre, address repreAddr, string memory timeperiod, string memory mediacerHash) public MediaCert_give{ // add qualify media to the list\r... */\n    tag_7:\n      tag_44\n      0x04\n      dup1\n      calldatasize\n      sub\n      dup2\n      add\n      swap1\n      tag_45\n      swap2\n      swap1\n      jump(tag_46)\n    tag_45:\n      tag_47\n      jump\t// in\n    tag_44:\n      stop\n        /* \"dNews_entity.sol\":4816:5636  function newsConBookeeping (string memory jourName, address jourAddr, string memory MediaName, address mediaAddr, string memory metadata, bytes32 contHash, uint duedate) public {\r... */\n    tag_8:\n      tag_48\n      0x04\n      dup1\n      calldatasize\n      sub\n      dup2\n      add\n      swap1\n      tag_49\n      swap2\n      swap1\n      jump(tag_50)\n    tag_49:\n      tag_51\n      jump\t// in\n    tag_48:\n      stop\n        /* \"dNews_entity.sol\":1664:1734  mapping(address => mapping(address => news_content[])) public jourNews */\n    tag_9:\n      tag_52\n      0x04\n      dup1\n      calldatasize\n      sub\n      dup2\n      add\n      swap1\n      tag_53\n      swap2\n      swap1\n      jump(tag_28)\n    tag_53:\n      tag_54\n      jump\t// in\n    tag_52:\n      mload(0x40)\n      tag_55\n      swap9\n      swap8\n      swap7\n      swap6\n      swap5\n      swap4\n      swap3\n      swap2\n      swap1\n      jump(tag_56)\n    tag_55:\n      mload(0x40)\n      dup1\n      swap2\n      sub\n      swap1\n      return\n        /* \"dNews_entity.sol\":7848:8617  function GrantedPermission(bool result, address editor, uint index) public {\r... */\n    tag_10:\n      tag_57\n      0x04\n      dup1\n      calldatasize\n      sub\n      dup2\n      add\n      swap1\n      tag_58\n      swap2\n      swap1\n      jump(tag_59)\n    tag_58:\n      tag_60\n      jump\t// in\n    tag_57:\n      stop\n        /* \"dNews_entity.sol\":5767:6127  function retrieveNewsContents(bytes32 news_validation_hash, address jourAddr, address mediaAddr, uint index) public view returns (string memory) {\r... */\n    tag_11:\n      tag_61\n      0x04\n      dup1\n      calldatasize\n      sub\n      dup2\n      add\n      swap1\n      tag_62\n      swap2\n      swap1\n      jump(tag_63)\n    tag_62:\n      tag_64\n      jump\t// in\n    tag_61:\n      mload(0x40)\n      tag_65\n      swap2\n      swap1\n      jump(tag_66)\n    tag_65:\n      mload(0x40)\n      dup1\n      swap2\n      sub\n      swap1\n      return\n        /* \"dNews_entity.sol\":7355:7822  function requestPermission(address owner, uint index)public {\r... */\n    tag_12:\n      tag_67\n      0x04\n      dup1\n      calldatasize\n      sub\n      dup2\n      add\n      swap1\n      tag_68\n      swap2\n      swap1\n      jump(tag_69)\n    tag_68:\n      tag_70\n      jump\t// in\n    tag_67:\n      stop\n        /* \"dNews_entity.sol\":6601:6646  mapping(address=>traceOwner[])public Requests */\n    tag_13:\n      tag_71\n      0x04\n      dup1\n      calldatasize\n      sub\n      dup2\n      add\n      swap1\n      tag_72\n      swap2\n      swap1\n      jump(tag_69)\n    tag_72:\n      tag_73\n      jump\t// in\n    tag_71:\n      mload(0x40)\n      tag_74\n      swap6\n      swap5\n      swap4\n      swap3\n      swap2\n      swap1\n      jump(tag_75)\n    tag_74:\n      mload(0x40)\n      dup1\n      swap2\n      sub\n      swap1\n      return\n        /* \"dNews_entity.sol\":6682:6773  mapping (address =>mapping(address=>news_content[])) public Granted_Permission_ChildContent */\n    tag_14:\n      tag_76\n      0x04\n      dup1\n      calldatasize\n      sub\n      dup2\n      add\n      swap1\n      tag_77\n      swap2\n      swap1\n      jump(tag_28)\n    tag_77:\n      tag_78\n      jump\t// in\n    tag_76:\n      mload(0x40)\n      tag_79\n      swap9\n      swap8\n      swap7\n      swap6\n      swap5\n      swap4\n      swap3\n      swap2\n      swap1\n      jump(tag_56)\n    tag_79:\n      mload(0x40)\n      dup1\n      swap2\n      sub\n      swap1\n      return\n        /* \"dNews_entity.sol\":6853:6943  mapping (address =>mapping(address=>news_content[])) public Denied_Permission_ChildContent */\n    tag_15:\n      tag_80\n      0x04\n      dup1\n      calldatasize\n      sub\n      dup2\n      add\n      swap1\n      tag_81\n      swap2\n      swap1\n      jump(tag_28)\n    tag_81:\n      tag_82\n      jump\t// in\n    tag_80:\n      mload(0x40)\n      tag_83\n      swap9\n      swap8\n      swap7\n      swap6\n      swap5\n      swap4\n      swap3\n      swap2\n      swap1\n      jump(tag_56)\n    tag_83:\n      mload(0x40)\n      dup1\n      swap2\n      sub\n      swap1\n      return\n        /* \"dNews_entity.sol\":10046:11313  function Attestation(bool result, bytes32 hash, string memory meta, address editor, uint index) public{\r... */\n    tag_16:\n      tag_84\n      0x04\n      dup1\n      calldatasize\n      sub\n      dup2\n      add\n      swap1\n      tag_85\n      swap2\n      swap1\n      jump(tag_86)\n    tag_85:\n      tag_87\n      jump\t// in\n    tag_84:\n      stop\n        /* \"dNews_entity.sol\":2074:2369  function nccLogin(address nccAddr) public view   MediaCert_give{\r... */\n    tag_17:\n      tag_88\n      0x04\n      dup1\n      calldatasize\n      sub\n      dup2\n      add\n      swap1\n      tag_89\n      swap2\n      swap1\n      jump(tag_90)\n    tag_89:\n      tag_91\n      jump\t// in\n    tag_88:\n      stop\n        /* \"dNews_entity.sol\":8683:9461  function ChildContentInfo(bytes32 IPFShash, string memory metadata,address owner, uint referIndex)public {\r... */\n    tag_18:\n      tag_92\n      0x04\n      dup1\n      calldatasize\n      sub\n      dup2\n      add\n      swap1\n      tag_93\n      swap2\n      swap1\n      jump(tag_94)\n    tag_93:\n      tag_95\n      jump\t// in\n    tag_92:\n      stop\n        /* \"dNews_entity.sol\":3928:4785  function jourCert (string memory jourName, address jourAddr, string memory mediaName, address mediaAddr, string memory department, string memory jourTimePeriod, string memory jourcerHash) public  { // add qualify journalists to the list\r... */\n    tag_19:\n      tag_96\n      0x04\n      dup1\n      calldatasize\n      sub\n      dup2\n      add\n      swap1\n      tag_97\n      swap2\n      swap1\n      jump(tag_98)\n    tag_97:\n      tag_99\n      jump\t// in\n    tag_96:\n      stop\n        /* \"dNews_entity.sol\":1790:1841  mapping(address => address[]) public JourUnderMedia */\n    tag_20:\n      tag_100\n      0x04\n      dup1\n      calldatasize\n      sub\n      dup2\n      add\n      swap1\n      tag_101\n      swap2\n      swap1\n      jump(tag_69)\n    tag_101:\n      tag_102\n      jump\t// in\n    tag_100:\n      mload(0x40)\n      tag_103\n      swap2\n      swap1\n      jump(tag_35)\n    tag_103:\n      mload(0x40)\n      dup1\n      swap2\n      sub\n      swap1\n      return\n        /* \"dNews_entity.sol\":2394:2736  function mediaLogin(address mediaAddr) public view{\r... */\n    tag_21:\n      tag_104\n      0x04\n      dup1\n      calldatasize\n      sub\n      dup2\n      add\n      swap1\n      tag_105\n      swap2\n      swap1\n      jump(tag_90)\n    tag_105:\n      tag_106\n      jump\t// in\n    tag_104:\n      stop\n        /* \"dNews_entity.sol\":6950:7036  mapping (address =>mapping(address=>news_content[])) public Check_Waiting_ChildContent */\n    tag_22:\n      tag_107\n      0x04\n      dup1\n      calldatasize\n      sub\n      dup2\n      add\n      swap1\n      tag_108\n      swap2\n      swap1\n      jump(tag_28)\n    tag_108:\n      tag_109\n      jump\t// in\n    tag_107:\n      mload(0x40)\n      tag_110\n      swap9\n      swap8\n      swap7\n      swap6\n      swap5\n      swap4\n      swap3\n      swap2\n      swap1\n      jump(tag_56)\n    tag_110:\n      mload(0x40)\n      dup1\n      swap2\n      sub\n      swap1\n      return\n        /* \"dNews_entity.sol\":9536:10020  function BeforeAttestation(address owner, address editor, uint checkIndex)public view returns(address, bytes32, uint, string memory){\r... */\n    tag_29:\n        /* \"dNews_entity.sol\":9630:9637  address */\n      0x00\n        /* \"dNews_entity.sol\":9639:9646  bytes32 */\n      dup1\n        /* \"dNews_entity.sol\":9648:9652  uint */\n      0x00\n        /* \"dNews_entity.sol\":9654:9667  string memory */\n      0x60\n        /* \"dNews_entity.sol\":9702:9728  Check_Waiting_ChildContent */\n      0x0b\n        /* \"dNews_entity.sol\":9702:9736  Check_Waiting_ChildContent[editor] */\n      0x00\n        /* \"dNews_entity.sol\":9729:9735  editor */\n      dup8\n        /* \"dNews_entity.sol\":9702:9736  Check_Waiting_ChildContent[editor] */\n      0xffffffffffffffffffffffffffffffffffffffff\n      and\n      0xffffffffffffffffffffffffffffffffffffffff\n      and\n      dup2\n      mstore\n      0x20\n      add\n      swap1\n      dup2\n      mstore\n      0x20\n      add\n      0x00\n      keccak256\n        /* \"dNews_entity.sol\":9702:9743  Check_Waiting_ChildContent[editor][owner] */\n      0x00\n        /* \"dNews_entity.sol\":9737:9742  owner */\n      dup9\n        /* \"dNews_entity.sol\":9702:9743  Check_Waiting_ChildContent[editor][owner] */\n      0xffffffffffffffffffffffffffffffffffffffff\n      and\n      0xffffffffffffffffffffffffffffffffffffffff\n      and\n      dup2\n      mstore\n      0x20\n      add\n      swap1\n      dup2\n      mstore\n      0x20\n      add\n      0x00\n      keccak256\n        /* \"dNews_entity.sol\":9744:9754  checkIndex */\n      dup6\n        /* \"dNews_entity.sol\":9702:9755  Check_Waiting_ChildContent[editor][owner][checkIndex] */\n      dup2\n      sload\n      dup2\n      lt\n      tag_112\n      jumpi\n      invalid\n    tag_112:\n      swap1\n      0x00\n      mstore\n      keccak256(0x00, 0x20)\n      swap1\n      0x08\n      mul\n      add\n        /* \"dNews_entity.sol\":9702:9764  Check_Waiting_ChildContent[editor][owner][checkIndex].jourAddr */\n      0x01\n      add\n      0x00\n      swap1\n      sload\n      swap1\n      0x0100\n      exp\n      swap1\n      div\n      0xffffffffffffffffffffffffffffffffffffffff\n      and\n        /* \"dNews_entity.sol\":9779:9805  Check_Waiting_ChildContent */\n      0x0b\n        /* \"dNews_entity.sol\":9779:9813  Check_Waiting_ChildContent[editor] */\n      0x00\n        /* \"dNews_entity.sol\":9806:9812  editor */\n      dup9\n        /* \"dNews_entity.sol\":9779:9813  Check_Waiting_ChildContent[editor] */\n      0xffffffffffffffffffffffffffffffffffffffff\n      and\n      0xffffffffffffffffffffffffffffffffffffffff\n      and\n      dup2\n      mstore\n      0x20\n      add\n      swap1\n      dup2\n      mstore\n      0x20\n      add\n      0x00\n      keccak256\n        /* \"dNews_entity.sol\":9779:9820  Check_Waiting_ChildContent[editor][owner] */\n      0x00\n        /* \"dNews_entity.sol\":9814:9819  owner */\n      dup10\n        /* \"dNews_entity.sol\":9779:9820  Check_Waiting_ChildContent[editor][owner] */\n      0xffffffffffffffffffffffffffffffffffffffff\n      and\n      0xffffffffffffffffffffffffffffffffffffffff\n      and\n      dup2\n      mstore\n      0x20\n      add\n      swap1\n      dup2\n      mstore\n      0x20\n      add\n      0x00\n      keccak256\n        /* \"dNews_entity.sol\":9821:9831  checkIndex */\n      dup7\n        /* \"dNews_entity.sol\":9779:9832  Check_Waiting_ChildContent[editor][owner][checkIndex] */\n      dup2\n      sload\n      dup2\n      lt\n      tag_114\n      jumpi\n      invalid\n    tag_114:\n      swap1\n      0x00\n      mstore\n      keccak256(0x00, 0x20)\n      swap1\n      0x08\n      mul\n      add\n        /* \"dNews_entity.sol\":9779:9842  Check_Waiting_ChildContent[editor][owner][checkIndex].IPFS_Hash */\n      0x05\n      add\n      sload\n        /* \"dNews_entity.sol\":9857:9883  Check_Waiting_ChildContent */\n      0x0b\n        /* \"dNews_entity.sol\":9857:9891  Check_Waiting_ChildContent[editor] */\n      0x00\n        /* \"dNews_entity.sol\":9884:9890  editor */\n      dup10\n        /* \"dNews_entity.sol\":9857:9891  Check_Waiting_ChildContent[editor] */\n      0xffffffffffffffffffffffffffffffffffffffff\n      and\n      0xffffffffffffffffffffffffffffffffffffffff\n      and\n      dup2\n      mstore\n      0x20\n      add\n      swap1\n      dup2\n      mstore\n      0x20\n      add\n      0x00\n      keccak256\n        /* \"dNews_entity.sol\":9857:9898  Check_Waiting_ChildContent[editor][owner] */\n      0x00\n        /* \"dNews_entity.sol\":9892:9897  owner */\n      dup11\n        /* \"dNews_entity.sol\":9857:9898  Check_Waiting_ChildContent[editor][owner] */\n      0xffffffffffffffffffffffffffffffffffffffff\n      and\n      0xffffffffffffffffffffffffffffffffffffffff\n      and\n      dup2\n      mstore\n      0x20\n      add\n      swap1\n      dup2\n      mstore\n      0x20\n      add\n      0x00\n      keccak256\n        /* \"dNews_entity.sol\":9899:9909  checkIndex */\n      dup8\n        /* \"dNews_entity.sol\":9857:9910  Check_Waiting_ChildContent[editor][owner][checkIndex] */\n      dup2\n      sload\n      dup2\n      lt\n      tag_116\n      jumpi\n      invalid\n    tag_116:\n      swap1\n      0x00\n      mstore\n      keccak256(0x00, 0x20)\n      swap1\n      0x08\n      mul\n      add\n        /* \"dNews_entity.sol\":9857:9920  Check_Waiting_ChildContent[editor][owner][checkIndex].timestamp */\n      0x06\n      add\n      sload\n        /* \"dNews_entity.sol\":9935:9961  Check_Waiting_ChildContent */\n      0x0b\n        /* \"dNews_entity.sol\":9935:9969  Check_Waiting_ChildContent[editor] */\n      0x00\n        /* \"dNews_entity.sol\":9962:9968  editor */\n      dup11\n        /* \"dNews_entity.sol\":9935:9969  Check_Waiting_ChildContent[editor] */\n      0xffffffffffffffffffffffffffffffffffffffff\n      and\n      0xffffffffffffffffffffffffffffffffffffffff\n      and\n      dup2\n      mstore\n      0x20\n      add\n      swap1\n      dup2\n      mstore\n      0x20\n      add\n      0x00\n      keccak256\n        /* \"dNews_entity.sol\":9935:9976  Check_Waiting_ChildContent[editor][owner] */\n      0x00\n        /* \"dNews_entity.sol\":9970:9975  owner */\n      dup12\n        /* \"dNews_entity.sol\":9935:9976  Check_Waiting_ChildContent[editor][owner] */\n      0xffffffffffffffffffffffffffffffffffffffff\n      and\n      0xffffffffffffffffffffffffffffffffffffffff\n      and\n      dup2\n      mstore\n      0x20\n      add\n      swap1\n      dup2\n      mstore\n      0x20\n      add\n      0x00\n      keccak256\n        /* \"dNews_entity.sol\":9977:9987  checkIndex */\n      dup9\n        /* \"dNews_entity.sol\":9935:9988  Check_Waiting_ChildContent[editor][owner][checkIndex] */\n      dup2\n      sload\n      dup2\n      lt\n      tag_118\n      jumpi\n      invalid\n    tag_118:\n      swap1\n      0x00\n      mstore\n      keccak256(0x00, 0x20)\n      swap1\n      0x08\n      mul\n      add\n        /* \"dNews_entity.sol\":9935:9997  Check_Waiting_ChildContent[editor][owner][checkIndex].metadata */\n      0x04\n      add\n        /* \"dNews_entity.sol\":9679:10012  return  (\r... */\n      dup1\n      dup1\n      sload\n      0x01\n      dup2\n      0x01\n      and\n      iszero\n      0x0100\n      mul\n      sub\n      and\n      0x02\n      swap1\n      div\n      dup1\n      0x1f\n      add\n      0x20\n      dup1\n      swap2\n      div\n      mul\n      0x20\n      add\n      mload(0x40)\n      swap1\n      dup2\n      add\n      0x40\n      mstore\n      dup1\n      swap3\n      swap2\n      swap1\n      dup2\n      dup2\n      mstore\n      0x20\n      add\n      dup3\n      dup1\n      sload\n      0x01\n      dup2\n      0x01\n      and\n      iszero\n      0x0100\n      mul\n      sub\n      and\n      0x02\n      swap1\n      div\n      dup1\n      iszero\n      tag_120\n      jumpi\n      dup1\n      0x1f\n      lt\n      tag_121\n      jumpi\n      0x0100\n      dup1\n      dup4\n      sload\n      div\n      mul\n      dup4\n      mstore\n      swap2\n      0x20\n      add\n      swap2\n      jump(tag_120)\n    tag_121:\n      dup3\n      add\n      swap2\n      swap1\n      0x00\n      mstore\n      keccak256(0x00, 0x20)\n      swap1\n    tag_122:\n      dup2\n      sload\n      dup2\n      mstore\n      swap1\n      0x01\n      add\n      swap1\n      0x20\n      add\n      dup1\n      dup4\n      gt\n      tag_122\n      jumpi\n      dup3\n      swap1\n      sub\n      0x1f\n      and\n      dup3\n      add\n      swap2\n    tag_120:\n      pop\n      pop\n      pop\n      pop\n      pop\n      swap1\n      pop\n      swap4\n      pop\n      swap4\n      pop\n      swap4\n      pop\n      swap4\n      pop\n        /* \"dNews_entity.sol\":9536:10020  function BeforeAttestation(address owner, address editor, uint checkIndex)public view returns(address, bytes32, uint, string memory){\r... */\n      swap4\n      pop\n      swap4\n      pop\n      swap4\n      pop\n      swap4\n      jump\t// out\n        /* \"dNews_entity.sol\":1258:1327  address public nccEntity = 0x82671b9d3ABAa76277d5b38167b09646c2c32d94 */\n    tag_33:\n      0x01\n      0x00\n      swap1\n      sload\n      swap1\n      0x0100\n      exp\n      swap1\n      div\n      0xffffffffffffffffffffffffffffffffffffffff\n      and\n      dup2\n      jump\t// out\n        /* \"dNews_entity.sol\":2771:3127  function jourLogin(address jourAddr, address mediaEntity) public view {\r... */\n    tag_39:\n        /* \"dNews_entity.sol\":2880:2884  true */\n      0x01\n        /* \"dNews_entity.sol\":2860:2884  isJour[jourAddr] == true */\n      iszero\n      iszero\n        /* \"dNews_entity.sol\":2860:2866  isJour */\n      0x05\n        /* \"dNews_entity.sol\":2860:2876  isJour[jourAddr] */\n      0x00\n        /* \"dNews_entity.sol\":2867:2875  jourAddr */\n      dup5\n        /* \"dNews_entity.sol\":2860:2876  isJour[jourAddr] */\n      0xffffffffffffffffffffffffffffffffffffffff\n      and\n      0xffffffffffffffffffffffffffffffffffffffff\n      and\n      dup2\n      mstore\n      0x20\n      add\n      swap1\n      dup2\n      mstore\n      0x20\n      add\n      0x00\n      keccak256\n      0x00\n      swap1\n      sload\n      swap1\n      0x0100\n      exp\n      swap1\n      div\n      0xff\n      and\n        /* \"dNews_entity.sol\":2860:2884  isJour[jourAddr] == true */\n      iszero\n      iszero\n      eq\n        /* \"dNews_entity.sol\":2852:2885  require(isJour[jourAddr] == true) */\n      tag_124\n      jumpi\n        /* \"--CODEGEN--\":12:13   */\n      0x00\n        /* \"--CODEGEN--\":9:10   */\n      dup1\n        /* \"--CODEGEN--\":2:14   */\n      revert\n        /* \"dNews_entity.sol\":2852:2885  require(isJour[jourAddr] == true) */\n    tag_124:\n        /* \"dNews_entity.sol\":2896:2913  Entity entityJour */\n      0x00\n        /* \"dNews_entity.sol\":2923:2931  jourAddr */\n      dup3\n        /* \"dNews_entity.sol\":2896:2932  Entity entityJour = Entity(jourAddr) */\n      swap1\n      pop\n        /* \"dNews_entity.sol\":2943:2961  string memory text */\n      0x60\n        /* \"dNews_entity.sol\":2964:2974  entityJour */\n      dup2\n        /* \"dNews_entity.sol\":2964:2986  entityJour.columnValue */\n      0xffffffffffffffffffffffffffffffffffffffff\n      and\n      0x8cba76b1\n        /* \"dNews_entity.sol\":2987:2998  mediaEntity */\n      dup5\n        /* \"dNews_entity.sol\":2964:3028  entityJour.columnValue(mediaEntity, \"JourCertificate\", \"isJour\") */\n      mload(0x40)\n      dup3\n      0xffffffff\n      and\n      0xe0\n      shl\n      dup2\n      mstore\n      0x04\n      add\n      tag_125\n      swap2\n      swap1\n      jump(tag_126)\n    tag_125:\n      0x00\n      mload(0x40)\n      dup1\n      dup4\n      sub\n      dup2\n      dup7\n      dup1\n      extcodesize\n      iszero\n        /* \"--CODEGEN--\":5:14   */\n      dup1\n        /* \"--CODEGEN--\":2:4   */\n      iszero\n      tag_127\n      jumpi\n        /* \"--CODEGEN--\":27:28   */\n      0x00\n        /* \"--CODEGEN--\":24:25   */\n      dup1\n        /* \"--CODEGEN--\":17:29   */\n      revert\n        /* \"--CODEGEN--\":2:4   */\n    tag_127:\n        /* \"dNews_entity.sol\":2964:3028  entityJour.columnValue(mediaEntity, \"JourCertificate\", \"isJour\") */\n      pop\n      gas\n      staticcall\n      iszero\n        /* \"--CODEGEN--\":8:17   */\n      dup1\n        /* \"--CODEGEN--\":5:7   */\n      iszero\n      tag_129\n      jumpi\n        /* \"--CODEGEN--\":45:61   */\n      returndatasize\n        /* \"--CODEGEN--\":42:43   */\n      0x00\n        /* \"--CODEGEN--\":39:40   */\n      dup1\n        /* \"--CODEGEN--\":24:62   */\n      returndatacopy\n        /* \"--CODEGEN--\":77:93   */\n      returndatasize\n        /* \"--CODEGEN--\":74:75   */\n      0x00\n        /* \"--CODEGEN--\":67:94   */\n      revert\n        /* \"--CODEGEN--\":5:7   */\n    tag_129:\n        /* \"dNews_entity.sol\":2964:3028  entityJour.columnValue(mediaEntity, \"JourCertificate\", \"isJour\") */\n      pop\n      pop\n      pop\n      pop\n      mload(0x40)\n        /* \"--CODEGEN--\":39:55   */\n      returndatasize\n        /* \"--CODEGEN--\":36:37   */\n      0x00\n        /* \"--CODEGEN--\":17:34   */\n      dup3\n        /* \"--CODEGEN--\":2:56   */\n      returndatacopy\n        /* \"dNews_entity.sol\":2964:3028  entityJour.columnValue(mediaEntity, \"JourCertificate\", \"isJour\") */\n      returndatasize\n        /* \"--CODEGEN--\":101:105   */\n      0x1f\n        /* \"--CODEGEN--\":97:106   */\n      not\n        /* \"--CODEGEN--\":90:94   */\n      0x1f\n        /* \"--CODEGEN--\":84:88   */\n      dup3\n        /* \"--CODEGEN--\":80:95   */\n      add\n        /* \"--CODEGEN--\":76:107   */\n      and\n        /* \"--CODEGEN--\":69:74   */\n      dup3\n        /* \"--CODEGEN--\":65:108   */\n      add\n        /* \"--CODEGEN--\":126:132   */\n      dup1\n        /* \"--CODEGEN--\":120:124   */\n      0x40\n        /* \"--CODEGEN--\":113:133   */\n      mstore\n        /* \"--CODEGEN--\":0:138   */\n      pop\n        /* \"dNews_entity.sol\":2964:3028  entityJour.columnValue(mediaEntity, \"JourCertificate\", \"isJour\") */\n      dup2\n      add\n      swap1\n      tag_130\n      swap2\n      swap1\n      jump(tag_131)\n    tag_130:\n        /* \"dNews_entity.sol\":2943:3028  string memory text = entityJour.columnValue(mediaEntity, \"JourCertificate\", \"isJour\") */\n      swap1\n      pop\n        /* \"dNews_entity.sol\":3094:3117  abi.encodePacked(\"Yes\") */\n      add(0x20, mload(0x40))\n      tag_132\n      swap1\n      jump(tag_133)\n    tag_132:\n      mload(0x40)\n        /* \"--CODEGEN--\":49:53   */\n      0x20\n        /* \"--CODEGEN--\":39:46   */\n      dup2\n        /* \"--CODEGEN--\":30:37   */\n      dup4\n        /* \"--CODEGEN--\":26:47   */\n      sub\n        /* \"--CODEGEN--\":22:54   */\n      sub\n        /* \"--CODEGEN--\":13:20   */\n      dup2\n        /* \"--CODEGEN--\":6:55   */\n      mstore\n        /* \"dNews_entity.sol\":3094:3117  abi.encodePacked(\"Yes\") */\n      swap1\n      0x40\n      mstore\n        /* \"dNews_entity.sol\":3084:3118  keccak256(abi.encodePacked(\"Yes\")) */\n      dup1\n      mload\n      swap1\n      0x20\n      add\n      keccak256\n        /* \"dNews_entity.sol\":3074:3078  text */\n      dup2\n        /* \"dNews_entity.sol\":3057:3079  abi.encodePacked(text) */\n      add(0x20, mload(0x40))\n      tag_134\n      swap2\n      swap1\n      jump(tag_135)\n    tag_134:\n      mload(0x40)\n        /* \"--CODEGEN--\":49:53   */\n      0x20\n        /* \"--CODEGEN--\":39:46   */\n      dup2\n        /* \"--CODEGEN--\":30:37   */\n      dup4\n        /* \"--CODEGEN--\":26:47   */\n      sub\n        /* \"--CODEGEN--\":22:54   */\n      sub\n        /* \"--CODEGEN--\":13:20   */\n      dup2\n        /* \"--CODEGEN--\":6:55   */\n      mstore\n        /* \"dNews_entity.sol\":3057:3079  abi.encodePacked(text) */\n      swap1\n      0x40\n      mstore\n        /* \"dNews_entity.sol\":3047:3080  keccak256(abi.encodePacked(text)) */\n      dup1\n      mload\n      swap1\n      0x20\n      add\n      keccak256\n        /* \"dNews_entity.sol\":3047:3118  keccak256(abi.encodePacked(text)) == keccak256(abi.encodePacked(\"Yes\")) */\n      eq\n        /* \"dNews_entity.sol\":3039:3119  require(keccak256(abi.encodePacked(text)) == keccak256(abi.encodePacked(\"Yes\"))) */\n      tag_136\n      jumpi\n        /* \"--CODEGEN--\":12:13   */\n      0x00\n        /* \"--CODEGEN--\":9:10   */\n      dup1\n        /* \"--CODEGEN--\":2:14   */\n      revert\n        /* \"dNews_entity.sol\":3039:3119  require(keccak256(abi.encodePacked(text)) == keccak256(abi.encodePacked(\"Yes\"))) */\n    tag_136:\n        /* \"dNews_entity.sol\":2771:3127  function jourLogin(address jourAddr, address mediaEntity) public view {\r... */\n      pop\n      pop\n      pop\n      pop\n      jump\t// out\n        /* \"dNews_entity.sol\":5649:5744  function getMediasCount() public view returns (uint256) {\r... */\n    tag_41:\n        /* \"dNews_entity.sol\":5696:5703  uint256 */\n      0x00\n        /* \"dNews_entity.sol\":5723:5729  Medias */\n      0x02\n        /* \"dNews_entity.sol\":5723:5736  Medias.length */\n      dup1\n      sload\n      swap1\n      pop\n        /* \"dNews_entity.sol\":5716:5736  return Medias.length */\n      swap1\n      pop\n        /* \"dNews_entity.sol\":5649:5744  function getMediasCount() public view returns (uint256) {\r... */\n      swap1\n      jump\t// out\n        /* \"dNews_entity.sol\":3217:3890  function mediaCert (string memory mediaName, address mediaAddr, string memory repre, address repreAddr, string memory timeperiod, string memory mediacerHash) public MediaCert_give{ // add qualify media to the list\r... */\n    tag_47:\n        /* \"dNews_entity.sol\":1919:1922  NCC */\n      0x00\n      dup1\n      swap1\n      sload\n      swap1\n      0x0100\n      exp\n      swap1\n      div\n      0xffffffffffffffffffffffffffffffffffffffff\n      and\n        /* \"dNews_entity.sol\":1905:1922  msg.sender == NCC */\n      0xffffffffffffffffffffffffffffffffffffffff\n      and\n        /* \"dNews_entity.sol\":1905:1915  msg.sender */\n      caller\n        /* \"dNews_entity.sol\":1905:1922  msg.sender == NCC */\n      0xffffffffffffffffffffffffffffffffffffffff\n      and\n      eq\n        /* \"dNews_entity.sol\":1897:1923  require(msg.sender == NCC) */\n      tag_139\n      jumpi\n        /* \"--CODEGEN--\":12:13   */\n      0x00\n        /* \"--CODEGEN--\":9:10   */\n      dup1\n        /* \"--CODEGEN--\":2:14   */\n      revert\n        /* \"dNews_entity.sol\":1897:1923  require(msg.sender == NCC) */\n    tag_139:\n        /* \"dNews_entity.sol\":3440:3453  nccLogin(NCC) */\n      tag_141\n        /* \"dNews_entity.sol\":3449:3452  NCC */\n      0x00\n      dup1\n      swap1\n      sload\n      swap1\n      0x0100\n      exp\n      swap1\n      div\n      0xffffffffffffffffffffffffffffffffffffffff\n      and\n        /* \"dNews_entity.sol\":3440:3448  nccLogin */\n      tag_91\n        /* \"dNews_entity.sol\":3440:3453  nccLogin(NCC) */\n      jump\t// in\n    tag_141:\n        /* \"dNews_entity.sol\":3485:3489  true */\n      0x01\n        /* \"dNews_entity.sol\":3464:3471  isMedia */\n      0x04\n        /* \"dNews_entity.sol\":3464:3482  isMedia[mediaAddr] */\n      0x00\n        /* \"dNews_entity.sol\":3472:3481  mediaAddr */\n      dup8\n        /* \"dNews_entity.sol\":3464:3482  isMedia[mediaAddr] */\n      0xffffffffffffffffffffffffffffffffffffffff\n      and\n      0xffffffffffffffffffffffffffffffffffffffff\n      and\n      dup2\n      mstore\n      0x20\n      add\n      swap1\n      dup2\n      mstore\n      0x20\n      add\n      0x00\n      keccak256\n      0x00\n        /* \"dNews_entity.sol\":3464:3489  isMedia[mediaAddr] = true */\n      0x0100\n      exp\n      dup2\n      sload\n      dup2\n      0xff\n      mul\n      not\n      and\n      swap1\n      dup4\n      iszero\n      iszero\n      mul\n      or\n      swap1\n      sstore\n      pop\n        /* \"dNews_entity.sol\":3500:3539  mediaCertificate memory qualified_media */\n      tag_142\n      tag_143\n      jump\t// in\n    tag_142:\n        /* \"dNews_entity.sol\":3579:3588  mediaName */\n      dup7\n        /* \"dNews_entity.sol\":3550:3565  qualified_media */\n      dup2\n        /* \"dNews_entity.sol\":3550:3575  qualified_media.medianame */\n      0x00\n      add\n        /* \"dNews_entity.sol\":3550:3588  qualified_media.medianame =  mediaName */\n      dup2\n      swap1\n      mstore\n      pop\n        /* \"dNews_entity.sol\":3628:3637  mediaAddr */\n      dup6\n        /* \"dNews_entity.sol\":3599:3614  qualified_media */\n      dup2\n        /* \"dNews_entity.sol\":3599:3624  qualified_media.mediaAddr */\n      0x20\n      add\n        /* \"dNews_entity.sol\":3599:3637  qualified_media.mediaAddr =  mediaAddr */\n      swap1\n      0xffffffffffffffffffffffffffffffffffffffff\n      and\n      swap1\n      dup2\n      0xffffffffffffffffffffffffffffffffffffffff\n      and\n      dup2\n      mstore\n      pop\n      pop\n        /* \"dNews_entity.sol\":3682:3687  repre */\n      dup5\n        /* \"dNews_entity.sol\":3648:3663  qualified_media */\n      dup2\n        /* \"dNews_entity.sol\":3648:3678  qualified_media.representative */\n      0x40\n      add\n        /* \"dNews_entity.sol\":3648:3687  qualified_media.representative =  repre */\n      dup2\n      swap1\n      mstore\n      pop\n        /* \"dNews_entity.sol\":3727:3736  repreAddr */\n      dup4\n        /* \"dNews_entity.sol\":3698:3713  qualified_media */\n      dup2\n        /* \"dNews_entity.sol\":3698:3723  qualified_media.repreAddr */\n      0x60\n      add\n        /* \"dNews_entity.sol\":3698:3736  qualified_media.repreAddr =  repreAddr */\n      swap1\n      0xffffffffffffffffffffffffffffffffffffffff\n      and\n      swap1\n      dup2\n      0xffffffffffffffffffffffffffffffffffffffff\n      and\n      dup2\n      mstore\n      pop\n      pop\n        /* \"dNews_entity.sol\":3777:3787  timeperiod */\n      dup3\n        /* \"dNews_entity.sol\":3747:3762  qualified_media */\n      dup2\n        /* \"dNews_entity.sol\":3747:3773  qualified_media.timeperiod */\n      0x80\n      add\n        /* \"dNews_entity.sol\":3747:3787  qualified_media.timeperiod =  timeperiod */\n      dup2\n      swap1\n      mstore\n      pop\n        /* \"dNews_entity.sol\":3830:3842  mediacerHash */\n      dup2\n        /* \"dNews_entity.sol\":3798:3813  qualified_media */\n      dup2\n        /* \"dNews_entity.sol\":3798:3826  qualified_media.mediacerHash */\n      0xa0\n      add\n        /* \"dNews_entity.sol\":3798:3842  qualified_media.mediacerHash =  mediacerHash */\n      dup2\n      swap1\n      mstore\n      pop\n        /* \"dNews_entity.sol\":3853:3859  Medias */\n      0x02\n        /* \"dNews_entity.sol\":3865:3880  qualified_media */\n      dup2\n        /* \"dNews_entity.sol\":3853:3881  Medias.push(qualified_media) */\n      swap1\n      dup1\n        /* \"--CODEGEN--\":39:40   */\n      0x01\n        /* \"--CODEGEN--\":33:36   */\n      dup2\n        /* \"--CODEGEN--\":27:37   */\n      sload\n        /* \"--CODEGEN--\":23:41   */\n      add\n        /* \"--CODEGEN--\":57:67   */\n      dup1\n        /* \"--CODEGEN--\":52:55   */\n      dup3\n        /* \"--CODEGEN--\":45:68   */\n      sstore\n        /* \"--CODEGEN--\":79:89   */\n      dup1\n        /* \"--CODEGEN--\":72:89   */\n      swap2\n      pop\n        /* \"--CODEGEN--\":0:93   */\n      pop\n        /* \"dNews_entity.sol\":3853:3881  Medias.push(qualified_media) */\n      0x01\n      swap1\n      sub\n      swap1\n      0x00\n      mstore\n      keccak256(0x00, 0x20)\n      swap1\n      0x06\n      mul\n      add\n      0x00\n      swap1\n      swap2\n      swap1\n      swap2\n      swap1\n      swap2\n      pop\n      0x00\n      dup3\n      add\n      mload\n      dup2\n      0x00\n      add\n      swap1\n      dup1\n      mload\n      swap1\n      0x20\n      add\n      swap1\n      tag_145\n      swap3\n      swap2\n      swap1\n      tag_146\n      jump\t// in\n    tag_145:\n      pop\n      0x20\n      dup3\n      add\n      mload\n      dup2\n      0x01\n      add\n      exp(0x0100, 0x00)\n      dup2\n      sload\n      dup2\n      0xffffffffffffffffffffffffffffffffffffffff\n      mul\n      not\n      and\n      swap1\n      dup4\n      0xffffffffffffffffffffffffffffffffffffffff\n      and\n      mul\n      or\n      swap1\n      sstore\n      pop\n      0x40\n      dup3\n      add\n      mload\n      dup2\n      0x02\n      add\n      swap1\n      dup1\n      mload\n      swap1\n      0x20\n      add\n      swap1\n      tag_147\n      swap3\n      swap2\n      swap1\n      tag_146\n      jump\t// in\n    tag_147:\n      pop\n      0x60\n      dup3\n      add\n      mload\n      dup2\n      0x03\n      add\n      exp(0x0100, 0x00)\n      dup2\n      sload\n      dup2\n      0xffffffffffffffffffffffffffffffffffffffff\n      mul\n      not\n      and\n      swap1\n      dup4\n      0xffffffffffffffffffffffffffffffffffffffff\n      and\n      mul\n      or\n      swap1\n      sstore\n      pop\n      0x80\n      dup3\n      add\n      mload\n      dup2\n      0x04\n      add\n      swap1\n      dup1\n      mload\n      swap1\n      0x20\n      add\n      swap1\n      tag_148\n      swap3\n      swap2\n      swap1\n      tag_146\n      jump\t// in\n    tag_148:\n      pop\n      0xa0\n      dup3\n      add\n      mload\n      dup2\n      0x05\n      add\n      swap1\n      dup1\n      mload\n      swap1\n      0x20\n      add\n      swap1\n      tag_149\n      swap3\n      swap2\n      swap1\n      tag_146\n      jump\t// in\n    tag_149:\n      pop\n      pop\n      pop\n        /* \"dNews_entity.sol\":1930:1931  _ */\n      pop\n        /* \"dNews_entity.sol\":3217:3890  function mediaCert (string memory mediaName, address mediaAddr, string memory repre, address repreAddr, string memory timeperiod, string memory mediacerHash) public MediaCert_give{ // add qualify media to the list\r... */\n      pop\n      pop\n      pop\n      pop\n      pop\n      pop\n      jump\t// out\n        /* \"dNews_entity.sol\":4816:5636  function newsConBookeeping (string memory jourName, address jourAddr, string memory MediaName, address mediaAddr, string memory metadata, bytes32 contHash, uint duedate) public {\r... */\n    tag_51:\n        /* \"dNews_entity.sol\":5032:5036  true */\n      0x01\n        /* \"dNews_entity.sol\":5012:5036  isJour[jourAddr] == true */\n      iszero\n      iszero\n        /* \"dNews_entity.sol\":5012:5018  isJour */\n      0x05\n        /* \"dNews_entity.sol\":5012:5028  isJour[jourAddr] */\n      0x00\n        /* \"dNews_entity.sol\":5019:5027  jourAddr */\n      dup9\n        /* \"dNews_entity.sol\":5012:5028  isJour[jourAddr] */\n      0xffffffffffffffffffffffffffffffffffffffff\n      and\n      0xffffffffffffffffffffffffffffffffffffffff\n      and\n      dup2\n      mstore\n      0x20\n      add\n      swap1\n      dup2\n      mstore\n      0x20\n      add\n      0x00\n      keccak256\n      0x00\n      swap1\n      sload\n      swap1\n      0x0100\n      exp\n      swap1\n      div\n      0xff\n      and\n        /* \"dNews_entity.sol\":5012:5036  isJour[jourAddr] == true */\n      iszero\n      iszero\n      eq\n        /* \"dNews_entity.sol\":5004:5037  require(isJour[jourAddr] == true) */\n      tag_151\n      jumpi\n        /* \"--CODEGEN--\":12:13   */\n      0x00\n        /* \"--CODEGEN--\":9:10   */\n      dup1\n        /* \"--CODEGEN--\":2:14   */\n      revert\n        /* \"dNews_entity.sol\":5004:5037  require(isJour[jourAddr] == true) */\n    tag_151:\n        /* \"dNews_entity.sol\":5070:5109  news_content memory Created_New_Content */\n      tag_152\n      tag_153\n      jump\t// in\n    tag_152:\n        /* \"dNews_entity.sol\":5150:5158  jourName */\n      dup8\n        /* \"dNews_entity.sol\":5120:5139  Created_New_Content */\n      dup2\n        /* \"dNews_entity.sol\":5120:5147  Created_New_Content.ownJour */\n      0x00\n      add\n        /* \"dNews_entity.sol\":5120:5158  Created_New_Content.ownJour = jourName */\n      dup2\n      swap1\n      mstore\n      pop\n        /* \"dNews_entity.sol\":5200:5210  msg.sender */\n      caller\n        /* \"dNews_entity.sol\":5169:5188  Created_New_Content */\n      dup2\n        /* \"dNews_entity.sol\":5169:5197  Created_New_Content.jourAddr */\n      0x20\n      add\n        /* \"dNews_entity.sol\":5169:5210  Created_New_Content.jourAddr = msg.sender */\n      swap1\n      0xffffffffffffffffffffffffffffffffffffffff\n      and\n      swap1\n      dup2\n      0xffffffffffffffffffffffffffffffffffffffff\n      and\n      dup2\n      mstore\n      pop\n      pop\n        /* \"dNews_entity.sol\":5252:5261  MediaName */\n      dup6\n        /* \"dNews_entity.sol\":5221:5240  Created_New_Content */\n      dup2\n        /* \"dNews_entity.sol\":5221:5249  Created_New_Content.ownMedia */\n      0x40\n      add\n        /* \"dNews_entity.sol\":5221:5261  Created_New_Content.ownMedia = MediaName */\n      dup2\n      swap1\n      mstore\n      pop\n        /* \"dNews_entity.sol\":5304:5313  mediaAddr */\n      dup5\n        /* \"dNews_entity.sol\":5272:5291  Created_New_Content */\n      dup2\n        /* \"dNews_entity.sol\":5272:5301  Created_New_Content.mediaAddr */\n      0x60\n      add\n        /* \"dNews_entity.sol\":5272:5313  Created_New_Content.mediaAddr = mediaAddr */\n      swap1\n      0xffffffffffffffffffffffffffffffffffffffff\n      and\n      swap1\n      dup2\n      0xffffffffffffffffffffffffffffffffffffffff\n      and\n      dup2\n      mstore\n      pop\n      pop\n        /* \"dNews_entity.sol\":5355:5363  metadata */\n      dup4\n        /* \"dNews_entity.sol\":5324:5343  Created_New_Content */\n      dup2\n        /* \"dNews_entity.sol\":5324:5352  Created_New_Content.metadata */\n      0x80\n      add\n        /* \"dNews_entity.sol\":5324:5363  Created_New_Content.metadata = metadata */\n      dup2\n      swap1\n      mstore\n      pop\n        /* \"dNews_entity.sol\":5406:5414  contHash */\n      dup3\n        /* \"dNews_entity.sol\":5374:5393  Created_New_Content */\n      dup2\n        /* \"dNews_entity.sol\":5374:5403  Created_New_Content.IPFS_Hash */\n      0xa0\n      add\n        /* \"dNews_entity.sol\":5374:5414  Created_New_Content.IPFS_Hash = contHash */\n      dup2\n      dup2\n      mstore\n      pop\n      pop\n        /* \"dNews_entity.sol\":5457:5464  duedate */\n      dup2\n        /* \"dNews_entity.sol\":5425:5444  Created_New_Content */\n      dup2\n        /* \"dNews_entity.sol\":5425:5454  Created_New_Content.timestamp */\n      0xc0\n      add\n        /* \"dNews_entity.sol\":5425:5464  Created_New_Content.timestamp = duedate */\n      dup2\n      dup2\n      mstore\n      pop\n      pop\n        /* \"dNews_entity.sol\":5531:5532  1 */\n      0x01\n        /* \"dNews_entity.sol\":5503:5522  Created_New_Content */\n      dup2\n        /* \"dNews_entity.sol\":5503:5528  Created_New_Content.index */\n      0xe0\n      add\n      mload\n        /* \"dNews_entity.sol\":5503:5532  Created_New_Content.index + 1 */\n      add\n        /* \"dNews_entity.sol\":5475:5494  Created_New_Content */\n      dup2\n        /* \"dNews_entity.sol\":5475:5500  Created_New_Content.index */\n      0xe0\n      add\n        /* \"dNews_entity.sol\":5475:5532  Created_New_Content.index = Created_New_Content.index + 1 */\n      dup2\n      dup2\n      mstore\n      pop\n      pop\n        /* \"dNews_entity.sol\":5608:5627  Created_New_Content */\n      dup1\n        /* \"dNews_entity.sol\":5549:5557  jourNews */\n      0x06\n        /* \"dNews_entity.sol\":5549:5568  jourNews[mediaAddr] */\n      0x00\n        /* \"dNews_entity.sol\":5558:5567  mediaAddr */\n      dup8\n        /* \"dNews_entity.sol\":5549:5568  jourNews[mediaAddr] */\n      0xffffffffffffffffffffffffffffffffffffffff\n      and\n      0xffffffffffffffffffffffffffffffffffffffff\n      and\n      dup2\n      mstore\n      0x20\n      add\n      swap1\n      dup2\n      mstore\n      0x20\n      add\n      0x00\n      keccak256\n        /* \"dNews_entity.sol\":5549:5578  jourNews[mediaAddr][jourAddr] */\n      0x00\n        /* \"dNews_entity.sol\":5569:5577  jourAddr */\n      dup10\n        /* \"dNews_entity.sol\":5549:5578  jourNews[mediaAddr][jourAddr] */\n      0xffffffffffffffffffffffffffffffffffffffff\n      and\n      0xffffffffffffffffffffffffffffffffffffffff\n      and\n      dup2\n      mstore\n      0x20\n      add\n      swap1\n      dup2\n      mstore\n      0x20\n      add\n      0x00\n      keccak256\n        /* \"dNews_entity.sol\":5579:5598  Created_New_Content */\n      dup3\n        /* \"dNews_entity.sol\":5579:5604  Created_New_Content.index */\n      0xe0\n      add\n      mload\n        /* \"dNews_entity.sol\":5549:5605  jourNews[mediaAddr][jourAddr][Created_New_Content.index] */\n      dup2\n      sload\n      dup2\n      lt\n      tag_154\n      jumpi\n      invalid\n    tag_154:\n      swap1\n      0x00\n      mstore\n      keccak256(0x00, 0x20)\n      swap1\n      0x08\n      mul\n      add\n        /* \"dNews_entity.sol\":5549:5627  jourNews[mediaAddr][jourAddr][Created_New_Content.index] = Created_New_Content */\n      0x00\n      dup3\n      add\n      mload\n      dup2\n      0x00\n      add\n      swap1\n      dup1\n      mload\n      swap1\n      0x20\n      add\n      swap1\n      tag_156\n      swap3\n      swap2\n      swap1\n      tag_146\n      jump\t// in\n    tag_156:\n      pop\n      0x20\n      dup3\n      add\n      mload\n      dup2\n      0x01\n      add\n      exp(0x0100, 0x00)\n      dup2\n      sload\n      dup2\n      0xffffffffffffffffffffffffffffffffffffffff\n      mul\n      not\n      and\n      swap1\n      dup4\n      0xffffffffffffffffffffffffffffffffffffffff\n      and\n      mul\n      or\n      swap1\n      sstore\n      pop\n      0x40\n      dup3\n      add\n      mload\n      dup2\n      0x02\n      add\n      swap1\n      dup1\n      mload\n      swap1\n      0x20\n      add\n      swap1\n      tag_157\n      swap3\n      swap2\n      swap1\n      tag_146\n      jump\t// in\n    tag_157:\n      pop\n      0x60\n      dup3\n      add\n      mload\n      dup2\n      0x03\n      add\n      exp(0x0100, 0x00)\n      dup2\n      sload\n      dup2\n      0xffffffffffffffffffffffffffffffffffffffff\n      mul\n      not\n      and\n      swap1\n      dup4\n      0xffffffffffffffffffffffffffffffffffffffff\n      and\n      mul\n      or\n      swap1\n      sstore\n      pop\n      0x80\n      dup3\n      add\n      mload\n      dup2\n      0x04\n      add\n      swap1\n      dup1\n      mload\n      swap1\n      0x20\n      add\n      swap1\n      tag_158\n      swap3\n      swap2\n      swap1\n      tag_146\n      jump\t// in\n    tag_158:\n      pop\n      0xa0\n      dup3\n      add\n      mload\n      dup2\n      0x05\n      add\n      sstore\n      0xc0\n      dup3\n      add\n      mload\n      dup2\n      0x06\n      add\n      sstore\n      0xe0\n      dup3\n      add\n      mload\n      dup2\n      0x07\n      add\n      sstore\n      swap1\n      pop\n      pop\n        /* \"dNews_entity.sol\":4816:5636  function newsConBookeeping (string memory jourName, address jourAddr, string memory MediaName, address mediaAddr, string memory metadata, bytes32 contHash, uint duedate) public {\r... */\n      pop\n      pop\n      pop\n      pop\n      pop\n      pop\n      pop\n      pop\n      jump\t// out\n        /* \"dNews_entity.sol\":1664:1734  mapping(address => mapping(address => news_content[])) public jourNews */\n    tag_54:\n      mstore(0x20, 0x06)\n      dup3\n      0x00\n      mstore\n      mstore(0x20, keccak256(0x00, 0x40))\n      dup2\n      0x00\n      mstore\n      keccak256(0x00, 0x40)\n      dup2\n      dup2\n      sload\n      dup2\n      lt\n      tag_159\n      jumpi\n      invalid\n    tag_159:\n      swap1\n      0x00\n      mstore\n      keccak256(0x00, 0x20)\n      swap1\n      0x08\n      mul\n      add\n      0x00\n      swap3\n      pop\n      swap3\n      pop\n      pop\n      pop\n      dup1\n      0x00\n      add\n      dup1\n      sload\n      0x01\n      dup2\n      0x01\n      and\n      iszero\n      0x0100\n      mul\n      sub\n      and\n      0x02\n      swap1\n      div\n      dup1\n      0x1f\n      add\n      0x20\n      dup1\n      swap2\n      div\n      mul\n      0x20\n      add\n      mload(0x40)\n      swap1\n      dup2\n      add\n      0x40\n      mstore\n      dup1\n      swap3\n      swap2\n      swap1\n      dup2\n      dup2\n      mstore\n      0x20\n      add\n      dup3\n      dup1\n      sload\n      0x01\n      dup2\n      0x01\n      and\n      iszero\n      0x0100\n      mul\n      sub\n      and\n      0x02\n      swap1\n      div\n      dup1\n      iszero\n      tag_161\n      jumpi\n      dup1\n      0x1f\n      lt\n      tag_162\n      jumpi\n      0x0100\n      dup1\n      dup4\n      sload\n      div\n      mul\n      dup4\n      mstore\n      swap2\n      0x20\n      add\n      swap2\n      jump(tag_161)\n    tag_162:\n      dup3\n      add\n      swap2\n      swap1\n      0x00\n      mstore\n      keccak256(0x00, 0x20)\n      swap1\n    tag_163:\n      dup2\n      sload\n      dup2\n      mstore\n      swap1\n      0x01\n      add\n      swap1\n      0x20\n      add\n      dup1\n      dup4\n      gt\n      tag_163\n      jumpi\n      dup3\n      swap1\n      sub\n      0x1f\n      and\n      dup3\n      add\n      swap2\n    tag_161:\n      pop\n      pop\n      pop\n      pop\n      pop\n      swap1\n      dup1\n      0x01\n      add\n      0x00\n      swap1\n      sload\n      swap1\n      0x0100\n      exp\n      swap1\n      div\n      0xffffffffffffffffffffffffffffffffffffffff\n      and\n      swap1\n      dup1\n      0x02\n      add\n      dup1\n      sload\n      0x01\n      dup2\n      0x01\n      and\n      iszero\n      0x0100\n      mul\n      sub\n      and\n      0x02\n      swap1\n      div\n      dup1\n      0x1f\n      add\n      0x20\n      dup1\n      swap2\n      div\n      mul\n      0x20\n      add\n      mload(0x40)\n      swap1\n      dup2\n      add\n      0x40\n      mstore\n      dup1\n      swap3\n      swap2\n      swap1\n      dup2\n      dup2\n      mstore\n      0x20\n      add\n      dup3\n      dup1\n      sload\n      0x01\n      dup2\n      0x01\n      and\n      iszero\n      0x0100\n      mul\n      sub\n      and\n      0x02\n      swap1\n      div\n      dup1\n      iszero\n      tag_164\n      jumpi\n      dup1\n      0x1f\n      lt\n      tag_165\n      jumpi\n      0x0100\n      dup1\n      dup4\n      sload\n      div\n      mul\n      dup4\n      mstore\n      swap2\n      0x20\n      add\n      swap2\n      jump(tag_164)\n    tag_165:\n      dup3\n      add\n      swap2\n      swap1\n      0x00\n      mstore\n      keccak256(0x00, 0x20)\n      swap1\n    tag_166:\n      dup2\n      sload\n      dup2\n      mstore\n      swap1\n      0x01\n      add\n      swap1\n      0x20\n      add\n      dup1\n      dup4\n      gt\n      tag_166\n      jumpi\n      dup3\n      swap1\n      sub\n      0x1f\n      and\n      dup3\n      add\n      swap2\n    tag_164:\n      pop\n      pop\n      pop\n      pop\n      pop\n      swap1\n      dup1\n      0x03\n      add\n      0x00\n      swap1\n      sload\n      swap1\n      0x0100\n      exp\n      swap1\n      div\n      0xffffffffffffffffffffffffffffffffffffffff\n      and\n      swap1\n      dup1\n      0x04\n      add\n      dup1\n      sload\n      0x01\n      dup2\n      0x01\n      and\n      iszero\n      0x0100\n      mul\n      sub\n      and\n      0x02\n      swap1\n      div\n      dup1\n      0x1f\n      add\n      0x20\n      dup1\n      swap2\n      div\n      mul\n      0x20\n      add\n      mload(0x40)\n      swap1\n      dup2\n      add\n      0x40\n      mstore\n      dup1\n      swap3\n      swap2\n      swap1\n      dup2\n      dup2\n      mstore\n      0x20\n      add\n      dup3\n      dup1\n      sload\n      0x01\n      dup2\n      0x01\n      and\n      iszero\n      0x0100\n      mul\n      sub\n      and\n      0x02\n      swap1\n      div\n      dup1\n      iszero\n      tag_167\n      jumpi\n      dup1\n      0x1f\n      lt\n      tag_168\n      jumpi\n      0x0100\n      dup1\n      dup4\n      sload\n      div\n      mul\n      dup4\n      mstore\n      swap2\n      0x20\n      add\n      swap2\n      jump(tag_167)\n    tag_168:\n      dup3\n      add\n      swap2\n      swap1\n      0x00\n      mstore\n      keccak256(0x00, 0x20)\n      swap1\n    tag_169:\n      dup2\n      sload\n      dup2\n      mstore\n      swap1\n      0x01\n      add\n      swap1\n      0x20\n      add\n      dup1\n      dup4\n      gt\n      tag_169\n      jumpi\n      dup3\n      swap1\n      sub\n      0x1f\n      and\n      dup3\n      add\n      swap2\n    tag_167:\n      pop\n      pop\n      pop\n      pop\n      pop\n      swap1\n      dup1\n      0x05\n      add\n      sload\n      swap1\n      dup1\n      0x06\n      add\n      sload\n      swap1\n      dup1\n      0x07\n      add\n      sload\n      swap1\n      pop\n      dup9\n      jump\t// out\n        /* \"dNews_entity.sol\":7848:8617  function GrantedPermission(bool result, address editor, uint index) public {\r... */\n    tag_60:\n        /* \"dNews_entity.sol\":7934:7942  uint num */\n      0x00\n        /* \"dNews_entity.sol\":7945:7956  indexlength */\n      0x0c\n        /* \"dNews_entity.sol\":7945:7968  indexlength[msg.sender] */\n      0x00\n        /* \"dNews_entity.sol\":7957:7967  msg.sender */\n      caller\n        /* \"dNews_entity.sol\":7945:7968  indexlength[msg.sender] */\n      0xffffffffffffffffffffffffffffffffffffffff\n      and\n      0xffffffffffffffffffffffffffffffffffffffff\n      and\n      dup2\n      mstore\n      0x20\n      add\n      swap1\n      dup2\n      mstore\n      0x20\n      add\n      0x00\n      keccak256\n        /* \"dNews_entity.sol\":7945:7975  indexlength[msg.sender][index] */\n      0x00\n        /* \"dNews_entity.sol\":7969:7974  index */\n      dup4\n        /* \"dNews_entity.sol\":7945:7975  indexlength[msg.sender][index] */\n      dup2\n      mstore\n      0x20\n      add\n      swap1\n      dup2\n      mstore\n      0x20\n      add\n      0x00\n      keccak256\n      sload\n        /* \"dNews_entity.sol\":7934:7975  uint num = indexlength[msg.sender][index] */\n      swap1\n      pop\n        /* \"dNews_entity.sol\":8026:8036  msg.sender */\n      caller\n        /* \"dNews_entity.sol\":7994:8036  Requests[msg.sender][num].EA != msg.sender */\n      0xffffffffffffffffffffffffffffffffffffffff\n      and\n        /* \"dNews_entity.sol\":7994:8002  Requests */\n      0x08\n        /* \"dNews_entity.sol\":7994:8014  Requests[msg.sender] */\n      0x00\n        /* \"dNews_entity.sol\":8003:8013  msg.sender */\n      caller\n        /* \"dNews_entity.sol\":7994:8014  Requests[msg.sender] */\n      0xffffffffffffffffffffffffffffffffffffffff\n      and\n      0xffffffffffffffffffffffffffffffffffffffff\n      and\n      dup2\n      mstore\n      0x20\n      add\n      swap1\n      dup2\n      mstore\n      0x20\n      add\n      0x00\n      keccak256\n        /* \"dNews_entity.sol\":8015:8018  num */\n      dup3\n        /* \"dNews_entity.sol\":7994:8019  Requests[msg.sender][num] */\n      dup2\n      sload\n      dup2\n      lt\n      tag_171\n      jumpi\n      invalid\n    tag_171:\n      swap1\n      0x00\n      mstore\n      keccak256(0x00, 0x20)\n      swap1\n      0x04\n      mul\n      add\n        /* \"dNews_entity.sol\":7994:8022  Requests[msg.sender][num].EA */\n      0x00\n      add\n      0x01\n      swap1\n      sload\n      swap1\n      0x0100\n      exp\n      swap1\n      div\n      0xffffffffffffffffffffffffffffffffffffffff\n      and\n        /* \"dNews_entity.sol\":7994:8036  Requests[msg.sender][num].EA != msg.sender */\n      0xffffffffffffffffffffffffffffffffffffffff\n      and\n      eq\n      iszero\n        /* \"dNews_entity.sol\":7986:8037  require(Requests[msg.sender][num].EA != msg.sender) */\n      tag_173\n      jumpi\n        /* \"--CODEGEN--\":12:13   */\n      0x00\n        /* \"--CODEGEN--\":9:10   */\n      dup1\n        /* \"--CODEGEN--\":2:14   */\n      revert\n        /* \"dNews_entity.sol\":7986:8037  require(Requests[msg.sender][num].EA != msg.sender) */\n    tag_173:\n        /* \"dNews_entity.sol\":8091:8113  ownerState.SendRequest */\n      0x00\n        /* \"dNews_entity.sol\":8056:8113  Requests[msg.sender][num].state == ownerState.SendRequest */\n      0x05\n      dup2\n      gt\n      iszero\n      tag_174\n      jumpi\n      invalid\n    tag_174:\n        /* \"dNews_entity.sol\":8056:8064  Requests */\n      0x08\n        /* \"dNews_entity.sol\":8056:8076  Requests[msg.sender] */\n      0x00\n        /* \"dNews_entity.sol\":8065:8075  msg.sender */\n      caller\n        /* \"dNews_entity.sol\":8056:8076  Requests[msg.sender] */\n      0xffffffffffffffffffffffffffffffffffffffff\n      and\n      0xffffffffffffffffffffffffffffffffffffffff\n      and\n      dup2\n      mstore\n      0x20\n      add\n      swap1\n      dup2\n      mstore\n      0x20\n      add\n      0x00\n      keccak256\n        /* \"dNews_entity.sol\":8077:8080  num */\n      dup3\n        /* \"dNews_entity.sol\":8056:8081  Requests[msg.sender][num] */\n      dup2\n      sload\n      dup2\n      lt\n      tag_175\n      jumpi\n      invalid\n    tag_175:\n      swap1\n      0x00\n      mstore\n      keccak256(0x00, 0x20)\n      swap1\n      0x04\n      mul\n      add\n        /* \"dNews_entity.sol\":8056:8087  Requests[msg.sender][num].state */\n      0x00\n      add\n      0x00\n      swap1\n      sload\n      swap1\n      0x0100\n      exp\n      swap1\n      div\n      0xff\n      and\n        /* \"dNews_entity.sol\":8056:8113  Requests[msg.sender][num].state == ownerState.SendRequest */\n      0x05\n      dup2\n      gt\n      iszero\n      tag_177\n      jumpi\n      invalid\n    tag_177:\n      eq\n        /* \"dNews_entity.sol\":8048:8114  require(Requests[msg.sender][num].state == ownerState.SendRequest) */\n      tag_178\n      jumpi\n        /* \"--CODEGEN--\":12:13   */\n      0x00\n        /* \"--CODEGEN--\":9:10   */\n      dup1\n        /* \"--CODEGEN--\":2:14   */\n      revert\n        /* \"dNews_entity.sol\":8048:8114  require(Requests[msg.sender][num].state == ownerState.SendRequest) */\n    tag_178:\n        /* \"dNews_entity.sol\":8128:8134  result */\n      dup4\n        /* \"dNews_entity.sol\":8125:8610  if(result) {\r... */\n      iszero\n      tag_179\n      jumpi\n        /* \"dNews_entity.sol\":8185:8213  ownerState.GrantedPermission */\n      0x01\n        /* \"dNews_entity.sol\":8151:8159  Requests */\n      0x08\n        /* \"dNews_entity.sol\":8151:8171  Requests[msg.sender] */\n      0x00\n        /* \"dNews_entity.sol\":8160:8170  msg.sender */\n      caller\n        /* \"dNews_entity.sol\":8151:8171  Requests[msg.sender] */\n      0xffffffffffffffffffffffffffffffffffffffff\n      and\n      0xffffffffffffffffffffffffffffffffffffffff\n      and\n      dup2\n      mstore\n      0x20\n      add\n      swap1\n      dup2\n      mstore\n      0x20\n      add\n      0x00\n      keccak256\n        /* \"dNews_entity.sol\":8172:8175  num */\n      dup3\n        /* \"dNews_entity.sol\":8151:8176  Requests[msg.sender][num] */\n      dup2\n      sload\n      dup2\n      lt\n      tag_180\n      jumpi\n      invalid\n    tag_180:\n      swap1\n      0x00\n      mstore\n      keccak256(0x00, 0x20)\n      swap1\n      0x04\n      mul\n      add\n        /* \"dNews_entity.sol\":8151:8182  Requests[msg.sender][num].state */\n      0x00\n      add\n      0x00\n        /* \"dNews_entity.sol\":8151:8213  Requests[msg.sender][num].state = ownerState.GrantedPermission */\n      0x0100\n      exp\n      dup2\n      sload\n      dup2\n      0xff\n      mul\n      not\n      and\n      swap1\n      dup4\n      0x05\n      dup2\n      gt\n      iszero\n      tag_182\n      jumpi\n      invalid\n    tag_182:\n      mul\n      or\n      swap1\n      sstore\n      pop\n        /* \"dNews_entity.sol\":8263:8267  true */\n      0x01\n        /* \"dNews_entity.sol\":8228:8236  Requests */\n      0x08\n        /* \"dNews_entity.sol\":8228:8248  Requests[msg.sender] */\n      0x00\n        /* \"dNews_entity.sol\":8237:8247  msg.sender */\n      caller\n        /* \"dNews_entity.sol\":8228:8248  Requests[msg.sender] */\n      0xffffffffffffffffffffffffffffffffffffffff\n      and\n      0xffffffffffffffffffffffffffffffffffffffff\n      and\n      dup2\n      mstore\n      0x20\n      add\n      swap1\n      dup2\n      mstore\n      0x20\n      add\n      0x00\n      keccak256\n        /* \"dNews_entity.sol\":8249:8252  num */\n      dup3\n        /* \"dNews_entity.sol\":8228:8253  Requests[msg.sender][num] */\n      dup2\n      sload\n      dup2\n      lt\n      tag_183\n      jumpi\n      invalid\n    tag_183:\n      swap1\n      0x00\n      mstore\n      keccak256(0x00, 0x20)\n      swap1\n      0x04\n      mul\n      add\n        /* \"dNews_entity.sol\":8228:8260  Requests[msg.sender][num].result */\n      0x03\n      add\n      0x00\n        /* \"dNews_entity.sol\":8228:8267  Requests[msg.sender][num].result = true */\n      0x0100\n      exp\n      dup2\n      sload\n      dup2\n      0xff\n      mul\n      not\n      and\n      swap1\n      dup4\n      iszero\n      iszero\n      mul\n      or\n      swap1\n      sstore\n      pop\n        /* \"dNews_entity.sol\":8287:8363  PermissionGranted(\"Permission has already been Granted to address \", editor) */\n      0x30f499dee5aca26bf88e6932509f2693b637e648ec36ac97034db8869f118639\n        /* \"dNews_entity.sol\":8356:8362  editor */\n      dup4\n        /* \"dNews_entity.sol\":8287:8363  PermissionGranted(\"Permission has already been Granted to address \", editor) */\n      mload(0x40)\n      tag_185\n      swap2\n      swap1\n      jump(tag_186)\n    tag_185:\n      mload(0x40)\n      dup1\n      swap2\n      sub\n      swap1\n      log1\n        /* \"dNews_entity.sol\":8125:8610  if(result) {\r... */\n      jump(tag_187)\n    tag_179:\n        /* \"dNews_entity.sol\":8440:8467  ownerState.DeniedPermission */\n      0x02\n        /* \"dNews_entity.sol\":8406:8414  Requests */\n      0x08\n        /* \"dNews_entity.sol\":8406:8426  Requests[msg.sender] */\n      0x00\n        /* \"dNews_entity.sol\":8415:8425  msg.sender */\n      caller\n        /* \"dNews_entity.sol\":8406:8426  Requests[msg.sender] */\n      0xffffffffffffffffffffffffffffffffffffffff\n      and\n      0xffffffffffffffffffffffffffffffffffffffff\n      and\n      dup2\n      mstore\n      0x20\n      add\n      swap1\n      dup2\n      mstore\n      0x20\n      add\n      0x00\n      keccak256\n        /* \"dNews_entity.sol\":8427:8430  num */\n      dup3\n        /* \"dNews_entity.sol\":8406:8431  Requests[msg.sender][num] */\n      dup2\n      sload\n      dup2\n      lt\n      tag_188\n      jumpi\n      invalid\n    tag_188:\n      swap1\n      0x00\n      mstore\n      keccak256(0x00, 0x20)\n      swap1\n      0x04\n      mul\n      add\n        /* \"dNews_entity.sol\":8406:8437  Requests[msg.sender][num].state */\n      0x00\n      add\n      0x00\n        /* \"dNews_entity.sol\":8406:8467  Requests[msg.sender][num].state = ownerState.DeniedPermission */\n      0x0100\n      exp\n      dup2\n      sload\n      dup2\n      0xff\n      mul\n      not\n      and\n      swap1\n      dup4\n      0x05\n      dup2\n      gt\n      iszero\n      tag_190\n      jumpi\n      invalid\n    tag_190:\n      mul\n      or\n      swap1\n      sstore\n      pop\n        /* \"dNews_entity.sol\":8517:8522  false */\n      0x00\n        /* \"dNews_entity.sol\":8482:8490  Requests */\n      0x08\n        /* \"dNews_entity.sol\":8482:8502  Requests[msg.sender] */\n      0x00\n        /* \"dNews_entity.sol\":8491:8501  msg.sender */\n      caller\n        /* \"dNews_entity.sol\":8482:8502  Requests[msg.sender] */\n      0xffffffffffffffffffffffffffffffffffffffff\n      and\n      0xffffffffffffffffffffffffffffffffffffffff\n      and\n      dup2\n      mstore\n      0x20\n      add\n      swap1\n      dup2\n      mstore\n      0x20\n      add\n      0x00\n      keccak256\n        /* \"dNews_entity.sol\":8503:8506  num */\n      dup3\n        /* \"dNews_entity.sol\":8482:8507  Requests[msg.sender][num] */\n      dup2\n      sload\n      dup2\n      lt\n      tag_191\n      jumpi\n      invalid\n    tag_191:\n      swap1\n      0x00\n      mstore\n      keccak256(0x00, 0x20)\n      swap1\n      0x04\n      mul\n      add\n        /* \"dNews_entity.sol\":8482:8514  Requests[msg.sender][num].result */\n      0x03\n      add\n      0x00\n        /* \"dNews_entity.sol\":8482:8522  Requests[msg.sender][num].result = false */\n      0x0100\n      exp\n      dup2\n      sload\n      dup2\n      0xff\n      mul\n      not\n      and\n      swap1\n      dup4\n      iszero\n      iszero\n      mul\n      or\n      swap1\n      sstore\n      pop\n        /* \"dNews_entity.sol\":8542:8598  PermissionDenied(\"Permission Denied to address\", editor) */\n      0xb72d3d0ddac6222a8090aba8a89a5f33ea480ca5e3201dea0f31f5da8203f249\n        /* \"dNews_entity.sol\":8591:8597  editor */\n      dup4\n        /* \"dNews_entity.sol\":8542:8598  PermissionDenied(\"Permission Denied to address\", editor) */\n      mload(0x40)\n      tag_193\n      swap2\n      swap1\n      jump(tag_194)\n    tag_193:\n      mload(0x40)\n      dup1\n      swap2\n      sub\n      swap1\n      log1\n        /* \"dNews_entity.sol\":8125:8610  if(result) {\r... */\n    tag_187:\n        /* \"dNews_entity.sol\":7848:8617  function GrantedPermission(bool result, address editor, uint index) public {\r... */\n      pop\n      pop\n      pop\n      pop\n      jump\t// out\n        /* \"dNews_entity.sol\":5767:6127  function retrieveNewsContents(bytes32 news_validation_hash, address jourAddr, address mediaAddr, uint index) public view returns (string memory) {\r... */\n    tag_64:\n        /* \"dNews_entity.sol\":5897:5910  string memory */\n      0x60\n        /* \"dNews_entity.sol\":6007:6015  jourNews */\n      0x06\n        /* \"dNews_entity.sol\":6007:6026  jourNews[mediaAddr] */\n      0x00\n        /* \"dNews_entity.sol\":6016:6025  mediaAddr */\n      dup5\n        /* \"dNews_entity.sol\":6007:6026  jourNews[mediaAddr] */\n      0xffffffffffffffffffffffffffffffffffffffff\n      and\n      0xffffffffffffffffffffffffffffffffffffffff\n      and\n      dup2\n      mstore\n      0x20\n      add\n      swap1\n      dup2\n      mstore\n      0x20\n      add\n      0x00\n      keccak256\n        /* \"dNews_entity.sol\":6007:6036  jourNews[mediaAddr][jourAddr] */\n      0x00\n        /* \"dNews_entity.sol\":6027:6035  jourAddr */\n      dup6\n        /* \"dNews_entity.sol\":6007:6036  jourNews[mediaAddr][jourAddr] */\n      0xffffffffffffffffffffffffffffffffffffffff\n      and\n      0xffffffffffffffffffffffffffffffffffffffff\n      and\n      dup2\n      mstore\n      0x20\n      add\n      swap1\n      dup2\n      mstore\n      0x20\n      add\n      0x00\n      keccak256\n        /* \"dNews_entity.sol\":6037:6042  index */\n      dup3\n        /* \"dNews_entity.sol\":6007:6043  jourNews[mediaAddr][jourAddr][index] */\n      dup2\n      sload\n      dup2\n      lt\n      tag_196\n      jumpi\n      invalid\n    tag_196:\n      swap1\n      0x00\n      mstore\n      keccak256(0x00, 0x20)\n      swap1\n      0x08\n      mul\n      add\n        /* \"dNews_entity.sol\":6007:6053  jourNews[mediaAddr][jourAddr][index].IPFS_Hash */\n      0x05\n      add\n      sload\n        /* \"dNews_entity.sol\":5990:6054  abi.encodePacked(jourNews[mediaAddr][jourAddr][index].IPFS_Hash) */\n      add(0x20, mload(0x40))\n      tag_198\n      swap2\n      swap1\n      jump(tag_199)\n    tag_198:\n      mload(0x40)\n        /* \"--CODEGEN--\":49:53   */\n      0x20\n        /* \"--CODEGEN--\":39:46   */\n      dup2\n        /* \"--CODEGEN--\":30:37   */\n      dup4\n        /* \"--CODEGEN--\":26:47   */\n      sub\n        /* \"--CODEGEN--\":22:54   */\n      sub\n        /* \"--CODEGEN--\":13:20   */\n      dup2\n        /* \"--CODEGEN--\":6:55   */\n      mstore\n        /* \"dNews_entity.sol\":5990:6054  abi.encodePacked(jourNews[mediaAddr][jourAddr][index].IPFS_Hash) */\n      swap1\n      0x40\n      mstore\n        /* \"dNews_entity.sol\":5980:6055  keccak256(abi.encodePacked(jourNews[mediaAddr][jourAddr][index].IPFS_Hash)) */\n      dup1\n      mload\n      swap1\n      0x20\n      add\n      keccak256\n        /* \"dNews_entity.sol\":5954:5974  news_validation_hash */\n      dup6\n        /* \"dNews_entity.sol\":5937:5975  abi.encodePacked(news_validation_hash) */\n      add(0x20, mload(0x40))\n      tag_200\n      swap2\n      swap1\n      jump(tag_199)\n    tag_200:\n      mload(0x40)\n        /* \"--CODEGEN--\":49:53   */\n      0x20\n        /* \"--CODEGEN--\":39:46   */\n      dup2\n        /* \"--CODEGEN--\":30:37   */\n      dup4\n        /* \"--CODEGEN--\":26:47   */\n      sub\n        /* \"--CODEGEN--\":22:54   */\n      sub\n        /* \"--CODEGEN--\":13:20   */\n      dup2\n        /* \"--CODEGEN--\":6:55   */\n      mstore\n        /* \"dNews_entity.sol\":5937:5975  abi.encodePacked(news_validation_hash) */\n      swap1\n      0x40\n      mstore\n        /* \"dNews_entity.sol\":5927:5976  keccak256(abi.encodePacked(news_validation_hash)) */\n      dup1\n      mload\n      swap1\n      0x20\n      add\n      keccak256\n        /* \"dNews_entity.sol\":5927:6055  keccak256(abi.encodePacked(news_validation_hash)) == keccak256(abi.encodePacked(jourNews[mediaAddr][jourAddr][index].IPFS_Hash)) */\n      eq\n        /* \"dNews_entity.sol\":5923:6119  if (keccak256(abi.encodePacked(news_validation_hash)) == keccak256(abi.encodePacked(jourNews[mediaAddr][jourAddr][index].IPFS_Hash)))\r... */\n      iszero\n      tag_201\n      jumpi\n        /* \"dNews_entity.sol\":6070:6083  return 'true' */\n      mload(0x40)\n      dup1\n      0x40\n      add\n      0x40\n      mstore\n      dup1\n      0x04\n      dup2\n      mstore\n      0x20\n      add\n      0x7472756500000000000000000000000000000000000000000000000000000000\n      dup2\n      mstore\n      pop\n      swap1\n      pop\n      jump(tag_195)\n        /* \"dNews_entity.sol\":5923:6119  if (keccak256(abi.encodePacked(news_validation_hash)) == keccak256(abi.encodePacked(jourNews[mediaAddr][jourAddr][index].IPFS_Hash)))\r... */\n    tag_201:\n        /* \"dNews_entity.sol\":6099:6119  return 'almost fake' */\n      mload(0x40)\n      dup1\n      0x40\n      add\n      0x40\n      mstore\n      dup1\n      0x0b\n      dup2\n      mstore\n      0x20\n      add\n      0x616c6d6f73742066616b65000000000000000000000000000000000000000000\n      dup2\n      mstore\n      pop\n      swap1\n      pop\n        /* \"dNews_entity.sol\":5767:6127  function retrieveNewsContents(bytes32 news_validation_hash, address jourAddr, address mediaAddr, uint index) public view returns (string memory) {\r... */\n    tag_195:\n      swap5\n      swap4\n      pop\n      pop\n      pop\n      pop\n      jump\t// out\n        /* \"dNews_entity.sol\":7355:7822  function requestPermission(address owner, uint index)public {\r... */\n    tag_70:\n        /* \"dNews_entity.sol\":7443:7453  msg.sender */\n      caller\n        /* \"dNews_entity.sol\":7434:7453  owner != msg.sender */\n      0xffffffffffffffffffffffffffffffffffffffff\n      and\n        /* \"dNews_entity.sol\":7434:7439  owner */\n      dup3\n        /* \"dNews_entity.sol\":7434:7453  owner != msg.sender */\n      0xffffffffffffffffffffffffffffffffffffffff\n      and\n      eq\n      iszero\n        /* \"dNews_entity.sol\":7426:7454  require(owner != msg.sender) */\n      tag_204\n      jumpi\n        /* \"--CODEGEN--\":12:13   */\n      0x00\n        /* \"--CODEGEN--\":9:10   */\n      dup1\n        /* \"--CODEGEN--\":2:14   */\n      revert\n        /* \"dNews_entity.sol\":7426:7454  require(owner != msg.sender) */\n    tag_204:\n        /* \"dNews_entity.sol\":7470:7508  ArtistRequestingPermission(msg.sender) */\n      0x85ace08f038481adc2bfd0f855a5103eed84d76d1889e2837c00a5f0b64dd50b\n        /* \"dNews_entity.sol\":7497:7507  msg.sender */\n      caller\n        /* \"dNews_entity.sol\":7470:7508  ArtistRequestingPermission(msg.sender) */\n      mload(0x40)\n      tag_205\n      swap2\n      swap1\n      jump(tag_206)\n    tag_205:\n      mload(0x40)\n      dup1\n      swap2\n      sub\n      swap1\n      log1\n        /* \"dNews_entity.sol\":7519:7541  traceOwner memory temp */\n      tag_207\n      tag_208\n      jump\t// in\n    tag_207:\n        /* \"dNews_entity.sol\":7562:7572  msg.sender */\n      caller\n        /* \"dNews_entity.sol\":7552:7556  temp */\n      dup2\n        /* \"dNews_entity.sol\":7552:7559  temp.EA */\n      0x20\n      add\n        /* \"dNews_entity.sol\":7552:7572  temp.EA = msg.sender */\n      swap1\n      0xffffffffffffffffffffffffffffffffffffffff\n      and\n      swap1\n      dup2\n      0xffffffffffffffffffffffffffffffffffffffff\n      and\n      dup2\n      mstore\n      pop\n      pop\n        /* \"dNews_entity.sol\":7625:7647  ownerState.SendRequest */\n      0x00\n        /* \"dNews_entity.sol\":7612:7616  temp */\n      dup2\n        /* \"dNews_entity.sol\":7612:7622  temp.state */\n      0x00\n      add\n        /* \"dNews_entity.sol\":7612:7647  temp.state = ownerState.SendRequest */\n      swap1\n      0x05\n      dup2\n      gt\n      iszero\n      tag_209\n      jumpi\n      invalid\n    tag_209:\n      swap1\n      dup2\n      0x05\n      dup2\n      gt\n      iszero\n      tag_210\n      jumpi\n      invalid\n    tag_210:\n      dup2\n      mstore\n      pop\n      pop\n        /* \"dNews_entity.sol\":7678:7683  index */\n      dup2\n        /* \"dNews_entity.sol\":7658:7662  temp */\n      dup2\n        /* \"dNews_entity.sol\":7658:7675  temp.OwnedContent */\n      0x40\n      add\n        /* \"dNews_entity.sol\":7658:7683  temp.OwnedContent = index */\n      dup2\n      dup2\n      mstore\n      pop\n      pop\n        /* \"dNews_entity.sol\":7708:7713  false */\n      0x00\n        /* \"dNews_entity.sol\":7694:7698  temp */\n      dup2\n        /* \"dNews_entity.sol\":7694:7705  temp.result */\n      0x80\n      add\n        /* \"dNews_entity.sol\":7694:7713  temp.result = false */\n      swap1\n      iszero\n      iszero\n      swap1\n      dup2\n      iszero\n      iszero\n      dup2\n      mstore\n      pop\n      pop\n        /* \"dNews_entity.sol\":7724:7732  Requests */\n      0x08\n        /* \"dNews_entity.sol\":7724:7739  Requests[owner] */\n      0x00\n        /* \"dNews_entity.sol\":7733:7738  owner */\n      dup5\n        /* \"dNews_entity.sol\":7724:7739  Requests[owner] */\n      0xffffffffffffffffffffffffffffffffffffffff\n      and\n      0xffffffffffffffffffffffffffffffffffffffff\n      and\n      dup2\n      mstore\n      0x20\n      add\n      swap1\n      dup2\n      mstore\n      0x20\n      add\n      0x00\n      keccak256\n        /* \"dNews_entity.sol\":7745:7749  temp */\n      dup2\n        /* \"dNews_entity.sol\":7724:7750  Requests[owner].push(temp) */\n      swap1\n      dup1\n        /* \"--CODEGEN--\":39:40   */\n      0x01\n        /* \"--CODEGEN--\":33:36   */\n      dup2\n        /* \"--CODEGEN--\":27:37   */\n      sload\n        /* \"--CODEGEN--\":23:41   */\n      add\n        /* \"--CODEGEN--\":57:67   */\n      dup1\n        /* \"--CODEGEN--\":52:55   */\n      dup3\n        /* \"--CODEGEN--\":45:68   */\n      sstore\n        /* \"--CODEGEN--\":79:89   */\n      dup1\n        /* \"--CODEGEN--\":72:89   */\n      swap2\n      pop\n        /* \"--CODEGEN--\":0:93   */\n      pop\n        /* \"dNews_entity.sol\":7724:7750  Requests[owner].push(temp) */\n      0x01\n      swap1\n      sub\n      swap1\n      0x00\n      mstore\n      keccak256(0x00, 0x20)\n      swap1\n      0x04\n      mul\n      add\n      0x00\n      swap1\n      swap2\n      swap1\n      swap2\n      swap1\n      swap2\n      pop\n      0x00\n      dup3\n      add\n      mload\n      dup2\n      0x00\n      add\n      exp(0x0100, 0x00)\n      dup2\n      sload\n      dup2\n      0xff\n      mul\n      not\n      and\n      swap1\n      dup4\n      0x05\n      dup2\n      gt\n      iszero\n      tag_212\n      jumpi\n      invalid\n    tag_212:\n      mul\n      or\n      swap1\n      sstore\n      pop\n      0x20\n      dup3\n      add\n      mload\n      dup2\n      0x00\n      add\n      exp(0x0100, 0x01)\n      dup2\n      sload\n      dup2\n      0xffffffffffffffffffffffffffffffffffffffff\n      mul\n      not\n      and\n      swap1\n      dup4\n      0xffffffffffffffffffffffffffffffffffffffff\n      and\n      mul\n      or\n      swap1\n      sstore\n      pop\n      0x40\n      dup3\n      add\n      mload\n      dup2\n      0x01\n      add\n      sstore\n      0x60\n      dup3\n      add\n      mload\n      dup2\n      0x02\n      add\n      sstore\n      0x80\n      dup3\n      add\n      mload\n      dup2\n      0x03\n      add\n      exp(0x0100, 0x00)\n      dup2\n      sload\n      dup2\n      0xff\n      mul\n      not\n      and\n      swap1\n      dup4\n      iszero\n      iszero\n      mul\n      or\n      swap1\n      sstore\n      pop\n      pop\n      pop\n        /* \"dNews_entity.sol\":7813:7814  1 */\n      0x01\n        /* \"dNews_entity.sol\":7789:7797  Requests */\n      0x08\n        /* \"dNews_entity.sol\":7789:7804  Requests[owner] */\n      0x00\n        /* \"dNews_entity.sol\":7798:7803  owner */\n      dup6\n        /* \"dNews_entity.sol\":7789:7804  Requests[owner] */\n      0xffffffffffffffffffffffffffffffffffffffff\n      and\n      0xffffffffffffffffffffffffffffffffffffffff\n      and\n      dup2\n      mstore\n      0x20\n      add\n      swap1\n      dup2\n      mstore\n      0x20\n      add\n      0x00\n      keccak256\n        /* \"dNews_entity.sol\":7789:7811  Requests[owner].length */\n      dup1\n      sload\n      swap1\n      pop\n        /* \"dNews_entity.sol\":7789:7814  Requests[owner].length -1 */\n      sub\n        /* \"dNews_entity.sol\":7761:7772  indexlength */\n      0x0c\n        /* \"dNews_entity.sol\":7761:7779  indexlength[owner] */\n      0x00\n        /* \"dNews_entity.sol\":7773:7778  owner */\n      dup6\n        /* \"dNews_entity.sol\":7761:7779  indexlength[owner] */\n      0xffffffffffffffffffffffffffffffffffffffff\n      and\n      0xffffffffffffffffffffffffffffffffffffffff\n      and\n      dup2\n      mstore\n      0x20\n      add\n      swap1\n      dup2\n      mstore\n      0x20\n      add\n      0x00\n      keccak256\n        /* \"dNews_entity.sol\":7761:7786  indexlength[owner][index] */\n      0x00\n        /* \"dNews_entity.sol\":7780:7785  index */\n      dup5\n        /* \"dNews_entity.sol\":7761:7786  indexlength[owner][index] */\n      dup2\n      mstore\n      0x20\n      add\n      swap1\n      dup2\n      mstore\n      0x20\n      add\n      0x00\n      keccak256\n        /* \"dNews_entity.sol\":7761:7814  indexlength[owner][index] = Requests[owner].length -1 */\n      dup2\n      swap1\n      sstore\n      pop\n        /* \"dNews_entity.sol\":7355:7822  function requestPermission(address owner, uint index)public {\r... */\n      pop\n      pop\n      pop\n      jump\t// out\n        /* \"dNews_entity.sol\":6601:6646  mapping(address=>traceOwner[])public Requests */\n    tag_73:\n      mstore(0x20, 0x08)\n      dup2\n      0x00\n      mstore\n      keccak256(0x00, 0x40)\n      dup2\n      dup2\n      sload\n      dup2\n      lt\n      tag_213\n      jumpi\n      invalid\n    tag_213:\n      swap1\n      0x00\n      mstore\n      keccak256(0x00, 0x20)\n      swap1\n      0x04\n      mul\n      add\n      0x00\n      swap2\n      pop\n      swap2\n      pop\n      pop\n      dup1\n      0x00\n      add\n      0x00\n      swap1\n      sload\n      swap1\n      0x0100\n      exp\n      swap1\n      div\n      0xff\n      and\n      swap1\n      dup1\n      0x00\n      add\n      0x01\n      swap1\n      sload\n      swap1\n      0x0100\n      exp\n      swap1\n      div\n      0xffffffffffffffffffffffffffffffffffffffff\n      and\n      swap1\n      dup1\n      0x01\n      add\n      sload\n      swap1\n      dup1\n      0x02\n      add\n      sload\n      swap1\n      dup1\n      0x03\n      add\n      0x00\n      swap1\n      sload\n      swap1\n      0x0100\n      exp\n      swap1\n      div\n      0xff\n      and\n      swap1\n      pop\n      dup6\n      jump\t// out\n        /* \"dNews_entity.sol\":6682:6773  mapping (address =>mapping(address=>news_content[])) public Granted_Permission_ChildContent */\n    tag_78:\n      mstore(0x20, 0x09)\n      dup3\n      0x00\n      mstore\n      mstore(0x20, keccak256(0x00, 0x40))\n      dup2\n      0x00\n      mstore\n      keccak256(0x00, 0x40)\n      dup2\n      dup2\n      sload\n      dup2\n      lt\n      tag_215\n      jumpi\n      invalid\n    tag_215:\n      swap1\n      0x00\n      mstore\n      keccak256(0x00, 0x20)\n      swap1\n      0x08\n      mul\n      add\n      0x00\n      swap3\n      pop\n      swap3\n      pop\n      pop\n      pop\n      dup1\n      0x00\n      add\n      dup1\n      sload\n      0x01\n      dup2\n      0x01\n      and\n      iszero\n      0x0100\n      mul\n      sub\n      and\n      0x02\n      swap1\n      div\n      dup1\n      0x1f\n      add\n      0x20\n      dup1\n      swap2\n      div\n      mul\n      0x20\n      add\n      mload(0x40)\n      swap1\n      dup2\n      add\n      0x40\n      mstore\n      dup1\n      swap3\n      swap2\n      swap1\n      dup2\n      dup2\n      mstore\n      0x20\n      add\n      dup3\n      dup1\n      sload\n      0x01\n      dup2\n      0x01\n      and\n      iszero\n      0x0100\n      mul\n      sub\n      and\n      0x02\n      swap1\n      div\n      dup1\n      iszero\n      tag_217\n      jumpi\n      dup1\n      0x1f\n      lt\n      tag_218\n      jumpi\n      0x0100\n      dup1\n      dup4\n      sload\n      div\n      mul\n      dup4\n      mstore\n      swap2\n      0x20\n      add\n      swap2\n      jump(tag_217)\n    tag_218:\n      dup3\n      add\n      swap2\n      swap1\n      0x00\n      mstore\n      keccak256(0x00, 0x20)\n      swap1\n    tag_219:\n      dup2\n      sload\n      dup2\n      mstore\n      swap1\n      0x01\n      add\n      swap1\n      0x20\n      add\n      dup1\n      dup4\n      gt\n      tag_219\n      jumpi\n      dup3\n      swap1\n      sub\n      0x1f\n      and\n      dup3\n      add\n      swap2\n    tag_217:\n      pop\n      pop\n      pop\n      pop\n      pop\n      swap1\n      dup1\n      0x01\n      add\n      0x00\n      swap1\n      sload\n      swap1\n      0x0100\n      exp\n      swap1\n      div\n      0xffffffffffffffffffffffffffffffffffffffff\n      and\n      swap1\n      dup1\n      0x02\n      add\n      dup1\n      sload\n      0x01\n      dup2\n      0x01\n      and\n      iszero\n      0x0100\n      mul\n      sub\n      and\n      0x02\n      swap1\n      div\n      dup1\n      0x1f\n      add\n      0x20\n      dup1\n      swap2\n      div\n      mul\n      0x20\n      add\n      mload(0x40)\n      swap1\n      dup2\n      add\n      0x40\n      mstore\n      dup1\n      swap3\n      swap2\n      swap1\n      dup2\n      dup2\n      mstore\n      0x20\n      add\n      dup3\n      dup1\n      sload\n      0x01\n      dup2\n      0x01\n      and\n      iszero\n      0x0100\n      mul\n      sub\n      and\n      0x02\n      swap1\n      div\n      dup1\n      iszero\n      tag_220\n      jumpi\n      dup1\n      0x1f\n      lt\n      tag_221\n      jumpi\n      0x0100\n      dup1\n      dup4\n      sload\n      div\n      mul\n      dup4\n      mstore\n      swap2\n      0x20\n      add\n      swap2\n      jump(tag_220)\n    tag_221:\n      dup3\n      add\n      swap2\n      swap1\n      0x00\n      mstore\n      keccak256(0x00, 0x20)\n      swap1\n    tag_222:\n      dup2\n      sload\n      dup2\n      mstore\n      swap1\n      0x01\n      add\n      swap1\n      0x20\n      add\n      dup1\n      dup4\n      gt\n      tag_222\n      jumpi\n      dup3\n      swap1\n      sub\n      0x1f\n      and\n      dup3\n      add\n      swap2\n    tag_220:\n      pop\n      pop\n      pop\n      pop\n      pop\n      swap1\n      dup1\n      0x03\n      add\n      0x00\n      swap1\n      sload\n      swap1\n      0x0100\n      exp\n      swap1\n      div\n      0xffffffffffffffffffffffffffffffffffffffff\n      and\n      swap1\n      dup1\n      0x04\n      add\n      dup1\n      sload\n      0x01\n      dup2\n      0x01\n      and\n      iszero\n      0x0100\n      mul\n      sub\n      and\n      0x02\n      swap1\n      div\n      dup1\n      0x1f\n      add\n      0x20\n      dup1\n      swap2\n      div\n      mul\n      0x20\n      add\n      mload(0x40)\n      swap1\n      dup2\n      add\n      0x40\n      mstore\n      dup1\n      swap3\n      swap2\n      swap1\n      dup2\n      dup2\n      mstore\n      0x20\n      add\n      dup3\n      dup1\n      sload\n      0x01\n      dup2\n      0x01\n      and\n      iszero\n      0x0100\n      mul\n      sub\n      and\n      0x02\n      swap1\n      div\n      dup1\n      iszero\n      tag_223\n      jumpi\n      dup1\n      0x1f\n      lt\n      tag_224\n      jumpi\n      0x0100\n      dup1\n      dup4\n      sload\n      div\n      mul\n      dup4\n      mstore\n      swap2\n      0x20\n      add\n      swap2\n      jump(tag_223)\n    tag_224:\n      dup3\n      add\n      swap2\n      swap1\n      0x00\n      mstore\n      keccak256(0x00, 0x20)\n      swap1\n    tag_225:\n      dup2\n      sload\n      dup2\n      mstore\n      swap1\n      0x01\n      add\n      swap1\n      0x20\n      add\n      dup1\n      dup4\n      gt\n      tag_225\n      jumpi\n      dup3\n      swap1\n      sub\n      0x1f\n      and\n      dup3\n      add\n      swap2\n    tag_223:\n      pop\n      pop\n      pop\n      pop\n      pop\n      swap1\n      dup1\n      0x05\n      add\n      sload\n      swap1\n      dup1\n      0x06\n      add\n      sload\n      swap1\n      dup1\n      0x07\n      add\n      sload\n      swap1\n      pop\n      dup9\n      jump\t// out\n        /* \"dNews_entity.sol\":6853:6943  mapping (address =>mapping(address=>news_content[])) public Denied_Permission_ChildContent */\n    tag_82:\n      mstore(0x20, 0x0a)\n      dup3\n      0x00\n      mstore\n      mstore(0x20, keccak256(0x00, 0x40))\n      dup2\n      0x00\n      mstore\n      keccak256(0x00, 0x40)\n      dup2\n      dup2\n      sload\n      dup2\n      lt\n      tag_226\n      jumpi\n      invalid\n    tag_226:\n      swap1\n      0x00\n      mstore\n      keccak256(0x00, 0x20)\n      swap1\n      0x08\n      mul\n      add\n      0x00\n      swap3\n      pop\n      swap3\n      pop\n      pop\n      pop\n      dup1\n      0x00\n      add\n      dup1\n      sload\n      0x01\n      dup2\n      0x01\n      and\n      iszero\n      0x0100\n      mul\n      sub\n      and\n      0x02\n      swap1\n      div\n      dup1\n      0x1f\n      add\n      0x20\n      dup1\n      swap2\n      div\n      mul\n      0x20\n      add\n      mload(0x40)\n      swap1\n      dup2\n      add\n      0x40\n      mstore\n      dup1\n      swap3\n      swap2\n      swap1\n      dup2\n      dup2\n      mstore\n      0x20\n      add\n      dup3\n      dup1\n      sload\n      0x01\n      dup2\n      0x01\n      and\n      iszero\n      0x0100\n      mul\n      sub\n      and\n      0x02\n      swap1\n      div\n      dup1\n      iszero\n      tag_228\n      jumpi\n      dup1\n      0x1f\n      lt\n      tag_229\n      jumpi\n      0x0100\n      dup1\n      dup4\n      sload\n      div\n      mul\n      dup4\n      mstore\n      swap2\n      0x20\n      add\n      swap2\n      jump(tag_228)\n    tag_229:\n      dup3\n      add\n      swap2\n      swap1\n      0x00\n      mstore\n      keccak256(0x00, 0x20)\n      swap1\n    tag_230:\n      dup2\n      sload\n      dup2\n      mstore\n      swap1\n      0x01\n      add\n      swap1\n      0x20\n      add\n      dup1\n      dup4\n      gt\n      tag_230\n      jumpi\n      dup3\n      swap1\n      sub\n      0x1f\n      and\n      dup3\n      add\n      swap2\n    tag_228:\n      pop\n      pop\n      pop\n      pop\n      pop\n      swap1\n      dup1\n      0x01\n      add\n      0x00\n      swap1\n      sload\n      swap1\n      0x0100\n      exp\n      swap1\n      div\n      0xffffffffffffffffffffffffffffffffffffffff\n      and\n      swap1\n      dup1\n      0x02\n      add\n      dup1\n      sload\n      0x01\n      dup2\n      0x01\n      and\n      iszero\n      0x0100\n      mul\n      sub\n      and\n      0x02\n      swap1\n      div\n      dup1\n      0x1f\n      add\n      0x20\n      dup1\n      swap2\n      div\n      mul\n      0x20\n      add\n      mload(0x40)\n      swap1\n      dup2\n      add\n      0x40\n      mstore\n      dup1\n      swap3\n      swap2\n      swap1\n      dup2\n      dup2\n      mstore\n      0x20\n      add\n      dup3\n      dup1\n      sload\n      0x01\n      dup2\n      0x01\n      and\n      iszero\n      0x0100\n      mul\n      sub\n      and\n      0x02\n      swap1\n      div\n      dup1\n      iszero\n      tag_231\n      jumpi\n      dup1\n      0x1f\n      lt\n      tag_232\n      jumpi\n      0x0100\n      dup1\n      dup4\n      sload\n      div\n      mul\n      dup4\n      mstore\n      swap2\n      0x20\n      add\n      swap2\n      jump(tag_231)\n    tag_232:\n      dup3\n      add\n      swap2\n      swap1\n      0x00\n      mstore\n      keccak256(0x00, 0x20)\n      swap1\n    tag_233:\n      dup2\n      sload\n      dup2\n      mstore\n      swap1\n      0x01\n      add\n      swap1\n      0x20\n      add\n      dup1\n      dup4\n      gt\n      tag_233\n      jumpi\n      dup3\n      swap1\n      sub\n      0x1f\n      and\n      dup3\n      add\n      swap2\n    tag_231:\n      pop\n      pop\n      pop\n      pop\n      pop\n      swap1\n      dup1\n      0x03\n      add\n      0x00\n      swap1\n      sload\n      swap1\n      0x0100\n      exp\n      swap1\n      div\n      0xffffffffffffffffffffffffffffffffffffffff\n      and\n      swap1\n      dup1\n      0x04\n      add\n      dup1\n      sload\n      0x01\n      dup2\n      0x01\n      and\n      iszero\n      0x0100\n      mul\n      sub\n      and\n      0x02\n      swap1\n      div\n      dup1\n      0x1f\n      add\n      0x20\n      dup1\n      swap2\n      div\n      mul\n      0x20\n      add\n      mload(0x40)\n      swap1\n      dup2\n      add\n      0x40\n      mstore\n      dup1\n      swap3\n      swap2\n      swap1\n      dup2\n      dup2\n      mstore\n      0x20\n      add\n      dup3\n      dup1\n      sload\n      0x01\n      dup2\n      0x01\n      and\n      iszero\n      0x0100\n      mul\n      sub\n      and\n      0x02\n      swap1\n      div\n      dup1\n      iszero\n      tag_234\n      jumpi\n      dup1\n      0x1f\n      lt\n      tag_235\n      jumpi\n      0x0100\n      dup1\n      dup4\n      sload\n      div\n      mul\n      dup4\n      mstore\n      swap2\n      0x20\n      add\n      swap2\n      jump(tag_234)\n    tag_235:\n      dup3\n      add\n      swap2\n      swap1\n      0x00\n      mstore\n      keccak256(0x00, 0x20)\n      swap1\n    tag_236:\n      dup2\n      sload\n      dup2\n      mstore\n      swap1\n      0x01\n      add\n      swap1\n      0x20\n      add\n      dup1\n      dup4\n      gt\n      tag_236\n      jumpi\n      dup3\n      swap1\n      sub\n      0x1f\n      and\n      dup3\n      add\n      swap2\n    tag_234:\n      pop\n      pop\n      pop\n      pop\n      pop\n      swap1\n      dup1\n      0x05\n      add\n      sload\n      swap1\n      dup1\n      0x06\n      add\n      sload\n      swap1\n      dup1\n      0x07\n      add\n      sload\n      swap1\n      pop\n      dup9\n      jump\t// out\n        /* \"dNews_entity.sol\":10046:11313  function Attestation(bool result, bytes32 hash, string memory meta, address editor, uint index) public{\r... */\n    tag_87:\n        /* \"dNews_entity.sol\":10159:10167  uint num */\n      0x00\n        /* \"dNews_entity.sol\":10170:10181  indexlength */\n      0x0c\n        /* \"dNews_entity.sol\":10170:10193  indexlength[msg.sender] */\n      0x00\n        /* \"dNews_entity.sol\":10182:10192  msg.sender */\n      caller\n        /* \"dNews_entity.sol\":10170:10193  indexlength[msg.sender] */\n      0xffffffffffffffffffffffffffffffffffffffff\n      and\n      0xffffffffffffffffffffffffffffffffffffffff\n      and\n      dup2\n      mstore\n      0x20\n      add\n      swap1\n      dup2\n      mstore\n      0x20\n      add\n      0x00\n      keccak256\n        /* \"dNews_entity.sol\":10170:10200  indexlength[msg.sender][index] */\n      0x00\n        /* \"dNews_entity.sol\":10194:10199  index */\n      dup4\n        /* \"dNews_entity.sol\":10170:10200  indexlength[msg.sender][index] */\n      dup2\n      mstore\n      0x20\n      add\n      swap1\n      dup2\n      mstore\n      0x20\n      add\n      0x00\n      keccak256\n      sload\n        /* \"dNews_entity.sol\":10159:10200  uint num = indexlength[msg.sender][index] */\n      swap1\n      pop\n        /* \"dNews_entity.sol\":10251:10257  editor */\n      dup3\n        /* \"dNews_entity.sol\":10219:10257  Requests[msg.sender][num].EA == editor */\n      0xffffffffffffffffffffffffffffffffffffffff\n      and\n        /* \"dNews_entity.sol\":10219:10227  Requests */\n      0x08\n        /* \"dNews_entity.sol\":10219:10239  Requests[msg.sender] */\n      0x00\n        /* \"dNews_entity.sol\":10228:10238  msg.sender */\n      caller\n        /* \"dNews_entity.sol\":10219:10239  Requests[msg.sender] */\n      0xffffffffffffffffffffffffffffffffffffffff\n      and\n      0xffffffffffffffffffffffffffffffffffffffff\n      and\n      dup2\n      mstore\n      0x20\n      add\n      swap1\n      dup2\n      mstore\n      0x20\n      add\n      0x00\n      keccak256\n        /* \"dNews_entity.sol\":10240:10243  num */\n      dup3\n        /* \"dNews_entity.sol\":10219:10244  Requests[msg.sender][num] */\n      dup2\n      sload\n      dup2\n      lt\n      tag_238\n      jumpi\n      invalid\n    tag_238:\n      swap1\n      0x00\n      mstore\n      keccak256(0x00, 0x20)\n      swap1\n      0x04\n      mul\n      add\n        /* \"dNews_entity.sol\":10219:10247  Requests[msg.sender][num].EA */\n      0x00\n      add\n      0x01\n      swap1\n      sload\n      swap1\n      0x0100\n      exp\n      swap1\n      div\n      0xffffffffffffffffffffffffffffffffffffffff\n      and\n        /* \"dNews_entity.sol\":10219:10257  Requests[msg.sender][num].EA == editor */\n      0xffffffffffffffffffffffffffffffffffffffff\n      and\n      eq\n        /* \"dNews_entity.sol\":10211:10258  require(Requests[msg.sender][num].EA == editor) */\n      tag_240\n      jumpi\n        /* \"--CODEGEN--\":12:13   */\n      0x00\n        /* \"--CODEGEN--\":9:10   */\n      dup1\n        /* \"--CODEGEN--\":2:14   */\n      revert\n        /* \"dNews_entity.sol\":10211:10258  require(Requests[msg.sender][num].EA == editor) */\n    tag_240:\n        /* \"dNews_entity.sol\":10312:10340  ownerState.GrantedPermission */\n      0x01\n        /* \"dNews_entity.sol\":10277:10340  Requests[msg.sender][num].state == ownerState.GrantedPermission */\n      0x05\n      dup2\n      gt\n      iszero\n      tag_241\n      jumpi\n      invalid\n    tag_241:\n        /* \"dNews_entity.sol\":10277:10285  Requests */\n      0x08\n        /* \"dNews_entity.sol\":10277:10297  Requests[msg.sender] */\n      0x00\n        /* \"dNews_entity.sol\":10286:10296  msg.sender */\n      caller\n        /* \"dNews_entity.sol\":10277:10297  Requests[msg.sender] */\n      0xffffffffffffffffffffffffffffffffffffffff\n      and\n      0xffffffffffffffffffffffffffffffffffffffff\n      and\n      dup2\n      mstore\n      0x20\n      add\n      swap1\n      dup2\n      mstore\n      0x20\n      add\n      0x00\n      keccak256\n        /* \"dNews_entity.sol\":10298:10301  num */\n      dup3\n        /* \"dNews_entity.sol\":10277:10302  Requests[msg.sender][num] */\n      dup2\n      sload\n      dup2\n      lt\n      tag_242\n      jumpi\n      invalid\n    tag_242:\n      swap1\n      0x00\n      mstore\n      keccak256(0x00, 0x20)\n      swap1\n      0x04\n      mul\n      add\n        /* \"dNews_entity.sol\":10277:10308  Requests[msg.sender][num].state */\n      0x00\n      add\n      0x00\n      swap1\n      sload\n      swap1\n      0x0100\n      exp\n      swap1\n      div\n      0xff\n      and\n        /* \"dNews_entity.sol\":10277:10340  Requests[msg.sender][num].state == ownerState.GrantedPermission */\n      0x05\n      dup2\n      gt\n      iszero\n      tag_244\n      jumpi\n      invalid\n    tag_244:\n      eq\n        /* \"dNews_entity.sol\":10269:10341  require(Requests[msg.sender][num].state == ownerState.GrantedPermission) */\n      tag_245\n      jumpi\n        /* \"--CODEGEN--\":12:13   */\n      0x00\n        /* \"--CODEGEN--\":9:10   */\n      dup1\n        /* \"--CODEGEN--\":2:14   */\n      revert\n        /* \"dNews_entity.sol\":10269:10341  require(Requests[msg.sender][num].state == ownerState.GrantedPermission) */\n    tag_245:\n        /* \"dNews_entity.sol\":10396:10400  true */\n      0x01\n        /* \"dNews_entity.sol\":10360:10400  Requests[msg.sender][num].result == true */\n      iszero\n      iszero\n        /* \"dNews_entity.sol\":10360:10368  Requests */\n      0x08\n        /* \"dNews_entity.sol\":10360:10380  Requests[msg.sender] */\n      0x00\n        /* \"dNews_entity.sol\":10369:10379  msg.sender */\n      caller\n        /* \"dNews_entity.sol\":10360:10380  Requests[msg.sender] */\n      0xffffffffffffffffffffffffffffffffffffffff\n      and\n      0xffffffffffffffffffffffffffffffffffffffff\n      and\n      dup2\n      mstore\n      0x20\n      add\n      swap1\n      dup2\n      mstore\n      0x20\n      add\n      0x00\n      keccak256\n        /* \"dNews_entity.sol\":10381:10384  num */\n      dup3\n        /* \"dNews_entity.sol\":10360:10385  Requests[msg.sender][num] */\n      dup2\n      sload\n      dup2\n      lt\n      tag_246\n      jumpi\n      invalid\n    tag_246:\n      swap1\n      0x00\n      mstore\n      keccak256(0x00, 0x20)\n      swap1\n      0x04\n      mul\n      add\n        /* \"dNews_entity.sol\":10360:10392  Requests[msg.sender][num].result */\n      0x03\n      add\n      0x00\n      swap1\n      sload\n      swap1\n      0x0100\n      exp\n      swap1\n      div\n      0xff\n      and\n        /* \"dNews_entity.sol\":10360:10400  Requests[msg.sender][num].result == true */\n      iszero\n      iszero\n      eq\n        /* \"dNews_entity.sol\":10352:10401  require(Requests[msg.sender][num].result == true) */\n      tag_248\n      jumpi\n        /* \"--CODEGEN--\":12:13   */\n      0x00\n        /* \"--CODEGEN--\":9:10   */\n      dup1\n        /* \"--CODEGEN--\":2:14   */\n      revert\n        /* \"dNews_entity.sol\":10352:10401  require(Requests[msg.sender][num].result == true) */\n    tag_248:\n        /* \"dNews_entity.sol\":10412:10436  news_content memory temp */\n      tag_249\n      tag_153\n      jump\t// in\n    tag_249:\n        /* \"dNews_entity.sol\":10463:10473  msg.sender */\n      caller\n        /* \"dNews_entity.sol\":10447:10451  temp */\n      dup2\n        /* \"dNews_entity.sol\":10447:10460  temp.jourAddr */\n      0x20\n      add\n        /* \"dNews_entity.sol\":10447:10473  temp.jourAddr = msg.sender */\n      swap1\n      0xffffffffffffffffffffffffffffffffffffffff\n      and\n      swap1\n      dup2\n      0xffffffffffffffffffffffffffffffffffffffff\n      and\n      dup2\n      mstore\n      pop\n      pop\n        /* \"dNews_entity.sol\":10501:10505  hash */\n      dup6\n        /* \"dNews_entity.sol\":10484:10488  temp */\n      dup2\n        /* \"dNews_entity.sol\":10484:10498  temp.IPFS_Hash */\n      0xa0\n      add\n        /* \"dNews_entity.sol\":10484:10505  temp.IPFS_Hash = hash */\n      dup2\n      dup2\n      mstore\n      pop\n      pop\n        /* \"dNews_entity.sol\":10533:10548  block.timestamp */\n      timestamp\n        /* \"dNews_entity.sol\":10516:10520  temp */\n      dup2\n        /* \"dNews_entity.sol\":10516:10530  temp.timestamp */\n      0xc0\n      add\n        /* \"dNews_entity.sol\":10516:10548  temp.timestamp = block.timestamp */\n      dup2\n      dup2\n      mstore\n      pop\n      pop\n        /* \"dNews_entity.sol\":10575:10579  meta */\n      dup5\n        /* \"dNews_entity.sol\":10559:10563  temp */\n      dup2\n        /* \"dNews_entity.sol\":10559:10572  temp.metadata */\n      0x80\n      add\n        /* \"dNews_entity.sol\":10559:10579  temp.metadata = meta */\n      dup2\n      swap1\n      mstore\n      pop\n        /* \"dNews_entity.sol\":10593:10599  result */\n      dup7\n        /* \"dNews_entity.sol\":10590:11306  if(result){\r... */\n      iszero\n      tag_250\n      jumpi\n        /* \"dNews_entity.sol\":10615:10646  Granted_Permission_ChildContent */\n      0x09\n        /* \"dNews_entity.sol\":10615:10658  Granted_Permission_ChildContent[msg.sender] */\n      0x00\n        /* \"dNews_entity.sol\":10647:10657  msg.sender */\n      caller\n        /* \"dNews_entity.sol\":10615:10658  Granted_Permission_ChildContent[msg.sender] */\n      0xffffffffffffffffffffffffffffffffffffffff\n      and\n      0xffffffffffffffffffffffffffffffffffffffff\n      and\n      dup2\n      mstore\n      0x20\n      add\n      swap1\n      dup2\n      mstore\n      0x20\n      add\n      0x00\n      keccak256\n        /* \"dNews_entity.sol\":10615:10666  Granted_Permission_ChildContent[msg.sender][editor] */\n      0x00\n        /* \"dNews_entity.sol\":10659:10665  editor */\n      dup6\n        /* \"dNews_entity.sol\":10615:10666  Granted_Permission_ChildContent[msg.sender][editor] */\n      0xffffffffffffffffffffffffffffffffffffffff\n      and\n      0xffffffffffffffffffffffffffffffffffffffff\n      and\n      dup2\n      mstore\n      0x20\n      add\n      swap1\n      dup2\n      mstore\n      0x20\n      add\n      0x00\n      keccak256\n        /* \"dNews_entity.sol\":10672:10676  temp */\n      dup2\n        /* \"dNews_entity.sol\":10615:10677  Granted_Permission_ChildContent[msg.sender][editor].push(temp) */\n      swap1\n      dup1\n        /* \"--CODEGEN--\":39:40   */\n      0x01\n        /* \"--CODEGEN--\":33:36   */\n      dup2\n        /* \"--CODEGEN--\":27:37   */\n      sload\n        /* \"--CODEGEN--\":23:41   */\n      add\n        /* \"--CODEGEN--\":57:67   */\n      dup1\n        /* \"--CODEGEN--\":52:55   */\n      dup3\n        /* \"--CODEGEN--\":45:68   */\n      sstore\n        /* \"--CODEGEN--\":79:89   */\n      dup1\n        /* \"--CODEGEN--\":72:89   */\n      swap2\n      pop\n        /* \"--CODEGEN--\":0:93   */\n      pop\n        /* \"dNews_entity.sol\":10615:10677  Granted_Permission_ChildContent[msg.sender][editor].push(temp) */\n      0x01\n      swap1\n      sub\n      swap1\n      0x00\n      mstore\n      keccak256(0x00, 0x20)\n      swap1\n      0x08\n      mul\n      add\n      0x00\n      swap1\n      swap2\n      swap1\n      swap2\n      swap1\n      swap2\n      pop\n      0x00\n      dup3\n      add\n      mload\n      dup2\n      0x00\n      add\n      swap1\n      dup1\n      mload\n      swap1\n      0x20\n      add\n      swap1\n      tag_252\n      swap3\n      swap2\n      swap1\n      tag_146\n      jump\t// in\n    tag_252:\n      pop\n      0x20\n      dup3\n      add\n      mload\n      dup2\n      0x01\n      add\n      exp(0x0100, 0x00)\n      dup2\n      sload\n      dup2\n      0xffffffffffffffffffffffffffffffffffffffff\n      mul\n      not\n      and\n      swap1\n      dup4\n      0xffffffffffffffffffffffffffffffffffffffff\n      and\n      mul\n      or\n      swap1\n      sstore\n      pop\n      0x40\n      dup3\n      add\n      mload\n      dup2\n      0x02\n      add\n      swap1\n      dup1\n      mload\n      swap1\n      0x20\n      add\n      swap1\n      tag_253\n      swap3\n      swap2\n      swap1\n      tag_146\n      jump\t// in\n    tag_253:\n      pop\n      0x60\n      dup3\n      add\n      mload\n      dup2\n      0x03\n      add\n      exp(0x0100, 0x00)\n      dup2\n      sload\n      dup2\n      0xffffffffffffffffffffffffffffffffffffffff\n      mul\n      not\n      and\n      swap1\n      dup4\n      0xffffffffffffffffffffffffffffffffffffffff\n      and\n      mul\n      or\n      swap1\n      sstore\n      pop\n      0x80\n      dup3\n      add\n      mload\n      dup2\n      0x04\n      add\n      swap1\n      dup1\n      mload\n      swap1\n      0x20\n      add\n      swap1\n      tag_254\n      swap3\n      swap2\n      swap1\n      tag_146\n      jump\t// in\n    tag_254:\n      pop\n      0xa0\n      dup3\n      add\n      mload\n      dup2\n      0x05\n      add\n      sstore\n      0xc0\n      dup3\n      add\n      mload\n      dup2\n      0x06\n      add\n      sstore\n      0xe0\n      dup3\n      add\n      mload\n      dup2\n      0x07\n      add\n      sstore\n      pop\n      pop\n        /* \"dNews_entity.sol\":10791:10792  1 */\n      0x01\n        /* \"dNews_entity.sol\":10731:10762  Granted_Permission_ChildContent */\n      0x09\n        /* \"dNews_entity.sol\":10731:10774  Granted_Permission_ChildContent[msg.sender] */\n      0x00\n        /* \"dNews_entity.sol\":10763:10773  msg.sender */\n      caller\n        /* \"dNews_entity.sol\":10731:10774  Granted_Permission_ChildContent[msg.sender] */\n      0xffffffffffffffffffffffffffffffffffffffff\n      and\n      0xffffffffffffffffffffffffffffffffffffffff\n      and\n      dup2\n      mstore\n      0x20\n      add\n      swap1\n      dup2\n      mstore\n      0x20\n      add\n      0x00\n      keccak256\n        /* \"dNews_entity.sol\":10731:10782  Granted_Permission_ChildContent[msg.sender][editor] */\n      0x00\n        /* \"dNews_entity.sol\":10775:10781  editor */\n      dup7\n        /* \"dNews_entity.sol\":10731:10782  Granted_Permission_ChildContent[msg.sender][editor] */\n      0xffffffffffffffffffffffffffffffffffffffff\n      and\n      0xffffffffffffffffffffffffffffffffffffffff\n      and\n      dup2\n      mstore\n      0x20\n      add\n      swap1\n      dup2\n      mstore\n      0x20\n      add\n      0x00\n      keccak256\n        /* \"dNews_entity.sol\":10731:10789  Granted_Permission_ChildContent[msg.sender][editor].length */\n      dup1\n      sload\n      swap1\n      pop\n        /* \"dNews_entity.sol\":10731:10792  Granted_Permission_ChildContent[msg.sender][editor].length -1 */\n      sub\n        /* \"dNews_entity.sol\":10692:10709  indexlengthattest */\n      0x0e\n        /* \"dNews_entity.sol\":10692:10721  indexlengthattest[msg.sender] */\n      0x00\n        /* \"dNews_entity.sol\":10710:10720  msg.sender */\n      caller\n        /* \"dNews_entity.sol\":10692:10721  indexlengthattest[msg.sender] */\n      0xffffffffffffffffffffffffffffffffffffffff\n      and\n      0xffffffffffffffffffffffffffffffffffffffff\n      and\n      dup2\n      mstore\n      0x20\n      add\n      swap1\n      dup2\n      mstore\n      0x20\n      add\n      0x00\n      keccak256\n        /* \"dNews_entity.sol\":10692:10728  indexlengthattest[msg.sender][index] */\n      0x00\n        /* \"dNews_entity.sol\":10722:10727  index */\n      dup6\n        /* \"dNews_entity.sol\":10692:10728  indexlengthattest[msg.sender][index] */\n      dup2\n      mstore\n      0x20\n      add\n      swap1\n      dup2\n      mstore\n      0x20\n      add\n      0x00\n      keccak256\n        /* \"dNews_entity.sol\":10692:10792  indexlengthattest[msg.sender][index] = Granted_Permission_ChildContent[msg.sender][editor].length -1 */\n      dup2\n      swap1\n      sstore\n      pop\n        /* \"dNews_entity.sol\":10841:10870  ownerState.GrantedAttestation */\n      0x04\n        /* \"dNews_entity.sol\":10807:10815  Requests */\n      0x08\n        /* \"dNews_entity.sol\":10807:10827  Requests[msg.sender] */\n      0x00\n        /* \"dNews_entity.sol\":10816:10826  msg.sender */\n      caller\n        /* \"dNews_entity.sol\":10807:10827  Requests[msg.sender] */\n      0xffffffffffffffffffffffffffffffffffffffff\n      and\n      0xffffffffffffffffffffffffffffffffffffffff\n      and\n      dup2\n      mstore\n      0x20\n      add\n      swap1\n      dup2\n      mstore\n      0x20\n      add\n      0x00\n      keccak256\n        /* \"dNews_entity.sol\":10828:10831  num */\n      dup4\n        /* \"dNews_entity.sol\":10807:10832  Requests[msg.sender][num] */\n      dup2\n      sload\n      dup2\n      lt\n      tag_255\n      jumpi\n      invalid\n    tag_255:\n      swap1\n      0x00\n      mstore\n      keccak256(0x00, 0x20)\n      swap1\n      0x04\n      mul\n      add\n        /* \"dNews_entity.sol\":10807:10838  Requests[msg.sender][num].state */\n      0x00\n      add\n      0x00\n        /* \"dNews_entity.sol\":10807:10870  Requests[msg.sender][num].state = ownerState.GrantedAttestation */\n      0x0100\n      exp\n      dup2\n      sload\n      dup2\n      0xff\n      mul\n      not\n      and\n      swap1\n      dup4\n      0x05\n      dup2\n      gt\n      iszero\n      tag_257\n      jumpi\n      invalid\n    tag_257:\n      mul\n      or\n      swap1\n      sstore\n      pop\n        /* \"dNews_entity.sol\":10885:10938  AttestationGranted(\"Successfully Attested: \", editor) */\n      0x9284a3a973ddff1d3e244c1e83925819c36925fb080960eb3f826bf9bb9bf210\n        /* \"dNews_entity.sol\":10931:10937  editor */\n      dup5\n        /* \"dNews_entity.sol\":10885:10938  AttestationGranted(\"Successfully Attested: \", editor) */\n      mload(0x40)\n      tag_258\n      swap2\n      swap1\n      jump(tag_259)\n    tag_258:\n      mload(0x40)\n      dup1\n      swap2\n      sub\n      swap1\n      log1\n        /* \"dNews_entity.sol\":10590:11306  if(result){\r... */\n      jump(tag_260)\n    tag_250:\n        /* \"dNews_entity.sol\":10980:11010  Denied_Permission_ChildContent */\n      0x0a\n        /* \"dNews_entity.sol\":10980:11022  Denied_Permission_ChildContent[msg.sender] */\n      0x00\n        /* \"dNews_entity.sol\":11011:11021  msg.sender */\n      caller\n        /* \"dNews_entity.sol\":10980:11022  Denied_Permission_ChildContent[msg.sender] */\n      0xffffffffffffffffffffffffffffffffffffffff\n      and\n      0xffffffffffffffffffffffffffffffffffffffff\n      and\n      dup2\n      mstore\n      0x20\n      add\n      swap1\n      dup2\n      mstore\n      0x20\n      add\n      0x00\n      keccak256\n        /* \"dNews_entity.sol\":10980:11030  Denied_Permission_ChildContent[msg.sender][editor] */\n      0x00\n        /* \"dNews_entity.sol\":11023:11029  editor */\n      dup6\n        /* \"dNews_entity.sol\":10980:11030  Denied_Permission_ChildContent[msg.sender][editor] */\n      0xffffffffffffffffffffffffffffffffffffffff\n      and\n      0xffffffffffffffffffffffffffffffffffffffff\n      and\n      dup2\n      mstore\n      0x20\n      add\n      swap1\n      dup2\n      mstore\n      0x20\n      add\n      0x00\n      keccak256\n        /* \"dNews_entity.sol\":11036:11040  temp */\n      dup2\n        /* \"dNews_entity.sol\":10980:11041  Denied_Permission_ChildContent[msg.sender][editor].push(temp) */\n      swap1\n      dup1\n        /* \"--CODEGEN--\":39:40   */\n      0x01\n        /* \"--CODEGEN--\":33:36   */\n      dup2\n        /* \"--CODEGEN--\":27:37   */\n      sload\n        /* \"--CODEGEN--\":23:41   */\n      add\n        /* \"--CODEGEN--\":57:67   */\n      dup1\n        /* \"--CODEGEN--\":52:55   */\n      dup3\n        /* \"--CODEGEN--\":45:68   */\n      sstore\n        /* \"--CODEGEN--\":79:89   */\n      dup1\n        /* \"--CODEGEN--\":72:89   */\n      swap2\n      pop\n        /* \"--CODEGEN--\":0:93   */\n      pop\n        /* \"dNews_entity.sol\":10980:11041  Denied_Permission_ChildContent[msg.sender][editor].push(temp) */\n      0x01\n      swap1\n      sub\n      swap1\n      0x00\n      mstore\n      keccak256(0x00, 0x20)\n      swap1\n      0x08\n      mul\n      add\n      0x00\n      swap1\n      swap2\n      swap1\n      swap2\n      swap1\n      swap2\n      pop\n      0x00\n      dup3\n      add\n      mload\n      dup2\n      0x00\n      add\n      swap1\n      dup1\n      mload\n      swap1\n      0x20\n      add\n      swap1\n      tag_262\n      swap3\n      swap2\n      swap1\n      tag_146\n      jump\t// in\n    tag_262:\n      pop\n      0x20\n      dup3\n      add\n      mload\n      dup2\n      0x01\n      add\n      exp(0x0100, 0x00)\n      dup2\n      sload\n      dup2\n      0xffffffffffffffffffffffffffffffffffffffff\n      mul\n      not\n      and\n      swap1\n      dup4\n      0xffffffffffffffffffffffffffffffffffffffff\n      and\n      mul\n      or\n      swap1\n      sstore\n      pop\n      0x40\n      dup3\n      add\n      mload\n      dup2\n      0x02\n      add\n      swap1\n      dup1\n      mload\n      swap1\n      0x20\n      add\n      swap1\n      tag_263\n      swap3\n      swap2\n      swap1\n      tag_146\n      jump\t// in\n    tag_263:\n      pop\n      0x60\n      dup3\n      add\n      mload\n      dup2\n      0x03\n      add\n      exp(0x0100, 0x00)\n      dup2\n      sload\n      dup2\n      0xffffffffffffffffffffffffffffffffffffffff\n      mul\n      not\n      and\n      swap1\n      dup4\n      0xffffffffffffffffffffffffffffffffffffffff\n      and\n      mul\n      or\n      swap1\n      sstore\n      pop\n      0x80\n      dup3\n      add\n      mload\n      dup2\n      0x04\n      add\n      swap1\n      dup1\n      mload\n      swap1\n      0x20\n      add\n      swap1\n      tag_264\n      swap3\n      swap2\n      swap1\n      tag_146\n      jump\t// in\n    tag_264:\n      pop\n      0xa0\n      dup3\n      add\n      mload\n      dup2\n      0x05\n      add\n      sstore\n      0xc0\n      dup3\n      add\n      mload\n      dup2\n      0x06\n      add\n      sstore\n      0xe0\n      dup3\n      add\n      mload\n      dup2\n      0x07\n      add\n      sstore\n      pop\n      pop\n        /* \"dNews_entity.sol\":11154:11155  1 */\n      0x01\n        /* \"dNews_entity.sol\":11095:11125  Denied_Permission_ChildContent */\n      0x0a\n        /* \"dNews_entity.sol\":11095:11137  Denied_Permission_ChildContent[msg.sender] */\n      0x00\n        /* \"dNews_entity.sol\":11126:11136  msg.sender */\n      caller\n        /* \"dNews_entity.sol\":11095:11137  Denied_Permission_ChildContent[msg.sender] */\n      0xffffffffffffffffffffffffffffffffffffffff\n      and\n      0xffffffffffffffffffffffffffffffffffffffff\n      and\n      dup2\n      mstore\n      0x20\n      add\n      swap1\n      dup2\n      mstore\n      0x20\n      add\n      0x00\n      keccak256\n        /* \"dNews_entity.sol\":11095:11145  Denied_Permission_ChildContent[msg.sender][editor] */\n      0x00\n        /* \"dNews_entity.sol\":11138:11144  editor */\n      dup7\n        /* \"dNews_entity.sol\":11095:11145  Denied_Permission_ChildContent[msg.sender][editor] */\n      0xffffffffffffffffffffffffffffffffffffffff\n      and\n      0xffffffffffffffffffffffffffffffffffffffff\n      and\n      dup2\n      mstore\n      0x20\n      add\n      swap1\n      dup2\n      mstore\n      0x20\n      add\n      0x00\n      keccak256\n        /* \"dNews_entity.sol\":11095:11152  Denied_Permission_ChildContent[msg.sender][editor].length */\n      dup1\n      sload\n      swap1\n      pop\n        /* \"dNews_entity.sol\":11095:11155  Denied_Permission_ChildContent[msg.sender][editor].length -1 */\n      sub\n        /* \"dNews_entity.sol\":11056:11073  indexlengthattest */\n      0x0e\n        /* \"dNews_entity.sol\":11056:11085  indexlengthattest[msg.sender] */\n      0x00\n        /* \"dNews_entity.sol\":11074:11084  msg.sender */\n      caller\n        /* \"dNews_entity.sol\":11056:11085  indexlengthattest[msg.sender] */\n      0xffffffffffffffffffffffffffffffffffffffff\n      and\n      0xffffffffffffffffffffffffffffffffffffffff\n      and\n      dup2\n      mstore\n      0x20\n      add\n      swap1\n      dup2\n      mstore\n      0x20\n      add\n      0x00\n      keccak256\n        /* \"dNews_entity.sol\":11056:11092  indexlengthattest[msg.sender][index] */\n      0x00\n        /* \"dNews_entity.sol\":11086:11091  index */\n      dup6\n        /* \"dNews_entity.sol\":11056:11092  indexlengthattest[msg.sender][index] */\n      dup2\n      mstore\n      0x20\n      add\n      swap1\n      dup2\n      mstore\n      0x20\n      add\n      0x00\n      keccak256\n        /* \"dNews_entity.sol\":11056:11155  indexlengthattest[msg.sender][index] = Denied_Permission_ChildContent[msg.sender][editor].length -1 */\n      dup2\n      swap1\n      sstore\n      pop\n        /* \"dNews_entity.sol\":11204:11232  ownerState.DeniedAttestation */\n      0x05\n        /* \"dNews_entity.sol\":11170:11178  Requests */\n      0x08\n        /* \"dNews_entity.sol\":11170:11190  Requests[msg.sender] */\n      0x00\n        /* \"dNews_entity.sol\":11179:11189  msg.sender */\n      caller\n        /* \"dNews_entity.sol\":11170:11190  Requests[msg.sender] */\n      0xffffffffffffffffffffffffffffffffffffffff\n      and\n      0xffffffffffffffffffffffffffffffffffffffff\n      and\n      dup2\n      mstore\n      0x20\n      add\n      swap1\n      dup2\n      mstore\n      0x20\n      add\n      0x00\n      keccak256\n        /* \"dNews_entity.sol\":11191:11194  num */\n      dup4\n        /* \"dNews_entity.sol\":11170:11195  Requests[msg.sender][num] */\n      dup2\n      sload\n      dup2\n      lt\n      tag_265\n      jumpi\n      invalid\n    tag_265:\n      swap1\n      0x00\n      mstore\n      keccak256(0x00, 0x20)\n      swap1\n      0x04\n      mul\n      add\n        /* \"dNews_entity.sol\":11170:11201  Requests[msg.sender][num].state */\n      0x00\n      add\n      0x00\n        /* \"dNews_entity.sol\":11170:11232  Requests[msg.sender][num].state = ownerState.DeniedAttestation */\n      0x0100\n      exp\n      dup2\n      sload\n      dup2\n      0xff\n      mul\n      not\n      and\n      swap1\n      dup4\n      0x05\n      dup2\n      gt\n      iszero\n      tag_267\n      jumpi\n      invalid\n    tag_267:\n      mul\n      or\n      swap1\n      sstore\n      pop\n        /* \"dNews_entity.sol\":11247:11294  AttestationDenied(\"Failure Attested: \", editor) */\n      0x3b749fd3ed05012aa59143f387db1a9f0ad29515177c5476b7de22989d3d4ffe\n        /* \"dNews_entity.sol\":11287:11293  editor */\n      dup5\n        /* \"dNews_entity.sol\":11247:11294  AttestationDenied(\"Failure Attested: \", editor) */\n      mload(0x40)\n      tag_268\n      swap2\n      swap1\n      jump(tag_269)\n    tag_268:\n      mload(0x40)\n      dup1\n      swap2\n      sub\n      swap1\n      log1\n        /* \"dNews_entity.sol\":10590:11306  if(result){\r... */\n    tag_260:\n        /* \"dNews_entity.sol\":10046:11313  function Attestation(bool result, bytes32 hash, string memory meta, address editor, uint index) public{\r... */\n      pop\n      pop\n      pop\n      pop\n      pop\n      pop\n      pop\n      jump\t// out\n        /* \"dNews_entity.sol\":2074:2369  function nccLogin(address nccAddr) public view   MediaCert_give{\r... */\n    tag_91:\n        /* \"dNews_entity.sol\":1919:1922  NCC */\n      0x00\n      dup1\n      swap1\n      sload\n      swap1\n      0x0100\n      exp\n      swap1\n      div\n      0xffffffffffffffffffffffffffffffffffffffff\n      and\n        /* \"dNews_entity.sol\":1905:1922  msg.sender == NCC */\n      0xffffffffffffffffffffffffffffffffffffffff\n      and\n        /* \"dNews_entity.sol\":1905:1915  msg.sender */\n      caller\n        /* \"dNews_entity.sol\":1905:1922  msg.sender == NCC */\n      0xffffffffffffffffffffffffffffffffffffffff\n      and\n      eq\n        /* \"dNews_entity.sol\":1897:1923  require(msg.sender == NCC) */\n      tag_271\n      jumpi\n        /* \"--CODEGEN--\":12:13   */\n      0x00\n        /* \"--CODEGEN--\":9:10   */\n      dup1\n        /* \"--CODEGEN--\":2:14   */\n      revert\n        /* \"dNews_entity.sol\":1897:1923  require(msg.sender == NCC) */\n    tag_271:\n        /* \"dNews_entity.sol\":2148:2164  Entity entityNCC */\n      0x00\n        /* \"dNews_entity.sol\":2174:2181  nccAddr */\n      dup2\n        /* \"dNews_entity.sol\":2148:2182  Entity entityNCC = Entity(nccAddr) */\n      swap1\n      pop\n        /* \"dNews_entity.sol\":2193:2211  string memory text */\n      0x60\n        /* \"dNews_entity.sol\":2214:2223  entityNCC */\n      dup2\n        /* \"dNews_entity.sol\":2214:2235  entityNCC.columnValue */\n      0xffffffffffffffffffffffffffffffffffffffff\n      and\n      0x8cba76b1\n        /* \"dNews_entity.sol\":2236:2245  nccEntity */\n      0x01\n      0x00\n      swap1\n      sload\n      swap1\n      0x0100\n      exp\n      swap1\n      div\n      0xffffffffffffffffffffffffffffffffffffffff\n      and\n        /* \"dNews_entity.sol\":2214:2270  entityNCC.columnValue(nccEntity, \"certificate\", \"isNCC\") */\n      mload(0x40)\n      dup3\n      0xffffffff\n      and\n      0xe0\n      shl\n      dup2\n      mstore\n      0x04\n      add\n      tag_273\n      swap2\n      swap1\n      jump(tag_274)\n    tag_273:\n      0x00\n      mload(0x40)\n      dup1\n      dup4\n      sub\n      dup2\n      dup7\n      dup1\n      extcodesize\n      iszero\n        /* \"--CODEGEN--\":5:14   */\n      dup1\n        /* \"--CODEGEN--\":2:4   */\n      iszero\n      tag_275\n      jumpi\n        /* \"--CODEGEN--\":27:28   */\n      0x00\n        /* \"--CODEGEN--\":24:25   */\n      dup1\n        /* \"--CODEGEN--\":17:29   */\n      revert\n        /* \"--CODEGEN--\":2:4   */\n    tag_275:\n        /* \"dNews_entity.sol\":2214:2270  entityNCC.columnValue(nccEntity, \"certificate\", \"isNCC\") */\n      pop\n      gas\n      staticcall\n      iszero\n        /* \"--CODEGEN--\":8:17   */\n      dup1\n        /* \"--CODEGEN--\":5:7   */\n      iszero\n      tag_277\n      jumpi\n        /* \"--CODEGEN--\":45:61   */\n      returndatasize\n        /* \"--CODEGEN--\":42:43   */\n      0x00\n        /* \"--CODEGEN--\":39:40   */\n      dup1\n        /* \"--CODEGEN--\":24:62   */\n      returndatacopy\n        /* \"--CODEGEN--\":77:93   */\n      returndatasize\n        /* \"--CODEGEN--\":74:75   */\n      0x00\n        /* \"--CODEGEN--\":67:94   */\n      revert\n        /* \"--CODEGEN--\":5:7   */\n    tag_277:\n        /* \"dNews_entity.sol\":2214:2270  entityNCC.columnValue(nccEntity, \"certificate\", \"isNCC\") */\n      pop\n      pop\n      pop\n      pop\n      mload(0x40)\n        /* \"--CODEGEN--\":39:55   */\n      returndatasize\n        /* \"--CODEGEN--\":36:37   */\n      0x00\n        /* \"--CODEGEN--\":17:34   */\n      dup3\n        /* \"--CODEGEN--\":2:56   */\n      returndatacopy\n        /* \"dNews_entity.sol\":2214:2270  entityNCC.columnValue(nccEntity, \"certificate\", \"isNCC\") */\n      returndatasize\n        /* \"--CODEGEN--\":101:105   */\n      0x1f\n        /* \"--CODEGEN--\":97:106   */\n      not\n        /* \"--CODEGEN--\":90:94   */\n      0x1f\n        /* \"--CODEGEN--\":84:88   */\n      dup3\n        /* \"--CODEGEN--\":80:95   */\n      add\n        /* \"--CODEGEN--\":76:107   */\n      and\n        /* \"--CODEGEN--\":69:74   */\n      dup3\n        /* \"--CODEGEN--\":65:108   */\n      add\n        /* \"--CODEGEN--\":126:132   */\n      dup1\n        /* \"--CODEGEN--\":120:124   */\n      0x40\n        /* \"--CODEGEN--\":113:133   */\n      mstore\n        /* \"--CODEGEN--\":0:138   */\n      pop\n        /* \"dNews_entity.sol\":2214:2270  entityNCC.columnValue(nccEntity, \"certificate\", \"isNCC\") */\n      dup2\n      add\n      swap1\n      tag_278\n      swap2\n      swap1\n      jump(tag_131)\n    tag_278:\n        /* \"dNews_entity.sol\":2193:2270  string memory text = entityNCC.columnValue(nccEntity, \"certificate\", \"isNCC\") */\n      swap1\n      pop\n        /* \"dNews_entity.sol\":2336:2359  abi.encodePacked(\"Yes\") */\n      add(0x20, mload(0x40))\n      tag_279\n      swap1\n      jump(tag_133)\n    tag_279:\n      mload(0x40)\n        /* \"--CODEGEN--\":49:53   */\n      0x20\n        /* \"--CODEGEN--\":39:46   */\n      dup2\n        /* \"--CODEGEN--\":30:37   */\n      dup4\n        /* \"--CODEGEN--\":26:47   */\n      sub\n        /* \"--CODEGEN--\":22:54   */\n      sub\n        /* \"--CODEGEN--\":13:20   */\n      dup2\n        /* \"--CODEGEN--\":6:55   */\n      mstore\n        /* \"dNews_entity.sol\":2336:2359  abi.encodePacked(\"Yes\") */\n      swap1\n      0x40\n      mstore\n        /* \"dNews_entity.sol\":2326:2360  keccak256(abi.encodePacked(\"Yes\")) */\n      dup1\n      mload\n      swap1\n      0x20\n      add\n      keccak256\n        /* \"dNews_entity.sol\":2316:2320  text */\n      dup2\n        /* \"dNews_entity.sol\":2299:2321  abi.encodePacked(text) */\n      add(0x20, mload(0x40))\n      tag_280\n      swap2\n      swap1\n      jump(tag_135)\n    tag_280:\n      mload(0x40)\n        /* \"--CODEGEN--\":49:53   */\n      0x20\n        /* \"--CODEGEN--\":39:46   */\n      dup2\n        /* \"--CODEGEN--\":30:37   */\n      dup4\n        /* \"--CODEGEN--\":26:47   */\n      sub\n        /* \"--CODEGEN--\":22:54   */\n      sub\n        /* \"--CODEGEN--\":13:20   */\n      dup2\n        /* \"--CODEGEN--\":6:55   */\n      mstore\n        /* \"dNews_entity.sol\":2299:2321  abi.encodePacked(text) */\n      swap1\n      0x40\n      mstore\n        /* \"dNews_entity.sol\":2289:2322  keccak256(abi.encodePacked(text)) */\n      dup1\n      mload\n      swap1\n      0x20\n      add\n      keccak256\n        /* \"dNews_entity.sol\":2289:2360  keccak256(abi.encodePacked(text)) == keccak256(abi.encodePacked(\"Yes\")) */\n      eq\n        /* \"dNews_entity.sol\":2281:2361  require(keccak256(abi.encodePacked(text)) == keccak256(abi.encodePacked(\"Yes\"))) */\n      tag_281\n      jumpi\n        /* \"--CODEGEN--\":12:13   */\n      0x00\n        /* \"--CODEGEN--\":9:10   */\n      dup1\n        /* \"--CODEGEN--\":2:14   */\n      revert\n        /* \"dNews_entity.sol\":2281:2361  require(keccak256(abi.encodePacked(text)) == keccak256(abi.encodePacked(\"Yes\"))) */\n    tag_281:\n        /* \"dNews_entity.sol\":1930:1931  _ */\n      pop\n      pop\n        /* \"dNews_entity.sol\":2074:2369  function nccLogin(address nccAddr) public view   MediaCert_give{\r... */\n      pop\n      jump\t// out\n        /* \"dNews_entity.sol\":8683:9461  function ChildContentInfo(bytes32 IPFShash, string memory metadata,address owner, uint referIndex)public {\r... */\n    tag_95:\n        /* \"dNews_entity.sol\":8800:8808  uint num */\n      0x00\n        /* \"dNews_entity.sol\":8811:8822  indexlength */\n      0x0c\n        /* \"dNews_entity.sol\":8811:8829  indexlength[owner] */\n      0x00\n        /* \"dNews_entity.sol\":8823:8828  owner */\n      dup5\n        /* \"dNews_entity.sol\":8811:8829  indexlength[owner] */\n      0xffffffffffffffffffffffffffffffffffffffff\n      and\n      0xffffffffffffffffffffffffffffffffffffffff\n      and\n      dup2\n      mstore\n      0x20\n      add\n      swap1\n      dup2\n      mstore\n      0x20\n      add\n      0x00\n      keccak256\n        /* \"dNews_entity.sol\":8811:8841  indexlength[owner][referIndex] */\n      0x00\n        /* \"dNews_entity.sol\":8830:8840  referIndex */\n      dup4\n        /* \"dNews_entity.sol\":8811:8841  indexlength[owner][referIndex] */\n      dup2\n      mstore\n      0x20\n      add\n      swap1\n      dup2\n      mstore\n      0x20\n      add\n      0x00\n      keccak256\n      sload\n        /* \"dNews_entity.sol\":8800:8841  uint num = indexlength[owner][referIndex] */\n      swap1\n      pop\n        /* \"dNews_entity.sol\":8888:8898  msg.sender */\n      caller\n        /* \"dNews_entity.sol\":8861:8898  Requests[owner][num].EA == msg.sender */\n      0xffffffffffffffffffffffffffffffffffffffff\n      and\n        /* \"dNews_entity.sol\":8861:8869  Requests */\n      0x08\n        /* \"dNews_entity.sol\":8861:8876  Requests[owner] */\n      0x00\n        /* \"dNews_entity.sol\":8870:8875  owner */\n      dup6\n        /* \"dNews_entity.sol\":8861:8876  Requests[owner] */\n      0xffffffffffffffffffffffffffffffffffffffff\n      and\n      0xffffffffffffffffffffffffffffffffffffffff\n      and\n      dup2\n      mstore\n      0x20\n      add\n      swap1\n      dup2\n      mstore\n      0x20\n      add\n      0x00\n      keccak256\n        /* \"dNews_entity.sol\":8877:8880  num */\n      dup3\n        /* \"dNews_entity.sol\":8861:8881  Requests[owner][num] */\n      dup2\n      sload\n      dup2\n      lt\n      tag_283\n      jumpi\n      invalid\n    tag_283:\n      swap1\n      0x00\n      mstore\n      keccak256(0x00, 0x20)\n      swap1\n      0x04\n      mul\n      add\n        /* \"dNews_entity.sol\":8861:8884  Requests[owner][num].EA */\n      0x00\n      add\n      0x01\n      swap1\n      sload\n      swap1\n      0x0100\n      exp\n      swap1\n      div\n      0xffffffffffffffffffffffffffffffffffffffff\n      and\n        /* \"dNews_entity.sol\":8861:8898  Requests[owner][num].EA == msg.sender */\n      0xffffffffffffffffffffffffffffffffffffffff\n      and\n      eq\n        /* \"dNews_entity.sol\":8853:8899  require(Requests[owner][num].EA == msg.sender) */\n      tag_285\n      jumpi\n        /* \"--CODEGEN--\":12:13   */\n      0x00\n        /* \"--CODEGEN--\":9:10   */\n      dup1\n        /* \"--CODEGEN--\":2:14   */\n      revert\n        /* \"dNews_entity.sol\":8853:8899  require(Requests[owner][num].EA == msg.sender) */\n    tag_285:\n        /* \"dNews_entity.sol\":8947:8975  ownerState.GrantedPermission */\n      0x01\n        /* \"dNews_entity.sol\":8919:8975  Requests[owner][num].state==ownerState.GrantedPermission */\n      0x05\n      dup2\n      gt\n      iszero\n      tag_286\n      jumpi\n      invalid\n    tag_286:\n        /* \"dNews_entity.sol\":8919:8927  Requests */\n      0x08\n        /* \"dNews_entity.sol\":8919:8934  Requests[owner] */\n      0x00\n        /* \"dNews_entity.sol\":8928:8933  owner */\n      dup6\n        /* \"dNews_entity.sol\":8919:8934  Requests[owner] */\n      0xffffffffffffffffffffffffffffffffffffffff\n      and\n      0xffffffffffffffffffffffffffffffffffffffff\n      and\n      dup2\n      mstore\n      0x20\n      add\n      swap1\n      dup2\n      mstore\n      0x20\n      add\n      0x00\n      keccak256\n        /* \"dNews_entity.sol\":8935:8938  num */\n      dup3\n        /* \"dNews_entity.sol\":8919:8939  Requests[owner][num] */\n      dup2\n      sload\n      dup2\n      lt\n      tag_287\n      jumpi\n      invalid\n    tag_287:\n      swap1\n      0x00\n      mstore\n      keccak256(0x00, 0x20)\n      swap1\n      0x04\n      mul\n      add\n        /* \"dNews_entity.sol\":8919:8945  Requests[owner][num].state */\n      0x00\n      add\n      0x00\n      swap1\n      sload\n      swap1\n      0x0100\n      exp\n      swap1\n      div\n      0xff\n      and\n        /* \"dNews_entity.sol\":8919:8975  Requests[owner][num].state==ownerState.GrantedPermission */\n      0x05\n      dup2\n      gt\n      iszero\n      tag_289\n      jumpi\n      invalid\n    tag_289:\n      eq\n        /* \"dNews_entity.sol\":8911:8976  require(Requests[owner][num].state==ownerState.GrantedPermission) */\n      tag_290\n      jumpi\n        /* \"--CODEGEN--\":12:13   */\n      0x00\n        /* \"--CODEGEN--\":9:10   */\n      dup1\n        /* \"--CODEGEN--\":2:14   */\n      revert\n        /* \"dNews_entity.sol\":8911:8976  require(Requests[owner][num].state==ownerState.GrantedPermission) */\n    tag_290:\n        /* \"dNews_entity.sol\":8987:9011  news_content memory temp */\n      tag_291\n      tag_153\n      jump\t// in\n    tag_291:\n        /* \"dNews_entity.sol\":9038:9048  msg.sender */\n      caller\n        /* \"dNews_entity.sol\":9022:9026  temp */\n      dup2\n        /* \"dNews_entity.sol\":9022:9035  temp.jourAddr */\n      0x20\n      add\n        /* \"dNews_entity.sol\":9022:9048  temp.jourAddr = msg.sender */\n      swap1\n      0xffffffffffffffffffffffffffffffffffffffff\n      and\n      swap1\n      dup2\n      0xffffffffffffffffffffffffffffffffffffffff\n      and\n      dup2\n      mstore\n      pop\n      pop\n        /* \"dNews_entity.sol\":9076:9084  IPFShash */\n      dup6\n        /* \"dNews_entity.sol\":9059:9063  temp */\n      dup2\n        /* \"dNews_entity.sol\":9059:9073  temp.IPFS_Hash */\n      0xa0\n      add\n        /* \"dNews_entity.sol\":9059:9084  temp.IPFS_Hash = IPFShash */\n      dup2\n      dup2\n      mstore\n      pop\n      pop\n        /* \"dNews_entity.sol\":9112:9127  block.timestamp */\n      timestamp\n        /* \"dNews_entity.sol\":9095:9099  temp */\n      dup2\n        /* \"dNews_entity.sol\":9095:9109  temp.timestamp */\n      0xc0\n      add\n        /* \"dNews_entity.sol\":9095:9127  temp.timestamp = block.timestamp */\n      dup2\n      dup2\n      mstore\n      pop\n      pop\n        /* \"dNews_entity.sol\":9154:9162  metadata */\n      dup5\n        /* \"dNews_entity.sol\":9138:9142  temp */\n      dup2\n        /* \"dNews_entity.sol\":9138:9151  temp.metadata */\n      0x80\n      add\n        /* \"dNews_entity.sol\":9138:9162  temp.metadata = metadata */\n      dup2\n      swap1\n      mstore\n      pop\n        /* \"dNews_entity.sol\":9173:9199  Check_Waiting_ChildContent */\n      0x0b\n        /* \"dNews_entity.sol\":9173:9211  Check_Waiting_ChildContent[msg.sender] */\n      0x00\n        /* \"dNews_entity.sol\":9200:9210  msg.sender */\n      caller\n        /* \"dNews_entity.sol\":9173:9211  Check_Waiting_ChildContent[msg.sender] */\n      0xffffffffffffffffffffffffffffffffffffffff\n      and\n      0xffffffffffffffffffffffffffffffffffffffff\n      and\n      dup2\n      mstore\n      0x20\n      add\n      swap1\n      dup2\n      mstore\n      0x20\n      add\n      0x00\n      keccak256\n        /* \"dNews_entity.sol\":9173:9218  Check_Waiting_ChildContent[msg.sender][owner] */\n      0x00\n        /* \"dNews_entity.sol\":9212:9217  owner */\n      dup6\n        /* \"dNews_entity.sol\":9173:9218  Check_Waiting_ChildContent[msg.sender][owner] */\n      0xffffffffffffffffffffffffffffffffffffffff\n      and\n      0xffffffffffffffffffffffffffffffffffffffff\n      and\n      dup2\n      mstore\n      0x20\n      add\n      swap1\n      dup2\n      mstore\n      0x20\n      add\n      0x00\n      keccak256\n        /* \"dNews_entity.sol\":9224:9228  temp */\n      dup2\n        /* \"dNews_entity.sol\":9173:9229  Check_Waiting_ChildContent[msg.sender][owner].push(temp) */\n      swap1\n      dup1\n        /* \"--CODEGEN--\":39:40   */\n      0x01\n        /* \"--CODEGEN--\":33:36   */\n      dup2\n        /* \"--CODEGEN--\":27:37   */\n      sload\n        /* \"--CODEGEN--\":23:41   */\n      add\n        /* \"--CODEGEN--\":57:67   */\n      dup1\n        /* \"--CODEGEN--\":52:55   */\n      dup3\n        /* \"--CODEGEN--\":45:68   */\n      sstore\n        /* \"--CODEGEN--\":79:89   */\n      dup1\n        /* \"--CODEGEN--\":72:89   */\n      swap2\n      pop\n        /* \"--CODEGEN--\":0:93   */\n      pop\n        /* \"dNews_entity.sol\":9173:9229  Check_Waiting_ChildContent[msg.sender][owner].push(temp) */\n      0x01\n      swap1\n      sub\n      swap1\n      0x00\n      mstore\n      keccak256(0x00, 0x20)\n      swap1\n      0x08\n      mul\n      add\n      0x00\n      swap1\n      swap2\n      swap1\n      swap2\n      swap1\n      swap2\n      pop\n      0x00\n      dup3\n      add\n      mload\n      dup2\n      0x00\n      add\n      swap1\n      dup1\n      mload\n      swap1\n      0x20\n      add\n      swap1\n      tag_293\n      swap3\n      swap2\n      swap1\n      tag_146\n      jump\t// in\n    tag_293:\n      pop\n      0x20\n      dup3\n      add\n      mload\n      dup2\n      0x01\n      add\n      exp(0x0100, 0x00)\n      dup2\n      sload\n      dup2\n      0xffffffffffffffffffffffffffffffffffffffff\n      mul\n      not\n      and\n      swap1\n      dup4\n      0xffffffffffffffffffffffffffffffffffffffff\n      and\n      mul\n      or\n      swap1\n      sstore\n      pop\n      0x40\n      dup3\n      add\n      mload\n      dup2\n      0x02\n      add\n      swap1\n      dup1\n      mload\n      swap1\n      0x20\n      add\n      swap1\n      tag_294\n      swap3\n      swap2\n      swap1\n      tag_146\n      jump\t// in\n    tag_294:\n      pop\n      0x60\n      dup3\n      add\n      mload\n      dup2\n      0x03\n      add\n      exp(0x0100, 0x00)\n      dup2\n      sload\n      dup2\n      0xffffffffffffffffffffffffffffffffffffffff\n      mul\n      not\n      and\n      swap1\n      dup4\n      0xffffffffffffffffffffffffffffffffffffffff\n      and\n      mul\n      or\n      swap1\n      sstore\n      pop\n      0x80\n      dup3\n      add\n      mload\n      dup2\n      0x04\n      add\n      swap1\n      dup1\n      mload\n      swap1\n      0x20\n      add\n      swap1\n      tag_295\n      swap3\n      swap2\n      swap1\n      tag_146\n      jump\t// in\n    tag_295:\n      pop\n      0xa0\n      dup3\n      add\n      mload\n      dup2\n      0x05\n      add\n      sstore\n      0xc0\n      dup3\n      add\n      mload\n      dup2\n      0x06\n      add\n      sstore\n      0xe0\n      dup3\n      add\n      mload\n      dup2\n      0x07\n      add\n      sstore\n      pop\n      pop\n        /* \"dNews_entity.sol\":9332:9333  1 */\n      0x01\n        /* \"dNews_entity.sol\":9278:9304  Check_Waiting_ChildContent */\n      0x0b\n        /* \"dNews_entity.sol\":9278:9316  Check_Waiting_ChildContent[msg.sender] */\n      0x00\n        /* \"dNews_entity.sol\":9305:9315  msg.sender */\n      caller\n        /* \"dNews_entity.sol\":9278:9316  Check_Waiting_ChildContent[msg.sender] */\n      0xffffffffffffffffffffffffffffffffffffffff\n      and\n      0xffffffffffffffffffffffffffffffffffffffff\n      and\n      dup2\n      mstore\n      0x20\n      add\n      swap1\n      dup2\n      mstore\n      0x20\n      add\n      0x00\n      keccak256\n        /* \"dNews_entity.sol\":9278:9323  Check_Waiting_ChildContent[msg.sender][owner] */\n      0x00\n        /* \"dNews_entity.sol\":9317:9322  owner */\n      dup7\n        /* \"dNews_entity.sol\":9278:9323  Check_Waiting_ChildContent[msg.sender][owner] */\n      0xffffffffffffffffffffffffffffffffffffffff\n      and\n      0xffffffffffffffffffffffffffffffffffffffff\n      and\n      dup2\n      mstore\n      0x20\n      add\n      swap1\n      dup2\n      mstore\n      0x20\n      add\n      0x00\n      keccak256\n        /* \"dNews_entity.sol\":9278:9330  Check_Waiting_ChildContent[msg.sender][owner].length */\n      dup1\n      sload\n      swap1\n      pop\n        /* \"dNews_entity.sol\":9278:9333  Check_Waiting_ChildContent[msg.sender][owner].length -1 */\n      sub\n        /* \"dNews_entity.sol\":9240:9256  indexlengthcheck */\n      0x0d\n        /* \"dNews_entity.sol\":9240:9268  indexlengthcheck[msg.sender] */\n      0x00\n        /* \"dNews_entity.sol\":9257:9267  msg.sender */\n      caller\n        /* \"dNews_entity.sol\":9240:9268  indexlengthcheck[msg.sender] */\n      0xffffffffffffffffffffffffffffffffffffffff\n      and\n      0xffffffffffffffffffffffffffffffffffffffff\n      and\n      dup2\n      mstore\n      0x20\n      add\n      swap1\n      dup2\n      mstore\n      0x20\n      add\n      0x00\n      keccak256\n        /* \"dNews_entity.sol\":9240:9275  indexlengthcheck[msg.sender][owner] */\n      0x00\n        /* \"dNews_entity.sol\":9269:9274  owner */\n      dup7\n        /* \"dNews_entity.sol\":9240:9275  indexlengthcheck[msg.sender][owner] */\n      0xffffffffffffffffffffffffffffffffffffffff\n      and\n      0xffffffffffffffffffffffffffffffffffffffff\n      and\n      dup2\n      mstore\n      0x20\n      add\n      swap1\n      dup2\n      mstore\n      0x20\n      add\n      0x00\n      keccak256\n        /* \"dNews_entity.sol\":9240:9333  indexlengthcheck[msg.sender][owner] = Check_Waiting_ChildContent[msg.sender][owner].length -1 */\n      dup2\n      swap1\n      sstore\n      pop\n        /* \"dNews_entity.sol\":9344:9357  uint numCheck */\n      0x00\n        /* \"dNews_entity.sol\":9360:9376  indexlengthcheck */\n      0x0d\n        /* \"dNews_entity.sol\":9360:9388  indexlengthcheck[msg.sender] */\n      0x00\n        /* \"dNews_entity.sol\":9377:9387  msg.sender */\n      caller\n        /* \"dNews_entity.sol\":9360:9388  indexlengthcheck[msg.sender] */\n      0xffffffffffffffffffffffffffffffffffffffff\n      and\n      0xffffffffffffffffffffffffffffffffffffffff\n      and\n      dup2\n      mstore\n      0x20\n      add\n      swap1\n      dup2\n      mstore\n      0x20\n      add\n      0x00\n      keccak256\n        /* \"dNews_entity.sol\":9360:9395  indexlengthcheck[msg.sender][owner] */\n      0x00\n        /* \"dNews_entity.sol\":9389:9394  owner */\n      dup7\n        /* \"dNews_entity.sol\":9360:9395  indexlengthcheck[msg.sender][owner] */\n      0xffffffffffffffffffffffffffffffffffffffff\n      and\n      0xffffffffffffffffffffffffffffffffffffffff\n      and\n      dup2\n      mstore\n      0x20\n      add\n      swap1\n      dup2\n      mstore\n      0x20\n      add\n      0x00\n      keccak256\n      sload\n        /* \"dNews_entity.sol\":9344:9395  uint numCheck = indexlengthcheck[msg.sender][owner] */\n      swap1\n      pop\n        /* \"dNews_entity.sol\":9406:9452  BeforeAttestation(owner, msg.sender, numCheck) */\n      tag_296\n        /* \"dNews_entity.sol\":9424:9429  owner */\n      dup6\n        /* \"dNews_entity.sol\":9431:9441  msg.sender */\n      caller\n        /* \"dNews_entity.sol\":9443:9451  numCheck */\n      dup4\n        /* \"dNews_entity.sol\":9406:9423  BeforeAttestation */\n      tag_29\n        /* \"dNews_entity.sol\":9406:9452  BeforeAttestation(owner, msg.sender, numCheck) */\n      jump\t// in\n    tag_296:\n      pop\n      pop\n      pop\n      pop\n        /* \"dNews_entity.sol\":8683:9461  function ChildContentInfo(bytes32 IPFShash, string memory metadata,address owner, uint referIndex)public {\r... */\n      pop\n      pop\n      pop\n      pop\n      pop\n      pop\n      pop\n      jump\t// out\n        /* \"dNews_entity.sol\":3928:4785  function jourCert (string memory jourName, address jourAddr, string memory mediaName, address mediaAddr, string memory department, string memory jourTimePeriod, string memory jourcerHash) public  { // add qualify journalists to the list\r... */\n    tag_99:\n        /* \"dNews_entity.sol\":4204:4208  true */\n      0x01\n        /* \"dNews_entity.sol\":4182:4208  isMedia[mediaAddr] == true */\n      iszero\n      iszero\n        /* \"dNews_entity.sol\":4182:4189  isMedia */\n      0x04\n        /* \"dNews_entity.sol\":4182:4200  isMedia[mediaAddr] */\n      0x00\n        /* \"dNews_entity.sol\":4190:4199  mediaAddr */\n      dup7\n        /* \"dNews_entity.sol\":4182:4200  isMedia[mediaAddr] */\n      0xffffffffffffffffffffffffffffffffffffffff\n      and\n      0xffffffffffffffffffffffffffffffffffffffff\n      and\n      dup2\n      mstore\n      0x20\n      add\n      swap1\n      dup2\n      mstore\n      0x20\n      add\n      0x00\n      keccak256\n      0x00\n      swap1\n      sload\n      swap1\n      0x0100\n      exp\n      swap1\n      div\n      0xff\n      and\n        /* \"dNews_entity.sol\":4182:4208  isMedia[mediaAddr] == true */\n      iszero\n      iszero\n      eq\n        /* \"dNews_entity.sol\":4174:4209  require(isMedia[mediaAddr] == true) */\n      tag_298\n      jumpi\n        /* \"--CODEGEN--\":12:13   */\n      0x00\n        /* \"--CODEGEN--\":9:10   */\n      dup1\n        /* \"--CODEGEN--\":2:14   */\n      revert\n        /* \"dNews_entity.sol\":4174:4209  require(isMedia[mediaAddr] == true) */\n    tag_298:\n        /* \"dNews_entity.sol\":4220:4241  mediaLogin(mediaAddr) */\n      tag_299\n        /* \"dNews_entity.sol\":4231:4240  mediaAddr */\n      dup5\n        /* \"dNews_entity.sol\":4220:4230  mediaLogin */\n      tag_106\n        /* \"dNews_entity.sol\":4220:4241  mediaLogin(mediaAddr) */\n      jump\t// in\n    tag_299:\n        /* \"dNews_entity.sol\":4271:4275  true */\n      0x01\n        /* \"dNews_entity.sol\":4252:4258  isJour */\n      0x05\n        /* \"dNews_entity.sol\":4252:4268  isJour[jourAddr] */\n      0x00\n        /* \"dNews_entity.sol\":4259:4267  jourAddr */\n      dup9\n        /* \"dNews_entity.sol\":4252:4268  isJour[jourAddr] */\n      0xffffffffffffffffffffffffffffffffffffffff\n      and\n      0xffffffffffffffffffffffffffffffffffffffff\n      and\n      dup2\n      mstore\n      0x20\n      add\n      swap1\n      dup2\n      mstore\n      0x20\n      add\n      0x00\n      keccak256\n      0x00\n        /* \"dNews_entity.sol\":4252:4275  isJour[jourAddr] = true */\n      0x0100\n      exp\n      dup2\n      sload\n      dup2\n      0xff\n      mul\n      not\n      and\n      swap1\n      dup4\n      iszero\n      iszero\n      mul\n      or\n      swap1\n      sstore\n      pop\n        /* \"dNews_entity.sol\":4286:4323  jourCertificate memory qualified_jour */\n      tag_300\n      tag_301\n      jump\t// in\n    tag_300:\n        /* \"dNews_entity.sol\":4360:4368  jourName */\n      dup8\n        /* \"dNews_entity.sol\":4334:4348  qualified_jour */\n      dup2\n        /* \"dNews_entity.sol\":4334:4357  qualified_jour.journame */\n      0x00\n      add\n        /* \"dNews_entity.sol\":4334:4368  qualified_jour.journame = jourName */\n      dup2\n      swap1\n      mstore\n      pop\n        /* \"dNews_entity.sol\":4405:4413  jourAddr */\n      dup7\n        /* \"dNews_entity.sol\":4379:4393  qualified_jour */\n      dup2\n        /* \"dNews_entity.sol\":4379:4402  qualified_jour.jourAddr */\n      0x20\n      add\n        /* \"dNews_entity.sol\":4379:4413  qualified_jour.jourAddr = jourAddr */\n      swap1\n      0xffffffffffffffffffffffffffffffffffffffff\n      and\n      swap1\n      dup2\n      0xffffffffffffffffffffffffffffffffffffffff\n      and\n      dup2\n      mstore\n      pop\n      pop\n        /* \"dNews_entity.sol\":4451:4460  mediaName */\n      dup6\n        /* \"dNews_entity.sol\":4424:4438  qualified_jour */\n      dup2\n        /* \"dNews_entity.sol\":4424:4448  qualified_jour.medianame */\n      0x40\n      add\n        /* \"dNews_entity.sol\":4424:4460  qualified_jour.medianame = mediaName */\n      dup2\n      swap1\n      mstore\n      pop\n        /* \"dNews_entity.sol\":4498:4507  mediaAddr */\n      dup5\n        /* \"dNews_entity.sol\":4471:4485  qualified_jour */\n      dup2\n        /* \"dNews_entity.sol\":4471:4495  qualified_jour.mediaAddr */\n      0x60\n      add\n        /* \"dNews_entity.sol\":4471:4507  qualified_jour.mediaAddr = mediaAddr */\n      swap1\n      0xffffffffffffffffffffffffffffffffffffffff\n      and\n      swap1\n      dup2\n      0xffffffffffffffffffffffffffffffffffffffff\n      and\n      dup2\n      mstore\n      pop\n      pop\n        /* \"dNews_entity.sol\":4546:4556  department */\n      dup4\n        /* \"dNews_entity.sol\":4518:4532  qualified_jour */\n      dup2\n        /* \"dNews_entity.sol\":4518:4543  qualified_jour.department */\n      0x80\n      add\n        /* \"dNews_entity.sol\":4518:4556  qualified_jour.department = department */\n      dup2\n      swap1\n      mstore\n      pop\n        /* \"dNews_entity.sol\":4599:4613  jourTimePeriod */\n      dup3\n        /* \"dNews_entity.sol\":4567:4581  qualified_jour */\n      dup2\n        /* \"dNews_entity.sol\":4567:4596  qualified_jour.jourtimeperiod */\n      0xa0\n      add\n        /* \"dNews_entity.sol\":4567:4613  qualified_jour.jourtimeperiod = jourTimePeriod */\n      dup2\n      swap1\n      mstore\n      pop\n        /* \"dNews_entity.sol\":4677:4688  jourcerHash */\n      dup2\n        /* \"dNews_entity.sol\":4648:4662  qualified_jour */\n      dup2\n        /* \"dNews_entity.sol\":4648:4674  qualified_jour.jourcerHash */\n      0xc0\n      add\n        /* \"dNews_entity.sol\":4648:4688  qualified_jour.jourcerHash = jourcerHash */\n      dup2\n      swap1\n      mstore\n      pop\n        /* \"dNews_entity.sol\":4699:4704  Jours */\n      0x03\n        /* \"dNews_entity.sol\":4710:4724  qualified_jour */\n      dup2\n        /* \"dNews_entity.sol\":4699:4725  Jours.push(qualified_jour) */\n      swap1\n      dup1\n        /* \"--CODEGEN--\":39:40   */\n      0x01\n        /* \"--CODEGEN--\":33:36   */\n      dup2\n        /* \"--CODEGEN--\":27:37   */\n      sload\n        /* \"--CODEGEN--\":23:41   */\n      add\n        /* \"--CODEGEN--\":57:67   */\n      dup1\n        /* \"--CODEGEN--\":52:55   */\n      dup3\n        /* \"--CODEGEN--\":45:68   */\n      sstore\n        /* \"--CODEGEN--\":79:89   */\n      dup1\n        /* \"--CODEGEN--\":72:89   */\n      swap2\n      pop\n        /* \"--CODEGEN--\":0:93   */\n      pop\n        /* \"dNews_entity.sol\":4699:4725  Jours.push(qualified_jour) */\n      0x01\n      swap1\n      sub\n      swap1\n      0x00\n      mstore\n      keccak256(0x00, 0x20)\n      swap1\n      0x07\n      mul\n      add\n      0x00\n      swap1\n      swap2\n      swap1\n      swap2\n      swap1\n      swap2\n      pop\n      0x00\n      dup3\n      add\n      mload\n      dup2\n      0x00\n      add\n      swap1\n      dup1\n      mload\n      swap1\n      0x20\n      add\n      swap1\n      tag_303\n      swap3\n      swap2\n      swap1\n      tag_146\n      jump\t// in\n    tag_303:\n      pop\n      0x20\n      dup3\n      add\n      mload\n      dup2\n      0x01\n      add\n      exp(0x0100, 0x00)\n      dup2\n      sload\n      dup2\n      0xffffffffffffffffffffffffffffffffffffffff\n      mul\n      not\n      and\n      swap1\n      dup4\n      0xffffffffffffffffffffffffffffffffffffffff\n      and\n      mul\n      or\n      swap1\n      sstore\n      pop\n      0x40\n      dup3\n      add\n      mload\n      dup2\n      0x02\n      add\n      swap1\n      dup1\n      mload\n      swap1\n      0x20\n      add\n      swap1\n      tag_304\n      swap3\n      swap2\n      swap1\n      tag_146\n      jump\t// in\n    tag_304:\n      pop\n      0x60\n      dup3\n      add\n      mload\n      dup2\n      0x03\n      add\n      exp(0x0100, 0x00)\n      dup2\n      sload\n      dup2\n      0xffffffffffffffffffffffffffffffffffffffff\n      mul\n      not\n      and\n      swap1\n      dup4\n      0xffffffffffffffffffffffffffffffffffffffff\n      and\n      mul\n      or\n      swap1\n      sstore\n      pop\n      0x80\n      dup3\n      add\n      mload\n      dup2\n      0x04\n      add\n      swap1\n      dup1\n      mload\n      swap1\n      0x20\n      add\n      swap1\n      tag_305\n      swap3\n      swap2\n      swap1\n      tag_146\n      jump\t// in\n    tag_305:\n      pop\n      0xa0\n      dup3\n      add\n      mload\n      dup2\n      0x05\n      add\n      swap1\n      dup1\n      mload\n      swap1\n      0x20\n      add\n      swap1\n      tag_306\n      swap3\n      swap2\n      swap1\n      tag_146\n      jump\t// in\n    tag_306:\n      pop\n      0xc0\n      dup3\n      add\n      mload\n      dup2\n      0x06\n      add\n      swap1\n      dup1\n      mload\n      swap1\n      0x20\n      add\n      swap1\n      tag_307\n      swap3\n      swap2\n      swap1\n      tag_146\n      jump\t// in\n    tag_307:\n      pop\n      pop\n      pop\n        /* \"dNews_entity.sol\":4736:4750  JourUnderMedia */\n      0x07\n        /* \"dNews_entity.sol\":4736:4761  JourUnderMedia[mediaAddr] */\n      0x00\n        /* \"dNews_entity.sol\":4751:4760  mediaAddr */\n      dup7\n        /* \"dNews_entity.sol\":4736:4761  JourUnderMedia[mediaAddr] */\n      0xffffffffffffffffffffffffffffffffffffffff\n      and\n      0xffffffffffffffffffffffffffffffffffffffff\n      and\n      dup2\n      mstore\n      0x20\n      add\n      swap1\n      dup2\n      mstore\n      0x20\n      add\n      0x00\n      keccak256\n        /* \"dNews_entity.sol\":4767:4775  jourAddr */\n      dup8\n        /* \"dNews_entity.sol\":4736:4776  JourUnderMedia[mediaAddr].push(jourAddr) */\n      swap1\n      dup1\n        /* \"--CODEGEN--\":39:40   */\n      0x01\n        /* \"--CODEGEN--\":33:36   */\n      dup2\n        /* \"--CODEGEN--\":27:37   */\n      sload\n        /* \"--CODEGEN--\":23:41   */\n      add\n        /* \"--CODEGEN--\":57:67   */\n      dup1\n        /* \"--CODEGEN--\":52:55   */\n      dup3\n        /* \"--CODEGEN--\":45:68   */\n      sstore\n        /* \"--CODEGEN--\":79:89   */\n      dup1\n        /* \"--CODEGEN--\":72:89   */\n      swap2\n      pop\n        /* \"--CODEGEN--\":0:93   */\n      pop\n        /* \"dNews_entity.sol\":4736:4776  JourUnderMedia[mediaAddr].push(jourAddr) */\n      0x01\n      swap1\n      sub\n      swap1\n      0x00\n      mstore\n      keccak256(0x00, 0x20)\n      add\n      0x00\n      swap1\n      swap2\n      swap1\n      swap2\n      swap1\n      swap2\n      0x0100\n      exp\n      dup2\n      sload\n      dup2\n      0xffffffffffffffffffffffffffffffffffffffff\n      mul\n      not\n      and\n      swap1\n      dup4\n      0xffffffffffffffffffffffffffffffffffffffff\n      and\n      mul\n      or\n      swap1\n      sstore\n      pop\n        /* \"dNews_entity.sol\":3928:4785  function jourCert (string memory jourName, address jourAddr, string memory mediaName, address mediaAddr, string memory department, string memory jourTimePeriod, string memory jourcerHash) public  { // add qualify journalists to the list\r... */\n      pop\n      pop\n      pop\n      pop\n      pop\n      pop\n      pop\n      pop\n      jump\t// out\n        /* \"dNews_entity.sol\":1790:1841  mapping(address => address[]) public JourUnderMedia */\n    tag_102:\n      mstore(0x20, 0x07)\n      dup2\n      0x00\n      mstore\n      keccak256(0x00, 0x40)\n      dup2\n      dup2\n      sload\n      dup2\n      lt\n      tag_309\n      jumpi\n      invalid\n    tag_309:\n      swap1\n      0x00\n      mstore\n      keccak256(0x00, 0x20)\n      add\n      0x00\n      swap2\n      pop\n      swap2\n      pop\n      swap1\n      sload\n      swap1\n      0x0100\n      exp\n      swap1\n      div\n      0xffffffffffffffffffffffffffffffffffffffff\n      and\n      dup2\n      jump\t// out\n        /* \"dNews_entity.sol\":2394:2736  function mediaLogin(address mediaAddr) public view{\r... */\n    tag_106:\n        /* \"dNews_entity.sol\":2485:2489  true */\n      0x01\n        /* \"dNews_entity.sol\":2463:2489  isMedia[mediaAddr] == true */\n      iszero\n      iszero\n        /* \"dNews_entity.sol\":2463:2470  isMedia */\n      0x04\n        /* \"dNews_entity.sol\":2463:2481  isMedia[mediaAddr] */\n      0x00\n        /* \"dNews_entity.sol\":2471:2480  mediaAddr */\n      dup4\n        /* \"dNews_entity.sol\":2463:2481  isMedia[mediaAddr] */\n      0xffffffffffffffffffffffffffffffffffffffff\n      and\n      0xffffffffffffffffffffffffffffffffffffffff\n      and\n      dup2\n      mstore\n      0x20\n      add\n      swap1\n      dup2\n      mstore\n      0x20\n      add\n      0x00\n      keccak256\n      0x00\n      swap1\n      sload\n      swap1\n      0x0100\n      exp\n      swap1\n      div\n      0xff\n      and\n        /* \"dNews_entity.sol\":2463:2489  isMedia[mediaAddr] == true */\n      iszero\n      iszero\n      eq\n        /* \"dNews_entity.sol\":2455:2490  require(isMedia[mediaAddr] == true) */\n      tag_312\n      jumpi\n        /* \"--CODEGEN--\":12:13   */\n      0x00\n        /* \"--CODEGEN--\":9:10   */\n      dup1\n        /* \"--CODEGEN--\":2:14   */\n      revert\n        /* \"dNews_entity.sol\":2455:2490  require(isMedia[mediaAddr] == true) */\n    tag_312:\n        /* \"dNews_entity.sol\":2502:2520  Entity entityMedia */\n      0x00\n        /* \"dNews_entity.sol\":2530:2539  mediaAddr */\n      dup2\n        /* \"dNews_entity.sol\":2502:2540  Entity entityMedia = Entity(mediaAddr) */\n      swap1\n      pop\n        /* \"dNews_entity.sol\":2551:2569  string memory text */\n      0x60\n        /* \"dNews_entity.sol\":2572:2583  entityMedia */\n      dup2\n        /* \"dNews_entity.sol\":2572:2595  entityMedia.columnValue */\n      0xffffffffffffffffffffffffffffffffffffffff\n      and\n      0x8cba76b1\n        /* \"dNews_entity.sol\":2596:2605  nccEntity */\n      0x01\n      0x00\n      swap1\n      sload\n      swap1\n      0x0100\n      exp\n      swap1\n      div\n      0xffffffffffffffffffffffffffffffffffffffff\n      and\n        /* \"dNews_entity.sol\":2572:2637  entityMedia.columnValue(nccEntity, \"MediaCertificate\", \"isMedia\") */\n      mload(0x40)\n      dup3\n      0xffffffff\n      and\n      0xe0\n      shl\n      dup2\n      mstore\n      0x04\n      add\n      tag_313\n      swap2\n      swap1\n      jump(tag_314)\n    tag_313:\n      0x00\n      mload(0x40)\n      dup1\n      dup4\n      sub\n      dup2\n      dup7\n      dup1\n      extcodesize\n      iszero\n        /* \"--CODEGEN--\":5:14   */\n      dup1\n        /* \"--CODEGEN--\":2:4   */\n      iszero\n      tag_315\n      jumpi\n        /* \"--CODEGEN--\":27:28   */\n      0x00\n        /* \"--CODEGEN--\":24:25   */\n      dup1\n        /* \"--CODEGEN--\":17:29   */\n      revert\n        /* \"--CODEGEN--\":2:4   */\n    tag_315:\n        /* \"dNews_entity.sol\":2572:2637  entityMedia.columnValue(nccEntity, \"MediaCertificate\", \"isMedia\") */\n      pop\n      gas\n      staticcall\n      iszero\n        /* \"--CODEGEN--\":8:17   */\n      dup1\n        /* \"--CODEGEN--\":5:7   */\n      iszero\n      tag_317\n      jumpi\n        /* \"--CODEGEN--\":45:61   */\n      returndatasize\n        /* \"--CODEGEN--\":42:43   */\n      0x00\n        /* \"--CODEGEN--\":39:40   */\n      dup1\n        /* \"--CODEGEN--\":24:62   */\n      returndatacopy\n        /* \"--CODEGEN--\":77:93   */\n      returndatasize\n        /* \"--CODEGEN--\":74:75   */\n      0x00\n        /* \"--CODEGEN--\":67:94   */\n      revert\n        /* \"--CODEGEN--\":5:7   */\n    tag_317:\n        /* \"dNews_entity.sol\":2572:2637  entityMedia.columnValue(nccEntity, \"MediaCertificate\", \"isMedia\") */\n      pop\n      pop\n      pop\n      pop\n      mload(0x40)\n        /* \"--CODEGEN--\":39:55   */\n      returndatasize\n        /* \"--CODEGEN--\":36:37   */\n      0x00\n        /* \"--CODEGEN--\":17:34   */\n      dup3\n        /* \"--CODEGEN--\":2:56   */\n      returndatacopy\n        /* \"dNews_entity.sol\":2572:2637  entityMedia.columnValue(nccEntity, \"MediaCertificate\", \"isMedia\") */\n      returndatasize\n        /* \"--CODEGEN--\":101:105   */\n      0x1f\n        /* \"--CODEGEN--\":97:106   */\n      not\n        /* \"--CODEGEN--\":90:94   */\n      0x1f\n        /* \"--CODEGEN--\":84:88   */\n      dup3\n        /* \"--CODEGEN--\":80:95   */\n      add\n        /* \"--CODEGEN--\":76:107   */\n      and\n        /* \"--CODEGEN--\":69:74   */\n      dup3\n        /* \"--CODEGEN--\":65:108   */\n      add\n        /* \"--CODEGEN--\":126:132   */\n      dup1\n        /* \"--CODEGEN--\":120:124   */\n      0x40\n        /* \"--CODEGEN--\":113:133   */\n      mstore\n        /* \"--CODEGEN--\":0:138   */\n      pop\n        /* \"dNews_entity.sol\":2572:2637  entityMedia.columnValue(nccEntity, \"MediaCertificate\", \"isMedia\") */\n      dup2\n      add\n      swap1\n      tag_318\n      swap2\n      swap1\n      jump(tag_131)\n    tag_318:\n        /* \"dNews_entity.sol\":2551:2637  string memory text = entityMedia.columnValue(nccEntity, \"MediaCertificate\", \"isMedia\") */\n      swap1\n      pop\n        /* \"dNews_entity.sol\":2703:2726  abi.encodePacked(\"Yes\") */\n      add(0x20, mload(0x40))\n      tag_319\n      swap1\n      jump(tag_133)\n    tag_319:\n      mload(0x40)\n        /* \"--CODEGEN--\":49:53   */\n      0x20\n        /* \"--CODEGEN--\":39:46   */\n      dup2\n        /* \"--CODEGEN--\":30:37   */\n      dup4\n        /* \"--CODEGEN--\":26:47   */\n      sub\n        /* \"--CODEGEN--\":22:54   */\n      sub\n        /* \"--CODEGEN--\":13:20   */\n      dup2\n        /* \"--CODEGEN--\":6:55   */\n      mstore\n        /* \"dNews_entity.sol\":2703:2726  abi.encodePacked(\"Yes\") */\n      swap1\n      0x40\n      mstore\n        /* \"dNews_entity.sol\":2693:2727  keccak256(abi.encodePacked(\"Yes\")) */\n      dup1\n      mload\n      swap1\n      0x20\n      add\n      keccak256\n        /* \"dNews_entity.sol\":2683:2687  text */\n      dup2\n        /* \"dNews_entity.sol\":2666:2688  abi.encodePacked(text) */\n      add(0x20, mload(0x40))\n      tag_320\n      swap2\n      swap1\n      jump(tag_135)\n    tag_320:\n      mload(0x40)\n        /* \"--CODEGEN--\":49:53   */\n      0x20\n        /* \"--CODEGEN--\":39:46   */\n      dup2\n        /* \"--CODEGEN--\":30:37   */\n      dup4\n        /* \"--CODEGEN--\":26:47   */\n      sub\n        /* \"--CODEGEN--\":22:54   */\n      sub\n        /* \"--CODEGEN--\":13:20   */\n      dup2\n        /* \"--CODEGEN--\":6:55   */\n      mstore\n        /* \"dNews_entity.sol\":2666:2688  abi.encodePacked(text) */\n      swap1\n      0x40\n      mstore\n        /* \"dNews_entity.sol\":2656:2689  keccak256(abi.encodePacked(text)) */\n      dup1\n      mload\n      swap1\n      0x20\n      add\n      keccak256\n        /* \"dNews_entity.sol\":2656:2727  keccak256(abi.encodePacked(text)) == keccak256(abi.encodePacked(\"Yes\")) */\n      eq\n        /* \"dNews_entity.sol\":2648:2728  require(keccak256(abi.encodePacked(text)) == keccak256(abi.encodePacked(\"Yes\"))) */\n      tag_321\n      jumpi\n        /* \"--CODEGEN--\":12:13   */\n      0x00\n        /* \"--CODEGEN--\":9:10   */\n      dup1\n        /* \"--CODEGEN--\":2:14   */\n      revert\n        /* \"dNews_entity.sol\":2648:2728  require(keccak256(abi.encodePacked(text)) == keccak256(abi.encodePacked(\"Yes\"))) */\n    tag_321:\n        /* \"dNews_entity.sol\":2394:2736  function mediaLogin(address mediaAddr) public view{\r... */\n      pop\n      pop\n      pop\n      jump\t// out\n        /* \"dNews_entity.sol\":6950:7036  mapping (address =>mapping(address=>news_content[])) public Check_Waiting_ChildContent */\n    tag_109:\n      mstore(0x20, 0x0b)\n      dup3\n      0x00\n      mstore\n      mstore(0x20, keccak256(0x00, 0x40))\n      dup2\n      0x00\n      mstore\n      keccak256(0x00, 0x40)\n      dup2\n      dup2\n      sload\n      dup2\n      lt\n      tag_322\n      jumpi\n      invalid\n    tag_322:\n      swap1\n      0x00\n      mstore\n      keccak256(0x00, 0x20)\n      swap1\n      0x08\n      mul\n      add\n      0x00\n      swap3\n      pop\n      swap3\n      pop\n      pop\n      pop\n      dup1\n      0x00\n      add\n      dup1\n      sload\n      0x01\n      dup2\n      0x01\n      and\n      iszero\n      0x0100\n      mul\n      sub\n      and\n      0x02\n      swap1\n      div\n      dup1\n      0x1f\n      add\n      0x20\n      dup1\n      swap2\n      div\n      mul\n      0x20\n      add\n      mload(0x40)\n      swap1\n      dup2\n      add\n      0x40\n      mstore\n      dup1\n      swap3\n      swap2\n      swap1\n      dup2\n      dup2\n      mstore\n      0x20\n      add\n      dup3\n      dup1\n      sload\n      0x01\n      dup2\n      0x01\n      and\n      iszero\n      0x0100\n      mul\n      sub\n      and\n      0x02\n      swap1\n      div\n      dup1\n      iszero\n      tag_324\n      jumpi\n      dup1\n      0x1f\n      lt\n      tag_325\n      jumpi\n      0x0100\n      dup1\n      dup4\n      sload\n      div\n      mul\n      dup4\n      mstore\n      swap2\n      0x20\n      add\n      swap2\n      jump(tag_324)\n    tag_325:\n      dup3\n      add\n      swap2\n      swap1\n      0x00\n      mstore\n      keccak256(0x00, 0x20)\n      swap1\n    tag_326:\n      dup2\n      sload\n      dup2\n      mstore\n      swap1\n      0x01\n      add\n      swap1\n      0x20\n      add\n      dup1\n      dup4\n      gt\n      tag_326\n      jumpi\n      dup3\n      swap1\n      sub\n      0x1f\n      and\n      dup3\n      add\n      swap2\n    tag_324:\n      pop\n      pop\n      pop\n      pop\n      pop\n      swap1\n      dup1\n      0x01\n      add\n      0x00\n      swap1\n      sload\n      swap1\n      0x0100\n      exp\n      swap1\n      div\n      0xffffffffffffffffffffffffffffffffffffffff\n      and\n      swap1\n      dup1\n      0x02\n      add\n      dup1\n      sload\n      0x01\n      dup2\n      0x01\n      and\n      iszero\n      0x0100\n      mul\n      sub\n      and\n      0x02\n      swap1\n      div\n      dup1\n      0x1f\n      add\n      0x20\n      dup1\n      swap2\n      div\n      mul\n      0x20\n      add\n      mload(0x40)\n      swap1\n      dup2\n      add\n      0x40\n      mstore\n      dup1\n      swap3\n      swap2\n      swap1\n      dup2\n      dup2\n      mstore\n      0x20\n      add\n      dup3\n      dup1\n      sload\n      0x01\n      dup2\n      0x01\n      and\n      iszero\n      0x0100\n      mul\n      sub\n      and\n      0x02\n      swap1\n      div\n      dup1\n      iszero\n      tag_327\n      jumpi\n      dup1\n      0x1f\n      lt\n      tag_328\n      jumpi\n      0x0100\n      dup1\n      dup4\n      sload\n      div\n      mul\n      dup4\n      mstore\n      swap2\n      0x20\n      add\n      swap2\n      jump(tag_327)\n    tag_328:\n      dup3\n      add\n      swap2\n      swap1\n      0x00\n      mstore\n      keccak256(0x00, 0x20)\n      swap1\n    tag_329:\n      dup2\n      sload\n      dup2\n      mstore\n      swap1\n      0x01\n      add\n      swap1\n      0x20\n      add\n      dup1\n      dup4\n      gt\n      tag_329\n      jumpi\n      dup3\n      swap1\n      sub\n      0x1f\n      and\n      dup3\n      add\n      swap2\n    tag_327:\n      pop\n      pop\n      pop\n      pop\n      pop\n      swap1\n      dup1\n      0x03\n      add\n      0x00\n      swap1\n      sload\n      swap1\n      0x0100\n      exp\n      swap1\n      div\n      0xffffffffffffffffffffffffffffffffffffffff\n      and\n      swap1\n      dup1\n      0x04\n      add\n      dup1\n      sload\n      0x01\n      dup2\n      0x01\n      and\n      iszero\n      0x0100\n      mul\n      sub\n      and\n      0x02\n      swap1\n      div\n      dup1\n      0x1f\n      add\n      0x20\n      dup1\n      swap2\n      div\n      mul\n      0x20\n      add\n      mload(0x40)\n      swap1\n      dup2\n      add\n      0x40\n      mstore\n      dup1\n      swap3\n      swap2\n      swap1\n      dup2\n      dup2\n      mstore\n      0x20\n      add\n      dup3\n      dup1\n      sload\n      0x01\n      dup2\n      0x01\n      and\n      iszero\n      0x0100\n      mul\n      sub\n      and\n      0x02\n      swap1\n      div\n      dup1\n      iszero\n      tag_330\n      jumpi\n      dup1\n      0x1f\n      lt\n      tag_331\n      jumpi\n      0x0100\n      dup1\n      dup4\n      sload\n      div\n      mul\n      dup4\n      mstore\n      swap2\n      0x20\n      add\n      swap2\n      jump(tag_330)\n    tag_331:\n      dup3\n      add\n      swap2\n      swap1\n      0x00\n      mstore\n      keccak256(0x00, 0x20)\n      swap1\n    tag_332:\n      dup2\n      sload\n      dup2\n      mstore\n      swap1\n      0x01\n      add\n      swap1\n      0x20\n      add\n      dup1\n      dup4\n      gt\n      tag_332\n      jumpi\n      dup3\n      swap1\n      sub\n      0x1f\n      and\n      dup3\n      add\n      swap2\n    tag_330:\n      pop\n      pop\n      pop\n      pop\n      pop\n      swap1\n      dup1\n      0x05\n      add\n      sload\n      swap1\n      dup1\n      0x06\n      add\n      sload\n      swap1\n      dup1\n      0x07\n      add\n      sload\n      swap1\n      pop\n      dup9\n      jump\t// out\n        /* \"dNews_entity.sol\":187:11404  contract Certificate {\r... */\n    tag_143:\n      mload(0x40)\n      dup1\n      0xc0\n      add\n      0x40\n      mstore\n      dup1\n      0x60\n      dup2\n      mstore\n      0x20\n      add\n      and(0xffffffffffffffffffffffffffffffffffffffff, 0x00)\n      dup2\n      mstore\n      0x20\n      add\n      0x60\n      dup2\n      mstore\n      0x20\n      add\n      and(0xffffffffffffffffffffffffffffffffffffffff, 0x00)\n      dup2\n      mstore\n      0x20\n      add\n      0x60\n      dup2\n      mstore\n      0x20\n      add\n      0x60\n      dup2\n      mstore\n      pop\n      swap1\n      jump\t// out\n    tag_146:\n      dup3\n      dup1\n      sload\n      0x01\n      dup2\n      0x01\n      and\n      iszero\n      0x0100\n      mul\n      sub\n      and\n      0x02\n      swap1\n      div\n      swap1\n      0x00\n      mstore\n      keccak256(0x00, 0x20)\n      swap1\n      0x1f\n      add\n      0x20\n      swap1\n      div\n      dup2\n      add\n      swap3\n      dup3\n      0x1f\n      lt\n      tag_334\n      jumpi\n      dup1\n      mload\n      not(0xff)\n      and\n      dup4\n      dup1\n      add\n      or\n      dup6\n      sstore\n      jump(tag_333)\n    tag_334:\n      dup3\n      dup1\n      add\n      0x01\n      add\n      dup6\n      sstore\n      dup3\n      iszero\n      tag_333\n      jumpi\n      swap2\n      dup3\n      add\n    tag_335:\n      dup3\n      dup2\n      gt\n      iszero\n      tag_336\n      jumpi\n      dup3\n      mload\n      dup3\n      sstore\n      swap2\n      0x20\n      add\n      swap2\n      swap1\n      0x01\n      add\n      swap1\n      jump(tag_335)\n    tag_336:\n    tag_333:\n      pop\n      swap1\n      pop\n      tag_337\n      swap2\n      swap1\n      tag_338\n      jump\t// in\n    tag_337:\n      pop\n      swap1\n      jump\t// out\n    tag_153:\n      mload(0x40)\n      dup1\n      0x0100\n      add\n      0x40\n      mstore\n      dup1\n      0x60\n      dup2\n      mstore\n      0x20\n      add\n      and(0xffffffffffffffffffffffffffffffffffffffff, 0x00)\n      dup2\n      mstore\n      0x20\n      add\n      0x60\n      dup2\n      mstore\n      0x20\n      add\n      and(0xffffffffffffffffffffffffffffffffffffffff, 0x00)\n      dup2\n      mstore\n      0x20\n      add\n      0x60\n      dup2\n      mstore\n      0x20\n      add\n      0x00\n      dup1\n      not\n      and\n      dup2\n      mstore\n      0x20\n      add\n      0x00\n      dup2\n      mstore\n      0x20\n      add\n      0x00\n      dup2\n      mstore\n      pop\n      swap1\n      jump\t// out\n    tag_208:\n      mload(0x40)\n      dup1\n      0xa0\n      add\n      0x40\n      mstore\n      dup1\n      0x00\n      0x05\n      dup2\n      gt\n      iszero\n      tag_339\n      jumpi\n      invalid\n    tag_339:\n      dup2\n      mstore\n      0x20\n      add\n      and(0xffffffffffffffffffffffffffffffffffffffff, 0x00)\n      dup2\n      mstore\n      0x20\n      add\n      0x00\n      dup2\n      mstore\n      0x20\n      add\n      0x00\n      dup1\n      not\n      and\n      dup2\n      mstore\n      0x20\n      add\n      iszero(iszero(0x00))\n      dup2\n      mstore\n      pop\n      swap1\n      jump\t// out\n    tag_301:\n      mload(0x40)\n      dup1\n      0xe0\n      add\n      0x40\n      mstore\n      dup1\n      0x60\n      dup2\n      mstore\n      0x20\n      add\n      and(0xffffffffffffffffffffffffffffffffffffffff, 0x00)\n      dup2\n      mstore\n      0x20\n      add\n      0x60\n      dup2\n      mstore\n      0x20\n      add\n      and(0xffffffffffffffffffffffffffffffffffffffff, 0x00)\n      dup2\n      mstore\n      0x20\n      add\n      0x60\n      dup2\n      mstore\n      0x20\n      add\n      0x60\n      dup2\n      mstore\n      0x20\n      add\n      0x60\n      dup2\n      mstore\n      pop\n      swap1\n      jump\t// out\n    tag_338:\n      tag_340\n      swap2\n      swap1\n    tag_341:\n      dup1\n      dup3\n      gt\n      iszero\n      tag_342\n      jumpi\n      0x00\n      dup2\n      0x00\n      swap1\n      sstore\n      pop\n      0x01\n      add\n      jump(tag_341)\n    tag_342:\n      pop\n      swap1\n      jump\n    tag_340:\n      swap1\n      jump\t// out\n        /* \"--CODEGEN--\":5:135   */\n    tag_344:\n      0x00\n        /* \"--CODEGEN--\":85:91   */\n      dup2\n        /* \"--CODEGEN--\":72:92   */\n      calldataload\n        /* \"--CODEGEN--\":63:92   */\n      swap1\n      pop\n        /* \"--CODEGEN--\":97:130   */\n      tag_346\n        /* \"--CODEGEN--\":124:129   */\n      dup2\n        /* \"--CODEGEN--\":97:130   */\n      jump(tag_347)\n    tag_346:\n        /* \"--CODEGEN--\":57:135   */\n      swap3\n      swap2\n      pop\n      pop\n      jump\n        /* \"--CODEGEN--\":142:266   */\n    tag_348:\n      0x00\n        /* \"--CODEGEN--\":219:225   */\n      dup2\n        /* \"--CODEGEN--\":206:226   */\n      calldataload\n        /* \"--CODEGEN--\":197:226   */\n      swap1\n      pop\n        /* \"--CODEGEN--\":231:261   */\n      tag_350\n        /* \"--CODEGEN--\":255:260   */\n      dup2\n        /* \"--CODEGEN--\":231:261   */\n      jump(tag_351)\n    tag_350:\n        /* \"--CODEGEN--\":191:266   */\n      swap3\n      swap2\n      pop\n      pop\n      jump\n        /* \"--CODEGEN--\":273:403   */\n    tag_352:\n      0x00\n        /* \"--CODEGEN--\":353:359   */\n      dup2\n        /* \"--CODEGEN--\":340:360   */\n      calldataload\n        /* \"--CODEGEN--\":331:360   */\n      swap1\n      pop\n        /* \"--CODEGEN--\":365:398   */\n      tag_354\n        /* \"--CODEGEN--\":392:397   */\n      dup2\n        /* \"--CODEGEN--\":365:398   */\n      jump(tag_355)\n    tag_354:\n        /* \"--CODEGEN--\":325:403   */\n      swap3\n      swap2\n      pop\n      pop\n      jump\n        /* \"--CODEGEN--\":411:853   */\n    tag_356:\n      0x00\n        /* \"--CODEGEN--\":513:516   */\n      dup3\n        /* \"--CODEGEN--\":506:510   */\n      0x1f\n        /* \"--CODEGEN--\":498:504   */\n      dup4\n        /* \"--CODEGEN--\":494:511   */\n      add\n        /* \"--CODEGEN--\":490:517   */\n      slt\n        /* \"--CODEGEN--\":480:482   */\n      tag_358\n      jumpi\n        /* \"--CODEGEN--\":531:532   */\n      0x00\n        /* \"--CODEGEN--\":528:529   */\n      dup1\n        /* \"--CODEGEN--\":521:533   */\n      revert\n        /* \"--CODEGEN--\":480:482   */\n    tag_358:\n        /* \"--CODEGEN--\":568:574   */\n      dup2\n        /* \"--CODEGEN--\":555:575   */\n      calldataload\n        /* \"--CODEGEN--\":590:655   */\n      tag_359\n        /* \"--CODEGEN--\":605:654   */\n      tag_360\n        /* \"--CODEGEN--\":647:653   */\n      dup3\n        /* \"--CODEGEN--\":605:654   */\n      jump(tag_361)\n    tag_360:\n        /* \"--CODEGEN--\":590:655   */\n      jump(tag_362)\n    tag_359:\n        /* \"--CODEGEN--\":581:655   */\n      swap2\n      pop\n        /* \"--CODEGEN--\":675:681   */\n      dup1\n        /* \"--CODEGEN--\":668:673   */\n      dup3\n        /* \"--CODEGEN--\":661:682   */\n      mstore\n        /* \"--CODEGEN--\":711:715   */\n      0x20\n        /* \"--CODEGEN--\":703:709   */\n      dup4\n        /* \"--CODEGEN--\":699:716   */\n      add\n        /* \"--CODEGEN--\":744:748   */\n      0x20\n        /* \"--CODEGEN--\":737:742   */\n      dup4\n        /* \"--CODEGEN--\":733:749   */\n      add\n        /* \"--CODEGEN--\":779:782   */\n      dup6\n        /* \"--CODEGEN--\":770:776   */\n      dup4\n        /* \"--CODEGEN--\":765:768   */\n      dup4\n        /* \"--CODEGEN--\":761:777   */\n      add\n        /* \"--CODEGEN--\":758:783   */\n      gt\n        /* \"--CODEGEN--\":755:757   */\n      iszero\n      tag_363\n      jumpi\n        /* \"--CODEGEN--\":796:797   */\n      0x00\n        /* \"--CODEGEN--\":793:794   */\n      dup1\n        /* \"--CODEGEN--\":786:798   */\n      revert\n        /* \"--CODEGEN--\":755:757   */\n    tag_363:\n        /* \"--CODEGEN--\":806:847   */\n      tag_364\n        /* \"--CODEGEN--\":840:846   */\n      dup4\n        /* \"--CODEGEN--\":835:838   */\n      dup3\n        /* \"--CODEGEN--\":830:833   */\n      dup5\n        /* \"--CODEGEN--\":806:847   */\n      jump(tag_365)\n    tag_364:\n        /* \"--CODEGEN--\":473:853   */\n      pop\n      pop\n      pop\n      swap3\n      swap2\n      pop\n      pop\n      jump\n        /* \"--CODEGEN--\":862:1306   */\n    tag_366:\n      0x00\n        /* \"--CODEGEN--\":975:978   */\n      dup3\n        /* \"--CODEGEN--\":968:972   */\n      0x1f\n        /* \"--CODEGEN--\":960:966   */\n      dup4\n        /* \"--CODEGEN--\":956:973   */\n      add\n        /* \"--CODEGEN--\":952:979   */\n      slt\n        /* \"--CODEGEN--\":942:944   */\n      tag_368\n      jumpi\n        /* \"--CODEGEN--\":993:994   */\n      0x00\n        /* \"--CODEGEN--\":990:991   */\n      dup1\n        /* \"--CODEGEN--\":983:995   */\n      revert\n        /* \"--CODEGEN--\":942:944   */\n    tag_368:\n        /* \"--CODEGEN--\":1023:1029   */\n      dup2\n        /* \"--CODEGEN--\":1017:1030   */\n      mload\n        /* \"--CODEGEN--\":1045:1110   */\n      tag_369\n        /* \"--CODEGEN--\":1060:1109   */\n      tag_370\n        /* \"--CODEGEN--\":1102:1108   */\n      dup3\n        /* \"--CODEGEN--\":1060:1109   */\n      jump(tag_361)\n    tag_370:\n        /* \"--CODEGEN--\":1045:1110   */\n      jump(tag_362)\n    tag_369:\n        /* \"--CODEGEN--\":1036:1110   */\n      swap2\n      pop\n        /* \"--CODEGEN--\":1130:1136   */\n      dup1\n        /* \"--CODEGEN--\":1123:1128   */\n      dup3\n        /* \"--CODEGEN--\":1116:1137   */\n      mstore\n        /* \"--CODEGEN--\":1166:1170   */\n      0x20\n        /* \"--CODEGEN--\":1158:1164   */\n      dup4\n        /* \"--CODEGEN--\":1154:1171   */\n      add\n        /* \"--CODEGEN--\":1199:1203   */\n      0x20\n        /* \"--CODEGEN--\":1192:1197   */\n      dup4\n        /* \"--CODEGEN--\":1188:1204   */\n      add\n        /* \"--CODEGEN--\":1234:1237   */\n      dup6\n        /* \"--CODEGEN--\":1225:1231   */\n      dup4\n        /* \"--CODEGEN--\":1220:1223   */\n      dup4\n        /* \"--CODEGEN--\":1216:1232   */\n      add\n        /* \"--CODEGEN--\":1213:1238   */\n      gt\n        /* \"--CODEGEN--\":1210:1212   */\n      iszero\n      tag_371\n      jumpi\n        /* \"--CODEGEN--\":1251:1252   */\n      0x00\n        /* \"--CODEGEN--\":1248:1249   */\n      dup1\n        /* \"--CODEGEN--\":1241:1253   */\n      revert\n        /* \"--CODEGEN--\":1210:1212   */\n    tag_371:\n        /* \"--CODEGEN--\":1261:1300   */\n      tag_372\n        /* \"--CODEGEN--\":1293:1299   */\n      dup4\n        /* \"--CODEGEN--\":1288:1291   */\n      dup3\n        /* \"--CODEGEN--\":1283:1286   */\n      dup5\n        /* \"--CODEGEN--\":1261:1300   */\n      jump(tag_373)\n    tag_372:\n        /* \"--CODEGEN--\":935:1306   */\n      pop\n      pop\n      pop\n      swap3\n      swap2\n      pop\n      pop\n      jump\n        /* \"--CODEGEN--\":1314:1444   */\n    tag_374:\n      0x00\n        /* \"--CODEGEN--\":1394:1400   */\n      dup2\n        /* \"--CODEGEN--\":1381:1401   */\n      calldataload\n        /* \"--CODEGEN--\":1372:1401   */\n      swap1\n      pop\n        /* \"--CODEGEN--\":1406:1439   */\n      tag_376\n        /* \"--CODEGEN--\":1433:1438   */\n      dup2\n        /* \"--CODEGEN--\":1406:1439   */\n      jump(tag_377)\n    tag_376:\n        /* \"--CODEGEN--\":1366:1444   */\n      swap3\n      swap2\n      pop\n      pop\n      jump\n        /* \"--CODEGEN--\":1451:1692   */\n    tag_90:\n      0x00\n        /* \"--CODEGEN--\":1555:1557   */\n      0x20\n        /* \"--CODEGEN--\":1543:1552   */\n      dup3\n        /* \"--CODEGEN--\":1534:1541   */\n      dup5\n        /* \"--CODEGEN--\":1530:1553   */\n      sub\n        /* \"--CODEGEN--\":1526:1558   */\n      slt\n        /* \"--CODEGEN--\":1523:1525   */\n      iszero\n      tag_379\n      jumpi\n        /* \"--CODEGEN--\":1571:1572   */\n      0x00\n        /* \"--CODEGEN--\":1568:1569   */\n      dup1\n        /* \"--CODEGEN--\":1561:1573   */\n      revert\n        /* \"--CODEGEN--\":1523:1525   */\n    tag_379:\n        /* \"--CODEGEN--\":1606:1607   */\n      0x00\n        /* \"--CODEGEN--\":1623:1676   */\n      tag_380\n        /* \"--CODEGEN--\":1668:1675   */\n      dup5\n        /* \"--CODEGEN--\":1659:1665   */\n      dup3\n        /* \"--CODEGEN--\":1648:1657   */\n      dup6\n        /* \"--CODEGEN--\":1644:1666   */\n      add\n        /* \"--CODEGEN--\":1623:1676   */\n      jump(tag_344)\n    tag_380:\n        /* \"--CODEGEN--\":1613:1676   */\n      swap2\n      pop\n        /* \"--CODEGEN--\":1585:1682   */\n      pop\n        /* \"--CODEGEN--\":1517:1692   */\n      swap3\n      swap2\n      pop\n      pop\n      jump\n        /* \"--CODEGEN--\":1699:2065   */\n    tag_38:\n      0x00\n      dup1\n        /* \"--CODEGEN--\":1820:1822   */\n      0x40\n        /* \"--CODEGEN--\":1808:1817   */\n      dup4\n        /* \"--CODEGEN--\":1799:1806   */\n      dup6\n        /* \"--CODEGEN--\":1795:1818   */\n      sub\n        /* \"--CODEGEN--\":1791:1823   */\n      slt\n        /* \"--CODEGEN--\":1788:1790   */\n      iszero\n      tag_382\n      jumpi\n        /* \"--CODEGEN--\":1836:1837   */\n      0x00\n        /* \"--CODEGEN--\":1833:1834   */\n      dup1\n        /* \"--CODEGEN--\":1826:1838   */\n      revert\n        /* \"--CODEGEN--\":1788:1790   */\n    tag_382:\n        /* \"--CODEGEN--\":1871:1872   */\n      0x00\n        /* \"--CODEGEN--\":1888:1941   */\n      tag_383\n        /* \"--CODEGEN--\":1933:1940   */\n      dup6\n        /* \"--CODEGEN--\":1924:1930   */\n      dup3\n        /* \"--CODEGEN--\":1913:1922   */\n      dup7\n        /* \"--CODEGEN--\":1909:1931   */\n      add\n        /* \"--CODEGEN--\":1888:1941   */\n      jump(tag_344)\n    tag_383:\n        /* \"--CODEGEN--\":1878:1941   */\n      swap3\n      pop\n        /* \"--CODEGEN--\":1850:1947   */\n      pop\n        /* \"--CODEGEN--\":1978:1980   */\n      0x20\n        /* \"--CODEGEN--\":1996:2049   */\n      tag_384\n        /* \"--CODEGEN--\":2041:2048   */\n      dup6\n        /* \"--CODEGEN--\":2032:2038   */\n      dup3\n        /* \"--CODEGEN--\":2021:2030   */\n      dup7\n        /* \"--CODEGEN--\":2017:2039   */\n      add\n        /* \"--CODEGEN--\":1996:2049   */\n      jump(tag_344)\n    tag_384:\n        /* \"--CODEGEN--\":1986:2049   */\n      swap2\n      pop\n        /* \"--CODEGEN--\":1957:2055   */\n      pop\n        /* \"--CODEGEN--\":1782:2065   */\n      swap3\n      pop\n      swap3\n      swap1\n      pop\n      jump\n        /* \"--CODEGEN--\":2072:2563   */\n    tag_28:\n      0x00\n      dup1\n      0x00\n        /* \"--CODEGEN--\":2210:2212   */\n      0x60\n        /* \"--CODEGEN--\":2198:2207   */\n      dup5\n        /* \"--CODEGEN--\":2189:2196   */\n      dup7\n        /* \"--CODEGEN--\":2185:2208   */\n      sub\n        /* \"--CODEGEN--\":2181:2213   */\n      slt\n        /* \"--CODEGEN--\":2178:2180   */\n      iszero\n      tag_386\n      jumpi\n        /* \"--CODEGEN--\":2226:2227   */\n      0x00\n        /* \"--CODEGEN--\":2223:2224   */\n      dup1\n        /* \"--CODEGEN--\":2216:2228   */\n      revert\n        /* \"--CODEGEN--\":2178:2180   */\n    tag_386:\n        /* \"--CODEGEN--\":2261:2262   */\n      0x00\n        /* \"--CODEGEN--\":2278:2331   */\n      tag_387\n        /* \"--CODEGEN--\":2323:2330   */\n      dup7\n        /* \"--CODEGEN--\":2314:2320   */\n      dup3\n        /* \"--CODEGEN--\":2303:2312   */\n      dup8\n        /* \"--CODEGEN--\":2299:2321   */\n      add\n        /* \"--CODEGEN--\":2278:2331   */\n      jump(tag_344)\n    tag_387:\n        /* \"--CODEGEN--\":2268:2331   */\n      swap4\n      pop\n        /* \"--CODEGEN--\":2240:2337   */\n      pop\n        /* \"--CODEGEN--\":2368:2370   */\n      0x20\n        /* \"--CODEGEN--\":2386:2439   */\n      tag_388\n        /* \"--CODEGEN--\":2431:2438   */\n      dup7\n        /* \"--CODEGEN--\":2422:2428   */\n      dup3\n        /* \"--CODEGEN--\":2411:2420   */\n      dup8\n        /* \"--CODEGEN--\":2407:2429   */\n      add\n        /* \"--CODEGEN--\":2386:2439   */\n      jump(tag_344)\n    tag_388:\n        /* \"--CODEGEN--\":2376:2439   */\n      swap3\n      pop\n        /* \"--CODEGEN--\":2347:2445   */\n      pop\n        /* \"--CODEGEN--\":2476:2478   */\n      0x40\n        /* \"--CODEGEN--\":2494:2547   */\n      tag_389\n        /* \"--CODEGEN--\":2539:2546   */\n      dup7\n        /* \"--CODEGEN--\":2530:2536   */\n      dup3\n        /* \"--CODEGEN--\":2519:2528   */\n      dup8\n        /* \"--CODEGEN--\":2515:2537   */\n      add\n        /* \"--CODEGEN--\":2494:2547   */\n      jump(tag_374)\n    tag_389:\n        /* \"--CODEGEN--\":2484:2547   */\n      swap2\n      pop\n        /* \"--CODEGEN--\":2455:2553   */\n      pop\n        /* \"--CODEGEN--\":2172:2563   */\n      swap3\n      pop\n      swap3\n      pop\n      swap3\n      jump\n        /* \"--CODEGEN--\":2570:2936   */\n    tag_69:\n      0x00\n      dup1\n        /* \"--CODEGEN--\":2691:2693   */\n      0x40\n        /* \"--CODEGEN--\":2679:2688   */\n      dup4\n        /* \"--CODEGEN--\":2670:2677   */\n      dup6\n        /* \"--CODEGEN--\":2666:2689   */\n      sub\n        /* \"--CODEGEN--\":2662:2694   */\n      slt\n        /* \"--CODEGEN--\":2659:2661   */\n      iszero\n      tag_391\n      jumpi\n        /* \"--CODEGEN--\":2707:2708   */\n      0x00\n        /* \"--CODEGEN--\":2704:2705   */\n      dup1\n        /* \"--CODEGEN--\":2697:2709   */\n      revert\n        /* \"--CODEGEN--\":2659:2661   */\n    tag_391:\n        /* \"--CODEGEN--\":2742:2743   */\n      0x00\n        /* \"--CODEGEN--\":2759:2812   */\n      tag_392\n        /* \"--CODEGEN--\":2804:2811   */\n      dup6\n        /* \"--CODEGEN--\":2795:2801   */\n      dup3\n        /* \"--CODEGEN--\":2784:2793   */\n      dup7\n        /* \"--CODEGEN--\":2780:2802   */\n      add\n        /* \"--CODEGEN--\":2759:2812   */\n      jump(tag_344)\n    tag_392:\n        /* \"--CODEGEN--\":2749:2812   */\n      swap3\n      pop\n        /* \"--CODEGEN--\":2721:2818   */\n      pop\n        /* \"--CODEGEN--\":2849:2851   */\n      0x20\n        /* \"--CODEGEN--\":2867:2920   */\n      tag_393\n        /* \"--CODEGEN--\":2912:2919   */\n      dup6\n        /* \"--CODEGEN--\":2903:2909   */\n      dup3\n        /* \"--CODEGEN--\":2892:2901   */\n      dup7\n        /* \"--CODEGEN--\":2888:2910   */\n      add\n        /* \"--CODEGEN--\":2867:2920   */\n      jump(tag_374)\n    tag_393:\n        /* \"--CODEGEN--\":2857:2920   */\n      swap2\n      pop\n        /* \"--CODEGEN--\":2828:2926   */\n      pop\n        /* \"--CODEGEN--\":2653:2936   */\n      swap3\n      pop\n      swap3\n      swap1\n      pop\n      jump\n        /* \"--CODEGEN--\":2943:3428   */\n    tag_59:\n      0x00\n      dup1\n      0x00\n        /* \"--CODEGEN--\":3078:3080   */\n      0x60\n        /* \"--CODEGEN--\":3066:3075   */\n      dup5\n        /* \"--CODEGEN--\":3057:3064   */\n      dup7\n        /* \"--CODEGEN--\":3053:3076   */\n      sub\n        /* \"--CODEGEN--\":3049:3081   */\n      slt\n        /* \"--CODEGEN--\":3046:3048   */\n      iszero\n      tag_395\n      jumpi\n        /* \"--CODEGEN--\":3094:3095   */\n      0x00\n        /* \"--CODEGEN--\":3091:3092   */\n      dup1\n        /* \"--CODEGEN--\":3084:3096   */\n      revert\n        /* \"--CODEGEN--\":3046:3048   */\n    tag_395:\n        /* \"--CODEGEN--\":3129:3130   */\n      0x00\n        /* \"--CODEGEN--\":3146:3196   */\n      tag_396\n        /* \"--CODEGEN--\":3188:3195   */\n      dup7\n        /* \"--CODEGEN--\":3179:3185   */\n      dup3\n        /* \"--CODEGEN--\":3168:3177   */\n      dup8\n        /* \"--CODEGEN--\":3164:3186   */\n      add\n        /* \"--CODEGEN--\":3146:3196   */\n      jump(tag_348)\n    tag_396:\n        /* \"--CODEGEN--\":3136:3196   */\n      swap4\n      pop\n        /* \"--CODEGEN--\":3108:3202   */\n      pop\n        /* \"--CODEGEN--\":3233:3235   */\n      0x20\n        /* \"--CODEGEN--\":3251:3304   */\n      tag_397\n        /* \"--CODEGEN--\":3296:3303   */\n      dup7\n        /* \"--CODEGEN--\":3287:3293   */\n      dup3\n        /* \"--CODEGEN--\":3276:3285   */\n      dup8\n        /* \"--CODEGEN--\":3272:3294   */\n      add\n        /* \"--CODEGEN--\":3251:3304   */\n      jump(tag_344)\n    tag_397:\n        /* \"--CODEGEN--\":3241:3304   */\n      swap3\n      pop\n        /* \"--CODEGEN--\":3212:3310   */\n      pop\n        /* \"--CODEGEN--\":3341:3343   */\n      0x40\n        /* \"--CODEGEN--\":3359:3412   */\n      tag_398\n        /* \"--CODEGEN--\":3404:3411   */\n      dup7\n        /* \"--CODEGEN--\":3395:3401   */\n      dup3\n        /* \"--CODEGEN--\":3384:3393   */\n      dup8\n        /* \"--CODEGEN--\":3380:3402   */\n      add\n        /* \"--CODEGEN--\":3359:3412   */\n      jump(tag_374)\n    tag_398:\n        /* \"--CODEGEN--\":3349:3412   */\n      swap2\n      pop\n        /* \"--CODEGEN--\":3320:3418   */\n      pop\n        /* \"--CODEGEN--\":3040:3428   */\n      swap3\n      pop\n      swap3\n      pop\n      swap3\n      jump\n        /* \"--CODEGEN--\":3435:4278   */\n    tag_86:\n      0x00\n      dup1\n      0x00\n      dup1\n      0x00\n        /* \"--CODEGEN--\":3614:3617   */\n      0xa0\n        /* \"--CODEGEN--\":3602:3611   */\n      dup7\n        /* \"--CODEGEN--\":3593:3600   */\n      dup9\n        /* \"--CODEGEN--\":3589:3612   */\n      sub\n        /* \"--CODEGEN--\":3585:3618   */\n      slt\n        /* \"--CODEGEN--\":3582:3584   */\n      iszero\n      tag_400\n      jumpi\n        /* \"--CODEGEN--\":3631:3632   */\n      0x00\n        /* \"--CODEGEN--\":3628:3629   */\n      dup1\n        /* \"--CODEGEN--\":3621:3633   */\n      revert\n        /* \"--CODEGEN--\":3582:3584   */\n    tag_400:\n        /* \"--CODEGEN--\":3666:3667   */\n      0x00\n        /* \"--CODEGEN--\":3683:3733   */\n      tag_401\n        /* \"--CODEGEN--\":3725:3732   */\n      dup9\n        /* \"--CODEGEN--\":3716:3722   */\n      dup3\n        /* \"--CODEGEN--\":3705:3714   */\n      dup10\n        /* \"--CODEGEN--\":3701:3723   */\n      add\n        /* \"--CODEGEN--\":3683:3733   */\n      jump(tag_348)\n    tag_401:\n        /* \"--CODEGEN--\":3673:3733   */\n      swap6\n      pop\n        /* \"--CODEGEN--\":3645:3739   */\n      pop\n        /* \"--CODEGEN--\":3770:3772   */\n      0x20\n        /* \"--CODEGEN--\":3788:3841   */\n      tag_402\n        /* \"--CODEGEN--\":3833:3840   */\n      dup9\n        /* \"--CODEGEN--\":3824:3830   */\n      dup3\n        /* \"--CODEGEN--\":3813:3822   */\n      dup10\n        /* \"--CODEGEN--\":3809:3831   */\n      add\n        /* \"--CODEGEN--\":3788:3841   */\n      jump(tag_352)\n    tag_402:\n        /* \"--CODEGEN--\":3778:3841   */\n      swap5\n      pop\n        /* \"--CODEGEN--\":3749:3847   */\n      pop\n        /* \"--CODEGEN--\":3906:3908   */\n      0x40\n        /* \"--CODEGEN--\":3895:3904   */\n      dup7\n        /* \"--CODEGEN--\":3891:3909   */\n      add\n        /* \"--CODEGEN--\":3878:3910   */\n      calldataload\n        /* \"--CODEGEN--\":3930:3948   */\n      0xffffffffffffffff\n        /* \"--CODEGEN--\":3922:3928   */\n      dup2\n        /* \"--CODEGEN--\":3919:3949   */\n      gt\n        /* \"--CODEGEN--\":3916:3918   */\n      iszero\n      tag_403\n      jumpi\n        /* \"--CODEGEN--\":3962:3963   */\n      0x00\n        /* \"--CODEGEN--\":3959:3960   */\n      dup1\n        /* \"--CODEGEN--\":3952:3964   */\n      revert\n        /* \"--CODEGEN--\":3916:3918   */\n    tag_403:\n        /* \"--CODEGEN--\":3982:4045   */\n      tag_404\n        /* \"--CODEGEN--\":4037:4044   */\n      dup9\n        /* \"--CODEGEN--\":4028:4034   */\n      dup3\n        /* \"--CODEGEN--\":4017:4026   */\n      dup10\n        /* \"--CODEGEN--\":4013:4035   */\n      add\n        /* \"--CODEGEN--\":3982:4045   */\n      jump(tag_356)\n    tag_404:\n        /* \"--CODEGEN--\":3972:4045   */\n      swap4\n      pop\n        /* \"--CODEGEN--\":3857:4051   */\n      pop\n        /* \"--CODEGEN--\":4082:4084   */\n      0x60\n        /* \"--CODEGEN--\":4100:4153   */\n      tag_405\n        /* \"--CODEGEN--\":4145:4152   */\n      dup9\n        /* \"--CODEGEN--\":4136:4142   */\n      dup3\n        /* \"--CODEGEN--\":4125:4134   */\n      dup10\n        /* \"--CODEGEN--\":4121:4143   */\n      add\n        /* \"--CODEGEN--\":4100:4153   */\n      jump(tag_344)\n    tag_405:\n        /* \"--CODEGEN--\":4090:4153   */\n      swap3\n      pop\n        /* \"--CODEGEN--\":4061:4159   */\n      pop\n        /* \"--CODEGEN--\":4190:4193   */\n      0x80\n        /* \"--CODEGEN--\":4209:4262   */\n      tag_406\n        /* \"--CODEGEN--\":4254:4261   */\n      dup9\n        /* \"--CODEGEN--\":4245:4251   */\n      dup3\n        /* \"--CODEGEN--\":4234:4243   */\n      dup10\n        /* \"--CODEGEN--\":4230:4252   */\n      add\n        /* \"--CODEGEN--\":4209:4262   */\n      jump(tag_374)\n    tag_406:\n        /* \"--CODEGEN--\":4199:4262   */\n      swap2\n      pop\n        /* \"--CODEGEN--\":4169:4268   */\n      pop\n        /* \"--CODEGEN--\":3576:4278   */\n      swap3\n      swap6\n      pop\n      swap3\n      swap6\n      swap1\n      swap4\n      pop\n      jump\n        /* \"--CODEGEN--\":4285:4902   */\n    tag_63:\n      0x00\n      dup1\n      0x00\n      dup1\n        /* \"--CODEGEN--\":4440:4443   */\n      0x80\n        /* \"--CODEGEN--\":4428:4437   */\n      dup6\n        /* \"--CODEGEN--\":4419:4426   */\n      dup8\n        /* \"--CODEGEN--\":4415:4438   */\n      sub\n        /* \"--CODEGEN--\":4411:4444   */\n      slt\n        /* \"--CODEGEN--\":4408:4410   */\n      iszero\n      tag_408\n      jumpi\n        /* \"--CODEGEN--\":4457:4458   */\n      0x00\n        /* \"--CODEGEN--\":4454:4455   */\n      dup1\n        /* \"--CODEGEN--\":4447:4459   */\n      revert\n        /* \"--CODEGEN--\":4408:4410   */\n    tag_408:\n        /* \"--CODEGEN--\":4492:4493   */\n      0x00\n        /* \"--CODEGEN--\":4509:4562   */\n      tag_409\n        /* \"--CODEGEN--\":4554:4561   */\n      dup8\n        /* \"--CODEGEN--\":4545:4551   */\n      dup3\n        /* \"--CODEGEN--\":4534:4543   */\n      dup9\n        /* \"--CODEGEN--\":4530:4552   */\n      add\n        /* \"--CODEGEN--\":4509:4562   */\n      jump(tag_352)\n    tag_409:\n        /* \"--CODEGEN--\":4499:4562   */\n      swap5\n      pop\n        /* \"--CODEGEN--\":4471:4568   */\n      pop\n        /* \"--CODEGEN--\":4599:4601   */\n      0x20\n        /* \"--CODEGEN--\":4617:4670   */\n      tag_410\n        /* \"--CODEGEN--\":4662:4669   */\n      dup8\n        /* \"--CODEGEN--\":4653:4659   */\n      dup3\n        /* \"--CODEGEN--\":4642:4651   */\n      dup9\n        /* \"--CODEGEN--\":4638:4660   */\n      add\n        /* \"--CODEGEN--\":4617:4670   */\n      jump(tag_344)\n    tag_410:\n        /* \"--CODEGEN--\":4607:4670   */\n      swap4\n      pop\n        /* \"--CODEGEN--\":4578:4676   */\n      pop\n        /* \"--CODEGEN--\":4707:4709   */\n      0x40\n        /* \"--CODEGEN--\":4725:4778   */\n      tag_411\n        /* \"--CODEGEN--\":4770:4777   */\n      dup8\n        /* \"--CODEGEN--\":4761:4767   */\n      dup3\n        /* \"--CODEGEN--\":4750:4759   */\n      dup9\n        /* \"--CODEGEN--\":4746:4768   */\n      add\n        /* \"--CODEGEN--\":4725:4778   */\n      jump(tag_344)\n    tag_411:\n        /* \"--CODEGEN--\":4715:4778   */\n      swap3\n      pop\n        /* \"--CODEGEN--\":4686:4784   */\n      pop\n        /* \"--CODEGEN--\":4815:4817   */\n      0x60\n        /* \"--CODEGEN--\":4833:4886   */\n      tag_412\n        /* \"--CODEGEN--\":4878:4885   */\n      dup8\n        /* \"--CODEGEN--\":4869:4875   */\n      dup3\n        /* \"--CODEGEN--\":4858:4867   */\n      dup9\n        /* \"--CODEGEN--\":4854:4876   */\n      add\n        /* \"--CODEGEN--\":4833:4886   */\n      jump(tag_374)\n    tag_412:\n        /* \"--CODEGEN--\":4823:4886   */\n      swap2\n      pop\n        /* \"--CODEGEN--\":4794:4892   */\n      pop\n        /* \"--CODEGEN--\":4402:4902   */\n      swap3\n      swap6\n      swap2\n      swap5\n      pop\n      swap3\n      pop\n      jump\n        /* \"--CODEGEN--\":4909:5632   */\n    tag_94:\n      0x00\n      dup1\n      0x00\n      dup1\n        /* \"--CODEGEN--\":5074:5077   */\n      0x80\n        /* \"--CODEGEN--\":5062:5071   */\n      dup6\n        /* \"--CODEGEN--\":5053:5060   */\n      dup8\n        /* \"--CODEGEN--\":5049:5072   */\n      sub\n        /* \"--CODEGEN--\":5045:5078   */\n      slt\n        /* \"--CODEGEN--\":5042:5044   */\n      iszero\n      tag_414\n      jumpi\n        /* \"--CODEGEN--\":5091:5092   */\n      0x00\n        /* \"--CODEGEN--\":5088:5089   */\n      dup1\n        /* \"--CODEGEN--\":5081:5093   */\n      revert\n        /* \"--CODEGEN--\":5042:5044   */\n    tag_414:\n        /* \"--CODEGEN--\":5126:5127   */\n      0x00\n        /* \"--CODEGEN--\":5143:5196   */\n      tag_415\n        /* \"--CODEGEN--\":5188:5195   */\n      dup8\n        /* \"--CODEGEN--\":5179:5185   */\n      dup3\n        /* \"--CODEGEN--\":5168:5177   */\n      dup9\n        /* \"--CODEGEN--\":5164:5186   */\n      add\n        /* \"--CODEGEN--\":5143:5196   */\n      jump(tag_352)\n    tag_415:\n        /* \"--CODEGEN--\":5133:5196   */\n      swap5\n      pop\n        /* \"--CODEGEN--\":5105:5202   */\n      pop\n        /* \"--CODEGEN--\":5261:5263   */\n      0x20\n        /* \"--CODEGEN--\":5250:5259   */\n      dup6\n        /* \"--CODEGEN--\":5246:5264   */\n      add\n        /* \"--CODEGEN--\":5233:5265   */\n      calldataload\n        /* \"--CODEGEN--\":5285:5303   */\n      0xffffffffffffffff\n        /* \"--CODEGEN--\":5277:5283   */\n      dup2\n        /* \"--CODEGEN--\":5274:5304   */\n      gt\n        /* \"--CODEGEN--\":5271:5273   */\n      iszero\n      tag_416\n      jumpi\n        /* \"--CODEGEN--\":5317:5318   */\n      0x00\n        /* \"--CODEGEN--\":5314:5315   */\n      dup1\n        /* \"--CODEGEN--\":5307:5319   */\n      revert\n        /* \"--CODEGEN--\":5271:5273   */\n    tag_416:\n        /* \"--CODEGEN--\":5337:5400   */\n      tag_417\n        /* \"--CODEGEN--\":5392:5399   */\n      dup8\n        /* \"--CODEGEN--\":5383:5389   */\n      dup3\n        /* \"--CODEGEN--\":5372:5381   */\n      dup9\n        /* \"--CODEGEN--\":5368:5390   */\n      add\n        /* \"--CODEGEN--\":5337:5400   */\n      jump(tag_356)\n    tag_417:\n        /* \"--CODEGEN--\":5327:5400   */\n      swap4\n      pop\n        /* \"--CODEGEN--\":5212:5406   */\n      pop\n        /* \"--CODEGEN--\":5437:5439   */\n      0x40\n        /* \"--CODEGEN--\":5455:5508   */\n      tag_418\n        /* \"--CODEGEN--\":5500:5507   */\n      dup8\n        /* \"--CODEGEN--\":5491:5497   */\n      dup3\n        /* \"--CODEGEN--\":5480:5489   */\n      dup9\n        /* \"--CODEGEN--\":5476:5498   */\n      add\n        /* \"--CODEGEN--\":5455:5508   */\n      jump(tag_344)\n    tag_418:\n        /* \"--CODEGEN--\":5445:5508   */\n      swap3\n      pop\n        /* \"--CODEGEN--\":5416:5514   */\n      pop\n        /* \"--CODEGEN--\":5545:5547   */\n      0x60\n        /* \"--CODEGEN--\":5563:5616   */\n      tag_419\n        /* \"--CODEGEN--\":5608:5615   */\n      dup8\n        /* \"--CODEGEN--\":5599:5605   */\n      dup3\n        /* \"--CODEGEN--\":5588:5597   */\n      dup9\n        /* \"--CODEGEN--\":5584:5606   */\n      add\n        /* \"--CODEGEN--\":5563:5616   */\n      jump(tag_374)\n    tag_419:\n        /* \"--CODEGEN--\":5553:5616   */\n      swap2\n      pop\n        /* \"--CODEGEN--\":5524:5622   */\n      pop\n        /* \"--CODEGEN--\":5036:5632   */\n      swap3\n      swap6\n      swap2\n      swap5\n      pop\n      swap3\n      pop\n      jump\n        /* \"--CODEGEN--\":5639:6001   */\n    tag_131:\n      0x00\n        /* \"--CODEGEN--\":5764:5766   */\n      0x20\n        /* \"--CODEGEN--\":5752:5761   */\n      dup3\n        /* \"--CODEGEN--\":5743:5750   */\n      dup5\n        /* \"--CODEGEN--\":5739:5762   */\n      sub\n        /* \"--CODEGEN--\":5735:5767   */\n      slt\n        /* \"--CODEGEN--\":5732:5734   */\n      iszero\n      tag_421\n      jumpi\n        /* \"--CODEGEN--\":5780:5781   */\n      0x00\n        /* \"--CODEGEN--\":5777:5778   */\n      dup1\n        /* \"--CODEGEN--\":5770:5782   */\n      revert\n        /* \"--CODEGEN--\":5732:5734   */\n    tag_421:\n        /* \"--CODEGEN--\":5836:5837   */\n      0x00\n        /* \"--CODEGEN--\":5825:5834   */\n      dup3\n        /* \"--CODEGEN--\":5821:5838   */\n      add\n        /* \"--CODEGEN--\":5815:5839   */\n      mload\n        /* \"--CODEGEN--\":5859:5877   */\n      0xffffffffffffffff\n        /* \"--CODEGEN--\":5851:5857   */\n      dup2\n        /* \"--CODEGEN--\":5848:5878   */\n      gt\n        /* \"--CODEGEN--\":5845:5847   */\n      iszero\n      tag_422\n      jumpi\n        /* \"--CODEGEN--\":5891:5892   */\n      0x00\n        /* \"--CODEGEN--\":5888:5889   */\n      dup1\n        /* \"--CODEGEN--\":5881:5893   */\n      revert\n        /* \"--CODEGEN--\":5845:5847   */\n    tag_422:\n        /* \"--CODEGEN--\":5911:5985   */\n      tag_423\n        /* \"--CODEGEN--\":5977:5984   */\n      dup5\n        /* \"--CODEGEN--\":5968:5974   */\n      dup3\n        /* \"--CODEGEN--\":5957:5966   */\n      dup6\n        /* \"--CODEGEN--\":5953:5975   */\n      add\n        /* \"--CODEGEN--\":5911:5985   */\n      jump(tag_366)\n    tag_423:\n        /* \"--CODEGEN--\":5901:5985   */\n      swap2\n      pop\n        /* \"--CODEGEN--\":5794:5991   */\n      pop\n        /* \"--CODEGEN--\":5726:6001   */\n      swap3\n      swap2\n      pop\n      pop\n      jump\n        /* \"--CODEGEN--\":6008:7321   */\n    tag_50:\n      0x00\n      dup1\n      0x00\n      dup1\n      0x00\n      dup1\n      0x00\n        /* \"--CODEGEN--\":6244:6247   */\n      0xe0\n        /* \"--CODEGEN--\":6232:6241   */\n      dup9\n        /* \"--CODEGEN--\":6223:6230   */\n      dup11\n        /* \"--CODEGEN--\":6219:6242   */\n      sub\n        /* \"--CODEGEN--\":6215:6248   */\n      slt\n        /* \"--CODEGEN--\":6212:6214   */\n      iszero\n      tag_425\n      jumpi\n        /* \"--CODEGEN--\":6261:6262   */\n      0x00\n        /* \"--CODEGEN--\":6258:6259   */\n      dup1\n        /* \"--CODEGEN--\":6251:6263   */\n      revert\n        /* \"--CODEGEN--\":6212:6214   */\n    tag_425:\n        /* \"--CODEGEN--\":6324:6325   */\n      0x00\n        /* \"--CODEGEN--\":6313:6322   */\n      dup9\n        /* \"--CODEGEN--\":6309:6326   */\n      add\n        /* \"--CODEGEN--\":6296:6327   */\n      calldataload\n        /* \"--CODEGEN--\":6347:6365   */\n      0xffffffffffffffff\n        /* \"--CODEGEN--\":6339:6345   */\n      dup2\n        /* \"--CODEGEN--\":6336:6366   */\n      gt\n        /* \"--CODEGEN--\":6333:6335   */\n      iszero\n      tag_426\n      jumpi\n        /* \"--CODEGEN--\":6379:6380   */\n      0x00\n        /* \"--CODEGEN--\":6376:6377   */\n      dup1\n        /* \"--CODEGEN--\":6369:6381   */\n      revert\n        /* \"--CODEGEN--\":6333:6335   */\n    tag_426:\n        /* \"--CODEGEN--\":6399:6462   */\n      tag_427\n        /* \"--CODEGEN--\":6454:6461   */\n      dup11\n        /* \"--CODEGEN--\":6445:6451   */\n      dup3\n        /* \"--CODEGEN--\":6434:6443   */\n      dup12\n        /* \"--CODEGEN--\":6430:6452   */\n      add\n        /* \"--CODEGEN--\":6399:6462   */\n      jump(tag_356)\n    tag_427:\n        /* \"--CODEGEN--\":6389:6462   */\n      swap8\n      pop\n        /* \"--CODEGEN--\":6275:6468   */\n      pop\n        /* \"--CODEGEN--\":6499:6501   */\n      0x20\n        /* \"--CODEGEN--\":6517:6570   */\n      tag_428\n        /* \"--CODEGEN--\":6562:6569   */\n      dup11\n        /* \"--CODEGEN--\":6553:6559   */\n      dup3\n        /* \"--CODEGEN--\":6542:6551   */\n      dup12\n        /* \"--CODEGEN--\":6538:6560   */\n      add\n        /* \"--CODEGEN--\":6517:6570   */\n      jump(tag_344)\n    tag_428:\n        /* \"--CODEGEN--\":6507:6570   */\n      swap7\n      pop\n        /* \"--CODEGEN--\":6478:6576   */\n      pop\n        /* \"--CODEGEN--\":6635:6637   */\n      0x40\n        /* \"--CODEGEN--\":6624:6633   */\n      dup9\n        /* \"--CODEGEN--\":6620:6638   */\n      add\n        /* \"--CODEGEN--\":6607:6639   */\n      calldataload\n        /* \"--CODEGEN--\":6659:6677   */\n      0xffffffffffffffff\n        /* \"--CODEGEN--\":6651:6657   */\n      dup2\n        /* \"--CODEGEN--\":6648:6678   */\n      gt\n        /* \"--CODEGEN--\":6645:6647   */\n      iszero\n      tag_429\n      jumpi\n        /* \"--CODEGEN--\":6691:6692   */\n      0x00\n        /* \"--CODEGEN--\":6688:6689   */\n      dup1\n        /* \"--CODEGEN--\":6681:6693   */\n      revert\n        /* \"--CODEGEN--\":6645:6647   */\n    tag_429:\n        /* \"--CODEGEN--\":6711:6774   */\n      tag_430\n        /* \"--CODEGEN--\":6766:6773   */\n      dup11\n        /* \"--CODEGEN--\":6757:6763   */\n      dup3\n        /* \"--CODEGEN--\":6746:6755   */\n      dup12\n        /* \"--CODEGEN--\":6742:6764   */\n      add\n        /* \"--CODEGEN--\":6711:6774   */\n      jump(tag_356)\n    tag_430:\n        /* \"--CODEGEN--\":6701:6774   */\n      swap6\n      pop\n        /* \"--CODEGEN--\":6586:6780   */\n      pop\n        /* \"--CODEGEN--\":6811:6813   */\n      0x60\n        /* \"--CODEGEN--\":6829:6882   */\n      tag_431\n        /* \"--CODEGEN--\":6874:6881   */\n      dup11\n        /* \"--CODEGEN--\":6865:6871   */\n      dup3\n        /* \"--CODEGEN--\":6854:6863   */\n      dup12\n        /* \"--CODEGEN--\":6850:6872   */\n      add\n        /* \"--CODEGEN--\":6829:6882   */\n      jump(tag_344)\n    tag_431:\n        /* \"--CODEGEN--\":6819:6882   */\n      swap5\n      pop\n        /* \"--CODEGEN--\":6790:6888   */\n      pop\n        /* \"--CODEGEN--\":6947:6950   */\n      0x80\n        /* \"--CODEGEN--\":6936:6945   */\n      dup9\n        /* \"--CODEGEN--\":6932:6951   */\n      add\n        /* \"--CODEGEN--\":6919:6952   */\n      calldataload\n        /* \"--CODEGEN--\":6972:6990   */\n      0xffffffffffffffff\n        /* \"--CODEGEN--\":6964:6970   */\n      dup2\n        /* \"--CODEGEN--\":6961:6991   */\n      gt\n        /* \"--CODEGEN--\":6958:6960   */\n      iszero\n      tag_432\n      jumpi\n        /* \"--CODEGEN--\":7004:7005   */\n      0x00\n        /* \"--CODEGEN--\":7001:7002   */\n      dup1\n        /* \"--CODEGEN--\":6994:7006   */\n      revert\n        /* \"--CODEGEN--\":6958:6960   */\n    tag_432:\n        /* \"--CODEGEN--\":7024:7087   */\n      tag_433\n        /* \"--CODEGEN--\":7079:7086   */\n      dup11\n        /* \"--CODEGEN--\":7070:7076   */\n      dup3\n        /* \"--CODEGEN--\":7059:7068   */\n      dup12\n        /* \"--CODEGEN--\":7055:7077   */\n      add\n        /* \"--CODEGEN--\":7024:7087   */\n      jump(tag_356)\n    tag_433:\n        /* \"--CODEGEN--\":7014:7087   */\n      swap4\n      pop\n        /* \"--CODEGEN--\":6898:7093   */\n      pop\n        /* \"--CODEGEN--\":7124:7127   */\n      0xa0\n        /* \"--CODEGEN--\":7143:7196   */\n      tag_434\n        /* \"--CODEGEN--\":7188:7195   */\n      dup11\n        /* \"--CODEGEN--\":7179:7185   */\n      dup3\n        /* \"--CODEGEN--\":7168:7177   */\n      dup12\n        /* \"--CODEGEN--\":7164:7186   */\n      add\n        /* \"--CODEGEN--\":7143:7196   */\n      jump(tag_352)\n    tag_434:\n        /* \"--CODEGEN--\":7133:7196   */\n      swap3\n      pop\n        /* \"--CODEGEN--\":7103:7202   */\n      pop\n        /* \"--CODEGEN--\":7233:7236   */\n      0xc0\n        /* \"--CODEGEN--\":7252:7305   */\n      tag_435\n        /* \"--CODEGEN--\":7297:7304   */\n      dup11\n        /* \"--CODEGEN--\":7288:7294   */\n      dup3\n        /* \"--CODEGEN--\":7277:7286   */\n      dup12\n        /* \"--CODEGEN--\":7273:7295   */\n      add\n        /* \"--CODEGEN--\":7252:7305   */\n      jump(tag_374)\n    tag_435:\n        /* \"--CODEGEN--\":7242:7305   */\n      swap2\n      pop\n        /* \"--CODEGEN--\":7212:7311   */\n      pop\n        /* \"--CODEGEN--\":6206:7321   */\n      swap3\n      swap6\n      swap9\n      swap2\n      swap5\n      swap8\n      pop\n      swap3\n      swap6\n      pop\n      jump\n        /* \"--CODEGEN--\":7328:8621   */\n    tag_46:\n      0x00\n      dup1\n      0x00\n      dup1\n      0x00\n      dup1\n        /* \"--CODEGEN--\":7557:7560   */\n      0xc0\n        /* \"--CODEGEN--\":7545:7554   */\n      dup8\n        /* \"--CODEGEN--\":7536:7543   */\n      dup10\n        /* \"--CODEGEN--\":7532:7555   */\n      sub\n        /* \"--CODEGEN--\":7528:7561   */\n      slt\n        /* \"--CODEGEN--\":7525:7527   */\n      iszero\n      tag_437\n      jumpi\n        /* \"--CODEGEN--\":7574:7575   */\n      0x00\n        /* \"--CODEGEN--\":7571:7572   */\n      dup1\n        /* \"--CODEGEN--\":7564:7576   */\n      revert\n        /* \"--CODEGEN--\":7525:7527   */\n    tag_437:\n        /* \"--CODEGEN--\":7637:7638   */\n      0x00\n        /* \"--CODEGEN--\":7626:7635   */\n      dup8\n        /* \"--CODEGEN--\":7622:7639   */\n      add\n        /* \"--CODEGEN--\":7609:7640   */\n      calldataload\n        /* \"--CODEGEN--\":7660:7678   */\n      0xffffffffffffffff\n        /* \"--CODEGEN--\":7652:7658   */\n      dup2\n        /* \"--CODEGEN--\":7649:7679   */\n      gt\n        /* \"--CODEGEN--\":7646:7648   */\n      iszero\n      tag_438\n      jumpi\n        /* \"--CODEGEN--\":7692:7693   */\n      0x00\n        /* \"--CODEGEN--\":7689:7690   */\n      dup1\n        /* \"--CODEGEN--\":7682:7694   */\n      revert\n        /* \"--CODEGEN--\":7646:7648   */\n    tag_438:\n        /* \"--CODEGEN--\":7712:7775   */\n      tag_439\n        /* \"--CODEGEN--\":7767:7774   */\n      dup10\n        /* \"--CODEGEN--\":7758:7764   */\n      dup3\n        /* \"--CODEGEN--\":7747:7756   */\n      dup11\n        /* \"--CODEGEN--\":7743:7765   */\n      add\n        /* \"--CODEGEN--\":7712:7775   */\n      jump(tag_356)\n    tag_439:\n        /* \"--CODEGEN--\":7702:7775   */\n      swap7\n      pop\n        /* \"--CODEGEN--\":7588:7781   */\n      pop\n        /* \"--CODEGEN--\":7812:7814   */\n      0x20\n        /* \"--CODEGEN--\":7830:7883   */\n      tag_440\n        /* \"--CODEGEN--\":7875:7882   */\n      dup10\n        /* \"--CODEGEN--\":7866:7872   */\n      dup3\n        /* \"--CODEGEN--\":7855:7864   */\n      dup11\n        /* \"--CODEGEN--\":7851:7873   */\n      add\n        /* \"--CODEGEN--\":7830:7883   */\n      jump(tag_344)\n    tag_440:\n        /* \"--CODEGEN--\":7820:7883   */\n      swap6\n      pop\n        /* \"--CODEGEN--\":7791:7889   */\n      pop\n        /* \"--CODEGEN--\":7948:7950   */\n      0x40\n        /* \"--CODEGEN--\":7937:7946   */\n      dup8\n        /* \"--CODEGEN--\":7933:7951   */\n      add\n        /* \"--CODEGEN--\":7920:7952   */\n      calldataload\n        /* \"--CODEGEN--\":7972:7990   */\n      0xffffffffffffffff\n        /* \"--CODEGEN--\":7964:7970   */\n      dup2\n        /* \"--CODEGEN--\":7961:7991   */\n      gt\n        /* \"--CODEGEN--\":7958:7960   */\n      iszero\n      tag_441\n      jumpi\n        /* \"--CODEGEN--\":8004:8005   */\n      0x00\n        /* \"--CODEGEN--\":8001:8002   */\n      dup1\n        /* \"--CODEGEN--\":7994:8006   */\n      revert\n        /* \"--CODEGEN--\":7958:7960   */\n    tag_441:\n        /* \"--CODEGEN--\":8024:8087   */\n      tag_442\n        /* \"--CODEGEN--\":8079:8086   */\n      dup10\n        /* \"--CODEGEN--\":8070:8076   */\n      dup3\n        /* \"--CODEGEN--\":8059:8068   */\n      dup11\n        /* \"--CODEGEN--\":8055:8077   */\n      add\n        /* \"--CODEGEN--\":8024:8087   */\n      jump(tag_356)\n    tag_442:\n        /* \"--CODEGEN--\":8014:8087   */\n      swap5\n      pop\n        /* \"--CODEGEN--\":7899:8093   */\n      pop\n        /* \"--CODEGEN--\":8124:8126   */\n      0x60\n        /* \"--CODEGEN--\":8142:8195   */\n      tag_443\n        /* \"--CODEGEN--\":8187:8194   */\n      dup10\n        /* \"--CODEGEN--\":8178:8184   */\n      dup3\n        /* \"--CODEGEN--\":8167:8176   */\n      dup11\n        /* \"--CODEGEN--\":8163:8185   */\n      add\n        /* \"--CODEGEN--\":8142:8195   */\n      jump(tag_344)\n    tag_443:\n        /* \"--CODEGEN--\":8132:8195   */\n      swap4\n      pop\n        /* \"--CODEGEN--\":8103:8201   */\n      pop\n        /* \"--CODEGEN--\":8260:8263   */\n      0x80\n        /* \"--CODEGEN--\":8249:8258   */\n      dup8\n        /* \"--CODEGEN--\":8245:8264   */\n      add\n        /* \"--CODEGEN--\":8232:8265   */\n      calldataload\n        /* \"--CODEGEN--\":8285:8303   */\n      0xffffffffffffffff\n        /* \"--CODEGEN--\":8277:8283   */\n      dup2\n        /* \"--CODEGEN--\":8274:8304   */\n      gt\n        /* \"--CODEGEN--\":8271:8273   */\n      iszero\n      tag_444\n      jumpi\n        /* \"--CODEGEN--\":8317:8318   */\n      0x00\n        /* \"--CODEGEN--\":8314:8315   */\n      dup1\n        /* \"--CODEGEN--\":8307:8319   */\n      revert\n        /* \"--CODEGEN--\":8271:8273   */\n    tag_444:\n        /* \"--CODEGEN--\":8337:8400   */\n      tag_445\n        /* \"--CODEGEN--\":8392:8399   */\n      dup10\n        /* \"--CODEGEN--\":8383:8389   */\n      dup3\n        /* \"--CODEGEN--\":8372:8381   */\n      dup11\n        /* \"--CODEGEN--\":8368:8390   */\n      add\n        /* \"--CODEGEN--\":8337:8400   */\n      jump(tag_356)\n    tag_445:\n        /* \"--CODEGEN--\":8327:8400   */\n      swap3\n      pop\n        /* \"--CODEGEN--\":8211:8406   */\n      pop\n        /* \"--CODEGEN--\":8465:8468   */\n      0xa0\n        /* \"--CODEGEN--\":8454:8463   */\n      dup8\n        /* \"--CODEGEN--\":8450:8469   */\n      add\n        /* \"--CODEGEN--\":8437:8470   */\n      calldataload\n        /* \"--CODEGEN--\":8490:8508   */\n      0xffffffffffffffff\n        /* \"--CODEGEN--\":8482:8488   */\n      dup2\n        /* \"--CODEGEN--\":8479:8509   */\n      gt\n        /* \"--CODEGEN--\":8476:8478   */\n      iszero\n      tag_446\n      jumpi\n        /* \"--CODEGEN--\":8522:8523   */\n      0x00\n        /* \"--CODEGEN--\":8519:8520   */\n      dup1\n        /* \"--CODEGEN--\":8512:8524   */\n      revert\n        /* \"--CODEGEN--\":8476:8478   */\n    tag_446:\n        /* \"--CODEGEN--\":8542:8605   */\n      tag_447\n        /* \"--CODEGEN--\":8597:8604   */\n      dup10\n        /* \"--CODEGEN--\":8588:8594   */\n      dup3\n        /* \"--CODEGEN--\":8577:8586   */\n      dup11\n        /* \"--CODEGEN--\":8573:8595   */\n      add\n        /* \"--CODEGEN--\":8542:8605   */\n      jump(tag_356)\n    tag_447:\n        /* \"--CODEGEN--\":8532:8605   */\n      swap2\n      pop\n        /* \"--CODEGEN--\":8416:8611   */\n      pop\n        /* \"--CODEGEN--\":7519:8621   */\n      swap3\n      swap6\n      pop\n      swap3\n      swap6\n      pop\n      swap3\n      swap6\n      jump\n        /* \"--CODEGEN--\":8628:10153   */\n    tag_98:\n      0x00\n      dup1\n      0x00\n      dup1\n      0x00\n      dup1\n      0x00\n        /* \"--CODEGEN--\":8884:8887   */\n      0xe0\n        /* \"--CODEGEN--\":8872:8881   */\n      dup9\n        /* \"--CODEGEN--\":8863:8870   */\n      dup11\n        /* \"--CODEGEN--\":8859:8882   */\n      sub\n        /* \"--CODEGEN--\":8855:8888   */\n      slt\n        /* \"--CODEGEN--\":8852:8854   */\n      iszero\n      tag_449\n      jumpi\n        /* \"--CODEGEN--\":8901:8902   */\n      0x00\n        /* \"--CODEGEN--\":8898:8899   */\n      dup1\n        /* \"--CODEGEN--\":8891:8903   */\n      revert\n        /* \"--CODEGEN--\":8852:8854   */\n    tag_449:\n        /* \"--CODEGEN--\":8964:8965   */\n      0x00\n        /* \"--CODEGEN--\":8953:8962   */\n      dup9\n        /* \"--CODEGEN--\":8949:8966   */\n      add\n        /* \"--CODEGEN--\":8936:8967   */\n      calldataload\n        /* \"--CODEGEN--\":8987:9005   */\n      0xffffffffffffffff\n        /* \"--CODEGEN--\":8979:8985   */\n      dup2\n        /* \"--CODEGEN--\":8976:9006   */\n      gt\n        /* \"--CODEGEN--\":8973:8975   */\n      iszero\n      tag_450\n      jumpi\n        /* \"--CODEGEN--\":9019:9020   */\n      0x00\n        /* \"--CODEGEN--\":9016:9017   */\n      dup1\n        /* \"--CODEGEN--\":9009:9021   */\n      revert\n        /* \"--CODEGEN--\":8973:8975   */\n    tag_450:\n        /* \"--CODEGEN--\":9039:9102   */\n      tag_451\n        /* \"--CODEGEN--\":9094:9101   */\n      dup11\n        /* \"--CODEGEN--\":9085:9091   */\n      dup3\n        /* \"--CODEGEN--\":9074:9083   */\n      dup12\n        /* \"--CODEGEN--\":9070:9092   */\n      add\n        /* \"--CODEGEN--\":9039:9102   */\n      jump(tag_356)\n    tag_451:\n        /* \"--CODEGEN--\":9029:9102   */\n      swap8\n      pop\n        /* \"--CODEGEN--\":8915:9108   */\n      pop\n        /* \"--CODEGEN--\":9139:9141   */\n      0x20\n        /* \"--CODEGEN--\":9157:9210   */\n      tag_452\n        /* \"--CODEGEN--\":9202:9209   */\n      dup11\n        /* \"--CODEGEN--\":9193:9199   */\n      dup3\n        /* \"--CODEGEN--\":9182:9191   */\n      dup12\n        /* \"--CODEGEN--\":9178:9200   */\n      add\n        /* \"--CODEGEN--\":9157:9210   */\n      jump(tag_344)\n    tag_452:\n        /* \"--CODEGEN--\":9147:9210   */\n      swap7\n      pop\n        /* \"--CODEGEN--\":9118:9216   */\n      pop\n        /* \"--CODEGEN--\":9275:9277   */\n      0x40\n        /* \"--CODEGEN--\":9264:9273   */\n      dup9\n        /* \"--CODEGEN--\":9260:9278   */\n      add\n        /* \"--CODEGEN--\":9247:9279   */\n      calldataload\n        /* \"--CODEGEN--\":9299:9317   */\n      0xffffffffffffffff\n        /* \"--CODEGEN--\":9291:9297   */\n      dup2\n        /* \"--CODEGEN--\":9288:9318   */\n      gt\n        /* \"--CODEGEN--\":9285:9287   */\n      iszero\n      tag_453\n      jumpi\n        /* \"--CODEGEN--\":9331:9332   */\n      0x00\n        /* \"--CODEGEN--\":9328:9329   */\n      dup1\n        /* \"--CODEGEN--\":9321:9333   */\n      revert\n        /* \"--CODEGEN--\":9285:9287   */\n    tag_453:\n        /* \"--CODEGEN--\":9351:9414   */\n      tag_454\n        /* \"--CODEGEN--\":9406:9413   */\n      dup11\n        /* \"--CODEGEN--\":9397:9403   */\n      dup3\n        /* \"--CODEGEN--\":9386:9395   */\n      dup12\n        /* \"--CODEGEN--\":9382:9404   */\n      add\n        /* \"--CODEGEN--\":9351:9414   */\n      jump(tag_356)\n    tag_454:\n        /* \"--CODEGEN--\":9341:9414   */\n      swap6\n      pop\n        /* \"--CODEGEN--\":9226:9420   */\n      pop\n        /* \"--CODEGEN--\":9451:9453   */\n      0x60\n        /* \"--CODEGEN--\":9469:9522   */\n      tag_455\n        /* \"--CODEGEN--\":9514:9521   */\n      dup11\n        /* \"--CODEGEN--\":9505:9511   */\n      dup3\n        /* \"--CODEGEN--\":9494:9503   */\n      dup12\n        /* \"--CODEGEN--\":9490:9512   */\n      add\n        /* \"--CODEGEN--\":9469:9522   */\n      jump(tag_344)\n    tag_455:\n        /* \"--CODEGEN--\":9459:9522   */\n      swap5\n      pop\n        /* \"--CODEGEN--\":9430:9528   */\n      pop\n        /* \"--CODEGEN--\":9587:9590   */\n      0x80\n        /* \"--CODEGEN--\":9576:9585   */\n      dup9\n        /* \"--CODEGEN--\":9572:9591   */\n      add\n        /* \"--CODEGEN--\":9559:9592   */\n      calldataload\n        /* \"--CODEGEN--\":9612:9630   */\n      0xffffffffffffffff\n        /* \"--CODEGEN--\":9604:9610   */\n      dup2\n        /* \"--CODEGEN--\":9601:9631   */\n      gt\n        /* \"--CODEGEN--\":9598:9600   */\n      iszero\n      tag_456\n      jumpi\n        /* \"--CODEGEN--\":9644:9645   */\n      0x00\n        /* \"--CODEGEN--\":9641:9642   */\n      dup1\n        /* \"--CODEGEN--\":9634:9646   */\n      revert\n        /* \"--CODEGEN--\":9598:9600   */\n    tag_456:\n        /* \"--CODEGEN--\":9664:9727   */\n      tag_457\n        /* \"--CODEGEN--\":9719:9726   */\n      dup11\n        /* \"--CODEGEN--\":9710:9716   */\n      dup3\n        /* \"--CODEGEN--\":9699:9708   */\n      dup12\n        /* \"--CODEGEN--\":9695:9717   */\n      add\n        /* \"--CODEGEN--\":9664:9727   */\n      jump(tag_356)\n    tag_457:\n        /* \"--CODEGEN--\":9654:9727   */\n      swap4\n      pop\n        /* \"--CODEGEN--\":9538:9733   */\n      pop\n        /* \"--CODEGEN--\":9792:9795   */\n      0xa0\n        /* \"--CODEGEN--\":9781:9790   */\n      dup9\n        /* \"--CODEGEN--\":9777:9796   */\n      add\n        /* \"--CODEGEN--\":9764:9797   */\n      calldataload\n        /* \"--CODEGEN--\":9817:9835   */\n      0xffffffffffffffff\n        /* \"--CODEGEN--\":9809:9815   */\n      dup2\n        /* \"--CODEGEN--\":9806:9836   */\n      gt\n        /* \"--CODEGEN--\":9803:9805   */\n      iszero\n      tag_458\n      jumpi\n        /* \"--CODEGEN--\":9849:9850   */\n      0x00\n        /* \"--CODEGEN--\":9846:9847   */\n      dup1\n        /* \"--CODEGEN--\":9839:9851   */\n      revert\n        /* \"--CODEGEN--\":9803:9805   */\n    tag_458:\n        /* \"--CODEGEN--\":9869:9932   */\n      tag_459\n        /* \"--CODEGEN--\":9924:9931   */\n      dup11\n        /* \"--CODEGEN--\":9915:9921   */\n      dup3\n        /* \"--CODEGEN--\":9904:9913   */\n      dup12\n        /* \"--CODEGEN--\":9900:9922   */\n      add\n        /* \"--CODEGEN--\":9869:9932   */\n      jump(tag_356)\n    tag_459:\n        /* \"--CODEGEN--\":9859:9932   */\n      swap3\n      pop\n        /* \"--CODEGEN--\":9743:9938   */\n      pop\n        /* \"--CODEGEN--\":9997:10000   */\n      0xc0\n        /* \"--CODEGEN--\":9986:9995   */\n      dup9\n        /* \"--CODEGEN--\":9982:10001   */\n      add\n        /* \"--CODEGEN--\":9969:10002   */\n      calldataload\n        /* \"--CODEGEN--\":10022:10040   */\n      0xffffffffffffffff\n        /* \"--CODEGEN--\":10014:10020   */\n      dup2\n        /* \"--CODEGEN--\":10011:10041   */\n      gt\n        /* \"--CODEGEN--\":10008:10010   */\n      iszero\n      tag_460\n      jumpi\n        /* \"--CODEGEN--\":10054:10055   */\n      0x00\n        /* \"--CODEGEN--\":10051:10052   */\n      dup1\n        /* \"--CODEGEN--\":10044:10056   */\n      revert\n        /* \"--CODEGEN--\":10008:10010   */\n    tag_460:\n        /* \"--CODEGEN--\":10074:10137   */\n      tag_461\n        /* \"--CODEGEN--\":10129:10136   */\n      dup11\n        /* \"--CODEGEN--\":10120:10126   */\n      dup3\n        /* \"--CODEGEN--\":10109:10118   */\n      dup12\n        /* \"--CODEGEN--\":10105:10127   */\n      add\n        /* \"--CODEGEN--\":10074:10137   */\n      jump(tag_356)\n    tag_461:\n        /* \"--CODEGEN--\":10064:10137   */\n      swap2\n      pop\n        /* \"--CODEGEN--\":9948:10143   */\n      pop\n        /* \"--CODEGEN--\":8846:10153   */\n      swap3\n      swap6\n      swap9\n      swap2\n      swap5\n      swap8\n      pop\n      swap3\n      swap6\n      pop\n      jump\n        /* \"--CODEGEN--\":10160:10302   */\n    tag_462:\n        /* \"--CODEGEN--\":10251:10296   */\n      tag_464\n        /* \"--CODEGEN--\":10290:10295   */\n      dup2\n        /* \"--CODEGEN--\":10251:10296   */\n      jump(tag_465)\n    tag_464:\n        /* \"--CODEGEN--\":10246:10249   */\n      dup3\n        /* \"--CODEGEN--\":10239:10297   */\n      mstore\n        /* \"--CODEGEN--\":10233:10302   */\n      pop\n      pop\n      jump\n        /* \"--CODEGEN--\":10309:10422   */\n    tag_466:\n        /* \"--CODEGEN--\":10392:10416   */\n      tag_468\n        /* \"--CODEGEN--\":10410:10415   */\n      dup2\n        /* \"--CODEGEN--\":10392:10416   */\n      jump(tag_469)\n    tag_468:\n        /* \"--CODEGEN--\":10387:10390   */\n      dup3\n        /* \"--CODEGEN--\":10380:10417   */\n      mstore\n        /* \"--CODEGEN--\":10374:10422   */\n      pop\n      pop\n      jump\n        /* \"--CODEGEN--\":10429:10533   */\n    tag_470:\n        /* \"--CODEGEN--\":10506:10527   */\n      tag_472\n        /* \"--CODEGEN--\":10521:10526   */\n      dup2\n        /* \"--CODEGEN--\":10506:10527   */\n      jump(tag_473)\n    tag_472:\n        /* \"--CODEGEN--\":10501:10504   */\n      dup3\n        /* \"--CODEGEN--\":10494:10528   */\n      mstore\n        /* \"--CODEGEN--\":10488:10533   */\n      pop\n      pop\n      jump\n        /* \"--CODEGEN--\":10540:10653   */\n    tag_474:\n        /* \"--CODEGEN--\":10623:10647   */\n      tag_476\n        /* \"--CODEGEN--\":10641:10646   */\n      dup2\n        /* \"--CODEGEN--\":10623:10647   */\n      jump(tag_477)\n    tag_476:\n        /* \"--CODEGEN--\":10618:10621   */\n      dup3\n        /* \"--CODEGEN--\":10611:10648   */\n      mstore\n        /* \"--CODEGEN--\":10605:10653   */\n      pop\n      pop\n      jump\n        /* \"--CODEGEN--\":10660:10812   */\n    tag_478:\n        /* \"--CODEGEN--\":10761:10806   */\n      tag_480\n        /* \"--CODEGEN--\":10781:10805   */\n      tag_481\n        /* \"--CODEGEN--\":10799:10804   */\n      dup3\n        /* \"--CODEGEN--\":10781:10805   */\n      jump(tag_477)\n    tag_481:\n        /* \"--CODEGEN--\":10761:10806   */\n      jump(tag_482)\n    tag_480:\n        /* \"--CODEGEN--\":10756:10759   */\n      dup3\n        /* \"--CODEGEN--\":10749:10807   */\n      mstore\n        /* \"--CODEGEN--\":10743:10812   */\n      pop\n      pop\n      jump\n        /* \"--CODEGEN--\":10819:10971   */\n    tag_483:\n        /* \"--CODEGEN--\":10915:10965   */\n      tag_485\n        /* \"--CODEGEN--\":10959:10964   */\n      dup2\n        /* \"--CODEGEN--\":10915:10965   */\n      jump(tag_486)\n    tag_485:\n        /* \"--CODEGEN--\":10910:10913   */\n      dup3\n        /* \"--CODEGEN--\":10903:10966   */\n      mstore\n        /* \"--CODEGEN--\":10897:10971   */\n      pop\n      pop\n      jump\n        /* \"--CODEGEN--\":10978:11325   */\n    tag_487:\n      0x00\n        /* \"--CODEGEN--\":11090:11129   */\n      tag_489\n        /* \"--CODEGEN--\":11123:11128   */\n      dup3\n        /* \"--CODEGEN--\":11090:11129   */\n      jump(tag_490)\n    tag_489:\n        /* \"--CODEGEN--\":11141:11212   */\n      tag_491\n        /* \"--CODEGEN--\":11205:11211   */\n      dup2\n        /* \"--CODEGEN--\":11200:11203   */\n      dup6\n        /* \"--CODEGEN--\":11141:11212   */\n      jump(tag_492)\n    tag_491:\n        /* \"--CODEGEN--\":11134:11212   */\n      swap4\n      pop\n        /* \"--CODEGEN--\":11217:11269   */\n      tag_493\n        /* \"--CODEGEN--\":11262:11268   */\n      dup2\n        /* \"--CODEGEN--\":11257:11260   */\n      dup6\n        /* \"--CODEGEN--\":11250:11254   */\n      0x20\n        /* \"--CODEGEN--\":11243:11248   */\n      dup7\n        /* \"--CODEGEN--\":11239:11255   */\n      add\n        /* \"--CODEGEN--\":11217:11269   */\n      jump(tag_373)\n    tag_493:\n        /* \"--CODEGEN--\":11290:11319   */\n      tag_494\n        /* \"--CODEGEN--\":11312:11318   */\n      dup2\n        /* \"--CODEGEN--\":11290:11319   */\n      jump(tag_495)\n    tag_494:\n        /* \"--CODEGEN--\":11285:11288   */\n      dup5\n        /* \"--CODEGEN--\":11281:11320   */\n      add\n        /* \"--CODEGEN--\":11274:11320   */\n      swap2\n      pop\n        /* \"--CODEGEN--\":11070:11325   */\n      pop\n      swap3\n      swap2\n      pop\n      pop\n      jump\n        /* \"--CODEGEN--\":11332:11692   */\n    tag_496:\n      0x00\n        /* \"--CODEGEN--\":11462:11501   */\n      tag_498\n        /* \"--CODEGEN--\":11495:11500   */\n      dup3\n        /* \"--CODEGEN--\":11462:11501   */\n      jump(tag_490)\n    tag_498:\n        /* \"--CODEGEN--\":11513:11602   */\n      tag_499\n        /* \"--CODEGEN--\":11595:11601   */\n      dup2\n        /* \"--CODEGEN--\":11590:11593   */\n      dup6\n        /* \"--CODEGEN--\":11513:11602   */\n      jump(tag_500)\n    tag_499:\n        /* \"--CODEGEN--\":11506:11602   */\n      swap4\n      pop\n        /* \"--CODEGEN--\":11607:11659   */\n      tag_501\n        /* \"--CODEGEN--\":11652:11658   */\n      dup2\n        /* \"--CODEGEN--\":11647:11650   */\n      dup6\n        /* \"--CODEGEN--\":11640:11644   */\n      0x20\n        /* \"--CODEGEN--\":11633:11638   */\n      dup7\n        /* \"--CODEGEN--\":11629:11645   */\n      add\n        /* \"--CODEGEN--\":11607:11659   */\n      jump(tag_373)\n    tag_501:\n        /* \"--CODEGEN--\":11680:11686   */\n      dup1\n        /* \"--CODEGEN--\":11675:11678   */\n      dup5\n        /* \"--CODEGEN--\":11671:11687   */\n      add\n        /* \"--CODEGEN--\":11664:11687   */\n      swap2\n      pop\n        /* \"--CODEGEN--\":11442:11692   */\n      pop\n      swap3\n      swap2\n      pop\n      pop\n      jump\n        /* \"--CODEGEN--\":11700:12016   */\n    tag_502:\n      0x00\n        /* \"--CODEGEN--\":11860:11927   */\n      tag_504\n        /* \"--CODEGEN--\":11924:11926   */\n      0x10\n        /* \"--CODEGEN--\":11919:11922   */\n      dup4\n        /* \"--CODEGEN--\":11860:11927   */\n      jump(tag_492)\n    tag_504:\n        /* \"--CODEGEN--\":11853:11927   */\n      swap2\n      pop\n        /* \"--CODEGEN--\":11960:11978   */\n      0x4d65646961436572746966696361746500000000000000000000000000000000\n        /* \"--CODEGEN--\":11956:11957   */\n      0x00\n        /* \"--CODEGEN--\":11951:11954   */\n      dup4\n        /* \"--CODEGEN--\":11947:11958   */\n      add\n        /* \"--CODEGEN--\":11940:11979   */\n      mstore\n        /* \"--CODEGEN--\":12007:12009   */\n      0x20\n        /* \"--CODEGEN--\":12002:12005   */\n      dup3\n        /* \"--CODEGEN--\":11998:12010   */\n      add\n        /* \"--CODEGEN--\":11991:12010   */\n      swap1\n      pop\n        /* \"--CODEGEN--\":11846:12016   */\n      swap2\n      swap1\n      pop\n      jump\n        /* \"--CODEGEN--\":12025:12353   */\n    tag_505:\n      0x00\n        /* \"--CODEGEN--\":12185:12252   */\n      tag_507\n        /* \"--CODEGEN--\":12249:12251   */\n      0x1c\n        /* \"--CODEGEN--\":12244:12247   */\n      dup4\n        /* \"--CODEGEN--\":12185:12252   */\n      jump(tag_492)\n    tag_507:\n        /* \"--CODEGEN--\":12178:12252   */\n      swap2\n      pop\n        /* \"--CODEGEN--\":12285:12315   */\n      0x5065726d697373696f6e2044656e69656420746f206164647265737300000000\n        /* \"--CODEGEN--\":12281:12282   */\n      0x00\n        /* \"--CODEGEN--\":12276:12279   */\n      dup4\n        /* \"--CODEGEN--\":12272:12283   */\n      add\n        /* \"--CODEGEN--\":12265:12316   */\n      mstore\n        /* \"--CODEGEN--\":12344:12346   */\n      0x20\n        /* \"--CODEGEN--\":12339:12342   */\n      dup3\n        /* \"--CODEGEN--\":12335:12347   */\n      add\n        /* \"--CODEGEN--\":12328:12347   */\n      swap1\n      pop\n        /* \"--CODEGEN--\":12171:12353   */\n      swap2\n      swap1\n      pop\n      jump\n        /* \"--CODEGEN--\":12362:12680   */\n    tag_508:\n      0x00\n        /* \"--CODEGEN--\":12522:12589   */\n      tag_510\n        /* \"--CODEGEN--\":12586:12588   */\n      0x12\n        /* \"--CODEGEN--\":12581:12584   */\n      dup4\n        /* \"--CODEGEN--\":12522:12589   */\n      jump(tag_492)\n    tag_510:\n        /* \"--CODEGEN--\":12515:12589   */\n      swap2\n      pop\n        /* \"--CODEGEN--\":12622:12642   */\n      0x4661696c7572652041747465737465643a200000000000000000000000000000\n        /* \"--CODEGEN--\":12618:12619   */\n      0x00\n        /* \"--CODEGEN--\":12613:12616   */\n      dup4\n        /* \"--CODEGEN--\":12609:12620   */\n      add\n        /* \"--CODEGEN--\":12602:12643   */\n      mstore\n        /* \"--CODEGEN--\":12671:12673   */\n      0x20\n        /* \"--CODEGEN--\":12666:12669   */\n      dup3\n        /* \"--CODEGEN--\":12662:12674   */\n      add\n        /* \"--CODEGEN--\":12655:12674   */\n      swap1\n      pop\n        /* \"--CODEGEN--\":12508:12680   */\n      swap2\n      swap1\n      pop\n      jump\n        /* \"--CODEGEN--\":12689:13004   */\n    tag_511:\n      0x00\n        /* \"--CODEGEN--\":12849:12916   */\n      tag_513\n        /* \"--CODEGEN--\":12913:12915   */\n      0x0f\n        /* \"--CODEGEN--\":12908:12911   */\n      dup4\n        /* \"--CODEGEN--\":12849:12916   */\n      jump(tag_492)\n    tag_513:\n        /* \"--CODEGEN--\":12842:12916   */\n      swap2\n      pop\n        /* \"--CODEGEN--\":12949:12966   */\n      0x4a6f757243657274696669636174650000000000000000000000000000000000\n        /* \"--CODEGEN--\":12945:12946   */\n      0x00\n        /* \"--CODEGEN--\":12940:12943   */\n      dup4\n        /* \"--CODEGEN--\":12936:12947   */\n      add\n        /* \"--CODEGEN--\":12929:12967   */\n      mstore\n        /* \"--CODEGEN--\":12995:12997   */\n      0x20\n        /* \"--CODEGEN--\":12990:12993   */\n      dup3\n        /* \"--CODEGEN--\":12986:12998   */\n      add\n        /* \"--CODEGEN--\":12979:12998   */\n      swap1\n      pop\n        /* \"--CODEGEN--\":12835:13004   */\n      swap2\n      swap1\n      pop\n      jump\n        /* \"--CODEGEN--\":13013:13317   */\n    tag_514:\n      0x00\n        /* \"--CODEGEN--\":13173:13239   */\n      tag_516\n        /* \"--CODEGEN--\":13237:13238   */\n      0x05\n        /* \"--CODEGEN--\":13232:13235   */\n      dup4\n        /* \"--CODEGEN--\":13173:13239   */\n      jump(tag_492)\n    tag_516:\n        /* \"--CODEGEN--\":13166:13239   */\n      swap2\n      pop\n        /* \"--CODEGEN--\":13272:13279   */\n      0x69734e4343000000000000000000000000000000000000000000000000000000\n        /* \"--CODEGEN--\":13268:13269   */\n      0x00\n        /* \"--CODEGEN--\":13263:13266   */\n      dup4\n        /* \"--CODEGEN--\":13259:13270   */\n      add\n        /* \"--CODEGEN--\":13252:13280   */\n      mstore\n        /* \"--CODEGEN--\":13308:13310   */\n      0x20\n        /* \"--CODEGEN--\":13303:13306   */\n      dup3\n        /* \"--CODEGEN--\":13299:13311   */\n      add\n        /* \"--CODEGEN--\":13292:13311   */\n      swap1\n      pop\n        /* \"--CODEGEN--\":13159:13317   */\n      swap2\n      swap1\n      pop\n      jump\n        /* \"--CODEGEN--\":13326:13631   */\n    tag_517:\n      0x00\n        /* \"--CODEGEN--\":13486:13552   */\n      tag_519\n        /* \"--CODEGEN--\":13550:13551   */\n      0x06\n        /* \"--CODEGEN--\":13545:13548   */\n      dup4\n        /* \"--CODEGEN--\":13486:13552   */\n      jump(tag_492)\n    tag_519:\n        /* \"--CODEGEN--\":13479:13552   */\n      swap2\n      pop\n        /* \"--CODEGEN--\":13585:13593   */\n      0x69734a6f75720000000000000000000000000000000000000000000000000000\n        /* \"--CODEGEN--\":13581:13582   */\n      0x00\n        /* \"--CODEGEN--\":13576:13579   */\n      dup4\n        /* \"--CODEGEN--\":13572:13583   */\n      add\n        /* \"--CODEGEN--\":13565:13594   */\n      mstore\n        /* \"--CODEGEN--\":13622:13624   */\n      0x20\n        /* \"--CODEGEN--\":13617:13620   */\n      dup3\n        /* \"--CODEGEN--\":13613:13625   */\n      add\n        /* \"--CODEGEN--\":13606:13625   */\n      swap1\n      pop\n        /* \"--CODEGEN--\":13472:13631   */\n      swap2\n      swap1\n      pop\n      jump\n        /* \"--CODEGEN--\":13640:13946   */\n    tag_520:\n      0x00\n        /* \"--CODEGEN--\":13800:13866   */\n      tag_522\n        /* \"--CODEGEN--\":13864:13865   */\n      0x07\n        /* \"--CODEGEN--\":13859:13862   */\n      dup4\n        /* \"--CODEGEN--\":13800:13866   */\n      jump(tag_492)\n    tag_522:\n        /* \"--CODEGEN--\":13793:13866   */\n      swap2\n      pop\n        /* \"--CODEGEN--\":13899:13908   */\n      0x69734d6564696100000000000000000000000000000000000000000000000000\n        /* \"--CODEGEN--\":13895:13896   */\n      0x00\n        /* \"--CODEGEN--\":13890:13893   */\n      dup4\n        /* \"--CODEGEN--\":13886:13897   */\n      add\n        /* \"--CODEGEN--\":13879:13909   */\n      mstore\n        /* \"--CODEGEN--\":13937:13939   */\n      0x20\n        /* \"--CODEGEN--\":13932:13935   */\n      dup3\n        /* \"--CODEGEN--\":13928:13940   */\n      add\n        /* \"--CODEGEN--\":13921:13940   */\n      swap1\n      pop\n        /* \"--CODEGEN--\":13786:13946   */\n      swap2\n      swap1\n      pop\n      jump\n        /* \"--CODEGEN--\":13955:14292   */\n    tag_523:\n      0x00\n        /* \"--CODEGEN--\":14133:14217   */\n      tag_525\n        /* \"--CODEGEN--\":14215:14216   */\n      0x03\n        /* \"--CODEGEN--\":14210:14213   */\n      dup4\n        /* \"--CODEGEN--\":14133:14217   */\n      jump(tag_500)\n    tag_525:\n        /* \"--CODEGEN--\":14126:14217   */\n      swap2\n      pop\n        /* \"--CODEGEN--\":14250:14255   */\n      0x5965730000000000000000000000000000000000000000000000000000000000\n        /* \"--CODEGEN--\":14246:14247   */\n      0x00\n        /* \"--CODEGEN--\":14241:14244   */\n      dup4\n        /* \"--CODEGEN--\":14237:14248   */\n      add\n        /* \"--CODEGEN--\":14230:14256   */\n      mstore\n        /* \"--CODEGEN--\":14284:14285   */\n      0x03\n        /* \"--CODEGEN--\":14279:14282   */\n      dup3\n        /* \"--CODEGEN--\":14275:14286   */\n      add\n        /* \"--CODEGEN--\":14268:14286   */\n      swap1\n      pop\n        /* \"--CODEGEN--\":14119:14292   */\n      swap2\n      swap1\n      pop\n      jump\n        /* \"--CODEGEN--\":14301:14612   */\n    tag_526:\n      0x00\n        /* \"--CODEGEN--\":14461:14528   */\n      tag_528\n        /* \"--CODEGEN--\":14525:14527   */\n      0x0b\n        /* \"--CODEGEN--\":14520:14523   */\n      dup4\n        /* \"--CODEGEN--\":14461:14528   */\n      jump(tag_492)\n    tag_528:\n        /* \"--CODEGEN--\":14454:14528   */\n      swap2\n      pop\n        /* \"--CODEGEN--\":14561:14574   */\n      0x6365727469666963617465000000000000000000000000000000000000000000\n        /* \"--CODEGEN--\":14557:14558   */\n      0x00\n        /* \"--CODEGEN--\":14552:14555   */\n      dup4\n        /* \"--CODEGEN--\":14548:14559   */\n      add\n        /* \"--CODEGEN--\":14541:14575   */\n      mstore\n        /* \"--CODEGEN--\":14603:14605   */\n      0x20\n        /* \"--CODEGEN--\":14598:14601   */\n      dup3\n        /* \"--CODEGEN--\":14594:14606   */\n      add\n        /* \"--CODEGEN--\":14587:14606   */\n      swap1\n      pop\n        /* \"--CODEGEN--\":14447:14612   */\n      swap2\n      swap1\n      pop\n      jump\n        /* \"--CODEGEN--\":14621:15005   */\n    tag_529:\n      0x00\n        /* \"--CODEGEN--\":14781:14848   */\n      tag_531\n        /* \"--CODEGEN--\":14845:14847   */\n      0x2f\n        /* \"--CODEGEN--\":14840:14843   */\n      dup4\n        /* \"--CODEGEN--\":14781:14848   */\n      jump(tag_492)\n    tag_531:\n        /* \"--CODEGEN--\":14774:14848   */\n      swap2\n      pop\n        /* \"--CODEGEN--\":14881:14915   */\n      0x5065726d697373696f6e2068617320616c7265616479206265656e204772616e\n        /* \"--CODEGEN--\":14877:14878   */\n      0x00\n        /* \"--CODEGEN--\":14872:14875   */\n      dup4\n        /* \"--CODEGEN--\":14868:14879   */\n      add\n        /* \"--CODEGEN--\":14861:14916   */\n      mstore\n        /* \"--CODEGEN--\":14950:14967   */\n      0x74656420746f2061646472657373200000000000000000000000000000000000\n        /* \"--CODEGEN--\":14945:14947   */\n      0x20\n        /* \"--CODEGEN--\":14940:14943   */\n      dup4\n        /* \"--CODEGEN--\":14936:14948   */\n      add\n        /* \"--CODEGEN--\":14929:14968   */\n      mstore\n        /* \"--CODEGEN--\":14996:14998   */\n      0x40\n        /* \"--CODEGEN--\":14991:14994   */\n      dup3\n        /* \"--CODEGEN--\":14987:14999   */\n      add\n        /* \"--CODEGEN--\":14980:14999   */\n      swap1\n      pop\n        /* \"--CODEGEN--\":14767:15005   */\n      swap2\n      swap1\n      pop\n      jump\n        /* \"--CODEGEN--\":15014:15337   */\n    tag_532:\n      0x00\n        /* \"--CODEGEN--\":15174:15241   */\n      tag_534\n        /* \"--CODEGEN--\":15238:15240   */\n      0x17\n        /* \"--CODEGEN--\":15233:15236   */\n      dup4\n        /* \"--CODEGEN--\":15174:15241   */\n      jump(tag_492)\n    tag_534:\n        /* \"--CODEGEN--\":15167:15241   */\n      swap2\n      pop\n        /* \"--CODEGEN--\":15274:15299   */\n      0x5375636365737366756c6c792041747465737465643a20000000000000000000\n        /* \"--CODEGEN--\":15270:15271   */\n      0x00\n        /* \"--CODEGEN--\":15265:15268   */\n      dup4\n        /* \"--CODEGEN--\":15261:15272   */\n      add\n        /* \"--CODEGEN--\":15254:15300   */\n      mstore\n        /* \"--CODEGEN--\":15328:15330   */\n      0x20\n        /* \"--CODEGEN--\":15323:15326   */\n      dup3\n        /* \"--CODEGEN--\":15319:15331   */\n      add\n        /* \"--CODEGEN--\":15312:15331   */\n      swap1\n      pop\n        /* \"--CODEGEN--\":15160:15337   */\n      swap2\n      swap1\n      pop\n      jump\n        /* \"--CODEGEN--\":15345:15458   */\n    tag_535:\n        /* \"--CODEGEN--\":15428:15452   */\n      tag_537\n        /* \"--CODEGEN--\":15446:15451   */\n      dup2\n        /* \"--CODEGEN--\":15428:15452   */\n      jump(tag_538)\n    tag_537:\n        /* \"--CODEGEN--\":15423:15426   */\n      dup3\n        /* \"--CODEGEN--\":15416:15453   */\n      mstore\n        /* \"--CODEGEN--\":15410:15458   */\n      pop\n      pop\n      jump\n        /* \"--CODEGEN--\":15465:15709   */\n    tag_199:\n      0x00\n        /* \"--CODEGEN--\":15584:15659   */\n      tag_540\n        /* \"--CODEGEN--\":15655:15658   */\n      dup3\n        /* \"--CODEGEN--\":15646:15652   */\n      dup5\n        /* \"--CODEGEN--\":15584:15659   */\n      jump(tag_478)\n    tag_540:\n        /* \"--CODEGEN--\":15681:15683   */\n      0x20\n        /* \"--CODEGEN--\":15676:15679   */\n      dup3\n        /* \"--CODEGEN--\":15672:15684   */\n      add\n        /* \"--CODEGEN--\":15665:15684   */\n      swap2\n      pop\n        /* \"--CODEGEN--\":15701:15704   */\n      dup2\n        /* \"--CODEGEN--\":15694:15704   */\n      swap1\n      pop\n        /* \"--CODEGEN--\":15572:15709   */\n      swap3\n      swap2\n      pop\n      pop\n      jump\n        /* \"--CODEGEN--\":15716:15982   */\n    tag_135:\n      0x00\n        /* \"--CODEGEN--\":15862:15957   */\n      tag_542\n        /* \"--CODEGEN--\":15953:15956   */\n      dup3\n        /* \"--CODEGEN--\":15944:15950   */\n      dup5\n        /* \"--CODEGEN--\":15862:15957   */\n      jump(tag_496)\n    tag_542:\n        /* \"--CODEGEN--\":15855:15957   */\n      swap2\n      pop\n        /* \"--CODEGEN--\":15974:15977   */\n      dup2\n        /* \"--CODEGEN--\":15967:15977   */\n      swap1\n      pop\n        /* \"--CODEGEN--\":15843:15982   */\n      swap3\n      swap2\n      pop\n      pop\n      jump\n        /* \"--CODEGEN--\":15989:16361   */\n    tag_133:\n      0x00\n        /* \"--CODEGEN--\":16188:16336   */\n      tag_544\n        /* \"--CODEGEN--\":16332:16335   */\n      dup3\n        /* \"--CODEGEN--\":16188:16336   */\n      jump(tag_523)\n    tag_544:\n        /* \"--CODEGEN--\":16181:16336   */\n      swap2\n      pop\n        /* \"--CODEGEN--\":16353:16356   */\n      dup2\n        /* \"--CODEGEN--\":16346:16356   */\n      swap1\n      pop\n        /* \"--CODEGEN--\":16169:16361   */\n      swap2\n      swap1\n      pop\n      jump\n        /* \"--CODEGEN--\":16368:16581   */\n    tag_35:\n      0x00\n        /* \"--CODEGEN--\":16486:16488   */\n      0x20\n        /* \"--CODEGEN--\":16475:16484   */\n      dup3\n        /* \"--CODEGEN--\":16471:16489   */\n      add\n        /* \"--CODEGEN--\":16463:16489   */\n      swap1\n      pop\n        /* \"--CODEGEN--\":16500:16571   */\n      tag_546\n        /* \"--CODEGEN--\":16568:16569   */\n      0x00\n        /* \"--CODEGEN--\":16557:16566   */\n      dup4\n        /* \"--CODEGEN--\":16553:16570   */\n      add\n        /* \"--CODEGEN--\":16544:16550   */\n      dup5\n        /* \"--CODEGEN--\":16500:16571   */\n      jump(tag_466)\n    tag_546:\n        /* \"--CODEGEN--\":16457:16581   */\n      swap3\n      swap2\n      pop\n      pop\n      jump\n        /* \"--CODEGEN--\":16588:16817   */\n    tag_206:\n      0x00\n        /* \"--CODEGEN--\":16714:16716   */\n      0x20\n        /* \"--CODEGEN--\":16703:16712   */\n      dup3\n        /* \"--CODEGEN--\":16699:16717   */\n      add\n        /* \"--CODEGEN--\":16691:16717   */\n      swap1\n      pop\n        /* \"--CODEGEN--\":16728:16807   */\n      tag_548\n        /* \"--CODEGEN--\":16804:16805   */\n      0x00\n        /* \"--CODEGEN--\":16793:16802   */\n      dup4\n        /* \"--CODEGEN--\":16789:16806   */\n      add\n        /* \"--CODEGEN--\":16780:16786   */\n      dup5\n        /* \"--CODEGEN--\":16728:16807   */\n      jump(tag_462)\n    tag_548:\n        /* \"--CODEGEN--\":16685:16817   */\n      swap3\n      swap2\n      pop\n      pop\n      jump\n        /* \"--CODEGEN--\":16824:17459   */\n    tag_31:\n      0x00\n        /* \"--CODEGEN--\":17046:17049   */\n      0x80\n        /* \"--CODEGEN--\":17035:17044   */\n      dup3\n        /* \"--CODEGEN--\":17031:17050   */\n      add\n        /* \"--CODEGEN--\":17023:17050   */\n      swap1\n      pop\n        /* \"--CODEGEN--\":17061:17132   */\n      tag_550\n        /* \"--CODEGEN--\":17129:17130   */\n      0x00\n        /* \"--CODEGEN--\":17118:17127   */\n      dup4\n        /* \"--CODEGEN--\":17114:17131   */\n      add\n        /* \"--CODEGEN--\":17105:17111   */\n      dup8\n        /* \"--CODEGEN--\":17061:17132   */\n      jump(tag_466)\n    tag_550:\n        /* \"--CODEGEN--\":17143:17215   */\n      tag_551\n        /* \"--CODEGEN--\":17211:17213   */\n      0x20\n        /* \"--CODEGEN--\":17200:17209   */\n      dup4\n        /* \"--CODEGEN--\":17196:17214   */\n      add\n        /* \"--CODEGEN--\":17187:17193   */\n      dup7\n        /* \"--CODEGEN--\":17143:17215   */\n      jump(tag_474)\n    tag_551:\n        /* \"--CODEGEN--\":17226:17298   */\n      tag_552\n        /* \"--CODEGEN--\":17294:17296   */\n      0x40\n        /* \"--CODEGEN--\":17283:17292   */\n      dup4\n        /* \"--CODEGEN--\":17279:17297   */\n      add\n        /* \"--CODEGEN--\":17270:17276   */\n      dup6\n        /* \"--CODEGEN--\":17226:17298   */\n      jump(tag_535)\n    tag_552:\n        /* \"--CODEGEN--\":17346:17355   */\n      dup2\n        /* \"--CODEGEN--\":17340:17344   */\n      dup2\n        /* \"--CODEGEN--\":17336:17356   */\n      sub\n        /* \"--CODEGEN--\":17331:17333   */\n      0x60\n        /* \"--CODEGEN--\":17320:17329   */\n      dup4\n        /* \"--CODEGEN--\":17316:17334   */\n      add\n        /* \"--CODEGEN--\":17309:17357   */\n      mstore\n        /* \"--CODEGEN--\":17371:17449   */\n      tag_553\n        /* \"--CODEGEN--\":17444:17448   */\n      dup2\n        /* \"--CODEGEN--\":17435:17441   */\n      dup5\n        /* \"--CODEGEN--\":17371:17449   */\n      jump(tag_487)\n    tag_553:\n        /* \"--CODEGEN--\":17363:17449   */\n      swap1\n      pop\n        /* \"--CODEGEN--\":17017:17459   */\n      swap6\n      swap5\n      pop\n      pop\n      pop\n      pop\n      pop\n      jump\n        /* \"--CODEGEN--\":17466:18289   */\n    tag_314:\n      0x00\n        /* \"--CODEGEN--\":17786:17788   */\n      0x60\n        /* \"--CODEGEN--\":17775:17784   */\n      dup3\n        /* \"--CODEGEN--\":17771:17789   */\n      add\n        /* \"--CODEGEN--\":17763:17789   */\n      swap1\n      pop\n        /* \"--CODEGEN--\":17800:17871   */\n      tag_555\n        /* \"--CODEGEN--\":17868:17869   */\n      0x00\n        /* \"--CODEGEN--\":17857:17866   */\n      dup4\n        /* \"--CODEGEN--\":17853:17870   */\n      add\n        /* \"--CODEGEN--\":17844:17850   */\n      dup5\n        /* \"--CODEGEN--\":17800:17871   */\n      jump(tag_466)\n    tag_555:\n        /* \"--CODEGEN--\":17919:17928   */\n      dup2\n        /* \"--CODEGEN--\":17913:17917   */\n      dup2\n        /* \"--CODEGEN--\":17909:17929   */\n      sub\n        /* \"--CODEGEN--\":17904:17906   */\n      0x20\n        /* \"--CODEGEN--\":17893:17902   */\n      dup4\n        /* \"--CODEGEN--\":17889:17907   */\n      add\n        /* \"--CODEGEN--\":17882:17930   */\n      mstore\n        /* \"--CODEGEN--\":17944:18075   */\n      tag_556\n        /* \"--CODEGEN--\":18070:18074   */\n      dup2\n        /* \"--CODEGEN--\":17944:18075   */\n      jump(tag_502)\n    tag_556:\n        /* \"--CODEGEN--\":17936:18075   */\n      swap1\n      pop\n        /* \"--CODEGEN--\":18123:18132   */\n      dup2\n        /* \"--CODEGEN--\":18117:18121   */\n      dup2\n        /* \"--CODEGEN--\":18113:18133   */\n      sub\n        /* \"--CODEGEN--\":18108:18110   */\n      0x40\n        /* \"--CODEGEN--\":18097:18106   */\n      dup4\n        /* \"--CODEGEN--\":18093:18111   */\n      add\n        /* \"--CODEGEN--\":18086:18134   */\n      mstore\n        /* \"--CODEGEN--\":18148:18279   */\n      tag_557\n        /* \"--CODEGEN--\":18274:18278   */\n      dup2\n        /* \"--CODEGEN--\":18148:18279   */\n      jump(tag_520)\n    tag_557:\n        /* \"--CODEGEN--\":18140:18279   */\n      swap1\n      pop\n        /* \"--CODEGEN--\":17757:18289   */\n      swap3\n      swap2\n      pop\n      pop\n      jump\n        /* \"--CODEGEN--\":18296:19119   */\n    tag_126:\n      0x00\n        /* \"--CODEGEN--\":18616:18618   */\n      0x60\n        /* \"--CODEGEN--\":18605:18614   */\n      dup3\n        /* \"--CODEGEN--\":18601:18619   */\n      add\n        /* \"--CODEGEN--\":18593:18619   */\n      swap1\n      pop\n        /* \"--CODEGEN--\":18630:18701   */\n      tag_559\n        /* \"--CODEGEN--\":18698:18699   */\n      0x00\n        /* \"--CODEGEN--\":18687:18696   */\n      dup4\n        /* \"--CODEGEN--\":18683:18700   */\n      add\n        /* \"--CODEGEN--\":18674:18680   */\n      dup5\n        /* \"--CODEGEN--\":18630:18701   */\n      jump(tag_466)\n    tag_559:\n        /* \"--CODEGEN--\":18749:18758   */\n      dup2\n        /* \"--CODEGEN--\":18743:18747   */\n      dup2\n        /* \"--CODEGEN--\":18739:18759   */\n      sub\n        /* \"--CODEGEN--\":18734:18736   */\n      0x20\n        /* \"--CODEGEN--\":18723:18732   */\n      dup4\n        /* \"--CODEGEN--\":18719:18737   */\n      add\n        /* \"--CODEGEN--\":18712:18760   */\n      mstore\n        /* \"--CODEGEN--\":18774:18905   */\n      tag_560\n        /* \"--CODEGEN--\":18900:18904   */\n      dup2\n        /* \"--CODEGEN--\":18774:18905   */\n      jump(tag_511)\n    tag_560:\n        /* \"--CODEGEN--\":18766:18905   */\n      swap1\n      pop\n        /* \"--CODEGEN--\":18953:18962   */\n      dup2\n        /* \"--CODEGEN--\":18947:18951   */\n      dup2\n        /* \"--CODEGEN--\":18943:18963   */\n      sub\n        /* \"--CODEGEN--\":18938:18940   */\n      0x40\n        /* \"--CODEGEN--\":18927:18936   */\n      dup4\n        /* \"--CODEGEN--\":18923:18941   */\n      add\n        /* \"--CODEGEN--\":18916:18964   */\n      mstore\n        /* \"--CODEGEN--\":18978:19109   */\n      tag_561\n        /* \"--CODEGEN--\":19104:19108   */\n      dup2\n        /* \"--CODEGEN--\":18978:19109   */\n      jump(tag_517)\n    tag_561:\n        /* \"--CODEGEN--\":18970:19109   */\n      swap1\n      pop\n        /* \"--CODEGEN--\":18587:19119   */\n      swap3\n      swap2\n      pop\n      pop\n      jump\n        /* \"--CODEGEN--\":19126:19949   */\n    tag_274:\n      0x00\n        /* \"--CODEGEN--\":19446:19448   */\n      0x60\n        /* \"--CODEGEN--\":19435:19444   */\n      dup3\n        /* \"--CODEGEN--\":19431:19449   */\n      add\n        /* \"--CODEGEN--\":19423:19449   */\n      swap1\n      pop\n        /* \"--CODEGEN--\":19460:19531   */\n      tag_563\n        /* \"--CODEGEN--\":19528:19529   */\n      0x00\n        /* \"--CODEGEN--\":19517:19526   */\n      dup4\n        /* \"--CODEGEN--\":19513:19530   */\n      add\n        /* \"--CODEGEN--\":19504:19510   */\n      dup5\n        /* \"--CODEGEN--\":19460:19531   */\n      jump(tag_466)\n    tag_563:\n        /* \"--CODEGEN--\":19579:19588   */\n      dup2\n        /* \"--CODEGEN--\":19573:19577   */\n      dup2\n        /* \"--CODEGEN--\":19569:19589   */\n      sub\n        /* \"--CODEGEN--\":19564:19566   */\n      0x20\n        /* \"--CODEGEN--\":19553:19562   */\n      dup4\n        /* \"--CODEGEN--\":19549:19567   */\n      add\n        /* \"--CODEGEN--\":19542:19590   */\n      mstore\n        /* \"--CODEGEN--\":19604:19735   */\n      tag_564\n        /* \"--CODEGEN--\":19730:19734   */\n      dup2\n        /* \"--CODEGEN--\":19604:19735   */\n      jump(tag_526)\n    tag_564:\n        /* \"--CODEGEN--\":19596:19735   */\n      swap1\n      pop\n        /* \"--CODEGEN--\":19783:19792   */\n      dup2\n        /* \"--CODEGEN--\":19777:19781   */\n      dup2\n        /* \"--CODEGEN--\":19773:19793   */\n      sub\n        /* \"--CODEGEN--\":19768:19770   */\n      0x40\n        /* \"--CODEGEN--\":19757:19766   */\n      dup4\n        /* \"--CODEGEN--\":19753:19771   */\n      add\n        /* \"--CODEGEN--\":19746:19794   */\n      mstore\n        /* \"--CODEGEN--\":19808:19939   */\n      tag_565\n        /* \"--CODEGEN--\":19934:19938   */\n      dup2\n        /* \"--CODEGEN--\":19808:19939   */\n      jump(tag_514)\n    tag_565:\n        /* \"--CODEGEN--\":19800:19939   */\n      swap1\n      pop\n        /* \"--CODEGEN--\":19417:19949   */\n      swap3\n      swap2\n      pop\n      pop\n      jump\n        /* \"--CODEGEN--\":19956:20629   */\n    tag_75:\n      0x00\n        /* \"--CODEGEN--\":20193:20196   */\n      0xa0\n        /* \"--CODEGEN--\":20182:20191   */\n      dup3\n        /* \"--CODEGEN--\":20178:20197   */\n      add\n        /* \"--CODEGEN--\":20170:20197   */\n      swap1\n      pop\n        /* \"--CODEGEN--\":20208:20292   */\n      tag_567\n        /* \"--CODEGEN--\":20289:20290   */\n      0x00\n        /* \"--CODEGEN--\":20278:20287   */\n      dup4\n        /* \"--CODEGEN--\":20274:20291   */\n      add\n        /* \"--CODEGEN--\":20265:20271   */\n      dup9\n        /* \"--CODEGEN--\":20208:20292   */\n      jump(tag_483)\n    tag_567:\n        /* \"--CODEGEN--\":20303:20375   */\n      tag_568\n        /* \"--CODEGEN--\":20371:20373   */\n      0x20\n        /* \"--CODEGEN--\":20360:20369   */\n      dup4\n        /* \"--CODEGEN--\":20356:20374   */\n      add\n        /* \"--CODEGEN--\":20347:20353   */\n      dup8\n        /* \"--CODEGEN--\":20303:20375   */\n      jump(tag_466)\n    tag_568:\n        /* \"--CODEGEN--\":20386:20458   */\n      tag_569\n        /* \"--CODEGEN--\":20454:20456   */\n      0x40\n        /* \"--CODEGEN--\":20443:20452   */\n      dup4\n        /* \"--CODEGEN--\":20439:20457   */\n      add\n        /* \"--CODEGEN--\":20430:20436   */\n      dup7\n        /* \"--CODEGEN--\":20386:20458   */\n      jump(tag_535)\n    tag_569:\n        /* \"--CODEGEN--\":20469:20541   */\n      tag_570\n        /* \"--CODEGEN--\":20537:20539   */\n      0x60\n        /* \"--CODEGEN--\":20526:20535   */\n      dup4\n        /* \"--CODEGEN--\":20522:20540   */\n      add\n        /* \"--CODEGEN--\":20513:20519   */\n      dup6\n        /* \"--CODEGEN--\":20469:20541   */\n      jump(tag_474)\n    tag_570:\n        /* \"--CODEGEN--\":20552:20619   */\n      tag_571\n        /* \"--CODEGEN--\":20614:20617   */\n      0x80\n        /* \"--CODEGEN--\":20603:20612   */\n      dup4\n        /* \"--CODEGEN--\":20599:20618   */\n      add\n        /* \"--CODEGEN--\":20590:20596   */\n      dup5\n        /* \"--CODEGEN--\":20552:20619   */\n      jump(tag_470)\n    tag_571:\n        /* \"--CODEGEN--\":20164:20629   */\n      swap7\n      swap6\n      pop\n      pop\n      pop\n      pop\n      pop\n      pop\n      jump\n        /* \"--CODEGEN--\":20636:20937   */\n    tag_66:\n      0x00\n        /* \"--CODEGEN--\":20774:20776   */\n      0x20\n        /* \"--CODEGEN--\":20763:20772   */\n      dup3\n        /* \"--CODEGEN--\":20759:20777   */\n      add\n        /* \"--CODEGEN--\":20751:20777   */\n      swap1\n      pop\n        /* \"--CODEGEN--\":20824:20833   */\n      dup2\n        /* \"--CODEGEN--\":20818:20822   */\n      dup2\n        /* \"--CODEGEN--\":20814:20834   */\n      sub\n        /* \"--CODEGEN--\":20810:20811   */\n      0x00\n        /* \"--CODEGEN--\":20799:20808   */\n      dup4\n        /* \"--CODEGEN--\":20795:20812   */\n      add\n        /* \"--CODEGEN--\":20788:20835   */\n      mstore\n        /* \"--CODEGEN--\":20849:20927   */\n      tag_573\n        /* \"--CODEGEN--\":20922:20926   */\n      dup2\n        /* \"--CODEGEN--\":20913:20919   */\n      dup5\n        /* \"--CODEGEN--\":20849:20927   */\n      jump(tag_487)\n    tag_573:\n        /* \"--CODEGEN--\":20841:20927   */\n      swap1\n      pop\n        /* \"--CODEGEN--\":20745:20937   */\n      swap3\n      swap2\n      pop\n      pop\n      jump\n        /* \"--CODEGEN--\":20944:22203   */\n    tag_56:\n      0x00\n        /* \"--CODEGEN--\":21318:21321   */\n      0x0100\n        /* \"--CODEGEN--\":21307:21316   */\n      dup3\n        /* \"--CODEGEN--\":21303:21322   */\n      add\n        /* \"--CODEGEN--\":21295:21322   */\n      swap1\n      pop\n        /* \"--CODEGEN--\":21369:21378   */\n      dup2\n        /* \"--CODEGEN--\":21363:21367   */\n      dup2\n        /* \"--CODEGEN--\":21359:21379   */\n      sub\n        /* \"--CODEGEN--\":21355:21356   */\n      0x00\n        /* \"--CODEGEN--\":21344:21353   */\n      dup4\n        /* \"--CODEGEN--\":21340:21357   */\n      add\n        /* \"--CODEGEN--\":21333:21380   */\n      mstore\n        /* \"--CODEGEN--\":21394:21472   */\n      tag_575\n        /* \"--CODEGEN--\":21467:21471   */\n      dup2\n        /* \"--CODEGEN--\":21458:21464   */\n      dup12\n        /* \"--CODEGEN--\":21394:21472   */\n      jump(tag_487)\n    tag_575:\n        /* \"--CODEGEN--\":21386:21472   */\n      swap1\n      pop\n        /* \"--CODEGEN--\":21483:21555   */\n      tag_576\n        /* \"--CODEGEN--\":21551:21553   */\n      0x20\n        /* \"--CODEGEN--\":21540:21549   */\n      dup4\n        /* \"--CODEGEN--\":21536:21554   */\n      add\n        /* \"--CODEGEN--\":21527:21533   */\n      dup11\n        /* \"--CODEGEN--\":21483:21555   */\n      jump(tag_466)\n    tag_576:\n        /* \"--CODEGEN--\":21603:21612   */\n      dup2\n        /* \"--CODEGEN--\":21597:21601   */\n      dup2\n        /* \"--CODEGEN--\":21593:21613   */\n      sub\n        /* \"--CODEGEN--\":21588:21590   */\n      0x40\n        /* \"--CODEGEN--\":21577:21586   */\n      dup4\n        /* \"--CODEGEN--\":21573:21591   */\n      add\n        /* \"--CODEGEN--\":21566:21614   */\n      mstore\n        /* \"--CODEGEN--\":21628:21706   */\n      tag_577\n        /* \"--CODEGEN--\":21701:21705   */\n      dup2\n        /* \"--CODEGEN--\":21692:21698   */\n      dup10\n        /* \"--CODEGEN--\":21628:21706   */\n      jump(tag_487)\n    tag_577:\n        /* \"--CODEGEN--\":21620:21706   */\n      swap1\n      pop\n        /* \"--CODEGEN--\":21717:21789   */\n      tag_578\n        /* \"--CODEGEN--\":21785:21787   */\n      0x60\n        /* \"--CODEGEN--\":21774:21783   */\n      dup4\n        /* \"--CODEGEN--\":21770:21788   */\n      add\n        /* \"--CODEGEN--\":21761:21767   */\n      dup9\n        /* \"--CODEGEN--\":21717:21789   */\n      jump(tag_466)\n    tag_578:\n        /* \"--CODEGEN--\":21838:21847   */\n      dup2\n        /* \"--CODEGEN--\":21832:21836   */\n      dup2\n        /* \"--CODEGEN--\":21828:21848   */\n      sub\n        /* \"--CODEGEN--\":21822:21825   */\n      0x80\n        /* \"--CODEGEN--\":21811:21820   */\n      dup4\n        /* \"--CODEGEN--\":21807:21826   */\n      add\n        /* \"--CODEGEN--\":21800:21849   */\n      mstore\n        /* \"--CODEGEN--\":21863:21941   */\n      tag_579\n        /* \"--CODEGEN--\":21936:21940   */\n      dup2\n        /* \"--CODEGEN--\":21927:21933   */\n      dup8\n        /* \"--CODEGEN--\":21863:21941   */\n      jump(tag_487)\n    tag_579:\n        /* \"--CODEGEN--\":21855:21941   */\n      swap1\n      pop\n        /* \"--CODEGEN--\":21952:22025   */\n      tag_580\n        /* \"--CODEGEN--\":22020:22023   */\n      0xa0\n        /* \"--CODEGEN--\":22009:22018   */\n      dup4\n        /* \"--CODEGEN--\":22005:22024   */\n      add\n        /* \"--CODEGEN--\":21996:22002   */\n      dup7\n        /* \"--CODEGEN--\":21952:22025   */\n      jump(tag_474)\n    tag_580:\n        /* \"--CODEGEN--\":22036:22109   */\n      tag_581\n        /* \"--CODEGEN--\":22104:22107   */\n      0xc0\n        /* \"--CODEGEN--\":22093:22102   */\n      dup4\n        /* \"--CODEGEN--\":22089:22108   */\n      add\n        /* \"--CODEGEN--\":22080:22086   */\n      dup6\n        /* \"--CODEGEN--\":22036:22109   */\n      jump(tag_535)\n    tag_581:\n        /* \"--CODEGEN--\":22120:22193   */\n      tag_582\n        /* \"--CODEGEN--\":22188:22191   */\n      0xe0\n        /* \"--CODEGEN--\":22177:22186   */\n      dup4\n        /* \"--CODEGEN--\":22173:22192   */\n      add\n        /* \"--CODEGEN--\":22164:22170   */\n      dup5\n        /* \"--CODEGEN--\":22120:22193   */\n      jump(tag_535)\n    tag_582:\n        /* \"--CODEGEN--\":21289:22203   */\n      swap10\n      swap9\n      pop\n      pop\n      pop\n      pop\n      pop\n      pop\n      pop\n      pop\n      pop\n      jump\n        /* \"--CODEGEN--\":22210:22728   */\n    tag_194:\n      0x00\n        /* \"--CODEGEN--\":22429:22431   */\n      0x40\n        /* \"--CODEGEN--\":22418:22427   */\n      dup3\n        /* \"--CODEGEN--\":22414:22432   */\n      add\n        /* \"--CODEGEN--\":22406:22432   */\n      swap1\n      pop\n        /* \"--CODEGEN--\":22479:22488   */\n      dup2\n        /* \"--CODEGEN--\":22473:22477   */\n      dup2\n        /* \"--CODEGEN--\":22469:22489   */\n      sub\n        /* \"--CODEGEN--\":22465:22466   */\n      0x00\n        /* \"--CODEGEN--\":22454:22463   */\n      dup4\n        /* \"--CODEGEN--\":22450:22467   */\n      add\n        /* \"--CODEGEN--\":22443:22490   */\n      mstore\n        /* \"--CODEGEN--\":22504:22635   */\n      tag_584\n        /* \"--CODEGEN--\":22630:22634   */\n      dup2\n        /* \"--CODEGEN--\":22504:22635   */\n      jump(tag_505)\n    tag_584:\n        /* \"--CODEGEN--\":22496:22635   */\n      swap1\n      pop\n        /* \"--CODEGEN--\":22646:22718   */\n      tag_585\n        /* \"--CODEGEN--\":22714:22716   */\n      0x20\n        /* \"--CODEGEN--\":22703:22712   */\n      dup4\n        /* \"--CODEGEN--\":22699:22717   */\n      add\n        /* \"--CODEGEN--\":22690:22696   */\n      dup5\n        /* \"--CODEGEN--\":22646:22718   */\n      jump(tag_466)\n    tag_585:\n        /* \"--CODEGEN--\":22400:22728   */\n      swap3\n      swap2\n      pop\n      pop\n      jump\n        /* \"--CODEGEN--\":22735:23253   */\n    tag_269:\n      0x00\n        /* \"--CODEGEN--\":22954:22956   */\n      0x40\n        /* \"--CODEGEN--\":22943:22952   */\n      dup3\n        /* \"--CODEGEN--\":22939:22957   */\n      add\n        /* \"--CODEGEN--\":22931:22957   */\n      swap1\n      pop\n        /* \"--CODEGEN--\":23004:23013   */\n      dup2\n        /* \"--CODEGEN--\":22998:23002   */\n      dup2\n        /* \"--CODEGEN--\":22994:23014   */\n      sub\n        /* \"--CODEGEN--\":22990:22991   */\n      0x00\n        /* \"--CODEGEN--\":22979:22988   */\n      dup4\n        /* \"--CODEGEN--\":22975:22992   */\n      add\n        /* \"--CODEGEN--\":22968:23015   */\n      mstore\n        /* \"--CODEGEN--\":23029:23160   */\n      tag_587\n        /* \"--CODEGEN--\":23155:23159   */\n      dup2\n        /* \"--CODEGEN--\":23029:23160   */\n      jump(tag_508)\n    tag_587:\n        /* \"--CODEGEN--\":23021:23160   */\n      swap1\n      pop\n        /* \"--CODEGEN--\":23171:23243   */\n      tag_588\n        /* \"--CODEGEN--\":23239:23241   */\n      0x20\n        /* \"--CODEGEN--\":23228:23237   */\n      dup4\n        /* \"--CODEGEN--\":23224:23242   */\n      add\n        /* \"--CODEGEN--\":23215:23221   */\n      dup5\n        /* \"--CODEGEN--\":23171:23243   */\n      jump(tag_466)\n    tag_588:\n        /* \"--CODEGEN--\":22925:23253   */\n      swap3\n      swap2\n      pop\n      pop\n      jump\n        /* \"--CODEGEN--\":23260:23778   */\n    tag_186:\n      0x00\n        /* \"--CODEGEN--\":23479:23481   */\n      0x40\n        /* \"--CODEGEN--\":23468:23477   */\n      dup3\n        /* \"--CODEGEN--\":23464:23482   */\n      add\n        /* \"--CODEGEN--\":23456:23482   */\n      swap1\n      pop\n        /* \"--CODEGEN--\":23529:23538   */\n      dup2\n        /* \"--CODEGEN--\":23523:23527   */\n      dup2\n        /* \"--CODEGEN--\":23519:23539   */\n      sub\n        /* \"--CODEGEN--\":23515:23516   */\n      0x00\n        /* \"--CODEGEN--\":23504:23513   */\n      dup4\n        /* \"--CODEGEN--\":23500:23517   */\n      add\n        /* \"--CODEGEN--\":23493:23540   */\n      mstore\n        /* \"--CODEGEN--\":23554:23685   */\n      tag_590\n        /* \"--CODEGEN--\":23680:23684   */\n      dup2\n        /* \"--CODEGEN--\":23554:23685   */\n      jump(tag_529)\n    tag_590:\n        /* \"--CODEGEN--\":23546:23685   */\n      swap1\n      pop\n        /* \"--CODEGEN--\":23696:23768   */\n      tag_591\n        /* \"--CODEGEN--\":23764:23766   */\n      0x20\n        /* \"--CODEGEN--\":23753:23762   */\n      dup4\n        /* \"--CODEGEN--\":23749:23767   */\n      add\n        /* \"--CODEGEN--\":23740:23746   */\n      dup5\n        /* \"--CODEGEN--\":23696:23768   */\n      jump(tag_466)\n    tag_591:\n        /* \"--CODEGEN--\":23450:23778   */\n      swap3\n      swap2\n      pop\n      pop\n      jump\n        /* \"--CODEGEN--\":23785:24303   */\n    tag_259:\n      0x00\n        /* \"--CODEGEN--\":24004:24006   */\n      0x40\n        /* \"--CODEGEN--\":23993:24002   */\n      dup3\n        /* \"--CODEGEN--\":23989:24007   */\n      add\n        /* \"--CODEGEN--\":23981:24007   */\n      swap1\n      pop\n        /* \"--CODEGEN--\":24054:24063   */\n      dup2\n        /* \"--CODEGEN--\":24048:24052   */\n      dup2\n        /* \"--CODEGEN--\":24044:24064   */\n      sub\n        /* \"--CODEGEN--\":24040:24041   */\n      0x00\n        /* \"--CODEGEN--\":24029:24038   */\n      dup4\n        /* \"--CODEGEN--\":24025:24042   */\n      add\n        /* \"--CODEGEN--\":24018:24065   */\n      mstore\n        /* \"--CODEGEN--\":24079:24210   */\n      tag_593\n        /* \"--CODEGEN--\":24205:24209   */\n      dup2\n        /* \"--CODEGEN--\":24079:24210   */\n      jump(tag_532)\n    tag_593:\n        /* \"--CODEGEN--\":24071:24210   */\n      swap1\n      pop\n        /* \"--CODEGEN--\":24221:24293   */\n      tag_594\n        /* \"--CODEGEN--\":24289:24291   */\n      0x20\n        /* \"--CODEGEN--\":24278:24287   */\n      dup4\n        /* \"--CODEGEN--\":24274:24292   */\n      add\n        /* \"--CODEGEN--\":24265:24271   */\n      dup5\n        /* \"--CODEGEN--\":24221:24293   */\n      jump(tag_466)\n    tag_594:\n        /* \"--CODEGEN--\":23975:24303   */\n      swap3\n      swap2\n      pop\n      pop\n      jump\n        /* \"--CODEGEN--\":24310:24523   */\n    tag_43:\n      0x00\n        /* \"--CODEGEN--\":24428:24430   */\n      0x20\n        /* \"--CODEGEN--\":24417:24426   */\n      dup3\n        /* \"--CODEGEN--\":24413:24431   */\n      add\n        /* \"--CODEGEN--\":24405:24431   */\n      swap1\n      pop\n        /* \"--CODEGEN--\":24442:24513   */\n      tag_596\n        /* \"--CODEGEN--\":24510:24511   */\n      0x00\n        /* \"--CODEGEN--\":24499:24508   */\n      dup4\n        /* \"--CODEGEN--\":24495:24512   */\n      add\n        /* \"--CODEGEN--\":24486:24492   */\n      dup5\n        /* \"--CODEGEN--\":24442:24513   */\n      jump(tag_535)\n    tag_596:\n        /* \"--CODEGEN--\":24399:24523   */\n      swap3\n      swap2\n      pop\n      pop\n      jump\n        /* \"--CODEGEN--\":24530:24786   */\n    tag_362:\n      0x00\n        /* \"--CODEGEN--\":24592:24594   */\n      0x40\n        /* \"--CODEGEN--\":24586:24595   */\n      mload\n        /* \"--CODEGEN--\":24576:24595   */\n      swap1\n      pop\n        /* \"--CODEGEN--\":24630:24634   */\n      dup2\n        /* \"--CODEGEN--\":24622:24628   */\n      dup2\n        /* \"--CODEGEN--\":24618:24635   */\n      add\n        /* \"--CODEGEN--\":24729:24735   */\n      dup2\n        /* \"--CODEGEN--\":24717:24727   */\n      dup2\n        /* \"--CODEGEN--\":24714:24736   */\n      lt\n        /* \"--CODEGEN--\":24693:24711   */\n      0xffffffffffffffff\n        /* \"--CODEGEN--\":24681:24691   */\n      dup3\n        /* \"--CODEGEN--\":24678:24712   */\n      gt\n        /* \"--CODEGEN--\":24675:24737   */\n      or\n        /* \"--CODEGEN--\":24672:24674   */\n      iszero\n      tag_598\n      jumpi\n        /* \"--CODEGEN--\":24750:24751   */\n      0x00\n        /* \"--CODEGEN--\":24747:24748   */\n      dup1\n        /* \"--CODEGEN--\":24740:24752   */\n      revert\n        /* \"--CODEGEN--\":24672:24674   */\n    tag_598:\n        /* \"--CODEGEN--\":24770:24780   */\n      dup1\n        /* \"--CODEGEN--\":24766:24768   */\n      0x40\n        /* \"--CODEGEN--\":24759:24781   */\n      mstore\n        /* \"--CODEGEN--\":24570:24786   */\n      pop\n      swap2\n      swap1\n      pop\n      jump\n        /* \"--CODEGEN--\":24793:25115   */\n    tag_361:\n      0x00\n        /* \"--CODEGEN--\":24937:24955   */\n      0xffffffffffffffff\n        /* \"--CODEGEN--\":24929:24935   */\n      dup3\n        /* \"--CODEGEN--\":24926:24956   */\n      gt\n        /* \"--CODEGEN--\":24923:24925   */\n      iszero\n      tag_600\n      jumpi\n        /* \"--CODEGEN--\":24969:24970   */\n      0x00\n        /* \"--CODEGEN--\":24966:24967   */\n      dup1\n        /* \"--CODEGEN--\":24959:24971   */\n      revert\n        /* \"--CODEGEN--\":24923:24925   */\n    tag_600:\n        /* \"--CODEGEN--\":25036:25040   */\n      0x1f\n        /* \"--CODEGEN--\":25032:25041   */\n      not\n        /* \"--CODEGEN--\":25025:25029   */\n      0x1f\n        /* \"--CODEGEN--\":25017:25023   */\n      dup4\n        /* \"--CODEGEN--\":25013:25030   */\n      add\n        /* \"--CODEGEN--\":25009:25042   */\n      and\n        /* \"--CODEGEN--\":25001:25042   */\n      swap1\n      pop\n        /* \"--CODEGEN--\":25100:25104   */\n      0x20\n        /* \"--CODEGEN--\":25094:25098   */\n      dup2\n        /* \"--CODEGEN--\":25090:25105   */\n      add\n        /* \"--CODEGEN--\":25082:25105   */\n      swap1\n      pop\n        /* \"--CODEGEN--\":24860:25115   */\n      swap2\n      swap1\n      pop\n      jump\n        /* \"--CODEGEN--\":25122:25244   */\n    tag_490:\n      0x00\n        /* \"--CODEGEN--\":25216:25221   */\n      dup2\n        /* \"--CODEGEN--\":25210:25222   */\n      mload\n        /* \"--CODEGEN--\":25200:25222   */\n      swap1\n      pop\n        /* \"--CODEGEN--\":25181:25244   */\n      swap2\n      swap1\n      pop\n      jump\n        /* \"--CODEGEN--\":25252:25415   */\n    tag_492:\n      0x00\n        /* \"--CODEGEN--\":25367:25373   */\n      dup3\n        /* \"--CODEGEN--\":25362:25365   */\n      dup3\n        /* \"--CODEGEN--\":25355:25374   */\n      mstore\n        /* \"--CODEGEN--\":25404:25408   */\n      0x20\n        /* \"--CODEGEN--\":25399:25402   */\n      dup3\n        /* \"--CODEGEN--\":25395:25409   */\n      add\n        /* \"--CODEGEN--\":25380:25409   */\n      swap1\n      pop\n        /* \"--CODEGEN--\":25348:25415   */\n      swap3\n      swap2\n      pop\n      pop\n      jump\n        /* \"--CODEGEN--\":25424:25569   */\n    tag_500:\n      0x00\n        /* \"--CODEGEN--\":25560:25563   */\n      dup2\n        /* \"--CODEGEN--\":25545:25563   */\n      swap1\n      pop\n        /* \"--CODEGEN--\":25538:25569   */\n      swap3\n      swap2\n      pop\n      pop\n      jump\n        /* \"--CODEGEN--\":25577:25668   */\n    tag_469:\n      0x00\n        /* \"--CODEGEN--\":25639:25663   */\n      tag_605\n        /* \"--CODEGEN--\":25657:25662   */\n      dup3\n        /* \"--CODEGEN--\":25639:25663   */\n      jump(tag_606)\n    tag_605:\n        /* \"--CODEGEN--\":25628:25663   */\n      swap1\n      pop\n        /* \"--CODEGEN--\":25622:25668   */\n      swap2\n      swap1\n      pop\n      jump\n        /* \"--CODEGEN--\":25675:25760   */\n    tag_473:\n      0x00\n        /* \"--CODEGEN--\":25748:25753   */\n      dup2\n        /* \"--CODEGEN--\":25741:25754   */\n      iszero\n        /* \"--CODEGEN--\":25734:25755   */\n      iszero\n        /* \"--CODEGEN--\":25723:25755   */\n      swap1\n      pop\n        /* \"--CODEGEN--\":25717:25760   */\n      swap2\n      swap1\n      pop\n      jump\n        /* \"--CODEGEN--\":25767:25839   */\n    tag_477:\n      0x00\n        /* \"--CODEGEN--\":25829:25834   */\n      dup2\n        /* \"--CODEGEN--\":25818:25834   */\n      swap1\n      pop\n        /* \"--CODEGEN--\":25812:25839   */\n      swap2\n      swap1\n      pop\n      jump\n        /* \"--CODEGEN--\":25846:25982   */\n    tag_609:\n      0x00\n        /* \"--CODEGEN--\":25923:25928   */\n      dup2\n        /* \"--CODEGEN--\":25912:25928   */\n      swap1\n      pop\n        /* \"--CODEGEN--\":25929:25977   */\n      tag_611\n        /* \"--CODEGEN--\":25971:25976   */\n      dup3\n        /* \"--CODEGEN--\":25929:25977   */\n      jump(tag_612)\n    tag_611:\n        /* \"--CODEGEN--\":25906:25982   */\n      swap2\n      swap1\n      pop\n      jump\n        /* \"--CODEGEN--\":25989:26110   */\n    tag_606:\n      0x00\n        /* \"--CODEGEN--\":26062:26104   */\n      0xffffffffffffffffffffffffffffffffffffffff\n        /* \"--CODEGEN--\":26055:26060   */\n      dup3\n        /* \"--CODEGEN--\":26051:26105   */\n      and\n        /* \"--CODEGEN--\":26040:26105   */\n      swap1\n      pop\n        /* \"--CODEGEN--\":26034:26110   */\n      swap2\n      swap1\n      pop\n      jump\n        /* \"--CODEGEN--\":26117:26189   */\n    tag_538:\n      0x00\n        /* \"--CODEGEN--\":26179:26184   */\n      dup2\n        /* \"--CODEGEN--\":26168:26184   */\n      swap1\n      pop\n        /* \"--CODEGEN--\":26162:26189   */\n      swap2\n      swap1\n      pop\n      jump\n        /* \"--CODEGEN--\":26196:26325   */\n    tag_465:\n      0x00\n        /* \"--CODEGEN--\":26283:26320   */\n      tag_616\n        /* \"--CODEGEN--\":26314:26319   */\n      dup3\n        /* \"--CODEGEN--\":26283:26320   */\n      jump(tag_617)\n    tag_616:\n        /* \"--CODEGEN--\":26270:26320   */\n      swap1\n      pop\n        /* \"--CODEGEN--\":26264:26325   */\n      swap2\n      swap1\n      pop\n      jump\n        /* \"--CODEGEN--\":26332:26468   */\n    tag_486:\n      0x00\n        /* \"--CODEGEN--\":26424:26463   */\n      tag_619\n        /* \"--CODEGEN--\":26457:26462   */\n      dup3\n        /* \"--CODEGEN--\":26424:26463   */\n      jump(tag_609)\n    tag_619:\n        /* \"--CODEGEN--\":26411:26463   */\n      swap1\n      pop\n        /* \"--CODEGEN--\":26405:26468   */\n      swap2\n      swap1\n      pop\n      jump\n        /* \"--CODEGEN--\":26475:26596   */\n    tag_617:\n      0x00\n        /* \"--CODEGEN--\":26554:26591   */\n      tag_621\n        /* \"--CODEGEN--\":26585:26590   */\n      dup3\n        /* \"--CODEGEN--\":26554:26591   */\n      jump(tag_622)\n    tag_621:\n        /* \"--CODEGEN--\":26541:26591   */\n      swap1\n      pop\n        /* \"--CODEGEN--\":26535:26596   */\n      swap2\n      swap1\n      pop\n      jump\n        /* \"--CODEGEN--\":26603:26711   */\n    tag_622:\n      0x00\n        /* \"--CODEGEN--\":26682:26706   */\n      tag_624\n        /* \"--CODEGEN--\":26700:26705   */\n      dup3\n        /* \"--CODEGEN--\":26682:26706   */\n      jump(tag_606)\n    tag_624:\n        /* \"--CODEGEN--\":26669:26706   */\n      swap1\n      pop\n        /* \"--CODEGEN--\":26663:26711   */\n      swap2\n      swap1\n      pop\n      jump\n        /* \"--CODEGEN--\":26719:26864   */\n    tag_365:\n        /* \"--CODEGEN--\":26800:26806   */\n      dup3\n        /* \"--CODEGEN--\":26795:26798   */\n      dup2\n        /* \"--CODEGEN--\":26790:26793   */\n      dup4\n        /* \"--CODEGEN--\":26777:26807   */\n      calldatacopy\n        /* \"--CODEGEN--\":26856:26857   */\n      0x00\n        /* \"--CODEGEN--\":26847:26853   */\n      dup4\n        /* \"--CODEGEN--\":26842:26845   */\n      dup4\n        /* \"--CODEGEN--\":26838:26854   */\n      add\n        /* \"--CODEGEN--\":26831:26858   */\n      mstore\n        /* \"--CODEGEN--\":26770:26864   */\n      pop\n      pop\n      pop\n      jump\n        /* \"--CODEGEN--\":26873:27141   */\n    tag_373:\n        /* \"--CODEGEN--\":26938:26939   */\n      0x00\n        /* \"--CODEGEN--\":26945:27046   */\n    tag_627:\n        /* \"--CODEGEN--\":26959:26965   */\n      dup4\n        /* \"--CODEGEN--\":26956:26957   */\n      dup2\n        /* \"--CODEGEN--\":26953:26966   */\n      lt\n        /* \"--CODEGEN--\":26945:27046   */\n      iszero\n      tag_629\n      jumpi\n        /* \"--CODEGEN--\":27035:27036   */\n      dup1\n        /* \"--CODEGEN--\":27030:27033   */\n      dup3\n        /* \"--CODEGEN--\":27026:27037   */\n      add\n        /* \"--CODEGEN--\":27020:27038   */\n      mload\n        /* \"--CODEGEN--\":27016:27017   */\n      dup2\n        /* \"--CODEGEN--\":27011:27014   */\n      dup5\n        /* \"--CODEGEN--\":27007:27018   */\n      add\n        /* \"--CODEGEN--\":27000:27039   */\n      mstore\n        /* \"--CODEGEN--\":26981:26983   */\n      0x20\n        /* \"--CODEGEN--\":26978:26979   */\n      dup2\n        /* \"--CODEGEN--\":26974:26984   */\n      add\n        /* \"--CODEGEN--\":26969:26984   */\n      swap1\n      pop\n        /* \"--CODEGEN--\":26945:27046   */\n      jump(tag_627)\n    tag_629:\n        /* \"--CODEGEN--\":27061:27067   */\n      dup4\n        /* \"--CODEGEN--\":27058:27059   */\n      dup2\n        /* \"--CODEGEN--\":27055:27068   */\n      gt\n        /* \"--CODEGEN--\":27052:27054   */\n      iszero\n      tag_630\n      jumpi\n        /* \"--CODEGEN--\":27126:27127   */\n      0x00\n        /* \"--CODEGEN--\":27117:27123   */\n      dup5\n        /* \"--CODEGEN--\":27112:27115   */\n      dup5\n        /* \"--CODEGEN--\":27108:27124   */\n      add\n        /* \"--CODEGEN--\":27101:27128   */\n      mstore\n        /* \"--CODEGEN--\":27052:27054   */\n    tag_630:\n        /* \"--CODEGEN--\":26922:27141   */\n      pop\n      pop\n      pop\n      pop\n      jump\n        /* \"--CODEGEN--\":27149:27223   */\n    tag_482:\n      0x00\n        /* \"--CODEGEN--\":27213:27218   */\n      dup2\n        /* \"--CODEGEN--\":27202:27218   */\n      swap1\n      pop\n        /* \"--CODEGEN--\":27196:27223   */\n      swap2\n      swap1\n      pop\n      jump\n        /* \"--CODEGEN--\":27230:27327   */\n    tag_495:\n      0x00\n        /* \"--CODEGEN--\":27318:27320   */\n      0x1f\n        /* \"--CODEGEN--\":27314:27321   */\n      not\n        /* \"--CODEGEN--\":27309:27311   */\n      0x1f\n        /* \"--CODEGEN--\":27302:27307   */\n      dup4\n        /* \"--CODEGEN--\":27298:27312   */\n      add\n        /* \"--CODEGEN--\":27294:27322   */\n      and\n        /* \"--CODEGEN--\":27284:27322   */\n      swap1\n      pop\n        /* \"--CODEGEN--\":27278:27327   */\n      swap2\n      swap1\n      pop\n      jump\n        /* \"--CODEGEN--\":27335:27441   */\n    tag_612:\n        /* \"--CODEGEN--\":27419:27420   */\n      0x06\n        /* \"--CODEGEN--\":27412:27417   */\n      dup2\n        /* \"--CODEGEN--\":27409:27421   */\n      lt\n        /* \"--CODEGEN--\":27399:27401   */\n      tag_634\n      jumpi\n        /* \"--CODEGEN--\":27425:27434   */\n      invalid\n        /* \"--CODEGEN--\":27399:27401   */\n    tag_634:\n        /* \"--CODEGEN--\":27393:27441   */\n      pop\n      jump\n        /* \"--CODEGEN--\":27448:27565   */\n    tag_347:\n        /* \"--CODEGEN--\":27517:27541   */\n      tag_636\n        /* \"--CODEGEN--\":27535:27540   */\n      dup2\n        /* \"--CODEGEN--\":27517:27541   */\n      jump(tag_469)\n    tag_636:\n        /* \"--CODEGEN--\":27510:27515   */\n      dup2\n        /* \"--CODEGEN--\":27507:27542   */\n      eq\n        /* \"--CODEGEN--\":27497:27499   */\n      tag_637\n      jumpi\n        /* \"--CODEGEN--\":27556:27557   */\n      0x00\n        /* \"--CODEGEN--\":27553:27554   */\n      dup1\n        /* \"--CODEGEN--\":27546:27558   */\n      revert\n        /* \"--CODEGEN--\":27497:27499   */\n    tag_637:\n        /* \"--CODEGEN--\":27491:27565   */\n      pop\n      jump\n        /* \"--CODEGEN--\":27572:27683   */\n    tag_351:\n        /* \"--CODEGEN--\":27638:27659   */\n      tag_639\n        /* \"--CODEGEN--\":27653:27658   */\n      dup2\n        /* \"--CODEGEN--\":27638:27659   */\n      jump(tag_473)\n    tag_639:\n        /* \"--CODEGEN--\":27631:27636   */\n      dup2\n        /* \"--CODEGEN--\":27628:27660   */\n      eq\n        /* \"--CODEGEN--\":27618:27620   */\n      tag_640\n      jumpi\n        /* \"--CODEGEN--\":27674:27675   */\n      0x00\n        /* \"--CODEGEN--\":27671:27672   */\n      dup1\n        /* \"--CODEGEN--\":27664:27676   */\n      revert\n        /* \"--CODEGEN--\":27618:27620   */\n    tag_640:\n        /* \"--CODEGEN--\":27612:27683   */\n      pop\n      jump\n        /* \"--CODEGEN--\":27690:27807   */\n    tag_355:\n        /* \"--CODEGEN--\":27759:27783   */\n      tag_642\n        /* \"--CODEGEN--\":27777:27782   */\n      dup2\n        /* \"--CODEGEN--\":27759:27783   */\n      jump(tag_477)\n    tag_642:\n        /* \"--CODEGEN--\":27752:27757   */\n      dup2\n        /* \"--CODEGEN--\":27749:27784   */\n      eq\n        /* \"--CODEGEN--\":27739:27741   */\n      tag_643\n      jumpi\n        /* \"--CODEGEN--\":27798:27799   */\n      0x00\n        /* \"--CODEGEN--\":27795:27796   */\n      dup1\n        /* \"--CODEGEN--\":27788:27800   */\n      revert\n        /* \"--CODEGEN--\":27739:27741   */\n    tag_643:\n        /* \"--CODEGEN--\":27733:27807   */\n      pop\n      jump\n        /* \"--CODEGEN--\":27814:27931   */\n    tag_377:\n        /* \"--CODEGEN--\":27883:27907   */\n      tag_645\n        /* \"--CODEGEN--\":27901:27906   */\n      dup2\n        /* \"--CODEGEN--\":27883:27907   */\n      jump(tag_538)\n    tag_645:\n        /* \"--CODEGEN--\":27876:27881   */\n      dup2\n        /* \"--CODEGEN--\":27873:27908   */\n      eq\n        /* \"--CODEGEN--\":27863:27865   */\n      tag_646\n      jumpi\n        /* \"--CODEGEN--\":27922:27923   */\n      0x00\n        /* \"--CODEGEN--\":27919:27920   */\n      dup1\n        /* \"--CODEGEN--\":27912:27924   */\n      revert\n        /* \"--CODEGEN--\":27863:27865   */\n    tag_646:\n        /* \"--CODEGEN--\":27857:27931   */\n      pop\n      jump\n\n    auxdata: 0xa2646970667358221220e07780571442a2449c582bef2f9b8089a53fc6cec8c355f0de0a99298606dcb564736f6c63430006060033\n}\n","bytecode":{"linkReferences":{},"object":"60806040527382671b9d3abaa76277d5b38167b09646c2c32d94600160006101000a81548173ffffffffffffffffffffffffffffffffffffffff021916908373ffffffffffffffffffffffffffffffffffffffff16021790555034801561006557600080fd5b50336000806101000a81548173ffffffffffffffffffffffffffffffffffffffff021916908373ffffffffffffffffffffffffffffffffffffffff1602179055506147b1806100b56000396000f3fe608060405234801561001057600080fd5b506004361061012c5760003560e01c8063995975d8116100ad578063b7e0621611610071578063b7e062161461036d578063db76cb0714610389578063ef536e4f146103a5578063f0b2c594146103d5578063fbcf9575146103f15761012c565b8063995975d814610293578063a32f69c0146102c7578063a6b43aca146102fe578063a9588eda14610335578063b30485fc146103515761012c565b80633101c146116100f45780633101c146146101d8578063532a1bd2146101f4578063681bcf091461022b57806386fb1ff5146102475780638d449861146102775761012c565b80630ab2039f14610131578063108246f014610164578063156836e314610182578063253245b51461019e5780632a4f0c98146101bc575b600080fd5b61014b600480360381019061014691906138f3565b610428565b60405161015b949392919061429e565b60405180910390f35b61016c61075f565b6040516101799190614268565b60405180910390f35b61019c600480360381019061019791906138b7565b610785565b005b6101a66108d5565b6040516101b3919061456d565b60405180910390f35b6101d660048036038101906101d19190613c61565b6108e2565b005b6101f260048036038101906101ed9190613b7b565b610b92565b005b61020e600480360381019061020991906138f3565b610e51565b604051610222989796959493929190614422565b60405180910390f35b6102456004803603810190610240919061397e565b6110c8565b005b610261600480360381019061025c9190613a5c565b6114be565b60405161026e9190614400565b60405180910390f35b610291600480360381019061028c9190613942565b61162a565b005b6102ad60048036038101906102a89190613942565b6118c6565b6040516102be9594939291906143ad565b60405180910390f35b6102e160048036038101906102dc91906138f3565b611950565b6040516102f5989796959493929190614422565b60405180910390f35b610318600480360381019061031391906138f3565b611bc7565b60405161032c989796959493929190614422565b60405180910390f35b61034f600480360381019061034a91906139cd565b611e3e565b005b61036b6004803603810190610366919061388e565b612728565b005b61038760048036038101906103829190613abf565b612895565b005b6103a3600480360381019061039e9190613d4a565b612dcc565b005b6103bf60048036038101906103ba9190613942565b613126565b6040516103cc9190614268565b60405180910390f35b6103ef60048036038101906103ea919061388e565b613171565b005b61040b600480360381019061040691906138f3565b6132e2565b60405161041f989796959493929190614422565b60405180910390f35b60008060006060600b60008773ffffffffffffffffffffffffffffffffffffffff1673ffffffffffffffffffffffffffffffffffffffff16815260200190815260200160002060008873ffffffffffffffffffffffffffffffffffffffff1673ffffffffffffffffffffffffffffffffffffffff16815260200190815260200160002085815481106104b657fe5b906000526020600020906008020160010160009054906101000a900473ffffffffffffffffffffffffffffffffffffffff16600b60008873ffffffffffffffffffffffffffffffffffffffff1673ffffffffffffffffffffffffffffffffffffffff16815260200190815260200160002060008973ffffffffffffffffffffffffffffffffffffffff1673ffffffffffffffffffffffffffffffffffffffff168152602001908152602001600020868154811061056f57fe5b906000526020600020906008020160050154600b60008973ffffffffffffffffffffffffffffffffffffffff1673ffffffffffffffffffffffffffffffffffffffff16815260200190815260200160002060008a73ffffffffffffffffffffffffffffffffffffffff1673ffffffffffffffffffffffffffffffffffffffff168152602001908152602001600020878154811061060857fe5b906000526020600020906008020160060154600b60008a73ffffffffffffffffffffffffffffffffffffffff1673ffffffffffffffffffffffffffffffffffffffff16815260200190815260200160002060008b73ffffffffffffffffffffffffffffffffffffffff1673ffffffffffffffffffffffffffffffffffffffff16815260200190815260200160002088815481106106a157fe5b9060005260206000209060080201600401808054600181600116156101000203166002900480601f0160208091040260200160405190810160405280929190818152602001828054600181600116156101000203166002900480156107475780601f1061071c57610100808354040283529160200191610747565b820191906000526020600020905b81548152906001019060200180831161072a57829003601f168201915b50505050509050935093509350935093509350935093565b600160009054906101000a900473ffffffffffffffffffffffffffffffffffffffff1681565b60011515600560008473ffffffffffffffffffffffffffffffffffffffff1673ffffffffffffffffffffffffffffffffffffffff16815260200190815260200160002060009054906101000a900460ff161515146107e257600080fd5b600082905060608173ffffffffffffffffffffffffffffffffffffffff16638cba76b1846040518263ffffffff1660e01b8152600401610822919061432b565b60006040518083038186803b15801561083a57600080fd5b505afa15801561084e573d6000803e3d6000fd5b505050506040513d6000823e3d601f19601f820116820180604052508101906108779190613b3a565b905060405160200161088890614253565b60405160208183030381529060405280519060200120816040516020016108af919061423c565b60405160208183030381529060405280519060200120146108cf57600080fd5b50505050565b6000600280549050905090565b6000809054906101000a900473ffffffffffffffffffffffffffffffffffffffff1673ffffffffffffffffffffffffffffffffffffffff163373ffffffffffffffffffffffffffffffffffffffff161461093b57600080fd5b6109656000809054906101000a900473ffffffffffffffffffffffffffffffffffffffff16612728565b6001600460008773ffffffffffffffffffffffffffffffffffffffff1673ffffffffffffffffffffffffffffffffffffffff16815260200190815260200160002060006101000a81548160ff0219169083151502179055506109c5613559565b86816000018190525085816020019073ffffffffffffffffffffffffffffffffffffffff16908173ffffffffffffffffffffffffffffffffffffffff168152505084816040018190525083816060019073ffffffffffffffffffffffffffffffffffffffff16908173ffffffffffffffffffffffffffffffffffffffff1681525050828160800181905250818160a0018190525060028190806001815401808255809150506001900390600052602060002090600602016000909190919091506000820151816000019080519060200190610aa19291906135bb565b5060208201518160010160006101000a81548173ffffffffffffffffffffffffffffffffffffffff021916908373ffffffffffffffffffffffffffffffffffffffff1602179055506040820151816002019080519060200190610b059291906135bb565b5060608201518160030160006101000a81548173ffffffffffffffffffffffffffffffffffffffff021916908373ffffffffffffffffffffffffffffffffffffffff1602179055506080820151816004019080519060200190610b699291906135bb565b5060a0820151816005019080519060200190610b869291906135bb565b50505050505050505050565b60011515600560008873ffffffffffffffffffffffffffffffffffffffff1673ffffffffffffffffffffffffffffffffffffffff16815260200190815260200160002060009054906101000a900460ff16151514610bef57600080fd5b610bf761363b565b87816000018190525033816020019073ffffffffffffffffffffffffffffffffffffffff16908173ffffffffffffffffffffffffffffffffffffffff168152505085816040018190525084816060019073ffffffffffffffffffffffffffffffffffffffff16908173ffffffffffffffffffffffffffffffffffffffff1681525050838160800181905250828160a0018181525050818160c001818152505060018160e00151018160e001818152505080600660008773ffffffffffffffffffffffffffffffffffffffff1673ffffffffffffffffffffffffffffffffffffffff16815260200190815260200160002060008973ffffffffffffffffffffffffffffffffffffffff1673ffffffffffffffffffffffffffffffffffffffff1681526020019081526020016000208260e0015181548110610d3357fe5b90600052602060002090600802016000820151816000019080519060200190610d5d9291906135bb565b5060208201518160010160006101000a81548173ffffffffffffffffffffffffffffffffffffffff021916908373ffffffffffffffffffffffffffffffffffffffff1602179055506040820151816002019080519060200190610dc19291906135bb565b5060608201518160030160006101000a81548173ffffffffffffffffffffffffffffffffffffffff021916908373ffffffffffffffffffffffffffffffffffffffff1602179055506080820151816004019080519060200190610e259291906135bb565b5060a0820151816005015560c0820151816006015560e082015181600701559050505050505050505050565b60066020528260005260406000206020528160005260406000208181548110610e7657fe5b90600052602060002090600802016000925092505050806000018054600181600116156101000203166002900480601f016020809104026020016040519081016040528092919081815260200182805460018160011615610100020316600290048015610f245780601f10610ef957610100808354040283529160200191610f24565b820191906000526020600020905b815481529060010190602001808311610f0757829003601f168201915b5050505050908060010160009054906101000a900473ffffffffffffffffffffffffffffffffffffffff1690806002018054600181600116156101000203166002900480601f016020809104026020016040519081016040528092919081815260200182805460018160011615610100020316600290048015610fe85780601f10610fbd57610100808354040283529160200191610fe8565b820191906000526020600020905b815481529060010190602001808311610fcb57829003601f168201915b5050505050908060030160009054906101000a900473ffffffffffffffffffffffffffffffffffffffff1690806004018054600181600116156101000203166002900480601f0160208091040260200160405190810160405280929190818152602001828054600181600116156101000203166002900480156110ac5780601f10611081576101008083540402835291602001916110ac565b820191906000526020600020905b81548152906001019060200180831161108f57829003601f168201915b5050505050908060050154908060060154908060070154905088565b6000600c60003373ffffffffffffffffffffffffffffffffffffffff1673ffffffffffffffffffffffffffffffffffffffff16815260200190815260200160002060008381526020019081526020016000205490503373ffffffffffffffffffffffffffffffffffffffff16600860003373ffffffffffffffffffffffffffffffffffffffff1673ffffffffffffffffffffffffffffffffffffffff168152602001908152602001600020828154811061117e57fe5b906000526020600020906004020160000160019054906101000a900473ffffffffffffffffffffffffffffffffffffffff1673ffffffffffffffffffffffffffffffffffffffff1614156111d157600080fd5b600060058111156111de57fe5b600860003373ffffffffffffffffffffffffffffffffffffffff1673ffffffffffffffffffffffffffffffffffffffff168152602001908152602001600020828154811061122857fe5b906000526020600020906004020160000160009054906101000a900460ff16600581111561125257fe5b1461125c57600080fd5b831561138f576001600860003373ffffffffffffffffffffffffffffffffffffffff1673ffffffffffffffffffffffffffffffffffffffff16815260200190815260200160002082815481106112ae57fe5b906000526020600020906004020160000160006101000a81548160ff021916908360058111156112da57fe5b02179055506001600860003373ffffffffffffffffffffffffffffffffffffffff1673ffffffffffffffffffffffffffffffffffffffff168152602001908152602001600020828154811061132b57fe5b906000526020600020906004020160030160006101000a81548160ff0219169083151502179055507f30f499dee5aca26bf88e6932509f2693b637e648ec36ac97034db8869f118639836040516113829190614511565b60405180910390a16114b8565b6002600860003373ffffffffffffffffffffffffffffffffffffffff1673ffffffffffffffffffffffffffffffffffffffff16815260200190815260200160002082815481106113db57fe5b906000526020600020906004020160000160006101000a81548160ff0219169083600581111561140757fe5b02179055506000600860003373ffffffffffffffffffffffffffffffffffffffff1673ffffffffffffffffffffffffffffffffffffffff168152602001908152602001600020828154811061145857fe5b906000526020600020906004020160030160006101000a81548160ff0219169083151502179055507fb72d3d0ddac6222a8090aba8a89a5f33ea480ca5e3201dea0f31f5da8203f249836040516114af91906144b5565b60405180910390a15b50505050565b6060600660008473ffffffffffffffffffffffffffffffffffffffff1673ffffffffffffffffffffffffffffffffffffffff16815260200190815260200160002060008573ffffffffffffffffffffffffffffffffffffffff1673ffffffffffffffffffffffffffffffffffffffff168152602001908152602001600020828154811061154757fe5b9060005260206000209060080201600501546040516020016115699190614221565b60405160208183030381529060405280519060200120856040516020016115909190614221565b6040516020818303038152906040528051906020012014156115e9576040518060400160405280600481526020017f74727565000000000000000000000000000000000000000000000000000000008152509050611622565b6040518060400160405280600b81526020017f616c6d6f73742066616b6500000000000000000000000000000000000000000081525090505b949350505050565b3373ffffffffffffffffffffffffffffffffffffffff168273ffffffffffffffffffffffffffffffffffffffff16141561166357600080fd5b7f85ace08f038481adc2bfd0f855a5103eed84d76d1889e2837c00a5f0b64dd50b336040516116929190614283565b60405180910390a16116a26136af565b33816020019073ffffffffffffffffffffffffffffffffffffffff16908173ffffffffffffffffffffffffffffffffffffffff16815250506000816000019060058111156116ec57fe5b908160058111156116f957fe5b81525050818160400181815250506000816080019015159081151581525050600860008473ffffffffffffffffffffffffffffffffffffffff1673ffffffffffffffffffffffffffffffffffffffff16815260200190815260200160002081908060018154018082558091505060019003906000526020600020906004020160009091909190915060008201518160000160006101000a81548160ff021916908360058111156117a557fe5b021790555060208201518160000160016101000a81548173ffffffffffffffffffffffffffffffffffffffff021916908373ffffffffffffffffffffffffffffffffffffffff160217905550604082015181600101556060820151816002015560808201518160030160006101000a81548160ff02191690831515021790555050506001600860008573ffffffffffffffffffffffffffffffffffffffff1673ffffffffffffffffffffffffffffffffffffffff1681526020019081526020016000208054905003600c60008573ffffffffffffffffffffffffffffffffffffffff1673ffffffffffffffffffffffffffffffffffffffff168152602001908152602001600020600084815260200190815260200160002081905550505050565b600860205281600052604060002081815481106118df57fe5b9060005260206000209060040201600091509150508060000160009054906101000a900460ff16908060000160019054906101000a900473ffffffffffffffffffffffffffffffffffffffff16908060010154908060020154908060030160009054906101000a900460ff16905085565b6009602052826000526040600020602052816000526040600020818154811061197557fe5b90600052602060002090600802016000925092505050806000018054600181600116156101000203166002900480601f016020809104026020016040519081016040528092919081815260200182805460018160011615610100020316600290048015611a235780601f106119f857610100808354040283529160200191611a23565b820191906000526020600020905b815481529060010190602001808311611a0657829003601f168201915b5050505050908060010160009054906101000a900473ffffffffffffffffffffffffffffffffffffffff1690806002018054600181600116156101000203166002900480601f016020809104026020016040519081016040528092919081815260200182805460018160011615610100020316600290048015611ae75780601f10611abc57610100808354040283529160200191611ae7565b820191906000526020600020905b815481529060010190602001808311611aca57829003601f168201915b5050505050908060030160009054906101000a900473ffffffffffffffffffffffffffffffffffffffff1690806004018054600181600116156101000203166002900480601f016020809104026020016040519081016040528092919081815260200182805460018160011615610100020316600290048015611bab5780601f10611b8057610100808354040283529160200191611bab565b820191906000526020600020905b815481529060010190602001808311611b8e57829003601f168201915b5050505050908060050154908060060154908060070154905088565b600a6020528260005260406000206020528160005260406000208181548110611bec57fe5b90600052602060002090600802016000925092505050806000018054600181600116156101000203166002900480601f016020809104026020016040519081016040528092919081815260200182805460018160011615610100020316600290048015611c9a5780601f10611c6f57610100808354040283529160200191611c9a565b820191906000526020600020905b815481529060010190602001808311611c7d57829003601f168201915b5050505050908060010160009054906101000a900473ffffffffffffffffffffffffffffffffffffffff1690806002018054600181600116156101000203166002900480601f016020809104026020016040519081016040528092919081815260200182805460018160011615610100020316600290048015611d5e5780601f10611d3357610100808354040283529160200191611d5e565b820191906000526020600020905b815481529060010190602001808311611d4157829003601f168201915b5050505050908060030160009054906101000a900473ffffffffffffffffffffffffffffffffffffffff1690806004018054600181600116156101000203166002900480601f016020809104026020016040519081016040528092919081815260200182805460018160011615610100020316600290048015611e225780601f10611df757610100808354040283529160200191611e22565b820191906000526020600020905b815481529060010190602001808311611e0557829003601f168201915b5050505050908060050154908060060154908060070154905088565b6000600c60003373ffffffffffffffffffffffffffffffffffffffff1673ffffffffffffffffffffffffffffffffffffffff16815260200190815260200160002060008381526020019081526020016000205490508273ffffffffffffffffffffffffffffffffffffffff16600860003373ffffffffffffffffffffffffffffffffffffffff1673ffffffffffffffffffffffffffffffffffffffff1681526020019081526020016000208281548110611ef457fe5b906000526020600020906004020160000160019054906101000a900473ffffffffffffffffffffffffffffffffffffffff1673ffffffffffffffffffffffffffffffffffffffff1614611f4657600080fd5b60016005811115611f5357fe5b600860003373ffffffffffffffffffffffffffffffffffffffff1673ffffffffffffffffffffffffffffffffffffffff1681526020019081526020016000208281548110611f9d57fe5b906000526020600020906004020160000160009054906101000a900460ff166005811115611fc757fe5b14611fd157600080fd5b60011515600860003373ffffffffffffffffffffffffffffffffffffffff1673ffffffffffffffffffffffffffffffffffffffff168152602001908152602001600020828154811061201f57fe5b906000526020600020906004020160030160009054906101000a900460ff1615151461204a57600080fd5b61205261363b565b33816020019073ffffffffffffffffffffffffffffffffffffffff16908173ffffffffffffffffffffffffffffffffffffffff1681525050858160a0018181525050428160c001818152505084816080018190525086156123e857600960003373ffffffffffffffffffffffffffffffffffffffff1673ffffffffffffffffffffffffffffffffffffffff16815260200190815260200160002060008573ffffffffffffffffffffffffffffffffffffffff1673ffffffffffffffffffffffffffffffffffffffff168152602001908152602001600020819080600181540180825580915050600190039060005260206000209060080201600090919091909150600082015181600001908051906020019061216f9291906135bb565b5060208201518160010160006101000a81548173ffffffffffffffffffffffffffffffffffffffff021916908373ffffffffffffffffffffffffffffffffffffffff16021790555060408201518160020190805190602001906121d39291906135bb565b5060608201518160030160006101000a81548173ffffffffffffffffffffffffffffffffffffffff021916908373ffffffffffffffffffffffffffffffffffffffff16021790555060808201518160040190805190602001906122379291906135bb565b5060a0820151816005015560c0820151816006015560e0820151816007015550506001600960003373ffffffffffffffffffffffffffffffffffffffff1673ffffffffffffffffffffffffffffffffffffffff16815260200190815260200160002060008673ffffffffffffffffffffffffffffffffffffffff1673ffffffffffffffffffffffffffffffffffffffff1681526020019081526020016000208054905003600e60003373ffffffffffffffffffffffffffffffffffffffff1673ffffffffffffffffffffffffffffffffffffffff1681526020019081526020016000206000858152602001908152602001600020819055506004600860003373ffffffffffffffffffffffffffffffffffffffff1673ffffffffffffffffffffffffffffffffffffffff168152602001908152602001600020838154811061237b57fe5b906000526020600020906004020160000160006101000a81548160ff021916908360058111156123a757fe5b02179055507f9284a3a973ddff1d3e244c1e83925819c36925fb080960eb3f826bf9bb9bf210846040516123db919061453f565b60405180910390a161271f565b600a60003373ffffffffffffffffffffffffffffffffffffffff1673ffffffffffffffffffffffffffffffffffffffff16815260200190815260200160002060008573ffffffffffffffffffffffffffffffffffffffff1673ffffffffffffffffffffffffffffffffffffffff16815260200190815260200160002081908060018154018082558091505060019003906000526020600020906008020160009091909190915060008201518160000190805190602001906124aa9291906135bb565b5060208201518160010160006101000a81548173ffffffffffffffffffffffffffffffffffffffff021916908373ffffffffffffffffffffffffffffffffffffffff160217905550604082015181600201908051906020019061250e9291906135bb565b5060608201518160030160006101000a81548173ffffffffffffffffffffffffffffffffffffffff021916908373ffffffffffffffffffffffffffffffffffffffff16021790555060808201518160040190805190602001906125729291906135bb565b5060a0820151816005015560c0820151816006015560e0820151816007015550506001600a60003373ffffffffffffffffffffffffffffffffffffffff1673ffffffffffffffffffffffffffffffffffffffff16815260200190815260200160002060008673ffffffffffffffffffffffffffffffffffffffff1673ffffffffffffffffffffffffffffffffffffffff1681526020019081526020016000208054905003600e60003373ffffffffffffffffffffffffffffffffffffffff1673ffffffffffffffffffffffffffffffffffffffff1681526020019081526020016000206000858152602001908152602001600020819055506005600860003373ffffffffffffffffffffffffffffffffffffffff1673ffffffffffffffffffffffffffffffffffffffff16815260200190815260200160002083815481106126b657fe5b906000526020600020906004020160000160006101000a81548160ff021916908360058111156126e257fe5b02179055507f3b749fd3ed05012aa59143f387db1a9f0ad29515177c5476b7de22989d3d4ffe8460405161271691906144e3565b60405180910390a15b50505050505050565b6000809054906101000a900473ffffffffffffffffffffffffffffffffffffffff1673ffffffffffffffffffffffffffffffffffffffff163373ffffffffffffffffffffffffffffffffffffffff161461278157600080fd5b600081905060608173ffffffffffffffffffffffffffffffffffffffff16638cba76b1600160009054906101000a900473ffffffffffffffffffffffffffffffffffffffff166040518263ffffffff1660e01b81526004016127e3919061436c565b60006040518083038186803b1580156127fb57600080fd5b505afa15801561280f573d6000803e3d6000fd5b505050506040513d6000823e3d601f19601f820116820180604052508101906128389190613b3a565b905060405160200161284990614253565b6040516020818303038152906040528051906020012081604051602001612870919061423c565b604051602081830303815290604052805190602001201461289057600080fd5b505050565b6000600c60008473ffffffffffffffffffffffffffffffffffffffff1673ffffffffffffffffffffffffffffffffffffffff16815260200190815260200160002060008381526020019081526020016000205490503373ffffffffffffffffffffffffffffffffffffffff16600860008573ffffffffffffffffffffffffffffffffffffffff1673ffffffffffffffffffffffffffffffffffffffff168152602001908152602001600020828154811061294b57fe5b906000526020600020906004020160000160019054906101000a900473ffffffffffffffffffffffffffffffffffffffff1673ffffffffffffffffffffffffffffffffffffffff161461299d57600080fd5b600160058111156129aa57fe5b600860008573ffffffffffffffffffffffffffffffffffffffff1673ffffffffffffffffffffffffffffffffffffffff16815260200190815260200160002082815481106129f457fe5b906000526020600020906004020160000160009054906101000a900460ff166005811115612a1e57fe5b14612a2857600080fd5b612a3061363b565b33816020019073ffffffffffffffffffffffffffffffffffffffff16908173ffffffffffffffffffffffffffffffffffffffff1681525050858160a0018181525050428160c0018181525050848160800181905250600b60003373ffffffffffffffffffffffffffffffffffffffff1673ffffffffffffffffffffffffffffffffffffffff16815260200190815260200160002060008573ffffffffffffffffffffffffffffffffffffffff1673ffffffffffffffffffffffffffffffffffffffff1681526020019081526020016000208190806001815401808255809150506001900390600052602060002090600802016000909190919091506000820151816000019080519060200190612b479291906135bb565b5060208201518160010160006101000a81548173ffffffffffffffffffffffffffffffffffffffff021916908373ffffffffffffffffffffffffffffffffffffffff1602179055506040820151816002019080519060200190612bab9291906135bb565b5060608201518160030160006101000a81548173ffffffffffffffffffffffffffffffffffffffff021916908373ffffffffffffffffffffffffffffffffffffffff1602179055506080820151816004019080519060200190612c0f9291906135bb565b5060a0820151816005015560c0820151816006015560e0820151816007015550506001600b60003373ffffffffffffffffffffffffffffffffffffffff1673ffffffffffffffffffffffffffffffffffffffff16815260200190815260200160002060008673ffffffffffffffffffffffffffffffffffffffff1673ffffffffffffffffffffffffffffffffffffffff1681526020019081526020016000208054905003600d60003373ffffffffffffffffffffffffffffffffffffffff1673ffffffffffffffffffffffffffffffffffffffff16815260200190815260200160002060008673ffffffffffffffffffffffffffffffffffffffff1673ffffffffffffffffffffffffffffffffffffffff168152602001908152602001600020819055506000600d60003373ffffffffffffffffffffffffffffffffffffffff1673ffffffffffffffffffffffffffffffffffffffff16815260200190815260200160002060008673ffffffffffffffffffffffffffffffffffffffff1673ffffffffffffffffffffffffffffffffffffffff168152602001908152602001600020549050612dbf853383610428565b5050505050505050505050565b60011515600460008673ffffffffffffffffffffffffffffffffffffffff1673ffffffffffffffffffffffffffffffffffffffff16815260200190815260200160002060009054906101000a900460ff16151514612e2957600080fd5b612e3284613171565b6001600560008873ffffffffffffffffffffffffffffffffffffffff1673ffffffffffffffffffffffffffffffffffffffff16815260200190815260200160002060006101000a81548160ff021916908315150217905550612e92613704565b87816000018190525086816020019073ffffffffffffffffffffffffffffffffffffffff16908173ffffffffffffffffffffffffffffffffffffffff168152505085816040018190525084816060019073ffffffffffffffffffffffffffffffffffffffff16908173ffffffffffffffffffffffffffffffffffffffff1681525050838160800181905250828160a00181905250818160c0018190525060038190806001815401808255809150506001900390600052602060002090600702016000909190919091506000820151816000019080519060200190612f779291906135bb565b5060208201518160010160006101000a81548173ffffffffffffffffffffffffffffffffffffffff021916908373ffffffffffffffffffffffffffffffffffffffff1602179055506040820151816002019080519060200190612fdb9291906135bb565b5060608201518160030160006101000a81548173ffffffffffffffffffffffffffffffffffffffff021916908373ffffffffffffffffffffffffffffffffffffffff160217905550608082015181600401908051906020019061303f9291906135bb565b5060a082015181600501908051906020019061305c9291906135bb565b5060c08201518160060190805190602001906130799291906135bb565b505050600760008673ffffffffffffffffffffffffffffffffffffffff1673ffffffffffffffffffffffffffffffffffffffff168152602001908152602001600020879080600181540180825580915050600190039060005260206000200160009091909190916101000a81548173ffffffffffffffffffffffffffffffffffffffff021916908373ffffffffffffffffffffffffffffffffffffffff1602179055505050505050505050565b6007602052816000526040600020818154811061313f57fe5b906000526020600020016000915091509054906101000a900473ffffffffffffffffffffffffffffffffffffffff1681565b60011515600460008373ffffffffffffffffffffffffffffffffffffffff1673ffffffffffffffffffffffffffffffffffffffff16815260200190815260200160002060009054906101000a900460ff161515146131ce57600080fd5b600081905060608173ffffffffffffffffffffffffffffffffffffffff16638cba76b1600160009054906101000a900473ffffffffffffffffffffffffffffffffffffffff166040518263ffffffff1660e01b815260040161323091906142ea565b60006040518083038186803b15801561324857600080fd5b505afa15801561325c573d6000803e3d6000fd5b505050506040513d6000823e3d601f19601f820116820180604052508101906132859190613b3a565b905060405160200161329690614253565b60405160208183030381529060405280519060200120816040516020016132bd919061423c565b60405160208183030381529060405280519060200120146132dd57600080fd5b505050565b600b602052826000526040600020602052816000526040600020818154811061330757fe5b90600052602060002090600802016000925092505050806000018054600181600116156101000203166002900480601f0160208091040260200160405190810160405280929190818152602001828054600181600116156101000203166002900480156133b55780601f1061338a576101008083540402835291602001916133b5565b820191906000526020600020905b81548152906001019060200180831161339857829003601f168201915b5050505050908060010160009054906101000a900473ffffffffffffffffffffffffffffffffffffffff1690806002018054600181600116156101000203166002900480601f0160208091040260200160405190810160405280929190818152602001828054600181600116156101000203166002900480156134795780601f1061344e57610100808354040283529160200191613479565b820191906000526020600020905b81548152906001019060200180831161345c57829003601f168201915b5050505050908060030160009054906101000a900473ffffffffffffffffffffffffffffffffffffffff1690806004018054600181600116156101000203166002900480601f01602080910402602001604051908101604052809291908181526020018280546001816001161561010002031660029004801561353d5780601f106135125761010080835404028352916020019161353d565b820191906000526020600020905b81548152906001019060200180831161352057829003601f168201915b5050505050908060050154908060060154908060070154905088565b6040518060c0016040528060608152602001600073ffffffffffffffffffffffffffffffffffffffff16815260200160608152602001600073ffffffffffffffffffffffffffffffffffffffff16815260200160608152602001606081525090565b828054600181600116156101000203166002900490600052602060002090601f016020900481019282601f106135fc57805160ff191683800117855561362a565b8280016001018555821561362a579182015b8281111561362957825182559160200191906001019061360e565b5b509050613637919061376d565b5090565b60405180610100016040528060608152602001600073ffffffffffffffffffffffffffffffffffffffff16815260200160608152602001600073ffffffffffffffffffffffffffffffffffffffff168152602001606081526020016000801916815260200160008152602001600081525090565b6040518060a00160405280600060058111156136c757fe5b8152602001600073ffffffffffffffffffffffffffffffffffffffff16815260200160008152602001600080191681526020016000151581525090565b6040518060e0016040528060608152602001600073ffffffffffffffffffffffffffffffffffffffff16815260200160608152602001600073ffffffffffffffffffffffffffffffffffffffff1681526020016060815260200160608152602001606081525090565b61378f91905b8082111561378b576000816000905550600101613773565b5090565b90565b6000813590506137a18161471f565b92915050565b6000813590506137b681614736565b92915050565b6000813590506137cb8161474d565b92915050565b600082601f8301126137e257600080fd5b81356137f56137f0826145b5565b614588565b9150808252602083016020830185838301111561381157600080fd5b61381c8382846146b5565b50505092915050565b600082601f83011261383657600080fd5b8151613849613844826145b5565b614588565b9150808252602083016020830185838301111561386557600080fd5b6138708382846146c4565b50505092915050565b60008135905061388881614764565b92915050565b6000602082840312156138a057600080fd5b60006138ae84828501613792565b91505092915050565b600080604083850312156138ca57600080fd5b60006138d885828601613792565b92505060206138e985828601613792565b9150509250929050565b60008060006060848603121561390857600080fd5b600061391686828701613792565b935050602061392786828701613792565b925050604061393886828701613879565b9150509250925092565b6000806040838503121561395557600080fd5b600061396385828601613792565b925050602061397485828601613879565b9150509250929050565b60008060006060848603121561399357600080fd5b60006139a1868287016137a7565b93505060206139b286828701613792565b92505060406139c386828701613879565b9150509250925092565b600080600080600060a086880312156139e557600080fd5b60006139f3888289016137a7565b9550506020613a04888289016137bc565b945050604086013567ffffffffffffffff811115613a2157600080fd5b613a2d888289016137d1565b9350506060613a3e88828901613792565b9250506080613a4f88828901613879565b9150509295509295909350565b60008060008060808587031215613a7257600080fd5b6000613a80878288016137bc565b9450506020613a9187828801613792565b9350506040613aa287828801613792565b9250506060613ab387828801613879565b91505092959194509250565b60008060008060808587031215613ad557600080fd5b6000613ae3878288016137bc565b945050602085013567ffffffffffffffff811115613b0057600080fd5b613b0c878288016137d1565b9350506040613b1d87828801613792565b9250506060613b2e87828801613879565b91505092959194509250565b600060208284031215613b4c57600080fd5b600082015167ffffffffffffffff811115613b6657600080fd5b613b7284828501613825565b91505092915050565b600080600080600080600060e0888a031215613b9657600080fd5b600088013567ffffffffffffffff811115613bb057600080fd5b613bbc8a828b016137d1565b9750506020613bcd8a828b01613792565b965050604088013567ffffffffffffffff811115613bea57600080fd5b613bf68a828b016137d1565b9550506060613c078a828b01613792565b945050608088013567ffffffffffffffff811115613c2457600080fd5b613c308a828b016137d1565b93505060a0613c418a828b016137bc565b92505060c0613c528a828b01613879565b91505092959891949750929550565b60008060008060008060c08789031215613c7a57600080fd5b600087013567ffffffffffffffff811115613c9457600080fd5b613ca089828a016137d1565b9650506020613cb189828a01613792565b955050604087013567ffffffffffffffff811115613cce57600080fd5b613cda89828a016137d1565b9450506060613ceb89828a01613792565b935050608087013567ffffffffffffffff811115613d0857600080fd5b613d1489828a016137d1565b92505060a087013567ffffffffffffffff811115613d3157600080fd5b613d3d89828a016137d1565b9150509295509295509295565b600080600080600080600060e0888a031215613d6557600080fd5b600088013567ffffffffffffffff811115613d7f57600080fd5b613d8b8a828b016137d1565b9750506020613d9c8a828b01613792565b965050604088013567ffffffffffffffff811115613db957600080fd5b613dc58a828b016137d1565b9550506060613dd68a828b01613792565b945050608088013567ffffffffffffffff811115613df357600080fd5b613dff8a828b016137d1565b93505060a088013567ffffffffffffffff811115613e1c57600080fd5b613e288a828b016137d1565b92505060c088013567ffffffffffffffff811115613e4557600080fd5b613e518a828b016137d1565b91505092959891949750929550565b613e698161466d565b82525050565b613e7881614608565b82525050565b613e878161461a565b82525050565b613e9681614626565b82525050565b613ead613ea882614626565b6146f7565b82525050565b613ebc8161467f565b82525050565b6000613ecd826145e1565b613ed781856145ec565b9350613ee78185602086016146c4565b613ef081614701565b840191505092915050565b6000613f06826145e1565b613f1081856145fd565b9350613f208185602086016146c4565b80840191505092915050565b6000613f396010836145ec565b91507f4d656469614365727469666963617465000000000000000000000000000000006000830152602082019050919050565b6000613f79601c836145ec565b91507f5065726d697373696f6e2044656e69656420746f2061646472657373000000006000830152602082019050919050565b6000613fb96012836145ec565b91507f4661696c7572652041747465737465643a2000000000000000000000000000006000830152602082019050919050565b6000613ff9600f836145ec565b91507f4a6f7572436572746966696361746500000000000000000000000000000000006000830152602082019050919050565b60006140396005836145ec565b91507f69734e43430000000000000000000000000000000000000000000000000000006000830152602082019050919050565b60006140796006836145ec565b91507f69734a6f757200000000000000000000000000000000000000000000000000006000830152602082019050919050565b60006140b96007836145ec565b91507f69734d65646961000000000000000000000000000000000000000000000000006000830152602082019050919050565b60006140f96003836145fd565b91507f59657300000000000000000000000000000000000000000000000000000000006000830152600382019050919050565b6000614139600b836145ec565b91507f63657274696669636174650000000000000000000000000000000000000000006000830152602082019050919050565b6000614179602f836145ec565b91507f5065726d697373696f6e2068617320616c7265616479206265656e204772616e60008301527f74656420746f20616464726573732000000000000000000000000000000000006020830152604082019050919050565b60006141df6017836145ec565b91507f5375636365737366756c6c792041747465737465643a200000000000000000006000830152602082019050919050565b61421b81614663565b82525050565b600061422d8284613e9c565b60208201915081905092915050565b60006142488284613efb565b915081905092915050565b600061425e826140ec565b9150819050919050565b600060208201905061427d6000830184613e6f565b92915050565b60006020820190506142986000830184613e60565b92915050565b60006080820190506142b36000830187613e6f565b6142c06020830186613e8d565b6142cd6040830185614212565b81810360608301526142df8184613ec2565b905095945050505050565b60006060820190506142ff6000830184613e6f565b818103602083015261431081613f2c565b90508181036040830152614323816140ac565b905092915050565b60006060820190506143406000830184613e6f565b818103602083015261435181613fec565b905081810360408301526143648161406c565b905092915050565b60006060820190506143816000830184613e6f565b81810360208301526143928161412c565b905081810360408301526143a58161402c565b905092915050565b600060a0820190506143c26000830188613eb3565b6143cf6020830187613e6f565b6143dc6040830186614212565b6143e96060830185613e8d565b6143f66080830184613e7e565b9695505050505050565b6000602082019050818103600083015261441a8184613ec2565b905092915050565b600061010082019050818103600083015261443d818b613ec2565b905061444c602083018a613e6f565b818103604083015261445e8189613ec2565b905061446d6060830188613e6f565b818103608083015261447f8187613ec2565b905061448e60a0830186613e8d565b61449b60c0830185614212565b6144a860e0830184614212565b9998505050505050505050565b600060408201905081810360008301526144ce81613f6c565b90506144dd6020830184613e6f565b92915050565b600060408201905081810360008301526144fc81613fac565b905061450b6020830184613e6f565b92915050565b6000604082019050818103600083015261452a8161416c565b90506145396020830184613e6f565b92915050565b60006040820190508181036000830152614558816141d2565b90506145676020830184613e6f565b92915050565b60006020820190506145826000830184614212565b92915050565b6000604051905081810181811067ffffffffffffffff821117156145ab57600080fd5b8060405250919050565b600067ffffffffffffffff8211156145cc57600080fd5b601f19601f8301169050602081019050919050565b600081519050919050565b600082825260208201905092915050565b600081905092915050565b600061461382614643565b9050919050565b60008115159050919050565b6000819050919050565b600081905061463e82614712565b919050565b600073ffffffffffffffffffffffffffffffffffffffff82169050919050565b6000819050919050565b600061467882614691565b9050919050565b600061468a82614630565b9050919050565b600061469c826146a3565b9050919050565b60006146ae82614643565b9050919050565b82818337600083830152505050565b60005b838110156146e25780820151818401526020810190506146c7565b838111156146f1576000848401525b50505050565b6000819050919050565b6000601f19601f8301169050919050565b6006811061471c57fe5b50565b61472881614608565b811461473357600080fd5b50565b61473f8161461a565b811461474a57600080fd5b50565b61475681614626565b811461476157600080fd5b50565b61476d81614663565b811461477857600080fd5b5056fea2646970667358221220e07780571442a2449c582bef2f9b8089a53fc6cec8c355f0de0a99298606dcb564736f6c63430006060033","opcodes":"PUSH1 0x80 PUSH1 0x40 MSTORE PUSH20 0x82671B9D3ABAA76277D5B38167B09646C2C32D94 PUSH1 0x1 PUSH1 0x0 PUSH2 0x100 EXP DUP2 SLOAD DUP2 PUSH20 0xFFFFFFFFFFFFFFFFFFFFFFFFFFFFFFFFFFFFFFFF MUL NOT AND SWAP1 DUP4 PUSH20 0xFFFFFFFFFFFFFFFFFFFFFFFFFFFFFFFFFFFFFFFF AND MUL OR SWAP1 SSTORE POP CALLVALUE DUP1 ISZERO PUSH2 0x65 JUMPI PUSH1 0x0 DUP1 REVERT JUMPDEST POP CALLER PUSH1 0x0 DUP1 PUSH2 0x100 EXP DUP2 SLOAD DUP2 PUSH20 0xFFFFFFFFFFFFFFFFFFFFFFFFFFFFFFFFFFFFFFFF MUL NOT AND SWAP1 DUP4 PUSH20 0xFFFFFFFFFFFFFFFFFFFFFFFFFFFFFFFFFFFFFFFF AND MUL OR SWAP1 SSTORE POP PUSH2 0x47B1 DUP1 PUSH2 0xB5 PUSH1 0x0 CODECOPY PUSH1 0x0 RETURN INVALID PUSH1 0x80 PUSH1 0x40 MSTORE CALLVALUE DUP1 ISZERO PUSH2 0x10 JUMPI PUSH1 0x0 DUP1 REVERT JUMPDEST POP PUSH1 0x4 CALLDATASIZE LT PUSH2 0x12C JUMPI PUSH1 0x0 CALLDATALOAD PUSH1 0xE0 SHR DUP1 PUSH4 0x995975D8 GT PUSH2 0xAD JUMPI DUP1 PUSH4 0xB7E06216 GT PUSH2 0x71 JUMPI DUP1 PUSH4 0xB7E06216 EQ PUSH2 0x36D JUMPI DUP1 PUSH4 0xDB76CB07 EQ PUSH2 0x389 JUMPI DUP1 PUSH4 0xEF536E4F EQ PUSH2 0x3A5 JUMPI DUP1 PUSH4 0xF0B2C594 EQ PUSH2 0x3D5 JUMPI DUP1 PUSH4 0xFBCF9575 EQ PUSH2 0x3F1 JUMPI PUSH2 0x12C JUMP JUMPDEST DUP1 PUSH4 0x995975D8 EQ PUSH2 0x293 JUMPI DUP1 PUSH4 0xA32F69C0 EQ PUSH2 0x2C7 JUMPI DUP1 PUSH4 0xA6B43ACA EQ PUSH2 0x2FE JUMPI DUP1 PUSH4 0xA9588EDA EQ PUSH2 0x335 JUMPI DUP1 PUSH4 0xB30485FC EQ PUSH2 0x351 JUMPI PUSH2 0x12C JUMP JUMPDEST DUP1 PUSH4 0x3101C146 GT PUSH2 0xF4 JUMPI DUP1 PUSH4 0x3101C146 EQ PUSH2 0x1D8 JUMPI DUP1 PUSH4 0x532A1BD2 EQ PUSH2 0x1F4 JUMPI DUP1 PUSH4 0x681BCF09 EQ PUSH2 0x22B JUMPI DUP1 PUSH4 0x86FB1FF5 EQ PUSH2 0x247 JUMPI DUP1 PUSH4 0x8D449861 EQ PUSH2 0x277 JUMPI PUSH2 0x12C JUMP JUMPDEST DUP1 PUSH4 0xAB2039F EQ PUSH2 0x131 JUMPI DUP1 PUSH4 0x108246F0 EQ PUSH2 0x164 JUMPI DUP1 PUSH4 0x156836E3 EQ PUSH2 0x182 JUMPI DUP1 PUSH4 0x253245B5 EQ PUSH2 0x19E JUMPI DUP1 PUSH4 0x2A4F0C98 EQ PUSH2 0x1BC JUMPI JUMPDEST PUSH1 0x0 DUP1 REVERT JUMPDEST PUSH2 0x14B PUSH1 0x4 DUP1 CALLDATASIZE SUB DUP2 ADD SWAP1 PUSH2 0x146 SWAP2 SWAP1 PUSH2 0x38F3 JUMP JUMPDEST PUSH2 0x428 JUMP JUMPDEST PUSH1 0x40 MLOAD PUSH2 0x15B SWAP5 SWAP4 SWAP3 SWAP2 SWAP1 PUSH2 0x429E JUMP JUMPDEST PUSH1 0x40 MLOAD DUP1 SWAP2 SUB SWAP1 RETURN JUMPDEST PUSH2 0x16C PUSH2 0x75F JUMP JUMPDEST PUSH1 0x40 MLOAD PUSH2 0x179 SWAP2 SWAP1 PUSH2 0x4268 JUMP JUMPDEST PUSH1 0x40 MLOAD DUP1 SWAP2 SUB SWAP1 RETURN JUMPDEST PUSH2 0x19C PUSH1 0x4 DUP1 CALLDATASIZE SUB DUP2 ADD SWAP1 PUSH2 0x197 SWAP2 SWAP1 PUSH2 0x38B7 JUMP JUMPDEST PUSH2 0x785 JUMP JUMPDEST STOP JUMPDEST PUSH2 0x1A6 PUSH2 0x8D5 JUMP JUMPDEST PUSH1 0x40 MLOAD PUSH2 0x1B3 SWAP2 SWAP1 PUSH2 0x456D JUMP JUMPDEST PUSH1 0x40 MLOAD DUP1 SWAP2 SUB SWAP1 RETURN JUMPDEST PUSH2 0x1D6 PUSH1 0x4 DUP1 CALLDATASIZE SUB DUP2 ADD SWAP1 PUSH2 0x1D1 SWAP2 SWAP1 PUSH2 0x3C61 JUMP JUMPDEST PUSH2 0x8E2 JUMP JUMPDEST STOP JUMPDEST PUSH2 0x1F2 PUSH1 0x4 DUP1 CALLDATASIZE SUB DUP2 ADD SWAP1 PUSH2 0x1ED SWAP2 SWAP1 PUSH2 0x3B7B JUMP JUMPDEST PUSH2 0xB92 JUMP JUMPDEST STOP JUMPDEST PUSH2 0x20E PUSH1 0x4 DUP1 CALLDATASIZE SUB DUP2 ADD SWAP1 PUSH2 0x209 SWAP2 SWAP1 PUSH2 0x38F3 JUMP JUMPDEST PUSH2 0xE51 JUMP JUMPDEST PUSH1 0x40 MLOAD PUSH2 0x222 SWAP9 SWAP8 SWAP7 SWAP6 SWAP5 SWAP4 SWAP3 SWAP2 SWAP1 PUSH2 0x4422 JUMP JUMPDEST PUSH1 0x40 MLOAD DUP1 SWAP2 SUB SWAP1 RETURN JUMPDEST PUSH2 0x245 PUSH1 0x4 DUP1 CALLDATASIZE SUB DUP2 ADD SWAP1 PUSH2 0x240 SWAP2 SWAP1 PUSH2 0x397E JUMP JUMPDEST PUSH2 0x10C8 JUMP JUMPDEST STOP JUMPDEST PUSH2 0x261 PUSH1 0x4 DUP1 CALLDATASIZE SUB DUP2 ADD SWAP1 PUSH2 0x25C SWAP2 SWAP1 PUSH2 0x3A5C JUMP JUMPDEST PUSH2 0x14BE JUMP JUMPDEST PUSH1 0x40 MLOAD PUSH2 0x26E SWAP2 SWAP1 PUSH2 0x4400 JUMP JUMPDEST PUSH1 0x40 MLOAD DUP1 SWAP2 SUB SWAP1 RETURN JUMPDEST PUSH2 0x291 PUSH1 0x4 DUP1 CALLDATASIZE SUB DUP2 ADD SWAP1 PUSH2 0x28C SWAP2 SWAP1 PUSH2 0x3942 JUMP JUMPDEST PUSH2 0x162A JUMP JUMPDEST STOP JUMPDEST PUSH2 0x2AD PUSH1 0x4 DUP1 CALLDATASIZE SUB DUP2 ADD SWAP1 PUSH2 0x2A8 SWAP2 SWAP1 PUSH2 0x3942 JUMP JUMPDEST PUSH2 0x18C6 JUMP JUMPDEST PUSH1 0x40 MLOAD PUSH2 0x2BE SWAP6 SWAP5 SWAP4 SWAP3 SWAP2 SWAP1 PUSH2 0x43AD JUMP JUMPDEST PUSH1 0x40 MLOAD DUP1 SWAP2 SUB SWAP1 RETURN JUMPDEST PUSH2 0x2E1 PUSH1 0x4 DUP1 CALLDATASIZE SUB DUP2 ADD SWAP1 PUSH2 0x2DC SWAP2 SWAP1 PUSH2 0x38F3 JUMP JUMPDEST PUSH2 0x1950 JUMP JUMPDEST PUSH1 0x40 MLOAD PUSH2 0x2F5 SWAP9 SWAP8 SWAP7 SWAP6 SWAP5 SWAP4 SWAP3 SWAP2 SWAP1 PUSH2 0x4422 JUMP JUMPDEST PUSH1 0x40 MLOAD DUP1 SWAP2 SUB SWAP1 RETURN JUMPDEST PUSH2 0x318 PUSH1 0x4 DUP1 CALLDATASIZE SUB DUP2 ADD SWAP1 PUSH2 0x313 SWAP2 SWAP1 PUSH2 0x38F3 JUMP JUMPDEST PUSH2 0x1BC7 JUMP JUMPDEST PUSH1 0x40 MLOAD PUSH2 0x32C SWAP9 SWAP8 SWAP7 SWAP6 SWAP5 SWAP4 SWAP3 SWAP2 SWAP1 PUSH2 0x4422 JUMP JUMPDEST PUSH1 0x40 MLOAD DUP1 SWAP2 SUB SWAP1 RETURN JUMPDEST PUSH2 0x34F PUSH1 0x4 DUP1 CALLDATASIZE SUB DUP2 ADD SWAP1 PUSH2 0x34A SWAP2 SWAP1 PUSH2 0x39CD JUMP JUMPDEST PUSH2 0x1E3E JUMP JUMPDEST STOP JUMPDEST PUSH2 0x36B PUSH1 0x4 DUP1 CALLDATASIZE SUB DUP2 ADD SWAP1 PUSH2 0x366 SWAP2 SWAP1 PUSH2 0x388E JUMP JUMPDEST PUSH2 0x2728 JUMP JUMPDEST STOP JUMPDEST PUSH2 0x387 PUSH1 0x4 DUP1 CALLDATASIZE SUB DUP2 ADD SWAP1 PUSH2 0x382 SWAP2 SWAP1 PUSH2 0x3ABF JUMP JUMPDEST PUSH2 0x2895 JUMP JUMPDEST STOP JUMPDEST PUSH2 0x3A3 PUSH1 0x4 DUP1 CALLDATASIZE SUB DUP2 ADD SWAP1 PUSH2 0x39E SWAP2 SWAP1 PUSH2 0x3D4A JUMP JUMPDEST PUSH2 0x2DCC JUMP JUMPDEST STOP JUMPDEST PUSH2 0x3BF PUSH1 0x4 DUP1 CALLDATASIZE SUB DUP2 ADD SWAP1 PUSH2 0x3BA SWAP2 SWAP1 PUSH2 0x3942 JUMP JUMPDEST PUSH2 0x3126 JUMP JUMPDEST PUSH1 0x40 MLOAD PUSH2 0x3CC SWAP2 SWAP1 PUSH2 0x4268 JUMP JUMPDEST PUSH1 0x40 MLOAD DUP1 SWAP2 SUB SWAP1 RETURN JUMPDEST PUSH2 0x3EF PUSH1 0x4 DUP1 CALLDATASIZE SUB DUP2 ADD SWAP1 PUSH2 0x3EA SWAP2 SWAP1 PUSH2 0x388E JUMP JUMPDEST PUSH2 0x3171 JUMP JUMPDEST STOP JUMPDEST PUSH2 0x40B PUSH1 0x4 DUP1 CALLDATASIZE SUB DUP2 ADD SWAP1 PUSH2 0x406 SWAP2 SWAP1 PUSH2 0x38F3 JUMP JUMPDEST PUSH2 0x32E2 JUMP JUMPDEST PUSH1 0x40 MLOAD PUSH2 0x41F SWAP9 SWAP8 SWAP7 SWAP6 SWAP5 SWAP4 SWAP3 SWAP2 SWAP1 PUSH2 0x4422 JUMP JUMPDEST PUSH1 0x40 MLOAD DUP1 SWAP2 SUB SWAP1 RETURN JUMPDEST PUSH1 0x0 DUP1 PUSH1 0x0 PUSH1 0x60 PUSH1 0xB PUSH1 0x0 DUP8 PUSH20 0xFFFFFFFFFFFFFFFFFFFFFFFFFFFFFFFFFFFFFFFF AND PUSH20 0xFFFFFFFFFFFFFFFFFFFFFFFFFFFFFFFFFFFFFFFF AND DUP2 MSTORE PUSH1 0x20 ADD SWAP1 DUP2 MSTORE PUSH1 0x20 ADD PUSH1 0x0 KECCAK256 PUSH1 0x0 DUP9 PUSH20 0xFFFFFFFFFFFFFFFFFFFFFFFFFFFFFFFFFFFFFFFF AND PUSH20 0xFFFFFFFFFFFFFFFFFFFFFFFFFFFFFFFFFFFFFFFF AND DUP2 MSTORE PUSH1 0x20 ADD SWAP1 DUP2 MSTORE PUSH1 0x20 ADD PUSH1 0x0 KECCAK256 DUP6 DUP2 SLOAD DUP2 LT PUSH2 0x4B6 JUMPI INVALID JUMPDEST SWAP1 PUSH1 0x0 MSTORE PUSH1 0x20 PUSH1 0x0 KECCAK256 SWAP1 PUSH1 0x8 MUL ADD PUSH1 0x1 ADD PUSH1 0x0 SWAP1 SLOAD SWAP1 PUSH2 0x100 EXP SWAP1 DIV PUSH20 0xFFFFFFFFFFFFFFFFFFFFFFFFFFFFFFFFFFFFFFFF AND PUSH1 0xB PUSH1 0x0 DUP9 PUSH20 0xFFFFFFFFFFFFFFFFFFFFFFFFFFFFFFFFFFFFFFFF AND PUSH20 0xFFFFFFFFFFFFFFFFFFFFFFFFFFFFFFFFFFFFFFFF AND DUP2 MSTORE PUSH1 0x20 ADD SWAP1 DUP2 MSTORE PUSH1 0x20 ADD PUSH1 0x0 KECCAK256 PUSH1 0x0 DUP10 PUSH20 0xFFFFFFFFFFFFFFFFFFFFFFFFFFFFFFFFFFFFFFFF AND PUSH20 0xFFFFFFFFFFFFFFFFFFFFFFFFFFFFFFFFFFFFFFFF AND DUP2 MSTORE PUSH1 0x20 ADD SWAP1 DUP2 MSTORE PUSH1 0x20 ADD PUSH1 0x0 KECCAK256 DUP7 DUP2 SLOAD DUP2 LT PUSH2 0x56F JUMPI INVALID JUMPDEST SWAP1 PUSH1 0x0 MSTORE PUSH1 0x20 PUSH1 0x0 KECCAK256 SWAP1 PUSH1 0x8 MUL ADD PUSH1 0x5 ADD SLOAD PUSH1 0xB PUSH1 0x0 DUP10 PUSH20 0xFFFFFFFFFFFFFFFFFFFFFFFFFFFFFFFFFFFFFFFF AND PUSH20 0xFFFFFFFFFFFFFFFFFFFFFFFFFFFFFFFFFFFFFFFF AND DUP2 MSTORE PUSH1 0x20 ADD SWAP1 DUP2 MSTORE PUSH1 0x20 ADD PUSH1 0x0 KECCAK256 PUSH1 0x0 DUP11 PUSH20 0xFFFFFFFFFFFFFFFFFFFFFFFFFFFFFFFFFFFFFFFF AND PUSH20 0xFFFFFFFFFFFFFFFFFFFFFFFFFFFFFFFFFFFFFFFF AND DUP2 MSTORE PUSH1 0x20 ADD SWAP1 DUP2 MSTORE PUSH1 0x20 ADD PUSH1 0x0 KECCAK256 DUP8 DUP2 SLOAD DUP2 LT PUSH2 0x608 JUMPI INVALID JUMPDEST SWAP1 PUSH1 0x0 MSTORE PUSH1 0x20 PUSH1 0x0 KECCAK256 SWAP1 PUSH1 0x8 MUL ADD PUSH1 0x6 ADD SLOAD PUSH1 0xB PUSH1 0x0 DUP11 PUSH20 0xFFFFFFFFFFFFFFFFFFFFFFFFFFFFFFFFFFFFFFFF AND PUSH20 0xFFFFFFFFFFFFFFFFFFFFFFFFFFFFFFFFFFFFFFFF AND DUP2 MSTORE PUSH1 0x20 ADD SWAP1 DUP2 MSTORE PUSH1 0x20 ADD PUSH1 0x0 KECCAK256 PUSH1 0x0 DUP12 PUSH20 0xFFFFFFFFFFFFFFFFFFFFFFFFFFFFFFFFFFFFFFFF AND PUSH20 0xFFFFFFFFFFFFFFFFFFFFFFFFFFFFFFFFFFFFFFFF AND DUP2 MSTORE PUSH1 0x20 ADD SWAP1 DUP2 MSTORE PUSH1 0x20 ADD PUSH1 0x0 KECCAK256 DUP9 DUP2 SLOAD DUP2 LT PUSH2 0x6A1 JUMPI INVALID JUMPDEST SWAP1 PUSH1 0x0 MSTORE PUSH1 0x20 PUSH1 0x0 KECCAK256 SWAP1 PUSH1 0x8 MUL ADD PUSH1 0x4 ADD DUP1 DUP1 SLOAD PUSH1 0x1 DUP2 PUSH1 0x1 AND ISZERO PUSH2 0x100 MUL SUB AND PUSH1 0x2 SWAP1 DIV DUP1 PUSH1 0x1F ADD PUSH1 0x20 DUP1 SWAP2 DIV MUL PUSH1 0x20 ADD PUSH1 0x40 MLOAD SWAP1 DUP2 ADD PUSH1 0x40 MSTORE DUP1 SWAP3 SWAP2 SWAP1 DUP2 DUP2 MSTORE PUSH1 0x20 ADD DUP3 DUP1 SLOAD PUSH1 0x1 DUP2 PUSH1 0x1 AND ISZERO PUSH2 0x100 MUL SUB AND PUSH1 0x2 SWAP1 DIV DUP1 ISZERO PUSH2 0x747 JUMPI DUP1 PUSH1 0x1F LT PUSH2 0x71C JUMPI PUSH2 0x100 DUP1 DUP4 SLOAD DIV MUL DUP4 MSTORE SWAP2 PUSH1 0x20 ADD SWAP2 PUSH2 0x747 JUMP JUMPDEST DUP3 ADD SWAP2 SWAP1 PUSH1 0x0 MSTORE PUSH1 0x20 PUSH1 0x0 KECCAK256 SWAP1 JUMPDEST DUP2 SLOAD DUP2 MSTORE SWAP1 PUSH1 0x1 ADD SWAP1 PUSH1 0x20 ADD DUP1 DUP4 GT PUSH2 0x72A JUMPI DUP3 SWAP1 SUB PUSH1 0x1F AND DUP3 ADD SWAP2 JUMPDEST POP POP POP POP POP SWAP1 POP SWAP4 POP SWAP4 POP SWAP4 POP SWAP4 POP SWAP4 POP SWAP4 POP SWAP4 POP SWAP4 JUMP JUMPDEST PUSH1 0x1 PUSH1 0x0 SWAP1 SLOAD SWAP1 PUSH2 0x100 EXP SWAP1 DIV PUSH20 0xFFFFFFFFFFFFFFFFFFFFFFFFFFFFFFFFFFFFFFFF AND DUP2 JUMP JUMPDEST PUSH1 0x1 ISZERO ISZERO PUSH1 0x5 PUSH1 0x0 DUP5 PUSH20 0xFFFFFFFFFFFFFFFFFFFFFFFFFFFFFFFFFFFFFFFF AND PUSH20 0xFFFFFFFFFFFFFFFFFFFFFFFFFFFFFFFFFFFFFFFF AND DUP2 MSTORE PUSH1 0x20 ADD SWAP1 DUP2 MSTORE PUSH1 0x20 ADD PUSH1 0x0 KECCAK256 PUSH1 0x0 SWAP1 SLOAD SWAP1 PUSH2 0x100 EXP SWAP1 DIV PUSH1 0xFF AND ISZERO ISZERO EQ PUSH2 0x7E2 JUMPI PUSH1 0x0 DUP1 REVERT JUMPDEST PUSH1 0x0 DUP3 SWAP1 POP PUSH1 0x60 DUP2 PUSH20 0xFFFFFFFFFFFFFFFFFFFFFFFFFFFFFFFFFFFFFFFF AND PUSH4 0x8CBA76B1 DUP5 PUSH1 0x40 MLOAD DUP3 PUSH4 0xFFFFFFFF AND PUSH1 0xE0 SHL DUP2 MSTORE PUSH1 0x4 ADD PUSH2 0x822 SWAP2 SWAP1 PUSH2 0x432B JUMP JUMPDEST PUSH1 0x0 PUSH1 0x40 MLOAD DUP1 DUP4 SUB DUP2 DUP7 DUP1 EXTCODESIZE ISZERO DUP1 ISZERO PUSH2 0x83A JUMPI PUSH1 0x0 DUP1 REVERT JUMPDEST POP GAS STATICCALL ISZERO DUP1 ISZERO PUSH2 0x84E JUMPI RETURNDATASIZE PUSH1 0x0 DUP1 RETURNDATACOPY RETURNDATASIZE PUSH1 0x0 REVERT JUMPDEST POP POP POP POP PUSH1 0x40 MLOAD RETURNDATASIZE PUSH1 0x0 DUP3 RETURNDATACOPY RETURNDATASIZE PUSH1 0x1F NOT PUSH1 0x1F DUP3 ADD AND DUP3 ADD DUP1 PUSH1 0x40 MSTORE POP DUP2 ADD SWAP1 PUSH2 0x877 SWAP2 SWAP1 PUSH2 0x3B3A JUMP JUMPDEST SWAP1 POP PUSH1 0x40 MLOAD PUSH1 0x20 ADD PUSH2 0x888 SWAP1 PUSH2 0x4253 JUMP JUMPDEST PUSH1 0x40 MLOAD PUSH1 0x20 DUP2 DUP4 SUB SUB DUP2 MSTORE SWAP1 PUSH1 0x40 MSTORE DUP1 MLOAD SWAP1 PUSH1 0x20 ADD KECCAK256 DUP2 PUSH1 0x40 MLOAD PUSH1 0x20 ADD PUSH2 0x8AF SWAP2 SWAP1 PUSH2 0x423C JUMP JUMPDEST PUSH1 0x40 MLOAD PUSH1 0x20 DUP2 DUP4 SUB SUB DUP2 MSTORE SWAP1 PUSH1 0x40 MSTORE DUP1 MLOAD SWAP1 PUSH1 0x20 ADD KECCAK256 EQ PUSH2 0x8CF JUMPI PUSH1 0x0 DUP1 REVERT JUMPDEST POP POP POP POP JUMP JUMPDEST PUSH1 0x0 PUSH1 0x2 DUP1 SLOAD SWAP1 POP SWAP1 POP SWAP1 JUMP JUMPDEST PUSH1 0x0 DUP1 SWAP1 SLOAD SWAP1 PUSH2 0x100 EXP SWAP1 DIV PUSH20 0xFFFFFFFFFFFFFFFFFFFFFFFFFFFFFFFFFFFFFFFF AND PUSH20 0xFFFFFFFFFFFFFFFFFFFFFFFFFFFFFFFFFFFFFFFF AND CALLER PUSH20 0xFFFFFFFFFFFFFFFFFFFFFFFFFFFFFFFFFFFFFFFF AND EQ PUSH2 0x93B JUMPI PUSH1 0x0 DUP1 REVERT JUMPDEST PUSH2 0x965 PUSH1 0x0 DUP1 SWAP1 SLOAD SWAP1 PUSH2 0x100 EXP SWAP1 DIV PUSH20 0xFFFFFFFFFFFFFFFFFFFFFFFFFFFFFFFFFFFFFFFF AND PUSH2 0x2728 JUMP JUMPDEST PUSH1 0x1 PUSH1 0x4 PUSH1 0x0 DUP8 PUSH20 0xFFFFFFFFFFFFFFFFFFFFFFFFFFFFFFFFFFFFFFFF AND PUSH20 0xFFFFFFFFFFFFFFFFFFFFFFFFFFFFFFFFFFFFFFFF AND DUP2 MSTORE PUSH1 0x20 ADD SWAP1 DUP2 MSTORE PUSH1 0x20 ADD PUSH1 0x0 KECCAK256 PUSH1 0x0 PUSH2 0x100 EXP DUP2 SLOAD DUP2 PUSH1 0xFF MUL NOT AND SWAP1 DUP4 ISZERO ISZERO MUL OR SWAP1 SSTORE POP PUSH2 0x9C5 PUSH2 0x3559 JUMP JUMPDEST DUP7 DUP2 PUSH1 0x0 ADD DUP2 SWAP1 MSTORE POP DUP6 DUP2 PUSH1 0x20 ADD SWAP1 PUSH20 0xFFFFFFFFFFFFFFFFFFFFFFFFFFFFFFFFFFFFFFFF AND SWAP1 DUP2 PUSH20 0xFFFFFFFFFFFFFFFFFFFFFFFFFFFFFFFFFFFFFFFF AND DUP2 MSTORE POP POP DUP5 DUP2 PUSH1 0x40 ADD DUP2 SWAP1 MSTORE POP DUP4 DUP2 PUSH1 0x60 ADD SWAP1 PUSH20 0xFFFFFFFFFFFFFFFFFFFFFFFFFFFFFFFFFFFFFFFF AND SWAP1 DUP2 PUSH20 0xFFFFFFFFFFFFFFFFFFFFFFFFFFFFFFFFFFFFFFFF AND DUP2 MSTORE POP POP DUP3 DUP2 PUSH1 0x80 ADD DUP2 SWAP1 MSTORE POP DUP2 DUP2 PUSH1 0xA0 ADD DUP2 SWAP1 MSTORE POP PUSH1 0x2 DUP2 SWAP1 DUP1 PUSH1 0x1 DUP2 SLOAD ADD DUP1 DUP3 SSTORE DUP1 SWAP2 POP POP PUSH1 0x1 SWAP1 SUB SWAP1 PUSH1 0x0 MSTORE PUSH1 0x20 PUSH1 0x0 KECCAK256 SWAP1 PUSH1 0x6 MUL ADD PUSH1 0x0 SWAP1 SWAP2 SWAP1 SWAP2 SWAP1 SWAP2 POP PUSH1 0x0 DUP3 ADD MLOAD DUP2 PUSH1 0x0 ADD SWAP1 DUP1 MLOAD SWAP1 PUSH1 0x20 ADD SWAP1 PUSH2 0xAA1 SWAP3 SWAP2 SWAP1 PUSH2 0x35BB JUMP JUMPDEST POP PUSH1 0x20 DUP3 ADD MLOAD DUP2 PUSH1 0x1 ADD PUSH1 0x0 PUSH2 0x100 EXP DUP2 SLOAD DUP2 PUSH20 0xFFFFFFFFFFFFFFFFFFFFFFFFFFFFFFFFFFFFFFFF MUL NOT AND SWAP1 DUP4 PUSH20 0xFFFFFFFFFFFFFFFFFFFFFFFFFFFFFFFFFFFFFFFF AND MUL OR SWAP1 SSTORE POP PUSH1 0x40 DUP3 ADD MLOAD DUP2 PUSH1 0x2 ADD SWAP1 DUP1 MLOAD SWAP1 PUSH1 0x20 ADD SWAP1 PUSH2 0xB05 SWAP3 SWAP2 SWAP1 PUSH2 0x35BB JUMP JUMPDEST POP PUSH1 0x60 DUP3 ADD MLOAD DUP2 PUSH1 0x3 ADD PUSH1 0x0 PUSH2 0x100 EXP DUP2 SLOAD DUP2 PUSH20 0xFFFFFFFFFFFFFFFFFFFFFFFFFFFFFFFFFFFFFFFF MUL NOT AND SWAP1 DUP4 PUSH20 0xFFFFFFFFFFFFFFFFFFFFFFFFFFFFFFFFFFFFFFFF AND MUL OR SWAP1 SSTORE POP PUSH1 0x80 DUP3 ADD MLOAD DUP2 PUSH1 0x4 ADD SWAP1 DUP1 MLOAD SWAP1 PUSH1 0x20 ADD SWAP1 PUSH2 0xB69 SWAP3 SWAP2 SWAP1 PUSH2 0x35BB JUMP JUMPDEST POP PUSH1 0xA0 DUP3 ADD MLOAD DUP2 PUSH1 0x5 ADD SWAP1 DUP1 MLOAD SWAP1 PUSH1 0x20 ADD SWAP1 PUSH2 0xB86 SWAP3 SWAP2 SWAP1 PUSH2 0x35BB JUMP JUMPDEST POP POP POP POP POP POP POP POP POP POP JUMP JUMPDEST PUSH1 0x1 ISZERO ISZERO PUSH1 0x5 PUSH1 0x0 DUP9 PUSH20 0xFFFFFFFFFFFFFFFFFFFFFFFFFFFFFFFFFFFFFFFF AND PUSH20 0xFFFFFFFFFFFFFFFFFFFFFFFFFFFFFFFFFFFFFFFF AND DUP2 MSTORE PUSH1 0x20 ADD SWAP1 DUP2 MSTORE PUSH1 0x20 ADD PUSH1 0x0 KECCAK256 PUSH1 0x0 SWAP1 SLOAD SWAP1 PUSH2 0x100 EXP SWAP1 DIV PUSH1 0xFF AND ISZERO ISZERO EQ PUSH2 0xBEF JUMPI PUSH1 0x0 DUP1 REVERT JUMPDEST PUSH2 0xBF7 PUSH2 0x363B JUMP JUMPDEST DUP8 DUP2 PUSH1 0x0 ADD DUP2 SWAP1 MSTORE POP CALLER DUP2 PUSH1 0x20 ADD SWAP1 PUSH20 0xFFFFFFFFFFFFFFFFFFFFFFFFFFFFFFFFFFFFFFFF AND SWAP1 DUP2 PUSH20 0xFFFFFFFFFFFFFFFFFFFFFFFFFFFFFFFFFFFFFFFF AND DUP2 MSTORE POP POP DUP6 DUP2 PUSH1 0x40 ADD DUP2 SWAP1 MSTORE POP DUP5 DUP2 PUSH1 0x60 ADD SWAP1 PUSH20 0xFFFFFFFFFFFFFFFFFFFFFFFFFFFFFFFFFFFFFFFF AND SWAP1 DUP2 PUSH20 0xFFFFFFFFFFFFFFFFFFFFFFFFFFFFFFFFFFFFFFFF AND DUP2 MSTORE POP POP DUP4 DUP2 PUSH1 0x80 ADD DUP2 SWAP1 MSTORE POP DUP3 DUP2 PUSH1 0xA0 ADD DUP2 DUP2 MSTORE POP POP DUP2 DUP2 PUSH1 0xC0 ADD DUP2 DUP2 MSTORE POP POP PUSH1 0x1 DUP2 PUSH1 0xE0 ADD MLOAD ADD DUP2 PUSH1 0xE0 ADD DUP2 DUP2 MSTORE POP POP DUP1 PUSH1 0x6 PUSH1 0x0 DUP8 PUSH20 0xFFFFFFFFFFFFFFFFFFFFFFFFFFFFFFFFFFFFFFFF AND PUSH20 0xFFFFFFFFFFFFFFFFFFFFFFFFFFFFFFFFFFFFFFFF AND DUP2 MSTORE PUSH1 0x20 ADD SWAP1 DUP2 MSTORE PUSH1 0x20 ADD PUSH1 0x0 KECCAK256 PUSH1 0x0 DUP10 PUSH20 0xFFFFFFFFFFFFFFFFFFFFFFFFFFFFFFFFFFFFFFFF AND PUSH20 0xFFFFFFFFFFFFFFFFFFFFFFFFFFFFFFFFFFFFFFFF AND DUP2 MSTORE PUSH1 0x20 ADD SWAP1 DUP2 MSTORE PUSH1 0x20 ADD PUSH1 0x0 KECCAK256 DUP3 PUSH1 0xE0 ADD MLOAD DUP2 SLOAD DUP2 LT PUSH2 0xD33 JUMPI INVALID JUMPDEST SWAP1 PUSH1 0x0 MSTORE PUSH1 0x20 PUSH1 0x0 KECCAK256 SWAP1 PUSH1 0x8 MUL ADD PUSH1 0x0 DUP3 ADD MLOAD DUP2 PUSH1 0x0 ADD SWAP1 DUP1 MLOAD SWAP1 PUSH1 0x20 ADD SWAP1 PUSH2 0xD5D SWAP3 SWAP2 SWAP1 PUSH2 0x35BB JUMP JUMPDEST POP PUSH1 0x20 DUP3 ADD MLOAD DUP2 PUSH1 0x1 ADD PUSH1 0x0 PUSH2 0x100 EXP DUP2 SLOAD DUP2 PUSH20 0xFFFFFFFFFFFFFFFFFFFFFFFFFFFFFFFFFFFFFFFF MUL NOT AND SWAP1 DUP4 PUSH20 0xFFFFFFFFFFFFFFFFFFFFFFFFFFFFFFFFFFFFFFFF AND MUL OR SWAP1 SSTORE POP PUSH1 0x40 DUP3 ADD MLOAD DUP2 PUSH1 0x2 ADD SWAP1 DUP1 MLOAD SWAP1 PUSH1 0x20 ADD SWAP1 PUSH2 0xDC1 SWAP3 SWAP2 SWAP1 PUSH2 0x35BB JUMP JUMPDEST POP PUSH1 0x60 DUP3 ADD MLOAD DUP2 PUSH1 0x3 ADD PUSH1 0x0 PUSH2 0x100 EXP DUP2 SLOAD DUP2 PUSH20 0xFFFFFFFFFFFFFFFFFFFFFFFFFFFFFFFFFFFFFFFF MUL NOT AND SWAP1 DUP4 PUSH20 0xFFFFFFFFFFFFFFFFFFFFFFFFFFFFFFFFFFFFFFFF AND MUL OR SWAP1 SSTORE POP PUSH1 0x80 DUP3 ADD MLOAD DUP2 PUSH1 0x4 ADD SWAP1 DUP1 MLOAD SWAP1 PUSH1 0x20 ADD SWAP1 PUSH2 0xE25 SWAP3 SWAP2 SWAP1 PUSH2 0x35BB JUMP JUMPDEST POP PUSH1 0xA0 DUP3 ADD MLOAD DUP2 PUSH1 0x5 ADD SSTORE PUSH1 0xC0 DUP3 ADD MLOAD DUP2 PUSH1 0x6 ADD SSTORE PUSH1 0xE0 DUP3 ADD MLOAD DUP2 PUSH1 0x7 ADD SSTORE SWAP1 POP POP POP POP POP POP POP POP POP POP JUMP JUMPDEST PUSH1 0x6 PUSH1 0x20 MSTORE DUP3 PUSH1 0x0 MSTORE PUSH1 0x40 PUSH1 0x0 KECCAK256 PUSH1 0x20 MSTORE DUP2 PUSH1 0x0 MSTORE PUSH1 0x40 PUSH1 0x0 KECCAK256 DUP2 DUP2 SLOAD DUP2 LT PUSH2 0xE76 JUMPI INVALID JUMPDEST SWAP1 PUSH1 0x0 MSTORE PUSH1 0x20 PUSH1 0x0 KECCAK256 SWAP1 PUSH1 0x8 MUL ADD PUSH1 0x0 SWAP3 POP SWAP3 POP POP POP DUP1 PUSH1 0x0 ADD DUP1 SLOAD PUSH1 0x1 DUP2 PUSH1 0x1 AND ISZERO PUSH2 0x100 MUL SUB AND PUSH1 0x2 SWAP1 DIV DUP1 PUSH1 0x1F ADD PUSH1 0x20 DUP1 SWAP2 DIV MUL PUSH1 0x20 ADD PUSH1 0x40 MLOAD SWAP1 DUP2 ADD PUSH1 0x40 MSTORE DUP1 SWAP3 SWAP2 SWAP1 DUP2 DUP2 MSTORE PUSH1 0x20 ADD DUP3 DUP1 SLOAD PUSH1 0x1 DUP2 PUSH1 0x1 AND ISZERO PUSH2 0x100 MUL SUB AND PUSH1 0x2 SWAP1 DIV DUP1 ISZERO PUSH2 0xF24 JUMPI DUP1 PUSH1 0x1F LT PUSH2 0xEF9 JUMPI PUSH2 0x100 DUP1 DUP4 SLOAD DIV MUL DUP4 MSTORE SWAP2 PUSH1 0x20 ADD SWAP2 PUSH2 0xF24 JUMP JUMPDEST DUP3 ADD SWAP2 SWAP1 PUSH1 0x0 MSTORE PUSH1 0x20 PUSH1 0x0 KECCAK256 SWAP1 JUMPDEST DUP2 SLOAD DUP2 MSTORE SWAP1 PUSH1 0x1 ADD SWAP1 PUSH1 0x20 ADD DUP1 DUP4 GT PUSH2 0xF07 JUMPI DUP3 SWAP1 SUB PUSH1 0x1F AND DUP3 ADD SWAP2 JUMPDEST POP POP POP POP POP SWAP1 DUP1 PUSH1 0x1 ADD PUSH1 0x0 SWAP1 SLOAD SWAP1 PUSH2 0x100 EXP SWAP1 DIV PUSH20 0xFFFFFFFFFFFFFFFFFFFFFFFFFFFFFFFFFFFFFFFF AND SWAP1 DUP1 PUSH1 0x2 ADD DUP1 SLOAD PUSH1 0x1 DUP2 PUSH1 0x1 AND ISZERO PUSH2 0x100 MUL SUB AND PUSH1 0x2 SWAP1 DIV DUP1 PUSH1 0x1F ADD PUSH1 0x20 DUP1 SWAP2 DIV MUL PUSH1 0x20 ADD PUSH1 0x40 MLOAD SWAP1 DUP2 ADD PUSH1 0x40 MSTORE DUP1 SWAP3 SWAP2 SWAP1 DUP2 DUP2 MSTORE PUSH1 0x20 ADD DUP3 DUP1 SLOAD PUSH1 0x1 DUP2 PUSH1 0x1 AND ISZERO PUSH2 0x100 MUL SUB AND PUSH1 0x2 SWAP1 DIV DUP1 ISZERO PUSH2 0xFE8 JUMPI DUP1 PUSH1 0x1F LT PUSH2 0xFBD JUMPI PUSH2 0x100 DUP1 DUP4 SLOAD DIV MUL DUP4 MSTORE SWAP2 PUSH1 0x20 ADD SWAP2 PUSH2 0xFE8 JUMP JUMPDEST DUP3 ADD SWAP2 SWAP1 PUSH1 0x0 MSTORE PUSH1 0x20 PUSH1 0x0 KECCAK256 SWAP1 JUMPDEST DUP2 SLOAD DUP2 MSTORE SWAP1 PUSH1 0x1 ADD SWAP1 PUSH1 0x20 ADD DUP1 DUP4 GT PUSH2 0xFCB JUMPI DUP3 SWAP1 SUB PUSH1 0x1F AND DUP3 ADD SWAP2 JUMPDEST POP POP POP POP POP SWAP1 DUP1 PUSH1 0x3 ADD PUSH1 0x0 SWAP1 SLOAD SWAP1 PUSH2 0x100 EXP SWAP1 DIV PUSH20 0xFFFFFFFFFFFFFFFFFFFFFFFFFFFFFFFFFFFFFFFF AND SWAP1 DUP1 PUSH1 0x4 ADD DUP1 SLOAD PUSH1 0x1 DUP2 PUSH1 0x1 AND ISZERO PUSH2 0x100 MUL SUB AND PUSH1 0x2 SWAP1 DIV DUP1 PUSH1 0x1F ADD PUSH1 0x20 DUP1 SWAP2 DIV MUL PUSH1 0x20 ADD PUSH1 0x40 MLOAD SWAP1 DUP2 ADD PUSH1 0x40 MSTORE DUP1 SWAP3 SWAP2 SWAP1 DUP2 DUP2 MSTORE PUSH1 0x20 ADD DUP3 DUP1 SLOAD PUSH1 0x1 DUP2 PUSH1 0x1 AND ISZERO PUSH2 0x100 MUL SUB AND PUSH1 0x2 SWAP1 DIV DUP1 ISZERO PUSH2 0x10AC JUMPI DUP1 PUSH1 0x1F LT PUSH2 0x1081 JUMPI PUSH2 0x100 DUP1 DUP4 SLOAD DIV MUL DUP4 MSTORE SWAP2 PUSH1 0x20 ADD SWAP2 PUSH2 0x10AC JUMP JUMPDEST DUP3 ADD SWAP2 SWAP1 PUSH1 0x0 MSTORE PUSH1 0x20 PUSH1 0x0 KECCAK256 SWAP1 JUMPDEST DUP2 SLOAD DUP2 MSTORE SWAP1 PUSH1 0x1 ADD SWAP1 PUSH1 0x20 ADD DUP1 DUP4 GT PUSH2 0x108F JUMPI DUP3 SWAP1 SUB PUSH1 0x1F AND DUP3 ADD SWAP2 JUMPDEST POP POP POP POP POP SWAP1 DUP1 PUSH1 0x5 ADD SLOAD SWAP1 DUP1 PUSH1 0x6 ADD SLOAD SWAP1 DUP1 PUSH1 0x7 ADD SLOAD SWAP1 POP DUP9 JUMP JUMPDEST PUSH1 0x0 PUSH1 0xC PUSH1 0x0 CALLER PUSH20 0xFFFFFFFFFFFFFFFFFFFFFFFFFFFFFFFFFFFFFFFF AND PUSH20 0xFFFFFFFFFFFFFFFFFFFFFFFFFFFFFFFFFFFFFFFF AND DUP2 MSTORE PUSH1 0x20 ADD SWAP1 DUP2 MSTORE PUSH1 0x20 ADD PUSH1 0x0 KECCAK256 PUSH1 0x0 DUP4 DUP2 MSTORE PUSH1 0x20 ADD SWAP1 DUP2 MSTORE PUSH1 0x20 ADD PUSH1 0x0 KECCAK256 SLOAD SWAP1 POP CALLER PUSH20 0xFFFFFFFFFFFFFFFFFFFFFFFFFFFFFFFFFFFFFFFF AND PUSH1 0x8 PUSH1 0x0 CALLER PUSH20 0xFFFFFFFFFFFFFFFFFFFFFFFFFFFFFFFFFFFFFFFF AND PUSH20 0xFFFFFFFFFFFFFFFFFFFFFFFFFFFFFFFFFFFFFFFF AND DUP2 MSTORE PUSH1 0x20 ADD SWAP1 DUP2 MSTORE PUSH1 0x20 ADD PUSH1 0x0 KECCAK256 DUP3 DUP2 SLOAD DUP2 LT PUSH2 0x117E JUMPI INVALID JUMPDEST SWAP1 PUSH1 0x0 MSTORE PUSH1 0x20 PUSH1 0x0 KECCAK256 SWAP1 PUSH1 0x4 MUL ADD PUSH1 0x0 ADD PUSH1 0x1 SWAP1 SLOAD SWAP1 PUSH2 0x100 EXP SWAP1 DIV PUSH20 0xFFFFFFFFFFFFFFFFFFFFFFFFFFFFFFFFFFFFFFFF AND PUSH20 0xFFFFFFFFFFFFFFFFFFFFFFFFFFFFFFFFFFFFFFFF AND EQ ISZERO PUSH2 0x11D1 JUMPI PUSH1 0x0 DUP1 REVERT JUMPDEST PUSH1 0x0 PUSH1 0x5 DUP2 GT ISZERO PUSH2 0x11DE JUMPI INVALID JUMPDEST PUSH1 0x8 PUSH1 0x0 CALLER PUSH20 0xFFFFFFFFFFFFFFFFFFFFFFFFFFFFFFFFFFFFFFFF AND PUSH20 0xFFFFFFFFFFFFFFFFFFFFFFFFFFFFFFFFFFFFFFFF AND DUP2 MSTORE PUSH1 0x20 ADD SWAP1 DUP2 MSTORE PUSH1 0x20 ADD PUSH1 0x0 KECCAK256 DUP3 DUP2 SLOAD DUP2 LT PUSH2 0x1228 JUMPI INVALID JUMPDEST SWAP1 PUSH1 0x0 MSTORE PUSH1 0x20 PUSH1 0x0 KECCAK256 SWAP1 PUSH1 0x4 MUL ADD PUSH1 0x0 ADD PUSH1 0x0 SWAP1 SLOAD SWAP1 PUSH2 0x100 EXP SWAP1 DIV PUSH1 0xFF AND PUSH1 0x5 DUP2 GT ISZERO PUSH2 0x1252 JUMPI INVALID JUMPDEST EQ PUSH2 0x125C JUMPI PUSH1 0x0 DUP1 REVERT JUMPDEST DUP4 ISZERO PUSH2 0x138F JUMPI PUSH1 0x1 PUSH1 0x8 PUSH1 0x0 CALLER PUSH20 0xFFFFFFFFFFFFFFFFFFFFFFFFFFFFFFFFFFFFFFFF AND PUSH20 0xFFFFFFFFFFFFFFFFFFFFFFFFFFFFFFFFFFFFFFFF AND DUP2 MSTORE PUSH1 0x20 ADD SWAP1 DUP2 MSTORE PUSH1 0x20 ADD PUSH1 0x0 KECCAK256 DUP3 DUP2 SLOAD DUP2 LT PUSH2 0x12AE JUMPI INVALID JUMPDEST SWAP1 PUSH1 0x0 MSTORE PUSH1 0x20 PUSH1 0x0 KECCAK256 SWAP1 PUSH1 0x4 MUL ADD PUSH1 0x0 ADD PUSH1 0x0 PUSH2 0x100 EXP DUP2 SLOAD DUP2 PUSH1 0xFF MUL NOT AND SWAP1 DUP4 PUSH1 0x5 DUP2 GT ISZERO PUSH2 0x12DA JUMPI INVALID JUMPDEST MUL OR SWAP1 SSTORE POP PUSH1 0x1 PUSH1 0x8 PUSH1 0x0 CALLER PUSH20 0xFFFFFFFFFFFFFFFFFFFFFFFFFFFFFFFFFFFFFFFF AND PUSH20 0xFFFFFFFFFFFFFFFFFFFFFFFFFFFFFFFFFFFFFFFF AND DUP2 MSTORE PUSH1 0x20 ADD SWAP1 DUP2 MSTORE PUSH1 0x20 ADD PUSH1 0x0 KECCAK256 DUP3 DUP2 SLOAD DUP2 LT PUSH2 0x132B JUMPI INVALID JUMPDEST SWAP1 PUSH1 0x0 MSTORE PUSH1 0x20 PUSH1 0x0 KECCAK256 SWAP1 PUSH1 0x4 MUL ADD PUSH1 0x3 ADD PUSH1 0x0 PUSH2 0x100 EXP DUP2 SLOAD DUP2 PUSH1 0xFF MUL NOT AND SWAP1 DUP4 ISZERO ISZERO MUL OR SWAP1 SSTORE POP PUSH32 0x30F499DEE5ACA26BF88E6932509F2693B637E648EC36AC97034DB8869F118639 DUP4 PUSH1 0x40 MLOAD PUSH2 0x1382 SWAP2 SWAP1 PUSH2 0x4511 JUMP JUMPDEST PUSH1 0x40 MLOAD DUP1 SWAP2 SUB SWAP1 LOG1 PUSH2 0x14B8 JUMP JUMPDEST PUSH1 0x2 PUSH1 0x8 PUSH1 0x0 CALLER PUSH20 0xFFFFFFFFFFFFFFFFFFFFFFFFFFFFFFFFFFFFFFFF AND PUSH20 0xFFFFFFFFFFFFFFFFFFFFFFFFFFFFFFFFFFFFFFFF AND DUP2 MSTORE PUSH1 0x20 ADD SWAP1 DUP2 MSTORE PUSH1 0x20 ADD PUSH1 0x0 KECCAK256 DUP3 DUP2 SLOAD DUP2 LT PUSH2 0x13DB JUMPI INVALID JUMPDEST SWAP1 PUSH1 0x0 MSTORE PUSH1 0x20 PUSH1 0x0 KECCAK256 SWAP1 PUSH1 0x4 MUL ADD PUSH1 0x0 ADD PUSH1 0x0 PUSH2 0x100 EXP DUP2 SLOAD DUP2 PUSH1 0xFF MUL NOT AND SWAP1 DUP4 PUSH1 0x5 DUP2 GT ISZERO PUSH2 0x1407 JUMPI INVALID JUMPDEST MUL OR SWAP1 SSTORE POP PUSH1 0x0 PUSH1 0x8 PUSH1 0x0 CALLER PUSH20 0xFFFFFFFFFFFFFFFFFFFFFFFFFFFFFFFFFFFFFFFF AND PUSH20 0xFFFFFFFFFFFFFFFFFFFFFFFFFFFFFFFFFFFFFFFF AND DUP2 MSTORE PUSH1 0x20 ADD SWAP1 DUP2 MSTORE PUSH1 0x20 ADD PUSH1 0x0 KECCAK256 DUP3 DUP2 SLOAD DUP2 LT PUSH2 0x1458 JUMPI INVALID JUMPDEST SWAP1 PUSH1 0x0 MSTORE PUSH1 0x20 PUSH1 0x0 KECCAK256 SWAP1 PUSH1 0x4 MUL ADD PUSH1 0x3 ADD PUSH1 0x0 PUSH2 0x100 EXP DUP2 SLOAD DUP2 PUSH1 0xFF MUL NOT AND SWAP1 DUP4 ISZERO ISZERO MUL OR SWAP1 SSTORE POP PUSH32 0xB72D3D0DDAC6222A8090ABA8A89A5F33EA480CA5E3201DEA0F31F5DA8203F249 DUP4 PUSH1 0x40 MLOAD PUSH2 0x14AF SWAP2 SWAP1 PUSH2 0x44B5 JUMP JUMPDEST PUSH1 0x40 MLOAD DUP1 SWAP2 SUB SWAP1 LOG1 JUMPDEST POP POP POP POP JUMP JUMPDEST PUSH1 0x60 PUSH1 0x6 PUSH1 0x0 DUP5 PUSH20 0xFFFFFFFFFFFFFFFFFFFFFFFFFFFFFFFFFFFFFFFF AND PUSH20 0xFFFFFFFFFFFFFFFFFFFFFFFFFFFFFFFFFFFFFFFF AND DUP2 MSTORE PUSH1 0x20 ADD SWAP1 DUP2 MSTORE PUSH1 0x20 ADD PUSH1 0x0 KECCAK256 PUSH1 0x0 DUP6 PUSH20 0xFFFFFFFFFFFFFFFFFFFFFFFFFFFFFFFFFFFFFFFF AND PUSH20 0xFFFFFFFFFFFFFFFFFFFFFFFFFFFFFFFFFFFFFFFF AND DUP2 MSTORE PUSH1 0x20 ADD SWAP1 DUP2 MSTORE PUSH1 0x20 ADD PUSH1 0x0 KECCAK256 DUP3 DUP2 SLOAD DUP2 LT PUSH2 0x1547 JUMPI INVALID JUMPDEST SWAP1 PUSH1 0x0 MSTORE PUSH1 0x20 PUSH1 0x0 KECCAK256 SWAP1 PUSH1 0x8 MUL ADD PUSH1 0x5 ADD SLOAD PUSH1 0x40 MLOAD PUSH1 0x20 ADD PUSH2 0x1569 SWAP2 SWAP1 PUSH2 0x4221 JUMP JUMPDEST PUSH1 0x40 MLOAD PUSH1 0x20 DUP2 DUP4 SUB SUB DUP2 MSTORE SWAP1 PUSH1 0x40 MSTORE DUP1 MLOAD SWAP1 PUSH1 0x20 ADD KECCAK256 DUP6 PUSH1 0x40 MLOAD PUSH1 0x20 ADD PUSH2 0x1590 SWAP2 SWAP1 PUSH2 0x4221 JUMP JUMPDEST PUSH1 0x40 MLOAD PUSH1 0x20 DUP2 DUP4 SUB SUB DUP2 MSTORE SWAP1 PUSH1 0x40 MSTORE DUP1 MLOAD SWAP1 PUSH1 0x20 ADD KECCAK256 EQ ISZERO PUSH2 0x15E9 JUMPI PUSH1 0x40 MLOAD DUP1 PUSH1 0x40 ADD PUSH1 0x40 MSTORE DUP1 PUSH1 0x4 DUP2 MSTORE PUSH1 0x20 ADD PUSH32 0x7472756500000000000000000000000000000000000000000000000000000000 DUP2 MSTORE POP SWAP1 POP PUSH2 0x1622 JUMP JUMPDEST PUSH1 0x40 MLOAD DUP1 PUSH1 0x40 ADD PUSH1 0x40 MSTORE DUP1 PUSH1 0xB DUP2 MSTORE PUSH1 0x20 ADD PUSH32 0x616C6D6F73742066616B65000000000000000000000000000000000000000000 DUP2 MSTORE POP SWAP1 POP JUMPDEST SWAP5 SWAP4 POP POP POP POP JUMP JUMPDEST CALLER PUSH20 0xFFFFFFFFFFFFFFFFFFFFFFFFFFFFFFFFFFFFFFFF AND DUP3 PUSH20 0xFFFFFFFFFFFFFFFFFFFFFFFFFFFFFFFFFFFFFFFF AND EQ ISZERO PUSH2 0x1663 JUMPI PUSH1 0x0 DUP1 REVERT JUMPDEST PUSH32 0x85ACE08F038481ADC2BFD0F855A5103EED84D76D1889E2837C00A5F0B64DD50B CALLER PUSH1 0x40 MLOAD PUSH2 0x1692 SWAP2 SWAP1 PUSH2 0x4283 JUMP JUMPDEST PUSH1 0x40 MLOAD DUP1 SWAP2 SUB SWAP1 LOG1 PUSH2 0x16A2 PUSH2 0x36AF JUMP JUMPDEST CALLER DUP2 PUSH1 0x20 ADD SWAP1 PUSH20 0xFFFFFFFFFFFFFFFFFFFFFFFFFFFFFFFFFFFFFFFF AND SWAP1 DUP2 PUSH20 0xFFFFFFFFFFFFFFFFFFFFFFFFFFFFFFFFFFFFFFFF AND DUP2 MSTORE POP POP PUSH1 0x0 DUP2 PUSH1 0x0 ADD SWAP1 PUSH1 0x5 DUP2 GT ISZERO PUSH2 0x16EC JUMPI INVALID JUMPDEST SWAP1 DUP2 PUSH1 0x5 DUP2 GT ISZERO PUSH2 0x16F9 JUMPI INVALID JUMPDEST DUP2 MSTORE POP POP DUP2 DUP2 PUSH1 0x40 ADD DUP2 DUP2 MSTORE POP POP PUSH1 0x0 DUP2 PUSH1 0x80 ADD SWAP1 ISZERO ISZERO SWAP1 DUP2 ISZERO ISZERO DUP2 MSTORE POP POP PUSH1 0x8 PUSH1 0x0 DUP5 PUSH20 0xFFFFFFFFFFFFFFFFFFFFFFFFFFFFFFFFFFFFFFFF AND PUSH20 0xFFFFFFFFFFFFFFFFFFFFFFFFFFFFFFFFFFFFFFFF AND DUP2 MSTORE PUSH1 0x20 ADD SWAP1 DUP2 MSTORE PUSH1 0x20 ADD PUSH1 0x0 KECCAK256 DUP2 SWAP1 DUP1 PUSH1 0x1 DUP2 SLOAD ADD DUP1 DUP3 SSTORE DUP1 SWAP2 POP POP PUSH1 0x1 SWAP1 SUB SWAP1 PUSH1 0x0 MSTORE PUSH1 0x20 PUSH1 0x0 KECCAK256 SWAP1 PUSH1 0x4 MUL ADD PUSH1 0x0 SWAP1 SWAP2 SWAP1 SWAP2 SWAP1 SWAP2 POP PUSH1 0x0 DUP3 ADD MLOAD DUP2 PUSH1 0x0 ADD PUSH1 0x0 PUSH2 0x100 EXP DUP2 SLOAD DUP2 PUSH1 0xFF MUL NOT AND SWAP1 DUP4 PUSH1 0x5 DUP2 GT ISZERO PUSH2 0x17A5 JUMPI INVALID JUMPDEST MUL OR SWAP1 SSTORE POP PUSH1 0x20 DUP3 ADD MLOAD DUP2 PUSH1 0x0 ADD PUSH1 0x1 PUSH2 0x100 EXP DUP2 SLOAD DUP2 PUSH20 0xFFFFFFFFFFFFFFFFFFFFFFFFFFFFFFFFFFFFFFFF MUL NOT AND SWAP1 DUP4 PUSH20 0xFFFFFFFFFFFFFFFFFFFFFFFFFFFFFFFFFFFFFFFF AND MUL OR SWAP1 SSTORE POP PUSH1 0x40 DUP3 ADD MLOAD DUP2 PUSH1 0x1 ADD SSTORE PUSH1 0x60 DUP3 ADD MLOAD DUP2 PUSH1 0x2 ADD SSTORE PUSH1 0x80 DUP3 ADD MLOAD DUP2 PUSH1 0x3 ADD PUSH1 0x0 PUSH2 0x100 EXP DUP2 SLOAD DUP2 PUSH1 0xFF MUL NOT AND SWAP1 DUP4 ISZERO ISZERO MUL OR SWAP1 SSTORE POP POP POP PUSH1 0x1 PUSH1 0x8 PUSH1 0x0 DUP6 PUSH20 0xFFFFFFFFFFFFFFFFFFFFFFFFFFFFFFFFFFFFFFFF AND PUSH20 0xFFFFFFFFFFFFFFFFFFFFFFFFFFFFFFFFFFFFFFFF AND DUP2 MSTORE PUSH1 0x20 ADD SWAP1 DUP2 MSTORE PUSH1 0x20 ADD PUSH1 0x0 KECCAK256 DUP1 SLOAD SWAP1 POP SUB PUSH1 0xC PUSH1 0x0 DUP6 PUSH20 0xFFFFFFFFFFFFFFFFFFFFFFFFFFFFFFFFFFFFFFFF AND PUSH20 0xFFFFFFFFFFFFFFFFFFFFFFFFFFFFFFFFFFFFFFFF AND DUP2 MSTORE PUSH1 0x20 ADD SWAP1 DUP2 MSTORE PUSH1 0x20 ADD PUSH1 0x0 KECCAK256 PUSH1 0x0 DUP5 DUP2 MSTORE PUSH1 0x20 ADD SWAP1 DUP2 MSTORE PUSH1 0x20 ADD PUSH1 0x0 KECCAK256 DUP2 SWAP1 SSTORE POP POP POP POP JUMP JUMPDEST PUSH1 0x8 PUSH1 0x20 MSTORE DUP2 PUSH1 0x0 MSTORE PUSH1 0x40 PUSH1 0x0 KECCAK256 DUP2 DUP2 SLOAD DUP2 LT PUSH2 0x18DF JUMPI INVALID JUMPDEST SWAP1 PUSH1 0x0 MSTORE PUSH1 0x20 PUSH1 0x0 KECCAK256 SWAP1 PUSH1 0x4 MUL ADD PUSH1 0x0 SWAP2 POP SWAP2 POP POP DUP1 PUSH1 0x0 ADD PUSH1 0x0 SWAP1 SLOAD SWAP1 PUSH2 0x100 EXP SWAP1 DIV PUSH1 0xFF AND SWAP1 DUP1 PUSH1 0x0 ADD PUSH1 0x1 SWAP1 SLOAD SWAP1 PUSH2 0x100 EXP SWAP1 DIV PUSH20 0xFFFFFFFFFFFFFFFFFFFFFFFFFFFFFFFFFFFFFFFF AND SWAP1 DUP1 PUSH1 0x1 ADD SLOAD SWAP1 DUP1 PUSH1 0x2 ADD SLOAD SWAP1 DUP1 PUSH1 0x3 ADD PUSH1 0x0 SWAP1 SLOAD SWAP1 PUSH2 0x100 EXP SWAP1 DIV PUSH1 0xFF AND SWAP1 POP DUP6 JUMP JUMPDEST PUSH1 0x9 PUSH1 0x20 MSTORE DUP3 PUSH1 0x0 MSTORE PUSH1 0x40 PUSH1 0x0 KECCAK256 PUSH1 0x20 MSTORE DUP2 PUSH1 0x0 MSTORE PUSH1 0x40 PUSH1 0x0 KECCAK256 DUP2 DUP2 SLOAD DUP2 LT PUSH2 0x1975 JUMPI INVALID JUMPDEST SWAP1 PUSH1 0x0 MSTORE PUSH1 0x20 PUSH1 0x0 KECCAK256 SWAP1 PUSH1 0x8 MUL ADD PUSH1 0x0 SWAP3 POP SWAP3 POP POP POP DUP1 PUSH1 0x0 ADD DUP1 SLOAD PUSH1 0x1 DUP2 PUSH1 0x1 AND ISZERO PUSH2 0x100 MUL SUB AND PUSH1 0x2 SWAP1 DIV DUP1 PUSH1 0x1F ADD PUSH1 0x20 DUP1 SWAP2 DIV MUL PUSH1 0x20 ADD PUSH1 0x40 MLOAD SWAP1 DUP2 ADD PUSH1 0x40 MSTORE DUP1 SWAP3 SWAP2 SWAP1 DUP2 DUP2 MSTORE PUSH1 0x20 ADD DUP3 DUP1 SLOAD PUSH1 0x1 DUP2 PUSH1 0x1 AND ISZERO PUSH2 0x100 MUL SUB AND PUSH1 0x2 SWAP1 DIV DUP1 ISZERO PUSH2 0x1A23 JUMPI DUP1 PUSH1 0x1F LT PUSH2 0x19F8 JUMPI PUSH2 0x100 DUP1 DUP4 SLOAD DIV MUL DUP4 MSTORE SWAP2 PUSH1 0x20 ADD SWAP2 PUSH2 0x1A23 JUMP JUMPDEST DUP3 ADD SWAP2 SWAP1 PUSH1 0x0 MSTORE PUSH1 0x20 PUSH1 0x0 KECCAK256 SWAP1 JUMPDEST DUP2 SLOAD DUP2 MSTORE SWAP1 PUSH1 0x1 ADD SWAP1 PUSH1 0x20 ADD DUP1 DUP4 GT PUSH2 0x1A06 JUMPI DUP3 SWAP1 SUB PUSH1 0x1F AND DUP3 ADD SWAP2 JUMPDEST POP POP POP POP POP SWAP1 DUP1 PUSH1 0x1 ADD PUSH1 0x0 SWAP1 SLOAD SWAP1 PUSH2 0x100 EXP SWAP1 DIV PUSH20 0xFFFFFFFFFFFFFFFFFFFFFFFFFFFFFFFFFFFFFFFF AND SWAP1 DUP1 PUSH1 0x2 ADD DUP1 SLOAD PUSH1 0x1 DUP2 PUSH1 0x1 AND ISZERO PUSH2 0x100 MUL SUB AND PUSH1 0x2 SWAP1 DIV DUP1 PUSH1 0x1F ADD PUSH1 0x20 DUP1 SWAP2 DIV MUL PUSH1 0x20 ADD PUSH1 0x40 MLOAD SWAP1 DUP2 ADD PUSH1 0x40 MSTORE DUP1 SWAP3 SWAP2 SWAP1 DUP2 DUP2 MSTORE PUSH1 0x20 ADD DUP3 DUP1 SLOAD PUSH1 0x1 DUP2 PUSH1 0x1 AND ISZERO PUSH2 0x100 MUL SUB AND PUSH1 0x2 SWAP1 DIV DUP1 ISZERO PUSH2 0x1AE7 JUMPI DUP1 PUSH1 0x1F LT PUSH2 0x1ABC JUMPI PUSH2 0x100 DUP1 DUP4 SLOAD DIV MUL DUP4 MSTORE SWAP2 PUSH1 0x20 ADD SWAP2 PUSH2 0x1AE7 JUMP JUMPDEST DUP3 ADD SWAP2 SWAP1 PUSH1 0x0 MSTORE PUSH1 0x20 PUSH1 0x0 KECCAK256 SWAP1 JUMPDEST DUP2 SLOAD DUP2 MSTORE SWAP1 PUSH1 0x1 ADD SWAP1 PUSH1 0x20 ADD DUP1 DUP4 GT PUSH2 0x1ACA JUMPI DUP3 SWAP1 SUB PUSH1 0x1F AND DUP3 ADD SWAP2 JUMPDEST POP POP POP POP POP SWAP1 DUP1 PUSH1 0x3 ADD PUSH1 0x0 SWAP1 SLOAD SWAP1 PUSH2 0x100 EXP SWAP1 DIV PUSH20 0xFFFFFFFFFFFFFFFFFFFFFFFFFFFFFFFFFFFFFFFF AND SWAP1 DUP1 PUSH1 0x4 ADD DUP1 SLOAD PUSH1 0x1 DUP2 PUSH1 0x1 AND ISZERO PUSH2 0x100 MUL SUB AND PUSH1 0x2 SWAP1 DIV DUP1 PUSH1 0x1F ADD PUSH1 0x20 DUP1 SWAP2 DIV MUL PUSH1 0x20 ADD PUSH1 0x40 MLOAD SWAP1 DUP2 ADD PUSH1 0x40 MSTORE DUP1 SWAP3 SWAP2 SWAP1 DUP2 DUP2 MSTORE PUSH1 0x20 ADD DUP3 DUP1 SLOAD PUSH1 0x1 DUP2 PUSH1 0x1 AND ISZERO PUSH2 0x100 MUL SUB AND PUSH1 0x2 SWAP1 DIV DUP1 ISZERO PUSH2 0x1BAB JUMPI DUP1 PUSH1 0x1F LT PUSH2 0x1B80 JUMPI PUSH2 0x100 DUP1 DUP4 SLOAD DIV MUL DUP4 MSTORE SWAP2 PUSH1 0x20 ADD SWAP2 PUSH2 0x1BAB JUMP JUMPDEST DUP3 ADD SWAP2 SWAP1 PUSH1 0x0 MSTORE PUSH1 0x20 PUSH1 0x0 KECCAK256 SWAP1 JUMPDEST DUP2 SLOAD DUP2 MSTORE SWAP1 PUSH1 0x1 ADD SWAP1 PUSH1 0x20 ADD DUP1 DUP4 GT PUSH2 0x1B8E JUMPI DUP3 SWAP1 SUB PUSH1 0x1F AND DUP3 ADD SWAP2 JUMPDEST POP POP POP POP POP SWAP1 DUP1 PUSH1 0x5 ADD SLOAD SWAP1 DUP1 PUSH1 0x6 ADD SLOAD SWAP1 DUP1 PUSH1 0x7 ADD SLOAD SWAP1 POP DUP9 JUMP JUMPDEST PUSH1 0xA PUSH1 0x20 MSTORE DUP3 PUSH1 0x0 MSTORE PUSH1 0x40 PUSH1 0x0 KECCAK256 PUSH1 0x20 MSTORE DUP2 PUSH1 0x0 MSTORE PUSH1 0x40 PUSH1 0x0 KECCAK256 DUP2 DUP2 SLOAD DUP2 LT PUSH2 0x1BEC JUMPI INVALID JUMPDEST SWAP1 PUSH1 0x0 MSTORE PUSH1 0x20 PUSH1 0x0 KECCAK256 SWAP1 PUSH1 0x8 MUL ADD PUSH1 0x0 SWAP3 POP SWAP3 POP POP POP DUP1 PUSH1 0x0 ADD DUP1 SLOAD PUSH1 0x1 DUP2 PUSH1 0x1 AND ISZERO PUSH2 0x100 MUL SUB AND PUSH1 0x2 SWAP1 DIV DUP1 PUSH1 0x1F ADD PUSH1 0x20 DUP1 SWAP2 DIV MUL PUSH1 0x20 ADD PUSH1 0x40 MLOAD SWAP1 DUP2 ADD PUSH1 0x40 MSTORE DUP1 SWAP3 SWAP2 SWAP1 DUP2 DUP2 MSTORE PUSH1 0x20 ADD DUP3 DUP1 SLOAD PUSH1 0x1 DUP2 PUSH1 0x1 AND ISZERO PUSH2 0x100 MUL SUB AND PUSH1 0x2 SWAP1 DIV DUP1 ISZERO PUSH2 0x1C9A JUMPI DUP1 PUSH1 0x1F LT PUSH2 0x1C6F JUMPI PUSH2 0x100 DUP1 DUP4 SLOAD DIV MUL DUP4 MSTORE SWAP2 PUSH1 0x20 ADD SWAP2 PUSH2 0x1C9A JUMP JUMPDEST DUP3 ADD SWAP2 SWAP1 PUSH1 0x0 MSTORE PUSH1 0x20 PUSH1 0x0 KECCAK256 SWAP1 JUMPDEST DUP2 SLOAD DUP2 MSTORE SWAP1 PUSH1 0x1 ADD SWAP1 PUSH1 0x20 ADD DUP1 DUP4 GT PUSH2 0x1C7D JUMPI DUP3 SWAP1 SUB PUSH1 0x1F AND DUP3 ADD SWAP2 JUMPDEST POP POP POP POP POP SWAP1 DUP1 PUSH1 0x1 ADD PUSH1 0x0 SWAP1 SLOAD SWAP1 PUSH2 0x100 EXP SWAP1 DIV PUSH20 0xFFFFFFFFFFFFFFFFFFFFFFFFFFFFFFFFFFFFFFFF AND SWAP1 DUP1 PUSH1 0x2 ADD DUP1 SLOAD PUSH1 0x1 DUP2 PUSH1 0x1 AND ISZERO PUSH2 0x100 MUL SUB AND PUSH1 0x2 SWAP1 DIV DUP1 PUSH1 0x1F ADD PUSH1 0x20 DUP1 SWAP2 DIV MUL PUSH1 0x20 ADD PUSH1 0x40 MLOAD SWAP1 DUP2 ADD PUSH1 0x40 MSTORE DUP1 SWAP3 SWAP2 SWAP1 DUP2 DUP2 MSTORE PUSH1 0x20 ADD DUP3 DUP1 SLOAD PUSH1 0x1 DUP2 PUSH1 0x1 AND ISZERO PUSH2 0x100 MUL SUB AND PUSH1 0x2 SWAP1 DIV DUP1 ISZERO PUSH2 0x1D5E JUMPI DUP1 PUSH1 0x1F LT PUSH2 0x1D33 JUMPI PUSH2 0x100 DUP1 DUP4 SLOAD DIV MUL DUP4 MSTORE SWAP2 PUSH1 0x20 ADD SWAP2 PUSH2 0x1D5E JUMP JUMPDEST DUP3 ADD SWAP2 SWAP1 PUSH1 0x0 MSTORE PUSH1 0x20 PUSH1 0x0 KECCAK256 SWAP1 JUMPDEST DUP2 SLOAD DUP2 MSTORE SWAP1 PUSH1 0x1 ADD SWAP1 PUSH1 0x20 ADD DUP1 DUP4 GT PUSH2 0x1D41 JUMPI DUP3 SWAP1 SUB PUSH1 0x1F AND DUP3 ADD SWAP2 JUMPDEST POP POP POP POP POP SWAP1 DUP1 PUSH1 0x3 ADD PUSH1 0x0 SWAP1 SLOAD SWAP1 PUSH2 0x100 EXP SWAP1 DIV PUSH20 0xFFFFFFFFFFFFFFFFFFFFFFFFFFFFFFFFFFFFFFFF AND SWAP1 DUP1 PUSH1 0x4 ADD DUP1 SLOAD PUSH1 0x1 DUP2 PUSH1 0x1 AND ISZERO PUSH2 0x100 MUL SUB AND PUSH1 0x2 SWAP1 DIV DUP1 PUSH1 0x1F ADD PUSH1 0x20 DUP1 SWAP2 DIV MUL PUSH1 0x20 ADD PUSH1 0x40 MLOAD SWAP1 DUP2 ADD PUSH1 0x40 MSTORE DUP1 SWAP3 SWAP2 SWAP1 DUP2 DUP2 MSTORE PUSH1 0x20 ADD DUP3 DUP1 SLOAD PUSH1 0x1 DUP2 PUSH1 0x1 AND ISZERO PUSH2 0x100 MUL SUB AND PUSH1 0x2 SWAP1 DIV DUP1 ISZERO PUSH2 0x1E22 JUMPI DUP1 PUSH1 0x1F LT PUSH2 0x1DF7 JUMPI PUSH2 0x100 DUP1 DUP4 SLOAD DIV MUL DUP4 MSTORE SWAP2 PUSH1 0x20 ADD SWAP2 PUSH2 0x1E22 JUMP JUMPDEST DUP3 ADD SWAP2 SWAP1 PUSH1 0x0 MSTORE PUSH1 0x20 PUSH1 0x0 KECCAK256 SWAP1 JUMPDEST DUP2 SLOAD DUP2 MSTORE SWAP1 PUSH1 0x1 ADD SWAP1 PUSH1 0x20 ADD DUP1 DUP4 GT PUSH2 0x1E05 JUMPI DUP3 SWAP1 SUB PUSH1 0x1F AND DUP3 ADD SWAP2 JUMPDEST POP POP POP POP POP SWAP1 DUP1 PUSH1 0x5 ADD SLOAD SWAP1 DUP1 PUSH1 0x6 ADD SLOAD SWAP1 DUP1 PUSH1 0x7 ADD SLOAD SWAP1 POP DUP9 JUMP JUMPDEST PUSH1 0x0 PUSH1 0xC PUSH1 0x0 CALLER PUSH20 0xFFFFFFFFFFFFFFFFFFFFFFFFFFFFFFFFFFFFFFFF AND PUSH20 0xFFFFFFFFFFFFFFFFFFFFFFFFFFFFFFFFFFFFFFFF AND DUP2 MSTORE PUSH1 0x20 ADD SWAP1 DUP2 MSTORE PUSH1 0x20 ADD PUSH1 0x0 KECCAK256 PUSH1 0x0 DUP4 DUP2 MSTORE PUSH1 0x20 ADD SWAP1 DUP2 MSTORE PUSH1 0x20 ADD PUSH1 0x0 KECCAK256 SLOAD SWAP1 POP DUP3 PUSH20 0xFFFFFFFFFFFFFFFFFFFFFFFFFFFFFFFFFFFFFFFF AND PUSH1 0x8 PUSH1 0x0 CALLER PUSH20 0xFFFFFFFFFFFFFFFFFFFFFFFFFFFFFFFFFFFFFFFF AND PUSH20 0xFFFFFFFFFFFFFFFFFFFFFFFFFFFFFFFFFFFFFFFF AND DUP2 MSTORE PUSH1 0x20 ADD SWAP1 DUP2 MSTORE PUSH1 0x20 ADD PUSH1 0x0 KECCAK256 DUP3 DUP2 SLOAD DUP2 LT PUSH2 0x1EF4 JUMPI INVALID JUMPDEST SWAP1 PUSH1 0x0 MSTORE PUSH1 0x20 PUSH1 0x0 KECCAK256 SWAP1 PUSH1 0x4 MUL ADD PUSH1 0x0 ADD PUSH1 0x1 SWAP1 SLOAD SWAP1 PUSH2 0x100 EXP SWAP1 DIV PUSH20 0xFFFFFFFFFFFFFFFFFFFFFFFFFFFFFFFFFFFFFFFF AND PUSH20 0xFFFFFFFFFFFFFFFFFFFFFFFFFFFFFFFFFFFFFFFF AND EQ PUSH2 0x1F46 JUMPI PUSH1 0x0 DUP1 REVERT JUMPDEST PUSH1 0x1 PUSH1 0x5 DUP2 GT ISZERO PUSH2 0x1F53 JUMPI INVALID JUMPDEST PUSH1 0x8 PUSH1 0x0 CALLER PUSH20 0xFFFFFFFFFFFFFFFFFFFFFFFFFFFFFFFFFFFFFFFF AND PUSH20 0xFFFFFFFFFFFFFFFFFFFFFFFFFFFFFFFFFFFFFFFF AND DUP2 MSTORE PUSH1 0x20 ADD SWAP1 DUP2 MSTORE PUSH1 0x20 ADD PUSH1 0x0 KECCAK256 DUP3 DUP2 SLOAD DUP2 LT PUSH2 0x1F9D JUMPI INVALID JUMPDEST SWAP1 PUSH1 0x0 MSTORE PUSH1 0x20 PUSH1 0x0 KECCAK256 SWAP1 PUSH1 0x4 MUL ADD PUSH1 0x0 ADD PUSH1 0x0 SWAP1 SLOAD SWAP1 PUSH2 0x100 EXP SWAP1 DIV PUSH1 0xFF AND PUSH1 0x5 DUP2 GT ISZERO PUSH2 0x1FC7 JUMPI INVALID JUMPDEST EQ PUSH2 0x1FD1 JUMPI PUSH1 0x0 DUP1 REVERT JUMPDEST PUSH1 0x1 ISZERO ISZERO PUSH1 0x8 PUSH1 0x0 CALLER PUSH20 0xFFFFFFFFFFFFFFFFFFFFFFFFFFFFFFFFFFFFFFFF AND PUSH20 0xFFFFFFFFFFFFFFFFFFFFFFFFFFFFFFFFFFFFFFFF AND DUP2 MSTORE PUSH1 0x20 ADD SWAP1 DUP2 MSTORE PUSH1 0x20 ADD PUSH1 0x0 KECCAK256 DUP3 DUP2 SLOAD DUP2 LT PUSH2 0x201F JUMPI INVALID JUMPDEST SWAP1 PUSH1 0x0 MSTORE PUSH1 0x20 PUSH1 0x0 KECCAK256 SWAP1 PUSH1 0x4 MUL ADD PUSH1 0x3 ADD PUSH1 0x0 SWAP1 SLOAD SWAP1 PUSH2 0x100 EXP SWAP1 DIV PUSH1 0xFF AND ISZERO ISZERO EQ PUSH2 0x204A JUMPI PUSH1 0x0 DUP1 REVERT JUMPDEST PUSH2 0x2052 PUSH2 0x363B JUMP JUMPDEST CALLER DUP2 PUSH1 0x20 ADD SWAP1 PUSH20 0xFFFFFFFFFFFFFFFFFFFFFFFFFFFFFFFFFFFFFFFF AND SWAP1 DUP2 PUSH20 0xFFFFFFFFFFFFFFFFFFFFFFFFFFFFFFFFFFFFFFFF AND DUP2 MSTORE POP POP DUP6 DUP2 PUSH1 0xA0 ADD DUP2 DUP2 MSTORE POP POP TIMESTAMP DUP2 PUSH1 0xC0 ADD DUP2 DUP2 MSTORE POP POP DUP5 DUP2 PUSH1 0x80 ADD DUP2 SWAP1 MSTORE POP DUP7 ISZERO PUSH2 0x23E8 JUMPI PUSH1 0x9 PUSH1 0x0 CALLER PUSH20 0xFFFFFFFFFFFFFFFFFFFFFFFFFFFFFFFFFFFFFFFF AND PUSH20 0xFFFFFFFFFFFFFFFFFFFFFFFFFFFFFFFFFFFFFFFF AND DUP2 MSTORE PUSH1 0x20 ADD SWAP1 DUP2 MSTORE PUSH1 0x20 ADD PUSH1 0x0 KECCAK256 PUSH1 0x0 DUP6 PUSH20 0xFFFFFFFFFFFFFFFFFFFFFFFFFFFFFFFFFFFFFFFF AND PUSH20 0xFFFFFFFFFFFFFFFFFFFFFFFFFFFFFFFFFFFFFFFF AND DUP2 MSTORE PUSH1 0x20 ADD SWAP1 DUP2 MSTORE PUSH1 0x20 ADD PUSH1 0x0 KECCAK256 DUP2 SWAP1 DUP1 PUSH1 0x1 DUP2 SLOAD ADD DUP1 DUP3 SSTORE DUP1 SWAP2 POP POP PUSH1 0x1 SWAP1 SUB SWAP1 PUSH1 0x0 MSTORE PUSH1 0x20 PUSH1 0x0 KECCAK256 SWAP1 PUSH1 0x8 MUL ADD PUSH1 0x0 SWAP1 SWAP2 SWAP1 SWAP2 SWAP1 SWAP2 POP PUSH1 0x0 DUP3 ADD MLOAD DUP2 PUSH1 0x0 ADD SWAP1 DUP1 MLOAD SWAP1 PUSH1 0x20 ADD SWAP1 PUSH2 0x216F SWAP3 SWAP2 SWAP1 PUSH2 0x35BB JUMP JUMPDEST POP PUSH1 0x20 DUP3 ADD MLOAD DUP2 PUSH1 0x1 ADD PUSH1 0x0 PUSH2 0x100 EXP DUP2 SLOAD DUP2 PUSH20 0xFFFFFFFFFFFFFFFFFFFFFFFFFFFFFFFFFFFFFFFF MUL NOT AND SWAP1 DUP4 PUSH20 0xFFFFFFFFFFFFFFFFFFFFFFFFFFFFFFFFFFFFFFFF AND MUL OR SWAP1 SSTORE POP PUSH1 0x40 DUP3 ADD MLOAD DUP2 PUSH1 0x2 ADD SWAP1 DUP1 MLOAD SWAP1 PUSH1 0x20 ADD SWAP1 PUSH2 0x21D3 SWAP3 SWAP2 SWAP1 PUSH2 0x35BB JUMP JUMPDEST POP PUSH1 0x60 DUP3 ADD MLOAD DUP2 PUSH1 0x3 ADD PUSH1 0x0 PUSH2 0x100 EXP DUP2 SLOAD DUP2 PUSH20 0xFFFFFFFFFFFFFFFFFFFFFFFFFFFFFFFFFFFFFFFF MUL NOT AND SWAP1 DUP4 PUSH20 0xFFFFFFFFFFFFFFFFFFFFFFFFFFFFFFFFFFFFFFFF AND MUL OR SWAP1 SSTORE POP PUSH1 0x80 DUP3 ADD MLOAD DUP2 PUSH1 0x4 ADD SWAP1 DUP1 MLOAD SWAP1 PUSH1 0x20 ADD SWAP1 PUSH2 0x2237 SWAP3 SWAP2 SWAP1 PUSH2 0x35BB JUMP JUMPDEST POP PUSH1 0xA0 DUP3 ADD MLOAD DUP2 PUSH1 0x5 ADD SSTORE PUSH1 0xC0 DUP3 ADD MLOAD DUP2 PUSH1 0x6 ADD SSTORE PUSH1 0xE0 DUP3 ADD MLOAD DUP2 PUSH1 0x7 ADD SSTORE POP POP PUSH1 0x1 PUSH1 0x9 PUSH1 0x0 CALLER PUSH20 0xFFFFFFFFFFFFFFFFFFFFFFFFFFFFFFFFFFFFFFFF AND PUSH20 0xFFFFFFFFFFFFFFFFFFFFFFFFFFFFFFFFFFFFFFFF AND DUP2 MSTORE PUSH1 0x20 ADD SWAP1 DUP2 MSTORE PUSH1 0x20 ADD PUSH1 0x0 KECCAK256 PUSH1 0x0 DUP7 PUSH20 0xFFFFFFFFFFFFFFFFFFFFFFFFFFFFFFFFFFFFFFFF AND PUSH20 0xFFFFFFFFFFFFFFFFFFFFFFFFFFFFFFFFFFFFFFFF AND DUP2 MSTORE PUSH1 0x20 ADD SWAP1 DUP2 MSTORE PUSH1 0x20 ADD PUSH1 0x0 KECCAK256 DUP1 SLOAD SWAP1 POP SUB PUSH1 0xE PUSH1 0x0 CALLER PUSH20 0xFFFFFFFFFFFFFFFFFFFFFFFFFFFFFFFFFFFFFFFF AND PUSH20 0xFFFFFFFFFFFFFFFFFFFFFFFFFFFFFFFFFFFFFFFF AND DUP2 MSTORE PUSH1 0x20 ADD SWAP1 DUP2 MSTORE PUSH1 0x20 ADD PUSH1 0x0 KECCAK256 PUSH1 0x0 DUP6 DUP2 MSTORE PUSH1 0x20 ADD SWAP1 DUP2 MSTORE PUSH1 0x20 ADD PUSH1 0x0 KECCAK256 DUP2 SWAP1 SSTORE POP PUSH1 0x4 PUSH1 0x8 PUSH1 0x0 CALLER PUSH20 0xFFFFFFFFFFFFFFFFFFFFFFFFFFFFFFFFFFFFFFFF AND PUSH20 0xFFFFFFFFFFFFFFFFFFFFFFFFFFFFFFFFFFFFFFFF AND DUP2 MSTORE PUSH1 0x20 ADD SWAP1 DUP2 MSTORE PUSH1 0x20 ADD PUSH1 0x0 KECCAK256 DUP4 DUP2 SLOAD DUP2 LT PUSH2 0x237B JUMPI INVALID JUMPDEST SWAP1 PUSH1 0x0 MSTORE PUSH1 0x20 PUSH1 0x0 KECCAK256 SWAP1 PUSH1 0x4 MUL ADD PUSH1 0x0 ADD PUSH1 0x0 PUSH2 0x100 EXP DUP2 SLOAD DUP2 PUSH1 0xFF MUL NOT AND SWAP1 DUP4 PUSH1 0x5 DUP2 GT ISZERO PUSH2 0x23A7 JUMPI INVALID JUMPDEST MUL OR SWAP1 SSTORE POP PUSH32 0x9284A3A973DDFF1D3E244C1E83925819C36925FB080960EB3F826BF9BB9BF210 DUP5 PUSH1 0x40 MLOAD PUSH2 0x23DB SWAP2 SWAP1 PUSH2 0x453F JUMP JUMPDEST PUSH1 0x40 MLOAD DUP1 SWAP2 SUB SWAP1 LOG1 PUSH2 0x271F JUMP JUMPDEST PUSH1 0xA PUSH1 0x0 CALLER PUSH20 0xFFFFFFFFFFFFFFFFFFFFFFFFFFFFFFFFFFFFFFFF AND PUSH20 0xFFFFFFFFFFFFFFFFFFFFFFFFFFFFFFFFFFFFFFFF AND DUP2 MSTORE PUSH1 0x20 ADD SWAP1 DUP2 MSTORE PUSH1 0x20 ADD PUSH1 0x0 KECCAK256 PUSH1 0x0 DUP6 PUSH20 0xFFFFFFFFFFFFFFFFFFFFFFFFFFFFFFFFFFFFFFFF AND PUSH20 0xFFFFFFFFFFFFFFFFFFFFFFFFFFFFFFFFFFFFFFFF AND DUP2 MSTORE PUSH1 0x20 ADD SWAP1 DUP2 MSTORE PUSH1 0x20 ADD PUSH1 0x0 KECCAK256 DUP2 SWAP1 DUP1 PUSH1 0x1 DUP2 SLOAD ADD DUP1 DUP3 SSTORE DUP1 SWAP2 POP POP PUSH1 0x1 SWAP1 SUB SWAP1 PUSH1 0x0 MSTORE PUSH1 0x20 PUSH1 0x0 KECCAK256 SWAP1 PUSH1 0x8 MUL ADD PUSH1 0x0 SWAP1 SWAP2 SWAP1 SWAP2 SWAP1 SWAP2 POP PUSH1 0x0 DUP3 ADD MLOAD DUP2 PUSH1 0x0 ADD SWAP1 DUP1 MLOAD SWAP1 PUSH1 0x20 ADD SWAP1 PUSH2 0x24AA SWAP3 SWAP2 SWAP1 PUSH2 0x35BB JUMP JUMPDEST POP PUSH1 0x20 DUP3 ADD MLOAD DUP2 PUSH1 0x1 ADD PUSH1 0x0 PUSH2 0x100 EXP DUP2 SLOAD DUP2 PUSH20 0xFFFFFFFFFFFFFFFFFFFFFFFFFFFFFFFFFFFFFFFF MUL NOT AND SWAP1 DUP4 PUSH20 0xFFFFFFFFFFFFFFFFFFFFFFFFFFFFFFFFFFFFFFFF AND MUL OR SWAP1 SSTORE POP PUSH1 0x40 DUP3 ADD MLOAD DUP2 PUSH1 0x2 ADD SWAP1 DUP1 MLOAD SWAP1 PUSH1 0x20 ADD SWAP1 PUSH2 0x250E SWAP3 SWAP2 SWAP1 PUSH2 0x35BB JUMP JUMPDEST POP PUSH1 0x60 DUP3 ADD MLOAD DUP2 PUSH1 0x3 ADD PUSH1 0x0 PUSH2 0x100 EXP DUP2 SLOAD DUP2 PUSH20 0xFFFFFFFFFFFFFFFFFFFFFFFFFFFFFFFFFFFFFFFF MUL NOT AND SWAP1 DUP4 PUSH20 0xFFFFFFFFFFFFFFFFFFFFFFFFFFFFFFFFFFFFFFFF AND MUL OR SWAP1 SSTORE POP PUSH1 0x80 DUP3 ADD MLOAD DUP2 PUSH1 0x4 ADD SWAP1 DUP1 MLOAD SWAP1 PUSH1 0x20 ADD SWAP1 PUSH2 0x2572 SWAP3 SWAP2 SWAP1 PUSH2 0x35BB JUMP JUMPDEST POP PUSH1 0xA0 DUP3 ADD MLOAD DUP2 PUSH1 0x5 ADD SSTORE PUSH1 0xC0 DUP3 ADD MLOAD DUP2 PUSH1 0x6 ADD SSTORE PUSH1 0xE0 DUP3 ADD MLOAD DUP2 PUSH1 0x7 ADD SSTORE POP POP PUSH1 0x1 PUSH1 0xA PUSH1 0x0 CALLER PUSH20 0xFFFFFFFFFFFFFFFFFFFFFFFFFFFFFFFFFFFFFFFF AND PUSH20 0xFFFFFFFFFFFFFFFFFFFFFFFFFFFFFFFFFFFFFFFF AND DUP2 MSTORE PUSH1 0x20 ADD SWAP1 DUP2 MSTORE PUSH1 0x20 ADD PUSH1 0x0 KECCAK256 PUSH1 0x0 DUP7 PUSH20 0xFFFFFFFFFFFFFFFFFFFFFFFFFFFFFFFFFFFFFFFF AND PUSH20 0xFFFFFFFFFFFFFFFFFFFFFFFFFFFFFFFFFFFFFFFF AND DUP2 MSTORE PUSH1 0x20 ADD SWAP1 DUP2 MSTORE PUSH1 0x20 ADD PUSH1 0x0 KECCAK256 DUP1 SLOAD SWAP1 POP SUB PUSH1 0xE PUSH1 0x0 CALLER PUSH20 0xFFFFFFFFFFFFFFFFFFFFFFFFFFFFFFFFFFFFFFFF AND PUSH20 0xFFFFFFFFFFFFFFFFFFFFFFFFFFFFFFFFFFFFFFFF AND DUP2 MSTORE PUSH1 0x20 ADD SWAP1 DUP2 MSTORE PUSH1 0x20 ADD PUSH1 0x0 KECCAK256 PUSH1 0x0 DUP6 DUP2 MSTORE PUSH1 0x20 ADD SWAP1 DUP2 MSTORE PUSH1 0x20 ADD PUSH1 0x0 KECCAK256 DUP2 SWAP1 SSTORE POP PUSH1 0x5 PUSH1 0x8 PUSH1 0x0 CALLER PUSH20 0xFFFFFFFFFFFFFFFFFFFFFFFFFFFFFFFFFFFFFFFF AND PUSH20 0xFFFFFFFFFFFFFFFFFFFFFFFFFFFFFFFFFFFFFFFF AND DUP2 MSTORE PUSH1 0x20 ADD SWAP1 DUP2 MSTORE PUSH1 0x20 ADD PUSH1 0x0 KECCAK256 DUP4 DUP2 SLOAD DUP2 LT PUSH2 0x26B6 JUMPI INVALID JUMPDEST SWAP1 PUSH1 0x0 MSTORE PUSH1 0x20 PUSH1 0x0 KECCAK256 SWAP1 PUSH1 0x4 MUL ADD PUSH1 0x0 ADD PUSH1 0x0 PUSH2 0x100 EXP DUP2 SLOAD DUP2 PUSH1 0xFF MUL NOT AND SWAP1 DUP4 PUSH1 0x5 DUP2 GT ISZERO PUSH2 0x26E2 JUMPI INVALID JUMPDEST MUL OR SWAP1 SSTORE POP PUSH32 0x3B749FD3ED05012AA59143F387DB1A9F0AD29515177C5476B7DE22989D3D4FFE DUP5 PUSH1 0x40 MLOAD PUSH2 0x2716 SWAP2 SWAP1 PUSH2 0x44E3 JUMP JUMPDEST PUSH1 0x40 MLOAD DUP1 SWAP2 SUB SWAP1 LOG1 JUMPDEST POP POP POP POP POP POP POP JUMP JUMPDEST PUSH1 0x0 DUP1 SWAP1 SLOAD SWAP1 PUSH2 0x100 EXP SWAP1 DIV PUSH20 0xFFFFFFFFFFFFFFFFFFFFFFFFFFFFFFFFFFFFFFFF AND PUSH20 0xFFFFFFFFFFFFFFFFFFFFFFFFFFFFFFFFFFFFFFFF AND CALLER PUSH20 0xFFFFFFFFFFFFFFFFFFFFFFFFFFFFFFFFFFFFFFFF AND EQ PUSH2 0x2781 JUMPI PUSH1 0x0 DUP1 REVERT JUMPDEST PUSH1 0x0 DUP2 SWAP1 POP PUSH1 0x60 DUP2 PUSH20 0xFFFFFFFFFFFFFFFFFFFFFFFFFFFFFFFFFFFFFFFF AND PUSH4 0x8CBA76B1 PUSH1 0x1 PUSH1 0x0 SWAP1 SLOAD SWAP1 PUSH2 0x100 EXP SWAP1 DIV PUSH20 0xFFFFFFFFFFFFFFFFFFFFFFFFFFFFFFFFFFFFFFFF AND PUSH1 0x40 MLOAD DUP3 PUSH4 0xFFFFFFFF AND PUSH1 0xE0 SHL DUP2 MSTORE PUSH1 0x4 ADD PUSH2 0x27E3 SWAP2 SWAP1 PUSH2 0x436C JUMP JUMPDEST PUSH1 0x0 PUSH1 0x40 MLOAD DUP1 DUP4 SUB DUP2 DUP7 DUP1 EXTCODESIZE ISZERO DUP1 ISZERO PUSH2 0x27FB JUMPI PUSH1 0x0 DUP1 REVERT JUMPDEST POP GAS STATICCALL ISZERO DUP1 ISZERO PUSH2 0x280F JUMPI RETURNDATASIZE PUSH1 0x0 DUP1 RETURNDATACOPY RETURNDATASIZE PUSH1 0x0 REVERT JUMPDEST POP POP POP POP PUSH1 0x40 MLOAD RETURNDATASIZE PUSH1 0x0 DUP3 RETURNDATACOPY RETURNDATASIZE PUSH1 0x1F NOT PUSH1 0x1F DUP3 ADD AND DUP3 ADD DUP1 PUSH1 0x40 MSTORE POP DUP2 ADD SWAP1 PUSH2 0x2838 SWAP2 SWAP1 PUSH2 0x3B3A JUMP JUMPDEST SWAP1 POP PUSH1 0x40 MLOAD PUSH1 0x20 ADD PUSH2 0x2849 SWAP1 PUSH2 0x4253 JUMP JUMPDEST PUSH1 0x40 MLOAD PUSH1 0x20 DUP2 DUP4 SUB SUB DUP2 MSTORE SWAP1 PUSH1 0x40 MSTORE DUP1 MLOAD SWAP1 PUSH1 0x20 ADD KECCAK256 DUP2 PUSH1 0x40 MLOAD PUSH1 0x20 ADD PUSH2 0x2870 SWAP2 SWAP1 PUSH2 0x423C JUMP JUMPDEST PUSH1 0x40 MLOAD PUSH1 0x20 DUP2 DUP4 SUB SUB DUP2 MSTORE SWAP1 PUSH1 0x40 MSTORE DUP1 MLOAD SWAP1 PUSH1 0x20 ADD KECCAK256 EQ PUSH2 0x2890 JUMPI PUSH1 0x0 DUP1 REVERT JUMPDEST POP POP POP JUMP JUMPDEST PUSH1 0x0 PUSH1 0xC PUSH1 0x0 DUP5 PUSH20 0xFFFFFFFFFFFFFFFFFFFFFFFFFFFFFFFFFFFFFFFF AND PUSH20 0xFFFFFFFFFFFFFFFFFFFFFFFFFFFFFFFFFFFFFFFF AND DUP2 MSTORE PUSH1 0x20 ADD SWAP1 DUP2 MSTORE PUSH1 0x20 ADD PUSH1 0x0 KECCAK256 PUSH1 0x0 DUP4 DUP2 MSTORE PUSH1 0x20 ADD SWAP1 DUP2 MSTORE PUSH1 0x20 ADD PUSH1 0x0 KECCAK256 SLOAD SWAP1 POP CALLER PUSH20 0xFFFFFFFFFFFFFFFFFFFFFFFFFFFFFFFFFFFFFFFF AND PUSH1 0x8 PUSH1 0x0 DUP6 PUSH20 0xFFFFFFFFFFFFFFFFFFFFFFFFFFFFFFFFFFFFFFFF AND PUSH20 0xFFFFFFFFFFFFFFFFFFFFFFFFFFFFFFFFFFFFFFFF AND DUP2 MSTORE PUSH1 0x20 ADD SWAP1 DUP2 MSTORE PUSH1 0x20 ADD PUSH1 0x0 KECCAK256 DUP3 DUP2 SLOAD DUP2 LT PUSH2 0x294B JUMPI INVALID JUMPDEST SWAP1 PUSH1 0x0 MSTORE PUSH1 0x20 PUSH1 0x0 KECCAK256 SWAP1 PUSH1 0x4 MUL ADD PUSH1 0x0 ADD PUSH1 0x1 SWAP1 SLOAD SWAP1 PUSH2 0x100 EXP SWAP1 DIV PUSH20 0xFFFFFFFFFFFFFFFFFFFFFFFFFFFFFFFFFFFFFFFF AND PUSH20 0xFFFFFFFFFFFFFFFFFFFFFFFFFFFFFFFFFFFFFFFF AND EQ PUSH2 0x299D JUMPI PUSH1 0x0 DUP1 REVERT JUMPDEST PUSH1 0x1 PUSH1 0x5 DUP2 GT ISZERO PUSH2 0x29AA JUMPI INVALID JUMPDEST PUSH1 0x8 PUSH1 0x0 DUP6 PUSH20 0xFFFFFFFFFFFFFFFFFFFFFFFFFFFFFFFFFFFFFFFF AND PUSH20 0xFFFFFFFFFFFFFFFFFFFFFFFFFFFFFFFFFFFFFFFF AND DUP2 MSTORE PUSH1 0x20 ADD SWAP1 DUP2 MSTORE PUSH1 0x20 ADD PUSH1 0x0 KECCAK256 DUP3 DUP2 SLOAD DUP2 LT PUSH2 0x29F4 JUMPI INVALID JUMPDEST SWAP1 PUSH1 0x0 MSTORE PUSH1 0x20 PUSH1 0x0 KECCAK256 SWAP1 PUSH1 0x4 MUL ADD PUSH1 0x0 ADD PUSH1 0x0 SWAP1 SLOAD SWAP1 PUSH2 0x100 EXP SWAP1 DIV PUSH1 0xFF AND PUSH1 0x5 DUP2 GT ISZERO PUSH2 0x2A1E JUMPI INVALID JUMPDEST EQ PUSH2 0x2A28 JUMPI PUSH1 0x0 DUP1 REVERT JUMPDEST PUSH2 0x2A30 PUSH2 0x363B JUMP JUMPDEST CALLER DUP2 PUSH1 0x20 ADD SWAP1 PUSH20 0xFFFFFFFFFFFFFFFFFFFFFFFFFFFFFFFFFFFFFFFF AND SWAP1 DUP2 PUSH20 0xFFFFFFFFFFFFFFFFFFFFFFFFFFFFFFFFFFFFFFFF AND DUP2 MSTORE POP POP DUP6 DUP2 PUSH1 0xA0 ADD DUP2 DUP2 MSTORE POP POP TIMESTAMP DUP2 PUSH1 0xC0 ADD DUP2 DUP2 MSTORE POP POP DUP5 DUP2 PUSH1 0x80 ADD DUP2 SWAP1 MSTORE POP PUSH1 0xB PUSH1 0x0 CALLER PUSH20 0xFFFFFFFFFFFFFFFFFFFFFFFFFFFFFFFFFFFFFFFF AND PUSH20 0xFFFFFFFFFFFFFFFFFFFFFFFFFFFFFFFFFFFFFFFF AND DUP2 MSTORE PUSH1 0x20 ADD SWAP1 DUP2 MSTORE PUSH1 0x20 ADD PUSH1 0x0 KECCAK256 PUSH1 0x0 DUP6 PUSH20 0xFFFFFFFFFFFFFFFFFFFFFFFFFFFFFFFFFFFFFFFF AND PUSH20 0xFFFFFFFFFFFFFFFFFFFFFFFFFFFFFFFFFFFFFFFF AND DUP2 MSTORE PUSH1 0x20 ADD SWAP1 DUP2 MSTORE PUSH1 0x20 ADD PUSH1 0x0 KECCAK256 DUP2 SWAP1 DUP1 PUSH1 0x1 DUP2 SLOAD ADD DUP1 DUP3 SSTORE DUP1 SWAP2 POP POP PUSH1 0x1 SWAP1 SUB SWAP1 PUSH1 0x0 MSTORE PUSH1 0x20 PUSH1 0x0 KECCAK256 SWAP1 PUSH1 0x8 MUL ADD PUSH1 0x0 SWAP1 SWAP2 SWAP1 SWAP2 SWAP1 SWAP2 POP PUSH1 0x0 DUP3 ADD MLOAD DUP2 PUSH1 0x0 ADD SWAP1 DUP1 MLOAD SWAP1 PUSH1 0x20 ADD SWAP1 PUSH2 0x2B47 SWAP3 SWAP2 SWAP1 PUSH2 0x35BB JUMP JUMPDEST POP PUSH1 0x20 DUP3 ADD MLOAD DUP2 PUSH1 0x1 ADD PUSH1 0x0 PUSH2 0x100 EXP DUP2 SLOAD DUP2 PUSH20 0xFFFFFFFFFFFFFFFFFFFFFFFFFFFFFFFFFFFFFFFF MUL NOT AND SWAP1 DUP4 PUSH20 0xFFFFFFFFFFFFFFFFFFFFFFFFFFFFFFFFFFFFFFFF AND MUL OR SWAP1 SSTORE POP PUSH1 0x40 DUP3 ADD MLOAD DUP2 PUSH1 0x2 ADD SWAP1 DUP1 MLOAD SWAP1 PUSH1 0x20 ADD SWAP1 PUSH2 0x2BAB SWAP3 SWAP2 SWAP1 PUSH2 0x35BB JUMP JUMPDEST POP PUSH1 0x60 DUP3 ADD MLOAD DUP2 PUSH1 0x3 ADD PUSH1 0x0 PUSH2 0x100 EXP DUP2 SLOAD DUP2 PUSH20 0xFFFFFFFFFFFFFFFFFFFFFFFFFFFFFFFFFFFFFFFF MUL NOT AND SWAP1 DUP4 PUSH20 0xFFFFFFFFFFFFFFFFFFFFFFFFFFFFFFFFFFFFFFFF AND MUL OR SWAP1 SSTORE POP PUSH1 0x80 DUP3 ADD MLOAD DUP2 PUSH1 0x4 ADD SWAP1 DUP1 MLOAD SWAP1 PUSH1 0x20 ADD SWAP1 PUSH2 0x2C0F SWAP3 SWAP2 SWAP1 PUSH2 0x35BB JUMP JUMPDEST POP PUSH1 0xA0 DUP3 ADD MLOAD DUP2 PUSH1 0x5 ADD SSTORE PUSH1 0xC0 DUP3 ADD MLOAD DUP2 PUSH1 0x6 ADD SSTORE PUSH1 0xE0 DUP3 ADD MLOAD DUP2 PUSH1 0x7 ADD SSTORE POP POP PUSH1 0x1 PUSH1 0xB PUSH1 0x0 CALLER PUSH20 0xFFFFFFFFFFFFFFFFFFFFFFFFFFFFFFFFFFFFFFFF AND PUSH20 0xFFFFFFFFFFFFFFFFFFFFFFFFFFFFFFFFFFFFFFFF AND DUP2 MSTORE PUSH1 0x20 ADD SWAP1 DUP2 MSTORE PUSH1 0x20 ADD PUSH1 0x0 KECCAK256 PUSH1 0x0 DUP7 PUSH20 0xFFFFFFFFFFFFFFFFFFFFFFFFFFFFFFFFFFFFFFFF AND PUSH20 0xFFFFFFFFFFFFFFFFFFFFFFFFFFFFFFFFFFFFFFFF AND DUP2 MSTORE PUSH1 0x20 ADD SWAP1 DUP2 MSTORE PUSH1 0x20 ADD PUSH1 0x0 KECCAK256 DUP1 SLOAD SWAP1 POP SUB PUSH1 0xD PUSH1 0x0 CALLER PUSH20 0xFFFFFFFFFFFFFFFFFFFFFFFFFFFFFFFFFFFFFFFF AND PUSH20 0xFFFFFFFFFFFFFFFFFFFFFFFFFFFFFFFFFFFFFFFF AND DUP2 MSTORE PUSH1 0x20 ADD SWAP1 DUP2 MSTORE PUSH1 0x20 ADD PUSH1 0x0 KECCAK256 PUSH1 0x0 DUP7 PUSH20 0xFFFFFFFFFFFFFFFFFFFFFFFFFFFFFFFFFFFFFFFF AND PUSH20 0xFFFFFFFFFFFFFFFFFFFFFFFFFFFFFFFFFFFFFFFF AND DUP2 MSTORE PUSH1 0x20 ADD SWAP1 DUP2 MSTORE PUSH1 0x20 ADD PUSH1 0x0 KECCAK256 DUP2 SWAP1 SSTORE POP PUSH1 0x0 PUSH1 0xD PUSH1 0x0 CALLER PUSH20 0xFFFFFFFFFFFFFFFFFFFFFFFFFFFFFFFFFFFFFFFF AND PUSH20 0xFFFFFFFFFFFFFFFFFFFFFFFFFFFFFFFFFFFFFFFF AND DUP2 MSTORE PUSH1 0x20 ADD SWAP1 DUP2 MSTORE PUSH1 0x20 ADD PUSH1 0x0 KECCAK256 PUSH1 0x0 DUP7 PUSH20 0xFFFFFFFFFFFFFFFFFFFFFFFFFFFFFFFFFFFFFFFF AND PUSH20 0xFFFFFFFFFFFFFFFFFFFFFFFFFFFFFFFFFFFFFFFF AND DUP2 MSTORE PUSH1 0x20 ADD SWAP1 DUP2 MSTORE PUSH1 0x20 ADD PUSH1 0x0 KECCAK256 SLOAD SWAP1 POP PUSH2 0x2DBF DUP6 CALLER DUP4 PUSH2 0x428 JUMP JUMPDEST POP POP POP POP POP POP POP POP POP POP POP JUMP JUMPDEST PUSH1 0x1 ISZERO ISZERO PUSH1 0x4 PUSH1 0x0 DUP7 PUSH20 0xFFFFFFFFFFFFFFFFFFFFFFFFFFFFFFFFFFFFFFFF AND PUSH20 0xFFFFFFFFFFFFFFFFFFFFFFFFFFFFFFFFFFFFFFFF AND DUP2 MSTORE PUSH1 0x20 ADD SWAP1 DUP2 MSTORE PUSH1 0x20 ADD PUSH1 0x0 KECCAK256 PUSH1 0x0 SWAP1 SLOAD SWAP1 PUSH2 0x100 EXP SWAP1 DIV PUSH1 0xFF AND ISZERO ISZERO EQ PUSH2 0x2E29 JUMPI PUSH1 0x0 DUP1 REVERT JUMPDEST PUSH2 0x2E32 DUP5 PUSH2 0x3171 JUMP JUMPDEST PUSH1 0x1 PUSH1 0x5 PUSH1 0x0 DUP9 PUSH20 0xFFFFFFFFFFFFFFFFFFFFFFFFFFFFFFFFFFFFFFFF AND PUSH20 0xFFFFFFFFFFFFFFFFFFFFFFFFFFFFFFFFFFFFFFFF AND DUP2 MSTORE PUSH1 0x20 ADD SWAP1 DUP2 MSTORE PUSH1 0x20 ADD PUSH1 0x0 KECCAK256 PUSH1 0x0 PUSH2 0x100 EXP DUP2 SLOAD DUP2 PUSH1 0xFF MUL NOT AND SWAP1 DUP4 ISZERO ISZERO MUL OR SWAP1 SSTORE POP PUSH2 0x2E92 PUSH2 0x3704 JUMP JUMPDEST DUP8 DUP2 PUSH1 0x0 ADD DUP2 SWAP1 MSTORE POP DUP7 DUP2 PUSH1 0x20 ADD SWAP1 PUSH20 0xFFFFFFFFFFFFFFFFFFFFFFFFFFFFFFFFFFFFFFFF AND SWAP1 DUP2 PUSH20 0xFFFFFFFFFFFFFFFFFFFFFFFFFFFFFFFFFFFFFFFF AND DUP2 MSTORE POP POP DUP6 DUP2 PUSH1 0x40 ADD DUP2 SWAP1 MSTORE POP DUP5 DUP2 PUSH1 0x60 ADD SWAP1 PUSH20 0xFFFFFFFFFFFFFFFFFFFFFFFFFFFFFFFFFFFFFFFF AND SWAP1 DUP2 PUSH20 0xFFFFFFFFFFFFFFFFFFFFFFFFFFFFFFFFFFFFFFFF AND DUP2 MSTORE POP POP DUP4 DUP2 PUSH1 0x80 ADD DUP2 SWAP1 MSTORE POP DUP3 DUP2 PUSH1 0xA0 ADD DUP2 SWAP1 MSTORE POP DUP2 DUP2 PUSH1 0xC0 ADD DUP2 SWAP1 MSTORE POP PUSH1 0x3 DUP2 SWAP1 DUP1 PUSH1 0x1 DUP2 SLOAD ADD DUP1 DUP3 SSTORE DUP1 SWAP2 POP POP PUSH1 0x1 SWAP1 SUB SWAP1 PUSH1 0x0 MSTORE PUSH1 0x20 PUSH1 0x0 KECCAK256 SWAP1 PUSH1 0x7 MUL ADD PUSH1 0x0 SWAP1 SWAP2 SWAP1 SWAP2 SWAP1 SWAP2 POP PUSH1 0x0 DUP3 ADD MLOAD DUP2 PUSH1 0x0 ADD SWAP1 DUP1 MLOAD SWAP1 PUSH1 0x20 ADD SWAP1 PUSH2 0x2F77 SWAP3 SWAP2 SWAP1 PUSH2 0x35BB JUMP JUMPDEST POP PUSH1 0x20 DUP3 ADD MLOAD DUP2 PUSH1 0x1 ADD PUSH1 0x0 PUSH2 0x100 EXP DUP2 SLOAD DUP2 PUSH20 0xFFFFFFFFFFFFFFFFFFFFFFFFFFFFFFFFFFFFFFFF MUL NOT AND SWAP1 DUP4 PUSH20 0xFFFFFFFFFFFFFFFFFFFFFFFFFFFFFFFFFFFFFFFF AND MUL OR SWAP1 SSTORE POP PUSH1 0x40 DUP3 ADD MLOAD DUP2 PUSH1 0x2 ADD SWAP1 DUP1 MLOAD SWAP1 PUSH1 0x20 ADD SWAP1 PUSH2 0x2FDB SWAP3 SWAP2 SWAP1 PUSH2 0x35BB JUMP JUMPDEST POP PUSH1 0x60 DUP3 ADD MLOAD DUP2 PUSH1 0x3 ADD PUSH1 0x0 PUSH2 0x100 EXP DUP2 SLOAD DUP2 PUSH20 0xFFFFFFFFFFFFFFFFFFFFFFFFFFFFFFFFFFFFFFFF MUL NOT AND SWAP1 DUP4 PUSH20 0xFFFFFFFFFFFFFFFFFFFFFFFFFFFFFFFFFFFFFFFF AND MUL OR SWAP1 SSTORE POP PUSH1 0x80 DUP3 ADD MLOAD DUP2 PUSH1 0x4 ADD SWAP1 DUP1 MLOAD SWAP1 PUSH1 0x20 ADD SWAP1 PUSH2 0x303F SWAP3 SWAP2 SWAP1 PUSH2 0x35BB JUMP JUMPDEST POP PUSH1 0xA0 DUP3 ADD MLOAD DUP2 PUSH1 0x5 ADD SWAP1 DUP1 MLOAD SWAP1 PUSH1 0x20 ADD SWAP1 PUSH2 0x305C SWAP3 SWAP2 SWAP1 PUSH2 0x35BB JUMP JUMPDEST POP PUSH1 0xC0 DUP3 ADD MLOAD DUP2 PUSH1 0x6 ADD SWAP1 DUP1 MLOAD SWAP1 PUSH1 0x20 ADD SWAP1 PUSH2 0x3079 SWAP3 SWAP2 SWAP1 PUSH2 0x35BB JUMP JUMPDEST POP POP POP PUSH1 0x7 PUSH1 0x0 DUP7 PUSH20 0xFFFFFFFFFFFFFFFFFFFFFFFFFFFFFFFFFFFFFFFF AND PUSH20 0xFFFFFFFFFFFFFFFFFFFFFFFFFFFFFFFFFFFFFFFF AND DUP2 MSTORE PUSH1 0x20 ADD SWAP1 DUP2 MSTORE PUSH1 0x20 ADD PUSH1 0x0 KECCAK256 DUP8 SWAP1 DUP1 PUSH1 0x1 DUP2 SLOAD ADD DUP1 DUP3 SSTORE DUP1 SWAP2 POP POP PUSH1 0x1 SWAP1 SUB SWAP1 PUSH1 0x0 MSTORE PUSH1 0x20 PUSH1 0x0 KECCAK256 ADD PUSH1 0x0 SWAP1 SWAP2 SWAP1 SWAP2 SWAP1 SWAP2 PUSH2 0x100 EXP DUP2 SLOAD DUP2 PUSH20 0xFFFFFFFFFFFFFFFFFFFFFFFFFFFFFFFFFFFFFFFF MUL NOT AND SWAP1 DUP4 PUSH20 0xFFFFFFFFFFFFFFFFFFFFFFFFFFFFFFFFFFFFFFFF AND MUL OR SWAP1 SSTORE POP POP POP POP POP POP POP POP POP JUMP JUMPDEST PUSH1 0x7 PUSH1 0x20 MSTORE DUP2 PUSH1 0x0 MSTORE PUSH1 0x40 PUSH1 0x0 KECCAK256 DUP2 DUP2 SLOAD DUP2 LT PUSH2 0x313F JUMPI INVALID JUMPDEST SWAP1 PUSH1 0x0 MSTORE PUSH1 0x20 PUSH1 0x0 KECCAK256 ADD PUSH1 0x0 SWAP2 POP SWAP2 POP SWAP1 SLOAD SWAP1 PUSH2 0x100 EXP SWAP1 DIV PUSH20 0xFFFFFFFFFFFFFFFFFFFFFFFFFFFFFFFFFFFFFFFF AND DUP2 JUMP JUMPDEST PUSH1 0x1 ISZERO ISZERO PUSH1 0x4 PUSH1 0x0 DUP4 PUSH20 0xFFFFFFFFFFFFFFFFFFFFFFFFFFFFFFFFFFFFFFFF AND PUSH20 0xFFFFFFFFFFFFFFFFFFFFFFFFFFFFFFFFFFFFFFFF AND DUP2 MSTORE PUSH1 0x20 ADD SWAP1 DUP2 MSTORE PUSH1 0x20 ADD PUSH1 0x0 KECCAK256 PUSH1 0x0 SWAP1 SLOAD SWAP1 PUSH2 0x100 EXP SWAP1 DIV PUSH1 0xFF AND ISZERO ISZERO EQ PUSH2 0x31CE JUMPI PUSH1 0x0 DUP1 REVERT JUMPDEST PUSH1 0x0 DUP2 SWAP1 POP PUSH1 0x60 DUP2 PUSH20 0xFFFFFFFFFFFFFFFFFFFFFFFFFFFFFFFFFFFFFFFF AND PUSH4 0x8CBA76B1 PUSH1 0x1 PUSH1 0x0 SWAP1 SLOAD SWAP1 PUSH2 0x100 EXP SWAP1 DIV PUSH20 0xFFFFFFFFFFFFFFFFFFFFFFFFFFFFFFFFFFFFFFFF AND PUSH1 0x40 MLOAD DUP3 PUSH4 0xFFFFFFFF AND PUSH1 0xE0 SHL DUP2 MSTORE PUSH1 0x4 ADD PUSH2 0x3230 SWAP2 SWAP1 PUSH2 0x42EA JUMP JUMPDEST PUSH1 0x0 PUSH1 0x40 MLOAD DUP1 DUP4 SUB DUP2 DUP7 DUP1 EXTCODESIZE ISZERO DUP1 ISZERO PUSH2 0x3248 JUMPI PUSH1 0x0 DUP1 REVERT JUMPDEST POP GAS STATICCALL ISZERO DUP1 ISZERO PUSH2 0x325C JUMPI RETURNDATASIZE PUSH1 0x0 DUP1 RETURNDATACOPY RETURNDATASIZE PUSH1 0x0 REVERT JUMPDEST POP POP POP POP PUSH1 0x40 MLOAD RETURNDATASIZE PUSH1 0x0 DUP3 RETURNDATACOPY RETURNDATASIZE PUSH1 0x1F NOT PUSH1 0x1F DUP3 ADD AND DUP3 ADD DUP1 PUSH1 0x40 MSTORE POP DUP2 ADD SWAP1 PUSH2 0x3285 SWAP2 SWAP1 PUSH2 0x3B3A JUMP JUMPDEST SWAP1 POP PUSH1 0x40 MLOAD PUSH1 0x20 ADD PUSH2 0x3296 SWAP1 PUSH2 0x4253 JUMP JUMPDEST PUSH1 0x40 MLOAD PUSH1 0x20 DUP2 DUP4 SUB SUB DUP2 MSTORE SWAP1 PUSH1 0x40 MSTORE DUP1 MLOAD SWAP1 PUSH1 0x20 ADD KECCAK256 DUP2 PUSH1 0x40 MLOAD PUSH1 0x20 ADD PUSH2 0x32BD SWAP2 SWAP1 PUSH2 0x423C JUMP JUMPDEST PUSH1 0x40 MLOAD PUSH1 0x20 DUP2 DUP4 SUB SUB DUP2 MSTORE SWAP1 PUSH1 0x40 MSTORE DUP1 MLOAD SWAP1 PUSH1 0x20 ADD KECCAK256 EQ PUSH2 0x32DD JUMPI PUSH1 0x0 DUP1 REVERT JUMPDEST POP POP POP JUMP JUMPDEST PUSH1 0xB PUSH1 0x20 MSTORE DUP3 PUSH1 0x0 MSTORE PUSH1 0x40 PUSH1 0x0 KECCAK256 PUSH1 0x20 MSTORE DUP2 PUSH1 0x0 MSTORE PUSH1 0x40 PUSH1 0x0 KECCAK256 DUP2 DUP2 SLOAD DUP2 LT PUSH2 0x3307 JUMPI INVALID JUMPDEST SWAP1 PUSH1 0x0 MSTORE PUSH1 0x20 PUSH1 0x0 KECCAK256 SWAP1 PUSH1 0x8 MUL ADD PUSH1 0x0 SWAP3 POP SWAP3 POP POP POP DUP1 PUSH1 0x0 ADD DUP1 SLOAD PUSH1 0x1 DUP2 PUSH1 0x1 AND ISZERO PUSH2 0x100 MUL SUB AND PUSH1 0x2 SWAP1 DIV DUP1 PUSH1 0x1F ADD PUSH1 0x20 DUP1 SWAP2 DIV MUL PUSH1 0x20 ADD PUSH1 0x40 MLOAD SWAP1 DUP2 ADD PUSH1 0x40 MSTORE DUP1 SWAP3 SWAP2 SWAP1 DUP2 DUP2 MSTORE PUSH1 0x20 ADD DUP3 DUP1 SLOAD PUSH1 0x1 DUP2 PUSH1 0x1 AND ISZERO PUSH2 0x100 MUL SUB AND PUSH1 0x2 SWAP1 DIV DUP1 ISZERO PUSH2 0x33B5 JUMPI DUP1 PUSH1 0x1F LT PUSH2 0x338A JUMPI PUSH2 0x100 DUP1 DUP4 SLOAD DIV MUL DUP4 MSTORE SWAP2 PUSH1 0x20 ADD SWAP2 PUSH2 0x33B5 JUMP JUMPDEST DUP3 ADD SWAP2 SWAP1 PUSH1 0x0 MSTORE PUSH1 0x20 PUSH1 0x0 KECCAK256 SWAP1 JUMPDEST DUP2 SLOAD DUP2 MSTORE SWAP1 PUSH1 0x1 ADD SWAP1 PUSH1 0x20 ADD DUP1 DUP4 GT PUSH2 0x3398 JUMPI DUP3 SWAP1 SUB PUSH1 0x1F AND DUP3 ADD SWAP2 JUMPDEST POP POP POP POP POP SWAP1 DUP1 PUSH1 0x1 ADD PUSH1 0x0 SWAP1 SLOAD SWAP1 PUSH2 0x100 EXP SWAP1 DIV PUSH20 0xFFFFFFFFFFFFFFFFFFFFFFFFFFFFFFFFFFFFFFFF AND SWAP1 DUP1 PUSH1 0x2 ADD DUP1 SLOAD PUSH1 0x1 DUP2 PUSH1 0x1 AND ISZERO PUSH2 0x100 MUL SUB AND PUSH1 0x2 SWAP1 DIV DUP1 PUSH1 0x1F ADD PUSH1 0x20 DUP1 SWAP2 DIV MUL PUSH1 0x20 ADD PUSH1 0x40 MLOAD SWAP1 DUP2 ADD PUSH1 0x40 MSTORE DUP1 SWAP3 SWAP2 SWAP1 DUP2 DUP2 MSTORE PUSH1 0x20 ADD DUP3 DUP1 SLOAD PUSH1 0x1 DUP2 PUSH1 0x1 AND ISZERO PUSH2 0x100 MUL SUB AND PUSH1 0x2 SWAP1 DIV DUP1 ISZERO PUSH2 0x3479 JUMPI DUP1 PUSH1 0x1F LT PUSH2 0x344E JUMPI PUSH2 0x100 DUP1 DUP4 SLOAD DIV MUL DUP4 MSTORE SWAP2 PUSH1 0x20 ADD SWAP2 PUSH2 0x3479 JUMP JUMPDEST DUP3 ADD SWAP2 SWAP1 PUSH1 0x0 MSTORE PUSH1 0x20 PUSH1 0x0 KECCAK256 SWAP1 JUMPDEST DUP2 SLOAD DUP2 MSTORE SWAP1 PUSH1 0x1 ADD SWAP1 PUSH1 0x20 ADD DUP1 DUP4 GT PUSH2 0x345C JUMPI DUP3 SWAP1 SUB PUSH1 0x1F AND DUP3 ADD SWAP2 JUMPDEST POP POP POP POP POP SWAP1 DUP1 PUSH1 0x3 ADD PUSH1 0x0 SWAP1 SLOAD SWAP1 PUSH2 0x100 EXP SWAP1 DIV PUSH20 0xFFFFFFFFFFFFFFFFFFFFFFFFFFFFFFFFFFFFFFFF AND SWAP1 DUP1 PUSH1 0x4 ADD DUP1 SLOAD PUSH1 0x1 DUP2 PUSH1 0x1 AND ISZERO PUSH2 0x100 MUL SUB AND PUSH1 0x2 SWAP1 DIV DUP1 PUSH1 0x1F ADD PUSH1 0x20 DUP1 SWAP2 DIV MUL PUSH1 0x20 ADD PUSH1 0x40 MLOAD SWAP1 DUP2 ADD PUSH1 0x40 MSTORE DUP1 SWAP3 SWAP2 SWAP1 DUP2 DUP2 MSTORE PUSH1 0x20 ADD DUP3 DUP1 SLOAD PUSH1 0x1 DUP2 PUSH1 0x1 AND ISZERO PUSH2 0x100 MUL SUB AND PUSH1 0x2 SWAP1 DIV DUP1 ISZERO PUSH2 0x353D JUMPI DUP1 PUSH1 0x1F LT PUSH2 0x3512 JUMPI PUSH2 0x100 DUP1 DUP4 SLOAD DIV MUL DUP4 MSTORE SWAP2 PUSH1 0x20 ADD SWAP2 PUSH2 0x353D JUMP JUMPDEST DUP3 ADD SWAP2 SWAP1 PUSH1 0x0 MSTORE PUSH1 0x20 PUSH1 0x0 KECCAK256 SWAP1 JUMPDEST DUP2 SLOAD DUP2 MSTORE SWAP1 PUSH1 0x1 ADD SWAP1 PUSH1 0x20 ADD DUP1 DUP4 GT PUSH2 0x3520 JUMPI DUP3 SWAP1 SUB PUSH1 0x1F AND DUP3 ADD SWAP2 JUMPDEST POP POP POP POP POP SWAP1 DUP1 PUSH1 0x5 ADD SLOAD SWAP1 DUP1 PUSH1 0x6 ADD SLOAD SWAP1 DUP1 PUSH1 0x7 ADD SLOAD SWAP1 POP DUP9 JUMP JUMPDEST PUSH1 0x40 MLOAD DUP1 PUSH1 0xC0 ADD PUSH1 0x40 MSTORE DUP1 PUSH1 0x60 DUP2 MSTORE PUSH1 0x20 ADD PUSH1 0x0 PUSH20 0xFFFFFFFFFFFFFFFFFFFFFFFFFFFFFFFFFFFFFFFF AND DUP2 MSTORE PUSH1 0x20 ADD PUSH1 0x60 DUP2 MSTORE PUSH1 0x20 ADD PUSH1 0x0 PUSH20 0xFFFFFFFFFFFFFFFFFFFFFFFFFFFFFFFFFFFFFFFF AND DUP2 MSTORE PUSH1 0x20 ADD PUSH1 0x60 DUP2 MSTORE PUSH1 0x20 ADD PUSH1 0x60 DUP2 MSTORE POP SWAP1 JUMP JUMPDEST DUP3 DUP1 SLOAD PUSH1 0x1 DUP2 PUSH1 0x1 AND ISZERO PUSH2 0x100 MUL SUB AND PUSH1 0x2 SWAP1 DIV SWAP1 PUSH1 0x0 MSTORE PUSH1 0x20 PUSH1 0x0 KECCAK256 SWAP1 PUSH1 0x1F ADD PUSH1 0x20 SWAP1 DIV DUP2 ADD SWAP3 DUP3 PUSH1 0x1F LT PUSH2 0x35FC JUMPI DUP1 MLOAD PUSH1 0xFF NOT AND DUP4 DUP1 ADD OR DUP6 SSTORE PUSH2 0x362A JUMP JUMPDEST DUP3 DUP1 ADD PUSH1 0x1 ADD DUP6 SSTORE DUP3 ISZERO PUSH2 0x362A JUMPI SWAP2 DUP3 ADD JUMPDEST DUP3 DUP2 GT ISZERO PUSH2 0x3629 JUMPI DUP3 MLOAD DUP3 SSTORE SWAP2 PUSH1 0x20 ADD SWAP2 SWAP1 PUSH1 0x1 ADD SWAP1 PUSH2 0x360E JUMP JUMPDEST JUMPDEST POP SWAP1 POP PUSH2 0x3637 SWAP2 SWAP1 PUSH2 0x376D JUMP JUMPDEST POP SWAP1 JUMP JUMPDEST PUSH1 0x40 MLOAD DUP1 PUSH2 0x100 ADD PUSH1 0x40 MSTORE DUP1 PUSH1 0x60 DUP2 MSTORE PUSH1 0x20 ADD PUSH1 0x0 PUSH20 0xFFFFFFFFFFFFFFFFFFFFFFFFFFFFFFFFFFFFFFFF AND DUP2 MSTORE PUSH1 0x20 ADD PUSH1 0x60 DUP2 MSTORE PUSH1 0x20 ADD PUSH1 0x0 PUSH20 0xFFFFFFFFFFFFFFFFFFFFFFFFFFFFFFFFFFFFFFFF AND DUP2 MSTORE PUSH1 0x20 ADD PUSH1 0x60 DUP2 MSTORE PUSH1 0x20 ADD PUSH1 0x0 DUP1 NOT AND DUP2 MSTORE PUSH1 0x20 ADD PUSH1 0x0 DUP2 MSTORE PUSH1 0x20 ADD PUSH1 0x0 DUP2 MSTORE POP SWAP1 JUMP JUMPDEST PUSH1 0x40 MLOAD DUP1 PUSH1 0xA0 ADD PUSH1 0x40 MSTORE DUP1 PUSH1 0x0 PUSH1 0x5 DUP2 GT ISZERO PUSH2 0x36C7 JUMPI INVALID JUMPDEST DUP2 MSTORE PUSH1 0x20 ADD PUSH1 0x0 PUSH20 0xFFFFFFFFFFFFFFFFFFFFFFFFFFFFFFFFFFFFFFFF AND DUP2 MSTORE PUSH1 0x20 ADD PUSH1 0x0 DUP2 MSTORE PUSH1 0x20 ADD PUSH1 0x0 DUP1 NOT AND DUP2 MSTORE PUSH1 0x20 ADD PUSH1 0x0 ISZERO ISZERO DUP2 MSTORE POP SWAP1 JUMP JUMPDEST PUSH1 0x40 MLOAD DUP1 PUSH1 0xE0 ADD PUSH1 0x40 MSTORE DUP1 PUSH1 0x60 DUP2 MSTORE PUSH1 0x20 ADD PUSH1 0x0 PUSH20 0xFFFFFFFFFFFFFFFFFFFFFFFFFFFFFFFFFFFFFFFF AND DUP2 MSTORE PUSH1 0x20 ADD PUSH1 0x60 DUP2 MSTORE PUSH1 0x20 ADD PUSH1 0x0 PUSH20 0xFFFFFFFFFFFFFFFFFFFFFFFFFFFFFFFFFFFFFFFF AND DUP2 MSTORE PUSH1 0x20 ADD PUSH1 0x60 DUP2 MSTORE PUSH1 0x20 ADD PUSH1 0x60 DUP2 MSTORE PUSH1 0x20 ADD PUSH1 0x60 DUP2 MSTORE POP SWAP1 JUMP JUMPDEST PUSH2 0x378F SWAP2 SWAP1 JUMPDEST DUP1 DUP3 GT ISZERO PUSH2 0x378B JUMPI PUSH1 0x0 DUP2 PUSH1 0x0 SWAP1 SSTORE POP PUSH1 0x1 ADD PUSH2 0x3773 JUMP JUMPDEST POP SWAP1 JUMP JUMPDEST SWAP1 JUMP JUMPDEST PUSH1 0x0 DUP2 CALLDATALOAD SWAP1 POP PUSH2 0x37A1 DUP2 PUSH2 0x471F JUMP JUMPDEST SWAP3 SWAP2 POP POP JUMP JUMPDEST PUSH1 0x0 DUP2 CALLDATALOAD SWAP1 POP PUSH2 0x37B6 DUP2 PUSH2 0x4736 JUMP JUMPDEST SWAP3 SWAP2 POP POP JUMP JUMPDEST PUSH1 0x0 DUP2 CALLDATALOAD SWAP1 POP PUSH2 0x37CB DUP2 PUSH2 0x474D JUMP JUMPDEST SWAP3 SWAP2 POP POP JUMP JUMPDEST PUSH1 0x0 DUP3 PUSH1 0x1F DUP4 ADD SLT PUSH2 0x37E2 JUMPI PUSH1 0x0 DUP1 REVERT JUMPDEST DUP2 CALLDATALOAD PUSH2 0x37F5 PUSH2 0x37F0 DUP3 PUSH2 0x45B5 JUMP JUMPDEST PUSH2 0x4588 JUMP JUMPDEST SWAP2 POP DUP1 DUP3 MSTORE PUSH1 0x20 DUP4 ADD PUSH1 0x20 DUP4 ADD DUP6 DUP4 DUP4 ADD GT ISZERO PUSH2 0x3811 JUMPI PUSH1 0x0 DUP1 REVERT JUMPDEST PUSH2 0x381C DUP4 DUP3 DUP5 PUSH2 0x46B5 JUMP JUMPDEST POP POP POP SWAP3 SWAP2 POP POP JUMP JUMPDEST PUSH1 0x0 DUP3 PUSH1 0x1F DUP4 ADD SLT PUSH2 0x3836 JUMPI PUSH1 0x0 DUP1 REVERT JUMPDEST DUP2 MLOAD PUSH2 0x3849 PUSH2 0x3844 DUP3 PUSH2 0x45B5 JUMP JUMPDEST PUSH2 0x4588 JUMP JUMPDEST SWAP2 POP DUP1 DUP3 MSTORE PUSH1 0x20 DUP4 ADD PUSH1 0x20 DUP4 ADD DUP6 DUP4 DUP4 ADD GT ISZERO PUSH2 0x3865 JUMPI PUSH1 0x0 DUP1 REVERT JUMPDEST PUSH2 0x3870 DUP4 DUP3 DUP5 PUSH2 0x46C4 JUMP JUMPDEST POP POP POP SWAP3 SWAP2 POP POP JUMP JUMPDEST PUSH1 0x0 DUP2 CALLDATALOAD SWAP1 POP PUSH2 0x3888 DUP2 PUSH2 0x4764 JUMP JUMPDEST SWAP3 SWAP2 POP POP JUMP JUMPDEST PUSH1 0x0 PUSH1 0x20 DUP3 DUP5 SUB SLT ISZERO PUSH2 0x38A0 JUMPI PUSH1 0x0 DUP1 REVERT JUMPDEST PUSH1 0x0 PUSH2 0x38AE DUP5 DUP3 DUP6 ADD PUSH2 0x3792 JUMP JUMPDEST SWAP2 POP POP SWAP3 SWAP2 POP POP JUMP JUMPDEST PUSH1 0x0 DUP1 PUSH1 0x40 DUP4 DUP6 SUB SLT ISZERO PUSH2 0x38CA JUMPI PUSH1 0x0 DUP1 REVERT JUMPDEST PUSH1 0x0 PUSH2 0x38D8 DUP6 DUP3 DUP7 ADD PUSH2 0x3792 JUMP JUMPDEST SWAP3 POP POP PUSH1 0x20 PUSH2 0x38E9 DUP6 DUP3 DUP7 ADD PUSH2 0x3792 JUMP JUMPDEST SWAP2 POP POP SWAP3 POP SWAP3 SWAP1 POP JUMP JUMPDEST PUSH1 0x0 DUP1 PUSH1 0x0 PUSH1 0x60 DUP5 DUP7 SUB SLT ISZERO PUSH2 0x3908 JUMPI PUSH1 0x0 DUP1 REVERT JUMPDEST PUSH1 0x0 PUSH2 0x3916 DUP7 DUP3 DUP8 ADD PUSH2 0x3792 JUMP JUMPDEST SWAP4 POP POP PUSH1 0x20 PUSH2 0x3927 DUP7 DUP3 DUP8 ADD PUSH2 0x3792 JUMP JUMPDEST SWAP3 POP POP PUSH1 0x40 PUSH2 0x3938 DUP7 DUP3 DUP8 ADD PUSH2 0x3879 JUMP JUMPDEST SWAP2 POP POP SWAP3 POP SWAP3 POP SWAP3 JUMP JUMPDEST PUSH1 0x0 DUP1 PUSH1 0x40 DUP4 DUP6 SUB SLT ISZERO PUSH2 0x3955 JUMPI PUSH1 0x0 DUP1 REVERT JUMPDEST PUSH1 0x0 PUSH2 0x3963 DUP6 DUP3 DUP7 ADD PUSH2 0x3792 JUMP JUMPDEST SWAP3 POP POP PUSH1 0x20 PUSH2 0x3974 DUP6 DUP3 DUP7 ADD PUSH2 0x3879 JUMP JUMPDEST SWAP2 POP POP SWAP3 POP SWAP3 SWAP1 POP JUMP JUMPDEST PUSH1 0x0 DUP1 PUSH1 0x0 PUSH1 0x60 DUP5 DUP7 SUB SLT ISZERO PUSH2 0x3993 JUMPI PUSH1 0x0 DUP1 REVERT JUMPDEST PUSH1 0x0 PUSH2 0x39A1 DUP7 DUP3 DUP8 ADD PUSH2 0x37A7 JUMP JUMPDEST SWAP4 POP POP PUSH1 0x20 PUSH2 0x39B2 DUP7 DUP3 DUP8 ADD PUSH2 0x3792 JUMP JUMPDEST SWAP3 POP POP PUSH1 0x40 PUSH2 0x39C3 DUP7 DUP3 DUP8 ADD PUSH2 0x3879 JUMP JUMPDEST SWAP2 POP POP SWAP3 POP SWAP3 POP SWAP3 JUMP JUMPDEST PUSH1 0x0 DUP1 PUSH1 0x0 DUP1 PUSH1 0x0 PUSH1 0xA0 DUP7 DUP9 SUB SLT ISZERO PUSH2 0x39E5 JUMPI PUSH1 0x0 DUP1 REVERT JUMPDEST PUSH1 0x0 PUSH2 0x39F3 DUP9 DUP3 DUP10 ADD PUSH2 0x37A7 JUMP JUMPDEST SWAP6 POP POP PUSH1 0x20 PUSH2 0x3A04 DUP9 DUP3 DUP10 ADD PUSH2 0x37BC JUMP JUMPDEST SWAP5 POP POP PUSH1 0x40 DUP7 ADD CALLDATALOAD PUSH8 0xFFFFFFFFFFFFFFFF DUP2 GT ISZERO PUSH2 0x3A21 JUMPI PUSH1 0x0 DUP1 REVERT JUMPDEST PUSH2 0x3A2D DUP9 DUP3 DUP10 ADD PUSH2 0x37D1 JUMP JUMPDEST SWAP4 POP POP PUSH1 0x60 PUSH2 0x3A3E DUP9 DUP3 DUP10 ADD PUSH2 0x3792 JUMP JUMPDEST SWAP3 POP POP PUSH1 0x80 PUSH2 0x3A4F DUP9 DUP3 DUP10 ADD PUSH2 0x3879 JUMP JUMPDEST SWAP2 POP POP SWAP3 SWAP6 POP SWAP3 SWAP6 SWAP1 SWAP4 POP JUMP JUMPDEST PUSH1 0x0 DUP1 PUSH1 0x0 DUP1 PUSH1 0x80 DUP6 DUP8 SUB SLT ISZERO PUSH2 0x3A72 JUMPI PUSH1 0x0 DUP1 REVERT JUMPDEST PUSH1 0x0 PUSH2 0x3A80 DUP8 DUP3 DUP9 ADD PUSH2 0x37BC JUMP JUMPDEST SWAP5 POP POP PUSH1 0x20 PUSH2 0x3A91 DUP8 DUP3 DUP9 ADD PUSH2 0x3792 JUMP JUMPDEST SWAP4 POP POP PUSH1 0x40 PUSH2 0x3AA2 DUP8 DUP3 DUP9 ADD PUSH2 0x3792 JUMP JUMPDEST SWAP3 POP POP PUSH1 0x60 PUSH2 0x3AB3 DUP8 DUP3 DUP9 ADD PUSH2 0x3879 JUMP JUMPDEST SWAP2 POP POP SWAP3 SWAP6 SWAP2 SWAP5 POP SWAP3 POP JUMP JUMPDEST PUSH1 0x0 DUP1 PUSH1 0x0 DUP1 PUSH1 0x80 DUP6 DUP8 SUB SLT ISZERO PUSH2 0x3AD5 JUMPI PUSH1 0x0 DUP1 REVERT JUMPDEST PUSH1 0x0 PUSH2 0x3AE3 DUP8 DUP3 DUP9 ADD PUSH2 0x37BC JUMP JUMPDEST SWAP5 POP POP PUSH1 0x20 DUP6 ADD CALLDATALOAD PUSH8 0xFFFFFFFFFFFFFFFF DUP2 GT ISZERO PUSH2 0x3B00 JUMPI PUSH1 0x0 DUP1 REVERT JUMPDEST PUSH2 0x3B0C DUP8 DUP3 DUP9 ADD PUSH2 0x37D1 JUMP JUMPDEST SWAP4 POP POP PUSH1 0x40 PUSH2 0x3B1D DUP8 DUP3 DUP9 ADD PUSH2 0x3792 JUMP JUMPDEST SWAP3 POP POP PUSH1 0x60 PUSH2 0x3B2E DUP8 DUP3 DUP9 ADD PUSH2 0x3879 JUMP JUMPDEST SWAP2 POP POP SWAP3 SWAP6 SWAP2 SWAP5 POP SWAP3 POP JUMP JUMPDEST PUSH1 0x0 PUSH1 0x20 DUP3 DUP5 SUB SLT ISZERO PUSH2 0x3B4C JUMPI PUSH1 0x0 DUP1 REVERT JUMPDEST PUSH1 0x0 DUP3 ADD MLOAD PUSH8 0xFFFFFFFFFFFFFFFF DUP2 GT ISZERO PUSH2 0x3B66 JUMPI PUSH1 0x0 DUP1 REVERT JUMPDEST PUSH2 0x3B72 DUP5 DUP3 DUP6 ADD PUSH2 0x3825 JUMP JUMPDEST SWAP2 POP POP SWAP3 SWAP2 POP POP JUMP JUMPDEST PUSH1 0x0 DUP1 PUSH1 0x0 DUP1 PUSH1 0x0 DUP1 PUSH1 0x0 PUSH1 0xE0 DUP9 DUP11 SUB SLT ISZERO PUSH2 0x3B96 JUMPI PUSH1 0x0 DUP1 REVERT JUMPDEST PUSH1 0x0 DUP9 ADD CALLDATALOAD PUSH8 0xFFFFFFFFFFFFFFFF DUP2 GT ISZERO PUSH2 0x3BB0 JUMPI PUSH1 0x0 DUP1 REVERT JUMPDEST PUSH2 0x3BBC DUP11 DUP3 DUP12 ADD PUSH2 0x37D1 JUMP JUMPDEST SWAP8 POP POP PUSH1 0x20 PUSH2 0x3BCD DUP11 DUP3 DUP12 ADD PUSH2 0x3792 JUMP JUMPDEST SWAP7 POP POP PUSH1 0x40 DUP9 ADD CALLDATALOAD PUSH8 0xFFFFFFFFFFFFFFFF DUP2 GT ISZERO PUSH2 0x3BEA JUMPI PUSH1 0x0 DUP1 REVERT JUMPDEST PUSH2 0x3BF6 DUP11 DUP3 DUP12 ADD PUSH2 0x37D1 JUMP JUMPDEST SWAP6 POP POP PUSH1 0x60 PUSH2 0x3C07 DUP11 DUP3 DUP12 ADD PUSH2 0x3792 JUMP JUMPDEST SWAP5 POP POP PUSH1 0x80 DUP9 ADD CALLDATALOAD PUSH8 0xFFFFFFFFFFFFFFFF DUP2 GT ISZERO PUSH2 0x3C24 JUMPI PUSH1 0x0 DUP1 REVERT JUMPDEST PUSH2 0x3C30 DUP11 DUP3 DUP12 ADD PUSH2 0x37D1 JUMP JUMPDEST SWAP4 POP POP PUSH1 0xA0 PUSH2 0x3C41 DUP11 DUP3 DUP12 ADD PUSH2 0x37BC JUMP JUMPDEST SWAP3 POP POP PUSH1 0xC0 PUSH2 0x3C52 DUP11 DUP3 DUP12 ADD PUSH2 0x3879 JUMP JUMPDEST SWAP2 POP POP SWAP3 SWAP6 SWAP9 SWAP2 SWAP5 SWAP8 POP SWAP3 SWAP6 POP JUMP JUMPDEST PUSH1 0x0 DUP1 PUSH1 0x0 DUP1 PUSH1 0x0 DUP1 PUSH1 0xC0 DUP8 DUP10 SUB SLT ISZERO PUSH2 0x3C7A JUMPI PUSH1 0x0 DUP1 REVERT JUMPDEST PUSH1 0x0 DUP8 ADD CALLDATALOAD PUSH8 0xFFFFFFFFFFFFFFFF DUP2 GT ISZERO PUSH2 0x3C94 JUMPI PUSH1 0x0 DUP1 REVERT JUMPDEST PUSH2 0x3CA0 DUP10 DUP3 DUP11 ADD PUSH2 0x37D1 JUMP JUMPDEST SWAP7 POP POP PUSH1 0x20 PUSH2 0x3CB1 DUP10 DUP3 DUP11 ADD PUSH2 0x3792 JUMP JUMPDEST SWAP6 POP POP PUSH1 0x40 DUP8 ADD CALLDATALOAD PUSH8 0xFFFFFFFFFFFFFFFF DUP2 GT ISZERO PUSH2 0x3CCE JUMPI PUSH1 0x0 DUP1 REVERT JUMPDEST PUSH2 0x3CDA DUP10 DUP3 DUP11 ADD PUSH2 0x37D1 JUMP JUMPDEST SWAP5 POP POP PUSH1 0x60 PUSH2 0x3CEB DUP10 DUP3 DUP11 ADD PUSH2 0x3792 JUMP JUMPDEST SWAP4 POP POP PUSH1 0x80 DUP8 ADD CALLDATALOAD PUSH8 0xFFFFFFFFFFFFFFFF DUP2 GT ISZERO PUSH2 0x3D08 JUMPI PUSH1 0x0 DUP1 REVERT JUMPDEST PUSH2 0x3D14 DUP10 DUP3 DUP11 ADD PUSH2 0x37D1 JUMP JUMPDEST SWAP3 POP POP PUSH1 0xA0 DUP8 ADD CALLDATALOAD PUSH8 0xFFFFFFFFFFFFFFFF DUP2 GT ISZERO PUSH2 0x3D31 JUMPI PUSH1 0x0 DUP1 REVERT JUMPDEST PUSH2 0x3D3D DUP10 DUP3 DUP11 ADD PUSH2 0x37D1 JUMP JUMPDEST SWAP2 POP POP SWAP3 SWAP6 POP SWAP3 SWAP6 POP SWAP3 SWAP6 JUMP JUMPDEST PUSH1 0x0 DUP1 PUSH1 0x0 DUP1 PUSH1 0x0 DUP1 PUSH1 0x0 PUSH1 0xE0 DUP9 DUP11 SUB SLT ISZERO PUSH2 0x3D65 JUMPI PUSH1 0x0 DUP1 REVERT JUMPDEST PUSH1 0x0 DUP9 ADD CALLDATALOAD PUSH8 0xFFFFFFFFFFFFFFFF DUP2 GT ISZERO PUSH2 0x3D7F JUMPI PUSH1 0x0 DUP1 REVERT JUMPDEST PUSH2 0x3D8B DUP11 DUP3 DUP12 ADD PUSH2 0x37D1 JUMP JUMPDEST SWAP8 POP POP PUSH1 0x20 PUSH2 0x3D9C DUP11 DUP3 DUP12 ADD PUSH2 0x3792 JUMP JUMPDEST SWAP7 POP POP PUSH1 0x40 DUP9 ADD CALLDATALOAD PUSH8 0xFFFFFFFFFFFFFFFF DUP2 GT ISZERO PUSH2 0x3DB9 JUMPI PUSH1 0x0 DUP1 REVERT JUMPDEST PUSH2 0x3DC5 DUP11 DUP3 DUP12 ADD PUSH2 0x37D1 JUMP JUMPDEST SWAP6 POP POP PUSH1 0x60 PUSH2 0x3DD6 DUP11 DUP3 DUP12 ADD PUSH2 0x3792 JUMP JUMPDEST SWAP5 POP POP PUSH1 0x80 DUP9 ADD CALLDATALOAD PUSH8 0xFFFFFFFFFFFFFFFF DUP2 GT ISZERO PUSH2 0x3DF3 JUMPI PUSH1 0x0 DUP1 REVERT JUMPDEST PUSH2 0x3DFF DUP11 DUP3 DUP12 ADD PUSH2 0x37D1 JUMP JUMPDEST SWAP4 POP POP PUSH1 0xA0 DUP9 ADD CALLDATALOAD PUSH8 0xFFFFFFFFFFFFFFFF DUP2 GT ISZERO PUSH2 0x3E1C JUMPI PUSH1 0x0 DUP1 REVERT JUMPDEST PUSH2 0x3E28 DUP11 DUP3 DUP12 ADD PUSH2 0x37D1 JUMP JUMPDEST SWAP3 POP POP PUSH1 0xC0 DUP9 ADD CALLDATALOAD PUSH8 0xFFFFFFFFFFFFFFFF DUP2 GT ISZERO PUSH2 0x3E45 JUMPI PUSH1 0x0 DUP1 REVERT JUMPDEST PUSH2 0x3E51 DUP11 DUP3 DUP12 ADD PUSH2 0x37D1 JUMP JUMPDEST SWAP2 POP POP SWAP3 SWAP6 SWAP9 SWAP2 SWAP5 SWAP8 POP SWAP3 SWAP6 POP JUMP JUMPDEST PUSH2 0x3E69 DUP2 PUSH2 0x466D JUMP JUMPDEST DUP3 MSTORE POP POP JUMP JUMPDEST PUSH2 0x3E78 DUP2 PUSH2 0x4608 JUMP JUMPDEST DUP3 MSTORE POP POP JUMP JUMPDEST PUSH2 0x3E87 DUP2 PUSH2 0x461A JUMP JUMPDEST DUP3 MSTORE POP POP JUMP JUMPDEST PUSH2 0x3E96 DUP2 PUSH2 0x4626 JUMP JUMPDEST DUP3 MSTORE POP POP JUMP JUMPDEST PUSH2 0x3EAD PUSH2 0x3EA8 DUP3 PUSH2 0x4626 JUMP JUMPDEST PUSH2 0x46F7 JUMP JUMPDEST DUP3 MSTORE POP POP JUMP JUMPDEST PUSH2 0x3EBC DUP2 PUSH2 0x467F JUMP JUMPDEST DUP3 MSTORE POP POP JUMP JUMPDEST PUSH1 0x0 PUSH2 0x3ECD DUP3 PUSH2 0x45E1 JUMP JUMPDEST PUSH2 0x3ED7 DUP2 DUP6 PUSH2 0x45EC JUMP JUMPDEST SWAP4 POP PUSH2 0x3EE7 DUP2 DUP6 PUSH1 0x20 DUP7 ADD PUSH2 0x46C4 JUMP JUMPDEST PUSH2 0x3EF0 DUP2 PUSH2 0x4701 JUMP JUMPDEST DUP5 ADD SWAP2 POP POP SWAP3 SWAP2 POP POP JUMP JUMPDEST PUSH1 0x0 PUSH2 0x3F06 DUP3 PUSH2 0x45E1 JUMP JUMPDEST PUSH2 0x3F10 DUP2 DUP6 PUSH2 0x45FD JUMP JUMPDEST SWAP4 POP PUSH2 0x3F20 DUP2 DUP6 PUSH1 0x20 DUP7 ADD PUSH2 0x46C4 JUMP JUMPDEST DUP1 DUP5 ADD SWAP2 POP POP SWAP3 SWAP2 POP POP JUMP JUMPDEST PUSH1 0x0 PUSH2 0x3F39 PUSH1 0x10 DUP4 PUSH2 0x45EC JUMP JUMPDEST SWAP2 POP PUSH32 0x4D65646961436572746966696361746500000000000000000000000000000000 PUSH1 0x0 DUP4 ADD MSTORE PUSH1 0x20 DUP3 ADD SWAP1 POP SWAP2 SWAP1 POP JUMP JUMPDEST PUSH1 0x0 PUSH2 0x3F79 PUSH1 0x1C DUP4 PUSH2 0x45EC JUMP JUMPDEST SWAP2 POP PUSH32 0x5065726D697373696F6E2044656E69656420746F206164647265737300000000 PUSH1 0x0 DUP4 ADD MSTORE PUSH1 0x20 DUP3 ADD SWAP1 POP SWAP2 SWAP1 POP JUMP JUMPDEST PUSH1 0x0 PUSH2 0x3FB9 PUSH1 0x12 DUP4 PUSH2 0x45EC JUMP JUMPDEST SWAP2 POP PUSH32 0x4661696C7572652041747465737465643A200000000000000000000000000000 PUSH1 0x0 DUP4 ADD MSTORE PUSH1 0x20 DUP3 ADD SWAP1 POP SWAP2 SWAP1 POP JUMP JUMPDEST PUSH1 0x0 PUSH2 0x3FF9 PUSH1 0xF DUP4 PUSH2 0x45EC JUMP JUMPDEST SWAP2 POP PUSH32 0x4A6F757243657274696669636174650000000000000000000000000000000000 PUSH1 0x0 DUP4 ADD MSTORE PUSH1 0x20 DUP3 ADD SWAP1 POP SWAP2 SWAP1 POP JUMP JUMPDEST PUSH1 0x0 PUSH2 0x4039 PUSH1 0x5 DUP4 PUSH2 0x45EC JUMP JUMPDEST SWAP2 POP PUSH32 0x69734E4343000000000000000000000000000000000000000000000000000000 PUSH1 0x0 DUP4 ADD MSTORE PUSH1 0x20 DUP3 ADD SWAP1 POP SWAP2 SWAP1 POP JUMP JUMPDEST PUSH1 0x0 PUSH2 0x4079 PUSH1 0x6 DUP4 PUSH2 0x45EC JUMP JUMPDEST SWAP2 POP PUSH32 0x69734A6F75720000000000000000000000000000000000000000000000000000 PUSH1 0x0 DUP4 ADD MSTORE PUSH1 0x20 DUP3 ADD SWAP1 POP SWAP2 SWAP1 POP JUMP JUMPDEST PUSH1 0x0 PUSH2 0x40B9 PUSH1 0x7 DUP4 PUSH2 0x45EC JUMP JUMPDEST SWAP2 POP PUSH32 0x69734D6564696100000000000000000000000000000000000000000000000000 PUSH1 0x0 DUP4 ADD MSTORE PUSH1 0x20 DUP3 ADD SWAP1 POP SWAP2 SWAP1 POP JUMP JUMPDEST PUSH1 0x0 PUSH2 0x40F9 PUSH1 0x3 DUP4 PUSH2 0x45FD JUMP JUMPDEST SWAP2 POP PUSH32 0x5965730000000000000000000000000000000000000000000000000000000000 PUSH1 0x0 DUP4 ADD MSTORE PUSH1 0x3 DUP3 ADD SWAP1 POP SWAP2 SWAP1 POP JUMP JUMPDEST PUSH1 0x0 PUSH2 0x4139 PUSH1 0xB DUP4 PUSH2 0x45EC JUMP JUMPDEST SWAP2 POP PUSH32 0x6365727469666963617465000000000000000000000000000000000000000000 PUSH1 0x0 DUP4 ADD MSTORE PUSH1 0x20 DUP3 ADD SWAP1 POP SWAP2 SWAP1 POP JUMP JUMPDEST PUSH1 0x0 PUSH2 0x4179 PUSH1 0x2F DUP4 PUSH2 0x45EC JUMP JUMPDEST SWAP2 POP PUSH32 0x5065726D697373696F6E2068617320616C7265616479206265656E204772616E PUSH1 0x0 DUP4 ADD MSTORE PUSH32 0x74656420746F2061646472657373200000000000000000000000000000000000 PUSH1 0x20 DUP4 ADD MSTORE PUSH1 0x40 DUP3 ADD SWAP1 POP SWAP2 SWAP1 POP JUMP JUMPDEST PUSH1 0x0 PUSH2 0x41DF PUSH1 0x17 DUP4 PUSH2 0x45EC JUMP JUMPDEST SWAP2 POP PUSH32 0x5375636365737366756C6C792041747465737465643A20000000000000000000 PUSH1 0x0 DUP4 ADD MSTORE PUSH1 0x20 DUP3 ADD SWAP1 POP SWAP2 SWAP1 POP JUMP JUMPDEST PUSH2 0x421B DUP2 PUSH2 0x4663 JUMP JUMPDEST DUP3 MSTORE POP POP JUMP JUMPDEST PUSH1 0x0 PUSH2 0x422D DUP3 DUP5 PUSH2 0x3E9C JUMP JUMPDEST PUSH1 0x20 DUP3 ADD SWAP2 POP DUP2 SWAP1 POP SWAP3 SWAP2 POP POP JUMP JUMPDEST PUSH1 0x0 PUSH2 0x4248 DUP3 DUP5 PUSH2 0x3EFB JUMP JUMPDEST SWAP2 POP DUP2 SWAP1 POP SWAP3 SWAP2 POP POP JUMP JUMPDEST PUSH1 0x0 PUSH2 0x425E DUP3 PUSH2 0x40EC JUMP JUMPDEST SWAP2 POP DUP2 SWAP1 POP SWAP2 SWAP1 POP JUMP JUMPDEST PUSH1 0x0 PUSH1 0x20 DUP3 ADD SWAP1 POP PUSH2 0x427D PUSH1 0x0 DUP4 ADD DUP5 PUSH2 0x3E6F JUMP JUMPDEST SWAP3 SWAP2 POP POP JUMP JUMPDEST PUSH1 0x0 PUSH1 0x20 DUP3 ADD SWAP1 POP PUSH2 0x4298 PUSH1 0x0 DUP4 ADD DUP5 PUSH2 0x3E60 JUMP JUMPDEST SWAP3 SWAP2 POP POP JUMP JUMPDEST PUSH1 0x0 PUSH1 0x80 DUP3 ADD SWAP1 POP PUSH2 0x42B3 PUSH1 0x0 DUP4 ADD DUP8 PUSH2 0x3E6F JUMP JUMPDEST PUSH2 0x42C0 PUSH1 0x20 DUP4 ADD DUP7 PUSH2 0x3E8D JUMP JUMPDEST PUSH2 0x42CD PUSH1 0x40 DUP4 ADD DUP6 PUSH2 0x4212 JUMP JUMPDEST DUP2 DUP2 SUB PUSH1 0x60 DUP4 ADD MSTORE PUSH2 0x42DF DUP2 DUP5 PUSH2 0x3EC2 JUMP JUMPDEST SWAP1 POP SWAP6 SWAP5 POP POP POP POP POP JUMP JUMPDEST PUSH1 0x0 PUSH1 0x60 DUP3 ADD SWAP1 POP PUSH2 0x42FF PUSH1 0x0 DUP4 ADD DUP5 PUSH2 0x3E6F JUMP JUMPDEST DUP2 DUP2 SUB PUSH1 0x20 DUP4 ADD MSTORE PUSH2 0x4310 DUP2 PUSH2 0x3F2C JUMP JUMPDEST SWAP1 POP DUP2 DUP2 SUB PUSH1 0x40 DUP4 ADD MSTORE PUSH2 0x4323 DUP2 PUSH2 0x40AC JUMP JUMPDEST SWAP1 POP SWAP3 SWAP2 POP POP JUMP JUMPDEST PUSH1 0x0 PUSH1 0x60 DUP3 ADD SWAP1 POP PUSH2 0x4340 PUSH1 0x0 DUP4 ADD DUP5 PUSH2 0x3E6F JUMP JUMPDEST DUP2 DUP2 SUB PUSH1 0x20 DUP4 ADD MSTORE PUSH2 0x4351 DUP2 PUSH2 0x3FEC JUMP JUMPDEST SWAP1 POP DUP2 DUP2 SUB PUSH1 0x40 DUP4 ADD MSTORE PUSH2 0x4364 DUP2 PUSH2 0x406C JUMP JUMPDEST SWAP1 POP SWAP3 SWAP2 POP POP JUMP JUMPDEST PUSH1 0x0 PUSH1 0x60 DUP3 ADD SWAP1 POP PUSH2 0x4381 PUSH1 0x0 DUP4 ADD DUP5 PUSH2 0x3E6F JUMP JUMPDEST DUP2 DUP2 SUB PUSH1 0x20 DUP4 ADD MSTORE PUSH2 0x4392 DUP2 PUSH2 0x412C JUMP JUMPDEST SWAP1 POP DUP2 DUP2 SUB PUSH1 0x40 DUP4 ADD MSTORE PUSH2 0x43A5 DUP2 PUSH2 0x402C JUMP JUMPDEST SWAP1 POP SWAP3 SWAP2 POP POP JUMP JUMPDEST PUSH1 0x0 PUSH1 0xA0 DUP3 ADD SWAP1 POP PUSH2 0x43C2 PUSH1 0x0 DUP4 ADD DUP9 PUSH2 0x3EB3 JUMP JUMPDEST PUSH2 0x43CF PUSH1 0x20 DUP4 ADD DUP8 PUSH2 0x3E6F JUMP JUMPDEST PUSH2 0x43DC PUSH1 0x40 DUP4 ADD DUP7 PUSH2 0x4212 JUMP JUMPDEST PUSH2 0x43E9 PUSH1 0x60 DUP4 ADD DUP6 PUSH2 0x3E8D JUMP JUMPDEST PUSH2 0x43F6 PUSH1 0x80 DUP4 ADD DUP5 PUSH2 0x3E7E JUMP JUMPDEST SWAP7 SWAP6 POP POP POP POP POP POP JUMP JUMPDEST PUSH1 0x0 PUSH1 0x20 DUP3 ADD SWAP1 POP DUP2 DUP2 SUB PUSH1 0x0 DUP4 ADD MSTORE PUSH2 0x441A DUP2 DUP5 PUSH2 0x3EC2 JUMP JUMPDEST SWAP1 POP SWAP3 SWAP2 POP POP JUMP JUMPDEST PUSH1 0x0 PUSH2 0x100 DUP3 ADD SWAP1 POP DUP2 DUP2 SUB PUSH1 0x0 DUP4 ADD MSTORE PUSH2 0x443D DUP2 DUP12 PUSH2 0x3EC2 JUMP JUMPDEST SWAP1 POP PUSH2 0x444C PUSH1 0x20 DUP4 ADD DUP11 PUSH2 0x3E6F JUMP JUMPDEST DUP2 DUP2 SUB PUSH1 0x40 DUP4 ADD MSTORE PUSH2 0x445E DUP2 DUP10 PUSH2 0x3EC2 JUMP JUMPDEST SWAP1 POP PUSH2 0x446D PUSH1 0x60 DUP4 ADD DUP9 PUSH2 0x3E6F JUMP JUMPDEST DUP2 DUP2 SUB PUSH1 0x80 DUP4 ADD MSTORE PUSH2 0x447F DUP2 DUP8 PUSH2 0x3EC2 JUMP JUMPDEST SWAP1 POP PUSH2 0x448E PUSH1 0xA0 DUP4 ADD DUP7 PUSH2 0x3E8D JUMP JUMPDEST PUSH2 0x449B PUSH1 0xC0 DUP4 ADD DUP6 PUSH2 0x4212 JUMP JUMPDEST PUSH2 0x44A8 PUSH1 0xE0 DUP4 ADD DUP5 PUSH2 0x4212 JUMP JUMPDEST SWAP10 SWAP9 POP POP POP POP POP POP POP POP POP JUMP JUMPDEST PUSH1 0x0 PUSH1 0x40 DUP3 ADD SWAP1 POP DUP2 DUP2 SUB PUSH1 0x0 DUP4 ADD MSTORE PUSH2 0x44CE DUP2 PUSH2 0x3F6C JUMP JUMPDEST SWAP1 POP PUSH2 0x44DD PUSH1 0x20 DUP4 ADD DUP5 PUSH2 0x3E6F JUMP JUMPDEST SWAP3 SWAP2 POP POP JUMP JUMPDEST PUSH1 0x0 PUSH1 0x40 DUP3 ADD SWAP1 POP DUP2 DUP2 SUB PUSH1 0x0 DUP4 ADD MSTORE PUSH2 0x44FC DUP2 PUSH2 0x3FAC JUMP JUMPDEST SWAP1 POP PUSH2 0x450B PUSH1 0x20 DUP4 ADD DUP5 PUSH2 0x3E6F JUMP JUMPDEST SWAP3 SWAP2 POP POP JUMP JUMPDEST PUSH1 0x0 PUSH1 0x40 DUP3 ADD SWAP1 POP DUP2 DUP2 SUB PUSH1 0x0 DUP4 ADD MSTORE PUSH2 0x452A DUP2 PUSH2 0x416C JUMP JUMPDEST SWAP1 POP PUSH2 0x4539 PUSH1 0x20 DUP4 ADD DUP5 PUSH2 0x3E6F JUMP JUMPDEST SWAP3 SWAP2 POP POP JUMP JUMPDEST PUSH1 0x0 PUSH1 0x40 DUP3 ADD SWAP1 POP DUP2 DUP2 SUB PUSH1 0x0 DUP4 ADD MSTORE PUSH2 0x4558 DUP2 PUSH2 0x41D2 JUMP JUMPDEST SWAP1 POP PUSH2 0x4567 PUSH1 0x20 DUP4 ADD DUP5 PUSH2 0x3E6F JUMP JUMPDEST SWAP3 SWAP2 POP POP JUMP JUMPDEST PUSH1 0x0 PUSH1 0x20 DUP3 ADD SWAP1 POP PUSH2 0x4582 PUSH1 0x0 DUP4 ADD DUP5 PUSH2 0x4212 JUMP JUMPDEST SWAP3 SWAP2 POP POP JUMP JUMPDEST PUSH1 0x0 PUSH1 0x40 MLOAD SWAP1 POP DUP2 DUP2 ADD DUP2 DUP2 LT PUSH8 0xFFFFFFFFFFFFFFFF DUP3 GT OR ISZERO PUSH2 0x45AB JUMPI PUSH1 0x0 DUP1 REVERT JUMPDEST DUP1 PUSH1 0x40 MSTORE POP SWAP2 SWAP1 POP JUMP JUMPDEST PUSH1 0x0 PUSH8 0xFFFFFFFFFFFFFFFF DUP3 GT ISZERO PUSH2 0x45CC JUMPI PUSH1 0x0 DUP1 REVERT JUMPDEST PUSH1 0x1F NOT PUSH1 0x1F DUP4 ADD AND SWAP1 POP PUSH1 0x20 DUP2 ADD SWAP1 POP SWAP2 SWAP1 POP JUMP JUMPDEST PUSH1 0x0 DUP2 MLOAD SWAP1 POP SWAP2 SWAP1 POP JUMP JUMPDEST PUSH1 0x0 DUP3 DUP3 MSTORE PUSH1 0x20 DUP3 ADD SWAP1 POP SWAP3 SWAP2 POP POP JUMP JUMPDEST PUSH1 0x0 DUP2 SWAP1 POP SWAP3 SWAP2 POP POP JUMP JUMPDEST PUSH1 0x0 PUSH2 0x4613 DUP3 PUSH2 0x4643 JUMP JUMPDEST SWAP1 POP SWAP2 SWAP1 POP JUMP JUMPDEST PUSH1 0x0 DUP2 ISZERO ISZERO SWAP1 POP SWAP2 SWAP1 POP JUMP JUMPDEST PUSH1 0x0 DUP2 SWAP1 POP SWAP2 SWAP1 POP JUMP JUMPDEST PUSH1 0x0 DUP2 SWAP1 POP PUSH2 0x463E DUP3 PUSH2 0x4712 JUMP JUMPDEST SWAP2 SWAP1 POP JUMP JUMPDEST PUSH1 0x0 PUSH20 0xFFFFFFFFFFFFFFFFFFFFFFFFFFFFFFFFFFFFFFFF DUP3 AND SWAP1 POP SWAP2 SWAP1 POP JUMP JUMPDEST PUSH1 0x0 DUP2 SWAP1 POP SWAP2 SWAP1 POP JUMP JUMPDEST PUSH1 0x0 PUSH2 0x4678 DUP3 PUSH2 0x4691 JUMP JUMPDEST SWAP1 POP SWAP2 SWAP1 POP JUMP JUMPDEST PUSH1 0x0 PUSH2 0x468A DUP3 PUSH2 0x4630 JUMP JUMPDEST SWAP1 POP SWAP2 SWAP1 POP JUMP JUMPDEST PUSH1 0x0 PUSH2 0x469C DUP3 PUSH2 0x46A3 JUMP JUMPDEST SWAP1 POP SWAP2 SWAP1 POP JUMP JUMPDEST PUSH1 0x0 PUSH2 0x46AE DUP3 PUSH2 0x4643 JUMP JUMPDEST SWAP1 POP SWAP2 SWAP1 POP JUMP JUMPDEST DUP3 DUP2 DUP4 CALLDATACOPY PUSH1 0x0 DUP4 DUP4 ADD MSTORE POP POP POP JUMP JUMPDEST PUSH1 0x0 JUMPDEST DUP4 DUP2 LT ISZERO PUSH2 0x46E2 JUMPI DUP1 DUP3 ADD MLOAD DUP2 DUP5 ADD MSTORE PUSH1 0x20 DUP2 ADD SWAP1 POP PUSH2 0x46C7 JUMP JUMPDEST DUP4 DUP2 GT ISZERO PUSH2 0x46F1 JUMPI PUSH1 0x0 DUP5 DUP5 ADD MSTORE JUMPDEST POP POP POP POP JUMP JUMPDEST PUSH1 0x0 DUP2 SWAP1 POP SWAP2 SWAP1 POP JUMP JUMPDEST PUSH1 0x0 PUSH1 0x1F NOT PUSH1 0x1F DUP4 ADD AND SWAP1 POP SWAP2 SWAP1 POP JUMP JUMPDEST PUSH1 0x6 DUP2 LT PUSH2 0x471C JUMPI INVALID JUMPDEST POP JUMP JUMPDEST PUSH2 0x4728 DUP2 PUSH2 0x4608 JUMP JUMPDEST DUP2 EQ PUSH2 0x4733 JUMPI PUSH1 0x0 DUP1 REVERT JUMPDEST POP JUMP JUMPDEST PUSH2 0x473F DUP2 PUSH2 0x461A JUMP JUMPDEST DUP2 EQ PUSH2 0x474A JUMPI PUSH1 0x0 DUP1 REVERT JUMPDEST POP JUMP JUMPDEST PUSH2 0x4756 DUP2 PUSH2 0x4626 JUMP JUMPDEST DUP2 EQ PUSH2 0x4761 JUMPI PUSH1 0x0 DUP1 REVERT JUMPDEST POP JUMP JUMPDEST PUSH2 0x476D DUP2 PUSH2 0x4663 JUMP JUMPDEST DUP2 EQ PUSH2 0x4778 JUMPI PUSH1 0x0 DUP1 REVERT JUMPDEST POP JUMP INVALID LOG2 PUSH5 0x6970667358 0x22 SLT KECCAK256 0xE0 PUSH24 0x80571442A2449C582BEF2F9B8089A53FC6CEC8C355F0DE0A SWAP10 0x29 DUP7 MOD 0xDC 0xB5 PUSH5 0x736F6C6343 STOP MOD MOD STOP CALLER "},"gasEstimates":{"creation":{"codeDepositCost":"3670600","executionCost":"45871","totalCost":"3716471"},"external":{"Attestation(bool,bytes32,string,address,uint256)":"infinite","BeforeAttestation(address,address,uint256)":"infinite","Check_Waiting_ChildContent(address,address,uint256)":"infinite","ChildContentInfo(bytes32,string,address,uint256)":"infinite","Denied_Permission_ChildContent(address,address,uint256)":"infinite","GrantedPermission(bool,address,uint256)":"infinite","Granted_Permission_ChildContent(address,address,uint256)":"infinite","JourUnderMedia(address,uint256)":"infinite","Requests(address,uint256)":"infinite","getMediasCount()":"1235","jourCert(string,address,string,address,string,string,string)":"infinite","jourLogin(address,address)":"infinite","jourNews(address,address,uint256)":"infinite","mediaCert(string,address,string,address,string,string)":"infinite","mediaLogin(address)":"infinite","nccEntity()":"1260","nccLogin(address)":"infinite","newsConBookeeping(string,address,string,address,string,bytes32,uint256)":"infinite","requestPermission(address,uint256)":"infinite","retrieveNewsContents(bytes32,address,address,uint256)":"infinite"}},"methodIdentifiers":{"Attestation(bool,bytes32,string,address,uint256)":"a9588eda","BeforeAttestation(address,address,uint256)":"0ab2039f","Check_Waiting_ChildContent(address,address,uint256)":"fbcf9575","ChildContentInfo(bytes32,string,address,uint256)":"b7e06216","Denied_Permission_ChildContent(address,address,uint256)":"a6b43aca","GrantedPermission(bool,address,uint256)":"681bcf09","Granted_Permission_ChildContent(address,address,uint256)":"a32f69c0","JourUnderMedia(address,uint256)":"ef536e4f","Requests(address,uint256)":"995975d8","getMediasCount()":"253245b5","jourCert(string,address,string,address,string,string,string)":"db76cb07","jourLogin(address,address)":"156836e3","jourNews(address,address,uint256)":"532a1bd2","mediaCert(string,address,string,address,string,string)":"2a4f0c98","mediaLogin(address)":"f0b2c594","nccEntity()":"108246f0","nccLogin(address)":"b30485fc","newsConBookeeping(string,address,string,address,string,bytes32,uint256)":"3101c146","requestPermission(address,uint256)":"8d449861","retrieveNewsContents(bytes32,address,address,uint256)":"86fb1ff5"}},"storageLayout":{"storage":[{"astId":779,"contract":"dNews_entity.sol:Certificate","label":"NCC","offset":0,"slot":"0","type":"t_address"},{"astId":782,"contract":"dNews_entity.sol:Certificate","label":"nccEntity","offset":0,"slot":"1","type":"t_address"},{"astId":785,"contract":"dNews_entity.sol:Certificate","label":"Medias","offset":0,"slot":"2","type":"t_array(t_struct(mediaCertificate)751_storage)dyn_storage"},{"astId":788,"contract":"dNews_entity.sol:Certificate","label":"Jours","offset":0,"slot":"3","type":"t_array(t_struct(jourCertificate)766_storage)dyn_storage"},{"astId":792,"contract":"dNews_entity.sol:Certificate","label":"isMedia","offset":0,"slot":"4","type":"t_mapping(t_address,t_bool)"},{"astId":796,"contract":"dNews_entity.sol:Certificate","label":"isJour","offset":0,"slot":"5","type":"t_mapping(t_address,t_bool)"},{"astId":803,"contract":"dNews_entity.sol:Certificate","label":"jourNews","offset":0,"slot":"6","type":"t_mapping(t_address,t_mapping(t_address,t_array(t_struct(news_content)738_storage)dyn_storage))"},{"astId":808,"contract":"dNews_entity.sol:Certificate","label":"JourUnderMedia","offset":0,"slot":"7","type":"t_mapping(t_address,t_array(t_address)dyn_storage)"},{"astId":1306,"contract":"dNews_entity.sol:Certificate","label":"Requests","offset":0,"slot":"8","type":"t_mapping(t_address,t_array(t_struct(traceOwner)777_storage)dyn_storage)"},{"astId":1313,"contract":"dNews_entity.sol:Certificate","label":"Granted_Permission_ChildContent","offset":0,"slot":"9","type":"t_mapping(t_address,t_mapping(t_address,t_array(t_struct(news_content)738_storage)dyn_storage))"},{"astId":1320,"contract":"dNews_entity.sol:Certificate","label":"Denied_Permission_ChildContent","offset":0,"slot":"10","type":"t_mapping(t_address,t_mapping(t_address,t_array(t_struct(news_content)738_storage)dyn_storage))"},{"astId":1327,"contract":"dNews_entity.sol:Certificate","label":"Check_Waiting_ChildContent","offset":0,"slot":"11","type":"t_mapping(t_address,t_mapping(t_address,t_array(t_struct(news_content)738_storage)dyn_storage))"},{"astId":1333,"contract":"dNews_entity.sol:Certificate","label":"indexlength","offset":0,"slot":"12","type":"t_mapping(t_address,t_mapping(t_uint256,t_uint256))"},{"astId":1339,"contract":"dNews_entity.sol:Certificate","label":"indexlengthcheck","offset":0,"slot":"13","type":"t_mapping(t_address,t_mapping(t_address,t_uint256))"},{"astId":1345,"contract":"dNews_entity.sol:Certificate","label":"indexlengthattest","offset":0,"slot":"14","type":"t_mapping(t_address,t_mapping(t_uint256,t_uint256))"}],"types":{"t_address":{"encoding":"inplace","label":"address","numberOfBytes":"20"},"t_array(t_address)dyn_storage":{"base":"t_address","encoding":"dynamic_array","label":"address[]","numberOfBytes":"32"},"t_array(t_struct(jourCertificate)766_storage)dyn_storage":{"base":"t_struct(jourCertificate)766_storage","encoding":"dynamic_array","label":"struct Certificate.jourCertificate[]","numberOfBytes":"32"},"t_array(t_struct(mediaCertificate)751_storage)dyn_storage":{"base":"t_struct(mediaCertificate)751_storage","encoding":"dynamic_array","label":"struct Certificate.mediaCertificate[]","numberOfBytes":"32"},"t_array(t_struct(news_content)738_storage)dyn_storage":{"base":"t_struct(news_content)738_storage","encoding":"dynamic_array","label":"struct Certificate.news_content[]","numberOfBytes":"32"},"t_array(t_struct(traceOwner)777_storage)dyn_storage":{"base":"t_struct(traceOwner)777_storage","encoding":"dynamic_array","label":"struct Certificate.traceOwner[]","numberOfBytes":"32"},"t_bool":{"encoding":"inplace","label":"bool","numberOfBytes":"1"},"t_bytes32":{"encoding":"inplace","label":"bytes32","numberOfBytes":"32"},"t_enum(ownerState)1273":{"encoding":"inplace","label":"enum Certificate.ownerState","numberOfBytes":"1"},"t_mapping(t_address,t_array(t_address)dyn_storage)":{"encoding":"mapping","key":"t_address","label":"mapping(address => address[])","numberOfBytes":"32","value":"t_array(t_address)dyn_storage"},"t_mapping(t_address,t_array(t_struct(news_content)738_storage)dyn_storage)":{"encoding":"mapping","key":"t_address","label":"mapping(address => struct Certificate.news_content[])","numberOfBytes":"32","value":"t_array(t_struct(news_content)738_storage)dyn_storage"},"t_mapping(t_address,t_array(t_struct(traceOwner)777_storage)dyn_storage)":{"encoding":"mapping","key":"t_address","label":"mapping(address => struct Certificate.traceOwner[])","numberOfBytes":"32","value":"t_array(t_struct(traceOwner)777_storage)dyn_storage"},"t_mapping(t_address,t_bool)":{"encoding":"mapping","key":"t_address","label":"mapping(address => bool)","numberOfBytes":"32","value":"t_bool"},"t_mapping(t_address,t_mapping(t_address,t_array(t_struct(news_content)738_storage)dyn_storage))":{"encoding":"mapping","key":"t_address","label":"mapping(address => mapping(address => struct Certificate.news_content[]))","numberOfBytes":"32","value":"t_mapping(t_address,t_array(t_struct(news_content)738_storage)dyn_storage)"},"t_mapping(t_address,t_mapping(t_address,t_uint256))":{"encoding":"mapping","key":"t_address","label":"mapping(address => mapping(address => uint256))","numberOfBytes":"32","value":"t_mapping(t_address,t_uint256)"},"t_mapping(t_address,t_mapping(t_uint256,t_uint256))":{"encoding":"mapping","key":"t_address","label":"mapping(address => mapping(uint256 => uint256))","numberOfBytes":"32","value":"t_mapping(t_uint256,t_uint256)"},"t_mapping(t_address,t_uint256)":{"encoding":"mapping","key":"t_address","label":"mapping(address => uint256)","numberOfBytes":"32","value":"t_uint256"},"t_mapping(t_uint256,t_uint256)":{"encoding":"mapping","key":"t_uint256","label":"mapping(uint256 => uint256)","numberOfBytes":"32","value":"t_uint256"},"t_string_storage":{"encoding":"bytes","label":"string","numberOfBytes":"32"},"t_struct(jourCertificate)766_storage":{"encoding":"inplace","label":"struct Certificate.jourCertificate","members":[{"astId":753,"contract":"dNews_entity.sol:Certificate","label":"journame","offset":0,"slot":"0","type":"t_string_storage"},{"astId":755,"contract":"dNews_entity.sol:Certificate","label":"jourAddr","offset":0,"slot":"1","type":"t_address"},{"astId":757,"contract":"dNews_entity.sol:Certificate","label":"medianame","offset":0,"slot":"2","type":"t_string_storage"},{"astId":759,"contract":"dNews_entity.sol:Certificate","label":"mediaAddr","offset":0,"slot":"3","type":"t_address"},{"astId":761,"contract":"dNews_entity.sol:Certificate","label":"department","offset":0,"slot":"4","type":"t_string_storage"},{"astId":763,"contract":"dNews_entity.sol:Certificate","label":"jourtimeperiod","offset":0,"slot":"5","type":"t_string_storage"},{"astId":765,"contract":"dNews_entity.sol:Certificate","label":"jourcerHash","offset":0,"slot":"6","type":"t_string_storage"}],"numberOfBytes":"224"},"t_struct(mediaCertificate)751_storage":{"encoding":"inplace","label":"struct Certificate.mediaCertificate","members":[{"astId":740,"contract":"dNews_entity.sol:Certificate","label":"medianame","offset":0,"slot":"0","type":"t_string_storage"},{"astId":742,"contract":"dNews_entity.sol:Certificate","label":"mediaAddr","offset":0,"slot":"1","type":"t_address"},{"astId":744,"contract":"dNews_entity.sol:Certificate","label":"representative","offset":0,"slot":"2","type":"t_string_storage"},{"astId":746,"contract":"dNews_entity.sol:Certificate","label":"repreAddr","offset":0,"slot":"3","type":"t_address"},{"astId":748,"contract":"dNews_entity.sol:Certificate","label":"timeperiod","offset":0,"slot":"4","type":"t_string_storage"},{"astId":750,"contract":"dNews_entity.sol:Certificate","label":"mediacerHash","offset":0,"slot":"5","type":"t_string_storage"}],"numberOfBytes":"192"},"t_struct(news_content)738_storage":{"encoding":"inplace","label":"struct Certificate.news_content","members":[{"astId":723,"contract":"dNews_entity.sol:Certificate","label":"ownJour","offset":0,"slot":"0","type":"t_string_storage"},{"astId":725,"contract":"dNews_entity.sol:Certificate","label":"jourAddr","offset":0,"slot":"1","type":"t_address"},{"astId":727,"contract":"dNews_entity.sol:Certificate","label":"ownMedia","offset":0,"slot":"2","type":"t_string_storage"},{"astId":729,"contract":"dNews_entity.sol:Certificate","label":"mediaAddr","offset":0,"slot":"3","type":"t_address"},{"astId":731,"contract":"dNews_entity.sol:Certificate","label":"metadata","offset":0,"slot":"4","type":"t_string_storage"},{"astId":733,"contract":"dNews_entity.sol:Certificate","label":"IPFS_Hash","offset":0,"slot":"5","type":"t_bytes32"},{"astId":735,"contract":"dNews_entity.sol:Certificate","label":"timestamp","offset":0,"slot":"6","type":"t_uint256"},{"astId":737,"contract":"dNews_entity.sol:Certificate","label":"index","offset":0,"slot":"7","type":"t_uint256"}],"numberOfBytes":"256"},"t_struct(traceOwner)777_storage":{"encoding":"inplace","label":"struct Certificate.traceOwner","members":[{"astId":768,"contract":"dNews_entity.sol:Certificate","label":"state","offset":0,"slot":"0","type":"t_enum(ownerState)1273"},{"astId":770,"contract":"dNews_entity.sol:Certificate","label":"EA","offset":1,"slot":"0","type":"t_address"},{"astId":772,"contract":"dNews_entity.sol:Certificate","label":"OwnedContent","offset":0,"slot":"1","type":"t_uint256"},{"astId":774,"contract":"dNews_entity.sol:Certificate","label":"IPFS_Hash","offset":0,"slot":"2","type":"t_bytes32"},{"astId":776,"contract":"dNews_entity.sol:Certificate","label":"result","offset":0,"slot":"3","type":"t_bool"}],"numberOfBytes":"128"},"t_uint256":{"encoding":"inplace","label":"uint256","numberOfBytes":"32"}}},"userdoc":{"methods":{}}}