{"abi":[{"inputs":[],"stateMutability":"nonpayable","type":"constructor"},{"anonymous":false,"inputs":[{"indexed":false,"internalType":"address","name":"artist","type":"address"}],"name":"ArtistRequestingPermission","type":"event"},{"anonymous":false,"inputs":[{"indexed":false,"internalType":"string","name":"info","type":"string"},{"indexed":false,"internalType":"address","name":"CHaddress","type":"address"}],"name":"AttestationDenied","type":"event"},{"anonymous":false,"inputs":[{"indexed":false,"internalType":"string","name":"info","type":"string"},{"indexed":false,"internalType":"address","name":"CHaddress","type":"address"}],"name":"AttestationGranted","type":"event"},{"anonymous":false,"inputs":[{"indexed":false,"internalType":"string","name":"info","type":"string"},{"indexed":false,"internalType":"address","name":"artist","type":"address"}],"name":"PermissionDenied","type":"event"},{"anonymous":false,"inputs":[{"indexed":false,"internalType":"string","name":"info","type":"string"},{"indexed":false,"internalType":"address","name":"artist","type":"address"}],"name":"PermissionGranted","type":"event"},{"inputs":[{"internalType":"bool","name":"result","type":"bool"},{"internalType":"bytes32","name":"hash","type":"bytes32"},{"internalType":"string","name":"meta","type":"string"},{"internalType":"address","name":"editor","type":"address"},{"internalType":"uint256","name":"index","type":"uint256"}],"name":"Attestation","outputs":[],"stateMutability":"nonpayable","type":"function"},{"inputs":[{"internalType":"address","name":"owner","type":"address"},{"internalType":"address","name":"editor","type":"address"},{"internalType":"uint256","name":"checkIndex","type":"uint256"}],"name":"BeforeAttestation","outputs":[{"internalType":"address","name":"","type":"address"},{"internalType":"bytes32","name":"","type":"bytes32"},{"internalType":"uint256","name":"","type":"uint256"},{"internalType":"string","name":"","type":"string"}],"stateMutability":"view","type":"function"},{"inputs":[{"internalType":"address","name":"","type":"address"},{"internalType":"address","name":"","type":"address"},{"internalType":"uint256","name":"","type":"uint256"}],"name":"Check_Waiting_ChildContent","outputs":[{"internalType":"string","name":"ownJour","type":"string"},{"internalType":"address","name":"jourAddr","type":"address"},{"internalType":"string","name":"ownMedia","type":"string"},{"internalType":"address","name":"mediaAddr","type":"address"},{"internalType":"string","name":"metadata","type":"string"},{"internalType":"bytes32","name":"IPFS_Hash","type":"bytes32"},{"internalType":"uint256","name":"timestamp","type":"uint256"},{"internalType":"uint256","name":"index","type":"uint256"}],"stateMutability":"view","type":"function"},{"inputs":[{"internalType":"bytes32","name":"IPFShash","type":"bytes32"},{"internalType":"string","name":"metadata","type":"string"},{"internalType":"address","name":"owner","type":"address"},{"internalType":"uint256","name":"referIndex","type":"uint256"}],"name":"ChildContentInfo","outputs":[],"stateMutability":"nonpayable","type":"function"},{"inputs":[{"internalType":"address","name":"","type":"address"},{"internalType":"address","name":"","type":"address"},{"internalType":"uint256","name":"","type":"uint256"}],"name":"Denied_Permission_ChildContent","outputs":[{"internalType":"string","name":"ownJour","type":"string"},{"internalType":"address","name":"jourAddr","type":"address"},{"internalType":"string","name":"ownMedia","type":"string"},{"internalType":"address","name":"mediaAddr","type":"address"},{"internalType":"string","name":"metadata","type":"string"},{"internalType":"bytes32","name":"IPFS_Hash","type":"bytes32"},{"internalType":"uint256","name":"timestamp","type":"uint256"},{"internalType":"uint256","name":"index","type":"uint256"}],"stateMutability":"view","type":"function"},{"inputs":[{"internalType":"bool","name":"result","type":"bool"},{"internalType":"address","name":"editor","type":"address"},{"internalType":"uint256","name":"index","type":"uint256"}],"name":"GrantedPermission","outputs":[],"stateMutability":"nonpayable","type":"function"},{"inputs":[{"internalType":"address","name":"","type":"address"},{"internalType":"address","name":"","type":"address"},{"internalType":"uint256","name":"","type":"uint256"}],"name":"Granted_Permission_ChildContent","outputs":[{"internalType":"string","name":"ownJour","type":"string"},{"internalType":"address","name":"jourAddr","type":"address"},{"internalType":"string","name":"ownMedia","type":"string"},{"internalType":"address","name":"mediaAddr","type":"address"},{"internalType":"string","name":"metadata","type":"string"},{"internalType":"bytes32","name":"IPFS_Hash","type":"bytes32"},{"internalType":"uint256","name":"timestamp","type":"uint256"},{"internalType":"uint256","name":"index","type":"uint256"}],"stateMutability":"view","type":"function"},{"inputs":[{"internalType":"address","name":"","type":"address"},{"internalType":"uint256","name":"","type":"uint256"}],"name":"JourUnderMedia","outputs":[{"internalType":"address","name":"","type":"address"}],"stateMutability":"view","type":"function"},{"inputs":[{"internalType":"uint256","name":"","type":"uint256"}],"name":"Jours","outputs":[{"internalType":"string","name":"journame","type":"string"},{"internalType":"address","name":"jourAddr","type":"address"},{"internalType":"string","name":"medianame","type":"string"},{"internalType":"address","name":"mediaAddr","type":"address"},{"internalType":"string","name":"department","type":"string"},{"internalType":"string","name":"jourtimeperiod","type":"string"},{"internalType":"string","name":"jourcerHash","type":"string"}],"stateMutability":"view","type":"function"},{"inputs":[{"internalType":"uint256","name":"","type":"uint256"}],"name":"Medias","outputs":[{"internalType":"string","name":"medianame","type":"string"},{"internalType":"address","name":"mediaAddr","type":"address"},{"internalType":"string","name":"representative","type":"string"},{"internalType":"address","name":"repreAddr","type":"address"},{"internalType":"string","name":"timeperiod","type":"string"},{"internalType":"string","name":"mediacerHash","type":"string"}],"stateMutability":"view","type":"function"},{"inputs":[{"internalType":"address","name":"","type":"address"},{"internalType":"uint256","name":"","type":"uint256"}],"name":"Requests","outputs":[{"internalType":"enum Certificate.ownerState","name":"state","type":"uint8"},{"internalType":"address","name":"EA","type":"address"},{"internalType":"uint256","name":"OwnedContent","type":"uint256"},{"internalType":"bytes32","name":"IPFS_Hash","type":"bytes32"},{"internalType":"bool","name":"result","type":"bool"}],"stateMutability":"view","type":"function"},{"inputs":[],"name":"getMediasCount","outputs":[{"internalType":"uint256","name":"","type":"uint256"}],"stateMutability":"view","type":"function"},{"inputs":[{"internalType":"address","name":"","type":"address"},{"internalType":"uint256","name":"","type":"uint256"}],"name":"indexlength","outputs":[{"internalType":"uint256","name":"","type":"uint256"}],"stateMutability":"view","type":"function"},{"inputs":[{"internalType":"address","name":"","type":"address"},{"internalType":"uint256","name":"","type":"uint256"}],"name":"indexlengthattest","outputs":[{"internalType":"uint256","name":"","type":"uint256"}],"stateMutability":"view","type":"function"},{"inputs":[{"internalType":"address","name":"","type":"address"},{"internalType":"address","name":"","type":"address"}],"name":"indexlengthcheck","outputs":[{"internalType":"uint256","name":"","type":"uint256"}],"stateMutability":"view","type":"function"},{"inputs":[{"internalType":"string","name":"jourName","type":"string"},{"internalType":"address","name":"jourAddr","type":"address"},{"internalType":"string","name":"mediaName","type":"string"},{"internalType":"address","name":"mediaAddr","type":"address"},{"internalType":"string","name":"department","type":"string"},{"internalType":"string","name":"jourTimePeriod","type":"string"},{"internalType":"string","name":"jourcerHash","type":"string"}],"name":"jourCert","outputs":[],"stateMutability":"nonpayable","type":"function"},{"inputs":[{"internalType":"address","name":"jourAddr","type":"address"},{"internalType":"address","name":"mediaEntity","type":"address"}],"name":"jourLogin","outputs":[],"stateMutability":"view","type":"function"},{"inputs":[{"internalType":"address","name":"","type":"address"},{"internalType":"address","name":"","type":"address"},{"internalType":"uint256","name":"","type":"uint256"}],"name":"jourNews","outputs":[{"internalType":"string","name":"ownJour","type":"string"},{"internalType":"address","name":"jourAddr","type":"address"},{"internalType":"string","name":"ownMedia","type":"string"},{"internalType":"address","name":"mediaAddr","type":"address"},{"internalType":"string","name":"metadata","type":"string"},{"internalType":"bytes32","name":"IPFS_Hash","type":"bytes32"},{"internalType":"uint256","name":"timestamp","type":"uint256"},{"internalType":"uint256","name":"index","type":"uint256"}],"stateMutability":"view","type":"function"},{"inputs":[{"internalType":"string","name":"mediaName","type":"string"},{"internalType":"address","name":"mediaAddr","type":"address"},{"internalType":"string","name":"repre","type":"string"},{"internalType":"address","name":"repreAddr","type":"address"},{"internalType":"string","name":"timeperiod","type":"string"},{"internalType":"string","name":"mediacerHash","type":"string"}],"name":"mediaCert","outputs":[],"stateMutability":"nonpayable","type":"function"},{"inputs":[{"internalType":"address","name":"mediaAddr","type":"address"}],"name":"mediaLogin","outputs":[],"stateMutability":"view","type":"function"},{"inputs":[],"name":"nccEntity","outputs":[{"internalType":"address","name":"","type":"address"}],"stateMutability":"view","type":"function"},{"inputs":[{"internalType":"address","name":"nccAddr","type":"address"}],"name":"nccLogin","outputs":[],"stateMutability":"view","type":"function"},{"inputs":[{"internalType":"string","name":"jourName","type":"string"},{"internalType":"address","name":"jourAddr","type":"address"},{"internalType":"string","name":"MediaName","type":"string"},{"internalType":"address","name":"mediaAddr","type":"address"},{"internalType":"string","name":"metadata","type":"string"},{"internalType":"bytes32","name":"contHash","type":"bytes32"},{"internalType":"uint256","name":"duedate","type":"uint256"}],"name":"newsConBookeeping","outputs":[],"stateMutability":"nonpayable","type":"function"},{"inputs":[{"internalType":"address","name":"owner","type":"address"},{"internalType":"uint256","name":"index","type":"uint256"}],"name":"requestPermission","outputs":[],"stateMutability":"nonpayable","type":"function"},{"inputs":[{"internalType":"bytes32","name":"news_validation_hash","type":"bytes32"},{"internalType":"address","name":"jourAddr","type":"address"},{"internalType":"address","name":"mediaAddr","type":"address"},{"internalType":"uint256","name":"index","type":"uint256"}],"name":"retrieveNewsContents","outputs":[{"internalType":"string","name":"","type":"string"}],"stateMutability":"view","type":"function"},{"inputs":[{"internalType":"address","name":"addr","type":"address"}],"name":"return_request_length","outputs":[{"internalType":"uint256","name":"","type":"uint256"}],"stateMutability":"view","type":"function"}],"devdoc":{"methods":{}},"evm":{"assembly":"    /* \"dNews_entity.sol\":187:11975  contract Certificate {\r... */\n  mstore(0x40, 0x80)\n    /* \"dNews_entity.sol\":1285:1327  0x82671b9d3ABAa76277d5b38167b09646c2c32d94 */\n  0x82671b9d3abaa76277d5b38167b09646c2c32d94\n    /* \"dNews_entity.sol\":1258:1327  address public nccEntity = 0x82671b9d3ABAa76277d5b38167b09646c2c32d94 */\n  0x01\n  exp(0x0100, 0x00)\n  dup2\n  sload\n  dup2\n  0xffffffffffffffffffffffffffffffffffffffff\n  mul\n  not\n  and\n  swap1\n  dup4\n  0xffffffffffffffffffffffffffffffffffffffff\n  and\n  mul\n  or\n  swap1\n  sstore\n  pop\n    /* \"dNews_entity.sol\":1974:2031  constructor () public {\r... */\n  callvalue\n    /* \"--CODEGEN--\":5:14   */\n  dup1\n    /* \"--CODEGEN--\":2:4   */\n  iszero\n  tag_1\n  jumpi\n    /* \"--CODEGEN--\":27:28   */\n  0x00\n    /* \"--CODEGEN--\":24:25   */\n  dup1\n    /* \"--CODEGEN--\":17:29   */\n  revert\n    /* \"--CODEGEN--\":2:4   */\ntag_1:\n    /* \"dNews_entity.sol\":1974:2031  constructor () public {\r... */\n  pop\n    /* \"dNews_entity.sol\":2013:2023  msg.sender */\n  caller\n    /* \"dNews_entity.sol\":2007:2010  NCC */\n  0x00\n  dup1\n    /* \"dNews_entity.sol\":2007:2023  NCC = msg.sender */\n  0x0100\n  exp\n  dup2\n  sload\n  dup2\n  0xffffffffffffffffffffffffffffffffffffffff\n  mul\n  not\n  and\n  swap1\n  dup4\n  0xffffffffffffffffffffffffffffffffffffffff\n  and\n  mul\n  or\n  swap1\n  sstore\n  pop\n    /* \"dNews_entity.sol\":187:11975  contract Certificate {\r... */\n  dataSize(sub_0)\n  dup1\n  dataOffset(sub_0)\n  0x00\n  codecopy\n  0x00\n  return\nstop\n\nsub_0: assembly {\n        /* \"dNews_entity.sol\":187:11975  contract Certificate {\r... */\n      mstore(0x40, 0x80)\n      callvalue\n        /* \"--CODEGEN--\":5:14   */\n      dup1\n        /* \"--CODEGEN--\":2:4   */\n      iszero\n      tag_1\n      jumpi\n        /* \"--CODEGEN--\":27:28   */\n      0x00\n        /* \"--CODEGEN--\":24:25   */\n      dup1\n        /* \"--CODEGEN--\":17:29   */\n      revert\n        /* \"--CODEGEN--\":2:4   */\n    tag_1:\n        /* \"dNews_entity.sol\":187:11975  contract Certificate {\r... */\n      pop\n      jumpi(tag_2, lt(calldatasize, 0x04))\n      shr(0xe0, calldataload(0x00))\n      dup1\n      0x977d5084\n      gt\n      tag_29\n      jumpi\n      dup1\n      0xb7e06216\n      gt\n      tag_30\n      jumpi\n      dup1\n      0xef536e4f\n      gt\n      tag_31\n      jumpi\n      dup1\n      0xef536e4f\n      eq\n      tag_25\n      jumpi\n      dup1\n      0xf0b2c594\n      eq\n      tag_26\n      jumpi\n      dup1\n      0xf29326a4\n      eq\n      tag_27\n      jumpi\n      dup1\n      0xfbcf9575\n      eq\n      tag_28\n      jumpi\n      jump(tag_2)\n    tag_31:\n      dup1\n      0xb7e06216\n      eq\n      tag_22\n      jumpi\n      dup1\n      0xdb76cb07\n      eq\n      tag_23\n      jumpi\n      dup1\n      0xe8ad308d\n      eq\n      tag_24\n      jumpi\n      jump(tag_2)\n    tag_30:\n      dup1\n      0x977d5084\n      eq\n      tag_16\n      jumpi\n      dup1\n      0x995975d8\n      eq\n      tag_17\n      jumpi\n      dup1\n      0xa32f69c0\n      eq\n      tag_18\n      jumpi\n      dup1\n      0xa6b43aca\n      eq\n      tag_19\n      jumpi\n      dup1\n      0xa9588eda\n      eq\n      tag_20\n      jumpi\n      dup1\n      0xb30485fc\n      eq\n      tag_21\n      jumpi\n      jump(tag_2)\n    tag_29:\n      dup1\n      0x2a4f0c98\n      gt\n      tag_32\n      jumpi\n      dup1\n      0x532a1bd2\n      gt\n      tag_33\n      jumpi\n      dup1\n      0x532a1bd2\n      eq\n      tag_12\n      jumpi\n      dup1\n      0x681bcf09\n      eq\n      tag_13\n      jumpi\n      dup1\n      0x86fb1ff5\n      eq\n      tag_14\n      jumpi\n      dup1\n      0x8d449861\n      eq\n      tag_15\n      jumpi\n      jump(tag_2)\n    tag_33:\n      dup1\n      0x2a4f0c98\n      eq\n      tag_9\n      jumpi\n      dup1\n      0x3101c146\n      eq\n      tag_10\n      jumpi\n      dup1\n      0x4adfd36b\n      eq\n      tag_11\n      jumpi\n      jump(tag_2)\n    tag_32:\n      dup1\n      0x0ab2039f\n      eq\n      tag_3\n      jumpi\n      dup1\n      0x0b3cc3e6\n      eq\n      tag_4\n      jumpi\n      dup1\n      0x108246f0\n      eq\n      tag_5\n      jumpi\n      dup1\n      0x156836e3\n      eq\n      tag_6\n      jumpi\n      dup1\n      0x25222946\n      eq\n      tag_7\n      jumpi\n      dup1\n      0x253245b5\n      eq\n      tag_8\n      jumpi\n    tag_2:\n        /* \"--CODEGEN--\":12:13   */\n      0x00\n        /* \"--CODEGEN--\":9:10   */\n      dup1\n        /* \"--CODEGEN--\":2:14   */\n      revert\n        /* \"dNews_entity.sol\":10107:10591  function BeforeAttestation(address owner, address editor, uint checkIndex)public view returns(address, bytes32, uint, string memory){\r... */\n    tag_3:\n      tag_34\n      0x04\n      dup1\n      calldatasize\n      sub\n      dup2\n      add\n      swap1\n      tag_35\n      swap2\n      swap1\n      jump(tag_36)\n    tag_35:\n      tag_37\n      jump\t// in\n    tag_34:\n      mload(0x40)\n      tag_38\n      swap5\n      swap4\n      swap3\n      swap2\n      swap1\n      jump(tag_39)\n    tag_38:\n      mload(0x40)\n      dup1\n      swap2\n      sub\n      swap1\n      return\n        /* \"dNews_entity.sol\":7739:7855  function return_request_length(address addr)public view returns(uint){\r... */\n    tag_4:\n      tag_40\n      0x04\n      dup1\n      calldatasize\n      sub\n      dup2\n      add\n      swap1\n      tag_41\n      swap2\n      swap1\n      jump(tag_42)\n    tag_41:\n      tag_43\n      jump\t// in\n    tag_40:\n      mload(0x40)\n      tag_44\n      swap2\n      swap1\n      jump(tag_45)\n    tag_44:\n      mload(0x40)\n      dup1\n      swap2\n      sub\n      swap1\n      return\n        /* \"dNews_entity.sol\":1258:1327  address public nccEntity = 0x82671b9d3ABAa76277d5b38167b09646c2c32d94 */\n    tag_5:\n      tag_46\n      tag_47\n      jump\t// in\n    tag_46:\n      mload(0x40)\n      tag_48\n      swap2\n      swap1\n      jump(tag_49)\n    tag_48:\n      mload(0x40)\n      dup1\n      swap2\n      sub\n      swap1\n      return\n        /* \"dNews_entity.sol\":2785:3141  function jourLogin(address jourAddr, address mediaEntity) public view {\r... */\n    tag_6:\n      tag_50\n      0x04\n      dup1\n      calldatasize\n      sub\n      dup2\n      add\n      swap1\n      tag_51\n      swap2\n      swap1\n      jump(tag_52)\n    tag_51:\n      tag_53\n      jump\t// in\n    tag_50:\n      stop\n        /* \"dNews_entity.sol\":1407:1439  mediaCertificate[] public Medias */\n    tag_7:\n      tag_54\n      0x04\n      dup1\n      calldatasize\n      sub\n      dup2\n      add\n      swap1\n      tag_55\n      swap2\n      swap1\n      jump(tag_56)\n    tag_55:\n      tag_57\n      jump\t// in\n    tag_54:\n      mload(0x40)\n      tag_58\n      swap7\n      swap6\n      swap5\n      swap4\n      swap3\n      swap2\n      swap1\n      jump(tag_59)\n    tag_58:\n      mload(0x40)\n      dup1\n      swap2\n      sub\n      swap1\n      return\n        /* \"dNews_entity.sol\":5663:5758  function getMediasCount() public view returns (uint256) {\r... */\n    tag_8:\n      tag_60\n      tag_61\n      jump\t// in\n    tag_60:\n      mload(0x40)\n      tag_62\n      swap2\n      swap1\n      jump(tag_45)\n    tag_62:\n      mload(0x40)\n      dup1\n      swap2\n      sub\n      swap1\n      return\n        /* \"dNews_entity.sol\":3231:3904  function mediaCert (string memory mediaName, address mediaAddr, string memory repre, address repreAddr, string memory timeperiod, string memory mediacerHash) public MediaCert_give{ // add qualify media to the list\r... */\n    tag_9:\n      tag_63\n      0x04\n      dup1\n      calldatasize\n      sub\n      dup2\n      add\n      swap1\n      tag_64\n      swap2\n      swap1\n      jump(tag_65)\n    tag_64:\n      tag_66\n      jump\t// in\n    tag_63:\n      stop\n        /* \"dNews_entity.sol\":4830:5650  function newsConBookeeping (string memory jourName, address jourAddr, string memory MediaName, address mediaAddr, string memory metadata, bytes32 contHash, uint duedate) public {\r... */\n    tag_10:\n      tag_67\n      0x04\n      dup1\n      calldatasize\n      sub\n      dup2\n      add\n      swap1\n      tag_68\n      swap2\n      swap1\n      jump(tag_69)\n    tag_68:\n      tag_70\n      jump\t// in\n    tag_67:\n      stop\n        /* \"dNews_entity.sol\":7471:7529  mapping(address=>mapping(uint => uint)) public indexlength */\n    tag_11:\n      tag_71\n      0x04\n      dup1\n      calldatasize\n      sub\n      dup2\n      add\n      swap1\n      tag_72\n      swap2\n      swap1\n      jump(tag_73)\n    tag_72:\n      tag_74\n      jump\t// in\n    tag_71:\n      mload(0x40)\n      tag_75\n      swap2\n      swap1\n      jump(tag_45)\n    tag_75:\n      mload(0x40)\n      dup1\n      swap2\n      sub\n      swap1\n      return\n        /* \"dNews_entity.sol\":1678:1748  mapping(address => mapping(address => news_content[])) public jourNews */\n    tag_12:\n      tag_76\n      0x04\n      dup1\n      calldatasize\n      sub\n      dup2\n      add\n      swap1\n      tag_77\n      swap2\n      swap1\n      jump(tag_36)\n    tag_77:\n      tag_78\n      jump\t// in\n    tag_76:\n      mload(0x40)\n      tag_79\n      swap9\n      swap8\n      swap7\n      swap6\n      swap5\n      swap4\n      swap3\n      swap2\n      swap1\n      jump(tag_80)\n    tag_79:\n      mload(0x40)\n      dup1\n      swap2\n      sub\n      swap1\n      return\n        /* \"dNews_entity.sol\":8419:9188  function GrantedPermission(bool result, address editor, uint index) public {\r... */\n    tag_13:\n      tag_81\n      0x04\n      dup1\n      calldatasize\n      sub\n      dup2\n      add\n      swap1\n      tag_82\n      swap2\n      swap1\n      jump(tag_83)\n    tag_82:\n      tag_84\n      jump\t// in\n    tag_81:\n      stop\n        /* \"dNews_entity.sol\":6191:6551  function retrieveNewsContents(bytes32 news_validation_hash, address jourAddr, address mediaAddr, uint index) public view returns (string memory) {\r... */\n    tag_14:\n      tag_85\n      0x04\n      dup1\n      calldatasize\n      sub\n      dup2\n      add\n      swap1\n      tag_86\n      swap2\n      swap1\n      jump(tag_87)\n    tag_86:\n      tag_88\n      jump\t// in\n    tag_85:\n      mload(0x40)\n      tag_89\n      swap2\n      swap1\n      jump(tag_90)\n    tag_89:\n      mload(0x40)\n      dup1\n      swap2\n      sub\n      swap1\n      return\n        /* \"dNews_entity.sol\":7926:8393  function requestPermission(address owner, uint index)public {\r... */\n    tag_15:\n      tag_91\n      0x04\n      dup1\n      calldatasize\n      sub\n      dup2\n      add\n      swap1\n      tag_92\n      swap2\n      swap1\n      jump(tag_73)\n    tag_92:\n      tag_93\n      jump\t// in\n    tag_91:\n      stop\n        /* \"dNews_entity.sol\":7662:7726  mapping(address=>mapping(uint => uint)) public indexlengthattest */\n    tag_16:\n      tag_94\n      0x04\n      dup1\n      calldatasize\n      sub\n      dup2\n      add\n      swap1\n      tag_95\n      swap2\n      swap1\n      jump(tag_73)\n    tag_95:\n      tag_96\n      jump\t// in\n    tag_94:\n      mload(0x40)\n      tag_97\n      swap2\n      swap1\n      jump(tag_45)\n    tag_97:\n      mload(0x40)\n      dup1\n      swap2\n      sub\n      swap1\n      return\n        /* \"dNews_entity.sol\":7029:7074  mapping(address=>traceOwner[])public Requests */\n    tag_17:\n      tag_98\n      0x04\n      dup1\n      calldatasize\n      sub\n      dup2\n      add\n      swap1\n      tag_99\n      swap2\n      swap1\n      jump(tag_73)\n    tag_99:\n      tag_100\n      jump\t// in\n    tag_98:\n      mload(0x40)\n      tag_101\n      swap6\n      swap5\n      swap4\n      swap3\n      swap2\n      swap1\n      jump(tag_102)\n    tag_101:\n      mload(0x40)\n      dup1\n      swap2\n      sub\n      swap1\n      return\n        /* \"dNews_entity.sol\":7110:7201  mapping (address =>mapping(address=>news_content[])) public Granted_Permission_ChildContent */\n    tag_18:\n      tag_103\n      0x04\n      dup1\n      calldatasize\n      sub\n      dup2\n      add\n      swap1\n      tag_104\n      swap2\n      swap1\n      jump(tag_36)\n    tag_104:\n      tag_105\n      jump\t// in\n    tag_103:\n      mload(0x40)\n      tag_106\n      swap9\n      swap8\n      swap7\n      swap6\n      swap5\n      swap4\n      swap3\n      swap2\n      swap1\n      jump(tag_80)\n    tag_106:\n      mload(0x40)\n      dup1\n      swap2\n      sub\n      swap1\n      return\n        /* \"dNews_entity.sol\":7281:7371  mapping (address =>mapping(address=>news_content[])) public Denied_Permission_ChildContent */\n    tag_19:\n      tag_107\n      0x04\n      dup1\n      calldatasize\n      sub\n      dup2\n      add\n      swap1\n      tag_108\n      swap2\n      swap1\n      jump(tag_36)\n    tag_108:\n      tag_109\n      jump\t// in\n    tag_107:\n      mload(0x40)\n      tag_110\n      swap9\n      swap8\n      swap7\n      swap6\n      swap5\n      swap4\n      swap3\n      swap2\n      swap1\n      jump(tag_80)\n    tag_110:\n      mload(0x40)\n      dup1\n      swap2\n      sub\n      swap1\n      return\n        /* \"dNews_entity.sol\":10617:11884  function Attestation(bool result, bytes32 hash, string memory meta, address editor, uint index) public{\r... */\n    tag_20:\n      tag_111\n      0x04\n      dup1\n      calldatasize\n      sub\n      dup2\n      add\n      swap1\n      tag_112\n      swap2\n      swap1\n      jump(tag_113)\n    tag_112:\n      tag_114\n      jump\t// in\n    tag_111:\n      stop\n        /* \"dNews_entity.sol\":2088:2383  function nccLogin(address nccAddr) public view   MediaCert_give{\r... */\n    tag_21:\n      tag_115\n      0x04\n      dup1\n      calldatasize\n      sub\n      dup2\n      add\n      swap1\n      tag_116\n      swap2\n      swap1\n      jump(tag_42)\n    tag_116:\n      tag_117\n      jump\t// in\n    tag_115:\n      stop\n        /* \"dNews_entity.sol\":9254:10032  function ChildContentInfo(bytes32 IPFShash, string memory metadata,address owner, uint referIndex)public {\r... */\n    tag_22:\n      tag_118\n      0x04\n      dup1\n      calldatasize\n      sub\n      dup2\n      add\n      swap1\n      tag_119\n      swap2\n      swap1\n      jump(tag_120)\n    tag_119:\n      tag_121\n      jump\t// in\n    tag_118:\n      stop\n        /* \"dNews_entity.sol\":3942:4799  function jourCert (string memory jourName, address jourAddr, string memory mediaName, address mediaAddr, string memory department, string memory jourTimePeriod, string memory jourcerHash) public  { // add qualify journalists to the list\r... */\n    tag_23:\n      tag_122\n      0x04\n      dup1\n      calldatasize\n      sub\n      dup2\n      add\n      swap1\n      tag_123\n      swap2\n      swap1\n      jump(tag_124)\n    tag_123:\n      tag_125\n      jump\t// in\n    tag_122:\n      stop\n        /* \"dNews_entity.sol\":1467:1497  jourCertificate[] public Jours */\n    tag_24:\n      tag_126\n      0x04\n      dup1\n      calldatasize\n      sub\n      dup2\n      add\n      swap1\n      tag_127\n      swap2\n      swap1\n      jump(tag_56)\n    tag_127:\n      tag_128\n      jump\t// in\n    tag_126:\n      mload(0x40)\n      tag_129\n      swap8\n      swap7\n      swap6\n      swap5\n      swap4\n      swap3\n      swap2\n      swap1\n      jump(tag_130)\n    tag_129:\n      mload(0x40)\n      dup1\n      swap2\n      sub\n      swap1\n      return\n        /* \"dNews_entity.sol\":1804:1855  mapping(address => address[]) public JourUnderMedia */\n    tag_25:\n      tag_131\n      0x04\n      dup1\n      calldatasize\n      sub\n      dup2\n      add\n      swap1\n      tag_132\n      swap2\n      swap1\n      jump(tag_73)\n    tag_132:\n      tag_133\n      jump\t// in\n    tag_131:\n      mload(0x40)\n      tag_134\n      swap2\n      swap1\n      jump(tag_49)\n    tag_134:\n      mload(0x40)\n      dup1\n      swap2\n      sub\n      swap1\n      return\n        /* \"dNews_entity.sol\":2408:2750  function mediaLogin(address mediaAddr) public view{\r... */\n    tag_26:\n      tag_135\n      0x04\n      dup1\n      calldatasize\n      sub\n      dup2\n      add\n      swap1\n      tag_136\n      swap2\n      swap1\n      jump(tag_42)\n    tag_136:\n      tag_137\n      jump\t// in\n    tag_135:\n      stop\n        /* \"dNews_entity.sol\":7591:7655  mapping(address=>mapping(address=>uint)) public indexlengthcheck */\n    tag_27:\n      tag_138\n      0x04\n      dup1\n      calldatasize\n      sub\n      dup2\n      add\n      swap1\n      tag_139\n      swap2\n      swap1\n      jump(tag_52)\n    tag_139:\n      tag_140\n      jump\t// in\n    tag_138:\n      mload(0x40)\n      tag_141\n      swap2\n      swap1\n      jump(tag_45)\n    tag_141:\n      mload(0x40)\n      dup1\n      swap2\n      sub\n      swap1\n      return\n        /* \"dNews_entity.sol\":7378:7464  mapping (address =>mapping(address=>news_content[])) public Check_Waiting_ChildContent */\n    tag_28:\n      tag_142\n      0x04\n      dup1\n      calldatasize\n      sub\n      dup2\n      add\n      swap1\n      tag_143\n      swap2\n      swap1\n      jump(tag_36)\n    tag_143:\n      tag_144\n      jump\t// in\n    tag_142:\n      mload(0x40)\n      tag_145\n      swap9\n      swap8\n      swap7\n      swap6\n      swap5\n      swap4\n      swap3\n      swap2\n      swap1\n      jump(tag_80)\n    tag_145:\n      mload(0x40)\n      dup1\n      swap2\n      sub\n      swap1\n      return\n        /* \"dNews_entity.sol\":10107:10591  function BeforeAttestation(address owner, address editor, uint checkIndex)public view returns(address, bytes32, uint, string memory){\r... */\n    tag_37:\n        /* \"dNews_entity.sol\":10201:10208  address */\n      0x00\n        /* \"dNews_entity.sol\":10210:10217  bytes32 */\n      dup1\n        /* \"dNews_entity.sol\":10219:10223  uint */\n      0x00\n        /* \"dNews_entity.sol\":10225:10238  string memory */\n      0x60\n        /* \"dNews_entity.sol\":10273:10299  Check_Waiting_ChildContent */\n      0x0b\n        /* \"dNews_entity.sol\":10273:10307  Check_Waiting_ChildContent[editor] */\n      0x00\n        /* \"dNews_entity.sol\":10300:10306  editor */\n      dup8\n        /* \"dNews_entity.sol\":10273:10307  Check_Waiting_ChildContent[editor] */\n      0xffffffffffffffffffffffffffffffffffffffff\n      and\n      0xffffffffffffffffffffffffffffffffffffffff\n      and\n      dup2\n      mstore\n      0x20\n      add\n      swap1\n      dup2\n      mstore\n      0x20\n      add\n      0x00\n      keccak256\n        /* \"dNews_entity.sol\":10273:10314  Check_Waiting_ChildContent[editor][owner] */\n      0x00\n        /* \"dNews_entity.sol\":10308:10313  owner */\n      dup9\n        /* \"dNews_entity.sol\":10273:10314  Check_Waiting_ChildContent[editor][owner] */\n      0xffffffffffffffffffffffffffffffffffffffff\n      and\n      0xffffffffffffffffffffffffffffffffffffffff\n      and\n      dup2\n      mstore\n      0x20\n      add\n      swap1\n      dup2\n      mstore\n      0x20\n      add\n      0x00\n      keccak256\n        /* \"dNews_entity.sol\":10315:10325  checkIndex */\n      dup6\n        /* \"dNews_entity.sol\":10273:10326  Check_Waiting_ChildContent[editor][owner][checkIndex] */\n      dup2\n      sload\n      dup2\n      lt\n      tag_147\n      jumpi\n      invalid\n    tag_147:\n      swap1\n      0x00\n      mstore\n      keccak256(0x00, 0x20)\n      swap1\n      0x08\n      mul\n      add\n        /* \"dNews_entity.sol\":10273:10335  Check_Waiting_ChildContent[editor][owner][checkIndex].jourAddr */\n      0x01\n      add\n      0x00\n      swap1\n      sload\n      swap1\n      0x0100\n      exp\n      swap1\n      div\n      0xffffffffffffffffffffffffffffffffffffffff\n      and\n        /* \"dNews_entity.sol\":10350:10376  Check_Waiting_ChildContent */\n      0x0b\n        /* \"dNews_entity.sol\":10350:10384  Check_Waiting_ChildContent[editor] */\n      0x00\n        /* \"dNews_entity.sol\":10377:10383  editor */\n      dup9\n        /* \"dNews_entity.sol\":10350:10384  Check_Waiting_ChildContent[editor] */\n      0xffffffffffffffffffffffffffffffffffffffff\n      and\n      0xffffffffffffffffffffffffffffffffffffffff\n      and\n      dup2\n      mstore\n      0x20\n      add\n      swap1\n      dup2\n      mstore\n      0x20\n      add\n      0x00\n      keccak256\n        /* \"dNews_entity.sol\":10350:10391  Check_Waiting_ChildContent[editor][owner] */\n      0x00\n        /* \"dNews_entity.sol\":10385:10390  owner */\n      dup10\n        /* \"dNews_entity.sol\":10350:10391  Check_Waiting_ChildContent[editor][owner] */\n      0xffffffffffffffffffffffffffffffffffffffff\n      and\n      0xffffffffffffffffffffffffffffffffffffffff\n      and\n      dup2\n      mstore\n      0x20\n      add\n      swap1\n      dup2\n      mstore\n      0x20\n      add\n      0x00\n      keccak256\n        /* \"dNews_entity.sol\":10392:10402  checkIndex */\n      dup7\n        /* \"dNews_entity.sol\":10350:10403  Check_Waiting_ChildContent[editor][owner][checkIndex] */\n      dup2\n      sload\n      dup2\n      lt\n      tag_149\n      jumpi\n      invalid\n    tag_149:\n      swap1\n      0x00\n      mstore\n      keccak256(0x00, 0x20)\n      swap1\n      0x08\n      mul\n      add\n        /* \"dNews_entity.sol\":10350:10413  Check_Waiting_ChildContent[editor][owner][checkIndex].IPFS_Hash */\n      0x05\n      add\n      sload\n        /* \"dNews_entity.sol\":10428:10454  Check_Waiting_ChildContent */\n      0x0b\n        /* \"dNews_entity.sol\":10428:10462  Check_Waiting_ChildContent[editor] */\n      0x00\n        /* \"dNews_entity.sol\":10455:10461  editor */\n      dup10\n        /* \"dNews_entity.sol\":10428:10462  Check_Waiting_ChildContent[editor] */\n      0xffffffffffffffffffffffffffffffffffffffff\n      and\n      0xffffffffffffffffffffffffffffffffffffffff\n      and\n      dup2\n      mstore\n      0x20\n      add\n      swap1\n      dup2\n      mstore\n      0x20\n      add\n      0x00\n      keccak256\n        /* \"dNews_entity.sol\":10428:10469  Check_Waiting_ChildContent[editor][owner] */\n      0x00\n        /* \"dNews_entity.sol\":10463:10468  owner */\n      dup11\n        /* \"dNews_entity.sol\":10428:10469  Check_Waiting_ChildContent[editor][owner] */\n      0xffffffffffffffffffffffffffffffffffffffff\n      and\n      0xffffffffffffffffffffffffffffffffffffffff\n      and\n      dup2\n      mstore\n      0x20\n      add\n      swap1\n      dup2\n      mstore\n      0x20\n      add\n      0x00\n      keccak256\n        /* \"dNews_entity.sol\":10470:10480  checkIndex */\n      dup8\n        /* \"dNews_entity.sol\":10428:10481  Check_Waiting_ChildContent[editor][owner][checkIndex] */\n      dup2\n      sload\n      dup2\n      lt\n      tag_151\n      jumpi\n      invalid\n    tag_151:\n      swap1\n      0x00\n      mstore\n      keccak256(0x00, 0x20)\n      swap1\n      0x08\n      mul\n      add\n        /* \"dNews_entity.sol\":10428:10491  Check_Waiting_ChildContent[editor][owner][checkIndex].timestamp */\n      0x06\n      add\n      sload\n        /* \"dNews_entity.sol\":10506:10532  Check_Waiting_ChildContent */\n      0x0b\n        /* \"dNews_entity.sol\":10506:10540  Check_Waiting_ChildContent[editor] */\n      0x00\n        /* \"dNews_entity.sol\":10533:10539  editor */\n      dup11\n        /* \"dNews_entity.sol\":10506:10540  Check_Waiting_ChildContent[editor] */\n      0xffffffffffffffffffffffffffffffffffffffff\n      and\n      0xffffffffffffffffffffffffffffffffffffffff\n      and\n      dup2\n      mstore\n      0x20\n      add\n      swap1\n      dup2\n      mstore\n      0x20\n      add\n      0x00\n      keccak256\n        /* \"dNews_entity.sol\":10506:10547  Check_Waiting_ChildContent[editor][owner] */\n      0x00\n        /* \"dNews_entity.sol\":10541:10546  owner */\n      dup12\n        /* \"dNews_entity.sol\":10506:10547  Check_Waiting_ChildContent[editor][owner] */\n      0xffffffffffffffffffffffffffffffffffffffff\n      and\n      0xffffffffffffffffffffffffffffffffffffffff\n      and\n      dup2\n      mstore\n      0x20\n      add\n      swap1\n      dup2\n      mstore\n      0x20\n      add\n      0x00\n      keccak256\n        /* \"dNews_entity.sol\":10548:10558  checkIndex */\n      dup9\n        /* \"dNews_entity.sol\":10506:10559  Check_Waiting_ChildContent[editor][owner][checkIndex] */\n      dup2\n      sload\n      dup2\n      lt\n      tag_153\n      jumpi\n      invalid\n    tag_153:\n      swap1\n      0x00\n      mstore\n      keccak256(0x00, 0x20)\n      swap1\n      0x08\n      mul\n      add\n        /* \"dNews_entity.sol\":10506:10568  Check_Waiting_ChildContent[editor][owner][checkIndex].metadata */\n      0x04\n      add\n        /* \"dNews_entity.sol\":10250:10583  return  (\r... */\n      dup1\n      dup1\n      sload\n      0x01\n      dup2\n      0x01\n      and\n      iszero\n      0x0100\n      mul\n      sub\n      and\n      0x02\n      swap1\n      div\n      dup1\n      0x1f\n      add\n      0x20\n      dup1\n      swap2\n      div\n      mul\n      0x20\n      add\n      mload(0x40)\n      swap1\n      dup2\n      add\n      0x40\n      mstore\n      dup1\n      swap3\n      swap2\n      swap1\n      dup2\n      dup2\n      mstore\n      0x20\n      add\n      dup3\n      dup1\n      sload\n      0x01\n      dup2\n      0x01\n      and\n      iszero\n      0x0100\n      mul\n      sub\n      and\n      0x02\n      swap1\n      div\n      dup1\n      iszero\n      tag_155\n      jumpi\n      dup1\n      0x1f\n      lt\n      tag_156\n      jumpi\n      0x0100\n      dup1\n      dup4\n      sload\n      div\n      mul\n      dup4\n      mstore\n      swap2\n      0x20\n      add\n      swap2\n      jump(tag_155)\n    tag_156:\n      dup3\n      add\n      swap2\n      swap1\n      0x00\n      mstore\n      keccak256(0x00, 0x20)\n      swap1\n    tag_157:\n      dup2\n      sload\n      dup2\n      mstore\n      swap1\n      0x01\n      add\n      swap1\n      0x20\n      add\n      dup1\n      dup4\n      gt\n      tag_157\n      jumpi\n      dup3\n      swap1\n      sub\n      0x1f\n      and\n      dup3\n      add\n      swap2\n    tag_155:\n      pop\n      pop\n      pop\n      pop\n      pop\n      swap1\n      pop\n      swap4\n      pop\n      swap4\n      pop\n      swap4\n      pop\n      swap4\n      pop\n        /* \"dNews_entity.sol\":10107:10591  function BeforeAttestation(address owner, address editor, uint checkIndex)public view returns(address, bytes32, uint, string memory){\r... */\n      swap4\n      pop\n      swap4\n      pop\n      swap4\n      pop\n      swap4\n      jump\t// out\n        /* \"dNews_entity.sol\":7739:7855  function return_request_length(address addr)public view returns(uint){\r... */\n    tag_43:\n        /* \"dNews_entity.sol\":7803:7807  uint */\n      0x00\n        /* \"dNews_entity.sol\":7826:7834  Requests */\n      0x08\n        /* \"dNews_entity.sol\":7826:7840  Requests[addr] */\n      0x00\n        /* \"dNews_entity.sol\":7835:7839  addr */\n      dup4\n        /* \"dNews_entity.sol\":7826:7840  Requests[addr] */\n      0xffffffffffffffffffffffffffffffffffffffff\n      and\n      0xffffffffffffffffffffffffffffffffffffffff\n      and\n      dup2\n      mstore\n      0x20\n      add\n      swap1\n      dup2\n      mstore\n      0x20\n      add\n      0x00\n      keccak256\n        /* \"dNews_entity.sol\":7826:7847  Requests[addr].length */\n      dup1\n      sload\n      swap1\n      pop\n        /* \"dNews_entity.sol\":7819:7847  return Requests[addr].length */\n      swap1\n      pop\n        /* \"dNews_entity.sol\":7739:7855  function return_request_length(address addr)public view returns(uint){\r... */\n      swap2\n      swap1\n      pop\n      jump\t// out\n        /* \"dNews_entity.sol\":1258:1327  address public nccEntity = 0x82671b9d3ABAa76277d5b38167b09646c2c32d94 */\n    tag_47:\n      0x01\n      0x00\n      swap1\n      sload\n      swap1\n      0x0100\n      exp\n      swap1\n      div\n      0xffffffffffffffffffffffffffffffffffffffff\n      and\n      dup2\n      jump\t// out\n        /* \"dNews_entity.sol\":2785:3141  function jourLogin(address jourAddr, address mediaEntity) public view {\r... */\n    tag_53:\n        /* \"dNews_entity.sol\":2894:2898  true */\n      0x01\n        /* \"dNews_entity.sol\":2874:2898  isJour[jourAddr] == true */\n      iszero\n      iszero\n        /* \"dNews_entity.sol\":2874:2880  isJour */\n      0x05\n        /* \"dNews_entity.sol\":2874:2890  isJour[jourAddr] */\n      0x00\n        /* \"dNews_entity.sol\":2881:2889  jourAddr */\n      dup5\n        /* \"dNews_entity.sol\":2874:2890  isJour[jourAddr] */\n      0xffffffffffffffffffffffffffffffffffffffff\n      and\n      0xffffffffffffffffffffffffffffffffffffffff\n      and\n      dup2\n      mstore\n      0x20\n      add\n      swap1\n      dup2\n      mstore\n      0x20\n      add\n      0x00\n      keccak256\n      0x00\n      swap1\n      sload\n      swap1\n      0x0100\n      exp\n      swap1\n      div\n      0xff\n      and\n        /* \"dNews_entity.sol\":2874:2898  isJour[jourAddr] == true */\n      iszero\n      iszero\n      eq\n        /* \"dNews_entity.sol\":2866:2899  require(isJour[jourAddr] == true) */\n      tag_160\n      jumpi\n        /* \"--CODEGEN--\":12:13   */\n      0x00\n        /* \"--CODEGEN--\":9:10   */\n      dup1\n        /* \"--CODEGEN--\":2:14   */\n      revert\n        /* \"dNews_entity.sol\":2866:2899  require(isJour[jourAddr] == true) */\n    tag_160:\n        /* \"dNews_entity.sol\":2910:2927  Entity entityJour */\n      0x00\n        /* \"dNews_entity.sol\":2937:2945  jourAddr */\n      dup3\n        /* \"dNews_entity.sol\":2910:2946  Entity entityJour = Entity(jourAddr) */\n      swap1\n      pop\n        /* \"dNews_entity.sol\":2957:2975  string memory text */\n      0x60\n        /* \"dNews_entity.sol\":2978:2988  entityJour */\n      dup2\n        /* \"dNews_entity.sol\":2978:3000  entityJour.columnValue */\n      0xffffffffffffffffffffffffffffffffffffffff\n      and\n      0x8cba76b1\n        /* \"dNews_entity.sol\":3001:3012  mediaEntity */\n      dup5\n        /* \"dNews_entity.sol\":2978:3042  entityJour.columnValue(mediaEntity, \"JourCertificate\", \"isJour\") */\n      mload(0x40)\n      dup3\n      0xffffffff\n      and\n      0xe0\n      shl\n      dup2\n      mstore\n      0x04\n      add\n      tag_161\n      swap2\n      swap1\n      jump(tag_162)\n    tag_161:\n      0x00\n      mload(0x40)\n      dup1\n      dup4\n      sub\n      dup2\n      dup7\n      dup1\n      extcodesize\n      iszero\n        /* \"--CODEGEN--\":5:14   */\n      dup1\n        /* \"--CODEGEN--\":2:4   */\n      iszero\n      tag_163\n      jumpi\n        /* \"--CODEGEN--\":27:28   */\n      0x00\n        /* \"--CODEGEN--\":24:25   */\n      dup1\n        /* \"--CODEGEN--\":17:29   */\n      revert\n        /* \"--CODEGEN--\":2:4   */\n    tag_163:\n        /* \"dNews_entity.sol\":2978:3042  entityJour.columnValue(mediaEntity, \"JourCertificate\", \"isJour\") */\n      pop\n      gas\n      staticcall\n      iszero\n        /* \"--CODEGEN--\":8:17   */\n      dup1\n        /* \"--CODEGEN--\":5:7   */\n      iszero\n      tag_165\n      jumpi\n        /* \"--CODEGEN--\":45:61   */\n      returndatasize\n        /* \"--CODEGEN--\":42:43   */\n      0x00\n        /* \"--CODEGEN--\":39:40   */\n      dup1\n        /* \"--CODEGEN--\":24:62   */\n      returndatacopy\n        /* \"--CODEGEN--\":77:93   */\n      returndatasize\n        /* \"--CODEGEN--\":74:75   */\n      0x00\n        /* \"--CODEGEN--\":67:94   */\n      revert\n        /* \"--CODEGEN--\":5:7   */\n    tag_165:\n        /* \"dNews_entity.sol\":2978:3042  entityJour.columnValue(mediaEntity, \"JourCertificate\", \"isJour\") */\n      pop\n      pop\n      pop\n      pop\n      mload(0x40)\n        /* \"--CODEGEN--\":39:55   */\n      returndatasize\n        /* \"--CODEGEN--\":36:37   */\n      0x00\n        /* \"--CODEGEN--\":17:34   */\n      dup3\n        /* \"--CODEGEN--\":2:56   */\n      returndatacopy\n        /* \"dNews_entity.sol\":2978:3042  entityJour.columnValue(mediaEntity, \"JourCertificate\", \"isJour\") */\n      returndatasize\n        /* \"--CODEGEN--\":101:105   */\n      0x1f\n        /* \"--CODEGEN--\":97:106   */\n      not\n        /* \"--CODEGEN--\":90:94   */\n      0x1f\n        /* \"--CODEGEN--\":84:88   */\n      dup3\n        /* \"--CODEGEN--\":80:95   */\n      add\n        /* \"--CODEGEN--\":76:107   */\n      and\n        /* \"--CODEGEN--\":69:74   */\n      dup3\n        /* \"--CODEGEN--\":65:108   */\n      add\n        /* \"--CODEGEN--\":126:132   */\n      dup1\n        /* \"--CODEGEN--\":120:124   */\n      0x40\n        /* \"--CODEGEN--\":113:133   */\n      mstore\n        /* \"--CODEGEN--\":0:138   */\n      pop\n        /* \"dNews_entity.sol\":2978:3042  entityJour.columnValue(mediaEntity, \"JourCertificate\", \"isJour\") */\n      dup2\n      add\n      swap1\n      tag_166\n      swap2\n      swap1\n      jump(tag_167)\n    tag_166:\n        /* \"dNews_entity.sol\":2957:3042  string memory text = entityJour.columnValue(mediaEntity, \"JourCertificate\", \"isJour\") */\n      swap1\n      pop\n        /* \"dNews_entity.sol\":3108:3131  abi.encodePacked(\"Yes\") */\n      add(0x20, mload(0x40))\n      tag_168\n      swap1\n      jump(tag_169)\n    tag_168:\n      mload(0x40)\n        /* \"--CODEGEN--\":49:53   */\n      0x20\n        /* \"--CODEGEN--\":39:46   */\n      dup2\n        /* \"--CODEGEN--\":30:37   */\n      dup4\n        /* \"--CODEGEN--\":26:47   */\n      sub\n        /* \"--CODEGEN--\":22:54   */\n      sub\n        /* \"--CODEGEN--\":13:20   */\n      dup2\n        /* \"--CODEGEN--\":6:55   */\n      mstore\n        /* \"dNews_entity.sol\":3108:3131  abi.encodePacked(\"Yes\") */\n      swap1\n      0x40\n      mstore\n        /* \"dNews_entity.sol\":3098:3132  keccak256(abi.encodePacked(\"Yes\")) */\n      dup1\n      mload\n      swap1\n      0x20\n      add\n      keccak256\n        /* \"dNews_entity.sol\":3088:3092  text */\n      dup2\n        /* \"dNews_entity.sol\":3071:3093  abi.encodePacked(text) */\n      add(0x20, mload(0x40))\n      tag_170\n      swap2\n      swap1\n      jump(tag_171)\n    tag_170:\n      mload(0x40)\n        /* \"--CODEGEN--\":49:53   */\n      0x20\n        /* \"--CODEGEN--\":39:46   */\n      dup2\n        /* \"--CODEGEN--\":30:37   */\n      dup4\n        /* \"--CODEGEN--\":26:47   */\n      sub\n        /* \"--CODEGEN--\":22:54   */\n      sub\n        /* \"--CODEGEN--\":13:20   */\n      dup2\n        /* \"--CODEGEN--\":6:55   */\n      mstore\n        /* \"dNews_entity.sol\":3071:3093  abi.encodePacked(text) */\n      swap1\n      0x40\n      mstore\n        /* \"dNews_entity.sol\":3061:3094  keccak256(abi.encodePacked(text)) */\n      dup1\n      mload\n      swap1\n      0x20\n      add\n      keccak256\n        /* \"dNews_entity.sol\":3061:3132  keccak256(abi.encodePacked(text)) == keccak256(abi.encodePacked(\"Yes\")) */\n      eq\n        /* \"dNews_entity.sol\":3053:3133  require(keccak256(abi.encodePacked(text)) == keccak256(abi.encodePacked(\"Yes\"))) */\n      tag_172\n      jumpi\n        /* \"--CODEGEN--\":12:13   */\n      0x00\n        /* \"--CODEGEN--\":9:10   */\n      dup1\n        /* \"--CODEGEN--\":2:14   */\n      revert\n        /* \"dNews_entity.sol\":3053:3133  require(keccak256(abi.encodePacked(text)) == keccak256(abi.encodePacked(\"Yes\"))) */\n    tag_172:\n        /* \"dNews_entity.sol\":2785:3141  function jourLogin(address jourAddr, address mediaEntity) public view {\r... */\n      pop\n      pop\n      pop\n      pop\n      jump\t// out\n        /* \"dNews_entity.sol\":1407:1439  mediaCertificate[] public Medias */\n    tag_57:\n      0x02\n      dup2\n      dup2\n      sload\n      dup2\n      lt\n      tag_173\n      jumpi\n      invalid\n    tag_173:\n      swap1\n      0x00\n      mstore\n      keccak256(0x00, 0x20)\n      swap1\n      0x06\n      mul\n      add\n      0x00\n      swap2\n      pop\n      swap1\n      pop\n      dup1\n      0x00\n      add\n      dup1\n      sload\n      0x01\n      dup2\n      0x01\n      and\n      iszero\n      0x0100\n      mul\n      sub\n      and\n      0x02\n      swap1\n      div\n      dup1\n      0x1f\n      add\n      0x20\n      dup1\n      swap2\n      div\n      mul\n      0x20\n      add\n      mload(0x40)\n      swap1\n      dup2\n      add\n      0x40\n      mstore\n      dup1\n      swap3\n      swap2\n      swap1\n      dup2\n      dup2\n      mstore\n      0x20\n      add\n      dup3\n      dup1\n      sload\n      0x01\n      dup2\n      0x01\n      and\n      iszero\n      0x0100\n      mul\n      sub\n      and\n      0x02\n      swap1\n      div\n      dup1\n      iszero\n      tag_175\n      jumpi\n      dup1\n      0x1f\n      lt\n      tag_176\n      jumpi\n      0x0100\n      dup1\n      dup4\n      sload\n      div\n      mul\n      dup4\n      mstore\n      swap2\n      0x20\n      add\n      swap2\n      jump(tag_175)\n    tag_176:\n      dup3\n      add\n      swap2\n      swap1\n      0x00\n      mstore\n      keccak256(0x00, 0x20)\n      swap1\n    tag_177:\n      dup2\n      sload\n      dup2\n      mstore\n      swap1\n      0x01\n      add\n      swap1\n      0x20\n      add\n      dup1\n      dup4\n      gt\n      tag_177\n      jumpi\n      dup3\n      swap1\n      sub\n      0x1f\n      and\n      dup3\n      add\n      swap2\n    tag_175:\n      pop\n      pop\n      pop\n      pop\n      pop\n      swap1\n      dup1\n      0x01\n      add\n      0x00\n      swap1\n      sload\n      swap1\n      0x0100\n      exp\n      swap1\n      div\n      0xffffffffffffffffffffffffffffffffffffffff\n      and\n      swap1\n      dup1\n      0x02\n      add\n      dup1\n      sload\n      0x01\n      dup2\n      0x01\n      and\n      iszero\n      0x0100\n      mul\n      sub\n      and\n      0x02\n      swap1\n      div\n      dup1\n      0x1f\n      add\n      0x20\n      dup1\n      swap2\n      div\n      mul\n      0x20\n      add\n      mload(0x40)\n      swap1\n      dup2\n      add\n      0x40\n      mstore\n      dup1\n      swap3\n      swap2\n      swap1\n      dup2\n      dup2\n      mstore\n      0x20\n      add\n      dup3\n      dup1\n      sload\n      0x01\n      dup2\n      0x01\n      and\n      iszero\n      0x0100\n      mul\n      sub\n      and\n      0x02\n      swap1\n      div\n      dup1\n      iszero\n      tag_178\n      jumpi\n      dup1\n      0x1f\n      lt\n      tag_179\n      jumpi\n      0x0100\n      dup1\n      dup4\n      sload\n      div\n      mul\n      dup4\n      mstore\n      swap2\n      0x20\n      add\n      swap2\n      jump(tag_178)\n    tag_179:\n      dup3\n      add\n      swap2\n      swap1\n      0x00\n      mstore\n      keccak256(0x00, 0x20)\n      swap1\n    tag_180:\n      dup2\n      sload\n      dup2\n      mstore\n      swap1\n      0x01\n      add\n      swap1\n      0x20\n      add\n      dup1\n      dup4\n      gt\n      tag_180\n      jumpi\n      dup3\n      swap1\n      sub\n      0x1f\n      and\n      dup3\n      add\n      swap2\n    tag_178:\n      pop\n      pop\n      pop\n      pop\n      pop\n      swap1\n      dup1\n      0x03\n      add\n      0x00\n      swap1\n      sload\n      swap1\n      0x0100\n      exp\n      swap1\n      div\n      0xffffffffffffffffffffffffffffffffffffffff\n      and\n      swap1\n      dup1\n      0x04\n      add\n      dup1\n      sload\n      0x01\n      dup2\n      0x01\n      and\n      iszero\n      0x0100\n      mul\n      sub\n      and\n      0x02\n      swap1\n      div\n      dup1\n      0x1f\n      add\n      0x20\n      dup1\n      swap2\n      div\n      mul\n      0x20\n      add\n      mload(0x40)\n      swap1\n      dup2\n      add\n      0x40\n      mstore\n      dup1\n      swap3\n      swap2\n      swap1\n      dup2\n      dup2\n      mstore\n      0x20\n      add\n      dup3\n      dup1\n      sload\n      0x01\n      dup2\n      0x01\n      and\n      iszero\n      0x0100\n      mul\n      sub\n      and\n      0x02\n      swap1\n      div\n      dup1\n      iszero\n      tag_181\n      jumpi\n      dup1\n      0x1f\n      lt\n      tag_182\n      jumpi\n      0x0100\n      dup1\n      dup4\n      sload\n      div\n      mul\n      dup4\n      mstore\n      swap2\n      0x20\n      add\n      swap2\n      jump(tag_181)\n    tag_182:\n      dup3\n      add\n      swap2\n      swap1\n      0x00\n      mstore\n      keccak256(0x00, 0x20)\n      swap1\n    tag_183:\n      dup2\n      sload\n      dup2\n      mstore\n      swap1\n      0x01\n      add\n      swap1\n      0x20\n      add\n      dup1\n      dup4\n      gt\n      tag_183\n      jumpi\n      dup3\n      swap1\n      sub\n      0x1f\n      and\n      dup3\n      add\n      swap2\n    tag_181:\n      pop\n      pop\n      pop\n      pop\n      pop\n      swap1\n      dup1\n      0x05\n      add\n      dup1\n      sload\n      0x01\n      dup2\n      0x01\n      and\n      iszero\n      0x0100\n      mul\n      sub\n      and\n      0x02\n      swap1\n      div\n      dup1\n      0x1f\n      add\n      0x20\n      dup1\n      swap2\n      div\n      mul\n      0x20\n      add\n      mload(0x40)\n      swap1\n      dup2\n      add\n      0x40\n      mstore\n      dup1\n      swap3\n      swap2\n      swap1\n      dup2\n      dup2\n      mstore\n      0x20\n      add\n      dup3\n      dup1\n      sload\n      0x01\n      dup2\n      0x01\n      and\n      iszero\n      0x0100\n      mul\n      sub\n      and\n      0x02\n      swap1\n      div\n      dup1\n      iszero\n      tag_184\n      jumpi\n      dup1\n      0x1f\n      lt\n      tag_185\n      jumpi\n      0x0100\n      dup1\n      dup4\n      sload\n      div\n      mul\n      dup4\n      mstore\n      swap2\n      0x20\n      add\n      swap2\n      jump(tag_184)\n    tag_185:\n      dup3\n      add\n      swap2\n      swap1\n      0x00\n      mstore\n      keccak256(0x00, 0x20)\n      swap1\n    tag_186:\n      dup2\n      sload\n      dup2\n      mstore\n      swap1\n      0x01\n      add\n      swap1\n      0x20\n      add\n      dup1\n      dup4\n      gt\n      tag_186\n      jumpi\n      dup3\n      swap1\n      sub\n      0x1f\n      and\n      dup3\n      add\n      swap2\n    tag_184:\n      pop\n      pop\n      pop\n      pop\n      pop\n      swap1\n      pop\n      dup7\n      jump\t// out\n        /* \"dNews_entity.sol\":5663:5758  function getMediasCount() public view returns (uint256) {\r... */\n    tag_61:\n        /* \"dNews_entity.sol\":5710:5717  uint256 */\n      0x00\n        /* \"dNews_entity.sol\":5737:5743  Medias */\n      0x02\n        /* \"dNews_entity.sol\":5737:5750  Medias.length */\n      dup1\n      sload\n      swap1\n      pop\n        /* \"dNews_entity.sol\":5730:5750  return Medias.length */\n      swap1\n      pop\n        /* \"dNews_entity.sol\":5663:5758  function getMediasCount() public view returns (uint256) {\r... */\n      swap1\n      jump\t// out\n        /* \"dNews_entity.sol\":3231:3904  function mediaCert (string memory mediaName, address mediaAddr, string memory repre, address repreAddr, string memory timeperiod, string memory mediacerHash) public MediaCert_give{ // add qualify media to the list\r... */\n    tag_66:\n        /* \"dNews_entity.sol\":1933:1936  NCC */\n      0x00\n      dup1\n      swap1\n      sload\n      swap1\n      0x0100\n      exp\n      swap1\n      div\n      0xffffffffffffffffffffffffffffffffffffffff\n      and\n        /* \"dNews_entity.sol\":1919:1936  msg.sender == NCC */\n      0xffffffffffffffffffffffffffffffffffffffff\n      and\n        /* \"dNews_entity.sol\":1919:1929  msg.sender */\n      caller\n        /* \"dNews_entity.sol\":1919:1936  msg.sender == NCC */\n      0xffffffffffffffffffffffffffffffffffffffff\n      and\n      eq\n        /* \"dNews_entity.sol\":1911:1937  require(msg.sender == NCC) */\n      tag_189\n      jumpi\n        /* \"--CODEGEN--\":12:13   */\n      0x00\n        /* \"--CODEGEN--\":9:10   */\n      dup1\n        /* \"--CODEGEN--\":2:14   */\n      revert\n        /* \"dNews_entity.sol\":1911:1937  require(msg.sender == NCC) */\n    tag_189:\n        /* \"dNews_entity.sol\":3454:3467  nccLogin(NCC) */\n      tag_191\n        /* \"dNews_entity.sol\":3463:3466  NCC */\n      0x00\n      dup1\n      swap1\n      sload\n      swap1\n      0x0100\n      exp\n      swap1\n      div\n      0xffffffffffffffffffffffffffffffffffffffff\n      and\n        /* \"dNews_entity.sol\":3454:3462  nccLogin */\n      tag_117\n        /* \"dNews_entity.sol\":3454:3467  nccLogin(NCC) */\n      jump\t// in\n    tag_191:\n        /* \"dNews_entity.sol\":3499:3503  true */\n      0x01\n        /* \"dNews_entity.sol\":3478:3485  isMedia */\n      0x04\n        /* \"dNews_entity.sol\":3478:3496  isMedia[mediaAddr] */\n      0x00\n        /* \"dNews_entity.sol\":3486:3495  mediaAddr */\n      dup8\n        /* \"dNews_entity.sol\":3478:3496  isMedia[mediaAddr] */\n      0xffffffffffffffffffffffffffffffffffffffff\n      and\n      0xffffffffffffffffffffffffffffffffffffffff\n      and\n      dup2\n      mstore\n      0x20\n      add\n      swap1\n      dup2\n      mstore\n      0x20\n      add\n      0x00\n      keccak256\n      0x00\n        /* \"dNews_entity.sol\":3478:3503  isMedia[mediaAddr] = true */\n      0x0100\n      exp\n      dup2\n      sload\n      dup2\n      0xff\n      mul\n      not\n      and\n      swap1\n      dup4\n      iszero\n      iszero\n      mul\n      or\n      swap1\n      sstore\n      pop\n        /* \"dNews_entity.sol\":3514:3553  mediaCertificate memory qualified_media */\n      tag_192\n      tag_193\n      jump\t// in\n    tag_192:\n        /* \"dNews_entity.sol\":3593:3602  mediaName */\n      dup7\n        /* \"dNews_entity.sol\":3564:3579  qualified_media */\n      dup2\n        /* \"dNews_entity.sol\":3564:3589  qualified_media.medianame */\n      0x00\n      add\n        /* \"dNews_entity.sol\":3564:3602  qualified_media.medianame =  mediaName */\n      dup2\n      swap1\n      mstore\n      pop\n        /* \"dNews_entity.sol\":3642:3651  mediaAddr */\n      dup6\n        /* \"dNews_entity.sol\":3613:3628  qualified_media */\n      dup2\n        /* \"dNews_entity.sol\":3613:3638  qualified_media.mediaAddr */\n      0x20\n      add\n        /* \"dNews_entity.sol\":3613:3651  qualified_media.mediaAddr =  mediaAddr */\n      swap1\n      0xffffffffffffffffffffffffffffffffffffffff\n      and\n      swap1\n      dup2\n      0xffffffffffffffffffffffffffffffffffffffff\n      and\n      dup2\n      mstore\n      pop\n      pop\n        /* \"dNews_entity.sol\":3696:3701  repre */\n      dup5\n        /* \"dNews_entity.sol\":3662:3677  qualified_media */\n      dup2\n        /* \"dNews_entity.sol\":3662:3692  qualified_media.representative */\n      0x40\n      add\n        /* \"dNews_entity.sol\":3662:3701  qualified_media.representative =  repre */\n      dup2\n      swap1\n      mstore\n      pop\n        /* \"dNews_entity.sol\":3741:3750  repreAddr */\n      dup4\n        /* \"dNews_entity.sol\":3712:3727  qualified_media */\n      dup2\n        /* \"dNews_entity.sol\":3712:3737  qualified_media.repreAddr */\n      0x60\n      add\n        /* \"dNews_entity.sol\":3712:3750  qualified_media.repreAddr =  repreAddr */\n      swap1\n      0xffffffffffffffffffffffffffffffffffffffff\n      and\n      swap1\n      dup2\n      0xffffffffffffffffffffffffffffffffffffffff\n      and\n      dup2\n      mstore\n      pop\n      pop\n        /* \"dNews_entity.sol\":3791:3801  timeperiod */\n      dup3\n        /* \"dNews_entity.sol\":3761:3776  qualified_media */\n      dup2\n        /* \"dNews_entity.sol\":3761:3787  qualified_media.timeperiod */\n      0x80\n      add\n        /* \"dNews_entity.sol\":3761:3801  qualified_media.timeperiod =  timeperiod */\n      dup2\n      swap1\n      mstore\n      pop\n        /* \"dNews_entity.sol\":3844:3856  mediacerHash */\n      dup2\n        /* \"dNews_entity.sol\":3812:3827  qualified_media */\n      dup2\n        /* \"dNews_entity.sol\":3812:3840  qualified_media.mediacerHash */\n      0xa0\n      add\n        /* \"dNews_entity.sol\":3812:3856  qualified_media.mediacerHash =  mediacerHash */\n      dup2\n      swap1\n      mstore\n      pop\n        /* \"dNews_entity.sol\":3867:3873  Medias */\n      0x02\n        /* \"dNews_entity.sol\":3879:3894  qualified_media */\n      dup2\n        /* \"dNews_entity.sol\":3867:3895  Medias.push(qualified_media) */\n      swap1\n      dup1\n        /* \"--CODEGEN--\":39:40   */\n      0x01\n        /* \"--CODEGEN--\":33:36   */\n      dup2\n        /* \"--CODEGEN--\":27:37   */\n      sload\n        /* \"--CODEGEN--\":23:41   */\n      add\n        /* \"--CODEGEN--\":57:67   */\n      dup1\n        /* \"--CODEGEN--\":52:55   */\n      dup3\n        /* \"--CODEGEN--\":45:68   */\n      sstore\n        /* \"--CODEGEN--\":79:89   */\n      dup1\n        /* \"--CODEGEN--\":72:89   */\n      swap2\n      pop\n        /* \"--CODEGEN--\":0:93   */\n      pop\n        /* \"dNews_entity.sol\":3867:3895  Medias.push(qualified_media) */\n      0x01\n      swap1\n      sub\n      swap1\n      0x00\n      mstore\n      keccak256(0x00, 0x20)\n      swap1\n      0x06\n      mul\n      add\n      0x00\n      swap1\n      swap2\n      swap1\n      swap2\n      swap1\n      swap2\n      pop\n      0x00\n      dup3\n      add\n      mload\n      dup2\n      0x00\n      add\n      swap1\n      dup1\n      mload\n      swap1\n      0x20\n      add\n      swap1\n      tag_195\n      swap3\n      swap2\n      swap1\n      tag_196\n      jump\t// in\n    tag_195:\n      pop\n      0x20\n      dup3\n      add\n      mload\n      dup2\n      0x01\n      add\n      exp(0x0100, 0x00)\n      dup2\n      sload\n      dup2\n      0xffffffffffffffffffffffffffffffffffffffff\n      mul\n      not\n      and\n      swap1\n      dup4\n      0xffffffffffffffffffffffffffffffffffffffff\n      and\n      mul\n      or\n      swap1\n      sstore\n      pop\n      0x40\n      dup3\n      add\n      mload\n      dup2\n      0x02\n      add\n      swap1\n      dup1\n      mload\n      swap1\n      0x20\n      add\n      swap1\n      tag_197\n      swap3\n      swap2\n      swap1\n      tag_196\n      jump\t// in\n    tag_197:\n      pop\n      0x60\n      dup3\n      add\n      mload\n      dup2\n      0x03\n      add\n      exp(0x0100, 0x00)\n      dup2\n      sload\n      dup2\n      0xffffffffffffffffffffffffffffffffffffffff\n      mul\n      not\n      and\n      swap1\n      dup4\n      0xffffffffffffffffffffffffffffffffffffffff\n      and\n      mul\n      or\n      swap1\n      sstore\n      pop\n      0x80\n      dup3\n      add\n      mload\n      dup2\n      0x04\n      add\n      swap1\n      dup1\n      mload\n      swap1\n      0x20\n      add\n      swap1\n      tag_198\n      swap3\n      swap2\n      swap1\n      tag_196\n      jump\t// in\n    tag_198:\n      pop\n      0xa0\n      dup3\n      add\n      mload\n      dup2\n      0x05\n      add\n      swap1\n      dup1\n      mload\n      swap1\n      0x20\n      add\n      swap1\n      tag_199\n      swap3\n      swap2\n      swap1\n      tag_196\n      jump\t// in\n    tag_199:\n      pop\n      pop\n      pop\n        /* \"dNews_entity.sol\":1944:1945  _ */\n      pop\n        /* \"dNews_entity.sol\":3231:3904  function mediaCert (string memory mediaName, address mediaAddr, string memory repre, address repreAddr, string memory timeperiod, string memory mediacerHash) public MediaCert_give{ // add qualify media to the list\r... */\n      pop\n      pop\n      pop\n      pop\n      pop\n      pop\n      jump\t// out\n        /* \"dNews_entity.sol\":4830:5650  function newsConBookeeping (string memory jourName, address jourAddr, string memory MediaName, address mediaAddr, string memory metadata, bytes32 contHash, uint duedate) public {\r... */\n    tag_70:\n        /* \"dNews_entity.sol\":5046:5050  true */\n      0x01\n        /* \"dNews_entity.sol\":5026:5050  isJour[jourAddr] == true */\n      iszero\n      iszero\n        /* \"dNews_entity.sol\":5026:5032  isJour */\n      0x05\n        /* \"dNews_entity.sol\":5026:5042  isJour[jourAddr] */\n      0x00\n        /* \"dNews_entity.sol\":5033:5041  jourAddr */\n      dup9\n        /* \"dNews_entity.sol\":5026:5042  isJour[jourAddr] */\n      0xffffffffffffffffffffffffffffffffffffffff\n      and\n      0xffffffffffffffffffffffffffffffffffffffff\n      and\n      dup2\n      mstore\n      0x20\n      add\n      swap1\n      dup2\n      mstore\n      0x20\n      add\n      0x00\n      keccak256\n      0x00\n      swap1\n      sload\n      swap1\n      0x0100\n      exp\n      swap1\n      div\n      0xff\n      and\n        /* \"dNews_entity.sol\":5026:5050  isJour[jourAddr] == true */\n      iszero\n      iszero\n      eq\n        /* \"dNews_entity.sol\":5018:5051  require(isJour[jourAddr] == true) */\n      tag_201\n      jumpi\n        /* \"--CODEGEN--\":12:13   */\n      0x00\n        /* \"--CODEGEN--\":9:10   */\n      dup1\n        /* \"--CODEGEN--\":2:14   */\n      revert\n        /* \"dNews_entity.sol\":5018:5051  require(isJour[jourAddr] == true) */\n    tag_201:\n        /* \"dNews_entity.sol\":5084:5123  news_content memory Created_New_Content */\n      tag_202\n      tag_203\n      jump\t// in\n    tag_202:\n        /* \"dNews_entity.sol\":5164:5172  jourName */\n      dup8\n        /* \"dNews_entity.sol\":5134:5153  Created_New_Content */\n      dup2\n        /* \"dNews_entity.sol\":5134:5161  Created_New_Content.ownJour */\n      0x00\n      add\n        /* \"dNews_entity.sol\":5134:5172  Created_New_Content.ownJour = jourName */\n      dup2\n      swap1\n      mstore\n      pop\n        /* \"dNews_entity.sol\":5214:5224  msg.sender */\n      caller\n        /* \"dNews_entity.sol\":5183:5202  Created_New_Content */\n      dup2\n        /* \"dNews_entity.sol\":5183:5211  Created_New_Content.jourAddr */\n      0x20\n      add\n        /* \"dNews_entity.sol\":5183:5224  Created_New_Content.jourAddr = msg.sender */\n      swap1\n      0xffffffffffffffffffffffffffffffffffffffff\n      and\n      swap1\n      dup2\n      0xffffffffffffffffffffffffffffffffffffffff\n      and\n      dup2\n      mstore\n      pop\n      pop\n        /* \"dNews_entity.sol\":5266:5275  MediaName */\n      dup6\n        /* \"dNews_entity.sol\":5235:5254  Created_New_Content */\n      dup2\n        /* \"dNews_entity.sol\":5235:5263  Created_New_Content.ownMedia */\n      0x40\n      add\n        /* \"dNews_entity.sol\":5235:5275  Created_New_Content.ownMedia = MediaName */\n      dup2\n      swap1\n      mstore\n      pop\n        /* \"dNews_entity.sol\":5318:5327  mediaAddr */\n      dup5\n        /* \"dNews_entity.sol\":5286:5305  Created_New_Content */\n      dup2\n        /* \"dNews_entity.sol\":5286:5315  Created_New_Content.mediaAddr */\n      0x60\n      add\n        /* \"dNews_entity.sol\":5286:5327  Created_New_Content.mediaAddr = mediaAddr */\n      swap1\n      0xffffffffffffffffffffffffffffffffffffffff\n      and\n      swap1\n      dup2\n      0xffffffffffffffffffffffffffffffffffffffff\n      and\n      dup2\n      mstore\n      pop\n      pop\n        /* \"dNews_entity.sol\":5369:5377  metadata */\n      dup4\n        /* \"dNews_entity.sol\":5338:5357  Created_New_Content */\n      dup2\n        /* \"dNews_entity.sol\":5338:5366  Created_New_Content.metadata */\n      0x80\n      add\n        /* \"dNews_entity.sol\":5338:5377  Created_New_Content.metadata = metadata */\n      dup2\n      swap1\n      mstore\n      pop\n        /* \"dNews_entity.sol\":5420:5428  contHash */\n      dup3\n        /* \"dNews_entity.sol\":5388:5407  Created_New_Content */\n      dup2\n        /* \"dNews_entity.sol\":5388:5417  Created_New_Content.IPFS_Hash */\n      0xa0\n      add\n        /* \"dNews_entity.sol\":5388:5428  Created_New_Content.IPFS_Hash = contHash */\n      dup2\n      dup2\n      mstore\n      pop\n      pop\n        /* \"dNews_entity.sol\":5471:5478  duedate */\n      dup2\n        /* \"dNews_entity.sol\":5439:5458  Created_New_Content */\n      dup2\n        /* \"dNews_entity.sol\":5439:5468  Created_New_Content.timestamp */\n      0xc0\n      add\n        /* \"dNews_entity.sol\":5439:5478  Created_New_Content.timestamp = duedate */\n      dup2\n      dup2\n      mstore\n      pop\n      pop\n        /* \"dNews_entity.sol\":5545:5546  1 */\n      0x01\n        /* \"dNews_entity.sol\":5517:5536  Created_New_Content */\n      dup2\n        /* \"dNews_entity.sol\":5517:5542  Created_New_Content.index */\n      0xe0\n      add\n      mload\n        /* \"dNews_entity.sol\":5517:5546  Created_New_Content.index + 1 */\n      add\n        /* \"dNews_entity.sol\":5489:5508  Created_New_Content */\n      dup2\n        /* \"dNews_entity.sol\":5489:5514  Created_New_Content.index */\n      0xe0\n      add\n        /* \"dNews_entity.sol\":5489:5546  Created_New_Content.index = Created_New_Content.index + 1 */\n      dup2\n      dup2\n      mstore\n      pop\n      pop\n        /* \"dNews_entity.sol\":5622:5641  Created_New_Content */\n      dup1\n        /* \"dNews_entity.sol\":5563:5571  jourNews */\n      0x06\n        /* \"dNews_entity.sol\":5563:5582  jourNews[mediaAddr] */\n      0x00\n        /* \"dNews_entity.sol\":5572:5581  mediaAddr */\n      dup8\n        /* \"dNews_entity.sol\":5563:5582  jourNews[mediaAddr] */\n      0xffffffffffffffffffffffffffffffffffffffff\n      and\n      0xffffffffffffffffffffffffffffffffffffffff\n      and\n      dup2\n      mstore\n      0x20\n      add\n      swap1\n      dup2\n      mstore\n      0x20\n      add\n      0x00\n      keccak256\n        /* \"dNews_entity.sol\":5563:5592  jourNews[mediaAddr][jourAddr] */\n      0x00\n        /* \"dNews_entity.sol\":5583:5591  jourAddr */\n      dup10\n        /* \"dNews_entity.sol\":5563:5592  jourNews[mediaAddr][jourAddr] */\n      0xffffffffffffffffffffffffffffffffffffffff\n      and\n      0xffffffffffffffffffffffffffffffffffffffff\n      and\n      dup2\n      mstore\n      0x20\n      add\n      swap1\n      dup2\n      mstore\n      0x20\n      add\n      0x00\n      keccak256\n        /* \"dNews_entity.sol\":5593:5612  Created_New_Content */\n      dup3\n        /* \"dNews_entity.sol\":5593:5618  Created_New_Content.index */\n      0xe0\n      add\n      mload\n        /* \"dNews_entity.sol\":5563:5619  jourNews[mediaAddr][jourAddr][Created_New_Content.index] */\n      dup2\n      sload\n      dup2\n      lt\n      tag_204\n      jumpi\n      invalid\n    tag_204:\n      swap1\n      0x00\n      mstore\n      keccak256(0x00, 0x20)\n      swap1\n      0x08\n      mul\n      add\n        /* \"dNews_entity.sol\":5563:5641  jourNews[mediaAddr][jourAddr][Created_New_Content.index] = Created_New_Content */\n      0x00\n      dup3\n      add\n      mload\n      dup2\n      0x00\n      add\n      swap1\n      dup1\n      mload\n      swap1\n      0x20\n      add\n      swap1\n      tag_206\n      swap3\n      swap2\n      swap1\n      tag_196\n      jump\t// in\n    tag_206:\n      pop\n      0x20\n      dup3\n      add\n      mload\n      dup2\n      0x01\n      add\n      exp(0x0100, 0x00)\n      dup2\n      sload\n      dup2\n      0xffffffffffffffffffffffffffffffffffffffff\n      mul\n      not\n      and\n      swap1\n      dup4\n      0xffffffffffffffffffffffffffffffffffffffff\n      and\n      mul\n      or\n      swap1\n      sstore\n      pop\n      0x40\n      dup3\n      add\n      mload\n      dup2\n      0x02\n      add\n      swap1\n      dup1\n      mload\n      swap1\n      0x20\n      add\n      swap1\n      tag_207\n      swap3\n      swap2\n      swap1\n      tag_196\n      jump\t// in\n    tag_207:\n      pop\n      0x60\n      dup3\n      add\n      mload\n      dup2\n      0x03\n      add\n      exp(0x0100, 0x00)\n      dup2\n      sload\n      dup2\n      0xffffffffffffffffffffffffffffffffffffffff\n      mul\n      not\n      and\n      swap1\n      dup4\n      0xffffffffffffffffffffffffffffffffffffffff\n      and\n      mul\n      or\n      swap1\n      sstore\n      pop\n      0x80\n      dup3\n      add\n      mload\n      dup2\n      0x04\n      add\n      swap1\n      dup1\n      mload\n      swap1\n      0x20\n      add\n      swap1\n      tag_208\n      swap3\n      swap2\n      swap1\n      tag_196\n      jump\t// in\n    tag_208:\n      pop\n      0xa0\n      dup3\n      add\n      mload\n      dup2\n      0x05\n      add\n      sstore\n      0xc0\n      dup3\n      add\n      mload\n      dup2\n      0x06\n      add\n      sstore\n      0xe0\n      dup3\n      add\n      mload\n      dup2\n      0x07\n      add\n      sstore\n      swap1\n      pop\n      pop\n        /* \"dNews_entity.sol\":4830:5650  function newsConBookeeping (string memory jourName, address jourAddr, string memory MediaName, address mediaAddr, string memory metadata, bytes32 contHash, uint duedate) public {\r... */\n      pop\n      pop\n      pop\n      pop\n      pop\n      pop\n      pop\n      pop\n      jump\t// out\n        /* \"dNews_entity.sol\":7471:7529  mapping(address=>mapping(uint => uint)) public indexlength */\n    tag_74:\n      mstore(0x20, 0x0c)\n      dup2\n      0x00\n      mstore\n      mstore(0x20, keccak256(0x00, 0x40))\n      dup1\n      0x00\n      mstore\n      keccak256(0x00, 0x40)\n      0x00\n      swap2\n      pop\n      swap2\n      pop\n      pop\n      sload\n      dup2\n      jump\t// out\n        /* \"dNews_entity.sol\":1678:1748  mapping(address => mapping(address => news_content[])) public jourNews */\n    tag_78:\n      mstore(0x20, 0x06)\n      dup3\n      0x00\n      mstore\n      mstore(0x20, keccak256(0x00, 0x40))\n      dup2\n      0x00\n      mstore\n      keccak256(0x00, 0x40)\n      dup2\n      dup2\n      sload\n      dup2\n      lt\n      tag_209\n      jumpi\n      invalid\n    tag_209:\n      swap1\n      0x00\n      mstore\n      keccak256(0x00, 0x20)\n      swap1\n      0x08\n      mul\n      add\n      0x00\n      swap3\n      pop\n      swap3\n      pop\n      pop\n      pop\n      dup1\n      0x00\n      add\n      dup1\n      sload\n      0x01\n      dup2\n      0x01\n      and\n      iszero\n      0x0100\n      mul\n      sub\n      and\n      0x02\n      swap1\n      div\n      dup1\n      0x1f\n      add\n      0x20\n      dup1\n      swap2\n      div\n      mul\n      0x20\n      add\n      mload(0x40)\n      swap1\n      dup2\n      add\n      0x40\n      mstore\n      dup1\n      swap3\n      swap2\n      swap1\n      dup2\n      dup2\n      mstore\n      0x20\n      add\n      dup3\n      dup1\n      sload\n      0x01\n      dup2\n      0x01\n      and\n      iszero\n      0x0100\n      mul\n      sub\n      and\n      0x02\n      swap1\n      div\n      dup1\n      iszero\n      tag_211\n      jumpi\n      dup1\n      0x1f\n      lt\n      tag_212\n      jumpi\n      0x0100\n      dup1\n      dup4\n      sload\n      div\n      mul\n      dup4\n      mstore\n      swap2\n      0x20\n      add\n      swap2\n      jump(tag_211)\n    tag_212:\n      dup3\n      add\n      swap2\n      swap1\n      0x00\n      mstore\n      keccak256(0x00, 0x20)\n      swap1\n    tag_213:\n      dup2\n      sload\n      dup2\n      mstore\n      swap1\n      0x01\n      add\n      swap1\n      0x20\n      add\n      dup1\n      dup4\n      gt\n      tag_213\n      jumpi\n      dup3\n      swap1\n      sub\n      0x1f\n      and\n      dup3\n      add\n      swap2\n    tag_211:\n      pop\n      pop\n      pop\n      pop\n      pop\n      swap1\n      dup1\n      0x01\n      add\n      0x00\n      swap1\n      sload\n      swap1\n      0x0100\n      exp\n      swap1\n      div\n      0xffffffffffffffffffffffffffffffffffffffff\n      and\n      swap1\n      dup1\n      0x02\n      add\n      dup1\n      sload\n      0x01\n      dup2\n      0x01\n      and\n      iszero\n      0x0100\n      mul\n      sub\n      and\n      0x02\n      swap1\n      div\n      dup1\n      0x1f\n      add\n      0x20\n      dup1\n      swap2\n      div\n      mul\n      0x20\n      add\n      mload(0x40)\n      swap1\n      dup2\n      add\n      0x40\n      mstore\n      dup1\n      swap3\n      swap2\n      swap1\n      dup2\n      dup2\n      mstore\n      0x20\n      add\n      dup3\n      dup1\n      sload\n      0x01\n      dup2\n      0x01\n      and\n      iszero\n      0x0100\n      mul\n      sub\n      and\n      0x02\n      swap1\n      div\n      dup1\n      iszero\n      tag_214\n      jumpi\n      dup1\n      0x1f\n      lt\n      tag_215\n      jumpi\n      0x0100\n      dup1\n      dup4\n      sload\n      div\n      mul\n      dup4\n      mstore\n      swap2\n      0x20\n      add\n      swap2\n      jump(tag_214)\n    tag_215:\n      dup3\n      add\n      swap2\n      swap1\n      0x00\n      mstore\n      keccak256(0x00, 0x20)\n      swap1\n    tag_216:\n      dup2\n      sload\n      dup2\n      mstore\n      swap1\n      0x01\n      add\n      swap1\n      0x20\n      add\n      dup1\n      dup4\n      gt\n      tag_216\n      jumpi\n      dup3\n      swap1\n      sub\n      0x1f\n      and\n      dup3\n      add\n      swap2\n    tag_214:\n      pop\n      pop\n      pop\n      pop\n      pop\n      swap1\n      dup1\n      0x03\n      add\n      0x00\n      swap1\n      sload\n      swap1\n      0x0100\n      exp\n      swap1\n      div\n      0xffffffffffffffffffffffffffffffffffffffff\n      and\n      swap1\n      dup1\n      0x04\n      add\n      dup1\n      sload\n      0x01\n      dup2\n      0x01\n      and\n      iszero\n      0x0100\n      mul\n      sub\n      and\n      0x02\n      swap1\n      div\n      dup1\n      0x1f\n      add\n      0x20\n      dup1\n      swap2\n      div\n      mul\n      0x20\n      add\n      mload(0x40)\n      swap1\n      dup2\n      add\n      0x40\n      mstore\n      dup1\n      swap3\n      swap2\n      swap1\n      dup2\n      dup2\n      mstore\n      0x20\n      add\n      dup3\n      dup1\n      sload\n      0x01\n      dup2\n      0x01\n      and\n      iszero\n      0x0100\n      mul\n      sub\n      and\n      0x02\n      swap1\n      div\n      dup1\n      iszero\n      tag_217\n      jumpi\n      dup1\n      0x1f\n      lt\n      tag_218\n      jumpi\n      0x0100\n      dup1\n      dup4\n      sload\n      div\n      mul\n      dup4\n      mstore\n      swap2\n      0x20\n      add\n      swap2\n      jump(tag_217)\n    tag_218:\n      dup3\n      add\n      swap2\n      swap1\n      0x00\n      mstore\n      keccak256(0x00, 0x20)\n      swap1\n    tag_219:\n      dup2\n      sload\n      dup2\n      mstore\n      swap1\n      0x01\n      add\n      swap1\n      0x20\n      add\n      dup1\n      dup4\n      gt\n      tag_219\n      jumpi\n      dup3\n      swap1\n      sub\n      0x1f\n      and\n      dup3\n      add\n      swap2\n    tag_217:\n      pop\n      pop\n      pop\n      pop\n      pop\n      swap1\n      dup1\n      0x05\n      add\n      sload\n      swap1\n      dup1\n      0x06\n      add\n      sload\n      swap1\n      dup1\n      0x07\n      add\n      sload\n      swap1\n      pop\n      dup9\n      jump\t// out\n        /* \"dNews_entity.sol\":8419:9188  function GrantedPermission(bool result, address editor, uint index) public {\r... */\n    tag_84:\n        /* \"dNews_entity.sol\":8505:8513  uint num */\n      0x00\n        /* \"dNews_entity.sol\":8516:8527  indexlength */\n      0x0c\n        /* \"dNews_entity.sol\":8516:8539  indexlength[msg.sender] */\n      0x00\n        /* \"dNews_entity.sol\":8528:8538  msg.sender */\n      caller\n        /* \"dNews_entity.sol\":8516:8539  indexlength[msg.sender] */\n      0xffffffffffffffffffffffffffffffffffffffff\n      and\n      0xffffffffffffffffffffffffffffffffffffffff\n      and\n      dup2\n      mstore\n      0x20\n      add\n      swap1\n      dup2\n      mstore\n      0x20\n      add\n      0x00\n      keccak256\n        /* \"dNews_entity.sol\":8516:8546  indexlength[msg.sender][index] */\n      0x00\n        /* \"dNews_entity.sol\":8540:8545  index */\n      dup4\n        /* \"dNews_entity.sol\":8516:8546  indexlength[msg.sender][index] */\n      dup2\n      mstore\n      0x20\n      add\n      swap1\n      dup2\n      mstore\n      0x20\n      add\n      0x00\n      keccak256\n      sload\n        /* \"dNews_entity.sol\":8505:8546  uint num = indexlength[msg.sender][index] */\n      swap1\n      pop\n        /* \"dNews_entity.sol\":8597:8607  msg.sender */\n      caller\n        /* \"dNews_entity.sol\":8565:8607  Requests[msg.sender][num].EA != msg.sender */\n      0xffffffffffffffffffffffffffffffffffffffff\n      and\n        /* \"dNews_entity.sol\":8565:8573  Requests */\n      0x08\n        /* \"dNews_entity.sol\":8565:8585  Requests[msg.sender] */\n      0x00\n        /* \"dNews_entity.sol\":8574:8584  msg.sender */\n      caller\n        /* \"dNews_entity.sol\":8565:8585  Requests[msg.sender] */\n      0xffffffffffffffffffffffffffffffffffffffff\n      and\n      0xffffffffffffffffffffffffffffffffffffffff\n      and\n      dup2\n      mstore\n      0x20\n      add\n      swap1\n      dup2\n      mstore\n      0x20\n      add\n      0x00\n      keccak256\n        /* \"dNews_entity.sol\":8586:8589  num */\n      dup3\n        /* \"dNews_entity.sol\":8565:8590  Requests[msg.sender][num] */\n      dup2\n      sload\n      dup2\n      lt\n      tag_221\n      jumpi\n      invalid\n    tag_221:\n      swap1\n      0x00\n      mstore\n      keccak256(0x00, 0x20)\n      swap1\n      0x04\n      mul\n      add\n        /* \"dNews_entity.sol\":8565:8593  Requests[msg.sender][num].EA */\n      0x00\n      add\n      0x01\n      swap1\n      sload\n      swap1\n      0x0100\n      exp\n      swap1\n      div\n      0xffffffffffffffffffffffffffffffffffffffff\n      and\n        /* \"dNews_entity.sol\":8565:8607  Requests[msg.sender][num].EA != msg.sender */\n      0xffffffffffffffffffffffffffffffffffffffff\n      and\n      eq\n      iszero\n        /* \"dNews_entity.sol\":8557:8608  require(Requests[msg.sender][num].EA != msg.sender) */\n      tag_223\n      jumpi\n        /* \"--CODEGEN--\":12:13   */\n      0x00\n        /* \"--CODEGEN--\":9:10   */\n      dup1\n        /* \"--CODEGEN--\":2:14   */\n      revert\n        /* \"dNews_entity.sol\":8557:8608  require(Requests[msg.sender][num].EA != msg.sender) */\n    tag_223:\n        /* \"dNews_entity.sol\":8662:8684  ownerState.SendRequest */\n      0x00\n        /* \"dNews_entity.sol\":8627:8684  Requests[msg.sender][num].state == ownerState.SendRequest */\n      0x05\n      dup2\n      gt\n      iszero\n      tag_224\n      jumpi\n      invalid\n    tag_224:\n        /* \"dNews_entity.sol\":8627:8635  Requests */\n      0x08\n        /* \"dNews_entity.sol\":8627:8647  Requests[msg.sender] */\n      0x00\n        /* \"dNews_entity.sol\":8636:8646  msg.sender */\n      caller\n        /* \"dNews_entity.sol\":8627:8647  Requests[msg.sender] */\n      0xffffffffffffffffffffffffffffffffffffffff\n      and\n      0xffffffffffffffffffffffffffffffffffffffff\n      and\n      dup2\n      mstore\n      0x20\n      add\n      swap1\n      dup2\n      mstore\n      0x20\n      add\n      0x00\n      keccak256\n        /* \"dNews_entity.sol\":8648:8651  num */\n      dup3\n        /* \"dNews_entity.sol\":8627:8652  Requests[msg.sender][num] */\n      dup2\n      sload\n      dup2\n      lt\n      tag_225\n      jumpi\n      invalid\n    tag_225:\n      swap1\n      0x00\n      mstore\n      keccak256(0x00, 0x20)\n      swap1\n      0x04\n      mul\n      add\n        /* \"dNews_entity.sol\":8627:8658  Requests[msg.sender][num].state */\n      0x00\n      add\n      0x00\n      swap1\n      sload\n      swap1\n      0x0100\n      exp\n      swap1\n      div\n      0xff\n      and\n        /* \"dNews_entity.sol\":8627:8684  Requests[msg.sender][num].state == ownerState.SendRequest */\n      0x05\n      dup2\n      gt\n      iszero\n      tag_227\n      jumpi\n      invalid\n    tag_227:\n      eq\n        /* \"dNews_entity.sol\":8619:8685  require(Requests[msg.sender][num].state == ownerState.SendRequest) */\n      tag_228\n      jumpi\n        /* \"--CODEGEN--\":12:13   */\n      0x00\n        /* \"--CODEGEN--\":9:10   */\n      dup1\n        /* \"--CODEGEN--\":2:14   */\n      revert\n        /* \"dNews_entity.sol\":8619:8685  require(Requests[msg.sender][num].state == ownerState.SendRequest) */\n    tag_228:\n        /* \"dNews_entity.sol\":8699:8705  result */\n      dup4\n        /* \"dNews_entity.sol\":8696:9181  if(result) {\r... */\n      iszero\n      tag_229\n      jumpi\n        /* \"dNews_entity.sol\":8756:8784  ownerState.GrantedPermission */\n      0x01\n        /* \"dNews_entity.sol\":8722:8730  Requests */\n      0x08\n        /* \"dNews_entity.sol\":8722:8742  Requests[msg.sender] */\n      0x00\n        /* \"dNews_entity.sol\":8731:8741  msg.sender */\n      caller\n        /* \"dNews_entity.sol\":8722:8742  Requests[msg.sender] */\n      0xffffffffffffffffffffffffffffffffffffffff\n      and\n      0xffffffffffffffffffffffffffffffffffffffff\n      and\n      dup2\n      mstore\n      0x20\n      add\n      swap1\n      dup2\n      mstore\n      0x20\n      add\n      0x00\n      keccak256\n        /* \"dNews_entity.sol\":8743:8746  num */\n      dup3\n        /* \"dNews_entity.sol\":8722:8747  Requests[msg.sender][num] */\n      dup2\n      sload\n      dup2\n      lt\n      tag_230\n      jumpi\n      invalid\n    tag_230:\n      swap1\n      0x00\n      mstore\n      keccak256(0x00, 0x20)\n      swap1\n      0x04\n      mul\n      add\n        /* \"dNews_entity.sol\":8722:8753  Requests[msg.sender][num].state */\n      0x00\n      add\n      0x00\n        /* \"dNews_entity.sol\":8722:8784  Requests[msg.sender][num].state = ownerState.GrantedPermission */\n      0x0100\n      exp\n      dup2\n      sload\n      dup2\n      0xff\n      mul\n      not\n      and\n      swap1\n      dup4\n      0x05\n      dup2\n      gt\n      iszero\n      tag_232\n      jumpi\n      invalid\n    tag_232:\n      mul\n      or\n      swap1\n      sstore\n      pop\n        /* \"dNews_entity.sol\":8834:8838  true */\n      0x01\n        /* \"dNews_entity.sol\":8799:8807  Requests */\n      0x08\n        /* \"dNews_entity.sol\":8799:8819  Requests[msg.sender] */\n      0x00\n        /* \"dNews_entity.sol\":8808:8818  msg.sender */\n      caller\n        /* \"dNews_entity.sol\":8799:8819  Requests[msg.sender] */\n      0xffffffffffffffffffffffffffffffffffffffff\n      and\n      0xffffffffffffffffffffffffffffffffffffffff\n      and\n      dup2\n      mstore\n      0x20\n      add\n      swap1\n      dup2\n      mstore\n      0x20\n      add\n      0x00\n      keccak256\n        /* \"dNews_entity.sol\":8820:8823  num */\n      dup3\n        /* \"dNews_entity.sol\":8799:8824  Requests[msg.sender][num] */\n      dup2\n      sload\n      dup2\n      lt\n      tag_233\n      jumpi\n      invalid\n    tag_233:\n      swap1\n      0x00\n      mstore\n      keccak256(0x00, 0x20)\n      swap1\n      0x04\n      mul\n      add\n        /* \"dNews_entity.sol\":8799:8831  Requests[msg.sender][num].result */\n      0x03\n      add\n      0x00\n        /* \"dNews_entity.sol\":8799:8838  Requests[msg.sender][num].result = true */\n      0x0100\n      exp\n      dup2\n      sload\n      dup2\n      0xff\n      mul\n      not\n      and\n      swap1\n      dup4\n      iszero\n      iszero\n      mul\n      or\n      swap1\n      sstore\n      pop\n        /* \"dNews_entity.sol\":8858:8934  PermissionGranted(\"Permission has already been Granted to address \", editor) */\n      0x30f499dee5aca26bf88e6932509f2693b637e648ec36ac97034db8869f118639\n        /* \"dNews_entity.sol\":8927:8933  editor */\n      dup4\n        /* \"dNews_entity.sol\":8858:8934  PermissionGranted(\"Permission has already been Granted to address \", editor) */\n      mload(0x40)\n      tag_235\n      swap2\n      swap1\n      jump(tag_236)\n    tag_235:\n      mload(0x40)\n      dup1\n      swap2\n      sub\n      swap1\n      log1\n        /* \"dNews_entity.sol\":8696:9181  if(result) {\r... */\n      jump(tag_237)\n    tag_229:\n        /* \"dNews_entity.sol\":9011:9038  ownerState.DeniedPermission */\n      0x02\n        /* \"dNews_entity.sol\":8977:8985  Requests */\n      0x08\n        /* \"dNews_entity.sol\":8977:8997  Requests[msg.sender] */\n      0x00\n        /* \"dNews_entity.sol\":8986:8996  msg.sender */\n      caller\n        /* \"dNews_entity.sol\":8977:8997  Requests[msg.sender] */\n      0xffffffffffffffffffffffffffffffffffffffff\n      and\n      0xffffffffffffffffffffffffffffffffffffffff\n      and\n      dup2\n      mstore\n      0x20\n      add\n      swap1\n      dup2\n      mstore\n      0x20\n      add\n      0x00\n      keccak256\n        /* \"dNews_entity.sol\":8998:9001  num */\n      dup3\n        /* \"dNews_entity.sol\":8977:9002  Requests[msg.sender][num] */\n      dup2\n      sload\n      dup2\n      lt\n      tag_238\n      jumpi\n      invalid\n    tag_238:\n      swap1\n      0x00\n      mstore\n      keccak256(0x00, 0x20)\n      swap1\n      0x04\n      mul\n      add\n        /* \"dNews_entity.sol\":8977:9008  Requests[msg.sender][num].state */\n      0x00\n      add\n      0x00\n        /* \"dNews_entity.sol\":8977:9038  Requests[msg.sender][num].state = ownerState.DeniedPermission */\n      0x0100\n      exp\n      dup2\n      sload\n      dup2\n      0xff\n      mul\n      not\n      and\n      swap1\n      dup4\n      0x05\n      dup2\n      gt\n      iszero\n      tag_240\n      jumpi\n      invalid\n    tag_240:\n      mul\n      or\n      swap1\n      sstore\n      pop\n        /* \"dNews_entity.sol\":9088:9093  false */\n      0x00\n        /* \"dNews_entity.sol\":9053:9061  Requests */\n      0x08\n        /* \"dNews_entity.sol\":9053:9073  Requests[msg.sender] */\n      0x00\n        /* \"dNews_entity.sol\":9062:9072  msg.sender */\n      caller\n        /* \"dNews_entity.sol\":9053:9073  Requests[msg.sender] */\n      0xffffffffffffffffffffffffffffffffffffffff\n      and\n      0xffffffffffffffffffffffffffffffffffffffff\n      and\n      dup2\n      mstore\n      0x20\n      add\n      swap1\n      dup2\n      mstore\n      0x20\n      add\n      0x00\n      keccak256\n        /* \"dNews_entity.sol\":9074:9077  num */\n      dup3\n        /* \"dNews_entity.sol\":9053:9078  Requests[msg.sender][num] */\n      dup2\n      sload\n      dup2\n      lt\n      tag_241\n      jumpi\n      invalid\n    tag_241:\n      swap1\n      0x00\n      mstore\n      keccak256(0x00, 0x20)\n      swap1\n      0x04\n      mul\n      add\n        /* \"dNews_entity.sol\":9053:9085  Requests[msg.sender][num].result */\n      0x03\n      add\n      0x00\n        /* \"dNews_entity.sol\":9053:9093  Requests[msg.sender][num].result = false */\n      0x0100\n      exp\n      dup2\n      sload\n      dup2\n      0xff\n      mul\n      not\n      and\n      swap1\n      dup4\n      iszero\n      iszero\n      mul\n      or\n      swap1\n      sstore\n      pop\n        /* \"dNews_entity.sol\":9113:9169  PermissionDenied(\"Permission Denied to address\", editor) */\n      0xb72d3d0ddac6222a8090aba8a89a5f33ea480ca5e3201dea0f31f5da8203f249\n        /* \"dNews_entity.sol\":9162:9168  editor */\n      dup4\n        /* \"dNews_entity.sol\":9113:9169  PermissionDenied(\"Permission Denied to address\", editor) */\n      mload(0x40)\n      tag_243\n      swap2\n      swap1\n      jump(tag_244)\n    tag_243:\n      mload(0x40)\n      dup1\n      swap2\n      sub\n      swap1\n      log1\n        /* \"dNews_entity.sol\":8696:9181  if(result) {\r... */\n    tag_237:\n        /* \"dNews_entity.sol\":8419:9188  function GrantedPermission(bool result, address editor, uint index) public {\r... */\n      pop\n      pop\n      pop\n      pop\n      jump\t// out\n        /* \"dNews_entity.sol\":6191:6551  function retrieveNewsContents(bytes32 news_validation_hash, address jourAddr, address mediaAddr, uint index) public view returns (string memory) {\r... */\n    tag_88:\n        /* \"dNews_entity.sol\":6321:6334  string memory */\n      0x60\n        /* \"dNews_entity.sol\":6431:6439  jourNews */\n      0x06\n        /* \"dNews_entity.sol\":6431:6450  jourNews[mediaAddr] */\n      0x00\n        /* \"dNews_entity.sol\":6440:6449  mediaAddr */\n      dup5\n        /* \"dNews_entity.sol\":6431:6450  jourNews[mediaAddr] */\n      0xffffffffffffffffffffffffffffffffffffffff\n      and\n      0xffffffffffffffffffffffffffffffffffffffff\n      and\n      dup2\n      mstore\n      0x20\n      add\n      swap1\n      dup2\n      mstore\n      0x20\n      add\n      0x00\n      keccak256\n        /* \"dNews_entity.sol\":6431:6460  jourNews[mediaAddr][jourAddr] */\n      0x00\n        /* \"dNews_entity.sol\":6451:6459  jourAddr */\n      dup6\n        /* \"dNews_entity.sol\":6431:6460  jourNews[mediaAddr][jourAddr] */\n      0xffffffffffffffffffffffffffffffffffffffff\n      and\n      0xffffffffffffffffffffffffffffffffffffffff\n      and\n      dup2\n      mstore\n      0x20\n      add\n      swap1\n      dup2\n      mstore\n      0x20\n      add\n      0x00\n      keccak256\n        /* \"dNews_entity.sol\":6461:6466  index */\n      dup3\n        /* \"dNews_entity.sol\":6431:6467  jourNews[mediaAddr][jourAddr][index] */\n      dup2\n      sload\n      dup2\n      lt\n      tag_246\n      jumpi\n      invalid\n    tag_246:\n      swap1\n      0x00\n      mstore\n      keccak256(0x00, 0x20)\n      swap1\n      0x08\n      mul\n      add\n        /* \"dNews_entity.sol\":6431:6477  jourNews[mediaAddr][jourAddr][index].IPFS_Hash */\n      0x05\n      add\n      sload\n        /* \"dNews_entity.sol\":6414:6478  abi.encodePacked(jourNews[mediaAddr][jourAddr][index].IPFS_Hash) */\n      add(0x20, mload(0x40))\n      tag_248\n      swap2\n      swap1\n      jump(tag_249)\n    tag_248:\n      mload(0x40)\n        /* \"--CODEGEN--\":49:53   */\n      0x20\n        /* \"--CODEGEN--\":39:46   */\n      dup2\n        /* \"--CODEGEN--\":30:37   */\n      dup4\n        /* \"--CODEGEN--\":26:47   */\n      sub\n        /* \"--CODEGEN--\":22:54   */\n      sub\n        /* \"--CODEGEN--\":13:20   */\n      dup2\n        /* \"--CODEGEN--\":6:55   */\n      mstore\n        /* \"dNews_entity.sol\":6414:6478  abi.encodePacked(jourNews[mediaAddr][jourAddr][index].IPFS_Hash) */\n      swap1\n      0x40\n      mstore\n        /* \"dNews_entity.sol\":6404:6479  keccak256(abi.encodePacked(jourNews[mediaAddr][jourAddr][index].IPFS_Hash)) */\n      dup1\n      mload\n      swap1\n      0x20\n      add\n      keccak256\n        /* \"dNews_entity.sol\":6378:6398  news_validation_hash */\n      dup6\n        /* \"dNews_entity.sol\":6361:6399  abi.encodePacked(news_validation_hash) */\n      add(0x20, mload(0x40))\n      tag_250\n      swap2\n      swap1\n      jump(tag_249)\n    tag_250:\n      mload(0x40)\n        /* \"--CODEGEN--\":49:53   */\n      0x20\n        /* \"--CODEGEN--\":39:46   */\n      dup2\n        /* \"--CODEGEN--\":30:37   */\n      dup4\n        /* \"--CODEGEN--\":26:47   */\n      sub\n        /* \"--CODEGEN--\":22:54   */\n      sub\n        /* \"--CODEGEN--\":13:20   */\n      dup2\n        /* \"--CODEGEN--\":6:55   */\n      mstore\n        /* \"dNews_entity.sol\":6361:6399  abi.encodePacked(news_validation_hash) */\n      swap1\n      0x40\n      mstore\n        /* \"dNews_entity.sol\":6351:6400  keccak256(abi.encodePacked(news_validation_hash)) */\n      dup1\n      mload\n      swap1\n      0x20\n      add\n      keccak256\n        /* \"dNews_entity.sol\":6351:6479  keccak256(abi.encodePacked(news_validation_hash)) == keccak256(abi.encodePacked(jourNews[mediaAddr][jourAddr][index].IPFS_Hash)) */\n      eq\n        /* \"dNews_entity.sol\":6347:6543  if (keccak256(abi.encodePacked(news_validation_hash)) == keccak256(abi.encodePacked(jourNews[mediaAddr][jourAddr][index].IPFS_Hash)))\r... */\n      iszero\n      tag_251\n      jumpi\n        /* \"dNews_entity.sol\":6494:6507  return 'true' */\n      mload(0x40)\n      dup1\n      0x40\n      add\n      0x40\n      mstore\n      dup1\n      0x04\n      dup2\n      mstore\n      0x20\n      add\n      0x7472756500000000000000000000000000000000000000000000000000000000\n      dup2\n      mstore\n      pop\n      swap1\n      pop\n      jump(tag_245)\n        /* \"dNews_entity.sol\":6347:6543  if (keccak256(abi.encodePacked(news_validation_hash)) == keccak256(abi.encodePacked(jourNews[mediaAddr][jourAddr][index].IPFS_Hash)))\r... */\n    tag_251:\n        /* \"dNews_entity.sol\":6523:6543  return 'almost fake' */\n      mload(0x40)\n      dup1\n      0x40\n      add\n      0x40\n      mstore\n      dup1\n      0x0b\n      dup2\n      mstore\n      0x20\n      add\n      0x616c6d6f73742066616b65000000000000000000000000000000000000000000\n      dup2\n      mstore\n      pop\n      swap1\n      pop\n        /* \"dNews_entity.sol\":6191:6551  function retrieveNewsContents(bytes32 news_validation_hash, address jourAddr, address mediaAddr, uint index) public view returns (string memory) {\r... */\n    tag_245:\n      swap5\n      swap4\n      pop\n      pop\n      pop\n      pop\n      jump\t// out\n        /* \"dNews_entity.sol\":7926:8393  function requestPermission(address owner, uint index)public {\r... */\n    tag_93:\n        /* \"dNews_entity.sol\":8014:8024  msg.sender */\n      caller\n        /* \"dNews_entity.sol\":8005:8024  owner != msg.sender */\n      0xffffffffffffffffffffffffffffffffffffffff\n      and\n        /* \"dNews_entity.sol\":8005:8010  owner */\n      dup3\n        /* \"dNews_entity.sol\":8005:8024  owner != msg.sender */\n      0xffffffffffffffffffffffffffffffffffffffff\n      and\n      eq\n      iszero\n        /* \"dNews_entity.sol\":7997:8025  require(owner != msg.sender) */\n      tag_254\n      jumpi\n        /* \"--CODEGEN--\":12:13   */\n      0x00\n        /* \"--CODEGEN--\":9:10   */\n      dup1\n        /* \"--CODEGEN--\":2:14   */\n      revert\n        /* \"dNews_entity.sol\":7997:8025  require(owner != msg.sender) */\n    tag_254:\n        /* \"dNews_entity.sol\":8041:8079  ArtistRequestingPermission(msg.sender) */\n      0x85ace08f038481adc2bfd0f855a5103eed84d76d1889e2837c00a5f0b64dd50b\n        /* \"dNews_entity.sol\":8068:8078  msg.sender */\n      caller\n        /* \"dNews_entity.sol\":8041:8079  ArtistRequestingPermission(msg.sender) */\n      mload(0x40)\n      tag_255\n      swap2\n      swap1\n      jump(tag_256)\n    tag_255:\n      mload(0x40)\n      dup1\n      swap2\n      sub\n      swap1\n      log1\n        /* \"dNews_entity.sol\":8090:8112  traceOwner memory temp */\n      tag_257\n      tag_258\n      jump\t// in\n    tag_257:\n        /* \"dNews_entity.sol\":8133:8143  msg.sender */\n      caller\n        /* \"dNews_entity.sol\":8123:8127  temp */\n      dup2\n        /* \"dNews_entity.sol\":8123:8130  temp.EA */\n      0x20\n      add\n        /* \"dNews_entity.sol\":8123:8143  temp.EA = msg.sender */\n      swap1\n      0xffffffffffffffffffffffffffffffffffffffff\n      and\n      swap1\n      dup2\n      0xffffffffffffffffffffffffffffffffffffffff\n      and\n      dup2\n      mstore\n      pop\n      pop\n        /* \"dNews_entity.sol\":8196:8218  ownerState.SendRequest */\n      0x00\n        /* \"dNews_entity.sol\":8183:8187  temp */\n      dup2\n        /* \"dNews_entity.sol\":8183:8193  temp.state */\n      0x00\n      add\n        /* \"dNews_entity.sol\":8183:8218  temp.state = ownerState.SendRequest */\n      swap1\n      0x05\n      dup2\n      gt\n      iszero\n      tag_259\n      jumpi\n      invalid\n    tag_259:\n      swap1\n      dup2\n      0x05\n      dup2\n      gt\n      iszero\n      tag_260\n      jumpi\n      invalid\n    tag_260:\n      dup2\n      mstore\n      pop\n      pop\n        /* \"dNews_entity.sol\":8249:8254  index */\n      dup2\n        /* \"dNews_entity.sol\":8229:8233  temp */\n      dup2\n        /* \"dNews_entity.sol\":8229:8246  temp.OwnedContent */\n      0x40\n      add\n        /* \"dNews_entity.sol\":8229:8254  temp.OwnedContent = index */\n      dup2\n      dup2\n      mstore\n      pop\n      pop\n        /* \"dNews_entity.sol\":8279:8284  false */\n      0x00\n        /* \"dNews_entity.sol\":8265:8269  temp */\n      dup2\n        /* \"dNews_entity.sol\":8265:8276  temp.result */\n      0x80\n      add\n        /* \"dNews_entity.sol\":8265:8284  temp.result = false */\n      swap1\n      iszero\n      iszero\n      swap1\n      dup2\n      iszero\n      iszero\n      dup2\n      mstore\n      pop\n      pop\n        /* \"dNews_entity.sol\":8295:8303  Requests */\n      0x08\n        /* \"dNews_entity.sol\":8295:8310  Requests[owner] */\n      0x00\n        /* \"dNews_entity.sol\":8304:8309  owner */\n      dup5\n        /* \"dNews_entity.sol\":8295:8310  Requests[owner] */\n      0xffffffffffffffffffffffffffffffffffffffff\n      and\n      0xffffffffffffffffffffffffffffffffffffffff\n      and\n      dup2\n      mstore\n      0x20\n      add\n      swap1\n      dup2\n      mstore\n      0x20\n      add\n      0x00\n      keccak256\n        /* \"dNews_entity.sol\":8316:8320  temp */\n      dup2\n        /* \"dNews_entity.sol\":8295:8321  Requests[owner].push(temp) */\n      swap1\n      dup1\n        /* \"--CODEGEN--\":39:40   */\n      0x01\n        /* \"--CODEGEN--\":33:36   */\n      dup2\n        /* \"--CODEGEN--\":27:37   */\n      sload\n        /* \"--CODEGEN--\":23:41   */\n      add\n        /* \"--CODEGEN--\":57:67   */\n      dup1\n        /* \"--CODEGEN--\":52:55   */\n      dup3\n        /* \"--CODEGEN--\":45:68   */\n      sstore\n        /* \"--CODEGEN--\":79:89   */\n      dup1\n        /* \"--CODEGEN--\":72:89   */\n      swap2\n      pop\n        /* \"--CODEGEN--\":0:93   */\n      pop\n        /* \"dNews_entity.sol\":8295:8321  Requests[owner].push(temp) */\n      0x01\n      swap1\n      sub\n      swap1\n      0x00\n      mstore\n      keccak256(0x00, 0x20)\n      swap1\n      0x04\n      mul\n      add\n      0x00\n      swap1\n      swap2\n      swap1\n      swap2\n      swap1\n      swap2\n      pop\n      0x00\n      dup3\n      add\n      mload\n      dup2\n      0x00\n      add\n      exp(0x0100, 0x00)\n      dup2\n      sload\n      dup2\n      0xff\n      mul\n      not\n      and\n      swap1\n      dup4\n      0x05\n      dup2\n      gt\n      iszero\n      tag_262\n      jumpi\n      invalid\n    tag_262:\n      mul\n      or\n      swap1\n      sstore\n      pop\n      0x20\n      dup3\n      add\n      mload\n      dup2\n      0x00\n      add\n      exp(0x0100, 0x01)\n      dup2\n      sload\n      dup2\n      0xffffffffffffffffffffffffffffffffffffffff\n      mul\n      not\n      and\n      swap1\n      dup4\n      0xffffffffffffffffffffffffffffffffffffffff\n      and\n      mul\n      or\n      swap1\n      sstore\n      pop\n      0x40\n      dup3\n      add\n      mload\n      dup2\n      0x01\n      add\n      sstore\n      0x60\n      dup3\n      add\n      mload\n      dup2\n      0x02\n      add\n      sstore\n      0x80\n      dup3\n      add\n      mload\n      dup2\n      0x03\n      add\n      exp(0x0100, 0x00)\n      dup2\n      sload\n      dup2\n      0xff\n      mul\n      not\n      and\n      swap1\n      dup4\n      iszero\n      iszero\n      mul\n      or\n      swap1\n      sstore\n      pop\n      pop\n      pop\n        /* \"dNews_entity.sol\":8384:8385  1 */\n      0x01\n        /* \"dNews_entity.sol\":8360:8368  Requests */\n      0x08\n        /* \"dNews_entity.sol\":8360:8375  Requests[owner] */\n      0x00\n        /* \"dNews_entity.sol\":8369:8374  owner */\n      dup6\n        /* \"dNews_entity.sol\":8360:8375  Requests[owner] */\n      0xffffffffffffffffffffffffffffffffffffffff\n      and\n      0xffffffffffffffffffffffffffffffffffffffff\n      and\n      dup2\n      mstore\n      0x20\n      add\n      swap1\n      dup2\n      mstore\n      0x20\n      add\n      0x00\n      keccak256\n        /* \"dNews_entity.sol\":8360:8382  Requests[owner].length */\n      dup1\n      sload\n      swap1\n      pop\n        /* \"dNews_entity.sol\":8360:8385  Requests[owner].length -1 */\n      sub\n        /* \"dNews_entity.sol\":8332:8343  indexlength */\n      0x0c\n        /* \"dNews_entity.sol\":8332:8350  indexlength[owner] */\n      0x00\n        /* \"dNews_entity.sol\":8344:8349  owner */\n      dup6\n        /* \"dNews_entity.sol\":8332:8350  indexlength[owner] */\n      0xffffffffffffffffffffffffffffffffffffffff\n      and\n      0xffffffffffffffffffffffffffffffffffffffff\n      and\n      dup2\n      mstore\n      0x20\n      add\n      swap1\n      dup2\n      mstore\n      0x20\n      add\n      0x00\n      keccak256\n        /* \"dNews_entity.sol\":8332:8357  indexlength[owner][index] */\n      0x00\n        /* \"dNews_entity.sol\":8351:8356  index */\n      dup5\n        /* \"dNews_entity.sol\":8332:8357  indexlength[owner][index] */\n      dup2\n      mstore\n      0x20\n      add\n      swap1\n      dup2\n      mstore\n      0x20\n      add\n      0x00\n      keccak256\n        /* \"dNews_entity.sol\":8332:8385  indexlength[owner][index] = Requests[owner].length -1 */\n      dup2\n      swap1\n      sstore\n      pop\n        /* \"dNews_entity.sol\":7926:8393  function requestPermission(address owner, uint index)public {\r... */\n      pop\n      pop\n      pop\n      jump\t// out\n        /* \"dNews_entity.sol\":7662:7726  mapping(address=>mapping(uint => uint)) public indexlengthattest */\n    tag_96:\n      mstore(0x20, 0x0e)\n      dup2\n      0x00\n      mstore\n      mstore(0x20, keccak256(0x00, 0x40))\n      dup1\n      0x00\n      mstore\n      keccak256(0x00, 0x40)\n      0x00\n      swap2\n      pop\n      swap2\n      pop\n      pop\n      sload\n      dup2\n      jump\t// out\n        /* \"dNews_entity.sol\":7029:7074  mapping(address=>traceOwner[])public Requests */\n    tag_100:\n      mstore(0x20, 0x08)\n      dup2\n      0x00\n      mstore\n      keccak256(0x00, 0x40)\n      dup2\n      dup2\n      sload\n      dup2\n      lt\n      tag_263\n      jumpi\n      invalid\n    tag_263:\n      swap1\n      0x00\n      mstore\n      keccak256(0x00, 0x20)\n      swap1\n      0x04\n      mul\n      add\n      0x00\n      swap2\n      pop\n      swap2\n      pop\n      pop\n      dup1\n      0x00\n      add\n      0x00\n      swap1\n      sload\n      swap1\n      0x0100\n      exp\n      swap1\n      div\n      0xff\n      and\n      swap1\n      dup1\n      0x00\n      add\n      0x01\n      swap1\n      sload\n      swap1\n      0x0100\n      exp\n      swap1\n      div\n      0xffffffffffffffffffffffffffffffffffffffff\n      and\n      swap1\n      dup1\n      0x01\n      add\n      sload\n      swap1\n      dup1\n      0x02\n      add\n      sload\n      swap1\n      dup1\n      0x03\n      add\n      0x00\n      swap1\n      sload\n      swap1\n      0x0100\n      exp\n      swap1\n      div\n      0xff\n      and\n      swap1\n      pop\n      dup6\n      jump\t// out\n        /* \"dNews_entity.sol\":7110:7201  mapping (address =>mapping(address=>news_content[])) public Granted_Permission_ChildContent */\n    tag_105:\n      mstore(0x20, 0x09)\n      dup3\n      0x00\n      mstore\n      mstore(0x20, keccak256(0x00, 0x40))\n      dup2\n      0x00\n      mstore\n      keccak256(0x00, 0x40)\n      dup2\n      dup2\n      sload\n      dup2\n      lt\n      tag_265\n      jumpi\n      invalid\n    tag_265:\n      swap1\n      0x00\n      mstore\n      keccak256(0x00, 0x20)\n      swap1\n      0x08\n      mul\n      add\n      0x00\n      swap3\n      pop\n      swap3\n      pop\n      pop\n      pop\n      dup1\n      0x00\n      add\n      dup1\n      sload\n      0x01\n      dup2\n      0x01\n      and\n      iszero\n      0x0100\n      mul\n      sub\n      and\n      0x02\n      swap1\n      div\n      dup1\n      0x1f\n      add\n      0x20\n      dup1\n      swap2\n      div\n      mul\n      0x20\n      add\n      mload(0x40)\n      swap1\n      dup2\n      add\n      0x40\n      mstore\n      dup1\n      swap3\n      swap2\n      swap1\n      dup2\n      dup2\n      mstore\n      0x20\n      add\n      dup3\n      dup1\n      sload\n      0x01\n      dup2\n      0x01\n      and\n      iszero\n      0x0100\n      mul\n      sub\n      and\n      0x02\n      swap1\n      div\n      dup1\n      iszero\n      tag_267\n      jumpi\n      dup1\n      0x1f\n      lt\n      tag_268\n      jumpi\n      0x0100\n      dup1\n      dup4\n      sload\n      div\n      mul\n      dup4\n      mstore\n      swap2\n      0x20\n      add\n      swap2\n      jump(tag_267)\n    tag_268:\n      dup3\n      add\n      swap2\n      swap1\n      0x00\n      mstore\n      keccak256(0x00, 0x20)\n      swap1\n    tag_269:\n      dup2\n      sload\n      dup2\n      mstore\n      swap1\n      0x01\n      add\n      swap1\n      0x20\n      add\n      dup1\n      dup4\n      gt\n      tag_269\n      jumpi\n      dup3\n      swap1\n      sub\n      0x1f\n      and\n      dup3\n      add\n      swap2\n    tag_267:\n      pop\n      pop\n      pop\n      pop\n      pop\n      swap1\n      dup1\n      0x01\n      add\n      0x00\n      swap1\n      sload\n      swap1\n      0x0100\n      exp\n      swap1\n      div\n      0xffffffffffffffffffffffffffffffffffffffff\n      and\n      swap1\n      dup1\n      0x02\n      add\n      dup1\n      sload\n      0x01\n      dup2\n      0x01\n      and\n      iszero\n      0x0100\n      mul\n      sub\n      and\n      0x02\n      swap1\n      div\n      dup1\n      0x1f\n      add\n      0x20\n      dup1\n      swap2\n      div\n      mul\n      0x20\n      add\n      mload(0x40)\n      swap1\n      dup2\n      add\n      0x40\n      mstore\n      dup1\n      swap3\n      swap2\n      swap1\n      dup2\n      dup2\n      mstore\n      0x20\n      add\n      dup3\n      dup1\n      sload\n      0x01\n      dup2\n      0x01\n      and\n      iszero\n      0x0100\n      mul\n      sub\n      and\n      0x02\n      swap1\n      div\n      dup1\n      iszero\n      tag_270\n      jumpi\n      dup1\n      0x1f\n      lt\n      tag_271\n      jumpi\n      0x0100\n      dup1\n      dup4\n      sload\n      div\n      mul\n      dup4\n      mstore\n      swap2\n      0x20\n      add\n      swap2\n      jump(tag_270)\n    tag_271:\n      dup3\n      add\n      swap2\n      swap1\n      0x00\n      mstore\n      keccak256(0x00, 0x20)\n      swap1\n    tag_272:\n      dup2\n      sload\n      dup2\n      mstore\n      swap1\n      0x01\n      add\n      swap1\n      0x20\n      add\n      dup1\n      dup4\n      gt\n      tag_272\n      jumpi\n      dup3\n      swap1\n      sub\n      0x1f\n      and\n      dup3\n      add\n      swap2\n    tag_270:\n      pop\n      pop\n      pop\n      pop\n      pop\n      swap1\n      dup1\n      0x03\n      add\n      0x00\n      swap1\n      sload\n      swap1\n      0x0100\n      exp\n      swap1\n      div\n      0xffffffffffffffffffffffffffffffffffffffff\n      and\n      swap1\n      dup1\n      0x04\n      add\n      dup1\n      sload\n      0x01\n      dup2\n      0x01\n      and\n      iszero\n      0x0100\n      mul\n      sub\n      and\n      0x02\n      swap1\n      div\n      dup1\n      0x1f\n      add\n      0x20\n      dup1\n      swap2\n      div\n      mul\n      0x20\n      add\n      mload(0x40)\n      swap1\n      dup2\n      add\n      0x40\n      mstore\n      dup1\n      swap3\n      swap2\n      swap1\n      dup2\n      dup2\n      mstore\n      0x20\n      add\n      dup3\n      dup1\n      sload\n      0x01\n      dup2\n      0x01\n      and\n      iszero\n      0x0100\n      mul\n      sub\n      and\n      0x02\n      swap1\n      div\n      dup1\n      iszero\n      tag_273\n      jumpi\n      dup1\n      0x1f\n      lt\n      tag_274\n      jumpi\n      0x0100\n      dup1\n      dup4\n      sload\n      div\n      mul\n      dup4\n      mstore\n      swap2\n      0x20\n      add\n      swap2\n      jump(tag_273)\n    tag_274:\n      dup3\n      add\n      swap2\n      swap1\n      0x00\n      mstore\n      keccak256(0x00, 0x20)\n      swap1\n    tag_275:\n      dup2\n      sload\n      dup2\n      mstore\n      swap1\n      0x01\n      add\n      swap1\n      0x20\n      add\n      dup1\n      dup4\n      gt\n      tag_275\n      jumpi\n      dup3\n      swap1\n      sub\n      0x1f\n      and\n      dup3\n      add\n      swap2\n    tag_273:\n      pop\n      pop\n      pop\n      pop\n      pop\n      swap1\n      dup1\n      0x05\n      add\n      sload\n      swap1\n      dup1\n      0x06\n      add\n      sload\n      swap1\n      dup1\n      0x07\n      add\n      sload\n      swap1\n      pop\n      dup9\n      jump\t// out\n        /* \"dNews_entity.sol\":7281:7371  mapping (address =>mapping(address=>news_content[])) public Denied_Permission_ChildContent */\n    tag_109:\n      mstore(0x20, 0x0a)\n      dup3\n      0x00\n      mstore\n      mstore(0x20, keccak256(0x00, 0x40))\n      dup2\n      0x00\n      mstore\n      keccak256(0x00, 0x40)\n      dup2\n      dup2\n      sload\n      dup2\n      lt\n      tag_276\n      jumpi\n      invalid\n    tag_276:\n      swap1\n      0x00\n      mstore\n      keccak256(0x00, 0x20)\n      swap1\n      0x08\n      mul\n      add\n      0x00\n      swap3\n      pop\n      swap3\n      pop\n      pop\n      pop\n      dup1\n      0x00\n      add\n      dup1\n      sload\n      0x01\n      dup2\n      0x01\n      and\n      iszero\n      0x0100\n      mul\n      sub\n      and\n      0x02\n      swap1\n      div\n      dup1\n      0x1f\n      add\n      0x20\n      dup1\n      swap2\n      div\n      mul\n      0x20\n      add\n      mload(0x40)\n      swap1\n      dup2\n      add\n      0x40\n      mstore\n      dup1\n      swap3\n      swap2\n      swap1\n      dup2\n      dup2\n      mstore\n      0x20\n      add\n      dup3\n      dup1\n      sload\n      0x01\n      dup2\n      0x01\n      and\n      iszero\n      0x0100\n      mul\n      sub\n      and\n      0x02\n      swap1\n      div\n      dup1\n      iszero\n      tag_278\n      jumpi\n      dup1\n      0x1f\n      lt\n      tag_279\n      jumpi\n      0x0100\n      dup1\n      dup4\n      sload\n      div\n      mul\n      dup4\n      mstore\n      swap2\n      0x20\n      add\n      swap2\n      jump(tag_278)\n    tag_279:\n      dup3\n      add\n      swap2\n      swap1\n      0x00\n      mstore\n      keccak256(0x00, 0x20)\n      swap1\n    tag_280:\n      dup2\n      sload\n      dup2\n      mstore\n      swap1\n      0x01\n      add\n      swap1\n      0x20\n      add\n      dup1\n      dup4\n      gt\n      tag_280\n      jumpi\n      dup3\n      swap1\n      sub\n      0x1f\n      and\n      dup3\n      add\n      swap2\n    tag_278:\n      pop\n      pop\n      pop\n      pop\n      pop\n      swap1\n      dup1\n      0x01\n      add\n      0x00\n      swap1\n      sload\n      swap1\n      0x0100\n      exp\n      swap1\n      div\n      0xffffffffffffffffffffffffffffffffffffffff\n      and\n      swap1\n      dup1\n      0x02\n      add\n      dup1\n      sload\n      0x01\n      dup2\n      0x01\n      and\n      iszero\n      0x0100\n      mul\n      sub\n      and\n      0x02\n      swap1\n      div\n      dup1\n      0x1f\n      add\n      0x20\n      dup1\n      swap2\n      div\n      mul\n      0x20\n      add\n      mload(0x40)\n      swap1\n      dup2\n      add\n      0x40\n      mstore\n      dup1\n      swap3\n      swap2\n      swap1\n      dup2\n      dup2\n      mstore\n      0x20\n      add\n      dup3\n      dup1\n      sload\n      0x01\n      dup2\n      0x01\n      and\n      iszero\n      0x0100\n      mul\n      sub\n      and\n      0x02\n      swap1\n      div\n      dup1\n      iszero\n      tag_281\n      jumpi\n      dup1\n      0x1f\n      lt\n      tag_282\n      jumpi\n      0x0100\n      dup1\n      dup4\n      sload\n      div\n      mul\n      dup4\n      mstore\n      swap2\n      0x20\n      add\n      swap2\n      jump(tag_281)\n    tag_282:\n      dup3\n      add\n      swap2\n      swap1\n      0x00\n      mstore\n      keccak256(0x00, 0x20)\n      swap1\n    tag_283:\n      dup2\n      sload\n      dup2\n      mstore\n      swap1\n      0x01\n      add\n      swap1\n      0x20\n      add\n      dup1\n      dup4\n      gt\n      tag_283\n      jumpi\n      dup3\n      swap1\n      sub\n      0x1f\n      and\n      dup3\n      add\n      swap2\n    tag_281:\n      pop\n      pop\n      pop\n      pop\n      pop\n      swap1\n      dup1\n      0x03\n      add\n      0x00\n      swap1\n      sload\n      swap1\n      0x0100\n      exp\n      swap1\n      div\n      0xffffffffffffffffffffffffffffffffffffffff\n      and\n      swap1\n      dup1\n      0x04\n      add\n      dup1\n      sload\n      0x01\n      dup2\n      0x01\n      and\n      iszero\n      0x0100\n      mul\n      sub\n      and\n      0x02\n      swap1\n      div\n      dup1\n      0x1f\n      add\n      0x20\n      dup1\n      swap2\n      div\n      mul\n      0x20\n      add\n      mload(0x40)\n      swap1\n      dup2\n      add\n      0x40\n      mstore\n      dup1\n      swap3\n      swap2\n      swap1\n      dup2\n      dup2\n      mstore\n      0x20\n      add\n      dup3\n      dup1\n      sload\n      0x01\n      dup2\n      0x01\n      and\n      iszero\n      0x0100\n      mul\n      sub\n      and\n      0x02\n      swap1\n      div\n      dup1\n      iszero\n      tag_284\n      jumpi\n      dup1\n      0x1f\n      lt\n      tag_285\n      jumpi\n      0x0100\n      dup1\n      dup4\n      sload\n      div\n      mul\n      dup4\n      mstore\n      swap2\n      0x20\n      add\n      swap2\n      jump(tag_284)\n    tag_285:\n      dup3\n      add\n      swap2\n      swap1\n      0x00\n      mstore\n      keccak256(0x00, 0x20)\n      swap1\n    tag_286:\n      dup2\n      sload\n      dup2\n      mstore\n      swap1\n      0x01\n      add\n      swap1\n      0x20\n      add\n      dup1\n      dup4\n      gt\n      tag_286\n      jumpi\n      dup3\n      swap1\n      sub\n      0x1f\n      and\n      dup3\n      add\n      swap2\n    tag_284:\n      pop\n      pop\n      pop\n      pop\n      pop\n      swap1\n      dup1\n      0x05\n      add\n      sload\n      swap1\n      dup1\n      0x06\n      add\n      sload\n      swap1\n      dup1\n      0x07\n      add\n      sload\n      swap1\n      pop\n      dup9\n      jump\t// out\n        /* \"dNews_entity.sol\":10617:11884  function Attestation(bool result, bytes32 hash, string memory meta, address editor, uint index) public{\r... */\n    tag_114:\n        /* \"dNews_entity.sol\":10730:10738  uint num */\n      0x00\n        /* \"dNews_entity.sol\":10741:10752  indexlength */\n      0x0c\n        /* \"dNews_entity.sol\":10741:10764  indexlength[msg.sender] */\n      0x00\n        /* \"dNews_entity.sol\":10753:10763  msg.sender */\n      caller\n        /* \"dNews_entity.sol\":10741:10764  indexlength[msg.sender] */\n      0xffffffffffffffffffffffffffffffffffffffff\n      and\n      0xffffffffffffffffffffffffffffffffffffffff\n      and\n      dup2\n      mstore\n      0x20\n      add\n      swap1\n      dup2\n      mstore\n      0x20\n      add\n      0x00\n      keccak256\n        /* \"dNews_entity.sol\":10741:10771  indexlength[msg.sender][index] */\n      0x00\n        /* \"dNews_entity.sol\":10765:10770  index */\n      dup4\n        /* \"dNews_entity.sol\":10741:10771  indexlength[msg.sender][index] */\n      dup2\n      mstore\n      0x20\n      add\n      swap1\n      dup2\n      mstore\n      0x20\n      add\n      0x00\n      keccak256\n      sload\n        /* \"dNews_entity.sol\":10730:10771  uint num = indexlength[msg.sender][index] */\n      swap1\n      pop\n        /* \"dNews_entity.sol\":10822:10828  editor */\n      dup3\n        /* \"dNews_entity.sol\":10790:10828  Requests[msg.sender][num].EA == editor */\n      0xffffffffffffffffffffffffffffffffffffffff\n      and\n        /* \"dNews_entity.sol\":10790:10798  Requests */\n      0x08\n        /* \"dNews_entity.sol\":10790:10810  Requests[msg.sender] */\n      0x00\n        /* \"dNews_entity.sol\":10799:10809  msg.sender */\n      caller\n        /* \"dNews_entity.sol\":10790:10810  Requests[msg.sender] */\n      0xffffffffffffffffffffffffffffffffffffffff\n      and\n      0xffffffffffffffffffffffffffffffffffffffff\n      and\n      dup2\n      mstore\n      0x20\n      add\n      swap1\n      dup2\n      mstore\n      0x20\n      add\n      0x00\n      keccak256\n        /* \"dNews_entity.sol\":10811:10814  num */\n      dup3\n        /* \"dNews_entity.sol\":10790:10815  Requests[msg.sender][num] */\n      dup2\n      sload\n      dup2\n      lt\n      tag_288\n      jumpi\n      invalid\n    tag_288:\n      swap1\n      0x00\n      mstore\n      keccak256(0x00, 0x20)\n      swap1\n      0x04\n      mul\n      add\n        /* \"dNews_entity.sol\":10790:10818  Requests[msg.sender][num].EA */\n      0x00\n      add\n      0x01\n      swap1\n      sload\n      swap1\n      0x0100\n      exp\n      swap1\n      div\n      0xffffffffffffffffffffffffffffffffffffffff\n      and\n        /* \"dNews_entity.sol\":10790:10828  Requests[msg.sender][num].EA == editor */\n      0xffffffffffffffffffffffffffffffffffffffff\n      and\n      eq\n        /* \"dNews_entity.sol\":10782:10829  require(Requests[msg.sender][num].EA == editor) */\n      tag_290\n      jumpi\n        /* \"--CODEGEN--\":12:13   */\n      0x00\n        /* \"--CODEGEN--\":9:10   */\n      dup1\n        /* \"--CODEGEN--\":2:14   */\n      revert\n        /* \"dNews_entity.sol\":10782:10829  require(Requests[msg.sender][num].EA == editor) */\n    tag_290:\n        /* \"dNews_entity.sol\":10883:10911  ownerState.GrantedPermission */\n      0x01\n        /* \"dNews_entity.sol\":10848:10911  Requests[msg.sender][num].state == ownerState.GrantedPermission */\n      0x05\n      dup2\n      gt\n      iszero\n      tag_291\n      jumpi\n      invalid\n    tag_291:\n        /* \"dNews_entity.sol\":10848:10856  Requests */\n      0x08\n        /* \"dNews_entity.sol\":10848:10868  Requests[msg.sender] */\n      0x00\n        /* \"dNews_entity.sol\":10857:10867  msg.sender */\n      caller\n        /* \"dNews_entity.sol\":10848:10868  Requests[msg.sender] */\n      0xffffffffffffffffffffffffffffffffffffffff\n      and\n      0xffffffffffffffffffffffffffffffffffffffff\n      and\n      dup2\n      mstore\n      0x20\n      add\n      swap1\n      dup2\n      mstore\n      0x20\n      add\n      0x00\n      keccak256\n        /* \"dNews_entity.sol\":10869:10872  num */\n      dup3\n        /* \"dNews_entity.sol\":10848:10873  Requests[msg.sender][num] */\n      dup2\n      sload\n      dup2\n      lt\n      tag_292\n      jumpi\n      invalid\n    tag_292:\n      swap1\n      0x00\n      mstore\n      keccak256(0x00, 0x20)\n      swap1\n      0x04\n      mul\n      add\n        /* \"dNews_entity.sol\":10848:10879  Requests[msg.sender][num].state */\n      0x00\n      add\n      0x00\n      swap1\n      sload\n      swap1\n      0x0100\n      exp\n      swap1\n      div\n      0xff\n      and\n        /* \"dNews_entity.sol\":10848:10911  Requests[msg.sender][num].state == ownerState.GrantedPermission */\n      0x05\n      dup2\n      gt\n      iszero\n      tag_294\n      jumpi\n      invalid\n    tag_294:\n      eq\n        /* \"dNews_entity.sol\":10840:10912  require(Requests[msg.sender][num].state == ownerState.GrantedPermission) */\n      tag_295\n      jumpi\n        /* \"--CODEGEN--\":12:13   */\n      0x00\n        /* \"--CODEGEN--\":9:10   */\n      dup1\n        /* \"--CODEGEN--\":2:14   */\n      revert\n        /* \"dNews_entity.sol\":10840:10912  require(Requests[msg.sender][num].state == ownerState.GrantedPermission) */\n    tag_295:\n        /* \"dNews_entity.sol\":10967:10971  true */\n      0x01\n        /* \"dNews_entity.sol\":10931:10971  Requests[msg.sender][num].result == true */\n      iszero\n      iszero\n        /* \"dNews_entity.sol\":10931:10939  Requests */\n      0x08\n        /* \"dNews_entity.sol\":10931:10951  Requests[msg.sender] */\n      0x00\n        /* \"dNews_entity.sol\":10940:10950  msg.sender */\n      caller\n        /* \"dNews_entity.sol\":10931:10951  Requests[msg.sender] */\n      0xffffffffffffffffffffffffffffffffffffffff\n      and\n      0xffffffffffffffffffffffffffffffffffffffff\n      and\n      dup2\n      mstore\n      0x20\n      add\n      swap1\n      dup2\n      mstore\n      0x20\n      add\n      0x00\n      keccak256\n        /* \"dNews_entity.sol\":10952:10955  num */\n      dup3\n        /* \"dNews_entity.sol\":10931:10956  Requests[msg.sender][num] */\n      dup2\n      sload\n      dup2\n      lt\n      tag_296\n      jumpi\n      invalid\n    tag_296:\n      swap1\n      0x00\n      mstore\n      keccak256(0x00, 0x20)\n      swap1\n      0x04\n      mul\n      add\n        /* \"dNews_entity.sol\":10931:10963  Requests[msg.sender][num].result */\n      0x03\n      add\n      0x00\n      swap1\n      sload\n      swap1\n      0x0100\n      exp\n      swap1\n      div\n      0xff\n      and\n        /* \"dNews_entity.sol\":10931:10971  Requests[msg.sender][num].result == true */\n      iszero\n      iszero\n      eq\n        /* \"dNews_entity.sol\":10923:10972  require(Requests[msg.sender][num].result == true) */\n      tag_298\n      jumpi\n        /* \"--CODEGEN--\":12:13   */\n      0x00\n        /* \"--CODEGEN--\":9:10   */\n      dup1\n        /* \"--CODEGEN--\":2:14   */\n      revert\n        /* \"dNews_entity.sol\":10923:10972  require(Requests[msg.sender][num].result == true) */\n    tag_298:\n        /* \"dNews_entity.sol\":10983:11007  news_content memory temp */\n      tag_299\n      tag_203\n      jump\t// in\n    tag_299:\n        /* \"dNews_entity.sol\":11034:11044  msg.sender */\n      caller\n        /* \"dNews_entity.sol\":11018:11022  temp */\n      dup2\n        /* \"dNews_entity.sol\":11018:11031  temp.jourAddr */\n      0x20\n      add\n        /* \"dNews_entity.sol\":11018:11044  temp.jourAddr = msg.sender */\n      swap1\n      0xffffffffffffffffffffffffffffffffffffffff\n      and\n      swap1\n      dup2\n      0xffffffffffffffffffffffffffffffffffffffff\n      and\n      dup2\n      mstore\n      pop\n      pop\n        /* \"dNews_entity.sol\":11072:11076  hash */\n      dup6\n        /* \"dNews_entity.sol\":11055:11059  temp */\n      dup2\n        /* \"dNews_entity.sol\":11055:11069  temp.IPFS_Hash */\n      0xa0\n      add\n        /* \"dNews_entity.sol\":11055:11076  temp.IPFS_Hash = hash */\n      dup2\n      dup2\n      mstore\n      pop\n      pop\n        /* \"dNews_entity.sol\":11104:11119  block.timestamp */\n      timestamp\n        /* \"dNews_entity.sol\":11087:11091  temp */\n      dup2\n        /* \"dNews_entity.sol\":11087:11101  temp.timestamp */\n      0xc0\n      add\n        /* \"dNews_entity.sol\":11087:11119  temp.timestamp = block.timestamp */\n      dup2\n      dup2\n      mstore\n      pop\n      pop\n        /* \"dNews_entity.sol\":11146:11150  meta */\n      dup5\n        /* \"dNews_entity.sol\":11130:11134  temp */\n      dup2\n        /* \"dNews_entity.sol\":11130:11143  temp.metadata */\n      0x80\n      add\n        /* \"dNews_entity.sol\":11130:11150  temp.metadata = meta */\n      dup2\n      swap1\n      mstore\n      pop\n        /* \"dNews_entity.sol\":11164:11170  result */\n      dup7\n        /* \"dNews_entity.sol\":11161:11877  if(result){\r... */\n      iszero\n      tag_300\n      jumpi\n        /* \"dNews_entity.sol\":11186:11217  Granted_Permission_ChildContent */\n      0x09\n        /* \"dNews_entity.sol\":11186:11229  Granted_Permission_ChildContent[msg.sender] */\n      0x00\n        /* \"dNews_entity.sol\":11218:11228  msg.sender */\n      caller\n        /* \"dNews_entity.sol\":11186:11229  Granted_Permission_ChildContent[msg.sender] */\n      0xffffffffffffffffffffffffffffffffffffffff\n      and\n      0xffffffffffffffffffffffffffffffffffffffff\n      and\n      dup2\n      mstore\n      0x20\n      add\n      swap1\n      dup2\n      mstore\n      0x20\n      add\n      0x00\n      keccak256\n        /* \"dNews_entity.sol\":11186:11237  Granted_Permission_ChildContent[msg.sender][editor] */\n      0x00\n        /* \"dNews_entity.sol\":11230:11236  editor */\n      dup6\n        /* \"dNews_entity.sol\":11186:11237  Granted_Permission_ChildContent[msg.sender][editor] */\n      0xffffffffffffffffffffffffffffffffffffffff\n      and\n      0xffffffffffffffffffffffffffffffffffffffff\n      and\n      dup2\n      mstore\n      0x20\n      add\n      swap1\n      dup2\n      mstore\n      0x20\n      add\n      0x00\n      keccak256\n        /* \"dNews_entity.sol\":11243:11247  temp */\n      dup2\n        /* \"dNews_entity.sol\":11186:11248  Granted_Permission_ChildContent[msg.sender][editor].push(temp) */\n      swap1\n      dup1\n        /* \"--CODEGEN--\":39:40   */\n      0x01\n        /* \"--CODEGEN--\":33:36   */\n      dup2\n        /* \"--CODEGEN--\":27:37   */\n      sload\n        /* \"--CODEGEN--\":23:41   */\n      add\n        /* \"--CODEGEN--\":57:67   */\n      dup1\n        /* \"--CODEGEN--\":52:55   */\n      dup3\n        /* \"--CODEGEN--\":45:68   */\n      sstore\n        /* \"--CODEGEN--\":79:89   */\n      dup1\n        /* \"--CODEGEN--\":72:89   */\n      swap2\n      pop\n        /* \"--CODEGEN--\":0:93   */\n      pop\n        /* \"dNews_entity.sol\":11186:11248  Granted_Permission_ChildContent[msg.sender][editor].push(temp) */\n      0x01\n      swap1\n      sub\n      swap1\n      0x00\n      mstore\n      keccak256(0x00, 0x20)\n      swap1\n      0x08\n      mul\n      add\n      0x00\n      swap1\n      swap2\n      swap1\n      swap2\n      swap1\n      swap2\n      pop\n      0x00\n      dup3\n      add\n      mload\n      dup2\n      0x00\n      add\n      swap1\n      dup1\n      mload\n      swap1\n      0x20\n      add\n      swap1\n      tag_302\n      swap3\n      swap2\n      swap1\n      tag_196\n      jump\t// in\n    tag_302:\n      pop\n      0x20\n      dup3\n      add\n      mload\n      dup2\n      0x01\n      add\n      exp(0x0100, 0x00)\n      dup2\n      sload\n      dup2\n      0xffffffffffffffffffffffffffffffffffffffff\n      mul\n      not\n      and\n      swap1\n      dup4\n      0xffffffffffffffffffffffffffffffffffffffff\n      and\n      mul\n      or\n      swap1\n      sstore\n      pop\n      0x40\n      dup3\n      add\n      mload\n      dup2\n      0x02\n      add\n      swap1\n      dup1\n      mload\n      swap1\n      0x20\n      add\n      swap1\n      tag_303\n      swap3\n      swap2\n      swap1\n      tag_196\n      jump\t// in\n    tag_303:\n      pop\n      0x60\n      dup3\n      add\n      mload\n      dup2\n      0x03\n      add\n      exp(0x0100, 0x00)\n      dup2\n      sload\n      dup2\n      0xffffffffffffffffffffffffffffffffffffffff\n      mul\n      not\n      and\n      swap1\n      dup4\n      0xffffffffffffffffffffffffffffffffffffffff\n      and\n      mul\n      or\n      swap1\n      sstore\n      pop\n      0x80\n      dup3\n      add\n      mload\n      dup2\n      0x04\n      add\n      swap1\n      dup1\n      mload\n      swap1\n      0x20\n      add\n      swap1\n      tag_304\n      swap3\n      swap2\n      swap1\n      tag_196\n      jump\t// in\n    tag_304:\n      pop\n      0xa0\n      dup3\n      add\n      mload\n      dup2\n      0x05\n      add\n      sstore\n      0xc0\n      dup3\n      add\n      mload\n      dup2\n      0x06\n      add\n      sstore\n      0xe0\n      dup3\n      add\n      mload\n      dup2\n      0x07\n      add\n      sstore\n      pop\n      pop\n        /* \"dNews_entity.sol\":11362:11363  1 */\n      0x01\n        /* \"dNews_entity.sol\":11302:11333  Granted_Permission_ChildContent */\n      0x09\n        /* \"dNews_entity.sol\":11302:11345  Granted_Permission_ChildContent[msg.sender] */\n      0x00\n        /* \"dNews_entity.sol\":11334:11344  msg.sender */\n      caller\n        /* \"dNews_entity.sol\":11302:11345  Granted_Permission_ChildContent[msg.sender] */\n      0xffffffffffffffffffffffffffffffffffffffff\n      and\n      0xffffffffffffffffffffffffffffffffffffffff\n      and\n      dup2\n      mstore\n      0x20\n      add\n      swap1\n      dup2\n      mstore\n      0x20\n      add\n      0x00\n      keccak256\n        /* \"dNews_entity.sol\":11302:11353  Granted_Permission_ChildContent[msg.sender][editor] */\n      0x00\n        /* \"dNews_entity.sol\":11346:11352  editor */\n      dup7\n        /* \"dNews_entity.sol\":11302:11353  Granted_Permission_ChildContent[msg.sender][editor] */\n      0xffffffffffffffffffffffffffffffffffffffff\n      and\n      0xffffffffffffffffffffffffffffffffffffffff\n      and\n      dup2\n      mstore\n      0x20\n      add\n      swap1\n      dup2\n      mstore\n      0x20\n      add\n      0x00\n      keccak256\n        /* \"dNews_entity.sol\":11302:11360  Granted_Permission_ChildContent[msg.sender][editor].length */\n      dup1\n      sload\n      swap1\n      pop\n        /* \"dNews_entity.sol\":11302:11363  Granted_Permission_ChildContent[msg.sender][editor].length -1 */\n      sub\n        /* \"dNews_entity.sol\":11263:11280  indexlengthattest */\n      0x0e\n        /* \"dNews_entity.sol\":11263:11292  indexlengthattest[msg.sender] */\n      0x00\n        /* \"dNews_entity.sol\":11281:11291  msg.sender */\n      caller\n        /* \"dNews_entity.sol\":11263:11292  indexlengthattest[msg.sender] */\n      0xffffffffffffffffffffffffffffffffffffffff\n      and\n      0xffffffffffffffffffffffffffffffffffffffff\n      and\n      dup2\n      mstore\n      0x20\n      add\n      swap1\n      dup2\n      mstore\n      0x20\n      add\n      0x00\n      keccak256\n        /* \"dNews_entity.sol\":11263:11299  indexlengthattest[msg.sender][index] */\n      0x00\n        /* \"dNews_entity.sol\":11293:11298  index */\n      dup6\n        /* \"dNews_entity.sol\":11263:11299  indexlengthattest[msg.sender][index] */\n      dup2\n      mstore\n      0x20\n      add\n      swap1\n      dup2\n      mstore\n      0x20\n      add\n      0x00\n      keccak256\n        /* \"dNews_entity.sol\":11263:11363  indexlengthattest[msg.sender][index] = Granted_Permission_ChildContent[msg.sender][editor].length -1 */\n      dup2\n      swap1\n      sstore\n      pop\n        /* \"dNews_entity.sol\":11412:11441  ownerState.GrantedAttestation */\n      0x04\n        /* \"dNews_entity.sol\":11378:11386  Requests */\n      0x08\n        /* \"dNews_entity.sol\":11378:11398  Requests[msg.sender] */\n      0x00\n        /* \"dNews_entity.sol\":11387:11397  msg.sender */\n      caller\n        /* \"dNews_entity.sol\":11378:11398  Requests[msg.sender] */\n      0xffffffffffffffffffffffffffffffffffffffff\n      and\n      0xffffffffffffffffffffffffffffffffffffffff\n      and\n      dup2\n      mstore\n      0x20\n      add\n      swap1\n      dup2\n      mstore\n      0x20\n      add\n      0x00\n      keccak256\n        /* \"dNews_entity.sol\":11399:11402  num */\n      dup4\n        /* \"dNews_entity.sol\":11378:11403  Requests[msg.sender][num] */\n      dup2\n      sload\n      dup2\n      lt\n      tag_305\n      jumpi\n      invalid\n    tag_305:\n      swap1\n      0x00\n      mstore\n      keccak256(0x00, 0x20)\n      swap1\n      0x04\n      mul\n      add\n        /* \"dNews_entity.sol\":11378:11409  Requests[msg.sender][num].state */\n      0x00\n      add\n      0x00\n        /* \"dNews_entity.sol\":11378:11441  Requests[msg.sender][num].state = ownerState.GrantedAttestation */\n      0x0100\n      exp\n      dup2\n      sload\n      dup2\n      0xff\n      mul\n      not\n      and\n      swap1\n      dup4\n      0x05\n      dup2\n      gt\n      iszero\n      tag_307\n      jumpi\n      invalid\n    tag_307:\n      mul\n      or\n      swap1\n      sstore\n      pop\n        /* \"dNews_entity.sol\":11456:11509  AttestationGranted(\"Successfully Attested: \", editor) */\n      0x9284a3a973ddff1d3e244c1e83925819c36925fb080960eb3f826bf9bb9bf210\n        /* \"dNews_entity.sol\":11502:11508  editor */\n      dup5\n        /* \"dNews_entity.sol\":11456:11509  AttestationGranted(\"Successfully Attested: \", editor) */\n      mload(0x40)\n      tag_308\n      swap2\n      swap1\n      jump(tag_309)\n    tag_308:\n      mload(0x40)\n      dup1\n      swap2\n      sub\n      swap1\n      log1\n        /* \"dNews_entity.sol\":11161:11877  if(result){\r... */\n      jump(tag_310)\n    tag_300:\n        /* \"dNews_entity.sol\":11551:11581  Denied_Permission_ChildContent */\n      0x0a\n        /* \"dNews_entity.sol\":11551:11593  Denied_Permission_ChildContent[msg.sender] */\n      0x00\n        /* \"dNews_entity.sol\":11582:11592  msg.sender */\n      caller\n        /* \"dNews_entity.sol\":11551:11593  Denied_Permission_ChildContent[msg.sender] */\n      0xffffffffffffffffffffffffffffffffffffffff\n      and\n      0xffffffffffffffffffffffffffffffffffffffff\n      and\n      dup2\n      mstore\n      0x20\n      add\n      swap1\n      dup2\n      mstore\n      0x20\n      add\n      0x00\n      keccak256\n        /* \"dNews_entity.sol\":11551:11601  Denied_Permission_ChildContent[msg.sender][editor] */\n      0x00\n        /* \"dNews_entity.sol\":11594:11600  editor */\n      dup6\n        /* \"dNews_entity.sol\":11551:11601  Denied_Permission_ChildContent[msg.sender][editor] */\n      0xffffffffffffffffffffffffffffffffffffffff\n      and\n      0xffffffffffffffffffffffffffffffffffffffff\n      and\n      dup2\n      mstore\n      0x20\n      add\n      swap1\n      dup2\n      mstore\n      0x20\n      add\n      0x00\n      keccak256\n        /* \"dNews_entity.sol\":11607:11611  temp */\n      dup2\n        /* \"dNews_entity.sol\":11551:11612  Denied_Permission_ChildContent[msg.sender][editor].push(temp) */\n      swap1\n      dup1\n        /* \"--CODEGEN--\":39:40   */\n      0x01\n        /* \"--CODEGEN--\":33:36   */\n      dup2\n        /* \"--CODEGEN--\":27:37   */\n      sload\n        /* \"--CODEGEN--\":23:41   */\n      add\n        /* \"--CODEGEN--\":57:67   */\n      dup1\n        /* \"--CODEGEN--\":52:55   */\n      dup3\n        /* \"--CODEGEN--\":45:68   */\n      sstore\n        /* \"--CODEGEN--\":79:89   */\n      dup1\n        /* \"--CODEGEN--\":72:89   */\n      swap2\n      pop\n        /* \"--CODEGEN--\":0:93   */\n      pop\n        /* \"dNews_entity.sol\":11551:11612  Denied_Permission_ChildContent[msg.sender][editor].push(temp) */\n      0x01\n      swap1\n      sub\n      swap1\n      0x00\n      mstore\n      keccak256(0x00, 0x20)\n      swap1\n      0x08\n      mul\n      add\n      0x00\n      swap1\n      swap2\n      swap1\n      swap2\n      swap1\n      swap2\n      pop\n      0x00\n      dup3\n      add\n      mload\n      dup2\n      0x00\n      add\n      swap1\n      dup1\n      mload\n      swap1\n      0x20\n      add\n      swap1\n      tag_312\n      swap3\n      swap2\n      swap1\n      tag_196\n      jump\t// in\n    tag_312:\n      pop\n      0x20\n      dup3\n      add\n      mload\n      dup2\n      0x01\n      add\n      exp(0x0100, 0x00)\n      dup2\n      sload\n      dup2\n      0xffffffffffffffffffffffffffffffffffffffff\n      mul\n      not\n      and\n      swap1\n      dup4\n      0xffffffffffffffffffffffffffffffffffffffff\n      and\n      mul\n      or\n      swap1\n      sstore\n      pop\n      0x40\n      dup3\n      add\n      mload\n      dup2\n      0x02\n      add\n      swap1\n      dup1\n      mload\n      swap1\n      0x20\n      add\n      swap1\n      tag_313\n      swap3\n      swap2\n      swap1\n      tag_196\n      jump\t// in\n    tag_313:\n      pop\n      0x60\n      dup3\n      add\n      mload\n      dup2\n      0x03\n      add\n      exp(0x0100, 0x00)\n      dup2\n      sload\n      dup2\n      0xffffffffffffffffffffffffffffffffffffffff\n      mul\n      not\n      and\n      swap1\n      dup4\n      0xffffffffffffffffffffffffffffffffffffffff\n      and\n      mul\n      or\n      swap1\n      sstore\n      pop\n      0x80\n      dup3\n      add\n      mload\n      dup2\n      0x04\n      add\n      swap1\n      dup1\n      mload\n      swap1\n      0x20\n      add\n      swap1\n      tag_314\n      swap3\n      swap2\n      swap1\n      tag_196\n      jump\t// in\n    tag_314:\n      pop\n      0xa0\n      dup3\n      add\n      mload\n      dup2\n      0x05\n      add\n      sstore\n      0xc0\n      dup3\n      add\n      mload\n      dup2\n      0x06\n      add\n      sstore\n      0xe0\n      dup3\n      add\n      mload\n      dup2\n      0x07\n      add\n      sstore\n      pop\n      pop\n        /* \"dNews_entity.sol\":11725:11726  1 */\n      0x01\n        /* \"dNews_entity.sol\":11666:11696  Denied_Permission_ChildContent */\n      0x0a\n        /* \"dNews_entity.sol\":11666:11708  Denied_Permission_ChildContent[msg.sender] */\n      0x00\n        /* \"dNews_entity.sol\":11697:11707  msg.sender */\n      caller\n        /* \"dNews_entity.sol\":11666:11708  Denied_Permission_ChildContent[msg.sender] */\n      0xffffffffffffffffffffffffffffffffffffffff\n      and\n      0xffffffffffffffffffffffffffffffffffffffff\n      and\n      dup2\n      mstore\n      0x20\n      add\n      swap1\n      dup2\n      mstore\n      0x20\n      add\n      0x00\n      keccak256\n        /* \"dNews_entity.sol\":11666:11716  Denied_Permission_ChildContent[msg.sender][editor] */\n      0x00\n        /* \"dNews_entity.sol\":11709:11715  editor */\n      dup7\n        /* \"dNews_entity.sol\":11666:11716  Denied_Permission_ChildContent[msg.sender][editor] */\n      0xffffffffffffffffffffffffffffffffffffffff\n      and\n      0xffffffffffffffffffffffffffffffffffffffff\n      and\n      dup2\n      mstore\n      0x20\n      add\n      swap1\n      dup2\n      mstore\n      0x20\n      add\n      0x00\n      keccak256\n        /* \"dNews_entity.sol\":11666:11723  Denied_Permission_ChildContent[msg.sender][editor].length */\n      dup1\n      sload\n      swap1\n      pop\n        /* \"dNews_entity.sol\":11666:11726  Denied_Permission_ChildContent[msg.sender][editor].length -1 */\n      sub\n        /* \"dNews_entity.sol\":11627:11644  indexlengthattest */\n      0x0e\n        /* \"dNews_entity.sol\":11627:11656  indexlengthattest[msg.sender] */\n      0x00\n        /* \"dNews_entity.sol\":11645:11655  msg.sender */\n      caller\n        /* \"dNews_entity.sol\":11627:11656  indexlengthattest[msg.sender] */\n      0xffffffffffffffffffffffffffffffffffffffff\n      and\n      0xffffffffffffffffffffffffffffffffffffffff\n      and\n      dup2\n      mstore\n      0x20\n      add\n      swap1\n      dup2\n      mstore\n      0x20\n      add\n      0x00\n      keccak256\n        /* \"dNews_entity.sol\":11627:11663  indexlengthattest[msg.sender][index] */\n      0x00\n        /* \"dNews_entity.sol\":11657:11662  index */\n      dup6\n        /* \"dNews_entity.sol\":11627:11663  indexlengthattest[msg.sender][index] */\n      dup2\n      mstore\n      0x20\n      add\n      swap1\n      dup2\n      mstore\n      0x20\n      add\n      0x00\n      keccak256\n        /* \"dNews_entity.sol\":11627:11726  indexlengthattest[msg.sender][index] = Denied_Permission_ChildContent[msg.sender][editor].length -1 */\n      dup2\n      swap1\n      sstore\n      pop\n        /* \"dNews_entity.sol\":11775:11803  ownerState.DeniedAttestation */\n      0x05\n        /* \"dNews_entity.sol\":11741:11749  Requests */\n      0x08\n        /* \"dNews_entity.sol\":11741:11761  Requests[msg.sender] */\n      0x00\n        /* \"dNews_entity.sol\":11750:11760  msg.sender */\n      caller\n        /* \"dNews_entity.sol\":11741:11761  Requests[msg.sender] */\n      0xffffffffffffffffffffffffffffffffffffffff\n      and\n      0xffffffffffffffffffffffffffffffffffffffff\n      and\n      dup2\n      mstore\n      0x20\n      add\n      swap1\n      dup2\n      mstore\n      0x20\n      add\n      0x00\n      keccak256\n        /* \"dNews_entity.sol\":11762:11765  num */\n      dup4\n        /* \"dNews_entity.sol\":11741:11766  Requests[msg.sender][num] */\n      dup2\n      sload\n      dup2\n      lt\n      tag_315\n      jumpi\n      invalid\n    tag_315:\n      swap1\n      0x00\n      mstore\n      keccak256(0x00, 0x20)\n      swap1\n      0x04\n      mul\n      add\n        /* \"dNews_entity.sol\":11741:11772  Requests[msg.sender][num].state */\n      0x00\n      add\n      0x00\n        /* \"dNews_entity.sol\":11741:11803  Requests[msg.sender][num].state = ownerState.DeniedAttestation */\n      0x0100\n      exp\n      dup2\n      sload\n      dup2\n      0xff\n      mul\n      not\n      and\n      swap1\n      dup4\n      0x05\n      dup2\n      gt\n      iszero\n      tag_317\n      jumpi\n      invalid\n    tag_317:\n      mul\n      or\n      swap1\n      sstore\n      pop\n        /* \"dNews_entity.sol\":11818:11865  AttestationDenied(\"Failure Attested: \", editor) */\n      0x3b749fd3ed05012aa59143f387db1a9f0ad29515177c5476b7de22989d3d4ffe\n        /* \"dNews_entity.sol\":11858:11864  editor */\n      dup5\n        /* \"dNews_entity.sol\":11818:11865  AttestationDenied(\"Failure Attested: \", editor) */\n      mload(0x40)\n      tag_318\n      swap2\n      swap1\n      jump(tag_319)\n    tag_318:\n      mload(0x40)\n      dup1\n      swap2\n      sub\n      swap1\n      log1\n        /* \"dNews_entity.sol\":11161:11877  if(result){\r... */\n    tag_310:\n        /* \"dNews_entity.sol\":10617:11884  function Attestation(bool result, bytes32 hash, string memory meta, address editor, uint index) public{\r... */\n      pop\n      pop\n      pop\n      pop\n      pop\n      pop\n      pop\n      jump\t// out\n        /* \"dNews_entity.sol\":2088:2383  function nccLogin(address nccAddr) public view   MediaCert_give{\r... */\n    tag_117:\n        /* \"dNews_entity.sol\":1933:1936  NCC */\n      0x00\n      dup1\n      swap1\n      sload\n      swap1\n      0x0100\n      exp\n      swap1\n      div\n      0xffffffffffffffffffffffffffffffffffffffff\n      and\n        /* \"dNews_entity.sol\":1919:1936  msg.sender == NCC */\n      0xffffffffffffffffffffffffffffffffffffffff\n      and\n        /* \"dNews_entity.sol\":1919:1929  msg.sender */\n      caller\n        /* \"dNews_entity.sol\":1919:1936  msg.sender == NCC */\n      0xffffffffffffffffffffffffffffffffffffffff\n      and\n      eq\n        /* \"dNews_entity.sol\":1911:1937  require(msg.sender == NCC) */\n      tag_321\n      jumpi\n        /* \"--CODEGEN--\":12:13   */\n      0x00\n        /* \"--CODEGEN--\":9:10   */\n      dup1\n        /* \"--CODEGEN--\":2:14   */\n      revert\n        /* \"dNews_entity.sol\":1911:1937  require(msg.sender == NCC) */\n    tag_321:\n        /* \"dNews_entity.sol\":2162:2178  Entity entityNCC */\n      0x00\n        /* \"dNews_entity.sol\":2188:2195  nccAddr */\n      dup2\n        /* \"dNews_entity.sol\":2162:2196  Entity entityNCC = Entity(nccAddr) */\n      swap1\n      pop\n        /* \"dNews_entity.sol\":2207:2225  string memory text */\n      0x60\n        /* \"dNews_entity.sol\":2228:2237  entityNCC */\n      dup2\n        /* \"dNews_entity.sol\":2228:2249  entityNCC.columnValue */\n      0xffffffffffffffffffffffffffffffffffffffff\n      and\n      0x8cba76b1\n        /* \"dNews_entity.sol\":2250:2259  nccEntity */\n      0x01\n      0x00\n      swap1\n      sload\n      swap1\n      0x0100\n      exp\n      swap1\n      div\n      0xffffffffffffffffffffffffffffffffffffffff\n      and\n        /* \"dNews_entity.sol\":2228:2284  entityNCC.columnValue(nccEntity, \"certificate\", \"isNCC\") */\n      mload(0x40)\n      dup3\n      0xffffffff\n      and\n      0xe0\n      shl\n      dup2\n      mstore\n      0x04\n      add\n      tag_323\n      swap2\n      swap1\n      jump(tag_324)\n    tag_323:\n      0x00\n      mload(0x40)\n      dup1\n      dup4\n      sub\n      dup2\n      dup7\n      dup1\n      extcodesize\n      iszero\n        /* \"--CODEGEN--\":5:14   */\n      dup1\n        /* \"--CODEGEN--\":2:4   */\n      iszero\n      tag_325\n      jumpi\n        /* \"--CODEGEN--\":27:28   */\n      0x00\n        /* \"--CODEGEN--\":24:25   */\n      dup1\n        /* \"--CODEGEN--\":17:29   */\n      revert\n        /* \"--CODEGEN--\":2:4   */\n    tag_325:\n        /* \"dNews_entity.sol\":2228:2284  entityNCC.columnValue(nccEntity, \"certificate\", \"isNCC\") */\n      pop\n      gas\n      staticcall\n      iszero\n        /* \"--CODEGEN--\":8:17   */\n      dup1\n        /* \"--CODEGEN--\":5:7   */\n      iszero\n      tag_327\n      jumpi\n        /* \"--CODEGEN--\":45:61   */\n      returndatasize\n        /* \"--CODEGEN--\":42:43   */\n      0x00\n        /* \"--CODEGEN--\":39:40   */\n      dup1\n        /* \"--CODEGEN--\":24:62   */\n      returndatacopy\n        /* \"--CODEGEN--\":77:93   */\n      returndatasize\n        /* \"--CODEGEN--\":74:75   */\n      0x00\n        /* \"--CODEGEN--\":67:94   */\n      revert\n        /* \"--CODEGEN--\":5:7   */\n    tag_327:\n        /* \"dNews_entity.sol\":2228:2284  entityNCC.columnValue(nccEntity, \"certificate\", \"isNCC\") */\n      pop\n      pop\n      pop\n      pop\n      mload(0x40)\n        /* \"--CODEGEN--\":39:55   */\n      returndatasize\n        /* \"--CODEGEN--\":36:37   */\n      0x00\n        /* \"--CODEGEN--\":17:34   */\n      dup3\n        /* \"--CODEGEN--\":2:56   */\n      returndatacopy\n        /* \"dNews_entity.sol\":2228:2284  entityNCC.columnValue(nccEntity, \"certificate\", \"isNCC\") */\n      returndatasize\n        /* \"--CODEGEN--\":101:105   */\n      0x1f\n        /* \"--CODEGEN--\":97:106   */\n      not\n        /* \"--CODEGEN--\":90:94   */\n      0x1f\n        /* \"--CODEGEN--\":84:88   */\n      dup3\n        /* \"--CODEGEN--\":80:95   */\n      add\n        /* \"--CODEGEN--\":76:107   */\n      and\n        /* \"--CODEGEN--\":69:74   */\n      dup3\n        /* \"--CODEGEN--\":65:108   */\n      add\n        /* \"--CODEGEN--\":126:132   */\n      dup1\n        /* \"--CODEGEN--\":120:124   */\n      0x40\n        /* \"--CODEGEN--\":113:133   */\n      mstore\n        /* \"--CODEGEN--\":0:138   */\n      pop\n        /* \"dNews_entity.sol\":2228:2284  entityNCC.columnValue(nccEntity, \"certificate\", \"isNCC\") */\n      dup2\n      add\n      swap1\n      tag_328\n      swap2\n      swap1\n      jump(tag_167)\n    tag_328:\n        /* \"dNews_entity.sol\":2207:2284  string memory text = entityNCC.columnValue(nccEntity, \"certificate\", \"isNCC\") */\n      swap1\n      pop\n        /* \"dNews_entity.sol\":2350:2373  abi.encodePacked(\"Yes\") */\n      add(0x20, mload(0x40))\n      tag_329\n      swap1\n      jump(tag_169)\n    tag_329:\n      mload(0x40)\n        /* \"--CODEGEN--\":49:53   */\n      0x20\n        /* \"--CODEGEN--\":39:46   */\n      dup2\n        /* \"--CODEGEN--\":30:37   */\n      dup4\n        /* \"--CODEGEN--\":26:47   */\n      sub\n        /* \"--CODEGEN--\":22:54   */\n      sub\n        /* \"--CODEGEN--\":13:20   */\n      dup2\n        /* \"--CODEGEN--\":6:55   */\n      mstore\n        /* \"dNews_entity.sol\":2350:2373  abi.encodePacked(\"Yes\") */\n      swap1\n      0x40\n      mstore\n        /* \"dNews_entity.sol\":2340:2374  keccak256(abi.encodePacked(\"Yes\")) */\n      dup1\n      mload\n      swap1\n      0x20\n      add\n      keccak256\n        /* \"dNews_entity.sol\":2330:2334  text */\n      dup2\n        /* \"dNews_entity.sol\":2313:2335  abi.encodePacked(text) */\n      add(0x20, mload(0x40))\n      tag_330\n      swap2\n      swap1\n      jump(tag_171)\n    tag_330:\n      mload(0x40)\n        /* \"--CODEGEN--\":49:53   */\n      0x20\n        /* \"--CODEGEN--\":39:46   */\n      dup2\n        /* \"--CODEGEN--\":30:37   */\n      dup4\n        /* \"--CODEGEN--\":26:47   */\n      sub\n        /* \"--CODEGEN--\":22:54   */\n      sub\n        /* \"--CODEGEN--\":13:20   */\n      dup2\n        /* \"--CODEGEN--\":6:55   */\n      mstore\n        /* \"dNews_entity.sol\":2313:2335  abi.encodePacked(text) */\n      swap1\n      0x40\n      mstore\n        /* \"dNews_entity.sol\":2303:2336  keccak256(abi.encodePacked(text)) */\n      dup1\n      mload\n      swap1\n      0x20\n      add\n      keccak256\n        /* \"dNews_entity.sol\":2303:2374  keccak256(abi.encodePacked(text)) == keccak256(abi.encodePacked(\"Yes\")) */\n      eq\n        /* \"dNews_entity.sol\":2295:2375  require(keccak256(abi.encodePacked(text)) == keccak256(abi.encodePacked(\"Yes\"))) */\n      tag_331\n      jumpi\n        /* \"--CODEGEN--\":12:13   */\n      0x00\n        /* \"--CODEGEN--\":9:10   */\n      dup1\n        /* \"--CODEGEN--\":2:14   */\n      revert\n        /* \"dNews_entity.sol\":2295:2375  require(keccak256(abi.encodePacked(text)) == keccak256(abi.encodePacked(\"Yes\"))) */\n    tag_331:\n        /* \"dNews_entity.sol\":1944:1945  _ */\n      pop\n      pop\n        /* \"dNews_entity.sol\":2088:2383  function nccLogin(address nccAddr) public view   MediaCert_give{\r... */\n      pop\n      jump\t// out\n        /* \"dNews_entity.sol\":9254:10032  function ChildContentInfo(bytes32 IPFShash, string memory metadata,address owner, uint referIndex)public {\r... */\n    tag_121:\n        /* \"dNews_entity.sol\":9371:9379  uint num */\n      0x00\n        /* \"dNews_entity.sol\":9382:9393  indexlength */\n      0x0c\n        /* \"dNews_entity.sol\":9382:9400  indexlength[owner] */\n      0x00\n        /* \"dNews_entity.sol\":9394:9399  owner */\n      dup5\n        /* \"dNews_entity.sol\":9382:9400  indexlength[owner] */\n      0xffffffffffffffffffffffffffffffffffffffff\n      and\n      0xffffffffffffffffffffffffffffffffffffffff\n      and\n      dup2\n      mstore\n      0x20\n      add\n      swap1\n      dup2\n      mstore\n      0x20\n      add\n      0x00\n      keccak256\n        /* \"dNews_entity.sol\":9382:9412  indexlength[owner][referIndex] */\n      0x00\n        /* \"dNews_entity.sol\":9401:9411  referIndex */\n      dup4\n        /* \"dNews_entity.sol\":9382:9412  indexlength[owner][referIndex] */\n      dup2\n      mstore\n      0x20\n      add\n      swap1\n      dup2\n      mstore\n      0x20\n      add\n      0x00\n      keccak256\n      sload\n        /* \"dNews_entity.sol\":9371:9412  uint num = indexlength[owner][referIndex] */\n      swap1\n      pop\n        /* \"dNews_entity.sol\":9459:9469  msg.sender */\n      caller\n        /* \"dNews_entity.sol\":9432:9469  Requests[owner][num].EA == msg.sender */\n      0xffffffffffffffffffffffffffffffffffffffff\n      and\n        /* \"dNews_entity.sol\":9432:9440  Requests */\n      0x08\n        /* \"dNews_entity.sol\":9432:9447  Requests[owner] */\n      0x00\n        /* \"dNews_entity.sol\":9441:9446  owner */\n      dup6\n        /* \"dNews_entity.sol\":9432:9447  Requests[owner] */\n      0xffffffffffffffffffffffffffffffffffffffff\n      and\n      0xffffffffffffffffffffffffffffffffffffffff\n      and\n      dup2\n      mstore\n      0x20\n      add\n      swap1\n      dup2\n      mstore\n      0x20\n      add\n      0x00\n      keccak256\n        /* \"dNews_entity.sol\":9448:9451  num */\n      dup3\n        /* \"dNews_entity.sol\":9432:9452  Requests[owner][num] */\n      dup2\n      sload\n      dup2\n      lt\n      tag_333\n      jumpi\n      invalid\n    tag_333:\n      swap1\n      0x00\n      mstore\n      keccak256(0x00, 0x20)\n      swap1\n      0x04\n      mul\n      add\n        /* \"dNews_entity.sol\":9432:9455  Requests[owner][num].EA */\n      0x00\n      add\n      0x01\n      swap1\n      sload\n      swap1\n      0x0100\n      exp\n      swap1\n      div\n      0xffffffffffffffffffffffffffffffffffffffff\n      and\n        /* \"dNews_entity.sol\":9432:9469  Requests[owner][num].EA == msg.sender */\n      0xffffffffffffffffffffffffffffffffffffffff\n      and\n      eq\n        /* \"dNews_entity.sol\":9424:9470  require(Requests[owner][num].EA == msg.sender) */\n      tag_335\n      jumpi\n        /* \"--CODEGEN--\":12:13   */\n      0x00\n        /* \"--CODEGEN--\":9:10   */\n      dup1\n        /* \"--CODEGEN--\":2:14   */\n      revert\n        /* \"dNews_entity.sol\":9424:9470  require(Requests[owner][num].EA == msg.sender) */\n    tag_335:\n        /* \"dNews_entity.sol\":9518:9546  ownerState.GrantedPermission */\n      0x01\n        /* \"dNews_entity.sol\":9490:9546  Requests[owner][num].state==ownerState.GrantedPermission */\n      0x05\n      dup2\n      gt\n      iszero\n      tag_336\n      jumpi\n      invalid\n    tag_336:\n        /* \"dNews_entity.sol\":9490:9498  Requests */\n      0x08\n        /* \"dNews_entity.sol\":9490:9505  Requests[owner] */\n      0x00\n        /* \"dNews_entity.sol\":9499:9504  owner */\n      dup6\n        /* \"dNews_entity.sol\":9490:9505  Requests[owner] */\n      0xffffffffffffffffffffffffffffffffffffffff\n      and\n      0xffffffffffffffffffffffffffffffffffffffff\n      and\n      dup2\n      mstore\n      0x20\n      add\n      swap1\n      dup2\n      mstore\n      0x20\n      add\n      0x00\n      keccak256\n        /* \"dNews_entity.sol\":9506:9509  num */\n      dup3\n        /* \"dNews_entity.sol\":9490:9510  Requests[owner][num] */\n      dup2\n      sload\n      dup2\n      lt\n      tag_337\n      jumpi\n      invalid\n    tag_337:\n      swap1\n      0x00\n      mstore\n      keccak256(0x00, 0x20)\n      swap1\n      0x04\n      mul\n      add\n        /* \"dNews_entity.sol\":9490:9516  Requests[owner][num].state */\n      0x00\n      add\n      0x00\n      swap1\n      sload\n      swap1\n      0x0100\n      exp\n      swap1\n      div\n      0xff\n      and\n        /* \"dNews_entity.sol\":9490:9546  Requests[owner][num].state==ownerState.GrantedPermission */\n      0x05\n      dup2\n      gt\n      iszero\n      tag_339\n      jumpi\n      invalid\n    tag_339:\n      eq\n        /* \"dNews_entity.sol\":9482:9547  require(Requests[owner][num].state==ownerState.GrantedPermission) */\n      tag_340\n      jumpi\n        /* \"--CODEGEN--\":12:13   */\n      0x00\n        /* \"--CODEGEN--\":9:10   */\n      dup1\n        /* \"--CODEGEN--\":2:14   */\n      revert\n        /* \"dNews_entity.sol\":9482:9547  require(Requests[owner][num].state==ownerState.GrantedPermission) */\n    tag_340:\n        /* \"dNews_entity.sol\":9558:9582  news_content memory temp */\n      tag_341\n      tag_203\n      jump\t// in\n    tag_341:\n        /* \"dNews_entity.sol\":9609:9619  msg.sender */\n      caller\n        /* \"dNews_entity.sol\":9593:9597  temp */\n      dup2\n        /* \"dNews_entity.sol\":9593:9606  temp.jourAddr */\n      0x20\n      add\n        /* \"dNews_entity.sol\":9593:9619  temp.jourAddr = msg.sender */\n      swap1\n      0xffffffffffffffffffffffffffffffffffffffff\n      and\n      swap1\n      dup2\n      0xffffffffffffffffffffffffffffffffffffffff\n      and\n      dup2\n      mstore\n      pop\n      pop\n        /* \"dNews_entity.sol\":9647:9655  IPFShash */\n      dup6\n        /* \"dNews_entity.sol\":9630:9634  temp */\n      dup2\n        /* \"dNews_entity.sol\":9630:9644  temp.IPFS_Hash */\n      0xa0\n      add\n        /* \"dNews_entity.sol\":9630:9655  temp.IPFS_Hash = IPFShash */\n      dup2\n      dup2\n      mstore\n      pop\n      pop\n        /* \"dNews_entity.sol\":9683:9698  block.timestamp */\n      timestamp\n        /* \"dNews_entity.sol\":9666:9670  temp */\n      dup2\n        /* \"dNews_entity.sol\":9666:9680  temp.timestamp */\n      0xc0\n      add\n        /* \"dNews_entity.sol\":9666:9698  temp.timestamp = block.timestamp */\n      dup2\n      dup2\n      mstore\n      pop\n      pop\n        /* \"dNews_entity.sol\":9725:9733  metadata */\n      dup5\n        /* \"dNews_entity.sol\":9709:9713  temp */\n      dup2\n        /* \"dNews_entity.sol\":9709:9722  temp.metadata */\n      0x80\n      add\n        /* \"dNews_entity.sol\":9709:9733  temp.metadata = metadata */\n      dup2\n      swap1\n      mstore\n      pop\n        /* \"dNews_entity.sol\":9744:9770  Check_Waiting_ChildContent */\n      0x0b\n        /* \"dNews_entity.sol\":9744:9782  Check_Waiting_ChildContent[msg.sender] */\n      0x00\n        /* \"dNews_entity.sol\":9771:9781  msg.sender */\n      caller\n        /* \"dNews_entity.sol\":9744:9782  Check_Waiting_ChildContent[msg.sender] */\n      0xffffffffffffffffffffffffffffffffffffffff\n      and\n      0xffffffffffffffffffffffffffffffffffffffff\n      and\n      dup2\n      mstore\n      0x20\n      add\n      swap1\n      dup2\n      mstore\n      0x20\n      add\n      0x00\n      keccak256\n        /* \"dNews_entity.sol\":9744:9789  Check_Waiting_ChildContent[msg.sender][owner] */\n      0x00\n        /* \"dNews_entity.sol\":9783:9788  owner */\n      dup6\n        /* \"dNews_entity.sol\":9744:9789  Check_Waiting_ChildContent[msg.sender][owner] */\n      0xffffffffffffffffffffffffffffffffffffffff\n      and\n      0xffffffffffffffffffffffffffffffffffffffff\n      and\n      dup2\n      mstore\n      0x20\n      add\n      swap1\n      dup2\n      mstore\n      0x20\n      add\n      0x00\n      keccak256\n        /* \"dNews_entity.sol\":9795:9799  temp */\n      dup2\n        /* \"dNews_entity.sol\":9744:9800  Check_Waiting_ChildContent[msg.sender][owner].push(temp) */\n      swap1\n      dup1\n        /* \"--CODEGEN--\":39:40   */\n      0x01\n        /* \"--CODEGEN--\":33:36   */\n      dup2\n        /* \"--CODEGEN--\":27:37   */\n      sload\n        /* \"--CODEGEN--\":23:41   */\n      add\n        /* \"--CODEGEN--\":57:67   */\n      dup1\n        /* \"--CODEGEN--\":52:55   */\n      dup3\n        /* \"--CODEGEN--\":45:68   */\n      sstore\n        /* \"--CODEGEN--\":79:89   */\n      dup1\n        /* \"--CODEGEN--\":72:89   */\n      swap2\n      pop\n        /* \"--CODEGEN--\":0:93   */\n      pop\n        /* \"dNews_entity.sol\":9744:9800  Check_Waiting_ChildContent[msg.sender][owner].push(temp) */\n      0x01\n      swap1\n      sub\n      swap1\n      0x00\n      mstore\n      keccak256(0x00, 0x20)\n      swap1\n      0x08\n      mul\n      add\n      0x00\n      swap1\n      swap2\n      swap1\n      swap2\n      swap1\n      swap2\n      pop\n      0x00\n      dup3\n      add\n      mload\n      dup2\n      0x00\n      add\n      swap1\n      dup1\n      mload\n      swap1\n      0x20\n      add\n      swap1\n      tag_343\n      swap3\n      swap2\n      swap1\n      tag_196\n      jump\t// in\n    tag_343:\n      pop\n      0x20\n      dup3\n      add\n      mload\n      dup2\n      0x01\n      add\n      exp(0x0100, 0x00)\n      dup2\n      sload\n      dup2\n      0xffffffffffffffffffffffffffffffffffffffff\n      mul\n      not\n      and\n      swap1\n      dup4\n      0xffffffffffffffffffffffffffffffffffffffff\n      and\n      mul\n      or\n      swap1\n      sstore\n      pop\n      0x40\n      dup3\n      add\n      mload\n      dup2\n      0x02\n      add\n      swap1\n      dup1\n      mload\n      swap1\n      0x20\n      add\n      swap1\n      tag_344\n      swap3\n      swap2\n      swap1\n      tag_196\n      jump\t// in\n    tag_344:\n      pop\n      0x60\n      dup3\n      add\n      mload\n      dup2\n      0x03\n      add\n      exp(0x0100, 0x00)\n      dup2\n      sload\n      dup2\n      0xffffffffffffffffffffffffffffffffffffffff\n      mul\n      not\n      and\n      swap1\n      dup4\n      0xffffffffffffffffffffffffffffffffffffffff\n      and\n      mul\n      or\n      swap1\n      sstore\n      pop\n      0x80\n      dup3\n      add\n      mload\n      dup2\n      0x04\n      add\n      swap1\n      dup1\n      mload\n      swap1\n      0x20\n      add\n      swap1\n      tag_345\n      swap3\n      swap2\n      swap1\n      tag_196\n      jump\t// in\n    tag_345:\n      pop\n      0xa0\n      dup3\n      add\n      mload\n      dup2\n      0x05\n      add\n      sstore\n      0xc0\n      dup3\n      add\n      mload\n      dup2\n      0x06\n      add\n      sstore\n      0xe0\n      dup3\n      add\n      mload\n      dup2\n      0x07\n      add\n      sstore\n      pop\n      pop\n        /* \"dNews_entity.sol\":9903:9904  1 */\n      0x01\n        /* \"dNews_entity.sol\":9849:9875  Check_Waiting_ChildContent */\n      0x0b\n        /* \"dNews_entity.sol\":9849:9887  Check_Waiting_ChildContent[msg.sender] */\n      0x00\n        /* \"dNews_entity.sol\":9876:9886  msg.sender */\n      caller\n        /* \"dNews_entity.sol\":9849:9887  Check_Waiting_ChildContent[msg.sender] */\n      0xffffffffffffffffffffffffffffffffffffffff\n      and\n      0xffffffffffffffffffffffffffffffffffffffff\n      and\n      dup2\n      mstore\n      0x20\n      add\n      swap1\n      dup2\n      mstore\n      0x20\n      add\n      0x00\n      keccak256\n        /* \"dNews_entity.sol\":9849:9894  Check_Waiting_ChildContent[msg.sender][owner] */\n      0x00\n        /* \"dNews_entity.sol\":9888:9893  owner */\n      dup7\n        /* \"dNews_entity.sol\":9849:9894  Check_Waiting_ChildContent[msg.sender][owner] */\n      0xffffffffffffffffffffffffffffffffffffffff\n      and\n      0xffffffffffffffffffffffffffffffffffffffff\n      and\n      dup2\n      mstore\n      0x20\n      add\n      swap1\n      dup2\n      mstore\n      0x20\n      add\n      0x00\n      keccak256\n        /* \"dNews_entity.sol\":9849:9901  Check_Waiting_ChildContent[msg.sender][owner].length */\n      dup1\n      sload\n      swap1\n      pop\n        /* \"dNews_entity.sol\":9849:9904  Check_Waiting_ChildContent[msg.sender][owner].length -1 */\n      sub\n        /* \"dNews_entity.sol\":9811:9827  indexlengthcheck */\n      0x0d\n        /* \"dNews_entity.sol\":9811:9839  indexlengthcheck[msg.sender] */\n      0x00\n        /* \"dNews_entity.sol\":9828:9838  msg.sender */\n      caller\n        /* \"dNews_entity.sol\":9811:9839  indexlengthcheck[msg.sender] */\n      0xffffffffffffffffffffffffffffffffffffffff\n      and\n      0xffffffffffffffffffffffffffffffffffffffff\n      and\n      dup2\n      mstore\n      0x20\n      add\n      swap1\n      dup2\n      mstore\n      0x20\n      add\n      0x00\n      keccak256\n        /* \"dNews_entity.sol\":9811:9846  indexlengthcheck[msg.sender][owner] */\n      0x00\n        /* \"dNews_entity.sol\":9840:9845  owner */\n      dup7\n        /* \"dNews_entity.sol\":9811:9846  indexlengthcheck[msg.sender][owner] */\n      0xffffffffffffffffffffffffffffffffffffffff\n      and\n      0xffffffffffffffffffffffffffffffffffffffff\n      and\n      dup2\n      mstore\n      0x20\n      add\n      swap1\n      dup2\n      mstore\n      0x20\n      add\n      0x00\n      keccak256\n        /* \"dNews_entity.sol\":9811:9904  indexlengthcheck[msg.sender][owner] = Check_Waiting_ChildContent[msg.sender][owner].length -1 */\n      dup2\n      swap1\n      sstore\n      pop\n        /* \"dNews_entity.sol\":9915:9928  uint numCheck */\n      0x00\n        /* \"dNews_entity.sol\":9931:9947  indexlengthcheck */\n      0x0d\n        /* \"dNews_entity.sol\":9931:9959  indexlengthcheck[msg.sender] */\n      0x00\n        /* \"dNews_entity.sol\":9948:9958  msg.sender */\n      caller\n        /* \"dNews_entity.sol\":9931:9959  indexlengthcheck[msg.sender] */\n      0xffffffffffffffffffffffffffffffffffffffff\n      and\n      0xffffffffffffffffffffffffffffffffffffffff\n      and\n      dup2\n      mstore\n      0x20\n      add\n      swap1\n      dup2\n      mstore\n      0x20\n      add\n      0x00\n      keccak256\n        /* \"dNews_entity.sol\":9931:9966  indexlengthcheck[msg.sender][owner] */\n      0x00\n        /* \"dNews_entity.sol\":9960:9965  owner */\n      dup7\n        /* \"dNews_entity.sol\":9931:9966  indexlengthcheck[msg.sender][owner] */\n      0xffffffffffffffffffffffffffffffffffffffff\n      and\n      0xffffffffffffffffffffffffffffffffffffffff\n      and\n      dup2\n      mstore\n      0x20\n      add\n      swap1\n      dup2\n      mstore\n      0x20\n      add\n      0x00\n      keccak256\n      sload\n        /* \"dNews_entity.sol\":9915:9966  uint numCheck = indexlengthcheck[msg.sender][owner] */\n      swap1\n      pop\n        /* \"dNews_entity.sol\":9977:10023  BeforeAttestation(owner, msg.sender, numCheck) */\n      tag_346\n        /* \"dNews_entity.sol\":9995:10000  owner */\n      dup6\n        /* \"dNews_entity.sol\":10002:10012  msg.sender */\n      caller\n        /* \"dNews_entity.sol\":10014:10022  numCheck */\n      dup4\n        /* \"dNews_entity.sol\":9977:9994  BeforeAttestation */\n      tag_37\n        /* \"dNews_entity.sol\":9977:10023  BeforeAttestation(owner, msg.sender, numCheck) */\n      jump\t// in\n    tag_346:\n      pop\n      pop\n      pop\n      pop\n        /* \"dNews_entity.sol\":9254:10032  function ChildContentInfo(bytes32 IPFShash, string memory metadata,address owner, uint referIndex)public {\r... */\n      pop\n      pop\n      pop\n      pop\n      pop\n      pop\n      pop\n      jump\t// out\n        /* \"dNews_entity.sol\":3942:4799  function jourCert (string memory jourName, address jourAddr, string memory mediaName, address mediaAddr, string memory department, string memory jourTimePeriod, string memory jourcerHash) public  { // add qualify journalists to the list\r... */\n    tag_125:\n        /* \"dNews_entity.sol\":4218:4222  true */\n      0x01\n        /* \"dNews_entity.sol\":4196:4222  isMedia[mediaAddr] == true */\n      iszero\n      iszero\n        /* \"dNews_entity.sol\":4196:4203  isMedia */\n      0x04\n        /* \"dNews_entity.sol\":4196:4214  isMedia[mediaAddr] */\n      0x00\n        /* \"dNews_entity.sol\":4204:4213  mediaAddr */\n      dup7\n        /* \"dNews_entity.sol\":4196:4214  isMedia[mediaAddr] */\n      0xffffffffffffffffffffffffffffffffffffffff\n      and\n      0xffffffffffffffffffffffffffffffffffffffff\n      and\n      dup2\n      mstore\n      0x20\n      add\n      swap1\n      dup2\n      mstore\n      0x20\n      add\n      0x00\n      keccak256\n      0x00\n      swap1\n      sload\n      swap1\n      0x0100\n      exp\n      swap1\n      div\n      0xff\n      and\n        /* \"dNews_entity.sol\":4196:4222  isMedia[mediaAddr] == true */\n      iszero\n      iszero\n      eq\n        /* \"dNews_entity.sol\":4188:4223  require(isMedia[mediaAddr] == true) */\n      tag_348\n      jumpi\n        /* \"--CODEGEN--\":12:13   */\n      0x00\n        /* \"--CODEGEN--\":9:10   */\n      dup1\n        /* \"--CODEGEN--\":2:14   */\n      revert\n        /* \"dNews_entity.sol\":4188:4223  require(isMedia[mediaAddr] == true) */\n    tag_348:\n        /* \"dNews_entity.sol\":4234:4255  mediaLogin(mediaAddr) */\n      tag_349\n        /* \"dNews_entity.sol\":4245:4254  mediaAddr */\n      dup5\n        /* \"dNews_entity.sol\":4234:4244  mediaLogin */\n      tag_137\n        /* \"dNews_entity.sol\":4234:4255  mediaLogin(mediaAddr) */\n      jump\t// in\n    tag_349:\n        /* \"dNews_entity.sol\":4285:4289  true */\n      0x01\n        /* \"dNews_entity.sol\":4266:4272  isJour */\n      0x05\n        /* \"dNews_entity.sol\":4266:4282  isJour[jourAddr] */\n      0x00\n        /* \"dNews_entity.sol\":4273:4281  jourAddr */\n      dup9\n        /* \"dNews_entity.sol\":4266:4282  isJour[jourAddr] */\n      0xffffffffffffffffffffffffffffffffffffffff\n      and\n      0xffffffffffffffffffffffffffffffffffffffff\n      and\n      dup2\n      mstore\n      0x20\n      add\n      swap1\n      dup2\n      mstore\n      0x20\n      add\n      0x00\n      keccak256\n      0x00\n        /* \"dNews_entity.sol\":4266:4289  isJour[jourAddr] = true */\n      0x0100\n      exp\n      dup2\n      sload\n      dup2\n      0xff\n      mul\n      not\n      and\n      swap1\n      dup4\n      iszero\n      iszero\n      mul\n      or\n      swap1\n      sstore\n      pop\n        /* \"dNews_entity.sol\":4300:4337  jourCertificate memory qualified_jour */\n      tag_350\n      tag_351\n      jump\t// in\n    tag_350:\n        /* \"dNews_entity.sol\":4374:4382  jourName */\n      dup8\n        /* \"dNews_entity.sol\":4348:4362  qualified_jour */\n      dup2\n        /* \"dNews_entity.sol\":4348:4371  qualified_jour.journame */\n      0x00\n      add\n        /* \"dNews_entity.sol\":4348:4382  qualified_jour.journame = jourName */\n      dup2\n      swap1\n      mstore\n      pop\n        /* \"dNews_entity.sol\":4419:4427  jourAddr */\n      dup7\n        /* \"dNews_entity.sol\":4393:4407  qualified_jour */\n      dup2\n        /* \"dNews_entity.sol\":4393:4416  qualified_jour.jourAddr */\n      0x20\n      add\n        /* \"dNews_entity.sol\":4393:4427  qualified_jour.jourAddr = jourAddr */\n      swap1\n      0xffffffffffffffffffffffffffffffffffffffff\n      and\n      swap1\n      dup2\n      0xffffffffffffffffffffffffffffffffffffffff\n      and\n      dup2\n      mstore\n      pop\n      pop\n        /* \"dNews_entity.sol\":4465:4474  mediaName */\n      dup6\n        /* \"dNews_entity.sol\":4438:4452  qualified_jour */\n      dup2\n        /* \"dNews_entity.sol\":4438:4462  qualified_jour.medianame */\n      0x40\n      add\n        /* \"dNews_entity.sol\":4438:4474  qualified_jour.medianame = mediaName */\n      dup2\n      swap1\n      mstore\n      pop\n        /* \"dNews_entity.sol\":4512:4521  mediaAddr */\n      dup5\n        /* \"dNews_entity.sol\":4485:4499  qualified_jour */\n      dup2\n        /* \"dNews_entity.sol\":4485:4509  qualified_jour.mediaAddr */\n      0x60\n      add\n        /* \"dNews_entity.sol\":4485:4521  qualified_jour.mediaAddr = mediaAddr */\n      swap1\n      0xffffffffffffffffffffffffffffffffffffffff\n      and\n      swap1\n      dup2\n      0xffffffffffffffffffffffffffffffffffffffff\n      and\n      dup2\n      mstore\n      pop\n      pop\n        /* \"dNews_entity.sol\":4560:4570  department */\n      dup4\n        /* \"dNews_entity.sol\":4532:4546  qualified_jour */\n      dup2\n        /* \"dNews_entity.sol\":4532:4557  qualified_jour.department */\n      0x80\n      add\n        /* \"dNews_entity.sol\":4532:4570  qualified_jour.department = department */\n      dup2\n      swap1\n      mstore\n      pop\n        /* \"dNews_entity.sol\":4613:4627  jourTimePeriod */\n      dup3\n        /* \"dNews_entity.sol\":4581:4595  qualified_jour */\n      dup2\n        /* \"dNews_entity.sol\":4581:4610  qualified_jour.jourtimeperiod */\n      0xa0\n      add\n        /* \"dNews_entity.sol\":4581:4627  qualified_jour.jourtimeperiod = jourTimePeriod */\n      dup2\n      swap1\n      mstore\n      pop\n        /* \"dNews_entity.sol\":4691:4702  jourcerHash */\n      dup2\n        /* \"dNews_entity.sol\":4662:4676  qualified_jour */\n      dup2\n        /* \"dNews_entity.sol\":4662:4688  qualified_jour.jourcerHash */\n      0xc0\n      add\n        /* \"dNews_entity.sol\":4662:4702  qualified_jour.jourcerHash = jourcerHash */\n      dup2\n      swap1\n      mstore\n      pop\n        /* \"dNews_entity.sol\":4713:4718  Jours */\n      0x03\n        /* \"dNews_entity.sol\":4724:4738  qualified_jour */\n      dup2\n        /* \"dNews_entity.sol\":4713:4739  Jours.push(qualified_jour) */\n      swap1\n      dup1\n        /* \"--CODEGEN--\":39:40   */\n      0x01\n        /* \"--CODEGEN--\":33:36   */\n      dup2\n        /* \"--CODEGEN--\":27:37   */\n      sload\n        /* \"--CODEGEN--\":23:41   */\n      add\n        /* \"--CODEGEN--\":57:67   */\n      dup1\n        /* \"--CODEGEN--\":52:55   */\n      dup3\n        /* \"--CODEGEN--\":45:68   */\n      sstore\n        /* \"--CODEGEN--\":79:89   */\n      dup1\n        /* \"--CODEGEN--\":72:89   */\n      swap2\n      pop\n        /* \"--CODEGEN--\":0:93   */\n      pop\n        /* \"dNews_entity.sol\":4713:4739  Jours.push(qualified_jour) */\n      0x01\n      swap1\n      sub\n      swap1\n      0x00\n      mstore\n      keccak256(0x00, 0x20)\n      swap1\n      0x07\n      mul\n      add\n      0x00\n      swap1\n      swap2\n      swap1\n      swap2\n      swap1\n      swap2\n      pop\n      0x00\n      dup3\n      add\n      mload\n      dup2\n      0x00\n      add\n      swap1\n      dup1\n      mload\n      swap1\n      0x20\n      add\n      swap1\n      tag_353\n      swap3\n      swap2\n      swap1\n      tag_196\n      jump\t// in\n    tag_353:\n      pop\n      0x20\n      dup3\n      add\n      mload\n      dup2\n      0x01\n      add\n      exp(0x0100, 0x00)\n      dup2\n      sload\n      dup2\n      0xffffffffffffffffffffffffffffffffffffffff\n      mul\n      not\n      and\n      swap1\n      dup4\n      0xffffffffffffffffffffffffffffffffffffffff\n      and\n      mul\n      or\n      swap1\n      sstore\n      pop\n      0x40\n      dup3\n      add\n      mload\n      dup2\n      0x02\n      add\n      swap1\n      dup1\n      mload\n      swap1\n      0x20\n      add\n      swap1\n      tag_354\n      swap3\n      swap2\n      swap1\n      tag_196\n      jump\t// in\n    tag_354:\n      pop\n      0x60\n      dup3\n      add\n      mload\n      dup2\n      0x03\n      add\n      exp(0x0100, 0x00)\n      dup2\n      sload\n      dup2\n      0xffffffffffffffffffffffffffffffffffffffff\n      mul\n      not\n      and\n      swap1\n      dup4\n      0xffffffffffffffffffffffffffffffffffffffff\n      and\n      mul\n      or\n      swap1\n      sstore\n      pop\n      0x80\n      dup3\n      add\n      mload\n      dup2\n      0x04\n      add\n      swap1\n      dup1\n      mload\n      swap1\n      0x20\n      add\n      swap1\n      tag_355\n      swap3\n      swap2\n      swap1\n      tag_196\n      jump\t// in\n    tag_355:\n      pop\n      0xa0\n      dup3\n      add\n      mload\n      dup2\n      0x05\n      add\n      swap1\n      dup1\n      mload\n      swap1\n      0x20\n      add\n      swap1\n      tag_356\n      swap3\n      swap2\n      swap1\n      tag_196\n      jump\t// in\n    tag_356:\n      pop\n      0xc0\n      dup3\n      add\n      mload\n      dup2\n      0x06\n      add\n      swap1\n      dup1\n      mload\n      swap1\n      0x20\n      add\n      swap1\n      tag_357\n      swap3\n      swap2\n      swap1\n      tag_196\n      jump\t// in\n    tag_357:\n      pop\n      pop\n      pop\n        /* \"dNews_entity.sol\":4750:4764  JourUnderMedia */\n      0x07\n        /* \"dNews_entity.sol\":4750:4775  JourUnderMedia[mediaAddr] */\n      0x00\n        /* \"dNews_entity.sol\":4765:4774  mediaAddr */\n      dup7\n        /* \"dNews_entity.sol\":4750:4775  JourUnderMedia[mediaAddr] */\n      0xffffffffffffffffffffffffffffffffffffffff\n      and\n      0xffffffffffffffffffffffffffffffffffffffff\n      and\n      dup2\n      mstore\n      0x20\n      add\n      swap1\n      dup2\n      mstore\n      0x20\n      add\n      0x00\n      keccak256\n        /* \"dNews_entity.sol\":4781:4789  jourAddr */\n      dup8\n        /* \"dNews_entity.sol\":4750:4790  JourUnderMedia[mediaAddr].push(jourAddr) */\n      swap1\n      dup1\n        /* \"--CODEGEN--\":39:40   */\n      0x01\n        /* \"--CODEGEN--\":33:36   */\n      dup2\n        /* \"--CODEGEN--\":27:37   */\n      sload\n        /* \"--CODEGEN--\":23:41   */\n      add\n        /* \"--CODEGEN--\":57:67   */\n      dup1\n        /* \"--CODEGEN--\":52:55   */\n      dup3\n        /* \"--CODEGEN--\":45:68   */\n      sstore\n        /* \"--CODEGEN--\":79:89   */\n      dup1\n        /* \"--CODEGEN--\":72:89   */\n      swap2\n      pop\n        /* \"--CODEGEN--\":0:93   */\n      pop\n        /* \"dNews_entity.sol\":4750:4790  JourUnderMedia[mediaAddr].push(jourAddr) */\n      0x01\n      swap1\n      sub\n      swap1\n      0x00\n      mstore\n      keccak256(0x00, 0x20)\n      add\n      0x00\n      swap1\n      swap2\n      swap1\n      swap2\n      swap1\n      swap2\n      0x0100\n      exp\n      dup2\n      sload\n      dup2\n      0xffffffffffffffffffffffffffffffffffffffff\n      mul\n      not\n      and\n      swap1\n      dup4\n      0xffffffffffffffffffffffffffffffffffffffff\n      and\n      mul\n      or\n      swap1\n      sstore\n      pop\n        /* \"dNews_entity.sol\":3942:4799  function jourCert (string memory jourName, address jourAddr, string memory mediaName, address mediaAddr, string memory department, string memory jourTimePeriod, string memory jourcerHash) public  { // add qualify journalists to the list\r... */\n      pop\n      pop\n      pop\n      pop\n      pop\n      pop\n      pop\n      pop\n      jump\t// out\n        /* \"dNews_entity.sol\":1467:1497  jourCertificate[] public Jours */\n    tag_128:\n      0x03\n      dup2\n      dup2\n      sload\n      dup2\n      lt\n      tag_359\n      jumpi\n      invalid\n    tag_359:\n      swap1\n      0x00\n      mstore\n      keccak256(0x00, 0x20)\n      swap1\n      0x07\n      mul\n      add\n      0x00\n      swap2\n      pop\n      swap1\n      pop\n      dup1\n      0x00\n      add\n      dup1\n      sload\n      0x01\n      dup2\n      0x01\n      and\n      iszero\n      0x0100\n      mul\n      sub\n      and\n      0x02\n      swap1\n      div\n      dup1\n      0x1f\n      add\n      0x20\n      dup1\n      swap2\n      div\n      mul\n      0x20\n      add\n      mload(0x40)\n      swap1\n      dup2\n      add\n      0x40\n      mstore\n      dup1\n      swap3\n      swap2\n      swap1\n      dup2\n      dup2\n      mstore\n      0x20\n      add\n      dup3\n      dup1\n      sload\n      0x01\n      dup2\n      0x01\n      and\n      iszero\n      0x0100\n      mul\n      sub\n      and\n      0x02\n      swap1\n      div\n      dup1\n      iszero\n      tag_361\n      jumpi\n      dup1\n      0x1f\n      lt\n      tag_362\n      jumpi\n      0x0100\n      dup1\n      dup4\n      sload\n      div\n      mul\n      dup4\n      mstore\n      swap2\n      0x20\n      add\n      swap2\n      jump(tag_361)\n    tag_362:\n      dup3\n      add\n      swap2\n      swap1\n      0x00\n      mstore\n      keccak256(0x00, 0x20)\n      swap1\n    tag_363:\n      dup2\n      sload\n      dup2\n      mstore\n      swap1\n      0x01\n      add\n      swap1\n      0x20\n      add\n      dup1\n      dup4\n      gt\n      tag_363\n      jumpi\n      dup3\n      swap1\n      sub\n      0x1f\n      and\n      dup3\n      add\n      swap2\n    tag_361:\n      pop\n      pop\n      pop\n      pop\n      pop\n      swap1\n      dup1\n      0x01\n      add\n      0x00\n      swap1\n      sload\n      swap1\n      0x0100\n      exp\n      swap1\n      div\n      0xffffffffffffffffffffffffffffffffffffffff\n      and\n      swap1\n      dup1\n      0x02\n      add\n      dup1\n      sload\n      0x01\n      dup2\n      0x01\n      and\n      iszero\n      0x0100\n      mul\n      sub\n      and\n      0x02\n      swap1\n      div\n      dup1\n      0x1f\n      add\n      0x20\n      dup1\n      swap2\n      div\n      mul\n      0x20\n      add\n      mload(0x40)\n      swap1\n      dup2\n      add\n      0x40\n      mstore\n      dup1\n      swap3\n      swap2\n      swap1\n      dup2\n      dup2\n      mstore\n      0x20\n      add\n      dup3\n      dup1\n      sload\n      0x01\n      dup2\n      0x01\n      and\n      iszero\n      0x0100\n      mul\n      sub\n      and\n      0x02\n      swap1\n      div\n      dup1\n      iszero\n      tag_364\n      jumpi\n      dup1\n      0x1f\n      lt\n      tag_365\n      jumpi\n      0x0100\n      dup1\n      dup4\n      sload\n      div\n      mul\n      dup4\n      mstore\n      swap2\n      0x20\n      add\n      swap2\n      jump(tag_364)\n    tag_365:\n      dup3\n      add\n      swap2\n      swap1\n      0x00\n      mstore\n      keccak256(0x00, 0x20)\n      swap1\n    tag_366:\n      dup2\n      sload\n      dup2\n      mstore\n      swap1\n      0x01\n      add\n      swap1\n      0x20\n      add\n      dup1\n      dup4\n      gt\n      tag_366\n      jumpi\n      dup3\n      swap1\n      sub\n      0x1f\n      and\n      dup3\n      add\n      swap2\n    tag_364:\n      pop\n      pop\n      pop\n      pop\n      pop\n      swap1\n      dup1\n      0x03\n      add\n      0x00\n      swap1\n      sload\n      swap1\n      0x0100\n      exp\n      swap1\n      div\n      0xffffffffffffffffffffffffffffffffffffffff\n      and\n      swap1\n      dup1\n      0x04\n      add\n      dup1\n      sload\n      0x01\n      dup2\n      0x01\n      and\n      iszero\n      0x0100\n      mul\n      sub\n      and\n      0x02\n      swap1\n      div\n      dup1\n      0x1f\n      add\n      0x20\n      dup1\n      swap2\n      div\n      mul\n      0x20\n      add\n      mload(0x40)\n      swap1\n      dup2\n      add\n      0x40\n      mstore\n      dup1\n      swap3\n      swap2\n      swap1\n      dup2\n      dup2\n      mstore\n      0x20\n      add\n      dup3\n      dup1\n      sload\n      0x01\n      dup2\n      0x01\n      and\n      iszero\n      0x0100\n      mul\n      sub\n      and\n      0x02\n      swap1\n      div\n      dup1\n      iszero\n      tag_367\n      jumpi\n      dup1\n      0x1f\n      lt\n      tag_368\n      jumpi\n      0x0100\n      dup1\n      dup4\n      sload\n      div\n      mul\n      dup4\n      mstore\n      swap2\n      0x20\n      add\n      swap2\n      jump(tag_367)\n    tag_368:\n      dup3\n      add\n      swap2\n      swap1\n      0x00\n      mstore\n      keccak256(0x00, 0x20)\n      swap1\n    tag_369:\n      dup2\n      sload\n      dup2\n      mstore\n      swap1\n      0x01\n      add\n      swap1\n      0x20\n      add\n      dup1\n      dup4\n      gt\n      tag_369\n      jumpi\n      dup3\n      swap1\n      sub\n      0x1f\n      and\n      dup3\n      add\n      swap2\n    tag_367:\n      pop\n      pop\n      pop\n      pop\n      pop\n      swap1\n      dup1\n      0x05\n      add\n      dup1\n      sload\n      0x01\n      dup2\n      0x01\n      and\n      iszero\n      0x0100\n      mul\n      sub\n      and\n      0x02\n      swap1\n      div\n      dup1\n      0x1f\n      add\n      0x20\n      dup1\n      swap2\n      div\n      mul\n      0x20\n      add\n      mload(0x40)\n      swap1\n      dup2\n      add\n      0x40\n      mstore\n      dup1\n      swap3\n      swap2\n      swap1\n      dup2\n      dup2\n      mstore\n      0x20\n      add\n      dup3\n      dup1\n      sload\n      0x01\n      dup2\n      0x01\n      and\n      iszero\n      0x0100\n      mul\n      sub\n      and\n      0x02\n      swap1\n      div\n      dup1\n      iszero\n      tag_370\n      jumpi\n      dup1\n      0x1f\n      lt\n      tag_371\n      jumpi\n      0x0100\n      dup1\n      dup4\n      sload\n      div\n      mul\n      dup4\n      mstore\n      swap2\n      0x20\n      add\n      swap2\n      jump(tag_370)\n    tag_371:\n      dup3\n      add\n      swap2\n      swap1\n      0x00\n      mstore\n      keccak256(0x00, 0x20)\n      swap1\n    tag_372:\n      dup2\n      sload\n      dup2\n      mstore\n      swap1\n      0x01\n      add\n      swap1\n      0x20\n      add\n      dup1\n      dup4\n      gt\n      tag_372\n      jumpi\n      dup3\n      swap1\n      sub\n      0x1f\n      and\n      dup3\n      add\n      swap2\n    tag_370:\n      pop\n      pop\n      pop\n      pop\n      pop\n      swap1\n      dup1\n      0x06\n      add\n      dup1\n      sload\n      0x01\n      dup2\n      0x01\n      and\n      iszero\n      0x0100\n      mul\n      sub\n      and\n      0x02\n      swap1\n      div\n      dup1\n      0x1f\n      add\n      0x20\n      dup1\n      swap2\n      div\n      mul\n      0x20\n      add\n      mload(0x40)\n      swap1\n      dup2\n      add\n      0x40\n      mstore\n      dup1\n      swap3\n      swap2\n      swap1\n      dup2\n      dup2\n      mstore\n      0x20\n      add\n      dup3\n      dup1\n      sload\n      0x01\n      dup2\n      0x01\n      and\n      iszero\n      0x0100\n      mul\n      sub\n      and\n      0x02\n      swap1\n      div\n      dup1\n      iszero\n      tag_373\n      jumpi\n      dup1\n      0x1f\n      lt\n      tag_374\n      jumpi\n      0x0100\n      dup1\n      dup4\n      sload\n      div\n      mul\n      dup4\n      mstore\n      swap2\n      0x20\n      add\n      swap2\n      jump(tag_373)\n    tag_374:\n      dup3\n      add\n      swap2\n      swap1\n      0x00\n      mstore\n      keccak256(0x00, 0x20)\n      swap1\n    tag_375:\n      dup2\n      sload\n      dup2\n      mstore\n      swap1\n      0x01\n      add\n      swap1\n      0x20\n      add\n      dup1\n      dup4\n      gt\n      tag_375\n      jumpi\n      dup3\n      swap1\n      sub\n      0x1f\n      and\n      dup3\n      add\n      swap2\n    tag_373:\n      pop\n      pop\n      pop\n      pop\n      pop\n      swap1\n      pop\n      dup8\n      jump\t// out\n        /* \"dNews_entity.sol\":1804:1855  mapping(address => address[]) public JourUnderMedia */\n    tag_133:\n      mstore(0x20, 0x07)\n      dup2\n      0x00\n      mstore\n      keccak256(0x00, 0x40)\n      dup2\n      dup2\n      sload\n      dup2\n      lt\n      tag_376\n      jumpi\n      invalid\n    tag_376:\n      swap1\n      0x00\n      mstore\n      keccak256(0x00, 0x20)\n      add\n      0x00\n      swap2\n      pop\n      swap2\n      pop\n      swap1\n      sload\n      swap1\n      0x0100\n      exp\n      swap1\n      div\n      0xffffffffffffffffffffffffffffffffffffffff\n      and\n      dup2\n      jump\t// out\n        /* \"dNews_entity.sol\":2408:2750  function mediaLogin(address mediaAddr) public view{\r... */\n    tag_137:\n        /* \"dNews_entity.sol\":2499:2503  true */\n      0x01\n        /* \"dNews_entity.sol\":2477:2503  isMedia[mediaAddr] == true */\n      iszero\n      iszero\n        /* \"dNews_entity.sol\":2477:2484  isMedia */\n      0x04\n        /* \"dNews_entity.sol\":2477:2495  isMedia[mediaAddr] */\n      0x00\n        /* \"dNews_entity.sol\":2485:2494  mediaAddr */\n      dup4\n        /* \"dNews_entity.sol\":2477:2495  isMedia[mediaAddr] */\n      0xffffffffffffffffffffffffffffffffffffffff\n      and\n      0xffffffffffffffffffffffffffffffffffffffff\n      and\n      dup2\n      mstore\n      0x20\n      add\n      swap1\n      dup2\n      mstore\n      0x20\n      add\n      0x00\n      keccak256\n      0x00\n      swap1\n      sload\n      swap1\n      0x0100\n      exp\n      swap1\n      div\n      0xff\n      and\n        /* \"dNews_entity.sol\":2477:2503  isMedia[mediaAddr] == true */\n      iszero\n      iszero\n      eq\n        /* \"dNews_entity.sol\":2469:2504  require(isMedia[mediaAddr] == true) */\n      tag_379\n      jumpi\n        /* \"--CODEGEN--\":12:13   */\n      0x00\n        /* \"--CODEGEN--\":9:10   */\n      dup1\n        /* \"--CODEGEN--\":2:14   */\n      revert\n        /* \"dNews_entity.sol\":2469:2504  require(isMedia[mediaAddr] == true) */\n    tag_379:\n        /* \"dNews_entity.sol\":2516:2534  Entity entityMedia */\n      0x00\n        /* \"dNews_entity.sol\":2544:2553  mediaAddr */\n      dup2\n        /* \"dNews_entity.sol\":2516:2554  Entity entityMedia = Entity(mediaAddr) */\n      swap1\n      pop\n        /* \"dNews_entity.sol\":2565:2583  string memory text */\n      0x60\n        /* \"dNews_entity.sol\":2586:2597  entityMedia */\n      dup2\n        /* \"dNews_entity.sol\":2586:2609  entityMedia.columnValue */\n      0xffffffffffffffffffffffffffffffffffffffff\n      and\n      0x8cba76b1\n        /* \"dNews_entity.sol\":2610:2619  nccEntity */\n      0x01\n      0x00\n      swap1\n      sload\n      swap1\n      0x0100\n      exp\n      swap1\n      div\n      0xffffffffffffffffffffffffffffffffffffffff\n      and\n        /* \"dNews_entity.sol\":2586:2651  entityMedia.columnValue(nccEntity, \"MediaCertificate\", \"isMedia\") */\n      mload(0x40)\n      dup3\n      0xffffffff\n      and\n      0xe0\n      shl\n      dup2\n      mstore\n      0x04\n      add\n      tag_380\n      swap2\n      swap1\n      jump(tag_381)\n    tag_380:\n      0x00\n      mload(0x40)\n      dup1\n      dup4\n      sub\n      dup2\n      dup7\n      dup1\n      extcodesize\n      iszero\n        /* \"--CODEGEN--\":5:14   */\n      dup1\n        /* \"--CODEGEN--\":2:4   */\n      iszero\n      tag_382\n      jumpi\n        /* \"--CODEGEN--\":27:28   */\n      0x00\n        /* \"--CODEGEN--\":24:25   */\n      dup1\n        /* \"--CODEGEN--\":17:29   */\n      revert\n        /* \"--CODEGEN--\":2:4   */\n    tag_382:\n        /* \"dNews_entity.sol\":2586:2651  entityMedia.columnValue(nccEntity, \"MediaCertificate\", \"isMedia\") */\n      pop\n      gas\n      staticcall\n      iszero\n        /* \"--CODEGEN--\":8:17   */\n      dup1\n        /* \"--CODEGEN--\":5:7   */\n      iszero\n      tag_384\n      jumpi\n        /* \"--CODEGEN--\":45:61   */\n      returndatasize\n        /* \"--CODEGEN--\":42:43   */\n      0x00\n        /* \"--CODEGEN--\":39:40   */\n      dup1\n        /* \"--CODEGEN--\":24:62   */\n      returndatacopy\n        /* \"--CODEGEN--\":77:93   */\n      returndatasize\n        /* \"--CODEGEN--\":74:75   */\n      0x00\n        /* \"--CODEGEN--\":67:94   */\n      revert\n        /* \"--CODEGEN--\":5:7   */\n    tag_384:\n        /* \"dNews_entity.sol\":2586:2651  entityMedia.columnValue(nccEntity, \"MediaCertificate\", \"isMedia\") */\n      pop\n      pop\n      pop\n      pop\n      mload(0x40)\n        /* \"--CODEGEN--\":39:55   */\n      returndatasize\n        /* \"--CODEGEN--\":36:37   */\n      0x00\n        /* \"--CODEGEN--\":17:34   */\n      dup3\n        /* \"--CODEGEN--\":2:56   */\n      returndatacopy\n        /* \"dNews_entity.sol\":2586:2651  entityMedia.columnValue(nccEntity, \"MediaCertificate\", \"isMedia\") */\n      returndatasize\n        /* \"--CODEGEN--\":101:105   */\n      0x1f\n        /* \"--CODEGEN--\":97:106   */\n      not\n        /* \"--CODEGEN--\":90:94   */\n      0x1f\n        /* \"--CODEGEN--\":84:88   */\n      dup3\n        /* \"--CODEGEN--\":80:95   */\n      add\n        /* \"--CODEGEN--\":76:107   */\n      and\n        /* \"--CODEGEN--\":69:74   */\n      dup3\n        /* \"--CODEGEN--\":65:108   */\n      add\n        /* \"--CODEGEN--\":126:132   */\n      dup1\n        /* \"--CODEGEN--\":120:124   */\n      0x40\n        /* \"--CODEGEN--\":113:133   */\n      mstore\n        /* \"--CODEGEN--\":0:138   */\n      pop\n        /* \"dNews_entity.sol\":2586:2651  entityMedia.columnValue(nccEntity, \"MediaCertificate\", \"isMedia\") */\n      dup2\n      add\n      swap1\n      tag_385\n      swap2\n      swap1\n      jump(tag_167)\n    tag_385:\n        /* \"dNews_entity.sol\":2565:2651  string memory text = entityMedia.columnValue(nccEntity, \"MediaCertificate\", \"isMedia\") */\n      swap1\n      pop\n        /* \"dNews_entity.sol\":2717:2740  abi.encodePacked(\"Yes\") */\n      add(0x20, mload(0x40))\n      tag_386\n      swap1\n      jump(tag_169)\n    tag_386:\n      mload(0x40)\n        /* \"--CODEGEN--\":49:53   */\n      0x20\n        /* \"--CODEGEN--\":39:46   */\n      dup2\n        /* \"--CODEGEN--\":30:37   */\n      dup4\n        /* \"--CODEGEN--\":26:47   */\n      sub\n        /* \"--CODEGEN--\":22:54   */\n      sub\n        /* \"--CODEGEN--\":13:20   */\n      dup2\n        /* \"--CODEGEN--\":6:55   */\n      mstore\n        /* \"dNews_entity.sol\":2717:2740  abi.encodePacked(\"Yes\") */\n      swap1\n      0x40\n      mstore\n        /* \"dNews_entity.sol\":2707:2741  keccak256(abi.encodePacked(\"Yes\")) */\n      dup1\n      mload\n      swap1\n      0x20\n      add\n      keccak256\n        /* \"dNews_entity.sol\":2697:2701  text */\n      dup2\n        /* \"dNews_entity.sol\":2680:2702  abi.encodePacked(text) */\n      add(0x20, mload(0x40))\n      tag_387\n      swap2\n      swap1\n      jump(tag_171)\n    tag_387:\n      mload(0x40)\n        /* \"--CODEGEN--\":49:53   */\n      0x20\n        /* \"--CODEGEN--\":39:46   */\n      dup2\n        /* \"--CODEGEN--\":30:37   */\n      dup4\n        /* \"--CODEGEN--\":26:47   */\n      sub\n        /* \"--CODEGEN--\":22:54   */\n      sub\n        /* \"--CODEGEN--\":13:20   */\n      dup2\n        /* \"--CODEGEN--\":6:55   */\n      mstore\n        /* \"dNews_entity.sol\":2680:2702  abi.encodePacked(text) */\n      swap1\n      0x40\n      mstore\n        /* \"dNews_entity.sol\":2670:2703  keccak256(abi.encodePacked(text)) */\n      dup1\n      mload\n      swap1\n      0x20\n      add\n      keccak256\n        /* \"dNews_entity.sol\":2670:2741  keccak256(abi.encodePacked(text)) == keccak256(abi.encodePacked(\"Yes\")) */\n      eq\n        /* \"dNews_entity.sol\":2662:2742  require(keccak256(abi.encodePacked(text)) == keccak256(abi.encodePacked(\"Yes\"))) */\n      tag_388\n      jumpi\n        /* \"--CODEGEN--\":12:13   */\n      0x00\n        /* \"--CODEGEN--\":9:10   */\n      dup1\n        /* \"--CODEGEN--\":2:14   */\n      revert\n        /* \"dNews_entity.sol\":2662:2742  require(keccak256(abi.encodePacked(text)) == keccak256(abi.encodePacked(\"Yes\"))) */\n    tag_388:\n        /* \"dNews_entity.sol\":2408:2750  function mediaLogin(address mediaAddr) public view{\r... */\n      pop\n      pop\n      pop\n      jump\t// out\n        /* \"dNews_entity.sol\":7591:7655  mapping(address=>mapping(address=>uint)) public indexlengthcheck */\n    tag_140:\n      mstore(0x20, 0x0d)\n      dup2\n      0x00\n      mstore\n      mstore(0x20, keccak256(0x00, 0x40))\n      dup1\n      0x00\n      mstore\n      keccak256(0x00, 0x40)\n      0x00\n      swap2\n      pop\n      swap2\n      pop\n      pop\n      sload\n      dup2\n      jump\t// out\n        /* \"dNews_entity.sol\":7378:7464  mapping (address =>mapping(address=>news_content[])) public Check_Waiting_ChildContent */\n    tag_144:\n      mstore(0x20, 0x0b)\n      dup3\n      0x00\n      mstore\n      mstore(0x20, keccak256(0x00, 0x40))\n      dup2\n      0x00\n      mstore\n      keccak256(0x00, 0x40)\n      dup2\n      dup2\n      sload\n      dup2\n      lt\n      tag_389\n      jumpi\n      invalid\n    tag_389:\n      swap1\n      0x00\n      mstore\n      keccak256(0x00, 0x20)\n      swap1\n      0x08\n      mul\n      add\n      0x00\n      swap3\n      pop\n      swap3\n      pop\n      pop\n      pop\n      dup1\n      0x00\n      add\n      dup1\n      sload\n      0x01\n      dup2\n      0x01\n      and\n      iszero\n      0x0100\n      mul\n      sub\n      and\n      0x02\n      swap1\n      div\n      dup1\n      0x1f\n      add\n      0x20\n      dup1\n      swap2\n      div\n      mul\n      0x20\n      add\n      mload(0x40)\n      swap1\n      dup2\n      add\n      0x40\n      mstore\n      dup1\n      swap3\n      swap2\n      swap1\n      dup2\n      dup2\n      mstore\n      0x20\n      add\n      dup3\n      dup1\n      sload\n      0x01\n      dup2\n      0x01\n      and\n      iszero\n      0x0100\n      mul\n      sub\n      and\n      0x02\n      swap1\n      div\n      dup1\n      iszero\n      tag_391\n      jumpi\n      dup1\n      0x1f\n      lt\n      tag_392\n      jumpi\n      0x0100\n      dup1\n      dup4\n      sload\n      div\n      mul\n      dup4\n      mstore\n      swap2\n      0x20\n      add\n      swap2\n      jump(tag_391)\n    tag_392:\n      dup3\n      add\n      swap2\n      swap1\n      0x00\n      mstore\n      keccak256(0x00, 0x20)\n      swap1\n    tag_393:\n      dup2\n      sload\n      dup2\n      mstore\n      swap1\n      0x01\n      add\n      swap1\n      0x20\n      add\n      dup1\n      dup4\n      gt\n      tag_393\n      jumpi\n      dup3\n      swap1\n      sub\n      0x1f\n      and\n      dup3\n      add\n      swap2\n    tag_391:\n      pop\n      pop\n      pop\n      pop\n      pop\n      swap1\n      dup1\n      0x01\n      add\n      0x00\n      swap1\n      sload\n      swap1\n      0x0100\n      exp\n      swap1\n      div\n      0xffffffffffffffffffffffffffffffffffffffff\n      and\n      swap1\n      dup1\n      0x02\n      add\n      dup1\n      sload\n      0x01\n      dup2\n      0x01\n      and\n      iszero\n      0x0100\n      mul\n      sub\n      and\n      0x02\n      swap1\n      div\n      dup1\n      0x1f\n      add\n      0x20\n      dup1\n      swap2\n      div\n      mul\n      0x20\n      add\n      mload(0x40)\n      swap1\n      dup2\n      add\n      0x40\n      mstore\n      dup1\n      swap3\n      swap2\n      swap1\n      dup2\n      dup2\n      mstore\n      0x20\n      add\n      dup3\n      dup1\n      sload\n      0x01\n      dup2\n      0x01\n      and\n      iszero\n      0x0100\n      mul\n      sub\n      and\n      0x02\n      swap1\n      div\n      dup1\n      iszero\n      tag_394\n      jumpi\n      dup1\n      0x1f\n      lt\n      tag_395\n      jumpi\n      0x0100\n      dup1\n      dup4\n      sload\n      div\n      mul\n      dup4\n      mstore\n      swap2\n      0x20\n      add\n      swap2\n      jump(tag_394)\n    tag_395:\n      dup3\n      add\n      swap2\n      swap1\n      0x00\n      mstore\n      keccak256(0x00, 0x20)\n      swap1\n    tag_396:\n      dup2\n      sload\n      dup2\n      mstore\n      swap1\n      0x01\n      add\n      swap1\n      0x20\n      add\n      dup1\n      dup4\n      gt\n      tag_396\n      jumpi\n      dup3\n      swap1\n      sub\n      0x1f\n      and\n      dup3\n      add\n      swap2\n    tag_394:\n      pop\n      pop\n      pop\n      pop\n      pop\n      swap1\n      dup1\n      0x03\n      add\n      0x00\n      swap1\n      sload\n      swap1\n      0x0100\n      exp\n      swap1\n      div\n      0xffffffffffffffffffffffffffffffffffffffff\n      and\n      swap1\n      dup1\n      0x04\n      add\n      dup1\n      sload\n      0x01\n      dup2\n      0x01\n      and\n      iszero\n      0x0100\n      mul\n      sub\n      and\n      0x02\n      swap1\n      div\n      dup1\n      0x1f\n      add\n      0x20\n      dup1\n      swap2\n      div\n      mul\n      0x20\n      add\n      mload(0x40)\n      swap1\n      dup2\n      add\n      0x40\n      mstore\n      dup1\n      swap3\n      swap2\n      swap1\n      dup2\n      dup2\n      mstore\n      0x20\n      add\n      dup3\n      dup1\n      sload\n      0x01\n      dup2\n      0x01\n      and\n      iszero\n      0x0100\n      mul\n      sub\n      and\n      0x02\n      swap1\n      div\n      dup1\n      iszero\n      tag_397\n      jumpi\n      dup1\n      0x1f\n      lt\n      tag_398\n      jumpi\n      0x0100\n      dup1\n      dup4\n      sload\n      div\n      mul\n      dup4\n      mstore\n      swap2\n      0x20\n      add\n      swap2\n      jump(tag_397)\n    tag_398:\n      dup3\n      add\n      swap2\n      swap1\n      0x00\n      mstore\n      keccak256(0x00, 0x20)\n      swap1\n    tag_399:\n      dup2\n      sload\n      dup2\n      mstore\n      swap1\n      0x01\n      add\n      swap1\n      0x20\n      add\n      dup1\n      dup4\n      gt\n      tag_399\n      jumpi\n      dup3\n      swap1\n      sub\n      0x1f\n      and\n      dup3\n      add\n      swap2\n    tag_397:\n      pop\n      pop\n      pop\n      pop\n      pop\n      swap1\n      dup1\n      0x05\n      add\n      sload\n      swap1\n      dup1\n      0x06\n      add\n      sload\n      swap1\n      dup1\n      0x07\n      add\n      sload\n      swap1\n      pop\n      dup9\n      jump\t// out\n        /* \"dNews_entity.sol\":187:11975  contract Certificate {\r... */\n    tag_193:\n      mload(0x40)\n      dup1\n      0xc0\n      add\n      0x40\n      mstore\n      dup1\n      0x60\n      dup2\n      mstore\n      0x20\n      add\n      and(0xffffffffffffffffffffffffffffffffffffffff, 0x00)\n      dup2\n      mstore\n      0x20\n      add\n      0x60\n      dup2\n      mstore\n      0x20\n      add\n      and(0xffffffffffffffffffffffffffffffffffffffff, 0x00)\n      dup2\n      mstore\n      0x20\n      add\n      0x60\n      dup2\n      mstore\n      0x20\n      add\n      0x60\n      dup2\n      mstore\n      pop\n      swap1\n      jump\t// out\n    tag_196:\n      dup3\n      dup1\n      sload\n      0x01\n      dup2\n      0x01\n      and\n      iszero\n      0x0100\n      mul\n      sub\n      and\n      0x02\n      swap1\n      div\n      swap1\n      0x00\n      mstore\n      keccak256(0x00, 0x20)\n      swap1\n      0x1f\n      add\n      0x20\n      swap1\n      div\n      dup2\n      add\n      swap3\n      dup3\n      0x1f\n      lt\n      tag_401\n      jumpi\n      dup1\n      mload\n      not(0xff)\n      and\n      dup4\n      dup1\n      add\n      or\n      dup6\n      sstore\n      jump(tag_400)\n    tag_401:\n      dup3\n      dup1\n      add\n      0x01\n      add\n      dup6\n      sstore\n      dup3\n      iszero\n      tag_400\n      jumpi\n      swap2\n      dup3\n      add\n    tag_402:\n      dup3\n      dup2\n      gt\n      iszero\n      tag_403\n      jumpi\n      dup3\n      mload\n      dup3\n      sstore\n      swap2\n      0x20\n      add\n      swap2\n      swap1\n      0x01\n      add\n      swap1\n      jump(tag_402)\n    tag_403:\n    tag_400:\n      pop\n      swap1\n      pop\n      tag_404\n      swap2\n      swap1\n      tag_405\n      jump\t// in\n    tag_404:\n      pop\n      swap1\n      jump\t// out\n    tag_203:\n      mload(0x40)\n      dup1\n      0x0100\n      add\n      0x40\n      mstore\n      dup1\n      0x60\n      dup2\n      mstore\n      0x20\n      add\n      and(0xffffffffffffffffffffffffffffffffffffffff, 0x00)\n      dup2\n      mstore\n      0x20\n      add\n      0x60\n      dup2\n      mstore\n      0x20\n      add\n      and(0xffffffffffffffffffffffffffffffffffffffff, 0x00)\n      dup2\n      mstore\n      0x20\n      add\n      0x60\n      dup2\n      mstore\n      0x20\n      add\n      0x00\n      dup1\n      not\n      and\n      dup2\n      mstore\n      0x20\n      add\n      0x00\n      dup2\n      mstore\n      0x20\n      add\n      0x00\n      dup2\n      mstore\n      pop\n      swap1\n      jump\t// out\n    tag_258:\n      mload(0x40)\n      dup1\n      0xa0\n      add\n      0x40\n      mstore\n      dup1\n      0x00\n      0x05\n      dup2\n      gt\n      iszero\n      tag_406\n      jumpi\n      invalid\n    tag_406:\n      dup2\n      mstore\n      0x20\n      add\n      and(0xffffffffffffffffffffffffffffffffffffffff, 0x00)\n      dup2\n      mstore\n      0x20\n      add\n      0x00\n      dup2\n      mstore\n      0x20\n      add\n      0x00\n      dup1\n      not\n      and\n      dup2\n      mstore\n      0x20\n      add\n      iszero(iszero(0x00))\n      dup2\n      mstore\n      pop\n      swap1\n      jump\t// out\n    tag_351:\n      mload(0x40)\n      dup1\n      0xe0\n      add\n      0x40\n      mstore\n      dup1\n      0x60\n      dup2\n      mstore\n      0x20\n      add\n      and(0xffffffffffffffffffffffffffffffffffffffff, 0x00)\n      dup2\n      mstore\n      0x20\n      add\n      0x60\n      dup2\n      mstore\n      0x20\n      add\n      and(0xffffffffffffffffffffffffffffffffffffffff, 0x00)\n      dup2\n      mstore\n      0x20\n      add\n      0x60\n      dup2\n      mstore\n      0x20\n      add\n      0x60\n      dup2\n      mstore\n      0x20\n      add\n      0x60\n      dup2\n      mstore\n      pop\n      swap1\n      jump\t// out\n    tag_405:\n      tag_407\n      swap2\n      swap1\n    tag_408:\n      dup1\n      dup3\n      gt\n      iszero\n      tag_409\n      jumpi\n      0x00\n      dup2\n      0x00\n      swap1\n      sstore\n      pop\n      0x01\n      add\n      jump(tag_408)\n    tag_409:\n      pop\n      swap1\n      jump\n    tag_407:\n      swap1\n      jump\t// out\n        /* \"--CODEGEN--\":5:135   */\n    tag_411:\n      0x00\n        /* \"--CODEGEN--\":85:91   */\n      dup2\n        /* \"--CODEGEN--\":72:92   */\n      calldataload\n        /* \"--CODEGEN--\":63:92   */\n      swap1\n      pop\n        /* \"--CODEGEN--\":97:130   */\n      tag_413\n        /* \"--CODEGEN--\":124:129   */\n      dup2\n        /* \"--CODEGEN--\":97:130   */\n      jump(tag_414)\n    tag_413:\n        /* \"--CODEGEN--\":57:135   */\n      swap3\n      swap2\n      pop\n      pop\n      jump\n        /* \"--CODEGEN--\":142:266   */\n    tag_415:\n      0x00\n        /* \"--CODEGEN--\":219:225   */\n      dup2\n        /* \"--CODEGEN--\":206:226   */\n      calldataload\n        /* \"--CODEGEN--\":197:226   */\n      swap1\n      pop\n        /* \"--CODEGEN--\":231:261   */\n      tag_417\n        /* \"--CODEGEN--\":255:260   */\n      dup2\n        /* \"--CODEGEN--\":231:261   */\n      jump(tag_418)\n    tag_417:\n        /* \"--CODEGEN--\":191:266   */\n      swap3\n      swap2\n      pop\n      pop\n      jump\n        /* \"--CODEGEN--\":273:403   */\n    tag_419:\n      0x00\n        /* \"--CODEGEN--\":353:359   */\n      dup2\n        /* \"--CODEGEN--\":340:360   */\n      calldataload\n        /* \"--CODEGEN--\":331:360   */\n      swap1\n      pop\n        /* \"--CODEGEN--\":365:398   */\n      tag_421\n        /* \"--CODEGEN--\":392:397   */\n      dup2\n        /* \"--CODEGEN--\":365:398   */\n      jump(tag_422)\n    tag_421:\n        /* \"--CODEGEN--\":325:403   */\n      swap3\n      swap2\n      pop\n      pop\n      jump\n        /* \"--CODEGEN--\":411:853   */\n    tag_423:\n      0x00\n        /* \"--CODEGEN--\":513:516   */\n      dup3\n        /* \"--CODEGEN--\":506:510   */\n      0x1f\n        /* \"--CODEGEN--\":498:504   */\n      dup4\n        /* \"--CODEGEN--\":494:511   */\n      add\n        /* \"--CODEGEN--\":490:517   */\n      slt\n        /* \"--CODEGEN--\":480:482   */\n      tag_425\n      jumpi\n        /* \"--CODEGEN--\":531:532   */\n      0x00\n        /* \"--CODEGEN--\":528:529   */\n      dup1\n        /* \"--CODEGEN--\":521:533   */\n      revert\n        /* \"--CODEGEN--\":480:482   */\n    tag_425:\n        /* \"--CODEGEN--\":568:574   */\n      dup2\n        /* \"--CODEGEN--\":555:575   */\n      calldataload\n        /* \"--CODEGEN--\":590:655   */\n      tag_426\n        /* \"--CODEGEN--\":605:654   */\n      tag_427\n        /* \"--CODEGEN--\":647:653   */\n      dup3\n        /* \"--CODEGEN--\":605:654   */\n      jump(tag_428)\n    tag_427:\n        /* \"--CODEGEN--\":590:655   */\n      jump(tag_429)\n    tag_426:\n        /* \"--CODEGEN--\":581:655   */\n      swap2\n      pop\n        /* \"--CODEGEN--\":675:681   */\n      dup1\n        /* \"--CODEGEN--\":668:673   */\n      dup3\n        /* \"--CODEGEN--\":661:682   */\n      mstore\n        /* \"--CODEGEN--\":711:715   */\n      0x20\n        /* \"--CODEGEN--\":703:709   */\n      dup4\n        /* \"--CODEGEN--\":699:716   */\n      add\n        /* \"--CODEGEN--\":744:748   */\n      0x20\n        /* \"--CODEGEN--\":737:742   */\n      dup4\n        /* \"--CODEGEN--\":733:749   */\n      add\n        /* \"--CODEGEN--\":779:782   */\n      dup6\n        /* \"--CODEGEN--\":770:776   */\n      dup4\n        /* \"--CODEGEN--\":765:768   */\n      dup4\n        /* \"--CODEGEN--\":761:777   */\n      add\n        /* \"--CODEGEN--\":758:783   */\n      gt\n        /* \"--CODEGEN--\":755:757   */\n      iszero\n      tag_430\n      jumpi\n        /* \"--CODEGEN--\":796:797   */\n      0x00\n        /* \"--CODEGEN--\":793:794   */\n      dup1\n        /* \"--CODEGEN--\":786:798   */\n      revert\n        /* \"--CODEGEN--\":755:757   */\n    tag_430:\n        /* \"--CODEGEN--\":806:847   */\n      tag_431\n        /* \"--CODEGEN--\":840:846   */\n      dup4\n        /* \"--CODEGEN--\":835:838   */\n      dup3\n        /* \"--CODEGEN--\":830:833   */\n      dup5\n        /* \"--CODEGEN--\":806:847   */\n      jump(tag_432)\n    tag_431:\n        /* \"--CODEGEN--\":473:853   */\n      pop\n      pop\n      pop\n      swap3\n      swap2\n      pop\n      pop\n      jump\n        /* \"--CODEGEN--\":862:1306   */\n    tag_433:\n      0x00\n        /* \"--CODEGEN--\":975:978   */\n      dup3\n        /* \"--CODEGEN--\":968:972   */\n      0x1f\n        /* \"--CODEGEN--\":960:966   */\n      dup4\n        /* \"--CODEGEN--\":956:973   */\n      add\n        /* \"--CODEGEN--\":952:979   */\n      slt\n        /* \"--CODEGEN--\":942:944   */\n      tag_435\n      jumpi\n        /* \"--CODEGEN--\":993:994   */\n      0x00\n        /* \"--CODEGEN--\":990:991   */\n      dup1\n        /* \"--CODEGEN--\":983:995   */\n      revert\n        /* \"--CODEGEN--\":942:944   */\n    tag_435:\n        /* \"--CODEGEN--\":1023:1029   */\n      dup2\n        /* \"--CODEGEN--\":1017:1030   */\n      mload\n        /* \"--CODEGEN--\":1045:1110   */\n      tag_436\n        /* \"--CODEGEN--\":1060:1109   */\n      tag_437\n        /* \"--CODEGEN--\":1102:1108   */\n      dup3\n        /* \"--CODEGEN--\":1060:1109   */\n      jump(tag_428)\n    tag_437:\n        /* \"--CODEGEN--\":1045:1110   */\n      jump(tag_429)\n    tag_436:\n        /* \"--CODEGEN--\":1036:1110   */\n      swap2\n      pop\n        /* \"--CODEGEN--\":1130:1136   */\n      dup1\n        /* \"--CODEGEN--\":1123:1128   */\n      dup3\n        /* \"--CODEGEN--\":1116:1137   */\n      mstore\n        /* \"--CODEGEN--\":1166:1170   */\n      0x20\n        /* \"--CODEGEN--\":1158:1164   */\n      dup4\n        /* \"--CODEGEN--\":1154:1171   */\n      add\n        /* \"--CODEGEN--\":1199:1203   */\n      0x20\n        /* \"--CODEGEN--\":1192:1197   */\n      dup4\n        /* \"--CODEGEN--\":1188:1204   */\n      add\n        /* \"--CODEGEN--\":1234:1237   */\n      dup6\n        /* \"--CODEGEN--\":1225:1231   */\n      dup4\n        /* \"--CODEGEN--\":1220:1223   */\n      dup4\n        /* \"--CODEGEN--\":1216:1232   */\n      add\n        /* \"--CODEGEN--\":1213:1238   */\n      gt\n        /* \"--CODEGEN--\":1210:1212   */\n      iszero\n      tag_438\n      jumpi\n        /* \"--CODEGEN--\":1251:1252   */\n      0x00\n        /* \"--CODEGEN--\":1248:1249   */\n      dup1\n        /* \"--CODEGEN--\":1241:1253   */\n      revert\n        /* \"--CODEGEN--\":1210:1212   */\n    tag_438:\n        /* \"--CODEGEN--\":1261:1300   */\n      tag_439\n        /* \"--CODEGEN--\":1293:1299   */\n      dup4\n        /* \"--CODEGEN--\":1288:1291   */\n      dup3\n        /* \"--CODEGEN--\":1283:1286   */\n      dup5\n        /* \"--CODEGEN--\":1261:1300   */\n      jump(tag_440)\n    tag_439:\n        /* \"--CODEGEN--\":935:1306   */\n      pop\n      pop\n      pop\n      swap3\n      swap2\n      pop\n      pop\n      jump\n        /* \"--CODEGEN--\":1314:1444   */\n    tag_441:\n      0x00\n        /* \"--CODEGEN--\":1394:1400   */\n      dup2\n        /* \"--CODEGEN--\":1381:1401   */\n      calldataload\n        /* \"--CODEGEN--\":1372:1401   */\n      swap1\n      pop\n        /* \"--CODEGEN--\":1406:1439   */\n      tag_443\n        /* \"--CODEGEN--\":1433:1438   */\n      dup2\n        /* \"--CODEGEN--\":1406:1439   */\n      jump(tag_444)\n    tag_443:\n        /* \"--CODEGEN--\":1366:1444   */\n      swap3\n      swap2\n      pop\n      pop\n      jump\n        /* \"--CODEGEN--\":1451:1692   */\n    tag_42:\n      0x00\n        /* \"--CODEGEN--\":1555:1557   */\n      0x20\n        /* \"--CODEGEN--\":1543:1552   */\n      dup3\n        /* \"--CODEGEN--\":1534:1541   */\n      dup5\n        /* \"--CODEGEN--\":1530:1553   */\n      sub\n        /* \"--CODEGEN--\":1526:1558   */\n      slt\n        /* \"--CODEGEN--\":1523:1525   */\n      iszero\n      tag_446\n      jumpi\n        /* \"--CODEGEN--\":1571:1572   */\n      0x00\n        /* \"--CODEGEN--\":1568:1569   */\n      dup1\n        /* \"--CODEGEN--\":1561:1573   */\n      revert\n        /* \"--CODEGEN--\":1523:1525   */\n    tag_446:\n        /* \"--CODEGEN--\":1606:1607   */\n      0x00\n        /* \"--CODEGEN--\":1623:1676   */\n      tag_447\n        /* \"--CODEGEN--\":1668:1675   */\n      dup5\n        /* \"--CODEGEN--\":1659:1665   */\n      dup3\n        /* \"--CODEGEN--\":1648:1657   */\n      dup6\n        /* \"--CODEGEN--\":1644:1666   */\n      add\n        /* \"--CODEGEN--\":1623:1676   */\n      jump(tag_411)\n    tag_447:\n        /* \"--CODEGEN--\":1613:1676   */\n      swap2\n      pop\n        /* \"--CODEGEN--\":1585:1682   */\n      pop\n        /* \"--CODEGEN--\":1517:1692   */\n      swap3\n      swap2\n      pop\n      pop\n      jump\n        /* \"--CODEGEN--\":1699:2065   */\n    tag_52:\n      0x00\n      dup1\n        /* \"--CODEGEN--\":1820:1822   */\n      0x40\n        /* \"--CODEGEN--\":1808:1817   */\n      dup4\n        /* \"--CODEGEN--\":1799:1806   */\n      dup6\n        /* \"--CODEGEN--\":1795:1818   */\n      sub\n        /* \"--CODEGEN--\":1791:1823   */\n      slt\n        /* \"--CODEGEN--\":1788:1790   */\n      iszero\n      tag_449\n      jumpi\n        /* \"--CODEGEN--\":1836:1837   */\n      0x00\n        /* \"--CODEGEN--\":1833:1834   */\n      dup1\n        /* \"--CODEGEN--\":1826:1838   */\n      revert\n        /* \"--CODEGEN--\":1788:1790   */\n    tag_449:\n        /* \"--CODEGEN--\":1871:1872   */\n      0x00\n        /* \"--CODEGEN--\":1888:1941   */\n      tag_450\n        /* \"--CODEGEN--\":1933:1940   */\n      dup6\n        /* \"--CODEGEN--\":1924:1930   */\n      dup3\n        /* \"--CODEGEN--\":1913:1922   */\n      dup7\n        /* \"--CODEGEN--\":1909:1931   */\n      add\n        /* \"--CODEGEN--\":1888:1941   */\n      jump(tag_411)\n    tag_450:\n        /* \"--CODEGEN--\":1878:1941   */\n      swap3\n      pop\n        /* \"--CODEGEN--\":1850:1947   */\n      pop\n        /* \"--CODEGEN--\":1978:1980   */\n      0x20\n        /* \"--CODEGEN--\":1996:2049   */\n      tag_451\n        /* \"--CODEGEN--\":2041:2048   */\n      dup6\n        /* \"--CODEGEN--\":2032:2038   */\n      dup3\n        /* \"--CODEGEN--\":2021:2030   */\n      dup7\n        /* \"--CODEGEN--\":2017:2039   */\n      add\n        /* \"--CODEGEN--\":1996:2049   */\n      jump(tag_411)\n    tag_451:\n        /* \"--CODEGEN--\":1986:2049   */\n      swap2\n      pop\n        /* \"--CODEGEN--\":1957:2055   */\n      pop\n        /* \"--CODEGEN--\":1782:2065   */\n      swap3\n      pop\n      swap3\n      swap1\n      pop\n      jump\n        /* \"--CODEGEN--\":2072:2563   */\n    tag_36:\n      0x00\n      dup1\n      0x00\n        /* \"--CODEGEN--\":2210:2212   */\n      0x60\n        /* \"--CODEGEN--\":2198:2207   */\n      dup5\n        /* \"--CODEGEN--\":2189:2196   */\n      dup7\n        /* \"--CODEGEN--\":2185:2208   */\n      sub\n        /* \"--CODEGEN--\":2181:2213   */\n      slt\n        /* \"--CODEGEN--\":2178:2180   */\n      iszero\n      tag_453\n      jumpi\n        /* \"--CODEGEN--\":2226:2227   */\n      0x00\n        /* \"--CODEGEN--\":2223:2224   */\n      dup1\n        /* \"--CODEGEN--\":2216:2228   */\n      revert\n        /* \"--CODEGEN--\":2178:2180   */\n    tag_453:\n        /* \"--CODEGEN--\":2261:2262   */\n      0x00\n        /* \"--CODEGEN--\":2278:2331   */\n      tag_454\n        /* \"--CODEGEN--\":2323:2330   */\n      dup7\n        /* \"--CODEGEN--\":2314:2320   */\n      dup3\n        /* \"--CODEGEN--\":2303:2312   */\n      dup8\n        /* \"--CODEGEN--\":2299:2321   */\n      add\n        /* \"--CODEGEN--\":2278:2331   */\n      jump(tag_411)\n    tag_454:\n        /* \"--CODEGEN--\":2268:2331   */\n      swap4\n      pop\n        /* \"--CODEGEN--\":2240:2337   */\n      pop\n        /* \"--CODEGEN--\":2368:2370   */\n      0x20\n        /* \"--CODEGEN--\":2386:2439   */\n      tag_455\n        /* \"--CODEGEN--\":2431:2438   */\n      dup7\n        /* \"--CODEGEN--\":2422:2428   */\n      dup3\n        /* \"--CODEGEN--\":2411:2420   */\n      dup8\n        /* \"--CODEGEN--\":2407:2429   */\n      add\n        /* \"--CODEGEN--\":2386:2439   */\n      jump(tag_411)\n    tag_455:\n        /* \"--CODEGEN--\":2376:2439   */\n      swap3\n      pop\n        /* \"--CODEGEN--\":2347:2445   */\n      pop\n        /* \"--CODEGEN--\":2476:2478   */\n      0x40\n        /* \"--CODEGEN--\":2494:2547   */\n      tag_456\n        /* \"--CODEGEN--\":2539:2546   */\n      dup7\n        /* \"--CODEGEN--\":2530:2536   */\n      dup3\n        /* \"--CODEGEN--\":2519:2528   */\n      dup8\n        /* \"--CODEGEN--\":2515:2537   */\n      add\n        /* \"--CODEGEN--\":2494:2547   */\n      jump(tag_441)\n    tag_456:\n        /* \"--CODEGEN--\":2484:2547   */\n      swap2\n      pop\n        /* \"--CODEGEN--\":2455:2553   */\n      pop\n        /* \"--CODEGEN--\":2172:2563   */\n      swap3\n      pop\n      swap3\n      pop\n      swap3\n      jump\n        /* \"--CODEGEN--\":2570:2936   */\n    tag_73:\n      0x00\n      dup1\n        /* \"--CODEGEN--\":2691:2693   */\n      0x40\n        /* \"--CODEGEN--\":2679:2688   */\n      dup4\n        /* \"--CODEGEN--\":2670:2677   */\n      dup6\n        /* \"--CODEGEN--\":2666:2689   */\n      sub\n        /* \"--CODEGEN--\":2662:2694   */\n      slt\n        /* \"--CODEGEN--\":2659:2661   */\n      iszero\n      tag_458\n      jumpi\n        /* \"--CODEGEN--\":2707:2708   */\n      0x00\n        /* \"--CODEGEN--\":2704:2705   */\n      dup1\n        /* \"--CODEGEN--\":2697:2709   */\n      revert\n        /* \"--CODEGEN--\":2659:2661   */\n    tag_458:\n        /* \"--CODEGEN--\":2742:2743   */\n      0x00\n        /* \"--CODEGEN--\":2759:2812   */\n      tag_459\n        /* \"--CODEGEN--\":2804:2811   */\n      dup6\n        /* \"--CODEGEN--\":2795:2801   */\n      dup3\n        /* \"--CODEGEN--\":2784:2793   */\n      dup7\n        /* \"--CODEGEN--\":2780:2802   */\n      add\n        /* \"--CODEGEN--\":2759:2812   */\n      jump(tag_411)\n    tag_459:\n        /* \"--CODEGEN--\":2749:2812   */\n      swap3\n      pop\n        /* \"--CODEGEN--\":2721:2818   */\n      pop\n        /* \"--CODEGEN--\":2849:2851   */\n      0x20\n        /* \"--CODEGEN--\":2867:2920   */\n      tag_460\n        /* \"--CODEGEN--\":2912:2919   */\n      dup6\n        /* \"--CODEGEN--\":2903:2909   */\n      dup3\n        /* \"--CODEGEN--\":2892:2901   */\n      dup7\n        /* \"--CODEGEN--\":2888:2910   */\n      add\n        /* \"--CODEGEN--\":2867:2920   */\n      jump(tag_441)\n    tag_460:\n        /* \"--CODEGEN--\":2857:2920   */\n      swap2\n      pop\n        /* \"--CODEGEN--\":2828:2926   */\n      pop\n        /* \"--CODEGEN--\":2653:2936   */\n      swap3\n      pop\n      swap3\n      swap1\n      pop\n      jump\n        /* \"--CODEGEN--\":2943:3428   */\n    tag_83:\n      0x00\n      dup1\n      0x00\n        /* \"--CODEGEN--\":3078:3080   */\n      0x60\n        /* \"--CODEGEN--\":3066:3075   */\n      dup5\n        /* \"--CODEGEN--\":3057:3064   */\n      dup7\n        /* \"--CODEGEN--\":3053:3076   */\n      sub\n        /* \"--CODEGEN--\":3049:3081   */\n      slt\n        /* \"--CODEGEN--\":3046:3048   */\n      iszero\n      tag_462\n      jumpi\n        /* \"--CODEGEN--\":3094:3095   */\n      0x00\n        /* \"--CODEGEN--\":3091:3092   */\n      dup1\n        /* \"--CODEGEN--\":3084:3096   */\n      revert\n        /* \"--CODEGEN--\":3046:3048   */\n    tag_462:\n        /* \"--CODEGEN--\":3129:3130   */\n      0x00\n        /* \"--CODEGEN--\":3146:3196   */\n      tag_463\n        /* \"--CODEGEN--\":3188:3195   */\n      dup7\n        /* \"--CODEGEN--\":3179:3185   */\n      dup3\n        /* \"--CODEGEN--\":3168:3177   */\n      dup8\n        /* \"--CODEGEN--\":3164:3186   */\n      add\n        /* \"--CODEGEN--\":3146:3196   */\n      jump(tag_415)\n    tag_463:\n        /* \"--CODEGEN--\":3136:3196   */\n      swap4\n      pop\n        /* \"--CODEGEN--\":3108:3202   */\n      pop\n        /* \"--CODEGEN--\":3233:3235   */\n      0x20\n        /* \"--CODEGEN--\":3251:3304   */\n      tag_464\n        /* \"--CODEGEN--\":3296:3303   */\n      dup7\n        /* \"--CODEGEN--\":3287:3293   */\n      dup3\n        /* \"--CODEGEN--\":3276:3285   */\n      dup8\n        /* \"--CODEGEN--\":3272:3294   */\n      add\n        /* \"--CODEGEN--\":3251:3304   */\n      jump(tag_411)\n    tag_464:\n        /* \"--CODEGEN--\":3241:3304   */\n      swap3\n      pop\n        /* \"--CODEGEN--\":3212:3310   */\n      pop\n        /* \"--CODEGEN--\":3341:3343   */\n      0x40\n        /* \"--CODEGEN--\":3359:3412   */\n      tag_465\n        /* \"--CODEGEN--\":3404:3411   */\n      dup7\n        /* \"--CODEGEN--\":3395:3401   */\n      dup3\n        /* \"--CODEGEN--\":3384:3393   */\n      dup8\n        /* \"--CODEGEN--\":3380:3402   */\n      add\n        /* \"--CODEGEN--\":3359:3412   */\n      jump(tag_441)\n    tag_465:\n        /* \"--CODEGEN--\":3349:3412   */\n      swap2\n      pop\n        /* \"--CODEGEN--\":3320:3418   */\n      pop\n        /* \"--CODEGEN--\":3040:3428   */\n      swap3\n      pop\n      swap3\n      pop\n      swap3\n      jump\n        /* \"--CODEGEN--\":3435:4278   */\n    tag_113:\n      0x00\n      dup1\n      0x00\n      dup1\n      0x00\n        /* \"--CODEGEN--\":3614:3617   */\n      0xa0\n        /* \"--CODEGEN--\":3602:3611   */\n      dup7\n        /* \"--CODEGEN--\":3593:3600   */\n      dup9\n        /* \"--CODEGEN--\":3589:3612   */\n      sub\n        /* \"--CODEGEN--\":3585:3618   */\n      slt\n        /* \"--CODEGEN--\":3582:3584   */\n      iszero\n      tag_467\n      jumpi\n        /* \"--CODEGEN--\":3631:3632   */\n      0x00\n        /* \"--CODEGEN--\":3628:3629   */\n      dup1\n        /* \"--CODEGEN--\":3621:3633   */\n      revert\n        /* \"--CODEGEN--\":3582:3584   */\n    tag_467:\n        /* \"--CODEGEN--\":3666:3667   */\n      0x00\n        /* \"--CODEGEN--\":3683:3733   */\n      tag_468\n        /* \"--CODEGEN--\":3725:3732   */\n      dup9\n        /* \"--CODEGEN--\":3716:3722   */\n      dup3\n        /* \"--CODEGEN--\":3705:3714   */\n      dup10\n        /* \"--CODEGEN--\":3701:3723   */\n      add\n        /* \"--CODEGEN--\":3683:3733   */\n      jump(tag_415)\n    tag_468:\n        /* \"--CODEGEN--\":3673:3733   */\n      swap6\n      pop\n        /* \"--CODEGEN--\":3645:3739   */\n      pop\n        /* \"--CODEGEN--\":3770:3772   */\n      0x20\n        /* \"--CODEGEN--\":3788:3841   */\n      tag_469\n        /* \"--CODEGEN--\":3833:3840   */\n      dup9\n        /* \"--CODEGEN--\":3824:3830   */\n      dup3\n        /* \"--CODEGEN--\":3813:3822   */\n      dup10\n        /* \"--CODEGEN--\":3809:3831   */\n      add\n        /* \"--CODEGEN--\":3788:3841   */\n      jump(tag_419)\n    tag_469:\n        /* \"--CODEGEN--\":3778:3841   */\n      swap5\n      pop\n        /* \"--CODEGEN--\":3749:3847   */\n      pop\n        /* \"--CODEGEN--\":3906:3908   */\n      0x40\n        /* \"--CODEGEN--\":3895:3904   */\n      dup7\n        /* \"--CODEGEN--\":3891:3909   */\n      add\n        /* \"--CODEGEN--\":3878:3910   */\n      calldataload\n        /* \"--CODEGEN--\":3930:3948   */\n      0xffffffffffffffff\n        /* \"--CODEGEN--\":3922:3928   */\n      dup2\n        /* \"--CODEGEN--\":3919:3949   */\n      gt\n        /* \"--CODEGEN--\":3916:3918   */\n      iszero\n      tag_470\n      jumpi\n        /* \"--CODEGEN--\":3962:3963   */\n      0x00\n        /* \"--CODEGEN--\":3959:3960   */\n      dup1\n        /* \"--CODEGEN--\":3952:3964   */\n      revert\n        /* \"--CODEGEN--\":3916:3918   */\n    tag_470:\n        /* \"--CODEGEN--\":3982:4045   */\n      tag_471\n        /* \"--CODEGEN--\":4037:4044   */\n      dup9\n        /* \"--CODEGEN--\":4028:4034   */\n      dup3\n        /* \"--CODEGEN--\":4017:4026   */\n      dup10\n        /* \"--CODEGEN--\":4013:4035   */\n      add\n        /* \"--CODEGEN--\":3982:4045   */\n      jump(tag_423)\n    tag_471:\n        /* \"--CODEGEN--\":3972:4045   */\n      swap4\n      pop\n        /* \"--CODEGEN--\":3857:4051   */\n      pop\n        /* \"--CODEGEN--\":4082:4084   */\n      0x60\n        /* \"--CODEGEN--\":4100:4153   */\n      tag_472\n        /* \"--CODEGEN--\":4145:4152   */\n      dup9\n        /* \"--CODEGEN--\":4136:4142   */\n      dup3\n        /* \"--CODEGEN--\":4125:4134   */\n      dup10\n        /* \"--CODEGEN--\":4121:4143   */\n      add\n        /* \"--CODEGEN--\":4100:4153   */\n      jump(tag_411)\n    tag_472:\n        /* \"--CODEGEN--\":4090:4153   */\n      swap3\n      pop\n        /* \"--CODEGEN--\":4061:4159   */\n      pop\n        /* \"--CODEGEN--\":4190:4193   */\n      0x80\n        /* \"--CODEGEN--\":4209:4262   */\n      tag_473\n        /* \"--CODEGEN--\":4254:4261   */\n      dup9\n        /* \"--CODEGEN--\":4245:4251   */\n      dup3\n        /* \"--CODEGEN--\":4234:4243   */\n      dup10\n        /* \"--CODEGEN--\":4230:4252   */\n      add\n        /* \"--CODEGEN--\":4209:4262   */\n      jump(tag_441)\n    tag_473:\n        /* \"--CODEGEN--\":4199:4262   */\n      swap2\n      pop\n        /* \"--CODEGEN--\":4169:4268   */\n      pop\n        /* \"--CODEGEN--\":3576:4278   */\n      swap3\n      swap6\n      pop\n      swap3\n      swap6\n      swap1\n      swap4\n      pop\n      jump\n        /* \"--CODEGEN--\":4285:4902   */\n    tag_87:\n      0x00\n      dup1\n      0x00\n      dup1\n        /* \"--CODEGEN--\":4440:4443   */\n      0x80\n        /* \"--CODEGEN--\":4428:4437   */\n      dup6\n        /* \"--CODEGEN--\":4419:4426   */\n      dup8\n        /* \"--CODEGEN--\":4415:4438   */\n      sub\n        /* \"--CODEGEN--\":4411:4444   */\n      slt\n        /* \"--CODEGEN--\":4408:4410   */\n      iszero\n      tag_475\n      jumpi\n        /* \"--CODEGEN--\":4457:4458   */\n      0x00\n        /* \"--CODEGEN--\":4454:4455   */\n      dup1\n        /* \"--CODEGEN--\":4447:4459   */\n      revert\n        /* \"--CODEGEN--\":4408:4410   */\n    tag_475:\n        /* \"--CODEGEN--\":4492:4493   */\n      0x00\n        /* \"--CODEGEN--\":4509:4562   */\n      tag_476\n        /* \"--CODEGEN--\":4554:4561   */\n      dup8\n        /* \"--CODEGEN--\":4545:4551   */\n      dup3\n        /* \"--CODEGEN--\":4534:4543   */\n      dup9\n        /* \"--CODEGEN--\":4530:4552   */\n      add\n        /* \"--CODEGEN--\":4509:4562   */\n      jump(tag_419)\n    tag_476:\n        /* \"--CODEGEN--\":4499:4562   */\n      swap5\n      pop\n        /* \"--CODEGEN--\":4471:4568   */\n      pop\n        /* \"--CODEGEN--\":4599:4601   */\n      0x20\n        /* \"--CODEGEN--\":4617:4670   */\n      tag_477\n        /* \"--CODEGEN--\":4662:4669   */\n      dup8\n        /* \"--CODEGEN--\":4653:4659   */\n      dup3\n        /* \"--CODEGEN--\":4642:4651   */\n      dup9\n        /* \"--CODEGEN--\":4638:4660   */\n      add\n        /* \"--CODEGEN--\":4617:4670   */\n      jump(tag_411)\n    tag_477:\n        /* \"--CODEGEN--\":4607:4670   */\n      swap4\n      pop\n        /* \"--CODEGEN--\":4578:4676   */\n      pop\n        /* \"--CODEGEN--\":4707:4709   */\n      0x40\n        /* \"--CODEGEN--\":4725:4778   */\n      tag_478\n        /* \"--CODEGEN--\":4770:4777   */\n      dup8\n        /* \"--CODEGEN--\":4761:4767   */\n      dup3\n        /* \"--CODEGEN--\":4750:4759   */\n      dup9\n        /* \"--CODEGEN--\":4746:4768   */\n      add\n        /* \"--CODEGEN--\":4725:4778   */\n      jump(tag_411)\n    tag_478:\n        /* \"--CODEGEN--\":4715:4778   */\n      swap3\n      pop\n        /* \"--CODEGEN--\":4686:4784   */\n      pop\n        /* \"--CODEGEN--\":4815:4817   */\n      0x60\n        /* \"--CODEGEN--\":4833:4886   */\n      tag_479\n        /* \"--CODEGEN--\":4878:4885   */\n      dup8\n        /* \"--CODEGEN--\":4869:4875   */\n      dup3\n        /* \"--CODEGEN--\":4858:4867   */\n      dup9\n        /* \"--CODEGEN--\":4854:4876   */\n      add\n        /* \"--CODEGEN--\":4833:4886   */\n      jump(tag_441)\n    tag_479:\n        /* \"--CODEGEN--\":4823:4886   */\n      swap2\n      pop\n        /* \"--CODEGEN--\":4794:4892   */\n      pop\n        /* \"--CODEGEN--\":4402:4902   */\n      swap3\n      swap6\n      swap2\n      swap5\n      pop\n      swap3\n      pop\n      jump\n        /* \"--CODEGEN--\":4909:5632   */\n    tag_120:\n      0x00\n      dup1\n      0x00\n      dup1\n        /* \"--CODEGEN--\":5074:5077   */\n      0x80\n        /* \"--CODEGEN--\":5062:5071   */\n      dup6\n        /* \"--CODEGEN--\":5053:5060   */\n      dup8\n        /* \"--CODEGEN--\":5049:5072   */\n      sub\n        /* \"--CODEGEN--\":5045:5078   */\n      slt\n        /* \"--CODEGEN--\":5042:5044   */\n      iszero\n      tag_481\n      jumpi\n        /* \"--CODEGEN--\":5091:5092   */\n      0x00\n        /* \"--CODEGEN--\":5088:5089   */\n      dup1\n        /* \"--CODEGEN--\":5081:5093   */\n      revert\n        /* \"--CODEGEN--\":5042:5044   */\n    tag_481:\n        /* \"--CODEGEN--\":5126:5127   */\n      0x00\n        /* \"--CODEGEN--\":5143:5196   */\n      tag_482\n        /* \"--CODEGEN--\":5188:5195   */\n      dup8\n        /* \"--CODEGEN--\":5179:5185   */\n      dup3\n        /* \"--CODEGEN--\":5168:5177   */\n      dup9\n        /* \"--CODEGEN--\":5164:5186   */\n      add\n        /* \"--CODEGEN--\":5143:5196   */\n      jump(tag_419)\n    tag_482:\n        /* \"--CODEGEN--\":5133:5196   */\n      swap5\n      pop\n        /* \"--CODEGEN--\":5105:5202   */\n      pop\n        /* \"--CODEGEN--\":5261:5263   */\n      0x20\n        /* \"--CODEGEN--\":5250:5259   */\n      dup6\n        /* \"--CODEGEN--\":5246:5264   */\n      add\n        /* \"--CODEGEN--\":5233:5265   */\n      calldataload\n        /* \"--CODEGEN--\":5285:5303   */\n      0xffffffffffffffff\n        /* \"--CODEGEN--\":5277:5283   */\n      dup2\n        /* \"--CODEGEN--\":5274:5304   */\n      gt\n        /* \"--CODEGEN--\":5271:5273   */\n      iszero\n      tag_483\n      jumpi\n        /* \"--CODEGEN--\":5317:5318   */\n      0x00\n        /* \"--CODEGEN--\":5314:5315   */\n      dup1\n        /* \"--CODEGEN--\":5307:5319   */\n      revert\n        /* \"--CODEGEN--\":5271:5273   */\n    tag_483:\n        /* \"--CODEGEN--\":5337:5400   */\n      tag_484\n        /* \"--CODEGEN--\":5392:5399   */\n      dup8\n        /* \"--CODEGEN--\":5383:5389   */\n      dup3\n        /* \"--CODEGEN--\":5372:5381   */\n      dup9\n        /* \"--CODEGEN--\":5368:5390   */\n      add\n        /* \"--CODEGEN--\":5337:5400   */\n      jump(tag_423)\n    tag_484:\n        /* \"--CODEGEN--\":5327:5400   */\n      swap4\n      pop\n        /* \"--CODEGEN--\":5212:5406   */\n      pop\n        /* \"--CODEGEN--\":5437:5439   */\n      0x40\n        /* \"--CODEGEN--\":5455:5508   */\n      tag_485\n        /* \"--CODEGEN--\":5500:5507   */\n      dup8\n        /* \"--CODEGEN--\":5491:5497   */\n      dup3\n        /* \"--CODEGEN--\":5480:5489   */\n      dup9\n        /* \"--CODEGEN--\":5476:5498   */\n      add\n        /* \"--CODEGEN--\":5455:5508   */\n      jump(tag_411)\n    tag_485:\n        /* \"--CODEGEN--\":5445:5508   */\n      swap3\n      pop\n        /* \"--CODEGEN--\":5416:5514   */\n      pop\n        /* \"--CODEGEN--\":5545:5547   */\n      0x60\n        /* \"--CODEGEN--\":5563:5616   */\n      tag_486\n        /* \"--CODEGEN--\":5608:5615   */\n      dup8\n        /* \"--CODEGEN--\":5599:5605   */\n      dup3\n        /* \"--CODEGEN--\":5588:5597   */\n      dup9\n        /* \"--CODEGEN--\":5584:5606   */\n      add\n        /* \"--CODEGEN--\":5563:5616   */\n      jump(tag_441)\n    tag_486:\n        /* \"--CODEGEN--\":5553:5616   */\n      swap2\n      pop\n        /* \"--CODEGEN--\":5524:5622   */\n      pop\n        /* \"--CODEGEN--\":5036:5632   */\n      swap3\n      swap6\n      swap2\n      swap5\n      pop\n      swap3\n      pop\n      jump\n        /* \"--CODEGEN--\":5639:6001   */\n    tag_167:\n      0x00\n        /* \"--CODEGEN--\":5764:5766   */\n      0x20\n        /* \"--CODEGEN--\":5752:5761   */\n      dup3\n        /* \"--CODEGEN--\":5743:5750   */\n      dup5\n        /* \"--CODEGEN--\":5739:5762   */\n      sub\n        /* \"--CODEGEN--\":5735:5767   */\n      slt\n        /* \"--CODEGEN--\":5732:5734   */\n      iszero\n      tag_488\n      jumpi\n        /* \"--CODEGEN--\":5780:5781   */\n      0x00\n        /* \"--CODEGEN--\":5777:5778   */\n      dup1\n        /* \"--CODEGEN--\":5770:5782   */\n      revert\n        /* \"--CODEGEN--\":5732:5734   */\n    tag_488:\n        /* \"--CODEGEN--\":5836:5837   */\n      0x00\n        /* \"--CODEGEN--\":5825:5834   */\n      dup3\n        /* \"--CODEGEN--\":5821:5838   */\n      add\n        /* \"--CODEGEN--\":5815:5839   */\n      mload\n        /* \"--CODEGEN--\":5859:5877   */\n      0xffffffffffffffff\n        /* \"--CODEGEN--\":5851:5857   */\n      dup2\n        /* \"--CODEGEN--\":5848:5878   */\n      gt\n        /* \"--CODEGEN--\":5845:5847   */\n      iszero\n      tag_489\n      jumpi\n        /* \"--CODEGEN--\":5891:5892   */\n      0x00\n        /* \"--CODEGEN--\":5888:5889   */\n      dup1\n        /* \"--CODEGEN--\":5881:5893   */\n      revert\n        /* \"--CODEGEN--\":5845:5847   */\n    tag_489:\n        /* \"--CODEGEN--\":5911:5985   */\n      tag_490\n        /* \"--CODEGEN--\":5977:5984   */\n      dup5\n        /* \"--CODEGEN--\":5968:5974   */\n      dup3\n        /* \"--CODEGEN--\":5957:5966   */\n      dup6\n        /* \"--CODEGEN--\":5953:5975   */\n      add\n        /* \"--CODEGEN--\":5911:5985   */\n      jump(tag_433)\n    tag_490:\n        /* \"--CODEGEN--\":5901:5985   */\n      swap2\n      pop\n        /* \"--CODEGEN--\":5794:5991   */\n      pop\n        /* \"--CODEGEN--\":5726:6001   */\n      swap3\n      swap2\n      pop\n      pop\n      jump\n        /* \"--CODEGEN--\":6008:7321   */\n    tag_69:\n      0x00\n      dup1\n      0x00\n      dup1\n      0x00\n      dup1\n      0x00\n        /* \"--CODEGEN--\":6244:6247   */\n      0xe0\n        /* \"--CODEGEN--\":6232:6241   */\n      dup9\n        /* \"--CODEGEN--\":6223:6230   */\n      dup11\n        /* \"--CODEGEN--\":6219:6242   */\n      sub\n        /* \"--CODEGEN--\":6215:6248   */\n      slt\n        /* \"--CODEGEN--\":6212:6214   */\n      iszero\n      tag_492\n      jumpi\n        /* \"--CODEGEN--\":6261:6262   */\n      0x00\n        /* \"--CODEGEN--\":6258:6259   */\n      dup1\n        /* \"--CODEGEN--\":6251:6263   */\n      revert\n        /* \"--CODEGEN--\":6212:6214   */\n    tag_492:\n        /* \"--CODEGEN--\":6324:6325   */\n      0x00\n        /* \"--CODEGEN--\":6313:6322   */\n      dup9\n        /* \"--CODEGEN--\":6309:6326   */\n      add\n        /* \"--CODEGEN--\":6296:6327   */\n      calldataload\n        /* \"--CODEGEN--\":6347:6365   */\n      0xffffffffffffffff\n        /* \"--CODEGEN--\":6339:6345   */\n      dup2\n        /* \"--CODEGEN--\":6336:6366   */\n      gt\n        /* \"--CODEGEN--\":6333:6335   */\n      iszero\n      tag_493\n      jumpi\n        /* \"--CODEGEN--\":6379:6380   */\n      0x00\n        /* \"--CODEGEN--\":6376:6377   */\n      dup1\n        /* \"--CODEGEN--\":6369:6381   */\n      revert\n        /* \"--CODEGEN--\":6333:6335   */\n    tag_493:\n        /* \"--CODEGEN--\":6399:6462   */\n      tag_494\n        /* \"--CODEGEN--\":6454:6461   */\n      dup11\n        /* \"--CODEGEN--\":6445:6451   */\n      dup3\n        /* \"--CODEGEN--\":6434:6443   */\n      dup12\n        /* \"--CODEGEN--\":6430:6452   */\n      add\n        /* \"--CODEGEN--\":6399:6462   */\n      jump(tag_423)\n    tag_494:\n        /* \"--CODEGEN--\":6389:6462   */\n      swap8\n      pop\n        /* \"--CODEGEN--\":6275:6468   */\n      pop\n        /* \"--CODEGEN--\":6499:6501   */\n      0x20\n        /* \"--CODEGEN--\":6517:6570   */\n      tag_495\n        /* \"--CODEGEN--\":6562:6569   */\n      dup11\n        /* \"--CODEGEN--\":6553:6559   */\n      dup3\n        /* \"--CODEGEN--\":6542:6551   */\n      dup12\n        /* \"--CODEGEN--\":6538:6560   */\n      add\n        /* \"--CODEGEN--\":6517:6570   */\n      jump(tag_411)\n    tag_495:\n        /* \"--CODEGEN--\":6507:6570   */\n      swap7\n      pop\n        /* \"--CODEGEN--\":6478:6576   */\n      pop\n        /* \"--CODEGEN--\":6635:6637   */\n      0x40\n        /* \"--CODEGEN--\":6624:6633   */\n      dup9\n        /* \"--CODEGEN--\":6620:6638   */\n      add\n        /* \"--CODEGEN--\":6607:6639   */\n      calldataload\n        /* \"--CODEGEN--\":6659:6677   */\n      0xffffffffffffffff\n        /* \"--CODEGEN--\":6651:6657   */\n      dup2\n        /* \"--CODEGEN--\":6648:6678   */\n      gt\n        /* \"--CODEGEN--\":6645:6647   */\n      iszero\n      tag_496\n      jumpi\n        /* \"--CODEGEN--\":6691:6692   */\n      0x00\n        /* \"--CODEGEN--\":6688:6689   */\n      dup1\n        /* \"--CODEGEN--\":6681:6693   */\n      revert\n        /* \"--CODEGEN--\":6645:6647   */\n    tag_496:\n        /* \"--CODEGEN--\":6711:6774   */\n      tag_497\n        /* \"--CODEGEN--\":6766:6773   */\n      dup11\n        /* \"--CODEGEN--\":6757:6763   */\n      dup3\n        /* \"--CODEGEN--\":6746:6755   */\n      dup12\n        /* \"--CODEGEN--\":6742:6764   */\n      add\n        /* \"--CODEGEN--\":6711:6774   */\n      jump(tag_423)\n    tag_497:\n        /* \"--CODEGEN--\":6701:6774   */\n      swap6\n      pop\n        /* \"--CODEGEN--\":6586:6780   */\n      pop\n        /* \"--CODEGEN--\":6811:6813   */\n      0x60\n        /* \"--CODEGEN--\":6829:6882   */\n      tag_498\n        /* \"--CODEGEN--\":6874:6881   */\n      dup11\n        /* \"--CODEGEN--\":6865:6871   */\n      dup3\n        /* \"--CODEGEN--\":6854:6863   */\n      dup12\n        /* \"--CODEGEN--\":6850:6872   */\n      add\n        /* \"--CODEGEN--\":6829:6882   */\n      jump(tag_411)\n    tag_498:\n        /* \"--CODEGEN--\":6819:6882   */\n      swap5\n      pop\n        /* \"--CODEGEN--\":6790:6888   */\n      pop\n        /* \"--CODEGEN--\":6947:6950   */\n      0x80\n        /* \"--CODEGEN--\":6936:6945   */\n      dup9\n        /* \"--CODEGEN--\":6932:6951   */\n      add\n        /* \"--CODEGEN--\":6919:6952   */\n      calldataload\n        /* \"--CODEGEN--\":6972:6990   */\n      0xffffffffffffffff\n        /* \"--CODEGEN--\":6964:6970   */\n      dup2\n        /* \"--CODEGEN--\":6961:6991   */\n      gt\n        /* \"--CODEGEN--\":6958:6960   */\n      iszero\n      tag_499\n      jumpi\n        /* \"--CODEGEN--\":7004:7005   */\n      0x00\n        /* \"--CODEGEN--\":7001:7002   */\n      dup1\n        /* \"--CODEGEN--\":6994:7006   */\n      revert\n        /* \"--CODEGEN--\":6958:6960   */\n    tag_499:\n        /* \"--CODEGEN--\":7024:7087   */\n      tag_500\n        /* \"--CODEGEN--\":7079:7086   */\n      dup11\n        /* \"--CODEGEN--\":7070:7076   */\n      dup3\n        /* \"--CODEGEN--\":7059:7068   */\n      dup12\n        /* \"--CODEGEN--\":7055:7077   */\n      add\n        /* \"--CODEGEN--\":7024:7087   */\n      jump(tag_423)\n    tag_500:\n        /* \"--CODEGEN--\":7014:7087   */\n      swap4\n      pop\n        /* \"--CODEGEN--\":6898:7093   */\n      pop\n        /* \"--CODEGEN--\":7124:7127   */\n      0xa0\n        /* \"--CODEGEN--\":7143:7196   */\n      tag_501\n        /* \"--CODEGEN--\":7188:7195   */\n      dup11\n        /* \"--CODEGEN--\":7179:7185   */\n      dup3\n        /* \"--CODEGEN--\":7168:7177   */\n      dup12\n        /* \"--CODEGEN--\":7164:7186   */\n      add\n        /* \"--CODEGEN--\":7143:7196   */\n      jump(tag_419)\n    tag_501:\n        /* \"--CODEGEN--\":7133:7196   */\n      swap3\n      pop\n        /* \"--CODEGEN--\":7103:7202   */\n      pop\n        /* \"--CODEGEN--\":7233:7236   */\n      0xc0\n        /* \"--CODEGEN--\":7252:7305   */\n      tag_502\n        /* \"--CODEGEN--\":7297:7304   */\n      dup11\n        /* \"--CODEGEN--\":7288:7294   */\n      dup3\n        /* \"--CODEGEN--\":7277:7286   */\n      dup12\n        /* \"--CODEGEN--\":7273:7295   */\n      add\n        /* \"--CODEGEN--\":7252:7305   */\n      jump(tag_441)\n    tag_502:\n        /* \"--CODEGEN--\":7242:7305   */\n      swap2\n      pop\n        /* \"--CODEGEN--\":7212:7311   */\n      pop\n        /* \"--CODEGEN--\":6206:7321   */\n      swap3\n      swap6\n      swap9\n      swap2\n      swap5\n      swap8\n      pop\n      swap3\n      swap6\n      pop\n      jump\n        /* \"--CODEGEN--\":7328:8621   */\n    tag_65:\n      0x00\n      dup1\n      0x00\n      dup1\n      0x00\n      dup1\n        /* \"--CODEGEN--\":7557:7560   */\n      0xc0\n        /* \"--CODEGEN--\":7545:7554   */\n      dup8\n        /* \"--CODEGEN--\":7536:7543   */\n      dup10\n        /* \"--CODEGEN--\":7532:7555   */\n      sub\n        /* \"--CODEGEN--\":7528:7561   */\n      slt\n        /* \"--CODEGEN--\":7525:7527   */\n      iszero\n      tag_504\n      jumpi\n        /* \"--CODEGEN--\":7574:7575   */\n      0x00\n        /* \"--CODEGEN--\":7571:7572   */\n      dup1\n        /* \"--CODEGEN--\":7564:7576   */\n      revert\n        /* \"--CODEGEN--\":7525:7527   */\n    tag_504:\n        /* \"--CODEGEN--\":7637:7638   */\n      0x00\n        /* \"--CODEGEN--\":7626:7635   */\n      dup8\n        /* \"--CODEGEN--\":7622:7639   */\n      add\n        /* \"--CODEGEN--\":7609:7640   */\n      calldataload\n        /* \"--CODEGEN--\":7660:7678   */\n      0xffffffffffffffff\n        /* \"--CODEGEN--\":7652:7658   */\n      dup2\n        /* \"--CODEGEN--\":7649:7679   */\n      gt\n        /* \"--CODEGEN--\":7646:7648   */\n      iszero\n      tag_505\n      jumpi\n        /* \"--CODEGEN--\":7692:7693   */\n      0x00\n        /* \"--CODEGEN--\":7689:7690   */\n      dup1\n        /* \"--CODEGEN--\":7682:7694   */\n      revert\n        /* \"--CODEGEN--\":7646:7648   */\n    tag_505:\n        /* \"--CODEGEN--\":7712:7775   */\n      tag_506\n        /* \"--CODEGEN--\":7767:7774   */\n      dup10\n        /* \"--CODEGEN--\":7758:7764   */\n      dup3\n        /* \"--CODEGEN--\":7747:7756   */\n      dup11\n        /* \"--CODEGEN--\":7743:7765   */\n      add\n        /* \"--CODEGEN--\":7712:7775   */\n      jump(tag_423)\n    tag_506:\n        /* \"--CODEGEN--\":7702:7775   */\n      swap7\n      pop\n        /* \"--CODEGEN--\":7588:7781   */\n      pop\n        /* \"--CODEGEN--\":7812:7814   */\n      0x20\n        /* \"--CODEGEN--\":7830:7883   */\n      tag_507\n        /* \"--CODEGEN--\":7875:7882   */\n      dup10\n        /* \"--CODEGEN--\":7866:7872   */\n      dup3\n        /* \"--CODEGEN--\":7855:7864   */\n      dup11\n        /* \"--CODEGEN--\":7851:7873   */\n      add\n        /* \"--CODEGEN--\":7830:7883   */\n      jump(tag_411)\n    tag_507:\n        /* \"--CODEGEN--\":7820:7883   */\n      swap6\n      pop\n        /* \"--CODEGEN--\":7791:7889   */\n      pop\n        /* \"--CODEGEN--\":7948:7950   */\n      0x40\n        /* \"--CODEGEN--\":7937:7946   */\n      dup8\n        /* \"--CODEGEN--\":7933:7951   */\n      add\n        /* \"--CODEGEN--\":7920:7952   */\n      calldataload\n        /* \"--CODEGEN--\":7972:7990   */\n      0xffffffffffffffff\n        /* \"--CODEGEN--\":7964:7970   */\n      dup2\n        /* \"--CODEGEN--\":7961:7991   */\n      gt\n        /* \"--CODEGEN--\":7958:7960   */\n      iszero\n      tag_508\n      jumpi\n        /* \"--CODEGEN--\":8004:8005   */\n      0x00\n        /* \"--CODEGEN--\":8001:8002   */\n      dup1\n        /* \"--CODEGEN--\":7994:8006   */\n      revert\n        /* \"--CODEGEN--\":7958:7960   */\n    tag_508:\n        /* \"--CODEGEN--\":8024:8087   */\n      tag_509\n        /* \"--CODEGEN--\":8079:8086   */\n      dup10\n        /* \"--CODEGEN--\":8070:8076   */\n      dup3\n        /* \"--CODEGEN--\":8059:8068   */\n      dup11\n        /* \"--CODEGEN--\":8055:8077   */\n      add\n        /* \"--CODEGEN--\":8024:8087   */\n      jump(tag_423)\n    tag_509:\n        /* \"--CODEGEN--\":8014:8087   */\n      swap5\n      pop\n        /* \"--CODEGEN--\":7899:8093   */\n      pop\n        /* \"--CODEGEN--\":8124:8126   */\n      0x60\n        /* \"--CODEGEN--\":8142:8195   */\n      tag_510\n        /* \"--CODEGEN--\":8187:8194   */\n      dup10\n        /* \"--CODEGEN--\":8178:8184   */\n      dup3\n        /* \"--CODEGEN--\":8167:8176   */\n      dup11\n        /* \"--CODEGEN--\":8163:8185   */\n      add\n        /* \"--CODEGEN--\":8142:8195   */\n      jump(tag_411)\n    tag_510:\n        /* \"--CODEGEN--\":8132:8195   */\n      swap4\n      pop\n        /* \"--CODEGEN--\":8103:8201   */\n      pop\n        /* \"--CODEGEN--\":8260:8263   */\n      0x80\n        /* \"--CODEGEN--\":8249:8258   */\n      dup8\n        /* \"--CODEGEN--\":8245:8264   */\n      add\n        /* \"--CODEGEN--\":8232:8265   */\n      calldataload\n        /* \"--CODEGEN--\":8285:8303   */\n      0xffffffffffffffff\n        /* \"--CODEGEN--\":8277:8283   */\n      dup2\n        /* \"--CODEGEN--\":8274:8304   */\n      gt\n        /* \"--CODEGEN--\":8271:8273   */\n      iszero\n      tag_511\n      jumpi\n        /* \"--CODEGEN--\":8317:8318   */\n      0x00\n        /* \"--CODEGEN--\":8314:8315   */\n      dup1\n        /* \"--CODEGEN--\":8307:8319   */\n      revert\n        /* \"--CODEGEN--\":8271:8273   */\n    tag_511:\n        /* \"--CODEGEN--\":8337:8400   */\n      tag_512\n        /* \"--CODEGEN--\":8392:8399   */\n      dup10\n        /* \"--CODEGEN--\":8383:8389   */\n      dup3\n        /* \"--CODEGEN--\":8372:8381   */\n      dup11\n        /* \"--CODEGEN--\":8368:8390   */\n      add\n        /* \"--CODEGEN--\":8337:8400   */\n      jump(tag_423)\n    tag_512:\n        /* \"--CODEGEN--\":8327:8400   */\n      swap3\n      pop\n        /* \"--CODEGEN--\":8211:8406   */\n      pop\n        /* \"--CODEGEN--\":8465:8468   */\n      0xa0\n        /* \"--CODEGEN--\":8454:8463   */\n      dup8\n        /* \"--CODEGEN--\":8450:8469   */\n      add\n        /* \"--CODEGEN--\":8437:8470   */\n      calldataload\n        /* \"--CODEGEN--\":8490:8508   */\n      0xffffffffffffffff\n        /* \"--CODEGEN--\":8482:8488   */\n      dup2\n        /* \"--CODEGEN--\":8479:8509   */\n      gt\n        /* \"--CODEGEN--\":8476:8478   */\n      iszero\n      tag_513\n      jumpi\n        /* \"--CODEGEN--\":8522:8523   */\n      0x00\n        /* \"--CODEGEN--\":8519:8520   */\n      dup1\n        /* \"--CODEGEN--\":8512:8524   */\n      revert\n        /* \"--CODEGEN--\":8476:8478   */\n    tag_513:\n        /* \"--CODEGEN--\":8542:8605   */\n      tag_514\n        /* \"--CODEGEN--\":8597:8604   */\n      dup10\n        /* \"--CODEGEN--\":8588:8594   */\n      dup3\n        /* \"--CODEGEN--\":8577:8586   */\n      dup11\n        /* \"--CODEGEN--\":8573:8595   */\n      add\n        /* \"--CODEGEN--\":8542:8605   */\n      jump(tag_423)\n    tag_514:\n        /* \"--CODEGEN--\":8532:8605   */\n      swap2\n      pop\n        /* \"--CODEGEN--\":8416:8611   */\n      pop\n        /* \"--CODEGEN--\":7519:8621   */\n      swap3\n      swap6\n      pop\n      swap3\n      swap6\n      pop\n      swap3\n      swap6\n      jump\n        /* \"--CODEGEN--\":8628:10153   */\n    tag_124:\n      0x00\n      dup1\n      0x00\n      dup1\n      0x00\n      dup1\n      0x00\n        /* \"--CODEGEN--\":8884:8887   */\n      0xe0\n        /* \"--CODEGEN--\":8872:8881   */\n      dup9\n        /* \"--CODEGEN--\":8863:8870   */\n      dup11\n        /* \"--CODEGEN--\":8859:8882   */\n      sub\n        /* \"--CODEGEN--\":8855:8888   */\n      slt\n        /* \"--CODEGEN--\":8852:8854   */\n      iszero\n      tag_516\n      jumpi\n        /* \"--CODEGEN--\":8901:8902   */\n      0x00\n        /* \"--CODEGEN--\":8898:8899   */\n      dup1\n        /* \"--CODEGEN--\":8891:8903   */\n      revert\n        /* \"--CODEGEN--\":8852:8854   */\n    tag_516:\n        /* \"--CODEGEN--\":8964:8965   */\n      0x00\n        /* \"--CODEGEN--\":8953:8962   */\n      dup9\n        /* \"--CODEGEN--\":8949:8966   */\n      add\n        /* \"--CODEGEN--\":8936:8967   */\n      calldataload\n        /* \"--CODEGEN--\":8987:9005   */\n      0xffffffffffffffff\n        /* \"--CODEGEN--\":8979:8985   */\n      dup2\n        /* \"--CODEGEN--\":8976:9006   */\n      gt\n        /* \"--CODEGEN--\":8973:8975   */\n      iszero\n      tag_517\n      jumpi\n        /* \"--CODEGEN--\":9019:9020   */\n      0x00\n        /* \"--CODEGEN--\":9016:9017   */\n      dup1\n        /* \"--CODEGEN--\":9009:9021   */\n      revert\n        /* \"--CODEGEN--\":8973:8975   */\n    tag_517:\n        /* \"--CODEGEN--\":9039:9102   */\n      tag_518\n        /* \"--CODEGEN--\":9094:9101   */\n      dup11\n        /* \"--CODEGEN--\":9085:9091   */\n      dup3\n        /* \"--CODEGEN--\":9074:9083   */\n      dup12\n        /* \"--CODEGEN--\":9070:9092   */\n      add\n        /* \"--CODEGEN--\":9039:9102   */\n      jump(tag_423)\n    tag_518:\n        /* \"--CODEGEN--\":9029:9102   */\n      swap8\n      pop\n        /* \"--CODEGEN--\":8915:9108   */\n      pop\n        /* \"--CODEGEN--\":9139:9141   */\n      0x20\n        /* \"--CODEGEN--\":9157:9210   */\n      tag_519\n        /* \"--CODEGEN--\":9202:9209   */\n      dup11\n        /* \"--CODEGEN--\":9193:9199   */\n      dup3\n        /* \"--CODEGEN--\":9182:9191   */\n      dup12\n        /* \"--CODEGEN--\":9178:9200   */\n      add\n        /* \"--CODEGEN--\":9157:9210   */\n      jump(tag_411)\n    tag_519:\n        /* \"--CODEGEN--\":9147:9210   */\n      swap7\n      pop\n        /* \"--CODEGEN--\":9118:9216   */\n      pop\n        /* \"--CODEGEN--\":9275:9277   */\n      0x40\n        /* \"--CODEGEN--\":9264:9273   */\n      dup9\n        /* \"--CODEGEN--\":9260:9278   */\n      add\n        /* \"--CODEGEN--\":9247:9279   */\n      calldataload\n        /* \"--CODEGEN--\":9299:9317   */\n      0xffffffffffffffff\n        /* \"--CODEGEN--\":9291:9297   */\n      dup2\n        /* \"--CODEGEN--\":9288:9318   */\n      gt\n        /* \"--CODEGEN--\":9285:9287   */\n      iszero\n      tag_520\n      jumpi\n        /* \"--CODEGEN--\":9331:9332   */\n      0x00\n        /* \"--CODEGEN--\":9328:9329   */\n      dup1\n        /* \"--CODEGEN--\":9321:9333   */\n      revert\n        /* \"--CODEGEN--\":9285:9287   */\n    tag_520:\n        /* \"--CODEGEN--\":9351:9414   */\n      tag_521\n        /* \"--CODEGEN--\":9406:9413   */\n      dup11\n        /* \"--CODEGEN--\":9397:9403   */\n      dup3\n        /* \"--CODEGEN--\":9386:9395   */\n      dup12\n        /* \"--CODEGEN--\":9382:9404   */\n      add\n        /* \"--CODEGEN--\":9351:9414   */\n      jump(tag_423)\n    tag_521:\n        /* \"--CODEGEN--\":9341:9414   */\n      swap6\n      pop\n        /* \"--CODEGEN--\":9226:9420   */\n      pop\n        /* \"--CODEGEN--\":9451:9453   */\n      0x60\n        /* \"--CODEGEN--\":9469:9522   */\n      tag_522\n        /* \"--CODEGEN--\":9514:9521   */\n      dup11\n        /* \"--CODEGEN--\":9505:9511   */\n      dup3\n        /* \"--CODEGEN--\":9494:9503   */\n      dup12\n        /* \"--CODEGEN--\":9490:9512   */\n      add\n        /* \"--CODEGEN--\":9469:9522   */\n      jump(tag_411)\n    tag_522:\n        /* \"--CODEGEN--\":9459:9522   */\n      swap5\n      pop\n        /* \"--CODEGEN--\":9430:9528   */\n      pop\n        /* \"--CODEGEN--\":9587:9590   */\n      0x80\n        /* \"--CODEGEN--\":9576:9585   */\n      dup9\n        /* \"--CODEGEN--\":9572:9591   */\n      add\n        /* \"--CODEGEN--\":9559:9592   */\n      calldataload\n        /* \"--CODEGEN--\":9612:9630   */\n      0xffffffffffffffff\n        /* \"--CODEGEN--\":9604:9610   */\n      dup2\n        /* \"--CODEGEN--\":9601:9631   */\n      gt\n        /* \"--CODEGEN--\":9598:9600   */\n      iszero\n      tag_523\n      jumpi\n        /* \"--CODEGEN--\":9644:9645   */\n      0x00\n        /* \"--CODEGEN--\":9641:9642   */\n      dup1\n        /* \"--CODEGEN--\":9634:9646   */\n      revert\n        /* \"--CODEGEN--\":9598:9600   */\n    tag_523:\n        /* \"--CODEGEN--\":9664:9727   */\n      tag_524\n        /* \"--CODEGEN--\":9719:9726   */\n      dup11\n        /* \"--CODEGEN--\":9710:9716   */\n      dup3\n        /* \"--CODEGEN--\":9699:9708   */\n      dup12\n        /* \"--CODEGEN--\":9695:9717   */\n      add\n        /* \"--CODEGEN--\":9664:9727   */\n      jump(tag_423)\n    tag_524:\n        /* \"--CODEGEN--\":9654:9727   */\n      swap4\n      pop\n        /* \"--CODEGEN--\":9538:9733   */\n      pop\n        /* \"--CODEGEN--\":9792:9795   */\n      0xa0\n        /* \"--CODEGEN--\":9781:9790   */\n      dup9\n        /* \"--CODEGEN--\":9777:9796   */\n      add\n        /* \"--CODEGEN--\":9764:9797   */\n      calldataload\n        /* \"--CODEGEN--\":9817:9835   */\n      0xffffffffffffffff\n        /* \"--CODEGEN--\":9809:9815   */\n      dup2\n        /* \"--CODEGEN--\":9806:9836   */\n      gt\n        /* \"--CODEGEN--\":9803:9805   */\n      iszero\n      tag_525\n      jumpi\n        /* \"--CODEGEN--\":9849:9850   */\n      0x00\n        /* \"--CODEGEN--\":9846:9847   */\n      dup1\n        /* \"--CODEGEN--\":9839:9851   */\n      revert\n        /* \"--CODEGEN--\":9803:9805   */\n    tag_525:\n        /* \"--CODEGEN--\":9869:9932   */\n      tag_526\n        /* \"--CODEGEN--\":9924:9931   */\n      dup11\n        /* \"--CODEGEN--\":9915:9921   */\n      dup3\n        /* \"--CODEGEN--\":9904:9913   */\n      dup12\n        /* \"--CODEGEN--\":9900:9922   */\n      add\n        /* \"--CODEGEN--\":9869:9932   */\n      jump(tag_423)\n    tag_526:\n        /* \"--CODEGEN--\":9859:9932   */\n      swap3\n      pop\n        /* \"--CODEGEN--\":9743:9938   */\n      pop\n        /* \"--CODEGEN--\":9997:10000   */\n      0xc0\n        /* \"--CODEGEN--\":9986:9995   */\n      dup9\n        /* \"--CODEGEN--\":9982:10001   */\n      add\n        /* \"--CODEGEN--\":9969:10002   */\n      calldataload\n        /* \"--CODEGEN--\":10022:10040   */\n      0xffffffffffffffff\n        /* \"--CODEGEN--\":10014:10020   */\n      dup2\n        /* \"--CODEGEN--\":10011:10041   */\n      gt\n        /* \"--CODEGEN--\":10008:10010   */\n      iszero\n      tag_527\n      jumpi\n        /* \"--CODEGEN--\":10054:10055   */\n      0x00\n        /* \"--CODEGEN--\":10051:10052   */\n      dup1\n        /* \"--CODEGEN--\":10044:10056   */\n      revert\n        /* \"--CODEGEN--\":10008:10010   */\n    tag_527:\n        /* \"--CODEGEN--\":10074:10137   */\n      tag_528\n        /* \"--CODEGEN--\":10129:10136   */\n      dup11\n        /* \"--CODEGEN--\":10120:10126   */\n      dup3\n        /* \"--CODEGEN--\":10109:10118   */\n      dup12\n        /* \"--CODEGEN--\":10105:10127   */\n      add\n        /* \"--CODEGEN--\":10074:10137   */\n      jump(tag_423)\n    tag_528:\n        /* \"--CODEGEN--\":10064:10137   */\n      swap2\n      pop\n        /* \"--CODEGEN--\":9948:10143   */\n      pop\n        /* \"--CODEGEN--\":8846:10153   */\n      swap3\n      swap6\n      swap9\n      swap2\n      swap5\n      swap8\n      pop\n      swap3\n      swap6\n      pop\n      jump\n        /* \"--CODEGEN--\":10160:10401   */\n    tag_56:\n      0x00\n        /* \"--CODEGEN--\":10264:10266   */\n      0x20\n        /* \"--CODEGEN--\":10252:10261   */\n      dup3\n        /* \"--CODEGEN--\":10243:10250   */\n      dup5\n        /* \"--CODEGEN--\":10239:10262   */\n      sub\n        /* \"--CODEGEN--\":10235:10267   */\n      slt\n        /* \"--CODEGEN--\":10232:10234   */\n      iszero\n      tag_530\n      jumpi\n        /* \"--CODEGEN--\":10280:10281   */\n      0x00\n        /* \"--CODEGEN--\":10277:10278   */\n      dup1\n        /* \"--CODEGEN--\":10270:10282   */\n      revert\n        /* \"--CODEGEN--\":10232:10234   */\n    tag_530:\n        /* \"--CODEGEN--\":10315:10316   */\n      0x00\n        /* \"--CODEGEN--\":10332:10385   */\n      tag_531\n        /* \"--CODEGEN--\":10377:10384   */\n      dup5\n        /* \"--CODEGEN--\":10368:10374   */\n      dup3\n        /* \"--CODEGEN--\":10357:10366   */\n      dup6\n        /* \"--CODEGEN--\":10353:10375   */\n      add\n        /* \"--CODEGEN--\":10332:10385   */\n      jump(tag_441)\n    tag_531:\n        /* \"--CODEGEN--\":10322:10385   */\n      swap2\n      pop\n        /* \"--CODEGEN--\":10294:10391   */\n      pop\n        /* \"--CODEGEN--\":10226:10401   */\n      swap3\n      swap2\n      pop\n      pop\n      jump\n        /* \"--CODEGEN--\":10408:10550   */\n    tag_532:\n        /* \"--CODEGEN--\":10499:10544   */\n      tag_534\n        /* \"--CODEGEN--\":10538:10543   */\n      dup2\n        /* \"--CODEGEN--\":10499:10544   */\n      jump(tag_535)\n    tag_534:\n        /* \"--CODEGEN--\":10494:10497   */\n      dup3\n        /* \"--CODEGEN--\":10487:10545   */\n      mstore\n        /* \"--CODEGEN--\":10481:10550   */\n      pop\n      pop\n      jump\n        /* \"--CODEGEN--\":10557:10670   */\n    tag_536:\n        /* \"--CODEGEN--\":10640:10664   */\n      tag_538\n        /* \"--CODEGEN--\":10658:10663   */\n      dup2\n        /* \"--CODEGEN--\":10640:10664   */\n      jump(tag_539)\n    tag_538:\n        /* \"--CODEGEN--\":10635:10638   */\n      dup3\n        /* \"--CODEGEN--\":10628:10665   */\n      mstore\n        /* \"--CODEGEN--\":10622:10670   */\n      pop\n      pop\n      jump\n        /* \"--CODEGEN--\":10677:10781   */\n    tag_540:\n        /* \"--CODEGEN--\":10754:10775   */\n      tag_542\n        /* \"--CODEGEN--\":10769:10774   */\n      dup2\n        /* \"--CODEGEN--\":10754:10775   */\n      jump(tag_543)\n    tag_542:\n        /* \"--CODEGEN--\":10749:10752   */\n      dup3\n        /* \"--CODEGEN--\":10742:10776   */\n      mstore\n        /* \"--CODEGEN--\":10736:10781   */\n      pop\n      pop\n      jump\n        /* \"--CODEGEN--\":10788:10901   */\n    tag_544:\n        /* \"--CODEGEN--\":10871:10895   */\n      tag_546\n        /* \"--CODEGEN--\":10889:10894   */\n      dup2\n        /* \"--CODEGEN--\":10871:10895   */\n      jump(tag_547)\n    tag_546:\n        /* \"--CODEGEN--\":10866:10869   */\n      dup3\n        /* \"--CODEGEN--\":10859:10896   */\n      mstore\n        /* \"--CODEGEN--\":10853:10901   */\n      pop\n      pop\n      jump\n        /* \"--CODEGEN--\":10908:11060   */\n    tag_548:\n        /* \"--CODEGEN--\":11009:11054   */\n      tag_550\n        /* \"--CODEGEN--\":11029:11053   */\n      tag_551\n        /* \"--CODEGEN--\":11047:11052   */\n      dup3\n        /* \"--CODEGEN--\":11029:11053   */\n      jump(tag_547)\n    tag_551:\n        /* \"--CODEGEN--\":11009:11054   */\n      jump(tag_552)\n    tag_550:\n        /* \"--CODEGEN--\":11004:11007   */\n      dup3\n        /* \"--CODEGEN--\":10997:11055   */\n      mstore\n        /* \"--CODEGEN--\":10991:11060   */\n      pop\n      pop\n      jump\n        /* \"--CODEGEN--\":11067:11219   */\n    tag_553:\n        /* \"--CODEGEN--\":11163:11213   */\n      tag_555\n        /* \"--CODEGEN--\":11207:11212   */\n      dup2\n        /* \"--CODEGEN--\":11163:11213   */\n      jump(tag_556)\n    tag_555:\n        /* \"--CODEGEN--\":11158:11161   */\n      dup3\n        /* \"--CODEGEN--\":11151:11214   */\n      mstore\n        /* \"--CODEGEN--\":11145:11219   */\n      pop\n      pop\n      jump\n        /* \"--CODEGEN--\":11226:11573   */\n    tag_557:\n      0x00\n        /* \"--CODEGEN--\":11338:11377   */\n      tag_559\n        /* \"--CODEGEN--\":11371:11376   */\n      dup3\n        /* \"--CODEGEN--\":11338:11377   */\n      jump(tag_560)\n    tag_559:\n        /* \"--CODEGEN--\":11389:11460   */\n      tag_561\n        /* \"--CODEGEN--\":11453:11459   */\n      dup2\n        /* \"--CODEGEN--\":11448:11451   */\n      dup6\n        /* \"--CODEGEN--\":11389:11460   */\n      jump(tag_562)\n    tag_561:\n        /* \"--CODEGEN--\":11382:11460   */\n      swap4\n      pop\n        /* \"--CODEGEN--\":11465:11517   */\n      tag_563\n        /* \"--CODEGEN--\":11510:11516   */\n      dup2\n        /* \"--CODEGEN--\":11505:11508   */\n      dup6\n        /* \"--CODEGEN--\":11498:11502   */\n      0x20\n        /* \"--CODEGEN--\":11491:11496   */\n      dup7\n        /* \"--CODEGEN--\":11487:11503   */\n      add\n        /* \"--CODEGEN--\":11465:11517   */\n      jump(tag_440)\n    tag_563:\n        /* \"--CODEGEN--\":11538:11567   */\n      tag_564\n        /* \"--CODEGEN--\":11560:11566   */\n      dup2\n        /* \"--CODEGEN--\":11538:11567   */\n      jump(tag_565)\n    tag_564:\n        /* \"--CODEGEN--\":11533:11536   */\n      dup5\n        /* \"--CODEGEN--\":11529:11568   */\n      add\n        /* \"--CODEGEN--\":11522:11568   */\n      swap2\n      pop\n        /* \"--CODEGEN--\":11318:11573   */\n      pop\n      swap3\n      swap2\n      pop\n      pop\n      jump\n        /* \"--CODEGEN--\":11580:11940   */\n    tag_566:\n      0x00\n        /* \"--CODEGEN--\":11710:11749   */\n      tag_568\n        /* \"--CODEGEN--\":11743:11748   */\n      dup3\n        /* \"--CODEGEN--\":11710:11749   */\n      jump(tag_560)\n    tag_568:\n        /* \"--CODEGEN--\":11761:11850   */\n      tag_569\n        /* \"--CODEGEN--\":11843:11849   */\n      dup2\n        /* \"--CODEGEN--\":11838:11841   */\n      dup6\n        /* \"--CODEGEN--\":11761:11850   */\n      jump(tag_570)\n    tag_569:\n        /* \"--CODEGEN--\":11754:11850   */\n      swap4\n      pop\n        /* \"--CODEGEN--\":11855:11907   */\n      tag_571\n        /* \"--CODEGEN--\":11900:11906   */\n      dup2\n        /* \"--CODEGEN--\":11895:11898   */\n      dup6\n        /* \"--CODEGEN--\":11888:11892   */\n      0x20\n        /* \"--CODEGEN--\":11881:11886   */\n      dup7\n        /* \"--CODEGEN--\":11877:11893   */\n      add\n        /* \"--CODEGEN--\":11855:11907   */\n      jump(tag_440)\n    tag_571:\n        /* \"--CODEGEN--\":11928:11934   */\n      dup1\n        /* \"--CODEGEN--\":11923:11926   */\n      dup5\n        /* \"--CODEGEN--\":11919:11935   */\n      add\n        /* \"--CODEGEN--\":11912:11935   */\n      swap2\n      pop\n        /* \"--CODEGEN--\":11690:11940   */\n      pop\n      swap3\n      swap2\n      pop\n      pop\n      jump\n        /* \"--CODEGEN--\":11948:12264   */\n    tag_572:\n      0x00\n        /* \"--CODEGEN--\":12108:12175   */\n      tag_574\n        /* \"--CODEGEN--\":12172:12174   */\n      0x10\n        /* \"--CODEGEN--\":12167:12170   */\n      dup4\n        /* \"--CODEGEN--\":12108:12175   */\n      jump(tag_562)\n    tag_574:\n        /* \"--CODEGEN--\":12101:12175   */\n      swap2\n      pop\n        /* \"--CODEGEN--\":12208:12226   */\n      0x4d65646961436572746966696361746500000000000000000000000000000000\n        /* \"--CODEGEN--\":12204:12205   */\n      0x00\n        /* \"--CODEGEN--\":12199:12202   */\n      dup4\n        /* \"--CODEGEN--\":12195:12206   */\n      add\n        /* \"--CODEGEN--\":12188:12227   */\n      mstore\n        /* \"--CODEGEN--\":12255:12257   */\n      0x20\n        /* \"--CODEGEN--\":12250:12253   */\n      dup3\n        /* \"--CODEGEN--\":12246:12258   */\n      add\n        /* \"--CODEGEN--\":12239:12258   */\n      swap1\n      pop\n        /* \"--CODEGEN--\":12094:12264   */\n      swap2\n      swap1\n      pop\n      jump\n        /* \"--CODEGEN--\":12273:12601   */\n    tag_575:\n      0x00\n        /* \"--CODEGEN--\":12433:12500   */\n      tag_577\n        /* \"--CODEGEN--\":12497:12499   */\n      0x1c\n        /* \"--CODEGEN--\":12492:12495   */\n      dup4\n        /* \"--CODEGEN--\":12433:12500   */\n      jump(tag_562)\n    tag_577:\n        /* \"--CODEGEN--\":12426:12500   */\n      swap2\n      pop\n        /* \"--CODEGEN--\":12533:12563   */\n      0x5065726d697373696f6e2044656e69656420746f206164647265737300000000\n        /* \"--CODEGEN--\":12529:12530   */\n      0x00\n        /* \"--CODEGEN--\":12524:12527   */\n      dup4\n        /* \"--CODEGEN--\":12520:12531   */\n      add\n        /* \"--CODEGEN--\":12513:12564   */\n      mstore\n        /* \"--CODEGEN--\":12592:12594   */\n      0x20\n        /* \"--CODEGEN--\":12587:12590   */\n      dup3\n        /* \"--CODEGEN--\":12583:12595   */\n      add\n        /* \"--CODEGEN--\":12576:12595   */\n      swap1\n      pop\n        /* \"--CODEGEN--\":12419:12601   */\n      swap2\n      swap1\n      pop\n      jump\n        /* \"--CODEGEN--\":12610:12928   */\n    tag_578:\n      0x00\n        /* \"--CODEGEN--\":12770:12837   */\n      tag_580\n        /* \"--CODEGEN--\":12834:12836   */\n      0x12\n        /* \"--CODEGEN--\":12829:12832   */\n      dup4\n        /* \"--CODEGEN--\":12770:12837   */\n      jump(tag_562)\n    tag_580:\n        /* \"--CODEGEN--\":12763:12837   */\n      swap2\n      pop\n        /* \"--CODEGEN--\":12870:12890   */\n      0x4661696c7572652041747465737465643a200000000000000000000000000000\n        /* \"--CODEGEN--\":12866:12867   */\n      0x00\n        /* \"--CODEGEN--\":12861:12864   */\n      dup4\n        /* \"--CODEGEN--\":12857:12868   */\n      add\n        /* \"--CODEGEN--\":12850:12891   */\n      mstore\n        /* \"--CODEGEN--\":12919:12921   */\n      0x20\n        /* \"--CODEGEN--\":12914:12917   */\n      dup3\n        /* \"--CODEGEN--\":12910:12922   */\n      add\n        /* \"--CODEGEN--\":12903:12922   */\n      swap1\n      pop\n        /* \"--CODEGEN--\":12756:12928   */\n      swap2\n      swap1\n      pop\n      jump\n        /* \"--CODEGEN--\":12937:13252   */\n    tag_581:\n      0x00\n        /* \"--CODEGEN--\":13097:13164   */\n      tag_583\n        /* \"--CODEGEN--\":13161:13163   */\n      0x0f\n        /* \"--CODEGEN--\":13156:13159   */\n      dup4\n        /* \"--CODEGEN--\":13097:13164   */\n      jump(tag_562)\n    tag_583:\n        /* \"--CODEGEN--\":13090:13164   */\n      swap2\n      pop\n        /* \"--CODEGEN--\":13197:13214   */\n      0x4a6f757243657274696669636174650000000000000000000000000000000000\n        /* \"--CODEGEN--\":13193:13194   */\n      0x00\n        /* \"--CODEGEN--\":13188:13191   */\n      dup4\n        /* \"--CODEGEN--\":13184:13195   */\n      add\n        /* \"--CODEGEN--\":13177:13215   */\n      mstore\n        /* \"--CODEGEN--\":13243:13245   */\n      0x20\n        /* \"--CODEGEN--\":13238:13241   */\n      dup3\n        /* \"--CODEGEN--\":13234:13246   */\n      add\n        /* \"--CODEGEN--\":13227:13246   */\n      swap1\n      pop\n        /* \"--CODEGEN--\":13083:13252   */\n      swap2\n      swap1\n      pop\n      jump\n        /* \"--CODEGEN--\":13261:13565   */\n    tag_584:\n      0x00\n        /* \"--CODEGEN--\":13421:13487   */\n      tag_586\n        /* \"--CODEGEN--\":13485:13486   */\n      0x05\n        /* \"--CODEGEN--\":13480:13483   */\n      dup4\n        /* \"--CODEGEN--\":13421:13487   */\n      jump(tag_562)\n    tag_586:\n        /* \"--CODEGEN--\":13414:13487   */\n      swap2\n      pop\n        /* \"--CODEGEN--\":13520:13527   */\n      0x69734e4343000000000000000000000000000000000000000000000000000000\n        /* \"--CODEGEN--\":13516:13517   */\n      0x00\n        /* \"--CODEGEN--\":13511:13514   */\n      dup4\n        /* \"--CODEGEN--\":13507:13518   */\n      add\n        /* \"--CODEGEN--\":13500:13528   */\n      mstore\n        /* \"--CODEGEN--\":13556:13558   */\n      0x20\n        /* \"--CODEGEN--\":13551:13554   */\n      dup3\n        /* \"--CODEGEN--\":13547:13559   */\n      add\n        /* \"--CODEGEN--\":13540:13559   */\n      swap1\n      pop\n        /* \"--CODEGEN--\":13407:13565   */\n      swap2\n      swap1\n      pop\n      jump\n        /* \"--CODEGEN--\":13574:13879   */\n    tag_587:\n      0x00\n        /* \"--CODEGEN--\":13734:13800   */\n      tag_589\n        /* \"--CODEGEN--\":13798:13799   */\n      0x06\n        /* \"--CODEGEN--\":13793:13796   */\n      dup4\n        /* \"--CODEGEN--\":13734:13800   */\n      jump(tag_562)\n    tag_589:\n        /* \"--CODEGEN--\":13727:13800   */\n      swap2\n      pop\n        /* \"--CODEGEN--\":13833:13841   */\n      0x69734a6f75720000000000000000000000000000000000000000000000000000\n        /* \"--CODEGEN--\":13829:13830   */\n      0x00\n        /* \"--CODEGEN--\":13824:13827   */\n      dup4\n        /* \"--CODEGEN--\":13820:13831   */\n      add\n        /* \"--CODEGEN--\":13813:13842   */\n      mstore\n        /* \"--CODEGEN--\":13870:13872   */\n      0x20\n        /* \"--CODEGEN--\":13865:13868   */\n      dup3\n        /* \"--CODEGEN--\":13861:13873   */\n      add\n        /* \"--CODEGEN--\":13854:13873   */\n      swap1\n      pop\n        /* \"--CODEGEN--\":13720:13879   */\n      swap2\n      swap1\n      pop\n      jump\n        /* \"--CODEGEN--\":13888:14194   */\n    tag_590:\n      0x00\n        /* \"--CODEGEN--\":14048:14114   */\n      tag_592\n        /* \"--CODEGEN--\":14112:14113   */\n      0x07\n        /* \"--CODEGEN--\":14107:14110   */\n      dup4\n        /* \"--CODEGEN--\":14048:14114   */\n      jump(tag_562)\n    tag_592:\n        /* \"--CODEGEN--\":14041:14114   */\n      swap2\n      pop\n        /* \"--CODEGEN--\":14147:14156   */\n      0x69734d6564696100000000000000000000000000000000000000000000000000\n        /* \"--CODEGEN--\":14143:14144   */\n      0x00\n        /* \"--CODEGEN--\":14138:14141   */\n      dup4\n        /* \"--CODEGEN--\":14134:14145   */\n      add\n        /* \"--CODEGEN--\":14127:14157   */\n      mstore\n        /* \"--CODEGEN--\":14185:14187   */\n      0x20\n        /* \"--CODEGEN--\":14180:14183   */\n      dup3\n        /* \"--CODEGEN--\":14176:14188   */\n      add\n        /* \"--CODEGEN--\":14169:14188   */\n      swap1\n      pop\n        /* \"--CODEGEN--\":14034:14194   */\n      swap2\n      swap1\n      pop\n      jump\n        /* \"--CODEGEN--\":14203:14540   */\n    tag_593:\n      0x00\n        /* \"--CODEGEN--\":14381:14465   */\n      tag_595\n        /* \"--CODEGEN--\":14463:14464   */\n      0x03\n        /* \"--CODEGEN--\":14458:14461   */\n      dup4\n        /* \"--CODEGEN--\":14381:14465   */\n      jump(tag_570)\n    tag_595:\n        /* \"--CODEGEN--\":14374:14465   */\n      swap2\n      pop\n        /* \"--CODEGEN--\":14498:14503   */\n      0x5965730000000000000000000000000000000000000000000000000000000000\n        /* \"--CODEGEN--\":14494:14495   */\n      0x00\n        /* \"--CODEGEN--\":14489:14492   */\n      dup4\n        /* \"--CODEGEN--\":14485:14496   */\n      add\n        /* \"--CODEGEN--\":14478:14504   */\n      mstore\n        /* \"--CODEGEN--\":14532:14533   */\n      0x03\n        /* \"--CODEGEN--\":14527:14530   */\n      dup3\n        /* \"--CODEGEN--\":14523:14534   */\n      add\n        /* \"--CODEGEN--\":14516:14534   */\n      swap1\n      pop\n        /* \"--CODEGEN--\":14367:14540   */\n      swap2\n      swap1\n      pop\n      jump\n        /* \"--CODEGEN--\":14549:14860   */\n    tag_596:\n      0x00\n        /* \"--CODEGEN--\":14709:14776   */\n      tag_598\n        /* \"--CODEGEN--\":14773:14775   */\n      0x0b\n        /* \"--CODEGEN--\":14768:14771   */\n      dup4\n        /* \"--CODEGEN--\":14709:14776   */\n      jump(tag_562)\n    tag_598:\n        /* \"--CODEGEN--\":14702:14776   */\n      swap2\n      pop\n        /* \"--CODEGEN--\":14809:14822   */\n      0x6365727469666963617465000000000000000000000000000000000000000000\n        /* \"--CODEGEN--\":14805:14806   */\n      0x00\n        /* \"--CODEGEN--\":14800:14803   */\n      dup4\n        /* \"--CODEGEN--\":14796:14807   */\n      add\n        /* \"--CODEGEN--\":14789:14823   */\n      mstore\n        /* \"--CODEGEN--\":14851:14853   */\n      0x20\n        /* \"--CODEGEN--\":14846:14849   */\n      dup3\n        /* \"--CODEGEN--\":14842:14854   */\n      add\n        /* \"--CODEGEN--\":14835:14854   */\n      swap1\n      pop\n        /* \"--CODEGEN--\":14695:14860   */\n      swap2\n      swap1\n      pop\n      jump\n        /* \"--CODEGEN--\":14869:15253   */\n    tag_599:\n      0x00\n        /* \"--CODEGEN--\":15029:15096   */\n      tag_601\n        /* \"--CODEGEN--\":15093:15095   */\n      0x2f\n        /* \"--CODEGEN--\":15088:15091   */\n      dup4\n        /* \"--CODEGEN--\":15029:15096   */\n      jump(tag_562)\n    tag_601:\n        /* \"--CODEGEN--\":15022:15096   */\n      swap2\n      pop\n        /* \"--CODEGEN--\":15129:15163   */\n      0x5065726d697373696f6e2068617320616c7265616479206265656e204772616e\n        /* \"--CODEGEN--\":15125:15126   */\n      0x00\n        /* \"--CODEGEN--\":15120:15123   */\n      dup4\n        /* \"--CODEGEN--\":15116:15127   */\n      add\n        /* \"--CODEGEN--\":15109:15164   */\n      mstore\n        /* \"--CODEGEN--\":15198:15215   */\n      0x74656420746f2061646472657373200000000000000000000000000000000000\n        /* \"--CODEGEN--\":15193:15195   */\n      0x20\n        /* \"--CODEGEN--\":15188:15191   */\n      dup4\n        /* \"--CODEGEN--\":15184:15196   */\n      add\n        /* \"--CODEGEN--\":15177:15216   */\n      mstore\n        /* \"--CODEGEN--\":15244:15246   */\n      0x40\n        /* \"--CODEGEN--\":15239:15242   */\n      dup3\n        /* \"--CODEGEN--\":15235:15247   */\n      add\n        /* \"--CODEGEN--\":15228:15247   */\n      swap1\n      pop\n        /* \"--CODEGEN--\":15015:15253   */\n      swap2\n      swap1\n      pop\n      jump\n        /* \"--CODEGEN--\":15262:15585   */\n    tag_602:\n      0x00\n        /* \"--CODEGEN--\":15422:15489   */\n      tag_604\n        /* \"--CODEGEN--\":15486:15488   */\n      0x17\n        /* \"--CODEGEN--\":15481:15484   */\n      dup4\n        /* \"--CODEGEN--\":15422:15489   */\n      jump(tag_562)\n    tag_604:\n        /* \"--CODEGEN--\":15415:15489   */\n      swap2\n      pop\n        /* \"--CODEGEN--\":15522:15547   */\n      0x5375636365737366756c6c792041747465737465643a20000000000000000000\n        /* \"--CODEGEN--\":15518:15519   */\n      0x00\n        /* \"--CODEGEN--\":15513:15516   */\n      dup4\n        /* \"--CODEGEN--\":15509:15520   */\n      add\n        /* \"--CODEGEN--\":15502:15548   */\n      mstore\n        /* \"--CODEGEN--\":15576:15578   */\n      0x20\n        /* \"--CODEGEN--\":15571:15574   */\n      dup3\n        /* \"--CODEGEN--\":15567:15579   */\n      add\n        /* \"--CODEGEN--\":15560:15579   */\n      swap1\n      pop\n        /* \"--CODEGEN--\":15408:15585   */\n      swap2\n      swap1\n      pop\n      jump\n        /* \"--CODEGEN--\":15593:15706   */\n    tag_605:\n        /* \"--CODEGEN--\":15676:15700   */\n      tag_607\n        /* \"--CODEGEN--\":15694:15699   */\n      dup2\n        /* \"--CODEGEN--\":15676:15700   */\n      jump(tag_608)\n    tag_607:\n        /* \"--CODEGEN--\":15671:15674   */\n      dup3\n        /* \"--CODEGEN--\":15664:15701   */\n      mstore\n        /* \"--CODEGEN--\":15658:15706   */\n      pop\n      pop\n      jump\n        /* \"--CODEGEN--\":15713:15957   */\n    tag_249:\n      0x00\n        /* \"--CODEGEN--\":15832:15907   */\n      tag_610\n        /* \"--CODEGEN--\":15903:15906   */\n      dup3\n        /* \"--CODEGEN--\":15894:15900   */\n      dup5\n        /* \"--CODEGEN--\":15832:15907   */\n      jump(tag_548)\n    tag_610:\n        /* \"--CODEGEN--\":15929:15931   */\n      0x20\n        /* \"--CODEGEN--\":15924:15927   */\n      dup3\n        /* \"--CODEGEN--\":15920:15932   */\n      add\n        /* \"--CODEGEN--\":15913:15932   */\n      swap2\n      pop\n        /* \"--CODEGEN--\":15949:15952   */\n      dup2\n        /* \"--CODEGEN--\":15942:15952   */\n      swap1\n      pop\n        /* \"--CODEGEN--\":15820:15957   */\n      swap3\n      swap2\n      pop\n      pop\n      jump\n        /* \"--CODEGEN--\":15964:16230   */\n    tag_171:\n      0x00\n        /* \"--CODEGEN--\":16110:16205   */\n      tag_612\n        /* \"--CODEGEN--\":16201:16204   */\n      dup3\n        /* \"--CODEGEN--\":16192:16198   */\n      dup5\n        /* \"--CODEGEN--\":16110:16205   */\n      jump(tag_566)\n    tag_612:\n        /* \"--CODEGEN--\":16103:16205   */\n      swap2\n      pop\n        /* \"--CODEGEN--\":16222:16225   */\n      dup2\n        /* \"--CODEGEN--\":16215:16225   */\n      swap1\n      pop\n        /* \"--CODEGEN--\":16091:16230   */\n      swap3\n      swap2\n      pop\n      pop\n      jump\n        /* \"--CODEGEN--\":16237:16609   */\n    tag_169:\n      0x00\n        /* \"--CODEGEN--\":16436:16584   */\n      tag_614\n        /* \"--CODEGEN--\":16580:16583   */\n      dup3\n        /* \"--CODEGEN--\":16436:16584   */\n      jump(tag_593)\n    tag_614:\n        /* \"--CODEGEN--\":16429:16584   */\n      swap2\n      pop\n        /* \"--CODEGEN--\":16601:16604   */\n      dup2\n        /* \"--CODEGEN--\":16594:16604   */\n      swap1\n      pop\n        /* \"--CODEGEN--\":16417:16609   */\n      swap2\n      swap1\n      pop\n      jump\n        /* \"--CODEGEN--\":16616:16829   */\n    tag_49:\n      0x00\n        /* \"--CODEGEN--\":16734:16736   */\n      0x20\n        /* \"--CODEGEN--\":16723:16732   */\n      dup3\n        /* \"--CODEGEN--\":16719:16737   */\n      add\n        /* \"--CODEGEN--\":16711:16737   */\n      swap1\n      pop\n        /* \"--CODEGEN--\":16748:16819   */\n      tag_616\n        /* \"--CODEGEN--\":16816:16817   */\n      0x00\n        /* \"--CODEGEN--\":16805:16814   */\n      dup4\n        /* \"--CODEGEN--\":16801:16818   */\n      add\n        /* \"--CODEGEN--\":16792:16798   */\n      dup5\n        /* \"--CODEGEN--\":16748:16819   */\n      jump(tag_536)\n    tag_616:\n        /* \"--CODEGEN--\":16705:16829   */\n      swap3\n      swap2\n      pop\n      pop\n      jump\n        /* \"--CODEGEN--\":16836:17065   */\n    tag_256:\n      0x00\n        /* \"--CODEGEN--\":16962:16964   */\n      0x20\n        /* \"--CODEGEN--\":16951:16960   */\n      dup3\n        /* \"--CODEGEN--\":16947:16965   */\n      add\n        /* \"--CODEGEN--\":16939:16965   */\n      swap1\n      pop\n        /* \"--CODEGEN--\":16976:17055   */\n      tag_618\n        /* \"--CODEGEN--\":17052:17053   */\n      0x00\n        /* \"--CODEGEN--\":17041:17050   */\n      dup4\n        /* \"--CODEGEN--\":17037:17054   */\n      add\n        /* \"--CODEGEN--\":17028:17034   */\n      dup5\n        /* \"--CODEGEN--\":16976:17055   */\n      jump(tag_532)\n    tag_618:\n        /* \"--CODEGEN--\":16933:17065   */\n      swap3\n      swap2\n      pop\n      pop\n      jump\n        /* \"--CODEGEN--\":17072:17707   */\n    tag_39:\n      0x00\n        /* \"--CODEGEN--\":17294:17297   */\n      0x80\n        /* \"--CODEGEN--\":17283:17292   */\n      dup3\n        /* \"--CODEGEN--\":17279:17298   */\n      add\n        /* \"--CODEGEN--\":17271:17298   */\n      swap1\n      pop\n        /* \"--CODEGEN--\":17309:17380   */\n      tag_620\n        /* \"--CODEGEN--\":17377:17378   */\n      0x00\n        /* \"--CODEGEN--\":17366:17375   */\n      dup4\n        /* \"--CODEGEN--\":17362:17379   */\n      add\n        /* \"--CODEGEN--\":17353:17359   */\n      dup8\n        /* \"--CODEGEN--\":17309:17380   */\n      jump(tag_536)\n    tag_620:\n        /* \"--CODEGEN--\":17391:17463   */\n      tag_621\n        /* \"--CODEGEN--\":17459:17461   */\n      0x20\n        /* \"--CODEGEN--\":17448:17457   */\n      dup4\n        /* \"--CODEGEN--\":17444:17462   */\n      add\n        /* \"--CODEGEN--\":17435:17441   */\n      dup7\n        /* \"--CODEGEN--\":17391:17463   */\n      jump(tag_544)\n    tag_621:\n        /* \"--CODEGEN--\":17474:17546   */\n      tag_622\n        /* \"--CODEGEN--\":17542:17544   */\n      0x40\n        /* \"--CODEGEN--\":17531:17540   */\n      dup4\n        /* \"--CODEGEN--\":17527:17545   */\n      add\n        /* \"--CODEGEN--\":17518:17524   */\n      dup6\n        /* \"--CODEGEN--\":17474:17546   */\n      jump(tag_605)\n    tag_622:\n        /* \"--CODEGEN--\":17594:17603   */\n      dup2\n        /* \"--CODEGEN--\":17588:17592   */\n      dup2\n        /* \"--CODEGEN--\":17584:17604   */\n      sub\n        /* \"--CODEGEN--\":17579:17581   */\n      0x60\n        /* \"--CODEGEN--\":17568:17577   */\n      dup4\n        /* \"--CODEGEN--\":17564:17582   */\n      add\n        /* \"--CODEGEN--\":17557:17605   */\n      mstore\n        /* \"--CODEGEN--\":17619:17697   */\n      tag_623\n        /* \"--CODEGEN--\":17692:17696   */\n      dup2\n        /* \"--CODEGEN--\":17683:17689   */\n      dup5\n        /* \"--CODEGEN--\":17619:17697   */\n      jump(tag_557)\n    tag_623:\n        /* \"--CODEGEN--\":17611:17697   */\n      swap1\n      pop\n        /* \"--CODEGEN--\":17265:17707   */\n      swap6\n      swap5\n      pop\n      pop\n      pop\n      pop\n      pop\n      jump\n        /* \"--CODEGEN--\":17714:18537   */\n    tag_381:\n      0x00\n        /* \"--CODEGEN--\":18034:18036   */\n      0x60\n        /* \"--CODEGEN--\":18023:18032   */\n      dup3\n        /* \"--CODEGEN--\":18019:18037   */\n      add\n        /* \"--CODEGEN--\":18011:18037   */\n      swap1\n      pop\n        /* \"--CODEGEN--\":18048:18119   */\n      tag_625\n        /* \"--CODEGEN--\":18116:18117   */\n      0x00\n        /* \"--CODEGEN--\":18105:18114   */\n      dup4\n        /* \"--CODEGEN--\":18101:18118   */\n      add\n        /* \"--CODEGEN--\":18092:18098   */\n      dup5\n        /* \"--CODEGEN--\":18048:18119   */\n      jump(tag_536)\n    tag_625:\n        /* \"--CODEGEN--\":18167:18176   */\n      dup2\n        /* \"--CODEGEN--\":18161:18165   */\n      dup2\n        /* \"--CODEGEN--\":18157:18177   */\n      sub\n        /* \"--CODEGEN--\":18152:18154   */\n      0x20\n        /* \"--CODEGEN--\":18141:18150   */\n      dup4\n        /* \"--CODEGEN--\":18137:18155   */\n      add\n        /* \"--CODEGEN--\":18130:18178   */\n      mstore\n        /* \"--CODEGEN--\":18192:18323   */\n      tag_626\n        /* \"--CODEGEN--\":18318:18322   */\n      dup2\n        /* \"--CODEGEN--\":18192:18323   */\n      jump(tag_572)\n    tag_626:\n        /* \"--CODEGEN--\":18184:18323   */\n      swap1\n      pop\n        /* \"--CODEGEN--\":18371:18380   */\n      dup2\n        /* \"--CODEGEN--\":18365:18369   */\n      dup2\n        /* \"--CODEGEN--\":18361:18381   */\n      sub\n        /* \"--CODEGEN--\":18356:18358   */\n      0x40\n        /* \"--CODEGEN--\":18345:18354   */\n      dup4\n        /* \"--CODEGEN--\":18341:18359   */\n      add\n        /* \"--CODEGEN--\":18334:18382   */\n      mstore\n        /* \"--CODEGEN--\":18396:18527   */\n      tag_627\n        /* \"--CODEGEN--\":18522:18526   */\n      dup2\n        /* \"--CODEGEN--\":18396:18527   */\n      jump(tag_590)\n    tag_627:\n        /* \"--CODEGEN--\":18388:18527   */\n      swap1\n      pop\n        /* \"--CODEGEN--\":18005:18537   */\n      swap3\n      swap2\n      pop\n      pop\n      jump\n        /* \"--CODEGEN--\":18544:19367   */\n    tag_162:\n      0x00\n        /* \"--CODEGEN--\":18864:18866   */\n      0x60\n        /* \"--CODEGEN--\":18853:18862   */\n      dup3\n        /* \"--CODEGEN--\":18849:18867   */\n      add\n        /* \"--CODEGEN--\":18841:18867   */\n      swap1\n      pop\n        /* \"--CODEGEN--\":18878:18949   */\n      tag_629\n        /* \"--CODEGEN--\":18946:18947   */\n      0x00\n        /* \"--CODEGEN--\":18935:18944   */\n      dup4\n        /* \"--CODEGEN--\":18931:18948   */\n      add\n        /* \"--CODEGEN--\":18922:18928   */\n      dup5\n        /* \"--CODEGEN--\":18878:18949   */\n      jump(tag_536)\n    tag_629:\n        /* \"--CODEGEN--\":18997:19006   */\n      dup2\n        /* \"--CODEGEN--\":18991:18995   */\n      dup2\n        /* \"--CODEGEN--\":18987:19007   */\n      sub\n        /* \"--CODEGEN--\":18982:18984   */\n      0x20\n        /* \"--CODEGEN--\":18971:18980   */\n      dup4\n        /* \"--CODEGEN--\":18967:18985   */\n      add\n        /* \"--CODEGEN--\":18960:19008   */\n      mstore\n        /* \"--CODEGEN--\":19022:19153   */\n      tag_630\n        /* \"--CODEGEN--\":19148:19152   */\n      dup2\n        /* \"--CODEGEN--\":19022:19153   */\n      jump(tag_581)\n    tag_630:\n        /* \"--CODEGEN--\":19014:19153   */\n      swap1\n      pop\n        /* \"--CODEGEN--\":19201:19210   */\n      dup2\n        /* \"--CODEGEN--\":19195:19199   */\n      dup2\n        /* \"--CODEGEN--\":19191:19211   */\n      sub\n        /* \"--CODEGEN--\":19186:19188   */\n      0x40\n        /* \"--CODEGEN--\":19175:19184   */\n      dup4\n        /* \"--CODEGEN--\":19171:19189   */\n      add\n        /* \"--CODEGEN--\":19164:19212   */\n      mstore\n        /* \"--CODEGEN--\":19226:19357   */\n      tag_631\n        /* \"--CODEGEN--\":19352:19356   */\n      dup2\n        /* \"--CODEGEN--\":19226:19357   */\n      jump(tag_587)\n    tag_631:\n        /* \"--CODEGEN--\":19218:19357   */\n      swap1\n      pop\n        /* \"--CODEGEN--\":18835:19367   */\n      swap3\n      swap2\n      pop\n      pop\n      jump\n        /* \"--CODEGEN--\":19374:20197   */\n    tag_324:\n      0x00\n        /* \"--CODEGEN--\":19694:19696   */\n      0x60\n        /* \"--CODEGEN--\":19683:19692   */\n      dup3\n        /* \"--CODEGEN--\":19679:19697   */\n      add\n        /* \"--CODEGEN--\":19671:19697   */\n      swap1\n      pop\n        /* \"--CODEGEN--\":19708:19779   */\n      tag_633\n        /* \"--CODEGEN--\":19776:19777   */\n      0x00\n        /* \"--CODEGEN--\":19765:19774   */\n      dup4\n        /* \"--CODEGEN--\":19761:19778   */\n      add\n        /* \"--CODEGEN--\":19752:19758   */\n      dup5\n        /* \"--CODEGEN--\":19708:19779   */\n      jump(tag_536)\n    tag_633:\n        /* \"--CODEGEN--\":19827:19836   */\n      dup2\n        /* \"--CODEGEN--\":19821:19825   */\n      dup2\n        /* \"--CODEGEN--\":19817:19837   */\n      sub\n        /* \"--CODEGEN--\":19812:19814   */\n      0x20\n        /* \"--CODEGEN--\":19801:19810   */\n      dup4\n        /* \"--CODEGEN--\":19797:19815   */\n      add\n        /* \"--CODEGEN--\":19790:19838   */\n      mstore\n        /* \"--CODEGEN--\":19852:19983   */\n      tag_634\n        /* \"--CODEGEN--\":19978:19982   */\n      dup2\n        /* \"--CODEGEN--\":19852:19983   */\n      jump(tag_596)\n    tag_634:\n        /* \"--CODEGEN--\":19844:19983   */\n      swap1\n      pop\n        /* \"--CODEGEN--\":20031:20040   */\n      dup2\n        /* \"--CODEGEN--\":20025:20029   */\n      dup2\n        /* \"--CODEGEN--\":20021:20041   */\n      sub\n        /* \"--CODEGEN--\":20016:20018   */\n      0x40\n        /* \"--CODEGEN--\":20005:20014   */\n      dup4\n        /* \"--CODEGEN--\":20001:20019   */\n      add\n        /* \"--CODEGEN--\":19994:20042   */\n      mstore\n        /* \"--CODEGEN--\":20056:20187   */\n      tag_635\n        /* \"--CODEGEN--\":20182:20186   */\n      dup2\n        /* \"--CODEGEN--\":20056:20187   */\n      jump(tag_584)\n    tag_635:\n        /* \"--CODEGEN--\":20048:20187   */\n      swap1\n      pop\n        /* \"--CODEGEN--\":19665:20197   */\n      swap3\n      swap2\n      pop\n      pop\n      jump\n        /* \"--CODEGEN--\":20204:20877   */\n    tag_102:\n      0x00\n        /* \"--CODEGEN--\":20441:20444   */\n      0xa0\n        /* \"--CODEGEN--\":20430:20439   */\n      dup3\n        /* \"--CODEGEN--\":20426:20445   */\n      add\n        /* \"--CODEGEN--\":20418:20445   */\n      swap1\n      pop\n        /* \"--CODEGEN--\":20456:20540   */\n      tag_637\n        /* \"--CODEGEN--\":20537:20538   */\n      0x00\n        /* \"--CODEGEN--\":20526:20535   */\n      dup4\n        /* \"--CODEGEN--\":20522:20539   */\n      add\n        /* \"--CODEGEN--\":20513:20519   */\n      dup9\n        /* \"--CODEGEN--\":20456:20540   */\n      jump(tag_553)\n    tag_637:\n        /* \"--CODEGEN--\":20551:20623   */\n      tag_638\n        /* \"--CODEGEN--\":20619:20621   */\n      0x20\n        /* \"--CODEGEN--\":20608:20617   */\n      dup4\n        /* \"--CODEGEN--\":20604:20622   */\n      add\n        /* \"--CODEGEN--\":20595:20601   */\n      dup8\n        /* \"--CODEGEN--\":20551:20623   */\n      jump(tag_536)\n    tag_638:\n        /* \"--CODEGEN--\":20634:20706   */\n      tag_639\n        /* \"--CODEGEN--\":20702:20704   */\n      0x40\n        /* \"--CODEGEN--\":20691:20700   */\n      dup4\n        /* \"--CODEGEN--\":20687:20705   */\n      add\n        /* \"--CODEGEN--\":20678:20684   */\n      dup7\n        /* \"--CODEGEN--\":20634:20706   */\n      jump(tag_605)\n    tag_639:\n        /* \"--CODEGEN--\":20717:20789   */\n      tag_640\n        /* \"--CODEGEN--\":20785:20787   */\n      0x60\n        /* \"--CODEGEN--\":20774:20783   */\n      dup4\n        /* \"--CODEGEN--\":20770:20788   */\n      add\n        /* \"--CODEGEN--\":20761:20767   */\n      dup6\n        /* \"--CODEGEN--\":20717:20789   */\n      jump(tag_544)\n    tag_640:\n        /* \"--CODEGEN--\":20800:20867   */\n      tag_641\n        /* \"--CODEGEN--\":20862:20865   */\n      0x80\n        /* \"--CODEGEN--\":20851:20860   */\n      dup4\n        /* \"--CODEGEN--\":20847:20866   */\n      add\n        /* \"--CODEGEN--\":20838:20844   */\n      dup5\n        /* \"--CODEGEN--\":20800:20867   */\n      jump(tag_540)\n    tag_641:\n        /* \"--CODEGEN--\":20412:20877   */\n      swap7\n      swap6\n      pop\n      pop\n      pop\n      pop\n      pop\n      pop\n      jump\n        /* \"--CODEGEN--\":20884:21185   */\n    tag_90:\n      0x00\n        /* \"--CODEGEN--\":21022:21024   */\n      0x20\n        /* \"--CODEGEN--\":21011:21020   */\n      dup3\n        /* \"--CODEGEN--\":21007:21025   */\n      add\n        /* \"--CODEGEN--\":20999:21025   */\n      swap1\n      pop\n        /* \"--CODEGEN--\":21072:21081   */\n      dup2\n        /* \"--CODEGEN--\":21066:21070   */\n      dup2\n        /* \"--CODEGEN--\":21062:21082   */\n      sub\n        /* \"--CODEGEN--\":21058:21059   */\n      0x00\n        /* \"--CODEGEN--\":21047:21056   */\n      dup4\n        /* \"--CODEGEN--\":21043:21060   */\n      add\n        /* \"--CODEGEN--\":21036:21083   */\n      mstore\n        /* \"--CODEGEN--\":21097:21175   */\n      tag_643\n        /* \"--CODEGEN--\":21170:21174   */\n      dup2\n        /* \"--CODEGEN--\":21161:21167   */\n      dup5\n        /* \"--CODEGEN--\":21097:21175   */\n      jump(tag_557)\n    tag_643:\n        /* \"--CODEGEN--\":21089:21175   */\n      swap1\n      pop\n        /* \"--CODEGEN--\":20993:21185   */\n      swap3\n      swap2\n      pop\n      pop\n      jump\n        /* \"--CODEGEN--\":21192:22451   */\n    tag_80:\n      0x00\n        /* \"--CODEGEN--\":21566:21569   */\n      0x0100\n        /* \"--CODEGEN--\":21555:21564   */\n      dup3\n        /* \"--CODEGEN--\":21551:21570   */\n      add\n        /* \"--CODEGEN--\":21543:21570   */\n      swap1\n      pop\n        /* \"--CODEGEN--\":21617:21626   */\n      dup2\n        /* \"--CODEGEN--\":21611:21615   */\n      dup2\n        /* \"--CODEGEN--\":21607:21627   */\n      sub\n        /* \"--CODEGEN--\":21603:21604   */\n      0x00\n        /* \"--CODEGEN--\":21592:21601   */\n      dup4\n        /* \"--CODEGEN--\":21588:21605   */\n      add\n        /* \"--CODEGEN--\":21581:21628   */\n      mstore\n        /* \"--CODEGEN--\":21642:21720   */\n      tag_645\n        /* \"--CODEGEN--\":21715:21719   */\n      dup2\n        /* \"--CODEGEN--\":21706:21712   */\n      dup12\n        /* \"--CODEGEN--\":21642:21720   */\n      jump(tag_557)\n    tag_645:\n        /* \"--CODEGEN--\":21634:21720   */\n      swap1\n      pop\n        /* \"--CODEGEN--\":21731:21803   */\n      tag_646\n        /* \"--CODEGEN--\":21799:21801   */\n      0x20\n        /* \"--CODEGEN--\":21788:21797   */\n      dup4\n        /* \"--CODEGEN--\":21784:21802   */\n      add\n        /* \"--CODEGEN--\":21775:21781   */\n      dup11\n        /* \"--CODEGEN--\":21731:21803   */\n      jump(tag_536)\n    tag_646:\n        /* \"--CODEGEN--\":21851:21860   */\n      dup2\n        /* \"--CODEGEN--\":21845:21849   */\n      dup2\n        /* \"--CODEGEN--\":21841:21861   */\n      sub\n        /* \"--CODEGEN--\":21836:21838   */\n      0x40\n        /* \"--CODEGEN--\":21825:21834   */\n      dup4\n        /* \"--CODEGEN--\":21821:21839   */\n      add\n        /* \"--CODEGEN--\":21814:21862   */\n      mstore\n        /* \"--CODEGEN--\":21876:21954   */\n      tag_647\n        /* \"--CODEGEN--\":21949:21953   */\n      dup2\n        /* \"--CODEGEN--\":21940:21946   */\n      dup10\n        /* \"--CODEGEN--\":21876:21954   */\n      jump(tag_557)\n    tag_647:\n        /* \"--CODEGEN--\":21868:21954   */\n      swap1\n      pop\n        /* \"--CODEGEN--\":21965:22037   */\n      tag_648\n        /* \"--CODEGEN--\":22033:22035   */\n      0x60\n        /* \"--CODEGEN--\":22022:22031   */\n      dup4\n        /* \"--CODEGEN--\":22018:22036   */\n      add\n        /* \"--CODEGEN--\":22009:22015   */\n      dup9\n        /* \"--CODEGEN--\":21965:22037   */\n      jump(tag_536)\n    tag_648:\n        /* \"--CODEGEN--\":22086:22095   */\n      dup2\n        /* \"--CODEGEN--\":22080:22084   */\n      dup2\n        /* \"--CODEGEN--\":22076:22096   */\n      sub\n        /* \"--CODEGEN--\":22070:22073   */\n      0x80\n        /* \"--CODEGEN--\":22059:22068   */\n      dup4\n        /* \"--CODEGEN--\":22055:22074   */\n      add\n        /* \"--CODEGEN--\":22048:22097   */\n      mstore\n        /* \"--CODEGEN--\":22111:22189   */\n      tag_649\n        /* \"--CODEGEN--\":22184:22188   */\n      dup2\n        /* \"--CODEGEN--\":22175:22181   */\n      dup8\n        /* \"--CODEGEN--\":22111:22189   */\n      jump(tag_557)\n    tag_649:\n        /* \"--CODEGEN--\":22103:22189   */\n      swap1\n      pop\n        /* \"--CODEGEN--\":22200:22273   */\n      tag_650\n        /* \"--CODEGEN--\":22268:22271   */\n      0xa0\n        /* \"--CODEGEN--\":22257:22266   */\n      dup4\n        /* \"--CODEGEN--\":22253:22272   */\n      add\n        /* \"--CODEGEN--\":22244:22250   */\n      dup7\n        /* \"--CODEGEN--\":22200:22273   */\n      jump(tag_544)\n    tag_650:\n        /* \"--CODEGEN--\":22284:22357   */\n      tag_651\n        /* \"--CODEGEN--\":22352:22355   */\n      0xc0\n        /* \"--CODEGEN--\":22341:22350   */\n      dup4\n        /* \"--CODEGEN--\":22337:22356   */\n      add\n        /* \"--CODEGEN--\":22328:22334   */\n      dup6\n        /* \"--CODEGEN--\":22284:22357   */\n      jump(tag_605)\n    tag_651:\n        /* \"--CODEGEN--\":22368:22441   */\n      tag_652\n        /* \"--CODEGEN--\":22436:22439   */\n      0xe0\n        /* \"--CODEGEN--\":22425:22434   */\n      dup4\n        /* \"--CODEGEN--\":22421:22440   */\n      add\n        /* \"--CODEGEN--\":22412:22418   */\n      dup5\n        /* \"--CODEGEN--\":22368:22441   */\n      jump(tag_605)\n    tag_652:\n        /* \"--CODEGEN--\":21537:22451   */\n      swap10\n      swap9\n      pop\n      pop\n      pop\n      pop\n      pop\n      pop\n      pop\n      pop\n      pop\n      jump\n        /* \"--CODEGEN--\":22458:23581   */\n    tag_59:\n      0x00\n        /* \"--CODEGEN--\":22796:22799   */\n      0xc0\n        /* \"--CODEGEN--\":22785:22794   */\n      dup3\n        /* \"--CODEGEN--\":22781:22800   */\n      add\n        /* \"--CODEGEN--\":22773:22800   */\n      swap1\n      pop\n        /* \"--CODEGEN--\":22847:22856   */\n      dup2\n        /* \"--CODEGEN--\":22841:22845   */\n      dup2\n        /* \"--CODEGEN--\":22837:22857   */\n      sub\n        /* \"--CODEGEN--\":22833:22834   */\n      0x00\n        /* \"--CODEGEN--\":22822:22831   */\n      dup4\n        /* \"--CODEGEN--\":22818:22835   */\n      add\n        /* \"--CODEGEN--\":22811:22858   */\n      mstore\n        /* \"--CODEGEN--\":22872:22950   */\n      tag_654\n        /* \"--CODEGEN--\":22945:22949   */\n      dup2\n        /* \"--CODEGEN--\":22936:22942   */\n      dup10\n        /* \"--CODEGEN--\":22872:22950   */\n      jump(tag_557)\n    tag_654:\n        /* \"--CODEGEN--\":22864:22950   */\n      swap1\n      pop\n        /* \"--CODEGEN--\":22961:23033   */\n      tag_655\n        /* \"--CODEGEN--\":23029:23031   */\n      0x20\n        /* \"--CODEGEN--\":23018:23027   */\n      dup4\n        /* \"--CODEGEN--\":23014:23032   */\n      add\n        /* \"--CODEGEN--\":23005:23011   */\n      dup9\n        /* \"--CODEGEN--\":22961:23033   */\n      jump(tag_536)\n    tag_655:\n        /* \"--CODEGEN--\":23081:23090   */\n      dup2\n        /* \"--CODEGEN--\":23075:23079   */\n      dup2\n        /* \"--CODEGEN--\":23071:23091   */\n      sub\n        /* \"--CODEGEN--\":23066:23068   */\n      0x40\n        /* \"--CODEGEN--\":23055:23064   */\n      dup4\n        /* \"--CODEGEN--\":23051:23069   */\n      add\n        /* \"--CODEGEN--\":23044:23092   */\n      mstore\n        /* \"--CODEGEN--\":23106:23184   */\n      tag_656\n        /* \"--CODEGEN--\":23179:23183   */\n      dup2\n        /* \"--CODEGEN--\":23170:23176   */\n      dup8\n        /* \"--CODEGEN--\":23106:23184   */\n      jump(tag_557)\n    tag_656:\n        /* \"--CODEGEN--\":23098:23184   */\n      swap1\n      pop\n        /* \"--CODEGEN--\":23195:23267   */\n      tag_657\n        /* \"--CODEGEN--\":23263:23265   */\n      0x60\n        /* \"--CODEGEN--\":23252:23261   */\n      dup4\n        /* \"--CODEGEN--\":23248:23266   */\n      add\n        /* \"--CODEGEN--\":23239:23245   */\n      dup7\n        /* \"--CODEGEN--\":23195:23267   */\n      jump(tag_536)\n    tag_657:\n        /* \"--CODEGEN--\":23316:23325   */\n      dup2\n        /* \"--CODEGEN--\":23310:23314   */\n      dup2\n        /* \"--CODEGEN--\":23306:23326   */\n      sub\n        /* \"--CODEGEN--\":23300:23303   */\n      0x80\n        /* \"--CODEGEN--\":23289:23298   */\n      dup4\n        /* \"--CODEGEN--\":23285:23304   */\n      add\n        /* \"--CODEGEN--\":23278:23327   */\n      mstore\n        /* \"--CODEGEN--\":23341:23419   */\n      tag_658\n        /* \"--CODEGEN--\":23414:23418   */\n      dup2\n        /* \"--CODEGEN--\":23405:23411   */\n      dup6\n        /* \"--CODEGEN--\":23341:23419   */\n      jump(tag_557)\n    tag_658:\n        /* \"--CODEGEN--\":23333:23419   */\n      swap1\n      pop\n        /* \"--CODEGEN--\":23468:23477   */\n      dup2\n        /* \"--CODEGEN--\":23462:23466   */\n      dup2\n        /* \"--CODEGEN--\":23458:23478   */\n      sub\n        /* \"--CODEGEN--\":23452:23455   */\n      0xa0\n        /* \"--CODEGEN--\":23441:23450   */\n      dup4\n        /* \"--CODEGEN--\":23437:23456   */\n      add\n        /* \"--CODEGEN--\":23430:23479   */\n      mstore\n        /* \"--CODEGEN--\":23493:23571   */\n      tag_659\n        /* \"--CODEGEN--\":23566:23570   */\n      dup2\n        /* \"--CODEGEN--\":23557:23563   */\n      dup5\n        /* \"--CODEGEN--\":23493:23571   */\n      jump(tag_557)\n    tag_659:\n        /* \"--CODEGEN--\":23485:23571   */\n      swap1\n      pop\n        /* \"--CODEGEN--\":22767:23581   */\n      swap8\n      swap7\n      pop\n      pop\n      pop\n      pop\n      pop\n      pop\n      pop\n      jump\n        /* \"--CODEGEN--\":23588:24911   */\n    tag_130:\n      0x00\n        /* \"--CODEGEN--\":23974:23977   */\n      0xe0\n        /* \"--CODEGEN--\":23963:23972   */\n      dup3\n        /* \"--CODEGEN--\":23959:23978   */\n      add\n        /* \"--CODEGEN--\":23951:23978   */\n      swap1\n      pop\n        /* \"--CODEGEN--\":24025:24034   */\n      dup2\n        /* \"--CODEGEN--\":24019:24023   */\n      dup2\n        /* \"--CODEGEN--\":24015:24035   */\n      sub\n        /* \"--CODEGEN--\":24011:24012   */\n      0x00\n        /* \"--CODEGEN--\":24000:24009   */\n      dup4\n        /* \"--CODEGEN--\":23996:24013   */\n      add\n        /* \"--CODEGEN--\":23989:24036   */\n      mstore\n        /* \"--CODEGEN--\":24050:24128   */\n      tag_661\n        /* \"--CODEGEN--\":24123:24127   */\n      dup2\n        /* \"--CODEGEN--\":24114:24120   */\n      dup11\n        /* \"--CODEGEN--\":24050:24128   */\n      jump(tag_557)\n    tag_661:\n        /* \"--CODEGEN--\":24042:24128   */\n      swap1\n      pop\n        /* \"--CODEGEN--\":24139:24211   */\n      tag_662\n        /* \"--CODEGEN--\":24207:24209   */\n      0x20\n        /* \"--CODEGEN--\":24196:24205   */\n      dup4\n        /* \"--CODEGEN--\":24192:24210   */\n      add\n        /* \"--CODEGEN--\":24183:24189   */\n      dup10\n        /* \"--CODEGEN--\":24139:24211   */\n      jump(tag_536)\n    tag_662:\n        /* \"--CODEGEN--\":24259:24268   */\n      dup2\n        /* \"--CODEGEN--\":24253:24257   */\n      dup2\n        /* \"--CODEGEN--\":24249:24269   */\n      sub\n        /* \"--CODEGEN--\":24244:24246   */\n      0x40\n        /* \"--CODEGEN--\":24233:24242   */\n      dup4\n        /* \"--CODEGEN--\":24229:24247   */\n      add\n        /* \"--CODEGEN--\":24222:24270   */\n      mstore\n        /* \"--CODEGEN--\":24284:24362   */\n      tag_663\n        /* \"--CODEGEN--\":24357:24361   */\n      dup2\n        /* \"--CODEGEN--\":24348:24354   */\n      dup9\n        /* \"--CODEGEN--\":24284:24362   */\n      jump(tag_557)\n    tag_663:\n        /* \"--CODEGEN--\":24276:24362   */\n      swap1\n      pop\n        /* \"--CODEGEN--\":24373:24445   */\n      tag_664\n        /* \"--CODEGEN--\":24441:24443   */\n      0x60\n        /* \"--CODEGEN--\":24430:24439   */\n      dup4\n        /* \"--CODEGEN--\":24426:24444   */\n      add\n        /* \"--CODEGEN--\":24417:24423   */\n      dup8\n        /* \"--CODEGEN--\":24373:24445   */\n      jump(tag_536)\n    tag_664:\n        /* \"--CODEGEN--\":24494:24503   */\n      dup2\n        /* \"--CODEGEN--\":24488:24492   */\n      dup2\n        /* \"--CODEGEN--\":24484:24504   */\n      sub\n        /* \"--CODEGEN--\":24478:24481   */\n      0x80\n        /* \"--CODEGEN--\":24467:24476   */\n      dup4\n        /* \"--CODEGEN--\":24463:24482   */\n      add\n        /* \"--CODEGEN--\":24456:24505   */\n      mstore\n        /* \"--CODEGEN--\":24519:24597   */\n      tag_665\n        /* \"--CODEGEN--\":24592:24596   */\n      dup2\n        /* \"--CODEGEN--\":24583:24589   */\n      dup7\n        /* \"--CODEGEN--\":24519:24597   */\n      jump(tag_557)\n    tag_665:\n        /* \"--CODEGEN--\":24511:24597   */\n      swap1\n      pop\n        /* \"--CODEGEN--\":24646:24655   */\n      dup2\n        /* \"--CODEGEN--\":24640:24644   */\n      dup2\n        /* \"--CODEGEN--\":24636:24656   */\n      sub\n        /* \"--CODEGEN--\":24630:24633   */\n      0xa0\n        /* \"--CODEGEN--\":24619:24628   */\n      dup4\n        /* \"--CODEGEN--\":24615:24634   */\n      add\n        /* \"--CODEGEN--\":24608:24657   */\n      mstore\n        /* \"--CODEGEN--\":24671:24749   */\n      tag_666\n        /* \"--CODEGEN--\":24744:24748   */\n      dup2\n        /* \"--CODEGEN--\":24735:24741   */\n      dup6\n        /* \"--CODEGEN--\":24671:24749   */\n      jump(tag_557)\n    tag_666:\n        /* \"--CODEGEN--\":24663:24749   */\n      swap1\n      pop\n        /* \"--CODEGEN--\":24798:24807   */\n      dup2\n        /* \"--CODEGEN--\":24792:24796   */\n      dup2\n        /* \"--CODEGEN--\":24788:24808   */\n      sub\n        /* \"--CODEGEN--\":24782:24785   */\n      0xc0\n        /* \"--CODEGEN--\":24771:24780   */\n      dup4\n        /* \"--CODEGEN--\":24767:24786   */\n      add\n        /* \"--CODEGEN--\":24760:24809   */\n      mstore\n        /* \"--CODEGEN--\":24823:24901   */\n      tag_667\n        /* \"--CODEGEN--\":24896:24900   */\n      dup2\n        /* \"--CODEGEN--\":24887:24893   */\n      dup5\n        /* \"--CODEGEN--\":24823:24901   */\n      jump(tag_557)\n    tag_667:\n        /* \"--CODEGEN--\":24815:24901   */\n      swap1\n      pop\n        /* \"--CODEGEN--\":23945:24911   */\n      swap9\n      swap8\n      pop\n      pop\n      pop\n      pop\n      pop\n      pop\n      pop\n      pop\n      jump\n        /* \"--CODEGEN--\":24918:25436   */\n    tag_244:\n      0x00\n        /* \"--CODEGEN--\":25137:25139   */\n      0x40\n        /* \"--CODEGEN--\":25126:25135   */\n      dup3\n        /* \"--CODEGEN--\":25122:25140   */\n      add\n        /* \"--CODEGEN--\":25114:25140   */\n      swap1\n      pop\n        /* \"--CODEGEN--\":25187:25196   */\n      dup2\n        /* \"--CODEGEN--\":25181:25185   */\n      dup2\n        /* \"--CODEGEN--\":25177:25197   */\n      sub\n        /* \"--CODEGEN--\":25173:25174   */\n      0x00\n        /* \"--CODEGEN--\":25162:25171   */\n      dup4\n        /* \"--CODEGEN--\":25158:25175   */\n      add\n        /* \"--CODEGEN--\":25151:25198   */\n      mstore\n        /* \"--CODEGEN--\":25212:25343   */\n      tag_669\n        /* \"--CODEGEN--\":25338:25342   */\n      dup2\n        /* \"--CODEGEN--\":25212:25343   */\n      jump(tag_575)\n    tag_669:\n        /* \"--CODEGEN--\":25204:25343   */\n      swap1\n      pop\n        /* \"--CODEGEN--\":25354:25426   */\n      tag_670\n        /* \"--CODEGEN--\":25422:25424   */\n      0x20\n        /* \"--CODEGEN--\":25411:25420   */\n      dup4\n        /* \"--CODEGEN--\":25407:25425   */\n      add\n        /* \"--CODEGEN--\":25398:25404   */\n      dup5\n        /* \"--CODEGEN--\":25354:25426   */\n      jump(tag_536)\n    tag_670:\n        /* \"--CODEGEN--\":25108:25436   */\n      swap3\n      swap2\n      pop\n      pop\n      jump\n        /* \"--CODEGEN--\":25443:25961   */\n    tag_319:\n      0x00\n        /* \"--CODEGEN--\":25662:25664   */\n      0x40\n        /* \"--CODEGEN--\":25651:25660   */\n      dup3\n        /* \"--CODEGEN--\":25647:25665   */\n      add\n        /* \"--CODEGEN--\":25639:25665   */\n      swap1\n      pop\n        /* \"--CODEGEN--\":25712:25721   */\n      dup2\n        /* \"--CODEGEN--\":25706:25710   */\n      dup2\n        /* \"--CODEGEN--\":25702:25722   */\n      sub\n        /* \"--CODEGEN--\":25698:25699   */\n      0x00\n        /* \"--CODEGEN--\":25687:25696   */\n      dup4\n        /* \"--CODEGEN--\":25683:25700   */\n      add\n        /* \"--CODEGEN--\":25676:25723   */\n      mstore\n        /* \"--CODEGEN--\":25737:25868   */\n      tag_672\n        /* \"--CODEGEN--\":25863:25867   */\n      dup2\n        /* \"--CODEGEN--\":25737:25868   */\n      jump(tag_578)\n    tag_672:\n        /* \"--CODEGEN--\":25729:25868   */\n      swap1\n      pop\n        /* \"--CODEGEN--\":25879:25951   */\n      tag_673\n        /* \"--CODEGEN--\":25947:25949   */\n      0x20\n        /* \"--CODEGEN--\":25936:25945   */\n      dup4\n        /* \"--CODEGEN--\":25932:25950   */\n      add\n        /* \"--CODEGEN--\":25923:25929   */\n      dup5\n        /* \"--CODEGEN--\":25879:25951   */\n      jump(tag_536)\n    tag_673:\n        /* \"--CODEGEN--\":25633:25961   */\n      swap3\n      swap2\n      pop\n      pop\n      jump\n        /* \"--CODEGEN--\":25968:26486   */\n    tag_236:\n      0x00\n        /* \"--CODEGEN--\":26187:26189   */\n      0x40\n        /* \"--CODEGEN--\":26176:26185   */\n      dup3\n        /* \"--CODEGEN--\":26172:26190   */\n      add\n        /* \"--CODEGEN--\":26164:26190   */\n      swap1\n      pop\n        /* \"--CODEGEN--\":26237:26246   */\n      dup2\n        /* \"--CODEGEN--\":26231:26235   */\n      dup2\n        /* \"--CODEGEN--\":26227:26247   */\n      sub\n        /* \"--CODEGEN--\":26223:26224   */\n      0x00\n        /* \"--CODEGEN--\":26212:26221   */\n      dup4\n        /* \"--CODEGEN--\":26208:26225   */\n      add\n        /* \"--CODEGEN--\":26201:26248   */\n      mstore\n        /* \"--CODEGEN--\":26262:26393   */\n      tag_675\n        /* \"--CODEGEN--\":26388:26392   */\n      dup2\n        /* \"--CODEGEN--\":26262:26393   */\n      jump(tag_599)\n    tag_675:\n        /* \"--CODEGEN--\":26254:26393   */\n      swap1\n      pop\n        /* \"--CODEGEN--\":26404:26476   */\n      tag_676\n        /* \"--CODEGEN--\":26472:26474   */\n      0x20\n        /* \"--CODEGEN--\":26461:26470   */\n      dup4\n        /* \"--CODEGEN--\":26457:26475   */\n      add\n        /* \"--CODEGEN--\":26448:26454   */\n      dup5\n        /* \"--CODEGEN--\":26404:26476   */\n      jump(tag_536)\n    tag_676:\n        /* \"--CODEGEN--\":26158:26486   */\n      swap3\n      swap2\n      pop\n      pop\n      jump\n        /* \"--CODEGEN--\":26493:27011   */\n    tag_309:\n      0x00\n        /* \"--CODEGEN--\":26712:26714   */\n      0x40\n        /* \"--CODEGEN--\":26701:26710   */\n      dup3\n        /* \"--CODEGEN--\":26697:26715   */\n      add\n        /* \"--CODEGEN--\":26689:26715   */\n      swap1\n      pop\n        /* \"--CODEGEN--\":26762:26771   */\n      dup2\n        /* \"--CODEGEN--\":26756:26760   */\n      dup2\n        /* \"--CODEGEN--\":26752:26772   */\n      sub\n        /* \"--CODEGEN--\":26748:26749   */\n      0x00\n        /* \"--CODEGEN--\":26737:26746   */\n      dup4\n        /* \"--CODEGEN--\":26733:26750   */\n      add\n        /* \"--CODEGEN--\":26726:26773   */\n      mstore\n        /* \"--CODEGEN--\":26787:26918   */\n      tag_678\n        /* \"--CODEGEN--\":26913:26917   */\n      dup2\n        /* \"--CODEGEN--\":26787:26918   */\n      jump(tag_602)\n    tag_678:\n        /* \"--CODEGEN--\":26779:26918   */\n      swap1\n      pop\n        /* \"--CODEGEN--\":26929:27001   */\n      tag_679\n        /* \"--CODEGEN--\":26997:26999   */\n      0x20\n        /* \"--CODEGEN--\":26986:26995   */\n      dup4\n        /* \"--CODEGEN--\":26982:27000   */\n      add\n        /* \"--CODEGEN--\":26973:26979   */\n      dup5\n        /* \"--CODEGEN--\":26929:27001   */\n      jump(tag_536)\n    tag_679:\n        /* \"--CODEGEN--\":26683:27011   */\n      swap3\n      swap2\n      pop\n      pop\n      jump\n        /* \"--CODEGEN--\":27018:27231   */\n    tag_45:\n      0x00\n        /* \"--CODEGEN--\":27136:27138   */\n      0x20\n        /* \"--CODEGEN--\":27125:27134   */\n      dup3\n        /* \"--CODEGEN--\":27121:27139   */\n      add\n        /* \"--CODEGEN--\":27113:27139   */\n      swap1\n      pop\n        /* \"--CODEGEN--\":27150:27221   */\n      tag_681\n        /* \"--CODEGEN--\":27218:27219   */\n      0x00\n        /* \"--CODEGEN--\":27207:27216   */\n      dup4\n        /* \"--CODEGEN--\":27203:27220   */\n      add\n        /* \"--CODEGEN--\":27194:27200   */\n      dup5\n        /* \"--CODEGEN--\":27150:27221   */\n      jump(tag_605)\n    tag_681:\n        /* \"--CODEGEN--\":27107:27231   */\n      swap3\n      swap2\n      pop\n      pop\n      jump\n        /* \"--CODEGEN--\":27238:27494   */\n    tag_429:\n      0x00\n        /* \"--CODEGEN--\":27300:27302   */\n      0x40\n        /* \"--CODEGEN--\":27294:27303   */\n      mload\n        /* \"--CODEGEN--\":27284:27303   */\n      swap1\n      pop\n        /* \"--CODEGEN--\":27338:27342   */\n      dup2\n        /* \"--CODEGEN--\":27330:27336   */\n      dup2\n        /* \"--CODEGEN--\":27326:27343   */\n      add\n        /* \"--CODEGEN--\":27437:27443   */\n      dup2\n        /* \"--CODEGEN--\":27425:27435   */\n      dup2\n        /* \"--CODEGEN--\":27422:27444   */\n      lt\n        /* \"--CODEGEN--\":27401:27419   */\n      0xffffffffffffffff\n        /* \"--CODEGEN--\":27389:27399   */\n      dup3\n        /* \"--CODEGEN--\":27386:27420   */\n      gt\n        /* \"--CODEGEN--\":27383:27445   */\n      or\n        /* \"--CODEGEN--\":27380:27382   */\n      iszero\n      tag_683\n      jumpi\n        /* \"--CODEGEN--\":27458:27459   */\n      0x00\n        /* \"--CODEGEN--\":27455:27456   */\n      dup1\n        /* \"--CODEGEN--\":27448:27460   */\n      revert\n        /* \"--CODEGEN--\":27380:27382   */\n    tag_683:\n        /* \"--CODEGEN--\":27478:27488   */\n      dup1\n        /* \"--CODEGEN--\":27474:27476   */\n      0x40\n        /* \"--CODEGEN--\":27467:27489   */\n      mstore\n        /* \"--CODEGEN--\":27278:27494   */\n      pop\n      swap2\n      swap1\n      pop\n      jump\n        /* \"--CODEGEN--\":27501:27823   */\n    tag_428:\n      0x00\n        /* \"--CODEGEN--\":27645:27663   */\n      0xffffffffffffffff\n        /* \"--CODEGEN--\":27637:27643   */\n      dup3\n        /* \"--CODEGEN--\":27634:27664   */\n      gt\n        /* \"--CODEGEN--\":27631:27633   */\n      iszero\n      tag_685\n      jumpi\n        /* \"--CODEGEN--\":27677:27678   */\n      0x00\n        /* \"--CODEGEN--\":27674:27675   */\n      dup1\n        /* \"--CODEGEN--\":27667:27679   */\n      revert\n        /* \"--CODEGEN--\":27631:27633   */\n    tag_685:\n        /* \"--CODEGEN--\":27744:27748   */\n      0x1f\n        /* \"--CODEGEN--\":27740:27749   */\n      not\n        /* \"--CODEGEN--\":27733:27737   */\n      0x1f\n        /* \"--CODEGEN--\":27725:27731   */\n      dup4\n        /* \"--CODEGEN--\":27721:27738   */\n      add\n        /* \"--CODEGEN--\":27717:27750   */\n      and\n        /* \"--CODEGEN--\":27709:27750   */\n      swap1\n      pop\n        /* \"--CODEGEN--\":27808:27812   */\n      0x20\n        /* \"--CODEGEN--\":27802:27806   */\n      dup2\n        /* \"--CODEGEN--\":27798:27813   */\n      add\n        /* \"--CODEGEN--\":27790:27813   */\n      swap1\n      pop\n        /* \"--CODEGEN--\":27568:27823   */\n      swap2\n      swap1\n      pop\n      jump\n        /* \"--CODEGEN--\":27830:27952   */\n    tag_560:\n      0x00\n        /* \"--CODEGEN--\":27924:27929   */\n      dup2\n        /* \"--CODEGEN--\":27918:27930   */\n      mload\n        /* \"--CODEGEN--\":27908:27930   */\n      swap1\n      pop\n        /* \"--CODEGEN--\":27889:27952   */\n      swap2\n      swap1\n      pop\n      jump\n        /* \"--CODEGEN--\":27960:28123   */\n    tag_562:\n      0x00\n        /* \"--CODEGEN--\":28075:28081   */\n      dup3\n        /* \"--CODEGEN--\":28070:28073   */\n      dup3\n        /* \"--CODEGEN--\":28063:28082   */\n      mstore\n        /* \"--CODEGEN--\":28112:28116   */\n      0x20\n        /* \"--CODEGEN--\":28107:28110   */\n      dup3\n        /* \"--CODEGEN--\":28103:28117   */\n      add\n        /* \"--CODEGEN--\":28088:28117   */\n      swap1\n      pop\n        /* \"--CODEGEN--\":28056:28123   */\n      swap3\n      swap2\n      pop\n      pop\n      jump\n        /* \"--CODEGEN--\":28132:28277   */\n    tag_570:\n      0x00\n        /* \"--CODEGEN--\":28268:28271   */\n      dup2\n        /* \"--CODEGEN--\":28253:28271   */\n      swap1\n      pop\n        /* \"--CODEGEN--\":28246:28277   */\n      swap3\n      swap2\n      pop\n      pop\n      jump\n        /* \"--CODEGEN--\":28285:28376   */\n    tag_539:\n      0x00\n        /* \"--CODEGEN--\":28347:28371   */\n      tag_690\n        /* \"--CODEGEN--\":28365:28370   */\n      dup3\n        /* \"--CODEGEN--\":28347:28371   */\n      jump(tag_691)\n    tag_690:\n        /* \"--CODEGEN--\":28336:28371   */\n      swap1\n      pop\n        /* \"--CODEGEN--\":28330:28376   */\n      swap2\n      swap1\n      pop\n      jump\n        /* \"--CODEGEN--\":28383:28468   */\n    tag_543:\n      0x00\n        /* \"--CODEGEN--\":28456:28461   */\n      dup2\n        /* \"--CODEGEN--\":28449:28462   */\n      iszero\n        /* \"--CODEGEN--\":28442:28463   */\n      iszero\n        /* \"--CODEGEN--\":28431:28463   */\n      swap1\n      pop\n        /* \"--CODEGEN--\":28425:28468   */\n      swap2\n      swap1\n      pop\n      jump\n        /* \"--CODEGEN--\":28475:28547   */\n    tag_547:\n      0x00\n        /* \"--CODEGEN--\":28537:28542   */\n      dup2\n        /* \"--CODEGEN--\":28526:28542   */\n      swap1\n      pop\n        /* \"--CODEGEN--\":28520:28547   */\n      swap2\n      swap1\n      pop\n      jump\n        /* \"--CODEGEN--\":28554:28690   */\n    tag_694:\n      0x00\n        /* \"--CODEGEN--\":28631:28636   */\n      dup2\n        /* \"--CODEGEN--\":28620:28636   */\n      swap1\n      pop\n        /* \"--CODEGEN--\":28637:28685   */\n      tag_696\n        /* \"--CODEGEN--\":28679:28684   */\n      dup3\n        /* \"--CODEGEN--\":28637:28685   */\n      jump(tag_697)\n    tag_696:\n        /* \"--CODEGEN--\":28614:28690   */\n      swap2\n      swap1\n      pop\n      jump\n        /* \"--CODEGEN--\":28697:28818   */\n    tag_691:\n      0x00\n        /* \"--CODEGEN--\":28770:28812   */\n      0xffffffffffffffffffffffffffffffffffffffff\n        /* \"--CODEGEN--\":28763:28768   */\n      dup3\n        /* \"--CODEGEN--\":28759:28813   */\n      and\n        /* \"--CODEGEN--\":28748:28813   */\n      swap1\n      pop\n        /* \"--CODEGEN--\":28742:28818   */\n      swap2\n      swap1\n      pop\n      jump\n        /* \"--CODEGEN--\":28825:28897   */\n    tag_608:\n      0x00\n        /* \"--CODEGEN--\":28887:28892   */\n      dup2\n        /* \"--CODEGEN--\":28876:28892   */\n      swap1\n      pop\n        /* \"--CODEGEN--\":28870:28897   */\n      swap2\n      swap1\n      pop\n      jump\n        /* \"--CODEGEN--\":28904:29033   */\n    tag_535:\n      0x00\n        /* \"--CODEGEN--\":28991:29028   */\n      tag_701\n        /* \"--CODEGEN--\":29022:29027   */\n      dup3\n        /* \"--CODEGEN--\":28991:29028   */\n      jump(tag_702)\n    tag_701:\n        /* \"--CODEGEN--\":28978:29028   */\n      swap1\n      pop\n        /* \"--CODEGEN--\":28972:29033   */\n      swap2\n      swap1\n      pop\n      jump\n        /* \"--CODEGEN--\":29040:29176   */\n    tag_556:\n      0x00\n        /* \"--CODEGEN--\":29132:29171   */\n      tag_704\n        /* \"--CODEGEN--\":29165:29170   */\n      dup3\n        /* \"--CODEGEN--\":29132:29171   */\n      jump(tag_694)\n    tag_704:\n        /* \"--CODEGEN--\":29119:29171   */\n      swap1\n      pop\n        /* \"--CODEGEN--\":29113:29176   */\n      swap2\n      swap1\n      pop\n      jump\n        /* \"--CODEGEN--\":29183:29304   */\n    tag_702:\n      0x00\n        /* \"--CODEGEN--\":29262:29299   */\n      tag_706\n        /* \"--CODEGEN--\":29293:29298   */\n      dup3\n        /* \"--CODEGEN--\":29262:29299   */\n      jump(tag_707)\n    tag_706:\n        /* \"--CODEGEN--\":29249:29299   */\n      swap1\n      pop\n        /* \"--CODEGEN--\":29243:29304   */\n      swap2\n      swap1\n      pop\n      jump\n        /* \"--CODEGEN--\":29311:29419   */\n    tag_707:\n      0x00\n        /* \"--CODEGEN--\":29390:29414   */\n      tag_709\n        /* \"--CODEGEN--\":29408:29413   */\n      dup3\n        /* \"--CODEGEN--\":29390:29414   */\n      jump(tag_691)\n    tag_709:\n        /* \"--CODEGEN--\":29377:29414   */\n      swap1\n      pop\n        /* \"--CODEGEN--\":29371:29419   */\n      swap2\n      swap1\n      pop\n      jump\n        /* \"--CODEGEN--\":29427:29572   */\n    tag_432:\n        /* \"--CODEGEN--\":29508:29514   */\n      dup3\n        /* \"--CODEGEN--\":29503:29506   */\n      dup2\n        /* \"--CODEGEN--\":29498:29501   */\n      dup4\n        /* \"--CODEGEN--\":29485:29515   */\n      calldatacopy\n        /* \"--CODEGEN--\":29564:29565   */\n      0x00\n        /* \"--CODEGEN--\":29555:29561   */\n      dup4\n        /* \"--CODEGEN--\":29550:29553   */\n      dup4\n        /* \"--CODEGEN--\":29546:29562   */\n      add\n        /* \"--CODEGEN--\":29539:29566   */\n      mstore\n        /* \"--CODEGEN--\":29478:29572   */\n      pop\n      pop\n      pop\n      jump\n        /* \"--CODEGEN--\":29581:29849   */\n    tag_440:\n        /* \"--CODEGEN--\":29646:29647   */\n      0x00\n        /* \"--CODEGEN--\":29653:29754   */\n    tag_712:\n        /* \"--CODEGEN--\":29667:29673   */\n      dup4\n        /* \"--CODEGEN--\":29664:29665   */\n      dup2\n        /* \"--CODEGEN--\":29661:29674   */\n      lt\n        /* \"--CODEGEN--\":29653:29754   */\n      iszero\n      tag_714\n      jumpi\n        /* \"--CODEGEN--\":29743:29744   */\n      dup1\n        /* \"--CODEGEN--\":29738:29741   */\n      dup3\n        /* \"--CODEGEN--\":29734:29745   */\n      add\n        /* \"--CODEGEN--\":29728:29746   */\n      mload\n        /* \"--CODEGEN--\":29724:29725   */\n      dup2\n        /* \"--CODEGEN--\":29719:29722   */\n      dup5\n        /* \"--CODEGEN--\":29715:29726   */\n      add\n        /* \"--CODEGEN--\":29708:29747   */\n      mstore\n        /* \"--CODEGEN--\":29689:29691   */\n      0x20\n        /* \"--CODEGEN--\":29686:29687   */\n      dup2\n        /* \"--CODEGEN--\":29682:29692   */\n      add\n        /* \"--CODEGEN--\":29677:29692   */\n      swap1\n      pop\n        /* \"--CODEGEN--\":29653:29754   */\n      jump(tag_712)\n    tag_714:\n        /* \"--CODEGEN--\":29769:29775   */\n      dup4\n        /* \"--CODEGEN--\":29766:29767   */\n      dup2\n        /* \"--CODEGEN--\":29763:29776   */\n      gt\n        /* \"--CODEGEN--\":29760:29762   */\n      iszero\n      tag_715\n      jumpi\n        /* \"--CODEGEN--\":29834:29835   */\n      0x00\n        /* \"--CODEGEN--\":29825:29831   */\n      dup5\n        /* \"--CODEGEN--\":29820:29823   */\n      dup5\n        /* \"--CODEGEN--\":29816:29832   */\n      add\n        /* \"--CODEGEN--\":29809:29836   */\n      mstore\n        /* \"--CODEGEN--\":29760:29762   */\n    tag_715:\n        /* \"--CODEGEN--\":29630:29849   */\n      pop\n      pop\n      pop\n      pop\n      jump\n        /* \"--CODEGEN--\":29857:29931   */\n    tag_552:\n      0x00\n        /* \"--CODEGEN--\":29921:29926   */\n      dup2\n        /* \"--CODEGEN--\":29910:29926   */\n      swap1\n      pop\n        /* \"--CODEGEN--\":29904:29931   */\n      swap2\n      swap1\n      pop\n      jump\n        /* \"--CODEGEN--\":29938:30035   */\n    tag_565:\n      0x00\n        /* \"--CODEGEN--\":30026:30028   */\n      0x1f\n        /* \"--CODEGEN--\":30022:30029   */\n      not\n        /* \"--CODEGEN--\":30017:30019   */\n      0x1f\n        /* \"--CODEGEN--\":30010:30015   */\n      dup4\n        /* \"--CODEGEN--\":30006:30020   */\n      add\n        /* \"--CODEGEN--\":30002:30030   */\n      and\n        /* \"--CODEGEN--\":29992:30030   */\n      swap1\n      pop\n        /* \"--CODEGEN--\":29986:30035   */\n      swap2\n      swap1\n      pop\n      jump\n        /* \"--CODEGEN--\":30043:30149   */\n    tag_697:\n        /* \"--CODEGEN--\":30127:30128   */\n      0x06\n        /* \"--CODEGEN--\":30120:30125   */\n      dup2\n        /* \"--CODEGEN--\":30117:30129   */\n      lt\n        /* \"--CODEGEN--\":30107:30109   */\n      tag_719\n      jumpi\n        /* \"--CODEGEN--\":30133:30142   */\n      invalid\n        /* \"--CODEGEN--\":30107:30109   */\n    tag_719:\n        /* \"--CODEGEN--\":30101:30149   */\n      pop\n      jump\n        /* \"--CODEGEN--\":30156:30273   */\n    tag_414:\n        /* \"--CODEGEN--\":30225:30249   */\n      tag_721\n        /* \"--CODEGEN--\":30243:30248   */\n      dup2\n        /* \"--CODEGEN--\":30225:30249   */\n      jump(tag_539)\n    tag_721:\n        /* \"--CODEGEN--\":30218:30223   */\n      dup2\n        /* \"--CODEGEN--\":30215:30250   */\n      eq\n        /* \"--CODEGEN--\":30205:30207   */\n      tag_722\n      jumpi\n        /* \"--CODEGEN--\":30264:30265   */\n      0x00\n        /* \"--CODEGEN--\":30261:30262   */\n      dup1\n        /* \"--CODEGEN--\":30254:30266   */\n      revert\n        /* \"--CODEGEN--\":30205:30207   */\n    tag_722:\n        /* \"--CODEGEN--\":30199:30273   */\n      pop\n      jump\n        /* \"--CODEGEN--\":30280:30391   */\n    tag_418:\n        /* \"--CODEGEN--\":30346:30367   */\n      tag_724\n        /* \"--CODEGEN--\":30361:30366   */\n      dup2\n        /* \"--CODEGEN--\":30346:30367   */\n      jump(tag_543)\n    tag_724:\n        /* \"--CODEGEN--\":30339:30344   */\n      dup2\n        /* \"--CODEGEN--\":30336:30368   */\n      eq\n        /* \"--CODEGEN--\":30326:30328   */\n      tag_725\n      jumpi\n        /* \"--CODEGEN--\":30382:30383   */\n      0x00\n        /* \"--CODEGEN--\":30379:30380   */\n      dup1\n        /* \"--CODEGEN--\":30372:30384   */\n      revert\n        /* \"--CODEGEN--\":30326:30328   */\n    tag_725:\n        /* \"--CODEGEN--\":30320:30391   */\n      pop\n      jump\n        /* \"--CODEGEN--\":30398:30515   */\n    tag_422:\n        /* \"--CODEGEN--\":30467:30491   */\n      tag_727\n        /* \"--CODEGEN--\":30485:30490   */\n      dup2\n        /* \"--CODEGEN--\":30467:30491   */\n      jump(tag_547)\n    tag_727:\n        /* \"--CODEGEN--\":30460:30465   */\n      dup2\n        /* \"--CODEGEN--\":30457:30492   */\n      eq\n        /* \"--CODEGEN--\":30447:30449   */\n      tag_728\n      jumpi\n        /* \"--CODEGEN--\":30506:30507   */\n      0x00\n        /* \"--CODEGEN--\":30503:30504   */\n      dup1\n        /* \"--CODEGEN--\":30496:30508   */\n      revert\n        /* \"--CODEGEN--\":30447:30449   */\n    tag_728:\n        /* \"--CODEGEN--\":30441:30515   */\n      pop\n      jump\n        /* \"--CODEGEN--\":30522:30639   */\n    tag_444:\n        /* \"--CODEGEN--\":30591:30615   */\n      tag_730\n        /* \"--CODEGEN--\":30609:30614   */\n      dup2\n        /* \"--CODEGEN--\":30591:30615   */\n      jump(tag_608)\n    tag_730:\n        /* \"--CODEGEN--\":30584:30589   */\n      dup2\n        /* \"--CODEGEN--\":30581:30616   */\n      eq\n        /* \"--CODEGEN--\":30571:30573   */\n      tag_731\n      jumpi\n        /* \"--CODEGEN--\":30630:30631   */\n      0x00\n        /* \"--CODEGEN--\":30627:30628   */\n      dup1\n        /* \"--CODEGEN--\":30620:30632   */\n      revert\n        /* \"--CODEGEN--\":30571:30573   */\n    tag_731:\n        /* \"--CODEGEN--\":30565:30639   */\n      pop\n      jump\n\n    auxdata: 0xa264697066735822122088e9c0525eeedb933e6689f21ac53847f6c610726160dbfcc08df9f6e057ea7364736f6c63430006060033\n}\n","bytecode":{"linkReferences":{},"object":"60806040527382671b9d3abaa76277d5b38167b09646c2c32d94600160006101000a81548173ffffffffffffffffffffffffffffffffffffffff021916908373ffffffffffffffffffffffffffffffffffffffff16021790555034801561006557600080fd5b50336000806101000a81548173ffffffffffffffffffffffffffffffffffffffff021916908373ffffffffffffffffffffffffffffffffffffffff1602179055506151a1806100b56000396000f3fe608060405234801561001057600080fd5b506004361061018e5760003560e01c8063977d5084116100de578063b7e0621611610097578063ef536e4f11610071578063ef536e4f14610502578063f0b2c59414610532578063f29326a41461054e578063fbcf95751461057e5761018e565b8063b7e0621614610494578063db76cb07146104b0578063e8ad308d146104cc5761018e565b8063977d50841461038a578063995975d8146103ba578063a32f69c0146103ee578063a6b43aca14610425578063a9588eda1461045c578063b30485fc146104785761018e565b80632a4f0c981161014b578063532a1bd211610125578063532a1bd2146102eb578063681bcf091461032257806386fb1ff51461033e5780638d4498611461036e5761018e565b80632a4f0c98146102835780633101c1461461029f5780634adfd36b146102bb5761018e565b80630ab2039f146101935780630b3cc3e6146101c6578063108246f0146101f6578063156836e3146102145780632522294614610230578063253245b514610265575b600080fd5b6101ad60048036038101906101a891906141ab565b6105b5565b6040516101bd9493929190614b7f565b60405180910390f35b6101e060048036038101906101db9190614146565b6108ec565b6040516101ed9190614f5d565b60405180910390f35b6101fe610938565b60405161020b9190614b49565b60405180910390f35b61022e6004803603810190610229919061416f565b61095e565b005b61024a60048036038101906102459190614718565b610aae565b60405161025c96959493929190614d96565b60405180910390f35b61026d610d97565b60405161027a9190614f5d565b60405180910390f35b61029d60048036038101906102989190614519565b610da4565b005b6102b960048036038101906102b49190614433565b611054565b005b6102d560048036038101906102d091906141fa565b611313565b6040516102e29190614f5d565b60405180910390f35b610305600480360381019061030091906141ab565b611338565b604051610319989796959493929190614d03565b60405180910390f35b61033c60048036038101906103379190614236565b6115af565b005b61035860048036038101906103539190614314565b6119a5565b6040516103659190614ce1565b60405180910390f35b610388600480360381019061038391906141fa565b611b11565b005b6103a4600480360381019061039f91906141fa565b611dad565b6040516103b19190614f5d565b60405180910390f35b6103d460048036038101906103cf91906141fa565b611dd2565b6040516103e5959493929190614c8e565b60405180910390f35b610408600480360381019061040391906141ab565b611e5c565b60405161041c989796959493929190614d03565b60405180910390f35b61043f600480360381019061043a91906141ab565b6120d3565b604051610453989796959493929190614d03565b60405180910390f35b61047660048036038101906104719190614285565b61234a565b005b610492600480360381019061048d9190614146565b612c34565b005b6104ae60048036038101906104a99190614377565b612da1565b005b6104ca60048036038101906104c59190614602565b6132d8565b005b6104e660048036038101906104e19190614718565b613632565b6040516104f99796959493929190614e13565b60405180910390f35b61051c600480360381019061051791906141fa565b6139b9565b6040516105299190614b49565b60405180910390f35b61054c60048036038101906105479190614146565b613a04565b005b6105686004803603810190610563919061416f565b613b75565b6040516105759190614f5d565b60405180910390f35b610598600480360381019061059391906141ab565b613b9a565b6040516105ac989796959493929190614d03565b60405180910390f35b60008060006060600b60008773ffffffffffffffffffffffffffffffffffffffff1673ffffffffffffffffffffffffffffffffffffffff16815260200190815260200160002060008873ffffffffffffffffffffffffffffffffffffffff1673ffffffffffffffffffffffffffffffffffffffff168152602001908152602001600020858154811061064357fe5b906000526020600020906008020160010160009054906101000a900473ffffffffffffffffffffffffffffffffffffffff16600b60008873ffffffffffffffffffffffffffffffffffffffff1673ffffffffffffffffffffffffffffffffffffffff16815260200190815260200160002060008973ffffffffffffffffffffffffffffffffffffffff1673ffffffffffffffffffffffffffffffffffffffff16815260200190815260200160002086815481106106fc57fe5b906000526020600020906008020160050154600b60008973ffffffffffffffffffffffffffffffffffffffff1673ffffffffffffffffffffffffffffffffffffffff16815260200190815260200160002060008a73ffffffffffffffffffffffffffffffffffffffff1673ffffffffffffffffffffffffffffffffffffffff168152602001908152602001600020878154811061079557fe5b906000526020600020906008020160060154600b60008a73ffffffffffffffffffffffffffffffffffffffff1673ffffffffffffffffffffffffffffffffffffffff16815260200190815260200160002060008b73ffffffffffffffffffffffffffffffffffffffff1673ffffffffffffffffffffffffffffffffffffffff168152602001908152602001600020888154811061082e57fe5b9060005260206000209060080201600401808054600181600116156101000203166002900480601f0160208091040260200160405190810160405280929190818152602001828054600181600116156101000203166002900480156108d45780601f106108a9576101008083540402835291602001916108d4565b820191906000526020600020905b8154815290600101906020018083116108b757829003601f168201915b50505050509050935093509350935093509350935093565b6000600860008373ffffffffffffffffffffffffffffffffffffffff1673ffffffffffffffffffffffffffffffffffffffff168152602001908152602001600020805490509050919050565b600160009054906101000a900473ffffffffffffffffffffffffffffffffffffffff1681565b60011515600560008473ffffffffffffffffffffffffffffffffffffffff1673ffffffffffffffffffffffffffffffffffffffff16815260200190815260200160002060009054906101000a900460ff161515146109bb57600080fd5b600082905060608173ffffffffffffffffffffffffffffffffffffffff16638cba76b1846040518263ffffffff1660e01b81526004016109fb9190614c0c565b60006040518083038186803b158015610a1357600080fd5b505afa158015610a27573d6000803e3d6000fd5b505050506040513d6000823e3d601f19601f82011682018060405250810190610a5091906143f2565b9050604051602001610a6190614b34565b6040516020818303038152906040528051906020012081604051602001610a889190614b1d565b6040516020818303038152906040528051906020012014610aa857600080fd5b50505050565b60028181548110610abb57fe5b9060005260206000209060060201600091509050806000018054600181600116156101000203166002900480601f016020809104026020016040519081016040528092919081815260200182805460018160011615610100020316600290048015610b675780601f10610b3c57610100808354040283529160200191610b67565b820191906000526020600020905b815481529060010190602001808311610b4a57829003601f168201915b5050505050908060010160009054906101000a900473ffffffffffffffffffffffffffffffffffffffff1690806002018054600181600116156101000203166002900480601f016020809104026020016040519081016040528092919081815260200182805460018160011615610100020316600290048015610c2b5780601f10610c0057610100808354040283529160200191610c2b565b820191906000526020600020905b815481529060010190602001808311610c0e57829003601f168201915b5050505050908060030160009054906101000a900473ffffffffffffffffffffffffffffffffffffffff1690806004018054600181600116156101000203166002900480601f016020809104026020016040519081016040528092919081815260200182805460018160011615610100020316600290048015610cef5780601f10610cc457610100808354040283529160200191610cef565b820191906000526020600020905b815481529060010190602001808311610cd257829003601f168201915b505050505090806005018054600181600116156101000203166002900480601f016020809104026020016040519081016040528092919081815260200182805460018160011615610100020316600290048015610d8d5780601f10610d6257610100808354040283529160200191610d8d565b820191906000526020600020905b815481529060010190602001808311610d7057829003601f168201915b5050505050905086565b6000600280549050905090565b6000809054906101000a900473ffffffffffffffffffffffffffffffffffffffff1673ffffffffffffffffffffffffffffffffffffffff163373ffffffffffffffffffffffffffffffffffffffff1614610dfd57600080fd5b610e276000809054906101000a900473ffffffffffffffffffffffffffffffffffffffff16612c34565b6001600460008773ffffffffffffffffffffffffffffffffffffffff1673ffffffffffffffffffffffffffffffffffffffff16815260200190815260200160002060006101000a81548160ff021916908315150217905550610e87613e11565b86816000018190525085816020019073ffffffffffffffffffffffffffffffffffffffff16908173ffffffffffffffffffffffffffffffffffffffff168152505084816040018190525083816060019073ffffffffffffffffffffffffffffffffffffffff16908173ffffffffffffffffffffffffffffffffffffffff1681525050828160800181905250818160a0018190525060028190806001815401808255809150506001900390600052602060002090600602016000909190919091506000820151816000019080519060200190610f63929190613e73565b5060208201518160010160006101000a81548173ffffffffffffffffffffffffffffffffffffffff021916908373ffffffffffffffffffffffffffffffffffffffff1602179055506040820151816002019080519060200190610fc7929190613e73565b5060608201518160030160006101000a81548173ffffffffffffffffffffffffffffffffffffffff021916908373ffffffffffffffffffffffffffffffffffffffff160217905550608082015181600401908051906020019061102b929190613e73565b5060a0820151816005019080519060200190611048929190613e73565b50505050505050505050565b60011515600560008873ffffffffffffffffffffffffffffffffffffffff1673ffffffffffffffffffffffffffffffffffffffff16815260200190815260200160002060009054906101000a900460ff161515146110b157600080fd5b6110b9613ef3565b87816000018190525033816020019073ffffffffffffffffffffffffffffffffffffffff16908173ffffffffffffffffffffffffffffffffffffffff168152505085816040018190525084816060019073ffffffffffffffffffffffffffffffffffffffff16908173ffffffffffffffffffffffffffffffffffffffff1681525050838160800181905250828160a0018181525050818160c001818152505060018160e00151018160e001818152505080600660008773ffffffffffffffffffffffffffffffffffffffff1673ffffffffffffffffffffffffffffffffffffffff16815260200190815260200160002060008973ffffffffffffffffffffffffffffffffffffffff1673ffffffffffffffffffffffffffffffffffffffff1681526020019081526020016000208260e00151815481106111f557fe5b9060005260206000209060080201600082015181600001908051906020019061121f929190613e73565b5060208201518160010160006101000a81548173ffffffffffffffffffffffffffffffffffffffff021916908373ffffffffffffffffffffffffffffffffffffffff1602179055506040820151816002019080519060200190611283929190613e73565b5060608201518160030160006101000a81548173ffffffffffffffffffffffffffffffffffffffff021916908373ffffffffffffffffffffffffffffffffffffffff16021790555060808201518160040190805190602001906112e7929190613e73565b5060a0820151816005015560c0820151816006015560e082015181600701559050505050505050505050565b600c602052816000526040600020602052806000526040600020600091509150505481565b6006602052826000526040600020602052816000526040600020818154811061135d57fe5b90600052602060002090600802016000925092505050806000018054600181600116156101000203166002900480601f01602080910402602001604051908101604052809291908181526020018280546001816001161561010002031660029004801561140b5780601f106113e05761010080835404028352916020019161140b565b820191906000526020600020905b8154815290600101906020018083116113ee57829003601f168201915b5050505050908060010160009054906101000a900473ffffffffffffffffffffffffffffffffffffffff1690806002018054600181600116156101000203166002900480601f0160208091040260200160405190810160405280929190818152602001828054600181600116156101000203166002900480156114cf5780601f106114a4576101008083540402835291602001916114cf565b820191906000526020600020905b8154815290600101906020018083116114b257829003601f168201915b5050505050908060030160009054906101000a900473ffffffffffffffffffffffffffffffffffffffff1690806004018054600181600116156101000203166002900480601f0160208091040260200160405190810160405280929190818152602001828054600181600116156101000203166002900480156115935780601f1061156857610100808354040283529160200191611593565b820191906000526020600020905b81548152906001019060200180831161157657829003601f168201915b5050505050908060050154908060060154908060070154905088565b6000600c60003373ffffffffffffffffffffffffffffffffffffffff1673ffffffffffffffffffffffffffffffffffffffff16815260200190815260200160002060008381526020019081526020016000205490503373ffffffffffffffffffffffffffffffffffffffff16600860003373ffffffffffffffffffffffffffffffffffffffff1673ffffffffffffffffffffffffffffffffffffffff168152602001908152602001600020828154811061166557fe5b906000526020600020906004020160000160019054906101000a900473ffffffffffffffffffffffffffffffffffffffff1673ffffffffffffffffffffffffffffffffffffffff1614156116b857600080fd5b600060058111156116c557fe5b600860003373ffffffffffffffffffffffffffffffffffffffff1673ffffffffffffffffffffffffffffffffffffffff168152602001908152602001600020828154811061170f57fe5b906000526020600020906004020160000160009054906101000a900460ff16600581111561173957fe5b1461174357600080fd5b8315611876576001600860003373ffffffffffffffffffffffffffffffffffffffff1673ffffffffffffffffffffffffffffffffffffffff168152602001908152602001600020828154811061179557fe5b906000526020600020906004020160000160006101000a81548160ff021916908360058111156117c157fe5b02179055506001600860003373ffffffffffffffffffffffffffffffffffffffff1673ffffffffffffffffffffffffffffffffffffffff168152602001908152602001600020828154811061181257fe5b906000526020600020906004020160030160006101000a81548160ff0219169083151502179055507f30f499dee5aca26bf88e6932509f2693b637e648ec36ac97034db8869f118639836040516118699190614f01565b60405180910390a161199f565b6002600860003373ffffffffffffffffffffffffffffffffffffffff1673ffffffffffffffffffffffffffffffffffffffff16815260200190815260200160002082815481106118c257fe5b906000526020600020906004020160000160006101000a81548160ff021916908360058111156118ee57fe5b02179055506000600860003373ffffffffffffffffffffffffffffffffffffffff1673ffffffffffffffffffffffffffffffffffffffff168152602001908152602001600020828154811061193f57fe5b906000526020600020906004020160030160006101000a81548160ff0219169083151502179055507fb72d3d0ddac6222a8090aba8a89a5f33ea480ca5e3201dea0f31f5da8203f249836040516119969190614ea5565b60405180910390a15b50505050565b6060600660008473ffffffffffffffffffffffffffffffffffffffff1673ffffffffffffffffffffffffffffffffffffffff16815260200190815260200160002060008573ffffffffffffffffffffffffffffffffffffffff1673ffffffffffffffffffffffffffffffffffffffff1681526020019081526020016000208281548110611a2e57fe5b906000526020600020906008020160050154604051602001611a509190614b02565b6040516020818303038152906040528051906020012085604051602001611a779190614b02565b604051602081830303815290604052805190602001201415611ad0576040518060400160405280600481526020017f74727565000000000000000000000000000000000000000000000000000000008152509050611b09565b6040518060400160405280600b81526020017f616c6d6f73742066616b6500000000000000000000000000000000000000000081525090505b949350505050565b3373ffffffffffffffffffffffffffffffffffffffff168273ffffffffffffffffffffffffffffffffffffffff161415611b4a57600080fd5b7f85ace08f038481adc2bfd0f855a5103eed84d76d1889e2837c00a5f0b64dd50b33604051611b799190614b64565b60405180910390a1611b89613f67565b33816020019073ffffffffffffffffffffffffffffffffffffffff16908173ffffffffffffffffffffffffffffffffffffffff1681525050600081600001906005811115611bd357fe5b90816005811115611be057fe5b81525050818160400181815250506000816080019015159081151581525050600860008473ffffffffffffffffffffffffffffffffffffffff1673ffffffffffffffffffffffffffffffffffffffff16815260200190815260200160002081908060018154018082558091505060019003906000526020600020906004020160009091909190915060008201518160000160006101000a81548160ff02191690836005811115611c8c57fe5b021790555060208201518160000160016101000a81548173ffffffffffffffffffffffffffffffffffffffff021916908373ffffffffffffffffffffffffffffffffffffffff160217905550604082015181600101556060820151816002015560808201518160030160006101000a81548160ff02191690831515021790555050506001600860008573ffffffffffffffffffffffffffffffffffffffff1673ffffffffffffffffffffffffffffffffffffffff1681526020019081526020016000208054905003600c60008573ffffffffffffffffffffffffffffffffffffffff1673ffffffffffffffffffffffffffffffffffffffff168152602001908152602001600020600084815260200190815260200160002081905550505050565b600e602052816000526040600020602052806000526040600020600091509150505481565b60086020528160005260406000208181548110611deb57fe5b9060005260206000209060040201600091509150508060000160009054906101000a900460ff16908060000160019054906101000a900473ffffffffffffffffffffffffffffffffffffffff16908060010154908060020154908060030160009054906101000a900460ff16905085565b60096020528260005260406000206020528160005260406000208181548110611e8157fe5b90600052602060002090600802016000925092505050806000018054600181600116156101000203166002900480601f016020809104026020016040519081016040528092919081815260200182805460018160011615610100020316600290048015611f2f5780601f10611f0457610100808354040283529160200191611f2f565b820191906000526020600020905b815481529060010190602001808311611f1257829003601f168201915b5050505050908060010160009054906101000a900473ffffffffffffffffffffffffffffffffffffffff1690806002018054600181600116156101000203166002900480601f016020809104026020016040519081016040528092919081815260200182805460018160011615610100020316600290048015611ff35780601f10611fc857610100808354040283529160200191611ff3565b820191906000526020600020905b815481529060010190602001808311611fd657829003601f168201915b5050505050908060030160009054906101000a900473ffffffffffffffffffffffffffffffffffffffff1690806004018054600181600116156101000203166002900480601f0160208091040260200160405190810160405280929190818152602001828054600181600116156101000203166002900480156120b75780601f1061208c576101008083540402835291602001916120b7565b820191906000526020600020905b81548152906001019060200180831161209a57829003601f168201915b5050505050908060050154908060060154908060070154905088565b600a60205282600052604060002060205281600052604060002081815481106120f857fe5b90600052602060002090600802016000925092505050806000018054600181600116156101000203166002900480601f0160208091040260200160405190810160405280929190818152602001828054600181600116156101000203166002900480156121a65780601f1061217b576101008083540402835291602001916121a6565b820191906000526020600020905b81548152906001019060200180831161218957829003601f168201915b5050505050908060010160009054906101000a900473ffffffffffffffffffffffffffffffffffffffff1690806002018054600181600116156101000203166002900480601f01602080910402602001604051908101604052809291908181526020018280546001816001161561010002031660029004801561226a5780601f1061223f5761010080835404028352916020019161226a565b820191906000526020600020905b81548152906001019060200180831161224d57829003601f168201915b5050505050908060030160009054906101000a900473ffffffffffffffffffffffffffffffffffffffff1690806004018054600181600116156101000203166002900480601f01602080910402602001604051908101604052809291908181526020018280546001816001161561010002031660029004801561232e5780601f106123035761010080835404028352916020019161232e565b820191906000526020600020905b81548152906001019060200180831161231157829003601f168201915b5050505050908060050154908060060154908060070154905088565b6000600c60003373ffffffffffffffffffffffffffffffffffffffff1673ffffffffffffffffffffffffffffffffffffffff16815260200190815260200160002060008381526020019081526020016000205490508273ffffffffffffffffffffffffffffffffffffffff16600860003373ffffffffffffffffffffffffffffffffffffffff1673ffffffffffffffffffffffffffffffffffffffff168152602001908152602001600020828154811061240057fe5b906000526020600020906004020160000160019054906101000a900473ffffffffffffffffffffffffffffffffffffffff1673ffffffffffffffffffffffffffffffffffffffff161461245257600080fd5b6001600581111561245f57fe5b600860003373ffffffffffffffffffffffffffffffffffffffff1673ffffffffffffffffffffffffffffffffffffffff16815260200190815260200160002082815481106124a957fe5b906000526020600020906004020160000160009054906101000a900460ff1660058111156124d357fe5b146124dd57600080fd5b60011515600860003373ffffffffffffffffffffffffffffffffffffffff1673ffffffffffffffffffffffffffffffffffffffff168152602001908152602001600020828154811061252b57fe5b906000526020600020906004020160030160009054906101000a900460ff1615151461255657600080fd5b61255e613ef3565b33816020019073ffffffffffffffffffffffffffffffffffffffff16908173ffffffffffffffffffffffffffffffffffffffff1681525050858160a0018181525050428160c001818152505084816080018190525086156128f457600960003373ffffffffffffffffffffffffffffffffffffffff1673ffffffffffffffffffffffffffffffffffffffff16815260200190815260200160002060008573ffffffffffffffffffffffffffffffffffffffff1673ffffffffffffffffffffffffffffffffffffffff168152602001908152602001600020819080600181540180825580915050600190039060005260206000209060080201600090919091909150600082015181600001908051906020019061267b929190613e73565b5060208201518160010160006101000a81548173ffffffffffffffffffffffffffffffffffffffff021916908373ffffffffffffffffffffffffffffffffffffffff16021790555060408201518160020190805190602001906126df929190613e73565b5060608201518160030160006101000a81548173ffffffffffffffffffffffffffffffffffffffff021916908373ffffffffffffffffffffffffffffffffffffffff1602179055506080820151816004019080519060200190612743929190613e73565b5060a0820151816005015560c0820151816006015560e0820151816007015550506001600960003373ffffffffffffffffffffffffffffffffffffffff1673ffffffffffffffffffffffffffffffffffffffff16815260200190815260200160002060008673ffffffffffffffffffffffffffffffffffffffff1673ffffffffffffffffffffffffffffffffffffffff1681526020019081526020016000208054905003600e60003373ffffffffffffffffffffffffffffffffffffffff1673ffffffffffffffffffffffffffffffffffffffff1681526020019081526020016000206000858152602001908152602001600020819055506004600860003373ffffffffffffffffffffffffffffffffffffffff1673ffffffffffffffffffffffffffffffffffffffff168152602001908152602001600020838154811061288757fe5b906000526020600020906004020160000160006101000a81548160ff021916908360058111156128b357fe5b02179055507f9284a3a973ddff1d3e244c1e83925819c36925fb080960eb3f826bf9bb9bf210846040516128e79190614f2f565b60405180910390a1612c2b565b600a60003373ffffffffffffffffffffffffffffffffffffffff1673ffffffffffffffffffffffffffffffffffffffff16815260200190815260200160002060008573ffffffffffffffffffffffffffffffffffffffff1673ffffffffffffffffffffffffffffffffffffffff16815260200190815260200160002081908060018154018082558091505060019003906000526020600020906008020160009091909190915060008201518160000190805190602001906129b6929190613e73565b5060208201518160010160006101000a81548173ffffffffffffffffffffffffffffffffffffffff021916908373ffffffffffffffffffffffffffffffffffffffff1602179055506040820151816002019080519060200190612a1a929190613e73565b5060608201518160030160006101000a81548173ffffffffffffffffffffffffffffffffffffffff021916908373ffffffffffffffffffffffffffffffffffffffff1602179055506080820151816004019080519060200190612a7e929190613e73565b5060a0820151816005015560c0820151816006015560e0820151816007015550506001600a60003373ffffffffffffffffffffffffffffffffffffffff1673ffffffffffffffffffffffffffffffffffffffff16815260200190815260200160002060008673ffffffffffffffffffffffffffffffffffffffff1673ffffffffffffffffffffffffffffffffffffffff1681526020019081526020016000208054905003600e60003373ffffffffffffffffffffffffffffffffffffffff1673ffffffffffffffffffffffffffffffffffffffff1681526020019081526020016000206000858152602001908152602001600020819055506005600860003373ffffffffffffffffffffffffffffffffffffffff1673ffffffffffffffffffffffffffffffffffffffff1681526020019081526020016000208381548110612bc257fe5b906000526020600020906004020160000160006101000a81548160ff02191690836005811115612bee57fe5b02179055507f3b749fd3ed05012aa59143f387db1a9f0ad29515177c5476b7de22989d3d4ffe84604051612c229190614ed3565b60405180910390a15b50505050505050565b6000809054906101000a900473ffffffffffffffffffffffffffffffffffffffff1673ffffffffffffffffffffffffffffffffffffffff163373ffffffffffffffffffffffffffffffffffffffff1614612c8d57600080fd5b600081905060608173ffffffffffffffffffffffffffffffffffffffff16638cba76b1600160009054906101000a900473ffffffffffffffffffffffffffffffffffffffff166040518263ffffffff1660e01b8152600401612cef9190614c4d565b60006040518083038186803b158015612d0757600080fd5b505afa158015612d1b573d6000803e3d6000fd5b505050506040513d6000823e3d601f19601f82011682018060405250810190612d4491906143f2565b9050604051602001612d5590614b34565b6040516020818303038152906040528051906020012081604051602001612d7c9190614b1d565b6040516020818303038152906040528051906020012014612d9c57600080fd5b505050565b6000600c60008473ffffffffffffffffffffffffffffffffffffffff1673ffffffffffffffffffffffffffffffffffffffff16815260200190815260200160002060008381526020019081526020016000205490503373ffffffffffffffffffffffffffffffffffffffff16600860008573ffffffffffffffffffffffffffffffffffffffff1673ffffffffffffffffffffffffffffffffffffffff1681526020019081526020016000208281548110612e5757fe5b906000526020600020906004020160000160019054906101000a900473ffffffffffffffffffffffffffffffffffffffff1673ffffffffffffffffffffffffffffffffffffffff1614612ea957600080fd5b60016005811115612eb657fe5b600860008573ffffffffffffffffffffffffffffffffffffffff1673ffffffffffffffffffffffffffffffffffffffff1681526020019081526020016000208281548110612f0057fe5b906000526020600020906004020160000160009054906101000a900460ff166005811115612f2a57fe5b14612f3457600080fd5b612f3c613ef3565b33816020019073ffffffffffffffffffffffffffffffffffffffff16908173ffffffffffffffffffffffffffffffffffffffff1681525050858160a0018181525050428160c0018181525050848160800181905250600b60003373ffffffffffffffffffffffffffffffffffffffff1673ffffffffffffffffffffffffffffffffffffffff16815260200190815260200160002060008573ffffffffffffffffffffffffffffffffffffffff1673ffffffffffffffffffffffffffffffffffffffff1681526020019081526020016000208190806001815401808255809150506001900390600052602060002090600802016000909190919091506000820151816000019080519060200190613053929190613e73565b5060208201518160010160006101000a81548173ffffffffffffffffffffffffffffffffffffffff021916908373ffffffffffffffffffffffffffffffffffffffff16021790555060408201518160020190805190602001906130b7929190613e73565b5060608201518160030160006101000a81548173ffffffffffffffffffffffffffffffffffffffff021916908373ffffffffffffffffffffffffffffffffffffffff160217905550608082015181600401908051906020019061311b929190613e73565b5060a0820151816005015560c0820151816006015560e0820151816007015550506001600b60003373ffffffffffffffffffffffffffffffffffffffff1673ffffffffffffffffffffffffffffffffffffffff16815260200190815260200160002060008673ffffffffffffffffffffffffffffffffffffffff1673ffffffffffffffffffffffffffffffffffffffff1681526020019081526020016000208054905003600d60003373ffffffffffffffffffffffffffffffffffffffff1673ffffffffffffffffffffffffffffffffffffffff16815260200190815260200160002060008673ffffffffffffffffffffffffffffffffffffffff1673ffffffffffffffffffffffffffffffffffffffff168152602001908152602001600020819055506000600d60003373ffffffffffffffffffffffffffffffffffffffff1673ffffffffffffffffffffffffffffffffffffffff16815260200190815260200160002060008673ffffffffffffffffffffffffffffffffffffffff1673ffffffffffffffffffffffffffffffffffffffff1681526020019081526020016000205490506132cb8533836105b5565b5050505050505050505050565b60011515600460008673ffffffffffffffffffffffffffffffffffffffff1673ffffffffffffffffffffffffffffffffffffffff16815260200190815260200160002060009054906101000a900460ff1615151461333557600080fd5b61333e84613a04565b6001600560008873ffffffffffffffffffffffffffffffffffffffff1673ffffffffffffffffffffffffffffffffffffffff16815260200190815260200160002060006101000a81548160ff02191690831515021790555061339e613fbc565b87816000018190525086816020019073ffffffffffffffffffffffffffffffffffffffff16908173ffffffffffffffffffffffffffffffffffffffff168152505085816040018190525084816060019073ffffffffffffffffffffffffffffffffffffffff16908173ffffffffffffffffffffffffffffffffffffffff1681525050838160800181905250828160a00181905250818160c0018190525060038190806001815401808255809150506001900390600052602060002090600702016000909190919091506000820151816000019080519060200190613483929190613e73565b5060208201518160010160006101000a81548173ffffffffffffffffffffffffffffffffffffffff021916908373ffffffffffffffffffffffffffffffffffffffff16021790555060408201518160020190805190602001906134e7929190613e73565b5060608201518160030160006101000a81548173ffffffffffffffffffffffffffffffffffffffff021916908373ffffffffffffffffffffffffffffffffffffffff160217905550608082015181600401908051906020019061354b929190613e73565b5060a0820151816005019080519060200190613568929190613e73565b5060c0820151816006019080519060200190613585929190613e73565b505050600760008673ffffffffffffffffffffffffffffffffffffffff1673ffffffffffffffffffffffffffffffffffffffff168152602001908152602001600020879080600181540180825580915050600190039060005260206000200160009091909190916101000a81548173ffffffffffffffffffffffffffffffffffffffff021916908373ffffffffffffffffffffffffffffffffffffffff1602179055505050505050505050565b6003818154811061363f57fe5b9060005260206000209060070201600091509050806000018054600181600116156101000203166002900480601f0160208091040260200160405190810160405280929190818152602001828054600181600116156101000203166002900480156136eb5780601f106136c0576101008083540402835291602001916136eb565b820191906000526020600020905b8154815290600101906020018083116136ce57829003601f168201915b5050505050908060010160009054906101000a900473ffffffffffffffffffffffffffffffffffffffff1690806002018054600181600116156101000203166002900480601f0160208091040260200160405190810160405280929190818152602001828054600181600116156101000203166002900480156137af5780601f10613784576101008083540402835291602001916137af565b820191906000526020600020905b81548152906001019060200180831161379257829003601f168201915b5050505050908060030160009054906101000a900473ffffffffffffffffffffffffffffffffffffffff1690806004018054600181600116156101000203166002900480601f0160208091040260200160405190810160405280929190818152602001828054600181600116156101000203166002900480156138735780601f1061384857610100808354040283529160200191613873565b820191906000526020600020905b81548152906001019060200180831161385657829003601f168201915b505050505090806005018054600181600116156101000203166002900480601f0160208091040260200160405190810160405280929190818152602001828054600181600116156101000203166002900480156139115780601f106138e657610100808354040283529160200191613911565b820191906000526020600020905b8154815290600101906020018083116138f457829003601f168201915b505050505090806006018054600181600116156101000203166002900480601f0160208091040260200160405190810160405280929190818152602001828054600181600116156101000203166002900480156139af5780601f10613984576101008083540402835291602001916139af565b820191906000526020600020905b81548152906001019060200180831161399257829003601f168201915b5050505050905087565b600760205281600052604060002081815481106139d257fe5b906000526020600020016000915091509054906101000a900473ffffffffffffffffffffffffffffffffffffffff1681565b60011515600460008373ffffffffffffffffffffffffffffffffffffffff1673ffffffffffffffffffffffffffffffffffffffff16815260200190815260200160002060009054906101000a900460ff16151514613a6157600080fd5b600081905060608173ffffffffffffffffffffffffffffffffffffffff16638cba76b1600160009054906101000a900473ffffffffffffffffffffffffffffffffffffffff166040518263ffffffff1660e01b8152600401613ac39190614bcb565b60006040518083038186803b158015613adb57600080fd5b505afa158015613aef573d6000803e3d6000fd5b505050506040513d6000823e3d601f19601f82011682018060405250810190613b1891906143f2565b9050604051602001613b2990614b34565b6040516020818303038152906040528051906020012081604051602001613b509190614b1d565b6040516020818303038152906040528051906020012014613b7057600080fd5b505050565b600d602052816000526040600020602052806000526040600020600091509150505481565b600b6020528260005260406000206020528160005260406000208181548110613bbf57fe5b90600052602060002090600802016000925092505050806000018054600181600116156101000203166002900480601f016020809104026020016040519081016040528092919081815260200182805460018160011615610100020316600290048015613c6d5780601f10613c4257610100808354040283529160200191613c6d565b820191906000526020600020905b815481529060010190602001808311613c5057829003601f168201915b5050505050908060010160009054906101000a900473ffffffffffffffffffffffffffffffffffffffff1690806002018054600181600116156101000203166002900480601f016020809104026020016040519081016040528092919081815260200182805460018160011615610100020316600290048015613d315780601f10613d0657610100808354040283529160200191613d31565b820191906000526020600020905b815481529060010190602001808311613d1457829003601f168201915b5050505050908060030160009054906101000a900473ffffffffffffffffffffffffffffffffffffffff1690806004018054600181600116156101000203166002900480601f016020809104026020016040519081016040528092919081815260200182805460018160011615610100020316600290048015613df55780601f10613dca57610100808354040283529160200191613df5565b820191906000526020600020905b815481529060010190602001808311613dd857829003601f168201915b5050505050908060050154908060060154908060070154905088565b6040518060c0016040528060608152602001600073ffffffffffffffffffffffffffffffffffffffff16815260200160608152602001600073ffffffffffffffffffffffffffffffffffffffff16815260200160608152602001606081525090565b828054600181600116156101000203166002900490600052602060002090601f016020900481019282601f10613eb457805160ff1916838001178555613ee2565b82800160010185558215613ee2579182015b82811115613ee1578251825591602001919060010190613ec6565b5b509050613eef9190614025565b5090565b60405180610100016040528060608152602001600073ffffffffffffffffffffffffffffffffffffffff16815260200160608152602001600073ffffffffffffffffffffffffffffffffffffffff168152602001606081526020016000801916815260200160008152602001600081525090565b6040518060a0016040528060006005811115613f7f57fe5b8152602001600073ffffffffffffffffffffffffffffffffffffffff16815260200160008152602001600080191681526020016000151581525090565b6040518060e0016040528060608152602001600073ffffffffffffffffffffffffffffffffffffffff16815260200160608152602001600073ffffffffffffffffffffffffffffffffffffffff1681526020016060815260200160608152602001606081525090565b61404791905b8082111561404357600081600090555060010161402b565b5090565b90565b6000813590506140598161510f565b92915050565b60008135905061406e81615126565b92915050565b6000813590506140838161513d565b92915050565b600082601f83011261409a57600080fd5b81356140ad6140a882614fa5565b614f78565b915080825260208301602083018583830111156140c957600080fd5b6140d48382846150a5565b50505092915050565b600082601f8301126140ee57600080fd5b81516141016140fc82614fa5565b614f78565b9150808252602083016020830185838301111561411d57600080fd5b6141288382846150b4565b50505092915050565b60008135905061414081615154565b92915050565b60006020828403121561415857600080fd5b60006141668482850161404a565b91505092915050565b6000806040838503121561418257600080fd5b60006141908582860161404a565b92505060206141a18582860161404a565b9150509250929050565b6000806000606084860312156141c057600080fd5b60006141ce8682870161404a565b93505060206141df8682870161404a565b92505060406141f086828701614131565b9150509250925092565b6000806040838503121561420d57600080fd5b600061421b8582860161404a565b925050602061422c85828601614131565b9150509250929050565b60008060006060848603121561424b57600080fd5b60006142598682870161405f565b935050602061426a8682870161404a565b925050604061427b86828701614131565b9150509250925092565b600080600080600060a0868803121561429d57600080fd5b60006142ab8882890161405f565b95505060206142bc88828901614074565b945050604086013567ffffffffffffffff8111156142d957600080fd5b6142e588828901614089565b93505060606142f68882890161404a565b925050608061430788828901614131565b9150509295509295909350565b6000806000806080858703121561432a57600080fd5b600061433887828801614074565b94505060206143498782880161404a565b935050604061435a8782880161404a565b925050606061436b87828801614131565b91505092959194509250565b6000806000806080858703121561438d57600080fd5b600061439b87828801614074565b945050602085013567ffffffffffffffff8111156143b857600080fd5b6143c487828801614089565b93505060406143d58782880161404a565b92505060606143e687828801614131565b91505092959194509250565b60006020828403121561440457600080fd5b600082015167ffffffffffffffff81111561441e57600080fd5b61442a848285016140dd565b91505092915050565b600080600080600080600060e0888a03121561444e57600080fd5b600088013567ffffffffffffffff81111561446857600080fd5b6144748a828b01614089565b97505060206144858a828b0161404a565b965050604088013567ffffffffffffffff8111156144a257600080fd5b6144ae8a828b01614089565b95505060606144bf8a828b0161404a565b945050608088013567ffffffffffffffff8111156144dc57600080fd5b6144e88a828b01614089565b93505060a06144f98a828b01614074565b92505060c061450a8a828b01614131565b91505092959891949750929550565b60008060008060008060c0878903121561453257600080fd5b600087013567ffffffffffffffff81111561454c57600080fd5b61455889828a01614089565b965050602061456989828a0161404a565b955050604087013567ffffffffffffffff81111561458657600080fd5b61459289828a01614089565b94505060606145a389828a0161404a565b935050608087013567ffffffffffffffff8111156145c057600080fd5b6145cc89828a01614089565b92505060a087013567ffffffffffffffff8111156145e957600080fd5b6145f589828a01614089565b9150509295509295509295565b600080600080600080600060e0888a03121561461d57600080fd5b600088013567ffffffffffffffff81111561463757600080fd5b6146438a828b01614089565b97505060206146548a828b0161404a565b965050604088013567ffffffffffffffff81111561467157600080fd5b61467d8a828b01614089565b955050606061468e8a828b0161404a565b945050608088013567ffffffffffffffff8111156146ab57600080fd5b6146b78a828b01614089565b93505060a088013567ffffffffffffffff8111156146d457600080fd5b6146e08a828b01614089565b92505060c088013567ffffffffffffffff8111156146fd57600080fd5b6147098a828b01614089565b91505092959891949750929550565b60006020828403121561472a57600080fd5b600061473884828501614131565b91505092915050565b61474a8161505d565b82525050565b61475981614ff8565b82525050565b6147688161500a565b82525050565b61477781615016565b82525050565b61478e61478982615016565b6150e7565b82525050565b61479d8161506f565b82525050565b60006147ae82614fd1565b6147b88185614fdc565b93506147c88185602086016150b4565b6147d1816150f1565b840191505092915050565b60006147e782614fd1565b6147f18185614fed565b93506148018185602086016150b4565b80840191505092915050565b600061481a601083614fdc565b91507f4d656469614365727469666963617465000000000000000000000000000000006000830152602082019050919050565b600061485a601c83614fdc565b91507f5065726d697373696f6e2044656e69656420746f2061646472657373000000006000830152602082019050919050565b600061489a601283614fdc565b91507f4661696c7572652041747465737465643a2000000000000000000000000000006000830152602082019050919050565b60006148da600f83614fdc565b91507f4a6f7572436572746966696361746500000000000000000000000000000000006000830152602082019050919050565b600061491a600583614fdc565b91507f69734e43430000000000000000000000000000000000000000000000000000006000830152602082019050919050565b600061495a600683614fdc565b91507f69734a6f757200000000000000000000000000000000000000000000000000006000830152602082019050919050565b600061499a600783614fdc565b91507f69734d65646961000000000000000000000000000000000000000000000000006000830152602082019050919050565b60006149da600383614fed565b91507f59657300000000000000000000000000000000000000000000000000000000006000830152600382019050919050565b6000614a1a600b83614fdc565b91507f63657274696669636174650000000000000000000000000000000000000000006000830152602082019050919050565b6000614a5a602f83614fdc565b91507f5065726d697373696f6e2068617320616c7265616479206265656e204772616e60008301527f74656420746f20616464726573732000000000000000000000000000000000006020830152604082019050919050565b6000614ac0601783614fdc565b91507f5375636365737366756c6c792041747465737465643a200000000000000000006000830152602082019050919050565b614afc81615053565b82525050565b6000614b0e828461477d565b60208201915081905092915050565b6000614b2982846147dc565b915081905092915050565b6000614b3f826149cd565b9150819050919050565b6000602082019050614b5e6000830184614750565b92915050565b6000602082019050614b796000830184614741565b92915050565b6000608082019050614b946000830187614750565b614ba1602083018661476e565b614bae6040830185614af3565b8181036060830152614bc081846147a3565b905095945050505050565b6000606082019050614be06000830184614750565b8181036020830152614bf18161480d565b90508181036040830152614c048161498d565b905092915050565b6000606082019050614c216000830184614750565b8181036020830152614c32816148cd565b90508181036040830152614c458161494d565b905092915050565b6000606082019050614c626000830184614750565b8181036020830152614c7381614a0d565b90508181036040830152614c868161490d565b905092915050565b600060a082019050614ca36000830188614794565b614cb06020830187614750565b614cbd6040830186614af3565b614cca606083018561476e565b614cd7608083018461475f565b9695505050505050565b60006020820190508181036000830152614cfb81846147a3565b905092915050565b6000610100820190508181036000830152614d1e818b6147a3565b9050614d2d602083018a614750565b8181036040830152614d3f81896147a3565b9050614d4e6060830188614750565b8181036080830152614d6081876147a3565b9050614d6f60a083018661476e565b614d7c60c0830185614af3565b614d8960e0830184614af3565b9998505050505050505050565b600060c0820190508181036000830152614db081896147a3565b9050614dbf6020830188614750565b8181036040830152614dd181876147a3565b9050614de06060830186614750565b8181036080830152614df281856147a3565b905081810360a0830152614e0681846147a3565b9050979650505050505050565b600060e0820190508181036000830152614e2d818a6147a3565b9050614e3c6020830189614750565b8181036040830152614e4e81886147a3565b9050614e5d6060830187614750565b8181036080830152614e6f81866147a3565b905081810360a0830152614e8381856147a3565b905081810360c0830152614e9781846147a3565b905098975050505050505050565b60006040820190508181036000830152614ebe8161484d565b9050614ecd6020830184614750565b92915050565b60006040820190508181036000830152614eec8161488d565b9050614efb6020830184614750565b92915050565b60006040820190508181036000830152614f1a81614a4d565b9050614f296020830184614750565b92915050565b60006040820190508181036000830152614f4881614ab3565b9050614f576020830184614750565b92915050565b6000602082019050614f726000830184614af3565b92915050565b6000604051905081810181811067ffffffffffffffff82111715614f9b57600080fd5b8060405250919050565b600067ffffffffffffffff821115614fbc57600080fd5b601f19601f8301169050602081019050919050565b600081519050919050565b600082825260208201905092915050565b600081905092915050565b600061500382615033565b9050919050565b60008115159050919050565b6000819050919050565b600081905061502e82615102565b919050565b600073ffffffffffffffffffffffffffffffffffffffff82169050919050565b6000819050919050565b600061506882615081565b9050919050565b600061507a82615020565b9050919050565b600061508c82615093565b9050919050565b600061509e82615033565b9050919050565b82818337600083830152505050565b60005b838110156150d25780820151818401526020810190506150b7565b838111156150e1576000848401525b50505050565b6000819050919050565b6000601f19601f8301169050919050565b6006811061510c57fe5b50565b61511881614ff8565b811461512357600080fd5b50565b61512f8161500a565b811461513a57600080fd5b50565b61514681615016565b811461515157600080fd5b50565b61515d81615053565b811461516857600080fd5b5056fea264697066735822122088e9c0525eeedb933e6689f21ac53847f6c610726160dbfcc08df9f6e057ea7364736f6c63430006060033","opcodes":"PUSH1 0x80 PUSH1 0x40 MSTORE PUSH20 0x82671B9D3ABAA76277D5B38167B09646C2C32D94 PUSH1 0x1 PUSH1 0x0 PUSH2 0x100 EXP DUP2 SLOAD DUP2 PUSH20 0xFFFFFFFFFFFFFFFFFFFFFFFFFFFFFFFFFFFFFFFF MUL NOT AND SWAP1 DUP4 PUSH20 0xFFFFFFFFFFFFFFFFFFFFFFFFFFFFFFFFFFFFFFFF AND MUL OR SWAP1 SSTORE POP CALLVALUE DUP1 ISZERO PUSH2 0x65 JUMPI PUSH1 0x0 DUP1 REVERT JUMPDEST POP CALLER PUSH1 0x0 DUP1 PUSH2 0x100 EXP DUP2 SLOAD DUP2 PUSH20 0xFFFFFFFFFFFFFFFFFFFFFFFFFFFFFFFFFFFFFFFF MUL NOT AND SWAP1 DUP4 PUSH20 0xFFFFFFFFFFFFFFFFFFFFFFFFFFFFFFFFFFFFFFFF AND MUL OR SWAP1 SSTORE POP PUSH2 0x51A1 DUP1 PUSH2 0xB5 PUSH1 0x0 CODECOPY PUSH1 0x0 RETURN INVALID PUSH1 0x80 PUSH1 0x40 MSTORE CALLVALUE DUP1 ISZERO PUSH2 0x10 JUMPI PUSH1 0x0 DUP1 REVERT JUMPDEST POP PUSH1 0x4 CALLDATASIZE LT PUSH2 0x18E JUMPI PUSH1 0x0 CALLDATALOAD PUSH1 0xE0 SHR DUP1 PUSH4 0x977D5084 GT PUSH2 0xDE JUMPI DUP1 PUSH4 0xB7E06216 GT PUSH2 0x97 JUMPI DUP1 PUSH4 0xEF536E4F GT PUSH2 0x71 JUMPI DUP1 PUSH4 0xEF536E4F EQ PUSH2 0x502 JUMPI DUP1 PUSH4 0xF0B2C594 EQ PUSH2 0x532 JUMPI DUP1 PUSH4 0xF29326A4 EQ PUSH2 0x54E JUMPI DUP1 PUSH4 0xFBCF9575 EQ PUSH2 0x57E JUMPI PUSH2 0x18E JUMP JUMPDEST DUP1 PUSH4 0xB7E06216 EQ PUSH2 0x494 JUMPI DUP1 PUSH4 0xDB76CB07 EQ PUSH2 0x4B0 JUMPI DUP1 PUSH4 0xE8AD308D EQ PUSH2 0x4CC JUMPI PUSH2 0x18E JUMP JUMPDEST DUP1 PUSH4 0x977D5084 EQ PUSH2 0x38A JUMPI DUP1 PUSH4 0x995975D8 EQ PUSH2 0x3BA JUMPI DUP1 PUSH4 0xA32F69C0 EQ PUSH2 0x3EE JUMPI DUP1 PUSH4 0xA6B43ACA EQ PUSH2 0x425 JUMPI DUP1 PUSH4 0xA9588EDA EQ PUSH2 0x45C JUMPI DUP1 PUSH4 0xB30485FC EQ PUSH2 0x478 JUMPI PUSH2 0x18E JUMP JUMPDEST DUP1 PUSH4 0x2A4F0C98 GT PUSH2 0x14B JUMPI DUP1 PUSH4 0x532A1BD2 GT PUSH2 0x125 JUMPI DUP1 PUSH4 0x532A1BD2 EQ PUSH2 0x2EB JUMPI DUP1 PUSH4 0x681BCF09 EQ PUSH2 0x322 JUMPI DUP1 PUSH4 0x86FB1FF5 EQ PUSH2 0x33E JUMPI DUP1 PUSH4 0x8D449861 EQ PUSH2 0x36E JUMPI PUSH2 0x18E JUMP JUMPDEST DUP1 PUSH4 0x2A4F0C98 EQ PUSH2 0x283 JUMPI DUP1 PUSH4 0x3101C146 EQ PUSH2 0x29F JUMPI DUP1 PUSH4 0x4ADFD36B EQ PUSH2 0x2BB JUMPI PUSH2 0x18E JUMP JUMPDEST DUP1 PUSH4 0xAB2039F EQ PUSH2 0x193 JUMPI DUP1 PUSH4 0xB3CC3E6 EQ PUSH2 0x1C6 JUMPI DUP1 PUSH4 0x108246F0 EQ PUSH2 0x1F6 JUMPI DUP1 PUSH4 0x156836E3 EQ PUSH2 0x214 JUMPI DUP1 PUSH4 0x25222946 EQ PUSH2 0x230 JUMPI DUP1 PUSH4 0x253245B5 EQ PUSH2 0x265 JUMPI JUMPDEST PUSH1 0x0 DUP1 REVERT JUMPDEST PUSH2 0x1AD PUSH1 0x4 DUP1 CALLDATASIZE SUB DUP2 ADD SWAP1 PUSH2 0x1A8 SWAP2 SWAP1 PUSH2 0x41AB JUMP JUMPDEST PUSH2 0x5B5 JUMP JUMPDEST PUSH1 0x40 MLOAD PUSH2 0x1BD SWAP5 SWAP4 SWAP3 SWAP2 SWAP1 PUSH2 0x4B7F JUMP JUMPDEST PUSH1 0x40 MLOAD DUP1 SWAP2 SUB SWAP1 RETURN JUMPDEST PUSH2 0x1E0 PUSH1 0x4 DUP1 CALLDATASIZE SUB DUP2 ADD SWAP1 PUSH2 0x1DB SWAP2 SWAP1 PUSH2 0x4146 JUMP JUMPDEST PUSH2 0x8EC JUMP JUMPDEST PUSH1 0x40 MLOAD PUSH2 0x1ED SWAP2 SWAP1 PUSH2 0x4F5D JUMP JUMPDEST PUSH1 0x40 MLOAD DUP1 SWAP2 SUB SWAP1 RETURN JUMPDEST PUSH2 0x1FE PUSH2 0x938 JUMP JUMPDEST PUSH1 0x40 MLOAD PUSH2 0x20B SWAP2 SWAP1 PUSH2 0x4B49 JUMP JUMPDEST PUSH1 0x40 MLOAD DUP1 SWAP2 SUB SWAP1 RETURN JUMPDEST PUSH2 0x22E PUSH1 0x4 DUP1 CALLDATASIZE SUB DUP2 ADD SWAP1 PUSH2 0x229 SWAP2 SWAP1 PUSH2 0x416F JUMP JUMPDEST PUSH2 0x95E JUMP JUMPDEST STOP JUMPDEST PUSH2 0x24A PUSH1 0x4 DUP1 CALLDATASIZE SUB DUP2 ADD SWAP1 PUSH2 0x245 SWAP2 SWAP1 PUSH2 0x4718 JUMP JUMPDEST PUSH2 0xAAE JUMP JUMPDEST PUSH1 0x40 MLOAD PUSH2 0x25C SWAP7 SWAP6 SWAP5 SWAP4 SWAP3 SWAP2 SWAP1 PUSH2 0x4D96 JUMP JUMPDEST PUSH1 0x40 MLOAD DUP1 SWAP2 SUB SWAP1 RETURN JUMPDEST PUSH2 0x26D PUSH2 0xD97 JUMP JUMPDEST PUSH1 0x40 MLOAD PUSH2 0x27A SWAP2 SWAP1 PUSH2 0x4F5D JUMP JUMPDEST PUSH1 0x40 MLOAD DUP1 SWAP2 SUB SWAP1 RETURN JUMPDEST PUSH2 0x29D PUSH1 0x4 DUP1 CALLDATASIZE SUB DUP2 ADD SWAP1 PUSH2 0x298 SWAP2 SWAP1 PUSH2 0x4519 JUMP JUMPDEST PUSH2 0xDA4 JUMP JUMPDEST STOP JUMPDEST PUSH2 0x2B9 PUSH1 0x4 DUP1 CALLDATASIZE SUB DUP2 ADD SWAP1 PUSH2 0x2B4 SWAP2 SWAP1 PUSH2 0x4433 JUMP JUMPDEST PUSH2 0x1054 JUMP JUMPDEST STOP JUMPDEST PUSH2 0x2D5 PUSH1 0x4 DUP1 CALLDATASIZE SUB DUP2 ADD SWAP1 PUSH2 0x2D0 SWAP2 SWAP1 PUSH2 0x41FA JUMP JUMPDEST PUSH2 0x1313 JUMP JUMPDEST PUSH1 0x40 MLOAD PUSH2 0x2E2 SWAP2 SWAP1 PUSH2 0x4F5D JUMP JUMPDEST PUSH1 0x40 MLOAD DUP1 SWAP2 SUB SWAP1 RETURN JUMPDEST PUSH2 0x305 PUSH1 0x4 DUP1 CALLDATASIZE SUB DUP2 ADD SWAP1 PUSH2 0x300 SWAP2 SWAP1 PUSH2 0x41AB JUMP JUMPDEST PUSH2 0x1338 JUMP JUMPDEST PUSH1 0x40 MLOAD PUSH2 0x319 SWAP9 SWAP8 SWAP7 SWAP6 SWAP5 SWAP4 SWAP3 SWAP2 SWAP1 PUSH2 0x4D03 JUMP JUMPDEST PUSH1 0x40 MLOAD DUP1 SWAP2 SUB SWAP1 RETURN JUMPDEST PUSH2 0x33C PUSH1 0x4 DUP1 CALLDATASIZE SUB DUP2 ADD SWAP1 PUSH2 0x337 SWAP2 SWAP1 PUSH2 0x4236 JUMP JUMPDEST PUSH2 0x15AF JUMP JUMPDEST STOP JUMPDEST PUSH2 0x358 PUSH1 0x4 DUP1 CALLDATASIZE SUB DUP2 ADD SWAP1 PUSH2 0x353 SWAP2 SWAP1 PUSH2 0x4314 JUMP JUMPDEST PUSH2 0x19A5 JUMP JUMPDEST PUSH1 0x40 MLOAD PUSH2 0x365 SWAP2 SWAP1 PUSH2 0x4CE1 JUMP JUMPDEST PUSH1 0x40 MLOAD DUP1 SWAP2 SUB SWAP1 RETURN JUMPDEST PUSH2 0x388 PUSH1 0x4 DUP1 CALLDATASIZE SUB DUP2 ADD SWAP1 PUSH2 0x383 SWAP2 SWAP1 PUSH2 0x41FA JUMP JUMPDEST PUSH2 0x1B11 JUMP JUMPDEST STOP JUMPDEST PUSH2 0x3A4 PUSH1 0x4 DUP1 CALLDATASIZE SUB DUP2 ADD SWAP1 PUSH2 0x39F SWAP2 SWAP1 PUSH2 0x41FA JUMP JUMPDEST PUSH2 0x1DAD JUMP JUMPDEST PUSH1 0x40 MLOAD PUSH2 0x3B1 SWAP2 SWAP1 PUSH2 0x4F5D JUMP JUMPDEST PUSH1 0x40 MLOAD DUP1 SWAP2 SUB SWAP1 RETURN JUMPDEST PUSH2 0x3D4 PUSH1 0x4 DUP1 CALLDATASIZE SUB DUP2 ADD SWAP1 PUSH2 0x3CF SWAP2 SWAP1 PUSH2 0x41FA JUMP JUMPDEST PUSH2 0x1DD2 JUMP JUMPDEST PUSH1 0x40 MLOAD PUSH2 0x3E5 SWAP6 SWAP5 SWAP4 SWAP3 SWAP2 SWAP1 PUSH2 0x4C8E JUMP JUMPDEST PUSH1 0x40 MLOAD DUP1 SWAP2 SUB SWAP1 RETURN JUMPDEST PUSH2 0x408 PUSH1 0x4 DUP1 CALLDATASIZE SUB DUP2 ADD SWAP1 PUSH2 0x403 SWAP2 SWAP1 PUSH2 0x41AB JUMP JUMPDEST PUSH2 0x1E5C JUMP JUMPDEST PUSH1 0x40 MLOAD PUSH2 0x41C SWAP9 SWAP8 SWAP7 SWAP6 SWAP5 SWAP4 SWAP3 SWAP2 SWAP1 PUSH2 0x4D03 JUMP JUMPDEST PUSH1 0x40 MLOAD DUP1 SWAP2 SUB SWAP1 RETURN JUMPDEST PUSH2 0x43F PUSH1 0x4 DUP1 CALLDATASIZE SUB DUP2 ADD SWAP1 PUSH2 0x43A SWAP2 SWAP1 PUSH2 0x41AB JUMP JUMPDEST PUSH2 0x20D3 JUMP JUMPDEST PUSH1 0x40 MLOAD PUSH2 0x453 SWAP9 SWAP8 SWAP7 SWAP6 SWAP5 SWAP4 SWAP3 SWAP2 SWAP1 PUSH2 0x4D03 JUMP JUMPDEST PUSH1 0x40 MLOAD DUP1 SWAP2 SUB SWAP1 RETURN JUMPDEST PUSH2 0x476 PUSH1 0x4 DUP1 CALLDATASIZE SUB DUP2 ADD SWAP1 PUSH2 0x471 SWAP2 SWAP1 PUSH2 0x4285 JUMP JUMPDEST PUSH2 0x234A JUMP JUMPDEST STOP JUMPDEST PUSH2 0x492 PUSH1 0x4 DUP1 CALLDATASIZE SUB DUP2 ADD SWAP1 PUSH2 0x48D SWAP2 SWAP1 PUSH2 0x4146 JUMP JUMPDEST PUSH2 0x2C34 JUMP JUMPDEST STOP JUMPDEST PUSH2 0x4AE PUSH1 0x4 DUP1 CALLDATASIZE SUB DUP2 ADD SWAP1 PUSH2 0x4A9 SWAP2 SWAP1 PUSH2 0x4377 JUMP JUMPDEST PUSH2 0x2DA1 JUMP JUMPDEST STOP JUMPDEST PUSH2 0x4CA PUSH1 0x4 DUP1 CALLDATASIZE SUB DUP2 ADD SWAP1 PUSH2 0x4C5 SWAP2 SWAP1 PUSH2 0x4602 JUMP JUMPDEST PUSH2 0x32D8 JUMP JUMPDEST STOP JUMPDEST PUSH2 0x4E6 PUSH1 0x4 DUP1 CALLDATASIZE SUB DUP2 ADD SWAP1 PUSH2 0x4E1 SWAP2 SWAP1 PUSH2 0x4718 JUMP JUMPDEST PUSH2 0x3632 JUMP JUMPDEST PUSH1 0x40 MLOAD PUSH2 0x4F9 SWAP8 SWAP7 SWAP6 SWAP5 SWAP4 SWAP3 SWAP2 SWAP1 PUSH2 0x4E13 JUMP JUMPDEST PUSH1 0x40 MLOAD DUP1 SWAP2 SUB SWAP1 RETURN JUMPDEST PUSH2 0x51C PUSH1 0x4 DUP1 CALLDATASIZE SUB DUP2 ADD SWAP1 PUSH2 0x517 SWAP2 SWAP1 PUSH2 0x41FA JUMP JUMPDEST PUSH2 0x39B9 JUMP JUMPDEST PUSH1 0x40 MLOAD PUSH2 0x529 SWAP2 SWAP1 PUSH2 0x4B49 JUMP JUMPDEST PUSH1 0x40 MLOAD DUP1 SWAP2 SUB SWAP1 RETURN JUMPDEST PUSH2 0x54C PUSH1 0x4 DUP1 CALLDATASIZE SUB DUP2 ADD SWAP1 PUSH2 0x547 SWAP2 SWAP1 PUSH2 0x4146 JUMP JUMPDEST PUSH2 0x3A04 JUMP JUMPDEST STOP JUMPDEST PUSH2 0x568 PUSH1 0x4 DUP1 CALLDATASIZE SUB DUP2 ADD SWAP1 PUSH2 0x563 SWAP2 SWAP1 PUSH2 0x416F JUMP JUMPDEST PUSH2 0x3B75 JUMP JUMPDEST PUSH1 0x40 MLOAD PUSH2 0x575 SWAP2 SWAP1 PUSH2 0x4F5D JUMP JUMPDEST PUSH1 0x40 MLOAD DUP1 SWAP2 SUB SWAP1 RETURN JUMPDEST PUSH2 0x598 PUSH1 0x4 DUP1 CALLDATASIZE SUB DUP2 ADD SWAP1 PUSH2 0x593 SWAP2 SWAP1 PUSH2 0x41AB JUMP JUMPDEST PUSH2 0x3B9A JUMP JUMPDEST PUSH1 0x40 MLOAD PUSH2 0x5AC SWAP9 SWAP8 SWAP7 SWAP6 SWAP5 SWAP4 SWAP3 SWAP2 SWAP1 PUSH2 0x4D03 JUMP JUMPDEST PUSH1 0x40 MLOAD DUP1 SWAP2 SUB SWAP1 RETURN JUMPDEST PUSH1 0x0 DUP1 PUSH1 0x0 PUSH1 0x60 PUSH1 0xB PUSH1 0x0 DUP8 PUSH20 0xFFFFFFFFFFFFFFFFFFFFFFFFFFFFFFFFFFFFFFFF AND PUSH20 0xFFFFFFFFFFFFFFFFFFFFFFFFFFFFFFFFFFFFFFFF AND DUP2 MSTORE PUSH1 0x20 ADD SWAP1 DUP2 MSTORE PUSH1 0x20 ADD PUSH1 0x0 KECCAK256 PUSH1 0x0 DUP9 PUSH20 0xFFFFFFFFFFFFFFFFFFFFFFFFFFFFFFFFFFFFFFFF AND PUSH20 0xFFFFFFFFFFFFFFFFFFFFFFFFFFFFFFFFFFFFFFFF AND DUP2 MSTORE PUSH1 0x20 ADD SWAP1 DUP2 MSTORE PUSH1 0x20 ADD PUSH1 0x0 KECCAK256 DUP6 DUP2 SLOAD DUP2 LT PUSH2 0x643 JUMPI INVALID JUMPDEST SWAP1 PUSH1 0x0 MSTORE PUSH1 0x20 PUSH1 0x0 KECCAK256 SWAP1 PUSH1 0x8 MUL ADD PUSH1 0x1 ADD PUSH1 0x0 SWAP1 SLOAD SWAP1 PUSH2 0x100 EXP SWAP1 DIV PUSH20 0xFFFFFFFFFFFFFFFFFFFFFFFFFFFFFFFFFFFFFFFF AND PUSH1 0xB PUSH1 0x0 DUP9 PUSH20 0xFFFFFFFFFFFFFFFFFFFFFFFFFFFFFFFFFFFFFFFF AND PUSH20 0xFFFFFFFFFFFFFFFFFFFFFFFFFFFFFFFFFFFFFFFF AND DUP2 MSTORE PUSH1 0x20 ADD SWAP1 DUP2 MSTORE PUSH1 0x20 ADD PUSH1 0x0 KECCAK256 PUSH1 0x0 DUP10 PUSH20 0xFFFFFFFFFFFFFFFFFFFFFFFFFFFFFFFFFFFFFFFF AND PUSH20 0xFFFFFFFFFFFFFFFFFFFFFFFFFFFFFFFFFFFFFFFF AND DUP2 MSTORE PUSH1 0x20 ADD SWAP1 DUP2 MSTORE PUSH1 0x20 ADD PUSH1 0x0 KECCAK256 DUP7 DUP2 SLOAD DUP2 LT PUSH2 0x6FC JUMPI INVALID JUMPDEST SWAP1 PUSH1 0x0 MSTORE PUSH1 0x20 PUSH1 0x0 KECCAK256 SWAP1 PUSH1 0x8 MUL ADD PUSH1 0x5 ADD SLOAD PUSH1 0xB PUSH1 0x0 DUP10 PUSH20 0xFFFFFFFFFFFFFFFFFFFFFFFFFFFFFFFFFFFFFFFF AND PUSH20 0xFFFFFFFFFFFFFFFFFFFFFFFFFFFFFFFFFFFFFFFF AND DUP2 MSTORE PUSH1 0x20 ADD SWAP1 DUP2 MSTORE PUSH1 0x20 ADD PUSH1 0x0 KECCAK256 PUSH1 0x0 DUP11 PUSH20 0xFFFFFFFFFFFFFFFFFFFFFFFFFFFFFFFFFFFFFFFF AND PUSH20 0xFFFFFFFFFFFFFFFFFFFFFFFFFFFFFFFFFFFFFFFF AND DUP2 MSTORE PUSH1 0x20 ADD SWAP1 DUP2 MSTORE PUSH1 0x20 ADD PUSH1 0x0 KECCAK256 DUP8 DUP2 SLOAD DUP2 LT PUSH2 0x795 JUMPI INVALID JUMPDEST SWAP1 PUSH1 0x0 MSTORE PUSH1 0x20 PUSH1 0x0 KECCAK256 SWAP1 PUSH1 0x8 MUL ADD PUSH1 0x6 ADD SLOAD PUSH1 0xB PUSH1 0x0 DUP11 PUSH20 0xFFFFFFFFFFFFFFFFFFFFFFFFFFFFFFFFFFFFFFFF AND PUSH20 0xFFFFFFFFFFFFFFFFFFFFFFFFFFFFFFFFFFFFFFFF AND DUP2 MSTORE PUSH1 0x20 ADD SWAP1 DUP2 MSTORE PUSH1 0x20 ADD PUSH1 0x0 KECCAK256 PUSH1 0x0 DUP12 PUSH20 0xFFFFFFFFFFFFFFFFFFFFFFFFFFFFFFFFFFFFFFFF AND PUSH20 0xFFFFFFFFFFFFFFFFFFFFFFFFFFFFFFFFFFFFFFFF AND DUP2 MSTORE PUSH1 0x20 ADD SWAP1 DUP2 MSTORE PUSH1 0x20 ADD PUSH1 0x0 KECCAK256 DUP9 DUP2 SLOAD DUP2 LT PUSH2 0x82E JUMPI INVALID JUMPDEST SWAP1 PUSH1 0x0 MSTORE PUSH1 0x20 PUSH1 0x0 KECCAK256 SWAP1 PUSH1 0x8 MUL ADD PUSH1 0x4 ADD DUP1 DUP1 SLOAD PUSH1 0x1 DUP2 PUSH1 0x1 AND ISZERO PUSH2 0x100 MUL SUB AND PUSH1 0x2 SWAP1 DIV DUP1 PUSH1 0x1F ADD PUSH1 0x20 DUP1 SWAP2 DIV MUL PUSH1 0x20 ADD PUSH1 0x40 MLOAD SWAP1 DUP2 ADD PUSH1 0x40 MSTORE DUP1 SWAP3 SWAP2 SWAP1 DUP2 DUP2 MSTORE PUSH1 0x20 ADD DUP3 DUP1 SLOAD PUSH1 0x1 DUP2 PUSH1 0x1 AND ISZERO PUSH2 0x100 MUL SUB AND PUSH1 0x2 SWAP1 DIV DUP1 ISZERO PUSH2 0x8D4 JUMPI DUP1 PUSH1 0x1F LT PUSH2 0x8A9 JUMPI PUSH2 0x100 DUP1 DUP4 SLOAD DIV MUL DUP4 MSTORE SWAP2 PUSH1 0x20 ADD SWAP2 PUSH2 0x8D4 JUMP JUMPDEST DUP3 ADD SWAP2 SWAP1 PUSH1 0x0 MSTORE PUSH1 0x20 PUSH1 0x0 KECCAK256 SWAP1 JUMPDEST DUP2 SLOAD DUP2 MSTORE SWAP1 PUSH1 0x1 ADD SWAP1 PUSH1 0x20 ADD DUP1 DUP4 GT PUSH2 0x8B7 JUMPI DUP3 SWAP1 SUB PUSH1 0x1F AND DUP3 ADD SWAP2 JUMPDEST POP POP POP POP POP SWAP1 POP SWAP4 POP SWAP4 POP SWAP4 POP SWAP4 POP SWAP4 POP SWAP4 POP SWAP4 POP SWAP4 JUMP JUMPDEST PUSH1 0x0 PUSH1 0x8 PUSH1 0x0 DUP4 PUSH20 0xFFFFFFFFFFFFFFFFFFFFFFFFFFFFFFFFFFFFFFFF AND PUSH20 0xFFFFFFFFFFFFFFFFFFFFFFFFFFFFFFFFFFFFFFFF AND DUP2 MSTORE PUSH1 0x20 ADD SWAP1 DUP2 MSTORE PUSH1 0x20 ADD PUSH1 0x0 KECCAK256 DUP1 SLOAD SWAP1 POP SWAP1 POP SWAP2 SWAP1 POP JUMP JUMPDEST PUSH1 0x1 PUSH1 0x0 SWAP1 SLOAD SWAP1 PUSH2 0x100 EXP SWAP1 DIV PUSH20 0xFFFFFFFFFFFFFFFFFFFFFFFFFFFFFFFFFFFFFFFF AND DUP2 JUMP JUMPDEST PUSH1 0x1 ISZERO ISZERO PUSH1 0x5 PUSH1 0x0 DUP5 PUSH20 0xFFFFFFFFFFFFFFFFFFFFFFFFFFFFFFFFFFFFFFFF AND PUSH20 0xFFFFFFFFFFFFFFFFFFFFFFFFFFFFFFFFFFFFFFFF AND DUP2 MSTORE PUSH1 0x20 ADD SWAP1 DUP2 MSTORE PUSH1 0x20 ADD PUSH1 0x0 KECCAK256 PUSH1 0x0 SWAP1 SLOAD SWAP1 PUSH2 0x100 EXP SWAP1 DIV PUSH1 0xFF AND ISZERO ISZERO EQ PUSH2 0x9BB JUMPI PUSH1 0x0 DUP1 REVERT JUMPDEST PUSH1 0x0 DUP3 SWAP1 POP PUSH1 0x60 DUP2 PUSH20 0xFFFFFFFFFFFFFFFFFFFFFFFFFFFFFFFFFFFFFFFF AND PUSH4 0x8CBA76B1 DUP5 PUSH1 0x40 MLOAD DUP3 PUSH4 0xFFFFFFFF AND PUSH1 0xE0 SHL DUP2 MSTORE PUSH1 0x4 ADD PUSH2 0x9FB SWAP2 SWAP1 PUSH2 0x4C0C JUMP JUMPDEST PUSH1 0x0 PUSH1 0x40 MLOAD DUP1 DUP4 SUB DUP2 DUP7 DUP1 EXTCODESIZE ISZERO DUP1 ISZERO PUSH2 0xA13 JUMPI PUSH1 0x0 DUP1 REVERT JUMPDEST POP GAS STATICCALL ISZERO DUP1 ISZERO PUSH2 0xA27 JUMPI RETURNDATASIZE PUSH1 0x0 DUP1 RETURNDATACOPY RETURNDATASIZE PUSH1 0x0 REVERT JUMPDEST POP POP POP POP PUSH1 0x40 MLOAD RETURNDATASIZE PUSH1 0x0 DUP3 RETURNDATACOPY RETURNDATASIZE PUSH1 0x1F NOT PUSH1 0x1F DUP3 ADD AND DUP3 ADD DUP1 PUSH1 0x40 MSTORE POP DUP2 ADD SWAP1 PUSH2 0xA50 SWAP2 SWAP1 PUSH2 0x43F2 JUMP JUMPDEST SWAP1 POP PUSH1 0x40 MLOAD PUSH1 0x20 ADD PUSH2 0xA61 SWAP1 PUSH2 0x4B34 JUMP JUMPDEST PUSH1 0x40 MLOAD PUSH1 0x20 DUP2 DUP4 SUB SUB DUP2 MSTORE SWAP1 PUSH1 0x40 MSTORE DUP1 MLOAD SWAP1 PUSH1 0x20 ADD KECCAK256 DUP2 PUSH1 0x40 MLOAD PUSH1 0x20 ADD PUSH2 0xA88 SWAP2 SWAP1 PUSH2 0x4B1D JUMP JUMPDEST PUSH1 0x40 MLOAD PUSH1 0x20 DUP2 DUP4 SUB SUB DUP2 MSTORE SWAP1 PUSH1 0x40 MSTORE DUP1 MLOAD SWAP1 PUSH1 0x20 ADD KECCAK256 EQ PUSH2 0xAA8 JUMPI PUSH1 0x0 DUP1 REVERT JUMPDEST POP POP POP POP JUMP JUMPDEST PUSH1 0x2 DUP2 DUP2 SLOAD DUP2 LT PUSH2 0xABB JUMPI INVALID JUMPDEST SWAP1 PUSH1 0x0 MSTORE PUSH1 0x20 PUSH1 0x0 KECCAK256 SWAP1 PUSH1 0x6 MUL ADD PUSH1 0x0 SWAP2 POP SWAP1 POP DUP1 PUSH1 0x0 ADD DUP1 SLOAD PUSH1 0x1 DUP2 PUSH1 0x1 AND ISZERO PUSH2 0x100 MUL SUB AND PUSH1 0x2 SWAP1 DIV DUP1 PUSH1 0x1F ADD PUSH1 0x20 DUP1 SWAP2 DIV MUL PUSH1 0x20 ADD PUSH1 0x40 MLOAD SWAP1 DUP2 ADD PUSH1 0x40 MSTORE DUP1 SWAP3 SWAP2 SWAP1 DUP2 DUP2 MSTORE PUSH1 0x20 ADD DUP3 DUP1 SLOAD PUSH1 0x1 DUP2 PUSH1 0x1 AND ISZERO PUSH2 0x100 MUL SUB AND PUSH1 0x2 SWAP1 DIV DUP1 ISZERO PUSH2 0xB67 JUMPI DUP1 PUSH1 0x1F LT PUSH2 0xB3C JUMPI PUSH2 0x100 DUP1 DUP4 SLOAD DIV MUL DUP4 MSTORE SWAP2 PUSH1 0x20 ADD SWAP2 PUSH2 0xB67 JUMP JUMPDEST DUP3 ADD SWAP2 SWAP1 PUSH1 0x0 MSTORE PUSH1 0x20 PUSH1 0x0 KECCAK256 SWAP1 JUMPDEST DUP2 SLOAD DUP2 MSTORE SWAP1 PUSH1 0x1 ADD SWAP1 PUSH1 0x20 ADD DUP1 DUP4 GT PUSH2 0xB4A JUMPI DUP3 SWAP1 SUB PUSH1 0x1F AND DUP3 ADD SWAP2 JUMPDEST POP POP POP POP POP SWAP1 DUP1 PUSH1 0x1 ADD PUSH1 0x0 SWAP1 SLOAD SWAP1 PUSH2 0x100 EXP SWAP1 DIV PUSH20 0xFFFFFFFFFFFFFFFFFFFFFFFFFFFFFFFFFFFFFFFF AND SWAP1 DUP1 PUSH1 0x2 ADD DUP1 SLOAD PUSH1 0x1 DUP2 PUSH1 0x1 AND ISZERO PUSH2 0x100 MUL SUB AND PUSH1 0x2 SWAP1 DIV DUP1 PUSH1 0x1F ADD PUSH1 0x20 DUP1 SWAP2 DIV MUL PUSH1 0x20 ADD PUSH1 0x40 MLOAD SWAP1 DUP2 ADD PUSH1 0x40 MSTORE DUP1 SWAP3 SWAP2 SWAP1 DUP2 DUP2 MSTORE PUSH1 0x20 ADD DUP3 DUP1 SLOAD PUSH1 0x1 DUP2 PUSH1 0x1 AND ISZERO PUSH2 0x100 MUL SUB AND PUSH1 0x2 SWAP1 DIV DUP1 ISZERO PUSH2 0xC2B JUMPI DUP1 PUSH1 0x1F LT PUSH2 0xC00 JUMPI PUSH2 0x100 DUP1 DUP4 SLOAD DIV MUL DUP4 MSTORE SWAP2 PUSH1 0x20 ADD SWAP2 PUSH2 0xC2B JUMP JUMPDEST DUP3 ADD SWAP2 SWAP1 PUSH1 0x0 MSTORE PUSH1 0x20 PUSH1 0x0 KECCAK256 SWAP1 JUMPDEST DUP2 SLOAD DUP2 MSTORE SWAP1 PUSH1 0x1 ADD SWAP1 PUSH1 0x20 ADD DUP1 DUP4 GT PUSH2 0xC0E JUMPI DUP3 SWAP1 SUB PUSH1 0x1F AND DUP3 ADD SWAP2 JUMPDEST POP POP POP POP POP SWAP1 DUP1 PUSH1 0x3 ADD PUSH1 0x0 SWAP1 SLOAD SWAP1 PUSH2 0x100 EXP SWAP1 DIV PUSH20 0xFFFFFFFFFFFFFFFFFFFFFFFFFFFFFFFFFFFFFFFF AND SWAP1 DUP1 PUSH1 0x4 ADD DUP1 SLOAD PUSH1 0x1 DUP2 PUSH1 0x1 AND ISZERO PUSH2 0x100 MUL SUB AND PUSH1 0x2 SWAP1 DIV DUP1 PUSH1 0x1F ADD PUSH1 0x20 DUP1 SWAP2 DIV MUL PUSH1 0x20 ADD PUSH1 0x40 MLOAD SWAP1 DUP2 ADD PUSH1 0x40 MSTORE DUP1 SWAP3 SWAP2 SWAP1 DUP2 DUP2 MSTORE PUSH1 0x20 ADD DUP3 DUP1 SLOAD PUSH1 0x1 DUP2 PUSH1 0x1 AND ISZERO PUSH2 0x100 MUL SUB AND PUSH1 0x2 SWAP1 DIV DUP1 ISZERO PUSH2 0xCEF JUMPI DUP1 PUSH1 0x1F LT PUSH2 0xCC4 JUMPI PUSH2 0x100 DUP1 DUP4 SLOAD DIV MUL DUP4 MSTORE SWAP2 PUSH1 0x20 ADD SWAP2 PUSH2 0xCEF JUMP JUMPDEST DUP3 ADD SWAP2 SWAP1 PUSH1 0x0 MSTORE PUSH1 0x20 PUSH1 0x0 KECCAK256 SWAP1 JUMPDEST DUP2 SLOAD DUP2 MSTORE SWAP1 PUSH1 0x1 ADD SWAP1 PUSH1 0x20 ADD DUP1 DUP4 GT PUSH2 0xCD2 JUMPI DUP3 SWAP1 SUB PUSH1 0x1F AND DUP3 ADD SWAP2 JUMPDEST POP POP POP POP POP SWAP1 DUP1 PUSH1 0x5 ADD DUP1 SLOAD PUSH1 0x1 DUP2 PUSH1 0x1 AND ISZERO PUSH2 0x100 MUL SUB AND PUSH1 0x2 SWAP1 DIV DUP1 PUSH1 0x1F ADD PUSH1 0x20 DUP1 SWAP2 DIV MUL PUSH1 0x20 ADD PUSH1 0x40 MLOAD SWAP1 DUP2 ADD PUSH1 0x40 MSTORE DUP1 SWAP3 SWAP2 SWAP1 DUP2 DUP2 MSTORE PUSH1 0x20 ADD DUP3 DUP1 SLOAD PUSH1 0x1 DUP2 PUSH1 0x1 AND ISZERO PUSH2 0x100 MUL SUB AND PUSH1 0x2 SWAP1 DIV DUP1 ISZERO PUSH2 0xD8D JUMPI DUP1 PUSH1 0x1F LT PUSH2 0xD62 JUMPI PUSH2 0x100 DUP1 DUP4 SLOAD DIV MUL DUP4 MSTORE SWAP2 PUSH1 0x20 ADD SWAP2 PUSH2 0xD8D JUMP JUMPDEST DUP3 ADD SWAP2 SWAP1 PUSH1 0x0 MSTORE PUSH1 0x20 PUSH1 0x0 KECCAK256 SWAP1 JUMPDEST DUP2 SLOAD DUP2 MSTORE SWAP1 PUSH1 0x1 ADD SWAP1 PUSH1 0x20 ADD DUP1 DUP4 GT PUSH2 0xD70 JUMPI DUP3 SWAP1 SUB PUSH1 0x1F AND DUP3 ADD SWAP2 JUMPDEST POP POP POP POP POP SWAP1 POP DUP7 JUMP JUMPDEST PUSH1 0x0 PUSH1 0x2 DUP1 SLOAD SWAP1 POP SWAP1 POP SWAP1 JUMP JUMPDEST PUSH1 0x0 DUP1 SWAP1 SLOAD SWAP1 PUSH2 0x100 EXP SWAP1 DIV PUSH20 0xFFFFFFFFFFFFFFFFFFFFFFFFFFFFFFFFFFFFFFFF AND PUSH20 0xFFFFFFFFFFFFFFFFFFFFFFFFFFFFFFFFFFFFFFFF AND CALLER PUSH20 0xFFFFFFFFFFFFFFFFFFFFFFFFFFFFFFFFFFFFFFFF AND EQ PUSH2 0xDFD JUMPI PUSH1 0x0 DUP1 REVERT JUMPDEST PUSH2 0xE27 PUSH1 0x0 DUP1 SWAP1 SLOAD SWAP1 PUSH2 0x100 EXP SWAP1 DIV PUSH20 0xFFFFFFFFFFFFFFFFFFFFFFFFFFFFFFFFFFFFFFFF AND PUSH2 0x2C34 JUMP JUMPDEST PUSH1 0x1 PUSH1 0x4 PUSH1 0x0 DUP8 PUSH20 0xFFFFFFFFFFFFFFFFFFFFFFFFFFFFFFFFFFFFFFFF AND PUSH20 0xFFFFFFFFFFFFFFFFFFFFFFFFFFFFFFFFFFFFFFFF AND DUP2 MSTORE PUSH1 0x20 ADD SWAP1 DUP2 MSTORE PUSH1 0x20 ADD PUSH1 0x0 KECCAK256 PUSH1 0x0 PUSH2 0x100 EXP DUP2 SLOAD DUP2 PUSH1 0xFF MUL NOT AND SWAP1 DUP4 ISZERO ISZERO MUL OR SWAP1 SSTORE POP PUSH2 0xE87 PUSH2 0x3E11 JUMP JUMPDEST DUP7 DUP2 PUSH1 0x0 ADD DUP2 SWAP1 MSTORE POP DUP6 DUP2 PUSH1 0x20 ADD SWAP1 PUSH20 0xFFFFFFFFFFFFFFFFFFFFFFFFFFFFFFFFFFFFFFFF AND SWAP1 DUP2 PUSH20 0xFFFFFFFFFFFFFFFFFFFFFFFFFFFFFFFFFFFFFFFF AND DUP2 MSTORE POP POP DUP5 DUP2 PUSH1 0x40 ADD DUP2 SWAP1 MSTORE POP DUP4 DUP2 PUSH1 0x60 ADD SWAP1 PUSH20 0xFFFFFFFFFFFFFFFFFFFFFFFFFFFFFFFFFFFFFFFF AND SWAP1 DUP2 PUSH20 0xFFFFFFFFFFFFFFFFFFFFFFFFFFFFFFFFFFFFFFFF AND DUP2 MSTORE POP POP DUP3 DUP2 PUSH1 0x80 ADD DUP2 SWAP1 MSTORE POP DUP2 DUP2 PUSH1 0xA0 ADD DUP2 SWAP1 MSTORE POP PUSH1 0x2 DUP2 SWAP1 DUP1 PUSH1 0x1 DUP2 SLOAD ADD DUP1 DUP3 SSTORE DUP1 SWAP2 POP POP PUSH1 0x1 SWAP1 SUB SWAP1 PUSH1 0x0 MSTORE PUSH1 0x20 PUSH1 0x0 KECCAK256 SWAP1 PUSH1 0x6 MUL ADD PUSH1 0x0 SWAP1 SWAP2 SWAP1 SWAP2 SWAP1 SWAP2 POP PUSH1 0x0 DUP3 ADD MLOAD DUP2 PUSH1 0x0 ADD SWAP1 DUP1 MLOAD SWAP1 PUSH1 0x20 ADD SWAP1 PUSH2 0xF63 SWAP3 SWAP2 SWAP1 PUSH2 0x3E73 JUMP JUMPDEST POP PUSH1 0x20 DUP3 ADD MLOAD DUP2 PUSH1 0x1 ADD PUSH1 0x0 PUSH2 0x100 EXP DUP2 SLOAD DUP2 PUSH20 0xFFFFFFFFFFFFFFFFFFFFFFFFFFFFFFFFFFFFFFFF MUL NOT AND SWAP1 DUP4 PUSH20 0xFFFFFFFFFFFFFFFFFFFFFFFFFFFFFFFFFFFFFFFF AND MUL OR SWAP1 SSTORE POP PUSH1 0x40 DUP3 ADD MLOAD DUP2 PUSH1 0x2 ADD SWAP1 DUP1 MLOAD SWAP1 PUSH1 0x20 ADD SWAP1 PUSH2 0xFC7 SWAP3 SWAP2 SWAP1 PUSH2 0x3E73 JUMP JUMPDEST POP PUSH1 0x60 DUP3 ADD MLOAD DUP2 PUSH1 0x3 ADD PUSH1 0x0 PUSH2 0x100 EXP DUP2 SLOAD DUP2 PUSH20 0xFFFFFFFFFFFFFFFFFFFFFFFFFFFFFFFFFFFFFFFF MUL NOT AND SWAP1 DUP4 PUSH20 0xFFFFFFFFFFFFFFFFFFFFFFFFFFFFFFFFFFFFFFFF AND MUL OR SWAP1 SSTORE POP PUSH1 0x80 DUP3 ADD MLOAD DUP2 PUSH1 0x4 ADD SWAP1 DUP1 MLOAD SWAP1 PUSH1 0x20 ADD SWAP1 PUSH2 0x102B SWAP3 SWAP2 SWAP1 PUSH2 0x3E73 JUMP JUMPDEST POP PUSH1 0xA0 DUP3 ADD MLOAD DUP2 PUSH1 0x5 ADD SWAP1 DUP1 MLOAD SWAP1 PUSH1 0x20 ADD SWAP1 PUSH2 0x1048 SWAP3 SWAP2 SWAP1 PUSH2 0x3E73 JUMP JUMPDEST POP POP POP POP POP POP POP POP POP POP JUMP JUMPDEST PUSH1 0x1 ISZERO ISZERO PUSH1 0x5 PUSH1 0x0 DUP9 PUSH20 0xFFFFFFFFFFFFFFFFFFFFFFFFFFFFFFFFFFFFFFFF AND PUSH20 0xFFFFFFFFFFFFFFFFFFFFFFFFFFFFFFFFFFFFFFFF AND DUP2 MSTORE PUSH1 0x20 ADD SWAP1 DUP2 MSTORE PUSH1 0x20 ADD PUSH1 0x0 KECCAK256 PUSH1 0x0 SWAP1 SLOAD SWAP1 PUSH2 0x100 EXP SWAP1 DIV PUSH1 0xFF AND ISZERO ISZERO EQ PUSH2 0x10B1 JUMPI PUSH1 0x0 DUP1 REVERT JUMPDEST PUSH2 0x10B9 PUSH2 0x3EF3 JUMP JUMPDEST DUP8 DUP2 PUSH1 0x0 ADD DUP2 SWAP1 MSTORE POP CALLER DUP2 PUSH1 0x20 ADD SWAP1 PUSH20 0xFFFFFFFFFFFFFFFFFFFFFFFFFFFFFFFFFFFFFFFF AND SWAP1 DUP2 PUSH20 0xFFFFFFFFFFFFFFFFFFFFFFFFFFFFFFFFFFFFFFFF AND DUP2 MSTORE POP POP DUP6 DUP2 PUSH1 0x40 ADD DUP2 SWAP1 MSTORE POP DUP5 DUP2 PUSH1 0x60 ADD SWAP1 PUSH20 0xFFFFFFFFFFFFFFFFFFFFFFFFFFFFFFFFFFFFFFFF AND SWAP1 DUP2 PUSH20 0xFFFFFFFFFFFFFFFFFFFFFFFFFFFFFFFFFFFFFFFF AND DUP2 MSTORE POP POP DUP4 DUP2 PUSH1 0x80 ADD DUP2 SWAP1 MSTORE POP DUP3 DUP2 PUSH1 0xA0 ADD DUP2 DUP2 MSTORE POP POP DUP2 DUP2 PUSH1 0xC0 ADD DUP2 DUP2 MSTORE POP POP PUSH1 0x1 DUP2 PUSH1 0xE0 ADD MLOAD ADD DUP2 PUSH1 0xE0 ADD DUP2 DUP2 MSTORE POP POP DUP1 PUSH1 0x6 PUSH1 0x0 DUP8 PUSH20 0xFFFFFFFFFFFFFFFFFFFFFFFFFFFFFFFFFFFFFFFF AND PUSH20 0xFFFFFFFFFFFFFFFFFFFFFFFFFFFFFFFFFFFFFFFF AND DUP2 MSTORE PUSH1 0x20 ADD SWAP1 DUP2 MSTORE PUSH1 0x20 ADD PUSH1 0x0 KECCAK256 PUSH1 0x0 DUP10 PUSH20 0xFFFFFFFFFFFFFFFFFFFFFFFFFFFFFFFFFFFFFFFF AND PUSH20 0xFFFFFFFFFFFFFFFFFFFFFFFFFFFFFFFFFFFFFFFF AND DUP2 MSTORE PUSH1 0x20 ADD SWAP1 DUP2 MSTORE PUSH1 0x20 ADD PUSH1 0x0 KECCAK256 DUP3 PUSH1 0xE0 ADD MLOAD DUP2 SLOAD DUP2 LT PUSH2 0x11F5 JUMPI INVALID JUMPDEST SWAP1 PUSH1 0x0 MSTORE PUSH1 0x20 PUSH1 0x0 KECCAK256 SWAP1 PUSH1 0x8 MUL ADD PUSH1 0x0 DUP3 ADD MLOAD DUP2 PUSH1 0x0 ADD SWAP1 DUP1 MLOAD SWAP1 PUSH1 0x20 ADD SWAP1 PUSH2 0x121F SWAP3 SWAP2 SWAP1 PUSH2 0x3E73 JUMP JUMPDEST POP PUSH1 0x20 DUP3 ADD MLOAD DUP2 PUSH1 0x1 ADD PUSH1 0x0 PUSH2 0x100 EXP DUP2 SLOAD DUP2 PUSH20 0xFFFFFFFFFFFFFFFFFFFFFFFFFFFFFFFFFFFFFFFF MUL NOT AND SWAP1 DUP4 PUSH20 0xFFFFFFFFFFFFFFFFFFFFFFFFFFFFFFFFFFFFFFFF AND MUL OR SWAP1 SSTORE POP PUSH1 0x40 DUP3 ADD MLOAD DUP2 PUSH1 0x2 ADD SWAP1 DUP1 MLOAD SWAP1 PUSH1 0x20 ADD SWAP1 PUSH2 0x1283 SWAP3 SWAP2 SWAP1 PUSH2 0x3E73 JUMP JUMPDEST POP PUSH1 0x60 DUP3 ADD MLOAD DUP2 PUSH1 0x3 ADD PUSH1 0x0 PUSH2 0x100 EXP DUP2 SLOAD DUP2 PUSH20 0xFFFFFFFFFFFFFFFFFFFFFFFFFFFFFFFFFFFFFFFF MUL NOT AND SWAP1 DUP4 PUSH20 0xFFFFFFFFFFFFFFFFFFFFFFFFFFFFFFFFFFFFFFFF AND MUL OR SWAP1 SSTORE POP PUSH1 0x80 DUP3 ADD MLOAD DUP2 PUSH1 0x4 ADD SWAP1 DUP1 MLOAD SWAP1 PUSH1 0x20 ADD SWAP1 PUSH2 0x12E7 SWAP3 SWAP2 SWAP1 PUSH2 0x3E73 JUMP JUMPDEST POP PUSH1 0xA0 DUP3 ADD MLOAD DUP2 PUSH1 0x5 ADD SSTORE PUSH1 0xC0 DUP3 ADD MLOAD DUP2 PUSH1 0x6 ADD SSTORE PUSH1 0xE0 DUP3 ADD MLOAD DUP2 PUSH1 0x7 ADD SSTORE SWAP1 POP POP POP POP POP POP POP POP POP POP JUMP JUMPDEST PUSH1 0xC PUSH1 0x20 MSTORE DUP2 PUSH1 0x0 MSTORE PUSH1 0x40 PUSH1 0x0 KECCAK256 PUSH1 0x20 MSTORE DUP1 PUSH1 0x0 MSTORE PUSH1 0x40 PUSH1 0x0 KECCAK256 PUSH1 0x0 SWAP2 POP SWAP2 POP POP SLOAD DUP2 JUMP JUMPDEST PUSH1 0x6 PUSH1 0x20 MSTORE DUP3 PUSH1 0x0 MSTORE PUSH1 0x40 PUSH1 0x0 KECCAK256 PUSH1 0x20 MSTORE DUP2 PUSH1 0x0 MSTORE PUSH1 0x40 PUSH1 0x0 KECCAK256 DUP2 DUP2 SLOAD DUP2 LT PUSH2 0x135D JUMPI INVALID JUMPDEST SWAP1 PUSH1 0x0 MSTORE PUSH1 0x20 PUSH1 0x0 KECCAK256 SWAP1 PUSH1 0x8 MUL ADD PUSH1 0x0 SWAP3 POP SWAP3 POP POP POP DUP1 PUSH1 0x0 ADD DUP1 SLOAD PUSH1 0x1 DUP2 PUSH1 0x1 AND ISZERO PUSH2 0x100 MUL SUB AND PUSH1 0x2 SWAP1 DIV DUP1 PUSH1 0x1F ADD PUSH1 0x20 DUP1 SWAP2 DIV MUL PUSH1 0x20 ADD PUSH1 0x40 MLOAD SWAP1 DUP2 ADD PUSH1 0x40 MSTORE DUP1 SWAP3 SWAP2 SWAP1 DUP2 DUP2 MSTORE PUSH1 0x20 ADD DUP3 DUP1 SLOAD PUSH1 0x1 DUP2 PUSH1 0x1 AND ISZERO PUSH2 0x100 MUL SUB AND PUSH1 0x2 SWAP1 DIV DUP1 ISZERO PUSH2 0x140B JUMPI DUP1 PUSH1 0x1F LT PUSH2 0x13E0 JUMPI PUSH2 0x100 DUP1 DUP4 SLOAD DIV MUL DUP4 MSTORE SWAP2 PUSH1 0x20 ADD SWAP2 PUSH2 0x140B JUMP JUMPDEST DUP3 ADD SWAP2 SWAP1 PUSH1 0x0 MSTORE PUSH1 0x20 PUSH1 0x0 KECCAK256 SWAP1 JUMPDEST DUP2 SLOAD DUP2 MSTORE SWAP1 PUSH1 0x1 ADD SWAP1 PUSH1 0x20 ADD DUP1 DUP4 GT PUSH2 0x13EE JUMPI DUP3 SWAP1 SUB PUSH1 0x1F AND DUP3 ADD SWAP2 JUMPDEST POP POP POP POP POP SWAP1 DUP1 PUSH1 0x1 ADD PUSH1 0x0 SWAP1 SLOAD SWAP1 PUSH2 0x100 EXP SWAP1 DIV PUSH20 0xFFFFFFFFFFFFFFFFFFFFFFFFFFFFFFFFFFFFFFFF AND SWAP1 DUP1 PUSH1 0x2 ADD DUP1 SLOAD PUSH1 0x1 DUP2 PUSH1 0x1 AND ISZERO PUSH2 0x100 MUL SUB AND PUSH1 0x2 SWAP1 DIV DUP1 PUSH1 0x1F ADD PUSH1 0x20 DUP1 SWAP2 DIV MUL PUSH1 0x20 ADD PUSH1 0x40 MLOAD SWAP1 DUP2 ADD PUSH1 0x40 MSTORE DUP1 SWAP3 SWAP2 SWAP1 DUP2 DUP2 MSTORE PUSH1 0x20 ADD DUP3 DUP1 SLOAD PUSH1 0x1 DUP2 PUSH1 0x1 AND ISZERO PUSH2 0x100 MUL SUB AND PUSH1 0x2 SWAP1 DIV DUP1 ISZERO PUSH2 0x14CF JUMPI DUP1 PUSH1 0x1F LT PUSH2 0x14A4 JUMPI PUSH2 0x100 DUP1 DUP4 SLOAD DIV MUL DUP4 MSTORE SWAP2 PUSH1 0x20 ADD SWAP2 PUSH2 0x14CF JUMP JUMPDEST DUP3 ADD SWAP2 SWAP1 PUSH1 0x0 MSTORE PUSH1 0x20 PUSH1 0x0 KECCAK256 SWAP1 JUMPDEST DUP2 SLOAD DUP2 MSTORE SWAP1 PUSH1 0x1 ADD SWAP1 PUSH1 0x20 ADD DUP1 DUP4 GT PUSH2 0x14B2 JUMPI DUP3 SWAP1 SUB PUSH1 0x1F AND DUP3 ADD SWAP2 JUMPDEST POP POP POP POP POP SWAP1 DUP1 PUSH1 0x3 ADD PUSH1 0x0 SWAP1 SLOAD SWAP1 PUSH2 0x100 EXP SWAP1 DIV PUSH20 0xFFFFFFFFFFFFFFFFFFFFFFFFFFFFFFFFFFFFFFFF AND SWAP1 DUP1 PUSH1 0x4 ADD DUP1 SLOAD PUSH1 0x1 DUP2 PUSH1 0x1 AND ISZERO PUSH2 0x100 MUL SUB AND PUSH1 0x2 SWAP1 DIV DUP1 PUSH1 0x1F ADD PUSH1 0x20 DUP1 SWAP2 DIV MUL PUSH1 0x20 ADD PUSH1 0x40 MLOAD SWAP1 DUP2 ADD PUSH1 0x40 MSTORE DUP1 SWAP3 SWAP2 SWAP1 DUP2 DUP2 MSTORE PUSH1 0x20 ADD DUP3 DUP1 SLOAD PUSH1 0x1 DUP2 PUSH1 0x1 AND ISZERO PUSH2 0x100 MUL SUB AND PUSH1 0x2 SWAP1 DIV DUP1 ISZERO PUSH2 0x1593 JUMPI DUP1 PUSH1 0x1F LT PUSH2 0x1568 JUMPI PUSH2 0x100 DUP1 DUP4 SLOAD DIV MUL DUP4 MSTORE SWAP2 PUSH1 0x20 ADD SWAP2 PUSH2 0x1593 JUMP JUMPDEST DUP3 ADD SWAP2 SWAP1 PUSH1 0x0 MSTORE PUSH1 0x20 PUSH1 0x0 KECCAK256 SWAP1 JUMPDEST DUP2 SLOAD DUP2 MSTORE SWAP1 PUSH1 0x1 ADD SWAP1 PUSH1 0x20 ADD DUP1 DUP4 GT PUSH2 0x1576 JUMPI DUP3 SWAP1 SUB PUSH1 0x1F AND DUP3 ADD SWAP2 JUMPDEST POP POP POP POP POP SWAP1 DUP1 PUSH1 0x5 ADD SLOAD SWAP1 DUP1 PUSH1 0x6 ADD SLOAD SWAP1 DUP1 PUSH1 0x7 ADD SLOAD SWAP1 POP DUP9 JUMP JUMPDEST PUSH1 0x0 PUSH1 0xC PUSH1 0x0 CALLER PUSH20 0xFFFFFFFFFFFFFFFFFFFFFFFFFFFFFFFFFFFFFFFF AND PUSH20 0xFFFFFFFFFFFFFFFFFFFFFFFFFFFFFFFFFFFFFFFF AND DUP2 MSTORE PUSH1 0x20 ADD SWAP1 DUP2 MSTORE PUSH1 0x20 ADD PUSH1 0x0 KECCAK256 PUSH1 0x0 DUP4 DUP2 MSTORE PUSH1 0x20 ADD SWAP1 DUP2 MSTORE PUSH1 0x20 ADD PUSH1 0x0 KECCAK256 SLOAD SWAP1 POP CALLER PUSH20 0xFFFFFFFFFFFFFFFFFFFFFFFFFFFFFFFFFFFFFFFF AND PUSH1 0x8 PUSH1 0x0 CALLER PUSH20 0xFFFFFFFFFFFFFFFFFFFFFFFFFFFFFFFFFFFFFFFF AND PUSH20 0xFFFFFFFFFFFFFFFFFFFFFFFFFFFFFFFFFFFFFFFF AND DUP2 MSTORE PUSH1 0x20 ADD SWAP1 DUP2 MSTORE PUSH1 0x20 ADD PUSH1 0x0 KECCAK256 DUP3 DUP2 SLOAD DUP2 LT PUSH2 0x1665 JUMPI INVALID JUMPDEST SWAP1 PUSH1 0x0 MSTORE PUSH1 0x20 PUSH1 0x0 KECCAK256 SWAP1 PUSH1 0x4 MUL ADD PUSH1 0x0 ADD PUSH1 0x1 SWAP1 SLOAD SWAP1 PUSH2 0x100 EXP SWAP1 DIV PUSH20 0xFFFFFFFFFFFFFFFFFFFFFFFFFFFFFFFFFFFFFFFF AND PUSH20 0xFFFFFFFFFFFFFFFFFFFFFFFFFFFFFFFFFFFFFFFF AND EQ ISZERO PUSH2 0x16B8 JUMPI PUSH1 0x0 DUP1 REVERT JUMPDEST PUSH1 0x0 PUSH1 0x5 DUP2 GT ISZERO PUSH2 0x16C5 JUMPI INVALID JUMPDEST PUSH1 0x8 PUSH1 0x0 CALLER PUSH20 0xFFFFFFFFFFFFFFFFFFFFFFFFFFFFFFFFFFFFFFFF AND PUSH20 0xFFFFFFFFFFFFFFFFFFFFFFFFFFFFFFFFFFFFFFFF AND DUP2 MSTORE PUSH1 0x20 ADD SWAP1 DUP2 MSTORE PUSH1 0x20 ADD PUSH1 0x0 KECCAK256 DUP3 DUP2 SLOAD DUP2 LT PUSH2 0x170F JUMPI INVALID JUMPDEST SWAP1 PUSH1 0x0 MSTORE PUSH1 0x20 PUSH1 0x0 KECCAK256 SWAP1 PUSH1 0x4 MUL ADD PUSH1 0x0 ADD PUSH1 0x0 SWAP1 SLOAD SWAP1 PUSH2 0x100 EXP SWAP1 DIV PUSH1 0xFF AND PUSH1 0x5 DUP2 GT ISZERO PUSH2 0x1739 JUMPI INVALID JUMPDEST EQ PUSH2 0x1743 JUMPI PUSH1 0x0 DUP1 REVERT JUMPDEST DUP4 ISZERO PUSH2 0x1876 JUMPI PUSH1 0x1 PUSH1 0x8 PUSH1 0x0 CALLER PUSH20 0xFFFFFFFFFFFFFFFFFFFFFFFFFFFFFFFFFFFFFFFF AND PUSH20 0xFFFFFFFFFFFFFFFFFFFFFFFFFFFFFFFFFFFFFFFF AND DUP2 MSTORE PUSH1 0x20 ADD SWAP1 DUP2 MSTORE PUSH1 0x20 ADD PUSH1 0x0 KECCAK256 DUP3 DUP2 SLOAD DUP2 LT PUSH2 0x1795 JUMPI INVALID JUMPDEST SWAP1 PUSH1 0x0 MSTORE PUSH1 0x20 PUSH1 0x0 KECCAK256 SWAP1 PUSH1 0x4 MUL ADD PUSH1 0x0 ADD PUSH1 0x0 PUSH2 0x100 EXP DUP2 SLOAD DUP2 PUSH1 0xFF MUL NOT AND SWAP1 DUP4 PUSH1 0x5 DUP2 GT ISZERO PUSH2 0x17C1 JUMPI INVALID JUMPDEST MUL OR SWAP1 SSTORE POP PUSH1 0x1 PUSH1 0x8 PUSH1 0x0 CALLER PUSH20 0xFFFFFFFFFFFFFFFFFFFFFFFFFFFFFFFFFFFFFFFF AND PUSH20 0xFFFFFFFFFFFFFFFFFFFFFFFFFFFFFFFFFFFFFFFF AND DUP2 MSTORE PUSH1 0x20 ADD SWAP1 DUP2 MSTORE PUSH1 0x20 ADD PUSH1 0x0 KECCAK256 DUP3 DUP2 SLOAD DUP2 LT PUSH2 0x1812 JUMPI INVALID JUMPDEST SWAP1 PUSH1 0x0 MSTORE PUSH1 0x20 PUSH1 0x0 KECCAK256 SWAP1 PUSH1 0x4 MUL ADD PUSH1 0x3 ADD PUSH1 0x0 PUSH2 0x100 EXP DUP2 SLOAD DUP2 PUSH1 0xFF MUL NOT AND SWAP1 DUP4 ISZERO ISZERO MUL OR SWAP1 SSTORE POP PUSH32 0x30F499DEE5ACA26BF88E6932509F2693B637E648EC36AC97034DB8869F118639 DUP4 PUSH1 0x40 MLOAD PUSH2 0x1869 SWAP2 SWAP1 PUSH2 0x4F01 JUMP JUMPDEST PUSH1 0x40 MLOAD DUP1 SWAP2 SUB SWAP1 LOG1 PUSH2 0x199F JUMP JUMPDEST PUSH1 0x2 PUSH1 0x8 PUSH1 0x0 CALLER PUSH20 0xFFFFFFFFFFFFFFFFFFFFFFFFFFFFFFFFFFFFFFFF AND PUSH20 0xFFFFFFFFFFFFFFFFFFFFFFFFFFFFFFFFFFFFFFFF AND DUP2 MSTORE PUSH1 0x20 ADD SWAP1 DUP2 MSTORE PUSH1 0x20 ADD PUSH1 0x0 KECCAK256 DUP3 DUP2 SLOAD DUP2 LT PUSH2 0x18C2 JUMPI INVALID JUMPDEST SWAP1 PUSH1 0x0 MSTORE PUSH1 0x20 PUSH1 0x0 KECCAK256 SWAP1 PUSH1 0x4 MUL ADD PUSH1 0x0 ADD PUSH1 0x0 PUSH2 0x100 EXP DUP2 SLOAD DUP2 PUSH1 0xFF MUL NOT AND SWAP1 DUP4 PUSH1 0x5 DUP2 GT ISZERO PUSH2 0x18EE JUMPI INVALID JUMPDEST MUL OR SWAP1 SSTORE POP PUSH1 0x0 PUSH1 0x8 PUSH1 0x0 CALLER PUSH20 0xFFFFFFFFFFFFFFFFFFFFFFFFFFFFFFFFFFFFFFFF AND PUSH20 0xFFFFFFFFFFFFFFFFFFFFFFFFFFFFFFFFFFFFFFFF AND DUP2 MSTORE PUSH1 0x20 ADD SWAP1 DUP2 MSTORE PUSH1 0x20 ADD PUSH1 0x0 KECCAK256 DUP3 DUP2 SLOAD DUP2 LT PUSH2 0x193F JUMPI INVALID JUMPDEST SWAP1 PUSH1 0x0 MSTORE PUSH1 0x20 PUSH1 0x0 KECCAK256 SWAP1 PUSH1 0x4 MUL ADD PUSH1 0x3 ADD PUSH1 0x0 PUSH2 0x100 EXP DUP2 SLOAD DUP2 PUSH1 0xFF MUL NOT AND SWAP1 DUP4 ISZERO ISZERO MUL OR SWAP1 SSTORE POP PUSH32 0xB72D3D0DDAC6222A8090ABA8A89A5F33EA480CA5E3201DEA0F31F5DA8203F249 DUP4 PUSH1 0x40 MLOAD PUSH2 0x1996 SWAP2 SWAP1 PUSH2 0x4EA5 JUMP JUMPDEST PUSH1 0x40 MLOAD DUP1 SWAP2 SUB SWAP1 LOG1 JUMPDEST POP POP POP POP JUMP JUMPDEST PUSH1 0x60 PUSH1 0x6 PUSH1 0x0 DUP5 PUSH20 0xFFFFFFFFFFFFFFFFFFFFFFFFFFFFFFFFFFFFFFFF AND PUSH20 0xFFFFFFFFFFFFFFFFFFFFFFFFFFFFFFFFFFFFFFFF AND DUP2 MSTORE PUSH1 0x20 ADD SWAP1 DUP2 MSTORE PUSH1 0x20 ADD PUSH1 0x0 KECCAK256 PUSH1 0x0 DUP6 PUSH20 0xFFFFFFFFFFFFFFFFFFFFFFFFFFFFFFFFFFFFFFFF AND PUSH20 0xFFFFFFFFFFFFFFFFFFFFFFFFFFFFFFFFFFFFFFFF AND DUP2 MSTORE PUSH1 0x20 ADD SWAP1 DUP2 MSTORE PUSH1 0x20 ADD PUSH1 0x0 KECCAK256 DUP3 DUP2 SLOAD DUP2 LT PUSH2 0x1A2E JUMPI INVALID JUMPDEST SWAP1 PUSH1 0x0 MSTORE PUSH1 0x20 PUSH1 0x0 KECCAK256 SWAP1 PUSH1 0x8 MUL ADD PUSH1 0x5 ADD SLOAD PUSH1 0x40 MLOAD PUSH1 0x20 ADD PUSH2 0x1A50 SWAP2 SWAP1 PUSH2 0x4B02 JUMP JUMPDEST PUSH1 0x40 MLOAD PUSH1 0x20 DUP2 DUP4 SUB SUB DUP2 MSTORE SWAP1 PUSH1 0x40 MSTORE DUP1 MLOAD SWAP1 PUSH1 0x20 ADD KECCAK256 DUP6 PUSH1 0x40 MLOAD PUSH1 0x20 ADD PUSH2 0x1A77 SWAP2 SWAP1 PUSH2 0x4B02 JUMP JUMPDEST PUSH1 0x40 MLOAD PUSH1 0x20 DUP2 DUP4 SUB SUB DUP2 MSTORE SWAP1 PUSH1 0x40 MSTORE DUP1 MLOAD SWAP1 PUSH1 0x20 ADD KECCAK256 EQ ISZERO PUSH2 0x1AD0 JUMPI PUSH1 0x40 MLOAD DUP1 PUSH1 0x40 ADD PUSH1 0x40 MSTORE DUP1 PUSH1 0x4 DUP2 MSTORE PUSH1 0x20 ADD PUSH32 0x7472756500000000000000000000000000000000000000000000000000000000 DUP2 MSTORE POP SWAP1 POP PUSH2 0x1B09 JUMP JUMPDEST PUSH1 0x40 MLOAD DUP1 PUSH1 0x40 ADD PUSH1 0x40 MSTORE DUP1 PUSH1 0xB DUP2 MSTORE PUSH1 0x20 ADD PUSH32 0x616C6D6F73742066616B65000000000000000000000000000000000000000000 DUP2 MSTORE POP SWAP1 POP JUMPDEST SWAP5 SWAP4 POP POP POP POP JUMP JUMPDEST CALLER PUSH20 0xFFFFFFFFFFFFFFFFFFFFFFFFFFFFFFFFFFFFFFFF AND DUP3 PUSH20 0xFFFFFFFFFFFFFFFFFFFFFFFFFFFFFFFFFFFFFFFF AND EQ ISZERO PUSH2 0x1B4A JUMPI PUSH1 0x0 DUP1 REVERT JUMPDEST PUSH32 0x85ACE08F038481ADC2BFD0F855A5103EED84D76D1889E2837C00A5F0B64DD50B CALLER PUSH1 0x40 MLOAD PUSH2 0x1B79 SWAP2 SWAP1 PUSH2 0x4B64 JUMP JUMPDEST PUSH1 0x40 MLOAD DUP1 SWAP2 SUB SWAP1 LOG1 PUSH2 0x1B89 PUSH2 0x3F67 JUMP JUMPDEST CALLER DUP2 PUSH1 0x20 ADD SWAP1 PUSH20 0xFFFFFFFFFFFFFFFFFFFFFFFFFFFFFFFFFFFFFFFF AND SWAP1 DUP2 PUSH20 0xFFFFFFFFFFFFFFFFFFFFFFFFFFFFFFFFFFFFFFFF AND DUP2 MSTORE POP POP PUSH1 0x0 DUP2 PUSH1 0x0 ADD SWAP1 PUSH1 0x5 DUP2 GT ISZERO PUSH2 0x1BD3 JUMPI INVALID JUMPDEST SWAP1 DUP2 PUSH1 0x5 DUP2 GT ISZERO PUSH2 0x1BE0 JUMPI INVALID JUMPDEST DUP2 MSTORE POP POP DUP2 DUP2 PUSH1 0x40 ADD DUP2 DUP2 MSTORE POP POP PUSH1 0x0 DUP2 PUSH1 0x80 ADD SWAP1 ISZERO ISZERO SWAP1 DUP2 ISZERO ISZERO DUP2 MSTORE POP POP PUSH1 0x8 PUSH1 0x0 DUP5 PUSH20 0xFFFFFFFFFFFFFFFFFFFFFFFFFFFFFFFFFFFFFFFF AND PUSH20 0xFFFFFFFFFFFFFFFFFFFFFFFFFFFFFFFFFFFFFFFF AND DUP2 MSTORE PUSH1 0x20 ADD SWAP1 DUP2 MSTORE PUSH1 0x20 ADD PUSH1 0x0 KECCAK256 DUP2 SWAP1 DUP1 PUSH1 0x1 DUP2 SLOAD ADD DUP1 DUP3 SSTORE DUP1 SWAP2 POP POP PUSH1 0x1 SWAP1 SUB SWAP1 PUSH1 0x0 MSTORE PUSH1 0x20 PUSH1 0x0 KECCAK256 SWAP1 PUSH1 0x4 MUL ADD PUSH1 0x0 SWAP1 SWAP2 SWAP1 SWAP2 SWAP1 SWAP2 POP PUSH1 0x0 DUP3 ADD MLOAD DUP2 PUSH1 0x0 ADD PUSH1 0x0 PUSH2 0x100 EXP DUP2 SLOAD DUP2 PUSH1 0xFF MUL NOT AND SWAP1 DUP4 PUSH1 0x5 DUP2 GT ISZERO PUSH2 0x1C8C JUMPI INVALID JUMPDEST MUL OR SWAP1 SSTORE POP PUSH1 0x20 DUP3 ADD MLOAD DUP2 PUSH1 0x0 ADD PUSH1 0x1 PUSH2 0x100 EXP DUP2 SLOAD DUP2 PUSH20 0xFFFFFFFFFFFFFFFFFFFFFFFFFFFFFFFFFFFFFFFF MUL NOT AND SWAP1 DUP4 PUSH20 0xFFFFFFFFFFFFFFFFFFFFFFFFFFFFFFFFFFFFFFFF AND MUL OR SWAP1 SSTORE POP PUSH1 0x40 DUP3 ADD MLOAD DUP2 PUSH1 0x1 ADD SSTORE PUSH1 0x60 DUP3 ADD MLOAD DUP2 PUSH1 0x2 ADD SSTORE PUSH1 0x80 DUP3 ADD MLOAD DUP2 PUSH1 0x3 ADD PUSH1 0x0 PUSH2 0x100 EXP DUP2 SLOAD DUP2 PUSH1 0xFF MUL NOT AND SWAP1 DUP4 ISZERO ISZERO MUL OR SWAP1 SSTORE POP POP POP PUSH1 0x1 PUSH1 0x8 PUSH1 0x0 DUP6 PUSH20 0xFFFFFFFFFFFFFFFFFFFFFFFFFFFFFFFFFFFFFFFF AND PUSH20 0xFFFFFFFFFFFFFFFFFFFFFFFFFFFFFFFFFFFFFFFF AND DUP2 MSTORE PUSH1 0x20 ADD SWAP1 DUP2 MSTORE PUSH1 0x20 ADD PUSH1 0x0 KECCAK256 DUP1 SLOAD SWAP1 POP SUB PUSH1 0xC PUSH1 0x0 DUP6 PUSH20 0xFFFFFFFFFFFFFFFFFFFFFFFFFFFFFFFFFFFFFFFF AND PUSH20 0xFFFFFFFFFFFFFFFFFFFFFFFFFFFFFFFFFFFFFFFF AND DUP2 MSTORE PUSH1 0x20 ADD SWAP1 DUP2 MSTORE PUSH1 0x20 ADD PUSH1 0x0 KECCAK256 PUSH1 0x0 DUP5 DUP2 MSTORE PUSH1 0x20 ADD SWAP1 DUP2 MSTORE PUSH1 0x20 ADD PUSH1 0x0 KECCAK256 DUP2 SWAP1 SSTORE POP POP POP POP JUMP JUMPDEST PUSH1 0xE PUSH1 0x20 MSTORE DUP2 PUSH1 0x0 MSTORE PUSH1 0x40 PUSH1 0x0 KECCAK256 PUSH1 0x20 MSTORE DUP1 PUSH1 0x0 MSTORE PUSH1 0x40 PUSH1 0x0 KECCAK256 PUSH1 0x0 SWAP2 POP SWAP2 POP POP SLOAD DUP2 JUMP JUMPDEST PUSH1 0x8 PUSH1 0x20 MSTORE DUP2 PUSH1 0x0 MSTORE PUSH1 0x40 PUSH1 0x0 KECCAK256 DUP2 DUP2 SLOAD DUP2 LT PUSH2 0x1DEB JUMPI INVALID JUMPDEST SWAP1 PUSH1 0x0 MSTORE PUSH1 0x20 PUSH1 0x0 KECCAK256 SWAP1 PUSH1 0x4 MUL ADD PUSH1 0x0 SWAP2 POP SWAP2 POP POP DUP1 PUSH1 0x0 ADD PUSH1 0x0 SWAP1 SLOAD SWAP1 PUSH2 0x100 EXP SWAP1 DIV PUSH1 0xFF AND SWAP1 DUP1 PUSH1 0x0 ADD PUSH1 0x1 SWAP1 SLOAD SWAP1 PUSH2 0x100 EXP SWAP1 DIV PUSH20 0xFFFFFFFFFFFFFFFFFFFFFFFFFFFFFFFFFFFFFFFF AND SWAP1 DUP1 PUSH1 0x1 ADD SLOAD SWAP1 DUP1 PUSH1 0x2 ADD SLOAD SWAP1 DUP1 PUSH1 0x3 ADD PUSH1 0x0 SWAP1 SLOAD SWAP1 PUSH2 0x100 EXP SWAP1 DIV PUSH1 0xFF AND SWAP1 POP DUP6 JUMP JUMPDEST PUSH1 0x9 PUSH1 0x20 MSTORE DUP3 PUSH1 0x0 MSTORE PUSH1 0x40 PUSH1 0x0 KECCAK256 PUSH1 0x20 MSTORE DUP2 PUSH1 0x0 MSTORE PUSH1 0x40 PUSH1 0x0 KECCAK256 DUP2 DUP2 SLOAD DUP2 LT PUSH2 0x1E81 JUMPI INVALID JUMPDEST SWAP1 PUSH1 0x0 MSTORE PUSH1 0x20 PUSH1 0x0 KECCAK256 SWAP1 PUSH1 0x8 MUL ADD PUSH1 0x0 SWAP3 POP SWAP3 POP POP POP DUP1 PUSH1 0x0 ADD DUP1 SLOAD PUSH1 0x1 DUP2 PUSH1 0x1 AND ISZERO PUSH2 0x100 MUL SUB AND PUSH1 0x2 SWAP1 DIV DUP1 PUSH1 0x1F ADD PUSH1 0x20 DUP1 SWAP2 DIV MUL PUSH1 0x20 ADD PUSH1 0x40 MLOAD SWAP1 DUP2 ADD PUSH1 0x40 MSTORE DUP1 SWAP3 SWAP2 SWAP1 DUP2 DUP2 MSTORE PUSH1 0x20 ADD DUP3 DUP1 SLOAD PUSH1 0x1 DUP2 PUSH1 0x1 AND ISZERO PUSH2 0x100 MUL SUB AND PUSH1 0x2 SWAP1 DIV DUP1 ISZERO PUSH2 0x1F2F JUMPI DUP1 PUSH1 0x1F LT PUSH2 0x1F04 JUMPI PUSH2 0x100 DUP1 DUP4 SLOAD DIV MUL DUP4 MSTORE SWAP2 PUSH1 0x20 ADD SWAP2 PUSH2 0x1F2F JUMP JUMPDEST DUP3 ADD SWAP2 SWAP1 PUSH1 0x0 MSTORE PUSH1 0x20 PUSH1 0x0 KECCAK256 SWAP1 JUMPDEST DUP2 SLOAD DUP2 MSTORE SWAP1 PUSH1 0x1 ADD SWAP1 PUSH1 0x20 ADD DUP1 DUP4 GT PUSH2 0x1F12 JUMPI DUP3 SWAP1 SUB PUSH1 0x1F AND DUP3 ADD SWAP2 JUMPDEST POP POP POP POP POP SWAP1 DUP1 PUSH1 0x1 ADD PUSH1 0x0 SWAP1 SLOAD SWAP1 PUSH2 0x100 EXP SWAP1 DIV PUSH20 0xFFFFFFFFFFFFFFFFFFFFFFFFFFFFFFFFFFFFFFFF AND SWAP1 DUP1 PUSH1 0x2 ADD DUP1 SLOAD PUSH1 0x1 DUP2 PUSH1 0x1 AND ISZERO PUSH2 0x100 MUL SUB AND PUSH1 0x2 SWAP1 DIV DUP1 PUSH1 0x1F ADD PUSH1 0x20 DUP1 SWAP2 DIV MUL PUSH1 0x20 ADD PUSH1 0x40 MLOAD SWAP1 DUP2 ADD PUSH1 0x40 MSTORE DUP1 SWAP3 SWAP2 SWAP1 DUP2 DUP2 MSTORE PUSH1 0x20 ADD DUP3 DUP1 SLOAD PUSH1 0x1 DUP2 PUSH1 0x1 AND ISZERO PUSH2 0x100 MUL SUB AND PUSH1 0x2 SWAP1 DIV DUP1 ISZERO PUSH2 0x1FF3 JUMPI DUP1 PUSH1 0x1F LT PUSH2 0x1FC8 JUMPI PUSH2 0x100 DUP1 DUP4 SLOAD DIV MUL DUP4 MSTORE SWAP2 PUSH1 0x20 ADD SWAP2 PUSH2 0x1FF3 JUMP JUMPDEST DUP3 ADD SWAP2 SWAP1 PUSH1 0x0 MSTORE PUSH1 0x20 PUSH1 0x0 KECCAK256 SWAP1 JUMPDEST DUP2 SLOAD DUP2 MSTORE SWAP1 PUSH1 0x1 ADD SWAP1 PUSH1 0x20 ADD DUP1 DUP4 GT PUSH2 0x1FD6 JUMPI DUP3 SWAP1 SUB PUSH1 0x1F AND DUP3 ADD SWAP2 JUMPDEST POP POP POP POP POP SWAP1 DUP1 PUSH1 0x3 ADD PUSH1 0x0 SWAP1 SLOAD SWAP1 PUSH2 0x100 EXP SWAP1 DIV PUSH20 0xFFFFFFFFFFFFFFFFFFFFFFFFFFFFFFFFFFFFFFFF AND SWAP1 DUP1 PUSH1 0x4 ADD DUP1 SLOAD PUSH1 0x1 DUP2 PUSH1 0x1 AND ISZERO PUSH2 0x100 MUL SUB AND PUSH1 0x2 SWAP1 DIV DUP1 PUSH1 0x1F ADD PUSH1 0x20 DUP1 SWAP2 DIV MUL PUSH1 0x20 ADD PUSH1 0x40 MLOAD SWAP1 DUP2 ADD PUSH1 0x40 MSTORE DUP1 SWAP3 SWAP2 SWAP1 DUP2 DUP2 MSTORE PUSH1 0x20 ADD DUP3 DUP1 SLOAD PUSH1 0x1 DUP2 PUSH1 0x1 AND ISZERO PUSH2 0x100 MUL SUB AND PUSH1 0x2 SWAP1 DIV DUP1 ISZERO PUSH2 0x20B7 JUMPI DUP1 PUSH1 0x1F LT PUSH2 0x208C JUMPI PUSH2 0x100 DUP1 DUP4 SLOAD DIV MUL DUP4 MSTORE SWAP2 PUSH1 0x20 ADD SWAP2 PUSH2 0x20B7 JUMP JUMPDEST DUP3 ADD SWAP2 SWAP1 PUSH1 0x0 MSTORE PUSH1 0x20 PUSH1 0x0 KECCAK256 SWAP1 JUMPDEST DUP2 SLOAD DUP2 MSTORE SWAP1 PUSH1 0x1 ADD SWAP1 PUSH1 0x20 ADD DUP1 DUP4 GT PUSH2 0x209A JUMPI DUP3 SWAP1 SUB PUSH1 0x1F AND DUP3 ADD SWAP2 JUMPDEST POP POP POP POP POP SWAP1 DUP1 PUSH1 0x5 ADD SLOAD SWAP1 DUP1 PUSH1 0x6 ADD SLOAD SWAP1 DUP1 PUSH1 0x7 ADD SLOAD SWAP1 POP DUP9 JUMP JUMPDEST PUSH1 0xA PUSH1 0x20 MSTORE DUP3 PUSH1 0x0 MSTORE PUSH1 0x40 PUSH1 0x0 KECCAK256 PUSH1 0x20 MSTORE DUP2 PUSH1 0x0 MSTORE PUSH1 0x40 PUSH1 0x0 KECCAK256 DUP2 DUP2 SLOAD DUP2 LT PUSH2 0x20F8 JUMPI INVALID JUMPDEST SWAP1 PUSH1 0x0 MSTORE PUSH1 0x20 PUSH1 0x0 KECCAK256 SWAP1 PUSH1 0x8 MUL ADD PUSH1 0x0 SWAP3 POP SWAP3 POP POP POP DUP1 PUSH1 0x0 ADD DUP1 SLOAD PUSH1 0x1 DUP2 PUSH1 0x1 AND ISZERO PUSH2 0x100 MUL SUB AND PUSH1 0x2 SWAP1 DIV DUP1 PUSH1 0x1F ADD PUSH1 0x20 DUP1 SWAP2 DIV MUL PUSH1 0x20 ADD PUSH1 0x40 MLOAD SWAP1 DUP2 ADD PUSH1 0x40 MSTORE DUP1 SWAP3 SWAP2 SWAP1 DUP2 DUP2 MSTORE PUSH1 0x20 ADD DUP3 DUP1 SLOAD PUSH1 0x1 DUP2 PUSH1 0x1 AND ISZERO PUSH2 0x100 MUL SUB AND PUSH1 0x2 SWAP1 DIV DUP1 ISZERO PUSH2 0x21A6 JUMPI DUP1 PUSH1 0x1F LT PUSH2 0x217B JUMPI PUSH2 0x100 DUP1 DUP4 SLOAD DIV MUL DUP4 MSTORE SWAP2 PUSH1 0x20 ADD SWAP2 PUSH2 0x21A6 JUMP JUMPDEST DUP3 ADD SWAP2 SWAP1 PUSH1 0x0 MSTORE PUSH1 0x20 PUSH1 0x0 KECCAK256 SWAP1 JUMPDEST DUP2 SLOAD DUP2 MSTORE SWAP1 PUSH1 0x1 ADD SWAP1 PUSH1 0x20 ADD DUP1 DUP4 GT PUSH2 0x2189 JUMPI DUP3 SWAP1 SUB PUSH1 0x1F AND DUP3 ADD SWAP2 JUMPDEST POP POP POP POP POP SWAP1 DUP1 PUSH1 0x1 ADD PUSH1 0x0 SWAP1 SLOAD SWAP1 PUSH2 0x100 EXP SWAP1 DIV PUSH20 0xFFFFFFFFFFFFFFFFFFFFFFFFFFFFFFFFFFFFFFFF AND SWAP1 DUP1 PUSH1 0x2 ADD DUP1 SLOAD PUSH1 0x1 DUP2 PUSH1 0x1 AND ISZERO PUSH2 0x100 MUL SUB AND PUSH1 0x2 SWAP1 DIV DUP1 PUSH1 0x1F ADD PUSH1 0x20 DUP1 SWAP2 DIV MUL PUSH1 0x20 ADD PUSH1 0x40 MLOAD SWAP1 DUP2 ADD PUSH1 0x40 MSTORE DUP1 SWAP3 SWAP2 SWAP1 DUP2 DUP2 MSTORE PUSH1 0x20 ADD DUP3 DUP1 SLOAD PUSH1 0x1 DUP2 PUSH1 0x1 AND ISZERO PUSH2 0x100 MUL SUB AND PUSH1 0x2 SWAP1 DIV DUP1 ISZERO PUSH2 0x226A JUMPI DUP1 PUSH1 0x1F LT PUSH2 0x223F JUMPI PUSH2 0x100 DUP1 DUP4 SLOAD DIV MUL DUP4 MSTORE SWAP2 PUSH1 0x20 ADD SWAP2 PUSH2 0x226A JUMP JUMPDEST DUP3 ADD SWAP2 SWAP1 PUSH1 0x0 MSTORE PUSH1 0x20 PUSH1 0x0 KECCAK256 SWAP1 JUMPDEST DUP2 SLOAD DUP2 MSTORE SWAP1 PUSH1 0x1 ADD SWAP1 PUSH1 0x20 ADD DUP1 DUP4 GT PUSH2 0x224D JUMPI DUP3 SWAP1 SUB PUSH1 0x1F AND DUP3 ADD SWAP2 JUMPDEST POP POP POP POP POP SWAP1 DUP1 PUSH1 0x3 ADD PUSH1 0x0 SWAP1 SLOAD SWAP1 PUSH2 0x100 EXP SWAP1 DIV PUSH20 0xFFFFFFFFFFFFFFFFFFFFFFFFFFFFFFFFFFFFFFFF AND SWAP1 DUP1 PUSH1 0x4 ADD DUP1 SLOAD PUSH1 0x1 DUP2 PUSH1 0x1 AND ISZERO PUSH2 0x100 MUL SUB AND PUSH1 0x2 SWAP1 DIV DUP1 PUSH1 0x1F ADD PUSH1 0x20 DUP1 SWAP2 DIV MUL PUSH1 0x20 ADD PUSH1 0x40 MLOAD SWAP1 DUP2 ADD PUSH1 0x40 MSTORE DUP1 SWAP3 SWAP2 SWAP1 DUP2 DUP2 MSTORE PUSH1 0x20 ADD DUP3 DUP1 SLOAD PUSH1 0x1 DUP2 PUSH1 0x1 AND ISZERO PUSH2 0x100 MUL SUB AND PUSH1 0x2 SWAP1 DIV DUP1 ISZERO PUSH2 0x232E JUMPI DUP1 PUSH1 0x1F LT PUSH2 0x2303 JUMPI PUSH2 0x100 DUP1 DUP4 SLOAD DIV MUL DUP4 MSTORE SWAP2 PUSH1 0x20 ADD SWAP2 PUSH2 0x232E JUMP JUMPDEST DUP3 ADD SWAP2 SWAP1 PUSH1 0x0 MSTORE PUSH1 0x20 PUSH1 0x0 KECCAK256 SWAP1 JUMPDEST DUP2 SLOAD DUP2 MSTORE SWAP1 PUSH1 0x1 ADD SWAP1 PUSH1 0x20 ADD DUP1 DUP4 GT PUSH2 0x2311 JUMPI DUP3 SWAP1 SUB PUSH1 0x1F AND DUP3 ADD SWAP2 JUMPDEST POP POP POP POP POP SWAP1 DUP1 PUSH1 0x5 ADD SLOAD SWAP1 DUP1 PUSH1 0x6 ADD SLOAD SWAP1 DUP1 PUSH1 0x7 ADD SLOAD SWAP1 POP DUP9 JUMP JUMPDEST PUSH1 0x0 PUSH1 0xC PUSH1 0x0 CALLER PUSH20 0xFFFFFFFFFFFFFFFFFFFFFFFFFFFFFFFFFFFFFFFF AND PUSH20 0xFFFFFFFFFFFFFFFFFFFFFFFFFFFFFFFFFFFFFFFF AND DUP2 MSTORE PUSH1 0x20 ADD SWAP1 DUP2 MSTORE PUSH1 0x20 ADD PUSH1 0x0 KECCAK256 PUSH1 0x0 DUP4 DUP2 MSTORE PUSH1 0x20 ADD SWAP1 DUP2 MSTORE PUSH1 0x20 ADD PUSH1 0x0 KECCAK256 SLOAD SWAP1 POP DUP3 PUSH20 0xFFFFFFFFFFFFFFFFFFFFFFFFFFFFFFFFFFFFFFFF AND PUSH1 0x8 PUSH1 0x0 CALLER PUSH20 0xFFFFFFFFFFFFFFFFFFFFFFFFFFFFFFFFFFFFFFFF AND PUSH20 0xFFFFFFFFFFFFFFFFFFFFFFFFFFFFFFFFFFFFFFFF AND DUP2 MSTORE PUSH1 0x20 ADD SWAP1 DUP2 MSTORE PUSH1 0x20 ADD PUSH1 0x0 KECCAK256 DUP3 DUP2 SLOAD DUP2 LT PUSH2 0x2400 JUMPI INVALID JUMPDEST SWAP1 PUSH1 0x0 MSTORE PUSH1 0x20 PUSH1 0x0 KECCAK256 SWAP1 PUSH1 0x4 MUL ADD PUSH1 0x0 ADD PUSH1 0x1 SWAP1 SLOAD SWAP1 PUSH2 0x100 EXP SWAP1 DIV PUSH20 0xFFFFFFFFFFFFFFFFFFFFFFFFFFFFFFFFFFFFFFFF AND PUSH20 0xFFFFFFFFFFFFFFFFFFFFFFFFFFFFFFFFFFFFFFFF AND EQ PUSH2 0x2452 JUMPI PUSH1 0x0 DUP1 REVERT JUMPDEST PUSH1 0x1 PUSH1 0x5 DUP2 GT ISZERO PUSH2 0x245F JUMPI INVALID JUMPDEST PUSH1 0x8 PUSH1 0x0 CALLER PUSH20 0xFFFFFFFFFFFFFFFFFFFFFFFFFFFFFFFFFFFFFFFF AND PUSH20 0xFFFFFFFFFFFFFFFFFFFFFFFFFFFFFFFFFFFFFFFF AND DUP2 MSTORE PUSH1 0x20 ADD SWAP1 DUP2 MSTORE PUSH1 0x20 ADD PUSH1 0x0 KECCAK256 DUP3 DUP2 SLOAD DUP2 LT PUSH2 0x24A9 JUMPI INVALID JUMPDEST SWAP1 PUSH1 0x0 MSTORE PUSH1 0x20 PUSH1 0x0 KECCAK256 SWAP1 PUSH1 0x4 MUL ADD PUSH1 0x0 ADD PUSH1 0x0 SWAP1 SLOAD SWAP1 PUSH2 0x100 EXP SWAP1 DIV PUSH1 0xFF AND PUSH1 0x5 DUP2 GT ISZERO PUSH2 0x24D3 JUMPI INVALID JUMPDEST EQ PUSH2 0x24DD JUMPI PUSH1 0x0 DUP1 REVERT JUMPDEST PUSH1 0x1 ISZERO ISZERO PUSH1 0x8 PUSH1 0x0 CALLER PUSH20 0xFFFFFFFFFFFFFFFFFFFFFFFFFFFFFFFFFFFFFFFF AND PUSH20 0xFFFFFFFFFFFFFFFFFFFFFFFFFFFFFFFFFFFFFFFF AND DUP2 MSTORE PUSH1 0x20 ADD SWAP1 DUP2 MSTORE PUSH1 0x20 ADD PUSH1 0x0 KECCAK256 DUP3 DUP2 SLOAD DUP2 LT PUSH2 0x252B JUMPI INVALID JUMPDEST SWAP1 PUSH1 0x0 MSTORE PUSH1 0x20 PUSH1 0x0 KECCAK256 SWAP1 PUSH1 0x4 MUL ADD PUSH1 0x3 ADD PUSH1 0x0 SWAP1 SLOAD SWAP1 PUSH2 0x100 EXP SWAP1 DIV PUSH1 0xFF AND ISZERO ISZERO EQ PUSH2 0x2556 JUMPI PUSH1 0x0 DUP1 REVERT JUMPDEST PUSH2 0x255E PUSH2 0x3EF3 JUMP JUMPDEST CALLER DUP2 PUSH1 0x20 ADD SWAP1 PUSH20 0xFFFFFFFFFFFFFFFFFFFFFFFFFFFFFFFFFFFFFFFF AND SWAP1 DUP2 PUSH20 0xFFFFFFFFFFFFFFFFFFFFFFFFFFFFFFFFFFFFFFFF AND DUP2 MSTORE POP POP DUP6 DUP2 PUSH1 0xA0 ADD DUP2 DUP2 MSTORE POP POP TIMESTAMP DUP2 PUSH1 0xC0 ADD DUP2 DUP2 MSTORE POP POP DUP5 DUP2 PUSH1 0x80 ADD DUP2 SWAP1 MSTORE POP DUP7 ISZERO PUSH2 0x28F4 JUMPI PUSH1 0x9 PUSH1 0x0 CALLER PUSH20 0xFFFFFFFFFFFFFFFFFFFFFFFFFFFFFFFFFFFFFFFF AND PUSH20 0xFFFFFFFFFFFFFFFFFFFFFFFFFFFFFFFFFFFFFFFF AND DUP2 MSTORE PUSH1 0x20 ADD SWAP1 DUP2 MSTORE PUSH1 0x20 ADD PUSH1 0x0 KECCAK256 PUSH1 0x0 DUP6 PUSH20 0xFFFFFFFFFFFFFFFFFFFFFFFFFFFFFFFFFFFFFFFF AND PUSH20 0xFFFFFFFFFFFFFFFFFFFFFFFFFFFFFFFFFFFFFFFF AND DUP2 MSTORE PUSH1 0x20 ADD SWAP1 DUP2 MSTORE PUSH1 0x20 ADD PUSH1 0x0 KECCAK256 DUP2 SWAP1 DUP1 PUSH1 0x1 DUP2 SLOAD ADD DUP1 DUP3 SSTORE DUP1 SWAP2 POP POP PUSH1 0x1 SWAP1 SUB SWAP1 PUSH1 0x0 MSTORE PUSH1 0x20 PUSH1 0x0 KECCAK256 SWAP1 PUSH1 0x8 MUL ADD PUSH1 0x0 SWAP1 SWAP2 SWAP1 SWAP2 SWAP1 SWAP2 POP PUSH1 0x0 DUP3 ADD MLOAD DUP2 PUSH1 0x0 ADD SWAP1 DUP1 MLOAD SWAP1 PUSH1 0x20 ADD SWAP1 PUSH2 0x267B SWAP3 SWAP2 SWAP1 PUSH2 0x3E73 JUMP JUMPDEST POP PUSH1 0x20 DUP3 ADD MLOAD DUP2 PUSH1 0x1 ADD PUSH1 0x0 PUSH2 0x100 EXP DUP2 SLOAD DUP2 PUSH20 0xFFFFFFFFFFFFFFFFFFFFFFFFFFFFFFFFFFFFFFFF MUL NOT AND SWAP1 DUP4 PUSH20 0xFFFFFFFFFFFFFFFFFFFFFFFFFFFFFFFFFFFFFFFF AND MUL OR SWAP1 SSTORE POP PUSH1 0x40 DUP3 ADD MLOAD DUP2 PUSH1 0x2 ADD SWAP1 DUP1 MLOAD SWAP1 PUSH1 0x20 ADD SWAP1 PUSH2 0x26DF SWAP3 SWAP2 SWAP1 PUSH2 0x3E73 JUMP JUMPDEST POP PUSH1 0x60 DUP3 ADD MLOAD DUP2 PUSH1 0x3 ADD PUSH1 0x0 PUSH2 0x100 EXP DUP2 SLOAD DUP2 PUSH20 0xFFFFFFFFFFFFFFFFFFFFFFFFFFFFFFFFFFFFFFFF MUL NOT AND SWAP1 DUP4 PUSH20 0xFFFFFFFFFFFFFFFFFFFFFFFFFFFFFFFFFFFFFFFF AND MUL OR SWAP1 SSTORE POP PUSH1 0x80 DUP3 ADD MLOAD DUP2 PUSH1 0x4 ADD SWAP1 DUP1 MLOAD SWAP1 PUSH1 0x20 ADD SWAP1 PUSH2 0x2743 SWAP3 SWAP2 SWAP1 PUSH2 0x3E73 JUMP JUMPDEST POP PUSH1 0xA0 DUP3 ADD MLOAD DUP2 PUSH1 0x5 ADD SSTORE PUSH1 0xC0 DUP3 ADD MLOAD DUP2 PUSH1 0x6 ADD SSTORE PUSH1 0xE0 DUP3 ADD MLOAD DUP2 PUSH1 0x7 ADD SSTORE POP POP PUSH1 0x1 PUSH1 0x9 PUSH1 0x0 CALLER PUSH20 0xFFFFFFFFFFFFFFFFFFFFFFFFFFFFFFFFFFFFFFFF AND PUSH20 0xFFFFFFFFFFFFFFFFFFFFFFFFFFFFFFFFFFFFFFFF AND DUP2 MSTORE PUSH1 0x20 ADD SWAP1 DUP2 MSTORE PUSH1 0x20 ADD PUSH1 0x0 KECCAK256 PUSH1 0x0 DUP7 PUSH20 0xFFFFFFFFFFFFFFFFFFFFFFFFFFFFFFFFFFFFFFFF AND PUSH20 0xFFFFFFFFFFFFFFFFFFFFFFFFFFFFFFFFFFFFFFFF AND DUP2 MSTORE PUSH1 0x20 ADD SWAP1 DUP2 MSTORE PUSH1 0x20 ADD PUSH1 0x0 KECCAK256 DUP1 SLOAD SWAP1 POP SUB PUSH1 0xE PUSH1 0x0 CALLER PUSH20 0xFFFFFFFFFFFFFFFFFFFFFFFFFFFFFFFFFFFFFFFF AND PUSH20 0xFFFFFFFFFFFFFFFFFFFFFFFFFFFFFFFFFFFFFFFF AND DUP2 MSTORE PUSH1 0x20 ADD SWAP1 DUP2 MSTORE PUSH1 0x20 ADD PUSH1 0x0 KECCAK256 PUSH1 0x0 DUP6 DUP2 MSTORE PUSH1 0x20 ADD SWAP1 DUP2 MSTORE PUSH1 0x20 ADD PUSH1 0x0 KECCAK256 DUP2 SWAP1 SSTORE POP PUSH1 0x4 PUSH1 0x8 PUSH1 0x0 CALLER PUSH20 0xFFFFFFFFFFFFFFFFFFFFFFFFFFFFFFFFFFFFFFFF AND PUSH20 0xFFFFFFFFFFFFFFFFFFFFFFFFFFFFFFFFFFFFFFFF AND DUP2 MSTORE PUSH1 0x20 ADD SWAP1 DUP2 MSTORE PUSH1 0x20 ADD PUSH1 0x0 KECCAK256 DUP4 DUP2 SLOAD DUP2 LT PUSH2 0x2887 JUMPI INVALID JUMPDEST SWAP1 PUSH1 0x0 MSTORE PUSH1 0x20 PUSH1 0x0 KECCAK256 SWAP1 PUSH1 0x4 MUL ADD PUSH1 0x0 ADD PUSH1 0x0 PUSH2 0x100 EXP DUP2 SLOAD DUP2 PUSH1 0xFF MUL NOT AND SWAP1 DUP4 PUSH1 0x5 DUP2 GT ISZERO PUSH2 0x28B3 JUMPI INVALID JUMPDEST MUL OR SWAP1 SSTORE POP PUSH32 0x9284A3A973DDFF1D3E244C1E83925819C36925FB080960EB3F826BF9BB9BF210 DUP5 PUSH1 0x40 MLOAD PUSH2 0x28E7 SWAP2 SWAP1 PUSH2 0x4F2F JUMP JUMPDEST PUSH1 0x40 MLOAD DUP1 SWAP2 SUB SWAP1 LOG1 PUSH2 0x2C2B JUMP JUMPDEST PUSH1 0xA PUSH1 0x0 CALLER PUSH20 0xFFFFFFFFFFFFFFFFFFFFFFFFFFFFFFFFFFFFFFFF AND PUSH20 0xFFFFFFFFFFFFFFFFFFFFFFFFFFFFFFFFFFFFFFFF AND DUP2 MSTORE PUSH1 0x20 ADD SWAP1 DUP2 MSTORE PUSH1 0x20 ADD PUSH1 0x0 KECCAK256 PUSH1 0x0 DUP6 PUSH20 0xFFFFFFFFFFFFFFFFFFFFFFFFFFFFFFFFFFFFFFFF AND PUSH20 0xFFFFFFFFFFFFFFFFFFFFFFFFFFFFFFFFFFFFFFFF AND DUP2 MSTORE PUSH1 0x20 ADD SWAP1 DUP2 MSTORE PUSH1 0x20 ADD PUSH1 0x0 KECCAK256 DUP2 SWAP1 DUP1 PUSH1 0x1 DUP2 SLOAD ADD DUP1 DUP3 SSTORE DUP1 SWAP2 POP POP PUSH1 0x1 SWAP1 SUB SWAP1 PUSH1 0x0 MSTORE PUSH1 0x20 PUSH1 0x0 KECCAK256 SWAP1 PUSH1 0x8 MUL ADD PUSH1 0x0 SWAP1 SWAP2 SWAP1 SWAP2 SWAP1 SWAP2 POP PUSH1 0x0 DUP3 ADD MLOAD DUP2 PUSH1 0x0 ADD SWAP1 DUP1 MLOAD SWAP1 PUSH1 0x20 ADD SWAP1 PUSH2 0x29B6 SWAP3 SWAP2 SWAP1 PUSH2 0x3E73 JUMP JUMPDEST POP PUSH1 0x20 DUP3 ADD MLOAD DUP2 PUSH1 0x1 ADD PUSH1 0x0 PUSH2 0x100 EXP DUP2 SLOAD DUP2 PUSH20 0xFFFFFFFFFFFFFFFFFFFFFFFFFFFFFFFFFFFFFFFF MUL NOT AND SWAP1 DUP4 PUSH20 0xFFFFFFFFFFFFFFFFFFFFFFFFFFFFFFFFFFFFFFFF AND MUL OR SWAP1 SSTORE POP PUSH1 0x40 DUP3 ADD MLOAD DUP2 PUSH1 0x2 ADD SWAP1 DUP1 MLOAD SWAP1 PUSH1 0x20 ADD SWAP1 PUSH2 0x2A1A SWAP3 SWAP2 SWAP1 PUSH2 0x3E73 JUMP JUMPDEST POP PUSH1 0x60 DUP3 ADD MLOAD DUP2 PUSH1 0x3 ADD PUSH1 0x0 PUSH2 0x100 EXP DUP2 SLOAD DUP2 PUSH20 0xFFFFFFFFFFFFFFFFFFFFFFFFFFFFFFFFFFFFFFFF MUL NOT AND SWAP1 DUP4 PUSH20 0xFFFFFFFFFFFFFFFFFFFFFFFFFFFFFFFFFFFFFFFF AND MUL OR SWAP1 SSTORE POP PUSH1 0x80 DUP3 ADD MLOAD DUP2 PUSH1 0x4 ADD SWAP1 DUP1 MLOAD SWAP1 PUSH1 0x20 ADD SWAP1 PUSH2 0x2A7E SWAP3 SWAP2 SWAP1 PUSH2 0x3E73 JUMP JUMPDEST POP PUSH1 0xA0 DUP3 ADD MLOAD DUP2 PUSH1 0x5 ADD SSTORE PUSH1 0xC0 DUP3 ADD MLOAD DUP2 PUSH1 0x6 ADD SSTORE PUSH1 0xE0 DUP3 ADD MLOAD DUP2 PUSH1 0x7 ADD SSTORE POP POP PUSH1 0x1 PUSH1 0xA PUSH1 0x0 CALLER PUSH20 0xFFFFFFFFFFFFFFFFFFFFFFFFFFFFFFFFFFFFFFFF AND PUSH20 0xFFFFFFFFFFFFFFFFFFFFFFFFFFFFFFFFFFFFFFFF AND DUP2 MSTORE PUSH1 0x20 ADD SWAP1 DUP2 MSTORE PUSH1 0x20 ADD PUSH1 0x0 KECCAK256 PUSH1 0x0 DUP7 PUSH20 0xFFFFFFFFFFFFFFFFFFFFFFFFFFFFFFFFFFFFFFFF AND PUSH20 0xFFFFFFFFFFFFFFFFFFFFFFFFFFFFFFFFFFFFFFFF AND DUP2 MSTORE PUSH1 0x20 ADD SWAP1 DUP2 MSTORE PUSH1 0x20 ADD PUSH1 0x0 KECCAK256 DUP1 SLOAD SWAP1 POP SUB PUSH1 0xE PUSH1 0x0 CALLER PUSH20 0xFFFFFFFFFFFFFFFFFFFFFFFFFFFFFFFFFFFFFFFF AND PUSH20 0xFFFFFFFFFFFFFFFFFFFFFFFFFFFFFFFFFFFFFFFF AND DUP2 MSTORE PUSH1 0x20 ADD SWAP1 DUP2 MSTORE PUSH1 0x20 ADD PUSH1 0x0 KECCAK256 PUSH1 0x0 DUP6 DUP2 MSTORE PUSH1 0x20 ADD SWAP1 DUP2 MSTORE PUSH1 0x20 ADD PUSH1 0x0 KECCAK256 DUP2 SWAP1 SSTORE POP PUSH1 0x5 PUSH1 0x8 PUSH1 0x0 CALLER PUSH20 0xFFFFFFFFFFFFFFFFFFFFFFFFFFFFFFFFFFFFFFFF AND PUSH20 0xFFFFFFFFFFFFFFFFFFFFFFFFFFFFFFFFFFFFFFFF AND DUP2 MSTORE PUSH1 0x20 ADD SWAP1 DUP2 MSTORE PUSH1 0x20 ADD PUSH1 0x0 KECCAK256 DUP4 DUP2 SLOAD DUP2 LT PUSH2 0x2BC2 JUMPI INVALID JUMPDEST SWAP1 PUSH1 0x0 MSTORE PUSH1 0x20 PUSH1 0x0 KECCAK256 SWAP1 PUSH1 0x4 MUL ADD PUSH1 0x0 ADD PUSH1 0x0 PUSH2 0x100 EXP DUP2 SLOAD DUP2 PUSH1 0xFF MUL NOT AND SWAP1 DUP4 PUSH1 0x5 DUP2 GT ISZERO PUSH2 0x2BEE JUMPI INVALID JUMPDEST MUL OR SWAP1 SSTORE POP PUSH32 0x3B749FD3ED05012AA59143F387DB1A9F0AD29515177C5476B7DE22989D3D4FFE DUP5 PUSH1 0x40 MLOAD PUSH2 0x2C22 SWAP2 SWAP1 PUSH2 0x4ED3 JUMP JUMPDEST PUSH1 0x40 MLOAD DUP1 SWAP2 SUB SWAP1 LOG1 JUMPDEST POP POP POP POP POP POP POP JUMP JUMPDEST PUSH1 0x0 DUP1 SWAP1 SLOAD SWAP1 PUSH2 0x100 EXP SWAP1 DIV PUSH20 0xFFFFFFFFFFFFFFFFFFFFFFFFFFFFFFFFFFFFFFFF AND PUSH20 0xFFFFFFFFFFFFFFFFFFFFFFFFFFFFFFFFFFFFFFFF AND CALLER PUSH20 0xFFFFFFFFFFFFFFFFFFFFFFFFFFFFFFFFFFFFFFFF AND EQ PUSH2 0x2C8D JUMPI PUSH1 0x0 DUP1 REVERT JUMPDEST PUSH1 0x0 DUP2 SWAP1 POP PUSH1 0x60 DUP2 PUSH20 0xFFFFFFFFFFFFFFFFFFFFFFFFFFFFFFFFFFFFFFFF AND PUSH4 0x8CBA76B1 PUSH1 0x1 PUSH1 0x0 SWAP1 SLOAD SWAP1 PUSH2 0x100 EXP SWAP1 DIV PUSH20 0xFFFFFFFFFFFFFFFFFFFFFFFFFFFFFFFFFFFFFFFF AND PUSH1 0x40 MLOAD DUP3 PUSH4 0xFFFFFFFF AND PUSH1 0xE0 SHL DUP2 MSTORE PUSH1 0x4 ADD PUSH2 0x2CEF SWAP2 SWAP1 PUSH2 0x4C4D JUMP JUMPDEST PUSH1 0x0 PUSH1 0x40 MLOAD DUP1 DUP4 SUB DUP2 DUP7 DUP1 EXTCODESIZE ISZERO DUP1 ISZERO PUSH2 0x2D07 JUMPI PUSH1 0x0 DUP1 REVERT JUMPDEST POP GAS STATICCALL ISZERO DUP1 ISZERO PUSH2 0x2D1B JUMPI RETURNDATASIZE PUSH1 0x0 DUP1 RETURNDATACOPY RETURNDATASIZE PUSH1 0x0 REVERT JUMPDEST POP POP POP POP PUSH1 0x40 MLOAD RETURNDATASIZE PUSH1 0x0 DUP3 RETURNDATACOPY RETURNDATASIZE PUSH1 0x1F NOT PUSH1 0x1F DUP3 ADD AND DUP3 ADD DUP1 PUSH1 0x40 MSTORE POP DUP2 ADD SWAP1 PUSH2 0x2D44 SWAP2 SWAP1 PUSH2 0x43F2 JUMP JUMPDEST SWAP1 POP PUSH1 0x40 MLOAD PUSH1 0x20 ADD PUSH2 0x2D55 SWAP1 PUSH2 0x4B34 JUMP JUMPDEST PUSH1 0x40 MLOAD PUSH1 0x20 DUP2 DUP4 SUB SUB DUP2 MSTORE SWAP1 PUSH1 0x40 MSTORE DUP1 MLOAD SWAP1 PUSH1 0x20 ADD KECCAK256 DUP2 PUSH1 0x40 MLOAD PUSH1 0x20 ADD PUSH2 0x2D7C SWAP2 SWAP1 PUSH2 0x4B1D JUMP JUMPDEST PUSH1 0x40 MLOAD PUSH1 0x20 DUP2 DUP4 SUB SUB DUP2 MSTORE SWAP1 PUSH1 0x40 MSTORE DUP1 MLOAD SWAP1 PUSH1 0x20 ADD KECCAK256 EQ PUSH2 0x2D9C JUMPI PUSH1 0x0 DUP1 REVERT JUMPDEST POP POP POP JUMP JUMPDEST PUSH1 0x0 PUSH1 0xC PUSH1 0x0 DUP5 PUSH20 0xFFFFFFFFFFFFFFFFFFFFFFFFFFFFFFFFFFFFFFFF AND PUSH20 0xFFFFFFFFFFFFFFFFFFFFFFFFFFFFFFFFFFFFFFFF AND DUP2 MSTORE PUSH1 0x20 ADD SWAP1 DUP2 MSTORE PUSH1 0x20 ADD PUSH1 0x0 KECCAK256 PUSH1 0x0 DUP4 DUP2 MSTORE PUSH1 0x20 ADD SWAP1 DUP2 MSTORE PUSH1 0x20 ADD PUSH1 0x0 KECCAK256 SLOAD SWAP1 POP CALLER PUSH20 0xFFFFFFFFFFFFFFFFFFFFFFFFFFFFFFFFFFFFFFFF AND PUSH1 0x8 PUSH1 0x0 DUP6 PUSH20 0xFFFFFFFFFFFFFFFFFFFFFFFFFFFFFFFFFFFFFFFF AND PUSH20 0xFFFFFFFFFFFFFFFFFFFFFFFFFFFFFFFFFFFFFFFF AND DUP2 MSTORE PUSH1 0x20 ADD SWAP1 DUP2 MSTORE PUSH1 0x20 ADD PUSH1 0x0 KECCAK256 DUP3 DUP2 SLOAD DUP2 LT PUSH2 0x2E57 JUMPI INVALID JUMPDEST SWAP1 PUSH1 0x0 MSTORE PUSH1 0x20 PUSH1 0x0 KECCAK256 SWAP1 PUSH1 0x4 MUL ADD PUSH1 0x0 ADD PUSH1 0x1 SWAP1 SLOAD SWAP1 PUSH2 0x100 EXP SWAP1 DIV PUSH20 0xFFFFFFFFFFFFFFFFFFFFFFFFFFFFFFFFFFFFFFFF AND PUSH20 0xFFFFFFFFFFFFFFFFFFFFFFFFFFFFFFFFFFFFFFFF AND EQ PUSH2 0x2EA9 JUMPI PUSH1 0x0 DUP1 REVERT JUMPDEST PUSH1 0x1 PUSH1 0x5 DUP2 GT ISZERO PUSH2 0x2EB6 JUMPI INVALID JUMPDEST PUSH1 0x8 PUSH1 0x0 DUP6 PUSH20 0xFFFFFFFFFFFFFFFFFFFFFFFFFFFFFFFFFFFFFFFF AND PUSH20 0xFFFFFFFFFFFFFFFFFFFFFFFFFFFFFFFFFFFFFFFF AND DUP2 MSTORE PUSH1 0x20 ADD SWAP1 DUP2 MSTORE PUSH1 0x20 ADD PUSH1 0x0 KECCAK256 DUP3 DUP2 SLOAD DUP2 LT PUSH2 0x2F00 JUMPI INVALID JUMPDEST SWAP1 PUSH1 0x0 MSTORE PUSH1 0x20 PUSH1 0x0 KECCAK256 SWAP1 PUSH1 0x4 MUL ADD PUSH1 0x0 ADD PUSH1 0x0 SWAP1 SLOAD SWAP1 PUSH2 0x100 EXP SWAP1 DIV PUSH1 0xFF AND PUSH1 0x5 DUP2 GT ISZERO PUSH2 0x2F2A JUMPI INVALID JUMPDEST EQ PUSH2 0x2F34 JUMPI PUSH1 0x0 DUP1 REVERT JUMPDEST PUSH2 0x2F3C PUSH2 0x3EF3 JUMP JUMPDEST CALLER DUP2 PUSH1 0x20 ADD SWAP1 PUSH20 0xFFFFFFFFFFFFFFFFFFFFFFFFFFFFFFFFFFFFFFFF AND SWAP1 DUP2 PUSH20 0xFFFFFFFFFFFFFFFFFFFFFFFFFFFFFFFFFFFFFFFF AND DUP2 MSTORE POP POP DUP6 DUP2 PUSH1 0xA0 ADD DUP2 DUP2 MSTORE POP POP TIMESTAMP DUP2 PUSH1 0xC0 ADD DUP2 DUP2 MSTORE POP POP DUP5 DUP2 PUSH1 0x80 ADD DUP2 SWAP1 MSTORE POP PUSH1 0xB PUSH1 0x0 CALLER PUSH20 0xFFFFFFFFFFFFFFFFFFFFFFFFFFFFFFFFFFFFFFFF AND PUSH20 0xFFFFFFFFFFFFFFFFFFFFFFFFFFFFFFFFFFFFFFFF AND DUP2 MSTORE PUSH1 0x20 ADD SWAP1 DUP2 MSTORE PUSH1 0x20 ADD PUSH1 0x0 KECCAK256 PUSH1 0x0 DUP6 PUSH20 0xFFFFFFFFFFFFFFFFFFFFFFFFFFFFFFFFFFFFFFFF AND PUSH20 0xFFFFFFFFFFFFFFFFFFFFFFFFFFFFFFFFFFFFFFFF AND DUP2 MSTORE PUSH1 0x20 ADD SWAP1 DUP2 MSTORE PUSH1 0x20 ADD PUSH1 0x0 KECCAK256 DUP2 SWAP1 DUP1 PUSH1 0x1 DUP2 SLOAD ADD DUP1 DUP3 SSTORE DUP1 SWAP2 POP POP PUSH1 0x1 SWAP1 SUB SWAP1 PUSH1 0x0 MSTORE PUSH1 0x20 PUSH1 0x0 KECCAK256 SWAP1 PUSH1 0x8 MUL ADD PUSH1 0x0 SWAP1 SWAP2 SWAP1 SWAP2 SWAP1 SWAP2 POP PUSH1 0x0 DUP3 ADD MLOAD DUP2 PUSH1 0x0 ADD SWAP1 DUP1 MLOAD SWAP1 PUSH1 0x20 ADD SWAP1 PUSH2 0x3053 SWAP3 SWAP2 SWAP1 PUSH2 0x3E73 JUMP JUMPDEST POP PUSH1 0x20 DUP3 ADD MLOAD DUP2 PUSH1 0x1 ADD PUSH1 0x0 PUSH2 0x100 EXP DUP2 SLOAD DUP2 PUSH20 0xFFFFFFFFFFFFFFFFFFFFFFFFFFFFFFFFFFFFFFFF MUL NOT AND SWAP1 DUP4 PUSH20 0xFFFFFFFFFFFFFFFFFFFFFFFFFFFFFFFFFFFFFFFF AND MUL OR SWAP1 SSTORE POP PUSH1 0x40 DUP3 ADD MLOAD DUP2 PUSH1 0x2 ADD SWAP1 DUP1 MLOAD SWAP1 PUSH1 0x20 ADD SWAP1 PUSH2 0x30B7 SWAP3 SWAP2 SWAP1 PUSH2 0x3E73 JUMP JUMPDEST POP PUSH1 0x60 DUP3 ADD MLOAD DUP2 PUSH1 0x3 ADD PUSH1 0x0 PUSH2 0x100 EXP DUP2 SLOAD DUP2 PUSH20 0xFFFFFFFFFFFFFFFFFFFFFFFFFFFFFFFFFFFFFFFF MUL NOT AND SWAP1 DUP4 PUSH20 0xFFFFFFFFFFFFFFFFFFFFFFFFFFFFFFFFFFFFFFFF AND MUL OR SWAP1 SSTORE POP PUSH1 0x80 DUP3 ADD MLOAD DUP2 PUSH1 0x4 ADD SWAP1 DUP1 MLOAD SWAP1 PUSH1 0x20 ADD SWAP1 PUSH2 0x311B SWAP3 SWAP2 SWAP1 PUSH2 0x3E73 JUMP JUMPDEST POP PUSH1 0xA0 DUP3 ADD MLOAD DUP2 PUSH1 0x5 ADD SSTORE PUSH1 0xC0 DUP3 ADD MLOAD DUP2 PUSH1 0x6 ADD SSTORE PUSH1 0xE0 DUP3 ADD MLOAD DUP2 PUSH1 0x7 ADD SSTORE POP POP PUSH1 0x1 PUSH1 0xB PUSH1 0x0 CALLER PUSH20 0xFFFFFFFFFFFFFFFFFFFFFFFFFFFFFFFFFFFFFFFF AND PUSH20 0xFFFFFFFFFFFFFFFFFFFFFFFFFFFFFFFFFFFFFFFF AND DUP2 MSTORE PUSH1 0x20 ADD SWAP1 DUP2 MSTORE PUSH1 0x20 ADD PUSH1 0x0 KECCAK256 PUSH1 0x0 DUP7 PUSH20 0xFFFFFFFFFFFFFFFFFFFFFFFFFFFFFFFFFFFFFFFF AND PUSH20 0xFFFFFFFFFFFFFFFFFFFFFFFFFFFFFFFFFFFFFFFF AND DUP2 MSTORE PUSH1 0x20 ADD SWAP1 DUP2 MSTORE PUSH1 0x20 ADD PUSH1 0x0 KECCAK256 DUP1 SLOAD SWAP1 POP SUB PUSH1 0xD PUSH1 0x0 CALLER PUSH20 0xFFFFFFFFFFFFFFFFFFFFFFFFFFFFFFFFFFFFFFFF AND PUSH20 0xFFFFFFFFFFFFFFFFFFFFFFFFFFFFFFFFFFFFFFFF AND DUP2 MSTORE PUSH1 0x20 ADD SWAP1 DUP2 MSTORE PUSH1 0x20 ADD PUSH1 0x0 KECCAK256 PUSH1 0x0 DUP7 PUSH20 0xFFFFFFFFFFFFFFFFFFFFFFFFFFFFFFFFFFFFFFFF AND PUSH20 0xFFFFFFFFFFFFFFFFFFFFFFFFFFFFFFFFFFFFFFFF AND DUP2 MSTORE PUSH1 0x20 ADD SWAP1 DUP2 MSTORE PUSH1 0x20 ADD PUSH1 0x0 KECCAK256 DUP2 SWAP1 SSTORE POP PUSH1 0x0 PUSH1 0xD PUSH1 0x0 CALLER PUSH20 0xFFFFFFFFFFFFFFFFFFFFFFFFFFFFFFFFFFFFFFFF AND PUSH20 0xFFFFFFFFFFFFFFFFFFFFFFFFFFFFFFFFFFFFFFFF AND DUP2 MSTORE PUSH1 0x20 ADD SWAP1 DUP2 MSTORE PUSH1 0x20 ADD PUSH1 0x0 KECCAK256 PUSH1 0x0 DUP7 PUSH20 0xFFFFFFFFFFFFFFFFFFFFFFFFFFFFFFFFFFFFFFFF AND PUSH20 0xFFFFFFFFFFFFFFFFFFFFFFFFFFFFFFFFFFFFFFFF AND DUP2 MSTORE PUSH1 0x20 ADD SWAP1 DUP2 MSTORE PUSH1 0x20 ADD PUSH1 0x0 KECCAK256 SLOAD SWAP1 POP PUSH2 0x32CB DUP6 CALLER DUP4 PUSH2 0x5B5 JUMP JUMPDEST POP POP POP POP POP POP POP POP POP POP POP JUMP JUMPDEST PUSH1 0x1 ISZERO ISZERO PUSH1 0x4 PUSH1 0x0 DUP7 PUSH20 0xFFFFFFFFFFFFFFFFFFFFFFFFFFFFFFFFFFFFFFFF AND PUSH20 0xFFFFFFFFFFFFFFFFFFFFFFFFFFFFFFFFFFFFFFFF AND DUP2 MSTORE PUSH1 0x20 ADD SWAP1 DUP2 MSTORE PUSH1 0x20 ADD PUSH1 0x0 KECCAK256 PUSH1 0x0 SWAP1 SLOAD SWAP1 PUSH2 0x100 EXP SWAP1 DIV PUSH1 0xFF AND ISZERO ISZERO EQ PUSH2 0x3335 JUMPI PUSH1 0x0 DUP1 REVERT JUMPDEST PUSH2 0x333E DUP5 PUSH2 0x3A04 JUMP JUMPDEST PUSH1 0x1 PUSH1 0x5 PUSH1 0x0 DUP9 PUSH20 0xFFFFFFFFFFFFFFFFFFFFFFFFFFFFFFFFFFFFFFFF AND PUSH20 0xFFFFFFFFFFFFFFFFFFFFFFFFFFFFFFFFFFFFFFFF AND DUP2 MSTORE PUSH1 0x20 ADD SWAP1 DUP2 MSTORE PUSH1 0x20 ADD PUSH1 0x0 KECCAK256 PUSH1 0x0 PUSH2 0x100 EXP DUP2 SLOAD DUP2 PUSH1 0xFF MUL NOT AND SWAP1 DUP4 ISZERO ISZERO MUL OR SWAP1 SSTORE POP PUSH2 0x339E PUSH2 0x3FBC JUMP JUMPDEST DUP8 DUP2 PUSH1 0x0 ADD DUP2 SWAP1 MSTORE POP DUP7 DUP2 PUSH1 0x20 ADD SWAP1 PUSH20 0xFFFFFFFFFFFFFFFFFFFFFFFFFFFFFFFFFFFFFFFF AND SWAP1 DUP2 PUSH20 0xFFFFFFFFFFFFFFFFFFFFFFFFFFFFFFFFFFFFFFFF AND DUP2 MSTORE POP POP DUP6 DUP2 PUSH1 0x40 ADD DUP2 SWAP1 MSTORE POP DUP5 DUP2 PUSH1 0x60 ADD SWAP1 PUSH20 0xFFFFFFFFFFFFFFFFFFFFFFFFFFFFFFFFFFFFFFFF AND SWAP1 DUP2 PUSH20 0xFFFFFFFFFFFFFFFFFFFFFFFFFFFFFFFFFFFFFFFF AND DUP2 MSTORE POP POP DUP4 DUP2 PUSH1 0x80 ADD DUP2 SWAP1 MSTORE POP DUP3 DUP2 PUSH1 0xA0 ADD DUP2 SWAP1 MSTORE POP DUP2 DUP2 PUSH1 0xC0 ADD DUP2 SWAP1 MSTORE POP PUSH1 0x3 DUP2 SWAP1 DUP1 PUSH1 0x1 DUP2 SLOAD ADD DUP1 DUP3 SSTORE DUP1 SWAP2 POP POP PUSH1 0x1 SWAP1 SUB SWAP1 PUSH1 0x0 MSTORE PUSH1 0x20 PUSH1 0x0 KECCAK256 SWAP1 PUSH1 0x7 MUL ADD PUSH1 0x0 SWAP1 SWAP2 SWAP1 SWAP2 SWAP1 SWAP2 POP PUSH1 0x0 DUP3 ADD MLOAD DUP2 PUSH1 0x0 ADD SWAP1 DUP1 MLOAD SWAP1 PUSH1 0x20 ADD SWAP1 PUSH2 0x3483 SWAP3 SWAP2 SWAP1 PUSH2 0x3E73 JUMP JUMPDEST POP PUSH1 0x20 DUP3 ADD MLOAD DUP2 PUSH1 0x1 ADD PUSH1 0x0 PUSH2 0x100 EXP DUP2 SLOAD DUP2 PUSH20 0xFFFFFFFFFFFFFFFFFFFFFFFFFFFFFFFFFFFFFFFF MUL NOT AND SWAP1 DUP4 PUSH20 0xFFFFFFFFFFFFFFFFFFFFFFFFFFFFFFFFFFFFFFFF AND MUL OR SWAP1 SSTORE POP PUSH1 0x40 DUP3 ADD MLOAD DUP2 PUSH1 0x2 ADD SWAP1 DUP1 MLOAD SWAP1 PUSH1 0x20 ADD SWAP1 PUSH2 0x34E7 SWAP3 SWAP2 SWAP1 PUSH2 0x3E73 JUMP JUMPDEST POP PUSH1 0x60 DUP3 ADD MLOAD DUP2 PUSH1 0x3 ADD PUSH1 0x0 PUSH2 0x100 EXP DUP2 SLOAD DUP2 PUSH20 0xFFFFFFFFFFFFFFFFFFFFFFFFFFFFFFFFFFFFFFFF MUL NOT AND SWAP1 DUP4 PUSH20 0xFFFFFFFFFFFFFFFFFFFFFFFFFFFFFFFFFFFFFFFF AND MUL OR SWAP1 SSTORE POP PUSH1 0x80 DUP3 ADD MLOAD DUP2 PUSH1 0x4 ADD SWAP1 DUP1 MLOAD SWAP1 PUSH1 0x20 ADD SWAP1 PUSH2 0x354B SWAP3 SWAP2 SWAP1 PUSH2 0x3E73 JUMP JUMPDEST POP PUSH1 0xA0 DUP3 ADD MLOAD DUP2 PUSH1 0x5 ADD SWAP1 DUP1 MLOAD SWAP1 PUSH1 0x20 ADD SWAP1 PUSH2 0x3568 SWAP3 SWAP2 SWAP1 PUSH2 0x3E73 JUMP JUMPDEST POP PUSH1 0xC0 DUP3 ADD MLOAD DUP2 PUSH1 0x6 ADD SWAP1 DUP1 MLOAD SWAP1 PUSH1 0x20 ADD SWAP1 PUSH2 0x3585 SWAP3 SWAP2 SWAP1 PUSH2 0x3E73 JUMP JUMPDEST POP POP POP PUSH1 0x7 PUSH1 0x0 DUP7 PUSH20 0xFFFFFFFFFFFFFFFFFFFFFFFFFFFFFFFFFFFFFFFF AND PUSH20 0xFFFFFFFFFFFFFFFFFFFFFFFFFFFFFFFFFFFFFFFF AND DUP2 MSTORE PUSH1 0x20 ADD SWAP1 DUP2 MSTORE PUSH1 0x20 ADD PUSH1 0x0 KECCAK256 DUP8 SWAP1 DUP1 PUSH1 0x1 DUP2 SLOAD ADD DUP1 DUP3 SSTORE DUP1 SWAP2 POP POP PUSH1 0x1 SWAP1 SUB SWAP1 PUSH1 0x0 MSTORE PUSH1 0x20 PUSH1 0x0 KECCAK256 ADD PUSH1 0x0 SWAP1 SWAP2 SWAP1 SWAP2 SWAP1 SWAP2 PUSH2 0x100 EXP DUP2 SLOAD DUP2 PUSH20 0xFFFFFFFFFFFFFFFFFFFFFFFFFFFFFFFFFFFFFFFF MUL NOT AND SWAP1 DUP4 PUSH20 0xFFFFFFFFFFFFFFFFFFFFFFFFFFFFFFFFFFFFFFFF AND MUL OR SWAP1 SSTORE POP POP POP POP POP POP POP POP POP JUMP JUMPDEST PUSH1 0x3 DUP2 DUP2 SLOAD DUP2 LT PUSH2 0x363F JUMPI INVALID JUMPDEST SWAP1 PUSH1 0x0 MSTORE PUSH1 0x20 PUSH1 0x0 KECCAK256 SWAP1 PUSH1 0x7 MUL ADD PUSH1 0x0 SWAP2 POP SWAP1 POP DUP1 PUSH1 0x0 ADD DUP1 SLOAD PUSH1 0x1 DUP2 PUSH1 0x1 AND ISZERO PUSH2 0x100 MUL SUB AND PUSH1 0x2 SWAP1 DIV DUP1 PUSH1 0x1F ADD PUSH1 0x20 DUP1 SWAP2 DIV MUL PUSH1 0x20 ADD PUSH1 0x40 MLOAD SWAP1 DUP2 ADD PUSH1 0x40 MSTORE DUP1 SWAP3 SWAP2 SWAP1 DUP2 DUP2 MSTORE PUSH1 0x20 ADD DUP3 DUP1 SLOAD PUSH1 0x1 DUP2 PUSH1 0x1 AND ISZERO PUSH2 0x100 MUL SUB AND PUSH1 0x2 SWAP1 DIV DUP1 ISZERO PUSH2 0x36EB JUMPI DUP1 PUSH1 0x1F LT PUSH2 0x36C0 JUMPI PUSH2 0x100 DUP1 DUP4 SLOAD DIV MUL DUP4 MSTORE SWAP2 PUSH1 0x20 ADD SWAP2 PUSH2 0x36EB JUMP JUMPDEST DUP3 ADD SWAP2 SWAP1 PUSH1 0x0 MSTORE PUSH1 0x20 PUSH1 0x0 KECCAK256 SWAP1 JUMPDEST DUP2 SLOAD DUP2 MSTORE SWAP1 PUSH1 0x1 ADD SWAP1 PUSH1 0x20 ADD DUP1 DUP4 GT PUSH2 0x36CE JUMPI DUP3 SWAP1 SUB PUSH1 0x1F AND DUP3 ADD SWAP2 JUMPDEST POP POP POP POP POP SWAP1 DUP1 PUSH1 0x1 ADD PUSH1 0x0 SWAP1 SLOAD SWAP1 PUSH2 0x100 EXP SWAP1 DIV PUSH20 0xFFFFFFFFFFFFFFFFFFFFFFFFFFFFFFFFFFFFFFFF AND SWAP1 DUP1 PUSH1 0x2 ADD DUP1 SLOAD PUSH1 0x1 DUP2 PUSH1 0x1 AND ISZERO PUSH2 0x100 MUL SUB AND PUSH1 0x2 SWAP1 DIV DUP1 PUSH1 0x1F ADD PUSH1 0x20 DUP1 SWAP2 DIV MUL PUSH1 0x20 ADD PUSH1 0x40 MLOAD SWAP1 DUP2 ADD PUSH1 0x40 MSTORE DUP1 SWAP3 SWAP2 SWAP1 DUP2 DUP2 MSTORE PUSH1 0x20 ADD DUP3 DUP1 SLOAD PUSH1 0x1 DUP2 PUSH1 0x1 AND ISZERO PUSH2 0x100 MUL SUB AND PUSH1 0x2 SWAP1 DIV DUP1 ISZERO PUSH2 0x37AF JUMPI DUP1 PUSH1 0x1F LT PUSH2 0x3784 JUMPI PUSH2 0x100 DUP1 DUP4 SLOAD DIV MUL DUP4 MSTORE SWAP2 PUSH1 0x20 ADD SWAP2 PUSH2 0x37AF JUMP JUMPDEST DUP3 ADD SWAP2 SWAP1 PUSH1 0x0 MSTORE PUSH1 0x20 PUSH1 0x0 KECCAK256 SWAP1 JUMPDEST DUP2 SLOAD DUP2 MSTORE SWAP1 PUSH1 0x1 ADD SWAP1 PUSH1 0x20 ADD DUP1 DUP4 GT PUSH2 0x3792 JUMPI DUP3 SWAP1 SUB PUSH1 0x1F AND DUP3 ADD SWAP2 JUMPDEST POP POP POP POP POP SWAP1 DUP1 PUSH1 0x3 ADD PUSH1 0x0 SWAP1 SLOAD SWAP1 PUSH2 0x100 EXP SWAP1 DIV PUSH20 0xFFFFFFFFFFFFFFFFFFFFFFFFFFFFFFFFFFFFFFFF AND SWAP1 DUP1 PUSH1 0x4 ADD DUP1 SLOAD PUSH1 0x1 DUP2 PUSH1 0x1 AND ISZERO PUSH2 0x100 MUL SUB AND PUSH1 0x2 SWAP1 DIV DUP1 PUSH1 0x1F ADD PUSH1 0x20 DUP1 SWAP2 DIV MUL PUSH1 0x20 ADD PUSH1 0x40 MLOAD SWAP1 DUP2 ADD PUSH1 0x40 MSTORE DUP1 SWAP3 SWAP2 SWAP1 DUP2 DUP2 MSTORE PUSH1 0x20 ADD DUP3 DUP1 SLOAD PUSH1 0x1 DUP2 PUSH1 0x1 AND ISZERO PUSH2 0x100 MUL SUB AND PUSH1 0x2 SWAP1 DIV DUP1 ISZERO PUSH2 0x3873 JUMPI DUP1 PUSH1 0x1F LT PUSH2 0x3848 JUMPI PUSH2 0x100 DUP1 DUP4 SLOAD DIV MUL DUP4 MSTORE SWAP2 PUSH1 0x20 ADD SWAP2 PUSH2 0x3873 JUMP JUMPDEST DUP3 ADD SWAP2 SWAP1 PUSH1 0x0 MSTORE PUSH1 0x20 PUSH1 0x0 KECCAK256 SWAP1 JUMPDEST DUP2 SLOAD DUP2 MSTORE SWAP1 PUSH1 0x1 ADD SWAP1 PUSH1 0x20 ADD DUP1 DUP4 GT PUSH2 0x3856 JUMPI DUP3 SWAP1 SUB PUSH1 0x1F AND DUP3 ADD SWAP2 JUMPDEST POP POP POP POP POP SWAP1 DUP1 PUSH1 0x5 ADD DUP1 SLOAD PUSH1 0x1 DUP2 PUSH1 0x1 AND ISZERO PUSH2 0x100 MUL SUB AND PUSH1 0x2 SWAP1 DIV DUP1 PUSH1 0x1F ADD PUSH1 0x20 DUP1 SWAP2 DIV MUL PUSH1 0x20 ADD PUSH1 0x40 MLOAD SWAP1 DUP2 ADD PUSH1 0x40 MSTORE DUP1 SWAP3 SWAP2 SWAP1 DUP2 DUP2 MSTORE PUSH1 0x20 ADD DUP3 DUP1 SLOAD PUSH1 0x1 DUP2 PUSH1 0x1 AND ISZERO PUSH2 0x100 MUL SUB AND PUSH1 0x2 SWAP1 DIV DUP1 ISZERO PUSH2 0x3911 JUMPI DUP1 PUSH1 0x1F LT PUSH2 0x38E6 JUMPI PUSH2 0x100 DUP1 DUP4 SLOAD DIV MUL DUP4 MSTORE SWAP2 PUSH1 0x20 ADD SWAP2 PUSH2 0x3911 JUMP JUMPDEST DUP3 ADD SWAP2 SWAP1 PUSH1 0x0 MSTORE PUSH1 0x20 PUSH1 0x0 KECCAK256 SWAP1 JUMPDEST DUP2 SLOAD DUP2 MSTORE SWAP1 PUSH1 0x1 ADD SWAP1 PUSH1 0x20 ADD DUP1 DUP4 GT PUSH2 0x38F4 JUMPI DUP3 SWAP1 SUB PUSH1 0x1F AND DUP3 ADD SWAP2 JUMPDEST POP POP POP POP POP SWAP1 DUP1 PUSH1 0x6 ADD DUP1 SLOAD PUSH1 0x1 DUP2 PUSH1 0x1 AND ISZERO PUSH2 0x100 MUL SUB AND PUSH1 0x2 SWAP1 DIV DUP1 PUSH1 0x1F ADD PUSH1 0x20 DUP1 SWAP2 DIV MUL PUSH1 0x20 ADD PUSH1 0x40 MLOAD SWAP1 DUP2 ADD PUSH1 0x40 MSTORE DUP1 SWAP3 SWAP2 SWAP1 DUP2 DUP2 MSTORE PUSH1 0x20 ADD DUP3 DUP1 SLOAD PUSH1 0x1 DUP2 PUSH1 0x1 AND ISZERO PUSH2 0x100 MUL SUB AND PUSH1 0x2 SWAP1 DIV DUP1 ISZERO PUSH2 0x39AF JUMPI DUP1 PUSH1 0x1F LT PUSH2 0x3984 JUMPI PUSH2 0x100 DUP1 DUP4 SLOAD DIV MUL DUP4 MSTORE SWAP2 PUSH1 0x20 ADD SWAP2 PUSH2 0x39AF JUMP JUMPDEST DUP3 ADD SWAP2 SWAP1 PUSH1 0x0 MSTORE PUSH1 0x20 PUSH1 0x0 KECCAK256 SWAP1 JUMPDEST DUP2 SLOAD DUP2 MSTORE SWAP1 PUSH1 0x1 ADD SWAP1 PUSH1 0x20 ADD DUP1 DUP4 GT PUSH2 0x3992 JUMPI DUP3 SWAP1 SUB PUSH1 0x1F AND DUP3 ADD SWAP2 JUMPDEST POP POP POP POP POP SWAP1 POP DUP8 JUMP JUMPDEST PUSH1 0x7 PUSH1 0x20 MSTORE DUP2 PUSH1 0x0 MSTORE PUSH1 0x40 PUSH1 0x0 KECCAK256 DUP2 DUP2 SLOAD DUP2 LT PUSH2 0x39D2 JUMPI INVALID JUMPDEST SWAP1 PUSH1 0x0 MSTORE PUSH1 0x20 PUSH1 0x0 KECCAK256 ADD PUSH1 0x0 SWAP2 POP SWAP2 POP SWAP1 SLOAD SWAP1 PUSH2 0x100 EXP SWAP1 DIV PUSH20 0xFFFFFFFFFFFFFFFFFFFFFFFFFFFFFFFFFFFFFFFF AND DUP2 JUMP JUMPDEST PUSH1 0x1 ISZERO ISZERO PUSH1 0x4 PUSH1 0x0 DUP4 PUSH20 0xFFFFFFFFFFFFFFFFFFFFFFFFFFFFFFFFFFFFFFFF AND PUSH20 0xFFFFFFFFFFFFFFFFFFFFFFFFFFFFFFFFFFFFFFFF AND DUP2 MSTORE PUSH1 0x20 ADD SWAP1 DUP2 MSTORE PUSH1 0x20 ADD PUSH1 0x0 KECCAK256 PUSH1 0x0 SWAP1 SLOAD SWAP1 PUSH2 0x100 EXP SWAP1 DIV PUSH1 0xFF AND ISZERO ISZERO EQ PUSH2 0x3A61 JUMPI PUSH1 0x0 DUP1 REVERT JUMPDEST PUSH1 0x0 DUP2 SWAP1 POP PUSH1 0x60 DUP2 PUSH20 0xFFFFFFFFFFFFFFFFFFFFFFFFFFFFFFFFFFFFFFFF AND PUSH4 0x8CBA76B1 PUSH1 0x1 PUSH1 0x0 SWAP1 SLOAD SWAP1 PUSH2 0x100 EXP SWAP1 DIV PUSH20 0xFFFFFFFFFFFFFFFFFFFFFFFFFFFFFFFFFFFFFFFF AND PUSH1 0x40 MLOAD DUP3 PUSH4 0xFFFFFFFF AND PUSH1 0xE0 SHL DUP2 MSTORE PUSH1 0x4 ADD PUSH2 0x3AC3 SWAP2 SWAP1 PUSH2 0x4BCB JUMP JUMPDEST PUSH1 0x0 PUSH1 0x40 MLOAD DUP1 DUP4 SUB DUP2 DUP7 DUP1 EXTCODESIZE ISZERO DUP1 ISZERO PUSH2 0x3ADB JUMPI PUSH1 0x0 DUP1 REVERT JUMPDEST POP GAS STATICCALL ISZERO DUP1 ISZERO PUSH2 0x3AEF JUMPI RETURNDATASIZE PUSH1 0x0 DUP1 RETURNDATACOPY RETURNDATASIZE PUSH1 0x0 REVERT JUMPDEST POP POP POP POP PUSH1 0x40 MLOAD RETURNDATASIZE PUSH1 0x0 DUP3 RETURNDATACOPY RETURNDATASIZE PUSH1 0x1F NOT PUSH1 0x1F DUP3 ADD AND DUP3 ADD DUP1 PUSH1 0x40 MSTORE POP DUP2 ADD SWAP1 PUSH2 0x3B18 SWAP2 SWAP1 PUSH2 0x43F2 JUMP JUMPDEST SWAP1 POP PUSH1 0x40 MLOAD PUSH1 0x20 ADD PUSH2 0x3B29 SWAP1 PUSH2 0x4B34 JUMP JUMPDEST PUSH1 0x40 MLOAD PUSH1 0x20 DUP2 DUP4 SUB SUB DUP2 MSTORE SWAP1 PUSH1 0x40 MSTORE DUP1 MLOAD SWAP1 PUSH1 0x20 ADD KECCAK256 DUP2 PUSH1 0x40 MLOAD PUSH1 0x20 ADD PUSH2 0x3B50 SWAP2 SWAP1 PUSH2 0x4B1D JUMP JUMPDEST PUSH1 0x40 MLOAD PUSH1 0x20 DUP2 DUP4 SUB SUB DUP2 MSTORE SWAP1 PUSH1 0x40 MSTORE DUP1 MLOAD SWAP1 PUSH1 0x20 ADD KECCAK256 EQ PUSH2 0x3B70 JUMPI PUSH1 0x0 DUP1 REVERT JUMPDEST POP POP POP JUMP JUMPDEST PUSH1 0xD PUSH1 0x20 MSTORE DUP2 PUSH1 0x0 MSTORE PUSH1 0x40 PUSH1 0x0 KECCAK256 PUSH1 0x20 MSTORE DUP1 PUSH1 0x0 MSTORE PUSH1 0x40 PUSH1 0x0 KECCAK256 PUSH1 0x0 SWAP2 POP SWAP2 POP POP SLOAD DUP2 JUMP JUMPDEST PUSH1 0xB PUSH1 0x20 MSTORE DUP3 PUSH1 0x0 MSTORE PUSH1 0x40 PUSH1 0x0 KECCAK256 PUSH1 0x20 MSTORE DUP2 PUSH1 0x0 MSTORE PUSH1 0x40 PUSH1 0x0 KECCAK256 DUP2 DUP2 SLOAD DUP2 LT PUSH2 0x3BBF JUMPI INVALID JUMPDEST SWAP1 PUSH1 0x0 MSTORE PUSH1 0x20 PUSH1 0x0 KECCAK256 SWAP1 PUSH1 0x8 MUL ADD PUSH1 0x0 SWAP3 POP SWAP3 POP POP POP DUP1 PUSH1 0x0 ADD DUP1 SLOAD PUSH1 0x1 DUP2 PUSH1 0x1 AND ISZERO PUSH2 0x100 MUL SUB AND PUSH1 0x2 SWAP1 DIV DUP1 PUSH1 0x1F ADD PUSH1 0x20 DUP1 SWAP2 DIV MUL PUSH1 0x20 ADD PUSH1 0x40 MLOAD SWAP1 DUP2 ADD PUSH1 0x40 MSTORE DUP1 SWAP3 SWAP2 SWAP1 DUP2 DUP2 MSTORE PUSH1 0x20 ADD DUP3 DUP1 SLOAD PUSH1 0x1 DUP2 PUSH1 0x1 AND ISZERO PUSH2 0x100 MUL SUB AND PUSH1 0x2 SWAP1 DIV DUP1 ISZERO PUSH2 0x3C6D JUMPI DUP1 PUSH1 0x1F LT PUSH2 0x3C42 JUMPI PUSH2 0x100 DUP1 DUP4 SLOAD DIV MUL DUP4 MSTORE SWAP2 PUSH1 0x20 ADD SWAP2 PUSH2 0x3C6D JUMP JUMPDEST DUP3 ADD SWAP2 SWAP1 PUSH1 0x0 MSTORE PUSH1 0x20 PUSH1 0x0 KECCAK256 SWAP1 JUMPDEST DUP2 SLOAD DUP2 MSTORE SWAP1 PUSH1 0x1 ADD SWAP1 PUSH1 0x20 ADD DUP1 DUP4 GT PUSH2 0x3C50 JUMPI DUP3 SWAP1 SUB PUSH1 0x1F AND DUP3 ADD SWAP2 JUMPDEST POP POP POP POP POP SWAP1 DUP1 PUSH1 0x1 ADD PUSH1 0x0 SWAP1 SLOAD SWAP1 PUSH2 0x100 EXP SWAP1 DIV PUSH20 0xFFFFFFFFFFFFFFFFFFFFFFFFFFFFFFFFFFFFFFFF AND SWAP1 DUP1 PUSH1 0x2 ADD DUP1 SLOAD PUSH1 0x1 DUP2 PUSH1 0x1 AND ISZERO PUSH2 0x100 MUL SUB AND PUSH1 0x2 SWAP1 DIV DUP1 PUSH1 0x1F ADD PUSH1 0x20 DUP1 SWAP2 DIV MUL PUSH1 0x20 ADD PUSH1 0x40 MLOAD SWAP1 DUP2 ADD PUSH1 0x40 MSTORE DUP1 SWAP3 SWAP2 SWAP1 DUP2 DUP2 MSTORE PUSH1 0x20 ADD DUP3 DUP1 SLOAD PUSH1 0x1 DUP2 PUSH1 0x1 AND ISZERO PUSH2 0x100 MUL SUB AND PUSH1 0x2 SWAP1 DIV DUP1 ISZERO PUSH2 0x3D31 JUMPI DUP1 PUSH1 0x1F LT PUSH2 0x3D06 JUMPI PUSH2 0x100 DUP1 DUP4 SLOAD DIV MUL DUP4 MSTORE SWAP2 PUSH1 0x20 ADD SWAP2 PUSH2 0x3D31 JUMP JUMPDEST DUP3 ADD SWAP2 SWAP1 PUSH1 0x0 MSTORE PUSH1 0x20 PUSH1 0x0 KECCAK256 SWAP1 JUMPDEST DUP2 SLOAD DUP2 MSTORE SWAP1 PUSH1 0x1 ADD SWAP1 PUSH1 0x20 ADD DUP1 DUP4 GT PUSH2 0x3D14 JUMPI DUP3 SWAP1 SUB PUSH1 0x1F AND DUP3 ADD SWAP2 JUMPDEST POP POP POP POP POP SWAP1 DUP1 PUSH1 0x3 ADD PUSH1 0x0 SWAP1 SLOAD SWAP1 PUSH2 0x100 EXP SWAP1 DIV PUSH20 0xFFFFFFFFFFFFFFFFFFFFFFFFFFFFFFFFFFFFFFFF AND SWAP1 DUP1 PUSH1 0x4 ADD DUP1 SLOAD PUSH1 0x1 DUP2 PUSH1 0x1 AND ISZERO PUSH2 0x100 MUL SUB AND PUSH1 0x2 SWAP1 DIV DUP1 PUSH1 0x1F ADD PUSH1 0x20 DUP1 SWAP2 DIV MUL PUSH1 0x20 ADD PUSH1 0x40 MLOAD SWAP1 DUP2 ADD PUSH1 0x40 MSTORE DUP1 SWAP3 SWAP2 SWAP1 DUP2 DUP2 MSTORE PUSH1 0x20 ADD DUP3 DUP1 SLOAD PUSH1 0x1 DUP2 PUSH1 0x1 AND ISZERO PUSH2 0x100 MUL SUB AND PUSH1 0x2 SWAP1 DIV DUP1 ISZERO PUSH2 0x3DF5 JUMPI DUP1 PUSH1 0x1F LT PUSH2 0x3DCA JUMPI PUSH2 0x100 DUP1 DUP4 SLOAD DIV MUL DUP4 MSTORE SWAP2 PUSH1 0x20 ADD SWAP2 PUSH2 0x3DF5 JUMP JUMPDEST DUP3 ADD SWAP2 SWAP1 PUSH1 0x0 MSTORE PUSH1 0x20 PUSH1 0x0 KECCAK256 SWAP1 JUMPDEST DUP2 SLOAD DUP2 MSTORE SWAP1 PUSH1 0x1 ADD SWAP1 PUSH1 0x20 ADD DUP1 DUP4 GT PUSH2 0x3DD8 JUMPI DUP3 SWAP1 SUB PUSH1 0x1F AND DUP3 ADD SWAP2 JUMPDEST POP POP POP POP POP SWAP1 DUP1 PUSH1 0x5 ADD SLOAD SWAP1 DUP1 PUSH1 0x6 ADD SLOAD SWAP1 DUP1 PUSH1 0x7 ADD SLOAD SWAP1 POP DUP9 JUMP JUMPDEST PUSH1 0x40 MLOAD DUP1 PUSH1 0xC0 ADD PUSH1 0x40 MSTORE DUP1 PUSH1 0x60 DUP2 MSTORE PUSH1 0x20 ADD PUSH1 0x0 PUSH20 0xFFFFFFFFFFFFFFFFFFFFFFFFFFFFFFFFFFFFFFFF AND DUP2 MSTORE PUSH1 0x20 ADD PUSH1 0x60 DUP2 MSTORE PUSH1 0x20 ADD PUSH1 0x0 PUSH20 0xFFFFFFFFFFFFFFFFFFFFFFFFFFFFFFFFFFFFFFFF AND DUP2 MSTORE PUSH1 0x20 ADD PUSH1 0x60 DUP2 MSTORE PUSH1 0x20 ADD PUSH1 0x60 DUP2 MSTORE POP SWAP1 JUMP JUMPDEST DUP3 DUP1 SLOAD PUSH1 0x1 DUP2 PUSH1 0x1 AND ISZERO PUSH2 0x100 MUL SUB AND PUSH1 0x2 SWAP1 DIV SWAP1 PUSH1 0x0 MSTORE PUSH1 0x20 PUSH1 0x0 KECCAK256 SWAP1 PUSH1 0x1F ADD PUSH1 0x20 SWAP1 DIV DUP2 ADD SWAP3 DUP3 PUSH1 0x1F LT PUSH2 0x3EB4 JUMPI DUP1 MLOAD PUSH1 0xFF NOT AND DUP4 DUP1 ADD OR DUP6 SSTORE PUSH2 0x3EE2 JUMP JUMPDEST DUP3 DUP1 ADD PUSH1 0x1 ADD DUP6 SSTORE DUP3 ISZERO PUSH2 0x3EE2 JUMPI SWAP2 DUP3 ADD JUMPDEST DUP3 DUP2 GT ISZERO PUSH2 0x3EE1 JUMPI DUP3 MLOAD DUP3 SSTORE SWAP2 PUSH1 0x20 ADD SWAP2 SWAP1 PUSH1 0x1 ADD SWAP1 PUSH2 0x3EC6 JUMP JUMPDEST JUMPDEST POP SWAP1 POP PUSH2 0x3EEF SWAP2 SWAP1 PUSH2 0x4025 JUMP JUMPDEST POP SWAP1 JUMP JUMPDEST PUSH1 0x40 MLOAD DUP1 PUSH2 0x100 ADD PUSH1 0x40 MSTORE DUP1 PUSH1 0x60 DUP2 MSTORE PUSH1 0x20 ADD PUSH1 0x0 PUSH20 0xFFFFFFFFFFFFFFFFFFFFFFFFFFFFFFFFFFFFFFFF AND DUP2 MSTORE PUSH1 0x20 ADD PUSH1 0x60 DUP2 MSTORE PUSH1 0x20 ADD PUSH1 0x0 PUSH20 0xFFFFFFFFFFFFFFFFFFFFFFFFFFFFFFFFFFFFFFFF AND DUP2 MSTORE PUSH1 0x20 ADD PUSH1 0x60 DUP2 MSTORE PUSH1 0x20 ADD PUSH1 0x0 DUP1 NOT AND DUP2 MSTORE PUSH1 0x20 ADD PUSH1 0x0 DUP2 MSTORE PUSH1 0x20 ADD PUSH1 0x0 DUP2 MSTORE POP SWAP1 JUMP JUMPDEST PUSH1 0x40 MLOAD DUP1 PUSH1 0xA0 ADD PUSH1 0x40 MSTORE DUP1 PUSH1 0x0 PUSH1 0x5 DUP2 GT ISZERO PUSH2 0x3F7F JUMPI INVALID JUMPDEST DUP2 MSTORE PUSH1 0x20 ADD PUSH1 0x0 PUSH20 0xFFFFFFFFFFFFFFFFFFFFFFFFFFFFFFFFFFFFFFFF AND DUP2 MSTORE PUSH1 0x20 ADD PUSH1 0x0 DUP2 MSTORE PUSH1 0x20 ADD PUSH1 0x0 DUP1 NOT AND DUP2 MSTORE PUSH1 0x20 ADD PUSH1 0x0 ISZERO ISZERO DUP2 MSTORE POP SWAP1 JUMP JUMPDEST PUSH1 0x40 MLOAD DUP1 PUSH1 0xE0 ADD PUSH1 0x40 MSTORE DUP1 PUSH1 0x60 DUP2 MSTORE PUSH1 0x20 ADD PUSH1 0x0 PUSH20 0xFFFFFFFFFFFFFFFFFFFFFFFFFFFFFFFFFFFFFFFF AND DUP2 MSTORE PUSH1 0x20 ADD PUSH1 0x60 DUP2 MSTORE PUSH1 0x20 ADD PUSH1 0x0 PUSH20 0xFFFFFFFFFFFFFFFFFFFFFFFFFFFFFFFFFFFFFFFF AND DUP2 MSTORE PUSH1 0x20 ADD PUSH1 0x60 DUP2 MSTORE PUSH1 0x20 ADD PUSH1 0x60 DUP2 MSTORE PUSH1 0x20 ADD PUSH1 0x60 DUP2 MSTORE POP SWAP1 JUMP JUMPDEST PUSH2 0x4047 SWAP2 SWAP1 JUMPDEST DUP1 DUP3 GT ISZERO PUSH2 0x4043 JUMPI PUSH1 0x0 DUP2 PUSH1 0x0 SWAP1 SSTORE POP PUSH1 0x1 ADD PUSH2 0x402B JUMP JUMPDEST POP SWAP1 JUMP JUMPDEST SWAP1 JUMP JUMPDEST PUSH1 0x0 DUP2 CALLDATALOAD SWAP1 POP PUSH2 0x4059 DUP2 PUSH2 0x510F JUMP JUMPDEST SWAP3 SWAP2 POP POP JUMP JUMPDEST PUSH1 0x0 DUP2 CALLDATALOAD SWAP1 POP PUSH2 0x406E DUP2 PUSH2 0x5126 JUMP JUMPDEST SWAP3 SWAP2 POP POP JUMP JUMPDEST PUSH1 0x0 DUP2 CALLDATALOAD SWAP1 POP PUSH2 0x4083 DUP2 PUSH2 0x513D JUMP JUMPDEST SWAP3 SWAP2 POP POP JUMP JUMPDEST PUSH1 0x0 DUP3 PUSH1 0x1F DUP4 ADD SLT PUSH2 0x409A JUMPI PUSH1 0x0 DUP1 REVERT JUMPDEST DUP2 CALLDATALOAD PUSH2 0x40AD PUSH2 0x40A8 DUP3 PUSH2 0x4FA5 JUMP JUMPDEST PUSH2 0x4F78 JUMP JUMPDEST SWAP2 POP DUP1 DUP3 MSTORE PUSH1 0x20 DUP4 ADD PUSH1 0x20 DUP4 ADD DUP6 DUP4 DUP4 ADD GT ISZERO PUSH2 0x40C9 JUMPI PUSH1 0x0 DUP1 REVERT JUMPDEST PUSH2 0x40D4 DUP4 DUP3 DUP5 PUSH2 0x50A5 JUMP JUMPDEST POP POP POP SWAP3 SWAP2 POP POP JUMP JUMPDEST PUSH1 0x0 DUP3 PUSH1 0x1F DUP4 ADD SLT PUSH2 0x40EE JUMPI PUSH1 0x0 DUP1 REVERT JUMPDEST DUP2 MLOAD PUSH2 0x4101 PUSH2 0x40FC DUP3 PUSH2 0x4FA5 JUMP JUMPDEST PUSH2 0x4F78 JUMP JUMPDEST SWAP2 POP DUP1 DUP3 MSTORE PUSH1 0x20 DUP4 ADD PUSH1 0x20 DUP4 ADD DUP6 DUP4 DUP4 ADD GT ISZERO PUSH2 0x411D JUMPI PUSH1 0x0 DUP1 REVERT JUMPDEST PUSH2 0x4128 DUP4 DUP3 DUP5 PUSH2 0x50B4 JUMP JUMPDEST POP POP POP SWAP3 SWAP2 POP POP JUMP JUMPDEST PUSH1 0x0 DUP2 CALLDATALOAD SWAP1 POP PUSH2 0x4140 DUP2 PUSH2 0x5154 JUMP JUMPDEST SWAP3 SWAP2 POP POP JUMP JUMPDEST PUSH1 0x0 PUSH1 0x20 DUP3 DUP5 SUB SLT ISZERO PUSH2 0x4158 JUMPI PUSH1 0x0 DUP1 REVERT JUMPDEST PUSH1 0x0 PUSH2 0x4166 DUP5 DUP3 DUP6 ADD PUSH2 0x404A JUMP JUMPDEST SWAP2 POP POP SWAP3 SWAP2 POP POP JUMP JUMPDEST PUSH1 0x0 DUP1 PUSH1 0x40 DUP4 DUP6 SUB SLT ISZERO PUSH2 0x4182 JUMPI PUSH1 0x0 DUP1 REVERT JUMPDEST PUSH1 0x0 PUSH2 0x4190 DUP6 DUP3 DUP7 ADD PUSH2 0x404A JUMP JUMPDEST SWAP3 POP POP PUSH1 0x20 PUSH2 0x41A1 DUP6 DUP3 DUP7 ADD PUSH2 0x404A JUMP JUMPDEST SWAP2 POP POP SWAP3 POP SWAP3 SWAP1 POP JUMP JUMPDEST PUSH1 0x0 DUP1 PUSH1 0x0 PUSH1 0x60 DUP5 DUP7 SUB SLT ISZERO PUSH2 0x41C0 JUMPI PUSH1 0x0 DUP1 REVERT JUMPDEST PUSH1 0x0 PUSH2 0x41CE DUP7 DUP3 DUP8 ADD PUSH2 0x404A JUMP JUMPDEST SWAP4 POP POP PUSH1 0x20 PUSH2 0x41DF DUP7 DUP3 DUP8 ADD PUSH2 0x404A JUMP JUMPDEST SWAP3 POP POP PUSH1 0x40 PUSH2 0x41F0 DUP7 DUP3 DUP8 ADD PUSH2 0x4131 JUMP JUMPDEST SWAP2 POP POP SWAP3 POP SWAP3 POP SWAP3 JUMP JUMPDEST PUSH1 0x0 DUP1 PUSH1 0x40 DUP4 DUP6 SUB SLT ISZERO PUSH2 0x420D JUMPI PUSH1 0x0 DUP1 REVERT JUMPDEST PUSH1 0x0 PUSH2 0x421B DUP6 DUP3 DUP7 ADD PUSH2 0x404A JUMP JUMPDEST SWAP3 POP POP PUSH1 0x20 PUSH2 0x422C DUP6 DUP3 DUP7 ADD PUSH2 0x4131 JUMP JUMPDEST SWAP2 POP POP SWAP3 POP SWAP3 SWAP1 POP JUMP JUMPDEST PUSH1 0x0 DUP1 PUSH1 0x0 PUSH1 0x60 DUP5 DUP7 SUB SLT ISZERO PUSH2 0x424B JUMPI PUSH1 0x0 DUP1 REVERT JUMPDEST PUSH1 0x0 PUSH2 0x4259 DUP7 DUP3 DUP8 ADD PUSH2 0x405F JUMP JUMPDEST SWAP4 POP POP PUSH1 0x20 PUSH2 0x426A DUP7 DUP3 DUP8 ADD PUSH2 0x404A JUMP JUMPDEST SWAP3 POP POP PUSH1 0x40 PUSH2 0x427B DUP7 DUP3 DUP8 ADD PUSH2 0x4131 JUMP JUMPDEST SWAP2 POP POP SWAP3 POP SWAP3 POP SWAP3 JUMP JUMPDEST PUSH1 0x0 DUP1 PUSH1 0x0 DUP1 PUSH1 0x0 PUSH1 0xA0 DUP7 DUP9 SUB SLT ISZERO PUSH2 0x429D JUMPI PUSH1 0x0 DUP1 REVERT JUMPDEST PUSH1 0x0 PUSH2 0x42AB DUP9 DUP3 DUP10 ADD PUSH2 0x405F JUMP JUMPDEST SWAP6 POP POP PUSH1 0x20 PUSH2 0x42BC DUP9 DUP3 DUP10 ADD PUSH2 0x4074 JUMP JUMPDEST SWAP5 POP POP PUSH1 0x40 DUP7 ADD CALLDATALOAD PUSH8 0xFFFFFFFFFFFFFFFF DUP2 GT ISZERO PUSH2 0x42D9 JUMPI PUSH1 0x0 DUP1 REVERT JUMPDEST PUSH2 0x42E5 DUP9 DUP3 DUP10 ADD PUSH2 0x4089 JUMP JUMPDEST SWAP4 POP POP PUSH1 0x60 PUSH2 0x42F6 DUP9 DUP3 DUP10 ADD PUSH2 0x404A JUMP JUMPDEST SWAP3 POP POP PUSH1 0x80 PUSH2 0x4307 DUP9 DUP3 DUP10 ADD PUSH2 0x4131 JUMP JUMPDEST SWAP2 POP POP SWAP3 SWAP6 POP SWAP3 SWAP6 SWAP1 SWAP4 POP JUMP JUMPDEST PUSH1 0x0 DUP1 PUSH1 0x0 DUP1 PUSH1 0x80 DUP6 DUP8 SUB SLT ISZERO PUSH2 0x432A JUMPI PUSH1 0x0 DUP1 REVERT JUMPDEST PUSH1 0x0 PUSH2 0x4338 DUP8 DUP3 DUP9 ADD PUSH2 0x4074 JUMP JUMPDEST SWAP5 POP POP PUSH1 0x20 PUSH2 0x4349 DUP8 DUP3 DUP9 ADD PUSH2 0x404A JUMP JUMPDEST SWAP4 POP POP PUSH1 0x40 PUSH2 0x435A DUP8 DUP3 DUP9 ADD PUSH2 0x404A JUMP JUMPDEST SWAP3 POP POP PUSH1 0x60 PUSH2 0x436B DUP8 DUP3 DUP9 ADD PUSH2 0x4131 JUMP JUMPDEST SWAP2 POP POP SWAP3 SWAP6 SWAP2 SWAP5 POP SWAP3 POP JUMP JUMPDEST PUSH1 0x0 DUP1 PUSH1 0x0 DUP1 PUSH1 0x80 DUP6 DUP8 SUB SLT ISZERO PUSH2 0x438D JUMPI PUSH1 0x0 DUP1 REVERT JUMPDEST PUSH1 0x0 PUSH2 0x439B DUP8 DUP3 DUP9 ADD PUSH2 0x4074 JUMP JUMPDEST SWAP5 POP POP PUSH1 0x20 DUP6 ADD CALLDATALOAD PUSH8 0xFFFFFFFFFFFFFFFF DUP2 GT ISZERO PUSH2 0x43B8 JUMPI PUSH1 0x0 DUP1 REVERT JUMPDEST PUSH2 0x43C4 DUP8 DUP3 DUP9 ADD PUSH2 0x4089 JUMP JUMPDEST SWAP4 POP POP PUSH1 0x40 PUSH2 0x43D5 DUP8 DUP3 DUP9 ADD PUSH2 0x404A JUMP JUMPDEST SWAP3 POP POP PUSH1 0x60 PUSH2 0x43E6 DUP8 DUP3 DUP9 ADD PUSH2 0x4131 JUMP JUMPDEST SWAP2 POP POP SWAP3 SWAP6 SWAP2 SWAP5 POP SWAP3 POP JUMP JUMPDEST PUSH1 0x0 PUSH1 0x20 DUP3 DUP5 SUB SLT ISZERO PUSH2 0x4404 JUMPI PUSH1 0x0 DUP1 REVERT JUMPDEST PUSH1 0x0 DUP3 ADD MLOAD PUSH8 0xFFFFFFFFFFFFFFFF DUP2 GT ISZERO PUSH2 0x441E JUMPI PUSH1 0x0 DUP1 REVERT JUMPDEST PUSH2 0x442A DUP5 DUP3 DUP6 ADD PUSH2 0x40DD JUMP JUMPDEST SWAP2 POP POP SWAP3 SWAP2 POP POP JUMP JUMPDEST PUSH1 0x0 DUP1 PUSH1 0x0 DUP1 PUSH1 0x0 DUP1 PUSH1 0x0 PUSH1 0xE0 DUP9 DUP11 SUB SLT ISZERO PUSH2 0x444E JUMPI PUSH1 0x0 DUP1 REVERT JUMPDEST PUSH1 0x0 DUP9 ADD CALLDATALOAD PUSH8 0xFFFFFFFFFFFFFFFF DUP2 GT ISZERO PUSH2 0x4468 JUMPI PUSH1 0x0 DUP1 REVERT JUMPDEST PUSH2 0x4474 DUP11 DUP3 DUP12 ADD PUSH2 0x4089 JUMP JUMPDEST SWAP8 POP POP PUSH1 0x20 PUSH2 0x4485 DUP11 DUP3 DUP12 ADD PUSH2 0x404A JUMP JUMPDEST SWAP7 POP POP PUSH1 0x40 DUP9 ADD CALLDATALOAD PUSH8 0xFFFFFFFFFFFFFFFF DUP2 GT ISZERO PUSH2 0x44A2 JUMPI PUSH1 0x0 DUP1 REVERT JUMPDEST PUSH2 0x44AE DUP11 DUP3 DUP12 ADD PUSH2 0x4089 JUMP JUMPDEST SWAP6 POP POP PUSH1 0x60 PUSH2 0x44BF DUP11 DUP3 DUP12 ADD PUSH2 0x404A JUMP JUMPDEST SWAP5 POP POP PUSH1 0x80 DUP9 ADD CALLDATALOAD PUSH8 0xFFFFFFFFFFFFFFFF DUP2 GT ISZERO PUSH2 0x44DC JUMPI PUSH1 0x0 DUP1 REVERT JUMPDEST PUSH2 0x44E8 DUP11 DUP3 DUP12 ADD PUSH2 0x4089 JUMP JUMPDEST SWAP4 POP POP PUSH1 0xA0 PUSH2 0x44F9 DUP11 DUP3 DUP12 ADD PUSH2 0x4074 JUMP JUMPDEST SWAP3 POP POP PUSH1 0xC0 PUSH2 0x450A DUP11 DUP3 DUP12 ADD PUSH2 0x4131 JUMP JUMPDEST SWAP2 POP POP SWAP3 SWAP6 SWAP9 SWAP2 SWAP5 SWAP8 POP SWAP3 SWAP6 POP JUMP JUMPDEST PUSH1 0x0 DUP1 PUSH1 0x0 DUP1 PUSH1 0x0 DUP1 PUSH1 0xC0 DUP8 DUP10 SUB SLT ISZERO PUSH2 0x4532 JUMPI PUSH1 0x0 DUP1 REVERT JUMPDEST PUSH1 0x0 DUP8 ADD CALLDATALOAD PUSH8 0xFFFFFFFFFFFFFFFF DUP2 GT ISZERO PUSH2 0x454C JUMPI PUSH1 0x0 DUP1 REVERT JUMPDEST PUSH2 0x4558 DUP10 DUP3 DUP11 ADD PUSH2 0x4089 JUMP JUMPDEST SWAP7 POP POP PUSH1 0x20 PUSH2 0x4569 DUP10 DUP3 DUP11 ADD PUSH2 0x404A JUMP JUMPDEST SWAP6 POP POP PUSH1 0x40 DUP8 ADD CALLDATALOAD PUSH8 0xFFFFFFFFFFFFFFFF DUP2 GT ISZERO PUSH2 0x4586 JUMPI PUSH1 0x0 DUP1 REVERT JUMPDEST PUSH2 0x4592 DUP10 DUP3 DUP11 ADD PUSH2 0x4089 JUMP JUMPDEST SWAP5 POP POP PUSH1 0x60 PUSH2 0x45A3 DUP10 DUP3 DUP11 ADD PUSH2 0x404A JUMP JUMPDEST SWAP4 POP POP PUSH1 0x80 DUP8 ADD CALLDATALOAD PUSH8 0xFFFFFFFFFFFFFFFF DUP2 GT ISZERO PUSH2 0x45C0 JUMPI PUSH1 0x0 DUP1 REVERT JUMPDEST PUSH2 0x45CC DUP10 DUP3 DUP11 ADD PUSH2 0x4089 JUMP JUMPDEST SWAP3 POP POP PUSH1 0xA0 DUP8 ADD CALLDATALOAD PUSH8 0xFFFFFFFFFFFFFFFF DUP2 GT ISZERO PUSH2 0x45E9 JUMPI PUSH1 0x0 DUP1 REVERT JUMPDEST PUSH2 0x45F5 DUP10 DUP3 DUP11 ADD PUSH2 0x4089 JUMP JUMPDEST SWAP2 POP POP SWAP3 SWAP6 POP SWAP3 SWAP6 POP SWAP3 SWAP6 JUMP JUMPDEST PUSH1 0x0 DUP1 PUSH1 0x0 DUP1 PUSH1 0x0 DUP1 PUSH1 0x0 PUSH1 0xE0 DUP9 DUP11 SUB SLT ISZERO PUSH2 0x461D JUMPI PUSH1 0x0 DUP1 REVERT JUMPDEST PUSH1 0x0 DUP9 ADD CALLDATALOAD PUSH8 0xFFFFFFFFFFFFFFFF DUP2 GT ISZERO PUSH2 0x4637 JUMPI PUSH1 0x0 DUP1 REVERT JUMPDEST PUSH2 0x4643 DUP11 DUP3 DUP12 ADD PUSH2 0x4089 JUMP JUMPDEST SWAP8 POP POP PUSH1 0x20 PUSH2 0x4654 DUP11 DUP3 DUP12 ADD PUSH2 0x404A JUMP JUMPDEST SWAP7 POP POP PUSH1 0x40 DUP9 ADD CALLDATALOAD PUSH8 0xFFFFFFFFFFFFFFFF DUP2 GT ISZERO PUSH2 0x4671 JUMPI PUSH1 0x0 DUP1 REVERT JUMPDEST PUSH2 0x467D DUP11 DUP3 DUP12 ADD PUSH2 0x4089 JUMP JUMPDEST SWAP6 POP POP PUSH1 0x60 PUSH2 0x468E DUP11 DUP3 DUP12 ADD PUSH2 0x404A JUMP JUMPDEST SWAP5 POP POP PUSH1 0x80 DUP9 ADD CALLDATALOAD PUSH8 0xFFFFFFFFFFFFFFFF DUP2 GT ISZERO PUSH2 0x46AB JUMPI PUSH1 0x0 DUP1 REVERT JUMPDEST PUSH2 0x46B7 DUP11 DUP3 DUP12 ADD PUSH2 0x4089 JUMP JUMPDEST SWAP4 POP POP PUSH1 0xA0 DUP9 ADD CALLDATALOAD PUSH8 0xFFFFFFFFFFFFFFFF DUP2 GT ISZERO PUSH2 0x46D4 JUMPI PUSH1 0x0 DUP1 REVERT JUMPDEST PUSH2 0x46E0 DUP11 DUP3 DUP12 ADD PUSH2 0x4089 JUMP JUMPDEST SWAP3 POP POP PUSH1 0xC0 DUP9 ADD CALLDATALOAD PUSH8 0xFFFFFFFFFFFFFFFF DUP2 GT ISZERO PUSH2 0x46FD JUMPI PUSH1 0x0 DUP1 REVERT JUMPDEST PUSH2 0x4709 DUP11 DUP3 DUP12 ADD PUSH2 0x4089 JUMP JUMPDEST SWAP2 POP POP SWAP3 SWAP6 SWAP9 SWAP2 SWAP5 SWAP8 POP SWAP3 SWAP6 POP JUMP JUMPDEST PUSH1 0x0 PUSH1 0x20 DUP3 DUP5 SUB SLT ISZERO PUSH2 0x472A JUMPI PUSH1 0x0 DUP1 REVERT JUMPDEST PUSH1 0x0 PUSH2 0x4738 DUP5 DUP3 DUP6 ADD PUSH2 0x4131 JUMP JUMPDEST SWAP2 POP POP SWAP3 SWAP2 POP POP JUMP JUMPDEST PUSH2 0x474A DUP2 PUSH2 0x505D JUMP JUMPDEST DUP3 MSTORE POP POP JUMP JUMPDEST PUSH2 0x4759 DUP2 PUSH2 0x4FF8 JUMP JUMPDEST DUP3 MSTORE POP POP JUMP JUMPDEST PUSH2 0x4768 DUP2 PUSH2 0x500A JUMP JUMPDEST DUP3 MSTORE POP POP JUMP JUMPDEST PUSH2 0x4777 DUP2 PUSH2 0x5016 JUMP JUMPDEST DUP3 MSTORE POP POP JUMP JUMPDEST PUSH2 0x478E PUSH2 0x4789 DUP3 PUSH2 0x5016 JUMP JUMPDEST PUSH2 0x50E7 JUMP JUMPDEST DUP3 MSTORE POP POP JUMP JUMPDEST PUSH2 0x479D DUP2 PUSH2 0x506F JUMP JUMPDEST DUP3 MSTORE POP POP JUMP JUMPDEST PUSH1 0x0 PUSH2 0x47AE DUP3 PUSH2 0x4FD1 JUMP JUMPDEST PUSH2 0x47B8 DUP2 DUP6 PUSH2 0x4FDC JUMP JUMPDEST SWAP4 POP PUSH2 0x47C8 DUP2 DUP6 PUSH1 0x20 DUP7 ADD PUSH2 0x50B4 JUMP JUMPDEST PUSH2 0x47D1 DUP2 PUSH2 0x50F1 JUMP JUMPDEST DUP5 ADD SWAP2 POP POP SWAP3 SWAP2 POP POP JUMP JUMPDEST PUSH1 0x0 PUSH2 0x47E7 DUP3 PUSH2 0x4FD1 JUMP JUMPDEST PUSH2 0x47F1 DUP2 DUP6 PUSH2 0x4FED JUMP JUMPDEST SWAP4 POP PUSH2 0x4801 DUP2 DUP6 PUSH1 0x20 DUP7 ADD PUSH2 0x50B4 JUMP JUMPDEST DUP1 DUP5 ADD SWAP2 POP POP SWAP3 SWAP2 POP POP JUMP JUMPDEST PUSH1 0x0 PUSH2 0x481A PUSH1 0x10 DUP4 PUSH2 0x4FDC JUMP JUMPDEST SWAP2 POP PUSH32 0x4D65646961436572746966696361746500000000000000000000000000000000 PUSH1 0x0 DUP4 ADD MSTORE PUSH1 0x20 DUP3 ADD SWAP1 POP SWAP2 SWAP1 POP JUMP JUMPDEST PUSH1 0x0 PUSH2 0x485A PUSH1 0x1C DUP4 PUSH2 0x4FDC JUMP JUMPDEST SWAP2 POP PUSH32 0x5065726D697373696F6E2044656E69656420746F206164647265737300000000 PUSH1 0x0 DUP4 ADD MSTORE PUSH1 0x20 DUP3 ADD SWAP1 POP SWAP2 SWAP1 POP JUMP JUMPDEST PUSH1 0x0 PUSH2 0x489A PUSH1 0x12 DUP4 PUSH2 0x4FDC JUMP JUMPDEST SWAP2 POP PUSH32 0x4661696C7572652041747465737465643A200000000000000000000000000000 PUSH1 0x0 DUP4 ADD MSTORE PUSH1 0x20 DUP3 ADD SWAP1 POP SWAP2 SWAP1 POP JUMP JUMPDEST PUSH1 0x0 PUSH2 0x48DA PUSH1 0xF DUP4 PUSH2 0x4FDC JUMP JUMPDEST SWAP2 POP PUSH32 0x4A6F757243657274696669636174650000000000000000000000000000000000 PUSH1 0x0 DUP4 ADD MSTORE PUSH1 0x20 DUP3 ADD SWAP1 POP SWAP2 SWAP1 POP JUMP JUMPDEST PUSH1 0x0 PUSH2 0x491A PUSH1 0x5 DUP4 PUSH2 0x4FDC JUMP JUMPDEST SWAP2 POP PUSH32 0x69734E4343000000000000000000000000000000000000000000000000000000 PUSH1 0x0 DUP4 ADD MSTORE PUSH1 0x20 DUP3 ADD SWAP1 POP SWAP2 SWAP1 POP JUMP JUMPDEST PUSH1 0x0 PUSH2 0x495A PUSH1 0x6 DUP4 PUSH2 0x4FDC JUMP JUMPDEST SWAP2 POP PUSH32 0x69734A6F75720000000000000000000000000000000000000000000000000000 PUSH1 0x0 DUP4 ADD MSTORE PUSH1 0x20 DUP3 ADD SWAP1 POP SWAP2 SWAP1 POP JUMP JUMPDEST PUSH1 0x0 PUSH2 0x499A PUSH1 0x7 DUP4 PUSH2 0x4FDC JUMP JUMPDEST SWAP2 POP PUSH32 0x69734D6564696100000000000000000000000000000000000000000000000000 PUSH1 0x0 DUP4 ADD MSTORE PUSH1 0x20 DUP3 ADD SWAP1 POP SWAP2 SWAP1 POP JUMP JUMPDEST PUSH1 0x0 PUSH2 0x49DA PUSH1 0x3 DUP4 PUSH2 0x4FED JUMP JUMPDEST SWAP2 POP PUSH32 0x5965730000000000000000000000000000000000000000000000000000000000 PUSH1 0x0 DUP4 ADD MSTORE PUSH1 0x3 DUP3 ADD SWAP1 POP SWAP2 SWAP1 POP JUMP JUMPDEST PUSH1 0x0 PUSH2 0x4A1A PUSH1 0xB DUP4 PUSH2 0x4FDC JUMP JUMPDEST SWAP2 POP PUSH32 0x6365727469666963617465000000000000000000000000000000000000000000 PUSH1 0x0 DUP4 ADD MSTORE PUSH1 0x20 DUP3 ADD SWAP1 POP SWAP2 SWAP1 POP JUMP JUMPDEST PUSH1 0x0 PUSH2 0x4A5A PUSH1 0x2F DUP4 PUSH2 0x4FDC JUMP JUMPDEST SWAP2 POP PUSH32 0x5065726D697373696F6E2068617320616C7265616479206265656E204772616E PUSH1 0x0 DUP4 ADD MSTORE PUSH32 0x74656420746F2061646472657373200000000000000000000000000000000000 PUSH1 0x20 DUP4 ADD MSTORE PUSH1 0x40 DUP3 ADD SWAP1 POP SWAP2 SWAP1 POP JUMP JUMPDEST PUSH1 0x0 PUSH2 0x4AC0 PUSH1 0x17 DUP4 PUSH2 0x4FDC JUMP JUMPDEST SWAP2 POP PUSH32 0x5375636365737366756C6C792041747465737465643A20000000000000000000 PUSH1 0x0 DUP4 ADD MSTORE PUSH1 0x20 DUP3 ADD SWAP1 POP SWAP2 SWAP1 POP JUMP JUMPDEST PUSH2 0x4AFC DUP2 PUSH2 0x5053 JUMP JUMPDEST DUP3 MSTORE POP POP JUMP JUMPDEST PUSH1 0x0 PUSH2 0x4B0E DUP3 DUP5 PUSH2 0x477D JUMP JUMPDEST PUSH1 0x20 DUP3 ADD SWAP2 POP DUP2 SWAP1 POP SWAP3 SWAP2 POP POP JUMP JUMPDEST PUSH1 0x0 PUSH2 0x4B29 DUP3 DUP5 PUSH2 0x47DC JUMP JUMPDEST SWAP2 POP DUP2 SWAP1 POP SWAP3 SWAP2 POP POP JUMP JUMPDEST PUSH1 0x0 PUSH2 0x4B3F DUP3 PUSH2 0x49CD JUMP JUMPDEST SWAP2 POP DUP2 SWAP1 POP SWAP2 SWAP1 POP JUMP JUMPDEST PUSH1 0x0 PUSH1 0x20 DUP3 ADD SWAP1 POP PUSH2 0x4B5E PUSH1 0x0 DUP4 ADD DUP5 PUSH2 0x4750 JUMP JUMPDEST SWAP3 SWAP2 POP POP JUMP JUMPDEST PUSH1 0x0 PUSH1 0x20 DUP3 ADD SWAP1 POP PUSH2 0x4B79 PUSH1 0x0 DUP4 ADD DUP5 PUSH2 0x4741 JUMP JUMPDEST SWAP3 SWAP2 POP POP JUMP JUMPDEST PUSH1 0x0 PUSH1 0x80 DUP3 ADD SWAP1 POP PUSH2 0x4B94 PUSH1 0x0 DUP4 ADD DUP8 PUSH2 0x4750 JUMP JUMPDEST PUSH2 0x4BA1 PUSH1 0x20 DUP4 ADD DUP7 PUSH2 0x476E JUMP JUMPDEST PUSH2 0x4BAE PUSH1 0x40 DUP4 ADD DUP6 PUSH2 0x4AF3 JUMP JUMPDEST DUP2 DUP2 SUB PUSH1 0x60 DUP4 ADD MSTORE PUSH2 0x4BC0 DUP2 DUP5 PUSH2 0x47A3 JUMP JUMPDEST SWAP1 POP SWAP6 SWAP5 POP POP POP POP POP JUMP JUMPDEST PUSH1 0x0 PUSH1 0x60 DUP3 ADD SWAP1 POP PUSH2 0x4BE0 PUSH1 0x0 DUP4 ADD DUP5 PUSH2 0x4750 JUMP JUMPDEST DUP2 DUP2 SUB PUSH1 0x20 DUP4 ADD MSTORE PUSH2 0x4BF1 DUP2 PUSH2 0x480D JUMP JUMPDEST SWAP1 POP DUP2 DUP2 SUB PUSH1 0x40 DUP4 ADD MSTORE PUSH2 0x4C04 DUP2 PUSH2 0x498D JUMP JUMPDEST SWAP1 POP SWAP3 SWAP2 POP POP JUMP JUMPDEST PUSH1 0x0 PUSH1 0x60 DUP3 ADD SWAP1 POP PUSH2 0x4C21 PUSH1 0x0 DUP4 ADD DUP5 PUSH2 0x4750 JUMP JUMPDEST DUP2 DUP2 SUB PUSH1 0x20 DUP4 ADD MSTORE PUSH2 0x4C32 DUP2 PUSH2 0x48CD JUMP JUMPDEST SWAP1 POP DUP2 DUP2 SUB PUSH1 0x40 DUP4 ADD MSTORE PUSH2 0x4C45 DUP2 PUSH2 0x494D JUMP JUMPDEST SWAP1 POP SWAP3 SWAP2 POP POP JUMP JUMPDEST PUSH1 0x0 PUSH1 0x60 DUP3 ADD SWAP1 POP PUSH2 0x4C62 PUSH1 0x0 DUP4 ADD DUP5 PUSH2 0x4750 JUMP JUMPDEST DUP2 DUP2 SUB PUSH1 0x20 DUP4 ADD MSTORE PUSH2 0x4C73 DUP2 PUSH2 0x4A0D JUMP JUMPDEST SWAP1 POP DUP2 DUP2 SUB PUSH1 0x40 DUP4 ADD MSTORE PUSH2 0x4C86 DUP2 PUSH2 0x490D JUMP JUMPDEST SWAP1 POP SWAP3 SWAP2 POP POP JUMP JUMPDEST PUSH1 0x0 PUSH1 0xA0 DUP3 ADD SWAP1 POP PUSH2 0x4CA3 PUSH1 0x0 DUP4 ADD DUP9 PUSH2 0x4794 JUMP JUMPDEST PUSH2 0x4CB0 PUSH1 0x20 DUP4 ADD DUP8 PUSH2 0x4750 JUMP JUMPDEST PUSH2 0x4CBD PUSH1 0x40 DUP4 ADD DUP7 PUSH2 0x4AF3 JUMP JUMPDEST PUSH2 0x4CCA PUSH1 0x60 DUP4 ADD DUP6 PUSH2 0x476E JUMP JUMPDEST PUSH2 0x4CD7 PUSH1 0x80 DUP4 ADD DUP5 PUSH2 0x475F JUMP JUMPDEST SWAP7 SWAP6 POP POP POP POP POP POP JUMP JUMPDEST PUSH1 0x0 PUSH1 0x20 DUP3 ADD SWAP1 POP DUP2 DUP2 SUB PUSH1 0x0 DUP4 ADD MSTORE PUSH2 0x4CFB DUP2 DUP5 PUSH2 0x47A3 JUMP JUMPDEST SWAP1 POP SWAP3 SWAP2 POP POP JUMP JUMPDEST PUSH1 0x0 PUSH2 0x100 DUP3 ADD SWAP1 POP DUP2 DUP2 SUB PUSH1 0x0 DUP4 ADD MSTORE PUSH2 0x4D1E DUP2 DUP12 PUSH2 0x47A3 JUMP JUMPDEST SWAP1 POP PUSH2 0x4D2D PUSH1 0x20 DUP4 ADD DUP11 PUSH2 0x4750 JUMP JUMPDEST DUP2 DUP2 SUB PUSH1 0x40 DUP4 ADD MSTORE PUSH2 0x4D3F DUP2 DUP10 PUSH2 0x47A3 JUMP JUMPDEST SWAP1 POP PUSH2 0x4D4E PUSH1 0x60 DUP4 ADD DUP9 PUSH2 0x4750 JUMP JUMPDEST DUP2 DUP2 SUB PUSH1 0x80 DUP4 ADD MSTORE PUSH2 0x4D60 DUP2 DUP8 PUSH2 0x47A3 JUMP JUMPDEST SWAP1 POP PUSH2 0x4D6F PUSH1 0xA0 DUP4 ADD DUP7 PUSH2 0x476E JUMP JUMPDEST PUSH2 0x4D7C PUSH1 0xC0 DUP4 ADD DUP6 PUSH2 0x4AF3 JUMP JUMPDEST PUSH2 0x4D89 PUSH1 0xE0 DUP4 ADD DUP5 PUSH2 0x4AF3 JUMP JUMPDEST SWAP10 SWAP9 POP POP POP POP POP POP POP POP POP JUMP JUMPDEST PUSH1 0x0 PUSH1 0xC0 DUP3 ADD SWAP1 POP DUP2 DUP2 SUB PUSH1 0x0 DUP4 ADD MSTORE PUSH2 0x4DB0 DUP2 DUP10 PUSH2 0x47A3 JUMP JUMPDEST SWAP1 POP PUSH2 0x4DBF PUSH1 0x20 DUP4 ADD DUP9 PUSH2 0x4750 JUMP JUMPDEST DUP2 DUP2 SUB PUSH1 0x40 DUP4 ADD MSTORE PUSH2 0x4DD1 DUP2 DUP8 PUSH2 0x47A3 JUMP JUMPDEST SWAP1 POP PUSH2 0x4DE0 PUSH1 0x60 DUP4 ADD DUP7 PUSH2 0x4750 JUMP JUMPDEST DUP2 DUP2 SUB PUSH1 0x80 DUP4 ADD MSTORE PUSH2 0x4DF2 DUP2 DUP6 PUSH2 0x47A3 JUMP JUMPDEST SWAP1 POP DUP2 DUP2 SUB PUSH1 0xA0 DUP4 ADD MSTORE PUSH2 0x4E06 DUP2 DUP5 PUSH2 0x47A3 JUMP JUMPDEST SWAP1 POP SWAP8 SWAP7 POP POP POP POP POP POP POP JUMP JUMPDEST PUSH1 0x0 PUSH1 0xE0 DUP3 ADD SWAP1 POP DUP2 DUP2 SUB PUSH1 0x0 DUP4 ADD MSTORE PUSH2 0x4E2D DUP2 DUP11 PUSH2 0x47A3 JUMP JUMPDEST SWAP1 POP PUSH2 0x4E3C PUSH1 0x20 DUP4 ADD DUP10 PUSH2 0x4750 JUMP JUMPDEST DUP2 DUP2 SUB PUSH1 0x40 DUP4 ADD MSTORE PUSH2 0x4E4E DUP2 DUP9 PUSH2 0x47A3 JUMP JUMPDEST SWAP1 POP PUSH2 0x4E5D PUSH1 0x60 DUP4 ADD DUP8 PUSH2 0x4750 JUMP JUMPDEST DUP2 DUP2 SUB PUSH1 0x80 DUP4 ADD MSTORE PUSH2 0x4E6F DUP2 DUP7 PUSH2 0x47A3 JUMP JUMPDEST SWAP1 POP DUP2 DUP2 SUB PUSH1 0xA0 DUP4 ADD MSTORE PUSH2 0x4E83 DUP2 DUP6 PUSH2 0x47A3 JUMP JUMPDEST SWAP1 POP DUP2 DUP2 SUB PUSH1 0xC0 DUP4 ADD MSTORE PUSH2 0x4E97 DUP2 DUP5 PUSH2 0x47A3 JUMP JUMPDEST SWAP1 POP SWAP9 SWAP8 POP POP POP POP POP POP POP POP JUMP JUMPDEST PUSH1 0x0 PUSH1 0x40 DUP3 ADD SWAP1 POP DUP2 DUP2 SUB PUSH1 0x0 DUP4 ADD MSTORE PUSH2 0x4EBE DUP2 PUSH2 0x484D JUMP JUMPDEST SWAP1 POP PUSH2 0x4ECD PUSH1 0x20 DUP4 ADD DUP5 PUSH2 0x4750 JUMP JUMPDEST SWAP3 SWAP2 POP POP JUMP JUMPDEST PUSH1 0x0 PUSH1 0x40 DUP3 ADD SWAP1 POP DUP2 DUP2 SUB PUSH1 0x0 DUP4 ADD MSTORE PUSH2 0x4EEC DUP2 PUSH2 0x488D JUMP JUMPDEST SWAP1 POP PUSH2 0x4EFB PUSH1 0x20 DUP4 ADD DUP5 PUSH2 0x4750 JUMP JUMPDEST SWAP3 SWAP2 POP POP JUMP JUMPDEST PUSH1 0x0 PUSH1 0x40 DUP3 ADD SWAP1 POP DUP2 DUP2 SUB PUSH1 0x0 DUP4 ADD MSTORE PUSH2 0x4F1A DUP2 PUSH2 0x4A4D JUMP JUMPDEST SWAP1 POP PUSH2 0x4F29 PUSH1 0x20 DUP4 ADD DUP5 PUSH2 0x4750 JUMP JUMPDEST SWAP3 SWAP2 POP POP JUMP JUMPDEST PUSH1 0x0 PUSH1 0x40 DUP3 ADD SWAP1 POP DUP2 DUP2 SUB PUSH1 0x0 DUP4 ADD MSTORE PUSH2 0x4F48 DUP2 PUSH2 0x4AB3 JUMP JUMPDEST SWAP1 POP PUSH2 0x4F57 PUSH1 0x20 DUP4 ADD DUP5 PUSH2 0x4750 JUMP JUMPDEST SWAP3 SWAP2 POP POP JUMP JUMPDEST PUSH1 0x0 PUSH1 0x20 DUP3 ADD SWAP1 POP PUSH2 0x4F72 PUSH1 0x0 DUP4 ADD DUP5 PUSH2 0x4AF3 JUMP JUMPDEST SWAP3 SWAP2 POP POP JUMP JUMPDEST PUSH1 0x0 PUSH1 0x40 MLOAD SWAP1 POP DUP2 DUP2 ADD DUP2 DUP2 LT PUSH8 0xFFFFFFFFFFFFFFFF DUP3 GT OR ISZERO PUSH2 0x4F9B JUMPI PUSH1 0x0 DUP1 REVERT JUMPDEST DUP1 PUSH1 0x40 MSTORE POP SWAP2 SWAP1 POP JUMP JUMPDEST PUSH1 0x0 PUSH8 0xFFFFFFFFFFFFFFFF DUP3 GT ISZERO PUSH2 0x4FBC JUMPI PUSH1 0x0 DUP1 REVERT JUMPDEST PUSH1 0x1F NOT PUSH1 0x1F DUP4 ADD AND SWAP1 POP PUSH1 0x20 DUP2 ADD SWAP1 POP SWAP2 SWAP1 POP JUMP JUMPDEST PUSH1 0x0 DUP2 MLOAD SWAP1 POP SWAP2 SWAP1 POP JUMP JUMPDEST PUSH1 0x0 DUP3 DUP3 MSTORE PUSH1 0x20 DUP3 ADD SWAP1 POP SWAP3 SWAP2 POP POP JUMP JUMPDEST PUSH1 0x0 DUP2 SWAP1 POP SWAP3 SWAP2 POP POP JUMP JUMPDEST PUSH1 0x0 PUSH2 0x5003 DUP3 PUSH2 0x5033 JUMP JUMPDEST SWAP1 POP SWAP2 SWAP1 POP JUMP JUMPDEST PUSH1 0x0 DUP2 ISZERO ISZERO SWAP1 POP SWAP2 SWAP1 POP JUMP JUMPDEST PUSH1 0x0 DUP2 SWAP1 POP SWAP2 SWAP1 POP JUMP JUMPDEST PUSH1 0x0 DUP2 SWAP1 POP PUSH2 0x502E DUP3 PUSH2 0x5102 JUMP JUMPDEST SWAP2 SWAP1 POP JUMP JUMPDEST PUSH1 0x0 PUSH20 0xFFFFFFFFFFFFFFFFFFFFFFFFFFFFFFFFFFFFFFFF DUP3 AND SWAP1 POP SWAP2 SWAP1 POP JUMP JUMPDEST PUSH1 0x0 DUP2 SWAP1 POP SWAP2 SWAP1 POP JUMP JUMPDEST PUSH1 0x0 PUSH2 0x5068 DUP3 PUSH2 0x5081 JUMP JUMPDEST SWAP1 POP SWAP2 SWAP1 POP JUMP JUMPDEST PUSH1 0x0 PUSH2 0x507A DUP3 PUSH2 0x5020 JUMP JUMPDEST SWAP1 POP SWAP2 SWAP1 POP JUMP JUMPDEST PUSH1 0x0 PUSH2 0x508C DUP3 PUSH2 0x5093 JUMP JUMPDEST SWAP1 POP SWAP2 SWAP1 POP JUMP JUMPDEST PUSH1 0x0 PUSH2 0x509E DUP3 PUSH2 0x5033 JUMP JUMPDEST SWAP1 POP SWAP2 SWAP1 POP JUMP JUMPDEST DUP3 DUP2 DUP4 CALLDATACOPY PUSH1 0x0 DUP4 DUP4 ADD MSTORE POP POP POP JUMP JUMPDEST PUSH1 0x0 JUMPDEST DUP4 DUP2 LT ISZERO PUSH2 0x50D2 JUMPI DUP1 DUP3 ADD MLOAD DUP2 DUP5 ADD MSTORE PUSH1 0x20 DUP2 ADD SWAP1 POP PUSH2 0x50B7 JUMP JUMPDEST DUP4 DUP2 GT ISZERO PUSH2 0x50E1 JUMPI PUSH1 0x0 DUP5 DUP5 ADD MSTORE JUMPDEST POP POP POP POP JUMP JUMPDEST PUSH1 0x0 DUP2 SWAP1 POP SWAP2 SWAP1 POP JUMP JUMPDEST PUSH1 0x0 PUSH1 0x1F NOT PUSH1 0x1F DUP4 ADD AND SWAP1 POP SWAP2 SWAP1 POP JUMP JUMPDEST PUSH1 0x6 DUP2 LT PUSH2 0x510C JUMPI INVALID JUMPDEST POP JUMP JUMPDEST PUSH2 0x5118 DUP2 PUSH2 0x4FF8 JUMP JUMPDEST DUP2 EQ PUSH2 0x5123 JUMPI PUSH1 0x0 DUP1 REVERT JUMPDEST POP JUMP JUMPDEST PUSH2 0x512F DUP2 PUSH2 0x500A JUMP JUMPDEST DUP2 EQ PUSH2 0x513A JUMPI PUSH1 0x0 DUP1 REVERT JUMPDEST POP JUMP JUMPDEST PUSH2 0x5146 DUP2 PUSH2 0x5016 JUMP JUMPDEST DUP2 EQ PUSH2 0x5151 JUMPI PUSH1 0x0 DUP1 REVERT JUMPDEST POP JUMP JUMPDEST PUSH2 0x515D DUP2 PUSH2 0x5053 JUMP JUMPDEST DUP2 EQ PUSH2 0x5168 JUMPI PUSH1 0x0 DUP1 REVERT JUMPDEST POP JUMP INVALID LOG2 PUSH5 0x6970667358 0x22 SLT KECCAK256 DUP9 0xE9 0xC0 MSTORE 0x5E 0xEE 0xDB SWAP4 RETURNDATACOPY PUSH7 0x89F21AC53847F6 0xC6 LT PUSH19 0x6160DBFCC08DF9F6E057EA7364736F6C634300 MOD MOD STOP CALLER "},"gasEstimates":{"creation":{"codeDepositCost":"4179400","executionCost":"46543","totalCost":"4225943"},"external":{"Attestation(bool,bytes32,string,address,uint256)":"infinite","BeforeAttestation(address,address,uint256)":"infinite","Check_Waiting_ChildContent(address,address,uint256)":"infinite","ChildContentInfo(bytes32,string,address,uint256)":"infinite","Denied_Permission_ChildContent(address,address,uint256)":"infinite","GrantedPermission(bool,address,uint256)":"infinite","Granted_Permission_ChildContent(address,address,uint256)":"infinite","JourUnderMedia(address,uint256)":"infinite","Jours(uint256)":"infinite","Medias(uint256)":"infinite","Requests(address,uint256)":"infinite","getMediasCount()":"1279","indexlength(address,uint256)":"infinite","indexlengthattest(address,uint256)":"infinite","indexlengthcheck(address,address)":"infinite","jourCert(string,address,string,address,string,string,string)":"infinite","jourLogin(address,address)":"infinite","jourNews(address,address,uint256)":"infinite","mediaCert(string,address,string,address,string,string)":"infinite","mediaLogin(address)":"infinite","nccEntity()":"1282","nccLogin(address)":"infinite","newsConBookeeping(string,address,string,address,string,bytes32,uint256)":"infinite","requestPermission(address,uint256)":"infinite","retrieveNewsContents(bytes32,address,address,uint256)":"infinite","return_request_length(address)":"1595"}},"methodIdentifiers":{"Attestation(bool,bytes32,string,address,uint256)":"a9588eda","BeforeAttestation(address,address,uint256)":"0ab2039f","Check_Waiting_ChildContent(address,address,uint256)":"fbcf9575","ChildContentInfo(bytes32,string,address,uint256)":"b7e06216","Denied_Permission_ChildContent(address,address,uint256)":"a6b43aca","GrantedPermission(bool,address,uint256)":"681bcf09","Granted_Permission_ChildContent(address,address,uint256)":"a32f69c0","JourUnderMedia(address,uint256)":"ef536e4f","Jours(uint256)":"e8ad308d","Medias(uint256)":"25222946","Requests(address,uint256)":"995975d8","getMediasCount()":"253245b5","indexlength(address,uint256)":"4adfd36b","indexlengthattest(address,uint256)":"977d5084","indexlengthcheck(address,address)":"f29326a4","jourCert(string,address,string,address,string,string,string)":"db76cb07","jourLogin(address,address)":"156836e3","jourNews(address,address,uint256)":"532a1bd2","mediaCert(string,address,string,address,string,string)":"2a4f0c98","mediaLogin(address)":"f0b2c594","nccEntity()":"108246f0","nccLogin(address)":"b30485fc","newsConBookeeping(string,address,string,address,string,bytes32,uint256)":"3101c146","requestPermission(address,uint256)":"8d449861","retrieveNewsContents(bytes32,address,address,uint256)":"86fb1ff5","return_request_length(address)":"0b3cc3e6"}},"storageLayout":{"storage":[{"astId":779,"contract":"dNews_entity.sol:Certificate","label":"NCC","offset":0,"slot":"0","type":"t_address"},{"astId":782,"contract":"dNews_entity.sol:Certificate","label":"nccEntity","offset":0,"slot":"1","type":"t_address"},{"astId":785,"contract":"dNews_entity.sol:Certificate","label":"Medias","offset":0,"slot":"2","type":"t_array(t_struct(mediaCertificate)751_storage)dyn_storage"},{"astId":788,"contract":"dNews_entity.sol:Certificate","label":"Jours","offset":0,"slot":"3","type":"t_array(t_struct(jourCertificate)766_storage)dyn_storage"},{"astId":792,"contract":"dNews_entity.sol:Certificate","label":"isMedia","offset":0,"slot":"4","type":"t_mapping(t_address,t_bool)"},{"astId":796,"contract":"dNews_entity.sol:Certificate","label":"isJour","offset":0,"slot":"5","type":"t_mapping(t_address,t_bool)"},{"astId":803,"contract":"dNews_entity.sol:Certificate","label":"jourNews","offset":0,"slot":"6","type":"t_mapping(t_address,t_mapping(t_address,t_array(t_struct(news_content)738_storage)dyn_storage))"},{"astId":808,"contract":"dNews_entity.sol:Certificate","label":"JourUnderMedia","offset":0,"slot":"7","type":"t_mapping(t_address,t_array(t_address)dyn_storage)"},{"astId":1306,"contract":"dNews_entity.sol:Certificate","label":"Requests","offset":0,"slot":"8","type":"t_mapping(t_address,t_array(t_struct(traceOwner)777_storage)dyn_storage)"},{"astId":1313,"contract":"dNews_entity.sol:Certificate","label":"Granted_Permission_ChildContent","offset":0,"slot":"9","type":"t_mapping(t_address,t_mapping(t_address,t_array(t_struct(news_content)738_storage)dyn_storage))"},{"astId":1320,"contract":"dNews_entity.sol:Certificate","label":"Denied_Permission_ChildContent","offset":0,"slot":"10","type":"t_mapping(t_address,t_mapping(t_address,t_array(t_struct(news_content)738_storage)dyn_storage))"},{"astId":1327,"contract":"dNews_entity.sol:Certificate","label":"Check_Waiting_ChildContent","offset":0,"slot":"11","type":"t_mapping(t_address,t_mapping(t_address,t_array(t_struct(news_content)738_storage)dyn_storage))"},{"astId":1333,"contract":"dNews_entity.sol:Certificate","label":"indexlength","offset":0,"slot":"12","type":"t_mapping(t_address,t_mapping(t_uint256,t_uint256))"},{"astId":1339,"contract":"dNews_entity.sol:Certificate","label":"indexlengthcheck","offset":0,"slot":"13","type":"t_mapping(t_address,t_mapping(t_address,t_uint256))"},{"astId":1345,"contract":"dNews_entity.sol:Certificate","label":"indexlengthattest","offset":0,"slot":"14","type":"t_mapping(t_address,t_mapping(t_uint256,t_uint256))"}],"types":{"t_address":{"encoding":"inplace","label":"address","numberOfBytes":"20"},"t_array(t_address)dyn_storage":{"base":"t_address","encoding":"dynamic_array","label":"address[]","numberOfBytes":"32"},"t_array(t_struct(jourCertificate)766_storage)dyn_storage":{"base":"t_struct(jourCertificate)766_storage","encoding":"dynamic_array","label":"struct Certificate.jourCertificate[]","numberOfBytes":"32"},"t_array(t_struct(mediaCertificate)751_storage)dyn_storage":{"base":"t_struct(mediaCertificate)751_storage","encoding":"dynamic_array","label":"struct Certificate.mediaCertificate[]","numberOfBytes":"32"},"t_array(t_struct(news_content)738_storage)dyn_storage":{"base":"t_struct(news_content)738_storage","encoding":"dynamic_array","label":"struct Certificate.news_content[]","numberOfBytes":"32"},"t_array(t_struct(traceOwner)777_storage)dyn_storage":{"base":"t_struct(traceOwner)777_storage","encoding":"dynamic_array","label":"struct Certificate.traceOwner[]","numberOfBytes":"32"},"t_bool":{"encoding":"inplace","label":"bool","numberOfBytes":"1"},"t_bytes32":{"encoding":"inplace","label":"bytes32","numberOfBytes":"32"},"t_enum(ownerState)1273":{"encoding":"inplace","label":"enum Certificate.ownerState","numberOfBytes":"1"},"t_mapping(t_address,t_array(t_address)dyn_storage)":{"encoding":"mapping","key":"t_address","label":"mapping(address => address[])","numberOfBytes":"32","value":"t_array(t_address)dyn_storage"},"t_mapping(t_address,t_array(t_struct(news_content)738_storage)dyn_storage)":{"encoding":"mapping","key":"t_address","label":"mapping(address => struct Certificate.news_content[])","numberOfBytes":"32","value":"t_array(t_struct(news_content)738_storage)dyn_storage"},"t_mapping(t_address,t_array(t_struct(traceOwner)777_storage)dyn_storage)":{"encoding":"mapping","key":"t_address","label":"mapping(address => struct Certificate.traceOwner[])","numberOfBytes":"32","value":"t_array(t_struct(traceOwner)777_storage)dyn_storage"},"t_mapping(t_address,t_bool)":{"encoding":"mapping","key":"t_address","label":"mapping(address => bool)","numberOfBytes":"32","value":"t_bool"},"t_mapping(t_address,t_mapping(t_address,t_array(t_struct(news_content)738_storage)dyn_storage))":{"encoding":"mapping","key":"t_address","label":"mapping(address => mapping(address => struct Certificate.news_content[]))","numberOfBytes":"32","value":"t_mapping(t_address,t_array(t_struct(news_content)738_storage)dyn_storage)"},"t_mapping(t_address,t_mapping(t_address,t_uint256))":{"encoding":"mapping","key":"t_address","label":"mapping(address => mapping(address => uint256))","numberOfBytes":"32","value":"t_mapping(t_address,t_uint256)"},"t_mapping(t_address,t_mapping(t_uint256,t_uint256))":{"encoding":"mapping","key":"t_address","label":"mapping(address => mapping(uint256 => uint256))","numberOfBytes":"32","value":"t_mapping(t_uint256,t_uint256)"},"t_mapping(t_address,t_uint256)":{"encoding":"mapping","key":"t_address","label":"mapping(address => uint256)","numberOfBytes":"32","value":"t_uint256"},"t_mapping(t_uint256,t_uint256)":{"encoding":"mapping","key":"t_uint256","label":"mapping(uint256 => uint256)","numberOfBytes":"32","value":"t_uint256"},"t_string_storage":{"encoding":"bytes","label":"string","numberOfBytes":"32"},"t_struct(jourCertificate)766_storage":{"encoding":"inplace","label":"struct Certificate.jourCertificate","members":[{"astId":753,"contract":"dNews_entity.sol:Certificate","label":"journame","offset":0,"slot":"0","type":"t_string_storage"},{"astId":755,"contract":"dNews_entity.sol:Certificate","label":"jourAddr","offset":0,"slot":"1","type":"t_address"},{"astId":757,"contract":"dNews_entity.sol:Certificate","label":"medianame","offset":0,"slot":"2","type":"t_string_storage"},{"astId":759,"contract":"dNews_entity.sol:Certificate","label":"mediaAddr","offset":0,"slot":"3","type":"t_address"},{"astId":761,"contract":"dNews_entity.sol:Certificate","label":"department","offset":0,"slot":"4","type":"t_string_storage"},{"astId":763,"contract":"dNews_entity.sol:Certificate","label":"jourtimeperiod","offset":0,"slot":"5","type":"t_string_storage"},{"astId":765,"contract":"dNews_entity.sol:Certificate","label":"jourcerHash","offset":0,"slot":"6","type":"t_string_storage"}],"numberOfBytes":"224"},"t_struct(mediaCertificate)751_storage":{"encoding":"inplace","label":"struct Certificate.mediaCertificate","members":[{"astId":740,"contract":"dNews_entity.sol:Certificate","label":"medianame","offset":0,"slot":"0","type":"t_string_storage"},{"astId":742,"contract":"dNews_entity.sol:Certificate","label":"mediaAddr","offset":0,"slot":"1","type":"t_address"},{"astId":744,"contract":"dNews_entity.sol:Certificate","label":"representative","offset":0,"slot":"2","type":"t_string_storage"},{"astId":746,"contract":"dNews_entity.sol:Certificate","label":"repreAddr","offset":0,"slot":"3","type":"t_address"},{"astId":748,"contract":"dNews_entity.sol:Certificate","label":"timeperiod","offset":0,"slot":"4","type":"t_string_storage"},{"astId":750,"contract":"dNews_entity.sol:Certificate","label":"mediacerHash","offset":0,"slot":"5","type":"t_string_storage"}],"numberOfBytes":"192"},"t_struct(news_content)738_storage":{"encoding":"inplace","label":"struct Certificate.news_content","members":[{"astId":723,"contract":"dNews_entity.sol:Certificate","label":"ownJour","offset":0,"slot":"0","type":"t_string_storage"},{"astId":725,"contract":"dNews_entity.sol:Certificate","label":"jourAddr","offset":0,"slot":"1","type":"t_address"},{"astId":727,"contract":"dNews_entity.sol:Certificate","label":"ownMedia","offset":0,"slot":"2","type":"t_string_storage"},{"astId":729,"contract":"dNews_entity.sol:Certificate","label":"mediaAddr","offset":0,"slot":"3","type":"t_address"},{"astId":731,"contract":"dNews_entity.sol:Certificate","label":"metadata","offset":0,"slot":"4","type":"t_string_storage"},{"astId":733,"contract":"dNews_entity.sol:Certificate","label":"IPFS_Hash","offset":0,"slot":"5","type":"t_bytes32"},{"astId":735,"contract":"dNews_entity.sol:Certificate","label":"timestamp","offset":0,"slot":"6","type":"t_uint256"},{"astId":737,"contract":"dNews_entity.sol:Certificate","label":"index","offset":0,"slot":"7","type":"t_uint256"}],"numberOfBytes":"256"},"t_struct(traceOwner)777_storage":{"encoding":"inplace","label":"struct Certificate.traceOwner","members":[{"astId":768,"contract":"dNews_entity.sol:Certificate","label":"state","offset":0,"slot":"0","type":"t_enum(ownerState)1273"},{"astId":770,"contract":"dNews_entity.sol:Certificate","label":"EA","offset":1,"slot":"0","type":"t_address"},{"astId":772,"contract":"dNews_entity.sol:Certificate","label":"OwnedContent","offset":0,"slot":"1","type":"t_uint256"},{"astId":774,"contract":"dNews_entity.sol:Certificate","label":"IPFS_Hash","offset":0,"slot":"2","type":"t_bytes32"},{"astId":776,"contract":"dNews_entity.sol:Certificate","label":"result","offset":0,"slot":"3","type":"t_bool"}],"numberOfBytes":"128"},"t_uint256":{"encoding":"inplace","label":"uint256","numberOfBytes":"32"}}},"userdoc":{"methods":{}}}