{"abi":[{"inputs":[{"internalType":"uint256","name":"","type":"uint256"}],"name":"Array","outputs":[{"internalType":"address","name":"entity","type":"address"},{"internalType":"string","name":"description","type":"string"}],"stateMutability":"view","type":"function"},{"inputs":[{"internalType":"string","name":"description","type":"string"},{"internalType":"address[]","name":"entities","type":"address[]"}],"name":"create","outputs":[],"stateMutability":"nonpayable","type":"function"},{"inputs":[],"name":"entityLength","outputs":[{"internalType":"uint32","name":"","type":"uint32"}],"stateMutability":"view","type":"function"},{"inputs":[{"internalType":"uint32","name":"index","type":"uint32"}],"name":"loadSource","outputs":[{"internalType":"address[]","name":"","type":"address[]"}],"stateMutability":"view","type":"function"}],"devdoc":{"methods":{}},"evm":{"assembly":"    /* \"MultipleEntityFactory.sol\":56:780  contract MultipleEntityFactory {... */\n  mstore(0x40, 0x80)\n  callvalue\n    /* \"--CODEGEN--\":5:14   */\n  dup1\n    /* \"--CODEGEN--\":2:4   */\n  iszero\n  tag_1\n  jumpi\n    /* \"--CODEGEN--\":27:28   */\n  0x00\n    /* \"--CODEGEN--\":24:25   */\n  dup1\n    /* \"--CODEGEN--\":17:29   */\n  revert\n    /* \"--CODEGEN--\":2:4   */\ntag_1:\n    /* \"MultipleEntityFactory.sol\":56:780  contract MultipleEntityFactory {... */\n  pop\n  dataSize(sub_0)\n  dup1\n  dataOffset(sub_0)\n  0x00\n  codecopy\n  0x00\n  return\nstop\n\nsub_0: assembly {\n        /* \"MultipleEntityFactory.sol\":56:780  contract MultipleEntityFactory {... */\n      mstore(0x40, 0x80)\n      callvalue\n        /* \"--CODEGEN--\":5:14   */\n      dup1\n        /* \"--CODEGEN--\":2:4   */\n      iszero\n      tag_1\n      jumpi\n        /* \"--CODEGEN--\":27:28   */\n      0x00\n        /* \"--CODEGEN--\":24:25   */\n      dup1\n        /* \"--CODEGEN--\":17:29   */\n      revert\n        /* \"--CODEGEN--\":2:4   */\n    tag_1:\n        /* \"MultipleEntityFactory.sol\":56:780  contract MultipleEntityFactory {... */\n      pop\n      jumpi(tag_2, lt(calldatasize, 0x04))\n      shr(0xe0, calldataload(0x00))\n      dup1\n      0x3ca701e9\n      eq\n      tag_3\n      jumpi\n      dup1\n      0xa1690e23\n      eq\n      tag_4\n      jumpi\n      dup1\n      0xae2d25f4\n      eq\n      tag_5\n      jumpi\n      dup1\n      0xd5986579\n      eq\n      tag_6\n      jumpi\n    tag_2:\n        /* \"--CODEGEN--\":12:13   */\n      0x00\n        /* \"--CODEGEN--\":9:10   */\n      dup1\n        /* \"--CODEGEN--\":2:14   */\n      revert\n        /* \"MultipleEntityFactory.sol\":663:777  function loadSource(uint32 index) public view returns(address[] memory){... */\n    tag_3:\n      tag_7\n      0x04\n      dup1\n      calldatasize\n      sub\n        /* \"--CODEGEN--\":15:17   */\n      0x20\n        /* \"--CODEGEN--\":10:13   */\n      dup2\n        /* \"--CODEGEN--\":7:18   */\n      lt\n        /* \"--CODEGEN--\":4:6   */\n      iszero\n      tag_8\n      jumpi\n        /* \"--CODEGEN--\":31:32   */\n      0x00\n        /* \"--CODEGEN--\":28:29   */\n      dup1\n        /* \"--CODEGEN--\":21:33   */\n      revert\n        /* \"--CODEGEN--\":4:6   */\n    tag_8:\n      pop\n        /* \"MultipleEntityFactory.sol\":663:777  function loadSource(uint32 index) public view returns(address[] memory){... */\n      calldataload\n      0xffffffff\n      and\n      tag_9\n      jump\t// in\n    tag_7:\n      0x40\n      dup1\n      mload\n      0x20\n      dup1\n      dup3\n      mstore\n      dup4\n      mload\n      dup2\n      dup4\n      add\n      mstore\n      dup4\n      mload\n      swap2\n      swap3\n      dup4\n      swap3\n      swap1\n      dup4\n      add\n      swap2\n      dup6\n      dup2\n      add\n      swap2\n      mul\n      dup1\n      dup4\n      dup4\n      0x00\n        /* \"--CODEGEN--\":8:108   */\n    tag_10:\n        /* \"--CODEGEN--\":33:36   */\n      dup4\n        /* \"--CODEGEN--\":30:31   */\n      dup2\n        /* \"--CODEGEN--\":27:37   */\n      lt\n        /* \"--CODEGEN--\":8:108   */\n      iszero\n      tag_12\n      jumpi\n        /* \"--CODEGEN--\":90:101   */\n      dup2\n      dup2\n      add\n        /* \"--CODEGEN--\":84:102   */\n      mload\n        /* \"--CODEGEN--\":71:82   */\n      dup4\n      dup3\n      add\n        /* \"--CODEGEN--\":64:103   */\n      mstore\n        /* \"--CODEGEN--\":52:54   */\n      0x20\n        /* \"--CODEGEN--\":45:55   */\n      add\n        /* \"--CODEGEN--\":8:108   */\n      jump(tag_10)\n    tag_12:\n        /* \"--CODEGEN--\":12:26   */\n      pop\n        /* \"MultipleEntityFactory.sol\":663:777  function loadSource(uint32 index) public view returns(address[] memory){... */\n      pop\n      pop\n      pop\n      swap1\n      pop\n      add\n      swap3\n      pop\n      pop\n      pop\n      mload(0x40)\n      dup1\n      swap2\n      sub\n      swap1\n      return\n        /* \"MultipleEntityFactory.sol\":203:225  Account[] public Array */\n    tag_4:\n      tag_13\n      0x04\n      dup1\n      calldatasize\n      sub\n        /* \"--CODEGEN--\":15:17   */\n      0x20\n        /* \"--CODEGEN--\":10:13   */\n      dup2\n        /* \"--CODEGEN--\":7:18   */\n      lt\n        /* \"--CODEGEN--\":4:6   */\n      iszero\n      tag_14\n      jumpi\n        /* \"--CODEGEN--\":31:32   */\n      0x00\n        /* \"--CODEGEN--\":28:29   */\n      dup1\n        /* \"--CODEGEN--\":21:33   */\n      revert\n        /* \"--CODEGEN--\":4:6   */\n    tag_14:\n      pop\n        /* \"MultipleEntityFactory.sol\":203:225  Account[] public Array */\n      calldataload\n      tag_15\n      jump\t// in\n    tag_13:\n      mload(0x40)\n      dup1\n      dup4\n      sub(shl(0xa0, 0x01), 0x01)\n      and\n      sub(shl(0xa0, 0x01), 0x01)\n      and\n      dup2\n      mstore\n      0x20\n      add\n      dup1\n      0x20\n      add\n      dup3\n      dup2\n      sub\n      dup3\n      mstore\n      dup4\n      dup2\n      dup2\n      mload\n      dup2\n      mstore\n      0x20\n      add\n      swap2\n      pop\n      dup1\n      mload\n      swap1\n      0x20\n      add\n      swap1\n      dup1\n      dup4\n      dup4\n        /* \"--CODEGEN--\":23:24   */\n      0x00\n        /* \"--CODEGEN--\":8:108   */\n    tag_16:\n        /* \"--CODEGEN--\":33:36   */\n      dup4\n        /* \"--CODEGEN--\":30:31   */\n      dup2\n        /* \"--CODEGEN--\":27:37   */\n      lt\n        /* \"--CODEGEN--\":8:108   */\n      iszero\n      tag_18\n      jumpi\n        /* \"--CODEGEN--\":90:101   */\n      dup2\n      dup2\n      add\n        /* \"--CODEGEN--\":84:102   */\n      mload\n        /* \"--CODEGEN--\":71:82   */\n      dup4\n      dup3\n      add\n        /* \"--CODEGEN--\":64:103   */\n      mstore\n        /* \"--CODEGEN--\":52:54   */\n      0x20\n        /* \"--CODEGEN--\":45:55   */\n      add\n        /* \"--CODEGEN--\":8:108   */\n      jump(tag_16)\n    tag_18:\n        /* \"--CODEGEN--\":12:26   */\n      pop\n        /* \"MultipleEntityFactory.sol\":203:225  Account[] public Array */\n      pop\n      pop\n      pop\n      swap1\n      pop\n      swap1\n      dup2\n      add\n      swap1\n      0x1f\n      and\n      dup1\n      iszero\n      tag_19\n      jumpi\n      dup1\n      dup3\n      sub\n      dup1\n      mload\n      0x01\n      dup4\n      0x20\n      sub\n      0x0100\n      exp\n      sub\n      not\n      and\n      dup2\n      mstore\n      0x20\n      add\n      swap2\n      pop\n    tag_19:\n      pop\n      swap4\n      pop\n      pop\n      pop\n      pop\n      mload(0x40)\n      dup1\n      swap2\n      sub\n      swap1\n      return\n        /* \"MultipleEntityFactory.sol\":562:657  function entityLength() public view returns(uint32){... */\n    tag_5:\n      tag_20\n      tag_21\n      jump\t// in\n    tag_20:\n      0x40\n      dup1\n      mload\n      0xffffffff\n      swap1\n      swap3\n      and\n      dup3\n      mstore\n      mload\n      swap1\n      dup2\n      swap1\n      sub\n      0x20\n      add\n      swap1\n      return\n        /* \"MultipleEntityFactory.sol\":232:557  function create(string memory description, address[] memory entities) public {... */\n    tag_6:\n      tag_22\n      0x04\n      dup1\n      calldatasize\n      sub\n        /* \"--CODEGEN--\":15:17   */\n      0x40\n        /* \"--CODEGEN--\":10:13   */\n      dup2\n        /* \"--CODEGEN--\":7:18   */\n      lt\n        /* \"--CODEGEN--\":4:6   */\n      iszero\n      tag_23\n      jumpi\n        /* \"--CODEGEN--\":31:32   */\n      0x00\n        /* \"--CODEGEN--\":28:29   */\n      dup1\n        /* \"--CODEGEN--\":21:33   */\n      revert\n        /* \"--CODEGEN--\":4:6   */\n    tag_23:\n        /* \"MultipleEntityFactory.sol\":232:557  function create(string memory description, address[] memory entities) public {... */\n      dup2\n      add\n      swap1\n      0x20\n      dup2\n      add\n      dup2\n      calldataload\n        /* \"--CODEGEN--\":27:38   */\n      0x0100000000\n        /* \"--CODEGEN--\":11:39   */\n      dup2\n      gt\n        /* \"--CODEGEN--\":8:10   */\n      iszero\n      tag_24\n      jumpi\n        /* \"--CODEGEN--\":52:53   */\n      0x00\n        /* \"--CODEGEN--\":49:50   */\n      dup1\n        /* \"--CODEGEN--\":42:54   */\n      revert\n        /* \"--CODEGEN--\":8:10   */\n    tag_24:\n        /* \"MultipleEntityFactory.sol\":232:557  function create(string memory description, address[] memory entities) public {... */\n      dup3\n      add\n        /* \"--CODEGEN--\":41:50   */\n      dup4\n        /* \"--CODEGEN--\":34:38   */\n      0x20\n        /* \"--CODEGEN--\":18:32   */\n      dup3\n        /* \"--CODEGEN--\":14:39   */\n      add\n        /* \"--CODEGEN--\":11:51   */\n      gt\n        /* \"--CODEGEN--\":8:10   */\n      iszero\n      tag_25\n      jumpi\n        /* \"--CODEGEN--\":64:65   */\n      0x00\n        /* \"--CODEGEN--\":61:62   */\n      dup1\n        /* \"--CODEGEN--\":54:66   */\n      revert\n        /* \"--CODEGEN--\":8:10   */\n    tag_25:\n        /* \"MultipleEntityFactory.sol\":232:557  function create(string memory description, address[] memory entities) public {... */\n      dup1\n      calldataload\n      swap1\n      0x20\n      add\n      swap2\n        /* \"--CODEGEN--\":100:109   */\n      dup5\n        /* \"--CODEGEN--\":95:96   */\n      0x01\n        /* \"--CODEGEN--\":81:93   */\n      dup4\n        /* \"--CODEGEN--\":77:97   */\n      mul\n        /* \"--CODEGEN--\":67:75   */\n      dup5\n        /* \"--CODEGEN--\":63:98   */\n      add\n        /* \"--CODEGEN--\":60:110   */\n      gt\n        /* \"--CODEGEN--\":39:50   */\n      0x0100000000\n        /* \"--CODEGEN--\":25:37   */\n      dup4\n        /* \"--CODEGEN--\":22:51   */\n      gt\n        /* \"--CODEGEN--\":11:118   */\n      or\n        /* \"--CODEGEN--\":8:10   */\n      iszero\n      tag_26\n      jumpi\n        /* \"--CODEGEN--\":131:132   */\n      0x00\n        /* \"--CODEGEN--\":128:129   */\n      dup1\n        /* \"--CODEGEN--\":121:133   */\n      revert\n        /* \"--CODEGEN--\":8:10   */\n    tag_26:\n        /* \"MultipleEntityFactory.sol\":232:557  function create(string memory description, address[] memory entities) public {... */\n      swap2\n      swap1\n      dup1\n      dup1\n      0x1f\n      add\n      0x20\n      dup1\n      swap2\n      div\n      mul\n      0x20\n      add\n      mload(0x40)\n      swap1\n      dup2\n      add\n      0x40\n      mstore\n      dup1\n      swap4\n      swap3\n      swap2\n      swap1\n      dup2\n      dup2\n      mstore\n      0x20\n      add\n      dup4\n      dup4\n        /* \"--CODEGEN--\":30:33   */\n      dup1\n        /* \"--CODEGEN--\":22:28   */\n      dup3\n        /* \"--CODEGEN--\":14:20   */\n      dup5\n        /* \"--CODEGEN--\":1:34   */\n      calldatacopy\n        /* \"--CODEGEN--\":99:100   */\n      0x00\n        /* \"--CODEGEN--\":81:97   */\n      swap3\n      add\n        /* \"--CODEGEN--\":74:101   */\n      swap2\n      swap1\n      swap2\n      mstore\n      pop\n        /* \"MultipleEntityFactory.sol\":232:557  function create(string memory description, address[] memory entities) public {... */\n      swap3\n      swap6\n      swap5\n      swap4\n      0x20\n      dup2\n      add\n      swap4\n      pop\n      calldataload\n      swap2\n      pop\n      pop\n        /* \"--CODEGEN--\":27:38   */\n      0x0100000000\n        /* \"--CODEGEN--\":11:39   */\n      dup2\n      gt\n        /* \"--CODEGEN--\":8:10   */\n      iszero\n      tag_27\n      jumpi\n        /* \"--CODEGEN--\":52:53   */\n      0x00\n        /* \"--CODEGEN--\":49:50   */\n      dup1\n        /* \"--CODEGEN--\":42:54   */\n      revert\n        /* \"--CODEGEN--\":8:10   */\n    tag_27:\n        /* \"MultipleEntityFactory.sol\":232:557  function create(string memory description, address[] memory entities) public {... */\n      dup3\n      add\n        /* \"--CODEGEN--\":41:50   */\n      dup4\n        /* \"--CODEGEN--\":34:38   */\n      0x20\n        /* \"--CODEGEN--\":18:32   */\n      dup3\n        /* \"--CODEGEN--\":14:39   */\n      add\n        /* \"--CODEGEN--\":11:51   */\n      gt\n        /* \"--CODEGEN--\":8:10   */\n      iszero\n      tag_28\n      jumpi\n        /* \"--CODEGEN--\":64:65   */\n      0x00\n        /* \"--CODEGEN--\":61:62   */\n      dup1\n        /* \"--CODEGEN--\":54:66   */\n      revert\n        /* \"--CODEGEN--\":8:10   */\n    tag_28:\n        /* \"MultipleEntityFactory.sol\":232:557  function create(string memory description, address[] memory entities) public {... */\n      dup1\n      calldataload\n      swap1\n      0x20\n      add\n      swap2\n        /* \"--CODEGEN--\":101:110   */\n      dup5\n        /* \"--CODEGEN--\":95:97   */\n      0x20\n        /* \"--CODEGEN--\":81:93   */\n      dup4\n        /* \"--CODEGEN--\":77:98   */\n      mul\n        /* \"--CODEGEN--\":67:75   */\n      dup5\n        /* \"--CODEGEN--\":63:99   */\n      add\n        /* \"--CODEGEN--\":60:111   */\n      gt\n        /* \"--CODEGEN--\":39:50   */\n      0x0100000000\n        /* \"--CODEGEN--\":25:37   */\n      dup4\n        /* \"--CODEGEN--\":22:51   */\n      gt\n        /* \"--CODEGEN--\":11:119   */\n      or\n        /* \"--CODEGEN--\":8:10   */\n      iszero\n      tag_29\n      jumpi\n        /* \"--CODEGEN--\":132:133   */\n      0x00\n        /* \"--CODEGEN--\":129:130   */\n      dup1\n        /* \"--CODEGEN--\":122:134   */\n      revert\n        /* \"--CODEGEN--\":8:10   */\n    tag_29:\n        /* \"MultipleEntityFactory.sol\":232:557  function create(string memory description, address[] memory entities) public {... */\n      swap2\n      swap1\n      dup1\n      dup1\n      0x20\n      mul\n      0x20\n      add\n      mload(0x40)\n      swap1\n      dup2\n      add\n      0x40\n      mstore\n      dup1\n      swap4\n      swap3\n      swap2\n      swap1\n      dup2\n      dup2\n      mstore\n      0x20\n      add\n      dup4\n      dup4\n      0x20\n      mul\n        /* \"--CODEGEN--\":30:33   */\n      dup1\n        /* \"--CODEGEN--\":22:28   */\n      dup3\n        /* \"--CODEGEN--\":14:20   */\n      dup5\n        /* \"--CODEGEN--\":1:34   */\n      calldatacopy\n        /* \"--CODEGEN--\":99:100   */\n      0x00\n        /* \"--CODEGEN--\":81:97   */\n      swap3\n      add\n        /* \"--CODEGEN--\":74:101   */\n      swap2\n      swap1\n      swap2\n      mstore\n      pop\n        /* \"MultipleEntityFactory.sol\":232:557  function create(string memory description, address[] memory entities) public {... */\n      swap3\n      swap6\n      pop\n      tag_30\n      swap5\n      pop\n      pop\n      pop\n      pop\n      pop\n      jump\t// in\n    tag_22:\n      stop\n        /* \"MultipleEntityFactory.sol\":663:777  function loadSource(uint32 index) public view returns(address[] memory){... */\n    tag_9:\n        /* \"MultipleEntityFactory.sol\":717:733  address[] memory */\n      0x60\n        /* \"MultipleEntityFactory.sol\":751:756  Array */\n      0x00\n        /* \"MultipleEntityFactory.sol\":757:762  index */\n      dup3\n        /* \"MultipleEntityFactory.sol\":751:763  Array[index] */\n      0xffffffff\n      and\n      dup2\n      sload\n      dup2\n      lt\n      tag_32\n      jumpi\n      invalid\n    tag_32:\n      swap1\n      0x00\n      mstore\n      keccak256(0x00, 0x20)\n      swap1\n      0x03\n      mul\n      add\n        /* \"MultipleEntityFactory.sol\":751:770  Array[index].source */\n      0x01\n      add\n        /* \"MultipleEntityFactory.sol\":744:770  return Array[index].source */\n      dup1\n      sload\n      dup1\n      0x20\n      mul\n      0x20\n      add\n      mload(0x40)\n      swap1\n      dup2\n      add\n      0x40\n      mstore\n      dup1\n      swap3\n      swap2\n      swap1\n      dup2\n      dup2\n      mstore\n      0x20\n      add\n      dup3\n      dup1\n      sload\n      dup1\n      iszero\n      tag_34\n      jumpi\n      0x20\n      mul\n      dup3\n      add\n      swap2\n      swap1\n      0x00\n      mstore\n      keccak256(0x00, 0x20)\n      swap1\n    tag_35:\n      dup2\n      sload\n      sub(shl(0xa0, 0x01), 0x01)\n      and\n      dup2\n      mstore\n      0x01\n      swap1\n      swap2\n      add\n      swap1\n      0x20\n      add\n      dup1\n      dup4\n      gt\n      tag_35\n      jumpi\n    tag_34:\n      pop\n      pop\n      pop\n      pop\n      pop\n      swap1\n      pop\n        /* \"MultipleEntityFactory.sol\":663:777  function loadSource(uint32 index) public view returns(address[] memory){... */\n      swap2\n      swap1\n      pop\n      jump\t// out\n        /* \"MultipleEntityFactory.sol\":203:225  Account[] public Array */\n    tag_15:\n      0x00\n      dup2\n      dup2\n      sload\n      dup2\n      lt\n      tag_36\n      jumpi\n      invalid\n    tag_36:\n      0x00\n      swap2\n      dup3\n      mstore\n      0x20\n      swap2\n      dup3\n      swap1\n      keccak256\n      0x03\n      swap1\n      swap2\n      mul\n      add\n      dup1\n      sload\n      0x02\n      dup1\n      dup4\n      add\n      dup1\n      sload\n      0x40\n      dup1\n      mload\n      0x1f\n      not(0x00)\n      0x01\n      dup6\n      and\n      iszero\n      0x0100\n      mul\n      add\n      swap1\n      swap4\n      and\n      swap5\n      swap1\n      swap5\n      div\n      swap2\n      dup3\n      add\n      dup8\n      swap1\n      div\n      dup8\n      mul\n      dup5\n      add\n      dup8\n      add\n      swap1\n      mstore\n      dup1\n      dup4\n      mstore\n      sub(shl(0xa0, 0x01), 0x01)\n      swap1\n      swap4\n      and\n      swap6\n      pop\n      swap3\n      swap4\n      swap1\n      swap3\n      swap2\n      swap1\n      dup4\n      add\n      dup3\n      dup3\n      dup1\n      iszero\n      tag_38\n      jumpi\n      dup1\n      0x1f\n      lt\n      tag_39\n      jumpi\n      0x0100\n      dup1\n      dup4\n      sload\n      div\n      mul\n      dup4\n      mstore\n      swap2\n      0x20\n      add\n      swap2\n      jump(tag_38)\n    tag_39:\n      dup3\n      add\n      swap2\n      swap1\n      0x00\n      mstore\n      keccak256(0x00, 0x20)\n      swap1\n    tag_40:\n      dup2\n      sload\n      dup2\n      mstore\n      swap1\n      0x01\n      add\n      swap1\n      0x20\n      add\n      dup1\n      dup4\n      gt\n      tag_40\n      jumpi\n      dup3\n      swap1\n      sub\n      0x1f\n      and\n      dup3\n      add\n      swap2\n    tag_38:\n      pop\n      pop\n      pop\n      pop\n      pop\n      swap1\n      pop\n      dup3\n      jump\t// out\n        /* \"MultipleEntityFactory.sol\":562:657  function entityLength() public view returns(uint32){... */\n    tag_21:\n        /* \"MultipleEntityFactory.sol\":606:612  uint32 */\n      0x00\n        /* \"MultipleEntityFactory.sol\":637:649  Array.length */\n      sload\n        /* \"MultipleEntityFactory.sol\":562:657  function entityLength() public view returns(uint32){... */\n    tag_41:\n      swap1\n      jump\t// out\n        /* \"MultipleEntityFactory.sol\":232:557  function create(string memory description, address[] memory entities) public {... */\n    tag_30:\n        /* \"MultipleEntityFactory.sol\":319:342  Account memory toCreate */\n      tag_43\n      tag_44\n      jump\t// in\n    tag_43:\n        /* \"MultipleEntityFactory.sol\":375:386  description */\n      dup3\n        /* \"MultipleEntityFactory.sol\":352:360  toCreate */\n      dup2\n        /* \"MultipleEntityFactory.sol\":352:372  toCreate.description */\n      0x40\n      add\n        /* \"MultipleEntityFactory.sol\":352:386  toCreate.description = description */\n      dup2\n      swap1\n      mstore\n      pop\n        /* \"MultipleEntityFactory.sol\":396:413  MultipleEntity me */\n      0x00\n        /* \"MultipleEntityFactory.sol\":435:443  entities */\n      dup3\n        /* \"MultipleEntityFactory.sol\":416:444  new MultipleEntity(entities) */\n      mload(0x40)\n      tag_45\n      swap1\n      tag_46\n      jump\t// in\n    tag_45:\n      0x20\n      dup1\n      dup3\n      mstore\n      dup3\n      mload\n      dup2\n      dup4\n      add\n      mstore\n      dup3\n      mload\n      dup3\n      swap2\n      0x40\n      dup4\n      add\n      swap2\n      dup6\n      dup3\n      add\n      swap2\n      mul\n      dup1\n      dup4\n      dup4\n      0x00\n        /* \"--CODEGEN--\":8:108   */\n    tag_47:\n        /* \"--CODEGEN--\":33:36   */\n      dup4\n        /* \"--CODEGEN--\":30:31   */\n      dup2\n        /* \"--CODEGEN--\":27:37   */\n      lt\n        /* \"--CODEGEN--\":8:108   */\n      iszero\n      tag_49\n      jumpi\n        /* \"--CODEGEN--\":90:101   */\n      dup2\n      dup2\n      add\n        /* \"--CODEGEN--\":84:102   */\n      mload\n        /* \"--CODEGEN--\":71:82   */\n      dup4\n      dup3\n      add\n        /* \"--CODEGEN--\":64:103   */\n      mstore\n        /* \"--CODEGEN--\":52:54   */\n      0x20\n        /* \"--CODEGEN--\":45:55   */\n      add\n        /* \"--CODEGEN--\":8:108   */\n      jump(tag_47)\n    tag_49:\n        /* \"--CODEGEN--\":12:26   */\n      pop\n        /* \"MultipleEntityFactory.sol\":416:444  new MultipleEntity(entities) */\n      pop\n      pop\n      pop\n      swap1\n      pop\n      add\n      swap3\n      pop\n      pop\n      pop\n      mload(0x40)\n      dup1\n      swap2\n      sub\n      swap1\n      0x00\n      create\n      dup1\n      iszero\n        /* \"--CODEGEN--\":8:17   */\n      dup1\n        /* \"--CODEGEN--\":5:7   */\n      iszero\n      tag_50\n      jumpi\n        /* \"--CODEGEN--\":45:61   */\n      returndatasize\n        /* \"--CODEGEN--\":42:43   */\n      0x00\n        /* \"--CODEGEN--\":39:40   */\n      dup1\n        /* \"--CODEGEN--\":24:62   */\n      returndatacopy\n        /* \"--CODEGEN--\":77:93   */\n      returndatasize\n        /* \"--CODEGEN--\":74:75   */\n      0x00\n        /* \"--CODEGEN--\":67:94   */\n      revert\n        /* \"--CODEGEN--\":5:7   */\n    tag_50:\n      pop\n        /* \"MultipleEntityFactory.sol\":454:469  toCreate.source */\n      0x20\n      dup4\n      dup2\n      add\n        /* \"MultipleEntityFactory.sol\":454:480  toCreate.source = entities */\n      dup6\n      dup2\n      mstore\n      sub(shl(0xa0, 0x01), 0x01)\n        /* \"MultipleEntityFactory.sol\":490:519  toCreate.entity = address(me) */\n      dup4\n      dup2\n      and\n      dup7\n      mstore\n      0x00\n        /* \"--CODEGEN--\":27:37   */\n      dup1\n      sload\n        /* \"--CODEGEN--\":39:40   */\n      0x01\n        /* \"--CODEGEN--\":23:41   */\n      dup2\n      add\n        /* \"--CODEGEN--\":45:68   */\n      dup3\n      sstore\n        /* \"MultipleEntityFactory.sol\":530:550  Array.push(toCreate) */\n      swap1\n      dup1\n      mstore\n      dup7\n      mload\n      0x290decd9548b62a8d60345a988386fc84ba6bc95484008f6362f93160ef3e563\n      0x03\n      swap1\n      swap3\n      mul\n      swap2\n      dup3\n      add\n      dup1\n      sload\n      not(sub(shl(0xa0, 0x01), 0x01))\n      and\n      swap2\n      swap1\n      swap4\n      and\n      or\n      dup3\n      sstore\n      swap2\n      mload\n      dup1\n      mload\n        /* \"MultipleEntityFactory.sol\":490:519  toCreate.entity = address(me) */\n      swap5\n      swap6\n      pop\n        /* \"MultipleEntityFactory.sol\":454:469  toCreate.source */\n      dup7\n      swap5\n        /* \"MultipleEntityFactory.sol\":530:550  Array.push(toCreate) */\n      swap2\n      swap4\n      tag_52\n      swap4\n      0x290decd9548b62a8d60345a988386fc84ba6bc95484008f6362f93160ef3e564\n      add\n      swap3\n      swap2\n      add\n      swap1\n      tag_53\n      jump\t// in\n    tag_52:\n      pop\n      0x40\n      dup3\n      add\n      mload\n      dup1\n      mload\n      tag_54\n      swap2\n      0x02\n      dup5\n      add\n      swap2\n      0x20\n      swap1\n      swap2\n      add\n      swap1\n      tag_55\n      jump\t// in\n    tag_54:\n      pop\n      pop\n      pop\n        /* \"MultipleEntityFactory.sol\":232:557  function create(string memory description, address[] memory entities) public {... */\n      pop\n      pop\n      pop\n      pop\n      jump\t// out\n        /* \"MultipleEntityFactory.sol\":56:780  contract MultipleEntityFactory {... */\n    tag_44:\n      mload(0x40)\n      dup1\n      0x60\n      add\n      0x40\n      mstore\n      dup1\n      and(sub(shl(0xa0, 0x01), 0x01), 0x00)\n      dup2\n      mstore\n      0x20\n      add\n      0x60\n      dup2\n      mstore\n      0x20\n      add\n      0x60\n      dup2\n      mstore\n      pop\n      swap1\n      jump\t// out\n    tag_46:\n      dataSize(sub_0)\n      dup1\n      dataOffset(sub_0)\n      dup4\n      codecopy\n      add\n      swap1\n      jump\t// out\n    tag_53:\n      dup3\n      dup1\n      sload\n      dup3\n      dup3\n      sstore\n      swap1\n      0x00\n      mstore\n      keccak256(0x00, 0x20)\n      swap1\n      dup2\n      add\n      swap3\n      dup3\n      iszero\n      tag_58\n      jumpi\n      swap2\n      0x20\n      mul\n      dup3\n      add\n    tag_57:\n      dup3\n      dup2\n      gt\n      iszero\n      tag_58\n      jumpi\n      dup3\n      mload\n      dup3\n      sload\n      not(sub(shl(0xa0, 0x01), 0x01))\n      and\n      sub(shl(0xa0, 0x01), 0x01)\n      swap1\n      swap2\n      and\n      or\n      dup3\n      sstore\n      0x20\n      swap1\n      swap3\n      add\n      swap2\n      0x01\n      swap1\n      swap2\n      add\n      swap1\n      jump(tag_57)\n    tag_58:\n      pop\n      tag_59\n      swap3\n      swap2\n      pop\n      tag_60\n      jump\t// in\n    tag_59:\n      pop\n      swap1\n      jump\t// out\n    tag_55:\n      dup3\n      dup1\n      sload\n      0x01\n      dup2\n      0x01\n      and\n      iszero\n      0x0100\n      mul\n      sub\n      and\n      0x02\n      swap1\n      div\n      swap1\n      0x00\n      mstore\n      keccak256(0x00, 0x20)\n      swap1\n      0x1f\n      add\n      0x20\n      swap1\n      div\n      dup2\n      add\n      swap3\n      dup3\n      0x1f\n      lt\n      tag_62\n      jumpi\n      dup1\n      mload\n      not(0xff)\n      and\n      dup4\n      dup1\n      add\n      or\n      dup6\n      sstore\n      jump(tag_64)\n    tag_62:\n      dup3\n      dup1\n      add\n      0x01\n      add\n      dup6\n      sstore\n      dup3\n      iszero\n      tag_64\n      jumpi\n      swap2\n      dup3\n      add\n    tag_63:\n      dup3\n      dup2\n      gt\n      iszero\n      tag_64\n      jumpi\n      dup3\n      mload\n      dup3\n      sstore\n      swap2\n      0x20\n      add\n      swap2\n      swap1\n      0x01\n      add\n      swap1\n      jump(tag_63)\n    tag_64:\n      pop\n      tag_59\n      swap3\n      swap2\n      pop\n      tag_66\n      jump\t// in\n    tag_60:\n      tag_41\n      swap2\n      swap1\n    tag_68:\n      dup1\n      dup3\n      gt\n      iszero\n      tag_59\n      jumpi\n      dup1\n      sload\n      not(sub(shl(0xa0, 0x01), 0x01))\n      and\n      dup2\n      sstore\n      0x01\n      add\n      jump(tag_68)\n    tag_66:\n      tag_41\n      swap2\n      swap1\n    tag_71:\n      dup1\n      dup3\n      gt\n      iszero\n      tag_59\n      jumpi\n      0x00\n      dup2\n      sstore\n      0x01\n      add\n      jump(tag_71)\n    stop\n\n    sub_0: assembly {\n            /* \"MultipleEntity.sol\":49:1834  contract MultipleEntity is Entity {... */\n          mstore(0x40, 0x80)\n            /* \"MultipleEntity.sol\":819:1136  constructor(address[] memory _owners) public {... */\n          callvalue\n            /* \"--CODEGEN--\":5:14   */\n          dup1\n            /* \"--CODEGEN--\":2:4   */\n          iszero\n          tag_1\n          jumpi\n            /* \"--CODEGEN--\":27:28   */\n          0x00\n            /* \"--CODEGEN--\":24:25   */\n          dup1\n            /* \"--CODEGEN--\":17:29   */\n          revert\n            /* \"--CODEGEN--\":2:4   */\n        tag_1:\n            /* \"MultipleEntity.sol\":819:1136  constructor(address[] memory _owners) public {... */\n          pop\n          mload(0x40)\n          sub(codesize, bytecodeSize)\n          dup1\n          bytecodeSize\n          dup4\n          codecopy\n          dup2\n          dup2\n          add\n          0x40\n          mstore\n            /* \"--CODEGEN--\":15:17   */\n          0x20\n            /* \"--CODEGEN--\":10:13   */\n          dup2\n            /* \"--CODEGEN--\":7:18   */\n          lt\n            /* \"--CODEGEN--\":4:6   */\n          iszero\n          tag_2\n          jumpi\n            /* \"--CODEGEN--\":31:32   */\n          0x00\n            /* \"--CODEGEN--\":28:29   */\n          dup1\n            /* \"--CODEGEN--\":21:33   */\n          revert\n            /* \"--CODEGEN--\":4:6   */\n        tag_2:\n            /* \"MultipleEntity.sol\":819:1136  constructor(address[] memory _owners) public {... */\n          dup2\n          add\n          swap1\n          dup1\n          dup1\n          mload\n          mload(0x40)\n          swap4\n          swap3\n          swap2\n          swap1\n          dup5\n            /* \"--CODEGEN--\":19:30   */\n          0x0100000000\n            /* \"--CODEGEN--\":14:17   */\n          dup3\n            /* \"--CODEGEN--\":11:31   */\n          gt\n            /* \"--CODEGEN--\":8:10   */\n          iszero\n          tag_3\n          jumpi\n            /* \"--CODEGEN--\":44:45   */\n          0x00\n            /* \"--CODEGEN--\":41:42   */\n          dup1\n            /* \"--CODEGEN--\":34:46   */\n          revert\n            /* \"--CODEGEN--\":8:10   */\n        tag_3:\n            /* \"--CODEGEN--\":62:83   */\n          swap1\n          dup4\n          add\n          swap1\n            /* \"--CODEGEN--\":123:127   */\n          0x20\n            /* \"--CODEGEN--\":114:128   */\n          dup3\n          add\n            /* \"--CODEGEN--\":138:169   */\n          dup6\n          dup2\n          gt\n            /* \"--CODEGEN--\":135:137   */\n          iszero\n          tag_4\n          jumpi\n            /* \"--CODEGEN--\":182:183   */\n          0x00\n            /* \"--CODEGEN--\":179:180   */\n          dup1\n            /* \"--CODEGEN--\":172:184   */\n          revert\n            /* \"--CODEGEN--\":135:137   */\n        tag_4:\n            /* \"--CODEGEN--\":219:222   */\n          dup3\n            /* \"--CODEGEN--\":213:223   */\n          mload\n            /* \"--CODEGEN--\":331:340   */\n          dup7\n            /* \"--CODEGEN--\":325:327   */\n          0x20\n            /* \"--CODEGEN--\":311:323   */\n          dup3\n            /* \"--CODEGEN--\":307:328   */\n          mul\n            /* \"--CODEGEN--\":289:305   */\n          dup4\n            /* \"--CODEGEN--\":285:329   */\n          add\n            /* \"--CODEGEN--\":282:341   */\n          gt\n            /* \"--CODEGEN--\":261:272   */\n          0x0100000000\n            /* \"--CODEGEN--\":247:259   */\n          dup3\n            /* \"--CODEGEN--\":244:273   */\n          gt\n            /* \"--CODEGEN--\":233:349   */\n          or\n            /* \"--CODEGEN--\":230:232   */\n          iszero\n          tag_5\n          jumpi\n            /* \"--CODEGEN--\":362:363   */\n          0x00\n            /* \"--CODEGEN--\":359:360   */\n          dup1\n            /* \"--CODEGEN--\":352:364   */\n          revert\n            /* \"--CODEGEN--\":230:232   */\n        tag_5:\n            /* \"--CODEGEN--\":373:398   */\n          dup3\n          mstore\n          pop\n            /* \"MultipleEntity.sol\":819:1136  constructor(address[] memory _owners) public {... */\n          dup2\n          mload\n            /* \"--CODEGEN--\":421:425   */\n          0x20\n            /* \"--CODEGEN--\":412:426   */\n          swap2\n          dup3\n          add\n          swap3\n            /* \"MultipleEntity.sol\":819:1136  constructor(address[] memory _owners) public {... */\n          dup3\n          add\n          swap2\n          mul\n          dup1\n            /* \"--CODEGEN--\":412:426   */\n          dup4\n            /* \"MultipleEntity.sol\":819:1136  constructor(address[] memory _owners) public {... */\n          dup4\n            /* \"--CODEGEN--\":23:24   */\n          0x00\n            /* \"--CODEGEN--\":8:108   */\n        tag_6:\n            /* \"--CODEGEN--\":33:36   */\n          dup4\n            /* \"--CODEGEN--\":30:31   */\n          dup2\n            /* \"--CODEGEN--\":27:37   */\n          lt\n            /* \"--CODEGEN--\":8:108   */\n          iszero\n          tag_8\n          jumpi\n            /* \"--CODEGEN--\":90:101   */\n          dup2\n          dup2\n          add\n            /* \"--CODEGEN--\":84:102   */\n          mload\n            /* \"--CODEGEN--\":71:82   */\n          dup4\n          dup3\n          add\n            /* \"--CODEGEN--\":64:103   */\n          mstore\n            /* \"--CODEGEN--\":52:54   */\n          0x20\n            /* \"--CODEGEN--\":45:55   */\n          add\n            /* \"--CODEGEN--\":8:108   */\n          jump(tag_6)\n        tag_8:\n          pop\n          pop\n          pop\n          pop\n            /* \"MultipleEntity.sol\":819:1136  constructor(address[] memory _owners) public {... */\n          swap2\n          swap1\n          swap2\n          add\n          0x40\n          mstore\n          pop\n          pop\n            /* \"MultipleEntity.sol\":885:890  false */\n          0x00\n            /* \"MultipleEntity.sol\":874:890  isSingle = false */\n          dup1\n          sload\n          not(0xff)\n          and\n          dup2\n          sstore\n            /* \"MultipleEntity.sol\":885:890  false */\n          swap2\n          pop\n          pop\n            /* \"MultipleEntity.sol\":909:1121  for(uint32 i=0; i<_owners.length; i++){... */\n        tag_11:\n            /* \"MultipleEntity.sol\":927:934  _owners */\n          dup2\n            /* \"MultipleEntity.sol\":927:941  _owners.length */\n          mload\n            /* \"MultipleEntity.sol\":925:926  i */\n          dup2\n            /* \"MultipleEntity.sol\":925:941  i<_owners.length */\n          0xffffffff\n          and\n          lt\n            /* \"MultipleEntity.sol\":909:1121  for(uint32 i=0; i<_owners.length; i++){... */\n          iszero\n          tag_12\n          jumpi\n            /* \"MultipleEntity.sol\":961:973  Entity check */\n          0x00\n            /* \"MultipleEntity.sol\":983:990  _owners */\n          dup3\n            /* \"MultipleEntity.sol\":991:992  i */\n          dup3\n            /* \"MultipleEntity.sol\":983:993  _owners[i] */\n          0xffffffff\n          and\n          dup2\n          mload\n          dup2\n          lt\n          tag_14\n          jumpi\n          invalid\n        tag_14:\n          0x20\n          mul\n          0x20\n          add\n          add\n          mload\n            /* \"MultipleEntity.sol\":961:994  Entity check = Entity(_owners[i]) */\n          swap1\n          pop\n            /* \"MultipleEntity.sol\":1016:1021  check */\n          dup1\n          0x01\n          dup1\n          0xa0\n          shl\n          sub\n            /* \"MultipleEntity.sol\":1016:1030  check.isEntity */\n          and\n          0x84aeb694\n            /* \"MultipleEntity.sol\":1016:1032  check.isEntity() */\n          mload(0x40)\n          dup2\n          0xffffffff\n          and\n          0xe0\n          shl\n          dup2\n          mstore\n          0x04\n          add\n          0x20\n          mload(0x40)\n          dup1\n          dup4\n          sub\n          dup2\n          dup7\n          dup1\n          extcodesize\n          iszero\n            /* \"--CODEGEN--\":5:14   */\n          dup1\n            /* \"--CODEGEN--\":2:4   */\n          iszero\n          tag_15\n          jumpi\n            /* \"--CODEGEN--\":27:28   */\n          0x00\n            /* \"--CODEGEN--\":24:25   */\n          dup1\n            /* \"--CODEGEN--\":17:29   */\n          revert\n            /* \"--CODEGEN--\":2:4   */\n        tag_15:\n            /* \"MultipleEntity.sol\":1016:1032  check.isEntity() */\n          pop\n          gas\n          staticcall\n          iszero\n            /* \"--CODEGEN--\":8:17   */\n          dup1\n            /* \"--CODEGEN--\":5:7   */\n          iszero\n          tag_17\n          jumpi\n            /* \"--CODEGEN--\":45:61   */\n          returndatasize\n            /* \"--CODEGEN--\":42:43   */\n          0x00\n            /* \"--CODEGEN--\":39:40   */\n          dup1\n            /* \"--CODEGEN--\":24:62   */\n          returndatacopy\n            /* \"--CODEGEN--\":77:93   */\n          returndatasize\n            /* \"--CODEGEN--\":74:75   */\n          0x00\n            /* \"--CODEGEN--\":67:94   */\n          revert\n            /* \"--CODEGEN--\":5:7   */\n        tag_17:\n            /* \"MultipleEntity.sol\":1016:1032  check.isEntity() */\n          pop\n          pop\n          pop\n          pop\n          mload(0x40)\n          returndatasize\n            /* \"--CODEGEN--\":15:17   */\n          0x20\n            /* \"--CODEGEN--\":10:13   */\n          dup2\n            /* \"--CODEGEN--\":7:18   */\n          lt\n            /* \"--CODEGEN--\":4:6   */\n          iszero\n          tag_18\n          jumpi\n            /* \"--CODEGEN--\":31:32   */\n          0x00\n            /* \"--CODEGEN--\":28:29   */\n          dup1\n            /* \"--CODEGEN--\":21:33   */\n          revert\n            /* \"--CODEGEN--\":4:6   */\n        tag_18:\n          pop\n            /* \"MultipleEntity.sol\":1016:1032  check.isEntity() */\n          mload\n            /* \"MultipleEntity.sol\":1008:1033  require(check.isEntity()) */\n          tag_19\n          jumpi\n            /* \"--CODEGEN--\":12:13   */\n          0x00\n            /* \"--CODEGEN--\":9:10   */\n          dup1\n            /* \"--CODEGEN--\":2:14   */\n          revert\n            /* \"MultipleEntity.sol\":1008:1033  require(check.isEntity()) */\n        tag_19:\n            /* \"MultipleEntity.sol\":1069:1073  true */\n          0x01\n            /* \"MultipleEntity.sol\":1047:1054  isOwner */\n          0x0a\n            /* \"MultipleEntity.sol\":1047:1066  isOwner[_owners[i]] */\n          0x00\n            /* \"MultipleEntity.sol\":1055:1062  _owners */\n          dup6\n            /* \"MultipleEntity.sol\":1063:1064  i */\n          dup6\n            /* \"MultipleEntity.sol\":1055:1065  _owners[i] */\n          0xffffffff\n          and\n          dup2\n          mload\n          dup2\n          lt\n          tag_20\n          jumpi\n          invalid\n        tag_20:\n          0x20\n          swap1\n          dup2\n          mul\n          swap2\n          swap1\n          swap2\n          add\n          dup2\n          add\n          mload\n          sub(shl(0xa0, 0x01), 0x01)\n            /* \"MultipleEntity.sol\":1047:1066  isOwner[_owners[i]] */\n          and\n          dup3\n          mstore\n          dup2\n          add\n          swap2\n          swap1\n          swap2\n          mstore\n          0x40\n          add\n          0x00\n          keccak256\n            /* \"MultipleEntity.sol\":1047:1073  isOwner[_owners[i]] = true */\n          dup1\n          sload\n          not(0xff)\n          and\n          swap2\n          iszero\n          iszero\n          swap2\n          swap1\n          swap2\n          or\n          swap1\n          sstore\n            /* \"MultipleEntity.sol\":1099:1109  _owners[i] */\n          dup3\n          mload\n            /* \"MultipleEntity.sol\":1087:1093  owners */\n          0x0b\n          swap1\n            /* \"MultipleEntity.sol\":1099:1109  _owners[i] */\n          dup5\n          swap1\n          0xffffffff\n          dup6\n          and\n          swap1\n          dup2\n          lt\n          tag_21\n          jumpi\n          invalid\n        tag_21:\n          0x20\n          swap1\n          dup2\n          mul\n          swap2\n          swap1\n          swap2\n          add\n          dup2\n          add\n          mload\n            /* \"--CODEGEN--\":27:37   */\n          dup3\n          sload\n            /* \"--CODEGEN--\":39:40   */\n          0x01\n            /* \"--CODEGEN--\":23:41   */\n          dup1\n          dup3\n          add\n            /* \"--CODEGEN--\":45:68   */\n          dup6\n          sstore\n          0x00\n            /* \"MultipleEntity.sol\":1087:1110  owners.push(_owners[i]) */\n          swap5\n          dup6\n          mstore\n          swap3\n          swap1\n          swap4\n          keccak256\n          swap1\n          swap3\n          add\n          dup1\n          sload\n          not(sub(shl(0xa0, 0x01), 0x01))\n          and\n          sub(shl(0xa0, 0x01), 0x01)\n          swap1\n          swap4\n          and\n          swap3\n          swap1\n          swap3\n          or\n          swap1\n          swap2\n          sstore\n            /* \"MultipleEntity.sol\":943:946  i++ */\n          swap2\n          swap1\n          swap2\n          add\n          swap1\n          pop\n            /* \"MultipleEntity.sol\":909:1121  for(uint32 i=0; i<_owners.length; i++){... */\n          jump(tag_11)\n        tag_12:\n          pop\n            /* \"MultipleEntity.sol\":819:1136  constructor(address[] memory _owners) public {... */\n          pop\n            /* \"MultipleEntity.sol\":49:1834  contract MultipleEntity is Entity {... */\n          dataSize(sub_0)\n          dup1\n          dataOffset(sub_0)\n          0x00\n          codecopy\n          0x00\n          return\n        stop\n\n        sub_0: assembly {\n                /* \"MultipleEntity.sol\":49:1834  contract MultipleEntity is Entity {... */\n              mstore(0x40, 0x80)\n              callvalue\n                /* \"--CODEGEN--\":5:14   */\n              dup1\n                /* \"--CODEGEN--\":2:4   */\n              iszero\n              tag_1\n              jumpi\n                /* \"--CODEGEN--\":27:28   */\n              0x00\n                /* \"--CODEGEN--\":24:25   */\n              dup1\n                /* \"--CODEGEN--\":17:29   */\n              revert\n                /* \"--CODEGEN--\":2:4   */\n            tag_1:\n                /* \"MultipleEntity.sol\":49:1834  contract MultipleEntity is Entity {... */\n              pop\n              jumpi(tag_2, lt(calldatasize, 0x04))\n              shr(0xe0, calldataload(0x00))\n              dup1\n              0x8c162152\n              gt\n              tag_38\n              jumpi\n              dup1\n              0xcf6ae528\n              gt\n              tag_39\n              jumpi\n              dup1\n              0xe29e9290\n              gt\n              tag_40\n              jumpi\n              dup1\n              0xe29e9290\n              eq\n              tag_33\n              jumpi\n              dup1\n              0xe9dff3b4\n              eq\n              tag_34\n              jumpi\n              dup1\n              0xf10f731c\n              eq\n              tag_35\n              jumpi\n              dup1\n              0xf396b51f\n              eq\n              tag_36\n              jumpi\n              dup1\n              0xfc2a8efa\n              eq\n              tag_37\n              jumpi\n              jump(tag_2)\n            tag_40:\n              dup1\n              0xcf6ae528\n              eq\n              tag_29\n              jumpi\n              dup1\n              0xd027a93e\n              eq\n              tag_30\n              jumpi\n              dup1\n              0xdb406597\n              eq\n              tag_31\n              jumpi\n              dup1\n              0xe24e7912\n              eq\n              tag_32\n              jumpi\n              jump(tag_2)\n            tag_39:\n              dup1\n              0x928ec3e5\n              gt\n              tag_41\n              jumpi\n              dup1\n              0x928ec3e5\n              eq\n              tag_24\n              jumpi\n              dup1\n              0xa1a298da\n              eq\n              tag_25\n              jumpi\n              dup1\n              0xa63de8cf\n              eq\n              tag_26\n              jumpi\n              dup1\n              0xa7ed5603\n              eq\n              tag_27\n              jumpi\n              dup1\n              0xc09bc35b\n              eq\n              tag_28\n              jumpi\n              jump(tag_2)\n            tag_41:\n              dup1\n              0x8c162152\n              eq\n              tag_20\n              jumpi\n              dup1\n              0x8cba76b1\n              eq\n              tag_10\n              jumpi\n              dup1\n              0x8e636514\n              eq\n              tag_22\n              jumpi\n              dup1\n              0x9169b323\n              eq\n              tag_23\n              jumpi\n              jump(tag_2)\n            tag_38:\n              dup1\n              0x3296e5ca\n              gt\n              tag_42\n              jumpi\n              dup1\n              0x4f51433d\n              gt\n              tag_43\n              jumpi\n              dup1\n              0x4f51433d\n              eq\n              tag_15\n              jumpi\n              dup1\n              0x7065cb48\n              eq\n              tag_16\n              jumpi\n              dup1\n              0x834fde34\n              eq\n              tag_17\n              jumpi\n              dup1\n              0x838ebd85\n              eq\n              tag_18\n              jumpi\n              dup1\n              0x84aeb694\n              eq\n              tag_19\n              jumpi\n              jump(tag_2)\n            tag_43:\n              dup1\n              0x3296e5ca\n              eq\n              tag_11\n              jumpi\n              dup1\n              0x359589ac\n              eq\n              tag_12\n              jumpi\n              dup1\n              0x4d981cf7\n              eq\n              tag_13\n              jumpi\n              dup1\n              0x4f2bcbef\n              eq\n              tag_14\n              jumpi\n              jump(tag_2)\n            tag_42:\n              dup1\n              0x173825d9\n              gt\n              tag_44\n              jumpi\n              dup1\n              0x173825d9\n              eq\n              tag_7\n              jumpi\n              dup1\n              0x2a4541d4\n              eq\n              tag_8\n              jumpi\n              dup1\n              0x2f54bf6e\n              eq\n              tag_9\n              jumpi\n              dup1\n              0x30699892\n              eq\n              tag_10\n              jumpi\n              jump(tag_2)\n            tag_44:\n              dup1\n              0x025e7c27\n              eq\n              tag_3\n              jumpi\n              dup1\n              0x08ac733a\n              eq\n              tag_4\n              jumpi\n              dup1\n              0x0f121925\n              eq\n              tag_5\n              jumpi\n              dup1\n              0x17361084\n              eq\n              tag_6\n              jumpi\n            tag_2:\n                /* \"--CODEGEN--\":12:13   */\n              0x00\n                /* \"--CODEGEN--\":9:10   */\n              dup1\n                /* \"--CODEGEN--\":2:14   */\n              revert\n                /* \"MultipleEntity.sol\":132:155  address[] public owners */\n            tag_3:\n              tag_45\n              0x04\n              dup1\n              calldatasize\n              sub\n                /* \"--CODEGEN--\":15:17   */\n              0x20\n                /* \"--CODEGEN--\":10:13   */\n              dup2\n                /* \"--CODEGEN--\":7:18   */\n              lt\n                /* \"--CODEGEN--\":4:6   */\n              iszero\n              tag_46\n              jumpi\n                /* \"--CODEGEN--\":31:32   */\n              0x00\n                /* \"--CODEGEN--\":28:29   */\n              dup1\n                /* \"--CODEGEN--\":21:33   */\n              revert\n                /* \"--CODEGEN--\":4:6   */\n            tag_46:\n              pop\n                /* \"MultipleEntity.sol\":132:155  address[] public owners */\n              calldataload\n              tag_47\n              jump\t// in\n            tag_45:\n              0x40\n              dup1\n              mload\n              0x01\n              dup1\n              0xa0\n              shl\n              sub\n              swap1\n              swap3\n              and\n              dup3\n              mstore\n              mload\n              swap1\n              dup2\n              swap1\n              sub\n              0x20\n              add\n              swap1\n              return\n                /* \"Entity.sol\":9021:9182  function keysOfData(address src, string memory des)... */\n            tag_4:\n              tag_48\n              0x04\n              dup1\n              calldatasize\n              sub\n                /* \"--CODEGEN--\":15:17   */\n              0x40\n                /* \"--CODEGEN--\":10:13   */\n              dup2\n                /* \"--CODEGEN--\":7:18   */\n              lt\n                /* \"--CODEGEN--\":4:6   */\n              iszero\n              tag_49\n              jumpi\n                /* \"--CODEGEN--\":31:32   */\n              0x00\n                /* \"--CODEGEN--\":28:29   */\n              dup1\n                /* \"--CODEGEN--\":21:33   */\n              revert\n                /* \"--CODEGEN--\":4:6   */\n            tag_49:\n                /* \"Entity.sol\":9021:9182  function keysOfData(address src, string memory des)... */\n              dup2\n              calldataload\n              sub(shl(0xa0, 0x01), 0x01)\n              and\n              swap2\n              swap1\n              dup2\n              add\n              swap1\n              0x40\n              dup2\n              add\n              0x20\n              dup3\n              add\n              calldataload\n              shl(0x20, 0x01)\n                /* \"--CODEGEN--\":11:39   */\n              dup2\n              gt\n                /* \"--CODEGEN--\":8:10   */\n              iszero\n              tag_50\n              jumpi\n                /* \"--CODEGEN--\":52:53   */\n              0x00\n                /* \"--CODEGEN--\":49:50   */\n              dup1\n                /* \"--CODEGEN--\":42:54   */\n              revert\n                /* \"--CODEGEN--\":8:10   */\n            tag_50:\n                /* \"Entity.sol\":9021:9182  function keysOfData(address src, string memory des)... */\n              dup3\n              add\n                /* \"--CODEGEN--\":41:50   */\n              dup4\n                /* \"--CODEGEN--\":34:38   */\n              0x20\n                /* \"--CODEGEN--\":18:32   */\n              dup3\n                /* \"--CODEGEN--\":14:39   */\n              add\n                /* \"--CODEGEN--\":11:51   */\n              gt\n                /* \"--CODEGEN--\":8:10   */\n              iszero\n              tag_51\n              jumpi\n                /* \"--CODEGEN--\":64:65   */\n              0x00\n                /* \"--CODEGEN--\":61:62   */\n              dup1\n                /* \"--CODEGEN--\":54:66   */\n              revert\n                /* \"--CODEGEN--\":8:10   */\n            tag_51:\n                /* \"Entity.sol\":9021:9182  function keysOfData(address src, string memory des)... */\n              dup1\n              calldataload\n              swap1\n              0x20\n              add\n              swap2\n                /* \"--CODEGEN--\":100:109   */\n              dup5\n                /* \"--CODEGEN--\":95:96   */\n              0x01\n                /* \"--CODEGEN--\":81:93   */\n              dup4\n                /* \"--CODEGEN--\":77:97   */\n              mul\n                /* \"--CODEGEN--\":67:75   */\n              dup5\n                /* \"--CODEGEN--\":63:98   */\n              add\n                /* \"--CODEGEN--\":60:110   */\n              gt\n              shl(0x20, 0x01)\n                /* \"--CODEGEN--\":25:37   */\n              dup4\n                /* \"--CODEGEN--\":22:51   */\n              gt\n                /* \"--CODEGEN--\":11:118   */\n              or\n                /* \"--CODEGEN--\":8:10   */\n              iszero\n              tag_52\n              jumpi\n                /* \"--CODEGEN--\":131:132   */\n              0x00\n                /* \"--CODEGEN--\":128:129   */\n              dup1\n                /* \"--CODEGEN--\":121:133   */\n              revert\n                /* \"--CODEGEN--\":8:10   */\n            tag_52:\n                /* \"Entity.sol\":9021:9182  function keysOfData(address src, string memory des)... */\n              swap2\n              swap1\n              dup1\n              dup1\n              0x1f\n              add\n              0x20\n              dup1\n              swap2\n              div\n              mul\n              0x20\n              add\n              mload(0x40)\n              swap1\n              dup2\n              add\n              0x40\n              mstore\n              dup1\n              swap4\n              swap3\n              swap2\n              swap1\n              dup2\n              dup2\n              mstore\n              0x20\n              add\n              dup4\n              dup4\n                /* \"--CODEGEN--\":30:33   */\n              dup1\n                /* \"--CODEGEN--\":22:28   */\n              dup3\n                /* \"--CODEGEN--\":14:20   */\n              dup5\n                /* \"--CODEGEN--\":1:34   */\n              calldatacopy\n                /* \"--CODEGEN--\":99:100   */\n              0x00\n                /* \"--CODEGEN--\":81:97   */\n              swap3\n              add\n                /* \"--CODEGEN--\":74:101   */\n              swap2\n              swap1\n              swap2\n              mstore\n              pop\n                /* \"Entity.sol\":9021:9182  function keysOfData(address src, string memory des)... */\n              swap3\n              swap6\n              pop\n              tag_53\n              swap5\n              pop\n              pop\n              pop\n              pop\n              pop\n              jump\t// in\n            tag_48:\n              0x40\n              dup1\n              mload\n              0x20\n              dup1\n              dup3\n              mstore\n              dup4\n              mload\n              dup2\n              dup4\n              add\n              mstore\n              dup4\n              mload\n              swap2\n              swap3\n              dup4\n              swap3\n              swap1\n              dup4\n              add\n              swap2\n              dup6\n              add\n              swap1\n              dup1\n              dup4\n              dup4\n              0x00\n                /* \"--CODEGEN--\":8:108   */\n            tag_54:\n                /* \"--CODEGEN--\":33:36   */\n              dup4\n                /* \"--CODEGEN--\":30:31   */\n              dup2\n                /* \"--CODEGEN--\":27:37   */\n              lt\n                /* \"--CODEGEN--\":8:108   */\n              iszero\n              tag_56\n              jumpi\n                /* \"--CODEGEN--\":90:101   */\n              dup2\n              dup2\n              add\n                /* \"--CODEGEN--\":84:102   */\n              mload\n                /* \"--CODEGEN--\":71:82   */\n              dup4\n              dup3\n              add\n                /* \"--CODEGEN--\":64:103   */\n              mstore\n                /* \"--CODEGEN--\":52:54   */\n              0x20\n                /* \"--CODEGEN--\":45:55   */\n              add\n                /* \"--CODEGEN--\":8:108   */\n              jump(tag_54)\n            tag_56:\n                /* \"--CODEGEN--\":12:26   */\n              pop\n                /* \"Entity.sol\":9021:9182  function keysOfData(address src, string memory des)... */\n              pop\n              pop\n              pop\n              swap1\n              pop\n              swap1\n              dup2\n              add\n              swap1\n              0x1f\n              and\n              dup1\n              iszero\n              tag_57\n              jumpi\n              dup1\n              dup3\n              sub\n              dup1\n              mload\n              0x01\n              dup4\n              0x20\n              sub\n              0x0100\n              exp\n              sub\n              not\n              and\n              dup2\n              mstore\n              0x20\n              add\n              swap2\n              pop\n            tag_57:\n              pop\n              swap3\n              pop\n              pop\n              pop\n              mload(0x40)\n              dup1\n              swap2\n              sub\n              swap1\n              return\n                /* \"Entity.sol\":8204:8454  function keyValueOfDataToSend(uint32 index, uint32 keyIndex) ... */\n            tag_5:\n              tag_58\n              0x04\n              dup1\n              calldatasize\n              sub\n                /* \"--CODEGEN--\":15:17   */\n              0x40\n                /* \"--CODEGEN--\":10:13   */\n              dup2\n                /* \"--CODEGEN--\":7:18   */\n              lt\n                /* \"--CODEGEN--\":4:6   */\n              iszero\n              tag_59\n              jumpi\n                /* \"--CODEGEN--\":31:32   */\n              0x00\n                /* \"--CODEGEN--\":28:29   */\n              dup1\n                /* \"--CODEGEN--\":21:33   */\n              revert\n                /* \"--CODEGEN--\":4:6   */\n            tag_59:\n              pop\n                /* \"Entity.sol\":8204:8454  function keyValueOfDataToSend(uint32 index, uint32 keyIndex) ... */\n              0xffffffff\n              dup2\n              calldataload\n              dup2\n              and\n              swap2\n              0x20\n              add\n              calldataload\n              and\n              tag_60\n              jump\t// in\n            tag_58:\n              mload(0x40)\n              dup1\n              dup1\n              0x20\n              add\n              dup1\n              0x20\n              add\n              dup4\n              dup2\n              sub\n              dup4\n              mstore\n              dup6\n              dup2\n              dup2\n              mload\n              dup2\n              mstore\n              0x20\n              add\n              swap2\n              pop\n              dup1\n              mload\n              swap1\n              0x20\n              add\n              swap1\n              dup1\n              dup4\n              dup4\n                /* \"--CODEGEN--\":23:24   */\n              0x00\n                /* \"--CODEGEN--\":8:108   */\n            tag_61:\n                /* \"--CODEGEN--\":33:36   */\n              dup4\n                /* \"--CODEGEN--\":30:31   */\n              dup2\n                /* \"--CODEGEN--\":27:37   */\n              lt\n                /* \"--CODEGEN--\":8:108   */\n              iszero\n              tag_63\n              jumpi\n                /* \"--CODEGEN--\":90:101   */\n              dup2\n              dup2\n              add\n                /* \"--CODEGEN--\":84:102   */\n              mload\n                /* \"--CODEGEN--\":71:82   */\n              dup4\n              dup3\n              add\n                /* \"--CODEGEN--\":64:103   */\n              mstore\n                /* \"--CODEGEN--\":52:54   */\n              0x20\n                /* \"--CODEGEN--\":45:55   */\n              add\n                /* \"--CODEGEN--\":8:108   */\n              jump(tag_61)\n            tag_63:\n                /* \"--CODEGEN--\":12:26   */\n              pop\n                /* \"Entity.sol\":8204:8454  function keyValueOfDataToSend(uint32 index, uint32 keyIndex) ... */\n              pop\n              pop\n              pop\n              swap1\n              pop\n              swap1\n              dup2\n              add\n              swap1\n              0x1f\n              and\n              dup1\n              iszero\n              tag_64\n              jumpi\n              dup1\n              dup3\n              sub\n              dup1\n              mload\n              0x01\n              dup4\n              0x20\n              sub\n              0x0100\n              exp\n              sub\n              not\n              and\n              dup2\n              mstore\n              0x20\n              add\n              swap2\n              pop\n            tag_64:\n              pop\n              dup4\n              dup2\n              sub\n              dup3\n              mstore\n              dup5\n              mload\n              dup2\n              mstore\n              dup5\n              mload\n              0x20\n              swap2\n              dup3\n              add\n              swap2\n              dup7\n              add\n              swap1\n              dup1\n              dup4\n              dup4\n                /* \"--CODEGEN--\":23:24   */\n              0x00\n                /* \"--CODEGEN--\":8:108   */\n            tag_65:\n                /* \"--CODEGEN--\":33:36   */\n              dup4\n                /* \"--CODEGEN--\":30:31   */\n              dup2\n                /* \"--CODEGEN--\":27:37   */\n              lt\n                /* \"--CODEGEN--\":8:108   */\n              iszero\n              tag_67\n              jumpi\n                /* \"--CODEGEN--\":90:101   */\n              dup2\n              dup2\n              add\n                /* \"--CODEGEN--\":84:102   */\n              mload\n                /* \"--CODEGEN--\":71:82   */\n              dup4\n              dup3\n              add\n                /* \"--CODEGEN--\":64:103   */\n              mstore\n                /* \"--CODEGEN--\":52:54   */\n              0x20\n                /* \"--CODEGEN--\":45:55   */\n              add\n                /* \"--CODEGEN--\":8:108   */\n              jump(tag_65)\n            tag_67:\n                /* \"--CODEGEN--\":12:26   */\n              pop\n                /* \"Entity.sol\":8204:8454  function keyValueOfDataToSend(uint32 index, uint32 keyIndex) ... */\n              pop\n              pop\n              pop\n              swap1\n              pop\n              swap1\n              dup2\n              add\n              swap1\n              0x1f\n              and\n              dup1\n              iszero\n              tag_68\n              jumpi\n              dup1\n              dup3\n              sub\n              dup1\n              mload\n              0x01\n              dup4\n              0x20\n              sub\n              0x0100\n              exp\n              sub\n              not\n              and\n              dup2\n              mstore\n              0x20\n              add\n              swap2\n              pop\n            tag_68:\n              pop\n              swap5\n              pop\n              pop\n              pop\n              pop\n              pop\n              mload(0x40)\n              dup1\n              swap2\n              sub\n              swap1\n              return\n                /* \"Entity.sol\":863:924  mapping(address=>mapping(string=>storingData)) public Storage */\n            tag_6:\n              tag_48\n              0x04\n              dup1\n              calldatasize\n              sub\n                /* \"--CODEGEN--\":15:17   */\n              0x40\n                /* \"--CODEGEN--\":10:13   */\n              dup2\n                /* \"--CODEGEN--\":7:18   */\n              lt\n                /* \"--CODEGEN--\":4:6   */\n              iszero\n              tag_70\n              jumpi\n                /* \"--CODEGEN--\":31:32   */\n              0x00\n                /* \"--CODEGEN--\":28:29   */\n              dup1\n                /* \"--CODEGEN--\":21:33   */\n              revert\n                /* \"--CODEGEN--\":4:6   */\n            tag_70:\n                /* \"Entity.sol\":863:924  mapping(address=>mapping(string=>storingData)) public Storage */\n              dup2\n              calldataload\n              sub(shl(0xa0, 0x01), 0x01)\n              and\n              swap2\n              swap1\n              dup2\n              add\n              swap1\n              0x40\n              dup2\n              add\n              0x20\n              dup3\n              add\n              calldataload\n              shl(0x20, 0x01)\n                /* \"--CODEGEN--\":11:39   */\n              dup2\n              gt\n                /* \"--CODEGEN--\":8:10   */\n              iszero\n              tag_71\n              jumpi\n                /* \"--CODEGEN--\":52:53   */\n              0x00\n                /* \"--CODEGEN--\":49:50   */\n              dup1\n                /* \"--CODEGEN--\":42:54   */\n              revert\n                /* \"--CODEGEN--\":8:10   */\n            tag_71:\n                /* \"Entity.sol\":863:924  mapping(address=>mapping(string=>storingData)) public Storage */\n              dup3\n              add\n                /* \"--CODEGEN--\":41:50   */\n              dup4\n                /* \"--CODEGEN--\":34:38   */\n              0x20\n                /* \"--CODEGEN--\":18:32   */\n              dup3\n                /* \"--CODEGEN--\":14:39   */\n              add\n                /* \"--CODEGEN--\":11:51   */\n              gt\n                /* \"--CODEGEN--\":8:10   */\n              iszero\n              tag_72\n              jumpi\n                /* \"--CODEGEN--\":64:65   */\n              0x00\n                /* \"--CODEGEN--\":61:62   */\n              dup1\n                /* \"--CODEGEN--\":54:66   */\n              revert\n                /* \"--CODEGEN--\":8:10   */\n            tag_72:\n                /* \"Entity.sol\":863:924  mapping(address=>mapping(string=>storingData)) public Storage */\n              dup1\n              calldataload\n              swap1\n              0x20\n              add\n              swap2\n                /* \"--CODEGEN--\":100:109   */\n              dup5\n                /* \"--CODEGEN--\":95:96   */\n              0x01\n                /* \"--CODEGEN--\":81:93   */\n              dup4\n                /* \"--CODEGEN--\":77:97   */\n              mul\n                /* \"--CODEGEN--\":67:75   */\n              dup5\n                /* \"--CODEGEN--\":63:98   */\n              add\n                /* \"--CODEGEN--\":60:110   */\n              gt\n              shl(0x20, 0x01)\n                /* \"--CODEGEN--\":25:37   */\n              dup4\n                /* \"--CODEGEN--\":22:51   */\n              gt\n                /* \"--CODEGEN--\":11:118   */\n              or\n                /* \"--CODEGEN--\":8:10   */\n              iszero\n              tag_73\n              jumpi\n                /* \"--CODEGEN--\":131:132   */\n              0x00\n                /* \"--CODEGEN--\":128:129   */\n              dup1\n                /* \"--CODEGEN--\":121:133   */\n              revert\n                /* \"--CODEGEN--\":8:10   */\n            tag_73:\n                /* \"Entity.sol\":863:924  mapping(address=>mapping(string=>storingData)) public Storage */\n              swap2\n              swap1\n              dup1\n              dup1\n              0x1f\n              add\n              0x20\n              dup1\n              swap2\n              div\n              mul\n              0x20\n              add\n              mload(0x40)\n              swap1\n              dup2\n              add\n              0x40\n              mstore\n              dup1\n              swap4\n              swap3\n              swap2\n              swap1\n              dup2\n              dup2\n              mstore\n              0x20\n              add\n              dup4\n              dup4\n                /* \"--CODEGEN--\":30:33   */\n              dup1\n                /* \"--CODEGEN--\":22:28   */\n              dup3\n                /* \"--CODEGEN--\":14:20   */\n              dup5\n                /* \"--CODEGEN--\":1:34   */\n              calldatacopy\n                /* \"--CODEGEN--\":99:100   */\n              0x00\n                /* \"--CODEGEN--\":81:97   */\n              swap3\n              add\n                /* \"--CODEGEN--\":74:101   */\n              swap2\n              swap1\n              swap2\n              mstore\n              pop\n                /* \"Entity.sol\":863:924  mapping(address=>mapping(string=>storingData)) public Storage */\n              swap3\n              swap6\n              pop\n              tag_74\n              swap5\n              pop\n              pop\n              pop\n              pop\n              pop\n              jump\t// in\n                /* \"MultipleEntity.sol\":1442:1827  function removeOwner(address owner)... */\n            tag_7:\n              tag_79\n              0x04\n              dup1\n              calldatasize\n              sub\n                /* \"--CODEGEN--\":15:17   */\n              0x20\n                /* \"--CODEGEN--\":10:13   */\n              dup2\n                /* \"--CODEGEN--\":7:18   */\n              lt\n                /* \"--CODEGEN--\":4:6   */\n              iszero\n              tag_80\n              jumpi\n                /* \"--CODEGEN--\":31:32   */\n              0x00\n                /* \"--CODEGEN--\":28:29   */\n              dup1\n                /* \"--CODEGEN--\":21:33   */\n              revert\n                /* \"--CODEGEN--\":4:6   */\n            tag_80:\n              pop\n                /* \"MultipleEntity.sol\":1442:1827  function removeOwner(address owner)... */\n              calldataload\n              sub(shl(0xa0, 0x01), 0x01)\n              and\n              tag_81\n              jump\t// in\n            tag_79:\n              stop\n                /* \"Entity.sol\":5867:6223  function newDataMultipleToSend(address multipleEntity, address _receiver, ... */\n            tag_8:\n              tag_82\n              0x04\n              dup1\n              calldatasize\n              sub\n                /* \"--CODEGEN--\":15:18   */\n              0xc0\n                /* \"--CODEGEN--\":10:13   */\n              dup2\n                /* \"--CODEGEN--\":7:19   */\n              lt\n                /* \"--CODEGEN--\":4:6   */\n              iszero\n              tag_83\n              jumpi\n                /* \"--CODEGEN--\":32:33   */\n              0x00\n                /* \"--CODEGEN--\":29:30   */\n              dup1\n                /* \"--CODEGEN--\":22:34   */\n              revert\n                /* \"--CODEGEN--\":4:6   */\n            tag_83:\n              sub(shl(0xa0, 0x01), 0x01)\n                /* \"Entity.sol\":5867:6223  function newDataMultipleToSend(address multipleEntity, address _receiver, ... */\n              dup3\n              calldataload\n              dup2\n              and\n              swap3\n              0x20\n              dup2\n              add\n              calldataload\n              swap1\n              swap2\n              and\n              swap2\n              dup2\n              add\n              swap1\n              0x60\n              dup2\n              add\n              0x40\n              dup3\n              add\n              calldataload\n              shl(0x20, 0x01)\n                /* \"--CODEGEN--\":11:39   */\n              dup2\n              gt\n                /* \"--CODEGEN--\":8:10   */\n              iszero\n              tag_84\n              jumpi\n                /* \"--CODEGEN--\":52:53   */\n              0x00\n                /* \"--CODEGEN--\":49:50   */\n              dup1\n                /* \"--CODEGEN--\":42:54   */\n              revert\n                /* \"--CODEGEN--\":8:10   */\n            tag_84:\n                /* \"Entity.sol\":5867:6223  function newDataMultipleToSend(address multipleEntity, address _receiver, ... */\n              dup3\n              add\n                /* \"--CODEGEN--\":41:50   */\n              dup4\n                /* \"--CODEGEN--\":34:38   */\n              0x20\n                /* \"--CODEGEN--\":18:32   */\n              dup3\n                /* \"--CODEGEN--\":14:39   */\n              add\n                /* \"--CODEGEN--\":11:51   */\n              gt\n                /* \"--CODEGEN--\":8:10   */\n              iszero\n              tag_85\n              jumpi\n                /* \"--CODEGEN--\":64:65   */\n              0x00\n                /* \"--CODEGEN--\":61:62   */\n              dup1\n                /* \"--CODEGEN--\":54:66   */\n              revert\n                /* \"--CODEGEN--\":8:10   */\n            tag_85:\n                /* \"Entity.sol\":5867:6223  function newDataMultipleToSend(address multipleEntity, address _receiver, ... */\n              dup1\n              calldataload\n              swap1\n              0x20\n              add\n              swap2\n                /* \"--CODEGEN--\":100:109   */\n              dup5\n                /* \"--CODEGEN--\":95:96   */\n              0x01\n                /* \"--CODEGEN--\":81:93   */\n              dup4\n                /* \"--CODEGEN--\":77:97   */\n              mul\n                /* \"--CODEGEN--\":67:75   */\n              dup5\n                /* \"--CODEGEN--\":63:98   */\n              add\n                /* \"--CODEGEN--\":60:110   */\n              gt\n              shl(0x20, 0x01)\n                /* \"--CODEGEN--\":25:37   */\n              dup4\n                /* \"--CODEGEN--\":22:51   */\n              gt\n                /* \"--CODEGEN--\":11:118   */\n              or\n                /* \"--CODEGEN--\":8:10   */\n              iszero\n              tag_86\n              jumpi\n                /* \"--CODEGEN--\":131:132   */\n              0x00\n                /* \"--CODEGEN--\":128:129   */\n              dup1\n                /* \"--CODEGEN--\":121:133   */\n              revert\n                /* \"--CODEGEN--\":8:10   */\n            tag_86:\n                /* \"Entity.sol\":5867:6223  function newDataMultipleToSend(address multipleEntity, address _receiver, ... */\n              swap2\n              swap1\n              dup1\n              dup1\n              0x1f\n              add\n              0x20\n              dup1\n              swap2\n              div\n              mul\n              0x20\n              add\n              mload(0x40)\n              swap1\n              dup2\n              add\n              0x40\n              mstore\n              dup1\n              swap4\n              swap3\n              swap2\n              swap1\n              dup2\n              dup2\n              mstore\n              0x20\n              add\n              dup4\n              dup4\n                /* \"--CODEGEN--\":30:33   */\n              dup1\n                /* \"--CODEGEN--\":22:28   */\n              dup3\n                /* \"--CODEGEN--\":14:20   */\n              dup5\n                /* \"--CODEGEN--\":1:34   */\n              calldatacopy\n                /* \"--CODEGEN--\":99:100   */\n              0x00\n                /* \"--CODEGEN--\":81:97   */\n              swap3\n              add\n                /* \"--CODEGEN--\":74:101   */\n              swap2\n              swap1\n              swap2\n              mstore\n              pop\n                /* \"Entity.sol\":5867:6223  function newDataMultipleToSend(address multipleEntity, address _receiver, ... */\n              swap3\n              swap6\n              swap5\n              swap4\n              0x20\n              dup2\n              add\n              swap4\n              pop\n              calldataload\n              swap2\n              pop\n              pop\n              shl(0x20, 0x01)\n                /* \"--CODEGEN--\":11:39   */\n              dup2\n              gt\n                /* \"--CODEGEN--\":8:10   */\n              iszero\n              tag_87\n              jumpi\n                /* \"--CODEGEN--\":52:53   */\n              0x00\n                /* \"--CODEGEN--\":49:50   */\n              dup1\n                /* \"--CODEGEN--\":42:54   */\n              revert\n                /* \"--CODEGEN--\":8:10   */\n            tag_87:\n                /* \"Entity.sol\":5867:6223  function newDataMultipleToSend(address multipleEntity, address _receiver, ... */\n              dup3\n              add\n                /* \"--CODEGEN--\":41:50   */\n              dup4\n                /* \"--CODEGEN--\":34:38   */\n              0x20\n                /* \"--CODEGEN--\":18:32   */\n              dup3\n                /* \"--CODEGEN--\":14:39   */\n              add\n                /* \"--CODEGEN--\":11:51   */\n              gt\n                /* \"--CODEGEN--\":8:10   */\n              iszero\n              tag_88\n              jumpi\n                /* \"--CODEGEN--\":64:65   */\n              0x00\n                /* \"--CODEGEN--\":61:62   */\n              dup1\n                /* \"--CODEGEN--\":54:66   */\n              revert\n                /* \"--CODEGEN--\":8:10   */\n            tag_88:\n                /* \"Entity.sol\":5867:6223  function newDataMultipleToSend(address multipleEntity, address _receiver, ... */\n              dup1\n              calldataload\n              swap1\n              0x20\n              add\n              swap2\n                /* \"--CODEGEN--\":100:109   */\n              dup5\n                /* \"--CODEGEN--\":95:96   */\n              0x01\n                /* \"--CODEGEN--\":81:93   */\n              dup4\n                /* \"--CODEGEN--\":77:97   */\n              mul\n                /* \"--CODEGEN--\":67:75   */\n              dup5\n                /* \"--CODEGEN--\":63:98   */\n              add\n                /* \"--CODEGEN--\":60:110   */\n              gt\n              shl(0x20, 0x01)\n                /* \"--CODEGEN--\":25:37   */\n              dup4\n                /* \"--CODEGEN--\":22:51   */\n              gt\n                /* \"--CODEGEN--\":11:118   */\n              or\n                /* \"--CODEGEN--\":8:10   */\n              iszero\n              tag_89\n              jumpi\n                /* \"--CODEGEN--\":131:132   */\n              0x00\n                /* \"--CODEGEN--\":128:129   */\n              dup1\n                /* \"--CODEGEN--\":121:133   */\n              revert\n                /* \"--CODEGEN--\":8:10   */\n            tag_89:\n                /* \"Entity.sol\":5867:6223  function newDataMultipleToSend(address multipleEntity, address _receiver, ... */\n              swap2\n              swap1\n              dup1\n              dup1\n              0x1f\n              add\n              0x20\n              dup1\n              swap2\n              div\n              mul\n              0x20\n              add\n              mload(0x40)\n              swap1\n              dup2\n              add\n              0x40\n              mstore\n              dup1\n              swap4\n              swap3\n              swap2\n              swap1\n              dup2\n              dup2\n              mstore\n              0x20\n              add\n              dup4\n              dup4\n                /* \"--CODEGEN--\":30:33   */\n              dup1\n                /* \"--CODEGEN--\":22:28   */\n              dup3\n                /* \"--CODEGEN--\":14:20   */\n              dup5\n                /* \"--CODEGEN--\":1:34   */\n              calldatacopy\n                /* \"--CODEGEN--\":99:100   */\n              0x00\n                /* \"--CODEGEN--\":81:97   */\n              swap3\n              add\n                /* \"--CODEGEN--\":74:101   */\n              swap2\n              swap1\n              swap2\n              mstore\n              pop\n                /* \"Entity.sol\":5867:6223  function newDataMultipleToSend(address multipleEntity, address _receiver, ... */\n              swap3\n              swap6\n              swap5\n              swap4\n              0x20\n              dup2\n              add\n              swap4\n              pop\n              calldataload\n              swap2\n              pop\n              pop\n              shl(0x20, 0x01)\n                /* \"--CODEGEN--\":11:39   */\n              dup2\n              gt\n                /* \"--CODEGEN--\":8:10   */\n              iszero\n              tag_90\n              jumpi\n                /* \"--CODEGEN--\":52:53   */\n              0x00\n                /* \"--CODEGEN--\":49:50   */\n              dup1\n                /* \"--CODEGEN--\":42:54   */\n              revert\n                /* \"--CODEGEN--\":8:10   */\n            tag_90:\n                /* \"Entity.sol\":5867:6223  function newDataMultipleToSend(address multipleEntity, address _receiver, ... */\n              dup3\n              add\n                /* \"--CODEGEN--\":41:50   */\n              dup4\n                /* \"--CODEGEN--\":34:38   */\n              0x20\n                /* \"--CODEGEN--\":18:32   */\n              dup3\n                /* \"--CODEGEN--\":14:39   */\n              add\n                /* \"--CODEGEN--\":11:51   */\n              gt\n                /* \"--CODEGEN--\":8:10   */\n              iszero\n              tag_91\n              jumpi\n                /* \"--CODEGEN--\":64:65   */\n              0x00\n                /* \"--CODEGEN--\":61:62   */\n              dup1\n                /* \"--CODEGEN--\":54:66   */\n              revert\n                /* \"--CODEGEN--\":8:10   */\n            tag_91:\n                /* \"Entity.sol\":5867:6223  function newDataMultipleToSend(address multipleEntity, address _receiver, ... */\n              dup1\n              calldataload\n              swap1\n              0x20\n              add\n              swap2\n                /* \"--CODEGEN--\":100:109   */\n              dup5\n                /* \"--CODEGEN--\":95:96   */\n              0x01\n                /* \"--CODEGEN--\":81:93   */\n              dup4\n                /* \"--CODEGEN--\":77:97   */\n              mul\n                /* \"--CODEGEN--\":67:75   */\n              dup5\n                /* \"--CODEGEN--\":63:98   */\n              add\n                /* \"--CODEGEN--\":60:110   */\n              gt\n              shl(0x20, 0x01)\n                /* \"--CODEGEN--\":25:37   */\n              dup4\n                /* \"--CODEGEN--\":22:51   */\n              gt\n                /* \"--CODEGEN--\":11:118   */\n              or\n                /* \"--CODEGEN--\":8:10   */\n              iszero\n              tag_92\n              jumpi\n                /* \"--CODEGEN--\":131:132   */\n              0x00\n                /* \"--CODEGEN--\":128:129   */\n              dup1\n                /* \"--CODEGEN--\":121:133   */\n              revert\n                /* \"--CODEGEN--\":8:10   */\n            tag_92:\n                /* \"Entity.sol\":5867:6223  function newDataMultipleToSend(address multipleEntity, address _receiver, ... */\n              swap2\n              swap1\n              dup1\n              dup1\n              0x1f\n              add\n              0x20\n              dup1\n              swap2\n              div\n              mul\n              0x20\n              add\n              mload(0x40)\n              swap1\n              dup2\n              add\n              0x40\n              mstore\n              dup1\n              swap4\n              swap3\n              swap2\n              swap1\n              dup2\n              dup2\n              mstore\n              0x20\n              add\n              dup4\n              dup4\n                /* \"--CODEGEN--\":30:33   */\n              dup1\n                /* \"--CODEGEN--\":22:28   */\n              dup3\n                /* \"--CODEGEN--\":14:20   */\n              dup5\n                /* \"--CODEGEN--\":1:34   */\n              calldatacopy\n                /* \"--CODEGEN--\":99:100   */\n              0x00\n                /* \"--CODEGEN--\":81:97   */\n              swap3\n              add\n                /* \"--CODEGEN--\":74:101   */\n              swap2\n              swap1\n              swap2\n              mstore\n              pop\n                /* \"Entity.sol\":5867:6223  function newDataMultipleToSend(address multipleEntity, address _receiver, ... */\n              swap3\n              swap6\n              pop\n              pop\n              pop\n              pop\n              calldataload\n              iszero\n              iszero\n              swap1\n              pop\n              tag_93\n              jump\t// in\n            tag_82:\n              0x40\n              dup1\n              mload\n              0xffffffff\n              swap1\n              swap3\n              and\n              dup3\n              mstore\n              mload\n              swap1\n              dup2\n              swap1\n              sub\n              0x20\n              add\n              swap1\n              return\n                /* \"MultipleEntity.sol\":89:126  mapping(address=>bool) public isOwner */\n            tag_9:\n              tag_94\n              0x04\n              dup1\n              calldatasize\n              sub\n                /* \"--CODEGEN--\":15:17   */\n              0x20\n                /* \"--CODEGEN--\":10:13   */\n              dup2\n                /* \"--CODEGEN--\":7:18   */\n              lt\n                /* \"--CODEGEN--\":4:6   */\n              iszero\n              tag_95\n              jumpi\n                /* \"--CODEGEN--\":31:32   */\n              0x00\n                /* \"--CODEGEN--\":28:29   */\n              dup1\n                /* \"--CODEGEN--\":21:33   */\n              revert\n                /* \"--CODEGEN--\":4:6   */\n            tag_95:\n              pop\n                /* \"MultipleEntity.sol\":89:126  mapping(address=>bool) public isOwner */\n              calldataload\n              sub(shl(0xa0, 0x01), 0x01)\n              and\n              tag_96\n              jump\t// in\n            tag_94:\n              0x40\n              dup1\n              mload\n              swap2\n              iszero\n              iszero\n              dup3\n              mstore\n              mload\n              swap1\n              dup2\n              swap1\n              sub\n              0x20\n              add\n              swap1\n              return\n                /* \"Entity.sol\":9188:9375  function fetchValue(address src, string memory des, string memory key)... */\n            tag_10:\n              tag_48\n              0x04\n              dup1\n              calldatasize\n              sub\n                /* \"--CODEGEN--\":15:17   */\n              0x60\n                /* \"--CODEGEN--\":10:13   */\n              dup2\n                /* \"--CODEGEN--\":7:18   */\n              lt\n                /* \"--CODEGEN--\":4:6   */\n              iszero\n              tag_98\n              jumpi\n                /* \"--CODEGEN--\":31:32   */\n              0x00\n                /* \"--CODEGEN--\":28:29   */\n              dup1\n                /* \"--CODEGEN--\":21:33   */\n              revert\n                /* \"--CODEGEN--\":4:6   */\n            tag_98:\n                /* \"Entity.sol\":9188:9375  function fetchValue(address src, string memory des, string memory key)... */\n              dup2\n              calldataload\n              sub(shl(0xa0, 0x01), 0x01)\n              and\n              swap2\n              swap1\n              dup2\n              add\n              swap1\n              0x40\n              dup2\n              add\n              0x20\n              dup3\n              add\n              calldataload\n              shl(0x20, 0x01)\n                /* \"--CODEGEN--\":11:39   */\n              dup2\n              gt\n                /* \"--CODEGEN--\":8:10   */\n              iszero\n              tag_99\n              jumpi\n                /* \"--CODEGEN--\":52:53   */\n              0x00\n                /* \"--CODEGEN--\":49:50   */\n              dup1\n                /* \"--CODEGEN--\":42:54   */\n              revert\n                /* \"--CODEGEN--\":8:10   */\n            tag_99:\n                /* \"Entity.sol\":9188:9375  function fetchValue(address src, string memory des, string memory key)... */\n              dup3\n              add\n                /* \"--CODEGEN--\":41:50   */\n              dup4\n                /* \"--CODEGEN--\":34:38   */\n              0x20\n                /* \"--CODEGEN--\":18:32   */\n              dup3\n                /* \"--CODEGEN--\":14:39   */\n              add\n                /* \"--CODEGEN--\":11:51   */\n              gt\n                /* \"--CODEGEN--\":8:10   */\n              iszero\n              tag_100\n              jumpi\n                /* \"--CODEGEN--\":64:65   */\n              0x00\n                /* \"--CODEGEN--\":61:62   */\n              dup1\n                /* \"--CODEGEN--\":54:66   */\n              revert\n                /* \"--CODEGEN--\":8:10   */\n            tag_100:\n                /* \"Entity.sol\":9188:9375  function fetchValue(address src, string memory des, string memory key)... */\n              dup1\n              calldataload\n              swap1\n              0x20\n              add\n              swap2\n                /* \"--CODEGEN--\":100:109   */\n              dup5\n                /* \"--CODEGEN--\":95:96   */\n              0x01\n                /* \"--CODEGEN--\":81:93   */\n              dup4\n                /* \"--CODEGEN--\":77:97   */\n              mul\n                /* \"--CODEGEN--\":67:75   */\n              dup5\n                /* \"--CODEGEN--\":63:98   */\n              add\n                /* \"--CODEGEN--\":60:110   */\n              gt\n              shl(0x20, 0x01)\n                /* \"--CODEGEN--\":25:37   */\n              dup4\n                /* \"--CODEGEN--\":22:51   */\n              gt\n                /* \"--CODEGEN--\":11:118   */\n              or\n                /* \"--CODEGEN--\":8:10   */\n              iszero\n              tag_101\n              jumpi\n                /* \"--CODEGEN--\":131:132   */\n              0x00\n                /* \"--CODEGEN--\":128:129   */\n              dup1\n                /* \"--CODEGEN--\":121:133   */\n              revert\n                /* \"--CODEGEN--\":8:10   */\n            tag_101:\n                /* \"Entity.sol\":9188:9375  function fetchValue(address src, string memory des, string memory key)... */\n              swap2\n              swap1\n              dup1\n              dup1\n              0x1f\n              add\n              0x20\n              dup1\n              swap2\n              div\n              mul\n              0x20\n              add\n              mload(0x40)\n              swap1\n              dup2\n              add\n              0x40\n              mstore\n              dup1\n              swap4\n              swap3\n              swap2\n              swap1\n              dup2\n              dup2\n              mstore\n              0x20\n              add\n              dup4\n              dup4\n                /* \"--CODEGEN--\":30:33   */\n              dup1\n                /* \"--CODEGEN--\":22:28   */\n              dup3\n                /* \"--CODEGEN--\":14:20   */\n              dup5\n                /* \"--CODEGEN--\":1:34   */\n              calldatacopy\n                /* \"--CODEGEN--\":99:100   */\n              0x00\n                /* \"--CODEGEN--\":81:97   */\n              swap3\n              add\n                /* \"--CODEGEN--\":74:101   */\n              swap2\n              swap1\n              swap2\n              mstore\n              pop\n                /* \"Entity.sol\":9188:9375  function fetchValue(address src, string memory des, string memory key)... */\n              swap3\n              swap6\n              swap5\n              swap4\n              0x20\n              dup2\n              add\n              swap4\n              pop\n              calldataload\n              swap2\n              pop\n              pop\n              shl(0x20, 0x01)\n                /* \"--CODEGEN--\":11:39   */\n              dup2\n              gt\n                /* \"--CODEGEN--\":8:10   */\n              iszero\n              tag_102\n              jumpi\n                /* \"--CODEGEN--\":52:53   */\n              0x00\n                /* \"--CODEGEN--\":49:50   */\n              dup1\n                /* \"--CODEGEN--\":42:54   */\n              revert\n                /* \"--CODEGEN--\":8:10   */\n            tag_102:\n                /* \"Entity.sol\":9188:9375  function fetchValue(address src, string memory des, string memory key)... */\n              dup3\n              add\n                /* \"--CODEGEN--\":41:50   */\n              dup4\n                /* \"--CODEGEN--\":34:38   */\n              0x20\n                /* \"--CODEGEN--\":18:32   */\n              dup3\n                /* \"--CODEGEN--\":14:39   */\n              add\n                /* \"--CODEGEN--\":11:51   */\n              gt\n                /* \"--CODEGEN--\":8:10   */\n              iszero\n              tag_103\n              jumpi\n                /* \"--CODEGEN--\":64:65   */\n              0x00\n                /* \"--CODEGEN--\":61:62   */\n              dup1\n                /* \"--CODEGEN--\":54:66   */\n              revert\n                /* \"--CODEGEN--\":8:10   */\n            tag_103:\n                /* \"Entity.sol\":9188:9375  function fetchValue(address src, string memory des, string memory key)... */\n              dup1\n              calldataload\n              swap1\n              0x20\n              add\n              swap2\n                /* \"--CODEGEN--\":100:109   */\n              dup5\n                /* \"--CODEGEN--\":95:96   */\n              0x01\n                /* \"--CODEGEN--\":81:93   */\n              dup4\n                /* \"--CODEGEN--\":77:97   */\n              mul\n                /* \"--CODEGEN--\":67:75   */\n              dup5\n                /* \"--CODEGEN--\":63:98   */\n              add\n                /* \"--CODEGEN--\":60:110   */\n              gt\n              shl(0x20, 0x01)\n                /* \"--CODEGEN--\":25:37   */\n              dup4\n                /* \"--CODEGEN--\":22:51   */\n              gt\n                /* \"--CODEGEN--\":11:118   */\n              or\n                /* \"--CODEGEN--\":8:10   */\n              iszero\n              tag_104\n              jumpi\n                /* \"--CODEGEN--\":131:132   */\n              0x00\n                /* \"--CODEGEN--\":128:129   */\n              dup1\n                /* \"--CODEGEN--\":121:133   */\n              revert\n                /* \"--CODEGEN--\":8:10   */\n            tag_104:\n                /* \"Entity.sol\":9188:9375  function fetchValue(address src, string memory des, string memory key)... */\n              swap2\n              swap1\n              dup1\n              dup1\n              0x1f\n              add\n              0x20\n              dup1\n              swap2\n              div\n              mul\n              0x20\n              add\n              mload(0x40)\n              swap1\n              dup2\n              add\n              0x40\n              mstore\n              dup1\n              swap4\n              swap3\n              swap2\n              swap1\n              dup2\n              dup2\n              mstore\n              0x20\n              add\n              dup4\n              dup4\n                /* \"--CODEGEN--\":30:33   */\n              dup1\n                /* \"--CODEGEN--\":22:28   */\n              dup3\n                /* \"--CODEGEN--\":14:20   */\n              dup5\n                /* \"--CODEGEN--\":1:34   */\n              calldatacopy\n                /* \"--CODEGEN--\":99:100   */\n              0x00\n                /* \"--CODEGEN--\":81:97   */\n              swap3\n              add\n                /* \"--CODEGEN--\":74:101   */\n              swap2\n              swap1\n              swap2\n              mstore\n              pop\n                /* \"Entity.sol\":9188:9375  function fetchValue(address src, string memory des, string memory key)... */\n              swap3\n              swap6\n              pop\n              tag_105\n              swap5\n              pop\n              pop\n              pop\n              pop\n              pop\n              jump\t// in\n                /* \"Entity.sol\":930:957  address[] public dataSource */\n            tag_11:\n              tag_45\n              0x04\n              dup1\n              calldatasize\n              sub\n                /* \"--CODEGEN--\":15:17   */\n              0x20\n                /* \"--CODEGEN--\":10:13   */\n              dup2\n                /* \"--CODEGEN--\":7:18   */\n              lt\n                /* \"--CODEGEN--\":4:6   */\n              iszero\n              tag_111\n              jumpi\n                /* \"--CODEGEN--\":31:32   */\n              0x00\n                /* \"--CODEGEN--\":28:29   */\n              dup1\n                /* \"--CODEGEN--\":21:33   */\n              revert\n                /* \"--CODEGEN--\":4:6   */\n            tag_111:\n              pop\n                /* \"Entity.sol\":930:957  address[] public dataSource */\n              calldataload\n              tag_112\n              jump\t// in\n                /* \"Entity.sol\":1009:1063  mapping(address=>string[]) public descriptionsBySource */\n            tag_12:\n              tag_48\n              0x04\n              dup1\n              calldatasize\n              sub\n                /* \"--CODEGEN--\":15:17   */\n              0x40\n                /* \"--CODEGEN--\":10:13   */\n              dup2\n                /* \"--CODEGEN--\":7:18   */\n              lt\n                /* \"--CODEGEN--\":4:6   */\n              iszero\n              tag_114\n              jumpi\n                /* \"--CODEGEN--\":31:32   */\n              0x00\n                /* \"--CODEGEN--\":28:29   */\n              dup1\n                /* \"--CODEGEN--\":21:33   */\n              revert\n                /* \"--CODEGEN--\":4:6   */\n            tag_114:\n              pop\n                /* \"Entity.sol\":1009:1063  mapping(address=>string[]) public descriptionsBySource */\n              dup1\n              calldataload\n              sub(shl(0xa0, 0x01), 0x01)\n              and\n              swap1\n              0x20\n              add\n              calldataload\n              tag_115\n              jump\t// in\n                /* \"Entity.sol\":8714:8843  function sourceLength()... */\n            tag_13:\n              tag_82\n              tag_121\n              jump\t// in\n                /* \"Entity.sol\":3202:3430  function approveDataToReceive(uint32 index)... */\n            tag_14:\n              tag_79\n              0x04\n              dup1\n              calldatasize\n              sub\n                /* \"--CODEGEN--\":15:17   */\n              0x20\n                /* \"--CODEGEN--\":10:13   */\n              dup2\n                /* \"--CODEGEN--\":7:18   */\n              lt\n                /* \"--CODEGEN--\":4:6   */\n              iszero\n              tag_123\n              jumpi\n                /* \"--CODEGEN--\":31:32   */\n              0x00\n                /* \"--CODEGEN--\":28:29   */\n              dup1\n                /* \"--CODEGEN--\":21:33   */\n              revert\n                /* \"--CODEGEN--\":4:6   */\n            tag_123:\n              pop\n                /* \"Entity.sol\":3202:3430  function approveDataToReceive(uint32 index)... */\n              calldataload\n              0xffffffff\n              and\n              tag_124\n              jump\t// in\n                /* \"Entity.sol\":3654:3810  function pendingDataToReceiveCount() ... */\n            tag_15:\n              tag_82\n              tag_126\n              jump\t// in\n                /* \"MultipleEntity.sol\":1269:1432  function addOwner(address owner)... */\n            tag_16:\n              tag_79\n              0x04\n              dup1\n              calldatasize\n              sub\n                /* \"--CODEGEN--\":15:17   */\n              0x20\n                /* \"--CODEGEN--\":10:13   */\n              dup2\n                /* \"--CODEGEN--\":7:18   */\n              lt\n                /* \"--CODEGEN--\":4:6   */\n              iszero\n              tag_128\n              jumpi\n                /* \"--CODEGEN--\":31:32   */\n              0x00\n                /* \"--CODEGEN--\":28:29   */\n              dup1\n                /* \"--CODEGEN--\":21:33   */\n              revert\n                /* \"--CODEGEN--\":4:6   */\n            tag_128:\n              pop\n                /* \"MultipleEntity.sol\":1269:1432  function addOwner(address owner)... */\n              calldataload\n              sub(shl(0xa0, 0x01), 0x01)\n              and\n              tag_129\n              jump\t// in\n                /* \"Entity.sol\":3820:3992  function dataSizeToReceive(uint32 index) ... */\n            tag_17:\n              tag_82\n              0x04\n              dup1\n              calldatasize\n              sub\n                /* \"--CODEGEN--\":15:17   */\n              0x20\n                /* \"--CODEGEN--\":10:13   */\n              dup2\n                /* \"--CODEGEN--\":7:18   */\n              lt\n                /* \"--CODEGEN--\":4:6   */\n              iszero\n              tag_131\n              jumpi\n                /* \"--CODEGEN--\":31:32   */\n              0x00\n                /* \"--CODEGEN--\":28:29   */\n              dup1\n                /* \"--CODEGEN--\":21:33   */\n              revert\n                /* \"--CODEGEN--\":4:6   */\n            tag_131:\n              pop\n                /* \"Entity.sol\":3820:3992  function dataSizeToReceive(uint32 index) ... */\n              calldataload\n              0xffffffff\n              and\n              tag_132\n              jump\t// in\n                /* \"Entity.sol\":7119:7650  function approveDataToSend(uint32 index) ... */\n            tag_18:\n              tag_79\n              0x04\n              dup1\n              calldatasize\n              sub\n                /* \"--CODEGEN--\":15:17   */\n              0x20\n                /* \"--CODEGEN--\":10:13   */\n              dup2\n                /* \"--CODEGEN--\":7:18   */\n              lt\n                /* \"--CODEGEN--\":4:6   */\n              iszero\n              tag_134\n              jumpi\n                /* \"--CODEGEN--\":31:32   */\n              0x00\n                /* \"--CODEGEN--\":28:29   */\n              dup1\n                /* \"--CODEGEN--\":21:33   */\n              revert\n                /* \"--CODEGEN--\":4:6   */\n            tag_134:\n              pop\n                /* \"Entity.sol\":7119:7650  function approveDataToSend(uint32 index) ... */\n              calldataload\n              0xffffffff\n              and\n              tag_135\n              jump\t// in\n                /* \"Entity.sol\":710:746  bool constant public isEntity = true */\n            tag_19:\n              tag_94\n              tag_137\n              jump\t// in\n                /* \"Entity.sol\":4296:5857  function newDataToSend(address _receiver, string memory _description, string memory _key, string memory _value, bool direct) ... */\n            tag_20:\n              tag_79\n              0x04\n              dup1\n              calldatasize\n              sub\n                /* \"--CODEGEN--\":15:18   */\n              0xa0\n                /* \"--CODEGEN--\":10:13   */\n              dup2\n                /* \"--CODEGEN--\":7:19   */\n              lt\n                /* \"--CODEGEN--\":4:6   */\n              iszero\n              tag_139\n              jumpi\n                /* \"--CODEGEN--\":32:33   */\n              0x00\n                /* \"--CODEGEN--\":29:30   */\n              dup1\n                /* \"--CODEGEN--\":22:34   */\n              revert\n                /* \"--CODEGEN--\":4:6   */\n            tag_139:\n                /* \"Entity.sol\":4296:5857  function newDataToSend(address _receiver, string memory _description, string memory _key, string memory _value, bool direct) ... */\n              dup2\n              calldataload\n              sub(shl(0xa0, 0x01), 0x01)\n              and\n              swap2\n              swap1\n              dup2\n              add\n              swap1\n              0x40\n              dup2\n              add\n              0x20\n              dup3\n              add\n              calldataload\n              shl(0x20, 0x01)\n                /* \"--CODEGEN--\":11:39   */\n              dup2\n              gt\n                /* \"--CODEGEN--\":8:10   */\n              iszero\n              tag_140\n              jumpi\n                /* \"--CODEGEN--\":52:53   */\n              0x00\n                /* \"--CODEGEN--\":49:50   */\n              dup1\n                /* \"--CODEGEN--\":42:54   */\n              revert\n                /* \"--CODEGEN--\":8:10   */\n            tag_140:\n                /* \"Entity.sol\":4296:5857  function newDataToSend(address _receiver, string memory _description, string memory _key, string memory _value, bool direct) ... */\n              dup3\n              add\n                /* \"--CODEGEN--\":41:50   */\n              dup4\n                /* \"--CODEGEN--\":34:38   */\n              0x20\n                /* \"--CODEGEN--\":18:32   */\n              dup3\n                /* \"--CODEGEN--\":14:39   */\n              add\n                /* \"--CODEGEN--\":11:51   */\n              gt\n                /* \"--CODEGEN--\":8:10   */\n              iszero\n              tag_141\n              jumpi\n                /* \"--CODEGEN--\":64:65   */\n              0x00\n                /* \"--CODEGEN--\":61:62   */\n              dup1\n                /* \"--CODEGEN--\":54:66   */\n              revert\n                /* \"--CODEGEN--\":8:10   */\n            tag_141:\n                /* \"Entity.sol\":4296:5857  function newDataToSend(address _receiver, string memory _description, string memory _key, string memory _value, bool direct) ... */\n              dup1\n              calldataload\n              swap1\n              0x20\n              add\n              swap2\n                /* \"--CODEGEN--\":100:109   */\n              dup5\n                /* \"--CODEGEN--\":95:96   */\n              0x01\n                /* \"--CODEGEN--\":81:93   */\n              dup4\n                /* \"--CODEGEN--\":77:97   */\n              mul\n                /* \"--CODEGEN--\":67:75   */\n              dup5\n                /* \"--CODEGEN--\":63:98   */\n              add\n                /* \"--CODEGEN--\":60:110   */\n              gt\n              shl(0x20, 0x01)\n                /* \"--CODEGEN--\":25:37   */\n              dup4\n                /* \"--CODEGEN--\":22:51   */\n              gt\n                /* \"--CODEGEN--\":11:118   */\n              or\n                /* \"--CODEGEN--\":8:10   */\n              iszero\n              tag_142\n              jumpi\n                /* \"--CODEGEN--\":131:132   */\n              0x00\n                /* \"--CODEGEN--\":128:129   */\n              dup1\n                /* \"--CODEGEN--\":121:133   */\n              revert\n                /* \"--CODEGEN--\":8:10   */\n            tag_142:\n                /* \"Entity.sol\":4296:5857  function newDataToSend(address _receiver, string memory _description, string memory _key, string memory _value, bool direct) ... */\n              swap2\n              swap1\n              dup1\n              dup1\n              0x1f\n              add\n              0x20\n              dup1\n              swap2\n              div\n              mul\n              0x20\n              add\n              mload(0x40)\n              swap1\n              dup2\n              add\n              0x40\n              mstore\n              dup1\n              swap4\n              swap3\n              swap2\n              swap1\n              dup2\n              dup2\n              mstore\n              0x20\n              add\n              dup4\n              dup4\n                /* \"--CODEGEN--\":30:33   */\n              dup1\n                /* \"--CODEGEN--\":22:28   */\n              dup3\n                /* \"--CODEGEN--\":14:20   */\n              dup5\n                /* \"--CODEGEN--\":1:34   */\n              calldatacopy\n                /* \"--CODEGEN--\":99:100   */\n              0x00\n                /* \"--CODEGEN--\":81:97   */\n              swap3\n              add\n                /* \"--CODEGEN--\":74:101   */\n              swap2\n              swap1\n              swap2\n              mstore\n              pop\n                /* \"Entity.sol\":4296:5857  function newDataToSend(address _receiver, string memory _description, string memory _key, string memory _value, bool direct) ... */\n              swap3\n              swap6\n              swap5\n              swap4\n              0x20\n              dup2\n              add\n              swap4\n              pop\n              calldataload\n              swap2\n              pop\n              pop\n              shl(0x20, 0x01)\n                /* \"--CODEGEN--\":11:39   */\n              dup2\n              gt\n                /* \"--CODEGEN--\":8:10   */\n              iszero\n              tag_143\n              jumpi\n                /* \"--CODEGEN--\":52:53   */\n              0x00\n                /* \"--CODEGEN--\":49:50   */\n              dup1\n                /* \"--CODEGEN--\":42:54   */\n              revert\n                /* \"--CODEGEN--\":8:10   */\n            tag_143:\n                /* \"Entity.sol\":4296:5857  function newDataToSend(address _receiver, string memory _description, string memory _key, string memory _value, bool direct) ... */\n              dup3\n              add\n                /* \"--CODEGEN--\":41:50   */\n              dup4\n                /* \"--CODEGEN--\":34:38   */\n              0x20\n                /* \"--CODEGEN--\":18:32   */\n              dup3\n                /* \"--CODEGEN--\":14:39   */\n              add\n                /* \"--CODEGEN--\":11:51   */\n              gt\n                /* \"--CODEGEN--\":8:10   */\n              iszero\n              tag_144\n              jumpi\n                /* \"--CODEGEN--\":64:65   */\n              0x00\n                /* \"--CODEGEN--\":61:62   */\n              dup1\n                /* \"--CODEGEN--\":54:66   */\n              revert\n                /* \"--CODEGEN--\":8:10   */\n            tag_144:\n                /* \"Entity.sol\":4296:5857  function newDataToSend(address _receiver, string memory _description, string memory _key, string memory _value, bool direct) ... */\n              dup1\n              calldataload\n              swap1\n              0x20\n              add\n              swap2\n                /* \"--CODEGEN--\":100:109   */\n              dup5\n                /* \"--CODEGEN--\":95:96   */\n              0x01\n                /* \"--CODEGEN--\":81:93   */\n              dup4\n                /* \"--CODEGEN--\":77:97   */\n              mul\n                /* \"--CODEGEN--\":67:75   */\n              dup5\n                /* \"--CODEGEN--\":63:98   */\n              add\n                /* \"--CODEGEN--\":60:110   */\n              gt\n              shl(0x20, 0x01)\n                /* \"--CODEGEN--\":25:37   */\n              dup4\n                /* \"--CODEGEN--\":22:51   */\n              gt\n                /* \"--CODEGEN--\":11:118   */\n              or\n                /* \"--CODEGEN--\":8:10   */\n              iszero\n              tag_145\n              jumpi\n                /* \"--CODEGEN--\":131:132   */\n              0x00\n                /* \"--CODEGEN--\":128:129   */\n              dup1\n                /* \"--CODEGEN--\":121:133   */\n              revert\n                /* \"--CODEGEN--\":8:10   */\n            tag_145:\n                /* \"Entity.sol\":4296:5857  function newDataToSend(address _receiver, string memory _description, string memory _key, string memory _value, bool direct) ... */\n              swap2\n              swap1\n              dup1\n              dup1\n              0x1f\n              add\n              0x20\n              dup1\n              swap2\n              div\n              mul\n              0x20\n              add\n              mload(0x40)\n              swap1\n              dup2\n              add\n              0x40\n              mstore\n              dup1\n              swap4\n              swap3\n              swap2\n              swap1\n              dup2\n              dup2\n              mstore\n              0x20\n              add\n              dup4\n              dup4\n                /* \"--CODEGEN--\":30:33   */\n              dup1\n                /* \"--CODEGEN--\":22:28   */\n              dup3\n                /* \"--CODEGEN--\":14:20   */\n              dup5\n                /* \"--CODEGEN--\":1:34   */\n              calldatacopy\n                /* \"--CODEGEN--\":99:100   */\n              0x00\n                /* \"--CODEGEN--\":81:97   */\n              swap3\n              add\n                /* \"--CODEGEN--\":74:101   */\n              swap2\n              swap1\n              swap2\n              mstore\n              pop\n                /* \"Entity.sol\":4296:5857  function newDataToSend(address _receiver, string memory _description, string memory _key, string memory _value, bool direct) ... */\n              swap3\n              swap6\n              swap5\n              swap4\n              0x20\n              dup2\n              add\n              swap4\n              pop\n              calldataload\n              swap2\n              pop\n              pop\n              shl(0x20, 0x01)\n                /* \"--CODEGEN--\":11:39   */\n              dup2\n              gt\n                /* \"--CODEGEN--\":8:10   */\n              iszero\n              tag_146\n              jumpi\n                /* \"--CODEGEN--\":52:53   */\n              0x00\n                /* \"--CODEGEN--\":49:50   */\n              dup1\n                /* \"--CODEGEN--\":42:54   */\n              revert\n                /* \"--CODEGEN--\":8:10   */\n            tag_146:\n                /* \"Entity.sol\":4296:5857  function newDataToSend(address _receiver, string memory _description, string memory _key, string memory _value, bool direct) ... */\n              dup3\n              add\n                /* \"--CODEGEN--\":41:50   */\n              dup4\n                /* \"--CODEGEN--\":34:38   */\n              0x20\n                /* \"--CODEGEN--\":18:32   */\n              dup3\n                /* \"--CODEGEN--\":14:39   */\n              add\n                /* \"--CODEGEN--\":11:51   */\n              gt\n                /* \"--CODEGEN--\":8:10   */\n              iszero\n              tag_147\n              jumpi\n                /* \"--CODEGEN--\":64:65   */\n              0x00\n                /* \"--CODEGEN--\":61:62   */\n              dup1\n                /* \"--CODEGEN--\":54:66   */\n              revert\n                /* \"--CODEGEN--\":8:10   */\n            tag_147:\n                /* \"Entity.sol\":4296:5857  function newDataToSend(address _receiver, string memory _description, string memory _key, string memory _value, bool direct) ... */\n              dup1\n              calldataload\n              swap1\n              0x20\n              add\n              swap2\n                /* \"--CODEGEN--\":100:109   */\n              dup5\n                /* \"--CODEGEN--\":95:96   */\n              0x01\n                /* \"--CODEGEN--\":81:93   */\n              dup4\n                /* \"--CODEGEN--\":77:97   */\n              mul\n                /* \"--CODEGEN--\":67:75   */\n              dup5\n                /* \"--CODEGEN--\":63:98   */\n              add\n                /* \"--CODEGEN--\":60:110   */\n              gt\n              shl(0x20, 0x01)\n                /* \"--CODEGEN--\":25:37   */\n              dup4\n                /* \"--CODEGEN--\":22:51   */\n              gt\n                /* \"--CODEGEN--\":11:118   */\n              or\n                /* \"--CODEGEN--\":8:10   */\n              iszero\n              tag_148\n              jumpi\n                /* \"--CODEGEN--\":131:132   */\n              0x00\n                /* \"--CODEGEN--\":128:129   */\n              dup1\n                /* \"--CODEGEN--\":121:133   */\n              revert\n                /* \"--CODEGEN--\":8:10   */\n            tag_148:\n                /* \"Entity.sol\":4296:5857  function newDataToSend(address _receiver, string memory _description, string memory _key, string memory _value, bool direct) ... */\n              swap2\n              swap1\n              dup1\n              dup1\n              0x1f\n              add\n              0x20\n              dup1\n              swap2\n              div\n              mul\n              0x20\n              add\n              mload(0x40)\n              swap1\n              dup2\n              add\n              0x40\n              mstore\n              dup1\n              swap4\n              swap3\n              swap2\n              swap1\n              dup2\n              dup2\n              mstore\n              0x20\n              add\n              dup4\n              dup4\n                /* \"--CODEGEN--\":30:33   */\n              dup1\n                /* \"--CODEGEN--\":22:28   */\n              dup3\n                /* \"--CODEGEN--\":14:20   */\n              dup5\n                /* \"--CODEGEN--\":1:34   */\n              calldatacopy\n                /* \"--CODEGEN--\":99:100   */\n              0x00\n                /* \"--CODEGEN--\":81:97   */\n              swap3\n              add\n                /* \"--CODEGEN--\":74:101   */\n              swap2\n              swap1\n              swap2\n              mstore\n              pop\n                /* \"Entity.sol\":4296:5857  function newDataToSend(address _receiver, string memory _description, string memory _key, string memory _value, bool direct) ... */\n              swap3\n              swap6\n              pop\n              pop\n              pop\n              pop\n              calldataload\n              iszero\n              iszero\n              swap1\n              pop\n              tag_149\n              jump\t// in\n                /* \"Entity.sol\":3440:3644  function approveMultipleToReceive(address multipleEntity, uint32 index)... */\n            tag_22:\n              tag_79\n              0x04\n              dup1\n              calldatasize\n              sub\n                /* \"--CODEGEN--\":15:17   */\n              0x40\n                /* \"--CODEGEN--\":10:13   */\n              dup2\n                /* \"--CODEGEN--\":7:18   */\n              lt\n                /* \"--CODEGEN--\":4:6   */\n              iszero\n              tag_164\n              jumpi\n                /* \"--CODEGEN--\":31:32   */\n              0x00\n                /* \"--CODEGEN--\":28:29   */\n              dup1\n                /* \"--CODEGEN--\":21:33   */\n              revert\n                /* \"--CODEGEN--\":4:6   */\n            tag_164:\n              pop\n                /* \"Entity.sol\":3440:3644  function approveMultipleToReceive(address multipleEntity, uint32 index)... */\n              dup1\n              calldataload\n              sub(shl(0xa0, 0x01), 0x01)\n              and\n              swap1\n              0x20\n              add\n              calldataload\n              0xffffffff\n              and\n              tag_165\n              jump\t// in\n                /* \"Entity.sol\":1177:1218  pendingData[] public pendingDataToReceive */\n            tag_23:\n              tag_166\n              0x04\n              dup1\n              calldatasize\n              sub\n                /* \"--CODEGEN--\":15:17   */\n              0x20\n                /* \"--CODEGEN--\":10:13   */\n              dup2\n                /* \"--CODEGEN--\":7:18   */\n              lt\n                /* \"--CODEGEN--\":4:6   */\n              iszero\n              tag_167\n              jumpi\n                /* \"--CODEGEN--\":31:32   */\n              0x00\n                /* \"--CODEGEN--\":28:29   */\n              dup1\n                /* \"--CODEGEN--\":21:33   */\n              revert\n                /* \"--CODEGEN--\":4:6   */\n            tag_167:\n              pop\n                /* \"Entity.sol\":1177:1218  pendingData[] public pendingDataToReceive */\n              calldataload\n              tag_168\n              jump\t// in\n            tag_166:\n              0x40\n              dup1\n              mload\n              sub(shl(0xa0, 0x01), 0x01)\n              dup1\n              dup8\n              and\n              dup3\n              mstore\n              dup6\n              and\n              0x20\n              dup1\n              dup4\n              add\n              swap2\n              swap1\n              swap2\n              mstore\n              dup4\n              iszero\n              iszero\n              0x60\n              dup4\n              add\n              mstore\n              0x80\n              swap3\n              dup3\n              add\n              dup4\n              dup2\n              mstore\n              dup6\n              mload\n              swap4\n              dup4\n              add\n              swap4\n              swap1\n              swap4\n              mstore\n              dup5\n              mload\n              swap2\n              swap3\n              swap2\n              0xa0\n              dup5\n              add\n              swap2\n              dup7\n              add\n              swap1\n              dup1\n              dup4\n              dup4\n              0x00\n                /* \"--CODEGEN--\":8:108   */\n            tag_169:\n                /* \"--CODEGEN--\":33:36   */\n              dup4\n                /* \"--CODEGEN--\":30:31   */\n              dup2\n                /* \"--CODEGEN--\":27:37   */\n              lt\n                /* \"--CODEGEN--\":8:108   */\n              iszero\n              tag_171\n              jumpi\n                /* \"--CODEGEN--\":90:101   */\n              dup2\n              dup2\n              add\n                /* \"--CODEGEN--\":84:102   */\n              mload\n                /* \"--CODEGEN--\":71:82   */\n              dup4\n              dup3\n              add\n                /* \"--CODEGEN--\":64:103   */\n              mstore\n                /* \"--CODEGEN--\":52:54   */\n              0x20\n                /* \"--CODEGEN--\":45:55   */\n              add\n                /* \"--CODEGEN--\":8:108   */\n              jump(tag_169)\n            tag_171:\n                /* \"--CODEGEN--\":12:26   */\n              pop\n                /* \"Entity.sol\":1177:1218  pendingData[] public pendingDataToReceive */\n              pop\n              pop\n              pop\n              swap1\n              pop\n              swap1\n              dup2\n              add\n              swap1\n              0x1f\n              and\n              dup1\n              iszero\n              tag_172\n              jumpi\n              dup1\n              dup3\n              sub\n              dup1\n              mload\n              0x01\n              dup4\n              0x20\n              sub\n              0x0100\n              exp\n              sub\n              not\n              and\n              dup2\n              mstore\n              0x20\n              add\n              swap2\n              pop\n            tag_172:\n              pop\n              swap6\n              pop\n              pop\n              pop\n              pop\n              pop\n              pop\n              mload(0x40)\n              dup1\n              swap2\n              sub\n              swap1\n              return\n                /* \"Entity.sol\":1750:1969  function _receiveData(string calldata _key, string calldata _value, uint32 index)... */\n            tag_24:\n              tag_79\n              0x04\n              dup1\n              calldatasize\n              sub\n                /* \"--CODEGEN--\":15:17   */\n              0x60\n                /* \"--CODEGEN--\":10:13   */\n              dup2\n                /* \"--CODEGEN--\":7:18   */\n              lt\n                /* \"--CODEGEN--\":4:6   */\n              iszero\n              tag_174\n              jumpi\n                /* \"--CODEGEN--\":31:32   */\n              0x00\n                /* \"--CODEGEN--\":28:29   */\n              dup1\n                /* \"--CODEGEN--\":21:33   */\n              revert\n                /* \"--CODEGEN--\":4:6   */\n            tag_174:\n                /* \"Entity.sol\":1750:1969  function _receiveData(string calldata _key, string calldata _value, uint32 index)... */\n              dup2\n              add\n              swap1\n              0x20\n              dup2\n              add\n              dup2\n              calldataload\n              shl(0x20, 0x01)\n                /* \"--CODEGEN--\":11:39   */\n              dup2\n              gt\n                /* \"--CODEGEN--\":8:10   */\n              iszero\n              tag_175\n              jumpi\n                /* \"--CODEGEN--\":52:53   */\n              0x00\n                /* \"--CODEGEN--\":49:50   */\n              dup1\n                /* \"--CODEGEN--\":42:54   */\n              revert\n                /* \"--CODEGEN--\":8:10   */\n            tag_175:\n                /* \"Entity.sol\":1750:1969  function _receiveData(string calldata _key, string calldata _value, uint32 index)... */\n              dup3\n              add\n                /* \"--CODEGEN--\":41:50   */\n              dup4\n                /* \"--CODEGEN--\":34:38   */\n              0x20\n                /* \"--CODEGEN--\":18:32   */\n              dup3\n                /* \"--CODEGEN--\":14:39   */\n              add\n                /* \"--CODEGEN--\":11:51   */\n              gt\n                /* \"--CODEGEN--\":8:10   */\n              iszero\n              tag_176\n              jumpi\n                /* \"--CODEGEN--\":64:65   */\n              0x00\n                /* \"--CODEGEN--\":61:62   */\n              dup1\n                /* \"--CODEGEN--\":54:66   */\n              revert\n                /* \"--CODEGEN--\":8:10   */\n            tag_176:\n                /* \"Entity.sol\":1750:1969  function _receiveData(string calldata _key, string calldata _value, uint32 index)... */\n              dup1\n              calldataload\n              swap1\n              0x20\n              add\n              swap2\n                /* \"--CODEGEN--\":100:109   */\n              dup5\n                /* \"--CODEGEN--\":95:96   */\n              0x01\n                /* \"--CODEGEN--\":81:93   */\n              dup4\n                /* \"--CODEGEN--\":77:97   */\n              mul\n                /* \"--CODEGEN--\":67:75   */\n              dup5\n                /* \"--CODEGEN--\":63:98   */\n              add\n                /* \"--CODEGEN--\":60:110   */\n              gt\n              shl(0x20, 0x01)\n                /* \"--CODEGEN--\":25:37   */\n              dup4\n                /* \"--CODEGEN--\":22:51   */\n              gt\n                /* \"--CODEGEN--\":11:118   */\n              or\n                /* \"--CODEGEN--\":8:10   */\n              iszero\n              tag_177\n              jumpi\n                /* \"--CODEGEN--\":131:132   */\n              0x00\n                /* \"--CODEGEN--\":128:129   */\n              dup1\n                /* \"--CODEGEN--\":121:133   */\n              revert\n                /* \"--CODEGEN--\":8:10   */\n            tag_177:\n                /* \"Entity.sol\":1750:1969  function _receiveData(string calldata _key, string calldata _value, uint32 index)... */\n              swap2\n              swap4\n              swap1\n              swap3\n              swap1\n              swap2\n              0x20\n              dup2\n              add\n              swap1\n              calldataload\n              shl(0x20, 0x01)\n                /* \"--CODEGEN--\":11:39   */\n              dup2\n              gt\n                /* \"--CODEGEN--\":8:10   */\n              iszero\n              tag_178\n              jumpi\n                /* \"--CODEGEN--\":52:53   */\n              0x00\n                /* \"--CODEGEN--\":49:50   */\n              dup1\n                /* \"--CODEGEN--\":42:54   */\n              revert\n                /* \"--CODEGEN--\":8:10   */\n            tag_178:\n                /* \"Entity.sol\":1750:1969  function _receiveData(string calldata _key, string calldata _value, uint32 index)... */\n              dup3\n              add\n                /* \"--CODEGEN--\":41:50   */\n              dup4\n                /* \"--CODEGEN--\":34:38   */\n              0x20\n                /* \"--CODEGEN--\":18:32   */\n              dup3\n                /* \"--CODEGEN--\":14:39   */\n              add\n                /* \"--CODEGEN--\":11:51   */\n              gt\n                /* \"--CODEGEN--\":8:10   */\n              iszero\n              tag_179\n              jumpi\n                /* \"--CODEGEN--\":64:65   */\n              0x00\n                /* \"--CODEGEN--\":61:62   */\n              dup1\n                /* \"--CODEGEN--\":54:66   */\n              revert\n                /* \"--CODEGEN--\":8:10   */\n            tag_179:\n                /* \"Entity.sol\":1750:1969  function _receiveData(string calldata _key, string calldata _value, uint32 index)... */\n              dup1\n              calldataload\n              swap1\n              0x20\n              add\n              swap2\n                /* \"--CODEGEN--\":100:109   */\n              dup5\n                /* \"--CODEGEN--\":95:96   */\n              0x01\n                /* \"--CODEGEN--\":81:93   */\n              dup4\n                /* \"--CODEGEN--\":77:97   */\n              mul\n                /* \"--CODEGEN--\":67:75   */\n              dup5\n                /* \"--CODEGEN--\":63:98   */\n              add\n                /* \"--CODEGEN--\":60:110   */\n              gt\n              shl(0x20, 0x01)\n                /* \"--CODEGEN--\":25:37   */\n              dup4\n                /* \"--CODEGEN--\":22:51   */\n              gt\n                /* \"--CODEGEN--\":11:118   */\n              or\n                /* \"--CODEGEN--\":8:10   */\n              iszero\n              tag_180\n              jumpi\n                /* \"--CODEGEN--\":131:132   */\n              0x00\n                /* \"--CODEGEN--\":128:129   */\n              dup1\n                /* \"--CODEGEN--\":121:133   */\n              revert\n                /* \"--CODEGEN--\":8:10   */\n            tag_180:\n                /* \"Entity.sol\":1750:1969  function _receiveData(string calldata _key, string calldata _value, uint32 index)... */\n              swap2\n              swap4\n              pop\n              swap2\n              pop\n              calldataload\n              0xffffffff\n              and\n              tag_181\n              jump\t// in\n                /* \"Entity.sol\":8028:8194  function dataSizeToSend(uint32 index) ... */\n            tag_25:\n              tag_82\n              0x04\n              dup1\n              calldatasize\n              sub\n                /* \"--CODEGEN--\":15:17   */\n              0x20\n                /* \"--CODEGEN--\":10:13   */\n              dup2\n                /* \"--CODEGEN--\":7:18   */\n              lt\n                /* \"--CODEGEN--\":4:6   */\n              iszero\n              tag_183\n              jumpi\n                /* \"--CODEGEN--\":31:32   */\n              0x00\n                /* \"--CODEGEN--\":28:29   */\n              dup1\n                /* \"--CODEGEN--\":21:33   */\n              revert\n                /* \"--CODEGEN--\":4:6   */\n            tag_183:\n              pop\n                /* \"Entity.sol\":8028:8194  function dataSizeToSend(uint32 index) ... */\n              calldataload\n              0xffffffff\n              and\n              tag_184\n              jump\t// in\n                /* \"Entity.sol\":1307:1345  pendingData[] public pendingDataToSend */\n            tag_26:\n              tag_166\n              0x04\n              dup1\n              calldatasize\n              sub\n                /* \"--CODEGEN--\":15:17   */\n              0x20\n                /* \"--CODEGEN--\":10:13   */\n              dup2\n                /* \"--CODEGEN--\":7:18   */\n              lt\n                /* \"--CODEGEN--\":4:6   */\n              iszero\n              tag_186\n              jumpi\n                /* \"--CODEGEN--\":31:32   */\n              0x00\n                /* \"--CODEGEN--\":28:29   */\n              dup1\n                /* \"--CODEGEN--\":21:33   */\n              revert\n                /* \"--CODEGEN--\":4:6   */\n            tag_186:\n              pop\n                /* \"Entity.sol\":1307:1345  pendingData[] public pendingDataToSend */\n              calldataload\n              tag_187\n              jump\t// in\n                /* \"Entity.sol\":1070:1135  mapping(address=>mapping(string=>bool)) public writtenDescription */\n            tag_27:\n              tag_94\n              0x04\n              dup1\n              calldatasize\n              sub\n                /* \"--CODEGEN--\":15:17   */\n              0x40\n                /* \"--CODEGEN--\":10:13   */\n              dup2\n                /* \"--CODEGEN--\":7:18   */\n              lt\n                /* \"--CODEGEN--\":4:6   */\n              iszero\n              tag_193\n              jumpi\n                /* \"--CODEGEN--\":31:32   */\n              0x00\n                /* \"--CODEGEN--\":28:29   */\n              dup1\n                /* \"--CODEGEN--\":21:33   */\n              revert\n                /* \"--CODEGEN--\":4:6   */\n            tag_193:\n                /* \"Entity.sol\":1070:1135  mapping(address=>mapping(string=>bool)) public writtenDescription */\n              dup2\n              calldataload\n              sub(shl(0xa0, 0x01), 0x01)\n              and\n              swap2\n              swap1\n              dup2\n              add\n              swap1\n              0x40\n              dup2\n              add\n              0x20\n              dup3\n              add\n              calldataload\n              shl(0x20, 0x01)\n                /* \"--CODEGEN--\":11:39   */\n              dup2\n              gt\n                /* \"--CODEGEN--\":8:10   */\n              iszero\n              tag_194\n              jumpi\n                /* \"--CODEGEN--\":52:53   */\n              0x00\n                /* \"--CODEGEN--\":49:50   */\n              dup1\n                /* \"--CODEGEN--\":42:54   */\n              revert\n                /* \"--CODEGEN--\":8:10   */\n            tag_194:\n                /* \"Entity.sol\":1070:1135  mapping(address=>mapping(string=>bool)) public writtenDescription */\n              dup3\n              add\n                /* \"--CODEGEN--\":41:50   */\n              dup4\n                /* \"--CODEGEN--\":34:38   */\n              0x20\n                /* \"--CODEGEN--\":18:32   */\n              dup3\n                /* \"--CODEGEN--\":14:39   */\n              add\n                /* \"--CODEGEN--\":11:51   */\n              gt\n                /* \"--CODEGEN--\":8:10   */\n              iszero\n              tag_195\n              jumpi\n                /* \"--CODEGEN--\":64:65   */\n              0x00\n                /* \"--CODEGEN--\":61:62   */\n              dup1\n                /* \"--CODEGEN--\":54:66   */\n              revert\n                /* \"--CODEGEN--\":8:10   */\n            tag_195:\n                /* \"Entity.sol\":1070:1135  mapping(address=>mapping(string=>bool)) public writtenDescription */\n              dup1\n              calldataload\n              swap1\n              0x20\n              add\n              swap2\n                /* \"--CODEGEN--\":100:109   */\n              dup5\n                /* \"--CODEGEN--\":95:96   */\n              0x01\n                /* \"--CODEGEN--\":81:93   */\n              dup4\n                /* \"--CODEGEN--\":77:97   */\n              mul\n                /* \"--CODEGEN--\":67:75   */\n              dup5\n                /* \"--CODEGEN--\":63:98   */\n              add\n                /* \"--CODEGEN--\":60:110   */\n              gt\n              shl(0x20, 0x01)\n                /* \"--CODEGEN--\":25:37   */\n              dup4\n                /* \"--CODEGEN--\":22:51   */\n              gt\n                /* \"--CODEGEN--\":11:118   */\n              or\n                /* \"--CODEGEN--\":8:10   */\n              iszero\n              tag_196\n              jumpi\n                /* \"--CODEGEN--\":131:132   */\n              0x00\n                /* \"--CODEGEN--\":128:129   */\n              dup1\n                /* \"--CODEGEN--\":121:133   */\n              revert\n                /* \"--CODEGEN--\":8:10   */\n            tag_196:\n                /* \"Entity.sol\":1070:1135  mapping(address=>mapping(string=>bool)) public writtenDescription */\n              swap2\n              swap1\n              dup1\n              dup1\n              0x1f\n              add\n              0x20\n              dup1\n              swap2\n              div\n              mul\n              0x20\n              add\n              mload(0x40)\n              swap1\n              dup2\n              add\n              0x40\n              mstore\n              dup1\n              swap4\n              swap3\n              swap2\n              swap1\n              dup2\n              dup2\n              mstore\n              0x20\n              add\n              dup4\n              dup4\n                /* \"--CODEGEN--\":30:33   */\n              dup1\n                /* \"--CODEGEN--\":22:28   */\n              dup3\n                /* \"--CODEGEN--\":14:20   */\n              dup5\n                /* \"--CODEGEN--\":1:34   */\n              calldatacopy\n                /* \"--CODEGEN--\":99:100   */\n              0x00\n                /* \"--CODEGEN--\":81:97   */\n              swap3\n              add\n                /* \"--CODEGEN--\":74:101   */\n              swap2\n              swap1\n              swap2\n              mstore\n              pop\n                /* \"Entity.sol\":1070:1135  mapping(address=>mapping(string=>bool)) public writtenDescription */\n              swap3\n              swap6\n              pop\n              tag_197\n              swap5\n              pop\n              pop\n              pop\n              pop\n              pop\n              jump\t// in\n                /* \"Entity.sol\":1387:1740  function _newData(string calldata _description)... */\n            tag_28:\n              tag_82\n              0x04\n              dup1\n              calldatasize\n              sub\n                /* \"--CODEGEN--\":15:17   */\n              0x20\n                /* \"--CODEGEN--\":10:13   */\n              dup2\n                /* \"--CODEGEN--\":7:18   */\n              lt\n                /* \"--CODEGEN--\":4:6   */\n              iszero\n              tag_199\n              jumpi\n                /* \"--CODEGEN--\":31:32   */\n              0x00\n                /* \"--CODEGEN--\":28:29   */\n              dup1\n                /* \"--CODEGEN--\":21:33   */\n              revert\n                /* \"--CODEGEN--\":4:6   */\n            tag_199:\n                /* \"Entity.sol\":1387:1740  function _newData(string calldata _description)... */\n              dup2\n              add\n              swap1\n              0x20\n              dup2\n              add\n              dup2\n              calldataload\n              shl(0x20, 0x01)\n                /* \"--CODEGEN--\":11:39   */\n              dup2\n              gt\n                /* \"--CODEGEN--\":8:10   */\n              iszero\n              tag_200\n              jumpi\n                /* \"--CODEGEN--\":52:53   */\n              0x00\n                /* \"--CODEGEN--\":49:50   */\n              dup1\n                /* \"--CODEGEN--\":42:54   */\n              revert\n                /* \"--CODEGEN--\":8:10   */\n            tag_200:\n                /* \"Entity.sol\":1387:1740  function _newData(string calldata _description)... */\n              dup3\n              add\n                /* \"--CODEGEN--\":41:50   */\n              dup4\n                /* \"--CODEGEN--\":34:38   */\n              0x20\n                /* \"--CODEGEN--\":18:32   */\n              dup3\n                /* \"--CODEGEN--\":14:39   */\n              add\n                /* \"--CODEGEN--\":11:51   */\n              gt\n                /* \"--CODEGEN--\":8:10   */\n              iszero\n              tag_201\n              jumpi\n                /* \"--CODEGEN--\":64:65   */\n              0x00\n                /* \"--CODEGEN--\":61:62   */\n              dup1\n                /* \"--CODEGEN--\":54:66   */\n              revert\n                /* \"--CODEGEN--\":8:10   */\n            tag_201:\n                /* \"Entity.sol\":1387:1740  function _newData(string calldata _description)... */\n              dup1\n              calldataload\n              swap1\n              0x20\n              add\n              swap2\n                /* \"--CODEGEN--\":100:109   */\n              dup5\n                /* \"--CODEGEN--\":95:96   */\n              0x01\n                /* \"--CODEGEN--\":81:93   */\n              dup4\n                /* \"--CODEGEN--\":77:97   */\n              mul\n                /* \"--CODEGEN--\":67:75   */\n              dup5\n                /* \"--CODEGEN--\":63:98   */\n              add\n                /* \"--CODEGEN--\":60:110   */\n              gt\n              shl(0x20, 0x01)\n                /* \"--CODEGEN--\":25:37   */\n              dup4\n                /* \"--CODEGEN--\":22:51   */\n              gt\n                /* \"--CODEGEN--\":11:118   */\n              or\n                /* \"--CODEGEN--\":8:10   */\n              iszero\n              tag_202\n              jumpi\n                /* \"--CODEGEN--\":131:132   */\n              0x00\n                /* \"--CODEGEN--\":128:129   */\n              dup1\n                /* \"--CODEGEN--\":121:133   */\n              revert\n                /* \"--CODEGEN--\":8:10   */\n            tag_202:\n              pop\n                /* \"Entity.sol\":1387:1740  function _newData(string calldata _description)... */\n              swap1\n              swap3\n              pop\n              swap1\n              pop\n              tag_203\n              jump\t// in\n                /* \"Entity.sol\":8849:9015  function descriptionLength(address source)... */\n            tag_29:\n              tag_82\n              0x04\n              dup1\n              calldatasize\n              sub\n                /* \"--CODEGEN--\":15:17   */\n              0x20\n                /* \"--CODEGEN--\":10:13   */\n              dup2\n                /* \"--CODEGEN--\":7:18   */\n              lt\n                /* \"--CODEGEN--\":4:6   */\n              iszero\n              tag_205\n              jumpi\n                /* \"--CODEGEN--\":31:32   */\n              0x00\n                /* \"--CODEGEN--\":28:29   */\n              dup1\n                /* \"--CODEGEN--\":21:33   */\n              revert\n                /* \"--CODEGEN--\":4:6   */\n            tag_205:\n              pop\n                /* \"Entity.sol\":8849:9015  function descriptionLength(address source)... */\n              calldataload\n              sub(shl(0xa0, 0x01), 0x01)\n              and\n              tag_206\n              jump\t// in\n                /* \"Entity.sol\":7868:8018  function pendingDataToSendCount() ... */\n            tag_30:\n              tag_82\n              tag_208\n              jump\t// in\n                /* \"Entity.sol\":778:828  mapping(address=>uint32) public recentSendingIndex */\n            tag_31:\n              tag_82\n              0x04\n              dup1\n              calldatasize\n              sub\n                /* \"--CODEGEN--\":15:17   */\n              0x20\n                /* \"--CODEGEN--\":10:13   */\n              dup2\n                /* \"--CODEGEN--\":7:18   */\n              lt\n                /* \"--CODEGEN--\":4:6   */\n              iszero\n              tag_210\n              jumpi\n                /* \"--CODEGEN--\":31:32   */\n              0x00\n                /* \"--CODEGEN--\":28:29   */\n              dup1\n                /* \"--CODEGEN--\":21:33   */\n              revert\n                /* \"--CODEGEN--\":4:6   */\n            tag_210:\n              pop\n                /* \"Entity.sol\":778:828  mapping(address=>uint32) public recentSendingIndex */\n              calldataload\n              sub(shl(0xa0, 0x01), 0x01)\n              and\n              tag_211\n              jump\t// in\n                /* \"Entity.sol\":4002:4257  function keyValueOfDataToReceive(uint32 index, uint32 keyIndex)... */\n            tag_32:\n              tag_58\n              0x04\n              dup1\n              calldatasize\n              sub\n                /* \"--CODEGEN--\":15:17   */\n              0x40\n                /* \"--CODEGEN--\":10:13   */\n              dup2\n                /* \"--CODEGEN--\":7:18   */\n              lt\n                /* \"--CODEGEN--\":4:6   */\n              iszero\n              tag_213\n              jumpi\n                /* \"--CODEGEN--\":31:32   */\n              0x00\n                /* \"--CODEGEN--\":28:29   */\n              dup1\n                /* \"--CODEGEN--\":21:33   */\n              revert\n                /* \"--CODEGEN--\":4:6   */\n            tag_213:\n              pop\n                /* \"Entity.sol\":4002:4257  function keyValueOfDataToReceive(uint32 index, uint32 keyIndex)... */\n              0xffffffff\n              dup2\n              calldataload\n              dup2\n              and\n              swap2\n              0x20\n              add\n              calldataload\n              and\n              tag_214\n              jump\t// in\n                /* \"Entity.sol\":7660:7858  function approveMultipleToSend(address multipleEntity, uint32 index)... */\n            tag_33:\n              tag_79\n              0x04\n              dup1\n              calldatasize\n              sub\n                /* \"--CODEGEN--\":15:17   */\n              0x40\n                /* \"--CODEGEN--\":10:13   */\n              dup2\n                /* \"--CODEGEN--\":7:18   */\n              lt\n                /* \"--CODEGEN--\":4:6   */\n              iszero\n              tag_224\n              jumpi\n                /* \"--CODEGEN--\":31:32   */\n              0x00\n                /* \"--CODEGEN--\":28:29   */\n              dup1\n                /* \"--CODEGEN--\":21:33   */\n              revert\n                /* \"--CODEGEN--\":4:6   */\n            tag_224:\n              pop\n                /* \"Entity.sol\":7660:7858  function approveMultipleToSend(address multipleEntity, uint32 index)... */\n              dup1\n              calldataload\n              sub(shl(0xa0, 0x01), 0x01)\n              and\n              swap1\n              0x20\n              add\n              calldataload\n              0xffffffff\n              and\n              tag_225\n              jump\t// in\n                /* \"Entity.sol\":752:772  bool public isSingle */\n            tag_34:\n              tag_94\n              tag_227\n              jump\t// in\n                /* \"Entity.sol\":6857:7109  function addDataMultipleToSend(address multipleEntity, string memory _key, string memory _value, uint32 index) ... */\n            tag_35:\n              tag_79\n              0x04\n              dup1\n              calldatasize\n              sub\n                /* \"--CODEGEN--\":15:18   */\n              0x80\n                /* \"--CODEGEN--\":10:13   */\n              dup2\n                /* \"--CODEGEN--\":7:19   */\n              lt\n                /* \"--CODEGEN--\":4:6   */\n              iszero\n              tag_229\n              jumpi\n                /* \"--CODEGEN--\":32:33   */\n              0x00\n                /* \"--CODEGEN--\":29:30   */\n              dup1\n                /* \"--CODEGEN--\":22:34   */\n              revert\n                /* \"--CODEGEN--\":4:6   */\n            tag_229:\n                /* \"Entity.sol\":6857:7109  function addDataMultipleToSend(address multipleEntity, string memory _key, string memory _value, uint32 index) ... */\n              dup2\n              calldataload\n              sub(shl(0xa0, 0x01), 0x01)\n              and\n              swap2\n              swap1\n              dup2\n              add\n              swap1\n              0x40\n              dup2\n              add\n              0x20\n              dup3\n              add\n              calldataload\n              shl(0x20, 0x01)\n                /* \"--CODEGEN--\":11:39   */\n              dup2\n              gt\n                /* \"--CODEGEN--\":8:10   */\n              iszero\n              tag_230\n              jumpi\n                /* \"--CODEGEN--\":52:53   */\n              0x00\n                /* \"--CODEGEN--\":49:50   */\n              dup1\n                /* \"--CODEGEN--\":42:54   */\n              revert\n                /* \"--CODEGEN--\":8:10   */\n            tag_230:\n                /* \"Entity.sol\":6857:7109  function addDataMultipleToSend(address multipleEntity, string memory _key, string memory _value, uint32 index) ... */\n              dup3\n              add\n                /* \"--CODEGEN--\":41:50   */\n              dup4\n                /* \"--CODEGEN--\":34:38   */\n              0x20\n                /* \"--CODEGEN--\":18:32   */\n              dup3\n                /* \"--CODEGEN--\":14:39   */\n              add\n                /* \"--CODEGEN--\":11:51   */\n              gt\n                /* \"--CODEGEN--\":8:10   */\n              iszero\n              tag_231\n              jumpi\n                /* \"--CODEGEN--\":64:65   */\n              0x00\n                /* \"--CODEGEN--\":61:62   */\n              dup1\n                /* \"--CODEGEN--\":54:66   */\n              revert\n                /* \"--CODEGEN--\":8:10   */\n            tag_231:\n                /* \"Entity.sol\":6857:7109  function addDataMultipleToSend(address multipleEntity, string memory _key, string memory _value, uint32 index) ... */\n              dup1\n              calldataload\n              swap1\n              0x20\n              add\n              swap2\n                /* \"--CODEGEN--\":100:109   */\n              dup5\n                /* \"--CODEGEN--\":95:96   */\n              0x01\n                /* \"--CODEGEN--\":81:93   */\n              dup4\n                /* \"--CODEGEN--\":77:97   */\n              mul\n                /* \"--CODEGEN--\":67:75   */\n              dup5\n                /* \"--CODEGEN--\":63:98   */\n              add\n                /* \"--CODEGEN--\":60:110   */\n              gt\n              shl(0x20, 0x01)\n                /* \"--CODEGEN--\":25:37   */\n              dup4\n                /* \"--CODEGEN--\":22:51   */\n              gt\n                /* \"--CODEGEN--\":11:118   */\n              or\n                /* \"--CODEGEN--\":8:10   */\n              iszero\n              tag_232\n              jumpi\n                /* \"--CODEGEN--\":131:132   */\n              0x00\n                /* \"--CODEGEN--\":128:129   */\n              dup1\n                /* \"--CODEGEN--\":121:133   */\n              revert\n                /* \"--CODEGEN--\":8:10   */\n            tag_232:\n                /* \"Entity.sol\":6857:7109  function addDataMultipleToSend(address multipleEntity, string memory _key, string memory _value, uint32 index) ... */\n              swap2\n              swap1\n              dup1\n              dup1\n              0x1f\n              add\n              0x20\n              dup1\n              swap2\n              div\n              mul\n              0x20\n              add\n              mload(0x40)\n              swap1\n              dup2\n              add\n              0x40\n              mstore\n              dup1\n              swap4\n              swap3\n              swap2\n              swap1\n              dup2\n              dup2\n              mstore\n              0x20\n              add\n              dup4\n              dup4\n                /* \"--CODEGEN--\":30:33   */\n              dup1\n                /* \"--CODEGEN--\":22:28   */\n              dup3\n                /* \"--CODEGEN--\":14:20   */\n              dup5\n                /* \"--CODEGEN--\":1:34   */\n              calldatacopy\n                /* \"--CODEGEN--\":99:100   */\n              0x00\n                /* \"--CODEGEN--\":81:97   */\n              swap3\n              add\n                /* \"--CODEGEN--\":74:101   */\n              swap2\n              swap1\n              swap2\n              mstore\n              pop\n                /* \"Entity.sol\":6857:7109  function addDataMultipleToSend(address multipleEntity, string memory _key, string memory _value, uint32 index) ... */\n              swap3\n              swap6\n              swap5\n              swap4\n              0x20\n              dup2\n              add\n              swap4\n              pop\n              calldataload\n              swap2\n              pop\n              pop\n              shl(0x20, 0x01)\n                /* \"--CODEGEN--\":11:39   */\n              dup2\n              gt\n                /* \"--CODEGEN--\":8:10   */\n              iszero\n              tag_233\n              jumpi\n                /* \"--CODEGEN--\":52:53   */\n              0x00\n                /* \"--CODEGEN--\":49:50   */\n              dup1\n                /* \"--CODEGEN--\":42:54   */\n              revert\n                /* \"--CODEGEN--\":8:10   */\n            tag_233:\n                /* \"Entity.sol\":6857:7109  function addDataMultipleToSend(address multipleEntity, string memory _key, string memory _value, uint32 index) ... */\n              dup3\n              add\n                /* \"--CODEGEN--\":41:50   */\n              dup4\n                /* \"--CODEGEN--\":34:38   */\n              0x20\n                /* \"--CODEGEN--\":18:32   */\n              dup3\n                /* \"--CODEGEN--\":14:39   */\n              add\n                /* \"--CODEGEN--\":11:51   */\n              gt\n                /* \"--CODEGEN--\":8:10   */\n              iszero\n              tag_234\n              jumpi\n                /* \"--CODEGEN--\":64:65   */\n              0x00\n                /* \"--CODEGEN--\":61:62   */\n              dup1\n                /* \"--CODEGEN--\":54:66   */\n              revert\n                /* \"--CODEGEN--\":8:10   */\n            tag_234:\n                /* \"Entity.sol\":6857:7109  function addDataMultipleToSend(address multipleEntity, string memory _key, string memory _value, uint32 index) ... */\n              dup1\n              calldataload\n              swap1\n              0x20\n              add\n              swap2\n                /* \"--CODEGEN--\":100:109   */\n              dup5\n                /* \"--CODEGEN--\":95:96   */\n              0x01\n                /* \"--CODEGEN--\":81:93   */\n              dup4\n                /* \"--CODEGEN--\":77:97   */\n              mul\n                /* \"--CODEGEN--\":67:75   */\n              dup5\n                /* \"--CODEGEN--\":63:98   */\n              add\n                /* \"--CODEGEN--\":60:110   */\n              gt\n              shl(0x20, 0x01)\n                /* \"--CODEGEN--\":25:37   */\n              dup4\n                /* \"--CODEGEN--\":22:51   */\n              gt\n                /* \"--CODEGEN--\":11:118   */\n              or\n                /* \"--CODEGEN--\":8:10   */\n              iszero\n              tag_235\n              jumpi\n                /* \"--CODEGEN--\":131:132   */\n              0x00\n                /* \"--CODEGEN--\":128:129   */\n              dup1\n                /* \"--CODEGEN--\":121:133   */\n              revert\n                /* \"--CODEGEN--\":8:10   */\n            tag_235:\n                /* \"Entity.sol\":6857:7109  function addDataMultipleToSend(address multipleEntity, string memory _key, string memory _value, uint32 index) ... */\n              swap2\n              swap1\n              dup1\n              dup1\n              0x1f\n              add\n              0x20\n              dup1\n              swap2\n              div\n              mul\n              0x20\n              add\n              mload(0x40)\n              swap1\n              dup2\n              add\n              0x40\n              mstore\n              dup1\n              swap4\n              swap3\n              swap2\n              swap1\n              dup2\n              dup2\n              mstore\n              0x20\n              add\n              dup4\n              dup4\n                /* \"--CODEGEN--\":30:33   */\n              dup1\n                /* \"--CODEGEN--\":22:28   */\n              dup3\n                /* \"--CODEGEN--\":14:20   */\n              dup5\n                /* \"--CODEGEN--\":1:34   */\n              calldatacopy\n                /* \"--CODEGEN--\":99:100   */\n              0x00\n                /* \"--CODEGEN--\":81:97   */\n              swap3\n              add\n                /* \"--CODEGEN--\":74:101   */\n              swap2\n              swap1\n              swap2\n              mstore\n              pop\n                /* \"Entity.sol\":6857:7109  function addDataMultipleToSend(address multipleEntity, string memory _key, string memory _value, uint32 index) ... */\n              swap3\n              swap6\n              pop\n              pop\n              pop\n              swap1\n              calldataload\n              0xffffffff\n              and\n              swap2\n              pop\n              tag_236\n              swap1\n              pop\n              jump\t// in\n                /* \"Entity.sol\":963:1003  mapping(address=>bool) public hasWritten */\n            tag_36:\n              tag_94\n              0x04\n              dup1\n              calldatasize\n              sub\n                /* \"--CODEGEN--\":15:17   */\n              0x20\n                /* \"--CODEGEN--\":10:13   */\n              dup2\n                /* \"--CODEGEN--\":7:18   */\n              lt\n                /* \"--CODEGEN--\":4:6   */\n              iszero\n              tag_238\n              jumpi\n                /* \"--CODEGEN--\":31:32   */\n              0x00\n                /* \"--CODEGEN--\":28:29   */\n              dup1\n                /* \"--CODEGEN--\":21:33   */\n              revert\n                /* \"--CODEGEN--\":4:6   */\n            tag_238:\n              pop\n                /* \"Entity.sol\":963:1003  mapping(address=>bool) public hasWritten */\n              calldataload\n              sub(shl(0xa0, 0x01), 0x01)\n              and\n              tag_239\n              jump\t// in\n                /* \"Entity.sol\":6233:6847  function addDataToSend(string memory _key, string memory _value, uint32 index) ... */\n            tag_37:\n              tag_79\n              0x04\n              dup1\n              calldatasize\n              sub\n                /* \"--CODEGEN--\":15:17   */\n              0x60\n                /* \"--CODEGEN--\":10:13   */\n              dup2\n                /* \"--CODEGEN--\":7:18   */\n              lt\n                /* \"--CODEGEN--\":4:6   */\n              iszero\n              tag_241\n              jumpi\n                /* \"--CODEGEN--\":31:32   */\n              0x00\n                /* \"--CODEGEN--\":28:29   */\n              dup1\n                /* \"--CODEGEN--\":21:33   */\n              revert\n                /* \"--CODEGEN--\":4:6   */\n            tag_241:\n                /* \"Entity.sol\":6233:6847  function addDataToSend(string memory _key, string memory _value, uint32 index) ... */\n              dup2\n              add\n              swap1\n              0x20\n              dup2\n              add\n              dup2\n              calldataload\n              shl(0x20, 0x01)\n                /* \"--CODEGEN--\":11:39   */\n              dup2\n              gt\n                /* \"--CODEGEN--\":8:10   */\n              iszero\n              tag_242\n              jumpi\n                /* \"--CODEGEN--\":52:53   */\n              0x00\n                /* \"--CODEGEN--\":49:50   */\n              dup1\n                /* \"--CODEGEN--\":42:54   */\n              revert\n                /* \"--CODEGEN--\":8:10   */\n            tag_242:\n                /* \"Entity.sol\":6233:6847  function addDataToSend(string memory _key, string memory _value, uint32 index) ... */\n              dup3\n              add\n                /* \"--CODEGEN--\":41:50   */\n              dup4\n                /* \"--CODEGEN--\":34:38   */\n              0x20\n                /* \"--CODEGEN--\":18:32   */\n              dup3\n                /* \"--CODEGEN--\":14:39   */\n              add\n                /* \"--CODEGEN--\":11:51   */\n              gt\n                /* \"--CODEGEN--\":8:10   */\n              iszero\n              tag_243\n              jumpi\n                /* \"--CODEGEN--\":64:65   */\n              0x00\n                /* \"--CODEGEN--\":61:62   */\n              dup1\n                /* \"--CODEGEN--\":54:66   */\n              revert\n                /* \"--CODEGEN--\":8:10   */\n            tag_243:\n                /* \"Entity.sol\":6233:6847  function addDataToSend(string memory _key, string memory _value, uint32 index) ... */\n              dup1\n              calldataload\n              swap1\n              0x20\n              add\n              swap2\n                /* \"--CODEGEN--\":100:109   */\n              dup5\n                /* \"--CODEGEN--\":95:96   */\n              0x01\n                /* \"--CODEGEN--\":81:93   */\n              dup4\n                /* \"--CODEGEN--\":77:97   */\n              mul\n                /* \"--CODEGEN--\":67:75   */\n              dup5\n                /* \"--CODEGEN--\":63:98   */\n              add\n                /* \"--CODEGEN--\":60:110   */\n              gt\n              shl(0x20, 0x01)\n                /* \"--CODEGEN--\":25:37   */\n              dup4\n                /* \"--CODEGEN--\":22:51   */\n              gt\n                /* \"--CODEGEN--\":11:118   */\n              or\n                /* \"--CODEGEN--\":8:10   */\n              iszero\n              tag_244\n              jumpi\n                /* \"--CODEGEN--\":131:132   */\n              0x00\n                /* \"--CODEGEN--\":128:129   */\n              dup1\n                /* \"--CODEGEN--\":121:133   */\n              revert\n                /* \"--CODEGEN--\":8:10   */\n            tag_244:\n                /* \"Entity.sol\":6233:6847  function addDataToSend(string memory _key, string memory _value, uint32 index) ... */\n              swap2\n              swap1\n              dup1\n              dup1\n              0x1f\n              add\n              0x20\n              dup1\n              swap2\n              div\n              mul\n              0x20\n              add\n              mload(0x40)\n              swap1\n              dup2\n              add\n              0x40\n              mstore\n              dup1\n              swap4\n              swap3\n              swap2\n              swap1\n              dup2\n              dup2\n              mstore\n              0x20\n              add\n              dup4\n              dup4\n                /* \"--CODEGEN--\":30:33   */\n              dup1\n                /* \"--CODEGEN--\":22:28   */\n              dup3\n                /* \"--CODEGEN--\":14:20   */\n              dup5\n                /* \"--CODEGEN--\":1:34   */\n              calldatacopy\n                /* \"--CODEGEN--\":99:100   */\n              0x00\n                /* \"--CODEGEN--\":81:97   */\n              swap3\n              add\n                /* \"--CODEGEN--\":74:101   */\n              swap2\n              swap1\n              swap2\n              mstore\n              pop\n                /* \"Entity.sol\":6233:6847  function addDataToSend(string memory _key, string memory _value, uint32 index) ... */\n              swap3\n              swap6\n              swap5\n              swap4\n              0x20\n              dup2\n              add\n              swap4\n              pop\n              calldataload\n              swap2\n              pop\n              pop\n              shl(0x20, 0x01)\n                /* \"--CODEGEN--\":11:39   */\n              dup2\n              gt\n                /* \"--CODEGEN--\":8:10   */\n              iszero\n              tag_245\n              jumpi\n                /* \"--CODEGEN--\":52:53   */\n              0x00\n                /* \"--CODEGEN--\":49:50   */\n              dup1\n                /* \"--CODEGEN--\":42:54   */\n              revert\n                /* \"--CODEGEN--\":8:10   */\n            tag_245:\n                /* \"Entity.sol\":6233:6847  function addDataToSend(string memory _key, string memory _value, uint32 index) ... */\n              dup3\n              add\n                /* \"--CODEGEN--\":41:50   */\n              dup4\n                /* \"--CODEGEN--\":34:38   */\n              0x20\n                /* \"--CODEGEN--\":18:32   */\n              dup3\n                /* \"--CODEGEN--\":14:39   */\n              add\n                /* \"--CODEGEN--\":11:51   */\n              gt\n                /* \"--CODEGEN--\":8:10   */\n              iszero\n              tag_246\n              jumpi\n                /* \"--CODEGEN--\":64:65   */\n              0x00\n                /* \"--CODEGEN--\":61:62   */\n              dup1\n                /* \"--CODEGEN--\":54:66   */\n              revert\n                /* \"--CODEGEN--\":8:10   */\n            tag_246:\n                /* \"Entity.sol\":6233:6847  function addDataToSend(string memory _key, string memory _value, uint32 index) ... */\n              dup1\n              calldataload\n              swap1\n              0x20\n              add\n              swap2\n                /* \"--CODEGEN--\":100:109   */\n              dup5\n                /* \"--CODEGEN--\":95:96   */\n              0x01\n                /* \"--CODEGEN--\":81:93   */\n              dup4\n                /* \"--CODEGEN--\":77:97   */\n              mul\n                /* \"--CODEGEN--\":67:75   */\n              dup5\n                /* \"--CODEGEN--\":63:98   */\n              add\n                /* \"--CODEGEN--\":60:110   */\n              gt\n              shl(0x20, 0x01)\n                /* \"--CODEGEN--\":25:37   */\n              dup4\n                /* \"--CODEGEN--\":22:51   */\n              gt\n                /* \"--CODEGEN--\":11:118   */\n              or\n                /* \"--CODEGEN--\":8:10   */\n              iszero\n              tag_247\n              jumpi\n                /* \"--CODEGEN--\":131:132   */\n              0x00\n                /* \"--CODEGEN--\":128:129   */\n              dup1\n                /* \"--CODEGEN--\":121:133   */\n              revert\n                /* \"--CODEGEN--\":8:10   */\n            tag_247:\n                /* \"Entity.sol\":6233:6847  function addDataToSend(string memory _key, string memory _value, uint32 index) ... */\n              swap2\n              swap1\n              dup1\n              dup1\n              0x1f\n              add\n              0x20\n              dup1\n              swap2\n              div\n              mul\n              0x20\n              add\n              mload(0x40)\n              swap1\n              dup2\n              add\n              0x40\n              mstore\n              dup1\n              swap4\n              swap3\n              swap2\n              swap1\n              dup2\n              dup2\n              mstore\n              0x20\n              add\n              dup4\n              dup4\n                /* \"--CODEGEN--\":30:33   */\n              dup1\n                /* \"--CODEGEN--\":22:28   */\n              dup3\n                /* \"--CODEGEN--\":14:20   */\n              dup5\n                /* \"--CODEGEN--\":1:34   */\n              calldatacopy\n                /* \"--CODEGEN--\":99:100   */\n              0x00\n                /* \"--CODEGEN--\":81:97   */\n              swap3\n              add\n                /* \"--CODEGEN--\":74:101   */\n              swap2\n              swap1\n              swap2\n              mstore\n              pop\n                /* \"Entity.sol\":6233:6847  function addDataToSend(string memory _key, string memory _value, uint32 index) ... */\n              swap3\n              swap6\n              pop\n              pop\n              pop\n              swap1\n              calldataload\n              0xffffffff\n              and\n              swap2\n              pop\n              tag_248\n              swap1\n              pop\n              jump\t// in\n                /* \"MultipleEntity.sol\":132:155  address[] public owners */\n            tag_47:\n              0x0b\n              dup2\n              dup2\n              sload\n              dup2\n              lt\n              tag_249\n              jumpi\n              invalid\n            tag_249:\n              0x00\n              swap2\n              dup3\n              mstore\n              0x20\n              swap1\n              swap2\n              keccak256\n              add\n              sload\n              sub(shl(0xa0, 0x01), 0x01)\n              and\n              swap1\n              pop\n              dup2\n              jump\t// out\n                /* \"Entity.sol\":9021:9182  function keysOfData(address src, string memory des)... */\n            tag_53:\n              sub(shl(0xa0, 0x01), 0x01)\n                /* \"Entity.sol\":9153:9165  Storage[src] */\n              dup3\n              and\n              0x00\n              swap1\n              dup2\n              mstore\n                /* \"Entity.sol\":9153:9160  Storage */\n              0x02\n                /* \"Entity.sol\":9153:9165  Storage[src] */\n              0x20\n              swap1\n              dup2\n              mstore\n              0x40\n              swap2\n              dup3\n              swap1\n              keccak256\n                /* \"Entity.sol\":9153:9170  Storage[src][des] */\n              swap2\n              mload\n              dup4\n              mload\n                /* \"Entity.sol\":9117:9130  string memory */\n              0x60\n              swap4\n                /* \"Entity.sol\":9153:9165  Storage[src] */\n              swap3\n                /* \"Entity.sol\":9166:9169  des */\n              dup6\n              swap3\n                /* \"Entity.sol\":9153:9170  Storage[src][des] */\n              swap2\n              dup3\n              swap2\n              dup5\n              add\n              swap1\n              dup1\n              dup4\n              dup4\n                /* \"--CODEGEN--\":36:189   */\n            tag_252:\n                /* \"--CODEGEN--\":66:68   */\n              0x20\n                /* \"--CODEGEN--\":61:64   */\n              dup4\n                /* \"--CODEGEN--\":58:69   */\n              lt\n                /* \"--CODEGEN--\":36:189   */\n              tag_254\n              jumpi\n                /* \"--CODEGEN--\":176:186   */\n              dup1\n              mload\n                /* \"--CODEGEN--\":164:187   */\n              dup3\n              mstore\n              not(0x1f)\n                /* \"--CODEGEN--\":139:151   */\n              swap1\n              swap3\n              add\n              swap2\n                /* \"--CODEGEN--\":98:100   */\n              0x20\n                /* \"--CODEGEN--\":89:101   */\n              swap2\n              dup3\n              add\n              swap2\n                /* \"--CODEGEN--\":114:126   */\n              add\n                /* \"--CODEGEN--\":36:189   */\n              jump(tag_252)\n            tag_254:\n                /* \"--CODEGEN--\":299:309   */\n              mload\n                /* \"--CODEGEN--\":344:354   */\n              dup2\n              mload\n              not(0x00)\n                /* \"--CODEGEN--\":263:265   */\n              0x20\n                /* \"--CODEGEN--\":259:271   */\n              swap5\n              dup6\n              sub\n                /* \"--CODEGEN--\":254:257   */\n              0x0100\n                /* \"--CODEGEN--\":250:272   */\n              swap1\n              dup2\n              exp\n                /* \"--CODEGEN--\":246:276   */\n              dup3\n              add\n                /* \"--CODEGEN--\":340:361   */\n              swap3\n              dup4\n              and\n                /* \"--CODEGEN--\":311:320   */\n              swap3\n              not\n                /* \"--CODEGEN--\":295:321   */\n              swap4\n              swap1\n              swap4\n              and\n                /* \"--CODEGEN--\":377:397   */\n              swap2\n              swap1\n              swap2\n              or\n                /* \"--CODEGEN--\":365:398   */\n              swap1\n              swap3\n              mstore\n                /* \"Entity.sol\":9153:9170  Storage[src][des] */\n              swap5\n              swap1\n              swap3\n              add\n              swap7\n              dup8\n              mstore\n              0x40\n              dup1\n              mload\n              swap8\n              dup9\n              swap1\n              sub\n              dup3\n              add\n              dup9\n              keccak256\n                /* \"--CODEGEN--\":274:275   */\n              0x01\n                /* \"Entity.sol\":9153:9175  Storage[src][des].keys */\n              swap1\n              dup2\n              add\n                /* \"Entity.sol\":9146:9175  return Storage[src][des].keys */\n              dup1\n              sload\n              0x1f\n              0x02\n              swap4\n              dup3\n              and\n              iszero\n              swap1\n              swap9\n              mul\n              swap1\n              swap6\n              add\n              swap1\n              swap5\n              and\n              div\n              swap5\n              dup6\n              add\n              dup3\n              swap1\n              div\n              dup3\n              mul\n              dup9\n              add\n              dup3\n              add\n              swap1\n              mstore\n              dup4\n              dup8\n              mstore\n                /* \"Entity.sol\":9153:9175  Storage[src][des].keys */\n              swap1\n              swap5\n              pop\n                /* \"Entity.sol\":9146:9175  return Storage[src][des].keys */\n              swap2\n              swap3\n              pop\n              pop\n              dup4\n              add\n                /* \"Entity.sol\":9153:9175  Storage[src][des].keys */\n              dup3\n                /* \"Entity.sol\":9146:9175  return Storage[src][des].keys */\n              dup3\n              dup1\n              iszero\n              tag_255\n              jumpi\n              dup1\n              0x1f\n              lt\n              tag_256\n              jumpi\n              0x0100\n              dup1\n              dup4\n              sload\n              div\n              mul\n              dup4\n              mstore\n              swap2\n              0x20\n              add\n              swap2\n              jump(tag_255)\n            tag_256:\n              dup3\n              add\n              swap2\n              swap1\n              0x00\n              mstore\n              keccak256(0x00, 0x20)\n              swap1\n            tag_257:\n              dup2\n              sload\n              dup2\n              mstore\n              swap1\n              0x01\n              add\n              swap1\n              0x20\n              add\n              dup1\n              dup4\n              gt\n              tag_257\n              jumpi\n              dup3\n              swap1\n              sub\n              0x1f\n              and\n              dup3\n              add\n              swap2\n            tag_255:\n              pop\n              pop\n              pop\n              pop\n              pop\n              swap1\n              pop\n                /* \"Entity.sol\":9021:9182  function keysOfData(address src, string memory des)... */\n              swap3\n              swap2\n              pop\n              pop\n              jump\t// out\n                /* \"Entity.sol\":8204:8454  function keyValueOfDataToSend(uint32 index, uint32 keyIndex) ... */\n            tag_60:\n                /* \"Entity.sol\":8313:8326  string memory */\n              0x60\n                /* \"Entity.sol\":8328:8341  string memory */\n              dup1\n                /* \"Entity.sol\":8366:8383  pendingDataToSend */\n              0x09\n                /* \"Entity.sol\":8384:8389  index */\n              dup5\n                /* \"Entity.sol\":8366:8390  pendingDataToSend[index] */\n              0xffffffff\n              and\n              dup2\n              sload\n              dup2\n              lt\n              tag_259\n              jumpi\n              invalid\n            tag_259:\n              swap1\n              0x00\n              mstore\n              keccak256(0x00, 0x20)\n              swap1\n              0x08\n              mul\n              add\n                /* \"Entity.sol\":8366:8394  pendingDataToSend[index].key */\n              0x03\n              add\n                /* \"Entity.sol\":8395:8403  keyIndex */\n              dup4\n                /* \"Entity.sol\":8366:8404  pendingDataToSend[index].key[keyIndex] */\n              0xffffffff\n              and\n              dup2\n              sload\n              dup2\n              lt\n              tag_261\n              jumpi\n              invalid\n            tag_261:\n              swap1\n              0x00\n              mstore\n              keccak256(0x00, 0x20)\n              add\n                /* \"Entity.sol\":8406:8423  pendingDataToSend */\n              0x09\n                /* \"Entity.sol\":8424:8429  index */\n              dup6\n                /* \"Entity.sol\":8406:8430  pendingDataToSend[index] */\n              0xffffffff\n              and\n              dup2\n              sload\n              dup2\n              lt\n              tag_263\n              jumpi\n              invalid\n            tag_263:\n              swap1\n              0x00\n              mstore\n              keccak256(0x00, 0x20)\n              swap1\n              0x08\n              mul\n              add\n                /* \"Entity.sol\":8406:8436  pendingDataToSend[index].value */\n              0x06\n              add\n                /* \"Entity.sol\":8437:8445  keyIndex */\n              dup5\n                /* \"Entity.sol\":8406:8446  pendingDataToSend[index].value[keyIndex] */\n              0xffffffff\n              and\n              dup2\n              sload\n              dup2\n              lt\n              tag_265\n              jumpi\n              invalid\n            tag_265:\n              0x00\n              swap2\n              dup3\n              mstore\n              0x20\n              swap2\n              dup3\n              swap1\n              keccak256\n                /* \"Entity.sol\":8358:8447  return (pendingDataToSend[index].key[keyIndex], pendingDataToSend[index].value[keyIndex]) */\n              dup4\n              sload\n              0x40\n              dup1\n              mload\n              0x1f\n              0x02\n              not(0x00)\n              0x0100\n              0x01\n              dup8\n              and\n              iszero\n              mul\n              add\n              swap1\n              swap5\n              and\n              swap4\n              swap1\n              swap4\n              div\n              swap3\n              dup4\n              add\n              dup7\n              swap1\n              div\n              dup7\n              mul\n              dup2\n              add\n              dup7\n              add\n              swap1\n              swap2\n              mstore\n              dup2\n              dup2\n              mstore\n                /* \"Entity.sol\":8406:8446  pendingDataToSend[index].value[keyIndex] */\n              swap3\n              swap1\n              swap2\n              add\n              swap3\n                /* \"Entity.sol\":8358:8447  return (pendingDataToSend[index].key[keyIndex], pendingDataToSend[index].value[keyIndex]) */\n              dup5\n              swap2\n              swap1\n              dup4\n              add\n              dup3\n              dup3\n              dup1\n              iszero\n              tag_267\n              jumpi\n              dup1\n              0x1f\n              lt\n              tag_268\n              jumpi\n              0x0100\n              dup1\n              dup4\n              sload\n              div\n              mul\n              dup4\n              mstore\n              swap2\n              0x20\n              add\n              swap2\n              jump(tag_267)\n            tag_268:\n              dup3\n              add\n              swap2\n              swap1\n              0x00\n              mstore\n              keccak256(0x00, 0x20)\n              swap1\n            tag_269:\n              dup2\n              sload\n              dup2\n              mstore\n              swap1\n              0x01\n              add\n              swap1\n              0x20\n              add\n              dup1\n              dup4\n              gt\n              tag_269\n              jumpi\n              dup3\n              swap1\n              sub\n              0x1f\n              and\n              dup3\n              add\n              swap2\n            tag_267:\n              pop\n              pop\n              dup5\n              sload\n              0x40\n              dup1\n              mload\n              0x20\n              0x02\n              0x01\n              dup6\n              and\n              iszero\n              0x0100\n              mul\n              not(0x00)\n              add\n              swap1\n              swap5\n              and\n              swap4\n              swap1\n              swap4\n              div\n              0x1f\n              dup2\n              add\n              dup5\n              swap1\n              div\n              dup5\n              mul\n              dup3\n              add\n              dup5\n              add\n              swap1\n              swap3\n              mstore\n              dup2\n              dup2\n              mstore\n              swap6\n              swap8\n              pop\n              dup7\n              swap5\n              pop\n              swap3\n              pop\n              dup5\n              add\n              swap1\n              pop\n              dup3\n              dup3\n              dup1\n              iszero\n              tag_270\n              jumpi\n              dup1\n              0x1f\n              lt\n              tag_271\n              jumpi\n              0x0100\n              dup1\n              dup4\n              sload\n              div\n              mul\n              dup4\n              mstore\n              swap2\n              0x20\n              add\n              swap2\n              jump(tag_270)\n            tag_271:\n              dup3\n              add\n              swap2\n              swap1\n              0x00\n              mstore\n              keccak256(0x00, 0x20)\n              swap1\n            tag_272:\n              dup2\n              sload\n              dup2\n              mstore\n              swap1\n              0x01\n              add\n              swap1\n              0x20\n              add\n              dup1\n              dup4\n              gt\n              tag_272\n              jumpi\n              dup3\n              swap1\n              sub\n              0x1f\n              and\n              dup3\n              add\n              swap2\n            tag_270:\n              pop\n              pop\n              pop\n              pop\n              pop\n              swap1\n              pop\n              swap2\n              pop\n              swap2\n              pop\n                /* \"Entity.sol\":8204:8454  function keyValueOfDataToSend(uint32 index, uint32 keyIndex) ... */\n              swap3\n              pop\n              swap3\n              swap1\n              pop\n              jump\t// out\n                /* \"Entity.sol\":863:924  mapping(address=>mapping(string=>storingData)) public Storage */\n            tag_74:\n              0x02\n              0x20\n              dup2\n              dup2\n              mstore\n              0x00\n              swap4\n              dup5\n              mstore\n              0x40\n              swap4\n              dup5\n              swap1\n              keccak256\n                /* \"--CODEGEN--\":22:36   */\n              dup4\n              mload\n                /* \"--CODEGEN--\":143:175   */\n              dup1\n              dup6\n              add\n              dup4\n              add\n                /* \"--CODEGEN--\":198:218   */\n              dup1\n              mload\n                /* \"--CODEGEN--\":224:255   */\n              swap3\n              dup2\n              mstore\n                /* \"--CODEGEN--\":156:174   */\n              swap1\n              dup4\n              add\n                /* \"--CODEGEN--\":283:301   */\n              swap5\n              dup4\n              add\n                /* \"--CODEGEN--\":273:322   */\n              swap5\n              swap1\n              swap5\n              keccak256\n                /* \"--CODEGEN--\":328:360   */\n              swap4\n              mstore\n                /* \"Entity.sol\":863:924  mapping(address=>mapping(string=>storingData)) public Storage */\n              0x01\n              dup1\n              dup5\n              add\n              dup1\n              sload\n              dup7\n              mload\n              swap3\n              dup2\n              and\n              iszero\n              0x0100\n              mul\n              not(0x00)\n              add\n              and\n              swap4\n              swap1\n              swap4\n              div\n              0x1f\n              dup2\n              add\n              dup4\n              swap1\n              div\n              dup4\n              mul\n              dup3\n              add\n              dup4\n              add\n              swap1\n              swap6\n              mstore\n              dup5\n              dup2\n              mstore\n                /* \"--CODEGEN--\":273:322   */\n              swap3\n              swap4\n                /* \"Entity.sol\":863:924  mapping(address=>mapping(string=>storingData)) public Storage */\n              swap1\n              dup4\n              add\n              dup3\n              dup3\n              dup1\n              iszero\n              tag_273\n              jumpi\n              dup1\n              0x1f\n              lt\n              tag_274\n              jumpi\n              0x0100\n              dup1\n              dup4\n              sload\n              div\n              mul\n              dup4\n              mstore\n              swap2\n              0x20\n              add\n              swap2\n              jump(tag_273)\n            tag_274:\n              dup3\n              add\n              swap2\n              swap1\n              0x00\n              mstore\n              keccak256(0x00, 0x20)\n              swap1\n            tag_275:\n              dup2\n              sload\n              dup2\n              mstore\n              swap1\n              0x01\n              add\n              swap1\n              0x20\n              add\n              dup1\n              dup4\n              gt\n              tag_275\n              jumpi\n              dup3\n              swap1\n              sub\n              0x1f\n              and\n              dup3\n              add\n              swap2\n            tag_273:\n              pop\n              pop\n              pop\n              pop\n              pop\n              swap1\n              pop\n              dup2\n              jump\t// out\n                /* \"MultipleEntity.sol\":1442:1827  function removeOwner(address owner)... */\n            tag_81:\n                /* \"MultipleEntity.sol\":224:234  msg.sender */\n              caller\n                /* \"MultipleEntity.sol\":216:235  isOwner[msg.sender] */\n              0x00\n              swap1\n              dup2\n              mstore\n                /* \"MultipleEntity.sol\":216:223  isOwner */\n              0x0a\n                /* \"MultipleEntity.sol\":216:235  isOwner[msg.sender] */\n              0x20\n              mstore\n              0x40\n              swap1\n              keccak256\n              sload\n              0xff\n              and\n                /* \"MultipleEntity.sol\":208:236  require(isOwner[msg.sender]) */\n              tag_277\n              jumpi\n                /* \"--CODEGEN--\":12:13   */\n              0x00\n                /* \"--CODEGEN--\":9:10   */\n              dup1\n                /* \"--CODEGEN--\":2:14   */\n              revert\n                /* \"MultipleEntity.sol\":208:236  require(isOwner[msg.sender]) */\n            tag_277:\n              sub(shl(0xa0, 0x01), 0x01)\n                /* \"MultipleEntity.sol\":670:684  isOwner[owner] */\n              dup2\n              and\n              0x00\n              swap1\n              dup2\n              mstore\n                /* \"MultipleEntity.sol\":670:677  isOwner */\n              0x0a\n                /* \"MultipleEntity.sol\":670:684  isOwner[owner] */\n              0x20\n              mstore\n              0x40\n              swap1\n              keccak256\n              sload\n              dup2\n              swap1\n              0xff\n              and\n                /* \"MultipleEntity.sol\":662:685  require(isOwner[owner]) */\n              tag_279\n              jumpi\n                /* \"--CODEGEN--\":12:13   */\n              0x00\n                /* \"--CODEGEN--\":9:10   */\n              dup1\n                /* \"--CODEGEN--\":2:14   */\n              revert\n                /* \"MultipleEntity.sol\":662:685  require(isOwner[owner]) */\n            tag_279:\n                /* \"MultipleEntity.sol\":1567:1573  owners */\n              0x0b\n                /* \"MultipleEntity.sol\":1567:1580  owners.length */\n              sload\n                /* \"MultipleEntity.sol\":1583:1584  1 */\n              0x01\n              lt\n                /* \"MultipleEntity.sol\":1559:1585  require(owners.length > 1) */\n              tag_281\n              jumpi\n                /* \"--CODEGEN--\":12:13   */\n              0x00\n                /* \"--CODEGEN--\":9:10   */\n              dup1\n                /* \"--CODEGEN--\":2:14   */\n              revert\n                /* \"MultipleEntity.sol\":1559:1585  require(owners.length > 1) */\n            tag_281:\n              sub(shl(0xa0, 0x01), 0x01)\n                /* \"MultipleEntity.sol\":1595:1609  isOwner[owner] */\n              dup3\n              and\n                /* \"MultipleEntity.sol\":1612:1617  false */\n              0x00\n                /* \"MultipleEntity.sol\":1595:1609  isOwner[owner] */\n              swap1\n              dup2\n              mstore\n                /* \"MultipleEntity.sol\":1595:1602  isOwner */\n              0x0a\n                /* \"MultipleEntity.sol\":1595:1609  isOwner[owner] */\n              0x20\n              mstore\n              0x40\n              dup2\n              keccak256\n                /* \"MultipleEntity.sol\":1595:1617  isOwner[owner] = false */\n              dup1\n              sload\n              not(0xff)\n              and\n              swap1\n              sstore\n                /* \"MultipleEntity.sol\":1627:1799  for (uint32 i=0; i<owners.length - 1; i++)... */\n            tag_282:\n                /* \"MultipleEntity.sol\":1646:1652  owners */\n              0x0b\n                /* \"MultipleEntity.sol\":1646:1659  owners.length */\n              sload\n              not(0x00)\n                /* \"MultipleEntity.sol\":1646:1663  owners.length - 1 */\n              add\n                /* \"MultipleEntity.sol\":1644:1663  i<owners.length - 1 */\n              0xffffffff\n              dup3\n              and\n              lt\n                /* \"MultipleEntity.sol\":1627:1799  for (uint32 i=0; i<owners.length - 1; i++)... */\n              iszero\n              tag_283\n              jumpi\n                /* \"MultipleEntity.sol\":1686:1692  owners */\n              0x0b\n                /* \"MultipleEntity.sol\":1686:1695  owners[i] */\n              dup1\n              sload\n              sub(shl(0xa0, 0x01), 0x01)\n                /* \"MultipleEntity.sol\":1686:1704  owners[i] == owner */\n              dup6\n              and\n              swap2\n                /* \"MultipleEntity.sol\":1686:1692  owners */\n              swap1\n                /* \"MultipleEntity.sol\":1686:1695  owners[i] */\n              0xffffffff\n              dup5\n              and\n              swap1\n              dup2\n              lt\n              tag_285\n              jumpi\n              invalid\n            tag_285:\n              0x00\n              swap2\n              dup3\n              mstore\n              0x20\n              swap1\n              swap2\n              keccak256\n              add\n              sload\n              sub(shl(0xa0, 0x01), 0x01)\n              and\n                /* \"MultipleEntity.sol\":1686:1704  owners[i] == owner */\n              eq\n                /* \"MultipleEntity.sol\":1682:1799  if (owners[i] == owner) {... */\n              iszero\n              tag_287\n              jumpi\n                /* \"MultipleEntity.sol\":1736:1742  owners */\n              0x0b\n                /* \"MultipleEntity.sol\":1743:1756  owners.length */\n              dup1\n              sload\n              not(0x00)\n                /* \"MultipleEntity.sol\":1743:1760  owners.length - 1 */\n              dup2\n              add\n              swap1\n                /* \"MultipleEntity.sol\":1736:1761  owners[owners.length - 1] */\n              dup2\n              lt\n              tag_288\n              jumpi\n              invalid\n            tag_288:\n              0x00\n              swap2\n              dup3\n              mstore\n              0x20\n              swap1\n              swap2\n              keccak256\n              add\n              sload\n                /* \"MultipleEntity.sol\":1724:1730  owners */\n              0x0b\n                /* \"MultipleEntity.sol\":1724:1733  owners[i] */\n              dup1\n              sload\n              sub(shl(0xa0, 0x01), 0x01)\n                /* \"MultipleEntity.sol\":1736:1761  owners[owners.length - 1] */\n              swap1\n              swap3\n              and\n              swap2\n                /* \"MultipleEntity.sol\":1724:1733  owners[i] */\n              0xffffffff\n              dup5\n              and\n              swap1\n              dup2\n              lt\n              tag_290\n              jumpi\n              invalid\n            tag_290:\n              0x00\n              swap2\n              dup3\n              mstore\n              0x20\n              swap1\n              swap2\n              keccak256\n              add\n                /* \"MultipleEntity.sol\":1724:1761  owners[i] = owners[owners.length - 1] */\n              dup1\n              sload\n              not(sub(shl(0xa0, 0x01), 0x01))\n              and\n              sub(shl(0xa0, 0x01), 0x01)\n              swap3\n              swap1\n              swap3\n              and\n              swap2\n              swap1\n              swap2\n              or\n              swap1\n              sstore\n                /* \"MultipleEntity.sol\":1779:1784  break */\n              jump(tag_283)\n                /* \"MultipleEntity.sol\":1682:1799  if (owners[i] == owner) {... */\n            tag_287:\n                /* \"MultipleEntity.sol\":1665:1668  i++ */\n              0x01\n              add\n                /* \"MultipleEntity.sol\":1627:1799  for (uint32 i=0; i<owners.length - 1; i++)... */\n              jump(tag_282)\n            tag_283:\n              pop\n                /* \"MultipleEntity.sol\":1808:1814  owners */\n              0x0b\n                /* \"MultipleEntity.sol\":1808:1820  owners.pop() */\n              dup1\n              sload\n              dup1\n              tag_292\n              jumpi\n              invalid\n            tag_292:\n              0x00\n              dup3\n              dup2\n              mstore\n              0x20\n              swap1\n              keccak256\n              not(0x00)\n              swap1\n              dup3\n              add\n              dup2\n              add\n              dup1\n              sload\n              not(sub(shl(0xa0, 0x01), 0x01))\n              and\n              swap1\n              sstore\n              add\n              swap1\n              sstore\n              pop\n              pop\n                /* \"MultipleEntity.sol\":1442:1827  function removeOwner(address owner)... */\n              jump\t// out\n                /* \"Entity.sol\":5867:6223  function newDataMultipleToSend(address multipleEntity, address _receiver, ... */\n            tag_93:\n                /* \"MultipleEntity.sol\":224:234  msg.sender */\n              caller\n                /* \"Entity.sol\":6086:6092  uint32 */\n              0x00\n                /* \"MultipleEntity.sol\":216:235  isOwner[msg.sender] */\n              swap1\n              dup2\n              mstore\n                /* \"MultipleEntity.sol\":216:223  isOwner */\n              0x0a\n                /* \"MultipleEntity.sol\":216:235  isOwner[msg.sender] */\n              0x20\n              mstore\n              0x40\n              dup2\n              keccak256\n              sload\n              0xff\n              and\n                /* \"MultipleEntity.sol\":208:236  require(isOwner[msg.sender]) */\n              tag_295\n              jumpi\n                /* \"--CODEGEN--\":12:13   */\n              0x00\n                /* \"--CODEGEN--\":9:10   */\n              dup1\n                /* \"--CODEGEN--\":2:14   */\n              revert\n                /* \"MultipleEntity.sol\":208:236  require(isOwner[msg.sender]) */\n            tag_295:\n                /* \"Entity.sol\":6153:6216  me.newDataToSend(_receiver, _description, _key, _value, direct) */\n              mload(0x40)\n              shl(0xe1, 0x460b10a9)\n              dup2\n              mstore\n              sub(shl(0xa0, 0x01), 0x01)\n              dup8\n              dup2\n              and\n              0x04\n              dup4\n              add\n              swap1\n              dup2\n              mstore\n              dup5\n              iszero\n              iszero\n              0x84\n              dup5\n              add\n              mstore\n              0xa0\n              0x24\n              dup5\n              add\n              swap1\n              dup2\n              mstore\n              dup9\n              mload\n              0xa4\n              dup6\n              add\n              mstore\n              dup9\n              mload\n                /* \"Entity.sol\":6128:6142  multipleEntity */\n              dup12\n              swap5\n                /* \"Entity.sol\":6153:6169  me.newDataToSend */\n              swap4\n              dup6\n              and\n              swap4\n              0x8c162152\n              swap4\n                /* \"Entity.sol\":6170:6179  _receiver */\n              dup13\n              swap4\n                /* \"Entity.sol\":6181:6193  _description */\n              dup13\n              swap4\n                /* \"Entity.sol\":6195:6199  _key */\n              dup13\n              swap4\n                /* \"Entity.sol\":6201:6207  _value */\n              dup13\n              swap4\n                /* \"Entity.sol\":6209:6215  direct */\n              dup13\n              swap4\n                /* \"Entity.sol\":6153:6216  me.newDataToSend(_receiver, _description, _key, _value, direct) */\n              swap1\n              swap3\n              swap1\n              swap2\n              0x44\n              dup2\n              add\n              swap2\n              0x64\n              dup3\n              add\n              swap2\n              0xc4\n              add\n              swap1\n              0x20\n              dup11\n              add\n              swap1\n              dup1\n              dup4\n              dup4\n                /* \"Entity.sol\":6109:6118  Entity me */\n              0x00\n                /* \"--CODEGEN--\":8:108   */\n            tag_297:\n                /* \"--CODEGEN--\":33:36   */\n              dup4\n                /* \"--CODEGEN--\":30:31   */\n              dup2\n                /* \"--CODEGEN--\":27:37   */\n              lt\n                /* \"--CODEGEN--\":8:108   */\n              iszero\n              tag_299\n              jumpi\n                /* \"--CODEGEN--\":90:101   */\n              dup2\n              dup2\n              add\n                /* \"--CODEGEN--\":84:102   */\n              mload\n                /* \"--CODEGEN--\":71:82   */\n              dup4\n              dup3\n              add\n                /* \"--CODEGEN--\":64:103   */\n              mstore\n                /* \"--CODEGEN--\":52:54   */\n              0x20\n                /* \"--CODEGEN--\":45:55   */\n              add\n                /* \"--CODEGEN--\":8:108   */\n              jump(tag_297)\n            tag_299:\n                /* \"--CODEGEN--\":12:26   */\n              pop\n                /* \"Entity.sol\":6153:6216  me.newDataToSend(_receiver, _description, _key, _value, direct) */\n              pop\n              pop\n              pop\n              swap1\n              pop\n              swap1\n              dup2\n              add\n              swap1\n              0x1f\n              and\n              dup1\n              iszero\n              tag_300\n              jumpi\n              dup1\n              dup3\n              sub\n              dup1\n              mload\n              0x01\n              dup4\n              0x20\n              sub\n              0x0100\n              exp\n              sub\n              not\n              and\n              dup2\n              mstore\n              0x20\n              add\n              swap2\n              pop\n            tag_300:\n              pop\n              dup5\n              dup2\n              sub\n              dup4\n              mstore\n              dup8\n              mload\n              dup2\n              mstore\n              dup8\n              mload\n              0x20\n              swap2\n              dup3\n              add\n              swap2\n              dup10\n              add\n              swap1\n              dup1\n              dup4\n              dup4\n                /* \"--CODEGEN--\":23:24   */\n              0x00\n                /* \"--CODEGEN--\":8:108   */\n            tag_301:\n                /* \"--CODEGEN--\":33:36   */\n              dup4\n                /* \"--CODEGEN--\":30:31   */\n              dup2\n                /* \"--CODEGEN--\":27:37   */\n              lt\n                /* \"--CODEGEN--\":8:108   */\n              iszero\n              tag_303\n              jumpi\n                /* \"--CODEGEN--\":90:101   */\n              dup2\n              dup2\n              add\n                /* \"--CODEGEN--\":84:102   */\n              mload\n                /* \"--CODEGEN--\":71:82   */\n              dup4\n              dup3\n              add\n                /* \"--CODEGEN--\":64:103   */\n              mstore\n                /* \"--CODEGEN--\":52:54   */\n              0x20\n                /* \"--CODEGEN--\":45:55   */\n              add\n                /* \"--CODEGEN--\":8:108   */\n              jump(tag_301)\n            tag_303:\n                /* \"--CODEGEN--\":12:26   */\n              pop\n                /* \"Entity.sol\":6153:6216  me.newDataToSend(_receiver, _description, _key, _value, direct) */\n              pop\n              pop\n              pop\n              swap1\n              pop\n              swap1\n              dup2\n              add\n              swap1\n              0x1f\n              and\n              dup1\n              iszero\n              tag_304\n              jumpi\n              dup1\n              dup3\n              sub\n              dup1\n              mload\n              0x01\n              dup4\n              0x20\n              sub\n              0x0100\n              exp\n              sub\n              not\n              and\n              dup2\n              mstore\n              0x20\n              add\n              swap2\n              pop\n            tag_304:\n              pop\n              dup5\n              dup2\n              sub\n              dup3\n              mstore\n              dup7\n              mload\n              dup2\n              mstore\n              dup7\n              mload\n              0x20\n              swap2\n              dup3\n              add\n              swap2\n              dup9\n              add\n              swap1\n              dup1\n              dup4\n              dup4\n                /* \"--CODEGEN--\":23:24   */\n              0x00\n                /* \"--CODEGEN--\":8:108   */\n            tag_305:\n                /* \"--CODEGEN--\":33:36   */\n              dup4\n                /* \"--CODEGEN--\":30:31   */\n              dup2\n                /* \"--CODEGEN--\":27:37   */\n              lt\n                /* \"--CODEGEN--\":8:108   */\n              iszero\n              tag_307\n              jumpi\n                /* \"--CODEGEN--\":90:101   */\n              dup2\n              dup2\n              add\n                /* \"--CODEGEN--\":84:102   */\n              mload\n                /* \"--CODEGEN--\":71:82   */\n              dup4\n              dup3\n              add\n                /* \"--CODEGEN--\":64:103   */\n              mstore\n                /* \"--CODEGEN--\":52:54   */\n              0x20\n                /* \"--CODEGEN--\":45:55   */\n              add\n                /* \"--CODEGEN--\":8:108   */\n              jump(tag_305)\n            tag_307:\n                /* \"--CODEGEN--\":12:26   */\n              pop\n                /* \"Entity.sol\":6153:6216  me.newDataToSend(_receiver, _description, _key, _value, direct) */\n              pop\n              pop\n              pop\n              swap1\n              pop\n              swap1\n              dup2\n              add\n              swap1\n              0x1f\n              and\n              dup1\n              iszero\n              tag_308\n              jumpi\n              dup1\n              dup3\n              sub\n              dup1\n              mload\n              0x01\n              dup4\n              0x20\n              sub\n              0x0100\n              exp\n              sub\n              not\n              and\n              dup2\n              mstore\n              0x20\n              add\n              swap2\n              pop\n            tag_308:\n              pop\n              swap9\n              pop\n              pop\n              pop\n              pop\n              pop\n              pop\n              pop\n              pop\n              pop\n              0x00\n              mload(0x40)\n              dup1\n              dup4\n              sub\n              dup2\n              0x00\n              dup8\n              dup1\n              extcodesize\n              iszero\n                /* \"--CODEGEN--\":5:14   */\n              dup1\n                /* \"--CODEGEN--\":2:4   */\n              iszero\n              tag_309\n              jumpi\n                /* \"--CODEGEN--\":27:28   */\n              0x00\n                /* \"--CODEGEN--\":24:25   */\n              dup1\n                /* \"--CODEGEN--\":17:29   */\n              revert\n                /* \"--CODEGEN--\":2:4   */\n            tag_309:\n                /* \"Entity.sol\":6153:6216  me.newDataToSend(_receiver, _description, _key, _value, direct) */\n              pop\n              gas\n              call\n              iszero\n                /* \"--CODEGEN--\":8:17   */\n              dup1\n                /* \"--CODEGEN--\":5:7   */\n              iszero\n              tag_311\n              jumpi\n                /* \"--CODEGEN--\":45:61   */\n              returndatasize\n                /* \"--CODEGEN--\":42:43   */\n              0x00\n                /* \"--CODEGEN--\":39:40   */\n              dup1\n                /* \"--CODEGEN--\":24:62   */\n              returndatacopy\n                /* \"--CODEGEN--\":77:93   */\n              returndatasize\n                /* \"--CODEGEN--\":74:75   */\n              0x00\n                /* \"--CODEGEN--\":67:94   */\n              revert\n                /* \"--CODEGEN--\":5:7   */\n            tag_311:\n                /* \"Entity.sol\":6153:6216  me.newDataToSend(_receiver, _description, _key, _value, direct) */\n              pop\n              pop\n              pop\n              pop\n                /* \"MultipleEntity.sol\":246:247  _ */\n              pop\n                /* \"Entity.sol\":5867:6223  function newDataMultipleToSend(address multipleEntity, address _receiver, ... */\n              swap7\n              swap6\n              pop\n              pop\n              pop\n              pop\n              pop\n              pop\n              jump\t// out\n                /* \"MultipleEntity.sol\":89:126  mapping(address=>bool) public isOwner */\n            tag_96:\n              mstore(0x20, 0x0a)\n              0x00\n              swap1\n              dup2\n              mstore\n              0x40\n              swap1\n              keccak256\n              sload\n              0xff\n              and\n              dup2\n              jump\t// out\n                /* \"Entity.sol\":9188:9375  function fetchValue(address src, string memory des, string memory key)... */\n            tag_105:\n              sub(shl(0xa0, 0x01), 0x01)\n                /* \"Entity.sol\":9339:9351  Storage[src] */\n              dup4\n              and\n              0x00\n              swap1\n              dup2\n              mstore\n                /* \"Entity.sol\":9339:9346  Storage */\n              0x02\n                /* \"Entity.sol\":9339:9351  Storage[src] */\n              0x20\n              swap1\n              dup2\n              mstore\n              0x40\n              swap2\n              dup3\n              swap1\n              keccak256\n                /* \"Entity.sol\":9339:9356  Storage[src][des] */\n              swap2\n              mload\n              dup5\n              mload\n                /* \"Entity.sol\":9303:9316  string memory */\n              0x60\n              swap4\n                /* \"Entity.sol\":9339:9351  Storage[src] */\n              swap3\n                /* \"Entity.sol\":9352:9355  des */\n              dup7\n              swap3\n                /* \"Entity.sol\":9339:9356  Storage[src][des] */\n              swap2\n              dup3\n              swap2\n              dup5\n              add\n              swap1\n              dup1\n              dup4\n              dup4\n                /* \"--CODEGEN--\":36:189   */\n            tag_313:\n                /* \"--CODEGEN--\":66:68   */\n              0x20\n                /* \"--CODEGEN--\":61:64   */\n              dup4\n                /* \"--CODEGEN--\":58:69   */\n              lt\n                /* \"--CODEGEN--\":36:189   */\n              tag_315\n              jumpi\n                /* \"--CODEGEN--\":176:186   */\n              dup1\n              mload\n                /* \"--CODEGEN--\":164:187   */\n              dup3\n              mstore\n              not(0x1f)\n                /* \"--CODEGEN--\":139:151   */\n              swap1\n              swap3\n              add\n              swap2\n                /* \"--CODEGEN--\":98:100   */\n              0x20\n                /* \"--CODEGEN--\":89:101   */\n              swap2\n              dup3\n              add\n              swap2\n                /* \"--CODEGEN--\":114:126   */\n              add\n                /* \"--CODEGEN--\":36:189   */\n              jump(tag_313)\n            tag_315:\n                /* \"--CODEGEN--\":299:309   */\n              mload\n                /* \"--CODEGEN--\":344:354   */\n              dup2\n              mload\n                /* \"--CODEGEN--\":263:265   */\n              0x20\n                /* \"--CODEGEN--\":259:271   */\n              swap4\n              dup5\n              sub\n                /* \"--CODEGEN--\":254:257   */\n              0x0100\n                /* \"--CODEGEN--\":250:272   */\n              exp\n              not(0x00)\n                /* \"--CODEGEN--\":246:276   */\n              add\n                /* \"--CODEGEN--\":311:320   */\n              dup1\n              not\n                /* \"--CODEGEN--\":295:321   */\n              swap1\n              swap3\n              and\n                /* \"--CODEGEN--\":340:361   */\n              swap2\n              and\n                /* \"--CODEGEN--\":377:397   */\n              or\n                /* \"--CODEGEN--\":365:398   */\n              swap1\n              mstore\n                /* \"Entity.sol\":9339:9356  Storage[src][des] */\n              swap3\n              add\n              swap5\n              dup6\n              mstore\n              pop\n              mload(0x40)\n              swap4\n              dup5\n              swap1\n              sub\n              dup2\n              add\n              dup5\n              keccak256\n                /* \"Entity.sol\":9339:9368  Storage[src][des].column[key] */\n              dup7\n              mload\n                /* \"Entity.sol\":9339:9356  Storage[src][des] */\n              swap1\n              swap5\n                /* \"Entity.sol\":9339:9368  Storage[src][des].column[key] */\n              dup8\n              swap5\n              pop\n                /* \"Entity.sol\":9339:9356  Storage[src][des] */\n              swap3\n              pop\n              dup3\n              swap2\n                /* \"Entity.sol\":9339:9368  Storage[src][des].column[key] */\n              dup5\n              add\n              swap1\n              dup1\n                /* \"Entity.sol\":9339:9356  Storage[src][des] */\n              dup4\n                /* \"Entity.sol\":9339:9368  Storage[src][des].column[key] */\n              dup4\n                /* \"--CODEGEN--\":36:189   */\n            tag_316:\n                /* \"--CODEGEN--\":66:68   */\n              0x20\n                /* \"--CODEGEN--\":61:64   */\n              dup4\n                /* \"--CODEGEN--\":58:69   */\n              lt\n                /* \"--CODEGEN--\":36:189   */\n              tag_318\n              jumpi\n                /* \"--CODEGEN--\":176:186   */\n              dup1\n              mload\n                /* \"--CODEGEN--\":164:187   */\n              dup3\n              mstore\n              not(0x1f)\n                /* \"--CODEGEN--\":139:151   */\n              swap1\n              swap3\n              add\n              swap2\n                /* \"--CODEGEN--\":98:100   */\n              0x20\n                /* \"--CODEGEN--\":89:101   */\n              swap2\n              dup3\n              add\n              swap2\n                /* \"--CODEGEN--\":114:126   */\n              add\n                /* \"--CODEGEN--\":36:189   */\n              jump(tag_316)\n            tag_318:\n                /* \"--CODEGEN--\":299:309   */\n              mload\n                /* \"--CODEGEN--\":344:354   */\n              dup2\n              mload\n              not(0x00)\n                /* \"--CODEGEN--\":263:265   */\n              0x20\n                /* \"--CODEGEN--\":259:271   */\n              swap5\n              dup6\n              sub\n                /* \"--CODEGEN--\":254:257   */\n              0x0100\n                /* \"--CODEGEN--\":250:272   */\n              swap1\n              dup2\n              exp\n                /* \"--CODEGEN--\":246:276   */\n              dup3\n              add\n                /* \"--CODEGEN--\":340:361   */\n              swap3\n              dup4\n              and\n                /* \"--CODEGEN--\":311:320   */\n              swap3\n              not\n                /* \"--CODEGEN--\":295:321   */\n              swap4\n              swap1\n              swap4\n              and\n                /* \"--CODEGEN--\":377:397   */\n              swap2\n              swap1\n              swap2\n              or\n                /* \"--CODEGEN--\":365:398   */\n              swap1\n              swap3\n              mstore\n                /* \"Entity.sol\":9339:9368  Storage[src][des].column[key] */\n              swap5\n              swap1\n              swap3\n              add\n              swap7\n              dup8\n              mstore\n              0x40\n              dup1\n              mload\n              swap8\n              dup9\n              swap1\n              sub\n              dup3\n              add\n              dup9\n              keccak256\n                /* \"Entity.sol\":9332:9368  return Storage[src][des].column[key] */\n              dup1\n              sload\n              0x1f\n              0x02\n                /* \"--CODEGEN--\":274:275   */\n              0x01\n                /* \"Entity.sol\":9332:9368  return Storage[src][des].column[key] */\n              dup4\n              and\n              iszero\n              swap1\n              swap9\n              mul\n              swap1\n              swap6\n              add\n              and\n              swap6\n              swap1\n              swap6\n              div\n              swap3\n              dup4\n              add\n              dup3\n              swap1\n              div\n              dup3\n              mul\n              dup9\n              add\n              dup3\n              add\n              swap1\n              mstore\n              dup2\n              dup8\n              mstore\n                /* \"Entity.sol\":9339:9368  Storage[src][des].column[key] */\n              swap3\n              swap5\n              pop\n                /* \"Entity.sol\":9332:9368  return Storage[src][des].column[key] */\n              swap3\n              pop\n              pop\n              dup4\n              add\n                /* \"Entity.sol\":9339:9368  Storage[src][des].column[key] */\n              dup3\n                /* \"Entity.sol\":9332:9368  return Storage[src][des].column[key] */\n              dup3\n              dup1\n              iszero\n              tag_319\n              jumpi\n              dup1\n              0x1f\n              lt\n              tag_320\n              jumpi\n              0x0100\n              dup1\n              dup4\n              sload\n              div\n              mul\n              dup4\n              mstore\n              swap2\n              0x20\n              add\n              swap2\n              jump(tag_319)\n            tag_320:\n              dup3\n              add\n              swap2\n              swap1\n              0x00\n              mstore\n              keccak256(0x00, 0x20)\n              swap1\n            tag_321:\n              dup2\n              sload\n              dup2\n              mstore\n              swap1\n              0x01\n              add\n              swap1\n              0x20\n              add\n              dup1\n              dup4\n              gt\n              tag_321\n              jumpi\n              dup3\n              swap1\n              sub\n              0x1f\n              and\n              dup3\n              add\n              swap2\n            tag_319:\n              pop\n              pop\n              pop\n              pop\n              pop\n              swap1\n              pop\n                /* \"Entity.sol\":9188:9375  function fetchValue(address src, string memory des, string memory key)... */\n              swap4\n              swap3\n              pop\n              pop\n              pop\n              jump\t// out\n                /* \"Entity.sol\":930:957  address[] public dataSource */\n            tag_112:\n              0x03\n              dup2\n              dup2\n              sload\n              dup2\n              lt\n              tag_249\n              jumpi\n              invalid\n                /* \"Entity.sol\":1009:1063  mapping(address=>string[]) public descriptionsBySource */\n            tag_115:\n              mstore(0x20, 0x05)\n              dup2\n              0x00\n              mstore\n              keccak256(0x00, 0x40)\n              dup2\n              dup2\n              sload\n              dup2\n              lt\n              tag_324\n              jumpi\n              invalid\n            tag_324:\n              0x00\n              swap2\n              dup3\n              mstore\n              0x20\n              swap2\n              dup3\n              swap1\n              keccak256\n              add\n              dup1\n              sload\n              0x40\n              dup1\n              mload\n              0x02\n              0x01\n              dup5\n              and\n              iszero\n              0x0100\n              mul\n              not(0x00)\n              add\n              swap1\n              swap4\n              and\n              swap3\n              swap1\n              swap3\n              div\n              0x1f\n              dup2\n              add\n              dup6\n              swap1\n              div\n              dup6\n              mul\n              dup4\n              add\n              dup6\n              add\n              swap1\n              swap2\n              mstore\n              dup1\n              dup3\n              mstore\n              swap1\n              swap5\n              pop\n              swap1\n              swap3\n              pop\n              swap1\n              dup4\n              add\n              dup3\n              dup3\n              dup1\n              iszero\n              tag_326\n              jumpi\n              dup1\n              0x1f\n              lt\n              tag_327\n              jumpi\n              0x0100\n              dup1\n              dup4\n              sload\n              div\n              mul\n              dup4\n              mstore\n              swap2\n              0x20\n              add\n              swap2\n              jump(tag_326)\n            tag_327:\n              dup3\n              add\n              swap2\n              swap1\n              0x00\n              mstore\n              keccak256(0x00, 0x20)\n              swap1\n            tag_328:\n              dup2\n              sload\n              dup2\n              mstore\n              swap1\n              0x01\n              add\n              swap1\n              0x20\n              add\n              dup1\n              dup4\n              gt\n              tag_328\n              jumpi\n              dup3\n              swap1\n              sub\n              0x1f\n              and\n              dup3\n              add\n              swap2\n            tag_326:\n              pop\n              pop\n              pop\n              pop\n              pop\n              dup2\n              jump\t// out\n                /* \"Entity.sol\":8714:8843  function sourceLength()... */\n            tag_121:\n                /* \"Entity.sol\":8818:8828  dataSource */\n              0x03\n                /* \"Entity.sol\":8818:8835  dataSource.length */\n              sload\n                /* \"Entity.sol\":8714:8843  function sourceLength()... */\n            tag_329:\n              swap1\n              jump\t// out\n                /* \"Entity.sol\":3202:3430  function approveDataToReceive(uint32 index)... */\n            tag_124:\n                /* \"MultipleEntity.sol\":224:234  msg.sender */\n              caller\n                /* \"MultipleEntity.sol\":216:235  isOwner[msg.sender] */\n              0x00\n              swap1\n              dup2\n              mstore\n                /* \"MultipleEntity.sol\":216:223  isOwner */\n              0x0a\n                /* \"MultipleEntity.sol\":216:235  isOwner[msg.sender] */\n              0x20\n              mstore\n              0x40\n              swap1\n              keccak256\n              sload\n              0xff\n              and\n                /* \"MultipleEntity.sol\":208:236  require(isOwner[msg.sender]) */\n              tag_331\n              jumpi\n                /* \"--CODEGEN--\":12:13   */\n              0x00\n                /* \"--CODEGEN--\":9:10   */\n              dup1\n                /* \"--CODEGEN--\":2:14   */\n              revert\n                /* \"MultipleEntity.sol\":208:236  require(isOwner[msg.sender]) */\n            tag_331:\n                /* \"MultipleEntity.sol\":353:363  msg.sender */\n              caller\n                /* \"MultipleEntity.sol\":331:364  votedApproveToReceive[msg.sender] */\n              0x00\n              swap1\n              dup2\n              mstore\n                /* \"MultipleEntity.sol\":331:352  votedApproveToReceive */\n              0x0d\n                /* \"MultipleEntity.sol\":331:364  votedApproveToReceive[msg.sender] */\n              0x20\n              swap1\n              dup2\n              mstore\n              0x40\n              dup1\n              dup4\n              keccak256\n                /* \"MultipleEntity.sol\":331:371  votedApproveToReceive[msg.sender][index] */\n              0xffffffff\n              dup6\n              and\n              dup5\n              mstore\n              swap1\n              swap2\n              mstore\n              swap1\n              keccak256\n              sload\n                /* \"Entity.sol\":3307:3312  index */\n              dup2\n              swap1\n                /* \"MultipleEntity.sol\":331:371  votedApproveToReceive[msg.sender][index] */\n              0xff\n              and\n                /* \"MultipleEntity.sol\":330:371  !votedApproveToReceive[msg.sender][index] */\n              iszero\n                /* \"MultipleEntity.sol\":322:372  require(!votedApproveToReceive[msg.sender][index]) */\n              tag_333\n              jumpi\n                /* \"--CODEGEN--\":12:13   */\n              0x00\n                /* \"--CODEGEN--\":9:10   */\n              dup1\n                /* \"--CODEGEN--\":2:14   */\n              revert\n                /* \"MultipleEntity.sol\":322:372  require(!votedApproveToReceive[msg.sender][index]) */\n            tag_333:\n                /* \"MultipleEntity.sol\":404:414  msg.sender */\n              caller\n                /* \"MultipleEntity.sol\":382:415  votedApproveToReceive[msg.sender] */\n              0x00\n              swap1\n              dup2\n              mstore\n                /* \"MultipleEntity.sol\":382:403  votedApproveToReceive */\n              0x0d\n                /* \"MultipleEntity.sol\":382:415  votedApproveToReceive[msg.sender] */\n              0x20\n              swap1\n              dup2\n              mstore\n              0x40\n              dup1\n              dup4\n              keccak256\n                /* \"MultipleEntity.sol\":382:422  votedApproveToReceive[msg.sender][index] */\n              0xffffffff\n              dup6\n              dup2\n              and\n              dup6\n              mstore\n              swap1\n              dup4\n              mstore\n              dup2\n              dup5\n              keccak256\n                /* \"MultipleEntity.sol\":382:429  votedApproveToReceive[msg.sender][index] = true */\n              dup1\n              sload\n                /* \"MultipleEntity.sol\":425:429  true */\n              0x01\n              not(0xff)\n                /* \"MultipleEntity.sol\":382:429  votedApproveToReceive[msg.sender][index] = true */\n              swap1\n              swap2\n              and\n              dup2\n              or\n              swap1\n              swap2\n              sstore\n                /* \"MultipleEntity.sol\":439:460  approveToReceiveCount */\n              0x0c\n                /* \"MultipleEntity.sol\":439:467  approveToReceiveCount[index] */\n              swap1\n              swap4\n              mstore\n              swap3\n              keccak256\n                /* \"MultipleEntity.sol\":439:469  approveToReceiveCount[index]++ */\n              dup1\n              sload\n              not(0xffffffff)\n              dup2\n              and\n              swap1\n              dup5\n              and\n              swap1\n              swap3\n              add\n              dup4\n              and\n              swap2\n              swap1\n              swap2\n              or\n              swap1\n              dup2\n              swap1\n              sstore\n                /* \"MultipleEntity.sol\":516:522  owners */\n              0x0b\n                /* \"MultipleEntity.sol\":516:529  owners.length */\n              sload\n                /* \"MultipleEntity.sol\":482:510  approveToReceiveCount[index] */\n              swap1\n              dup3\n              and\n                /* \"MultipleEntity.sol\":511:512  2 */\n              0x02\n                /* \"MultipleEntity.sol\":482:512  approveToReceiveCount[index]*2 */\n              mul\n                /* \"MultipleEntity.sol\":482:529  approveToReceiveCount[index]*2 >= owners.length */\n              swap1\n              swap2\n              and\n              lt\n                /* \"MultipleEntity.sol\":479:589  if(approveToReceiveCount[index]*2 >= owners.length){... */\n              tag_334\n              jumpi\n                /* \"MultipleEntity.sol\":544:571  toReceiveIsConfirmed[index] */\n              0xffffffff\n              dup2\n              and\n              0x00\n              swap1\n              dup2\n              mstore\n                /* \"MultipleEntity.sol\":544:564  toReceiveIsConfirmed */\n              0x08\n                /* \"MultipleEntity.sol\":544:571  toReceiveIsConfirmed[index] */\n              0x20\n              mstore\n              0x40\n              swap1\n              keccak256\n                /* \"MultipleEntity.sol\":544:578  toReceiveIsConfirmed[index] = true */\n              dup1\n              sload\n              not(0xff)\n              and\n                /* \"MultipleEntity.sol\":574:578  true */\n              0x01\n                /* \"MultipleEntity.sol\":544:578  toReceiveIsConfirmed[index] = true */\n              or\n              swap1\n              sstore\n                /* \"MultipleEntity.sol\":479:589  if(approveToReceiveCount[index]*2 >= owners.length){... */\n            tag_334:\n                /* \"Entity.sol\":3331:3358  toReceiveIsConfirmed[index] */\n              0xffffffff\n              dup3\n              and\n              0x00\n              swap1\n              dup2\n              mstore\n                /* \"Entity.sol\":3331:3351  toReceiveIsConfirmed */\n              0x08\n                /* \"Entity.sol\":3331:3358  toReceiveIsConfirmed[index] */\n              0x20\n              mstore\n              0x40\n              swap1\n              keccak256\n              sload\n              0xff\n              and\n              dup1\n                /* \"Entity.sol\":3331:3370  toReceiveIsConfirmed[index] || isSingle */\n              tag_336\n              jumpi\n              pop\n                /* \"Entity.sol\":3362:3370  isSingle */\n              and(0xff, sload(0x00))\n                /* \"Entity.sol\":3331:3370  toReceiveIsConfirmed[index] || isSingle */\n            tag_336:\n                /* \"Entity.sol\":3328:3424  if(toReceiveIsConfirmed[index] || isSingle){... */\n              iszero\n              tag_338\n              jumpi\n                /* \"Entity.sol\":3385:3413  _approveDataToReceive(index) */\n              tag_338\n                /* \"Entity.sol\":3407:3412  index */\n              dup3\n                /* \"Entity.sol\":3385:3406  _approveDataToReceive */\n              tag_339\n                /* \"Entity.sol\":3385:3413  _approveDataToReceive(index) */\n              jump\t// in\n            tag_338:\n                /* \"MultipleEntity.sol\":246:247  _ */\n              pop\n                /* \"Entity.sol\":3202:3430  function approveDataToReceive(uint32 index)... */\n              pop\n              jump\t// out\n                /* \"Entity.sol\":3654:3810  function pendingDataToReceiveCount() ... */\n            tag_126:\n                /* \"Entity.sol\":3775:3795  pendingDataToReceive */\n              0x07\n                /* \"Entity.sol\":3775:3802  pendingDataToReceive.length */\n              sload\n                /* \"Entity.sol\":3654:3810  function pendingDataToReceiveCount() ... */\n              swap1\n              jump\t// out\n                /* \"MultipleEntity.sol\":1269:1432  function addOwner(address owner)... */\n            tag_129:\n                /* \"MultipleEntity.sol\":224:234  msg.sender */\n              caller\n                /* \"MultipleEntity.sol\":216:235  isOwner[msg.sender] */\n              0x00\n              swap1\n              dup2\n              mstore\n                /* \"MultipleEntity.sol\":216:223  isOwner */\n              0x0a\n                /* \"MultipleEntity.sol\":216:235  isOwner[msg.sender] */\n              0x20\n              mstore\n              0x40\n              swap1\n              keccak256\n              sload\n              0xff\n              and\n                /* \"MultipleEntity.sol\":208:236  require(isOwner[msg.sender]) */\n              tag_342\n              jumpi\n                /* \"--CODEGEN--\":12:13   */\n              0x00\n                /* \"--CODEGEN--\":9:10   */\n              dup1\n                /* \"--CODEGEN--\":2:14   */\n              revert\n                /* \"MultipleEntity.sol\":208:236  require(isOwner[msg.sender]) */\n            tag_342:\n                /* \"MultipleEntity.sol\":1355:1360  owner */\n              dup1\n              sub(shl(0xa0, 0x01), 0x01)\n                /* \"MultipleEntity.sol\":766:790  _address != address(0x0) */\n              dup2\n              and\n                /* \"MultipleEntity.sol\":758:791  require(_address != address(0x0)) */\n              tag_344\n              jumpi\n                /* \"--CODEGEN--\":12:13   */\n              0x00\n                /* \"--CODEGEN--\":9:10   */\n              dup1\n                /* \"--CODEGEN--\":2:14   */\n              revert\n                /* \"MultipleEntity.sol\":758:791  require(_address != address(0x0)) */\n            tag_344:\n              pop\n              sub(shl(0xa0, 0x01), 0x01)\n                /* \"MultipleEntity.sol\":1376:1390  isOwner[owner] */\n              and\n              0x00\n              dup2\n              dup2\n              mstore\n                /* \"MultipleEntity.sol\":1376:1383  isOwner */\n              0x0a\n                /* \"MultipleEntity.sol\":1376:1390  isOwner[owner] */\n              0x20\n              mstore\n              0x40\n              dup2\n              keccak256\n                /* \"MultipleEntity.sol\":1376:1397  isOwner[owner] = true */\n              dup1\n              sload\n              not(0xff)\n              and\n              0x01\n              swap1\n              dup2\n              or\n              swap1\n              swap2\n              sstore\n                /* \"MultipleEntity.sol\":1407:1413  owners */\n              0x0b\n                /* \"--CODEGEN--\":27:37   */\n              dup1\n              sload\n                /* \"--CODEGEN--\":23:41   */\n              swap2\n              dup3\n              add\n                /* \"--CODEGEN--\":45:68   */\n              dup2\n              sstore\n                /* \"MultipleEntity.sol\":1407:1425  owners.push(owner) */\n              swap1\n              swap2\n              mstore\n              0x0175b7a638427703f0dbe7bb9bbf987a2551717b34e79f33b5b1008d1fa01db9\n              add\n              dup1\n              sload\n              not(sub(shl(0xa0, 0x01), 0x01))\n              and\n              swap1\n              swap2\n              or\n              swap1\n              sstore\n                /* \"MultipleEntity.sol\":1269:1432  function addOwner(address owner)... */\n              jump\t// out\n                /* \"Entity.sol\":3820:3992  function dataSizeToReceive(uint32 index) ... */\n            tag_132:\n                /* \"Entity.sol\":3909:3915  uint32 */\n              0x00\n                /* \"Entity.sol\":3946:3966  pendingDataToReceive */\n              0x07\n                /* \"Entity.sol\":3967:3972  index */\n              dup3\n                /* \"Entity.sol\":3946:3973  pendingDataToReceive[index] */\n              0xffffffff\n              and\n              dup2\n              sload\n              dup2\n              lt\n              tag_348\n              jumpi\n              invalid\n            tag_348:\n              0x00\n              swap2\n              dup3\n              mstore\n              0x20\n              swap1\n              swap2\n              keccak256\n                /* \"Entity.sol\":3946:3977  pendingDataToReceive[index].key */\n              0x03\n                /* \"Entity.sol\":3946:3973  pendingDataToReceive[index] */\n              0x08\n              swap1\n              swap3\n              mul\n              add\n                /* \"Entity.sol\":3946:3977  pendingDataToReceive[index].key */\n              add\n                /* \"Entity.sol\":3946:3984  pendingDataToReceive[index].key.length */\n              sload\n              swap3\n                /* \"Entity.sol\":3820:3992  function dataSizeToReceive(uint32 index) ... */\n              swap2\n              pop\n              pop\n              jump\t// out\n                /* \"Entity.sol\":7119:7650  function approveDataToSend(uint32 index) ... */\n            tag_135:\n                /* \"MultipleEntity.sol\":224:234  msg.sender */\n              caller\n                /* \"MultipleEntity.sol\":216:235  isOwner[msg.sender] */\n              0x00\n              swap1\n              dup2\n              mstore\n                /* \"MultipleEntity.sol\":216:223  isOwner */\n              0x0a\n                /* \"MultipleEntity.sol\":216:235  isOwner[msg.sender] */\n              0x20\n              mstore\n              0x40\n              swap1\n              keccak256\n              sload\n              0xff\n              and\n                /* \"MultipleEntity.sol\":208:236  require(isOwner[msg.sender]) */\n              tag_351\n              jumpi\n                /* \"--CODEGEN--\":12:13   */\n              0x00\n                /* \"--CODEGEN--\":9:10   */\n              dup1\n                /* \"--CODEGEN--\":2:14   */\n              revert\n                /* \"MultipleEntity.sol\":208:236  require(isOwner[msg.sender]) */\n            tag_351:\n                /* \"Entity.sol\":7222:7239  pendingDataToSend */\n              0x09\n                /* \"Entity.sol\":7240:7245  index */\n              dup2\n                /* \"Entity.sol\":7222:7246  pendingDataToSend[index] */\n              0xffffffff\n              and\n              dup2\n              sload\n              dup2\n              lt\n              tag_353\n              jumpi\n              invalid\n            tag_353:\n              0x00\n              swap2\n              dup3\n              mstore\n              0x20\n              swap1\n              swap2\n              keccak256\n                /* \"Entity.sol\":7222:7255  pendingDataToSend[index].approved */\n              0x07\n                /* \"Entity.sol\":7222:7246  pendingDataToSend[index] */\n              0x08\n              swap1\n              swap3\n              mul\n              add\n                /* \"Entity.sol\":7222:7255  pendingDataToSend[index].approved */\n              add\n              sload\n              0xff\n              and\n                /* \"Entity.sol\":7221:7255  !pendingDataToSend[index].approved */\n              iszero\n                /* \"Entity.sol\":7213:7256  require(!pendingDataToSend[index].approved) */\n              tag_355\n              jumpi\n                /* \"--CODEGEN--\":12:13   */\n              0x00\n                /* \"--CODEGEN--\":9:10   */\n              dup1\n                /* \"--CODEGEN--\":2:14   */\n              revert\n                /* \"Entity.sol\":7213:7256  require(!pendingDataToSend[index].approved) */\n            tag_355:\n                /* \"Entity.sol\":7266:7281  Entity receiver */\n              0x00\n                /* \"Entity.sol\":7291:7308  pendingDataToSend */\n              0x09\n                /* \"Entity.sol\":7309:7314  index */\n              dup3\n                /* \"Entity.sol\":7291:7315  pendingDataToSend[index] */\n              0xffffffff\n              and\n              dup2\n              sload\n              dup2\n              lt\n              tag_356\n              jumpi\n              invalid\n            tag_356:\n              0x00\n              swap2\n              dup3\n              mstore\n              0x20\n              dup3\n              keccak256\n              0x08\n              swap2\n              swap1\n              swap2\n              mul\n              add\n                /* \"Entity.sol\":7291:7327  pendingDataToSend[index].destination */\n              0x01\n              add\n              sload\n                /* \"Entity.sol\":7369:7386  pendingDataToSend */\n              0x09\n                /* \"Entity.sol\":7369:7393  pendingDataToSend[index] */\n              dup1\n              sload\n              sub(shl(0xa0, 0x01), 0x01)\n                /* \"Entity.sol\":7291:7327  pendingDataToSend[index].destination */\n              swap1\n              swap3\n              and\n              swap4\n              pop\n              dup4\n              swap2\n                /* \"Entity.sol\":7351:7368  receiver._newData */\n              0xc09bc35b\n              swap2\n                /* \"Entity.sol\":7369:7386  pendingDataToSend */\n              swap1\n                /* \"Entity.sol\":7369:7393  pendingDataToSend[index] */\n              0xffffffff\n              dup8\n              and\n              swap1\n              dup2\n              lt\n              tag_358\n              jumpi\n              invalid\n            tag_358:\n              0x00\n              swap2\n              dup3\n              mstore\n              0x20\n              swap2\n              dup3\n              swap1\n              keccak256\n                /* \"Entity.sol\":7351:7406  receiver._newData(pendingDataToSend[index].description) */\n              mload(0x40)\n              not(sub(shl(0xe0, 0x01), 0x01))\n              0xe0\n              dup7\n              swap1\n              shl\n              and\n              dup2\n              mstore\n              0x04\n              dup2\n              add\n              swap4\n              dup5\n              mstore\n                /* \"Entity.sol\":7369:7405  pendingDataToSend[index].description */\n              0x02\n                /* \"Entity.sol\":7369:7393  pendingDataToSend[index] */\n              0x08\n              swap4\n              swap1\n              swap4\n              mul\n              swap1\n              swap2\n              add\n                /* \"Entity.sol\":7369:7405  pendingDataToSend[index].description */\n              dup3\n              add\n                /* \"Entity.sol\":7351:7406  receiver._newData(pendingDataToSend[index].description) */\n              dup1\n              sload\n              not(0x00)\n              0x0100\n              0x01\n              dup4\n              and\n              iszero\n              mul\n              add\n              and\n              swap3\n              swap1\n              swap3\n              div\n              0x24\n              dup3\n              add\n              dup2\n              swap1\n              mstore\n                /* \"Entity.sol\":7369:7405  pendingDataToSend[index].description */\n              swap2\n              swap3\n                /* \"Entity.sol\":7351:7406  receiver._newData(pendingDataToSend[index].description) */\n              swap2\n              dup3\n              swap2\n              0x44\n              add\n              swap1\n                /* \"Entity.sol\":7369:7405  pendingDataToSend[index].description */\n              dup5\n              swap1\n                /* \"Entity.sol\":7351:7406  receiver._newData(pendingDataToSend[index].description) */\n              dup1\n              iszero\n              tag_360\n              jumpi\n              dup1\n              0x1f\n              lt\n              tag_361\n              jumpi\n              0x0100\n              dup1\n              dup4\n              sload\n              div\n              mul\n              dup4\n              mstore\n              swap2\n              0x20\n              add\n              swap2\n              jump(tag_360)\n            tag_361:\n              dup3\n              add\n              swap2\n              swap1\n              0x00\n              mstore\n              keccak256(0x00, 0x20)\n              swap1\n            tag_362:\n              dup2\n              sload\n              dup2\n              mstore\n              swap1\n              0x01\n              add\n              swap1\n              0x20\n              add\n              dup1\n              dup4\n              gt\n              tag_362\n              jumpi\n              dup3\n              swap1\n              sub\n              0x1f\n              and\n              dup3\n              add\n              swap2\n            tag_360:\n              pop\n              pop\n              swap3\n              pop\n              pop\n              pop\n              0x20\n              mload(0x40)\n              dup1\n              dup4\n              sub\n              dup2\n              0x00\n              dup8\n              dup1\n              extcodesize\n              iszero\n                /* \"--CODEGEN--\":5:14   */\n              dup1\n                /* \"--CODEGEN--\":2:4   */\n              iszero\n              tag_363\n              jumpi\n                /* \"--CODEGEN--\":27:28   */\n              0x00\n                /* \"--CODEGEN--\":24:25   */\n              dup1\n                /* \"--CODEGEN--\":17:29   */\n              revert\n                /* \"--CODEGEN--\":2:4   */\n            tag_363:\n                /* \"Entity.sol\":7351:7406  receiver._newData(pendingDataToSend[index].description) */\n              pop\n              gas\n              call\n              iszero\n                /* \"--CODEGEN--\":8:17   */\n              dup1\n                /* \"--CODEGEN--\":5:7   */\n              iszero\n              tag_365\n              jumpi\n                /* \"--CODEGEN--\":45:61   */\n              returndatasize\n                /* \"--CODEGEN--\":42:43   */\n              0x00\n                /* \"--CODEGEN--\":39:40   */\n              dup1\n                /* \"--CODEGEN--\":24:62   */\n              returndatacopy\n                /* \"--CODEGEN--\":77:93   */\n              returndatasize\n                /* \"--CODEGEN--\":74:75   */\n              0x00\n                /* \"--CODEGEN--\":67:94   */\n              revert\n                /* \"--CODEGEN--\":5:7   */\n            tag_365:\n                /* \"Entity.sol\":7351:7406  receiver._newData(pendingDataToSend[index].description) */\n              pop\n              pop\n              pop\n              pop\n              mload(0x40)\n              returndatasize\n                /* \"--CODEGEN--\":15:17   */\n              0x20\n                /* \"--CODEGEN--\":10:13   */\n              dup2\n                /* \"--CODEGEN--\":7:18   */\n              lt\n                /* \"--CODEGEN--\":4:6   */\n              iszero\n              tag_366\n              jumpi\n                /* \"--CODEGEN--\":31:32   */\n              0x00\n                /* \"--CODEGEN--\":28:29   */\n              dup1\n                /* \"--CODEGEN--\":21:33   */\n              revert\n                /* \"--CODEGEN--\":4:6   */\n            tag_366:\n              pop\n                /* \"Entity.sol\":7351:7406  receiver._newData(pendingDataToSend[index].description) */\n              mload\n              swap1\n              pop\n                /* \"Entity.sol\":7420:7428  uint32 i */\n              0x00\n                /* \"Entity.sol\":7416:7594  for(uint32 i=0; i<pendingDataToSend[index].key.length; i++){... */\n            tag_367:\n                /* \"Entity.sol\":7434:7451  pendingDataToSend */\n              0x09\n                /* \"Entity.sol\":7452:7457  index */\n              dup5\n                /* \"Entity.sol\":7434:7458  pendingDataToSend[index] */\n              0xffffffff\n              and\n              dup2\n              sload\n              dup2\n              lt\n              tag_370\n              jumpi\n              invalid\n            tag_370:\n              swap1\n              0x00\n              mstore\n              keccak256(0x00, 0x20)\n              swap1\n              0x08\n              mul\n              add\n                /* \"Entity.sol\":7434:7462  pendingDataToSend[index].key */\n              0x03\n              add\n                /* \"Entity.sol\":7434:7469  pendingDataToSend[index].key.length */\n              dup1\n              sload\n              swap1\n              pop\n                /* \"Entity.sol\":7432:7433  i */\n              dup2\n                /* \"Entity.sol\":7432:7469  i<pendingDataToSend[index].key.length */\n              0xffffffff\n              and\n              lt\n                /* \"Entity.sol\":7416:7594  for(uint32 i=0; i<pendingDataToSend[index].key.length; i++){... */\n              iszero\n              tag_368\n              jumpi\n                /* \"Entity.sol\":7511:7528  pendingDataToSend */\n              0x09\n                /* \"Entity.sol\":7511:7535  pendingDataToSend[index] */\n              dup1\n              sload\n              sub(shl(0xa0, 0x01), 0x01)\n                /* \"Entity.sol\":7489:7510  receiver._receiveData */\n              dup6\n              and\n              swap2\n              0x928ec3e5\n              swap2\n                /* \"Entity.sol\":7511:7535  pendingDataToSend[index] */\n              0xffffffff\n              dup9\n              and\n              swap1\n              dup2\n              lt\n              tag_372\n              jumpi\n              invalid\n            tag_372:\n              swap1\n              0x00\n              mstore\n              keccak256(0x00, 0x20)\n              swap1\n              0x08\n              mul\n              add\n                /* \"Entity.sol\":7511:7539  pendingDataToSend[index].key */\n              0x03\n              add\n                /* \"Entity.sol\":7540:7541  i */\n              dup4\n                /* \"Entity.sol\":7511:7542  pendingDataToSend[index].key[i] */\n              0xffffffff\n              and\n              dup2\n              sload\n              dup2\n              lt\n              tag_374\n              jumpi\n              invalid\n            tag_374:\n              swap1\n              0x00\n              mstore\n              keccak256(0x00, 0x20)\n              add\n                /* \"Entity.sol\":7544:7561  pendingDataToSend */\n              0x09\n                /* \"Entity.sol\":7562:7567  index */\n              dup8\n                /* \"Entity.sol\":7544:7568  pendingDataToSend[index] */\n              0xffffffff\n              and\n              dup2\n              sload\n              dup2\n              lt\n              tag_376\n              jumpi\n              invalid\n            tag_376:\n              swap1\n              0x00\n              mstore\n              keccak256(0x00, 0x20)\n              swap1\n              0x08\n              mul\n              add\n                /* \"Entity.sol\":7544:7574  pendingDataToSend[index].value */\n              0x06\n              add\n                /* \"Entity.sol\":7575:7576  i */\n              dup5\n                /* \"Entity.sol\":7544:7577  pendingDataToSend[index].value[i] */\n              0xffffffff\n              and\n              dup2\n              sload\n              dup2\n              lt\n              tag_378\n              jumpi\n              invalid\n            tag_378:\n              0x00\n              swap2\n              dup3\n              mstore\n              0x20\n              swap1\n              swap2\n              keccak256\n                /* \"Entity.sol\":7489:7583  receiver._receiveData(pendingDataToSend[index].key[i], pendingDataToSend[index].value[i], idx) */\n              mload(0x40)\n              0xe0\n              dup6\n              swap1\n              shl\n              not(sub(shl(0xe0, 0x01), 0x01))\n              and\n              dup2\n              mstore\n              0xffffffff\n              dup9\n              and\n              0x44\n              dup3\n              add\n              mstore\n              0x60\n              0x04\n              dup3\n              add\n              swap1\n              dup2\n              mstore\n              dup5\n              sload\n              0x02\n              0x01\n              dup3\n              and\n              iszero\n              0x0100\n              mul\n              not(0x00)\n              add\n              swap1\n              swap2\n              and\n              div\n              0x64\n              dup4\n              add\n              dup2\n              swap1\n              mstore\n                /* \"Entity.sol\":7544:7577  pendingDataToSend[index].value[i] */\n              swap3\n              swap1\n              swap4\n              add\n              swap3\n                /* \"Entity.sol\":7489:7583  receiver._receiveData(pendingDataToSend[index].key[i], pendingDataToSend[index].value[i], idx) */\n              dup9\n              swap3\n              swap1\n              swap2\n              dup3\n              swap2\n              0x24\n              dup3\n              add\n              swap2\n              0x84\n              add\n              swap1\n              dup8\n              swap1\n              dup1\n              iszero\n              tag_380\n              jumpi\n              dup1\n              0x1f\n              lt\n              tag_381\n              jumpi\n              0x0100\n              dup1\n              dup4\n              sload\n              div\n              mul\n              dup4\n              mstore\n              swap2\n              0x20\n              add\n              swap2\n              jump(tag_380)\n            tag_381:\n              dup3\n              add\n              swap2\n              swap1\n              0x00\n              mstore\n              keccak256(0x00, 0x20)\n              swap1\n            tag_382:\n              dup2\n              sload\n              dup2\n              mstore\n              swap1\n              0x01\n              add\n              swap1\n              0x20\n              add\n              dup1\n              dup4\n              gt\n              tag_382\n              jumpi\n              dup3\n              swap1\n              sub\n              0x1f\n              and\n              dup3\n              add\n              swap2\n            tag_380:\n              pop\n              pop\n              dup4\n              dup2\n              sub\n              dup3\n              mstore\n              dup6\n              sload\n              0x02\n              0x01\n              dup3\n              and\n              iszero\n              0x0100\n              mul\n              not(0x00)\n              add\n              swap1\n              swap2\n              and\n              div\n              dup1\n              dup3\n              mstore\n              0x20\n              swap1\n              swap2\n              add\n              swap1\n              dup7\n              swap1\n              dup1\n              iszero\n              tag_383\n              jumpi\n              dup1\n              0x1f\n              lt\n              tag_384\n              jumpi\n              0x0100\n              dup1\n              dup4\n              sload\n              div\n              mul\n              dup4\n              mstore\n              swap2\n              0x20\n              add\n              swap2\n              jump(tag_383)\n            tag_384:\n              dup3\n              add\n              swap2\n              swap1\n              0x00\n              mstore\n              keccak256(0x00, 0x20)\n              swap1\n            tag_385:\n              dup2\n              sload\n              dup2\n              mstore\n              swap1\n              0x01\n              add\n              swap1\n              0x20\n              add\n              dup1\n              dup4\n              gt\n              tag_385\n              jumpi\n              dup3\n              swap1\n              sub\n              0x1f\n              and\n              dup3\n              add\n              swap2\n            tag_383:\n              pop\n              pop\n              swap6\n              pop\n              pop\n              pop\n              pop\n              pop\n              pop\n              0x00\n              mload(0x40)\n              dup1\n              dup4\n              sub\n              dup2\n              0x00\n              dup8\n              dup1\n              extcodesize\n              iszero\n                /* \"--CODEGEN--\":5:14   */\n              dup1\n                /* \"--CODEGEN--\":2:4   */\n              iszero\n              tag_386\n              jumpi\n                /* \"--CODEGEN--\":27:28   */\n              0x00\n                /* \"--CODEGEN--\":24:25   */\n              dup1\n                /* \"--CODEGEN--\":17:29   */\n              revert\n                /* \"--CODEGEN--\":2:4   */\n            tag_386:\n                /* \"Entity.sol\":7489:7583  receiver._receiveData(pendingDataToSend[index].key[i], pendingDataToSend[index].value[i], idx) */\n              pop\n              gas\n              call\n              iszero\n                /* \"--CODEGEN--\":8:17   */\n              dup1\n                /* \"--CODEGEN--\":5:7   */\n              iszero\n              tag_388\n              jumpi\n                /* \"--CODEGEN--\":45:61   */\n              returndatasize\n                /* \"--CODEGEN--\":42:43   */\n              0x00\n                /* \"--CODEGEN--\":39:40   */\n              dup1\n                /* \"--CODEGEN--\":24:62   */\n              returndatacopy\n                /* \"--CODEGEN--\":77:93   */\n              returndatasize\n                /* \"--CODEGEN--\":74:75   */\n              0x00\n                /* \"--CODEGEN--\":67:94   */\n              revert\n                /* \"--CODEGEN--\":5:7   */\n            tag_388:\n              pop\n              pop\n                /* \"Entity.sol\":7471:7474  i++ */\n              0x01\n              swap1\n              swap3\n              add\n              swap2\n              pop\n                /* \"Entity.sol\":7416:7594  for(uint32 i=0; i<pendingDataToSend[index].key.length; i++){... */\n              tag_367\n              swap1\n              pop\n              jump\n            tag_368:\n              pop\n                /* \"Entity.sol\":7639:7643  true */\n              0x01\n                /* \"Entity.sol\":7603:7620  pendingDataToSend */\n              0x09\n                /* \"Entity.sol\":7621:7626  index */\n              dup5\n                /* \"Entity.sol\":7603:7627  pendingDataToSend[index] */\n              0xffffffff\n              and\n              dup2\n              sload\n              dup2\n              lt\n              tag_389\n              jumpi\n              invalid\n            tag_389:\n              0x00\n              swap2\n              dup3\n              mstore\n              0x20\n              swap1\n              swap2\n              keccak256\n              0x08\n              swap1\n              swap2\n              mul\n              add\n                /* \"Entity.sol\":7603:7636  pendingDataToSend[index].approved */\n              0x07\n              add\n                /* \"Entity.sol\":7603:7643  pendingDataToSend[index].approved = true */\n              dup1\n              sload\n              not(0xff)\n              and\n              swap2\n              iszero\n              iszero\n              swap2\n              swap1\n              swap2\n              or\n              swap1\n              sstore\n              pop\n              pop\n              pop\n                /* \"Entity.sol\":7119:7650  function approveDataToSend(uint32 index) ... */\n              jump\t// out\n                /* \"Entity.sol\":710:746  bool constant public isEntity = true */\n            tag_137:\n                /* \"Entity.sol\":742:746  true */\n              0x01\n                /* \"Entity.sol\":710:746  bool constant public isEntity = true */\n              dup2\n              jump\t// out\n                /* \"Entity.sol\":4296:5857  function newDataToSend(address _receiver, string memory _description, string memory _key, string memory _value, bool direct) ... */\n            tag_149:\n                /* \"MultipleEntity.sol\":224:234  msg.sender */\n              caller\n                /* \"MultipleEntity.sol\":216:235  isOwner[msg.sender] */\n              0x00\n              swap1\n              dup2\n              mstore\n                /* \"MultipleEntity.sol\":216:223  isOwner */\n              0x0a\n                /* \"MultipleEntity.sol\":216:235  isOwner[msg.sender] */\n              0x20\n              mstore\n              0x40\n              swap1\n              keccak256\n              sload\n              0xff\n              and\n                /* \"MultipleEntity.sol\":208:236  require(isOwner[msg.sender]) */\n              tag_392\n              jumpi\n                /* \"--CODEGEN--\":12:13   */\n              0x00\n                /* \"--CODEGEN--\":9:10   */\n              dup1\n                /* \"--CODEGEN--\":2:14   */\n              revert\n                /* \"MultipleEntity.sol\":208:236  require(isOwner[msg.sender]) */\n            tag_392:\n                /* \"Entity.sol\":4511:4530  newData.destination */\n              0x01\n                /* \"Entity.sol\":4511:4542  newData.destination = _receiver */\n              dup1\n              sload\n              not(sub(shl(0xa0, 0x01), 0x01))\n              and\n              sub(shl(0xa0, 0x01), 0x01)\n              dup8\n              and\n              or\n              swap1\n              sstore\n                /* \"Entity.sol\":4552:4586  newData.description = _description */\n              dup4\n              mload\n              0x00\n              swap1\n              tag_394\n              swap1\n                /* \"Entity.sol\":4552:4571  newData.description */\n              0x02\n              swap1\n                /* \"Entity.sol\":4552:4586  newData.description = _description */\n              0x20\n              dup9\n              add\n              swap1\n              tag_395\n              jump\t// in\n            tag_394:\n              pop\n                /* \"Entity.sol\":4596:4612  newData.approved */\n              0x07\n              dup2\n              add\n                /* \"Entity.sol\":4596:4620  newData.approved = false */\n              dup1\n              sload\n              not(0xff)\n              and\n              swap1\n              sstore\n                /* \"Entity.sol\":4630:4647  pendingDataToSend */\n              0x09\n                /* \"--CODEGEN--\":27:37   */\n              dup1\n              sload\n              0x01\n                /* \"--CODEGEN--\":23:41   */\n              dup2\n              dup2\n              add\n                /* \"--CODEGEN--\":45:68   */\n              dup4\n              sstore\n              0x00\n                /* \"Entity.sol\":4630:4661  pendingDataToSend.push(newData) */\n              swap3\n              swap1\n              swap3\n              mstore\n              dup3\n              sload\n              0x08\n              swap1\n              swap2\n              mul\n              0x6e1540171b6c0c960b71a7020d9f60077f6af931a8bbf590da0223dacf75c7af\n              dup2\n              add\n              dup1\n              sload\n              not(sub(shl(0xa0, 0x01), 0x01))\n              swap1\n              dup2\n              and\n              sub(shl(0xa0, 0x01), 0x01)\n              swap5\n              dup6\n              and\n              or\n              dup3\n              sstore\n              dup5\n              dup7\n              add\n              sload\n              0x6e1540171b6c0c960b71a7020d9f60077f6af931a8bbf590da0223dacf75c7b0\n              dup5\n              add\n              dup1\n              sload\n              swap1\n              swap3\n              and\n              swap5\n              and\n              swap4\n              swap1\n              swap4\n              or\n              swap1\n              swap3\n              sstore\n              0x02\n              dup1\n              dup6\n              add\n              dup1\n              sload\n                /* \"Entity.sol\":4596:4612  newData.approved */\n              dup7\n              swap6\n                /* \"Entity.sol\":4630:4661  pendingDataToSend.push(newData) */\n              tag_397\n              swap5\n              0x6e1540171b6c0c960b71a7020d9f60077f6af931a8bbf590da0223dacf75c7b1\n              add\n              swap4\n              swap1\n              dup3\n              and\n              iszero\n                /* \"Entity.sol\":4596:4620  newData.approved = false */\n              0x0100\n                /* \"Entity.sol\":4630:4661  pendingDataToSend.push(newData) */\n              mul\n              not(0x00)\n              add\n              swap1\n              swap2\n              and\n              div\n              tag_398\n              jump\t// in\n            tag_397:\n              pop\n              0x03\n              dup3\n              dup2\n              add\n              dup1\n              sload\n              tag_399\n              swap3\n              dup5\n              add\n              swap2\n              swap1\n              tag_400\n              jump\t// in\n            tag_399:\n              pop\n              0x06\n              dup3\n              dup2\n              add\n              dup1\n              sload\n              tag_401\n              swap3\n              dup5\n              add\n              swap2\n              swap1\n              tag_400\n              jump\t// in\n            tag_401:\n              pop\n              0x07\n              swap2\n              dup3\n              add\n              sload\n              swap2\n              add\n              dup1\n              sload\n              not(0xff)\n              and\n              0xff\n              swap1\n              swap3\n              and\n              iszero\n              iszero\n              swap2\n              swap1\n              swap2\n              or\n              swap1\n              sstore\n                /* \"Entity.sol\":4710:4727  pendingDataToSend */\n              0x09\n                /* \"Entity.sol\":4710:4734  pendingDataToSend.length */\n              sload\n              sub(shl(0xa0, 0x01), 0x01)\n                /* \"Entity.sol\":4671:4700  recentSendingIndex[_receiver] */\n              dup8\n              and\n              0x00\n              swap1\n              dup2\n              mstore\n              mstore(0x20, 0x01)\n              0x40\n              swap1\n              keccak256\n                /* \"Entity.sol\":4671:4739  recentSendingIndex[_receiver] = uint32(pendingDataToSend.length - 1) */\n              dup1\n              sload\n              not(0xffffffff)\n              and\n              0xffffffff\n              not(0x00)\n                /* \"Entity.sol\":4710:4738  pendingDataToSend.length - 1 */\n              swap1\n              swap4\n              add\n                /* \"Entity.sol\":4671:4739  recentSendingIndex[_receiver] = uint32(pendingDataToSend.length - 1) */\n              swap3\n              swap1\n              swap3\n              and\n              swap2\n              swap1\n              swap2\n              or\n              swap1\n              sstore\n                /* \"Entity.sol\":4750:4775  strings.slice memory keys */\n              tag_402\n              tag_403\n              jump\t// in\n            tag_402:\n                /* \"Entity.sol\":4778:4792  _key.toSlice() */\n              tag_404\n                /* \"Entity.sol\":4778:4782  _key */\n              dup6\n                /* \"Entity.sol\":4778:4790  _key.toSlice */\n              tag_405\n                /* \"Entity.sol\":4778:4792  _key.toSlice() */\n              jump\t// in\n            tag_404:\n                /* \"Entity.sol\":4750:4792  strings.slice memory keys = _key.toSlice() */\n              swap1\n              pop\n                /* \"Entity.sol\":4802:4829  strings.slice memory values */\n              tag_406\n              tag_403\n              jump\t// in\n            tag_406:\n                /* \"Entity.sol\":4832:4848  _value.toSlice() */\n              tag_407\n                /* \"Entity.sol\":4832:4838  _value */\n              dup6\n                /* \"Entity.sol\":4832:4846  _value.toSlice */\n              tag_405\n                /* \"Entity.sol\":4832:4848  _value.toSlice() */\n              jump\t// in\n            tag_407:\n                /* \"Entity.sol\":4802:4848  strings.slice memory values = _value.toSlice() */\n              swap1\n              pop\n                /* \"Entity.sol\":4858:4885  strings.slice memory deKeys */\n              tag_408\n              tag_403\n              jump\t// in\n            tag_408:\n                /* \"Entity.sol\":4888:4899  \",\".toSlice */\n              0x40\n              dup1\n              mload\n              dup1\n              dup3\n              add\n              swap1\n              swap2\n              mstore\n              0x01\n              dup2\n              mstore\n              shl(0xfa, 0x0b)\n              0x20\n              dup3\n              add\n              mstore\n                /* \"Entity.sol\":4888:4901  \",\".toSlice() */\n              tag_409\n              swap1\n                /* \"Entity.sol\":4888:4899  \",\".toSlice */\n              tag_405\n                /* \"Entity.sol\":4888:4901  \",\".toSlice() */\n              jump\t// in\n            tag_409:\n                /* \"Entity.sol\":4858:4901  strings.slice memory deKeys = \",\".toSlice() */\n              swap1\n              pop\n                /* \"Entity.sol\":5055:5067  uint32 count */\n              0x00\n                /* \"Entity.sol\":5077:5095  keys.count(deKeys) */\n              tag_410\n                /* \"Entity.sol\":5077:5081  keys */\n              dup5\n                /* \"Entity.sol\":4858:4901  strings.slice memory deKeys = \",\".toSlice() */\n              dup4\n                /* \"Entity.sol\":5077:5095  keys.count(deKeys) */\n              0xffffffff\n                /* \"Entity.sol\":5077:5087  keys.count */\n              tag_411\n                /* \"Entity.sol\":5077:5095  keys.count(deKeys) */\n              and\n              jump\t// in\n            tag_410:\n                /* \"Entity.sol\":5096:5097  1 */\n              0x01\n                /* \"Entity.sol\":5077:5097  keys.count(deKeys)+1 */\n              add\n              swap1\n              pop\n                /* \"Entity.sol\":5112:5120  uint32 i */\n              0x00\n                /* \"Entity.sol\":5108:5762  for(uint32 i=0; i<count; i++){... */\n            tag_412:\n                /* \"Entity.sol\":5126:5131  count */\n              dup2\n                /* \"Entity.sol\":5124:5131  i<count */\n              0xffffffff\n              and\n                /* \"Entity.sol\":5124:5125  i */\n              dup2\n                /* \"Entity.sol\":5124:5131  i<count */\n              0xffffffff\n              and\n              lt\n                /* \"Entity.sol\":5108:5762  for(uint32 i=0; i<count; i++){... */\n              iszero\n              tag_413\n              jumpi\n                /* \"Entity.sol\":5151:5171  string memory addKey */\n              0x60\n                /* \"Entity.sol\":5174:5203  keys.split(deKeys).toString() */\n              tag_415\n                /* \"Entity.sol\":5174:5192  keys.split(deKeys) */\n              tag_416\n                /* \"Entity.sol\":5174:5178  keys */\n              dup8\n                /* \"Entity.sol\":5185:5191  deKeys */\n              dup7\n                /* \"Entity.sol\":5174:5192  keys.split(deKeys) */\n              0xffffffff\n                /* \"Entity.sol\":5174:5184  keys.split */\n              tag_417\n                /* \"Entity.sol\":5174:5192  keys.split(deKeys) */\n              and\n              jump\t// in\n            tag_416:\n                /* \"Entity.sol\":5174:5201  keys.split(deKeys).toString */\n              tag_418\n                /* \"Entity.sol\":5174:5203  keys.split(deKeys).toString() */\n              jump\t// in\n            tag_415:\n                /* \"Entity.sol\":5151:5203  string memory addKey = keys.split(deKeys).toString() */\n              swap1\n              pop\n                /* \"Entity.sol\":5217:5239  string memory addValue */\n              0x60\n                /* \"Entity.sol\":5242:5273  values.split(deKeys).toString() */\n              tag_419\n                /* \"Entity.sol\":5242:5262  values.split(deKeys) */\n              tag_416\n                /* \"Entity.sol\":5242:5248  values */\n              dup8\n                /* \"Entity.sol\":5255:5261  deKeys */\n              dup8\n                /* \"Entity.sol\":5242:5262  values.split(deKeys) */\n              0xffffffff\n                /* \"Entity.sol\":5242:5254  values.split */\n              tag_417\n                /* \"Entity.sol\":5242:5262  values.split(deKeys) */\n              and\n              jump\t// in\n                /* \"Entity.sol\":5242:5273  values.split(deKeys).toString() */\n            tag_419:\n                /* \"Entity.sol\":5217:5273  string memory addValue = values.split(deKeys).toString() */\n              swap1\n              pop\n                /* \"Entity.sol\":5291:5298  newData */\n              dup8\n                /* \"Entity.sol\":5291:5311  newData.keyExistence */\n              0x04\n              add\n                /* \"Entity.sol\":5312:5318  addKey */\n              dup3\n                /* \"Entity.sol\":5291:5319  newData.keyExistence[addKey] */\n              mload(0x40)\n              dup1\n              dup3\n              dup1\n              mload\n              swap1\n              0x20\n              add\n              swap1\n              dup1\n              dup4\n              dup4\n                /* \"--CODEGEN--\":36:189   */\n            tag_421:\n                /* \"--CODEGEN--\":66:68   */\n              0x20\n                /* \"--CODEGEN--\":61:64   */\n              dup4\n                /* \"--CODEGEN--\":58:69   */\n              lt\n                /* \"--CODEGEN--\":36:189   */\n              tag_423\n              jumpi\n                /* \"--CODEGEN--\":176:186   */\n              dup1\n              mload\n                /* \"--CODEGEN--\":164:187   */\n              dup3\n              mstore\n              not(0x1f)\n                /* \"--CODEGEN--\":139:151   */\n              swap1\n              swap3\n              add\n              swap2\n                /* \"--CODEGEN--\":98:100   */\n              0x20\n                /* \"--CODEGEN--\":89:101   */\n              swap2\n              dup3\n              add\n              swap2\n                /* \"--CODEGEN--\":114:126   */\n              add\n                /* \"--CODEGEN--\":36:189   */\n              jump(tag_421)\n            tag_423:\n                /* \"--CODEGEN--\":299:309   */\n              mload\n                /* \"--CODEGEN--\":344:354   */\n              dup2\n              mload\n                /* \"--CODEGEN--\":263:265   */\n              0x20\n                /* \"--CODEGEN--\":259:271   */\n              swap4\n              dup5\n              sub\n                /* \"--CODEGEN--\":254:257   */\n              0x0100\n                /* \"--CODEGEN--\":250:272   */\n              exp\n              not(0x00)\n                /* \"--CODEGEN--\":246:276   */\n              add\n                /* \"--CODEGEN--\":311:320   */\n              dup1\n              not\n                /* \"--CODEGEN--\":295:321   */\n              swap1\n              swap3\n              and\n                /* \"--CODEGEN--\":340:361   */\n              swap2\n              and\n                /* \"--CODEGEN--\":377:397   */\n              or\n                /* \"--CODEGEN--\":365:398   */\n              swap1\n              mstore\n                /* \"Entity.sol\":5291:5319  newData.keyExistence[addKey] */\n              swap3\n              add\n              swap5\n              dup6\n              mstore\n              pop\n              mload(0x40)\n              swap4\n              dup5\n              swap1\n              sub\n              add\n              swap1\n              swap3\n              keccak256\n              sload\n              0xff\n              and\n              swap2\n              pop\n                /* \"Entity.sol\":5287:5623  if(!newData.keyExistence[addKey]){... */\n              tag_424\n              swap1\n              pop\n              jumpi\n                /* \"Entity.sol\":5338:5349  newData.key */\n              0x03\n              dup9\n              add\n                /* \"--CODEGEN--\":27:37   */\n              dup1\n              sload\n                /* \"--CODEGEN--\":39:40   */\n              0x01\n                /* \"--CODEGEN--\":23:41   */\n              dup2\n              add\n                /* \"--CODEGEN--\":45:68   */\n              dup3\n              sstore\n              0x00\n                /* \"Entity.sol\":5338:5362  newData.key.push(addKey) */\n              swap2\n              dup3\n              mstore\n              0x20\n              swap2\n              dup3\n              swap1\n              keccak256\n              dup5\n              mload\n              tag_426\n              swap4\n              swap2\n              swap1\n              swap3\n              add\n              swap2\n              swap1\n              dup6\n              add\n              swap1\n              tag_395\n              jump\t// in\n            tag_426:\n              pop\n                /* \"Entity.sol\":5411:5415  true */\n              0x01\n                /* \"Entity.sol\":5380:5387  newData */\n              dup9\n                /* \"Entity.sol\":5380:5400  newData.keyExistence */\n              0x04\n              add\n                /* \"Entity.sol\":5401:5407  addKey */\n              dup4\n                /* \"Entity.sol\":5380:5408  newData.keyExistence[addKey] */\n              mload(0x40)\n              dup1\n              dup3\n              dup1\n              mload\n              swap1\n              0x20\n              add\n              swap1\n              dup1\n              dup4\n              dup4\n                /* \"--CODEGEN--\":36:189   */\n            tag_427:\n                /* \"--CODEGEN--\":66:68   */\n              0x20\n                /* \"--CODEGEN--\":61:64   */\n              dup4\n                /* \"--CODEGEN--\":58:69   */\n              lt\n                /* \"--CODEGEN--\":36:189   */\n              tag_429\n              jumpi\n                /* \"--CODEGEN--\":176:186   */\n              dup1\n              mload\n                /* \"--CODEGEN--\":164:187   */\n              dup3\n              mstore\n              not(0x1f)\n                /* \"--CODEGEN--\":139:151   */\n              swap1\n              swap3\n              add\n              swap2\n                /* \"--CODEGEN--\":98:100   */\n              0x20\n                /* \"--CODEGEN--\":89:101   */\n              swap2\n              dup3\n              add\n              swap2\n                /* \"--CODEGEN--\":114:126   */\n              add\n                /* \"--CODEGEN--\":36:189   */\n              jump(tag_427)\n            tag_429:\n                /* \"--CODEGEN--\":299:309   */\n              mload\n                /* \"--CODEGEN--\":344:354   */\n              dup2\n              mload\n                /* \"--CODEGEN--\":263:265   */\n              0x20\n                /* \"--CODEGEN--\":259:271   */\n              swap4\n              dup5\n              sub\n                /* \"--CODEGEN--\":254:257   */\n              0x0100\n                /* \"--CODEGEN--\":250:272   */\n              exp\n              not(0x00)\n                /* \"--CODEGEN--\":246:276   */\n              add\n                /* \"--CODEGEN--\":311:320   */\n              dup1\n              not\n                /* \"--CODEGEN--\":295:321   */\n              swap1\n              swap3\n              and\n                /* \"--CODEGEN--\":340:361   */\n              swap2\n              and\n                /* \"--CODEGEN--\":377:397   */\n              or\n                /* \"--CODEGEN--\":365:398   */\n              swap1\n              mstore\n                /* \"Entity.sol\":5380:5408  newData.keyExistence[addKey] */\n              swap3\n              add\n              swap5\n              dup6\n              mstore\n              pop\n              mload(0x40)\n              swap4\n              dup5\n              swap1\n              sub\n              dup2\n              add\n              dup5\n              keccak256\n                /* \"Entity.sol\":5380:5415  newData.keyExistence[addKey] = true */\n              dup1\n              sload\n              not(0xff)\n              and\n              swap6\n              iszero\n              iszero\n              swap6\n              swap1\n              swap6\n              or\n              swap1\n              swap5\n              sstore\n              pop\n              pop\n                /* \"Entity.sol\":5433:5457  newData.keyIndex[addKey] */\n              dup4\n              mload\n                /* \"Entity.sol\":5460:5461  i */\n              dup6\n              swap3\n                /* \"Entity.sol\":5433:5449  newData.keyIndex */\n              0x05\n              dup13\n              add\n              swap3\n                /* \"Entity.sol\":5433:5457  newData.keyIndex[addKey] */\n              dup7\n              swap3\n                /* \"Entity.sol\":5380:5408  newData.keyExistence[addKey] */\n              swap1\n              swap2\n              dup3\n              swap2\n                /* \"Entity.sol\":5433:5457  newData.keyIndex[addKey] */\n              swap1\n              dup5\n              add\n              swap1\n              dup1\n                /* \"Entity.sol\":5380:5408  newData.keyExistence[addKey] */\n              dup4\n                /* \"Entity.sol\":5433:5457  newData.keyIndex[addKey] */\n              dup4\n                /* \"--CODEGEN--\":36:189   */\n            tag_430:\n                /* \"--CODEGEN--\":66:68   */\n              0x20\n                /* \"--CODEGEN--\":61:64   */\n              dup4\n                /* \"--CODEGEN--\":58:69   */\n              lt\n                /* \"--CODEGEN--\":36:189   */\n              tag_432\n              jumpi\n                /* \"--CODEGEN--\":176:186   */\n              dup1\n              mload\n                /* \"--CODEGEN--\":164:187   */\n              dup3\n              mstore\n              not(0x1f)\n                /* \"--CODEGEN--\":139:151   */\n              swap1\n              swap3\n              add\n              swap2\n                /* \"--CODEGEN--\":98:100   */\n              0x20\n                /* \"--CODEGEN--\":89:101   */\n              swap2\n              dup3\n              add\n              swap2\n                /* \"--CODEGEN--\":114:126   */\n              add\n                /* \"--CODEGEN--\":36:189   */\n              jump(tag_430)\n            tag_432:\n                /* \"--CODEGEN--\":299:309   */\n              mload\n                /* \"--CODEGEN--\":344:354   */\n              dup2\n              mload\n                /* \"--CODEGEN--\":263:265   */\n              0x20\n                /* \"--CODEGEN--\":259:271   */\n              swap4\n              dup5\n              sub\n                /* \"--CODEGEN--\":254:257   */\n              0x0100\n                /* \"--CODEGEN--\":250:272   */\n              exp\n              not(0x00)\n                /* \"--CODEGEN--\":246:276   */\n              add\n                /* \"--CODEGEN--\":311:320   */\n              dup1\n              not\n                /* \"--CODEGEN--\":295:321   */\n              swap1\n              swap3\n              and\n                /* \"--CODEGEN--\":340:361   */\n              swap2\n              and\n                /* \"--CODEGEN--\":377:397   */\n              or\n                /* \"--CODEGEN--\":365:398   */\n              swap1\n              mstore\n                /* \"Entity.sol\":5433:5457  newData.keyIndex[addKey] */\n              swap3\n              add\n              swap5\n              dup6\n              mstore\n              pop\n              mload(0x40)\n              swap4\n              dup5\n              swap1\n              sub\n              dup2\n              add\n              swap1\n              swap4\n              keccak256\n                /* \"Entity.sol\":5433:5461  newData.keyIndex[addKey] = i */\n              dup1\n              sload\n              not(0xffffffff)\n              and\n              0xffffffff\n              swap6\n              swap1\n              swap6\n              and\n              swap5\n              swap1\n              swap5\n              or\n              swap1\n              swap4\n              sstore\n              pop\n                /* \"Entity.sol\":5480:5493  newData.value */\n              0x06\n              dup11\n              add\n                /* \"--CODEGEN--\":27:37   */\n              dup1\n              sload\n              0x01\n                /* \"--CODEGEN--\":23:41   */\n              dup2\n              add\n                /* \"--CODEGEN--\":45:68   */\n              dup3\n              sstore\n              0x00\n                /* \"Entity.sol\":5480:5508  newData.value.push(addValue) */\n              swap2\n              dup3\n              mstore\n              swap1\n              dup3\n              swap1\n              keccak256\n              dup5\n              mload\n              tag_434\n              swap5\n              pop\n              swap2\n              add\n              swap2\n              dup5\n              add\n              swap1\n              tag_395\n              jump\t// in\n            tag_434:\n              pop\n                /* \"Entity.sol\":5287:5623  if(!newData.keyExistence[addKey]){... */\n              jump(tag_435)\n            tag_424:\n                /* \"Entity.sol\":5600:5608  addValue */\n              dup1\n                /* \"Entity.sol\":5558:5565  newData */\n              dup9\n                /* \"Entity.sol\":5558:5571  newData.value */\n              0x06\n              add\n                /* \"Entity.sol\":5572:5579  newData */\n              dup10\n                /* \"Entity.sol\":5572:5588  newData.keyIndex */\n              0x05\n              add\n                /* \"Entity.sol\":5589:5595  addKey */\n              dup5\n                /* \"Entity.sol\":5572:5596  newData.keyIndex[addKey] */\n              mload(0x40)\n              dup1\n              dup3\n              dup1\n              mload\n              swap1\n              0x20\n              add\n              swap1\n              dup1\n              dup4\n              dup4\n                /* \"--CODEGEN--\":36:189   */\n            tag_436:\n                /* \"--CODEGEN--\":66:68   */\n              0x20\n                /* \"--CODEGEN--\":61:64   */\n              dup4\n                /* \"--CODEGEN--\":58:69   */\n              lt\n                /* \"--CODEGEN--\":36:189   */\n              tag_438\n              jumpi\n                /* \"--CODEGEN--\":176:186   */\n              dup1\n              mload\n                /* \"--CODEGEN--\":164:187   */\n              dup3\n              mstore\n              not(0x1f)\n                /* \"--CODEGEN--\":139:151   */\n              swap1\n              swap3\n              add\n              swap2\n                /* \"--CODEGEN--\":98:100   */\n              0x20\n                /* \"--CODEGEN--\":89:101   */\n              swap2\n              dup3\n              add\n              swap2\n                /* \"--CODEGEN--\":114:126   */\n              add\n                /* \"--CODEGEN--\":36:189   */\n              jump(tag_436)\n            tag_438:\n                /* \"--CODEGEN--\":299:309   */\n              mload\n                /* \"--CODEGEN--\":344:354   */\n              dup2\n              mload\n                /* \"--CODEGEN--\":263:265   */\n              0x20\n                /* \"--CODEGEN--\":259:271   */\n              swap4\n              dup5\n              sub\n                /* \"--CODEGEN--\":254:257   */\n              0x0100\n                /* \"--CODEGEN--\":250:272   */\n              exp\n              not(0x00)\n                /* \"--CODEGEN--\":246:276   */\n              add\n                /* \"--CODEGEN--\":311:320   */\n              dup1\n              not\n                /* \"--CODEGEN--\":295:321   */\n              swap1\n              swap3\n              and\n                /* \"--CODEGEN--\":340:361   */\n              swap2\n              and\n                /* \"--CODEGEN--\":377:397   */\n              or\n                /* \"--CODEGEN--\":365:398   */\n              swap1\n              mstore\n                /* \"Entity.sol\":5572:5596  newData.keyIndex[addKey] */\n              swap3\n              add\n              swap5\n              dup6\n              mstore\n              pop\n              mload(0x40)\n              swap4\n              dup5\n              swap1\n              sub\n              add\n              swap1\n              swap3\n              keccak256\n              sload\n                /* \"Entity.sol\":5558:5597  newData.value[newData.keyIndex[addKey]] */\n              dup4\n              sload\n                /* \"Entity.sol\":5572:5596  newData.keyIndex[addKey] */\n              0xffffffff\n              swap1\n              swap2\n              and\n              swap3\n              pop\n                /* \"Entity.sol\":5558:5597  newData.value[newData.keyIndex[addKey]] */\n              dup3\n              lt\n              swap1\n              pop\n              tag_439\n              jumpi\n              invalid\n            tag_439:\n              swap1\n              0x00\n              mstore\n              keccak256(0x00, 0x20)\n              add\n                /* \"Entity.sol\":5558:5608  newData.value[newData.keyIndex[addKey]] = addValue */\n              swap1\n              dup1\n              mload\n              swap1\n              0x20\n              add\n              swap1\n              tag_441\n              swap3\n              swap2\n              swap1\n              tag_395\n              jump\t// in\n            tag_441:\n              pop\n                /* \"Entity.sol\":5287:5623  if(!newData.keyExistence[addKey]){... */\n            tag_435:\n              pop\n              pop\n                /* \"Entity.sol\":5133:5136  i++ */\n              0x01\n              add\n                /* \"Entity.sol\":5108:5762  for(uint32 i=0; i<count; i++){... */\n              jump(tag_412)\n            tag_413:\n              pop\n                /* \"Entity.sol\":5775:5781  direct */\n              dup6\n                /* \"Entity.sol\":5772:5850  if(direct)... */\n              iszero\n              tag_443\n              jumpi\n                /* \"Entity.sol\":5820:5837  pendingDataToSend */\n              0x09\n                /* \"Entity.sol\":5820:5844  pendingDataToSend.length */\n              sload\n                /* \"Entity.sol\":5795:5850  approveDataToSend(uint32(pendingDataToSend.length - 1)) */\n              tag_443\n              swap1\n              not(0x00)\n                /* \"Entity.sol\":5820:5848  pendingDataToSend.length - 1 */\n              add\n                /* \"Entity.sol\":5795:5812  approveDataToSend */\n              tag_135\n                /* \"Entity.sol\":5795:5850  approveDataToSend(uint32(pendingDataToSend.length - 1)) */\n              jump\t// in\n            tag_443:\n                /* \"MultipleEntity.sol\":246:247  _ */\n              pop\n              pop\n              pop\n              pop\n              pop\n                /* \"Entity.sol\":4296:5857  function newDataToSend(address _receiver, string memory _description, string memory _key, string memory _value, bool direct) ... */\n              pop\n              pop\n              pop\n              pop\n              pop\n              jump\t// out\n                /* \"Entity.sol\":3440:3644  function approveMultipleToReceive(address multipleEntity, uint32 index)... */\n            tag_165:\n                /* \"MultipleEntity.sol\":224:234  msg.sender */\n              caller\n                /* \"MultipleEntity.sol\":216:235  isOwner[msg.sender] */\n              0x00\n              swap1\n              dup2\n              mstore\n                /* \"MultipleEntity.sol\":216:223  isOwner */\n              0x0a\n                /* \"MultipleEntity.sol\":216:235  isOwner[msg.sender] */\n              0x20\n              mstore\n              0x40\n              swap1\n              keccak256\n              sload\n              0xff\n              and\n                /* \"MultipleEntity.sol\":208:236  require(isOwner[msg.sender]) */\n              tag_455\n              jumpi\n                /* \"--CODEGEN--\":12:13   */\n              0x00\n                /* \"--CODEGEN--\":9:10   */\n              dup1\n                /* \"--CODEGEN--\":2:14   */\n              revert\n                /* \"MultipleEntity.sol\":208:236  require(isOwner[msg.sender]) */\n            tag_455:\n                /* \"Entity.sol\":3607:3637  mE.approveDataToReceive(index) */\n              0x40\n              dup1\n              mload\n              shl(0xe0, 0x4f2bcbef)\n              dup2\n              mstore\n              0xffffffff\n              dup4\n              and\n              0x04\n              dup3\n              add\n              mstore\n              swap1\n              mload\n                /* \"Entity.sol\":3582:3596  multipleEntity */\n              dup4\n              swap2\n              sub(shl(0xa0, 0x01), 0x01)\n                /* \"Entity.sol\":3607:3630  mE.approveDataToReceive */\n              dup4\n              and\n              swap2\n              0x4f2bcbef\n              swap2\n                /* \"Entity.sol\":3607:3637  mE.approveDataToReceive(index) */\n              0x24\n              dup1\n              dup3\n              add\n              swap3\n              0x00\n              swap3\n              swap1\n              swap2\n              swap1\n              dup3\n              swap1\n              sub\n              add\n              dup2\n              dup4\n                /* \"Entity.sol\":3607:3630  mE.approveDataToReceive */\n              dup8\n                /* \"Entity.sol\":3607:3637  mE.approveDataToReceive(index) */\n              dup1\n              extcodesize\n              iszero\n                /* \"--CODEGEN--\":2:4   */\n              dup1\n              iszero\n              tag_457\n              jumpi\n                /* \"--CODEGEN--\":27:28   */\n              0x00\n                /* \"--CODEGEN--\":24:25   */\n              dup1\n                /* \"--CODEGEN--\":17:29   */\n              revert\n                /* \"--CODEGEN--\":2:4   */\n            tag_457:\n                /* \"Entity.sol\":3607:3637  mE.approveDataToReceive(index) */\n              pop\n              gas\n              call\n              iszero\n                /* \"--CODEGEN--\":8:17   */\n              dup1\n                /* \"--CODEGEN--\":5:7   */\n              iszero\n              tag_459\n              jumpi\n                /* \"--CODEGEN--\":45:61   */\n              returndatasize\n                /* \"--CODEGEN--\":42:43   */\n              0x00\n                /* \"--CODEGEN--\":39:40   */\n              dup1\n                /* \"--CODEGEN--\":24:62   */\n              returndatacopy\n                /* \"--CODEGEN--\":77:93   */\n              returndatasize\n                /* \"--CODEGEN--\":74:75   */\n              0x00\n                /* \"--CODEGEN--\":67:94   */\n              revert\n                /* \"--CODEGEN--\":5:7   */\n            tag_459:\n                /* \"Entity.sol\":3607:3637  mE.approveDataToReceive(index) */\n              pop\n              pop\n              pop\n              pop\n                /* \"MultipleEntity.sol\":246:247  _ */\n              pop\n                /* \"Entity.sol\":3440:3644  function approveMultipleToReceive(address multipleEntity, uint32 index)... */\n              pop\n              pop\n              jump\t// out\n                /* \"Entity.sol\":1177:1218  pendingData[] public pendingDataToReceive */\n            tag_168:\n              0x07\n              dup2\n              dup2\n              sload\n              dup2\n              lt\n              tag_460\n              jumpi\n              invalid\n            tag_460:\n              0x00\n              swap2\n              dup3\n              mstore\n              0x20\n              swap2\n              dup3\n              swap1\n              keccak256\n              0x08\n              swap2\n              swap1\n              swap2\n              mul\n              add\n              dup1\n              sload\n              0x01\n              dup1\n              dup4\n              add\n              sload\n              0x02\n              dup1\n              dup6\n              add\n              dup1\n              sload\n              0x40\n              dup1\n              mload\n              0x0100\n              swap7\n              dup4\n              and\n              iszero\n              swap7\n              swap1\n              swap7\n              mul\n              not(0x00)\n              add\n              swap1\n              swap2\n              and\n              swap3\n              swap1\n              swap3\n              div\n              0x1f\n              dup2\n              add\n              dup9\n              swap1\n              div\n              dup9\n              mul\n              dup6\n              add\n              dup9\n              add\n              swap1\n              swap3\n              mstore\n              dup2\n              dup5\n              mstore\n              sub(shl(0xa0, 0x01), 0x01)\n              swap5\n              dup6\n              and\n              swap8\n              pop\n              swap4\n              swap1\n              swap2\n              and\n              swap5\n              swap2\n              swap3\n              swap2\n              dup4\n              add\n              dup3\n              dup3\n              dup1\n              iszero\n              tag_462\n              jumpi\n              dup1\n              0x1f\n              lt\n              tag_463\n              jumpi\n              0x0100\n              dup1\n              dup4\n              sload\n              div\n              mul\n              dup4\n              mstore\n              swap2\n              0x20\n              add\n              swap2\n              jump(tag_462)\n            tag_463:\n              dup3\n              add\n              swap2\n              swap1\n              0x00\n              mstore\n              keccak256(0x00, 0x20)\n              swap1\n            tag_464:\n              dup2\n              sload\n              dup2\n              mstore\n              swap1\n              0x01\n              add\n              swap1\n              0x20\n              add\n              dup1\n              dup4\n              gt\n              tag_464\n              jumpi\n              dup3\n              swap1\n              sub\n              0x1f\n              and\n              dup3\n              add\n              swap2\n            tag_462:\n              pop\n              pop\n              pop\n              0x07\n              swap1\n              swap4\n              add\n              sload\n              swap2\n              swap3\n              pop\n              pop\n              0xff\n              and\n              dup5\n              jump\t// out\n                /* \"Entity.sol\":1750:1969  function _receiveData(string calldata _key, string calldata _value, uint32 index)... */\n            tag_181:\n                /* \"Entity.sol\":1864:1884  pendingDataToReceive */\n              0x07\n                /* \"Entity.sol\":1885:1890  index */\n              dup2\n                /* \"Entity.sol\":1864:1891  pendingDataToReceive[index] */\n              0xffffffff\n              and\n              dup2\n              sload\n              dup2\n              lt\n              tag_466\n              jumpi\n              invalid\n            tag_466:\n              0x00\n              swap2\n              dup3\n              mstore\n              0x20\n              dup1\n              dup4\n              keccak256\n                /* \"Entity.sol\":1864:1897  pendingDataToReceive[index].value */\n              0x06\n                /* \"Entity.sol\":1864:1891  pendingDataToReceive[index] */\n              0x08\n              swap1\n              swap4\n              mul\n              add\n                /* \"Entity.sol\":1864:1897  pendingDataToReceive[index].value */\n              swap2\n              swap1\n              swap2\n              add\n                /* \"--CODEGEN--\":27:37   */\n              dup1\n              sload\n                /* \"--CODEGEN--\":39:40   */\n              0x01\n                /* \"--CODEGEN--\":23:41   */\n              dup2\n              add\n                /* \"--CODEGEN--\":45:68   */\n              dup3\n              sstore\n                /* \"Entity.sol\":1864:1910  pendingDataToReceive[index].value.push(_value) */\n              swap1\n              dup4\n              mstore\n              swap2\n              keccak256\n              tag_469\n              swap2\n              add\n                /* \"Entity.sol\":1903:1909  _value */\n              dup5\n              dup5\n                /* \"Entity.sol\":1864:1910  pendingDataToReceive[index].value.push(_value) */\n              tag_470\n              jump\t// in\n            tag_469:\n              pop\n                /* \"Entity.sol\":1920:1940  pendingDataToReceive */\n              0x07\n                /* \"Entity.sol\":1941:1946  index */\n              dup2\n                /* \"Entity.sol\":1920:1947  pendingDataToReceive[index] */\n              0xffffffff\n              and\n              dup2\n              sload\n              dup2\n              lt\n              tag_471\n              jumpi\n              invalid\n            tag_471:\n              0x00\n              swap2\n              dup3\n              mstore\n              0x20\n              dup1\n              dup4\n              keccak256\n                /* \"Entity.sol\":1920:1951  pendingDataToReceive[index].key */\n              0x03\n                /* \"Entity.sol\":1920:1947  pendingDataToReceive[index] */\n              0x08\n              swap1\n              swap4\n              mul\n              add\n                /* \"Entity.sol\":1920:1951  pendingDataToReceive[index].key */\n              swap2\n              swap1\n              swap2\n              add\n                /* \"--CODEGEN--\":27:37   */\n              dup1\n              sload\n                /* \"--CODEGEN--\":39:40   */\n              0x01\n                /* \"--CODEGEN--\":23:41   */\n              dup2\n              add\n                /* \"--CODEGEN--\":45:68   */\n              dup3\n              sstore\n                /* \"Entity.sol\":1920:1962  pendingDataToReceive[index].key.push(_key) */\n              swap1\n              dup4\n              mstore\n              swap2\n              keccak256\n              tag_474\n              swap2\n              add\n                /* \"Entity.sol\":1957:1961  _key */\n              dup7\n              dup7\n                /* \"Entity.sol\":1920:1962  pendingDataToReceive[index].key.push(_key) */\n              tag_470\n              jump\t// in\n            tag_474:\n              pop\n                /* \"Entity.sol\":1750:1969  function _receiveData(string calldata _key, string calldata _value, uint32 index)... */\n              pop\n              pop\n              pop\n              pop\n              pop\n              jump\t// out\n                /* \"Entity.sol\":8028:8194  function dataSizeToSend(uint32 index) ... */\n            tag_184:\n                /* \"Entity.sol\":8114:8120  uint32 */\n              0x00\n                /* \"Entity.sol\":8151:8168  pendingDataToSend */\n              0x09\n                /* \"Entity.sol\":8169:8174  index */\n              dup3\n                /* \"Entity.sol\":8151:8175  pendingDataToSend[index] */\n              0xffffffff\n              and\n              dup2\n              sload\n              dup2\n              lt\n              tag_348\n              jumpi\n              invalid\n                /* \"Entity.sol\":1307:1345  pendingData[] public pendingDataToSend */\n            tag_187:\n              0x09\n              dup2\n              dup2\n              sload\n              dup2\n              lt\n              tag_460\n              jumpi\n              invalid\n                /* \"Entity.sol\":1070:1135  mapping(address=>mapping(string=>bool)) public writtenDescription */\n            tag_197:\n              0x06\n              0x20\n              swap1\n              dup2\n              mstore\n              0x00\n              swap3\n              dup4\n              mstore\n              0x40\n              swap1\n              swap3\n              keccak256\n                /* \"--CODEGEN--\":22:36   */\n              dup2\n              mload\n                /* \"--CODEGEN--\":143:175   */\n              dup1\n              dup4\n              add\n              dup5\n              add\n                /* \"--CODEGEN--\":198:218   */\n              dup1\n              mload\n                /* \"--CODEGEN--\":224:255   */\n              swap3\n              dup2\n              mstore\n                /* \"--CODEGEN--\":156:174   */\n              swap1\n              dup5\n              add\n                /* \"--CODEGEN--\":283:301   */\n              swap3\n              swap1\n              swap4\n              add\n                /* \"--CODEGEN--\":273:322   */\n              swap2\n              swap1\n              swap2\n              keccak256\n                /* \"--CODEGEN--\":328:360   */\n              swap2\n              mstore\n                /* \"Entity.sol\":1070:1135  mapping(address=>mapping(string=>bool)) public writtenDescription */\n              sload\n              0xff\n              and\n              dup2\n              jump\t// out\n                /* \"Entity.sol\":1387:1740  function _newData(string calldata _description)... */\n            tag_203:\n                /* \"Entity.sol\":1469:1475  uint32 */\n              0x00\n                /* \"Entity.sol\":1492:1518  pendingData memory newData */\n              tag_484\n              tag_485\n              jump\t// in\n            tag_484:\n                /* \"Entity.sol\":1545:1555  msg.sender */\n              caller\n                /* \"Entity.sol\":1528:1555  newData.source = msg.sender */\n              dup2\n              mstore\n                /* \"Entity.sol\":1565:1599  newData.description = _description */\n              0x40\n              dup1\n              mload\n              0x20\n              0x1f\n              dup7\n              add\n              dup2\n              swap1\n              div\n              dup2\n              mul\n              dup3\n              add\n              dup2\n              add\n              swap1\n              swap3\n              mstore\n              dup5\n              dup2\n              mstore\n              swap1\n                /* \"Entity.sol\":1587:1599  _description */\n              dup6\n              swap1\n              dup6\n              swap1\n              dup2\n              swap1\n                /* \"Entity.sol\":1565:1599  newData.description = _description */\n              dup5\n              add\n                /* \"Entity.sol\":1587:1599  _description */\n              dup4\n              dup3\n              dup1\n              dup3\n                /* \"Entity.sol\":1565:1599  newData.description = _description */\n              dup5\n                /* \"--CODEGEN--\":1:34   */\n              calldatacopy\n                /* \"--CODEGEN--\":99:100   */\n              0x00\n                /* \"--CODEGEN--\":81:97   */\n              swap3\n              add\n                /* \"--CODEGEN--\":74:101   */\n              dup3\n              swap1\n              mstore\n              pop\n                /* \"Entity.sol\":1565:1584  newData.description */\n              0x40\n              dup7\n              add\n                /* \"Entity.sol\":1565:1599  newData.description = _description */\n              swap5\n              dup6\n              mstore\n                /* \"Entity.sol\":1609:1625  newData.approved */\n              0xa0\n              dup7\n              add\n                /* \"Entity.sol\":1609:1633  newData.approved = false */\n              dup2\n              swap1\n              mstore\n                /* \"Entity.sol\":1643:1663  pendingDataToReceive */\n              0x07\n                /* \"--CODEGEN--\":27:37   */\n              dup1\n              sload\n                /* \"Entity.sol\":1609:1633  newData.approved = false */\n              0x01\n                /* \"--CODEGEN--\":23:41   */\n              dup2\n              add\n                /* \"--CODEGEN--\":45:68   */\n              dup3\n              sstore\n                /* \"Entity.sol\":1643:1677  pendingDataToReceive.push(newData) */\n              swap2\n              mstore\n              dup6\n              mload\n              0xa66cc928b5edb82af9bd49922954155ab7b0942694bea4ce44661d9a8736c688\n              0x08\n              swap1\n              swap3\n              mul\n              swap2\n              dup3\n              add\n              dup1\n              sload\n              not(sub(shl(0xa0, 0x01), 0x01))\n              swap1\n              dup2\n              and\n              sub(shl(0xa0, 0x01), 0x01)\n              swap4\n              dup5\n              and\n              or\n              dup3\n              sstore\n              0x20\n              dup1\n              dup11\n              add\n              mload\n              0xa66cc928b5edb82af9bd49922954155ab7b0942694bea4ce44661d9a8736c689\n              dup7\n              add\n              dup1\n              sload\n              swap1\n              swap4\n              and\n              swap5\n              and\n              swap4\n              swap1\n              swap4\n              or\n              swap1\n              sstore\n              swap6\n              mload\n              dup1\n              mload\n                /* \"Entity.sol\":1565:1584  newData.description */\n              dup9\n              swap8\n                /* \"Entity.sol\":1643:1677  pendingDataToReceive.push(newData) */\n              swap7\n              pop\n              tag_487\n              swap6\n              pop\n              0xa66cc928b5edb82af9bd49922954155ab7b0942694bea4ce44661d9a8736c68a\n              swap1\n              swap4\n              add\n              swap4\n              pop\n              add\n              swap1\n              tag_395\n              jump\t// in\n            tag_487:\n              pop\n              0x60\n              dup3\n              add\n              mload\n              dup1\n              mload\n              tag_488\n              swap2\n              0x03\n              dup5\n              add\n              swap2\n              0x20\n              swap1\n              swap2\n              add\n              swap1\n              tag_489\n              jump\t// in\n            tag_488:\n              pop\n              0x80\n              dup3\n              add\n              mload\n              dup1\n              mload\n              tag_490\n              swap2\n              0x06\n              dup5\n              add\n              swap2\n              0x20\n              swap1\n              swap2\n              add\n              swap1\n              tag_489\n              jump\t// in\n            tag_490:\n              pop\n              0xa0\n              swap2\n              swap1\n              swap2\n              add\n              mload\n              0x07\n              swap2\n              dup3\n              add\n              dup1\n              sload\n              not(0xff)\n              and\n              swap2\n              iszero\n              iszero\n              swap2\n              swap1\n              swap2\n              or\n              swap1\n              sstore\n                /* \"Entity.sol\":1701:1728  pendingDataToReceive.length */\n              sload\n              not(0x00)\n                /* \"Entity.sol\":1701:1732  pendingDataToReceive.length - 1 */\n              add\n              swap5\n                /* \"Entity.sol\":1387:1740  function _newData(string calldata _description)... */\n              swap4\n              pop\n              pop\n              pop\n              pop\n              jump\t// out\n                /* \"Entity.sol\":8849:9015  function descriptionLength(address source)... */\n            tag_206:\n              sub(shl(0xa0, 0x01), 0x01)\n                /* \"Entity.sol\":8972:9000  descriptionsBySource[source] */\n              and\n                /* \"Entity.sol\":8936:8942  uint32 */\n              0x00\n                /* \"Entity.sol\":8972:9000  descriptionsBySource[source] */\n              swap1\n              dup2\n              mstore\n                /* \"Entity.sol\":8972:8992  descriptionsBySource */\n              0x05\n                /* \"Entity.sol\":8972:9000  descriptionsBySource[source] */\n              0x20\n              mstore\n              0x40\n              swap1\n              keccak256\n                /* \"Entity.sol\":8972:9007  descriptionsBySource[source].length */\n              sload\n              swap1\n                /* \"Entity.sol\":8849:9015  function descriptionLength(address source)... */\n              jump\t// out\n                /* \"Entity.sol\":7868:8018  function pendingDataToSendCount() ... */\n            tag_208:\n                /* \"Entity.sol\":7986:8003  pendingDataToSend */\n              0x09\n                /* \"Entity.sol\":7986:8010  pendingDataToSend.length */\n              sload\n                /* \"Entity.sol\":7868:8018  function pendingDataToSendCount() ... */\n              swap1\n              jump\t// out\n                /* \"Entity.sol\":778:828  mapping(address=>uint32) public recentSendingIndex */\n            tag_211:\n              mstore(0x20, 0x01)\n              0x00\n              swap1\n              dup2\n              mstore\n              0x40\n              swap1\n              keccak256\n              sload\n              0xffffffff\n              and\n              dup2\n              jump\t// out\n                /* \"Entity.sol\":4002:4257  function keyValueOfDataToReceive(uint32 index, uint32 keyIndex)... */\n            tag_214:\n                /* \"Entity.sol\":4111:4124  string memory */\n              0x60\n                /* \"Entity.sol\":4126:4139  string memory */\n              dup1\n                /* \"Entity.sol\":4163:4183  pendingDataToReceive */\n              0x07\n                /* \"Entity.sol\":4184:4189  index */\n              dup5\n                /* \"Entity.sol\":4163:4190  pendingDataToReceive[index] */\n              0xffffffff\n              and\n              dup2\n              sload\n              dup2\n              lt\n              tag_494\n              jumpi\n              invalid\n            tag_494:\n              swap1\n              0x00\n              mstore\n              keccak256(0x00, 0x20)\n              swap1\n              0x08\n              mul\n              add\n                /* \"Entity.sol\":4163:4194  pendingDataToReceive[index].key */\n              0x03\n              add\n                /* \"Entity.sol\":4195:4203  keyIndex */\n              dup4\n                /* \"Entity.sol\":4163:4204  pendingDataToReceive[index].key[keyIndex] */\n              0xffffffff\n              and\n              dup2\n              sload\n              dup2\n              lt\n              tag_496\n              jumpi\n              invalid\n            tag_496:\n              swap1\n              0x00\n              mstore\n              keccak256(0x00, 0x20)\n              add\n                /* \"Entity.sol\":4206:4226  pendingDataToReceive */\n              0x07\n                /* \"Entity.sol\":4227:4232  index */\n              dup6\n                /* \"Entity.sol\":4206:4233  pendingDataToReceive[index] */\n              0xffffffff\n              and\n              dup2\n              sload\n              dup2\n              lt\n              tag_263\n              jumpi\n              invalid\n                /* \"Entity.sol\":7660:7858  function approveMultipleToSend(address multipleEntity, uint32 index)... */\n            tag_225:\n                /* \"MultipleEntity.sol\":224:234  msg.sender */\n              caller\n                /* \"MultipleEntity.sol\":216:235  isOwner[msg.sender] */\n              0x00\n              swap1\n              dup2\n              mstore\n                /* \"MultipleEntity.sol\":216:223  isOwner */\n              0x0a\n                /* \"MultipleEntity.sol\":216:235  isOwner[msg.sender] */\n              0x20\n              mstore\n              0x40\n              swap1\n              keccak256\n              sload\n              0xff\n              and\n                /* \"MultipleEntity.sol\":208:236  require(isOwner[msg.sender]) */\n              tag_509\n              jumpi\n                /* \"--CODEGEN--\":12:13   */\n              0x00\n                /* \"--CODEGEN--\":9:10   */\n              dup1\n                /* \"--CODEGEN--\":2:14   */\n              revert\n                /* \"MultipleEntity.sol\":208:236  require(isOwner[msg.sender]) */\n            tag_509:\n                /* \"Entity.sol\":7824:7851  me.approveDataToSend(index) */\n              0x40\n              dup1\n              mload\n              shl(0xe0, 0x838ebd85)\n              dup2\n              mstore\n              0xffffffff\n              dup4\n              and\n              0x04\n              dup3\n              add\n              mstore\n              swap1\n              mload\n                /* \"Entity.sol\":7799:7813  multipleEntity */\n              dup4\n              swap2\n              sub(shl(0xa0, 0x01), 0x01)\n                /* \"Entity.sol\":7824:7844  me.approveDataToSend */\n              dup4\n              and\n              swap2\n              0x838ebd85\n              swap2\n                /* \"Entity.sol\":7824:7851  me.approveDataToSend(index) */\n              0x24\n              dup1\n              dup3\n              add\n              swap3\n              0x00\n              swap3\n              swap1\n              swap2\n              swap1\n              dup3\n              swap1\n              sub\n              add\n              dup2\n              dup4\n                /* \"Entity.sol\":7824:7844  me.approveDataToSend */\n              dup8\n                /* \"Entity.sol\":7824:7851  me.approveDataToSend(index) */\n              dup1\n              extcodesize\n              iszero\n                /* \"--CODEGEN--\":2:4   */\n              dup1\n              iszero\n              tag_457\n              jumpi\n                /* \"--CODEGEN--\":27:28   */\n              0x00\n                /* \"--CODEGEN--\":24:25   */\n              dup1\n                /* \"--CODEGEN--\":17:29   */\n              revert\n                /* \"Entity.sol\":752:772  bool public isSingle */\n            tag_227:\n              and(0xff, sload(0x00))\n              dup2\n              jump\t// out\n                /* \"Entity.sol\":6857:7109  function addDataMultipleToSend(address multipleEntity, string memory _key, string memory _value, uint32 index) ... */\n            tag_236:\n                /* \"MultipleEntity.sol\":224:234  msg.sender */\n              caller\n                /* \"MultipleEntity.sol\":216:235  isOwner[msg.sender] */\n              0x00\n              swap1\n              dup2\n              mstore\n                /* \"MultipleEntity.sol\":216:223  isOwner */\n              0x0a\n                /* \"MultipleEntity.sol\":216:235  isOwner[msg.sender] */\n              0x20\n              mstore\n              0x40\n              swap1\n              keccak256\n              sload\n              0xff\n              and\n                /* \"MultipleEntity.sol\":208:236  require(isOwner[msg.sender]) */\n              tag_515\n              jumpi\n                /* \"--CODEGEN--\":12:13   */\n              0x00\n                /* \"--CODEGEN--\":9:10   */\n              dup1\n                /* \"--CODEGEN--\":2:14   */\n              revert\n                /* \"MultipleEntity.sol\":208:236  require(isOwner[msg.sender]) */\n            tag_515:\n                /* \"Entity.sol\":7065:7102  me.addDataToSend(_key, _value, index) */\n              mload(0x40)\n              shl(0xe1, 0x7e15477d)\n              dup2\n              mstore\n              0xffffffff\n              dup3\n              and\n              0x44\n              dup3\n              add\n              mstore\n              0x60\n              0x04\n              dup3\n              add\n              swap1\n              dup2\n              mstore\n              dup5\n              mload\n              0x64\n              dup4\n              add\n              mstore\n              dup5\n              mload\n                /* \"Entity.sol\":7040:7054  multipleEntity */\n              dup7\n              swap3\n              sub(shl(0xa0, 0x01), 0x01)\n                /* \"Entity.sol\":7065:7081  me.addDataToSend */\n              dup5\n              and\n              swap3\n              0xfc2a8efa\n              swap3\n                /* \"Entity.sol\":7065:7102  me.addDataToSend(_key, _value, index) */\n              dup9\n              swap3\n                /* \"Entity.sol\":7088:7094  _value */\n              dup9\n              swap3\n                /* \"Entity.sol\":7065:7102  me.addDataToSend(_key, _value, index) */\n              dup9\n              swap3\n              swap1\n              swap2\n              dup3\n              swap2\n              0x24\n              dup3\n              add\n              swap2\n              0x84\n              add\n              swap1\n              0x20\n              dup9\n              add\n              swap1\n              dup1\n              dup4\n              dup4\n              0x00\n                /* \"--CODEGEN--\":8:108   */\n            tag_517:\n                /* \"--CODEGEN--\":33:36   */\n              dup4\n                /* \"--CODEGEN--\":30:31   */\n              dup2\n                /* \"--CODEGEN--\":27:37   */\n              lt\n                /* \"--CODEGEN--\":8:108   */\n              iszero\n              tag_519\n              jumpi\n                /* \"--CODEGEN--\":90:101   */\n              dup2\n              dup2\n              add\n                /* \"--CODEGEN--\":84:102   */\n              mload\n                /* \"--CODEGEN--\":71:82   */\n              dup4\n              dup3\n              add\n                /* \"--CODEGEN--\":64:103   */\n              mstore\n                /* \"--CODEGEN--\":52:54   */\n              0x20\n                /* \"--CODEGEN--\":45:55   */\n              add\n                /* \"--CODEGEN--\":8:108   */\n              jump(tag_517)\n            tag_519:\n                /* \"--CODEGEN--\":12:26   */\n              pop\n                /* \"Entity.sol\":7065:7102  me.addDataToSend(_key, _value, index) */\n              pop\n              pop\n              pop\n              swap1\n              pop\n              swap1\n              dup2\n              add\n              swap1\n              0x1f\n              and\n              dup1\n              iszero\n              tag_520\n              jumpi\n              dup1\n              dup3\n              sub\n              dup1\n              mload\n              0x01\n              dup4\n              0x20\n              sub\n              0x0100\n              exp\n              sub\n              not\n              and\n              dup2\n              mstore\n              0x20\n              add\n              swap2\n              pop\n            tag_520:\n              pop\n              dup4\n              dup2\n              sub\n              dup3\n              mstore\n              dup6\n              mload\n              dup2\n              mstore\n              dup6\n              mload\n              0x20\n              swap2\n              dup3\n              add\n              swap2\n              dup8\n              add\n              swap1\n              dup1\n              dup4\n              dup4\n                /* \"--CODEGEN--\":23:24   */\n              0x00\n                /* \"--CODEGEN--\":8:108   */\n            tag_521:\n                /* \"--CODEGEN--\":33:36   */\n              dup4\n                /* \"--CODEGEN--\":30:31   */\n              dup2\n                /* \"--CODEGEN--\":27:37   */\n              lt\n                /* \"--CODEGEN--\":8:108   */\n              iszero\n              tag_523\n              jumpi\n                /* \"--CODEGEN--\":90:101   */\n              dup2\n              dup2\n              add\n                /* \"--CODEGEN--\":84:102   */\n              mload\n                /* \"--CODEGEN--\":71:82   */\n              dup4\n              dup3\n              add\n                /* \"--CODEGEN--\":64:103   */\n              mstore\n                /* \"--CODEGEN--\":52:54   */\n              0x20\n                /* \"--CODEGEN--\":45:55   */\n              add\n                /* \"--CODEGEN--\":8:108   */\n              jump(tag_521)\n            tag_523:\n                /* \"--CODEGEN--\":12:26   */\n              pop\n                /* \"Entity.sol\":7065:7102  me.addDataToSend(_key, _value, index) */\n              pop\n              pop\n              pop\n              swap1\n              pop\n              swap1\n              dup2\n              add\n              swap1\n              0x1f\n              and\n              dup1\n              iszero\n              tag_524\n              jumpi\n              dup1\n              dup3\n              sub\n              dup1\n              mload\n              0x01\n              dup4\n              0x20\n              sub\n              0x0100\n              exp\n              sub\n              not\n              and\n              dup2\n              mstore\n              0x20\n              add\n              swap2\n              pop\n            tag_524:\n              pop\n              swap6\n              pop\n              pop\n              pop\n              pop\n              pop\n              pop\n              0x00\n              mload(0x40)\n              dup1\n              dup4\n              sub\n              dup2\n              0x00\n              dup8\n              dup1\n              extcodesize\n              iszero\n                /* \"--CODEGEN--\":5:14   */\n              dup1\n                /* \"--CODEGEN--\":2:4   */\n              iszero\n              tag_525\n              jumpi\n                /* \"--CODEGEN--\":27:28   */\n              0x00\n                /* \"--CODEGEN--\":24:25   */\n              dup1\n                /* \"--CODEGEN--\":17:29   */\n              revert\n                /* \"--CODEGEN--\":2:4   */\n            tag_525:\n                /* \"Entity.sol\":7065:7102  me.addDataToSend(_key, _value, index) */\n              pop\n              gas\n              call\n              iszero\n                /* \"--CODEGEN--\":8:17   */\n              dup1\n                /* \"--CODEGEN--\":5:7   */\n              iszero\n              tag_527\n              jumpi\n                /* \"--CODEGEN--\":45:61   */\n              returndatasize\n                /* \"--CODEGEN--\":42:43   */\n              0x00\n                /* \"--CODEGEN--\":39:40   */\n              dup1\n                /* \"--CODEGEN--\":24:62   */\n              returndatacopy\n                /* \"--CODEGEN--\":77:93   */\n              returndatasize\n                /* \"--CODEGEN--\":74:75   */\n              0x00\n                /* \"--CODEGEN--\":67:94   */\n              revert\n                /* \"--CODEGEN--\":5:7   */\n            tag_527:\n                /* \"Entity.sol\":7065:7102  me.addDataToSend(_key, _value, index) */\n              pop\n              pop\n              pop\n              pop\n                /* \"MultipleEntity.sol\":246:247  _ */\n              pop\n                /* \"Entity.sol\":6857:7109  function addDataMultipleToSend(address multipleEntity, string memory _key, string memory _value, uint32 index) ... */\n              pop\n              pop\n              pop\n              pop\n              jump\t// out\n                /* \"Entity.sol\":963:1003  mapping(address=>bool) public hasWritten */\n            tag_239:\n              mstore(0x20, 0x04)\n              0x00\n              swap1\n              dup2\n              mstore\n              0x40\n              swap1\n              keccak256\n              sload\n              0xff\n              and\n              dup2\n              jump\t// out\n                /* \"Entity.sol\":6233:6847  function addDataToSend(string memory _key, string memory _value, uint32 index) ... */\n            tag_248:\n                /* \"MultipleEntity.sol\":224:234  msg.sender */\n              caller\n                /* \"MultipleEntity.sol\":216:235  isOwner[msg.sender] */\n              0x00\n              swap1\n              dup2\n              mstore\n                /* \"MultipleEntity.sol\":216:223  isOwner */\n              0x0a\n                /* \"MultipleEntity.sol\":216:235  isOwner[msg.sender] */\n              0x20\n              mstore\n              0x40\n              swap1\n              keccak256\n              sload\n              0xff\n              and\n                /* \"MultipleEntity.sol\":208:236  require(isOwner[msg.sender]) */\n              tag_529\n              jumpi\n                /* \"--CODEGEN--\":12:13   */\n              0x00\n                /* \"--CODEGEN--\":9:10   */\n              dup1\n                /* \"--CODEGEN--\":2:14   */\n              revert\n                /* \"MultipleEntity.sol\":208:236  require(isOwner[msg.sender]) */\n            tag_529:\n                /* \"Entity.sol\":6369:6386  pendingDataToSend */\n              0x09\n                /* \"Entity.sol\":6387:6392  index */\n              dup2\n                /* \"Entity.sol\":6369:6393  pendingDataToSend[index] */\n              0xffffffff\n              and\n              dup2\n              sload\n              dup2\n              lt\n              tag_531\n              jumpi\n              invalid\n            tag_531:\n              swap1\n              0x00\n              mstore\n              keccak256(0x00, 0x20)\n              swap1\n              0x08\n              mul\n              add\n                /* \"Entity.sol\":6369:6406  pendingDataToSend[index].keyExistence */\n              0x04\n              add\n                /* \"Entity.sol\":6407:6411  _key */\n              dup4\n                /* \"Entity.sol\":6369:6412  pendingDataToSend[index].keyExistence[_key] */\n              mload(0x40)\n              dup1\n              dup3\n              dup1\n              mload\n              swap1\n              0x20\n              add\n              swap1\n              dup1\n              dup4\n              dup4\n                /* \"--CODEGEN--\":36:189   */\n            tag_533:\n                /* \"--CODEGEN--\":66:68   */\n              0x20\n                /* \"--CODEGEN--\":61:64   */\n              dup4\n                /* \"--CODEGEN--\":58:69   */\n              lt\n                /* \"--CODEGEN--\":36:189   */\n              tag_535\n              jumpi\n                /* \"--CODEGEN--\":176:186   */\n              dup1\n              mload\n                /* \"--CODEGEN--\":164:187   */\n              dup3\n              mstore\n              not(0x1f)\n                /* \"--CODEGEN--\":139:151   */\n              swap1\n              swap3\n              add\n              swap2\n                /* \"--CODEGEN--\":98:100   */\n              0x20\n                /* \"--CODEGEN--\":89:101   */\n              swap2\n              dup3\n              add\n              swap2\n                /* \"--CODEGEN--\":114:126   */\n              add\n                /* \"--CODEGEN--\":36:189   */\n              jump(tag_533)\n            tag_535:\n                /* \"--CODEGEN--\":299:309   */\n              mload\n                /* \"--CODEGEN--\":344:354   */\n              dup2\n              mload\n                /* \"--CODEGEN--\":263:265   */\n              0x20\n                /* \"--CODEGEN--\":259:271   */\n              swap4\n              dup5\n              sub\n                /* \"--CODEGEN--\":254:257   */\n              0x0100\n                /* \"--CODEGEN--\":250:272   */\n              exp\n              not(0x00)\n                /* \"--CODEGEN--\":246:276   */\n              add\n                /* \"--CODEGEN--\":311:320   */\n              dup1\n              not\n                /* \"--CODEGEN--\":295:321   */\n              swap1\n              swap3\n              and\n                /* \"--CODEGEN--\":340:361   */\n              swap2\n              and\n                /* \"--CODEGEN--\":377:397   */\n              or\n                /* \"--CODEGEN--\":365:398   */\n              swap1\n              mstore\n                /* \"Entity.sol\":6369:6412  pendingDataToSend[index].keyExistence[_key] */\n              swap3\n              add\n              swap5\n              dup6\n              mstore\n              pop\n              mload(0x40)\n              swap4\n              dup5\n              swap1\n              sub\n              add\n              swap1\n              swap3\n              keccak256\n              sload\n              0xff\n              and\n              swap2\n              pop\n                /* \"Entity.sol\":6365:6841  if(!pendingDataToSend[index].keyExistence[_key]){... */\n              tag_536\n              swap1\n              pop\n              jumpi\n                /* \"Entity.sol\":6476:6493  pendingDataToSend */\n              0x09\n                /* \"Entity.sol\":6494:6499  index */\n              dup2\n                /* \"Entity.sol\":6476:6500  pendingDataToSend[index] */\n              0xffffffff\n              and\n              dup2\n              sload\n              dup2\n              lt\n              tag_537\n              jumpi\n              invalid\n            tag_537:\n              swap1\n              0x00\n              mstore\n              keccak256(0x00, 0x20)\n              swap1\n              0x08\n              mul\n              add\n                /* \"Entity.sol\":6476:6504  pendingDataToSend[index].key */\n              0x03\n              add\n                /* \"Entity.sol\":6476:6511  pendingDataToSend[index].key.length */\n              dup1\n              sload\n              swap1\n              pop\n                /* \"Entity.sol\":6427:6444  pendingDataToSend */\n              0x09\n                /* \"Entity.sol\":6445:6450  index */\n              dup3\n                /* \"Entity.sol\":6427:6451  pendingDataToSend[index] */\n              0xffffffff\n              and\n              dup2\n              sload\n              dup2\n              lt\n              tag_539\n              jumpi\n              invalid\n            tag_539:\n              swap1\n              0x00\n              mstore\n              keccak256(0x00, 0x20)\n              swap1\n              0x08\n              mul\n              add\n                /* \"Entity.sol\":6427:6460  pendingDataToSend[index].keyIndex */\n              0x05\n              add\n                /* \"Entity.sol\":6461:6465  _key */\n              dup5\n                /* \"Entity.sol\":6427:6466  pendingDataToSend[index].keyIndex[_key] */\n              mload(0x40)\n              dup1\n              dup3\n              dup1\n              mload\n              swap1\n              0x20\n              add\n              swap1\n              dup1\n              dup4\n              dup4\n                /* \"--CODEGEN--\":36:189   */\n            tag_541:\n                /* \"--CODEGEN--\":66:68   */\n              0x20\n                /* \"--CODEGEN--\":61:64   */\n              dup4\n                /* \"--CODEGEN--\":58:69   */\n              lt\n                /* \"--CODEGEN--\":36:189   */\n              tag_543\n              jumpi\n                /* \"--CODEGEN--\":176:186   */\n              dup1\n              mload\n                /* \"--CODEGEN--\":164:187   */\n              dup3\n              mstore\n              not(0x1f)\n                /* \"--CODEGEN--\":139:151   */\n              swap1\n              swap3\n              add\n              swap2\n                /* \"--CODEGEN--\":98:100   */\n              0x20\n                /* \"--CODEGEN--\":89:101   */\n              swap2\n              dup3\n              add\n              swap2\n                /* \"--CODEGEN--\":114:126   */\n              add\n                /* \"--CODEGEN--\":36:189   */\n              jump(tag_541)\n            tag_543:\n                /* \"--CODEGEN--\":299:309   */\n              mload\n                /* \"--CODEGEN--\":344:354   */\n              dup2\n              mload\n                /* \"--CODEGEN--\":263:265   */\n              0x20\n                /* \"--CODEGEN--\":259:271   */\n              swap4\n              dup5\n              sub\n                /* \"--CODEGEN--\":254:257   */\n              0x0100\n                /* \"--CODEGEN--\":250:272   */\n              exp\n              not(0x00)\n                /* \"--CODEGEN--\":246:276   */\n              add\n                /* \"--CODEGEN--\":311:320   */\n              dup1\n              not\n                /* \"--CODEGEN--\":295:321   */\n              swap1\n              swap3\n              and\n                /* \"--CODEGEN--\":340:361   */\n              swap2\n              and\n                /* \"--CODEGEN--\":377:397   */\n              or\n                /* \"--CODEGEN--\":365:398   */\n              swap1\n              mstore\n                /* \"Entity.sol\":6427:6466  pendingDataToSend[index].keyIndex[_key] */\n              swap3\n              add\n              swap5\n              dup6\n              mstore\n              pop\n              mload(0x40)\n              swap4\n              dup5\n              swap1\n              sub\n              add\n              swap1\n              swap3\n              keccak256\n                /* \"Entity.sol\":6427:6512  pendingDataToSend[index].keyIndex[_key] = uint32(pendingDataToSend[index].key.length) */\n              dup1\n              sload\n              not(0xffffffff)\n              and\n              0xffffffff\n              swap5\n              dup6\n              and\n              or\n              swap1\n              sstore\n              pop\n              pop\n                /* \"Entity.sol\":6526:6543  pendingDataToSend */\n              0x09\n                /* \"Entity.sol\":6526:6550  pendingDataToSend[index] */\n              dup1\n              sload\n              0x01\n              swap3\n              dup5\n              and\n              swap1\n              dup2\n              lt\n              tag_544\n              jumpi\n              invalid\n            tag_544:\n              swap1\n              0x00\n              mstore\n              keccak256(0x00, 0x20)\n              swap1\n              0x08\n              mul\n              add\n                /* \"Entity.sol\":6526:6563  pendingDataToSend[index].keyExistence */\n              0x04\n              add\n                /* \"Entity.sol\":6564:6568  _key */\n              dup5\n                /* \"Entity.sol\":6526:6569  pendingDataToSend[index].keyExistence[_key] */\n              mload(0x40)\n              dup1\n              dup3\n              dup1\n              mload\n              swap1\n              0x20\n              add\n              swap1\n              dup1\n              dup4\n              dup4\n                /* \"--CODEGEN--\":36:189   */\n            tag_546:\n                /* \"--CODEGEN--\":66:68   */\n              0x20\n                /* \"--CODEGEN--\":61:64   */\n              dup4\n                /* \"--CODEGEN--\":58:69   */\n              lt\n                /* \"--CODEGEN--\":36:189   */\n              tag_548\n              jumpi\n                /* \"--CODEGEN--\":176:186   */\n              dup1\n              mload\n                /* \"--CODEGEN--\":164:187   */\n              dup3\n              mstore\n              not(0x1f)\n                /* \"--CODEGEN--\":139:151   */\n              swap1\n              swap3\n              add\n              swap2\n                /* \"--CODEGEN--\":98:100   */\n              0x20\n                /* \"--CODEGEN--\":89:101   */\n              swap2\n              dup3\n              add\n              swap2\n                /* \"--CODEGEN--\":114:126   */\n              add\n                /* \"--CODEGEN--\":36:189   */\n              jump(tag_546)\n            tag_548:\n                /* \"--CODEGEN--\":299:309   */\n              mload\n                /* \"--CODEGEN--\":344:354   */\n              dup2\n              mload\n                /* \"--CODEGEN--\":263:265   */\n              0x20\n                /* \"--CODEGEN--\":259:271   */\n              swap4\n              dup5\n              sub\n                /* \"--CODEGEN--\":254:257   */\n              0x0100\n                /* \"--CODEGEN--\":250:272   */\n              exp\n              not(0x00)\n                /* \"--CODEGEN--\":246:276   */\n              add\n                /* \"--CODEGEN--\":311:320   */\n              dup1\n              not\n                /* \"--CODEGEN--\":295:321   */\n              swap1\n              swap3\n              and\n                /* \"--CODEGEN--\":340:361   */\n              swap2\n              and\n                /* \"--CODEGEN--\":377:397   */\n              or\n                /* \"--CODEGEN--\":365:398   */\n              swap1\n              mstore\n                /* \"Entity.sol\":6526:6569  pendingDataToSend[index].keyExistence[_key] */\n              swap3\n              add\n              swap5\n              dup6\n              mstore\n              pop\n              mload(0x40)\n              swap4\n              dup5\n              swap1\n              sub\n              add\n              swap1\n              swap3\n              keccak256\n                /* \"Entity.sol\":6526:6576  pendingDataToSend[index].keyExistence[_key] = true */\n              dup1\n              sload\n              not(0xff)\n              and\n              swap4\n              iszero\n              iszero\n              swap4\n              swap1\n              swap4\n              or\n              swap1\n              swap3\n              sstore\n              pop\n              pop\n                /* \"Entity.sol\":6590:6607  pendingDataToSend */\n              0x09\n                /* \"Entity.sol\":6590:6614  pendingDataToSend[index] */\n              dup1\n              sload\n              0xffffffff\n              dup4\n              and\n              swap1\n              dup2\n              lt\n              tag_549\n              jumpi\n              invalid\n            tag_549:\n              0x00\n              swap2\n              dup3\n              mstore\n              0x20\n              dup1\n              dup4\n              keccak256\n                /* \"Entity.sol\":6590:6618  pendingDataToSend[index].key */\n              0x03\n                /* \"Entity.sol\":6590:6614  pendingDataToSend[index] */\n              0x08\n              swap1\n              swap4\n              mul\n              add\n                /* \"Entity.sol\":6590:6618  pendingDataToSend[index].key */\n              swap2\n              swap1\n              swap2\n              add\n                /* \"--CODEGEN--\":27:37   */\n              dup1\n              sload\n                /* \"--CODEGEN--\":39:40   */\n              0x01\n                /* \"--CODEGEN--\":23:41   */\n              dup2\n              add\n                /* \"--CODEGEN--\":45:68   */\n              dup3\n              sstore\n                /* \"Entity.sol\":6590:6629  pendingDataToSend[index].key.push(_key) */\n              swap1\n              dup4\n              mstore\n              swap2\n              dup2\n              swap1\n              keccak256\n              dup6\n              mload\n              tag_552\n              swap4\n              swap2\n              swap1\n              swap2\n              add\n              swap2\n              dup7\n              add\n              swap1\n              tag_395\n              jump\t// in\n            tag_552:\n              pop\n                /* \"Entity.sol\":6643:6660  pendingDataToSend */\n              0x09\n                /* \"Entity.sol\":6661:6666  index */\n              dup2\n                /* \"Entity.sol\":6643:6667  pendingDataToSend[index] */\n              0xffffffff\n              and\n              dup2\n              sload\n              dup2\n              lt\n              tag_553\n              jumpi\n              invalid\n            tag_553:\n              0x00\n              swap2\n              dup3\n              mstore\n              0x20\n              dup1\n              dup4\n              keccak256\n                /* \"Entity.sol\":6643:6673  pendingDataToSend[index].value */\n              0x06\n                /* \"Entity.sol\":6643:6667  pendingDataToSend[index] */\n              0x08\n              swap1\n              swap4\n              mul\n              add\n                /* \"Entity.sol\":6643:6673  pendingDataToSend[index].value */\n              swap2\n              swap1\n              swap2\n              add\n                /* \"--CODEGEN--\":27:37   */\n              dup1\n              sload\n                /* \"--CODEGEN--\":39:40   */\n              0x01\n                /* \"--CODEGEN--\":23:41   */\n              dup2\n              add\n                /* \"--CODEGEN--\":45:68   */\n              dup3\n              sstore\n                /* \"Entity.sol\":6643:6686  pendingDataToSend[index].value.push(_value) */\n              swap1\n              dup4\n              mstore\n              swap2\n              dup2\n              swap1\n              keccak256\n              dup5\n              mload\n              tag_556\n              swap4\n              swap2\n              swap1\n              swap2\n              add\n              swap2\n              dup6\n              add\n              swap1\n              tag_395\n              jump\t// in\n            tag_556:\n              pop\n                /* \"Entity.sol\":6365:6841  if(!pendingDataToSend[index].keyExistence[_key]){... */\n              jump(tag_557)\n            tag_536:\n                /* \"Entity.sol\":6724:6732  uint32 i */\n              0x00\n                /* \"Entity.sol\":6735:6752  pendingDataToSend */\n              0x09\n                /* \"Entity.sol\":6753:6758  index */\n              dup3\n                /* \"Entity.sol\":6735:6759  pendingDataToSend[index] */\n              0xffffffff\n              and\n              dup2\n              sload\n              dup2\n              lt\n              tag_558\n              jumpi\n              invalid\n            tag_558:\n              swap1\n              0x00\n              mstore\n              keccak256(0x00, 0x20)\n              swap1\n              0x08\n              mul\n              add\n                /* \"Entity.sol\":6735:6768  pendingDataToSend[index].keyIndex */\n              0x05\n              add\n                /* \"Entity.sol\":6769:6773  _key */\n              dup5\n                /* \"Entity.sol\":6735:6774  pendingDataToSend[index].keyIndex[_key] */\n              mload(0x40)\n              dup1\n              dup3\n              dup1\n              mload\n              swap1\n              0x20\n              add\n              swap1\n              dup1\n              dup4\n              dup4\n                /* \"--CODEGEN--\":36:189   */\n            tag_560:\n                /* \"--CODEGEN--\":66:68   */\n              0x20\n                /* \"--CODEGEN--\":61:64   */\n              dup4\n                /* \"--CODEGEN--\":58:69   */\n              lt\n                /* \"--CODEGEN--\":36:189   */\n              tag_562\n              jumpi\n                /* \"--CODEGEN--\":176:186   */\n              dup1\n              mload\n                /* \"--CODEGEN--\":164:187   */\n              dup3\n              mstore\n              not(0x1f)\n                /* \"--CODEGEN--\":139:151   */\n              swap1\n              swap3\n              add\n              swap2\n                /* \"--CODEGEN--\":98:100   */\n              0x20\n                /* \"--CODEGEN--\":89:101   */\n              swap2\n              dup3\n              add\n              swap2\n                /* \"--CODEGEN--\":114:126   */\n              add\n                /* \"--CODEGEN--\":36:189   */\n              jump(tag_560)\n            tag_562:\n                /* \"--CODEGEN--\":299:309   */\n              mload\n                /* \"--CODEGEN--\":344:354   */\n              dup2\n              mload\n                /* \"--CODEGEN--\":263:265   */\n              0x20\n                /* \"--CODEGEN--\":259:271   */\n              swap4\n              dup5\n              sub\n                /* \"--CODEGEN--\":254:257   */\n              0x0100\n                /* \"--CODEGEN--\":250:272   */\n              exp\n              not(0x00)\n                /* \"--CODEGEN--\":246:276   */\n              add\n                /* \"--CODEGEN--\":311:320   */\n              dup1\n              not\n                /* \"--CODEGEN--\":295:321   */\n              swap1\n              swap3\n              and\n                /* \"--CODEGEN--\":340:361   */\n              swap2\n              and\n                /* \"--CODEGEN--\":377:397   */\n              or\n                /* \"--CODEGEN--\":365:398   */\n              swap1\n              mstore\n                /* \"Entity.sol\":6735:6774  pendingDataToSend[index].keyIndex[_key] */\n              swap3\n              add\n              swap5\n              dup6\n              mstore\n              pop\n              mload(0x40)\n              swap4\n              dup5\n              swap1\n              sub\n              add\n              swap1\n              swap3\n              keccak256\n              sload\n                /* \"Entity.sol\":6788:6805  pendingDataToSend */\n              0x09\n                /* \"Entity.sol\":6788:6812  pendingDataToSend[index] */\n              dup1\n              sload\n                /* \"Entity.sol\":6735:6774  pendingDataToSend[index].keyIndex[_key] */\n              0xffffffff\n              swap3\n              dup4\n              and\n              swap6\n              pop\n                /* \"Entity.sol\":6824:6830  _value */\n              dup8\n              swap5\n              pop\n                /* \"Entity.sol\":6788:6805  pendingDataToSend */\n              swap1\n              swap3\n              pop\n                /* \"Entity.sol\":6788:6812  pendingDataToSend[index] */\n              swap1\n              dup6\n              and\n              swap1\n              dup2\n              lt\n              tag_563\n              jumpi\n              invalid\n            tag_563:\n              swap1\n              0x00\n              mstore\n              keccak256(0x00, 0x20)\n              swap1\n              0x08\n              mul\n              add\n                /* \"Entity.sol\":6788:6818  pendingDataToSend[index].value */\n              0x06\n              add\n                /* \"Entity.sol\":6819:6820  i */\n              dup3\n                /* \"Entity.sol\":6788:6821  pendingDataToSend[index].value[i] */\n              0xffffffff\n              and\n              dup2\n              sload\n              dup2\n              lt\n              tag_565\n              jumpi\n              invalid\n            tag_565:\n              swap1\n              0x00\n              mstore\n              keccak256(0x00, 0x20)\n              add\n                /* \"Entity.sol\":6788:6830  pendingDataToSend[index].value[i] = _value */\n              swap1\n              dup1\n              mload\n              swap1\n              0x20\n              add\n              swap1\n              tag_567\n              swap3\n              swap2\n              swap1\n              tag_395\n              jump\t// in\n            tag_567:\n              pop\n                /* \"Entity.sol\":6365:6841  if(!pendingDataToSend[index].keyExistence[_key]){... */\n              pop\n            tag_557:\n                /* \"Entity.sol\":6233:6847  function addDataToSend(string memory _key, string memory _value, uint32 index) ... */\n              pop\n              pop\n              pop\n              jump\t// out\n                /* \"Entity.sol\":1979:3192  function _approveDataToReceive(uint32 index) ... */\n            tag_339:\n                /* \"Entity.sol\":2065:2085  pendingDataToReceive */\n              0x07\n                /* \"Entity.sol\":2086:2091  index */\n              dup2\n                /* \"Entity.sol\":2065:2092  pendingDataToReceive[index] */\n              0xffffffff\n              and\n              dup2\n              sload\n              dup2\n              lt\n              tag_569\n              jumpi\n              invalid\n            tag_569:\n              0x00\n              swap2\n              dup3\n              mstore\n              0x20\n              swap1\n              swap2\n              keccak256\n                /* \"Entity.sol\":2065:2101  pendingDataToReceive[index].approved */\n              0x07\n                /* \"Entity.sol\":2065:2092  pendingDataToReceive[index] */\n              0x08\n              swap1\n              swap3\n              mul\n              add\n                /* \"Entity.sol\":2065:2101  pendingDataToReceive[index].approved */\n              add\n              sload\n              0xff\n              and\n                /* \"Entity.sol\":2064:2101  !pendingDataToReceive[index].approved */\n              iszero\n                /* \"Entity.sol\":2056:2102  require(!pendingDataToReceive[index].approved) */\n              tag_571\n              jumpi\n                /* \"--CODEGEN--\":12:13   */\n              0x00\n                /* \"--CODEGEN--\":9:10   */\n              dup1\n                /* \"--CODEGEN--\":2:14   */\n              revert\n                /* \"Entity.sol\":2056:2102  require(!pendingDataToReceive[index].approved) */\n            tag_571:\n                /* \"Entity.sol\":2112:2141  storingData storage toApprove */\n              0x00\n                /* \"Entity.sol\":2144:2151  Storage */\n              0x02\n                /* \"Entity.sol\":2144:2187  Storage[pendingDataToReceive[index].source] */\n              0x00\n                /* \"Entity.sol\":2152:2172  pendingDataToReceive */\n              0x07\n                /* \"Entity.sol\":2173:2178  index */\n              dup5\n                /* \"Entity.sol\":2152:2179  pendingDataToReceive[index] */\n              0xffffffff\n              and\n              dup2\n              sload\n              dup2\n              lt\n              tag_572\n              jumpi\n              invalid\n            tag_572:\n              0x00\n              swap2\n              dup3\n              mstore\n              0x20\n              dup1\n              dup4\n              keccak256\n              0x08\n              swap3\n              swap1\n              swap3\n              mul\n              swap1\n              swap2\n              add\n                /* \"Entity.sol\":2152:2186  pendingDataToReceive[index].source */\n              sload\n              sub(shl(0xa0, 0x01), 0x01)\n              and\n                /* \"Entity.sol\":2144:2187  Storage[pendingDataToReceive[index].source] */\n              dup4\n              mstore\n              dup3\n              add\n              swap3\n              swap1\n              swap3\n              mstore\n              0x40\n              add\n              swap1\n              keccak256\n                /* \"Entity.sol\":2188:2208  pendingDataToReceive */\n              0x07\n                /* \"Entity.sol\":2188:2215  pendingDataToReceive[index] */\n              dup1\n              sload\n              0xffffffff\n              dup6\n              and\n              swap1\n              dup2\n              lt\n              tag_574\n              jumpi\n              invalid\n            tag_574:\n              swap1\n              0x00\n              mstore\n              keccak256(0x00, 0x20)\n              swap1\n              0x08\n              mul\n              add\n                /* \"Entity.sol\":2188:2227  pendingDataToReceive[index].description */\n              0x02\n              add\n                /* \"Entity.sol\":2144:2228  Storage[pendingDataToReceive[index].source][pendingDataToReceive[index].description] */\n              mload(0x40)\n              dup1\n              dup3\n              dup1\n              sload\n              0x01\n              dup2\n              0x01\n              and\n              iszero\n              0x0100\n              mul\n              sub\n              and\n              0x02\n              swap1\n              div\n              dup1\n              iszero\n              tag_576\n              jumpi\n              dup1\n              0x1f\n              lt\n              tag_577\n              jumpi\n              0x0100\n              dup1\n              dup4\n              sload\n              div\n              mul\n              dup4\n              mstore\n              swap2\n              dup3\n              add\n              swap2\n              jump(tag_576)\n            tag_577:\n              dup3\n              add\n              swap2\n              swap1\n              0x00\n              mstore\n              keccak256(0x00, 0x20)\n              swap1\n            tag_578:\n              dup2\n              sload\n              dup2\n              mstore\n              swap1\n              0x01\n              add\n              swap1\n              0x20\n              add\n              dup1\n              dup4\n              gt\n              tag_578\n              jumpi\n            tag_576:\n              pop\n              pop\n              swap3\n              dup4\n              mstore\n              pop\n              pop\n              mload(0x40)\n              swap1\n              dup2\n              swap1\n              sub\n              0x20\n              add\n              swap1\n              keccak256\n              swap1\n              pop\n                /* \"Entity.sol\":2242:2250  uint32 i */\n              0x00\n                /* \"Entity.sol\":2238:2578  for(uint32 i=0; i<pendingDataToReceive[index].key.length; i++){... */\n            tag_579:\n                /* \"Entity.sol\":2256:2276  pendingDataToReceive */\n              0x07\n                /* \"Entity.sol\":2277:2282  index */\n              dup4\n                /* \"Entity.sol\":2256:2283  pendingDataToReceive[index] */\n              0xffffffff\n              and\n              dup2\n              sload\n              dup2\n              lt\n              tag_582\n              jumpi\n              invalid\n            tag_582:\n              swap1\n              0x00\n              mstore\n              keccak256(0x00, 0x20)\n              swap1\n              0x08\n              mul\n              add\n                /* \"Entity.sol\":2256:2287  pendingDataToReceive[index].key */\n              0x03\n              add\n                /* \"Entity.sol\":2256:2294  pendingDataToReceive[index].key.length */\n              dup1\n              sload\n              swap1\n              pop\n                /* \"Entity.sol\":2254:2255  i */\n              dup2\n                /* \"Entity.sol\":2254:2294  i<pendingDataToReceive[index].key.length */\n              0xffffffff\n              and\n              lt\n                /* \"Entity.sol\":2238:2578  for(uint32 i=0; i<pendingDataToReceive[index].key.length; i++){... */\n              iszero\n              tag_580\n              jumpi\n                /* \"Entity.sol\":2369:2389  pendingDataToReceive */\n              0x07\n                /* \"Entity.sol\":2390:2395  index */\n              dup4\n                /* \"Entity.sol\":2369:2396  pendingDataToReceive[index] */\n              0xffffffff\n              and\n              dup2\n              sload\n              dup2\n              lt\n              tag_584\n              jumpi\n              invalid\n            tag_584:\n              swap1\n              0x00\n              mstore\n              keccak256(0x00, 0x20)\n              swap1\n              0x08\n              mul\n              add\n                /* \"Entity.sol\":2369:2402  pendingDataToReceive[index].value */\n              0x06\n              add\n                /* \"Entity.sol\":2403:2404  i */\n              dup2\n                /* \"Entity.sol\":2369:2405  pendingDataToReceive[index].value[i] */\n              0xffffffff\n              and\n              dup2\n              sload\n              dup2\n              lt\n              tag_586\n              jumpi\n              invalid\n            tag_586:\n              swap1\n              0x00\n              mstore\n              keccak256(0x00, 0x20)\n              add\n                /* \"Entity.sol\":2314:2323  toApprove */\n              dup3\n                /* \"Entity.sol\":2314:2330  toApprove.column */\n              0x00\n              add\n                /* \"Entity.sol\":2331:2351  pendingDataToReceive */\n              0x07\n                /* \"Entity.sol\":2352:2357  index */\n              dup6\n                /* \"Entity.sol\":2331:2358  pendingDataToReceive[index] */\n              0xffffffff\n              and\n              dup2\n              sload\n              dup2\n              lt\n              tag_588\n              jumpi\n              invalid\n            tag_588:\n              swap1\n              0x00\n              mstore\n              keccak256(0x00, 0x20)\n              swap1\n              0x08\n              mul\n              add\n                /* \"Entity.sol\":2331:2362  pendingDataToReceive[index].key */\n              0x03\n              add\n                /* \"Entity.sol\":2363:2364  i */\n              dup4\n                /* \"Entity.sol\":2331:2365  pendingDataToReceive[index].key[i] */\n              0xffffffff\n              and\n              dup2\n              sload\n              dup2\n              lt\n              tag_590\n              jumpi\n              invalid\n            tag_590:\n              swap1\n              0x00\n              mstore\n              keccak256(0x00, 0x20)\n              add\n                /* \"Entity.sol\":2314:2366  toApprove.column[pendingDataToReceive[index].key[i]] */\n              mload(0x40)\n              dup1\n              dup3\n              dup1\n              sload\n              0x01\n              dup2\n              0x01\n              and\n              iszero\n              0x0100\n              mul\n              sub\n              and\n              0x02\n              swap1\n              div\n              dup1\n              iszero\n              tag_592\n              jumpi\n              dup1\n              0x1f\n              lt\n              tag_593\n              jumpi\n              0x0100\n              dup1\n              dup4\n              sload\n              div\n              mul\n              dup4\n              mstore\n              swap2\n              dup3\n              add\n              swap2\n              jump(tag_592)\n            tag_593:\n              dup3\n              add\n              swap2\n              swap1\n              0x00\n              mstore\n              keccak256(0x00, 0x20)\n              swap1\n            tag_594:\n              dup2\n              sload\n              dup2\n              mstore\n              swap1\n              0x01\n              add\n              swap1\n              0x20\n              add\n              dup1\n              dup4\n              gt\n              tag_594\n              jumpi\n            tag_592:\n              pop\n              pop\n              swap3\n              dup4\n              mstore\n              pop\n              pop\n              mload(0x40)\n              swap1\n              dup2\n              swap1\n              sub\n              0x20\n              add\n              swap1\n              keccak256\n                /* \"Entity.sol\":2314:2405  toApprove.column[pendingDataToReceive[index].key[i]] = pendingDataToReceive[index].value[i] */\n              dup2\n              sload\n              tag_595\n              swap3\n              swap1\n              0x02\n              not(0x00)\n              0x0100\n              0x01\n              dup5\n              and\n              iszero\n              mul\n              add\n              swap1\n              swap2\n              and\n              div\n              tag_398\n              jump\t// in\n            tag_595:\n              pop\n                /* \"Entity.sol\":2477:2486  toApprove */\n              dup2\n                /* \"Entity.sol\":2477:2491  toApprove.keys */\n              0x01\n              add\n                /* \"Entity.sol\":2531:2551  pendingDataToReceive */\n              0x07\n                /* \"Entity.sol\":2552:2557  index */\n              dup5\n                /* \"Entity.sol\":2531:2558  pendingDataToReceive[index] */\n              0xffffffff\n              and\n              dup2\n              sload\n              dup2\n              lt\n              tag_597\n              jumpi\n              invalid\n            tag_597:\n              swap1\n              0x00\n              mstore\n              keccak256(0x00, 0x20)\n              swap1\n              0x08\n              mul\n              add\n                /* \"Entity.sol\":2531:2562  pendingDataToReceive[index].key */\n              0x03\n              add\n                /* \"Entity.sol\":2563:2564  i */\n              dup3\n                /* \"Entity.sol\":2531:2565  pendingDataToReceive[index].key[i] */\n              0xffffffff\n              and\n              dup2\n              sload\n              dup2\n              lt\n              tag_599\n              jumpi\n              invalid\n            tag_599:\n              swap1\n              0x00\n              mstore\n              keccak256(0x00, 0x20)\n              add\n                /* \"Entity.sol\":2443:2566  abi.encodePacked(... */\n              add(0x20, mload(0x40))\n              dup1\n              dup4\n              dup1\n              sload\n              0x01\n              dup2\n              0x01\n              and\n              iszero\n              0x0100\n              mul\n              sub\n              and\n              0x02\n              swap1\n              div\n              dup1\n              iszero\n              tag_601\n              jumpi\n              dup1\n              0x1f\n              lt\n              tag_602\n              jumpi\n              0x0100\n              dup1\n              dup4\n              sload\n              div\n              mul\n              dup4\n              mstore\n              swap2\n              dup3\n              add\n              swap2\n              jump(tag_601)\n            tag_602:\n              dup3\n              add\n              swap2\n              swap1\n              0x00\n              mstore\n              keccak256(0x00, 0x20)\n              swap1\n            tag_603:\n              dup2\n              sload\n              dup2\n              mstore\n              swap1\n              0x01\n              add\n              swap1\n              0x20\n              add\n              dup1\n              dup4\n              gt\n              tag_603\n              jumpi\n            tag_601:\n              pop\n              pop\n              shl(0xf5, 0x0161)\n              dup2\n              mstore\n              dup3\n              sload\n              0x02\n              swap2\n              dup3\n              add\n              swap2\n              dup5\n              swap2\n              not(0x00)\n              0x0100\n              0x01\n              dup4\n              and\n              iszero\n              mul\n              add\n              and\n              div\n              dup1\n              iszero\n              tag_604\n              jumpi\n              dup1\n              0x1f\n              lt\n              tag_605\n              jumpi\n              0x0100\n              dup1\n              dup4\n              sload\n              div\n              mul\n              dup4\n              mstore\n              swap2\n              dup3\n              add\n              swap2\n              jump(tag_604)\n            tag_605:\n              dup3\n              add\n              swap2\n              swap1\n              0x00\n              mstore\n              keccak256(0x00, 0x20)\n              swap1\n            tag_606:\n              dup2\n              sload\n              dup2\n              mstore\n              swap1\n              0x01\n              add\n              swap1\n              0x20\n              add\n              dup1\n              dup4\n              gt\n              tag_606\n              jumpi\n            tag_604:\n              pop\n              pop\n              0x40\n              dup1\n              mload\n                /* \"--CODEGEN--\":26:47   */\n              dup1\n              dup4\n              sub\n              not(0x1f)\n                /* \"--CODEGEN--\":22:54   */\n              add\n                /* \"--CODEGEN--\":6:55   */\n              dup2\n              mstore\n                /* \"Entity.sol\":2443:2566  abi.encodePacked(... */\n              swap2\n              swap1\n              mstore\n                /* \"Entity.sol\":2419:2567  toApprove.keys = string(abi.encodePacked(... */\n              dup1\n              mload\n              tag_607\n              swap5\n              pop\n                /* \"Entity.sol\":2419:2433  toApprove.keys */\n              0x01\n              dup8\n              add\n              swap4\n              pop\n                /* \"--CODEGEN--\":49:53   */\n              0x20\n                /* \"Entity.sol\":2419:2567  toApprove.keys = string(abi.encodePacked(... */\n              swap1\n              swap2\n              add\n              swap2\n              pop\n              tag_395\n              jump\t// in\n            tag_607:\n              pop\n                /* \"Entity.sol\":2296:2299  i++ */\n              0x01\n              add\n                /* \"Entity.sol\":2238:2578  for(uint32 i=0; i<pendingDataToReceive[index].key.length; i++){... */\n              jump(tag_579)\n            tag_580:\n              pop\n                /* \"Entity.sol\":2591:2601  hasWritten */\n              0x04\n                /* \"Entity.sol\":2591:2637  hasWritten[pendingDataToReceive[index].source] */\n              0x00\n                /* \"Entity.sol\":2602:2622  pendingDataToReceive */\n              0x07\n                /* \"Entity.sol\":2623:2628  index */\n              dup5\n                /* \"Entity.sol\":2602:2629  pendingDataToReceive[index] */\n              0xffffffff\n              and\n              dup2\n              sload\n              dup2\n              lt\n              tag_608\n              jumpi\n              invalid\n            tag_608:\n              0x00\n              swap2\n              dup3\n              mstore\n              0x20\n              dup1\n              dup4\n              keccak256\n              0x08\n              swap3\n              swap1\n              swap3\n              mul\n              swap1\n              swap2\n              add\n                /* \"Entity.sol\":2602:2636  pendingDataToReceive[index].source */\n              sload\n              sub(shl(0xa0, 0x01), 0x01)\n              and\n                /* \"Entity.sol\":2591:2637  hasWritten[pendingDataToReceive[index].source] */\n              dup4\n              mstore\n              dup3\n              add\n              swap3\n              swap1\n              swap3\n              mstore\n              0x40\n              add\n              swap1\n              keccak256\n              sload\n              0xff\n              and\n                /* \"Entity.sol\":2587:2781  if(!hasWritten[pendingDataToReceive[index].source]){... */\n              tag_610\n              jumpi\n                /* \"Entity.sol\":2652:2662  dataSource */\n              0x03\n                /* \"Entity.sol\":2668:2688  pendingDataToReceive */\n              0x07\n                /* \"Entity.sol\":2689:2694  index */\n              dup4\n                /* \"Entity.sol\":2668:2695  pendingDataToReceive[index] */\n              0xffffffff\n              and\n              dup2\n              sload\n              dup2\n              lt\n              tag_611\n              jumpi\n              invalid\n            tag_611:\n              0x00\n              swap2\n              dup3\n              mstore\n              0x20\n              dup1\n              dup4\n              keccak256\n              0x08\n              swap3\n              swap1\n              swap3\n              mul\n              swap1\n              swap2\n              add\n                /* \"Entity.sol\":2668:2702  pendingDataToReceive[index].source */\n              sload\n                /* \"--CODEGEN--\":27:37   */\n              dup4\n              sload\n                /* \"Entity.sol\":2668:2702  pendingDataToReceive[index].source */\n              0x01\n                /* \"--CODEGEN--\":23:41   */\n              dup1\n              dup3\n              add\n                /* \"--CODEGEN--\":45:68   */\n              dup7\n              sstore\n                /* \"Entity.sol\":2652:2703  dataSource.push(pendingDataToReceive[index].source) */\n              swap5\n              dup5\n              mstore\n              swap2\n              dup4\n              keccak256\n              swap1\n              swap2\n              add\n              dup1\n              sload\n              not(sub(shl(0xa0, 0x01), 0x01))\n              and\n              sub(shl(0xa0, 0x01), 0x01)\n                /* \"Entity.sol\":2668:2702  pendingDataToReceive[index].source */\n              swap1\n              swap3\n              and\n                /* \"Entity.sol\":2652:2703  dataSource.push(pendingDataToReceive[index].source) */\n              swap2\n              swap1\n              swap2\n              or\n              swap1\n              sstore\n                /* \"Entity.sol\":2728:2748  pendingDataToReceive */\n              0x07\n                /* \"Entity.sol\":2728:2755  pendingDataToReceive[index] */\n              dup1\n              sload\n                /* \"Entity.sol\":2717:2727  hasWritten */\n              0x04\n              swap3\n                /* \"Entity.sol\":2668:2695  pendingDataToReceive[index] */\n              swap2\n                /* \"Entity.sol\":2728:2748  pendingDataToReceive */\n              swap1\n                /* \"Entity.sol\":2728:2755  pendingDataToReceive[index] */\n              0xffffffff\n              dup8\n              and\n              swap1\n              dup2\n              lt\n              tag_614\n              jumpi\n              invalid\n            tag_614:\n              0x00\n              swap2\n              dup3\n              mstore\n              0x20\n              dup1\n              dup4\n              keccak256\n              0x08\n              swap3\n              swap1\n              swap3\n              mul\n              swap1\n              swap2\n              add\n                /* \"Entity.sol\":2728:2762  pendingDataToReceive[index].source */\n              sload\n              sub(shl(0xa0, 0x01), 0x01)\n              and\n                /* \"Entity.sol\":2717:2763  hasWritten[pendingDataToReceive[index].source] */\n              dup4\n              mstore\n              dup3\n              add\n              swap3\n              swap1\n              swap3\n              mstore\n              0x40\n              add\n              swap1\n              keccak256\n                /* \"Entity.sol\":2717:2770  hasWritten[pendingDataToReceive[index].source] = true */\n              dup1\n              sload\n              not(0xff)\n              and\n              swap2\n              iszero\n              iszero\n              swap2\n              swap1\n              swap2\n              or\n              swap1\n              sstore\n                /* \"Entity.sol\":2587:2781  if(!hasWritten[pendingDataToReceive[index].source]){... */\n            tag_610:\n                /* \"Entity.sol\":2794:2812  writtenDescription */\n              0x06\n                /* \"Entity.sol\":2794:2848  writtenDescription[pendingDataToReceive[index].source] */\n              0x00\n                /* \"Entity.sol\":2813:2833  pendingDataToReceive */\n              0x07\n                /* \"Entity.sol\":2834:2839  index */\n              dup5\n                /* \"Entity.sol\":2813:2840  pendingDataToReceive[index] */\n              0xffffffff\n              and\n              dup2\n              sload\n              dup2\n              lt\n              tag_616\n              jumpi\n              invalid\n            tag_616:\n              0x00\n              swap2\n              dup3\n              mstore\n              0x20\n              dup1\n              dup4\n              keccak256\n              0x08\n              swap3\n              swap1\n              swap3\n              mul\n              swap1\n              swap2\n              add\n                /* \"Entity.sol\":2813:2847  pendingDataToReceive[index].source */\n              sload\n              sub(shl(0xa0, 0x01), 0x01)\n              and\n                /* \"Entity.sol\":2794:2848  writtenDescription[pendingDataToReceive[index].source] */\n              dup4\n              mstore\n              dup3\n              add\n              swap3\n              swap1\n              swap3\n              mstore\n              0x40\n              add\n              swap1\n              keccak256\n                /* \"Entity.sol\":2849:2869  pendingDataToReceive */\n              0x07\n                /* \"Entity.sol\":2849:2876  pendingDataToReceive[index] */\n              dup1\n              sload\n              0xffffffff\n              dup6\n              and\n              swap1\n              dup2\n              lt\n              tag_618\n              jumpi\n              invalid\n            tag_618:\n              swap1\n              0x00\n              mstore\n              keccak256(0x00, 0x20)\n              swap1\n              0x08\n              mul\n              add\n                /* \"Entity.sol\":2849:2888  pendingDataToReceive[index].description */\n              0x02\n              add\n                /* \"Entity.sol\":2794:2889  writtenDescription[pendingDataToReceive[index].source][pendingDataToReceive[index].description] */\n              mload(0x40)\n              dup1\n              dup3\n              dup1\n              sload\n              0x01\n              dup2\n              0x01\n              and\n              iszero\n              0x0100\n              mul\n              sub\n              and\n              0x02\n              swap1\n              div\n              dup1\n              iszero\n              tag_620\n              jumpi\n              dup1\n              0x1f\n              lt\n              tag_621\n              jumpi\n              0x0100\n              dup1\n              dup4\n              sload\n              div\n              mul\n              dup4\n              mstore\n              swap2\n              dup3\n              add\n              swap2\n              jump(tag_620)\n            tag_621:\n              dup3\n              add\n              swap2\n              swap1\n              0x00\n              mstore\n              keccak256(0x00, 0x20)\n              swap1\n            tag_622:\n              dup2\n              sload\n              dup2\n              mstore\n              swap1\n              0x01\n              add\n              swap1\n              0x20\n              add\n              dup1\n              dup4\n              gt\n              tag_622\n              jumpi\n            tag_620:\n              pop\n              pop\n              swap3\n              dup4\n              mstore\n              pop\n              pop\n              mload(0x40)\n              swap1\n              dup2\n              swap1\n              sub\n              0x20\n              add\n              swap1\n              keccak256\n              sload\n              0xff\n              and\n                /* \"Entity.sol\":2790:3133  if(!writtenDescription[pendingDataToReceive[index].source][pendingDataToReceive[index].description]){... */\n              tag_623\n              jumpi\n                /* \"Entity.sol\":2904:2924  descriptionsBySource */\n              0x05\n                /* \"Entity.sol\":2904:2960  descriptionsBySource[pendingDataToReceive[index].source] */\n              0x00\n                /* \"Entity.sol\":2925:2945  pendingDataToReceive */\n              0x07\n                /* \"Entity.sol\":2946:2951  index */\n              dup5\n                /* \"Entity.sol\":2925:2952  pendingDataToReceive[index] */\n              0xffffffff\n              and\n              dup2\n              sload\n              dup2\n              lt\n              tag_624\n              jumpi\n              invalid\n            tag_624:\n              0x00\n              swap2\n              dup3\n              mstore\n              0x20\n              dup1\n              dup4\n              keccak256\n              0x08\n              swap3\n              swap1\n              swap3\n              mul\n              swap1\n              swap2\n              add\n                /* \"Entity.sol\":2925:2959  pendingDataToReceive[index].source */\n              sload\n              sub(shl(0xa0, 0x01), 0x01)\n              and\n                /* \"Entity.sol\":2904:2960  descriptionsBySource[pendingDataToReceive[index].source] */\n              dup4\n              mstore\n              dup3\n              add\n              swap3\n              swap1\n              swap3\n              mstore\n              0x40\n              add\n              swap1\n              keccak256\n                /* \"Entity.sol\":2966:2986  pendingDataToReceive */\n              0x07\n                /* \"Entity.sol\":2966:2993  pendingDataToReceive[index] */\n              dup1\n              sload\n              0xffffffff\n              dup6\n              and\n              swap1\n              dup2\n              lt\n              tag_626\n              jumpi\n              invalid\n            tag_626:\n              0x00\n              swap2\n              dup3\n              mstore\n              0x20\n              dup1\n              dup4\n              keccak256\n                /* \"--CODEGEN--\":27:37   */\n              dup5\n              sload\n                /* \"--CODEGEN--\":39:40   */\n              0x01\n                /* \"--CODEGEN--\":23:41   */\n              dup1\n              dup3\n              add\n                /* \"--CODEGEN--\":45:68   */\n              dup8\n              sstore\n                /* \"Entity.sol\":2904:3006  descriptionsBySource[pendingDataToReceive[index].source].push(pendingDataToReceive[index].description) */\n              swap6\n              dup6\n              mstore\n              swap2\n              swap1\n              swap4\n              keccak256\n                /* \"Entity.sol\":2966:2993  pendingDataToReceive[index] */\n              0x08\n              swap3\n              swap1\n              swap3\n              mul\n              swap1\n              swap3\n              add\n                /* \"Entity.sol\":2966:3005  pendingDataToReceive[index].description */\n              0x02\n              swap1\n              dup2\n              add\n                /* \"Entity.sol\":2904:3006  descriptionsBySource[pendingDataToReceive[index].source].push(pendingDataToReceive[index].description) */\n              dup1\n              sload\n              tag_629\n              swap6\n              swap4\n              swap1\n              swap5\n              add\n              swap4\n                /* \"Entity.sol\":2966:3005  pendingDataToReceive[index].description */\n              swap1\n              swap3\n              not(0x00)\n                /* \"Entity.sol\":2904:3006  descriptionsBySource[pendingDataToReceive[index].source].push(pendingDataToReceive[index].description) */\n              swap1\n              dup3\n              and\n              iszero\n              0x0100\n              mul\n              add\n              and\n              div\n              tag_398\n              jump\t// in\n            tag_629:\n              pop\n                /* \"Entity.sol\":3118:3122  true */\n              0x01\n                /* \"Entity.sol\":3020:3038  writtenDescription */\n              0x06\n                /* \"Entity.sol\":3020:3074  writtenDescription[pendingDataToReceive[index].source] */\n              0x00\n                /* \"Entity.sol\":3039:3059  pendingDataToReceive */\n              0x07\n                /* \"Entity.sol\":3060:3065  index */\n              dup6\n                /* \"Entity.sol\":3039:3066  pendingDataToReceive[index] */\n              0xffffffff\n              and\n              dup2\n              sload\n              dup2\n              lt\n              tag_630\n              jumpi\n              invalid\n            tag_630:\n              0x00\n              swap2\n              dup3\n              mstore\n              0x20\n              dup1\n              dup4\n              keccak256\n              0x08\n              swap3\n              swap1\n              swap3\n              mul\n              swap1\n              swap2\n              add\n                /* \"Entity.sol\":3039:3073  pendingDataToReceive[index].source */\n              sload\n              sub(shl(0xa0, 0x01), 0x01)\n              and\n                /* \"Entity.sol\":3020:3074  writtenDescription[pendingDataToReceive[index].source] */\n              dup4\n              mstore\n              dup3\n              add\n              swap3\n              swap1\n              swap3\n              mstore\n              0x40\n              add\n              swap1\n              keccak256\n                /* \"Entity.sol\":3075:3095  pendingDataToReceive */\n              0x07\n                /* \"Entity.sol\":3075:3102  pendingDataToReceive[index] */\n              dup1\n              sload\n              0xffffffff\n              dup7\n              and\n              swap1\n              dup2\n              lt\n              tag_632\n              jumpi\n              invalid\n            tag_632:\n              swap1\n              0x00\n              mstore\n              keccak256(0x00, 0x20)\n              swap1\n              0x08\n              mul\n              add\n                /* \"Entity.sol\":3075:3114  pendingDataToReceive[index].description */\n              0x02\n              add\n                /* \"Entity.sol\":3020:3115  writtenDescription[pendingDataToReceive[index].source][pendingDataToReceive[index].description] */\n              mload(0x40)\n              dup1\n              dup3\n              dup1\n              sload\n              0x01\n              dup2\n              0x01\n              and\n              iszero\n              0x0100\n              mul\n              sub\n              and\n              0x02\n              swap1\n              div\n              dup1\n              iszero\n              tag_634\n              jumpi\n              dup1\n              0x1f\n              lt\n              tag_635\n              jumpi\n              0x0100\n              dup1\n              dup4\n              sload\n              div\n              mul\n              dup4\n              mstore\n              swap2\n              dup3\n              add\n              swap2\n              jump(tag_634)\n            tag_635:\n              dup3\n              add\n              swap2\n              swap1\n              0x00\n              mstore\n              keccak256(0x00, 0x20)\n              swap1\n            tag_636:\n              dup2\n              sload\n              dup2\n              mstore\n              swap1\n              0x01\n              add\n              swap1\n              0x20\n              add\n              dup1\n              dup4\n              gt\n              tag_636\n              jumpi\n            tag_634:\n              pop\n              pop\n              swap3\n              dup4\n              mstore\n              pop\n              pop\n              mload(0x40)\n              swap1\n              dup2\n              swap1\n              sub\n              0x20\n              add\n              swap1\n              keccak256\n                /* \"Entity.sol\":3020:3122  writtenDescription[pendingDataToReceive[index].source][pendingDataToReceive[index].description] = true */\n              dup1\n              sload\n              swap2\n              iszero\n              iszero\n              not(0xff)\n              swap1\n              swap3\n              and\n              swap2\n              swap1\n              swap2\n              or\n              swap1\n              sstore\n                /* \"Entity.sol\":2790:3133  if(!writtenDescription[pendingDataToReceive[index].source][pendingDataToReceive[index].description]){... */\n            tag_623:\n                /* \"Entity.sol\":3181:3185  true */\n              0x01\n                /* \"Entity.sol\":3142:3162  pendingDataToReceive */\n              0x07\n                /* \"Entity.sol\":3163:3168  index */\n              dup4\n                /* \"Entity.sol\":3142:3169  pendingDataToReceive[index] */\n              0xffffffff\n              and\n              dup2\n              sload\n              dup2\n              lt\n              tag_637\n              jumpi\n              invalid\n            tag_637:\n              0x00\n              swap2\n              dup3\n              mstore\n              0x20\n              swap1\n              swap2\n              keccak256\n              0x08\n              swap1\n              swap2\n              mul\n              add\n                /* \"Entity.sol\":3142:3178  pendingDataToReceive[index].approved */\n              0x07\n              add\n                /* \"Entity.sol\":3142:3185  pendingDataToReceive[index].approved = true */\n              dup1\n              sload\n              not(0xff)\n              and\n              swap2\n              iszero\n              iszero\n              swap2\n              swap1\n              swap2\n              or\n              swap1\n              sstore\n              pop\n              pop\n                /* \"Entity.sol\":1979:3192  function _approveDataToReceive(uint32 index) ... */\n              jump\t// out\n                /* \"strings.sol\":3473:3683  function toSlice(string memory self) internal pure returns (slice memory) {... */\n            tag_405:\n                /* \"strings.sol\":3533:3545  slice memory */\n              tag_639\n              tag_403\n              jump\t// in\n            tag_639:\n              pop\n                /* \"strings.sol\":3646:3676  slice(bytes(self).length, ptr) */\n              0x40\n              dup1\n              mload\n              dup1\n              dup3\n              add\n              swap1\n              swap2\n              mstore\n                /* \"strings.sol\":3652:3670  bytes(self).length */\n              dup2\n              mload\n                /* \"strings.sol\":3646:3676  slice(bytes(self).length, ptr) */\n              dup2\n              mstore\n                /* \"strings.sol\":3615:3619  0x20 */\n              0x20\n                /* \"strings.sol\":3605:3620  add(self, 0x20) */\n              dup3\n              dup2\n              add\n                /* \"strings.sol\":3646:3676  slice(bytes(self).length, ptr) */\n              swap1\n              dup3\n              add\n              mstore\n                /* \"strings.sol\":3473:3683  function toSlice(string memory self) internal pure returns (slice memory) {... */\n              swap2\n              swap1\n              pop\n              jump\t// out\n                /* \"strings.sol\":23549:23913  function count(slice memory self, slice memory needle) internal pure returns (uint cnt) {... */\n            tag_411:\n                /* \"strings.sol\":23627:23635  uint cnt */\n              0x00\n                /* \"strings.sol\":23647:23655  uint ptr */\n              dup1\n                /* \"strings.sol\":23716:23722  needle */\n              dup3\n                /* \"strings.sol\":23716:23727  needle._len */\n              0x00\n              add\n              mload\n                /* \"strings.sol\":23658:23713  findPtr(self._len, self._ptr, needle._len, needle._ptr) */\n              tag_642\n                /* \"strings.sol\":23666:23670  self */\n              dup6\n                /* \"strings.sol\":23666:23675  self._len */\n              0x00\n              add\n              mload\n                /* \"strings.sol\":23677:23681  self */\n              dup7\n                /* \"strings.sol\":23677:23686  self._ptr */\n              0x20\n              add\n              mload\n                /* \"strings.sol\":23688:23694  needle */\n              dup7\n                /* \"strings.sol\":23688:23699  needle._len */\n              0x00\n              add\n              mload\n                /* \"strings.sol\":23701:23707  needle */\n              dup8\n                /* \"strings.sol\":23701:23712  needle._ptr */\n              0x20\n              add\n              mload\n                /* \"strings.sol\":23658:23665  findPtr */\n              tag_643\n                /* \"strings.sol\":23658:23713  findPtr(self._len, self._ptr, needle._len, needle._ptr) */\n              jump\t// in\n            tag_642:\n                /* \"strings.sol\":23658:23727  findPtr(self._len, self._ptr, needle._len, needle._ptr) + needle._len */\n              add\n                /* \"strings.sol\":23647:23727  uint ptr = findPtr(self._len, self._ptr, needle._len, needle._ptr) + needle._len */\n              swap1\n              pop\n                /* \"strings.sol\":23737:23907  while (ptr <= self._ptr + self._len) {... */\n            tag_644:\n                /* \"strings.sol\":23763:23772  self._len */\n              dup4\n              mload\n                /* \"strings.sol\":23751:23760  self._ptr */\n              0x20\n              dup6\n              add\n              mload\n                /* \"strings.sol\":23751:23772  self._ptr + self._len */\n              add\n                /* \"strings.sol\":23744:23772  ptr <= self._ptr + self._len */\n              dup2\n              gt\n                /* \"strings.sol\":23737:23907  while (ptr <= self._ptr + self._len) {... */\n              tag_645\n              jumpi\n                /* \"strings.sol\":23885:23896  needle._len */\n              dup3\n              mload\n                /* \"strings.sol\":23840:23849  self._ptr */\n              0x20\n              dup1\n              dup7\n              add\n              mload\n                /* \"strings.sol\":23821:23830  self._len */\n              dup7\n              mload\n                /* \"strings.sol\":23870:23881  needle._ptr */\n              swap2\n              dup7\n              add\n              mload\n                /* \"strings.sol\":23788:23793  cnt++ */\n              0x01\n              swap1\n              swap6\n              add\n              swap5\n                /* \"strings.sol\":23813:23882  findPtr(self._len - (ptr - self._ptr), ptr, needle._len, needle._ptr) */\n              tag_646\n              swap3\n                /* \"strings.sol\":23834:23849  ptr - self._ptr */\n              swap2\n              dup6\n              sub\n                /* \"strings.sol\":23821:23850  self._len - (ptr - self._ptr) */\n              swap1\n              swap2\n              sub\n              swap1\n                /* \"strings.sol\":23834:23837  ptr */\n              dup5\n              swap1\n                /* \"strings.sol\":23885:23896  needle._len */\n              dup5\n              swap1\n                /* \"strings.sol\":23813:23820  findPtr */\n              tag_643\n                /* \"strings.sol\":23813:23882  findPtr(self._len - (ptr - self._ptr), ptr, needle._len, needle._ptr) */\n              jump\t// in\n            tag_646:\n                /* \"strings.sol\":23813:23896  findPtr(self._len - (ptr - self._ptr), ptr, needle._len, needle._ptr) + needle._len */\n              add\n                /* \"strings.sol\":23807:23896  ptr = findPtr(self._len - (ptr - self._ptr), ptr, needle._len, needle._ptr) + needle._len */\n              swap1\n              pop\n                /* \"strings.sol\":23737:23907  while (ptr <= self._ptr + self._len) {... */\n              jump(tag_644)\n            tag_645:\n                /* \"strings.sol\":23549:23913  function count(slice memory self, slice memory needle) internal pure returns (uint cnt) {... */\n              pop\n              swap3\n              swap2\n              pop\n              pop\n              jump\t// out\n                /* \"strings.sol\":21563:21704  function split(slice memory self, slice memory needle) internal pure returns (slice memory token) {... */\n            tag_417:\n                /* \"strings.sol\":21641:21659  slice memory token */\n              tag_647\n              tag_403\n              jump\t// in\n            tag_647:\n                /* \"strings.sol\":21671:21697  split(self, needle, token) */\n              tag_645\n                /* \"strings.sol\":21677:21681  self */\n              dup4\n                /* \"strings.sol\":21683:21689  needle */\n              dup4\n                /* \"strings.sol\":21691:21696  token */\n              dup4\n                /* \"strings.sol\":21671:21676  split */\n              tag_650\n                /* \"strings.sol\":21671:21697  split(self, needle, token) */\n              jump\t// in\n                /* \"strings.sol\":5847:6112  function toString(slice memory self) internal pure returns (string memory) {... */\n            tag_418:\n                /* \"strings.sol\":5907:5920  string memory */\n              0x60\n                /* \"strings.sol\":5932:5949  string memory ret */\n              dup1\n                /* \"strings.sol\":5963:5967  self */\n              dup3\n                /* \"strings.sol\":5963:5972  self._len */\n              0x00\n              add\n              mload\n                /* \"strings.sol\":5952:5973  new string(self._len) */\n              0xffffffffffffffff\n              dup2\n              gt\n                /* \"--CODEGEN--\":5:14   */\n              dup1\n                /* \"--CODEGEN--\":2:4   */\n              iszero\n              tag_652\n              jumpi\n                /* \"--CODEGEN--\":27:28   */\n              0x00\n                /* \"--CODEGEN--\":24:25   */\n              dup1\n                /* \"--CODEGEN--\":17:29   */\n              revert\n                /* \"--CODEGEN--\":2:4   */\n            tag_652:\n                /* \"strings.sol\":5952:5973  new string(self._len) */\n              pop\n              mload(0x40)\n              swap1\n              dup1\n              dup3\n              mstore\n              dup1\n              0x1f\n              add\n              not(0x1f)\n              and\n              0x20\n              add\n              dup3\n              add\n              0x40\n              mstore\n              dup1\n              iszero\n              tag_653\n              jumpi\n              0x20\n              dup3\n              add\n                /* \"--CODEGEN--\":21:27   */\n              dup2\n              dup1\n                /* \"--CODEGEN--\":108:122   */\n              calldatasize\n                /* \"strings.sol\":5952:5973  new string(self._len) */\n              dup4\n                /* \"--CODEGEN--\":87:129   */\n              calldatacopy\n                /* \"--CODEGEN--\":143:160   */\n              add\n              swap1\n              pop\n                /* \"strings.sol\":5952:5973  new string(self._len) */\n            tag_653:\n              pop\n                /* \"strings.sol\":5932:5973  string memory ret = new string(self._len) */\n              swap1\n              pop\n                /* \"strings.sol\":5983:5994  uint retptr */\n              0x00\n                /* \"strings.sol\":6034:6036  32 */\n              0x20\n                /* \"strings.sol\":6029:6032  ret */\n              dup3\n                /* \"strings.sol\":6025:6037  add(ret, 32) */\n              add\n                /* \"strings.sol\":6015:6037  retptr := add(ret, 32) */\n              swap1\n              pop\n                /* \"strings.sol\":6049:6085  memcpy(retptr, self._ptr, self._len) */\n              tag_645\n                /* \"strings.sol\":6056:6062  retptr */\n              dup2\n                /* \"strings.sol\":6064:6068  self */\n              dup6\n                /* \"strings.sol\":6064:6073  self._ptr */\n              0x20\n              add\n              mload\n                /* \"strings.sol\":6075:6079  self */\n              dup7\n                /* \"strings.sol\":6075:6084  self._len */\n              0x00\n              add\n              mload\n                /* \"strings.sol\":6049:6055  memcpy */\n              tag_655\n                /* \"strings.sol\":6049:6085  memcpy(retptr, self._ptr, self._len) */\n              jump\t// in\n                /* \"strings.sol\":15994:17366  function findPtr(uint selflen, uint selfptr, uint needlelen, uint needleptr) private pure returns (uint) {... */\n            tag_643:\n                /* \"strings.sol\":16093:16097  uint */\n              0x00\n                /* \"strings.sol\":16120:16127  selfptr */\n              dup4\n                /* \"strings.sol\":16093:16097  uint */\n              dup2\n                /* \"strings.sol\":16160:16180  needlelen <= selflen */\n              dup7\n              dup6\n              gt\n                /* \"strings.sol\":16156:17326  if (needlelen <= selflen) {... */\n              tag_662\n              jumpi\n                /* \"strings.sol\":16213:16215  32 */\n              0x20\n                /* \"strings.sol\":16200:16209  needlelen */\n              dup6\n                /* \"strings.sol\":16200:16215  needlelen <= 32 */\n              gt\n                /* \"strings.sol\":16196:17316  if (needlelen <= 32) {... */\n              tag_658\n              jumpi\n                /* \"strings.sol\":16377:16393  mload(needleptr) */\n              dup4\n              mload\n                /* \"strings.sol\":16537:16547  mload(ptr) */\n              dup3\n              mload\n                /* \"strings.sol\":16271:16273  32 */\n              0x20\n                /* \"strings.sol\":16271:16285  32 - needlelen */\n              dup8\n              swap1\n              sub\n                /* \"strings.sol\":16266:16267  8 */\n              0x08\n                /* \"strings.sol\":16266:16286  8 * (32 - needlelen) */\n              mul\n                /* \"strings.sol\":16260:16261  2 */\n              0x02\n                /* \"strings.sol\":16260:16287  2 ** (8 * (32 - needlelen)) */\n              exp\n              not(0x00)\n                /* \"strings.sol\":16260:16291  2 ** (8 * (32 - needlelen)) - 1 */\n              add\n                /* \"strings.sol\":16258:16292  ~(2 ** (8 * (32 - needlelen)) - 1) */\n              not\n              swap2\n                /* \"strings.sol\":16373:16400  and(mload(needleptr), mask) */\n              dup3\n              and\n              swap1\n                /* \"strings.sol\":16431:16448  selfptr + selflen */\n              dup10\n              dup10\n              add\n                /* \"strings.sol\":16431:16460  selfptr + selflen - needlelen */\n              dup9\n              swap1\n              sub\n              swap1\n                /* \"strings.sol\":16533:16554  and(mload(ptr), mask) */\n              dup4\n              and\n                /* \"strings.sol\":16574:16802  while (ptrdata != needledata) {... */\n            tag_659:\n                /* \"strings.sol\":16592:16602  needledata */\n              dup3\n                /* \"strings.sol\":16581:16588  ptrdata */\n              dup2\n                /* \"strings.sol\":16581:16602  ptrdata != needledata */\n              eq\n                /* \"strings.sol\":16574:16802  while (ptrdata != needledata) {... */\n              tag_660\n              jumpi\n                /* \"strings.sol\":16637:16640  end */\n              dup2\n                /* \"strings.sol\":16630:16633  ptr */\n              dup7\n                /* \"strings.sol\":16630:16640  ptr >= end */\n              lt\n                /* \"strings.sol\":16626:16690  if (ptr >= end)... */\n              tag_661\n              jumpi\n                /* \"strings.sol\":16683:16690  selflen */\n              dup11\n                /* \"strings.sol\":16673:16680  selfptr */\n              dup11\n                /* \"strings.sol\":16673:16690  selfptr + selflen */\n              add\n                /* \"strings.sol\":16666:16690  return selfptr + selflen */\n              swap7\n              pop\n              pop\n              pop\n              pop\n              pop\n              pop\n              pop\n              jump(tag_656)\n                /* \"strings.sol\":16626:16690  if (ptr >= end)... */\n            tag_661:\n              pop\n                /* \"strings.sol\":16712:16717  ptr++ */\n              0x01\n              swap1\n              swap5\n              add\n                /* \"strings.sol\":16765:16775  mload(ptr) */\n              dup1\n              mload\n                /* \"strings.sol\":16712:16717  ptr++ */\n              swap1\n              swap5\n              swap1\n                /* \"strings.sol\":16761:16782  and(mload(ptr), mask) */\n              dup4\n              and\n                /* \"strings.sol\":16748:16784  { ptrdata := and(mload(ptr), mask) } */\n              jump(tag_659)\n            tag_660:\n                /* \"strings.sol\":16826:16829  ptr */\n              dup6\n                /* \"strings.sol\":16819:16829  return ptr */\n              swap7\n              pop\n              pop\n              pop\n              pop\n              pop\n              pop\n              pop\n              jump(tag_656)\n                /* \"strings.sol\":16196:17316  if (needlelen <= 32) {... */\n            tag_658:\n              pop\n                /* \"strings.sol\":16966:16997  keccak256(needleptr, needlelen) */\n              dup4\n              dup4\n              keccak256\n                /* \"strings.sol\":16917:16929  bytes32 hash */\n              0x00\n              swap1\n                /* \"strings.sol\":17017:17302  for (idx = 0; idx <= selflen - needlelen; idx++) {... */\n            tag_663:\n                /* \"strings.sol\":17048:17057  needlelen */\n              dup6\n                /* \"strings.sol\":17038:17045  selflen */\n              dup9\n                /* \"strings.sol\":17038:17057  selflen - needlelen */\n              sub\n                /* \"strings.sol\":17031:17034  idx */\n              dup3\n                /* \"strings.sol\":17031:17057  idx <= selflen - needlelen */\n              gt\n                /* \"strings.sol\":17017:17302  for (idx = 0; idx <= selflen - needlelen; idx++) {... */\n              tag_664\n              jumpi\n                /* \"strings.sol\":17149:17174  keccak256(ptr, needlelen) */\n              dup6\n              dup4\n              keccak256\n                /* \"strings.sol\":17201:17217  hash == testHash */\n              dup2\n              dup2\n              eq\n                /* \"strings.sol\":17197:17253  if (hash == testHash)... */\n              iszero\n              tag_666\n              jumpi\n                /* \"strings.sol\":17250:17253  ptr */\n              dup4\n                /* \"strings.sol\":17243:17253  return ptr */\n              swap5\n              pop\n              pop\n              pop\n              pop\n              pop\n              jump(tag_656)\n                /* \"strings.sol\":17197:17253  if (hash == testHash)... */\n            tag_666:\n              pop\n                /* \"strings.sol\":17282:17283  1 */\n              0x01\n                /* \"strings.sol\":17275:17283  ptr += 1 */\n              swap3\n              dup4\n              add\n              swap3\n                /* \"strings.sol\":17059:17064  idx++ */\n              swap2\n              swap1\n              swap2\n              add\n              swap1\n                /* \"strings.sol\":17017:17302  for (idx = 0; idx <= selflen - needlelen; idx++) {... */\n              jump(tag_663)\n            tag_664:\n                /* \"strings.sol\":16196:17316  if (needlelen <= 32) {... */\n              pop\n            tag_662:\n              pop\n              pop\n              pop\n                /* \"strings.sol\":17342:17359  selfptr + selflen */\n              dup3\n              dup5\n              add\n                /* \"strings.sol\":15994:17366  function findPtr(uint selflen, uint selfptr, uint needlelen, uint needleptr) private pure returns (uint) {... */\n            tag_656:\n              swap5\n              swap4\n              pop\n              pop\n              pop\n              pop\n              jump\t// out\n                /* \"strings.sol\":20588:21092  function split(slice memory self, slice memory needle, slice memory token) internal pure returns (slice memory) {... */\n            tag_650:\n                /* \"strings.sol\":20686:20698  slice memory */\n              tag_667\n              tag_403\n              jump\t// in\n            tag_667:\n                /* \"strings.sol\":20710:20718  uint ptr */\n              0x00\n                /* \"strings.sol\":20721:20776  findPtr(self._len, self._ptr, needle._len, needle._ptr) */\n              tag_669\n                /* \"strings.sol\":20729:20733  self */\n              dup6\n                /* \"strings.sol\":20729:20738  self._len */\n              0x00\n              add\n              mload\n                /* \"strings.sol\":20740:20744  self */\n              dup7\n                /* \"strings.sol\":20740:20749  self._ptr */\n              0x20\n              add\n              mload\n                /* \"strings.sol\":20751:20757  needle */\n              dup7\n                /* \"strings.sol\":20751:20762  needle._len */\n              0x00\n              add\n              mload\n                /* \"strings.sol\":20764:20770  needle */\n              dup8\n                /* \"strings.sol\":20764:20775  needle._ptr */\n              0x20\n              add\n              mload\n                /* \"strings.sol\":20721:20728  findPtr */\n              tag_643\n                /* \"strings.sol\":20721:20776  findPtr(self._len, self._ptr, needle._len, needle._ptr) */\n              jump\t// in\n            tag_669:\n                /* \"strings.sol\":20799:20808  self._ptr */\n              0x20\n              dup1\n              dup8\n              add\n              dup1\n              mload\n                /* \"strings.sol\":20786:20796  token._ptr */\n              swap2\n              dup7\n              add\n                /* \"strings.sol\":20786:20808  token._ptr = self._ptr */\n              swap2\n              swap1\n              swap2\n              mstore\n                /* \"strings.sol\":20837:20846  self._ptr */\n              dup1\n              mload\n                /* \"strings.sol\":20831:20846  ptr - self._ptr */\n              dup3\n              sub\n                /* \"strings.sol\":20818:20846  token._len = ptr - self._ptr */\n              dup6\n              mstore\n                /* \"strings.sol\":20879:20888  self._len */\n              dup7\n              mload\n                /* \"strings.sol\":20867:20876  self._ptr */\n              swap1\n              mload\n                /* \"strings.sol\":20710:20776  uint ptr = findPtr(self._len, self._ptr, needle._len, needle._ptr) */\n              swap2\n              swap3\n              pop\n                /* \"strings.sol\":20867:20888  self._ptr + self._len */\n              add\n                /* \"strings.sol\":20860:20888  ptr == self._ptr + self._len */\n              dup2\n              eq\n                /* \"strings.sol\":20856:21064  if (ptr == self._ptr + self._len) {... */\n              iszero\n              tag_670\n              jumpi\n                /* \"strings.sol\":20941:20942  0 */\n              0x00\n                /* \"strings.sol\":20929:20942  self._len = 0 */\n              dup6\n              mstore\n                /* \"strings.sol\":20856:21064  if (ptr == self._ptr + self._len) {... */\n              jump(tag_671)\n            tag_670:\n                /* \"strings.sol\":20999:21010  needle._len */\n              dup4\n              mload\n                /* \"strings.sol\":20986:20996  token._len */\n              dup4\n              mload\n                /* \"strings.sol\":20973:21010  self._len -= token._len + needle._len */\n              dup7\n              mload\n                /* \"strings.sol\":20986:21010  token._len + needle._len */\n              swap2\n              add\n                /* \"strings.sol\":20973:21010  self._len -= token._len + needle._len */\n              swap1\n              sub\n              dup6\n              mstore\n                /* \"strings.sol\":21042:21053  needle._len */\n              dup4\n              mload\n                /* \"strings.sol\":21036:21053  ptr + needle._len */\n              dup2\n              add\n                /* \"strings.sol\":21024:21033  self._ptr */\n              0x20\n              dup7\n              add\n                /* \"strings.sol\":21024:21053  self._ptr = ptr + needle._len */\n              mstore\n                /* \"strings.sol\":20856:21064  if (ptr == self._ptr + self._len) {... */\n            tag_671:\n              pop\n                /* \"strings.sol\":21080:21085  token */\n              swap1\n              swap4\n                /* \"strings.sol\":20588:21092  function split(slice memory self, slice memory needle, slice memory token) internal pure returns (slice memory) {... */\n              swap3\n              pop\n              pop\n              pop\n              jump\t// out\n                /* \"strings.sol\":2724:3273  function memcpy(uint dest, uint src, uint len) internal pure {... */\n            tag_655:\n                /* \"strings.sol\":2845:3009  for(; len >= 32; len -= 32) {... */\n            tag_673:\n                /* \"strings.sol\":2858:2860  32 */\n              0x20\n                /* \"strings.sol\":2851:2854  len */\n              dup2\n                /* \"strings.sol\":2851:2860  len >= 32 */\n              lt\n                /* \"strings.sol\":2845:3009  for(; len >= 32; len -= 32) {... */\n              tag_674\n              jumpi\n                /* \"strings.sol\":2927:2937  mload(src) */\n              dup2\n              mload\n                /* \"strings.sol\":2914:2938  mstore(dest, mload(src)) */\n              dup4\n              mstore\n                /* \"strings.sol\":2973:2975  32 */\n              0x20\n                /* \"strings.sol\":2965:2975  dest += 32 */\n              swap3\n              dup4\n              add\n              swap3\n                /* \"strings.sol\":2989:2998  src += 32 */\n              swap1\n              swap2\n              add\n              swap1\n              not(0x1f)\n                /* \"strings.sol\":2862:2871  len -= 32 */\n              add\n                /* \"strings.sol\":2845:3009  for(; len >= 32; len -= 32) {... */\n              jump(tag_673)\n            tag_674:\n                /* \"strings.sol\":3136:3146  mload(src) */\n              swap1\n              mload\n                /* \"strings.sol\":3191:3202  mload(dest) */\n              dup3\n              mload\n                /* \"strings.sol\":3071:3073  32 */\n              0x20\n                /* \"strings.sol\":3071:3079  32 - len */\n              swap3\n              swap1\n              swap3\n              sub\n                /* \"strings.sol\":3063:3066  256 */\n              0x0100\n                /* \"strings.sol\":3063:3080  256 ** (32 - len) */\n              exp\n              not(0x00)\n                /* \"strings.sol\":3063:3084  256 ** (32 - len) - 1 */\n              add\n                /* \"strings.sol\":3148:3157  not(mask) */\n              dup1\n              not\n                /* \"strings.sol\":3132:3158  and(mload(src), not(mask)) */\n              swap1\n              swap2\n              and\n                /* \"strings.sol\":3187:3209  and(mload(dest), mask) */\n              swap2\n              and\n                /* \"strings.sol\":3235:3256  or(destpart, srcpart) */\n              or\n                /* \"strings.sol\":3222:3257  mstore(dest, or(destpart, srcpart)) */\n              swap1\n              mstore\n                /* \"strings.sol\":3103:3267  {... */\n              jump\t// out\n                /* \"MultipleEntity.sol\":49:1834  contract MultipleEntity is Entity {... */\n            tag_395:\n              dup3\n              dup1\n              sload\n              0x01\n              dup2\n              0x01\n              and\n              iszero\n              0x0100\n              mul\n              sub\n              and\n              0x02\n              swap1\n              div\n              swap1\n              0x00\n              mstore\n              keccak256(0x00, 0x20)\n              swap1\n              0x1f\n              add\n              0x20\n              swap1\n              div\n              dup2\n              add\n              swap3\n              dup3\n              0x1f\n              lt\n              tag_677\n              jumpi\n              dup1\n              mload\n              not(0xff)\n              and\n              dup4\n              dup1\n              add\n              or\n              dup6\n              sstore\n              jump(tag_679)\n            tag_677:\n              dup3\n              dup1\n              add\n              0x01\n              add\n              dup6\n              sstore\n              dup3\n              iszero\n              tag_679\n              jumpi\n              swap2\n              dup3\n              add\n            tag_678:\n              dup3\n              dup2\n              gt\n              iszero\n              tag_679\n              jumpi\n              dup3\n              mload\n              dup3\n              sstore\n              swap2\n              0x20\n              add\n              swap2\n              swap1\n              0x01\n              add\n              swap1\n              jump(tag_678)\n            tag_679:\n              pop\n              tag_680\n              swap3\n              swap2\n              pop\n              tag_681\n              jump\t// in\n            tag_680:\n              pop\n              swap1\n              jump\t// out\n            tag_398:\n              dup3\n              dup1\n              sload\n              0x01\n              dup2\n              0x01\n              and\n              iszero\n              0x0100\n              mul\n              sub\n              and\n              0x02\n              swap1\n              div\n              swap1\n              0x00\n              mstore\n              keccak256(0x00, 0x20)\n              swap1\n              0x1f\n              add\n              0x20\n              swap1\n              div\n              dup2\n              add\n              swap3\n              dup3\n              0x1f\n              lt\n              tag_683\n              jumpi\n              dup1\n              sload\n              dup6\n              sstore\n              jump(tag_679)\n            tag_683:\n              dup3\n              dup1\n              add\n              0x01\n              add\n              dup6\n              sstore\n              dup3\n              iszero\n              tag_679\n              jumpi\n              0x00\n              mstore\n              keccak256(0x00, 0x20)\n              swap2\n              0x1f\n              add\n              0x20\n              swap1\n              div\n              dup3\n              add\n            tag_684:\n              dup3\n              dup2\n              gt\n              iszero\n              tag_679\n              jumpi\n              dup3\n              sload\n              dup3\n              sstore\n              swap2\n              0x01\n              add\n              swap2\n              swap1\n              0x01\n              add\n              swap1\n              jump(tag_684)\n            tag_400:\n              dup3\n              dup1\n              sload\n              dup3\n              dup3\n              sstore\n              swap1\n              0x00\n              mstore\n              keccak256(0x00, 0x20)\n              swap1\n              dup2\n              add\n              swap3\n              dup3\n              iszero\n              tag_689\n              jumpi\n              0x00\n              mstore\n              keccak256(0x00, 0x20)\n              swap2\n              dup3\n              add\n            tag_688:\n              dup3\n              dup2\n              gt\n              iszero\n              tag_689\n              jumpi\n              dup3\n              dup3\n              swap1\n              dup1\n              sload\n              0x01\n              dup2\n              0x01\n              and\n              iszero\n              0x0100\n              mul\n              sub\n              and\n              0x02\n              swap1\n              div\n              tag_690\n              swap3\n              swap2\n              swap1\n              tag_398\n              jump\t// in\n            tag_690:\n              pop\n              swap2\n              0x01\n              add\n              swap2\n              swap1\n              0x01\n              add\n              swap1\n              jump(tag_688)\n            tag_689:\n              pop\n              tag_680\n              swap3\n              swap2\n              pop\n              tag_692\n              jump\t// in\n            tag_403:\n              mload(0x40)\n              dup1\n              0x40\n              add\n              0x40\n              mstore\n              dup1\n              0x00\n              dup2\n              mstore\n              0x20\n              add\n              0x00\n              dup2\n              mstore\n              pop\n              swap1\n              jump\t// out\n            tag_470:\n              dup3\n              dup1\n              sload\n              0x01\n              dup2\n              0x01\n              and\n              iszero\n              0x0100\n              mul\n              sub\n              and\n              0x02\n              swap1\n              div\n              swap1\n              0x00\n              mstore\n              keccak256(0x00, 0x20)\n              swap1\n              0x1f\n              add\n              0x20\n              swap1\n              div\n              dup2\n              add\n              swap3\n              dup3\n              0x1f\n              lt\n              tag_694\n              jumpi\n              dup1\n              calldataload\n              not(0xff)\n              and\n              dup4\n              dup1\n              add\n              or\n              dup6\n              sstore\n              jump(tag_679)\n            tag_694:\n              dup3\n              dup1\n              add\n              0x01\n              add\n              dup6\n              sstore\n              dup3\n              iszero\n              tag_679\n              jumpi\n              swap2\n              dup3\n              add\n            tag_695:\n              dup3\n              dup2\n              gt\n              iszero\n              tag_679\n              jumpi\n              dup3\n              calldataload\n              dup3\n              sstore\n              swap2\n              0x20\n              add\n              swap2\n              swap1\n              0x01\n              add\n              swap1\n              jump(tag_695)\n            tag_485:\n              0x40\n              dup1\n              mload\n              0xc0\n              dup2\n              add\n              dup3\n              mstore\n              0x00\n              dup1\n              dup3\n              mstore\n              0x20\n              dup3\n              add\n              dup2\n              swap1\n              mstore\n              0x60\n              swap3\n              dup3\n              add\n              dup4\n              swap1\n              mstore\n              dup3\n              dup3\n              add\n              dup4\n              swap1\n              mstore\n              0x80\n              dup3\n              add\n              swap3\n              swap1\n              swap3\n              mstore\n              0xa0\n              dup2\n              add\n              swap2\n              swap1\n              swap2\n              mstore\n              swap1\n              jump\t// out\n            tag_489:\n              dup3\n              dup1\n              sload\n              dup3\n              dup3\n              sstore\n              swap1\n              0x00\n              mstore\n              keccak256(0x00, 0x20)\n              swap1\n              dup2\n              add\n              swap3\n              dup3\n              iszero\n              tag_689\n              jumpi\n              swap2\n              0x20\n              mul\n              dup3\n              add\n            tag_699:\n              dup3\n              dup2\n              gt\n              iszero\n              tag_689\n              jumpi\n              dup3\n              mload\n              dup1\n              mload\n              tag_701\n              swap2\n              dup5\n              swap2\n              0x20\n              swap1\n              swap2\n              add\n              swap1\n              tag_395\n              jump\t// in\n            tag_701:\n              pop\n              swap2\n              0x20\n              add\n              swap2\n              swap1\n              0x01\n              add\n              swap1\n              jump(tag_699)\n            tag_681:\n              tag_329\n              swap2\n              swap1\n            tag_709:\n              dup1\n              dup3\n              gt\n              iszero\n              tag_680\n              jumpi\n              0x00\n              dup2\n              sstore\n              0x01\n              add\n              jump(tag_709)\n            tag_692:\n              tag_329\n              swap2\n              swap1\n            tag_712:\n              dup1\n              dup3\n              gt\n              iszero\n              tag_680\n              jumpi\n              0x00\n              tag_714\n              dup3\n              dup3\n              tag_715\n              jump\t// in\n            tag_714:\n              pop\n              0x01\n              add\n              jump(tag_712)\n            tag_715:\n              pop\n              dup1\n              sload\n              0x01\n              dup2\n              0x01\n              and\n              iszero\n              0x0100\n              mul\n              sub\n              and\n              0x02\n              swap1\n              div\n              0x00\n              dup3\n              sstore\n              dup1\n              0x1f\n              lt\n              tag_717\n              jumpi\n              pop\n              jump(tag_718)\n            tag_717:\n              0x1f\n              add\n              0x20\n              swap1\n              div\n              swap1\n              0x00\n              mstore\n              keccak256(0x00, 0x20)\n              swap1\n              dup2\n              add\n              swap1\n              tag_718\n              swap2\n              swap1\n              tag_681\n              jump\t// in\n            tag_718:\n              pop\n              jump\t// out\n\n            auxdata: 0xa2646970667358221220b216db855ab3e5cae78f98049fea497894daa41d02a108008154fa744457aed064736f6c63430006060033\n        }\n    }\n\n    auxdata: 0xa26469706673582212202ea0ec52bdd5353f792df2b52e7cd88dcd2ae4b6f6535f12bb2f3f8c65403fbc64736f6c63430006060033\n}\n","bytecode":{"linkReferences":{},"object":"608060405234801561001057600080fd5b5061453e806100206000396000f3fe608060405234801561001057600080fd5b506004361061004c5760003560e01c80633ca701e914610051578063a1690e23146100c4578063ae2d25f414610172578063d598657914610193575b600080fd5b6100746004803603602081101561006757600080fd5b503563ffffffff166102bf565b60408051602080825283518183015283519192839290830191858101910280838360005b838110156100b0578181015183820152602001610098565b505050509050019250505060405180910390f35b6100e1600480360360208110156100da57600080fd5b5035610345565b60405180836001600160a01b03166001600160a01b0316815260200180602001828103825283818151815260200191508051906020019080838360005b8381101561013657818101518382015260200161011e565b50505050905090810190601f1680156101635780820380516001836020036101000a031916815260200191505b50935050505060405180910390f35b61017a610405565b6040805163ffffffff9092168252519081900360200190f35b6102bd600480360360408110156101a957600080fd5b8101906020810181356401000000008111156101c457600080fd5b8201836020820111156101d657600080fd5b803590602001918460018302840111640100000000831117156101f857600080fd5b91908080601f016020809104026020016040519081016040528093929190818152602001838380828437600092019190915250929594936020810193503591505064010000000081111561024b57600080fd5b82018360208201111561025d57600080fd5b8035906020019184602083028401116401000000008311171561027f57600080fd5b91908080602002602001604051908101604052809392919081815260200183836020028082843760009201919091525092955061040c945050505050565b005b606060008263ffffffff16815481106102d457fe5b906000526020600020906003020160010180548060200260200160405190810160405280929190818152602001828054801561033957602002820191906000526020600020905b81546001600160a01b0316815260019091019060200180831161031b575b50505050509050919050565b6000818154811061035257fe5b600091825260209182902060039091020180546002808301805460408051601f600019600185161561010002019093169490940491820187900487028401870190528083526001600160a01b0390931695509293909291908301828280156103fb5780601f106103d0576101008083540402835291602001916103fb565b820191906000526020600020905b8154815290600101906020018083116103de57829003601f168201915b5050505050905082565b6000545b90565b61041461054a565b82816040018190525060008260405161042c90610574565b6020808252825181830152825182916040830191858201910280838360005b8381101561046357818101518382015260200161044b565b5050505090500192505050604051809103906000f08015801561048a573d6000803e3d6000fd5b5060208381018581526001600160a01b0383811686526000805460018101825590805286517f290decd9548b62a8d60345a988386fc84ba6bc95484008f6362f93160ef3e563600390920291820180546001600160a01b031916919093161782559151805194955086949193610525937f290decd9548b62a8d60345a988386fc84ba6bc95484008f6362f93160ef3e5640192910190610581565b50604082015180516105419160028401916020909101906105e6565b50505050505050565b604051806060016040528060006001600160a01b0316815260200160608152602001606081525090565b613e6a8061069f83390190565b8280548282559060005260206000209081019282156105d6579160200282015b828111156105d657825182546001600160a01b0319166001600160a01b039091161782556020909201916001909101906105a1565b506105e2929150610660565b5090565b828054600181600116156101000203166002900490600052602060002090601f016020900481019282601f1061062757805160ff1916838001178555610654565b82800160010185558215610654579182015b82811115610654578251825591602001919060010190610639565b506105e2929150610684565b61040991905b808211156105e25780546001600160a01b0319168155600101610666565b61040991905b808211156105e2576000815560010161068a56fe60806040523480156200001157600080fd5b5060405162003e6a38038062003e6a833981810160405260208110156200003757600080fd5b81019080805160405193929190846401000000008211156200005857600080fd5b9083019060208201858111156200006e57600080fd5b82518660208202830111640100000000821117156200008c57600080fd5b82525081516020918201928201910280838360005b83811015620000bb578181015183820152602001620000a1565b505050509190910160405250506000805460ff191681559150505b81518163ffffffff1610156200022f576000828263ffffffff1681518110620000fb57fe5b60200260200101519050806001600160a01b03166384aeb6946040518163ffffffff1660e01b815260040160206040518083038186803b1580156200013f57600080fd5b505afa15801562000154573d6000803e3d6000fd5b505050506040513d60208110156200016b57600080fd5b50516200017757600080fd5b6001600a6000858563ffffffff16815181106200019057fe5b60200260200101516001600160a01b03166001600160a01b0316815260200190815260200160002060006101000a81548160ff021916908315150217905550600b838363ffffffff1681518110620001e457fe5b60209081029190910181015182546001808201855560009485529290932090920180546001600160a01b0319166001600160a01b0390931692909217909155919091019050620000d6565b5050613c2980620002416000396000f3fe608060405234801561001057600080fd5b50600436106102115760003560e01c80638c16215211610125578063cf6ae528116100ad578063e29e92901161007c578063e29e929014610f0b578063e9dff3b414610f3d578063f10f731c14610f45578063f396b51f14611086578063fc2a8efa146110ac57610211565b8063cf6ae52814610e8c578063d027a93e14610eb2578063db40659714610eba578063e24e791214610ee057610211565b8063928ec3e5116100f4578063928ec3e514610c66578063a1a298da14610d2a578063a63de8cf14610d4d578063a7ed560314610d6a578063c09bc35b14610e1e57610211565b80638c162152146109a25780638cba76b1146107795780638e63651414610b625780639169b32314610b9457610211565b80633296e5ca116101a85780634f51433d116101775780634f51433d146109265780637065cb481461092e578063834fde3414610954578063838ebd851461097757806384aeb6941461099a57610211565b80633296e5ca146108b2578063359589ac146108cf5780634d981cf7146108fb5780634f2bcbef1461090357610211565b8063173825d9116101e4578063173825d9146105355780632a4541d41461055d5780632f54bf6e1461073f578063306998921461077957610211565b8063025e7c271461021657806308ac733a1461024f5780630f121925146103785780631736108414610481575b600080fd5b6102336004803603602081101561022c57600080fd5b50356111dd565b604080516001600160a01b039092168252519081900360200190f35b6103036004803603604081101561026557600080fd5b6001600160a01b038235169190810190604081016020820135600160201b81111561028f57600080fd5b8201836020820111156102a157600080fd5b803590602001918460018302840111600160201b831117156102c257600080fd5b91908080601f016020809104026020016040519081016040528093929190818152602001838380828437600092019190915250929550611204945050505050565b6040805160208082528351818301528351919283929083019185019080838360005b8381101561033d578181015183820152602001610325565b50505050905090810190601f16801561036a5780820380516001836020036101000a031916815260200191505b509250505060405180910390f35b6103a36004803603604081101561038e57600080fd5b5063ffffffff81358116916020013516611320565b604051808060200180602001838103835285818151815260200191508051906020019080838360005b838110156103e45781810151838201526020016103cc565b50505050905090810190601f1680156104115780820380516001836020036101000a031916815260200191505b50838103825284518152845160209182019186019080838360005b8381101561044457818101518382015260200161042c565b50505050905090810190601f1680156104715780820380516001836020036101000a031916815260200191505b5094505050505060405180910390f35b6103036004803603604081101561049757600080fd5b6001600160a01b038235169190810190604081016020820135600160201b8111156104c157600080fd5b8201836020820111156104d357600080fd5b803590602001918460018302840111600160201b831117156104f457600080fd5b91908080601f0160208091040260200160405190810160405280939291908181526020018383808284376000920191909152509295506114cb945050505050565b61055b6004803603602081101561054b57600080fd5b50356001600160a01b0316611580565b005b610726600480360360c081101561057357600080fd5b6001600160a01b038235811692602081013590911691810190606081016040820135600160201b8111156105a657600080fd5b8201836020820111156105b857600080fd5b803590602001918460018302840111600160201b831117156105d957600080fd5b91908080601f0160208091040260200160405190810160405280939291908181526020018383808284376000920191909152509295949360208101935035915050600160201b81111561062b57600080fd5b82018360208201111561063d57600080fd5b803590602001918460018302840111600160201b8311171561065e57600080fd5b91908080601f0160208091040260200160405190810160405280939291908181526020018383808284376000920191909152509295949360208101935035915050600160201b8111156106b057600080fd5b8201836020820111156106c257600080fd5b803590602001918460018302840111600160201b831117156106e357600080fd5b91908080601f01602080910402602001604051908101604052809392919081815260200183838082843760009201919091525092955050505035151590506116ea565b6040805163ffffffff9092168252519081900360200190f35b6107656004803603602081101561075557600080fd5b50356001600160a01b03166118ca565b604080519115158252519081900360200190f35b6103036004803603606081101561078f57600080fd5b6001600160a01b038235169190810190604081016020820135600160201b8111156107b957600080fd5b8201836020820111156107cb57600080fd5b803590602001918460018302840111600160201b831117156107ec57600080fd5b91908080601f0160208091040260200160405190810160405280939291908181526020018383808284376000920191909152509295949360208101935035915050600160201b81111561083e57600080fd5b82018360208201111561085057600080fd5b803590602001918460018302840111600160201b8311171561087157600080fd5b91908080601f0160208091040260200160405190810160405280939291908181526020018383808284376000920191909152509295506118df945050505050565b610233600480360360208110156108c857600080fd5b5035611a54565b610303600480360360408110156108e557600080fd5b506001600160a01b038135169060200135611a61565b610726611b15565b61055b6004803603602081101561091957600080fd5b503563ffffffff16611b1c565b610726611c24565b61055b6004803603602081101561094457600080fd5b50356001600160a01b0316611c2a565b6107266004803603602081101561096a57600080fd5b503563ffffffff16611cc1565b61055b6004803603602081101561098d57600080fd5b503563ffffffff16611cf0565b6107656120ea565b61055b600480360360a08110156109b857600080fd5b6001600160a01b038235169190810190604081016020820135600160201b8111156109e257600080fd5b8201836020820111156109f457600080fd5b803590602001918460018302840111600160201b83111715610a1557600080fd5b91908080601f0160208091040260200160405190810160405280939291908181526020018383808284376000920191909152509295949360208101935035915050600160201b811115610a6757600080fd5b820183602082011115610a7957600080fd5b803590602001918460018302840111600160201b83111715610a9a57600080fd5b91908080601f0160208091040260200160405190810160405280939291908181526020018383808284376000920191909152509295949360208101935035915050600160201b811115610aec57600080fd5b820183602082011115610afe57600080fd5b803590602001918460018302840111600160201b83111715610b1f57600080fd5b91908080601f01602080910402602001604051908101604052809392919081815260200183838082843760009201919091525092955050505035151590506120ef565b61055b60048036036040811015610b7857600080fd5b5080356001600160a01b0316906020013563ffffffff166125c3565b610bb160048036036020811015610baa57600080fd5b503561264c565b60405180856001600160a01b03166001600160a01b03168152602001846001600160a01b03166001600160a01b031681526020018060200183151515158152602001828103825284818151815260200191508051906020019080838360005b83811015610c28578181015183820152602001610c10565b50505050905090810190601f168015610c555780820380516001836020036101000a031916815260200191505b509550505050505060405180910390f35b61055b60048036036060811015610c7c57600080fd5b810190602081018135600160201b811115610c9657600080fd5b820183602082011115610ca857600080fd5b803590602001918460018302840111600160201b83111715610cc957600080fd5b919390929091602081019035600160201b811115610ce657600080fd5b820183602082011115610cf857600080fd5b803590602001918460018302840111600160201b83111715610d1957600080fd5b91935091503563ffffffff16612720565b61072660048036036020811015610d4057600080fd5b503563ffffffff166127ad565b610bb160048036036020811015610d6357600080fd5b50356127c2565b61076560048036036040811015610d8057600080fd5b6001600160a01b038235169190810190604081016020820135600160201b811115610daa57600080fd5b820183602082011115610dbc57600080fd5b803590602001918460018302840111600160201b83111715610ddd57600080fd5b91908080601f0160208091040260200160405190810160405280939291908181526020018383808284376000920191909152509295506127cf945050505050565b61072660048036036020811015610e3457600080fd5b810190602081018135600160201b811115610e4e57600080fd5b820183602082011115610e6057600080fd5b803590602001918460018302840111600160201b83111715610e8157600080fd5b509092509050612800565b61072660048036036020811015610ea257600080fd5b50356001600160a01b031661296f565b61072661298a565b61072660048036036020811015610ed057600080fd5b50356001600160a01b0316612990565b6103a360048036036040811015610ef657600080fd5b5063ffffffff813581169160200135166129a8565b61055b60048036036040811015610f2157600080fd5b5080356001600160a01b0316906020013563ffffffff166129fd565b610765612a69565b61055b60048036036080811015610f5b57600080fd5b6001600160a01b038235169190810190604081016020820135600160201b811115610f8557600080fd5b820183602082011115610f9757600080fd5b803590602001918460018302840111600160201b83111715610fb857600080fd5b91908080601f0160208091040260200160405190810160405280939291908181526020018383808284376000920191909152509295949360208101935035915050600160201b81111561100a57600080fd5b82018360208201111561101c57600080fd5b803590602001918460018302840111600160201b8311171561103d57600080fd5b91908080601f0160208091040260200160405190810160405280939291908181526020018383808284376000920191909152509295505050903563ffffffff169150612a729050565b6107656004803603602081101561109c57600080fd5b50356001600160a01b0316612bd0565b61055b600480360360608110156110c257600080fd5b810190602081018135600160201b8111156110dc57600080fd5b8201836020820111156110ee57600080fd5b803590602001918460018302840111600160201b8311171561110f57600080fd5b91908080601f0160208091040260200160405190810160405280939291908181526020018383808284376000920191909152509295949360208101935035915050600160201b81111561116157600080fd5b82018360208201111561117357600080fd5b803590602001918460018302840111600160201b8311171561119457600080fd5b91908080601f0160208091040260200160405190810160405280939291908181526020018383808284376000920191909152509295505050903563ffffffff169150612be59050565b600b81815481106111ea57fe5b6000918252602090912001546001600160a01b0316905081565b606060026000846001600160a01b03166001600160a01b03168152602001908152602001600020826040518082805190602001908083835b6020831061125b5780518252601f19909201916020918201910161123c565b518151600019602094850361010090810a8201928316921993909316919091179092529490920196875260408051978890038201882060019081018054601f600293821615909802909501909416049485018290048202880182019052838752909450919250508301828280156113135780601f106112e857610100808354040283529160200191611313565b820191906000526020600020905b8154815290600101906020018083116112f657829003601f168201915b5050505050905092915050565b60608060098463ffffffff168154811061133657fe5b90600052602060002090600802016003018363ffffffff168154811061135857fe5b9060005260206000200160098563ffffffff168154811061137557fe5b90600052602060002090600802016006018463ffffffff168154811061139757fe5b600091825260209182902083546040805160026001841615610100026000190190931692909204601f810186900486028301860190915280825292909101929091849183018282801561142b5780601f106114005761010080835404028352916020019161142b565b820191906000526020600020905b81548152906001019060200180831161140e57829003601f168201915b5050845460408051602060026001851615610100026000190190941693909304601f8101849004840282018401909252818152959750869450925084019050828280156114b95780601f1061148e576101008083540402835291602001916114b9565b820191906000526020600020905b81548152906001019060200180831161149c57829003601f168201915b50505050509050915091509250929050565b6002602081815260009384526040938490208351808501830180519281529083019483019490942093526001808401805486519281161561010002600019011693909304601f81018390048302820183019095528481529293908301828280156115765780601f1061154b57610100808354040283529160200191611576565b820191906000526020600020905b81548152906001019060200180831161155957829003601f168201915b5050505050905081565b336000908152600a602052604090205460ff1661159c57600080fd5b6001600160a01b0381166000908152600a6020526040902054819060ff166115c357600080fd5b600b546001106115d257600080fd5b6001600160a01b0382166000908152600a60205260408120805460ff191690555b600b546000190163ffffffff821610156116b857826001600160a01b0316600b8263ffffffff168154811061162457fe5b6000918252602090912001546001600160a01b031614156116b057600b8054600019810190811061165157fe5b600091825260209091200154600b80546001600160a01b039092169163ffffffff841690811061167d57fe5b9060005260206000200160006101000a8154816001600160a01b0302191690836001600160a01b031602179055506116b8565b6001016115f3565b50600b8054806116c457fe5b600082815260209020810160001990810180546001600160a01b03191690550190555050565b336000908152600a602052604081205460ff1661170657600080fd5b6000879050806001600160a01b0316638c16215288888888886040518663ffffffff1660e01b815260040180866001600160a01b03166001600160a01b0316815260200180602001806020018060200185151515158152602001848103845288818151815260200191508051906020019080838360005b8381101561179557818101518382015260200161177d565b50505050905090810190601f1680156117c25780820380516001836020036101000a031916815260200191505b50848103835287518152875160209182019189019080838360005b838110156117f55781810151838201526020016117dd565b50505050905090810190601f1680156118225780820380516001836020036101000a031916815260200191505b50848103825286518152865160209182019188019080838360005b8381101561185557818101518382015260200161183d565b50505050905090810190601f1680156118825780820380516001836020036101000a031916815260200191505b5098505050505050505050600060405180830381600087803b1580156118a757600080fd5b505af11580156118bb573d6000803e3d6000fd5b50505050509695505050505050565b600a6020526000908152604090205460ff1681565b606060026000856001600160a01b03166001600160a01b03168152602001908152602001600020836040518082805190602001908083835b602083106119365780518252601f199092019160209182019101611917565b51815160209384036101000a6000190180199092169116179052920194855250604051938490038101842086519094879450925082918401908083835b602083106119925780518252601f199092019160209182019101611973565b518151600019602094850361010090810a820192831692199390931691909117909252949092019687526040805197889003820188208054601f6002600183161590980290950116959095049283018290048202880182019052818752929450925050830182828015611a465780601f10611a1b57610100808354040283529160200191611a46565b820191906000526020600020905b815481529060010190602001808311611a2957829003601f168201915b505050505090509392505050565b600381815481106111ea57fe5b60056020528160005260406000208181548110611a7a57fe5b600091825260209182902001805460408051601f60026000196101006001871615020190941693909304928301859004850281018501909152818152945090925090830182828015611b0d5780601f10611ae257610100808354040283529160200191611b0d565b820191906000526020600020905b815481529060010190602001808311611af057829003601f168201915b505050505081565b6003545b90565b336000908152600a602052604090205460ff16611b3857600080fd5b336000908152600d6020908152604080832063ffffffff85168452909152902054819060ff1615611b6857600080fd5b336000908152600d6020908152604080832063ffffffff85811685529083528184208054600160ff199091168117909155600c9093529220805463ffffffff19811690841690920183169190911790819055600b5490821660020290911610611bec5763ffffffff81166000908152600860205260409020805460ff191660011790555b63ffffffff821660009081526008602052604090205460ff1680611c12575060005460ff165b15611c2057611c2082612f60565b5050565b60075490565b336000908152600a602052604090205460ff16611c4657600080fd5b806001600160a01b038116611c5a57600080fd5b506001600160a01b03166000818152600a60205260408120805460ff19166001908117909155600b805491820181559091527f0175b7a638427703f0dbe7bb9bbf987a2551717b34e79f33b5b1008d1fa01db90180546001600160a01b0319169091179055565b600060078263ffffffff1681548110611cd657fe5b600091825260209091206003600890920201015492915050565b336000908152600a602052604090205460ff16611d0c57600080fd5b60098163ffffffff1681548110611d1f57fe5b600091825260209091206007600890920201015460ff1615611d4057600080fd5b600060098263ffffffff1681548110611d5557fe5b60009182526020822060016008909202010154600980546001600160a01b039092169350839163c09bc35b919063ffffffff8716908110611d9257fe5b60009182526020918290206040516001600160e01b031960e086901b1681526004810193845260026008909302909101820180546000196101006001831615020116929092046024820181905291929182916044019084908015611e375780601f10611e0c57610100808354040283529160200191611e37565b820191906000526020600020905b815481529060010190602001808311611e1a57829003601f168201915b505092505050602060405180830381600087803b158015611e5757600080fd5b505af1158015611e6b573d6000803e3d6000fd5b505050506040513d6020811015611e8157600080fd5b5051905060005b60098463ffffffff1681548110611e9b57fe5b9060005260206000209060080201600301805490508163ffffffff1610156120ad57826001600160a01b031663928ec3e560098663ffffffff1681548110611edf57fe5b90600052602060002090600802016003018363ffffffff1681548110611f0157fe5b9060005260206000200160098763ffffffff1681548110611f1e57fe5b90600052602060002090600802016006018463ffffffff1681548110611f4057fe5b600091825260209091206040516001600160e01b031960e086901b16815263ffffffff8816604482015260606004820190815284546002600019610100600184161502019091160460648301819052929093019288929091829160248201916084019087908015611ff25780601f10611fc757610100808354040283529160200191611ff2565b820191906000526020600020905b815481529060010190602001808311611fd557829003601f168201915b50508381038252855460026000196101006001841615020190911604808252602090910190869080156120665780601f1061203b57610100808354040283529160200191612066565b820191906000526020600020905b81548152906001019060200180831161204957829003601f168201915b505095505050505050600060405180830381600087803b15801561208957600080fd5b505af115801561209d573d6000803e3d6000fd5b505060019092019150611e889050565b50600160098463ffffffff16815481106120c357fe5b60009182526020909120600890910201600701805460ff1916911515919091179055505050565b600181565b336000908152600a602052604090205460ff1661210b57600080fd5b600180546001600160a01b0319166001600160a01b038716179055835160009061213c9060029060208801906138f3565b5060078101805460ff191690556009805460018181018355600092909252825460089091027f6e1540171b6c0c960b71a7020d9f60077f6af931a8bbf590da0223dacf75c7af810180546001600160a01b03199081166001600160a01b03948516178255848601547f6e1540171b6c0c960b71a7020d9f60077f6af931a8bbf590da0223dacf75c7b08401805490921694169390931790925560028085018054869561221a947f6e1540171b6c0c960b71a7020d9f60077f6af931a8bbf590da0223dacf75c7b1019390821615610100026000190190911604613971565b506003828101805461222f92840191906139e6565b506006828101805461224492840191906139e6565b506007918201549101805460ff191660ff90921615159190911790556009546001600160a01b0387166000908152600160205260409020805463ffffffff191660001990920163ffffffff1691909117905561229e613a50565b6122a78561367b565b90506122b1613a50565b6122ba8561367b565b90506122c4613a50565b6122e6604051806040016040528060018152602001600b60fa1b81525061367b565b905060006122fa848363ffffffff6136a016565b600101905060005b8163ffffffff168163ffffffff1610156125a057606061233061232b878663ffffffff61370d16565b613720565b9050606061234761232b878763ffffffff61370d16565b905087600401826040518082805190602001908083835b6020831061237d5780518252601f19909201916020918201910161235e565b51815160209384036101000a600019018019909216911617905292019485525060405193849003019092205460ff1691506124fc905057600388018054600181018255600091825260209182902084516123df939190920191908501906138f3565b50600188600401836040518082805190602001908083835b602083106124165780518252601f1990920191602091820191016123f7565b51815160209384036101000a60001901801990921691161790529201948552506040519384900381018420805460ff19169515159590951790945550508351859260058c0192869290918291908401908083835b602083106124895780518252601f19909201916020918201910161246a565b51815160209384036101000a6000190180199092169116179052920194855250604051938490038101909320805463ffffffff191663ffffffff95909516949094179093555060068a01805460018101825560009182529082902084516124f694509101918401906138f3565b50612596565b808860060189600501846040518082805190602001908083835b602083106125355780518252601f199092019160209182019101612516565b51815160209384036101000a6000190180199092169116179052920194855250604051938490030190922054835463ffffffff90911692508210905061257757fe5b9060005260206000200190805190602001906125949291906138f3565b505b5050600101612302565b5085156125b7576009546125b79060001901611cf0565b50505050505050505050565b336000908152600a602052604090205460ff166125df57600080fd5b60408051634f2bcbef60e01b815263ffffffff83166004820152905183916001600160a01b03831691634f2bcbef9160248082019260009290919082900301818387803b15801561262f57600080fd5b505af1158015612643573d6000803e3d6000fd5b50505050505050565b6007818154811061265957fe5b600091825260209182902060089091020180546001808301546002808501805460408051601f600019978416156101000297909701909216939093049485018890048802810188019092528382526001600160a01b039485169750919093169490919083018282801561270d5780601f106126e25761010080835404028352916020019161270d565b820191906000526020600020905b8154815290600101906020018083116126f057829003601f168201915b5050506007909301549192505060ff1684565b60078163ffffffff168154811061273357fe5b600091825260208083206006600890930201919091018054600181018255908352912061276291018484613a6a565b5060078163ffffffff168154811061277657fe5b60009182526020808320600360089093020191909101805460018101825590835291206127a591018686613a6a565b505050505050565b600060098263ffffffff1681548110611cd657fe5b6009818154811061265957fe5b6006602090815260009283526040909220815180830184018051928152908401929093019190912091525460ff1681565b600061280a613ad8565b338152604080516020601f860181900481028201810190925284815290859085908190840183828082843760009201829052506040860194855260a0860181905260078054600181018255915285517fa66cc928b5edb82af9bd49922954155ab7b0942694bea4ce44661d9a8736c688600890920291820180546001600160a01b03199081166001600160a01b039384161782556020808a01517fa66cc928b5edb82af9bd49922954155ab7b0942694bea4ce44661d9a8736c689860180549093169416939093179055955180518897965061290e95507fa66cc928b5edb82af9bd49922954155ab7b0942694bea4ce44661d9a8736c68a909301935001906138f3565b506060820151805161292a916003840191602090910190613b22565b5060808201518051612946916006840191602090910190613b22565b5060a091909101516007918201805460ff19169115159190911790555460001901949350505050565b6001600160a01b031660009081526005602052604090205490565b60095490565b60016020526000908152604090205463ffffffff1681565b60608060078463ffffffff16815481106129be57fe5b90600052602060002090600802016003018363ffffffff16815481106129e057fe5b9060005260206000200160078563ffffffff168154811061137557fe5b336000908152600a602052604090205460ff16612a1957600080fd5b6040805163838ebd8560e01b815263ffffffff83166004820152905183916001600160a01b0383169163838ebd859160248082019260009290919082900301818387803b15801561262f57600080fd5b60005460ff1681565b336000908152600a602052604090205460ff16612a8e57600080fd5b604051637e15477d60e11b815263ffffffff8216604482015260606004820190815284516064830152845186926001600160a01b0384169263fc2a8efa9288928892889290918291602482019160840190602088019080838360005b83811015612b02578181015183820152602001612aea565b50505050905090810190601f168015612b2f5780820380516001836020036101000a031916815260200191505b50838103825285518152855160209182019187019080838360005b83811015612b62578181015183820152602001612b4a565b50505050905090810190601f168015612b8f5780820380516001836020036101000a031916815260200191505b5095505050505050600060405180830381600087803b158015612bb157600080fd5b505af1158015612bc5573d6000803e3d6000fd5b505050505050505050565b60046020526000908152604090205460ff1681565b336000908152600a602052604090205460ff16612c0157600080fd5b60098163ffffffff1681548110612c1457fe5b9060005260206000209060080201600401836040518082805190602001908083835b60208310612c555780518252601f199092019160209182019101612c36565b51815160209384036101000a600019018019909216911617905292019485525060405193849003019092205460ff169150612e7790505760098163ffffffff1681548110612c9f57fe5b90600052602060002090600802016003018054905060098263ffffffff1681548110612cc757fe5b9060005260206000209060080201600501846040518082805190602001908083835b60208310612d085780518252601f199092019160209182019101612ce9565b51815160209384036101000a60001901801990921691161790529201948552506040519384900301909220805463ffffffff191663ffffffff9485161790555050600980546001928416908110612d5b57fe5b9060005260206000209060080201600401846040518082805190602001908083835b60208310612d9c5780518252601f199092019160209182019101612d7d565b51815160209384036101000a60001901801990921691161790529201948552506040519384900301909220805460ff19169315159390931790925550506009805463ffffffff8316908110612ded57fe5b600091825260208083206003600890930201919091018054600181018255908352918190208551612e259391909101918601906138f3565b5060098163ffffffff1681548110612e3957fe5b600091825260208083206006600890930201919091018054600181018255908352918190208451612e719391909101918501906138f3565b50612f5b565b600060098263ffffffff1681548110612e8c57fe5b9060005260206000209060080201600501846040518082805190602001908083835b60208310612ecd5780518252601f199092019160209182019101612eae565b51815160209384036101000a60001901801990921691161790529201948552506040519384900301909220546009805463ffffffff9283169550879450909250908516908110612f1957fe5b90600052602060002090600802016006018263ffffffff1681548110612f3b57fe5b906000526020600020019080519060200190612f589291906138f3565b50505b505050565b60078163ffffffff1681548110612f7357fe5b600091825260209091206007600890920201015460ff1615612f9457600080fd5b60006002600060078463ffffffff1681548110612fad57fe5b600091825260208083206008909202909101546001600160a01b0316835282019290925260400190206007805463ffffffff8516908110612fea57fe5b906000526020600020906008020160020160405180828054600181600116156101000203166002900480156130565780601f10613034576101008083540402835291820191613056565b820191906000526020600020905b815481529060010190602001808311613042575b50509283525050604051908190036020019020905060005b60078363ffffffff168154811061308157fe5b9060005260206000209060080201600301805490508163ffffffff1610156132ee5760078363ffffffff16815481106130b657fe5b90600052602060002090600802016006018163ffffffff16815481106130d857fe5b906000526020600020018260000160078563ffffffff16815481106130f957fe5b90600052602060002090600802016003018363ffffffff168154811061311b57fe5b9060005260206000200160405180828054600181600116156101000203166002900480156131805780601f1061315e576101008083540402835291820191613180565b820191906000526020600020905b81548152906001019060200180831161316c575b5050928352505060405190819003602001902081546131b2929060026000196101006001841615020190911604613971565b508160010160078463ffffffff16815481106131ca57fe5b90600052602060002090600802016003018263ffffffff16815481106131ec57fe5b9060005260206000200160405160200180838054600181600116156101000203166002900480156132545780601f10613232576101008083540402835291820191613254565b820191906000526020600020905b815481529060010190602001808311613240575b50508061016160f51b815250600201828054600181600116156101000203166002900480156132ba5780601f106132985761010080835404028352918201916132ba565b820191906000526020600020905b8154815290600101906020018083116132a6575b505060408051601f1981840301815291905280516132e59450600187019350602090910191506138f3565b5060010161306e565b506004600060078463ffffffff168154811061330657fe5b600091825260208083206008909202909101546001600160a01b0316835282019290925260400190205460ff166133e157600360078363ffffffff168154811061334c57fe5b6000918252602080832060089092029091015483546001818101865594845291832090910180546001600160a01b0319166001600160a01b0390921691909117905560078054600492919063ffffffff87169081106133a757fe5b60009182526020808320600892909202909101546001600160a01b031683528201929092526040019020805460ff19169115159190911790555b6006600060078463ffffffff16815481106133f857fe5b600091825260208083206008909202909101546001600160a01b0316835282019290925260400190206007805463ffffffff851690811061343557fe5b906000526020600020906008020160020160405180828054600181600116156101000203166002900480156134a15780601f1061347f5761010080835404028352918201916134a1565b820191906000526020600020905b81548152906001019060200180831161348d575b505092835250506040519081900360200190205460ff16613640576005600060078463ffffffff16815481106134d357fe5b600091825260208083206008909202909101546001600160a01b0316835282019290925260400190206007805463ffffffff851690811061351057fe5b60009182526020808320845460018082018755958552919093206008929092029092016002908101805461355895939094019390926000199082161561010002011604613971565b5060016006600060078563ffffffff168154811061357257fe5b600091825260208083206008909202909101546001600160a01b0316835282019290925260400190206007805463ffffffff86169081106135af57fe5b9060005260206000209060080201600201604051808280546001816001161561010002031660029004801561361b5780601f106135f957610100808354040283529182019161361b565b820191906000526020600020905b815481529060010190602001808311613607575b50509283525050604051908190036020019020805491151560ff199092169190911790555b600160078363ffffffff168154811061365557fe5b60009182526020909120600890910201600701805460ff19169115159190911790555050565b613683613a50565b506040805180820190915281518152602082810190820152919050565b60008082600001516136c48560000151866020015186600001518760200151613787565b0190505b835160208501510181116137065782516020808601518651918601516001909501946136fe929185039091039084908490613787565b0190506136c8565b5092915050565b613715613a50565b613706838383613844565b606080826000015167ffffffffffffffff8111801561373e57600080fd5b506040519080825280601f01601f191660200182016040528015613769576020820181803683370190505b509050600060208201905061370681856020015186600001516138b5565b6000838186851161383557602085116137fa5783518251600019600860208990030260020a011991821690888a018890039083165b8281146137ec578186106137da578a8a01965050505050505061383c565b506001909401805190949083166137bc565b85965050505050505061383c565b508383206000905b85880382116138335785832081811415613822578394505050505061383c565b506001928301929190910190613802565b505b5050508284015b949350505050565b61384c613a50565b600061386a8560000151866020015186600001518760200151613787565b6020808701805191860191909152805182038552865190519192500181141561389657600085526138ac565b8351835186519101900385528351810160208601525b50909392505050565b5b602081106138d5578151835260209283019290910190601f19016138b6565b905182516020929092036101000a6000190180199091169116179052565b828054600181600116156101000203166002900490600052602060002090601f016020900481019282601f1061393457805160ff1916838001178555613961565b82800160010185558215613961579182015b82811115613961578251825591602001919060010190613946565b5061396d929150613b6f565b5090565b828054600181600116156101000203166002900490600052602060002090601f016020900481019282601f106139aa5780548555613961565b8280016001018555821561396157600052602060002091601f016020900482015b828111156139615782548255916001019190600101906139cb565b828054828255906000526020600020908101928215613a445760005260206000209182015b82811115613a445782829080546001816001161561010002031660029004613a34929190613971565b5091600101919060010190613a0b565b5061396d929150613b89565b604051806040016040528060008152602001600081525090565b828054600181600116156101000203166002900490600052602060002090601f016020900481019282601f10613aab5782800160ff19823516178555613961565b82800160010185558215613961579182015b82811115613961578235825591602001919060010190613abd565b6040518060c0016040528060006001600160a01b0316815260200160006001600160a01b031681526020016060815260200160608152602001606081526020016000151581525090565b828054828255906000526020600020908101928215613a44579160200282015b82811115613a445782518051613b5f9184916020909101906138f3565b5091602001919060010190613b42565b611b1991905b8082111561396d5760008155600101613b75565b611b1991905b8082111561396d576000613ba38282613bac565b50600101613b8f565b50805460018160011615610100020316600290046000825580601f10613bd25750613bf0565b601f016020900490600052602060002090810190613bf09190613b6f565b5056fea2646970667358221220b216db855ab3e5cae78f98049fea497894daa41d02a108008154fa744457aed064736f6c63430006060033a26469706673582212202ea0ec52bdd5353f792df2b52e7cd88dcd2ae4b6f6535f12bb2f3f8c65403fbc64736f6c63430006060033","opcodes":"PUSH1 0x80 PUSH1 0x40 MSTORE CALLVALUE DUP1 ISZERO PUSH2 0x10 JUMPI PUSH1 0x0 DUP1 REVERT JUMPDEST POP PUSH2 0x453E DUP1 PUSH2 0x20 PUSH1 0x0 CODECOPY PUSH1 0x0 RETURN INVALID PUSH1 0x80 PUSH1 0x40 MSTORE CALLVALUE DUP1 ISZERO PUSH2 0x10 JUMPI PUSH1 0x0 DUP1 REVERT JUMPDEST POP PUSH1 0x4 CALLDATASIZE LT PUSH2 0x4C JUMPI PUSH1 0x0 CALLDATALOAD PUSH1 0xE0 SHR DUP1 PUSH4 0x3CA701E9 EQ PUSH2 0x51 JUMPI DUP1 PUSH4 0xA1690E23 EQ PUSH2 0xC4 JUMPI DUP1 PUSH4 0xAE2D25F4 EQ PUSH2 0x172 JUMPI DUP1 PUSH4 0xD5986579 EQ PUSH2 0x193 JUMPI JUMPDEST PUSH1 0x0 DUP1 REVERT JUMPDEST PUSH2 0x74 PUSH1 0x4 DUP1 CALLDATASIZE SUB PUSH1 0x20 DUP2 LT ISZERO PUSH2 0x67 JUMPI PUSH1 0x0 DUP1 REVERT JUMPDEST POP CALLDATALOAD PUSH4 0xFFFFFFFF AND PUSH2 0x2BF JUMP JUMPDEST PUSH1 0x40 DUP1 MLOAD PUSH1 0x20 DUP1 DUP3 MSTORE DUP4 MLOAD DUP2 DUP4 ADD MSTORE DUP4 MLOAD SWAP2 SWAP3 DUP4 SWAP3 SWAP1 DUP4 ADD SWAP2 DUP6 DUP2 ADD SWAP2 MUL DUP1 DUP4 DUP4 PUSH1 0x0 JUMPDEST DUP4 DUP2 LT ISZERO PUSH2 0xB0 JUMPI DUP2 DUP2 ADD MLOAD DUP4 DUP3 ADD MSTORE PUSH1 0x20 ADD PUSH2 0x98 JUMP JUMPDEST POP POP POP POP SWAP1 POP ADD SWAP3 POP POP POP PUSH1 0x40 MLOAD DUP1 SWAP2 SUB SWAP1 RETURN JUMPDEST PUSH2 0xE1 PUSH1 0x4 DUP1 CALLDATASIZE SUB PUSH1 0x20 DUP2 LT ISZERO PUSH2 0xDA JUMPI PUSH1 0x0 DUP1 REVERT JUMPDEST POP CALLDATALOAD PUSH2 0x345 JUMP JUMPDEST PUSH1 0x40 MLOAD DUP1 DUP4 PUSH1 0x1 PUSH1 0x1 PUSH1 0xA0 SHL SUB AND PUSH1 0x1 PUSH1 0x1 PUSH1 0xA0 SHL SUB AND DUP2 MSTORE PUSH1 0x20 ADD DUP1 PUSH1 0x20 ADD DUP3 DUP2 SUB DUP3 MSTORE DUP4 DUP2 DUP2 MLOAD DUP2 MSTORE PUSH1 0x20 ADD SWAP2 POP DUP1 MLOAD SWAP1 PUSH1 0x20 ADD SWAP1 DUP1 DUP4 DUP4 PUSH1 0x0 JUMPDEST DUP4 DUP2 LT ISZERO PUSH2 0x136 JUMPI DUP2 DUP2 ADD MLOAD DUP4 DUP3 ADD MSTORE PUSH1 0x20 ADD PUSH2 0x11E JUMP JUMPDEST POP POP POP POP SWAP1 POP SWAP1 DUP2 ADD SWAP1 PUSH1 0x1F AND DUP1 ISZERO PUSH2 0x163 JUMPI DUP1 DUP3 SUB DUP1 MLOAD PUSH1 0x1 DUP4 PUSH1 0x20 SUB PUSH2 0x100 EXP SUB NOT AND DUP2 MSTORE PUSH1 0x20 ADD SWAP2 POP JUMPDEST POP SWAP4 POP POP POP POP PUSH1 0x40 MLOAD DUP1 SWAP2 SUB SWAP1 RETURN JUMPDEST PUSH2 0x17A PUSH2 0x405 JUMP JUMPDEST PUSH1 0x40 DUP1 MLOAD PUSH4 0xFFFFFFFF SWAP1 SWAP3 AND DUP3 MSTORE MLOAD SWAP1 DUP2 SWAP1 SUB PUSH1 0x20 ADD SWAP1 RETURN JUMPDEST PUSH2 0x2BD PUSH1 0x4 DUP1 CALLDATASIZE SUB PUSH1 0x40 DUP2 LT ISZERO PUSH2 0x1A9 JUMPI PUSH1 0x0 DUP1 REVERT JUMPDEST DUP2 ADD SWAP1 PUSH1 0x20 DUP2 ADD DUP2 CALLDATALOAD PUSH5 0x100000000 DUP2 GT ISZERO PUSH2 0x1C4 JUMPI PUSH1 0x0 DUP1 REVERT JUMPDEST DUP3 ADD DUP4 PUSH1 0x20 DUP3 ADD GT ISZERO PUSH2 0x1D6 JUMPI PUSH1 0x0 DUP1 REVERT JUMPDEST DUP1 CALLDATALOAD SWAP1 PUSH1 0x20 ADD SWAP2 DUP5 PUSH1 0x1 DUP4 MUL DUP5 ADD GT PUSH5 0x100000000 DUP4 GT OR ISZERO PUSH2 0x1F8 JUMPI PUSH1 0x0 DUP1 REVERT JUMPDEST SWAP2 SWAP1 DUP1 DUP1 PUSH1 0x1F ADD PUSH1 0x20 DUP1 SWAP2 DIV MUL PUSH1 0x20 ADD PUSH1 0x40 MLOAD SWAP1 DUP2 ADD PUSH1 0x40 MSTORE DUP1 SWAP4 SWAP3 SWAP2 SWAP1 DUP2 DUP2 MSTORE PUSH1 0x20 ADD DUP4 DUP4 DUP1 DUP3 DUP5 CALLDATACOPY PUSH1 0x0 SWAP3 ADD SWAP2 SWAP1 SWAP2 MSTORE POP SWAP3 SWAP6 SWAP5 SWAP4 PUSH1 0x20 DUP2 ADD SWAP4 POP CALLDATALOAD SWAP2 POP POP PUSH5 0x100000000 DUP2 GT ISZERO PUSH2 0x24B JUMPI PUSH1 0x0 DUP1 REVERT JUMPDEST DUP3 ADD DUP4 PUSH1 0x20 DUP3 ADD GT ISZERO PUSH2 0x25D JUMPI PUSH1 0x0 DUP1 REVERT JUMPDEST DUP1 CALLDATALOAD SWAP1 PUSH1 0x20 ADD SWAP2 DUP5 PUSH1 0x20 DUP4 MUL DUP5 ADD GT PUSH5 0x100000000 DUP4 GT OR ISZERO PUSH2 0x27F JUMPI PUSH1 0x0 DUP1 REVERT JUMPDEST SWAP2 SWAP1 DUP1 DUP1 PUSH1 0x20 MUL PUSH1 0x20 ADD PUSH1 0x40 MLOAD SWAP1 DUP2 ADD PUSH1 0x40 MSTORE DUP1 SWAP4 SWAP3 SWAP2 SWAP1 DUP2 DUP2 MSTORE PUSH1 0x20 ADD DUP4 DUP4 PUSH1 0x20 MUL DUP1 DUP3 DUP5 CALLDATACOPY PUSH1 0x0 SWAP3 ADD SWAP2 SWAP1 SWAP2 MSTORE POP SWAP3 SWAP6 POP PUSH2 0x40C SWAP5 POP POP POP POP POP JUMP JUMPDEST STOP JUMPDEST PUSH1 0x60 PUSH1 0x0 DUP3 PUSH4 0xFFFFFFFF AND DUP2 SLOAD DUP2 LT PUSH2 0x2D4 JUMPI INVALID JUMPDEST SWAP1 PUSH1 0x0 MSTORE PUSH1 0x20 PUSH1 0x0 KECCAK256 SWAP1 PUSH1 0x3 MUL ADD PUSH1 0x1 ADD DUP1 SLOAD DUP1 PUSH1 0x20 MUL PUSH1 0x20 ADD PUSH1 0x40 MLOAD SWAP1 DUP2 ADD PUSH1 0x40 MSTORE DUP1 SWAP3 SWAP2 SWAP1 DUP2 DUP2 MSTORE PUSH1 0x20 ADD DUP3 DUP1 SLOAD DUP1 ISZERO PUSH2 0x339 JUMPI PUSH1 0x20 MUL DUP3 ADD SWAP2 SWAP1 PUSH1 0x0 MSTORE PUSH1 0x20 PUSH1 0x0 KECCAK256 SWAP1 JUMPDEST DUP2 SLOAD PUSH1 0x1 PUSH1 0x1 PUSH1 0xA0 SHL SUB AND DUP2 MSTORE PUSH1 0x1 SWAP1 SWAP2 ADD SWAP1 PUSH1 0x20 ADD DUP1 DUP4 GT PUSH2 0x31B JUMPI JUMPDEST POP POP POP POP POP SWAP1 POP SWAP2 SWAP1 POP JUMP JUMPDEST PUSH1 0x0 DUP2 DUP2 SLOAD DUP2 LT PUSH2 0x352 JUMPI INVALID JUMPDEST PUSH1 0x0 SWAP2 DUP3 MSTORE PUSH1 0x20 SWAP2 DUP3 SWAP1 KECCAK256 PUSH1 0x3 SWAP1 SWAP2 MUL ADD DUP1 SLOAD PUSH1 0x2 DUP1 DUP4 ADD DUP1 SLOAD PUSH1 0x40 DUP1 MLOAD PUSH1 0x1F PUSH1 0x0 NOT PUSH1 0x1 DUP6 AND ISZERO PUSH2 0x100 MUL ADD SWAP1 SWAP4 AND SWAP5 SWAP1 SWAP5 DIV SWAP2 DUP3 ADD DUP8 SWAP1 DIV DUP8 MUL DUP5 ADD DUP8 ADD SWAP1 MSTORE DUP1 DUP4 MSTORE PUSH1 0x1 PUSH1 0x1 PUSH1 0xA0 SHL SUB SWAP1 SWAP4 AND SWAP6 POP SWAP3 SWAP4 SWAP1 SWAP3 SWAP2 SWAP1 DUP4 ADD DUP3 DUP3 DUP1 ISZERO PUSH2 0x3FB JUMPI DUP1 PUSH1 0x1F LT PUSH2 0x3D0 JUMPI PUSH2 0x100 DUP1 DUP4 SLOAD DIV MUL DUP4 MSTORE SWAP2 PUSH1 0x20 ADD SWAP2 PUSH2 0x3FB JUMP JUMPDEST DUP3 ADD SWAP2 SWAP1 PUSH1 0x0 MSTORE PUSH1 0x20 PUSH1 0x0 KECCAK256 SWAP1 JUMPDEST DUP2 SLOAD DUP2 MSTORE SWAP1 PUSH1 0x1 ADD SWAP1 PUSH1 0x20 ADD DUP1 DUP4 GT PUSH2 0x3DE JUMPI DUP3 SWAP1 SUB PUSH1 0x1F AND DUP3 ADD SWAP2 JUMPDEST POP POP POP POP POP SWAP1 POP DUP3 JUMP JUMPDEST PUSH1 0x0 SLOAD JUMPDEST SWAP1 JUMP JUMPDEST PUSH2 0x414 PUSH2 0x54A JUMP JUMPDEST DUP3 DUP2 PUSH1 0x40 ADD DUP2 SWAP1 MSTORE POP PUSH1 0x0 DUP3 PUSH1 0x40 MLOAD PUSH2 0x42C SWAP1 PUSH2 0x574 JUMP JUMPDEST PUSH1 0x20 DUP1 DUP3 MSTORE DUP3 MLOAD DUP2 DUP4 ADD MSTORE DUP3 MLOAD DUP3 SWAP2 PUSH1 0x40 DUP4 ADD SWAP2 DUP6 DUP3 ADD SWAP2 MUL DUP1 DUP4 DUP4 PUSH1 0x0 JUMPDEST DUP4 DUP2 LT ISZERO PUSH2 0x463 JUMPI DUP2 DUP2 ADD MLOAD DUP4 DUP3 ADD MSTORE PUSH1 0x20 ADD PUSH2 0x44B JUMP JUMPDEST POP POP POP POP SWAP1 POP ADD SWAP3 POP POP POP PUSH1 0x40 MLOAD DUP1 SWAP2 SUB SWAP1 PUSH1 0x0 CREATE DUP1 ISZERO DUP1 ISZERO PUSH2 0x48A JUMPI RETURNDATASIZE PUSH1 0x0 DUP1 RETURNDATACOPY RETURNDATASIZE PUSH1 0x0 REVERT JUMPDEST POP PUSH1 0x20 DUP4 DUP2 ADD DUP6 DUP2 MSTORE PUSH1 0x1 PUSH1 0x1 PUSH1 0xA0 SHL SUB DUP4 DUP2 AND DUP7 MSTORE PUSH1 0x0 DUP1 SLOAD PUSH1 0x1 DUP2 ADD DUP3 SSTORE SWAP1 DUP1 MSTORE DUP7 MLOAD PUSH32 0x290DECD9548B62A8D60345A988386FC84BA6BC95484008F6362F93160EF3E563 PUSH1 0x3 SWAP1 SWAP3 MUL SWAP2 DUP3 ADD DUP1 SLOAD PUSH1 0x1 PUSH1 0x1 PUSH1 0xA0 SHL SUB NOT AND SWAP2 SWAP1 SWAP4 AND OR DUP3 SSTORE SWAP2 MLOAD DUP1 MLOAD SWAP5 SWAP6 POP DUP7 SWAP5 SWAP2 SWAP4 PUSH2 0x525 SWAP4 PUSH32 0x290DECD9548B62A8D60345A988386FC84BA6BC95484008F6362F93160EF3E564 ADD SWAP3 SWAP2 ADD SWAP1 PUSH2 0x581 JUMP JUMPDEST POP PUSH1 0x40 DUP3 ADD MLOAD DUP1 MLOAD PUSH2 0x541 SWAP2 PUSH1 0x2 DUP5 ADD SWAP2 PUSH1 0x20 SWAP1 SWAP2 ADD SWAP1 PUSH2 0x5E6 JUMP JUMPDEST POP POP POP POP POP POP POP JUMP JUMPDEST PUSH1 0x40 MLOAD DUP1 PUSH1 0x60 ADD PUSH1 0x40 MSTORE DUP1 PUSH1 0x0 PUSH1 0x1 PUSH1 0x1 PUSH1 0xA0 SHL SUB AND DUP2 MSTORE PUSH1 0x20 ADD PUSH1 0x60 DUP2 MSTORE PUSH1 0x20 ADD PUSH1 0x60 DUP2 MSTORE POP SWAP1 JUMP JUMPDEST PUSH2 0x3E6A DUP1 PUSH2 0x69F DUP4 CODECOPY ADD SWAP1 JUMP JUMPDEST DUP3 DUP1 SLOAD DUP3 DUP3 SSTORE SWAP1 PUSH1 0x0 MSTORE PUSH1 0x20 PUSH1 0x0 KECCAK256 SWAP1 DUP2 ADD SWAP3 DUP3 ISZERO PUSH2 0x5D6 JUMPI SWAP2 PUSH1 0x20 MUL DUP3 ADD JUMPDEST DUP3 DUP2 GT ISZERO PUSH2 0x5D6 JUMPI DUP3 MLOAD DUP3 SLOAD PUSH1 0x1 PUSH1 0x1 PUSH1 0xA0 SHL SUB NOT AND PUSH1 0x1 PUSH1 0x1 PUSH1 0xA0 SHL SUB SWAP1 SWAP2 AND OR DUP3 SSTORE PUSH1 0x20 SWAP1 SWAP3 ADD SWAP2 PUSH1 0x1 SWAP1 SWAP2 ADD SWAP1 PUSH2 0x5A1 JUMP JUMPDEST POP PUSH2 0x5E2 SWAP3 SWAP2 POP PUSH2 0x660 JUMP JUMPDEST POP SWAP1 JUMP JUMPDEST DUP3 DUP1 SLOAD PUSH1 0x1 DUP2 PUSH1 0x1 AND ISZERO PUSH2 0x100 MUL SUB AND PUSH1 0x2 SWAP1 DIV SWAP1 PUSH1 0x0 MSTORE PUSH1 0x20 PUSH1 0x0 KECCAK256 SWAP1 PUSH1 0x1F ADD PUSH1 0x20 SWAP1 DIV DUP2 ADD SWAP3 DUP3 PUSH1 0x1F LT PUSH2 0x627 JUMPI DUP1 MLOAD PUSH1 0xFF NOT AND DUP4 DUP1 ADD OR DUP6 SSTORE PUSH2 0x654 JUMP JUMPDEST DUP3 DUP1 ADD PUSH1 0x1 ADD DUP6 SSTORE DUP3 ISZERO PUSH2 0x654 JUMPI SWAP2 DUP3 ADD JUMPDEST DUP3 DUP2 GT ISZERO PUSH2 0x654 JUMPI DUP3 MLOAD DUP3 SSTORE SWAP2 PUSH1 0x20 ADD SWAP2 SWAP1 PUSH1 0x1 ADD SWAP1 PUSH2 0x639 JUMP JUMPDEST POP PUSH2 0x5E2 SWAP3 SWAP2 POP PUSH2 0x684 JUMP JUMPDEST PUSH2 0x409 SWAP2 SWAP1 JUMPDEST DUP1 DUP3 GT ISZERO PUSH2 0x5E2 JUMPI DUP1 SLOAD PUSH1 0x1 PUSH1 0x1 PUSH1 0xA0 SHL SUB NOT AND DUP2 SSTORE PUSH1 0x1 ADD PUSH2 0x666 JUMP JUMPDEST PUSH2 0x409 SWAP2 SWAP1 JUMPDEST DUP1 DUP3 GT ISZERO PUSH2 0x5E2 JUMPI PUSH1 0x0 DUP2 SSTORE PUSH1 0x1 ADD PUSH2 0x68A JUMP INVALID PUSH1 0x80 PUSH1 0x40 MSTORE CALLVALUE DUP1 ISZERO PUSH3 0x11 JUMPI PUSH1 0x0 DUP1 REVERT JUMPDEST POP PUSH1 0x40 MLOAD PUSH3 0x3E6A CODESIZE SUB DUP1 PUSH3 0x3E6A DUP4 CODECOPY DUP2 DUP2 ADD PUSH1 0x40 MSTORE PUSH1 0x20 DUP2 LT ISZERO PUSH3 0x37 JUMPI PUSH1 0x0 DUP1 REVERT JUMPDEST DUP2 ADD SWAP1 DUP1 DUP1 MLOAD PUSH1 0x40 MLOAD SWAP4 SWAP3 SWAP2 SWAP1 DUP5 PUSH5 0x100000000 DUP3 GT ISZERO PUSH3 0x58 JUMPI PUSH1 0x0 DUP1 REVERT JUMPDEST SWAP1 DUP4 ADD SWAP1 PUSH1 0x20 DUP3 ADD DUP6 DUP2 GT ISZERO PUSH3 0x6E JUMPI PUSH1 0x0 DUP1 REVERT JUMPDEST DUP3 MLOAD DUP7 PUSH1 0x20 DUP3 MUL DUP4 ADD GT PUSH5 0x100000000 DUP3 GT OR ISZERO PUSH3 0x8C JUMPI PUSH1 0x0 DUP1 REVERT JUMPDEST DUP3 MSTORE POP DUP2 MLOAD PUSH1 0x20 SWAP2 DUP3 ADD SWAP3 DUP3 ADD SWAP2 MUL DUP1 DUP4 DUP4 PUSH1 0x0 JUMPDEST DUP4 DUP2 LT ISZERO PUSH3 0xBB JUMPI DUP2 DUP2 ADD MLOAD DUP4 DUP3 ADD MSTORE PUSH1 0x20 ADD PUSH3 0xA1 JUMP JUMPDEST POP POP POP POP SWAP2 SWAP1 SWAP2 ADD PUSH1 0x40 MSTORE POP POP PUSH1 0x0 DUP1 SLOAD PUSH1 0xFF NOT AND DUP2 SSTORE SWAP2 POP POP JUMPDEST DUP2 MLOAD DUP2 PUSH4 0xFFFFFFFF AND LT ISZERO PUSH3 0x22F JUMPI PUSH1 0x0 DUP3 DUP3 PUSH4 0xFFFFFFFF AND DUP2 MLOAD DUP2 LT PUSH3 0xFB JUMPI INVALID JUMPDEST PUSH1 0x20 MUL PUSH1 0x20 ADD ADD MLOAD SWAP1 POP DUP1 PUSH1 0x1 PUSH1 0x1 PUSH1 0xA0 SHL SUB AND PUSH4 0x84AEB694 PUSH1 0x40 MLOAD DUP2 PUSH4 0xFFFFFFFF AND PUSH1 0xE0 SHL DUP2 MSTORE PUSH1 0x4 ADD PUSH1 0x20 PUSH1 0x40 MLOAD DUP1 DUP4 SUB DUP2 DUP7 DUP1 EXTCODESIZE ISZERO DUP1 ISZERO PUSH3 0x13F JUMPI PUSH1 0x0 DUP1 REVERT JUMPDEST POP GAS STATICCALL ISZERO DUP1 ISZERO PUSH3 0x154 JUMPI RETURNDATASIZE PUSH1 0x0 DUP1 RETURNDATACOPY RETURNDATASIZE PUSH1 0x0 REVERT JUMPDEST POP POP POP POP PUSH1 0x40 MLOAD RETURNDATASIZE PUSH1 0x20 DUP2 LT ISZERO PUSH3 0x16B JUMPI PUSH1 0x0 DUP1 REVERT JUMPDEST POP MLOAD PUSH3 0x177 JUMPI PUSH1 0x0 DUP1 REVERT JUMPDEST PUSH1 0x1 PUSH1 0xA PUSH1 0x0 DUP6 DUP6 PUSH4 0xFFFFFFFF AND DUP2 MLOAD DUP2 LT PUSH3 0x190 JUMPI INVALID JUMPDEST PUSH1 0x20 MUL PUSH1 0x20 ADD ADD MLOAD PUSH1 0x1 PUSH1 0x1 PUSH1 0xA0 SHL SUB AND PUSH1 0x1 PUSH1 0x1 PUSH1 0xA0 SHL SUB AND DUP2 MSTORE PUSH1 0x20 ADD SWAP1 DUP2 MSTORE PUSH1 0x20 ADD PUSH1 0x0 KECCAK256 PUSH1 0x0 PUSH2 0x100 EXP DUP2 SLOAD DUP2 PUSH1 0xFF MUL NOT AND SWAP1 DUP4 ISZERO ISZERO MUL OR SWAP1 SSTORE POP PUSH1 0xB DUP4 DUP4 PUSH4 0xFFFFFFFF AND DUP2 MLOAD DUP2 LT PUSH3 0x1E4 JUMPI INVALID JUMPDEST PUSH1 0x20 SWAP1 DUP2 MUL SWAP2 SWAP1 SWAP2 ADD DUP2 ADD MLOAD DUP3 SLOAD PUSH1 0x1 DUP1 DUP3 ADD DUP6 SSTORE PUSH1 0x0 SWAP5 DUP6 MSTORE SWAP3 SWAP1 SWAP4 KECCAK256 SWAP1 SWAP3 ADD DUP1 SLOAD PUSH1 0x1 PUSH1 0x1 PUSH1 0xA0 SHL SUB NOT AND PUSH1 0x1 PUSH1 0x1 PUSH1 0xA0 SHL SUB SWAP1 SWAP4 AND SWAP3 SWAP1 SWAP3 OR SWAP1 SWAP2 SSTORE SWAP2 SWAP1 SWAP2 ADD SWAP1 POP PUSH3 0xD6 JUMP JUMPDEST POP POP PUSH2 0x3C29 DUP1 PUSH3 0x241 PUSH1 0x0 CODECOPY PUSH1 0x0 RETURN INVALID PUSH1 0x80 PUSH1 0x40 MSTORE CALLVALUE DUP1 ISZERO PUSH2 0x10 JUMPI PUSH1 0x0 DUP1 REVERT JUMPDEST POP PUSH1 0x4 CALLDATASIZE LT PUSH2 0x211 JUMPI PUSH1 0x0 CALLDATALOAD PUSH1 0xE0 SHR DUP1 PUSH4 0x8C162152 GT PUSH2 0x125 JUMPI DUP1 PUSH4 0xCF6AE528 GT PUSH2 0xAD JUMPI DUP1 PUSH4 0xE29E9290 GT PUSH2 0x7C JUMPI DUP1 PUSH4 0xE29E9290 EQ PUSH2 0xF0B JUMPI DUP1 PUSH4 0xE9DFF3B4 EQ PUSH2 0xF3D JUMPI DUP1 PUSH4 0xF10F731C EQ PUSH2 0xF45 JUMPI DUP1 PUSH4 0xF396B51F EQ PUSH2 0x1086 JUMPI DUP1 PUSH4 0xFC2A8EFA EQ PUSH2 0x10AC JUMPI PUSH2 0x211 JUMP JUMPDEST DUP1 PUSH4 0xCF6AE528 EQ PUSH2 0xE8C JUMPI DUP1 PUSH4 0xD027A93E EQ PUSH2 0xEB2 JUMPI DUP1 PUSH4 0xDB406597 EQ PUSH2 0xEBA JUMPI DUP1 PUSH4 0xE24E7912 EQ PUSH2 0xEE0 JUMPI PUSH2 0x211 JUMP JUMPDEST DUP1 PUSH4 0x928EC3E5 GT PUSH2 0xF4 JUMPI DUP1 PUSH4 0x928EC3E5 EQ PUSH2 0xC66 JUMPI DUP1 PUSH4 0xA1A298DA EQ PUSH2 0xD2A JUMPI DUP1 PUSH4 0xA63DE8CF EQ PUSH2 0xD4D JUMPI DUP1 PUSH4 0xA7ED5603 EQ PUSH2 0xD6A JUMPI DUP1 PUSH4 0xC09BC35B EQ PUSH2 0xE1E JUMPI PUSH2 0x211 JUMP JUMPDEST DUP1 PUSH4 0x8C162152 EQ PUSH2 0x9A2 JUMPI DUP1 PUSH4 0x8CBA76B1 EQ PUSH2 0x779 JUMPI DUP1 PUSH4 0x8E636514 EQ PUSH2 0xB62 JUMPI DUP1 PUSH4 0x9169B323 EQ PUSH2 0xB94 JUMPI PUSH2 0x211 JUMP JUMPDEST DUP1 PUSH4 0x3296E5CA GT PUSH2 0x1A8 JUMPI DUP1 PUSH4 0x4F51433D GT PUSH2 0x177 JUMPI DUP1 PUSH4 0x4F51433D EQ PUSH2 0x926 JUMPI DUP1 PUSH4 0x7065CB48 EQ PUSH2 0x92E JUMPI DUP1 PUSH4 0x834FDE34 EQ PUSH2 0x954 JUMPI DUP1 PUSH4 0x838EBD85 EQ PUSH2 0x977 JUMPI DUP1 PUSH4 0x84AEB694 EQ PUSH2 0x99A JUMPI PUSH2 0x211 JUMP JUMPDEST DUP1 PUSH4 0x3296E5CA EQ PUSH2 0x8B2 JUMPI DUP1 PUSH4 0x359589AC EQ PUSH2 0x8CF JUMPI DUP1 PUSH4 0x4D981CF7 EQ PUSH2 0x8FB JUMPI DUP1 PUSH4 0x4F2BCBEF EQ PUSH2 0x903 JUMPI PUSH2 0x211 JUMP JUMPDEST DUP1 PUSH4 0x173825D9 GT PUSH2 0x1E4 JUMPI DUP1 PUSH4 0x173825D9 EQ PUSH2 0x535 JUMPI DUP1 PUSH4 0x2A4541D4 EQ PUSH2 0x55D JUMPI DUP1 PUSH4 0x2F54BF6E EQ PUSH2 0x73F JUMPI DUP1 PUSH4 0x30699892 EQ PUSH2 0x779 JUMPI PUSH2 0x211 JUMP JUMPDEST DUP1 PUSH4 0x25E7C27 EQ PUSH2 0x216 JUMPI DUP1 PUSH4 0x8AC733A EQ PUSH2 0x24F JUMPI DUP1 PUSH4 0xF121925 EQ PUSH2 0x378 JUMPI DUP1 PUSH4 0x17361084 EQ PUSH2 0x481 JUMPI JUMPDEST PUSH1 0x0 DUP1 REVERT JUMPDEST PUSH2 0x233 PUSH1 0x4 DUP1 CALLDATASIZE SUB PUSH1 0x20 DUP2 LT ISZERO PUSH2 0x22C JUMPI PUSH1 0x0 DUP1 REVERT JUMPDEST POP CALLDATALOAD PUSH2 0x11DD JUMP JUMPDEST PUSH1 0x40 DUP1 MLOAD PUSH1 0x1 PUSH1 0x1 PUSH1 0xA0 SHL SUB SWAP1 SWAP3 AND DUP3 MSTORE MLOAD SWAP1 DUP2 SWAP1 SUB PUSH1 0x20 ADD SWAP1 RETURN JUMPDEST PUSH2 0x303 PUSH1 0x4 DUP1 CALLDATASIZE SUB PUSH1 0x40 DUP2 LT ISZERO PUSH2 0x265 JUMPI PUSH1 0x0 DUP1 REVERT JUMPDEST PUSH1 0x1 PUSH1 0x1 PUSH1 0xA0 SHL SUB DUP3 CALLDATALOAD AND SWAP2 SWAP1 DUP2 ADD SWAP1 PUSH1 0x40 DUP2 ADD PUSH1 0x20 DUP3 ADD CALLDATALOAD PUSH1 0x1 PUSH1 0x20 SHL DUP2 GT ISZERO PUSH2 0x28F JUMPI PUSH1 0x0 DUP1 REVERT JUMPDEST DUP3 ADD DUP4 PUSH1 0x20 DUP3 ADD GT ISZERO PUSH2 0x2A1 JUMPI PUSH1 0x0 DUP1 REVERT JUMPDEST DUP1 CALLDATALOAD SWAP1 PUSH1 0x20 ADD SWAP2 DUP5 PUSH1 0x1 DUP4 MUL DUP5 ADD GT PUSH1 0x1 PUSH1 0x20 SHL DUP4 GT OR ISZERO PUSH2 0x2C2 JUMPI PUSH1 0x0 DUP1 REVERT JUMPDEST SWAP2 SWAP1 DUP1 DUP1 PUSH1 0x1F ADD PUSH1 0x20 DUP1 SWAP2 DIV MUL PUSH1 0x20 ADD PUSH1 0x40 MLOAD SWAP1 DUP2 ADD PUSH1 0x40 MSTORE DUP1 SWAP4 SWAP3 SWAP2 SWAP1 DUP2 DUP2 MSTORE PUSH1 0x20 ADD DUP4 DUP4 DUP1 DUP3 DUP5 CALLDATACOPY PUSH1 0x0 SWAP3 ADD SWAP2 SWAP1 SWAP2 MSTORE POP SWAP3 SWAP6 POP PUSH2 0x1204 SWAP5 POP POP POP POP POP JUMP JUMPDEST PUSH1 0x40 DUP1 MLOAD PUSH1 0x20 DUP1 DUP3 MSTORE DUP4 MLOAD DUP2 DUP4 ADD MSTORE DUP4 MLOAD SWAP2 SWAP3 DUP4 SWAP3 SWAP1 DUP4 ADD SWAP2 DUP6 ADD SWAP1 DUP1 DUP4 DUP4 PUSH1 0x0 JUMPDEST DUP4 DUP2 LT ISZERO PUSH2 0x33D JUMPI DUP2 DUP2 ADD MLOAD DUP4 DUP3 ADD MSTORE PUSH1 0x20 ADD PUSH2 0x325 JUMP JUMPDEST POP POP POP POP SWAP1 POP SWAP1 DUP2 ADD SWAP1 PUSH1 0x1F AND DUP1 ISZERO PUSH2 0x36A JUMPI DUP1 DUP3 SUB DUP1 MLOAD PUSH1 0x1 DUP4 PUSH1 0x20 SUB PUSH2 0x100 EXP SUB NOT AND DUP2 MSTORE PUSH1 0x20 ADD SWAP2 POP JUMPDEST POP SWAP3 POP POP POP PUSH1 0x40 MLOAD DUP1 SWAP2 SUB SWAP1 RETURN JUMPDEST PUSH2 0x3A3 PUSH1 0x4 DUP1 CALLDATASIZE SUB PUSH1 0x40 DUP2 LT ISZERO PUSH2 0x38E JUMPI PUSH1 0x0 DUP1 REVERT JUMPDEST POP PUSH4 0xFFFFFFFF DUP2 CALLDATALOAD DUP2 AND SWAP2 PUSH1 0x20 ADD CALLDATALOAD AND PUSH2 0x1320 JUMP JUMPDEST PUSH1 0x40 MLOAD DUP1 DUP1 PUSH1 0x20 ADD DUP1 PUSH1 0x20 ADD DUP4 DUP2 SUB DUP4 MSTORE DUP6 DUP2 DUP2 MLOAD DUP2 MSTORE PUSH1 0x20 ADD SWAP2 POP DUP1 MLOAD SWAP1 PUSH1 0x20 ADD SWAP1 DUP1 DUP4 DUP4 PUSH1 0x0 JUMPDEST DUP4 DUP2 LT ISZERO PUSH2 0x3E4 JUMPI DUP2 DUP2 ADD MLOAD DUP4 DUP3 ADD MSTORE PUSH1 0x20 ADD PUSH2 0x3CC JUMP JUMPDEST POP POP POP POP SWAP1 POP SWAP1 DUP2 ADD SWAP1 PUSH1 0x1F AND DUP1 ISZERO PUSH2 0x411 JUMPI DUP1 DUP3 SUB DUP1 MLOAD PUSH1 0x1 DUP4 PUSH1 0x20 SUB PUSH2 0x100 EXP SUB NOT AND DUP2 MSTORE PUSH1 0x20 ADD SWAP2 POP JUMPDEST POP DUP4 DUP2 SUB DUP3 MSTORE DUP5 MLOAD DUP2 MSTORE DUP5 MLOAD PUSH1 0x20 SWAP2 DUP3 ADD SWAP2 DUP7 ADD SWAP1 DUP1 DUP4 DUP4 PUSH1 0x0 JUMPDEST DUP4 DUP2 LT ISZERO PUSH2 0x444 JUMPI DUP2 DUP2 ADD MLOAD DUP4 DUP3 ADD MSTORE PUSH1 0x20 ADD PUSH2 0x42C JUMP JUMPDEST POP POP POP POP SWAP1 POP SWAP1 DUP2 ADD SWAP1 PUSH1 0x1F AND DUP1 ISZERO PUSH2 0x471 JUMPI DUP1 DUP3 SUB DUP1 MLOAD PUSH1 0x1 DUP4 PUSH1 0x20 SUB PUSH2 0x100 EXP SUB NOT AND DUP2 MSTORE PUSH1 0x20 ADD SWAP2 POP JUMPDEST POP SWAP5 POP POP POP POP POP PUSH1 0x40 MLOAD DUP1 SWAP2 SUB SWAP1 RETURN JUMPDEST PUSH2 0x303 PUSH1 0x4 DUP1 CALLDATASIZE SUB PUSH1 0x40 DUP2 LT ISZERO PUSH2 0x497 JUMPI PUSH1 0x0 DUP1 REVERT JUMPDEST PUSH1 0x1 PUSH1 0x1 PUSH1 0xA0 SHL SUB DUP3 CALLDATALOAD AND SWAP2 SWAP1 DUP2 ADD SWAP1 PUSH1 0x40 DUP2 ADD PUSH1 0x20 DUP3 ADD CALLDATALOAD PUSH1 0x1 PUSH1 0x20 SHL DUP2 GT ISZERO PUSH2 0x4C1 JUMPI PUSH1 0x0 DUP1 REVERT JUMPDEST DUP3 ADD DUP4 PUSH1 0x20 DUP3 ADD GT ISZERO PUSH2 0x4D3 JUMPI PUSH1 0x0 DUP1 REVERT JUMPDEST DUP1 CALLDATALOAD SWAP1 PUSH1 0x20 ADD SWAP2 DUP5 PUSH1 0x1 DUP4 MUL DUP5 ADD GT PUSH1 0x1 PUSH1 0x20 SHL DUP4 GT OR ISZERO PUSH2 0x4F4 JUMPI PUSH1 0x0 DUP1 REVERT JUMPDEST SWAP2 SWAP1 DUP1 DUP1 PUSH1 0x1F ADD PUSH1 0x20 DUP1 SWAP2 DIV MUL PUSH1 0x20 ADD PUSH1 0x40 MLOAD SWAP1 DUP2 ADD PUSH1 0x40 MSTORE DUP1 SWAP4 SWAP3 SWAP2 SWAP1 DUP2 DUP2 MSTORE PUSH1 0x20 ADD DUP4 DUP4 DUP1 DUP3 DUP5 CALLDATACOPY PUSH1 0x0 SWAP3 ADD SWAP2 SWAP1 SWAP2 MSTORE POP SWAP3 SWAP6 POP PUSH2 0x14CB SWAP5 POP POP POP POP POP JUMP JUMPDEST PUSH2 0x55B PUSH1 0x4 DUP1 CALLDATASIZE SUB PUSH1 0x20 DUP2 LT ISZERO PUSH2 0x54B JUMPI PUSH1 0x0 DUP1 REVERT JUMPDEST POP CALLDATALOAD PUSH1 0x1 PUSH1 0x1 PUSH1 0xA0 SHL SUB AND PUSH2 0x1580 JUMP JUMPDEST STOP JUMPDEST PUSH2 0x726 PUSH1 0x4 DUP1 CALLDATASIZE SUB PUSH1 0xC0 DUP2 LT ISZERO PUSH2 0x573 JUMPI PUSH1 0x0 DUP1 REVERT JUMPDEST PUSH1 0x1 PUSH1 0x1 PUSH1 0xA0 SHL SUB DUP3 CALLDATALOAD DUP2 AND SWAP3 PUSH1 0x20 DUP2 ADD CALLDATALOAD SWAP1 SWAP2 AND SWAP2 DUP2 ADD SWAP1 PUSH1 0x60 DUP2 ADD PUSH1 0x40 DUP3 ADD CALLDATALOAD PUSH1 0x1 PUSH1 0x20 SHL DUP2 GT ISZERO PUSH2 0x5A6 JUMPI PUSH1 0x0 DUP1 REVERT JUMPDEST DUP3 ADD DUP4 PUSH1 0x20 DUP3 ADD GT ISZERO PUSH2 0x5B8 JUMPI PUSH1 0x0 DUP1 REVERT JUMPDEST DUP1 CALLDATALOAD SWAP1 PUSH1 0x20 ADD SWAP2 DUP5 PUSH1 0x1 DUP4 MUL DUP5 ADD GT PUSH1 0x1 PUSH1 0x20 SHL DUP4 GT OR ISZERO PUSH2 0x5D9 JUMPI PUSH1 0x0 DUP1 REVERT JUMPDEST SWAP2 SWAP1 DUP1 DUP1 PUSH1 0x1F ADD PUSH1 0x20 DUP1 SWAP2 DIV MUL PUSH1 0x20 ADD PUSH1 0x40 MLOAD SWAP1 DUP2 ADD PUSH1 0x40 MSTORE DUP1 SWAP4 SWAP3 SWAP2 SWAP1 DUP2 DUP2 MSTORE PUSH1 0x20 ADD DUP4 DUP4 DUP1 DUP3 DUP5 CALLDATACOPY PUSH1 0x0 SWAP3 ADD SWAP2 SWAP1 SWAP2 MSTORE POP SWAP3 SWAP6 SWAP5 SWAP4 PUSH1 0x20 DUP2 ADD SWAP4 POP CALLDATALOAD SWAP2 POP POP PUSH1 0x1 PUSH1 0x20 SHL DUP2 GT ISZERO PUSH2 0x62B JUMPI PUSH1 0x0 DUP1 REVERT JUMPDEST DUP3 ADD DUP4 PUSH1 0x20 DUP3 ADD GT ISZERO PUSH2 0x63D JUMPI PUSH1 0x0 DUP1 REVERT JUMPDEST DUP1 CALLDATALOAD SWAP1 PUSH1 0x20 ADD SWAP2 DUP5 PUSH1 0x1 DUP4 MUL DUP5 ADD GT PUSH1 0x1 PUSH1 0x20 SHL DUP4 GT OR ISZERO PUSH2 0x65E JUMPI PUSH1 0x0 DUP1 REVERT JUMPDEST SWAP2 SWAP1 DUP1 DUP1 PUSH1 0x1F ADD PUSH1 0x20 DUP1 SWAP2 DIV MUL PUSH1 0x20 ADD PUSH1 0x40 MLOAD SWAP1 DUP2 ADD PUSH1 0x40 MSTORE DUP1 SWAP4 SWAP3 SWAP2 SWAP1 DUP2 DUP2 MSTORE PUSH1 0x20 ADD DUP4 DUP4 DUP1 DUP3 DUP5 CALLDATACOPY PUSH1 0x0 SWAP3 ADD SWAP2 SWAP1 SWAP2 MSTORE POP SWAP3 SWAP6 SWAP5 SWAP4 PUSH1 0x20 DUP2 ADD SWAP4 POP CALLDATALOAD SWAP2 POP POP PUSH1 0x1 PUSH1 0x20 SHL DUP2 GT ISZERO PUSH2 0x6B0 JUMPI PUSH1 0x0 DUP1 REVERT JUMPDEST DUP3 ADD DUP4 PUSH1 0x20 DUP3 ADD GT ISZERO PUSH2 0x6C2 JUMPI PUSH1 0x0 DUP1 REVERT JUMPDEST DUP1 CALLDATALOAD SWAP1 PUSH1 0x20 ADD SWAP2 DUP5 PUSH1 0x1 DUP4 MUL DUP5 ADD GT PUSH1 0x1 PUSH1 0x20 SHL DUP4 GT OR ISZERO PUSH2 0x6E3 JUMPI PUSH1 0x0 DUP1 REVERT JUMPDEST SWAP2 SWAP1 DUP1 DUP1 PUSH1 0x1F ADD PUSH1 0x20 DUP1 SWAP2 DIV MUL PUSH1 0x20 ADD PUSH1 0x40 MLOAD SWAP1 DUP2 ADD PUSH1 0x40 MSTORE DUP1 SWAP4 SWAP3 SWAP2 SWAP1 DUP2 DUP2 MSTORE PUSH1 0x20 ADD DUP4 DUP4 DUP1 DUP3 DUP5 CALLDATACOPY PUSH1 0x0 SWAP3 ADD SWAP2 SWAP1 SWAP2 MSTORE POP SWAP3 SWAP6 POP POP POP POP CALLDATALOAD ISZERO ISZERO SWAP1 POP PUSH2 0x16EA JUMP JUMPDEST PUSH1 0x40 DUP1 MLOAD PUSH4 0xFFFFFFFF SWAP1 SWAP3 AND DUP3 MSTORE MLOAD SWAP1 DUP2 SWAP1 SUB PUSH1 0x20 ADD SWAP1 RETURN JUMPDEST PUSH2 0x765 PUSH1 0x4 DUP1 CALLDATASIZE SUB PUSH1 0x20 DUP2 LT ISZERO PUSH2 0x755 JUMPI PUSH1 0x0 DUP1 REVERT JUMPDEST POP CALLDATALOAD PUSH1 0x1 PUSH1 0x1 PUSH1 0xA0 SHL SUB AND PUSH2 0x18CA JUMP JUMPDEST PUSH1 0x40 DUP1 MLOAD SWAP2 ISZERO ISZERO DUP3 MSTORE MLOAD SWAP1 DUP2 SWAP1 SUB PUSH1 0x20 ADD SWAP1 RETURN JUMPDEST PUSH2 0x303 PUSH1 0x4 DUP1 CALLDATASIZE SUB PUSH1 0x60 DUP2 LT ISZERO PUSH2 0x78F JUMPI PUSH1 0x0 DUP1 REVERT JUMPDEST PUSH1 0x1 PUSH1 0x1 PUSH1 0xA0 SHL SUB DUP3 CALLDATALOAD AND SWAP2 SWAP1 DUP2 ADD SWAP1 PUSH1 0x40 DUP2 ADD PUSH1 0x20 DUP3 ADD CALLDATALOAD PUSH1 0x1 PUSH1 0x20 SHL DUP2 GT ISZERO PUSH2 0x7B9 JUMPI PUSH1 0x0 DUP1 REVERT JUMPDEST DUP3 ADD DUP4 PUSH1 0x20 DUP3 ADD GT ISZERO PUSH2 0x7CB JUMPI PUSH1 0x0 DUP1 REVERT JUMPDEST DUP1 CALLDATALOAD SWAP1 PUSH1 0x20 ADD SWAP2 DUP5 PUSH1 0x1 DUP4 MUL DUP5 ADD GT PUSH1 0x1 PUSH1 0x20 SHL DUP4 GT OR ISZERO PUSH2 0x7EC JUMPI PUSH1 0x0 DUP1 REVERT JUMPDEST SWAP2 SWAP1 DUP1 DUP1 PUSH1 0x1F ADD PUSH1 0x20 DUP1 SWAP2 DIV MUL PUSH1 0x20 ADD PUSH1 0x40 MLOAD SWAP1 DUP2 ADD PUSH1 0x40 MSTORE DUP1 SWAP4 SWAP3 SWAP2 SWAP1 DUP2 DUP2 MSTORE PUSH1 0x20 ADD DUP4 DUP4 DUP1 DUP3 DUP5 CALLDATACOPY PUSH1 0x0 SWAP3 ADD SWAP2 SWAP1 SWAP2 MSTORE POP SWAP3 SWAP6 SWAP5 SWAP4 PUSH1 0x20 DUP2 ADD SWAP4 POP CALLDATALOAD SWAP2 POP POP PUSH1 0x1 PUSH1 0x20 SHL DUP2 GT ISZERO PUSH2 0x83E JUMPI PUSH1 0x0 DUP1 REVERT JUMPDEST DUP3 ADD DUP4 PUSH1 0x20 DUP3 ADD GT ISZERO PUSH2 0x850 JUMPI PUSH1 0x0 DUP1 REVERT JUMPDEST DUP1 CALLDATALOAD SWAP1 PUSH1 0x20 ADD SWAP2 DUP5 PUSH1 0x1 DUP4 MUL DUP5 ADD GT PUSH1 0x1 PUSH1 0x20 SHL DUP4 GT OR ISZERO PUSH2 0x871 JUMPI PUSH1 0x0 DUP1 REVERT JUMPDEST SWAP2 SWAP1 DUP1 DUP1 PUSH1 0x1F ADD PUSH1 0x20 DUP1 SWAP2 DIV MUL PUSH1 0x20 ADD PUSH1 0x40 MLOAD SWAP1 DUP2 ADD PUSH1 0x40 MSTORE DUP1 SWAP4 SWAP3 SWAP2 SWAP1 DUP2 DUP2 MSTORE PUSH1 0x20 ADD DUP4 DUP4 DUP1 DUP3 DUP5 CALLDATACOPY PUSH1 0x0 SWAP3 ADD SWAP2 SWAP1 SWAP2 MSTORE POP SWAP3 SWAP6 POP PUSH2 0x18DF SWAP5 POP POP POP POP POP JUMP JUMPDEST PUSH2 0x233 PUSH1 0x4 DUP1 CALLDATASIZE SUB PUSH1 0x20 DUP2 LT ISZERO PUSH2 0x8C8 JUMPI PUSH1 0x0 DUP1 REVERT JUMPDEST POP CALLDATALOAD PUSH2 0x1A54 JUMP JUMPDEST PUSH2 0x303 PUSH1 0x4 DUP1 CALLDATASIZE SUB PUSH1 0x40 DUP2 LT ISZERO PUSH2 0x8E5 JUMPI PUSH1 0x0 DUP1 REVERT JUMPDEST POP PUSH1 0x1 PUSH1 0x1 PUSH1 0xA0 SHL SUB DUP2 CALLDATALOAD AND SWAP1 PUSH1 0x20 ADD CALLDATALOAD PUSH2 0x1A61 JUMP JUMPDEST PUSH2 0x726 PUSH2 0x1B15 JUMP JUMPDEST PUSH2 0x55B PUSH1 0x4 DUP1 CALLDATASIZE SUB PUSH1 0x20 DUP2 LT ISZERO PUSH2 0x919 JUMPI PUSH1 0x0 DUP1 REVERT JUMPDEST POP CALLDATALOAD PUSH4 0xFFFFFFFF AND PUSH2 0x1B1C JUMP JUMPDEST PUSH2 0x726 PUSH2 0x1C24 JUMP JUMPDEST PUSH2 0x55B PUSH1 0x4 DUP1 CALLDATASIZE SUB PUSH1 0x20 DUP2 LT ISZERO PUSH2 0x944 JUMPI PUSH1 0x0 DUP1 REVERT JUMPDEST POP CALLDATALOAD PUSH1 0x1 PUSH1 0x1 PUSH1 0xA0 SHL SUB AND PUSH2 0x1C2A JUMP JUMPDEST PUSH2 0x726 PUSH1 0x4 DUP1 CALLDATASIZE SUB PUSH1 0x20 DUP2 LT ISZERO PUSH2 0x96A JUMPI PUSH1 0x0 DUP1 REVERT JUMPDEST POP CALLDATALOAD PUSH4 0xFFFFFFFF AND PUSH2 0x1CC1 JUMP JUMPDEST PUSH2 0x55B PUSH1 0x4 DUP1 CALLDATASIZE SUB PUSH1 0x20 DUP2 LT ISZERO PUSH2 0x98D JUMPI PUSH1 0x0 DUP1 REVERT JUMPDEST POP CALLDATALOAD PUSH4 0xFFFFFFFF AND PUSH2 0x1CF0 JUMP JUMPDEST PUSH2 0x765 PUSH2 0x20EA JUMP JUMPDEST PUSH2 0x55B PUSH1 0x4 DUP1 CALLDATASIZE SUB PUSH1 0xA0 DUP2 LT ISZERO PUSH2 0x9B8 JUMPI PUSH1 0x0 DUP1 REVERT JUMPDEST PUSH1 0x1 PUSH1 0x1 PUSH1 0xA0 SHL SUB DUP3 CALLDATALOAD AND SWAP2 SWAP1 DUP2 ADD SWAP1 PUSH1 0x40 DUP2 ADD PUSH1 0x20 DUP3 ADD CALLDATALOAD PUSH1 0x1 PUSH1 0x20 SHL DUP2 GT ISZERO PUSH2 0x9E2 JUMPI PUSH1 0x0 DUP1 REVERT JUMPDEST DUP3 ADD DUP4 PUSH1 0x20 DUP3 ADD GT ISZERO PUSH2 0x9F4 JUMPI PUSH1 0x0 DUP1 REVERT JUMPDEST DUP1 CALLDATALOAD SWAP1 PUSH1 0x20 ADD SWAP2 DUP5 PUSH1 0x1 DUP4 MUL DUP5 ADD GT PUSH1 0x1 PUSH1 0x20 SHL DUP4 GT OR ISZERO PUSH2 0xA15 JUMPI PUSH1 0x0 DUP1 REVERT JUMPDEST SWAP2 SWAP1 DUP1 DUP1 PUSH1 0x1F ADD PUSH1 0x20 DUP1 SWAP2 DIV MUL PUSH1 0x20 ADD PUSH1 0x40 MLOAD SWAP1 DUP2 ADD PUSH1 0x40 MSTORE DUP1 SWAP4 SWAP3 SWAP2 SWAP1 DUP2 DUP2 MSTORE PUSH1 0x20 ADD DUP4 DUP4 DUP1 DUP3 DUP5 CALLDATACOPY PUSH1 0x0 SWAP3 ADD SWAP2 SWAP1 SWAP2 MSTORE POP SWAP3 SWAP6 SWAP5 SWAP4 PUSH1 0x20 DUP2 ADD SWAP4 POP CALLDATALOAD SWAP2 POP POP PUSH1 0x1 PUSH1 0x20 SHL DUP2 GT ISZERO PUSH2 0xA67 JUMPI PUSH1 0x0 DUP1 REVERT JUMPDEST DUP3 ADD DUP4 PUSH1 0x20 DUP3 ADD GT ISZERO PUSH2 0xA79 JUMPI PUSH1 0x0 DUP1 REVERT JUMPDEST DUP1 CALLDATALOAD SWAP1 PUSH1 0x20 ADD SWAP2 DUP5 PUSH1 0x1 DUP4 MUL DUP5 ADD GT PUSH1 0x1 PUSH1 0x20 SHL DUP4 GT OR ISZERO PUSH2 0xA9A JUMPI PUSH1 0x0 DUP1 REVERT JUMPDEST SWAP2 SWAP1 DUP1 DUP1 PUSH1 0x1F ADD PUSH1 0x20 DUP1 SWAP2 DIV MUL PUSH1 0x20 ADD PUSH1 0x40 MLOAD SWAP1 DUP2 ADD PUSH1 0x40 MSTORE DUP1 SWAP4 SWAP3 SWAP2 SWAP1 DUP2 DUP2 MSTORE PUSH1 0x20 ADD DUP4 DUP4 DUP1 DUP3 DUP5 CALLDATACOPY PUSH1 0x0 SWAP3 ADD SWAP2 SWAP1 SWAP2 MSTORE POP SWAP3 SWAP6 SWAP5 SWAP4 PUSH1 0x20 DUP2 ADD SWAP4 POP CALLDATALOAD SWAP2 POP POP PUSH1 0x1 PUSH1 0x20 SHL DUP2 GT ISZERO PUSH2 0xAEC JUMPI PUSH1 0x0 DUP1 REVERT JUMPDEST DUP3 ADD DUP4 PUSH1 0x20 DUP3 ADD GT ISZERO PUSH2 0xAFE JUMPI PUSH1 0x0 DUP1 REVERT JUMPDEST DUP1 CALLDATALOAD SWAP1 PUSH1 0x20 ADD SWAP2 DUP5 PUSH1 0x1 DUP4 MUL DUP5 ADD GT PUSH1 0x1 PUSH1 0x20 SHL DUP4 GT OR ISZERO PUSH2 0xB1F JUMPI PUSH1 0x0 DUP1 REVERT JUMPDEST SWAP2 SWAP1 DUP1 DUP1 PUSH1 0x1F ADD PUSH1 0x20 DUP1 SWAP2 DIV MUL PUSH1 0x20 ADD PUSH1 0x40 MLOAD SWAP1 DUP2 ADD PUSH1 0x40 MSTORE DUP1 SWAP4 SWAP3 SWAP2 SWAP1 DUP2 DUP2 MSTORE PUSH1 0x20 ADD DUP4 DUP4 DUP1 DUP3 DUP5 CALLDATACOPY PUSH1 0x0 SWAP3 ADD SWAP2 SWAP1 SWAP2 MSTORE POP SWAP3 SWAP6 POP POP POP POP CALLDATALOAD ISZERO ISZERO SWAP1 POP PUSH2 0x20EF JUMP JUMPDEST PUSH2 0x55B PUSH1 0x4 DUP1 CALLDATASIZE SUB PUSH1 0x40 DUP2 LT ISZERO PUSH2 0xB78 JUMPI PUSH1 0x0 DUP1 REVERT JUMPDEST POP DUP1 CALLDATALOAD PUSH1 0x1 PUSH1 0x1 PUSH1 0xA0 SHL SUB AND SWAP1 PUSH1 0x20 ADD CALLDATALOAD PUSH4 0xFFFFFFFF AND PUSH2 0x25C3 JUMP JUMPDEST PUSH2 0xBB1 PUSH1 0x4 DUP1 CALLDATASIZE SUB PUSH1 0x20 DUP2 LT ISZERO PUSH2 0xBAA JUMPI PUSH1 0x0 DUP1 REVERT JUMPDEST POP CALLDATALOAD PUSH2 0x264C JUMP JUMPDEST PUSH1 0x40 MLOAD DUP1 DUP6 PUSH1 0x1 PUSH1 0x1 PUSH1 0xA0 SHL SUB AND PUSH1 0x1 PUSH1 0x1 PUSH1 0xA0 SHL SUB AND DUP2 MSTORE PUSH1 0x20 ADD DUP5 PUSH1 0x1 PUSH1 0x1 PUSH1 0xA0 SHL SUB AND PUSH1 0x1 PUSH1 0x1 PUSH1 0xA0 SHL SUB AND DUP2 MSTORE PUSH1 0x20 ADD DUP1 PUSH1 0x20 ADD DUP4 ISZERO ISZERO ISZERO ISZERO DUP2 MSTORE PUSH1 0x20 ADD DUP3 DUP2 SUB DUP3 MSTORE DUP5 DUP2 DUP2 MLOAD DUP2 MSTORE PUSH1 0x20 ADD SWAP2 POP DUP1 MLOAD SWAP1 PUSH1 0x20 ADD SWAP1 DUP1 DUP4 DUP4 PUSH1 0x0 JUMPDEST DUP4 DUP2 LT ISZERO PUSH2 0xC28 JUMPI DUP2 DUP2 ADD MLOAD DUP4 DUP3 ADD MSTORE PUSH1 0x20 ADD PUSH2 0xC10 JUMP JUMPDEST POP POP POP POP SWAP1 POP SWAP1 DUP2 ADD SWAP1 PUSH1 0x1F AND DUP1 ISZERO PUSH2 0xC55 JUMPI DUP1 DUP3 SUB DUP1 MLOAD PUSH1 0x1 DUP4 PUSH1 0x20 SUB PUSH2 0x100 EXP SUB NOT AND DUP2 MSTORE PUSH1 0x20 ADD SWAP2 POP JUMPDEST POP SWAP6 POP POP POP POP POP POP PUSH1 0x40 MLOAD DUP1 SWAP2 SUB SWAP1 RETURN JUMPDEST PUSH2 0x55B PUSH1 0x4 DUP1 CALLDATASIZE SUB PUSH1 0x60 DUP2 LT ISZERO PUSH2 0xC7C JUMPI PUSH1 0x0 DUP1 REVERT JUMPDEST DUP2 ADD SWAP1 PUSH1 0x20 DUP2 ADD DUP2 CALLDATALOAD PUSH1 0x1 PUSH1 0x20 SHL DUP2 GT ISZERO PUSH2 0xC96 JUMPI PUSH1 0x0 DUP1 REVERT JUMPDEST DUP3 ADD DUP4 PUSH1 0x20 DUP3 ADD GT ISZERO PUSH2 0xCA8 JUMPI PUSH1 0x0 DUP1 REVERT JUMPDEST DUP1 CALLDATALOAD SWAP1 PUSH1 0x20 ADD SWAP2 DUP5 PUSH1 0x1 DUP4 MUL DUP5 ADD GT PUSH1 0x1 PUSH1 0x20 SHL DUP4 GT OR ISZERO PUSH2 0xCC9 JUMPI PUSH1 0x0 DUP1 REVERT JUMPDEST SWAP2 SWAP4 SWAP1 SWAP3 SWAP1 SWAP2 PUSH1 0x20 DUP2 ADD SWAP1 CALLDATALOAD PUSH1 0x1 PUSH1 0x20 SHL DUP2 GT ISZERO PUSH2 0xCE6 JUMPI PUSH1 0x0 DUP1 REVERT JUMPDEST DUP3 ADD DUP4 PUSH1 0x20 DUP3 ADD GT ISZERO PUSH2 0xCF8 JUMPI PUSH1 0x0 DUP1 REVERT JUMPDEST DUP1 CALLDATALOAD SWAP1 PUSH1 0x20 ADD SWAP2 DUP5 PUSH1 0x1 DUP4 MUL DUP5 ADD GT PUSH1 0x1 PUSH1 0x20 SHL DUP4 GT OR ISZERO PUSH2 0xD19 JUMPI PUSH1 0x0 DUP1 REVERT JUMPDEST SWAP2 SWAP4 POP SWAP2 POP CALLDATALOAD PUSH4 0xFFFFFFFF AND PUSH2 0x2720 JUMP JUMPDEST PUSH2 0x726 PUSH1 0x4 DUP1 CALLDATASIZE SUB PUSH1 0x20 DUP2 LT ISZERO PUSH2 0xD40 JUMPI PUSH1 0x0 DUP1 REVERT JUMPDEST POP CALLDATALOAD PUSH4 0xFFFFFFFF AND PUSH2 0x27AD JUMP JUMPDEST PUSH2 0xBB1 PUSH1 0x4 DUP1 CALLDATASIZE SUB PUSH1 0x20 DUP2 LT ISZERO PUSH2 0xD63 JUMPI PUSH1 0x0 DUP1 REVERT JUMPDEST POP CALLDATALOAD PUSH2 0x27C2 JUMP JUMPDEST PUSH2 0x765 PUSH1 0x4 DUP1 CALLDATASIZE SUB PUSH1 0x40 DUP2 LT ISZERO PUSH2 0xD80 JUMPI PUSH1 0x0 DUP1 REVERT JUMPDEST PUSH1 0x1 PUSH1 0x1 PUSH1 0xA0 SHL SUB DUP3 CALLDATALOAD AND SWAP2 SWAP1 DUP2 ADD SWAP1 PUSH1 0x40 DUP2 ADD PUSH1 0x20 DUP3 ADD CALLDATALOAD PUSH1 0x1 PUSH1 0x20 SHL DUP2 GT ISZERO PUSH2 0xDAA JUMPI PUSH1 0x0 DUP1 REVERT JUMPDEST DUP3 ADD DUP4 PUSH1 0x20 DUP3 ADD GT ISZERO PUSH2 0xDBC JUMPI PUSH1 0x0 DUP1 REVERT JUMPDEST DUP1 CALLDATALOAD SWAP1 PUSH1 0x20 ADD SWAP2 DUP5 PUSH1 0x1 DUP4 MUL DUP5 ADD GT PUSH1 0x1 PUSH1 0x20 SHL DUP4 GT OR ISZERO PUSH2 0xDDD JUMPI PUSH1 0x0 DUP1 REVERT JUMPDEST SWAP2 SWAP1 DUP1 DUP1 PUSH1 0x1F ADD PUSH1 0x20 DUP1 SWAP2 DIV MUL PUSH1 0x20 ADD PUSH1 0x40 MLOAD SWAP1 DUP2 ADD PUSH1 0x40 MSTORE DUP1 SWAP4 SWAP3 SWAP2 SWAP1 DUP2 DUP2 MSTORE PUSH1 0x20 ADD DUP4 DUP4 DUP1 DUP3 DUP5 CALLDATACOPY PUSH1 0x0 SWAP3 ADD SWAP2 SWAP1 SWAP2 MSTORE POP SWAP3 SWAP6 POP PUSH2 0x27CF SWAP5 POP POP POP POP POP JUMP JUMPDEST PUSH2 0x726 PUSH1 0x4 DUP1 CALLDATASIZE SUB PUSH1 0x20 DUP2 LT ISZERO PUSH2 0xE34 JUMPI PUSH1 0x0 DUP1 REVERT JUMPDEST DUP2 ADD SWAP1 PUSH1 0x20 DUP2 ADD DUP2 CALLDATALOAD PUSH1 0x1 PUSH1 0x20 SHL DUP2 GT ISZERO PUSH2 0xE4E JUMPI PUSH1 0x0 DUP1 REVERT JUMPDEST DUP3 ADD DUP4 PUSH1 0x20 DUP3 ADD GT ISZERO PUSH2 0xE60 JUMPI PUSH1 0x0 DUP1 REVERT JUMPDEST DUP1 CALLDATALOAD SWAP1 PUSH1 0x20 ADD SWAP2 DUP5 PUSH1 0x1 DUP4 MUL DUP5 ADD GT PUSH1 0x1 PUSH1 0x20 SHL DUP4 GT OR ISZERO PUSH2 0xE81 JUMPI PUSH1 0x0 DUP1 REVERT JUMPDEST POP SWAP1 SWAP3 POP SWAP1 POP PUSH2 0x2800 JUMP JUMPDEST PUSH2 0x726 PUSH1 0x4 DUP1 CALLDATASIZE SUB PUSH1 0x20 DUP2 LT ISZERO PUSH2 0xEA2 JUMPI PUSH1 0x0 DUP1 REVERT JUMPDEST POP CALLDATALOAD PUSH1 0x1 PUSH1 0x1 PUSH1 0xA0 SHL SUB AND PUSH2 0x296F JUMP JUMPDEST PUSH2 0x726 PUSH2 0x298A JUMP JUMPDEST PUSH2 0x726 PUSH1 0x4 DUP1 CALLDATASIZE SUB PUSH1 0x20 DUP2 LT ISZERO PUSH2 0xED0 JUMPI PUSH1 0x0 DUP1 REVERT JUMPDEST POP CALLDATALOAD PUSH1 0x1 PUSH1 0x1 PUSH1 0xA0 SHL SUB AND PUSH2 0x2990 JUMP JUMPDEST PUSH2 0x3A3 PUSH1 0x4 DUP1 CALLDATASIZE SUB PUSH1 0x40 DUP2 LT ISZERO PUSH2 0xEF6 JUMPI PUSH1 0x0 DUP1 REVERT JUMPDEST POP PUSH4 0xFFFFFFFF DUP2 CALLDATALOAD DUP2 AND SWAP2 PUSH1 0x20 ADD CALLDATALOAD AND PUSH2 0x29A8 JUMP JUMPDEST PUSH2 0x55B PUSH1 0x4 DUP1 CALLDATASIZE SUB PUSH1 0x40 DUP2 LT ISZERO PUSH2 0xF21 JUMPI PUSH1 0x0 DUP1 REVERT JUMPDEST POP DUP1 CALLDATALOAD PUSH1 0x1 PUSH1 0x1 PUSH1 0xA0 SHL SUB AND SWAP1 PUSH1 0x20 ADD CALLDATALOAD PUSH4 0xFFFFFFFF AND PUSH2 0x29FD JUMP JUMPDEST PUSH2 0x765 PUSH2 0x2A69 JUMP JUMPDEST PUSH2 0x55B PUSH1 0x4 DUP1 CALLDATASIZE SUB PUSH1 0x80 DUP2 LT ISZERO PUSH2 0xF5B JUMPI PUSH1 0x0 DUP1 REVERT JUMPDEST PUSH1 0x1 PUSH1 0x1 PUSH1 0xA0 SHL SUB DUP3 CALLDATALOAD AND SWAP2 SWAP1 DUP2 ADD SWAP1 PUSH1 0x40 DUP2 ADD PUSH1 0x20 DUP3 ADD CALLDATALOAD PUSH1 0x1 PUSH1 0x20 SHL DUP2 GT ISZERO PUSH2 0xF85 JUMPI PUSH1 0x0 DUP1 REVERT JUMPDEST DUP3 ADD DUP4 PUSH1 0x20 DUP3 ADD GT ISZERO PUSH2 0xF97 JUMPI PUSH1 0x0 DUP1 REVERT JUMPDEST DUP1 CALLDATALOAD SWAP1 PUSH1 0x20 ADD SWAP2 DUP5 PUSH1 0x1 DUP4 MUL DUP5 ADD GT PUSH1 0x1 PUSH1 0x20 SHL DUP4 GT OR ISZERO PUSH2 0xFB8 JUMPI PUSH1 0x0 DUP1 REVERT JUMPDEST SWAP2 SWAP1 DUP1 DUP1 PUSH1 0x1F ADD PUSH1 0x20 DUP1 SWAP2 DIV MUL PUSH1 0x20 ADD PUSH1 0x40 MLOAD SWAP1 DUP2 ADD PUSH1 0x40 MSTORE DUP1 SWAP4 SWAP3 SWAP2 SWAP1 DUP2 DUP2 MSTORE PUSH1 0x20 ADD DUP4 DUP4 DUP1 DUP3 DUP5 CALLDATACOPY PUSH1 0x0 SWAP3 ADD SWAP2 SWAP1 SWAP2 MSTORE POP SWAP3 SWAP6 SWAP5 SWAP4 PUSH1 0x20 DUP2 ADD SWAP4 POP CALLDATALOAD SWAP2 POP POP PUSH1 0x1 PUSH1 0x20 SHL DUP2 GT ISZERO PUSH2 0x100A JUMPI PUSH1 0x0 DUP1 REVERT JUMPDEST DUP3 ADD DUP4 PUSH1 0x20 DUP3 ADD GT ISZERO PUSH2 0x101C JUMPI PUSH1 0x0 DUP1 REVERT JUMPDEST DUP1 CALLDATALOAD SWAP1 PUSH1 0x20 ADD SWAP2 DUP5 PUSH1 0x1 DUP4 MUL DUP5 ADD GT PUSH1 0x1 PUSH1 0x20 SHL DUP4 GT OR ISZERO PUSH2 0x103D JUMPI PUSH1 0x0 DUP1 REVERT JUMPDEST SWAP2 SWAP1 DUP1 DUP1 PUSH1 0x1F ADD PUSH1 0x20 DUP1 SWAP2 DIV MUL PUSH1 0x20 ADD PUSH1 0x40 MLOAD SWAP1 DUP2 ADD PUSH1 0x40 MSTORE DUP1 SWAP4 SWAP3 SWAP2 SWAP1 DUP2 DUP2 MSTORE PUSH1 0x20 ADD DUP4 DUP4 DUP1 DUP3 DUP5 CALLDATACOPY PUSH1 0x0 SWAP3 ADD SWAP2 SWAP1 SWAP2 MSTORE POP SWAP3 SWAP6 POP POP POP SWAP1 CALLDATALOAD PUSH4 0xFFFFFFFF AND SWAP2 POP PUSH2 0x2A72 SWAP1 POP JUMP JUMPDEST PUSH2 0x765 PUSH1 0x4 DUP1 CALLDATASIZE SUB PUSH1 0x20 DUP2 LT ISZERO PUSH2 0x109C JUMPI PUSH1 0x0 DUP1 REVERT JUMPDEST POP CALLDATALOAD PUSH1 0x1 PUSH1 0x1 PUSH1 0xA0 SHL SUB AND PUSH2 0x2BD0 JUMP JUMPDEST PUSH2 0x55B PUSH1 0x4 DUP1 CALLDATASIZE SUB PUSH1 0x60 DUP2 LT ISZERO PUSH2 0x10C2 JUMPI PUSH1 0x0 DUP1 REVERT JUMPDEST DUP2 ADD SWAP1 PUSH1 0x20 DUP2 ADD DUP2 CALLDATALOAD PUSH1 0x1 PUSH1 0x20 SHL DUP2 GT ISZERO PUSH2 0x10DC JUMPI PUSH1 0x0 DUP1 REVERT JUMPDEST DUP3 ADD DUP4 PUSH1 0x20 DUP3 ADD GT ISZERO PUSH2 0x10EE JUMPI PUSH1 0x0 DUP1 REVERT JUMPDEST DUP1 CALLDATALOAD SWAP1 PUSH1 0x20 ADD SWAP2 DUP5 PUSH1 0x1 DUP4 MUL DUP5 ADD GT PUSH1 0x1 PUSH1 0x20 SHL DUP4 GT OR ISZERO PUSH2 0x110F JUMPI PUSH1 0x0 DUP1 REVERT JUMPDEST SWAP2 SWAP1 DUP1 DUP1 PUSH1 0x1F ADD PUSH1 0x20 DUP1 SWAP2 DIV MUL PUSH1 0x20 ADD PUSH1 0x40 MLOAD SWAP1 DUP2 ADD PUSH1 0x40 MSTORE DUP1 SWAP4 SWAP3 SWAP2 SWAP1 DUP2 DUP2 MSTORE PUSH1 0x20 ADD DUP4 DUP4 DUP1 DUP3 DUP5 CALLDATACOPY PUSH1 0x0 SWAP3 ADD SWAP2 SWAP1 SWAP2 MSTORE POP SWAP3 SWAP6 SWAP5 SWAP4 PUSH1 0x20 DUP2 ADD SWAP4 POP CALLDATALOAD SWAP2 POP POP PUSH1 0x1 PUSH1 0x20 SHL DUP2 GT ISZERO PUSH2 0x1161 JUMPI PUSH1 0x0 DUP1 REVERT JUMPDEST DUP3 ADD DUP4 PUSH1 0x20 DUP3 ADD GT ISZERO PUSH2 0x1173 JUMPI PUSH1 0x0 DUP1 REVERT JUMPDEST DUP1 CALLDATALOAD SWAP1 PUSH1 0x20 ADD SWAP2 DUP5 PUSH1 0x1 DUP4 MUL DUP5 ADD GT PUSH1 0x1 PUSH1 0x20 SHL DUP4 GT OR ISZERO PUSH2 0x1194 JUMPI PUSH1 0x0 DUP1 REVERT JUMPDEST SWAP2 SWAP1 DUP1 DUP1 PUSH1 0x1F ADD PUSH1 0x20 DUP1 SWAP2 DIV MUL PUSH1 0x20 ADD PUSH1 0x40 MLOAD SWAP1 DUP2 ADD PUSH1 0x40 MSTORE DUP1 SWAP4 SWAP3 SWAP2 SWAP1 DUP2 DUP2 MSTORE PUSH1 0x20 ADD DUP4 DUP4 DUP1 DUP3 DUP5 CALLDATACOPY PUSH1 0x0 SWAP3 ADD SWAP2 SWAP1 SWAP2 MSTORE POP SWAP3 SWAP6 POP POP POP SWAP1 CALLDATALOAD PUSH4 0xFFFFFFFF AND SWAP2 POP PUSH2 0x2BE5 SWAP1 POP JUMP JUMPDEST PUSH1 0xB DUP2 DUP2 SLOAD DUP2 LT PUSH2 0x11EA JUMPI INVALID JUMPDEST PUSH1 0x0 SWAP2 DUP3 MSTORE PUSH1 0x20 SWAP1 SWAP2 KECCAK256 ADD SLOAD PUSH1 0x1 PUSH1 0x1 PUSH1 0xA0 SHL SUB AND SWAP1 POP DUP2 JUMP JUMPDEST PUSH1 0x60 PUSH1 0x2 PUSH1 0x0 DUP5 PUSH1 0x1 PUSH1 0x1 PUSH1 0xA0 SHL SUB AND PUSH1 0x1 PUSH1 0x1 PUSH1 0xA0 SHL SUB AND DUP2 MSTORE PUSH1 0x20 ADD SWAP1 DUP2 MSTORE PUSH1 0x20 ADD PUSH1 0x0 KECCAK256 DUP3 PUSH1 0x40 MLOAD DUP1 DUP3 DUP1 MLOAD SWAP1 PUSH1 0x20 ADD SWAP1 DUP1 DUP4 DUP4 JUMPDEST PUSH1 0x20 DUP4 LT PUSH2 0x125B JUMPI DUP1 MLOAD DUP3 MSTORE PUSH1 0x1F NOT SWAP1 SWAP3 ADD SWAP2 PUSH1 0x20 SWAP2 DUP3 ADD SWAP2 ADD PUSH2 0x123C JUMP JUMPDEST MLOAD DUP2 MLOAD PUSH1 0x0 NOT PUSH1 0x20 SWAP5 DUP6 SUB PUSH2 0x100 SWAP1 DUP2 EXP DUP3 ADD SWAP3 DUP4 AND SWAP3 NOT SWAP4 SWAP1 SWAP4 AND SWAP2 SWAP1 SWAP2 OR SWAP1 SWAP3 MSTORE SWAP5 SWAP1 SWAP3 ADD SWAP7 DUP8 MSTORE PUSH1 0x40 DUP1 MLOAD SWAP8 DUP9 SWAP1 SUB DUP3 ADD DUP9 KECCAK256 PUSH1 0x1 SWAP1 DUP2 ADD DUP1 SLOAD PUSH1 0x1F PUSH1 0x2 SWAP4 DUP3 AND ISZERO SWAP1 SWAP9 MUL SWAP1 SWAP6 ADD SWAP1 SWAP5 AND DIV SWAP5 DUP6 ADD DUP3 SWAP1 DIV DUP3 MUL DUP9 ADD DUP3 ADD SWAP1 MSTORE DUP4 DUP8 MSTORE SWAP1 SWAP5 POP SWAP2 SWAP3 POP POP DUP4 ADD DUP3 DUP3 DUP1 ISZERO PUSH2 0x1313 JUMPI DUP1 PUSH1 0x1F LT PUSH2 0x12E8 JUMPI PUSH2 0x100 DUP1 DUP4 SLOAD DIV MUL DUP4 MSTORE SWAP2 PUSH1 0x20 ADD SWAP2 PUSH2 0x1313 JUMP JUMPDEST DUP3 ADD SWAP2 SWAP1 PUSH1 0x0 MSTORE PUSH1 0x20 PUSH1 0x0 KECCAK256 SWAP1 JUMPDEST DUP2 SLOAD DUP2 MSTORE SWAP1 PUSH1 0x1 ADD SWAP1 PUSH1 0x20 ADD DUP1 DUP4 GT PUSH2 0x12F6 JUMPI DUP3 SWAP1 SUB PUSH1 0x1F AND DUP3 ADD SWAP2 JUMPDEST POP POP POP POP POP SWAP1 POP SWAP3 SWAP2 POP POP JUMP JUMPDEST PUSH1 0x60 DUP1 PUSH1 0x9 DUP5 PUSH4 0xFFFFFFFF AND DUP2 SLOAD DUP2 LT PUSH2 0x1336 JUMPI INVALID JUMPDEST SWAP1 PUSH1 0x0 MSTORE PUSH1 0x20 PUSH1 0x0 KECCAK256 SWAP1 PUSH1 0x8 MUL ADD PUSH1 0x3 ADD DUP4 PUSH4 0xFFFFFFFF AND DUP2 SLOAD DUP2 LT PUSH2 0x1358 JUMPI INVALID JUMPDEST SWAP1 PUSH1 0x0 MSTORE PUSH1 0x20 PUSH1 0x0 KECCAK256 ADD PUSH1 0x9 DUP6 PUSH4 0xFFFFFFFF AND DUP2 SLOAD DUP2 LT PUSH2 0x1375 JUMPI INVALID JUMPDEST SWAP1 PUSH1 0x0 MSTORE PUSH1 0x20 PUSH1 0x0 KECCAK256 SWAP1 PUSH1 0x8 MUL ADD PUSH1 0x6 ADD DUP5 PUSH4 0xFFFFFFFF AND DUP2 SLOAD DUP2 LT PUSH2 0x1397 JUMPI INVALID JUMPDEST PUSH1 0x0 SWAP2 DUP3 MSTORE PUSH1 0x20 SWAP2 DUP3 SWAP1 KECCAK256 DUP4 SLOAD PUSH1 0x40 DUP1 MLOAD PUSH1 0x2 PUSH1 0x1 DUP5 AND ISZERO PUSH2 0x100 MUL PUSH1 0x0 NOT ADD SWAP1 SWAP4 AND SWAP3 SWAP1 SWAP3 DIV PUSH1 0x1F DUP2 ADD DUP7 SWAP1 DIV DUP7 MUL DUP4 ADD DUP7 ADD SWAP1 SWAP2 MSTORE DUP1 DUP3 MSTORE SWAP3 SWAP1 SWAP2 ADD SWAP3 SWAP1 SWAP2 DUP5 SWAP2 DUP4 ADD DUP3 DUP3 DUP1 ISZERO PUSH2 0x142B JUMPI DUP1 PUSH1 0x1F LT PUSH2 0x1400 JUMPI PUSH2 0x100 DUP1 DUP4 SLOAD DIV MUL DUP4 MSTORE SWAP2 PUSH1 0x20 ADD SWAP2 PUSH2 0x142B JUMP JUMPDEST DUP3 ADD SWAP2 SWAP1 PUSH1 0x0 MSTORE PUSH1 0x20 PUSH1 0x0 KECCAK256 SWAP1 JUMPDEST DUP2 SLOAD DUP2 MSTORE SWAP1 PUSH1 0x1 ADD SWAP1 PUSH1 0x20 ADD DUP1 DUP4 GT PUSH2 0x140E JUMPI DUP3 SWAP1 SUB PUSH1 0x1F AND DUP3 ADD SWAP2 JUMPDEST POP POP DUP5 SLOAD PUSH1 0x40 DUP1 MLOAD PUSH1 0x20 PUSH1 0x2 PUSH1 0x1 DUP6 AND ISZERO PUSH2 0x100 MUL PUSH1 0x0 NOT ADD SWAP1 SWAP5 AND SWAP4 SWAP1 SWAP4 DIV PUSH1 0x1F DUP2 ADD DUP5 SWAP1 DIV DUP5 MUL DUP3 ADD DUP5 ADD SWAP1 SWAP3 MSTORE DUP2 DUP2 MSTORE SWAP6 SWAP8 POP DUP7 SWAP5 POP SWAP3 POP DUP5 ADD SWAP1 POP DUP3 DUP3 DUP1 ISZERO PUSH2 0x14B9 JUMPI DUP1 PUSH1 0x1F LT PUSH2 0x148E JUMPI PUSH2 0x100 DUP1 DUP4 SLOAD DIV MUL DUP4 MSTORE SWAP2 PUSH1 0x20 ADD SWAP2 PUSH2 0x14B9 JUMP JUMPDEST DUP3 ADD SWAP2 SWAP1 PUSH1 0x0 MSTORE PUSH1 0x20 PUSH1 0x0 KECCAK256 SWAP1 JUMPDEST DUP2 SLOAD DUP2 MSTORE SWAP1 PUSH1 0x1 ADD SWAP1 PUSH1 0x20 ADD DUP1 DUP4 GT PUSH2 0x149C JUMPI DUP3 SWAP1 SUB PUSH1 0x1F AND DUP3 ADD SWAP2 JUMPDEST POP POP POP POP POP SWAP1 POP SWAP2 POP SWAP2 POP SWAP3 POP SWAP3 SWAP1 POP JUMP JUMPDEST PUSH1 0x2 PUSH1 0x20 DUP2 DUP2 MSTORE PUSH1 0x0 SWAP4 DUP5 MSTORE PUSH1 0x40 SWAP4 DUP5 SWAP1 KECCAK256 DUP4 MLOAD DUP1 DUP6 ADD DUP4 ADD DUP1 MLOAD SWAP3 DUP2 MSTORE SWAP1 DUP4 ADD SWAP5 DUP4 ADD SWAP5 SWAP1 SWAP5 KECCAK256 SWAP4 MSTORE PUSH1 0x1 DUP1 DUP5 ADD DUP1 SLOAD DUP7 MLOAD SWAP3 DUP2 AND ISZERO PUSH2 0x100 MUL PUSH1 0x0 NOT ADD AND SWAP4 SWAP1 SWAP4 DIV PUSH1 0x1F DUP2 ADD DUP4 SWAP1 DIV DUP4 MUL DUP3 ADD DUP4 ADD SWAP1 SWAP6 MSTORE DUP5 DUP2 MSTORE SWAP3 SWAP4 SWAP1 DUP4 ADD DUP3 DUP3 DUP1 ISZERO PUSH2 0x1576 JUMPI DUP1 PUSH1 0x1F LT PUSH2 0x154B JUMPI PUSH2 0x100 DUP1 DUP4 SLOAD DIV MUL DUP4 MSTORE SWAP2 PUSH1 0x20 ADD SWAP2 PUSH2 0x1576 JUMP JUMPDEST DUP3 ADD SWAP2 SWAP1 PUSH1 0x0 MSTORE PUSH1 0x20 PUSH1 0x0 KECCAK256 SWAP1 JUMPDEST DUP2 SLOAD DUP2 MSTORE SWAP1 PUSH1 0x1 ADD SWAP1 PUSH1 0x20 ADD DUP1 DUP4 GT PUSH2 0x1559 JUMPI DUP3 SWAP1 SUB PUSH1 0x1F AND DUP3 ADD SWAP2 JUMPDEST POP POP POP POP POP SWAP1 POP DUP2 JUMP JUMPDEST CALLER PUSH1 0x0 SWAP1 DUP2 MSTORE PUSH1 0xA PUSH1 0x20 MSTORE PUSH1 0x40 SWAP1 KECCAK256 SLOAD PUSH1 0xFF AND PUSH2 0x159C JUMPI PUSH1 0x0 DUP1 REVERT JUMPDEST PUSH1 0x1 PUSH1 0x1 PUSH1 0xA0 SHL SUB DUP2 AND PUSH1 0x0 SWAP1 DUP2 MSTORE PUSH1 0xA PUSH1 0x20 MSTORE PUSH1 0x40 SWAP1 KECCAK256 SLOAD DUP2 SWAP1 PUSH1 0xFF AND PUSH2 0x15C3 JUMPI PUSH1 0x0 DUP1 REVERT JUMPDEST PUSH1 0xB SLOAD PUSH1 0x1 LT PUSH2 0x15D2 JUMPI PUSH1 0x0 DUP1 REVERT JUMPDEST PUSH1 0x1 PUSH1 0x1 PUSH1 0xA0 SHL SUB DUP3 AND PUSH1 0x0 SWAP1 DUP2 MSTORE PUSH1 0xA PUSH1 0x20 MSTORE PUSH1 0x40 DUP2 KECCAK256 DUP1 SLOAD PUSH1 0xFF NOT AND SWAP1 SSTORE JUMPDEST PUSH1 0xB SLOAD PUSH1 0x0 NOT ADD PUSH4 0xFFFFFFFF DUP3 AND LT ISZERO PUSH2 0x16B8 JUMPI DUP3 PUSH1 0x1 PUSH1 0x1 PUSH1 0xA0 SHL SUB AND PUSH1 0xB DUP3 PUSH4 0xFFFFFFFF AND DUP2 SLOAD DUP2 LT PUSH2 0x1624 JUMPI INVALID JUMPDEST PUSH1 0x0 SWAP2 DUP3 MSTORE PUSH1 0x20 SWAP1 SWAP2 KECCAK256 ADD SLOAD PUSH1 0x1 PUSH1 0x1 PUSH1 0xA0 SHL SUB AND EQ ISZERO PUSH2 0x16B0 JUMPI PUSH1 0xB DUP1 SLOAD PUSH1 0x0 NOT DUP2 ADD SWAP1 DUP2 LT PUSH2 0x1651 JUMPI INVALID JUMPDEST PUSH1 0x0 SWAP2 DUP3 MSTORE PUSH1 0x20 SWAP1 SWAP2 KECCAK256 ADD SLOAD PUSH1 0xB DUP1 SLOAD PUSH1 0x1 PUSH1 0x1 PUSH1 0xA0 SHL SUB SWAP1 SWAP3 AND SWAP2 PUSH4 0xFFFFFFFF DUP5 AND SWAP1 DUP2 LT PUSH2 0x167D JUMPI INVALID JUMPDEST SWAP1 PUSH1 0x0 MSTORE PUSH1 0x20 PUSH1 0x0 KECCAK256 ADD PUSH1 0x0 PUSH2 0x100 EXP DUP2 SLOAD DUP2 PUSH1 0x1 PUSH1 0x1 PUSH1 0xA0 SHL SUB MUL NOT AND SWAP1 DUP4 PUSH1 0x1 PUSH1 0x1 PUSH1 0xA0 SHL SUB AND MUL OR SWAP1 SSTORE POP PUSH2 0x16B8 JUMP JUMPDEST PUSH1 0x1 ADD PUSH2 0x15F3 JUMP JUMPDEST POP PUSH1 0xB DUP1 SLOAD DUP1 PUSH2 0x16C4 JUMPI INVALID JUMPDEST PUSH1 0x0 DUP3 DUP2 MSTORE PUSH1 0x20 SWAP1 KECCAK256 DUP2 ADD PUSH1 0x0 NOT SWAP1 DUP2 ADD DUP1 SLOAD PUSH1 0x1 PUSH1 0x1 PUSH1 0xA0 SHL SUB NOT AND SWAP1 SSTORE ADD SWAP1 SSTORE POP POP JUMP JUMPDEST CALLER PUSH1 0x0 SWAP1 DUP2 MSTORE PUSH1 0xA PUSH1 0x20 MSTORE PUSH1 0x40 DUP2 KECCAK256 SLOAD PUSH1 0xFF AND PUSH2 0x1706 JUMPI PUSH1 0x0 DUP1 REVERT JUMPDEST PUSH1 0x0 DUP8 SWAP1 POP DUP1 PUSH1 0x1 PUSH1 0x1 PUSH1 0xA0 SHL SUB AND PUSH4 0x8C162152 DUP9 DUP9 DUP9 DUP9 DUP9 PUSH1 0x40 MLOAD DUP7 PUSH4 0xFFFFFFFF AND PUSH1 0xE0 SHL DUP2 MSTORE PUSH1 0x4 ADD DUP1 DUP7 PUSH1 0x1 PUSH1 0x1 PUSH1 0xA0 SHL SUB AND PUSH1 0x1 PUSH1 0x1 PUSH1 0xA0 SHL SUB AND DUP2 MSTORE PUSH1 0x20 ADD DUP1 PUSH1 0x20 ADD DUP1 PUSH1 0x20 ADD DUP1 PUSH1 0x20 ADD DUP6 ISZERO ISZERO ISZERO ISZERO DUP2 MSTORE PUSH1 0x20 ADD DUP5 DUP2 SUB DUP5 MSTORE DUP9 DUP2 DUP2 MLOAD DUP2 MSTORE PUSH1 0x20 ADD SWAP2 POP DUP1 MLOAD SWAP1 PUSH1 0x20 ADD SWAP1 DUP1 DUP4 DUP4 PUSH1 0x0 JUMPDEST DUP4 DUP2 LT ISZERO PUSH2 0x1795 JUMPI DUP2 DUP2 ADD MLOAD DUP4 DUP3 ADD MSTORE PUSH1 0x20 ADD PUSH2 0x177D JUMP JUMPDEST POP POP POP POP SWAP1 POP SWAP1 DUP2 ADD SWAP1 PUSH1 0x1F AND DUP1 ISZERO PUSH2 0x17C2 JUMPI DUP1 DUP3 SUB DUP1 MLOAD PUSH1 0x1 DUP4 PUSH1 0x20 SUB PUSH2 0x100 EXP SUB NOT AND DUP2 MSTORE PUSH1 0x20 ADD SWAP2 POP JUMPDEST POP DUP5 DUP2 SUB DUP4 MSTORE DUP8 MLOAD DUP2 MSTORE DUP8 MLOAD PUSH1 0x20 SWAP2 DUP3 ADD SWAP2 DUP10 ADD SWAP1 DUP1 DUP4 DUP4 PUSH1 0x0 JUMPDEST DUP4 DUP2 LT ISZERO PUSH2 0x17F5 JUMPI DUP2 DUP2 ADD MLOAD DUP4 DUP3 ADD MSTORE PUSH1 0x20 ADD PUSH2 0x17DD JUMP JUMPDEST POP POP POP POP SWAP1 POP SWAP1 DUP2 ADD SWAP1 PUSH1 0x1F AND DUP1 ISZERO PUSH2 0x1822 JUMPI DUP1 DUP3 SUB DUP1 MLOAD PUSH1 0x1 DUP4 PUSH1 0x20 SUB PUSH2 0x100 EXP SUB NOT AND DUP2 MSTORE PUSH1 0x20 ADD SWAP2 POP JUMPDEST POP DUP5 DUP2 SUB DUP3 MSTORE DUP7 MLOAD DUP2 MSTORE DUP7 MLOAD PUSH1 0x20 SWAP2 DUP3 ADD SWAP2 DUP9 ADD SWAP1 DUP1 DUP4 DUP4 PUSH1 0x0 JUMPDEST DUP4 DUP2 LT ISZERO PUSH2 0x1855 JUMPI DUP2 DUP2 ADD MLOAD DUP4 DUP3 ADD MSTORE PUSH1 0x20 ADD PUSH2 0x183D JUMP JUMPDEST POP POP POP POP SWAP1 POP SWAP1 DUP2 ADD SWAP1 PUSH1 0x1F AND DUP1 ISZERO PUSH2 0x1882 JUMPI DUP1 DUP3 SUB DUP1 MLOAD PUSH1 0x1 DUP4 PUSH1 0x20 SUB PUSH2 0x100 EXP SUB NOT AND DUP2 MSTORE PUSH1 0x20 ADD SWAP2 POP JUMPDEST POP SWAP9 POP POP POP POP POP POP POP POP POP PUSH1 0x0 PUSH1 0x40 MLOAD DUP1 DUP4 SUB DUP2 PUSH1 0x0 DUP8 DUP1 EXTCODESIZE ISZERO DUP1 ISZERO PUSH2 0x18A7 JUMPI PUSH1 0x0 DUP1 REVERT JUMPDEST POP GAS CALL ISZERO DUP1 ISZERO PUSH2 0x18BB JUMPI RETURNDATASIZE PUSH1 0x0 DUP1 RETURNDATACOPY RETURNDATASIZE PUSH1 0x0 REVERT JUMPDEST POP POP POP POP POP SWAP7 SWAP6 POP POP POP POP POP POP JUMP JUMPDEST PUSH1 0xA PUSH1 0x20 MSTORE PUSH1 0x0 SWAP1 DUP2 MSTORE PUSH1 0x40 SWAP1 KECCAK256 SLOAD PUSH1 0xFF AND DUP2 JUMP JUMPDEST PUSH1 0x60 PUSH1 0x2 PUSH1 0x0 DUP6 PUSH1 0x1 PUSH1 0x1 PUSH1 0xA0 SHL SUB AND PUSH1 0x1 PUSH1 0x1 PUSH1 0xA0 SHL SUB AND DUP2 MSTORE PUSH1 0x20 ADD SWAP1 DUP2 MSTORE PUSH1 0x20 ADD PUSH1 0x0 KECCAK256 DUP4 PUSH1 0x40 MLOAD DUP1 DUP3 DUP1 MLOAD SWAP1 PUSH1 0x20 ADD SWAP1 DUP1 DUP4 DUP4 JUMPDEST PUSH1 0x20 DUP4 LT PUSH2 0x1936 JUMPI DUP1 MLOAD DUP3 MSTORE PUSH1 0x1F NOT SWAP1 SWAP3 ADD SWAP2 PUSH1 0x20 SWAP2 DUP3 ADD SWAP2 ADD PUSH2 0x1917 JUMP JUMPDEST MLOAD DUP2 MLOAD PUSH1 0x20 SWAP4 DUP5 SUB PUSH2 0x100 EXP PUSH1 0x0 NOT ADD DUP1 NOT SWAP1 SWAP3 AND SWAP2 AND OR SWAP1 MSTORE SWAP3 ADD SWAP5 DUP6 MSTORE POP PUSH1 0x40 MLOAD SWAP4 DUP5 SWAP1 SUB DUP2 ADD DUP5 KECCAK256 DUP7 MLOAD SWAP1 SWAP5 DUP8 SWAP5 POP SWAP3 POP DUP3 SWAP2 DUP5 ADD SWAP1 DUP1 DUP4 DUP4 JUMPDEST PUSH1 0x20 DUP4 LT PUSH2 0x1992 JUMPI DUP1 MLOAD DUP3 MSTORE PUSH1 0x1F NOT SWAP1 SWAP3 ADD SWAP2 PUSH1 0x20 SWAP2 DUP3 ADD SWAP2 ADD PUSH2 0x1973 JUMP JUMPDEST MLOAD DUP2 MLOAD PUSH1 0x0 NOT PUSH1 0x20 SWAP5 DUP6 SUB PUSH2 0x100 SWAP1 DUP2 EXP DUP3 ADD SWAP3 DUP4 AND SWAP3 NOT SWAP4 SWAP1 SWAP4 AND SWAP2 SWAP1 SWAP2 OR SWAP1 SWAP3 MSTORE SWAP5 SWAP1 SWAP3 ADD SWAP7 DUP8 MSTORE PUSH1 0x40 DUP1 MLOAD SWAP8 DUP9 SWAP1 SUB DUP3 ADD DUP9 KECCAK256 DUP1 SLOAD PUSH1 0x1F PUSH1 0x2 PUSH1 0x1 DUP4 AND ISZERO SWAP1 SWAP9 MUL SWAP1 SWAP6 ADD AND SWAP6 SWAP1 SWAP6 DIV SWAP3 DUP4 ADD DUP3 SWAP1 DIV DUP3 MUL DUP9 ADD DUP3 ADD SWAP1 MSTORE DUP2 DUP8 MSTORE SWAP3 SWAP5 POP SWAP3 POP POP DUP4 ADD DUP3 DUP3 DUP1 ISZERO PUSH2 0x1A46 JUMPI DUP1 PUSH1 0x1F LT PUSH2 0x1A1B JUMPI PUSH2 0x100 DUP1 DUP4 SLOAD DIV MUL DUP4 MSTORE SWAP2 PUSH1 0x20 ADD SWAP2 PUSH2 0x1A46 JUMP JUMPDEST DUP3 ADD SWAP2 SWAP1 PUSH1 0x0 MSTORE PUSH1 0x20 PUSH1 0x0 KECCAK256 SWAP1 JUMPDEST DUP2 SLOAD DUP2 MSTORE SWAP1 PUSH1 0x1 ADD SWAP1 PUSH1 0x20 ADD DUP1 DUP4 GT PUSH2 0x1A29 JUMPI DUP3 SWAP1 SUB PUSH1 0x1F AND DUP3 ADD SWAP2 JUMPDEST POP POP POP POP POP SWAP1 POP SWAP4 SWAP3 POP POP POP JUMP JUMPDEST PUSH1 0x3 DUP2 DUP2 SLOAD DUP2 LT PUSH2 0x11EA JUMPI INVALID JUMPDEST PUSH1 0x5 PUSH1 0x20 MSTORE DUP2 PUSH1 0x0 MSTORE PUSH1 0x40 PUSH1 0x0 KECCAK256 DUP2 DUP2 SLOAD DUP2 LT PUSH2 0x1A7A JUMPI INVALID JUMPDEST PUSH1 0x0 SWAP2 DUP3 MSTORE PUSH1 0x20 SWAP2 DUP3 SWAP1 KECCAK256 ADD DUP1 SLOAD PUSH1 0x40 DUP1 MLOAD PUSH1 0x1F PUSH1 0x2 PUSH1 0x0 NOT PUSH2 0x100 PUSH1 0x1 DUP8 AND ISZERO MUL ADD SWAP1 SWAP5 AND SWAP4 SWAP1 SWAP4 DIV SWAP3 DUP4 ADD DUP6 SWAP1 DIV DUP6 MUL DUP2 ADD DUP6 ADD SWAP1 SWAP2 MSTORE DUP2 DUP2 MSTORE SWAP5 POP SWAP1 SWAP3 POP SWAP1 DUP4 ADD DUP3 DUP3 DUP1 ISZERO PUSH2 0x1B0D JUMPI DUP1 PUSH1 0x1F LT PUSH2 0x1AE2 JUMPI PUSH2 0x100 DUP1 DUP4 SLOAD DIV MUL DUP4 MSTORE SWAP2 PUSH1 0x20 ADD SWAP2 PUSH2 0x1B0D JUMP JUMPDEST DUP3 ADD SWAP2 SWAP1 PUSH1 0x0 MSTORE PUSH1 0x20 PUSH1 0x0 KECCAK256 SWAP1 JUMPDEST DUP2 SLOAD DUP2 MSTORE SWAP1 PUSH1 0x1 ADD SWAP1 PUSH1 0x20 ADD DUP1 DUP4 GT PUSH2 0x1AF0 JUMPI DUP3 SWAP1 SUB PUSH1 0x1F AND DUP3 ADD SWAP2 JUMPDEST POP POP POP POP POP DUP2 JUMP JUMPDEST PUSH1 0x3 SLOAD JUMPDEST SWAP1 JUMP JUMPDEST CALLER PUSH1 0x0 SWAP1 DUP2 MSTORE PUSH1 0xA PUSH1 0x20 MSTORE PUSH1 0x40 SWAP1 KECCAK256 SLOAD PUSH1 0xFF AND PUSH2 0x1B38 JUMPI PUSH1 0x0 DUP1 REVERT JUMPDEST CALLER PUSH1 0x0 SWAP1 DUP2 MSTORE PUSH1 0xD PUSH1 0x20 SWAP1 DUP2 MSTORE PUSH1 0x40 DUP1 DUP4 KECCAK256 PUSH4 0xFFFFFFFF DUP6 AND DUP5 MSTORE SWAP1 SWAP2 MSTORE SWAP1 KECCAK256 SLOAD DUP2 SWAP1 PUSH1 0xFF AND ISZERO PUSH2 0x1B68 JUMPI PUSH1 0x0 DUP1 REVERT JUMPDEST CALLER PUSH1 0x0 SWAP1 DUP2 MSTORE PUSH1 0xD PUSH1 0x20 SWAP1 DUP2 MSTORE PUSH1 0x40 DUP1 DUP4 KECCAK256 PUSH4 0xFFFFFFFF DUP6 DUP2 AND DUP6 MSTORE SWAP1 DUP4 MSTORE DUP2 DUP5 KECCAK256 DUP1 SLOAD PUSH1 0x1 PUSH1 0xFF NOT SWAP1 SWAP2 AND DUP2 OR SWAP1 SWAP2 SSTORE PUSH1 0xC SWAP1 SWAP4 MSTORE SWAP3 KECCAK256 DUP1 SLOAD PUSH4 0xFFFFFFFF NOT DUP2 AND SWAP1 DUP5 AND SWAP1 SWAP3 ADD DUP4 AND SWAP2 SWAP1 SWAP2 OR SWAP1 DUP2 SWAP1 SSTORE PUSH1 0xB SLOAD SWAP1 DUP3 AND PUSH1 0x2 MUL SWAP1 SWAP2 AND LT PUSH2 0x1BEC JUMPI PUSH4 0xFFFFFFFF DUP2 AND PUSH1 0x0 SWAP1 DUP2 MSTORE PUSH1 0x8 PUSH1 0x20 MSTORE PUSH1 0x40 SWAP1 KECCAK256 DUP1 SLOAD PUSH1 0xFF NOT AND PUSH1 0x1 OR SWAP1 SSTORE JUMPDEST PUSH4 0xFFFFFFFF DUP3 AND PUSH1 0x0 SWAP1 DUP2 MSTORE PUSH1 0x8 PUSH1 0x20 MSTORE PUSH1 0x40 SWAP1 KECCAK256 SLOAD PUSH1 0xFF AND DUP1 PUSH2 0x1C12 JUMPI POP PUSH1 0x0 SLOAD PUSH1 0xFF AND JUMPDEST ISZERO PUSH2 0x1C20 JUMPI PUSH2 0x1C20 DUP3 PUSH2 0x2F60 JUMP JUMPDEST POP POP JUMP JUMPDEST PUSH1 0x7 SLOAD SWAP1 JUMP JUMPDEST CALLER PUSH1 0x0 SWAP1 DUP2 MSTORE PUSH1 0xA PUSH1 0x20 MSTORE PUSH1 0x40 SWAP1 KECCAK256 SLOAD PUSH1 0xFF AND PUSH2 0x1C46 JUMPI PUSH1 0x0 DUP1 REVERT JUMPDEST DUP1 PUSH1 0x1 PUSH1 0x1 PUSH1 0xA0 SHL SUB DUP2 AND PUSH2 0x1C5A JUMPI PUSH1 0x0 DUP1 REVERT JUMPDEST POP PUSH1 0x1 PUSH1 0x1 PUSH1 0xA0 SHL SUB AND PUSH1 0x0 DUP2 DUP2 MSTORE PUSH1 0xA PUSH1 0x20 MSTORE PUSH1 0x40 DUP2 KECCAK256 DUP1 SLOAD PUSH1 0xFF NOT AND PUSH1 0x1 SWAP1 DUP2 OR SWAP1 SWAP2 SSTORE PUSH1 0xB DUP1 SLOAD SWAP2 DUP3 ADD DUP2 SSTORE SWAP1 SWAP2 MSTORE PUSH32 0x175B7A638427703F0DBE7BB9BBF987A2551717B34E79F33B5B1008D1FA01DB9 ADD DUP1 SLOAD PUSH1 0x1 PUSH1 0x1 PUSH1 0xA0 SHL SUB NOT AND SWAP1 SWAP2 OR SWAP1 SSTORE JUMP JUMPDEST PUSH1 0x0 PUSH1 0x7 DUP3 PUSH4 0xFFFFFFFF AND DUP2 SLOAD DUP2 LT PUSH2 0x1CD6 JUMPI INVALID JUMPDEST PUSH1 0x0 SWAP2 DUP3 MSTORE PUSH1 0x20 SWAP1 SWAP2 KECCAK256 PUSH1 0x3 PUSH1 0x8 SWAP1 SWAP3 MUL ADD ADD SLOAD SWAP3 SWAP2 POP POP JUMP JUMPDEST CALLER PUSH1 0x0 SWAP1 DUP2 MSTORE PUSH1 0xA PUSH1 0x20 MSTORE PUSH1 0x40 SWAP1 KECCAK256 SLOAD PUSH1 0xFF AND PUSH2 0x1D0C JUMPI PUSH1 0x0 DUP1 REVERT JUMPDEST PUSH1 0x9 DUP2 PUSH4 0xFFFFFFFF AND DUP2 SLOAD DUP2 LT PUSH2 0x1D1F JUMPI INVALID JUMPDEST PUSH1 0x0 SWAP2 DUP3 MSTORE PUSH1 0x20 SWAP1 SWAP2 KECCAK256 PUSH1 0x7 PUSH1 0x8 SWAP1 SWAP3 MUL ADD ADD SLOAD PUSH1 0xFF AND ISZERO PUSH2 0x1D40 JUMPI PUSH1 0x0 DUP1 REVERT JUMPDEST PUSH1 0x0 PUSH1 0x9 DUP3 PUSH4 0xFFFFFFFF AND DUP2 SLOAD DUP2 LT PUSH2 0x1D55 JUMPI INVALID JUMPDEST PUSH1 0x0 SWAP2 DUP3 MSTORE PUSH1 0x20 DUP3 KECCAK256 PUSH1 0x1 PUSH1 0x8 SWAP1 SWAP3 MUL ADD ADD SLOAD PUSH1 0x9 DUP1 SLOAD PUSH1 0x1 PUSH1 0x1 PUSH1 0xA0 SHL SUB SWAP1 SWAP3 AND SWAP4 POP DUP4 SWAP2 PUSH4 0xC09BC35B SWAP2 SWAP1 PUSH4 0xFFFFFFFF DUP8 AND SWAP1 DUP2 LT PUSH2 0x1D92 JUMPI INVALID JUMPDEST PUSH1 0x0 SWAP2 DUP3 MSTORE PUSH1 0x20 SWAP2 DUP3 SWAP1 KECCAK256 PUSH1 0x40 MLOAD PUSH1 0x1 PUSH1 0x1 PUSH1 0xE0 SHL SUB NOT PUSH1 0xE0 DUP7 SWAP1 SHL AND DUP2 MSTORE PUSH1 0x4 DUP2 ADD SWAP4 DUP5 MSTORE PUSH1 0x2 PUSH1 0x8 SWAP1 SWAP4 MUL SWAP1 SWAP2 ADD DUP3 ADD DUP1 SLOAD PUSH1 0x0 NOT PUSH2 0x100 PUSH1 0x1 DUP4 AND ISZERO MUL ADD AND SWAP3 SWAP1 SWAP3 DIV PUSH1 0x24 DUP3 ADD DUP2 SWAP1 MSTORE SWAP2 SWAP3 SWAP2 DUP3 SWAP2 PUSH1 0x44 ADD SWAP1 DUP5 SWAP1 DUP1 ISZERO PUSH2 0x1E37 JUMPI DUP1 PUSH1 0x1F LT PUSH2 0x1E0C JUMPI PUSH2 0x100 DUP1 DUP4 SLOAD DIV MUL DUP4 MSTORE SWAP2 PUSH1 0x20 ADD SWAP2 PUSH2 0x1E37 JUMP JUMPDEST DUP3 ADD SWAP2 SWAP1 PUSH1 0x0 MSTORE PUSH1 0x20 PUSH1 0x0 KECCAK256 SWAP1 JUMPDEST DUP2 SLOAD DUP2 MSTORE SWAP1 PUSH1 0x1 ADD SWAP1 PUSH1 0x20 ADD DUP1 DUP4 GT PUSH2 0x1E1A JUMPI DUP3 SWAP1 SUB PUSH1 0x1F AND DUP3 ADD SWAP2 JUMPDEST POP POP SWAP3 POP POP POP PUSH1 0x20 PUSH1 0x40 MLOAD DUP1 DUP4 SUB DUP2 PUSH1 0x0 DUP8 DUP1 EXTCODESIZE ISZERO DUP1 ISZERO PUSH2 0x1E57 JUMPI PUSH1 0x0 DUP1 REVERT JUMPDEST POP GAS CALL ISZERO DUP1 ISZERO PUSH2 0x1E6B JUMPI RETURNDATASIZE PUSH1 0x0 DUP1 RETURNDATACOPY RETURNDATASIZE PUSH1 0x0 REVERT JUMPDEST POP POP POP POP PUSH1 0x40 MLOAD RETURNDATASIZE PUSH1 0x20 DUP2 LT ISZERO PUSH2 0x1E81 JUMPI PUSH1 0x0 DUP1 REVERT JUMPDEST POP MLOAD SWAP1 POP PUSH1 0x0 JUMPDEST PUSH1 0x9 DUP5 PUSH4 0xFFFFFFFF AND DUP2 SLOAD DUP2 LT PUSH2 0x1E9B JUMPI INVALID JUMPDEST SWAP1 PUSH1 0x0 MSTORE PUSH1 0x20 PUSH1 0x0 KECCAK256 SWAP1 PUSH1 0x8 MUL ADD PUSH1 0x3 ADD DUP1 SLOAD SWAP1 POP DUP2 PUSH4 0xFFFFFFFF AND LT ISZERO PUSH2 0x20AD JUMPI DUP3 PUSH1 0x1 PUSH1 0x1 PUSH1 0xA0 SHL SUB AND PUSH4 0x928EC3E5 PUSH1 0x9 DUP7 PUSH4 0xFFFFFFFF AND DUP2 SLOAD DUP2 LT PUSH2 0x1EDF JUMPI INVALID JUMPDEST SWAP1 PUSH1 0x0 MSTORE PUSH1 0x20 PUSH1 0x0 KECCAK256 SWAP1 PUSH1 0x8 MUL ADD PUSH1 0x3 ADD DUP4 PUSH4 0xFFFFFFFF AND DUP2 SLOAD DUP2 LT PUSH2 0x1F01 JUMPI INVALID JUMPDEST SWAP1 PUSH1 0x0 MSTORE PUSH1 0x20 PUSH1 0x0 KECCAK256 ADD PUSH1 0x9 DUP8 PUSH4 0xFFFFFFFF AND DUP2 SLOAD DUP2 LT PUSH2 0x1F1E JUMPI INVALID JUMPDEST SWAP1 PUSH1 0x0 MSTORE PUSH1 0x20 PUSH1 0x0 KECCAK256 SWAP1 PUSH1 0x8 MUL ADD PUSH1 0x6 ADD DUP5 PUSH4 0xFFFFFFFF AND DUP2 SLOAD DUP2 LT PUSH2 0x1F40 JUMPI INVALID JUMPDEST PUSH1 0x0 SWAP2 DUP3 MSTORE PUSH1 0x20 SWAP1 SWAP2 KECCAK256 PUSH1 0x40 MLOAD PUSH1 0x1 PUSH1 0x1 PUSH1 0xE0 SHL SUB NOT PUSH1 0xE0 DUP7 SWAP1 SHL AND DUP2 MSTORE PUSH4 0xFFFFFFFF DUP9 AND PUSH1 0x44 DUP3 ADD MSTORE PUSH1 0x60 PUSH1 0x4 DUP3 ADD SWAP1 DUP2 MSTORE DUP5 SLOAD PUSH1 0x2 PUSH1 0x0 NOT PUSH2 0x100 PUSH1 0x1 DUP5 AND ISZERO MUL ADD SWAP1 SWAP2 AND DIV PUSH1 0x64 DUP4 ADD DUP2 SWAP1 MSTORE SWAP3 SWAP1 SWAP4 ADD SWAP3 DUP9 SWAP3 SWAP1 SWAP2 DUP3 SWAP2 PUSH1 0x24 DUP3 ADD SWAP2 PUSH1 0x84 ADD SWAP1 DUP8 SWAP1 DUP1 ISZERO PUSH2 0x1FF2 JUMPI DUP1 PUSH1 0x1F LT PUSH2 0x1FC7 JUMPI PUSH2 0x100 DUP1 DUP4 SLOAD DIV MUL DUP4 MSTORE SWAP2 PUSH1 0x20 ADD SWAP2 PUSH2 0x1FF2 JUMP JUMPDEST DUP3 ADD SWAP2 SWAP1 PUSH1 0x0 MSTORE PUSH1 0x20 PUSH1 0x0 KECCAK256 SWAP1 JUMPDEST DUP2 SLOAD DUP2 MSTORE SWAP1 PUSH1 0x1 ADD SWAP1 PUSH1 0x20 ADD DUP1 DUP4 GT PUSH2 0x1FD5 JUMPI DUP3 SWAP1 SUB PUSH1 0x1F AND DUP3 ADD SWAP2 JUMPDEST POP POP DUP4 DUP2 SUB DUP3 MSTORE DUP6 SLOAD PUSH1 0x2 PUSH1 0x0 NOT PUSH2 0x100 PUSH1 0x1 DUP5 AND ISZERO MUL ADD SWAP1 SWAP2 AND DIV DUP1 DUP3 MSTORE PUSH1 0x20 SWAP1 SWAP2 ADD SWAP1 DUP7 SWAP1 DUP1 ISZERO PUSH2 0x2066 JUMPI DUP1 PUSH1 0x1F LT PUSH2 0x203B JUMPI PUSH2 0x100 DUP1 DUP4 SLOAD DIV MUL DUP4 MSTORE SWAP2 PUSH1 0x20 ADD SWAP2 PUSH2 0x2066 JUMP JUMPDEST DUP3 ADD SWAP2 SWAP1 PUSH1 0x0 MSTORE PUSH1 0x20 PUSH1 0x0 KECCAK256 SWAP1 JUMPDEST DUP2 SLOAD DUP2 MSTORE SWAP1 PUSH1 0x1 ADD SWAP1 PUSH1 0x20 ADD DUP1 DUP4 GT PUSH2 0x2049 JUMPI DUP3 SWAP1 SUB PUSH1 0x1F AND DUP3 ADD SWAP2 JUMPDEST POP POP SWAP6 POP POP POP POP POP POP PUSH1 0x0 PUSH1 0x40 MLOAD DUP1 DUP4 SUB DUP2 PUSH1 0x0 DUP8 DUP1 EXTCODESIZE ISZERO DUP1 ISZERO PUSH2 0x2089 JUMPI PUSH1 0x0 DUP1 REVERT JUMPDEST POP GAS CALL ISZERO DUP1 ISZERO PUSH2 0x209D JUMPI RETURNDATASIZE PUSH1 0x0 DUP1 RETURNDATACOPY RETURNDATASIZE PUSH1 0x0 REVERT JUMPDEST POP POP PUSH1 0x1 SWAP1 SWAP3 ADD SWAP2 POP PUSH2 0x1E88 SWAP1 POP JUMP JUMPDEST POP PUSH1 0x1 PUSH1 0x9 DUP5 PUSH4 0xFFFFFFFF AND DUP2 SLOAD DUP2 LT PUSH2 0x20C3 JUMPI INVALID JUMPDEST PUSH1 0x0 SWAP2 DUP3 MSTORE PUSH1 0x20 SWAP1 SWAP2 KECCAK256 PUSH1 0x8 SWAP1 SWAP2 MUL ADD PUSH1 0x7 ADD DUP1 SLOAD PUSH1 0xFF NOT AND SWAP2 ISZERO ISZERO SWAP2 SWAP1 SWAP2 OR SWAP1 SSTORE POP POP POP JUMP JUMPDEST PUSH1 0x1 DUP2 JUMP JUMPDEST CALLER PUSH1 0x0 SWAP1 DUP2 MSTORE PUSH1 0xA PUSH1 0x20 MSTORE PUSH1 0x40 SWAP1 KECCAK256 SLOAD PUSH1 0xFF AND PUSH2 0x210B JUMPI PUSH1 0x0 DUP1 REVERT JUMPDEST PUSH1 0x1 DUP1 SLOAD PUSH1 0x1 PUSH1 0x1 PUSH1 0xA0 SHL SUB NOT AND PUSH1 0x1 PUSH1 0x1 PUSH1 0xA0 SHL SUB DUP8 AND OR SWAP1 SSTORE DUP4 MLOAD PUSH1 0x0 SWAP1 PUSH2 0x213C SWAP1 PUSH1 0x2 SWAP1 PUSH1 0x20 DUP9 ADD SWAP1 PUSH2 0x38F3 JUMP JUMPDEST POP PUSH1 0x7 DUP2 ADD DUP1 SLOAD PUSH1 0xFF NOT AND SWAP1 SSTORE PUSH1 0x9 DUP1 SLOAD PUSH1 0x1 DUP2 DUP2 ADD DUP4 SSTORE PUSH1 0x0 SWAP3 SWAP1 SWAP3 MSTORE DUP3 SLOAD PUSH1 0x8 SWAP1 SWAP2 MUL PUSH32 0x6E1540171B6C0C960B71A7020D9F60077F6AF931A8BBF590DA0223DACF75C7AF DUP2 ADD DUP1 SLOAD PUSH1 0x1 PUSH1 0x1 PUSH1 0xA0 SHL SUB NOT SWAP1 DUP2 AND PUSH1 0x1 PUSH1 0x1 PUSH1 0xA0 SHL SUB SWAP5 DUP6 AND OR DUP3 SSTORE DUP5 DUP7 ADD SLOAD PUSH32 0x6E1540171B6C0C960B71A7020D9F60077F6AF931A8BBF590DA0223DACF75C7B0 DUP5 ADD DUP1 SLOAD SWAP1 SWAP3 AND SWAP5 AND SWAP4 SWAP1 SWAP4 OR SWAP1 SWAP3 SSTORE PUSH1 0x2 DUP1 DUP6 ADD DUP1 SLOAD DUP7 SWAP6 PUSH2 0x221A SWAP5 PUSH32 0x6E1540171B6C0C960B71A7020D9F60077F6AF931A8BBF590DA0223DACF75C7B1 ADD SWAP4 SWAP1 DUP3 AND ISZERO PUSH2 0x100 MUL PUSH1 0x0 NOT ADD SWAP1 SWAP2 AND DIV PUSH2 0x3971 JUMP JUMPDEST POP PUSH1 0x3 DUP3 DUP2 ADD DUP1 SLOAD PUSH2 0x222F SWAP3 DUP5 ADD SWAP2 SWAP1 PUSH2 0x39E6 JUMP JUMPDEST POP PUSH1 0x6 DUP3 DUP2 ADD DUP1 SLOAD PUSH2 0x2244 SWAP3 DUP5 ADD SWAP2 SWAP1 PUSH2 0x39E6 JUMP JUMPDEST POP PUSH1 0x7 SWAP2 DUP3 ADD SLOAD SWAP2 ADD DUP1 SLOAD PUSH1 0xFF NOT AND PUSH1 0xFF SWAP1 SWAP3 AND ISZERO ISZERO SWAP2 SWAP1 SWAP2 OR SWAP1 SSTORE PUSH1 0x9 SLOAD PUSH1 0x1 PUSH1 0x1 PUSH1 0xA0 SHL SUB DUP8 AND PUSH1 0x0 SWAP1 DUP2 MSTORE PUSH1 0x1 PUSH1 0x20 MSTORE PUSH1 0x40 SWAP1 KECCAK256 DUP1 SLOAD PUSH4 0xFFFFFFFF NOT AND PUSH1 0x0 NOT SWAP1 SWAP3 ADD PUSH4 0xFFFFFFFF AND SWAP2 SWAP1 SWAP2 OR SWAP1 SSTORE PUSH2 0x229E PUSH2 0x3A50 JUMP JUMPDEST PUSH2 0x22A7 DUP6 PUSH2 0x367B JUMP JUMPDEST SWAP1 POP PUSH2 0x22B1 PUSH2 0x3A50 JUMP JUMPDEST PUSH2 0x22BA DUP6 PUSH2 0x367B JUMP JUMPDEST SWAP1 POP PUSH2 0x22C4 PUSH2 0x3A50 JUMP JUMPDEST PUSH2 0x22E6 PUSH1 0x40 MLOAD DUP1 PUSH1 0x40 ADD PUSH1 0x40 MSTORE DUP1 PUSH1 0x1 DUP2 MSTORE PUSH1 0x20 ADD PUSH1 0xB PUSH1 0xFA SHL DUP2 MSTORE POP PUSH2 0x367B JUMP JUMPDEST SWAP1 POP PUSH1 0x0 PUSH2 0x22FA DUP5 DUP4 PUSH4 0xFFFFFFFF PUSH2 0x36A0 AND JUMP JUMPDEST PUSH1 0x1 ADD SWAP1 POP PUSH1 0x0 JUMPDEST DUP2 PUSH4 0xFFFFFFFF AND DUP2 PUSH4 0xFFFFFFFF AND LT ISZERO PUSH2 0x25A0 JUMPI PUSH1 0x60 PUSH2 0x2330 PUSH2 0x232B DUP8 DUP7 PUSH4 0xFFFFFFFF PUSH2 0x370D AND JUMP JUMPDEST PUSH2 0x3720 JUMP JUMPDEST SWAP1 POP PUSH1 0x60 PUSH2 0x2347 PUSH2 0x232B DUP8 DUP8 PUSH4 0xFFFFFFFF PUSH2 0x370D AND JUMP JUMPDEST SWAP1 POP DUP8 PUSH1 0x4 ADD DUP3 PUSH1 0x40 MLOAD DUP1 DUP3 DUP1 MLOAD SWAP1 PUSH1 0x20 ADD SWAP1 DUP1 DUP4 DUP4 JUMPDEST PUSH1 0x20 DUP4 LT PUSH2 0x237D JUMPI DUP1 MLOAD DUP3 MSTORE PUSH1 0x1F NOT SWAP1 SWAP3 ADD SWAP2 PUSH1 0x20 SWAP2 DUP3 ADD SWAP2 ADD PUSH2 0x235E JUMP JUMPDEST MLOAD DUP2 MLOAD PUSH1 0x20 SWAP4 DUP5 SUB PUSH2 0x100 EXP PUSH1 0x0 NOT ADD DUP1 NOT SWAP1 SWAP3 AND SWAP2 AND OR SWAP1 MSTORE SWAP3 ADD SWAP5 DUP6 MSTORE POP PUSH1 0x40 MLOAD SWAP4 DUP5 SWAP1 SUB ADD SWAP1 SWAP3 KECCAK256 SLOAD PUSH1 0xFF AND SWAP2 POP PUSH2 0x24FC SWAP1 POP JUMPI PUSH1 0x3 DUP9 ADD DUP1 SLOAD PUSH1 0x1 DUP2 ADD DUP3 SSTORE PUSH1 0x0 SWAP2 DUP3 MSTORE PUSH1 0x20 SWAP2 DUP3 SWAP1 KECCAK256 DUP5 MLOAD PUSH2 0x23DF SWAP4 SWAP2 SWAP1 SWAP3 ADD SWAP2 SWAP1 DUP6 ADD SWAP1 PUSH2 0x38F3 JUMP JUMPDEST POP PUSH1 0x1 DUP9 PUSH1 0x4 ADD DUP4 PUSH1 0x40 MLOAD DUP1 DUP3 DUP1 MLOAD SWAP1 PUSH1 0x20 ADD SWAP1 DUP1 DUP4 DUP4 JUMPDEST PUSH1 0x20 DUP4 LT PUSH2 0x2416 JUMPI DUP1 MLOAD DUP3 MSTORE PUSH1 0x1F NOT SWAP1 SWAP3 ADD SWAP2 PUSH1 0x20 SWAP2 DUP3 ADD SWAP2 ADD PUSH2 0x23F7 JUMP JUMPDEST MLOAD DUP2 MLOAD PUSH1 0x20 SWAP4 DUP5 SUB PUSH2 0x100 EXP PUSH1 0x0 NOT ADD DUP1 NOT SWAP1 SWAP3 AND SWAP2 AND OR SWAP1 MSTORE SWAP3 ADD SWAP5 DUP6 MSTORE POP PUSH1 0x40 MLOAD SWAP4 DUP5 SWAP1 SUB DUP2 ADD DUP5 KECCAK256 DUP1 SLOAD PUSH1 0xFF NOT AND SWAP6 ISZERO ISZERO SWAP6 SWAP1 SWAP6 OR SWAP1 SWAP5 SSTORE POP POP DUP4 MLOAD DUP6 SWAP3 PUSH1 0x5 DUP13 ADD SWAP3 DUP7 SWAP3 SWAP1 SWAP2 DUP3 SWAP2 SWAP1 DUP5 ADD SWAP1 DUP1 DUP4 DUP4 JUMPDEST PUSH1 0x20 DUP4 LT PUSH2 0x2489 JUMPI DUP1 MLOAD DUP3 MSTORE PUSH1 0x1F NOT SWAP1 SWAP3 ADD SWAP2 PUSH1 0x20 SWAP2 DUP3 ADD SWAP2 ADD PUSH2 0x246A JUMP JUMPDEST MLOAD DUP2 MLOAD PUSH1 0x20 SWAP4 DUP5 SUB PUSH2 0x100 EXP PUSH1 0x0 NOT ADD DUP1 NOT SWAP1 SWAP3 AND SWAP2 AND OR SWAP1 MSTORE SWAP3 ADD SWAP5 DUP6 MSTORE POP PUSH1 0x40 MLOAD SWAP4 DUP5 SWAP1 SUB DUP2 ADD SWAP1 SWAP4 KECCAK256 DUP1 SLOAD PUSH4 0xFFFFFFFF NOT AND PUSH4 0xFFFFFFFF SWAP6 SWAP1 SWAP6 AND SWAP5 SWAP1 SWAP5 OR SWAP1 SWAP4 SSTORE POP PUSH1 0x6 DUP11 ADD DUP1 SLOAD PUSH1 0x1 DUP2 ADD DUP3 SSTORE PUSH1 0x0 SWAP2 DUP3 MSTORE SWAP1 DUP3 SWAP1 KECCAK256 DUP5 MLOAD PUSH2 0x24F6 SWAP5 POP SWAP2 ADD SWAP2 DUP5 ADD SWAP1 PUSH2 0x38F3 JUMP JUMPDEST POP PUSH2 0x2596 JUMP JUMPDEST DUP1 DUP9 PUSH1 0x6 ADD DUP10 PUSH1 0x5 ADD DUP5 PUSH1 0x40 MLOAD DUP1 DUP3 DUP1 MLOAD SWAP1 PUSH1 0x20 ADD SWAP1 DUP1 DUP4 DUP4 JUMPDEST PUSH1 0x20 DUP4 LT PUSH2 0x2535 JUMPI DUP1 MLOAD DUP3 MSTORE PUSH1 0x1F NOT SWAP1 SWAP3 ADD SWAP2 PUSH1 0x20 SWAP2 DUP3 ADD SWAP2 ADD PUSH2 0x2516 JUMP JUMPDEST MLOAD DUP2 MLOAD PUSH1 0x20 SWAP4 DUP5 SUB PUSH2 0x100 EXP PUSH1 0x0 NOT ADD DUP1 NOT SWAP1 SWAP3 AND SWAP2 AND OR SWAP1 MSTORE SWAP3 ADD SWAP5 DUP6 MSTORE POP PUSH1 0x40 MLOAD SWAP4 DUP5 SWAP1 SUB ADD SWAP1 SWAP3 KECCAK256 SLOAD DUP4 SLOAD PUSH4 0xFFFFFFFF SWAP1 SWAP2 AND SWAP3 POP DUP3 LT SWAP1 POP PUSH2 0x2577 JUMPI INVALID JUMPDEST SWAP1 PUSH1 0x0 MSTORE PUSH1 0x20 PUSH1 0x0 KECCAK256 ADD SWAP1 DUP1 MLOAD SWAP1 PUSH1 0x20 ADD SWAP1 PUSH2 0x2594 SWAP3 SWAP2 SWAP1 PUSH2 0x38F3 JUMP JUMPDEST POP JUMPDEST POP POP PUSH1 0x1 ADD PUSH2 0x2302 JUMP JUMPDEST POP DUP6 ISZERO PUSH2 0x25B7 JUMPI PUSH1 0x9 SLOAD PUSH2 0x25B7 SWAP1 PUSH1 0x0 NOT ADD PUSH2 0x1CF0 JUMP JUMPDEST POP POP POP POP POP POP POP POP POP POP JUMP JUMPDEST CALLER PUSH1 0x0 SWAP1 DUP2 MSTORE PUSH1 0xA PUSH1 0x20 MSTORE PUSH1 0x40 SWAP1 KECCAK256 SLOAD PUSH1 0xFF AND PUSH2 0x25DF JUMPI PUSH1 0x0 DUP1 REVERT JUMPDEST PUSH1 0x40 DUP1 MLOAD PUSH4 0x4F2BCBEF PUSH1 0xE0 SHL DUP2 MSTORE PUSH4 0xFFFFFFFF DUP4 AND PUSH1 0x4 DUP3 ADD MSTORE SWAP1 MLOAD DUP4 SWAP2 PUSH1 0x1 PUSH1 0x1 PUSH1 0xA0 SHL SUB DUP4 AND SWAP2 PUSH4 0x4F2BCBEF SWAP2 PUSH1 0x24 DUP1 DUP3 ADD SWAP3 PUSH1 0x0 SWAP3 SWAP1 SWAP2 SWAP1 DUP3 SWAP1 SUB ADD DUP2 DUP4 DUP8 DUP1 EXTCODESIZE ISZERO DUP1 ISZERO PUSH2 0x262F JUMPI PUSH1 0x0 DUP1 REVERT JUMPDEST POP GAS CALL ISZERO DUP1 ISZERO PUSH2 0x2643 JUMPI RETURNDATASIZE PUSH1 0x0 DUP1 RETURNDATACOPY RETURNDATASIZE PUSH1 0x0 REVERT JUMPDEST POP POP POP POP POP POP POP JUMP JUMPDEST PUSH1 0x7 DUP2 DUP2 SLOAD DUP2 LT PUSH2 0x2659 JUMPI INVALID JUMPDEST PUSH1 0x0 SWAP2 DUP3 MSTORE PUSH1 0x20 SWAP2 DUP3 SWAP1 KECCAK256 PUSH1 0x8 SWAP1 SWAP2 MUL ADD DUP1 SLOAD PUSH1 0x1 DUP1 DUP4 ADD SLOAD PUSH1 0x2 DUP1 DUP6 ADD DUP1 SLOAD PUSH1 0x40 DUP1 MLOAD PUSH1 0x1F PUSH1 0x0 NOT SWAP8 DUP5 AND ISZERO PUSH2 0x100 MUL SWAP8 SWAP1 SWAP8 ADD SWAP1 SWAP3 AND SWAP4 SWAP1 SWAP4 DIV SWAP5 DUP6 ADD DUP9 SWAP1 DIV DUP9 MUL DUP2 ADD DUP9 ADD SWAP1 SWAP3 MSTORE DUP4 DUP3 MSTORE PUSH1 0x1 PUSH1 0x1 PUSH1 0xA0 SHL SUB SWAP5 DUP6 AND SWAP8 POP SWAP2 SWAP1 SWAP4 AND SWAP5 SWAP1 SWAP2 SWAP1 DUP4 ADD DUP3 DUP3 DUP1 ISZERO PUSH2 0x270D JUMPI DUP1 PUSH1 0x1F LT PUSH2 0x26E2 JUMPI PUSH2 0x100 DUP1 DUP4 SLOAD DIV MUL DUP4 MSTORE SWAP2 PUSH1 0x20 ADD SWAP2 PUSH2 0x270D JUMP JUMPDEST DUP3 ADD SWAP2 SWAP1 PUSH1 0x0 MSTORE PUSH1 0x20 PUSH1 0x0 KECCAK256 SWAP1 JUMPDEST DUP2 SLOAD DUP2 MSTORE SWAP1 PUSH1 0x1 ADD SWAP1 PUSH1 0x20 ADD DUP1 DUP4 GT PUSH2 0x26F0 JUMPI DUP3 SWAP1 SUB PUSH1 0x1F AND DUP3 ADD SWAP2 JUMPDEST POP POP POP PUSH1 0x7 SWAP1 SWAP4 ADD SLOAD SWAP2 SWAP3 POP POP PUSH1 0xFF AND DUP5 JUMP JUMPDEST PUSH1 0x7 DUP2 PUSH4 0xFFFFFFFF AND DUP2 SLOAD DUP2 LT PUSH2 0x2733 JUMPI INVALID JUMPDEST PUSH1 0x0 SWAP2 DUP3 MSTORE PUSH1 0x20 DUP1 DUP4 KECCAK256 PUSH1 0x6 PUSH1 0x8 SWAP1 SWAP4 MUL ADD SWAP2 SWAP1 SWAP2 ADD DUP1 SLOAD PUSH1 0x1 DUP2 ADD DUP3 SSTORE SWAP1 DUP4 MSTORE SWAP2 KECCAK256 PUSH2 0x2762 SWAP2 ADD DUP5 DUP5 PUSH2 0x3A6A JUMP JUMPDEST POP PUSH1 0x7 DUP2 PUSH4 0xFFFFFFFF AND DUP2 SLOAD DUP2 LT PUSH2 0x2776 JUMPI INVALID JUMPDEST PUSH1 0x0 SWAP2 DUP3 MSTORE PUSH1 0x20 DUP1 DUP4 KECCAK256 PUSH1 0x3 PUSH1 0x8 SWAP1 SWAP4 MUL ADD SWAP2 SWAP1 SWAP2 ADD DUP1 SLOAD PUSH1 0x1 DUP2 ADD DUP3 SSTORE SWAP1 DUP4 MSTORE SWAP2 KECCAK256 PUSH2 0x27A5 SWAP2 ADD DUP7 DUP7 PUSH2 0x3A6A JUMP JUMPDEST POP POP POP POP POP POP JUMP JUMPDEST PUSH1 0x0 PUSH1 0x9 DUP3 PUSH4 0xFFFFFFFF AND DUP2 SLOAD DUP2 LT PUSH2 0x1CD6 JUMPI INVALID JUMPDEST PUSH1 0x9 DUP2 DUP2 SLOAD DUP2 LT PUSH2 0x2659 JUMPI INVALID JUMPDEST PUSH1 0x6 PUSH1 0x20 SWAP1 DUP2 MSTORE PUSH1 0x0 SWAP3 DUP4 MSTORE PUSH1 0x40 SWAP1 SWAP3 KECCAK256 DUP2 MLOAD DUP1 DUP4 ADD DUP5 ADD DUP1 MLOAD SWAP3 DUP2 MSTORE SWAP1 DUP5 ADD SWAP3 SWAP1 SWAP4 ADD SWAP2 SWAP1 SWAP2 KECCAK256 SWAP2 MSTORE SLOAD PUSH1 0xFF AND DUP2 JUMP JUMPDEST PUSH1 0x0 PUSH2 0x280A PUSH2 0x3AD8 JUMP JUMPDEST CALLER DUP2 MSTORE PUSH1 0x40 DUP1 MLOAD PUSH1 0x20 PUSH1 0x1F DUP7 ADD DUP2 SWAP1 DIV DUP2 MUL DUP3 ADD DUP2 ADD SWAP1 SWAP3 MSTORE DUP5 DUP2 MSTORE SWAP1 DUP6 SWAP1 DUP6 SWAP1 DUP2 SWAP1 DUP5 ADD DUP4 DUP3 DUP1 DUP3 DUP5 CALLDATACOPY PUSH1 0x0 SWAP3 ADD DUP3 SWAP1 MSTORE POP PUSH1 0x40 DUP7 ADD SWAP5 DUP6 MSTORE PUSH1 0xA0 DUP7 ADD DUP2 SWAP1 MSTORE PUSH1 0x7 DUP1 SLOAD PUSH1 0x1 DUP2 ADD DUP3 SSTORE SWAP2 MSTORE DUP6 MLOAD PUSH32 0xA66CC928B5EDB82AF9BD49922954155AB7B0942694BEA4CE44661D9A8736C688 PUSH1 0x8 SWAP1 SWAP3 MUL SWAP2 DUP3 ADD DUP1 SLOAD PUSH1 0x1 PUSH1 0x1 PUSH1 0xA0 SHL SUB NOT SWAP1 DUP2 AND PUSH1 0x1 PUSH1 0x1 PUSH1 0xA0 SHL SUB SWAP4 DUP5 AND OR DUP3 SSTORE PUSH1 0x20 DUP1 DUP11 ADD MLOAD PUSH32 0xA66CC928B5EDB82AF9BD49922954155AB7B0942694BEA4CE44661D9A8736C689 DUP7 ADD DUP1 SLOAD SWAP1 SWAP4 AND SWAP5 AND SWAP4 SWAP1 SWAP4 OR SWAP1 SSTORE SWAP6 MLOAD DUP1 MLOAD DUP9 SWAP8 SWAP7 POP PUSH2 0x290E SWAP6 POP PUSH32 0xA66CC928B5EDB82AF9BD49922954155AB7B0942694BEA4CE44661D9A8736C68A SWAP1 SWAP4 ADD SWAP4 POP ADD SWAP1 PUSH2 0x38F3 JUMP JUMPDEST POP PUSH1 0x60 DUP3 ADD MLOAD DUP1 MLOAD PUSH2 0x292A SWAP2 PUSH1 0x3 DUP5 ADD SWAP2 PUSH1 0x20 SWAP1 SWAP2 ADD SWAP1 PUSH2 0x3B22 JUMP JUMPDEST POP PUSH1 0x80 DUP3 ADD MLOAD DUP1 MLOAD PUSH2 0x2946 SWAP2 PUSH1 0x6 DUP5 ADD SWAP2 PUSH1 0x20 SWAP1 SWAP2 ADD SWAP1 PUSH2 0x3B22 JUMP JUMPDEST POP PUSH1 0xA0 SWAP2 SWAP1 SWAP2 ADD MLOAD PUSH1 0x7 SWAP2 DUP3 ADD DUP1 SLOAD PUSH1 0xFF NOT AND SWAP2 ISZERO ISZERO SWAP2 SWAP1 SWAP2 OR SWAP1 SSTORE SLOAD PUSH1 0x0 NOT ADD SWAP5 SWAP4 POP POP POP POP JUMP JUMPDEST PUSH1 0x1 PUSH1 0x1 PUSH1 0xA0 SHL SUB AND PUSH1 0x0 SWAP1 DUP2 MSTORE PUSH1 0x5 PUSH1 0x20 MSTORE PUSH1 0x40 SWAP1 KECCAK256 SLOAD SWAP1 JUMP JUMPDEST PUSH1 0x9 SLOAD SWAP1 JUMP JUMPDEST PUSH1 0x1 PUSH1 0x20 MSTORE PUSH1 0x0 SWAP1 DUP2 MSTORE PUSH1 0x40 SWAP1 KECCAK256 SLOAD PUSH4 0xFFFFFFFF AND DUP2 JUMP JUMPDEST PUSH1 0x60 DUP1 PUSH1 0x7 DUP5 PUSH4 0xFFFFFFFF AND DUP2 SLOAD DUP2 LT PUSH2 0x29BE JUMPI INVALID JUMPDEST SWAP1 PUSH1 0x0 MSTORE PUSH1 0x20 PUSH1 0x0 KECCAK256 SWAP1 PUSH1 0x8 MUL ADD PUSH1 0x3 ADD DUP4 PUSH4 0xFFFFFFFF AND DUP2 SLOAD DUP2 LT PUSH2 0x29E0 JUMPI INVALID JUMPDEST SWAP1 PUSH1 0x0 MSTORE PUSH1 0x20 PUSH1 0x0 KECCAK256 ADD PUSH1 0x7 DUP6 PUSH4 0xFFFFFFFF AND DUP2 SLOAD DUP2 LT PUSH2 0x1375 JUMPI INVALID JUMPDEST CALLER PUSH1 0x0 SWAP1 DUP2 MSTORE PUSH1 0xA PUSH1 0x20 MSTORE PUSH1 0x40 SWAP1 KECCAK256 SLOAD PUSH1 0xFF AND PUSH2 0x2A19 JUMPI PUSH1 0x0 DUP1 REVERT JUMPDEST PUSH1 0x40 DUP1 MLOAD PUSH4 0x838EBD85 PUSH1 0xE0 SHL DUP2 MSTORE PUSH4 0xFFFFFFFF DUP4 AND PUSH1 0x4 DUP3 ADD MSTORE SWAP1 MLOAD DUP4 SWAP2 PUSH1 0x1 PUSH1 0x1 PUSH1 0xA0 SHL SUB DUP4 AND SWAP2 PUSH4 0x838EBD85 SWAP2 PUSH1 0x24 DUP1 DUP3 ADD SWAP3 PUSH1 0x0 SWAP3 SWAP1 SWAP2 SWAP1 DUP3 SWAP1 SUB ADD DUP2 DUP4 DUP8 DUP1 EXTCODESIZE ISZERO DUP1 ISZERO PUSH2 0x262F JUMPI PUSH1 0x0 DUP1 REVERT JUMPDEST PUSH1 0x0 SLOAD PUSH1 0xFF AND DUP2 JUMP JUMPDEST CALLER PUSH1 0x0 SWAP1 DUP2 MSTORE PUSH1 0xA PUSH1 0x20 MSTORE PUSH1 0x40 SWAP1 KECCAK256 SLOAD PUSH1 0xFF AND PUSH2 0x2A8E JUMPI PUSH1 0x0 DUP1 REVERT JUMPDEST PUSH1 0x40 MLOAD PUSH4 0x7E15477D PUSH1 0xE1 SHL DUP2 MSTORE PUSH4 0xFFFFFFFF DUP3 AND PUSH1 0x44 DUP3 ADD MSTORE PUSH1 0x60 PUSH1 0x4 DUP3 ADD SWAP1 DUP2 MSTORE DUP5 MLOAD PUSH1 0x64 DUP4 ADD MSTORE DUP5 MLOAD DUP7 SWAP3 PUSH1 0x1 PUSH1 0x1 PUSH1 0xA0 SHL SUB DUP5 AND SWAP3 PUSH4 0xFC2A8EFA SWAP3 DUP9 SWAP3 DUP9 SWAP3 DUP9 SWAP3 SWAP1 SWAP2 DUP3 SWAP2 PUSH1 0x24 DUP3 ADD SWAP2 PUSH1 0x84 ADD SWAP1 PUSH1 0x20 DUP9 ADD SWAP1 DUP1 DUP4 DUP4 PUSH1 0x0 JUMPDEST DUP4 DUP2 LT ISZERO PUSH2 0x2B02 JUMPI DUP2 DUP2 ADD MLOAD DUP4 DUP3 ADD MSTORE PUSH1 0x20 ADD PUSH2 0x2AEA JUMP JUMPDEST POP POP POP POP SWAP1 POP SWAP1 DUP2 ADD SWAP1 PUSH1 0x1F AND DUP1 ISZERO PUSH2 0x2B2F JUMPI DUP1 DUP3 SUB DUP1 MLOAD PUSH1 0x1 DUP4 PUSH1 0x20 SUB PUSH2 0x100 EXP SUB NOT AND DUP2 MSTORE PUSH1 0x20 ADD SWAP2 POP JUMPDEST POP DUP4 DUP2 SUB DUP3 MSTORE DUP6 MLOAD DUP2 MSTORE DUP6 MLOAD PUSH1 0x20 SWAP2 DUP3 ADD SWAP2 DUP8 ADD SWAP1 DUP1 DUP4 DUP4 PUSH1 0x0 JUMPDEST DUP4 DUP2 LT ISZERO PUSH2 0x2B62 JUMPI DUP2 DUP2 ADD MLOAD DUP4 DUP3 ADD MSTORE PUSH1 0x20 ADD PUSH2 0x2B4A JUMP JUMPDEST POP POP POP POP SWAP1 POP SWAP1 DUP2 ADD SWAP1 PUSH1 0x1F AND DUP1 ISZERO PUSH2 0x2B8F JUMPI DUP1 DUP3 SUB DUP1 MLOAD PUSH1 0x1 DUP4 PUSH1 0x20 SUB PUSH2 0x100 EXP SUB NOT AND DUP2 MSTORE PUSH1 0x20 ADD SWAP2 POP JUMPDEST POP SWAP6 POP POP POP POP POP POP PUSH1 0x0 PUSH1 0x40 MLOAD DUP1 DUP4 SUB DUP2 PUSH1 0x0 DUP8 DUP1 EXTCODESIZE ISZERO DUP1 ISZERO PUSH2 0x2BB1 JUMPI PUSH1 0x0 DUP1 REVERT JUMPDEST POP GAS CALL ISZERO DUP1 ISZERO PUSH2 0x2BC5 JUMPI RETURNDATASIZE PUSH1 0x0 DUP1 RETURNDATACOPY RETURNDATASIZE PUSH1 0x0 REVERT JUMPDEST POP POP POP POP POP POP POP POP POP JUMP JUMPDEST PUSH1 0x4 PUSH1 0x20 MSTORE PUSH1 0x0 SWAP1 DUP2 MSTORE PUSH1 0x40 SWAP1 KECCAK256 SLOAD PUSH1 0xFF AND DUP2 JUMP JUMPDEST CALLER PUSH1 0x0 SWAP1 DUP2 MSTORE PUSH1 0xA PUSH1 0x20 MSTORE PUSH1 0x40 SWAP1 KECCAK256 SLOAD PUSH1 0xFF AND PUSH2 0x2C01 JUMPI PUSH1 0x0 DUP1 REVERT JUMPDEST PUSH1 0x9 DUP2 PUSH4 0xFFFFFFFF AND DUP2 SLOAD DUP2 LT PUSH2 0x2C14 JUMPI INVALID JUMPDEST SWAP1 PUSH1 0x0 MSTORE PUSH1 0x20 PUSH1 0x0 KECCAK256 SWAP1 PUSH1 0x8 MUL ADD PUSH1 0x4 ADD DUP4 PUSH1 0x40 MLOAD DUP1 DUP3 DUP1 MLOAD SWAP1 PUSH1 0x20 ADD SWAP1 DUP1 DUP4 DUP4 JUMPDEST PUSH1 0x20 DUP4 LT PUSH2 0x2C55 JUMPI DUP1 MLOAD DUP3 MSTORE PUSH1 0x1F NOT SWAP1 SWAP3 ADD SWAP2 PUSH1 0x20 SWAP2 DUP3 ADD SWAP2 ADD PUSH2 0x2C36 JUMP JUMPDEST MLOAD DUP2 MLOAD PUSH1 0x20 SWAP4 DUP5 SUB PUSH2 0x100 EXP PUSH1 0x0 NOT ADD DUP1 NOT SWAP1 SWAP3 AND SWAP2 AND OR SWAP1 MSTORE SWAP3 ADD SWAP5 DUP6 MSTORE POP PUSH1 0x40 MLOAD SWAP4 DUP5 SWAP1 SUB ADD SWAP1 SWAP3 KECCAK256 SLOAD PUSH1 0xFF AND SWAP2 POP PUSH2 0x2E77 SWAP1 POP JUMPI PUSH1 0x9 DUP2 PUSH4 0xFFFFFFFF AND DUP2 SLOAD DUP2 LT PUSH2 0x2C9F JUMPI INVALID JUMPDEST SWAP1 PUSH1 0x0 MSTORE PUSH1 0x20 PUSH1 0x0 KECCAK256 SWAP1 PUSH1 0x8 MUL ADD PUSH1 0x3 ADD DUP1 SLOAD SWAP1 POP PUSH1 0x9 DUP3 PUSH4 0xFFFFFFFF AND DUP2 SLOAD DUP2 LT PUSH2 0x2CC7 JUMPI INVALID JUMPDEST SWAP1 PUSH1 0x0 MSTORE PUSH1 0x20 PUSH1 0x0 KECCAK256 SWAP1 PUSH1 0x8 MUL ADD PUSH1 0x5 ADD DUP5 PUSH1 0x40 MLOAD DUP1 DUP3 DUP1 MLOAD SWAP1 PUSH1 0x20 ADD SWAP1 DUP1 DUP4 DUP4 JUMPDEST PUSH1 0x20 DUP4 LT PUSH2 0x2D08 JUMPI DUP1 MLOAD DUP3 MSTORE PUSH1 0x1F NOT SWAP1 SWAP3 ADD SWAP2 PUSH1 0x20 SWAP2 DUP3 ADD SWAP2 ADD PUSH2 0x2CE9 JUMP JUMPDEST MLOAD DUP2 MLOAD PUSH1 0x20 SWAP4 DUP5 SUB PUSH2 0x100 EXP PUSH1 0x0 NOT ADD DUP1 NOT SWAP1 SWAP3 AND SWAP2 AND OR SWAP1 MSTORE SWAP3 ADD SWAP5 DUP6 MSTORE POP PUSH1 0x40 MLOAD SWAP4 DUP5 SWAP1 SUB ADD SWAP1 SWAP3 KECCAK256 DUP1 SLOAD PUSH4 0xFFFFFFFF NOT AND PUSH4 0xFFFFFFFF SWAP5 DUP6 AND OR SWAP1 SSTORE POP POP PUSH1 0x9 DUP1 SLOAD PUSH1 0x1 SWAP3 DUP5 AND SWAP1 DUP2 LT PUSH2 0x2D5B JUMPI INVALID JUMPDEST SWAP1 PUSH1 0x0 MSTORE PUSH1 0x20 PUSH1 0x0 KECCAK256 SWAP1 PUSH1 0x8 MUL ADD PUSH1 0x4 ADD DUP5 PUSH1 0x40 MLOAD DUP1 DUP3 DUP1 MLOAD SWAP1 PUSH1 0x20 ADD SWAP1 DUP1 DUP4 DUP4 JUMPDEST PUSH1 0x20 DUP4 LT PUSH2 0x2D9C JUMPI DUP1 MLOAD DUP3 MSTORE PUSH1 0x1F NOT SWAP1 SWAP3 ADD SWAP2 PUSH1 0x20 SWAP2 DUP3 ADD SWAP2 ADD PUSH2 0x2D7D JUMP JUMPDEST MLOAD DUP2 MLOAD PUSH1 0x20 SWAP4 DUP5 SUB PUSH2 0x100 EXP PUSH1 0x0 NOT ADD DUP1 NOT SWAP1 SWAP3 AND SWAP2 AND OR SWAP1 MSTORE SWAP3 ADD SWAP5 DUP6 MSTORE POP PUSH1 0x40 MLOAD SWAP4 DUP5 SWAP1 SUB ADD SWAP1 SWAP3 KECCAK256 DUP1 SLOAD PUSH1 0xFF NOT AND SWAP4 ISZERO ISZERO SWAP4 SWAP1 SWAP4 OR SWAP1 SWAP3 SSTORE POP POP PUSH1 0x9 DUP1 SLOAD PUSH4 0xFFFFFFFF DUP4 AND SWAP1 DUP2 LT PUSH2 0x2DED JUMPI INVALID JUMPDEST PUSH1 0x0 SWAP2 DUP3 MSTORE PUSH1 0x20 DUP1 DUP4 KECCAK256 PUSH1 0x3 PUSH1 0x8 SWAP1 SWAP4 MUL ADD SWAP2 SWAP1 SWAP2 ADD DUP1 SLOAD PUSH1 0x1 DUP2 ADD DUP3 SSTORE SWAP1 DUP4 MSTORE SWAP2 DUP2 SWAP1 KECCAK256 DUP6 MLOAD PUSH2 0x2E25 SWAP4 SWAP2 SWAP1 SWAP2 ADD SWAP2 DUP7 ADD SWAP1 PUSH2 0x38F3 JUMP JUMPDEST POP PUSH1 0x9 DUP2 PUSH4 0xFFFFFFFF AND DUP2 SLOAD DUP2 LT PUSH2 0x2E39 JUMPI INVALID JUMPDEST PUSH1 0x0 SWAP2 DUP3 MSTORE PUSH1 0x20 DUP1 DUP4 KECCAK256 PUSH1 0x6 PUSH1 0x8 SWAP1 SWAP4 MUL ADD SWAP2 SWAP1 SWAP2 ADD DUP1 SLOAD PUSH1 0x1 DUP2 ADD DUP3 SSTORE SWAP1 DUP4 MSTORE SWAP2 DUP2 SWAP1 KECCAK256 DUP5 MLOAD PUSH2 0x2E71 SWAP4 SWAP2 SWAP1 SWAP2 ADD SWAP2 DUP6 ADD SWAP1 PUSH2 0x38F3 JUMP JUMPDEST POP PUSH2 0x2F5B JUMP JUMPDEST PUSH1 0x0 PUSH1 0x9 DUP3 PUSH4 0xFFFFFFFF AND DUP2 SLOAD DUP2 LT PUSH2 0x2E8C JUMPI INVALID JUMPDEST SWAP1 PUSH1 0x0 MSTORE PUSH1 0x20 PUSH1 0x0 KECCAK256 SWAP1 PUSH1 0x8 MUL ADD PUSH1 0x5 ADD DUP5 PUSH1 0x40 MLOAD DUP1 DUP3 DUP1 MLOAD SWAP1 PUSH1 0x20 ADD SWAP1 DUP1 DUP4 DUP4 JUMPDEST PUSH1 0x20 DUP4 LT PUSH2 0x2ECD JUMPI DUP1 MLOAD DUP3 MSTORE PUSH1 0x1F NOT SWAP1 SWAP3 ADD SWAP2 PUSH1 0x20 SWAP2 DUP3 ADD SWAP2 ADD PUSH2 0x2EAE JUMP JUMPDEST MLOAD DUP2 MLOAD PUSH1 0x20 SWAP4 DUP5 SUB PUSH2 0x100 EXP PUSH1 0x0 NOT ADD DUP1 NOT SWAP1 SWAP3 AND SWAP2 AND OR SWAP1 MSTORE SWAP3 ADD SWAP5 DUP6 MSTORE POP PUSH1 0x40 MLOAD SWAP4 DUP5 SWAP1 SUB ADD SWAP1 SWAP3 KECCAK256 SLOAD PUSH1 0x9 DUP1 SLOAD PUSH4 0xFFFFFFFF SWAP3 DUP4 AND SWAP6 POP DUP8 SWAP5 POP SWAP1 SWAP3 POP SWAP1 DUP6 AND SWAP1 DUP2 LT PUSH2 0x2F19 JUMPI INVALID JUMPDEST SWAP1 PUSH1 0x0 MSTORE PUSH1 0x20 PUSH1 0x0 KECCAK256 SWAP1 PUSH1 0x8 MUL ADD PUSH1 0x6 ADD DUP3 PUSH4 0xFFFFFFFF AND DUP2 SLOAD DUP2 LT PUSH2 0x2F3B JUMPI INVALID JUMPDEST SWAP1 PUSH1 0x0 MSTORE PUSH1 0x20 PUSH1 0x0 KECCAK256 ADD SWAP1 DUP1 MLOAD SWAP1 PUSH1 0x20 ADD SWAP1 PUSH2 0x2F58 SWAP3 SWAP2 SWAP1 PUSH2 0x38F3 JUMP JUMPDEST POP POP JUMPDEST POP POP POP JUMP JUMPDEST PUSH1 0x7 DUP2 PUSH4 0xFFFFFFFF AND DUP2 SLOAD DUP2 LT PUSH2 0x2F73 JUMPI INVALID JUMPDEST PUSH1 0x0 SWAP2 DUP3 MSTORE PUSH1 0x20 SWAP1 SWAP2 KECCAK256 PUSH1 0x7 PUSH1 0x8 SWAP1 SWAP3 MUL ADD ADD SLOAD PUSH1 0xFF AND ISZERO PUSH2 0x2F94 JUMPI PUSH1 0x0 DUP1 REVERT JUMPDEST PUSH1 0x0 PUSH1 0x2 PUSH1 0x0 PUSH1 0x7 DUP5 PUSH4 0xFFFFFFFF AND DUP2 SLOAD DUP2 LT PUSH2 0x2FAD JUMPI INVALID JUMPDEST PUSH1 0x0 SWAP2 DUP3 MSTORE PUSH1 0x20 DUP1 DUP4 KECCAK256 PUSH1 0x8 SWAP1 SWAP3 MUL SWAP1 SWAP2 ADD SLOAD PUSH1 0x1 PUSH1 0x1 PUSH1 0xA0 SHL SUB AND DUP4 MSTORE DUP3 ADD SWAP3 SWAP1 SWAP3 MSTORE PUSH1 0x40 ADD SWAP1 KECCAK256 PUSH1 0x7 DUP1 SLOAD PUSH4 0xFFFFFFFF DUP6 AND SWAP1 DUP2 LT PUSH2 0x2FEA JUMPI INVALID JUMPDEST SWAP1 PUSH1 0x0 MSTORE PUSH1 0x20 PUSH1 0x0 KECCAK256 SWAP1 PUSH1 0x8 MUL ADD PUSH1 0x2 ADD PUSH1 0x40 MLOAD DUP1 DUP3 DUP1 SLOAD PUSH1 0x1 DUP2 PUSH1 0x1 AND ISZERO PUSH2 0x100 MUL SUB AND PUSH1 0x2 SWAP1 DIV DUP1 ISZERO PUSH2 0x3056 JUMPI DUP1 PUSH1 0x1F LT PUSH2 0x3034 JUMPI PUSH2 0x100 DUP1 DUP4 SLOAD DIV MUL DUP4 MSTORE SWAP2 DUP3 ADD SWAP2 PUSH2 0x3056 JUMP JUMPDEST DUP3 ADD SWAP2 SWAP1 PUSH1 0x0 MSTORE PUSH1 0x20 PUSH1 0x0 KECCAK256 SWAP1 JUMPDEST DUP2 SLOAD DUP2 MSTORE SWAP1 PUSH1 0x1 ADD SWAP1 PUSH1 0x20 ADD DUP1 DUP4 GT PUSH2 0x3042 JUMPI JUMPDEST POP POP SWAP3 DUP4 MSTORE POP POP PUSH1 0x40 MLOAD SWAP1 DUP2 SWAP1 SUB PUSH1 0x20 ADD SWAP1 KECCAK256 SWAP1 POP PUSH1 0x0 JUMPDEST PUSH1 0x7 DUP4 PUSH4 0xFFFFFFFF AND DUP2 SLOAD DUP2 LT PUSH2 0x3081 JUMPI INVALID JUMPDEST SWAP1 PUSH1 0x0 MSTORE PUSH1 0x20 PUSH1 0x0 KECCAK256 SWAP1 PUSH1 0x8 MUL ADD PUSH1 0x3 ADD DUP1 SLOAD SWAP1 POP DUP2 PUSH4 0xFFFFFFFF AND LT ISZERO PUSH2 0x32EE JUMPI PUSH1 0x7 DUP4 PUSH4 0xFFFFFFFF AND DUP2 SLOAD DUP2 LT PUSH2 0x30B6 JUMPI INVALID JUMPDEST SWAP1 PUSH1 0x0 MSTORE PUSH1 0x20 PUSH1 0x0 KECCAK256 SWAP1 PUSH1 0x8 MUL ADD PUSH1 0x6 ADD DUP2 PUSH4 0xFFFFFFFF AND DUP2 SLOAD DUP2 LT PUSH2 0x30D8 JUMPI INVALID JUMPDEST SWAP1 PUSH1 0x0 MSTORE PUSH1 0x20 PUSH1 0x0 KECCAK256 ADD DUP3 PUSH1 0x0 ADD PUSH1 0x7 DUP6 PUSH4 0xFFFFFFFF AND DUP2 SLOAD DUP2 LT PUSH2 0x30F9 JUMPI INVALID JUMPDEST SWAP1 PUSH1 0x0 MSTORE PUSH1 0x20 PUSH1 0x0 KECCAK256 SWAP1 PUSH1 0x8 MUL ADD PUSH1 0x3 ADD DUP4 PUSH4 0xFFFFFFFF AND DUP2 SLOAD DUP2 LT PUSH2 0x311B JUMPI INVALID JUMPDEST SWAP1 PUSH1 0x0 MSTORE PUSH1 0x20 PUSH1 0x0 KECCAK256 ADD PUSH1 0x40 MLOAD DUP1 DUP3 DUP1 SLOAD PUSH1 0x1 DUP2 PUSH1 0x1 AND ISZERO PUSH2 0x100 MUL SUB AND PUSH1 0x2 SWAP1 DIV DUP1 ISZERO PUSH2 0x3180 JUMPI DUP1 PUSH1 0x1F LT PUSH2 0x315E JUMPI PUSH2 0x100 DUP1 DUP4 SLOAD DIV MUL DUP4 MSTORE SWAP2 DUP3 ADD SWAP2 PUSH2 0x3180 JUMP JUMPDEST DUP3 ADD SWAP2 SWAP1 PUSH1 0x0 MSTORE PUSH1 0x20 PUSH1 0x0 KECCAK256 SWAP1 JUMPDEST DUP2 SLOAD DUP2 MSTORE SWAP1 PUSH1 0x1 ADD SWAP1 PUSH1 0x20 ADD DUP1 DUP4 GT PUSH2 0x316C JUMPI JUMPDEST POP POP SWAP3 DUP4 MSTORE POP POP PUSH1 0x40 MLOAD SWAP1 DUP2 SWAP1 SUB PUSH1 0x20 ADD SWAP1 KECCAK256 DUP2 SLOAD PUSH2 0x31B2 SWAP3 SWAP1 PUSH1 0x2 PUSH1 0x0 NOT PUSH2 0x100 PUSH1 0x1 DUP5 AND ISZERO MUL ADD SWAP1 SWAP2 AND DIV PUSH2 0x3971 JUMP JUMPDEST POP DUP2 PUSH1 0x1 ADD PUSH1 0x7 DUP5 PUSH4 0xFFFFFFFF AND DUP2 SLOAD DUP2 LT PUSH2 0x31CA JUMPI INVALID JUMPDEST SWAP1 PUSH1 0x0 MSTORE PUSH1 0x20 PUSH1 0x0 KECCAK256 SWAP1 PUSH1 0x8 MUL ADD PUSH1 0x3 ADD DUP3 PUSH4 0xFFFFFFFF AND DUP2 SLOAD DUP2 LT PUSH2 0x31EC JUMPI INVALID JUMPDEST SWAP1 PUSH1 0x0 MSTORE PUSH1 0x20 PUSH1 0x0 KECCAK256 ADD PUSH1 0x40 MLOAD PUSH1 0x20 ADD DUP1 DUP4 DUP1 SLOAD PUSH1 0x1 DUP2 PUSH1 0x1 AND ISZERO PUSH2 0x100 MUL SUB AND PUSH1 0x2 SWAP1 DIV DUP1 ISZERO PUSH2 0x3254 JUMPI DUP1 PUSH1 0x1F LT PUSH2 0x3232 JUMPI PUSH2 0x100 DUP1 DUP4 SLOAD DIV MUL DUP4 MSTORE SWAP2 DUP3 ADD SWAP2 PUSH2 0x3254 JUMP JUMPDEST DUP3 ADD SWAP2 SWAP1 PUSH1 0x0 MSTORE PUSH1 0x20 PUSH1 0x0 KECCAK256 SWAP1 JUMPDEST DUP2 SLOAD DUP2 MSTORE SWAP1 PUSH1 0x1 ADD SWAP1 PUSH1 0x20 ADD DUP1 DUP4 GT PUSH2 0x3240 JUMPI JUMPDEST POP POP DUP1 PUSH2 0x161 PUSH1 0xF5 SHL DUP2 MSTORE POP PUSH1 0x2 ADD DUP3 DUP1 SLOAD PUSH1 0x1 DUP2 PUSH1 0x1 AND ISZERO PUSH2 0x100 MUL SUB AND PUSH1 0x2 SWAP1 DIV DUP1 ISZERO PUSH2 0x32BA JUMPI DUP1 PUSH1 0x1F LT PUSH2 0x3298 JUMPI PUSH2 0x100 DUP1 DUP4 SLOAD DIV MUL DUP4 MSTORE SWAP2 DUP3 ADD SWAP2 PUSH2 0x32BA JUMP JUMPDEST DUP3 ADD SWAP2 SWAP1 PUSH1 0x0 MSTORE PUSH1 0x20 PUSH1 0x0 KECCAK256 SWAP1 JUMPDEST DUP2 SLOAD DUP2 MSTORE SWAP1 PUSH1 0x1 ADD SWAP1 PUSH1 0x20 ADD DUP1 DUP4 GT PUSH2 0x32A6 JUMPI JUMPDEST POP POP PUSH1 0x40 DUP1 MLOAD PUSH1 0x1F NOT DUP2 DUP5 SUB ADD DUP2 MSTORE SWAP2 SWAP1 MSTORE DUP1 MLOAD PUSH2 0x32E5 SWAP5 POP PUSH1 0x1 DUP8 ADD SWAP4 POP PUSH1 0x20 SWAP1 SWAP2 ADD SWAP2 POP PUSH2 0x38F3 JUMP JUMPDEST POP PUSH1 0x1 ADD PUSH2 0x306E JUMP JUMPDEST POP PUSH1 0x4 PUSH1 0x0 PUSH1 0x7 DUP5 PUSH4 0xFFFFFFFF AND DUP2 SLOAD DUP2 LT PUSH2 0x3306 JUMPI INVALID JUMPDEST PUSH1 0x0 SWAP2 DUP3 MSTORE PUSH1 0x20 DUP1 DUP4 KECCAK256 PUSH1 0x8 SWAP1 SWAP3 MUL SWAP1 SWAP2 ADD SLOAD PUSH1 0x1 PUSH1 0x1 PUSH1 0xA0 SHL SUB AND DUP4 MSTORE DUP3 ADD SWAP3 SWAP1 SWAP3 MSTORE PUSH1 0x40 ADD SWAP1 KECCAK256 SLOAD PUSH1 0xFF AND PUSH2 0x33E1 JUMPI PUSH1 0x3 PUSH1 0x7 DUP4 PUSH4 0xFFFFFFFF AND DUP2 SLOAD DUP2 LT PUSH2 0x334C JUMPI INVALID JUMPDEST PUSH1 0x0 SWAP2 DUP3 MSTORE PUSH1 0x20 DUP1 DUP4 KECCAK256 PUSH1 0x8 SWAP1 SWAP3 MUL SWAP1 SWAP2 ADD SLOAD DUP4 SLOAD PUSH1 0x1 DUP2 DUP2 ADD DUP7 SSTORE SWAP5 DUP5 MSTORE SWAP2 DUP4 KECCAK256 SWAP1 SWAP2 ADD DUP1 SLOAD PUSH1 0x1 PUSH1 0x1 PUSH1 0xA0 SHL SUB NOT AND PUSH1 0x1 PUSH1 0x1 PUSH1 0xA0 SHL SUB SWAP1 SWAP3 AND SWAP2 SWAP1 SWAP2 OR SWAP1 SSTORE PUSH1 0x7 DUP1 SLOAD PUSH1 0x4 SWAP3 SWAP2 SWAP1 PUSH4 0xFFFFFFFF DUP8 AND SWAP1 DUP2 LT PUSH2 0x33A7 JUMPI INVALID JUMPDEST PUSH1 0x0 SWAP2 DUP3 MSTORE PUSH1 0x20 DUP1 DUP4 KECCAK256 PUSH1 0x8 SWAP3 SWAP1 SWAP3 MUL SWAP1 SWAP2 ADD SLOAD PUSH1 0x1 PUSH1 0x1 PUSH1 0xA0 SHL SUB AND DUP4 MSTORE DUP3 ADD SWAP3 SWAP1 SWAP3 MSTORE PUSH1 0x40 ADD SWAP1 KECCAK256 DUP1 SLOAD PUSH1 0xFF NOT AND SWAP2 ISZERO ISZERO SWAP2 SWAP1 SWAP2 OR SWAP1 SSTORE JUMPDEST PUSH1 0x6 PUSH1 0x0 PUSH1 0x7 DUP5 PUSH4 0xFFFFFFFF AND DUP2 SLOAD DUP2 LT PUSH2 0x33F8 JUMPI INVALID JUMPDEST PUSH1 0x0 SWAP2 DUP3 MSTORE PUSH1 0x20 DUP1 DUP4 KECCAK256 PUSH1 0x8 SWAP1 SWAP3 MUL SWAP1 SWAP2 ADD SLOAD PUSH1 0x1 PUSH1 0x1 PUSH1 0xA0 SHL SUB AND DUP4 MSTORE DUP3 ADD SWAP3 SWAP1 SWAP3 MSTORE PUSH1 0x40 ADD SWAP1 KECCAK256 PUSH1 0x7 DUP1 SLOAD PUSH4 0xFFFFFFFF DUP6 AND SWAP1 DUP2 LT PUSH2 0x3435 JUMPI INVALID JUMPDEST SWAP1 PUSH1 0x0 MSTORE PUSH1 0x20 PUSH1 0x0 KECCAK256 SWAP1 PUSH1 0x8 MUL ADD PUSH1 0x2 ADD PUSH1 0x40 MLOAD DUP1 DUP3 DUP1 SLOAD PUSH1 0x1 DUP2 PUSH1 0x1 AND ISZERO PUSH2 0x100 MUL SUB AND PUSH1 0x2 SWAP1 DIV DUP1 ISZERO PUSH2 0x34A1 JUMPI DUP1 PUSH1 0x1F LT PUSH2 0x347F JUMPI PUSH2 0x100 DUP1 DUP4 SLOAD DIV MUL DUP4 MSTORE SWAP2 DUP3 ADD SWAP2 PUSH2 0x34A1 JUMP JUMPDEST DUP3 ADD SWAP2 SWAP1 PUSH1 0x0 MSTORE PUSH1 0x20 PUSH1 0x0 KECCAK256 SWAP1 JUMPDEST DUP2 SLOAD DUP2 MSTORE SWAP1 PUSH1 0x1 ADD SWAP1 PUSH1 0x20 ADD DUP1 DUP4 GT PUSH2 0x348D JUMPI JUMPDEST POP POP SWAP3 DUP4 MSTORE POP POP PUSH1 0x40 MLOAD SWAP1 DUP2 SWAP1 SUB PUSH1 0x20 ADD SWAP1 KECCAK256 SLOAD PUSH1 0xFF AND PUSH2 0x3640 JUMPI PUSH1 0x5 PUSH1 0x0 PUSH1 0x7 DUP5 PUSH4 0xFFFFFFFF AND DUP2 SLOAD DUP2 LT PUSH2 0x34D3 JUMPI INVALID JUMPDEST PUSH1 0x0 SWAP2 DUP3 MSTORE PUSH1 0x20 DUP1 DUP4 KECCAK256 PUSH1 0x8 SWAP1 SWAP3 MUL SWAP1 SWAP2 ADD SLOAD PUSH1 0x1 PUSH1 0x1 PUSH1 0xA0 SHL SUB AND DUP4 MSTORE DUP3 ADD SWAP3 SWAP1 SWAP3 MSTORE PUSH1 0x40 ADD SWAP1 KECCAK256 PUSH1 0x7 DUP1 SLOAD PUSH4 0xFFFFFFFF DUP6 AND SWAP1 DUP2 LT PUSH2 0x3510 JUMPI INVALID JUMPDEST PUSH1 0x0 SWAP2 DUP3 MSTORE PUSH1 0x20 DUP1 DUP4 KECCAK256 DUP5 SLOAD PUSH1 0x1 DUP1 DUP3 ADD DUP8 SSTORE SWAP6 DUP6 MSTORE SWAP2 SWAP1 SWAP4 KECCAK256 PUSH1 0x8 SWAP3 SWAP1 SWAP3 MUL SWAP1 SWAP3 ADD PUSH1 0x2 SWAP1 DUP2 ADD DUP1 SLOAD PUSH2 0x3558 SWAP6 SWAP4 SWAP1 SWAP5 ADD SWAP4 SWAP1 SWAP3 PUSH1 0x0 NOT SWAP1 DUP3 AND ISZERO PUSH2 0x100 MUL ADD AND DIV PUSH2 0x3971 JUMP JUMPDEST POP PUSH1 0x1 PUSH1 0x6 PUSH1 0x0 PUSH1 0x7 DUP6 PUSH4 0xFFFFFFFF AND DUP2 SLOAD DUP2 LT PUSH2 0x3572 JUMPI INVALID JUMPDEST PUSH1 0x0 SWAP2 DUP3 MSTORE PUSH1 0x20 DUP1 DUP4 KECCAK256 PUSH1 0x8 SWAP1 SWAP3 MUL SWAP1 SWAP2 ADD SLOAD PUSH1 0x1 PUSH1 0x1 PUSH1 0xA0 SHL SUB AND DUP4 MSTORE DUP3 ADD SWAP3 SWAP1 SWAP3 MSTORE PUSH1 0x40 ADD SWAP1 KECCAK256 PUSH1 0x7 DUP1 SLOAD PUSH4 0xFFFFFFFF DUP7 AND SWAP1 DUP2 LT PUSH2 0x35AF JUMPI INVALID JUMPDEST SWAP1 PUSH1 0x0 MSTORE PUSH1 0x20 PUSH1 0x0 KECCAK256 SWAP1 PUSH1 0x8 MUL ADD PUSH1 0x2 ADD PUSH1 0x40 MLOAD DUP1 DUP3 DUP1 SLOAD PUSH1 0x1 DUP2 PUSH1 0x1 AND ISZERO PUSH2 0x100 MUL SUB AND PUSH1 0x2 SWAP1 DIV DUP1 ISZERO PUSH2 0x361B JUMPI DUP1 PUSH1 0x1F LT PUSH2 0x35F9 JUMPI PUSH2 0x100 DUP1 DUP4 SLOAD DIV MUL DUP4 MSTORE SWAP2 DUP3 ADD SWAP2 PUSH2 0x361B JUMP JUMPDEST DUP3 ADD SWAP2 SWAP1 PUSH1 0x0 MSTORE PUSH1 0x20 PUSH1 0x0 KECCAK256 SWAP1 JUMPDEST DUP2 SLOAD DUP2 MSTORE SWAP1 PUSH1 0x1 ADD SWAP1 PUSH1 0x20 ADD DUP1 DUP4 GT PUSH2 0x3607 JUMPI JUMPDEST POP POP SWAP3 DUP4 MSTORE POP POP PUSH1 0x40 MLOAD SWAP1 DUP2 SWAP1 SUB PUSH1 0x20 ADD SWAP1 KECCAK256 DUP1 SLOAD SWAP2 ISZERO ISZERO PUSH1 0xFF NOT SWAP1 SWAP3 AND SWAP2 SWAP1 SWAP2 OR SWAP1 SSTORE JUMPDEST PUSH1 0x1 PUSH1 0x7 DUP4 PUSH4 0xFFFFFFFF AND DUP2 SLOAD DUP2 LT PUSH2 0x3655 JUMPI INVALID JUMPDEST PUSH1 0x0 SWAP2 DUP3 MSTORE PUSH1 0x20 SWAP1 SWAP2 KECCAK256 PUSH1 0x8 SWAP1 SWAP2 MUL ADD PUSH1 0x7 ADD DUP1 SLOAD PUSH1 0xFF NOT AND SWAP2 ISZERO ISZERO SWAP2 SWAP1 SWAP2 OR SWAP1 SSTORE POP POP JUMP JUMPDEST PUSH2 0x3683 PUSH2 0x3A50 JUMP JUMPDEST POP PUSH1 0x40 DUP1 MLOAD DUP1 DUP3 ADD SWAP1 SWAP2 MSTORE DUP2 MLOAD DUP2 MSTORE PUSH1 0x20 DUP3 DUP2 ADD SWAP1 DUP3 ADD MSTORE SWAP2 SWAP1 POP JUMP JUMPDEST PUSH1 0x0 DUP1 DUP3 PUSH1 0x0 ADD MLOAD PUSH2 0x36C4 DUP6 PUSH1 0x0 ADD MLOAD DUP7 PUSH1 0x20 ADD MLOAD DUP7 PUSH1 0x0 ADD MLOAD DUP8 PUSH1 0x20 ADD MLOAD PUSH2 0x3787 JUMP JUMPDEST ADD SWAP1 POP JUMPDEST DUP4 MLOAD PUSH1 0x20 DUP6 ADD MLOAD ADD DUP2 GT PUSH2 0x3706 JUMPI DUP3 MLOAD PUSH1 0x20 DUP1 DUP7 ADD MLOAD DUP7 MLOAD SWAP2 DUP7 ADD MLOAD PUSH1 0x1 SWAP1 SWAP6 ADD SWAP5 PUSH2 0x36FE SWAP3 SWAP2 DUP6 SUB SWAP1 SWAP2 SUB SWAP1 DUP5 SWAP1 DUP5 SWAP1 PUSH2 0x3787 JUMP JUMPDEST ADD SWAP1 POP PUSH2 0x36C8 JUMP JUMPDEST POP SWAP3 SWAP2 POP POP JUMP JUMPDEST PUSH2 0x3715 PUSH2 0x3A50 JUMP JUMPDEST PUSH2 0x3706 DUP4 DUP4 DUP4 PUSH2 0x3844 JUMP JUMPDEST PUSH1 0x60 DUP1 DUP3 PUSH1 0x0 ADD MLOAD PUSH8 0xFFFFFFFFFFFFFFFF DUP2 GT DUP1 ISZERO PUSH2 0x373E JUMPI PUSH1 0x0 DUP1 REVERT JUMPDEST POP PUSH1 0x40 MLOAD SWAP1 DUP1 DUP3 MSTORE DUP1 PUSH1 0x1F ADD PUSH1 0x1F NOT AND PUSH1 0x20 ADD DUP3 ADD PUSH1 0x40 MSTORE DUP1 ISZERO PUSH2 0x3769 JUMPI PUSH1 0x20 DUP3 ADD DUP2 DUP1 CALLDATASIZE DUP4 CALLDATACOPY ADD SWAP1 POP JUMPDEST POP SWAP1 POP PUSH1 0x0 PUSH1 0x20 DUP3 ADD SWAP1 POP PUSH2 0x3706 DUP2 DUP6 PUSH1 0x20 ADD MLOAD DUP7 PUSH1 0x0 ADD MLOAD PUSH2 0x38B5 JUMP JUMPDEST PUSH1 0x0 DUP4 DUP2 DUP7 DUP6 GT PUSH2 0x3835 JUMPI PUSH1 0x20 DUP6 GT PUSH2 0x37FA JUMPI DUP4 MLOAD DUP3 MLOAD PUSH1 0x0 NOT PUSH1 0x8 PUSH1 0x20 DUP10 SWAP1 SUB MUL PUSH1 0x2 EXP ADD NOT SWAP2 DUP3 AND SWAP1 DUP9 DUP11 ADD DUP9 SWAP1 SUB SWAP1 DUP4 AND JUMPDEST DUP3 DUP2 EQ PUSH2 0x37EC JUMPI DUP2 DUP7 LT PUSH2 0x37DA JUMPI DUP11 DUP11 ADD SWAP7 POP POP POP POP POP POP POP PUSH2 0x383C JUMP JUMPDEST POP PUSH1 0x1 SWAP1 SWAP5 ADD DUP1 MLOAD SWAP1 SWAP5 SWAP1 DUP4 AND PUSH2 0x37BC JUMP JUMPDEST DUP6 SWAP7 POP POP POP POP POP POP POP PUSH2 0x383C JUMP JUMPDEST POP DUP4 DUP4 KECCAK256 PUSH1 0x0 SWAP1 JUMPDEST DUP6 DUP9 SUB DUP3 GT PUSH2 0x3833 JUMPI DUP6 DUP4 KECCAK256 DUP2 DUP2 EQ ISZERO PUSH2 0x3822 JUMPI DUP4 SWAP5 POP POP POP POP POP PUSH2 0x383C JUMP JUMPDEST POP PUSH1 0x1 SWAP3 DUP4 ADD SWAP3 SWAP2 SWAP1 SWAP2 ADD SWAP1 PUSH2 0x3802 JUMP JUMPDEST POP JUMPDEST POP POP POP DUP3 DUP5 ADD JUMPDEST SWAP5 SWAP4 POP POP POP POP JUMP JUMPDEST PUSH2 0x384C PUSH2 0x3A50 JUMP JUMPDEST PUSH1 0x0 PUSH2 0x386A DUP6 PUSH1 0x0 ADD MLOAD DUP7 PUSH1 0x20 ADD MLOAD DUP7 PUSH1 0x0 ADD MLOAD DUP8 PUSH1 0x20 ADD MLOAD PUSH2 0x3787 JUMP JUMPDEST PUSH1 0x20 DUP1 DUP8 ADD DUP1 MLOAD SWAP2 DUP7 ADD SWAP2 SWAP1 SWAP2 MSTORE DUP1 MLOAD DUP3 SUB DUP6 MSTORE DUP7 MLOAD SWAP1 MLOAD SWAP2 SWAP3 POP ADD DUP2 EQ ISZERO PUSH2 0x3896 JUMPI PUSH1 0x0 DUP6 MSTORE PUSH2 0x38AC JUMP JUMPDEST DUP4 MLOAD DUP4 MLOAD DUP7 MLOAD SWAP2 ADD SWAP1 SUB DUP6 MSTORE DUP4 MLOAD DUP2 ADD PUSH1 0x20 DUP7 ADD MSTORE JUMPDEST POP SWAP1 SWAP4 SWAP3 POP POP POP JUMP JUMPDEST JUMPDEST PUSH1 0x20 DUP2 LT PUSH2 0x38D5 JUMPI DUP2 MLOAD DUP4 MSTORE PUSH1 0x20 SWAP3 DUP4 ADD SWAP3 SWAP1 SWAP2 ADD SWAP1 PUSH1 0x1F NOT ADD PUSH2 0x38B6 JUMP JUMPDEST SWAP1 MLOAD DUP3 MLOAD PUSH1 0x20 SWAP3 SWAP1 SWAP3 SUB PUSH2 0x100 EXP PUSH1 0x0 NOT ADD DUP1 NOT SWAP1 SWAP2 AND SWAP2 AND OR SWAP1 MSTORE JUMP JUMPDEST DUP3 DUP1 SLOAD PUSH1 0x1 DUP2 PUSH1 0x1 AND ISZERO PUSH2 0x100 MUL SUB AND PUSH1 0x2 SWAP1 DIV SWAP1 PUSH1 0x0 MSTORE PUSH1 0x20 PUSH1 0x0 KECCAK256 SWAP1 PUSH1 0x1F ADD PUSH1 0x20 SWAP1 DIV DUP2 ADD SWAP3 DUP3 PUSH1 0x1F LT PUSH2 0x3934 JUMPI DUP1 MLOAD PUSH1 0xFF NOT AND DUP4 DUP1 ADD OR DUP6 SSTORE PUSH2 0x3961 JUMP JUMPDEST DUP3 DUP1 ADD PUSH1 0x1 ADD DUP6 SSTORE DUP3 ISZERO PUSH2 0x3961 JUMPI SWAP2 DUP3 ADD JUMPDEST DUP3 DUP2 GT ISZERO PUSH2 0x3961 JUMPI DUP3 MLOAD DUP3 SSTORE SWAP2 PUSH1 0x20 ADD SWAP2 SWAP1 PUSH1 0x1 ADD SWAP1 PUSH2 0x3946 JUMP JUMPDEST POP PUSH2 0x396D SWAP3 SWAP2 POP PUSH2 0x3B6F JUMP JUMPDEST POP SWAP1 JUMP JUMPDEST DUP3 DUP1 SLOAD PUSH1 0x1 DUP2 PUSH1 0x1 AND ISZERO PUSH2 0x100 MUL SUB AND PUSH1 0x2 SWAP1 DIV SWAP1 PUSH1 0x0 MSTORE PUSH1 0x20 PUSH1 0x0 KECCAK256 SWAP1 PUSH1 0x1F ADD PUSH1 0x20 SWAP1 DIV DUP2 ADD SWAP3 DUP3 PUSH1 0x1F LT PUSH2 0x39AA JUMPI DUP1 SLOAD DUP6 SSTORE PUSH2 0x3961 JUMP JUMPDEST DUP3 DUP1 ADD PUSH1 0x1 ADD DUP6 SSTORE DUP3 ISZERO PUSH2 0x3961 JUMPI PUSH1 0x0 MSTORE PUSH1 0x20 PUSH1 0x0 KECCAK256 SWAP2 PUSH1 0x1F ADD PUSH1 0x20 SWAP1 DIV DUP3 ADD JUMPDEST DUP3 DUP2 GT ISZERO PUSH2 0x3961 JUMPI DUP3 SLOAD DUP3 SSTORE SWAP2 PUSH1 0x1 ADD SWAP2 SWAP1 PUSH1 0x1 ADD SWAP1 PUSH2 0x39CB JUMP JUMPDEST DUP3 DUP1 SLOAD DUP3 DUP3 SSTORE SWAP1 PUSH1 0x0 MSTORE PUSH1 0x20 PUSH1 0x0 KECCAK256 SWAP1 DUP2 ADD SWAP3 DUP3 ISZERO PUSH2 0x3A44 JUMPI PUSH1 0x0 MSTORE PUSH1 0x20 PUSH1 0x0 KECCAK256 SWAP2 DUP3 ADD JUMPDEST DUP3 DUP2 GT ISZERO PUSH2 0x3A44 JUMPI DUP3 DUP3 SWAP1 DUP1 SLOAD PUSH1 0x1 DUP2 PUSH1 0x1 AND ISZERO PUSH2 0x100 MUL SUB AND PUSH1 0x2 SWAP1 DIV PUSH2 0x3A34 SWAP3 SWAP2 SWAP1 PUSH2 0x3971 JUMP JUMPDEST POP SWAP2 PUSH1 0x1 ADD SWAP2 SWAP1 PUSH1 0x1 ADD SWAP1 PUSH2 0x3A0B JUMP JUMPDEST POP PUSH2 0x396D SWAP3 SWAP2 POP PUSH2 0x3B89 JUMP JUMPDEST PUSH1 0x40 MLOAD DUP1 PUSH1 0x40 ADD PUSH1 0x40 MSTORE DUP1 PUSH1 0x0 DUP2 MSTORE PUSH1 0x20 ADD PUSH1 0x0 DUP2 MSTORE POP SWAP1 JUMP JUMPDEST DUP3 DUP1 SLOAD PUSH1 0x1 DUP2 PUSH1 0x1 AND ISZERO PUSH2 0x100 MUL SUB AND PUSH1 0x2 SWAP1 DIV SWAP1 PUSH1 0x0 MSTORE PUSH1 0x20 PUSH1 0x0 KECCAK256 SWAP1 PUSH1 0x1F ADD PUSH1 0x20 SWAP1 DIV DUP2 ADD SWAP3 DUP3 PUSH1 0x1F LT PUSH2 0x3AAB JUMPI DUP3 DUP1 ADD PUSH1 0xFF NOT DUP3 CALLDATALOAD AND OR DUP6 SSTORE PUSH2 0x3961 JUMP JUMPDEST DUP3 DUP1 ADD PUSH1 0x1 ADD DUP6 SSTORE DUP3 ISZERO PUSH2 0x3961 JUMPI SWAP2 DUP3 ADD JUMPDEST DUP3 DUP2 GT ISZERO PUSH2 0x3961 JUMPI DUP3 CALLDATALOAD DUP3 SSTORE SWAP2 PUSH1 0x20 ADD SWAP2 SWAP1 PUSH1 0x1 ADD SWAP1 PUSH2 0x3ABD JUMP JUMPDEST PUSH1 0x40 MLOAD DUP1 PUSH1 0xC0 ADD PUSH1 0x40 MSTORE DUP1 PUSH1 0x0 PUSH1 0x1 PUSH1 0x1 PUSH1 0xA0 SHL SUB AND DUP2 MSTORE PUSH1 0x20 ADD PUSH1 0x0 PUSH1 0x1 PUSH1 0x1 PUSH1 0xA0 SHL SUB AND DUP2 MSTORE PUSH1 0x20 ADD PUSH1 0x60 DUP2 MSTORE PUSH1 0x20 ADD PUSH1 0x60 DUP2 MSTORE PUSH1 0x20 ADD PUSH1 0x60 DUP2 MSTORE PUSH1 0x20 ADD PUSH1 0x0 ISZERO ISZERO DUP2 MSTORE POP SWAP1 JUMP JUMPDEST DUP3 DUP1 SLOAD DUP3 DUP3 SSTORE SWAP1 PUSH1 0x0 MSTORE PUSH1 0x20 PUSH1 0x0 KECCAK256 SWAP1 DUP2 ADD SWAP3 DUP3 ISZERO PUSH2 0x3A44 JUMPI SWAP2 PUSH1 0x20 MUL DUP3 ADD JUMPDEST DUP3 DUP2 GT ISZERO PUSH2 0x3A44 JUMPI DUP3 MLOAD DUP1 MLOAD PUSH2 0x3B5F SWAP2 DUP5 SWAP2 PUSH1 0x20 SWAP1 SWAP2 ADD SWAP1 PUSH2 0x38F3 JUMP JUMPDEST POP SWAP2 PUSH1 0x20 ADD SWAP2 SWAP1 PUSH1 0x1 ADD SWAP1 PUSH2 0x3B42 JUMP JUMPDEST PUSH2 0x1B19 SWAP2 SWAP1 JUMPDEST DUP1 DUP3 GT ISZERO PUSH2 0x396D JUMPI PUSH1 0x0 DUP2 SSTORE PUSH1 0x1 ADD PUSH2 0x3B75 JUMP JUMPDEST PUSH2 0x1B19 SWAP2 SWAP1 JUMPDEST DUP1 DUP3 GT ISZERO PUSH2 0x396D JUMPI PUSH1 0x0 PUSH2 0x3BA3 DUP3 DUP3 PUSH2 0x3BAC JUMP JUMPDEST POP PUSH1 0x1 ADD PUSH2 0x3B8F JUMP JUMPDEST POP DUP1 SLOAD PUSH1 0x1 DUP2 PUSH1 0x1 AND ISZERO PUSH2 0x100 MUL SUB AND PUSH1 0x2 SWAP1 DIV PUSH1 0x0 DUP3 SSTORE DUP1 PUSH1 0x1F LT PUSH2 0x3BD2 JUMPI POP PUSH2 0x3BF0 JUMP JUMPDEST PUSH1 0x1F ADD PUSH1 0x20 SWAP1 DIV SWAP1 PUSH1 0x0 MSTORE PUSH1 0x20 PUSH1 0x0 KECCAK256 SWAP1 DUP2 ADD SWAP1 PUSH2 0x3BF0 SWAP2 SWAP1 PUSH2 0x3B6F JUMP JUMPDEST POP JUMP INVALID LOG2 PUSH5 0x6970667358 0x22 SLT KECCAK256 0xB2 AND 0xDB DUP6 GAS 0xB3 0xE5 0xCA 0xE7 DUP16 SWAP9 DIV SWAP16 0xEA 0x49 PUSH25 0x94DAA41D02A108008154FA744457AED064736F6C6343000606 STOP CALLER LOG2 PUSH5 0x6970667358 0x22 SLT KECCAK256 0x2E LOG0 0xEC MSTORE 0xBD 0xD5 CALLDATALOAD EXTCODEHASH PUSH26 0x2DF2B52E7CD88DCD2AE4B6F6535F12BB2F3F8C65403FBC64736F PUSH13 0x63430006060033000000000000 "},"gasEstimates":{"creation":{"codeDepositCost":"3545200","executionCost":"3974","totalCost":"3549174"},"external":{"Array(uint256)":"infinite","create(string,address[])":"infinite","entityLength()":"1030","loadSource(uint32)":"infinite"}},"methodIdentifiers":{"Array(uint256)":"a1690e23","create(string,address[])":"d5986579","entityLength()":"ae2d25f4","loadSource(uint32)":"3ca701e9"}},"storageLayout":{"storage":[{"astId":1246,"contract":"MultipleEntityFactory.sol:MultipleEntityFactory","label":"Array","offset":0,"slot":"0","type":"t_array(t_struct(Account)1243_storage)dyn_storage"}],"types":{"t_address":{"encoding":"inplace","label":"address","numberOfBytes":"20"},"t_array(t_address)dyn_storage":{"base":"t_address","encoding":"dynamic_array","label":"address[]","numberOfBytes":"32"},"t_array(t_struct(Account)1243_storage)dyn_storage":{"base":"t_struct(Account)1243_storage","encoding":"dynamic_array","label":"struct MultipleEntityFactory.Account[]","numberOfBytes":"32"},"t_string_storage":{"encoding":"bytes","label":"string","numberOfBytes":"32"},"t_struct(Account)1243_storage":{"encoding":"inplace","label":"struct MultipleEntityFactory.Account","members":[{"astId":1237,"contract":"MultipleEntityFactory.sol:MultipleEntityFactory","label":"entity","offset":0,"slot":"0","type":"t_address"},{"astId":1240,"contract":"MultipleEntityFactory.sol:MultipleEntityFactory","label":"source","offset":0,"slot":"1","type":"t_array(t_address)dyn_storage"},{"astId":1242,"contract":"MultipleEntityFactory.sol:MultipleEntityFactory","label":"description","offset":0,"slot":"2","type":"t_string_storage"}],"numberOfBytes":"96"}}},"userdoc":{"methods":{}}}