{"abi":[{"inputs":[{"internalType":"uint256","name":"","type":"uint256"}],"name":"Array","outputs":[{"internalType":"address","name":"entity","type":"address"},{"internalType":"string","name":"description","type":"string"}],"stateMutability":"view","type":"function"},{"inputs":[{"internalType":"string","name":"description","type":"string"},{"internalType":"address[]","name":"entities","type":"address[]"}],"name":"create","outputs":[],"stateMutability":"nonpayable","type":"function"},{"inputs":[],"name":"entityLength","outputs":[{"internalType":"uint32","name":"","type":"uint32"}],"stateMutability":"view","type":"function"},{"inputs":[{"internalType":"uint32","name":"index","type":"uint32"}],"name":"loadSource","outputs":[{"internalType":"address[]","name":"","type":"address[]"}],"stateMutability":"view","type":"function"}],"devdoc":{"methods":{}},"evm":{"assembly":"    /* \"MultipleEntityFactory.sol\":56:780  contract MultipleEntityFactory {... */\n  mstore(0x40, 0x80)\n  callvalue\n    /* \"--CODEGEN--\":5:14   */\n  dup1\n    /* \"--CODEGEN--\":2:4   */\n  iszero\n  tag_1\n  jumpi\n    /* \"--CODEGEN--\":27:28   */\n  0x00\n    /* \"--CODEGEN--\":24:25   */\n  dup1\n    /* \"--CODEGEN--\":17:29   */\n  revert\n    /* \"--CODEGEN--\":2:4   */\ntag_1:\n    /* \"MultipleEntityFactory.sol\":56:780  contract MultipleEntityFactory {... */\n  pop\n  dataSize(sub_0)\n  dup1\n  dataOffset(sub_0)\n  0x00\n  codecopy\n  0x00\n  return\nstop\n\nsub_0: assembly {\n        /* \"MultipleEntityFactory.sol\":56:780  contract MultipleEntityFactory {... */\n      mstore(0x40, 0x80)\n      callvalue\n        /* \"--CODEGEN--\":5:14   */\n      dup1\n        /* \"--CODEGEN--\":2:4   */\n      iszero\n      tag_1\n      jumpi\n        /* \"--CODEGEN--\":27:28   */\n      0x00\n        /* \"--CODEGEN--\":24:25   */\n      dup1\n        /* \"--CODEGEN--\":17:29   */\n      revert\n        /* \"--CODEGEN--\":2:4   */\n    tag_1:\n        /* \"MultipleEntityFactory.sol\":56:780  contract MultipleEntityFactory {... */\n      pop\n      jumpi(tag_2, lt(calldatasize, 0x04))\n      shr(0xe0, calldataload(0x00))\n      dup1\n      0x3ca701e9\n      eq\n      tag_3\n      jumpi\n      dup1\n      0xa1690e23\n      eq\n      tag_4\n      jumpi\n      dup1\n      0xae2d25f4\n      eq\n      tag_5\n      jumpi\n      dup1\n      0xd5986579\n      eq\n      tag_6\n      jumpi\n    tag_2:\n        /* \"--CODEGEN--\":12:13   */\n      0x00\n        /* \"--CODEGEN--\":9:10   */\n      dup1\n        /* \"--CODEGEN--\":2:14   */\n      revert\n        /* \"MultipleEntityFactory.sol\":663:777  function loadSource(uint32 index) public view returns(address[] memory){... */\n    tag_3:\n      tag_7\n      0x04\n      dup1\n      calldatasize\n      sub\n        /* \"--CODEGEN--\":15:17   */\n      0x20\n        /* \"--CODEGEN--\":10:13   */\n      dup2\n        /* \"--CODEGEN--\":7:18   */\n      lt\n        /* \"--CODEGEN--\":4:6   */\n      iszero\n      tag_8\n      jumpi\n        /* \"--CODEGEN--\":31:32   */\n      0x00\n        /* \"--CODEGEN--\":28:29   */\n      dup1\n        /* \"--CODEGEN--\":21:33   */\n      revert\n        /* \"--CODEGEN--\":4:6   */\n    tag_8:\n      pop\n        /* \"MultipleEntityFactory.sol\":663:777  function loadSource(uint32 index) public view returns(address[] memory){... */\n      calldataload\n      0xffffffff\n      and\n      tag_9\n      jump\t// in\n    tag_7:\n      0x40\n      dup1\n      mload\n      0x20\n      dup1\n      dup3\n      mstore\n      dup4\n      mload\n      dup2\n      dup4\n      add\n      mstore\n      dup4\n      mload\n      swap2\n      swap3\n      dup4\n      swap3\n      swap1\n      dup4\n      add\n      swap2\n      dup6\n      dup2\n      add\n      swap2\n      mul\n      dup1\n      dup4\n      dup4\n      0x00\n        /* \"--CODEGEN--\":8:108   */\n    tag_10:\n        /* \"--CODEGEN--\":33:36   */\n      dup4\n        /* \"--CODEGEN--\":30:31   */\n      dup2\n        /* \"--CODEGEN--\":27:37   */\n      lt\n        /* \"--CODEGEN--\":8:108   */\n      iszero\n      tag_12\n      jumpi\n        /* \"--CODEGEN--\":90:101   */\n      dup2\n      dup2\n      add\n        /* \"--CODEGEN--\":84:102   */\n      mload\n        /* \"--CODEGEN--\":71:82   */\n      dup4\n      dup3\n      add\n        /* \"--CODEGEN--\":64:103   */\n      mstore\n        /* \"--CODEGEN--\":52:54   */\n      0x20\n        /* \"--CODEGEN--\":45:55   */\n      add\n        /* \"--CODEGEN--\":8:108   */\n      jump(tag_10)\n    tag_12:\n        /* \"--CODEGEN--\":12:26   */\n      pop\n        /* \"MultipleEntityFactory.sol\":663:777  function loadSource(uint32 index) public view returns(address[] memory){... */\n      pop\n      pop\n      pop\n      swap1\n      pop\n      add\n      swap3\n      pop\n      pop\n      pop\n      mload(0x40)\n      dup1\n      swap2\n      sub\n      swap1\n      return\n        /* \"MultipleEntityFactory.sol\":203:225  Account[] public Array */\n    tag_4:\n      tag_13\n      0x04\n      dup1\n      calldatasize\n      sub\n        /* \"--CODEGEN--\":15:17   */\n      0x20\n        /* \"--CODEGEN--\":10:13   */\n      dup2\n        /* \"--CODEGEN--\":7:18   */\n      lt\n        /* \"--CODEGEN--\":4:6   */\n      iszero\n      tag_14\n      jumpi\n        /* \"--CODEGEN--\":31:32   */\n      0x00\n        /* \"--CODEGEN--\":28:29   */\n      dup1\n        /* \"--CODEGEN--\":21:33   */\n      revert\n        /* \"--CODEGEN--\":4:6   */\n    tag_14:\n      pop\n        /* \"MultipleEntityFactory.sol\":203:225  Account[] public Array */\n      calldataload\n      tag_15\n      jump\t// in\n    tag_13:\n      mload(0x40)\n      dup1\n      dup4\n      sub(shl(0xa0, 0x01), 0x01)\n      and\n      sub(shl(0xa0, 0x01), 0x01)\n      and\n      dup2\n      mstore\n      0x20\n      add\n      dup1\n      0x20\n      add\n      dup3\n      dup2\n      sub\n      dup3\n      mstore\n      dup4\n      dup2\n      dup2\n      mload\n      dup2\n      mstore\n      0x20\n      add\n      swap2\n      pop\n      dup1\n      mload\n      swap1\n      0x20\n      add\n      swap1\n      dup1\n      dup4\n      dup4\n        /* \"--CODEGEN--\":23:24   */\n      0x00\n        /* \"--CODEGEN--\":8:108   */\n    tag_16:\n        /* \"--CODEGEN--\":33:36   */\n      dup4\n        /* \"--CODEGEN--\":30:31   */\n      dup2\n        /* \"--CODEGEN--\":27:37   */\n      lt\n        /* \"--CODEGEN--\":8:108   */\n      iszero\n      tag_18\n      jumpi\n        /* \"--CODEGEN--\":90:101   */\n      dup2\n      dup2\n      add\n        /* \"--CODEGEN--\":84:102   */\n      mload\n        /* \"--CODEGEN--\":71:82   */\n      dup4\n      dup3\n      add\n        /* \"--CODEGEN--\":64:103   */\n      mstore\n        /* \"--CODEGEN--\":52:54   */\n      0x20\n        /* \"--CODEGEN--\":45:55   */\n      add\n        /* \"--CODEGEN--\":8:108   */\n      jump(tag_16)\n    tag_18:\n        /* \"--CODEGEN--\":12:26   */\n      pop\n        /* \"MultipleEntityFactory.sol\":203:225  Account[] public Array */\n      pop\n      pop\n      pop\n      swap1\n      pop\n      swap1\n      dup2\n      add\n      swap1\n      0x1f\n      and\n      dup1\n      iszero\n      tag_19\n      jumpi\n      dup1\n      dup3\n      sub\n      dup1\n      mload\n      0x01\n      dup4\n      0x20\n      sub\n      0x0100\n      exp\n      sub\n      not\n      and\n      dup2\n      mstore\n      0x20\n      add\n      swap2\n      pop\n    tag_19:\n      pop\n      swap4\n      pop\n      pop\n      pop\n      pop\n      mload(0x40)\n      dup1\n      swap2\n      sub\n      swap1\n      return\n        /* \"MultipleEntityFactory.sol\":562:657  function entityLength() public view returns(uint32){... */\n    tag_5:\n      tag_20\n      tag_21\n      jump\t// in\n    tag_20:\n      0x40\n      dup1\n      mload\n      0xffffffff\n      swap1\n      swap3\n      and\n      dup3\n      mstore\n      mload\n      swap1\n      dup2\n      swap1\n      sub\n      0x20\n      add\n      swap1\n      return\n        /* \"MultipleEntityFactory.sol\":232:557  function create(string memory description, address[] memory entities) public {... */\n    tag_6:\n      tag_22\n      0x04\n      dup1\n      calldatasize\n      sub\n        /* \"--CODEGEN--\":15:17   */\n      0x40\n        /* \"--CODEGEN--\":10:13   */\n      dup2\n        /* \"--CODEGEN--\":7:18   */\n      lt\n        /* \"--CODEGEN--\":4:6   */\n      iszero\n      tag_23\n      jumpi\n        /* \"--CODEGEN--\":31:32   */\n      0x00\n        /* \"--CODEGEN--\":28:29   */\n      dup1\n        /* \"--CODEGEN--\":21:33   */\n      revert\n        /* \"--CODEGEN--\":4:6   */\n    tag_23:\n        /* \"MultipleEntityFactory.sol\":232:557  function create(string memory description, address[] memory entities) public {... */\n      dup2\n      add\n      swap1\n      0x20\n      dup2\n      add\n      dup2\n      calldataload\n        /* \"--CODEGEN--\":27:38   */\n      0x0100000000\n        /* \"--CODEGEN--\":11:39   */\n      dup2\n      gt\n        /* \"--CODEGEN--\":8:10   */\n      iszero\n      tag_24\n      jumpi\n        /* \"--CODEGEN--\":52:53   */\n      0x00\n        /* \"--CODEGEN--\":49:50   */\n      dup1\n        /* \"--CODEGEN--\":42:54   */\n      revert\n        /* \"--CODEGEN--\":8:10   */\n    tag_24:\n        /* \"MultipleEntityFactory.sol\":232:557  function create(string memory description, address[] memory entities) public {... */\n      dup3\n      add\n        /* \"--CODEGEN--\":41:50   */\n      dup4\n        /* \"--CODEGEN--\":34:38   */\n      0x20\n        /* \"--CODEGEN--\":18:32   */\n      dup3\n        /* \"--CODEGEN--\":14:39   */\n      add\n        /* \"--CODEGEN--\":11:51   */\n      gt\n        /* \"--CODEGEN--\":8:10   */\n      iszero\n      tag_25\n      jumpi\n        /* \"--CODEGEN--\":64:65   */\n      0x00\n        /* \"--CODEGEN--\":61:62   */\n      dup1\n        /* \"--CODEGEN--\":54:66   */\n      revert\n        /* \"--CODEGEN--\":8:10   */\n    tag_25:\n        /* \"MultipleEntityFactory.sol\":232:557  function create(string memory description, address[] memory entities) public {... */\n      dup1\n      calldataload\n      swap1\n      0x20\n      add\n      swap2\n        /* \"--CODEGEN--\":100:109   */\n      dup5\n        /* \"--CODEGEN--\":95:96   */\n      0x01\n        /* \"--CODEGEN--\":81:93   */\n      dup4\n        /* \"--CODEGEN--\":77:97   */\n      mul\n        /* \"--CODEGEN--\":67:75   */\n      dup5\n        /* \"--CODEGEN--\":63:98   */\n      add\n        /* \"--CODEGEN--\":60:110   */\n      gt\n        /* \"--CODEGEN--\":39:50   */\n      0x0100000000\n        /* \"--CODEGEN--\":25:37   */\n      dup4\n        /* \"--CODEGEN--\":22:51   */\n      gt\n        /* \"--CODEGEN--\":11:118   */\n      or\n        /* \"--CODEGEN--\":8:10   */\n      iszero\n      tag_26\n      jumpi\n        /* \"--CODEGEN--\":131:132   */\n      0x00\n        /* \"--CODEGEN--\":128:129   */\n      dup1\n        /* \"--CODEGEN--\":121:133   */\n      revert\n        /* \"--CODEGEN--\":8:10   */\n    tag_26:\n        /* \"MultipleEntityFactory.sol\":232:557  function create(string memory description, address[] memory entities) public {... */\n      swap2\n      swap1\n      dup1\n      dup1\n      0x1f\n      add\n      0x20\n      dup1\n      swap2\n      div\n      mul\n      0x20\n      add\n      mload(0x40)\n      swap1\n      dup2\n      add\n      0x40\n      mstore\n      dup1\n      swap4\n      swap3\n      swap2\n      swap1\n      dup2\n      dup2\n      mstore\n      0x20\n      add\n      dup4\n      dup4\n        /* \"--CODEGEN--\":30:33   */\n      dup1\n        /* \"--CODEGEN--\":22:28   */\n      dup3\n        /* \"--CODEGEN--\":14:20   */\n      dup5\n        /* \"--CODEGEN--\":1:34   */\n      calldatacopy\n        /* \"--CODEGEN--\":99:100   */\n      0x00\n        /* \"--CODEGEN--\":81:97   */\n      swap3\n      add\n        /* \"--CODEGEN--\":74:101   */\n      swap2\n      swap1\n      swap2\n      mstore\n      pop\n        /* \"MultipleEntityFactory.sol\":232:557  function create(string memory description, address[] memory entities) public {... */\n      swap3\n      swap6\n      swap5\n      swap4\n      0x20\n      dup2\n      add\n      swap4\n      pop\n      calldataload\n      swap2\n      pop\n      pop\n        /* \"--CODEGEN--\":27:38   */\n      0x0100000000\n        /* \"--CODEGEN--\":11:39   */\n      dup2\n      gt\n        /* \"--CODEGEN--\":8:10   */\n      iszero\n      tag_27\n      jumpi\n        /* \"--CODEGEN--\":52:53   */\n      0x00\n        /* \"--CODEGEN--\":49:50   */\n      dup1\n        /* \"--CODEGEN--\":42:54   */\n      revert\n        /* \"--CODEGEN--\":8:10   */\n    tag_27:\n        /* \"MultipleEntityFactory.sol\":232:557  function create(string memory description, address[] memory entities) public {... */\n      dup3\n      add\n        /* \"--CODEGEN--\":41:50   */\n      dup4\n        /* \"--CODEGEN--\":34:38   */\n      0x20\n        /* \"--CODEGEN--\":18:32   */\n      dup3\n        /* \"--CODEGEN--\":14:39   */\n      add\n        /* \"--CODEGEN--\":11:51   */\n      gt\n        /* \"--CODEGEN--\":8:10   */\n      iszero\n      tag_28\n      jumpi\n        /* \"--CODEGEN--\":64:65   */\n      0x00\n        /* \"--CODEGEN--\":61:62   */\n      dup1\n        /* \"--CODEGEN--\":54:66   */\n      revert\n        /* \"--CODEGEN--\":8:10   */\n    tag_28:\n        /* \"MultipleEntityFactory.sol\":232:557  function create(string memory description, address[] memory entities) public {... */\n      dup1\n      calldataload\n      swap1\n      0x20\n      add\n      swap2\n        /* \"--CODEGEN--\":101:110   */\n      dup5\n        /* \"--CODEGEN--\":95:97   */\n      0x20\n        /* \"--CODEGEN--\":81:93   */\n      dup4\n        /* \"--CODEGEN--\":77:98   */\n      mul\n        /* \"--CODEGEN--\":67:75   */\n      dup5\n        /* \"--CODEGEN--\":63:99   */\n      add\n        /* \"--CODEGEN--\":60:111   */\n      gt\n        /* \"--CODEGEN--\":39:50   */\n      0x0100000000\n        /* \"--CODEGEN--\":25:37   */\n      dup4\n        /* \"--CODEGEN--\":22:51   */\n      gt\n        /* \"--CODEGEN--\":11:119   */\n      or\n        /* \"--CODEGEN--\":8:10   */\n      iszero\n      tag_29\n      jumpi\n        /* \"--CODEGEN--\":132:133   */\n      0x00\n        /* \"--CODEGEN--\":129:130   */\n      dup1\n        /* \"--CODEGEN--\":122:134   */\n      revert\n        /* \"--CODEGEN--\":8:10   */\n    tag_29:\n        /* \"MultipleEntityFactory.sol\":232:557  function create(string memory description, address[] memory entities) public {... */\n      swap2\n      swap1\n      dup1\n      dup1\n      0x20\n      mul\n      0x20\n      add\n      mload(0x40)\n      swap1\n      dup2\n      add\n      0x40\n      mstore\n      dup1\n      swap4\n      swap3\n      swap2\n      swap1\n      dup2\n      dup2\n      mstore\n      0x20\n      add\n      dup4\n      dup4\n      0x20\n      mul\n        /* \"--CODEGEN--\":30:33   */\n      dup1\n        /* \"--CODEGEN--\":22:28   */\n      dup3\n        /* \"--CODEGEN--\":14:20   */\n      dup5\n        /* \"--CODEGEN--\":1:34   */\n      calldatacopy\n        /* \"--CODEGEN--\":99:100   */\n      0x00\n        /* \"--CODEGEN--\":81:97   */\n      swap3\n      add\n        /* \"--CODEGEN--\":74:101   */\n      swap2\n      swap1\n      swap2\n      mstore\n      pop\n        /* \"MultipleEntityFactory.sol\":232:557  function create(string memory description, address[] memory entities) public {... */\n      swap3\n      swap6\n      pop\n      tag_30\n      swap5\n      pop\n      pop\n      pop\n      pop\n      pop\n      jump\t// in\n    tag_22:\n      stop\n        /* \"MultipleEntityFactory.sol\":663:777  function loadSource(uint32 index) public view returns(address[] memory){... */\n    tag_9:\n        /* \"MultipleEntityFactory.sol\":717:733  address[] memory */\n      0x60\n        /* \"MultipleEntityFactory.sol\":751:756  Array */\n      0x00\n        /* \"MultipleEntityFactory.sol\":757:762  index */\n      dup3\n        /* \"MultipleEntityFactory.sol\":751:763  Array[index] */\n      0xffffffff\n      and\n      dup2\n      sload\n      dup2\n      lt\n      tag_32\n      jumpi\n      invalid\n    tag_32:\n      swap1\n      0x00\n      mstore\n      keccak256(0x00, 0x20)\n      swap1\n      0x03\n      mul\n      add\n        /* \"MultipleEntityFactory.sol\":751:770  Array[index].source */\n      0x01\n      add\n        /* \"MultipleEntityFactory.sol\":744:770  return Array[index].source */\n      dup1\n      sload\n      dup1\n      0x20\n      mul\n      0x20\n      add\n      mload(0x40)\n      swap1\n      dup2\n      add\n      0x40\n      mstore\n      dup1\n      swap3\n      swap2\n      swap1\n      dup2\n      dup2\n      mstore\n      0x20\n      add\n      dup3\n      dup1\n      sload\n      dup1\n      iszero\n      tag_34\n      jumpi\n      0x20\n      mul\n      dup3\n      add\n      swap2\n      swap1\n      0x00\n      mstore\n      keccak256(0x00, 0x20)\n      swap1\n    tag_35:\n      dup2\n      sload\n      sub(shl(0xa0, 0x01), 0x01)\n      and\n      dup2\n      mstore\n      0x01\n      swap1\n      swap2\n      add\n      swap1\n      0x20\n      add\n      dup1\n      dup4\n      gt\n      tag_35\n      jumpi\n    tag_34:\n      pop\n      pop\n      pop\n      pop\n      pop\n      swap1\n      pop\n        /* \"MultipleEntityFactory.sol\":663:777  function loadSource(uint32 index) public view returns(address[] memory){... */\n      swap2\n      swap1\n      pop\n      jump\t// out\n        /* \"MultipleEntityFactory.sol\":203:225  Account[] public Array */\n    tag_15:\n      0x00\n      dup2\n      dup2\n      sload\n      dup2\n      lt\n      tag_36\n      jumpi\n      invalid\n    tag_36:\n      0x00\n      swap2\n      dup3\n      mstore\n      0x20\n      swap2\n      dup3\n      swap1\n      keccak256\n      0x03\n      swap1\n      swap2\n      mul\n      add\n      dup1\n      sload\n      0x02\n      dup1\n      dup4\n      add\n      dup1\n      sload\n      0x40\n      dup1\n      mload\n      0x1f\n      not(0x00)\n      0x01\n      dup6\n      and\n      iszero\n      0x0100\n      mul\n      add\n      swap1\n      swap4\n      and\n      swap5\n      swap1\n      swap5\n      div\n      swap2\n      dup3\n      add\n      dup8\n      swap1\n      div\n      dup8\n      mul\n      dup5\n      add\n      dup8\n      add\n      swap1\n      mstore\n      dup1\n      dup4\n      mstore\n      sub(shl(0xa0, 0x01), 0x01)\n      swap1\n      swap4\n      and\n      swap6\n      pop\n      swap3\n      swap4\n      swap1\n      swap3\n      swap2\n      swap1\n      dup4\n      add\n      dup3\n      dup3\n      dup1\n      iszero\n      tag_38\n      jumpi\n      dup1\n      0x1f\n      lt\n      tag_39\n      jumpi\n      0x0100\n      dup1\n      dup4\n      sload\n      div\n      mul\n      dup4\n      mstore\n      swap2\n      0x20\n      add\n      swap2\n      jump(tag_38)\n    tag_39:\n      dup3\n      add\n      swap2\n      swap1\n      0x00\n      mstore\n      keccak256(0x00, 0x20)\n      swap1\n    tag_40:\n      dup2\n      sload\n      dup2\n      mstore\n      swap1\n      0x01\n      add\n      swap1\n      0x20\n      add\n      dup1\n      dup4\n      gt\n      tag_40\n      jumpi\n      dup3\n      swap1\n      sub\n      0x1f\n      and\n      dup3\n      add\n      swap2\n    tag_38:\n      pop\n      pop\n      pop\n      pop\n      pop\n      swap1\n      pop\n      dup3\n      jump\t// out\n        /* \"MultipleEntityFactory.sol\":562:657  function entityLength() public view returns(uint32){... */\n    tag_21:\n        /* \"MultipleEntityFactory.sol\":606:612  uint32 */\n      0x00\n        /* \"MultipleEntityFactory.sol\":637:649  Array.length */\n      sload\n        /* \"MultipleEntityFactory.sol\":562:657  function entityLength() public view returns(uint32){... */\n    tag_41:\n      swap1\n      jump\t// out\n        /* \"MultipleEntityFactory.sol\":232:557  function create(string memory description, address[] memory entities) public {... */\n    tag_30:\n        /* \"MultipleEntityFactory.sol\":319:342  Account memory toCreate */\n      tag_43\n      tag_44\n      jump\t// in\n    tag_43:\n        /* \"MultipleEntityFactory.sol\":375:386  description */\n      dup3\n        /* \"MultipleEntityFactory.sol\":352:360  toCreate */\n      dup2\n        /* \"MultipleEntityFactory.sol\":352:372  toCreate.description */\n      0x40\n      add\n        /* \"MultipleEntityFactory.sol\":352:386  toCreate.description = description */\n      dup2\n      swap1\n      mstore\n      pop\n        /* \"MultipleEntityFactory.sol\":396:413  MultipleEntity me */\n      0x00\n        /* \"MultipleEntityFactory.sol\":435:443  entities */\n      dup3\n        /* \"MultipleEntityFactory.sol\":416:444  new MultipleEntity(entities) */\n      mload(0x40)\n      tag_45\n      swap1\n      tag_46\n      jump\t// in\n    tag_45:\n      0x20\n      dup1\n      dup3\n      mstore\n      dup3\n      mload\n      dup2\n      dup4\n      add\n      mstore\n      dup3\n      mload\n      dup3\n      swap2\n      0x40\n      dup4\n      add\n      swap2\n      dup6\n      dup3\n      add\n      swap2\n      mul\n      dup1\n      dup4\n      dup4\n      0x00\n        /* \"--CODEGEN--\":8:108   */\n    tag_47:\n        /* \"--CODEGEN--\":33:36   */\n      dup4\n        /* \"--CODEGEN--\":30:31   */\n      dup2\n        /* \"--CODEGEN--\":27:37   */\n      lt\n        /* \"--CODEGEN--\":8:108   */\n      iszero\n      tag_49\n      jumpi\n        /* \"--CODEGEN--\":90:101   */\n      dup2\n      dup2\n      add\n        /* \"--CODEGEN--\":84:102   */\n      mload\n        /* \"--CODEGEN--\":71:82   */\n      dup4\n      dup3\n      add\n        /* \"--CODEGEN--\":64:103   */\n      mstore\n        /* \"--CODEGEN--\":52:54   */\n      0x20\n        /* \"--CODEGEN--\":45:55   */\n      add\n        /* \"--CODEGEN--\":8:108   */\n      jump(tag_47)\n    tag_49:\n        /* \"--CODEGEN--\":12:26   */\n      pop\n        /* \"MultipleEntityFactory.sol\":416:444  new MultipleEntity(entities) */\n      pop\n      pop\n      pop\n      swap1\n      pop\n      add\n      swap3\n      pop\n      pop\n      pop\n      mload(0x40)\n      dup1\n      swap2\n      sub\n      swap1\n      0x00\n      create\n      dup1\n      iszero\n        /* \"--CODEGEN--\":8:17   */\n      dup1\n        /* \"--CODEGEN--\":5:7   */\n      iszero\n      tag_50\n      jumpi\n        /* \"--CODEGEN--\":45:61   */\n      returndatasize\n        /* \"--CODEGEN--\":42:43   */\n      0x00\n        /* \"--CODEGEN--\":39:40   */\n      dup1\n        /* \"--CODEGEN--\":24:62   */\n      returndatacopy\n        /* \"--CODEGEN--\":77:93   */\n      returndatasize\n        /* \"--CODEGEN--\":74:75   */\n      0x00\n        /* \"--CODEGEN--\":67:94   */\n      revert\n        /* \"--CODEGEN--\":5:7   */\n    tag_50:\n      pop\n        /* \"MultipleEntityFactory.sol\":454:469  toCreate.source */\n      0x20\n      dup4\n      dup2\n      add\n        /* \"MultipleEntityFactory.sol\":454:480  toCreate.source = entities */\n      dup6\n      dup2\n      mstore\n      sub(shl(0xa0, 0x01), 0x01)\n        /* \"MultipleEntityFactory.sol\":490:519  toCreate.entity = address(me) */\n      dup4\n      dup2\n      and\n      dup7\n      mstore\n      0x00\n        /* \"--CODEGEN--\":27:37   */\n      dup1\n      sload\n        /* \"--CODEGEN--\":39:40   */\n      0x01\n        /* \"--CODEGEN--\":23:41   */\n      dup2\n      add\n        /* \"--CODEGEN--\":45:68   */\n      dup3\n      sstore\n        /* \"MultipleEntityFactory.sol\":530:550  Array.push(toCreate) */\n      swap1\n      dup1\n      mstore\n      dup7\n      mload\n      0x290decd9548b62a8d60345a988386fc84ba6bc95484008f6362f93160ef3e563\n      0x03\n      swap1\n      swap3\n      mul\n      swap2\n      dup3\n      add\n      dup1\n      sload\n      not(sub(shl(0xa0, 0x01), 0x01))\n      and\n      swap2\n      swap1\n      swap4\n      and\n      or\n      dup3\n      sstore\n      swap2\n      mload\n      dup1\n      mload\n        /* \"MultipleEntityFactory.sol\":490:519  toCreate.entity = address(me) */\n      swap5\n      swap6\n      pop\n        /* \"MultipleEntityFactory.sol\":454:469  toCreate.source */\n      dup7\n      swap5\n        /* \"MultipleEntityFactory.sol\":530:550  Array.push(toCreate) */\n      swap2\n      swap4\n      tag_52\n      swap4\n      0x290decd9548b62a8d60345a988386fc84ba6bc95484008f6362f93160ef3e564\n      add\n      swap3\n      swap2\n      add\n      swap1\n      tag_53\n      jump\t// in\n    tag_52:\n      pop\n      0x40\n      dup3\n      add\n      mload\n      dup1\n      mload\n      tag_54\n      swap2\n      0x02\n      dup5\n      add\n      swap2\n      0x20\n      swap1\n      swap2\n      add\n      swap1\n      tag_55\n      jump\t// in\n    tag_54:\n      pop\n      pop\n      pop\n        /* \"MultipleEntityFactory.sol\":232:557  function create(string memory description, address[] memory entities) public {... */\n      pop\n      pop\n      pop\n      pop\n      jump\t// out\n        /* \"MultipleEntityFactory.sol\":56:780  contract MultipleEntityFactory {... */\n    tag_44:\n      mload(0x40)\n      dup1\n      0x60\n      add\n      0x40\n      mstore\n      dup1\n      and(sub(shl(0xa0, 0x01), 0x01), 0x00)\n      dup2\n      mstore\n      0x20\n      add\n      0x60\n      dup2\n      mstore\n      0x20\n      add\n      0x60\n      dup2\n      mstore\n      pop\n      swap1\n      jump\t// out\n    tag_46:\n      dataSize(sub_0)\n      dup1\n      dataOffset(sub_0)\n      dup4\n      codecopy\n      add\n      swap1\n      jump\t// out\n    tag_53:\n      dup3\n      dup1\n      sload\n      dup3\n      dup3\n      sstore\n      swap1\n      0x00\n      mstore\n      keccak256(0x00, 0x20)\n      swap1\n      dup2\n      add\n      swap3\n      dup3\n      iszero\n      tag_58\n      jumpi\n      swap2\n      0x20\n      mul\n      dup3\n      add\n    tag_57:\n      dup3\n      dup2\n      gt\n      iszero\n      tag_58\n      jumpi\n      dup3\n      mload\n      dup3\n      sload\n      not(sub(shl(0xa0, 0x01), 0x01))\n      and\n      sub(shl(0xa0, 0x01), 0x01)\n      swap1\n      swap2\n      and\n      or\n      dup3\n      sstore\n      0x20\n      swap1\n      swap3\n      add\n      swap2\n      0x01\n      swap1\n      swap2\n      add\n      swap1\n      jump(tag_57)\n    tag_58:\n      pop\n      tag_59\n      swap3\n      swap2\n      pop\n      tag_60\n      jump\t// in\n    tag_59:\n      pop\n      swap1\n      jump\t// out\n    tag_55:\n      dup3\n      dup1\n      sload\n      0x01\n      dup2\n      0x01\n      and\n      iszero\n      0x0100\n      mul\n      sub\n      and\n      0x02\n      swap1\n      div\n      swap1\n      0x00\n      mstore\n      keccak256(0x00, 0x20)\n      swap1\n      0x1f\n      add\n      0x20\n      swap1\n      div\n      dup2\n      add\n      swap3\n      dup3\n      0x1f\n      lt\n      tag_62\n      jumpi\n      dup1\n      mload\n      not(0xff)\n      and\n      dup4\n      dup1\n      add\n      or\n      dup6\n      sstore\n      jump(tag_64)\n    tag_62:\n      dup3\n      dup1\n      add\n      0x01\n      add\n      dup6\n      sstore\n      dup3\n      iszero\n      tag_64\n      jumpi\n      swap2\n      dup3\n      add\n    tag_63:\n      dup3\n      dup2\n      gt\n      iszero\n      tag_64\n      jumpi\n      dup3\n      mload\n      dup3\n      sstore\n      swap2\n      0x20\n      add\n      swap2\n      swap1\n      0x01\n      add\n      swap1\n      jump(tag_63)\n    tag_64:\n      pop\n      tag_59\n      swap3\n      swap2\n      pop\n      tag_66\n      jump\t// in\n    tag_60:\n      tag_41\n      swap2\n      swap1\n    tag_68:\n      dup1\n      dup3\n      gt\n      iszero\n      tag_59\n      jumpi\n      dup1\n      sload\n      not(sub(shl(0xa0, 0x01), 0x01))\n      and\n      dup2\n      sstore\n      0x01\n      add\n      jump(tag_68)\n    tag_66:\n      tag_41\n      swap2\n      swap1\n    tag_71:\n      dup1\n      dup3\n      gt\n      iszero\n      tag_59\n      jumpi\n      0x00\n      dup2\n      sstore\n      0x01\n      add\n      jump(tag_71)\n    stop\n\n    sub_0: assembly {\n            /* \"MultipleEntity.sol\":49:1834  contract MultipleEntity is Entity {... */\n          mstore(0x40, 0x80)\n            /* \"MultipleEntity.sol\":819:1136  constructor(address[] memory _owners) public {... */\n          callvalue\n            /* \"--CODEGEN--\":5:14   */\n          dup1\n            /* \"--CODEGEN--\":2:4   */\n          iszero\n          tag_1\n          jumpi\n            /* \"--CODEGEN--\":27:28   */\n          0x00\n            /* \"--CODEGEN--\":24:25   */\n          dup1\n            /* \"--CODEGEN--\":17:29   */\n          revert\n            /* \"--CODEGEN--\":2:4   */\n        tag_1:\n            /* \"MultipleEntity.sol\":819:1136  constructor(address[] memory _owners) public {... */\n          pop\n          mload(0x40)\n          sub(codesize, bytecodeSize)\n          dup1\n          bytecodeSize\n          dup4\n          codecopy\n          dup2\n          dup2\n          add\n          0x40\n          mstore\n            /* \"--CODEGEN--\":15:17   */\n          0x20\n            /* \"--CODEGEN--\":10:13   */\n          dup2\n            /* \"--CODEGEN--\":7:18   */\n          lt\n            /* \"--CODEGEN--\":4:6   */\n          iszero\n          tag_2\n          jumpi\n            /* \"--CODEGEN--\":31:32   */\n          0x00\n            /* \"--CODEGEN--\":28:29   */\n          dup1\n            /* \"--CODEGEN--\":21:33   */\n          revert\n            /* \"--CODEGEN--\":4:6   */\n        tag_2:\n            /* \"MultipleEntity.sol\":819:1136  constructor(address[] memory _owners) public {... */\n          dup2\n          add\n          swap1\n          dup1\n          dup1\n          mload\n          mload(0x40)\n          swap4\n          swap3\n          swap2\n          swap1\n          dup5\n            /* \"--CODEGEN--\":19:30   */\n          0x0100000000\n            /* \"--CODEGEN--\":14:17   */\n          dup3\n            /* \"--CODEGEN--\":11:31   */\n          gt\n            /* \"--CODEGEN--\":8:10   */\n          iszero\n          tag_3\n          jumpi\n            /* \"--CODEGEN--\":44:45   */\n          0x00\n            /* \"--CODEGEN--\":41:42   */\n          dup1\n            /* \"--CODEGEN--\":34:46   */\n          revert\n            /* \"--CODEGEN--\":8:10   */\n        tag_3:\n            /* \"--CODEGEN--\":62:83   */\n          swap1\n          dup4\n          add\n          swap1\n            /* \"--CODEGEN--\":123:127   */\n          0x20\n            /* \"--CODEGEN--\":114:128   */\n          dup3\n          add\n            /* \"--CODEGEN--\":138:169   */\n          dup6\n          dup2\n          gt\n            /* \"--CODEGEN--\":135:137   */\n          iszero\n          tag_4\n          jumpi\n            /* \"--CODEGEN--\":182:183   */\n          0x00\n            /* \"--CODEGEN--\":179:180   */\n          dup1\n            /* \"--CODEGEN--\":172:184   */\n          revert\n            /* \"--CODEGEN--\":135:137   */\n        tag_4:\n            /* \"--CODEGEN--\":219:222   */\n          dup3\n            /* \"--CODEGEN--\":213:223   */\n          mload\n            /* \"--CODEGEN--\":331:340   */\n          dup7\n            /* \"--CODEGEN--\":325:327   */\n          0x20\n            /* \"--CODEGEN--\":311:323   */\n          dup3\n            /* \"--CODEGEN--\":307:328   */\n          mul\n            /* \"--CODEGEN--\":289:305   */\n          dup4\n            /* \"--CODEGEN--\":285:329   */\n          add\n            /* \"--CODEGEN--\":282:341   */\n          gt\n            /* \"--CODEGEN--\":261:272   */\n          0x0100000000\n            /* \"--CODEGEN--\":247:259   */\n          dup3\n            /* \"--CODEGEN--\":244:273   */\n          gt\n            /* \"--CODEGEN--\":233:349   */\n          or\n            /* \"--CODEGEN--\":230:232   */\n          iszero\n          tag_5\n          jumpi\n            /* \"--CODEGEN--\":362:363   */\n          0x00\n            /* \"--CODEGEN--\":359:360   */\n          dup1\n            /* \"--CODEGEN--\":352:364   */\n          revert\n            /* \"--CODEGEN--\":230:232   */\n        tag_5:\n            /* \"--CODEGEN--\":373:398   */\n          dup3\n          mstore\n          pop\n            /* \"MultipleEntity.sol\":819:1136  constructor(address[] memory _owners) public {... */\n          dup2\n          mload\n            /* \"--CODEGEN--\":421:425   */\n          0x20\n            /* \"--CODEGEN--\":412:426   */\n          swap2\n          dup3\n          add\n          swap3\n            /* \"MultipleEntity.sol\":819:1136  constructor(address[] memory _owners) public {... */\n          dup3\n          add\n          swap2\n          mul\n          dup1\n            /* \"--CODEGEN--\":412:426   */\n          dup4\n            /* \"MultipleEntity.sol\":819:1136  constructor(address[] memory _owners) public {... */\n          dup4\n            /* \"--CODEGEN--\":23:24   */\n          0x00\n            /* \"--CODEGEN--\":8:108   */\n        tag_6:\n            /* \"--CODEGEN--\":33:36   */\n          dup4\n            /* \"--CODEGEN--\":30:31   */\n          dup2\n            /* \"--CODEGEN--\":27:37   */\n          lt\n            /* \"--CODEGEN--\":8:108   */\n          iszero\n          tag_8\n          jumpi\n            /* \"--CODEGEN--\":90:101   */\n          dup2\n          dup2\n          add\n            /* \"--CODEGEN--\":84:102   */\n          mload\n            /* \"--CODEGEN--\":71:82   */\n          dup4\n          dup3\n          add\n            /* \"--CODEGEN--\":64:103   */\n          mstore\n            /* \"--CODEGEN--\":52:54   */\n          0x20\n            /* \"--CODEGEN--\":45:55   */\n          add\n            /* \"--CODEGEN--\":8:108   */\n          jump(tag_6)\n        tag_8:\n          pop\n          pop\n          pop\n          pop\n            /* \"MultipleEntity.sol\":819:1136  constructor(address[] memory _owners) public {... */\n          swap2\n          swap1\n          swap2\n          add\n          0x40\n          mstore\n          pop\n          pop\n            /* \"MultipleEntity.sol\":885:890  false */\n          0x00\n            /* \"MultipleEntity.sol\":874:890  isSingle = false */\n          dup1\n          sload\n          not(0xff)\n          and\n          dup2\n          sstore\n            /* \"MultipleEntity.sol\":885:890  false */\n          swap2\n          pop\n          pop\n            /* \"MultipleEntity.sol\":909:1121  for(uint32 i=0; i<_owners.length; i++){... */\n        tag_11:\n            /* \"MultipleEntity.sol\":927:934  _owners */\n          dup2\n            /* \"MultipleEntity.sol\":927:941  _owners.length */\n          mload\n            /* \"MultipleEntity.sol\":925:926  i */\n          dup2\n            /* \"MultipleEntity.sol\":925:941  i<_owners.length */\n          0xffffffff\n          and\n          lt\n            /* \"MultipleEntity.sol\":909:1121  for(uint32 i=0; i<_owners.length; i++){... */\n          iszero\n          tag_12\n          jumpi\n            /* \"MultipleEntity.sol\":961:973  Entity check */\n          0x00\n            /* \"MultipleEntity.sol\":983:990  _owners */\n          dup3\n            /* \"MultipleEntity.sol\":991:992  i */\n          dup3\n            /* \"MultipleEntity.sol\":983:993  _owners[i] */\n          0xffffffff\n          and\n          dup2\n          mload\n          dup2\n          lt\n          tag_14\n          jumpi\n          invalid\n        tag_14:\n          0x20\n          mul\n          0x20\n          add\n          add\n          mload\n            /* \"MultipleEntity.sol\":961:994  Entity check = Entity(_owners[i]) */\n          swap1\n          pop\n            /* \"MultipleEntity.sol\":1016:1021  check */\n          dup1\n          0x01\n          dup1\n          0xa0\n          shl\n          sub\n            /* \"MultipleEntity.sol\":1016:1030  check.isEntity */\n          and\n          0x84aeb694\n            /* \"MultipleEntity.sol\":1016:1032  check.isEntity() */\n          mload(0x40)\n          dup2\n          0xffffffff\n          and\n          0xe0\n          shl\n          dup2\n          mstore\n          0x04\n          add\n          0x20\n          mload(0x40)\n          dup1\n          dup4\n          sub\n          dup2\n          dup7\n          dup1\n          extcodesize\n          iszero\n            /* \"--CODEGEN--\":5:14   */\n          dup1\n            /* \"--CODEGEN--\":2:4   */\n          iszero\n          tag_15\n          jumpi\n            /* \"--CODEGEN--\":27:28   */\n          0x00\n            /* \"--CODEGEN--\":24:25   */\n          dup1\n            /* \"--CODEGEN--\":17:29   */\n          revert\n            /* \"--CODEGEN--\":2:4   */\n        tag_15:\n            /* \"MultipleEntity.sol\":1016:1032  check.isEntity() */\n          pop\n          gas\n          staticcall\n          iszero\n            /* \"--CODEGEN--\":8:17   */\n          dup1\n            /* \"--CODEGEN--\":5:7   */\n          iszero\n          tag_17\n          jumpi\n            /* \"--CODEGEN--\":45:61   */\n          returndatasize\n            /* \"--CODEGEN--\":42:43   */\n          0x00\n            /* \"--CODEGEN--\":39:40   */\n          dup1\n            /* \"--CODEGEN--\":24:62   */\n          returndatacopy\n            /* \"--CODEGEN--\":77:93   */\n          returndatasize\n            /* \"--CODEGEN--\":74:75   */\n          0x00\n            /* \"--CODEGEN--\":67:94   */\n          revert\n            /* \"--CODEGEN--\":5:7   */\n        tag_17:\n            /* \"MultipleEntity.sol\":1016:1032  check.isEntity() */\n          pop\n          pop\n          pop\n          pop\n          mload(0x40)\n          returndatasize\n            /* \"--CODEGEN--\":15:17   */\n          0x20\n            /* \"--CODEGEN--\":10:13   */\n          dup2\n            /* \"--CODEGEN--\":7:18   */\n          lt\n            /* \"--CODEGEN--\":4:6   */\n          iszero\n          tag_18\n          jumpi\n            /* \"--CODEGEN--\":31:32   */\n          0x00\n            /* \"--CODEGEN--\":28:29   */\n          dup1\n            /* \"--CODEGEN--\":21:33   */\n          revert\n            /* \"--CODEGEN--\":4:6   */\n        tag_18:\n          pop\n            /* \"MultipleEntity.sol\":1016:1032  check.isEntity() */\n          mload\n            /* \"MultipleEntity.sol\":1008:1033  require(check.isEntity()) */\n          tag_19\n          jumpi\n            /* \"--CODEGEN--\":12:13   */\n          0x00\n            /* \"--CODEGEN--\":9:10   */\n          dup1\n            /* \"--CODEGEN--\":2:14   */\n          revert\n            /* \"MultipleEntity.sol\":1008:1033  require(check.isEntity()) */\n        tag_19:\n            /* \"MultipleEntity.sol\":1069:1073  true */\n          0x01\n            /* \"MultipleEntity.sol\":1047:1054  isOwner */\n          0x0c\n            /* \"MultipleEntity.sol\":1047:1066  isOwner[_owners[i]] */\n          0x00\n            /* \"MultipleEntity.sol\":1055:1062  _owners */\n          dup6\n            /* \"MultipleEntity.sol\":1063:1064  i */\n          dup6\n            /* \"MultipleEntity.sol\":1055:1065  _owners[i] */\n          0xffffffff\n          and\n          dup2\n          mload\n          dup2\n          lt\n          tag_20\n          jumpi\n          invalid\n        tag_20:\n          0x20\n          swap1\n          dup2\n          mul\n          swap2\n          swap1\n          swap2\n          add\n          dup2\n          add\n          mload\n          sub(shl(0xa0, 0x01), 0x01)\n            /* \"MultipleEntity.sol\":1047:1066  isOwner[_owners[i]] */\n          and\n          dup3\n          mstore\n          dup2\n          add\n          swap2\n          swap1\n          swap2\n          mstore\n          0x40\n          add\n          0x00\n          keccak256\n            /* \"MultipleEntity.sol\":1047:1073  isOwner[_owners[i]] = true */\n          dup1\n          sload\n          not(0xff)\n          and\n          swap2\n          iszero\n          iszero\n          swap2\n          swap1\n          swap2\n          or\n          swap1\n          sstore\n            /* \"MultipleEntity.sol\":1099:1109  _owners[i] */\n          dup3\n          mload\n            /* \"MultipleEntity.sol\":1087:1093  owners */\n          0x0d\n          swap1\n            /* \"MultipleEntity.sol\":1099:1109  _owners[i] */\n          dup5\n          swap1\n          0xffffffff\n          dup6\n          and\n          swap1\n          dup2\n          lt\n          tag_21\n          jumpi\n          invalid\n        tag_21:\n          0x20\n          swap1\n          dup2\n          mul\n          swap2\n          swap1\n          swap2\n          add\n          dup2\n          add\n          mload\n            /* \"--CODEGEN--\":27:37   */\n          dup3\n          sload\n            /* \"--CODEGEN--\":39:40   */\n          0x01\n            /* \"--CODEGEN--\":23:41   */\n          dup1\n          dup3\n          add\n            /* \"--CODEGEN--\":45:68   */\n          dup6\n          sstore\n          0x00\n            /* \"MultipleEntity.sol\":1087:1110  owners.push(_owners[i]) */\n          swap5\n          dup6\n          mstore\n          swap3\n          swap1\n          swap4\n          keccak256\n          swap1\n          swap3\n          add\n          dup1\n          sload\n          not(sub(shl(0xa0, 0x01), 0x01))\n          and\n          sub(shl(0xa0, 0x01), 0x01)\n          swap1\n          swap4\n          and\n          swap3\n          swap1\n          swap3\n          or\n          swap1\n          swap2\n          sstore\n            /* \"MultipleEntity.sol\":943:946  i++ */\n          swap2\n          swap1\n          swap2\n          add\n          swap1\n          pop\n            /* \"MultipleEntity.sol\":909:1121  for(uint32 i=0; i<_owners.length; i++){... */\n          jump(tag_11)\n        tag_12:\n          pop\n            /* \"MultipleEntity.sol\":819:1136  constructor(address[] memory _owners) public {... */\n          pop\n            /* \"MultipleEntity.sol\":49:1834  contract MultipleEntity is Entity {... */\n          dataSize(sub_0)\n          dup1\n          dataOffset(sub_0)\n          0x00\n          codecopy\n          0x00\n          return\n        stop\n\n        sub_0: assembly {\n                /* \"MultipleEntity.sol\":49:1834  contract MultipleEntity is Entity {... */\n              mstore(0x40, 0x80)\n              callvalue\n                /* \"--CODEGEN--\":5:14   */\n              dup1\n                /* \"--CODEGEN--\":2:4   */\n              iszero\n              tag_1\n              jumpi\n                /* \"--CODEGEN--\":27:28   */\n              0x00\n                /* \"--CODEGEN--\":24:25   */\n              dup1\n                /* \"--CODEGEN--\":17:29   */\n              revert\n                /* \"--CODEGEN--\":2:4   */\n            tag_1:\n                /* \"MultipleEntity.sol\":49:1834  contract MultipleEntity is Entity {... */\n              pop\n              jumpi(tag_2, lt(calldatasize, 0x04))\n              shr(0xe0, calldataload(0x00))\n              dup1\n              0x84aeb694\n              gt\n              tag_43\n              jumpi\n              dup1\n              0xc09bc35b\n              gt\n              tag_44\n              jumpi\n              dup1\n              0xe29e9290\n              gt\n              tag_45\n              jumpi\n              dup1\n              0xe29e9290\n              eq\n              tag_38\n              jumpi\n              dup1\n              0xe9dff3b4\n              eq\n              tag_39\n              jumpi\n              dup1\n              0xf10f731c\n              eq\n              tag_40\n              jumpi\n              dup1\n              0xf396b51f\n              eq\n              tag_41\n              jumpi\n              dup1\n              0xfc2a8efa\n              eq\n              tag_42\n              jumpi\n              jump(tag_2)\n            tag_45:\n              dup1\n              0xc09bc35b\n              eq\n              tag_33\n              jumpi\n              dup1\n              0xcf6ae528\n              eq\n              tag_34\n              jumpi\n              dup1\n              0xd027a93e\n              eq\n              tag_35\n              jumpi\n              dup1\n              0xdb406597\n              eq\n              tag_36\n              jumpi\n              dup1\n              0xe24e7912\n              eq\n              tag_37\n              jumpi\n              jump(tag_2)\n            tag_44:\n              dup1\n              0x9169b323\n              gt\n              tag_46\n              jumpi\n              dup1\n              0x9169b323\n              eq\n              tag_28\n              jumpi\n              dup1\n              0x928ec3e5\n              eq\n              tag_29\n              jumpi\n              dup1\n              0xa1a298da\n              eq\n              tag_30\n              jumpi\n              dup1\n              0xa63de8cf\n              eq\n              tag_31\n              jumpi\n              dup1\n              0xa7ed5603\n              eq\n              tag_32\n              jumpi\n              jump(tag_2)\n            tag_46:\n              dup1\n              0x84aeb694\n              eq\n              tag_23\n              jumpi\n              dup1\n              0x88a6712f\n              eq\n              tag_24\n              jumpi\n              dup1\n              0x8c162152\n              eq\n              tag_25\n              jumpi\n              dup1\n              0x8cba76b1\n              eq\n              tag_11\n              jumpi\n              dup1\n              0x8e636514\n              eq\n              tag_27\n              jumpi\n              jump(tag_2)\n            tag_43:\n              dup1\n              0x359589ac\n              gt\n              tag_47\n              jumpi\n              dup1\n              0x6eecac58\n              gt\n              tag_48\n              jumpi\n              dup1\n              0x6eecac58\n              eq\n              tag_18\n              jumpi\n              dup1\n              0x7065cb48\n              eq\n              tag_19\n              jumpi\n              dup1\n              0x834fde34\n              eq\n              tag_20\n              jumpi\n              dup1\n              0x838ebd85\n              eq\n              tag_21\n              jumpi\n              dup1\n              0x847b5257\n              eq\n              tag_22\n              jumpi\n              jump(tag_2)\n            tag_48:\n              dup1\n              0x359589ac\n              eq\n              tag_13\n              jumpi\n              dup1\n              0x4d981cf7\n              eq\n              tag_14\n              jumpi\n              dup1\n              0x4f2bcbef\n              eq\n              tag_15\n              jumpi\n              dup1\n              0x4f51433d\n              eq\n              tag_16\n              jumpi\n              dup1\n              0x6b31c5f1\n              eq\n              tag_17\n              jumpi\n              jump(tag_2)\n            tag_47:\n              dup1\n              0x24f416d6\n              gt\n              tag_49\n              jumpi\n              dup1\n              0x24f416d6\n              eq\n              tag_8\n              jumpi\n              dup1\n              0x2a4541d4\n              eq\n              tag_9\n              jumpi\n              dup1\n              0x2f54bf6e\n              eq\n              tag_10\n              jumpi\n              dup1\n              0x30699892\n              eq\n              tag_11\n              jumpi\n              dup1\n              0x3296e5ca\n              eq\n              tag_12\n              jumpi\n              jump(tag_2)\n            tag_49:\n              dup1\n              0x025e7c27\n              eq\n              tag_3\n              jumpi\n              dup1\n              0x08ac733a\n              eq\n              tag_4\n              jumpi\n              dup1\n              0x0f121925\n              eq\n              tag_5\n              jumpi\n              dup1\n              0x17361084\n              eq\n              tag_6\n              jumpi\n              dup1\n              0x173825d9\n              eq\n              tag_7\n              jumpi\n            tag_2:\n                /* \"--CODEGEN--\":12:13   */\n              0x00\n                /* \"--CODEGEN--\":9:10   */\n              dup1\n                /* \"--CODEGEN--\":2:14   */\n              revert\n                /* \"MultipleEntity.sol\":132:155  address[] public owners */\n            tag_3:\n              tag_50\n              0x04\n              dup1\n              calldatasize\n              sub\n                /* \"--CODEGEN--\":15:17   */\n              0x20\n                /* \"--CODEGEN--\":10:13   */\n              dup2\n                /* \"--CODEGEN--\":7:18   */\n              lt\n                /* \"--CODEGEN--\":4:6   */\n              iszero\n              tag_51\n              jumpi\n                /* \"--CODEGEN--\":31:32   */\n              0x00\n                /* \"--CODEGEN--\":28:29   */\n              dup1\n                /* \"--CODEGEN--\":21:33   */\n              revert\n                /* \"--CODEGEN--\":4:6   */\n            tag_51:\n              pop\n                /* \"MultipleEntity.sol\":132:155  address[] public owners */\n              calldataload\n              tag_52\n              jump\t// in\n            tag_50:\n              0x40\n              dup1\n              mload\n              0x01\n              dup1\n              0xa0\n              shl\n              sub\n              swap1\n              swap3\n              and\n              dup3\n              mstore\n              mload\n              swap1\n              dup2\n              swap1\n              sub\n              0x20\n              add\n              swap1\n              return\n                /* \"Entity.sol\":9461:9622  function keysOfData(address src, string memory des)... */\n            tag_4:\n              tag_53\n              0x04\n              dup1\n              calldatasize\n              sub\n                /* \"--CODEGEN--\":15:17   */\n              0x40\n                /* \"--CODEGEN--\":10:13   */\n              dup2\n                /* \"--CODEGEN--\":7:18   */\n              lt\n                /* \"--CODEGEN--\":4:6   */\n              iszero\n              tag_54\n              jumpi\n                /* \"--CODEGEN--\":31:32   */\n              0x00\n                /* \"--CODEGEN--\":28:29   */\n              dup1\n                /* \"--CODEGEN--\":21:33   */\n              revert\n                /* \"--CODEGEN--\":4:6   */\n            tag_54:\n                /* \"Entity.sol\":9461:9622  function keysOfData(address src, string memory des)... */\n              dup2\n              calldataload\n              sub(shl(0xa0, 0x01), 0x01)\n              and\n              swap2\n              swap1\n              dup2\n              add\n              swap1\n              0x40\n              dup2\n              add\n              0x20\n              dup3\n              add\n              calldataload\n              shl(0x20, 0x01)\n                /* \"--CODEGEN--\":11:39   */\n              dup2\n              gt\n                /* \"--CODEGEN--\":8:10   */\n              iszero\n              tag_55\n              jumpi\n                /* \"--CODEGEN--\":52:53   */\n              0x00\n                /* \"--CODEGEN--\":49:50   */\n              dup1\n                /* \"--CODEGEN--\":42:54   */\n              revert\n                /* \"--CODEGEN--\":8:10   */\n            tag_55:\n                /* \"Entity.sol\":9461:9622  function keysOfData(address src, string memory des)... */\n              dup3\n              add\n                /* \"--CODEGEN--\":41:50   */\n              dup4\n                /* \"--CODEGEN--\":34:38   */\n              0x20\n                /* \"--CODEGEN--\":18:32   */\n              dup3\n                /* \"--CODEGEN--\":14:39   */\n              add\n                /* \"--CODEGEN--\":11:51   */\n              gt\n                /* \"--CODEGEN--\":8:10   */\n              iszero\n              tag_56\n              jumpi\n                /* \"--CODEGEN--\":64:65   */\n              0x00\n                /* \"--CODEGEN--\":61:62   */\n              dup1\n                /* \"--CODEGEN--\":54:66   */\n              revert\n                /* \"--CODEGEN--\":8:10   */\n            tag_56:\n                /* \"Entity.sol\":9461:9622  function keysOfData(address src, string memory des)... */\n              dup1\n              calldataload\n              swap1\n              0x20\n              add\n              swap2\n                /* \"--CODEGEN--\":100:109   */\n              dup5\n                /* \"--CODEGEN--\":95:96   */\n              0x01\n                /* \"--CODEGEN--\":81:93   */\n              dup4\n                /* \"--CODEGEN--\":77:97   */\n              mul\n                /* \"--CODEGEN--\":67:75   */\n              dup5\n                /* \"--CODEGEN--\":63:98   */\n              add\n                /* \"--CODEGEN--\":60:110   */\n              gt\n              shl(0x20, 0x01)\n                /* \"--CODEGEN--\":25:37   */\n              dup4\n                /* \"--CODEGEN--\":22:51   */\n              gt\n                /* \"--CODEGEN--\":11:118   */\n              or\n                /* \"--CODEGEN--\":8:10   */\n              iszero\n              tag_57\n              jumpi\n                /* \"--CODEGEN--\":131:132   */\n              0x00\n                /* \"--CODEGEN--\":128:129   */\n              dup1\n                /* \"--CODEGEN--\":121:133   */\n              revert\n                /* \"--CODEGEN--\":8:10   */\n            tag_57:\n                /* \"Entity.sol\":9461:9622  function keysOfData(address src, string memory des)... */\n              swap2\n              swap1\n              dup1\n              dup1\n              0x1f\n              add\n              0x20\n              dup1\n              swap2\n              div\n              mul\n              0x20\n              add\n              mload(0x40)\n              swap1\n              dup2\n              add\n              0x40\n              mstore\n              dup1\n              swap4\n              swap3\n              swap2\n              swap1\n              dup2\n              dup2\n              mstore\n              0x20\n              add\n              dup4\n              dup4\n                /* \"--CODEGEN--\":30:33   */\n              dup1\n                /* \"--CODEGEN--\":22:28   */\n              dup3\n                /* \"--CODEGEN--\":14:20   */\n              dup5\n                /* \"--CODEGEN--\":1:34   */\n              calldatacopy\n                /* \"--CODEGEN--\":99:100   */\n              0x00\n                /* \"--CODEGEN--\":81:97   */\n              swap3\n              add\n                /* \"--CODEGEN--\":74:101   */\n              swap2\n              swap1\n              swap2\n              mstore\n              pop\n                /* \"Entity.sol\":9461:9622  function keysOfData(address src, string memory des)... */\n              swap3\n              swap6\n              pop\n              tag_58\n              swap5\n              pop\n              pop\n              pop\n              pop\n              pop\n              jump\t// in\n            tag_53:\n              0x40\n              dup1\n              mload\n              0x20\n              dup1\n              dup3\n              mstore\n              dup4\n              mload\n              dup2\n              dup4\n              add\n              mstore\n              dup4\n              mload\n              swap2\n              swap3\n              dup4\n              swap3\n              swap1\n              dup4\n              add\n              swap2\n              dup6\n              add\n              swap1\n              dup1\n              dup4\n              dup4\n              0x00\n                /* \"--CODEGEN--\":8:108   */\n            tag_59:\n                /* \"--CODEGEN--\":33:36   */\n              dup4\n                /* \"--CODEGEN--\":30:31   */\n              dup2\n                /* \"--CODEGEN--\":27:37   */\n              lt\n                /* \"--CODEGEN--\":8:108   */\n              iszero\n              tag_61\n              jumpi\n                /* \"--CODEGEN--\":90:101   */\n              dup2\n              dup2\n              add\n                /* \"--CODEGEN--\":84:102   */\n              mload\n                /* \"--CODEGEN--\":71:82   */\n              dup4\n              dup3\n              add\n                /* \"--CODEGEN--\":64:103   */\n              mstore\n                /* \"--CODEGEN--\":52:54   */\n              0x20\n                /* \"--CODEGEN--\":45:55   */\n              add\n                /* \"--CODEGEN--\":8:108   */\n              jump(tag_59)\n            tag_61:\n                /* \"--CODEGEN--\":12:26   */\n              pop\n                /* \"Entity.sol\":9461:9622  function keysOfData(address src, string memory des)... */\n              pop\n              pop\n              pop\n              swap1\n              pop\n              swap1\n              dup2\n              add\n              swap1\n              0x1f\n              and\n              dup1\n              iszero\n              tag_62\n              jumpi\n              dup1\n              dup3\n              sub\n              dup1\n              mload\n              0x01\n              dup4\n              0x20\n              sub\n              0x0100\n              exp\n              sub\n              not\n              and\n              dup2\n              mstore\n              0x20\n              add\n              swap2\n              pop\n            tag_62:\n              pop\n              swap3\n              pop\n              pop\n              pop\n              mload(0x40)\n              dup1\n              swap2\n              sub\n              swap1\n              return\n                /* \"Entity.sol\":8644:8894  function keyValueOfDataToSend(uint32 index, uint32 keyIndex) ... */\n            tag_5:\n              tag_63\n              0x04\n              dup1\n              calldatasize\n              sub\n                /* \"--CODEGEN--\":15:17   */\n              0x40\n                /* \"--CODEGEN--\":10:13   */\n              dup2\n                /* \"--CODEGEN--\":7:18   */\n              lt\n                /* \"--CODEGEN--\":4:6   */\n              iszero\n              tag_64\n              jumpi\n                /* \"--CODEGEN--\":31:32   */\n              0x00\n                /* \"--CODEGEN--\":28:29   */\n              dup1\n                /* \"--CODEGEN--\":21:33   */\n              revert\n                /* \"--CODEGEN--\":4:6   */\n            tag_64:\n              pop\n                /* \"Entity.sol\":8644:8894  function keyValueOfDataToSend(uint32 index, uint32 keyIndex) ... */\n              0xffffffff\n              dup2\n              calldataload\n              dup2\n              and\n              swap2\n              0x20\n              add\n              calldataload\n              and\n              tag_65\n              jump\t// in\n            tag_63:\n              mload(0x40)\n              dup1\n              dup1\n              0x20\n              add\n              dup1\n              0x20\n              add\n              dup4\n              dup2\n              sub\n              dup4\n              mstore\n              dup6\n              dup2\n              dup2\n              mload\n              dup2\n              mstore\n              0x20\n              add\n              swap2\n              pop\n              dup1\n              mload\n              swap1\n              0x20\n              add\n              swap1\n              dup1\n              dup4\n              dup4\n                /* \"--CODEGEN--\":23:24   */\n              0x00\n                /* \"--CODEGEN--\":8:108   */\n            tag_66:\n                /* \"--CODEGEN--\":33:36   */\n              dup4\n                /* \"--CODEGEN--\":30:31   */\n              dup2\n                /* \"--CODEGEN--\":27:37   */\n              lt\n                /* \"--CODEGEN--\":8:108   */\n              iszero\n              tag_68\n              jumpi\n                /* \"--CODEGEN--\":90:101   */\n              dup2\n              dup2\n              add\n                /* \"--CODEGEN--\":84:102   */\n              mload\n                /* \"--CODEGEN--\":71:82   */\n              dup4\n              dup3\n              add\n                /* \"--CODEGEN--\":64:103   */\n              mstore\n                /* \"--CODEGEN--\":52:54   */\n              0x20\n                /* \"--CODEGEN--\":45:55   */\n              add\n                /* \"--CODEGEN--\":8:108   */\n              jump(tag_66)\n            tag_68:\n                /* \"--CODEGEN--\":12:26   */\n              pop\n                /* \"Entity.sol\":8644:8894  function keyValueOfDataToSend(uint32 index, uint32 keyIndex) ... */\n              pop\n              pop\n              pop\n              swap1\n              pop\n              swap1\n              dup2\n              add\n              swap1\n              0x1f\n              and\n              dup1\n              iszero\n              tag_69\n              jumpi\n              dup1\n              dup3\n              sub\n              dup1\n              mload\n              0x01\n              dup4\n              0x20\n              sub\n              0x0100\n              exp\n              sub\n              not\n              and\n              dup2\n              mstore\n              0x20\n              add\n              swap2\n              pop\n            tag_69:\n              pop\n              dup4\n              dup2\n              sub\n              dup3\n              mstore\n              dup5\n              mload\n              dup2\n              mstore\n              dup5\n              mload\n              0x20\n              swap2\n              dup3\n              add\n              swap2\n              dup7\n              add\n              swap1\n              dup1\n              dup4\n              dup4\n                /* \"--CODEGEN--\":23:24   */\n              0x00\n                /* \"--CODEGEN--\":8:108   */\n            tag_70:\n                /* \"--CODEGEN--\":33:36   */\n              dup4\n                /* \"--CODEGEN--\":30:31   */\n              dup2\n                /* \"--CODEGEN--\":27:37   */\n              lt\n                /* \"--CODEGEN--\":8:108   */\n              iszero\n              tag_72\n              jumpi\n                /* \"--CODEGEN--\":90:101   */\n              dup2\n              dup2\n              add\n                /* \"--CODEGEN--\":84:102   */\n              mload\n                /* \"--CODEGEN--\":71:82   */\n              dup4\n              dup3\n              add\n                /* \"--CODEGEN--\":64:103   */\n              mstore\n                /* \"--CODEGEN--\":52:54   */\n              0x20\n                /* \"--CODEGEN--\":45:55   */\n              add\n                /* \"--CODEGEN--\":8:108   */\n              jump(tag_70)\n            tag_72:\n                /* \"--CODEGEN--\":12:26   */\n              pop\n                /* \"Entity.sol\":8644:8894  function keyValueOfDataToSend(uint32 index, uint32 keyIndex) ... */\n              pop\n              pop\n              pop\n              swap1\n              pop\n              swap1\n              dup2\n              add\n              swap1\n              0x1f\n              and\n              dup1\n              iszero\n              tag_73\n              jumpi\n              dup1\n              dup3\n              sub\n              dup1\n              mload\n              0x01\n              dup4\n              0x20\n              sub\n              0x0100\n              exp\n              sub\n              not\n              and\n              dup2\n              mstore\n              0x20\n              add\n              swap2\n              pop\n            tag_73:\n              pop\n              swap5\n              pop\n              pop\n              pop\n              pop\n              pop\n              mload(0x40)\n              dup1\n              swap2\n              sub\n              swap1\n              return\n                /* \"Entity.sol\":814:875  mapping(address=>mapping(string=>storingData)) public Storage */\n            tag_6:\n              tag_53\n              0x04\n              dup1\n              calldatasize\n              sub\n                /* \"--CODEGEN--\":15:17   */\n              0x40\n                /* \"--CODEGEN--\":10:13   */\n              dup2\n                /* \"--CODEGEN--\":7:18   */\n              lt\n                /* \"--CODEGEN--\":4:6   */\n              iszero\n              tag_75\n              jumpi\n                /* \"--CODEGEN--\":31:32   */\n              0x00\n                /* \"--CODEGEN--\":28:29   */\n              dup1\n                /* \"--CODEGEN--\":21:33   */\n              revert\n                /* \"--CODEGEN--\":4:6   */\n            tag_75:\n                /* \"Entity.sol\":814:875  mapping(address=>mapping(string=>storingData)) public Storage */\n              dup2\n              calldataload\n              sub(shl(0xa0, 0x01), 0x01)\n              and\n              swap2\n              swap1\n              dup2\n              add\n              swap1\n              0x40\n              dup2\n              add\n              0x20\n              dup3\n              add\n              calldataload\n              shl(0x20, 0x01)\n                /* \"--CODEGEN--\":11:39   */\n              dup2\n              gt\n                /* \"--CODEGEN--\":8:10   */\n              iszero\n              tag_76\n              jumpi\n                /* \"--CODEGEN--\":52:53   */\n              0x00\n                /* \"--CODEGEN--\":49:50   */\n              dup1\n                /* \"--CODEGEN--\":42:54   */\n              revert\n                /* \"--CODEGEN--\":8:10   */\n            tag_76:\n                /* \"Entity.sol\":814:875  mapping(address=>mapping(string=>storingData)) public Storage */\n              dup3\n              add\n                /* \"--CODEGEN--\":41:50   */\n              dup4\n                /* \"--CODEGEN--\":34:38   */\n              0x20\n                /* \"--CODEGEN--\":18:32   */\n              dup3\n                /* \"--CODEGEN--\":14:39   */\n              add\n                /* \"--CODEGEN--\":11:51   */\n              gt\n                /* \"--CODEGEN--\":8:10   */\n              iszero\n              tag_77\n              jumpi\n                /* \"--CODEGEN--\":64:65   */\n              0x00\n                /* \"--CODEGEN--\":61:62   */\n              dup1\n                /* \"--CODEGEN--\":54:66   */\n              revert\n                /* \"--CODEGEN--\":8:10   */\n            tag_77:\n                /* \"Entity.sol\":814:875  mapping(address=>mapping(string=>storingData)) public Storage */\n              dup1\n              calldataload\n              swap1\n              0x20\n              add\n              swap2\n                /* \"--CODEGEN--\":100:109   */\n              dup5\n                /* \"--CODEGEN--\":95:96   */\n              0x01\n                /* \"--CODEGEN--\":81:93   */\n              dup4\n                /* \"--CODEGEN--\":77:97   */\n              mul\n                /* \"--CODEGEN--\":67:75   */\n              dup5\n                /* \"--CODEGEN--\":63:98   */\n              add\n                /* \"--CODEGEN--\":60:110   */\n              gt\n              shl(0x20, 0x01)\n                /* \"--CODEGEN--\":25:37   */\n              dup4\n                /* \"--CODEGEN--\":22:51   */\n              gt\n                /* \"--CODEGEN--\":11:118   */\n              or\n                /* \"--CODEGEN--\":8:10   */\n              iszero\n              tag_78\n              jumpi\n                /* \"--CODEGEN--\":131:132   */\n              0x00\n                /* \"--CODEGEN--\":128:129   */\n              dup1\n                /* \"--CODEGEN--\":121:133   */\n              revert\n                /* \"--CODEGEN--\":8:10   */\n            tag_78:\n                /* \"Entity.sol\":814:875  mapping(address=>mapping(string=>storingData)) public Storage */\n              swap2\n              swap1\n              dup1\n              dup1\n              0x1f\n              add\n              0x20\n              dup1\n              swap2\n              div\n              mul\n              0x20\n              add\n              mload(0x40)\n              swap1\n              dup2\n              add\n              0x40\n              mstore\n              dup1\n              swap4\n              swap3\n              swap2\n              swap1\n              dup2\n              dup2\n              mstore\n              0x20\n              add\n              dup4\n              dup4\n                /* \"--CODEGEN--\":30:33   */\n              dup1\n                /* \"--CODEGEN--\":22:28   */\n              dup3\n                /* \"--CODEGEN--\":14:20   */\n              dup5\n                /* \"--CODEGEN--\":1:34   */\n              calldatacopy\n                /* \"--CODEGEN--\":99:100   */\n              0x00\n                /* \"--CODEGEN--\":81:97   */\n              swap3\n              add\n                /* \"--CODEGEN--\":74:101   */\n              swap2\n              swap1\n              swap2\n              mstore\n              pop\n                /* \"Entity.sol\":814:875  mapping(address=>mapping(string=>storingData)) public Storage */\n              swap3\n              swap6\n              pop\n              tag_79\n              swap5\n              pop\n              pop\n              pop\n              pop\n              pop\n              jump\t// in\n                /* \"MultipleEntity.sol\":1442:1827  function removeOwner(address owner)... */\n            tag_7:\n              tag_84\n              0x04\n              dup1\n              calldatasize\n              sub\n                /* \"--CODEGEN--\":15:17   */\n              0x20\n                /* \"--CODEGEN--\":10:13   */\n              dup2\n                /* \"--CODEGEN--\":7:18   */\n              lt\n                /* \"--CODEGEN--\":4:6   */\n              iszero\n              tag_85\n              jumpi\n                /* \"--CODEGEN--\":31:32   */\n              0x00\n                /* \"--CODEGEN--\":28:29   */\n              dup1\n                /* \"--CODEGEN--\":21:33   */\n              revert\n                /* \"--CODEGEN--\":4:6   */\n            tag_85:\n              pop\n                /* \"MultipleEntity.sol\":1442:1827  function removeOwner(address owner)... */\n              calldataload\n              sub(shl(0xa0, 0x01), 0x01)\n              and\n              tag_86\n              jump\t// in\n            tag_84:\n              stop\n                /* \"Entity.sol\":881:942  mapping(address=>mapping(string=>string)) public MarkupsOwner */\n            tag_8:\n              tag_53\n              0x04\n              dup1\n              calldatasize\n              sub\n                /* \"--CODEGEN--\":15:17   */\n              0x40\n                /* \"--CODEGEN--\":10:13   */\n              dup2\n                /* \"--CODEGEN--\":7:18   */\n              lt\n                /* \"--CODEGEN--\":4:6   */\n              iszero\n              tag_88\n              jumpi\n                /* \"--CODEGEN--\":31:32   */\n              0x00\n                /* \"--CODEGEN--\":28:29   */\n              dup1\n                /* \"--CODEGEN--\":21:33   */\n              revert\n                /* \"--CODEGEN--\":4:6   */\n            tag_88:\n                /* \"Entity.sol\":881:942  mapping(address=>mapping(string=>string)) public MarkupsOwner */\n              dup2\n              calldataload\n              sub(shl(0xa0, 0x01), 0x01)\n              and\n              swap2\n              swap1\n              dup2\n              add\n              swap1\n              0x40\n              dup2\n              add\n              0x20\n              dup3\n              add\n              calldataload\n              shl(0x20, 0x01)\n                /* \"--CODEGEN--\":11:39   */\n              dup2\n              gt\n                /* \"--CODEGEN--\":8:10   */\n              iszero\n              tag_89\n              jumpi\n                /* \"--CODEGEN--\":52:53   */\n              0x00\n                /* \"--CODEGEN--\":49:50   */\n              dup1\n                /* \"--CODEGEN--\":42:54   */\n              revert\n                /* \"--CODEGEN--\":8:10   */\n            tag_89:\n                /* \"Entity.sol\":881:942  mapping(address=>mapping(string=>string)) public MarkupsOwner */\n              dup3\n              add\n                /* \"--CODEGEN--\":41:50   */\n              dup4\n                /* \"--CODEGEN--\":34:38   */\n              0x20\n                /* \"--CODEGEN--\":18:32   */\n              dup3\n                /* \"--CODEGEN--\":14:39   */\n              add\n                /* \"--CODEGEN--\":11:51   */\n              gt\n                /* \"--CODEGEN--\":8:10   */\n              iszero\n              tag_90\n              jumpi\n                /* \"--CODEGEN--\":64:65   */\n              0x00\n                /* \"--CODEGEN--\":61:62   */\n              dup1\n                /* \"--CODEGEN--\":54:66   */\n              revert\n                /* \"--CODEGEN--\":8:10   */\n            tag_90:\n                /* \"Entity.sol\":881:942  mapping(address=>mapping(string=>string)) public MarkupsOwner */\n              dup1\n              calldataload\n              swap1\n              0x20\n              add\n              swap2\n                /* \"--CODEGEN--\":100:109   */\n              dup5\n                /* \"--CODEGEN--\":95:96   */\n              0x01\n                /* \"--CODEGEN--\":81:93   */\n              dup4\n                /* \"--CODEGEN--\":77:97   */\n              mul\n                /* \"--CODEGEN--\":67:75   */\n              dup5\n                /* \"--CODEGEN--\":63:98   */\n              add\n                /* \"--CODEGEN--\":60:110   */\n              gt\n              shl(0x20, 0x01)\n                /* \"--CODEGEN--\":25:37   */\n              dup4\n                /* \"--CODEGEN--\":22:51   */\n              gt\n                /* \"--CODEGEN--\":11:118   */\n              or\n                /* \"--CODEGEN--\":8:10   */\n              iszero\n              tag_91\n              jumpi\n                /* \"--CODEGEN--\":131:132   */\n              0x00\n                /* \"--CODEGEN--\":128:129   */\n              dup1\n                /* \"--CODEGEN--\":121:133   */\n              revert\n                /* \"--CODEGEN--\":8:10   */\n            tag_91:\n                /* \"Entity.sol\":881:942  mapping(address=>mapping(string=>string)) public MarkupsOwner */\n              swap2\n              swap1\n              dup1\n              dup1\n              0x1f\n              add\n              0x20\n              dup1\n              swap2\n              div\n              mul\n              0x20\n              add\n              mload(0x40)\n              swap1\n              dup2\n              add\n              0x40\n              mstore\n              dup1\n              swap4\n              swap3\n              swap2\n              swap1\n              dup2\n              dup2\n              mstore\n              0x20\n              add\n              dup4\n              dup4\n                /* \"--CODEGEN--\":30:33   */\n              dup1\n                /* \"--CODEGEN--\":22:28   */\n              dup3\n                /* \"--CODEGEN--\":14:20   */\n              dup5\n                /* \"--CODEGEN--\":1:34   */\n              calldatacopy\n                /* \"--CODEGEN--\":99:100   */\n              0x00\n                /* \"--CODEGEN--\":81:97   */\n              swap3\n              add\n                /* \"--CODEGEN--\":74:101   */\n              swap2\n              swap1\n              swap2\n              mstore\n              pop\n                /* \"Entity.sol\":881:942  mapping(address=>mapping(string=>string)) public MarkupsOwner */\n              swap3\n              swap6\n              pop\n              tag_92\n              swap5\n              pop\n              pop\n              pop\n              pop\n              pop\n              jump\t// in\n                /* \"Entity.sol\":6690:7046  function newDataMultipleToSend(address multipleEntity, address _receiver, ... */\n            tag_9:\n              tag_97\n              0x04\n              dup1\n              calldatasize\n              sub\n                /* \"--CODEGEN--\":15:18   */\n              0xc0\n                /* \"--CODEGEN--\":10:13   */\n              dup2\n                /* \"--CODEGEN--\":7:19   */\n              lt\n                /* \"--CODEGEN--\":4:6   */\n              iszero\n              tag_98\n              jumpi\n                /* \"--CODEGEN--\":32:33   */\n              0x00\n                /* \"--CODEGEN--\":29:30   */\n              dup1\n                /* \"--CODEGEN--\":22:34   */\n              revert\n                /* \"--CODEGEN--\":4:6   */\n            tag_98:\n              sub(shl(0xa0, 0x01), 0x01)\n                /* \"Entity.sol\":6690:7046  function newDataMultipleToSend(address multipleEntity, address _receiver, ... */\n              dup3\n              calldataload\n              dup2\n              and\n              swap3\n              0x20\n              dup2\n              add\n              calldataload\n              swap1\n              swap2\n              and\n              swap2\n              dup2\n              add\n              swap1\n              0x60\n              dup2\n              add\n              0x40\n              dup3\n              add\n              calldataload\n              shl(0x20, 0x01)\n                /* \"--CODEGEN--\":11:39   */\n              dup2\n              gt\n                /* \"--CODEGEN--\":8:10   */\n              iszero\n              tag_99\n              jumpi\n                /* \"--CODEGEN--\":52:53   */\n              0x00\n                /* \"--CODEGEN--\":49:50   */\n              dup1\n                /* \"--CODEGEN--\":42:54   */\n              revert\n                /* \"--CODEGEN--\":8:10   */\n            tag_99:\n                /* \"Entity.sol\":6690:7046  function newDataMultipleToSend(address multipleEntity, address _receiver, ... */\n              dup3\n              add\n                /* \"--CODEGEN--\":41:50   */\n              dup4\n                /* \"--CODEGEN--\":34:38   */\n              0x20\n                /* \"--CODEGEN--\":18:32   */\n              dup3\n                /* \"--CODEGEN--\":14:39   */\n              add\n                /* \"--CODEGEN--\":11:51   */\n              gt\n                /* \"--CODEGEN--\":8:10   */\n              iszero\n              tag_100\n              jumpi\n                /* \"--CODEGEN--\":64:65   */\n              0x00\n                /* \"--CODEGEN--\":61:62   */\n              dup1\n                /* \"--CODEGEN--\":54:66   */\n              revert\n                /* \"--CODEGEN--\":8:10   */\n            tag_100:\n                /* \"Entity.sol\":6690:7046  function newDataMultipleToSend(address multipleEntity, address _receiver, ... */\n              dup1\n              calldataload\n              swap1\n              0x20\n              add\n              swap2\n                /* \"--CODEGEN--\":100:109   */\n              dup5\n                /* \"--CODEGEN--\":95:96   */\n              0x01\n                /* \"--CODEGEN--\":81:93   */\n              dup4\n                /* \"--CODEGEN--\":77:97   */\n              mul\n                /* \"--CODEGEN--\":67:75   */\n              dup5\n                /* \"--CODEGEN--\":63:98   */\n              add\n                /* \"--CODEGEN--\":60:110   */\n              gt\n              shl(0x20, 0x01)\n                /* \"--CODEGEN--\":25:37   */\n              dup4\n                /* \"--CODEGEN--\":22:51   */\n              gt\n                /* \"--CODEGEN--\":11:118   */\n              or\n                /* \"--CODEGEN--\":8:10   */\n              iszero\n              tag_101\n              jumpi\n                /* \"--CODEGEN--\":131:132   */\n              0x00\n                /* \"--CODEGEN--\":128:129   */\n              dup1\n                /* \"--CODEGEN--\":121:133   */\n              revert\n                /* \"--CODEGEN--\":8:10   */\n            tag_101:\n                /* \"Entity.sol\":6690:7046  function newDataMultipleToSend(address multipleEntity, address _receiver, ... */\n              swap2\n              swap1\n              dup1\n              dup1\n              0x1f\n              add\n              0x20\n              dup1\n              swap2\n              div\n              mul\n              0x20\n              add\n              mload(0x40)\n              swap1\n              dup2\n              add\n              0x40\n              mstore\n              dup1\n              swap4\n              swap3\n              swap2\n              swap1\n              dup2\n              dup2\n              mstore\n              0x20\n              add\n              dup4\n              dup4\n                /* \"--CODEGEN--\":30:33   */\n              dup1\n                /* \"--CODEGEN--\":22:28   */\n              dup3\n                /* \"--CODEGEN--\":14:20   */\n              dup5\n                /* \"--CODEGEN--\":1:34   */\n              calldatacopy\n                /* \"--CODEGEN--\":99:100   */\n              0x00\n                /* \"--CODEGEN--\":81:97   */\n              swap3\n              add\n                /* \"--CODEGEN--\":74:101   */\n              swap2\n              swap1\n              swap2\n              mstore\n              pop\n                /* \"Entity.sol\":6690:7046  function newDataMultipleToSend(address multipleEntity, address _receiver, ... */\n              swap3\n              swap6\n              swap5\n              swap4\n              0x20\n              dup2\n              add\n              swap4\n              pop\n              calldataload\n              swap2\n              pop\n              pop\n              shl(0x20, 0x01)\n                /* \"--CODEGEN--\":11:39   */\n              dup2\n              gt\n                /* \"--CODEGEN--\":8:10   */\n              iszero\n              tag_102\n              jumpi\n                /* \"--CODEGEN--\":52:53   */\n              0x00\n                /* \"--CODEGEN--\":49:50   */\n              dup1\n                /* \"--CODEGEN--\":42:54   */\n              revert\n                /* \"--CODEGEN--\":8:10   */\n            tag_102:\n                /* \"Entity.sol\":6690:7046  function newDataMultipleToSend(address multipleEntity, address _receiver, ... */\n              dup3\n              add\n                /* \"--CODEGEN--\":41:50   */\n              dup4\n                /* \"--CODEGEN--\":34:38   */\n              0x20\n                /* \"--CODEGEN--\":18:32   */\n              dup3\n                /* \"--CODEGEN--\":14:39   */\n              add\n                /* \"--CODEGEN--\":11:51   */\n              gt\n                /* \"--CODEGEN--\":8:10   */\n              iszero\n              tag_103\n              jumpi\n                /* \"--CODEGEN--\":64:65   */\n              0x00\n                /* \"--CODEGEN--\":61:62   */\n              dup1\n                /* \"--CODEGEN--\":54:66   */\n              revert\n                /* \"--CODEGEN--\":8:10   */\n            tag_103:\n                /* \"Entity.sol\":6690:7046  function newDataMultipleToSend(address multipleEntity, address _receiver, ... */\n              dup1\n              calldataload\n              swap1\n              0x20\n              add\n              swap2\n                /* \"--CODEGEN--\":100:109   */\n              dup5\n                /* \"--CODEGEN--\":95:96   */\n              0x01\n                /* \"--CODEGEN--\":81:93   */\n              dup4\n                /* \"--CODEGEN--\":77:97   */\n              mul\n                /* \"--CODEGEN--\":67:75   */\n              dup5\n                /* \"--CODEGEN--\":63:98   */\n              add\n                /* \"--CODEGEN--\":60:110   */\n              gt\n              shl(0x20, 0x01)\n                /* \"--CODEGEN--\":25:37   */\n              dup4\n                /* \"--CODEGEN--\":22:51   */\n              gt\n                /* \"--CODEGEN--\":11:118   */\n              or\n                /* \"--CODEGEN--\":8:10   */\n              iszero\n              tag_104\n              jumpi\n                /* \"--CODEGEN--\":131:132   */\n              0x00\n                /* \"--CODEGEN--\":128:129   */\n              dup1\n                /* \"--CODEGEN--\":121:133   */\n              revert\n                /* \"--CODEGEN--\":8:10   */\n            tag_104:\n                /* \"Entity.sol\":6690:7046  function newDataMultipleToSend(address multipleEntity, address _receiver, ... */\n              swap2\n              swap1\n              dup1\n              dup1\n              0x1f\n              add\n              0x20\n              dup1\n              swap2\n              div\n              mul\n              0x20\n              add\n              mload(0x40)\n              swap1\n              dup2\n              add\n              0x40\n              mstore\n              dup1\n              swap4\n              swap3\n              swap2\n              swap1\n              dup2\n              dup2\n              mstore\n              0x20\n              add\n              dup4\n              dup4\n                /* \"--CODEGEN--\":30:33   */\n              dup1\n                /* \"--CODEGEN--\":22:28   */\n              dup3\n                /* \"--CODEGEN--\":14:20   */\n              dup5\n                /* \"--CODEGEN--\":1:34   */\n              calldatacopy\n                /* \"--CODEGEN--\":99:100   */\n              0x00\n                /* \"--CODEGEN--\":81:97   */\n              swap3\n              add\n                /* \"--CODEGEN--\":74:101   */\n              swap2\n              swap1\n              swap2\n              mstore\n              pop\n                /* \"Entity.sol\":6690:7046  function newDataMultipleToSend(address multipleEntity, address _receiver, ... */\n              swap3\n              swap6\n              swap5\n              swap4\n              0x20\n              dup2\n              add\n              swap4\n              pop\n              calldataload\n              swap2\n              pop\n              pop\n              shl(0x20, 0x01)\n                /* \"--CODEGEN--\":11:39   */\n              dup2\n              gt\n                /* \"--CODEGEN--\":8:10   */\n              iszero\n              tag_105\n              jumpi\n                /* \"--CODEGEN--\":52:53   */\n              0x00\n                /* \"--CODEGEN--\":49:50   */\n              dup1\n                /* \"--CODEGEN--\":42:54   */\n              revert\n                /* \"--CODEGEN--\":8:10   */\n            tag_105:\n                /* \"Entity.sol\":6690:7046  function newDataMultipleToSend(address multipleEntity, address _receiver, ... */\n              dup3\n              add\n                /* \"--CODEGEN--\":41:50   */\n              dup4\n                /* \"--CODEGEN--\":34:38   */\n              0x20\n                /* \"--CODEGEN--\":18:32   */\n              dup3\n                /* \"--CODEGEN--\":14:39   */\n              add\n                /* \"--CODEGEN--\":11:51   */\n              gt\n                /* \"--CODEGEN--\":8:10   */\n              iszero\n              tag_106\n              jumpi\n                /* \"--CODEGEN--\":64:65   */\n              0x00\n                /* \"--CODEGEN--\":61:62   */\n              dup1\n                /* \"--CODEGEN--\":54:66   */\n              revert\n                /* \"--CODEGEN--\":8:10   */\n            tag_106:\n                /* \"Entity.sol\":6690:7046  function newDataMultipleToSend(address multipleEntity, address _receiver, ... */\n              dup1\n              calldataload\n              swap1\n              0x20\n              add\n              swap2\n                /* \"--CODEGEN--\":100:109   */\n              dup5\n                /* \"--CODEGEN--\":95:96   */\n              0x01\n                /* \"--CODEGEN--\":81:93   */\n              dup4\n                /* \"--CODEGEN--\":77:97   */\n              mul\n                /* \"--CODEGEN--\":67:75   */\n              dup5\n                /* \"--CODEGEN--\":63:98   */\n              add\n                /* \"--CODEGEN--\":60:110   */\n              gt\n              shl(0x20, 0x01)\n                /* \"--CODEGEN--\":25:37   */\n              dup4\n                /* \"--CODEGEN--\":22:51   */\n              gt\n                /* \"--CODEGEN--\":11:118   */\n              or\n                /* \"--CODEGEN--\":8:10   */\n              iszero\n              tag_107\n              jumpi\n                /* \"--CODEGEN--\":131:132   */\n              0x00\n                /* \"--CODEGEN--\":128:129   */\n              dup1\n                /* \"--CODEGEN--\":121:133   */\n              revert\n                /* \"--CODEGEN--\":8:10   */\n            tag_107:\n                /* \"Entity.sol\":6690:7046  function newDataMultipleToSend(address multipleEntity, address _receiver, ... */\n              swap2\n              swap1\n              dup1\n              dup1\n              0x1f\n              add\n              0x20\n              dup1\n              swap2\n              div\n              mul\n              0x20\n              add\n              mload(0x40)\n              swap1\n              dup2\n              add\n              0x40\n              mstore\n              dup1\n              swap4\n              swap3\n              swap2\n              swap1\n              dup2\n              dup2\n              mstore\n              0x20\n              add\n              dup4\n              dup4\n                /* \"--CODEGEN--\":30:33   */\n              dup1\n                /* \"--CODEGEN--\":22:28   */\n              dup3\n                /* \"--CODEGEN--\":14:20   */\n              dup5\n                /* \"--CODEGEN--\":1:34   */\n              calldatacopy\n                /* \"--CODEGEN--\":99:100   */\n              0x00\n                /* \"--CODEGEN--\":81:97   */\n              swap3\n              add\n                /* \"--CODEGEN--\":74:101   */\n              swap2\n              swap1\n              swap2\n              mstore\n              pop\n                /* \"Entity.sol\":6690:7046  function newDataMultipleToSend(address multipleEntity, address _receiver, ... */\n              swap3\n              swap6\n              pop\n              pop\n              pop\n              pop\n              calldataload\n              iszero\n              iszero\n              swap1\n              pop\n              tag_108\n              jump\t// in\n            tag_97:\n              0x40\n              dup1\n              mload\n              0xffffffff\n              swap1\n              swap3\n              and\n              dup3\n              mstore\n              mload\n              swap1\n              dup2\n              swap1\n              sub\n              0x20\n              add\n              swap1\n              return\n                /* \"MultipleEntity.sol\":89:126  mapping(address=>bool) public isOwner */\n            tag_10:\n              tag_109\n              0x04\n              dup1\n              calldatasize\n              sub\n                /* \"--CODEGEN--\":15:17   */\n              0x20\n                /* \"--CODEGEN--\":10:13   */\n              dup2\n                /* \"--CODEGEN--\":7:18   */\n              lt\n                /* \"--CODEGEN--\":4:6   */\n              iszero\n              tag_110\n              jumpi\n                /* \"--CODEGEN--\":31:32   */\n              0x00\n                /* \"--CODEGEN--\":28:29   */\n              dup1\n                /* \"--CODEGEN--\":21:33   */\n              revert\n                /* \"--CODEGEN--\":4:6   */\n            tag_110:\n              pop\n                /* \"MultipleEntity.sol\":89:126  mapping(address=>bool) public isOwner */\n              calldataload\n              sub(shl(0xa0, 0x01), 0x01)\n              and\n              tag_111\n              jump\t// in\n            tag_109:\n              0x40\n              dup1\n              mload\n              swap2\n              iszero\n              iszero\n              dup3\n              mstore\n              mload\n              swap1\n              dup2\n              swap1\n              sub\n              0x20\n              add\n              swap1\n              return\n                /* \"Entity.sol\":9628:9815  function fetchValue(address src, string memory des, string memory key)... */\n            tag_11:\n              tag_53\n              0x04\n              dup1\n              calldatasize\n              sub\n                /* \"--CODEGEN--\":15:17   */\n              0x60\n                /* \"--CODEGEN--\":10:13   */\n              dup2\n                /* \"--CODEGEN--\":7:18   */\n              lt\n                /* \"--CODEGEN--\":4:6   */\n              iszero\n              tag_113\n              jumpi\n                /* \"--CODEGEN--\":31:32   */\n              0x00\n                /* \"--CODEGEN--\":28:29   */\n              dup1\n                /* \"--CODEGEN--\":21:33   */\n              revert\n                /* \"--CODEGEN--\":4:6   */\n            tag_113:\n                /* \"Entity.sol\":9628:9815  function fetchValue(address src, string memory des, string memory key)... */\n              dup2\n              calldataload\n              sub(shl(0xa0, 0x01), 0x01)\n              and\n              swap2\n              swap1\n              dup2\n              add\n              swap1\n              0x40\n              dup2\n              add\n              0x20\n              dup3\n              add\n              calldataload\n              shl(0x20, 0x01)\n                /* \"--CODEGEN--\":11:39   */\n              dup2\n              gt\n                /* \"--CODEGEN--\":8:10   */\n              iszero\n              tag_114\n              jumpi\n                /* \"--CODEGEN--\":52:53   */\n              0x00\n                /* \"--CODEGEN--\":49:50   */\n              dup1\n                /* \"--CODEGEN--\":42:54   */\n              revert\n                /* \"--CODEGEN--\":8:10   */\n            tag_114:\n                /* \"Entity.sol\":9628:9815  function fetchValue(address src, string memory des, string memory key)... */\n              dup3\n              add\n                /* \"--CODEGEN--\":41:50   */\n              dup4\n                /* \"--CODEGEN--\":34:38   */\n              0x20\n                /* \"--CODEGEN--\":18:32   */\n              dup3\n                /* \"--CODEGEN--\":14:39   */\n              add\n                /* \"--CODEGEN--\":11:51   */\n              gt\n                /* \"--CODEGEN--\":8:10   */\n              iszero\n              tag_115\n              jumpi\n                /* \"--CODEGEN--\":64:65   */\n              0x00\n                /* \"--CODEGEN--\":61:62   */\n              dup1\n                /* \"--CODEGEN--\":54:66   */\n              revert\n                /* \"--CODEGEN--\":8:10   */\n            tag_115:\n                /* \"Entity.sol\":9628:9815  function fetchValue(address src, string memory des, string memory key)... */\n              dup1\n              calldataload\n              swap1\n              0x20\n              add\n              swap2\n                /* \"--CODEGEN--\":100:109   */\n              dup5\n                /* \"--CODEGEN--\":95:96   */\n              0x01\n                /* \"--CODEGEN--\":81:93   */\n              dup4\n                /* \"--CODEGEN--\":77:97   */\n              mul\n                /* \"--CODEGEN--\":67:75   */\n              dup5\n                /* \"--CODEGEN--\":63:98   */\n              add\n                /* \"--CODEGEN--\":60:110   */\n              gt\n              shl(0x20, 0x01)\n                /* \"--CODEGEN--\":25:37   */\n              dup4\n                /* \"--CODEGEN--\":22:51   */\n              gt\n                /* \"--CODEGEN--\":11:118   */\n              or\n                /* \"--CODEGEN--\":8:10   */\n              iszero\n              tag_116\n              jumpi\n                /* \"--CODEGEN--\":131:132   */\n              0x00\n                /* \"--CODEGEN--\":128:129   */\n              dup1\n                /* \"--CODEGEN--\":121:133   */\n              revert\n                /* \"--CODEGEN--\":8:10   */\n            tag_116:\n                /* \"Entity.sol\":9628:9815  function fetchValue(address src, string memory des, string memory key)... */\n              swap2\n              swap1\n              dup1\n              dup1\n              0x1f\n              add\n              0x20\n              dup1\n              swap2\n              div\n              mul\n              0x20\n              add\n              mload(0x40)\n              swap1\n              dup2\n              add\n              0x40\n              mstore\n              dup1\n              swap4\n              swap3\n              swap2\n              swap1\n              dup2\n              dup2\n              mstore\n              0x20\n              add\n              dup4\n              dup4\n                /* \"--CODEGEN--\":30:33   */\n              dup1\n                /* \"--CODEGEN--\":22:28   */\n              dup3\n                /* \"--CODEGEN--\":14:20   */\n              dup5\n                /* \"--CODEGEN--\":1:34   */\n              calldatacopy\n                /* \"--CODEGEN--\":99:100   */\n              0x00\n                /* \"--CODEGEN--\":81:97   */\n              swap3\n              add\n                /* \"--CODEGEN--\":74:101   */\n              swap2\n              swap1\n              swap2\n              mstore\n              pop\n                /* \"Entity.sol\":9628:9815  function fetchValue(address src, string memory des, string memory key)... */\n              swap3\n              swap6\n              swap5\n              swap4\n              0x20\n              dup2\n              add\n              swap4\n              pop\n              calldataload\n              swap2\n              pop\n              pop\n              shl(0x20, 0x01)\n                /* \"--CODEGEN--\":11:39   */\n              dup2\n              gt\n                /* \"--CODEGEN--\":8:10   */\n              iszero\n              tag_117\n              jumpi\n                /* \"--CODEGEN--\":52:53   */\n              0x00\n                /* \"--CODEGEN--\":49:50   */\n              dup1\n                /* \"--CODEGEN--\":42:54   */\n              revert\n                /* \"--CODEGEN--\":8:10   */\n            tag_117:\n                /* \"Entity.sol\":9628:9815  function fetchValue(address src, string memory des, string memory key)... */\n              dup3\n              add\n                /* \"--CODEGEN--\":41:50   */\n              dup4\n                /* \"--CODEGEN--\":34:38   */\n              0x20\n                /* \"--CODEGEN--\":18:32   */\n              dup3\n                /* \"--CODEGEN--\":14:39   */\n              add\n                /* \"--CODEGEN--\":11:51   */\n              gt\n                /* \"--CODEGEN--\":8:10   */\n              iszero\n              tag_118\n              jumpi\n                /* \"--CODEGEN--\":64:65   */\n              0x00\n                /* \"--CODEGEN--\":61:62   */\n              dup1\n                /* \"--CODEGEN--\":54:66   */\n              revert\n                /* \"--CODEGEN--\":8:10   */\n            tag_118:\n                /* \"Entity.sol\":9628:9815  function fetchValue(address src, string memory des, string memory key)... */\n              dup1\n              calldataload\n              swap1\n              0x20\n              add\n              swap2\n                /* \"--CODEGEN--\":100:109   */\n              dup5\n                /* \"--CODEGEN--\":95:96   */\n              0x01\n                /* \"--CODEGEN--\":81:93   */\n              dup4\n                /* \"--CODEGEN--\":77:97   */\n              mul\n                /* \"--CODEGEN--\":67:75   */\n              dup5\n                /* \"--CODEGEN--\":63:98   */\n              add\n                /* \"--CODEGEN--\":60:110   */\n              gt\n              shl(0x20, 0x01)\n                /* \"--CODEGEN--\":25:37   */\n              dup4\n                /* \"--CODEGEN--\":22:51   */\n              gt\n                /* \"--CODEGEN--\":11:118   */\n              or\n                /* \"--CODEGEN--\":8:10   */\n              iszero\n              tag_119\n              jumpi\n                /* \"--CODEGEN--\":131:132   */\n              0x00\n                /* \"--CODEGEN--\":128:129   */\n              dup1\n                /* \"--CODEGEN--\":121:133   */\n              revert\n                /* \"--CODEGEN--\":8:10   */\n            tag_119:\n                /* \"Entity.sol\":9628:9815  function fetchValue(address src, string memory des, string memory key)... */\n              swap2\n              swap1\n              dup1\n              dup1\n              0x1f\n              add\n              0x20\n              dup1\n              swap2\n              div\n              mul\n              0x20\n              add\n              mload(0x40)\n              swap1\n              dup2\n              add\n              0x40\n              mstore\n              dup1\n              swap4\n              swap3\n              swap2\n              swap1\n              dup2\n              dup2\n              mstore\n              0x20\n              add\n              dup4\n              dup4\n                /* \"--CODEGEN--\":30:33   */\n              dup1\n                /* \"--CODEGEN--\":22:28   */\n              dup3\n                /* \"--CODEGEN--\":14:20   */\n              dup5\n                /* \"--CODEGEN--\":1:34   */\n              calldatacopy\n                /* \"--CODEGEN--\":99:100   */\n              0x00\n                /* \"--CODEGEN--\":81:97   */\n              swap3\n              add\n                /* \"--CODEGEN--\":74:101   */\n              swap2\n              swap1\n              swap2\n              mstore\n              pop\n                /* \"Entity.sol\":9628:9815  function fetchValue(address src, string memory des, string memory key)... */\n              swap3\n              swap6\n              pop\n              tag_120\n              swap5\n              pop\n              pop\n              pop\n              pop\n              pop\n              jump\t// in\n                /* \"Entity.sol\":1016:1043  address[] public dataSource */\n            tag_12:\n              tag_50\n              0x04\n              dup1\n              calldatasize\n              sub\n                /* \"--CODEGEN--\":15:17   */\n              0x20\n                /* \"--CODEGEN--\":10:13   */\n              dup2\n                /* \"--CODEGEN--\":7:18   */\n              lt\n                /* \"--CODEGEN--\":4:6   */\n              iszero\n              tag_126\n              jumpi\n                /* \"--CODEGEN--\":31:32   */\n              0x00\n                /* \"--CODEGEN--\":28:29   */\n              dup1\n                /* \"--CODEGEN--\":21:33   */\n              revert\n                /* \"--CODEGEN--\":4:6   */\n            tag_126:\n              pop\n                /* \"Entity.sol\":1016:1043  address[] public dataSource */\n              calldataload\n              tag_127\n              jump\t// in\n                /* \"Entity.sol\":1095:1149  mapping(address=>string[]) public descriptionsBySource */\n            tag_13:\n              tag_53\n              0x04\n              dup1\n              calldatasize\n              sub\n                /* \"--CODEGEN--\":15:17   */\n              0x40\n                /* \"--CODEGEN--\":10:13   */\n              dup2\n                /* \"--CODEGEN--\":7:18   */\n              lt\n                /* \"--CODEGEN--\":4:6   */\n              iszero\n              tag_129\n              jumpi\n                /* \"--CODEGEN--\":31:32   */\n              0x00\n                /* \"--CODEGEN--\":28:29   */\n              dup1\n                /* \"--CODEGEN--\":21:33   */\n              revert\n                /* \"--CODEGEN--\":4:6   */\n            tag_129:\n              pop\n                /* \"Entity.sol\":1095:1149  mapping(address=>string[]) public descriptionsBySource */\n              dup1\n              calldataload\n              sub(shl(0xa0, 0x01), 0x01)\n              and\n              swap1\n              0x20\n              add\n              calldataload\n              tag_130\n              jump\t// in\n                /* \"Entity.sol\":9154:9283  function sourceLength()... */\n            tag_14:\n              tag_97\n              tag_136\n              jump\t// in\n                /* \"Entity.sol\":4205:4433  function approveDataToReceive(uint32 index)... */\n            tag_15:\n              tag_84\n              0x04\n              dup1\n              calldatasize\n              sub\n                /* \"--CODEGEN--\":15:17   */\n              0x20\n                /* \"--CODEGEN--\":10:13   */\n              dup2\n                /* \"--CODEGEN--\":7:18   */\n              lt\n                /* \"--CODEGEN--\":4:6   */\n              iszero\n              tag_138\n              jumpi\n                /* \"--CODEGEN--\":31:32   */\n              0x00\n                /* \"--CODEGEN--\":28:29   */\n              dup1\n                /* \"--CODEGEN--\":21:33   */\n              revert\n                /* \"--CODEGEN--\":4:6   */\n            tag_138:\n              pop\n                /* \"Entity.sol\":4205:4433  function approveDataToReceive(uint32 index)... */\n              calldataload\n              0xffffffff\n              and\n              tag_139\n              jump\t// in\n                /* \"Entity.sol\":4657:4813  function pendingDataToReceiveCount() ... */\n            tag_16:\n              tag_97\n              tag_141\n              jump\t// in\n                /* \"Entity.sol\":948:1010  mapping(address=>mapping(string=>string)) public MarkupsSender */\n            tag_17:\n              tag_53\n              0x04\n              dup1\n              calldatasize\n              sub\n                /* \"--CODEGEN--\":15:17   */\n              0x40\n                /* \"--CODEGEN--\":10:13   */\n              dup2\n                /* \"--CODEGEN--\":7:18   */\n              lt\n                /* \"--CODEGEN--\":4:6   */\n              iszero\n              tag_143\n              jumpi\n                /* \"--CODEGEN--\":31:32   */\n              0x00\n                /* \"--CODEGEN--\":28:29   */\n              dup1\n                /* \"--CODEGEN--\":21:33   */\n              revert\n                /* \"--CODEGEN--\":4:6   */\n            tag_143:\n                /* \"Entity.sol\":948:1010  mapping(address=>mapping(string=>string)) public MarkupsSender */\n              dup2\n              calldataload\n              sub(shl(0xa0, 0x01), 0x01)\n              and\n              swap2\n              swap1\n              dup2\n              add\n              swap1\n              0x40\n              dup2\n              add\n              0x20\n              dup3\n              add\n              calldataload\n              shl(0x20, 0x01)\n                /* \"--CODEGEN--\":11:39   */\n              dup2\n              gt\n                /* \"--CODEGEN--\":8:10   */\n              iszero\n              tag_144\n              jumpi\n                /* \"--CODEGEN--\":52:53   */\n              0x00\n                /* \"--CODEGEN--\":49:50   */\n              dup1\n                /* \"--CODEGEN--\":42:54   */\n              revert\n                /* \"--CODEGEN--\":8:10   */\n            tag_144:\n                /* \"Entity.sol\":948:1010  mapping(address=>mapping(string=>string)) public MarkupsSender */\n              dup3\n              add\n                /* \"--CODEGEN--\":41:50   */\n              dup4\n                /* \"--CODEGEN--\":34:38   */\n              0x20\n                /* \"--CODEGEN--\":18:32   */\n              dup3\n                /* \"--CODEGEN--\":14:39   */\n              add\n                /* \"--CODEGEN--\":11:51   */\n              gt\n                /* \"--CODEGEN--\":8:10   */\n              iszero\n              tag_145\n              jumpi\n                /* \"--CODEGEN--\":64:65   */\n              0x00\n                /* \"--CODEGEN--\":61:62   */\n              dup1\n                /* \"--CODEGEN--\":54:66   */\n              revert\n                /* \"--CODEGEN--\":8:10   */\n            tag_145:\n                /* \"Entity.sol\":948:1010  mapping(address=>mapping(string=>string)) public MarkupsSender */\n              dup1\n              calldataload\n              swap1\n              0x20\n              add\n              swap2\n                /* \"--CODEGEN--\":100:109   */\n              dup5\n                /* \"--CODEGEN--\":95:96   */\n              0x01\n                /* \"--CODEGEN--\":81:93   */\n              dup4\n                /* \"--CODEGEN--\":77:97   */\n              mul\n                /* \"--CODEGEN--\":67:75   */\n              dup5\n                /* \"--CODEGEN--\":63:98   */\n              add\n                /* \"--CODEGEN--\":60:110   */\n              gt\n              shl(0x20, 0x01)\n                /* \"--CODEGEN--\":25:37   */\n              dup4\n                /* \"--CODEGEN--\":22:51   */\n              gt\n                /* \"--CODEGEN--\":11:118   */\n              or\n                /* \"--CODEGEN--\":8:10   */\n              iszero\n              tag_146\n              jumpi\n                /* \"--CODEGEN--\":131:132   */\n              0x00\n                /* \"--CODEGEN--\":128:129   */\n              dup1\n                /* \"--CODEGEN--\":121:133   */\n              revert\n                /* \"--CODEGEN--\":8:10   */\n            tag_146:\n                /* \"Entity.sol\":948:1010  mapping(address=>mapping(string=>string)) public MarkupsSender */\n              swap2\n              swap1\n              dup1\n              dup1\n              0x1f\n              add\n              0x20\n              dup1\n              swap2\n              div\n              mul\n              0x20\n              add\n              mload(0x40)\n              swap1\n              dup2\n              add\n              0x40\n              mstore\n              dup1\n              swap4\n              swap3\n              swap2\n              swap1\n              dup2\n              dup2\n              mstore\n              0x20\n              add\n              dup4\n              dup4\n                /* \"--CODEGEN--\":30:33   */\n              dup1\n                /* \"--CODEGEN--\":22:28   */\n              dup3\n                /* \"--CODEGEN--\":14:20   */\n              dup5\n                /* \"--CODEGEN--\":1:34   */\n              calldatacopy\n                /* \"--CODEGEN--\":99:100   */\n              0x00\n                /* \"--CODEGEN--\":81:97   */\n              swap3\n              add\n                /* \"--CODEGEN--\":74:101   */\n              swap2\n              swap1\n              swap2\n              mstore\n              pop\n                /* \"Entity.sol\":948:1010  mapping(address=>mapping(string=>string)) public MarkupsSender */\n              swap3\n              swap6\n              pop\n              tag_147\n              swap5\n              pop\n              pop\n              pop\n              pop\n              pop\n              jump\t// in\n                /* \"Entity.sol\":1465:1691  function markup(address target, string memory description, string memory markup)... */\n            tag_18:\n              tag_84\n              0x04\n              dup1\n              calldatasize\n              sub\n                /* \"--CODEGEN--\":15:17   */\n              0x60\n                /* \"--CODEGEN--\":10:13   */\n              dup2\n                /* \"--CODEGEN--\":7:18   */\n              lt\n                /* \"--CODEGEN--\":4:6   */\n              iszero\n              tag_153\n              jumpi\n                /* \"--CODEGEN--\":31:32   */\n              0x00\n                /* \"--CODEGEN--\":28:29   */\n              dup1\n                /* \"--CODEGEN--\":21:33   */\n              revert\n                /* \"--CODEGEN--\":4:6   */\n            tag_153:\n                /* \"Entity.sol\":1465:1691  function markup(address target, string memory description, string memory markup)... */\n              dup2\n              calldataload\n              sub(shl(0xa0, 0x01), 0x01)\n              and\n              swap2\n              swap1\n              dup2\n              add\n              swap1\n              0x40\n              dup2\n              add\n              0x20\n              dup3\n              add\n              calldataload\n              shl(0x20, 0x01)\n                /* \"--CODEGEN--\":11:39   */\n              dup2\n              gt\n                /* \"--CODEGEN--\":8:10   */\n              iszero\n              tag_154\n              jumpi\n                /* \"--CODEGEN--\":52:53   */\n              0x00\n                /* \"--CODEGEN--\":49:50   */\n              dup1\n                /* \"--CODEGEN--\":42:54   */\n              revert\n                /* \"--CODEGEN--\":8:10   */\n            tag_154:\n                /* \"Entity.sol\":1465:1691  function markup(address target, string memory description, string memory markup)... */\n              dup3\n              add\n                /* \"--CODEGEN--\":41:50   */\n              dup4\n                /* \"--CODEGEN--\":34:38   */\n              0x20\n                /* \"--CODEGEN--\":18:32   */\n              dup3\n                /* \"--CODEGEN--\":14:39   */\n              add\n                /* \"--CODEGEN--\":11:51   */\n              gt\n                /* \"--CODEGEN--\":8:10   */\n              iszero\n              tag_155\n              jumpi\n                /* \"--CODEGEN--\":64:65   */\n              0x00\n                /* \"--CODEGEN--\":61:62   */\n              dup1\n                /* \"--CODEGEN--\":54:66   */\n              revert\n                /* \"--CODEGEN--\":8:10   */\n            tag_155:\n                /* \"Entity.sol\":1465:1691  function markup(address target, string memory description, string memory markup)... */\n              dup1\n              calldataload\n              swap1\n              0x20\n              add\n              swap2\n                /* \"--CODEGEN--\":100:109   */\n              dup5\n                /* \"--CODEGEN--\":95:96   */\n              0x01\n                /* \"--CODEGEN--\":81:93   */\n              dup4\n                /* \"--CODEGEN--\":77:97   */\n              mul\n                /* \"--CODEGEN--\":67:75   */\n              dup5\n                /* \"--CODEGEN--\":63:98   */\n              add\n                /* \"--CODEGEN--\":60:110   */\n              gt\n              shl(0x20, 0x01)\n                /* \"--CODEGEN--\":25:37   */\n              dup4\n                /* \"--CODEGEN--\":22:51   */\n              gt\n                /* \"--CODEGEN--\":11:118   */\n              or\n                /* \"--CODEGEN--\":8:10   */\n              iszero\n              tag_156\n              jumpi\n                /* \"--CODEGEN--\":131:132   */\n              0x00\n                /* \"--CODEGEN--\":128:129   */\n              dup1\n                /* \"--CODEGEN--\":121:133   */\n              revert\n                /* \"--CODEGEN--\":8:10   */\n            tag_156:\n                /* \"Entity.sol\":1465:1691  function markup(address target, string memory description, string memory markup)... */\n              swap2\n              swap1\n              dup1\n              dup1\n              0x1f\n              add\n              0x20\n              dup1\n              swap2\n              div\n              mul\n              0x20\n              add\n              mload(0x40)\n              swap1\n              dup2\n              add\n              0x40\n              mstore\n              dup1\n              swap4\n              swap3\n              swap2\n              swap1\n              dup2\n              dup2\n              mstore\n              0x20\n              add\n              dup4\n              dup4\n                /* \"--CODEGEN--\":30:33   */\n              dup1\n                /* \"--CODEGEN--\":22:28   */\n              dup3\n                /* \"--CODEGEN--\":14:20   */\n              dup5\n                /* \"--CODEGEN--\":1:34   */\n              calldatacopy\n                /* \"--CODEGEN--\":99:100   */\n              0x00\n                /* \"--CODEGEN--\":81:97   */\n              swap3\n              add\n                /* \"--CODEGEN--\":74:101   */\n              swap2\n              swap1\n              swap2\n              mstore\n              pop\n                /* \"Entity.sol\":1465:1691  function markup(address target, string memory description, string memory markup)... */\n              swap3\n              swap6\n              swap5\n              swap4\n              0x20\n              dup2\n              add\n              swap4\n              pop\n              calldataload\n              swap2\n              pop\n              pop\n              shl(0x20, 0x01)\n                /* \"--CODEGEN--\":11:39   */\n              dup2\n              gt\n                /* \"--CODEGEN--\":8:10   */\n              iszero\n              tag_157\n              jumpi\n                /* \"--CODEGEN--\":52:53   */\n              0x00\n                /* \"--CODEGEN--\":49:50   */\n              dup1\n                /* \"--CODEGEN--\":42:54   */\n              revert\n                /* \"--CODEGEN--\":8:10   */\n            tag_157:\n                /* \"Entity.sol\":1465:1691  function markup(address target, string memory description, string memory markup)... */\n              dup3\n              add\n                /* \"--CODEGEN--\":41:50   */\n              dup4\n                /* \"--CODEGEN--\":34:38   */\n              0x20\n                /* \"--CODEGEN--\":18:32   */\n              dup3\n                /* \"--CODEGEN--\":14:39   */\n              add\n                /* \"--CODEGEN--\":11:51   */\n              gt\n                /* \"--CODEGEN--\":8:10   */\n              iszero\n              tag_158\n              jumpi\n                /* \"--CODEGEN--\":64:65   */\n              0x00\n                /* \"--CODEGEN--\":61:62   */\n              dup1\n                /* \"--CODEGEN--\":54:66   */\n              revert\n                /* \"--CODEGEN--\":8:10   */\n            tag_158:\n                /* \"Entity.sol\":1465:1691  function markup(address target, string memory description, string memory markup)... */\n              dup1\n              calldataload\n              swap1\n              0x20\n              add\n              swap2\n                /* \"--CODEGEN--\":100:109   */\n              dup5\n                /* \"--CODEGEN--\":95:96   */\n              0x01\n                /* \"--CODEGEN--\":81:93   */\n              dup4\n                /* \"--CODEGEN--\":77:97   */\n              mul\n                /* \"--CODEGEN--\":67:75   */\n              dup5\n                /* \"--CODEGEN--\":63:98   */\n              add\n                /* \"--CODEGEN--\":60:110   */\n              gt\n              shl(0x20, 0x01)\n                /* \"--CODEGEN--\":25:37   */\n              dup4\n                /* \"--CODEGEN--\":22:51   */\n              gt\n                /* \"--CODEGEN--\":11:118   */\n              or\n                /* \"--CODEGEN--\":8:10   */\n              iszero\n              tag_159\n              jumpi\n                /* \"--CODEGEN--\":131:132   */\n              0x00\n                /* \"--CODEGEN--\":128:129   */\n              dup1\n                /* \"--CODEGEN--\":121:133   */\n              revert\n                /* \"--CODEGEN--\":8:10   */\n            tag_159:\n                /* \"Entity.sol\":1465:1691  function markup(address target, string memory description, string memory markup)... */\n              swap2\n              swap1\n              dup1\n              dup1\n              0x1f\n              add\n              0x20\n              dup1\n              swap2\n              div\n              mul\n              0x20\n              add\n              mload(0x40)\n              swap1\n              dup2\n              add\n              0x40\n              mstore\n              dup1\n              swap4\n              swap3\n              swap2\n              swap1\n              dup2\n              dup2\n              mstore\n              0x20\n              add\n              dup4\n              dup4\n                /* \"--CODEGEN--\":30:33   */\n              dup1\n                /* \"--CODEGEN--\":22:28   */\n              dup3\n                /* \"--CODEGEN--\":14:20   */\n              dup5\n                /* \"--CODEGEN--\":1:34   */\n              calldatacopy\n                /* \"--CODEGEN--\":99:100   */\n              0x00\n                /* \"--CODEGEN--\":81:97   */\n              swap3\n              add\n                /* \"--CODEGEN--\":74:101   */\n              swap2\n              swap1\n              swap2\n              mstore\n              pop\n                /* \"Entity.sol\":1465:1691  function markup(address target, string memory description, string memory markup)... */\n              swap3\n              swap6\n              pop\n              tag_160\n              swap5\n              pop\n              pop\n              pop\n              pop\n              pop\n              jump\t// in\n                /* \"MultipleEntity.sol\":1269:1432  function addOwner(address owner)... */\n            tag_19:\n              tag_84\n              0x04\n              dup1\n              calldatasize\n              sub\n                /* \"--CODEGEN--\":15:17   */\n              0x20\n                /* \"--CODEGEN--\":10:13   */\n              dup2\n                /* \"--CODEGEN--\":7:18   */\n              lt\n                /* \"--CODEGEN--\":4:6   */\n              iszero\n              tag_162\n              jumpi\n                /* \"--CODEGEN--\":31:32   */\n              0x00\n                /* \"--CODEGEN--\":28:29   */\n              dup1\n                /* \"--CODEGEN--\":21:33   */\n              revert\n                /* \"--CODEGEN--\":4:6   */\n            tag_162:\n              pop\n                /* \"MultipleEntity.sol\":1269:1432  function addOwner(address owner)... */\n              calldataload\n              sub(shl(0xa0, 0x01), 0x01)\n              and\n              tag_163\n              jump\t// in\n                /* \"Entity.sol\":4823:4995  function dataSizeToReceive(uint32 index) ... */\n            tag_20:\n              tag_97\n              0x04\n              dup1\n              calldatasize\n              sub\n                /* \"--CODEGEN--\":15:17   */\n              0x20\n                /* \"--CODEGEN--\":10:13   */\n              dup2\n                /* \"--CODEGEN--\":7:18   */\n              lt\n                /* \"--CODEGEN--\":4:6   */\n              iszero\n              tag_165\n              jumpi\n                /* \"--CODEGEN--\":31:32   */\n              0x00\n                /* \"--CODEGEN--\":28:29   */\n              dup1\n                /* \"--CODEGEN--\":21:33   */\n              revert\n                /* \"--CODEGEN--\":4:6   */\n            tag_165:\n              pop\n                /* \"Entity.sol\":4823:4995  function dataSizeToReceive(uint32 index) ... */\n              calldataload\n              0xffffffff\n              and\n              tag_166\n              jump\t// in\n                /* \"Entity.sol\":7559:8090  function approveDataToSend(uint32 index) ... */\n            tag_21:\n              tag_84\n              0x04\n              dup1\n              calldatasize\n              sub\n                /* \"--CODEGEN--\":15:17   */\n              0x20\n                /* \"--CODEGEN--\":10:13   */\n              dup2\n                /* \"--CODEGEN--\":7:18   */\n              lt\n                /* \"--CODEGEN--\":4:6   */\n              iszero\n              tag_168\n              jumpi\n                /* \"--CODEGEN--\":31:32   */\n              0x00\n                /* \"--CODEGEN--\":28:29   */\n              dup1\n                /* \"--CODEGEN--\":21:33   */\n              revert\n                /* \"--CODEGEN--\":4:6   */\n            tag_168:\n              pop\n                /* \"Entity.sol\":7559:8090  function approveDataToSend(uint32 index) ... */\n              calldataload\n              0xffffffff\n              and\n              tag_169\n              jump\t// in\n                /* \"Entity.sol\":1697:1914  function _markup(string calldata description, string calldata markup)... */\n            tag_22:\n              tag_84\n              0x04\n              dup1\n              calldatasize\n              sub\n                /* \"--CODEGEN--\":15:17   */\n              0x40\n                /* \"--CODEGEN--\":10:13   */\n              dup2\n                /* \"--CODEGEN--\":7:18   */\n              lt\n                /* \"--CODEGEN--\":4:6   */\n              iszero\n              tag_171\n              jumpi\n                /* \"--CODEGEN--\":31:32   */\n              0x00\n                /* \"--CODEGEN--\":28:29   */\n              dup1\n                /* \"--CODEGEN--\":21:33   */\n              revert\n                /* \"--CODEGEN--\":4:6   */\n            tag_171:\n                /* \"Entity.sol\":1697:1914  function _markup(string calldata description, string calldata markup)... */\n              dup2\n              add\n              swap1\n              0x20\n              dup2\n              add\n              dup2\n              calldataload\n              shl(0x20, 0x01)\n                /* \"--CODEGEN--\":11:39   */\n              dup2\n              gt\n                /* \"--CODEGEN--\":8:10   */\n              iszero\n              tag_172\n              jumpi\n                /* \"--CODEGEN--\":52:53   */\n              0x00\n                /* \"--CODEGEN--\":49:50   */\n              dup1\n                /* \"--CODEGEN--\":42:54   */\n              revert\n                /* \"--CODEGEN--\":8:10   */\n            tag_172:\n                /* \"Entity.sol\":1697:1914  function _markup(string calldata description, string calldata markup)... */\n              dup3\n              add\n                /* \"--CODEGEN--\":41:50   */\n              dup4\n                /* \"--CODEGEN--\":34:38   */\n              0x20\n                /* \"--CODEGEN--\":18:32   */\n              dup3\n                /* \"--CODEGEN--\":14:39   */\n              add\n                /* \"--CODEGEN--\":11:51   */\n              gt\n                /* \"--CODEGEN--\":8:10   */\n              iszero\n              tag_173\n              jumpi\n                /* \"--CODEGEN--\":64:65   */\n              0x00\n                /* \"--CODEGEN--\":61:62   */\n              dup1\n                /* \"--CODEGEN--\":54:66   */\n              revert\n                /* \"--CODEGEN--\":8:10   */\n            tag_173:\n                /* \"Entity.sol\":1697:1914  function _markup(string calldata description, string calldata markup)... */\n              dup1\n              calldataload\n              swap1\n              0x20\n              add\n              swap2\n                /* \"--CODEGEN--\":100:109   */\n              dup5\n                /* \"--CODEGEN--\":95:96   */\n              0x01\n                /* \"--CODEGEN--\":81:93   */\n              dup4\n                /* \"--CODEGEN--\":77:97   */\n              mul\n                /* \"--CODEGEN--\":67:75   */\n              dup5\n                /* \"--CODEGEN--\":63:98   */\n              add\n                /* \"--CODEGEN--\":60:110   */\n              gt\n              shl(0x20, 0x01)\n                /* \"--CODEGEN--\":25:37   */\n              dup4\n                /* \"--CODEGEN--\":22:51   */\n              gt\n                /* \"--CODEGEN--\":11:118   */\n              or\n                /* \"--CODEGEN--\":8:10   */\n              iszero\n              tag_174\n              jumpi\n                /* \"--CODEGEN--\":131:132   */\n              0x00\n                /* \"--CODEGEN--\":128:129   */\n              dup1\n                /* \"--CODEGEN--\":121:133   */\n              revert\n                /* \"--CODEGEN--\":8:10   */\n            tag_174:\n                /* \"Entity.sol\":1697:1914  function _markup(string calldata description, string calldata markup)... */\n              swap2\n              swap4\n              swap1\n              swap3\n              swap1\n              swap2\n              0x20\n              dup2\n              add\n              swap1\n              calldataload\n              shl(0x20, 0x01)\n                /* \"--CODEGEN--\":11:39   */\n              dup2\n              gt\n                /* \"--CODEGEN--\":8:10   */\n              iszero\n              tag_175\n              jumpi\n                /* \"--CODEGEN--\":52:53   */\n              0x00\n                /* \"--CODEGEN--\":49:50   */\n              dup1\n                /* \"--CODEGEN--\":42:54   */\n              revert\n                /* \"--CODEGEN--\":8:10   */\n            tag_175:\n                /* \"Entity.sol\":1697:1914  function _markup(string calldata description, string calldata markup)... */\n              dup3\n              add\n                /* \"--CODEGEN--\":41:50   */\n              dup4\n                /* \"--CODEGEN--\":34:38   */\n              0x20\n                /* \"--CODEGEN--\":18:32   */\n              dup3\n                /* \"--CODEGEN--\":14:39   */\n              add\n                /* \"--CODEGEN--\":11:51   */\n              gt\n                /* \"--CODEGEN--\":8:10   */\n              iszero\n              tag_176\n              jumpi\n                /* \"--CODEGEN--\":64:65   */\n              0x00\n                /* \"--CODEGEN--\":61:62   */\n              dup1\n                /* \"--CODEGEN--\":54:66   */\n              revert\n                /* \"--CODEGEN--\":8:10   */\n            tag_176:\n                /* \"Entity.sol\":1697:1914  function _markup(string calldata description, string calldata markup)... */\n              dup1\n              calldataload\n              swap1\n              0x20\n              add\n              swap2\n                /* \"--CODEGEN--\":100:109   */\n              dup5\n                /* \"--CODEGEN--\":95:96   */\n              0x01\n                /* \"--CODEGEN--\":81:93   */\n              dup4\n                /* \"--CODEGEN--\":77:97   */\n              mul\n                /* \"--CODEGEN--\":67:75   */\n              dup5\n                /* \"--CODEGEN--\":63:98   */\n              add\n                /* \"--CODEGEN--\":60:110   */\n              gt\n              shl(0x20, 0x01)\n                /* \"--CODEGEN--\":25:37   */\n              dup4\n                /* \"--CODEGEN--\":22:51   */\n              gt\n                /* \"--CODEGEN--\":11:118   */\n              or\n                /* \"--CODEGEN--\":8:10   */\n              iszero\n              tag_177\n              jumpi\n                /* \"--CODEGEN--\":131:132   */\n              0x00\n                /* \"--CODEGEN--\":128:129   */\n              dup1\n                /* \"--CODEGEN--\":121:133   */\n              revert\n                /* \"--CODEGEN--\":8:10   */\n            tag_177:\n              pop\n                /* \"Entity.sol\":1697:1914  function _markup(string calldata description, string calldata markup)... */\n              swap1\n              swap3\n              pop\n              swap1\n              pop\n              tag_178\n              jump\t// in\n                /* \"Entity.sol\":661:697  bool constant public isEntity = true */\n            tag_23:\n              tag_109\n              tag_180\n              jump\t// in\n                /* \"Entity.sol\":1920:2163  function markupSelf(address sender, string memory description, string memory markup)... */\n            tag_24:\n              tag_84\n              0x04\n              dup1\n              calldatasize\n              sub\n                /* \"--CODEGEN--\":15:17   */\n              0x60\n                /* \"--CODEGEN--\":10:13   */\n              dup2\n                /* \"--CODEGEN--\":7:18   */\n              lt\n                /* \"--CODEGEN--\":4:6   */\n              iszero\n              tag_182\n              jumpi\n                /* \"--CODEGEN--\":31:32   */\n              0x00\n                /* \"--CODEGEN--\":28:29   */\n              dup1\n                /* \"--CODEGEN--\":21:33   */\n              revert\n                /* \"--CODEGEN--\":4:6   */\n            tag_182:\n                /* \"Entity.sol\":1920:2163  function markupSelf(address sender, string memory description, string memory markup)... */\n              dup2\n              calldataload\n              sub(shl(0xa0, 0x01), 0x01)\n              and\n              swap2\n              swap1\n              dup2\n              add\n              swap1\n              0x40\n              dup2\n              add\n              0x20\n              dup3\n              add\n              calldataload\n              shl(0x20, 0x01)\n                /* \"--CODEGEN--\":11:39   */\n              dup2\n              gt\n                /* \"--CODEGEN--\":8:10   */\n              iszero\n              tag_183\n              jumpi\n                /* \"--CODEGEN--\":52:53   */\n              0x00\n                /* \"--CODEGEN--\":49:50   */\n              dup1\n                /* \"--CODEGEN--\":42:54   */\n              revert\n                /* \"--CODEGEN--\":8:10   */\n            tag_183:\n                /* \"Entity.sol\":1920:2163  function markupSelf(address sender, string memory description, string memory markup)... */\n              dup3\n              add\n                /* \"--CODEGEN--\":41:50   */\n              dup4\n                /* \"--CODEGEN--\":34:38   */\n              0x20\n                /* \"--CODEGEN--\":18:32   */\n              dup3\n                /* \"--CODEGEN--\":14:39   */\n              add\n                /* \"--CODEGEN--\":11:51   */\n              gt\n                /* \"--CODEGEN--\":8:10   */\n              iszero\n              tag_184\n              jumpi\n                /* \"--CODEGEN--\":64:65   */\n              0x00\n                /* \"--CODEGEN--\":61:62   */\n              dup1\n                /* \"--CODEGEN--\":54:66   */\n              revert\n                /* \"--CODEGEN--\":8:10   */\n            tag_184:\n                /* \"Entity.sol\":1920:2163  function markupSelf(address sender, string memory description, string memory markup)... */\n              dup1\n              calldataload\n              swap1\n              0x20\n              add\n              swap2\n                /* \"--CODEGEN--\":100:109   */\n              dup5\n                /* \"--CODEGEN--\":95:96   */\n              0x01\n                /* \"--CODEGEN--\":81:93   */\n              dup4\n                /* \"--CODEGEN--\":77:97   */\n              mul\n                /* \"--CODEGEN--\":67:75   */\n              dup5\n                /* \"--CODEGEN--\":63:98   */\n              add\n                /* \"--CODEGEN--\":60:110   */\n              gt\n              shl(0x20, 0x01)\n                /* \"--CODEGEN--\":25:37   */\n              dup4\n                /* \"--CODEGEN--\":22:51   */\n              gt\n                /* \"--CODEGEN--\":11:118   */\n              or\n                /* \"--CODEGEN--\":8:10   */\n              iszero\n              tag_185\n              jumpi\n                /* \"--CODEGEN--\":131:132   */\n              0x00\n                /* \"--CODEGEN--\":128:129   */\n              dup1\n                /* \"--CODEGEN--\":121:133   */\n              revert\n                /* \"--CODEGEN--\":8:10   */\n            tag_185:\n                /* \"Entity.sol\":1920:2163  function markupSelf(address sender, string memory description, string memory markup)... */\n              swap2\n              swap1\n              dup1\n              dup1\n              0x1f\n              add\n              0x20\n              dup1\n              swap2\n              div\n              mul\n              0x20\n              add\n              mload(0x40)\n              swap1\n              dup2\n              add\n              0x40\n              mstore\n              dup1\n              swap4\n              swap3\n              swap2\n              swap1\n              dup2\n              dup2\n              mstore\n              0x20\n              add\n              dup4\n              dup4\n                /* \"--CODEGEN--\":30:33   */\n              dup1\n                /* \"--CODEGEN--\":22:28   */\n              dup3\n                /* \"--CODEGEN--\":14:20   */\n              dup5\n                /* \"--CODEGEN--\":1:34   */\n              calldatacopy\n                /* \"--CODEGEN--\":99:100   */\n              0x00\n                /* \"--CODEGEN--\":81:97   */\n              swap3\n              add\n                /* \"--CODEGEN--\":74:101   */\n              swap2\n              swap1\n              swap2\n              mstore\n              pop\n                /* \"Entity.sol\":1920:2163  function markupSelf(address sender, string memory description, string memory markup)... */\n              swap3\n              swap6\n              swap5\n              swap4\n              0x20\n              dup2\n              add\n              swap4\n              pop\n              calldataload\n              swap2\n              pop\n              pop\n              shl(0x20, 0x01)\n                /* \"--CODEGEN--\":11:39   */\n              dup2\n              gt\n                /* \"--CODEGEN--\":8:10   */\n              iszero\n              tag_186\n              jumpi\n                /* \"--CODEGEN--\":52:53   */\n              0x00\n                /* \"--CODEGEN--\":49:50   */\n              dup1\n                /* \"--CODEGEN--\":42:54   */\n              revert\n                /* \"--CODEGEN--\":8:10   */\n            tag_186:\n                /* \"Entity.sol\":1920:2163  function markupSelf(address sender, string memory description, string memory markup)... */\n              dup3\n              add\n                /* \"--CODEGEN--\":41:50   */\n              dup4\n                /* \"--CODEGEN--\":34:38   */\n              0x20\n                /* \"--CODEGEN--\":18:32   */\n              dup3\n                /* \"--CODEGEN--\":14:39   */\n              add\n                /* \"--CODEGEN--\":11:51   */\n              gt\n                /* \"--CODEGEN--\":8:10   */\n              iszero\n              tag_187\n              jumpi\n                /* \"--CODEGEN--\":64:65   */\n              0x00\n                /* \"--CODEGEN--\":61:62   */\n              dup1\n                /* \"--CODEGEN--\":54:66   */\n              revert\n                /* \"--CODEGEN--\":8:10   */\n            tag_187:\n                /* \"Entity.sol\":1920:2163  function markupSelf(address sender, string memory description, string memory markup)... */\n              dup1\n              calldataload\n              swap1\n              0x20\n              add\n              swap2\n                /* \"--CODEGEN--\":100:109   */\n              dup5\n                /* \"--CODEGEN--\":95:96   */\n              0x01\n                /* \"--CODEGEN--\":81:93   */\n              dup4\n                /* \"--CODEGEN--\":77:97   */\n              mul\n                /* \"--CODEGEN--\":67:75   */\n              dup5\n                /* \"--CODEGEN--\":63:98   */\n              add\n                /* \"--CODEGEN--\":60:110   */\n              gt\n              shl(0x20, 0x01)\n                /* \"--CODEGEN--\":25:37   */\n              dup4\n                /* \"--CODEGEN--\":22:51   */\n              gt\n                /* \"--CODEGEN--\":11:118   */\n              or\n                /* \"--CODEGEN--\":8:10   */\n              iszero\n              tag_188\n              jumpi\n                /* \"--CODEGEN--\":131:132   */\n              0x00\n                /* \"--CODEGEN--\":128:129   */\n              dup1\n                /* \"--CODEGEN--\":121:133   */\n              revert\n                /* \"--CODEGEN--\":8:10   */\n            tag_188:\n                /* \"Entity.sol\":1920:2163  function markupSelf(address sender, string memory description, string memory markup)... */\n              swap2\n              swap1\n              dup1\n              dup1\n              0x1f\n              add\n              0x20\n              dup1\n              swap2\n              div\n              mul\n              0x20\n              add\n              mload(0x40)\n              swap1\n              dup2\n              add\n              0x40\n              mstore\n              dup1\n              swap4\n              swap3\n              swap2\n              swap1\n              dup2\n              dup2\n              mstore\n              0x20\n              add\n              dup4\n              dup4\n                /* \"--CODEGEN--\":30:33   */\n              dup1\n                /* \"--CODEGEN--\":22:28   */\n              dup3\n                /* \"--CODEGEN--\":14:20   */\n              dup5\n                /* \"--CODEGEN--\":1:34   */\n              calldatacopy\n                /* \"--CODEGEN--\":99:100   */\n              0x00\n                /* \"--CODEGEN--\":81:97   */\n              swap3\n              add\n                /* \"--CODEGEN--\":74:101   */\n              swap2\n              swap1\n              swap2\n              mstore\n              pop\n                /* \"Entity.sol\":1920:2163  function markupSelf(address sender, string memory description, string memory markup)... */\n              swap3\n              swap6\n              pop\n              tag_189\n              swap5\n              pop\n              pop\n              pop\n              pop\n              pop\n              jump\t// in\n                /* \"Entity.sol\":5299:6680  function newDataToSend(address _receiver, string memory _description, string memory _key, string memory _value, bool direct) ... */\n            tag_25:\n              tag_84\n              0x04\n              dup1\n              calldatasize\n              sub\n                /* \"--CODEGEN--\":15:18   */\n              0xa0\n                /* \"--CODEGEN--\":10:13   */\n              dup2\n                /* \"--CODEGEN--\":7:19   */\n              lt\n                /* \"--CODEGEN--\":4:6   */\n              iszero\n              tag_191\n              jumpi\n                /* \"--CODEGEN--\":32:33   */\n              0x00\n                /* \"--CODEGEN--\":29:30   */\n              dup1\n                /* \"--CODEGEN--\":22:34   */\n              revert\n                /* \"--CODEGEN--\":4:6   */\n            tag_191:\n                /* \"Entity.sol\":5299:6680  function newDataToSend(address _receiver, string memory _description, string memory _key, string memory _value, bool direct) ... */\n              dup2\n              calldataload\n              sub(shl(0xa0, 0x01), 0x01)\n              and\n              swap2\n              swap1\n              dup2\n              add\n              swap1\n              0x40\n              dup2\n              add\n              0x20\n              dup3\n              add\n              calldataload\n              shl(0x20, 0x01)\n                /* \"--CODEGEN--\":11:39   */\n              dup2\n              gt\n                /* \"--CODEGEN--\":8:10   */\n              iszero\n              tag_192\n              jumpi\n                /* \"--CODEGEN--\":52:53   */\n              0x00\n                /* \"--CODEGEN--\":49:50   */\n              dup1\n                /* \"--CODEGEN--\":42:54   */\n              revert\n                /* \"--CODEGEN--\":8:10   */\n            tag_192:\n                /* \"Entity.sol\":5299:6680  function newDataToSend(address _receiver, string memory _description, string memory _key, string memory _value, bool direct) ... */\n              dup3\n              add\n                /* \"--CODEGEN--\":41:50   */\n              dup4\n                /* \"--CODEGEN--\":34:38   */\n              0x20\n                /* \"--CODEGEN--\":18:32   */\n              dup3\n                /* \"--CODEGEN--\":14:39   */\n              add\n                /* \"--CODEGEN--\":11:51   */\n              gt\n                /* \"--CODEGEN--\":8:10   */\n              iszero\n              tag_193\n              jumpi\n                /* \"--CODEGEN--\":64:65   */\n              0x00\n                /* \"--CODEGEN--\":61:62   */\n              dup1\n                /* \"--CODEGEN--\":54:66   */\n              revert\n                /* \"--CODEGEN--\":8:10   */\n            tag_193:\n                /* \"Entity.sol\":5299:6680  function newDataToSend(address _receiver, string memory _description, string memory _key, string memory _value, bool direct) ... */\n              dup1\n              calldataload\n              swap1\n              0x20\n              add\n              swap2\n                /* \"--CODEGEN--\":100:109   */\n              dup5\n                /* \"--CODEGEN--\":95:96   */\n              0x01\n                /* \"--CODEGEN--\":81:93   */\n              dup4\n                /* \"--CODEGEN--\":77:97   */\n              mul\n                /* \"--CODEGEN--\":67:75   */\n              dup5\n                /* \"--CODEGEN--\":63:98   */\n              add\n                /* \"--CODEGEN--\":60:110   */\n              gt\n              shl(0x20, 0x01)\n                /* \"--CODEGEN--\":25:37   */\n              dup4\n                /* \"--CODEGEN--\":22:51   */\n              gt\n                /* \"--CODEGEN--\":11:118   */\n              or\n                /* \"--CODEGEN--\":8:10   */\n              iszero\n              tag_194\n              jumpi\n                /* \"--CODEGEN--\":131:132   */\n              0x00\n                /* \"--CODEGEN--\":128:129   */\n              dup1\n                /* \"--CODEGEN--\":121:133   */\n              revert\n                /* \"--CODEGEN--\":8:10   */\n            tag_194:\n                /* \"Entity.sol\":5299:6680  function newDataToSend(address _receiver, string memory _description, string memory _key, string memory _value, bool direct) ... */\n              swap2\n              swap1\n              dup1\n              dup1\n              0x1f\n              add\n              0x20\n              dup1\n              swap2\n              div\n              mul\n              0x20\n              add\n              mload(0x40)\n              swap1\n              dup2\n              add\n              0x40\n              mstore\n              dup1\n              swap4\n              swap3\n              swap2\n              swap1\n              dup2\n              dup2\n              mstore\n              0x20\n              add\n              dup4\n              dup4\n                /* \"--CODEGEN--\":30:33   */\n              dup1\n                /* \"--CODEGEN--\":22:28   */\n              dup3\n                /* \"--CODEGEN--\":14:20   */\n              dup5\n                /* \"--CODEGEN--\":1:34   */\n              calldatacopy\n                /* \"--CODEGEN--\":99:100   */\n              0x00\n                /* \"--CODEGEN--\":81:97   */\n              swap3\n              add\n                /* \"--CODEGEN--\":74:101   */\n              swap2\n              swap1\n              swap2\n              mstore\n              pop\n                /* \"Entity.sol\":5299:6680  function newDataToSend(address _receiver, string memory _description, string memory _key, string memory _value, bool direct) ... */\n              swap3\n              swap6\n              swap5\n              swap4\n              0x20\n              dup2\n              add\n              swap4\n              pop\n              calldataload\n              swap2\n              pop\n              pop\n              shl(0x20, 0x01)\n                /* \"--CODEGEN--\":11:39   */\n              dup2\n              gt\n                /* \"--CODEGEN--\":8:10   */\n              iszero\n              tag_195\n              jumpi\n                /* \"--CODEGEN--\":52:53   */\n              0x00\n                /* \"--CODEGEN--\":49:50   */\n              dup1\n                /* \"--CODEGEN--\":42:54   */\n              revert\n                /* \"--CODEGEN--\":8:10   */\n            tag_195:\n                /* \"Entity.sol\":5299:6680  function newDataToSend(address _receiver, string memory _description, string memory _key, string memory _value, bool direct) ... */\n              dup3\n              add\n                /* \"--CODEGEN--\":41:50   */\n              dup4\n                /* \"--CODEGEN--\":34:38   */\n              0x20\n                /* \"--CODEGEN--\":18:32   */\n              dup3\n                /* \"--CODEGEN--\":14:39   */\n              add\n                /* \"--CODEGEN--\":11:51   */\n              gt\n                /* \"--CODEGEN--\":8:10   */\n              iszero\n              tag_196\n              jumpi\n                /* \"--CODEGEN--\":64:65   */\n              0x00\n                /* \"--CODEGEN--\":61:62   */\n              dup1\n                /* \"--CODEGEN--\":54:66   */\n              revert\n                /* \"--CODEGEN--\":8:10   */\n            tag_196:\n                /* \"Entity.sol\":5299:6680  function newDataToSend(address _receiver, string memory _description, string memory _key, string memory _value, bool direct) ... */\n              dup1\n              calldataload\n              swap1\n              0x20\n              add\n              swap2\n                /* \"--CODEGEN--\":100:109   */\n              dup5\n                /* \"--CODEGEN--\":95:96   */\n              0x01\n                /* \"--CODEGEN--\":81:93   */\n              dup4\n                /* \"--CODEGEN--\":77:97   */\n              mul\n                /* \"--CODEGEN--\":67:75   */\n              dup5\n                /* \"--CODEGEN--\":63:98   */\n              add\n                /* \"--CODEGEN--\":60:110   */\n              gt\n              shl(0x20, 0x01)\n                /* \"--CODEGEN--\":25:37   */\n              dup4\n                /* \"--CODEGEN--\":22:51   */\n              gt\n                /* \"--CODEGEN--\":11:118   */\n              or\n                /* \"--CODEGEN--\":8:10   */\n              iszero\n              tag_197\n              jumpi\n                /* \"--CODEGEN--\":131:132   */\n              0x00\n                /* \"--CODEGEN--\":128:129   */\n              dup1\n                /* \"--CODEGEN--\":121:133   */\n              revert\n                /* \"--CODEGEN--\":8:10   */\n            tag_197:\n                /* \"Entity.sol\":5299:6680  function newDataToSend(address _receiver, string memory _description, string memory _key, string memory _value, bool direct) ... */\n              swap2\n              swap1\n              dup1\n              dup1\n              0x1f\n              add\n              0x20\n              dup1\n              swap2\n              div\n              mul\n              0x20\n              add\n              mload(0x40)\n              swap1\n              dup2\n              add\n              0x40\n              mstore\n              dup1\n              swap4\n              swap3\n              swap2\n              swap1\n              dup2\n              dup2\n              mstore\n              0x20\n              add\n              dup4\n              dup4\n                /* \"--CODEGEN--\":30:33   */\n              dup1\n                /* \"--CODEGEN--\":22:28   */\n              dup3\n                /* \"--CODEGEN--\":14:20   */\n              dup5\n                /* \"--CODEGEN--\":1:34   */\n              calldatacopy\n                /* \"--CODEGEN--\":99:100   */\n              0x00\n                /* \"--CODEGEN--\":81:97   */\n              swap3\n              add\n                /* \"--CODEGEN--\":74:101   */\n              swap2\n              swap1\n              swap2\n              mstore\n              pop\n                /* \"Entity.sol\":5299:6680  function newDataToSend(address _receiver, string memory _description, string memory _key, string memory _value, bool direct) ... */\n              swap3\n              swap6\n              swap5\n              swap4\n              0x20\n              dup2\n              add\n              swap4\n              pop\n              calldataload\n              swap2\n              pop\n              pop\n              shl(0x20, 0x01)\n                /* \"--CODEGEN--\":11:39   */\n              dup2\n              gt\n                /* \"--CODEGEN--\":8:10   */\n              iszero\n              tag_198\n              jumpi\n                /* \"--CODEGEN--\":52:53   */\n              0x00\n                /* \"--CODEGEN--\":49:50   */\n              dup1\n                /* \"--CODEGEN--\":42:54   */\n              revert\n                /* \"--CODEGEN--\":8:10   */\n            tag_198:\n                /* \"Entity.sol\":5299:6680  function newDataToSend(address _receiver, string memory _description, string memory _key, string memory _value, bool direct) ... */\n              dup3\n              add\n                /* \"--CODEGEN--\":41:50   */\n              dup4\n                /* \"--CODEGEN--\":34:38   */\n              0x20\n                /* \"--CODEGEN--\":18:32   */\n              dup3\n                /* \"--CODEGEN--\":14:39   */\n              add\n                /* \"--CODEGEN--\":11:51   */\n              gt\n                /* \"--CODEGEN--\":8:10   */\n              iszero\n              tag_199\n              jumpi\n                /* \"--CODEGEN--\":64:65   */\n              0x00\n                /* \"--CODEGEN--\":61:62   */\n              dup1\n                /* \"--CODEGEN--\":54:66   */\n              revert\n                /* \"--CODEGEN--\":8:10   */\n            tag_199:\n                /* \"Entity.sol\":5299:6680  function newDataToSend(address _receiver, string memory _description, string memory _key, string memory _value, bool direct) ... */\n              dup1\n              calldataload\n              swap1\n              0x20\n              add\n              swap2\n                /* \"--CODEGEN--\":100:109   */\n              dup5\n                /* \"--CODEGEN--\":95:96   */\n              0x01\n                /* \"--CODEGEN--\":81:93   */\n              dup4\n                /* \"--CODEGEN--\":77:97   */\n              mul\n                /* \"--CODEGEN--\":67:75   */\n              dup5\n                /* \"--CODEGEN--\":63:98   */\n              add\n                /* \"--CODEGEN--\":60:110   */\n              gt\n              shl(0x20, 0x01)\n                /* \"--CODEGEN--\":25:37   */\n              dup4\n                /* \"--CODEGEN--\":22:51   */\n              gt\n                /* \"--CODEGEN--\":11:118   */\n              or\n                /* \"--CODEGEN--\":8:10   */\n              iszero\n              tag_200\n              jumpi\n                /* \"--CODEGEN--\":131:132   */\n              0x00\n                /* \"--CODEGEN--\":128:129   */\n              dup1\n                /* \"--CODEGEN--\":121:133   */\n              revert\n                /* \"--CODEGEN--\":8:10   */\n            tag_200:\n                /* \"Entity.sol\":5299:6680  function newDataToSend(address _receiver, string memory _description, string memory _key, string memory _value, bool direct) ... */\n              swap2\n              swap1\n              dup1\n              dup1\n              0x1f\n              add\n              0x20\n              dup1\n              swap2\n              div\n              mul\n              0x20\n              add\n              mload(0x40)\n              swap1\n              dup2\n              add\n              0x40\n              mstore\n              dup1\n              swap4\n              swap3\n              swap2\n              swap1\n              dup2\n              dup2\n              mstore\n              0x20\n              add\n              dup4\n              dup4\n                /* \"--CODEGEN--\":30:33   */\n              dup1\n                /* \"--CODEGEN--\":22:28   */\n              dup3\n                /* \"--CODEGEN--\":14:20   */\n              dup5\n                /* \"--CODEGEN--\":1:34   */\n              calldatacopy\n                /* \"--CODEGEN--\":99:100   */\n              0x00\n                /* \"--CODEGEN--\":81:97   */\n              swap3\n              add\n                /* \"--CODEGEN--\":74:101   */\n              swap2\n              swap1\n              swap2\n              mstore\n              pop\n                /* \"Entity.sol\":5299:6680  function newDataToSend(address _receiver, string memory _description, string memory _key, string memory _value, bool direct) ... */\n              swap3\n              swap6\n              pop\n              pop\n              pop\n              pop\n              calldataload\n              iszero\n              iszero\n              swap1\n              pop\n              tag_201\n              jump\t// in\n                /* \"Entity.sol\":4443:4647  function approveMultipleToReceive(address multipleEntity, uint32 index)... */\n            tag_27:\n              tag_84\n              0x04\n              dup1\n              calldatasize\n              sub\n                /* \"--CODEGEN--\":15:17   */\n              0x40\n                /* \"--CODEGEN--\":10:13   */\n              dup2\n                /* \"--CODEGEN--\":7:18   */\n              lt\n                /* \"--CODEGEN--\":4:6   */\n              iszero\n              tag_216\n              jumpi\n                /* \"--CODEGEN--\":31:32   */\n              0x00\n                /* \"--CODEGEN--\":28:29   */\n              dup1\n                /* \"--CODEGEN--\":21:33   */\n              revert\n                /* \"--CODEGEN--\":4:6   */\n            tag_216:\n              pop\n                /* \"Entity.sol\":4443:4647  function approveMultipleToReceive(address multipleEntity, uint32 index)... */\n              dup1\n              calldataload\n              sub(shl(0xa0, 0x01), 0x01)\n              and\n              swap1\n              0x20\n              add\n              calldataload\n              0xffffffff\n              and\n              tag_217\n              jump\t// in\n                /* \"Entity.sol\":1263:1304  pendingData[] public pendingDataToReceive */\n            tag_28:\n              tag_218\n              0x04\n              dup1\n              calldatasize\n              sub\n                /* \"--CODEGEN--\":15:17   */\n              0x20\n                /* \"--CODEGEN--\":10:13   */\n              dup2\n                /* \"--CODEGEN--\":7:18   */\n              lt\n                /* \"--CODEGEN--\":4:6   */\n              iszero\n              tag_219\n              jumpi\n                /* \"--CODEGEN--\":31:32   */\n              0x00\n                /* \"--CODEGEN--\":28:29   */\n              dup1\n                /* \"--CODEGEN--\":21:33   */\n              revert\n                /* \"--CODEGEN--\":4:6   */\n            tag_219:\n              pop\n                /* \"Entity.sol\":1263:1304  pendingData[] public pendingDataToReceive */\n              calldataload\n              tag_220\n              jump\t// in\n            tag_218:\n              0x40\n              dup1\n              mload\n              sub(shl(0xa0, 0x01), 0x01)\n              dup1\n              dup8\n              and\n              dup3\n              mstore\n              dup6\n              and\n              0x20\n              dup1\n              dup4\n              add\n              swap2\n              swap1\n              swap2\n              mstore\n              dup4\n              iszero\n              iszero\n              0x60\n              dup4\n              add\n              mstore\n              0x80\n              swap3\n              dup3\n              add\n              dup4\n              dup2\n              mstore\n              dup6\n              mload\n              swap4\n              dup4\n              add\n              swap4\n              swap1\n              swap4\n              mstore\n              dup5\n              mload\n              swap2\n              swap3\n              swap2\n              0xa0\n              dup5\n              add\n              swap2\n              dup7\n              add\n              swap1\n              dup1\n              dup4\n              dup4\n              0x00\n                /* \"--CODEGEN--\":8:108   */\n            tag_221:\n                /* \"--CODEGEN--\":33:36   */\n              dup4\n                /* \"--CODEGEN--\":30:31   */\n              dup2\n                /* \"--CODEGEN--\":27:37   */\n              lt\n                /* \"--CODEGEN--\":8:108   */\n              iszero\n              tag_223\n              jumpi\n                /* \"--CODEGEN--\":90:101   */\n              dup2\n              dup2\n              add\n                /* \"--CODEGEN--\":84:102   */\n              mload\n                /* \"--CODEGEN--\":71:82   */\n              dup4\n              dup3\n              add\n                /* \"--CODEGEN--\":64:103   */\n              mstore\n                /* \"--CODEGEN--\":52:54   */\n              0x20\n                /* \"--CODEGEN--\":45:55   */\n              add\n                /* \"--CODEGEN--\":8:108   */\n              jump(tag_221)\n            tag_223:\n                /* \"--CODEGEN--\":12:26   */\n              pop\n                /* \"Entity.sol\":1263:1304  pendingData[] public pendingDataToReceive */\n              pop\n              pop\n              pop\n              swap1\n              pop\n              swap1\n              dup2\n              add\n              swap1\n              0x1f\n              and\n              dup1\n              iszero\n              tag_224\n              jumpi\n              dup1\n              dup3\n              sub\n              dup1\n              mload\n              0x01\n              dup4\n              0x20\n              sub\n              0x0100\n              exp\n              sub\n              not\n              and\n              dup2\n              mstore\n              0x20\n              add\n              swap2\n              pop\n            tag_224:\n              pop\n              swap6\n              pop\n              pop\n              pop\n              pop\n              pop\n              pop\n              mload(0x40)\n              dup1\n              swap2\n              sub\n              swap1\n              return\n                /* \"Entity.sol\":2563:2782  function _receiveData(string calldata _key, string calldata _value, uint32 index)... */\n            tag_29:\n              tag_84\n              0x04\n              dup1\n              calldatasize\n              sub\n                /* \"--CODEGEN--\":15:17   */\n              0x60\n                /* \"--CODEGEN--\":10:13   */\n              dup2\n                /* \"--CODEGEN--\":7:18   */\n              lt\n                /* \"--CODEGEN--\":4:6   */\n              iszero\n              tag_226\n              jumpi\n                /* \"--CODEGEN--\":31:32   */\n              0x00\n                /* \"--CODEGEN--\":28:29   */\n              dup1\n                /* \"--CODEGEN--\":21:33   */\n              revert\n                /* \"--CODEGEN--\":4:6   */\n            tag_226:\n                /* \"Entity.sol\":2563:2782  function _receiveData(string calldata _key, string calldata _value, uint32 index)... */\n              dup2\n              add\n              swap1\n              0x20\n              dup2\n              add\n              dup2\n              calldataload\n              shl(0x20, 0x01)\n                /* \"--CODEGEN--\":11:39   */\n              dup2\n              gt\n                /* \"--CODEGEN--\":8:10   */\n              iszero\n              tag_227\n              jumpi\n                /* \"--CODEGEN--\":52:53   */\n              0x00\n                /* \"--CODEGEN--\":49:50   */\n              dup1\n                /* \"--CODEGEN--\":42:54   */\n              revert\n                /* \"--CODEGEN--\":8:10   */\n            tag_227:\n                /* \"Entity.sol\":2563:2782  function _receiveData(string calldata _key, string calldata _value, uint32 index)... */\n              dup3\n              add\n                /* \"--CODEGEN--\":41:50   */\n              dup4\n                /* \"--CODEGEN--\":34:38   */\n              0x20\n                /* \"--CODEGEN--\":18:32   */\n              dup3\n                /* \"--CODEGEN--\":14:39   */\n              add\n                /* \"--CODEGEN--\":11:51   */\n              gt\n                /* \"--CODEGEN--\":8:10   */\n              iszero\n              tag_228\n              jumpi\n                /* \"--CODEGEN--\":64:65   */\n              0x00\n                /* \"--CODEGEN--\":61:62   */\n              dup1\n                /* \"--CODEGEN--\":54:66   */\n              revert\n                /* \"--CODEGEN--\":8:10   */\n            tag_228:\n                /* \"Entity.sol\":2563:2782  function _receiveData(string calldata _key, string calldata _value, uint32 index)... */\n              dup1\n              calldataload\n              swap1\n              0x20\n              add\n              swap2\n                /* \"--CODEGEN--\":100:109   */\n              dup5\n                /* \"--CODEGEN--\":95:96   */\n              0x01\n                /* \"--CODEGEN--\":81:93   */\n              dup4\n                /* \"--CODEGEN--\":77:97   */\n              mul\n                /* \"--CODEGEN--\":67:75   */\n              dup5\n                /* \"--CODEGEN--\":63:98   */\n              add\n                /* \"--CODEGEN--\":60:110   */\n              gt\n              shl(0x20, 0x01)\n                /* \"--CODEGEN--\":25:37   */\n              dup4\n                /* \"--CODEGEN--\":22:51   */\n              gt\n                /* \"--CODEGEN--\":11:118   */\n              or\n                /* \"--CODEGEN--\":8:10   */\n              iszero\n              tag_229\n              jumpi\n                /* \"--CODEGEN--\":131:132   */\n              0x00\n                /* \"--CODEGEN--\":128:129   */\n              dup1\n                /* \"--CODEGEN--\":121:133   */\n              revert\n                /* \"--CODEGEN--\":8:10   */\n            tag_229:\n                /* \"Entity.sol\":2563:2782  function _receiveData(string calldata _key, string calldata _value, uint32 index)... */\n              swap2\n              swap4\n              swap1\n              swap3\n              swap1\n              swap2\n              0x20\n              dup2\n              add\n              swap1\n              calldataload\n              shl(0x20, 0x01)\n                /* \"--CODEGEN--\":11:39   */\n              dup2\n              gt\n                /* \"--CODEGEN--\":8:10   */\n              iszero\n              tag_230\n              jumpi\n                /* \"--CODEGEN--\":52:53   */\n              0x00\n                /* \"--CODEGEN--\":49:50   */\n              dup1\n                /* \"--CODEGEN--\":42:54   */\n              revert\n                /* \"--CODEGEN--\":8:10   */\n            tag_230:\n                /* \"Entity.sol\":2563:2782  function _receiveData(string calldata _key, string calldata _value, uint32 index)... */\n              dup3\n              add\n                /* \"--CODEGEN--\":41:50   */\n              dup4\n                /* \"--CODEGEN--\":34:38   */\n              0x20\n                /* \"--CODEGEN--\":18:32   */\n              dup3\n                /* \"--CODEGEN--\":14:39   */\n              add\n                /* \"--CODEGEN--\":11:51   */\n              gt\n                /* \"--CODEGEN--\":8:10   */\n              iszero\n              tag_231\n              jumpi\n                /* \"--CODEGEN--\":64:65   */\n              0x00\n                /* \"--CODEGEN--\":61:62   */\n              dup1\n                /* \"--CODEGEN--\":54:66   */\n              revert\n                /* \"--CODEGEN--\":8:10   */\n            tag_231:\n                /* \"Entity.sol\":2563:2782  function _receiveData(string calldata _key, string calldata _value, uint32 index)... */\n              dup1\n              calldataload\n              swap1\n              0x20\n              add\n              swap2\n                /* \"--CODEGEN--\":100:109   */\n              dup5\n                /* \"--CODEGEN--\":95:96   */\n              0x01\n                /* \"--CODEGEN--\":81:93   */\n              dup4\n                /* \"--CODEGEN--\":77:97   */\n              mul\n                /* \"--CODEGEN--\":67:75   */\n              dup5\n                /* \"--CODEGEN--\":63:98   */\n              add\n                /* \"--CODEGEN--\":60:110   */\n              gt\n              shl(0x20, 0x01)\n                /* \"--CODEGEN--\":25:37   */\n              dup4\n                /* \"--CODEGEN--\":22:51   */\n              gt\n                /* \"--CODEGEN--\":11:118   */\n              or\n                /* \"--CODEGEN--\":8:10   */\n              iszero\n              tag_232\n              jumpi\n                /* \"--CODEGEN--\":131:132   */\n              0x00\n                /* \"--CODEGEN--\":128:129   */\n              dup1\n                /* \"--CODEGEN--\":121:133   */\n              revert\n                /* \"--CODEGEN--\":8:10   */\n            tag_232:\n                /* \"Entity.sol\":2563:2782  function _receiveData(string calldata _key, string calldata _value, uint32 index)... */\n              swap2\n              swap4\n              pop\n              swap2\n              pop\n              calldataload\n              0xffffffff\n              and\n              tag_233\n              jump\t// in\n                /* \"Entity.sol\":8468:8634  function dataSizeToSend(uint32 index) ... */\n            tag_30:\n              tag_97\n              0x04\n              dup1\n              calldatasize\n              sub\n                /* \"--CODEGEN--\":15:17   */\n              0x20\n                /* \"--CODEGEN--\":10:13   */\n              dup2\n                /* \"--CODEGEN--\":7:18   */\n              lt\n                /* \"--CODEGEN--\":4:6   */\n              iszero\n              tag_235\n              jumpi\n                /* \"--CODEGEN--\":31:32   */\n              0x00\n                /* \"--CODEGEN--\":28:29   */\n              dup1\n                /* \"--CODEGEN--\":21:33   */\n              revert\n                /* \"--CODEGEN--\":4:6   */\n            tag_235:\n              pop\n                /* \"Entity.sol\":8468:8634  function dataSizeToSend(uint32 index) ... */\n              calldataload\n              0xffffffff\n              and\n              tag_236\n              jump\t// in\n                /* \"Entity.sol\":1393:1431  pendingData[] public pendingDataToSend */\n            tag_31:\n              tag_218\n              0x04\n              dup1\n              calldatasize\n              sub\n                /* \"--CODEGEN--\":15:17   */\n              0x20\n                /* \"--CODEGEN--\":10:13   */\n              dup2\n                /* \"--CODEGEN--\":7:18   */\n              lt\n                /* \"--CODEGEN--\":4:6   */\n              iszero\n              tag_238\n              jumpi\n                /* \"--CODEGEN--\":31:32   */\n              0x00\n                /* \"--CODEGEN--\":28:29   */\n              dup1\n                /* \"--CODEGEN--\":21:33   */\n              revert\n                /* \"--CODEGEN--\":4:6   */\n            tag_238:\n              pop\n                /* \"Entity.sol\":1393:1431  pendingData[] public pendingDataToSend */\n              calldataload\n              tag_239\n              jump\t// in\n                /* \"Entity.sol\":1156:1221  mapping(address=>mapping(string=>bool)) public writtenDescription */\n            tag_32:\n              tag_109\n              0x04\n              dup1\n              calldatasize\n              sub\n                /* \"--CODEGEN--\":15:17   */\n              0x40\n                /* \"--CODEGEN--\":10:13   */\n              dup2\n                /* \"--CODEGEN--\":7:18   */\n              lt\n                /* \"--CODEGEN--\":4:6   */\n              iszero\n              tag_245\n              jumpi\n                /* \"--CODEGEN--\":31:32   */\n              0x00\n                /* \"--CODEGEN--\":28:29   */\n              dup1\n                /* \"--CODEGEN--\":21:33   */\n              revert\n                /* \"--CODEGEN--\":4:6   */\n            tag_245:\n                /* \"Entity.sol\":1156:1221  mapping(address=>mapping(string=>bool)) public writtenDescription */\n              dup2\n              calldataload\n              sub(shl(0xa0, 0x01), 0x01)\n              and\n              swap2\n              swap1\n              dup2\n              add\n              swap1\n              0x40\n              dup2\n              add\n              0x20\n              dup3\n              add\n              calldataload\n              shl(0x20, 0x01)\n                /* \"--CODEGEN--\":11:39   */\n              dup2\n              gt\n                /* \"--CODEGEN--\":8:10   */\n              iszero\n              tag_246\n              jumpi\n                /* \"--CODEGEN--\":52:53   */\n              0x00\n                /* \"--CODEGEN--\":49:50   */\n              dup1\n                /* \"--CODEGEN--\":42:54   */\n              revert\n                /* \"--CODEGEN--\":8:10   */\n            tag_246:\n                /* \"Entity.sol\":1156:1221  mapping(address=>mapping(string=>bool)) public writtenDescription */\n              dup3\n              add\n                /* \"--CODEGEN--\":41:50   */\n              dup4\n                /* \"--CODEGEN--\":34:38   */\n              0x20\n                /* \"--CODEGEN--\":18:32   */\n              dup3\n                /* \"--CODEGEN--\":14:39   */\n              add\n                /* \"--CODEGEN--\":11:51   */\n              gt\n                /* \"--CODEGEN--\":8:10   */\n              iszero\n              tag_247\n              jumpi\n                /* \"--CODEGEN--\":64:65   */\n              0x00\n                /* \"--CODEGEN--\":61:62   */\n              dup1\n                /* \"--CODEGEN--\":54:66   */\n              revert\n                /* \"--CODEGEN--\":8:10   */\n            tag_247:\n                /* \"Entity.sol\":1156:1221  mapping(address=>mapping(string=>bool)) public writtenDescription */\n              dup1\n              calldataload\n              swap1\n              0x20\n              add\n              swap2\n                /* \"--CODEGEN--\":100:109   */\n              dup5\n                /* \"--CODEGEN--\":95:96   */\n              0x01\n                /* \"--CODEGEN--\":81:93   */\n              dup4\n                /* \"--CODEGEN--\":77:97   */\n              mul\n                /* \"--CODEGEN--\":67:75   */\n              dup5\n                /* \"--CODEGEN--\":63:98   */\n              add\n                /* \"--CODEGEN--\":60:110   */\n              gt\n              shl(0x20, 0x01)\n                /* \"--CODEGEN--\":25:37   */\n              dup4\n                /* \"--CODEGEN--\":22:51   */\n              gt\n                /* \"--CODEGEN--\":11:118   */\n              or\n                /* \"--CODEGEN--\":8:10   */\n              iszero\n              tag_248\n              jumpi\n                /* \"--CODEGEN--\":131:132   */\n              0x00\n                /* \"--CODEGEN--\":128:129   */\n              dup1\n                /* \"--CODEGEN--\":121:133   */\n              revert\n                /* \"--CODEGEN--\":8:10   */\n            tag_248:\n                /* \"Entity.sol\":1156:1221  mapping(address=>mapping(string=>bool)) public writtenDescription */\n              swap2\n              swap1\n              dup1\n              dup1\n              0x1f\n              add\n              0x20\n              dup1\n              swap2\n              div\n              mul\n              0x20\n              add\n              mload(0x40)\n              swap1\n              dup2\n              add\n              0x40\n              mstore\n              dup1\n              swap4\n              swap3\n              swap2\n              swap1\n              dup2\n              dup2\n              mstore\n              0x20\n              add\n              dup4\n              dup4\n                /* \"--CODEGEN--\":30:33   */\n              dup1\n                /* \"--CODEGEN--\":22:28   */\n              dup3\n                /* \"--CODEGEN--\":14:20   */\n              dup5\n                /* \"--CODEGEN--\":1:34   */\n              calldatacopy\n                /* \"--CODEGEN--\":99:100   */\n              0x00\n                /* \"--CODEGEN--\":81:97   */\n              swap3\n              add\n                /* \"--CODEGEN--\":74:101   */\n              swap2\n              swap1\n              swap2\n              mstore\n              pop\n                /* \"Entity.sol\":1156:1221  mapping(address=>mapping(string=>bool)) public writtenDescription */\n              swap3\n              swap6\n              pop\n              tag_249\n              swap5\n              pop\n              pop\n              pop\n              pop\n              pop\n              jump\t// in\n                /* \"Entity.sol\":2200:2553  function _newData(string calldata _description)... */\n            tag_33:\n              tag_97\n              0x04\n              dup1\n              calldatasize\n              sub\n                /* \"--CODEGEN--\":15:17   */\n              0x20\n                /* \"--CODEGEN--\":10:13   */\n              dup2\n                /* \"--CODEGEN--\":7:18   */\n              lt\n                /* \"--CODEGEN--\":4:6   */\n              iszero\n              tag_251\n              jumpi\n                /* \"--CODEGEN--\":31:32   */\n              0x00\n                /* \"--CODEGEN--\":28:29   */\n              dup1\n                /* \"--CODEGEN--\":21:33   */\n              revert\n                /* \"--CODEGEN--\":4:6   */\n            tag_251:\n                /* \"Entity.sol\":2200:2553  function _newData(string calldata _description)... */\n              dup2\n              add\n              swap1\n              0x20\n              dup2\n              add\n              dup2\n              calldataload\n              shl(0x20, 0x01)\n                /* \"--CODEGEN--\":11:39   */\n              dup2\n              gt\n                /* \"--CODEGEN--\":8:10   */\n              iszero\n              tag_252\n              jumpi\n                /* \"--CODEGEN--\":52:53   */\n              0x00\n                /* \"--CODEGEN--\":49:50   */\n              dup1\n                /* \"--CODEGEN--\":42:54   */\n              revert\n                /* \"--CODEGEN--\":8:10   */\n            tag_252:\n                /* \"Entity.sol\":2200:2553  function _newData(string calldata _description)... */\n              dup3\n              add\n                /* \"--CODEGEN--\":41:50   */\n              dup4\n                /* \"--CODEGEN--\":34:38   */\n              0x20\n                /* \"--CODEGEN--\":18:32   */\n              dup3\n                /* \"--CODEGEN--\":14:39   */\n              add\n                /* \"--CODEGEN--\":11:51   */\n              gt\n                /* \"--CODEGEN--\":8:10   */\n              iszero\n              tag_253\n              jumpi\n                /* \"--CODEGEN--\":64:65   */\n              0x00\n                /* \"--CODEGEN--\":61:62   */\n              dup1\n                /* \"--CODEGEN--\":54:66   */\n              revert\n                /* \"--CODEGEN--\":8:10   */\n            tag_253:\n                /* \"Entity.sol\":2200:2553  function _newData(string calldata _description)... */\n              dup1\n              calldataload\n              swap1\n              0x20\n              add\n              swap2\n                /* \"--CODEGEN--\":100:109   */\n              dup5\n                /* \"--CODEGEN--\":95:96   */\n              0x01\n                /* \"--CODEGEN--\":81:93   */\n              dup4\n                /* \"--CODEGEN--\":77:97   */\n              mul\n                /* \"--CODEGEN--\":67:75   */\n              dup5\n                /* \"--CODEGEN--\":63:98   */\n              add\n                /* \"--CODEGEN--\":60:110   */\n              gt\n              shl(0x20, 0x01)\n                /* \"--CODEGEN--\":25:37   */\n              dup4\n                /* \"--CODEGEN--\":22:51   */\n              gt\n                /* \"--CODEGEN--\":11:118   */\n              or\n                /* \"--CODEGEN--\":8:10   */\n              iszero\n              tag_254\n              jumpi\n                /* \"--CODEGEN--\":131:132   */\n              0x00\n                /* \"--CODEGEN--\":128:129   */\n              dup1\n                /* \"--CODEGEN--\":121:133   */\n              revert\n                /* \"--CODEGEN--\":8:10   */\n            tag_254:\n              pop\n                /* \"Entity.sol\":2200:2553  function _newData(string calldata _description)... */\n              swap1\n              swap3\n              pop\n              swap1\n              pop\n              tag_255\n              jump\t// in\n                /* \"Entity.sol\":9289:9455  function descriptionLength(address source)... */\n            tag_34:\n              tag_97\n              0x04\n              dup1\n              calldatasize\n              sub\n                /* \"--CODEGEN--\":15:17   */\n              0x20\n                /* \"--CODEGEN--\":10:13   */\n              dup2\n                /* \"--CODEGEN--\":7:18   */\n              lt\n                /* \"--CODEGEN--\":4:6   */\n              iszero\n              tag_257\n              jumpi\n                /* \"--CODEGEN--\":31:32   */\n              0x00\n                /* \"--CODEGEN--\":28:29   */\n              dup1\n                /* \"--CODEGEN--\":21:33   */\n              revert\n                /* \"--CODEGEN--\":4:6   */\n            tag_257:\n              pop\n                /* \"Entity.sol\":9289:9455  function descriptionLength(address source)... */\n              calldataload\n              sub(shl(0xa0, 0x01), 0x01)\n              and\n              tag_258\n              jump\t// in\n                /* \"Entity.sol\":8308:8458  function pendingDataToSendCount() ... */\n            tag_35:\n              tag_97\n              tag_260\n              jump\t// in\n                /* \"Entity.sol\":729:779  mapping(address=>uint32) public recentSendingIndex */\n            tag_36:\n              tag_97\n              0x04\n              dup1\n              calldatasize\n              sub\n                /* \"--CODEGEN--\":15:17   */\n              0x20\n                /* \"--CODEGEN--\":10:13   */\n              dup2\n                /* \"--CODEGEN--\":7:18   */\n              lt\n                /* \"--CODEGEN--\":4:6   */\n              iszero\n              tag_262\n              jumpi\n                /* \"--CODEGEN--\":31:32   */\n              0x00\n                /* \"--CODEGEN--\":28:29   */\n              dup1\n                /* \"--CODEGEN--\":21:33   */\n              revert\n                /* \"--CODEGEN--\":4:6   */\n            tag_262:\n              pop\n                /* \"Entity.sol\":729:779  mapping(address=>uint32) public recentSendingIndex */\n              calldataload\n              sub(shl(0xa0, 0x01), 0x01)\n              and\n              tag_263\n              jump\t// in\n                /* \"Entity.sol\":5005:5260  function keyValueOfDataToReceive(uint32 index, uint32 keyIndex)... */\n            tag_37:\n              tag_63\n              0x04\n              dup1\n              calldatasize\n              sub\n                /* \"--CODEGEN--\":15:17   */\n              0x40\n                /* \"--CODEGEN--\":10:13   */\n              dup2\n                /* \"--CODEGEN--\":7:18   */\n              lt\n                /* \"--CODEGEN--\":4:6   */\n              iszero\n              tag_265\n              jumpi\n                /* \"--CODEGEN--\":31:32   */\n              0x00\n                /* \"--CODEGEN--\":28:29   */\n              dup1\n                /* \"--CODEGEN--\":21:33   */\n              revert\n                /* \"--CODEGEN--\":4:6   */\n            tag_265:\n              pop\n                /* \"Entity.sol\":5005:5260  function keyValueOfDataToReceive(uint32 index, uint32 keyIndex)... */\n              0xffffffff\n              dup2\n              calldataload\n              dup2\n              and\n              swap2\n              0x20\n              add\n              calldataload\n              and\n              tag_266\n              jump\t// in\n                /* \"Entity.sol\":8100:8298  function approveMultipleToSend(address multipleEntity, uint32 index)... */\n            tag_38:\n              tag_84\n              0x04\n              dup1\n              calldatasize\n              sub\n                /* \"--CODEGEN--\":15:17   */\n              0x40\n                /* \"--CODEGEN--\":10:13   */\n              dup2\n                /* \"--CODEGEN--\":7:18   */\n              lt\n                /* \"--CODEGEN--\":4:6   */\n              iszero\n              tag_276\n              jumpi\n                /* \"--CODEGEN--\":31:32   */\n              0x00\n                /* \"--CODEGEN--\":28:29   */\n              dup1\n                /* \"--CODEGEN--\":21:33   */\n              revert\n                /* \"--CODEGEN--\":4:6   */\n            tag_276:\n              pop\n                /* \"Entity.sol\":8100:8298  function approveMultipleToSend(address multipleEntity, uint32 index)... */\n              dup1\n              calldataload\n              sub(shl(0xa0, 0x01), 0x01)\n              and\n              swap1\n              0x20\n              add\n              calldataload\n              0xffffffff\n              and\n              tag_277\n              jump\t// in\n                /* \"Entity.sol\":703:723  bool public isSingle */\n            tag_39:\n              tag_109\n              tag_279\n              jump\t// in\n                /* \"Entity.sol\":7297:7549  function addDataMultipleToSend(address multipleEntity, string memory _key, string memory _value, uint32 index) ... */\n            tag_40:\n              tag_84\n              0x04\n              dup1\n              calldatasize\n              sub\n                /* \"--CODEGEN--\":15:18   */\n              0x80\n                /* \"--CODEGEN--\":10:13   */\n              dup2\n                /* \"--CODEGEN--\":7:19   */\n              lt\n                /* \"--CODEGEN--\":4:6   */\n              iszero\n              tag_281\n              jumpi\n                /* \"--CODEGEN--\":32:33   */\n              0x00\n                /* \"--CODEGEN--\":29:30   */\n              dup1\n                /* \"--CODEGEN--\":22:34   */\n              revert\n                /* \"--CODEGEN--\":4:6   */\n            tag_281:\n                /* \"Entity.sol\":7297:7549  function addDataMultipleToSend(address multipleEntity, string memory _key, string memory _value, uint32 index) ... */\n              dup2\n              calldataload\n              sub(shl(0xa0, 0x01), 0x01)\n              and\n              swap2\n              swap1\n              dup2\n              add\n              swap1\n              0x40\n              dup2\n              add\n              0x20\n              dup3\n              add\n              calldataload\n              shl(0x20, 0x01)\n                /* \"--CODEGEN--\":11:39   */\n              dup2\n              gt\n                /* \"--CODEGEN--\":8:10   */\n              iszero\n              tag_282\n              jumpi\n                /* \"--CODEGEN--\":52:53   */\n              0x00\n                /* \"--CODEGEN--\":49:50   */\n              dup1\n                /* \"--CODEGEN--\":42:54   */\n              revert\n                /* \"--CODEGEN--\":8:10   */\n            tag_282:\n                /* \"Entity.sol\":7297:7549  function addDataMultipleToSend(address multipleEntity, string memory _key, string memory _value, uint32 index) ... */\n              dup3\n              add\n                /* \"--CODEGEN--\":41:50   */\n              dup4\n                /* \"--CODEGEN--\":34:38   */\n              0x20\n                /* \"--CODEGEN--\":18:32   */\n              dup3\n                /* \"--CODEGEN--\":14:39   */\n              add\n                /* \"--CODEGEN--\":11:51   */\n              gt\n                /* \"--CODEGEN--\":8:10   */\n              iszero\n              tag_283\n              jumpi\n                /* \"--CODEGEN--\":64:65   */\n              0x00\n                /* \"--CODEGEN--\":61:62   */\n              dup1\n                /* \"--CODEGEN--\":54:66   */\n              revert\n                /* \"--CODEGEN--\":8:10   */\n            tag_283:\n                /* \"Entity.sol\":7297:7549  function addDataMultipleToSend(address multipleEntity, string memory _key, string memory _value, uint32 index) ... */\n              dup1\n              calldataload\n              swap1\n              0x20\n              add\n              swap2\n                /* \"--CODEGEN--\":100:109   */\n              dup5\n                /* \"--CODEGEN--\":95:96   */\n              0x01\n                /* \"--CODEGEN--\":81:93   */\n              dup4\n                /* \"--CODEGEN--\":77:97   */\n              mul\n                /* \"--CODEGEN--\":67:75   */\n              dup5\n                /* \"--CODEGEN--\":63:98   */\n              add\n                /* \"--CODEGEN--\":60:110   */\n              gt\n              shl(0x20, 0x01)\n                /* \"--CODEGEN--\":25:37   */\n              dup4\n                /* \"--CODEGEN--\":22:51   */\n              gt\n                /* \"--CODEGEN--\":11:118   */\n              or\n                /* \"--CODEGEN--\":8:10   */\n              iszero\n              tag_284\n              jumpi\n                /* \"--CODEGEN--\":131:132   */\n              0x00\n                /* \"--CODEGEN--\":128:129   */\n              dup1\n                /* \"--CODEGEN--\":121:133   */\n              revert\n                /* \"--CODEGEN--\":8:10   */\n            tag_284:\n                /* \"Entity.sol\":7297:7549  function addDataMultipleToSend(address multipleEntity, string memory _key, string memory _value, uint32 index) ... */\n              swap2\n              swap1\n              dup1\n              dup1\n              0x1f\n              add\n              0x20\n              dup1\n              swap2\n              div\n              mul\n              0x20\n              add\n              mload(0x40)\n              swap1\n              dup2\n              add\n              0x40\n              mstore\n              dup1\n              swap4\n              swap3\n              swap2\n              swap1\n              dup2\n              dup2\n              mstore\n              0x20\n              add\n              dup4\n              dup4\n                /* \"--CODEGEN--\":30:33   */\n              dup1\n                /* \"--CODEGEN--\":22:28   */\n              dup3\n                /* \"--CODEGEN--\":14:20   */\n              dup5\n                /* \"--CODEGEN--\":1:34   */\n              calldatacopy\n                /* \"--CODEGEN--\":99:100   */\n              0x00\n                /* \"--CODEGEN--\":81:97   */\n              swap3\n              add\n                /* \"--CODEGEN--\":74:101   */\n              swap2\n              swap1\n              swap2\n              mstore\n              pop\n                /* \"Entity.sol\":7297:7549  function addDataMultipleToSend(address multipleEntity, string memory _key, string memory _value, uint32 index) ... */\n              swap3\n              swap6\n              swap5\n              swap4\n              0x20\n              dup2\n              add\n              swap4\n              pop\n              calldataload\n              swap2\n              pop\n              pop\n              shl(0x20, 0x01)\n                /* \"--CODEGEN--\":11:39   */\n              dup2\n              gt\n                /* \"--CODEGEN--\":8:10   */\n              iszero\n              tag_285\n              jumpi\n                /* \"--CODEGEN--\":52:53   */\n              0x00\n                /* \"--CODEGEN--\":49:50   */\n              dup1\n                /* \"--CODEGEN--\":42:54   */\n              revert\n                /* \"--CODEGEN--\":8:10   */\n            tag_285:\n                /* \"Entity.sol\":7297:7549  function addDataMultipleToSend(address multipleEntity, string memory _key, string memory _value, uint32 index) ... */\n              dup3\n              add\n                /* \"--CODEGEN--\":41:50   */\n              dup4\n                /* \"--CODEGEN--\":34:38   */\n              0x20\n                /* \"--CODEGEN--\":18:32   */\n              dup3\n                /* \"--CODEGEN--\":14:39   */\n              add\n                /* \"--CODEGEN--\":11:51   */\n              gt\n                /* \"--CODEGEN--\":8:10   */\n              iszero\n              tag_286\n              jumpi\n                /* \"--CODEGEN--\":64:65   */\n              0x00\n                /* \"--CODEGEN--\":61:62   */\n              dup1\n                /* \"--CODEGEN--\":54:66   */\n              revert\n                /* \"--CODEGEN--\":8:10   */\n            tag_286:\n                /* \"Entity.sol\":7297:7549  function addDataMultipleToSend(address multipleEntity, string memory _key, string memory _value, uint32 index) ... */\n              dup1\n              calldataload\n              swap1\n              0x20\n              add\n              swap2\n                /* \"--CODEGEN--\":100:109   */\n              dup5\n                /* \"--CODEGEN--\":95:96   */\n              0x01\n                /* \"--CODEGEN--\":81:93   */\n              dup4\n                /* \"--CODEGEN--\":77:97   */\n              mul\n                /* \"--CODEGEN--\":67:75   */\n              dup5\n                /* \"--CODEGEN--\":63:98   */\n              add\n                /* \"--CODEGEN--\":60:110   */\n              gt\n              shl(0x20, 0x01)\n                /* \"--CODEGEN--\":25:37   */\n              dup4\n                /* \"--CODEGEN--\":22:51   */\n              gt\n                /* \"--CODEGEN--\":11:118   */\n              or\n                /* \"--CODEGEN--\":8:10   */\n              iszero\n              tag_287\n              jumpi\n                /* \"--CODEGEN--\":131:132   */\n              0x00\n                /* \"--CODEGEN--\":128:129   */\n              dup1\n                /* \"--CODEGEN--\":121:133   */\n              revert\n                /* \"--CODEGEN--\":8:10   */\n            tag_287:\n                /* \"Entity.sol\":7297:7549  function addDataMultipleToSend(address multipleEntity, string memory _key, string memory _value, uint32 index) ... */\n              swap2\n              swap1\n              dup1\n              dup1\n              0x1f\n              add\n              0x20\n              dup1\n              swap2\n              div\n              mul\n              0x20\n              add\n              mload(0x40)\n              swap1\n              dup2\n              add\n              0x40\n              mstore\n              dup1\n              swap4\n              swap3\n              swap2\n              swap1\n              dup2\n              dup2\n              mstore\n              0x20\n              add\n              dup4\n              dup4\n                /* \"--CODEGEN--\":30:33   */\n              dup1\n                /* \"--CODEGEN--\":22:28   */\n              dup3\n                /* \"--CODEGEN--\":14:20   */\n              dup5\n                /* \"--CODEGEN--\":1:34   */\n              calldatacopy\n                /* \"--CODEGEN--\":99:100   */\n              0x00\n                /* \"--CODEGEN--\":81:97   */\n              swap3\n              add\n                /* \"--CODEGEN--\":74:101   */\n              swap2\n              swap1\n              swap2\n              mstore\n              pop\n                /* \"Entity.sol\":7297:7549  function addDataMultipleToSend(address multipleEntity, string memory _key, string memory _value, uint32 index) ... */\n              swap3\n              swap6\n              pop\n              pop\n              pop\n              swap1\n              calldataload\n              0xffffffff\n              and\n              swap2\n              pop\n              tag_288\n              swap1\n              pop\n              jump\t// in\n                /* \"Entity.sol\":1049:1089  mapping(address=>bool) public hasWritten */\n            tag_41:\n              tag_109\n              0x04\n              dup1\n              calldatasize\n              sub\n                /* \"--CODEGEN--\":15:17   */\n              0x20\n                /* \"--CODEGEN--\":10:13   */\n              dup2\n                /* \"--CODEGEN--\":7:18   */\n              lt\n                /* \"--CODEGEN--\":4:6   */\n              iszero\n              tag_290\n              jumpi\n                /* \"--CODEGEN--\":31:32   */\n              0x00\n                /* \"--CODEGEN--\":28:29   */\n              dup1\n                /* \"--CODEGEN--\":21:33   */\n              revert\n                /* \"--CODEGEN--\":4:6   */\n            tag_290:\n              pop\n                /* \"Entity.sol\":1049:1089  mapping(address=>bool) public hasWritten */\n              calldataload\n              sub(shl(0xa0, 0x01), 0x01)\n              and\n              tag_291\n              jump\t// in\n                /* \"Entity.sol\":7056:7287  function addDataToSend(string memory _key, string memory _value, uint32 index) ... */\n            tag_42:\n              tag_84\n              0x04\n              dup1\n              calldatasize\n              sub\n                /* \"--CODEGEN--\":15:17   */\n              0x60\n                /* \"--CODEGEN--\":10:13   */\n              dup2\n                /* \"--CODEGEN--\":7:18   */\n              lt\n                /* \"--CODEGEN--\":4:6   */\n              iszero\n              tag_293\n              jumpi\n                /* \"--CODEGEN--\":31:32   */\n              0x00\n                /* \"--CODEGEN--\":28:29   */\n              dup1\n                /* \"--CODEGEN--\":21:33   */\n              revert\n                /* \"--CODEGEN--\":4:6   */\n            tag_293:\n                /* \"Entity.sol\":7056:7287  function addDataToSend(string memory _key, string memory _value, uint32 index) ... */\n              dup2\n              add\n              swap1\n              0x20\n              dup2\n              add\n              dup2\n              calldataload\n              shl(0x20, 0x01)\n                /* \"--CODEGEN--\":11:39   */\n              dup2\n              gt\n                /* \"--CODEGEN--\":8:10   */\n              iszero\n              tag_294\n              jumpi\n                /* \"--CODEGEN--\":52:53   */\n              0x00\n                /* \"--CODEGEN--\":49:50   */\n              dup1\n                /* \"--CODEGEN--\":42:54   */\n              revert\n                /* \"--CODEGEN--\":8:10   */\n            tag_294:\n                /* \"Entity.sol\":7056:7287  function addDataToSend(string memory _key, string memory _value, uint32 index) ... */\n              dup3\n              add\n                /* \"--CODEGEN--\":41:50   */\n              dup4\n                /* \"--CODEGEN--\":34:38   */\n              0x20\n                /* \"--CODEGEN--\":18:32   */\n              dup3\n                /* \"--CODEGEN--\":14:39   */\n              add\n                /* \"--CODEGEN--\":11:51   */\n              gt\n                /* \"--CODEGEN--\":8:10   */\n              iszero\n              tag_295\n              jumpi\n                /* \"--CODEGEN--\":64:65   */\n              0x00\n                /* \"--CODEGEN--\":61:62   */\n              dup1\n                /* \"--CODEGEN--\":54:66   */\n              revert\n                /* \"--CODEGEN--\":8:10   */\n            tag_295:\n                /* \"Entity.sol\":7056:7287  function addDataToSend(string memory _key, string memory _value, uint32 index) ... */\n              dup1\n              calldataload\n              swap1\n              0x20\n              add\n              swap2\n                /* \"--CODEGEN--\":100:109   */\n              dup5\n                /* \"--CODEGEN--\":95:96   */\n              0x01\n                /* \"--CODEGEN--\":81:93   */\n              dup4\n                /* \"--CODEGEN--\":77:97   */\n              mul\n                /* \"--CODEGEN--\":67:75   */\n              dup5\n                /* \"--CODEGEN--\":63:98   */\n              add\n                /* \"--CODEGEN--\":60:110   */\n              gt\n              shl(0x20, 0x01)\n                /* \"--CODEGEN--\":25:37   */\n              dup4\n                /* \"--CODEGEN--\":22:51   */\n              gt\n                /* \"--CODEGEN--\":11:118   */\n              or\n                /* \"--CODEGEN--\":8:10   */\n              iszero\n              tag_296\n              jumpi\n                /* \"--CODEGEN--\":131:132   */\n              0x00\n                /* \"--CODEGEN--\":128:129   */\n              dup1\n                /* \"--CODEGEN--\":121:133   */\n              revert\n                /* \"--CODEGEN--\":8:10   */\n            tag_296:\n                /* \"Entity.sol\":7056:7287  function addDataToSend(string memory _key, string memory _value, uint32 index) ... */\n              swap2\n              swap1\n              dup1\n              dup1\n              0x1f\n              add\n              0x20\n              dup1\n              swap2\n              div\n              mul\n              0x20\n              add\n              mload(0x40)\n              swap1\n              dup2\n              add\n              0x40\n              mstore\n              dup1\n              swap4\n              swap3\n              swap2\n              swap1\n              dup2\n              dup2\n              mstore\n              0x20\n              add\n              dup4\n              dup4\n                /* \"--CODEGEN--\":30:33   */\n              dup1\n                /* \"--CODEGEN--\":22:28   */\n              dup3\n                /* \"--CODEGEN--\":14:20   */\n              dup5\n                /* \"--CODEGEN--\":1:34   */\n              calldatacopy\n                /* \"--CODEGEN--\":99:100   */\n              0x00\n                /* \"--CODEGEN--\":81:97   */\n              swap3\n              add\n                /* \"--CODEGEN--\":74:101   */\n              swap2\n              swap1\n              swap2\n              mstore\n              pop\n                /* \"Entity.sol\":7056:7287  function addDataToSend(string memory _key, string memory _value, uint32 index) ... */\n              swap3\n              swap6\n              swap5\n              swap4\n              0x20\n              dup2\n              add\n              swap4\n              pop\n              calldataload\n              swap2\n              pop\n              pop\n              shl(0x20, 0x01)\n                /* \"--CODEGEN--\":11:39   */\n              dup2\n              gt\n                /* \"--CODEGEN--\":8:10   */\n              iszero\n              tag_297\n              jumpi\n                /* \"--CODEGEN--\":52:53   */\n              0x00\n                /* \"--CODEGEN--\":49:50   */\n              dup1\n                /* \"--CODEGEN--\":42:54   */\n              revert\n                /* \"--CODEGEN--\":8:10   */\n            tag_297:\n                /* \"Entity.sol\":7056:7287  function addDataToSend(string memory _key, string memory _value, uint32 index) ... */\n              dup3\n              add\n                /* \"--CODEGEN--\":41:50   */\n              dup4\n                /* \"--CODEGEN--\":34:38   */\n              0x20\n                /* \"--CODEGEN--\":18:32   */\n              dup3\n                /* \"--CODEGEN--\":14:39   */\n              add\n                /* \"--CODEGEN--\":11:51   */\n              gt\n                /* \"--CODEGEN--\":8:10   */\n              iszero\n              tag_298\n              jumpi\n                /* \"--CODEGEN--\":64:65   */\n              0x00\n                /* \"--CODEGEN--\":61:62   */\n              dup1\n                /* \"--CODEGEN--\":54:66   */\n              revert\n                /* \"--CODEGEN--\":8:10   */\n            tag_298:\n                /* \"Entity.sol\":7056:7287  function addDataToSend(string memory _key, string memory _value, uint32 index) ... */\n              dup1\n              calldataload\n              swap1\n              0x20\n              add\n              swap2\n                /* \"--CODEGEN--\":100:109   */\n              dup5\n                /* \"--CODEGEN--\":95:96   */\n              0x01\n                /* \"--CODEGEN--\":81:93   */\n              dup4\n                /* \"--CODEGEN--\":77:97   */\n              mul\n                /* \"--CODEGEN--\":67:75   */\n              dup5\n                /* \"--CODEGEN--\":63:98   */\n              add\n                /* \"--CODEGEN--\":60:110   */\n              gt\n              shl(0x20, 0x01)\n                /* \"--CODEGEN--\":25:37   */\n              dup4\n                /* \"--CODEGEN--\":22:51   */\n              gt\n                /* \"--CODEGEN--\":11:118   */\n              or\n                /* \"--CODEGEN--\":8:10   */\n              iszero\n              tag_299\n              jumpi\n                /* \"--CODEGEN--\":131:132   */\n              0x00\n                /* \"--CODEGEN--\":128:129   */\n              dup1\n                /* \"--CODEGEN--\":121:133   */\n              revert\n                /* \"--CODEGEN--\":8:10   */\n            tag_299:\n                /* \"Entity.sol\":7056:7287  function addDataToSend(string memory _key, string memory _value, uint32 index) ... */\n              swap2\n              swap1\n              dup1\n              dup1\n              0x1f\n              add\n              0x20\n              dup1\n              swap2\n              div\n              mul\n              0x20\n              add\n              mload(0x40)\n              swap1\n              dup2\n              add\n              0x40\n              mstore\n              dup1\n              swap4\n              swap3\n              swap2\n              swap1\n              dup2\n              dup2\n              mstore\n              0x20\n              add\n              dup4\n              dup4\n                /* \"--CODEGEN--\":30:33   */\n              dup1\n                /* \"--CODEGEN--\":22:28   */\n              dup3\n                /* \"--CODEGEN--\":14:20   */\n              dup5\n                /* \"--CODEGEN--\":1:34   */\n              calldatacopy\n                /* \"--CODEGEN--\":99:100   */\n              0x00\n                /* \"--CODEGEN--\":81:97   */\n              swap3\n              add\n                /* \"--CODEGEN--\":74:101   */\n              swap2\n              swap1\n              swap2\n              mstore\n              pop\n                /* \"Entity.sol\":7056:7287  function addDataToSend(string memory _key, string memory _value, uint32 index) ... */\n              swap3\n              swap6\n              pop\n              pop\n              pop\n              swap1\n              calldataload\n              0xffffffff\n              and\n              swap2\n              pop\n              tag_300\n              swap1\n              pop\n              jump\t// in\n                /* \"MultipleEntity.sol\":132:155  address[] public owners */\n            tag_52:\n              0x0d\n              dup2\n              dup2\n              sload\n              dup2\n              lt\n              tag_301\n              jumpi\n              invalid\n            tag_301:\n              0x00\n              swap2\n              dup3\n              mstore\n              0x20\n              swap1\n              swap2\n              keccak256\n              add\n              sload\n              sub(shl(0xa0, 0x01), 0x01)\n              and\n              swap1\n              pop\n              dup2\n              jump\t// out\n                /* \"Entity.sol\":9461:9622  function keysOfData(address src, string memory des)... */\n            tag_58:\n              sub(shl(0xa0, 0x01), 0x01)\n                /* \"Entity.sol\":9593:9605  Storage[src] */\n              dup3\n              and\n              0x00\n              swap1\n              dup2\n              mstore\n                /* \"Entity.sol\":9593:9600  Storage */\n              0x02\n                /* \"Entity.sol\":9593:9605  Storage[src] */\n              0x20\n              swap1\n              dup2\n              mstore\n              0x40\n              swap2\n              dup3\n              swap1\n              keccak256\n                /* \"Entity.sol\":9593:9610  Storage[src][des] */\n              swap2\n              mload\n              dup4\n              mload\n                /* \"Entity.sol\":9557:9570  string memory */\n              0x60\n              swap4\n                /* \"Entity.sol\":9593:9605  Storage[src] */\n              swap3\n                /* \"Entity.sol\":9606:9609  des */\n              dup6\n              swap3\n                /* \"Entity.sol\":9593:9610  Storage[src][des] */\n              swap2\n              dup3\n              swap2\n              dup5\n              add\n              swap1\n              dup1\n              dup4\n              dup4\n                /* \"--CODEGEN--\":36:189   */\n            tag_304:\n                /* \"--CODEGEN--\":66:68   */\n              0x20\n                /* \"--CODEGEN--\":61:64   */\n              dup4\n                /* \"--CODEGEN--\":58:69   */\n              lt\n                /* \"--CODEGEN--\":36:189   */\n              tag_306\n              jumpi\n                /* \"--CODEGEN--\":176:186   */\n              dup1\n              mload\n                /* \"--CODEGEN--\":164:187   */\n              dup3\n              mstore\n              not(0x1f)\n                /* \"--CODEGEN--\":139:151   */\n              swap1\n              swap3\n              add\n              swap2\n                /* \"--CODEGEN--\":98:100   */\n              0x20\n                /* \"--CODEGEN--\":89:101   */\n              swap2\n              dup3\n              add\n              swap2\n                /* \"--CODEGEN--\":114:126   */\n              add\n                /* \"--CODEGEN--\":36:189   */\n              jump(tag_304)\n            tag_306:\n                /* \"--CODEGEN--\":299:309   */\n              mload\n                /* \"--CODEGEN--\":344:354   */\n              dup2\n              mload\n              not(0x00)\n                /* \"--CODEGEN--\":263:265   */\n              0x20\n                /* \"--CODEGEN--\":259:271   */\n              swap5\n              dup6\n              sub\n                /* \"--CODEGEN--\":254:257   */\n              0x0100\n                /* \"--CODEGEN--\":250:272   */\n              swap1\n              dup2\n              exp\n                /* \"--CODEGEN--\":246:276   */\n              dup3\n              add\n                /* \"--CODEGEN--\":340:361   */\n              swap3\n              dup4\n              and\n                /* \"--CODEGEN--\":311:320   */\n              swap3\n              not\n                /* \"--CODEGEN--\":295:321   */\n              swap4\n              swap1\n              swap4\n              and\n                /* \"--CODEGEN--\":377:397   */\n              swap2\n              swap1\n              swap2\n              or\n                /* \"--CODEGEN--\":365:398   */\n              swap1\n              swap3\n              mstore\n                /* \"Entity.sol\":9593:9610  Storage[src][des] */\n              swap5\n              swap1\n              swap3\n              add\n              swap7\n              dup8\n              mstore\n              0x40\n              dup1\n              mload\n              swap8\n              dup9\n              swap1\n              sub\n              dup3\n              add\n              dup9\n              keccak256\n                /* \"Entity.sol\":9593:9615  Storage[src][des].keys */\n              0x02\n              swap1\n              dup2\n              add\n                /* \"Entity.sol\":9586:9615  return Storage[src][des].keys */\n              dup1\n              sload\n              0x1f\n                /* \"--CODEGEN--\":274:275   */\n              0x01\n                /* \"Entity.sol\":9586:9615  return Storage[src][des].keys */\n              dup3\n              and\n              iszero\n              swap1\n              swap9\n              mul\n              swap1\n              swap6\n              add\n              swap1\n              swap5\n              and\n              div\n              swap5\n              dup6\n              add\n              dup3\n              swap1\n              div\n              dup3\n              mul\n              dup9\n              add\n              dup3\n              add\n              swap1\n              mstore\n              dup4\n              dup8\n              mstore\n                /* \"Entity.sol\":9593:9615  Storage[src][des].keys */\n              swap1\n              swap5\n              pop\n                /* \"Entity.sol\":9586:9615  return Storage[src][des].keys */\n              swap2\n              swap3\n              pop\n              pop\n              dup4\n              add\n                /* \"Entity.sol\":9593:9615  Storage[src][des].keys */\n              dup3\n                /* \"Entity.sol\":9586:9615  return Storage[src][des].keys */\n              dup3\n              dup1\n              iszero\n              tag_307\n              jumpi\n              dup1\n              0x1f\n              lt\n              tag_308\n              jumpi\n              0x0100\n              dup1\n              dup4\n              sload\n              div\n              mul\n              dup4\n              mstore\n              swap2\n              0x20\n              add\n              swap2\n              jump(tag_307)\n            tag_308:\n              dup3\n              add\n              swap2\n              swap1\n              0x00\n              mstore\n              keccak256(0x00, 0x20)\n              swap1\n            tag_309:\n              dup2\n              sload\n              dup2\n              mstore\n              swap1\n              0x01\n              add\n              swap1\n              0x20\n              add\n              dup1\n              dup4\n              gt\n              tag_309\n              jumpi\n              dup3\n              swap1\n              sub\n              0x1f\n              and\n              dup3\n              add\n              swap2\n            tag_307:\n              pop\n              pop\n              pop\n              pop\n              pop\n              swap1\n              pop\n                /* \"Entity.sol\":9461:9622  function keysOfData(address src, string memory des)... */\n              swap3\n              swap2\n              pop\n              pop\n              jump\t// out\n                /* \"Entity.sol\":8644:8894  function keyValueOfDataToSend(uint32 index, uint32 keyIndex) ... */\n            tag_65:\n                /* \"Entity.sol\":8753:8766  string memory */\n              0x60\n                /* \"Entity.sol\":8768:8781  string memory */\n              dup1\n                /* \"Entity.sol\":8806:8823  pendingDataToSend */\n              0x0b\n                /* \"Entity.sol\":8824:8829  index */\n              dup5\n                /* \"Entity.sol\":8806:8830  pendingDataToSend[index] */\n              0xffffffff\n              and\n              dup2\n              sload\n              dup2\n              lt\n              tag_311\n              jumpi\n              invalid\n            tag_311:\n              swap1\n              0x00\n              mstore\n              keccak256(0x00, 0x20)\n              swap1\n              0x06\n              mul\n              add\n                /* \"Entity.sol\":8806:8834  pendingDataToSend[index].key */\n              0x03\n              add\n                /* \"Entity.sol\":8835:8843  keyIndex */\n              dup4\n                /* \"Entity.sol\":8806:8844  pendingDataToSend[index].key[keyIndex] */\n              0xffffffff\n              and\n              dup2\n              sload\n              dup2\n              lt\n              tag_313\n              jumpi\n              invalid\n            tag_313:\n              swap1\n              0x00\n              mstore\n              keccak256(0x00, 0x20)\n              add\n                /* \"Entity.sol\":8846:8863  pendingDataToSend */\n              0x0b\n                /* \"Entity.sol\":8864:8869  index */\n              dup6\n                /* \"Entity.sol\":8846:8870  pendingDataToSend[index] */\n              0xffffffff\n              and\n              dup2\n              sload\n              dup2\n              lt\n              tag_315\n              jumpi\n              invalid\n            tag_315:\n              swap1\n              0x00\n              mstore\n              keccak256(0x00, 0x20)\n              swap1\n              0x06\n              mul\n              add\n                /* \"Entity.sol\":8846:8876  pendingDataToSend[index].value */\n              0x04\n              add\n                /* \"Entity.sol\":8877:8885  keyIndex */\n              dup5\n                /* \"Entity.sol\":8846:8886  pendingDataToSend[index].value[keyIndex] */\n              0xffffffff\n              and\n              dup2\n              sload\n              dup2\n              lt\n              tag_317\n              jumpi\n              invalid\n            tag_317:\n              0x00\n              swap2\n              dup3\n              mstore\n              0x20\n              swap2\n              dup3\n              swap1\n              keccak256\n                /* \"Entity.sol\":8798:8887  return (pendingDataToSend[index].key[keyIndex], pendingDataToSend[index].value[keyIndex]) */\n              dup4\n              sload\n              0x40\n              dup1\n              mload\n              0x1f\n              0x02\n              not(0x00)\n              0x0100\n              0x01\n              dup8\n              and\n              iszero\n              mul\n              add\n              swap1\n              swap5\n              and\n              swap4\n              swap1\n              swap4\n              div\n              swap3\n              dup4\n              add\n              dup7\n              swap1\n              div\n              dup7\n              mul\n              dup2\n              add\n              dup7\n              add\n              swap1\n              swap2\n              mstore\n              dup2\n              dup2\n              mstore\n                /* \"Entity.sol\":8846:8886  pendingDataToSend[index].value[keyIndex] */\n              swap3\n              swap1\n              swap2\n              add\n              swap3\n                /* \"Entity.sol\":8798:8887  return (pendingDataToSend[index].key[keyIndex], pendingDataToSend[index].value[keyIndex]) */\n              dup5\n              swap2\n              swap1\n              dup4\n              add\n              dup3\n              dup3\n              dup1\n              iszero\n              tag_319\n              jumpi\n              dup1\n              0x1f\n              lt\n              tag_320\n              jumpi\n              0x0100\n              dup1\n              dup4\n              sload\n              div\n              mul\n              dup4\n              mstore\n              swap2\n              0x20\n              add\n              swap2\n              jump(tag_319)\n            tag_320:\n              dup3\n              add\n              swap2\n              swap1\n              0x00\n              mstore\n              keccak256(0x00, 0x20)\n              swap1\n            tag_321:\n              dup2\n              sload\n              dup2\n              mstore\n              swap1\n              0x01\n              add\n              swap1\n              0x20\n              add\n              dup1\n              dup4\n              gt\n              tag_321\n              jumpi\n              dup3\n              swap1\n              sub\n              0x1f\n              and\n              dup3\n              add\n              swap2\n            tag_319:\n              pop\n              pop\n              dup5\n              sload\n              0x40\n              dup1\n              mload\n              0x20\n              0x02\n              0x01\n              dup6\n              and\n              iszero\n              0x0100\n              mul\n              not(0x00)\n              add\n              swap1\n              swap5\n              and\n              swap4\n              swap1\n              swap4\n              div\n              0x1f\n              dup2\n              add\n              dup5\n              swap1\n              div\n              dup5\n              mul\n              dup3\n              add\n              dup5\n              add\n              swap1\n              swap3\n              mstore\n              dup2\n              dup2\n              mstore\n              swap6\n              swap8\n              pop\n              dup7\n              swap5\n              pop\n              swap3\n              pop\n              dup5\n              add\n              swap1\n              pop\n              dup3\n              dup3\n              dup1\n              iszero\n              tag_322\n              jumpi\n              dup1\n              0x1f\n              lt\n              tag_323\n              jumpi\n              0x0100\n              dup1\n              dup4\n              sload\n              div\n              mul\n              dup4\n              mstore\n              swap2\n              0x20\n              add\n              swap2\n              jump(tag_322)\n            tag_323:\n              dup3\n              add\n              swap2\n              swap1\n              0x00\n              mstore\n              keccak256(0x00, 0x20)\n              swap1\n            tag_324:\n              dup2\n              sload\n              dup2\n              mstore\n              swap1\n              0x01\n              add\n              swap1\n              0x20\n              add\n              dup1\n              dup4\n              gt\n              tag_324\n              jumpi\n              dup3\n              swap1\n              sub\n              0x1f\n              and\n              dup3\n              add\n              swap2\n            tag_322:\n              pop\n              pop\n              pop\n              pop\n              pop\n              swap1\n              pop\n              swap2\n              pop\n              swap2\n              pop\n                /* \"Entity.sol\":8644:8894  function keyValueOfDataToSend(uint32 index, uint32 keyIndex) ... */\n              swap3\n              pop\n              swap3\n              swap1\n              pop\n              jump\t// out\n                /* \"Entity.sol\":814:875  mapping(address=>mapping(string=>storingData)) public Storage */\n            tag_79:\n              0x02\n              0x20\n              dup2\n              dup2\n              mstore\n              0x00\n              swap4\n              dup5\n              mstore\n              0x40\n              swap4\n              dup5\n              swap1\n              keccak256\n                /* \"--CODEGEN--\":22:36   */\n              dup4\n              mload\n                /* \"--CODEGEN--\":143:175   */\n              dup1\n              dup6\n              add\n              dup4\n              add\n                /* \"--CODEGEN--\":198:218   */\n              dup1\n              mload\n                /* \"--CODEGEN--\":224:255   */\n              swap3\n              dup2\n              mstore\n                /* \"--CODEGEN--\":156:174   */\n              swap1\n              dup4\n              add\n                /* \"--CODEGEN--\":283:301   */\n              swap5\n              dup4\n              add\n                /* \"--CODEGEN--\":273:322   */\n              swap5\n              swap1\n              swap5\n              keccak256\n                /* \"--CODEGEN--\":328:360   */\n              swap4\n              mstore\n                /* \"Entity.sol\":814:875  mapping(address=>mapping(string=>storingData)) public Storage */\n              dup3\n              dup3\n              add\n              dup1\n              sload\n              dup6\n              mload\n              0x01\n              dup3\n              and\n              iszero\n              0x0100\n              mul\n              not(0x00)\n              add\n              swap1\n              swap2\n              and\n              swap4\n              swap1\n              swap4\n              div\n              0x1f\n              dup2\n              add\n              dup4\n              swap1\n              div\n              dup4\n              mul\n              dup5\n              add\n              dup4\n              add\n              swap1\n              swap6\n              mstore\n              dup5\n              dup4\n              mstore\n                /* \"--CODEGEN--\":273:322   */\n              swap3\n              swap4\n                /* \"Entity.sol\":814:875  mapping(address=>mapping(string=>storingData)) public Storage */\n              swap2\n              swap3\n              swap2\n              swap1\n              dup4\n              add\n              dup3\n              dup3\n              dup1\n              iszero\n              tag_325\n              jumpi\n              dup1\n              0x1f\n              lt\n              tag_326\n              jumpi\n              0x0100\n              dup1\n              dup4\n              sload\n              div\n              mul\n              dup4\n              mstore\n              swap2\n              0x20\n              add\n              swap2\n              jump(tag_325)\n            tag_326:\n              dup3\n              add\n              swap2\n              swap1\n              0x00\n              mstore\n              keccak256(0x00, 0x20)\n              swap1\n            tag_327:\n              dup2\n              sload\n              dup2\n              mstore\n              swap1\n              0x01\n              add\n              swap1\n              0x20\n              add\n              dup1\n              dup4\n              gt\n              tag_327\n              jumpi\n              dup3\n              swap1\n              sub\n              0x1f\n              and\n              dup3\n              add\n              swap2\n            tag_325:\n              pop\n              pop\n              pop\n              pop\n              pop\n              swap1\n              pop\n              dup2\n              jump\t// out\n                /* \"MultipleEntity.sol\":1442:1827  function removeOwner(address owner)... */\n            tag_86:\n                /* \"MultipleEntity.sol\":224:234  msg.sender */\n              caller\n                /* \"MultipleEntity.sol\":216:235  isOwner[msg.sender] */\n              0x00\n              swap1\n              dup2\n              mstore\n                /* \"MultipleEntity.sol\":216:223  isOwner */\n              0x0c\n                /* \"MultipleEntity.sol\":216:235  isOwner[msg.sender] */\n              0x20\n              mstore\n              0x40\n              swap1\n              keccak256\n              sload\n              0xff\n              and\n                /* \"MultipleEntity.sol\":208:236  require(isOwner[msg.sender]) */\n              tag_329\n              jumpi\n                /* \"--CODEGEN--\":12:13   */\n              0x00\n                /* \"--CODEGEN--\":9:10   */\n              dup1\n                /* \"--CODEGEN--\":2:14   */\n              revert\n                /* \"MultipleEntity.sol\":208:236  require(isOwner[msg.sender]) */\n            tag_329:\n              sub(shl(0xa0, 0x01), 0x01)\n                /* \"MultipleEntity.sol\":670:684  isOwner[owner] */\n              dup2\n              and\n              0x00\n              swap1\n              dup2\n              mstore\n                /* \"MultipleEntity.sol\":670:677  isOwner */\n              0x0c\n                /* \"MultipleEntity.sol\":670:684  isOwner[owner] */\n              0x20\n              mstore\n              0x40\n              swap1\n              keccak256\n              sload\n              dup2\n              swap1\n              0xff\n              and\n                /* \"MultipleEntity.sol\":662:685  require(isOwner[owner]) */\n              tag_331\n              jumpi\n                /* \"--CODEGEN--\":12:13   */\n              0x00\n                /* \"--CODEGEN--\":9:10   */\n              dup1\n                /* \"--CODEGEN--\":2:14   */\n              revert\n                /* \"MultipleEntity.sol\":662:685  require(isOwner[owner]) */\n            tag_331:\n                /* \"MultipleEntity.sol\":1567:1573  owners */\n              0x0d\n                /* \"MultipleEntity.sol\":1567:1580  owners.length */\n              sload\n                /* \"MultipleEntity.sol\":1583:1584  1 */\n              0x01\n              lt\n                /* \"MultipleEntity.sol\":1559:1585  require(owners.length > 1) */\n              tag_333\n              jumpi\n                /* \"--CODEGEN--\":12:13   */\n              0x00\n                /* \"--CODEGEN--\":9:10   */\n              dup1\n                /* \"--CODEGEN--\":2:14   */\n              revert\n                /* \"MultipleEntity.sol\":1559:1585  require(owners.length > 1) */\n            tag_333:\n              sub(shl(0xa0, 0x01), 0x01)\n                /* \"MultipleEntity.sol\":1595:1609  isOwner[owner] */\n              dup3\n              and\n                /* \"MultipleEntity.sol\":1612:1617  false */\n              0x00\n                /* \"MultipleEntity.sol\":1595:1609  isOwner[owner] */\n              swap1\n              dup2\n              mstore\n                /* \"MultipleEntity.sol\":1595:1602  isOwner */\n              0x0c\n                /* \"MultipleEntity.sol\":1595:1609  isOwner[owner] */\n              0x20\n              mstore\n              0x40\n              dup2\n              keccak256\n                /* \"MultipleEntity.sol\":1595:1617  isOwner[owner] = false */\n              dup1\n              sload\n              not(0xff)\n              and\n              swap1\n              sstore\n                /* \"MultipleEntity.sol\":1627:1799  for (uint32 i=0; i<owners.length - 1; i++)... */\n            tag_334:\n                /* \"MultipleEntity.sol\":1646:1652  owners */\n              0x0d\n                /* \"MultipleEntity.sol\":1646:1659  owners.length */\n              sload\n              not(0x00)\n                /* \"MultipleEntity.sol\":1646:1663  owners.length - 1 */\n              add\n                /* \"MultipleEntity.sol\":1644:1663  i<owners.length - 1 */\n              0xffffffff\n              dup3\n              and\n              lt\n                /* \"MultipleEntity.sol\":1627:1799  for (uint32 i=0; i<owners.length - 1; i++)... */\n              iszero\n              tag_335\n              jumpi\n                /* \"MultipleEntity.sol\":1686:1692  owners */\n              0x0d\n                /* \"MultipleEntity.sol\":1686:1695  owners[i] */\n              dup1\n              sload\n              sub(shl(0xa0, 0x01), 0x01)\n                /* \"MultipleEntity.sol\":1686:1704  owners[i] == owner */\n              dup6\n              and\n              swap2\n                /* \"MultipleEntity.sol\":1686:1692  owners */\n              swap1\n                /* \"MultipleEntity.sol\":1686:1695  owners[i] */\n              0xffffffff\n              dup5\n              and\n              swap1\n              dup2\n              lt\n              tag_337\n              jumpi\n              invalid\n            tag_337:\n              0x00\n              swap2\n              dup3\n              mstore\n              0x20\n              swap1\n              swap2\n              keccak256\n              add\n              sload\n              sub(shl(0xa0, 0x01), 0x01)\n              and\n                /* \"MultipleEntity.sol\":1686:1704  owners[i] == owner */\n              eq\n                /* \"MultipleEntity.sol\":1682:1799  if (owners[i] == owner) {... */\n              iszero\n              tag_339\n              jumpi\n                /* \"MultipleEntity.sol\":1736:1742  owners */\n              0x0d\n                /* \"MultipleEntity.sol\":1743:1756  owners.length */\n              dup1\n              sload\n              not(0x00)\n                /* \"MultipleEntity.sol\":1743:1760  owners.length - 1 */\n              dup2\n              add\n              swap1\n                /* \"MultipleEntity.sol\":1736:1761  owners[owners.length - 1] */\n              dup2\n              lt\n              tag_340\n              jumpi\n              invalid\n            tag_340:\n              0x00\n              swap2\n              dup3\n              mstore\n              0x20\n              swap1\n              swap2\n              keccak256\n              add\n              sload\n                /* \"MultipleEntity.sol\":1724:1730  owners */\n              0x0d\n                /* \"MultipleEntity.sol\":1724:1733  owners[i] */\n              dup1\n              sload\n              sub(shl(0xa0, 0x01), 0x01)\n                /* \"MultipleEntity.sol\":1736:1761  owners[owners.length - 1] */\n              swap1\n              swap3\n              and\n              swap2\n                /* \"MultipleEntity.sol\":1724:1733  owners[i] */\n              0xffffffff\n              dup5\n              and\n              swap1\n              dup2\n              lt\n              tag_342\n              jumpi\n              invalid\n            tag_342:\n              0x00\n              swap2\n              dup3\n              mstore\n              0x20\n              swap1\n              swap2\n              keccak256\n              add\n                /* \"MultipleEntity.sol\":1724:1761  owners[i] = owners[owners.length - 1] */\n              dup1\n              sload\n              not(sub(shl(0xa0, 0x01), 0x01))\n              and\n              sub(shl(0xa0, 0x01), 0x01)\n              swap3\n              swap1\n              swap3\n              and\n              swap2\n              swap1\n              swap2\n              or\n              swap1\n              sstore\n                /* \"MultipleEntity.sol\":1779:1784  break */\n              jump(tag_335)\n                /* \"MultipleEntity.sol\":1682:1799  if (owners[i] == owner) {... */\n            tag_339:\n                /* \"MultipleEntity.sol\":1665:1668  i++ */\n              0x01\n              add\n                /* \"MultipleEntity.sol\":1627:1799  for (uint32 i=0; i<owners.length - 1; i++)... */\n              jump(tag_334)\n            tag_335:\n              pop\n                /* \"MultipleEntity.sol\":1808:1814  owners */\n              0x0d\n                /* \"MultipleEntity.sol\":1808:1820  owners.pop() */\n              dup1\n              sload\n              dup1\n              tag_344\n              jumpi\n              invalid\n            tag_344:\n              0x00\n              dup3\n              dup2\n              mstore\n              0x20\n              swap1\n              keccak256\n              not(0x00)\n              swap1\n              dup3\n              add\n              dup2\n              add\n              dup1\n              sload\n              not(sub(shl(0xa0, 0x01), 0x01))\n              and\n              swap1\n              sstore\n              add\n              swap1\n              sstore\n              pop\n              pop\n                /* \"MultipleEntity.sol\":1442:1827  function removeOwner(address owner)... */\n              jump\t// out\n                /* \"Entity.sol\":881:942  mapping(address=>mapping(string=>string)) public MarkupsOwner */\n            tag_92:\n              0x03\n              0x20\n              swap1\n              dup2\n              mstore\n              0x00\n              swap3\n              dup4\n              mstore\n              0x40\n              swap3\n              dup4\n              swap1\n              keccak256\n                /* \"--CODEGEN--\":22:36   */\n              dup3\n              mload\n                /* \"--CODEGEN--\":143:175   */\n              dup1\n              dup5\n              add\n              dup4\n              add\n                /* \"--CODEGEN--\":198:218   */\n              dup1\n              mload\n                /* \"--CODEGEN--\":224:255   */\n              swap3\n              dup2\n              mstore\n                /* \"--CODEGEN--\":156:174   */\n              swap1\n              dup4\n              add\n                /* \"--CODEGEN--\":283:301   */\n              swap4\n              dup4\n              add\n                /* \"--CODEGEN--\":273:322   */\n              swap4\n              swap1\n              swap4\n              keccak256\n                /* \"--CODEGEN--\":328:360   */\n              swap3\n              mstore\n                /* \"Entity.sol\":881:942  mapping(address=>mapping(string=>string)) public MarkupsOwner */\n              dup2\n              sload\n              dup4\n              mload\n              0x02\n              0x01\n              dup4\n              and\n              iszero\n              0x0100\n              mul\n              not(0x00)\n              add\n              swap1\n              swap3\n              and\n              swap2\n              swap1\n              swap2\n              div\n              0x1f\n              dup2\n              add\n              dup4\n              swap1\n              div\n              dup4\n              mul\n              dup3\n              add\n              dup4\n              add\n              swap1\n              swap5\n              mstore\n              dup4\n              dup2\n              mstore\n              swap3\n              swap1\n              dup4\n              add\n                /* \"--CODEGEN--\":273:322   */\n              dup3\n                /* \"Entity.sol\":881:942  mapping(address=>mapping(string=>string)) public MarkupsOwner */\n              dup3\n              dup1\n              iszero\n              tag_346\n              jumpi\n              dup1\n              0x1f\n              lt\n              tag_347\n              jumpi\n              0x0100\n              dup1\n              dup4\n              sload\n              div\n              mul\n              dup4\n              mstore\n              swap2\n              0x20\n              add\n              swap2\n              jump(tag_346)\n            tag_347:\n              dup3\n              add\n              swap2\n              swap1\n              0x00\n              mstore\n              keccak256(0x00, 0x20)\n              swap1\n            tag_348:\n              dup2\n              sload\n              dup2\n              mstore\n              swap1\n              0x01\n              add\n              swap1\n              0x20\n              add\n              dup1\n              dup4\n              gt\n              tag_348\n              jumpi\n              dup3\n              swap1\n              sub\n              0x1f\n              and\n              dup3\n              add\n              swap2\n            tag_346:\n              pop\n              pop\n              pop\n              pop\n              pop\n              dup2\n              jump\t// out\n                /* \"Entity.sol\":6690:7046  function newDataMultipleToSend(address multipleEntity, address _receiver, ... */\n            tag_108:\n                /* \"MultipleEntity.sol\":224:234  msg.sender */\n              caller\n                /* \"Entity.sol\":6909:6915  uint32 */\n              0x00\n                /* \"MultipleEntity.sol\":216:235  isOwner[msg.sender] */\n              swap1\n              dup2\n              mstore\n                /* \"MultipleEntity.sol\":216:223  isOwner */\n              0x0c\n                /* \"MultipleEntity.sol\":216:235  isOwner[msg.sender] */\n              0x20\n              mstore\n              0x40\n              dup2\n              keccak256\n              sload\n              0xff\n              and\n                /* \"MultipleEntity.sol\":208:236  require(isOwner[msg.sender]) */\n              tag_350\n              jumpi\n                /* \"--CODEGEN--\":12:13   */\n              0x00\n                /* \"--CODEGEN--\":9:10   */\n              dup1\n                /* \"--CODEGEN--\":2:14   */\n              revert\n                /* \"MultipleEntity.sol\":208:236  require(isOwner[msg.sender]) */\n            tag_350:\n                /* \"Entity.sol\":6976:7039  me.newDataToSend(_receiver, _description, _key, _value, direct) */\n              mload(0x40)\n              shl(0xe1, 0x460b10a9)\n              dup2\n              mstore\n              sub(shl(0xa0, 0x01), 0x01)\n              dup8\n              dup2\n              and\n              0x04\n              dup4\n              add\n              swap1\n              dup2\n              mstore\n              dup5\n              iszero\n              iszero\n              0x84\n              dup5\n              add\n              mstore\n              0xa0\n              0x24\n              dup5\n              add\n              swap1\n              dup2\n              mstore\n              dup9\n              mload\n              0xa4\n              dup6\n              add\n              mstore\n              dup9\n              mload\n                /* \"Entity.sol\":6951:6965  multipleEntity */\n              dup12\n              swap5\n                /* \"Entity.sol\":6976:6992  me.newDataToSend */\n              swap4\n              dup6\n              and\n              swap4\n              0x8c162152\n              swap4\n                /* \"Entity.sol\":6993:7002  _receiver */\n              dup13\n              swap4\n                /* \"Entity.sol\":7004:7016  _description */\n              dup13\n              swap4\n                /* \"Entity.sol\":7018:7022  _key */\n              dup13\n              swap4\n                /* \"Entity.sol\":7024:7030  _value */\n              dup13\n              swap4\n                /* \"Entity.sol\":7032:7038  direct */\n              dup13\n              swap4\n                /* \"Entity.sol\":6976:7039  me.newDataToSend(_receiver, _description, _key, _value, direct) */\n              swap1\n              swap3\n              swap1\n              swap2\n              0x44\n              dup2\n              add\n              swap2\n              0x64\n              dup3\n              add\n              swap2\n              0xc4\n              add\n              swap1\n              0x20\n              dup11\n              add\n              swap1\n              dup1\n              dup4\n              dup4\n                /* \"Entity.sol\":6932:6941  Entity me */\n              0x00\n                /* \"--CODEGEN--\":8:108   */\n            tag_352:\n                /* \"--CODEGEN--\":33:36   */\n              dup4\n                /* \"--CODEGEN--\":30:31   */\n              dup2\n                /* \"--CODEGEN--\":27:37   */\n              lt\n                /* \"--CODEGEN--\":8:108   */\n              iszero\n              tag_354\n              jumpi\n                /* \"--CODEGEN--\":90:101   */\n              dup2\n              dup2\n              add\n                /* \"--CODEGEN--\":84:102   */\n              mload\n                /* \"--CODEGEN--\":71:82   */\n              dup4\n              dup3\n              add\n                /* \"--CODEGEN--\":64:103   */\n              mstore\n                /* \"--CODEGEN--\":52:54   */\n              0x20\n                /* \"--CODEGEN--\":45:55   */\n              add\n                /* \"--CODEGEN--\":8:108   */\n              jump(tag_352)\n            tag_354:\n                /* \"--CODEGEN--\":12:26   */\n              pop\n                /* \"Entity.sol\":6976:7039  me.newDataToSend(_receiver, _description, _key, _value, direct) */\n              pop\n              pop\n              pop\n              swap1\n              pop\n              swap1\n              dup2\n              add\n              swap1\n              0x1f\n              and\n              dup1\n              iszero\n              tag_355\n              jumpi\n              dup1\n              dup3\n              sub\n              dup1\n              mload\n              0x01\n              dup4\n              0x20\n              sub\n              0x0100\n              exp\n              sub\n              not\n              and\n              dup2\n              mstore\n              0x20\n              add\n              swap2\n              pop\n            tag_355:\n              pop\n              dup5\n              dup2\n              sub\n              dup4\n              mstore\n              dup8\n              mload\n              dup2\n              mstore\n              dup8\n              mload\n              0x20\n              swap2\n              dup3\n              add\n              swap2\n              dup10\n              add\n              swap1\n              dup1\n              dup4\n              dup4\n                /* \"--CODEGEN--\":23:24   */\n              0x00\n                /* \"--CODEGEN--\":8:108   */\n            tag_356:\n                /* \"--CODEGEN--\":33:36   */\n              dup4\n                /* \"--CODEGEN--\":30:31   */\n              dup2\n                /* \"--CODEGEN--\":27:37   */\n              lt\n                /* \"--CODEGEN--\":8:108   */\n              iszero\n              tag_358\n              jumpi\n                /* \"--CODEGEN--\":90:101   */\n              dup2\n              dup2\n              add\n                /* \"--CODEGEN--\":84:102   */\n              mload\n                /* \"--CODEGEN--\":71:82   */\n              dup4\n              dup3\n              add\n                /* \"--CODEGEN--\":64:103   */\n              mstore\n                /* \"--CODEGEN--\":52:54   */\n              0x20\n                /* \"--CODEGEN--\":45:55   */\n              add\n                /* \"--CODEGEN--\":8:108   */\n              jump(tag_356)\n            tag_358:\n                /* \"--CODEGEN--\":12:26   */\n              pop\n                /* \"Entity.sol\":6976:7039  me.newDataToSend(_receiver, _description, _key, _value, direct) */\n              pop\n              pop\n              pop\n              swap1\n              pop\n              swap1\n              dup2\n              add\n              swap1\n              0x1f\n              and\n              dup1\n              iszero\n              tag_359\n              jumpi\n              dup1\n              dup3\n              sub\n              dup1\n              mload\n              0x01\n              dup4\n              0x20\n              sub\n              0x0100\n              exp\n              sub\n              not\n              and\n              dup2\n              mstore\n              0x20\n              add\n              swap2\n              pop\n            tag_359:\n              pop\n              dup5\n              dup2\n              sub\n              dup3\n              mstore\n              dup7\n              mload\n              dup2\n              mstore\n              dup7\n              mload\n              0x20\n              swap2\n              dup3\n              add\n              swap2\n              dup9\n              add\n              swap1\n              dup1\n              dup4\n              dup4\n                /* \"--CODEGEN--\":23:24   */\n              0x00\n                /* \"--CODEGEN--\":8:108   */\n            tag_360:\n                /* \"--CODEGEN--\":33:36   */\n              dup4\n                /* \"--CODEGEN--\":30:31   */\n              dup2\n                /* \"--CODEGEN--\":27:37   */\n              lt\n                /* \"--CODEGEN--\":8:108   */\n              iszero\n              tag_362\n              jumpi\n                /* \"--CODEGEN--\":90:101   */\n              dup2\n              dup2\n              add\n                /* \"--CODEGEN--\":84:102   */\n              mload\n                /* \"--CODEGEN--\":71:82   */\n              dup4\n              dup3\n              add\n                /* \"--CODEGEN--\":64:103   */\n              mstore\n                /* \"--CODEGEN--\":52:54   */\n              0x20\n                /* \"--CODEGEN--\":45:55   */\n              add\n                /* \"--CODEGEN--\":8:108   */\n              jump(tag_360)\n            tag_362:\n                /* \"--CODEGEN--\":12:26   */\n              pop\n                /* \"Entity.sol\":6976:7039  me.newDataToSend(_receiver, _description, _key, _value, direct) */\n              pop\n              pop\n              pop\n              swap1\n              pop\n              swap1\n              dup2\n              add\n              swap1\n              0x1f\n              and\n              dup1\n              iszero\n              tag_363\n              jumpi\n              dup1\n              dup3\n              sub\n              dup1\n              mload\n              0x01\n              dup4\n              0x20\n              sub\n              0x0100\n              exp\n              sub\n              not\n              and\n              dup2\n              mstore\n              0x20\n              add\n              swap2\n              pop\n            tag_363:\n              pop\n              swap9\n              pop\n              pop\n              pop\n              pop\n              pop\n              pop\n              pop\n              pop\n              pop\n              0x00\n              mload(0x40)\n              dup1\n              dup4\n              sub\n              dup2\n              0x00\n              dup8\n              dup1\n              extcodesize\n              iszero\n                /* \"--CODEGEN--\":5:14   */\n              dup1\n                /* \"--CODEGEN--\":2:4   */\n              iszero\n              tag_364\n              jumpi\n                /* \"--CODEGEN--\":27:28   */\n              0x00\n                /* \"--CODEGEN--\":24:25   */\n              dup1\n                /* \"--CODEGEN--\":17:29   */\n              revert\n                /* \"--CODEGEN--\":2:4   */\n            tag_364:\n                /* \"Entity.sol\":6976:7039  me.newDataToSend(_receiver, _description, _key, _value, direct) */\n              pop\n              gas\n              call\n              iszero\n                /* \"--CODEGEN--\":8:17   */\n              dup1\n                /* \"--CODEGEN--\":5:7   */\n              iszero\n              tag_366\n              jumpi\n                /* \"--CODEGEN--\":45:61   */\n              returndatasize\n                /* \"--CODEGEN--\":42:43   */\n              0x00\n                /* \"--CODEGEN--\":39:40   */\n              dup1\n                /* \"--CODEGEN--\":24:62   */\n              returndatacopy\n                /* \"--CODEGEN--\":77:93   */\n              returndatasize\n                /* \"--CODEGEN--\":74:75   */\n              0x00\n                /* \"--CODEGEN--\":67:94   */\n              revert\n                /* \"--CODEGEN--\":5:7   */\n            tag_366:\n                /* \"Entity.sol\":6976:7039  me.newDataToSend(_receiver, _description, _key, _value, direct) */\n              pop\n              pop\n              pop\n              pop\n                /* \"MultipleEntity.sol\":246:247  _ */\n              pop\n                /* \"Entity.sol\":6690:7046  function newDataMultipleToSend(address multipleEntity, address _receiver, ... */\n              swap7\n              swap6\n              pop\n              pop\n              pop\n              pop\n              pop\n              pop\n              jump\t// out\n                /* \"MultipleEntity.sol\":89:126  mapping(address=>bool) public isOwner */\n            tag_111:\n              mstore(0x20, 0x0c)\n              0x00\n              swap1\n              dup2\n              mstore\n              0x40\n              swap1\n              keccak256\n              sload\n              0xff\n              and\n              dup2\n              jump\t// out\n                /* \"Entity.sol\":9628:9815  function fetchValue(address src, string memory des, string memory key)... */\n            tag_120:\n              sub(shl(0xa0, 0x01), 0x01)\n                /* \"Entity.sol\":9779:9791  Storage[src] */\n              dup4\n              and\n              0x00\n              swap1\n              dup2\n              mstore\n                /* \"Entity.sol\":9779:9786  Storage */\n              0x02\n                /* \"Entity.sol\":9779:9791  Storage[src] */\n              0x20\n              swap1\n              dup2\n              mstore\n              0x40\n              swap2\n              dup3\n              swap1\n              keccak256\n                /* \"Entity.sol\":9779:9796  Storage[src][des] */\n              swap2\n              mload\n              dup5\n              mload\n                /* \"Entity.sol\":9743:9756  string memory */\n              0x60\n              swap4\n                /* \"Entity.sol\":9779:9791  Storage[src] */\n              swap3\n                /* \"Entity.sol\":9792:9795  des */\n              dup7\n              swap3\n                /* \"Entity.sol\":9779:9796  Storage[src][des] */\n              swap2\n              dup3\n              swap2\n              dup5\n              add\n              swap1\n              dup1\n              dup4\n              dup4\n                /* \"--CODEGEN--\":36:189   */\n            tag_368:\n                /* \"--CODEGEN--\":66:68   */\n              0x20\n                /* \"--CODEGEN--\":61:64   */\n              dup4\n                /* \"--CODEGEN--\":58:69   */\n              lt\n                /* \"--CODEGEN--\":36:189   */\n              tag_370\n              jumpi\n                /* \"--CODEGEN--\":176:186   */\n              dup1\n              mload\n                /* \"--CODEGEN--\":164:187   */\n              dup3\n              mstore\n              not(0x1f)\n                /* \"--CODEGEN--\":139:151   */\n              swap1\n              swap3\n              add\n              swap2\n                /* \"--CODEGEN--\":98:100   */\n              0x20\n                /* \"--CODEGEN--\":89:101   */\n              swap2\n              dup3\n              add\n              swap2\n                /* \"--CODEGEN--\":114:126   */\n              add\n                /* \"--CODEGEN--\":36:189   */\n              jump(tag_368)\n            tag_370:\n                /* \"--CODEGEN--\":299:309   */\n              mload\n                /* \"--CODEGEN--\":344:354   */\n              dup2\n              mload\n                /* \"--CODEGEN--\":263:265   */\n              0x20\n                /* \"--CODEGEN--\":259:271   */\n              swap4\n              dup5\n              sub\n                /* \"--CODEGEN--\":254:257   */\n              0x0100\n                /* \"--CODEGEN--\":250:272   */\n              exp\n              not(0x00)\n                /* \"--CODEGEN--\":246:276   */\n              add\n                /* \"--CODEGEN--\":311:320   */\n              dup1\n              not\n                /* \"--CODEGEN--\":295:321   */\n              swap1\n              swap3\n              and\n                /* \"--CODEGEN--\":340:361   */\n              swap2\n              and\n                /* \"--CODEGEN--\":377:397   */\n              or\n                /* \"--CODEGEN--\":365:398   */\n              swap1\n              mstore\n                /* \"Entity.sol\":9779:9796  Storage[src][des] */\n              swap3\n              add\n              swap5\n              dup6\n              mstore\n              pop\n              mload(0x40)\n              swap4\n              dup5\n              swap1\n              sub\n              dup2\n              add\n              dup5\n              keccak256\n                /* \"Entity.sol\":9779:9808  Storage[src][des].column[key] */\n              dup7\n              mload\n                /* \"Entity.sol\":9779:9796  Storage[src][des] */\n              swap1\n              swap5\n                /* \"Entity.sol\":9779:9808  Storage[src][des].column[key] */\n              dup8\n              swap5\n              pop\n                /* \"Entity.sol\":9779:9796  Storage[src][des] */\n              swap3\n              pop\n              dup3\n              swap2\n                /* \"Entity.sol\":9779:9808  Storage[src][des].column[key] */\n              dup5\n              add\n              swap1\n              dup1\n                /* \"Entity.sol\":9779:9796  Storage[src][des] */\n              dup4\n                /* \"Entity.sol\":9779:9808  Storage[src][des].column[key] */\n              dup4\n                /* \"--CODEGEN--\":36:189   */\n            tag_371:\n                /* \"--CODEGEN--\":66:68   */\n              0x20\n                /* \"--CODEGEN--\":61:64   */\n              dup4\n                /* \"--CODEGEN--\":58:69   */\n              lt\n                /* \"--CODEGEN--\":36:189   */\n              tag_373\n              jumpi\n                /* \"--CODEGEN--\":176:186   */\n              dup1\n              mload\n                /* \"--CODEGEN--\":164:187   */\n              dup3\n              mstore\n              not(0x1f)\n                /* \"--CODEGEN--\":139:151   */\n              swap1\n              swap3\n              add\n              swap2\n                /* \"--CODEGEN--\":98:100   */\n              0x20\n                /* \"--CODEGEN--\":89:101   */\n              swap2\n              dup3\n              add\n              swap2\n                /* \"--CODEGEN--\":114:126   */\n              add\n                /* \"--CODEGEN--\":36:189   */\n              jump(tag_371)\n            tag_373:\n                /* \"--CODEGEN--\":299:309   */\n              mload\n                /* \"--CODEGEN--\":344:354   */\n              dup2\n              mload\n              not(0x00)\n                /* \"--CODEGEN--\":263:265   */\n              0x20\n                /* \"--CODEGEN--\":259:271   */\n              swap5\n              dup6\n              sub\n                /* \"--CODEGEN--\":254:257   */\n              0x0100\n                /* \"--CODEGEN--\":250:272   */\n              swap1\n              dup2\n              exp\n                /* \"--CODEGEN--\":246:276   */\n              dup3\n              add\n                /* \"--CODEGEN--\":340:361   */\n              swap3\n              dup4\n              and\n                /* \"--CODEGEN--\":311:320   */\n              swap3\n              not\n                /* \"--CODEGEN--\":295:321   */\n              swap4\n              swap1\n              swap4\n              and\n                /* \"--CODEGEN--\":377:397   */\n              swap2\n              swap1\n              swap2\n              or\n                /* \"--CODEGEN--\":365:398   */\n              swap1\n              swap3\n              mstore\n                /* \"Entity.sol\":9779:9808  Storage[src][des].column[key] */\n              swap5\n              swap1\n              swap3\n              add\n              swap7\n              dup8\n              mstore\n              0x40\n              dup1\n              mload\n              swap8\n              dup9\n              swap1\n              sub\n              dup3\n              add\n              dup9\n              keccak256\n                /* \"Entity.sol\":9772:9808  return Storage[src][des].column[key] */\n              dup1\n              sload\n              0x1f\n              0x02\n                /* \"--CODEGEN--\":274:275   */\n              0x01\n                /* \"Entity.sol\":9772:9808  return Storage[src][des].column[key] */\n              dup4\n              and\n              iszero\n              swap1\n              swap9\n              mul\n              swap1\n              swap6\n              add\n              and\n              swap6\n              swap1\n              swap6\n              div\n              swap3\n              dup4\n              add\n              dup3\n              swap1\n              div\n              dup3\n              mul\n              dup9\n              add\n              dup3\n              add\n              swap1\n              mstore\n              dup2\n              dup8\n              mstore\n                /* \"Entity.sol\":9779:9808  Storage[src][des].column[key] */\n              swap3\n              swap5\n              pop\n                /* \"Entity.sol\":9772:9808  return Storage[src][des].column[key] */\n              swap3\n              pop\n              pop\n              dup4\n              add\n                /* \"Entity.sol\":9779:9808  Storage[src][des].column[key] */\n              dup3\n                /* \"Entity.sol\":9772:9808  return Storage[src][des].column[key] */\n              dup3\n              dup1\n              iszero\n              tag_374\n              jumpi\n              dup1\n              0x1f\n              lt\n              tag_375\n              jumpi\n              0x0100\n              dup1\n              dup4\n              sload\n              div\n              mul\n              dup4\n              mstore\n              swap2\n              0x20\n              add\n              swap2\n              jump(tag_374)\n            tag_375:\n              dup3\n              add\n              swap2\n              swap1\n              0x00\n              mstore\n              keccak256(0x00, 0x20)\n              swap1\n            tag_376:\n              dup2\n              sload\n              dup2\n              mstore\n              swap1\n              0x01\n              add\n              swap1\n              0x20\n              add\n              dup1\n              dup4\n              gt\n              tag_376\n              jumpi\n              dup3\n              swap1\n              sub\n              0x1f\n              and\n              dup3\n              add\n              swap2\n            tag_374:\n              pop\n              pop\n              pop\n              pop\n              pop\n              swap1\n              pop\n                /* \"Entity.sol\":9628:9815  function fetchValue(address src, string memory des, string memory key)... */\n              swap4\n              swap3\n              pop\n              pop\n              pop\n              jump\t// out\n                /* \"Entity.sol\":1016:1043  address[] public dataSource */\n            tag_127:\n              0x05\n              dup2\n              dup2\n              sload\n              dup2\n              lt\n              tag_301\n              jumpi\n              invalid\n                /* \"Entity.sol\":1095:1149  mapping(address=>string[]) public descriptionsBySource */\n            tag_130:\n              mstore(0x20, 0x07)\n              dup2\n              0x00\n              mstore\n              keccak256(0x00, 0x40)\n              dup2\n              dup2\n              sload\n              dup2\n              lt\n              tag_379\n              jumpi\n              invalid\n            tag_379:\n              0x00\n              swap2\n              dup3\n              mstore\n              0x20\n              swap2\n              dup3\n              swap1\n              keccak256\n              add\n              dup1\n              sload\n              0x40\n              dup1\n              mload\n              0x02\n              0x01\n              dup5\n              and\n              iszero\n              0x0100\n              mul\n              not(0x00)\n              add\n              swap1\n              swap4\n              and\n              swap3\n              swap1\n              swap3\n              div\n              0x1f\n              dup2\n              add\n              dup6\n              swap1\n              div\n              dup6\n              mul\n              dup4\n              add\n              dup6\n              add\n              swap1\n              swap2\n              mstore\n              dup1\n              dup3\n              mstore\n              swap1\n              swap5\n              pop\n              swap1\n              swap3\n              pop\n              swap1\n              dup4\n              add\n              dup3\n              dup3\n              dup1\n              iszero\n              tag_346\n              jumpi\n              dup1\n              0x1f\n              lt\n              tag_347\n              jumpi\n              0x0100\n              dup1\n              dup4\n              sload\n              div\n              mul\n              dup4\n              mstore\n              swap2\n              0x20\n              add\n              swap2\n              jump(tag_346)\n                /* \"Entity.sol\":9154:9283  function sourceLength()... */\n            tag_136:\n                /* \"Entity.sol\":9258:9268  dataSource */\n              0x05\n                /* \"Entity.sol\":9258:9275  dataSource.length */\n              sload\n                /* \"Entity.sol\":9154:9283  function sourceLength()... */\n            tag_384:\n              swap1\n              jump\t// out\n                /* \"Entity.sol\":4205:4433  function approveDataToReceive(uint32 index)... */\n            tag_139:\n                /* \"MultipleEntity.sol\":224:234  msg.sender */\n              caller\n                /* \"MultipleEntity.sol\":216:235  isOwner[msg.sender] */\n              0x00\n              swap1\n              dup2\n              mstore\n                /* \"MultipleEntity.sol\":216:223  isOwner */\n              0x0c\n                /* \"MultipleEntity.sol\":216:235  isOwner[msg.sender] */\n              0x20\n              mstore\n              0x40\n              swap1\n              keccak256\n              sload\n              0xff\n              and\n                /* \"MultipleEntity.sol\":208:236  require(isOwner[msg.sender]) */\n              tag_386\n              jumpi\n                /* \"--CODEGEN--\":12:13   */\n              0x00\n                /* \"--CODEGEN--\":9:10   */\n              dup1\n                /* \"--CODEGEN--\":2:14   */\n              revert\n                /* \"MultipleEntity.sol\":208:236  require(isOwner[msg.sender]) */\n            tag_386:\n                /* \"MultipleEntity.sol\":353:363  msg.sender */\n              caller\n                /* \"MultipleEntity.sol\":331:364  votedApproveToReceive[msg.sender] */\n              0x00\n              swap1\n              dup2\n              mstore\n                /* \"MultipleEntity.sol\":331:352  votedApproveToReceive */\n              0x0f\n                /* \"MultipleEntity.sol\":331:364  votedApproveToReceive[msg.sender] */\n              0x20\n              swap1\n              dup2\n              mstore\n              0x40\n              dup1\n              dup4\n              keccak256\n                /* \"MultipleEntity.sol\":331:371  votedApproveToReceive[msg.sender][index] */\n              0xffffffff\n              dup6\n              and\n              dup5\n              mstore\n              swap1\n              swap2\n              mstore\n              swap1\n              keccak256\n              sload\n                /* \"Entity.sol\":4310:4315  index */\n              dup2\n              swap1\n                /* \"MultipleEntity.sol\":331:371  votedApproveToReceive[msg.sender][index] */\n              0xff\n              and\n                /* \"MultipleEntity.sol\":330:371  !votedApproveToReceive[msg.sender][index] */\n              iszero\n                /* \"MultipleEntity.sol\":322:372  require(!votedApproveToReceive[msg.sender][index]) */\n              tag_388\n              jumpi\n                /* \"--CODEGEN--\":12:13   */\n              0x00\n                /* \"--CODEGEN--\":9:10   */\n              dup1\n                /* \"--CODEGEN--\":2:14   */\n              revert\n                /* \"MultipleEntity.sol\":322:372  require(!votedApproveToReceive[msg.sender][index]) */\n            tag_388:\n                /* \"MultipleEntity.sol\":404:414  msg.sender */\n              caller\n                /* \"MultipleEntity.sol\":382:415  votedApproveToReceive[msg.sender] */\n              0x00\n              swap1\n              dup2\n              mstore\n                /* \"MultipleEntity.sol\":382:403  votedApproveToReceive */\n              0x0f\n                /* \"MultipleEntity.sol\":382:415  votedApproveToReceive[msg.sender] */\n              0x20\n              swap1\n              dup2\n              mstore\n              0x40\n              dup1\n              dup4\n              keccak256\n                /* \"MultipleEntity.sol\":382:422  votedApproveToReceive[msg.sender][index] */\n              0xffffffff\n              dup6\n              dup2\n              and\n              dup6\n              mstore\n              swap1\n              dup4\n              mstore\n              dup2\n              dup5\n              keccak256\n                /* \"MultipleEntity.sol\":382:429  votedApproveToReceive[msg.sender][index] = true */\n              dup1\n              sload\n                /* \"MultipleEntity.sol\":425:429  true */\n              0x01\n              not(0xff)\n                /* \"MultipleEntity.sol\":382:429  votedApproveToReceive[msg.sender][index] = true */\n              swap1\n              swap2\n              and\n              dup2\n              or\n              swap1\n              swap2\n              sstore\n                /* \"MultipleEntity.sol\":439:460  approveToReceiveCount */\n              0x0e\n                /* \"MultipleEntity.sol\":439:467  approveToReceiveCount[index] */\n              swap1\n              swap4\n              mstore\n              swap3\n              keccak256\n                /* \"MultipleEntity.sol\":439:469  approveToReceiveCount[index]++ */\n              dup1\n              sload\n              not(0xffffffff)\n              dup2\n              and\n              swap1\n              dup5\n              and\n              swap1\n              swap3\n              add\n              dup4\n              and\n              swap2\n              swap1\n              swap2\n              or\n              swap1\n              dup2\n              swap1\n              sstore\n                /* \"MultipleEntity.sol\":516:522  owners */\n              0x0d\n                /* \"MultipleEntity.sol\":516:529  owners.length */\n              sload\n                /* \"MultipleEntity.sol\":482:510  approveToReceiveCount[index] */\n              swap1\n              dup3\n              and\n                /* \"MultipleEntity.sol\":511:512  2 */\n              0x02\n                /* \"MultipleEntity.sol\":482:512  approveToReceiveCount[index]*2 */\n              mul\n                /* \"MultipleEntity.sol\":482:529  approveToReceiveCount[index]*2 >= owners.length */\n              swap1\n              swap2\n              and\n              lt\n                /* \"MultipleEntity.sol\":479:589  if(approveToReceiveCount[index]*2 >= owners.length){... */\n              tag_389\n              jumpi\n                /* \"MultipleEntity.sol\":544:571  toReceiveIsConfirmed[index] */\n              0xffffffff\n              dup2\n              and\n              0x00\n              swap1\n              dup2\n              mstore\n                /* \"MultipleEntity.sol\":544:564  toReceiveIsConfirmed */\n              0x0a\n                /* \"MultipleEntity.sol\":544:571  toReceiveIsConfirmed[index] */\n              0x20\n              mstore\n              0x40\n              swap1\n              keccak256\n                /* \"MultipleEntity.sol\":544:578  toReceiveIsConfirmed[index] = true */\n              dup1\n              sload\n              not(0xff)\n              and\n                /* \"MultipleEntity.sol\":574:578  true */\n              0x01\n                /* \"MultipleEntity.sol\":544:578  toReceiveIsConfirmed[index] = true */\n              or\n              swap1\n              sstore\n                /* \"MultipleEntity.sol\":479:589  if(approveToReceiveCount[index]*2 >= owners.length){... */\n            tag_389:\n                /* \"Entity.sol\":4334:4361  toReceiveIsConfirmed[index] */\n              0xffffffff\n              dup3\n              and\n              0x00\n              swap1\n              dup2\n              mstore\n                /* \"Entity.sol\":4334:4354  toReceiveIsConfirmed */\n              0x0a\n                /* \"Entity.sol\":4334:4361  toReceiveIsConfirmed[index] */\n              0x20\n              mstore\n              0x40\n              swap1\n              keccak256\n              sload\n              0xff\n              and\n              dup1\n                /* \"Entity.sol\":4334:4373  toReceiveIsConfirmed[index] || isSingle */\n              tag_391\n              jumpi\n              pop\n                /* \"Entity.sol\":4365:4373  isSingle */\n              and(0xff, sload(0x00))\n                /* \"Entity.sol\":4334:4373  toReceiveIsConfirmed[index] || isSingle */\n            tag_391:\n                /* \"Entity.sol\":4331:4427  if(toReceiveIsConfirmed[index] || isSingle){... */\n              iszero\n              tag_393\n              jumpi\n                /* \"Entity.sol\":4388:4416  _approveDataToReceive(index) */\n              tag_393\n                /* \"Entity.sol\":4410:4415  index */\n              dup3\n                /* \"Entity.sol\":4388:4409  _approveDataToReceive */\n              tag_394\n                /* \"Entity.sol\":4388:4416  _approveDataToReceive(index) */\n              jump\t// in\n            tag_393:\n                /* \"MultipleEntity.sol\":246:247  _ */\n              pop\n                /* \"Entity.sol\":4205:4433  function approveDataToReceive(uint32 index)... */\n              pop\n              jump\t// out\n                /* \"Entity.sol\":4657:4813  function pendingDataToReceiveCount() ... */\n            tag_141:\n                /* \"Entity.sol\":4778:4798  pendingDataToReceive */\n              0x09\n                /* \"Entity.sol\":4778:4805  pendingDataToReceive.length */\n              sload\n                /* \"Entity.sol\":4657:4813  function pendingDataToReceiveCount() ... */\n              swap1\n              jump\t// out\n                /* \"Entity.sol\":948:1010  mapping(address=>mapping(string=>string)) public MarkupsSender */\n            tag_147:\n              0x04\n              0x20\n              swap1\n              dup2\n              mstore\n              0x00\n              swap3\n              dup4\n              mstore\n              0x40\n              swap3\n              dup4\n              swap1\n              keccak256\n                /* \"--CODEGEN--\":22:36   */\n              dup3\n              mload\n                /* \"--CODEGEN--\":143:175   */\n              dup1\n              dup5\n              add\n              dup4\n              add\n                /* \"--CODEGEN--\":198:218   */\n              dup1\n              mload\n                /* \"--CODEGEN--\":224:255   */\n              swap3\n              dup2\n              mstore\n                /* \"--CODEGEN--\":156:174   */\n              swap1\n              dup4\n              add\n                /* \"--CODEGEN--\":283:301   */\n              swap4\n              dup4\n              add\n                /* \"--CODEGEN--\":273:322   */\n              swap4\n              swap1\n              swap4\n              keccak256\n                /* \"--CODEGEN--\":328:360   */\n              swap3\n              mstore\n                /* \"Entity.sol\":948:1010  mapping(address=>mapping(string=>string)) public MarkupsSender */\n              dup2\n              sload\n              dup4\n              mload\n              0x02\n              0x01\n              dup4\n              and\n              iszero\n              0x0100\n              mul\n              not(0x00)\n              add\n              swap1\n              swap3\n              and\n              swap2\n              swap1\n              swap2\n              div\n              0x1f\n              dup2\n              add\n              dup4\n              swap1\n              div\n              dup4\n              mul\n              dup3\n              add\n              dup4\n              add\n              swap1\n              swap5\n              mstore\n              dup4\n              dup2\n              mstore\n              swap3\n              swap1\n              dup4\n              add\n                /* \"--CODEGEN--\":273:322   */\n              dup3\n                /* \"Entity.sol\":948:1010  mapping(address=>mapping(string=>string)) public MarkupsSender */\n              dup3\n              dup1\n              iszero\n              tag_346\n              jumpi\n              dup1\n              0x1f\n              lt\n              tag_347\n              jumpi\n              0x0100\n              dup1\n              dup4\n              sload\n              div\n              mul\n              dup4\n              mstore\n              swap2\n              0x20\n              add\n              swap2\n              jump(tag_346)\n                /* \"Entity.sol\":1465:1691  function markup(address target, string memory description, string memory markup)... */\n            tag_160:\n                /* \"MultipleEntity.sol\":224:234  msg.sender */\n              caller\n                /* \"MultipleEntity.sol\":216:235  isOwner[msg.sender] */\n              0x00\n              swap1\n              dup2\n              mstore\n                /* \"MultipleEntity.sol\":216:223  isOwner */\n              0x0c\n                /* \"MultipleEntity.sol\":216:235  isOwner[msg.sender] */\n              0x20\n              mstore\n              0x40\n              swap1\n              keccak256\n              sload\n              0xff\n              and\n                /* \"MultipleEntity.sol\":208:236  require(isOwner[msg.sender]) */\n              tag_400\n              jumpi\n                /* \"--CODEGEN--\":12:13   */\n              0x00\n                /* \"--CODEGEN--\":9:10   */\n              dup1\n                /* \"--CODEGEN--\":2:14   */\n              revert\n                /* \"MultipleEntity.sol\":208:236  require(isOwner[msg.sender]) */\n            tag_400:\n                /* \"Entity.sol\":1643:1684  entityTarget._markup(description, markup) */\n              0x40\n              dup1\n              mload\n              shl(0xe0, 0x847b5257)\n              dup2\n              mstore\n              0x04\n              dup2\n              add\n              swap2\n              dup3\n              mstore\n              dup4\n              mload\n              0x44\n              dup3\n              add\n              mstore\n              dup4\n              mload\n                /* \"Entity.sol\":1626:1632  target */\n              dup6\n              swap3\n              sub(shl(0xa0, 0x01), 0x01)\n                /* \"Entity.sol\":1643:1663  entityTarget._markup */\n              dup5\n              and\n              swap3\n              0x847b5257\n              swap3\n                /* \"Entity.sol\":1664:1675  description */\n              dup8\n              swap3\n                /* \"Entity.sol\":1677:1683  markup */\n              dup8\n              swap3\n                /* \"Entity.sol\":1643:1684  entityTarget._markup(description, markup) */\n              swap1\n              swap2\n              dup3\n              swap2\n              0x24\n              dup2\n              add\n              swap2\n              0x64\n              swap1\n              swap2\n              add\n              swap1\n              0x20\n              dup8\n              add\n              swap1\n              dup1\n              dup4\n              dup4\n                /* \"Entity.sol\":1597:1616  Entity entityTarget */\n              0x00\n                /* \"--CODEGEN--\":8:108   */\n            tag_402:\n                /* \"--CODEGEN--\":33:36   */\n              dup4\n                /* \"--CODEGEN--\":30:31   */\n              dup2\n                /* \"--CODEGEN--\":27:37   */\n              lt\n                /* \"--CODEGEN--\":8:108   */\n              iszero\n              tag_404\n              jumpi\n                /* \"--CODEGEN--\":90:101   */\n              dup2\n              dup2\n              add\n                /* \"--CODEGEN--\":84:102   */\n              mload\n                /* \"--CODEGEN--\":71:82   */\n              dup4\n              dup3\n              add\n                /* \"--CODEGEN--\":64:103   */\n              mstore\n                /* \"--CODEGEN--\":52:54   */\n              0x20\n                /* \"--CODEGEN--\":45:55   */\n              add\n                /* \"--CODEGEN--\":8:108   */\n              jump(tag_402)\n            tag_404:\n                /* \"--CODEGEN--\":12:26   */\n              pop\n                /* \"Entity.sol\":1643:1684  entityTarget._markup(description, markup) */\n              pop\n              pop\n              pop\n              swap1\n              pop\n              swap1\n              dup2\n              add\n              swap1\n              0x1f\n              and\n              dup1\n              iszero\n              tag_405\n              jumpi\n              dup1\n              dup3\n              sub\n              dup1\n              mload\n              0x01\n              dup4\n              0x20\n              sub\n              0x0100\n              exp\n              sub\n              not\n              and\n              dup2\n              mstore\n              0x20\n              add\n              swap2\n              pop\n            tag_405:\n              pop\n              dup4\n              dup2\n              sub\n              dup3\n              mstore\n              dup5\n              mload\n              dup2\n              mstore\n              dup5\n              mload\n              0x20\n              swap2\n              dup3\n              add\n              swap2\n              dup7\n              add\n              swap1\n              dup1\n              dup4\n              dup4\n                /* \"--CODEGEN--\":23:24   */\n              0x00\n                /* \"--CODEGEN--\":8:108   */\n            tag_406:\n                /* \"--CODEGEN--\":33:36   */\n              dup4\n                /* \"--CODEGEN--\":30:31   */\n              dup2\n                /* \"--CODEGEN--\":27:37   */\n              lt\n                /* \"--CODEGEN--\":8:108   */\n              iszero\n              tag_408\n              jumpi\n                /* \"--CODEGEN--\":90:101   */\n              dup2\n              dup2\n              add\n                /* \"--CODEGEN--\":84:102   */\n              mload\n                /* \"--CODEGEN--\":71:82   */\n              dup4\n              dup3\n              add\n                /* \"--CODEGEN--\":64:103   */\n              mstore\n                /* \"--CODEGEN--\":52:54   */\n              0x20\n                /* \"--CODEGEN--\":45:55   */\n              add\n                /* \"--CODEGEN--\":8:108   */\n              jump(tag_406)\n            tag_408:\n                /* \"--CODEGEN--\":12:26   */\n              pop\n                /* \"Entity.sol\":1643:1684  entityTarget._markup(description, markup) */\n              pop\n              pop\n              pop\n              swap1\n              pop\n              swap1\n              dup2\n              add\n              swap1\n              0x1f\n              and\n              dup1\n              iszero\n              tag_409\n              jumpi\n              dup1\n              dup3\n              sub\n              dup1\n              mload\n              0x01\n              dup4\n              0x20\n              sub\n              0x0100\n              exp\n              sub\n              not\n              and\n              dup2\n              mstore\n              0x20\n              add\n              swap2\n              pop\n            tag_409:\n              pop\n              swap5\n              pop\n              pop\n              pop\n              pop\n              pop\n              0x00\n              mload(0x40)\n              dup1\n              dup4\n              sub\n              dup2\n              0x00\n              dup8\n              dup1\n              extcodesize\n              iszero\n                /* \"--CODEGEN--\":5:14   */\n              dup1\n                /* \"--CODEGEN--\":2:4   */\n              iszero\n              tag_410\n              jumpi\n                /* \"--CODEGEN--\":27:28   */\n              0x00\n                /* \"--CODEGEN--\":24:25   */\n              dup1\n                /* \"--CODEGEN--\":17:29   */\n              revert\n                /* \"--CODEGEN--\":2:4   */\n            tag_410:\n                /* \"Entity.sol\":1643:1684  entityTarget._markup(description, markup) */\n              pop\n              gas\n              call\n              iszero\n                /* \"--CODEGEN--\":8:17   */\n              dup1\n                /* \"--CODEGEN--\":5:7   */\n              iszero\n              tag_412\n              jumpi\n                /* \"--CODEGEN--\":45:61   */\n              returndatasize\n                /* \"--CODEGEN--\":42:43   */\n              0x00\n                /* \"--CODEGEN--\":39:40   */\n              dup1\n                /* \"--CODEGEN--\":24:62   */\n              returndatacopy\n                /* \"--CODEGEN--\":77:93   */\n              returndatasize\n                /* \"--CODEGEN--\":74:75   */\n              0x00\n                /* \"--CODEGEN--\":67:94   */\n              revert\n                /* \"--CODEGEN--\":5:7   */\n            tag_412:\n                /* \"Entity.sol\":1643:1684  entityTarget._markup(description, markup) */\n              pop\n              pop\n              pop\n              pop\n                /* \"MultipleEntity.sol\":246:247  _ */\n              pop\n                /* \"Entity.sol\":1465:1691  function markup(address target, string memory description, string memory markup)... */\n              pop\n              pop\n              pop\n              jump\t// out\n                /* \"MultipleEntity.sol\":1269:1432  function addOwner(address owner)... */\n            tag_163:\n                /* \"MultipleEntity.sol\":224:234  msg.sender */\n              caller\n                /* \"MultipleEntity.sol\":216:235  isOwner[msg.sender] */\n              0x00\n              swap1\n              dup2\n              mstore\n                /* \"MultipleEntity.sol\":216:223  isOwner */\n              0x0c\n                /* \"MultipleEntity.sol\":216:235  isOwner[msg.sender] */\n              0x20\n              mstore\n              0x40\n              swap1\n              keccak256\n              sload\n              0xff\n              and\n                /* \"MultipleEntity.sol\":208:236  require(isOwner[msg.sender]) */\n              tag_414\n              jumpi\n                /* \"--CODEGEN--\":12:13   */\n              0x00\n                /* \"--CODEGEN--\":9:10   */\n              dup1\n                /* \"--CODEGEN--\":2:14   */\n              revert\n                /* \"MultipleEntity.sol\":208:236  require(isOwner[msg.sender]) */\n            tag_414:\n                /* \"MultipleEntity.sol\":1355:1360  owner */\n              dup1\n              sub(shl(0xa0, 0x01), 0x01)\n                /* \"MultipleEntity.sol\":766:790  _address != address(0x0) */\n              dup2\n              and\n                /* \"MultipleEntity.sol\":758:791  require(_address != address(0x0)) */\n              tag_416\n              jumpi\n                /* \"--CODEGEN--\":12:13   */\n              0x00\n                /* \"--CODEGEN--\":9:10   */\n              dup1\n                /* \"--CODEGEN--\":2:14   */\n              revert\n                /* \"MultipleEntity.sol\":758:791  require(_address != address(0x0)) */\n            tag_416:\n              pop\n              sub(shl(0xa0, 0x01), 0x01)\n                /* \"MultipleEntity.sol\":1376:1390  isOwner[owner] */\n              and\n              0x00\n              dup2\n              dup2\n              mstore\n                /* \"MultipleEntity.sol\":1376:1383  isOwner */\n              0x0c\n                /* \"MultipleEntity.sol\":1376:1390  isOwner[owner] */\n              0x20\n              mstore\n              0x40\n              dup2\n              keccak256\n                /* \"MultipleEntity.sol\":1376:1397  isOwner[owner] = true */\n              dup1\n              sload\n              not(0xff)\n              and\n              0x01\n              swap1\n              dup2\n              or\n              swap1\n              swap2\n              sstore\n                /* \"MultipleEntity.sol\":1407:1413  owners */\n              0x0d\n                /* \"--CODEGEN--\":27:37   */\n              dup1\n              sload\n                /* \"--CODEGEN--\":23:41   */\n              swap2\n              dup3\n              add\n                /* \"--CODEGEN--\":45:68   */\n              dup2\n              sstore\n                /* \"MultipleEntity.sol\":1407:1425  owners.push(owner) */\n              swap1\n              swap2\n              mstore\n              0xd7b6990105719101dabeb77144f2a3385c8033acd3af97e9423a695e81ad1eb5\n              add\n              dup1\n              sload\n              not(sub(shl(0xa0, 0x01), 0x01))\n              and\n              swap1\n              swap2\n              or\n              swap1\n              sstore\n                /* \"MultipleEntity.sol\":1269:1432  function addOwner(address owner)... */\n              jump\t// out\n                /* \"Entity.sol\":4823:4995  function dataSizeToReceive(uint32 index) ... */\n            tag_166:\n                /* \"Entity.sol\":4912:4918  uint32 */\n              0x00\n                /* \"Entity.sol\":4949:4969  pendingDataToReceive */\n              0x09\n                /* \"Entity.sol\":4970:4975  index */\n              dup3\n                /* \"Entity.sol\":4949:4976  pendingDataToReceive[index] */\n              0xffffffff\n              and\n              dup2\n              sload\n              dup2\n              lt\n              tag_420\n              jumpi\n              invalid\n            tag_420:\n              0x00\n              swap2\n              dup3\n              mstore\n              0x20\n              swap1\n              swap2\n              keccak256\n                /* \"Entity.sol\":4949:4980  pendingDataToReceive[index].key */\n              0x03\n                /* \"Entity.sol\":4949:4976  pendingDataToReceive[index] */\n              0x06\n              swap1\n              swap3\n              mul\n              add\n                /* \"Entity.sol\":4949:4980  pendingDataToReceive[index].key */\n              add\n                /* \"Entity.sol\":4949:4987  pendingDataToReceive[index].key.length */\n              sload\n              swap3\n                /* \"Entity.sol\":4823:4995  function dataSizeToReceive(uint32 index) ... */\n              swap2\n              pop\n              pop\n              jump\t// out\n                /* \"Entity.sol\":7559:8090  function approveDataToSend(uint32 index) ... */\n            tag_169:\n                /* \"MultipleEntity.sol\":224:234  msg.sender */\n              caller\n                /* \"MultipleEntity.sol\":216:235  isOwner[msg.sender] */\n              0x00\n              swap1\n              dup2\n              mstore\n                /* \"MultipleEntity.sol\":216:223  isOwner */\n              0x0c\n                /* \"MultipleEntity.sol\":216:235  isOwner[msg.sender] */\n              0x20\n              mstore\n              0x40\n              swap1\n              keccak256\n              sload\n              0xff\n              and\n                /* \"MultipleEntity.sol\":208:236  require(isOwner[msg.sender]) */\n              tag_423\n              jumpi\n                /* \"--CODEGEN--\":12:13   */\n              0x00\n                /* \"--CODEGEN--\":9:10   */\n              dup1\n                /* \"--CODEGEN--\":2:14   */\n              revert\n                /* \"MultipleEntity.sol\":208:236  require(isOwner[msg.sender]) */\n            tag_423:\n                /* \"Entity.sol\":7662:7679  pendingDataToSend */\n              0x0b\n                /* \"Entity.sol\":7680:7685  index */\n              dup2\n                /* \"Entity.sol\":7662:7686  pendingDataToSend[index] */\n              0xffffffff\n              and\n              dup2\n              sload\n              dup2\n              lt\n              tag_425\n              jumpi\n              invalid\n            tag_425:\n              0x00\n              swap2\n              dup3\n              mstore\n              0x20\n              swap1\n              swap2\n              keccak256\n                /* \"Entity.sol\":7662:7695  pendingDataToSend[index].approved */\n              0x05\n                /* \"Entity.sol\":7662:7686  pendingDataToSend[index] */\n              0x06\n              swap1\n              swap3\n              mul\n              add\n                /* \"Entity.sol\":7662:7695  pendingDataToSend[index].approved */\n              add\n              sload\n              0xff\n              and\n                /* \"Entity.sol\":7661:7695  !pendingDataToSend[index].approved */\n              iszero\n                /* \"Entity.sol\":7653:7696  require(!pendingDataToSend[index].approved) */\n              tag_427\n              jumpi\n                /* \"--CODEGEN--\":12:13   */\n              0x00\n                /* \"--CODEGEN--\":9:10   */\n              dup1\n                /* \"--CODEGEN--\":2:14   */\n              revert\n                /* \"Entity.sol\":7653:7696  require(!pendingDataToSend[index].approved) */\n            tag_427:\n                /* \"Entity.sol\":7706:7721  Entity receiver */\n              0x00\n                /* \"Entity.sol\":7731:7748  pendingDataToSend */\n              0x0b\n                /* \"Entity.sol\":7749:7754  index */\n              dup3\n                /* \"Entity.sol\":7731:7755  pendingDataToSend[index] */\n              0xffffffff\n              and\n              dup2\n              sload\n              dup2\n              lt\n              tag_428\n              jumpi\n              invalid\n            tag_428:\n              0x00\n              swap2\n              dup3\n              mstore\n              0x20\n              dup3\n              keccak256\n              0x06\n              swap2\n              swap1\n              swap2\n              mul\n              add\n                /* \"Entity.sol\":7731:7767  pendingDataToSend[index].destination */\n              0x01\n              add\n              sload\n                /* \"Entity.sol\":7809:7826  pendingDataToSend */\n              0x0b\n                /* \"Entity.sol\":7809:7833  pendingDataToSend[index] */\n              dup1\n              sload\n              sub(shl(0xa0, 0x01), 0x01)\n                /* \"Entity.sol\":7731:7767  pendingDataToSend[index].destination */\n              swap1\n              swap3\n              and\n              swap4\n              pop\n              dup4\n              swap2\n                /* \"Entity.sol\":7791:7808  receiver._newData */\n              0xc09bc35b\n              swap2\n                /* \"Entity.sol\":7809:7826  pendingDataToSend */\n              swap1\n                /* \"Entity.sol\":7809:7833  pendingDataToSend[index] */\n              0xffffffff\n              dup8\n              and\n              swap1\n              dup2\n              lt\n              tag_430\n              jumpi\n              invalid\n            tag_430:\n              0x00\n              swap2\n              dup3\n              mstore\n              0x20\n              swap2\n              dup3\n              swap1\n              keccak256\n                /* \"Entity.sol\":7791:7846  receiver._newData(pendingDataToSend[index].description) */\n              mload(0x40)\n              not(sub(shl(0xe0, 0x01), 0x01))\n              0xe0\n              dup7\n              swap1\n              shl\n              and\n              dup2\n              mstore\n              0x04\n              dup2\n              add\n              swap4\n              dup5\n              mstore\n                /* \"Entity.sol\":7809:7845  pendingDataToSend[index].description */\n              0x02\n                /* \"Entity.sol\":7809:7833  pendingDataToSend[index] */\n              0x06\n              swap4\n              swap1\n              swap4\n              mul\n              swap1\n              swap2\n              add\n                /* \"Entity.sol\":7809:7845  pendingDataToSend[index].description */\n              dup3\n              add\n                /* \"Entity.sol\":7791:7846  receiver._newData(pendingDataToSend[index].description) */\n              dup1\n              sload\n              not(0x00)\n              0x0100\n              0x01\n              dup4\n              and\n              iszero\n              mul\n              add\n              and\n              swap3\n              swap1\n              swap3\n              div\n              0x24\n              dup3\n              add\n              dup2\n              swap1\n              mstore\n                /* \"Entity.sol\":7809:7845  pendingDataToSend[index].description */\n              swap2\n              swap3\n                /* \"Entity.sol\":7791:7846  receiver._newData(pendingDataToSend[index].description) */\n              swap2\n              dup3\n              swap2\n              0x44\n              add\n              swap1\n                /* \"Entity.sol\":7809:7845  pendingDataToSend[index].description */\n              dup5\n              swap1\n                /* \"Entity.sol\":7791:7846  receiver._newData(pendingDataToSend[index].description) */\n              dup1\n              iszero\n              tag_432\n              jumpi\n              dup1\n              0x1f\n              lt\n              tag_433\n              jumpi\n              0x0100\n              dup1\n              dup4\n              sload\n              div\n              mul\n              dup4\n              mstore\n              swap2\n              0x20\n              add\n              swap2\n              jump(tag_432)\n            tag_433:\n              dup3\n              add\n              swap2\n              swap1\n              0x00\n              mstore\n              keccak256(0x00, 0x20)\n              swap1\n            tag_434:\n              dup2\n              sload\n              dup2\n              mstore\n              swap1\n              0x01\n              add\n              swap1\n              0x20\n              add\n              dup1\n              dup4\n              gt\n              tag_434\n              jumpi\n              dup3\n              swap1\n              sub\n              0x1f\n              and\n              dup3\n              add\n              swap2\n            tag_432:\n              pop\n              pop\n              swap3\n              pop\n              pop\n              pop\n              0x20\n              mload(0x40)\n              dup1\n              dup4\n              sub\n              dup2\n              0x00\n              dup8\n              dup1\n              extcodesize\n              iszero\n                /* \"--CODEGEN--\":5:14   */\n              dup1\n                /* \"--CODEGEN--\":2:4   */\n              iszero\n              tag_435\n              jumpi\n                /* \"--CODEGEN--\":27:28   */\n              0x00\n                /* \"--CODEGEN--\":24:25   */\n              dup1\n                /* \"--CODEGEN--\":17:29   */\n              revert\n                /* \"--CODEGEN--\":2:4   */\n            tag_435:\n                /* \"Entity.sol\":7791:7846  receiver._newData(pendingDataToSend[index].description) */\n              pop\n              gas\n              call\n              iszero\n                /* \"--CODEGEN--\":8:17   */\n              dup1\n                /* \"--CODEGEN--\":5:7   */\n              iszero\n              tag_437\n              jumpi\n                /* \"--CODEGEN--\":45:61   */\n              returndatasize\n                /* \"--CODEGEN--\":42:43   */\n              0x00\n                /* \"--CODEGEN--\":39:40   */\n              dup1\n                /* \"--CODEGEN--\":24:62   */\n              returndatacopy\n                /* \"--CODEGEN--\":77:93   */\n              returndatasize\n                /* \"--CODEGEN--\":74:75   */\n              0x00\n                /* \"--CODEGEN--\":67:94   */\n              revert\n                /* \"--CODEGEN--\":5:7   */\n            tag_437:\n                /* \"Entity.sol\":7791:7846  receiver._newData(pendingDataToSend[index].description) */\n              pop\n              pop\n              pop\n              pop\n              mload(0x40)\n              returndatasize\n                /* \"--CODEGEN--\":15:17   */\n              0x20\n                /* \"--CODEGEN--\":10:13   */\n              dup2\n                /* \"--CODEGEN--\":7:18   */\n              lt\n                /* \"--CODEGEN--\":4:6   */\n              iszero\n              tag_438\n              jumpi\n                /* \"--CODEGEN--\":31:32   */\n              0x00\n                /* \"--CODEGEN--\":28:29   */\n              dup1\n                /* \"--CODEGEN--\":21:33   */\n              revert\n                /* \"--CODEGEN--\":4:6   */\n            tag_438:\n              pop\n                /* \"Entity.sol\":7791:7846  receiver._newData(pendingDataToSend[index].description) */\n              mload\n              swap1\n              pop\n                /* \"Entity.sol\":7860:7868  uint32 i */\n              0x00\n                /* \"Entity.sol\":7856:8034  for(uint32 i=0; i<pendingDataToSend[index].key.length; i++){... */\n            tag_439:\n                /* \"Entity.sol\":7874:7891  pendingDataToSend */\n              0x0b\n                /* \"Entity.sol\":7892:7897  index */\n              dup5\n                /* \"Entity.sol\":7874:7898  pendingDataToSend[index] */\n              0xffffffff\n              and\n              dup2\n              sload\n              dup2\n              lt\n              tag_442\n              jumpi\n              invalid\n            tag_442:\n              swap1\n              0x00\n              mstore\n              keccak256(0x00, 0x20)\n              swap1\n              0x06\n              mul\n              add\n                /* \"Entity.sol\":7874:7902  pendingDataToSend[index].key */\n              0x03\n              add\n                /* \"Entity.sol\":7874:7909  pendingDataToSend[index].key.length */\n              dup1\n              sload\n              swap1\n              pop\n                /* \"Entity.sol\":7872:7873  i */\n              dup2\n                /* \"Entity.sol\":7872:7909  i<pendingDataToSend[index].key.length */\n              0xffffffff\n              and\n              lt\n                /* \"Entity.sol\":7856:8034  for(uint32 i=0; i<pendingDataToSend[index].key.length; i++){... */\n              iszero\n              tag_440\n              jumpi\n                /* \"Entity.sol\":7951:7968  pendingDataToSend */\n              0x0b\n                /* \"Entity.sol\":7951:7975  pendingDataToSend[index] */\n              dup1\n              sload\n              sub(shl(0xa0, 0x01), 0x01)\n                /* \"Entity.sol\":7929:7950  receiver._receiveData */\n              dup6\n              and\n              swap2\n              0x928ec3e5\n              swap2\n                /* \"Entity.sol\":7951:7975  pendingDataToSend[index] */\n              0xffffffff\n              dup9\n              and\n              swap1\n              dup2\n              lt\n              tag_444\n              jumpi\n              invalid\n            tag_444:\n              swap1\n              0x00\n              mstore\n              keccak256(0x00, 0x20)\n              swap1\n              0x06\n              mul\n              add\n                /* \"Entity.sol\":7951:7979  pendingDataToSend[index].key */\n              0x03\n              add\n                /* \"Entity.sol\":7980:7981  i */\n              dup4\n                /* \"Entity.sol\":7951:7982  pendingDataToSend[index].key[i] */\n              0xffffffff\n              and\n              dup2\n              sload\n              dup2\n              lt\n              tag_446\n              jumpi\n              invalid\n            tag_446:\n              swap1\n              0x00\n              mstore\n              keccak256(0x00, 0x20)\n              add\n                /* \"Entity.sol\":7984:8001  pendingDataToSend */\n              0x0b\n                /* \"Entity.sol\":8002:8007  index */\n              dup8\n                /* \"Entity.sol\":7984:8008  pendingDataToSend[index] */\n              0xffffffff\n              and\n              dup2\n              sload\n              dup2\n              lt\n              tag_448\n              jumpi\n              invalid\n            tag_448:\n              swap1\n              0x00\n              mstore\n              keccak256(0x00, 0x20)\n              swap1\n              0x06\n              mul\n              add\n                /* \"Entity.sol\":7984:8014  pendingDataToSend[index].value */\n              0x04\n              add\n                /* \"Entity.sol\":8015:8016  i */\n              dup5\n                /* \"Entity.sol\":7984:8017  pendingDataToSend[index].value[i] */\n              0xffffffff\n              and\n              dup2\n              sload\n              dup2\n              lt\n              tag_450\n              jumpi\n              invalid\n            tag_450:\n              0x00\n              swap2\n              dup3\n              mstore\n              0x20\n              swap1\n              swap2\n              keccak256\n                /* \"Entity.sol\":7929:8023  receiver._receiveData(pendingDataToSend[index].key[i], pendingDataToSend[index].value[i], idx) */\n              mload(0x40)\n              0xe0\n              dup6\n              swap1\n              shl\n              not(sub(shl(0xe0, 0x01), 0x01))\n              and\n              dup2\n              mstore\n              0xffffffff\n              dup9\n              and\n              0x44\n              dup3\n              add\n              mstore\n              0x60\n              0x04\n              dup3\n              add\n              swap1\n              dup2\n              mstore\n              dup5\n              sload\n              0x02\n              0x01\n              dup3\n              and\n              iszero\n              0x0100\n              mul\n              not(0x00)\n              add\n              swap1\n              swap2\n              and\n              div\n              0x64\n              dup4\n              add\n              dup2\n              swap1\n              mstore\n                /* \"Entity.sol\":7984:8017  pendingDataToSend[index].value[i] */\n              swap3\n              swap1\n              swap4\n              add\n              swap3\n                /* \"Entity.sol\":7929:8023  receiver._receiveData(pendingDataToSend[index].key[i], pendingDataToSend[index].value[i], idx) */\n              dup9\n              swap3\n              swap1\n              swap2\n              dup3\n              swap2\n              0x24\n              dup3\n              add\n              swap2\n              0x84\n              add\n              swap1\n              dup8\n              swap1\n              dup1\n              iszero\n              tag_452\n              jumpi\n              dup1\n              0x1f\n              lt\n              tag_453\n              jumpi\n              0x0100\n              dup1\n              dup4\n              sload\n              div\n              mul\n              dup4\n              mstore\n              swap2\n              0x20\n              add\n              swap2\n              jump(tag_452)\n            tag_453:\n              dup3\n              add\n              swap2\n              swap1\n              0x00\n              mstore\n              keccak256(0x00, 0x20)\n              swap1\n            tag_454:\n              dup2\n              sload\n              dup2\n              mstore\n              swap1\n              0x01\n              add\n              swap1\n              0x20\n              add\n              dup1\n              dup4\n              gt\n              tag_454\n              jumpi\n              dup3\n              swap1\n              sub\n              0x1f\n              and\n              dup3\n              add\n              swap2\n            tag_452:\n              pop\n              pop\n              dup4\n              dup2\n              sub\n              dup3\n              mstore\n              dup6\n              sload\n              0x02\n              0x01\n              dup3\n              and\n              iszero\n              0x0100\n              mul\n              not(0x00)\n              add\n              swap1\n              swap2\n              and\n              div\n              dup1\n              dup3\n              mstore\n              0x20\n              swap1\n              swap2\n              add\n              swap1\n              dup7\n              swap1\n              dup1\n              iszero\n              tag_455\n              jumpi\n              dup1\n              0x1f\n              lt\n              tag_456\n              jumpi\n              0x0100\n              dup1\n              dup4\n              sload\n              div\n              mul\n              dup4\n              mstore\n              swap2\n              0x20\n              add\n              swap2\n              jump(tag_455)\n            tag_456:\n              dup3\n              add\n              swap2\n              swap1\n              0x00\n              mstore\n              keccak256(0x00, 0x20)\n              swap1\n            tag_457:\n              dup2\n              sload\n              dup2\n              mstore\n              swap1\n              0x01\n              add\n              swap1\n              0x20\n              add\n              dup1\n              dup4\n              gt\n              tag_457\n              jumpi\n              dup3\n              swap1\n              sub\n              0x1f\n              and\n              dup3\n              add\n              swap2\n            tag_455:\n              pop\n              pop\n              swap6\n              pop\n              pop\n              pop\n              pop\n              pop\n              pop\n              0x00\n              mload(0x40)\n              dup1\n              dup4\n              sub\n              dup2\n              0x00\n              dup8\n              dup1\n              extcodesize\n              iszero\n                /* \"--CODEGEN--\":5:14   */\n              dup1\n                /* \"--CODEGEN--\":2:4   */\n              iszero\n              tag_458\n              jumpi\n                /* \"--CODEGEN--\":27:28   */\n              0x00\n                /* \"--CODEGEN--\":24:25   */\n              dup1\n                /* \"--CODEGEN--\":17:29   */\n              revert\n                /* \"--CODEGEN--\":2:4   */\n            tag_458:\n                /* \"Entity.sol\":7929:8023  receiver._receiveData(pendingDataToSend[index].key[i], pendingDataToSend[index].value[i], idx) */\n              pop\n              gas\n              call\n              iszero\n                /* \"--CODEGEN--\":8:17   */\n              dup1\n                /* \"--CODEGEN--\":5:7   */\n              iszero\n              tag_460\n              jumpi\n                /* \"--CODEGEN--\":45:61   */\n              returndatasize\n                /* \"--CODEGEN--\":42:43   */\n              0x00\n                /* \"--CODEGEN--\":39:40   */\n              dup1\n                /* \"--CODEGEN--\":24:62   */\n              returndatacopy\n                /* \"--CODEGEN--\":77:93   */\n              returndatasize\n                /* \"--CODEGEN--\":74:75   */\n              0x00\n                /* \"--CODEGEN--\":67:94   */\n              revert\n                /* \"--CODEGEN--\":5:7   */\n            tag_460:\n              pop\n              pop\n                /* \"Entity.sol\":7911:7914  i++ */\n              0x01\n              swap1\n              swap3\n              add\n              swap2\n              pop\n                /* \"Entity.sol\":7856:8034  for(uint32 i=0; i<pendingDataToSend[index].key.length; i++){... */\n              tag_439\n              swap1\n              pop\n              jump\n            tag_440:\n              pop\n                /* \"Entity.sol\":8079:8083  true */\n              0x01\n                /* \"Entity.sol\":8043:8060  pendingDataToSend */\n              0x0b\n                /* \"Entity.sol\":8061:8066  index */\n              dup5\n                /* \"Entity.sol\":8043:8067  pendingDataToSend[index] */\n              0xffffffff\n              and\n              dup2\n              sload\n              dup2\n              lt\n              tag_461\n              jumpi\n              invalid\n            tag_461:\n              0x00\n              swap2\n              dup3\n              mstore\n              0x20\n              swap1\n              swap2\n              keccak256\n              0x06\n              swap1\n              swap2\n              mul\n              add\n                /* \"Entity.sol\":8043:8076  pendingDataToSend[index].approved */\n              0x05\n              add\n                /* \"Entity.sol\":8043:8083  pendingDataToSend[index].approved = true */\n              dup1\n              sload\n              not(0xff)\n              and\n              swap2\n              iszero\n              iszero\n              swap2\n              swap1\n              swap2\n              or\n              swap1\n              sstore\n              pop\n              pop\n              pop\n                /* \"Entity.sol\":7559:8090  function approveDataToSend(uint32 index) ... */\n              jump\t// out\n                /* \"Entity.sol\":1697:1914  function _markup(string calldata description, string calldata markup)... */\n            tag_178:\n                /* \"Entity.sol\":1825:1835  msg.sender */\n              caller\n                /* \"Entity.sol\":1806:1836  writtenDescription[msg.sender] */\n              0x00\n              swap1\n              dup2\n              mstore\n                /* \"Entity.sol\":1806:1824  writtenDescription */\n              0x08\n                /* \"Entity.sol\":1806:1836  writtenDescription[msg.sender] */\n              0x20\n              mstore\n              0x40\n              swap1\n              dup2\n              swap1\n              keccak256\n                /* \"Entity.sol\":1806:1849  writtenDescription[msg.sender][description] */\n              swap1\n              mload\n                /* \"Entity.sol\":1837:1848  description */\n              dup6\n              swap1\n              dup6\n              swap1\n                /* \"Entity.sol\":1806:1849  writtenDescription[msg.sender][description] */\n              dup1\n                /* \"Entity.sol\":1837:1848  description */\n              dup4\n              dup4\n              dup1\n              dup3\n                /* \"Entity.sol\":1806:1849  writtenDescription[msg.sender][description] */\n              dup5\n                /* \"--CODEGEN--\":1:34   */\n              calldatacopy\n                /* \"--CODEGEN--\":45:61   */\n              swap2\n              swap1\n              swap2\n              add\n                /* \"Entity.sol\":1806:1849  writtenDescription[msg.sender][description] */\n              swap5\n              dup6\n              mstore\n              pop\n              pop\n              mload(0x40)\n              swap3\n              dup4\n              swap1\n              sub\n              0x20\n              add\n              swap1\n              swap3\n              keccak256\n              sload\n              0xff\n              and\n              swap2\n              pop\n                /* \"Entity.sol\":1798:1850  require(writtenDescription[msg.sender][description]) */\n              tag_464\n              swap1\n              pop\n              jumpi\n                /* \"--CODEGEN--\":12:13   */\n              0x00\n                /* \"--CODEGEN--\":9:10   */\n              dup1\n                /* \"--CODEGEN--\":2:14   */\n              revert\n                /* \"Entity.sol\":1798:1850  require(writtenDescription[msg.sender][description]) */\n            tag_464:\n                /* \"Entity.sol\":1874:1884  msg.sender */\n              caller\n                /* \"Entity.sol\":1860:1885  MarkupsSender[msg.sender] */\n              0x00\n              swap1\n              dup2\n              mstore\n                /* \"Entity.sol\":1860:1873  MarkupsSender */\n              0x04\n                /* \"Entity.sol\":1860:1885  MarkupsSender[msg.sender] */\n              0x20\n              mstore\n              0x40\n              swap1\n              dup2\n              swap1\n              keccak256\n                /* \"Entity.sol\":1860:1898  MarkupsSender[msg.sender][description] */\n              swap1\n              mload\n                /* \"Entity.sol\":1901:1907  markup */\n              dup4\n              swap2\n              dup4\n              swap2\n                /* \"Entity.sol\":1886:1897  description */\n              dup8\n              swap1\n              dup8\n              swap1\n                /* \"Entity.sol\":1860:1898  MarkupsSender[msg.sender][description] */\n              dup1\n                /* \"Entity.sol\":1886:1897  description */\n              dup4\n              dup4\n              dup1\n              dup3\n                /* \"Entity.sol\":1860:1898  MarkupsSender[msg.sender][description] */\n              dup5\n                /* \"--CODEGEN--\":1:34   */\n              calldatacopy\n                /* \"--CODEGEN--\":57:60   */\n              dup1\n                /* \"--CODEGEN--\":49:55   */\n              dup4\n                /* \"--CODEGEN--\":45:61   */\n              add\n                /* \"--CODEGEN--\":35:61   */\n              swap3\n              pop\n                /* \"Entity.sol\":1860:1898  MarkupsSender[msg.sender][description] */\n              pop\n              pop\n              swap3\n              pop\n              pop\n              pop\n              swap1\n              dup2\n              mstore\n              0x20\n              add\n              mload(0x40)\n              dup1\n              swap2\n              sub\n              swap1\n              keccak256\n                /* \"Entity.sol\":1860:1907  MarkupsSender[msg.sender][description] = markup */\n              swap2\n              swap1\n              tag_465\n              swap3\n              swap2\n              swap1\n              tag_466\n              jump\t// in\n            tag_465:\n              pop\n                /* \"Entity.sol\":1697:1914  function _markup(string calldata description, string calldata markup)... */\n              pop\n              pop\n              pop\n              pop\n              jump\t// out\n                /* \"Entity.sol\":661:697  bool constant public isEntity = true */\n            tag_180:\n                /* \"Entity.sol\":693:697  true */\n              0x01\n                /* \"Entity.sol\":661:697  bool constant public isEntity = true */\n              dup2\n              jump\t// out\n                /* \"Entity.sol\":1920:2163  function markupSelf(address sender, string memory description, string memory markup)... */\n            tag_189:\n                /* \"MultipleEntity.sol\":224:234  msg.sender */\n              caller\n                /* \"MultipleEntity.sol\":216:235  isOwner[msg.sender] */\n              0x00\n              swap1\n              dup2\n              mstore\n                /* \"MultipleEntity.sol\":216:223  isOwner */\n              0x0c\n                /* \"MultipleEntity.sol\":216:235  isOwner[msg.sender] */\n              0x20\n              mstore\n              0x40\n              swap1\n              keccak256\n              sload\n              0xff\n              and\n                /* \"MultipleEntity.sol\":208:236  require(isOwner[msg.sender]) */\n              tag_468\n              jumpi\n                /* \"--CODEGEN--\":12:13   */\n              0x00\n                /* \"--CODEGEN--\":9:10   */\n              dup1\n                /* \"--CODEGEN--\":2:14   */\n              revert\n                /* \"MultipleEntity.sol\":208:236  require(isOwner[msg.sender]) */\n            tag_468:\n              sub(shl(0xa0, 0x01), 0x01)\n                /* \"Entity.sol\":2064:2090  writtenDescription[sender] */\n              dup4\n              and\n              0x00\n              swap1\n              dup2\n              mstore\n                /* \"Entity.sol\":2064:2082  writtenDescription */\n              0x08\n                /* \"Entity.sol\":2064:2090  writtenDescription[sender] */\n              0x20\n              swap1\n              dup2\n              mstore\n              0x40\n              swap2\n              dup3\n              swap1\n              keccak256\n                /* \"Entity.sol\":2064:2103  writtenDescription[sender][description] */\n              swap2\n              mload\n              dup5\n              mload\n                /* \"Entity.sol\":2091:2102  description */\n              dup6\n              swap3\n                /* \"Entity.sol\":2064:2103  writtenDescription[sender][description] */\n              dup3\n              swap2\n              swap1\n              dup5\n              add\n              swap1\n              dup1\n              dup4\n              dup4\n                /* \"--CODEGEN--\":36:189   */\n            tag_470:\n                /* \"--CODEGEN--\":66:68   */\n              0x20\n                /* \"--CODEGEN--\":61:64   */\n              dup4\n                /* \"--CODEGEN--\":58:69   */\n              lt\n                /* \"--CODEGEN--\":36:189   */\n              tag_472\n              jumpi\n                /* \"--CODEGEN--\":176:186   */\n              dup1\n              mload\n                /* \"--CODEGEN--\":164:187   */\n              dup3\n              mstore\n              not(0x1f)\n                /* \"--CODEGEN--\":139:151   */\n              swap1\n              swap3\n              add\n              swap2\n                /* \"--CODEGEN--\":98:100   */\n              0x20\n                /* \"--CODEGEN--\":89:101   */\n              swap2\n              dup3\n              add\n              swap2\n                /* \"--CODEGEN--\":114:126   */\n              add\n                /* \"--CODEGEN--\":36:189   */\n              jump(tag_470)\n            tag_472:\n                /* \"--CODEGEN--\":299:309   */\n              mload\n                /* \"--CODEGEN--\":344:354   */\n              dup2\n              mload\n                /* \"--CODEGEN--\":263:265   */\n              0x20\n                /* \"--CODEGEN--\":259:271   */\n              swap4\n              dup5\n              sub\n                /* \"--CODEGEN--\":254:257   */\n              0x0100\n                /* \"--CODEGEN--\":250:272   */\n              exp\n              not(0x00)\n                /* \"--CODEGEN--\":246:276   */\n              add\n                /* \"--CODEGEN--\":311:320   */\n              dup1\n              not\n                /* \"--CODEGEN--\":295:321   */\n              swap1\n              swap3\n              and\n                /* \"--CODEGEN--\":340:361   */\n              swap2\n              and\n                /* \"--CODEGEN--\":377:397   */\n              or\n                /* \"--CODEGEN--\":365:398   */\n              swap1\n              mstore\n                /* \"Entity.sol\":2064:2103  writtenDescription[sender][description] */\n              swap3\n              add\n              swap5\n              dup6\n              mstore\n              pop\n              mload(0x40)\n              swap4\n              dup5\n              swap1\n              sub\n              add\n              swap1\n              swap3\n              keccak256\n              sload\n              0xff\n              and\n              swap2\n              pop\n                /* \"Entity.sol\":2056:2104  require(writtenDescription[sender][description]) */\n              tag_473\n              swap1\n              pop\n              jumpi\n                /* \"--CODEGEN--\":12:13   */\n              0x00\n                /* \"--CODEGEN--\":9:10   */\n              dup1\n                /* \"--CODEGEN--\":2:14   */\n              revert\n                /* \"Entity.sol\":2056:2104  require(writtenDescription[sender][description]) */\n            tag_473:\n              sub(shl(0xa0, 0x01), 0x01)\n                /* \"Entity.sol\":2114:2134  MarkupsOwner[sender] */\n              dup4\n              and\n              0x00\n              swap1\n              dup2\n              mstore\n                /* \"Entity.sol\":2114:2126  MarkupsOwner */\n              0x03\n                /* \"Entity.sol\":2114:2134  MarkupsOwner[sender] */\n              0x20\n              swap1\n              dup2\n              mstore\n              0x40\n              swap2\n              dup3\n              swap1\n              keccak256\n                /* \"Entity.sol\":2114:2147  MarkupsOwner[sender][description] */\n              swap2\n              mload\n              dup5\n              mload\n                /* \"Entity.sol\":2150:2156  markup */\n              dup5\n              swap4\n                /* \"Entity.sol\":2114:2134  MarkupsOwner[sender] */\n              swap3\n                /* \"Entity.sol\":2135:2146  description */\n              dup7\n              swap3\n                /* \"Entity.sol\":2114:2147  MarkupsOwner[sender][description] */\n              swap2\n              dup3\n              swap2\n              dup5\n              add\n              swap1\n              dup1\n              dup4\n              dup4\n                /* \"--CODEGEN--\":36:189   */\n            tag_474:\n                /* \"--CODEGEN--\":66:68   */\n              0x20\n                /* \"--CODEGEN--\":61:64   */\n              dup4\n                /* \"--CODEGEN--\":58:69   */\n              lt\n                /* \"--CODEGEN--\":36:189   */\n              tag_476\n              jumpi\n                /* \"--CODEGEN--\":176:186   */\n              dup1\n              mload\n                /* \"--CODEGEN--\":164:187   */\n              dup3\n              mstore\n              not(0x1f)\n                /* \"--CODEGEN--\":139:151   */\n              swap1\n              swap3\n              add\n              swap2\n                /* \"--CODEGEN--\":98:100   */\n              0x20\n                /* \"--CODEGEN--\":89:101   */\n              swap2\n              dup3\n              add\n              swap2\n                /* \"--CODEGEN--\":114:126   */\n              add\n                /* \"--CODEGEN--\":36:189   */\n              jump(tag_474)\n            tag_476:\n                /* \"--CODEGEN--\":299:309   */\n              mload\n                /* \"--CODEGEN--\":344:354   */\n              dup2\n              mload\n                /* \"--CODEGEN--\":263:265   */\n              0x20\n                /* \"--CODEGEN--\":259:271   */\n              swap4\n              dup5\n              sub\n                /* \"--CODEGEN--\":254:257   */\n              0x0100\n                /* \"--CODEGEN--\":250:272   */\n              exp\n              not(0x00)\n                /* \"--CODEGEN--\":246:276   */\n              add\n                /* \"--CODEGEN--\":311:320   */\n              dup1\n              not\n                /* \"--CODEGEN--\":295:321   */\n              swap1\n              swap3\n              and\n                /* \"--CODEGEN--\":340:361   */\n              swap2\n              and\n                /* \"--CODEGEN--\":377:397   */\n              or\n                /* \"--CODEGEN--\":365:398   */\n              swap1\n              mstore\n                /* \"Entity.sol\":2114:2147  MarkupsOwner[sender][description] */\n              swap3\n              add\n              swap5\n              dup6\n              mstore\n              pop\n              mload(0x40)\n              swap4\n              dup5\n              swap1\n              sub\n              dup2\n              add\n              swap1\n              swap4\n              keccak256\n                /* \"Entity.sol\":2114:2156  MarkupsOwner[sender][description] = markup */\n              dup5\n              mload\n              tag_477\n              swap6\n                /* \"Entity.sol\":2114:2147  MarkupsOwner[sender][description] */\n              swap2\n              swap5\n                /* \"Entity.sol\":2114:2156  MarkupsOwner[sender][description] = markup */\n              swap2\n              swap1\n              swap2\n              add\n              swap3\n              pop\n              swap1\n              pop\n              tag_478\n              jump\t// in\n            tag_477:\n              pop\n                /* \"Entity.sol\":1920:2163  function markupSelf(address sender, string memory description, string memory markup)... */\n              pop\n              pop\n              pop\n              jump\t// out\n                /* \"Entity.sol\":5299:6680  function newDataToSend(address _receiver, string memory _description, string memory _key, string memory _value, bool direct) ... */\n            tag_201:\n                /* \"MultipleEntity.sol\":224:234  msg.sender */\n              caller\n                /* \"MultipleEntity.sol\":216:235  isOwner[msg.sender] */\n              0x00\n              swap1\n              dup2\n              mstore\n                /* \"MultipleEntity.sol\":216:223  isOwner */\n              0x0c\n                /* \"MultipleEntity.sol\":216:235  isOwner[msg.sender] */\n              0x20\n              mstore\n              0x40\n              swap1\n              keccak256\n              sload\n              0xff\n              and\n                /* \"MultipleEntity.sol\":208:236  require(isOwner[msg.sender]) */\n              tag_480\n              jumpi\n                /* \"--CODEGEN--\":12:13   */\n              0x00\n                /* \"--CODEGEN--\":9:10   */\n              dup1\n                /* \"--CODEGEN--\":2:14   */\n              revert\n                /* \"MultipleEntity.sol\":208:236  require(isOwner[msg.sender]) */\n            tag_480:\n                /* \"Entity.sol\":5477:5503  pendingData memory newData */\n              tag_482\n              tag_483\n              jump\t// in\n            tag_482:\n              sub(shl(0xa0, 0x01), 0x01)\n                /* \"Entity.sol\":5513:5544  newData.destination = _receiver */\n              dup7\n              and\n                /* \"Entity.sol\":5513:5532  newData.destination */\n              0x20\n              dup3\n              dup2\n              add\n                /* \"Entity.sol\":5513:5544  newData.destination = _receiver */\n              dup3\n              swap1\n              mstore\n                /* \"Entity.sol\":5554:5573  newData.description */\n              0x40\n              dup1\n              dup5\n              add\n                /* \"Entity.sol\":5554:5588  newData.description = _description */\n              dup9\n              swap1\n              mstore\n              0x00\n              0xa0\n                /* \"Entity.sol\":5598:5614  newData.approved */\n              dup6\n              add\n                /* \"Entity.sol\":5598:5622  newData.approved = false */\n              dup2\n              swap1\n              mstore\n                /* \"Entity.sol\":5671:5688  pendingDataToSend */\n              0x0b\n                /* \"Entity.sol\":5671:5695  pendingDataToSend.length */\n              sload\n                /* \"Entity.sol\":5632:5661  recentSendingIndex[_receiver] */\n              swap4\n              dup2\n              mstore\n              0x01\n              swap1\n              swap3\n              mstore\n              swap1\n              keccak256\n                /* \"Entity.sol\":5632:5696  recentSendingIndex[_receiver] = uint32(pendingDataToSend.length) */\n              dup1\n              sload\n              not(0xffffffff)\n              and\n              0xffffffff\n              swap1\n              swap3\n              and\n              swap2\n              swap1\n              swap2\n              or\n              swap1\n              sstore\n                /* \"Entity.sol\":5707:5732  strings.slice memory keys */\n              tag_484\n              tag_485\n              jump\t// in\n            tag_484:\n                /* \"Entity.sol\":5735:5749  _key.toSlice() */\n              tag_486\n                /* \"Entity.sol\":5735:5739  _key */\n              dup6\n                /* \"Entity.sol\":5735:5747  _key.toSlice */\n              tag_487\n                /* \"Entity.sol\":5735:5749  _key.toSlice() */\n              jump\t// in\n            tag_486:\n                /* \"Entity.sol\":5707:5749  strings.slice memory keys = _key.toSlice() */\n              swap1\n              pop\n                /* \"Entity.sol\":5759:5786  strings.slice memory values */\n              tag_488\n              tag_485\n              jump\t// in\n            tag_488:\n                /* \"Entity.sol\":5789:5805  _value.toSlice() */\n              tag_489\n                /* \"Entity.sol\":5789:5795  _value */\n              dup6\n                /* \"Entity.sol\":5789:5803  _value.toSlice */\n              tag_487\n                /* \"Entity.sol\":5789:5805  _value.toSlice() */\n              jump\t// in\n            tag_489:\n                /* \"Entity.sol\":5759:5805  strings.slice memory values = _value.toSlice() */\n              swap1\n              pop\n                /* \"Entity.sol\":5815:5842  strings.slice memory deKeys */\n              tag_490\n              tag_485\n              jump\t// in\n            tag_490:\n                /* \"Entity.sol\":5845:5856  \",\".toSlice */\n              0x40\n              dup1\n              mload\n              dup1\n              dup3\n              add\n              swap1\n              swap2\n              mstore\n              0x01\n              dup2\n              mstore\n              shl(0xfa, 0x0b)\n              0x20\n              dup3\n              add\n              mstore\n                /* \"Entity.sol\":5845:5858  \",\".toSlice() */\n              tag_491\n              swap1\n                /* \"Entity.sol\":5845:5856  \",\".toSlice */\n              tag_487\n                /* \"Entity.sol\":5845:5858  \",\".toSlice() */\n              jump\t// in\n            tag_491:\n                /* \"Entity.sol\":5815:5858  strings.slice memory deKeys = \",\".toSlice() */\n              swap1\n              pop\n                /* \"Entity.sol\":6012:6024  uint32 count */\n              0x00\n                /* \"Entity.sol\":6034:6052  keys.count(deKeys) */\n              tag_492\n                /* \"Entity.sol\":6034:6038  keys */\n              dup5\n                /* \"Entity.sol\":5815:5858  strings.slice memory deKeys = \",\".toSlice() */\n              dup4\n                /* \"Entity.sol\":6034:6052  keys.count(deKeys) */\n              0xffffffff\n                /* \"Entity.sol\":6034:6044  keys.count */\n              tag_493\n                /* \"Entity.sol\":6034:6052  keys.count(deKeys) */\n              and\n              jump\t// in\n            tag_492:\n                /* \"Entity.sol\":6053:6054  1 */\n              0x01\n                /* \"Entity.sol\":6034:6054  keys.count(deKeys)+1 */\n              add\n                /* \"Entity.sol\":6012:6055  uint32 count = uint32(keys.count(deKeys)+1) */\n              swap1\n              pop\n                /* \"Entity.sol\":6092:6097  count */\n              dup1\n                /* \"Entity.sol\":6079:6098  new string[](count) */\n              0xffffffff\n              and\n              0xffffffffffffffff\n              dup2\n              gt\n                /* \"--CODEGEN--\":5:14   */\n              dup1\n                /* \"--CODEGEN--\":2:4   */\n              iszero\n              tag_494\n              jumpi\n                /* \"--CODEGEN--\":27:28   */\n              0x00\n                /* \"--CODEGEN--\":24:25   */\n              dup1\n                /* \"--CODEGEN--\":17:29   */\n              revert\n                /* \"--CODEGEN--\":2:4   */\n            tag_494:\n                /* \"Entity.sol\":6079:6098  new string[](count) */\n              pop\n              mload(0x40)\n              swap1\n              dup1\n              dup3\n              mstore\n              dup1\n              0x20\n              mul\n              0x20\n              add\n              dup3\n              add\n              0x40\n              mstore\n              dup1\n              iszero\n              tag_495\n              jumpi\n              dup2\n              0x20\n              add\n            tag_496:\n              0x60\n              dup2\n              mstore\n              0x20\n              add\n              swap1\n              0x01\n              swap1\n              sub\n              swap1\n              dup2\n              tag_496\n              jumpi\n              swap1\n              pop\n            tag_495:\n              pop\n                /* \"Entity.sol\":6065:6076  newData.key */\n              0x60\n              dup7\n              add\n                /* \"Entity.sol\":6065:6098  newData.key = new string[](count) */\n              mstore\n                /* \"Entity.sol\":6124:6143  new string[](count) */\n              0xffffffff\n              dup2\n              and\n              0xffffffffffffffff\n              dup2\n              gt\n                /* \"--CODEGEN--\":2:4   */\n              dup1\n              iszero\n              tag_497\n              jumpi\n                /* \"--CODEGEN--\":27:28   */\n              0x00\n                /* \"--CODEGEN--\":24:25   */\n              dup1\n                /* \"--CODEGEN--\":17:29   */\n              revert\n                /* \"--CODEGEN--\":2:4   */\n            tag_497:\n                /* \"Entity.sol\":6124:6143  new string[](count) */\n              pop\n              mload(0x40)\n              swap1\n              dup1\n              dup3\n              mstore\n              dup1\n              0x20\n              mul\n              0x20\n              add\n              dup3\n              add\n              0x40\n              mstore\n              dup1\n              iszero\n              tag_498\n              jumpi\n              dup2\n              0x20\n              add\n            tag_499:\n              0x60\n              dup2\n              mstore\n              0x20\n              add\n              swap1\n              0x01\n              swap1\n              sub\n              swap1\n              dup2\n              tag_499\n              jumpi\n              swap1\n              pop\n            tag_498:\n              pop\n                /* \"Entity.sol\":6108:6121  newData.value */\n              0x80\n              dup7\n              add\n                /* \"Entity.sol\":6108:6143  newData.value = new string[](count) */\n              mstore\n                /* \"Entity.sol\":6157:6165  uint32 i */\n              0x00\n                /* \"Entity.sol\":6153:6536  for(uint32 i=0; i<count; i++){... */\n            tag_500:\n                /* \"Entity.sol\":6171:6176  count */\n              dup2\n                /* \"Entity.sol\":6169:6176  i<count */\n              0xffffffff\n              and\n                /* \"Entity.sol\":6169:6170  i */\n              dup2\n                /* \"Entity.sol\":6169:6176  i<count */\n              0xffffffff\n              and\n              lt\n                /* \"Entity.sol\":6153:6536  for(uint32 i=0; i<count; i++){... */\n              iszero\n              tag_501\n              jumpi\n                /* \"Entity.sol\":6196:6216  string memory addKey */\n              0x60\n                /* \"Entity.sol\":6219:6248  keys.split(deKeys).toString() */\n              tag_503\n                /* \"Entity.sol\":6219:6237  keys.split(deKeys) */\n              tag_504\n                /* \"Entity.sol\":6219:6223  keys */\n              dup8\n                /* \"Entity.sol\":6230:6236  deKeys */\n              dup7\n                /* \"Entity.sol\":6219:6237  keys.split(deKeys) */\n              0xffffffff\n                /* \"Entity.sol\":6219:6229  keys.split */\n              tag_505\n                /* \"Entity.sol\":6219:6237  keys.split(deKeys) */\n              and\n              jump\t// in\n            tag_504:\n                /* \"Entity.sol\":6219:6246  keys.split(deKeys).toString */\n              tag_506\n                /* \"Entity.sol\":6219:6248  keys.split(deKeys).toString() */\n              jump\t// in\n            tag_503:\n                /* \"Entity.sol\":6196:6248  string memory addKey = keys.split(deKeys).toString() */\n              swap1\n              pop\n                /* \"Entity.sol\":6262:6284  string memory addValue */\n              0x60\n                /* \"Entity.sol\":6287:6318  values.split(deKeys).toString() */\n              tag_507\n                /* \"Entity.sol\":6287:6307  values.split(deKeys) */\n              tag_504\n                /* \"Entity.sol\":6287:6293  values */\n              dup8\n                /* \"Entity.sol\":6300:6306  deKeys */\n              dup8\n                /* \"Entity.sol\":6287:6307  values.split(deKeys) */\n              0xffffffff\n                /* \"Entity.sol\":6287:6299  values.split */\n              tag_505\n                /* \"Entity.sol\":6287:6307  values.split(deKeys) */\n              and\n              jump\t// in\n                /* \"Entity.sol\":6287:6318  values.split(deKeys).toString() */\n            tag_507:\n                /* \"Entity.sol\":6262:6318  string memory addValue = values.split(deKeys).toString() */\n              swap1\n              pop\n                /* \"Entity.sol\":6349:6355  addKey */\n              dup2\n                /* \"Entity.sol\":6332:6339  newData */\n              dup9\n                /* \"Entity.sol\":6332:6343  newData.key */\n              0x60\n              add\n              mload\n                /* \"Entity.sol\":6344:6345  i */\n              dup5\n                /* \"Entity.sol\":6332:6346  newData.key[i] */\n              0xffffffff\n              and\n              dup2\n              mload\n              dup2\n              lt\n              tag_509\n              jumpi\n              invalid\n            tag_509:\n              0x20\n              mul\n              0x20\n              add\n              add\n                /* \"Entity.sol\":6332:6355  newData.key[i] = addKey */\n              dup2\n              swap1\n              mstore\n              pop\n                /* \"Entity.sol\":6388:6396  addValue */\n              dup1\n                /* \"Entity.sol\":6369:6376  newData */\n              dup9\n                /* \"Entity.sol\":6369:6382  newData.value */\n              0x80\n              add\n              mload\n                /* \"Entity.sol\":6383:6384  i */\n              dup5\n                /* \"Entity.sol\":6369:6385  newData.value[i] */\n              0xffffffff\n              and\n              dup2\n              mload\n              dup2\n              lt\n              tag_510\n              jumpi\n              invalid\n            tag_510:\n              0x20\n              swap1\n              dup2\n              mul\n              swap2\n              swap1\n              swap2\n              add\n              add\n                /* \"Entity.sol\":6369:6396  newData.value[i] = addValue */\n              mstore\n              pop\n              pop\n                /* \"Entity.sol\":6178:6181  i++ */\n              0x01\n              add\n                /* \"Entity.sol\":6153:6536  for(uint32 i=0; i<count; i++){... */\n              jump(tag_500)\n            tag_501:\n              pop\n                /* \"Entity.sol\":6554:6571  pendingDataToSend */\n              0x0b\n                /* \"--CODEGEN--\":27:37   */\n              dup1\n              sload\n                /* \"--CODEGEN--\":39:40   */\n              0x01\n                /* \"--CODEGEN--\":23:41   */\n              dup2\n              add\n                /* \"--CODEGEN--\":45:68   */\n              dup3\n              sstore\n              0x00\n                /* \"Entity.sol\":6554:6585  pendingDataToSend.push(newData) */\n              swap2\n              swap1\n              swap2\n              mstore\n              dup6\n              mload\n              0x0175b7a638427703f0dbe7bb9bbf987a2551717b34e79f33b5b1008d1fa01db9\n              0x06\n              swap1\n              swap3\n              mul\n              swap2\n              dup3\n              add\n              dup1\n              sload\n              not(sub(shl(0xa0, 0x01), 0x01))\n              swap1\n              dup2\n              and\n              sub(shl(0xa0, 0x01), 0x01)\n              swap4\n              dup5\n              and\n              or\n              dup3\n              sstore\n              0x20\n              dup1\n              dup11\n              add\n              mload\n              0x0175b7a638427703f0dbe7bb9bbf987a2551717b34e79f33b5b1008d1fa01dba\n              dup7\n              add\n              dup1\n              sload\n              swap1\n              swap4\n              and\n              swap5\n              and\n              swap4\n              swap1\n              swap4\n              or\n              swap1\n              sstore\n              0x40\n              dup9\n              add\n              mload\n              dup1\n              mload\n              dup10\n              swap5\n              swap3\n              swap4\n              tag_512\n              swap4\n              0x0175b7a638427703f0dbe7bb9bbf987a2551717b34e79f33b5b1008d1fa01dbb\n              add\n              swap3\n              add\n              swap1\n              tag_478\n              jump\t// in\n            tag_512:\n              pop\n              0x60\n              dup3\n              add\n              mload\n              dup1\n              mload\n              tag_513\n              swap2\n              0x03\n              dup5\n              add\n              swap2\n              0x20\n              swap1\n              swap2\n              add\n              swap1\n              tag_514\n              jump\t// in\n            tag_513:\n              pop\n              0x80\n              dup3\n              add\n              mload\n              dup1\n              mload\n              tag_515\n              swap2\n              0x04\n              dup5\n              add\n              swap2\n              0x20\n              swap1\n              swap2\n              add\n              swap1\n              tag_514\n              jump\t// in\n            tag_515:\n              pop\n              0xa0\n              swap2\n              swap1\n              swap2\n              add\n              mload\n              0x05\n              swap1\n              swap2\n              add\n              dup1\n              sload\n              not(0xff)\n              and\n              swap2\n              iszero\n              iszero\n              swap2\n              swap1\n              swap2\n              or\n              swap1\n              sstore\n                /* \"Entity.sol\":6595:6673  if(direct)... */\n              dup6\n              iszero\n              tag_517\n              jumpi\n                /* \"Entity.sol\":6643:6660  pendingDataToSend */\n              0x0b\n                /* \"Entity.sol\":6643:6667  pendingDataToSend.length */\n              sload\n                /* \"Entity.sol\":6618:6673  approveDataToSend(uint32(pendingDataToSend.length - 1)) */\n              tag_517\n              swap1\n              not(0x00)\n                /* \"Entity.sol\":6643:6671  pendingDataToSend.length - 1 */\n              add\n                /* \"Entity.sol\":6618:6635  approveDataToSend */\n              tag_169\n                /* \"Entity.sol\":6618:6673  approveDataToSend(uint32(pendingDataToSend.length - 1)) */\n              jump\t// in\n            tag_517:\n                /* \"MultipleEntity.sol\":246:247  _ */\n              pop\n              pop\n              pop\n              pop\n              pop\n                /* \"Entity.sol\":5299:6680  function newDataToSend(address _receiver, string memory _description, string memory _key, string memory _value, bool direct) ... */\n              pop\n              pop\n              pop\n              pop\n              pop\n              jump\t// out\n                /* \"Entity.sol\":4443:4647  function approveMultipleToReceive(address multipleEntity, uint32 index)... */\n            tag_217:\n                /* \"MultipleEntity.sol\":224:234  msg.sender */\n              caller\n                /* \"MultipleEntity.sol\":216:235  isOwner[msg.sender] */\n              0x00\n              swap1\n              dup2\n              mstore\n                /* \"MultipleEntity.sol\":216:223  isOwner */\n              0x0c\n                /* \"MultipleEntity.sol\":216:235  isOwner[msg.sender] */\n              0x20\n              mstore\n              0x40\n              swap1\n              keccak256\n              sload\n              0xff\n              and\n                /* \"MultipleEntity.sol\":208:236  require(isOwner[msg.sender]) */\n              tag_529\n              jumpi\n                /* \"--CODEGEN--\":12:13   */\n              0x00\n                /* \"--CODEGEN--\":9:10   */\n              dup1\n                /* \"--CODEGEN--\":2:14   */\n              revert\n                /* \"MultipleEntity.sol\":208:236  require(isOwner[msg.sender]) */\n            tag_529:\n                /* \"Entity.sol\":4610:4640  mE.approveDataToReceive(index) */\n              0x40\n              dup1\n              mload\n              shl(0xe0, 0x4f2bcbef)\n              dup2\n              mstore\n              0xffffffff\n              dup4\n              and\n              0x04\n              dup3\n              add\n              mstore\n              swap1\n              mload\n                /* \"Entity.sol\":4585:4599  multipleEntity */\n              dup4\n              swap2\n              sub(shl(0xa0, 0x01), 0x01)\n                /* \"Entity.sol\":4610:4633  mE.approveDataToReceive */\n              dup4\n              and\n              swap2\n              0x4f2bcbef\n              swap2\n                /* \"Entity.sol\":4610:4640  mE.approveDataToReceive(index) */\n              0x24\n              dup1\n              dup3\n              add\n              swap3\n              0x00\n              swap3\n              swap1\n              swap2\n              swap1\n              dup3\n              swap1\n              sub\n              add\n              dup2\n              dup4\n                /* \"Entity.sol\":4610:4633  mE.approveDataToReceive */\n              dup8\n                /* \"Entity.sol\":4610:4640  mE.approveDataToReceive(index) */\n              dup1\n              extcodesize\n              iszero\n                /* \"--CODEGEN--\":2:4   */\n              dup1\n              iszero\n              tag_531\n              jumpi\n                /* \"--CODEGEN--\":27:28   */\n              0x00\n                /* \"--CODEGEN--\":24:25   */\n              dup1\n                /* \"--CODEGEN--\":17:29   */\n              revert\n                /* \"--CODEGEN--\":2:4   */\n            tag_531:\n                /* \"Entity.sol\":4610:4640  mE.approveDataToReceive(index) */\n              pop\n              gas\n              call\n              iszero\n                /* \"--CODEGEN--\":8:17   */\n              dup1\n                /* \"--CODEGEN--\":5:7   */\n              iszero\n              tag_533\n              jumpi\n                /* \"--CODEGEN--\":45:61   */\n              returndatasize\n                /* \"--CODEGEN--\":42:43   */\n              0x00\n                /* \"--CODEGEN--\":39:40   */\n              dup1\n                /* \"--CODEGEN--\":24:62   */\n              returndatacopy\n                /* \"--CODEGEN--\":77:93   */\n              returndatasize\n                /* \"--CODEGEN--\":74:75   */\n              0x00\n                /* \"--CODEGEN--\":67:94   */\n              revert\n                /* \"--CODEGEN--\":5:7   */\n            tag_533:\n                /* \"Entity.sol\":4610:4640  mE.approveDataToReceive(index) */\n              pop\n              pop\n              pop\n              pop\n                /* \"MultipleEntity.sol\":246:247  _ */\n              pop\n                /* \"Entity.sol\":4443:4647  function approveMultipleToReceive(address multipleEntity, uint32 index)... */\n              pop\n              pop\n              jump\t// out\n                /* \"Entity.sol\":1263:1304  pendingData[] public pendingDataToReceive */\n            tag_220:\n              0x09\n              dup2\n              dup2\n              sload\n              dup2\n              lt\n              tag_534\n              jumpi\n              invalid\n            tag_534:\n              0x00\n              swap2\n              dup3\n              mstore\n              0x20\n              swap2\n              dup3\n              swap1\n              keccak256\n              0x06\n              swap2\n              swap1\n              swap2\n              mul\n              add\n              dup1\n              sload\n              0x01\n              dup1\n              dup4\n              add\n              sload\n              0x02\n              dup1\n              dup6\n              add\n              dup1\n              sload\n              0x40\n              dup1\n              mload\n              0x0100\n              swap7\n              dup4\n              and\n              iszero\n              swap7\n              swap1\n              swap7\n              mul\n              not(0x00)\n              add\n              swap1\n              swap2\n              and\n              swap3\n              swap1\n              swap3\n              div\n              0x1f\n              dup2\n              add\n              dup9\n              swap1\n              div\n              dup9\n              mul\n              dup6\n              add\n              dup9\n              add\n              swap1\n              swap3\n              mstore\n              dup2\n              dup5\n              mstore\n              sub(shl(0xa0, 0x01), 0x01)\n              swap5\n              dup6\n              and\n              swap8\n              pop\n              swap4\n              swap1\n              swap2\n              and\n              swap5\n              swap2\n              swap3\n              swap2\n              dup4\n              add\n              dup3\n              dup3\n              dup1\n              iszero\n              tag_536\n              jumpi\n              dup1\n              0x1f\n              lt\n              tag_537\n              jumpi\n              0x0100\n              dup1\n              dup4\n              sload\n              div\n              mul\n              dup4\n              mstore\n              swap2\n              0x20\n              add\n              swap2\n              jump(tag_536)\n            tag_537:\n              dup3\n              add\n              swap2\n              swap1\n              0x00\n              mstore\n              keccak256(0x00, 0x20)\n              swap1\n            tag_538:\n              dup2\n              sload\n              dup2\n              mstore\n              swap1\n              0x01\n              add\n              swap1\n              0x20\n              add\n              dup1\n              dup4\n              gt\n              tag_538\n              jumpi\n              dup3\n              swap1\n              sub\n              0x1f\n              and\n              dup3\n              add\n              swap2\n            tag_536:\n              pop\n              pop\n              pop\n              0x05\n              swap1\n              swap4\n              add\n              sload\n              swap2\n              swap3\n              pop\n              pop\n              0xff\n              and\n              dup5\n              jump\t// out\n                /* \"Entity.sol\":2563:2782  function _receiveData(string calldata _key, string calldata _value, uint32 index)... */\n            tag_233:\n                /* \"Entity.sol\":2677:2697  pendingDataToReceive */\n              0x09\n                /* \"Entity.sol\":2698:2703  index */\n              dup2\n                /* \"Entity.sol\":2677:2704  pendingDataToReceive[index] */\n              0xffffffff\n              and\n              dup2\n              sload\n              dup2\n              lt\n              tag_540\n              jumpi\n              invalid\n            tag_540:\n              0x00\n              swap2\n              dup3\n              mstore\n              0x20\n              dup1\n              dup4\n              keccak256\n                /* \"Entity.sol\":2677:2710  pendingDataToReceive[index].value */\n              0x04\n                /* \"Entity.sol\":2677:2704  pendingDataToReceive[index] */\n              0x06\n              swap1\n              swap4\n              mul\n              add\n                /* \"Entity.sol\":2677:2710  pendingDataToReceive[index].value */\n              swap2\n              swap1\n              swap2\n              add\n                /* \"--CODEGEN--\":27:37   */\n              dup1\n              sload\n                /* \"--CODEGEN--\":39:40   */\n              0x01\n                /* \"--CODEGEN--\":23:41   */\n              dup2\n              add\n                /* \"--CODEGEN--\":45:68   */\n              dup3\n              sstore\n                /* \"Entity.sol\":2677:2723  pendingDataToReceive[index].value.push(_value) */\n              swap1\n              dup4\n              mstore\n              swap2\n              keccak256\n              tag_543\n              swap2\n              add\n                /* \"Entity.sol\":2716:2722  _value */\n              dup5\n              dup5\n                /* \"Entity.sol\":2677:2723  pendingDataToReceive[index].value.push(_value) */\n              tag_466\n              jump\t// in\n            tag_543:\n              pop\n                /* \"Entity.sol\":2733:2753  pendingDataToReceive */\n              0x09\n                /* \"Entity.sol\":2754:2759  index */\n              dup2\n                /* \"Entity.sol\":2733:2760  pendingDataToReceive[index] */\n              0xffffffff\n              and\n              dup2\n              sload\n              dup2\n              lt\n              tag_544\n              jumpi\n              invalid\n            tag_544:\n              0x00\n              swap2\n              dup3\n              mstore\n              0x20\n              dup1\n              dup4\n              keccak256\n                /* \"Entity.sol\":2733:2764  pendingDataToReceive[index].key */\n              0x03\n                /* \"Entity.sol\":2733:2760  pendingDataToReceive[index] */\n              0x06\n              swap1\n              swap4\n              mul\n              add\n                /* \"Entity.sol\":2733:2764  pendingDataToReceive[index].key */\n              swap2\n              swap1\n              swap2\n              add\n                /* \"--CODEGEN--\":27:37   */\n              dup1\n              sload\n                /* \"--CODEGEN--\":39:40   */\n              0x01\n                /* \"--CODEGEN--\":23:41   */\n              dup2\n              add\n                /* \"--CODEGEN--\":45:68   */\n              dup3\n              sstore\n                /* \"Entity.sol\":2733:2775  pendingDataToReceive[index].key.push(_key) */\n              swap1\n              dup4\n              mstore\n              swap2\n              keccak256\n              tag_547\n              swap2\n              add\n                /* \"Entity.sol\":2770:2774  _key */\n              dup7\n              dup7\n                /* \"Entity.sol\":2733:2775  pendingDataToReceive[index].key.push(_key) */\n              tag_466\n              jump\t// in\n            tag_547:\n              pop\n                /* \"Entity.sol\":2563:2782  function _receiveData(string calldata _key, string calldata _value, uint32 index)... */\n              pop\n              pop\n              pop\n              pop\n              pop\n              jump\t// out\n                /* \"Entity.sol\":8468:8634  function dataSizeToSend(uint32 index) ... */\n            tag_236:\n                /* \"Entity.sol\":8554:8560  uint32 */\n              0x00\n                /* \"Entity.sol\":8591:8608  pendingDataToSend */\n              0x0b\n                /* \"Entity.sol\":8609:8614  index */\n              dup3\n                /* \"Entity.sol\":8591:8615  pendingDataToSend[index] */\n              0xffffffff\n              and\n              dup2\n              sload\n              dup2\n              lt\n              tag_420\n              jumpi\n              invalid\n                /* \"Entity.sol\":1393:1431  pendingData[] public pendingDataToSend */\n            tag_239:\n              0x0b\n              dup2\n              dup2\n              sload\n              dup2\n              lt\n              tag_534\n              jumpi\n              invalid\n                /* \"Entity.sol\":1156:1221  mapping(address=>mapping(string=>bool)) public writtenDescription */\n            tag_249:\n              0x08\n              0x20\n              swap1\n              dup2\n              mstore\n              0x00\n              swap3\n              dup4\n              mstore\n              0x40\n              swap1\n              swap3\n              keccak256\n                /* \"--CODEGEN--\":22:36   */\n              dup2\n              mload\n                /* \"--CODEGEN--\":143:175   */\n              dup1\n              dup4\n              add\n              dup5\n              add\n                /* \"--CODEGEN--\":198:218   */\n              dup1\n              mload\n                /* \"--CODEGEN--\":224:255   */\n              swap3\n              dup2\n              mstore\n                /* \"--CODEGEN--\":156:174   */\n              swap1\n              dup5\n              add\n                /* \"--CODEGEN--\":283:301   */\n              swap3\n              swap1\n              swap4\n              add\n                /* \"--CODEGEN--\":273:322   */\n              swap2\n              swap1\n              swap2\n              keccak256\n                /* \"--CODEGEN--\":328:360   */\n              swap2\n              mstore\n                /* \"Entity.sol\":1156:1221  mapping(address=>mapping(string=>bool)) public writtenDescription */\n              sload\n              0xff\n              and\n              dup2\n              jump\t// out\n                /* \"Entity.sol\":2200:2553  function _newData(string calldata _description)... */\n            tag_255:\n                /* \"Entity.sol\":2282:2288  uint32 */\n              0x00\n                /* \"Entity.sol\":2305:2331  pendingData memory newData */\n              tag_557\n              tag_483\n              jump\t// in\n            tag_557:\n                /* \"Entity.sol\":2358:2368  msg.sender */\n              caller\n                /* \"Entity.sol\":2341:2368  newData.source = msg.sender */\n              dup2\n              mstore\n                /* \"Entity.sol\":2378:2412  newData.description = _description */\n              0x40\n              dup1\n              mload\n              0x20\n              0x1f\n              dup7\n              add\n              dup2\n              swap1\n              div\n              dup2\n              mul\n              dup3\n              add\n              dup2\n              add\n              swap1\n              swap3\n              mstore\n              dup5\n              dup2\n              mstore\n              swap1\n                /* \"Entity.sol\":2400:2412  _description */\n              dup6\n              swap1\n              dup6\n              swap1\n              dup2\n              swap1\n                /* \"Entity.sol\":2378:2412  newData.description = _description */\n              dup5\n              add\n                /* \"Entity.sol\":2400:2412  _description */\n              dup4\n              dup3\n              dup1\n              dup3\n                /* \"Entity.sol\":2378:2412  newData.description = _description */\n              dup5\n                /* \"--CODEGEN--\":1:34   */\n              calldatacopy\n                /* \"--CODEGEN--\":99:100   */\n              0x00\n                /* \"--CODEGEN--\":81:97   */\n              swap3\n              add\n                /* \"--CODEGEN--\":74:101   */\n              dup3\n              swap1\n              mstore\n              pop\n                /* \"Entity.sol\":2378:2397  newData.description */\n              0x40\n              dup7\n              add\n                /* \"Entity.sol\":2378:2412  newData.description = _description */\n              swap5\n              dup6\n              mstore\n                /* \"Entity.sol\":2422:2438  newData.approved */\n              0xa0\n              dup7\n              add\n                /* \"Entity.sol\":2422:2446  newData.approved = false */\n              dup2\n              swap1\n              mstore\n                /* \"Entity.sol\":2456:2476  pendingDataToReceive */\n              0x09\n                /* \"--CODEGEN--\":27:37   */\n              dup1\n              sload\n                /* \"Entity.sol\":2422:2446  newData.approved = false */\n              0x01\n                /* \"--CODEGEN--\":23:41   */\n              dup2\n              add\n                /* \"--CODEGEN--\":45:68   */\n              dup3\n              sstore\n                /* \"Entity.sol\":2456:2490  pendingDataToReceive.push(newData) */\n              swap2\n              mstore\n              dup6\n              mload\n              0x6e1540171b6c0c960b71a7020d9f60077f6af931a8bbf590da0223dacf75c7af\n              0x06\n              swap1\n              swap3\n              mul\n              swap2\n              dup3\n              add\n              dup1\n              sload\n              not(sub(shl(0xa0, 0x01), 0x01))\n              swap1\n              dup2\n              and\n              sub(shl(0xa0, 0x01), 0x01)\n              swap4\n              dup5\n              and\n              or\n              dup3\n              sstore\n              0x20\n              dup1\n              dup11\n              add\n              mload\n              0x6e1540171b6c0c960b71a7020d9f60077f6af931a8bbf590da0223dacf75c7b0\n              dup7\n              add\n              dup1\n              sload\n              swap1\n              swap4\n              and\n              swap5\n              and\n              swap4\n              swap1\n              swap4\n              or\n              swap1\n              sstore\n              swap6\n              mload\n              dup1\n              mload\n                /* \"Entity.sol\":2378:2397  newData.description */\n              dup9\n              swap8\n                /* \"Entity.sol\":2456:2490  pendingDataToReceive.push(newData) */\n              swap7\n              pop\n              tag_559\n              swap6\n              pop\n              0x6e1540171b6c0c960b71a7020d9f60077f6af931a8bbf590da0223dacf75c7b1\n              swap1\n              swap4\n              add\n              swap4\n              pop\n              add\n              swap1\n              tag_478\n              jump\t// in\n            tag_559:\n              pop\n              0x60\n              dup3\n              add\n              mload\n              dup1\n              mload\n              tag_560\n              swap2\n              0x03\n              dup5\n              add\n              swap2\n              0x20\n              swap1\n              swap2\n              add\n              swap1\n              tag_514\n              jump\t// in\n            tag_560:\n              pop\n              0x80\n              dup3\n              add\n              mload\n              dup1\n              mload\n              tag_561\n              swap2\n              0x04\n              dup5\n              add\n              swap2\n              0x20\n              swap1\n              swap2\n              add\n              swap1\n              tag_514\n              jump\t// in\n            tag_561:\n              pop\n              0xa0\n              swap2\n              swap1\n              swap2\n              add\n              mload\n              0x05\n              swap1\n              swap2\n              add\n              dup1\n              sload\n              not(0xff)\n              and\n              swap2\n              iszero\n              iszero\n              swap2\n              swap1\n              swap2\n              or\n              swap1\n              sstore\n              pop\n              pop\n                /* \"Entity.sol\":2514:2534  pendingDataToReceive */\n              0x09\n                /* \"Entity.sol\":2514:2541  pendingDataToReceive.length */\n              sload\n              not(0x00)\n                /* \"Entity.sol\":2514:2545  pendingDataToReceive.length - 1 */\n              add\n              swap3\n                /* \"Entity.sol\":2200:2553  function _newData(string calldata _description)... */\n              swap2\n              pop\n              pop\n              jump\t// out\n                /* \"Entity.sol\":9289:9455  function descriptionLength(address source)... */\n            tag_258:\n              sub(shl(0xa0, 0x01), 0x01)\n                /* \"Entity.sol\":9412:9440  descriptionsBySource[source] */\n              and\n                /* \"Entity.sol\":9376:9382  uint32 */\n              0x00\n                /* \"Entity.sol\":9412:9440  descriptionsBySource[source] */\n              swap1\n              dup2\n              mstore\n                /* \"Entity.sol\":9412:9432  descriptionsBySource */\n              0x07\n                /* \"Entity.sol\":9412:9440  descriptionsBySource[source] */\n              0x20\n              mstore\n              0x40\n              swap1\n              keccak256\n                /* \"Entity.sol\":9412:9447  descriptionsBySource[source].length */\n              sload\n              swap1\n                /* \"Entity.sol\":9289:9455  function descriptionLength(address source)... */\n              jump\t// out\n                /* \"Entity.sol\":8308:8458  function pendingDataToSendCount() ... */\n            tag_260:\n                /* \"Entity.sol\":8426:8443  pendingDataToSend */\n              0x0b\n                /* \"Entity.sol\":8426:8450  pendingDataToSend.length */\n              sload\n                /* \"Entity.sol\":8308:8458  function pendingDataToSendCount() ... */\n              swap1\n              jump\t// out\n                /* \"Entity.sol\":729:779  mapping(address=>uint32) public recentSendingIndex */\n            tag_263:\n              mstore(0x20, 0x01)\n              0x00\n              swap1\n              dup2\n              mstore\n              0x40\n              swap1\n              keccak256\n              sload\n              0xffffffff\n              and\n              dup2\n              jump\t// out\n                /* \"Entity.sol\":5005:5260  function keyValueOfDataToReceive(uint32 index, uint32 keyIndex)... */\n            tag_266:\n                /* \"Entity.sol\":5114:5127  string memory */\n              0x60\n                /* \"Entity.sol\":5129:5142  string memory */\n              dup1\n                /* \"Entity.sol\":5166:5186  pendingDataToReceive */\n              0x09\n                /* \"Entity.sol\":5187:5192  index */\n              dup5\n                /* \"Entity.sol\":5166:5193  pendingDataToReceive[index] */\n              0xffffffff\n              and\n              dup2\n              sload\n              dup2\n              lt\n              tag_565\n              jumpi\n              invalid\n            tag_565:\n              swap1\n              0x00\n              mstore\n              keccak256(0x00, 0x20)\n              swap1\n              0x06\n              mul\n              add\n                /* \"Entity.sol\":5166:5197  pendingDataToReceive[index].key */\n              0x03\n              add\n                /* \"Entity.sol\":5198:5206  keyIndex */\n              dup4\n                /* \"Entity.sol\":5166:5207  pendingDataToReceive[index].key[keyIndex] */\n              0xffffffff\n              and\n              dup2\n              sload\n              dup2\n              lt\n              tag_567\n              jumpi\n              invalid\n            tag_567:\n              swap1\n              0x00\n              mstore\n              keccak256(0x00, 0x20)\n              add\n                /* \"Entity.sol\":5209:5229  pendingDataToReceive */\n              0x09\n                /* \"Entity.sol\":5230:5235  index */\n              dup6\n                /* \"Entity.sol\":5209:5236  pendingDataToReceive[index] */\n              0xffffffff\n              and\n              dup2\n              sload\n              dup2\n              lt\n              tag_315\n              jumpi\n              invalid\n                /* \"Entity.sol\":8100:8298  function approveMultipleToSend(address multipleEntity, uint32 index)... */\n            tag_277:\n                /* \"MultipleEntity.sol\":224:234  msg.sender */\n              caller\n                /* \"MultipleEntity.sol\":216:235  isOwner[msg.sender] */\n              0x00\n              swap1\n              dup2\n              mstore\n                /* \"MultipleEntity.sol\":216:223  isOwner */\n              0x0c\n                /* \"MultipleEntity.sol\":216:235  isOwner[msg.sender] */\n              0x20\n              mstore\n              0x40\n              swap1\n              keccak256\n              sload\n              0xff\n              and\n                /* \"MultipleEntity.sol\":208:236  require(isOwner[msg.sender]) */\n              tag_580\n              jumpi\n                /* \"--CODEGEN--\":12:13   */\n              0x00\n                /* \"--CODEGEN--\":9:10   */\n              dup1\n                /* \"--CODEGEN--\":2:14   */\n              revert\n                /* \"MultipleEntity.sol\":208:236  require(isOwner[msg.sender]) */\n            tag_580:\n                /* \"Entity.sol\":8264:8291  me.approveDataToSend(index) */\n              0x40\n              dup1\n              mload\n              shl(0xe0, 0x838ebd85)\n              dup2\n              mstore\n              0xffffffff\n              dup4\n              and\n              0x04\n              dup3\n              add\n              mstore\n              swap1\n              mload\n                /* \"Entity.sol\":8239:8253  multipleEntity */\n              dup4\n              swap2\n              sub(shl(0xa0, 0x01), 0x01)\n                /* \"Entity.sol\":8264:8284  me.approveDataToSend */\n              dup4\n              and\n              swap2\n              0x838ebd85\n              swap2\n                /* \"Entity.sol\":8264:8291  me.approveDataToSend(index) */\n              0x24\n              dup1\n              dup3\n              add\n              swap3\n              0x00\n              swap3\n              swap1\n              swap2\n              swap1\n              dup3\n              swap1\n              sub\n              add\n              dup2\n              dup4\n                /* \"Entity.sol\":8264:8284  me.approveDataToSend */\n              dup8\n                /* \"Entity.sol\":8264:8291  me.approveDataToSend(index) */\n              dup1\n              extcodesize\n              iszero\n                /* \"--CODEGEN--\":2:4   */\n              dup1\n              iszero\n              tag_531\n              jumpi\n                /* \"--CODEGEN--\":27:28   */\n              0x00\n                /* \"--CODEGEN--\":24:25   */\n              dup1\n                /* \"--CODEGEN--\":17:29   */\n              revert\n                /* \"Entity.sol\":703:723  bool public isSingle */\n            tag_279:\n              and(0xff, sload(0x00))\n              dup2\n              jump\t// out\n                /* \"Entity.sol\":7297:7549  function addDataMultipleToSend(address multipleEntity, string memory _key, string memory _value, uint32 index) ... */\n            tag_288:\n                /* \"MultipleEntity.sol\":224:234  msg.sender */\n              caller\n                /* \"MultipleEntity.sol\":216:235  isOwner[msg.sender] */\n              0x00\n              swap1\n              dup2\n              mstore\n                /* \"MultipleEntity.sol\":216:223  isOwner */\n              0x0c\n                /* \"MultipleEntity.sol\":216:235  isOwner[msg.sender] */\n              0x20\n              mstore\n              0x40\n              swap1\n              keccak256\n              sload\n              0xff\n              and\n                /* \"MultipleEntity.sol\":208:236  require(isOwner[msg.sender]) */\n              tag_586\n              jumpi\n                /* \"--CODEGEN--\":12:13   */\n              0x00\n                /* \"--CODEGEN--\":9:10   */\n              dup1\n                /* \"--CODEGEN--\":2:14   */\n              revert\n                /* \"MultipleEntity.sol\":208:236  require(isOwner[msg.sender]) */\n            tag_586:\n                /* \"Entity.sol\":7505:7542  me.addDataToSend(_key, _value, index) */\n              mload(0x40)\n              shl(0xe1, 0x7e15477d)\n              dup2\n              mstore\n              0xffffffff\n              dup3\n              and\n              0x44\n              dup3\n              add\n              mstore\n              0x60\n              0x04\n              dup3\n              add\n              swap1\n              dup2\n              mstore\n              dup5\n              mload\n              0x64\n              dup4\n              add\n              mstore\n              dup5\n              mload\n                /* \"Entity.sol\":7480:7494  multipleEntity */\n              dup7\n              swap3\n              sub(shl(0xa0, 0x01), 0x01)\n                /* \"Entity.sol\":7505:7521  me.addDataToSend */\n              dup5\n              and\n              swap3\n              0xfc2a8efa\n              swap3\n                /* \"Entity.sol\":7505:7542  me.addDataToSend(_key, _value, index) */\n              dup9\n              swap3\n                /* \"Entity.sol\":7528:7534  _value */\n              dup9\n              swap3\n                /* \"Entity.sol\":7505:7542  me.addDataToSend(_key, _value, index) */\n              dup9\n              swap3\n              swap1\n              swap2\n              dup3\n              swap2\n              0x24\n              dup3\n              add\n              swap2\n              0x84\n              add\n              swap1\n              0x20\n              dup9\n              add\n              swap1\n              dup1\n              dup4\n              dup4\n              0x00\n                /* \"--CODEGEN--\":8:108   */\n            tag_588:\n                /* \"--CODEGEN--\":33:36   */\n              dup4\n                /* \"--CODEGEN--\":30:31   */\n              dup2\n                /* \"--CODEGEN--\":27:37   */\n              lt\n                /* \"--CODEGEN--\":8:108   */\n              iszero\n              tag_590\n              jumpi\n                /* \"--CODEGEN--\":90:101   */\n              dup2\n              dup2\n              add\n                /* \"--CODEGEN--\":84:102   */\n              mload\n                /* \"--CODEGEN--\":71:82   */\n              dup4\n              dup3\n              add\n                /* \"--CODEGEN--\":64:103   */\n              mstore\n                /* \"--CODEGEN--\":52:54   */\n              0x20\n                /* \"--CODEGEN--\":45:55   */\n              add\n                /* \"--CODEGEN--\":8:108   */\n              jump(tag_588)\n            tag_590:\n                /* \"--CODEGEN--\":12:26   */\n              pop\n                /* \"Entity.sol\":7505:7542  me.addDataToSend(_key, _value, index) */\n              pop\n              pop\n              pop\n              swap1\n              pop\n              swap1\n              dup2\n              add\n              swap1\n              0x1f\n              and\n              dup1\n              iszero\n              tag_591\n              jumpi\n              dup1\n              dup3\n              sub\n              dup1\n              mload\n              0x01\n              dup4\n              0x20\n              sub\n              0x0100\n              exp\n              sub\n              not\n              and\n              dup2\n              mstore\n              0x20\n              add\n              swap2\n              pop\n            tag_591:\n              pop\n              dup4\n              dup2\n              sub\n              dup3\n              mstore\n              dup6\n              mload\n              dup2\n              mstore\n              dup6\n              mload\n              0x20\n              swap2\n              dup3\n              add\n              swap2\n              dup8\n              add\n              swap1\n              dup1\n              dup4\n              dup4\n                /* \"--CODEGEN--\":23:24   */\n              0x00\n                /* \"--CODEGEN--\":8:108   */\n            tag_592:\n                /* \"--CODEGEN--\":33:36   */\n              dup4\n                /* \"--CODEGEN--\":30:31   */\n              dup2\n                /* \"--CODEGEN--\":27:37   */\n              lt\n                /* \"--CODEGEN--\":8:108   */\n              iszero\n              tag_594\n              jumpi\n                /* \"--CODEGEN--\":90:101   */\n              dup2\n              dup2\n              add\n                /* \"--CODEGEN--\":84:102   */\n              mload\n                /* \"--CODEGEN--\":71:82   */\n              dup4\n              dup3\n              add\n                /* \"--CODEGEN--\":64:103   */\n              mstore\n                /* \"--CODEGEN--\":52:54   */\n              0x20\n                /* \"--CODEGEN--\":45:55   */\n              add\n                /* \"--CODEGEN--\":8:108   */\n              jump(tag_592)\n            tag_594:\n                /* \"--CODEGEN--\":12:26   */\n              pop\n                /* \"Entity.sol\":7505:7542  me.addDataToSend(_key, _value, index) */\n              pop\n              pop\n              pop\n              swap1\n              pop\n              swap1\n              dup2\n              add\n              swap1\n              0x1f\n              and\n              dup1\n              iszero\n              tag_595\n              jumpi\n              dup1\n              dup3\n              sub\n              dup1\n              mload\n              0x01\n              dup4\n              0x20\n              sub\n              0x0100\n              exp\n              sub\n              not\n              and\n              dup2\n              mstore\n              0x20\n              add\n              swap2\n              pop\n            tag_595:\n              pop\n              swap6\n              pop\n              pop\n              pop\n              pop\n              pop\n              pop\n              0x00\n              mload(0x40)\n              dup1\n              dup4\n              sub\n              dup2\n              0x00\n              dup8\n              dup1\n              extcodesize\n              iszero\n                /* \"--CODEGEN--\":5:14   */\n              dup1\n                /* \"--CODEGEN--\":2:4   */\n              iszero\n              tag_596\n              jumpi\n                /* \"--CODEGEN--\":27:28   */\n              0x00\n                /* \"--CODEGEN--\":24:25   */\n              dup1\n                /* \"--CODEGEN--\":17:29   */\n              revert\n                /* \"--CODEGEN--\":2:4   */\n            tag_596:\n                /* \"Entity.sol\":7505:7542  me.addDataToSend(_key, _value, index) */\n              pop\n              gas\n              call\n              iszero\n                /* \"--CODEGEN--\":8:17   */\n              dup1\n                /* \"--CODEGEN--\":5:7   */\n              iszero\n              tag_598\n              jumpi\n                /* \"--CODEGEN--\":45:61   */\n              returndatasize\n                /* \"--CODEGEN--\":42:43   */\n              0x00\n                /* \"--CODEGEN--\":39:40   */\n              dup1\n                /* \"--CODEGEN--\":24:62   */\n              returndatacopy\n                /* \"--CODEGEN--\":77:93   */\n              returndatasize\n                /* \"--CODEGEN--\":74:75   */\n              0x00\n                /* \"--CODEGEN--\":67:94   */\n              revert\n                /* \"--CODEGEN--\":5:7   */\n            tag_598:\n                /* \"Entity.sol\":7505:7542  me.addDataToSend(_key, _value, index) */\n              pop\n              pop\n              pop\n              pop\n                /* \"MultipleEntity.sol\":246:247  _ */\n              pop\n                /* \"Entity.sol\":7297:7549  function addDataMultipleToSend(address multipleEntity, string memory _key, string memory _value, uint32 index) ... */\n              pop\n              pop\n              pop\n              pop\n              jump\t// out\n                /* \"Entity.sol\":1049:1089  mapping(address=>bool) public hasWritten */\n            tag_291:\n              mstore(0x20, 0x06)\n              0x00\n              swap1\n              dup2\n              mstore\n              0x40\n              swap1\n              keccak256\n              sload\n              0xff\n              and\n              dup2\n              jump\t// out\n                /* \"Entity.sol\":7056:7287  function addDataToSend(string memory _key, string memory _value, uint32 index) ... */\n            tag_300:\n                /* \"MultipleEntity.sol\":224:234  msg.sender */\n              caller\n                /* \"MultipleEntity.sol\":216:235  isOwner[msg.sender] */\n              0x00\n              swap1\n              dup2\n              mstore\n                /* \"MultipleEntity.sol\":216:223  isOwner */\n              0x0c\n                /* \"MultipleEntity.sol\":216:235  isOwner[msg.sender] */\n              0x20\n              mstore\n              0x40\n              swap1\n              keccak256\n              sload\n              0xff\n              and\n                /* \"MultipleEntity.sol\":208:236  require(isOwner[msg.sender]) */\n              tag_600\n              jumpi\n                /* \"--CODEGEN--\":12:13   */\n              0x00\n                /* \"--CODEGEN--\":9:10   */\n              dup1\n                /* \"--CODEGEN--\":2:14   */\n              revert\n                /* \"MultipleEntity.sol\":208:236  require(isOwner[msg.sender]) */\n            tag_600:\n                /* \"Entity.sol\":7188:7205  pendingDataToSend */\n              0x0b\n                /* \"Entity.sol\":7206:7211  index */\n              dup2\n                /* \"Entity.sol\":7188:7212  pendingDataToSend[index] */\n              0xffffffff\n              and\n              dup2\n              sload\n              dup2\n              lt\n              tag_602\n              jumpi\n              invalid\n            tag_602:\n              0x00\n              swap2\n              dup3\n              mstore\n              0x20\n              dup1\n              dup4\n              keccak256\n                /* \"Entity.sol\":7188:7216  pendingDataToSend[index].key */\n              0x03\n                /* \"Entity.sol\":7188:7212  pendingDataToSend[index] */\n              0x06\n              swap1\n              swap4\n              mul\n              add\n                /* \"Entity.sol\":7188:7216  pendingDataToSend[index].key */\n              swap2\n              swap1\n              swap2\n              add\n                /* \"--CODEGEN--\":27:37   */\n              dup1\n              sload\n                /* \"--CODEGEN--\":39:40   */\n              0x01\n                /* \"--CODEGEN--\":23:41   */\n              dup2\n              add\n                /* \"--CODEGEN--\":45:68   */\n              dup3\n              sstore\n                /* \"Entity.sol\":7188:7227  pendingDataToSend[index].key.push(_key) */\n              swap1\n              dup4\n              mstore\n              swap2\n              dup2\n              swap1\n              keccak256\n              dup6\n              mload\n              tag_605\n              swap4\n              swap2\n              swap1\n              swap2\n              add\n              swap2\n              dup7\n              add\n              swap1\n              tag_478\n              jump\t// in\n            tag_605:\n              pop\n                /* \"Entity.sol\":7237:7254  pendingDataToSend */\n              0x0b\n                /* \"Entity.sol\":7255:7260  index */\n              dup2\n                /* \"Entity.sol\":7237:7261  pendingDataToSend[index] */\n              0xffffffff\n              and\n              dup2\n              sload\n              dup2\n              lt\n              tag_606\n              jumpi\n              invalid\n            tag_606:\n              0x00\n              swap2\n              dup3\n              mstore\n              0x20\n              dup1\n              dup4\n              keccak256\n                /* \"Entity.sol\":7237:7267  pendingDataToSend[index].value */\n              0x04\n                /* \"Entity.sol\":7237:7261  pendingDataToSend[index] */\n              0x06\n              swap1\n              swap4\n              mul\n              add\n                /* \"Entity.sol\":7237:7267  pendingDataToSend[index].value */\n              swap2\n              swap1\n              swap2\n              add\n                /* \"--CODEGEN--\":27:37   */\n              dup1\n              sload\n                /* \"--CODEGEN--\":39:40   */\n              0x01\n                /* \"--CODEGEN--\":23:41   */\n              dup2\n              add\n                /* \"--CODEGEN--\":45:68   */\n              dup3\n              sstore\n                /* \"Entity.sol\":7237:7280  pendingDataToSend[index].value.push(_value) */\n              swap1\n              dup4\n              mstore\n              swap2\n              dup2\n              swap1\n              keccak256\n              dup5\n              mload\n              tag_477\n              swap4\n              swap2\n              swap1\n              swap2\n              add\n              swap2\n              dup6\n              add\n              swap1\n              tag_478\n              jump\t// in\n                /* \"Entity.sol\":2792:4195  function _approveDataToReceive(uint32 index) ... */\n            tag_394:\n                /* \"Entity.sol\":2878:2898  pendingDataToReceive */\n              0x09\n                /* \"Entity.sol\":2899:2904  index */\n              dup2\n                /* \"Entity.sol\":2878:2905  pendingDataToReceive[index] */\n              0xffffffff\n              and\n              dup2\n              sload\n              dup2\n              lt\n              tag_611\n              jumpi\n              invalid\n            tag_611:\n              0x00\n              swap2\n              dup3\n              mstore\n              0x20\n              swap1\n              swap2\n              keccak256\n                /* \"Entity.sol\":2878:2914  pendingDataToReceive[index].approved */\n              0x05\n                /* \"Entity.sol\":2878:2905  pendingDataToReceive[index] */\n              0x06\n              swap1\n              swap3\n              mul\n              add\n                /* \"Entity.sol\":2878:2914  pendingDataToReceive[index].approved */\n              add\n              sload\n              0xff\n              and\n                /* \"Entity.sol\":2877:2914  !pendingDataToReceive[index].approved */\n              iszero\n                /* \"Entity.sol\":2869:2915  require(!pendingDataToReceive[index].approved) */\n              tag_613\n              jumpi\n                /* \"--CODEGEN--\":12:13   */\n              0x00\n                /* \"--CODEGEN--\":9:10   */\n              dup1\n                /* \"--CODEGEN--\":2:14   */\n              revert\n                /* \"Entity.sol\":2869:2915  require(!pendingDataToReceive[index].approved) */\n            tag_613:\n                /* \"Entity.sol\":2925:2954  storingData storage toApprove */\n              0x00\n                /* \"Entity.sol\":2957:2964  Storage */\n              0x02\n                /* \"Entity.sol\":2957:3000  Storage[pendingDataToReceive[index].source] */\n              0x00\n                /* \"Entity.sol\":2965:2985  pendingDataToReceive */\n              0x09\n                /* \"Entity.sol\":2986:2991  index */\n              dup5\n                /* \"Entity.sol\":2965:2992  pendingDataToReceive[index] */\n              0xffffffff\n              and\n              dup2\n              sload\n              dup2\n              lt\n              tag_614\n              jumpi\n              invalid\n            tag_614:\n              0x00\n              swap2\n              dup3\n              mstore\n              0x20\n              dup1\n              dup4\n              keccak256\n              0x06\n              swap3\n              swap1\n              swap3\n              mul\n              swap1\n              swap2\n              add\n                /* \"Entity.sol\":2965:2999  pendingDataToReceive[index].source */\n              sload\n              sub(shl(0xa0, 0x01), 0x01)\n              and\n                /* \"Entity.sol\":2957:3000  Storage[pendingDataToReceive[index].source] */\n              dup4\n              mstore\n              dup3\n              add\n              swap3\n              swap1\n              swap3\n              mstore\n              0x40\n              add\n              swap1\n              keccak256\n                /* \"Entity.sol\":3001:3021  pendingDataToReceive */\n              0x09\n                /* \"Entity.sol\":3001:3028  pendingDataToReceive[index] */\n              dup1\n              sload\n              0xffffffff\n              dup6\n              and\n              swap1\n              dup2\n              lt\n              tag_616\n              jumpi\n              invalid\n            tag_616:\n              swap1\n              0x00\n              mstore\n              keccak256(0x00, 0x20)\n              swap1\n              0x06\n              mul\n              add\n                /* \"Entity.sol\":3001:3040  pendingDataToReceive[index].description */\n              0x02\n              add\n                /* \"Entity.sol\":2957:3041  Storage[pendingDataToReceive[index].source][pendingDataToReceive[index].description] */\n              mload(0x40)\n              dup1\n              dup3\n              dup1\n              sload\n              0x01\n              dup2\n              0x01\n              and\n              iszero\n              0x0100\n              mul\n              sub\n              and\n              0x02\n              swap1\n              div\n              dup1\n              iszero\n              tag_618\n              jumpi\n              dup1\n              0x1f\n              lt\n              tag_619\n              jumpi\n              0x0100\n              dup1\n              dup4\n              sload\n              div\n              mul\n              dup4\n              mstore\n              swap2\n              dup3\n              add\n              swap2\n              jump(tag_618)\n            tag_619:\n              dup3\n              add\n              swap2\n              swap1\n              0x00\n              mstore\n              keccak256(0x00, 0x20)\n              swap1\n            tag_620:\n              dup2\n              sload\n              dup2\n              mstore\n              swap1\n              0x01\n              add\n              swap1\n              0x20\n              add\n              dup1\n              dup4\n              gt\n              tag_620\n              jumpi\n            tag_618:\n              pop\n              pop\n              swap3\n              dup4\n              mstore\n              pop\n              pop\n              mload(0x40)\n              swap1\n              dup2\n              swap1\n              sub\n              0x20\n              add\n              swap1\n              keccak256\n              swap1\n              pop\n                /* \"Entity.sol\":3055:3063  uint32 i */\n              0x00\n                /* \"Entity.sol\":3051:3581  for(uint32 i=0; i<pendingDataToReceive[index].key.length; i++){... */\n            tag_621:\n                /* \"Entity.sol\":3069:3089  pendingDataToReceive */\n              0x09\n                /* \"Entity.sol\":3090:3095  index */\n              dup4\n                /* \"Entity.sol\":3069:3096  pendingDataToReceive[index] */\n              0xffffffff\n              and\n              dup2\n              sload\n              dup2\n              lt\n              tag_624\n              jumpi\n              invalid\n            tag_624:\n              swap1\n              0x00\n              mstore\n              keccak256(0x00, 0x20)\n              swap1\n              0x06\n              mul\n              add\n                /* \"Entity.sol\":3069:3100  pendingDataToReceive[index].key */\n              0x03\n              add\n                /* \"Entity.sol\":3069:3107  pendingDataToReceive[index].key.length */\n              dup1\n              sload\n              swap1\n              pop\n                /* \"Entity.sol\":3067:3068  i */\n              dup2\n                /* \"Entity.sol\":3067:3107  i<pendingDataToReceive[index].key.length */\n              0xffffffff\n              and\n              lt\n                /* \"Entity.sol\":3051:3581  for(uint32 i=0; i<pendingDataToReceive[index].key.length; i++){... */\n              iszero\n              tag_622\n              jumpi\n                /* \"Entity.sol\":3182:3202  pendingDataToReceive */\n              0x09\n                /* \"Entity.sol\":3203:3208  index */\n              dup4\n                /* \"Entity.sol\":3182:3209  pendingDataToReceive[index] */\n              0xffffffff\n              and\n              dup2\n              sload\n              dup2\n              lt\n              tag_626\n              jumpi\n              invalid\n            tag_626:\n              swap1\n              0x00\n              mstore\n              keccak256(0x00, 0x20)\n              swap1\n              0x06\n              mul\n              add\n                /* \"Entity.sol\":3182:3215  pendingDataToReceive[index].value */\n              0x04\n              add\n                /* \"Entity.sol\":3216:3217  i */\n              dup2\n                /* \"Entity.sol\":3182:3218  pendingDataToReceive[index].value[i] */\n              0xffffffff\n              and\n              dup2\n              sload\n              dup2\n              lt\n              tag_628\n              jumpi\n              invalid\n            tag_628:\n              swap1\n              0x00\n              mstore\n              keccak256(0x00, 0x20)\n              add\n                /* \"Entity.sol\":3127:3136  toApprove */\n              dup3\n                /* \"Entity.sol\":3127:3143  toApprove.column */\n              0x00\n              add\n                /* \"Entity.sol\":3144:3164  pendingDataToReceive */\n              0x09\n                /* \"Entity.sol\":3165:3170  index */\n              dup6\n                /* \"Entity.sol\":3144:3171  pendingDataToReceive[index] */\n              0xffffffff\n              and\n              dup2\n              sload\n              dup2\n              lt\n              tag_630\n              jumpi\n              invalid\n            tag_630:\n              swap1\n              0x00\n              mstore\n              keccak256(0x00, 0x20)\n              swap1\n              0x06\n              mul\n              add\n                /* \"Entity.sol\":3144:3175  pendingDataToReceive[index].key */\n              0x03\n              add\n                /* \"Entity.sol\":3176:3177  i */\n              dup4\n                /* \"Entity.sol\":3144:3178  pendingDataToReceive[index].key[i] */\n              0xffffffff\n              and\n              dup2\n              sload\n              dup2\n              lt\n              tag_632\n              jumpi\n              invalid\n            tag_632:\n              swap1\n              0x00\n              mstore\n              keccak256(0x00, 0x20)\n              add\n                /* \"Entity.sol\":3127:3179  toApprove.column[pendingDataToReceive[index].key[i]] */\n              mload(0x40)\n              dup1\n              dup3\n              dup1\n              sload\n              0x01\n              dup2\n              0x01\n              and\n              iszero\n              0x0100\n              mul\n              sub\n              and\n              0x02\n              swap1\n              div\n              dup1\n              iszero\n              tag_634\n              jumpi\n              dup1\n              0x1f\n              lt\n              tag_635\n              jumpi\n              0x0100\n              dup1\n              dup4\n              sload\n              div\n              mul\n              dup4\n              mstore\n              swap2\n              dup3\n              add\n              swap2\n              jump(tag_634)\n            tag_635:\n              dup3\n              add\n              swap2\n              swap1\n              0x00\n              mstore\n              keccak256(0x00, 0x20)\n              swap1\n            tag_636:\n              dup2\n              sload\n              dup2\n              mstore\n              swap1\n              0x01\n              add\n              swap1\n              0x20\n              add\n              dup1\n              dup4\n              gt\n              tag_636\n              jumpi\n            tag_634:\n              pop\n              pop\n              swap3\n              dup4\n              mstore\n              pop\n              pop\n              mload(0x40)\n              swap1\n              dup2\n              swap1\n              sub\n              0x20\n              add\n              swap1\n              keccak256\n                /* \"Entity.sol\":3127:3218  toApprove.column[pendingDataToReceive[index].key[i]] = pendingDataToReceive[index].value[i] */\n              dup2\n              sload\n              tag_637\n              swap3\n              swap1\n              0x02\n              not(0x00)\n              0x0100\n              0x01\n              dup5\n              and\n              iszero\n              mul\n              add\n              swap1\n              swap2\n              and\n              div\n              tag_638\n              jump\t// in\n            tag_637:\n              pop\n                /* \"Entity.sol\":3236:3245  toApprove */\n              dup2\n                /* \"Entity.sol\":3236:3258  toApprove.keyExistence */\n              0x01\n              add\n                /* \"Entity.sol\":3259:3279  pendingDataToReceive */\n              0x09\n                /* \"Entity.sol\":3280:3285  index */\n              dup5\n                /* \"Entity.sol\":3259:3286  pendingDataToReceive[index] */\n              0xffffffff\n              and\n              dup2\n              sload\n              dup2\n              lt\n              tag_639\n              jumpi\n              invalid\n            tag_639:\n              swap1\n              0x00\n              mstore\n              keccak256(0x00, 0x20)\n              swap1\n              0x06\n              mul\n              add\n                /* \"Entity.sol\":3259:3290  pendingDataToReceive[index].key */\n              0x03\n              add\n                /* \"Entity.sol\":3291:3292  i */\n              dup3\n                /* \"Entity.sol\":3259:3293  pendingDataToReceive[index].key[i] */\n              0xffffffff\n              and\n              dup2\n              sload\n              dup2\n              lt\n              tag_641\n              jumpi\n              invalid\n            tag_641:\n              swap1\n              0x00\n              mstore\n              keccak256(0x00, 0x20)\n              add\n                /* \"Entity.sol\":3236:3294  toApprove.keyExistence[pendingDataToReceive[index].key[i]] */\n              mload(0x40)\n              dup1\n              dup3\n              dup1\n              sload\n              0x01\n              dup2\n              0x01\n              and\n              iszero\n              0x0100\n              mul\n              sub\n              and\n              0x02\n              swap1\n              div\n              dup1\n              iszero\n              tag_643\n              jumpi\n              dup1\n              0x1f\n              lt\n              tag_644\n              jumpi\n              0x0100\n              dup1\n              dup4\n              sload\n              div\n              mul\n              dup4\n              mstore\n              swap2\n              dup3\n              add\n              swap2\n              jump(tag_643)\n            tag_644:\n              dup3\n              add\n              swap2\n              swap1\n              0x00\n              mstore\n              keccak256(0x00, 0x20)\n              swap1\n            tag_645:\n              dup2\n              sload\n              dup2\n              mstore\n              swap1\n              0x01\n              add\n              swap1\n              0x20\n              add\n              dup1\n              dup4\n              gt\n              tag_645\n              jumpi\n            tag_643:\n              pop\n              pop\n              swap3\n              dup4\n              mstore\n              pop\n              pop\n              mload(0x40)\n              swap1\n              dup2\n              swap1\n              sub\n              0x20\n              add\n              swap1\n              keccak256\n              sload\n              0xff\n              and\n                /* \"Entity.sol\":3232:3571  if(!toApprove.keyExistence[pendingDataToReceive[index].key[i]]){... */\n              tag_646\n              jumpi\n                /* \"Entity.sol\":3375:3384  toApprove */\n              dup2\n                /* \"Entity.sol\":3375:3389  toApprove.keys */\n              0x02\n              add\n                /* \"Entity.sol\":3437:3457  pendingDataToReceive */\n              0x09\n                /* \"Entity.sol\":3458:3463  index */\n              dup5\n                /* \"Entity.sol\":3437:3464  pendingDataToReceive[index] */\n              0xffffffff\n              and\n              dup2\n              sload\n              dup2\n              lt\n              tag_647\n              jumpi\n              invalid\n            tag_647:\n              swap1\n              0x00\n              mstore\n              keccak256(0x00, 0x20)\n              swap1\n              0x06\n              mul\n              add\n                /* \"Entity.sol\":3437:3468  pendingDataToReceive[index].key */\n              0x03\n              add\n                /* \"Entity.sol\":3469:3470  i */\n              dup3\n                /* \"Entity.sol\":3437:3471  pendingDataToReceive[index].key[i] */\n              0xffffffff\n              and\n              dup2\n              sload\n              dup2\n              lt\n              tag_649\n              jumpi\n              invalid\n            tag_649:\n              swap1\n              0x00\n              mstore\n              keccak256(0x00, 0x20)\n              add\n                /* \"Entity.sol\":3337:3472  abi.encodePacked(... */\n              add(0x20, mload(0x40))\n              dup1\n              dup4\n              dup1\n              sload\n              0x01\n              dup2\n              0x01\n              and\n              iszero\n              0x0100\n              mul\n              sub\n              and\n              0x02\n              swap1\n              div\n              dup1\n              iszero\n              tag_651\n              jumpi\n              dup1\n              0x1f\n              lt\n              tag_652\n              jumpi\n              0x0100\n              dup1\n              dup4\n              sload\n              div\n              mul\n              dup4\n              mstore\n              swap2\n              dup3\n              add\n              swap2\n              jump(tag_651)\n            tag_652:\n              dup3\n              add\n              swap2\n              swap1\n              0x00\n              mstore\n              keccak256(0x00, 0x20)\n              swap1\n            tag_653:\n              dup2\n              sload\n              dup2\n              mstore\n              swap1\n              0x01\n              add\n              swap1\n              0x20\n              add\n              dup1\n              dup4\n              gt\n              tag_653\n              jumpi\n            tag_651:\n              pop\n              pop\n              shl(0xf5, 0x0161)\n              dup2\n              mstore\n              dup3\n              sload\n              0x02\n              swap2\n              dup3\n              add\n              swap2\n              dup5\n              swap2\n              not(0x00)\n              0x0100\n              0x01\n              dup4\n              and\n              iszero\n              mul\n              add\n              and\n              div\n              dup1\n              iszero\n              tag_654\n              jumpi\n              dup1\n              0x1f\n              lt\n              tag_655\n              jumpi\n              0x0100\n              dup1\n              dup4\n              sload\n              div\n              mul\n              dup4\n              mstore\n              swap2\n              dup3\n              add\n              swap2\n              jump(tag_654)\n            tag_655:\n              dup3\n              add\n              swap2\n              swap1\n              0x00\n              mstore\n              keccak256(0x00, 0x20)\n              swap1\n            tag_656:\n              dup2\n              sload\n              dup2\n              mstore\n              swap1\n              0x01\n              add\n              swap1\n              0x20\n              add\n              dup1\n              dup4\n              gt\n              tag_656\n              jumpi\n            tag_654:\n              pop\n              pop\n              0x40\n              dup1\n              mload\n                /* \"--CODEGEN--\":26:47   */\n              dup1\n              dup4\n              sub\n              not(0x1f)\n                /* \"--CODEGEN--\":22:54   */\n              add\n                /* \"--CODEGEN--\":6:55   */\n              dup2\n              mstore\n                /* \"Entity.sol\":3337:3472  abi.encodePacked(... */\n              swap2\n              swap1\n              mstore\n                /* \"Entity.sol\":3313:3473  toApprove.keys = string(abi.encodePacked(... */\n              dup1\n              mload\n              tag_657\n              swap5\n              pop\n                /* \"Entity.sol\":3313:3327  toApprove.keys */\n              0x02\n              dup8\n              add\n              swap4\n              pop\n                /* \"--CODEGEN--\":49:53   */\n              0x20\n                /* \"Entity.sol\":3313:3473  toApprove.keys = string(abi.encodePacked(... */\n              swap1\n              swap2\n              add\n              swap2\n              pop\n              tag_478\n              jump\t// in\n            tag_657:\n              pop\n                /* \"Entity.sol\":3552:3556  true */\n              0x01\n                /* \"Entity.sol\":3491:3500  toApprove */\n              dup3\n                /* \"Entity.sol\":3491:3513  toApprove.keyExistence */\n              0x01\n              add\n                /* \"Entity.sol\":3514:3534  pendingDataToReceive */\n              0x09\n                /* \"Entity.sol\":3535:3540  index */\n              dup6\n                /* \"Entity.sol\":3514:3541  pendingDataToReceive[index] */\n              0xffffffff\n              and\n              dup2\n              sload\n              dup2\n              lt\n              tag_658\n              jumpi\n              invalid\n            tag_658:\n              swap1\n              0x00\n              mstore\n              keccak256(0x00, 0x20)\n              swap1\n              0x06\n              mul\n              add\n                /* \"Entity.sol\":3514:3545  pendingDataToReceive[index].key */\n              0x03\n              add\n                /* \"Entity.sol\":3546:3547  i */\n              dup4\n                /* \"Entity.sol\":3514:3548  pendingDataToReceive[index].key[i] */\n              0xffffffff\n              and\n              dup2\n              sload\n              dup2\n              lt\n              tag_660\n              jumpi\n              invalid\n            tag_660:\n              swap1\n              0x00\n              mstore\n              keccak256(0x00, 0x20)\n              add\n                /* \"Entity.sol\":3491:3549  toApprove.keyExistence[pendingDataToReceive[index].key[i]] */\n              mload(0x40)\n              dup1\n              dup3\n              dup1\n              sload\n              0x01\n              dup2\n              0x01\n              and\n              iszero\n              0x0100\n              mul\n              sub\n              and\n              0x02\n              swap1\n              div\n              dup1\n              iszero\n              tag_662\n              jumpi\n              dup1\n              0x1f\n              lt\n              tag_663\n              jumpi\n              0x0100\n              dup1\n              dup4\n              sload\n              div\n              mul\n              dup4\n              mstore\n              swap2\n              dup3\n              add\n              swap2\n              jump(tag_662)\n            tag_663:\n              dup3\n              add\n              swap2\n              swap1\n              0x00\n              mstore\n              keccak256(0x00, 0x20)\n              swap1\n            tag_664:\n              dup2\n              sload\n              dup2\n              mstore\n              swap1\n              0x01\n              add\n              swap1\n              0x20\n              add\n              dup1\n              dup4\n              gt\n              tag_664\n              jumpi\n            tag_662:\n              pop\n              pop\n              swap3\n              dup4\n              mstore\n              pop\n              pop\n              mload(0x40)\n              swap1\n              dup2\n              swap1\n              sub\n              0x20\n              add\n              swap1\n              keccak256\n                /* \"Entity.sol\":3491:3556  toApprove.keyExistence[pendingDataToReceive[index].key[i]] = true */\n              dup1\n              sload\n              swap2\n              iszero\n              iszero\n              not(0xff)\n              swap1\n              swap3\n              and\n              swap2\n              swap1\n              swap2\n              or\n              swap1\n              sstore\n                /* \"Entity.sol\":3232:3571  if(!toApprove.keyExistence[pendingDataToReceive[index].key[i]]){... */\n            tag_646:\n                /* \"Entity.sol\":3109:3112  i++ */\n              0x01\n              add\n                /* \"Entity.sol\":3051:3581  for(uint32 i=0; i<pendingDataToReceive[index].key.length; i++){... */\n              jump(tag_621)\n            tag_622:\n              pop\n                /* \"Entity.sol\":3594:3604  hasWritten */\n              0x06\n                /* \"Entity.sol\":3594:3640  hasWritten[pendingDataToReceive[index].source] */\n              0x00\n                /* \"Entity.sol\":3605:3625  pendingDataToReceive */\n              0x09\n                /* \"Entity.sol\":3626:3631  index */\n              dup5\n                /* \"Entity.sol\":3605:3632  pendingDataToReceive[index] */\n              0xffffffff\n              and\n              dup2\n              sload\n              dup2\n              lt\n              tag_665\n              jumpi\n              invalid\n            tag_665:\n              0x00\n              swap2\n              dup3\n              mstore\n              0x20\n              dup1\n              dup4\n              keccak256\n              0x06\n              swap3\n              swap1\n              swap3\n              mul\n              swap1\n              swap2\n              add\n                /* \"Entity.sol\":3605:3639  pendingDataToReceive[index].source */\n              sload\n              sub(shl(0xa0, 0x01), 0x01)\n              and\n                /* \"Entity.sol\":3594:3640  hasWritten[pendingDataToReceive[index].source] */\n              dup4\n              mstore\n              dup3\n              add\n              swap3\n              swap1\n              swap3\n              mstore\n              0x40\n              add\n              swap1\n              keccak256\n              sload\n              0xff\n              and\n                /* \"Entity.sol\":3590:3784  if(!hasWritten[pendingDataToReceive[index].source]){... */\n              tag_667\n              jumpi\n                /* \"Entity.sol\":3655:3665  dataSource */\n              0x05\n                /* \"Entity.sol\":3671:3691  pendingDataToReceive */\n              0x09\n                /* \"Entity.sol\":3692:3697  index */\n              dup4\n                /* \"Entity.sol\":3671:3698  pendingDataToReceive[index] */\n              0xffffffff\n              and\n              dup2\n              sload\n              dup2\n              lt\n              tag_668\n              jumpi\n              invalid\n            tag_668:\n              0x00\n              swap2\n              dup3\n              mstore\n              0x20\n              dup1\n              dup4\n              keccak256\n              0x06\n              swap3\n              dup4\n              mul\n              add\n                /* \"Entity.sol\":3671:3705  pendingDataToReceive[index].source */\n              sload\n                /* \"--CODEGEN--\":27:37   */\n              dup5\n              sload\n                /* \"Entity.sol\":3671:3705  pendingDataToReceive[index].source */\n              0x01\n                /* \"--CODEGEN--\":23:41   */\n              dup1\n              dup3\n              add\n                /* \"--CODEGEN--\":45:68   */\n              dup8\n              sstore\n                /* \"Entity.sol\":3655:3706  dataSource.push(pendingDataToReceive[index].source) */\n              swap6\n              dup6\n              mstore\n              swap2\n              dup5\n              keccak256\n              swap1\n              swap2\n              add\n              dup1\n              sload\n              not(sub(shl(0xa0, 0x01), 0x01))\n              and\n              sub(shl(0xa0, 0x01), 0x01)\n                /* \"Entity.sol\":3671:3705  pendingDataToReceive[index].source */\n              swap1\n              swap3\n              and\n                /* \"Entity.sol\":3655:3706  dataSource.push(pendingDataToReceive[index].source) */\n              swap2\n              swap1\n              swap2\n              or\n              swap1\n              sstore\n                /* \"Entity.sol\":3731:3751  pendingDataToReceive */\n              0x09\n                /* \"Entity.sol\":3731:3758  pendingDataToReceive[index] */\n              dup1\n              sload\n                /* \"Entity.sol\":3671:3698  pendingDataToReceive[index] */\n              swap2\n              swap3\n              swap2\n                /* \"Entity.sol\":3731:3758  pendingDataToReceive[index] */\n              0xffffffff\n              dup8\n              and\n              swap1\n              dup2\n              lt\n              tag_671\n              jumpi\n              invalid\n            tag_671:\n              0x00\n              swap2\n              dup3\n              mstore\n              0x20\n              dup1\n              dup4\n              keccak256\n              0x06\n              swap3\n              swap1\n              swap3\n              mul\n              swap1\n              swap2\n              add\n                /* \"Entity.sol\":3731:3765  pendingDataToReceive[index].source */\n              sload\n              sub(shl(0xa0, 0x01), 0x01)\n              and\n                /* \"Entity.sol\":3720:3766  hasWritten[pendingDataToReceive[index].source] */\n              dup4\n              mstore\n              dup3\n              add\n              swap3\n              swap1\n              swap3\n              mstore\n              0x40\n              add\n              swap1\n              keccak256\n                /* \"Entity.sol\":3720:3773  hasWritten[pendingDataToReceive[index].source] = true */\n              dup1\n              sload\n              not(0xff)\n              and\n              swap2\n              iszero\n              iszero\n              swap2\n              swap1\n              swap2\n              or\n              swap1\n              sstore\n                /* \"Entity.sol\":3590:3784  if(!hasWritten[pendingDataToReceive[index].source]){... */\n            tag_667:\n                /* \"Entity.sol\":3797:3815  writtenDescription */\n              0x08\n                /* \"Entity.sol\":3797:3851  writtenDescription[pendingDataToReceive[index].source] */\n              0x00\n                /* \"Entity.sol\":3816:3836  pendingDataToReceive */\n              0x09\n                /* \"Entity.sol\":3837:3842  index */\n              dup5\n                /* \"Entity.sol\":3816:3843  pendingDataToReceive[index] */\n              0xffffffff\n              and\n              dup2\n              sload\n              dup2\n              lt\n              tag_673\n              jumpi\n              invalid\n            tag_673:\n              0x00\n              swap2\n              dup3\n              mstore\n              0x20\n              dup1\n              dup4\n              keccak256\n              0x06\n              swap3\n              swap1\n              swap3\n              mul\n              swap1\n              swap2\n              add\n                /* \"Entity.sol\":3816:3850  pendingDataToReceive[index].source */\n              sload\n              sub(shl(0xa0, 0x01), 0x01)\n              and\n                /* \"Entity.sol\":3797:3851  writtenDescription[pendingDataToReceive[index].source] */\n              dup4\n              mstore\n              dup3\n              add\n              swap3\n              swap1\n              swap3\n              mstore\n              0x40\n              add\n              swap1\n              keccak256\n                /* \"Entity.sol\":3852:3872  pendingDataToReceive */\n              0x09\n                /* \"Entity.sol\":3852:3879  pendingDataToReceive[index] */\n              dup1\n              sload\n              0xffffffff\n              dup6\n              and\n              swap1\n              dup2\n              lt\n              tag_675\n              jumpi\n              invalid\n            tag_675:\n              swap1\n              0x00\n              mstore\n              keccak256(0x00, 0x20)\n              swap1\n              0x06\n              mul\n              add\n                /* \"Entity.sol\":3852:3891  pendingDataToReceive[index].description */\n              0x02\n              add\n                /* \"Entity.sol\":3797:3892  writtenDescription[pendingDataToReceive[index].source][pendingDataToReceive[index].description] */\n              mload(0x40)\n              dup1\n              dup3\n              dup1\n              sload\n              0x01\n              dup2\n              0x01\n              and\n              iszero\n              0x0100\n              mul\n              sub\n              and\n              0x02\n              swap1\n              div\n              dup1\n              iszero\n              tag_677\n              jumpi\n              dup1\n              0x1f\n              lt\n              tag_678\n              jumpi\n              0x0100\n              dup1\n              dup4\n              sload\n              div\n              mul\n              dup4\n              mstore\n              swap2\n              dup3\n              add\n              swap2\n              jump(tag_677)\n            tag_678:\n              dup3\n              add\n              swap2\n              swap1\n              0x00\n              mstore\n              keccak256(0x00, 0x20)\n              swap1\n            tag_679:\n              dup2\n              sload\n              dup2\n              mstore\n              swap1\n              0x01\n              add\n              swap1\n              0x20\n              add\n              dup1\n              dup4\n              gt\n              tag_679\n              jumpi\n            tag_677:\n              pop\n              pop\n              swap3\n              dup4\n              mstore\n              pop\n              pop\n              mload(0x40)\n              swap1\n              dup2\n              swap1\n              sub\n              0x20\n              add\n              swap1\n              keccak256\n              sload\n              0xff\n              and\n                /* \"Entity.sol\":3793:4136  if(!writtenDescription[pendingDataToReceive[index].source][pendingDataToReceive[index].description]){... */\n              tag_680\n              jumpi\n                /* \"Entity.sol\":3907:3927  descriptionsBySource */\n              0x07\n                /* \"Entity.sol\":3907:3963  descriptionsBySource[pendingDataToReceive[index].source] */\n              0x00\n                /* \"Entity.sol\":3928:3948  pendingDataToReceive */\n              0x09\n                /* \"Entity.sol\":3949:3954  index */\n              dup5\n                /* \"Entity.sol\":3928:3955  pendingDataToReceive[index] */\n              0xffffffff\n              and\n              dup2\n              sload\n              dup2\n              lt\n              tag_681\n              jumpi\n              invalid\n            tag_681:\n              0x00\n              swap2\n              dup3\n              mstore\n              0x20\n              dup1\n              dup4\n              keccak256\n              0x06\n              swap3\n              swap1\n              swap3\n              mul\n              swap1\n              swap2\n              add\n                /* \"Entity.sol\":3928:3962  pendingDataToReceive[index].source */\n              sload\n              sub(shl(0xa0, 0x01), 0x01)\n              and\n                /* \"Entity.sol\":3907:3963  descriptionsBySource[pendingDataToReceive[index].source] */\n              dup4\n              mstore\n              dup3\n              add\n              swap3\n              swap1\n              swap3\n              mstore\n              0x40\n              add\n              swap1\n              keccak256\n                /* \"Entity.sol\":3969:3989  pendingDataToReceive */\n              0x09\n                /* \"Entity.sol\":3969:3996  pendingDataToReceive[index] */\n              dup1\n              sload\n              0xffffffff\n              dup6\n              and\n              swap1\n              dup2\n              lt\n              tag_683\n              jumpi\n              invalid\n            tag_683:\n              0x00\n              swap2\n              dup3\n              mstore\n              0x20\n              dup1\n              dup4\n              keccak256\n                /* \"--CODEGEN--\":27:37   */\n              dup5\n              sload\n                /* \"--CODEGEN--\":39:40   */\n              0x01\n                /* \"--CODEGEN--\":23:41   */\n              dup1\n              dup3\n              add\n                /* \"--CODEGEN--\":45:68   */\n              dup8\n              sstore\n                /* \"Entity.sol\":3907:4009  descriptionsBySource[pendingDataToReceive[index].source].push(pendingDataToReceive[index].description) */\n              swap6\n              dup6\n              mstore\n              swap2\n              swap1\n              swap4\n              keccak256\n                /* \"Entity.sol\":3969:3996  pendingDataToReceive[index] */\n              0x06\n              swap3\n              swap1\n              swap3\n              mul\n              swap1\n              swap3\n              add\n                /* \"Entity.sol\":3969:4008  pendingDataToReceive[index].description */\n              0x02\n              swap1\n              dup2\n              add\n                /* \"Entity.sol\":3907:4009  descriptionsBySource[pendingDataToReceive[index].source].push(pendingDataToReceive[index].description) */\n              dup1\n              sload\n              tag_686\n              swap6\n              swap4\n              swap1\n              swap5\n              add\n              swap4\n                /* \"Entity.sol\":3969:4008  pendingDataToReceive[index].description */\n              swap1\n              swap3\n              not(0x00)\n                /* \"Entity.sol\":3907:4009  descriptionsBySource[pendingDataToReceive[index].source].push(pendingDataToReceive[index].description) */\n              swap1\n              dup3\n              and\n              iszero\n              0x0100\n              mul\n              add\n              and\n              div\n              tag_638\n              jump\t// in\n            tag_686:\n              pop\n                /* \"Entity.sol\":4121:4125  true */\n              0x01\n                /* \"Entity.sol\":4023:4041  writtenDescription */\n              0x08\n                /* \"Entity.sol\":4023:4077  writtenDescription[pendingDataToReceive[index].source] */\n              0x00\n                /* \"Entity.sol\":4042:4062  pendingDataToReceive */\n              0x09\n                /* \"Entity.sol\":4063:4068  index */\n              dup6\n                /* \"Entity.sol\":4042:4069  pendingDataToReceive[index] */\n              0xffffffff\n              and\n              dup2\n              sload\n              dup2\n              lt\n              tag_687\n              jumpi\n              invalid\n            tag_687:\n              0x00\n              swap2\n              dup3\n              mstore\n              0x20\n              dup1\n              dup4\n              keccak256\n              0x06\n              swap3\n              swap1\n              swap3\n              mul\n              swap1\n              swap2\n              add\n                /* \"Entity.sol\":4042:4076  pendingDataToReceive[index].source */\n              sload\n              sub(shl(0xa0, 0x01), 0x01)\n              and\n                /* \"Entity.sol\":4023:4077  writtenDescription[pendingDataToReceive[index].source] */\n              dup4\n              mstore\n              dup3\n              add\n              swap3\n              swap1\n              swap3\n              mstore\n              0x40\n              add\n              swap1\n              keccak256\n                /* \"Entity.sol\":4078:4098  pendingDataToReceive */\n              0x09\n                /* \"Entity.sol\":4078:4105  pendingDataToReceive[index] */\n              dup1\n              sload\n              0xffffffff\n              dup7\n              and\n              swap1\n              dup2\n              lt\n              tag_689\n              jumpi\n              invalid\n            tag_689:\n              swap1\n              0x00\n              mstore\n              keccak256(0x00, 0x20)\n              swap1\n              0x06\n              mul\n              add\n                /* \"Entity.sol\":4078:4117  pendingDataToReceive[index].description */\n              0x02\n              add\n                /* \"Entity.sol\":4023:4118  writtenDescription[pendingDataToReceive[index].source][pendingDataToReceive[index].description] */\n              mload(0x40)\n              dup1\n              dup3\n              dup1\n              sload\n              0x01\n              dup2\n              0x01\n              and\n              iszero\n              0x0100\n              mul\n              sub\n              and\n              0x02\n              swap1\n              div\n              dup1\n              iszero\n              tag_691\n              jumpi\n              dup1\n              0x1f\n              lt\n              tag_692\n              jumpi\n              0x0100\n              dup1\n              dup4\n              sload\n              div\n              mul\n              dup4\n              mstore\n              swap2\n              dup3\n              add\n              swap2\n              jump(tag_691)\n            tag_692:\n              dup3\n              add\n              swap2\n              swap1\n              0x00\n              mstore\n              keccak256(0x00, 0x20)\n              swap1\n            tag_693:\n              dup2\n              sload\n              dup2\n              mstore\n              swap1\n              0x01\n              add\n              swap1\n              0x20\n              add\n              dup1\n              dup4\n              gt\n              tag_693\n              jumpi\n            tag_691:\n              pop\n              pop\n              swap3\n              dup4\n              mstore\n              pop\n              pop\n              mload(0x40)\n              swap1\n              dup2\n              swap1\n              sub\n              0x20\n              add\n              swap1\n              keccak256\n                /* \"Entity.sol\":4023:4125  writtenDescription[pendingDataToReceive[index].source][pendingDataToReceive[index].description] = true */\n              dup1\n              sload\n              swap2\n              iszero\n              iszero\n              not(0xff)\n              swap1\n              swap3\n              and\n              swap2\n              swap1\n              swap2\n              or\n              swap1\n              sstore\n                /* \"Entity.sol\":3793:4136  if(!writtenDescription[pendingDataToReceive[index].source][pendingDataToReceive[index].description]){... */\n            tag_680:\n                /* \"Entity.sol\":4184:4188  true */\n              0x01\n                /* \"Entity.sol\":4145:4165  pendingDataToReceive */\n              0x09\n                /* \"Entity.sol\":4166:4171  index */\n              dup4\n                /* \"Entity.sol\":4145:4172  pendingDataToReceive[index] */\n              0xffffffff\n              and\n              dup2\n              sload\n              dup2\n              lt\n              tag_694\n              jumpi\n              invalid\n            tag_694:\n              0x00\n              swap2\n              dup3\n              mstore\n              0x20\n              swap1\n              swap2\n              keccak256\n              0x06\n              swap1\n              swap2\n              mul\n              add\n                /* \"Entity.sol\":4145:4181  pendingDataToReceive[index].approved */\n              0x05\n              add\n                /* \"Entity.sol\":4145:4188  pendingDataToReceive[index].approved = true */\n              dup1\n              sload\n              not(0xff)\n              and\n              swap2\n              iszero\n              iszero\n              swap2\n              swap1\n              swap2\n              or\n              swap1\n              sstore\n              pop\n              pop\n                /* \"Entity.sol\":2792:4195  function _approveDataToReceive(uint32 index) ... */\n              jump\t// out\n                /* \"strings.sol\":3473:3683  function toSlice(string memory self) internal pure returns (slice memory) {... */\n            tag_487:\n                /* \"strings.sol\":3533:3545  slice memory */\n              tag_696\n              tag_485\n              jump\t// in\n            tag_696:\n              pop\n                /* \"strings.sol\":3646:3676  slice(bytes(self).length, ptr) */\n              0x40\n              dup1\n              mload\n              dup1\n              dup3\n              add\n              swap1\n              swap2\n              mstore\n                /* \"strings.sol\":3652:3670  bytes(self).length */\n              dup2\n              mload\n                /* \"strings.sol\":3646:3676  slice(bytes(self).length, ptr) */\n              dup2\n              mstore\n                /* \"strings.sol\":3615:3619  0x20 */\n              0x20\n                /* \"strings.sol\":3605:3620  add(self, 0x20) */\n              dup3\n              dup2\n              add\n                /* \"strings.sol\":3646:3676  slice(bytes(self).length, ptr) */\n              swap1\n              dup3\n              add\n              mstore\n                /* \"strings.sol\":3473:3683  function toSlice(string memory self) internal pure returns (slice memory) {... */\n              swap2\n              swap1\n              pop\n              jump\t// out\n                /* \"strings.sol\":23549:23913  function count(slice memory self, slice memory needle) internal pure returns (uint cnt) {... */\n            tag_493:\n                /* \"strings.sol\":23627:23635  uint cnt */\n              0x00\n                /* \"strings.sol\":23647:23655  uint ptr */\n              dup1\n                /* \"strings.sol\":23716:23722  needle */\n              dup3\n                /* \"strings.sol\":23716:23727  needle._len */\n              0x00\n              add\n              mload\n                /* \"strings.sol\":23658:23713  findPtr(self._len, self._ptr, needle._len, needle._ptr) */\n              tag_699\n                /* \"strings.sol\":23666:23670  self */\n              dup6\n                /* \"strings.sol\":23666:23675  self._len */\n              0x00\n              add\n              mload\n                /* \"strings.sol\":23677:23681  self */\n              dup7\n                /* \"strings.sol\":23677:23686  self._ptr */\n              0x20\n              add\n              mload\n                /* \"strings.sol\":23688:23694  needle */\n              dup7\n                /* \"strings.sol\":23688:23699  needle._len */\n              0x00\n              add\n              mload\n                /* \"strings.sol\":23701:23707  needle */\n              dup8\n                /* \"strings.sol\":23701:23712  needle._ptr */\n              0x20\n              add\n              mload\n                /* \"strings.sol\":23658:23665  findPtr */\n              tag_700\n                /* \"strings.sol\":23658:23713  findPtr(self._len, self._ptr, needle._len, needle._ptr) */\n              jump\t// in\n            tag_699:\n                /* \"strings.sol\":23658:23727  findPtr(self._len, self._ptr, needle._len, needle._ptr) + needle._len */\n              add\n                /* \"strings.sol\":23647:23727  uint ptr = findPtr(self._len, self._ptr, needle._len, needle._ptr) + needle._len */\n              swap1\n              pop\n                /* \"strings.sol\":23737:23907  while (ptr <= self._ptr + self._len) {... */\n            tag_701:\n                /* \"strings.sol\":23763:23772  self._len */\n              dup4\n              mload\n                /* \"strings.sol\":23751:23760  self._ptr */\n              0x20\n              dup6\n              add\n              mload\n                /* \"strings.sol\":23751:23772  self._ptr + self._len */\n              add\n                /* \"strings.sol\":23744:23772  ptr <= self._ptr + self._len */\n              dup2\n              gt\n                /* \"strings.sol\":23737:23907  while (ptr <= self._ptr + self._len) {... */\n              tag_702\n              jumpi\n                /* \"strings.sol\":23885:23896  needle._len */\n              dup3\n              mload\n                /* \"strings.sol\":23840:23849  self._ptr */\n              0x20\n              dup1\n              dup7\n              add\n              mload\n                /* \"strings.sol\":23821:23830  self._len */\n              dup7\n              mload\n                /* \"strings.sol\":23870:23881  needle._ptr */\n              swap2\n              dup7\n              add\n              mload\n                /* \"strings.sol\":23788:23793  cnt++ */\n              0x01\n              swap1\n              swap6\n              add\n              swap5\n                /* \"strings.sol\":23813:23882  findPtr(self._len - (ptr - self._ptr), ptr, needle._len, needle._ptr) */\n              tag_703\n              swap3\n                /* \"strings.sol\":23834:23849  ptr - self._ptr */\n              swap2\n              dup6\n              sub\n                /* \"strings.sol\":23821:23850  self._len - (ptr - self._ptr) */\n              swap1\n              swap2\n              sub\n              swap1\n                /* \"strings.sol\":23834:23837  ptr */\n              dup5\n              swap1\n                /* \"strings.sol\":23885:23896  needle._len */\n              dup5\n              swap1\n                /* \"strings.sol\":23813:23820  findPtr */\n              tag_700\n                /* \"strings.sol\":23813:23882  findPtr(self._len - (ptr - self._ptr), ptr, needle._len, needle._ptr) */\n              jump\t// in\n            tag_703:\n                /* \"strings.sol\":23813:23896  findPtr(self._len - (ptr - self._ptr), ptr, needle._len, needle._ptr) + needle._len */\n              add\n                /* \"strings.sol\":23807:23896  ptr = findPtr(self._len - (ptr - self._ptr), ptr, needle._len, needle._ptr) + needle._len */\n              swap1\n              pop\n                /* \"strings.sol\":23737:23907  while (ptr <= self._ptr + self._len) {... */\n              jump(tag_701)\n            tag_702:\n                /* \"strings.sol\":23549:23913  function count(slice memory self, slice memory needle) internal pure returns (uint cnt) {... */\n              pop\n              swap3\n              swap2\n              pop\n              pop\n              jump\t// out\n                /* \"strings.sol\":21563:21704  function split(slice memory self, slice memory needle) internal pure returns (slice memory token) {... */\n            tag_505:\n                /* \"strings.sol\":21641:21659  slice memory token */\n              tag_704\n              tag_485\n              jump\t// in\n            tag_704:\n                /* \"strings.sol\":21671:21697  split(self, needle, token) */\n              tag_702\n                /* \"strings.sol\":21677:21681  self */\n              dup4\n                /* \"strings.sol\":21683:21689  needle */\n              dup4\n                /* \"strings.sol\":21691:21696  token */\n              dup4\n                /* \"strings.sol\":21671:21676  split */\n              tag_707\n                /* \"strings.sol\":21671:21697  split(self, needle, token) */\n              jump\t// in\n                /* \"strings.sol\":5847:6112  function toString(slice memory self) internal pure returns (string memory) {... */\n            tag_506:\n                /* \"strings.sol\":5907:5920  string memory */\n              0x60\n                /* \"strings.sol\":5932:5949  string memory ret */\n              dup1\n                /* \"strings.sol\":5963:5967  self */\n              dup3\n                /* \"strings.sol\":5963:5972  self._len */\n              0x00\n              add\n              mload\n                /* \"strings.sol\":5952:5973  new string(self._len) */\n              0xffffffffffffffff\n              dup2\n              gt\n                /* \"--CODEGEN--\":5:14   */\n              dup1\n                /* \"--CODEGEN--\":2:4   */\n              iszero\n              tag_709\n              jumpi\n                /* \"--CODEGEN--\":27:28   */\n              0x00\n                /* \"--CODEGEN--\":24:25   */\n              dup1\n                /* \"--CODEGEN--\":17:29   */\n              revert\n                /* \"--CODEGEN--\":2:4   */\n            tag_709:\n                /* \"strings.sol\":5952:5973  new string(self._len) */\n              pop\n              mload(0x40)\n              swap1\n              dup1\n              dup3\n              mstore\n              dup1\n              0x1f\n              add\n              not(0x1f)\n              and\n              0x20\n              add\n              dup3\n              add\n              0x40\n              mstore\n              dup1\n              iszero\n              tag_710\n              jumpi\n              0x20\n              dup3\n              add\n                /* \"--CODEGEN--\":21:27   */\n              dup2\n              dup1\n                /* \"--CODEGEN--\":108:122   */\n              calldatasize\n                /* \"strings.sol\":5952:5973  new string(self._len) */\n              dup4\n                /* \"--CODEGEN--\":87:129   */\n              calldatacopy\n                /* \"--CODEGEN--\":143:160   */\n              add\n              swap1\n              pop\n                /* \"strings.sol\":5952:5973  new string(self._len) */\n            tag_710:\n              pop\n                /* \"strings.sol\":5932:5973  string memory ret = new string(self._len) */\n              swap1\n              pop\n                /* \"strings.sol\":5983:5994  uint retptr */\n              0x00\n                /* \"strings.sol\":6034:6036  32 */\n              0x20\n                /* \"strings.sol\":6029:6032  ret */\n              dup3\n                /* \"strings.sol\":6025:6037  add(ret, 32) */\n              add\n                /* \"strings.sol\":6015:6037  retptr := add(ret, 32) */\n              swap1\n              pop\n                /* \"strings.sol\":6049:6085  memcpy(retptr, self._ptr, self._len) */\n              tag_702\n                /* \"strings.sol\":6056:6062  retptr */\n              dup2\n                /* \"strings.sol\":6064:6068  self */\n              dup6\n                /* \"strings.sol\":6064:6073  self._ptr */\n              0x20\n              add\n              mload\n                /* \"strings.sol\":6075:6079  self */\n              dup7\n                /* \"strings.sol\":6075:6084  self._len */\n              0x00\n              add\n              mload\n                /* \"strings.sol\":6049:6055  memcpy */\n              tag_712\n                /* \"strings.sol\":6049:6085  memcpy(retptr, self._ptr, self._len) */\n              jump\t// in\n                /* \"strings.sol\":15994:17366  function findPtr(uint selflen, uint selfptr, uint needlelen, uint needleptr) private pure returns (uint) {... */\n            tag_700:\n                /* \"strings.sol\":16093:16097  uint */\n              0x00\n                /* \"strings.sol\":16120:16127  selfptr */\n              dup4\n                /* \"strings.sol\":16093:16097  uint */\n              dup2\n                /* \"strings.sol\":16160:16180  needlelen <= selflen */\n              dup7\n              dup6\n              gt\n                /* \"strings.sol\":16156:17326  if (needlelen <= selflen) {... */\n              tag_719\n              jumpi\n                /* \"strings.sol\":16213:16215  32 */\n              0x20\n                /* \"strings.sol\":16200:16209  needlelen */\n              dup6\n                /* \"strings.sol\":16200:16215  needlelen <= 32 */\n              gt\n                /* \"strings.sol\":16196:17316  if (needlelen <= 32) {... */\n              tag_715\n              jumpi\n                /* \"strings.sol\":16377:16393  mload(needleptr) */\n              dup4\n              mload\n                /* \"strings.sol\":16537:16547  mload(ptr) */\n              dup3\n              mload\n                /* \"strings.sol\":16271:16273  32 */\n              0x20\n                /* \"strings.sol\":16271:16285  32 - needlelen */\n              dup8\n              swap1\n              sub\n                /* \"strings.sol\":16266:16267  8 */\n              0x08\n                /* \"strings.sol\":16266:16286  8 * (32 - needlelen) */\n              mul\n                /* \"strings.sol\":16260:16261  2 */\n              0x02\n                /* \"strings.sol\":16260:16287  2 ** (8 * (32 - needlelen)) */\n              exp\n              not(0x00)\n                /* \"strings.sol\":16260:16291  2 ** (8 * (32 - needlelen)) - 1 */\n              add\n                /* \"strings.sol\":16258:16292  ~(2 ** (8 * (32 - needlelen)) - 1) */\n              not\n              swap2\n                /* \"strings.sol\":16373:16400  and(mload(needleptr), mask) */\n              dup3\n              and\n              swap1\n                /* \"strings.sol\":16431:16448  selfptr + selflen */\n              dup10\n              dup10\n              add\n                /* \"strings.sol\":16431:16460  selfptr + selflen - needlelen */\n              dup9\n              swap1\n              sub\n              swap1\n                /* \"strings.sol\":16533:16554  and(mload(ptr), mask) */\n              dup4\n              and\n                /* \"strings.sol\":16574:16802  while (ptrdata != needledata) {... */\n            tag_716:\n                /* \"strings.sol\":16592:16602  needledata */\n              dup3\n                /* \"strings.sol\":16581:16588  ptrdata */\n              dup2\n                /* \"strings.sol\":16581:16602  ptrdata != needledata */\n              eq\n                /* \"strings.sol\":16574:16802  while (ptrdata != needledata) {... */\n              tag_717\n              jumpi\n                /* \"strings.sol\":16637:16640  end */\n              dup2\n                /* \"strings.sol\":16630:16633  ptr */\n              dup7\n                /* \"strings.sol\":16630:16640  ptr >= end */\n              lt\n                /* \"strings.sol\":16626:16690  if (ptr >= end)... */\n              tag_718\n              jumpi\n                /* \"strings.sol\":16683:16690  selflen */\n              dup11\n                /* \"strings.sol\":16673:16680  selfptr */\n              dup11\n                /* \"strings.sol\":16673:16690  selfptr + selflen */\n              add\n                /* \"strings.sol\":16666:16690  return selfptr + selflen */\n              swap7\n              pop\n              pop\n              pop\n              pop\n              pop\n              pop\n              pop\n              jump(tag_713)\n                /* \"strings.sol\":16626:16690  if (ptr >= end)... */\n            tag_718:\n              pop\n                /* \"strings.sol\":16712:16717  ptr++ */\n              0x01\n              swap1\n              swap5\n              add\n                /* \"strings.sol\":16765:16775  mload(ptr) */\n              dup1\n              mload\n                /* \"strings.sol\":16712:16717  ptr++ */\n              swap1\n              swap5\n              swap1\n                /* \"strings.sol\":16761:16782  and(mload(ptr), mask) */\n              dup4\n              and\n                /* \"strings.sol\":16748:16784  { ptrdata := and(mload(ptr), mask) } */\n              jump(tag_716)\n            tag_717:\n                /* \"strings.sol\":16826:16829  ptr */\n              dup6\n                /* \"strings.sol\":16819:16829  return ptr */\n              swap7\n              pop\n              pop\n              pop\n              pop\n              pop\n              pop\n              pop\n              jump(tag_713)\n                /* \"strings.sol\":16196:17316  if (needlelen <= 32) {... */\n            tag_715:\n              pop\n                /* \"strings.sol\":16966:16997  keccak256(needleptr, needlelen) */\n              dup4\n              dup4\n              keccak256\n                /* \"strings.sol\":16917:16929  bytes32 hash */\n              0x00\n              swap1\n                /* \"strings.sol\":17017:17302  for (idx = 0; idx <= selflen - needlelen; idx++) {... */\n            tag_720:\n                /* \"strings.sol\":17048:17057  needlelen */\n              dup6\n                /* \"strings.sol\":17038:17045  selflen */\n              dup9\n                /* \"strings.sol\":17038:17057  selflen - needlelen */\n              sub\n                /* \"strings.sol\":17031:17034  idx */\n              dup3\n                /* \"strings.sol\":17031:17057  idx <= selflen - needlelen */\n              gt\n                /* \"strings.sol\":17017:17302  for (idx = 0; idx <= selflen - needlelen; idx++) {... */\n              tag_721\n              jumpi\n                /* \"strings.sol\":17149:17174  keccak256(ptr, needlelen) */\n              dup6\n              dup4\n              keccak256\n                /* \"strings.sol\":17201:17217  hash == testHash */\n              dup2\n              dup2\n              eq\n                /* \"strings.sol\":17197:17253  if (hash == testHash)... */\n              iszero\n              tag_723\n              jumpi\n                /* \"strings.sol\":17250:17253  ptr */\n              dup4\n                /* \"strings.sol\":17243:17253  return ptr */\n              swap5\n              pop\n              pop\n              pop\n              pop\n              pop\n              jump(tag_713)\n                /* \"strings.sol\":17197:17253  if (hash == testHash)... */\n            tag_723:\n              pop\n                /* \"strings.sol\":17282:17283  1 */\n              0x01\n                /* \"strings.sol\":17275:17283  ptr += 1 */\n              swap3\n              dup4\n              add\n              swap3\n                /* \"strings.sol\":17059:17064  idx++ */\n              swap2\n              swap1\n              swap2\n              add\n              swap1\n                /* \"strings.sol\":17017:17302  for (idx = 0; idx <= selflen - needlelen; idx++) {... */\n              jump(tag_720)\n            tag_721:\n                /* \"strings.sol\":16196:17316  if (needlelen <= 32) {... */\n              pop\n            tag_719:\n              pop\n              pop\n              pop\n                /* \"strings.sol\":17342:17359  selfptr + selflen */\n              dup3\n              dup5\n              add\n                /* \"strings.sol\":15994:17366  function findPtr(uint selflen, uint selfptr, uint needlelen, uint needleptr) private pure returns (uint) {... */\n            tag_713:\n              swap5\n              swap4\n              pop\n              pop\n              pop\n              pop\n              jump\t// out\n                /* \"strings.sol\":20588:21092  function split(slice memory self, slice memory needle, slice memory token) internal pure returns (slice memory) {... */\n            tag_707:\n                /* \"strings.sol\":20686:20698  slice memory */\n              tag_724\n              tag_485\n              jump\t// in\n            tag_724:\n                /* \"strings.sol\":20710:20718  uint ptr */\n              0x00\n                /* \"strings.sol\":20721:20776  findPtr(self._len, self._ptr, needle._len, needle._ptr) */\n              tag_726\n                /* \"strings.sol\":20729:20733  self */\n              dup6\n                /* \"strings.sol\":20729:20738  self._len */\n              0x00\n              add\n              mload\n                /* \"strings.sol\":20740:20744  self */\n              dup7\n                /* \"strings.sol\":20740:20749  self._ptr */\n              0x20\n              add\n              mload\n                /* \"strings.sol\":20751:20757  needle */\n              dup7\n                /* \"strings.sol\":20751:20762  needle._len */\n              0x00\n              add\n              mload\n                /* \"strings.sol\":20764:20770  needle */\n              dup8\n                /* \"strings.sol\":20764:20775  needle._ptr */\n              0x20\n              add\n              mload\n                /* \"strings.sol\":20721:20728  findPtr */\n              tag_700\n                /* \"strings.sol\":20721:20776  findPtr(self._len, self._ptr, needle._len, needle._ptr) */\n              jump\t// in\n            tag_726:\n                /* \"strings.sol\":20799:20808  self._ptr */\n              0x20\n              dup1\n              dup8\n              add\n              dup1\n              mload\n                /* \"strings.sol\":20786:20796  token._ptr */\n              swap2\n              dup7\n              add\n                /* \"strings.sol\":20786:20808  token._ptr = self._ptr */\n              swap2\n              swap1\n              swap2\n              mstore\n                /* \"strings.sol\":20837:20846  self._ptr */\n              dup1\n              mload\n                /* \"strings.sol\":20831:20846  ptr - self._ptr */\n              dup3\n              sub\n                /* \"strings.sol\":20818:20846  token._len = ptr - self._ptr */\n              dup6\n              mstore\n                /* \"strings.sol\":20879:20888  self._len */\n              dup7\n              mload\n                /* \"strings.sol\":20867:20876  self._ptr */\n              swap1\n              mload\n                /* \"strings.sol\":20710:20776  uint ptr = findPtr(self._len, self._ptr, needle._len, needle._ptr) */\n              swap2\n              swap3\n              pop\n                /* \"strings.sol\":20867:20888  self._ptr + self._len */\n              add\n                /* \"strings.sol\":20860:20888  ptr == self._ptr + self._len */\n              dup2\n              eq\n                /* \"strings.sol\":20856:21064  if (ptr == self._ptr + self._len) {... */\n              iszero\n              tag_727\n              jumpi\n                /* \"strings.sol\":20941:20942  0 */\n              0x00\n                /* \"strings.sol\":20929:20942  self._len = 0 */\n              dup6\n              mstore\n                /* \"strings.sol\":20856:21064  if (ptr == self._ptr + self._len) {... */\n              jump(tag_728)\n            tag_727:\n                /* \"strings.sol\":20999:21010  needle._len */\n              dup4\n              mload\n                /* \"strings.sol\":20986:20996  token._len */\n              dup4\n              mload\n                /* \"strings.sol\":20973:21010  self._len -= token._len + needle._len */\n              dup7\n              mload\n                /* \"strings.sol\":20986:21010  token._len + needle._len */\n              swap2\n              add\n                /* \"strings.sol\":20973:21010  self._len -= token._len + needle._len */\n              swap1\n              sub\n              dup6\n              mstore\n                /* \"strings.sol\":21042:21053  needle._len */\n              dup4\n              mload\n                /* \"strings.sol\":21036:21053  ptr + needle._len */\n              dup2\n              add\n                /* \"strings.sol\":21024:21033  self._ptr */\n              0x20\n              dup7\n              add\n                /* \"strings.sol\":21024:21053  self._ptr = ptr + needle._len */\n              mstore\n                /* \"strings.sol\":20856:21064  if (ptr == self._ptr + self._len) {... */\n            tag_728:\n              pop\n                /* \"strings.sol\":21080:21085  token */\n              swap1\n              swap4\n                /* \"strings.sol\":20588:21092  function split(slice memory self, slice memory needle, slice memory token) internal pure returns (slice memory) {... */\n              swap3\n              pop\n              pop\n              pop\n              jump\t// out\n                /* \"strings.sol\":2724:3273  function memcpy(uint dest, uint src, uint len) internal pure {... */\n            tag_712:\n                /* \"strings.sol\":2845:3009  for(; len >= 32; len -= 32) {... */\n            tag_730:\n                /* \"strings.sol\":2858:2860  32 */\n              0x20\n                /* \"strings.sol\":2851:2854  len */\n              dup2\n                /* \"strings.sol\":2851:2860  len >= 32 */\n              lt\n                /* \"strings.sol\":2845:3009  for(; len >= 32; len -= 32) {... */\n              tag_731\n              jumpi\n                /* \"strings.sol\":2927:2937  mload(src) */\n              dup2\n              mload\n                /* \"strings.sol\":2914:2938  mstore(dest, mload(src)) */\n              dup4\n              mstore\n                /* \"strings.sol\":2973:2975  32 */\n              0x20\n                /* \"strings.sol\":2965:2975  dest += 32 */\n              swap3\n              dup4\n              add\n              swap3\n                /* \"strings.sol\":2989:2998  src += 32 */\n              swap1\n              swap2\n              add\n              swap1\n              not(0x1f)\n                /* \"strings.sol\":2862:2871  len -= 32 */\n              add\n                /* \"strings.sol\":2845:3009  for(; len >= 32; len -= 32) {... */\n              jump(tag_730)\n            tag_731:\n                /* \"strings.sol\":3136:3146  mload(src) */\n              swap1\n              mload\n                /* \"strings.sol\":3191:3202  mload(dest) */\n              dup3\n              mload\n                /* \"strings.sol\":3071:3073  32 */\n              0x20\n                /* \"strings.sol\":3071:3079  32 - len */\n              swap3\n              swap1\n              swap3\n              sub\n                /* \"strings.sol\":3063:3066  256 */\n              0x0100\n                /* \"strings.sol\":3063:3080  256 ** (32 - len) */\n              exp\n              not(0x00)\n                /* \"strings.sol\":3063:3084  256 ** (32 - len) - 1 */\n              add\n                /* \"strings.sol\":3148:3157  not(mask) */\n              dup1\n              not\n                /* \"strings.sol\":3132:3158  and(mload(src), not(mask)) */\n              swap1\n              swap2\n              and\n                /* \"strings.sol\":3187:3209  and(mload(dest), mask) */\n              swap2\n              and\n                /* \"strings.sol\":3235:3256  or(destpart, srcpart) */\n              or\n                /* \"strings.sol\":3222:3257  mstore(dest, or(destpart, srcpart)) */\n              swap1\n              mstore\n                /* \"strings.sol\":3103:3267  {... */\n              jump\t// out\n                /* \"MultipleEntity.sol\":49:1834  contract MultipleEntity is Entity {... */\n            tag_466:\n              dup3\n              dup1\n              sload\n              0x01\n              dup2\n              0x01\n              and\n              iszero\n              0x0100\n              mul\n              sub\n              and\n              0x02\n              swap1\n              div\n              swap1\n              0x00\n              mstore\n              keccak256(0x00, 0x20)\n              swap1\n              0x1f\n              add\n              0x20\n              swap1\n              div\n              dup2\n              add\n              swap3\n              dup3\n              0x1f\n              lt\n              tag_734\n              jumpi\n              dup1\n              calldataload\n              not(0xff)\n              and\n              dup4\n              dup1\n              add\n              or\n              dup6\n              sstore\n              jump(tag_736)\n            tag_734:\n              dup3\n              dup1\n              add\n              0x01\n              add\n              dup6\n              sstore\n              dup3\n              iszero\n              tag_736\n              jumpi\n              swap2\n              dup3\n              add\n            tag_735:\n              dup3\n              dup2\n              gt\n              iszero\n              tag_736\n              jumpi\n              dup3\n              calldataload\n              dup3\n              sstore\n              swap2\n              0x20\n              add\n              swap2\n              swap1\n              0x01\n              add\n              swap1\n              jump(tag_735)\n            tag_736:\n              pop\n              tag_737\n              swap3\n              swap2\n              pop\n              tag_738\n              jump\t// in\n            tag_737:\n              pop\n              swap1\n              jump\t// out\n            tag_478:\n              dup3\n              dup1\n              sload\n              0x01\n              dup2\n              0x01\n              and\n              iszero\n              0x0100\n              mul\n              sub\n              and\n              0x02\n              swap1\n              div\n              swap1\n              0x00\n              mstore\n              keccak256(0x00, 0x20)\n              swap1\n              0x1f\n              add\n              0x20\n              swap1\n              div\n              dup2\n              add\n              swap3\n              dup3\n              0x1f\n              lt\n              tag_740\n              jumpi\n              dup1\n              mload\n              not(0xff)\n              and\n              dup4\n              dup1\n              add\n              or\n              dup6\n              sstore\n              jump(tag_736)\n            tag_740:\n              dup3\n              dup1\n              add\n              0x01\n              add\n              dup6\n              sstore\n              dup3\n              iszero\n              tag_736\n              jumpi\n              swap2\n              dup3\n              add\n            tag_741:\n              dup3\n              dup2\n              gt\n              iszero\n              tag_736\n              jumpi\n              dup3\n              mload\n              dup3\n              sstore\n              swap2\n              0x20\n              add\n              swap2\n              swap1\n              0x01\n              add\n              swap1\n              jump(tag_741)\n            tag_483:\n              0x40\n              dup1\n              mload\n              0xc0\n              dup2\n              add\n              dup3\n              mstore\n              0x00\n              dup1\n              dup3\n              mstore\n              0x20\n              dup3\n              add\n              dup2\n              swap1\n              mstore\n              0x60\n              swap3\n              dup3\n              add\n              dup4\n              swap1\n              mstore\n              dup3\n              dup3\n              add\n              dup4\n              swap1\n              mstore\n              0x80\n              dup3\n              add\n              swap3\n              swap1\n              swap3\n              mstore\n              0xa0\n              dup2\n              add\n              swap2\n              swap1\n              swap2\n              mstore\n              swap1\n              jump\t// out\n            tag_485:\n              mload(0x40)\n              dup1\n              0x40\n              add\n              0x40\n              mstore\n              dup1\n              0x00\n              dup2\n              mstore\n              0x20\n              add\n              0x00\n              dup2\n              mstore\n              pop\n              swap1\n              jump\t// out\n            tag_514:\n              dup3\n              dup1\n              sload\n              dup3\n              dup3\n              sstore\n              swap1\n              0x00\n              mstore\n              keccak256(0x00, 0x20)\n              swap1\n              dup2\n              add\n              swap3\n              dup3\n              iszero\n              tag_746\n              jumpi\n              swap2\n              0x20\n              mul\n              dup3\n              add\n            tag_745:\n              dup3\n              dup2\n              gt\n              iszero\n              tag_746\n              jumpi\n              dup3\n              mload\n              dup1\n              mload\n              tag_747\n              swap2\n              dup5\n              swap2\n              0x20\n              swap1\n              swap2\n              add\n              swap1\n              tag_478\n              jump\t// in\n            tag_747:\n              pop\n              swap2\n              0x20\n              add\n              swap2\n              swap1\n              0x01\n              add\n              swap1\n              jump(tag_745)\n            tag_746:\n              pop\n              tag_737\n              swap3\n              swap2\n              pop\n              tag_749\n              jump\t// in\n            tag_638:\n              dup3\n              dup1\n              sload\n              0x01\n              dup2\n              0x01\n              and\n              iszero\n              0x0100\n              mul\n              sub\n              and\n              0x02\n              swap1\n              div\n              swap1\n              0x00\n              mstore\n              keccak256(0x00, 0x20)\n              swap1\n              0x1f\n              add\n              0x20\n              swap1\n              div\n              dup2\n              add\n              swap3\n              dup3\n              0x1f\n              lt\n              tag_751\n              jumpi\n              dup1\n              sload\n              dup6\n              sstore\n              jump(tag_736)\n            tag_751:\n              dup3\n              dup1\n              add\n              0x01\n              add\n              dup6\n              sstore\n              dup3\n              iszero\n              tag_736\n              jumpi\n              0x00\n              mstore\n              keccak256(0x00, 0x20)\n              swap2\n              0x1f\n              add\n              0x20\n              swap1\n              div\n              dup3\n              add\n            tag_752:\n              dup3\n              dup2\n              gt\n              iszero\n              tag_736\n              jumpi\n              dup3\n              sload\n              dup3\n              sstore\n              swap2\n              0x01\n              add\n              swap2\n              swap1\n              0x01\n              add\n              swap1\n              jump(tag_752)\n            tag_738:\n              tag_384\n              swap2\n              swap1\n            tag_756:\n              dup1\n              dup3\n              gt\n              iszero\n              tag_737\n              jumpi\n              0x00\n              dup2\n              sstore\n              0x01\n              add\n              jump(tag_756)\n            tag_749:\n              tag_384\n              swap2\n              swap1\n            tag_759:\n              dup1\n              dup3\n              gt\n              iszero\n              tag_737\n              jumpi\n              0x00\n              tag_761\n              dup3\n              dup3\n              tag_762\n              jump\t// in\n            tag_761:\n              pop\n              0x01\n              add\n              jump(tag_759)\n            tag_762:\n              pop\n              dup1\n              sload\n              0x01\n              dup2\n              0x01\n              and\n              iszero\n              0x0100\n              mul\n              sub\n              and\n              0x02\n              swap1\n              div\n              0x00\n              dup3\n              sstore\n              dup1\n              0x1f\n              lt\n              tag_764\n              jumpi\n              pop\n              jump(tag_765)\n            tag_764:\n              0x1f\n              add\n              0x20\n              swap1\n              div\n              swap1\n              0x00\n              mstore\n              keccak256(0x00, 0x20)\n              swap1\n              dup2\n              add\n              swap1\n              tag_765\n              swap2\n              swap1\n              tag_738\n              jump\t// in\n            tag_765:\n              pop\n              jump\t// out\n\n            auxdata: 0xa2646970667358221220ed933ef0d17d5804cbdff45132a318113e7afe914302c50acd46237c880a9b6d64736f6c63430006060033\n        }\n    }\n\n    auxdata: 0xa26469706673582212207501539a0186de137c990aa7502d1aa1ce0de683496f78ccb3b480d4bf725d5f64736f6c63430006060033\n}\n","bytecode":{"linkReferences":{},"object":"608060405234801561001057600080fd5b50614b13806100206000396000f3fe608060405234801561001057600080fd5b506004361061004c5760003560e01c80633ca701e914610051578063a1690e23146100c4578063ae2d25f414610172578063d598657914610193575b600080fd5b6100746004803603602081101561006757600080fd5b503563ffffffff166102bf565b60408051602080825283518183015283519192839290830191858101910280838360005b838110156100b0578181015183820152602001610098565b505050509050019250505060405180910390f35b6100e1600480360360208110156100da57600080fd5b5035610345565b60405180836001600160a01b03166001600160a01b0316815260200180602001828103825283818151815260200191508051906020019080838360005b8381101561013657818101518382015260200161011e565b50505050905090810190601f1680156101635780820380516001836020036101000a031916815260200191505b50935050505060405180910390f35b61017a610405565b6040805163ffffffff9092168252519081900360200190f35b6102bd600480360360408110156101a957600080fd5b8101906020810181356401000000008111156101c457600080fd5b8201836020820111156101d657600080fd5b803590602001918460018302840111640100000000831117156101f857600080fd5b91908080601f016020809104026020016040519081016040528093929190818152602001838380828437600092019190915250929594936020810193503591505064010000000081111561024b57600080fd5b82018360208201111561025d57600080fd5b8035906020019184602083028401116401000000008311171561027f57600080fd5b91908080602002602001604051908101604052809392919081815260200183836020028082843760009201919091525092955061040c945050505050565b005b606060008263ffffffff16815481106102d457fe5b906000526020600020906003020160010180548060200260200160405190810160405280929190818152602001828054801561033957602002820191906000526020600020905b81546001600160a01b0316815260019091019060200180831161031b575b50505050509050919050565b6000818154811061035257fe5b600091825260209182902060039091020180546002808301805460408051601f600019600185161561010002019093169490940491820187900487028401870190528083526001600160a01b0390931695509293909291908301828280156103fb5780601f106103d0576101008083540402835291602001916103fb565b820191906000526020600020905b8154815290600101906020018083116103de57829003601f168201915b5050505050905082565b6000545b90565b61041461054a565b82816040018190525060008260405161042c90610574565b6020808252825181830152825182916040830191858201910280838360005b8381101561046357818101518382015260200161044b565b5050505090500192505050604051809103906000f08015801561048a573d6000803e3d6000fd5b5060208381018581526001600160a01b0383811686526000805460018101825590805286517f290decd9548b62a8d60345a988386fc84ba6bc95484008f6362f93160ef3e563600390920291820180546001600160a01b031916919093161782559151805194955086949193610525937f290decd9548b62a8d60345a988386fc84ba6bc95484008f6362f93160ef3e5640192910190610581565b50604082015180516105419160028401916020909101906105e6565b50505050505050565b604051806060016040528060006001600160a01b0316815260200160608152602001606081525090565b61443f8061069f83390190565b8280548282559060005260206000209081019282156105d6579160200282015b828111156105d657825182546001600160a01b0319166001600160a01b039091161782556020909201916001909101906105a1565b506105e2929150610660565b5090565b828054600181600116156101000203166002900490600052602060002090601f016020900481019282601f1061062757805160ff1916838001178555610654565b82800160010185558215610654579182015b82811115610654578251825591602001919060010190610639565b506105e2929150610684565b61040991905b808211156105e25780546001600160a01b0319168155600101610666565b61040991905b808211156105e2576000815560010161068a56fe60806040523480156200001157600080fd5b506040516200443f3803806200443f833981810160405260208110156200003757600080fd5b81019080805160405193929190846401000000008211156200005857600080fd5b9083019060208201858111156200006e57600080fd5b82518660208202830111640100000000821117156200008c57600080fd5b82525081516020918201928201910280838360005b83811015620000bb578181015183820152602001620000a1565b505050509190910160405250506000805460ff191681559150505b81518163ffffffff1610156200022f576000828263ffffffff1681518110620000fb57fe5b60200260200101519050806001600160a01b03166384aeb6946040518163ffffffff1660e01b815260040160206040518083038186803b1580156200013f57600080fd5b505afa15801562000154573d6000803e3d6000fd5b505050506040513d60208110156200016b57600080fd5b50516200017757600080fd5b6001600c6000858563ffffffff16815181106200019057fe5b60200260200101516001600160a01b03166001600160a01b0316815260200190815260200160002060006101000a81548160ff021916908315150217905550600d838363ffffffff1681518110620001e457fe5b60209081029190910181015182546001808201855560009485529290932090920180546001600160a01b0319166001600160a01b0390931692909217909155919091019050620000d6565b50506141fe80620002416000396000f3fe608060405234801561001057600080fd5b50600436106102485760003560e01c806384aeb6941161013b578063c09bc35b116100b8578063e29e92901161007c578063e29e9290146113da578063e9dff3b41461140c578063f10f731c14611414578063f396b51f14611555578063fc2a8efa1461157b57610248565b8063c09bc35b146112ed578063cf6ae5281461135b578063d027a93e14611381578063db40659714611389578063e24e7912146113af57610248565b80639169b323116100ff5780639169b32314611063578063928ec3e514611135578063a1a298da146111f9578063a63de8cf1461121c578063a7ed56031461123957610248565b806384aeb69414610d3057806388a6712f14610d385780638c16215214610e715780638cba76b1146108645780638e6365141461103157610248565b8063359589ac116101c95780636eecac581161018d5780636eecac5814610acd5780637065cb4814610c06578063834fde3414610c2c578063838ebd8514610c4f578063847b525714610c7257610248565b8063359589ac146109ba5780634d981cf7146109e65780634f2bcbef146109ee5780634f51433d14610a115780636b31c5f114610a1957610248565b806324f416d61161021057806324f416d6146105945780632a4541d4146106485780632f54bf6e1461082a57806330699892146108645780633296e5ca1461099d57610248565b8063025e7c271461024d57806308ac733a146102865780630f121925146103af57806317361084146104b8578063173825d91461056c575b600080fd5b61026a6004803603602081101561026357600080fd5b50356116ac565b604080516001600160a01b039092168252519081900360200190f35b61033a6004803603604081101561029c57600080fd5b6001600160a01b038235169190810190604081016020820135600160201b8111156102c657600080fd5b8201836020820111156102d857600080fd5b803590602001918460018302840111600160201b831117156102f957600080fd5b91908080601f0160208091040260200160405190810160405280939291908181526020018383808284376000920191909152509295506116d3945050505050565b6040805160208082528351818301528351919283929083019185019080838360005b8381101561037457818101518382015260200161035c565b50505050905090810190601f1680156103a15780820380516001836020036101000a031916815260200191505b509250505060405180910390f35b6103da600480360360408110156103c557600080fd5b5063ffffffff813581169160200135166117ee565b604051808060200180602001838103835285818151815260200191508051906020019080838360005b8381101561041b578181015183820152602001610403565b50505050905090810190601f1680156104485780820380516001836020036101000a031916815260200191505b50838103825284518152845160209182019186019080838360005b8381101561047b578181015183820152602001610463565b50505050905090810190601f1680156104a85780820380516001836020036101000a031916815260200191505b5094505050505060405180910390f35b61033a600480360360408110156104ce57600080fd5b6001600160a01b038235169190810190604081016020820135600160201b8111156104f857600080fd5b82018360208201111561050a57600080fd5b803590602001918460018302840111600160201b8311171561052b57600080fd5b91908080601f016020809104026020016040519081016040528093929190818152602001838380828437600092019190915250929550611999945050505050565b6105926004803603602081101561058257600080fd5b50356001600160a01b0316611a52565b005b61033a600480360360408110156105aa57600080fd5b6001600160a01b038235169190810190604081016020820135600160201b8111156105d457600080fd5b8201836020820111156105e657600080fd5b803590602001918460018302840111600160201b8311171561060757600080fd5b91908080601f016020809104026020016040519081016040528093929190818152602001838380828437600092019190915250929550611bbc945050505050565b610811600480360360c081101561065e57600080fd5b6001600160a01b038235811692602081013590911691810190606081016040820135600160201b81111561069157600080fd5b8201836020820111156106a357600080fd5b803590602001918460018302840111600160201b831117156106c457600080fd5b91908080601f0160208091040260200160405190810160405280939291908181526020018383808284376000920191909152509295949360208101935035915050600160201b81111561071657600080fd5b82018360208201111561072857600080fd5b803590602001918460018302840111600160201b8311171561074957600080fd5b91908080601f0160208091040260200160405190810160405280939291908181526020018383808284376000920191909152509295949360208101935035915050600160201b81111561079b57600080fd5b8201836020820111156107ad57600080fd5b803590602001918460018302840111600160201b831117156107ce57600080fd5b91908080601f0160208091040260200160405190810160405280939291908181526020018383808284376000920191909152509295505050503515159050611c6e565b6040805163ffffffff9092168252519081900360200190f35b6108506004803603602081101561084057600080fd5b50356001600160a01b0316611e4e565b604080519115158252519081900360200190f35b61033a6004803603606081101561087a57600080fd5b6001600160a01b038235169190810190604081016020820135600160201b8111156108a457600080fd5b8201836020820111156108b657600080fd5b803590602001918460018302840111600160201b831117156108d757600080fd5b91908080601f0160208091040260200160405190810160405280939291908181526020018383808284376000920191909152509295949360208101935035915050600160201b81111561092957600080fd5b82018360208201111561093b57600080fd5b803590602001918460018302840111600160201b8311171561095c57600080fd5b91908080601f016020809104026020016040519081016040528093929190818152602001838380828437600092019190915250929550611e63945050505050565b61026a600480360360208110156109b357600080fd5b5035611fd8565b61033a600480360360408110156109d057600080fd5b506001600160a01b038135169060200135611fe5565b610811612066565b61059260048036036020811015610a0457600080fd5b503563ffffffff1661206d565b610811612175565b61033a60048036036040811015610a2f57600080fd5b6001600160a01b038235169190810190604081016020820135600160201b811115610a5957600080fd5b820183602082011115610a6b57600080fd5b803590602001918460018302840111600160201b83111715610a8c57600080fd5b91908080601f01602080910402602001604051908101604052809392919081815260200183838082843760009201919091525092955061217b945050505050565b61059260048036036060811015610ae357600080fd5b6001600160a01b038235169190810190604081016020820135600160201b811115610b0d57600080fd5b820183602082011115610b1f57600080fd5b803590602001918460018302840111600160201b83111715610b4057600080fd5b91908080601f0160208091040260200160405190810160405280939291908181526020018383808284376000920191909152509295949360208101935035915050600160201b811115610b9257600080fd5b820183602082011115610ba457600080fd5b803590602001918460018302840111600160201b83111715610bc557600080fd5b91908080601f0160208091040260200160405190810160405280939291908181526020018383808284376000920191909152509295506121fa945050505050565b61059260048036036020811015610c1c57600080fd5b50356001600160a01b0316612348565b61081160048036036020811015610c4257600080fd5b503563ffffffff166123df565b61059260048036036020811015610c6557600080fd5b503563ffffffff1661240e565b61059260048036036040811015610c8857600080fd5b810190602081018135600160201b811115610ca257600080fd5b820183602082011115610cb457600080fd5b803590602001918460018302840111600160201b83111715610cd557600080fd5b919390929091602081019035600160201b811115610cf257600080fd5b820183602082011115610d0457600080fd5b803590602001918460018302840111600160201b83111715610d2557600080fd5b509092509050612808565b61085061289c565b61059260048036036060811015610d4e57600080fd5b6001600160a01b038235169190810190604081016020820135600160201b811115610d7857600080fd5b820183602082011115610d8a57600080fd5b803590602001918460018302840111600160201b83111715610dab57600080fd5b91908080601f0160208091040260200160405190810160405280939291908181526020018383808284376000920191909152509295949360208101935035915050600160201b811115610dfd57600080fd5b820183602082011115610e0f57600080fd5b803590602001918460018302840111600160201b83111715610e3057600080fd5b91908080601f0160208091040260200160405190810160405280939291908181526020018383808284376000920191909152509295506128a1945050505050565b610592600480360360a0811015610e8757600080fd5b6001600160a01b038235169190810190604081016020820135600160201b811115610eb157600080fd5b820183602082011115610ec357600080fd5b803590602001918460018302840111600160201b83111715610ee457600080fd5b91908080601f0160208091040260200160405190810160405280939291908181526020018383808284376000920191909152509295949360208101935035915050600160201b811115610f3657600080fd5b820183602082011115610f4857600080fd5b803590602001918460018302840111600160201b83111715610f6957600080fd5b91908080601f0160208091040260200160405190810160405280939291908181526020018383808284376000920191909152509295949360208101935035915050600160201b811115610fbb57600080fd5b820183602082011115610fcd57600080fd5b803590602001918460018302840111600160201b83111715610fee57600080fd5b91908080601f01602080910402602001604051908101604052809392919081815260200183838082843760009201919091525092955050505035151590506129eb565b6105926004803603604081101561104757600080fd5b5080356001600160a01b0316906020013563ffffffff16612d42565b6110806004803603602081101561107957600080fd5b5035612dcb565b60405180856001600160a01b03166001600160a01b03168152602001846001600160a01b03166001600160a01b031681526020018060200183151515158152602001828103825284818151815260200191508051906020019080838360005b838110156110f75781810151838201526020016110df565b50505050905090810190601f1680156111245780820380516001836020036101000a031916815260200191505b509550505050505060405180910390f35b6105926004803603606081101561114b57600080fd5b810190602081018135600160201b81111561116557600080fd5b82018360208201111561117757600080fd5b803590602001918460018302840111600160201b8311171561119857600080fd5b919390929091602081019035600160201b8111156111b557600080fd5b8201836020820111156111c757600080fd5b803590602001918460018302840111600160201b831117156111e857600080fd5b91935091503563ffffffff16612e9f565b6108116004803603602081101561120f57600080fd5b503563ffffffff16612f2c565b6110806004803603602081101561123257600080fd5b5035612f41565b6108506004803603604081101561124f57600080fd5b6001600160a01b038235169190810190604081016020820135600160201b81111561127957600080fd5b82018360208201111561128b57600080fd5b803590602001918460018302840111600160201b831117156112ac57600080fd5b91908080601f016020809104026020016040519081016040528093929190818152602001838380828437600092019190915250929550612f4e945050505050565b6108116004803603602081101561130357600080fd5b810190602081018135600160201b81111561131d57600080fd5b82018360208201111561132f57600080fd5b803590602001918460018302840111600160201b8311171561135057600080fd5b509092509050612f7f565b6108116004803603602081101561137157600080fd5b50356001600160a01b03166130f0565b61081161310b565b6108116004803603602081101561139f57600080fd5b50356001600160a01b0316613111565b6103da600480360360408110156113c557600080fd5b5063ffffffff81358116916020013516613129565b610592600480360360408110156113f057600080fd5b5080356001600160a01b0316906020013563ffffffff1661317e565b6108506131ea565b6105926004803603608081101561142a57600080fd5b6001600160a01b038235169190810190604081016020820135600160201b81111561145457600080fd5b82018360208201111561146657600080fd5b803590602001918460018302840111600160201b8311171561148757600080fd5b91908080601f0160208091040260200160405190810160405280939291908181526020018383808284376000920191909152509295949360208101935035915050600160201b8111156114d957600080fd5b8201836020820111156114eb57600080fd5b803590602001918460018302840111600160201b8311171561150c57600080fd5b91908080601f0160208091040260200160405190810160405280939291908181526020018383808284376000920191909152509295505050903563ffffffff1691506131f39050565b6108506004803603602081101561156b57600080fd5b50356001600160a01b0316613351565b6105926004803603606081101561159157600080fd5b810190602081018135600160201b8111156115ab57600080fd5b8201836020820111156115bd57600080fd5b803590602001918460018302840111600160201b831117156115de57600080fd5b91908080601f0160208091040260200160405190810160405280939291908181526020018383808284376000920191909152509295949360208101935035915050600160201b81111561163057600080fd5b82018360208201111561164257600080fd5b803590602001918460018302840111600160201b8311171561166357600080fd5b91908080601f0160208091040260200160405190810160405280939291908181526020018383808284376000920191909152509295505050903563ffffffff1691506133669050565b600d81815481106116b957fe5b6000918252602090912001546001600160a01b0316905081565b606060026000846001600160a01b03166001600160a01b03168152602001908152602001600020826040518082805190602001908083835b6020831061172a5780518252601f19909201916020918201910161170b565b518151600019602094850361010090810a8201928316921993909316919091179092529490920196875260408051978890038201882060029081018054601f6001821615909802909501909416049485018290048202880182019052838752909450919250508301828280156117e15780601f106117b6576101008083540402835291602001916117e1565b820191906000526020600020905b8154815290600101906020018083116117c457829003601f168201915b5050505050905092915050565b606080600b8463ffffffff168154811061180457fe5b90600052602060002090600602016003018363ffffffff168154811061182657fe5b90600052602060002001600b8563ffffffff168154811061184357fe5b90600052602060002090600602016004018463ffffffff168154811061186557fe5b600091825260209182902083546040805160026001841615610100026000190190931692909204601f81018690048602830186019091528082529290910192909184918301828280156118f95780601f106118ce576101008083540402835291602001916118f9565b820191906000526020600020905b8154815290600101906020018083116118dc57829003601f168201915b5050845460408051602060026001851615610100026000190190941693909304601f8101849004840282018401909252818152959750869450925084019050828280156119875780601f1061195c57610100808354040283529160200191611987565b820191906000526020600020905b81548152906001019060200180831161196a57829003601f168201915b50505050509050915091509250929050565b600260208181526000938452604093849020835180850183018051928152908301948301949094209352828201805485516001821615610100026000190190911693909304601f8101839004830284018301909552848352929391929190830182828015611a485780601f10611a1d57610100808354040283529160200191611a48565b820191906000526020600020905b815481529060010190602001808311611a2b57829003601f168201915b5050505050905081565b336000908152600c602052604090205460ff16611a6e57600080fd5b6001600160a01b0381166000908152600c6020526040902054819060ff16611a9557600080fd5b600d54600110611aa457600080fd5b6001600160a01b0382166000908152600c60205260408120805460ff191690555b600d546000190163ffffffff82161015611b8a57826001600160a01b0316600d8263ffffffff1681548110611af657fe5b6000918252602090912001546001600160a01b03161415611b8257600d80546000198101908110611b2357fe5b600091825260209091200154600d80546001600160a01b039092169163ffffffff8416908110611b4f57fe5b9060005260206000200160006101000a8154816001600160a01b0302191690836001600160a01b03160217905550611b8a565b600101611ac5565b50600d805480611b9657fe5b600082815260209020810160001990810180546001600160a01b03191690550190555050565b60036020908152600092835260409283902082518084018301805192815290830193830193909320925281548351601f6002600019610100600186161502019093169290920491820183900483028101830190945280845290830182828015611c665780601f10611c3b57610100808354040283529160200191611c66565b820191906000526020600020905b815481529060010190602001808311611c4957829003601f168201915b505050505081565b336000908152600c602052604081205460ff16611c8a57600080fd5b6000879050806001600160a01b0316638c16215288888888886040518663ffffffff1660e01b815260040180866001600160a01b03166001600160a01b0316815260200180602001806020018060200185151515158152602001848103845288818151815260200191508051906020019080838360005b83811015611d19578181015183820152602001611d01565b50505050905090810190601f168015611d465780820380516001836020036101000a031916815260200191505b50848103835287518152875160209182019189019080838360005b83811015611d79578181015183820152602001611d61565b50505050905090810190601f168015611da65780820380516001836020036101000a031916815260200191505b50848103825286518152865160209182019188019080838360005b83811015611dd9578181015183820152602001611dc1565b50505050905090810190601f168015611e065780820380516001836020036101000a031916815260200191505b5098505050505050505050600060405180830381600087803b158015611e2b57600080fd5b505af1158015611e3f573d6000803e3d6000fd5b50505050509695505050505050565b600c6020526000908152604090205460ff1681565b606060026000856001600160a01b03166001600160a01b03168152602001908152602001600020836040518082805190602001908083835b60208310611eba5780518252601f199092019160209182019101611e9b565b51815160209384036101000a6000190180199092169116179052920194855250604051938490038101842086519094879450925082918401908083835b60208310611f165780518252601f199092019160209182019101611ef7565b518151600019602094850361010090810a820192831692199390931691909117909252949092019687526040805197889003820188208054601f6002600183161590980290950116959095049283018290048202880182019052818752929450925050830182828015611fca5780601f10611f9f57610100808354040283529160200191611fca565b820191906000526020600020905b815481529060010190602001808311611fad57829003601f168201915b505050505090509392505050565b600581815481106116b957fe5b60076020528160005260406000208181548110611ffe57fe5b600091825260209182902001805460408051601f60026000196101006001871615020190941693909304928301859004850281018501909152818152945090925090830182828015611c665780601f10611c3b57610100808354040283529160200191611c66565b6005545b90565b336000908152600c602052604090205460ff1661208957600080fd5b336000908152600f6020908152604080832063ffffffff85168452909152902054819060ff16156120b957600080fd5b336000908152600f6020908152604080832063ffffffff85811685529083528184208054600160ff199091168117909155600e9093529220805463ffffffff19811690841690920183169190911790819055600d549082166002029091161061213d5763ffffffff81166000908152600a60205260409020805460ff191660011790555b63ffffffff82166000908152600a602052604090205460ff1680612163575060005460ff165b156121715761217182613419565b5050565b60095490565b60046020908152600092835260409283902082518084018301805192815290830193830193909320925281548351601f6002600019610100600186161502019093169290920491820183900483028101830190945280845290830182828015611c665780601f10611c3b57610100808354040283529160200191611c66565b336000908152600c602052604090205460ff1661221657600080fd5b6000839050806001600160a01b031663847b525784846040518363ffffffff1660e01b8152600401808060200180602001838103835285818151815260200191508051906020019080838360005b8381101561227c578181015183820152602001612264565b50505050905090810190601f1680156122a95780820380516001836020036101000a031916815260200191505b50838103825284518152845160209182019186019080838360005b838110156122dc5781810151838201526020016122c4565b50505050905090810190601f1680156123095780820380516001836020036101000a031916815260200191505b50945050505050600060405180830381600087803b15801561232a57600080fd5b505af115801561233e573d6000803e3d6000fd5b5050505050505050565b336000908152600c602052604090205460ff1661236457600080fd5b806001600160a01b03811661237857600080fd5b506001600160a01b03166000818152600c60205260408120805460ff19166001908117909155600d805491820181559091527fd7b6990105719101dabeb77144f2a3385c8033acd3af97e9423a695e81ad1eb50180546001600160a01b0319169091179055565b600060098263ffffffff16815481106123f457fe5b600091825260209091206003600690920201015492915050565b336000908152600c602052604090205460ff1661242a57600080fd5b600b8163ffffffff168154811061243d57fe5b600091825260209091206005600690920201015460ff161561245e57600080fd5b6000600b8263ffffffff168154811061247357fe5b60009182526020822060016006909202010154600b80546001600160a01b039092169350839163c09bc35b919063ffffffff87169081106124b057fe5b60009182526020918290206040516001600160e01b031960e086901b16815260048101938452600260069093029091018201805460001961010060018316150201169290920460248201819052919291829160440190849080156125555780601f1061252a57610100808354040283529160200191612555565b820191906000526020600020905b81548152906001019060200180831161253857829003601f168201915b505092505050602060405180830381600087803b15801561257557600080fd5b505af1158015612589573d6000803e3d6000fd5b505050506040513d602081101561259f57600080fd5b5051905060005b600b8463ffffffff16815481106125b957fe5b9060005260206000209060060201600301805490508163ffffffff1610156127cb57826001600160a01b031663928ec3e5600b8663ffffffff16815481106125fd57fe5b90600052602060002090600602016003018363ffffffff168154811061261f57fe5b90600052602060002001600b8763ffffffff168154811061263c57fe5b90600052602060002090600602016004018463ffffffff168154811061265e57fe5b600091825260209091206040516001600160e01b031960e086901b16815263ffffffff88166044820152606060048201908152845460026000196101006001841615020190911604606483018190529290930192889290918291602482019160840190879080156127105780601f106126e557610100808354040283529160200191612710565b820191906000526020600020905b8154815290600101906020018083116126f357829003601f168201915b50508381038252855460026000196101006001841615020190911604808252602090910190869080156127845780601f1061275957610100808354040283529160200191612784565b820191906000526020600020905b81548152906001019060200180831161276757829003601f168201915b505095505050505050600060405180830381600087803b1580156127a757600080fd5b505af11580156127bb573d6000803e3d6000fd5b5050600190920191506125a69050565b506001600b8463ffffffff16815481106127e157fe5b60009182526020909120600690910201600501805460ff1916911515919091179055505050565b336000908152600860205260409081902090518590859080838380828437919091019485525050604051928390036020019092205460ff16915061284d905057600080fd5b33600090815260046020526040908190209051839183918790879080838380828437808301925050509250505090815260200160405180910390209190612895929190613f26565b5050505050565b600181565b336000908152600c602052604090205460ff166128bd57600080fd5b60086000846001600160a01b03166001600160a01b03168152602001908152602001600020826040518082805190602001908083835b602083106129125780518252601f1990920191602091820191016128f3565b51815160209384036101000a600019018019909216911617905292019485525060405193849003019092205460ff16915061294e905057600080fd5b8060036000856001600160a01b03166001600160a01b03168152602001908152602001600020836040518082805190602001908083835b602083106129a45780518252601f199092019160209182019101612985565b51815160209384036101000a600019018019909216911617905292019485525060405193849003810190932084516129e59591949190910192509050613fa4565b50505050565b336000908152600c602052604090205460ff16612a0757600080fd5b612a0f614012565b6001600160a01b03861660208281018290526040808401889052600060a08501819052600b5493815260019092529020805463ffffffff191663ffffffff909216919091179055612a5e61405c565b612a6785613cae565b9050612a7161405c565b612a7a85613cae565b9050612a8461405c565b612aa6604051806040016040528060018152602001600b60fa1b815250613cae565b90506000612aba848363ffffffff613cd316565b60010190508063ffffffff1667ffffffffffffffff81118015612adc57600080fd5b50604051908082528060200260200182016040528015612b1057816020015b6060815260200190600190039081612afb5790505b50606086015263ffffffff811667ffffffffffffffff81118015612b3357600080fd5b50604051908082528060200260200182016040528015612b6757816020015b6060815260200190600190039081612b525790505b50608086015260005b8163ffffffff168163ffffffff161015612c05576060612b9e612b99878663ffffffff613d4016565b613d53565b90506060612bb5612b99878763ffffffff613d4016565b90508188606001518463ffffffff1681518110612bce57fe5b60200260200101819052508088608001518463ffffffff1681518110612bf057fe5b60209081029190910101525050600101612b70565b50600b805460018101825560009190915285517f0175b7a638427703f0dbe7bb9bbf987a2551717b34e79f33b5b1008d1fa01db9600690920291820180546001600160a01b03199081166001600160a01b039384161782556020808a01517f0175b7a638427703f0dbe7bb9bbf987a2551717b34e79f33b5b1008d1fa01dba8601805490931694169390931790556040880151805189949293612ccc937f0175b7a638427703f0dbe7bb9bbf987a2551717b34e79f33b5b1008d1fa01dbb01920190613fa4565b5060608201518051612ce8916003840191602090910190614076565b5060808201518051612d04916004840191602090910190614076565b5060a091909101516005909101805460ff19169115159190911790558515612d3657600b54612d36906000190161240e565b50505050505050505050565b336000908152600c602052604090205460ff16612d5e57600080fd5b60408051634f2bcbef60e01b815263ffffffff83166004820152905183916001600160a01b03831691634f2bcbef9160248082019260009290919082900301818387803b158015612dae57600080fd5b505af1158015612dc2573d6000803e3d6000fd5b50505050505050565b60098181548110612dd857fe5b600091825260209182902060069091020180546001808301546002808501805460408051601f600019978416156101000297909701909216939093049485018890048802810188019092528382526001600160a01b0394851697509190931694909190830182828015612e8c5780601f10612e6157610100808354040283529160200191612e8c565b820191906000526020600020905b815481529060010190602001808311612e6f57829003601f168201915b5050506005909301549192505060ff1684565b60098163ffffffff1681548110612eb257fe5b6000918252602080832060046006909302019190910180546001810182559083529120612ee191018484613f26565b5060098163ffffffff1681548110612ef557fe5b6000918252602080832060036006909302019190910180546001810182559083529120612f2491018686613f26565b505050505050565b6000600b8263ffffffff16815481106123f457fe5b600b8181548110612dd857fe5b6008602090815260009283526040909220815180830184018051928152908401929093019190912091525460ff1681565b6000612f89614012565b338152604080516020601f860181900481028201810190925284815290859085908190840183828082843760009201829052506040860194855260a0860181905260098054600181018255915285517f6e1540171b6c0c960b71a7020d9f60077f6af931a8bbf590da0223dacf75c7af600690920291820180546001600160a01b03199081166001600160a01b039384161782556020808a01517f6e1540171b6c0c960b71a7020d9f60077f6af931a8bbf590da0223dacf75c7b0860180549093169416939093179055955180518897965061308d95507f6e1540171b6c0c960b71a7020d9f60077f6af931a8bbf590da0223dacf75c7b190930193500190613fa4565b50606082015180516130a9916003840191602090910190614076565b50608082015180516130c5916004840191602090910190614076565b5060a091909101516005909101805460ff191691151591909117905550506009546000190192915050565b6001600160a01b031660009081526007602052604090205490565b600b5490565b60016020526000908152604090205463ffffffff1681565b60608060098463ffffffff168154811061313f57fe5b90600052602060002090600602016003018363ffffffff168154811061316157fe5b9060005260206000200160098563ffffffff168154811061184357fe5b336000908152600c602052604090205460ff1661319a57600080fd5b6040805163838ebd8560e01b815263ffffffff83166004820152905183916001600160a01b0383169163838ebd859160248082019260009290919082900301818387803b158015612dae57600080fd5b60005460ff1681565b336000908152600c602052604090205460ff1661320f57600080fd5b604051637e15477d60e11b815263ffffffff8216604482015260606004820190815284516064830152845186926001600160a01b0384169263fc2a8efa9288928892889290918291602482019160840190602088019080838360005b8381101561328357818101518382015260200161326b565b50505050905090810190601f1680156132b05780820380516001836020036101000a031916815260200191505b50838103825285518152855160209182019187019080838360005b838110156132e35781810151838201526020016132cb565b50505050905090810190601f1680156133105780820380516001836020036101000a031916815260200191505b5095505050505050600060405180830381600087803b15801561333257600080fd5b505af1158015613346573d6000803e3d6000fd5b505050505050505050565b60066020526000908152604090205460ff1681565b336000908152600c602052604090205460ff1661338257600080fd5b600b8163ffffffff168154811061339557fe5b6000918252602080832060036006909302019190910180546001810182559083529181902085516133cd939190910191860190613fa4565b50600b8163ffffffff16815481106133e157fe5b6000918252602080832060046006909302019190910180546001810182559083529181902084516129e5939190910191850190613fa4565b60098163ffffffff168154811061342c57fe5b600091825260209091206005600690920201015460ff161561344d57600080fd5b60006002600060098463ffffffff168154811061346657fe5b600091825260208083206006909202909101546001600160a01b0316835282019290925260400190206009805463ffffffff85169081106134a357fe5b9060005260206000209060060201600201604051808280546001816001161561010002031660029004801561350f5780601f106134ed57610100808354040283529182019161350f565b820191906000526020600020905b8154815290600101906020018083116134fb575b50509283525050604051908190036020019020905060005b60098363ffffffff168154811061353a57fe5b9060005260206000209060060201600301805490508163ffffffff1610156139255760098363ffffffff168154811061356f57fe5b90600052602060002090600602016004018163ffffffff168154811061359157fe5b906000526020600020018260000160098563ffffffff16815481106135b257fe5b90600052602060002090600602016003018363ffffffff16815481106135d457fe5b9060005260206000200160405180828054600181600116156101000203166002900480156136395780601f10613617576101008083540402835291820191613639565b820191906000526020600020905b815481529060010190602001808311613625575b50509283525050604051908190036020019020815461366b9290600260001961010060018416150201909116046140cf565b508160010160098463ffffffff168154811061368357fe5b90600052602060002090600602016003018263ffffffff16815481106136a557fe5b90600052602060002001604051808280546001816001161561010002031660029004801561370a5780601f106136e857610100808354040283529182019161370a565b820191906000526020600020905b8154815290600101906020018083116136f6575b505092835250506040519081900360200190205460ff1661391d578160020160098463ffffffff168154811061373c57fe5b90600052602060002090600602016003018263ffffffff168154811061375e57fe5b9060005260206000200160405160200180838054600181600116156101000203166002900480156137c65780601f106137a45761010080835404028352918201916137c6565b820191906000526020600020905b8154815290600101906020018083116137b2575b50508061016160f51b8152506002018280546001816001161561010002031660029004801561382c5780601f1061380a57610100808354040283529182019161382c565b820191906000526020600020905b815481529060010190602001808311613818575b505060408051601f198184030181529190528051613857945060028701935060209091019150613fa4565b5060018260010160098563ffffffff168154811061387157fe5b90600052602060002090600602016003018363ffffffff168154811061389357fe5b9060005260206000200160405180828054600181600116156101000203166002900480156138f85780601f106138d65761010080835404028352918201916138f8565b820191906000526020600020905b8154815290600101906020018083116138e4575b50509283525050604051908190036020019020805491151560ff199092169190911790555b600101613527565b506006600060098463ffffffff168154811061393d57fe5b600091825260208083206006909202909101546001600160a01b0316835282019290925260400190205460ff16613a1457600560098363ffffffff168154811061398357fe5b600091825260208083206006928302015484546001818101875595855291842090910180546001600160a01b0319166001600160a01b039092169190911790556009805491929163ffffffff87169081106139da57fe5b60009182526020808320600692909202909101546001600160a01b031683528201929092526040019020805460ff19169115159190911790555b6008600060098463ffffffff1681548110613a2b57fe5b600091825260208083206006909202909101546001600160a01b0316835282019290925260400190206009805463ffffffff8516908110613a6857fe5b90600052602060002090600602016002016040518082805460018160011615610100020316600290048015613ad45780601f10613ab2576101008083540402835291820191613ad4565b820191906000526020600020905b815481529060010190602001808311613ac0575b505092835250506040519081900360200190205460ff16613c73576007600060098463ffffffff1681548110613b0657fe5b600091825260208083206006909202909101546001600160a01b0316835282019290925260400190206009805463ffffffff8516908110613b4357fe5b600091825260208083208454600180820187559585529190932060069290920290920160029081018054613b8b959390940193909260001990821615610100020116046140cf565b5060016008600060098563ffffffff1681548110613ba557fe5b600091825260208083206006909202909101546001600160a01b0316835282019290925260400190206009805463ffffffff8616908110613be257fe5b90600052602060002090600602016002016040518082805460018160011615610100020316600290048015613c4e5780601f10613c2c576101008083540402835291820191613c4e565b820191906000526020600020905b815481529060010190602001808311613c3a575b50509283525050604051908190036020019020805491151560ff199092169190911790555b600160098363ffffffff1681548110613c8857fe5b60009182526020909120600690910201600501805460ff19169115159190911790555050565b613cb661405c565b506040805180820190915281518152602082810190820152919050565b6000808260000151613cf78560000151866020015186600001518760200151613dba565b0190505b83516020850151018111613d39578251602080860151865191860151600190950194613d31929185039091039084908490613dba565b019050613cfb565b5092915050565b613d4861405c565b613d39838383613e77565b606080826000015167ffffffffffffffff81118015613d7157600080fd5b506040519080825280601f01601f191660200182016040528015613d9c576020820181803683370190505b5090506000602082019050613d398185602001518660000151613ee8565b60008381868511613e685760208511613e2d5783518251600019600860208990030260020a011991821690888a018890039083165b828114613e1f57818610613e0d578a8a019650505050505050613e6f565b50600190940180519094908316613def565b859650505050505050613e6f565b508383206000905b8588038211613e665785832081811415613e555783945050505050613e6f565b506001928301929190910190613e35565b505b5050508284015b949350505050565b613e7f61405c565b6000613e9d8560000151866020015186600001518760200151613dba565b60208087018051918601919091528051820385528651905191925001811415613ec95760008552613edf565b8351835186519101900385528351810160208601525b50909392505050565b5b60208110613f08578151835260209283019290910190601f1901613ee9565b905182516020929092036101000a6000190180199091169116179052565b828054600181600116156101000203166002900490600052602060002090601f016020900481019282601f10613f675782800160ff19823516178555613f94565b82800160010185558215613f94579182015b82811115613f94578235825591602001919060010190613f79565b50613fa0929150614144565b5090565b828054600181600116156101000203166002900490600052602060002090601f016020900481019282601f10613fe557805160ff1916838001178555613f94565b82800160010185558215613f94579182015b82811115613f94578251825591602001919060010190613ff7565b6040518060c0016040528060006001600160a01b0316815260200160006001600160a01b031681526020016060815260200160608152602001606081526020016000151581525090565b604051806040016040528060008152602001600081525090565b8280548282559060005260206000209081019282156140c3579160200282015b828111156140c357825180516140b3918491602090910190613fa4565b5091602001919060010190614096565b50613fa092915061415e565b828054600181600116156101000203166002900490600052602060002090601f016020900481019282601f106141085780548555613f94565b82800160010185558215613f9457600052602060002091601f016020900482015b82811115613f94578254825591600101919060010190614129565b61206a91905b80821115613fa0576000815560010161414a565b61206a91905b80821115613fa05760006141788282614181565b50600101614164565b50805460018160011615610100020316600290046000825580601f106141a757506141c5565b601f0160209004906000526020600020908101906141c59190614144565b5056fea2646970667358221220ed933ef0d17d5804cbdff45132a318113e7afe914302c50acd46237c880a9b6d64736f6c63430006060033a26469706673582212207501539a0186de137c990aa7502d1aa1ce0de683496f78ccb3b480d4bf725d5f64736f6c63430006060033","opcodes":"PUSH1 0x80 PUSH1 0x40 MSTORE CALLVALUE DUP1 ISZERO PUSH2 0x10 JUMPI PUSH1 0x0 DUP1 REVERT JUMPDEST POP PUSH2 0x4B13 DUP1 PUSH2 0x20 PUSH1 0x0 CODECOPY PUSH1 0x0 RETURN INVALID PUSH1 0x80 PUSH1 0x40 MSTORE CALLVALUE DUP1 ISZERO PUSH2 0x10 JUMPI PUSH1 0x0 DUP1 REVERT JUMPDEST POP PUSH1 0x4 CALLDATASIZE LT PUSH2 0x4C JUMPI PUSH1 0x0 CALLDATALOAD PUSH1 0xE0 SHR DUP1 PUSH4 0x3CA701E9 EQ PUSH2 0x51 JUMPI DUP1 PUSH4 0xA1690E23 EQ PUSH2 0xC4 JUMPI DUP1 PUSH4 0xAE2D25F4 EQ PUSH2 0x172 JUMPI DUP1 PUSH4 0xD5986579 EQ PUSH2 0x193 JUMPI JUMPDEST PUSH1 0x0 DUP1 REVERT JUMPDEST PUSH2 0x74 PUSH1 0x4 DUP1 CALLDATASIZE SUB PUSH1 0x20 DUP2 LT ISZERO PUSH2 0x67 JUMPI PUSH1 0x0 DUP1 REVERT JUMPDEST POP CALLDATALOAD PUSH4 0xFFFFFFFF AND PUSH2 0x2BF JUMP JUMPDEST PUSH1 0x40 DUP1 MLOAD PUSH1 0x20 DUP1 DUP3 MSTORE DUP4 MLOAD DUP2 DUP4 ADD MSTORE DUP4 MLOAD SWAP2 SWAP3 DUP4 SWAP3 SWAP1 DUP4 ADD SWAP2 DUP6 DUP2 ADD SWAP2 MUL DUP1 DUP4 DUP4 PUSH1 0x0 JUMPDEST DUP4 DUP2 LT ISZERO PUSH2 0xB0 JUMPI DUP2 DUP2 ADD MLOAD DUP4 DUP3 ADD MSTORE PUSH1 0x20 ADD PUSH2 0x98 JUMP JUMPDEST POP POP POP POP SWAP1 POP ADD SWAP3 POP POP POP PUSH1 0x40 MLOAD DUP1 SWAP2 SUB SWAP1 RETURN JUMPDEST PUSH2 0xE1 PUSH1 0x4 DUP1 CALLDATASIZE SUB PUSH1 0x20 DUP2 LT ISZERO PUSH2 0xDA JUMPI PUSH1 0x0 DUP1 REVERT JUMPDEST POP CALLDATALOAD PUSH2 0x345 JUMP JUMPDEST PUSH1 0x40 MLOAD DUP1 DUP4 PUSH1 0x1 PUSH1 0x1 PUSH1 0xA0 SHL SUB AND PUSH1 0x1 PUSH1 0x1 PUSH1 0xA0 SHL SUB AND DUP2 MSTORE PUSH1 0x20 ADD DUP1 PUSH1 0x20 ADD DUP3 DUP2 SUB DUP3 MSTORE DUP4 DUP2 DUP2 MLOAD DUP2 MSTORE PUSH1 0x20 ADD SWAP2 POP DUP1 MLOAD SWAP1 PUSH1 0x20 ADD SWAP1 DUP1 DUP4 DUP4 PUSH1 0x0 JUMPDEST DUP4 DUP2 LT ISZERO PUSH2 0x136 JUMPI DUP2 DUP2 ADD MLOAD DUP4 DUP3 ADD MSTORE PUSH1 0x20 ADD PUSH2 0x11E JUMP JUMPDEST POP POP POP POP SWAP1 POP SWAP1 DUP2 ADD SWAP1 PUSH1 0x1F AND DUP1 ISZERO PUSH2 0x163 JUMPI DUP1 DUP3 SUB DUP1 MLOAD PUSH1 0x1 DUP4 PUSH1 0x20 SUB PUSH2 0x100 EXP SUB NOT AND DUP2 MSTORE PUSH1 0x20 ADD SWAP2 POP JUMPDEST POP SWAP4 POP POP POP POP PUSH1 0x40 MLOAD DUP1 SWAP2 SUB SWAP1 RETURN JUMPDEST PUSH2 0x17A PUSH2 0x405 JUMP JUMPDEST PUSH1 0x40 DUP1 MLOAD PUSH4 0xFFFFFFFF SWAP1 SWAP3 AND DUP3 MSTORE MLOAD SWAP1 DUP2 SWAP1 SUB PUSH1 0x20 ADD SWAP1 RETURN JUMPDEST PUSH2 0x2BD PUSH1 0x4 DUP1 CALLDATASIZE SUB PUSH1 0x40 DUP2 LT ISZERO PUSH2 0x1A9 JUMPI PUSH1 0x0 DUP1 REVERT JUMPDEST DUP2 ADD SWAP1 PUSH1 0x20 DUP2 ADD DUP2 CALLDATALOAD PUSH5 0x100000000 DUP2 GT ISZERO PUSH2 0x1C4 JUMPI PUSH1 0x0 DUP1 REVERT JUMPDEST DUP3 ADD DUP4 PUSH1 0x20 DUP3 ADD GT ISZERO PUSH2 0x1D6 JUMPI PUSH1 0x0 DUP1 REVERT JUMPDEST DUP1 CALLDATALOAD SWAP1 PUSH1 0x20 ADD SWAP2 DUP5 PUSH1 0x1 DUP4 MUL DUP5 ADD GT PUSH5 0x100000000 DUP4 GT OR ISZERO PUSH2 0x1F8 JUMPI PUSH1 0x0 DUP1 REVERT JUMPDEST SWAP2 SWAP1 DUP1 DUP1 PUSH1 0x1F ADD PUSH1 0x20 DUP1 SWAP2 DIV MUL PUSH1 0x20 ADD PUSH1 0x40 MLOAD SWAP1 DUP2 ADD PUSH1 0x40 MSTORE DUP1 SWAP4 SWAP3 SWAP2 SWAP1 DUP2 DUP2 MSTORE PUSH1 0x20 ADD DUP4 DUP4 DUP1 DUP3 DUP5 CALLDATACOPY PUSH1 0x0 SWAP3 ADD SWAP2 SWAP1 SWAP2 MSTORE POP SWAP3 SWAP6 SWAP5 SWAP4 PUSH1 0x20 DUP2 ADD SWAP4 POP CALLDATALOAD SWAP2 POP POP PUSH5 0x100000000 DUP2 GT ISZERO PUSH2 0x24B JUMPI PUSH1 0x0 DUP1 REVERT JUMPDEST DUP3 ADD DUP4 PUSH1 0x20 DUP3 ADD GT ISZERO PUSH2 0x25D JUMPI PUSH1 0x0 DUP1 REVERT JUMPDEST DUP1 CALLDATALOAD SWAP1 PUSH1 0x20 ADD SWAP2 DUP5 PUSH1 0x20 DUP4 MUL DUP5 ADD GT PUSH5 0x100000000 DUP4 GT OR ISZERO PUSH2 0x27F JUMPI PUSH1 0x0 DUP1 REVERT JUMPDEST SWAP2 SWAP1 DUP1 DUP1 PUSH1 0x20 MUL PUSH1 0x20 ADD PUSH1 0x40 MLOAD SWAP1 DUP2 ADD PUSH1 0x40 MSTORE DUP1 SWAP4 SWAP3 SWAP2 SWAP1 DUP2 DUP2 MSTORE PUSH1 0x20 ADD DUP4 DUP4 PUSH1 0x20 MUL DUP1 DUP3 DUP5 CALLDATACOPY PUSH1 0x0 SWAP3 ADD SWAP2 SWAP1 SWAP2 MSTORE POP SWAP3 SWAP6 POP PUSH2 0x40C SWAP5 POP POP POP POP POP JUMP JUMPDEST STOP JUMPDEST PUSH1 0x60 PUSH1 0x0 DUP3 PUSH4 0xFFFFFFFF AND DUP2 SLOAD DUP2 LT PUSH2 0x2D4 JUMPI INVALID JUMPDEST SWAP1 PUSH1 0x0 MSTORE PUSH1 0x20 PUSH1 0x0 KECCAK256 SWAP1 PUSH1 0x3 MUL ADD PUSH1 0x1 ADD DUP1 SLOAD DUP1 PUSH1 0x20 MUL PUSH1 0x20 ADD PUSH1 0x40 MLOAD SWAP1 DUP2 ADD PUSH1 0x40 MSTORE DUP1 SWAP3 SWAP2 SWAP1 DUP2 DUP2 MSTORE PUSH1 0x20 ADD DUP3 DUP1 SLOAD DUP1 ISZERO PUSH2 0x339 JUMPI PUSH1 0x20 MUL DUP3 ADD SWAP2 SWAP1 PUSH1 0x0 MSTORE PUSH1 0x20 PUSH1 0x0 KECCAK256 SWAP1 JUMPDEST DUP2 SLOAD PUSH1 0x1 PUSH1 0x1 PUSH1 0xA0 SHL SUB AND DUP2 MSTORE PUSH1 0x1 SWAP1 SWAP2 ADD SWAP1 PUSH1 0x20 ADD DUP1 DUP4 GT PUSH2 0x31B JUMPI JUMPDEST POP POP POP POP POP SWAP1 POP SWAP2 SWAP1 POP JUMP JUMPDEST PUSH1 0x0 DUP2 DUP2 SLOAD DUP2 LT PUSH2 0x352 JUMPI INVALID JUMPDEST PUSH1 0x0 SWAP2 DUP3 MSTORE PUSH1 0x20 SWAP2 DUP3 SWAP1 KECCAK256 PUSH1 0x3 SWAP1 SWAP2 MUL ADD DUP1 SLOAD PUSH1 0x2 DUP1 DUP4 ADD DUP1 SLOAD PUSH1 0x40 DUP1 MLOAD PUSH1 0x1F PUSH1 0x0 NOT PUSH1 0x1 DUP6 AND ISZERO PUSH2 0x100 MUL ADD SWAP1 SWAP4 AND SWAP5 SWAP1 SWAP5 DIV SWAP2 DUP3 ADD DUP8 SWAP1 DIV DUP8 MUL DUP5 ADD DUP8 ADD SWAP1 MSTORE DUP1 DUP4 MSTORE PUSH1 0x1 PUSH1 0x1 PUSH1 0xA0 SHL SUB SWAP1 SWAP4 AND SWAP6 POP SWAP3 SWAP4 SWAP1 SWAP3 SWAP2 SWAP1 DUP4 ADD DUP3 DUP3 DUP1 ISZERO PUSH2 0x3FB JUMPI DUP1 PUSH1 0x1F LT PUSH2 0x3D0 JUMPI PUSH2 0x100 DUP1 DUP4 SLOAD DIV MUL DUP4 MSTORE SWAP2 PUSH1 0x20 ADD SWAP2 PUSH2 0x3FB JUMP JUMPDEST DUP3 ADD SWAP2 SWAP1 PUSH1 0x0 MSTORE PUSH1 0x20 PUSH1 0x0 KECCAK256 SWAP1 JUMPDEST DUP2 SLOAD DUP2 MSTORE SWAP1 PUSH1 0x1 ADD SWAP1 PUSH1 0x20 ADD DUP1 DUP4 GT PUSH2 0x3DE JUMPI DUP3 SWAP1 SUB PUSH1 0x1F AND DUP3 ADD SWAP2 JUMPDEST POP POP POP POP POP SWAP1 POP DUP3 JUMP JUMPDEST PUSH1 0x0 SLOAD JUMPDEST SWAP1 JUMP JUMPDEST PUSH2 0x414 PUSH2 0x54A JUMP JUMPDEST DUP3 DUP2 PUSH1 0x40 ADD DUP2 SWAP1 MSTORE POP PUSH1 0x0 DUP3 PUSH1 0x40 MLOAD PUSH2 0x42C SWAP1 PUSH2 0x574 JUMP JUMPDEST PUSH1 0x20 DUP1 DUP3 MSTORE DUP3 MLOAD DUP2 DUP4 ADD MSTORE DUP3 MLOAD DUP3 SWAP2 PUSH1 0x40 DUP4 ADD SWAP2 DUP6 DUP3 ADD SWAP2 MUL DUP1 DUP4 DUP4 PUSH1 0x0 JUMPDEST DUP4 DUP2 LT ISZERO PUSH2 0x463 JUMPI DUP2 DUP2 ADD MLOAD DUP4 DUP3 ADD MSTORE PUSH1 0x20 ADD PUSH2 0x44B JUMP JUMPDEST POP POP POP POP SWAP1 POP ADD SWAP3 POP POP POP PUSH1 0x40 MLOAD DUP1 SWAP2 SUB SWAP1 PUSH1 0x0 CREATE DUP1 ISZERO DUP1 ISZERO PUSH2 0x48A JUMPI RETURNDATASIZE PUSH1 0x0 DUP1 RETURNDATACOPY RETURNDATASIZE PUSH1 0x0 REVERT JUMPDEST POP PUSH1 0x20 DUP4 DUP2 ADD DUP6 DUP2 MSTORE PUSH1 0x1 PUSH1 0x1 PUSH1 0xA0 SHL SUB DUP4 DUP2 AND DUP7 MSTORE PUSH1 0x0 DUP1 SLOAD PUSH1 0x1 DUP2 ADD DUP3 SSTORE SWAP1 DUP1 MSTORE DUP7 MLOAD PUSH32 0x290DECD9548B62A8D60345A988386FC84BA6BC95484008F6362F93160EF3E563 PUSH1 0x3 SWAP1 SWAP3 MUL SWAP2 DUP3 ADD DUP1 SLOAD PUSH1 0x1 PUSH1 0x1 PUSH1 0xA0 SHL SUB NOT AND SWAP2 SWAP1 SWAP4 AND OR DUP3 SSTORE SWAP2 MLOAD DUP1 MLOAD SWAP5 SWAP6 POP DUP7 SWAP5 SWAP2 SWAP4 PUSH2 0x525 SWAP4 PUSH32 0x290DECD9548B62A8D60345A988386FC84BA6BC95484008F6362F93160EF3E564 ADD SWAP3 SWAP2 ADD SWAP1 PUSH2 0x581 JUMP JUMPDEST POP PUSH1 0x40 DUP3 ADD MLOAD DUP1 MLOAD PUSH2 0x541 SWAP2 PUSH1 0x2 DUP5 ADD SWAP2 PUSH1 0x20 SWAP1 SWAP2 ADD SWAP1 PUSH2 0x5E6 JUMP JUMPDEST POP POP POP POP POP POP POP JUMP JUMPDEST PUSH1 0x40 MLOAD DUP1 PUSH1 0x60 ADD PUSH1 0x40 MSTORE DUP1 PUSH1 0x0 PUSH1 0x1 PUSH1 0x1 PUSH1 0xA0 SHL SUB AND DUP2 MSTORE PUSH1 0x20 ADD PUSH1 0x60 DUP2 MSTORE PUSH1 0x20 ADD PUSH1 0x60 DUP2 MSTORE POP SWAP1 JUMP JUMPDEST PUSH2 0x443F DUP1 PUSH2 0x69F DUP4 CODECOPY ADD SWAP1 JUMP JUMPDEST DUP3 DUP1 SLOAD DUP3 DUP3 SSTORE SWAP1 PUSH1 0x0 MSTORE PUSH1 0x20 PUSH1 0x0 KECCAK256 SWAP1 DUP2 ADD SWAP3 DUP3 ISZERO PUSH2 0x5D6 JUMPI SWAP2 PUSH1 0x20 MUL DUP3 ADD JUMPDEST DUP3 DUP2 GT ISZERO PUSH2 0x5D6 JUMPI DUP3 MLOAD DUP3 SLOAD PUSH1 0x1 PUSH1 0x1 PUSH1 0xA0 SHL SUB NOT AND PUSH1 0x1 PUSH1 0x1 PUSH1 0xA0 SHL SUB SWAP1 SWAP2 AND OR DUP3 SSTORE PUSH1 0x20 SWAP1 SWAP3 ADD SWAP2 PUSH1 0x1 SWAP1 SWAP2 ADD SWAP1 PUSH2 0x5A1 JUMP JUMPDEST POP PUSH2 0x5E2 SWAP3 SWAP2 POP PUSH2 0x660 JUMP JUMPDEST POP SWAP1 JUMP JUMPDEST DUP3 DUP1 SLOAD PUSH1 0x1 DUP2 PUSH1 0x1 AND ISZERO PUSH2 0x100 MUL SUB AND PUSH1 0x2 SWAP1 DIV SWAP1 PUSH1 0x0 MSTORE PUSH1 0x20 PUSH1 0x0 KECCAK256 SWAP1 PUSH1 0x1F ADD PUSH1 0x20 SWAP1 DIV DUP2 ADD SWAP3 DUP3 PUSH1 0x1F LT PUSH2 0x627 JUMPI DUP1 MLOAD PUSH1 0xFF NOT AND DUP4 DUP1 ADD OR DUP6 SSTORE PUSH2 0x654 JUMP JUMPDEST DUP3 DUP1 ADD PUSH1 0x1 ADD DUP6 SSTORE DUP3 ISZERO PUSH2 0x654 JUMPI SWAP2 DUP3 ADD JUMPDEST DUP3 DUP2 GT ISZERO PUSH2 0x654 JUMPI DUP3 MLOAD DUP3 SSTORE SWAP2 PUSH1 0x20 ADD SWAP2 SWAP1 PUSH1 0x1 ADD SWAP1 PUSH2 0x639 JUMP JUMPDEST POP PUSH2 0x5E2 SWAP3 SWAP2 POP PUSH2 0x684 JUMP JUMPDEST PUSH2 0x409 SWAP2 SWAP1 JUMPDEST DUP1 DUP3 GT ISZERO PUSH2 0x5E2 JUMPI DUP1 SLOAD PUSH1 0x1 PUSH1 0x1 PUSH1 0xA0 SHL SUB NOT AND DUP2 SSTORE PUSH1 0x1 ADD PUSH2 0x666 JUMP JUMPDEST PUSH2 0x409 SWAP2 SWAP1 JUMPDEST DUP1 DUP3 GT ISZERO PUSH2 0x5E2 JUMPI PUSH1 0x0 DUP2 SSTORE PUSH1 0x1 ADD PUSH2 0x68A JUMP INVALID PUSH1 0x80 PUSH1 0x40 MSTORE CALLVALUE DUP1 ISZERO PUSH3 0x11 JUMPI PUSH1 0x0 DUP1 REVERT JUMPDEST POP PUSH1 0x40 MLOAD PUSH3 0x443F CODESIZE SUB DUP1 PUSH3 0x443F DUP4 CODECOPY DUP2 DUP2 ADD PUSH1 0x40 MSTORE PUSH1 0x20 DUP2 LT ISZERO PUSH3 0x37 JUMPI PUSH1 0x0 DUP1 REVERT JUMPDEST DUP2 ADD SWAP1 DUP1 DUP1 MLOAD PUSH1 0x40 MLOAD SWAP4 SWAP3 SWAP2 SWAP1 DUP5 PUSH5 0x100000000 DUP3 GT ISZERO PUSH3 0x58 JUMPI PUSH1 0x0 DUP1 REVERT JUMPDEST SWAP1 DUP4 ADD SWAP1 PUSH1 0x20 DUP3 ADD DUP6 DUP2 GT ISZERO PUSH3 0x6E JUMPI PUSH1 0x0 DUP1 REVERT JUMPDEST DUP3 MLOAD DUP7 PUSH1 0x20 DUP3 MUL DUP4 ADD GT PUSH5 0x100000000 DUP3 GT OR ISZERO PUSH3 0x8C JUMPI PUSH1 0x0 DUP1 REVERT JUMPDEST DUP3 MSTORE POP DUP2 MLOAD PUSH1 0x20 SWAP2 DUP3 ADD SWAP3 DUP3 ADD SWAP2 MUL DUP1 DUP4 DUP4 PUSH1 0x0 JUMPDEST DUP4 DUP2 LT ISZERO PUSH3 0xBB JUMPI DUP2 DUP2 ADD MLOAD DUP4 DUP3 ADD MSTORE PUSH1 0x20 ADD PUSH3 0xA1 JUMP JUMPDEST POP POP POP POP SWAP2 SWAP1 SWAP2 ADD PUSH1 0x40 MSTORE POP POP PUSH1 0x0 DUP1 SLOAD PUSH1 0xFF NOT AND DUP2 SSTORE SWAP2 POP POP JUMPDEST DUP2 MLOAD DUP2 PUSH4 0xFFFFFFFF AND LT ISZERO PUSH3 0x22F JUMPI PUSH1 0x0 DUP3 DUP3 PUSH4 0xFFFFFFFF AND DUP2 MLOAD DUP2 LT PUSH3 0xFB JUMPI INVALID JUMPDEST PUSH1 0x20 MUL PUSH1 0x20 ADD ADD MLOAD SWAP1 POP DUP1 PUSH1 0x1 PUSH1 0x1 PUSH1 0xA0 SHL SUB AND PUSH4 0x84AEB694 PUSH1 0x40 MLOAD DUP2 PUSH4 0xFFFFFFFF AND PUSH1 0xE0 SHL DUP2 MSTORE PUSH1 0x4 ADD PUSH1 0x20 PUSH1 0x40 MLOAD DUP1 DUP4 SUB DUP2 DUP7 DUP1 EXTCODESIZE ISZERO DUP1 ISZERO PUSH3 0x13F JUMPI PUSH1 0x0 DUP1 REVERT JUMPDEST POP GAS STATICCALL ISZERO DUP1 ISZERO PUSH3 0x154 JUMPI RETURNDATASIZE PUSH1 0x0 DUP1 RETURNDATACOPY RETURNDATASIZE PUSH1 0x0 REVERT JUMPDEST POP POP POP POP PUSH1 0x40 MLOAD RETURNDATASIZE PUSH1 0x20 DUP2 LT ISZERO PUSH3 0x16B JUMPI PUSH1 0x0 DUP1 REVERT JUMPDEST POP MLOAD PUSH3 0x177 JUMPI PUSH1 0x0 DUP1 REVERT JUMPDEST PUSH1 0x1 PUSH1 0xC PUSH1 0x0 DUP6 DUP6 PUSH4 0xFFFFFFFF AND DUP2 MLOAD DUP2 LT PUSH3 0x190 JUMPI INVALID JUMPDEST PUSH1 0x20 MUL PUSH1 0x20 ADD ADD MLOAD PUSH1 0x1 PUSH1 0x1 PUSH1 0xA0 SHL SUB AND PUSH1 0x1 PUSH1 0x1 PUSH1 0xA0 SHL SUB AND DUP2 MSTORE PUSH1 0x20 ADD SWAP1 DUP2 MSTORE PUSH1 0x20 ADD PUSH1 0x0 KECCAK256 PUSH1 0x0 PUSH2 0x100 EXP DUP2 SLOAD DUP2 PUSH1 0xFF MUL NOT AND SWAP1 DUP4 ISZERO ISZERO MUL OR SWAP1 SSTORE POP PUSH1 0xD DUP4 DUP4 PUSH4 0xFFFFFFFF AND DUP2 MLOAD DUP2 LT PUSH3 0x1E4 JUMPI INVALID JUMPDEST PUSH1 0x20 SWAP1 DUP2 MUL SWAP2 SWAP1 SWAP2 ADD DUP2 ADD MLOAD DUP3 SLOAD PUSH1 0x1 DUP1 DUP3 ADD DUP6 SSTORE PUSH1 0x0 SWAP5 DUP6 MSTORE SWAP3 SWAP1 SWAP4 KECCAK256 SWAP1 SWAP3 ADD DUP1 SLOAD PUSH1 0x1 PUSH1 0x1 PUSH1 0xA0 SHL SUB NOT AND PUSH1 0x1 PUSH1 0x1 PUSH1 0xA0 SHL SUB SWAP1 SWAP4 AND SWAP3 SWAP1 SWAP3 OR SWAP1 SWAP2 SSTORE SWAP2 SWAP1 SWAP2 ADD SWAP1 POP PUSH3 0xD6 JUMP JUMPDEST POP POP PUSH2 0x41FE DUP1 PUSH3 0x241 PUSH1 0x0 CODECOPY PUSH1 0x0 RETURN INVALID PUSH1 0x80 PUSH1 0x40 MSTORE CALLVALUE DUP1 ISZERO PUSH2 0x10 JUMPI PUSH1 0x0 DUP1 REVERT JUMPDEST POP PUSH1 0x4 CALLDATASIZE LT PUSH2 0x248 JUMPI PUSH1 0x0 CALLDATALOAD PUSH1 0xE0 SHR DUP1 PUSH4 0x84AEB694 GT PUSH2 0x13B JUMPI DUP1 PUSH4 0xC09BC35B GT PUSH2 0xB8 JUMPI DUP1 PUSH4 0xE29E9290 GT PUSH2 0x7C JUMPI DUP1 PUSH4 0xE29E9290 EQ PUSH2 0x13DA JUMPI DUP1 PUSH4 0xE9DFF3B4 EQ PUSH2 0x140C JUMPI DUP1 PUSH4 0xF10F731C EQ PUSH2 0x1414 JUMPI DUP1 PUSH4 0xF396B51F EQ PUSH2 0x1555 JUMPI DUP1 PUSH4 0xFC2A8EFA EQ PUSH2 0x157B JUMPI PUSH2 0x248 JUMP JUMPDEST DUP1 PUSH4 0xC09BC35B EQ PUSH2 0x12ED JUMPI DUP1 PUSH4 0xCF6AE528 EQ PUSH2 0x135B JUMPI DUP1 PUSH4 0xD027A93E EQ PUSH2 0x1381 JUMPI DUP1 PUSH4 0xDB406597 EQ PUSH2 0x1389 JUMPI DUP1 PUSH4 0xE24E7912 EQ PUSH2 0x13AF JUMPI PUSH2 0x248 JUMP JUMPDEST DUP1 PUSH4 0x9169B323 GT PUSH2 0xFF JUMPI DUP1 PUSH4 0x9169B323 EQ PUSH2 0x1063 JUMPI DUP1 PUSH4 0x928EC3E5 EQ PUSH2 0x1135 JUMPI DUP1 PUSH4 0xA1A298DA EQ PUSH2 0x11F9 JUMPI DUP1 PUSH4 0xA63DE8CF EQ PUSH2 0x121C JUMPI DUP1 PUSH4 0xA7ED5603 EQ PUSH2 0x1239 JUMPI PUSH2 0x248 JUMP JUMPDEST DUP1 PUSH4 0x84AEB694 EQ PUSH2 0xD30 JUMPI DUP1 PUSH4 0x88A6712F EQ PUSH2 0xD38 JUMPI DUP1 PUSH4 0x8C162152 EQ PUSH2 0xE71 JUMPI DUP1 PUSH4 0x8CBA76B1 EQ PUSH2 0x864 JUMPI DUP1 PUSH4 0x8E636514 EQ PUSH2 0x1031 JUMPI PUSH2 0x248 JUMP JUMPDEST DUP1 PUSH4 0x359589AC GT PUSH2 0x1C9 JUMPI DUP1 PUSH4 0x6EECAC58 GT PUSH2 0x18D JUMPI DUP1 PUSH4 0x6EECAC58 EQ PUSH2 0xACD JUMPI DUP1 PUSH4 0x7065CB48 EQ PUSH2 0xC06 JUMPI DUP1 PUSH4 0x834FDE34 EQ PUSH2 0xC2C JUMPI DUP1 PUSH4 0x838EBD85 EQ PUSH2 0xC4F JUMPI DUP1 PUSH4 0x847B5257 EQ PUSH2 0xC72 JUMPI PUSH2 0x248 JUMP JUMPDEST DUP1 PUSH4 0x359589AC EQ PUSH2 0x9BA JUMPI DUP1 PUSH4 0x4D981CF7 EQ PUSH2 0x9E6 JUMPI DUP1 PUSH4 0x4F2BCBEF EQ PUSH2 0x9EE JUMPI DUP1 PUSH4 0x4F51433D EQ PUSH2 0xA11 JUMPI DUP1 PUSH4 0x6B31C5F1 EQ PUSH2 0xA19 JUMPI PUSH2 0x248 JUMP JUMPDEST DUP1 PUSH4 0x24F416D6 GT PUSH2 0x210 JUMPI DUP1 PUSH4 0x24F416D6 EQ PUSH2 0x594 JUMPI DUP1 PUSH4 0x2A4541D4 EQ PUSH2 0x648 JUMPI DUP1 PUSH4 0x2F54BF6E EQ PUSH2 0x82A JUMPI DUP1 PUSH4 0x30699892 EQ PUSH2 0x864 JUMPI DUP1 PUSH4 0x3296E5CA EQ PUSH2 0x99D JUMPI PUSH2 0x248 JUMP JUMPDEST DUP1 PUSH4 0x25E7C27 EQ PUSH2 0x24D JUMPI DUP1 PUSH4 0x8AC733A EQ PUSH2 0x286 JUMPI DUP1 PUSH4 0xF121925 EQ PUSH2 0x3AF JUMPI DUP1 PUSH4 0x17361084 EQ PUSH2 0x4B8 JUMPI DUP1 PUSH4 0x173825D9 EQ PUSH2 0x56C JUMPI JUMPDEST PUSH1 0x0 DUP1 REVERT JUMPDEST PUSH2 0x26A PUSH1 0x4 DUP1 CALLDATASIZE SUB PUSH1 0x20 DUP2 LT ISZERO PUSH2 0x263 JUMPI PUSH1 0x0 DUP1 REVERT JUMPDEST POP CALLDATALOAD PUSH2 0x16AC JUMP JUMPDEST PUSH1 0x40 DUP1 MLOAD PUSH1 0x1 PUSH1 0x1 PUSH1 0xA0 SHL SUB SWAP1 SWAP3 AND DUP3 MSTORE MLOAD SWAP1 DUP2 SWAP1 SUB PUSH1 0x20 ADD SWAP1 RETURN JUMPDEST PUSH2 0x33A PUSH1 0x4 DUP1 CALLDATASIZE SUB PUSH1 0x40 DUP2 LT ISZERO PUSH2 0x29C JUMPI PUSH1 0x0 DUP1 REVERT JUMPDEST PUSH1 0x1 PUSH1 0x1 PUSH1 0xA0 SHL SUB DUP3 CALLDATALOAD AND SWAP2 SWAP1 DUP2 ADD SWAP1 PUSH1 0x40 DUP2 ADD PUSH1 0x20 DUP3 ADD CALLDATALOAD PUSH1 0x1 PUSH1 0x20 SHL DUP2 GT ISZERO PUSH2 0x2C6 JUMPI PUSH1 0x0 DUP1 REVERT JUMPDEST DUP3 ADD DUP4 PUSH1 0x20 DUP3 ADD GT ISZERO PUSH2 0x2D8 JUMPI PUSH1 0x0 DUP1 REVERT JUMPDEST DUP1 CALLDATALOAD SWAP1 PUSH1 0x20 ADD SWAP2 DUP5 PUSH1 0x1 DUP4 MUL DUP5 ADD GT PUSH1 0x1 PUSH1 0x20 SHL DUP4 GT OR ISZERO PUSH2 0x2F9 JUMPI PUSH1 0x0 DUP1 REVERT JUMPDEST SWAP2 SWAP1 DUP1 DUP1 PUSH1 0x1F ADD PUSH1 0x20 DUP1 SWAP2 DIV MUL PUSH1 0x20 ADD PUSH1 0x40 MLOAD SWAP1 DUP2 ADD PUSH1 0x40 MSTORE DUP1 SWAP4 SWAP3 SWAP2 SWAP1 DUP2 DUP2 MSTORE PUSH1 0x20 ADD DUP4 DUP4 DUP1 DUP3 DUP5 CALLDATACOPY PUSH1 0x0 SWAP3 ADD SWAP2 SWAP1 SWAP2 MSTORE POP SWAP3 SWAP6 POP PUSH2 0x16D3 SWAP5 POP POP POP POP POP JUMP JUMPDEST PUSH1 0x40 DUP1 MLOAD PUSH1 0x20 DUP1 DUP3 MSTORE DUP4 MLOAD DUP2 DUP4 ADD MSTORE DUP4 MLOAD SWAP2 SWAP3 DUP4 SWAP3 SWAP1 DUP4 ADD SWAP2 DUP6 ADD SWAP1 DUP1 DUP4 DUP4 PUSH1 0x0 JUMPDEST DUP4 DUP2 LT ISZERO PUSH2 0x374 JUMPI DUP2 DUP2 ADD MLOAD DUP4 DUP3 ADD MSTORE PUSH1 0x20 ADD PUSH2 0x35C JUMP JUMPDEST POP POP POP POP SWAP1 POP SWAP1 DUP2 ADD SWAP1 PUSH1 0x1F AND DUP1 ISZERO PUSH2 0x3A1 JUMPI DUP1 DUP3 SUB DUP1 MLOAD PUSH1 0x1 DUP4 PUSH1 0x20 SUB PUSH2 0x100 EXP SUB NOT AND DUP2 MSTORE PUSH1 0x20 ADD SWAP2 POP JUMPDEST POP SWAP3 POP POP POP PUSH1 0x40 MLOAD DUP1 SWAP2 SUB SWAP1 RETURN JUMPDEST PUSH2 0x3DA PUSH1 0x4 DUP1 CALLDATASIZE SUB PUSH1 0x40 DUP2 LT ISZERO PUSH2 0x3C5 JUMPI PUSH1 0x0 DUP1 REVERT JUMPDEST POP PUSH4 0xFFFFFFFF DUP2 CALLDATALOAD DUP2 AND SWAP2 PUSH1 0x20 ADD CALLDATALOAD AND PUSH2 0x17EE JUMP JUMPDEST PUSH1 0x40 MLOAD DUP1 DUP1 PUSH1 0x20 ADD DUP1 PUSH1 0x20 ADD DUP4 DUP2 SUB DUP4 MSTORE DUP6 DUP2 DUP2 MLOAD DUP2 MSTORE PUSH1 0x20 ADD SWAP2 POP DUP1 MLOAD SWAP1 PUSH1 0x20 ADD SWAP1 DUP1 DUP4 DUP4 PUSH1 0x0 JUMPDEST DUP4 DUP2 LT ISZERO PUSH2 0x41B JUMPI DUP2 DUP2 ADD MLOAD DUP4 DUP3 ADD MSTORE PUSH1 0x20 ADD PUSH2 0x403 JUMP JUMPDEST POP POP POP POP SWAP1 POP SWAP1 DUP2 ADD SWAP1 PUSH1 0x1F AND DUP1 ISZERO PUSH2 0x448 JUMPI DUP1 DUP3 SUB DUP1 MLOAD PUSH1 0x1 DUP4 PUSH1 0x20 SUB PUSH2 0x100 EXP SUB NOT AND DUP2 MSTORE PUSH1 0x20 ADD SWAP2 POP JUMPDEST POP DUP4 DUP2 SUB DUP3 MSTORE DUP5 MLOAD DUP2 MSTORE DUP5 MLOAD PUSH1 0x20 SWAP2 DUP3 ADD SWAP2 DUP7 ADD SWAP1 DUP1 DUP4 DUP4 PUSH1 0x0 JUMPDEST DUP4 DUP2 LT ISZERO PUSH2 0x47B JUMPI DUP2 DUP2 ADD MLOAD DUP4 DUP3 ADD MSTORE PUSH1 0x20 ADD PUSH2 0x463 JUMP JUMPDEST POP POP POP POP SWAP1 POP SWAP1 DUP2 ADD SWAP1 PUSH1 0x1F AND DUP1 ISZERO PUSH2 0x4A8 JUMPI DUP1 DUP3 SUB DUP1 MLOAD PUSH1 0x1 DUP4 PUSH1 0x20 SUB PUSH2 0x100 EXP SUB NOT AND DUP2 MSTORE PUSH1 0x20 ADD SWAP2 POP JUMPDEST POP SWAP5 POP POP POP POP POP PUSH1 0x40 MLOAD DUP1 SWAP2 SUB SWAP1 RETURN JUMPDEST PUSH2 0x33A PUSH1 0x4 DUP1 CALLDATASIZE SUB PUSH1 0x40 DUP2 LT ISZERO PUSH2 0x4CE JUMPI PUSH1 0x0 DUP1 REVERT JUMPDEST PUSH1 0x1 PUSH1 0x1 PUSH1 0xA0 SHL SUB DUP3 CALLDATALOAD AND SWAP2 SWAP1 DUP2 ADD SWAP1 PUSH1 0x40 DUP2 ADD PUSH1 0x20 DUP3 ADD CALLDATALOAD PUSH1 0x1 PUSH1 0x20 SHL DUP2 GT ISZERO PUSH2 0x4F8 JUMPI PUSH1 0x0 DUP1 REVERT JUMPDEST DUP3 ADD DUP4 PUSH1 0x20 DUP3 ADD GT ISZERO PUSH2 0x50A JUMPI PUSH1 0x0 DUP1 REVERT JUMPDEST DUP1 CALLDATALOAD SWAP1 PUSH1 0x20 ADD SWAP2 DUP5 PUSH1 0x1 DUP4 MUL DUP5 ADD GT PUSH1 0x1 PUSH1 0x20 SHL DUP4 GT OR ISZERO PUSH2 0x52B JUMPI PUSH1 0x0 DUP1 REVERT JUMPDEST SWAP2 SWAP1 DUP1 DUP1 PUSH1 0x1F ADD PUSH1 0x20 DUP1 SWAP2 DIV MUL PUSH1 0x20 ADD PUSH1 0x40 MLOAD SWAP1 DUP2 ADD PUSH1 0x40 MSTORE DUP1 SWAP4 SWAP3 SWAP2 SWAP1 DUP2 DUP2 MSTORE PUSH1 0x20 ADD DUP4 DUP4 DUP1 DUP3 DUP5 CALLDATACOPY PUSH1 0x0 SWAP3 ADD SWAP2 SWAP1 SWAP2 MSTORE POP SWAP3 SWAP6 POP PUSH2 0x1999 SWAP5 POP POP POP POP POP JUMP JUMPDEST PUSH2 0x592 PUSH1 0x4 DUP1 CALLDATASIZE SUB PUSH1 0x20 DUP2 LT ISZERO PUSH2 0x582 JUMPI PUSH1 0x0 DUP1 REVERT JUMPDEST POP CALLDATALOAD PUSH1 0x1 PUSH1 0x1 PUSH1 0xA0 SHL SUB AND PUSH2 0x1A52 JUMP JUMPDEST STOP JUMPDEST PUSH2 0x33A PUSH1 0x4 DUP1 CALLDATASIZE SUB PUSH1 0x40 DUP2 LT ISZERO PUSH2 0x5AA JUMPI PUSH1 0x0 DUP1 REVERT JUMPDEST PUSH1 0x1 PUSH1 0x1 PUSH1 0xA0 SHL SUB DUP3 CALLDATALOAD AND SWAP2 SWAP1 DUP2 ADD SWAP1 PUSH1 0x40 DUP2 ADD PUSH1 0x20 DUP3 ADD CALLDATALOAD PUSH1 0x1 PUSH1 0x20 SHL DUP2 GT ISZERO PUSH2 0x5D4 JUMPI PUSH1 0x0 DUP1 REVERT JUMPDEST DUP3 ADD DUP4 PUSH1 0x20 DUP3 ADD GT ISZERO PUSH2 0x5E6 JUMPI PUSH1 0x0 DUP1 REVERT JUMPDEST DUP1 CALLDATALOAD SWAP1 PUSH1 0x20 ADD SWAP2 DUP5 PUSH1 0x1 DUP4 MUL DUP5 ADD GT PUSH1 0x1 PUSH1 0x20 SHL DUP4 GT OR ISZERO PUSH2 0x607 JUMPI PUSH1 0x0 DUP1 REVERT JUMPDEST SWAP2 SWAP1 DUP1 DUP1 PUSH1 0x1F ADD PUSH1 0x20 DUP1 SWAP2 DIV MUL PUSH1 0x20 ADD PUSH1 0x40 MLOAD SWAP1 DUP2 ADD PUSH1 0x40 MSTORE DUP1 SWAP4 SWAP3 SWAP2 SWAP1 DUP2 DUP2 MSTORE PUSH1 0x20 ADD DUP4 DUP4 DUP1 DUP3 DUP5 CALLDATACOPY PUSH1 0x0 SWAP3 ADD SWAP2 SWAP1 SWAP2 MSTORE POP SWAP3 SWAP6 POP PUSH2 0x1BBC SWAP5 POP POP POP POP POP JUMP JUMPDEST PUSH2 0x811 PUSH1 0x4 DUP1 CALLDATASIZE SUB PUSH1 0xC0 DUP2 LT ISZERO PUSH2 0x65E JUMPI PUSH1 0x0 DUP1 REVERT JUMPDEST PUSH1 0x1 PUSH1 0x1 PUSH1 0xA0 SHL SUB DUP3 CALLDATALOAD DUP2 AND SWAP3 PUSH1 0x20 DUP2 ADD CALLDATALOAD SWAP1 SWAP2 AND SWAP2 DUP2 ADD SWAP1 PUSH1 0x60 DUP2 ADD PUSH1 0x40 DUP3 ADD CALLDATALOAD PUSH1 0x1 PUSH1 0x20 SHL DUP2 GT ISZERO PUSH2 0x691 JUMPI PUSH1 0x0 DUP1 REVERT JUMPDEST DUP3 ADD DUP4 PUSH1 0x20 DUP3 ADD GT ISZERO PUSH2 0x6A3 JUMPI PUSH1 0x0 DUP1 REVERT JUMPDEST DUP1 CALLDATALOAD SWAP1 PUSH1 0x20 ADD SWAP2 DUP5 PUSH1 0x1 DUP4 MUL DUP5 ADD GT PUSH1 0x1 PUSH1 0x20 SHL DUP4 GT OR ISZERO PUSH2 0x6C4 JUMPI PUSH1 0x0 DUP1 REVERT JUMPDEST SWAP2 SWAP1 DUP1 DUP1 PUSH1 0x1F ADD PUSH1 0x20 DUP1 SWAP2 DIV MUL PUSH1 0x20 ADD PUSH1 0x40 MLOAD SWAP1 DUP2 ADD PUSH1 0x40 MSTORE DUP1 SWAP4 SWAP3 SWAP2 SWAP1 DUP2 DUP2 MSTORE PUSH1 0x20 ADD DUP4 DUP4 DUP1 DUP3 DUP5 CALLDATACOPY PUSH1 0x0 SWAP3 ADD SWAP2 SWAP1 SWAP2 MSTORE POP SWAP3 SWAP6 SWAP5 SWAP4 PUSH1 0x20 DUP2 ADD SWAP4 POP CALLDATALOAD SWAP2 POP POP PUSH1 0x1 PUSH1 0x20 SHL DUP2 GT ISZERO PUSH2 0x716 JUMPI PUSH1 0x0 DUP1 REVERT JUMPDEST DUP3 ADD DUP4 PUSH1 0x20 DUP3 ADD GT ISZERO PUSH2 0x728 JUMPI PUSH1 0x0 DUP1 REVERT JUMPDEST DUP1 CALLDATALOAD SWAP1 PUSH1 0x20 ADD SWAP2 DUP5 PUSH1 0x1 DUP4 MUL DUP5 ADD GT PUSH1 0x1 PUSH1 0x20 SHL DUP4 GT OR ISZERO PUSH2 0x749 JUMPI PUSH1 0x0 DUP1 REVERT JUMPDEST SWAP2 SWAP1 DUP1 DUP1 PUSH1 0x1F ADD PUSH1 0x20 DUP1 SWAP2 DIV MUL PUSH1 0x20 ADD PUSH1 0x40 MLOAD SWAP1 DUP2 ADD PUSH1 0x40 MSTORE DUP1 SWAP4 SWAP3 SWAP2 SWAP1 DUP2 DUP2 MSTORE PUSH1 0x20 ADD DUP4 DUP4 DUP1 DUP3 DUP5 CALLDATACOPY PUSH1 0x0 SWAP3 ADD SWAP2 SWAP1 SWAP2 MSTORE POP SWAP3 SWAP6 SWAP5 SWAP4 PUSH1 0x20 DUP2 ADD SWAP4 POP CALLDATALOAD SWAP2 POP POP PUSH1 0x1 PUSH1 0x20 SHL DUP2 GT ISZERO PUSH2 0x79B JUMPI PUSH1 0x0 DUP1 REVERT JUMPDEST DUP3 ADD DUP4 PUSH1 0x20 DUP3 ADD GT ISZERO PUSH2 0x7AD JUMPI PUSH1 0x0 DUP1 REVERT JUMPDEST DUP1 CALLDATALOAD SWAP1 PUSH1 0x20 ADD SWAP2 DUP5 PUSH1 0x1 DUP4 MUL DUP5 ADD GT PUSH1 0x1 PUSH1 0x20 SHL DUP4 GT OR ISZERO PUSH2 0x7CE JUMPI PUSH1 0x0 DUP1 REVERT JUMPDEST SWAP2 SWAP1 DUP1 DUP1 PUSH1 0x1F ADD PUSH1 0x20 DUP1 SWAP2 DIV MUL PUSH1 0x20 ADD PUSH1 0x40 MLOAD SWAP1 DUP2 ADD PUSH1 0x40 MSTORE DUP1 SWAP4 SWAP3 SWAP2 SWAP1 DUP2 DUP2 MSTORE PUSH1 0x20 ADD DUP4 DUP4 DUP1 DUP3 DUP5 CALLDATACOPY PUSH1 0x0 SWAP3 ADD SWAP2 SWAP1 SWAP2 MSTORE POP SWAP3 SWAP6 POP POP POP POP CALLDATALOAD ISZERO ISZERO SWAP1 POP PUSH2 0x1C6E JUMP JUMPDEST PUSH1 0x40 DUP1 MLOAD PUSH4 0xFFFFFFFF SWAP1 SWAP3 AND DUP3 MSTORE MLOAD SWAP1 DUP2 SWAP1 SUB PUSH1 0x20 ADD SWAP1 RETURN JUMPDEST PUSH2 0x850 PUSH1 0x4 DUP1 CALLDATASIZE SUB PUSH1 0x20 DUP2 LT ISZERO PUSH2 0x840 JUMPI PUSH1 0x0 DUP1 REVERT JUMPDEST POP CALLDATALOAD PUSH1 0x1 PUSH1 0x1 PUSH1 0xA0 SHL SUB AND PUSH2 0x1E4E JUMP JUMPDEST PUSH1 0x40 DUP1 MLOAD SWAP2 ISZERO ISZERO DUP3 MSTORE MLOAD SWAP1 DUP2 SWAP1 SUB PUSH1 0x20 ADD SWAP1 RETURN JUMPDEST PUSH2 0x33A PUSH1 0x4 DUP1 CALLDATASIZE SUB PUSH1 0x60 DUP2 LT ISZERO PUSH2 0x87A JUMPI PUSH1 0x0 DUP1 REVERT JUMPDEST PUSH1 0x1 PUSH1 0x1 PUSH1 0xA0 SHL SUB DUP3 CALLDATALOAD AND SWAP2 SWAP1 DUP2 ADD SWAP1 PUSH1 0x40 DUP2 ADD PUSH1 0x20 DUP3 ADD CALLDATALOAD PUSH1 0x1 PUSH1 0x20 SHL DUP2 GT ISZERO PUSH2 0x8A4 JUMPI PUSH1 0x0 DUP1 REVERT JUMPDEST DUP3 ADD DUP4 PUSH1 0x20 DUP3 ADD GT ISZERO PUSH2 0x8B6 JUMPI PUSH1 0x0 DUP1 REVERT JUMPDEST DUP1 CALLDATALOAD SWAP1 PUSH1 0x20 ADD SWAP2 DUP5 PUSH1 0x1 DUP4 MUL DUP5 ADD GT PUSH1 0x1 PUSH1 0x20 SHL DUP4 GT OR ISZERO PUSH2 0x8D7 JUMPI PUSH1 0x0 DUP1 REVERT JUMPDEST SWAP2 SWAP1 DUP1 DUP1 PUSH1 0x1F ADD PUSH1 0x20 DUP1 SWAP2 DIV MUL PUSH1 0x20 ADD PUSH1 0x40 MLOAD SWAP1 DUP2 ADD PUSH1 0x40 MSTORE DUP1 SWAP4 SWAP3 SWAP2 SWAP1 DUP2 DUP2 MSTORE PUSH1 0x20 ADD DUP4 DUP4 DUP1 DUP3 DUP5 CALLDATACOPY PUSH1 0x0 SWAP3 ADD SWAP2 SWAP1 SWAP2 MSTORE POP SWAP3 SWAP6 SWAP5 SWAP4 PUSH1 0x20 DUP2 ADD SWAP4 POP CALLDATALOAD SWAP2 POP POP PUSH1 0x1 PUSH1 0x20 SHL DUP2 GT ISZERO PUSH2 0x929 JUMPI PUSH1 0x0 DUP1 REVERT JUMPDEST DUP3 ADD DUP4 PUSH1 0x20 DUP3 ADD GT ISZERO PUSH2 0x93B JUMPI PUSH1 0x0 DUP1 REVERT JUMPDEST DUP1 CALLDATALOAD SWAP1 PUSH1 0x20 ADD SWAP2 DUP5 PUSH1 0x1 DUP4 MUL DUP5 ADD GT PUSH1 0x1 PUSH1 0x20 SHL DUP4 GT OR ISZERO PUSH2 0x95C JUMPI PUSH1 0x0 DUP1 REVERT JUMPDEST SWAP2 SWAP1 DUP1 DUP1 PUSH1 0x1F ADD PUSH1 0x20 DUP1 SWAP2 DIV MUL PUSH1 0x20 ADD PUSH1 0x40 MLOAD SWAP1 DUP2 ADD PUSH1 0x40 MSTORE DUP1 SWAP4 SWAP3 SWAP2 SWAP1 DUP2 DUP2 MSTORE PUSH1 0x20 ADD DUP4 DUP4 DUP1 DUP3 DUP5 CALLDATACOPY PUSH1 0x0 SWAP3 ADD SWAP2 SWAP1 SWAP2 MSTORE POP SWAP3 SWAP6 POP PUSH2 0x1E63 SWAP5 POP POP POP POP POP JUMP JUMPDEST PUSH2 0x26A PUSH1 0x4 DUP1 CALLDATASIZE SUB PUSH1 0x20 DUP2 LT ISZERO PUSH2 0x9B3 JUMPI PUSH1 0x0 DUP1 REVERT JUMPDEST POP CALLDATALOAD PUSH2 0x1FD8 JUMP JUMPDEST PUSH2 0x33A PUSH1 0x4 DUP1 CALLDATASIZE SUB PUSH1 0x40 DUP2 LT ISZERO PUSH2 0x9D0 JUMPI PUSH1 0x0 DUP1 REVERT JUMPDEST POP PUSH1 0x1 PUSH1 0x1 PUSH1 0xA0 SHL SUB DUP2 CALLDATALOAD AND SWAP1 PUSH1 0x20 ADD CALLDATALOAD PUSH2 0x1FE5 JUMP JUMPDEST PUSH2 0x811 PUSH2 0x2066 JUMP JUMPDEST PUSH2 0x592 PUSH1 0x4 DUP1 CALLDATASIZE SUB PUSH1 0x20 DUP2 LT ISZERO PUSH2 0xA04 JUMPI PUSH1 0x0 DUP1 REVERT JUMPDEST POP CALLDATALOAD PUSH4 0xFFFFFFFF AND PUSH2 0x206D JUMP JUMPDEST PUSH2 0x811 PUSH2 0x2175 JUMP JUMPDEST PUSH2 0x33A PUSH1 0x4 DUP1 CALLDATASIZE SUB PUSH1 0x40 DUP2 LT ISZERO PUSH2 0xA2F JUMPI PUSH1 0x0 DUP1 REVERT JUMPDEST PUSH1 0x1 PUSH1 0x1 PUSH1 0xA0 SHL SUB DUP3 CALLDATALOAD AND SWAP2 SWAP1 DUP2 ADD SWAP1 PUSH1 0x40 DUP2 ADD PUSH1 0x20 DUP3 ADD CALLDATALOAD PUSH1 0x1 PUSH1 0x20 SHL DUP2 GT ISZERO PUSH2 0xA59 JUMPI PUSH1 0x0 DUP1 REVERT JUMPDEST DUP3 ADD DUP4 PUSH1 0x20 DUP3 ADD GT ISZERO PUSH2 0xA6B JUMPI PUSH1 0x0 DUP1 REVERT JUMPDEST DUP1 CALLDATALOAD SWAP1 PUSH1 0x20 ADD SWAP2 DUP5 PUSH1 0x1 DUP4 MUL DUP5 ADD GT PUSH1 0x1 PUSH1 0x20 SHL DUP4 GT OR ISZERO PUSH2 0xA8C JUMPI PUSH1 0x0 DUP1 REVERT JUMPDEST SWAP2 SWAP1 DUP1 DUP1 PUSH1 0x1F ADD PUSH1 0x20 DUP1 SWAP2 DIV MUL PUSH1 0x20 ADD PUSH1 0x40 MLOAD SWAP1 DUP2 ADD PUSH1 0x40 MSTORE DUP1 SWAP4 SWAP3 SWAP2 SWAP1 DUP2 DUP2 MSTORE PUSH1 0x20 ADD DUP4 DUP4 DUP1 DUP3 DUP5 CALLDATACOPY PUSH1 0x0 SWAP3 ADD SWAP2 SWAP1 SWAP2 MSTORE POP SWAP3 SWAP6 POP PUSH2 0x217B SWAP5 POP POP POP POP POP JUMP JUMPDEST PUSH2 0x592 PUSH1 0x4 DUP1 CALLDATASIZE SUB PUSH1 0x60 DUP2 LT ISZERO PUSH2 0xAE3 JUMPI PUSH1 0x0 DUP1 REVERT JUMPDEST PUSH1 0x1 PUSH1 0x1 PUSH1 0xA0 SHL SUB DUP3 CALLDATALOAD AND SWAP2 SWAP1 DUP2 ADD SWAP1 PUSH1 0x40 DUP2 ADD PUSH1 0x20 DUP3 ADD CALLDATALOAD PUSH1 0x1 PUSH1 0x20 SHL DUP2 GT ISZERO PUSH2 0xB0D JUMPI PUSH1 0x0 DUP1 REVERT JUMPDEST DUP3 ADD DUP4 PUSH1 0x20 DUP3 ADD GT ISZERO PUSH2 0xB1F JUMPI PUSH1 0x0 DUP1 REVERT JUMPDEST DUP1 CALLDATALOAD SWAP1 PUSH1 0x20 ADD SWAP2 DUP5 PUSH1 0x1 DUP4 MUL DUP5 ADD GT PUSH1 0x1 PUSH1 0x20 SHL DUP4 GT OR ISZERO PUSH2 0xB40 JUMPI PUSH1 0x0 DUP1 REVERT JUMPDEST SWAP2 SWAP1 DUP1 DUP1 PUSH1 0x1F ADD PUSH1 0x20 DUP1 SWAP2 DIV MUL PUSH1 0x20 ADD PUSH1 0x40 MLOAD SWAP1 DUP2 ADD PUSH1 0x40 MSTORE DUP1 SWAP4 SWAP3 SWAP2 SWAP1 DUP2 DUP2 MSTORE PUSH1 0x20 ADD DUP4 DUP4 DUP1 DUP3 DUP5 CALLDATACOPY PUSH1 0x0 SWAP3 ADD SWAP2 SWAP1 SWAP2 MSTORE POP SWAP3 SWAP6 SWAP5 SWAP4 PUSH1 0x20 DUP2 ADD SWAP4 POP CALLDATALOAD SWAP2 POP POP PUSH1 0x1 PUSH1 0x20 SHL DUP2 GT ISZERO PUSH2 0xB92 JUMPI PUSH1 0x0 DUP1 REVERT JUMPDEST DUP3 ADD DUP4 PUSH1 0x20 DUP3 ADD GT ISZERO PUSH2 0xBA4 JUMPI PUSH1 0x0 DUP1 REVERT JUMPDEST DUP1 CALLDATALOAD SWAP1 PUSH1 0x20 ADD SWAP2 DUP5 PUSH1 0x1 DUP4 MUL DUP5 ADD GT PUSH1 0x1 PUSH1 0x20 SHL DUP4 GT OR ISZERO PUSH2 0xBC5 JUMPI PUSH1 0x0 DUP1 REVERT JUMPDEST SWAP2 SWAP1 DUP1 DUP1 PUSH1 0x1F ADD PUSH1 0x20 DUP1 SWAP2 DIV MUL PUSH1 0x20 ADD PUSH1 0x40 MLOAD SWAP1 DUP2 ADD PUSH1 0x40 MSTORE DUP1 SWAP4 SWAP3 SWAP2 SWAP1 DUP2 DUP2 MSTORE PUSH1 0x20 ADD DUP4 DUP4 DUP1 DUP3 DUP5 CALLDATACOPY PUSH1 0x0 SWAP3 ADD SWAP2 SWAP1 SWAP2 MSTORE POP SWAP3 SWAP6 POP PUSH2 0x21FA SWAP5 POP POP POP POP POP JUMP JUMPDEST PUSH2 0x592 PUSH1 0x4 DUP1 CALLDATASIZE SUB PUSH1 0x20 DUP2 LT ISZERO PUSH2 0xC1C JUMPI PUSH1 0x0 DUP1 REVERT JUMPDEST POP CALLDATALOAD PUSH1 0x1 PUSH1 0x1 PUSH1 0xA0 SHL SUB AND PUSH2 0x2348 JUMP JUMPDEST PUSH2 0x811 PUSH1 0x4 DUP1 CALLDATASIZE SUB PUSH1 0x20 DUP2 LT ISZERO PUSH2 0xC42 JUMPI PUSH1 0x0 DUP1 REVERT JUMPDEST POP CALLDATALOAD PUSH4 0xFFFFFFFF AND PUSH2 0x23DF JUMP JUMPDEST PUSH2 0x592 PUSH1 0x4 DUP1 CALLDATASIZE SUB PUSH1 0x20 DUP2 LT ISZERO PUSH2 0xC65 JUMPI PUSH1 0x0 DUP1 REVERT JUMPDEST POP CALLDATALOAD PUSH4 0xFFFFFFFF AND PUSH2 0x240E JUMP JUMPDEST PUSH2 0x592 PUSH1 0x4 DUP1 CALLDATASIZE SUB PUSH1 0x40 DUP2 LT ISZERO PUSH2 0xC88 JUMPI PUSH1 0x0 DUP1 REVERT JUMPDEST DUP2 ADD SWAP1 PUSH1 0x20 DUP2 ADD DUP2 CALLDATALOAD PUSH1 0x1 PUSH1 0x20 SHL DUP2 GT ISZERO PUSH2 0xCA2 JUMPI PUSH1 0x0 DUP1 REVERT JUMPDEST DUP3 ADD DUP4 PUSH1 0x20 DUP3 ADD GT ISZERO PUSH2 0xCB4 JUMPI PUSH1 0x0 DUP1 REVERT JUMPDEST DUP1 CALLDATALOAD SWAP1 PUSH1 0x20 ADD SWAP2 DUP5 PUSH1 0x1 DUP4 MUL DUP5 ADD GT PUSH1 0x1 PUSH1 0x20 SHL DUP4 GT OR ISZERO PUSH2 0xCD5 JUMPI PUSH1 0x0 DUP1 REVERT JUMPDEST SWAP2 SWAP4 SWAP1 SWAP3 SWAP1 SWAP2 PUSH1 0x20 DUP2 ADD SWAP1 CALLDATALOAD PUSH1 0x1 PUSH1 0x20 SHL DUP2 GT ISZERO PUSH2 0xCF2 JUMPI PUSH1 0x0 DUP1 REVERT JUMPDEST DUP3 ADD DUP4 PUSH1 0x20 DUP3 ADD GT ISZERO PUSH2 0xD04 JUMPI PUSH1 0x0 DUP1 REVERT JUMPDEST DUP1 CALLDATALOAD SWAP1 PUSH1 0x20 ADD SWAP2 DUP5 PUSH1 0x1 DUP4 MUL DUP5 ADD GT PUSH1 0x1 PUSH1 0x20 SHL DUP4 GT OR ISZERO PUSH2 0xD25 JUMPI PUSH1 0x0 DUP1 REVERT JUMPDEST POP SWAP1 SWAP3 POP SWAP1 POP PUSH2 0x2808 JUMP JUMPDEST PUSH2 0x850 PUSH2 0x289C JUMP JUMPDEST PUSH2 0x592 PUSH1 0x4 DUP1 CALLDATASIZE SUB PUSH1 0x60 DUP2 LT ISZERO PUSH2 0xD4E JUMPI PUSH1 0x0 DUP1 REVERT JUMPDEST PUSH1 0x1 PUSH1 0x1 PUSH1 0xA0 SHL SUB DUP3 CALLDATALOAD AND SWAP2 SWAP1 DUP2 ADD SWAP1 PUSH1 0x40 DUP2 ADD PUSH1 0x20 DUP3 ADD CALLDATALOAD PUSH1 0x1 PUSH1 0x20 SHL DUP2 GT ISZERO PUSH2 0xD78 JUMPI PUSH1 0x0 DUP1 REVERT JUMPDEST DUP3 ADD DUP4 PUSH1 0x20 DUP3 ADD GT ISZERO PUSH2 0xD8A JUMPI PUSH1 0x0 DUP1 REVERT JUMPDEST DUP1 CALLDATALOAD SWAP1 PUSH1 0x20 ADD SWAP2 DUP5 PUSH1 0x1 DUP4 MUL DUP5 ADD GT PUSH1 0x1 PUSH1 0x20 SHL DUP4 GT OR ISZERO PUSH2 0xDAB JUMPI PUSH1 0x0 DUP1 REVERT JUMPDEST SWAP2 SWAP1 DUP1 DUP1 PUSH1 0x1F ADD PUSH1 0x20 DUP1 SWAP2 DIV MUL PUSH1 0x20 ADD PUSH1 0x40 MLOAD SWAP1 DUP2 ADD PUSH1 0x40 MSTORE DUP1 SWAP4 SWAP3 SWAP2 SWAP1 DUP2 DUP2 MSTORE PUSH1 0x20 ADD DUP4 DUP4 DUP1 DUP3 DUP5 CALLDATACOPY PUSH1 0x0 SWAP3 ADD SWAP2 SWAP1 SWAP2 MSTORE POP SWAP3 SWAP6 SWAP5 SWAP4 PUSH1 0x20 DUP2 ADD SWAP4 POP CALLDATALOAD SWAP2 POP POP PUSH1 0x1 PUSH1 0x20 SHL DUP2 GT ISZERO PUSH2 0xDFD JUMPI PUSH1 0x0 DUP1 REVERT JUMPDEST DUP3 ADD DUP4 PUSH1 0x20 DUP3 ADD GT ISZERO PUSH2 0xE0F JUMPI PUSH1 0x0 DUP1 REVERT JUMPDEST DUP1 CALLDATALOAD SWAP1 PUSH1 0x20 ADD SWAP2 DUP5 PUSH1 0x1 DUP4 MUL DUP5 ADD GT PUSH1 0x1 PUSH1 0x20 SHL DUP4 GT OR ISZERO PUSH2 0xE30 JUMPI PUSH1 0x0 DUP1 REVERT JUMPDEST SWAP2 SWAP1 DUP1 DUP1 PUSH1 0x1F ADD PUSH1 0x20 DUP1 SWAP2 DIV MUL PUSH1 0x20 ADD PUSH1 0x40 MLOAD SWAP1 DUP2 ADD PUSH1 0x40 MSTORE DUP1 SWAP4 SWAP3 SWAP2 SWAP1 DUP2 DUP2 MSTORE PUSH1 0x20 ADD DUP4 DUP4 DUP1 DUP3 DUP5 CALLDATACOPY PUSH1 0x0 SWAP3 ADD SWAP2 SWAP1 SWAP2 MSTORE POP SWAP3 SWAP6 POP PUSH2 0x28A1 SWAP5 POP POP POP POP POP JUMP JUMPDEST PUSH2 0x592 PUSH1 0x4 DUP1 CALLDATASIZE SUB PUSH1 0xA0 DUP2 LT ISZERO PUSH2 0xE87 JUMPI PUSH1 0x0 DUP1 REVERT JUMPDEST PUSH1 0x1 PUSH1 0x1 PUSH1 0xA0 SHL SUB DUP3 CALLDATALOAD AND SWAP2 SWAP1 DUP2 ADD SWAP1 PUSH1 0x40 DUP2 ADD PUSH1 0x20 DUP3 ADD CALLDATALOAD PUSH1 0x1 PUSH1 0x20 SHL DUP2 GT ISZERO PUSH2 0xEB1 JUMPI PUSH1 0x0 DUP1 REVERT JUMPDEST DUP3 ADD DUP4 PUSH1 0x20 DUP3 ADD GT ISZERO PUSH2 0xEC3 JUMPI PUSH1 0x0 DUP1 REVERT JUMPDEST DUP1 CALLDATALOAD SWAP1 PUSH1 0x20 ADD SWAP2 DUP5 PUSH1 0x1 DUP4 MUL DUP5 ADD GT PUSH1 0x1 PUSH1 0x20 SHL DUP4 GT OR ISZERO PUSH2 0xEE4 JUMPI PUSH1 0x0 DUP1 REVERT JUMPDEST SWAP2 SWAP1 DUP1 DUP1 PUSH1 0x1F ADD PUSH1 0x20 DUP1 SWAP2 DIV MUL PUSH1 0x20 ADD PUSH1 0x40 MLOAD SWAP1 DUP2 ADD PUSH1 0x40 MSTORE DUP1 SWAP4 SWAP3 SWAP2 SWAP1 DUP2 DUP2 MSTORE PUSH1 0x20 ADD DUP4 DUP4 DUP1 DUP3 DUP5 CALLDATACOPY PUSH1 0x0 SWAP3 ADD SWAP2 SWAP1 SWAP2 MSTORE POP SWAP3 SWAP6 SWAP5 SWAP4 PUSH1 0x20 DUP2 ADD SWAP4 POP CALLDATALOAD SWAP2 POP POP PUSH1 0x1 PUSH1 0x20 SHL DUP2 GT ISZERO PUSH2 0xF36 JUMPI PUSH1 0x0 DUP1 REVERT JUMPDEST DUP3 ADD DUP4 PUSH1 0x20 DUP3 ADD GT ISZERO PUSH2 0xF48 JUMPI PUSH1 0x0 DUP1 REVERT JUMPDEST DUP1 CALLDATALOAD SWAP1 PUSH1 0x20 ADD SWAP2 DUP5 PUSH1 0x1 DUP4 MUL DUP5 ADD GT PUSH1 0x1 PUSH1 0x20 SHL DUP4 GT OR ISZERO PUSH2 0xF69 JUMPI PUSH1 0x0 DUP1 REVERT JUMPDEST SWAP2 SWAP1 DUP1 DUP1 PUSH1 0x1F ADD PUSH1 0x20 DUP1 SWAP2 DIV MUL PUSH1 0x20 ADD PUSH1 0x40 MLOAD SWAP1 DUP2 ADD PUSH1 0x40 MSTORE DUP1 SWAP4 SWAP3 SWAP2 SWAP1 DUP2 DUP2 MSTORE PUSH1 0x20 ADD DUP4 DUP4 DUP1 DUP3 DUP5 CALLDATACOPY PUSH1 0x0 SWAP3 ADD SWAP2 SWAP1 SWAP2 MSTORE POP SWAP3 SWAP6 SWAP5 SWAP4 PUSH1 0x20 DUP2 ADD SWAP4 POP CALLDATALOAD SWAP2 POP POP PUSH1 0x1 PUSH1 0x20 SHL DUP2 GT ISZERO PUSH2 0xFBB JUMPI PUSH1 0x0 DUP1 REVERT JUMPDEST DUP3 ADD DUP4 PUSH1 0x20 DUP3 ADD GT ISZERO PUSH2 0xFCD JUMPI PUSH1 0x0 DUP1 REVERT JUMPDEST DUP1 CALLDATALOAD SWAP1 PUSH1 0x20 ADD SWAP2 DUP5 PUSH1 0x1 DUP4 MUL DUP5 ADD GT PUSH1 0x1 PUSH1 0x20 SHL DUP4 GT OR ISZERO PUSH2 0xFEE JUMPI PUSH1 0x0 DUP1 REVERT JUMPDEST SWAP2 SWAP1 DUP1 DUP1 PUSH1 0x1F ADD PUSH1 0x20 DUP1 SWAP2 DIV MUL PUSH1 0x20 ADD PUSH1 0x40 MLOAD SWAP1 DUP2 ADD PUSH1 0x40 MSTORE DUP1 SWAP4 SWAP3 SWAP2 SWAP1 DUP2 DUP2 MSTORE PUSH1 0x20 ADD DUP4 DUP4 DUP1 DUP3 DUP5 CALLDATACOPY PUSH1 0x0 SWAP3 ADD SWAP2 SWAP1 SWAP2 MSTORE POP SWAP3 SWAP6 POP POP POP POP CALLDATALOAD ISZERO ISZERO SWAP1 POP PUSH2 0x29EB JUMP JUMPDEST PUSH2 0x592 PUSH1 0x4 DUP1 CALLDATASIZE SUB PUSH1 0x40 DUP2 LT ISZERO PUSH2 0x1047 JUMPI PUSH1 0x0 DUP1 REVERT JUMPDEST POP DUP1 CALLDATALOAD PUSH1 0x1 PUSH1 0x1 PUSH1 0xA0 SHL SUB AND SWAP1 PUSH1 0x20 ADD CALLDATALOAD PUSH4 0xFFFFFFFF AND PUSH2 0x2D42 JUMP JUMPDEST PUSH2 0x1080 PUSH1 0x4 DUP1 CALLDATASIZE SUB PUSH1 0x20 DUP2 LT ISZERO PUSH2 0x1079 JUMPI PUSH1 0x0 DUP1 REVERT JUMPDEST POP CALLDATALOAD PUSH2 0x2DCB JUMP JUMPDEST PUSH1 0x40 MLOAD DUP1 DUP6 PUSH1 0x1 PUSH1 0x1 PUSH1 0xA0 SHL SUB AND PUSH1 0x1 PUSH1 0x1 PUSH1 0xA0 SHL SUB AND DUP2 MSTORE PUSH1 0x20 ADD DUP5 PUSH1 0x1 PUSH1 0x1 PUSH1 0xA0 SHL SUB AND PUSH1 0x1 PUSH1 0x1 PUSH1 0xA0 SHL SUB AND DUP2 MSTORE PUSH1 0x20 ADD DUP1 PUSH1 0x20 ADD DUP4 ISZERO ISZERO ISZERO ISZERO DUP2 MSTORE PUSH1 0x20 ADD DUP3 DUP2 SUB DUP3 MSTORE DUP5 DUP2 DUP2 MLOAD DUP2 MSTORE PUSH1 0x20 ADD SWAP2 POP DUP1 MLOAD SWAP1 PUSH1 0x20 ADD SWAP1 DUP1 DUP4 DUP4 PUSH1 0x0 JUMPDEST DUP4 DUP2 LT ISZERO PUSH2 0x10F7 JUMPI DUP2 DUP2 ADD MLOAD DUP4 DUP3 ADD MSTORE PUSH1 0x20 ADD PUSH2 0x10DF JUMP JUMPDEST POP POP POP POP SWAP1 POP SWAP1 DUP2 ADD SWAP1 PUSH1 0x1F AND DUP1 ISZERO PUSH2 0x1124 JUMPI DUP1 DUP3 SUB DUP1 MLOAD PUSH1 0x1 DUP4 PUSH1 0x20 SUB PUSH2 0x100 EXP SUB NOT AND DUP2 MSTORE PUSH1 0x20 ADD SWAP2 POP JUMPDEST POP SWAP6 POP POP POP POP POP POP PUSH1 0x40 MLOAD DUP1 SWAP2 SUB SWAP1 RETURN JUMPDEST PUSH2 0x592 PUSH1 0x4 DUP1 CALLDATASIZE SUB PUSH1 0x60 DUP2 LT ISZERO PUSH2 0x114B JUMPI PUSH1 0x0 DUP1 REVERT JUMPDEST DUP2 ADD SWAP1 PUSH1 0x20 DUP2 ADD DUP2 CALLDATALOAD PUSH1 0x1 PUSH1 0x20 SHL DUP2 GT ISZERO PUSH2 0x1165 JUMPI PUSH1 0x0 DUP1 REVERT JUMPDEST DUP3 ADD DUP4 PUSH1 0x20 DUP3 ADD GT ISZERO PUSH2 0x1177 JUMPI PUSH1 0x0 DUP1 REVERT JUMPDEST DUP1 CALLDATALOAD SWAP1 PUSH1 0x20 ADD SWAP2 DUP5 PUSH1 0x1 DUP4 MUL DUP5 ADD GT PUSH1 0x1 PUSH1 0x20 SHL DUP4 GT OR ISZERO PUSH2 0x1198 JUMPI PUSH1 0x0 DUP1 REVERT JUMPDEST SWAP2 SWAP4 SWAP1 SWAP3 SWAP1 SWAP2 PUSH1 0x20 DUP2 ADD SWAP1 CALLDATALOAD PUSH1 0x1 PUSH1 0x20 SHL DUP2 GT ISZERO PUSH2 0x11B5 JUMPI PUSH1 0x0 DUP1 REVERT JUMPDEST DUP3 ADD DUP4 PUSH1 0x20 DUP3 ADD GT ISZERO PUSH2 0x11C7 JUMPI PUSH1 0x0 DUP1 REVERT JUMPDEST DUP1 CALLDATALOAD SWAP1 PUSH1 0x20 ADD SWAP2 DUP5 PUSH1 0x1 DUP4 MUL DUP5 ADD GT PUSH1 0x1 PUSH1 0x20 SHL DUP4 GT OR ISZERO PUSH2 0x11E8 JUMPI PUSH1 0x0 DUP1 REVERT JUMPDEST SWAP2 SWAP4 POP SWAP2 POP CALLDATALOAD PUSH4 0xFFFFFFFF AND PUSH2 0x2E9F JUMP JUMPDEST PUSH2 0x811 PUSH1 0x4 DUP1 CALLDATASIZE SUB PUSH1 0x20 DUP2 LT ISZERO PUSH2 0x120F JUMPI PUSH1 0x0 DUP1 REVERT JUMPDEST POP CALLDATALOAD PUSH4 0xFFFFFFFF AND PUSH2 0x2F2C JUMP JUMPDEST PUSH2 0x1080 PUSH1 0x4 DUP1 CALLDATASIZE SUB PUSH1 0x20 DUP2 LT ISZERO PUSH2 0x1232 JUMPI PUSH1 0x0 DUP1 REVERT JUMPDEST POP CALLDATALOAD PUSH2 0x2F41 JUMP JUMPDEST PUSH2 0x850 PUSH1 0x4 DUP1 CALLDATASIZE SUB PUSH1 0x40 DUP2 LT ISZERO PUSH2 0x124F JUMPI PUSH1 0x0 DUP1 REVERT JUMPDEST PUSH1 0x1 PUSH1 0x1 PUSH1 0xA0 SHL SUB DUP3 CALLDATALOAD AND SWAP2 SWAP1 DUP2 ADD SWAP1 PUSH1 0x40 DUP2 ADD PUSH1 0x20 DUP3 ADD CALLDATALOAD PUSH1 0x1 PUSH1 0x20 SHL DUP2 GT ISZERO PUSH2 0x1279 JUMPI PUSH1 0x0 DUP1 REVERT JUMPDEST DUP3 ADD DUP4 PUSH1 0x20 DUP3 ADD GT ISZERO PUSH2 0x128B JUMPI PUSH1 0x0 DUP1 REVERT JUMPDEST DUP1 CALLDATALOAD SWAP1 PUSH1 0x20 ADD SWAP2 DUP5 PUSH1 0x1 DUP4 MUL DUP5 ADD GT PUSH1 0x1 PUSH1 0x20 SHL DUP4 GT OR ISZERO PUSH2 0x12AC JUMPI PUSH1 0x0 DUP1 REVERT JUMPDEST SWAP2 SWAP1 DUP1 DUP1 PUSH1 0x1F ADD PUSH1 0x20 DUP1 SWAP2 DIV MUL PUSH1 0x20 ADD PUSH1 0x40 MLOAD SWAP1 DUP2 ADD PUSH1 0x40 MSTORE DUP1 SWAP4 SWAP3 SWAP2 SWAP1 DUP2 DUP2 MSTORE PUSH1 0x20 ADD DUP4 DUP4 DUP1 DUP3 DUP5 CALLDATACOPY PUSH1 0x0 SWAP3 ADD SWAP2 SWAP1 SWAP2 MSTORE POP SWAP3 SWAP6 POP PUSH2 0x2F4E SWAP5 POP POP POP POP POP JUMP JUMPDEST PUSH2 0x811 PUSH1 0x4 DUP1 CALLDATASIZE SUB PUSH1 0x20 DUP2 LT ISZERO PUSH2 0x1303 JUMPI PUSH1 0x0 DUP1 REVERT JUMPDEST DUP2 ADD SWAP1 PUSH1 0x20 DUP2 ADD DUP2 CALLDATALOAD PUSH1 0x1 PUSH1 0x20 SHL DUP2 GT ISZERO PUSH2 0x131D JUMPI PUSH1 0x0 DUP1 REVERT JUMPDEST DUP3 ADD DUP4 PUSH1 0x20 DUP3 ADD GT ISZERO PUSH2 0x132F JUMPI PUSH1 0x0 DUP1 REVERT JUMPDEST DUP1 CALLDATALOAD SWAP1 PUSH1 0x20 ADD SWAP2 DUP5 PUSH1 0x1 DUP4 MUL DUP5 ADD GT PUSH1 0x1 PUSH1 0x20 SHL DUP4 GT OR ISZERO PUSH2 0x1350 JUMPI PUSH1 0x0 DUP1 REVERT JUMPDEST POP SWAP1 SWAP3 POP SWAP1 POP PUSH2 0x2F7F JUMP JUMPDEST PUSH2 0x811 PUSH1 0x4 DUP1 CALLDATASIZE SUB PUSH1 0x20 DUP2 LT ISZERO PUSH2 0x1371 JUMPI PUSH1 0x0 DUP1 REVERT JUMPDEST POP CALLDATALOAD PUSH1 0x1 PUSH1 0x1 PUSH1 0xA0 SHL SUB AND PUSH2 0x30F0 JUMP JUMPDEST PUSH2 0x811 PUSH2 0x310B JUMP JUMPDEST PUSH2 0x811 PUSH1 0x4 DUP1 CALLDATASIZE SUB PUSH1 0x20 DUP2 LT ISZERO PUSH2 0x139F JUMPI PUSH1 0x0 DUP1 REVERT JUMPDEST POP CALLDATALOAD PUSH1 0x1 PUSH1 0x1 PUSH1 0xA0 SHL SUB AND PUSH2 0x3111 JUMP JUMPDEST PUSH2 0x3DA PUSH1 0x4 DUP1 CALLDATASIZE SUB PUSH1 0x40 DUP2 LT ISZERO PUSH2 0x13C5 JUMPI PUSH1 0x0 DUP1 REVERT JUMPDEST POP PUSH4 0xFFFFFFFF DUP2 CALLDATALOAD DUP2 AND SWAP2 PUSH1 0x20 ADD CALLDATALOAD AND PUSH2 0x3129 JUMP JUMPDEST PUSH2 0x592 PUSH1 0x4 DUP1 CALLDATASIZE SUB PUSH1 0x40 DUP2 LT ISZERO PUSH2 0x13F0 JUMPI PUSH1 0x0 DUP1 REVERT JUMPDEST POP DUP1 CALLDATALOAD PUSH1 0x1 PUSH1 0x1 PUSH1 0xA0 SHL SUB AND SWAP1 PUSH1 0x20 ADD CALLDATALOAD PUSH4 0xFFFFFFFF AND PUSH2 0x317E JUMP JUMPDEST PUSH2 0x850 PUSH2 0x31EA JUMP JUMPDEST PUSH2 0x592 PUSH1 0x4 DUP1 CALLDATASIZE SUB PUSH1 0x80 DUP2 LT ISZERO PUSH2 0x142A JUMPI PUSH1 0x0 DUP1 REVERT JUMPDEST PUSH1 0x1 PUSH1 0x1 PUSH1 0xA0 SHL SUB DUP3 CALLDATALOAD AND SWAP2 SWAP1 DUP2 ADD SWAP1 PUSH1 0x40 DUP2 ADD PUSH1 0x20 DUP3 ADD CALLDATALOAD PUSH1 0x1 PUSH1 0x20 SHL DUP2 GT ISZERO PUSH2 0x1454 JUMPI PUSH1 0x0 DUP1 REVERT JUMPDEST DUP3 ADD DUP4 PUSH1 0x20 DUP3 ADD GT ISZERO PUSH2 0x1466 JUMPI PUSH1 0x0 DUP1 REVERT JUMPDEST DUP1 CALLDATALOAD SWAP1 PUSH1 0x20 ADD SWAP2 DUP5 PUSH1 0x1 DUP4 MUL DUP5 ADD GT PUSH1 0x1 PUSH1 0x20 SHL DUP4 GT OR ISZERO PUSH2 0x1487 JUMPI PUSH1 0x0 DUP1 REVERT JUMPDEST SWAP2 SWAP1 DUP1 DUP1 PUSH1 0x1F ADD PUSH1 0x20 DUP1 SWAP2 DIV MUL PUSH1 0x20 ADD PUSH1 0x40 MLOAD SWAP1 DUP2 ADD PUSH1 0x40 MSTORE DUP1 SWAP4 SWAP3 SWAP2 SWAP1 DUP2 DUP2 MSTORE PUSH1 0x20 ADD DUP4 DUP4 DUP1 DUP3 DUP5 CALLDATACOPY PUSH1 0x0 SWAP3 ADD SWAP2 SWAP1 SWAP2 MSTORE POP SWAP3 SWAP6 SWAP5 SWAP4 PUSH1 0x20 DUP2 ADD SWAP4 POP CALLDATALOAD SWAP2 POP POP PUSH1 0x1 PUSH1 0x20 SHL DUP2 GT ISZERO PUSH2 0x14D9 JUMPI PUSH1 0x0 DUP1 REVERT JUMPDEST DUP3 ADD DUP4 PUSH1 0x20 DUP3 ADD GT ISZERO PUSH2 0x14EB JUMPI PUSH1 0x0 DUP1 REVERT JUMPDEST DUP1 CALLDATALOAD SWAP1 PUSH1 0x20 ADD SWAP2 DUP5 PUSH1 0x1 DUP4 MUL DUP5 ADD GT PUSH1 0x1 PUSH1 0x20 SHL DUP4 GT OR ISZERO PUSH2 0x150C JUMPI PUSH1 0x0 DUP1 REVERT JUMPDEST SWAP2 SWAP1 DUP1 DUP1 PUSH1 0x1F ADD PUSH1 0x20 DUP1 SWAP2 DIV MUL PUSH1 0x20 ADD PUSH1 0x40 MLOAD SWAP1 DUP2 ADD PUSH1 0x40 MSTORE DUP1 SWAP4 SWAP3 SWAP2 SWAP1 DUP2 DUP2 MSTORE PUSH1 0x20 ADD DUP4 DUP4 DUP1 DUP3 DUP5 CALLDATACOPY PUSH1 0x0 SWAP3 ADD SWAP2 SWAP1 SWAP2 MSTORE POP SWAP3 SWAP6 POP POP POP SWAP1 CALLDATALOAD PUSH4 0xFFFFFFFF AND SWAP2 POP PUSH2 0x31F3 SWAP1 POP JUMP JUMPDEST PUSH2 0x850 PUSH1 0x4 DUP1 CALLDATASIZE SUB PUSH1 0x20 DUP2 LT ISZERO PUSH2 0x156B JUMPI PUSH1 0x0 DUP1 REVERT JUMPDEST POP CALLDATALOAD PUSH1 0x1 PUSH1 0x1 PUSH1 0xA0 SHL SUB AND PUSH2 0x3351 JUMP JUMPDEST PUSH2 0x592 PUSH1 0x4 DUP1 CALLDATASIZE SUB PUSH1 0x60 DUP2 LT ISZERO PUSH2 0x1591 JUMPI PUSH1 0x0 DUP1 REVERT JUMPDEST DUP2 ADD SWAP1 PUSH1 0x20 DUP2 ADD DUP2 CALLDATALOAD PUSH1 0x1 PUSH1 0x20 SHL DUP2 GT ISZERO PUSH2 0x15AB JUMPI PUSH1 0x0 DUP1 REVERT JUMPDEST DUP3 ADD DUP4 PUSH1 0x20 DUP3 ADD GT ISZERO PUSH2 0x15BD JUMPI PUSH1 0x0 DUP1 REVERT JUMPDEST DUP1 CALLDATALOAD SWAP1 PUSH1 0x20 ADD SWAP2 DUP5 PUSH1 0x1 DUP4 MUL DUP5 ADD GT PUSH1 0x1 PUSH1 0x20 SHL DUP4 GT OR ISZERO PUSH2 0x15DE JUMPI PUSH1 0x0 DUP1 REVERT JUMPDEST SWAP2 SWAP1 DUP1 DUP1 PUSH1 0x1F ADD PUSH1 0x20 DUP1 SWAP2 DIV MUL PUSH1 0x20 ADD PUSH1 0x40 MLOAD SWAP1 DUP2 ADD PUSH1 0x40 MSTORE DUP1 SWAP4 SWAP3 SWAP2 SWAP1 DUP2 DUP2 MSTORE PUSH1 0x20 ADD DUP4 DUP4 DUP1 DUP3 DUP5 CALLDATACOPY PUSH1 0x0 SWAP3 ADD SWAP2 SWAP1 SWAP2 MSTORE POP SWAP3 SWAP6 SWAP5 SWAP4 PUSH1 0x20 DUP2 ADD SWAP4 POP CALLDATALOAD SWAP2 POP POP PUSH1 0x1 PUSH1 0x20 SHL DUP2 GT ISZERO PUSH2 0x1630 JUMPI PUSH1 0x0 DUP1 REVERT JUMPDEST DUP3 ADD DUP4 PUSH1 0x20 DUP3 ADD GT ISZERO PUSH2 0x1642 JUMPI PUSH1 0x0 DUP1 REVERT JUMPDEST DUP1 CALLDATALOAD SWAP1 PUSH1 0x20 ADD SWAP2 DUP5 PUSH1 0x1 DUP4 MUL DUP5 ADD GT PUSH1 0x1 PUSH1 0x20 SHL DUP4 GT OR ISZERO PUSH2 0x1663 JUMPI PUSH1 0x0 DUP1 REVERT JUMPDEST SWAP2 SWAP1 DUP1 DUP1 PUSH1 0x1F ADD PUSH1 0x20 DUP1 SWAP2 DIV MUL PUSH1 0x20 ADD PUSH1 0x40 MLOAD SWAP1 DUP2 ADD PUSH1 0x40 MSTORE DUP1 SWAP4 SWAP3 SWAP2 SWAP1 DUP2 DUP2 MSTORE PUSH1 0x20 ADD DUP4 DUP4 DUP1 DUP3 DUP5 CALLDATACOPY PUSH1 0x0 SWAP3 ADD SWAP2 SWAP1 SWAP2 MSTORE POP SWAP3 SWAP6 POP POP POP SWAP1 CALLDATALOAD PUSH4 0xFFFFFFFF AND SWAP2 POP PUSH2 0x3366 SWAP1 POP JUMP JUMPDEST PUSH1 0xD DUP2 DUP2 SLOAD DUP2 LT PUSH2 0x16B9 JUMPI INVALID JUMPDEST PUSH1 0x0 SWAP2 DUP3 MSTORE PUSH1 0x20 SWAP1 SWAP2 KECCAK256 ADD SLOAD PUSH1 0x1 PUSH1 0x1 PUSH1 0xA0 SHL SUB AND SWAP1 POP DUP2 JUMP JUMPDEST PUSH1 0x60 PUSH1 0x2 PUSH1 0x0 DUP5 PUSH1 0x1 PUSH1 0x1 PUSH1 0xA0 SHL SUB AND PUSH1 0x1 PUSH1 0x1 PUSH1 0xA0 SHL SUB AND DUP2 MSTORE PUSH1 0x20 ADD SWAP1 DUP2 MSTORE PUSH1 0x20 ADD PUSH1 0x0 KECCAK256 DUP3 PUSH1 0x40 MLOAD DUP1 DUP3 DUP1 MLOAD SWAP1 PUSH1 0x20 ADD SWAP1 DUP1 DUP4 DUP4 JUMPDEST PUSH1 0x20 DUP4 LT PUSH2 0x172A JUMPI DUP1 MLOAD DUP3 MSTORE PUSH1 0x1F NOT SWAP1 SWAP3 ADD SWAP2 PUSH1 0x20 SWAP2 DUP3 ADD SWAP2 ADD PUSH2 0x170B JUMP JUMPDEST MLOAD DUP2 MLOAD PUSH1 0x0 NOT PUSH1 0x20 SWAP5 DUP6 SUB PUSH2 0x100 SWAP1 DUP2 EXP DUP3 ADD SWAP3 DUP4 AND SWAP3 NOT SWAP4 SWAP1 SWAP4 AND SWAP2 SWAP1 SWAP2 OR SWAP1 SWAP3 MSTORE SWAP5 SWAP1 SWAP3 ADD SWAP7 DUP8 MSTORE PUSH1 0x40 DUP1 MLOAD SWAP8 DUP9 SWAP1 SUB DUP3 ADD DUP9 KECCAK256 PUSH1 0x2 SWAP1 DUP2 ADD DUP1 SLOAD PUSH1 0x1F PUSH1 0x1 DUP3 AND ISZERO SWAP1 SWAP9 MUL SWAP1 SWAP6 ADD SWAP1 SWAP5 AND DIV SWAP5 DUP6 ADD DUP3 SWAP1 DIV DUP3 MUL DUP9 ADD DUP3 ADD SWAP1 MSTORE DUP4 DUP8 MSTORE SWAP1 SWAP5 POP SWAP2 SWAP3 POP POP DUP4 ADD DUP3 DUP3 DUP1 ISZERO PUSH2 0x17E1 JUMPI DUP1 PUSH1 0x1F LT PUSH2 0x17B6 JUMPI PUSH2 0x100 DUP1 DUP4 SLOAD DIV MUL DUP4 MSTORE SWAP2 PUSH1 0x20 ADD SWAP2 PUSH2 0x17E1 JUMP JUMPDEST DUP3 ADD SWAP2 SWAP1 PUSH1 0x0 MSTORE PUSH1 0x20 PUSH1 0x0 KECCAK256 SWAP1 JUMPDEST DUP2 SLOAD DUP2 MSTORE SWAP1 PUSH1 0x1 ADD SWAP1 PUSH1 0x20 ADD DUP1 DUP4 GT PUSH2 0x17C4 JUMPI DUP3 SWAP1 SUB PUSH1 0x1F AND DUP3 ADD SWAP2 JUMPDEST POP POP POP POP POP SWAP1 POP SWAP3 SWAP2 POP POP JUMP JUMPDEST PUSH1 0x60 DUP1 PUSH1 0xB DUP5 PUSH4 0xFFFFFFFF AND DUP2 SLOAD DUP2 LT PUSH2 0x1804 JUMPI INVALID JUMPDEST SWAP1 PUSH1 0x0 MSTORE PUSH1 0x20 PUSH1 0x0 KECCAK256 SWAP1 PUSH1 0x6 MUL ADD PUSH1 0x3 ADD DUP4 PUSH4 0xFFFFFFFF AND DUP2 SLOAD DUP2 LT PUSH2 0x1826 JUMPI INVALID JUMPDEST SWAP1 PUSH1 0x0 MSTORE PUSH1 0x20 PUSH1 0x0 KECCAK256 ADD PUSH1 0xB DUP6 PUSH4 0xFFFFFFFF AND DUP2 SLOAD DUP2 LT PUSH2 0x1843 JUMPI INVALID JUMPDEST SWAP1 PUSH1 0x0 MSTORE PUSH1 0x20 PUSH1 0x0 KECCAK256 SWAP1 PUSH1 0x6 MUL ADD PUSH1 0x4 ADD DUP5 PUSH4 0xFFFFFFFF AND DUP2 SLOAD DUP2 LT PUSH2 0x1865 JUMPI INVALID JUMPDEST PUSH1 0x0 SWAP2 DUP3 MSTORE PUSH1 0x20 SWAP2 DUP3 SWAP1 KECCAK256 DUP4 SLOAD PUSH1 0x40 DUP1 MLOAD PUSH1 0x2 PUSH1 0x1 DUP5 AND ISZERO PUSH2 0x100 MUL PUSH1 0x0 NOT ADD SWAP1 SWAP4 AND SWAP3 SWAP1 SWAP3 DIV PUSH1 0x1F DUP2 ADD DUP7 SWAP1 DIV DUP7 MUL DUP4 ADD DUP7 ADD SWAP1 SWAP2 MSTORE DUP1 DUP3 MSTORE SWAP3 SWAP1 SWAP2 ADD SWAP3 SWAP1 SWAP2 DUP5 SWAP2 DUP4 ADD DUP3 DUP3 DUP1 ISZERO PUSH2 0x18F9 JUMPI DUP1 PUSH1 0x1F LT PUSH2 0x18CE JUMPI PUSH2 0x100 DUP1 DUP4 SLOAD DIV MUL DUP4 MSTORE SWAP2 PUSH1 0x20 ADD SWAP2 PUSH2 0x18F9 JUMP JUMPDEST DUP3 ADD SWAP2 SWAP1 PUSH1 0x0 MSTORE PUSH1 0x20 PUSH1 0x0 KECCAK256 SWAP1 JUMPDEST DUP2 SLOAD DUP2 MSTORE SWAP1 PUSH1 0x1 ADD SWAP1 PUSH1 0x20 ADD DUP1 DUP4 GT PUSH2 0x18DC JUMPI DUP3 SWAP1 SUB PUSH1 0x1F AND DUP3 ADD SWAP2 JUMPDEST POP POP DUP5 SLOAD PUSH1 0x40 DUP1 MLOAD PUSH1 0x20 PUSH1 0x2 PUSH1 0x1 DUP6 AND ISZERO PUSH2 0x100 MUL PUSH1 0x0 NOT ADD SWAP1 SWAP5 AND SWAP4 SWAP1 SWAP4 DIV PUSH1 0x1F DUP2 ADD DUP5 SWAP1 DIV DUP5 MUL DUP3 ADD DUP5 ADD SWAP1 SWAP3 MSTORE DUP2 DUP2 MSTORE SWAP6 SWAP8 POP DUP7 SWAP5 POP SWAP3 POP DUP5 ADD SWAP1 POP DUP3 DUP3 DUP1 ISZERO PUSH2 0x1987 JUMPI DUP1 PUSH1 0x1F LT PUSH2 0x195C JUMPI PUSH2 0x100 DUP1 DUP4 SLOAD DIV MUL DUP4 MSTORE SWAP2 PUSH1 0x20 ADD SWAP2 PUSH2 0x1987 JUMP JUMPDEST DUP3 ADD SWAP2 SWAP1 PUSH1 0x0 MSTORE PUSH1 0x20 PUSH1 0x0 KECCAK256 SWAP1 JUMPDEST DUP2 SLOAD DUP2 MSTORE SWAP1 PUSH1 0x1 ADD SWAP1 PUSH1 0x20 ADD DUP1 DUP4 GT PUSH2 0x196A JUMPI DUP3 SWAP1 SUB PUSH1 0x1F AND DUP3 ADD SWAP2 JUMPDEST POP POP POP POP POP SWAP1 POP SWAP2 POP SWAP2 POP SWAP3 POP SWAP3 SWAP1 POP JUMP JUMPDEST PUSH1 0x2 PUSH1 0x20 DUP2 DUP2 MSTORE PUSH1 0x0 SWAP4 DUP5 MSTORE PUSH1 0x40 SWAP4 DUP5 SWAP1 KECCAK256 DUP4 MLOAD DUP1 DUP6 ADD DUP4 ADD DUP1 MLOAD SWAP3 DUP2 MSTORE SWAP1 DUP4 ADD SWAP5 DUP4 ADD SWAP5 SWAP1 SWAP5 KECCAK256 SWAP4 MSTORE DUP3 DUP3 ADD DUP1 SLOAD DUP6 MLOAD PUSH1 0x1 DUP3 AND ISZERO PUSH2 0x100 MUL PUSH1 0x0 NOT ADD SWAP1 SWAP2 AND SWAP4 SWAP1 SWAP4 DIV PUSH1 0x1F DUP2 ADD DUP4 SWAP1 DIV DUP4 MUL DUP5 ADD DUP4 ADD SWAP1 SWAP6 MSTORE DUP5 DUP4 MSTORE SWAP3 SWAP4 SWAP2 SWAP3 SWAP2 SWAP1 DUP4 ADD DUP3 DUP3 DUP1 ISZERO PUSH2 0x1A48 JUMPI DUP1 PUSH1 0x1F LT PUSH2 0x1A1D JUMPI PUSH2 0x100 DUP1 DUP4 SLOAD DIV MUL DUP4 MSTORE SWAP2 PUSH1 0x20 ADD SWAP2 PUSH2 0x1A48 JUMP JUMPDEST DUP3 ADD SWAP2 SWAP1 PUSH1 0x0 MSTORE PUSH1 0x20 PUSH1 0x0 KECCAK256 SWAP1 JUMPDEST DUP2 SLOAD DUP2 MSTORE SWAP1 PUSH1 0x1 ADD SWAP1 PUSH1 0x20 ADD DUP1 DUP4 GT PUSH2 0x1A2B JUMPI DUP3 SWAP1 SUB PUSH1 0x1F AND DUP3 ADD SWAP2 JUMPDEST POP POP POP POP POP SWAP1 POP DUP2 JUMP JUMPDEST CALLER PUSH1 0x0 SWAP1 DUP2 MSTORE PUSH1 0xC PUSH1 0x20 MSTORE PUSH1 0x40 SWAP1 KECCAK256 SLOAD PUSH1 0xFF AND PUSH2 0x1A6E JUMPI PUSH1 0x0 DUP1 REVERT JUMPDEST PUSH1 0x1 PUSH1 0x1 PUSH1 0xA0 SHL SUB DUP2 AND PUSH1 0x0 SWAP1 DUP2 MSTORE PUSH1 0xC PUSH1 0x20 MSTORE PUSH1 0x40 SWAP1 KECCAK256 SLOAD DUP2 SWAP1 PUSH1 0xFF AND PUSH2 0x1A95 JUMPI PUSH1 0x0 DUP1 REVERT JUMPDEST PUSH1 0xD SLOAD PUSH1 0x1 LT PUSH2 0x1AA4 JUMPI PUSH1 0x0 DUP1 REVERT JUMPDEST PUSH1 0x1 PUSH1 0x1 PUSH1 0xA0 SHL SUB DUP3 AND PUSH1 0x0 SWAP1 DUP2 MSTORE PUSH1 0xC PUSH1 0x20 MSTORE PUSH1 0x40 DUP2 KECCAK256 DUP1 SLOAD PUSH1 0xFF NOT AND SWAP1 SSTORE JUMPDEST PUSH1 0xD SLOAD PUSH1 0x0 NOT ADD PUSH4 0xFFFFFFFF DUP3 AND LT ISZERO PUSH2 0x1B8A JUMPI DUP3 PUSH1 0x1 PUSH1 0x1 PUSH1 0xA0 SHL SUB AND PUSH1 0xD DUP3 PUSH4 0xFFFFFFFF AND DUP2 SLOAD DUP2 LT PUSH2 0x1AF6 JUMPI INVALID JUMPDEST PUSH1 0x0 SWAP2 DUP3 MSTORE PUSH1 0x20 SWAP1 SWAP2 KECCAK256 ADD SLOAD PUSH1 0x1 PUSH1 0x1 PUSH1 0xA0 SHL SUB AND EQ ISZERO PUSH2 0x1B82 JUMPI PUSH1 0xD DUP1 SLOAD PUSH1 0x0 NOT DUP2 ADD SWAP1 DUP2 LT PUSH2 0x1B23 JUMPI INVALID JUMPDEST PUSH1 0x0 SWAP2 DUP3 MSTORE PUSH1 0x20 SWAP1 SWAP2 KECCAK256 ADD SLOAD PUSH1 0xD DUP1 SLOAD PUSH1 0x1 PUSH1 0x1 PUSH1 0xA0 SHL SUB SWAP1 SWAP3 AND SWAP2 PUSH4 0xFFFFFFFF DUP5 AND SWAP1 DUP2 LT PUSH2 0x1B4F JUMPI INVALID JUMPDEST SWAP1 PUSH1 0x0 MSTORE PUSH1 0x20 PUSH1 0x0 KECCAK256 ADD PUSH1 0x0 PUSH2 0x100 EXP DUP2 SLOAD DUP2 PUSH1 0x1 PUSH1 0x1 PUSH1 0xA0 SHL SUB MUL NOT AND SWAP1 DUP4 PUSH1 0x1 PUSH1 0x1 PUSH1 0xA0 SHL SUB AND MUL OR SWAP1 SSTORE POP PUSH2 0x1B8A JUMP JUMPDEST PUSH1 0x1 ADD PUSH2 0x1AC5 JUMP JUMPDEST POP PUSH1 0xD DUP1 SLOAD DUP1 PUSH2 0x1B96 JUMPI INVALID JUMPDEST PUSH1 0x0 DUP3 DUP2 MSTORE PUSH1 0x20 SWAP1 KECCAK256 DUP2 ADD PUSH1 0x0 NOT SWAP1 DUP2 ADD DUP1 SLOAD PUSH1 0x1 PUSH1 0x1 PUSH1 0xA0 SHL SUB NOT AND SWAP1 SSTORE ADD SWAP1 SSTORE POP POP JUMP JUMPDEST PUSH1 0x3 PUSH1 0x20 SWAP1 DUP2 MSTORE PUSH1 0x0 SWAP3 DUP4 MSTORE PUSH1 0x40 SWAP3 DUP4 SWAP1 KECCAK256 DUP3 MLOAD DUP1 DUP5 ADD DUP4 ADD DUP1 MLOAD SWAP3 DUP2 MSTORE SWAP1 DUP4 ADD SWAP4 DUP4 ADD SWAP4 SWAP1 SWAP4 KECCAK256 SWAP3 MSTORE DUP2 SLOAD DUP4 MLOAD PUSH1 0x1F PUSH1 0x2 PUSH1 0x0 NOT PUSH2 0x100 PUSH1 0x1 DUP7 AND ISZERO MUL ADD SWAP1 SWAP4 AND SWAP3 SWAP1 SWAP3 DIV SWAP2 DUP3 ADD DUP4 SWAP1 DIV DUP4 MUL DUP2 ADD DUP4 ADD SWAP1 SWAP5 MSTORE DUP1 DUP5 MSTORE SWAP1 DUP4 ADD DUP3 DUP3 DUP1 ISZERO PUSH2 0x1C66 JUMPI DUP1 PUSH1 0x1F LT PUSH2 0x1C3B JUMPI PUSH2 0x100 DUP1 DUP4 SLOAD DIV MUL DUP4 MSTORE SWAP2 PUSH1 0x20 ADD SWAP2 PUSH2 0x1C66 JUMP JUMPDEST DUP3 ADD SWAP2 SWAP1 PUSH1 0x0 MSTORE PUSH1 0x20 PUSH1 0x0 KECCAK256 SWAP1 JUMPDEST DUP2 SLOAD DUP2 MSTORE SWAP1 PUSH1 0x1 ADD SWAP1 PUSH1 0x20 ADD DUP1 DUP4 GT PUSH2 0x1C49 JUMPI DUP3 SWAP1 SUB PUSH1 0x1F AND DUP3 ADD SWAP2 JUMPDEST POP POP POP POP POP DUP2 JUMP JUMPDEST CALLER PUSH1 0x0 SWAP1 DUP2 MSTORE PUSH1 0xC PUSH1 0x20 MSTORE PUSH1 0x40 DUP2 KECCAK256 SLOAD PUSH1 0xFF AND PUSH2 0x1C8A JUMPI PUSH1 0x0 DUP1 REVERT JUMPDEST PUSH1 0x0 DUP8 SWAP1 POP DUP1 PUSH1 0x1 PUSH1 0x1 PUSH1 0xA0 SHL SUB AND PUSH4 0x8C162152 DUP9 DUP9 DUP9 DUP9 DUP9 PUSH1 0x40 MLOAD DUP7 PUSH4 0xFFFFFFFF AND PUSH1 0xE0 SHL DUP2 MSTORE PUSH1 0x4 ADD DUP1 DUP7 PUSH1 0x1 PUSH1 0x1 PUSH1 0xA0 SHL SUB AND PUSH1 0x1 PUSH1 0x1 PUSH1 0xA0 SHL SUB AND DUP2 MSTORE PUSH1 0x20 ADD DUP1 PUSH1 0x20 ADD DUP1 PUSH1 0x20 ADD DUP1 PUSH1 0x20 ADD DUP6 ISZERO ISZERO ISZERO ISZERO DUP2 MSTORE PUSH1 0x20 ADD DUP5 DUP2 SUB DUP5 MSTORE DUP9 DUP2 DUP2 MLOAD DUP2 MSTORE PUSH1 0x20 ADD SWAP2 POP DUP1 MLOAD SWAP1 PUSH1 0x20 ADD SWAP1 DUP1 DUP4 DUP4 PUSH1 0x0 JUMPDEST DUP4 DUP2 LT ISZERO PUSH2 0x1D19 JUMPI DUP2 DUP2 ADD MLOAD DUP4 DUP3 ADD MSTORE PUSH1 0x20 ADD PUSH2 0x1D01 JUMP JUMPDEST POP POP POP POP SWAP1 POP SWAP1 DUP2 ADD SWAP1 PUSH1 0x1F AND DUP1 ISZERO PUSH2 0x1D46 JUMPI DUP1 DUP3 SUB DUP1 MLOAD PUSH1 0x1 DUP4 PUSH1 0x20 SUB PUSH2 0x100 EXP SUB NOT AND DUP2 MSTORE PUSH1 0x20 ADD SWAP2 POP JUMPDEST POP DUP5 DUP2 SUB DUP4 MSTORE DUP8 MLOAD DUP2 MSTORE DUP8 MLOAD PUSH1 0x20 SWAP2 DUP3 ADD SWAP2 DUP10 ADD SWAP1 DUP1 DUP4 DUP4 PUSH1 0x0 JUMPDEST DUP4 DUP2 LT ISZERO PUSH2 0x1D79 JUMPI DUP2 DUP2 ADD MLOAD DUP4 DUP3 ADD MSTORE PUSH1 0x20 ADD PUSH2 0x1D61 JUMP JUMPDEST POP POP POP POP SWAP1 POP SWAP1 DUP2 ADD SWAP1 PUSH1 0x1F AND DUP1 ISZERO PUSH2 0x1DA6 JUMPI DUP1 DUP3 SUB DUP1 MLOAD PUSH1 0x1 DUP4 PUSH1 0x20 SUB PUSH2 0x100 EXP SUB NOT AND DUP2 MSTORE PUSH1 0x20 ADD SWAP2 POP JUMPDEST POP DUP5 DUP2 SUB DUP3 MSTORE DUP7 MLOAD DUP2 MSTORE DUP7 MLOAD PUSH1 0x20 SWAP2 DUP3 ADD SWAP2 DUP9 ADD SWAP1 DUP1 DUP4 DUP4 PUSH1 0x0 JUMPDEST DUP4 DUP2 LT ISZERO PUSH2 0x1DD9 JUMPI DUP2 DUP2 ADD MLOAD DUP4 DUP3 ADD MSTORE PUSH1 0x20 ADD PUSH2 0x1DC1 JUMP JUMPDEST POP POP POP POP SWAP1 POP SWAP1 DUP2 ADD SWAP1 PUSH1 0x1F AND DUP1 ISZERO PUSH2 0x1E06 JUMPI DUP1 DUP3 SUB DUP1 MLOAD PUSH1 0x1 DUP4 PUSH1 0x20 SUB PUSH2 0x100 EXP SUB NOT AND DUP2 MSTORE PUSH1 0x20 ADD SWAP2 POP JUMPDEST POP SWAP9 POP POP POP POP POP POP POP POP POP PUSH1 0x0 PUSH1 0x40 MLOAD DUP1 DUP4 SUB DUP2 PUSH1 0x0 DUP8 DUP1 EXTCODESIZE ISZERO DUP1 ISZERO PUSH2 0x1E2B JUMPI PUSH1 0x0 DUP1 REVERT JUMPDEST POP GAS CALL ISZERO DUP1 ISZERO PUSH2 0x1E3F JUMPI RETURNDATASIZE PUSH1 0x0 DUP1 RETURNDATACOPY RETURNDATASIZE PUSH1 0x0 REVERT JUMPDEST POP POP POP POP POP SWAP7 SWAP6 POP POP POP POP POP POP JUMP JUMPDEST PUSH1 0xC PUSH1 0x20 MSTORE PUSH1 0x0 SWAP1 DUP2 MSTORE PUSH1 0x40 SWAP1 KECCAK256 SLOAD PUSH1 0xFF AND DUP2 JUMP JUMPDEST PUSH1 0x60 PUSH1 0x2 PUSH1 0x0 DUP6 PUSH1 0x1 PUSH1 0x1 PUSH1 0xA0 SHL SUB AND PUSH1 0x1 PUSH1 0x1 PUSH1 0xA0 SHL SUB AND DUP2 MSTORE PUSH1 0x20 ADD SWAP1 DUP2 MSTORE PUSH1 0x20 ADD PUSH1 0x0 KECCAK256 DUP4 PUSH1 0x40 MLOAD DUP1 DUP3 DUP1 MLOAD SWAP1 PUSH1 0x20 ADD SWAP1 DUP1 DUP4 DUP4 JUMPDEST PUSH1 0x20 DUP4 LT PUSH2 0x1EBA JUMPI DUP1 MLOAD DUP3 MSTORE PUSH1 0x1F NOT SWAP1 SWAP3 ADD SWAP2 PUSH1 0x20 SWAP2 DUP3 ADD SWAP2 ADD PUSH2 0x1E9B JUMP JUMPDEST MLOAD DUP2 MLOAD PUSH1 0x20 SWAP4 DUP5 SUB PUSH2 0x100 EXP PUSH1 0x0 NOT ADD DUP1 NOT SWAP1 SWAP3 AND SWAP2 AND OR SWAP1 MSTORE SWAP3 ADD SWAP5 DUP6 MSTORE POP PUSH1 0x40 MLOAD SWAP4 DUP5 SWAP1 SUB DUP2 ADD DUP5 KECCAK256 DUP7 MLOAD SWAP1 SWAP5 DUP8 SWAP5 POP SWAP3 POP DUP3 SWAP2 DUP5 ADD SWAP1 DUP1 DUP4 DUP4 JUMPDEST PUSH1 0x20 DUP4 LT PUSH2 0x1F16 JUMPI DUP1 MLOAD DUP3 MSTORE PUSH1 0x1F NOT SWAP1 SWAP3 ADD SWAP2 PUSH1 0x20 SWAP2 DUP3 ADD SWAP2 ADD PUSH2 0x1EF7 JUMP JUMPDEST MLOAD DUP2 MLOAD PUSH1 0x0 NOT PUSH1 0x20 SWAP5 DUP6 SUB PUSH2 0x100 SWAP1 DUP2 EXP DUP3 ADD SWAP3 DUP4 AND SWAP3 NOT SWAP4 SWAP1 SWAP4 AND SWAP2 SWAP1 SWAP2 OR SWAP1 SWAP3 MSTORE SWAP5 SWAP1 SWAP3 ADD SWAP7 DUP8 MSTORE PUSH1 0x40 DUP1 MLOAD SWAP8 DUP9 SWAP1 SUB DUP3 ADD DUP9 KECCAK256 DUP1 SLOAD PUSH1 0x1F PUSH1 0x2 PUSH1 0x1 DUP4 AND ISZERO SWAP1 SWAP9 MUL SWAP1 SWAP6 ADD AND SWAP6 SWAP1 SWAP6 DIV SWAP3 DUP4 ADD DUP3 SWAP1 DIV DUP3 MUL DUP9 ADD DUP3 ADD SWAP1 MSTORE DUP2 DUP8 MSTORE SWAP3 SWAP5 POP SWAP3 POP POP DUP4 ADD DUP3 DUP3 DUP1 ISZERO PUSH2 0x1FCA JUMPI DUP1 PUSH1 0x1F LT PUSH2 0x1F9F JUMPI PUSH2 0x100 DUP1 DUP4 SLOAD DIV MUL DUP4 MSTORE SWAP2 PUSH1 0x20 ADD SWAP2 PUSH2 0x1FCA JUMP JUMPDEST DUP3 ADD SWAP2 SWAP1 PUSH1 0x0 MSTORE PUSH1 0x20 PUSH1 0x0 KECCAK256 SWAP1 JUMPDEST DUP2 SLOAD DUP2 MSTORE SWAP1 PUSH1 0x1 ADD SWAP1 PUSH1 0x20 ADD DUP1 DUP4 GT PUSH2 0x1FAD JUMPI DUP3 SWAP1 SUB PUSH1 0x1F AND DUP3 ADD SWAP2 JUMPDEST POP POP POP POP POP SWAP1 POP SWAP4 SWAP3 POP POP POP JUMP JUMPDEST PUSH1 0x5 DUP2 DUP2 SLOAD DUP2 LT PUSH2 0x16B9 JUMPI INVALID JUMPDEST PUSH1 0x7 PUSH1 0x20 MSTORE DUP2 PUSH1 0x0 MSTORE PUSH1 0x40 PUSH1 0x0 KECCAK256 DUP2 DUP2 SLOAD DUP2 LT PUSH2 0x1FFE JUMPI INVALID JUMPDEST PUSH1 0x0 SWAP2 DUP3 MSTORE PUSH1 0x20 SWAP2 DUP3 SWAP1 KECCAK256 ADD DUP1 SLOAD PUSH1 0x40 DUP1 MLOAD PUSH1 0x1F PUSH1 0x2 PUSH1 0x0 NOT PUSH2 0x100 PUSH1 0x1 DUP8 AND ISZERO MUL ADD SWAP1 SWAP5 AND SWAP4 SWAP1 SWAP4 DIV SWAP3 DUP4 ADD DUP6 SWAP1 DIV DUP6 MUL DUP2 ADD DUP6 ADD SWAP1 SWAP2 MSTORE DUP2 DUP2 MSTORE SWAP5 POP SWAP1 SWAP3 POP SWAP1 DUP4 ADD DUP3 DUP3 DUP1 ISZERO PUSH2 0x1C66 JUMPI DUP1 PUSH1 0x1F LT PUSH2 0x1C3B JUMPI PUSH2 0x100 DUP1 DUP4 SLOAD DIV MUL DUP4 MSTORE SWAP2 PUSH1 0x20 ADD SWAP2 PUSH2 0x1C66 JUMP JUMPDEST PUSH1 0x5 SLOAD JUMPDEST SWAP1 JUMP JUMPDEST CALLER PUSH1 0x0 SWAP1 DUP2 MSTORE PUSH1 0xC PUSH1 0x20 MSTORE PUSH1 0x40 SWAP1 KECCAK256 SLOAD PUSH1 0xFF AND PUSH2 0x2089 JUMPI PUSH1 0x0 DUP1 REVERT JUMPDEST CALLER PUSH1 0x0 SWAP1 DUP2 MSTORE PUSH1 0xF PUSH1 0x20 SWAP1 DUP2 MSTORE PUSH1 0x40 DUP1 DUP4 KECCAK256 PUSH4 0xFFFFFFFF DUP6 AND DUP5 MSTORE SWAP1 SWAP2 MSTORE SWAP1 KECCAK256 SLOAD DUP2 SWAP1 PUSH1 0xFF AND ISZERO PUSH2 0x20B9 JUMPI PUSH1 0x0 DUP1 REVERT JUMPDEST CALLER PUSH1 0x0 SWAP1 DUP2 MSTORE PUSH1 0xF PUSH1 0x20 SWAP1 DUP2 MSTORE PUSH1 0x40 DUP1 DUP4 KECCAK256 PUSH4 0xFFFFFFFF DUP6 DUP2 AND DUP6 MSTORE SWAP1 DUP4 MSTORE DUP2 DUP5 KECCAK256 DUP1 SLOAD PUSH1 0x1 PUSH1 0xFF NOT SWAP1 SWAP2 AND DUP2 OR SWAP1 SWAP2 SSTORE PUSH1 0xE SWAP1 SWAP4 MSTORE SWAP3 KECCAK256 DUP1 SLOAD PUSH4 0xFFFFFFFF NOT DUP2 AND SWAP1 DUP5 AND SWAP1 SWAP3 ADD DUP4 AND SWAP2 SWAP1 SWAP2 OR SWAP1 DUP2 SWAP1 SSTORE PUSH1 0xD SLOAD SWAP1 DUP3 AND PUSH1 0x2 MUL SWAP1 SWAP2 AND LT PUSH2 0x213D JUMPI PUSH4 0xFFFFFFFF DUP2 AND PUSH1 0x0 SWAP1 DUP2 MSTORE PUSH1 0xA PUSH1 0x20 MSTORE PUSH1 0x40 SWAP1 KECCAK256 DUP1 SLOAD PUSH1 0xFF NOT AND PUSH1 0x1 OR SWAP1 SSTORE JUMPDEST PUSH4 0xFFFFFFFF DUP3 AND PUSH1 0x0 SWAP1 DUP2 MSTORE PUSH1 0xA PUSH1 0x20 MSTORE PUSH1 0x40 SWAP1 KECCAK256 SLOAD PUSH1 0xFF AND DUP1 PUSH2 0x2163 JUMPI POP PUSH1 0x0 SLOAD PUSH1 0xFF AND JUMPDEST ISZERO PUSH2 0x2171 JUMPI PUSH2 0x2171 DUP3 PUSH2 0x3419 JUMP JUMPDEST POP POP JUMP JUMPDEST PUSH1 0x9 SLOAD SWAP1 JUMP JUMPDEST PUSH1 0x4 PUSH1 0x20 SWAP1 DUP2 MSTORE PUSH1 0x0 SWAP3 DUP4 MSTORE PUSH1 0x40 SWAP3 DUP4 SWAP1 KECCAK256 DUP3 MLOAD DUP1 DUP5 ADD DUP4 ADD DUP1 MLOAD SWAP3 DUP2 MSTORE SWAP1 DUP4 ADD SWAP4 DUP4 ADD SWAP4 SWAP1 SWAP4 KECCAK256 SWAP3 MSTORE DUP2 SLOAD DUP4 MLOAD PUSH1 0x1F PUSH1 0x2 PUSH1 0x0 NOT PUSH2 0x100 PUSH1 0x1 DUP7 AND ISZERO MUL ADD SWAP1 SWAP4 AND SWAP3 SWAP1 SWAP3 DIV SWAP2 DUP3 ADD DUP4 SWAP1 DIV DUP4 MUL DUP2 ADD DUP4 ADD SWAP1 SWAP5 MSTORE DUP1 DUP5 MSTORE SWAP1 DUP4 ADD DUP3 DUP3 DUP1 ISZERO PUSH2 0x1C66 JUMPI DUP1 PUSH1 0x1F LT PUSH2 0x1C3B JUMPI PUSH2 0x100 DUP1 DUP4 SLOAD DIV MUL DUP4 MSTORE SWAP2 PUSH1 0x20 ADD SWAP2 PUSH2 0x1C66 JUMP JUMPDEST CALLER PUSH1 0x0 SWAP1 DUP2 MSTORE PUSH1 0xC PUSH1 0x20 MSTORE PUSH1 0x40 SWAP1 KECCAK256 SLOAD PUSH1 0xFF AND PUSH2 0x2216 JUMPI PUSH1 0x0 DUP1 REVERT JUMPDEST PUSH1 0x0 DUP4 SWAP1 POP DUP1 PUSH1 0x1 PUSH1 0x1 PUSH1 0xA0 SHL SUB AND PUSH4 0x847B5257 DUP5 DUP5 PUSH1 0x40 MLOAD DUP4 PUSH4 0xFFFFFFFF AND PUSH1 0xE0 SHL DUP2 MSTORE PUSH1 0x4 ADD DUP1 DUP1 PUSH1 0x20 ADD DUP1 PUSH1 0x20 ADD DUP4 DUP2 SUB DUP4 MSTORE DUP6 DUP2 DUP2 MLOAD DUP2 MSTORE PUSH1 0x20 ADD SWAP2 POP DUP1 MLOAD SWAP1 PUSH1 0x20 ADD SWAP1 DUP1 DUP4 DUP4 PUSH1 0x0 JUMPDEST DUP4 DUP2 LT ISZERO PUSH2 0x227C JUMPI DUP2 DUP2 ADD MLOAD DUP4 DUP3 ADD MSTORE PUSH1 0x20 ADD PUSH2 0x2264 JUMP JUMPDEST POP POP POP POP SWAP1 POP SWAP1 DUP2 ADD SWAP1 PUSH1 0x1F AND DUP1 ISZERO PUSH2 0x22A9 JUMPI DUP1 DUP3 SUB DUP1 MLOAD PUSH1 0x1 DUP4 PUSH1 0x20 SUB PUSH2 0x100 EXP SUB NOT AND DUP2 MSTORE PUSH1 0x20 ADD SWAP2 POP JUMPDEST POP DUP4 DUP2 SUB DUP3 MSTORE DUP5 MLOAD DUP2 MSTORE DUP5 MLOAD PUSH1 0x20 SWAP2 DUP3 ADD SWAP2 DUP7 ADD SWAP1 DUP1 DUP4 DUP4 PUSH1 0x0 JUMPDEST DUP4 DUP2 LT ISZERO PUSH2 0x22DC JUMPI DUP2 DUP2 ADD MLOAD DUP4 DUP3 ADD MSTORE PUSH1 0x20 ADD PUSH2 0x22C4 JUMP JUMPDEST POP POP POP POP SWAP1 POP SWAP1 DUP2 ADD SWAP1 PUSH1 0x1F AND DUP1 ISZERO PUSH2 0x2309 JUMPI DUP1 DUP3 SUB DUP1 MLOAD PUSH1 0x1 DUP4 PUSH1 0x20 SUB PUSH2 0x100 EXP SUB NOT AND DUP2 MSTORE PUSH1 0x20 ADD SWAP2 POP JUMPDEST POP SWAP5 POP POP POP POP POP PUSH1 0x0 PUSH1 0x40 MLOAD DUP1 DUP4 SUB DUP2 PUSH1 0x0 DUP8 DUP1 EXTCODESIZE ISZERO DUP1 ISZERO PUSH2 0x232A JUMPI PUSH1 0x0 DUP1 REVERT JUMPDEST POP GAS CALL ISZERO DUP1 ISZERO PUSH2 0x233E JUMPI RETURNDATASIZE PUSH1 0x0 DUP1 RETURNDATACOPY RETURNDATASIZE PUSH1 0x0 REVERT JUMPDEST POP POP POP POP POP POP POP POP JUMP JUMPDEST CALLER PUSH1 0x0 SWAP1 DUP2 MSTORE PUSH1 0xC PUSH1 0x20 MSTORE PUSH1 0x40 SWAP1 KECCAK256 SLOAD PUSH1 0xFF AND PUSH2 0x2364 JUMPI PUSH1 0x0 DUP1 REVERT JUMPDEST DUP1 PUSH1 0x1 PUSH1 0x1 PUSH1 0xA0 SHL SUB DUP2 AND PUSH2 0x2378 JUMPI PUSH1 0x0 DUP1 REVERT JUMPDEST POP PUSH1 0x1 PUSH1 0x1 PUSH1 0xA0 SHL SUB AND PUSH1 0x0 DUP2 DUP2 MSTORE PUSH1 0xC PUSH1 0x20 MSTORE PUSH1 0x40 DUP2 KECCAK256 DUP1 SLOAD PUSH1 0xFF NOT AND PUSH1 0x1 SWAP1 DUP2 OR SWAP1 SWAP2 SSTORE PUSH1 0xD DUP1 SLOAD SWAP2 DUP3 ADD DUP2 SSTORE SWAP1 SWAP2 MSTORE PUSH32 0xD7B6990105719101DABEB77144F2A3385C8033ACD3AF97E9423A695E81AD1EB5 ADD DUP1 SLOAD PUSH1 0x1 PUSH1 0x1 PUSH1 0xA0 SHL SUB NOT AND SWAP1 SWAP2 OR SWAP1 SSTORE JUMP JUMPDEST PUSH1 0x0 PUSH1 0x9 DUP3 PUSH4 0xFFFFFFFF AND DUP2 SLOAD DUP2 LT PUSH2 0x23F4 JUMPI INVALID JUMPDEST PUSH1 0x0 SWAP2 DUP3 MSTORE PUSH1 0x20 SWAP1 SWAP2 KECCAK256 PUSH1 0x3 PUSH1 0x6 SWAP1 SWAP3 MUL ADD ADD SLOAD SWAP3 SWAP2 POP POP JUMP JUMPDEST CALLER PUSH1 0x0 SWAP1 DUP2 MSTORE PUSH1 0xC PUSH1 0x20 MSTORE PUSH1 0x40 SWAP1 KECCAK256 SLOAD PUSH1 0xFF AND PUSH2 0x242A JUMPI PUSH1 0x0 DUP1 REVERT JUMPDEST PUSH1 0xB DUP2 PUSH4 0xFFFFFFFF AND DUP2 SLOAD DUP2 LT PUSH2 0x243D JUMPI INVALID JUMPDEST PUSH1 0x0 SWAP2 DUP3 MSTORE PUSH1 0x20 SWAP1 SWAP2 KECCAK256 PUSH1 0x5 PUSH1 0x6 SWAP1 SWAP3 MUL ADD ADD SLOAD PUSH1 0xFF AND ISZERO PUSH2 0x245E JUMPI PUSH1 0x0 DUP1 REVERT JUMPDEST PUSH1 0x0 PUSH1 0xB DUP3 PUSH4 0xFFFFFFFF AND DUP2 SLOAD DUP2 LT PUSH2 0x2473 JUMPI INVALID JUMPDEST PUSH1 0x0 SWAP2 DUP3 MSTORE PUSH1 0x20 DUP3 KECCAK256 PUSH1 0x1 PUSH1 0x6 SWAP1 SWAP3 MUL ADD ADD SLOAD PUSH1 0xB DUP1 SLOAD PUSH1 0x1 PUSH1 0x1 PUSH1 0xA0 SHL SUB SWAP1 SWAP3 AND SWAP4 POP DUP4 SWAP2 PUSH4 0xC09BC35B SWAP2 SWAP1 PUSH4 0xFFFFFFFF DUP8 AND SWAP1 DUP2 LT PUSH2 0x24B0 JUMPI INVALID JUMPDEST PUSH1 0x0 SWAP2 DUP3 MSTORE PUSH1 0x20 SWAP2 DUP3 SWAP1 KECCAK256 PUSH1 0x40 MLOAD PUSH1 0x1 PUSH1 0x1 PUSH1 0xE0 SHL SUB NOT PUSH1 0xE0 DUP7 SWAP1 SHL AND DUP2 MSTORE PUSH1 0x4 DUP2 ADD SWAP4 DUP5 MSTORE PUSH1 0x2 PUSH1 0x6 SWAP1 SWAP4 MUL SWAP1 SWAP2 ADD DUP3 ADD DUP1 SLOAD PUSH1 0x0 NOT PUSH2 0x100 PUSH1 0x1 DUP4 AND ISZERO MUL ADD AND SWAP3 SWAP1 SWAP3 DIV PUSH1 0x24 DUP3 ADD DUP2 SWAP1 MSTORE SWAP2 SWAP3 SWAP2 DUP3 SWAP2 PUSH1 0x44 ADD SWAP1 DUP5 SWAP1 DUP1 ISZERO PUSH2 0x2555 JUMPI DUP1 PUSH1 0x1F LT PUSH2 0x252A JUMPI PUSH2 0x100 DUP1 DUP4 SLOAD DIV MUL DUP4 MSTORE SWAP2 PUSH1 0x20 ADD SWAP2 PUSH2 0x2555 JUMP JUMPDEST DUP3 ADD SWAP2 SWAP1 PUSH1 0x0 MSTORE PUSH1 0x20 PUSH1 0x0 KECCAK256 SWAP1 JUMPDEST DUP2 SLOAD DUP2 MSTORE SWAP1 PUSH1 0x1 ADD SWAP1 PUSH1 0x20 ADD DUP1 DUP4 GT PUSH2 0x2538 JUMPI DUP3 SWAP1 SUB PUSH1 0x1F AND DUP3 ADD SWAP2 JUMPDEST POP POP SWAP3 POP POP POP PUSH1 0x20 PUSH1 0x40 MLOAD DUP1 DUP4 SUB DUP2 PUSH1 0x0 DUP8 DUP1 EXTCODESIZE ISZERO DUP1 ISZERO PUSH2 0x2575 JUMPI PUSH1 0x0 DUP1 REVERT JUMPDEST POP GAS CALL ISZERO DUP1 ISZERO PUSH2 0x2589 JUMPI RETURNDATASIZE PUSH1 0x0 DUP1 RETURNDATACOPY RETURNDATASIZE PUSH1 0x0 REVERT JUMPDEST POP POP POP POP PUSH1 0x40 MLOAD RETURNDATASIZE PUSH1 0x20 DUP2 LT ISZERO PUSH2 0x259F JUMPI PUSH1 0x0 DUP1 REVERT JUMPDEST POP MLOAD SWAP1 POP PUSH1 0x0 JUMPDEST PUSH1 0xB DUP5 PUSH4 0xFFFFFFFF AND DUP2 SLOAD DUP2 LT PUSH2 0x25B9 JUMPI INVALID JUMPDEST SWAP1 PUSH1 0x0 MSTORE PUSH1 0x20 PUSH1 0x0 KECCAK256 SWAP1 PUSH1 0x6 MUL ADD PUSH1 0x3 ADD DUP1 SLOAD SWAP1 POP DUP2 PUSH4 0xFFFFFFFF AND LT ISZERO PUSH2 0x27CB JUMPI DUP3 PUSH1 0x1 PUSH1 0x1 PUSH1 0xA0 SHL SUB AND PUSH4 0x928EC3E5 PUSH1 0xB DUP7 PUSH4 0xFFFFFFFF AND DUP2 SLOAD DUP2 LT PUSH2 0x25FD JUMPI INVALID JUMPDEST SWAP1 PUSH1 0x0 MSTORE PUSH1 0x20 PUSH1 0x0 KECCAK256 SWAP1 PUSH1 0x6 MUL ADD PUSH1 0x3 ADD DUP4 PUSH4 0xFFFFFFFF AND DUP2 SLOAD DUP2 LT PUSH2 0x261F JUMPI INVALID JUMPDEST SWAP1 PUSH1 0x0 MSTORE PUSH1 0x20 PUSH1 0x0 KECCAK256 ADD PUSH1 0xB DUP8 PUSH4 0xFFFFFFFF AND DUP2 SLOAD DUP2 LT PUSH2 0x263C JUMPI INVALID JUMPDEST SWAP1 PUSH1 0x0 MSTORE PUSH1 0x20 PUSH1 0x0 KECCAK256 SWAP1 PUSH1 0x6 MUL ADD PUSH1 0x4 ADD DUP5 PUSH4 0xFFFFFFFF AND DUP2 SLOAD DUP2 LT PUSH2 0x265E JUMPI INVALID JUMPDEST PUSH1 0x0 SWAP2 DUP3 MSTORE PUSH1 0x20 SWAP1 SWAP2 KECCAK256 PUSH1 0x40 MLOAD PUSH1 0x1 PUSH1 0x1 PUSH1 0xE0 SHL SUB NOT PUSH1 0xE0 DUP7 SWAP1 SHL AND DUP2 MSTORE PUSH4 0xFFFFFFFF DUP9 AND PUSH1 0x44 DUP3 ADD MSTORE PUSH1 0x60 PUSH1 0x4 DUP3 ADD SWAP1 DUP2 MSTORE DUP5 SLOAD PUSH1 0x2 PUSH1 0x0 NOT PUSH2 0x100 PUSH1 0x1 DUP5 AND ISZERO MUL ADD SWAP1 SWAP2 AND DIV PUSH1 0x64 DUP4 ADD DUP2 SWAP1 MSTORE SWAP3 SWAP1 SWAP4 ADD SWAP3 DUP9 SWAP3 SWAP1 SWAP2 DUP3 SWAP2 PUSH1 0x24 DUP3 ADD SWAP2 PUSH1 0x84 ADD SWAP1 DUP8 SWAP1 DUP1 ISZERO PUSH2 0x2710 JUMPI DUP1 PUSH1 0x1F LT PUSH2 0x26E5 JUMPI PUSH2 0x100 DUP1 DUP4 SLOAD DIV MUL DUP4 MSTORE SWAP2 PUSH1 0x20 ADD SWAP2 PUSH2 0x2710 JUMP JUMPDEST DUP3 ADD SWAP2 SWAP1 PUSH1 0x0 MSTORE PUSH1 0x20 PUSH1 0x0 KECCAK256 SWAP1 JUMPDEST DUP2 SLOAD DUP2 MSTORE SWAP1 PUSH1 0x1 ADD SWAP1 PUSH1 0x20 ADD DUP1 DUP4 GT PUSH2 0x26F3 JUMPI DUP3 SWAP1 SUB PUSH1 0x1F AND DUP3 ADD SWAP2 JUMPDEST POP POP DUP4 DUP2 SUB DUP3 MSTORE DUP6 SLOAD PUSH1 0x2 PUSH1 0x0 NOT PUSH2 0x100 PUSH1 0x1 DUP5 AND ISZERO MUL ADD SWAP1 SWAP2 AND DIV DUP1 DUP3 MSTORE PUSH1 0x20 SWAP1 SWAP2 ADD SWAP1 DUP7 SWAP1 DUP1 ISZERO PUSH2 0x2784 JUMPI DUP1 PUSH1 0x1F LT PUSH2 0x2759 JUMPI PUSH2 0x100 DUP1 DUP4 SLOAD DIV MUL DUP4 MSTORE SWAP2 PUSH1 0x20 ADD SWAP2 PUSH2 0x2784 JUMP JUMPDEST DUP3 ADD SWAP2 SWAP1 PUSH1 0x0 MSTORE PUSH1 0x20 PUSH1 0x0 KECCAK256 SWAP1 JUMPDEST DUP2 SLOAD DUP2 MSTORE SWAP1 PUSH1 0x1 ADD SWAP1 PUSH1 0x20 ADD DUP1 DUP4 GT PUSH2 0x2767 JUMPI DUP3 SWAP1 SUB PUSH1 0x1F AND DUP3 ADD SWAP2 JUMPDEST POP POP SWAP6 POP POP POP POP POP POP PUSH1 0x0 PUSH1 0x40 MLOAD DUP1 DUP4 SUB DUP2 PUSH1 0x0 DUP8 DUP1 EXTCODESIZE ISZERO DUP1 ISZERO PUSH2 0x27A7 JUMPI PUSH1 0x0 DUP1 REVERT JUMPDEST POP GAS CALL ISZERO DUP1 ISZERO PUSH2 0x27BB JUMPI RETURNDATASIZE PUSH1 0x0 DUP1 RETURNDATACOPY RETURNDATASIZE PUSH1 0x0 REVERT JUMPDEST POP POP PUSH1 0x1 SWAP1 SWAP3 ADD SWAP2 POP PUSH2 0x25A6 SWAP1 POP JUMP JUMPDEST POP PUSH1 0x1 PUSH1 0xB DUP5 PUSH4 0xFFFFFFFF AND DUP2 SLOAD DUP2 LT PUSH2 0x27E1 JUMPI INVALID JUMPDEST PUSH1 0x0 SWAP2 DUP3 MSTORE PUSH1 0x20 SWAP1 SWAP2 KECCAK256 PUSH1 0x6 SWAP1 SWAP2 MUL ADD PUSH1 0x5 ADD DUP1 SLOAD PUSH1 0xFF NOT AND SWAP2 ISZERO ISZERO SWAP2 SWAP1 SWAP2 OR SWAP1 SSTORE POP POP POP JUMP JUMPDEST CALLER PUSH1 0x0 SWAP1 DUP2 MSTORE PUSH1 0x8 PUSH1 0x20 MSTORE PUSH1 0x40 SWAP1 DUP2 SWAP1 KECCAK256 SWAP1 MLOAD DUP6 SWAP1 DUP6 SWAP1 DUP1 DUP4 DUP4 DUP1 DUP3 DUP5 CALLDATACOPY SWAP2 SWAP1 SWAP2 ADD SWAP5 DUP6 MSTORE POP POP PUSH1 0x40 MLOAD SWAP3 DUP4 SWAP1 SUB PUSH1 0x20 ADD SWAP1 SWAP3 KECCAK256 SLOAD PUSH1 0xFF AND SWAP2 POP PUSH2 0x284D SWAP1 POP JUMPI PUSH1 0x0 DUP1 REVERT JUMPDEST CALLER PUSH1 0x0 SWAP1 DUP2 MSTORE PUSH1 0x4 PUSH1 0x20 MSTORE PUSH1 0x40 SWAP1 DUP2 SWAP1 KECCAK256 SWAP1 MLOAD DUP4 SWAP2 DUP4 SWAP2 DUP8 SWAP1 DUP8 SWAP1 DUP1 DUP4 DUP4 DUP1 DUP3 DUP5 CALLDATACOPY DUP1 DUP4 ADD SWAP3 POP POP POP SWAP3 POP POP POP SWAP1 DUP2 MSTORE PUSH1 0x20 ADD PUSH1 0x40 MLOAD DUP1 SWAP2 SUB SWAP1 KECCAK256 SWAP2 SWAP1 PUSH2 0x2895 SWAP3 SWAP2 SWAP1 PUSH2 0x3F26 JUMP JUMPDEST POP POP POP POP POP JUMP JUMPDEST PUSH1 0x1 DUP2 JUMP JUMPDEST CALLER PUSH1 0x0 SWAP1 DUP2 MSTORE PUSH1 0xC PUSH1 0x20 MSTORE PUSH1 0x40 SWAP1 KECCAK256 SLOAD PUSH1 0xFF AND PUSH2 0x28BD JUMPI PUSH1 0x0 DUP1 REVERT JUMPDEST PUSH1 0x8 PUSH1 0x0 DUP5 PUSH1 0x1 PUSH1 0x1 PUSH1 0xA0 SHL SUB AND PUSH1 0x1 PUSH1 0x1 PUSH1 0xA0 SHL SUB AND DUP2 MSTORE PUSH1 0x20 ADD SWAP1 DUP2 MSTORE PUSH1 0x20 ADD PUSH1 0x0 KECCAK256 DUP3 PUSH1 0x40 MLOAD DUP1 DUP3 DUP1 MLOAD SWAP1 PUSH1 0x20 ADD SWAP1 DUP1 DUP4 DUP4 JUMPDEST PUSH1 0x20 DUP4 LT PUSH2 0x2912 JUMPI DUP1 MLOAD DUP3 MSTORE PUSH1 0x1F NOT SWAP1 SWAP3 ADD SWAP2 PUSH1 0x20 SWAP2 DUP3 ADD SWAP2 ADD PUSH2 0x28F3 JUMP JUMPDEST MLOAD DUP2 MLOAD PUSH1 0x20 SWAP4 DUP5 SUB PUSH2 0x100 EXP PUSH1 0x0 NOT ADD DUP1 NOT SWAP1 SWAP3 AND SWAP2 AND OR SWAP1 MSTORE SWAP3 ADD SWAP5 DUP6 MSTORE POP PUSH1 0x40 MLOAD SWAP4 DUP5 SWAP1 SUB ADD SWAP1 SWAP3 KECCAK256 SLOAD PUSH1 0xFF AND SWAP2 POP PUSH2 0x294E SWAP1 POP JUMPI PUSH1 0x0 DUP1 REVERT JUMPDEST DUP1 PUSH1 0x3 PUSH1 0x0 DUP6 PUSH1 0x1 PUSH1 0x1 PUSH1 0xA0 SHL SUB AND PUSH1 0x1 PUSH1 0x1 PUSH1 0xA0 SHL SUB AND DUP2 MSTORE PUSH1 0x20 ADD SWAP1 DUP2 MSTORE PUSH1 0x20 ADD PUSH1 0x0 KECCAK256 DUP4 PUSH1 0x40 MLOAD DUP1 DUP3 DUP1 MLOAD SWAP1 PUSH1 0x20 ADD SWAP1 DUP1 DUP4 DUP4 JUMPDEST PUSH1 0x20 DUP4 LT PUSH2 0x29A4 JUMPI DUP1 MLOAD DUP3 MSTORE PUSH1 0x1F NOT SWAP1 SWAP3 ADD SWAP2 PUSH1 0x20 SWAP2 DUP3 ADD SWAP2 ADD PUSH2 0x2985 JUMP JUMPDEST MLOAD DUP2 MLOAD PUSH1 0x20 SWAP4 DUP5 SUB PUSH2 0x100 EXP PUSH1 0x0 NOT ADD DUP1 NOT SWAP1 SWAP3 AND SWAP2 AND OR SWAP1 MSTORE SWAP3 ADD SWAP5 DUP6 MSTORE POP PUSH1 0x40 MLOAD SWAP4 DUP5 SWAP1 SUB DUP2 ADD SWAP1 SWAP4 KECCAK256 DUP5 MLOAD PUSH2 0x29E5 SWAP6 SWAP2 SWAP5 SWAP2 SWAP1 SWAP2 ADD SWAP3 POP SWAP1 POP PUSH2 0x3FA4 JUMP JUMPDEST POP POP POP POP JUMP JUMPDEST CALLER PUSH1 0x0 SWAP1 DUP2 MSTORE PUSH1 0xC PUSH1 0x20 MSTORE PUSH1 0x40 SWAP1 KECCAK256 SLOAD PUSH1 0xFF AND PUSH2 0x2A07 JUMPI PUSH1 0x0 DUP1 REVERT JUMPDEST PUSH2 0x2A0F PUSH2 0x4012 JUMP JUMPDEST PUSH1 0x1 PUSH1 0x1 PUSH1 0xA0 SHL SUB DUP7 AND PUSH1 0x20 DUP3 DUP2 ADD DUP3 SWAP1 MSTORE PUSH1 0x40 DUP1 DUP5 ADD DUP9 SWAP1 MSTORE PUSH1 0x0 PUSH1 0xA0 DUP6 ADD DUP2 SWAP1 MSTORE PUSH1 0xB SLOAD SWAP4 DUP2 MSTORE PUSH1 0x1 SWAP1 SWAP3 MSTORE SWAP1 KECCAK256 DUP1 SLOAD PUSH4 0xFFFFFFFF NOT AND PUSH4 0xFFFFFFFF SWAP1 SWAP3 AND SWAP2 SWAP1 SWAP2 OR SWAP1 SSTORE PUSH2 0x2A5E PUSH2 0x405C JUMP JUMPDEST PUSH2 0x2A67 DUP6 PUSH2 0x3CAE JUMP JUMPDEST SWAP1 POP PUSH2 0x2A71 PUSH2 0x405C JUMP JUMPDEST PUSH2 0x2A7A DUP6 PUSH2 0x3CAE JUMP JUMPDEST SWAP1 POP PUSH2 0x2A84 PUSH2 0x405C JUMP JUMPDEST PUSH2 0x2AA6 PUSH1 0x40 MLOAD DUP1 PUSH1 0x40 ADD PUSH1 0x40 MSTORE DUP1 PUSH1 0x1 DUP2 MSTORE PUSH1 0x20 ADD PUSH1 0xB PUSH1 0xFA SHL DUP2 MSTORE POP PUSH2 0x3CAE JUMP JUMPDEST SWAP1 POP PUSH1 0x0 PUSH2 0x2ABA DUP5 DUP4 PUSH4 0xFFFFFFFF PUSH2 0x3CD3 AND JUMP JUMPDEST PUSH1 0x1 ADD SWAP1 POP DUP1 PUSH4 0xFFFFFFFF AND PUSH8 0xFFFFFFFFFFFFFFFF DUP2 GT DUP1 ISZERO PUSH2 0x2ADC JUMPI PUSH1 0x0 DUP1 REVERT JUMPDEST POP PUSH1 0x40 MLOAD SWAP1 DUP1 DUP3 MSTORE DUP1 PUSH1 0x20 MUL PUSH1 0x20 ADD DUP3 ADD PUSH1 0x40 MSTORE DUP1 ISZERO PUSH2 0x2B10 JUMPI DUP2 PUSH1 0x20 ADD JUMPDEST PUSH1 0x60 DUP2 MSTORE PUSH1 0x20 ADD SWAP1 PUSH1 0x1 SWAP1 SUB SWAP1 DUP2 PUSH2 0x2AFB JUMPI SWAP1 POP JUMPDEST POP PUSH1 0x60 DUP7 ADD MSTORE PUSH4 0xFFFFFFFF DUP2 AND PUSH8 0xFFFFFFFFFFFFFFFF DUP2 GT DUP1 ISZERO PUSH2 0x2B33 JUMPI PUSH1 0x0 DUP1 REVERT JUMPDEST POP PUSH1 0x40 MLOAD SWAP1 DUP1 DUP3 MSTORE DUP1 PUSH1 0x20 MUL PUSH1 0x20 ADD DUP3 ADD PUSH1 0x40 MSTORE DUP1 ISZERO PUSH2 0x2B67 JUMPI DUP2 PUSH1 0x20 ADD JUMPDEST PUSH1 0x60 DUP2 MSTORE PUSH1 0x20 ADD SWAP1 PUSH1 0x1 SWAP1 SUB SWAP1 DUP2 PUSH2 0x2B52 JUMPI SWAP1 POP JUMPDEST POP PUSH1 0x80 DUP7 ADD MSTORE PUSH1 0x0 JUMPDEST DUP2 PUSH4 0xFFFFFFFF AND DUP2 PUSH4 0xFFFFFFFF AND LT ISZERO PUSH2 0x2C05 JUMPI PUSH1 0x60 PUSH2 0x2B9E PUSH2 0x2B99 DUP8 DUP7 PUSH4 0xFFFFFFFF PUSH2 0x3D40 AND JUMP JUMPDEST PUSH2 0x3D53 JUMP JUMPDEST SWAP1 POP PUSH1 0x60 PUSH2 0x2BB5 PUSH2 0x2B99 DUP8 DUP8 PUSH4 0xFFFFFFFF PUSH2 0x3D40 AND JUMP JUMPDEST SWAP1 POP DUP2 DUP9 PUSH1 0x60 ADD MLOAD DUP5 PUSH4 0xFFFFFFFF AND DUP2 MLOAD DUP2 LT PUSH2 0x2BCE JUMPI INVALID JUMPDEST PUSH1 0x20 MUL PUSH1 0x20 ADD ADD DUP2 SWAP1 MSTORE POP DUP1 DUP9 PUSH1 0x80 ADD MLOAD DUP5 PUSH4 0xFFFFFFFF AND DUP2 MLOAD DUP2 LT PUSH2 0x2BF0 JUMPI INVALID JUMPDEST PUSH1 0x20 SWAP1 DUP2 MUL SWAP2 SWAP1 SWAP2 ADD ADD MSTORE POP POP PUSH1 0x1 ADD PUSH2 0x2B70 JUMP JUMPDEST POP PUSH1 0xB DUP1 SLOAD PUSH1 0x1 DUP2 ADD DUP3 SSTORE PUSH1 0x0 SWAP2 SWAP1 SWAP2 MSTORE DUP6 MLOAD PUSH32 0x175B7A638427703F0DBE7BB9BBF987A2551717B34E79F33B5B1008D1FA01DB9 PUSH1 0x6 SWAP1 SWAP3 MUL SWAP2 DUP3 ADD DUP1 SLOAD PUSH1 0x1 PUSH1 0x1 PUSH1 0xA0 SHL SUB NOT SWAP1 DUP2 AND PUSH1 0x1 PUSH1 0x1 PUSH1 0xA0 SHL SUB SWAP4 DUP5 AND OR DUP3 SSTORE PUSH1 0x20 DUP1 DUP11 ADD MLOAD PUSH32 0x175B7A638427703F0DBE7BB9BBF987A2551717B34E79F33B5B1008D1FA01DBA DUP7 ADD DUP1 SLOAD SWAP1 SWAP4 AND SWAP5 AND SWAP4 SWAP1 SWAP4 OR SWAP1 SSTORE PUSH1 0x40 DUP9 ADD MLOAD DUP1 MLOAD DUP10 SWAP5 SWAP3 SWAP4 PUSH2 0x2CCC SWAP4 PUSH32 0x175B7A638427703F0DBE7BB9BBF987A2551717B34E79F33B5B1008D1FA01DBB ADD SWAP3 ADD SWAP1 PUSH2 0x3FA4 JUMP JUMPDEST POP PUSH1 0x60 DUP3 ADD MLOAD DUP1 MLOAD PUSH2 0x2CE8 SWAP2 PUSH1 0x3 DUP5 ADD SWAP2 PUSH1 0x20 SWAP1 SWAP2 ADD SWAP1 PUSH2 0x4076 JUMP JUMPDEST POP PUSH1 0x80 DUP3 ADD MLOAD DUP1 MLOAD PUSH2 0x2D04 SWAP2 PUSH1 0x4 DUP5 ADD SWAP2 PUSH1 0x20 SWAP1 SWAP2 ADD SWAP1 PUSH2 0x4076 JUMP JUMPDEST POP PUSH1 0xA0 SWAP2 SWAP1 SWAP2 ADD MLOAD PUSH1 0x5 SWAP1 SWAP2 ADD DUP1 SLOAD PUSH1 0xFF NOT AND SWAP2 ISZERO ISZERO SWAP2 SWAP1 SWAP2 OR SWAP1 SSTORE DUP6 ISZERO PUSH2 0x2D36 JUMPI PUSH1 0xB SLOAD PUSH2 0x2D36 SWAP1 PUSH1 0x0 NOT ADD PUSH2 0x240E JUMP JUMPDEST POP POP POP POP POP POP POP POP POP POP JUMP JUMPDEST CALLER PUSH1 0x0 SWAP1 DUP2 MSTORE PUSH1 0xC PUSH1 0x20 MSTORE PUSH1 0x40 SWAP1 KECCAK256 SLOAD PUSH1 0xFF AND PUSH2 0x2D5E JUMPI PUSH1 0x0 DUP1 REVERT JUMPDEST PUSH1 0x40 DUP1 MLOAD PUSH4 0x4F2BCBEF PUSH1 0xE0 SHL DUP2 MSTORE PUSH4 0xFFFFFFFF DUP4 AND PUSH1 0x4 DUP3 ADD MSTORE SWAP1 MLOAD DUP4 SWAP2 PUSH1 0x1 PUSH1 0x1 PUSH1 0xA0 SHL SUB DUP4 AND SWAP2 PUSH4 0x4F2BCBEF SWAP2 PUSH1 0x24 DUP1 DUP3 ADD SWAP3 PUSH1 0x0 SWAP3 SWAP1 SWAP2 SWAP1 DUP3 SWAP1 SUB ADD DUP2 DUP4 DUP8 DUP1 EXTCODESIZE ISZERO DUP1 ISZERO PUSH2 0x2DAE JUMPI PUSH1 0x0 DUP1 REVERT JUMPDEST POP GAS CALL ISZERO DUP1 ISZERO PUSH2 0x2DC2 JUMPI RETURNDATASIZE PUSH1 0x0 DUP1 RETURNDATACOPY RETURNDATASIZE PUSH1 0x0 REVERT JUMPDEST POP POP POP POP POP POP POP JUMP JUMPDEST PUSH1 0x9 DUP2 DUP2 SLOAD DUP2 LT PUSH2 0x2DD8 JUMPI INVALID JUMPDEST PUSH1 0x0 SWAP2 DUP3 MSTORE PUSH1 0x20 SWAP2 DUP3 SWAP1 KECCAK256 PUSH1 0x6 SWAP1 SWAP2 MUL ADD DUP1 SLOAD PUSH1 0x1 DUP1 DUP4 ADD SLOAD PUSH1 0x2 DUP1 DUP6 ADD DUP1 SLOAD PUSH1 0x40 DUP1 MLOAD PUSH1 0x1F PUSH1 0x0 NOT SWAP8 DUP5 AND ISZERO PUSH2 0x100 MUL SWAP8 SWAP1 SWAP8 ADD SWAP1 SWAP3 AND SWAP4 SWAP1 SWAP4 DIV SWAP5 DUP6 ADD DUP9 SWAP1 DIV DUP9 MUL DUP2 ADD DUP9 ADD SWAP1 SWAP3 MSTORE DUP4 DUP3 MSTORE PUSH1 0x1 PUSH1 0x1 PUSH1 0xA0 SHL SUB SWAP5 DUP6 AND SWAP8 POP SWAP2 SWAP1 SWAP4 AND SWAP5 SWAP1 SWAP2 SWAP1 DUP4 ADD DUP3 DUP3 DUP1 ISZERO PUSH2 0x2E8C JUMPI DUP1 PUSH1 0x1F LT PUSH2 0x2E61 JUMPI PUSH2 0x100 DUP1 DUP4 SLOAD DIV MUL DUP4 MSTORE SWAP2 PUSH1 0x20 ADD SWAP2 PUSH2 0x2E8C JUMP JUMPDEST DUP3 ADD SWAP2 SWAP1 PUSH1 0x0 MSTORE PUSH1 0x20 PUSH1 0x0 KECCAK256 SWAP1 JUMPDEST DUP2 SLOAD DUP2 MSTORE SWAP1 PUSH1 0x1 ADD SWAP1 PUSH1 0x20 ADD DUP1 DUP4 GT PUSH2 0x2E6F JUMPI DUP3 SWAP1 SUB PUSH1 0x1F AND DUP3 ADD SWAP2 JUMPDEST POP POP POP PUSH1 0x5 SWAP1 SWAP4 ADD SLOAD SWAP2 SWAP3 POP POP PUSH1 0xFF AND DUP5 JUMP JUMPDEST PUSH1 0x9 DUP2 PUSH4 0xFFFFFFFF AND DUP2 SLOAD DUP2 LT PUSH2 0x2EB2 JUMPI INVALID JUMPDEST PUSH1 0x0 SWAP2 DUP3 MSTORE PUSH1 0x20 DUP1 DUP4 KECCAK256 PUSH1 0x4 PUSH1 0x6 SWAP1 SWAP4 MUL ADD SWAP2 SWAP1 SWAP2 ADD DUP1 SLOAD PUSH1 0x1 DUP2 ADD DUP3 SSTORE SWAP1 DUP4 MSTORE SWAP2 KECCAK256 PUSH2 0x2EE1 SWAP2 ADD DUP5 DUP5 PUSH2 0x3F26 JUMP JUMPDEST POP PUSH1 0x9 DUP2 PUSH4 0xFFFFFFFF AND DUP2 SLOAD DUP2 LT PUSH2 0x2EF5 JUMPI INVALID JUMPDEST PUSH1 0x0 SWAP2 DUP3 MSTORE PUSH1 0x20 DUP1 DUP4 KECCAK256 PUSH1 0x3 PUSH1 0x6 SWAP1 SWAP4 MUL ADD SWAP2 SWAP1 SWAP2 ADD DUP1 SLOAD PUSH1 0x1 DUP2 ADD DUP3 SSTORE SWAP1 DUP4 MSTORE SWAP2 KECCAK256 PUSH2 0x2F24 SWAP2 ADD DUP7 DUP7 PUSH2 0x3F26 JUMP JUMPDEST POP POP POP POP POP POP JUMP JUMPDEST PUSH1 0x0 PUSH1 0xB DUP3 PUSH4 0xFFFFFFFF AND DUP2 SLOAD DUP2 LT PUSH2 0x23F4 JUMPI INVALID JUMPDEST PUSH1 0xB DUP2 DUP2 SLOAD DUP2 LT PUSH2 0x2DD8 JUMPI INVALID JUMPDEST PUSH1 0x8 PUSH1 0x20 SWAP1 DUP2 MSTORE PUSH1 0x0 SWAP3 DUP4 MSTORE PUSH1 0x40 SWAP1 SWAP3 KECCAK256 DUP2 MLOAD DUP1 DUP4 ADD DUP5 ADD DUP1 MLOAD SWAP3 DUP2 MSTORE SWAP1 DUP5 ADD SWAP3 SWAP1 SWAP4 ADD SWAP2 SWAP1 SWAP2 KECCAK256 SWAP2 MSTORE SLOAD PUSH1 0xFF AND DUP2 JUMP JUMPDEST PUSH1 0x0 PUSH2 0x2F89 PUSH2 0x4012 JUMP JUMPDEST CALLER DUP2 MSTORE PUSH1 0x40 DUP1 MLOAD PUSH1 0x20 PUSH1 0x1F DUP7 ADD DUP2 SWAP1 DIV DUP2 MUL DUP3 ADD DUP2 ADD SWAP1 SWAP3 MSTORE DUP5 DUP2 MSTORE SWAP1 DUP6 SWAP1 DUP6 SWAP1 DUP2 SWAP1 DUP5 ADD DUP4 DUP3 DUP1 DUP3 DUP5 CALLDATACOPY PUSH1 0x0 SWAP3 ADD DUP3 SWAP1 MSTORE POP PUSH1 0x40 DUP7 ADD SWAP5 DUP6 MSTORE PUSH1 0xA0 DUP7 ADD DUP2 SWAP1 MSTORE PUSH1 0x9 DUP1 SLOAD PUSH1 0x1 DUP2 ADD DUP3 SSTORE SWAP2 MSTORE DUP6 MLOAD PUSH32 0x6E1540171B6C0C960B71A7020D9F60077F6AF931A8BBF590DA0223DACF75C7AF PUSH1 0x6 SWAP1 SWAP3 MUL SWAP2 DUP3 ADD DUP1 SLOAD PUSH1 0x1 PUSH1 0x1 PUSH1 0xA0 SHL SUB NOT SWAP1 DUP2 AND PUSH1 0x1 PUSH1 0x1 PUSH1 0xA0 SHL SUB SWAP4 DUP5 AND OR DUP3 SSTORE PUSH1 0x20 DUP1 DUP11 ADD MLOAD PUSH32 0x6E1540171B6C0C960B71A7020D9F60077F6AF931A8BBF590DA0223DACF75C7B0 DUP7 ADD DUP1 SLOAD SWAP1 SWAP4 AND SWAP5 AND SWAP4 SWAP1 SWAP4 OR SWAP1 SSTORE SWAP6 MLOAD DUP1 MLOAD DUP9 SWAP8 SWAP7 POP PUSH2 0x308D SWAP6 POP PUSH32 0x6E1540171B6C0C960B71A7020D9F60077F6AF931A8BBF590DA0223DACF75C7B1 SWAP1 SWAP4 ADD SWAP4 POP ADD SWAP1 PUSH2 0x3FA4 JUMP JUMPDEST POP PUSH1 0x60 DUP3 ADD MLOAD DUP1 MLOAD PUSH2 0x30A9 SWAP2 PUSH1 0x3 DUP5 ADD SWAP2 PUSH1 0x20 SWAP1 SWAP2 ADD SWAP1 PUSH2 0x4076 JUMP JUMPDEST POP PUSH1 0x80 DUP3 ADD MLOAD DUP1 MLOAD PUSH2 0x30C5 SWAP2 PUSH1 0x4 DUP5 ADD SWAP2 PUSH1 0x20 SWAP1 SWAP2 ADD SWAP1 PUSH2 0x4076 JUMP JUMPDEST POP PUSH1 0xA0 SWAP2 SWAP1 SWAP2 ADD MLOAD PUSH1 0x5 SWAP1 SWAP2 ADD DUP1 SLOAD PUSH1 0xFF NOT AND SWAP2 ISZERO ISZERO SWAP2 SWAP1 SWAP2 OR SWAP1 SSTORE POP POP PUSH1 0x9 SLOAD PUSH1 0x0 NOT ADD SWAP3 SWAP2 POP POP JUMP JUMPDEST PUSH1 0x1 PUSH1 0x1 PUSH1 0xA0 SHL SUB AND PUSH1 0x0 SWAP1 DUP2 MSTORE PUSH1 0x7 PUSH1 0x20 MSTORE PUSH1 0x40 SWAP1 KECCAK256 SLOAD SWAP1 JUMP JUMPDEST PUSH1 0xB SLOAD SWAP1 JUMP JUMPDEST PUSH1 0x1 PUSH1 0x20 MSTORE PUSH1 0x0 SWAP1 DUP2 MSTORE PUSH1 0x40 SWAP1 KECCAK256 SLOAD PUSH4 0xFFFFFFFF AND DUP2 JUMP JUMPDEST PUSH1 0x60 DUP1 PUSH1 0x9 DUP5 PUSH4 0xFFFFFFFF AND DUP2 SLOAD DUP2 LT PUSH2 0x313F JUMPI INVALID JUMPDEST SWAP1 PUSH1 0x0 MSTORE PUSH1 0x20 PUSH1 0x0 KECCAK256 SWAP1 PUSH1 0x6 MUL ADD PUSH1 0x3 ADD DUP4 PUSH4 0xFFFFFFFF AND DUP2 SLOAD DUP2 LT PUSH2 0x3161 JUMPI INVALID JUMPDEST SWAP1 PUSH1 0x0 MSTORE PUSH1 0x20 PUSH1 0x0 KECCAK256 ADD PUSH1 0x9 DUP6 PUSH4 0xFFFFFFFF AND DUP2 SLOAD DUP2 LT PUSH2 0x1843 JUMPI INVALID JUMPDEST CALLER PUSH1 0x0 SWAP1 DUP2 MSTORE PUSH1 0xC PUSH1 0x20 MSTORE PUSH1 0x40 SWAP1 KECCAK256 SLOAD PUSH1 0xFF AND PUSH2 0x319A JUMPI PUSH1 0x0 DUP1 REVERT JUMPDEST PUSH1 0x40 DUP1 MLOAD PUSH4 0x838EBD85 PUSH1 0xE0 SHL DUP2 MSTORE PUSH4 0xFFFFFFFF DUP4 AND PUSH1 0x4 DUP3 ADD MSTORE SWAP1 MLOAD DUP4 SWAP2 PUSH1 0x1 PUSH1 0x1 PUSH1 0xA0 SHL SUB DUP4 AND SWAP2 PUSH4 0x838EBD85 SWAP2 PUSH1 0x24 DUP1 DUP3 ADD SWAP3 PUSH1 0x0 SWAP3 SWAP1 SWAP2 SWAP1 DUP3 SWAP1 SUB ADD DUP2 DUP4 DUP8 DUP1 EXTCODESIZE ISZERO DUP1 ISZERO PUSH2 0x2DAE JUMPI PUSH1 0x0 DUP1 REVERT JUMPDEST PUSH1 0x0 SLOAD PUSH1 0xFF AND DUP2 JUMP JUMPDEST CALLER PUSH1 0x0 SWAP1 DUP2 MSTORE PUSH1 0xC PUSH1 0x20 MSTORE PUSH1 0x40 SWAP1 KECCAK256 SLOAD PUSH1 0xFF AND PUSH2 0x320F JUMPI PUSH1 0x0 DUP1 REVERT JUMPDEST PUSH1 0x40 MLOAD PUSH4 0x7E15477D PUSH1 0xE1 SHL DUP2 MSTORE PUSH4 0xFFFFFFFF DUP3 AND PUSH1 0x44 DUP3 ADD MSTORE PUSH1 0x60 PUSH1 0x4 DUP3 ADD SWAP1 DUP2 MSTORE DUP5 MLOAD PUSH1 0x64 DUP4 ADD MSTORE DUP5 MLOAD DUP7 SWAP3 PUSH1 0x1 PUSH1 0x1 PUSH1 0xA0 SHL SUB DUP5 AND SWAP3 PUSH4 0xFC2A8EFA SWAP3 DUP9 SWAP3 DUP9 SWAP3 DUP9 SWAP3 SWAP1 SWAP2 DUP3 SWAP2 PUSH1 0x24 DUP3 ADD SWAP2 PUSH1 0x84 ADD SWAP1 PUSH1 0x20 DUP9 ADD SWAP1 DUP1 DUP4 DUP4 PUSH1 0x0 JUMPDEST DUP4 DUP2 LT ISZERO PUSH2 0x3283 JUMPI DUP2 DUP2 ADD MLOAD DUP4 DUP3 ADD MSTORE PUSH1 0x20 ADD PUSH2 0x326B JUMP JUMPDEST POP POP POP POP SWAP1 POP SWAP1 DUP2 ADD SWAP1 PUSH1 0x1F AND DUP1 ISZERO PUSH2 0x32B0 JUMPI DUP1 DUP3 SUB DUP1 MLOAD PUSH1 0x1 DUP4 PUSH1 0x20 SUB PUSH2 0x100 EXP SUB NOT AND DUP2 MSTORE PUSH1 0x20 ADD SWAP2 POP JUMPDEST POP DUP4 DUP2 SUB DUP3 MSTORE DUP6 MLOAD DUP2 MSTORE DUP6 MLOAD PUSH1 0x20 SWAP2 DUP3 ADD SWAP2 DUP8 ADD SWAP1 DUP1 DUP4 DUP4 PUSH1 0x0 JUMPDEST DUP4 DUP2 LT ISZERO PUSH2 0x32E3 JUMPI DUP2 DUP2 ADD MLOAD DUP4 DUP3 ADD MSTORE PUSH1 0x20 ADD PUSH2 0x32CB JUMP JUMPDEST POP POP POP POP SWAP1 POP SWAP1 DUP2 ADD SWAP1 PUSH1 0x1F AND DUP1 ISZERO PUSH2 0x3310 JUMPI DUP1 DUP3 SUB DUP1 MLOAD PUSH1 0x1 DUP4 PUSH1 0x20 SUB PUSH2 0x100 EXP SUB NOT AND DUP2 MSTORE PUSH1 0x20 ADD SWAP2 POP JUMPDEST POP SWAP6 POP POP POP POP POP POP PUSH1 0x0 PUSH1 0x40 MLOAD DUP1 DUP4 SUB DUP2 PUSH1 0x0 DUP8 DUP1 EXTCODESIZE ISZERO DUP1 ISZERO PUSH2 0x3332 JUMPI PUSH1 0x0 DUP1 REVERT JUMPDEST POP GAS CALL ISZERO DUP1 ISZERO PUSH2 0x3346 JUMPI RETURNDATASIZE PUSH1 0x0 DUP1 RETURNDATACOPY RETURNDATASIZE PUSH1 0x0 REVERT JUMPDEST POP POP POP POP POP POP POP POP POP JUMP JUMPDEST PUSH1 0x6 PUSH1 0x20 MSTORE PUSH1 0x0 SWAP1 DUP2 MSTORE PUSH1 0x40 SWAP1 KECCAK256 SLOAD PUSH1 0xFF AND DUP2 JUMP JUMPDEST CALLER PUSH1 0x0 SWAP1 DUP2 MSTORE PUSH1 0xC PUSH1 0x20 MSTORE PUSH1 0x40 SWAP1 KECCAK256 SLOAD PUSH1 0xFF AND PUSH2 0x3382 JUMPI PUSH1 0x0 DUP1 REVERT JUMPDEST PUSH1 0xB DUP2 PUSH4 0xFFFFFFFF AND DUP2 SLOAD DUP2 LT PUSH2 0x3395 JUMPI INVALID JUMPDEST PUSH1 0x0 SWAP2 DUP3 MSTORE PUSH1 0x20 DUP1 DUP4 KECCAK256 PUSH1 0x3 PUSH1 0x6 SWAP1 SWAP4 MUL ADD SWAP2 SWAP1 SWAP2 ADD DUP1 SLOAD PUSH1 0x1 DUP2 ADD DUP3 SSTORE SWAP1 DUP4 MSTORE SWAP2 DUP2 SWAP1 KECCAK256 DUP6 MLOAD PUSH2 0x33CD SWAP4 SWAP2 SWAP1 SWAP2 ADD SWAP2 DUP7 ADD SWAP1 PUSH2 0x3FA4 JUMP JUMPDEST POP PUSH1 0xB DUP2 PUSH4 0xFFFFFFFF AND DUP2 SLOAD DUP2 LT PUSH2 0x33E1 JUMPI INVALID JUMPDEST PUSH1 0x0 SWAP2 DUP3 MSTORE PUSH1 0x20 DUP1 DUP4 KECCAK256 PUSH1 0x4 PUSH1 0x6 SWAP1 SWAP4 MUL ADD SWAP2 SWAP1 SWAP2 ADD DUP1 SLOAD PUSH1 0x1 DUP2 ADD DUP3 SSTORE SWAP1 DUP4 MSTORE SWAP2 DUP2 SWAP1 KECCAK256 DUP5 MLOAD PUSH2 0x29E5 SWAP4 SWAP2 SWAP1 SWAP2 ADD SWAP2 DUP6 ADD SWAP1 PUSH2 0x3FA4 JUMP JUMPDEST PUSH1 0x9 DUP2 PUSH4 0xFFFFFFFF AND DUP2 SLOAD DUP2 LT PUSH2 0x342C JUMPI INVALID JUMPDEST PUSH1 0x0 SWAP2 DUP3 MSTORE PUSH1 0x20 SWAP1 SWAP2 KECCAK256 PUSH1 0x5 PUSH1 0x6 SWAP1 SWAP3 MUL ADD ADD SLOAD PUSH1 0xFF AND ISZERO PUSH2 0x344D JUMPI PUSH1 0x0 DUP1 REVERT JUMPDEST PUSH1 0x0 PUSH1 0x2 PUSH1 0x0 PUSH1 0x9 DUP5 PUSH4 0xFFFFFFFF AND DUP2 SLOAD DUP2 LT PUSH2 0x3466 JUMPI INVALID JUMPDEST PUSH1 0x0 SWAP2 DUP3 MSTORE PUSH1 0x20 DUP1 DUP4 KECCAK256 PUSH1 0x6 SWAP1 SWAP3 MUL SWAP1 SWAP2 ADD SLOAD PUSH1 0x1 PUSH1 0x1 PUSH1 0xA0 SHL SUB AND DUP4 MSTORE DUP3 ADD SWAP3 SWAP1 SWAP3 MSTORE PUSH1 0x40 ADD SWAP1 KECCAK256 PUSH1 0x9 DUP1 SLOAD PUSH4 0xFFFFFFFF DUP6 AND SWAP1 DUP2 LT PUSH2 0x34A3 JUMPI INVALID JUMPDEST SWAP1 PUSH1 0x0 MSTORE PUSH1 0x20 PUSH1 0x0 KECCAK256 SWAP1 PUSH1 0x6 MUL ADD PUSH1 0x2 ADD PUSH1 0x40 MLOAD DUP1 DUP3 DUP1 SLOAD PUSH1 0x1 DUP2 PUSH1 0x1 AND ISZERO PUSH2 0x100 MUL SUB AND PUSH1 0x2 SWAP1 DIV DUP1 ISZERO PUSH2 0x350F JUMPI DUP1 PUSH1 0x1F LT PUSH2 0x34ED JUMPI PUSH2 0x100 DUP1 DUP4 SLOAD DIV MUL DUP4 MSTORE SWAP2 DUP3 ADD SWAP2 PUSH2 0x350F JUMP JUMPDEST DUP3 ADD SWAP2 SWAP1 PUSH1 0x0 MSTORE PUSH1 0x20 PUSH1 0x0 KECCAK256 SWAP1 JUMPDEST DUP2 SLOAD DUP2 MSTORE SWAP1 PUSH1 0x1 ADD SWAP1 PUSH1 0x20 ADD DUP1 DUP4 GT PUSH2 0x34FB JUMPI JUMPDEST POP POP SWAP3 DUP4 MSTORE POP POP PUSH1 0x40 MLOAD SWAP1 DUP2 SWAP1 SUB PUSH1 0x20 ADD SWAP1 KECCAK256 SWAP1 POP PUSH1 0x0 JUMPDEST PUSH1 0x9 DUP4 PUSH4 0xFFFFFFFF AND DUP2 SLOAD DUP2 LT PUSH2 0x353A JUMPI INVALID JUMPDEST SWAP1 PUSH1 0x0 MSTORE PUSH1 0x20 PUSH1 0x0 KECCAK256 SWAP1 PUSH1 0x6 MUL ADD PUSH1 0x3 ADD DUP1 SLOAD SWAP1 POP DUP2 PUSH4 0xFFFFFFFF AND LT ISZERO PUSH2 0x3925 JUMPI PUSH1 0x9 DUP4 PUSH4 0xFFFFFFFF AND DUP2 SLOAD DUP2 LT PUSH2 0x356F JUMPI INVALID JUMPDEST SWAP1 PUSH1 0x0 MSTORE PUSH1 0x20 PUSH1 0x0 KECCAK256 SWAP1 PUSH1 0x6 MUL ADD PUSH1 0x4 ADD DUP2 PUSH4 0xFFFFFFFF AND DUP2 SLOAD DUP2 LT PUSH2 0x3591 JUMPI INVALID JUMPDEST SWAP1 PUSH1 0x0 MSTORE PUSH1 0x20 PUSH1 0x0 KECCAK256 ADD DUP3 PUSH1 0x0 ADD PUSH1 0x9 DUP6 PUSH4 0xFFFFFFFF AND DUP2 SLOAD DUP2 LT PUSH2 0x35B2 JUMPI INVALID JUMPDEST SWAP1 PUSH1 0x0 MSTORE PUSH1 0x20 PUSH1 0x0 KECCAK256 SWAP1 PUSH1 0x6 MUL ADD PUSH1 0x3 ADD DUP4 PUSH4 0xFFFFFFFF AND DUP2 SLOAD DUP2 LT PUSH2 0x35D4 JUMPI INVALID JUMPDEST SWAP1 PUSH1 0x0 MSTORE PUSH1 0x20 PUSH1 0x0 KECCAK256 ADD PUSH1 0x40 MLOAD DUP1 DUP3 DUP1 SLOAD PUSH1 0x1 DUP2 PUSH1 0x1 AND ISZERO PUSH2 0x100 MUL SUB AND PUSH1 0x2 SWAP1 DIV DUP1 ISZERO PUSH2 0x3639 JUMPI DUP1 PUSH1 0x1F LT PUSH2 0x3617 JUMPI PUSH2 0x100 DUP1 DUP4 SLOAD DIV MUL DUP4 MSTORE SWAP2 DUP3 ADD SWAP2 PUSH2 0x3639 JUMP JUMPDEST DUP3 ADD SWAP2 SWAP1 PUSH1 0x0 MSTORE PUSH1 0x20 PUSH1 0x0 KECCAK256 SWAP1 JUMPDEST DUP2 SLOAD DUP2 MSTORE SWAP1 PUSH1 0x1 ADD SWAP1 PUSH1 0x20 ADD DUP1 DUP4 GT PUSH2 0x3625 JUMPI JUMPDEST POP POP SWAP3 DUP4 MSTORE POP POP PUSH1 0x40 MLOAD SWAP1 DUP2 SWAP1 SUB PUSH1 0x20 ADD SWAP1 KECCAK256 DUP2 SLOAD PUSH2 0x366B SWAP3 SWAP1 PUSH1 0x2 PUSH1 0x0 NOT PUSH2 0x100 PUSH1 0x1 DUP5 AND ISZERO MUL ADD SWAP1 SWAP2 AND DIV PUSH2 0x40CF JUMP JUMPDEST POP DUP2 PUSH1 0x1 ADD PUSH1 0x9 DUP5 PUSH4 0xFFFFFFFF AND DUP2 SLOAD DUP2 LT PUSH2 0x3683 JUMPI INVALID JUMPDEST SWAP1 PUSH1 0x0 MSTORE PUSH1 0x20 PUSH1 0x0 KECCAK256 SWAP1 PUSH1 0x6 MUL ADD PUSH1 0x3 ADD DUP3 PUSH4 0xFFFFFFFF AND DUP2 SLOAD DUP2 LT PUSH2 0x36A5 JUMPI INVALID JUMPDEST SWAP1 PUSH1 0x0 MSTORE PUSH1 0x20 PUSH1 0x0 KECCAK256 ADD PUSH1 0x40 MLOAD DUP1 DUP3 DUP1 SLOAD PUSH1 0x1 DUP2 PUSH1 0x1 AND ISZERO PUSH2 0x100 MUL SUB AND PUSH1 0x2 SWAP1 DIV DUP1 ISZERO PUSH2 0x370A JUMPI DUP1 PUSH1 0x1F LT PUSH2 0x36E8 JUMPI PUSH2 0x100 DUP1 DUP4 SLOAD DIV MUL DUP4 MSTORE SWAP2 DUP3 ADD SWAP2 PUSH2 0x370A JUMP JUMPDEST DUP3 ADD SWAP2 SWAP1 PUSH1 0x0 MSTORE PUSH1 0x20 PUSH1 0x0 KECCAK256 SWAP1 JUMPDEST DUP2 SLOAD DUP2 MSTORE SWAP1 PUSH1 0x1 ADD SWAP1 PUSH1 0x20 ADD DUP1 DUP4 GT PUSH2 0x36F6 JUMPI JUMPDEST POP POP SWAP3 DUP4 MSTORE POP POP PUSH1 0x40 MLOAD SWAP1 DUP2 SWAP1 SUB PUSH1 0x20 ADD SWAP1 KECCAK256 SLOAD PUSH1 0xFF AND PUSH2 0x391D JUMPI DUP2 PUSH1 0x2 ADD PUSH1 0x9 DUP5 PUSH4 0xFFFFFFFF AND DUP2 SLOAD DUP2 LT PUSH2 0x373C JUMPI INVALID JUMPDEST SWAP1 PUSH1 0x0 MSTORE PUSH1 0x20 PUSH1 0x0 KECCAK256 SWAP1 PUSH1 0x6 MUL ADD PUSH1 0x3 ADD DUP3 PUSH4 0xFFFFFFFF AND DUP2 SLOAD DUP2 LT PUSH2 0x375E JUMPI INVALID JUMPDEST SWAP1 PUSH1 0x0 MSTORE PUSH1 0x20 PUSH1 0x0 KECCAK256 ADD PUSH1 0x40 MLOAD PUSH1 0x20 ADD DUP1 DUP4 DUP1 SLOAD PUSH1 0x1 DUP2 PUSH1 0x1 AND ISZERO PUSH2 0x100 MUL SUB AND PUSH1 0x2 SWAP1 DIV DUP1 ISZERO PUSH2 0x37C6 JUMPI DUP1 PUSH1 0x1F LT PUSH2 0x37A4 JUMPI PUSH2 0x100 DUP1 DUP4 SLOAD DIV MUL DUP4 MSTORE SWAP2 DUP3 ADD SWAP2 PUSH2 0x37C6 JUMP JUMPDEST DUP3 ADD SWAP2 SWAP1 PUSH1 0x0 MSTORE PUSH1 0x20 PUSH1 0x0 KECCAK256 SWAP1 JUMPDEST DUP2 SLOAD DUP2 MSTORE SWAP1 PUSH1 0x1 ADD SWAP1 PUSH1 0x20 ADD DUP1 DUP4 GT PUSH2 0x37B2 JUMPI JUMPDEST POP POP DUP1 PUSH2 0x161 PUSH1 0xF5 SHL DUP2 MSTORE POP PUSH1 0x2 ADD DUP3 DUP1 SLOAD PUSH1 0x1 DUP2 PUSH1 0x1 AND ISZERO PUSH2 0x100 MUL SUB AND PUSH1 0x2 SWAP1 DIV DUP1 ISZERO PUSH2 0x382C JUMPI DUP1 PUSH1 0x1F LT PUSH2 0x380A JUMPI PUSH2 0x100 DUP1 DUP4 SLOAD DIV MUL DUP4 MSTORE SWAP2 DUP3 ADD SWAP2 PUSH2 0x382C JUMP JUMPDEST DUP3 ADD SWAP2 SWAP1 PUSH1 0x0 MSTORE PUSH1 0x20 PUSH1 0x0 KECCAK256 SWAP1 JUMPDEST DUP2 SLOAD DUP2 MSTORE SWAP1 PUSH1 0x1 ADD SWAP1 PUSH1 0x20 ADD DUP1 DUP4 GT PUSH2 0x3818 JUMPI JUMPDEST POP POP PUSH1 0x40 DUP1 MLOAD PUSH1 0x1F NOT DUP2 DUP5 SUB ADD DUP2 MSTORE SWAP2 SWAP1 MSTORE DUP1 MLOAD PUSH2 0x3857 SWAP5 POP PUSH1 0x2 DUP8 ADD SWAP4 POP PUSH1 0x20 SWAP1 SWAP2 ADD SWAP2 POP PUSH2 0x3FA4 JUMP JUMPDEST POP PUSH1 0x1 DUP3 PUSH1 0x1 ADD PUSH1 0x9 DUP6 PUSH4 0xFFFFFFFF AND DUP2 SLOAD DUP2 LT PUSH2 0x3871 JUMPI INVALID JUMPDEST SWAP1 PUSH1 0x0 MSTORE PUSH1 0x20 PUSH1 0x0 KECCAK256 SWAP1 PUSH1 0x6 MUL ADD PUSH1 0x3 ADD DUP4 PUSH4 0xFFFFFFFF AND DUP2 SLOAD DUP2 LT PUSH2 0x3893 JUMPI INVALID JUMPDEST SWAP1 PUSH1 0x0 MSTORE PUSH1 0x20 PUSH1 0x0 KECCAK256 ADD PUSH1 0x40 MLOAD DUP1 DUP3 DUP1 SLOAD PUSH1 0x1 DUP2 PUSH1 0x1 AND ISZERO PUSH2 0x100 MUL SUB AND PUSH1 0x2 SWAP1 DIV DUP1 ISZERO PUSH2 0x38F8 JUMPI DUP1 PUSH1 0x1F LT PUSH2 0x38D6 JUMPI PUSH2 0x100 DUP1 DUP4 SLOAD DIV MUL DUP4 MSTORE SWAP2 DUP3 ADD SWAP2 PUSH2 0x38F8 JUMP JUMPDEST DUP3 ADD SWAP2 SWAP1 PUSH1 0x0 MSTORE PUSH1 0x20 PUSH1 0x0 KECCAK256 SWAP1 JUMPDEST DUP2 SLOAD DUP2 MSTORE SWAP1 PUSH1 0x1 ADD SWAP1 PUSH1 0x20 ADD DUP1 DUP4 GT PUSH2 0x38E4 JUMPI JUMPDEST POP POP SWAP3 DUP4 MSTORE POP POP PUSH1 0x40 MLOAD SWAP1 DUP2 SWAP1 SUB PUSH1 0x20 ADD SWAP1 KECCAK256 DUP1 SLOAD SWAP2 ISZERO ISZERO PUSH1 0xFF NOT SWAP1 SWAP3 AND SWAP2 SWAP1 SWAP2 OR SWAP1 SSTORE JUMPDEST PUSH1 0x1 ADD PUSH2 0x3527 JUMP JUMPDEST POP PUSH1 0x6 PUSH1 0x0 PUSH1 0x9 DUP5 PUSH4 0xFFFFFFFF AND DUP2 SLOAD DUP2 LT PUSH2 0x393D JUMPI INVALID JUMPDEST PUSH1 0x0 SWAP2 DUP3 MSTORE PUSH1 0x20 DUP1 DUP4 KECCAK256 PUSH1 0x6 SWAP1 SWAP3 MUL SWAP1 SWAP2 ADD SLOAD PUSH1 0x1 PUSH1 0x1 PUSH1 0xA0 SHL SUB AND DUP4 MSTORE DUP3 ADD SWAP3 SWAP1 SWAP3 MSTORE PUSH1 0x40 ADD SWAP1 KECCAK256 SLOAD PUSH1 0xFF AND PUSH2 0x3A14 JUMPI PUSH1 0x5 PUSH1 0x9 DUP4 PUSH4 0xFFFFFFFF AND DUP2 SLOAD DUP2 LT PUSH2 0x3983 JUMPI INVALID JUMPDEST PUSH1 0x0 SWAP2 DUP3 MSTORE PUSH1 0x20 DUP1 DUP4 KECCAK256 PUSH1 0x6 SWAP3 DUP4 MUL ADD SLOAD DUP5 SLOAD PUSH1 0x1 DUP2 DUP2 ADD DUP8 SSTORE SWAP6 DUP6 MSTORE SWAP2 DUP5 KECCAK256 SWAP1 SWAP2 ADD DUP1 SLOAD PUSH1 0x1 PUSH1 0x1 PUSH1 0xA0 SHL SUB NOT AND PUSH1 0x1 PUSH1 0x1 PUSH1 0xA0 SHL SUB SWAP1 SWAP3 AND SWAP2 SWAP1 SWAP2 OR SWAP1 SSTORE PUSH1 0x9 DUP1 SLOAD SWAP2 SWAP3 SWAP2 PUSH4 0xFFFFFFFF DUP8 AND SWAP1 DUP2 LT PUSH2 0x39DA JUMPI INVALID JUMPDEST PUSH1 0x0 SWAP2 DUP3 MSTORE PUSH1 0x20 DUP1 DUP4 KECCAK256 PUSH1 0x6 SWAP3 SWAP1 SWAP3 MUL SWAP1 SWAP2 ADD SLOAD PUSH1 0x1 PUSH1 0x1 PUSH1 0xA0 SHL SUB AND DUP4 MSTORE DUP3 ADD SWAP3 SWAP1 SWAP3 MSTORE PUSH1 0x40 ADD SWAP1 KECCAK256 DUP1 SLOAD PUSH1 0xFF NOT AND SWAP2 ISZERO ISZERO SWAP2 SWAP1 SWAP2 OR SWAP1 SSTORE JUMPDEST PUSH1 0x8 PUSH1 0x0 PUSH1 0x9 DUP5 PUSH4 0xFFFFFFFF AND DUP2 SLOAD DUP2 LT PUSH2 0x3A2B JUMPI INVALID JUMPDEST PUSH1 0x0 SWAP2 DUP3 MSTORE PUSH1 0x20 DUP1 DUP4 KECCAK256 PUSH1 0x6 SWAP1 SWAP3 MUL SWAP1 SWAP2 ADD SLOAD PUSH1 0x1 PUSH1 0x1 PUSH1 0xA0 SHL SUB AND DUP4 MSTORE DUP3 ADD SWAP3 SWAP1 SWAP3 MSTORE PUSH1 0x40 ADD SWAP1 KECCAK256 PUSH1 0x9 DUP1 SLOAD PUSH4 0xFFFFFFFF DUP6 AND SWAP1 DUP2 LT PUSH2 0x3A68 JUMPI INVALID JUMPDEST SWAP1 PUSH1 0x0 MSTORE PUSH1 0x20 PUSH1 0x0 KECCAK256 SWAP1 PUSH1 0x6 MUL ADD PUSH1 0x2 ADD PUSH1 0x40 MLOAD DUP1 DUP3 DUP1 SLOAD PUSH1 0x1 DUP2 PUSH1 0x1 AND ISZERO PUSH2 0x100 MUL SUB AND PUSH1 0x2 SWAP1 DIV DUP1 ISZERO PUSH2 0x3AD4 JUMPI DUP1 PUSH1 0x1F LT PUSH2 0x3AB2 JUMPI PUSH2 0x100 DUP1 DUP4 SLOAD DIV MUL DUP4 MSTORE SWAP2 DUP3 ADD SWAP2 PUSH2 0x3AD4 JUMP JUMPDEST DUP3 ADD SWAP2 SWAP1 PUSH1 0x0 MSTORE PUSH1 0x20 PUSH1 0x0 KECCAK256 SWAP1 JUMPDEST DUP2 SLOAD DUP2 MSTORE SWAP1 PUSH1 0x1 ADD SWAP1 PUSH1 0x20 ADD DUP1 DUP4 GT PUSH2 0x3AC0 JUMPI JUMPDEST POP POP SWAP3 DUP4 MSTORE POP POP PUSH1 0x40 MLOAD SWAP1 DUP2 SWAP1 SUB PUSH1 0x20 ADD SWAP1 KECCAK256 SLOAD PUSH1 0xFF AND PUSH2 0x3C73 JUMPI PUSH1 0x7 PUSH1 0x0 PUSH1 0x9 DUP5 PUSH4 0xFFFFFFFF AND DUP2 SLOAD DUP2 LT PUSH2 0x3B06 JUMPI INVALID JUMPDEST PUSH1 0x0 SWAP2 DUP3 MSTORE PUSH1 0x20 DUP1 DUP4 KECCAK256 PUSH1 0x6 SWAP1 SWAP3 MUL SWAP1 SWAP2 ADD SLOAD PUSH1 0x1 PUSH1 0x1 PUSH1 0xA0 SHL SUB AND DUP4 MSTORE DUP3 ADD SWAP3 SWAP1 SWAP3 MSTORE PUSH1 0x40 ADD SWAP1 KECCAK256 PUSH1 0x9 DUP1 SLOAD PUSH4 0xFFFFFFFF DUP6 AND SWAP1 DUP2 LT PUSH2 0x3B43 JUMPI INVALID JUMPDEST PUSH1 0x0 SWAP2 DUP3 MSTORE PUSH1 0x20 DUP1 DUP4 KECCAK256 DUP5 SLOAD PUSH1 0x1 DUP1 DUP3 ADD DUP8 SSTORE SWAP6 DUP6 MSTORE SWAP2 SWAP1 SWAP4 KECCAK256 PUSH1 0x6 SWAP3 SWAP1 SWAP3 MUL SWAP1 SWAP3 ADD PUSH1 0x2 SWAP1 DUP2 ADD DUP1 SLOAD PUSH2 0x3B8B SWAP6 SWAP4 SWAP1 SWAP5 ADD SWAP4 SWAP1 SWAP3 PUSH1 0x0 NOT SWAP1 DUP3 AND ISZERO PUSH2 0x100 MUL ADD AND DIV PUSH2 0x40CF JUMP JUMPDEST POP PUSH1 0x1 PUSH1 0x8 PUSH1 0x0 PUSH1 0x9 DUP6 PUSH4 0xFFFFFFFF AND DUP2 SLOAD DUP2 LT PUSH2 0x3BA5 JUMPI INVALID JUMPDEST PUSH1 0x0 SWAP2 DUP3 MSTORE PUSH1 0x20 DUP1 DUP4 KECCAK256 PUSH1 0x6 SWAP1 SWAP3 MUL SWAP1 SWAP2 ADD SLOAD PUSH1 0x1 PUSH1 0x1 PUSH1 0xA0 SHL SUB AND DUP4 MSTORE DUP3 ADD SWAP3 SWAP1 SWAP3 MSTORE PUSH1 0x40 ADD SWAP1 KECCAK256 PUSH1 0x9 DUP1 SLOAD PUSH4 0xFFFFFFFF DUP7 AND SWAP1 DUP2 LT PUSH2 0x3BE2 JUMPI INVALID JUMPDEST SWAP1 PUSH1 0x0 MSTORE PUSH1 0x20 PUSH1 0x0 KECCAK256 SWAP1 PUSH1 0x6 MUL ADD PUSH1 0x2 ADD PUSH1 0x40 MLOAD DUP1 DUP3 DUP1 SLOAD PUSH1 0x1 DUP2 PUSH1 0x1 AND ISZERO PUSH2 0x100 MUL SUB AND PUSH1 0x2 SWAP1 DIV DUP1 ISZERO PUSH2 0x3C4E JUMPI DUP1 PUSH1 0x1F LT PUSH2 0x3C2C JUMPI PUSH2 0x100 DUP1 DUP4 SLOAD DIV MUL DUP4 MSTORE SWAP2 DUP3 ADD SWAP2 PUSH2 0x3C4E JUMP JUMPDEST DUP3 ADD SWAP2 SWAP1 PUSH1 0x0 MSTORE PUSH1 0x20 PUSH1 0x0 KECCAK256 SWAP1 JUMPDEST DUP2 SLOAD DUP2 MSTORE SWAP1 PUSH1 0x1 ADD SWAP1 PUSH1 0x20 ADD DUP1 DUP4 GT PUSH2 0x3C3A JUMPI JUMPDEST POP POP SWAP3 DUP4 MSTORE POP POP PUSH1 0x40 MLOAD SWAP1 DUP2 SWAP1 SUB PUSH1 0x20 ADD SWAP1 KECCAK256 DUP1 SLOAD SWAP2 ISZERO ISZERO PUSH1 0xFF NOT SWAP1 SWAP3 AND SWAP2 SWAP1 SWAP2 OR SWAP1 SSTORE JUMPDEST PUSH1 0x1 PUSH1 0x9 DUP4 PUSH4 0xFFFFFFFF AND DUP2 SLOAD DUP2 LT PUSH2 0x3C88 JUMPI INVALID JUMPDEST PUSH1 0x0 SWAP2 DUP3 MSTORE PUSH1 0x20 SWAP1 SWAP2 KECCAK256 PUSH1 0x6 SWAP1 SWAP2 MUL ADD PUSH1 0x5 ADD DUP1 SLOAD PUSH1 0xFF NOT AND SWAP2 ISZERO ISZERO SWAP2 SWAP1 SWAP2 OR SWAP1 SSTORE POP POP JUMP JUMPDEST PUSH2 0x3CB6 PUSH2 0x405C JUMP JUMPDEST POP PUSH1 0x40 DUP1 MLOAD DUP1 DUP3 ADD SWAP1 SWAP2 MSTORE DUP2 MLOAD DUP2 MSTORE PUSH1 0x20 DUP3 DUP2 ADD SWAP1 DUP3 ADD MSTORE SWAP2 SWAP1 POP JUMP JUMPDEST PUSH1 0x0 DUP1 DUP3 PUSH1 0x0 ADD MLOAD PUSH2 0x3CF7 DUP6 PUSH1 0x0 ADD MLOAD DUP7 PUSH1 0x20 ADD MLOAD DUP7 PUSH1 0x0 ADD MLOAD DUP8 PUSH1 0x20 ADD MLOAD PUSH2 0x3DBA JUMP JUMPDEST ADD SWAP1 POP JUMPDEST DUP4 MLOAD PUSH1 0x20 DUP6 ADD MLOAD ADD DUP2 GT PUSH2 0x3D39 JUMPI DUP3 MLOAD PUSH1 0x20 DUP1 DUP7 ADD MLOAD DUP7 MLOAD SWAP2 DUP7 ADD MLOAD PUSH1 0x1 SWAP1 SWAP6 ADD SWAP5 PUSH2 0x3D31 SWAP3 SWAP2 DUP6 SUB SWAP1 SWAP2 SUB SWAP1 DUP5 SWAP1 DUP5 SWAP1 PUSH2 0x3DBA JUMP JUMPDEST ADD SWAP1 POP PUSH2 0x3CFB JUMP JUMPDEST POP SWAP3 SWAP2 POP POP JUMP JUMPDEST PUSH2 0x3D48 PUSH2 0x405C JUMP JUMPDEST PUSH2 0x3D39 DUP4 DUP4 DUP4 PUSH2 0x3E77 JUMP JUMPDEST PUSH1 0x60 DUP1 DUP3 PUSH1 0x0 ADD MLOAD PUSH8 0xFFFFFFFFFFFFFFFF DUP2 GT DUP1 ISZERO PUSH2 0x3D71 JUMPI PUSH1 0x0 DUP1 REVERT JUMPDEST POP PUSH1 0x40 MLOAD SWAP1 DUP1 DUP3 MSTORE DUP1 PUSH1 0x1F ADD PUSH1 0x1F NOT AND PUSH1 0x20 ADD DUP3 ADD PUSH1 0x40 MSTORE DUP1 ISZERO PUSH2 0x3D9C JUMPI PUSH1 0x20 DUP3 ADD DUP2 DUP1 CALLDATASIZE DUP4 CALLDATACOPY ADD SWAP1 POP JUMPDEST POP SWAP1 POP PUSH1 0x0 PUSH1 0x20 DUP3 ADD SWAP1 POP PUSH2 0x3D39 DUP2 DUP6 PUSH1 0x20 ADD MLOAD DUP7 PUSH1 0x0 ADD MLOAD PUSH2 0x3EE8 JUMP JUMPDEST PUSH1 0x0 DUP4 DUP2 DUP7 DUP6 GT PUSH2 0x3E68 JUMPI PUSH1 0x20 DUP6 GT PUSH2 0x3E2D JUMPI DUP4 MLOAD DUP3 MLOAD PUSH1 0x0 NOT PUSH1 0x8 PUSH1 0x20 DUP10 SWAP1 SUB MUL PUSH1 0x2 EXP ADD NOT SWAP2 DUP3 AND SWAP1 DUP9 DUP11 ADD DUP9 SWAP1 SUB SWAP1 DUP4 AND JUMPDEST DUP3 DUP2 EQ PUSH2 0x3E1F JUMPI DUP2 DUP7 LT PUSH2 0x3E0D JUMPI DUP11 DUP11 ADD SWAP7 POP POP POP POP POP POP POP PUSH2 0x3E6F JUMP JUMPDEST POP PUSH1 0x1 SWAP1 SWAP5 ADD DUP1 MLOAD SWAP1 SWAP5 SWAP1 DUP4 AND PUSH2 0x3DEF JUMP JUMPDEST DUP6 SWAP7 POP POP POP POP POP POP POP PUSH2 0x3E6F JUMP JUMPDEST POP DUP4 DUP4 KECCAK256 PUSH1 0x0 SWAP1 JUMPDEST DUP6 DUP9 SUB DUP3 GT PUSH2 0x3E66 JUMPI DUP6 DUP4 KECCAK256 DUP2 DUP2 EQ ISZERO PUSH2 0x3E55 JUMPI DUP4 SWAP5 POP POP POP POP POP PUSH2 0x3E6F JUMP JUMPDEST POP PUSH1 0x1 SWAP3 DUP4 ADD SWAP3 SWAP2 SWAP1 SWAP2 ADD SWAP1 PUSH2 0x3E35 JUMP JUMPDEST POP JUMPDEST POP POP POP DUP3 DUP5 ADD JUMPDEST SWAP5 SWAP4 POP POP POP POP JUMP JUMPDEST PUSH2 0x3E7F PUSH2 0x405C JUMP JUMPDEST PUSH1 0x0 PUSH2 0x3E9D DUP6 PUSH1 0x0 ADD MLOAD DUP7 PUSH1 0x20 ADD MLOAD DUP7 PUSH1 0x0 ADD MLOAD DUP8 PUSH1 0x20 ADD MLOAD PUSH2 0x3DBA JUMP JUMPDEST PUSH1 0x20 DUP1 DUP8 ADD DUP1 MLOAD SWAP2 DUP7 ADD SWAP2 SWAP1 SWAP2 MSTORE DUP1 MLOAD DUP3 SUB DUP6 MSTORE DUP7 MLOAD SWAP1 MLOAD SWAP2 SWAP3 POP ADD DUP2 EQ ISZERO PUSH2 0x3EC9 JUMPI PUSH1 0x0 DUP6 MSTORE PUSH2 0x3EDF JUMP JUMPDEST DUP4 MLOAD DUP4 MLOAD DUP7 MLOAD SWAP2 ADD SWAP1 SUB DUP6 MSTORE DUP4 MLOAD DUP2 ADD PUSH1 0x20 DUP7 ADD MSTORE JUMPDEST POP SWAP1 SWAP4 SWAP3 POP POP POP JUMP JUMPDEST JUMPDEST PUSH1 0x20 DUP2 LT PUSH2 0x3F08 JUMPI DUP2 MLOAD DUP4 MSTORE PUSH1 0x20 SWAP3 DUP4 ADD SWAP3 SWAP1 SWAP2 ADD SWAP1 PUSH1 0x1F NOT ADD PUSH2 0x3EE9 JUMP JUMPDEST SWAP1 MLOAD DUP3 MLOAD PUSH1 0x20 SWAP3 SWAP1 SWAP3 SUB PUSH2 0x100 EXP PUSH1 0x0 NOT ADD DUP1 NOT SWAP1 SWAP2 AND SWAP2 AND OR SWAP1 MSTORE JUMP JUMPDEST DUP3 DUP1 SLOAD PUSH1 0x1 DUP2 PUSH1 0x1 AND ISZERO PUSH2 0x100 MUL SUB AND PUSH1 0x2 SWAP1 DIV SWAP1 PUSH1 0x0 MSTORE PUSH1 0x20 PUSH1 0x0 KECCAK256 SWAP1 PUSH1 0x1F ADD PUSH1 0x20 SWAP1 DIV DUP2 ADD SWAP3 DUP3 PUSH1 0x1F LT PUSH2 0x3F67 JUMPI DUP3 DUP1 ADD PUSH1 0xFF NOT DUP3 CALLDATALOAD AND OR DUP6 SSTORE PUSH2 0x3F94 JUMP JUMPDEST DUP3 DUP1 ADD PUSH1 0x1 ADD DUP6 SSTORE DUP3 ISZERO PUSH2 0x3F94 JUMPI SWAP2 DUP3 ADD JUMPDEST DUP3 DUP2 GT ISZERO PUSH2 0x3F94 JUMPI DUP3 CALLDATALOAD DUP3 SSTORE SWAP2 PUSH1 0x20 ADD SWAP2 SWAP1 PUSH1 0x1 ADD SWAP1 PUSH2 0x3F79 JUMP JUMPDEST POP PUSH2 0x3FA0 SWAP3 SWAP2 POP PUSH2 0x4144 JUMP JUMPDEST POP SWAP1 JUMP JUMPDEST DUP3 DUP1 SLOAD PUSH1 0x1 DUP2 PUSH1 0x1 AND ISZERO PUSH2 0x100 MUL SUB AND PUSH1 0x2 SWAP1 DIV SWAP1 PUSH1 0x0 MSTORE PUSH1 0x20 PUSH1 0x0 KECCAK256 SWAP1 PUSH1 0x1F ADD PUSH1 0x20 SWAP1 DIV DUP2 ADD SWAP3 DUP3 PUSH1 0x1F LT PUSH2 0x3FE5 JUMPI DUP1 MLOAD PUSH1 0xFF NOT AND DUP4 DUP1 ADD OR DUP6 SSTORE PUSH2 0x3F94 JUMP JUMPDEST DUP3 DUP1 ADD PUSH1 0x1 ADD DUP6 SSTORE DUP3 ISZERO PUSH2 0x3F94 JUMPI SWAP2 DUP3 ADD JUMPDEST DUP3 DUP2 GT ISZERO PUSH2 0x3F94 JUMPI DUP3 MLOAD DUP3 SSTORE SWAP2 PUSH1 0x20 ADD SWAP2 SWAP1 PUSH1 0x1 ADD SWAP1 PUSH2 0x3FF7 JUMP JUMPDEST PUSH1 0x40 MLOAD DUP1 PUSH1 0xC0 ADD PUSH1 0x40 MSTORE DUP1 PUSH1 0x0 PUSH1 0x1 PUSH1 0x1 PUSH1 0xA0 SHL SUB AND DUP2 MSTORE PUSH1 0x20 ADD PUSH1 0x0 PUSH1 0x1 PUSH1 0x1 PUSH1 0xA0 SHL SUB AND DUP2 MSTORE PUSH1 0x20 ADD PUSH1 0x60 DUP2 MSTORE PUSH1 0x20 ADD PUSH1 0x60 DUP2 MSTORE PUSH1 0x20 ADD PUSH1 0x60 DUP2 MSTORE PUSH1 0x20 ADD PUSH1 0x0 ISZERO ISZERO DUP2 MSTORE POP SWAP1 JUMP JUMPDEST PUSH1 0x40 MLOAD DUP1 PUSH1 0x40 ADD PUSH1 0x40 MSTORE DUP1 PUSH1 0x0 DUP2 MSTORE PUSH1 0x20 ADD PUSH1 0x0 DUP2 MSTORE POP SWAP1 JUMP JUMPDEST DUP3 DUP1 SLOAD DUP3 DUP3 SSTORE SWAP1 PUSH1 0x0 MSTORE PUSH1 0x20 PUSH1 0x0 KECCAK256 SWAP1 DUP2 ADD SWAP3 DUP3 ISZERO PUSH2 0x40C3 JUMPI SWAP2 PUSH1 0x20 MUL DUP3 ADD JUMPDEST DUP3 DUP2 GT ISZERO PUSH2 0x40C3 JUMPI DUP3 MLOAD DUP1 MLOAD PUSH2 0x40B3 SWAP2 DUP5 SWAP2 PUSH1 0x20 SWAP1 SWAP2 ADD SWAP1 PUSH2 0x3FA4 JUMP JUMPDEST POP SWAP2 PUSH1 0x20 ADD SWAP2 SWAP1 PUSH1 0x1 ADD SWAP1 PUSH2 0x4096 JUMP JUMPDEST POP PUSH2 0x3FA0 SWAP3 SWAP2 POP PUSH2 0x415E JUMP JUMPDEST DUP3 DUP1 SLOAD PUSH1 0x1 DUP2 PUSH1 0x1 AND ISZERO PUSH2 0x100 MUL SUB AND PUSH1 0x2 SWAP1 DIV SWAP1 PUSH1 0x0 MSTORE PUSH1 0x20 PUSH1 0x0 KECCAK256 SWAP1 PUSH1 0x1F ADD PUSH1 0x20 SWAP1 DIV DUP2 ADD SWAP3 DUP3 PUSH1 0x1F LT PUSH2 0x4108 JUMPI DUP1 SLOAD DUP6 SSTORE PUSH2 0x3F94 JUMP JUMPDEST DUP3 DUP1 ADD PUSH1 0x1 ADD DUP6 SSTORE DUP3 ISZERO PUSH2 0x3F94 JUMPI PUSH1 0x0 MSTORE PUSH1 0x20 PUSH1 0x0 KECCAK256 SWAP2 PUSH1 0x1F ADD PUSH1 0x20 SWAP1 DIV DUP3 ADD JUMPDEST DUP3 DUP2 GT ISZERO PUSH2 0x3F94 JUMPI DUP3 SLOAD DUP3 SSTORE SWAP2 PUSH1 0x1 ADD SWAP2 SWAP1 PUSH1 0x1 ADD SWAP1 PUSH2 0x4129 JUMP JUMPDEST PUSH2 0x206A SWAP2 SWAP1 JUMPDEST DUP1 DUP3 GT ISZERO PUSH2 0x3FA0 JUMPI PUSH1 0x0 DUP2 SSTORE PUSH1 0x1 ADD PUSH2 0x414A JUMP JUMPDEST PUSH2 0x206A SWAP2 SWAP1 JUMPDEST DUP1 DUP3 GT ISZERO PUSH2 0x3FA0 JUMPI PUSH1 0x0 PUSH2 0x4178 DUP3 DUP3 PUSH2 0x4181 JUMP JUMPDEST POP PUSH1 0x1 ADD PUSH2 0x4164 JUMP JUMPDEST POP DUP1 SLOAD PUSH1 0x1 DUP2 PUSH1 0x1 AND ISZERO PUSH2 0x100 MUL SUB AND PUSH1 0x2 SWAP1 DIV PUSH1 0x0 DUP3 SSTORE DUP1 PUSH1 0x1F LT PUSH2 0x41A7 JUMPI POP PUSH2 0x41C5 JUMP JUMPDEST PUSH1 0x1F ADD PUSH1 0x20 SWAP1 DIV SWAP1 PUSH1 0x0 MSTORE PUSH1 0x20 PUSH1 0x0 KECCAK256 SWAP1 DUP2 ADD SWAP1 PUSH2 0x41C5 SWAP2 SWAP1 PUSH2 0x4144 JUMP JUMPDEST POP JUMP INVALID LOG2 PUSH5 0x6970667358 0x22 SLT KECCAK256 0xED SWAP4 RETURNDATACOPY CREATE 0xD1 PUSH30 0x5804CBDFF45132A318113E7AFE914302C50ACD46237C880A9B6D64736F6C PUSH4 0x43000606 STOP CALLER LOG2 PUSH5 0x6970667358 0x22 SLT KECCAK256 PUSH22 0x1539A0186DE137C990AA7502D1AA1CE0DE683496F78 0xCC 0xB3 0xB4 DUP1 0xD4 0xBF PUSH19 0x5D5F64736F6C63430006060033000000000000 "},"gasEstimates":{"creation":{"codeDepositCost":"3843800","executionCost":"4362","totalCost":"3848162"},"external":{"Array(uint256)":"infinite","create(string,address[])":"infinite","entityLength()":"1030","loadSource(uint32)":"infinite"}},"methodIdentifiers":{"Array(uint256)":"a1690e23","create(string,address[])":"d5986579","entityLength()":"ae2d25f4","loadSource(uint32)":"3ca701e9"}},"storageLayout":{"storage":[{"astId":1288,"contract":"MultipleEntityFactory.sol:MultipleEntityFactory","label":"Array","offset":0,"slot":"0","type":"t_array(t_struct(Account)1285_storage)dyn_storage"}],"types":{"t_address":{"encoding":"inplace","label":"address","numberOfBytes":"20"},"t_array(t_address)dyn_storage":{"base":"t_address","encoding":"dynamic_array","label":"address[]","numberOfBytes":"32"},"t_array(t_struct(Account)1285_storage)dyn_storage":{"base":"t_struct(Account)1285_storage","encoding":"dynamic_array","label":"struct MultipleEntityFactory.Account[]","numberOfBytes":"32"},"t_string_storage":{"encoding":"bytes","label":"string","numberOfBytes":"32"},"t_struct(Account)1285_storage":{"encoding":"inplace","label":"struct MultipleEntityFactory.Account","members":[{"astId":1279,"contract":"MultipleEntityFactory.sol:MultipleEntityFactory","label":"entity","offset":0,"slot":"0","type":"t_address"},{"astId":1282,"contract":"MultipleEntityFactory.sol:MultipleEntityFactory","label":"source","offset":0,"slot":"1","type":"t_array(t_address)dyn_storage"},{"astId":1284,"contract":"MultipleEntityFactory.sol:MultipleEntityFactory","label":"description","offset":0,"slot":"2","type":"t_string_storage"}],"numberOfBytes":"96"}}},"userdoc":{"methods":{}}}