{"abi":[{"inputs":[{"internalType":"address","name":"","type":"address"},{"internalType":"string","name":"","type":"string"}],"name":"MarkupsOwner","outputs":[{"internalType":"string","name":"","type":"string"}],"stateMutability":"view","type":"function"},{"inputs":[{"internalType":"address","name":"","type":"address"},{"internalType":"string","name":"","type":"string"}],"name":"MarkupsSender","outputs":[{"internalType":"string","name":"","type":"string"}],"stateMutability":"view","type":"function"},{"inputs":[{"internalType":"address","name":"","type":"address"},{"internalType":"string","name":"","type":"string"}],"name":"Storage","outputs":[{"internalType":"string","name":"keys","type":"string"}],"stateMutability":"view","type":"function"},{"inputs":[{"internalType":"string","name":"description","type":"string"},{"internalType":"string","name":"markup","type":"string"}],"name":"_markup","outputs":[],"stateMutability":"nonpayable","type":"function"},{"inputs":[{"internalType":"string","name":"_description","type":"string"}],"name":"_newData","outputs":[{"internalType":"uint32","name":"","type":"uint32"}],"stateMutability":"nonpayable","type":"function"},{"inputs":[{"internalType":"string","name":"_key","type":"string"},{"internalType":"string","name":"_value","type":"string"},{"internalType":"uint32","name":"index","type":"uint32"}],"name":"_receiveData","outputs":[],"stateMutability":"nonpayable","type":"function"},{"inputs":[{"internalType":"address","name":"multipleEntity","type":"address"},{"internalType":"string","name":"_key","type":"string"},{"internalType":"string","name":"_value","type":"string"},{"internalType":"uint32","name":"index","type":"uint32"}],"name":"addDataMultipleToSend","outputs":[],"stateMutability":"nonpayable","type":"function"},{"inputs":[{"internalType":"string","name":"_key","type":"string"},{"internalType":"string","name":"_value","type":"string"},{"internalType":"uint32","name":"index","type":"uint32"}],"name":"addDataToSend","outputs":[],"stateMutability":"nonpayable","type":"function"},{"inputs":[{"internalType":"uint32","name":"index","type":"uint32"}],"name":"approveDataToReceive","outputs":[],"stateMutability":"nonpayable","type":"function"},{"inputs":[{"internalType":"uint32","name":"index","type":"uint32"}],"name":"approveDataToSend","outputs":[],"stateMutability":"nonpayable","type":"function"},{"inputs":[{"internalType":"address","name":"multipleEntity","type":"address"},{"internalType":"uint32","name":"index","type":"uint32"}],"name":"approveMultipleToReceive","outputs":[],"stateMutability":"nonpayable","type":"function"},{"inputs":[{"internalType":"address","name":"multipleEntity","type":"address"},{"internalType":"uint32","name":"index","type":"uint32"}],"name":"approveMultipleToSend","outputs":[],"stateMutability":"nonpayable","type":"function"},{"inputs":[{"internalType":"address","name":"_address","type":"address"},{"internalType":"string","name":"_description","type":"string"},{"internalType":"string","name":"_key","type":"string"}],"name":"columnValue","outputs":[{"internalType":"string","name":"","type":"string"}],"stateMutability":"view","type":"function"},{"inputs":[{"internalType":"uint32","name":"index","type":"uint32"}],"name":"dataSizeToReceive","outputs":[{"internalType":"uint32","name":"","type":"uint32"}],"stateMutability":"view","type":"function"},{"inputs":[{"internalType":"uint32","name":"index","type":"uint32"}],"name":"dataSizeToSend","outputs":[{"internalType":"uint32","name":"","type":"uint32"}],"stateMutability":"view","type":"function"},{"inputs":[{"internalType":"uint256","name":"","type":"uint256"}],"name":"dataSource","outputs":[{"internalType":"address","name":"","type":"address"}],"stateMutability":"view","type":"function"},{"inputs":[{"internalType":"address","name":"source","type":"address"}],"name":"descriptionLength","outputs":[{"internalType":"uint32","name":"","type":"uint32"}],"stateMutability":"view","type":"function"},{"inputs":[{"internalType":"address","name":"","type":"address"},{"internalType":"uint256","name":"","type":"uint256"}],"name":"descriptionsBySource","outputs":[{"internalType":"string","name":"","type":"string"}],"stateMutability":"view","type":"function"},{"inputs":[{"internalType":"address","name":"src","type":"address"},{"internalType":"string","name":"des","type":"string"},{"internalType":"string","name":"key","type":"string"}],"name":"fetchValue","outputs":[{"internalType":"string","name":"","type":"string"}],"stateMutability":"view","type":"function"},{"inputs":[{"internalType":"address","name":"","type":"address"}],"name":"hasWritten","outputs":[{"internalType":"bool","name":"","type":"bool"}],"stateMutability":"view","type":"function"},{"inputs":[],"name":"isEntity","outputs":[{"internalType":"bool","name":"","type":"bool"}],"stateMutability":"view","type":"function"},{"inputs":[],"name":"isSingle","outputs":[{"internalType":"bool","name":"","type":"bool"}],"stateMutability":"view","type":"function"},{"inputs":[{"internalType":"uint32","name":"index","type":"uint32"},{"internalType":"uint32","name":"keyIndex","type":"uint32"}],"name":"keyValueOfDataToReceive","outputs":[{"internalType":"string","name":"","type":"string"},{"internalType":"string","name":"","type":"string"}],"stateMutability":"view","type":"function"},{"inputs":[{"internalType":"uint32","name":"index","type":"uint32"},{"internalType":"uint32","name":"keyIndex","type":"uint32"}],"name":"keyValueOfDataToSend","outputs":[{"internalType":"string","name":"","type":"string"},{"internalType":"string","name":"","type":"string"}],"stateMutability":"view","type":"function"},{"inputs":[{"internalType":"address","name":"src","type":"address"},{"internalType":"string","name":"des","type":"string"}],"name":"keysOfData","outputs":[{"internalType":"string","name":"","type":"string"}],"stateMutability":"view","type":"function"},{"inputs":[{"internalType":"address","name":"target","type":"address"},{"internalType":"string","name":"description","type":"string"},{"internalType":"string","name":"markup","type":"string"}],"name":"markup","outputs":[],"stateMutability":"nonpayable","type":"function"},{"inputs":[{"internalType":"address","name":"sender","type":"address"},{"internalType":"string","name":"description","type":"string"},{"internalType":"string","name":"markup","type":"string"}],"name":"markupSelf","outputs":[],"stateMutability":"nonpayable","type":"function"},{"inputs":[{"internalType":"address","name":"multipleEntity","type":"address"},{"internalType":"address","name":"_receiver","type":"address"},{"internalType":"string","name":"_description","type":"string"},{"internalType":"string","name":"_key","type":"string"},{"internalType":"string","name":"_value","type":"string"},{"internalType":"bool","name":"direct","type":"bool"}],"name":"newDataMultipleToSend","outputs":[{"internalType":"uint32","name":"","type":"uint32"}],"stateMutability":"nonpayable","type":"function"},{"inputs":[{"internalType":"address","name":"_receiver","type":"address"},{"internalType":"string","name":"_description","type":"string"},{"internalType":"string","name":"_key","type":"string"},{"internalType":"string","name":"_value","type":"string"},{"internalType":"bool","name":"direct","type":"bool"}],"name":"newDataToSend","outputs":[],"stateMutability":"nonpayable","type":"function"},{"inputs":[{"internalType":"uint256","name":"","type":"uint256"}],"name":"pendingDataToReceive","outputs":[{"internalType":"address","name":"source","type":"address"},{"internalType":"address","name":"destination","type":"address"},{"internalType":"string","name":"description","type":"string"},{"internalType":"bool","name":"approved","type":"bool"}],"stateMutability":"view","type":"function"},{"inputs":[],"name":"pendingDataToReceiveCount","outputs":[{"internalType":"uint32","name":"","type":"uint32"}],"stateMutability":"view","type":"function"},{"inputs":[{"internalType":"uint256","name":"","type":"uint256"}],"name":"pendingDataToSend","outputs":[{"internalType":"address","name":"source","type":"address"},{"internalType":"address","name":"destination","type":"address"},{"internalType":"string","name":"description","type":"string"},{"internalType":"bool","name":"approved","type":"bool"}],"stateMutability":"view","type":"function"},{"inputs":[],"name":"pendingDataToSendCount","outputs":[{"internalType":"uint32","name":"","type":"uint32"}],"stateMutability":"view","type":"function"},{"inputs":[{"internalType":"address","name":"","type":"address"}],"name":"recentSendingIndex","outputs":[{"internalType":"uint32","name":"","type":"uint32"}],"stateMutability":"view","type":"function"},{"inputs":[],"name":"sourceLength","outputs":[{"internalType":"uint32","name":"","type":"uint32"}],"stateMutability":"view","type":"function"},{"inputs":[{"internalType":"address","name":"","type":"address"},{"internalType":"string","name":"","type":"string"}],"name":"writtenDescription","outputs":[{"internalType":"bool","name":"","type":"bool"}],"stateMutability":"view","type":"function"}],"devdoc":{"methods":{}},"evm":{"assembly":"    /* \"Entity.sol\":69:10125  contract Entity {\r... */\n  mstore(0x40, 0x80)\n  callvalue\n    /* \"--CODEGEN--\":5:14   */\n  dup1\n    /* \"--CODEGEN--\":2:4   */\n  iszero\n  tag_1\n  jumpi\n    /* \"--CODEGEN--\":27:28   */\n  0x00\n    /* \"--CODEGEN--\":24:25   */\n  dup1\n    /* \"--CODEGEN--\":17:29   */\n  revert\n    /* \"--CODEGEN--\":2:4   */\ntag_1:\n    /* \"Entity.sol\":69:10125  contract Entity {\r... */\n  pop\n  dataSize(sub_0)\n  dup1\n  dataOffset(sub_0)\n  0x00\n  codecopy\n  0x00\n  return\nstop\n\nsub_0: assembly {\n        /* \"Entity.sol\":69:10125  contract Entity {\r... */\n      mstore(0x40, 0x80)\n      callvalue\n        /* \"--CODEGEN--\":5:14   */\n      dup1\n        /* \"--CODEGEN--\":2:4   */\n      iszero\n      tag_1\n      jumpi\n        /* \"--CODEGEN--\":27:28   */\n      0x00\n        /* \"--CODEGEN--\":24:25   */\n      dup1\n        /* \"--CODEGEN--\":17:29   */\n      revert\n        /* \"--CODEGEN--\":2:4   */\n    tag_1:\n        /* \"Entity.sol\":69:10125  contract Entity {\r... */\n      pop\n      jumpi(tag_2, lt(calldatasize, 0x04))\n      shr(0xe0, calldataload(0x00))\n      dup1\n      0x8c162152\n      gt\n      tag_39\n      jumpi\n      dup1\n      0xcf6ae528\n      gt\n      tag_40\n      jumpi\n      dup1\n      0xe29e9290\n      gt\n      tag_41\n      jumpi\n      dup1\n      0xe29e9290\n      eq\n      tag_34\n      jumpi\n      dup1\n      0xe9dff3b4\n      eq\n      tag_35\n      jumpi\n      dup1\n      0xf10f731c\n      eq\n      tag_36\n      jumpi\n      dup1\n      0xf396b51f\n      eq\n      tag_37\n      jumpi\n      dup1\n      0xfc2a8efa\n      eq\n      tag_38\n      jumpi\n      jump(tag_2)\n    tag_41:\n      dup1\n      0xcf6ae528\n      eq\n      tag_30\n      jumpi\n      dup1\n      0xd027a93e\n      eq\n      tag_31\n      jumpi\n      dup1\n      0xdb406597\n      eq\n      tag_32\n      jumpi\n      dup1\n      0xe24e7912\n      eq\n      tag_33\n      jumpi\n      jump(tag_2)\n    tag_40:\n      dup1\n      0x928ec3e5\n      gt\n      tag_42\n      jumpi\n      dup1\n      0x928ec3e5\n      eq\n      tag_25\n      jumpi\n      dup1\n      0xa1a298da\n      eq\n      tag_26\n      jumpi\n      dup1\n      0xa63de8cf\n      eq\n      tag_27\n      jumpi\n      dup1\n      0xa7ed5603\n      eq\n      tag_28\n      jumpi\n      dup1\n      0xc09bc35b\n      eq\n      tag_29\n      jumpi\n      jump(tag_2)\n    tag_42:\n      dup1\n      0x8c162152\n      eq\n      tag_21\n      jumpi\n      dup1\n      0x8cba76b1\n      eq\n      tag_8\n      jumpi\n      dup1\n      0x8e636514\n      eq\n      tag_23\n      jumpi\n      dup1\n      0x9169b323\n      eq\n      tag_24\n      jumpi\n      jump(tag_2)\n    tag_39:\n      dup1\n      0x4f2bcbef\n      gt\n      tag_43\n      jumpi\n      dup1\n      0x834fde34\n      gt\n      tag_44\n      jumpi\n      dup1\n      0x834fde34\n      eq\n      tag_16\n      jumpi\n      dup1\n      0x838ebd85\n      eq\n      tag_17\n      jumpi\n      dup1\n      0x847b5257\n      eq\n      tag_18\n      jumpi\n      dup1\n      0x84aeb694\n      eq\n      tag_19\n      jumpi\n      dup1\n      0x88a6712f\n      eq\n      tag_20\n      jumpi\n      jump(tag_2)\n    tag_44:\n      dup1\n      0x4f2bcbef\n      eq\n      tag_12\n      jumpi\n      dup1\n      0x4f51433d\n      eq\n      tag_13\n      jumpi\n      dup1\n      0x6b31c5f1\n      eq\n      tag_14\n      jumpi\n      dup1\n      0x6eecac58\n      eq\n      tag_15\n      jumpi\n      jump(tag_2)\n    tag_43:\n      dup1\n      0x2a4541d4\n      gt\n      tag_45\n      jumpi\n      dup1\n      0x2a4541d4\n      eq\n      tag_7\n      jumpi\n      dup1\n      0x30699892\n      eq\n      tag_8\n      jumpi\n      dup1\n      0x3296e5ca\n      eq\n      tag_9\n      jumpi\n      dup1\n      0x359589ac\n      eq\n      tag_10\n      jumpi\n      dup1\n      0x4d981cf7\n      eq\n      tag_11\n      jumpi\n      jump(tag_2)\n    tag_45:\n      dup1\n      0x08ac733a\n      eq\n      tag_3\n      jumpi\n      dup1\n      0x0f121925\n      eq\n      tag_4\n      jumpi\n      dup1\n      0x17361084\n      eq\n      tag_5\n      jumpi\n      dup1\n      0x24f416d6\n      eq\n      tag_6\n      jumpi\n    tag_2:\n        /* \"--CODEGEN--\":12:13   */\n      0x00\n        /* \"--CODEGEN--\":9:10   */\n      dup1\n        /* \"--CODEGEN--\":2:14   */\n      revert\n        /* \"Entity.sol\":9754:9921  function keysOfData(address src, string memory des)\r... */\n    tag_3:\n      tag_46\n      0x04\n      dup1\n      calldatasize\n      sub\n        /* \"--CODEGEN--\":15:17   */\n      0x40\n        /* \"--CODEGEN--\":10:13   */\n      dup2\n        /* \"--CODEGEN--\":7:18   */\n      lt\n        /* \"--CODEGEN--\":4:6   */\n      iszero\n      tag_47\n      jumpi\n        /* \"--CODEGEN--\":31:32   */\n      0x00\n        /* \"--CODEGEN--\":28:29   */\n      dup1\n        /* \"--CODEGEN--\":21:33   */\n      revert\n        /* \"--CODEGEN--\":4:6   */\n    tag_47:\n      sub(shl(0xa0, 0x01), 0x01)\n        /* \"Entity.sol\":9754:9921  function keysOfData(address src, string memory des)\r... */\n      dup3\n      calldataload\n      and\n      swap2\n      swap1\n      dup2\n      add\n      swap1\n      0x40\n      dup2\n      add\n      0x20\n      dup3\n      add\n      calldataload\n      shl(0x20, 0x01)\n        /* \"--CODEGEN--\":11:39   */\n      dup2\n      gt\n        /* \"--CODEGEN--\":8:10   */\n      iszero\n      tag_48\n      jumpi\n        /* \"--CODEGEN--\":52:53   */\n      0x00\n        /* \"--CODEGEN--\":49:50   */\n      dup1\n        /* \"--CODEGEN--\":42:54   */\n      revert\n        /* \"--CODEGEN--\":8:10   */\n    tag_48:\n        /* \"Entity.sol\":9754:9921  function keysOfData(address src, string memory des)\r... */\n      dup3\n      add\n        /* \"--CODEGEN--\":41:50   */\n      dup4\n        /* \"--CODEGEN--\":34:38   */\n      0x20\n        /* \"--CODEGEN--\":18:32   */\n      dup3\n        /* \"--CODEGEN--\":14:39   */\n      add\n        /* \"--CODEGEN--\":11:51   */\n      gt\n        /* \"--CODEGEN--\":8:10   */\n      iszero\n      tag_49\n      jumpi\n        /* \"--CODEGEN--\":64:65   */\n      0x00\n        /* \"--CODEGEN--\":61:62   */\n      dup1\n        /* \"--CODEGEN--\":54:66   */\n      revert\n        /* \"--CODEGEN--\":8:10   */\n    tag_49:\n        /* \"Entity.sol\":9754:9921  function keysOfData(address src, string memory des)\r... */\n      dup1\n      calldataload\n      swap1\n      0x20\n      add\n      swap2\n        /* \"--CODEGEN--\":100:109   */\n      dup5\n        /* \"--CODEGEN--\":95:96   */\n      0x01\n        /* \"--CODEGEN--\":81:93   */\n      dup4\n        /* \"--CODEGEN--\":77:97   */\n      mul\n        /* \"--CODEGEN--\":67:75   */\n      dup5\n        /* \"--CODEGEN--\":63:98   */\n      add\n        /* \"--CODEGEN--\":60:110   */\n      gt\n      shl(0x20, 0x01)\n        /* \"--CODEGEN--\":25:37   */\n      dup4\n        /* \"--CODEGEN--\":22:51   */\n      gt\n        /* \"--CODEGEN--\":11:118   */\n      or\n        /* \"--CODEGEN--\":8:10   */\n      iszero\n      tag_50\n      jumpi\n        /* \"--CODEGEN--\":131:132   */\n      0x00\n        /* \"--CODEGEN--\":128:129   */\n      dup1\n        /* \"--CODEGEN--\":121:133   */\n      revert\n        /* \"--CODEGEN--\":8:10   */\n    tag_50:\n        /* \"Entity.sol\":9754:9921  function keysOfData(address src, string memory des)\r... */\n      swap2\n      swap1\n      dup1\n      dup1\n      0x1f\n      add\n      0x20\n      dup1\n      swap2\n      div\n      mul\n      0x20\n      add\n      mload(0x40)\n      swap1\n      dup2\n      add\n      0x40\n      mstore\n      dup1\n      swap4\n      swap3\n      swap2\n      swap1\n      dup2\n      dup2\n      mstore\n      0x20\n      add\n      dup4\n      dup4\n        /* \"--CODEGEN--\":30:33   */\n      dup1\n        /* \"--CODEGEN--\":22:28   */\n      dup3\n        /* \"--CODEGEN--\":14:20   */\n      dup5\n        /* \"--CODEGEN--\":1:34   */\n      calldatacopy\n        /* \"--CODEGEN--\":99:100   */\n      0x00\n        /* \"--CODEGEN--\":81:97   */\n      swap3\n      add\n        /* \"--CODEGEN--\":74:101   */\n      swap2\n      swap1\n      swap2\n      mstore\n      pop\n        /* \"Entity.sol\":9754:9921  function keysOfData(address src, string memory des)\r... */\n      swap3\n      swap6\n      pop\n      tag_51\n      swap5\n      pop\n      pop\n      pop\n      pop\n      pop\n      jump\t// in\n    tag_46:\n      0x40\n      dup1\n      mload\n      0x20\n      dup1\n      dup3\n      mstore\n      dup4\n      mload\n      dup2\n      dup4\n      add\n      mstore\n      dup4\n      mload\n      swap2\n      swap3\n      dup4\n      swap3\n      swap1\n      dup4\n      add\n      swap2\n      dup6\n      add\n      swap1\n      dup1\n      dup4\n      dup4\n      0x00\n        /* \"--CODEGEN--\":8:108   */\n    tag_52:\n        /* \"--CODEGEN--\":33:36   */\n      dup4\n        /* \"--CODEGEN--\":30:31   */\n      dup2\n        /* \"--CODEGEN--\":27:37   */\n      lt\n        /* \"--CODEGEN--\":8:108   */\n      iszero\n      tag_54\n      jumpi\n        /* \"--CODEGEN--\":90:101   */\n      dup2\n      dup2\n      add\n        /* \"--CODEGEN--\":84:102   */\n      mload\n        /* \"--CODEGEN--\":71:82   */\n      dup4\n      dup3\n      add\n        /* \"--CODEGEN--\":64:103   */\n      mstore\n        /* \"--CODEGEN--\":52:54   */\n      0x20\n        /* \"--CODEGEN--\":45:55   */\n      add\n        /* \"--CODEGEN--\":8:108   */\n      jump(tag_52)\n    tag_54:\n        /* \"--CODEGEN--\":12:26   */\n      pop\n        /* \"Entity.sol\":9754:9921  function keysOfData(address src, string memory des)\r... */\n      pop\n      pop\n      pop\n      swap1\n      pop\n      swap1\n      dup2\n      add\n      swap1\n      0x1f\n      and\n      dup1\n      iszero\n      tag_55\n      jumpi\n      dup1\n      dup3\n      sub\n      dup1\n      mload\n      0x01\n      dup4\n      0x20\n      sub\n      0x0100\n      exp\n      sub\n      not\n      and\n      dup2\n      mstore\n      0x20\n      add\n      swap2\n      pop\n    tag_55:\n      pop\n      swap3\n      pop\n      pop\n      pop\n      mload(0x40)\n      dup1\n      swap2\n      sub\n      swap1\n      return\n        /* \"Entity.sol\":8904:9160  function keyValueOfDataToSend(uint32 index, uint32 keyIndex) \r... */\n    tag_4:\n      tag_56\n      0x04\n      dup1\n      calldatasize\n      sub\n        /* \"--CODEGEN--\":15:17   */\n      0x40\n        /* \"--CODEGEN--\":10:13   */\n      dup2\n        /* \"--CODEGEN--\":7:18   */\n      lt\n        /* \"--CODEGEN--\":4:6   */\n      iszero\n      tag_57\n      jumpi\n        /* \"--CODEGEN--\":31:32   */\n      0x00\n        /* \"--CODEGEN--\":28:29   */\n      dup1\n        /* \"--CODEGEN--\":21:33   */\n      revert\n        /* \"--CODEGEN--\":4:6   */\n    tag_57:\n      pop\n        /* \"Entity.sol\":8904:9160  function keyValueOfDataToSend(uint32 index, uint32 keyIndex) \r... */\n      0xffffffff\n      dup2\n      calldataload\n      dup2\n      and\n      swap2\n      0x20\n      add\n      calldataload\n      and\n      tag_58\n      jump\t// in\n    tag_56:\n      mload(0x40)\n      dup1\n      dup1\n      0x20\n      add\n      dup1\n      0x20\n      add\n      dup4\n      dup2\n      sub\n      dup4\n      mstore\n      dup6\n      dup2\n      dup2\n      mload\n      dup2\n      mstore\n      0x20\n      add\n      swap2\n      pop\n      dup1\n      mload\n      swap1\n      0x20\n      add\n      swap1\n      dup1\n      dup4\n      dup4\n        /* \"--CODEGEN--\":23:24   */\n      0x00\n        /* \"--CODEGEN--\":8:108   */\n    tag_59:\n        /* \"--CODEGEN--\":33:36   */\n      dup4\n        /* \"--CODEGEN--\":30:31   */\n      dup2\n        /* \"--CODEGEN--\":27:37   */\n      lt\n        /* \"--CODEGEN--\":8:108   */\n      iszero\n      tag_61\n      jumpi\n        /* \"--CODEGEN--\":90:101   */\n      dup2\n      dup2\n      add\n        /* \"--CODEGEN--\":84:102   */\n      mload\n        /* \"--CODEGEN--\":71:82   */\n      dup4\n      dup3\n      add\n        /* \"--CODEGEN--\":64:103   */\n      mstore\n        /* \"--CODEGEN--\":52:54   */\n      0x20\n        /* \"--CODEGEN--\":45:55   */\n      add\n        /* \"--CODEGEN--\":8:108   */\n      jump(tag_59)\n    tag_61:\n        /* \"--CODEGEN--\":12:26   */\n      pop\n        /* \"Entity.sol\":8904:9160  function keyValueOfDataToSend(uint32 index, uint32 keyIndex) \r... */\n      pop\n      pop\n      pop\n      swap1\n      pop\n      swap1\n      dup2\n      add\n      swap1\n      0x1f\n      and\n      dup1\n      iszero\n      tag_62\n      jumpi\n      dup1\n      dup3\n      sub\n      dup1\n      mload\n      0x01\n      dup4\n      0x20\n      sub\n      0x0100\n      exp\n      sub\n      not\n      and\n      dup2\n      mstore\n      0x20\n      add\n      swap2\n      pop\n    tag_62:\n      pop\n      dup4\n      dup2\n      sub\n      dup3\n      mstore\n      dup5\n      mload\n      dup2\n      mstore\n      dup5\n      mload\n      0x20\n      swap2\n      dup3\n      add\n      swap2\n      dup7\n      add\n      swap1\n      dup1\n      dup4\n      dup4\n        /* \"--CODEGEN--\":23:24   */\n      0x00\n        /* \"--CODEGEN--\":8:108   */\n    tag_63:\n        /* \"--CODEGEN--\":33:36   */\n      dup4\n        /* \"--CODEGEN--\":30:31   */\n      dup2\n        /* \"--CODEGEN--\":27:37   */\n      lt\n        /* \"--CODEGEN--\":8:108   */\n      iszero\n      tag_65\n      jumpi\n        /* \"--CODEGEN--\":90:101   */\n      dup2\n      dup2\n      add\n        /* \"--CODEGEN--\":84:102   */\n      mload\n        /* \"--CODEGEN--\":71:82   */\n      dup4\n      dup3\n      add\n        /* \"--CODEGEN--\":64:103   */\n      mstore\n        /* \"--CODEGEN--\":52:54   */\n      0x20\n        /* \"--CODEGEN--\":45:55   */\n      add\n        /* \"--CODEGEN--\":8:108   */\n      jump(tag_63)\n    tag_65:\n        /* \"--CODEGEN--\":12:26   */\n      pop\n        /* \"Entity.sol\":8904:9160  function keyValueOfDataToSend(uint32 index, uint32 keyIndex) \r... */\n      pop\n      pop\n      pop\n      swap1\n      pop\n      swap1\n      dup2\n      add\n      swap1\n      0x1f\n      and\n      dup1\n      iszero\n      tag_66\n      jumpi\n      dup1\n      dup3\n      sub\n      dup1\n      mload\n      0x01\n      dup4\n      0x20\n      sub\n      0x0100\n      exp\n      sub\n      not\n      and\n      dup2\n      mstore\n      0x20\n      add\n      swap2\n      pop\n    tag_66:\n      pop\n      swap5\n      pop\n      pop\n      pop\n      pop\n      pop\n      mload(0x40)\n      dup1\n      swap2\n      sub\n      swap1\n      return\n        /* \"Entity.sol\":850:911  mapping(address=>mapping(string=>storingData)) public Storage */\n    tag_5:\n      tag_46\n      0x04\n      dup1\n      calldatasize\n      sub\n        /* \"--CODEGEN--\":15:17   */\n      0x40\n        /* \"--CODEGEN--\":10:13   */\n      dup2\n        /* \"--CODEGEN--\":7:18   */\n      lt\n        /* \"--CODEGEN--\":4:6   */\n      iszero\n      tag_68\n      jumpi\n        /* \"--CODEGEN--\":31:32   */\n      0x00\n        /* \"--CODEGEN--\":28:29   */\n      dup1\n        /* \"--CODEGEN--\":21:33   */\n      revert\n        /* \"--CODEGEN--\":4:6   */\n    tag_68:\n      sub(shl(0xa0, 0x01), 0x01)\n        /* \"Entity.sol\":850:911  mapping(address=>mapping(string=>storingData)) public Storage */\n      dup3\n      calldataload\n      and\n      swap2\n      swap1\n      dup2\n      add\n      swap1\n      0x40\n      dup2\n      add\n      0x20\n      dup3\n      add\n      calldataload\n      shl(0x20, 0x01)\n        /* \"--CODEGEN--\":11:39   */\n      dup2\n      gt\n        /* \"--CODEGEN--\":8:10   */\n      iszero\n      tag_69\n      jumpi\n        /* \"--CODEGEN--\":52:53   */\n      0x00\n        /* \"--CODEGEN--\":49:50   */\n      dup1\n        /* \"--CODEGEN--\":42:54   */\n      revert\n        /* \"--CODEGEN--\":8:10   */\n    tag_69:\n        /* \"Entity.sol\":850:911  mapping(address=>mapping(string=>storingData)) public Storage */\n      dup3\n      add\n        /* \"--CODEGEN--\":41:50   */\n      dup4\n        /* \"--CODEGEN--\":34:38   */\n      0x20\n        /* \"--CODEGEN--\":18:32   */\n      dup3\n        /* \"--CODEGEN--\":14:39   */\n      add\n        /* \"--CODEGEN--\":11:51   */\n      gt\n        /* \"--CODEGEN--\":8:10   */\n      iszero\n      tag_70\n      jumpi\n        /* \"--CODEGEN--\":64:65   */\n      0x00\n        /* \"--CODEGEN--\":61:62   */\n      dup1\n        /* \"--CODEGEN--\":54:66   */\n      revert\n        /* \"--CODEGEN--\":8:10   */\n    tag_70:\n        /* \"Entity.sol\":850:911  mapping(address=>mapping(string=>storingData)) public Storage */\n      dup1\n      calldataload\n      swap1\n      0x20\n      add\n      swap2\n        /* \"--CODEGEN--\":100:109   */\n      dup5\n        /* \"--CODEGEN--\":95:96   */\n      0x01\n        /* \"--CODEGEN--\":81:93   */\n      dup4\n        /* \"--CODEGEN--\":77:97   */\n      mul\n        /* \"--CODEGEN--\":67:75   */\n      dup5\n        /* \"--CODEGEN--\":63:98   */\n      add\n        /* \"--CODEGEN--\":60:110   */\n      gt\n      shl(0x20, 0x01)\n        /* \"--CODEGEN--\":25:37   */\n      dup4\n        /* \"--CODEGEN--\":22:51   */\n      gt\n        /* \"--CODEGEN--\":11:118   */\n      or\n        /* \"--CODEGEN--\":8:10   */\n      iszero\n      tag_71\n      jumpi\n        /* \"--CODEGEN--\":131:132   */\n      0x00\n        /* \"--CODEGEN--\":128:129   */\n      dup1\n        /* \"--CODEGEN--\":121:133   */\n      revert\n        /* \"--CODEGEN--\":8:10   */\n    tag_71:\n        /* \"Entity.sol\":850:911  mapping(address=>mapping(string=>storingData)) public Storage */\n      swap2\n      swap1\n      dup1\n      dup1\n      0x1f\n      add\n      0x20\n      dup1\n      swap2\n      div\n      mul\n      0x20\n      add\n      mload(0x40)\n      swap1\n      dup2\n      add\n      0x40\n      mstore\n      dup1\n      swap4\n      swap3\n      swap2\n      swap1\n      dup2\n      dup2\n      mstore\n      0x20\n      add\n      dup4\n      dup4\n        /* \"--CODEGEN--\":30:33   */\n      dup1\n        /* \"--CODEGEN--\":22:28   */\n      dup3\n        /* \"--CODEGEN--\":14:20   */\n      dup5\n        /* \"--CODEGEN--\":1:34   */\n      calldatacopy\n        /* \"--CODEGEN--\":99:100   */\n      0x00\n        /* \"--CODEGEN--\":81:97   */\n      swap3\n      add\n        /* \"--CODEGEN--\":74:101   */\n      swap2\n      swap1\n      swap2\n      mstore\n      pop\n        /* \"Entity.sol\":850:911  mapping(address=>mapping(string=>storingData)) public Storage */\n      swap3\n      swap6\n      pop\n      tag_72\n      swap5\n      pop\n      pop\n      pop\n      pop\n      pop\n      jump\t// in\n        /* \"Entity.sol\":918:979  mapping(address=>mapping(string=>string)) public MarkupsOwner */\n    tag_6:\n      tag_46\n      0x04\n      dup1\n      calldatasize\n      sub\n        /* \"--CODEGEN--\":15:17   */\n      0x40\n        /* \"--CODEGEN--\":10:13   */\n      dup2\n        /* \"--CODEGEN--\":7:18   */\n      lt\n        /* \"--CODEGEN--\":4:6   */\n      iszero\n      tag_78\n      jumpi\n        /* \"--CODEGEN--\":31:32   */\n      0x00\n        /* \"--CODEGEN--\":28:29   */\n      dup1\n        /* \"--CODEGEN--\":21:33   */\n      revert\n        /* \"--CODEGEN--\":4:6   */\n    tag_78:\n      sub(shl(0xa0, 0x01), 0x01)\n        /* \"Entity.sol\":918:979  mapping(address=>mapping(string=>string)) public MarkupsOwner */\n      dup3\n      calldataload\n      and\n      swap2\n      swap1\n      dup2\n      add\n      swap1\n      0x40\n      dup2\n      add\n      0x20\n      dup3\n      add\n      calldataload\n      shl(0x20, 0x01)\n        /* \"--CODEGEN--\":11:39   */\n      dup2\n      gt\n        /* \"--CODEGEN--\":8:10   */\n      iszero\n      tag_79\n      jumpi\n        /* \"--CODEGEN--\":52:53   */\n      0x00\n        /* \"--CODEGEN--\":49:50   */\n      dup1\n        /* \"--CODEGEN--\":42:54   */\n      revert\n        /* \"--CODEGEN--\":8:10   */\n    tag_79:\n        /* \"Entity.sol\":918:979  mapping(address=>mapping(string=>string)) public MarkupsOwner */\n      dup3\n      add\n        /* \"--CODEGEN--\":41:50   */\n      dup4\n        /* \"--CODEGEN--\":34:38   */\n      0x20\n        /* \"--CODEGEN--\":18:32   */\n      dup3\n        /* \"--CODEGEN--\":14:39   */\n      add\n        /* \"--CODEGEN--\":11:51   */\n      gt\n        /* \"--CODEGEN--\":8:10   */\n      iszero\n      tag_80\n      jumpi\n        /* \"--CODEGEN--\":64:65   */\n      0x00\n        /* \"--CODEGEN--\":61:62   */\n      dup1\n        /* \"--CODEGEN--\":54:66   */\n      revert\n        /* \"--CODEGEN--\":8:10   */\n    tag_80:\n        /* \"Entity.sol\":918:979  mapping(address=>mapping(string=>string)) public MarkupsOwner */\n      dup1\n      calldataload\n      swap1\n      0x20\n      add\n      swap2\n        /* \"--CODEGEN--\":100:109   */\n      dup5\n        /* \"--CODEGEN--\":95:96   */\n      0x01\n        /* \"--CODEGEN--\":81:93   */\n      dup4\n        /* \"--CODEGEN--\":77:97   */\n      mul\n        /* \"--CODEGEN--\":67:75   */\n      dup5\n        /* \"--CODEGEN--\":63:98   */\n      add\n        /* \"--CODEGEN--\":60:110   */\n      gt\n      shl(0x20, 0x01)\n        /* \"--CODEGEN--\":25:37   */\n      dup4\n        /* \"--CODEGEN--\":22:51   */\n      gt\n        /* \"--CODEGEN--\":11:118   */\n      or\n        /* \"--CODEGEN--\":8:10   */\n      iszero\n      tag_81\n      jumpi\n        /* \"--CODEGEN--\":131:132   */\n      0x00\n        /* \"--CODEGEN--\":128:129   */\n      dup1\n        /* \"--CODEGEN--\":121:133   */\n      revert\n        /* \"--CODEGEN--\":8:10   */\n    tag_81:\n        /* \"Entity.sol\":918:979  mapping(address=>mapping(string=>string)) public MarkupsOwner */\n      swap2\n      swap1\n      dup1\n      dup1\n      0x1f\n      add\n      0x20\n      dup1\n      swap2\n      div\n      mul\n      0x20\n      add\n      mload(0x40)\n      swap1\n      dup2\n      add\n      0x40\n      mstore\n      dup1\n      swap4\n      swap3\n      swap2\n      swap1\n      dup2\n      dup2\n      mstore\n      0x20\n      add\n      dup4\n      dup4\n        /* \"--CODEGEN--\":30:33   */\n      dup1\n        /* \"--CODEGEN--\":22:28   */\n      dup3\n        /* \"--CODEGEN--\":14:20   */\n      dup5\n        /* \"--CODEGEN--\":1:34   */\n      calldatacopy\n        /* \"--CODEGEN--\":99:100   */\n      0x00\n        /* \"--CODEGEN--\":81:97   */\n      swap3\n      add\n        /* \"--CODEGEN--\":74:101   */\n      swap2\n      swap1\n      swap2\n      mstore\n      pop\n        /* \"Entity.sol\":918:979  mapping(address=>mapping(string=>string)) public MarkupsOwner */\n      swap3\n      swap6\n      pop\n      tag_82\n      swap5\n      pop\n      pop\n      pop\n      pop\n      pop\n      jump\t// in\n        /* \"Entity.sol\":6887:7251  function newDataMultipleToSend(address multipleEntity, address _receiver, \r... */\n    tag_7:\n      tag_87\n      0x04\n      dup1\n      calldatasize\n      sub\n        /* \"--CODEGEN--\":15:18   */\n      0xc0\n        /* \"--CODEGEN--\":10:13   */\n      dup2\n        /* \"--CODEGEN--\":7:19   */\n      lt\n        /* \"--CODEGEN--\":4:6   */\n      iszero\n      tag_88\n      jumpi\n        /* \"--CODEGEN--\":32:33   */\n      0x00\n        /* \"--CODEGEN--\":29:30   */\n      dup1\n        /* \"--CODEGEN--\":22:34   */\n      revert\n        /* \"--CODEGEN--\":4:6   */\n    tag_88:\n      sub(shl(0xa0, 0x01), 0x01)\n        /* \"Entity.sol\":6887:7251  function newDataMultipleToSend(address multipleEntity, address _receiver, \r... */\n      dup3\n      calldataload\n      dup2\n      and\n      swap3\n      0x20\n      dup2\n      add\n      calldataload\n      swap1\n      swap2\n      and\n      swap2\n      dup2\n      add\n      swap1\n      0x60\n      dup2\n      add\n      0x40\n      dup3\n      add\n      calldataload\n      shl(0x20, 0x01)\n        /* \"--CODEGEN--\":11:39   */\n      dup2\n      gt\n        /* \"--CODEGEN--\":8:10   */\n      iszero\n      tag_89\n      jumpi\n        /* \"--CODEGEN--\":52:53   */\n      0x00\n        /* \"--CODEGEN--\":49:50   */\n      dup1\n        /* \"--CODEGEN--\":42:54   */\n      revert\n        /* \"--CODEGEN--\":8:10   */\n    tag_89:\n        /* \"Entity.sol\":6887:7251  function newDataMultipleToSend(address multipleEntity, address _receiver, \r... */\n      dup3\n      add\n        /* \"--CODEGEN--\":41:50   */\n      dup4\n        /* \"--CODEGEN--\":34:38   */\n      0x20\n        /* \"--CODEGEN--\":18:32   */\n      dup3\n        /* \"--CODEGEN--\":14:39   */\n      add\n        /* \"--CODEGEN--\":11:51   */\n      gt\n        /* \"--CODEGEN--\":8:10   */\n      iszero\n      tag_90\n      jumpi\n        /* \"--CODEGEN--\":64:65   */\n      0x00\n        /* \"--CODEGEN--\":61:62   */\n      dup1\n        /* \"--CODEGEN--\":54:66   */\n      revert\n        /* \"--CODEGEN--\":8:10   */\n    tag_90:\n        /* \"Entity.sol\":6887:7251  function newDataMultipleToSend(address multipleEntity, address _receiver, \r... */\n      dup1\n      calldataload\n      swap1\n      0x20\n      add\n      swap2\n        /* \"--CODEGEN--\":100:109   */\n      dup5\n        /* \"--CODEGEN--\":95:96   */\n      0x01\n        /* \"--CODEGEN--\":81:93   */\n      dup4\n        /* \"--CODEGEN--\":77:97   */\n      mul\n        /* \"--CODEGEN--\":67:75   */\n      dup5\n        /* \"--CODEGEN--\":63:98   */\n      add\n        /* \"--CODEGEN--\":60:110   */\n      gt\n      shl(0x20, 0x01)\n        /* \"--CODEGEN--\":25:37   */\n      dup4\n        /* \"--CODEGEN--\":22:51   */\n      gt\n        /* \"--CODEGEN--\":11:118   */\n      or\n        /* \"--CODEGEN--\":8:10   */\n      iszero\n      tag_91\n      jumpi\n        /* \"--CODEGEN--\":131:132   */\n      0x00\n        /* \"--CODEGEN--\":128:129   */\n      dup1\n        /* \"--CODEGEN--\":121:133   */\n      revert\n        /* \"--CODEGEN--\":8:10   */\n    tag_91:\n        /* \"Entity.sol\":6887:7251  function newDataMultipleToSend(address multipleEntity, address _receiver, \r... */\n      swap2\n      swap1\n      dup1\n      dup1\n      0x1f\n      add\n      0x20\n      dup1\n      swap2\n      div\n      mul\n      0x20\n      add\n      mload(0x40)\n      swap1\n      dup2\n      add\n      0x40\n      mstore\n      dup1\n      swap4\n      swap3\n      swap2\n      swap1\n      dup2\n      dup2\n      mstore\n      0x20\n      add\n      dup4\n      dup4\n        /* \"--CODEGEN--\":30:33   */\n      dup1\n        /* \"--CODEGEN--\":22:28   */\n      dup3\n        /* \"--CODEGEN--\":14:20   */\n      dup5\n        /* \"--CODEGEN--\":1:34   */\n      calldatacopy\n        /* \"--CODEGEN--\":99:100   */\n      0x00\n        /* \"--CODEGEN--\":81:97   */\n      swap3\n      add\n        /* \"--CODEGEN--\":74:101   */\n      swap2\n      swap1\n      swap2\n      mstore\n      pop\n        /* \"Entity.sol\":6887:7251  function newDataMultipleToSend(address multipleEntity, address _receiver, \r... */\n      swap3\n      swap6\n      swap5\n      swap4\n      0x20\n      dup2\n      add\n      swap4\n      pop\n      calldataload\n      swap2\n      pop\n      pop\n      shl(0x20, 0x01)\n        /* \"--CODEGEN--\":11:39   */\n      dup2\n      gt\n        /* \"--CODEGEN--\":8:10   */\n      iszero\n      tag_92\n      jumpi\n        /* \"--CODEGEN--\":52:53   */\n      0x00\n        /* \"--CODEGEN--\":49:50   */\n      dup1\n        /* \"--CODEGEN--\":42:54   */\n      revert\n        /* \"--CODEGEN--\":8:10   */\n    tag_92:\n        /* \"Entity.sol\":6887:7251  function newDataMultipleToSend(address multipleEntity, address _receiver, \r... */\n      dup3\n      add\n        /* \"--CODEGEN--\":41:50   */\n      dup4\n        /* \"--CODEGEN--\":34:38   */\n      0x20\n        /* \"--CODEGEN--\":18:32   */\n      dup3\n        /* \"--CODEGEN--\":14:39   */\n      add\n        /* \"--CODEGEN--\":11:51   */\n      gt\n        /* \"--CODEGEN--\":8:10   */\n      iszero\n      tag_93\n      jumpi\n        /* \"--CODEGEN--\":64:65   */\n      0x00\n        /* \"--CODEGEN--\":61:62   */\n      dup1\n        /* \"--CODEGEN--\":54:66   */\n      revert\n        /* \"--CODEGEN--\":8:10   */\n    tag_93:\n        /* \"Entity.sol\":6887:7251  function newDataMultipleToSend(address multipleEntity, address _receiver, \r... */\n      dup1\n      calldataload\n      swap1\n      0x20\n      add\n      swap2\n        /* \"--CODEGEN--\":100:109   */\n      dup5\n        /* \"--CODEGEN--\":95:96   */\n      0x01\n        /* \"--CODEGEN--\":81:93   */\n      dup4\n        /* \"--CODEGEN--\":77:97   */\n      mul\n        /* \"--CODEGEN--\":67:75   */\n      dup5\n        /* \"--CODEGEN--\":63:98   */\n      add\n        /* \"--CODEGEN--\":60:110   */\n      gt\n      shl(0x20, 0x01)\n        /* \"--CODEGEN--\":25:37   */\n      dup4\n        /* \"--CODEGEN--\":22:51   */\n      gt\n        /* \"--CODEGEN--\":11:118   */\n      or\n        /* \"--CODEGEN--\":8:10   */\n      iszero\n      tag_94\n      jumpi\n        /* \"--CODEGEN--\":131:132   */\n      0x00\n        /* \"--CODEGEN--\":128:129   */\n      dup1\n        /* \"--CODEGEN--\":121:133   */\n      revert\n        /* \"--CODEGEN--\":8:10   */\n    tag_94:\n        /* \"Entity.sol\":6887:7251  function newDataMultipleToSend(address multipleEntity, address _receiver, \r... */\n      swap2\n      swap1\n      dup1\n      dup1\n      0x1f\n      add\n      0x20\n      dup1\n      swap2\n      div\n      mul\n      0x20\n      add\n      mload(0x40)\n      swap1\n      dup2\n      add\n      0x40\n      mstore\n      dup1\n      swap4\n      swap3\n      swap2\n      swap1\n      dup2\n      dup2\n      mstore\n      0x20\n      add\n      dup4\n      dup4\n        /* \"--CODEGEN--\":30:33   */\n      dup1\n        /* \"--CODEGEN--\":22:28   */\n      dup3\n        /* \"--CODEGEN--\":14:20   */\n      dup5\n        /* \"--CODEGEN--\":1:34   */\n      calldatacopy\n        /* \"--CODEGEN--\":99:100   */\n      0x00\n        /* \"--CODEGEN--\":81:97   */\n      swap3\n      add\n        /* \"--CODEGEN--\":74:101   */\n      swap2\n      swap1\n      swap2\n      mstore\n      pop\n        /* \"Entity.sol\":6887:7251  function newDataMultipleToSend(address multipleEntity, address _receiver, \r... */\n      swap3\n      swap6\n      swap5\n      swap4\n      0x20\n      dup2\n      add\n      swap4\n      pop\n      calldataload\n      swap2\n      pop\n      pop\n      shl(0x20, 0x01)\n        /* \"--CODEGEN--\":11:39   */\n      dup2\n      gt\n        /* \"--CODEGEN--\":8:10   */\n      iszero\n      tag_95\n      jumpi\n        /* \"--CODEGEN--\":52:53   */\n      0x00\n        /* \"--CODEGEN--\":49:50   */\n      dup1\n        /* \"--CODEGEN--\":42:54   */\n      revert\n        /* \"--CODEGEN--\":8:10   */\n    tag_95:\n        /* \"Entity.sol\":6887:7251  function newDataMultipleToSend(address multipleEntity, address _receiver, \r... */\n      dup3\n      add\n        /* \"--CODEGEN--\":41:50   */\n      dup4\n        /* \"--CODEGEN--\":34:38   */\n      0x20\n        /* \"--CODEGEN--\":18:32   */\n      dup3\n        /* \"--CODEGEN--\":14:39   */\n      add\n        /* \"--CODEGEN--\":11:51   */\n      gt\n        /* \"--CODEGEN--\":8:10   */\n      iszero\n      tag_96\n      jumpi\n        /* \"--CODEGEN--\":64:65   */\n      0x00\n        /* \"--CODEGEN--\":61:62   */\n      dup1\n        /* \"--CODEGEN--\":54:66   */\n      revert\n        /* \"--CODEGEN--\":8:10   */\n    tag_96:\n        /* \"Entity.sol\":6887:7251  function newDataMultipleToSend(address multipleEntity, address _receiver, \r... */\n      dup1\n      calldataload\n      swap1\n      0x20\n      add\n      swap2\n        /* \"--CODEGEN--\":100:109   */\n      dup5\n        /* \"--CODEGEN--\":95:96   */\n      0x01\n        /* \"--CODEGEN--\":81:93   */\n      dup4\n        /* \"--CODEGEN--\":77:97   */\n      mul\n        /* \"--CODEGEN--\":67:75   */\n      dup5\n        /* \"--CODEGEN--\":63:98   */\n      add\n        /* \"--CODEGEN--\":60:110   */\n      gt\n      shl(0x20, 0x01)\n        /* \"--CODEGEN--\":25:37   */\n      dup4\n        /* \"--CODEGEN--\":22:51   */\n      gt\n        /* \"--CODEGEN--\":11:118   */\n      or\n        /* \"--CODEGEN--\":8:10   */\n      iszero\n      tag_97\n      jumpi\n        /* \"--CODEGEN--\":131:132   */\n      0x00\n        /* \"--CODEGEN--\":128:129   */\n      dup1\n        /* \"--CODEGEN--\":121:133   */\n      revert\n        /* \"--CODEGEN--\":8:10   */\n    tag_97:\n        /* \"Entity.sol\":6887:7251  function newDataMultipleToSend(address multipleEntity, address _receiver, \r... */\n      swap2\n      swap1\n      dup1\n      dup1\n      0x1f\n      add\n      0x20\n      dup1\n      swap2\n      div\n      mul\n      0x20\n      add\n      mload(0x40)\n      swap1\n      dup2\n      add\n      0x40\n      mstore\n      dup1\n      swap4\n      swap3\n      swap2\n      swap1\n      dup2\n      dup2\n      mstore\n      0x20\n      add\n      dup4\n      dup4\n        /* \"--CODEGEN--\":30:33   */\n      dup1\n        /* \"--CODEGEN--\":22:28   */\n      dup3\n        /* \"--CODEGEN--\":14:20   */\n      dup5\n        /* \"--CODEGEN--\":1:34   */\n      calldatacopy\n        /* \"--CODEGEN--\":99:100   */\n      0x00\n        /* \"--CODEGEN--\":81:97   */\n      swap3\n      add\n        /* \"--CODEGEN--\":74:101   */\n      swap2\n      swap1\n      swap2\n      mstore\n      pop\n        /* \"Entity.sol\":6887:7251  function newDataMultipleToSend(address multipleEntity, address _receiver, \r... */\n      swap3\n      swap6\n      pop\n      pop\n      pop\n      pop\n      calldataload\n      iszero\n      iszero\n      swap1\n      pop\n      tag_98\n      jump\t// in\n    tag_87:\n      0x40\n      dup1\n      mload\n      0xffffffff\n      swap1\n      swap3\n      and\n      dup3\n      mstore\n      mload\n      swap1\n      dup2\n      swap1\n      sub\n      0x20\n      add\n      swap1\n      return\n        /* \"Entity.sol\":9929:10122  function fetchValue(address src, string memory des, string memory key)\r... */\n    tag_8:\n      tag_46\n      0x04\n      dup1\n      calldatasize\n      sub\n        /* \"--CODEGEN--\":15:17   */\n      0x60\n        /* \"--CODEGEN--\":10:13   */\n      dup2\n        /* \"--CODEGEN--\":7:18   */\n      lt\n        /* \"--CODEGEN--\":4:6   */\n      iszero\n      tag_100\n      jumpi\n        /* \"--CODEGEN--\":31:32   */\n      0x00\n        /* \"--CODEGEN--\":28:29   */\n      dup1\n        /* \"--CODEGEN--\":21:33   */\n      revert\n        /* \"--CODEGEN--\":4:6   */\n    tag_100:\n      sub(shl(0xa0, 0x01), 0x01)\n        /* \"Entity.sol\":9929:10122  function fetchValue(address src, string memory des, string memory key)\r... */\n      dup3\n      calldataload\n      and\n      swap2\n      swap1\n      dup2\n      add\n      swap1\n      0x40\n      dup2\n      add\n      0x20\n      dup3\n      add\n      calldataload\n      shl(0x20, 0x01)\n        /* \"--CODEGEN--\":11:39   */\n      dup2\n      gt\n        /* \"--CODEGEN--\":8:10   */\n      iszero\n      tag_101\n      jumpi\n        /* \"--CODEGEN--\":52:53   */\n      0x00\n        /* \"--CODEGEN--\":49:50   */\n      dup1\n        /* \"--CODEGEN--\":42:54   */\n      revert\n        /* \"--CODEGEN--\":8:10   */\n    tag_101:\n        /* \"Entity.sol\":9929:10122  function fetchValue(address src, string memory des, string memory key)\r... */\n      dup3\n      add\n        /* \"--CODEGEN--\":41:50   */\n      dup4\n        /* \"--CODEGEN--\":34:38   */\n      0x20\n        /* \"--CODEGEN--\":18:32   */\n      dup3\n        /* \"--CODEGEN--\":14:39   */\n      add\n        /* \"--CODEGEN--\":11:51   */\n      gt\n        /* \"--CODEGEN--\":8:10   */\n      iszero\n      tag_102\n      jumpi\n        /* \"--CODEGEN--\":64:65   */\n      0x00\n        /* \"--CODEGEN--\":61:62   */\n      dup1\n        /* \"--CODEGEN--\":54:66   */\n      revert\n        /* \"--CODEGEN--\":8:10   */\n    tag_102:\n        /* \"Entity.sol\":9929:10122  function fetchValue(address src, string memory des, string memory key)\r... */\n      dup1\n      calldataload\n      swap1\n      0x20\n      add\n      swap2\n        /* \"--CODEGEN--\":100:109   */\n      dup5\n        /* \"--CODEGEN--\":95:96   */\n      0x01\n        /* \"--CODEGEN--\":81:93   */\n      dup4\n        /* \"--CODEGEN--\":77:97   */\n      mul\n        /* \"--CODEGEN--\":67:75   */\n      dup5\n        /* \"--CODEGEN--\":63:98   */\n      add\n        /* \"--CODEGEN--\":60:110   */\n      gt\n      shl(0x20, 0x01)\n        /* \"--CODEGEN--\":25:37   */\n      dup4\n        /* \"--CODEGEN--\":22:51   */\n      gt\n        /* \"--CODEGEN--\":11:118   */\n      or\n        /* \"--CODEGEN--\":8:10   */\n      iszero\n      tag_103\n      jumpi\n        /* \"--CODEGEN--\":131:132   */\n      0x00\n        /* \"--CODEGEN--\":128:129   */\n      dup1\n        /* \"--CODEGEN--\":121:133   */\n      revert\n        /* \"--CODEGEN--\":8:10   */\n    tag_103:\n        /* \"Entity.sol\":9929:10122  function fetchValue(address src, string memory des, string memory key)\r... */\n      swap2\n      swap1\n      dup1\n      dup1\n      0x1f\n      add\n      0x20\n      dup1\n      swap2\n      div\n      mul\n      0x20\n      add\n      mload(0x40)\n      swap1\n      dup2\n      add\n      0x40\n      mstore\n      dup1\n      swap4\n      swap3\n      swap2\n      swap1\n      dup2\n      dup2\n      mstore\n      0x20\n      add\n      dup4\n      dup4\n        /* \"--CODEGEN--\":30:33   */\n      dup1\n        /* \"--CODEGEN--\":22:28   */\n      dup3\n        /* \"--CODEGEN--\":14:20   */\n      dup5\n        /* \"--CODEGEN--\":1:34   */\n      calldatacopy\n        /* \"--CODEGEN--\":99:100   */\n      0x00\n        /* \"--CODEGEN--\":81:97   */\n      swap3\n      add\n        /* \"--CODEGEN--\":74:101   */\n      swap2\n      swap1\n      swap2\n      mstore\n      pop\n        /* \"Entity.sol\":9929:10122  function fetchValue(address src, string memory des, string memory key)\r... */\n      swap3\n      swap6\n      swap5\n      swap4\n      0x20\n      dup2\n      add\n      swap4\n      pop\n      calldataload\n      swap2\n      pop\n      pop\n      shl(0x20, 0x01)\n        /* \"--CODEGEN--\":11:39   */\n      dup2\n      gt\n        /* \"--CODEGEN--\":8:10   */\n      iszero\n      tag_104\n      jumpi\n        /* \"--CODEGEN--\":52:53   */\n      0x00\n        /* \"--CODEGEN--\":49:50   */\n      dup1\n        /* \"--CODEGEN--\":42:54   */\n      revert\n        /* \"--CODEGEN--\":8:10   */\n    tag_104:\n        /* \"Entity.sol\":9929:10122  function fetchValue(address src, string memory des, string memory key)\r... */\n      dup3\n      add\n        /* \"--CODEGEN--\":41:50   */\n      dup4\n        /* \"--CODEGEN--\":34:38   */\n      0x20\n        /* \"--CODEGEN--\":18:32   */\n      dup3\n        /* \"--CODEGEN--\":14:39   */\n      add\n        /* \"--CODEGEN--\":11:51   */\n      gt\n        /* \"--CODEGEN--\":8:10   */\n      iszero\n      tag_105\n      jumpi\n        /* \"--CODEGEN--\":64:65   */\n      0x00\n        /* \"--CODEGEN--\":61:62   */\n      dup1\n        /* \"--CODEGEN--\":54:66   */\n      revert\n        /* \"--CODEGEN--\":8:10   */\n    tag_105:\n        /* \"Entity.sol\":9929:10122  function fetchValue(address src, string memory des, string memory key)\r... */\n      dup1\n      calldataload\n      swap1\n      0x20\n      add\n      swap2\n        /* \"--CODEGEN--\":100:109   */\n      dup5\n        /* \"--CODEGEN--\":95:96   */\n      0x01\n        /* \"--CODEGEN--\":81:93   */\n      dup4\n        /* \"--CODEGEN--\":77:97   */\n      mul\n        /* \"--CODEGEN--\":67:75   */\n      dup5\n        /* \"--CODEGEN--\":63:98   */\n      add\n        /* \"--CODEGEN--\":60:110   */\n      gt\n      shl(0x20, 0x01)\n        /* \"--CODEGEN--\":25:37   */\n      dup4\n        /* \"--CODEGEN--\":22:51   */\n      gt\n        /* \"--CODEGEN--\":11:118   */\n      or\n        /* \"--CODEGEN--\":8:10   */\n      iszero\n      tag_106\n      jumpi\n        /* \"--CODEGEN--\":131:132   */\n      0x00\n        /* \"--CODEGEN--\":128:129   */\n      dup1\n        /* \"--CODEGEN--\":121:133   */\n      revert\n        /* \"--CODEGEN--\":8:10   */\n    tag_106:\n        /* \"Entity.sol\":9929:10122  function fetchValue(address src, string memory des, string memory key)\r... */\n      swap2\n      swap1\n      dup1\n      dup1\n      0x1f\n      add\n      0x20\n      dup1\n      swap2\n      div\n      mul\n      0x20\n      add\n      mload(0x40)\n      swap1\n      dup2\n      add\n      0x40\n      mstore\n      dup1\n      swap4\n      swap3\n      swap2\n      swap1\n      dup2\n      dup2\n      mstore\n      0x20\n      add\n      dup4\n      dup4\n        /* \"--CODEGEN--\":30:33   */\n      dup1\n        /* \"--CODEGEN--\":22:28   */\n      dup3\n        /* \"--CODEGEN--\":14:20   */\n      dup5\n        /* \"--CODEGEN--\":1:34   */\n      calldatacopy\n        /* \"--CODEGEN--\":99:100   */\n      0x00\n        /* \"--CODEGEN--\":81:97   */\n      swap3\n      add\n        /* \"--CODEGEN--\":74:101   */\n      swap2\n      swap1\n      swap2\n      mstore\n      pop\n        /* \"Entity.sol\":9929:10122  function fetchValue(address src, string memory des, string memory key)\r... */\n      swap3\n      swap6\n      pop\n      tag_107\n      swap5\n      pop\n      pop\n      pop\n      pop\n      pop\n      jump\t// in\n        /* \"Entity.sol\":1055:1082  address[] public dataSource */\n    tag_9:\n      tag_112\n      0x04\n      dup1\n      calldatasize\n      sub\n        /* \"--CODEGEN--\":15:17   */\n      0x20\n        /* \"--CODEGEN--\":10:13   */\n      dup2\n        /* \"--CODEGEN--\":7:18   */\n      lt\n        /* \"--CODEGEN--\":4:6   */\n      iszero\n      tag_113\n      jumpi\n        /* \"--CODEGEN--\":31:32   */\n      0x00\n        /* \"--CODEGEN--\":28:29   */\n      dup1\n        /* \"--CODEGEN--\":21:33   */\n      revert\n        /* \"--CODEGEN--\":4:6   */\n    tag_113:\n      pop\n        /* \"Entity.sol\":1055:1082  address[] public dataSource */\n      calldataload\n      tag_114\n      jump\t// in\n    tag_112:\n      0x40\n      dup1\n      mload\n      sub(shl(0xa0, 0x01), 0x01)\n      swap1\n      swap3\n      and\n      dup3\n      mstore\n      mload\n      swap1\n      dup2\n      swap1\n      sub\n      0x20\n      add\n      swap1\n      return\n        /* \"Entity.sol\":1136:1190  mapping(address=>string[]) public descriptionsBySource */\n    tag_10:\n      tag_46\n      0x04\n      dup1\n      calldatasize\n      sub\n        /* \"--CODEGEN--\":15:17   */\n      0x40\n        /* \"--CODEGEN--\":10:13   */\n      dup2\n        /* \"--CODEGEN--\":7:18   */\n      lt\n        /* \"--CODEGEN--\":4:6   */\n      iszero\n      tag_116\n      jumpi\n        /* \"--CODEGEN--\":31:32   */\n      0x00\n        /* \"--CODEGEN--\":28:29   */\n      dup1\n        /* \"--CODEGEN--\":21:33   */\n      revert\n        /* \"--CODEGEN--\":4:6   */\n    tag_116:\n      pop\n      sub(shl(0xa0, 0x01), 0x01)\n        /* \"Entity.sol\":1136:1190  mapping(address=>string[]) public descriptionsBySource */\n      dup2\n      calldataload\n      and\n      swap1\n      0x20\n      add\n      calldataload\n      tag_117\n      jump\t// in\n        /* \"Entity.sol\":9431:9566  function sourceLength()\r... */\n    tag_11:\n      tag_87\n      tag_123\n      jump\t// in\n        /* \"Entity.sol\":4326:4562  function approveDataToReceive(uint32 index)\r... */\n    tag_12:\n      tag_124\n      0x04\n      dup1\n      calldatasize\n      sub\n        /* \"--CODEGEN--\":15:17   */\n      0x20\n        /* \"--CODEGEN--\":10:13   */\n      dup2\n        /* \"--CODEGEN--\":7:18   */\n      lt\n        /* \"--CODEGEN--\":4:6   */\n      iszero\n      tag_125\n      jumpi\n        /* \"--CODEGEN--\":31:32   */\n      0x00\n        /* \"--CODEGEN--\":28:29   */\n      dup1\n        /* \"--CODEGEN--\":21:33   */\n      revert\n        /* \"--CODEGEN--\":4:6   */\n    tag_125:\n      pop\n        /* \"Entity.sol\":4326:4562  function approveDataToReceive(uint32 index)\r... */\n      calldataload\n      0xffffffff\n      and\n      tag_126\n      jump\t// in\n    tag_124:\n      stop\n        /* \"Entity.sol\":4796:4958  function pendingDataToReceiveCount() \r... */\n    tag_13:\n      tag_87\n      tag_128\n      jump\t// in\n        /* \"Entity.sol\":986:1048  mapping(address=>mapping(string=>string)) public MarkupsSender */\n    tag_14:\n      tag_46\n      0x04\n      dup1\n      calldatasize\n      sub\n        /* \"--CODEGEN--\":15:17   */\n      0x40\n        /* \"--CODEGEN--\":10:13   */\n      dup2\n        /* \"--CODEGEN--\":7:18   */\n      lt\n        /* \"--CODEGEN--\":4:6   */\n      iszero\n      tag_130\n      jumpi\n        /* \"--CODEGEN--\":31:32   */\n      0x00\n        /* \"--CODEGEN--\":28:29   */\n      dup1\n        /* \"--CODEGEN--\":21:33   */\n      revert\n        /* \"--CODEGEN--\":4:6   */\n    tag_130:\n      sub(shl(0xa0, 0x01), 0x01)\n        /* \"Entity.sol\":986:1048  mapping(address=>mapping(string=>string)) public MarkupsSender */\n      dup3\n      calldataload\n      and\n      swap2\n      swap1\n      dup2\n      add\n      swap1\n      0x40\n      dup2\n      add\n      0x20\n      dup3\n      add\n      calldataload\n      shl(0x20, 0x01)\n        /* \"--CODEGEN--\":11:39   */\n      dup2\n      gt\n        /* \"--CODEGEN--\":8:10   */\n      iszero\n      tag_131\n      jumpi\n        /* \"--CODEGEN--\":52:53   */\n      0x00\n        /* \"--CODEGEN--\":49:50   */\n      dup1\n        /* \"--CODEGEN--\":42:54   */\n      revert\n        /* \"--CODEGEN--\":8:10   */\n    tag_131:\n        /* \"Entity.sol\":986:1048  mapping(address=>mapping(string=>string)) public MarkupsSender */\n      dup3\n      add\n        /* \"--CODEGEN--\":41:50   */\n      dup4\n        /* \"--CODEGEN--\":34:38   */\n      0x20\n        /* \"--CODEGEN--\":18:32   */\n      dup3\n        /* \"--CODEGEN--\":14:39   */\n      add\n        /* \"--CODEGEN--\":11:51   */\n      gt\n        /* \"--CODEGEN--\":8:10   */\n      iszero\n      tag_132\n      jumpi\n        /* \"--CODEGEN--\":64:65   */\n      0x00\n        /* \"--CODEGEN--\":61:62   */\n      dup1\n        /* \"--CODEGEN--\":54:66   */\n      revert\n        /* \"--CODEGEN--\":8:10   */\n    tag_132:\n        /* \"Entity.sol\":986:1048  mapping(address=>mapping(string=>string)) public MarkupsSender */\n      dup1\n      calldataload\n      swap1\n      0x20\n      add\n      swap2\n        /* \"--CODEGEN--\":100:109   */\n      dup5\n        /* \"--CODEGEN--\":95:96   */\n      0x01\n        /* \"--CODEGEN--\":81:93   */\n      dup4\n        /* \"--CODEGEN--\":77:97   */\n      mul\n        /* \"--CODEGEN--\":67:75   */\n      dup5\n        /* \"--CODEGEN--\":63:98   */\n      add\n        /* \"--CODEGEN--\":60:110   */\n      gt\n      shl(0x20, 0x01)\n        /* \"--CODEGEN--\":25:37   */\n      dup4\n        /* \"--CODEGEN--\":22:51   */\n      gt\n        /* \"--CODEGEN--\":11:118   */\n      or\n        /* \"--CODEGEN--\":8:10   */\n      iszero\n      tag_133\n      jumpi\n        /* \"--CODEGEN--\":131:132   */\n      0x00\n        /* \"--CODEGEN--\":128:129   */\n      dup1\n        /* \"--CODEGEN--\":121:133   */\n      revert\n        /* \"--CODEGEN--\":8:10   */\n    tag_133:\n        /* \"Entity.sol\":986:1048  mapping(address=>mapping(string=>string)) public MarkupsSender */\n      swap2\n      swap1\n      dup1\n      dup1\n      0x1f\n      add\n      0x20\n      dup1\n      swap2\n      div\n      mul\n      0x20\n      add\n      mload(0x40)\n      swap1\n      dup2\n      add\n      0x40\n      mstore\n      dup1\n      swap4\n      swap3\n      swap2\n      swap1\n      dup2\n      dup2\n      mstore\n      0x20\n      add\n      dup4\n      dup4\n        /* \"--CODEGEN--\":30:33   */\n      dup1\n        /* \"--CODEGEN--\":22:28   */\n      dup3\n        /* \"--CODEGEN--\":14:20   */\n      dup5\n        /* \"--CODEGEN--\":1:34   */\n      calldatacopy\n        /* \"--CODEGEN--\":99:100   */\n      0x00\n        /* \"--CODEGEN--\":81:97   */\n      swap3\n      add\n        /* \"--CODEGEN--\":74:101   */\n      swap2\n      swap1\n      swap2\n      mstore\n      pop\n        /* \"Entity.sol\":986:1048  mapping(address=>mapping(string=>string)) public MarkupsSender */\n      swap3\n      swap6\n      pop\n      tag_134\n      swap5\n      pop\n      pop\n      pop\n      pop\n      pop\n      jump\t// in\n        /* \"Entity.sol\":1517:1749  function markup(address target, string memory description, string memory markup)\r... */\n    tag_15:\n      tag_124\n      0x04\n      dup1\n      calldatasize\n      sub\n        /* \"--CODEGEN--\":15:17   */\n      0x60\n        /* \"--CODEGEN--\":10:13   */\n      dup2\n        /* \"--CODEGEN--\":7:18   */\n      lt\n        /* \"--CODEGEN--\":4:6   */\n      iszero\n      tag_140\n      jumpi\n        /* \"--CODEGEN--\":31:32   */\n      0x00\n        /* \"--CODEGEN--\":28:29   */\n      dup1\n        /* \"--CODEGEN--\":21:33   */\n      revert\n        /* \"--CODEGEN--\":4:6   */\n    tag_140:\n      sub(shl(0xa0, 0x01), 0x01)\n        /* \"Entity.sol\":1517:1749  function markup(address target, string memory description, string memory markup)\r... */\n      dup3\n      calldataload\n      and\n      swap2\n      swap1\n      dup2\n      add\n      swap1\n      0x40\n      dup2\n      add\n      0x20\n      dup3\n      add\n      calldataload\n      shl(0x20, 0x01)\n        /* \"--CODEGEN--\":11:39   */\n      dup2\n      gt\n        /* \"--CODEGEN--\":8:10   */\n      iszero\n      tag_141\n      jumpi\n        /* \"--CODEGEN--\":52:53   */\n      0x00\n        /* \"--CODEGEN--\":49:50   */\n      dup1\n        /* \"--CODEGEN--\":42:54   */\n      revert\n        /* \"--CODEGEN--\":8:10   */\n    tag_141:\n        /* \"Entity.sol\":1517:1749  function markup(address target, string memory description, string memory markup)\r... */\n      dup3\n      add\n        /* \"--CODEGEN--\":41:50   */\n      dup4\n        /* \"--CODEGEN--\":34:38   */\n      0x20\n        /* \"--CODEGEN--\":18:32   */\n      dup3\n        /* \"--CODEGEN--\":14:39   */\n      add\n        /* \"--CODEGEN--\":11:51   */\n      gt\n        /* \"--CODEGEN--\":8:10   */\n      iszero\n      tag_142\n      jumpi\n        /* \"--CODEGEN--\":64:65   */\n      0x00\n        /* \"--CODEGEN--\":61:62   */\n      dup1\n        /* \"--CODEGEN--\":54:66   */\n      revert\n        /* \"--CODEGEN--\":8:10   */\n    tag_142:\n        /* \"Entity.sol\":1517:1749  function markup(address target, string memory description, string memory markup)\r... */\n      dup1\n      calldataload\n      swap1\n      0x20\n      add\n      swap2\n        /* \"--CODEGEN--\":100:109   */\n      dup5\n        /* \"--CODEGEN--\":95:96   */\n      0x01\n        /* \"--CODEGEN--\":81:93   */\n      dup4\n        /* \"--CODEGEN--\":77:97   */\n      mul\n        /* \"--CODEGEN--\":67:75   */\n      dup5\n        /* \"--CODEGEN--\":63:98   */\n      add\n        /* \"--CODEGEN--\":60:110   */\n      gt\n      shl(0x20, 0x01)\n        /* \"--CODEGEN--\":25:37   */\n      dup4\n        /* \"--CODEGEN--\":22:51   */\n      gt\n        /* \"--CODEGEN--\":11:118   */\n      or\n        /* \"--CODEGEN--\":8:10   */\n      iszero\n      tag_143\n      jumpi\n        /* \"--CODEGEN--\":131:132   */\n      0x00\n        /* \"--CODEGEN--\":128:129   */\n      dup1\n        /* \"--CODEGEN--\":121:133   */\n      revert\n        /* \"--CODEGEN--\":8:10   */\n    tag_143:\n        /* \"Entity.sol\":1517:1749  function markup(address target, string memory description, string memory markup)\r... */\n      swap2\n      swap1\n      dup1\n      dup1\n      0x1f\n      add\n      0x20\n      dup1\n      swap2\n      div\n      mul\n      0x20\n      add\n      mload(0x40)\n      swap1\n      dup2\n      add\n      0x40\n      mstore\n      dup1\n      swap4\n      swap3\n      swap2\n      swap1\n      dup2\n      dup2\n      mstore\n      0x20\n      add\n      dup4\n      dup4\n        /* \"--CODEGEN--\":30:33   */\n      dup1\n        /* \"--CODEGEN--\":22:28   */\n      dup3\n        /* \"--CODEGEN--\":14:20   */\n      dup5\n        /* \"--CODEGEN--\":1:34   */\n      calldatacopy\n        /* \"--CODEGEN--\":99:100   */\n      0x00\n        /* \"--CODEGEN--\":81:97   */\n      swap3\n      add\n        /* \"--CODEGEN--\":74:101   */\n      swap2\n      swap1\n      swap2\n      mstore\n      pop\n        /* \"Entity.sol\":1517:1749  function markup(address target, string memory description, string memory markup)\r... */\n      swap3\n      swap6\n      swap5\n      swap4\n      0x20\n      dup2\n      add\n      swap4\n      pop\n      calldataload\n      swap2\n      pop\n      pop\n      shl(0x20, 0x01)\n        /* \"--CODEGEN--\":11:39   */\n      dup2\n      gt\n        /* \"--CODEGEN--\":8:10   */\n      iszero\n      tag_144\n      jumpi\n        /* \"--CODEGEN--\":52:53   */\n      0x00\n        /* \"--CODEGEN--\":49:50   */\n      dup1\n        /* \"--CODEGEN--\":42:54   */\n      revert\n        /* \"--CODEGEN--\":8:10   */\n    tag_144:\n        /* \"Entity.sol\":1517:1749  function markup(address target, string memory description, string memory markup)\r... */\n      dup3\n      add\n        /* \"--CODEGEN--\":41:50   */\n      dup4\n        /* \"--CODEGEN--\":34:38   */\n      0x20\n        /* \"--CODEGEN--\":18:32   */\n      dup3\n        /* \"--CODEGEN--\":14:39   */\n      add\n        /* \"--CODEGEN--\":11:51   */\n      gt\n        /* \"--CODEGEN--\":8:10   */\n      iszero\n      tag_145\n      jumpi\n        /* \"--CODEGEN--\":64:65   */\n      0x00\n        /* \"--CODEGEN--\":61:62   */\n      dup1\n        /* \"--CODEGEN--\":54:66   */\n      revert\n        /* \"--CODEGEN--\":8:10   */\n    tag_145:\n        /* \"Entity.sol\":1517:1749  function markup(address target, string memory description, string memory markup)\r... */\n      dup1\n      calldataload\n      swap1\n      0x20\n      add\n      swap2\n        /* \"--CODEGEN--\":100:109   */\n      dup5\n        /* \"--CODEGEN--\":95:96   */\n      0x01\n        /* \"--CODEGEN--\":81:93   */\n      dup4\n        /* \"--CODEGEN--\":77:97   */\n      mul\n        /* \"--CODEGEN--\":67:75   */\n      dup5\n        /* \"--CODEGEN--\":63:98   */\n      add\n        /* \"--CODEGEN--\":60:110   */\n      gt\n      shl(0x20, 0x01)\n        /* \"--CODEGEN--\":25:37   */\n      dup4\n        /* \"--CODEGEN--\":22:51   */\n      gt\n        /* \"--CODEGEN--\":11:118   */\n      or\n        /* \"--CODEGEN--\":8:10   */\n      iszero\n      tag_146\n      jumpi\n        /* \"--CODEGEN--\":131:132   */\n      0x00\n        /* \"--CODEGEN--\":128:129   */\n      dup1\n        /* \"--CODEGEN--\":121:133   */\n      revert\n        /* \"--CODEGEN--\":8:10   */\n    tag_146:\n        /* \"Entity.sol\":1517:1749  function markup(address target, string memory description, string memory markup)\r... */\n      swap2\n      swap1\n      dup1\n      dup1\n      0x1f\n      add\n      0x20\n      dup1\n      swap2\n      div\n      mul\n      0x20\n      add\n      mload(0x40)\n      swap1\n      dup2\n      add\n      0x40\n      mstore\n      dup1\n      swap4\n      swap3\n      swap2\n      swap1\n      dup2\n      dup2\n      mstore\n      0x20\n      add\n      dup4\n      dup4\n        /* \"--CODEGEN--\":30:33   */\n      dup1\n        /* \"--CODEGEN--\":22:28   */\n      dup3\n        /* \"--CODEGEN--\":14:20   */\n      dup5\n        /* \"--CODEGEN--\":1:34   */\n      calldatacopy\n        /* \"--CODEGEN--\":99:100   */\n      0x00\n        /* \"--CODEGEN--\":81:97   */\n      swap3\n      add\n        /* \"--CODEGEN--\":74:101   */\n      swap2\n      swap1\n      swap2\n      mstore\n      pop\n        /* \"Entity.sol\":1517:1749  function markup(address target, string memory description, string memory markup)\r... */\n      swap3\n      swap6\n      pop\n      tag_147\n      swap5\n      pop\n      pop\n      pop\n      pop\n      pop\n      jump\t// in\n        /* \"Entity.sol\":4970:5148  function dataSizeToReceive(uint32 index) \r... */\n    tag_16:\n      tag_87\n      0x04\n      dup1\n      calldatasize\n      sub\n        /* \"--CODEGEN--\":15:17   */\n      0x20\n        /* \"--CODEGEN--\":10:13   */\n      dup2\n        /* \"--CODEGEN--\":7:18   */\n      lt\n        /* \"--CODEGEN--\":4:6   */\n      iszero\n      tag_149\n      jumpi\n        /* \"--CODEGEN--\":31:32   */\n      0x00\n        /* \"--CODEGEN--\":28:29   */\n      dup1\n        /* \"--CODEGEN--\":21:33   */\n      revert\n        /* \"--CODEGEN--\":4:6   */\n    tag_149:\n      pop\n        /* \"Entity.sol\":4970:5148  function dataSizeToReceive(uint32 index) \r... */\n      calldataload\n      0xffffffff\n      and\n      tag_150\n      jump\t// in\n        /* \"Entity.sol\":7782:8324  function approveDataToSend(uint32 index) \r... */\n    tag_17:\n      tag_124\n      0x04\n      dup1\n      calldatasize\n      sub\n        /* \"--CODEGEN--\":15:17   */\n      0x20\n        /* \"--CODEGEN--\":10:13   */\n      dup2\n        /* \"--CODEGEN--\":7:18   */\n      lt\n        /* \"--CODEGEN--\":4:6   */\n      iszero\n      tag_152\n      jumpi\n        /* \"--CODEGEN--\":31:32   */\n      0x00\n        /* \"--CODEGEN--\":28:29   */\n      dup1\n        /* \"--CODEGEN--\":21:33   */\n      revert\n        /* \"--CODEGEN--\":4:6   */\n    tag_152:\n      pop\n        /* \"Entity.sol\":7782:8324  function approveDataToSend(uint32 index) \r... */\n      calldataload\n      0xffffffff\n      and\n      tag_153\n      jump\t// in\n        /* \"Entity.sol\":1757:1979  function _markup(string calldata description, string calldata markup)\r... */\n    tag_18:\n      tag_124\n      0x04\n      dup1\n      calldatasize\n      sub\n        /* \"--CODEGEN--\":15:17   */\n      0x40\n        /* \"--CODEGEN--\":10:13   */\n      dup2\n        /* \"--CODEGEN--\":7:18   */\n      lt\n        /* \"--CODEGEN--\":4:6   */\n      iszero\n      tag_155\n      jumpi\n        /* \"--CODEGEN--\":31:32   */\n      0x00\n        /* \"--CODEGEN--\":28:29   */\n      dup1\n        /* \"--CODEGEN--\":21:33   */\n      revert\n        /* \"--CODEGEN--\":4:6   */\n    tag_155:\n        /* \"Entity.sol\":1757:1979  function _markup(string calldata description, string calldata markup)\r... */\n      dup2\n      add\n      swap1\n      0x20\n      dup2\n      add\n      dup2\n      calldataload\n      shl(0x20, 0x01)\n        /* \"--CODEGEN--\":11:39   */\n      dup2\n      gt\n        /* \"--CODEGEN--\":8:10   */\n      iszero\n      tag_156\n      jumpi\n        /* \"--CODEGEN--\":52:53   */\n      0x00\n        /* \"--CODEGEN--\":49:50   */\n      dup1\n        /* \"--CODEGEN--\":42:54   */\n      revert\n        /* \"--CODEGEN--\":8:10   */\n    tag_156:\n        /* \"Entity.sol\":1757:1979  function _markup(string calldata description, string calldata markup)\r... */\n      dup3\n      add\n        /* \"--CODEGEN--\":41:50   */\n      dup4\n        /* \"--CODEGEN--\":34:38   */\n      0x20\n        /* \"--CODEGEN--\":18:32   */\n      dup3\n        /* \"--CODEGEN--\":14:39   */\n      add\n        /* \"--CODEGEN--\":11:51   */\n      gt\n        /* \"--CODEGEN--\":8:10   */\n      iszero\n      tag_157\n      jumpi\n        /* \"--CODEGEN--\":64:65   */\n      0x00\n        /* \"--CODEGEN--\":61:62   */\n      dup1\n        /* \"--CODEGEN--\":54:66   */\n      revert\n        /* \"--CODEGEN--\":8:10   */\n    tag_157:\n        /* \"Entity.sol\":1757:1979  function _markup(string calldata description, string calldata markup)\r... */\n      dup1\n      calldataload\n      swap1\n      0x20\n      add\n      swap2\n        /* \"--CODEGEN--\":100:109   */\n      dup5\n        /* \"--CODEGEN--\":95:96   */\n      0x01\n        /* \"--CODEGEN--\":81:93   */\n      dup4\n        /* \"--CODEGEN--\":77:97   */\n      mul\n        /* \"--CODEGEN--\":67:75   */\n      dup5\n        /* \"--CODEGEN--\":63:98   */\n      add\n        /* \"--CODEGEN--\":60:110   */\n      gt\n      shl(0x20, 0x01)\n        /* \"--CODEGEN--\":25:37   */\n      dup4\n        /* \"--CODEGEN--\":22:51   */\n      gt\n        /* \"--CODEGEN--\":11:118   */\n      or\n        /* \"--CODEGEN--\":8:10   */\n      iszero\n      tag_158\n      jumpi\n        /* \"--CODEGEN--\":131:132   */\n      0x00\n        /* \"--CODEGEN--\":128:129   */\n      dup1\n        /* \"--CODEGEN--\":121:133   */\n      revert\n        /* \"--CODEGEN--\":8:10   */\n    tag_158:\n        /* \"Entity.sol\":1757:1979  function _markup(string calldata description, string calldata markup)\r... */\n      swap2\n      swap4\n      swap1\n      swap3\n      swap1\n      swap2\n      0x20\n      dup2\n      add\n      swap1\n      calldataload\n      shl(0x20, 0x01)\n        /* \"--CODEGEN--\":11:39   */\n      dup2\n      gt\n        /* \"--CODEGEN--\":8:10   */\n      iszero\n      tag_159\n      jumpi\n        /* \"--CODEGEN--\":52:53   */\n      0x00\n        /* \"--CODEGEN--\":49:50   */\n      dup1\n        /* \"--CODEGEN--\":42:54   */\n      revert\n        /* \"--CODEGEN--\":8:10   */\n    tag_159:\n        /* \"Entity.sol\":1757:1979  function _markup(string calldata description, string calldata markup)\r... */\n      dup3\n      add\n        /* \"--CODEGEN--\":41:50   */\n      dup4\n        /* \"--CODEGEN--\":34:38   */\n      0x20\n        /* \"--CODEGEN--\":18:32   */\n      dup3\n        /* \"--CODEGEN--\":14:39   */\n      add\n        /* \"--CODEGEN--\":11:51   */\n      gt\n        /* \"--CODEGEN--\":8:10   */\n      iszero\n      tag_160\n      jumpi\n        /* \"--CODEGEN--\":64:65   */\n      0x00\n        /* \"--CODEGEN--\":61:62   */\n      dup1\n        /* \"--CODEGEN--\":54:66   */\n      revert\n        /* \"--CODEGEN--\":8:10   */\n    tag_160:\n        /* \"Entity.sol\":1757:1979  function _markup(string calldata description, string calldata markup)\r... */\n      dup1\n      calldataload\n      swap1\n      0x20\n      add\n      swap2\n        /* \"--CODEGEN--\":100:109   */\n      dup5\n        /* \"--CODEGEN--\":95:96   */\n      0x01\n        /* \"--CODEGEN--\":81:93   */\n      dup4\n        /* \"--CODEGEN--\":77:97   */\n      mul\n        /* \"--CODEGEN--\":67:75   */\n      dup5\n        /* \"--CODEGEN--\":63:98   */\n      add\n        /* \"--CODEGEN--\":60:110   */\n      gt\n      shl(0x20, 0x01)\n        /* \"--CODEGEN--\":25:37   */\n      dup4\n        /* \"--CODEGEN--\":22:51   */\n      gt\n        /* \"--CODEGEN--\":11:118   */\n      or\n        /* \"--CODEGEN--\":8:10   */\n      iszero\n      tag_161\n      jumpi\n        /* \"--CODEGEN--\":131:132   */\n      0x00\n        /* \"--CODEGEN--\":128:129   */\n      dup1\n        /* \"--CODEGEN--\":121:133   */\n      revert\n        /* \"--CODEGEN--\":8:10   */\n    tag_161:\n      pop\n        /* \"Entity.sol\":1757:1979  function _markup(string calldata description, string calldata markup)\r... */\n      swap1\n      swap3\n      pop\n      swap1\n      pop\n      tag_162\n      jump\t// in\n        /* \"Entity.sol\":692:728  bool constant public isEntity = true */\n    tag_19:\n      tag_163\n      tag_164\n      jump\t// in\n    tag_163:\n      0x40\n      dup1\n      mload\n      swap2\n      iszero\n      iszero\n      dup3\n      mstore\n      mload\n      swap1\n      dup2\n      swap1\n      sub\n      0x20\n      add\n      swap1\n      return\n        /* \"Entity.sol\":1987:2236  function markupSelf(address sender, string memory description, string memory markup)\r... */\n    tag_20:\n      tag_124\n      0x04\n      dup1\n      calldatasize\n      sub\n        /* \"--CODEGEN--\":15:17   */\n      0x60\n        /* \"--CODEGEN--\":10:13   */\n      dup2\n        /* \"--CODEGEN--\":7:18   */\n      lt\n        /* \"--CODEGEN--\":4:6   */\n      iszero\n      tag_166\n      jumpi\n        /* \"--CODEGEN--\":31:32   */\n      0x00\n        /* \"--CODEGEN--\":28:29   */\n      dup1\n        /* \"--CODEGEN--\":21:33   */\n      revert\n        /* \"--CODEGEN--\":4:6   */\n    tag_166:\n      sub(shl(0xa0, 0x01), 0x01)\n        /* \"Entity.sol\":1987:2236  function markupSelf(address sender, string memory description, string memory markup)\r... */\n      dup3\n      calldataload\n      and\n      swap2\n      swap1\n      dup2\n      add\n      swap1\n      0x40\n      dup2\n      add\n      0x20\n      dup3\n      add\n      calldataload\n      shl(0x20, 0x01)\n        /* \"--CODEGEN--\":11:39   */\n      dup2\n      gt\n        /* \"--CODEGEN--\":8:10   */\n      iszero\n      tag_167\n      jumpi\n        /* \"--CODEGEN--\":52:53   */\n      0x00\n        /* \"--CODEGEN--\":49:50   */\n      dup1\n        /* \"--CODEGEN--\":42:54   */\n      revert\n        /* \"--CODEGEN--\":8:10   */\n    tag_167:\n        /* \"Entity.sol\":1987:2236  function markupSelf(address sender, string memory description, string memory markup)\r... */\n      dup3\n      add\n        /* \"--CODEGEN--\":41:50   */\n      dup4\n        /* \"--CODEGEN--\":34:38   */\n      0x20\n        /* \"--CODEGEN--\":18:32   */\n      dup3\n        /* \"--CODEGEN--\":14:39   */\n      add\n        /* \"--CODEGEN--\":11:51   */\n      gt\n        /* \"--CODEGEN--\":8:10   */\n      iszero\n      tag_168\n      jumpi\n        /* \"--CODEGEN--\":64:65   */\n      0x00\n        /* \"--CODEGEN--\":61:62   */\n      dup1\n        /* \"--CODEGEN--\":54:66   */\n      revert\n        /* \"--CODEGEN--\":8:10   */\n    tag_168:\n        /* \"Entity.sol\":1987:2236  function markupSelf(address sender, string memory description, string memory markup)\r... */\n      dup1\n      calldataload\n      swap1\n      0x20\n      add\n      swap2\n        /* \"--CODEGEN--\":100:109   */\n      dup5\n        /* \"--CODEGEN--\":95:96   */\n      0x01\n        /* \"--CODEGEN--\":81:93   */\n      dup4\n        /* \"--CODEGEN--\":77:97   */\n      mul\n        /* \"--CODEGEN--\":67:75   */\n      dup5\n        /* \"--CODEGEN--\":63:98   */\n      add\n        /* \"--CODEGEN--\":60:110   */\n      gt\n      shl(0x20, 0x01)\n        /* \"--CODEGEN--\":25:37   */\n      dup4\n        /* \"--CODEGEN--\":22:51   */\n      gt\n        /* \"--CODEGEN--\":11:118   */\n      or\n        /* \"--CODEGEN--\":8:10   */\n      iszero\n      tag_169\n      jumpi\n        /* \"--CODEGEN--\":131:132   */\n      0x00\n        /* \"--CODEGEN--\":128:129   */\n      dup1\n        /* \"--CODEGEN--\":121:133   */\n      revert\n        /* \"--CODEGEN--\":8:10   */\n    tag_169:\n        /* \"Entity.sol\":1987:2236  function markupSelf(address sender, string memory description, string memory markup)\r... */\n      swap2\n      swap1\n      dup1\n      dup1\n      0x1f\n      add\n      0x20\n      dup1\n      swap2\n      div\n      mul\n      0x20\n      add\n      mload(0x40)\n      swap1\n      dup2\n      add\n      0x40\n      mstore\n      dup1\n      swap4\n      swap3\n      swap2\n      swap1\n      dup2\n      dup2\n      mstore\n      0x20\n      add\n      dup4\n      dup4\n        /* \"--CODEGEN--\":30:33   */\n      dup1\n        /* \"--CODEGEN--\":22:28   */\n      dup3\n        /* \"--CODEGEN--\":14:20   */\n      dup5\n        /* \"--CODEGEN--\":1:34   */\n      calldatacopy\n        /* \"--CODEGEN--\":99:100   */\n      0x00\n        /* \"--CODEGEN--\":81:97   */\n      swap3\n      add\n        /* \"--CODEGEN--\":74:101   */\n      swap2\n      swap1\n      swap2\n      mstore\n      pop\n        /* \"Entity.sol\":1987:2236  function markupSelf(address sender, string memory description, string memory markup)\r... */\n      swap3\n      swap6\n      swap5\n      swap4\n      0x20\n      dup2\n      add\n      swap4\n      pop\n      calldataload\n      swap2\n      pop\n      pop\n      shl(0x20, 0x01)\n        /* \"--CODEGEN--\":11:39   */\n      dup2\n      gt\n        /* \"--CODEGEN--\":8:10   */\n      iszero\n      tag_170\n      jumpi\n        /* \"--CODEGEN--\":52:53   */\n      0x00\n        /* \"--CODEGEN--\":49:50   */\n      dup1\n        /* \"--CODEGEN--\":42:54   */\n      revert\n        /* \"--CODEGEN--\":8:10   */\n    tag_170:\n        /* \"Entity.sol\":1987:2236  function markupSelf(address sender, string memory description, string memory markup)\r... */\n      dup3\n      add\n        /* \"--CODEGEN--\":41:50   */\n      dup4\n        /* \"--CODEGEN--\":34:38   */\n      0x20\n        /* \"--CODEGEN--\":18:32   */\n      dup3\n        /* \"--CODEGEN--\":14:39   */\n      add\n        /* \"--CODEGEN--\":11:51   */\n      gt\n        /* \"--CODEGEN--\":8:10   */\n      iszero\n      tag_171\n      jumpi\n        /* \"--CODEGEN--\":64:65   */\n      0x00\n        /* \"--CODEGEN--\":61:62   */\n      dup1\n        /* \"--CODEGEN--\":54:66   */\n      revert\n        /* \"--CODEGEN--\":8:10   */\n    tag_171:\n        /* \"Entity.sol\":1987:2236  function markupSelf(address sender, string memory description, string memory markup)\r... */\n      dup1\n      calldataload\n      swap1\n      0x20\n      add\n      swap2\n        /* \"--CODEGEN--\":100:109   */\n      dup5\n        /* \"--CODEGEN--\":95:96   */\n      0x01\n        /* \"--CODEGEN--\":81:93   */\n      dup4\n        /* \"--CODEGEN--\":77:97   */\n      mul\n        /* \"--CODEGEN--\":67:75   */\n      dup5\n        /* \"--CODEGEN--\":63:98   */\n      add\n        /* \"--CODEGEN--\":60:110   */\n      gt\n      shl(0x20, 0x01)\n        /* \"--CODEGEN--\":25:37   */\n      dup4\n        /* \"--CODEGEN--\":22:51   */\n      gt\n        /* \"--CODEGEN--\":11:118   */\n      or\n        /* \"--CODEGEN--\":8:10   */\n      iszero\n      tag_172\n      jumpi\n        /* \"--CODEGEN--\":131:132   */\n      0x00\n        /* \"--CODEGEN--\":128:129   */\n      dup1\n        /* \"--CODEGEN--\":121:133   */\n      revert\n        /* \"--CODEGEN--\":8:10   */\n    tag_172:\n        /* \"Entity.sol\":1987:2236  function markupSelf(address sender, string memory description, string memory markup)\r... */\n      swap2\n      swap1\n      dup1\n      dup1\n      0x1f\n      add\n      0x20\n      dup1\n      swap2\n      div\n      mul\n      0x20\n      add\n      mload(0x40)\n      swap1\n      dup2\n      add\n      0x40\n      mstore\n      dup1\n      swap4\n      swap3\n      swap2\n      swap1\n      dup2\n      dup2\n      mstore\n      0x20\n      add\n      dup4\n      dup4\n        /* \"--CODEGEN--\":30:33   */\n      dup1\n        /* \"--CODEGEN--\":22:28   */\n      dup3\n        /* \"--CODEGEN--\":14:20   */\n      dup5\n        /* \"--CODEGEN--\":1:34   */\n      calldatacopy\n        /* \"--CODEGEN--\":99:100   */\n      0x00\n        /* \"--CODEGEN--\":81:97   */\n      swap3\n      add\n        /* \"--CODEGEN--\":74:101   */\n      swap2\n      swap1\n      swap2\n      mstore\n      pop\n        /* \"Entity.sol\":1987:2236  function markupSelf(address sender, string memory description, string memory markup)\r... */\n      swap3\n      swap6\n      pop\n      tag_173\n      swap5\n      pop\n      pop\n      pop\n      pop\n      pop\n      jump\t// in\n        /* \"Entity.sol\":5463:6875  function newDataToSend(address _receiver, string memory _description, string memory _key, string memory _value, bool direct) \r... */\n    tag_21:\n      tag_124\n      0x04\n      dup1\n      calldatasize\n      sub\n        /* \"--CODEGEN--\":15:18   */\n      0xa0\n        /* \"--CODEGEN--\":10:13   */\n      dup2\n        /* \"--CODEGEN--\":7:19   */\n      lt\n        /* \"--CODEGEN--\":4:6   */\n      iszero\n      tag_175\n      jumpi\n        /* \"--CODEGEN--\":32:33   */\n      0x00\n        /* \"--CODEGEN--\":29:30   */\n      dup1\n        /* \"--CODEGEN--\":22:34   */\n      revert\n        /* \"--CODEGEN--\":4:6   */\n    tag_175:\n      sub(shl(0xa0, 0x01), 0x01)\n        /* \"Entity.sol\":5463:6875  function newDataToSend(address _receiver, string memory _description, string memory _key, string memory _value, bool direct) \r... */\n      dup3\n      calldataload\n      and\n      swap2\n      swap1\n      dup2\n      add\n      swap1\n      0x40\n      dup2\n      add\n      0x20\n      dup3\n      add\n      calldataload\n      shl(0x20, 0x01)\n        /* \"--CODEGEN--\":11:39   */\n      dup2\n      gt\n        /* \"--CODEGEN--\":8:10   */\n      iszero\n      tag_176\n      jumpi\n        /* \"--CODEGEN--\":52:53   */\n      0x00\n        /* \"--CODEGEN--\":49:50   */\n      dup1\n        /* \"--CODEGEN--\":42:54   */\n      revert\n        /* \"--CODEGEN--\":8:10   */\n    tag_176:\n        /* \"Entity.sol\":5463:6875  function newDataToSend(address _receiver, string memory _description, string memory _key, string memory _value, bool direct) \r... */\n      dup3\n      add\n        /* \"--CODEGEN--\":41:50   */\n      dup4\n        /* \"--CODEGEN--\":34:38   */\n      0x20\n        /* \"--CODEGEN--\":18:32   */\n      dup3\n        /* \"--CODEGEN--\":14:39   */\n      add\n        /* \"--CODEGEN--\":11:51   */\n      gt\n        /* \"--CODEGEN--\":8:10   */\n      iszero\n      tag_177\n      jumpi\n        /* \"--CODEGEN--\":64:65   */\n      0x00\n        /* \"--CODEGEN--\":61:62   */\n      dup1\n        /* \"--CODEGEN--\":54:66   */\n      revert\n        /* \"--CODEGEN--\":8:10   */\n    tag_177:\n        /* \"Entity.sol\":5463:6875  function newDataToSend(address _receiver, string memory _description, string memory _key, string memory _value, bool direct) \r... */\n      dup1\n      calldataload\n      swap1\n      0x20\n      add\n      swap2\n        /* \"--CODEGEN--\":100:109   */\n      dup5\n        /* \"--CODEGEN--\":95:96   */\n      0x01\n        /* \"--CODEGEN--\":81:93   */\n      dup4\n        /* \"--CODEGEN--\":77:97   */\n      mul\n        /* \"--CODEGEN--\":67:75   */\n      dup5\n        /* \"--CODEGEN--\":63:98   */\n      add\n        /* \"--CODEGEN--\":60:110   */\n      gt\n      shl(0x20, 0x01)\n        /* \"--CODEGEN--\":25:37   */\n      dup4\n        /* \"--CODEGEN--\":22:51   */\n      gt\n        /* \"--CODEGEN--\":11:118   */\n      or\n        /* \"--CODEGEN--\":8:10   */\n      iszero\n      tag_178\n      jumpi\n        /* \"--CODEGEN--\":131:132   */\n      0x00\n        /* \"--CODEGEN--\":128:129   */\n      dup1\n        /* \"--CODEGEN--\":121:133   */\n      revert\n        /* \"--CODEGEN--\":8:10   */\n    tag_178:\n        /* \"Entity.sol\":5463:6875  function newDataToSend(address _receiver, string memory _description, string memory _key, string memory _value, bool direct) \r... */\n      swap2\n      swap1\n      dup1\n      dup1\n      0x1f\n      add\n      0x20\n      dup1\n      swap2\n      div\n      mul\n      0x20\n      add\n      mload(0x40)\n      swap1\n      dup2\n      add\n      0x40\n      mstore\n      dup1\n      swap4\n      swap3\n      swap2\n      swap1\n      dup2\n      dup2\n      mstore\n      0x20\n      add\n      dup4\n      dup4\n        /* \"--CODEGEN--\":30:33   */\n      dup1\n        /* \"--CODEGEN--\":22:28   */\n      dup3\n        /* \"--CODEGEN--\":14:20   */\n      dup5\n        /* \"--CODEGEN--\":1:34   */\n      calldatacopy\n        /* \"--CODEGEN--\":99:100   */\n      0x00\n        /* \"--CODEGEN--\":81:97   */\n      swap3\n      add\n        /* \"--CODEGEN--\":74:101   */\n      swap2\n      swap1\n      swap2\n      mstore\n      pop\n        /* \"Entity.sol\":5463:6875  function newDataToSend(address _receiver, string memory _description, string memory _key, string memory _value, bool direct) \r... */\n      swap3\n      swap6\n      swap5\n      swap4\n      0x20\n      dup2\n      add\n      swap4\n      pop\n      calldataload\n      swap2\n      pop\n      pop\n      shl(0x20, 0x01)\n        /* \"--CODEGEN--\":11:39   */\n      dup2\n      gt\n        /* \"--CODEGEN--\":8:10   */\n      iszero\n      tag_179\n      jumpi\n        /* \"--CODEGEN--\":52:53   */\n      0x00\n        /* \"--CODEGEN--\":49:50   */\n      dup1\n        /* \"--CODEGEN--\":42:54   */\n      revert\n        /* \"--CODEGEN--\":8:10   */\n    tag_179:\n        /* \"Entity.sol\":5463:6875  function newDataToSend(address _receiver, string memory _description, string memory _key, string memory _value, bool direct) \r... */\n      dup3\n      add\n        /* \"--CODEGEN--\":41:50   */\n      dup4\n        /* \"--CODEGEN--\":34:38   */\n      0x20\n        /* \"--CODEGEN--\":18:32   */\n      dup3\n        /* \"--CODEGEN--\":14:39   */\n      add\n        /* \"--CODEGEN--\":11:51   */\n      gt\n        /* \"--CODEGEN--\":8:10   */\n      iszero\n      tag_180\n      jumpi\n        /* \"--CODEGEN--\":64:65   */\n      0x00\n        /* \"--CODEGEN--\":61:62   */\n      dup1\n        /* \"--CODEGEN--\":54:66   */\n      revert\n        /* \"--CODEGEN--\":8:10   */\n    tag_180:\n        /* \"Entity.sol\":5463:6875  function newDataToSend(address _receiver, string memory _description, string memory _key, string memory _value, bool direct) \r... */\n      dup1\n      calldataload\n      swap1\n      0x20\n      add\n      swap2\n        /* \"--CODEGEN--\":100:109   */\n      dup5\n        /* \"--CODEGEN--\":95:96   */\n      0x01\n        /* \"--CODEGEN--\":81:93   */\n      dup4\n        /* \"--CODEGEN--\":77:97   */\n      mul\n        /* \"--CODEGEN--\":67:75   */\n      dup5\n        /* \"--CODEGEN--\":63:98   */\n      add\n        /* \"--CODEGEN--\":60:110   */\n      gt\n      shl(0x20, 0x01)\n        /* \"--CODEGEN--\":25:37   */\n      dup4\n        /* \"--CODEGEN--\":22:51   */\n      gt\n        /* \"--CODEGEN--\":11:118   */\n      or\n        /* \"--CODEGEN--\":8:10   */\n      iszero\n      tag_181\n      jumpi\n        /* \"--CODEGEN--\":131:132   */\n      0x00\n        /* \"--CODEGEN--\":128:129   */\n      dup1\n        /* \"--CODEGEN--\":121:133   */\n      revert\n        /* \"--CODEGEN--\":8:10   */\n    tag_181:\n        /* \"Entity.sol\":5463:6875  function newDataToSend(address _receiver, string memory _description, string memory _key, string memory _value, bool direct) \r... */\n      swap2\n      swap1\n      dup1\n      dup1\n      0x1f\n      add\n      0x20\n      dup1\n      swap2\n      div\n      mul\n      0x20\n      add\n      mload(0x40)\n      swap1\n      dup2\n      add\n      0x40\n      mstore\n      dup1\n      swap4\n      swap3\n      swap2\n      swap1\n      dup2\n      dup2\n      mstore\n      0x20\n      add\n      dup4\n      dup4\n        /* \"--CODEGEN--\":30:33   */\n      dup1\n        /* \"--CODEGEN--\":22:28   */\n      dup3\n        /* \"--CODEGEN--\":14:20   */\n      dup5\n        /* \"--CODEGEN--\":1:34   */\n      calldatacopy\n        /* \"--CODEGEN--\":99:100   */\n      0x00\n        /* \"--CODEGEN--\":81:97   */\n      swap3\n      add\n        /* \"--CODEGEN--\":74:101   */\n      swap2\n      swap1\n      swap2\n      mstore\n      pop\n        /* \"Entity.sol\":5463:6875  function newDataToSend(address _receiver, string memory _description, string memory _key, string memory _value, bool direct) \r... */\n      swap3\n      swap6\n      swap5\n      swap4\n      0x20\n      dup2\n      add\n      swap4\n      pop\n      calldataload\n      swap2\n      pop\n      pop\n      shl(0x20, 0x01)\n        /* \"--CODEGEN--\":11:39   */\n      dup2\n      gt\n        /* \"--CODEGEN--\":8:10   */\n      iszero\n      tag_182\n      jumpi\n        /* \"--CODEGEN--\":52:53   */\n      0x00\n        /* \"--CODEGEN--\":49:50   */\n      dup1\n        /* \"--CODEGEN--\":42:54   */\n      revert\n        /* \"--CODEGEN--\":8:10   */\n    tag_182:\n        /* \"Entity.sol\":5463:6875  function newDataToSend(address _receiver, string memory _description, string memory _key, string memory _value, bool direct) \r... */\n      dup3\n      add\n        /* \"--CODEGEN--\":41:50   */\n      dup4\n        /* \"--CODEGEN--\":34:38   */\n      0x20\n        /* \"--CODEGEN--\":18:32   */\n      dup3\n        /* \"--CODEGEN--\":14:39   */\n      add\n        /* \"--CODEGEN--\":11:51   */\n      gt\n        /* \"--CODEGEN--\":8:10   */\n      iszero\n      tag_183\n      jumpi\n        /* \"--CODEGEN--\":64:65   */\n      0x00\n        /* \"--CODEGEN--\":61:62   */\n      dup1\n        /* \"--CODEGEN--\":54:66   */\n      revert\n        /* \"--CODEGEN--\":8:10   */\n    tag_183:\n        /* \"Entity.sol\":5463:6875  function newDataToSend(address _receiver, string memory _description, string memory _key, string memory _value, bool direct) \r... */\n      dup1\n      calldataload\n      swap1\n      0x20\n      add\n      swap2\n        /* \"--CODEGEN--\":100:109   */\n      dup5\n        /* \"--CODEGEN--\":95:96   */\n      0x01\n        /* \"--CODEGEN--\":81:93   */\n      dup4\n        /* \"--CODEGEN--\":77:97   */\n      mul\n        /* \"--CODEGEN--\":67:75   */\n      dup5\n        /* \"--CODEGEN--\":63:98   */\n      add\n        /* \"--CODEGEN--\":60:110   */\n      gt\n      shl(0x20, 0x01)\n        /* \"--CODEGEN--\":25:37   */\n      dup4\n        /* \"--CODEGEN--\":22:51   */\n      gt\n        /* \"--CODEGEN--\":11:118   */\n      or\n        /* \"--CODEGEN--\":8:10   */\n      iszero\n      tag_184\n      jumpi\n        /* \"--CODEGEN--\":131:132   */\n      0x00\n        /* \"--CODEGEN--\":128:129   */\n      dup1\n        /* \"--CODEGEN--\":121:133   */\n      revert\n        /* \"--CODEGEN--\":8:10   */\n    tag_184:\n        /* \"Entity.sol\":5463:6875  function newDataToSend(address _receiver, string memory _description, string memory _key, string memory _value, bool direct) \r... */\n      swap2\n      swap1\n      dup1\n      dup1\n      0x1f\n      add\n      0x20\n      dup1\n      swap2\n      div\n      mul\n      0x20\n      add\n      mload(0x40)\n      swap1\n      dup2\n      add\n      0x40\n      mstore\n      dup1\n      swap4\n      swap3\n      swap2\n      swap1\n      dup2\n      dup2\n      mstore\n      0x20\n      add\n      dup4\n      dup4\n        /* \"--CODEGEN--\":30:33   */\n      dup1\n        /* \"--CODEGEN--\":22:28   */\n      dup3\n        /* \"--CODEGEN--\":14:20   */\n      dup5\n        /* \"--CODEGEN--\":1:34   */\n      calldatacopy\n        /* \"--CODEGEN--\":99:100   */\n      0x00\n        /* \"--CODEGEN--\":81:97   */\n      swap3\n      add\n        /* \"--CODEGEN--\":74:101   */\n      swap2\n      swap1\n      swap2\n      mstore\n      pop\n        /* \"Entity.sol\":5463:6875  function newDataToSend(address _receiver, string memory _description, string memory _key, string memory _value, bool direct) \r... */\n      swap3\n      swap6\n      pop\n      pop\n      pop\n      pop\n      calldataload\n      iszero\n      iszero\n      swap1\n      pop\n      tag_185\n      jump\t// in\n        /* \"Entity.sol\":4574:4784  function approveMultipleToReceive(address multipleEntity, uint32 index)\r... */\n    tag_23:\n      tag_124\n      0x04\n      dup1\n      calldatasize\n      sub\n        /* \"--CODEGEN--\":15:17   */\n      0x40\n        /* \"--CODEGEN--\":10:13   */\n      dup2\n        /* \"--CODEGEN--\":7:18   */\n      lt\n        /* \"--CODEGEN--\":4:6   */\n      iszero\n      tag_200\n      jumpi\n        /* \"--CODEGEN--\":31:32   */\n      0x00\n        /* \"--CODEGEN--\":28:29   */\n      dup1\n        /* \"--CODEGEN--\":21:33   */\n      revert\n        /* \"--CODEGEN--\":4:6   */\n    tag_200:\n      pop\n        /* \"Entity.sol\":4574:4784  function approveMultipleToReceive(address multipleEntity, uint32 index)\r... */\n      dup1\n      calldataload\n      sub(shl(0xa0, 0x01), 0x01)\n      and\n      swap1\n      0x20\n      add\n      calldataload\n      0xffffffff\n      and\n      tag_201\n      jump\t// in\n        /* \"Entity.sol\":1308:1349  pendingData[] public pendingDataToReceive */\n    tag_24:\n      tag_202\n      0x04\n      dup1\n      calldatasize\n      sub\n        /* \"--CODEGEN--\":15:17   */\n      0x20\n        /* \"--CODEGEN--\":10:13   */\n      dup2\n        /* \"--CODEGEN--\":7:18   */\n      lt\n        /* \"--CODEGEN--\":4:6   */\n      iszero\n      tag_203\n      jumpi\n        /* \"--CODEGEN--\":31:32   */\n      0x00\n        /* \"--CODEGEN--\":28:29   */\n      dup1\n        /* \"--CODEGEN--\":21:33   */\n      revert\n        /* \"--CODEGEN--\":4:6   */\n    tag_203:\n      pop\n        /* \"Entity.sol\":1308:1349  pendingData[] public pendingDataToReceive */\n      calldataload\n      tag_204\n      jump\t// in\n    tag_202:\n      mload(0x40)\n      dup1\n      dup6\n      sub(shl(0xa0, 0x01), 0x01)\n      and\n      sub(shl(0xa0, 0x01), 0x01)\n      and\n      dup2\n      mstore\n      0x20\n      add\n      dup5\n      sub(shl(0xa0, 0x01), 0x01)\n      and\n      sub(shl(0xa0, 0x01), 0x01)\n      and\n      dup2\n      mstore\n      0x20\n      add\n      dup1\n      0x20\n      add\n      dup4\n      iszero\n      iszero\n      iszero\n      iszero\n      dup2\n      mstore\n      0x20\n      add\n      dup3\n      dup2\n      sub\n      dup3\n      mstore\n      dup5\n      dup2\n      dup2\n      mload\n      dup2\n      mstore\n      0x20\n      add\n      swap2\n      pop\n      dup1\n      mload\n      swap1\n      0x20\n      add\n      swap1\n      dup1\n      dup4\n      dup4\n        /* \"--CODEGEN--\":23:24   */\n      0x00\n        /* \"--CODEGEN--\":8:108   */\n    tag_205:\n        /* \"--CODEGEN--\":33:36   */\n      dup4\n        /* \"--CODEGEN--\":30:31   */\n      dup2\n        /* \"--CODEGEN--\":27:37   */\n      lt\n        /* \"--CODEGEN--\":8:108   */\n      iszero\n      tag_207\n      jumpi\n        /* \"--CODEGEN--\":90:101   */\n      dup2\n      dup2\n      add\n        /* \"--CODEGEN--\":84:102   */\n      mload\n        /* \"--CODEGEN--\":71:82   */\n      dup4\n      dup3\n      add\n        /* \"--CODEGEN--\":64:103   */\n      mstore\n        /* \"--CODEGEN--\":52:54   */\n      0x20\n        /* \"--CODEGEN--\":45:55   */\n      add\n        /* \"--CODEGEN--\":8:108   */\n      jump(tag_205)\n    tag_207:\n        /* \"--CODEGEN--\":12:26   */\n      pop\n        /* \"Entity.sol\":1308:1349  pendingData[] public pendingDataToReceive */\n      pop\n      pop\n      pop\n      swap1\n      pop\n      swap1\n      dup2\n      add\n      swap1\n      0x1f\n      and\n      dup1\n      iszero\n      tag_208\n      jumpi\n      dup1\n      dup3\n      sub\n      dup1\n      mload\n      0x01\n      dup4\n      0x20\n      sub\n      0x0100\n      exp\n      sub\n      not\n      and\n      dup2\n      mstore\n      0x20\n      add\n      swap2\n      pop\n    tag_208:\n      pop\n      swap6\n      pop\n      pop\n      pop\n      pop\n      pop\n      pop\n      mload(0x40)\n      dup1\n      swap2\n      sub\n      swap1\n      return\n        /* \"Entity.sol\":2651:2875  function _receiveData(string calldata _key, string calldata _value, uint32 index)\r... */\n    tag_25:\n      tag_124\n      0x04\n      dup1\n      calldatasize\n      sub\n        /* \"--CODEGEN--\":15:17   */\n      0x60\n        /* \"--CODEGEN--\":10:13   */\n      dup2\n        /* \"--CODEGEN--\":7:18   */\n      lt\n        /* \"--CODEGEN--\":4:6   */\n      iszero\n      tag_210\n      jumpi\n        /* \"--CODEGEN--\":31:32   */\n      0x00\n        /* \"--CODEGEN--\":28:29   */\n      dup1\n        /* \"--CODEGEN--\":21:33   */\n      revert\n        /* \"--CODEGEN--\":4:6   */\n    tag_210:\n        /* \"Entity.sol\":2651:2875  function _receiveData(string calldata _key, string calldata _value, uint32 index)\r... */\n      dup2\n      add\n      swap1\n      0x20\n      dup2\n      add\n      dup2\n      calldataload\n      shl(0x20, 0x01)\n        /* \"--CODEGEN--\":11:39   */\n      dup2\n      gt\n        /* \"--CODEGEN--\":8:10   */\n      iszero\n      tag_211\n      jumpi\n        /* \"--CODEGEN--\":52:53   */\n      0x00\n        /* \"--CODEGEN--\":49:50   */\n      dup1\n        /* \"--CODEGEN--\":42:54   */\n      revert\n        /* \"--CODEGEN--\":8:10   */\n    tag_211:\n        /* \"Entity.sol\":2651:2875  function _receiveData(string calldata _key, string calldata _value, uint32 index)\r... */\n      dup3\n      add\n        /* \"--CODEGEN--\":41:50   */\n      dup4\n        /* \"--CODEGEN--\":34:38   */\n      0x20\n        /* \"--CODEGEN--\":18:32   */\n      dup3\n        /* \"--CODEGEN--\":14:39   */\n      add\n        /* \"--CODEGEN--\":11:51   */\n      gt\n        /* \"--CODEGEN--\":8:10   */\n      iszero\n      tag_212\n      jumpi\n        /* \"--CODEGEN--\":64:65   */\n      0x00\n        /* \"--CODEGEN--\":61:62   */\n      dup1\n        /* \"--CODEGEN--\":54:66   */\n      revert\n        /* \"--CODEGEN--\":8:10   */\n    tag_212:\n        /* \"Entity.sol\":2651:2875  function _receiveData(string calldata _key, string calldata _value, uint32 index)\r... */\n      dup1\n      calldataload\n      swap1\n      0x20\n      add\n      swap2\n        /* \"--CODEGEN--\":100:109   */\n      dup5\n        /* \"--CODEGEN--\":95:96   */\n      0x01\n        /* \"--CODEGEN--\":81:93   */\n      dup4\n        /* \"--CODEGEN--\":77:97   */\n      mul\n        /* \"--CODEGEN--\":67:75   */\n      dup5\n        /* \"--CODEGEN--\":63:98   */\n      add\n        /* \"--CODEGEN--\":60:110   */\n      gt\n      shl(0x20, 0x01)\n        /* \"--CODEGEN--\":25:37   */\n      dup4\n        /* \"--CODEGEN--\":22:51   */\n      gt\n        /* \"--CODEGEN--\":11:118   */\n      or\n        /* \"--CODEGEN--\":8:10   */\n      iszero\n      tag_213\n      jumpi\n        /* \"--CODEGEN--\":131:132   */\n      0x00\n        /* \"--CODEGEN--\":128:129   */\n      dup1\n        /* \"--CODEGEN--\":121:133   */\n      revert\n        /* \"--CODEGEN--\":8:10   */\n    tag_213:\n        /* \"Entity.sol\":2651:2875  function _receiveData(string calldata _key, string calldata _value, uint32 index)\r... */\n      swap2\n      swap4\n      swap1\n      swap3\n      swap1\n      swap2\n      0x20\n      dup2\n      add\n      swap1\n      calldataload\n      shl(0x20, 0x01)\n        /* \"--CODEGEN--\":11:39   */\n      dup2\n      gt\n        /* \"--CODEGEN--\":8:10   */\n      iszero\n      tag_214\n      jumpi\n        /* \"--CODEGEN--\":52:53   */\n      0x00\n        /* \"--CODEGEN--\":49:50   */\n      dup1\n        /* \"--CODEGEN--\":42:54   */\n      revert\n        /* \"--CODEGEN--\":8:10   */\n    tag_214:\n        /* \"Entity.sol\":2651:2875  function _receiveData(string calldata _key, string calldata _value, uint32 index)\r... */\n      dup3\n      add\n        /* \"--CODEGEN--\":41:50   */\n      dup4\n        /* \"--CODEGEN--\":34:38   */\n      0x20\n        /* \"--CODEGEN--\":18:32   */\n      dup3\n        /* \"--CODEGEN--\":14:39   */\n      add\n        /* \"--CODEGEN--\":11:51   */\n      gt\n        /* \"--CODEGEN--\":8:10   */\n      iszero\n      tag_215\n      jumpi\n        /* \"--CODEGEN--\":64:65   */\n      0x00\n        /* \"--CODEGEN--\":61:62   */\n      dup1\n        /* \"--CODEGEN--\":54:66   */\n      revert\n        /* \"--CODEGEN--\":8:10   */\n    tag_215:\n        /* \"Entity.sol\":2651:2875  function _receiveData(string calldata _key, string calldata _value, uint32 index)\r... */\n      dup1\n      calldataload\n      swap1\n      0x20\n      add\n      swap2\n        /* \"--CODEGEN--\":100:109   */\n      dup5\n        /* \"--CODEGEN--\":95:96   */\n      0x01\n        /* \"--CODEGEN--\":81:93   */\n      dup4\n        /* \"--CODEGEN--\":77:97   */\n      mul\n        /* \"--CODEGEN--\":67:75   */\n      dup5\n        /* \"--CODEGEN--\":63:98   */\n      add\n        /* \"--CODEGEN--\":60:110   */\n      gt\n      shl(0x20, 0x01)\n        /* \"--CODEGEN--\":25:37   */\n      dup4\n        /* \"--CODEGEN--\":22:51   */\n      gt\n        /* \"--CODEGEN--\":11:118   */\n      or\n        /* \"--CODEGEN--\":8:10   */\n      iszero\n      tag_216\n      jumpi\n        /* \"--CODEGEN--\":131:132   */\n      0x00\n        /* \"--CODEGEN--\":128:129   */\n      dup1\n        /* \"--CODEGEN--\":121:133   */\n      revert\n        /* \"--CODEGEN--\":8:10   */\n    tag_216:\n        /* \"Entity.sol\":2651:2875  function _receiveData(string calldata _key, string calldata _value, uint32 index)\r... */\n      swap2\n      swap4\n      pop\n      swap2\n      pop\n      calldataload\n      0xffffffff\n      and\n      tag_217\n      jump\t// in\n        /* \"Entity.sol\":8720:8892  function dataSizeToSend(uint32 index) \r... */\n    tag_26:\n      tag_87\n      0x04\n      dup1\n      calldatasize\n      sub\n        /* \"--CODEGEN--\":15:17   */\n      0x20\n        /* \"--CODEGEN--\":10:13   */\n      dup2\n        /* \"--CODEGEN--\":7:18   */\n      lt\n        /* \"--CODEGEN--\":4:6   */\n      iszero\n      tag_219\n      jumpi\n        /* \"--CODEGEN--\":31:32   */\n      0x00\n        /* \"--CODEGEN--\":28:29   */\n      dup1\n        /* \"--CODEGEN--\":21:33   */\n      revert\n        /* \"--CODEGEN--\":4:6   */\n    tag_219:\n      pop\n        /* \"Entity.sol\":8720:8892  function dataSizeToSend(uint32 index) \r... */\n      calldataload\n      0xffffffff\n      and\n      tag_220\n      jump\t// in\n        /* \"Entity.sol\":1442:1480  pendingData[] public pendingDataToSend */\n    tag_27:\n      tag_202\n      0x04\n      dup1\n      calldatasize\n      sub\n        /* \"--CODEGEN--\":15:17   */\n      0x20\n        /* \"--CODEGEN--\":10:13   */\n      dup2\n        /* \"--CODEGEN--\":7:18   */\n      lt\n        /* \"--CODEGEN--\":4:6   */\n      iszero\n      tag_222\n      jumpi\n        /* \"--CODEGEN--\":31:32   */\n      0x00\n        /* \"--CODEGEN--\":28:29   */\n      dup1\n        /* \"--CODEGEN--\":21:33   */\n      revert\n        /* \"--CODEGEN--\":4:6   */\n    tag_222:\n      pop\n        /* \"Entity.sol\":1442:1480  pendingData[] public pendingDataToSend */\n      calldataload\n      tag_223\n      jump\t// in\n        /* \"Entity.sol\":1198:1263  mapping(address=>mapping(string=>bool)) public writtenDescription */\n    tag_28:\n      tag_163\n      0x04\n      dup1\n      calldatasize\n      sub\n        /* \"--CODEGEN--\":15:17   */\n      0x40\n        /* \"--CODEGEN--\":10:13   */\n      dup2\n        /* \"--CODEGEN--\":7:18   */\n      lt\n        /* \"--CODEGEN--\":4:6   */\n      iszero\n      tag_229\n      jumpi\n        /* \"--CODEGEN--\":31:32   */\n      0x00\n        /* \"--CODEGEN--\":28:29   */\n      dup1\n        /* \"--CODEGEN--\":21:33   */\n      revert\n        /* \"--CODEGEN--\":4:6   */\n    tag_229:\n      sub(shl(0xa0, 0x01), 0x01)\n        /* \"Entity.sol\":1198:1263  mapping(address=>mapping(string=>bool)) public writtenDescription */\n      dup3\n      calldataload\n      and\n      swap2\n      swap1\n      dup2\n      add\n      swap1\n      0x40\n      dup2\n      add\n      0x20\n      dup3\n      add\n      calldataload\n      shl(0x20, 0x01)\n        /* \"--CODEGEN--\":11:39   */\n      dup2\n      gt\n        /* \"--CODEGEN--\":8:10   */\n      iszero\n      tag_230\n      jumpi\n        /* \"--CODEGEN--\":52:53   */\n      0x00\n        /* \"--CODEGEN--\":49:50   */\n      dup1\n        /* \"--CODEGEN--\":42:54   */\n      revert\n        /* \"--CODEGEN--\":8:10   */\n    tag_230:\n        /* \"Entity.sol\":1198:1263  mapping(address=>mapping(string=>bool)) public writtenDescription */\n      dup3\n      add\n        /* \"--CODEGEN--\":41:50   */\n      dup4\n        /* \"--CODEGEN--\":34:38   */\n      0x20\n        /* \"--CODEGEN--\":18:32   */\n      dup3\n        /* \"--CODEGEN--\":14:39   */\n      add\n        /* \"--CODEGEN--\":11:51   */\n      gt\n        /* \"--CODEGEN--\":8:10   */\n      iszero\n      tag_231\n      jumpi\n        /* \"--CODEGEN--\":64:65   */\n      0x00\n        /* \"--CODEGEN--\":61:62   */\n      dup1\n        /* \"--CODEGEN--\":54:66   */\n      revert\n        /* \"--CODEGEN--\":8:10   */\n    tag_231:\n        /* \"Entity.sol\":1198:1263  mapping(address=>mapping(string=>bool)) public writtenDescription */\n      dup1\n      calldataload\n      swap1\n      0x20\n      add\n      swap2\n        /* \"--CODEGEN--\":100:109   */\n      dup5\n        /* \"--CODEGEN--\":95:96   */\n      0x01\n        /* \"--CODEGEN--\":81:93   */\n      dup4\n        /* \"--CODEGEN--\":77:97   */\n      mul\n        /* \"--CODEGEN--\":67:75   */\n      dup5\n        /* \"--CODEGEN--\":63:98   */\n      add\n        /* \"--CODEGEN--\":60:110   */\n      gt\n      shl(0x20, 0x01)\n        /* \"--CODEGEN--\":25:37   */\n      dup4\n        /* \"--CODEGEN--\":22:51   */\n      gt\n        /* \"--CODEGEN--\":11:118   */\n      or\n        /* \"--CODEGEN--\":8:10   */\n      iszero\n      tag_232\n      jumpi\n        /* \"--CODEGEN--\":131:132   */\n      0x00\n        /* \"--CODEGEN--\":128:129   */\n      dup1\n        /* \"--CODEGEN--\":121:133   */\n      revert\n        /* \"--CODEGEN--\":8:10   */\n    tag_232:\n        /* \"Entity.sol\":1198:1263  mapping(address=>mapping(string=>bool)) public writtenDescription */\n      swap2\n      swap1\n      dup1\n      dup1\n      0x1f\n      add\n      0x20\n      dup1\n      swap2\n      div\n      mul\n      0x20\n      add\n      mload(0x40)\n      swap1\n      dup2\n      add\n      0x40\n      mstore\n      dup1\n      swap4\n      swap3\n      swap2\n      swap1\n      dup2\n      dup2\n      mstore\n      0x20\n      add\n      dup4\n      dup4\n        /* \"--CODEGEN--\":30:33   */\n      dup1\n        /* \"--CODEGEN--\":22:28   */\n      dup3\n        /* \"--CODEGEN--\":14:20   */\n      dup5\n        /* \"--CODEGEN--\":1:34   */\n      calldatacopy\n        /* \"--CODEGEN--\":99:100   */\n      0x00\n        /* \"--CODEGEN--\":81:97   */\n      swap3\n      add\n        /* \"--CODEGEN--\":74:101   */\n      swap2\n      swap1\n      swap2\n      mstore\n      pop\n        /* \"Entity.sol\":1198:1263  mapping(address=>mapping(string=>bool)) public writtenDescription */\n      swap3\n      swap6\n      pop\n      tag_233\n      swap5\n      pop\n      pop\n      pop\n      pop\n      pop\n      jump\t// in\n        /* \"Entity.sol\":2276:2639  function _newData(string calldata _description)\r... */\n    tag_29:\n      tag_87\n      0x04\n      dup1\n      calldatasize\n      sub\n        /* \"--CODEGEN--\":15:17   */\n      0x20\n        /* \"--CODEGEN--\":10:13   */\n      dup2\n        /* \"--CODEGEN--\":7:18   */\n      lt\n        /* \"--CODEGEN--\":4:6   */\n      iszero\n      tag_235\n      jumpi\n        /* \"--CODEGEN--\":31:32   */\n      0x00\n        /* \"--CODEGEN--\":28:29   */\n      dup1\n        /* \"--CODEGEN--\":21:33   */\n      revert\n        /* \"--CODEGEN--\":4:6   */\n    tag_235:\n        /* \"Entity.sol\":2276:2639  function _newData(string calldata _description)\r... */\n      dup2\n      add\n      swap1\n      0x20\n      dup2\n      add\n      dup2\n      calldataload\n      shl(0x20, 0x01)\n        /* \"--CODEGEN--\":11:39   */\n      dup2\n      gt\n        /* \"--CODEGEN--\":8:10   */\n      iszero\n      tag_236\n      jumpi\n        /* \"--CODEGEN--\":52:53   */\n      0x00\n        /* \"--CODEGEN--\":49:50   */\n      dup1\n        /* \"--CODEGEN--\":42:54   */\n      revert\n        /* \"--CODEGEN--\":8:10   */\n    tag_236:\n        /* \"Entity.sol\":2276:2639  function _newData(string calldata _description)\r... */\n      dup3\n      add\n        /* \"--CODEGEN--\":41:50   */\n      dup4\n        /* \"--CODEGEN--\":34:38   */\n      0x20\n        /* \"--CODEGEN--\":18:32   */\n      dup3\n        /* \"--CODEGEN--\":14:39   */\n      add\n        /* \"--CODEGEN--\":11:51   */\n      gt\n        /* \"--CODEGEN--\":8:10   */\n      iszero\n      tag_237\n      jumpi\n        /* \"--CODEGEN--\":64:65   */\n      0x00\n        /* \"--CODEGEN--\":61:62   */\n      dup1\n        /* \"--CODEGEN--\":54:66   */\n      revert\n        /* \"--CODEGEN--\":8:10   */\n    tag_237:\n        /* \"Entity.sol\":2276:2639  function _newData(string calldata _description)\r... */\n      dup1\n      calldataload\n      swap1\n      0x20\n      add\n      swap2\n        /* \"--CODEGEN--\":100:109   */\n      dup5\n        /* \"--CODEGEN--\":95:96   */\n      0x01\n        /* \"--CODEGEN--\":81:93   */\n      dup4\n        /* \"--CODEGEN--\":77:97   */\n      mul\n        /* \"--CODEGEN--\":67:75   */\n      dup5\n        /* \"--CODEGEN--\":63:98   */\n      add\n        /* \"--CODEGEN--\":60:110   */\n      gt\n      shl(0x20, 0x01)\n        /* \"--CODEGEN--\":25:37   */\n      dup4\n        /* \"--CODEGEN--\":22:51   */\n      gt\n        /* \"--CODEGEN--\":11:118   */\n      or\n        /* \"--CODEGEN--\":8:10   */\n      iszero\n      tag_238\n      jumpi\n        /* \"--CODEGEN--\":131:132   */\n      0x00\n        /* \"--CODEGEN--\":128:129   */\n      dup1\n        /* \"--CODEGEN--\":121:133   */\n      revert\n        /* \"--CODEGEN--\":8:10   */\n    tag_238:\n      pop\n        /* \"Entity.sol\":2276:2639  function _newData(string calldata _description)\r... */\n      swap1\n      swap3\n      pop\n      swap1\n      pop\n      tag_239\n      jump\t// in\n        /* \"Entity.sol\":9574:9746  function descriptionLength(address source)\r... */\n    tag_30:\n      tag_87\n      0x04\n      dup1\n      calldatasize\n      sub\n        /* \"--CODEGEN--\":15:17   */\n      0x20\n        /* \"--CODEGEN--\":10:13   */\n      dup2\n        /* \"--CODEGEN--\":7:18   */\n      lt\n        /* \"--CODEGEN--\":4:6   */\n      iszero\n      tag_241\n      jumpi\n        /* \"--CODEGEN--\":31:32   */\n      0x00\n        /* \"--CODEGEN--\":28:29   */\n      dup1\n        /* \"--CODEGEN--\":21:33   */\n      revert\n        /* \"--CODEGEN--\":4:6   */\n    tag_241:\n      pop\n        /* \"Entity.sol\":9574:9746  function descriptionLength(address source)\r... */\n      calldataload\n      sub(shl(0xa0, 0x01), 0x01)\n      and\n      tag_242\n      jump\t// in\n        /* \"Entity.sol\":8552:8708  function pendingDataToSendCount() \r... */\n    tag_31:\n      tag_87\n      tag_244\n      jump\t// in\n        /* \"Entity.sol\":762:812  mapping(address=>uint32) public recentSendingIndex */\n    tag_32:\n      tag_87\n      0x04\n      dup1\n      calldatasize\n      sub\n        /* \"--CODEGEN--\":15:17   */\n      0x20\n        /* \"--CODEGEN--\":10:13   */\n      dup2\n        /* \"--CODEGEN--\":7:18   */\n      lt\n        /* \"--CODEGEN--\":4:6   */\n      iszero\n      tag_246\n      jumpi\n        /* \"--CODEGEN--\":31:32   */\n      0x00\n        /* \"--CODEGEN--\":28:29   */\n      dup1\n        /* \"--CODEGEN--\":21:33   */\n      revert\n        /* \"--CODEGEN--\":4:6   */\n    tag_246:\n      pop\n        /* \"Entity.sol\":762:812  mapping(address=>uint32) public recentSendingIndex */\n      calldataload\n      sub(shl(0xa0, 0x01), 0x01)\n      and\n      tag_247\n      jump\t// in\n        /* \"Entity.sol\":5160:5421  function keyValueOfDataToReceive(uint32 index, uint32 keyIndex)\r... */\n    tag_33:\n      tag_56\n      0x04\n      dup1\n      calldatasize\n      sub\n        /* \"--CODEGEN--\":15:17   */\n      0x40\n        /* \"--CODEGEN--\":10:13   */\n      dup2\n        /* \"--CODEGEN--\":7:18   */\n      lt\n        /* \"--CODEGEN--\":4:6   */\n      iszero\n      tag_249\n      jumpi\n        /* \"--CODEGEN--\":31:32   */\n      0x00\n        /* \"--CODEGEN--\":28:29   */\n      dup1\n        /* \"--CODEGEN--\":21:33   */\n      revert\n        /* \"--CODEGEN--\":4:6   */\n    tag_249:\n      pop\n        /* \"Entity.sol\":5160:5421  function keyValueOfDataToReceive(uint32 index, uint32 keyIndex)\r... */\n      0xffffffff\n      dup2\n      calldataload\n      dup2\n      and\n      swap2\n      0x20\n      add\n      calldataload\n      and\n      tag_250\n      jump\t// in\n        /* \"Entity.sol\":8336:8540  function approveMultipleToSend(address multipleEntity, uint32 index)\r... */\n    tag_34:\n      tag_124\n      0x04\n      dup1\n      calldatasize\n      sub\n        /* \"--CODEGEN--\":15:17   */\n      0x40\n        /* \"--CODEGEN--\":10:13   */\n      dup2\n        /* \"--CODEGEN--\":7:18   */\n      lt\n        /* \"--CODEGEN--\":4:6   */\n      iszero\n      tag_260\n      jumpi\n        /* \"--CODEGEN--\":31:32   */\n      0x00\n        /* \"--CODEGEN--\":28:29   */\n      dup1\n        /* \"--CODEGEN--\":21:33   */\n      revert\n        /* \"--CODEGEN--\":4:6   */\n    tag_260:\n      pop\n        /* \"Entity.sol\":8336:8540  function approveMultipleToSend(address multipleEntity, uint32 index)\r... */\n      dup1\n      calldataload\n      sub(shl(0xa0, 0x01), 0x01)\n      and\n      swap1\n      0x20\n      add\n      calldataload\n      0xffffffff\n      and\n      tag_261\n      jump\t// in\n        /* \"Entity.sol\":735:755  bool public isSingle */\n    tag_35:\n      tag_163\n      tag_263\n      jump\t// in\n        /* \"Entity.sol\":7512:7770  function addDataMultipleToSend(address multipleEntity, string memory _key, string memory _value, uint32 index) \r... */\n    tag_36:\n      tag_124\n      0x04\n      dup1\n      calldatasize\n      sub\n        /* \"--CODEGEN--\":15:18   */\n      0x80\n        /* \"--CODEGEN--\":10:13   */\n      dup2\n        /* \"--CODEGEN--\":7:19   */\n      lt\n        /* \"--CODEGEN--\":4:6   */\n      iszero\n      tag_265\n      jumpi\n        /* \"--CODEGEN--\":32:33   */\n      0x00\n        /* \"--CODEGEN--\":29:30   */\n      dup1\n        /* \"--CODEGEN--\":22:34   */\n      revert\n        /* \"--CODEGEN--\":4:6   */\n    tag_265:\n      sub(shl(0xa0, 0x01), 0x01)\n        /* \"Entity.sol\":7512:7770  function addDataMultipleToSend(address multipleEntity, string memory _key, string memory _value, uint32 index) \r... */\n      dup3\n      calldataload\n      and\n      swap2\n      swap1\n      dup2\n      add\n      swap1\n      0x40\n      dup2\n      add\n      0x20\n      dup3\n      add\n      calldataload\n      shl(0x20, 0x01)\n        /* \"--CODEGEN--\":11:39   */\n      dup2\n      gt\n        /* \"--CODEGEN--\":8:10   */\n      iszero\n      tag_266\n      jumpi\n        /* \"--CODEGEN--\":52:53   */\n      0x00\n        /* \"--CODEGEN--\":49:50   */\n      dup1\n        /* \"--CODEGEN--\":42:54   */\n      revert\n        /* \"--CODEGEN--\":8:10   */\n    tag_266:\n        /* \"Entity.sol\":7512:7770  function addDataMultipleToSend(address multipleEntity, string memory _key, string memory _value, uint32 index) \r... */\n      dup3\n      add\n        /* \"--CODEGEN--\":41:50   */\n      dup4\n        /* \"--CODEGEN--\":34:38   */\n      0x20\n        /* \"--CODEGEN--\":18:32   */\n      dup3\n        /* \"--CODEGEN--\":14:39   */\n      add\n        /* \"--CODEGEN--\":11:51   */\n      gt\n        /* \"--CODEGEN--\":8:10   */\n      iszero\n      tag_267\n      jumpi\n        /* \"--CODEGEN--\":64:65   */\n      0x00\n        /* \"--CODEGEN--\":61:62   */\n      dup1\n        /* \"--CODEGEN--\":54:66   */\n      revert\n        /* \"--CODEGEN--\":8:10   */\n    tag_267:\n        /* \"Entity.sol\":7512:7770  function addDataMultipleToSend(address multipleEntity, string memory _key, string memory _value, uint32 index) \r... */\n      dup1\n      calldataload\n      swap1\n      0x20\n      add\n      swap2\n        /* \"--CODEGEN--\":100:109   */\n      dup5\n        /* \"--CODEGEN--\":95:96   */\n      0x01\n        /* \"--CODEGEN--\":81:93   */\n      dup4\n        /* \"--CODEGEN--\":77:97   */\n      mul\n        /* \"--CODEGEN--\":67:75   */\n      dup5\n        /* \"--CODEGEN--\":63:98   */\n      add\n        /* \"--CODEGEN--\":60:110   */\n      gt\n      shl(0x20, 0x01)\n        /* \"--CODEGEN--\":25:37   */\n      dup4\n        /* \"--CODEGEN--\":22:51   */\n      gt\n        /* \"--CODEGEN--\":11:118   */\n      or\n        /* \"--CODEGEN--\":8:10   */\n      iszero\n      tag_268\n      jumpi\n        /* \"--CODEGEN--\":131:132   */\n      0x00\n        /* \"--CODEGEN--\":128:129   */\n      dup1\n        /* \"--CODEGEN--\":121:133   */\n      revert\n        /* \"--CODEGEN--\":8:10   */\n    tag_268:\n        /* \"Entity.sol\":7512:7770  function addDataMultipleToSend(address multipleEntity, string memory _key, string memory _value, uint32 index) \r... */\n      swap2\n      swap1\n      dup1\n      dup1\n      0x1f\n      add\n      0x20\n      dup1\n      swap2\n      div\n      mul\n      0x20\n      add\n      mload(0x40)\n      swap1\n      dup2\n      add\n      0x40\n      mstore\n      dup1\n      swap4\n      swap3\n      swap2\n      swap1\n      dup2\n      dup2\n      mstore\n      0x20\n      add\n      dup4\n      dup4\n        /* \"--CODEGEN--\":30:33   */\n      dup1\n        /* \"--CODEGEN--\":22:28   */\n      dup3\n        /* \"--CODEGEN--\":14:20   */\n      dup5\n        /* \"--CODEGEN--\":1:34   */\n      calldatacopy\n        /* \"--CODEGEN--\":99:100   */\n      0x00\n        /* \"--CODEGEN--\":81:97   */\n      swap3\n      add\n        /* \"--CODEGEN--\":74:101   */\n      swap2\n      swap1\n      swap2\n      mstore\n      pop\n        /* \"Entity.sol\":7512:7770  function addDataMultipleToSend(address multipleEntity, string memory _key, string memory _value, uint32 index) \r... */\n      swap3\n      swap6\n      swap5\n      swap4\n      0x20\n      dup2\n      add\n      swap4\n      pop\n      calldataload\n      swap2\n      pop\n      pop\n      shl(0x20, 0x01)\n        /* \"--CODEGEN--\":11:39   */\n      dup2\n      gt\n        /* \"--CODEGEN--\":8:10   */\n      iszero\n      tag_269\n      jumpi\n        /* \"--CODEGEN--\":52:53   */\n      0x00\n        /* \"--CODEGEN--\":49:50   */\n      dup1\n        /* \"--CODEGEN--\":42:54   */\n      revert\n        /* \"--CODEGEN--\":8:10   */\n    tag_269:\n        /* \"Entity.sol\":7512:7770  function addDataMultipleToSend(address multipleEntity, string memory _key, string memory _value, uint32 index) \r... */\n      dup3\n      add\n        /* \"--CODEGEN--\":41:50   */\n      dup4\n        /* \"--CODEGEN--\":34:38   */\n      0x20\n        /* \"--CODEGEN--\":18:32   */\n      dup3\n        /* \"--CODEGEN--\":14:39   */\n      add\n        /* \"--CODEGEN--\":11:51   */\n      gt\n        /* \"--CODEGEN--\":8:10   */\n      iszero\n      tag_270\n      jumpi\n        /* \"--CODEGEN--\":64:65   */\n      0x00\n        /* \"--CODEGEN--\":61:62   */\n      dup1\n        /* \"--CODEGEN--\":54:66   */\n      revert\n        /* \"--CODEGEN--\":8:10   */\n    tag_270:\n        /* \"Entity.sol\":7512:7770  function addDataMultipleToSend(address multipleEntity, string memory _key, string memory _value, uint32 index) \r... */\n      dup1\n      calldataload\n      swap1\n      0x20\n      add\n      swap2\n        /* \"--CODEGEN--\":100:109   */\n      dup5\n        /* \"--CODEGEN--\":95:96   */\n      0x01\n        /* \"--CODEGEN--\":81:93   */\n      dup4\n        /* \"--CODEGEN--\":77:97   */\n      mul\n        /* \"--CODEGEN--\":67:75   */\n      dup5\n        /* \"--CODEGEN--\":63:98   */\n      add\n        /* \"--CODEGEN--\":60:110   */\n      gt\n      shl(0x20, 0x01)\n        /* \"--CODEGEN--\":25:37   */\n      dup4\n        /* \"--CODEGEN--\":22:51   */\n      gt\n        /* \"--CODEGEN--\":11:118   */\n      or\n        /* \"--CODEGEN--\":8:10   */\n      iszero\n      tag_271\n      jumpi\n        /* \"--CODEGEN--\":131:132   */\n      0x00\n        /* \"--CODEGEN--\":128:129   */\n      dup1\n        /* \"--CODEGEN--\":121:133   */\n      revert\n        /* \"--CODEGEN--\":8:10   */\n    tag_271:\n        /* \"Entity.sol\":7512:7770  function addDataMultipleToSend(address multipleEntity, string memory _key, string memory _value, uint32 index) \r... */\n      swap2\n      swap1\n      dup1\n      dup1\n      0x1f\n      add\n      0x20\n      dup1\n      swap2\n      div\n      mul\n      0x20\n      add\n      mload(0x40)\n      swap1\n      dup2\n      add\n      0x40\n      mstore\n      dup1\n      swap4\n      swap3\n      swap2\n      swap1\n      dup2\n      dup2\n      mstore\n      0x20\n      add\n      dup4\n      dup4\n        /* \"--CODEGEN--\":30:33   */\n      dup1\n        /* \"--CODEGEN--\":22:28   */\n      dup3\n        /* \"--CODEGEN--\":14:20   */\n      dup5\n        /* \"--CODEGEN--\":1:34   */\n      calldatacopy\n        /* \"--CODEGEN--\":99:100   */\n      0x00\n        /* \"--CODEGEN--\":81:97   */\n      swap3\n      add\n        /* \"--CODEGEN--\":74:101   */\n      swap2\n      swap1\n      swap2\n      mstore\n      pop\n        /* \"Entity.sol\":7512:7770  function addDataMultipleToSend(address multipleEntity, string memory _key, string memory _value, uint32 index) \r... */\n      swap3\n      swap6\n      pop\n      pop\n      pop\n      swap1\n      calldataload\n      0xffffffff\n      and\n      swap2\n      pop\n      tag_272\n      swap1\n      pop\n      jump\t// in\n        /* \"Entity.sol\":1089:1129  mapping(address=>bool) public hasWritten */\n    tag_37:\n      tag_163\n      0x04\n      dup1\n      calldatasize\n      sub\n        /* \"--CODEGEN--\":15:17   */\n      0x20\n        /* \"--CODEGEN--\":10:13   */\n      dup2\n        /* \"--CODEGEN--\":7:18   */\n      lt\n        /* \"--CODEGEN--\":4:6   */\n      iszero\n      tag_274\n      jumpi\n        /* \"--CODEGEN--\":31:32   */\n      0x00\n        /* \"--CODEGEN--\":28:29   */\n      dup1\n        /* \"--CODEGEN--\":21:33   */\n      revert\n        /* \"--CODEGEN--\":4:6   */\n    tag_274:\n      pop\n        /* \"Entity.sol\":1089:1129  mapping(address=>bool) public hasWritten */\n      calldataload\n      sub(shl(0xa0, 0x01), 0x01)\n      and\n      tag_275\n      jump\t// in\n        /* \"Entity.sol\":7263:7500  function addDataToSend(string memory _key, string memory _value, uint32 index) \r... */\n    tag_38:\n      tag_124\n      0x04\n      dup1\n      calldatasize\n      sub\n        /* \"--CODEGEN--\":15:17   */\n      0x60\n        /* \"--CODEGEN--\":10:13   */\n      dup2\n        /* \"--CODEGEN--\":7:18   */\n      lt\n        /* \"--CODEGEN--\":4:6   */\n      iszero\n      tag_277\n      jumpi\n        /* \"--CODEGEN--\":31:32   */\n      0x00\n        /* \"--CODEGEN--\":28:29   */\n      dup1\n        /* \"--CODEGEN--\":21:33   */\n      revert\n        /* \"--CODEGEN--\":4:6   */\n    tag_277:\n        /* \"Entity.sol\":7263:7500  function addDataToSend(string memory _key, string memory _value, uint32 index) \r... */\n      dup2\n      add\n      swap1\n      0x20\n      dup2\n      add\n      dup2\n      calldataload\n      shl(0x20, 0x01)\n        /* \"--CODEGEN--\":11:39   */\n      dup2\n      gt\n        /* \"--CODEGEN--\":8:10   */\n      iszero\n      tag_278\n      jumpi\n        /* \"--CODEGEN--\":52:53   */\n      0x00\n        /* \"--CODEGEN--\":49:50   */\n      dup1\n        /* \"--CODEGEN--\":42:54   */\n      revert\n        /* \"--CODEGEN--\":8:10   */\n    tag_278:\n        /* \"Entity.sol\":7263:7500  function addDataToSend(string memory _key, string memory _value, uint32 index) \r... */\n      dup3\n      add\n        /* \"--CODEGEN--\":41:50   */\n      dup4\n        /* \"--CODEGEN--\":34:38   */\n      0x20\n        /* \"--CODEGEN--\":18:32   */\n      dup3\n        /* \"--CODEGEN--\":14:39   */\n      add\n        /* \"--CODEGEN--\":11:51   */\n      gt\n        /* \"--CODEGEN--\":8:10   */\n      iszero\n      tag_279\n      jumpi\n        /* \"--CODEGEN--\":64:65   */\n      0x00\n        /* \"--CODEGEN--\":61:62   */\n      dup1\n        /* \"--CODEGEN--\":54:66   */\n      revert\n        /* \"--CODEGEN--\":8:10   */\n    tag_279:\n        /* \"Entity.sol\":7263:7500  function addDataToSend(string memory _key, string memory _value, uint32 index) \r... */\n      dup1\n      calldataload\n      swap1\n      0x20\n      add\n      swap2\n        /* \"--CODEGEN--\":100:109   */\n      dup5\n        /* \"--CODEGEN--\":95:96   */\n      0x01\n        /* \"--CODEGEN--\":81:93   */\n      dup4\n        /* \"--CODEGEN--\":77:97   */\n      mul\n        /* \"--CODEGEN--\":67:75   */\n      dup5\n        /* \"--CODEGEN--\":63:98   */\n      add\n        /* \"--CODEGEN--\":60:110   */\n      gt\n      shl(0x20, 0x01)\n        /* \"--CODEGEN--\":25:37   */\n      dup4\n        /* \"--CODEGEN--\":22:51   */\n      gt\n        /* \"--CODEGEN--\":11:118   */\n      or\n        /* \"--CODEGEN--\":8:10   */\n      iszero\n      tag_280\n      jumpi\n        /* \"--CODEGEN--\":131:132   */\n      0x00\n        /* \"--CODEGEN--\":128:129   */\n      dup1\n        /* \"--CODEGEN--\":121:133   */\n      revert\n        /* \"--CODEGEN--\":8:10   */\n    tag_280:\n        /* \"Entity.sol\":7263:7500  function addDataToSend(string memory _key, string memory _value, uint32 index) \r... */\n      swap2\n      swap1\n      dup1\n      dup1\n      0x1f\n      add\n      0x20\n      dup1\n      swap2\n      div\n      mul\n      0x20\n      add\n      mload(0x40)\n      swap1\n      dup2\n      add\n      0x40\n      mstore\n      dup1\n      swap4\n      swap3\n      swap2\n      swap1\n      dup2\n      dup2\n      mstore\n      0x20\n      add\n      dup4\n      dup4\n        /* \"--CODEGEN--\":30:33   */\n      dup1\n        /* \"--CODEGEN--\":22:28   */\n      dup3\n        /* \"--CODEGEN--\":14:20   */\n      dup5\n        /* \"--CODEGEN--\":1:34   */\n      calldatacopy\n        /* \"--CODEGEN--\":99:100   */\n      0x00\n        /* \"--CODEGEN--\":81:97   */\n      swap3\n      add\n        /* \"--CODEGEN--\":74:101   */\n      swap2\n      swap1\n      swap2\n      mstore\n      pop\n        /* \"Entity.sol\":7263:7500  function addDataToSend(string memory _key, string memory _value, uint32 index) \r... */\n      swap3\n      swap6\n      swap5\n      swap4\n      0x20\n      dup2\n      add\n      swap4\n      pop\n      calldataload\n      swap2\n      pop\n      pop\n      shl(0x20, 0x01)\n        /* \"--CODEGEN--\":11:39   */\n      dup2\n      gt\n        /* \"--CODEGEN--\":8:10   */\n      iszero\n      tag_281\n      jumpi\n        /* \"--CODEGEN--\":52:53   */\n      0x00\n        /* \"--CODEGEN--\":49:50   */\n      dup1\n        /* \"--CODEGEN--\":42:54   */\n      revert\n        /* \"--CODEGEN--\":8:10   */\n    tag_281:\n        /* \"Entity.sol\":7263:7500  function addDataToSend(string memory _key, string memory _value, uint32 index) \r... */\n      dup3\n      add\n        /* \"--CODEGEN--\":41:50   */\n      dup4\n        /* \"--CODEGEN--\":34:38   */\n      0x20\n        /* \"--CODEGEN--\":18:32   */\n      dup3\n        /* \"--CODEGEN--\":14:39   */\n      add\n        /* \"--CODEGEN--\":11:51   */\n      gt\n        /* \"--CODEGEN--\":8:10   */\n      iszero\n      tag_282\n      jumpi\n        /* \"--CODEGEN--\":64:65   */\n      0x00\n        /* \"--CODEGEN--\":61:62   */\n      dup1\n        /* \"--CODEGEN--\":54:66   */\n      revert\n        /* \"--CODEGEN--\":8:10   */\n    tag_282:\n        /* \"Entity.sol\":7263:7500  function addDataToSend(string memory _key, string memory _value, uint32 index) \r... */\n      dup1\n      calldataload\n      swap1\n      0x20\n      add\n      swap2\n        /* \"--CODEGEN--\":100:109   */\n      dup5\n        /* \"--CODEGEN--\":95:96   */\n      0x01\n        /* \"--CODEGEN--\":81:93   */\n      dup4\n        /* \"--CODEGEN--\":77:97   */\n      mul\n        /* \"--CODEGEN--\":67:75   */\n      dup5\n        /* \"--CODEGEN--\":63:98   */\n      add\n        /* \"--CODEGEN--\":60:110   */\n      gt\n      shl(0x20, 0x01)\n        /* \"--CODEGEN--\":25:37   */\n      dup4\n        /* \"--CODEGEN--\":22:51   */\n      gt\n        /* \"--CODEGEN--\":11:118   */\n      or\n        /* \"--CODEGEN--\":8:10   */\n      iszero\n      tag_283\n      jumpi\n        /* \"--CODEGEN--\":131:132   */\n      0x00\n        /* \"--CODEGEN--\":128:129   */\n      dup1\n        /* \"--CODEGEN--\":121:133   */\n      revert\n        /* \"--CODEGEN--\":8:10   */\n    tag_283:\n        /* \"Entity.sol\":7263:7500  function addDataToSend(string memory _key, string memory _value, uint32 index) \r... */\n      swap2\n      swap1\n      dup1\n      dup1\n      0x1f\n      add\n      0x20\n      dup1\n      swap2\n      div\n      mul\n      0x20\n      add\n      mload(0x40)\n      swap1\n      dup2\n      add\n      0x40\n      mstore\n      dup1\n      swap4\n      swap3\n      swap2\n      swap1\n      dup2\n      dup2\n      mstore\n      0x20\n      add\n      dup4\n      dup4\n        /* \"--CODEGEN--\":30:33   */\n      dup1\n        /* \"--CODEGEN--\":22:28   */\n      dup3\n        /* \"--CODEGEN--\":14:20   */\n      dup5\n        /* \"--CODEGEN--\":1:34   */\n      calldatacopy\n        /* \"--CODEGEN--\":99:100   */\n      0x00\n        /* \"--CODEGEN--\":81:97   */\n      swap3\n      add\n        /* \"--CODEGEN--\":74:101   */\n      swap2\n      swap1\n      swap2\n      mstore\n      pop\n        /* \"Entity.sol\":7263:7500  function addDataToSend(string memory _key, string memory _value, uint32 index) \r... */\n      swap3\n      swap6\n      pop\n      pop\n      pop\n      swap1\n      calldataload\n      0xffffffff\n      and\n      swap2\n      pop\n      tag_284\n      swap1\n      pop\n      jump\t// in\n        /* \"Entity.sol\":9754:9921  function keysOfData(address src, string memory des)\r... */\n    tag_51:\n        /* \"Entity.sol\":9853:9866  string memory */\n      0x60\n        /* \"Entity.sol\":9891:9898  Storage */\n      0x02\n        /* \"Entity.sol\":9891:9903  Storage[src] */\n      0x00\n        /* \"Entity.sol\":9899:9902  src */\n      dup5\n      sub(shl(0xa0, 0x01), 0x01)\n        /* \"Entity.sol\":9891:9903  Storage[src] */\n      and\n      sub(shl(0xa0, 0x01), 0x01)\n      and\n      dup2\n      mstore\n      0x20\n      add\n      swap1\n      dup2\n      mstore\n      0x20\n      add\n      0x00\n      keccak256\n        /* \"Entity.sol\":9904:9907  des */\n      dup3\n        /* \"Entity.sol\":9891:9908  Storage[src][des] */\n      mload(0x40)\n      dup1\n      dup3\n      dup1\n      mload\n      swap1\n      0x20\n      add\n      swap1\n      dup1\n      dup4\n      dup4\n        /* \"--CODEGEN--\":36:189   */\n    tag_286:\n        /* \"--CODEGEN--\":66:68   */\n      0x20\n        /* \"--CODEGEN--\":61:64   */\n      dup4\n        /* \"--CODEGEN--\":58:69   */\n      lt\n        /* \"--CODEGEN--\":36:189   */\n      tag_288\n      jumpi\n        /* \"--CODEGEN--\":176:186   */\n      dup1\n      mload\n        /* \"--CODEGEN--\":164:187   */\n      dup3\n      mstore\n      not(0x1f)\n        /* \"--CODEGEN--\":139:151   */\n      swap1\n      swap3\n      add\n      swap2\n        /* \"--CODEGEN--\":98:100   */\n      0x20\n        /* \"--CODEGEN--\":89:101   */\n      swap2\n      dup3\n      add\n      swap2\n        /* \"--CODEGEN--\":114:126   */\n      add\n        /* \"--CODEGEN--\":36:189   */\n      jump(tag_286)\n    tag_288:\n        /* \"--CODEGEN--\":299:309   */\n      mload\n        /* \"--CODEGEN--\":344:354   */\n      dup2\n      mload\n      not(0x00)\n        /* \"--CODEGEN--\":263:265   */\n      0x20\n        /* \"--CODEGEN--\":259:271   */\n      swap5\n      dup6\n      sub\n        /* \"--CODEGEN--\":254:257   */\n      0x0100\n        /* \"--CODEGEN--\":250:272   */\n      swap1\n      dup2\n      exp\n        /* \"--CODEGEN--\":246:276   */\n      dup3\n      add\n        /* \"--CODEGEN--\":340:361   */\n      swap3\n      dup4\n      and\n        /* \"--CODEGEN--\":311:320   */\n      swap3\n      not\n        /* \"--CODEGEN--\":295:321   */\n      swap4\n      swap1\n      swap4\n      and\n        /* \"--CODEGEN--\":377:397   */\n      swap2\n      swap1\n      swap2\n      or\n        /* \"--CODEGEN--\":365:398   */\n      swap1\n      swap3\n      mstore\n        /* \"Entity.sol\":9891:9908  Storage[src][des] */\n      swap5\n      swap1\n      swap3\n      add\n      swap7\n      dup8\n      mstore\n      0x40\n      dup1\n      mload\n      swap8\n      dup9\n      swap1\n      sub\n      dup3\n      add\n      dup9\n      keccak256\n        /* \"Entity.sol\":9891:9913  Storage[src][des].keys */\n      0x02\n      swap1\n      dup2\n      add\n        /* \"Entity.sol\":9884:9913  return Storage[src][des].keys */\n      dup1\n      sload\n      0x1f\n        /* \"--CODEGEN--\":274:275   */\n      0x01\n        /* \"Entity.sol\":9884:9913  return Storage[src][des].keys */\n      dup3\n      and\n      iszero\n      swap1\n      swap9\n      mul\n      swap1\n      swap6\n      add\n      swap1\n      swap5\n      and\n      div\n      swap5\n      dup6\n      add\n      dup3\n      swap1\n      div\n      dup3\n      mul\n      dup9\n      add\n      dup3\n      add\n      swap1\n      mstore\n      dup4\n      dup8\n      mstore\n        /* \"Entity.sol\":9891:9913  Storage[src][des].keys */\n      swap1\n      swap5\n      pop\n        /* \"Entity.sol\":9884:9913  return Storage[src][des].keys */\n      swap2\n      swap3\n      pop\n      pop\n      dup4\n      add\n        /* \"Entity.sol\":9891:9913  Storage[src][des].keys */\n      dup3\n        /* \"Entity.sol\":9884:9913  return Storage[src][des].keys */\n      dup3\n      dup1\n      iszero\n      tag_289\n      jumpi\n      dup1\n      0x1f\n      lt\n      tag_290\n      jumpi\n      0x0100\n      dup1\n      dup4\n      sload\n      div\n      mul\n      dup4\n      mstore\n      swap2\n      0x20\n      add\n      swap2\n      jump(tag_289)\n    tag_290:\n      dup3\n      add\n      swap2\n      swap1\n      0x00\n      mstore\n      keccak256(0x00, 0x20)\n      swap1\n    tag_291:\n      dup2\n      sload\n      dup2\n      mstore\n      swap1\n      0x01\n      add\n      swap1\n      0x20\n      add\n      dup1\n      dup4\n      gt\n      tag_291\n      jumpi\n      dup3\n      swap1\n      sub\n      0x1f\n      and\n      dup3\n      add\n      swap2\n    tag_289:\n      pop\n      pop\n      pop\n      pop\n      pop\n      swap1\n      pop\n        /* \"Entity.sol\":9754:9921  function keysOfData(address src, string memory des)\r... */\n      swap3\n      swap2\n      pop\n      pop\n      jump\t// out\n        /* \"Entity.sol\":8904:9160  function keyValueOfDataToSend(uint32 index, uint32 keyIndex) \r... */\n    tag_58:\n        /* \"Entity.sol\":9016:9029  string memory */\n      0x60\n        /* \"Entity.sol\":9031:9044  string memory */\n      dup1\n        /* \"Entity.sol\":9071:9088  pendingDataToSend */\n      0x0b\n        /* \"Entity.sol\":9089:9094  index */\n      dup5\n        /* \"Entity.sol\":9071:9095  pendingDataToSend[index] */\n      0xffffffff\n      and\n      dup2\n      sload\n      dup2\n      lt\n      tag_293\n      jumpi\n      invalid\n    tag_293:\n      swap1\n      0x00\n      mstore\n      keccak256(0x00, 0x20)\n      swap1\n      0x06\n      mul\n      add\n        /* \"Entity.sol\":9071:9099  pendingDataToSend[index].key */\n      0x03\n      add\n        /* \"Entity.sol\":9100:9108  keyIndex */\n      dup4\n        /* \"Entity.sol\":9071:9109  pendingDataToSend[index].key[keyIndex] */\n      0xffffffff\n      and\n      dup2\n      sload\n      dup2\n      lt\n      tag_295\n      jumpi\n      invalid\n    tag_295:\n      swap1\n      0x00\n      mstore\n      keccak256(0x00, 0x20)\n      add\n        /* \"Entity.sol\":9111:9128  pendingDataToSend */\n      0x0b\n        /* \"Entity.sol\":9129:9134  index */\n      dup6\n        /* \"Entity.sol\":9111:9135  pendingDataToSend[index] */\n      0xffffffff\n      and\n      dup2\n      sload\n      dup2\n      lt\n      tag_297\n      jumpi\n      invalid\n    tag_297:\n      swap1\n      0x00\n      mstore\n      keccak256(0x00, 0x20)\n      swap1\n      0x06\n      mul\n      add\n        /* \"Entity.sol\":9111:9141  pendingDataToSend[index].value */\n      0x04\n      add\n        /* \"Entity.sol\":9142:9150  keyIndex */\n      dup5\n        /* \"Entity.sol\":9111:9151  pendingDataToSend[index].value[keyIndex] */\n      0xffffffff\n      and\n      dup2\n      sload\n      dup2\n      lt\n      tag_299\n      jumpi\n      invalid\n    tag_299:\n      0x00\n      swap2\n      dup3\n      mstore\n      0x20\n      swap2\n      dup3\n      swap1\n      keccak256\n        /* \"Entity.sol\":9063:9152  return (pendingDataToSend[index].key[keyIndex], pendingDataToSend[index].value[keyIndex]) */\n      dup4\n      sload\n      0x40\n      dup1\n      mload\n      0x02\n      0x01\n      dup5\n      and\n      iszero\n      0x0100\n      mul\n      not(0x00)\n      add\n      swap1\n      swap4\n      and\n      swap3\n      swap1\n      swap3\n      div\n      0x1f\n      dup2\n      add\n      dup7\n      swap1\n      div\n      dup7\n      mul\n      dup4\n      add\n      dup7\n      add\n      swap1\n      swap2\n      mstore\n      dup1\n      dup3\n      mstore\n        /* \"Entity.sol\":9111:9151  pendingDataToSend[index].value[keyIndex] */\n      swap3\n      swap1\n      swap2\n      add\n      swap3\n        /* \"Entity.sol\":9063:9152  return (pendingDataToSend[index].key[keyIndex], pendingDataToSend[index].value[keyIndex]) */\n      swap1\n      swap2\n      dup5\n      swap2\n      dup4\n      add\n      dup3\n      dup3\n      dup1\n      iszero\n      tag_301\n      jumpi\n      dup1\n      0x1f\n      lt\n      tag_302\n      jumpi\n      0x0100\n      dup1\n      dup4\n      sload\n      div\n      mul\n      dup4\n      mstore\n      swap2\n      0x20\n      add\n      swap2\n      jump(tag_301)\n    tag_302:\n      dup3\n      add\n      swap2\n      swap1\n      0x00\n      mstore\n      keccak256(0x00, 0x20)\n      swap1\n    tag_303:\n      dup2\n      sload\n      dup2\n      mstore\n      swap1\n      0x01\n      add\n      swap1\n      0x20\n      add\n      dup1\n      dup4\n      gt\n      tag_303\n      jumpi\n      dup3\n      swap1\n      sub\n      0x1f\n      and\n      dup3\n      add\n      swap2\n    tag_301:\n      pop\n      pop\n      dup5\n      sload\n      0x40\n      dup1\n      mload\n      0x20\n      0x02\n      0x01\n      dup6\n      and\n      iszero\n      0x0100\n      mul\n      not(0x00)\n      add\n      swap1\n      swap5\n      and\n      swap4\n      swap1\n      swap4\n      div\n      0x1f\n      dup2\n      add\n      dup5\n      swap1\n      div\n      dup5\n      mul\n      dup3\n      add\n      dup5\n      add\n      swap1\n      swap3\n      mstore\n      dup2\n      dup2\n      mstore\n      swap6\n      swap8\n      pop\n      dup7\n      swap5\n      pop\n      swap3\n      pop\n      dup5\n      add\n      swap1\n      pop\n      dup3\n      dup3\n      dup1\n      iszero\n      tag_304\n      jumpi\n      dup1\n      0x1f\n      lt\n      tag_305\n      jumpi\n      0x0100\n      dup1\n      dup4\n      sload\n      div\n      mul\n      dup4\n      mstore\n      swap2\n      0x20\n      add\n      swap2\n      jump(tag_304)\n    tag_305:\n      dup3\n      add\n      swap2\n      swap1\n      0x00\n      mstore\n      keccak256(0x00, 0x20)\n      swap1\n    tag_306:\n      dup2\n      sload\n      dup2\n      mstore\n      swap1\n      0x01\n      add\n      swap1\n      0x20\n      add\n      dup1\n      dup4\n      gt\n      tag_306\n      jumpi\n      dup3\n      swap1\n      sub\n      0x1f\n      and\n      dup3\n      add\n      swap2\n    tag_304:\n      pop\n      pop\n      pop\n      pop\n      pop\n      swap1\n      pop\n      swap2\n      pop\n      swap2\n      pop\n        /* \"Entity.sol\":8904:9160  function keyValueOfDataToSend(uint32 index, uint32 keyIndex) \r... */\n      swap3\n      pop\n      swap3\n      swap1\n      pop\n      jump\t// out\n        /* \"Entity.sol\":850:911  mapping(address=>mapping(string=>storingData)) public Storage */\n    tag_72:\n      0x02\n      0x20\n      dup2\n      dup2\n      mstore\n      0x00\n      swap4\n      dup5\n      mstore\n      0x40\n      swap4\n      dup5\n      swap1\n      keccak256\n        /* \"--CODEGEN--\":22:36   */\n      dup4\n      mload\n        /* \"--CODEGEN--\":143:175   */\n      dup1\n      dup6\n      add\n      dup4\n      add\n        /* \"--CODEGEN--\":198:218   */\n      dup1\n      mload\n        /* \"--CODEGEN--\":224:255   */\n      swap3\n      dup2\n      mstore\n        /* \"--CODEGEN--\":156:174   */\n      swap1\n      dup4\n      add\n        /* \"--CODEGEN--\":283:301   */\n      swap5\n      dup4\n      add\n        /* \"--CODEGEN--\":273:322   */\n      swap5\n      swap1\n      swap5\n      keccak256\n        /* \"--CODEGEN--\":328:360   */\n      swap4\n      mstore\n        /* \"Entity.sol\":850:911  mapping(address=>mapping(string=>storingData)) public Storage */\n      dup3\n      dup3\n      add\n      dup1\n      sload\n      dup6\n      mload\n      0x01\n      dup3\n      and\n      iszero\n      0x0100\n      mul\n      not(0x00)\n      add\n      swap1\n      swap2\n      and\n      swap4\n      swap1\n      swap4\n      div\n      0x1f\n      dup2\n      add\n      dup4\n      swap1\n      div\n      dup4\n      mul\n      dup5\n      add\n      dup4\n      add\n      swap1\n      swap6\n      mstore\n      dup5\n      dup4\n      mstore\n        /* \"--CODEGEN--\":273:322   */\n      swap3\n      swap4\n        /* \"Entity.sol\":850:911  mapping(address=>mapping(string=>storingData)) public Storage */\n      swap2\n      swap3\n      swap2\n      swap1\n      dup4\n      add\n      dup3\n      dup3\n      dup1\n      iszero\n      tag_307\n      jumpi\n      dup1\n      0x1f\n      lt\n      tag_308\n      jumpi\n      0x0100\n      dup1\n      dup4\n      sload\n      div\n      mul\n      dup4\n      mstore\n      swap2\n      0x20\n      add\n      swap2\n      jump(tag_307)\n    tag_308:\n      dup3\n      add\n      swap2\n      swap1\n      0x00\n      mstore\n      keccak256(0x00, 0x20)\n      swap1\n    tag_309:\n      dup2\n      sload\n      dup2\n      mstore\n      swap1\n      0x01\n      add\n      swap1\n      0x20\n      add\n      dup1\n      dup4\n      gt\n      tag_309\n      jumpi\n      dup3\n      swap1\n      sub\n      0x1f\n      and\n      dup3\n      add\n      swap2\n    tag_307:\n      pop\n      pop\n      pop\n      pop\n      pop\n      swap1\n      pop\n      dup2\n      jump\t// out\n        /* \"Entity.sol\":918:979  mapping(address=>mapping(string=>string)) public MarkupsOwner */\n    tag_82:\n      0x03\n      0x20\n      swap1\n      dup2\n      mstore\n      0x00\n      swap3\n      dup4\n      mstore\n      0x40\n      swap3\n      dup4\n      swap1\n      keccak256\n        /* \"--CODEGEN--\":22:36   */\n      dup3\n      mload\n        /* \"--CODEGEN--\":143:175   */\n      dup1\n      dup5\n      add\n      dup4\n      add\n        /* \"--CODEGEN--\":198:218   */\n      dup1\n      mload\n        /* \"--CODEGEN--\":224:255   */\n      swap3\n      dup2\n      mstore\n        /* \"--CODEGEN--\":156:174   */\n      swap1\n      dup4\n      add\n        /* \"--CODEGEN--\":283:301   */\n      swap4\n      dup4\n      add\n        /* \"--CODEGEN--\":273:322   */\n      swap4\n      swap1\n      swap4\n      keccak256\n        /* \"--CODEGEN--\":328:360   */\n      swap3\n      mstore\n        /* \"Entity.sol\":918:979  mapping(address=>mapping(string=>string)) public MarkupsOwner */\n      dup2\n      sload\n      dup4\n      mload\n      0x1f\n      0x02\n      not(0x00)\n      0x0100\n      0x01\n      dup7\n      and\n      iszero\n      mul\n      add\n      swap1\n      swap4\n      and\n      swap3\n      swap1\n      swap3\n      div\n      swap2\n      dup3\n      add\n      dup4\n      swap1\n      div\n      dup4\n      mul\n      dup2\n      add\n      dup4\n      add\n      swap1\n      swap5\n      mstore\n      dup1\n      dup5\n      mstore\n      swap1\n      dup4\n      add\n        /* \"--CODEGEN--\":273:322   */\n      dup3\n        /* \"Entity.sol\":918:979  mapping(address=>mapping(string=>string)) public MarkupsOwner */\n      dup3\n      dup1\n      iszero\n      tag_310\n      jumpi\n      dup1\n      0x1f\n      lt\n      tag_311\n      jumpi\n      0x0100\n      dup1\n      dup4\n      sload\n      div\n      mul\n      dup4\n      mstore\n      swap2\n      0x20\n      add\n      swap2\n      jump(tag_310)\n    tag_311:\n      dup3\n      add\n      swap2\n      swap1\n      0x00\n      mstore\n      keccak256(0x00, 0x20)\n      swap1\n    tag_312:\n      dup2\n      sload\n      dup2\n      mstore\n      swap1\n      0x01\n      add\n      swap1\n      0x20\n      add\n      dup1\n      dup4\n      gt\n      tag_312\n      jumpi\n      dup3\n      swap1\n      sub\n      0x1f\n      and\n      dup3\n      add\n      swap2\n    tag_310:\n      pop\n      pop\n      pop\n      pop\n      pop\n      dup2\n      jump\t// out\n        /* \"Entity.sol\":6887:7251  function newDataMultipleToSend(address multipleEntity, address _receiver, \r... */\n    tag_98:\n        /* \"Entity.sol\":7110:7116  uint32 */\n      0x00\n        /* \"Entity.sol\":7135:7144  Entity me */\n      dup1\n        /* \"Entity.sol\":7154:7168  multipleEntity */\n      dup8\n        /* \"Entity.sol\":7135:7169  Entity me = Entity(multipleEntity) */\n      swap1\n      pop\n        /* \"Entity.sol\":7180:7182  me */\n      dup1\n      sub(shl(0xa0, 0x01), 0x01)\n        /* \"Entity.sol\":7180:7196  me.newDataToSend */\n      and\n      0x8c162152\n        /* \"Entity.sol\":7197:7206  _receiver */\n      dup9\n        /* \"Entity.sol\":7208:7220  _description */\n      dup9\n        /* \"Entity.sol\":7222:7226  _key */\n      dup9\n        /* \"Entity.sol\":7228:7234  _value */\n      dup9\n        /* \"Entity.sol\":7236:7242  direct */\n      dup9\n        /* \"Entity.sol\":7180:7243  me.newDataToSend(_receiver, _description, _key, _value, direct) */\n      mload(0x40)\n      dup7\n      0xffffffff\n      and\n      0xe0\n      shl\n      dup2\n      mstore\n      0x04\n      add\n      dup1\n      dup7\n      sub(shl(0xa0, 0x01), 0x01)\n      and\n      sub(shl(0xa0, 0x01), 0x01)\n      and\n      dup2\n      mstore\n      0x20\n      add\n      dup1\n      0x20\n      add\n      dup1\n      0x20\n      add\n      dup1\n      0x20\n      add\n      dup6\n      iszero\n      iszero\n      iszero\n      iszero\n      dup2\n      mstore\n      0x20\n      add\n      dup5\n      dup2\n      sub\n      dup5\n      mstore\n      dup9\n      dup2\n      dup2\n      mload\n      dup2\n      mstore\n      0x20\n      add\n      swap2\n      pop\n      dup1\n      mload\n      swap1\n      0x20\n      add\n      swap1\n      dup1\n      dup4\n      dup4\n        /* \"--CODEGEN--\":23:24   */\n      0x00\n        /* \"--CODEGEN--\":8:108   */\n    tag_315:\n        /* \"--CODEGEN--\":33:36   */\n      dup4\n        /* \"--CODEGEN--\":30:31   */\n      dup2\n        /* \"--CODEGEN--\":27:37   */\n      lt\n        /* \"--CODEGEN--\":8:108   */\n      iszero\n      tag_317\n      jumpi\n        /* \"--CODEGEN--\":90:101   */\n      dup2\n      dup2\n      add\n        /* \"--CODEGEN--\":84:102   */\n      mload\n        /* \"--CODEGEN--\":71:82   */\n      dup4\n      dup3\n      add\n        /* \"--CODEGEN--\":64:103   */\n      mstore\n        /* \"--CODEGEN--\":52:54   */\n      0x20\n        /* \"--CODEGEN--\":45:55   */\n      add\n        /* \"--CODEGEN--\":8:108   */\n      jump(tag_315)\n    tag_317:\n        /* \"--CODEGEN--\":12:26   */\n      pop\n        /* \"Entity.sol\":7180:7243  me.newDataToSend(_receiver, _description, _key, _value, direct) */\n      pop\n      pop\n      pop\n      swap1\n      pop\n      swap1\n      dup2\n      add\n      swap1\n      0x1f\n      and\n      dup1\n      iszero\n      tag_318\n      jumpi\n      dup1\n      dup3\n      sub\n      dup1\n      mload\n      0x01\n      dup4\n      0x20\n      sub\n      0x0100\n      exp\n      sub\n      not\n      and\n      dup2\n      mstore\n      0x20\n      add\n      swap2\n      pop\n    tag_318:\n      pop\n      dup5\n      dup2\n      sub\n      dup4\n      mstore\n      dup8\n      mload\n      dup2\n      mstore\n      dup8\n      mload\n      0x20\n      swap2\n      dup3\n      add\n      swap2\n      dup10\n      add\n      swap1\n      dup1\n      dup4\n      dup4\n        /* \"--CODEGEN--\":23:24   */\n      0x00\n        /* \"--CODEGEN--\":8:108   */\n    tag_319:\n        /* \"--CODEGEN--\":33:36   */\n      dup4\n        /* \"--CODEGEN--\":30:31   */\n      dup2\n        /* \"--CODEGEN--\":27:37   */\n      lt\n        /* \"--CODEGEN--\":8:108   */\n      iszero\n      tag_321\n      jumpi\n        /* \"--CODEGEN--\":90:101   */\n      dup2\n      dup2\n      add\n        /* \"--CODEGEN--\":84:102   */\n      mload\n        /* \"--CODEGEN--\":71:82   */\n      dup4\n      dup3\n      add\n        /* \"--CODEGEN--\":64:103   */\n      mstore\n        /* \"--CODEGEN--\":52:54   */\n      0x20\n        /* \"--CODEGEN--\":45:55   */\n      add\n        /* \"--CODEGEN--\":8:108   */\n      jump(tag_319)\n    tag_321:\n        /* \"--CODEGEN--\":12:26   */\n      pop\n        /* \"Entity.sol\":7180:7243  me.newDataToSend(_receiver, _description, _key, _value, direct) */\n      pop\n      pop\n      pop\n      swap1\n      pop\n      swap1\n      dup2\n      add\n      swap1\n      0x1f\n      and\n      dup1\n      iszero\n      tag_322\n      jumpi\n      dup1\n      dup3\n      sub\n      dup1\n      mload\n      0x01\n      dup4\n      0x20\n      sub\n      0x0100\n      exp\n      sub\n      not\n      and\n      dup2\n      mstore\n      0x20\n      add\n      swap2\n      pop\n    tag_322:\n      pop\n      dup5\n      dup2\n      sub\n      dup3\n      mstore\n      dup7\n      mload\n      dup2\n      mstore\n      dup7\n      mload\n      0x20\n      swap2\n      dup3\n      add\n      swap2\n      dup9\n      add\n      swap1\n      dup1\n      dup4\n      dup4\n        /* \"--CODEGEN--\":23:24   */\n      0x00\n        /* \"--CODEGEN--\":8:108   */\n    tag_323:\n        /* \"--CODEGEN--\":33:36   */\n      dup4\n        /* \"--CODEGEN--\":30:31   */\n      dup2\n        /* \"--CODEGEN--\":27:37   */\n      lt\n        /* \"--CODEGEN--\":8:108   */\n      iszero\n      tag_325\n      jumpi\n        /* \"--CODEGEN--\":90:101   */\n      dup2\n      dup2\n      add\n        /* \"--CODEGEN--\":84:102   */\n      mload\n        /* \"--CODEGEN--\":71:82   */\n      dup4\n      dup3\n      add\n        /* \"--CODEGEN--\":64:103   */\n      mstore\n        /* \"--CODEGEN--\":52:54   */\n      0x20\n        /* \"--CODEGEN--\":45:55   */\n      add\n        /* \"--CODEGEN--\":8:108   */\n      jump(tag_323)\n    tag_325:\n        /* \"--CODEGEN--\":12:26   */\n      pop\n        /* \"Entity.sol\":7180:7243  me.newDataToSend(_receiver, _description, _key, _value, direct) */\n      pop\n      pop\n      pop\n      swap1\n      pop\n      swap1\n      dup2\n      add\n      swap1\n      0x1f\n      and\n      dup1\n      iszero\n      tag_326\n      jumpi\n      dup1\n      dup3\n      sub\n      dup1\n      mload\n      0x01\n      dup4\n      0x20\n      sub\n      0x0100\n      exp\n      sub\n      not\n      and\n      dup2\n      mstore\n      0x20\n      add\n      swap2\n      pop\n    tag_326:\n      pop\n      swap9\n      pop\n      pop\n      pop\n      pop\n      pop\n      pop\n      pop\n      pop\n      pop\n      0x00\n      mload(0x40)\n      dup1\n      dup4\n      sub\n      dup2\n      0x00\n      dup8\n      dup1\n      extcodesize\n      iszero\n        /* \"--CODEGEN--\":5:14   */\n      dup1\n        /* \"--CODEGEN--\":2:4   */\n      iszero\n      tag_327\n      jumpi\n        /* \"--CODEGEN--\":27:28   */\n      0x00\n        /* \"--CODEGEN--\":24:25   */\n      dup1\n        /* \"--CODEGEN--\":17:29   */\n      revert\n        /* \"--CODEGEN--\":2:4   */\n    tag_327:\n        /* \"Entity.sol\":7180:7243  me.newDataToSend(_receiver, _description, _key, _value, direct) */\n      pop\n      gas\n      call\n      iszero\n        /* \"--CODEGEN--\":8:17   */\n      dup1\n        /* \"--CODEGEN--\":5:7   */\n      iszero\n      tag_329\n      jumpi\n        /* \"--CODEGEN--\":45:61   */\n      returndatasize\n        /* \"--CODEGEN--\":42:43   */\n      0x00\n        /* \"--CODEGEN--\":39:40   */\n      dup1\n        /* \"--CODEGEN--\":24:62   */\n      returndatacopy\n        /* \"--CODEGEN--\":77:93   */\n      returndatasize\n        /* \"--CODEGEN--\":74:75   */\n      0x00\n        /* \"--CODEGEN--\":67:94   */\n      revert\n        /* \"--CODEGEN--\":5:7   */\n    tag_329:\n        /* \"Entity.sol\":7180:7243  me.newDataToSend(_receiver, _description, _key, _value, direct) */\n      pop\n      pop\n      pop\n      pop\n        /* \"Entity.sol\":574:575  _ */\n      pop\n        /* \"Entity.sol\":6887:7251  function newDataMultipleToSend(address multipleEntity, address _receiver, \r... */\n      swap7\n      swap6\n      pop\n      pop\n      pop\n      pop\n      pop\n      pop\n      jump\t// out\n        /* \"Entity.sol\":9929:10122  function fetchValue(address src, string memory des, string memory key)\r... */\n    tag_107:\n        /* \"Entity.sol\":10047:10060  string memory */\n      0x60\n        /* \"Entity.sol\":10085:10092  Storage */\n      0x02\n        /* \"Entity.sol\":10085:10097  Storage[src] */\n      0x00\n        /* \"Entity.sol\":10093:10096  src */\n      dup6\n      sub(shl(0xa0, 0x01), 0x01)\n        /* \"Entity.sol\":10085:10097  Storage[src] */\n      and\n      sub(shl(0xa0, 0x01), 0x01)\n      and\n      dup2\n      mstore\n      0x20\n      add\n      swap1\n      dup2\n      mstore\n      0x20\n      add\n      0x00\n      keccak256\n        /* \"Entity.sol\":10098:10101  des */\n      dup4\n        /* \"Entity.sol\":10085:10102  Storage[src][des] */\n      mload(0x40)\n      dup1\n      dup3\n      dup1\n      mload\n      swap1\n      0x20\n      add\n      swap1\n      dup1\n      dup4\n      dup4\n        /* \"--CODEGEN--\":36:189   */\n    tag_331:\n        /* \"--CODEGEN--\":66:68   */\n      0x20\n        /* \"--CODEGEN--\":61:64   */\n      dup4\n        /* \"--CODEGEN--\":58:69   */\n      lt\n        /* \"--CODEGEN--\":36:189   */\n      tag_333\n      jumpi\n        /* \"--CODEGEN--\":176:186   */\n      dup1\n      mload\n        /* \"--CODEGEN--\":164:187   */\n      dup3\n      mstore\n      not(0x1f)\n        /* \"--CODEGEN--\":139:151   */\n      swap1\n      swap3\n      add\n      swap2\n        /* \"--CODEGEN--\":98:100   */\n      0x20\n        /* \"--CODEGEN--\":89:101   */\n      swap2\n      dup3\n      add\n      swap2\n        /* \"--CODEGEN--\":114:126   */\n      add\n        /* \"--CODEGEN--\":36:189   */\n      jump(tag_331)\n    tag_333:\n        /* \"--CODEGEN--\":299:309   */\n      mload\n        /* \"--CODEGEN--\":344:354   */\n      dup2\n      mload\n        /* \"--CODEGEN--\":263:265   */\n      0x20\n        /* \"--CODEGEN--\":259:271   */\n      swap4\n      dup5\n      sub\n        /* \"--CODEGEN--\":254:257   */\n      0x0100\n        /* \"--CODEGEN--\":250:272   */\n      exp\n      not(0x00)\n        /* \"--CODEGEN--\":246:276   */\n      add\n        /* \"--CODEGEN--\":311:320   */\n      dup1\n      not\n        /* \"--CODEGEN--\":295:321   */\n      swap1\n      swap3\n      and\n        /* \"--CODEGEN--\":340:361   */\n      swap2\n      and\n        /* \"--CODEGEN--\":377:397   */\n      or\n        /* \"--CODEGEN--\":365:398   */\n      swap1\n      mstore\n        /* \"Entity.sol\":10085:10102  Storage[src][des] */\n      swap3\n      add\n      swap5\n      dup6\n      mstore\n      pop\n      mload(0x40)\n      swap4\n      dup5\n      swap1\n      sub\n      dup2\n      add\n      dup5\n      keccak256\n        /* \"Entity.sol\":10085:10114  Storage[src][des].column[key] */\n      dup7\n      mload\n        /* \"Entity.sol\":10085:10102  Storage[src][des] */\n      swap1\n      swap5\n        /* \"Entity.sol\":10085:10114  Storage[src][des].column[key] */\n      dup8\n      swap5\n      pop\n        /* \"Entity.sol\":10085:10102  Storage[src][des] */\n      swap3\n      pop\n      dup3\n      swap2\n        /* \"Entity.sol\":10085:10114  Storage[src][des].column[key] */\n      dup5\n      add\n      swap1\n      dup1\n        /* \"Entity.sol\":10085:10102  Storage[src][des] */\n      dup4\n        /* \"Entity.sol\":10085:10114  Storage[src][des].column[key] */\n      dup4\n        /* \"--CODEGEN--\":36:189   */\n    tag_334:\n        /* \"--CODEGEN--\":66:68   */\n      0x20\n        /* \"--CODEGEN--\":61:64   */\n      dup4\n        /* \"--CODEGEN--\":58:69   */\n      lt\n        /* \"--CODEGEN--\":36:189   */\n      tag_336\n      jumpi\n        /* \"--CODEGEN--\":176:186   */\n      dup1\n      mload\n        /* \"--CODEGEN--\":164:187   */\n      dup3\n      mstore\n      not(0x1f)\n        /* \"--CODEGEN--\":139:151   */\n      swap1\n      swap3\n      add\n      swap2\n        /* \"--CODEGEN--\":98:100   */\n      0x20\n        /* \"--CODEGEN--\":89:101   */\n      swap2\n      dup3\n      add\n      swap2\n        /* \"--CODEGEN--\":114:126   */\n      add\n        /* \"--CODEGEN--\":36:189   */\n      jump(tag_334)\n    tag_336:\n        /* \"--CODEGEN--\":299:309   */\n      mload\n        /* \"--CODEGEN--\":344:354   */\n      dup2\n      mload\n      not(0x00)\n        /* \"--CODEGEN--\":263:265   */\n      0x20\n        /* \"--CODEGEN--\":259:271   */\n      swap5\n      dup6\n      sub\n        /* \"--CODEGEN--\":254:257   */\n      0x0100\n        /* \"--CODEGEN--\":250:272   */\n      swap1\n      dup2\n      exp\n        /* \"--CODEGEN--\":246:276   */\n      dup3\n      add\n        /* \"--CODEGEN--\":340:361   */\n      swap3\n      dup4\n      and\n        /* \"--CODEGEN--\":311:320   */\n      swap3\n      not\n        /* \"--CODEGEN--\":295:321   */\n      swap4\n      swap1\n      swap4\n      and\n        /* \"--CODEGEN--\":377:397   */\n      swap2\n      swap1\n      swap2\n      or\n        /* \"--CODEGEN--\":365:398   */\n      swap1\n      swap3\n      mstore\n        /* \"Entity.sol\":10085:10114  Storage[src][des].column[key] */\n      swap5\n      swap1\n      swap3\n      add\n      swap7\n      dup8\n      mstore\n      0x40\n      dup1\n      mload\n      swap8\n      dup9\n      swap1\n      sub\n      dup3\n      add\n      dup9\n      keccak256\n        /* \"Entity.sol\":10078:10114  return Storage[src][des].column[key] */\n      dup1\n      sload\n      0x1f\n      0x02\n        /* \"--CODEGEN--\":274:275   */\n      0x01\n        /* \"Entity.sol\":10078:10114  return Storage[src][des].column[key] */\n      dup4\n      and\n      iszero\n      swap1\n      swap9\n      mul\n      swap1\n      swap6\n      add\n      and\n      swap6\n      swap1\n      swap6\n      div\n      swap3\n      dup4\n      add\n      dup3\n      swap1\n      div\n      dup3\n      mul\n      dup9\n      add\n      dup3\n      add\n      swap1\n      mstore\n      dup2\n      dup8\n      mstore\n        /* \"Entity.sol\":10085:10114  Storage[src][des].column[key] */\n      swap3\n      swap5\n      pop\n        /* \"Entity.sol\":10078:10114  return Storage[src][des].column[key] */\n      swap3\n      pop\n      pop\n      dup4\n      add\n        /* \"Entity.sol\":10085:10114  Storage[src][des].column[key] */\n      dup3\n        /* \"Entity.sol\":10078:10114  return Storage[src][des].column[key] */\n      dup3\n      dup1\n      iszero\n      tag_337\n      jumpi\n      dup1\n      0x1f\n      lt\n      tag_338\n      jumpi\n      0x0100\n      dup1\n      dup4\n      sload\n      div\n      mul\n      dup4\n      mstore\n      swap2\n      0x20\n      add\n      swap2\n      jump(tag_337)\n    tag_338:\n      dup3\n      add\n      swap2\n      swap1\n      0x00\n      mstore\n      keccak256(0x00, 0x20)\n      swap1\n    tag_339:\n      dup2\n      sload\n      dup2\n      mstore\n      swap1\n      0x01\n      add\n      swap1\n      0x20\n      add\n      dup1\n      dup4\n      gt\n      tag_339\n      jumpi\n      dup3\n      swap1\n      sub\n      0x1f\n      and\n      dup3\n      add\n      swap2\n    tag_337:\n      pop\n      pop\n      pop\n      pop\n      pop\n      swap1\n      pop\n        /* \"Entity.sol\":9929:10122  function fetchValue(address src, string memory des, string memory key)\r... */\n      swap4\n      swap3\n      pop\n      pop\n      pop\n      jump\t// out\n        /* \"Entity.sol\":1055:1082  address[] public dataSource */\n    tag_114:\n      0x05\n      dup2\n      dup2\n      sload\n      dup2\n      lt\n      tag_340\n      jumpi\n      invalid\n    tag_340:\n      0x00\n      swap2\n      dup3\n      mstore\n      0x20\n      swap1\n      swap2\n      keccak256\n      add\n      sload\n      sub(shl(0xa0, 0x01), 0x01)\n      and\n      swap1\n      pop\n      dup2\n      jump\t// out\n        /* \"Entity.sol\":1136:1190  mapping(address=>string[]) public descriptionsBySource */\n    tag_117:\n      mstore(0x20, 0x07)\n      dup2\n      0x00\n      mstore\n      keccak256(0x00, 0x40)\n      dup2\n      dup2\n      sload\n      dup2\n      lt\n      tag_342\n      jumpi\n      invalid\n    tag_342:\n      0x00\n      swap2\n      dup3\n      mstore\n      0x20\n      swap2\n      dup3\n      swap1\n      keccak256\n      add\n      dup1\n      sload\n      0x40\n      dup1\n      mload\n      0x1f\n      0x02\n      not(0x00)\n      0x0100\n      0x01\n      dup8\n      and\n      iszero\n      mul\n      add\n      swap1\n      swap5\n      and\n      swap4\n      swap1\n      swap4\n      div\n      swap3\n      dup4\n      add\n      dup6\n      swap1\n      div\n      dup6\n      mul\n      dup2\n      add\n      dup6\n      add\n      swap1\n      swap2\n      mstore\n      dup2\n      dup2\n      mstore\n      swap5\n      pop\n      swap1\n      swap3\n      pop\n      swap1\n      dup4\n      add\n      dup3\n      dup3\n      dup1\n      iszero\n      tag_310\n      jumpi\n      dup1\n      0x1f\n      lt\n      tag_311\n      jumpi\n      0x0100\n      dup1\n      dup4\n      sload\n      div\n      mul\n      dup4\n      mstore\n      swap2\n      0x20\n      add\n      swap2\n      jump(tag_310)\n        /* \"Entity.sol\":9431:9566  function sourceLength()\r... */\n    tag_123:\n        /* \"Entity.sol\":9540:9550  dataSource */\n      0x05\n        /* \"Entity.sol\":9540:9557  dataSource.length */\n      sload\n        /* \"Entity.sol\":9431:9566  function sourceLength()\r... */\n    tag_347:\n      swap1\n      jump\t// out\n        /* \"Entity.sol\":4326:4562  function approveDataToReceive(uint32 index)\r... */\n    tag_126:\n        /* \"Entity.sol\":4460:4487  toReceiveIsConfirmed[index] */\n      0xffffffff\n      dup2\n      and\n      0x00\n      swap1\n      dup2\n      mstore\n        /* \"Entity.sol\":4460:4480  toReceiveIsConfirmed */\n      0x0a\n        /* \"Entity.sol\":4460:4487  toReceiveIsConfirmed[index] */\n      0x20\n      mstore\n      0x40\n      swap1\n      keccak256\n      sload\n        /* \"Entity.sol\":4434:4439  index */\n      dup2\n      swap1\n        /* \"Entity.sol\":4460:4487  toReceiveIsConfirmed[index] */\n      0xff\n      and\n      dup1\n        /* \"Entity.sol\":4460:4499  toReceiveIsConfirmed[index] || isSingle */\n      tag_351\n      jumpi\n      pop\n        /* \"Entity.sol\":4491:4499  isSingle */\n      and(0xff, sload(0x00))\n        /* \"Entity.sol\":4460:4499  toReceiveIsConfirmed[index] || isSingle */\n    tag_351:\n        /* \"Entity.sol\":4457:4555  if(toReceiveIsConfirmed[index] || isSingle){\r... */\n      iszero\n      tag_353\n      jumpi\n        /* \"Entity.sol\":4515:4543  _approveDataToReceive(index) */\n      tag_353\n        /* \"Entity.sol\":4537:4542  index */\n      dup3\n        /* \"Entity.sol\":4515:4536  _approveDataToReceive */\n      tag_354\n        /* \"Entity.sol\":4515:4543  _approveDataToReceive(index) */\n      jump\t// in\n    tag_353:\n        /* \"Entity.sol\":574:575  _ */\n      pop\n        /* \"Entity.sol\":4326:4562  function approveDataToReceive(uint32 index)\r... */\n      pop\n      jump\t// out\n        /* \"Entity.sol\":4796:4958  function pendingDataToReceiveCount() \r... */\n    tag_128:\n        /* \"Entity.sol\":4922:4942  pendingDataToReceive */\n      0x09\n        /* \"Entity.sol\":4922:4949  pendingDataToReceive.length */\n      sload\n        /* \"Entity.sol\":4796:4958  function pendingDataToReceiveCount() \r... */\n      swap1\n      jump\t// out\n        /* \"Entity.sol\":986:1048  mapping(address=>mapping(string=>string)) public MarkupsSender */\n    tag_134:\n      0x04\n      0x20\n      swap1\n      dup2\n      mstore\n      0x00\n      swap3\n      dup4\n      mstore\n      0x40\n      swap3\n      dup4\n      swap1\n      keccak256\n        /* \"--CODEGEN--\":22:36   */\n      dup3\n      mload\n        /* \"--CODEGEN--\":143:175   */\n      dup1\n      dup5\n      add\n      dup4\n      add\n        /* \"--CODEGEN--\":198:218   */\n      dup1\n      mload\n        /* \"--CODEGEN--\":224:255   */\n      swap3\n      dup2\n      mstore\n        /* \"--CODEGEN--\":156:174   */\n      swap1\n      dup4\n      add\n        /* \"--CODEGEN--\":283:301   */\n      swap4\n      dup4\n      add\n        /* \"--CODEGEN--\":273:322   */\n      swap4\n      swap1\n      swap4\n      keccak256\n        /* \"--CODEGEN--\":328:360   */\n      swap3\n      mstore\n        /* \"Entity.sol\":986:1048  mapping(address=>mapping(string=>string)) public MarkupsSender */\n      dup2\n      sload\n      dup4\n      mload\n      0x1f\n      0x02\n      not(0x00)\n      0x0100\n      0x01\n      dup7\n      and\n      iszero\n      mul\n      add\n      swap1\n      swap4\n      and\n      swap3\n      swap1\n      swap3\n      div\n      swap2\n      dup3\n      add\n      dup4\n      swap1\n      div\n      dup4\n      mul\n      dup2\n      add\n      dup4\n      add\n      swap1\n      swap5\n      mstore\n      dup1\n      dup5\n      mstore\n      swap1\n      dup4\n      add\n        /* \"--CODEGEN--\":273:322   */\n      dup3\n        /* \"Entity.sol\":986:1048  mapping(address=>mapping(string=>string)) public MarkupsSender */\n      dup3\n      dup1\n      iszero\n      tag_310\n      jumpi\n      dup1\n      0x1f\n      lt\n      tag_311\n      jumpi\n      0x0100\n      dup1\n      dup4\n      sload\n      div\n      mul\n      dup4\n      mstore\n      swap2\n      0x20\n      add\n      swap2\n      jump(tag_310)\n        /* \"Entity.sol\":1517:1749  function markup(address target, string memory description, string memory markup)\r... */\n    tag_147:\n        /* \"Entity.sol\":1653:1672  Entity entityTarget */\n      0x00\n        /* \"Entity.sol\":1682:1688  target */\n      dup4\n        /* \"Entity.sol\":1653:1689  Entity entityTarget = Entity(target) */\n      swap1\n      pop\n        /* \"Entity.sol\":1700:1712  entityTarget */\n      dup1\n      sub(shl(0xa0, 0x01), 0x01)\n        /* \"Entity.sol\":1700:1720  entityTarget._markup */\n      and\n      0x847b5257\n        /* \"Entity.sol\":1721:1732  description */\n      dup5\n        /* \"Entity.sol\":1734:1740  markup */\n      dup5\n        /* \"Entity.sol\":1700:1741  entityTarget._markup(description, markup) */\n      mload(0x40)\n      dup4\n      0xffffffff\n      and\n      0xe0\n      shl\n      dup2\n      mstore\n      0x04\n      add\n      dup1\n      dup1\n      0x20\n      add\n      dup1\n      0x20\n      add\n      dup4\n      dup2\n      sub\n      dup4\n      mstore\n      dup6\n      dup2\n      dup2\n      mload\n      dup2\n      mstore\n      0x20\n      add\n      swap2\n      pop\n      dup1\n      mload\n      swap1\n      0x20\n      add\n      swap1\n      dup1\n      dup4\n      dup4\n        /* \"--CODEGEN--\":23:24   */\n      0x00\n        /* \"--CODEGEN--\":8:108   */\n    tag_361:\n        /* \"--CODEGEN--\":33:36   */\n      dup4\n        /* \"--CODEGEN--\":30:31   */\n      dup2\n        /* \"--CODEGEN--\":27:37   */\n      lt\n        /* \"--CODEGEN--\":8:108   */\n      iszero\n      tag_363\n      jumpi\n        /* \"--CODEGEN--\":90:101   */\n      dup2\n      dup2\n      add\n        /* \"--CODEGEN--\":84:102   */\n      mload\n        /* \"--CODEGEN--\":71:82   */\n      dup4\n      dup3\n      add\n        /* \"--CODEGEN--\":64:103   */\n      mstore\n        /* \"--CODEGEN--\":52:54   */\n      0x20\n        /* \"--CODEGEN--\":45:55   */\n      add\n        /* \"--CODEGEN--\":8:108   */\n      jump(tag_361)\n    tag_363:\n        /* \"--CODEGEN--\":12:26   */\n      pop\n        /* \"Entity.sol\":1700:1741  entityTarget._markup(description, markup) */\n      pop\n      pop\n      pop\n      swap1\n      pop\n      swap1\n      dup2\n      add\n      swap1\n      0x1f\n      and\n      dup1\n      iszero\n      tag_364\n      jumpi\n      dup1\n      dup3\n      sub\n      dup1\n      mload\n      0x01\n      dup4\n      0x20\n      sub\n      0x0100\n      exp\n      sub\n      not\n      and\n      dup2\n      mstore\n      0x20\n      add\n      swap2\n      pop\n    tag_364:\n      pop\n      dup4\n      dup2\n      sub\n      dup3\n      mstore\n      dup5\n      mload\n      dup2\n      mstore\n      dup5\n      mload\n      0x20\n      swap2\n      dup3\n      add\n      swap2\n      dup7\n      add\n      swap1\n      dup1\n      dup4\n      dup4\n        /* \"--CODEGEN--\":23:24   */\n      0x00\n        /* \"--CODEGEN--\":8:108   */\n    tag_365:\n        /* \"--CODEGEN--\":33:36   */\n      dup4\n        /* \"--CODEGEN--\":30:31   */\n      dup2\n        /* \"--CODEGEN--\":27:37   */\n      lt\n        /* \"--CODEGEN--\":8:108   */\n      iszero\n      tag_367\n      jumpi\n        /* \"--CODEGEN--\":90:101   */\n      dup2\n      dup2\n      add\n        /* \"--CODEGEN--\":84:102   */\n      mload\n        /* \"--CODEGEN--\":71:82   */\n      dup4\n      dup3\n      add\n        /* \"--CODEGEN--\":64:103   */\n      mstore\n        /* \"--CODEGEN--\":52:54   */\n      0x20\n        /* \"--CODEGEN--\":45:55   */\n      add\n        /* \"--CODEGEN--\":8:108   */\n      jump(tag_365)\n    tag_367:\n        /* \"--CODEGEN--\":12:26   */\n      pop\n        /* \"Entity.sol\":1700:1741  entityTarget._markup(description, markup) */\n      pop\n      pop\n      pop\n      swap1\n      pop\n      swap1\n      dup2\n      add\n      swap1\n      0x1f\n      and\n      dup1\n      iszero\n      tag_368\n      jumpi\n      dup1\n      dup3\n      sub\n      dup1\n      mload\n      0x01\n      dup4\n      0x20\n      sub\n      0x0100\n      exp\n      sub\n      not\n      and\n      dup2\n      mstore\n      0x20\n      add\n      swap2\n      pop\n    tag_368:\n      pop\n      swap5\n      pop\n      pop\n      pop\n      pop\n      pop\n      0x00\n      mload(0x40)\n      dup1\n      dup4\n      sub\n      dup2\n      0x00\n      dup8\n      dup1\n      extcodesize\n      iszero\n        /* \"--CODEGEN--\":5:14   */\n      dup1\n        /* \"--CODEGEN--\":2:4   */\n      iszero\n      tag_369\n      jumpi\n        /* \"--CODEGEN--\":27:28   */\n      0x00\n        /* \"--CODEGEN--\":24:25   */\n      dup1\n        /* \"--CODEGEN--\":17:29   */\n      revert\n        /* \"--CODEGEN--\":2:4   */\n    tag_369:\n        /* \"Entity.sol\":1700:1741  entityTarget._markup(description, markup) */\n      pop\n      gas\n      call\n      iszero\n        /* \"--CODEGEN--\":8:17   */\n      dup1\n        /* \"--CODEGEN--\":5:7   */\n      iszero\n      tag_371\n      jumpi\n        /* \"--CODEGEN--\":45:61   */\n      returndatasize\n        /* \"--CODEGEN--\":42:43   */\n      0x00\n        /* \"--CODEGEN--\":39:40   */\n      dup1\n        /* \"--CODEGEN--\":24:62   */\n      returndatacopy\n        /* \"--CODEGEN--\":77:93   */\n      returndatasize\n        /* \"--CODEGEN--\":74:75   */\n      0x00\n        /* \"--CODEGEN--\":67:94   */\n      revert\n        /* \"--CODEGEN--\":5:7   */\n    tag_371:\n        /* \"Entity.sol\":1700:1741  entityTarget._markup(description, markup) */\n      pop\n      pop\n      pop\n      pop\n        /* \"Entity.sol\":574:575  _ */\n      pop\n        /* \"Entity.sol\":1517:1749  function markup(address target, string memory description, string memory markup)\r... */\n      pop\n      pop\n      pop\n      jump\t// out\n        /* \"Entity.sol\":4970:5148  function dataSizeToReceive(uint32 index) \r... */\n    tag_150:\n        /* \"Entity.sol\":5062:5068  uint32 */\n      0x00\n        /* \"Entity.sol\":5101:5121  pendingDataToReceive */\n      0x09\n        /* \"Entity.sol\":5122:5127  index */\n      dup3\n        /* \"Entity.sol\":5101:5128  pendingDataToReceive[index] */\n      0xffffffff\n      and\n      dup2\n      sload\n      dup2\n      lt\n      tag_373\n      jumpi\n      invalid\n    tag_373:\n      0x00\n      swap2\n      dup3\n      mstore\n      0x20\n      swap1\n      swap2\n      keccak256\n        /* \"Entity.sol\":5101:5132  pendingDataToReceive[index].key */\n      0x03\n        /* \"Entity.sol\":5101:5128  pendingDataToReceive[index] */\n      0x06\n      swap1\n      swap3\n      mul\n      add\n        /* \"Entity.sol\":5101:5132  pendingDataToReceive[index].key */\n      add\n        /* \"Entity.sol\":5101:5139  pendingDataToReceive[index].key.length */\n      sload\n      swap3\n        /* \"Entity.sol\":4970:5148  function dataSizeToReceive(uint32 index) \r... */\n      swap2\n      pop\n      pop\n      jump\t// out\n        /* \"Entity.sol\":7782:8324  function approveDataToSend(uint32 index) \r... */\n    tag_153:\n        /* \"Entity.sol\":7889:7906  pendingDataToSend */\n      0x0b\n        /* \"Entity.sol\":7907:7912  index */\n      dup2\n        /* \"Entity.sol\":7889:7913  pendingDataToSend[index] */\n      0xffffffff\n      and\n      dup2\n      sload\n      dup2\n      lt\n      tag_377\n      jumpi\n      invalid\n    tag_377:\n      0x00\n      swap2\n      dup3\n      mstore\n      0x20\n      swap1\n      swap2\n      keccak256\n        /* \"Entity.sol\":7889:7922  pendingDataToSend[index].approved */\n      0x05\n        /* \"Entity.sol\":7889:7913  pendingDataToSend[index] */\n      0x06\n      swap1\n      swap3\n      mul\n      add\n        /* \"Entity.sol\":7889:7922  pendingDataToSend[index].approved */\n      add\n      sload\n      0xff\n      and\n        /* \"Entity.sol\":7888:7922  !pendingDataToSend[index].approved */\n      iszero\n        /* \"Entity.sol\":7880:7923  require(!pendingDataToSend[index].approved) */\n      tag_379\n      jumpi\n        /* \"--CODEGEN--\":12:13   */\n      0x00\n        /* \"--CODEGEN--\":9:10   */\n      dup1\n        /* \"--CODEGEN--\":2:14   */\n      revert\n        /* \"Entity.sol\":7880:7923  require(!pendingDataToSend[index].approved) */\n    tag_379:\n        /* \"Entity.sol\":7934:7949  Entity receiver */\n      0x00\n        /* \"Entity.sol\":7959:7976  pendingDataToSend */\n      0x0b\n        /* \"Entity.sol\":7977:7982  index */\n      dup3\n        /* \"Entity.sol\":7959:7983  pendingDataToSend[index] */\n      0xffffffff\n      and\n      dup2\n      sload\n      dup2\n      lt\n      tag_380\n      jumpi\n      invalid\n    tag_380:\n      0x00\n      swap2\n      dup3\n      mstore\n      0x20\n      dup3\n      keccak256\n        /* \"Entity.sol\":7959:7995  pendingDataToSend[index].destination */\n      0x01\n        /* \"Entity.sol\":7959:7983  pendingDataToSend[index] */\n      0x06\n      swap1\n      swap3\n      mul\n      add\n        /* \"Entity.sol\":7959:7995  pendingDataToSend[index].destination */\n      add\n      sload\n        /* \"Entity.sol\":8038:8055  pendingDataToSend */\n      0x0b\n        /* \"Entity.sol\":8038:8062  pendingDataToSend[index] */\n      dup1\n      sload\n      sub(shl(0xa0, 0x01), 0x01)\n        /* \"Entity.sol\":7959:7995  pendingDataToSend[index].destination */\n      swap1\n      swap3\n      and\n      swap4\n      pop\n      dup4\n      swap2\n        /* \"Entity.sol\":8020:8037  receiver._newData */\n      0xc09bc35b\n      swap2\n        /* \"Entity.sol\":8038:8055  pendingDataToSend */\n      swap1\n        /* \"Entity.sol\":8038:8062  pendingDataToSend[index] */\n      0xffffffff\n      dup8\n      and\n      swap1\n      dup2\n      lt\n      tag_382\n      jumpi\n      invalid\n    tag_382:\n      0x00\n      swap2\n      dup3\n      mstore\n      0x20\n      swap2\n      dup3\n      swap1\n      keccak256\n        /* \"Entity.sol\":8020:8075  receiver._newData(pendingDataToSend[index].description) */\n      mload(0x40)\n      not(sub(shl(0xe0, 0x01), 0x01))\n      0xe0\n      dup7\n      swap1\n      shl\n      and\n      dup2\n      mstore\n      0x04\n      dup2\n      add\n      swap4\n      dup5\n      mstore\n        /* \"Entity.sol\":8038:8074  pendingDataToSend[index].description */\n      0x02\n        /* \"Entity.sol\":8038:8062  pendingDataToSend[index] */\n      0x06\n      swap1\n      swap4\n      mul\n      swap1\n      swap2\n      add\n        /* \"Entity.sol\":8038:8074  pendingDataToSend[index].description */\n      dup3\n      add\n        /* \"Entity.sol\":8020:8075  receiver._newData(pendingDataToSend[index].description) */\n      dup1\n      sload\n      not(0x00)\n      0x0100\n      0x01\n      dup4\n      and\n      iszero\n      mul\n      add\n      and\n      swap3\n      swap1\n      swap3\n      div\n      0x24\n      dup3\n      add\n      dup2\n      swap1\n      mstore\n        /* \"Entity.sol\":8038:8074  pendingDataToSend[index].description */\n      swap2\n      swap3\n        /* \"Entity.sol\":8020:8075  receiver._newData(pendingDataToSend[index].description) */\n      swap2\n      dup3\n      swap2\n      0x44\n      add\n      swap1\n        /* \"Entity.sol\":8038:8074  pendingDataToSend[index].description */\n      dup5\n      swap1\n        /* \"Entity.sol\":8020:8075  receiver._newData(pendingDataToSend[index].description) */\n      dup1\n      iszero\n      tag_384\n      jumpi\n      dup1\n      0x1f\n      lt\n      tag_385\n      jumpi\n      0x0100\n      dup1\n      dup4\n      sload\n      div\n      mul\n      dup4\n      mstore\n      swap2\n      0x20\n      add\n      swap2\n      jump(tag_384)\n    tag_385:\n      dup3\n      add\n      swap2\n      swap1\n      0x00\n      mstore\n      keccak256(0x00, 0x20)\n      swap1\n    tag_386:\n      dup2\n      sload\n      dup2\n      mstore\n      swap1\n      0x01\n      add\n      swap1\n      0x20\n      add\n      dup1\n      dup4\n      gt\n      tag_386\n      jumpi\n      dup3\n      swap1\n      sub\n      0x1f\n      and\n      dup3\n      add\n      swap2\n    tag_384:\n      pop\n      pop\n      swap3\n      pop\n      pop\n      pop\n      0x20\n      mload(0x40)\n      dup1\n      dup4\n      sub\n      dup2\n      0x00\n      dup8\n      dup1\n      extcodesize\n      iszero\n        /* \"--CODEGEN--\":5:14   */\n      dup1\n        /* \"--CODEGEN--\":2:4   */\n      iszero\n      tag_387\n      jumpi\n        /* \"--CODEGEN--\":27:28   */\n      0x00\n        /* \"--CODEGEN--\":24:25   */\n      dup1\n        /* \"--CODEGEN--\":17:29   */\n      revert\n        /* \"--CODEGEN--\":2:4   */\n    tag_387:\n        /* \"Entity.sol\":8020:8075  receiver._newData(pendingDataToSend[index].description) */\n      pop\n      gas\n      call\n      iszero\n        /* \"--CODEGEN--\":8:17   */\n      dup1\n        /* \"--CODEGEN--\":5:7   */\n      iszero\n      tag_389\n      jumpi\n        /* \"--CODEGEN--\":45:61   */\n      returndatasize\n        /* \"--CODEGEN--\":42:43   */\n      0x00\n        /* \"--CODEGEN--\":39:40   */\n      dup1\n        /* \"--CODEGEN--\":24:62   */\n      returndatacopy\n        /* \"--CODEGEN--\":77:93   */\n      returndatasize\n        /* \"--CODEGEN--\":74:75   */\n      0x00\n        /* \"--CODEGEN--\":67:94   */\n      revert\n        /* \"--CODEGEN--\":5:7   */\n    tag_389:\n        /* \"Entity.sol\":8020:8075  receiver._newData(pendingDataToSend[index].description) */\n      pop\n      pop\n      pop\n      pop\n      mload(0x40)\n      returndatasize\n        /* \"--CODEGEN--\":15:17   */\n      0x20\n        /* \"--CODEGEN--\":10:13   */\n      dup2\n        /* \"--CODEGEN--\":7:18   */\n      lt\n        /* \"--CODEGEN--\":4:6   */\n      iszero\n      tag_390\n      jumpi\n        /* \"--CODEGEN--\":31:32   */\n      0x00\n        /* \"--CODEGEN--\":28:29   */\n      dup1\n        /* \"--CODEGEN--\":21:33   */\n      revert\n        /* \"--CODEGEN--\":4:6   */\n    tag_390:\n      pop\n        /* \"Entity.sol\":8020:8075  receiver._newData(pendingDataToSend[index].description) */\n      mload\n      swap1\n      pop\n        /* \"Entity.sol\":8090:8098  uint32 i */\n      0x00\n        /* \"Entity.sol\":8086:8266  for(uint32 i=0; i<pendingDataToSend[index].key.length; i++){\r... */\n    tag_391:\n        /* \"Entity.sol\":8104:8121  pendingDataToSend */\n      0x0b\n        /* \"Entity.sol\":8122:8127  index */\n      dup5\n        /* \"Entity.sol\":8104:8128  pendingDataToSend[index] */\n      0xffffffff\n      and\n      dup2\n      sload\n      dup2\n      lt\n      tag_394\n      jumpi\n      invalid\n    tag_394:\n      swap1\n      0x00\n      mstore\n      keccak256(0x00, 0x20)\n      swap1\n      0x06\n      mul\n      add\n        /* \"Entity.sol\":8104:8132  pendingDataToSend[index].key */\n      0x03\n      add\n        /* \"Entity.sol\":8104:8139  pendingDataToSend[index].key.length */\n      dup1\n      sload\n      swap1\n      pop\n        /* \"Entity.sol\":8102:8103  i */\n      dup2\n        /* \"Entity.sol\":8102:8139  i<pendingDataToSend[index].key.length */\n      0xffffffff\n      and\n      lt\n        /* \"Entity.sol\":8086:8266  for(uint32 i=0; i<pendingDataToSend[index].key.length; i++){\r... */\n      iszero\n      tag_392\n      jumpi\n        /* \"Entity.sol\":8160:8168  receiver */\n      dup3\n      sub(shl(0xa0, 0x01), 0x01)\n        /* \"Entity.sol\":8160:8181  receiver._receiveData */\n      and\n      0x928ec3e5\n        /* \"Entity.sol\":8182:8199  pendingDataToSend */\n      0x0b\n        /* \"Entity.sol\":8200:8205  index */\n      dup7\n        /* \"Entity.sol\":8182:8206  pendingDataToSend[index] */\n      0xffffffff\n      and\n      dup2\n      sload\n      dup2\n      lt\n      tag_396\n      jumpi\n      invalid\n    tag_396:\n      swap1\n      0x00\n      mstore\n      keccak256(0x00, 0x20)\n      swap1\n      0x06\n      mul\n      add\n        /* \"Entity.sol\":8182:8210  pendingDataToSend[index].key */\n      0x03\n      add\n        /* \"Entity.sol\":8211:8212  i */\n      dup4\n        /* \"Entity.sol\":8182:8213  pendingDataToSend[index].key[i] */\n      0xffffffff\n      and\n      dup2\n      sload\n      dup2\n      lt\n      tag_398\n      jumpi\n      invalid\n    tag_398:\n      swap1\n      0x00\n      mstore\n      keccak256(0x00, 0x20)\n      add\n        /* \"Entity.sol\":8215:8232  pendingDataToSend */\n      0x0b\n        /* \"Entity.sol\":8233:8238  index */\n      dup8\n        /* \"Entity.sol\":8215:8239  pendingDataToSend[index] */\n      0xffffffff\n      and\n      dup2\n      sload\n      dup2\n      lt\n      tag_400\n      jumpi\n      invalid\n    tag_400:\n      swap1\n      0x00\n      mstore\n      keccak256(0x00, 0x20)\n      swap1\n      0x06\n      mul\n      add\n        /* \"Entity.sol\":8215:8245  pendingDataToSend[index].value */\n      0x04\n      add\n        /* \"Entity.sol\":8246:8247  i */\n      dup5\n        /* \"Entity.sol\":8215:8248  pendingDataToSend[index].value[i] */\n      0xffffffff\n      and\n      dup2\n      sload\n      dup2\n      lt\n      tag_402\n      jumpi\n      invalid\n    tag_402:\n      0x00\n      swap2\n      dup3\n      mstore\n      0x20\n      swap1\n      swap2\n      keccak256\n        /* \"Entity.sol\":8160:8254  receiver._receiveData(pendingDataToSend[index].key[i], pendingDataToSend[index].value[i], idx) */\n      mload(0x40)\n      not(sub(shl(0xe0, 0x01), 0x01))\n      0xe0\n      dup7\n      swap1\n      shl\n      and\n      dup2\n      mstore\n      0xffffffff\n      dup9\n      and\n      0x44\n      dup3\n      add\n      mstore\n      0x60\n      0x04\n      dup3\n      add\n      swap1\n      dup2\n      mstore\n      dup5\n      sload\n      0x02\n      not(0x00)\n      0x0100\n      0x01\n      dup5\n      and\n      iszero\n      mul\n      add\n      swap1\n      swap2\n      and\n      div\n      0x64\n      dup4\n      add\n      dup2\n      swap1\n      mstore\n        /* \"Entity.sol\":8215:8248  pendingDataToSend[index].value[i] */\n      swap3\n      swap1\n      swap4\n      add\n      swap3\n        /* \"Entity.sol\":8250:8253  idx */\n      dup9\n      swap3\n        /* \"Entity.sol\":8160:8254  receiver._receiveData(pendingDataToSend[index].key[i], pendingDataToSend[index].value[i], idx) */\n      swap1\n      swap2\n      dup3\n      swap2\n      0x24\n      dup3\n      add\n      swap2\n      0x84\n      add\n      swap1\n      dup8\n      swap1\n      dup1\n      iszero\n      tag_404\n      jumpi\n      dup1\n      0x1f\n      lt\n      tag_405\n      jumpi\n      0x0100\n      dup1\n      dup4\n      sload\n      div\n      mul\n      dup4\n      mstore\n      swap2\n      0x20\n      add\n      swap2\n      jump(tag_404)\n    tag_405:\n      dup3\n      add\n      swap2\n      swap1\n      0x00\n      mstore\n      keccak256(0x00, 0x20)\n      swap1\n    tag_406:\n      dup2\n      sload\n      dup2\n      mstore\n      swap1\n      0x01\n      add\n      swap1\n      0x20\n      add\n      dup1\n      dup4\n      gt\n      tag_406\n      jumpi\n      dup3\n      swap1\n      sub\n      0x1f\n      and\n      dup3\n      add\n      swap2\n    tag_404:\n      pop\n      pop\n      dup4\n      dup2\n      sub\n      dup3\n      mstore\n      dup6\n      sload\n      0x02\n      not(0x00)\n      0x0100\n      0x01\n      dup5\n      and\n      iszero\n      mul\n      add\n      swap1\n      swap2\n      and\n      div\n      dup1\n      dup3\n      mstore\n      0x20\n      swap1\n      swap2\n      add\n      swap1\n      dup7\n      swap1\n      dup1\n      iszero\n      tag_407\n      jumpi\n      dup1\n      0x1f\n      lt\n      tag_408\n      jumpi\n      0x0100\n      dup1\n      dup4\n      sload\n      div\n      mul\n      dup4\n      mstore\n      swap2\n      0x20\n      add\n      swap2\n      jump(tag_407)\n    tag_408:\n      dup3\n      add\n      swap2\n      swap1\n      0x00\n      mstore\n      keccak256(0x00, 0x20)\n      swap1\n    tag_409:\n      dup2\n      sload\n      dup2\n      mstore\n      swap1\n      0x01\n      add\n      swap1\n      0x20\n      add\n      dup1\n      dup4\n      gt\n      tag_409\n      jumpi\n      dup3\n      swap1\n      sub\n      0x1f\n      and\n      dup3\n      add\n      swap2\n    tag_407:\n      pop\n      pop\n      swap6\n      pop\n      pop\n      pop\n      pop\n      pop\n      pop\n      0x00\n      mload(0x40)\n      dup1\n      dup4\n      sub\n      dup2\n      0x00\n      dup8\n      dup1\n      extcodesize\n      iszero\n        /* \"--CODEGEN--\":5:14   */\n      dup1\n        /* \"--CODEGEN--\":2:4   */\n      iszero\n      tag_410\n      jumpi\n        /* \"--CODEGEN--\":27:28   */\n      0x00\n        /* \"--CODEGEN--\":24:25   */\n      dup1\n        /* \"--CODEGEN--\":17:29   */\n      revert\n        /* \"--CODEGEN--\":2:4   */\n    tag_410:\n        /* \"Entity.sol\":8160:8254  receiver._receiveData(pendingDataToSend[index].key[i], pendingDataToSend[index].value[i], idx) */\n      pop\n      gas\n      call\n      iszero\n        /* \"--CODEGEN--\":8:17   */\n      dup1\n        /* \"--CODEGEN--\":5:7   */\n      iszero\n      tag_412\n      jumpi\n        /* \"--CODEGEN--\":45:61   */\n      returndatasize\n        /* \"--CODEGEN--\":42:43   */\n      0x00\n        /* \"--CODEGEN--\":39:40   */\n      dup1\n        /* \"--CODEGEN--\":24:62   */\n      returndatacopy\n        /* \"--CODEGEN--\":77:93   */\n      returndatasize\n        /* \"--CODEGEN--\":74:75   */\n      0x00\n        /* \"--CODEGEN--\":67:94   */\n      revert\n        /* \"--CODEGEN--\":5:7   */\n    tag_412:\n      pop\n      pop\n        /* \"Entity.sol\":8141:8144  i++ */\n      0x01\n      swap1\n      swap3\n      add\n      swap2\n      pop\n        /* \"Entity.sol\":8086:8266  for(uint32 i=0; i<pendingDataToSend[index].key.length; i++){\r... */\n      tag_391\n      swap1\n      pop\n      jump\n    tag_392:\n      pop\n        /* \"Entity.sol\":8312:8316  true */\n      0x01\n        /* \"Entity.sol\":8276:8293  pendingDataToSend */\n      0x0b\n        /* \"Entity.sol\":8294:8299  index */\n      dup5\n        /* \"Entity.sol\":8276:8300  pendingDataToSend[index] */\n      0xffffffff\n      and\n      dup2\n      sload\n      dup2\n      lt\n      tag_413\n      jumpi\n      invalid\n    tag_413:\n      0x00\n      swap2\n      dup3\n      mstore\n      0x20\n      swap1\n      swap2\n      keccak256\n      0x06\n      swap1\n      swap2\n      mul\n      add\n        /* \"Entity.sol\":8276:8309  pendingDataToSend[index].approved */\n      0x05\n      add\n        /* \"Entity.sol\":8276:8316  pendingDataToSend[index].approved = true */\n      dup1\n      sload\n      not(0xff)\n      and\n      swap2\n      iszero\n      iszero\n      swap2\n      swap1\n      swap2\n      or\n      swap1\n      sstore\n      pop\n      pop\n      pop\n        /* \"Entity.sol\":7782:8324  function approveDataToSend(uint32 index) \r... */\n      jump\t// out\n        /* \"Entity.sol\":1757:1979  function _markup(string calldata description, string calldata markup)\r... */\n    tag_162:\n        /* \"Entity.sol\":1888:1898  msg.sender */\n      caller\n        /* \"Entity.sol\":1869:1899  writtenDescription[msg.sender] */\n      0x00\n      swap1\n      dup2\n      mstore\n        /* \"Entity.sol\":1869:1887  writtenDescription */\n      0x08\n        /* \"Entity.sol\":1869:1899  writtenDescription[msg.sender] */\n      0x20\n      mstore\n      0x40\n      swap1\n      dup2\n      swap1\n      keccak256\n        /* \"Entity.sol\":1869:1912  writtenDescription[msg.sender][description] */\n      swap1\n      mload\n        /* \"Entity.sol\":1900:1911  description */\n      dup6\n      swap1\n      dup6\n      swap1\n        /* \"Entity.sol\":1869:1912  writtenDescription[msg.sender][description] */\n      dup1\n        /* \"Entity.sol\":1900:1911  description */\n      dup4\n      dup4\n      dup1\n      dup3\n        /* \"Entity.sol\":1869:1912  writtenDescription[msg.sender][description] */\n      dup5\n        /* \"--CODEGEN--\":1:34   */\n      calldatacopy\n        /* \"--CODEGEN--\":45:61   */\n      swap2\n      swap1\n      swap2\n      add\n        /* \"Entity.sol\":1869:1912  writtenDescription[msg.sender][description] */\n      swap5\n      dup6\n      mstore\n      pop\n      pop\n      mload(0x40)\n      swap3\n      dup4\n      swap1\n      sub\n      0x20\n      add\n      swap1\n      swap3\n      keccak256\n      sload\n      0xff\n      and\n      swap2\n      pop\n        /* \"Entity.sol\":1861:1913  require(writtenDescription[msg.sender][description]) */\n      tag_416\n      swap1\n      pop\n      jumpi\n        /* \"--CODEGEN--\":12:13   */\n      0x00\n        /* \"--CODEGEN--\":9:10   */\n      dup1\n        /* \"--CODEGEN--\":2:14   */\n      revert\n        /* \"Entity.sol\":1861:1913  require(writtenDescription[msg.sender][description]) */\n    tag_416:\n        /* \"Entity.sol\":1938:1948  msg.sender */\n      caller\n        /* \"Entity.sol\":1924:1949  MarkupsSender[msg.sender] */\n      0x00\n      swap1\n      dup2\n      mstore\n        /* \"Entity.sol\":1924:1937  MarkupsSender */\n      0x04\n        /* \"Entity.sol\":1924:1949  MarkupsSender[msg.sender] */\n      0x20\n      mstore\n      0x40\n      swap1\n      dup2\n      swap1\n      keccak256\n        /* \"Entity.sol\":1924:1962  MarkupsSender[msg.sender][description] */\n      swap1\n      mload\n        /* \"Entity.sol\":1965:1971  markup */\n      dup4\n      swap2\n      dup4\n      swap2\n        /* \"Entity.sol\":1950:1961  description */\n      dup8\n      swap1\n      dup8\n      swap1\n        /* \"Entity.sol\":1924:1962  MarkupsSender[msg.sender][description] */\n      dup1\n        /* \"Entity.sol\":1950:1961  description */\n      dup4\n      dup4\n      dup1\n      dup3\n        /* \"Entity.sol\":1924:1962  MarkupsSender[msg.sender][description] */\n      dup5\n        /* \"--CODEGEN--\":1:34   */\n      calldatacopy\n        /* \"--CODEGEN--\":57:60   */\n      dup1\n        /* \"--CODEGEN--\":49:55   */\n      dup4\n        /* \"--CODEGEN--\":45:61   */\n      add\n        /* \"--CODEGEN--\":35:61   */\n      swap3\n      pop\n        /* \"Entity.sol\":1924:1962  MarkupsSender[msg.sender][description] */\n      pop\n      pop\n      swap3\n      pop\n      pop\n      pop\n      swap1\n      dup2\n      mstore\n      0x20\n      add\n      mload(0x40)\n      dup1\n      swap2\n      sub\n      swap1\n      keccak256\n        /* \"Entity.sol\":1924:1971  MarkupsSender[msg.sender][description] = markup */\n      swap2\n      swap1\n      tag_417\n      swap3\n      swap2\n      swap1\n      tag_418\n      jump\t// in\n    tag_417:\n      pop\n        /* \"Entity.sol\":1757:1979  function _markup(string calldata description, string calldata markup)\r... */\n      pop\n      pop\n      pop\n      pop\n      jump\t// out\n        /* \"Entity.sol\":692:728  bool constant public isEntity = true */\n    tag_164:\n        /* \"Entity.sol\":724:728  true */\n      0x01\n        /* \"Entity.sol\":692:728  bool constant public isEntity = true */\n      dup2\n      jump\t// out\n        /* \"Entity.sol\":1987:2236  function markupSelf(address sender, string memory description, string memory markup)\r... */\n    tag_173:\n        /* \"Entity.sol\":2135:2153  writtenDescription */\n      0x08\n        /* \"Entity.sol\":2135:2161  writtenDescription[sender] */\n      0x00\n        /* \"Entity.sol\":2154:2160  sender */\n      dup5\n      sub(shl(0xa0, 0x01), 0x01)\n        /* \"Entity.sol\":2135:2161  writtenDescription[sender] */\n      and\n      sub(shl(0xa0, 0x01), 0x01)\n      and\n      dup2\n      mstore\n      0x20\n      add\n      swap1\n      dup2\n      mstore\n      0x20\n      add\n      0x00\n      keccak256\n        /* \"Entity.sol\":2162:2173  description */\n      dup3\n        /* \"Entity.sol\":2135:2174  writtenDescription[sender][description] */\n      mload(0x40)\n      dup1\n      dup3\n      dup1\n      mload\n      swap1\n      0x20\n      add\n      swap1\n      dup1\n      dup4\n      dup4\n        /* \"--CODEGEN--\":36:189   */\n    tag_421:\n        /* \"--CODEGEN--\":66:68   */\n      0x20\n        /* \"--CODEGEN--\":61:64   */\n      dup4\n        /* \"--CODEGEN--\":58:69   */\n      lt\n        /* \"--CODEGEN--\":36:189   */\n      tag_423\n      jumpi\n        /* \"--CODEGEN--\":176:186   */\n      dup1\n      mload\n        /* \"--CODEGEN--\":164:187   */\n      dup3\n      mstore\n      not(0x1f)\n        /* \"--CODEGEN--\":139:151   */\n      swap1\n      swap3\n      add\n      swap2\n        /* \"--CODEGEN--\":98:100   */\n      0x20\n        /* \"--CODEGEN--\":89:101   */\n      swap2\n      dup3\n      add\n      swap2\n        /* \"--CODEGEN--\":114:126   */\n      add\n        /* \"--CODEGEN--\":36:189   */\n      jump(tag_421)\n    tag_423:\n        /* \"--CODEGEN--\":299:309   */\n      mload\n        /* \"--CODEGEN--\":344:354   */\n      dup2\n      mload\n        /* \"--CODEGEN--\":263:265   */\n      0x20\n        /* \"--CODEGEN--\":259:271   */\n      swap4\n      dup5\n      sub\n        /* \"--CODEGEN--\":254:257   */\n      0x0100\n        /* \"--CODEGEN--\":250:272   */\n      exp\n      not(0x00)\n        /* \"--CODEGEN--\":246:276   */\n      add\n        /* \"--CODEGEN--\":311:320   */\n      dup1\n      not\n        /* \"--CODEGEN--\":295:321   */\n      swap1\n      swap3\n      and\n        /* \"--CODEGEN--\":340:361   */\n      swap2\n      and\n        /* \"--CODEGEN--\":377:397   */\n      or\n        /* \"--CODEGEN--\":365:398   */\n      swap1\n      mstore\n        /* \"Entity.sol\":2135:2174  writtenDescription[sender][description] */\n      swap3\n      add\n      swap5\n      dup6\n      mstore\n      pop\n      mload(0x40)\n      swap4\n      dup5\n      swap1\n      sub\n      add\n      swap1\n      swap3\n      keccak256\n      sload\n      0xff\n      and\n      swap2\n      pop\n        /* \"Entity.sol\":2127:2175  require(writtenDescription[sender][description]) */\n      tag_424\n      swap1\n      pop\n      jumpi\n        /* \"--CODEGEN--\":12:13   */\n      0x00\n        /* \"--CODEGEN--\":9:10   */\n      dup1\n        /* \"--CODEGEN--\":2:14   */\n      revert\n        /* \"Entity.sol\":2127:2175  require(writtenDescription[sender][description]) */\n    tag_424:\n        /* \"Entity.sol\":2222:2228  markup */\n      dup1\n        /* \"Entity.sol\":2186:2198  MarkupsOwner */\n      0x03\n        /* \"Entity.sol\":2186:2206  MarkupsOwner[sender] */\n      0x00\n        /* \"Entity.sol\":2199:2205  sender */\n      dup6\n      sub(shl(0xa0, 0x01), 0x01)\n        /* \"Entity.sol\":2186:2206  MarkupsOwner[sender] */\n      and\n      sub(shl(0xa0, 0x01), 0x01)\n      and\n      dup2\n      mstore\n      0x20\n      add\n      swap1\n      dup2\n      mstore\n      0x20\n      add\n      0x00\n      keccak256\n        /* \"Entity.sol\":2207:2218  description */\n      dup4\n        /* \"Entity.sol\":2186:2219  MarkupsOwner[sender][description] */\n      mload(0x40)\n      dup1\n      dup3\n      dup1\n      mload\n      swap1\n      0x20\n      add\n      swap1\n      dup1\n      dup4\n      dup4\n        /* \"--CODEGEN--\":36:189   */\n    tag_425:\n        /* \"--CODEGEN--\":66:68   */\n      0x20\n        /* \"--CODEGEN--\":61:64   */\n      dup4\n        /* \"--CODEGEN--\":58:69   */\n      lt\n        /* \"--CODEGEN--\":36:189   */\n      tag_427\n      jumpi\n        /* \"--CODEGEN--\":176:186   */\n      dup1\n      mload\n        /* \"--CODEGEN--\":164:187   */\n      dup3\n      mstore\n      not(0x1f)\n        /* \"--CODEGEN--\":139:151   */\n      swap1\n      swap3\n      add\n      swap2\n        /* \"--CODEGEN--\":98:100   */\n      0x20\n        /* \"--CODEGEN--\":89:101   */\n      swap2\n      dup3\n      add\n      swap2\n        /* \"--CODEGEN--\":114:126   */\n      add\n        /* \"--CODEGEN--\":36:189   */\n      jump(tag_425)\n    tag_427:\n        /* \"--CODEGEN--\":299:309   */\n      mload\n        /* \"--CODEGEN--\":344:354   */\n      dup2\n      mload\n        /* \"--CODEGEN--\":263:265   */\n      0x20\n        /* \"--CODEGEN--\":259:271   */\n      swap4\n      dup5\n      sub\n        /* \"--CODEGEN--\":254:257   */\n      0x0100\n        /* \"--CODEGEN--\":250:272   */\n      exp\n      not(0x00)\n        /* \"--CODEGEN--\":246:276   */\n      add\n        /* \"--CODEGEN--\":311:320   */\n      dup1\n      not\n        /* \"--CODEGEN--\":295:321   */\n      swap1\n      swap3\n      and\n        /* \"--CODEGEN--\":340:361   */\n      swap2\n      and\n        /* \"--CODEGEN--\":377:397   */\n      or\n        /* \"--CODEGEN--\":365:398   */\n      swap1\n      mstore\n        /* \"Entity.sol\":2186:2219  MarkupsOwner[sender][description] */\n      swap3\n      add\n      swap5\n      dup6\n      mstore\n      pop\n      mload(0x40)\n      swap4\n      dup5\n      swap1\n      sub\n      dup2\n      add\n      swap1\n      swap4\n      keccak256\n        /* \"Entity.sol\":2186:2228  MarkupsOwner[sender][description] = markup */\n      dup5\n      mload\n      tag_428\n      swap6\n        /* \"Entity.sol\":2186:2219  MarkupsOwner[sender][description] */\n      swap2\n      swap5\n        /* \"Entity.sol\":2186:2228  MarkupsOwner[sender][description] = markup */\n      swap2\n      swap1\n      swap2\n      add\n      swap3\n      pop\n      swap1\n      pop\n      tag_429\n      jump\t// in\n    tag_428:\n      pop\n        /* \"Entity.sol\":1987:2236  function markupSelf(address sender, string memory description, string memory markup)\r... */\n      pop\n      pop\n      pop\n      jump\t// out\n        /* \"Entity.sol\":5463:6875  function newDataToSend(address _receiver, string memory _description, string memory _key, string memory _value, bool direct) \r... */\n    tag_185:\n        /* \"Entity.sol\":5645:5671  pendingData memory newData */\n      tag_432\n      tag_433\n      jump\t// in\n    tag_432:\n      sub(shl(0xa0, 0x01), 0x01)\n        /* \"Entity.sol\":5682:5713  newData.destination = _receiver */\n      dup7\n      and\n        /* \"Entity.sol\":5682:5701  newData.destination */\n      0x20\n      dup3\n      dup2\n      add\n        /* \"Entity.sol\":5682:5713  newData.destination = _receiver */\n      dup3\n      swap1\n      mstore\n        /* \"Entity.sol\":5724:5743  newData.description */\n      0x40\n      dup1\n      dup5\n      add\n        /* \"Entity.sol\":5724:5758  newData.description = _description */\n      dup9\n      swap1\n      mstore\n      0x00\n        /* \"Entity.sol\":5769:5785  newData.approved */\n      0xa0\n      dup6\n      add\n        /* \"Entity.sol\":5769:5793  newData.approved = false */\n      dup2\n      swap1\n      mstore\n        /* \"Entity.sol\":5843:5860  pendingDataToSend */\n      0x0b\n        /* \"Entity.sol\":5843:5867  pendingDataToSend.length */\n      sload\n        /* \"Entity.sol\":5804:5833  recentSendingIndex[_receiver] */\n      swap4\n      dup2\n      mstore\n        /* \"Entity.sol\":5769:5793  newData.approved = false */\n      0x01\n        /* \"Entity.sol\":5804:5833  recentSendingIndex[_receiver] */\n      swap1\n      swap3\n      mstore\n      swap1\n      keccak256\n        /* \"Entity.sol\":5804:5868  recentSendingIndex[_receiver] = uint32(pendingDataToSend.length) */\n      dup1\n      sload\n      not(0xffffffff)\n      and\n      0xffffffff\n      swap1\n      swap3\n      and\n      swap2\n      swap1\n      swap2\n      or\n      swap1\n      sstore\n        /* \"Entity.sol\":5881:5906  strings.slice memory keys */\n      tag_434\n      tag_435\n      jump\t// in\n    tag_434:\n        /* \"Entity.sol\":5909:5923  _key.toSlice() */\n      tag_436\n        /* \"Entity.sol\":5909:5913  _key */\n      dup6\n        /* \"Entity.sol\":5909:5921  _key.toSlice */\n      tag_437\n        /* \"Entity.sol\":5909:5923  _key.toSlice() */\n      jump\t// in\n    tag_436:\n        /* \"Entity.sol\":5881:5923  strings.slice memory keys = _key.toSlice() */\n      swap1\n      pop\n        /* \"Entity.sol\":5934:5961  strings.slice memory values */\n      tag_438\n      tag_435\n      jump\t// in\n    tag_438:\n        /* \"Entity.sol\":5964:5980  _value.toSlice() */\n      tag_439\n        /* \"Entity.sol\":5964:5970  _value */\n      dup6\n        /* \"Entity.sol\":5964:5978  _value.toSlice */\n      tag_437\n        /* \"Entity.sol\":5964:5980  _value.toSlice() */\n      jump\t// in\n    tag_439:\n        /* \"Entity.sol\":5934:5980  strings.slice memory values = _value.toSlice() */\n      swap1\n      pop\n        /* \"Entity.sol\":5991:6018  strings.slice memory deKeys */\n      tag_440\n      tag_435\n      jump\t// in\n    tag_440:\n        /* \"Entity.sol\":6021:6034  \",\".toSlice() */\n      tag_441\n        /* \"Entity.sol\":6021:6032  \",\".toSlice */\n      mload(0x40)\n      dup1\n      0x40\n      add\n      0x40\n      mstore\n      dup1\n      0x01\n      dup2\n      mstore\n      0x20\n      add\n      shl(0xfa, 0x0b)\n      dup2\n      mstore\n      pop\n      tag_437\n        /* \"Entity.sol\":6021:6034  \",\".toSlice() */\n      jump\t// in\n    tag_441:\n        /* \"Entity.sol\":5991:6034  strings.slice memory deKeys = \",\".toSlice() */\n      swap1\n      pop\n        /* \"Entity.sol\":6191:6203  uint32 count */\n      0x00\n        /* \"Entity.sol\":6213:6231  keys.count(deKeys) */\n      tag_442\n        /* \"Entity.sol\":6213:6217  keys */\n      dup5\n        /* \"Entity.sol\":5991:6034  strings.slice memory deKeys = \",\".toSlice() */\n      dup4\n        /* \"Entity.sol\":6213:6231  keys.count(deKeys) */\n      0xffffffff\n        /* \"Entity.sol\":6213:6223  keys.count */\n      tag_443\n        /* \"Entity.sol\":6213:6231  keys.count(deKeys) */\n      and\n      jump\t// in\n    tag_442:\n        /* \"Entity.sol\":6232:6233  1 */\n      0x01\n        /* \"Entity.sol\":6213:6233  keys.count(deKeys)+1 */\n      add\n        /* \"Entity.sol\":6191:6234  uint32 count = uint32(keys.count(deKeys)+1) */\n      swap1\n      pop\n        /* \"Entity.sol\":6272:6277  count */\n      dup1\n        /* \"Entity.sol\":6259:6278  new string[](count) */\n      0xffffffff\n      and\n      0xffffffffffffffff\n      dup2\n      gt\n        /* \"--CODEGEN--\":5:14   */\n      dup1\n        /* \"--CODEGEN--\":2:4   */\n      iszero\n      tag_444\n      jumpi\n        /* \"--CODEGEN--\":27:28   */\n      0x00\n        /* \"--CODEGEN--\":24:25   */\n      dup1\n        /* \"--CODEGEN--\":17:29   */\n      revert\n        /* \"--CODEGEN--\":2:4   */\n    tag_444:\n        /* \"Entity.sol\":6259:6278  new string[](count) */\n      pop\n      mload(0x40)\n      swap1\n      dup1\n      dup3\n      mstore\n      dup1\n      0x20\n      mul\n      0x20\n      add\n      dup3\n      add\n      0x40\n      mstore\n      dup1\n      iszero\n      tag_445\n      jumpi\n      dup2\n      0x20\n      add\n    tag_446:\n      0x60\n      dup2\n      mstore\n      0x20\n      add\n      swap1\n      0x01\n      swap1\n      sub\n      swap1\n      dup2\n      tag_446\n      jumpi\n      swap1\n      pop\n    tag_445:\n      pop\n        /* \"Entity.sol\":6245:6256  newData.key */\n      0x60\n      dup7\n      add\n        /* \"Entity.sol\":6245:6278  newData.key = new string[](count) */\n      mstore\n        /* \"Entity.sol\":6305:6324  new string[](count) */\n      0xffffffff\n      dup2\n      and\n      0xffffffffffffffff\n      dup2\n      gt\n        /* \"--CODEGEN--\":2:4   */\n      dup1\n      iszero\n      tag_447\n      jumpi\n        /* \"--CODEGEN--\":27:28   */\n      0x00\n        /* \"--CODEGEN--\":24:25   */\n      dup1\n        /* \"--CODEGEN--\":17:29   */\n      revert\n        /* \"--CODEGEN--\":2:4   */\n    tag_447:\n        /* \"Entity.sol\":6305:6324  new string[](count) */\n      pop\n      mload(0x40)\n      swap1\n      dup1\n      dup3\n      mstore\n      dup1\n      0x20\n      mul\n      0x20\n      add\n      dup3\n      add\n      0x40\n      mstore\n      dup1\n      iszero\n      tag_448\n      jumpi\n      dup2\n      0x20\n      add\n    tag_449:\n      0x60\n      dup2\n      mstore\n      0x20\n      add\n      swap1\n      0x01\n      swap1\n      sub\n      swap1\n      dup2\n      tag_449\n      jumpi\n      swap1\n      pop\n    tag_448:\n      pop\n        /* \"Entity.sol\":6289:6302  newData.value */\n      0x80\n      dup7\n      add\n        /* \"Entity.sol\":6289:6324  newData.value = new string[](count) */\n      mstore\n        /* \"Entity.sol\":6339:6347  uint32 i */\n      0x00\n        /* \"Entity.sol\":6335:6726  for(uint32 i=0; i<count; i++){\r... */\n    tag_450:\n        /* \"Entity.sol\":6353:6358  count */\n      dup2\n        /* \"Entity.sol\":6351:6358  i<count */\n      0xffffffff\n      and\n        /* \"Entity.sol\":6351:6352  i */\n      dup2\n        /* \"Entity.sol\":6351:6358  i<count */\n      0xffffffff\n      and\n      lt\n        /* \"Entity.sol\":6335:6726  for(uint32 i=0; i<count; i++){\r... */\n      iszero\n      tag_451\n      jumpi\n        /* \"Entity.sol\":6379:6399  string memory addKey */\n      0x60\n        /* \"Entity.sol\":6402:6431  keys.split(deKeys).toString() */\n      tag_453\n        /* \"Entity.sol\":6402:6420  keys.split(deKeys) */\n      tag_454\n        /* \"Entity.sol\":6402:6406  keys */\n      dup8\n        /* \"Entity.sol\":6413:6419  deKeys */\n      dup7\n        /* \"Entity.sol\":6402:6420  keys.split(deKeys) */\n      0xffffffff\n        /* \"Entity.sol\":6402:6412  keys.split */\n      tag_455\n        /* \"Entity.sol\":6402:6420  keys.split(deKeys) */\n      and\n      jump\t// in\n    tag_454:\n        /* \"Entity.sol\":6402:6429  keys.split(deKeys).toString */\n      tag_456\n        /* \"Entity.sol\":6402:6431  keys.split(deKeys).toString() */\n      jump\t// in\n    tag_453:\n        /* \"Entity.sol\":6379:6431  string memory addKey = keys.split(deKeys).toString() */\n      swap1\n      pop\n        /* \"Entity.sol\":6446:6468  string memory addValue */\n      0x60\n        /* \"Entity.sol\":6471:6502  values.split(deKeys).toString() */\n      tag_457\n        /* \"Entity.sol\":6471:6491  values.split(deKeys) */\n      tag_454\n        /* \"Entity.sol\":6471:6477  values */\n      dup8\n        /* \"Entity.sol\":6484:6490  deKeys */\n      dup8\n        /* \"Entity.sol\":6471:6491  values.split(deKeys) */\n      0xffffffff\n        /* \"Entity.sol\":6471:6483  values.split */\n      tag_455\n        /* \"Entity.sol\":6471:6491  values.split(deKeys) */\n      and\n      jump\t// in\n        /* \"Entity.sol\":6471:6502  values.split(deKeys).toString() */\n    tag_457:\n        /* \"Entity.sol\":6446:6502  string memory addValue = values.split(deKeys).toString() */\n      swap1\n      pop\n        /* \"Entity.sol\":6534:6540  addKey */\n      dup2\n        /* \"Entity.sol\":6517:6524  newData */\n      dup9\n        /* \"Entity.sol\":6517:6528  newData.key */\n      0x60\n      add\n      mload\n        /* \"Entity.sol\":6529:6530  i */\n      dup5\n        /* \"Entity.sol\":6517:6531  newData.key[i] */\n      0xffffffff\n      and\n      dup2\n      mload\n      dup2\n      lt\n      tag_459\n      jumpi\n      invalid\n    tag_459:\n      0x20\n      mul\n      0x20\n      add\n      add\n        /* \"Entity.sol\":6517:6540  newData.key[i] = addKey */\n      dup2\n      swap1\n      mstore\n      pop\n        /* \"Entity.sol\":6574:6582  addValue */\n      dup1\n        /* \"Entity.sol\":6555:6562  newData */\n      dup9\n        /* \"Entity.sol\":6555:6568  newData.value */\n      0x80\n      add\n      mload\n        /* \"Entity.sol\":6569:6570  i */\n      dup5\n        /* \"Entity.sol\":6555:6571  newData.value[i] */\n      0xffffffff\n      and\n      dup2\n      mload\n      dup2\n      lt\n      tag_460\n      jumpi\n      invalid\n    tag_460:\n      0x20\n      swap1\n      dup2\n      mul\n      swap2\n      swap1\n      swap2\n      add\n      add\n        /* \"Entity.sol\":6555:6582  newData.value[i] = addValue */\n      mstore\n      pop\n      pop\n        /* \"Entity.sol\":6360:6363  i++ */\n      0x01\n      add\n        /* \"Entity.sol\":6335:6726  for(uint32 i=0; i<count; i++){\r... */\n      jump(tag_450)\n    tag_451:\n      pop\n        /* \"Entity.sol\":6746:6763  pendingDataToSend */\n      0x0b\n        /* \"--CODEGEN--\":27:37   */\n      dup1\n      sload\n        /* \"--CODEGEN--\":39:40   */\n      0x01\n        /* \"--CODEGEN--\":23:41   */\n      dup2\n      add\n        /* \"--CODEGEN--\":45:68   */\n      dup3\n      sstore\n      0x00\n        /* \"Entity.sol\":6746:6777  pendingDataToSend.push(newData) */\n      swap2\n      swap1\n      swap2\n      mstore\n      dup6\n      mload\n      0x0175b7a638427703f0dbe7bb9bbf987a2551717b34e79f33b5b1008d1fa01db9\n      0x06\n      swap1\n      swap3\n      mul\n      swap2\n      dup3\n      add\n      dup1\n      sload\n      not(sub(shl(0xa0, 0x01), 0x01))\n      swap1\n      dup2\n      and\n      sub(shl(0xa0, 0x01), 0x01)\n      swap4\n      dup5\n      and\n      or\n      dup3\n      sstore\n      0x20\n      dup1\n      dup11\n      add\n      mload\n      0x0175b7a638427703f0dbe7bb9bbf987a2551717b34e79f33b5b1008d1fa01dba\n      dup7\n      add\n      dup1\n      sload\n      swap1\n      swap4\n      and\n      swap5\n      and\n      swap4\n      swap1\n      swap4\n      or\n      swap1\n      sstore\n      0x40\n      dup9\n      add\n      mload\n      dup1\n      mload\n      dup10\n      swap5\n      swap3\n      swap4\n      tag_462\n      swap4\n      0x0175b7a638427703f0dbe7bb9bbf987a2551717b34e79f33b5b1008d1fa01dbb\n      add\n      swap3\n      add\n      swap1\n      tag_429\n      jump\t// in\n    tag_462:\n      pop\n      0x60\n      dup3\n      add\n      mload\n      dup1\n      mload\n      tag_463\n      swap2\n      0x03\n      dup5\n      add\n      swap2\n      0x20\n      swap1\n      swap2\n      add\n      swap1\n      tag_464\n      jump\t// in\n    tag_463:\n      pop\n      0x80\n      dup3\n      add\n      mload\n      dup1\n      mload\n      tag_465\n      swap2\n      0x04\n      dup5\n      add\n      swap2\n      0x20\n      swap1\n      swap2\n      add\n      swap1\n      tag_464\n      jump\t// in\n    tag_465:\n      pop\n      0xa0\n      swap2\n      swap1\n      swap2\n      add\n      mload\n      0x05\n      swap1\n      swap2\n      add\n      dup1\n      sload\n      not(0xff)\n      and\n      swap2\n      iszero\n      iszero\n      swap2\n      swap1\n      swap2\n      or\n      swap1\n      sstore\n        /* \"Entity.sol\":6788:6867  if(direct)\r... */\n      dup6\n      iszero\n      tag_467\n      jumpi\n        /* \"Entity.sol\":6837:6854  pendingDataToSend */\n      0x0b\n        /* \"Entity.sol\":6837:6861  pendingDataToSend.length */\n      sload\n        /* \"Entity.sol\":6812:6867  approveDataToSend(uint32(pendingDataToSend.length - 1)) */\n      tag_467\n      swap1\n      not(0x00)\n        /* \"Entity.sol\":6837:6865  pendingDataToSend.length - 1 */\n      add\n        /* \"Entity.sol\":6812:6829  approveDataToSend */\n      tag_153\n        /* \"Entity.sol\":6812:6867  approveDataToSend(uint32(pendingDataToSend.length - 1)) */\n      jump\t// in\n    tag_467:\n        /* \"Entity.sol\":574:575  _ */\n      pop\n      pop\n      pop\n      pop\n      pop\n        /* \"Entity.sol\":5463:6875  function newDataToSend(address _receiver, string memory _description, string memory _key, string memory _value, bool direct) \r... */\n      pop\n      pop\n      pop\n      pop\n      pop\n      jump\t// out\n        /* \"Entity.sol\":4574:4784  function approveMultipleToReceive(address multipleEntity, uint32 index)\r... */\n    tag_201:\n        /* \"Entity.sol\":4746:4776  mE.approveDataToReceive(index) */\n      0x40\n      dup1\n      mload\n      shl(0xe0, 0x4f2bcbef)\n      dup2\n      mstore\n      0xffffffff\n      dup4\n      and\n      0x04\n      dup3\n      add\n      mstore\n      swap1\n      mload\n        /* \"Entity.sol\":4720:4734  multipleEntity */\n      dup4\n      swap2\n      sub(shl(0xa0, 0x01), 0x01)\n        /* \"Entity.sol\":4746:4769  mE.approveDataToReceive */\n      dup4\n      and\n      swap2\n      0x4f2bcbef\n      swap2\n        /* \"Entity.sol\":4746:4776  mE.approveDataToReceive(index) */\n      0x24\n      dup1\n      dup3\n      add\n      swap3\n        /* \"Entity.sol\":4701:4710  Entity mE */\n      0x00\n      swap3\n        /* \"Entity.sol\":4746:4776  mE.approveDataToReceive(index) */\n      swap1\n      swap2\n      swap1\n      dup3\n      swap1\n      sub\n      add\n      dup2\n        /* \"Entity.sol\":4701:4710  Entity mE */\n      dup4\n        /* \"Entity.sol\":4746:4769  mE.approveDataToReceive */\n      dup8\n        /* \"Entity.sol\":4746:4776  mE.approveDataToReceive(index) */\n      dup1\n      extcodesize\n      iszero\n        /* \"--CODEGEN--\":2:4   */\n      dup1\n      iszero\n      tag_480\n      jumpi\n        /* \"--CODEGEN--\":27:28   */\n      0x00\n        /* \"--CODEGEN--\":24:25   */\n      dup1\n        /* \"--CODEGEN--\":17:29   */\n      revert\n        /* \"--CODEGEN--\":2:4   */\n    tag_480:\n        /* \"Entity.sol\":4746:4776  mE.approveDataToReceive(index) */\n      pop\n      gas\n      call\n      iszero\n        /* \"--CODEGEN--\":8:17   */\n      dup1\n        /* \"--CODEGEN--\":5:7   */\n      iszero\n      tag_482\n      jumpi\n        /* \"--CODEGEN--\":45:61   */\n      returndatasize\n        /* \"--CODEGEN--\":42:43   */\n      0x00\n        /* \"--CODEGEN--\":39:40   */\n      dup1\n        /* \"--CODEGEN--\":24:62   */\n      returndatacopy\n        /* \"--CODEGEN--\":77:93   */\n      returndatasize\n        /* \"--CODEGEN--\":74:75   */\n      0x00\n        /* \"--CODEGEN--\":67:94   */\n      revert\n        /* \"--CODEGEN--\":5:7   */\n    tag_482:\n        /* \"Entity.sol\":4746:4776  mE.approveDataToReceive(index) */\n      pop\n      pop\n      pop\n      pop\n        /* \"Entity.sol\":574:575  _ */\n      pop\n        /* \"Entity.sol\":4574:4784  function approveMultipleToReceive(address multipleEntity, uint32 index)\r... */\n      pop\n      pop\n      jump\t// out\n        /* \"Entity.sol\":1308:1349  pendingData[] public pendingDataToReceive */\n    tag_204:\n      0x09\n      dup2\n      dup2\n      sload\n      dup2\n      lt\n      tag_483\n      jumpi\n      invalid\n    tag_483:\n      0x00\n      swap2\n      dup3\n      mstore\n      0x20\n      swap2\n      dup3\n      swap1\n      keccak256\n      0x06\n      swap1\n      swap2\n      mul\n      add\n      dup1\n      sload\n      0x01\n      dup1\n      dup4\n      add\n      sload\n      0x02\n      dup1\n      dup6\n      add\n      dup1\n      sload\n      0x40\n      dup1\n      mload\n      0x1f\n      not(0x00)\n      swap8\n      dup5\n      and\n      iszero\n      0x0100\n      mul\n      swap8\n      swap1\n      swap8\n      add\n      swap1\n      swap3\n      and\n      swap4\n      swap1\n      swap4\n      div\n      swap5\n      dup6\n      add\n      dup9\n      swap1\n      div\n      dup9\n      mul\n      dup2\n      add\n      dup9\n      add\n      swap1\n      swap3\n      mstore\n      dup4\n      dup3\n      mstore\n      sub(shl(0xa0, 0x01), 0x01)\n      swap5\n      dup6\n      and\n      swap8\n      pop\n      swap2\n      swap1\n      swap4\n      and\n      swap5\n      swap1\n      swap2\n      swap1\n      dup4\n      add\n      dup3\n      dup3\n      dup1\n      iszero\n      tag_485\n      jumpi\n      dup1\n      0x1f\n      lt\n      tag_486\n      jumpi\n      0x0100\n      dup1\n      dup4\n      sload\n      div\n      mul\n      dup4\n      mstore\n      swap2\n      0x20\n      add\n      swap2\n      jump(tag_485)\n    tag_486:\n      dup3\n      add\n      swap2\n      swap1\n      0x00\n      mstore\n      keccak256(0x00, 0x20)\n      swap1\n    tag_487:\n      dup2\n      sload\n      dup2\n      mstore\n      swap1\n      0x01\n      add\n      swap1\n      0x20\n      add\n      dup1\n      dup4\n      gt\n      tag_487\n      jumpi\n      dup3\n      swap1\n      sub\n      0x1f\n      and\n      dup3\n      add\n      swap2\n    tag_485:\n      pop\n      pop\n      pop\n      0x05\n      swap1\n      swap4\n      add\n      sload\n      swap2\n      swap3\n      pop\n      pop\n      0xff\n      and\n      dup5\n      jump\t// out\n        /* \"Entity.sol\":2651:2875  function _receiveData(string calldata _key, string calldata _value, uint32 index)\r... */\n    tag_217:\n        /* \"Entity.sol\":2768:2788  pendingDataToReceive */\n      0x09\n        /* \"Entity.sol\":2789:2794  index */\n      dup2\n        /* \"Entity.sol\":2768:2795  pendingDataToReceive[index] */\n      0xffffffff\n      and\n      dup2\n      sload\n      dup2\n      lt\n      tag_489\n      jumpi\n      invalid\n    tag_489:\n      0x00\n      swap2\n      dup3\n      mstore\n      0x20\n      dup1\n      dup4\n      keccak256\n        /* \"Entity.sol\":2768:2801  pendingDataToReceive[index].value */\n      0x04\n        /* \"Entity.sol\":2768:2795  pendingDataToReceive[index] */\n      0x06\n      swap1\n      swap4\n      mul\n      add\n        /* \"Entity.sol\":2768:2801  pendingDataToReceive[index].value */\n      swap2\n      swap1\n      swap2\n      add\n        /* \"--CODEGEN--\":27:37   */\n      dup1\n      sload\n        /* \"--CODEGEN--\":39:40   */\n      0x01\n        /* \"--CODEGEN--\":23:41   */\n      dup2\n      add\n        /* \"--CODEGEN--\":45:68   */\n      dup3\n      sstore\n        /* \"Entity.sol\":2768:2814  pendingDataToReceive[index].value.push(_value) */\n      swap1\n      dup4\n      mstore\n      swap2\n      keccak256\n      tag_492\n      swap2\n      add\n        /* \"Entity.sol\":2807:2813  _value */\n      dup5\n      dup5\n        /* \"Entity.sol\":2768:2814  pendingDataToReceive[index].value.push(_value) */\n      tag_418\n      jump\t// in\n    tag_492:\n      pop\n        /* \"Entity.sol\":2825:2845  pendingDataToReceive */\n      0x09\n        /* \"Entity.sol\":2846:2851  index */\n      dup2\n        /* \"Entity.sol\":2825:2852  pendingDataToReceive[index] */\n      0xffffffff\n      and\n      dup2\n      sload\n      dup2\n      lt\n      tag_493\n      jumpi\n      invalid\n    tag_493:\n      0x00\n      swap2\n      dup3\n      mstore\n      0x20\n      dup1\n      dup4\n      keccak256\n        /* \"Entity.sol\":2825:2856  pendingDataToReceive[index].key */\n      0x03\n        /* \"Entity.sol\":2825:2852  pendingDataToReceive[index] */\n      0x06\n      swap1\n      swap4\n      mul\n      add\n        /* \"Entity.sol\":2825:2856  pendingDataToReceive[index].key */\n      swap2\n      swap1\n      swap2\n      add\n        /* \"--CODEGEN--\":27:37   */\n      dup1\n      sload\n        /* \"--CODEGEN--\":39:40   */\n      0x01\n        /* \"--CODEGEN--\":23:41   */\n      dup2\n      add\n        /* \"--CODEGEN--\":45:68   */\n      dup3\n      sstore\n        /* \"Entity.sol\":2825:2867  pendingDataToReceive[index].key.push(_key) */\n      swap1\n      dup4\n      mstore\n      swap2\n      keccak256\n      tag_496\n      swap2\n      add\n        /* \"Entity.sol\":2862:2866  _key */\n      dup7\n      dup7\n        /* \"Entity.sol\":2825:2867  pendingDataToReceive[index].key.push(_key) */\n      tag_418\n      jump\t// in\n    tag_496:\n      pop\n        /* \"Entity.sol\":2651:2875  function _receiveData(string calldata _key, string calldata _value, uint32 index)\r... */\n      pop\n      pop\n      pop\n      pop\n      pop\n      jump\t// out\n        /* \"Entity.sol\":8720:8892  function dataSizeToSend(uint32 index) \r... */\n    tag_220:\n        /* \"Entity.sol\":8809:8815  uint32 */\n      0x00\n        /* \"Entity.sol\":8848:8865  pendingDataToSend */\n      0x0b\n        /* \"Entity.sol\":8866:8871  index */\n      dup3\n        /* \"Entity.sol\":8848:8872  pendingDataToSend[index] */\n      0xffffffff\n      and\n      dup2\n      sload\n      dup2\n      lt\n      tag_373\n      jumpi\n      invalid\n        /* \"Entity.sol\":1442:1480  pendingData[] public pendingDataToSend */\n    tag_223:\n      0x0b\n      dup2\n      dup2\n      sload\n      dup2\n      lt\n      tag_483\n      jumpi\n      invalid\n        /* \"Entity.sol\":1198:1263  mapping(address=>mapping(string=>bool)) public writtenDescription */\n    tag_233:\n      0x08\n      0x20\n      swap1\n      dup2\n      mstore\n      0x00\n      swap3\n      dup4\n      mstore\n      0x40\n      swap1\n      swap3\n      keccak256\n        /* \"--CODEGEN--\":22:36   */\n      dup2\n      mload\n        /* \"--CODEGEN--\":143:175   */\n      dup1\n      dup4\n      add\n      dup5\n      add\n        /* \"--CODEGEN--\":198:218   */\n      dup1\n      mload\n        /* \"--CODEGEN--\":224:255   */\n      swap3\n      dup2\n      mstore\n        /* \"--CODEGEN--\":156:174   */\n      swap1\n      dup5\n      add\n        /* \"--CODEGEN--\":283:301   */\n      swap3\n      swap1\n      swap4\n      add\n        /* \"--CODEGEN--\":273:322   */\n      swap2\n      swap1\n      swap2\n      keccak256\n        /* \"--CODEGEN--\":328:360   */\n      swap2\n      mstore\n        /* \"Entity.sol\":1198:1263  mapping(address=>mapping(string=>bool)) public writtenDescription */\n      sload\n      0xff\n      and\n      dup2\n      jump\t// out\n        /* \"Entity.sol\":2276:2639  function _newData(string calldata _description)\r... */\n    tag_239:\n        /* \"Entity.sol\":2360:2366  uint32 */\n      0x00\n        /* \"Entity.sol\":2385:2411  pendingData memory newData */\n      tag_506\n      tag_433\n      jump\t// in\n    tag_506:\n        /* \"Entity.sol\":2439:2449  msg.sender */\n      caller\n        /* \"Entity.sol\":2422:2449  newData.source = msg.sender */\n      dup2\n      mstore\n        /* \"Entity.sol\":2460:2494  newData.description = _description */\n      0x40\n      dup1\n      mload\n      0x20\n      0x1f\n      dup7\n      add\n      dup2\n      swap1\n      div\n      dup2\n      mul\n      dup3\n      add\n      dup2\n      add\n      swap1\n      swap3\n      mstore\n      dup5\n      dup2\n      mstore\n      swap1\n        /* \"Entity.sol\":2482:2494  _description */\n      dup6\n      swap1\n      dup6\n      swap1\n      dup2\n      swap1\n        /* \"Entity.sol\":2460:2494  newData.description = _description */\n      dup5\n      add\n        /* \"Entity.sol\":2482:2494  _description */\n      dup4\n      dup3\n      dup1\n      dup3\n        /* \"Entity.sol\":2460:2494  newData.description = _description */\n      dup5\n        /* \"--CODEGEN--\":1:34   */\n      calldatacopy\n        /* \"--CODEGEN--\":99:100   */\n      0x00\n        /* \"--CODEGEN--\":81:97   */\n      swap3\n      add\n        /* \"--CODEGEN--\":74:101   */\n      dup3\n      swap1\n      mstore\n      pop\n        /* \"Entity.sol\":2460:2479  newData.description */\n      0x40\n      dup7\n      add\n        /* \"Entity.sol\":2460:2494  newData.description = _description */\n      swap5\n      dup6\n      mstore\n        /* \"Entity.sol\":2505:2521  newData.approved */\n      0xa0\n      dup7\n      add\n        /* \"Entity.sol\":2505:2529  newData.approved = false */\n      dup2\n      swap1\n      mstore\n        /* \"Entity.sol\":2540:2560  pendingDataToReceive */\n      0x09\n        /* \"--CODEGEN--\":27:37   */\n      dup1\n      sload\n        /* \"Entity.sol\":2505:2529  newData.approved = false */\n      0x01\n        /* \"--CODEGEN--\":23:41   */\n      dup2\n      add\n        /* \"--CODEGEN--\":45:68   */\n      dup3\n      sstore\n        /* \"Entity.sol\":2540:2574  pendingDataToReceive.push(newData) */\n      swap2\n      mstore\n      dup6\n      mload\n      0x6e1540171b6c0c960b71a7020d9f60077f6af931a8bbf590da0223dacf75c7af\n      0x06\n      swap1\n      swap3\n      mul\n      swap2\n      dup3\n      add\n      dup1\n      sload\n      not(sub(shl(0xa0, 0x01), 0x01))\n      swap1\n      dup2\n      and\n      sub(shl(0xa0, 0x01), 0x01)\n      swap4\n      dup5\n      and\n      or\n      dup3\n      sstore\n      0x20\n      dup1\n      dup11\n      add\n      mload\n      0x6e1540171b6c0c960b71a7020d9f60077f6af931a8bbf590da0223dacf75c7b0\n      dup7\n      add\n      dup1\n      sload\n      swap1\n      swap4\n      and\n      swap5\n      and\n      swap4\n      swap1\n      swap4\n      or\n      swap1\n      sstore\n      swap6\n      mload\n      dup1\n      mload\n        /* \"Entity.sol\":2460:2479  newData.description */\n      dup9\n      swap8\n        /* \"Entity.sol\":2540:2574  pendingDataToReceive.push(newData) */\n      swap7\n      pop\n      tag_508\n      swap6\n      pop\n      0x6e1540171b6c0c960b71a7020d9f60077f6af931a8bbf590da0223dacf75c7b1\n      swap1\n      swap4\n      add\n      swap4\n      pop\n      add\n      swap1\n      tag_429\n      jump\t// in\n    tag_508:\n      pop\n      0x60\n      dup3\n      add\n      mload\n      dup1\n      mload\n      tag_509\n      swap2\n      0x03\n      dup5\n      add\n      swap2\n      0x20\n      swap1\n      swap2\n      add\n      swap1\n      tag_464\n      jump\t// in\n    tag_509:\n      pop\n      0x80\n      dup3\n      add\n      mload\n      dup1\n      mload\n      tag_510\n      swap2\n      0x04\n      dup5\n      add\n      swap2\n      0x20\n      swap1\n      swap2\n      add\n      swap1\n      tag_464\n      jump\t// in\n    tag_510:\n      pop\n      0xa0\n      swap2\n      swap1\n      swap2\n      add\n      mload\n      0x05\n      swap1\n      swap2\n      add\n      dup1\n      sload\n      not(0xff)\n      and\n      swap2\n      iszero\n      iszero\n      swap2\n      swap1\n      swap2\n      or\n      swap1\n      sstore\n      pop\n      pop\n        /* \"Entity.sol\":2599:2619  pendingDataToReceive */\n      0x09\n        /* \"Entity.sol\":2599:2626  pendingDataToReceive.length */\n      sload\n      not(0x00)\n        /* \"Entity.sol\":2599:2630  pendingDataToReceive.length - 1 */\n      add\n      swap3\n        /* \"Entity.sol\":2276:2639  function _newData(string calldata _description)\r... */\n      swap2\n      pop\n      pop\n      jump\t// out\n        /* \"Entity.sol\":9574:9746  function descriptionLength(address source)\r... */\n    tag_242:\n      sub(shl(0xa0, 0x01), 0x01)\n        /* \"Entity.sol\":9702:9730  descriptionsBySource[source] */\n      and\n        /* \"Entity.sol\":9664:9670  uint32 */\n      0x00\n        /* \"Entity.sol\":9702:9730  descriptionsBySource[source] */\n      swap1\n      dup2\n      mstore\n        /* \"Entity.sol\":9702:9722  descriptionsBySource */\n      0x07\n        /* \"Entity.sol\":9702:9730  descriptionsBySource[source] */\n      0x20\n      mstore\n      0x40\n      swap1\n      keccak256\n        /* \"Entity.sol\":9702:9737  descriptionsBySource[source].length */\n      sload\n      swap1\n        /* \"Entity.sol\":9574:9746  function descriptionLength(address source)\r... */\n      jump\t// out\n        /* \"Entity.sol\":8552:8708  function pendingDataToSendCount() \r... */\n    tag_244:\n        /* \"Entity.sol\":8675:8692  pendingDataToSend */\n      0x0b\n        /* \"Entity.sol\":8675:8699  pendingDataToSend.length */\n      sload\n        /* \"Entity.sol\":8552:8708  function pendingDataToSendCount() \r... */\n      swap1\n      jump\t// out\n        /* \"Entity.sol\":762:812  mapping(address=>uint32) public recentSendingIndex */\n    tag_247:\n      mstore(0x20, 0x01)\n      0x00\n      swap1\n      dup2\n      mstore\n      0x40\n      swap1\n      keccak256\n      sload\n      0xffffffff\n      and\n      dup2\n      jump\t// out\n        /* \"Entity.sol\":5160:5421  function keyValueOfDataToReceive(uint32 index, uint32 keyIndex)\r... */\n    tag_250:\n        /* \"Entity.sol\":5272:5285  string memory */\n      0x60\n        /* \"Entity.sol\":5287:5300  string memory */\n      dup1\n        /* \"Entity.sol\":5326:5346  pendingDataToReceive */\n      0x09\n        /* \"Entity.sol\":5347:5352  index */\n      dup5\n        /* \"Entity.sol\":5326:5353  pendingDataToReceive[index] */\n      0xffffffff\n      and\n      dup2\n      sload\n      dup2\n      lt\n      tag_514\n      jumpi\n      invalid\n    tag_514:\n      swap1\n      0x00\n      mstore\n      keccak256(0x00, 0x20)\n      swap1\n      0x06\n      mul\n      add\n        /* \"Entity.sol\":5326:5357  pendingDataToReceive[index].key */\n      0x03\n      add\n        /* \"Entity.sol\":5358:5366  keyIndex */\n      dup4\n        /* \"Entity.sol\":5326:5367  pendingDataToReceive[index].key[keyIndex] */\n      0xffffffff\n      and\n      dup2\n      sload\n      dup2\n      lt\n      tag_516\n      jumpi\n      invalid\n    tag_516:\n      swap1\n      0x00\n      mstore\n      keccak256(0x00, 0x20)\n      add\n        /* \"Entity.sol\":5369:5389  pendingDataToReceive */\n      0x09\n        /* \"Entity.sol\":5390:5395  index */\n      dup6\n        /* \"Entity.sol\":5369:5396  pendingDataToReceive[index] */\n      0xffffffff\n      and\n      dup2\n      sload\n      dup2\n      lt\n      tag_297\n      jumpi\n      invalid\n        /* \"Entity.sol\":8336:8540  function approveMultipleToSend(address multipleEntity, uint32 index)\r... */\n    tag_261:\n        /* \"Entity.sol\":8505:8532  me.approveDataToSend(index) */\n      0x40\n      dup1\n      mload\n      shl(0xe0, 0x838ebd85)\n      dup2\n      mstore\n      0xffffffff\n      dup4\n      and\n      0x04\n      dup3\n      add\n      mstore\n      swap1\n      mload\n        /* \"Entity.sol\":8479:8493  multipleEntity */\n      dup4\n      swap2\n      sub(shl(0xa0, 0x01), 0x01)\n        /* \"Entity.sol\":8505:8525  me.approveDataToSend */\n      dup4\n      and\n      swap2\n      0x838ebd85\n      swap2\n        /* \"Entity.sol\":8505:8532  me.approveDataToSend(index) */\n      0x24\n      dup1\n      dup3\n      add\n      swap3\n        /* \"Entity.sol\":8460:8469  Entity me */\n      0x00\n      swap3\n        /* \"Entity.sol\":8505:8532  me.approveDataToSend(index) */\n      swap1\n      swap2\n      swap1\n      dup3\n      swap1\n      sub\n      add\n      dup2\n        /* \"Entity.sol\":8460:8469  Entity me */\n      dup4\n        /* \"Entity.sol\":8505:8525  me.approveDataToSend */\n      dup8\n        /* \"Entity.sol\":8505:8532  me.approveDataToSend(index) */\n      dup1\n      extcodesize\n      iszero\n        /* \"--CODEGEN--\":2:4   */\n      dup1\n      iszero\n      tag_480\n      jumpi\n        /* \"--CODEGEN--\":27:28   */\n      0x00\n        /* \"--CODEGEN--\":24:25   */\n      dup1\n        /* \"--CODEGEN--\":17:29   */\n      revert\n        /* \"Entity.sol\":735:755  bool public isSingle */\n    tag_263:\n      and(0xff, sload(0x00))\n      dup2\n      jump\t// out\n        /* \"Entity.sol\":7512:7770  function addDataMultipleToSend(address multipleEntity, string memory _key, string memory _value, uint32 index) \r... */\n    tag_272:\n        /* \"Entity.sol\":7725:7762  me.addDataToSend(_key, _value, index) */\n      mload(0x40)\n      shl(0xe1, 0x7e15477d)\n      dup2\n      mstore\n      0xffffffff\n      dup3\n      and\n      0x44\n      dup3\n      add\n      mstore\n      0x60\n      0x04\n      dup3\n      add\n      swap1\n      dup2\n      mstore\n      dup5\n      mload\n      0x64\n      dup4\n      add\n      mstore\n      dup5\n      mload\n        /* \"Entity.sol\":7699:7713  multipleEntity */\n      dup7\n      swap3\n      sub(shl(0xa0, 0x01), 0x01)\n        /* \"Entity.sol\":7725:7741  me.addDataToSend */\n      dup5\n      and\n      swap3\n      0xfc2a8efa\n      swap3\n        /* \"Entity.sol\":7742:7746  _key */\n      dup9\n      swap3\n        /* \"Entity.sol\":7748:7754  _value */\n      dup9\n      swap3\n        /* \"Entity.sol\":7756:7761  index */\n      dup9\n      swap3\n        /* \"Entity.sol\":7725:7762  me.addDataToSend(_key, _value, index) */\n      swap1\n      swap2\n      dup3\n      swap2\n      0x24\n      dup3\n      add\n      swap2\n      0x84\n      add\n      swap1\n      0x20\n      dup9\n      add\n      swap1\n      dup1\n      dup4\n      dup4\n        /* \"Entity.sol\":7680:7689  Entity me */\n      0x00\n        /* \"--CODEGEN--\":8:108   */\n    tag_535:\n        /* \"--CODEGEN--\":33:36   */\n      dup4\n        /* \"--CODEGEN--\":30:31   */\n      dup2\n        /* \"--CODEGEN--\":27:37   */\n      lt\n        /* \"--CODEGEN--\":8:108   */\n      iszero\n      tag_537\n      jumpi\n        /* \"--CODEGEN--\":90:101   */\n      dup2\n      dup2\n      add\n        /* \"--CODEGEN--\":84:102   */\n      mload\n        /* \"--CODEGEN--\":71:82   */\n      dup4\n      dup3\n      add\n        /* \"--CODEGEN--\":64:103   */\n      mstore\n        /* \"--CODEGEN--\":52:54   */\n      0x20\n        /* \"--CODEGEN--\":45:55   */\n      add\n        /* \"--CODEGEN--\":8:108   */\n      jump(tag_535)\n    tag_537:\n        /* \"--CODEGEN--\":12:26   */\n      pop\n        /* \"Entity.sol\":7725:7762  me.addDataToSend(_key, _value, index) */\n      pop\n      pop\n      pop\n      swap1\n      pop\n      swap1\n      dup2\n      add\n      swap1\n      0x1f\n      and\n      dup1\n      iszero\n      tag_538\n      jumpi\n      dup1\n      dup3\n      sub\n      dup1\n      mload\n      0x01\n      dup4\n      0x20\n      sub\n      0x0100\n      exp\n      sub\n      not\n      and\n      dup2\n      mstore\n      0x20\n      add\n      swap2\n      pop\n    tag_538:\n      pop\n      dup4\n      dup2\n      sub\n      dup3\n      mstore\n      dup6\n      mload\n      dup2\n      mstore\n      dup6\n      mload\n      0x20\n      swap2\n      dup3\n      add\n      swap2\n      dup8\n      add\n      swap1\n      dup1\n      dup4\n      dup4\n        /* \"--CODEGEN--\":23:24   */\n      0x00\n        /* \"--CODEGEN--\":8:108   */\n    tag_539:\n        /* \"--CODEGEN--\":33:36   */\n      dup4\n        /* \"--CODEGEN--\":30:31   */\n      dup2\n        /* \"--CODEGEN--\":27:37   */\n      lt\n        /* \"--CODEGEN--\":8:108   */\n      iszero\n      tag_541\n      jumpi\n        /* \"--CODEGEN--\":90:101   */\n      dup2\n      dup2\n      add\n        /* \"--CODEGEN--\":84:102   */\n      mload\n        /* \"--CODEGEN--\":71:82   */\n      dup4\n      dup3\n      add\n        /* \"--CODEGEN--\":64:103   */\n      mstore\n        /* \"--CODEGEN--\":52:54   */\n      0x20\n        /* \"--CODEGEN--\":45:55   */\n      add\n        /* \"--CODEGEN--\":8:108   */\n      jump(tag_539)\n    tag_541:\n        /* \"--CODEGEN--\":12:26   */\n      pop\n        /* \"Entity.sol\":7725:7762  me.addDataToSend(_key, _value, index) */\n      pop\n      pop\n      pop\n      swap1\n      pop\n      swap1\n      dup2\n      add\n      swap1\n      0x1f\n      and\n      dup1\n      iszero\n      tag_542\n      jumpi\n      dup1\n      dup3\n      sub\n      dup1\n      mload\n      0x01\n      dup4\n      0x20\n      sub\n      0x0100\n      exp\n      sub\n      not\n      and\n      dup2\n      mstore\n      0x20\n      add\n      swap2\n      pop\n    tag_542:\n      pop\n      swap6\n      pop\n      pop\n      pop\n      pop\n      pop\n      pop\n      0x00\n      mload(0x40)\n      dup1\n      dup4\n      sub\n      dup2\n      0x00\n      dup8\n      dup1\n      extcodesize\n      iszero\n        /* \"--CODEGEN--\":5:14   */\n      dup1\n        /* \"--CODEGEN--\":2:4   */\n      iszero\n      tag_543\n      jumpi\n        /* \"--CODEGEN--\":27:28   */\n      0x00\n        /* \"--CODEGEN--\":24:25   */\n      dup1\n        /* \"--CODEGEN--\":17:29   */\n      revert\n        /* \"--CODEGEN--\":2:4   */\n    tag_543:\n        /* \"Entity.sol\":7725:7762  me.addDataToSend(_key, _value, index) */\n      pop\n      gas\n      call\n      iszero\n        /* \"--CODEGEN--\":8:17   */\n      dup1\n        /* \"--CODEGEN--\":5:7   */\n      iszero\n      tag_545\n      jumpi\n        /* \"--CODEGEN--\":45:61   */\n      returndatasize\n        /* \"--CODEGEN--\":42:43   */\n      0x00\n        /* \"--CODEGEN--\":39:40   */\n      dup1\n        /* \"--CODEGEN--\":24:62   */\n      returndatacopy\n        /* \"--CODEGEN--\":77:93   */\n      returndatasize\n        /* \"--CODEGEN--\":74:75   */\n      0x00\n        /* \"--CODEGEN--\":67:94   */\n      revert\n        /* \"--CODEGEN--\":5:7   */\n    tag_545:\n        /* \"Entity.sol\":7725:7762  me.addDataToSend(_key, _value, index) */\n      pop\n      pop\n      pop\n      pop\n        /* \"Entity.sol\":574:575  _ */\n      pop\n        /* \"Entity.sol\":7512:7770  function addDataMultipleToSend(address multipleEntity, string memory _key, string memory _value, uint32 index) \r... */\n      pop\n      pop\n      pop\n      pop\n      jump\t// out\n        /* \"Entity.sol\":1089:1129  mapping(address=>bool) public hasWritten */\n    tag_275:\n      mstore(0x20, 0x06)\n      0x00\n      swap1\n      dup2\n      mstore\n      0x40\n      swap1\n      keccak256\n      sload\n      0xff\n      and\n      dup2\n      jump\t// out\n        /* \"Entity.sol\":7263:7500  function addDataToSend(string memory _key, string memory _value, uint32 index) \r... */\n    tag_284:\n        /* \"Entity.sol\":7399:7416  pendingDataToSend */\n      0x0b\n        /* \"Entity.sol\":7417:7422  index */\n      dup2\n        /* \"Entity.sol\":7399:7423  pendingDataToSend[index] */\n      0xffffffff\n      and\n      dup2\n      sload\n      dup2\n      lt\n      tag_548\n      jumpi\n      invalid\n    tag_548:\n      0x00\n      swap2\n      dup3\n      mstore\n      0x20\n      dup1\n      dup4\n      keccak256\n        /* \"Entity.sol\":7399:7427  pendingDataToSend[index].key */\n      0x03\n        /* \"Entity.sol\":7399:7423  pendingDataToSend[index] */\n      0x06\n      swap1\n      swap4\n      mul\n      add\n        /* \"Entity.sol\":7399:7427  pendingDataToSend[index].key */\n      swap2\n      swap1\n      swap2\n      add\n        /* \"--CODEGEN--\":27:37   */\n      dup1\n      sload\n        /* \"--CODEGEN--\":39:40   */\n      0x01\n        /* \"--CODEGEN--\":23:41   */\n      dup2\n      add\n        /* \"--CODEGEN--\":45:68   */\n      dup3\n      sstore\n        /* \"Entity.sol\":7399:7438  pendingDataToSend[index].key.push(_key) */\n      swap1\n      dup4\n      mstore\n      swap2\n      dup2\n      swap1\n      keccak256\n      dup6\n      mload\n      tag_551\n      swap4\n      swap2\n      swap1\n      swap2\n      add\n      swap2\n      dup7\n      add\n      swap1\n      tag_429\n      jump\t// in\n    tag_551:\n      pop\n        /* \"Entity.sol\":7449:7466  pendingDataToSend */\n      0x0b\n        /* \"Entity.sol\":7467:7472  index */\n      dup2\n        /* \"Entity.sol\":7449:7473  pendingDataToSend[index] */\n      0xffffffff\n      and\n      dup2\n      sload\n      dup2\n      lt\n      tag_552\n      jumpi\n      invalid\n    tag_552:\n      0x00\n      swap2\n      dup3\n      mstore\n      0x20\n      dup1\n      dup4\n      keccak256\n        /* \"Entity.sol\":7449:7479  pendingDataToSend[index].value */\n      0x04\n        /* \"Entity.sol\":7449:7473  pendingDataToSend[index] */\n      0x06\n      swap1\n      swap4\n      mul\n      add\n        /* \"Entity.sol\":7449:7479  pendingDataToSend[index].value */\n      swap2\n      swap1\n      swap2\n      add\n        /* \"--CODEGEN--\":27:37   */\n      dup1\n      sload\n        /* \"--CODEGEN--\":39:40   */\n      0x01\n        /* \"--CODEGEN--\":23:41   */\n      dup2\n      add\n        /* \"--CODEGEN--\":45:68   */\n      dup3\n      sstore\n        /* \"Entity.sol\":7449:7492  pendingDataToSend[index].value.push(_value) */\n      swap1\n      dup4\n      mstore\n      swap2\n      dup2\n      swap1\n      keccak256\n      dup5\n      mload\n      tag_428\n      swap4\n      swap2\n      swap1\n      swap2\n      add\n      swap2\n      dup6\n      add\n      swap1\n      tag_429\n      jump\t// in\n        /* \"Entity.sol\":2887:4314  function _approveDataToReceive(uint32 index) \r... */\n    tag_354:\n        /* \"Entity.sol\":2976:2996  pendingDataToReceive */\n      0x09\n        /* \"Entity.sol\":2997:3002  index */\n      dup2\n        /* \"Entity.sol\":2976:3003  pendingDataToReceive[index] */\n      0xffffffff\n      and\n      dup2\n      sload\n      dup2\n      lt\n      tag_557\n      jumpi\n      invalid\n    tag_557:\n      0x00\n      swap2\n      dup3\n      mstore\n      0x20\n      swap1\n      swap2\n      keccak256\n        /* \"Entity.sol\":2976:3012  pendingDataToReceive[index].approved */\n      0x05\n        /* \"Entity.sol\":2976:3003  pendingDataToReceive[index] */\n      0x06\n      swap1\n      swap3\n      mul\n      add\n        /* \"Entity.sol\":2976:3012  pendingDataToReceive[index].approved */\n      add\n      sload\n      0xff\n      and\n        /* \"Entity.sol\":2975:3012  !pendingDataToReceive[index].approved */\n      iszero\n        /* \"Entity.sol\":2967:3013  require(!pendingDataToReceive[index].approved) */\n      tag_559\n      jumpi\n        /* \"--CODEGEN--\":12:13   */\n      0x00\n        /* \"--CODEGEN--\":9:10   */\n      dup1\n        /* \"--CODEGEN--\":2:14   */\n      revert\n        /* \"Entity.sol\":2967:3013  require(!pendingDataToReceive[index].approved) */\n    tag_559:\n        /* \"Entity.sol\":3024:3053  storingData storage toApprove */\n      0x00\n        /* \"Entity.sol\":3056:3063  Storage */\n      0x02\n        /* \"Entity.sol\":3056:3099  Storage[pendingDataToReceive[index].source] */\n      0x00\n        /* \"Entity.sol\":3064:3084  pendingDataToReceive */\n      0x09\n        /* \"Entity.sol\":3085:3090  index */\n      dup5\n        /* \"Entity.sol\":3064:3091  pendingDataToReceive[index] */\n      0xffffffff\n      and\n      dup2\n      sload\n      dup2\n      lt\n      tag_560\n      jumpi\n      invalid\n    tag_560:\n      0x00\n      swap2\n      dup3\n      mstore\n      0x20\n      dup1\n      dup4\n      keccak256\n      0x06\n      swap1\n      swap3\n      mul\n      swap1\n      swap2\n      add\n        /* \"Entity.sol\":3064:3098  pendingDataToReceive[index].source */\n      sload\n      sub(shl(0xa0, 0x01), 0x01)\n      and\n        /* \"Entity.sol\":3056:3099  Storage[pendingDataToReceive[index].source] */\n      dup4\n      mstore\n      dup3\n      add\n      swap3\n      swap1\n      swap3\n      mstore\n      0x40\n      add\n      swap1\n      keccak256\n        /* \"Entity.sol\":3100:3120  pendingDataToReceive */\n      0x09\n        /* \"Entity.sol\":3100:3127  pendingDataToReceive[index] */\n      dup1\n      sload\n      0xffffffff\n      dup6\n      and\n      swap1\n      dup2\n      lt\n      tag_562\n      jumpi\n      invalid\n    tag_562:\n      swap1\n      0x00\n      mstore\n      keccak256(0x00, 0x20)\n      swap1\n      0x06\n      mul\n      add\n        /* \"Entity.sol\":3100:3139  pendingDataToReceive[index].description */\n      0x02\n      add\n        /* \"Entity.sol\":3056:3140  Storage[pendingDataToReceive[index].source][pendingDataToReceive[index].description] */\n      mload(0x40)\n      dup1\n      dup3\n      dup1\n      sload\n      0x01\n      dup2\n      0x01\n      and\n      iszero\n      0x0100\n      mul\n      sub\n      and\n      0x02\n      swap1\n      div\n      dup1\n      iszero\n      tag_564\n      jumpi\n      dup1\n      0x1f\n      lt\n      tag_565\n      jumpi\n      0x0100\n      dup1\n      dup4\n      sload\n      div\n      mul\n      dup4\n      mstore\n      swap2\n      dup3\n      add\n      swap2\n      jump(tag_564)\n    tag_565:\n      dup3\n      add\n      swap2\n      swap1\n      0x00\n      mstore\n      keccak256(0x00, 0x20)\n      swap1\n    tag_566:\n      dup2\n      sload\n      dup2\n      mstore\n      swap1\n      0x01\n      add\n      swap1\n      0x20\n      add\n      dup1\n      dup4\n      gt\n      tag_566\n      jumpi\n    tag_564:\n      pop\n      pop\n      swap3\n      dup4\n      mstore\n      pop\n      pop\n      mload(0x40)\n      swap1\n      dup2\n      swap1\n      sub\n      0x20\n      add\n      swap1\n      keccak256\n      swap1\n      pop\n        /* \"Entity.sol\":3155:3163  uint32 i */\n      0x00\n        /* \"Entity.sol\":3151:3690  for(uint32 i=0; i<pendingDataToReceive[index].key.length; i++){\r... */\n    tag_567:\n        /* \"Entity.sol\":3169:3189  pendingDataToReceive */\n      0x09\n        /* \"Entity.sol\":3190:3195  index */\n      dup4\n        /* \"Entity.sol\":3169:3196  pendingDataToReceive[index] */\n      0xffffffff\n      and\n      dup2\n      sload\n      dup2\n      lt\n      tag_570\n      jumpi\n      invalid\n    tag_570:\n      swap1\n      0x00\n      mstore\n      keccak256(0x00, 0x20)\n      swap1\n      0x06\n      mul\n      add\n        /* \"Entity.sol\":3169:3200  pendingDataToReceive[index].key */\n      0x03\n      add\n        /* \"Entity.sol\":3169:3207  pendingDataToReceive[index].key.length */\n      dup1\n      sload\n      swap1\n      pop\n        /* \"Entity.sol\":3167:3168  i */\n      dup2\n        /* \"Entity.sol\":3167:3207  i<pendingDataToReceive[index].key.length */\n      0xffffffff\n      and\n      lt\n        /* \"Entity.sol\":3151:3690  for(uint32 i=0; i<pendingDataToReceive[index].key.length; i++){\r... */\n      iszero\n      tag_568\n      jumpi\n        /* \"Entity.sol\":3283:3303  pendingDataToReceive */\n      0x09\n        /* \"Entity.sol\":3304:3309  index */\n      dup4\n        /* \"Entity.sol\":3283:3310  pendingDataToReceive[index] */\n      0xffffffff\n      and\n      dup2\n      sload\n      dup2\n      lt\n      tag_572\n      jumpi\n      invalid\n    tag_572:\n      swap1\n      0x00\n      mstore\n      keccak256(0x00, 0x20)\n      swap1\n      0x06\n      mul\n      add\n        /* \"Entity.sol\":3283:3316  pendingDataToReceive[index].value */\n      0x04\n      add\n        /* \"Entity.sol\":3317:3318  i */\n      dup2\n        /* \"Entity.sol\":3283:3319  pendingDataToReceive[index].value[i] */\n      0xffffffff\n      and\n      dup2\n      sload\n      dup2\n      lt\n      tag_574\n      jumpi\n      invalid\n    tag_574:\n      swap1\n      0x00\n      mstore\n      keccak256(0x00, 0x20)\n      add\n        /* \"Entity.sol\":3228:3237  toApprove */\n      dup3\n        /* \"Entity.sol\":3228:3244  toApprove.column */\n      0x00\n      add\n        /* \"Entity.sol\":3245:3265  pendingDataToReceive */\n      0x09\n        /* \"Entity.sol\":3266:3271  index */\n      dup6\n        /* \"Entity.sol\":3245:3272  pendingDataToReceive[index] */\n      0xffffffff\n      and\n      dup2\n      sload\n      dup2\n      lt\n      tag_576\n      jumpi\n      invalid\n    tag_576:\n      swap1\n      0x00\n      mstore\n      keccak256(0x00, 0x20)\n      swap1\n      0x06\n      mul\n      add\n        /* \"Entity.sol\":3245:3276  pendingDataToReceive[index].key */\n      0x03\n      add\n        /* \"Entity.sol\":3277:3278  i */\n      dup4\n        /* \"Entity.sol\":3245:3279  pendingDataToReceive[index].key[i] */\n      0xffffffff\n      and\n      dup2\n      sload\n      dup2\n      lt\n      tag_578\n      jumpi\n      invalid\n    tag_578:\n      swap1\n      0x00\n      mstore\n      keccak256(0x00, 0x20)\n      add\n        /* \"Entity.sol\":3228:3280  toApprove.column[pendingDataToReceive[index].key[i]] */\n      mload(0x40)\n      dup1\n      dup3\n      dup1\n      sload\n      0x01\n      dup2\n      0x01\n      and\n      iszero\n      0x0100\n      mul\n      sub\n      and\n      0x02\n      swap1\n      div\n      dup1\n      iszero\n      tag_580\n      jumpi\n      dup1\n      0x1f\n      lt\n      tag_581\n      jumpi\n      0x0100\n      dup1\n      dup4\n      sload\n      div\n      mul\n      dup4\n      mstore\n      swap2\n      dup3\n      add\n      swap2\n      jump(tag_580)\n    tag_581:\n      dup3\n      add\n      swap2\n      swap1\n      0x00\n      mstore\n      keccak256(0x00, 0x20)\n      swap1\n    tag_582:\n      dup2\n      sload\n      dup2\n      mstore\n      swap1\n      0x01\n      add\n      swap1\n      0x20\n      add\n      dup1\n      dup4\n      gt\n      tag_582\n      jumpi\n    tag_580:\n      pop\n      pop\n      swap3\n      dup4\n      mstore\n      pop\n      pop\n      mload(0x40)\n      swap1\n      dup2\n      swap1\n      sub\n      0x20\n      add\n      swap1\n      keccak256\n        /* \"Entity.sol\":3228:3319  toApprove.column[pendingDataToReceive[index].key[i]] = pendingDataToReceive[index].value[i] */\n      dup2\n      sload\n      tag_583\n      swap3\n      swap1\n      0x02\n      not(0x00)\n      0x0100\n      0x01\n      dup5\n      and\n      iszero\n      mul\n      add\n      swap1\n      swap2\n      and\n      div\n      tag_584\n      jump\t// in\n    tag_583:\n      pop\n        /* \"Entity.sol\":3338:3347  toApprove */\n      dup2\n        /* \"Entity.sol\":3338:3360  toApprove.keyExistence */\n      0x01\n      add\n        /* \"Entity.sol\":3361:3381  pendingDataToReceive */\n      0x09\n        /* \"Entity.sol\":3382:3387  index */\n      dup5\n        /* \"Entity.sol\":3361:3388  pendingDataToReceive[index] */\n      0xffffffff\n      and\n      dup2\n      sload\n      dup2\n      lt\n      tag_585\n      jumpi\n      invalid\n    tag_585:\n      swap1\n      0x00\n      mstore\n      keccak256(0x00, 0x20)\n      swap1\n      0x06\n      mul\n      add\n        /* \"Entity.sol\":3361:3392  pendingDataToReceive[index].key */\n      0x03\n      add\n        /* \"Entity.sol\":3393:3394  i */\n      dup3\n        /* \"Entity.sol\":3361:3395  pendingDataToReceive[index].key[i] */\n      0xffffffff\n      and\n      dup2\n      sload\n      dup2\n      lt\n      tag_587\n      jumpi\n      invalid\n    tag_587:\n      swap1\n      0x00\n      mstore\n      keccak256(0x00, 0x20)\n      add\n        /* \"Entity.sol\":3338:3396  toApprove.keyExistence[pendingDataToReceive[index].key[i]] */\n      mload(0x40)\n      dup1\n      dup3\n      dup1\n      sload\n      0x01\n      dup2\n      0x01\n      and\n      iszero\n      0x0100\n      mul\n      sub\n      and\n      0x02\n      swap1\n      div\n      dup1\n      iszero\n      tag_589\n      jumpi\n      dup1\n      0x1f\n      lt\n      tag_590\n      jumpi\n      0x0100\n      dup1\n      dup4\n      sload\n      div\n      mul\n      dup4\n      mstore\n      swap2\n      dup3\n      add\n      swap2\n      jump(tag_589)\n    tag_590:\n      dup3\n      add\n      swap2\n      swap1\n      0x00\n      mstore\n      keccak256(0x00, 0x20)\n      swap1\n    tag_591:\n      dup2\n      sload\n      dup2\n      mstore\n      swap1\n      0x01\n      add\n      swap1\n      0x20\n      add\n      dup1\n      dup4\n      gt\n      tag_591\n      jumpi\n    tag_589:\n      pop\n      pop\n      swap3\n      dup4\n      mstore\n      pop\n      pop\n      mload(0x40)\n      swap1\n      dup2\n      swap1\n      sub\n      0x20\n      add\n      swap1\n      keccak256\n      sload\n      0xff\n      and\n        /* \"Entity.sol\":3334:3679  if(!toApprove.keyExistence[pendingDataToReceive[index].key[i]]){\r... */\n      tag_592\n      jumpi\n        /* \"Entity.sol\":3479:3488  toApprove */\n      dup2\n        /* \"Entity.sol\":3479:3493  toApprove.keys */\n      0x02\n      add\n        /* \"Entity.sol\":3543:3563  pendingDataToReceive */\n      0x09\n        /* \"Entity.sol\":3564:3569  index */\n      dup5\n        /* \"Entity.sol\":3543:3570  pendingDataToReceive[index] */\n      0xffffffff\n      and\n      dup2\n      sload\n      dup2\n      lt\n      tag_593\n      jumpi\n      invalid\n    tag_593:\n      swap1\n      0x00\n      mstore\n      keccak256(0x00, 0x20)\n      swap1\n      0x06\n      mul\n      add\n        /* \"Entity.sol\":3543:3574  pendingDataToReceive[index].key */\n      0x03\n      add\n        /* \"Entity.sol\":3575:3576  i */\n      dup3\n        /* \"Entity.sol\":3543:3577  pendingDataToReceive[index].key[i] */\n      0xffffffff\n      and\n      dup2\n      sload\n      dup2\n      lt\n      tag_595\n      jumpi\n      invalid\n    tag_595:\n      swap1\n      0x00\n      mstore\n      keccak256(0x00, 0x20)\n      add\n        /* \"Entity.sol\":3440:3578  abi.encodePacked(\r... */\n      add(0x20, mload(0x40))\n      dup1\n      dup4\n      dup1\n      sload\n      0x01\n      dup2\n      0x01\n      and\n      iszero\n      0x0100\n      mul\n      sub\n      and\n      0x02\n      swap1\n      div\n      dup1\n      iszero\n      tag_597\n      jumpi\n      dup1\n      0x1f\n      lt\n      tag_598\n      jumpi\n      0x0100\n      dup1\n      dup4\n      sload\n      div\n      mul\n      dup4\n      mstore\n      swap2\n      dup3\n      add\n      swap2\n      jump(tag_597)\n    tag_598:\n      dup3\n      add\n      swap2\n      swap1\n      0x00\n      mstore\n      keccak256(0x00, 0x20)\n      swap1\n    tag_599:\n      dup2\n      sload\n      dup2\n      mstore\n      swap1\n      0x01\n      add\n      swap1\n      0x20\n      add\n      dup1\n      dup4\n      gt\n      tag_599\n      jumpi\n    tag_597:\n      pop\n      pop\n      dup1\n      shl(0xf5, 0x0161)\n      dup2\n      mstore\n      pop\n      0x02\n      add\n      dup3\n      dup1\n      sload\n      0x01\n      dup2\n      0x01\n      and\n      iszero\n      0x0100\n      mul\n      sub\n      and\n      0x02\n      swap1\n      div\n      dup1\n      iszero\n      tag_600\n      jumpi\n      dup1\n      0x1f\n      lt\n      tag_601\n      jumpi\n      0x0100\n      dup1\n      dup4\n      sload\n      div\n      mul\n      dup4\n      mstore\n      swap2\n      dup3\n      add\n      swap2\n      jump(tag_600)\n    tag_601:\n      dup3\n      add\n      swap2\n      swap1\n      0x00\n      mstore\n      keccak256(0x00, 0x20)\n      swap1\n    tag_602:\n      dup2\n      sload\n      dup2\n      mstore\n      swap1\n      0x01\n      add\n      swap1\n      0x20\n      add\n      dup1\n      dup4\n      gt\n      tag_602\n      jumpi\n    tag_600:\n      pop\n      pop\n      0x40\n      dup1\n      mload\n      not(0x1f)\n        /* \"--CODEGEN--\":26:47   */\n      dup2\n      dup5\n      sub\n        /* \"--CODEGEN--\":22:54   */\n      add\n        /* \"--CODEGEN--\":6:55   */\n      dup2\n      mstore\n        /* \"Entity.sol\":3440:3578  abi.encodePacked(\r... */\n      swap2\n      swap1\n      mstore\n        /* \"Entity.sol\":3416:3579  toApprove.keys = string(abi.encodePacked(\r... */\n      dup1\n      mload\n      tag_603\n      swap5\n      pop\n        /* \"Entity.sol\":3416:3430  toApprove.keys */\n      0x02\n      dup8\n      add\n      swap4\n      pop\n        /* \"--CODEGEN--\":49:53   */\n      0x20\n        /* \"Entity.sol\":3416:3579  toApprove.keys = string(abi.encodePacked(\r... */\n      swap1\n      swap2\n      add\n      swap2\n      pop\n      tag_429\n      jump\t// in\n    tag_603:\n      pop\n        /* \"Entity.sol\":3659:3663  true */\n      0x01\n        /* \"Entity.sol\":3598:3607  toApprove */\n      dup3\n        /* \"Entity.sol\":3598:3620  toApprove.keyExistence */\n      0x01\n      add\n        /* \"Entity.sol\":3621:3641  pendingDataToReceive */\n      0x09\n        /* \"Entity.sol\":3642:3647  index */\n      dup6\n        /* \"Entity.sol\":3621:3648  pendingDataToReceive[index] */\n      0xffffffff\n      and\n      dup2\n      sload\n      dup2\n      lt\n      tag_604\n      jumpi\n      invalid\n    tag_604:\n      swap1\n      0x00\n      mstore\n      keccak256(0x00, 0x20)\n      swap1\n      0x06\n      mul\n      add\n        /* \"Entity.sol\":3621:3652  pendingDataToReceive[index].key */\n      0x03\n      add\n        /* \"Entity.sol\":3653:3654  i */\n      dup4\n        /* \"Entity.sol\":3621:3655  pendingDataToReceive[index].key[i] */\n      0xffffffff\n      and\n      dup2\n      sload\n      dup2\n      lt\n      tag_606\n      jumpi\n      invalid\n    tag_606:\n      swap1\n      0x00\n      mstore\n      keccak256(0x00, 0x20)\n      add\n        /* \"Entity.sol\":3598:3656  toApprove.keyExistence[pendingDataToReceive[index].key[i]] */\n      mload(0x40)\n      dup1\n      dup3\n      dup1\n      sload\n      0x01\n      dup2\n      0x01\n      and\n      iszero\n      0x0100\n      mul\n      sub\n      and\n      0x02\n      swap1\n      div\n      dup1\n      iszero\n      tag_608\n      jumpi\n      dup1\n      0x1f\n      lt\n      tag_609\n      jumpi\n      0x0100\n      dup1\n      dup4\n      sload\n      div\n      mul\n      dup4\n      mstore\n      swap2\n      dup3\n      add\n      swap2\n      jump(tag_608)\n    tag_609:\n      dup3\n      add\n      swap2\n      swap1\n      0x00\n      mstore\n      keccak256(0x00, 0x20)\n      swap1\n    tag_610:\n      dup2\n      sload\n      dup2\n      mstore\n      swap1\n      0x01\n      add\n      swap1\n      0x20\n      add\n      dup1\n      dup4\n      gt\n      tag_610\n      jumpi\n    tag_608:\n      pop\n      pop\n      swap3\n      dup4\n      mstore\n      pop\n      pop\n      mload(0x40)\n      swap1\n      dup2\n      swap1\n      sub\n      0x20\n      add\n      swap1\n      keccak256\n        /* \"Entity.sol\":3598:3663  toApprove.keyExistence[pendingDataToReceive[index].key[i]] = true */\n      dup1\n      sload\n      swap2\n      iszero\n      iszero\n      not(0xff)\n      swap1\n      swap3\n      and\n      swap2\n      swap1\n      swap2\n      or\n      swap1\n      sstore\n        /* \"Entity.sol\":3334:3679  if(!toApprove.keyExistence[pendingDataToReceive[index].key[i]]){\r... */\n    tag_592:\n        /* \"Entity.sol\":3209:3212  i++ */\n      0x01\n      add\n        /* \"Entity.sol\":3151:3690  for(uint32 i=0; i<pendingDataToReceive[index].key.length; i++){\r... */\n      jump(tag_567)\n    tag_568:\n      pop\n        /* \"Entity.sol\":3704:3714  hasWritten */\n      0x06\n        /* \"Entity.sol\":3704:3750  hasWritten[pendingDataToReceive[index].source] */\n      0x00\n        /* \"Entity.sol\":3715:3735  pendingDataToReceive */\n      0x09\n        /* \"Entity.sol\":3736:3741  index */\n      dup5\n        /* \"Entity.sol\":3715:3742  pendingDataToReceive[index] */\n      0xffffffff\n      and\n      dup2\n      sload\n      dup2\n      lt\n      tag_611\n      jumpi\n      invalid\n    tag_611:\n      0x00\n      swap2\n      dup3\n      mstore\n      0x20\n      dup1\n      dup4\n      keccak256\n      0x06\n      swap1\n      swap3\n      mul\n      swap1\n      swap2\n      add\n        /* \"Entity.sol\":3715:3749  pendingDataToReceive[index].source */\n      sload\n      sub(shl(0xa0, 0x01), 0x01)\n      and\n        /* \"Entity.sol\":3704:3750  hasWritten[pendingDataToReceive[index].source] */\n      dup4\n      mstore\n      dup3\n      add\n      swap3\n      swap1\n      swap3\n      mstore\n      0x40\n      add\n      swap1\n      keccak256\n      sload\n      0xff\n      and\n        /* \"Entity.sol\":3700:3897  if(!hasWritten[pendingDataToReceive[index].source]){\r... */\n      tag_613\n      jumpi\n        /* \"Entity.sol\":3766:3776  dataSource */\n      0x05\n        /* \"Entity.sol\":3782:3802  pendingDataToReceive */\n      0x09\n        /* \"Entity.sol\":3803:3808  index */\n      dup4\n        /* \"Entity.sol\":3782:3809  pendingDataToReceive[index] */\n      0xffffffff\n      and\n      dup2\n      sload\n      dup2\n      lt\n      tag_614\n      jumpi\n      invalid\n    tag_614:\n      0x00\n      swap2\n      dup3\n      mstore\n      0x20\n      dup1\n      dup4\n      keccak256\n      0x06\n      swap3\n      dup4\n      mul\n      add\n        /* \"Entity.sol\":3782:3816  pendingDataToReceive[index].source */\n      sload\n        /* \"--CODEGEN--\":27:37   */\n      dup5\n      sload\n        /* \"Entity.sol\":3782:3816  pendingDataToReceive[index].source */\n      0x01\n        /* \"--CODEGEN--\":23:41   */\n      dup2\n      dup2\n      add\n        /* \"--CODEGEN--\":45:68   */\n      dup8\n      sstore\n        /* \"Entity.sol\":3766:3817  dataSource.push(pendingDataToReceive[index].source) */\n      swap6\n      dup6\n      mstore\n      swap2\n      dup5\n      keccak256\n      swap1\n      swap2\n      add\n      dup1\n      sload\n      not(sub(shl(0xa0, 0x01), 0x01))\n      and\n      sub(shl(0xa0, 0x01), 0x01)\n        /* \"Entity.sol\":3782:3816  pendingDataToReceive[index].source */\n      swap1\n      swap3\n      and\n        /* \"Entity.sol\":3766:3817  dataSource.push(pendingDataToReceive[index].source) */\n      swap2\n      swap1\n      swap2\n      or\n      swap1\n      sstore\n        /* \"Entity.sol\":3843:3863  pendingDataToReceive */\n      0x09\n        /* \"Entity.sol\":3843:3870  pendingDataToReceive[index] */\n      dup1\n      sload\n        /* \"Entity.sol\":3782:3809  pendingDataToReceive[index] */\n      swap2\n      swap3\n      swap2\n        /* \"Entity.sol\":3843:3870  pendingDataToReceive[index] */\n      0xffffffff\n      dup8\n      and\n      swap1\n      dup2\n      lt\n      tag_617\n      jumpi\n      invalid\n    tag_617:\n      0x00\n      swap2\n      dup3\n      mstore\n      0x20\n      dup1\n      dup4\n      keccak256\n      0x06\n      swap3\n      swap1\n      swap3\n      mul\n      swap1\n      swap2\n      add\n        /* \"Entity.sol\":3843:3877  pendingDataToReceive[index].source */\n      sload\n      sub(shl(0xa0, 0x01), 0x01)\n      and\n        /* \"Entity.sol\":3832:3878  hasWritten[pendingDataToReceive[index].source] */\n      dup4\n      mstore\n      dup3\n      add\n      swap3\n      swap1\n      swap3\n      mstore\n      0x40\n      add\n      swap1\n      keccak256\n        /* \"Entity.sol\":3832:3885  hasWritten[pendingDataToReceive[index].source] = true */\n      dup1\n      sload\n      not(0xff)\n      and\n      swap2\n      iszero\n      iszero\n      swap2\n      swap1\n      swap2\n      or\n      swap1\n      sstore\n        /* \"Entity.sol\":3700:3897  if(!hasWritten[pendingDataToReceive[index].source]){\r... */\n    tag_613:\n        /* \"Entity.sol\":3911:3929  writtenDescription */\n      0x08\n        /* \"Entity.sol\":3911:3965  writtenDescription[pendingDataToReceive[index].source] */\n      0x00\n        /* \"Entity.sol\":3930:3950  pendingDataToReceive */\n      0x09\n        /* \"Entity.sol\":3951:3956  index */\n      dup5\n        /* \"Entity.sol\":3930:3957  pendingDataToReceive[index] */\n      0xffffffff\n      and\n      dup2\n      sload\n      dup2\n      lt\n      tag_619\n      jumpi\n      invalid\n    tag_619:\n      0x00\n      swap2\n      dup3\n      mstore\n      0x20\n      dup1\n      dup4\n      keccak256\n      0x06\n      swap1\n      swap3\n      mul\n      swap1\n      swap2\n      add\n        /* \"Entity.sol\":3930:3964  pendingDataToReceive[index].source */\n      sload\n      sub(shl(0xa0, 0x01), 0x01)\n      and\n        /* \"Entity.sol\":3911:3965  writtenDescription[pendingDataToReceive[index].source] */\n      dup4\n      mstore\n      dup3\n      add\n      swap3\n      swap1\n      swap3\n      mstore\n      0x40\n      add\n      swap1\n      keccak256\n        /* \"Entity.sol\":3966:3986  pendingDataToReceive */\n      0x09\n        /* \"Entity.sol\":3966:3993  pendingDataToReceive[index] */\n      dup1\n      sload\n      0xffffffff\n      dup6\n      and\n      swap1\n      dup2\n      lt\n      tag_621\n      jumpi\n      invalid\n    tag_621:\n      swap1\n      0x00\n      mstore\n      keccak256(0x00, 0x20)\n      swap1\n      0x06\n      mul\n      add\n        /* \"Entity.sol\":3966:4005  pendingDataToReceive[index].description */\n      0x02\n      add\n        /* \"Entity.sol\":3911:4006  writtenDescription[pendingDataToReceive[index].source][pendingDataToReceive[index].description] */\n      mload(0x40)\n      dup1\n      dup3\n      dup1\n      sload\n      0x01\n      dup2\n      0x01\n      and\n      iszero\n      0x0100\n      mul\n      sub\n      and\n      0x02\n      swap1\n      div\n      dup1\n      iszero\n      tag_623\n      jumpi\n      dup1\n      0x1f\n      lt\n      tag_624\n      jumpi\n      0x0100\n      dup1\n      dup4\n      sload\n      div\n      mul\n      dup4\n      mstore\n      swap2\n      dup3\n      add\n      swap2\n      jump(tag_623)\n    tag_624:\n      dup3\n      add\n      swap2\n      swap1\n      0x00\n      mstore\n      keccak256(0x00, 0x20)\n      swap1\n    tag_625:\n      dup2\n      sload\n      dup2\n      mstore\n      swap1\n      0x01\n      add\n      swap1\n      0x20\n      add\n      dup1\n      dup4\n      gt\n      tag_625\n      jumpi\n    tag_623:\n      pop\n      pop\n      swap3\n      dup4\n      mstore\n      pop\n      pop\n      mload(0x40)\n      swap1\n      dup2\n      swap1\n      sub\n      0x20\n      add\n      swap1\n      keccak256\n      sload\n      0xff\n      and\n        /* \"Entity.sol\":3907:4253  if(!writtenDescription[pendingDataToReceive[index].source][pendingDataToReceive[index].description]){\r... */\n      tag_626\n      jumpi\n        /* \"Entity.sol\":4022:4042  descriptionsBySource */\n      0x07\n        /* \"Entity.sol\":4022:4078  descriptionsBySource[pendingDataToReceive[index].source] */\n      0x00\n        /* \"Entity.sol\":4043:4063  pendingDataToReceive */\n      0x09\n        /* \"Entity.sol\":4064:4069  index */\n      dup5\n        /* \"Entity.sol\":4043:4070  pendingDataToReceive[index] */\n      0xffffffff\n      and\n      dup2\n      sload\n      dup2\n      lt\n      tag_627\n      jumpi\n      invalid\n    tag_627:\n      0x00\n      swap2\n      dup3\n      mstore\n      0x20\n      dup1\n      dup4\n      keccak256\n      0x06\n      swap1\n      swap3\n      mul\n      swap1\n      swap2\n      add\n        /* \"Entity.sol\":4043:4077  pendingDataToReceive[index].source */\n      sload\n      sub(shl(0xa0, 0x01), 0x01)\n      and\n        /* \"Entity.sol\":4022:4078  descriptionsBySource[pendingDataToReceive[index].source] */\n      dup4\n      mstore\n      dup3\n      add\n      swap3\n      swap1\n      swap3\n      mstore\n      0x40\n      add\n      swap1\n      keccak256\n        /* \"Entity.sol\":4084:4104  pendingDataToReceive */\n      0x09\n        /* \"Entity.sol\":4084:4111  pendingDataToReceive[index] */\n      dup1\n      sload\n      0xffffffff\n      dup6\n      and\n      swap1\n      dup2\n      lt\n      tag_629\n      jumpi\n      invalid\n    tag_629:\n      0x00\n      swap2\n      dup3\n      mstore\n      0x20\n      dup1\n      dup4\n      keccak256\n        /* \"--CODEGEN--\":27:37   */\n      dup5\n      sload\n        /* \"--CODEGEN--\":39:40   */\n      0x01\n        /* \"--CODEGEN--\":23:41   */\n      dup1\n      dup3\n      add\n        /* \"--CODEGEN--\":45:68   */\n      dup8\n      sstore\n        /* \"Entity.sol\":4022:4124  descriptionsBySource[pendingDataToReceive[index].source].push(pendingDataToReceive[index].description) */\n      swap6\n      dup6\n      mstore\n      swap2\n      swap1\n      swap4\n      keccak256\n        /* \"Entity.sol\":4084:4111  pendingDataToReceive[index] */\n      0x06\n      swap3\n      swap1\n      swap3\n      mul\n      swap1\n      swap3\n      add\n        /* \"Entity.sol\":4084:4123  pendingDataToReceive[index].description */\n      0x02\n      swap1\n      dup2\n      add\n        /* \"Entity.sol\":4022:4124  descriptionsBySource[pendingDataToReceive[index].source].push(pendingDataToReceive[index].description) */\n      dup1\n      sload\n      tag_632\n      swap6\n      swap4\n      swap1\n      swap5\n      add\n      swap4\n        /* \"Entity.sol\":4084:4123  pendingDataToReceive[index].description */\n      swap1\n      swap3\n      not(0x00)\n        /* \"Entity.sol\":4022:4124  descriptionsBySource[pendingDataToReceive[index].source].push(pendingDataToReceive[index].description) */\n      swap1\n      dup3\n      and\n      iszero\n      0x0100\n      mul\n      add\n      and\n      div\n      tag_584\n      jump\t// in\n    tag_632:\n      pop\n        /* \"Entity.sol\":4237:4241  true */\n      0x01\n        /* \"Entity.sol\":4139:4157  writtenDescription */\n      0x08\n        /* \"Entity.sol\":4139:4193  writtenDescription[pendingDataToReceive[index].source] */\n      0x00\n        /* \"Entity.sol\":4158:4178  pendingDataToReceive */\n      0x09\n        /* \"Entity.sol\":4179:4184  index */\n      dup6\n        /* \"Entity.sol\":4158:4185  pendingDataToReceive[index] */\n      0xffffffff\n      and\n      dup2\n      sload\n      dup2\n      lt\n      tag_633\n      jumpi\n      invalid\n    tag_633:\n      0x00\n      swap2\n      dup3\n      mstore\n      0x20\n      dup1\n      dup4\n      keccak256\n      0x06\n      swap1\n      swap3\n      mul\n      swap1\n      swap2\n      add\n        /* \"Entity.sol\":4158:4192  pendingDataToReceive[index].source */\n      sload\n      sub(shl(0xa0, 0x01), 0x01)\n      and\n        /* \"Entity.sol\":4139:4193  writtenDescription[pendingDataToReceive[index].source] */\n      dup4\n      mstore\n      dup3\n      add\n      swap3\n      swap1\n      swap3\n      mstore\n      0x40\n      add\n      swap1\n      keccak256\n        /* \"Entity.sol\":4194:4214  pendingDataToReceive */\n      0x09\n        /* \"Entity.sol\":4194:4221  pendingDataToReceive[index] */\n      dup1\n      sload\n      0xffffffff\n      dup7\n      and\n      swap1\n      dup2\n      lt\n      tag_635\n      jumpi\n      invalid\n    tag_635:\n      swap1\n      0x00\n      mstore\n      keccak256(0x00, 0x20)\n      swap1\n      0x06\n      mul\n      add\n        /* \"Entity.sol\":4194:4233  pendingDataToReceive[index].description */\n      0x02\n      add\n        /* \"Entity.sol\":4139:4234  writtenDescription[pendingDataToReceive[index].source][pendingDataToReceive[index].description] */\n      mload(0x40)\n      dup1\n      dup3\n      dup1\n      sload\n      0x01\n      dup2\n      0x01\n      and\n      iszero\n      0x0100\n      mul\n      sub\n      and\n      0x02\n      swap1\n      div\n      dup1\n      iszero\n      tag_637\n      jumpi\n      dup1\n      0x1f\n      lt\n      tag_638\n      jumpi\n      0x0100\n      dup1\n      dup4\n      sload\n      div\n      mul\n      dup4\n      mstore\n      swap2\n      dup3\n      add\n      swap2\n      jump(tag_637)\n    tag_638:\n      dup3\n      add\n      swap2\n      swap1\n      0x00\n      mstore\n      keccak256(0x00, 0x20)\n      swap1\n    tag_639:\n      dup2\n      sload\n      dup2\n      mstore\n      swap1\n      0x01\n      add\n      swap1\n      0x20\n      add\n      dup1\n      dup4\n      gt\n      tag_639\n      jumpi\n    tag_637:\n      pop\n      pop\n      swap3\n      dup4\n      mstore\n      pop\n      pop\n      mload(0x40)\n      swap1\n      dup2\n      swap1\n      sub\n      0x20\n      add\n      swap1\n      keccak256\n        /* \"Entity.sol\":4139:4241  writtenDescription[pendingDataToReceive[index].source][pendingDataToReceive[index].description] = true */\n      dup1\n      sload\n      swap2\n      iszero\n      iszero\n      not(0xff)\n      swap1\n      swap3\n      and\n      swap2\n      swap1\n      swap2\n      or\n      swap1\n      sstore\n        /* \"Entity.sol\":3907:4253  if(!writtenDescription[pendingDataToReceive[index].source][pendingDataToReceive[index].description]){\r... */\n    tag_626:\n        /* \"Entity.sol\":4302:4306  true */\n      0x01\n        /* \"Entity.sol\":4263:4283  pendingDataToReceive */\n      0x09\n        /* \"Entity.sol\":4284:4289  index */\n      dup4\n        /* \"Entity.sol\":4263:4290  pendingDataToReceive[index] */\n      0xffffffff\n      and\n      dup2\n      sload\n      dup2\n      lt\n      tag_640\n      jumpi\n      invalid\n    tag_640:\n      0x00\n      swap2\n      dup3\n      mstore\n      0x20\n      swap1\n      swap2\n      keccak256\n      0x06\n      swap1\n      swap2\n      mul\n      add\n        /* \"Entity.sol\":4263:4299  pendingDataToReceive[index].approved */\n      0x05\n      add\n        /* \"Entity.sol\":4263:4306  pendingDataToReceive[index].approved = true */\n      dup1\n      sload\n      not(0xff)\n      and\n      swap2\n      iszero\n      iszero\n      swap2\n      swap1\n      swap2\n      or\n      swap1\n      sstore\n      pop\n      pop\n        /* \"Entity.sol\":2887:4314  function _approveDataToReceive(uint32 index) \r... */\n      jump\t// out\n        /* \"strings.sol\":3559:3775  function toSlice(string memory self) internal pure returns (slice memory) {\r... */\n    tag_437:\n        /* \"strings.sol\":3619:3631  slice memory */\n      tag_642\n      tag_435\n      jump\t// in\n    tag_642:\n      pop\n        /* \"strings.sol\":3737:3767  slice(bytes(self).length, ptr) */\n      0x40\n      dup1\n      mload\n      dup1\n      dup3\n      add\n      swap1\n      swap2\n      mstore\n        /* \"strings.sol\":3743:3761  bytes(self).length */\n      dup2\n      mload\n        /* \"strings.sol\":3737:3767  slice(bytes(self).length, ptr) */\n      dup2\n      mstore\n        /* \"strings.sol\":3704:3708  0x20 */\n      0x20\n        /* \"strings.sol\":3694:3709  add(self, 0x20) */\n      dup3\n      dup2\n      add\n        /* \"strings.sol\":3737:3767  slice(bytes(self).length, ptr) */\n      swap1\n      dup3\n      add\n      mstore\n        /* \"strings.sol\":3559:3775  function toSlice(string memory self) internal pure returns (slice memory) {\r... */\n      swap2\n      swap1\n      pop\n      jump\t// out\n        /* \"strings.sol\":24217:24587  function count(slice memory self, slice memory needle) internal pure returns (uint cnt) {\r... */\n    tag_443:\n        /* \"strings.sol\":24295:24303  uint cnt */\n      0x00\n        /* \"strings.sol\":24316:24324  uint ptr */\n      dup1\n        /* \"strings.sol\":24385:24391  needle */\n      dup3\n        /* \"strings.sol\":24385:24396  needle._len */\n      0x00\n      add\n      mload\n        /* \"strings.sol\":24327:24382  findPtr(self._len, self._ptr, needle._len, needle._ptr) */\n      tag_645\n        /* \"strings.sol\":24335:24339  self */\n      dup6\n        /* \"strings.sol\":24335:24344  self._len */\n      0x00\n      add\n      mload\n        /* \"strings.sol\":24346:24350  self */\n      dup7\n        /* \"strings.sol\":24346:24355  self._ptr */\n      0x20\n      add\n      mload\n        /* \"strings.sol\":24357:24363  needle */\n      dup7\n        /* \"strings.sol\":24357:24368  needle._len */\n      0x00\n      add\n      mload\n        /* \"strings.sol\":24370:24376  needle */\n      dup8\n        /* \"strings.sol\":24370:24381  needle._ptr */\n      0x20\n      add\n      mload\n        /* \"strings.sol\":24327:24334  findPtr */\n      tag_646\n        /* \"strings.sol\":24327:24382  findPtr(self._len, self._ptr, needle._len, needle._ptr) */\n      jump\t// in\n    tag_645:\n        /* \"strings.sol\":24327:24396  findPtr(self._len, self._ptr, needle._len, needle._ptr) + needle._len */\n      add\n        /* \"strings.sol\":24316:24396  uint ptr = findPtr(self._len, self._ptr, needle._len, needle._ptr) + needle._len */\n      swap1\n      pop\n        /* \"strings.sol\":24407:24580  while (ptr <= self._ptr + self._len) {\r... */\n    tag_647:\n        /* \"strings.sol\":24433:24442  self._len */\n      dup4\n      mload\n        /* \"strings.sol\":24421:24430  self._ptr */\n      0x20\n      dup6\n      add\n      mload\n        /* \"strings.sol\":24421:24442  self._ptr + self._len */\n      add\n        /* \"strings.sol\":24414:24442  ptr <= self._ptr + self._len */\n      dup2\n      gt\n        /* \"strings.sol\":24407:24580  while (ptr <= self._ptr + self._len) {\r... */\n      tag_648\n      jumpi\n        /* \"strings.sol\":24557:24568  needle._len */\n      dup3\n      mload\n        /* \"strings.sol\":24512:24521  self._ptr */\n      0x20\n      dup1\n      dup7\n      add\n      mload\n        /* \"strings.sol\":24493:24502  self._len */\n      dup7\n      mload\n        /* \"strings.sol\":24542:24553  needle._ptr */\n      swap2\n      dup7\n      add\n      mload\n        /* \"strings.sol\":24459:24464  cnt++ */\n      0x01\n      swap1\n      swap6\n      add\n      swap5\n        /* \"strings.sol\":24485:24554  findPtr(self._len - (ptr - self._ptr), ptr, needle._len, needle._ptr) */\n      tag_649\n      swap3\n        /* \"strings.sol\":24506:24521  ptr - self._ptr */\n      swap2\n      dup6\n      sub\n        /* \"strings.sol\":24493:24522  self._len - (ptr - self._ptr) */\n      swap1\n      swap2\n      sub\n      swap1\n        /* \"strings.sol\":24506:24509  ptr */\n      dup5\n      swap1\n        /* \"strings.sol\":24557:24568  needle._len */\n      dup5\n      swap1\n        /* \"strings.sol\":24485:24492  findPtr */\n      tag_646\n        /* \"strings.sol\":24485:24554  findPtr(self._len - (ptr - self._ptr), ptr, needle._len, needle._ptr) */\n      jump\t// in\n    tag_649:\n        /* \"strings.sol\":24485:24568  findPtr(self._len - (ptr - self._ptr), ptr, needle._len, needle._ptr) + needle._len */\n      add\n        /* \"strings.sol\":24479:24568  ptr = findPtr(self._len - (ptr - self._ptr), ptr, needle._len, needle._ptr) + needle._len */\n      swap1\n      pop\n        /* \"strings.sol\":24407:24580  while (ptr <= self._ptr + self._len) {\r... */\n      jump(tag_647)\n    tag_648:\n        /* \"strings.sol\":24217:24587  function count(slice memory self, slice memory needle) internal pure returns (uint cnt) {\r... */\n      pop\n      swap3\n      swap2\n      pop\n      pop\n      jump\t// out\n        /* \"strings.sol\":22185:22328  function split(slice memory self, slice memory needle) internal pure returns (slice memory token) {\r... */\n    tag_455:\n        /* \"strings.sol\":22263:22281  slice memory token */\n      tag_650\n      tag_435\n      jump\t// in\n    tag_650:\n        /* \"strings.sol\":22294:22320  split(self, needle, token) */\n      tag_648\n        /* \"strings.sol\":22300:22304  self */\n      dup4\n        /* \"strings.sol\":22306:22312  needle */\n      dup4\n        /* \"strings.sol\":22314:22319  token */\n      dup4\n        /* \"strings.sol\":22294:22299  split */\n      tag_653\n        /* \"strings.sol\":22294:22320  split(self, needle, token) */\n      jump\t// in\n        /* \"strings.sol\":6004:6276  function toString(slice memory self) internal pure returns (string memory) {\r... */\n    tag_456:\n        /* \"strings.sol\":6064:6077  string memory */\n      0x60\n        /* \"strings.sol\":6090:6107  string memory ret */\n      dup1\n        /* \"strings.sol\":6121:6125  self */\n      dup3\n        /* \"strings.sol\":6121:6130  self._len */\n      0x00\n      add\n      mload\n        /* \"strings.sol\":6110:6131  new string(self._len) */\n      0xffffffffffffffff\n      dup2\n      gt\n        /* \"--CODEGEN--\":5:14   */\n      dup1\n        /* \"--CODEGEN--\":2:4   */\n      iszero\n      tag_655\n      jumpi\n        /* \"--CODEGEN--\":27:28   */\n      0x00\n        /* \"--CODEGEN--\":24:25   */\n      dup1\n        /* \"--CODEGEN--\":17:29   */\n      revert\n        /* \"--CODEGEN--\":2:4   */\n    tag_655:\n        /* \"strings.sol\":6110:6131  new string(self._len) */\n      pop\n      mload(0x40)\n      swap1\n      dup1\n      dup3\n      mstore\n      dup1\n      0x1f\n      add\n      not(0x1f)\n      and\n      0x20\n      add\n      dup3\n      add\n      0x40\n      mstore\n      dup1\n      iszero\n      tag_656\n      jumpi\n      0x20\n      dup3\n      add\n        /* \"--CODEGEN--\":21:27   */\n      dup2\n      dup1\n        /* \"--CODEGEN--\":108:122   */\n      calldatasize\n        /* \"strings.sol\":6110:6131  new string(self._len) */\n      dup4\n        /* \"--CODEGEN--\":87:129   */\n      calldatacopy\n        /* \"--CODEGEN--\":143:160   */\n      add\n      swap1\n      pop\n        /* \"strings.sol\":6110:6131  new string(self._len) */\n    tag_656:\n      pop\n        /* \"strings.sol\":6090:6131  string memory ret = new string(self._len) */\n      swap1\n      pop\n        /* \"strings.sol\":6142:6153  uint retptr */\n      0x00\n        /* \"strings.sol\":6194:6196  32 */\n      0x20\n        /* \"strings.sol\":6189:6192  ret */\n      dup3\n        /* \"strings.sol\":6185:6197  add(ret, 32) */\n      add\n        /* \"strings.sol\":6175:6197  retptr := add(ret, 32) */\n      swap1\n      pop\n        /* \"strings.sol\":6211:6247  memcpy(retptr, self._ptr, self._len) */\n      tag_648\n        /* \"strings.sol\":6218:6224  retptr */\n      dup2\n        /* \"strings.sol\":6226:6230  self */\n      dup6\n        /* \"strings.sol\":6226:6235  self._ptr */\n      0x20\n      add\n      mload\n        /* \"strings.sol\":6237:6241  self */\n      dup7\n        /* \"strings.sol\":6237:6246  self._len */\n      0x00\n      add\n      mload\n        /* \"strings.sol\":6211:6217  memcpy */\n      tag_658\n        /* \"strings.sol\":6211:6247  memcpy(retptr, self._ptr, self._len) */\n      jump\t// in\n        /* \"strings.sol\":16475:17884  function findPtr(uint selflen, uint selfptr, uint needlelen, uint needleptr) private pure returns (uint) {\r... */\n    tag_646:\n        /* \"strings.sol\":16574:16578  uint */\n      0x00\n        /* \"strings.sol\":16602:16609  selfptr */\n      dup4\n        /* \"strings.sol\":16574:16578  uint */\n      dup2\n        /* \"strings.sol\":16645:16665  needlelen <= selflen */\n      dup7\n      dup6\n      gt\n        /* \"strings.sol\":16641:17842  if (needlelen <= selflen) {\r... */\n      tag_665\n      jumpi\n        /* \"strings.sol\":16699:16701  32 */\n      0x20\n        /* \"strings.sol\":16686:16695  needlelen */\n      dup6\n        /* \"strings.sol\":16686:16701  needlelen <= 32 */\n      gt\n        /* \"strings.sol\":16682:17831  if (needlelen <= 32) {\r... */\n      tag_661\n      jumpi\n        /* \"strings.sol\":16867:16883  mload(needleptr) */\n      dup4\n      mload\n        /* \"strings.sol\":17031:17041  mload(ptr) */\n      dup3\n      mload\n      not(0x00)\n        /* \"strings.sol\":16753:16754  8 */\n      0x08\n        /* \"strings.sol\":16758:16760  32 */\n      0x20\n        /* \"strings.sol\":16758:16772  32 - needlelen */\n      dup10\n      swap1\n      sub\n        /* \"strings.sol\":16753:16773  8 * (32 - needlelen) */\n      mul\n        /* \"strings.sol\":16747:16748  2 */\n      0x02\n        /* \"strings.sol\":16747:16774  2 ** (8 * (32 - needlelen)) */\n      exp\n        /* \"strings.sol\":16747:16778  2 ** (8 * (32 - needlelen)) - 1 */\n      add\n        /* \"strings.sol\":16745:16779  ~(2 ** (8 * (32 - needlelen)) - 1) */\n      not\n      swap2\n        /* \"strings.sol\":16863:16890  and(mload(needleptr), mask) */\n      dup3\n      and\n      swap1\n        /* \"strings.sol\":16923:16940  selfptr + selflen */\n      dup9\n      dup11\n      add\n        /* \"strings.sol\":16923:16952  selfptr + selflen - needlelen */\n      dup9\n      swap1\n      sub\n      swap1\n        /* \"strings.sol\":17027:17048  and(mload(ptr), mask) */\n      dup4\n      and\n        /* \"strings.sol\":17070:17303  while (ptrdata != needledata) {\r... */\n    tag_662:\n        /* \"strings.sol\":17088:17098  needledata */\n      dup3\n        /* \"strings.sol\":17077:17084  ptrdata */\n      dup2\n        /* \"strings.sol\":17077:17098  ptrdata != needledata */\n      eq\n        /* \"strings.sol\":17070:17303  while (ptrdata != needledata) {\r... */\n      tag_663\n      jumpi\n        /* \"strings.sol\":17134:17137  end */\n      dup2\n        /* \"strings.sol\":17127:17130  ptr */\n      dup7\n        /* \"strings.sol\":17127:17137  ptr >= end */\n      lt\n        /* \"strings.sol\":17123:17188  if (ptr >= end)\r... */\n      tag_664\n      jumpi\n        /* \"strings.sol\":17181:17188  selflen */\n      dup11\n        /* \"strings.sol\":17171:17178  selfptr */\n      dup11\n        /* \"strings.sol\":17171:17188  selfptr + selflen */\n      add\n        /* \"strings.sol\":17164:17188  return selfptr + selflen */\n      swap7\n      pop\n      pop\n      pop\n      pop\n      pop\n      pop\n      pop\n      jump(tag_659)\n        /* \"strings.sol\":17123:17188  if (ptr >= end)\r... */\n    tag_664:\n      pop\n        /* \"strings.sol\":17211:17216  ptr++ */\n      0x01\n      swap1\n      swap5\n      add\n        /* \"strings.sol\":17265:17275  mload(ptr) */\n      dup1\n      mload\n        /* \"strings.sol\":17211:17216  ptr++ */\n      swap1\n      swap5\n      swap1\n        /* \"strings.sol\":17261:17282  and(mload(ptr), mask) */\n      dup4\n      and\n        /* \"strings.sol\":17248:17284  { ptrdata := and(mload(ptr), mask) } */\n      jump(tag_662)\n    tag_663:\n        /* \"strings.sol\":17328:17331  ptr */\n      dup6\n        /* \"strings.sol\":17321:17331  return ptr */\n      swap7\n      pop\n      pop\n      pop\n      pop\n      pop\n      pop\n      pop\n      jump(tag_659)\n        /* \"strings.sol\":16682:17831  if (needlelen <= 32) {\r... */\n    tag_661:\n      pop\n        /* \"strings.sol\":17472:17503  keccak256(needleptr, needlelen) */\n      dup4\n      dup4\n      keccak256\n        /* \"strings.sol\":17422:17434  bytes32 hash */\n      0x00\n      swap1\n        /* \"strings.sol\":17525:17816  for (idx = 0; idx <= selflen - needlelen; idx++) {\r... */\n    tag_666:\n        /* \"strings.sol\":17556:17565  needlelen */\n      dup6\n        /* \"strings.sol\":17546:17553  selflen */\n      dup9\n        /* \"strings.sol\":17546:17565  selflen - needlelen */\n      sub\n        /* \"strings.sol\":17539:17542  idx */\n      dup3\n        /* \"strings.sol\":17539:17565  idx <= selflen - needlelen */\n      gt\n        /* \"strings.sol\":17525:17816  for (idx = 0; idx <= selflen - needlelen; idx++) {\r... */\n      tag_667\n      jumpi\n        /* \"strings.sol\":17659:17684  keccak256(ptr, needlelen) */\n      dup6\n      dup4\n      keccak256\n        /* \"strings.sol\":17712:17728  hash == testHash */\n      dup2\n      dup2\n      eq\n        /* \"strings.sol\":17708:17765  if (hash == testHash)\r... */\n      iszero\n      tag_669\n      jumpi\n        /* \"strings.sol\":17762:17765  ptr */\n      dup4\n        /* \"strings.sol\":17755:17765  return ptr */\n      swap5\n      pop\n      pop\n      pop\n      pop\n      pop\n      jump(tag_659)\n        /* \"strings.sol\":17708:17765  if (hash == testHash)\r... */\n    tag_669:\n      pop\n        /* \"strings.sol\":17795:17796  1 */\n      0x01\n        /* \"strings.sol\":17788:17796  ptr += 1 */\n      swap3\n      dup4\n      add\n      swap3\n        /* \"strings.sol\":17567:17572  idx++ */\n      swap2\n      swap1\n      swap2\n      add\n      swap1\n        /* \"strings.sol\":17525:17816  for (idx = 0; idx <= selflen - needlelen; idx++) {\r... */\n      jump(tag_666)\n    tag_667:\n        /* \"strings.sol\":16682:17831  if (needlelen <= 32) {\r... */\n      pop\n    tag_665:\n      pop\n      pop\n      pop\n        /* \"strings.sol\":17859:17876  selfptr + selflen */\n      dup3\n      dup5\n      add\n        /* \"strings.sol\":16475:17884  function findPtr(uint selflen, uint selfptr, uint needlelen, uint needleptr) private pure returns (uint) {\r... */\n    tag_659:\n      swap5\n      swap4\n      pop\n      pop\n      pop\n      pop\n      jump\t// out\n        /* \"strings.sol\":21187:21703  function split(slice memory self, slice memory needle, slice memory token) internal pure returns (slice memory) {\r... */\n    tag_653:\n        /* \"strings.sol\":21285:21297  slice memory */\n      tag_670\n      tag_435\n      jump\t// in\n    tag_670:\n        /* \"strings.sol\":21310:21318  uint ptr */\n      0x00\n        /* \"strings.sol\":21321:21376  findPtr(self._len, self._ptr, needle._len, needle._ptr) */\n      tag_672\n        /* \"strings.sol\":21329:21333  self */\n      dup6\n        /* \"strings.sol\":21329:21338  self._len */\n      0x00\n      add\n      mload\n        /* \"strings.sol\":21340:21344  self */\n      dup7\n        /* \"strings.sol\":21340:21349  self._ptr */\n      0x20\n      add\n      mload\n        /* \"strings.sol\":21351:21357  needle */\n      dup7\n        /* \"strings.sol\":21351:21362  needle._len */\n      0x00\n      add\n      mload\n        /* \"strings.sol\":21364:21370  needle */\n      dup8\n        /* \"strings.sol\":21364:21375  needle._ptr */\n      0x20\n      add\n      mload\n        /* \"strings.sol\":21321:21328  findPtr */\n      tag_646\n        /* \"strings.sol\":21321:21376  findPtr(self._len, self._ptr, needle._len, needle._ptr) */\n      jump\t// in\n    tag_672:\n        /* \"strings.sol\":21400:21409  self._ptr */\n      0x20\n      dup1\n      dup8\n      add\n      dup1\n      mload\n        /* \"strings.sol\":21387:21397  token._ptr */\n      swap2\n      dup7\n      add\n        /* \"strings.sol\":21387:21409  token._ptr = self._ptr */\n      swap2\n      swap1\n      swap2\n      mstore\n        /* \"strings.sol\":21439:21448  self._ptr */\n      dup1\n      mload\n        /* \"strings.sol\":21433:21448  ptr - self._ptr */\n      dup3\n      sub\n        /* \"strings.sol\":21420:21448  token._len = ptr - self._ptr */\n      dup6\n      mstore\n        /* \"strings.sol\":21482:21491  self._len */\n      dup7\n      mload\n        /* \"strings.sol\":21470:21479  self._ptr */\n      swap1\n      mload\n        /* \"strings.sol\":21310:21376  uint ptr = findPtr(self._len, self._ptr, needle._len, needle._ptr) */\n      swap2\n      swap3\n      pop\n        /* \"strings.sol\":21470:21491  self._ptr + self._len */\n      add\n        /* \"strings.sol\":21463:21491  ptr == self._ptr + self._len */\n      dup2\n      eq\n        /* \"strings.sol\":21459:21673  if (ptr == self._ptr + self._len) {\r... */\n      iszero\n      tag_673\n      jumpi\n        /* \"strings.sol\":21546:21547  0 */\n      0x00\n        /* \"strings.sol\":21534:21547  self._len = 0 */\n      dup6\n      mstore\n        /* \"strings.sol\":21459:21673  if (ptr == self._ptr + self._len) {\r... */\n      jump(tag_674)\n    tag_673:\n        /* \"strings.sol\":21606:21617  needle._len */\n      dup4\n      mload\n        /* \"strings.sol\":21593:21603  token._len */\n      dup4\n      mload\n        /* \"strings.sol\":21580:21617  self._len -= token._len + needle._len */\n      dup7\n      mload\n        /* \"strings.sol\":21593:21617  token._len + needle._len */\n      swap2\n      add\n        /* \"strings.sol\":21580:21617  self._len -= token._len + needle._len */\n      swap1\n      sub\n      dup6\n      mstore\n        /* \"strings.sol\":21650:21661  needle._len */\n      dup4\n      mload\n        /* \"strings.sol\":21644:21661  ptr + needle._len */\n      dup2\n      add\n        /* \"strings.sol\":21632:21641  self._ptr */\n      0x20\n      dup7\n      add\n        /* \"strings.sol\":21632:21661  self._ptr = ptr + needle._len */\n      mstore\n        /* \"strings.sol\":21459:21673  if (ptr == self._ptr + self._len) {\r... */\n    tag_674:\n      pop\n        /* \"strings.sol\":21690:21695  token */\n      swap1\n      swap4\n        /* \"strings.sol\":21187:21703  function split(slice memory self, slice memory needle, slice memory token) internal pure returns (slice memory) {\r... */\n      swap3\n      pop\n      pop\n      pop\n      jump\t// out\n        /* \"strings.sol\":2786:3352  function memcpy(uint dest, uint src, uint len) internal pure {\r... */\n    tag_658:\n        /* \"strings.sol\":2909:3079  for(; len >= 32; len -= 32) {\r... */\n    tag_676:\n        /* \"strings.sol\":2922:2924  32 */\n      0x20\n        /* \"strings.sol\":2915:2918  len */\n      dup2\n        /* \"strings.sol\":2915:2924  len >= 32 */\n      lt\n        /* \"strings.sol\":2909:3079  for(; len >= 32; len -= 32) {\r... */\n      tag_677\n      jumpi\n        /* \"strings.sol\":2993:3003  mload(src) */\n      dup2\n      mload\n        /* \"strings.sol\":2980:3004  mstore(dest, mload(src)) */\n      dup4\n      mstore\n        /* \"strings.sol\":3041:3043  32 */\n      0x20\n        /* \"strings.sol\":3033:3043  dest += 32 */\n      swap3\n      dup4\n      add\n      swap3\n        /* \"strings.sol\":3058:3067  src += 32 */\n      swap1\n      swap2\n      add\n      swap1\n      not(0x1f)\n        /* \"strings.sol\":2926:2935  len -= 32 */\n      add\n        /* \"strings.sol\":2909:3079  for(; len >= 32; len -= 32) {\r... */\n      jump(tag_676)\n    tag_677:\n        /* \"strings.sol\":3211:3221  mload(src) */\n      swap1\n      mload\n        /* \"strings.sol\":3267:3278  mload(dest) */\n      dup3\n      mload\n        /* \"strings.sol\":3144:3146  32 */\n      0x20\n        /* \"strings.sol\":3144:3152  32 - len */\n      swap3\n      swap1\n      swap3\n      sub\n        /* \"strings.sol\":3136:3139  256 */\n      0x0100\n        /* \"strings.sol\":3136:3153  256 ** (32 - len) */\n      exp\n      not(0x00)\n        /* \"strings.sol\":3136:3157  256 ** (32 - len) - 1 */\n      add\n        /* \"strings.sol\":3223:3232  not(mask) */\n      dup1\n      not\n        /* \"strings.sol\":3207:3233  and(mload(src), not(mask)) */\n      swap1\n      swap2\n      and\n        /* \"strings.sol\":3263:3285  and(mload(dest), mask) */\n      swap2\n      and\n        /* \"strings.sol\":3312:3333  or(destpart, srcpart) */\n      or\n        /* \"strings.sol\":3299:3334  mstore(dest, or(destpart, srcpart)) */\n      swap1\n      mstore\n        /* \"strings.sol\":3177:3345  {\r... */\n      jump\t// out\n        /* \"Entity.sol\":69:10125  contract Entity {\r... */\n    tag_418:\n      dup3\n      dup1\n      sload\n      0x01\n      dup2\n      0x01\n      and\n      iszero\n      0x0100\n      mul\n      sub\n      and\n      0x02\n      swap1\n      div\n      swap1\n      0x00\n      mstore\n      keccak256(0x00, 0x20)\n      swap1\n      0x1f\n      add\n      0x20\n      swap1\n      div\n      dup2\n      add\n      swap3\n      dup3\n      0x1f\n      lt\n      tag_680\n      jumpi\n      dup3\n      dup1\n      add\n      not(0xff)\n      dup3\n      calldataload\n      and\n      or\n      dup6\n      sstore\n      jump(tag_682)\n    tag_680:\n      dup3\n      dup1\n      add\n      0x01\n      add\n      dup6\n      sstore\n      dup3\n      iszero\n      tag_682\n      jumpi\n      swap2\n      dup3\n      add\n    tag_681:\n      dup3\n      dup2\n      gt\n      iszero\n      tag_682\n      jumpi\n      dup3\n      calldataload\n      dup3\n      sstore\n      swap2\n      0x20\n      add\n      swap2\n      swap1\n      0x01\n      add\n      swap1\n      jump(tag_681)\n    tag_682:\n      pop\n      tag_683\n      swap3\n      swap2\n      pop\n      tag_684\n      jump\t// in\n    tag_683:\n      pop\n      swap1\n      jump\t// out\n    tag_429:\n      dup3\n      dup1\n      sload\n      0x01\n      dup2\n      0x01\n      and\n      iszero\n      0x0100\n      mul\n      sub\n      and\n      0x02\n      swap1\n      div\n      swap1\n      0x00\n      mstore\n      keccak256(0x00, 0x20)\n      swap1\n      0x1f\n      add\n      0x20\n      swap1\n      div\n      dup2\n      add\n      swap3\n      dup3\n      0x1f\n      lt\n      tag_686\n      jumpi\n      dup1\n      mload\n      not(0xff)\n      and\n      dup4\n      dup1\n      add\n      or\n      dup6\n      sstore\n      jump(tag_682)\n    tag_686:\n      dup3\n      dup1\n      add\n      0x01\n      add\n      dup6\n      sstore\n      dup3\n      iszero\n      tag_682\n      jumpi\n      swap2\n      dup3\n      add\n    tag_687:\n      dup3\n      dup2\n      gt\n      iszero\n      tag_682\n      jumpi\n      dup3\n      mload\n      dup3\n      sstore\n      swap2\n      0x20\n      add\n      swap2\n      swap1\n      0x01\n      add\n      swap1\n      jump(tag_687)\n    tag_433:\n      mload(0x40)\n      dup1\n      0xc0\n      add\n      0x40\n      mstore\n      dup1\n      and(sub(shl(0xa0, 0x01), 0x01), 0x00)\n      dup2\n      mstore\n      0x20\n      add\n      and(sub(shl(0xa0, 0x01), 0x01), 0x00)\n      dup2\n      mstore\n      0x20\n      add\n      0x60\n      dup2\n      mstore\n      0x20\n      add\n      0x60\n      dup2\n      mstore\n      0x20\n      add\n      0x60\n      dup2\n      mstore\n      0x20\n      add\n      iszero(iszero(0x00))\n      dup2\n      mstore\n      pop\n      swap1\n      jump\t// out\n    tag_435:\n      mload(0x40)\n      dup1\n      0x40\n      add\n      0x40\n      mstore\n      dup1\n      0x00\n      dup2\n      mstore\n      0x20\n      add\n      0x00\n      dup2\n      mstore\n      pop\n      swap1\n      jump\t// out\n    tag_464:\n      dup3\n      dup1\n      sload\n      dup3\n      dup3\n      sstore\n      swap1\n      0x00\n      mstore\n      keccak256(0x00, 0x20)\n      swap1\n      dup2\n      add\n      swap3\n      dup3\n      iszero\n      tag_692\n      jumpi\n      swap2\n      0x20\n      mul\n      dup3\n      add\n    tag_691:\n      dup3\n      dup2\n      gt\n      iszero\n      tag_692\n      jumpi\n      dup3\n      mload\n      dup1\n      mload\n      tag_693\n      swap2\n      dup5\n      swap2\n      0x20\n      swap1\n      swap2\n      add\n      swap1\n      tag_429\n      jump\t// in\n    tag_693:\n      pop\n      swap2\n      0x20\n      add\n      swap2\n      swap1\n      0x01\n      add\n      swap1\n      jump(tag_691)\n    tag_692:\n      pop\n      tag_683\n      swap3\n      swap2\n      pop\n      tag_695\n      jump\t// in\n    tag_584:\n      dup3\n      dup1\n      sload\n      0x01\n      dup2\n      0x01\n      and\n      iszero\n      0x0100\n      mul\n      sub\n      and\n      0x02\n      swap1\n      div\n      swap1\n      0x00\n      mstore\n      keccak256(0x00, 0x20)\n      swap1\n      0x1f\n      add\n      0x20\n      swap1\n      div\n      dup2\n      add\n      swap3\n      dup3\n      0x1f\n      lt\n      tag_697\n      jumpi\n      dup1\n      sload\n      dup6\n      sstore\n      jump(tag_682)\n    tag_697:\n      dup3\n      dup1\n      add\n      0x01\n      add\n      dup6\n      sstore\n      dup3\n      iszero\n      tag_682\n      jumpi\n      0x00\n      mstore\n      keccak256(0x00, 0x20)\n      swap2\n      0x1f\n      add\n      0x20\n      swap1\n      div\n      dup3\n      add\n    tag_698:\n      dup3\n      dup2\n      gt\n      iszero\n      tag_682\n      jumpi\n      dup3\n      sload\n      dup3\n      sstore\n      swap2\n      0x01\n      add\n      swap2\n      swap1\n      0x01\n      add\n      swap1\n      jump(tag_698)\n    tag_684:\n      tag_347\n      swap2\n      swap1\n    tag_702:\n      dup1\n      dup3\n      gt\n      iszero\n      tag_683\n      jumpi\n      0x00\n      dup2\n      sstore\n      0x01\n      add\n      jump(tag_702)\n    tag_695:\n      tag_347\n      swap2\n      swap1\n    tag_705:\n      dup1\n      dup3\n      gt\n      iszero\n      tag_683\n      jumpi\n      0x00\n      tag_707\n      dup3\n      dup3\n      tag_708\n      jump\t// in\n    tag_707:\n      pop\n      0x01\n      add\n      jump(tag_705)\n    tag_708:\n      pop\n      dup1\n      sload\n      0x01\n      dup2\n      0x01\n      and\n      iszero\n      0x0100\n      mul\n      sub\n      and\n      0x02\n      swap1\n      div\n      0x00\n      dup3\n      sstore\n      dup1\n      0x1f\n      lt\n      tag_710\n      jumpi\n      pop\n      jump(tag_711)\n    tag_710:\n      0x1f\n      add\n      0x20\n      swap1\n      div\n      swap1\n      0x00\n      mstore\n      keccak256(0x00, 0x20)\n      swap1\n      dup2\n      add\n      swap1\n      tag_711\n      swap2\n      swap1\n      tag_684\n      jump\t// in\n    tag_711:\n      pop\n      jump\t// out\n\n    auxdata: 0xa26469706673582212202d8a41804943a65b4a46379199ffb9da5fe22699e0b1d8b76cfab254a121a24a64736f6c63430006060033\n}\n","bytecode":{"linkReferences":{},"object":"608060405234801561001057600080fd5b50613d57806100206000396000f3fe608060405234801561001057600080fd5b506004361061021c5760003560e01c80638c16215211610125578063cf6ae528116100ad578063e29e92901161007c578063e29e92901461131f578063e9dff3b414611351578063f10f731c14611359578063f396b51f1461149a578063fc2a8efa146114c05761021c565b8063cf6ae528146112a0578063d027a93e146112c6578063db406597146112ce578063e24e7912146112f45761021c565b8063928ec3e5116100f4578063928ec3e51461107a578063a1a298da1461113e578063a63de8cf14611161578063a7ed56031461117e578063c09bc35b146112325761021c565b80638c16215214610db65780638cba76b11461079d5780638e63651414610f765780639169b32314610fa85761021c565b80634f2bcbef116101a8578063834fde3411610177578063834fde3414610b5d578063838ebd8514610b80578063847b525714610ba357806384aeb69414610c6157806388a6712f14610c7d5761021c565b80634f2bcbef146109435780634f51433d146109685780636b31c5f1146109705780636eecac5814610a245761021c565b80632a4541d4116101ef5780632a4541d4146105bb578063306998921461079d5780633296e5ca146108d6578063359589ac1461090f5780634d981cf71461093b5761021c565b806308ac733a146102215780630f1219251461034a578063173610841461045357806324f416d614610507575b600080fd5b6102d56004803603604081101561023757600080fd5b6001600160a01b038235169190810190604081016020820135600160201b81111561026157600080fd5b82018360208201111561027357600080fd5b803590602001918460018302840111600160201b8311171561029457600080fd5b91908080601f0160208091040260200160405190810160405280939291908181526020018383808284376000920191909152509295506115f1945050505050565b6040805160208082528351818301528351919283929083019185019080838360005b8381101561030f5781810151838201526020016102f7565b50505050905090810190601f16801561033c5780820380516001836020036101000a031916815260200191505b509250505060405180910390f35b6103756004803603604081101561036057600080fd5b5063ffffffff8135811691602001351661170c565b604051808060200180602001838103835285818151815260200191508051906020019080838360005b838110156103b657818101518382015260200161039e565b50505050905090810190601f1680156103e35780820380516001836020036101000a031916815260200191505b50838103825284518152845160209182019186019080838360005b838110156104165781810151838201526020016103fe565b50505050905090810190601f1680156104435780820380516001836020036101000a031916815260200191505b5094505050505060405180910390f35b6102d56004803603604081101561046957600080fd5b6001600160a01b038235169190810190604081016020820135600160201b81111561049357600080fd5b8201836020820111156104a557600080fd5b803590602001918460018302840111600160201b831117156104c657600080fd5b91908080601f0160208091040260200160405190810160405280939291908181526020018383808284376000920191909152509295506118b7945050505050565b6102d56004803603604081101561051d57600080fd5b6001600160a01b038235169190810190604081016020820135600160201b81111561054757600080fd5b82018360208201111561055957600080fd5b803590602001918460018302840111600160201b8311171561057a57600080fd5b91908080601f016020809104026020016040519081016040528093929190818152602001838380828437600092019190915250929550611970945050505050565b610784600480360360c08110156105d157600080fd5b6001600160a01b038235811692602081013590911691810190606081016040820135600160201b81111561060457600080fd5b82018360208201111561061657600080fd5b803590602001918460018302840111600160201b8311171561063757600080fd5b91908080601f0160208091040260200160405190810160405280939291908181526020018383808284376000920191909152509295949360208101935035915050600160201b81111561068957600080fd5b82018360208201111561069b57600080fd5b803590602001918460018302840111600160201b831117156106bc57600080fd5b91908080601f0160208091040260200160405190810160405280939291908181526020018383808284376000920191909152509295949360208101935035915050600160201b81111561070e57600080fd5b82018360208201111561072057600080fd5b803590602001918460018302840111600160201b8311171561074157600080fd5b91908080601f0160208091040260200160405190810160405280939291908181526020018383808284376000920191909152509295505050503515159050611a22565b6040805163ffffffff9092168252519081900360200190f35b6102d5600480360360608110156107b357600080fd5b6001600160a01b038235169190810190604081016020820135600160201b8111156107dd57600080fd5b8201836020820111156107ef57600080fd5b803590602001918460018302840111600160201b8311171561081057600080fd5b91908080601f0160208091040260200160405190810160405280939291908181526020018383808284376000920191909152509295949360208101935035915050600160201b81111561086257600080fd5b82018360208201111561087457600080fd5b803590602001918460018302840111600160201b8311171561089557600080fd5b91908080601f016020809104026020016040519081016040528093929190818152602001838380828437600092019190915250929550611be7945050505050565b6108f3600480360360208110156108ec57600080fd5b5035611d5c565b604080516001600160a01b039092168252519081900360200190f35b6102d56004803603604081101561092557600080fd5b506001600160a01b038135169060200135611d83565b610784611e04565b6109666004803603602081101561095957600080fd5b503563ffffffff16611e0b565b005b610784611e45565b6102d56004803603604081101561098657600080fd5b6001600160a01b038235169190810190604081016020820135600160201b8111156109b057600080fd5b8201836020820111156109c257600080fd5b803590602001918460018302840111600160201b831117156109e357600080fd5b91908080601f016020809104026020016040519081016040528093929190818152602001838380828437600092019190915250929550611e4b945050505050565b61096660048036036060811015610a3a57600080fd5b6001600160a01b038235169190810190604081016020820135600160201b811115610a6457600080fd5b820183602082011115610a7657600080fd5b803590602001918460018302840111600160201b83111715610a9757600080fd5b91908080601f0160208091040260200160405190810160405280939291908181526020018383808284376000920191909152509295949360208101935035915050600160201b811115610ae957600080fd5b820183602082011115610afb57600080fd5b803590602001918460018302840111600160201b83111715610b1c57600080fd5b91908080601f016020809104026020016040519081016040528093929190818152602001838380828437600092019190915250929550611eca945050505050565b61078460048036036020811015610b7357600080fd5b503563ffffffff16611ffc565b61096660048036036020811015610b9657600080fd5b503563ffffffff1661202b565b61096660048036036040811015610bb957600080fd5b810190602081018135600160201b811115610bd357600080fd5b820183602082011115610be557600080fd5b803590602001918460018302840111600160201b83111715610c0657600080fd5b919390929091602081019035600160201b811115610c2357600080fd5b820183602082011115610c3557600080fd5b803590602001918460018302840111600160201b83111715610c5657600080fd5b509092509050612409565b610c6961249d565b604080519115158252519081900360200190f35b61096660048036036060811015610c9357600080fd5b6001600160a01b038235169190810190604081016020820135600160201b811115610cbd57600080fd5b820183602082011115610ccf57600080fd5b803590602001918460018302840111600160201b83111715610cf057600080fd5b91908080601f0160208091040260200160405190810160405280939291908181526020018383808284376000920191909152509295949360208101935035915050600160201b811115610d4257600080fd5b820183602082011115610d5457600080fd5b803590602001918460018302840111600160201b83111715610d7557600080fd5b91908080601f0160208091040260200160405190810160405280939291908181526020018383808284376000920191909152509295506124a2945050505050565b610966600480360360a0811015610dcc57600080fd5b6001600160a01b038235169190810190604081016020820135600160201b811115610df657600080fd5b820183602082011115610e0857600080fd5b803590602001918460018302840111600160201b83111715610e2957600080fd5b91908080601f0160208091040260200160405190810160405280939291908181526020018383808284376000920191909152509295949360208101935035915050600160201b811115610e7b57600080fd5b820183602082011115610e8d57600080fd5b803590602001918460018302840111600160201b83111715610eae57600080fd5b91908080601f0160208091040260200160405190810160405280939291908181526020018383808284376000920191909152509295949360208101935035915050600160201b811115610f0057600080fd5b820183602082011115610f1257600080fd5b803590602001918460018302840111600160201b83111715610f3357600080fd5b91908080601f01602080910402602001604051908101604052809392919081815260200183838082843760009201919091525092955050505035151590506125d0565b61096660048036036040811015610f8c57600080fd5b5080356001600160a01b0316906020013563ffffffff1661290b565b610fc560048036036020811015610fbe57600080fd5b5035612978565b60405180856001600160a01b03166001600160a01b03168152602001846001600160a01b03166001600160a01b031681526020018060200183151515158152602001828103825284818151815260200191508051906020019080838360005b8381101561103c578181015183820152602001611024565b50505050905090810190601f1680156110695780820380516001836020036101000a031916815260200191505b509550505050505060405180910390f35b6109666004803603606081101561109057600080fd5b810190602081018135600160201b8111156110aa57600080fd5b8201836020820111156110bc57600080fd5b803590602001918460018302840111600160201b831117156110dd57600080fd5b919390929091602081019035600160201b8111156110fa57600080fd5b82018360208201111561110c57600080fd5b803590602001918460018302840111600160201b8311171561112d57600080fd5b91935091503563ffffffff16612a4c565b6107846004803603602081101561115457600080fd5b503563ffffffff16612ad9565b610fc56004803603602081101561117757600080fd5b5035612aee565b610c696004803603604081101561119457600080fd5b6001600160a01b038235169190810190604081016020820135600160201b8111156111be57600080fd5b8201836020820111156111d057600080fd5b803590602001918460018302840111600160201b831117156111f157600080fd5b91908080601f016020809104026020016040519081016040528093929190818152602001838380828437600092019190915250929550612afb945050505050565b6107846004803603602081101561124857600080fd5b810190602081018135600160201b81111561126257600080fd5b82018360208201111561127457600080fd5b803590602001918460018302840111600160201b8311171561129557600080fd5b509092509050612b2c565b610784600480360360208110156112b657600080fd5b50356001600160a01b0316612c9d565b610784612cb8565b610784600480360360208110156112e457600080fd5b50356001600160a01b0316612cbe565b6103756004803603604081101561130a57600080fd5b5063ffffffff81358116916020013516612cd6565b6109666004803603604081101561133557600080fd5b5080356001600160a01b0316906020013563ffffffff16612d2b565b610c69612d7b565b6109666004803603608081101561136f57600080fd5b6001600160a01b038235169190810190604081016020820135600160201b81111561139957600080fd5b8201836020820111156113ab57600080fd5b803590602001918460018302840111600160201b831117156113cc57600080fd5b91908080601f0160208091040260200160405190810160405280939291908181526020018383808284376000920191909152509295949360208101935035915050600160201b81111561141e57600080fd5b82018360208201111561143057600080fd5b803590602001918460018302840111600160201b8311171561145157600080fd5b91908080601f0160208091040260200160405190810160405280939291908181526020018383808284376000920191909152509295505050903563ffffffff169150612d849050565b610c69600480360360208110156114b057600080fd5b50356001600160a01b0316612ec6565b610966600480360360608110156114d657600080fd5b810190602081018135600160201b8111156114f057600080fd5b82018360208201111561150257600080fd5b803590602001918460018302840111600160201b8311171561152357600080fd5b91908080601f0160208091040260200160405190810160405280939291908181526020018383808284376000920191909152509295949360208101935035915050600160201b81111561157557600080fd5b82018360208201111561158757600080fd5b803590602001918460018302840111600160201b831117156115a857600080fd5b91908080601f0160208091040260200160405190810160405280939291908181526020018383808284376000920191909152509295505050903563ffffffff169150612edb9050565b606060026000846001600160a01b03166001600160a01b03168152602001908152602001600020826040518082805190602001908083835b602083106116485780518252601f199092019160209182019101611629565b518151600019602094850361010090810a8201928316921993909316919091179092529490920196875260408051978890038201882060029081018054601f6001821615909802909501909416049485018290048202880182019052838752909450919250508301828280156116ff5780601f106116d4576101008083540402835291602001916116ff565b820191906000526020600020905b8154815290600101906020018083116116e257829003601f168201915b5050505050905092915050565b606080600b8463ffffffff168154811061172257fe5b90600052602060002090600602016003018363ffffffff168154811061174457fe5b90600052602060002001600b8563ffffffff168154811061176157fe5b90600052602060002090600602016004018463ffffffff168154811061178357fe5b600091825260209182902083546040805160026001841615610100026000190190931692909204601f81018690048602830186019091528082529290910192909184918301828280156118175780601f106117ec57610100808354040283529160200191611817565b820191906000526020600020905b8154815290600101906020018083116117fa57829003601f168201915b5050845460408051602060026001851615610100026000190190941693909304601f8101849004840282018401909252818152959750869450925084019050828280156118a55780601f1061187a576101008083540402835291602001916118a5565b820191906000526020600020905b81548152906001019060200180831161188857829003601f168201915b50505050509050915091509250929050565b600260208181526000938452604093849020835180850183018051928152908301948301949094209352828201805485516001821615610100026000190190911693909304601f81018390048302840183019095528483529293919291908301828280156119665780601f1061193b57610100808354040283529160200191611966565b820191906000526020600020905b81548152906001019060200180831161194957829003601f168201915b5050505050905081565b60036020908152600092835260409283902082518084018301805192815290830193830193909320925281548351601f6002600019610100600186161502019093169290920491820183900483028101830190945280845290830182828015611a1a5780601f106119ef57610100808354040283529160200191611a1a565b820191906000526020600020905b8154815290600101906020018083116119fd57829003601f168201915b505050505081565b600080879050806001600160a01b0316638c16215288888888886040518663ffffffff1660e01b815260040180866001600160a01b03166001600160a01b0316815260200180602001806020018060200185151515158152602001848103845288818151815260200191508051906020019080838360005b83811015611ab2578181015183820152602001611a9a565b50505050905090810190601f168015611adf5780820380516001836020036101000a031916815260200191505b50848103835287518152875160209182019189019080838360005b83811015611b12578181015183820152602001611afa565b50505050905090810190601f168015611b3f5780820380516001836020036101000a031916815260200191505b50848103825286518152865160209182019188019080838360005b83811015611b72578181015183820152602001611b5a565b50505050905090810190601f168015611b9f5780820380516001836020036101000a031916815260200191505b5098505050505050505050600060405180830381600087803b158015611bc457600080fd5b505af1158015611bd8573d6000803e3d6000fd5b50505050509695505050505050565b606060026000856001600160a01b03166001600160a01b03168152602001908152602001600020836040518082805190602001908083835b60208310611c3e5780518252601f199092019160209182019101611c1f565b51815160209384036101000a6000190180199092169116179052920194855250604051938490038101842086519094879450925082918401908083835b60208310611c9a5780518252601f199092019160209182019101611c7b565b518151600019602094850361010090810a820192831692199390931691909117909252949092019687526040805197889003820188208054601f6002600183161590980290950116959095049283018290048202880182019052818752929450925050830182828015611d4e5780601f10611d2357610100808354040283529160200191611d4e565b820191906000526020600020905b815481529060010190602001808311611d3157829003601f168201915b505050505090509392505050565b60058181548110611d6957fe5b6000918252602090912001546001600160a01b0316905081565b60076020528160005260406000208181548110611d9c57fe5b600091825260209182902001805460408051601f60026000196101006001871615020190941693909304928301859004850281018501909152818152945090925090830182828015611a1a5780601f106119ef57610100808354040283529160200191611a1a565b6005545b90565b63ffffffff81166000908152600a6020526040902054819060ff1680611e33575060005460ff165b15611e4157611e4182612f72565b5050565b60095490565b60046020908152600092835260409283902082518084018301805192815290830193830193909320925281548351601f6002600019610100600186161502019093169290920491820183900483028101830190945280845290830182828015611a1a5780601f106119ef57610100808354040283529160200191611a1a565b6000839050806001600160a01b031663847b525784846040518363ffffffff1660e01b8152600401808060200180602001838103835285818151815260200191508051906020019080838360005b83811015611f30578181015183820152602001611f18565b50505050905090810190601f168015611f5d5780820380516001836020036101000a031916815260200191505b50838103825284518152845160209182019186019080838360005b83811015611f90578181015183820152602001611f78565b50505050905090810190601f168015611fbd5780820380516001836020036101000a031916815260200191505b50945050505050600060405180830381600087803b158015611fde57600080fd5b505af1158015611ff2573d6000803e3d6000fd5b5050505050505050565b600060098263ffffffff168154811061201157fe5b600091825260209091206003600690920201015492915050565b600b8163ffffffff168154811061203e57fe5b600091825260209091206005600690920201015460ff161561205f57600080fd5b6000600b8263ffffffff168154811061207457fe5b60009182526020822060016006909202010154600b80546001600160a01b039092169350839163c09bc35b919063ffffffff87169081106120b157fe5b60009182526020918290206040516001600160e01b031960e086901b16815260048101938452600260069093029091018201805460001961010060018316150201169290920460248201819052919291829160440190849080156121565780601f1061212b57610100808354040283529160200191612156565b820191906000526020600020905b81548152906001019060200180831161213957829003601f168201915b505092505050602060405180830381600087803b15801561217657600080fd5b505af115801561218a573d6000803e3d6000fd5b505050506040513d60208110156121a057600080fd5b5051905060005b600b8463ffffffff16815481106121ba57fe5b9060005260206000209060060201600301805490508163ffffffff1610156123cc57826001600160a01b031663928ec3e5600b8663ffffffff16815481106121fe57fe5b90600052602060002090600602016003018363ffffffff168154811061222057fe5b90600052602060002001600b8763ffffffff168154811061223d57fe5b90600052602060002090600602016004018463ffffffff168154811061225f57fe5b600091825260209091206040516001600160e01b031960e086901b16815263ffffffff88166044820152606060048201908152845460026000196101006001841615020190911604606483018190529290930192889290918291602482019160840190879080156123115780601f106122e657610100808354040283529160200191612311565b820191906000526020600020905b8154815290600101906020018083116122f457829003601f168201915b50508381038252855460026000196101006001841615020190911604808252602090910190869080156123855780601f1061235a57610100808354040283529160200191612385565b820191906000526020600020905b81548152906001019060200180831161236857829003601f168201915b505095505050505050600060405180830381600087803b1580156123a857600080fd5b505af11580156123bc573d6000803e3d6000fd5b5050600190920191506121a79050565b506001600b8463ffffffff16815481106123e257fe5b60009182526020909120600690910201600501805460ff1916911515919091179055505050565b336000908152600860205260409081902090518590859080838380828437919091019485525050604051928390036020019092205460ff16915061244e905057600080fd5b33600090815260046020526040908190209051839183918790879080838380828437808301925050509250505090815260200160405180910390209190612496929190613a7f565b5050505050565b600181565b60086000846001600160a01b03166001600160a01b03168152602001908152602001600020826040518082805190602001908083835b602083106124f75780518252601f1990920191602091820191016124d8565b51815160209384036101000a600019018019909216911617905292019485525060405193849003019092205460ff169150612533905057600080fd5b8060036000856001600160a01b03166001600160a01b03168152602001908152602001600020836040518082805190602001908083835b602083106125895780518252601f19909201916020918201910161256a565b51815160209384036101000a600019018019909216911617905292019485525060405193849003810190932084516125ca9591949190910192509050613afd565b50505050565b6125d8613b6b565b6001600160a01b03861660208281018290526040808401889052600060a08501819052600b5493815260019092529020805463ffffffff191663ffffffff909216919091179055612627613bb5565b61263085613807565b905061263a613bb5565b61264385613807565b905061264d613bb5565b61266f604051806040016040528060018152602001600b60fa1b815250613807565b90506000612683848363ffffffff61382c16565b60010190508063ffffffff1667ffffffffffffffff811180156126a557600080fd5b506040519080825280602002602001820160405280156126d957816020015b60608152602001906001900390816126c45790505b50606086015263ffffffff811667ffffffffffffffff811180156126fc57600080fd5b5060405190808252806020026020018201604052801561273057816020015b606081526020019060019003908161271b5790505b50608086015260005b8163ffffffff168163ffffffff1610156127ce576060612767612762878663ffffffff61389916565b6138ac565b9050606061277e612762878763ffffffff61389916565b90508188606001518463ffffffff168151811061279757fe5b60200260200101819052508088608001518463ffffffff16815181106127b957fe5b60209081029190910101525050600101612739565b50600b805460018101825560009190915285517f0175b7a638427703f0dbe7bb9bbf987a2551717b34e79f33b5b1008d1fa01db9600690920291820180546001600160a01b03199081166001600160a01b039384161782556020808a01517f0175b7a638427703f0dbe7bb9bbf987a2551717b34e79f33b5b1008d1fa01dba8601805490931694169390931790556040880151805189949293612895937f0175b7a638427703f0dbe7bb9bbf987a2551717b34e79f33b5b1008d1fa01dbb01920190613afd565b50606082015180516128b1916003840191602090910190613bcf565b50608082015180516128cd916004840191602090910190613bcf565b5060a091909101516005909101805460ff191691151591909117905585156128ff57600b546128ff906000190161202b565b50505050505050505050565b60408051634f2bcbef60e01b815263ffffffff83166004820152905183916001600160a01b03831691634f2bcbef9160248082019260009290919082900301818387803b15801561295b57600080fd5b505af115801561296f573d6000803e3d6000fd5b50505050505050565b6009818154811061298557fe5b600091825260209182902060069091020180546001808301546002808501805460408051601f600019978416156101000297909701909216939093049485018890048802810188019092528382526001600160a01b0394851697509190931694909190830182828015612a395780601f10612a0e57610100808354040283529160200191612a39565b820191906000526020600020905b815481529060010190602001808311612a1c57829003601f168201915b5050506005909301549192505060ff1684565b60098163ffffffff1681548110612a5f57fe5b6000918252602080832060046006909302019190910180546001810182559083529120612a8e91018484613a7f565b5060098163ffffffff1681548110612aa257fe5b6000918252602080832060036006909302019190910180546001810182559083529120612ad191018686613a7f565b505050505050565b6000600b8263ffffffff168154811061201157fe5b600b818154811061298557fe5b6008602090815260009283526040909220815180830184018051928152908401929093019190912091525460ff1681565b6000612b36613b6b565b338152604080516020601f860181900481028201810190925284815290859085908190840183828082843760009201829052506040860194855260a0860181905260098054600181018255915285517f6e1540171b6c0c960b71a7020d9f60077f6af931a8bbf590da0223dacf75c7af600690920291820180546001600160a01b03199081166001600160a01b039384161782556020808a01517f6e1540171b6c0c960b71a7020d9f60077f6af931a8bbf590da0223dacf75c7b08601805490931694169390931790559551805188979650612c3a95507f6e1540171b6c0c960b71a7020d9f60077f6af931a8bbf590da0223dacf75c7b190930193500190613afd565b5060608201518051612c56916003840191602090910190613bcf565b5060808201518051612c72916004840191602090910190613bcf565b5060a091909101516005909101805460ff191691151591909117905550506009546000190192915050565b6001600160a01b031660009081526007602052604090205490565b600b5490565b60016020526000908152604090205463ffffffff1681565b60608060098463ffffffff1681548110612cec57fe5b90600052602060002090600602016003018363ffffffff1681548110612d0e57fe5b9060005260206000200160098563ffffffff168154811061176157fe5b6040805163838ebd8560e01b815263ffffffff83166004820152905183916001600160a01b0383169163838ebd859160248082019260009290919082900301818387803b15801561295b57600080fd5b60005460ff1681565b604051637e15477d60e11b815263ffffffff8216604482015260606004820190815284516064830152845186926001600160a01b0384169263fc2a8efa9288928892889290918291602482019160840190602088019080838360005b83811015612df8578181015183820152602001612de0565b50505050905090810190601f168015612e255780820380516001836020036101000a031916815260200191505b50838103825285518152855160209182019187019080838360005b83811015612e58578181015183820152602001612e40565b50505050905090810190601f168015612e855780820380516001836020036101000a031916815260200191505b5095505050505050600060405180830381600087803b158015612ea757600080fd5b505af1158015612ebb573d6000803e3d6000fd5b505050505050505050565b60066020526000908152604090205460ff1681565b600b8163ffffffff1681548110612eee57fe5b600091825260208083206003600690930201919091018054600181018255908352918190208551612f26939190910191860190613afd565b50600b8163ffffffff1681548110612f3a57fe5b6000918252602080832060046006909302019190910180546001810182559083529181902084516125ca939190910191850190613afd565b60098163ffffffff1681548110612f8557fe5b600091825260209091206005600690920201015460ff1615612fa657600080fd5b60006002600060098463ffffffff1681548110612fbf57fe5b600091825260208083206006909202909101546001600160a01b0316835282019290925260400190206009805463ffffffff8516908110612ffc57fe5b906000526020600020906006020160020160405180828054600181600116156101000203166002900480156130685780601f10613046576101008083540402835291820191613068565b820191906000526020600020905b815481529060010190602001808311613054575b50509283525050604051908190036020019020905060005b60098363ffffffff168154811061309357fe5b9060005260206000209060060201600301805490508163ffffffff16101561347e5760098363ffffffff16815481106130c857fe5b90600052602060002090600602016004018163ffffffff16815481106130ea57fe5b906000526020600020018260000160098563ffffffff168154811061310b57fe5b90600052602060002090600602016003018363ffffffff168154811061312d57fe5b9060005260206000200160405180828054600181600116156101000203166002900480156131925780601f10613170576101008083540402835291820191613192565b820191906000526020600020905b81548152906001019060200180831161317e575b5050928352505060405190819003602001902081546131c4929060026000196101006001841615020190911604613c28565b508160010160098463ffffffff16815481106131dc57fe5b90600052602060002090600602016003018263ffffffff16815481106131fe57fe5b9060005260206000200160405180828054600181600116156101000203166002900480156132635780601f10613241576101008083540402835291820191613263565b820191906000526020600020905b81548152906001019060200180831161324f575b505092835250506040519081900360200190205460ff16613476578160020160098463ffffffff168154811061329557fe5b90600052602060002090600602016003018263ffffffff16815481106132b757fe5b90600052602060002001604051602001808380546001816001161561010002031660029004801561331f5780601f106132fd57610100808354040283529182019161331f565b820191906000526020600020905b81548152906001019060200180831161330b575b50508061016160f51b815250600201828054600181600116156101000203166002900480156133855780601f10613363576101008083540402835291820191613385565b820191906000526020600020905b815481529060010190602001808311613371575b505060408051601f1981840301815291905280516133b0945060028701935060209091019150613afd565b5060018260010160098563ffffffff16815481106133ca57fe5b90600052602060002090600602016003018363ffffffff16815481106133ec57fe5b9060005260206000200160405180828054600181600116156101000203166002900480156134515780601f1061342f576101008083540402835291820191613451565b820191906000526020600020905b81548152906001019060200180831161343d575b50509283525050604051908190036020019020805491151560ff199092169190911790555b600101613080565b506006600060098463ffffffff168154811061349657fe5b600091825260208083206006909202909101546001600160a01b0316835282019290925260400190205460ff1661356d57600560098363ffffffff16815481106134dc57fe5b600091825260208083206006928302015484546001818101875595855291842090910180546001600160a01b0319166001600160a01b039092169190911790556009805491929163ffffffff871690811061353357fe5b60009182526020808320600692909202909101546001600160a01b031683528201929092526040019020805460ff19169115159190911790555b6008600060098463ffffffff168154811061358457fe5b600091825260208083206006909202909101546001600160a01b0316835282019290925260400190206009805463ffffffff85169081106135c157fe5b9060005260206000209060060201600201604051808280546001816001161561010002031660029004801561362d5780601f1061360b57610100808354040283529182019161362d565b820191906000526020600020905b815481529060010190602001808311613619575b505092835250506040519081900360200190205460ff166137cc576007600060098463ffffffff168154811061365f57fe5b600091825260208083206006909202909101546001600160a01b0316835282019290925260400190206009805463ffffffff851690811061369c57fe5b6000918252602080832084546001808201875595855291909320600692909202909201600290810180546136e495939094019390926000199082161561010002011604613c28565b5060016008600060098563ffffffff16815481106136fe57fe5b600091825260208083206006909202909101546001600160a01b0316835282019290925260400190206009805463ffffffff861690811061373b57fe5b906000526020600020906006020160020160405180828054600181600116156101000203166002900480156137a75780601f106137855761010080835404028352918201916137a7565b820191906000526020600020905b815481529060010190602001808311613793575b50509283525050604051908190036020019020805491151560ff199092169190911790555b600160098363ffffffff16815481106137e157fe5b60009182526020909120600690910201600501805460ff19169115159190911790555050565b61380f613bb5565b506040805180820190915281518152602082810190820152919050565b60008082600001516138508560000151866020015186600001518760200151613913565b0190505b8351602085015101811161389257825160208086015186519186015160019095019461388a929185039091039084908490613913565b019050613854565b5092915050565b6138a1613bb5565b6138928383836139d0565b606080826000015167ffffffffffffffff811180156138ca57600080fd5b506040519080825280601f01601f1916602001820160405280156138f5576020820181803683370190505b50905060006020820190506138928185602001518660000151613a41565b600083818685116139c157602085116139865783518251600019600860208990030260020a011991821690888a018890039083165b82811461397857818610613966578a8a0196505050505050506139c8565b50600190940180519094908316613948565b8596505050505050506139c8565b508383206000905b85880382116139bf57858320818114156139ae57839450505050506139c8565b50600192830192919091019061398e565b505b5050508284015b949350505050565b6139d8613bb5565b60006139f68560000151866020015186600001518760200151613913565b60208087018051918601919091528051820385528651905191925001811415613a225760008552613a38565b8351835186519101900385528351810160208601525b50909392505050565b5b60208110613a61578151835260209283019290910190601f1901613a42565b905182516020929092036101000a6000190180199091169116179052565b828054600181600116156101000203166002900490600052602060002090601f016020900481019282601f10613ac05782800160ff19823516178555613aed565b82800160010185558215613aed579182015b82811115613aed578235825591602001919060010190613ad2565b50613af9929150613c9d565b5090565b828054600181600116156101000203166002900490600052602060002090601f016020900481019282601f10613b3e57805160ff1916838001178555613aed565b82800160010185558215613aed579182015b82811115613aed578251825591602001919060010190613b50565b6040518060c0016040528060006001600160a01b0316815260200160006001600160a01b031681526020016060815260200160608152602001606081526020016000151581525090565b604051806040016040528060008152602001600081525090565b828054828255906000526020600020908101928215613c1c579160200282015b82811115613c1c5782518051613c0c918491602090910190613afd565b5091602001919060010190613bef565b50613af9929150613cb7565b828054600181600116156101000203166002900490600052602060002090601f016020900481019282601f10613c615780548555613aed565b82800160010185558215613aed57600052602060002091601f016020900482015b82811115613aed578254825591600101919060010190613c82565b611e0891905b80821115613af95760008155600101613ca3565b611e0891905b80821115613af9576000613cd18282613cda565b50600101613cbd565b50805460018160011615610100020316600290046000825580601f10613d005750613d1e565b601f016020900490600052602060002090810190613d1e9190613c9d565b5056fea26469706673582212202d8a41804943a65b4a46379199ffb9da5fe22699e0b1d8b76cfab254a121a24a64736f6c63430006060033","opcodes":"PUSH1 0x80 PUSH1 0x40 MSTORE CALLVALUE DUP1 ISZERO PUSH2 0x10 JUMPI PUSH1 0x0 DUP1 REVERT JUMPDEST POP PUSH2 0x3D57 DUP1 PUSH2 0x20 PUSH1 0x0 CODECOPY PUSH1 0x0 RETURN INVALID PUSH1 0x80 PUSH1 0x40 MSTORE CALLVALUE DUP1 ISZERO PUSH2 0x10 JUMPI PUSH1 0x0 DUP1 REVERT JUMPDEST POP PUSH1 0x4 CALLDATASIZE LT PUSH2 0x21C JUMPI PUSH1 0x0 CALLDATALOAD PUSH1 0xE0 SHR DUP1 PUSH4 0x8C162152 GT PUSH2 0x125 JUMPI DUP1 PUSH4 0xCF6AE528 GT PUSH2 0xAD JUMPI DUP1 PUSH4 0xE29E9290 GT PUSH2 0x7C JUMPI DUP1 PUSH4 0xE29E9290 EQ PUSH2 0x131F JUMPI DUP1 PUSH4 0xE9DFF3B4 EQ PUSH2 0x1351 JUMPI DUP1 PUSH4 0xF10F731C EQ PUSH2 0x1359 JUMPI DUP1 PUSH4 0xF396B51F EQ PUSH2 0x149A JUMPI DUP1 PUSH4 0xFC2A8EFA EQ PUSH2 0x14C0 JUMPI PUSH2 0x21C JUMP JUMPDEST DUP1 PUSH4 0xCF6AE528 EQ PUSH2 0x12A0 JUMPI DUP1 PUSH4 0xD027A93E EQ PUSH2 0x12C6 JUMPI DUP1 PUSH4 0xDB406597 EQ PUSH2 0x12CE JUMPI DUP1 PUSH4 0xE24E7912 EQ PUSH2 0x12F4 JUMPI PUSH2 0x21C JUMP JUMPDEST DUP1 PUSH4 0x928EC3E5 GT PUSH2 0xF4 JUMPI DUP1 PUSH4 0x928EC3E5 EQ PUSH2 0x107A JUMPI DUP1 PUSH4 0xA1A298DA EQ PUSH2 0x113E JUMPI DUP1 PUSH4 0xA63DE8CF EQ PUSH2 0x1161 JUMPI DUP1 PUSH4 0xA7ED5603 EQ PUSH2 0x117E JUMPI DUP1 PUSH4 0xC09BC35B EQ PUSH2 0x1232 JUMPI PUSH2 0x21C JUMP JUMPDEST DUP1 PUSH4 0x8C162152 EQ PUSH2 0xDB6 JUMPI DUP1 PUSH4 0x8CBA76B1 EQ PUSH2 0x79D JUMPI DUP1 PUSH4 0x8E636514 EQ PUSH2 0xF76 JUMPI DUP1 PUSH4 0x9169B323 EQ PUSH2 0xFA8 JUMPI PUSH2 0x21C JUMP JUMPDEST DUP1 PUSH4 0x4F2BCBEF GT PUSH2 0x1A8 JUMPI DUP1 PUSH4 0x834FDE34 GT PUSH2 0x177 JUMPI DUP1 PUSH4 0x834FDE34 EQ PUSH2 0xB5D JUMPI DUP1 PUSH4 0x838EBD85 EQ PUSH2 0xB80 JUMPI DUP1 PUSH4 0x847B5257 EQ PUSH2 0xBA3 JUMPI DUP1 PUSH4 0x84AEB694 EQ PUSH2 0xC61 JUMPI DUP1 PUSH4 0x88A6712F EQ PUSH2 0xC7D JUMPI PUSH2 0x21C JUMP JUMPDEST DUP1 PUSH4 0x4F2BCBEF EQ PUSH2 0x943 JUMPI DUP1 PUSH4 0x4F51433D EQ PUSH2 0x968 JUMPI DUP1 PUSH4 0x6B31C5F1 EQ PUSH2 0x970 JUMPI DUP1 PUSH4 0x6EECAC58 EQ PUSH2 0xA24 JUMPI PUSH2 0x21C JUMP JUMPDEST DUP1 PUSH4 0x2A4541D4 GT PUSH2 0x1EF JUMPI DUP1 PUSH4 0x2A4541D4 EQ PUSH2 0x5BB JUMPI DUP1 PUSH4 0x30699892 EQ PUSH2 0x79D JUMPI DUP1 PUSH4 0x3296E5CA EQ PUSH2 0x8D6 JUMPI DUP1 PUSH4 0x359589AC EQ PUSH2 0x90F JUMPI DUP1 PUSH4 0x4D981CF7 EQ PUSH2 0x93B JUMPI PUSH2 0x21C JUMP JUMPDEST DUP1 PUSH4 0x8AC733A EQ PUSH2 0x221 JUMPI DUP1 PUSH4 0xF121925 EQ PUSH2 0x34A JUMPI DUP1 PUSH4 0x17361084 EQ PUSH2 0x453 JUMPI DUP1 PUSH4 0x24F416D6 EQ PUSH2 0x507 JUMPI JUMPDEST PUSH1 0x0 DUP1 REVERT JUMPDEST PUSH2 0x2D5 PUSH1 0x4 DUP1 CALLDATASIZE SUB PUSH1 0x40 DUP2 LT ISZERO PUSH2 0x237 JUMPI PUSH1 0x0 DUP1 REVERT JUMPDEST PUSH1 0x1 PUSH1 0x1 PUSH1 0xA0 SHL SUB DUP3 CALLDATALOAD AND SWAP2 SWAP1 DUP2 ADD SWAP1 PUSH1 0x40 DUP2 ADD PUSH1 0x20 DUP3 ADD CALLDATALOAD PUSH1 0x1 PUSH1 0x20 SHL DUP2 GT ISZERO PUSH2 0x261 JUMPI PUSH1 0x0 DUP1 REVERT JUMPDEST DUP3 ADD DUP4 PUSH1 0x20 DUP3 ADD GT ISZERO PUSH2 0x273 JUMPI PUSH1 0x0 DUP1 REVERT JUMPDEST DUP1 CALLDATALOAD SWAP1 PUSH1 0x20 ADD SWAP2 DUP5 PUSH1 0x1 DUP4 MUL DUP5 ADD GT PUSH1 0x1 PUSH1 0x20 SHL DUP4 GT OR ISZERO PUSH2 0x294 JUMPI PUSH1 0x0 DUP1 REVERT JUMPDEST SWAP2 SWAP1 DUP1 DUP1 PUSH1 0x1F ADD PUSH1 0x20 DUP1 SWAP2 DIV MUL PUSH1 0x20 ADD PUSH1 0x40 MLOAD SWAP1 DUP2 ADD PUSH1 0x40 MSTORE DUP1 SWAP4 SWAP3 SWAP2 SWAP1 DUP2 DUP2 MSTORE PUSH1 0x20 ADD DUP4 DUP4 DUP1 DUP3 DUP5 CALLDATACOPY PUSH1 0x0 SWAP3 ADD SWAP2 SWAP1 SWAP2 MSTORE POP SWAP3 SWAP6 POP PUSH2 0x15F1 SWAP5 POP POP POP POP POP JUMP JUMPDEST PUSH1 0x40 DUP1 MLOAD PUSH1 0x20 DUP1 DUP3 MSTORE DUP4 MLOAD DUP2 DUP4 ADD MSTORE DUP4 MLOAD SWAP2 SWAP3 DUP4 SWAP3 SWAP1 DUP4 ADD SWAP2 DUP6 ADD SWAP1 DUP1 DUP4 DUP4 PUSH1 0x0 JUMPDEST DUP4 DUP2 LT ISZERO PUSH2 0x30F JUMPI DUP2 DUP2 ADD MLOAD DUP4 DUP3 ADD MSTORE PUSH1 0x20 ADD PUSH2 0x2F7 JUMP JUMPDEST POP POP POP POP SWAP1 POP SWAP1 DUP2 ADD SWAP1 PUSH1 0x1F AND DUP1 ISZERO PUSH2 0x33C JUMPI DUP1 DUP3 SUB DUP1 MLOAD PUSH1 0x1 DUP4 PUSH1 0x20 SUB PUSH2 0x100 EXP SUB NOT AND DUP2 MSTORE PUSH1 0x20 ADD SWAP2 POP JUMPDEST POP SWAP3 POP POP POP PUSH1 0x40 MLOAD DUP1 SWAP2 SUB SWAP1 RETURN JUMPDEST PUSH2 0x375 PUSH1 0x4 DUP1 CALLDATASIZE SUB PUSH1 0x40 DUP2 LT ISZERO PUSH2 0x360 JUMPI PUSH1 0x0 DUP1 REVERT JUMPDEST POP PUSH4 0xFFFFFFFF DUP2 CALLDATALOAD DUP2 AND SWAP2 PUSH1 0x20 ADD CALLDATALOAD AND PUSH2 0x170C JUMP JUMPDEST PUSH1 0x40 MLOAD DUP1 DUP1 PUSH1 0x20 ADD DUP1 PUSH1 0x20 ADD DUP4 DUP2 SUB DUP4 MSTORE DUP6 DUP2 DUP2 MLOAD DUP2 MSTORE PUSH1 0x20 ADD SWAP2 POP DUP1 MLOAD SWAP1 PUSH1 0x20 ADD SWAP1 DUP1 DUP4 DUP4 PUSH1 0x0 JUMPDEST DUP4 DUP2 LT ISZERO PUSH2 0x3B6 JUMPI DUP2 DUP2 ADD MLOAD DUP4 DUP3 ADD MSTORE PUSH1 0x20 ADD PUSH2 0x39E JUMP JUMPDEST POP POP POP POP SWAP1 POP SWAP1 DUP2 ADD SWAP1 PUSH1 0x1F AND DUP1 ISZERO PUSH2 0x3E3 JUMPI DUP1 DUP3 SUB DUP1 MLOAD PUSH1 0x1 DUP4 PUSH1 0x20 SUB PUSH2 0x100 EXP SUB NOT AND DUP2 MSTORE PUSH1 0x20 ADD SWAP2 POP JUMPDEST POP DUP4 DUP2 SUB DUP3 MSTORE DUP5 MLOAD DUP2 MSTORE DUP5 MLOAD PUSH1 0x20 SWAP2 DUP3 ADD SWAP2 DUP7 ADD SWAP1 DUP1 DUP4 DUP4 PUSH1 0x0 JUMPDEST DUP4 DUP2 LT ISZERO PUSH2 0x416 JUMPI DUP2 DUP2 ADD MLOAD DUP4 DUP3 ADD MSTORE PUSH1 0x20 ADD PUSH2 0x3FE JUMP JUMPDEST POP POP POP POP SWAP1 POP SWAP1 DUP2 ADD SWAP1 PUSH1 0x1F AND DUP1 ISZERO PUSH2 0x443 JUMPI DUP1 DUP3 SUB DUP1 MLOAD PUSH1 0x1 DUP4 PUSH1 0x20 SUB PUSH2 0x100 EXP SUB NOT AND DUP2 MSTORE PUSH1 0x20 ADD SWAP2 POP JUMPDEST POP SWAP5 POP POP POP POP POP PUSH1 0x40 MLOAD DUP1 SWAP2 SUB SWAP1 RETURN JUMPDEST PUSH2 0x2D5 PUSH1 0x4 DUP1 CALLDATASIZE SUB PUSH1 0x40 DUP2 LT ISZERO PUSH2 0x469 JUMPI PUSH1 0x0 DUP1 REVERT JUMPDEST PUSH1 0x1 PUSH1 0x1 PUSH1 0xA0 SHL SUB DUP3 CALLDATALOAD AND SWAP2 SWAP1 DUP2 ADD SWAP1 PUSH1 0x40 DUP2 ADD PUSH1 0x20 DUP3 ADD CALLDATALOAD PUSH1 0x1 PUSH1 0x20 SHL DUP2 GT ISZERO PUSH2 0x493 JUMPI PUSH1 0x0 DUP1 REVERT JUMPDEST DUP3 ADD DUP4 PUSH1 0x20 DUP3 ADD GT ISZERO PUSH2 0x4A5 JUMPI PUSH1 0x0 DUP1 REVERT JUMPDEST DUP1 CALLDATALOAD SWAP1 PUSH1 0x20 ADD SWAP2 DUP5 PUSH1 0x1 DUP4 MUL DUP5 ADD GT PUSH1 0x1 PUSH1 0x20 SHL DUP4 GT OR ISZERO PUSH2 0x4C6 JUMPI PUSH1 0x0 DUP1 REVERT JUMPDEST SWAP2 SWAP1 DUP1 DUP1 PUSH1 0x1F ADD PUSH1 0x20 DUP1 SWAP2 DIV MUL PUSH1 0x20 ADD PUSH1 0x40 MLOAD SWAP1 DUP2 ADD PUSH1 0x40 MSTORE DUP1 SWAP4 SWAP3 SWAP2 SWAP1 DUP2 DUP2 MSTORE PUSH1 0x20 ADD DUP4 DUP4 DUP1 DUP3 DUP5 CALLDATACOPY PUSH1 0x0 SWAP3 ADD SWAP2 SWAP1 SWAP2 MSTORE POP SWAP3 SWAP6 POP PUSH2 0x18B7 SWAP5 POP POP POP POP POP JUMP JUMPDEST PUSH2 0x2D5 PUSH1 0x4 DUP1 CALLDATASIZE SUB PUSH1 0x40 DUP2 LT ISZERO PUSH2 0x51D JUMPI PUSH1 0x0 DUP1 REVERT JUMPDEST PUSH1 0x1 PUSH1 0x1 PUSH1 0xA0 SHL SUB DUP3 CALLDATALOAD AND SWAP2 SWAP1 DUP2 ADD SWAP1 PUSH1 0x40 DUP2 ADD PUSH1 0x20 DUP3 ADD CALLDATALOAD PUSH1 0x1 PUSH1 0x20 SHL DUP2 GT ISZERO PUSH2 0x547 JUMPI PUSH1 0x0 DUP1 REVERT JUMPDEST DUP3 ADD DUP4 PUSH1 0x20 DUP3 ADD GT ISZERO PUSH2 0x559 JUMPI PUSH1 0x0 DUP1 REVERT JUMPDEST DUP1 CALLDATALOAD SWAP1 PUSH1 0x20 ADD SWAP2 DUP5 PUSH1 0x1 DUP4 MUL DUP5 ADD GT PUSH1 0x1 PUSH1 0x20 SHL DUP4 GT OR ISZERO PUSH2 0x57A JUMPI PUSH1 0x0 DUP1 REVERT JUMPDEST SWAP2 SWAP1 DUP1 DUP1 PUSH1 0x1F ADD PUSH1 0x20 DUP1 SWAP2 DIV MUL PUSH1 0x20 ADD PUSH1 0x40 MLOAD SWAP1 DUP2 ADD PUSH1 0x40 MSTORE DUP1 SWAP4 SWAP3 SWAP2 SWAP1 DUP2 DUP2 MSTORE PUSH1 0x20 ADD DUP4 DUP4 DUP1 DUP3 DUP5 CALLDATACOPY PUSH1 0x0 SWAP3 ADD SWAP2 SWAP1 SWAP2 MSTORE POP SWAP3 SWAP6 POP PUSH2 0x1970 SWAP5 POP POP POP POP POP JUMP JUMPDEST PUSH2 0x784 PUSH1 0x4 DUP1 CALLDATASIZE SUB PUSH1 0xC0 DUP2 LT ISZERO PUSH2 0x5D1 JUMPI PUSH1 0x0 DUP1 REVERT JUMPDEST PUSH1 0x1 PUSH1 0x1 PUSH1 0xA0 SHL SUB DUP3 CALLDATALOAD DUP2 AND SWAP3 PUSH1 0x20 DUP2 ADD CALLDATALOAD SWAP1 SWAP2 AND SWAP2 DUP2 ADD SWAP1 PUSH1 0x60 DUP2 ADD PUSH1 0x40 DUP3 ADD CALLDATALOAD PUSH1 0x1 PUSH1 0x20 SHL DUP2 GT ISZERO PUSH2 0x604 JUMPI PUSH1 0x0 DUP1 REVERT JUMPDEST DUP3 ADD DUP4 PUSH1 0x20 DUP3 ADD GT ISZERO PUSH2 0x616 JUMPI PUSH1 0x0 DUP1 REVERT JUMPDEST DUP1 CALLDATALOAD SWAP1 PUSH1 0x20 ADD SWAP2 DUP5 PUSH1 0x1 DUP4 MUL DUP5 ADD GT PUSH1 0x1 PUSH1 0x20 SHL DUP4 GT OR ISZERO PUSH2 0x637 JUMPI PUSH1 0x0 DUP1 REVERT JUMPDEST SWAP2 SWAP1 DUP1 DUP1 PUSH1 0x1F ADD PUSH1 0x20 DUP1 SWAP2 DIV MUL PUSH1 0x20 ADD PUSH1 0x40 MLOAD SWAP1 DUP2 ADD PUSH1 0x40 MSTORE DUP1 SWAP4 SWAP3 SWAP2 SWAP1 DUP2 DUP2 MSTORE PUSH1 0x20 ADD DUP4 DUP4 DUP1 DUP3 DUP5 CALLDATACOPY PUSH1 0x0 SWAP3 ADD SWAP2 SWAP1 SWAP2 MSTORE POP SWAP3 SWAP6 SWAP5 SWAP4 PUSH1 0x20 DUP2 ADD SWAP4 POP CALLDATALOAD SWAP2 POP POP PUSH1 0x1 PUSH1 0x20 SHL DUP2 GT ISZERO PUSH2 0x689 JUMPI PUSH1 0x0 DUP1 REVERT JUMPDEST DUP3 ADD DUP4 PUSH1 0x20 DUP3 ADD GT ISZERO PUSH2 0x69B JUMPI PUSH1 0x0 DUP1 REVERT JUMPDEST DUP1 CALLDATALOAD SWAP1 PUSH1 0x20 ADD SWAP2 DUP5 PUSH1 0x1 DUP4 MUL DUP5 ADD GT PUSH1 0x1 PUSH1 0x20 SHL DUP4 GT OR ISZERO PUSH2 0x6BC JUMPI PUSH1 0x0 DUP1 REVERT JUMPDEST SWAP2 SWAP1 DUP1 DUP1 PUSH1 0x1F ADD PUSH1 0x20 DUP1 SWAP2 DIV MUL PUSH1 0x20 ADD PUSH1 0x40 MLOAD SWAP1 DUP2 ADD PUSH1 0x40 MSTORE DUP1 SWAP4 SWAP3 SWAP2 SWAP1 DUP2 DUP2 MSTORE PUSH1 0x20 ADD DUP4 DUP4 DUP1 DUP3 DUP5 CALLDATACOPY PUSH1 0x0 SWAP3 ADD SWAP2 SWAP1 SWAP2 MSTORE POP SWAP3 SWAP6 SWAP5 SWAP4 PUSH1 0x20 DUP2 ADD SWAP4 POP CALLDATALOAD SWAP2 POP POP PUSH1 0x1 PUSH1 0x20 SHL DUP2 GT ISZERO PUSH2 0x70E JUMPI PUSH1 0x0 DUP1 REVERT JUMPDEST DUP3 ADD DUP4 PUSH1 0x20 DUP3 ADD GT ISZERO PUSH2 0x720 JUMPI PUSH1 0x0 DUP1 REVERT JUMPDEST DUP1 CALLDATALOAD SWAP1 PUSH1 0x20 ADD SWAP2 DUP5 PUSH1 0x1 DUP4 MUL DUP5 ADD GT PUSH1 0x1 PUSH1 0x20 SHL DUP4 GT OR ISZERO PUSH2 0x741 JUMPI PUSH1 0x0 DUP1 REVERT JUMPDEST SWAP2 SWAP1 DUP1 DUP1 PUSH1 0x1F ADD PUSH1 0x20 DUP1 SWAP2 DIV MUL PUSH1 0x20 ADD PUSH1 0x40 MLOAD SWAP1 DUP2 ADD PUSH1 0x40 MSTORE DUP1 SWAP4 SWAP3 SWAP2 SWAP1 DUP2 DUP2 MSTORE PUSH1 0x20 ADD DUP4 DUP4 DUP1 DUP3 DUP5 CALLDATACOPY PUSH1 0x0 SWAP3 ADD SWAP2 SWAP1 SWAP2 MSTORE POP SWAP3 SWAP6 POP POP POP POP CALLDATALOAD ISZERO ISZERO SWAP1 POP PUSH2 0x1A22 JUMP JUMPDEST PUSH1 0x40 DUP1 MLOAD PUSH4 0xFFFFFFFF SWAP1 SWAP3 AND DUP3 MSTORE MLOAD SWAP1 DUP2 SWAP1 SUB PUSH1 0x20 ADD SWAP1 RETURN JUMPDEST PUSH2 0x2D5 PUSH1 0x4 DUP1 CALLDATASIZE SUB PUSH1 0x60 DUP2 LT ISZERO PUSH2 0x7B3 JUMPI PUSH1 0x0 DUP1 REVERT JUMPDEST PUSH1 0x1 PUSH1 0x1 PUSH1 0xA0 SHL SUB DUP3 CALLDATALOAD AND SWAP2 SWAP1 DUP2 ADD SWAP1 PUSH1 0x40 DUP2 ADD PUSH1 0x20 DUP3 ADD CALLDATALOAD PUSH1 0x1 PUSH1 0x20 SHL DUP2 GT ISZERO PUSH2 0x7DD JUMPI PUSH1 0x0 DUP1 REVERT JUMPDEST DUP3 ADD DUP4 PUSH1 0x20 DUP3 ADD GT ISZERO PUSH2 0x7EF JUMPI PUSH1 0x0 DUP1 REVERT JUMPDEST DUP1 CALLDATALOAD SWAP1 PUSH1 0x20 ADD SWAP2 DUP5 PUSH1 0x1 DUP4 MUL DUP5 ADD GT PUSH1 0x1 PUSH1 0x20 SHL DUP4 GT OR ISZERO PUSH2 0x810 JUMPI PUSH1 0x0 DUP1 REVERT JUMPDEST SWAP2 SWAP1 DUP1 DUP1 PUSH1 0x1F ADD PUSH1 0x20 DUP1 SWAP2 DIV MUL PUSH1 0x20 ADD PUSH1 0x40 MLOAD SWAP1 DUP2 ADD PUSH1 0x40 MSTORE DUP1 SWAP4 SWAP3 SWAP2 SWAP1 DUP2 DUP2 MSTORE PUSH1 0x20 ADD DUP4 DUP4 DUP1 DUP3 DUP5 CALLDATACOPY PUSH1 0x0 SWAP3 ADD SWAP2 SWAP1 SWAP2 MSTORE POP SWAP3 SWAP6 SWAP5 SWAP4 PUSH1 0x20 DUP2 ADD SWAP4 POP CALLDATALOAD SWAP2 POP POP PUSH1 0x1 PUSH1 0x20 SHL DUP2 GT ISZERO PUSH2 0x862 JUMPI PUSH1 0x0 DUP1 REVERT JUMPDEST DUP3 ADD DUP4 PUSH1 0x20 DUP3 ADD GT ISZERO PUSH2 0x874 JUMPI PUSH1 0x0 DUP1 REVERT JUMPDEST DUP1 CALLDATALOAD SWAP1 PUSH1 0x20 ADD SWAP2 DUP5 PUSH1 0x1 DUP4 MUL DUP5 ADD GT PUSH1 0x1 PUSH1 0x20 SHL DUP4 GT OR ISZERO PUSH2 0x895 JUMPI PUSH1 0x0 DUP1 REVERT JUMPDEST SWAP2 SWAP1 DUP1 DUP1 PUSH1 0x1F ADD PUSH1 0x20 DUP1 SWAP2 DIV MUL PUSH1 0x20 ADD PUSH1 0x40 MLOAD SWAP1 DUP2 ADD PUSH1 0x40 MSTORE DUP1 SWAP4 SWAP3 SWAP2 SWAP1 DUP2 DUP2 MSTORE PUSH1 0x20 ADD DUP4 DUP4 DUP1 DUP3 DUP5 CALLDATACOPY PUSH1 0x0 SWAP3 ADD SWAP2 SWAP1 SWAP2 MSTORE POP SWAP3 SWAP6 POP PUSH2 0x1BE7 SWAP5 POP POP POP POP POP JUMP JUMPDEST PUSH2 0x8F3 PUSH1 0x4 DUP1 CALLDATASIZE SUB PUSH1 0x20 DUP2 LT ISZERO PUSH2 0x8EC JUMPI PUSH1 0x0 DUP1 REVERT JUMPDEST POP CALLDATALOAD PUSH2 0x1D5C JUMP JUMPDEST PUSH1 0x40 DUP1 MLOAD PUSH1 0x1 PUSH1 0x1 PUSH1 0xA0 SHL SUB SWAP1 SWAP3 AND DUP3 MSTORE MLOAD SWAP1 DUP2 SWAP1 SUB PUSH1 0x20 ADD SWAP1 RETURN JUMPDEST PUSH2 0x2D5 PUSH1 0x4 DUP1 CALLDATASIZE SUB PUSH1 0x40 DUP2 LT ISZERO PUSH2 0x925 JUMPI PUSH1 0x0 DUP1 REVERT JUMPDEST POP PUSH1 0x1 PUSH1 0x1 PUSH1 0xA0 SHL SUB DUP2 CALLDATALOAD AND SWAP1 PUSH1 0x20 ADD CALLDATALOAD PUSH2 0x1D83 JUMP JUMPDEST PUSH2 0x784 PUSH2 0x1E04 JUMP JUMPDEST PUSH2 0x966 PUSH1 0x4 DUP1 CALLDATASIZE SUB PUSH1 0x20 DUP2 LT ISZERO PUSH2 0x959 JUMPI PUSH1 0x0 DUP1 REVERT JUMPDEST POP CALLDATALOAD PUSH4 0xFFFFFFFF AND PUSH2 0x1E0B JUMP JUMPDEST STOP JUMPDEST PUSH2 0x784 PUSH2 0x1E45 JUMP JUMPDEST PUSH2 0x2D5 PUSH1 0x4 DUP1 CALLDATASIZE SUB PUSH1 0x40 DUP2 LT ISZERO PUSH2 0x986 JUMPI PUSH1 0x0 DUP1 REVERT JUMPDEST PUSH1 0x1 PUSH1 0x1 PUSH1 0xA0 SHL SUB DUP3 CALLDATALOAD AND SWAP2 SWAP1 DUP2 ADD SWAP1 PUSH1 0x40 DUP2 ADD PUSH1 0x20 DUP3 ADD CALLDATALOAD PUSH1 0x1 PUSH1 0x20 SHL DUP2 GT ISZERO PUSH2 0x9B0 JUMPI PUSH1 0x0 DUP1 REVERT JUMPDEST DUP3 ADD DUP4 PUSH1 0x20 DUP3 ADD GT ISZERO PUSH2 0x9C2 JUMPI PUSH1 0x0 DUP1 REVERT JUMPDEST DUP1 CALLDATALOAD SWAP1 PUSH1 0x20 ADD SWAP2 DUP5 PUSH1 0x1 DUP4 MUL DUP5 ADD GT PUSH1 0x1 PUSH1 0x20 SHL DUP4 GT OR ISZERO PUSH2 0x9E3 JUMPI PUSH1 0x0 DUP1 REVERT JUMPDEST SWAP2 SWAP1 DUP1 DUP1 PUSH1 0x1F ADD PUSH1 0x20 DUP1 SWAP2 DIV MUL PUSH1 0x20 ADD PUSH1 0x40 MLOAD SWAP1 DUP2 ADD PUSH1 0x40 MSTORE DUP1 SWAP4 SWAP3 SWAP2 SWAP1 DUP2 DUP2 MSTORE PUSH1 0x20 ADD DUP4 DUP4 DUP1 DUP3 DUP5 CALLDATACOPY PUSH1 0x0 SWAP3 ADD SWAP2 SWAP1 SWAP2 MSTORE POP SWAP3 SWAP6 POP PUSH2 0x1E4B SWAP5 POP POP POP POP POP JUMP JUMPDEST PUSH2 0x966 PUSH1 0x4 DUP1 CALLDATASIZE SUB PUSH1 0x60 DUP2 LT ISZERO PUSH2 0xA3A JUMPI PUSH1 0x0 DUP1 REVERT JUMPDEST PUSH1 0x1 PUSH1 0x1 PUSH1 0xA0 SHL SUB DUP3 CALLDATALOAD AND SWAP2 SWAP1 DUP2 ADD SWAP1 PUSH1 0x40 DUP2 ADD PUSH1 0x20 DUP3 ADD CALLDATALOAD PUSH1 0x1 PUSH1 0x20 SHL DUP2 GT ISZERO PUSH2 0xA64 JUMPI PUSH1 0x0 DUP1 REVERT JUMPDEST DUP3 ADD DUP4 PUSH1 0x20 DUP3 ADD GT ISZERO PUSH2 0xA76 JUMPI PUSH1 0x0 DUP1 REVERT JUMPDEST DUP1 CALLDATALOAD SWAP1 PUSH1 0x20 ADD SWAP2 DUP5 PUSH1 0x1 DUP4 MUL DUP5 ADD GT PUSH1 0x1 PUSH1 0x20 SHL DUP4 GT OR ISZERO PUSH2 0xA97 JUMPI PUSH1 0x0 DUP1 REVERT JUMPDEST SWAP2 SWAP1 DUP1 DUP1 PUSH1 0x1F ADD PUSH1 0x20 DUP1 SWAP2 DIV MUL PUSH1 0x20 ADD PUSH1 0x40 MLOAD SWAP1 DUP2 ADD PUSH1 0x40 MSTORE DUP1 SWAP4 SWAP3 SWAP2 SWAP1 DUP2 DUP2 MSTORE PUSH1 0x20 ADD DUP4 DUP4 DUP1 DUP3 DUP5 CALLDATACOPY PUSH1 0x0 SWAP3 ADD SWAP2 SWAP1 SWAP2 MSTORE POP SWAP3 SWAP6 SWAP5 SWAP4 PUSH1 0x20 DUP2 ADD SWAP4 POP CALLDATALOAD SWAP2 POP POP PUSH1 0x1 PUSH1 0x20 SHL DUP2 GT ISZERO PUSH2 0xAE9 JUMPI PUSH1 0x0 DUP1 REVERT JUMPDEST DUP3 ADD DUP4 PUSH1 0x20 DUP3 ADD GT ISZERO PUSH2 0xAFB JUMPI PUSH1 0x0 DUP1 REVERT JUMPDEST DUP1 CALLDATALOAD SWAP1 PUSH1 0x20 ADD SWAP2 DUP5 PUSH1 0x1 DUP4 MUL DUP5 ADD GT PUSH1 0x1 PUSH1 0x20 SHL DUP4 GT OR ISZERO PUSH2 0xB1C JUMPI PUSH1 0x0 DUP1 REVERT JUMPDEST SWAP2 SWAP1 DUP1 DUP1 PUSH1 0x1F ADD PUSH1 0x20 DUP1 SWAP2 DIV MUL PUSH1 0x20 ADD PUSH1 0x40 MLOAD SWAP1 DUP2 ADD PUSH1 0x40 MSTORE DUP1 SWAP4 SWAP3 SWAP2 SWAP1 DUP2 DUP2 MSTORE PUSH1 0x20 ADD DUP4 DUP4 DUP1 DUP3 DUP5 CALLDATACOPY PUSH1 0x0 SWAP3 ADD SWAP2 SWAP1 SWAP2 MSTORE POP SWAP3 SWAP6 POP PUSH2 0x1ECA SWAP5 POP POP POP POP POP JUMP JUMPDEST PUSH2 0x784 PUSH1 0x4 DUP1 CALLDATASIZE SUB PUSH1 0x20 DUP2 LT ISZERO PUSH2 0xB73 JUMPI PUSH1 0x0 DUP1 REVERT JUMPDEST POP CALLDATALOAD PUSH4 0xFFFFFFFF AND PUSH2 0x1FFC JUMP JUMPDEST PUSH2 0x966 PUSH1 0x4 DUP1 CALLDATASIZE SUB PUSH1 0x20 DUP2 LT ISZERO PUSH2 0xB96 JUMPI PUSH1 0x0 DUP1 REVERT JUMPDEST POP CALLDATALOAD PUSH4 0xFFFFFFFF AND PUSH2 0x202B JUMP JUMPDEST PUSH2 0x966 PUSH1 0x4 DUP1 CALLDATASIZE SUB PUSH1 0x40 DUP2 LT ISZERO PUSH2 0xBB9 JUMPI PUSH1 0x0 DUP1 REVERT JUMPDEST DUP2 ADD SWAP1 PUSH1 0x20 DUP2 ADD DUP2 CALLDATALOAD PUSH1 0x1 PUSH1 0x20 SHL DUP2 GT ISZERO PUSH2 0xBD3 JUMPI PUSH1 0x0 DUP1 REVERT JUMPDEST DUP3 ADD DUP4 PUSH1 0x20 DUP3 ADD GT ISZERO PUSH2 0xBE5 JUMPI PUSH1 0x0 DUP1 REVERT JUMPDEST DUP1 CALLDATALOAD SWAP1 PUSH1 0x20 ADD SWAP2 DUP5 PUSH1 0x1 DUP4 MUL DUP5 ADD GT PUSH1 0x1 PUSH1 0x20 SHL DUP4 GT OR ISZERO PUSH2 0xC06 JUMPI PUSH1 0x0 DUP1 REVERT JUMPDEST SWAP2 SWAP4 SWAP1 SWAP3 SWAP1 SWAP2 PUSH1 0x20 DUP2 ADD SWAP1 CALLDATALOAD PUSH1 0x1 PUSH1 0x20 SHL DUP2 GT ISZERO PUSH2 0xC23 JUMPI PUSH1 0x0 DUP1 REVERT JUMPDEST DUP3 ADD DUP4 PUSH1 0x20 DUP3 ADD GT ISZERO PUSH2 0xC35 JUMPI PUSH1 0x0 DUP1 REVERT JUMPDEST DUP1 CALLDATALOAD SWAP1 PUSH1 0x20 ADD SWAP2 DUP5 PUSH1 0x1 DUP4 MUL DUP5 ADD GT PUSH1 0x1 PUSH1 0x20 SHL DUP4 GT OR ISZERO PUSH2 0xC56 JUMPI PUSH1 0x0 DUP1 REVERT JUMPDEST POP SWAP1 SWAP3 POP SWAP1 POP PUSH2 0x2409 JUMP JUMPDEST PUSH2 0xC69 PUSH2 0x249D JUMP JUMPDEST PUSH1 0x40 DUP1 MLOAD SWAP2 ISZERO ISZERO DUP3 MSTORE MLOAD SWAP1 DUP2 SWAP1 SUB PUSH1 0x20 ADD SWAP1 RETURN JUMPDEST PUSH2 0x966 PUSH1 0x4 DUP1 CALLDATASIZE SUB PUSH1 0x60 DUP2 LT ISZERO PUSH2 0xC93 JUMPI PUSH1 0x0 DUP1 REVERT JUMPDEST PUSH1 0x1 PUSH1 0x1 PUSH1 0xA0 SHL SUB DUP3 CALLDATALOAD AND SWAP2 SWAP1 DUP2 ADD SWAP1 PUSH1 0x40 DUP2 ADD PUSH1 0x20 DUP3 ADD CALLDATALOAD PUSH1 0x1 PUSH1 0x20 SHL DUP2 GT ISZERO PUSH2 0xCBD JUMPI PUSH1 0x0 DUP1 REVERT JUMPDEST DUP3 ADD DUP4 PUSH1 0x20 DUP3 ADD GT ISZERO PUSH2 0xCCF JUMPI PUSH1 0x0 DUP1 REVERT JUMPDEST DUP1 CALLDATALOAD SWAP1 PUSH1 0x20 ADD SWAP2 DUP5 PUSH1 0x1 DUP4 MUL DUP5 ADD GT PUSH1 0x1 PUSH1 0x20 SHL DUP4 GT OR ISZERO PUSH2 0xCF0 JUMPI PUSH1 0x0 DUP1 REVERT JUMPDEST SWAP2 SWAP1 DUP1 DUP1 PUSH1 0x1F ADD PUSH1 0x20 DUP1 SWAP2 DIV MUL PUSH1 0x20 ADD PUSH1 0x40 MLOAD SWAP1 DUP2 ADD PUSH1 0x40 MSTORE DUP1 SWAP4 SWAP3 SWAP2 SWAP1 DUP2 DUP2 MSTORE PUSH1 0x20 ADD DUP4 DUP4 DUP1 DUP3 DUP5 CALLDATACOPY PUSH1 0x0 SWAP3 ADD SWAP2 SWAP1 SWAP2 MSTORE POP SWAP3 SWAP6 SWAP5 SWAP4 PUSH1 0x20 DUP2 ADD SWAP4 POP CALLDATALOAD SWAP2 POP POP PUSH1 0x1 PUSH1 0x20 SHL DUP2 GT ISZERO PUSH2 0xD42 JUMPI PUSH1 0x0 DUP1 REVERT JUMPDEST DUP3 ADD DUP4 PUSH1 0x20 DUP3 ADD GT ISZERO PUSH2 0xD54 JUMPI PUSH1 0x0 DUP1 REVERT JUMPDEST DUP1 CALLDATALOAD SWAP1 PUSH1 0x20 ADD SWAP2 DUP5 PUSH1 0x1 DUP4 MUL DUP5 ADD GT PUSH1 0x1 PUSH1 0x20 SHL DUP4 GT OR ISZERO PUSH2 0xD75 JUMPI PUSH1 0x0 DUP1 REVERT JUMPDEST SWAP2 SWAP1 DUP1 DUP1 PUSH1 0x1F ADD PUSH1 0x20 DUP1 SWAP2 DIV MUL PUSH1 0x20 ADD PUSH1 0x40 MLOAD SWAP1 DUP2 ADD PUSH1 0x40 MSTORE DUP1 SWAP4 SWAP3 SWAP2 SWAP1 DUP2 DUP2 MSTORE PUSH1 0x20 ADD DUP4 DUP4 DUP1 DUP3 DUP5 CALLDATACOPY PUSH1 0x0 SWAP3 ADD SWAP2 SWAP1 SWAP2 MSTORE POP SWAP3 SWAP6 POP PUSH2 0x24A2 SWAP5 POP POP POP POP POP JUMP JUMPDEST PUSH2 0x966 PUSH1 0x4 DUP1 CALLDATASIZE SUB PUSH1 0xA0 DUP2 LT ISZERO PUSH2 0xDCC JUMPI PUSH1 0x0 DUP1 REVERT JUMPDEST PUSH1 0x1 PUSH1 0x1 PUSH1 0xA0 SHL SUB DUP3 CALLDATALOAD AND SWAP2 SWAP1 DUP2 ADD SWAP1 PUSH1 0x40 DUP2 ADD PUSH1 0x20 DUP3 ADD CALLDATALOAD PUSH1 0x1 PUSH1 0x20 SHL DUP2 GT ISZERO PUSH2 0xDF6 JUMPI PUSH1 0x0 DUP1 REVERT JUMPDEST DUP3 ADD DUP4 PUSH1 0x20 DUP3 ADD GT ISZERO PUSH2 0xE08 JUMPI PUSH1 0x0 DUP1 REVERT JUMPDEST DUP1 CALLDATALOAD SWAP1 PUSH1 0x20 ADD SWAP2 DUP5 PUSH1 0x1 DUP4 MUL DUP5 ADD GT PUSH1 0x1 PUSH1 0x20 SHL DUP4 GT OR ISZERO PUSH2 0xE29 JUMPI PUSH1 0x0 DUP1 REVERT JUMPDEST SWAP2 SWAP1 DUP1 DUP1 PUSH1 0x1F ADD PUSH1 0x20 DUP1 SWAP2 DIV MUL PUSH1 0x20 ADD PUSH1 0x40 MLOAD SWAP1 DUP2 ADD PUSH1 0x40 MSTORE DUP1 SWAP4 SWAP3 SWAP2 SWAP1 DUP2 DUP2 MSTORE PUSH1 0x20 ADD DUP4 DUP4 DUP1 DUP3 DUP5 CALLDATACOPY PUSH1 0x0 SWAP3 ADD SWAP2 SWAP1 SWAP2 MSTORE POP SWAP3 SWAP6 SWAP5 SWAP4 PUSH1 0x20 DUP2 ADD SWAP4 POP CALLDATALOAD SWAP2 POP POP PUSH1 0x1 PUSH1 0x20 SHL DUP2 GT ISZERO PUSH2 0xE7B JUMPI PUSH1 0x0 DUP1 REVERT JUMPDEST DUP3 ADD DUP4 PUSH1 0x20 DUP3 ADD GT ISZERO PUSH2 0xE8D JUMPI PUSH1 0x0 DUP1 REVERT JUMPDEST DUP1 CALLDATALOAD SWAP1 PUSH1 0x20 ADD SWAP2 DUP5 PUSH1 0x1 DUP4 MUL DUP5 ADD GT PUSH1 0x1 PUSH1 0x20 SHL DUP4 GT OR ISZERO PUSH2 0xEAE JUMPI PUSH1 0x0 DUP1 REVERT JUMPDEST SWAP2 SWAP1 DUP1 DUP1 PUSH1 0x1F ADD PUSH1 0x20 DUP1 SWAP2 DIV MUL PUSH1 0x20 ADD PUSH1 0x40 MLOAD SWAP1 DUP2 ADD PUSH1 0x40 MSTORE DUP1 SWAP4 SWAP3 SWAP2 SWAP1 DUP2 DUP2 MSTORE PUSH1 0x20 ADD DUP4 DUP4 DUP1 DUP3 DUP5 CALLDATACOPY PUSH1 0x0 SWAP3 ADD SWAP2 SWAP1 SWAP2 MSTORE POP SWAP3 SWAP6 SWAP5 SWAP4 PUSH1 0x20 DUP2 ADD SWAP4 POP CALLDATALOAD SWAP2 POP POP PUSH1 0x1 PUSH1 0x20 SHL DUP2 GT ISZERO PUSH2 0xF00 JUMPI PUSH1 0x0 DUP1 REVERT JUMPDEST DUP3 ADD DUP4 PUSH1 0x20 DUP3 ADD GT ISZERO PUSH2 0xF12 JUMPI PUSH1 0x0 DUP1 REVERT JUMPDEST DUP1 CALLDATALOAD SWAP1 PUSH1 0x20 ADD SWAP2 DUP5 PUSH1 0x1 DUP4 MUL DUP5 ADD GT PUSH1 0x1 PUSH1 0x20 SHL DUP4 GT OR ISZERO PUSH2 0xF33 JUMPI PUSH1 0x0 DUP1 REVERT JUMPDEST SWAP2 SWAP1 DUP1 DUP1 PUSH1 0x1F ADD PUSH1 0x20 DUP1 SWAP2 DIV MUL PUSH1 0x20 ADD PUSH1 0x40 MLOAD SWAP1 DUP2 ADD PUSH1 0x40 MSTORE DUP1 SWAP4 SWAP3 SWAP2 SWAP1 DUP2 DUP2 MSTORE PUSH1 0x20 ADD DUP4 DUP4 DUP1 DUP3 DUP5 CALLDATACOPY PUSH1 0x0 SWAP3 ADD SWAP2 SWAP1 SWAP2 MSTORE POP SWAP3 SWAP6 POP POP POP POP CALLDATALOAD ISZERO ISZERO SWAP1 POP PUSH2 0x25D0 JUMP JUMPDEST PUSH2 0x966 PUSH1 0x4 DUP1 CALLDATASIZE SUB PUSH1 0x40 DUP2 LT ISZERO PUSH2 0xF8C JUMPI PUSH1 0x0 DUP1 REVERT JUMPDEST POP DUP1 CALLDATALOAD PUSH1 0x1 PUSH1 0x1 PUSH1 0xA0 SHL SUB AND SWAP1 PUSH1 0x20 ADD CALLDATALOAD PUSH4 0xFFFFFFFF AND PUSH2 0x290B JUMP JUMPDEST PUSH2 0xFC5 PUSH1 0x4 DUP1 CALLDATASIZE SUB PUSH1 0x20 DUP2 LT ISZERO PUSH2 0xFBE JUMPI PUSH1 0x0 DUP1 REVERT JUMPDEST POP CALLDATALOAD PUSH2 0x2978 JUMP JUMPDEST PUSH1 0x40 MLOAD DUP1 DUP6 PUSH1 0x1 PUSH1 0x1 PUSH1 0xA0 SHL SUB AND PUSH1 0x1 PUSH1 0x1 PUSH1 0xA0 SHL SUB AND DUP2 MSTORE PUSH1 0x20 ADD DUP5 PUSH1 0x1 PUSH1 0x1 PUSH1 0xA0 SHL SUB AND PUSH1 0x1 PUSH1 0x1 PUSH1 0xA0 SHL SUB AND DUP2 MSTORE PUSH1 0x20 ADD DUP1 PUSH1 0x20 ADD DUP4 ISZERO ISZERO ISZERO ISZERO DUP2 MSTORE PUSH1 0x20 ADD DUP3 DUP2 SUB DUP3 MSTORE DUP5 DUP2 DUP2 MLOAD DUP2 MSTORE PUSH1 0x20 ADD SWAP2 POP DUP1 MLOAD SWAP1 PUSH1 0x20 ADD SWAP1 DUP1 DUP4 DUP4 PUSH1 0x0 JUMPDEST DUP4 DUP2 LT ISZERO PUSH2 0x103C JUMPI DUP2 DUP2 ADD MLOAD DUP4 DUP3 ADD MSTORE PUSH1 0x20 ADD PUSH2 0x1024 JUMP JUMPDEST POP POP POP POP SWAP1 POP SWAP1 DUP2 ADD SWAP1 PUSH1 0x1F AND DUP1 ISZERO PUSH2 0x1069 JUMPI DUP1 DUP3 SUB DUP1 MLOAD PUSH1 0x1 DUP4 PUSH1 0x20 SUB PUSH2 0x100 EXP SUB NOT AND DUP2 MSTORE PUSH1 0x20 ADD SWAP2 POP JUMPDEST POP SWAP6 POP POP POP POP POP POP PUSH1 0x40 MLOAD DUP1 SWAP2 SUB SWAP1 RETURN JUMPDEST PUSH2 0x966 PUSH1 0x4 DUP1 CALLDATASIZE SUB PUSH1 0x60 DUP2 LT ISZERO PUSH2 0x1090 JUMPI PUSH1 0x0 DUP1 REVERT JUMPDEST DUP2 ADD SWAP1 PUSH1 0x20 DUP2 ADD DUP2 CALLDATALOAD PUSH1 0x1 PUSH1 0x20 SHL DUP2 GT ISZERO PUSH2 0x10AA JUMPI PUSH1 0x0 DUP1 REVERT JUMPDEST DUP3 ADD DUP4 PUSH1 0x20 DUP3 ADD GT ISZERO PUSH2 0x10BC JUMPI PUSH1 0x0 DUP1 REVERT JUMPDEST DUP1 CALLDATALOAD SWAP1 PUSH1 0x20 ADD SWAP2 DUP5 PUSH1 0x1 DUP4 MUL DUP5 ADD GT PUSH1 0x1 PUSH1 0x20 SHL DUP4 GT OR ISZERO PUSH2 0x10DD JUMPI PUSH1 0x0 DUP1 REVERT JUMPDEST SWAP2 SWAP4 SWAP1 SWAP3 SWAP1 SWAP2 PUSH1 0x20 DUP2 ADD SWAP1 CALLDATALOAD PUSH1 0x1 PUSH1 0x20 SHL DUP2 GT ISZERO PUSH2 0x10FA JUMPI PUSH1 0x0 DUP1 REVERT JUMPDEST DUP3 ADD DUP4 PUSH1 0x20 DUP3 ADD GT ISZERO PUSH2 0x110C JUMPI PUSH1 0x0 DUP1 REVERT JUMPDEST DUP1 CALLDATALOAD SWAP1 PUSH1 0x20 ADD SWAP2 DUP5 PUSH1 0x1 DUP4 MUL DUP5 ADD GT PUSH1 0x1 PUSH1 0x20 SHL DUP4 GT OR ISZERO PUSH2 0x112D JUMPI PUSH1 0x0 DUP1 REVERT JUMPDEST SWAP2 SWAP4 POP SWAP2 POP CALLDATALOAD PUSH4 0xFFFFFFFF AND PUSH2 0x2A4C JUMP JUMPDEST PUSH2 0x784 PUSH1 0x4 DUP1 CALLDATASIZE SUB PUSH1 0x20 DUP2 LT ISZERO PUSH2 0x1154 JUMPI PUSH1 0x0 DUP1 REVERT JUMPDEST POP CALLDATALOAD PUSH4 0xFFFFFFFF AND PUSH2 0x2AD9 JUMP JUMPDEST PUSH2 0xFC5 PUSH1 0x4 DUP1 CALLDATASIZE SUB PUSH1 0x20 DUP2 LT ISZERO PUSH2 0x1177 JUMPI PUSH1 0x0 DUP1 REVERT JUMPDEST POP CALLDATALOAD PUSH2 0x2AEE JUMP JUMPDEST PUSH2 0xC69 PUSH1 0x4 DUP1 CALLDATASIZE SUB PUSH1 0x40 DUP2 LT ISZERO PUSH2 0x1194 JUMPI PUSH1 0x0 DUP1 REVERT JUMPDEST PUSH1 0x1 PUSH1 0x1 PUSH1 0xA0 SHL SUB DUP3 CALLDATALOAD AND SWAP2 SWAP1 DUP2 ADD SWAP1 PUSH1 0x40 DUP2 ADD PUSH1 0x20 DUP3 ADD CALLDATALOAD PUSH1 0x1 PUSH1 0x20 SHL DUP2 GT ISZERO PUSH2 0x11BE JUMPI PUSH1 0x0 DUP1 REVERT JUMPDEST DUP3 ADD DUP4 PUSH1 0x20 DUP3 ADD GT ISZERO PUSH2 0x11D0 JUMPI PUSH1 0x0 DUP1 REVERT JUMPDEST DUP1 CALLDATALOAD SWAP1 PUSH1 0x20 ADD SWAP2 DUP5 PUSH1 0x1 DUP4 MUL DUP5 ADD GT PUSH1 0x1 PUSH1 0x20 SHL DUP4 GT OR ISZERO PUSH2 0x11F1 JUMPI PUSH1 0x0 DUP1 REVERT JUMPDEST SWAP2 SWAP1 DUP1 DUP1 PUSH1 0x1F ADD PUSH1 0x20 DUP1 SWAP2 DIV MUL PUSH1 0x20 ADD PUSH1 0x40 MLOAD SWAP1 DUP2 ADD PUSH1 0x40 MSTORE DUP1 SWAP4 SWAP3 SWAP2 SWAP1 DUP2 DUP2 MSTORE PUSH1 0x20 ADD DUP4 DUP4 DUP1 DUP3 DUP5 CALLDATACOPY PUSH1 0x0 SWAP3 ADD SWAP2 SWAP1 SWAP2 MSTORE POP SWAP3 SWAP6 POP PUSH2 0x2AFB SWAP5 POP POP POP POP POP JUMP JUMPDEST PUSH2 0x784 PUSH1 0x4 DUP1 CALLDATASIZE SUB PUSH1 0x20 DUP2 LT ISZERO PUSH2 0x1248 JUMPI PUSH1 0x0 DUP1 REVERT JUMPDEST DUP2 ADD SWAP1 PUSH1 0x20 DUP2 ADD DUP2 CALLDATALOAD PUSH1 0x1 PUSH1 0x20 SHL DUP2 GT ISZERO PUSH2 0x1262 JUMPI PUSH1 0x0 DUP1 REVERT JUMPDEST DUP3 ADD DUP4 PUSH1 0x20 DUP3 ADD GT ISZERO PUSH2 0x1274 JUMPI PUSH1 0x0 DUP1 REVERT JUMPDEST DUP1 CALLDATALOAD SWAP1 PUSH1 0x20 ADD SWAP2 DUP5 PUSH1 0x1 DUP4 MUL DUP5 ADD GT PUSH1 0x1 PUSH1 0x20 SHL DUP4 GT OR ISZERO PUSH2 0x1295 JUMPI PUSH1 0x0 DUP1 REVERT JUMPDEST POP SWAP1 SWAP3 POP SWAP1 POP PUSH2 0x2B2C JUMP JUMPDEST PUSH2 0x784 PUSH1 0x4 DUP1 CALLDATASIZE SUB PUSH1 0x20 DUP2 LT ISZERO PUSH2 0x12B6 JUMPI PUSH1 0x0 DUP1 REVERT JUMPDEST POP CALLDATALOAD PUSH1 0x1 PUSH1 0x1 PUSH1 0xA0 SHL SUB AND PUSH2 0x2C9D JUMP JUMPDEST PUSH2 0x784 PUSH2 0x2CB8 JUMP JUMPDEST PUSH2 0x784 PUSH1 0x4 DUP1 CALLDATASIZE SUB PUSH1 0x20 DUP2 LT ISZERO PUSH2 0x12E4 JUMPI PUSH1 0x0 DUP1 REVERT JUMPDEST POP CALLDATALOAD PUSH1 0x1 PUSH1 0x1 PUSH1 0xA0 SHL SUB AND PUSH2 0x2CBE JUMP JUMPDEST PUSH2 0x375 PUSH1 0x4 DUP1 CALLDATASIZE SUB PUSH1 0x40 DUP2 LT ISZERO PUSH2 0x130A JUMPI PUSH1 0x0 DUP1 REVERT JUMPDEST POP PUSH4 0xFFFFFFFF DUP2 CALLDATALOAD DUP2 AND SWAP2 PUSH1 0x20 ADD CALLDATALOAD AND PUSH2 0x2CD6 JUMP JUMPDEST PUSH2 0x966 PUSH1 0x4 DUP1 CALLDATASIZE SUB PUSH1 0x40 DUP2 LT ISZERO PUSH2 0x1335 JUMPI PUSH1 0x0 DUP1 REVERT JUMPDEST POP DUP1 CALLDATALOAD PUSH1 0x1 PUSH1 0x1 PUSH1 0xA0 SHL SUB AND SWAP1 PUSH1 0x20 ADD CALLDATALOAD PUSH4 0xFFFFFFFF AND PUSH2 0x2D2B JUMP JUMPDEST PUSH2 0xC69 PUSH2 0x2D7B JUMP JUMPDEST PUSH2 0x966 PUSH1 0x4 DUP1 CALLDATASIZE SUB PUSH1 0x80 DUP2 LT ISZERO PUSH2 0x136F JUMPI PUSH1 0x0 DUP1 REVERT JUMPDEST PUSH1 0x1 PUSH1 0x1 PUSH1 0xA0 SHL SUB DUP3 CALLDATALOAD AND SWAP2 SWAP1 DUP2 ADD SWAP1 PUSH1 0x40 DUP2 ADD PUSH1 0x20 DUP3 ADD CALLDATALOAD PUSH1 0x1 PUSH1 0x20 SHL DUP2 GT ISZERO PUSH2 0x1399 JUMPI PUSH1 0x0 DUP1 REVERT JUMPDEST DUP3 ADD DUP4 PUSH1 0x20 DUP3 ADD GT ISZERO PUSH2 0x13AB JUMPI PUSH1 0x0 DUP1 REVERT JUMPDEST DUP1 CALLDATALOAD SWAP1 PUSH1 0x20 ADD SWAP2 DUP5 PUSH1 0x1 DUP4 MUL DUP5 ADD GT PUSH1 0x1 PUSH1 0x20 SHL DUP4 GT OR ISZERO PUSH2 0x13CC JUMPI PUSH1 0x0 DUP1 REVERT JUMPDEST SWAP2 SWAP1 DUP1 DUP1 PUSH1 0x1F ADD PUSH1 0x20 DUP1 SWAP2 DIV MUL PUSH1 0x20 ADD PUSH1 0x40 MLOAD SWAP1 DUP2 ADD PUSH1 0x40 MSTORE DUP1 SWAP4 SWAP3 SWAP2 SWAP1 DUP2 DUP2 MSTORE PUSH1 0x20 ADD DUP4 DUP4 DUP1 DUP3 DUP5 CALLDATACOPY PUSH1 0x0 SWAP3 ADD SWAP2 SWAP1 SWAP2 MSTORE POP SWAP3 SWAP6 SWAP5 SWAP4 PUSH1 0x20 DUP2 ADD SWAP4 POP CALLDATALOAD SWAP2 POP POP PUSH1 0x1 PUSH1 0x20 SHL DUP2 GT ISZERO PUSH2 0x141E JUMPI PUSH1 0x0 DUP1 REVERT JUMPDEST DUP3 ADD DUP4 PUSH1 0x20 DUP3 ADD GT ISZERO PUSH2 0x1430 JUMPI PUSH1 0x0 DUP1 REVERT JUMPDEST DUP1 CALLDATALOAD SWAP1 PUSH1 0x20 ADD SWAP2 DUP5 PUSH1 0x1 DUP4 MUL DUP5 ADD GT PUSH1 0x1 PUSH1 0x20 SHL DUP4 GT OR ISZERO PUSH2 0x1451 JUMPI PUSH1 0x0 DUP1 REVERT JUMPDEST SWAP2 SWAP1 DUP1 DUP1 PUSH1 0x1F ADD PUSH1 0x20 DUP1 SWAP2 DIV MUL PUSH1 0x20 ADD PUSH1 0x40 MLOAD SWAP1 DUP2 ADD PUSH1 0x40 MSTORE DUP1 SWAP4 SWAP3 SWAP2 SWAP1 DUP2 DUP2 MSTORE PUSH1 0x20 ADD DUP4 DUP4 DUP1 DUP3 DUP5 CALLDATACOPY PUSH1 0x0 SWAP3 ADD SWAP2 SWAP1 SWAP2 MSTORE POP SWAP3 SWAP6 POP POP POP SWAP1 CALLDATALOAD PUSH4 0xFFFFFFFF AND SWAP2 POP PUSH2 0x2D84 SWAP1 POP JUMP JUMPDEST PUSH2 0xC69 PUSH1 0x4 DUP1 CALLDATASIZE SUB PUSH1 0x20 DUP2 LT ISZERO PUSH2 0x14B0 JUMPI PUSH1 0x0 DUP1 REVERT JUMPDEST POP CALLDATALOAD PUSH1 0x1 PUSH1 0x1 PUSH1 0xA0 SHL SUB AND PUSH2 0x2EC6 JUMP JUMPDEST PUSH2 0x966 PUSH1 0x4 DUP1 CALLDATASIZE SUB PUSH1 0x60 DUP2 LT ISZERO PUSH2 0x14D6 JUMPI PUSH1 0x0 DUP1 REVERT JUMPDEST DUP2 ADD SWAP1 PUSH1 0x20 DUP2 ADD DUP2 CALLDATALOAD PUSH1 0x1 PUSH1 0x20 SHL DUP2 GT ISZERO PUSH2 0x14F0 JUMPI PUSH1 0x0 DUP1 REVERT JUMPDEST DUP3 ADD DUP4 PUSH1 0x20 DUP3 ADD GT ISZERO PUSH2 0x1502 JUMPI PUSH1 0x0 DUP1 REVERT JUMPDEST DUP1 CALLDATALOAD SWAP1 PUSH1 0x20 ADD SWAP2 DUP5 PUSH1 0x1 DUP4 MUL DUP5 ADD GT PUSH1 0x1 PUSH1 0x20 SHL DUP4 GT OR ISZERO PUSH2 0x1523 JUMPI PUSH1 0x0 DUP1 REVERT JUMPDEST SWAP2 SWAP1 DUP1 DUP1 PUSH1 0x1F ADD PUSH1 0x20 DUP1 SWAP2 DIV MUL PUSH1 0x20 ADD PUSH1 0x40 MLOAD SWAP1 DUP2 ADD PUSH1 0x40 MSTORE DUP1 SWAP4 SWAP3 SWAP2 SWAP1 DUP2 DUP2 MSTORE PUSH1 0x20 ADD DUP4 DUP4 DUP1 DUP3 DUP5 CALLDATACOPY PUSH1 0x0 SWAP3 ADD SWAP2 SWAP1 SWAP2 MSTORE POP SWAP3 SWAP6 SWAP5 SWAP4 PUSH1 0x20 DUP2 ADD SWAP4 POP CALLDATALOAD SWAP2 POP POP PUSH1 0x1 PUSH1 0x20 SHL DUP2 GT ISZERO PUSH2 0x1575 JUMPI PUSH1 0x0 DUP1 REVERT JUMPDEST DUP3 ADD DUP4 PUSH1 0x20 DUP3 ADD GT ISZERO PUSH2 0x1587 JUMPI PUSH1 0x0 DUP1 REVERT JUMPDEST DUP1 CALLDATALOAD SWAP1 PUSH1 0x20 ADD SWAP2 DUP5 PUSH1 0x1 DUP4 MUL DUP5 ADD GT PUSH1 0x1 PUSH1 0x20 SHL DUP4 GT OR ISZERO PUSH2 0x15A8 JUMPI PUSH1 0x0 DUP1 REVERT JUMPDEST SWAP2 SWAP1 DUP1 DUP1 PUSH1 0x1F ADD PUSH1 0x20 DUP1 SWAP2 DIV MUL PUSH1 0x20 ADD PUSH1 0x40 MLOAD SWAP1 DUP2 ADD PUSH1 0x40 MSTORE DUP1 SWAP4 SWAP3 SWAP2 SWAP1 DUP2 DUP2 MSTORE PUSH1 0x20 ADD DUP4 DUP4 DUP1 DUP3 DUP5 CALLDATACOPY PUSH1 0x0 SWAP3 ADD SWAP2 SWAP1 SWAP2 MSTORE POP SWAP3 SWAP6 POP POP POP SWAP1 CALLDATALOAD PUSH4 0xFFFFFFFF AND SWAP2 POP PUSH2 0x2EDB SWAP1 POP JUMP JUMPDEST PUSH1 0x60 PUSH1 0x2 PUSH1 0x0 DUP5 PUSH1 0x1 PUSH1 0x1 PUSH1 0xA0 SHL SUB AND PUSH1 0x1 PUSH1 0x1 PUSH1 0xA0 SHL SUB AND DUP2 MSTORE PUSH1 0x20 ADD SWAP1 DUP2 MSTORE PUSH1 0x20 ADD PUSH1 0x0 KECCAK256 DUP3 PUSH1 0x40 MLOAD DUP1 DUP3 DUP1 MLOAD SWAP1 PUSH1 0x20 ADD SWAP1 DUP1 DUP4 DUP4 JUMPDEST PUSH1 0x20 DUP4 LT PUSH2 0x1648 JUMPI DUP1 MLOAD DUP3 MSTORE PUSH1 0x1F NOT SWAP1 SWAP3 ADD SWAP2 PUSH1 0x20 SWAP2 DUP3 ADD SWAP2 ADD PUSH2 0x1629 JUMP JUMPDEST MLOAD DUP2 MLOAD PUSH1 0x0 NOT PUSH1 0x20 SWAP5 DUP6 SUB PUSH2 0x100 SWAP1 DUP2 EXP DUP3 ADD SWAP3 DUP4 AND SWAP3 NOT SWAP4 SWAP1 SWAP4 AND SWAP2 SWAP1 SWAP2 OR SWAP1 SWAP3 MSTORE SWAP5 SWAP1 SWAP3 ADD SWAP7 DUP8 MSTORE PUSH1 0x40 DUP1 MLOAD SWAP8 DUP9 SWAP1 SUB DUP3 ADD DUP9 KECCAK256 PUSH1 0x2 SWAP1 DUP2 ADD DUP1 SLOAD PUSH1 0x1F PUSH1 0x1 DUP3 AND ISZERO SWAP1 SWAP9 MUL SWAP1 SWAP6 ADD SWAP1 SWAP5 AND DIV SWAP5 DUP6 ADD DUP3 SWAP1 DIV DUP3 MUL DUP9 ADD DUP3 ADD SWAP1 MSTORE DUP4 DUP8 MSTORE SWAP1 SWAP5 POP SWAP2 SWAP3 POP POP DUP4 ADD DUP3 DUP3 DUP1 ISZERO PUSH2 0x16FF JUMPI DUP1 PUSH1 0x1F LT PUSH2 0x16D4 JUMPI PUSH2 0x100 DUP1 DUP4 SLOAD DIV MUL DUP4 MSTORE SWAP2 PUSH1 0x20 ADD SWAP2 PUSH2 0x16FF JUMP JUMPDEST DUP3 ADD SWAP2 SWAP1 PUSH1 0x0 MSTORE PUSH1 0x20 PUSH1 0x0 KECCAK256 SWAP1 JUMPDEST DUP2 SLOAD DUP2 MSTORE SWAP1 PUSH1 0x1 ADD SWAP1 PUSH1 0x20 ADD DUP1 DUP4 GT PUSH2 0x16E2 JUMPI DUP3 SWAP1 SUB PUSH1 0x1F AND DUP3 ADD SWAP2 JUMPDEST POP POP POP POP POP SWAP1 POP SWAP3 SWAP2 POP POP JUMP JUMPDEST PUSH1 0x60 DUP1 PUSH1 0xB DUP5 PUSH4 0xFFFFFFFF AND DUP2 SLOAD DUP2 LT PUSH2 0x1722 JUMPI INVALID JUMPDEST SWAP1 PUSH1 0x0 MSTORE PUSH1 0x20 PUSH1 0x0 KECCAK256 SWAP1 PUSH1 0x6 MUL ADD PUSH1 0x3 ADD DUP4 PUSH4 0xFFFFFFFF AND DUP2 SLOAD DUP2 LT PUSH2 0x1744 JUMPI INVALID JUMPDEST SWAP1 PUSH1 0x0 MSTORE PUSH1 0x20 PUSH1 0x0 KECCAK256 ADD PUSH1 0xB DUP6 PUSH4 0xFFFFFFFF AND DUP2 SLOAD DUP2 LT PUSH2 0x1761 JUMPI INVALID JUMPDEST SWAP1 PUSH1 0x0 MSTORE PUSH1 0x20 PUSH1 0x0 KECCAK256 SWAP1 PUSH1 0x6 MUL ADD PUSH1 0x4 ADD DUP5 PUSH4 0xFFFFFFFF AND DUP2 SLOAD DUP2 LT PUSH2 0x1783 JUMPI INVALID JUMPDEST PUSH1 0x0 SWAP2 DUP3 MSTORE PUSH1 0x20 SWAP2 DUP3 SWAP1 KECCAK256 DUP4 SLOAD PUSH1 0x40 DUP1 MLOAD PUSH1 0x2 PUSH1 0x1 DUP5 AND ISZERO PUSH2 0x100 MUL PUSH1 0x0 NOT ADD SWAP1 SWAP4 AND SWAP3 SWAP1 SWAP3 DIV PUSH1 0x1F DUP2 ADD DUP7 SWAP1 DIV DUP7 MUL DUP4 ADD DUP7 ADD SWAP1 SWAP2 MSTORE DUP1 DUP3 MSTORE SWAP3 SWAP1 SWAP2 ADD SWAP3 SWAP1 SWAP2 DUP5 SWAP2 DUP4 ADD DUP3 DUP3 DUP1 ISZERO PUSH2 0x1817 JUMPI DUP1 PUSH1 0x1F LT PUSH2 0x17EC JUMPI PUSH2 0x100 DUP1 DUP4 SLOAD DIV MUL DUP4 MSTORE SWAP2 PUSH1 0x20 ADD SWAP2 PUSH2 0x1817 JUMP JUMPDEST DUP3 ADD SWAP2 SWAP1 PUSH1 0x0 MSTORE PUSH1 0x20 PUSH1 0x0 KECCAK256 SWAP1 JUMPDEST DUP2 SLOAD DUP2 MSTORE SWAP1 PUSH1 0x1 ADD SWAP1 PUSH1 0x20 ADD DUP1 DUP4 GT PUSH2 0x17FA JUMPI DUP3 SWAP1 SUB PUSH1 0x1F AND DUP3 ADD SWAP2 JUMPDEST POP POP DUP5 SLOAD PUSH1 0x40 DUP1 MLOAD PUSH1 0x20 PUSH1 0x2 PUSH1 0x1 DUP6 AND ISZERO PUSH2 0x100 MUL PUSH1 0x0 NOT ADD SWAP1 SWAP5 AND SWAP4 SWAP1 SWAP4 DIV PUSH1 0x1F DUP2 ADD DUP5 SWAP1 DIV DUP5 MUL DUP3 ADD DUP5 ADD SWAP1 SWAP3 MSTORE DUP2 DUP2 MSTORE SWAP6 SWAP8 POP DUP7 SWAP5 POP SWAP3 POP DUP5 ADD SWAP1 POP DUP3 DUP3 DUP1 ISZERO PUSH2 0x18A5 JUMPI DUP1 PUSH1 0x1F LT PUSH2 0x187A JUMPI PUSH2 0x100 DUP1 DUP4 SLOAD DIV MUL DUP4 MSTORE SWAP2 PUSH1 0x20 ADD SWAP2 PUSH2 0x18A5 JUMP JUMPDEST DUP3 ADD SWAP2 SWAP1 PUSH1 0x0 MSTORE PUSH1 0x20 PUSH1 0x0 KECCAK256 SWAP1 JUMPDEST DUP2 SLOAD DUP2 MSTORE SWAP1 PUSH1 0x1 ADD SWAP1 PUSH1 0x20 ADD DUP1 DUP4 GT PUSH2 0x1888 JUMPI DUP3 SWAP1 SUB PUSH1 0x1F AND DUP3 ADD SWAP2 JUMPDEST POP POP POP POP POP SWAP1 POP SWAP2 POP SWAP2 POP SWAP3 POP SWAP3 SWAP1 POP JUMP JUMPDEST PUSH1 0x2 PUSH1 0x20 DUP2 DUP2 MSTORE PUSH1 0x0 SWAP4 DUP5 MSTORE PUSH1 0x40 SWAP4 DUP5 SWAP1 KECCAK256 DUP4 MLOAD DUP1 DUP6 ADD DUP4 ADD DUP1 MLOAD SWAP3 DUP2 MSTORE SWAP1 DUP4 ADD SWAP5 DUP4 ADD SWAP5 SWAP1 SWAP5 KECCAK256 SWAP4 MSTORE DUP3 DUP3 ADD DUP1 SLOAD DUP6 MLOAD PUSH1 0x1 DUP3 AND ISZERO PUSH2 0x100 MUL PUSH1 0x0 NOT ADD SWAP1 SWAP2 AND SWAP4 SWAP1 SWAP4 DIV PUSH1 0x1F DUP2 ADD DUP4 SWAP1 DIV DUP4 MUL DUP5 ADD DUP4 ADD SWAP1 SWAP6 MSTORE DUP5 DUP4 MSTORE SWAP3 SWAP4 SWAP2 SWAP3 SWAP2 SWAP1 DUP4 ADD DUP3 DUP3 DUP1 ISZERO PUSH2 0x1966 JUMPI DUP1 PUSH1 0x1F LT PUSH2 0x193B JUMPI PUSH2 0x100 DUP1 DUP4 SLOAD DIV MUL DUP4 MSTORE SWAP2 PUSH1 0x20 ADD SWAP2 PUSH2 0x1966 JUMP JUMPDEST DUP3 ADD SWAP2 SWAP1 PUSH1 0x0 MSTORE PUSH1 0x20 PUSH1 0x0 KECCAK256 SWAP1 JUMPDEST DUP2 SLOAD DUP2 MSTORE SWAP1 PUSH1 0x1 ADD SWAP1 PUSH1 0x20 ADD DUP1 DUP4 GT PUSH2 0x1949 JUMPI DUP3 SWAP1 SUB PUSH1 0x1F AND DUP3 ADD SWAP2 JUMPDEST POP POP POP POP POP SWAP1 POP DUP2 JUMP JUMPDEST PUSH1 0x3 PUSH1 0x20 SWAP1 DUP2 MSTORE PUSH1 0x0 SWAP3 DUP4 MSTORE PUSH1 0x40 SWAP3 DUP4 SWAP1 KECCAK256 DUP3 MLOAD DUP1 DUP5 ADD DUP4 ADD DUP1 MLOAD SWAP3 DUP2 MSTORE SWAP1 DUP4 ADD SWAP4 DUP4 ADD SWAP4 SWAP1 SWAP4 KECCAK256 SWAP3 MSTORE DUP2 SLOAD DUP4 MLOAD PUSH1 0x1F PUSH1 0x2 PUSH1 0x0 NOT PUSH2 0x100 PUSH1 0x1 DUP7 AND ISZERO MUL ADD SWAP1 SWAP4 AND SWAP3 SWAP1 SWAP3 DIV SWAP2 DUP3 ADD DUP4 SWAP1 DIV DUP4 MUL DUP2 ADD DUP4 ADD SWAP1 SWAP5 MSTORE DUP1 DUP5 MSTORE SWAP1 DUP4 ADD DUP3 DUP3 DUP1 ISZERO PUSH2 0x1A1A JUMPI DUP1 PUSH1 0x1F LT PUSH2 0x19EF JUMPI PUSH2 0x100 DUP1 DUP4 SLOAD DIV MUL DUP4 MSTORE SWAP2 PUSH1 0x20 ADD SWAP2 PUSH2 0x1A1A JUMP JUMPDEST DUP3 ADD SWAP2 SWAP1 PUSH1 0x0 MSTORE PUSH1 0x20 PUSH1 0x0 KECCAK256 SWAP1 JUMPDEST DUP2 SLOAD DUP2 MSTORE SWAP1 PUSH1 0x1 ADD SWAP1 PUSH1 0x20 ADD DUP1 DUP4 GT PUSH2 0x19FD JUMPI DUP3 SWAP1 SUB PUSH1 0x1F AND DUP3 ADD SWAP2 JUMPDEST POP POP POP POP POP DUP2 JUMP JUMPDEST PUSH1 0x0 DUP1 DUP8 SWAP1 POP DUP1 PUSH1 0x1 PUSH1 0x1 PUSH1 0xA0 SHL SUB AND PUSH4 0x8C162152 DUP9 DUP9 DUP9 DUP9 DUP9 PUSH1 0x40 MLOAD DUP7 PUSH4 0xFFFFFFFF AND PUSH1 0xE0 SHL DUP2 MSTORE PUSH1 0x4 ADD DUP1 DUP7 PUSH1 0x1 PUSH1 0x1 PUSH1 0xA0 SHL SUB AND PUSH1 0x1 PUSH1 0x1 PUSH1 0xA0 SHL SUB AND DUP2 MSTORE PUSH1 0x20 ADD DUP1 PUSH1 0x20 ADD DUP1 PUSH1 0x20 ADD DUP1 PUSH1 0x20 ADD DUP6 ISZERO ISZERO ISZERO ISZERO DUP2 MSTORE PUSH1 0x20 ADD DUP5 DUP2 SUB DUP5 MSTORE DUP9 DUP2 DUP2 MLOAD DUP2 MSTORE PUSH1 0x20 ADD SWAP2 POP DUP1 MLOAD SWAP1 PUSH1 0x20 ADD SWAP1 DUP1 DUP4 DUP4 PUSH1 0x0 JUMPDEST DUP4 DUP2 LT ISZERO PUSH2 0x1AB2 JUMPI DUP2 DUP2 ADD MLOAD DUP4 DUP3 ADD MSTORE PUSH1 0x20 ADD PUSH2 0x1A9A JUMP JUMPDEST POP POP POP POP SWAP1 POP SWAP1 DUP2 ADD SWAP1 PUSH1 0x1F AND DUP1 ISZERO PUSH2 0x1ADF JUMPI DUP1 DUP3 SUB DUP1 MLOAD PUSH1 0x1 DUP4 PUSH1 0x20 SUB PUSH2 0x100 EXP SUB NOT AND DUP2 MSTORE PUSH1 0x20 ADD SWAP2 POP JUMPDEST POP DUP5 DUP2 SUB DUP4 MSTORE DUP8 MLOAD DUP2 MSTORE DUP8 MLOAD PUSH1 0x20 SWAP2 DUP3 ADD SWAP2 DUP10 ADD SWAP1 DUP1 DUP4 DUP4 PUSH1 0x0 JUMPDEST DUP4 DUP2 LT ISZERO PUSH2 0x1B12 JUMPI DUP2 DUP2 ADD MLOAD DUP4 DUP3 ADD MSTORE PUSH1 0x20 ADD PUSH2 0x1AFA JUMP JUMPDEST POP POP POP POP SWAP1 POP SWAP1 DUP2 ADD SWAP1 PUSH1 0x1F AND DUP1 ISZERO PUSH2 0x1B3F JUMPI DUP1 DUP3 SUB DUP1 MLOAD PUSH1 0x1 DUP4 PUSH1 0x20 SUB PUSH2 0x100 EXP SUB NOT AND DUP2 MSTORE PUSH1 0x20 ADD SWAP2 POP JUMPDEST POP DUP5 DUP2 SUB DUP3 MSTORE DUP7 MLOAD DUP2 MSTORE DUP7 MLOAD PUSH1 0x20 SWAP2 DUP3 ADD SWAP2 DUP9 ADD SWAP1 DUP1 DUP4 DUP4 PUSH1 0x0 JUMPDEST DUP4 DUP2 LT ISZERO PUSH2 0x1B72 JUMPI DUP2 DUP2 ADD MLOAD DUP4 DUP3 ADD MSTORE PUSH1 0x20 ADD PUSH2 0x1B5A JUMP JUMPDEST POP POP POP POP SWAP1 POP SWAP1 DUP2 ADD SWAP1 PUSH1 0x1F AND DUP1 ISZERO PUSH2 0x1B9F JUMPI DUP1 DUP3 SUB DUP1 MLOAD PUSH1 0x1 DUP4 PUSH1 0x20 SUB PUSH2 0x100 EXP SUB NOT AND DUP2 MSTORE PUSH1 0x20 ADD SWAP2 POP JUMPDEST POP SWAP9 POP POP POP POP POP POP POP POP POP PUSH1 0x0 PUSH1 0x40 MLOAD DUP1 DUP4 SUB DUP2 PUSH1 0x0 DUP8 DUP1 EXTCODESIZE ISZERO DUP1 ISZERO PUSH2 0x1BC4 JUMPI PUSH1 0x0 DUP1 REVERT JUMPDEST POP GAS CALL ISZERO DUP1 ISZERO PUSH2 0x1BD8 JUMPI RETURNDATASIZE PUSH1 0x0 DUP1 RETURNDATACOPY RETURNDATASIZE PUSH1 0x0 REVERT JUMPDEST POP POP POP POP POP SWAP7 SWAP6 POP POP POP POP POP POP JUMP JUMPDEST PUSH1 0x60 PUSH1 0x2 PUSH1 0x0 DUP6 PUSH1 0x1 PUSH1 0x1 PUSH1 0xA0 SHL SUB AND PUSH1 0x1 PUSH1 0x1 PUSH1 0xA0 SHL SUB AND DUP2 MSTORE PUSH1 0x20 ADD SWAP1 DUP2 MSTORE PUSH1 0x20 ADD PUSH1 0x0 KECCAK256 DUP4 PUSH1 0x40 MLOAD DUP1 DUP3 DUP1 MLOAD SWAP1 PUSH1 0x20 ADD SWAP1 DUP1 DUP4 DUP4 JUMPDEST PUSH1 0x20 DUP4 LT PUSH2 0x1C3E JUMPI DUP1 MLOAD DUP3 MSTORE PUSH1 0x1F NOT SWAP1 SWAP3 ADD SWAP2 PUSH1 0x20 SWAP2 DUP3 ADD SWAP2 ADD PUSH2 0x1C1F JUMP JUMPDEST MLOAD DUP2 MLOAD PUSH1 0x20 SWAP4 DUP5 SUB PUSH2 0x100 EXP PUSH1 0x0 NOT ADD DUP1 NOT SWAP1 SWAP3 AND SWAP2 AND OR SWAP1 MSTORE SWAP3 ADD SWAP5 DUP6 MSTORE POP PUSH1 0x40 MLOAD SWAP4 DUP5 SWAP1 SUB DUP2 ADD DUP5 KECCAK256 DUP7 MLOAD SWAP1 SWAP5 DUP8 SWAP5 POP SWAP3 POP DUP3 SWAP2 DUP5 ADD SWAP1 DUP1 DUP4 DUP4 JUMPDEST PUSH1 0x20 DUP4 LT PUSH2 0x1C9A JUMPI DUP1 MLOAD DUP3 MSTORE PUSH1 0x1F NOT SWAP1 SWAP3 ADD SWAP2 PUSH1 0x20 SWAP2 DUP3 ADD SWAP2 ADD PUSH2 0x1C7B JUMP JUMPDEST MLOAD DUP2 MLOAD PUSH1 0x0 NOT PUSH1 0x20 SWAP5 DUP6 SUB PUSH2 0x100 SWAP1 DUP2 EXP DUP3 ADD SWAP3 DUP4 AND SWAP3 NOT SWAP4 SWAP1 SWAP4 AND SWAP2 SWAP1 SWAP2 OR SWAP1 SWAP3 MSTORE SWAP5 SWAP1 SWAP3 ADD SWAP7 DUP8 MSTORE PUSH1 0x40 DUP1 MLOAD SWAP8 DUP9 SWAP1 SUB DUP3 ADD DUP9 KECCAK256 DUP1 SLOAD PUSH1 0x1F PUSH1 0x2 PUSH1 0x1 DUP4 AND ISZERO SWAP1 SWAP9 MUL SWAP1 SWAP6 ADD AND SWAP6 SWAP1 SWAP6 DIV SWAP3 DUP4 ADD DUP3 SWAP1 DIV DUP3 MUL DUP9 ADD DUP3 ADD SWAP1 MSTORE DUP2 DUP8 MSTORE SWAP3 SWAP5 POP SWAP3 POP POP DUP4 ADD DUP3 DUP3 DUP1 ISZERO PUSH2 0x1D4E JUMPI DUP1 PUSH1 0x1F LT PUSH2 0x1D23 JUMPI PUSH2 0x100 DUP1 DUP4 SLOAD DIV MUL DUP4 MSTORE SWAP2 PUSH1 0x20 ADD SWAP2 PUSH2 0x1D4E JUMP JUMPDEST DUP3 ADD SWAP2 SWAP1 PUSH1 0x0 MSTORE PUSH1 0x20 PUSH1 0x0 KECCAK256 SWAP1 JUMPDEST DUP2 SLOAD DUP2 MSTORE SWAP1 PUSH1 0x1 ADD SWAP1 PUSH1 0x20 ADD DUP1 DUP4 GT PUSH2 0x1D31 JUMPI DUP3 SWAP1 SUB PUSH1 0x1F AND DUP3 ADD SWAP2 JUMPDEST POP POP POP POP POP SWAP1 POP SWAP4 SWAP3 POP POP POP JUMP JUMPDEST PUSH1 0x5 DUP2 DUP2 SLOAD DUP2 LT PUSH2 0x1D69 JUMPI INVALID JUMPDEST PUSH1 0x0 SWAP2 DUP3 MSTORE PUSH1 0x20 SWAP1 SWAP2 KECCAK256 ADD SLOAD PUSH1 0x1 PUSH1 0x1 PUSH1 0xA0 SHL SUB AND SWAP1 POP DUP2 JUMP JUMPDEST PUSH1 0x7 PUSH1 0x20 MSTORE DUP2 PUSH1 0x0 MSTORE PUSH1 0x40 PUSH1 0x0 KECCAK256 DUP2 DUP2 SLOAD DUP2 LT PUSH2 0x1D9C JUMPI INVALID JUMPDEST PUSH1 0x0 SWAP2 DUP3 MSTORE PUSH1 0x20 SWAP2 DUP3 SWAP1 KECCAK256 ADD DUP1 SLOAD PUSH1 0x40 DUP1 MLOAD PUSH1 0x1F PUSH1 0x2 PUSH1 0x0 NOT PUSH2 0x100 PUSH1 0x1 DUP8 AND ISZERO MUL ADD SWAP1 SWAP5 AND SWAP4 SWAP1 SWAP4 DIV SWAP3 DUP4 ADD DUP6 SWAP1 DIV DUP6 MUL DUP2 ADD DUP6 ADD SWAP1 SWAP2 MSTORE DUP2 DUP2 MSTORE SWAP5 POP SWAP1 SWAP3 POP SWAP1 DUP4 ADD DUP3 DUP3 DUP1 ISZERO PUSH2 0x1A1A JUMPI DUP1 PUSH1 0x1F LT PUSH2 0x19EF JUMPI PUSH2 0x100 DUP1 DUP4 SLOAD DIV MUL DUP4 MSTORE SWAP2 PUSH1 0x20 ADD SWAP2 PUSH2 0x1A1A JUMP JUMPDEST PUSH1 0x5 SLOAD JUMPDEST SWAP1 JUMP JUMPDEST PUSH4 0xFFFFFFFF DUP2 AND PUSH1 0x0 SWAP1 DUP2 MSTORE PUSH1 0xA PUSH1 0x20 MSTORE PUSH1 0x40 SWAP1 KECCAK256 SLOAD DUP2 SWAP1 PUSH1 0xFF AND DUP1 PUSH2 0x1E33 JUMPI POP PUSH1 0x0 SLOAD PUSH1 0xFF AND JUMPDEST ISZERO PUSH2 0x1E41 JUMPI PUSH2 0x1E41 DUP3 PUSH2 0x2F72 JUMP JUMPDEST POP POP JUMP JUMPDEST PUSH1 0x9 SLOAD SWAP1 JUMP JUMPDEST PUSH1 0x4 PUSH1 0x20 SWAP1 DUP2 MSTORE PUSH1 0x0 SWAP3 DUP4 MSTORE PUSH1 0x40 SWAP3 DUP4 SWAP1 KECCAK256 DUP3 MLOAD DUP1 DUP5 ADD DUP4 ADD DUP1 MLOAD SWAP3 DUP2 MSTORE SWAP1 DUP4 ADD SWAP4 DUP4 ADD SWAP4 SWAP1 SWAP4 KECCAK256 SWAP3 MSTORE DUP2 SLOAD DUP4 MLOAD PUSH1 0x1F PUSH1 0x2 PUSH1 0x0 NOT PUSH2 0x100 PUSH1 0x1 DUP7 AND ISZERO MUL ADD SWAP1 SWAP4 AND SWAP3 SWAP1 SWAP3 DIV SWAP2 DUP3 ADD DUP4 SWAP1 DIV DUP4 MUL DUP2 ADD DUP4 ADD SWAP1 SWAP5 MSTORE DUP1 DUP5 MSTORE SWAP1 DUP4 ADD DUP3 DUP3 DUP1 ISZERO PUSH2 0x1A1A JUMPI DUP1 PUSH1 0x1F LT PUSH2 0x19EF JUMPI PUSH2 0x100 DUP1 DUP4 SLOAD DIV MUL DUP4 MSTORE SWAP2 PUSH1 0x20 ADD SWAP2 PUSH2 0x1A1A JUMP JUMPDEST PUSH1 0x0 DUP4 SWAP1 POP DUP1 PUSH1 0x1 PUSH1 0x1 PUSH1 0xA0 SHL SUB AND PUSH4 0x847B5257 DUP5 DUP5 PUSH1 0x40 MLOAD DUP4 PUSH4 0xFFFFFFFF AND PUSH1 0xE0 SHL DUP2 MSTORE PUSH1 0x4 ADD DUP1 DUP1 PUSH1 0x20 ADD DUP1 PUSH1 0x20 ADD DUP4 DUP2 SUB DUP4 MSTORE DUP6 DUP2 DUP2 MLOAD DUP2 MSTORE PUSH1 0x20 ADD SWAP2 POP DUP1 MLOAD SWAP1 PUSH1 0x20 ADD SWAP1 DUP1 DUP4 DUP4 PUSH1 0x0 JUMPDEST DUP4 DUP2 LT ISZERO PUSH2 0x1F30 JUMPI DUP2 DUP2 ADD MLOAD DUP4 DUP3 ADD MSTORE PUSH1 0x20 ADD PUSH2 0x1F18 JUMP JUMPDEST POP POP POP POP SWAP1 POP SWAP1 DUP2 ADD SWAP1 PUSH1 0x1F AND DUP1 ISZERO PUSH2 0x1F5D JUMPI DUP1 DUP3 SUB DUP1 MLOAD PUSH1 0x1 DUP4 PUSH1 0x20 SUB PUSH2 0x100 EXP SUB NOT AND DUP2 MSTORE PUSH1 0x20 ADD SWAP2 POP JUMPDEST POP DUP4 DUP2 SUB DUP3 MSTORE DUP5 MLOAD DUP2 MSTORE DUP5 MLOAD PUSH1 0x20 SWAP2 DUP3 ADD SWAP2 DUP7 ADD SWAP1 DUP1 DUP4 DUP4 PUSH1 0x0 JUMPDEST DUP4 DUP2 LT ISZERO PUSH2 0x1F90 JUMPI DUP2 DUP2 ADD MLOAD DUP4 DUP3 ADD MSTORE PUSH1 0x20 ADD PUSH2 0x1F78 JUMP JUMPDEST POP POP POP POP SWAP1 POP SWAP1 DUP2 ADD SWAP1 PUSH1 0x1F AND DUP1 ISZERO PUSH2 0x1FBD JUMPI DUP1 DUP3 SUB DUP1 MLOAD PUSH1 0x1 DUP4 PUSH1 0x20 SUB PUSH2 0x100 EXP SUB NOT AND DUP2 MSTORE PUSH1 0x20 ADD SWAP2 POP JUMPDEST POP SWAP5 POP POP POP POP POP PUSH1 0x0 PUSH1 0x40 MLOAD DUP1 DUP4 SUB DUP2 PUSH1 0x0 DUP8 DUP1 EXTCODESIZE ISZERO DUP1 ISZERO PUSH2 0x1FDE JUMPI PUSH1 0x0 DUP1 REVERT JUMPDEST POP GAS CALL ISZERO DUP1 ISZERO PUSH2 0x1FF2 JUMPI RETURNDATASIZE PUSH1 0x0 DUP1 RETURNDATACOPY RETURNDATASIZE PUSH1 0x0 REVERT JUMPDEST POP POP POP POP POP POP POP POP JUMP JUMPDEST PUSH1 0x0 PUSH1 0x9 DUP3 PUSH4 0xFFFFFFFF AND DUP2 SLOAD DUP2 LT PUSH2 0x2011 JUMPI INVALID JUMPDEST PUSH1 0x0 SWAP2 DUP3 MSTORE PUSH1 0x20 SWAP1 SWAP2 KECCAK256 PUSH1 0x3 PUSH1 0x6 SWAP1 SWAP3 MUL ADD ADD SLOAD SWAP3 SWAP2 POP POP JUMP JUMPDEST PUSH1 0xB DUP2 PUSH4 0xFFFFFFFF AND DUP2 SLOAD DUP2 LT PUSH2 0x203E JUMPI INVALID JUMPDEST PUSH1 0x0 SWAP2 DUP3 MSTORE PUSH1 0x20 SWAP1 SWAP2 KECCAK256 PUSH1 0x5 PUSH1 0x6 SWAP1 SWAP3 MUL ADD ADD SLOAD PUSH1 0xFF AND ISZERO PUSH2 0x205F JUMPI PUSH1 0x0 DUP1 REVERT JUMPDEST PUSH1 0x0 PUSH1 0xB DUP3 PUSH4 0xFFFFFFFF AND DUP2 SLOAD DUP2 LT PUSH2 0x2074 JUMPI INVALID JUMPDEST PUSH1 0x0 SWAP2 DUP3 MSTORE PUSH1 0x20 DUP3 KECCAK256 PUSH1 0x1 PUSH1 0x6 SWAP1 SWAP3 MUL ADD ADD SLOAD PUSH1 0xB DUP1 SLOAD PUSH1 0x1 PUSH1 0x1 PUSH1 0xA0 SHL SUB SWAP1 SWAP3 AND SWAP4 POP DUP4 SWAP2 PUSH4 0xC09BC35B SWAP2 SWAP1 PUSH4 0xFFFFFFFF DUP8 AND SWAP1 DUP2 LT PUSH2 0x20B1 JUMPI INVALID JUMPDEST PUSH1 0x0 SWAP2 DUP3 MSTORE PUSH1 0x20 SWAP2 DUP3 SWAP1 KECCAK256 PUSH1 0x40 MLOAD PUSH1 0x1 PUSH1 0x1 PUSH1 0xE0 SHL SUB NOT PUSH1 0xE0 DUP7 SWAP1 SHL AND DUP2 MSTORE PUSH1 0x4 DUP2 ADD SWAP4 DUP5 MSTORE PUSH1 0x2 PUSH1 0x6 SWAP1 SWAP4 MUL SWAP1 SWAP2 ADD DUP3 ADD DUP1 SLOAD PUSH1 0x0 NOT PUSH2 0x100 PUSH1 0x1 DUP4 AND ISZERO MUL ADD AND SWAP3 SWAP1 SWAP3 DIV PUSH1 0x24 DUP3 ADD DUP2 SWAP1 MSTORE SWAP2 SWAP3 SWAP2 DUP3 SWAP2 PUSH1 0x44 ADD SWAP1 DUP5 SWAP1 DUP1 ISZERO PUSH2 0x2156 JUMPI DUP1 PUSH1 0x1F LT PUSH2 0x212B JUMPI PUSH2 0x100 DUP1 DUP4 SLOAD DIV MUL DUP4 MSTORE SWAP2 PUSH1 0x20 ADD SWAP2 PUSH2 0x2156 JUMP JUMPDEST DUP3 ADD SWAP2 SWAP1 PUSH1 0x0 MSTORE PUSH1 0x20 PUSH1 0x0 KECCAK256 SWAP1 JUMPDEST DUP2 SLOAD DUP2 MSTORE SWAP1 PUSH1 0x1 ADD SWAP1 PUSH1 0x20 ADD DUP1 DUP4 GT PUSH2 0x2139 JUMPI DUP3 SWAP1 SUB PUSH1 0x1F AND DUP3 ADD SWAP2 JUMPDEST POP POP SWAP3 POP POP POP PUSH1 0x20 PUSH1 0x40 MLOAD DUP1 DUP4 SUB DUP2 PUSH1 0x0 DUP8 DUP1 EXTCODESIZE ISZERO DUP1 ISZERO PUSH2 0x2176 JUMPI PUSH1 0x0 DUP1 REVERT JUMPDEST POP GAS CALL ISZERO DUP1 ISZERO PUSH2 0x218A JUMPI RETURNDATASIZE PUSH1 0x0 DUP1 RETURNDATACOPY RETURNDATASIZE PUSH1 0x0 REVERT JUMPDEST POP POP POP POP PUSH1 0x40 MLOAD RETURNDATASIZE PUSH1 0x20 DUP2 LT ISZERO PUSH2 0x21A0 JUMPI PUSH1 0x0 DUP1 REVERT JUMPDEST POP MLOAD SWAP1 POP PUSH1 0x0 JUMPDEST PUSH1 0xB DUP5 PUSH4 0xFFFFFFFF AND DUP2 SLOAD DUP2 LT PUSH2 0x21BA JUMPI INVALID JUMPDEST SWAP1 PUSH1 0x0 MSTORE PUSH1 0x20 PUSH1 0x0 KECCAK256 SWAP1 PUSH1 0x6 MUL ADD PUSH1 0x3 ADD DUP1 SLOAD SWAP1 POP DUP2 PUSH4 0xFFFFFFFF AND LT ISZERO PUSH2 0x23CC JUMPI DUP3 PUSH1 0x1 PUSH1 0x1 PUSH1 0xA0 SHL SUB AND PUSH4 0x928EC3E5 PUSH1 0xB DUP7 PUSH4 0xFFFFFFFF AND DUP2 SLOAD DUP2 LT PUSH2 0x21FE JUMPI INVALID JUMPDEST SWAP1 PUSH1 0x0 MSTORE PUSH1 0x20 PUSH1 0x0 KECCAK256 SWAP1 PUSH1 0x6 MUL ADD PUSH1 0x3 ADD DUP4 PUSH4 0xFFFFFFFF AND DUP2 SLOAD DUP2 LT PUSH2 0x2220 JUMPI INVALID JUMPDEST SWAP1 PUSH1 0x0 MSTORE PUSH1 0x20 PUSH1 0x0 KECCAK256 ADD PUSH1 0xB DUP8 PUSH4 0xFFFFFFFF AND DUP2 SLOAD DUP2 LT PUSH2 0x223D JUMPI INVALID JUMPDEST SWAP1 PUSH1 0x0 MSTORE PUSH1 0x20 PUSH1 0x0 KECCAK256 SWAP1 PUSH1 0x6 MUL ADD PUSH1 0x4 ADD DUP5 PUSH4 0xFFFFFFFF AND DUP2 SLOAD DUP2 LT PUSH2 0x225F JUMPI INVALID JUMPDEST PUSH1 0x0 SWAP2 DUP3 MSTORE PUSH1 0x20 SWAP1 SWAP2 KECCAK256 PUSH1 0x40 MLOAD PUSH1 0x1 PUSH1 0x1 PUSH1 0xE0 SHL SUB NOT PUSH1 0xE0 DUP7 SWAP1 SHL AND DUP2 MSTORE PUSH4 0xFFFFFFFF DUP9 AND PUSH1 0x44 DUP3 ADD MSTORE PUSH1 0x60 PUSH1 0x4 DUP3 ADD SWAP1 DUP2 MSTORE DUP5 SLOAD PUSH1 0x2 PUSH1 0x0 NOT PUSH2 0x100 PUSH1 0x1 DUP5 AND ISZERO MUL ADD SWAP1 SWAP2 AND DIV PUSH1 0x64 DUP4 ADD DUP2 SWAP1 MSTORE SWAP3 SWAP1 SWAP4 ADD SWAP3 DUP9 SWAP3 SWAP1 SWAP2 DUP3 SWAP2 PUSH1 0x24 DUP3 ADD SWAP2 PUSH1 0x84 ADD SWAP1 DUP8 SWAP1 DUP1 ISZERO PUSH2 0x2311 JUMPI DUP1 PUSH1 0x1F LT PUSH2 0x22E6 JUMPI PUSH2 0x100 DUP1 DUP4 SLOAD DIV MUL DUP4 MSTORE SWAP2 PUSH1 0x20 ADD SWAP2 PUSH2 0x2311 JUMP JUMPDEST DUP3 ADD SWAP2 SWAP1 PUSH1 0x0 MSTORE PUSH1 0x20 PUSH1 0x0 KECCAK256 SWAP1 JUMPDEST DUP2 SLOAD DUP2 MSTORE SWAP1 PUSH1 0x1 ADD SWAP1 PUSH1 0x20 ADD DUP1 DUP4 GT PUSH2 0x22F4 JUMPI DUP3 SWAP1 SUB PUSH1 0x1F AND DUP3 ADD SWAP2 JUMPDEST POP POP DUP4 DUP2 SUB DUP3 MSTORE DUP6 SLOAD PUSH1 0x2 PUSH1 0x0 NOT PUSH2 0x100 PUSH1 0x1 DUP5 AND ISZERO MUL ADD SWAP1 SWAP2 AND DIV DUP1 DUP3 MSTORE PUSH1 0x20 SWAP1 SWAP2 ADD SWAP1 DUP7 SWAP1 DUP1 ISZERO PUSH2 0x2385 JUMPI DUP1 PUSH1 0x1F LT PUSH2 0x235A JUMPI PUSH2 0x100 DUP1 DUP4 SLOAD DIV MUL DUP4 MSTORE SWAP2 PUSH1 0x20 ADD SWAP2 PUSH2 0x2385 JUMP JUMPDEST DUP3 ADD SWAP2 SWAP1 PUSH1 0x0 MSTORE PUSH1 0x20 PUSH1 0x0 KECCAK256 SWAP1 JUMPDEST DUP2 SLOAD DUP2 MSTORE SWAP1 PUSH1 0x1 ADD SWAP1 PUSH1 0x20 ADD DUP1 DUP4 GT PUSH2 0x2368 JUMPI DUP3 SWAP1 SUB PUSH1 0x1F AND DUP3 ADD SWAP2 JUMPDEST POP POP SWAP6 POP POP POP POP POP POP PUSH1 0x0 PUSH1 0x40 MLOAD DUP1 DUP4 SUB DUP2 PUSH1 0x0 DUP8 DUP1 EXTCODESIZE ISZERO DUP1 ISZERO PUSH2 0x23A8 JUMPI PUSH1 0x0 DUP1 REVERT JUMPDEST POP GAS CALL ISZERO DUP1 ISZERO PUSH2 0x23BC JUMPI RETURNDATASIZE PUSH1 0x0 DUP1 RETURNDATACOPY RETURNDATASIZE PUSH1 0x0 REVERT JUMPDEST POP POP PUSH1 0x1 SWAP1 SWAP3 ADD SWAP2 POP PUSH2 0x21A7 SWAP1 POP JUMP JUMPDEST POP PUSH1 0x1 PUSH1 0xB DUP5 PUSH4 0xFFFFFFFF AND DUP2 SLOAD DUP2 LT PUSH2 0x23E2 JUMPI INVALID JUMPDEST PUSH1 0x0 SWAP2 DUP3 MSTORE PUSH1 0x20 SWAP1 SWAP2 KECCAK256 PUSH1 0x6 SWAP1 SWAP2 MUL ADD PUSH1 0x5 ADD DUP1 SLOAD PUSH1 0xFF NOT AND SWAP2 ISZERO ISZERO SWAP2 SWAP1 SWAP2 OR SWAP1 SSTORE POP POP POP JUMP JUMPDEST CALLER PUSH1 0x0 SWAP1 DUP2 MSTORE PUSH1 0x8 PUSH1 0x20 MSTORE PUSH1 0x40 SWAP1 DUP2 SWAP1 KECCAK256 SWAP1 MLOAD DUP6 SWAP1 DUP6 SWAP1 DUP1 DUP4 DUP4 DUP1 DUP3 DUP5 CALLDATACOPY SWAP2 SWAP1 SWAP2 ADD SWAP5 DUP6 MSTORE POP POP PUSH1 0x40 MLOAD SWAP3 DUP4 SWAP1 SUB PUSH1 0x20 ADD SWAP1 SWAP3 KECCAK256 SLOAD PUSH1 0xFF AND SWAP2 POP PUSH2 0x244E SWAP1 POP JUMPI PUSH1 0x0 DUP1 REVERT JUMPDEST CALLER PUSH1 0x0 SWAP1 DUP2 MSTORE PUSH1 0x4 PUSH1 0x20 MSTORE PUSH1 0x40 SWAP1 DUP2 SWAP1 KECCAK256 SWAP1 MLOAD DUP4 SWAP2 DUP4 SWAP2 DUP8 SWAP1 DUP8 SWAP1 DUP1 DUP4 DUP4 DUP1 DUP3 DUP5 CALLDATACOPY DUP1 DUP4 ADD SWAP3 POP POP POP SWAP3 POP POP POP SWAP1 DUP2 MSTORE PUSH1 0x20 ADD PUSH1 0x40 MLOAD DUP1 SWAP2 SUB SWAP1 KECCAK256 SWAP2 SWAP1 PUSH2 0x2496 SWAP3 SWAP2 SWAP1 PUSH2 0x3A7F JUMP JUMPDEST POP POP POP POP POP JUMP JUMPDEST PUSH1 0x1 DUP2 JUMP JUMPDEST PUSH1 0x8 PUSH1 0x0 DUP5 PUSH1 0x1 PUSH1 0x1 PUSH1 0xA0 SHL SUB AND PUSH1 0x1 PUSH1 0x1 PUSH1 0xA0 SHL SUB AND DUP2 MSTORE PUSH1 0x20 ADD SWAP1 DUP2 MSTORE PUSH1 0x20 ADD PUSH1 0x0 KECCAK256 DUP3 PUSH1 0x40 MLOAD DUP1 DUP3 DUP1 MLOAD SWAP1 PUSH1 0x20 ADD SWAP1 DUP1 DUP4 DUP4 JUMPDEST PUSH1 0x20 DUP4 LT PUSH2 0x24F7 JUMPI DUP1 MLOAD DUP3 MSTORE PUSH1 0x1F NOT SWAP1 SWAP3 ADD SWAP2 PUSH1 0x20 SWAP2 DUP3 ADD SWAP2 ADD PUSH2 0x24D8 JUMP JUMPDEST MLOAD DUP2 MLOAD PUSH1 0x20 SWAP4 DUP5 SUB PUSH2 0x100 EXP PUSH1 0x0 NOT ADD DUP1 NOT SWAP1 SWAP3 AND SWAP2 AND OR SWAP1 MSTORE SWAP3 ADD SWAP5 DUP6 MSTORE POP PUSH1 0x40 MLOAD SWAP4 DUP5 SWAP1 SUB ADD SWAP1 SWAP3 KECCAK256 SLOAD PUSH1 0xFF AND SWAP2 POP PUSH2 0x2533 SWAP1 POP JUMPI PUSH1 0x0 DUP1 REVERT JUMPDEST DUP1 PUSH1 0x3 PUSH1 0x0 DUP6 PUSH1 0x1 PUSH1 0x1 PUSH1 0xA0 SHL SUB AND PUSH1 0x1 PUSH1 0x1 PUSH1 0xA0 SHL SUB AND DUP2 MSTORE PUSH1 0x20 ADD SWAP1 DUP2 MSTORE PUSH1 0x20 ADD PUSH1 0x0 KECCAK256 DUP4 PUSH1 0x40 MLOAD DUP1 DUP3 DUP1 MLOAD SWAP1 PUSH1 0x20 ADD SWAP1 DUP1 DUP4 DUP4 JUMPDEST PUSH1 0x20 DUP4 LT PUSH2 0x2589 JUMPI DUP1 MLOAD DUP3 MSTORE PUSH1 0x1F NOT SWAP1 SWAP3 ADD SWAP2 PUSH1 0x20 SWAP2 DUP3 ADD SWAP2 ADD PUSH2 0x256A JUMP JUMPDEST MLOAD DUP2 MLOAD PUSH1 0x20 SWAP4 DUP5 SUB PUSH2 0x100 EXP PUSH1 0x0 NOT ADD DUP1 NOT SWAP1 SWAP3 AND SWAP2 AND OR SWAP1 MSTORE SWAP3 ADD SWAP5 DUP6 MSTORE POP PUSH1 0x40 MLOAD SWAP4 DUP5 SWAP1 SUB DUP2 ADD SWAP1 SWAP4 KECCAK256 DUP5 MLOAD PUSH2 0x25CA SWAP6 SWAP2 SWAP5 SWAP2 SWAP1 SWAP2 ADD SWAP3 POP SWAP1 POP PUSH2 0x3AFD JUMP JUMPDEST POP POP POP POP JUMP JUMPDEST PUSH2 0x25D8 PUSH2 0x3B6B JUMP JUMPDEST PUSH1 0x1 PUSH1 0x1 PUSH1 0xA0 SHL SUB DUP7 AND PUSH1 0x20 DUP3 DUP2 ADD DUP3 SWAP1 MSTORE PUSH1 0x40 DUP1 DUP5 ADD DUP9 SWAP1 MSTORE PUSH1 0x0 PUSH1 0xA0 DUP6 ADD DUP2 SWAP1 MSTORE PUSH1 0xB SLOAD SWAP4 DUP2 MSTORE PUSH1 0x1 SWAP1 SWAP3 MSTORE SWAP1 KECCAK256 DUP1 SLOAD PUSH4 0xFFFFFFFF NOT AND PUSH4 0xFFFFFFFF SWAP1 SWAP3 AND SWAP2 SWAP1 SWAP2 OR SWAP1 SSTORE PUSH2 0x2627 PUSH2 0x3BB5 JUMP JUMPDEST PUSH2 0x2630 DUP6 PUSH2 0x3807 JUMP JUMPDEST SWAP1 POP PUSH2 0x263A PUSH2 0x3BB5 JUMP JUMPDEST PUSH2 0x2643 DUP6 PUSH2 0x3807 JUMP JUMPDEST SWAP1 POP PUSH2 0x264D PUSH2 0x3BB5 JUMP JUMPDEST PUSH2 0x266F PUSH1 0x40 MLOAD DUP1 PUSH1 0x40 ADD PUSH1 0x40 MSTORE DUP1 PUSH1 0x1 DUP2 MSTORE PUSH1 0x20 ADD PUSH1 0xB PUSH1 0xFA SHL DUP2 MSTORE POP PUSH2 0x3807 JUMP JUMPDEST SWAP1 POP PUSH1 0x0 PUSH2 0x2683 DUP5 DUP4 PUSH4 0xFFFFFFFF PUSH2 0x382C AND JUMP JUMPDEST PUSH1 0x1 ADD SWAP1 POP DUP1 PUSH4 0xFFFFFFFF AND PUSH8 0xFFFFFFFFFFFFFFFF DUP2 GT DUP1 ISZERO PUSH2 0x26A5 JUMPI PUSH1 0x0 DUP1 REVERT JUMPDEST POP PUSH1 0x40 MLOAD SWAP1 DUP1 DUP3 MSTORE DUP1 PUSH1 0x20 MUL PUSH1 0x20 ADD DUP3 ADD PUSH1 0x40 MSTORE DUP1 ISZERO PUSH2 0x26D9 JUMPI DUP2 PUSH1 0x20 ADD JUMPDEST PUSH1 0x60 DUP2 MSTORE PUSH1 0x20 ADD SWAP1 PUSH1 0x1 SWAP1 SUB SWAP1 DUP2 PUSH2 0x26C4 JUMPI SWAP1 POP JUMPDEST POP PUSH1 0x60 DUP7 ADD MSTORE PUSH4 0xFFFFFFFF DUP2 AND PUSH8 0xFFFFFFFFFFFFFFFF DUP2 GT DUP1 ISZERO PUSH2 0x26FC JUMPI PUSH1 0x0 DUP1 REVERT JUMPDEST POP PUSH1 0x40 MLOAD SWAP1 DUP1 DUP3 MSTORE DUP1 PUSH1 0x20 MUL PUSH1 0x20 ADD DUP3 ADD PUSH1 0x40 MSTORE DUP1 ISZERO PUSH2 0x2730 JUMPI DUP2 PUSH1 0x20 ADD JUMPDEST PUSH1 0x60 DUP2 MSTORE PUSH1 0x20 ADD SWAP1 PUSH1 0x1 SWAP1 SUB SWAP1 DUP2 PUSH2 0x271B JUMPI SWAP1 POP JUMPDEST POP PUSH1 0x80 DUP7 ADD MSTORE PUSH1 0x0 JUMPDEST DUP2 PUSH4 0xFFFFFFFF AND DUP2 PUSH4 0xFFFFFFFF AND LT ISZERO PUSH2 0x27CE JUMPI PUSH1 0x60 PUSH2 0x2767 PUSH2 0x2762 DUP8 DUP7 PUSH4 0xFFFFFFFF PUSH2 0x3899 AND JUMP JUMPDEST PUSH2 0x38AC JUMP JUMPDEST SWAP1 POP PUSH1 0x60 PUSH2 0x277E PUSH2 0x2762 DUP8 DUP8 PUSH4 0xFFFFFFFF PUSH2 0x3899 AND JUMP JUMPDEST SWAP1 POP DUP2 DUP9 PUSH1 0x60 ADD MLOAD DUP5 PUSH4 0xFFFFFFFF AND DUP2 MLOAD DUP2 LT PUSH2 0x2797 JUMPI INVALID JUMPDEST PUSH1 0x20 MUL PUSH1 0x20 ADD ADD DUP2 SWAP1 MSTORE POP DUP1 DUP9 PUSH1 0x80 ADD MLOAD DUP5 PUSH4 0xFFFFFFFF AND DUP2 MLOAD DUP2 LT PUSH2 0x27B9 JUMPI INVALID JUMPDEST PUSH1 0x20 SWAP1 DUP2 MUL SWAP2 SWAP1 SWAP2 ADD ADD MSTORE POP POP PUSH1 0x1 ADD PUSH2 0x2739 JUMP JUMPDEST POP PUSH1 0xB DUP1 SLOAD PUSH1 0x1 DUP2 ADD DUP3 SSTORE PUSH1 0x0 SWAP2 SWAP1 SWAP2 MSTORE DUP6 MLOAD PUSH32 0x175B7A638427703F0DBE7BB9BBF987A2551717B34E79F33B5B1008D1FA01DB9 PUSH1 0x6 SWAP1 SWAP3 MUL SWAP2 DUP3 ADD DUP1 SLOAD PUSH1 0x1 PUSH1 0x1 PUSH1 0xA0 SHL SUB NOT SWAP1 DUP2 AND PUSH1 0x1 PUSH1 0x1 PUSH1 0xA0 SHL SUB SWAP4 DUP5 AND OR DUP3 SSTORE PUSH1 0x20 DUP1 DUP11 ADD MLOAD PUSH32 0x175B7A638427703F0DBE7BB9BBF987A2551717B34E79F33B5B1008D1FA01DBA DUP7 ADD DUP1 SLOAD SWAP1 SWAP4 AND SWAP5 AND SWAP4 SWAP1 SWAP4 OR SWAP1 SSTORE PUSH1 0x40 DUP9 ADD MLOAD DUP1 MLOAD DUP10 SWAP5 SWAP3 SWAP4 PUSH2 0x2895 SWAP4 PUSH32 0x175B7A638427703F0DBE7BB9BBF987A2551717B34E79F33B5B1008D1FA01DBB ADD SWAP3 ADD SWAP1 PUSH2 0x3AFD JUMP JUMPDEST POP PUSH1 0x60 DUP3 ADD MLOAD DUP1 MLOAD PUSH2 0x28B1 SWAP2 PUSH1 0x3 DUP5 ADD SWAP2 PUSH1 0x20 SWAP1 SWAP2 ADD SWAP1 PUSH2 0x3BCF JUMP JUMPDEST POP PUSH1 0x80 DUP3 ADD MLOAD DUP1 MLOAD PUSH2 0x28CD SWAP2 PUSH1 0x4 DUP5 ADD SWAP2 PUSH1 0x20 SWAP1 SWAP2 ADD SWAP1 PUSH2 0x3BCF JUMP JUMPDEST POP PUSH1 0xA0 SWAP2 SWAP1 SWAP2 ADD MLOAD PUSH1 0x5 SWAP1 SWAP2 ADD DUP1 SLOAD PUSH1 0xFF NOT AND SWAP2 ISZERO ISZERO SWAP2 SWAP1 SWAP2 OR SWAP1 SSTORE DUP6 ISZERO PUSH2 0x28FF JUMPI PUSH1 0xB SLOAD PUSH2 0x28FF SWAP1 PUSH1 0x0 NOT ADD PUSH2 0x202B JUMP JUMPDEST POP POP POP POP POP POP POP POP POP POP JUMP JUMPDEST PUSH1 0x40 DUP1 MLOAD PUSH4 0x4F2BCBEF PUSH1 0xE0 SHL DUP2 MSTORE PUSH4 0xFFFFFFFF DUP4 AND PUSH1 0x4 DUP3 ADD MSTORE SWAP1 MLOAD DUP4 SWAP2 PUSH1 0x1 PUSH1 0x1 PUSH1 0xA0 SHL SUB DUP4 AND SWAP2 PUSH4 0x4F2BCBEF SWAP2 PUSH1 0x24 DUP1 DUP3 ADD SWAP3 PUSH1 0x0 SWAP3 SWAP1 SWAP2 SWAP1 DUP3 SWAP1 SUB ADD DUP2 DUP4 DUP8 DUP1 EXTCODESIZE ISZERO DUP1 ISZERO PUSH2 0x295B JUMPI PUSH1 0x0 DUP1 REVERT JUMPDEST POP GAS CALL ISZERO DUP1 ISZERO PUSH2 0x296F JUMPI RETURNDATASIZE PUSH1 0x0 DUP1 RETURNDATACOPY RETURNDATASIZE PUSH1 0x0 REVERT JUMPDEST POP POP POP POP POP POP POP JUMP JUMPDEST PUSH1 0x9 DUP2 DUP2 SLOAD DUP2 LT PUSH2 0x2985 JUMPI INVALID JUMPDEST PUSH1 0x0 SWAP2 DUP3 MSTORE PUSH1 0x20 SWAP2 DUP3 SWAP1 KECCAK256 PUSH1 0x6 SWAP1 SWAP2 MUL ADD DUP1 SLOAD PUSH1 0x1 DUP1 DUP4 ADD SLOAD PUSH1 0x2 DUP1 DUP6 ADD DUP1 SLOAD PUSH1 0x40 DUP1 MLOAD PUSH1 0x1F PUSH1 0x0 NOT SWAP8 DUP5 AND ISZERO PUSH2 0x100 MUL SWAP8 SWAP1 SWAP8 ADD SWAP1 SWAP3 AND SWAP4 SWAP1 SWAP4 DIV SWAP5 DUP6 ADD DUP9 SWAP1 DIV DUP9 MUL DUP2 ADD DUP9 ADD SWAP1 SWAP3 MSTORE DUP4 DUP3 MSTORE PUSH1 0x1 PUSH1 0x1 PUSH1 0xA0 SHL SUB SWAP5 DUP6 AND SWAP8 POP SWAP2 SWAP1 SWAP4 AND SWAP5 SWAP1 SWAP2 SWAP1 DUP4 ADD DUP3 DUP3 DUP1 ISZERO PUSH2 0x2A39 JUMPI DUP1 PUSH1 0x1F LT PUSH2 0x2A0E JUMPI PUSH2 0x100 DUP1 DUP4 SLOAD DIV MUL DUP4 MSTORE SWAP2 PUSH1 0x20 ADD SWAP2 PUSH2 0x2A39 JUMP JUMPDEST DUP3 ADD SWAP2 SWAP1 PUSH1 0x0 MSTORE PUSH1 0x20 PUSH1 0x0 KECCAK256 SWAP1 JUMPDEST DUP2 SLOAD DUP2 MSTORE SWAP1 PUSH1 0x1 ADD SWAP1 PUSH1 0x20 ADD DUP1 DUP4 GT PUSH2 0x2A1C JUMPI DUP3 SWAP1 SUB PUSH1 0x1F AND DUP3 ADD SWAP2 JUMPDEST POP POP POP PUSH1 0x5 SWAP1 SWAP4 ADD SLOAD SWAP2 SWAP3 POP POP PUSH1 0xFF AND DUP5 JUMP JUMPDEST PUSH1 0x9 DUP2 PUSH4 0xFFFFFFFF AND DUP2 SLOAD DUP2 LT PUSH2 0x2A5F JUMPI INVALID JUMPDEST PUSH1 0x0 SWAP2 DUP3 MSTORE PUSH1 0x20 DUP1 DUP4 KECCAK256 PUSH1 0x4 PUSH1 0x6 SWAP1 SWAP4 MUL ADD SWAP2 SWAP1 SWAP2 ADD DUP1 SLOAD PUSH1 0x1 DUP2 ADD DUP3 SSTORE SWAP1 DUP4 MSTORE SWAP2 KECCAK256 PUSH2 0x2A8E SWAP2 ADD DUP5 DUP5 PUSH2 0x3A7F JUMP JUMPDEST POP PUSH1 0x9 DUP2 PUSH4 0xFFFFFFFF AND DUP2 SLOAD DUP2 LT PUSH2 0x2AA2 JUMPI INVALID JUMPDEST PUSH1 0x0 SWAP2 DUP3 MSTORE PUSH1 0x20 DUP1 DUP4 KECCAK256 PUSH1 0x3 PUSH1 0x6 SWAP1 SWAP4 MUL ADD SWAP2 SWAP1 SWAP2 ADD DUP1 SLOAD PUSH1 0x1 DUP2 ADD DUP3 SSTORE SWAP1 DUP4 MSTORE SWAP2 KECCAK256 PUSH2 0x2AD1 SWAP2 ADD DUP7 DUP7 PUSH2 0x3A7F JUMP JUMPDEST POP POP POP POP POP POP JUMP JUMPDEST PUSH1 0x0 PUSH1 0xB DUP3 PUSH4 0xFFFFFFFF AND DUP2 SLOAD DUP2 LT PUSH2 0x2011 JUMPI INVALID JUMPDEST PUSH1 0xB DUP2 DUP2 SLOAD DUP2 LT PUSH2 0x2985 JUMPI INVALID JUMPDEST PUSH1 0x8 PUSH1 0x20 SWAP1 DUP2 MSTORE PUSH1 0x0 SWAP3 DUP4 MSTORE PUSH1 0x40 SWAP1 SWAP3 KECCAK256 DUP2 MLOAD DUP1 DUP4 ADD DUP5 ADD DUP1 MLOAD SWAP3 DUP2 MSTORE SWAP1 DUP5 ADD SWAP3 SWAP1 SWAP4 ADD SWAP2 SWAP1 SWAP2 KECCAK256 SWAP2 MSTORE SLOAD PUSH1 0xFF AND DUP2 JUMP JUMPDEST PUSH1 0x0 PUSH2 0x2B36 PUSH2 0x3B6B JUMP JUMPDEST CALLER DUP2 MSTORE PUSH1 0x40 DUP1 MLOAD PUSH1 0x20 PUSH1 0x1F DUP7 ADD DUP2 SWAP1 DIV DUP2 MUL DUP3 ADD DUP2 ADD SWAP1 SWAP3 MSTORE DUP5 DUP2 MSTORE SWAP1 DUP6 SWAP1 DUP6 SWAP1 DUP2 SWAP1 DUP5 ADD DUP4 DUP3 DUP1 DUP3 DUP5 CALLDATACOPY PUSH1 0x0 SWAP3 ADD DUP3 SWAP1 MSTORE POP PUSH1 0x40 DUP7 ADD SWAP5 DUP6 MSTORE PUSH1 0xA0 DUP7 ADD DUP2 SWAP1 MSTORE PUSH1 0x9 DUP1 SLOAD PUSH1 0x1 DUP2 ADD DUP3 SSTORE SWAP2 MSTORE DUP6 MLOAD PUSH32 0x6E1540171B6C0C960B71A7020D9F60077F6AF931A8BBF590DA0223DACF75C7AF PUSH1 0x6 SWAP1 SWAP3 MUL SWAP2 DUP3 ADD DUP1 SLOAD PUSH1 0x1 PUSH1 0x1 PUSH1 0xA0 SHL SUB NOT SWAP1 DUP2 AND PUSH1 0x1 PUSH1 0x1 PUSH1 0xA0 SHL SUB SWAP4 DUP5 AND OR DUP3 SSTORE PUSH1 0x20 DUP1 DUP11 ADD MLOAD PUSH32 0x6E1540171B6C0C960B71A7020D9F60077F6AF931A8BBF590DA0223DACF75C7B0 DUP7 ADD DUP1 SLOAD SWAP1 SWAP4 AND SWAP5 AND SWAP4 SWAP1 SWAP4 OR SWAP1 SSTORE SWAP6 MLOAD DUP1 MLOAD DUP9 SWAP8 SWAP7 POP PUSH2 0x2C3A SWAP6 POP PUSH32 0x6E1540171B6C0C960B71A7020D9F60077F6AF931A8BBF590DA0223DACF75C7B1 SWAP1 SWAP4 ADD SWAP4 POP ADD SWAP1 PUSH2 0x3AFD JUMP JUMPDEST POP PUSH1 0x60 DUP3 ADD MLOAD DUP1 MLOAD PUSH2 0x2C56 SWAP2 PUSH1 0x3 DUP5 ADD SWAP2 PUSH1 0x20 SWAP1 SWAP2 ADD SWAP1 PUSH2 0x3BCF JUMP JUMPDEST POP PUSH1 0x80 DUP3 ADD MLOAD DUP1 MLOAD PUSH2 0x2C72 SWAP2 PUSH1 0x4 DUP5 ADD SWAP2 PUSH1 0x20 SWAP1 SWAP2 ADD SWAP1 PUSH2 0x3BCF JUMP JUMPDEST POP PUSH1 0xA0 SWAP2 SWAP1 SWAP2 ADD MLOAD PUSH1 0x5 SWAP1 SWAP2 ADD DUP1 SLOAD PUSH1 0xFF NOT AND SWAP2 ISZERO ISZERO SWAP2 SWAP1 SWAP2 OR SWAP1 SSTORE POP POP PUSH1 0x9 SLOAD PUSH1 0x0 NOT ADD SWAP3 SWAP2 POP POP JUMP JUMPDEST PUSH1 0x1 PUSH1 0x1 PUSH1 0xA0 SHL SUB AND PUSH1 0x0 SWAP1 DUP2 MSTORE PUSH1 0x7 PUSH1 0x20 MSTORE PUSH1 0x40 SWAP1 KECCAK256 SLOAD SWAP1 JUMP JUMPDEST PUSH1 0xB SLOAD SWAP1 JUMP JUMPDEST PUSH1 0x1 PUSH1 0x20 MSTORE PUSH1 0x0 SWAP1 DUP2 MSTORE PUSH1 0x40 SWAP1 KECCAK256 SLOAD PUSH4 0xFFFFFFFF AND DUP2 JUMP JUMPDEST PUSH1 0x60 DUP1 PUSH1 0x9 DUP5 PUSH4 0xFFFFFFFF AND DUP2 SLOAD DUP2 LT PUSH2 0x2CEC JUMPI INVALID JUMPDEST SWAP1 PUSH1 0x0 MSTORE PUSH1 0x20 PUSH1 0x0 KECCAK256 SWAP1 PUSH1 0x6 MUL ADD PUSH1 0x3 ADD DUP4 PUSH4 0xFFFFFFFF AND DUP2 SLOAD DUP2 LT PUSH2 0x2D0E JUMPI INVALID JUMPDEST SWAP1 PUSH1 0x0 MSTORE PUSH1 0x20 PUSH1 0x0 KECCAK256 ADD PUSH1 0x9 DUP6 PUSH4 0xFFFFFFFF AND DUP2 SLOAD DUP2 LT PUSH2 0x1761 JUMPI INVALID JUMPDEST PUSH1 0x40 DUP1 MLOAD PUSH4 0x838EBD85 PUSH1 0xE0 SHL DUP2 MSTORE PUSH4 0xFFFFFFFF DUP4 AND PUSH1 0x4 DUP3 ADD MSTORE SWAP1 MLOAD DUP4 SWAP2 PUSH1 0x1 PUSH1 0x1 PUSH1 0xA0 SHL SUB DUP4 AND SWAP2 PUSH4 0x838EBD85 SWAP2 PUSH1 0x24 DUP1 DUP3 ADD SWAP3 PUSH1 0x0 SWAP3 SWAP1 SWAP2 SWAP1 DUP3 SWAP1 SUB ADD DUP2 DUP4 DUP8 DUP1 EXTCODESIZE ISZERO DUP1 ISZERO PUSH2 0x295B JUMPI PUSH1 0x0 DUP1 REVERT JUMPDEST PUSH1 0x0 SLOAD PUSH1 0xFF AND DUP2 JUMP JUMPDEST PUSH1 0x40 MLOAD PUSH4 0x7E15477D PUSH1 0xE1 SHL DUP2 MSTORE PUSH4 0xFFFFFFFF DUP3 AND PUSH1 0x44 DUP3 ADD MSTORE PUSH1 0x60 PUSH1 0x4 DUP3 ADD SWAP1 DUP2 MSTORE DUP5 MLOAD PUSH1 0x64 DUP4 ADD MSTORE DUP5 MLOAD DUP7 SWAP3 PUSH1 0x1 PUSH1 0x1 PUSH1 0xA0 SHL SUB DUP5 AND SWAP3 PUSH4 0xFC2A8EFA SWAP3 DUP9 SWAP3 DUP9 SWAP3 DUP9 SWAP3 SWAP1 SWAP2 DUP3 SWAP2 PUSH1 0x24 DUP3 ADD SWAP2 PUSH1 0x84 ADD SWAP1 PUSH1 0x20 DUP9 ADD SWAP1 DUP1 DUP4 DUP4 PUSH1 0x0 JUMPDEST DUP4 DUP2 LT ISZERO PUSH2 0x2DF8 JUMPI DUP2 DUP2 ADD MLOAD DUP4 DUP3 ADD MSTORE PUSH1 0x20 ADD PUSH2 0x2DE0 JUMP JUMPDEST POP POP POP POP SWAP1 POP SWAP1 DUP2 ADD SWAP1 PUSH1 0x1F AND DUP1 ISZERO PUSH2 0x2E25 JUMPI DUP1 DUP3 SUB DUP1 MLOAD PUSH1 0x1 DUP4 PUSH1 0x20 SUB PUSH2 0x100 EXP SUB NOT AND DUP2 MSTORE PUSH1 0x20 ADD SWAP2 POP JUMPDEST POP DUP4 DUP2 SUB DUP3 MSTORE DUP6 MLOAD DUP2 MSTORE DUP6 MLOAD PUSH1 0x20 SWAP2 DUP3 ADD SWAP2 DUP8 ADD SWAP1 DUP1 DUP4 DUP4 PUSH1 0x0 JUMPDEST DUP4 DUP2 LT ISZERO PUSH2 0x2E58 JUMPI DUP2 DUP2 ADD MLOAD DUP4 DUP3 ADD MSTORE PUSH1 0x20 ADD PUSH2 0x2E40 JUMP JUMPDEST POP POP POP POP SWAP1 POP SWAP1 DUP2 ADD SWAP1 PUSH1 0x1F AND DUP1 ISZERO PUSH2 0x2E85 JUMPI DUP1 DUP3 SUB DUP1 MLOAD PUSH1 0x1 DUP4 PUSH1 0x20 SUB PUSH2 0x100 EXP SUB NOT AND DUP2 MSTORE PUSH1 0x20 ADD SWAP2 POP JUMPDEST POP SWAP6 POP POP POP POP POP POP PUSH1 0x0 PUSH1 0x40 MLOAD DUP1 DUP4 SUB DUP2 PUSH1 0x0 DUP8 DUP1 EXTCODESIZE ISZERO DUP1 ISZERO PUSH2 0x2EA7 JUMPI PUSH1 0x0 DUP1 REVERT JUMPDEST POP GAS CALL ISZERO DUP1 ISZERO PUSH2 0x2EBB JUMPI RETURNDATASIZE PUSH1 0x0 DUP1 RETURNDATACOPY RETURNDATASIZE PUSH1 0x0 REVERT JUMPDEST POP POP POP POP POP POP POP POP POP JUMP JUMPDEST PUSH1 0x6 PUSH1 0x20 MSTORE PUSH1 0x0 SWAP1 DUP2 MSTORE PUSH1 0x40 SWAP1 KECCAK256 SLOAD PUSH1 0xFF AND DUP2 JUMP JUMPDEST PUSH1 0xB DUP2 PUSH4 0xFFFFFFFF AND DUP2 SLOAD DUP2 LT PUSH2 0x2EEE JUMPI INVALID JUMPDEST PUSH1 0x0 SWAP2 DUP3 MSTORE PUSH1 0x20 DUP1 DUP4 KECCAK256 PUSH1 0x3 PUSH1 0x6 SWAP1 SWAP4 MUL ADD SWAP2 SWAP1 SWAP2 ADD DUP1 SLOAD PUSH1 0x1 DUP2 ADD DUP3 SSTORE SWAP1 DUP4 MSTORE SWAP2 DUP2 SWAP1 KECCAK256 DUP6 MLOAD PUSH2 0x2F26 SWAP4 SWAP2 SWAP1 SWAP2 ADD SWAP2 DUP7 ADD SWAP1 PUSH2 0x3AFD JUMP JUMPDEST POP PUSH1 0xB DUP2 PUSH4 0xFFFFFFFF AND DUP2 SLOAD DUP2 LT PUSH2 0x2F3A JUMPI INVALID JUMPDEST PUSH1 0x0 SWAP2 DUP3 MSTORE PUSH1 0x20 DUP1 DUP4 KECCAK256 PUSH1 0x4 PUSH1 0x6 SWAP1 SWAP4 MUL ADD SWAP2 SWAP1 SWAP2 ADD DUP1 SLOAD PUSH1 0x1 DUP2 ADD DUP3 SSTORE SWAP1 DUP4 MSTORE SWAP2 DUP2 SWAP1 KECCAK256 DUP5 MLOAD PUSH2 0x25CA SWAP4 SWAP2 SWAP1 SWAP2 ADD SWAP2 DUP6 ADD SWAP1 PUSH2 0x3AFD JUMP JUMPDEST PUSH1 0x9 DUP2 PUSH4 0xFFFFFFFF AND DUP2 SLOAD DUP2 LT PUSH2 0x2F85 JUMPI INVALID JUMPDEST PUSH1 0x0 SWAP2 DUP3 MSTORE PUSH1 0x20 SWAP1 SWAP2 KECCAK256 PUSH1 0x5 PUSH1 0x6 SWAP1 SWAP3 MUL ADD ADD SLOAD PUSH1 0xFF AND ISZERO PUSH2 0x2FA6 JUMPI PUSH1 0x0 DUP1 REVERT JUMPDEST PUSH1 0x0 PUSH1 0x2 PUSH1 0x0 PUSH1 0x9 DUP5 PUSH4 0xFFFFFFFF AND DUP2 SLOAD DUP2 LT PUSH2 0x2FBF JUMPI INVALID JUMPDEST PUSH1 0x0 SWAP2 DUP3 MSTORE PUSH1 0x20 DUP1 DUP4 KECCAK256 PUSH1 0x6 SWAP1 SWAP3 MUL SWAP1 SWAP2 ADD SLOAD PUSH1 0x1 PUSH1 0x1 PUSH1 0xA0 SHL SUB AND DUP4 MSTORE DUP3 ADD SWAP3 SWAP1 SWAP3 MSTORE PUSH1 0x40 ADD SWAP1 KECCAK256 PUSH1 0x9 DUP1 SLOAD PUSH4 0xFFFFFFFF DUP6 AND SWAP1 DUP2 LT PUSH2 0x2FFC JUMPI INVALID JUMPDEST SWAP1 PUSH1 0x0 MSTORE PUSH1 0x20 PUSH1 0x0 KECCAK256 SWAP1 PUSH1 0x6 MUL ADD PUSH1 0x2 ADD PUSH1 0x40 MLOAD DUP1 DUP3 DUP1 SLOAD PUSH1 0x1 DUP2 PUSH1 0x1 AND ISZERO PUSH2 0x100 MUL SUB AND PUSH1 0x2 SWAP1 DIV DUP1 ISZERO PUSH2 0x3068 JUMPI DUP1 PUSH1 0x1F LT PUSH2 0x3046 JUMPI PUSH2 0x100 DUP1 DUP4 SLOAD DIV MUL DUP4 MSTORE SWAP2 DUP3 ADD SWAP2 PUSH2 0x3068 JUMP JUMPDEST DUP3 ADD SWAP2 SWAP1 PUSH1 0x0 MSTORE PUSH1 0x20 PUSH1 0x0 KECCAK256 SWAP1 JUMPDEST DUP2 SLOAD DUP2 MSTORE SWAP1 PUSH1 0x1 ADD SWAP1 PUSH1 0x20 ADD DUP1 DUP4 GT PUSH2 0x3054 JUMPI JUMPDEST POP POP SWAP3 DUP4 MSTORE POP POP PUSH1 0x40 MLOAD SWAP1 DUP2 SWAP1 SUB PUSH1 0x20 ADD SWAP1 KECCAK256 SWAP1 POP PUSH1 0x0 JUMPDEST PUSH1 0x9 DUP4 PUSH4 0xFFFFFFFF AND DUP2 SLOAD DUP2 LT PUSH2 0x3093 JUMPI INVALID JUMPDEST SWAP1 PUSH1 0x0 MSTORE PUSH1 0x20 PUSH1 0x0 KECCAK256 SWAP1 PUSH1 0x6 MUL ADD PUSH1 0x3 ADD DUP1 SLOAD SWAP1 POP DUP2 PUSH4 0xFFFFFFFF AND LT ISZERO PUSH2 0x347E JUMPI PUSH1 0x9 DUP4 PUSH4 0xFFFFFFFF AND DUP2 SLOAD DUP2 LT PUSH2 0x30C8 JUMPI INVALID JUMPDEST SWAP1 PUSH1 0x0 MSTORE PUSH1 0x20 PUSH1 0x0 KECCAK256 SWAP1 PUSH1 0x6 MUL ADD PUSH1 0x4 ADD DUP2 PUSH4 0xFFFFFFFF AND DUP2 SLOAD DUP2 LT PUSH2 0x30EA JUMPI INVALID JUMPDEST SWAP1 PUSH1 0x0 MSTORE PUSH1 0x20 PUSH1 0x0 KECCAK256 ADD DUP3 PUSH1 0x0 ADD PUSH1 0x9 DUP6 PUSH4 0xFFFFFFFF AND DUP2 SLOAD DUP2 LT PUSH2 0x310B JUMPI INVALID JUMPDEST SWAP1 PUSH1 0x0 MSTORE PUSH1 0x20 PUSH1 0x0 KECCAK256 SWAP1 PUSH1 0x6 MUL ADD PUSH1 0x3 ADD DUP4 PUSH4 0xFFFFFFFF AND DUP2 SLOAD DUP2 LT PUSH2 0x312D JUMPI INVALID JUMPDEST SWAP1 PUSH1 0x0 MSTORE PUSH1 0x20 PUSH1 0x0 KECCAK256 ADD PUSH1 0x40 MLOAD DUP1 DUP3 DUP1 SLOAD PUSH1 0x1 DUP2 PUSH1 0x1 AND ISZERO PUSH2 0x100 MUL SUB AND PUSH1 0x2 SWAP1 DIV DUP1 ISZERO PUSH2 0x3192 JUMPI DUP1 PUSH1 0x1F LT PUSH2 0x3170 JUMPI PUSH2 0x100 DUP1 DUP4 SLOAD DIV MUL DUP4 MSTORE SWAP2 DUP3 ADD SWAP2 PUSH2 0x3192 JUMP JUMPDEST DUP3 ADD SWAP2 SWAP1 PUSH1 0x0 MSTORE PUSH1 0x20 PUSH1 0x0 KECCAK256 SWAP1 JUMPDEST DUP2 SLOAD DUP2 MSTORE SWAP1 PUSH1 0x1 ADD SWAP1 PUSH1 0x20 ADD DUP1 DUP4 GT PUSH2 0x317E JUMPI JUMPDEST POP POP SWAP3 DUP4 MSTORE POP POP PUSH1 0x40 MLOAD SWAP1 DUP2 SWAP1 SUB PUSH1 0x20 ADD SWAP1 KECCAK256 DUP2 SLOAD PUSH2 0x31C4 SWAP3 SWAP1 PUSH1 0x2 PUSH1 0x0 NOT PUSH2 0x100 PUSH1 0x1 DUP5 AND ISZERO MUL ADD SWAP1 SWAP2 AND DIV PUSH2 0x3C28 JUMP JUMPDEST POP DUP2 PUSH1 0x1 ADD PUSH1 0x9 DUP5 PUSH4 0xFFFFFFFF AND DUP2 SLOAD DUP2 LT PUSH2 0x31DC JUMPI INVALID JUMPDEST SWAP1 PUSH1 0x0 MSTORE PUSH1 0x20 PUSH1 0x0 KECCAK256 SWAP1 PUSH1 0x6 MUL ADD PUSH1 0x3 ADD DUP3 PUSH4 0xFFFFFFFF AND DUP2 SLOAD DUP2 LT PUSH2 0x31FE JUMPI INVALID JUMPDEST SWAP1 PUSH1 0x0 MSTORE PUSH1 0x20 PUSH1 0x0 KECCAK256 ADD PUSH1 0x40 MLOAD DUP1 DUP3 DUP1 SLOAD PUSH1 0x1 DUP2 PUSH1 0x1 AND ISZERO PUSH2 0x100 MUL SUB AND PUSH1 0x2 SWAP1 DIV DUP1 ISZERO PUSH2 0x3263 JUMPI DUP1 PUSH1 0x1F LT PUSH2 0x3241 JUMPI PUSH2 0x100 DUP1 DUP4 SLOAD DIV MUL DUP4 MSTORE SWAP2 DUP3 ADD SWAP2 PUSH2 0x3263 JUMP JUMPDEST DUP3 ADD SWAP2 SWAP1 PUSH1 0x0 MSTORE PUSH1 0x20 PUSH1 0x0 KECCAK256 SWAP1 JUMPDEST DUP2 SLOAD DUP2 MSTORE SWAP1 PUSH1 0x1 ADD SWAP1 PUSH1 0x20 ADD DUP1 DUP4 GT PUSH2 0x324F JUMPI JUMPDEST POP POP SWAP3 DUP4 MSTORE POP POP PUSH1 0x40 MLOAD SWAP1 DUP2 SWAP1 SUB PUSH1 0x20 ADD SWAP1 KECCAK256 SLOAD PUSH1 0xFF AND PUSH2 0x3476 JUMPI DUP2 PUSH1 0x2 ADD PUSH1 0x9 DUP5 PUSH4 0xFFFFFFFF AND DUP2 SLOAD DUP2 LT PUSH2 0x3295 JUMPI INVALID JUMPDEST SWAP1 PUSH1 0x0 MSTORE PUSH1 0x20 PUSH1 0x0 KECCAK256 SWAP1 PUSH1 0x6 MUL ADD PUSH1 0x3 ADD DUP3 PUSH4 0xFFFFFFFF AND DUP2 SLOAD DUP2 LT PUSH2 0x32B7 JUMPI INVALID JUMPDEST SWAP1 PUSH1 0x0 MSTORE PUSH1 0x20 PUSH1 0x0 KECCAK256 ADD PUSH1 0x40 MLOAD PUSH1 0x20 ADD DUP1 DUP4 DUP1 SLOAD PUSH1 0x1 DUP2 PUSH1 0x1 AND ISZERO PUSH2 0x100 MUL SUB AND PUSH1 0x2 SWAP1 DIV DUP1 ISZERO PUSH2 0x331F JUMPI DUP1 PUSH1 0x1F LT PUSH2 0x32FD JUMPI PUSH2 0x100 DUP1 DUP4 SLOAD DIV MUL DUP4 MSTORE SWAP2 DUP3 ADD SWAP2 PUSH2 0x331F JUMP JUMPDEST DUP3 ADD SWAP2 SWAP1 PUSH1 0x0 MSTORE PUSH1 0x20 PUSH1 0x0 KECCAK256 SWAP1 JUMPDEST DUP2 SLOAD DUP2 MSTORE SWAP1 PUSH1 0x1 ADD SWAP1 PUSH1 0x20 ADD DUP1 DUP4 GT PUSH2 0x330B JUMPI JUMPDEST POP POP DUP1 PUSH2 0x161 PUSH1 0xF5 SHL DUP2 MSTORE POP PUSH1 0x2 ADD DUP3 DUP1 SLOAD PUSH1 0x1 DUP2 PUSH1 0x1 AND ISZERO PUSH2 0x100 MUL SUB AND PUSH1 0x2 SWAP1 DIV DUP1 ISZERO PUSH2 0x3385 JUMPI DUP1 PUSH1 0x1F LT PUSH2 0x3363 JUMPI PUSH2 0x100 DUP1 DUP4 SLOAD DIV MUL DUP4 MSTORE SWAP2 DUP3 ADD SWAP2 PUSH2 0x3385 JUMP JUMPDEST DUP3 ADD SWAP2 SWAP1 PUSH1 0x0 MSTORE PUSH1 0x20 PUSH1 0x0 KECCAK256 SWAP1 JUMPDEST DUP2 SLOAD DUP2 MSTORE SWAP1 PUSH1 0x1 ADD SWAP1 PUSH1 0x20 ADD DUP1 DUP4 GT PUSH2 0x3371 JUMPI JUMPDEST POP POP PUSH1 0x40 DUP1 MLOAD PUSH1 0x1F NOT DUP2 DUP5 SUB ADD DUP2 MSTORE SWAP2 SWAP1 MSTORE DUP1 MLOAD PUSH2 0x33B0 SWAP5 POP PUSH1 0x2 DUP8 ADD SWAP4 POP PUSH1 0x20 SWAP1 SWAP2 ADD SWAP2 POP PUSH2 0x3AFD JUMP JUMPDEST POP PUSH1 0x1 DUP3 PUSH1 0x1 ADD PUSH1 0x9 DUP6 PUSH4 0xFFFFFFFF AND DUP2 SLOAD DUP2 LT PUSH2 0x33CA JUMPI INVALID JUMPDEST SWAP1 PUSH1 0x0 MSTORE PUSH1 0x20 PUSH1 0x0 KECCAK256 SWAP1 PUSH1 0x6 MUL ADD PUSH1 0x3 ADD DUP4 PUSH4 0xFFFFFFFF AND DUP2 SLOAD DUP2 LT PUSH2 0x33EC JUMPI INVALID JUMPDEST SWAP1 PUSH1 0x0 MSTORE PUSH1 0x20 PUSH1 0x0 KECCAK256 ADD PUSH1 0x40 MLOAD DUP1 DUP3 DUP1 SLOAD PUSH1 0x1 DUP2 PUSH1 0x1 AND ISZERO PUSH2 0x100 MUL SUB AND PUSH1 0x2 SWAP1 DIV DUP1 ISZERO PUSH2 0x3451 JUMPI DUP1 PUSH1 0x1F LT PUSH2 0x342F JUMPI PUSH2 0x100 DUP1 DUP4 SLOAD DIV MUL DUP4 MSTORE SWAP2 DUP3 ADD SWAP2 PUSH2 0x3451 JUMP JUMPDEST DUP3 ADD SWAP2 SWAP1 PUSH1 0x0 MSTORE PUSH1 0x20 PUSH1 0x0 KECCAK256 SWAP1 JUMPDEST DUP2 SLOAD DUP2 MSTORE SWAP1 PUSH1 0x1 ADD SWAP1 PUSH1 0x20 ADD DUP1 DUP4 GT PUSH2 0x343D JUMPI JUMPDEST POP POP SWAP3 DUP4 MSTORE POP POP PUSH1 0x40 MLOAD SWAP1 DUP2 SWAP1 SUB PUSH1 0x20 ADD SWAP1 KECCAK256 DUP1 SLOAD SWAP2 ISZERO ISZERO PUSH1 0xFF NOT SWAP1 SWAP3 AND SWAP2 SWAP1 SWAP2 OR SWAP1 SSTORE JUMPDEST PUSH1 0x1 ADD PUSH2 0x3080 JUMP JUMPDEST POP PUSH1 0x6 PUSH1 0x0 PUSH1 0x9 DUP5 PUSH4 0xFFFFFFFF AND DUP2 SLOAD DUP2 LT PUSH2 0x3496 JUMPI INVALID JUMPDEST PUSH1 0x0 SWAP2 DUP3 MSTORE PUSH1 0x20 DUP1 DUP4 KECCAK256 PUSH1 0x6 SWAP1 SWAP3 MUL SWAP1 SWAP2 ADD SLOAD PUSH1 0x1 PUSH1 0x1 PUSH1 0xA0 SHL SUB AND DUP4 MSTORE DUP3 ADD SWAP3 SWAP1 SWAP3 MSTORE PUSH1 0x40 ADD SWAP1 KECCAK256 SLOAD PUSH1 0xFF AND PUSH2 0x356D JUMPI PUSH1 0x5 PUSH1 0x9 DUP4 PUSH4 0xFFFFFFFF AND DUP2 SLOAD DUP2 LT PUSH2 0x34DC JUMPI INVALID JUMPDEST PUSH1 0x0 SWAP2 DUP3 MSTORE PUSH1 0x20 DUP1 DUP4 KECCAK256 PUSH1 0x6 SWAP3 DUP4 MUL ADD SLOAD DUP5 SLOAD PUSH1 0x1 DUP2 DUP2 ADD DUP8 SSTORE SWAP6 DUP6 MSTORE SWAP2 DUP5 KECCAK256 SWAP1 SWAP2 ADD DUP1 SLOAD PUSH1 0x1 PUSH1 0x1 PUSH1 0xA0 SHL SUB NOT AND PUSH1 0x1 PUSH1 0x1 PUSH1 0xA0 SHL SUB SWAP1 SWAP3 AND SWAP2 SWAP1 SWAP2 OR SWAP1 SSTORE PUSH1 0x9 DUP1 SLOAD SWAP2 SWAP3 SWAP2 PUSH4 0xFFFFFFFF DUP8 AND SWAP1 DUP2 LT PUSH2 0x3533 JUMPI INVALID JUMPDEST PUSH1 0x0 SWAP2 DUP3 MSTORE PUSH1 0x20 DUP1 DUP4 KECCAK256 PUSH1 0x6 SWAP3 SWAP1 SWAP3 MUL SWAP1 SWAP2 ADD SLOAD PUSH1 0x1 PUSH1 0x1 PUSH1 0xA0 SHL SUB AND DUP4 MSTORE DUP3 ADD SWAP3 SWAP1 SWAP3 MSTORE PUSH1 0x40 ADD SWAP1 KECCAK256 DUP1 SLOAD PUSH1 0xFF NOT AND SWAP2 ISZERO ISZERO SWAP2 SWAP1 SWAP2 OR SWAP1 SSTORE JUMPDEST PUSH1 0x8 PUSH1 0x0 PUSH1 0x9 DUP5 PUSH4 0xFFFFFFFF AND DUP2 SLOAD DUP2 LT PUSH2 0x3584 JUMPI INVALID JUMPDEST PUSH1 0x0 SWAP2 DUP3 MSTORE PUSH1 0x20 DUP1 DUP4 KECCAK256 PUSH1 0x6 SWAP1 SWAP3 MUL SWAP1 SWAP2 ADD SLOAD PUSH1 0x1 PUSH1 0x1 PUSH1 0xA0 SHL SUB AND DUP4 MSTORE DUP3 ADD SWAP3 SWAP1 SWAP3 MSTORE PUSH1 0x40 ADD SWAP1 KECCAK256 PUSH1 0x9 DUP1 SLOAD PUSH4 0xFFFFFFFF DUP6 AND SWAP1 DUP2 LT PUSH2 0x35C1 JUMPI INVALID JUMPDEST SWAP1 PUSH1 0x0 MSTORE PUSH1 0x20 PUSH1 0x0 KECCAK256 SWAP1 PUSH1 0x6 MUL ADD PUSH1 0x2 ADD PUSH1 0x40 MLOAD DUP1 DUP3 DUP1 SLOAD PUSH1 0x1 DUP2 PUSH1 0x1 AND ISZERO PUSH2 0x100 MUL SUB AND PUSH1 0x2 SWAP1 DIV DUP1 ISZERO PUSH2 0x362D JUMPI DUP1 PUSH1 0x1F LT PUSH2 0x360B JUMPI PUSH2 0x100 DUP1 DUP4 SLOAD DIV MUL DUP4 MSTORE SWAP2 DUP3 ADD SWAP2 PUSH2 0x362D JUMP JUMPDEST DUP3 ADD SWAP2 SWAP1 PUSH1 0x0 MSTORE PUSH1 0x20 PUSH1 0x0 KECCAK256 SWAP1 JUMPDEST DUP2 SLOAD DUP2 MSTORE SWAP1 PUSH1 0x1 ADD SWAP1 PUSH1 0x20 ADD DUP1 DUP4 GT PUSH2 0x3619 JUMPI JUMPDEST POP POP SWAP3 DUP4 MSTORE POP POP PUSH1 0x40 MLOAD SWAP1 DUP2 SWAP1 SUB PUSH1 0x20 ADD SWAP1 KECCAK256 SLOAD PUSH1 0xFF AND PUSH2 0x37CC JUMPI PUSH1 0x7 PUSH1 0x0 PUSH1 0x9 DUP5 PUSH4 0xFFFFFFFF AND DUP2 SLOAD DUP2 LT PUSH2 0x365F JUMPI INVALID JUMPDEST PUSH1 0x0 SWAP2 DUP3 MSTORE PUSH1 0x20 DUP1 DUP4 KECCAK256 PUSH1 0x6 SWAP1 SWAP3 MUL SWAP1 SWAP2 ADD SLOAD PUSH1 0x1 PUSH1 0x1 PUSH1 0xA0 SHL SUB AND DUP4 MSTORE DUP3 ADD SWAP3 SWAP1 SWAP3 MSTORE PUSH1 0x40 ADD SWAP1 KECCAK256 PUSH1 0x9 DUP1 SLOAD PUSH4 0xFFFFFFFF DUP6 AND SWAP1 DUP2 LT PUSH2 0x369C JUMPI INVALID JUMPDEST PUSH1 0x0 SWAP2 DUP3 MSTORE PUSH1 0x20 DUP1 DUP4 KECCAK256 DUP5 SLOAD PUSH1 0x1 DUP1 DUP3 ADD DUP8 SSTORE SWAP6 DUP6 MSTORE SWAP2 SWAP1 SWAP4 KECCAK256 PUSH1 0x6 SWAP3 SWAP1 SWAP3 MUL SWAP1 SWAP3 ADD PUSH1 0x2 SWAP1 DUP2 ADD DUP1 SLOAD PUSH2 0x36E4 SWAP6 SWAP4 SWAP1 SWAP5 ADD SWAP4 SWAP1 SWAP3 PUSH1 0x0 NOT SWAP1 DUP3 AND ISZERO PUSH2 0x100 MUL ADD AND DIV PUSH2 0x3C28 JUMP JUMPDEST POP PUSH1 0x1 PUSH1 0x8 PUSH1 0x0 PUSH1 0x9 DUP6 PUSH4 0xFFFFFFFF AND DUP2 SLOAD DUP2 LT PUSH2 0x36FE JUMPI INVALID JUMPDEST PUSH1 0x0 SWAP2 DUP3 MSTORE PUSH1 0x20 DUP1 DUP4 KECCAK256 PUSH1 0x6 SWAP1 SWAP3 MUL SWAP1 SWAP2 ADD SLOAD PUSH1 0x1 PUSH1 0x1 PUSH1 0xA0 SHL SUB AND DUP4 MSTORE DUP3 ADD SWAP3 SWAP1 SWAP3 MSTORE PUSH1 0x40 ADD SWAP1 KECCAK256 PUSH1 0x9 DUP1 SLOAD PUSH4 0xFFFFFFFF DUP7 AND SWAP1 DUP2 LT PUSH2 0x373B JUMPI INVALID JUMPDEST SWAP1 PUSH1 0x0 MSTORE PUSH1 0x20 PUSH1 0x0 KECCAK256 SWAP1 PUSH1 0x6 MUL ADD PUSH1 0x2 ADD PUSH1 0x40 MLOAD DUP1 DUP3 DUP1 SLOAD PUSH1 0x1 DUP2 PUSH1 0x1 AND ISZERO PUSH2 0x100 MUL SUB AND PUSH1 0x2 SWAP1 DIV DUP1 ISZERO PUSH2 0x37A7 JUMPI DUP1 PUSH1 0x1F LT PUSH2 0x3785 JUMPI PUSH2 0x100 DUP1 DUP4 SLOAD DIV MUL DUP4 MSTORE SWAP2 DUP3 ADD SWAP2 PUSH2 0x37A7 JUMP JUMPDEST DUP3 ADD SWAP2 SWAP1 PUSH1 0x0 MSTORE PUSH1 0x20 PUSH1 0x0 KECCAK256 SWAP1 JUMPDEST DUP2 SLOAD DUP2 MSTORE SWAP1 PUSH1 0x1 ADD SWAP1 PUSH1 0x20 ADD DUP1 DUP4 GT PUSH2 0x3793 JUMPI JUMPDEST POP POP SWAP3 DUP4 MSTORE POP POP PUSH1 0x40 MLOAD SWAP1 DUP2 SWAP1 SUB PUSH1 0x20 ADD SWAP1 KECCAK256 DUP1 SLOAD SWAP2 ISZERO ISZERO PUSH1 0xFF NOT SWAP1 SWAP3 AND SWAP2 SWAP1 SWAP2 OR SWAP1 SSTORE JUMPDEST PUSH1 0x1 PUSH1 0x9 DUP4 PUSH4 0xFFFFFFFF AND DUP2 SLOAD DUP2 LT PUSH2 0x37E1 JUMPI INVALID JUMPDEST PUSH1 0x0 SWAP2 DUP3 MSTORE PUSH1 0x20 SWAP1 SWAP2 KECCAK256 PUSH1 0x6 SWAP1 SWAP2 MUL ADD PUSH1 0x5 ADD DUP1 SLOAD PUSH1 0xFF NOT AND SWAP2 ISZERO ISZERO SWAP2 SWAP1 SWAP2 OR SWAP1 SSTORE POP POP JUMP JUMPDEST PUSH2 0x380F PUSH2 0x3BB5 JUMP JUMPDEST POP PUSH1 0x40 DUP1 MLOAD DUP1 DUP3 ADD SWAP1 SWAP2 MSTORE DUP2 MLOAD DUP2 MSTORE PUSH1 0x20 DUP3 DUP2 ADD SWAP1 DUP3 ADD MSTORE SWAP2 SWAP1 POP JUMP JUMPDEST PUSH1 0x0 DUP1 DUP3 PUSH1 0x0 ADD MLOAD PUSH2 0x3850 DUP6 PUSH1 0x0 ADD MLOAD DUP7 PUSH1 0x20 ADD MLOAD DUP7 PUSH1 0x0 ADD MLOAD DUP8 PUSH1 0x20 ADD MLOAD PUSH2 0x3913 JUMP JUMPDEST ADD SWAP1 POP JUMPDEST DUP4 MLOAD PUSH1 0x20 DUP6 ADD MLOAD ADD DUP2 GT PUSH2 0x3892 JUMPI DUP3 MLOAD PUSH1 0x20 DUP1 DUP7 ADD MLOAD DUP7 MLOAD SWAP2 DUP7 ADD MLOAD PUSH1 0x1 SWAP1 SWAP6 ADD SWAP5 PUSH2 0x388A SWAP3 SWAP2 DUP6 SUB SWAP1 SWAP2 SUB SWAP1 DUP5 SWAP1 DUP5 SWAP1 PUSH2 0x3913 JUMP JUMPDEST ADD SWAP1 POP PUSH2 0x3854 JUMP JUMPDEST POP SWAP3 SWAP2 POP POP JUMP JUMPDEST PUSH2 0x38A1 PUSH2 0x3BB5 JUMP JUMPDEST PUSH2 0x3892 DUP4 DUP4 DUP4 PUSH2 0x39D0 JUMP JUMPDEST PUSH1 0x60 DUP1 DUP3 PUSH1 0x0 ADD MLOAD PUSH8 0xFFFFFFFFFFFFFFFF DUP2 GT DUP1 ISZERO PUSH2 0x38CA JUMPI PUSH1 0x0 DUP1 REVERT JUMPDEST POP PUSH1 0x40 MLOAD SWAP1 DUP1 DUP3 MSTORE DUP1 PUSH1 0x1F ADD PUSH1 0x1F NOT AND PUSH1 0x20 ADD DUP3 ADD PUSH1 0x40 MSTORE DUP1 ISZERO PUSH2 0x38F5 JUMPI PUSH1 0x20 DUP3 ADD DUP2 DUP1 CALLDATASIZE DUP4 CALLDATACOPY ADD SWAP1 POP JUMPDEST POP SWAP1 POP PUSH1 0x0 PUSH1 0x20 DUP3 ADD SWAP1 POP PUSH2 0x3892 DUP2 DUP6 PUSH1 0x20 ADD MLOAD DUP7 PUSH1 0x0 ADD MLOAD PUSH2 0x3A41 JUMP JUMPDEST PUSH1 0x0 DUP4 DUP2 DUP7 DUP6 GT PUSH2 0x39C1 JUMPI PUSH1 0x20 DUP6 GT PUSH2 0x3986 JUMPI DUP4 MLOAD DUP3 MLOAD PUSH1 0x0 NOT PUSH1 0x8 PUSH1 0x20 DUP10 SWAP1 SUB MUL PUSH1 0x2 EXP ADD NOT SWAP2 DUP3 AND SWAP1 DUP9 DUP11 ADD DUP9 SWAP1 SUB SWAP1 DUP4 AND JUMPDEST DUP3 DUP2 EQ PUSH2 0x3978 JUMPI DUP2 DUP7 LT PUSH2 0x3966 JUMPI DUP11 DUP11 ADD SWAP7 POP POP POP POP POP POP POP PUSH2 0x39C8 JUMP JUMPDEST POP PUSH1 0x1 SWAP1 SWAP5 ADD DUP1 MLOAD SWAP1 SWAP5 SWAP1 DUP4 AND PUSH2 0x3948 JUMP JUMPDEST DUP6 SWAP7 POP POP POP POP POP POP POP PUSH2 0x39C8 JUMP JUMPDEST POP DUP4 DUP4 KECCAK256 PUSH1 0x0 SWAP1 JUMPDEST DUP6 DUP9 SUB DUP3 GT PUSH2 0x39BF JUMPI DUP6 DUP4 KECCAK256 DUP2 DUP2 EQ ISZERO PUSH2 0x39AE JUMPI DUP4 SWAP5 POP POP POP POP POP PUSH2 0x39C8 JUMP JUMPDEST POP PUSH1 0x1 SWAP3 DUP4 ADD SWAP3 SWAP2 SWAP1 SWAP2 ADD SWAP1 PUSH2 0x398E JUMP JUMPDEST POP JUMPDEST POP POP POP DUP3 DUP5 ADD JUMPDEST SWAP5 SWAP4 POP POP POP POP JUMP JUMPDEST PUSH2 0x39D8 PUSH2 0x3BB5 JUMP JUMPDEST PUSH1 0x0 PUSH2 0x39F6 DUP6 PUSH1 0x0 ADD MLOAD DUP7 PUSH1 0x20 ADD MLOAD DUP7 PUSH1 0x0 ADD MLOAD DUP8 PUSH1 0x20 ADD MLOAD PUSH2 0x3913 JUMP JUMPDEST PUSH1 0x20 DUP1 DUP8 ADD DUP1 MLOAD SWAP2 DUP7 ADD SWAP2 SWAP1 SWAP2 MSTORE DUP1 MLOAD DUP3 SUB DUP6 MSTORE DUP7 MLOAD SWAP1 MLOAD SWAP2 SWAP3 POP ADD DUP2 EQ ISZERO PUSH2 0x3A22 JUMPI PUSH1 0x0 DUP6 MSTORE PUSH2 0x3A38 JUMP JUMPDEST DUP4 MLOAD DUP4 MLOAD DUP7 MLOAD SWAP2 ADD SWAP1 SUB DUP6 MSTORE DUP4 MLOAD DUP2 ADD PUSH1 0x20 DUP7 ADD MSTORE JUMPDEST POP SWAP1 SWAP4 SWAP3 POP POP POP JUMP JUMPDEST JUMPDEST PUSH1 0x20 DUP2 LT PUSH2 0x3A61 JUMPI DUP2 MLOAD DUP4 MSTORE PUSH1 0x20 SWAP3 DUP4 ADD SWAP3 SWAP1 SWAP2 ADD SWAP1 PUSH1 0x1F NOT ADD PUSH2 0x3A42 JUMP JUMPDEST SWAP1 MLOAD DUP3 MLOAD PUSH1 0x20 SWAP3 SWAP1 SWAP3 SUB PUSH2 0x100 EXP PUSH1 0x0 NOT ADD DUP1 NOT SWAP1 SWAP2 AND SWAP2 AND OR SWAP1 MSTORE JUMP JUMPDEST DUP3 DUP1 SLOAD PUSH1 0x1 DUP2 PUSH1 0x1 AND ISZERO PUSH2 0x100 MUL SUB AND PUSH1 0x2 SWAP1 DIV SWAP1 PUSH1 0x0 MSTORE PUSH1 0x20 PUSH1 0x0 KECCAK256 SWAP1 PUSH1 0x1F ADD PUSH1 0x20 SWAP1 DIV DUP2 ADD SWAP3 DUP3 PUSH1 0x1F LT PUSH2 0x3AC0 JUMPI DUP3 DUP1 ADD PUSH1 0xFF NOT DUP3 CALLDATALOAD AND OR DUP6 SSTORE PUSH2 0x3AED JUMP JUMPDEST DUP3 DUP1 ADD PUSH1 0x1 ADD DUP6 SSTORE DUP3 ISZERO PUSH2 0x3AED JUMPI SWAP2 DUP3 ADD JUMPDEST DUP3 DUP2 GT ISZERO PUSH2 0x3AED JUMPI DUP3 CALLDATALOAD DUP3 SSTORE SWAP2 PUSH1 0x20 ADD SWAP2 SWAP1 PUSH1 0x1 ADD SWAP1 PUSH2 0x3AD2 JUMP JUMPDEST POP PUSH2 0x3AF9 SWAP3 SWAP2 POP PUSH2 0x3C9D JUMP JUMPDEST POP SWAP1 JUMP JUMPDEST DUP3 DUP1 SLOAD PUSH1 0x1 DUP2 PUSH1 0x1 AND ISZERO PUSH2 0x100 MUL SUB AND PUSH1 0x2 SWAP1 DIV SWAP1 PUSH1 0x0 MSTORE PUSH1 0x20 PUSH1 0x0 KECCAK256 SWAP1 PUSH1 0x1F ADD PUSH1 0x20 SWAP1 DIV DUP2 ADD SWAP3 DUP3 PUSH1 0x1F LT PUSH2 0x3B3E JUMPI DUP1 MLOAD PUSH1 0xFF NOT AND DUP4 DUP1 ADD OR DUP6 SSTORE PUSH2 0x3AED JUMP JUMPDEST DUP3 DUP1 ADD PUSH1 0x1 ADD DUP6 SSTORE DUP3 ISZERO PUSH2 0x3AED JUMPI SWAP2 DUP3 ADD JUMPDEST DUP3 DUP2 GT ISZERO PUSH2 0x3AED JUMPI DUP3 MLOAD DUP3 SSTORE SWAP2 PUSH1 0x20 ADD SWAP2 SWAP1 PUSH1 0x1 ADD SWAP1 PUSH2 0x3B50 JUMP JUMPDEST PUSH1 0x40 MLOAD DUP1 PUSH1 0xC0 ADD PUSH1 0x40 MSTORE DUP1 PUSH1 0x0 PUSH1 0x1 PUSH1 0x1 PUSH1 0xA0 SHL SUB AND DUP2 MSTORE PUSH1 0x20 ADD PUSH1 0x0 PUSH1 0x1 PUSH1 0x1 PUSH1 0xA0 SHL SUB AND DUP2 MSTORE PUSH1 0x20 ADD PUSH1 0x60 DUP2 MSTORE PUSH1 0x20 ADD PUSH1 0x60 DUP2 MSTORE PUSH1 0x20 ADD PUSH1 0x60 DUP2 MSTORE PUSH1 0x20 ADD PUSH1 0x0 ISZERO ISZERO DUP2 MSTORE POP SWAP1 JUMP JUMPDEST PUSH1 0x40 MLOAD DUP1 PUSH1 0x40 ADD PUSH1 0x40 MSTORE DUP1 PUSH1 0x0 DUP2 MSTORE PUSH1 0x20 ADD PUSH1 0x0 DUP2 MSTORE POP SWAP1 JUMP JUMPDEST DUP3 DUP1 SLOAD DUP3 DUP3 SSTORE SWAP1 PUSH1 0x0 MSTORE PUSH1 0x20 PUSH1 0x0 KECCAK256 SWAP1 DUP2 ADD SWAP3 DUP3 ISZERO PUSH2 0x3C1C JUMPI SWAP2 PUSH1 0x20 MUL DUP3 ADD JUMPDEST DUP3 DUP2 GT ISZERO PUSH2 0x3C1C JUMPI DUP3 MLOAD DUP1 MLOAD PUSH2 0x3C0C SWAP2 DUP5 SWAP2 PUSH1 0x20 SWAP1 SWAP2 ADD SWAP1 PUSH2 0x3AFD JUMP JUMPDEST POP SWAP2 PUSH1 0x20 ADD SWAP2 SWAP1 PUSH1 0x1 ADD SWAP1 PUSH2 0x3BEF JUMP JUMPDEST POP PUSH2 0x3AF9 SWAP3 SWAP2 POP PUSH2 0x3CB7 JUMP JUMPDEST DUP3 DUP1 SLOAD PUSH1 0x1 DUP2 PUSH1 0x1 AND ISZERO PUSH2 0x100 MUL SUB AND PUSH1 0x2 SWAP1 DIV SWAP1 PUSH1 0x0 MSTORE PUSH1 0x20 PUSH1 0x0 KECCAK256 SWAP1 PUSH1 0x1F ADD PUSH1 0x20 SWAP1 DIV DUP2 ADD SWAP3 DUP3 PUSH1 0x1F LT PUSH2 0x3C61 JUMPI DUP1 SLOAD DUP6 SSTORE PUSH2 0x3AED JUMP JUMPDEST DUP3 DUP1 ADD PUSH1 0x1 ADD DUP6 SSTORE DUP3 ISZERO PUSH2 0x3AED JUMPI PUSH1 0x0 MSTORE PUSH1 0x20 PUSH1 0x0 KECCAK256 SWAP2 PUSH1 0x1F ADD PUSH1 0x20 SWAP1 DIV DUP3 ADD JUMPDEST DUP3 DUP2 GT ISZERO PUSH2 0x3AED JUMPI DUP3 SLOAD DUP3 SSTORE SWAP2 PUSH1 0x1 ADD SWAP2 SWAP1 PUSH1 0x1 ADD SWAP1 PUSH2 0x3C82 JUMP JUMPDEST PUSH2 0x1E08 SWAP2 SWAP1 JUMPDEST DUP1 DUP3 GT ISZERO PUSH2 0x3AF9 JUMPI PUSH1 0x0 DUP2 SSTORE PUSH1 0x1 ADD PUSH2 0x3CA3 JUMP JUMPDEST PUSH2 0x1E08 SWAP2 SWAP1 JUMPDEST DUP1 DUP3 GT ISZERO PUSH2 0x3AF9 JUMPI PUSH1 0x0 PUSH2 0x3CD1 DUP3 DUP3 PUSH2 0x3CDA JUMP JUMPDEST POP PUSH1 0x1 ADD PUSH2 0x3CBD JUMP JUMPDEST POP DUP1 SLOAD PUSH1 0x1 DUP2 PUSH1 0x1 AND ISZERO PUSH2 0x100 MUL SUB AND PUSH1 0x2 SWAP1 DIV PUSH1 0x0 DUP3 SSTORE DUP1 PUSH1 0x1F LT PUSH2 0x3D00 JUMPI POP PUSH2 0x3D1E JUMP JUMPDEST PUSH1 0x1F ADD PUSH1 0x20 SWAP1 DIV SWAP1 PUSH1 0x0 MSTORE PUSH1 0x20 PUSH1 0x0 KECCAK256 SWAP1 DUP2 ADD SWAP1 PUSH2 0x3D1E SWAP2 SWAP1 PUSH2 0x3C9D JUMP JUMPDEST POP JUMP INVALID LOG2 PUSH5 0x6970667358 0x22 SLT KECCAK256 0x2D DUP11 COINBASE DUP1 0x49 NUMBER 0xA6 JUMPDEST 0x4A CHAINID CALLDATACOPY SWAP2 SWAP10 SELFDESTRUCT 0xB9 0xDA 0x5F 0xE2 0x26 SWAP10 0xE0 0xB1 0xD8 0xB7 PUSH13 0xFAB254A121A24A64736F6C6343 STOP MOD MOD STOP CALLER "},"gasEstimates":{"creation":{"codeDepositCost":"3140600","executionCost":"3467","totalCost":"3144067"},"external":{"MarkupsOwner(address,string)":"infinite","MarkupsSender(address,string)":"infinite","Storage(address,string)":"infinite","_markup(string,string)":"infinite","_newData(string)":"infinite","_receiveData(string,string,uint32)":"infinite","addDataMultipleToSend(address,string,string,uint32)":"infinite","addDataToSend(string,string,uint32)":"infinite","approveDataToReceive(uint32)":"infinite","approveDataToSend(uint32)":"infinite","approveMultipleToReceive(address,uint32)":"infinite","approveMultipleToSend(address,uint32)":"infinite","columnValue(address,string,string)":"infinite","dataSizeToReceive(uint32)":"2022","dataSizeToSend(uint32)":"2044","dataSource(uint256)":"2060","descriptionLength(address)":"1196","descriptionsBySource(address,uint256)":"infinite","fetchValue(address,string,string)":"infinite","hasWritten(address)":"1246","isEntity()":"315","isSingle()":"1076","keyValueOfDataToReceive(uint32,uint32)":"infinite","keyValueOfDataToSend(uint32,uint32)":"infinite","keysOfData(address,string)":"infinite","markup(address,string,string)":"infinite","markupSelf(address,string,string)":"infinite","newDataMultipleToSend(address,address,string,string,string,bool)":"infinite","newDataToSend(address,string,string,string,bool)":"infinite","pendingDataToReceive(uint256)":"infinite","pendingDataToReceiveCount()":"1075","pendingDataToSend(uint256)":"infinite","pendingDataToSendCount()":"1074","recentSendingIndex(address)":"1228","sourceLength()":"1142","writtenDescription(address,string)":"infinite"},"internal":{"_approveDataToReceive(uint32)":"infinite"}},"methodIdentifiers":{"MarkupsOwner(address,string)":"24f416d6","MarkupsSender(address,string)":"6b31c5f1","Storage(address,string)":"17361084","_markup(string,string)":"847b5257","_newData(string)":"c09bc35b","_receiveData(string,string,uint32)":"928ec3e5","addDataMultipleToSend(address,string,string,uint32)":"f10f731c","addDataToSend(string,string,uint32)":"fc2a8efa","approveDataToReceive(uint32)":"4f2bcbef","approveDataToSend(uint32)":"838ebd85","approveMultipleToReceive(address,uint32)":"8e636514","approveMultipleToSend(address,uint32)":"e29e9290","columnValue(address,string,string)":"8cba76b1","dataSizeToReceive(uint32)":"834fde34","dataSizeToSend(uint32)":"a1a298da","dataSource(uint256)":"3296e5ca","descriptionLength(address)":"cf6ae528","descriptionsBySource(address,uint256)":"359589ac","fetchValue(address,string,string)":"30699892","hasWritten(address)":"f396b51f","isEntity()":"84aeb694","isSingle()":"e9dff3b4","keyValueOfDataToReceive(uint32,uint32)":"e24e7912","keyValueOfDataToSend(uint32,uint32)":"0f121925","keysOfData(address,string)":"08ac733a","markup(address,string,string)":"6eecac58","markupSelf(address,string,string)":"88a6712f","newDataMultipleToSend(address,address,string,string,string,bool)":"2a4541d4","newDataToSend(address,string,string,string,bool)":"8c162152","pendingDataToReceive(uint256)":"9169b323","pendingDataToReceiveCount()":"4f51433d","pendingDataToSend(uint256)":"a63de8cf","pendingDataToSendCount()":"d027a93e","recentSendingIndex(address)":"db406597","sourceLength()":"4d981cf7","writtenDescription(address,string)":"a7ed5603"}},"storageLayout":{"storage":[{"astId":46,"contract":"Entity.sol:Entity","label":"isSingle","offset":0,"slot":"0","type":"t_bool"},{"astId":50,"contract":"Entity.sol:Entity","label":"recentSendingIndex","offset":0,"slot":"1","type":"t_mapping(t_address,t_uint32)"},{"astId":56,"contract":"Entity.sol:Entity","label":"Storage","offset":0,"slot":"2","type":"t_mapping(t_address,t_mapping(t_string_memory_ptr,t_struct(storingData)16_storage))"},{"astId":62,"contract":"Entity.sol:Entity","label":"MarkupsOwner","offset":0,"slot":"3","type":"t_mapping(t_address,t_mapping(t_string_memory_ptr,t_string_storage))"},{"astId":68,"contract":"Entity.sol:Entity","label":"MarkupsSender","offset":0,"slot":"4","type":"t_mapping(t_address,t_mapping(t_string_memory_ptr,t_string_storage))"},{"astId":71,"contract":"Entity.sol:Entity","label":"dataSource","offset":0,"slot":"5","type":"t_array(t_address)dyn_storage"},{"astId":75,"contract":"Entity.sol:Entity","label":"hasWritten","offset":0,"slot":"6","type":"t_mapping(t_address,t_bool)"},{"astId":80,"contract":"Entity.sol:Entity","label":"descriptionsBySource","offset":0,"slot":"7","type":"t_mapping(t_address,t_array(t_string_storage)dyn_storage)"},{"astId":86,"contract":"Entity.sol:Entity","label":"writtenDescription","offset":0,"slot":"8","type":"t_mapping(t_address,t_mapping(t_string_memory_ptr,t_bool))"},{"astId":89,"contract":"Entity.sol:Entity","label":"pendingDataToReceive","offset":0,"slot":"9","type":"t_array(t_struct(pendingData)31_storage)dyn_storage"},{"astId":93,"contract":"Entity.sol:Entity","label":"toReceiveIsConfirmed","offset":0,"slot":"10","type":"t_mapping(t_uint32,t_bool)"},{"astId":96,"contract":"Entity.sol:Entity","label":"pendingDataToSend","offset":0,"slot":"11","type":"t_array(t_struct(pendingData)31_storage)dyn_storage"}],"types":{"t_address":{"encoding":"inplace","label":"address","numberOfBytes":"20"},"t_array(t_address)dyn_storage":{"base":"t_address","encoding":"dynamic_array","label":"address[]","numberOfBytes":"32"},"t_array(t_string_storage)dyn_storage":{"base":"t_string_storage","encoding":"dynamic_array","label":"string[]","numberOfBytes":"32"},"t_array(t_struct(pendingData)31_storage)dyn_storage":{"base":"t_struct(pendingData)31_storage","encoding":"dynamic_array","label":"struct Entity.pendingData[]","numberOfBytes":"32"},"t_bool":{"encoding":"inplace","label":"bool","numberOfBytes":"1"},"t_mapping(t_address,t_array(t_string_storage)dyn_storage)":{"encoding":"mapping","key":"t_address","label":"mapping(address => string[])","numberOfBytes":"32","value":"t_array(t_string_storage)dyn_storage"},"t_mapping(t_address,t_bool)":{"encoding":"mapping","key":"t_address","label":"mapping(address => bool)","numberOfBytes":"32","value":"t_bool"},"t_mapping(t_address,t_mapping(t_string_memory_ptr,t_bool))":{"encoding":"mapping","key":"t_address","label":"mapping(address => mapping(string => bool))","numberOfBytes":"32","value":"t_mapping(t_string_memory_ptr,t_bool)"},"t_mapping(t_address,t_mapping(t_string_memory_ptr,t_string_storage))":{"encoding":"mapping","key":"t_address","label":"mapping(address => mapping(string => string))","numberOfBytes":"32","value":"t_mapping(t_string_memory_ptr,t_string_storage)"},"t_mapping(t_address,t_mapping(t_string_memory_ptr,t_struct(storingData)16_storage))":{"encoding":"mapping","key":"t_address","label":"mapping(address => mapping(string => struct Entity.storingData))","numberOfBytes":"32","value":"t_mapping(t_string_memory_ptr,t_struct(storingData)16_storage)"},"t_mapping(t_address,t_uint32)":{"encoding":"mapping","key":"t_address","label":"mapping(address => uint32)","numberOfBytes":"32","value":"t_uint32"},"t_mapping(t_string_memory_ptr,t_bool)":{"encoding":"mapping","key":"t_string_memory_ptr","label":"mapping(string => bool)","numberOfBytes":"32","value":"t_bool"},"t_mapping(t_string_memory_ptr,t_string_storage)":{"encoding":"mapping","key":"t_string_memory_ptr","label":"mapping(string => string)","numberOfBytes":"32","value":"t_string_storage"},"t_mapping(t_string_memory_ptr,t_struct(storingData)16_storage)":{"encoding":"mapping","key":"t_string_memory_ptr","label":"mapping(string => struct Entity.storingData)","numberOfBytes":"32","value":"t_struct(storingData)16_storage"},"t_mapping(t_uint32,t_bool)":{"encoding":"mapping","key":"t_uint32","label":"mapping(uint32 => bool)","numberOfBytes":"32","value":"t_bool"},"t_string_memory_ptr":{"encoding":"bytes","label":"string","numberOfBytes":"32"},"t_string_storage":{"encoding":"bytes","label":"string","numberOfBytes":"32"},"t_struct(pendingData)31_storage":{"encoding":"inplace","label":"struct Entity.pendingData","members":[{"astId":18,"contract":"Entity.sol:Entity","label":"source","offset":0,"slot":"0","type":"t_address"},{"astId":20,"contract":"Entity.sol:Entity","label":"destination","offset":0,"slot":"1","type":"t_address"},{"astId":22,"contract":"Entity.sol:Entity","label":"description","offset":0,"slot":"2","type":"t_string_storage"},{"astId":25,"contract":"Entity.sol:Entity","label":"key","offset":0,"slot":"3","type":"t_array(t_string_storage)dyn_storage"},{"astId":28,"contract":"Entity.sol:Entity","label":"value","offset":0,"slot":"4","type":"t_array(t_string_storage)dyn_storage"},{"astId":30,"contract":"Entity.sol:Entity","label":"approved","offset":0,"slot":"5","type":"t_bool"}],"numberOfBytes":"192"},"t_struct(storingData)16_storage":{"encoding":"inplace","label":"struct Entity.storingData","members":[{"astId":9,"contract":"Entity.sol:Entity","label":"column","offset":0,"slot":"0","type":"t_mapping(t_string_memory_ptr,t_string_storage)"},{"astId":13,"contract":"Entity.sol:Entity","label":"keyExistence","offset":0,"slot":"1","type":"t_mapping(t_string_memory_ptr,t_bool)"},{"astId":15,"contract":"Entity.sol:Entity","label":"keys","offset":0,"slot":"2","type":"t_string_storage"}],"numberOfBytes":"96"},"t_uint32":{"encoding":"inplace","label":"uint32","numberOfBytes":"4"}}},"userdoc":{"methods":{}}}