{"abi":[{"inputs":[{"internalType":"address","name":"","type":"address"},{"internalType":"string","name":"","type":"string"}],"name":"Storage","outputs":[{"internalType":"string","name":"keys","type":"string"}],"stateMutability":"view","type":"function"},{"inputs":[{"internalType":"string","name":"_description","type":"string"}],"name":"_newData","outputs":[{"internalType":"uint32","name":"","type":"uint32"}],"stateMutability":"nonpayable","type":"function"},{"inputs":[{"internalType":"string","name":"_key","type":"string"},{"internalType":"string","name":"_value","type":"string"},{"internalType":"uint32","name":"index","type":"uint32"}],"name":"_receiveData","outputs":[],"stateMutability":"nonpayable","type":"function"},{"inputs":[{"internalType":"address","name":"multipleEntity","type":"address"},{"internalType":"string","name":"_key","type":"string"},{"internalType":"string","name":"_value","type":"string"},{"internalType":"uint32","name":"index","type":"uint32"}],"name":"addDataMultipleToSend","outputs":[],"stateMutability":"nonpayable","type":"function"},{"inputs":[{"internalType":"string","name":"_key","type":"string"},{"internalType":"string","name":"_value","type":"string"},{"internalType":"uint32","name":"index","type":"uint32"}],"name":"addDataToSend","outputs":[],"stateMutability":"nonpayable","type":"function"},{"inputs":[{"internalType":"uint32","name":"index","type":"uint32"}],"name":"approveDataToReceive","outputs":[],"stateMutability":"nonpayable","type":"function"},{"inputs":[{"internalType":"uint32","name":"index","type":"uint32"}],"name":"approveDataToSend","outputs":[],"stateMutability":"nonpayable","type":"function"},{"inputs":[{"internalType":"address","name":"multipleEntity","type":"address"},{"internalType":"uint32","name":"index","type":"uint32"}],"name":"approveMultipleToReceive","outputs":[],"stateMutability":"nonpayable","type":"function"},{"inputs":[{"internalType":"address","name":"multipleEntity","type":"address"},{"internalType":"uint32","name":"index","type":"uint32"}],"name":"approveMultipleToSend","outputs":[],"stateMutability":"nonpayable","type":"function"},{"inputs":[{"internalType":"address","name":"_address","type":"address"},{"internalType":"string","name":"_description","type":"string"},{"internalType":"string","name":"_key","type":"string"}],"name":"columnValue","outputs":[{"internalType":"string","name":"","type":"string"}],"stateMutability":"view","type":"function"},{"inputs":[{"internalType":"uint32","name":"index","type":"uint32"}],"name":"dataSizeToReceive","outputs":[{"internalType":"uint32","name":"","type":"uint32"}],"stateMutability":"view","type":"function"},{"inputs":[{"internalType":"uint32","name":"index","type":"uint32"}],"name":"dataSizeToSend","outputs":[{"internalType":"uint32","name":"","type":"uint32"}],"stateMutability":"view","type":"function"},{"inputs":[{"internalType":"uint256","name":"","type":"uint256"}],"name":"dataSource","outputs":[{"internalType":"address","name":"","type":"address"}],"stateMutability":"view","type":"function"},{"inputs":[{"internalType":"address","name":"source","type":"address"}],"name":"descriptionLength","outputs":[{"internalType":"uint32","name":"","type":"uint32"}],"stateMutability":"view","type":"function"},{"inputs":[{"internalType":"address","name":"","type":"address"},{"internalType":"uint256","name":"","type":"uint256"}],"name":"descriptionsBySource","outputs":[{"internalType":"string","name":"","type":"string"}],"stateMutability":"view","type":"function"},{"inputs":[{"internalType":"address","name":"src","type":"address"},{"internalType":"string","name":"des","type":"string"},{"internalType":"string","name":"key","type":"string"}],"name":"fetchValue","outputs":[{"internalType":"string","name":"","type":"string"}],"stateMutability":"view","type":"function"},{"inputs":[{"internalType":"address","name":"","type":"address"}],"name":"hasWritten","outputs":[{"internalType":"bool","name":"","type":"bool"}],"stateMutability":"view","type":"function"},{"inputs":[],"name":"isEntity","outputs":[{"internalType":"bool","name":"","type":"bool"}],"stateMutability":"view","type":"function"},{"inputs":[],"name":"isSingle","outputs":[{"internalType":"bool","name":"","type":"bool"}],"stateMutability":"view","type":"function"},{"inputs":[{"internalType":"uint32","name":"index","type":"uint32"},{"internalType":"uint32","name":"keyIndex","type":"uint32"}],"name":"keyValueOfDataToReceive","outputs":[{"internalType":"string","name":"","type":"string"},{"internalType":"string","name":"","type":"string"}],"stateMutability":"view","type":"function"},{"inputs":[{"internalType":"uint32","name":"index","type":"uint32"},{"internalType":"uint32","name":"keyIndex","type":"uint32"}],"name":"keyValueOfDataToSend","outputs":[{"internalType":"string","name":"","type":"string"},{"internalType":"string","name":"","type":"string"}],"stateMutability":"view","type":"function"},{"inputs":[{"internalType":"address","name":"src","type":"address"},{"internalType":"string","name":"des","type":"string"}],"name":"keysOfData","outputs":[{"internalType":"string","name":"","type":"string"}],"stateMutability":"view","type":"function"},{"inputs":[{"internalType":"address","name":"multipleEntity","type":"address"},{"internalType":"address","name":"_receiver","type":"address"},{"internalType":"string","name":"_description","type":"string"},{"internalType":"string","name":"_key","type":"string"},{"internalType":"string","name":"_value","type":"string"},{"internalType":"bool","name":"direct","type":"bool"}],"name":"newDataMultipleToSend","outputs":[{"internalType":"uint32","name":"","type":"uint32"}],"stateMutability":"nonpayable","type":"function"},{"inputs":[{"internalType":"address","name":"_receiver","type":"address"},{"internalType":"string","name":"_description","type":"string"},{"internalType":"string","name":"_key","type":"string"},{"internalType":"string","name":"_value","type":"string"},{"internalType":"bool","name":"direct","type":"bool"}],"name":"newDataToSend","outputs":[],"stateMutability":"nonpayable","type":"function"},{"inputs":[{"internalType":"uint256","name":"","type":"uint256"}],"name":"pendingDataToReceive","outputs":[{"internalType":"address","name":"source","type":"address"},{"internalType":"address","name":"destination","type":"address"},{"internalType":"string","name":"description","type":"string"},{"internalType":"bool","name":"approved","type":"bool"}],"stateMutability":"view","type":"function"},{"inputs":[],"name":"pendingDataToReceiveCount","outputs":[{"internalType":"uint32","name":"","type":"uint32"}],"stateMutability":"view","type":"function"},{"inputs":[{"internalType":"uint256","name":"","type":"uint256"}],"name":"pendingDataToSend","outputs":[{"internalType":"address","name":"source","type":"address"},{"internalType":"address","name":"destination","type":"address"},{"internalType":"string","name":"description","type":"string"},{"internalType":"bool","name":"approved","type":"bool"}],"stateMutability":"view","type":"function"},{"inputs":[],"name":"pendingDataToSendCount","outputs":[{"internalType":"uint32","name":"","type":"uint32"}],"stateMutability":"view","type":"function"},{"inputs":[{"internalType":"address","name":"","type":"address"}],"name":"recentSendingIndex","outputs":[{"internalType":"uint32","name":"","type":"uint32"}],"stateMutability":"view","type":"function"},{"inputs":[],"name":"sourceLength","outputs":[{"internalType":"uint32","name":"","type":"uint32"}],"stateMutability":"view","type":"function"},{"inputs":[{"internalType":"address","name":"","type":"address"},{"internalType":"string","name":"","type":"string"}],"name":"writtenDescription","outputs":[{"internalType":"bool","name":"","type":"bool"}],"stateMutability":"view","type":"function"}],"devdoc":{"methods":{}},"evm":{"assembly":"    /* \"Entity.sol\":69:9918  contract Entity {\r... */\n  mstore(0x40, 0x80)\n  callvalue\n    /* \"--CODEGEN--\":5:14   */\n  dup1\n    /* \"--CODEGEN--\":2:4   */\n  iszero\n  tag_1\n  jumpi\n    /* \"--CODEGEN--\":27:28   */\n  0x00\n    /* \"--CODEGEN--\":24:25   */\n  dup1\n    /* \"--CODEGEN--\":17:29   */\n  revert\n    /* \"--CODEGEN--\":2:4   */\ntag_1:\n    /* \"Entity.sol\":69:9918  contract Entity {\r... */\n  pop\n  dataSize(sub_0)\n  dup1\n  dataOffset(sub_0)\n  0x00\n  codecopy\n  0x00\n  return\nstop\n\nsub_0: assembly {\n        /* \"Entity.sol\":69:9918  contract Entity {\r... */\n      mstore(0x40, 0x80)\n      callvalue\n        /* \"--CODEGEN--\":5:14   */\n      dup1\n        /* \"--CODEGEN--\":2:4   */\n      iszero\n      tag_1\n      jumpi\n        /* \"--CODEGEN--\":27:28   */\n      0x00\n        /* \"--CODEGEN--\":24:25   */\n      dup1\n        /* \"--CODEGEN--\":17:29   */\n      revert\n        /* \"--CODEGEN--\":2:4   */\n    tag_1:\n        /* \"Entity.sol\":69:9918  contract Entity {\r... */\n      pop\n      jumpi(tag_2, lt(calldatasize, 0x04))\n      shr(0xe0, calldataload(0x00))\n      dup1\n      0x8e636514\n      gt\n      tag_34\n      jumpi\n      dup1\n      0xd027a93e\n      gt\n      tag_35\n      jumpi\n      dup1\n      0xe9dff3b4\n      gt\n      tag_36\n      jumpi\n      dup1\n      0xe9dff3b4\n      eq\n      tag_30\n      jumpi\n      dup1\n      0xf10f731c\n      eq\n      tag_31\n      jumpi\n      dup1\n      0xf396b51f\n      eq\n      tag_32\n      jumpi\n      dup1\n      0xfc2a8efa\n      eq\n      tag_33\n      jumpi\n      jump(tag_2)\n    tag_36:\n      dup1\n      0xd027a93e\n      eq\n      tag_26\n      jumpi\n      dup1\n      0xdb406597\n      eq\n      tag_27\n      jumpi\n      dup1\n      0xe24e7912\n      eq\n      tag_28\n      jumpi\n      dup1\n      0xe29e9290\n      eq\n      tag_29\n      jumpi\n      jump(tag_2)\n    tag_35:\n      dup1\n      0xa63de8cf\n      gt\n      tag_37\n      jumpi\n      dup1\n      0xa63de8cf\n      eq\n      tag_22\n      jumpi\n      dup1\n      0xa7ed5603\n      eq\n      tag_23\n      jumpi\n      dup1\n      0xc09bc35b\n      eq\n      tag_24\n      jumpi\n      dup1\n      0xcf6ae528\n      eq\n      tag_25\n      jumpi\n      jump(tag_2)\n    tag_37:\n      dup1\n      0x8e636514\n      eq\n      tag_18\n      jumpi\n      dup1\n      0x9169b323\n      eq\n      tag_19\n      jumpi\n      dup1\n      0x928ec3e5\n      eq\n      tag_20\n      jumpi\n      dup1\n      0xa1a298da\n      eq\n      tag_21\n      jumpi\n      jump(tag_2)\n    tag_34:\n      dup1\n      0x4d981cf7\n      gt\n      tag_38\n      jumpi\n      dup1\n      0x838ebd85\n      gt\n      tag_39\n      jumpi\n      dup1\n      0x838ebd85\n      eq\n      tag_14\n      jumpi\n      dup1\n      0x84aeb694\n      eq\n      tag_15\n      jumpi\n      dup1\n      0x8c162152\n      eq\n      tag_16\n      jumpi\n      dup1\n      0x8cba76b1\n      eq\n      tag_7\n      jumpi\n      jump(tag_2)\n    tag_39:\n      dup1\n      0x4d981cf7\n      eq\n      tag_10\n      jumpi\n      dup1\n      0x4f2bcbef\n      eq\n      tag_11\n      jumpi\n      dup1\n      0x4f51433d\n      eq\n      tag_12\n      jumpi\n      dup1\n      0x834fde34\n      eq\n      tag_13\n      jumpi\n      jump(tag_2)\n    tag_38:\n      dup1\n      0x2a4541d4\n      gt\n      tag_40\n      jumpi\n      dup1\n      0x2a4541d4\n      eq\n      tag_6\n      jumpi\n      dup1\n      0x30699892\n      eq\n      tag_7\n      jumpi\n      dup1\n      0x3296e5ca\n      eq\n      tag_8\n      jumpi\n      dup1\n      0x359589ac\n      eq\n      tag_9\n      jumpi\n      jump(tag_2)\n    tag_40:\n      dup1\n      0x08ac733a\n      eq\n      tag_3\n      jumpi\n      dup1\n      0x0f121925\n      eq\n      tag_4\n      jumpi\n      dup1\n      0x17361084\n      eq\n      tag_5\n      jumpi\n    tag_2:\n        /* \"--CODEGEN--\":12:13   */\n      0x00\n        /* \"--CODEGEN--\":9:10   */\n      dup1\n        /* \"--CODEGEN--\":2:14   */\n      revert\n        /* \"Entity.sol\":9547:9714  function keysOfData(address src, string memory des)\r... */\n    tag_3:\n      tag_41\n      0x04\n      dup1\n      calldatasize\n      sub\n        /* \"--CODEGEN--\":15:17   */\n      0x40\n        /* \"--CODEGEN--\":10:13   */\n      dup2\n        /* \"--CODEGEN--\":7:18   */\n      lt\n        /* \"--CODEGEN--\":4:6   */\n      iszero\n      tag_42\n      jumpi\n        /* \"--CODEGEN--\":31:32   */\n      0x00\n        /* \"--CODEGEN--\":28:29   */\n      dup1\n        /* \"--CODEGEN--\":21:33   */\n      revert\n        /* \"--CODEGEN--\":4:6   */\n    tag_42:\n      sub(shl(0xa0, 0x01), 0x01)\n        /* \"Entity.sol\":9547:9714  function keysOfData(address src, string memory des)\r... */\n      dup3\n      calldataload\n      and\n      swap2\n      swap1\n      dup2\n      add\n      swap1\n      0x40\n      dup2\n      add\n      0x20\n      dup3\n      add\n      calldataload\n      shl(0x20, 0x01)\n        /* \"--CODEGEN--\":11:39   */\n      dup2\n      gt\n        /* \"--CODEGEN--\":8:10   */\n      iszero\n      tag_43\n      jumpi\n        /* \"--CODEGEN--\":52:53   */\n      0x00\n        /* \"--CODEGEN--\":49:50   */\n      dup1\n        /* \"--CODEGEN--\":42:54   */\n      revert\n        /* \"--CODEGEN--\":8:10   */\n    tag_43:\n        /* \"Entity.sol\":9547:9714  function keysOfData(address src, string memory des)\r... */\n      dup3\n      add\n        /* \"--CODEGEN--\":41:50   */\n      dup4\n        /* \"--CODEGEN--\":34:38   */\n      0x20\n        /* \"--CODEGEN--\":18:32   */\n      dup3\n        /* \"--CODEGEN--\":14:39   */\n      add\n        /* \"--CODEGEN--\":11:51   */\n      gt\n        /* \"--CODEGEN--\":8:10   */\n      iszero\n      tag_44\n      jumpi\n        /* \"--CODEGEN--\":64:65   */\n      0x00\n        /* \"--CODEGEN--\":61:62   */\n      dup1\n        /* \"--CODEGEN--\":54:66   */\n      revert\n        /* \"--CODEGEN--\":8:10   */\n    tag_44:\n        /* \"Entity.sol\":9547:9714  function keysOfData(address src, string memory des)\r... */\n      dup1\n      calldataload\n      swap1\n      0x20\n      add\n      swap2\n        /* \"--CODEGEN--\":100:109   */\n      dup5\n        /* \"--CODEGEN--\":95:96   */\n      0x01\n        /* \"--CODEGEN--\":81:93   */\n      dup4\n        /* \"--CODEGEN--\":77:97   */\n      mul\n        /* \"--CODEGEN--\":67:75   */\n      dup5\n        /* \"--CODEGEN--\":63:98   */\n      add\n        /* \"--CODEGEN--\":60:110   */\n      gt\n      shl(0x20, 0x01)\n        /* \"--CODEGEN--\":25:37   */\n      dup4\n        /* \"--CODEGEN--\":22:51   */\n      gt\n        /* \"--CODEGEN--\":11:118   */\n      or\n        /* \"--CODEGEN--\":8:10   */\n      iszero\n      tag_45\n      jumpi\n        /* \"--CODEGEN--\":131:132   */\n      0x00\n        /* \"--CODEGEN--\":128:129   */\n      dup1\n        /* \"--CODEGEN--\":121:133   */\n      revert\n        /* \"--CODEGEN--\":8:10   */\n    tag_45:\n        /* \"Entity.sol\":9547:9714  function keysOfData(address src, string memory des)\r... */\n      swap2\n      swap1\n      dup1\n      dup1\n      0x1f\n      add\n      0x20\n      dup1\n      swap2\n      div\n      mul\n      0x20\n      add\n      mload(0x40)\n      swap1\n      dup2\n      add\n      0x40\n      mstore\n      dup1\n      swap4\n      swap3\n      swap2\n      swap1\n      dup2\n      dup2\n      mstore\n      0x20\n      add\n      dup4\n      dup4\n        /* \"--CODEGEN--\":30:33   */\n      dup1\n        /* \"--CODEGEN--\":22:28   */\n      dup3\n        /* \"--CODEGEN--\":14:20   */\n      dup5\n        /* \"--CODEGEN--\":1:34   */\n      calldatacopy\n        /* \"--CODEGEN--\":99:100   */\n      0x00\n        /* \"--CODEGEN--\":81:97   */\n      swap3\n      add\n        /* \"--CODEGEN--\":74:101   */\n      swap2\n      swap1\n      swap2\n      mstore\n      pop\n        /* \"Entity.sol\":9547:9714  function keysOfData(address src, string memory des)\r... */\n      swap3\n      swap6\n      pop\n      tag_46\n      swap5\n      pop\n      pop\n      pop\n      pop\n      pop\n      jump\t// in\n    tag_41:\n      0x40\n      dup1\n      mload\n      0x20\n      dup1\n      dup3\n      mstore\n      dup4\n      mload\n      dup2\n      dup4\n      add\n      mstore\n      dup4\n      mload\n      swap2\n      swap3\n      dup4\n      swap3\n      swap1\n      dup4\n      add\n      swap2\n      dup6\n      add\n      swap1\n      dup1\n      dup4\n      dup4\n      0x00\n        /* \"--CODEGEN--\":8:108   */\n    tag_47:\n        /* \"--CODEGEN--\":33:36   */\n      dup4\n        /* \"--CODEGEN--\":30:31   */\n      dup2\n        /* \"--CODEGEN--\":27:37   */\n      lt\n        /* \"--CODEGEN--\":8:108   */\n      iszero\n      tag_49\n      jumpi\n        /* \"--CODEGEN--\":90:101   */\n      dup2\n      dup2\n      add\n        /* \"--CODEGEN--\":84:102   */\n      mload\n        /* \"--CODEGEN--\":71:82   */\n      dup4\n      dup3\n      add\n        /* \"--CODEGEN--\":64:103   */\n      mstore\n        /* \"--CODEGEN--\":52:54   */\n      0x20\n        /* \"--CODEGEN--\":45:55   */\n      add\n        /* \"--CODEGEN--\":8:108   */\n      jump(tag_47)\n    tag_49:\n        /* \"--CODEGEN--\":12:26   */\n      pop\n        /* \"Entity.sol\":9547:9714  function keysOfData(address src, string memory des)\r... */\n      pop\n      pop\n      pop\n      swap1\n      pop\n      swap1\n      dup2\n      add\n      swap1\n      0x1f\n      and\n      dup1\n      iszero\n      tag_50\n      jumpi\n      dup1\n      dup3\n      sub\n      dup1\n      mload\n      0x01\n      dup4\n      0x20\n      sub\n      0x0100\n      exp\n      sub\n      not\n      and\n      dup2\n      mstore\n      0x20\n      add\n      swap2\n      pop\n    tag_50:\n      pop\n      swap3\n      pop\n      pop\n      pop\n      mload(0x40)\n      dup1\n      swap2\n      sub\n      swap1\n      return\n        /* \"Entity.sol\":8697:8953  function keyValueOfDataToSend(uint32 index, uint32 keyIndex) \r... */\n    tag_4:\n      tag_51\n      0x04\n      dup1\n      calldatasize\n      sub\n        /* \"--CODEGEN--\":15:17   */\n      0x40\n        /* \"--CODEGEN--\":10:13   */\n      dup2\n        /* \"--CODEGEN--\":7:18   */\n      lt\n        /* \"--CODEGEN--\":4:6   */\n      iszero\n      tag_52\n      jumpi\n        /* \"--CODEGEN--\":31:32   */\n      0x00\n        /* \"--CODEGEN--\":28:29   */\n      dup1\n        /* \"--CODEGEN--\":21:33   */\n      revert\n        /* \"--CODEGEN--\":4:6   */\n    tag_52:\n      pop\n        /* \"Entity.sol\":8697:8953  function keyValueOfDataToSend(uint32 index, uint32 keyIndex) \r... */\n      0xffffffff\n      dup2\n      calldataload\n      dup2\n      and\n      swap2\n      0x20\n      add\n      calldataload\n      and\n      tag_53\n      jump\t// in\n    tag_51:\n      mload(0x40)\n      dup1\n      dup1\n      0x20\n      add\n      dup1\n      0x20\n      add\n      dup4\n      dup2\n      sub\n      dup4\n      mstore\n      dup6\n      dup2\n      dup2\n      mload\n      dup2\n      mstore\n      0x20\n      add\n      swap2\n      pop\n      dup1\n      mload\n      swap1\n      0x20\n      add\n      swap1\n      dup1\n      dup4\n      dup4\n        /* \"--CODEGEN--\":23:24   */\n      0x00\n        /* \"--CODEGEN--\":8:108   */\n    tag_54:\n        /* \"--CODEGEN--\":33:36   */\n      dup4\n        /* \"--CODEGEN--\":30:31   */\n      dup2\n        /* \"--CODEGEN--\":27:37   */\n      lt\n        /* \"--CODEGEN--\":8:108   */\n      iszero\n      tag_56\n      jumpi\n        /* \"--CODEGEN--\":90:101   */\n      dup2\n      dup2\n      add\n        /* \"--CODEGEN--\":84:102   */\n      mload\n        /* \"--CODEGEN--\":71:82   */\n      dup4\n      dup3\n      add\n        /* \"--CODEGEN--\":64:103   */\n      mstore\n        /* \"--CODEGEN--\":52:54   */\n      0x20\n        /* \"--CODEGEN--\":45:55   */\n      add\n        /* \"--CODEGEN--\":8:108   */\n      jump(tag_54)\n    tag_56:\n        /* \"--CODEGEN--\":12:26   */\n      pop\n        /* \"Entity.sol\":8697:8953  function keyValueOfDataToSend(uint32 index, uint32 keyIndex) \r... */\n      pop\n      pop\n      pop\n      swap1\n      pop\n      swap1\n      dup2\n      add\n      swap1\n      0x1f\n      and\n      dup1\n      iszero\n      tag_57\n      jumpi\n      dup1\n      dup3\n      sub\n      dup1\n      mload\n      0x01\n      dup4\n      0x20\n      sub\n      0x0100\n      exp\n      sub\n      not\n      and\n      dup2\n      mstore\n      0x20\n      add\n      swap2\n      pop\n    tag_57:\n      pop\n      dup4\n      dup2\n      sub\n      dup3\n      mstore\n      dup5\n      mload\n      dup2\n      mstore\n      dup5\n      mload\n      0x20\n      swap2\n      dup3\n      add\n      swap2\n      dup7\n      add\n      swap1\n      dup1\n      dup4\n      dup4\n        /* \"--CODEGEN--\":23:24   */\n      0x00\n        /* \"--CODEGEN--\":8:108   */\n    tag_58:\n        /* \"--CODEGEN--\":33:36   */\n      dup4\n        /* \"--CODEGEN--\":30:31   */\n      dup2\n        /* \"--CODEGEN--\":27:37   */\n      lt\n        /* \"--CODEGEN--\":8:108   */\n      iszero\n      tag_60\n      jumpi\n        /* \"--CODEGEN--\":90:101   */\n      dup2\n      dup2\n      add\n        /* \"--CODEGEN--\":84:102   */\n      mload\n        /* \"--CODEGEN--\":71:82   */\n      dup4\n      dup3\n      add\n        /* \"--CODEGEN--\":64:103   */\n      mstore\n        /* \"--CODEGEN--\":52:54   */\n      0x20\n        /* \"--CODEGEN--\":45:55   */\n      add\n        /* \"--CODEGEN--\":8:108   */\n      jump(tag_58)\n    tag_60:\n        /* \"--CODEGEN--\":12:26   */\n      pop\n        /* \"Entity.sol\":8697:8953  function keyValueOfDataToSend(uint32 index, uint32 keyIndex) \r... */\n      pop\n      pop\n      pop\n      swap1\n      pop\n      swap1\n      dup2\n      add\n      swap1\n      0x1f\n      and\n      dup1\n      iszero\n      tag_61\n      jumpi\n      dup1\n      dup3\n      sub\n      dup1\n      mload\n      0x01\n      dup4\n      0x20\n      sub\n      0x0100\n      exp\n      sub\n      not\n      and\n      dup2\n      mstore\n      0x20\n      add\n      swap2\n      pop\n    tag_61:\n      pop\n      swap5\n      pop\n      pop\n      pop\n      pop\n      pop\n      mload(0x40)\n      dup1\n      swap2\n      sub\n      swap1\n      return\n        /* \"Entity.sol\":947:1008  mapping(address=>mapping(string=>storingData)) public Storage */\n    tag_5:\n      tag_41\n      0x04\n      dup1\n      calldatasize\n      sub\n        /* \"--CODEGEN--\":15:17   */\n      0x40\n        /* \"--CODEGEN--\":10:13   */\n      dup2\n        /* \"--CODEGEN--\":7:18   */\n      lt\n        /* \"--CODEGEN--\":4:6   */\n      iszero\n      tag_63\n      jumpi\n        /* \"--CODEGEN--\":31:32   */\n      0x00\n        /* \"--CODEGEN--\":28:29   */\n      dup1\n        /* \"--CODEGEN--\":21:33   */\n      revert\n        /* \"--CODEGEN--\":4:6   */\n    tag_63:\n      sub(shl(0xa0, 0x01), 0x01)\n        /* \"Entity.sol\":947:1008  mapping(address=>mapping(string=>storingData)) public Storage */\n      dup3\n      calldataload\n      and\n      swap2\n      swap1\n      dup2\n      add\n      swap1\n      0x40\n      dup2\n      add\n      0x20\n      dup3\n      add\n      calldataload\n      shl(0x20, 0x01)\n        /* \"--CODEGEN--\":11:39   */\n      dup2\n      gt\n        /* \"--CODEGEN--\":8:10   */\n      iszero\n      tag_64\n      jumpi\n        /* \"--CODEGEN--\":52:53   */\n      0x00\n        /* \"--CODEGEN--\":49:50   */\n      dup1\n        /* \"--CODEGEN--\":42:54   */\n      revert\n        /* \"--CODEGEN--\":8:10   */\n    tag_64:\n        /* \"Entity.sol\":947:1008  mapping(address=>mapping(string=>storingData)) public Storage */\n      dup3\n      add\n        /* \"--CODEGEN--\":41:50   */\n      dup4\n        /* \"--CODEGEN--\":34:38   */\n      0x20\n        /* \"--CODEGEN--\":18:32   */\n      dup3\n        /* \"--CODEGEN--\":14:39   */\n      add\n        /* \"--CODEGEN--\":11:51   */\n      gt\n        /* \"--CODEGEN--\":8:10   */\n      iszero\n      tag_65\n      jumpi\n        /* \"--CODEGEN--\":64:65   */\n      0x00\n        /* \"--CODEGEN--\":61:62   */\n      dup1\n        /* \"--CODEGEN--\":54:66   */\n      revert\n        /* \"--CODEGEN--\":8:10   */\n    tag_65:\n        /* \"Entity.sol\":947:1008  mapping(address=>mapping(string=>storingData)) public Storage */\n      dup1\n      calldataload\n      swap1\n      0x20\n      add\n      swap2\n        /* \"--CODEGEN--\":100:109   */\n      dup5\n        /* \"--CODEGEN--\":95:96   */\n      0x01\n        /* \"--CODEGEN--\":81:93   */\n      dup4\n        /* \"--CODEGEN--\":77:97   */\n      mul\n        /* \"--CODEGEN--\":67:75   */\n      dup5\n        /* \"--CODEGEN--\":63:98   */\n      add\n        /* \"--CODEGEN--\":60:110   */\n      gt\n      shl(0x20, 0x01)\n        /* \"--CODEGEN--\":25:37   */\n      dup4\n        /* \"--CODEGEN--\":22:51   */\n      gt\n        /* \"--CODEGEN--\":11:118   */\n      or\n        /* \"--CODEGEN--\":8:10   */\n      iszero\n      tag_66\n      jumpi\n        /* \"--CODEGEN--\":131:132   */\n      0x00\n        /* \"--CODEGEN--\":128:129   */\n      dup1\n        /* \"--CODEGEN--\":121:133   */\n      revert\n        /* \"--CODEGEN--\":8:10   */\n    tag_66:\n        /* \"Entity.sol\":947:1008  mapping(address=>mapping(string=>storingData)) public Storage */\n      swap2\n      swap1\n      dup1\n      dup1\n      0x1f\n      add\n      0x20\n      dup1\n      swap2\n      div\n      mul\n      0x20\n      add\n      mload(0x40)\n      swap1\n      dup2\n      add\n      0x40\n      mstore\n      dup1\n      swap4\n      swap3\n      swap2\n      swap1\n      dup2\n      dup2\n      mstore\n      0x20\n      add\n      dup4\n      dup4\n        /* \"--CODEGEN--\":30:33   */\n      dup1\n        /* \"--CODEGEN--\":22:28   */\n      dup3\n        /* \"--CODEGEN--\":14:20   */\n      dup5\n        /* \"--CODEGEN--\":1:34   */\n      calldatacopy\n        /* \"--CODEGEN--\":99:100   */\n      0x00\n        /* \"--CODEGEN--\":81:97   */\n      swap3\n      add\n        /* \"--CODEGEN--\":74:101   */\n      swap2\n      swap1\n      swap2\n      mstore\n      pop\n        /* \"Entity.sol\":947:1008  mapping(address=>mapping(string=>storingData)) public Storage */\n      swap3\n      swap6\n      pop\n      tag_67\n      swap5\n      pop\n      pop\n      pop\n      pop\n      pop\n      jump\t// in\n        /* \"Entity.sol\":6289:6653  function newDataMultipleToSend(address multipleEntity, address _receiver, \r... */\n    tag_6:\n      tag_72\n      0x04\n      dup1\n      calldatasize\n      sub\n        /* \"--CODEGEN--\":15:18   */\n      0xc0\n        /* \"--CODEGEN--\":10:13   */\n      dup2\n        /* \"--CODEGEN--\":7:19   */\n      lt\n        /* \"--CODEGEN--\":4:6   */\n      iszero\n      tag_73\n      jumpi\n        /* \"--CODEGEN--\":32:33   */\n      0x00\n        /* \"--CODEGEN--\":29:30   */\n      dup1\n        /* \"--CODEGEN--\":22:34   */\n      revert\n        /* \"--CODEGEN--\":4:6   */\n    tag_73:\n      sub(shl(0xa0, 0x01), 0x01)\n        /* \"Entity.sol\":6289:6653  function newDataMultipleToSend(address multipleEntity, address _receiver, \r... */\n      dup3\n      calldataload\n      dup2\n      and\n      swap3\n      0x20\n      dup2\n      add\n      calldataload\n      swap1\n      swap2\n      and\n      swap2\n      dup2\n      add\n      swap1\n      0x60\n      dup2\n      add\n      0x40\n      dup3\n      add\n      calldataload\n      shl(0x20, 0x01)\n        /* \"--CODEGEN--\":11:39   */\n      dup2\n      gt\n        /* \"--CODEGEN--\":8:10   */\n      iszero\n      tag_74\n      jumpi\n        /* \"--CODEGEN--\":52:53   */\n      0x00\n        /* \"--CODEGEN--\":49:50   */\n      dup1\n        /* \"--CODEGEN--\":42:54   */\n      revert\n        /* \"--CODEGEN--\":8:10   */\n    tag_74:\n        /* \"Entity.sol\":6289:6653  function newDataMultipleToSend(address multipleEntity, address _receiver, \r... */\n      dup3\n      add\n        /* \"--CODEGEN--\":41:50   */\n      dup4\n        /* \"--CODEGEN--\":34:38   */\n      0x20\n        /* \"--CODEGEN--\":18:32   */\n      dup3\n        /* \"--CODEGEN--\":14:39   */\n      add\n        /* \"--CODEGEN--\":11:51   */\n      gt\n        /* \"--CODEGEN--\":8:10   */\n      iszero\n      tag_75\n      jumpi\n        /* \"--CODEGEN--\":64:65   */\n      0x00\n        /* \"--CODEGEN--\":61:62   */\n      dup1\n        /* \"--CODEGEN--\":54:66   */\n      revert\n        /* \"--CODEGEN--\":8:10   */\n    tag_75:\n        /* \"Entity.sol\":6289:6653  function newDataMultipleToSend(address multipleEntity, address _receiver, \r... */\n      dup1\n      calldataload\n      swap1\n      0x20\n      add\n      swap2\n        /* \"--CODEGEN--\":100:109   */\n      dup5\n        /* \"--CODEGEN--\":95:96   */\n      0x01\n        /* \"--CODEGEN--\":81:93   */\n      dup4\n        /* \"--CODEGEN--\":77:97   */\n      mul\n        /* \"--CODEGEN--\":67:75   */\n      dup5\n        /* \"--CODEGEN--\":63:98   */\n      add\n        /* \"--CODEGEN--\":60:110   */\n      gt\n      shl(0x20, 0x01)\n        /* \"--CODEGEN--\":25:37   */\n      dup4\n        /* \"--CODEGEN--\":22:51   */\n      gt\n        /* \"--CODEGEN--\":11:118   */\n      or\n        /* \"--CODEGEN--\":8:10   */\n      iszero\n      tag_76\n      jumpi\n        /* \"--CODEGEN--\":131:132   */\n      0x00\n        /* \"--CODEGEN--\":128:129   */\n      dup1\n        /* \"--CODEGEN--\":121:133   */\n      revert\n        /* \"--CODEGEN--\":8:10   */\n    tag_76:\n        /* \"Entity.sol\":6289:6653  function newDataMultipleToSend(address multipleEntity, address _receiver, \r... */\n      swap2\n      swap1\n      dup1\n      dup1\n      0x1f\n      add\n      0x20\n      dup1\n      swap2\n      div\n      mul\n      0x20\n      add\n      mload(0x40)\n      swap1\n      dup2\n      add\n      0x40\n      mstore\n      dup1\n      swap4\n      swap3\n      swap2\n      swap1\n      dup2\n      dup2\n      mstore\n      0x20\n      add\n      dup4\n      dup4\n        /* \"--CODEGEN--\":30:33   */\n      dup1\n        /* \"--CODEGEN--\":22:28   */\n      dup3\n        /* \"--CODEGEN--\":14:20   */\n      dup5\n        /* \"--CODEGEN--\":1:34   */\n      calldatacopy\n        /* \"--CODEGEN--\":99:100   */\n      0x00\n        /* \"--CODEGEN--\":81:97   */\n      swap3\n      add\n        /* \"--CODEGEN--\":74:101   */\n      swap2\n      swap1\n      swap2\n      mstore\n      pop\n        /* \"Entity.sol\":6289:6653  function newDataMultipleToSend(address multipleEntity, address _receiver, \r... */\n      swap3\n      swap6\n      swap5\n      swap4\n      0x20\n      dup2\n      add\n      swap4\n      pop\n      calldataload\n      swap2\n      pop\n      pop\n      shl(0x20, 0x01)\n        /* \"--CODEGEN--\":11:39   */\n      dup2\n      gt\n        /* \"--CODEGEN--\":8:10   */\n      iszero\n      tag_77\n      jumpi\n        /* \"--CODEGEN--\":52:53   */\n      0x00\n        /* \"--CODEGEN--\":49:50   */\n      dup1\n        /* \"--CODEGEN--\":42:54   */\n      revert\n        /* \"--CODEGEN--\":8:10   */\n    tag_77:\n        /* \"Entity.sol\":6289:6653  function newDataMultipleToSend(address multipleEntity, address _receiver, \r... */\n      dup3\n      add\n        /* \"--CODEGEN--\":41:50   */\n      dup4\n        /* \"--CODEGEN--\":34:38   */\n      0x20\n        /* \"--CODEGEN--\":18:32   */\n      dup3\n        /* \"--CODEGEN--\":14:39   */\n      add\n        /* \"--CODEGEN--\":11:51   */\n      gt\n        /* \"--CODEGEN--\":8:10   */\n      iszero\n      tag_78\n      jumpi\n        /* \"--CODEGEN--\":64:65   */\n      0x00\n        /* \"--CODEGEN--\":61:62   */\n      dup1\n        /* \"--CODEGEN--\":54:66   */\n      revert\n        /* \"--CODEGEN--\":8:10   */\n    tag_78:\n        /* \"Entity.sol\":6289:6653  function newDataMultipleToSend(address multipleEntity, address _receiver, \r... */\n      dup1\n      calldataload\n      swap1\n      0x20\n      add\n      swap2\n        /* \"--CODEGEN--\":100:109   */\n      dup5\n        /* \"--CODEGEN--\":95:96   */\n      0x01\n        /* \"--CODEGEN--\":81:93   */\n      dup4\n        /* \"--CODEGEN--\":77:97   */\n      mul\n        /* \"--CODEGEN--\":67:75   */\n      dup5\n        /* \"--CODEGEN--\":63:98   */\n      add\n        /* \"--CODEGEN--\":60:110   */\n      gt\n      shl(0x20, 0x01)\n        /* \"--CODEGEN--\":25:37   */\n      dup4\n        /* \"--CODEGEN--\":22:51   */\n      gt\n        /* \"--CODEGEN--\":11:118   */\n      or\n        /* \"--CODEGEN--\":8:10   */\n      iszero\n      tag_79\n      jumpi\n        /* \"--CODEGEN--\":131:132   */\n      0x00\n        /* \"--CODEGEN--\":128:129   */\n      dup1\n        /* \"--CODEGEN--\":121:133   */\n      revert\n        /* \"--CODEGEN--\":8:10   */\n    tag_79:\n        /* \"Entity.sol\":6289:6653  function newDataMultipleToSend(address multipleEntity, address _receiver, \r... */\n      swap2\n      swap1\n      dup1\n      dup1\n      0x1f\n      add\n      0x20\n      dup1\n      swap2\n      div\n      mul\n      0x20\n      add\n      mload(0x40)\n      swap1\n      dup2\n      add\n      0x40\n      mstore\n      dup1\n      swap4\n      swap3\n      swap2\n      swap1\n      dup2\n      dup2\n      mstore\n      0x20\n      add\n      dup4\n      dup4\n        /* \"--CODEGEN--\":30:33   */\n      dup1\n        /* \"--CODEGEN--\":22:28   */\n      dup3\n        /* \"--CODEGEN--\":14:20   */\n      dup5\n        /* \"--CODEGEN--\":1:34   */\n      calldatacopy\n        /* \"--CODEGEN--\":99:100   */\n      0x00\n        /* \"--CODEGEN--\":81:97   */\n      swap3\n      add\n        /* \"--CODEGEN--\":74:101   */\n      swap2\n      swap1\n      swap2\n      mstore\n      pop\n        /* \"Entity.sol\":6289:6653  function newDataMultipleToSend(address multipleEntity, address _receiver, \r... */\n      swap3\n      swap6\n      swap5\n      swap4\n      0x20\n      dup2\n      add\n      swap4\n      pop\n      calldataload\n      swap2\n      pop\n      pop\n      shl(0x20, 0x01)\n        /* \"--CODEGEN--\":11:39   */\n      dup2\n      gt\n        /* \"--CODEGEN--\":8:10   */\n      iszero\n      tag_80\n      jumpi\n        /* \"--CODEGEN--\":52:53   */\n      0x00\n        /* \"--CODEGEN--\":49:50   */\n      dup1\n        /* \"--CODEGEN--\":42:54   */\n      revert\n        /* \"--CODEGEN--\":8:10   */\n    tag_80:\n        /* \"Entity.sol\":6289:6653  function newDataMultipleToSend(address multipleEntity, address _receiver, \r... */\n      dup3\n      add\n        /* \"--CODEGEN--\":41:50   */\n      dup4\n        /* \"--CODEGEN--\":34:38   */\n      0x20\n        /* \"--CODEGEN--\":18:32   */\n      dup3\n        /* \"--CODEGEN--\":14:39   */\n      add\n        /* \"--CODEGEN--\":11:51   */\n      gt\n        /* \"--CODEGEN--\":8:10   */\n      iszero\n      tag_81\n      jumpi\n        /* \"--CODEGEN--\":64:65   */\n      0x00\n        /* \"--CODEGEN--\":61:62   */\n      dup1\n        /* \"--CODEGEN--\":54:66   */\n      revert\n        /* \"--CODEGEN--\":8:10   */\n    tag_81:\n        /* \"Entity.sol\":6289:6653  function newDataMultipleToSend(address multipleEntity, address _receiver, \r... */\n      dup1\n      calldataload\n      swap1\n      0x20\n      add\n      swap2\n        /* \"--CODEGEN--\":100:109   */\n      dup5\n        /* \"--CODEGEN--\":95:96   */\n      0x01\n        /* \"--CODEGEN--\":81:93   */\n      dup4\n        /* \"--CODEGEN--\":77:97   */\n      mul\n        /* \"--CODEGEN--\":67:75   */\n      dup5\n        /* \"--CODEGEN--\":63:98   */\n      add\n        /* \"--CODEGEN--\":60:110   */\n      gt\n      shl(0x20, 0x01)\n        /* \"--CODEGEN--\":25:37   */\n      dup4\n        /* \"--CODEGEN--\":22:51   */\n      gt\n        /* \"--CODEGEN--\":11:118   */\n      or\n        /* \"--CODEGEN--\":8:10   */\n      iszero\n      tag_82\n      jumpi\n        /* \"--CODEGEN--\":131:132   */\n      0x00\n        /* \"--CODEGEN--\":128:129   */\n      dup1\n        /* \"--CODEGEN--\":121:133   */\n      revert\n        /* \"--CODEGEN--\":8:10   */\n    tag_82:\n        /* \"Entity.sol\":6289:6653  function newDataMultipleToSend(address multipleEntity, address _receiver, \r... */\n      swap2\n      swap1\n      dup1\n      dup1\n      0x1f\n      add\n      0x20\n      dup1\n      swap2\n      div\n      mul\n      0x20\n      add\n      mload(0x40)\n      swap1\n      dup2\n      add\n      0x40\n      mstore\n      dup1\n      swap4\n      swap3\n      swap2\n      swap1\n      dup2\n      dup2\n      mstore\n      0x20\n      add\n      dup4\n      dup4\n        /* \"--CODEGEN--\":30:33   */\n      dup1\n        /* \"--CODEGEN--\":22:28   */\n      dup3\n        /* \"--CODEGEN--\":14:20   */\n      dup5\n        /* \"--CODEGEN--\":1:34   */\n      calldatacopy\n        /* \"--CODEGEN--\":99:100   */\n      0x00\n        /* \"--CODEGEN--\":81:97   */\n      swap3\n      add\n        /* \"--CODEGEN--\":74:101   */\n      swap2\n      swap1\n      swap2\n      mstore\n      pop\n        /* \"Entity.sol\":6289:6653  function newDataMultipleToSend(address multipleEntity, address _receiver, \r... */\n      swap3\n      swap6\n      pop\n      pop\n      pop\n      pop\n      calldataload\n      iszero\n      iszero\n      swap1\n      pop\n      tag_83\n      jump\t// in\n    tag_72:\n      0x40\n      dup1\n      mload\n      0xffffffff\n      swap1\n      swap3\n      and\n      dup3\n      mstore\n      mload\n      swap1\n      dup2\n      swap1\n      sub\n      0x20\n      add\n      swap1\n      return\n        /* \"Entity.sol\":9722:9915  function fetchValue(address src, string memory des, string memory key)\r... */\n    tag_7:\n      tag_41\n      0x04\n      dup1\n      calldatasize\n      sub\n        /* \"--CODEGEN--\":15:17   */\n      0x60\n        /* \"--CODEGEN--\":10:13   */\n      dup2\n        /* \"--CODEGEN--\":7:18   */\n      lt\n        /* \"--CODEGEN--\":4:6   */\n      iszero\n      tag_85\n      jumpi\n        /* \"--CODEGEN--\":31:32   */\n      0x00\n        /* \"--CODEGEN--\":28:29   */\n      dup1\n        /* \"--CODEGEN--\":21:33   */\n      revert\n        /* \"--CODEGEN--\":4:6   */\n    tag_85:\n      sub(shl(0xa0, 0x01), 0x01)\n        /* \"Entity.sol\":9722:9915  function fetchValue(address src, string memory des, string memory key)\r... */\n      dup3\n      calldataload\n      and\n      swap2\n      swap1\n      dup2\n      add\n      swap1\n      0x40\n      dup2\n      add\n      0x20\n      dup3\n      add\n      calldataload\n      shl(0x20, 0x01)\n        /* \"--CODEGEN--\":11:39   */\n      dup2\n      gt\n        /* \"--CODEGEN--\":8:10   */\n      iszero\n      tag_86\n      jumpi\n        /* \"--CODEGEN--\":52:53   */\n      0x00\n        /* \"--CODEGEN--\":49:50   */\n      dup1\n        /* \"--CODEGEN--\":42:54   */\n      revert\n        /* \"--CODEGEN--\":8:10   */\n    tag_86:\n        /* \"Entity.sol\":9722:9915  function fetchValue(address src, string memory des, string memory key)\r... */\n      dup3\n      add\n        /* \"--CODEGEN--\":41:50   */\n      dup4\n        /* \"--CODEGEN--\":34:38   */\n      0x20\n        /* \"--CODEGEN--\":18:32   */\n      dup3\n        /* \"--CODEGEN--\":14:39   */\n      add\n        /* \"--CODEGEN--\":11:51   */\n      gt\n        /* \"--CODEGEN--\":8:10   */\n      iszero\n      tag_87\n      jumpi\n        /* \"--CODEGEN--\":64:65   */\n      0x00\n        /* \"--CODEGEN--\":61:62   */\n      dup1\n        /* \"--CODEGEN--\":54:66   */\n      revert\n        /* \"--CODEGEN--\":8:10   */\n    tag_87:\n        /* \"Entity.sol\":9722:9915  function fetchValue(address src, string memory des, string memory key)\r... */\n      dup1\n      calldataload\n      swap1\n      0x20\n      add\n      swap2\n        /* \"--CODEGEN--\":100:109   */\n      dup5\n        /* \"--CODEGEN--\":95:96   */\n      0x01\n        /* \"--CODEGEN--\":81:93   */\n      dup4\n        /* \"--CODEGEN--\":77:97   */\n      mul\n        /* \"--CODEGEN--\":67:75   */\n      dup5\n        /* \"--CODEGEN--\":63:98   */\n      add\n        /* \"--CODEGEN--\":60:110   */\n      gt\n      shl(0x20, 0x01)\n        /* \"--CODEGEN--\":25:37   */\n      dup4\n        /* \"--CODEGEN--\":22:51   */\n      gt\n        /* \"--CODEGEN--\":11:118   */\n      or\n        /* \"--CODEGEN--\":8:10   */\n      iszero\n      tag_88\n      jumpi\n        /* \"--CODEGEN--\":131:132   */\n      0x00\n        /* \"--CODEGEN--\":128:129   */\n      dup1\n        /* \"--CODEGEN--\":121:133   */\n      revert\n        /* \"--CODEGEN--\":8:10   */\n    tag_88:\n        /* \"Entity.sol\":9722:9915  function fetchValue(address src, string memory des, string memory key)\r... */\n      swap2\n      swap1\n      dup1\n      dup1\n      0x1f\n      add\n      0x20\n      dup1\n      swap2\n      div\n      mul\n      0x20\n      add\n      mload(0x40)\n      swap1\n      dup2\n      add\n      0x40\n      mstore\n      dup1\n      swap4\n      swap3\n      swap2\n      swap1\n      dup2\n      dup2\n      mstore\n      0x20\n      add\n      dup4\n      dup4\n        /* \"--CODEGEN--\":30:33   */\n      dup1\n        /* \"--CODEGEN--\":22:28   */\n      dup3\n        /* \"--CODEGEN--\":14:20   */\n      dup5\n        /* \"--CODEGEN--\":1:34   */\n      calldatacopy\n        /* \"--CODEGEN--\":99:100   */\n      0x00\n        /* \"--CODEGEN--\":81:97   */\n      swap3\n      add\n        /* \"--CODEGEN--\":74:101   */\n      swap2\n      swap1\n      swap2\n      mstore\n      pop\n        /* \"Entity.sol\":9722:9915  function fetchValue(address src, string memory des, string memory key)\r... */\n      swap3\n      swap6\n      swap5\n      swap4\n      0x20\n      dup2\n      add\n      swap4\n      pop\n      calldataload\n      swap2\n      pop\n      pop\n      shl(0x20, 0x01)\n        /* \"--CODEGEN--\":11:39   */\n      dup2\n      gt\n        /* \"--CODEGEN--\":8:10   */\n      iszero\n      tag_89\n      jumpi\n        /* \"--CODEGEN--\":52:53   */\n      0x00\n        /* \"--CODEGEN--\":49:50   */\n      dup1\n        /* \"--CODEGEN--\":42:54   */\n      revert\n        /* \"--CODEGEN--\":8:10   */\n    tag_89:\n        /* \"Entity.sol\":9722:9915  function fetchValue(address src, string memory des, string memory key)\r... */\n      dup3\n      add\n        /* \"--CODEGEN--\":41:50   */\n      dup4\n        /* \"--CODEGEN--\":34:38   */\n      0x20\n        /* \"--CODEGEN--\":18:32   */\n      dup3\n        /* \"--CODEGEN--\":14:39   */\n      add\n        /* \"--CODEGEN--\":11:51   */\n      gt\n        /* \"--CODEGEN--\":8:10   */\n      iszero\n      tag_90\n      jumpi\n        /* \"--CODEGEN--\":64:65   */\n      0x00\n        /* \"--CODEGEN--\":61:62   */\n      dup1\n        /* \"--CODEGEN--\":54:66   */\n      revert\n        /* \"--CODEGEN--\":8:10   */\n    tag_90:\n        /* \"Entity.sol\":9722:9915  function fetchValue(address src, string memory des, string memory key)\r... */\n      dup1\n      calldataload\n      swap1\n      0x20\n      add\n      swap2\n        /* \"--CODEGEN--\":100:109   */\n      dup5\n        /* \"--CODEGEN--\":95:96   */\n      0x01\n        /* \"--CODEGEN--\":81:93   */\n      dup4\n        /* \"--CODEGEN--\":77:97   */\n      mul\n        /* \"--CODEGEN--\":67:75   */\n      dup5\n        /* \"--CODEGEN--\":63:98   */\n      add\n        /* \"--CODEGEN--\":60:110   */\n      gt\n      shl(0x20, 0x01)\n        /* \"--CODEGEN--\":25:37   */\n      dup4\n        /* \"--CODEGEN--\":22:51   */\n      gt\n        /* \"--CODEGEN--\":11:118   */\n      or\n        /* \"--CODEGEN--\":8:10   */\n      iszero\n      tag_91\n      jumpi\n        /* \"--CODEGEN--\":131:132   */\n      0x00\n        /* \"--CODEGEN--\":128:129   */\n      dup1\n        /* \"--CODEGEN--\":121:133   */\n      revert\n        /* \"--CODEGEN--\":8:10   */\n    tag_91:\n        /* \"Entity.sol\":9722:9915  function fetchValue(address src, string memory des, string memory key)\r... */\n      swap2\n      swap1\n      dup1\n      dup1\n      0x1f\n      add\n      0x20\n      dup1\n      swap2\n      div\n      mul\n      0x20\n      add\n      mload(0x40)\n      swap1\n      dup2\n      add\n      0x40\n      mstore\n      dup1\n      swap4\n      swap3\n      swap2\n      swap1\n      dup2\n      dup2\n      mstore\n      0x20\n      add\n      dup4\n      dup4\n        /* \"--CODEGEN--\":30:33   */\n      dup1\n        /* \"--CODEGEN--\":22:28   */\n      dup3\n        /* \"--CODEGEN--\":14:20   */\n      dup5\n        /* \"--CODEGEN--\":1:34   */\n      calldatacopy\n        /* \"--CODEGEN--\":99:100   */\n      0x00\n        /* \"--CODEGEN--\":81:97   */\n      swap3\n      add\n        /* \"--CODEGEN--\":74:101   */\n      swap2\n      swap1\n      swap2\n      mstore\n      pop\n        /* \"Entity.sol\":9722:9915  function fetchValue(address src, string memory des, string memory key)\r... */\n      swap3\n      swap6\n      pop\n      tag_92\n      swap5\n      pop\n      pop\n      pop\n      pop\n      pop\n      jump\t// in\n        /* \"Entity.sol\":1015:1042  address[] public dataSource */\n    tag_8:\n      tag_97\n      0x04\n      dup1\n      calldatasize\n      sub\n        /* \"--CODEGEN--\":15:17   */\n      0x20\n        /* \"--CODEGEN--\":10:13   */\n      dup2\n        /* \"--CODEGEN--\":7:18   */\n      lt\n        /* \"--CODEGEN--\":4:6   */\n      iszero\n      tag_98\n      jumpi\n        /* \"--CODEGEN--\":31:32   */\n      0x00\n        /* \"--CODEGEN--\":28:29   */\n      dup1\n        /* \"--CODEGEN--\":21:33   */\n      revert\n        /* \"--CODEGEN--\":4:6   */\n    tag_98:\n      pop\n        /* \"Entity.sol\":1015:1042  address[] public dataSource */\n      calldataload\n      tag_99\n      jump\t// in\n    tag_97:\n      0x40\n      dup1\n      mload\n      sub(shl(0xa0, 0x01), 0x01)\n      swap1\n      swap3\n      and\n      dup3\n      mstore\n      mload\n      swap1\n      dup2\n      swap1\n      sub\n      0x20\n      add\n      swap1\n      return\n        /* \"Entity.sol\":1096:1150  mapping(address=>string[]) public descriptionsBySource */\n    tag_9:\n      tag_41\n      0x04\n      dup1\n      calldatasize\n      sub\n        /* \"--CODEGEN--\":15:17   */\n      0x40\n        /* \"--CODEGEN--\":10:13   */\n      dup2\n        /* \"--CODEGEN--\":7:18   */\n      lt\n        /* \"--CODEGEN--\":4:6   */\n      iszero\n      tag_101\n      jumpi\n        /* \"--CODEGEN--\":31:32   */\n      0x00\n        /* \"--CODEGEN--\":28:29   */\n      dup1\n        /* \"--CODEGEN--\":21:33   */\n      revert\n        /* \"--CODEGEN--\":4:6   */\n    tag_101:\n      pop\n      sub(shl(0xa0, 0x01), 0x01)\n        /* \"Entity.sol\":1096:1150  mapping(address=>string[]) public descriptionsBySource */\n      dup2\n      calldataload\n      and\n      swap1\n      0x20\n      add\n      calldataload\n      tag_102\n      jump\t// in\n        /* \"Entity.sol\":9224:9359  function sourceLength()\r... */\n    tag_10:\n      tag_72\n      tag_108\n      jump\t// in\n        /* \"Entity.sol\":3535:3771  function approveDataToReceive(uint32 index)\r... */\n    tag_11:\n      tag_109\n      0x04\n      dup1\n      calldatasize\n      sub\n        /* \"--CODEGEN--\":15:17   */\n      0x20\n        /* \"--CODEGEN--\":10:13   */\n      dup2\n        /* \"--CODEGEN--\":7:18   */\n      lt\n        /* \"--CODEGEN--\":4:6   */\n      iszero\n      tag_110\n      jumpi\n        /* \"--CODEGEN--\":31:32   */\n      0x00\n        /* \"--CODEGEN--\":28:29   */\n      dup1\n        /* \"--CODEGEN--\":21:33   */\n      revert\n        /* \"--CODEGEN--\":4:6   */\n    tag_110:\n      pop\n        /* \"Entity.sol\":3535:3771  function approveDataToReceive(uint32 index)\r... */\n      calldataload\n      0xffffffff\n      and\n      tag_111\n      jump\t// in\n    tag_109:\n      stop\n        /* \"Entity.sol\":4005:4167  function pendingDataToReceiveCount() \r... */\n    tag_12:\n      tag_72\n      tag_113\n      jump\t// in\n        /* \"Entity.sol\":4179:4357  function dataSizeToReceive(uint32 index) \r... */\n    tag_13:\n      tag_72\n      0x04\n      dup1\n      calldatasize\n      sub\n        /* \"--CODEGEN--\":15:17   */\n      0x20\n        /* \"--CODEGEN--\":10:13   */\n      dup2\n        /* \"--CODEGEN--\":7:18   */\n      lt\n        /* \"--CODEGEN--\":4:6   */\n      iszero\n      tag_115\n      jumpi\n        /* \"--CODEGEN--\":31:32   */\n      0x00\n        /* \"--CODEGEN--\":28:29   */\n      dup1\n        /* \"--CODEGEN--\":21:33   */\n      revert\n        /* \"--CODEGEN--\":4:6   */\n    tag_115:\n      pop\n        /* \"Entity.sol\":4179:4357  function dataSizeToReceive(uint32 index) \r... */\n      calldataload\n      0xffffffff\n      and\n      tag_116\n      jump\t// in\n        /* \"Entity.sol\":7575:8117  function approveDataToSend(uint32 index) \r... */\n    tag_14:\n      tag_109\n      0x04\n      dup1\n      calldatasize\n      sub\n        /* \"--CODEGEN--\":15:17   */\n      0x20\n        /* \"--CODEGEN--\":10:13   */\n      dup2\n        /* \"--CODEGEN--\":7:18   */\n      lt\n        /* \"--CODEGEN--\":4:6   */\n      iszero\n      tag_118\n      jumpi\n        /* \"--CODEGEN--\":31:32   */\n      0x00\n        /* \"--CODEGEN--\":28:29   */\n      dup1\n        /* \"--CODEGEN--\":21:33   */\n      revert\n        /* \"--CODEGEN--\":4:6   */\n    tag_118:\n      pop\n        /* \"Entity.sol\":7575:8117  function approveDataToSend(uint32 index) \r... */\n      calldataload\n      0xffffffff\n      and\n      tag_119\n      jump\t// in\n        /* \"Entity.sol\":789:825  bool constant public isEntity = true */\n    tag_15:\n      tag_120\n      tag_121\n      jump\t// in\n    tag_120:\n      0x40\n      dup1\n      mload\n      swap2\n      iszero\n      iszero\n      dup3\n      mstore\n      mload\n      swap1\n      dup2\n      swap1\n      sub\n      0x20\n      add\n      swap1\n      return\n        /* \"Entity.sol\":4672:6277  function newDataToSend(address _receiver, string memory _description, string memory _key, string memory _value, bool direct) \r... */\n    tag_16:\n      tag_109\n      0x04\n      dup1\n      calldatasize\n      sub\n        /* \"--CODEGEN--\":15:18   */\n      0xa0\n        /* \"--CODEGEN--\":10:13   */\n      dup2\n        /* \"--CODEGEN--\":7:19   */\n      lt\n        /* \"--CODEGEN--\":4:6   */\n      iszero\n      tag_123\n      jumpi\n        /* \"--CODEGEN--\":32:33   */\n      0x00\n        /* \"--CODEGEN--\":29:30   */\n      dup1\n        /* \"--CODEGEN--\":22:34   */\n      revert\n        /* \"--CODEGEN--\":4:6   */\n    tag_123:\n      sub(shl(0xa0, 0x01), 0x01)\n        /* \"Entity.sol\":4672:6277  function newDataToSend(address _receiver, string memory _description, string memory _key, string memory _value, bool direct) \r... */\n      dup3\n      calldataload\n      and\n      swap2\n      swap1\n      dup2\n      add\n      swap1\n      0x40\n      dup2\n      add\n      0x20\n      dup3\n      add\n      calldataload\n      shl(0x20, 0x01)\n        /* \"--CODEGEN--\":11:39   */\n      dup2\n      gt\n        /* \"--CODEGEN--\":8:10   */\n      iszero\n      tag_124\n      jumpi\n        /* \"--CODEGEN--\":52:53   */\n      0x00\n        /* \"--CODEGEN--\":49:50   */\n      dup1\n        /* \"--CODEGEN--\":42:54   */\n      revert\n        /* \"--CODEGEN--\":8:10   */\n    tag_124:\n        /* \"Entity.sol\":4672:6277  function newDataToSend(address _receiver, string memory _description, string memory _key, string memory _value, bool direct) \r... */\n      dup3\n      add\n        /* \"--CODEGEN--\":41:50   */\n      dup4\n        /* \"--CODEGEN--\":34:38   */\n      0x20\n        /* \"--CODEGEN--\":18:32   */\n      dup3\n        /* \"--CODEGEN--\":14:39   */\n      add\n        /* \"--CODEGEN--\":11:51   */\n      gt\n        /* \"--CODEGEN--\":8:10   */\n      iszero\n      tag_125\n      jumpi\n        /* \"--CODEGEN--\":64:65   */\n      0x00\n        /* \"--CODEGEN--\":61:62   */\n      dup1\n        /* \"--CODEGEN--\":54:66   */\n      revert\n        /* \"--CODEGEN--\":8:10   */\n    tag_125:\n        /* \"Entity.sol\":4672:6277  function newDataToSend(address _receiver, string memory _description, string memory _key, string memory _value, bool direct) \r... */\n      dup1\n      calldataload\n      swap1\n      0x20\n      add\n      swap2\n        /* \"--CODEGEN--\":100:109   */\n      dup5\n        /* \"--CODEGEN--\":95:96   */\n      0x01\n        /* \"--CODEGEN--\":81:93   */\n      dup4\n        /* \"--CODEGEN--\":77:97   */\n      mul\n        /* \"--CODEGEN--\":67:75   */\n      dup5\n        /* \"--CODEGEN--\":63:98   */\n      add\n        /* \"--CODEGEN--\":60:110   */\n      gt\n      shl(0x20, 0x01)\n        /* \"--CODEGEN--\":25:37   */\n      dup4\n        /* \"--CODEGEN--\":22:51   */\n      gt\n        /* \"--CODEGEN--\":11:118   */\n      or\n        /* \"--CODEGEN--\":8:10   */\n      iszero\n      tag_126\n      jumpi\n        /* \"--CODEGEN--\":131:132   */\n      0x00\n        /* \"--CODEGEN--\":128:129   */\n      dup1\n        /* \"--CODEGEN--\":121:133   */\n      revert\n        /* \"--CODEGEN--\":8:10   */\n    tag_126:\n        /* \"Entity.sol\":4672:6277  function newDataToSend(address _receiver, string memory _description, string memory _key, string memory _value, bool direct) \r... */\n      swap2\n      swap1\n      dup1\n      dup1\n      0x1f\n      add\n      0x20\n      dup1\n      swap2\n      div\n      mul\n      0x20\n      add\n      mload(0x40)\n      swap1\n      dup2\n      add\n      0x40\n      mstore\n      dup1\n      swap4\n      swap3\n      swap2\n      swap1\n      dup2\n      dup2\n      mstore\n      0x20\n      add\n      dup4\n      dup4\n        /* \"--CODEGEN--\":30:33   */\n      dup1\n        /* \"--CODEGEN--\":22:28   */\n      dup3\n        /* \"--CODEGEN--\":14:20   */\n      dup5\n        /* \"--CODEGEN--\":1:34   */\n      calldatacopy\n        /* \"--CODEGEN--\":99:100   */\n      0x00\n        /* \"--CODEGEN--\":81:97   */\n      swap3\n      add\n        /* \"--CODEGEN--\":74:101   */\n      swap2\n      swap1\n      swap2\n      mstore\n      pop\n        /* \"Entity.sol\":4672:6277  function newDataToSend(address _receiver, string memory _description, string memory _key, string memory _value, bool direct) \r... */\n      swap3\n      swap6\n      swap5\n      swap4\n      0x20\n      dup2\n      add\n      swap4\n      pop\n      calldataload\n      swap2\n      pop\n      pop\n      shl(0x20, 0x01)\n        /* \"--CODEGEN--\":11:39   */\n      dup2\n      gt\n        /* \"--CODEGEN--\":8:10   */\n      iszero\n      tag_127\n      jumpi\n        /* \"--CODEGEN--\":52:53   */\n      0x00\n        /* \"--CODEGEN--\":49:50   */\n      dup1\n        /* \"--CODEGEN--\":42:54   */\n      revert\n        /* \"--CODEGEN--\":8:10   */\n    tag_127:\n        /* \"Entity.sol\":4672:6277  function newDataToSend(address _receiver, string memory _description, string memory _key, string memory _value, bool direct) \r... */\n      dup3\n      add\n        /* \"--CODEGEN--\":41:50   */\n      dup4\n        /* \"--CODEGEN--\":34:38   */\n      0x20\n        /* \"--CODEGEN--\":18:32   */\n      dup3\n        /* \"--CODEGEN--\":14:39   */\n      add\n        /* \"--CODEGEN--\":11:51   */\n      gt\n        /* \"--CODEGEN--\":8:10   */\n      iszero\n      tag_128\n      jumpi\n        /* \"--CODEGEN--\":64:65   */\n      0x00\n        /* \"--CODEGEN--\":61:62   */\n      dup1\n        /* \"--CODEGEN--\":54:66   */\n      revert\n        /* \"--CODEGEN--\":8:10   */\n    tag_128:\n        /* \"Entity.sol\":4672:6277  function newDataToSend(address _receiver, string memory _description, string memory _key, string memory _value, bool direct) \r... */\n      dup1\n      calldataload\n      swap1\n      0x20\n      add\n      swap2\n        /* \"--CODEGEN--\":100:109   */\n      dup5\n        /* \"--CODEGEN--\":95:96   */\n      0x01\n        /* \"--CODEGEN--\":81:93   */\n      dup4\n        /* \"--CODEGEN--\":77:97   */\n      mul\n        /* \"--CODEGEN--\":67:75   */\n      dup5\n        /* \"--CODEGEN--\":63:98   */\n      add\n        /* \"--CODEGEN--\":60:110   */\n      gt\n      shl(0x20, 0x01)\n        /* \"--CODEGEN--\":25:37   */\n      dup4\n        /* \"--CODEGEN--\":22:51   */\n      gt\n        /* \"--CODEGEN--\":11:118   */\n      or\n        /* \"--CODEGEN--\":8:10   */\n      iszero\n      tag_129\n      jumpi\n        /* \"--CODEGEN--\":131:132   */\n      0x00\n        /* \"--CODEGEN--\":128:129   */\n      dup1\n        /* \"--CODEGEN--\":121:133   */\n      revert\n        /* \"--CODEGEN--\":8:10   */\n    tag_129:\n        /* \"Entity.sol\":4672:6277  function newDataToSend(address _receiver, string memory _description, string memory _key, string memory _value, bool direct) \r... */\n      swap2\n      swap1\n      dup1\n      dup1\n      0x1f\n      add\n      0x20\n      dup1\n      swap2\n      div\n      mul\n      0x20\n      add\n      mload(0x40)\n      swap1\n      dup2\n      add\n      0x40\n      mstore\n      dup1\n      swap4\n      swap3\n      swap2\n      swap1\n      dup2\n      dup2\n      mstore\n      0x20\n      add\n      dup4\n      dup4\n        /* \"--CODEGEN--\":30:33   */\n      dup1\n        /* \"--CODEGEN--\":22:28   */\n      dup3\n        /* \"--CODEGEN--\":14:20   */\n      dup5\n        /* \"--CODEGEN--\":1:34   */\n      calldatacopy\n        /* \"--CODEGEN--\":99:100   */\n      0x00\n        /* \"--CODEGEN--\":81:97   */\n      swap3\n      add\n        /* \"--CODEGEN--\":74:101   */\n      swap2\n      swap1\n      swap2\n      mstore\n      pop\n        /* \"Entity.sol\":4672:6277  function newDataToSend(address _receiver, string memory _description, string memory _key, string memory _value, bool direct) \r... */\n      swap3\n      swap6\n      swap5\n      swap4\n      0x20\n      dup2\n      add\n      swap4\n      pop\n      calldataload\n      swap2\n      pop\n      pop\n      shl(0x20, 0x01)\n        /* \"--CODEGEN--\":11:39   */\n      dup2\n      gt\n        /* \"--CODEGEN--\":8:10   */\n      iszero\n      tag_130\n      jumpi\n        /* \"--CODEGEN--\":52:53   */\n      0x00\n        /* \"--CODEGEN--\":49:50   */\n      dup1\n        /* \"--CODEGEN--\":42:54   */\n      revert\n        /* \"--CODEGEN--\":8:10   */\n    tag_130:\n        /* \"Entity.sol\":4672:6277  function newDataToSend(address _receiver, string memory _description, string memory _key, string memory _value, bool direct) \r... */\n      dup3\n      add\n        /* \"--CODEGEN--\":41:50   */\n      dup4\n        /* \"--CODEGEN--\":34:38   */\n      0x20\n        /* \"--CODEGEN--\":18:32   */\n      dup3\n        /* \"--CODEGEN--\":14:39   */\n      add\n        /* \"--CODEGEN--\":11:51   */\n      gt\n        /* \"--CODEGEN--\":8:10   */\n      iszero\n      tag_131\n      jumpi\n        /* \"--CODEGEN--\":64:65   */\n      0x00\n        /* \"--CODEGEN--\":61:62   */\n      dup1\n        /* \"--CODEGEN--\":54:66   */\n      revert\n        /* \"--CODEGEN--\":8:10   */\n    tag_131:\n        /* \"Entity.sol\":4672:6277  function newDataToSend(address _receiver, string memory _description, string memory _key, string memory _value, bool direct) \r... */\n      dup1\n      calldataload\n      swap1\n      0x20\n      add\n      swap2\n        /* \"--CODEGEN--\":100:109   */\n      dup5\n        /* \"--CODEGEN--\":95:96   */\n      0x01\n        /* \"--CODEGEN--\":81:93   */\n      dup4\n        /* \"--CODEGEN--\":77:97   */\n      mul\n        /* \"--CODEGEN--\":67:75   */\n      dup5\n        /* \"--CODEGEN--\":63:98   */\n      add\n        /* \"--CODEGEN--\":60:110   */\n      gt\n      shl(0x20, 0x01)\n        /* \"--CODEGEN--\":25:37   */\n      dup4\n        /* \"--CODEGEN--\":22:51   */\n      gt\n        /* \"--CODEGEN--\":11:118   */\n      or\n        /* \"--CODEGEN--\":8:10   */\n      iszero\n      tag_132\n      jumpi\n        /* \"--CODEGEN--\":131:132   */\n      0x00\n        /* \"--CODEGEN--\":128:129   */\n      dup1\n        /* \"--CODEGEN--\":121:133   */\n      revert\n        /* \"--CODEGEN--\":8:10   */\n    tag_132:\n        /* \"Entity.sol\":4672:6277  function newDataToSend(address _receiver, string memory _description, string memory _key, string memory _value, bool direct) \r... */\n      swap2\n      swap1\n      dup1\n      dup1\n      0x1f\n      add\n      0x20\n      dup1\n      swap2\n      div\n      mul\n      0x20\n      add\n      mload(0x40)\n      swap1\n      dup2\n      add\n      0x40\n      mstore\n      dup1\n      swap4\n      swap3\n      swap2\n      swap1\n      dup2\n      dup2\n      mstore\n      0x20\n      add\n      dup4\n      dup4\n        /* \"--CODEGEN--\":30:33   */\n      dup1\n        /* \"--CODEGEN--\":22:28   */\n      dup3\n        /* \"--CODEGEN--\":14:20   */\n      dup5\n        /* \"--CODEGEN--\":1:34   */\n      calldatacopy\n        /* \"--CODEGEN--\":99:100   */\n      0x00\n        /* \"--CODEGEN--\":81:97   */\n      swap3\n      add\n        /* \"--CODEGEN--\":74:101   */\n      swap2\n      swap1\n      swap2\n      mstore\n      pop\n        /* \"Entity.sol\":4672:6277  function newDataToSend(address _receiver, string memory _description, string memory _key, string memory _value, bool direct) \r... */\n      swap3\n      swap6\n      pop\n      pop\n      pop\n      pop\n      calldataload\n      iszero\n      iszero\n      swap1\n      pop\n      tag_133\n      jump\t// in\n        /* \"Entity.sol\":3783:3993  function approveMultipleToReceive(address multipleEntity, uint32 index)\r... */\n    tag_18:\n      tag_109\n      0x04\n      dup1\n      calldatasize\n      sub\n        /* \"--CODEGEN--\":15:17   */\n      0x40\n        /* \"--CODEGEN--\":10:13   */\n      dup2\n        /* \"--CODEGEN--\":7:18   */\n      lt\n        /* \"--CODEGEN--\":4:6   */\n      iszero\n      tag_148\n      jumpi\n        /* \"--CODEGEN--\":31:32   */\n      0x00\n        /* \"--CODEGEN--\":28:29   */\n      dup1\n        /* \"--CODEGEN--\":21:33   */\n      revert\n        /* \"--CODEGEN--\":4:6   */\n    tag_148:\n      pop\n        /* \"Entity.sol\":3783:3993  function approveMultipleToReceive(address multipleEntity, uint32 index)\r... */\n      dup1\n      calldataload\n      sub(shl(0xa0, 0x01), 0x01)\n      and\n      swap1\n      0x20\n      add\n      calldataload\n      0xffffffff\n      and\n      tag_149\n      jump\t// in\n        /* \"Entity.sol\":1268:1309  pendingData[] public pendingDataToReceive */\n    tag_19:\n      tag_150\n      0x04\n      dup1\n      calldatasize\n      sub\n        /* \"--CODEGEN--\":15:17   */\n      0x20\n        /* \"--CODEGEN--\":10:13   */\n      dup2\n        /* \"--CODEGEN--\":7:18   */\n      lt\n        /* \"--CODEGEN--\":4:6   */\n      iszero\n      tag_151\n      jumpi\n        /* \"--CODEGEN--\":31:32   */\n      0x00\n        /* \"--CODEGEN--\":28:29   */\n      dup1\n        /* \"--CODEGEN--\":21:33   */\n      revert\n        /* \"--CODEGEN--\":4:6   */\n    tag_151:\n      pop\n        /* \"Entity.sol\":1268:1309  pendingData[] public pendingDataToReceive */\n      calldataload\n      tag_152\n      jump\t// in\n    tag_150:\n      mload(0x40)\n      dup1\n      dup6\n      sub(shl(0xa0, 0x01), 0x01)\n      and\n      sub(shl(0xa0, 0x01), 0x01)\n      and\n      dup2\n      mstore\n      0x20\n      add\n      dup5\n      sub(shl(0xa0, 0x01), 0x01)\n      and\n      sub(shl(0xa0, 0x01), 0x01)\n      and\n      dup2\n      mstore\n      0x20\n      add\n      dup1\n      0x20\n      add\n      dup4\n      iszero\n      iszero\n      iszero\n      iszero\n      dup2\n      mstore\n      0x20\n      add\n      dup3\n      dup2\n      sub\n      dup3\n      mstore\n      dup5\n      dup2\n      dup2\n      mload\n      dup2\n      mstore\n      0x20\n      add\n      swap2\n      pop\n      dup1\n      mload\n      swap1\n      0x20\n      add\n      swap1\n      dup1\n      dup4\n      dup4\n        /* \"--CODEGEN--\":23:24   */\n      0x00\n        /* \"--CODEGEN--\":8:108   */\n    tag_153:\n        /* \"--CODEGEN--\":33:36   */\n      dup4\n        /* \"--CODEGEN--\":30:31   */\n      dup2\n        /* \"--CODEGEN--\":27:37   */\n      lt\n        /* \"--CODEGEN--\":8:108   */\n      iszero\n      tag_155\n      jumpi\n        /* \"--CODEGEN--\":90:101   */\n      dup2\n      dup2\n      add\n        /* \"--CODEGEN--\":84:102   */\n      mload\n        /* \"--CODEGEN--\":71:82   */\n      dup4\n      dup3\n      add\n        /* \"--CODEGEN--\":64:103   */\n      mstore\n        /* \"--CODEGEN--\":52:54   */\n      0x20\n        /* \"--CODEGEN--\":45:55   */\n      add\n        /* \"--CODEGEN--\":8:108   */\n      jump(tag_153)\n    tag_155:\n        /* \"--CODEGEN--\":12:26   */\n      pop\n        /* \"Entity.sol\":1268:1309  pendingData[] public pendingDataToReceive */\n      pop\n      pop\n      pop\n      swap1\n      pop\n      swap1\n      dup2\n      add\n      swap1\n      0x1f\n      and\n      dup1\n      iszero\n      tag_156\n      jumpi\n      dup1\n      dup3\n      sub\n      dup1\n      mload\n      0x01\n      dup4\n      0x20\n      sub\n      0x0100\n      exp\n      sub\n      not\n      and\n      dup2\n      mstore\n      0x20\n      add\n      swap2\n      pop\n    tag_156:\n      pop\n      swap6\n      pop\n      pop\n      pop\n      pop\n      pop\n      pop\n      mload(0x40)\n      dup1\n      swap2\n      sub\n      swap1\n      return\n        /* \"Entity.sol\":1860:2084  function _receiveData(string calldata _key, string calldata _value, uint32 index)\r... */\n    tag_20:\n      tag_109\n      0x04\n      dup1\n      calldatasize\n      sub\n        /* \"--CODEGEN--\":15:17   */\n      0x60\n        /* \"--CODEGEN--\":10:13   */\n      dup2\n        /* \"--CODEGEN--\":7:18   */\n      lt\n        /* \"--CODEGEN--\":4:6   */\n      iszero\n      tag_158\n      jumpi\n        /* \"--CODEGEN--\":31:32   */\n      0x00\n        /* \"--CODEGEN--\":28:29   */\n      dup1\n        /* \"--CODEGEN--\":21:33   */\n      revert\n        /* \"--CODEGEN--\":4:6   */\n    tag_158:\n        /* \"Entity.sol\":1860:2084  function _receiveData(string calldata _key, string calldata _value, uint32 index)\r... */\n      dup2\n      add\n      swap1\n      0x20\n      dup2\n      add\n      dup2\n      calldataload\n      shl(0x20, 0x01)\n        /* \"--CODEGEN--\":11:39   */\n      dup2\n      gt\n        /* \"--CODEGEN--\":8:10   */\n      iszero\n      tag_159\n      jumpi\n        /* \"--CODEGEN--\":52:53   */\n      0x00\n        /* \"--CODEGEN--\":49:50   */\n      dup1\n        /* \"--CODEGEN--\":42:54   */\n      revert\n        /* \"--CODEGEN--\":8:10   */\n    tag_159:\n        /* \"Entity.sol\":1860:2084  function _receiveData(string calldata _key, string calldata _value, uint32 index)\r... */\n      dup3\n      add\n        /* \"--CODEGEN--\":41:50   */\n      dup4\n        /* \"--CODEGEN--\":34:38   */\n      0x20\n        /* \"--CODEGEN--\":18:32   */\n      dup3\n        /* \"--CODEGEN--\":14:39   */\n      add\n        /* \"--CODEGEN--\":11:51   */\n      gt\n        /* \"--CODEGEN--\":8:10   */\n      iszero\n      tag_160\n      jumpi\n        /* \"--CODEGEN--\":64:65   */\n      0x00\n        /* \"--CODEGEN--\":61:62   */\n      dup1\n        /* \"--CODEGEN--\":54:66   */\n      revert\n        /* \"--CODEGEN--\":8:10   */\n    tag_160:\n        /* \"Entity.sol\":1860:2084  function _receiveData(string calldata _key, string calldata _value, uint32 index)\r... */\n      dup1\n      calldataload\n      swap1\n      0x20\n      add\n      swap2\n        /* \"--CODEGEN--\":100:109   */\n      dup5\n        /* \"--CODEGEN--\":95:96   */\n      0x01\n        /* \"--CODEGEN--\":81:93   */\n      dup4\n        /* \"--CODEGEN--\":77:97   */\n      mul\n        /* \"--CODEGEN--\":67:75   */\n      dup5\n        /* \"--CODEGEN--\":63:98   */\n      add\n        /* \"--CODEGEN--\":60:110   */\n      gt\n      shl(0x20, 0x01)\n        /* \"--CODEGEN--\":25:37   */\n      dup4\n        /* \"--CODEGEN--\":22:51   */\n      gt\n        /* \"--CODEGEN--\":11:118   */\n      or\n        /* \"--CODEGEN--\":8:10   */\n      iszero\n      tag_161\n      jumpi\n        /* \"--CODEGEN--\":131:132   */\n      0x00\n        /* \"--CODEGEN--\":128:129   */\n      dup1\n        /* \"--CODEGEN--\":121:133   */\n      revert\n        /* \"--CODEGEN--\":8:10   */\n    tag_161:\n        /* \"Entity.sol\":1860:2084  function _receiveData(string calldata _key, string calldata _value, uint32 index)\r... */\n      swap2\n      swap4\n      swap1\n      swap3\n      swap1\n      swap2\n      0x20\n      dup2\n      add\n      swap1\n      calldataload\n      shl(0x20, 0x01)\n        /* \"--CODEGEN--\":11:39   */\n      dup2\n      gt\n        /* \"--CODEGEN--\":8:10   */\n      iszero\n      tag_162\n      jumpi\n        /* \"--CODEGEN--\":52:53   */\n      0x00\n        /* \"--CODEGEN--\":49:50   */\n      dup1\n        /* \"--CODEGEN--\":42:54   */\n      revert\n        /* \"--CODEGEN--\":8:10   */\n    tag_162:\n        /* \"Entity.sol\":1860:2084  function _receiveData(string calldata _key, string calldata _value, uint32 index)\r... */\n      dup3\n      add\n        /* \"--CODEGEN--\":41:50   */\n      dup4\n        /* \"--CODEGEN--\":34:38   */\n      0x20\n        /* \"--CODEGEN--\":18:32   */\n      dup3\n        /* \"--CODEGEN--\":14:39   */\n      add\n        /* \"--CODEGEN--\":11:51   */\n      gt\n        /* \"--CODEGEN--\":8:10   */\n      iszero\n      tag_163\n      jumpi\n        /* \"--CODEGEN--\":64:65   */\n      0x00\n        /* \"--CODEGEN--\":61:62   */\n      dup1\n        /* \"--CODEGEN--\":54:66   */\n      revert\n        /* \"--CODEGEN--\":8:10   */\n    tag_163:\n        /* \"Entity.sol\":1860:2084  function _receiveData(string calldata _key, string calldata _value, uint32 index)\r... */\n      dup1\n      calldataload\n      swap1\n      0x20\n      add\n      swap2\n        /* \"--CODEGEN--\":100:109   */\n      dup5\n        /* \"--CODEGEN--\":95:96   */\n      0x01\n        /* \"--CODEGEN--\":81:93   */\n      dup4\n        /* \"--CODEGEN--\":77:97   */\n      mul\n        /* \"--CODEGEN--\":67:75   */\n      dup5\n        /* \"--CODEGEN--\":63:98   */\n      add\n        /* \"--CODEGEN--\":60:110   */\n      gt\n      shl(0x20, 0x01)\n        /* \"--CODEGEN--\":25:37   */\n      dup4\n        /* \"--CODEGEN--\":22:51   */\n      gt\n        /* \"--CODEGEN--\":11:118   */\n      or\n        /* \"--CODEGEN--\":8:10   */\n      iszero\n      tag_164\n      jumpi\n        /* \"--CODEGEN--\":131:132   */\n      0x00\n        /* \"--CODEGEN--\":128:129   */\n      dup1\n        /* \"--CODEGEN--\":121:133   */\n      revert\n        /* \"--CODEGEN--\":8:10   */\n    tag_164:\n        /* \"Entity.sol\":1860:2084  function _receiveData(string calldata _key, string calldata _value, uint32 index)\r... */\n      swap2\n      swap4\n      pop\n      swap2\n      pop\n      calldataload\n      0xffffffff\n      and\n      tag_165\n      jump\t// in\n        /* \"Entity.sol\":8513:8685  function dataSizeToSend(uint32 index) \r... */\n    tag_21:\n      tag_72\n      0x04\n      dup1\n      calldatasize\n      sub\n        /* \"--CODEGEN--\":15:17   */\n      0x20\n        /* \"--CODEGEN--\":10:13   */\n      dup2\n        /* \"--CODEGEN--\":7:18   */\n      lt\n        /* \"--CODEGEN--\":4:6   */\n      iszero\n      tag_167\n      jumpi\n        /* \"--CODEGEN--\":31:32   */\n      0x00\n        /* \"--CODEGEN--\":28:29   */\n      dup1\n        /* \"--CODEGEN--\":21:33   */\n      revert\n        /* \"--CODEGEN--\":4:6   */\n    tag_167:\n      pop\n        /* \"Entity.sol\":8513:8685  function dataSizeToSend(uint32 index) \r... */\n      calldataload\n      0xffffffff\n      and\n      tag_168\n      jump\t// in\n        /* \"Entity.sol\":1402:1440  pendingData[] public pendingDataToSend */\n    tag_22:\n      tag_150\n      0x04\n      dup1\n      calldatasize\n      sub\n        /* \"--CODEGEN--\":15:17   */\n      0x20\n        /* \"--CODEGEN--\":10:13   */\n      dup2\n        /* \"--CODEGEN--\":7:18   */\n      lt\n        /* \"--CODEGEN--\":4:6   */\n      iszero\n      tag_170\n      jumpi\n        /* \"--CODEGEN--\":31:32   */\n      0x00\n        /* \"--CODEGEN--\":28:29   */\n      dup1\n        /* \"--CODEGEN--\":21:33   */\n      revert\n        /* \"--CODEGEN--\":4:6   */\n    tag_170:\n      pop\n        /* \"Entity.sol\":1402:1440  pendingData[] public pendingDataToSend */\n      calldataload\n      tag_171\n      jump\t// in\n        /* \"Entity.sol\":1158:1223  mapping(address=>mapping(string=>bool)) public writtenDescription */\n    tag_23:\n      tag_120\n      0x04\n      dup1\n      calldatasize\n      sub\n        /* \"--CODEGEN--\":15:17   */\n      0x40\n        /* \"--CODEGEN--\":10:13   */\n      dup2\n        /* \"--CODEGEN--\":7:18   */\n      lt\n        /* \"--CODEGEN--\":4:6   */\n      iszero\n      tag_177\n      jumpi\n        /* \"--CODEGEN--\":31:32   */\n      0x00\n        /* \"--CODEGEN--\":28:29   */\n      dup1\n        /* \"--CODEGEN--\":21:33   */\n      revert\n        /* \"--CODEGEN--\":4:6   */\n    tag_177:\n      sub(shl(0xa0, 0x01), 0x01)\n        /* \"Entity.sol\":1158:1223  mapping(address=>mapping(string=>bool)) public writtenDescription */\n      dup3\n      calldataload\n      and\n      swap2\n      swap1\n      dup2\n      add\n      swap1\n      0x40\n      dup2\n      add\n      0x20\n      dup3\n      add\n      calldataload\n      shl(0x20, 0x01)\n        /* \"--CODEGEN--\":11:39   */\n      dup2\n      gt\n        /* \"--CODEGEN--\":8:10   */\n      iszero\n      tag_178\n      jumpi\n        /* \"--CODEGEN--\":52:53   */\n      0x00\n        /* \"--CODEGEN--\":49:50   */\n      dup1\n        /* \"--CODEGEN--\":42:54   */\n      revert\n        /* \"--CODEGEN--\":8:10   */\n    tag_178:\n        /* \"Entity.sol\":1158:1223  mapping(address=>mapping(string=>bool)) public writtenDescription */\n      dup3\n      add\n        /* \"--CODEGEN--\":41:50   */\n      dup4\n        /* \"--CODEGEN--\":34:38   */\n      0x20\n        /* \"--CODEGEN--\":18:32   */\n      dup3\n        /* \"--CODEGEN--\":14:39   */\n      add\n        /* \"--CODEGEN--\":11:51   */\n      gt\n        /* \"--CODEGEN--\":8:10   */\n      iszero\n      tag_179\n      jumpi\n        /* \"--CODEGEN--\":64:65   */\n      0x00\n        /* \"--CODEGEN--\":61:62   */\n      dup1\n        /* \"--CODEGEN--\":54:66   */\n      revert\n        /* \"--CODEGEN--\":8:10   */\n    tag_179:\n        /* \"Entity.sol\":1158:1223  mapping(address=>mapping(string=>bool)) public writtenDescription */\n      dup1\n      calldataload\n      swap1\n      0x20\n      add\n      swap2\n        /* \"--CODEGEN--\":100:109   */\n      dup5\n        /* \"--CODEGEN--\":95:96   */\n      0x01\n        /* \"--CODEGEN--\":81:93   */\n      dup4\n        /* \"--CODEGEN--\":77:97   */\n      mul\n        /* \"--CODEGEN--\":67:75   */\n      dup5\n        /* \"--CODEGEN--\":63:98   */\n      add\n        /* \"--CODEGEN--\":60:110   */\n      gt\n      shl(0x20, 0x01)\n        /* \"--CODEGEN--\":25:37   */\n      dup4\n        /* \"--CODEGEN--\":22:51   */\n      gt\n        /* \"--CODEGEN--\":11:118   */\n      or\n        /* \"--CODEGEN--\":8:10   */\n      iszero\n      tag_180\n      jumpi\n        /* \"--CODEGEN--\":131:132   */\n      0x00\n        /* \"--CODEGEN--\":128:129   */\n      dup1\n        /* \"--CODEGEN--\":121:133   */\n      revert\n        /* \"--CODEGEN--\":8:10   */\n    tag_180:\n        /* \"Entity.sol\":1158:1223  mapping(address=>mapping(string=>bool)) public writtenDescription */\n      swap2\n      swap1\n      dup1\n      dup1\n      0x1f\n      add\n      0x20\n      dup1\n      swap2\n      div\n      mul\n      0x20\n      add\n      mload(0x40)\n      swap1\n      dup2\n      add\n      0x40\n      mstore\n      dup1\n      swap4\n      swap3\n      swap2\n      swap1\n      dup2\n      dup2\n      mstore\n      0x20\n      add\n      dup4\n      dup4\n        /* \"--CODEGEN--\":30:33   */\n      dup1\n        /* \"--CODEGEN--\":22:28   */\n      dup3\n        /* \"--CODEGEN--\":14:20   */\n      dup5\n        /* \"--CODEGEN--\":1:34   */\n      calldatacopy\n        /* \"--CODEGEN--\":99:100   */\n      0x00\n        /* \"--CODEGEN--\":81:97   */\n      swap3\n      add\n        /* \"--CODEGEN--\":74:101   */\n      swap2\n      swap1\n      swap2\n      mstore\n      pop\n        /* \"Entity.sol\":1158:1223  mapping(address=>mapping(string=>bool)) public writtenDescription */\n      swap3\n      swap6\n      pop\n      tag_181\n      swap5\n      pop\n      pop\n      pop\n      pop\n      pop\n      jump\t// in\n        /* \"Entity.sol\":1485:1848  function _newData(string calldata _description)\r... */\n    tag_24:\n      tag_72\n      0x04\n      dup1\n      calldatasize\n      sub\n        /* \"--CODEGEN--\":15:17   */\n      0x20\n        /* \"--CODEGEN--\":10:13   */\n      dup2\n        /* \"--CODEGEN--\":7:18   */\n      lt\n        /* \"--CODEGEN--\":4:6   */\n      iszero\n      tag_183\n      jumpi\n        /* \"--CODEGEN--\":31:32   */\n      0x00\n        /* \"--CODEGEN--\":28:29   */\n      dup1\n        /* \"--CODEGEN--\":21:33   */\n      revert\n        /* \"--CODEGEN--\":4:6   */\n    tag_183:\n        /* \"Entity.sol\":1485:1848  function _newData(string calldata _description)\r... */\n      dup2\n      add\n      swap1\n      0x20\n      dup2\n      add\n      dup2\n      calldataload\n      shl(0x20, 0x01)\n        /* \"--CODEGEN--\":11:39   */\n      dup2\n      gt\n        /* \"--CODEGEN--\":8:10   */\n      iszero\n      tag_184\n      jumpi\n        /* \"--CODEGEN--\":52:53   */\n      0x00\n        /* \"--CODEGEN--\":49:50   */\n      dup1\n        /* \"--CODEGEN--\":42:54   */\n      revert\n        /* \"--CODEGEN--\":8:10   */\n    tag_184:\n        /* \"Entity.sol\":1485:1848  function _newData(string calldata _description)\r... */\n      dup3\n      add\n        /* \"--CODEGEN--\":41:50   */\n      dup4\n        /* \"--CODEGEN--\":34:38   */\n      0x20\n        /* \"--CODEGEN--\":18:32   */\n      dup3\n        /* \"--CODEGEN--\":14:39   */\n      add\n        /* \"--CODEGEN--\":11:51   */\n      gt\n        /* \"--CODEGEN--\":8:10   */\n      iszero\n      tag_185\n      jumpi\n        /* \"--CODEGEN--\":64:65   */\n      0x00\n        /* \"--CODEGEN--\":61:62   */\n      dup1\n        /* \"--CODEGEN--\":54:66   */\n      revert\n        /* \"--CODEGEN--\":8:10   */\n    tag_185:\n        /* \"Entity.sol\":1485:1848  function _newData(string calldata _description)\r... */\n      dup1\n      calldataload\n      swap1\n      0x20\n      add\n      swap2\n        /* \"--CODEGEN--\":100:109   */\n      dup5\n        /* \"--CODEGEN--\":95:96   */\n      0x01\n        /* \"--CODEGEN--\":81:93   */\n      dup4\n        /* \"--CODEGEN--\":77:97   */\n      mul\n        /* \"--CODEGEN--\":67:75   */\n      dup5\n        /* \"--CODEGEN--\":63:98   */\n      add\n        /* \"--CODEGEN--\":60:110   */\n      gt\n      shl(0x20, 0x01)\n        /* \"--CODEGEN--\":25:37   */\n      dup4\n        /* \"--CODEGEN--\":22:51   */\n      gt\n        /* \"--CODEGEN--\":11:118   */\n      or\n        /* \"--CODEGEN--\":8:10   */\n      iszero\n      tag_186\n      jumpi\n        /* \"--CODEGEN--\":131:132   */\n      0x00\n        /* \"--CODEGEN--\":128:129   */\n      dup1\n        /* \"--CODEGEN--\":121:133   */\n      revert\n        /* \"--CODEGEN--\":8:10   */\n    tag_186:\n      pop\n        /* \"Entity.sol\":1485:1848  function _newData(string calldata _description)\r... */\n      swap1\n      swap3\n      pop\n      swap1\n      pop\n      tag_187\n      jump\t// in\n        /* \"Entity.sol\":9367:9539  function descriptionLength(address source)\r... */\n    tag_25:\n      tag_72\n      0x04\n      dup1\n      calldatasize\n      sub\n        /* \"--CODEGEN--\":15:17   */\n      0x20\n        /* \"--CODEGEN--\":10:13   */\n      dup2\n        /* \"--CODEGEN--\":7:18   */\n      lt\n        /* \"--CODEGEN--\":4:6   */\n      iszero\n      tag_189\n      jumpi\n        /* \"--CODEGEN--\":31:32   */\n      0x00\n        /* \"--CODEGEN--\":28:29   */\n      dup1\n        /* \"--CODEGEN--\":21:33   */\n      revert\n        /* \"--CODEGEN--\":4:6   */\n    tag_189:\n      pop\n        /* \"Entity.sol\":9367:9539  function descriptionLength(address source)\r... */\n      calldataload\n      sub(shl(0xa0, 0x01), 0x01)\n      and\n      tag_190\n      jump\t// in\n        /* \"Entity.sol\":8345:8501  function pendingDataToSendCount() \r... */\n    tag_26:\n      tag_72\n      tag_192\n      jump\t// in\n        /* \"Entity.sol\":859:909  mapping(address=>uint32) public recentSendingIndex */\n    tag_27:\n      tag_72\n      0x04\n      dup1\n      calldatasize\n      sub\n        /* \"--CODEGEN--\":15:17   */\n      0x20\n        /* \"--CODEGEN--\":10:13   */\n      dup2\n        /* \"--CODEGEN--\":7:18   */\n      lt\n        /* \"--CODEGEN--\":4:6   */\n      iszero\n      tag_194\n      jumpi\n        /* \"--CODEGEN--\":31:32   */\n      0x00\n        /* \"--CODEGEN--\":28:29   */\n      dup1\n        /* \"--CODEGEN--\":21:33   */\n      revert\n        /* \"--CODEGEN--\":4:6   */\n    tag_194:\n      pop\n        /* \"Entity.sol\":859:909  mapping(address=>uint32) public recentSendingIndex */\n      calldataload\n      sub(shl(0xa0, 0x01), 0x01)\n      and\n      tag_195\n      jump\t// in\n        /* \"Entity.sol\":4369:4630  function keyValueOfDataToReceive(uint32 index, uint32 keyIndex)\r... */\n    tag_28:\n      tag_51\n      0x04\n      dup1\n      calldatasize\n      sub\n        /* \"--CODEGEN--\":15:17   */\n      0x40\n        /* \"--CODEGEN--\":10:13   */\n      dup2\n        /* \"--CODEGEN--\":7:18   */\n      lt\n        /* \"--CODEGEN--\":4:6   */\n      iszero\n      tag_197\n      jumpi\n        /* \"--CODEGEN--\":31:32   */\n      0x00\n        /* \"--CODEGEN--\":28:29   */\n      dup1\n        /* \"--CODEGEN--\":21:33   */\n      revert\n        /* \"--CODEGEN--\":4:6   */\n    tag_197:\n      pop\n        /* \"Entity.sol\":4369:4630  function keyValueOfDataToReceive(uint32 index, uint32 keyIndex)\r... */\n      0xffffffff\n      dup2\n      calldataload\n      dup2\n      and\n      swap2\n      0x20\n      add\n      calldataload\n      and\n      tag_198\n      jump\t// in\n        /* \"Entity.sol\":8129:8333  function approveMultipleToSend(address multipleEntity, uint32 index)\r... */\n    tag_29:\n      tag_109\n      0x04\n      dup1\n      calldatasize\n      sub\n        /* \"--CODEGEN--\":15:17   */\n      0x40\n        /* \"--CODEGEN--\":10:13   */\n      dup2\n        /* \"--CODEGEN--\":7:18   */\n      lt\n        /* \"--CODEGEN--\":4:6   */\n      iszero\n      tag_208\n      jumpi\n        /* \"--CODEGEN--\":31:32   */\n      0x00\n        /* \"--CODEGEN--\":28:29   */\n      dup1\n        /* \"--CODEGEN--\":21:33   */\n      revert\n        /* \"--CODEGEN--\":4:6   */\n    tag_208:\n      pop\n        /* \"Entity.sol\":8129:8333  function approveMultipleToSend(address multipleEntity, uint32 index)\r... */\n      dup1\n      calldataload\n      sub(shl(0xa0, 0x01), 0x01)\n      and\n      swap1\n      0x20\n      add\n      calldataload\n      0xffffffff\n      and\n      tag_209\n      jump\t// in\n        /* \"Entity.sol\":832:852  bool public isSingle */\n    tag_30:\n      tag_120\n      tag_211\n      jump\t// in\n        /* \"Entity.sol\":7305:7563  function addDataMultipleToSend(address multipleEntity, string memory _key, string memory _value, uint32 index) \r... */\n    tag_31:\n      tag_109\n      0x04\n      dup1\n      calldatasize\n      sub\n        /* \"--CODEGEN--\":15:18   */\n      0x80\n        /* \"--CODEGEN--\":10:13   */\n      dup2\n        /* \"--CODEGEN--\":7:19   */\n      lt\n        /* \"--CODEGEN--\":4:6   */\n      iszero\n      tag_213\n      jumpi\n        /* \"--CODEGEN--\":32:33   */\n      0x00\n        /* \"--CODEGEN--\":29:30   */\n      dup1\n        /* \"--CODEGEN--\":22:34   */\n      revert\n        /* \"--CODEGEN--\":4:6   */\n    tag_213:\n      sub(shl(0xa0, 0x01), 0x01)\n        /* \"Entity.sol\":7305:7563  function addDataMultipleToSend(address multipleEntity, string memory _key, string memory _value, uint32 index) \r... */\n      dup3\n      calldataload\n      and\n      swap2\n      swap1\n      dup2\n      add\n      swap1\n      0x40\n      dup2\n      add\n      0x20\n      dup3\n      add\n      calldataload\n      shl(0x20, 0x01)\n        /* \"--CODEGEN--\":11:39   */\n      dup2\n      gt\n        /* \"--CODEGEN--\":8:10   */\n      iszero\n      tag_214\n      jumpi\n        /* \"--CODEGEN--\":52:53   */\n      0x00\n        /* \"--CODEGEN--\":49:50   */\n      dup1\n        /* \"--CODEGEN--\":42:54   */\n      revert\n        /* \"--CODEGEN--\":8:10   */\n    tag_214:\n        /* \"Entity.sol\":7305:7563  function addDataMultipleToSend(address multipleEntity, string memory _key, string memory _value, uint32 index) \r... */\n      dup3\n      add\n        /* \"--CODEGEN--\":41:50   */\n      dup4\n        /* \"--CODEGEN--\":34:38   */\n      0x20\n        /* \"--CODEGEN--\":18:32   */\n      dup3\n        /* \"--CODEGEN--\":14:39   */\n      add\n        /* \"--CODEGEN--\":11:51   */\n      gt\n        /* \"--CODEGEN--\":8:10   */\n      iszero\n      tag_215\n      jumpi\n        /* \"--CODEGEN--\":64:65   */\n      0x00\n        /* \"--CODEGEN--\":61:62   */\n      dup1\n        /* \"--CODEGEN--\":54:66   */\n      revert\n        /* \"--CODEGEN--\":8:10   */\n    tag_215:\n        /* \"Entity.sol\":7305:7563  function addDataMultipleToSend(address multipleEntity, string memory _key, string memory _value, uint32 index) \r... */\n      dup1\n      calldataload\n      swap1\n      0x20\n      add\n      swap2\n        /* \"--CODEGEN--\":100:109   */\n      dup5\n        /* \"--CODEGEN--\":95:96   */\n      0x01\n        /* \"--CODEGEN--\":81:93   */\n      dup4\n        /* \"--CODEGEN--\":77:97   */\n      mul\n        /* \"--CODEGEN--\":67:75   */\n      dup5\n        /* \"--CODEGEN--\":63:98   */\n      add\n        /* \"--CODEGEN--\":60:110   */\n      gt\n      shl(0x20, 0x01)\n        /* \"--CODEGEN--\":25:37   */\n      dup4\n        /* \"--CODEGEN--\":22:51   */\n      gt\n        /* \"--CODEGEN--\":11:118   */\n      or\n        /* \"--CODEGEN--\":8:10   */\n      iszero\n      tag_216\n      jumpi\n        /* \"--CODEGEN--\":131:132   */\n      0x00\n        /* \"--CODEGEN--\":128:129   */\n      dup1\n        /* \"--CODEGEN--\":121:133   */\n      revert\n        /* \"--CODEGEN--\":8:10   */\n    tag_216:\n        /* \"Entity.sol\":7305:7563  function addDataMultipleToSend(address multipleEntity, string memory _key, string memory _value, uint32 index) \r... */\n      swap2\n      swap1\n      dup1\n      dup1\n      0x1f\n      add\n      0x20\n      dup1\n      swap2\n      div\n      mul\n      0x20\n      add\n      mload(0x40)\n      swap1\n      dup2\n      add\n      0x40\n      mstore\n      dup1\n      swap4\n      swap3\n      swap2\n      swap1\n      dup2\n      dup2\n      mstore\n      0x20\n      add\n      dup4\n      dup4\n        /* \"--CODEGEN--\":30:33   */\n      dup1\n        /* \"--CODEGEN--\":22:28   */\n      dup3\n        /* \"--CODEGEN--\":14:20   */\n      dup5\n        /* \"--CODEGEN--\":1:34   */\n      calldatacopy\n        /* \"--CODEGEN--\":99:100   */\n      0x00\n        /* \"--CODEGEN--\":81:97   */\n      swap3\n      add\n        /* \"--CODEGEN--\":74:101   */\n      swap2\n      swap1\n      swap2\n      mstore\n      pop\n        /* \"Entity.sol\":7305:7563  function addDataMultipleToSend(address multipleEntity, string memory _key, string memory _value, uint32 index) \r... */\n      swap3\n      swap6\n      swap5\n      swap4\n      0x20\n      dup2\n      add\n      swap4\n      pop\n      calldataload\n      swap2\n      pop\n      pop\n      shl(0x20, 0x01)\n        /* \"--CODEGEN--\":11:39   */\n      dup2\n      gt\n        /* \"--CODEGEN--\":8:10   */\n      iszero\n      tag_217\n      jumpi\n        /* \"--CODEGEN--\":52:53   */\n      0x00\n        /* \"--CODEGEN--\":49:50   */\n      dup1\n        /* \"--CODEGEN--\":42:54   */\n      revert\n        /* \"--CODEGEN--\":8:10   */\n    tag_217:\n        /* \"Entity.sol\":7305:7563  function addDataMultipleToSend(address multipleEntity, string memory _key, string memory _value, uint32 index) \r... */\n      dup3\n      add\n        /* \"--CODEGEN--\":41:50   */\n      dup4\n        /* \"--CODEGEN--\":34:38   */\n      0x20\n        /* \"--CODEGEN--\":18:32   */\n      dup3\n        /* \"--CODEGEN--\":14:39   */\n      add\n        /* \"--CODEGEN--\":11:51   */\n      gt\n        /* \"--CODEGEN--\":8:10   */\n      iszero\n      tag_218\n      jumpi\n        /* \"--CODEGEN--\":64:65   */\n      0x00\n        /* \"--CODEGEN--\":61:62   */\n      dup1\n        /* \"--CODEGEN--\":54:66   */\n      revert\n        /* \"--CODEGEN--\":8:10   */\n    tag_218:\n        /* \"Entity.sol\":7305:7563  function addDataMultipleToSend(address multipleEntity, string memory _key, string memory _value, uint32 index) \r... */\n      dup1\n      calldataload\n      swap1\n      0x20\n      add\n      swap2\n        /* \"--CODEGEN--\":100:109   */\n      dup5\n        /* \"--CODEGEN--\":95:96   */\n      0x01\n        /* \"--CODEGEN--\":81:93   */\n      dup4\n        /* \"--CODEGEN--\":77:97   */\n      mul\n        /* \"--CODEGEN--\":67:75   */\n      dup5\n        /* \"--CODEGEN--\":63:98   */\n      add\n        /* \"--CODEGEN--\":60:110   */\n      gt\n      shl(0x20, 0x01)\n        /* \"--CODEGEN--\":25:37   */\n      dup4\n        /* \"--CODEGEN--\":22:51   */\n      gt\n        /* \"--CODEGEN--\":11:118   */\n      or\n        /* \"--CODEGEN--\":8:10   */\n      iszero\n      tag_219\n      jumpi\n        /* \"--CODEGEN--\":131:132   */\n      0x00\n        /* \"--CODEGEN--\":128:129   */\n      dup1\n        /* \"--CODEGEN--\":121:133   */\n      revert\n        /* \"--CODEGEN--\":8:10   */\n    tag_219:\n        /* \"Entity.sol\":7305:7563  function addDataMultipleToSend(address multipleEntity, string memory _key, string memory _value, uint32 index) \r... */\n      swap2\n      swap1\n      dup1\n      dup1\n      0x1f\n      add\n      0x20\n      dup1\n      swap2\n      div\n      mul\n      0x20\n      add\n      mload(0x40)\n      swap1\n      dup2\n      add\n      0x40\n      mstore\n      dup1\n      swap4\n      swap3\n      swap2\n      swap1\n      dup2\n      dup2\n      mstore\n      0x20\n      add\n      dup4\n      dup4\n        /* \"--CODEGEN--\":30:33   */\n      dup1\n        /* \"--CODEGEN--\":22:28   */\n      dup3\n        /* \"--CODEGEN--\":14:20   */\n      dup5\n        /* \"--CODEGEN--\":1:34   */\n      calldatacopy\n        /* \"--CODEGEN--\":99:100   */\n      0x00\n        /* \"--CODEGEN--\":81:97   */\n      swap3\n      add\n        /* \"--CODEGEN--\":74:101   */\n      swap2\n      swap1\n      swap2\n      mstore\n      pop\n        /* \"Entity.sol\":7305:7563  function addDataMultipleToSend(address multipleEntity, string memory _key, string memory _value, uint32 index) \r... */\n      swap3\n      swap6\n      pop\n      pop\n      pop\n      swap1\n      calldataload\n      0xffffffff\n      and\n      swap2\n      pop\n      tag_220\n      swap1\n      pop\n      jump\t// in\n        /* \"Entity.sol\":1049:1089  mapping(address=>bool) public hasWritten */\n    tag_32:\n      tag_120\n      0x04\n      dup1\n      calldatasize\n      sub\n        /* \"--CODEGEN--\":15:17   */\n      0x20\n        /* \"--CODEGEN--\":10:13   */\n      dup2\n        /* \"--CODEGEN--\":7:18   */\n      lt\n        /* \"--CODEGEN--\":4:6   */\n      iszero\n      tag_222\n      jumpi\n        /* \"--CODEGEN--\":31:32   */\n      0x00\n        /* \"--CODEGEN--\":28:29   */\n      dup1\n        /* \"--CODEGEN--\":21:33   */\n      revert\n        /* \"--CODEGEN--\":4:6   */\n    tag_222:\n      pop\n        /* \"Entity.sol\":1049:1089  mapping(address=>bool) public hasWritten */\n      calldataload\n      sub(shl(0xa0, 0x01), 0x01)\n      and\n      tag_223\n      jump\t// in\n        /* \"Entity.sol\":6665:7293  function addDataToSend(string memory _key, string memory _value, uint32 index) \r... */\n    tag_33:\n      tag_109\n      0x04\n      dup1\n      calldatasize\n      sub\n        /* \"--CODEGEN--\":15:17   */\n      0x60\n        /* \"--CODEGEN--\":10:13   */\n      dup2\n        /* \"--CODEGEN--\":7:18   */\n      lt\n        /* \"--CODEGEN--\":4:6   */\n      iszero\n      tag_225\n      jumpi\n        /* \"--CODEGEN--\":31:32   */\n      0x00\n        /* \"--CODEGEN--\":28:29   */\n      dup1\n        /* \"--CODEGEN--\":21:33   */\n      revert\n        /* \"--CODEGEN--\":4:6   */\n    tag_225:\n        /* \"Entity.sol\":6665:7293  function addDataToSend(string memory _key, string memory _value, uint32 index) \r... */\n      dup2\n      add\n      swap1\n      0x20\n      dup2\n      add\n      dup2\n      calldataload\n      shl(0x20, 0x01)\n        /* \"--CODEGEN--\":11:39   */\n      dup2\n      gt\n        /* \"--CODEGEN--\":8:10   */\n      iszero\n      tag_226\n      jumpi\n        /* \"--CODEGEN--\":52:53   */\n      0x00\n        /* \"--CODEGEN--\":49:50   */\n      dup1\n        /* \"--CODEGEN--\":42:54   */\n      revert\n        /* \"--CODEGEN--\":8:10   */\n    tag_226:\n        /* \"Entity.sol\":6665:7293  function addDataToSend(string memory _key, string memory _value, uint32 index) \r... */\n      dup3\n      add\n        /* \"--CODEGEN--\":41:50   */\n      dup4\n        /* \"--CODEGEN--\":34:38   */\n      0x20\n        /* \"--CODEGEN--\":18:32   */\n      dup3\n        /* \"--CODEGEN--\":14:39   */\n      add\n        /* \"--CODEGEN--\":11:51   */\n      gt\n        /* \"--CODEGEN--\":8:10   */\n      iszero\n      tag_227\n      jumpi\n        /* \"--CODEGEN--\":64:65   */\n      0x00\n        /* \"--CODEGEN--\":61:62   */\n      dup1\n        /* \"--CODEGEN--\":54:66   */\n      revert\n        /* \"--CODEGEN--\":8:10   */\n    tag_227:\n        /* \"Entity.sol\":6665:7293  function addDataToSend(string memory _key, string memory _value, uint32 index) \r... */\n      dup1\n      calldataload\n      swap1\n      0x20\n      add\n      swap2\n        /* \"--CODEGEN--\":100:109   */\n      dup5\n        /* \"--CODEGEN--\":95:96   */\n      0x01\n        /* \"--CODEGEN--\":81:93   */\n      dup4\n        /* \"--CODEGEN--\":77:97   */\n      mul\n        /* \"--CODEGEN--\":67:75   */\n      dup5\n        /* \"--CODEGEN--\":63:98   */\n      add\n        /* \"--CODEGEN--\":60:110   */\n      gt\n      shl(0x20, 0x01)\n        /* \"--CODEGEN--\":25:37   */\n      dup4\n        /* \"--CODEGEN--\":22:51   */\n      gt\n        /* \"--CODEGEN--\":11:118   */\n      or\n        /* \"--CODEGEN--\":8:10   */\n      iszero\n      tag_228\n      jumpi\n        /* \"--CODEGEN--\":131:132   */\n      0x00\n        /* \"--CODEGEN--\":128:129   */\n      dup1\n        /* \"--CODEGEN--\":121:133   */\n      revert\n        /* \"--CODEGEN--\":8:10   */\n    tag_228:\n        /* \"Entity.sol\":6665:7293  function addDataToSend(string memory _key, string memory _value, uint32 index) \r... */\n      swap2\n      swap1\n      dup1\n      dup1\n      0x1f\n      add\n      0x20\n      dup1\n      swap2\n      div\n      mul\n      0x20\n      add\n      mload(0x40)\n      swap1\n      dup2\n      add\n      0x40\n      mstore\n      dup1\n      swap4\n      swap3\n      swap2\n      swap1\n      dup2\n      dup2\n      mstore\n      0x20\n      add\n      dup4\n      dup4\n        /* \"--CODEGEN--\":30:33   */\n      dup1\n        /* \"--CODEGEN--\":22:28   */\n      dup3\n        /* \"--CODEGEN--\":14:20   */\n      dup5\n        /* \"--CODEGEN--\":1:34   */\n      calldatacopy\n        /* \"--CODEGEN--\":99:100   */\n      0x00\n        /* \"--CODEGEN--\":81:97   */\n      swap3\n      add\n        /* \"--CODEGEN--\":74:101   */\n      swap2\n      swap1\n      swap2\n      mstore\n      pop\n        /* \"Entity.sol\":6665:7293  function addDataToSend(string memory _key, string memory _value, uint32 index) \r... */\n      swap3\n      swap6\n      swap5\n      swap4\n      0x20\n      dup2\n      add\n      swap4\n      pop\n      calldataload\n      swap2\n      pop\n      pop\n      shl(0x20, 0x01)\n        /* \"--CODEGEN--\":11:39   */\n      dup2\n      gt\n        /* \"--CODEGEN--\":8:10   */\n      iszero\n      tag_229\n      jumpi\n        /* \"--CODEGEN--\":52:53   */\n      0x00\n        /* \"--CODEGEN--\":49:50   */\n      dup1\n        /* \"--CODEGEN--\":42:54   */\n      revert\n        /* \"--CODEGEN--\":8:10   */\n    tag_229:\n        /* \"Entity.sol\":6665:7293  function addDataToSend(string memory _key, string memory _value, uint32 index) \r... */\n      dup3\n      add\n        /* \"--CODEGEN--\":41:50   */\n      dup4\n        /* \"--CODEGEN--\":34:38   */\n      0x20\n        /* \"--CODEGEN--\":18:32   */\n      dup3\n        /* \"--CODEGEN--\":14:39   */\n      add\n        /* \"--CODEGEN--\":11:51   */\n      gt\n        /* \"--CODEGEN--\":8:10   */\n      iszero\n      tag_230\n      jumpi\n        /* \"--CODEGEN--\":64:65   */\n      0x00\n        /* \"--CODEGEN--\":61:62   */\n      dup1\n        /* \"--CODEGEN--\":54:66   */\n      revert\n        /* \"--CODEGEN--\":8:10   */\n    tag_230:\n        /* \"Entity.sol\":6665:7293  function addDataToSend(string memory _key, string memory _value, uint32 index) \r... */\n      dup1\n      calldataload\n      swap1\n      0x20\n      add\n      swap2\n        /* \"--CODEGEN--\":100:109   */\n      dup5\n        /* \"--CODEGEN--\":95:96   */\n      0x01\n        /* \"--CODEGEN--\":81:93   */\n      dup4\n        /* \"--CODEGEN--\":77:97   */\n      mul\n        /* \"--CODEGEN--\":67:75   */\n      dup5\n        /* \"--CODEGEN--\":63:98   */\n      add\n        /* \"--CODEGEN--\":60:110   */\n      gt\n      shl(0x20, 0x01)\n        /* \"--CODEGEN--\":25:37   */\n      dup4\n        /* \"--CODEGEN--\":22:51   */\n      gt\n        /* \"--CODEGEN--\":11:118   */\n      or\n        /* \"--CODEGEN--\":8:10   */\n      iszero\n      tag_231\n      jumpi\n        /* \"--CODEGEN--\":131:132   */\n      0x00\n        /* \"--CODEGEN--\":128:129   */\n      dup1\n        /* \"--CODEGEN--\":121:133   */\n      revert\n        /* \"--CODEGEN--\":8:10   */\n    tag_231:\n        /* \"Entity.sol\":6665:7293  function addDataToSend(string memory _key, string memory _value, uint32 index) \r... */\n      swap2\n      swap1\n      dup1\n      dup1\n      0x1f\n      add\n      0x20\n      dup1\n      swap2\n      div\n      mul\n      0x20\n      add\n      mload(0x40)\n      swap1\n      dup2\n      add\n      0x40\n      mstore\n      dup1\n      swap4\n      swap3\n      swap2\n      swap1\n      dup2\n      dup2\n      mstore\n      0x20\n      add\n      dup4\n      dup4\n        /* \"--CODEGEN--\":30:33   */\n      dup1\n        /* \"--CODEGEN--\":22:28   */\n      dup3\n        /* \"--CODEGEN--\":14:20   */\n      dup5\n        /* \"--CODEGEN--\":1:34   */\n      calldatacopy\n        /* \"--CODEGEN--\":99:100   */\n      0x00\n        /* \"--CODEGEN--\":81:97   */\n      swap3\n      add\n        /* \"--CODEGEN--\":74:101   */\n      swap2\n      swap1\n      swap2\n      mstore\n      pop\n        /* \"Entity.sol\":6665:7293  function addDataToSend(string memory _key, string memory _value, uint32 index) \r... */\n      swap3\n      swap6\n      pop\n      pop\n      pop\n      swap1\n      calldataload\n      0xffffffff\n      and\n      swap2\n      pop\n      tag_232\n      swap1\n      pop\n      jump\t// in\n        /* \"Entity.sol\":9547:9714  function keysOfData(address src, string memory des)\r... */\n    tag_46:\n        /* \"Entity.sol\":9646:9659  string memory */\n      0x60\n        /* \"Entity.sol\":9684:9691  Storage */\n      0x02\n        /* \"Entity.sol\":9684:9696  Storage[src] */\n      0x00\n        /* \"Entity.sol\":9692:9695  src */\n      dup5\n      sub(shl(0xa0, 0x01), 0x01)\n        /* \"Entity.sol\":9684:9696  Storage[src] */\n      and\n      sub(shl(0xa0, 0x01), 0x01)\n      and\n      dup2\n      mstore\n      0x20\n      add\n      swap1\n      dup2\n      mstore\n      0x20\n      add\n      0x00\n      keccak256\n        /* \"Entity.sol\":9697:9700  des */\n      dup3\n        /* \"Entity.sol\":9684:9701  Storage[src][des] */\n      mload(0x40)\n      dup1\n      dup3\n      dup1\n      mload\n      swap1\n      0x20\n      add\n      swap1\n      dup1\n      dup4\n      dup4\n        /* \"--CODEGEN--\":36:189   */\n    tag_234:\n        /* \"--CODEGEN--\":66:68   */\n      0x20\n        /* \"--CODEGEN--\":61:64   */\n      dup4\n        /* \"--CODEGEN--\":58:69   */\n      lt\n        /* \"--CODEGEN--\":36:189   */\n      tag_236\n      jumpi\n        /* \"--CODEGEN--\":176:186   */\n      dup1\n      mload\n        /* \"--CODEGEN--\":164:187   */\n      dup3\n      mstore\n      not(0x1f)\n        /* \"--CODEGEN--\":139:151   */\n      swap1\n      swap3\n      add\n      swap2\n        /* \"--CODEGEN--\":98:100   */\n      0x20\n        /* \"--CODEGEN--\":89:101   */\n      swap2\n      dup3\n      add\n      swap2\n        /* \"--CODEGEN--\":114:126   */\n      add\n        /* \"--CODEGEN--\":36:189   */\n      jump(tag_234)\n    tag_236:\n        /* \"--CODEGEN--\":299:309   */\n      mload\n        /* \"--CODEGEN--\":344:354   */\n      dup2\n      mload\n      not(0x00)\n        /* \"--CODEGEN--\":263:265   */\n      0x20\n        /* \"--CODEGEN--\":259:271   */\n      swap5\n      dup6\n      sub\n        /* \"--CODEGEN--\":254:257   */\n      0x0100\n        /* \"--CODEGEN--\":250:272   */\n      swap1\n      dup2\n      exp\n        /* \"--CODEGEN--\":246:276   */\n      dup3\n      add\n        /* \"--CODEGEN--\":340:361   */\n      swap3\n      dup4\n      and\n        /* \"--CODEGEN--\":311:320   */\n      swap3\n      not\n        /* \"--CODEGEN--\":295:321   */\n      swap4\n      swap1\n      swap4\n      and\n        /* \"--CODEGEN--\":377:397   */\n      swap2\n      swap1\n      swap2\n      or\n        /* \"--CODEGEN--\":365:398   */\n      swap1\n      swap3\n      mstore\n        /* \"Entity.sol\":9684:9701  Storage[src][des] */\n      swap5\n      swap1\n      swap3\n      add\n      swap7\n      dup8\n      mstore\n      0x40\n      dup1\n      mload\n      swap8\n      dup9\n      swap1\n      sub\n      dup3\n      add\n      dup9\n      keccak256\n        /* \"Entity.sol\":9684:9706  Storage[src][des].keys */\n      0x02\n      swap1\n      dup2\n      add\n        /* \"Entity.sol\":9677:9706  return Storage[src][des].keys */\n      dup1\n      sload\n      0x1f\n        /* \"--CODEGEN--\":274:275   */\n      0x01\n        /* \"Entity.sol\":9677:9706  return Storage[src][des].keys */\n      dup3\n      and\n      iszero\n      swap1\n      swap9\n      mul\n      swap1\n      swap6\n      add\n      swap1\n      swap5\n      and\n      div\n      swap5\n      dup6\n      add\n      dup3\n      swap1\n      div\n      dup3\n      mul\n      dup9\n      add\n      dup3\n      add\n      swap1\n      mstore\n      dup4\n      dup8\n      mstore\n        /* \"Entity.sol\":9684:9706  Storage[src][des].keys */\n      swap1\n      swap5\n      pop\n        /* \"Entity.sol\":9677:9706  return Storage[src][des].keys */\n      swap2\n      swap3\n      pop\n      pop\n      dup4\n      add\n        /* \"Entity.sol\":9684:9706  Storage[src][des].keys */\n      dup3\n        /* \"Entity.sol\":9677:9706  return Storage[src][des].keys */\n      dup3\n      dup1\n      iszero\n      tag_237\n      jumpi\n      dup1\n      0x1f\n      lt\n      tag_238\n      jumpi\n      0x0100\n      dup1\n      dup4\n      sload\n      div\n      mul\n      dup4\n      mstore\n      swap2\n      0x20\n      add\n      swap2\n      jump(tag_237)\n    tag_238:\n      dup3\n      add\n      swap2\n      swap1\n      0x00\n      mstore\n      keccak256(0x00, 0x20)\n      swap1\n    tag_239:\n      dup2\n      sload\n      dup2\n      mstore\n      swap1\n      0x01\n      add\n      swap1\n      0x20\n      add\n      dup1\n      dup4\n      gt\n      tag_239\n      jumpi\n      dup3\n      swap1\n      sub\n      0x1f\n      and\n      dup3\n      add\n      swap2\n    tag_237:\n      pop\n      pop\n      pop\n      pop\n      pop\n      swap1\n      pop\n        /* \"Entity.sol\":9547:9714  function keysOfData(address src, string memory des)\r... */\n      swap3\n      swap2\n      pop\n      pop\n      jump\t// out\n        /* \"Entity.sol\":8697:8953  function keyValueOfDataToSend(uint32 index, uint32 keyIndex) \r... */\n    tag_53:\n        /* \"Entity.sol\":8809:8822  string memory */\n      0x60\n        /* \"Entity.sol\":8824:8837  string memory */\n      dup1\n        /* \"Entity.sol\":8864:8881  pendingDataToSend */\n      0x09\n        /* \"Entity.sol\":8882:8887  index */\n      dup5\n        /* \"Entity.sol\":8864:8888  pendingDataToSend[index] */\n      0xffffffff\n      and\n      dup2\n      sload\n      dup2\n      lt\n      tag_241\n      jumpi\n      invalid\n    tag_241:\n      swap1\n      0x00\n      mstore\n      keccak256(0x00, 0x20)\n      swap1\n      0x08\n      mul\n      add\n        /* \"Entity.sol\":8864:8892  pendingDataToSend[index].key */\n      0x03\n      add\n        /* \"Entity.sol\":8893:8901  keyIndex */\n      dup4\n        /* \"Entity.sol\":8864:8902  pendingDataToSend[index].key[keyIndex] */\n      0xffffffff\n      and\n      dup2\n      sload\n      dup2\n      lt\n      tag_243\n      jumpi\n      invalid\n    tag_243:\n      swap1\n      0x00\n      mstore\n      keccak256(0x00, 0x20)\n      add\n        /* \"Entity.sol\":8904:8921  pendingDataToSend */\n      0x09\n        /* \"Entity.sol\":8922:8927  index */\n      dup6\n        /* \"Entity.sol\":8904:8928  pendingDataToSend[index] */\n      0xffffffff\n      and\n      dup2\n      sload\n      dup2\n      lt\n      tag_245\n      jumpi\n      invalid\n    tag_245:\n      swap1\n      0x00\n      mstore\n      keccak256(0x00, 0x20)\n      swap1\n      0x08\n      mul\n      add\n        /* \"Entity.sol\":8904:8934  pendingDataToSend[index].value */\n      0x06\n      add\n        /* \"Entity.sol\":8935:8943  keyIndex */\n      dup5\n        /* \"Entity.sol\":8904:8944  pendingDataToSend[index].value[keyIndex] */\n      0xffffffff\n      and\n      dup2\n      sload\n      dup2\n      lt\n      tag_247\n      jumpi\n      invalid\n    tag_247:\n      0x00\n      swap2\n      dup3\n      mstore\n      0x20\n      swap2\n      dup3\n      swap1\n      keccak256\n        /* \"Entity.sol\":8856:8945  return (pendingDataToSend[index].key[keyIndex], pendingDataToSend[index].value[keyIndex]) */\n      dup4\n      sload\n      0x40\n      dup1\n      mload\n      0x02\n      0x01\n      dup5\n      and\n      iszero\n      0x0100\n      mul\n      not(0x00)\n      add\n      swap1\n      swap4\n      and\n      swap3\n      swap1\n      swap3\n      div\n      0x1f\n      dup2\n      add\n      dup7\n      swap1\n      div\n      dup7\n      mul\n      dup4\n      add\n      dup7\n      add\n      swap1\n      swap2\n      mstore\n      dup1\n      dup3\n      mstore\n        /* \"Entity.sol\":8904:8944  pendingDataToSend[index].value[keyIndex] */\n      swap3\n      swap1\n      swap2\n      add\n      swap3\n        /* \"Entity.sol\":8856:8945  return (pendingDataToSend[index].key[keyIndex], pendingDataToSend[index].value[keyIndex]) */\n      swap1\n      swap2\n      dup5\n      swap2\n      dup4\n      add\n      dup3\n      dup3\n      dup1\n      iszero\n      tag_249\n      jumpi\n      dup1\n      0x1f\n      lt\n      tag_250\n      jumpi\n      0x0100\n      dup1\n      dup4\n      sload\n      div\n      mul\n      dup4\n      mstore\n      swap2\n      0x20\n      add\n      swap2\n      jump(tag_249)\n    tag_250:\n      dup3\n      add\n      swap2\n      swap1\n      0x00\n      mstore\n      keccak256(0x00, 0x20)\n      swap1\n    tag_251:\n      dup2\n      sload\n      dup2\n      mstore\n      swap1\n      0x01\n      add\n      swap1\n      0x20\n      add\n      dup1\n      dup4\n      gt\n      tag_251\n      jumpi\n      dup3\n      swap1\n      sub\n      0x1f\n      and\n      dup3\n      add\n      swap2\n    tag_249:\n      pop\n      pop\n      dup5\n      sload\n      0x40\n      dup1\n      mload\n      0x20\n      0x02\n      0x01\n      dup6\n      and\n      iszero\n      0x0100\n      mul\n      not(0x00)\n      add\n      swap1\n      swap5\n      and\n      swap4\n      swap1\n      swap4\n      div\n      0x1f\n      dup2\n      add\n      dup5\n      swap1\n      div\n      dup5\n      mul\n      dup3\n      add\n      dup5\n      add\n      swap1\n      swap3\n      mstore\n      dup2\n      dup2\n      mstore\n      swap6\n      swap8\n      pop\n      dup7\n      swap5\n      pop\n      swap3\n      pop\n      dup5\n      add\n      swap1\n      pop\n      dup3\n      dup3\n      dup1\n      iszero\n      tag_252\n      jumpi\n      dup1\n      0x1f\n      lt\n      tag_253\n      jumpi\n      0x0100\n      dup1\n      dup4\n      sload\n      div\n      mul\n      dup4\n      mstore\n      swap2\n      0x20\n      add\n      swap2\n      jump(tag_252)\n    tag_253:\n      dup3\n      add\n      swap2\n      swap1\n      0x00\n      mstore\n      keccak256(0x00, 0x20)\n      swap1\n    tag_254:\n      dup2\n      sload\n      dup2\n      mstore\n      swap1\n      0x01\n      add\n      swap1\n      0x20\n      add\n      dup1\n      dup4\n      gt\n      tag_254\n      jumpi\n      dup3\n      swap1\n      sub\n      0x1f\n      and\n      dup3\n      add\n      swap2\n    tag_252:\n      pop\n      pop\n      pop\n      pop\n      pop\n      swap1\n      pop\n      swap2\n      pop\n      swap2\n      pop\n        /* \"Entity.sol\":8697:8953  function keyValueOfDataToSend(uint32 index, uint32 keyIndex) \r... */\n      swap3\n      pop\n      swap3\n      swap1\n      pop\n      jump\t// out\n        /* \"Entity.sol\":947:1008  mapping(address=>mapping(string=>storingData)) public Storage */\n    tag_67:\n      0x02\n      0x20\n      dup2\n      dup2\n      mstore\n      0x00\n      swap4\n      dup5\n      mstore\n      0x40\n      swap4\n      dup5\n      swap1\n      keccak256\n        /* \"--CODEGEN--\":22:36   */\n      dup4\n      mload\n        /* \"--CODEGEN--\":143:175   */\n      dup1\n      dup6\n      add\n      dup4\n      add\n        /* \"--CODEGEN--\":198:218   */\n      dup1\n      mload\n        /* \"--CODEGEN--\":224:255   */\n      swap3\n      dup2\n      mstore\n        /* \"--CODEGEN--\":156:174   */\n      swap1\n      dup4\n      add\n        /* \"--CODEGEN--\":283:301   */\n      swap5\n      dup4\n      add\n        /* \"--CODEGEN--\":273:322   */\n      swap5\n      swap1\n      swap5\n      keccak256\n        /* \"--CODEGEN--\":328:360   */\n      swap4\n      mstore\n        /* \"Entity.sol\":947:1008  mapping(address=>mapping(string=>storingData)) public Storage */\n      dup3\n      dup3\n      add\n      dup1\n      sload\n      dup6\n      mload\n      0x01\n      dup3\n      and\n      iszero\n      0x0100\n      mul\n      not(0x00)\n      add\n      swap1\n      swap2\n      and\n      swap4\n      swap1\n      swap4\n      div\n      0x1f\n      dup2\n      add\n      dup4\n      swap1\n      div\n      dup4\n      mul\n      dup5\n      add\n      dup4\n      add\n      swap1\n      swap6\n      mstore\n      dup5\n      dup4\n      mstore\n        /* \"--CODEGEN--\":273:322   */\n      swap3\n      swap4\n        /* \"Entity.sol\":947:1008  mapping(address=>mapping(string=>storingData)) public Storage */\n      swap2\n      swap3\n      swap2\n      swap1\n      dup4\n      add\n      dup3\n      dup3\n      dup1\n      iszero\n      tag_255\n      jumpi\n      dup1\n      0x1f\n      lt\n      tag_256\n      jumpi\n      0x0100\n      dup1\n      dup4\n      sload\n      div\n      mul\n      dup4\n      mstore\n      swap2\n      0x20\n      add\n      swap2\n      jump(tag_255)\n    tag_256:\n      dup3\n      add\n      swap2\n      swap1\n      0x00\n      mstore\n      keccak256(0x00, 0x20)\n      swap1\n    tag_257:\n      dup2\n      sload\n      dup2\n      mstore\n      swap1\n      0x01\n      add\n      swap1\n      0x20\n      add\n      dup1\n      dup4\n      gt\n      tag_257\n      jumpi\n      dup3\n      swap1\n      sub\n      0x1f\n      and\n      dup3\n      add\n      swap2\n    tag_255:\n      pop\n      pop\n      pop\n      pop\n      pop\n      swap1\n      pop\n      dup2\n      jump\t// out\n        /* \"Entity.sol\":6289:6653  function newDataMultipleToSend(address multipleEntity, address _receiver, \r... */\n    tag_83:\n        /* \"Entity.sol\":6512:6518  uint32 */\n      0x00\n        /* \"Entity.sol\":6537:6546  Entity me */\n      dup1\n        /* \"Entity.sol\":6556:6570  multipleEntity */\n      dup8\n        /* \"Entity.sol\":6537:6571  Entity me = Entity(multipleEntity) */\n      swap1\n      pop\n        /* \"Entity.sol\":6582:6584  me */\n      dup1\n      sub(shl(0xa0, 0x01), 0x01)\n        /* \"Entity.sol\":6582:6598  me.newDataToSend */\n      and\n      0x8c162152\n        /* \"Entity.sol\":6599:6608  _receiver */\n      dup9\n        /* \"Entity.sol\":6610:6622  _description */\n      dup9\n        /* \"Entity.sol\":6624:6628  _key */\n      dup9\n        /* \"Entity.sol\":6630:6636  _value */\n      dup9\n        /* \"Entity.sol\":6638:6644  direct */\n      dup9\n        /* \"Entity.sol\":6582:6645  me.newDataToSend(_receiver, _description, _key, _value, direct) */\n      mload(0x40)\n      dup7\n      0xffffffff\n      and\n      0xe0\n      shl\n      dup2\n      mstore\n      0x04\n      add\n      dup1\n      dup7\n      sub(shl(0xa0, 0x01), 0x01)\n      and\n      sub(shl(0xa0, 0x01), 0x01)\n      and\n      dup2\n      mstore\n      0x20\n      add\n      dup1\n      0x20\n      add\n      dup1\n      0x20\n      add\n      dup1\n      0x20\n      add\n      dup6\n      iszero\n      iszero\n      iszero\n      iszero\n      dup2\n      mstore\n      0x20\n      add\n      dup5\n      dup2\n      sub\n      dup5\n      mstore\n      dup9\n      dup2\n      dup2\n      mload\n      dup2\n      mstore\n      0x20\n      add\n      swap2\n      pop\n      dup1\n      mload\n      swap1\n      0x20\n      add\n      swap1\n      dup1\n      dup4\n      dup4\n        /* \"--CODEGEN--\":23:24   */\n      0x00\n        /* \"--CODEGEN--\":8:108   */\n    tag_260:\n        /* \"--CODEGEN--\":33:36   */\n      dup4\n        /* \"--CODEGEN--\":30:31   */\n      dup2\n        /* \"--CODEGEN--\":27:37   */\n      lt\n        /* \"--CODEGEN--\":8:108   */\n      iszero\n      tag_262\n      jumpi\n        /* \"--CODEGEN--\":90:101   */\n      dup2\n      dup2\n      add\n        /* \"--CODEGEN--\":84:102   */\n      mload\n        /* \"--CODEGEN--\":71:82   */\n      dup4\n      dup3\n      add\n        /* \"--CODEGEN--\":64:103   */\n      mstore\n        /* \"--CODEGEN--\":52:54   */\n      0x20\n        /* \"--CODEGEN--\":45:55   */\n      add\n        /* \"--CODEGEN--\":8:108   */\n      jump(tag_260)\n    tag_262:\n        /* \"--CODEGEN--\":12:26   */\n      pop\n        /* \"Entity.sol\":6582:6645  me.newDataToSend(_receiver, _description, _key, _value, direct) */\n      pop\n      pop\n      pop\n      swap1\n      pop\n      swap1\n      dup2\n      add\n      swap1\n      0x1f\n      and\n      dup1\n      iszero\n      tag_263\n      jumpi\n      dup1\n      dup3\n      sub\n      dup1\n      mload\n      0x01\n      dup4\n      0x20\n      sub\n      0x0100\n      exp\n      sub\n      not\n      and\n      dup2\n      mstore\n      0x20\n      add\n      swap2\n      pop\n    tag_263:\n      pop\n      dup5\n      dup2\n      sub\n      dup4\n      mstore\n      dup8\n      mload\n      dup2\n      mstore\n      dup8\n      mload\n      0x20\n      swap2\n      dup3\n      add\n      swap2\n      dup10\n      add\n      swap1\n      dup1\n      dup4\n      dup4\n        /* \"--CODEGEN--\":23:24   */\n      0x00\n        /* \"--CODEGEN--\":8:108   */\n    tag_264:\n        /* \"--CODEGEN--\":33:36   */\n      dup4\n        /* \"--CODEGEN--\":30:31   */\n      dup2\n        /* \"--CODEGEN--\":27:37   */\n      lt\n        /* \"--CODEGEN--\":8:108   */\n      iszero\n      tag_266\n      jumpi\n        /* \"--CODEGEN--\":90:101   */\n      dup2\n      dup2\n      add\n        /* \"--CODEGEN--\":84:102   */\n      mload\n        /* \"--CODEGEN--\":71:82   */\n      dup4\n      dup3\n      add\n        /* \"--CODEGEN--\":64:103   */\n      mstore\n        /* \"--CODEGEN--\":52:54   */\n      0x20\n        /* \"--CODEGEN--\":45:55   */\n      add\n        /* \"--CODEGEN--\":8:108   */\n      jump(tag_264)\n    tag_266:\n        /* \"--CODEGEN--\":12:26   */\n      pop\n        /* \"Entity.sol\":6582:6645  me.newDataToSend(_receiver, _description, _key, _value, direct) */\n      pop\n      pop\n      pop\n      swap1\n      pop\n      swap1\n      dup2\n      add\n      swap1\n      0x1f\n      and\n      dup1\n      iszero\n      tag_267\n      jumpi\n      dup1\n      dup3\n      sub\n      dup1\n      mload\n      0x01\n      dup4\n      0x20\n      sub\n      0x0100\n      exp\n      sub\n      not\n      and\n      dup2\n      mstore\n      0x20\n      add\n      swap2\n      pop\n    tag_267:\n      pop\n      dup5\n      dup2\n      sub\n      dup3\n      mstore\n      dup7\n      mload\n      dup2\n      mstore\n      dup7\n      mload\n      0x20\n      swap2\n      dup3\n      add\n      swap2\n      dup9\n      add\n      swap1\n      dup1\n      dup4\n      dup4\n        /* \"--CODEGEN--\":23:24   */\n      0x00\n        /* \"--CODEGEN--\":8:108   */\n    tag_268:\n        /* \"--CODEGEN--\":33:36   */\n      dup4\n        /* \"--CODEGEN--\":30:31   */\n      dup2\n        /* \"--CODEGEN--\":27:37   */\n      lt\n        /* \"--CODEGEN--\":8:108   */\n      iszero\n      tag_270\n      jumpi\n        /* \"--CODEGEN--\":90:101   */\n      dup2\n      dup2\n      add\n        /* \"--CODEGEN--\":84:102   */\n      mload\n        /* \"--CODEGEN--\":71:82   */\n      dup4\n      dup3\n      add\n        /* \"--CODEGEN--\":64:103   */\n      mstore\n        /* \"--CODEGEN--\":52:54   */\n      0x20\n        /* \"--CODEGEN--\":45:55   */\n      add\n        /* \"--CODEGEN--\":8:108   */\n      jump(tag_268)\n    tag_270:\n        /* \"--CODEGEN--\":12:26   */\n      pop\n        /* \"Entity.sol\":6582:6645  me.newDataToSend(_receiver, _description, _key, _value, direct) */\n      pop\n      pop\n      pop\n      swap1\n      pop\n      swap1\n      dup2\n      add\n      swap1\n      0x1f\n      and\n      dup1\n      iszero\n      tag_271\n      jumpi\n      dup1\n      dup3\n      sub\n      dup1\n      mload\n      0x01\n      dup4\n      0x20\n      sub\n      0x0100\n      exp\n      sub\n      not\n      and\n      dup2\n      mstore\n      0x20\n      add\n      swap2\n      pop\n    tag_271:\n      pop\n      swap9\n      pop\n      pop\n      pop\n      pop\n      pop\n      pop\n      pop\n      pop\n      pop\n      0x00\n      mload(0x40)\n      dup1\n      dup4\n      sub\n      dup2\n      0x00\n      dup8\n      dup1\n      extcodesize\n      iszero\n        /* \"--CODEGEN--\":5:14   */\n      dup1\n        /* \"--CODEGEN--\":2:4   */\n      iszero\n      tag_272\n      jumpi\n        /* \"--CODEGEN--\":27:28   */\n      0x00\n        /* \"--CODEGEN--\":24:25   */\n      dup1\n        /* \"--CODEGEN--\":17:29   */\n      revert\n        /* \"--CODEGEN--\":2:4   */\n    tag_272:\n        /* \"Entity.sol\":6582:6645  me.newDataToSend(_receiver, _description, _key, _value, direct) */\n      pop\n      gas\n      call\n      iszero\n        /* \"--CODEGEN--\":8:17   */\n      dup1\n        /* \"--CODEGEN--\":5:7   */\n      iszero\n      tag_274\n      jumpi\n        /* \"--CODEGEN--\":45:61   */\n      returndatasize\n        /* \"--CODEGEN--\":42:43   */\n      0x00\n        /* \"--CODEGEN--\":39:40   */\n      dup1\n        /* \"--CODEGEN--\":24:62   */\n      returndatacopy\n        /* \"--CODEGEN--\":77:93   */\n      returndatasize\n        /* \"--CODEGEN--\":74:75   */\n      0x00\n        /* \"--CODEGEN--\":67:94   */\n      revert\n        /* \"--CODEGEN--\":5:7   */\n    tag_274:\n        /* \"Entity.sol\":6582:6645  me.newDataToSend(_receiver, _description, _key, _value, direct) */\n      pop\n      pop\n      pop\n      pop\n        /* \"Entity.sol\":671:672  _ */\n      pop\n        /* \"Entity.sol\":6289:6653  function newDataMultipleToSend(address multipleEntity, address _receiver, \r... */\n      swap7\n      swap6\n      pop\n      pop\n      pop\n      pop\n      pop\n      pop\n      jump\t// out\n        /* \"Entity.sol\":9722:9915  function fetchValue(address src, string memory des, string memory key)\r... */\n    tag_92:\n        /* \"Entity.sol\":9840:9853  string memory */\n      0x60\n        /* \"Entity.sol\":9878:9885  Storage */\n      0x02\n        /* \"Entity.sol\":9878:9890  Storage[src] */\n      0x00\n        /* \"Entity.sol\":9886:9889  src */\n      dup6\n      sub(shl(0xa0, 0x01), 0x01)\n        /* \"Entity.sol\":9878:9890  Storage[src] */\n      and\n      sub(shl(0xa0, 0x01), 0x01)\n      and\n      dup2\n      mstore\n      0x20\n      add\n      swap1\n      dup2\n      mstore\n      0x20\n      add\n      0x00\n      keccak256\n        /* \"Entity.sol\":9891:9894  des */\n      dup4\n        /* \"Entity.sol\":9878:9895  Storage[src][des] */\n      mload(0x40)\n      dup1\n      dup3\n      dup1\n      mload\n      swap1\n      0x20\n      add\n      swap1\n      dup1\n      dup4\n      dup4\n        /* \"--CODEGEN--\":36:189   */\n    tag_276:\n        /* \"--CODEGEN--\":66:68   */\n      0x20\n        /* \"--CODEGEN--\":61:64   */\n      dup4\n        /* \"--CODEGEN--\":58:69   */\n      lt\n        /* \"--CODEGEN--\":36:189   */\n      tag_278\n      jumpi\n        /* \"--CODEGEN--\":176:186   */\n      dup1\n      mload\n        /* \"--CODEGEN--\":164:187   */\n      dup3\n      mstore\n      not(0x1f)\n        /* \"--CODEGEN--\":139:151   */\n      swap1\n      swap3\n      add\n      swap2\n        /* \"--CODEGEN--\":98:100   */\n      0x20\n        /* \"--CODEGEN--\":89:101   */\n      swap2\n      dup3\n      add\n      swap2\n        /* \"--CODEGEN--\":114:126   */\n      add\n        /* \"--CODEGEN--\":36:189   */\n      jump(tag_276)\n    tag_278:\n        /* \"--CODEGEN--\":299:309   */\n      mload\n        /* \"--CODEGEN--\":344:354   */\n      dup2\n      mload\n        /* \"--CODEGEN--\":263:265   */\n      0x20\n        /* \"--CODEGEN--\":259:271   */\n      swap4\n      dup5\n      sub\n        /* \"--CODEGEN--\":254:257   */\n      0x0100\n        /* \"--CODEGEN--\":250:272   */\n      exp\n      not(0x00)\n        /* \"--CODEGEN--\":246:276   */\n      add\n        /* \"--CODEGEN--\":311:320   */\n      dup1\n      not\n        /* \"--CODEGEN--\":295:321   */\n      swap1\n      swap3\n      and\n        /* \"--CODEGEN--\":340:361   */\n      swap2\n      and\n        /* \"--CODEGEN--\":377:397   */\n      or\n        /* \"--CODEGEN--\":365:398   */\n      swap1\n      mstore\n        /* \"Entity.sol\":9878:9895  Storage[src][des] */\n      swap3\n      add\n      swap5\n      dup6\n      mstore\n      pop\n      mload(0x40)\n      swap4\n      dup5\n      swap1\n      sub\n      dup2\n      add\n      dup5\n      keccak256\n        /* \"Entity.sol\":9878:9907  Storage[src][des].column[key] */\n      dup7\n      mload\n        /* \"Entity.sol\":9878:9895  Storage[src][des] */\n      swap1\n      swap5\n        /* \"Entity.sol\":9878:9907  Storage[src][des].column[key] */\n      dup8\n      swap5\n      pop\n        /* \"Entity.sol\":9878:9895  Storage[src][des] */\n      swap3\n      pop\n      dup3\n      swap2\n        /* \"Entity.sol\":9878:9907  Storage[src][des].column[key] */\n      dup5\n      add\n      swap1\n      dup1\n        /* \"Entity.sol\":9878:9895  Storage[src][des] */\n      dup4\n        /* \"Entity.sol\":9878:9907  Storage[src][des].column[key] */\n      dup4\n        /* \"--CODEGEN--\":36:189   */\n    tag_279:\n        /* \"--CODEGEN--\":66:68   */\n      0x20\n        /* \"--CODEGEN--\":61:64   */\n      dup4\n        /* \"--CODEGEN--\":58:69   */\n      lt\n        /* \"--CODEGEN--\":36:189   */\n      tag_281\n      jumpi\n        /* \"--CODEGEN--\":176:186   */\n      dup1\n      mload\n        /* \"--CODEGEN--\":164:187   */\n      dup3\n      mstore\n      not(0x1f)\n        /* \"--CODEGEN--\":139:151   */\n      swap1\n      swap3\n      add\n      swap2\n        /* \"--CODEGEN--\":98:100   */\n      0x20\n        /* \"--CODEGEN--\":89:101   */\n      swap2\n      dup3\n      add\n      swap2\n        /* \"--CODEGEN--\":114:126   */\n      add\n        /* \"--CODEGEN--\":36:189   */\n      jump(tag_279)\n    tag_281:\n        /* \"--CODEGEN--\":299:309   */\n      mload\n        /* \"--CODEGEN--\":344:354   */\n      dup2\n      mload\n      not(0x00)\n        /* \"--CODEGEN--\":263:265   */\n      0x20\n        /* \"--CODEGEN--\":259:271   */\n      swap5\n      dup6\n      sub\n        /* \"--CODEGEN--\":254:257   */\n      0x0100\n        /* \"--CODEGEN--\":250:272   */\n      swap1\n      dup2\n      exp\n        /* \"--CODEGEN--\":246:276   */\n      dup3\n      add\n        /* \"--CODEGEN--\":340:361   */\n      swap3\n      dup4\n      and\n        /* \"--CODEGEN--\":311:320   */\n      swap3\n      not\n        /* \"--CODEGEN--\":295:321   */\n      swap4\n      swap1\n      swap4\n      and\n        /* \"--CODEGEN--\":377:397   */\n      swap2\n      swap1\n      swap2\n      or\n        /* \"--CODEGEN--\":365:398   */\n      swap1\n      swap3\n      mstore\n        /* \"Entity.sol\":9878:9907  Storage[src][des].column[key] */\n      swap5\n      swap1\n      swap3\n      add\n      swap7\n      dup8\n      mstore\n      0x40\n      dup1\n      mload\n      swap8\n      dup9\n      swap1\n      sub\n      dup3\n      add\n      dup9\n      keccak256\n        /* \"Entity.sol\":9871:9907  return Storage[src][des].column[key] */\n      dup1\n      sload\n      0x1f\n      0x02\n        /* \"--CODEGEN--\":274:275   */\n      0x01\n        /* \"Entity.sol\":9871:9907  return Storage[src][des].column[key] */\n      dup4\n      and\n      iszero\n      swap1\n      swap9\n      mul\n      swap1\n      swap6\n      add\n      and\n      swap6\n      swap1\n      swap6\n      div\n      swap3\n      dup4\n      add\n      dup3\n      swap1\n      div\n      dup3\n      mul\n      dup9\n      add\n      dup3\n      add\n      swap1\n      mstore\n      dup2\n      dup8\n      mstore\n        /* \"Entity.sol\":9878:9907  Storage[src][des].column[key] */\n      swap3\n      swap5\n      pop\n        /* \"Entity.sol\":9871:9907  return Storage[src][des].column[key] */\n      swap3\n      pop\n      pop\n      dup4\n      add\n        /* \"Entity.sol\":9878:9907  Storage[src][des].column[key] */\n      dup3\n        /* \"Entity.sol\":9871:9907  return Storage[src][des].column[key] */\n      dup3\n      dup1\n      iszero\n      tag_282\n      jumpi\n      dup1\n      0x1f\n      lt\n      tag_283\n      jumpi\n      0x0100\n      dup1\n      dup4\n      sload\n      div\n      mul\n      dup4\n      mstore\n      swap2\n      0x20\n      add\n      swap2\n      jump(tag_282)\n    tag_283:\n      dup3\n      add\n      swap2\n      swap1\n      0x00\n      mstore\n      keccak256(0x00, 0x20)\n      swap1\n    tag_284:\n      dup2\n      sload\n      dup2\n      mstore\n      swap1\n      0x01\n      add\n      swap1\n      0x20\n      add\n      dup1\n      dup4\n      gt\n      tag_284\n      jumpi\n      dup3\n      swap1\n      sub\n      0x1f\n      and\n      dup3\n      add\n      swap2\n    tag_282:\n      pop\n      pop\n      pop\n      pop\n      pop\n      swap1\n      pop\n        /* \"Entity.sol\":9722:9915  function fetchValue(address src, string memory des, string memory key)\r... */\n      swap4\n      swap3\n      pop\n      pop\n      pop\n      jump\t// out\n        /* \"Entity.sol\":1015:1042  address[] public dataSource */\n    tag_99:\n      0x03\n      dup2\n      dup2\n      sload\n      dup2\n      lt\n      tag_285\n      jumpi\n      invalid\n    tag_285:\n      0x00\n      swap2\n      dup3\n      mstore\n      0x20\n      swap1\n      swap2\n      keccak256\n      add\n      sload\n      sub(shl(0xa0, 0x01), 0x01)\n      and\n      swap1\n      pop\n      dup2\n      jump\t// out\n        /* \"Entity.sol\":1096:1150  mapping(address=>string[]) public descriptionsBySource */\n    tag_102:\n      mstore(0x20, 0x05)\n      dup2\n      0x00\n      mstore\n      keccak256(0x00, 0x40)\n      dup2\n      dup2\n      sload\n      dup2\n      lt\n      tag_287\n      jumpi\n      invalid\n    tag_287:\n      0x00\n      swap2\n      dup3\n      mstore\n      0x20\n      swap2\n      dup3\n      swap1\n      keccak256\n      add\n      dup1\n      sload\n      0x40\n      dup1\n      mload\n      0x1f\n      0x02\n      not(0x00)\n      0x0100\n      0x01\n      dup8\n      and\n      iszero\n      mul\n      add\n      swap1\n      swap5\n      and\n      swap4\n      swap1\n      swap4\n      div\n      swap3\n      dup4\n      add\n      dup6\n      swap1\n      div\n      dup6\n      mul\n      dup2\n      add\n      dup6\n      add\n      swap1\n      swap2\n      mstore\n      dup2\n      dup2\n      mstore\n      swap5\n      pop\n      swap1\n      swap3\n      pop\n      swap1\n      dup4\n      add\n      dup3\n      dup3\n      dup1\n      iszero\n      tag_289\n      jumpi\n      dup1\n      0x1f\n      lt\n      tag_290\n      jumpi\n      0x0100\n      dup1\n      dup4\n      sload\n      div\n      mul\n      dup4\n      mstore\n      swap2\n      0x20\n      add\n      swap2\n      jump(tag_289)\n    tag_290:\n      dup3\n      add\n      swap2\n      swap1\n      0x00\n      mstore\n      keccak256(0x00, 0x20)\n      swap1\n    tag_291:\n      dup2\n      sload\n      dup2\n      mstore\n      swap1\n      0x01\n      add\n      swap1\n      0x20\n      add\n      dup1\n      dup4\n      gt\n      tag_291\n      jumpi\n      dup3\n      swap1\n      sub\n      0x1f\n      and\n      dup3\n      add\n      swap2\n    tag_289:\n      pop\n      pop\n      pop\n      pop\n      pop\n      dup2\n      jump\t// out\n        /* \"Entity.sol\":9224:9359  function sourceLength()\r... */\n    tag_108:\n        /* \"Entity.sol\":9333:9343  dataSource */\n      0x03\n        /* \"Entity.sol\":9333:9350  dataSource.length */\n      sload\n        /* \"Entity.sol\":9224:9359  function sourceLength()\r... */\n    tag_292:\n      swap1\n      jump\t// out\n        /* \"Entity.sol\":3535:3771  function approveDataToReceive(uint32 index)\r... */\n    tag_111:\n        /* \"Entity.sol\":3669:3696  toReceiveIsConfirmed[index] */\n      0xffffffff\n      dup2\n      and\n      0x00\n      swap1\n      dup2\n      mstore\n        /* \"Entity.sol\":3669:3689  toReceiveIsConfirmed */\n      0x08\n        /* \"Entity.sol\":3669:3696  toReceiveIsConfirmed[index] */\n      0x20\n      mstore\n      0x40\n      swap1\n      keccak256\n      sload\n        /* \"Entity.sol\":3643:3648  index */\n      dup2\n      swap1\n        /* \"Entity.sol\":3669:3696  toReceiveIsConfirmed[index] */\n      0xff\n      and\n      dup1\n        /* \"Entity.sol\":3669:3708  toReceiveIsConfirmed[index] || isSingle */\n      tag_296\n      jumpi\n      pop\n        /* \"Entity.sol\":3700:3708  isSingle */\n      and(0xff, sload(0x00))\n        /* \"Entity.sol\":3669:3708  toReceiveIsConfirmed[index] || isSingle */\n    tag_296:\n        /* \"Entity.sol\":3666:3764  if(toReceiveIsConfirmed[index] || isSingle){\r... */\n      iszero\n      tag_298\n      jumpi\n        /* \"Entity.sol\":3724:3752  _approveDataToReceive(index) */\n      tag_298\n        /* \"Entity.sol\":3746:3751  index */\n      dup3\n        /* \"Entity.sol\":3724:3745  _approveDataToReceive */\n      tag_299\n        /* \"Entity.sol\":3724:3752  _approveDataToReceive(index) */\n      jump\t// in\n    tag_298:\n        /* \"Entity.sol\":671:672  _ */\n      pop\n        /* \"Entity.sol\":3535:3771  function approveDataToReceive(uint32 index)\r... */\n      pop\n      jump\t// out\n        /* \"Entity.sol\":4005:4167  function pendingDataToReceiveCount() \r... */\n    tag_113:\n        /* \"Entity.sol\":4131:4151  pendingDataToReceive */\n      0x07\n        /* \"Entity.sol\":4131:4158  pendingDataToReceive.length */\n      sload\n        /* \"Entity.sol\":4005:4167  function pendingDataToReceiveCount() \r... */\n      swap1\n      jump\t// out\n        /* \"Entity.sol\":4179:4357  function dataSizeToReceive(uint32 index) \r... */\n    tag_116:\n        /* \"Entity.sol\":4271:4277  uint32 */\n      0x00\n        /* \"Entity.sol\":4310:4330  pendingDataToReceive */\n      0x07\n        /* \"Entity.sol\":4331:4336  index */\n      dup3\n        /* \"Entity.sol\":4310:4337  pendingDataToReceive[index] */\n      0xffffffff\n      and\n      dup2\n      sload\n      dup2\n      lt\n      tag_302\n      jumpi\n      invalid\n    tag_302:\n      0x00\n      swap2\n      dup3\n      mstore\n      0x20\n      swap1\n      swap2\n      keccak256\n        /* \"Entity.sol\":4310:4341  pendingDataToReceive[index].key */\n      0x03\n        /* \"Entity.sol\":4310:4337  pendingDataToReceive[index] */\n      0x08\n      swap1\n      swap3\n      mul\n      add\n        /* \"Entity.sol\":4310:4341  pendingDataToReceive[index].key */\n      add\n        /* \"Entity.sol\":4310:4348  pendingDataToReceive[index].key.length */\n      sload\n      swap3\n        /* \"Entity.sol\":4179:4357  function dataSizeToReceive(uint32 index) \r... */\n      swap2\n      pop\n      pop\n      jump\t// out\n        /* \"Entity.sol\":7575:8117  function approveDataToSend(uint32 index) \r... */\n    tag_119:\n        /* \"Entity.sol\":7682:7699  pendingDataToSend */\n      0x09\n        /* \"Entity.sol\":7700:7705  index */\n      dup2\n        /* \"Entity.sol\":7682:7706  pendingDataToSend[index] */\n      0xffffffff\n      and\n      dup2\n      sload\n      dup2\n      lt\n      tag_306\n      jumpi\n      invalid\n    tag_306:\n      0x00\n      swap2\n      dup3\n      mstore\n      0x20\n      swap1\n      swap2\n      keccak256\n        /* \"Entity.sol\":7682:7715  pendingDataToSend[index].approved */\n      0x07\n        /* \"Entity.sol\":7682:7706  pendingDataToSend[index] */\n      0x08\n      swap1\n      swap3\n      mul\n      add\n        /* \"Entity.sol\":7682:7715  pendingDataToSend[index].approved */\n      add\n      sload\n      0xff\n      and\n        /* \"Entity.sol\":7681:7715  !pendingDataToSend[index].approved */\n      iszero\n        /* \"Entity.sol\":7673:7716  require(!pendingDataToSend[index].approved) */\n      tag_308\n      jumpi\n        /* \"--CODEGEN--\":12:13   */\n      0x00\n        /* \"--CODEGEN--\":9:10   */\n      dup1\n        /* \"--CODEGEN--\":2:14   */\n      revert\n        /* \"Entity.sol\":7673:7716  require(!pendingDataToSend[index].approved) */\n    tag_308:\n        /* \"Entity.sol\":7727:7742  Entity receiver */\n      0x00\n        /* \"Entity.sol\":7752:7769  pendingDataToSend */\n      0x09\n        /* \"Entity.sol\":7770:7775  index */\n      dup3\n        /* \"Entity.sol\":7752:7776  pendingDataToSend[index] */\n      0xffffffff\n      and\n      dup2\n      sload\n      dup2\n      lt\n      tag_309\n      jumpi\n      invalid\n    tag_309:\n      0x00\n      swap2\n      dup3\n      mstore\n      0x20\n      dup3\n      keccak256\n        /* \"Entity.sol\":7752:7788  pendingDataToSend[index].destination */\n      0x01\n        /* \"Entity.sol\":7752:7776  pendingDataToSend[index] */\n      0x08\n      swap1\n      swap3\n      mul\n      add\n        /* \"Entity.sol\":7752:7788  pendingDataToSend[index].destination */\n      add\n      sload\n        /* \"Entity.sol\":7831:7848  pendingDataToSend */\n      0x09\n        /* \"Entity.sol\":7831:7855  pendingDataToSend[index] */\n      dup1\n      sload\n      sub(shl(0xa0, 0x01), 0x01)\n        /* \"Entity.sol\":7752:7788  pendingDataToSend[index].destination */\n      swap1\n      swap3\n      and\n      swap4\n      pop\n      dup4\n      swap2\n        /* \"Entity.sol\":7813:7830  receiver._newData */\n      0xc09bc35b\n      swap2\n        /* \"Entity.sol\":7831:7848  pendingDataToSend */\n      swap1\n        /* \"Entity.sol\":7831:7855  pendingDataToSend[index] */\n      0xffffffff\n      dup8\n      and\n      swap1\n      dup2\n      lt\n      tag_311\n      jumpi\n      invalid\n    tag_311:\n      0x00\n      swap2\n      dup3\n      mstore\n      0x20\n      swap2\n      dup3\n      swap1\n      keccak256\n        /* \"Entity.sol\":7813:7868  receiver._newData(pendingDataToSend[index].description) */\n      mload(0x40)\n      not(sub(shl(0xe0, 0x01), 0x01))\n      0xe0\n      dup7\n      swap1\n      shl\n      and\n      dup2\n      mstore\n      0x04\n      dup2\n      add\n      swap4\n      dup5\n      mstore\n        /* \"Entity.sol\":7831:7867  pendingDataToSend[index].description */\n      0x02\n        /* \"Entity.sol\":7831:7855  pendingDataToSend[index] */\n      0x08\n      swap1\n      swap4\n      mul\n      swap1\n      swap2\n      add\n        /* \"Entity.sol\":7831:7867  pendingDataToSend[index].description */\n      dup3\n      add\n        /* \"Entity.sol\":7813:7868  receiver._newData(pendingDataToSend[index].description) */\n      dup1\n      sload\n      not(0x00)\n      0x0100\n      0x01\n      dup4\n      and\n      iszero\n      mul\n      add\n      and\n      swap3\n      swap1\n      swap3\n      div\n      0x24\n      dup3\n      add\n      dup2\n      swap1\n      mstore\n        /* \"Entity.sol\":7831:7867  pendingDataToSend[index].description */\n      swap2\n      swap3\n        /* \"Entity.sol\":7813:7868  receiver._newData(pendingDataToSend[index].description) */\n      swap2\n      dup3\n      swap2\n      0x44\n      add\n      swap1\n        /* \"Entity.sol\":7831:7867  pendingDataToSend[index].description */\n      dup5\n      swap1\n        /* \"Entity.sol\":7813:7868  receiver._newData(pendingDataToSend[index].description) */\n      dup1\n      iszero\n      tag_313\n      jumpi\n      dup1\n      0x1f\n      lt\n      tag_314\n      jumpi\n      0x0100\n      dup1\n      dup4\n      sload\n      div\n      mul\n      dup4\n      mstore\n      swap2\n      0x20\n      add\n      swap2\n      jump(tag_313)\n    tag_314:\n      dup3\n      add\n      swap2\n      swap1\n      0x00\n      mstore\n      keccak256(0x00, 0x20)\n      swap1\n    tag_315:\n      dup2\n      sload\n      dup2\n      mstore\n      swap1\n      0x01\n      add\n      swap1\n      0x20\n      add\n      dup1\n      dup4\n      gt\n      tag_315\n      jumpi\n      dup3\n      swap1\n      sub\n      0x1f\n      and\n      dup3\n      add\n      swap2\n    tag_313:\n      pop\n      pop\n      swap3\n      pop\n      pop\n      pop\n      0x20\n      mload(0x40)\n      dup1\n      dup4\n      sub\n      dup2\n      0x00\n      dup8\n      dup1\n      extcodesize\n      iszero\n        /* \"--CODEGEN--\":5:14   */\n      dup1\n        /* \"--CODEGEN--\":2:4   */\n      iszero\n      tag_316\n      jumpi\n        /* \"--CODEGEN--\":27:28   */\n      0x00\n        /* \"--CODEGEN--\":24:25   */\n      dup1\n        /* \"--CODEGEN--\":17:29   */\n      revert\n        /* \"--CODEGEN--\":2:4   */\n    tag_316:\n        /* \"Entity.sol\":7813:7868  receiver._newData(pendingDataToSend[index].description) */\n      pop\n      gas\n      call\n      iszero\n        /* \"--CODEGEN--\":8:17   */\n      dup1\n        /* \"--CODEGEN--\":5:7   */\n      iszero\n      tag_318\n      jumpi\n        /* \"--CODEGEN--\":45:61   */\n      returndatasize\n        /* \"--CODEGEN--\":42:43   */\n      0x00\n        /* \"--CODEGEN--\":39:40   */\n      dup1\n        /* \"--CODEGEN--\":24:62   */\n      returndatacopy\n        /* \"--CODEGEN--\":77:93   */\n      returndatasize\n        /* \"--CODEGEN--\":74:75   */\n      0x00\n        /* \"--CODEGEN--\":67:94   */\n      revert\n        /* \"--CODEGEN--\":5:7   */\n    tag_318:\n        /* \"Entity.sol\":7813:7868  receiver._newData(pendingDataToSend[index].description) */\n      pop\n      pop\n      pop\n      pop\n      mload(0x40)\n      returndatasize\n        /* \"--CODEGEN--\":15:17   */\n      0x20\n        /* \"--CODEGEN--\":10:13   */\n      dup2\n        /* \"--CODEGEN--\":7:18   */\n      lt\n        /* \"--CODEGEN--\":4:6   */\n      iszero\n      tag_319\n      jumpi\n        /* \"--CODEGEN--\":31:32   */\n      0x00\n        /* \"--CODEGEN--\":28:29   */\n      dup1\n        /* \"--CODEGEN--\":21:33   */\n      revert\n        /* \"--CODEGEN--\":4:6   */\n    tag_319:\n      pop\n        /* \"Entity.sol\":7813:7868  receiver._newData(pendingDataToSend[index].description) */\n      mload\n      swap1\n      pop\n        /* \"Entity.sol\":7883:7891  uint32 i */\n      0x00\n        /* \"Entity.sol\":7879:8059  for(uint32 i=0; i<pendingDataToSend[index].key.length; i++){\r... */\n    tag_320:\n        /* \"Entity.sol\":7897:7914  pendingDataToSend */\n      0x09\n        /* \"Entity.sol\":7915:7920  index */\n      dup5\n        /* \"Entity.sol\":7897:7921  pendingDataToSend[index] */\n      0xffffffff\n      and\n      dup2\n      sload\n      dup2\n      lt\n      tag_323\n      jumpi\n      invalid\n    tag_323:\n      swap1\n      0x00\n      mstore\n      keccak256(0x00, 0x20)\n      swap1\n      0x08\n      mul\n      add\n        /* \"Entity.sol\":7897:7925  pendingDataToSend[index].key */\n      0x03\n      add\n        /* \"Entity.sol\":7897:7932  pendingDataToSend[index].key.length */\n      dup1\n      sload\n      swap1\n      pop\n        /* \"Entity.sol\":7895:7896  i */\n      dup2\n        /* \"Entity.sol\":7895:7932  i<pendingDataToSend[index].key.length */\n      0xffffffff\n      and\n      lt\n        /* \"Entity.sol\":7879:8059  for(uint32 i=0; i<pendingDataToSend[index].key.length; i++){\r... */\n      iszero\n      tag_321\n      jumpi\n        /* \"Entity.sol\":7953:7961  receiver */\n      dup3\n      sub(shl(0xa0, 0x01), 0x01)\n        /* \"Entity.sol\":7953:7974  receiver._receiveData */\n      and\n      0x928ec3e5\n        /* \"Entity.sol\":7975:7992  pendingDataToSend */\n      0x09\n        /* \"Entity.sol\":7993:7998  index */\n      dup7\n        /* \"Entity.sol\":7975:7999  pendingDataToSend[index] */\n      0xffffffff\n      and\n      dup2\n      sload\n      dup2\n      lt\n      tag_325\n      jumpi\n      invalid\n    tag_325:\n      swap1\n      0x00\n      mstore\n      keccak256(0x00, 0x20)\n      swap1\n      0x08\n      mul\n      add\n        /* \"Entity.sol\":7975:8003  pendingDataToSend[index].key */\n      0x03\n      add\n        /* \"Entity.sol\":8004:8005  i */\n      dup4\n        /* \"Entity.sol\":7975:8006  pendingDataToSend[index].key[i] */\n      0xffffffff\n      and\n      dup2\n      sload\n      dup2\n      lt\n      tag_327\n      jumpi\n      invalid\n    tag_327:\n      swap1\n      0x00\n      mstore\n      keccak256(0x00, 0x20)\n      add\n        /* \"Entity.sol\":8008:8025  pendingDataToSend */\n      0x09\n        /* \"Entity.sol\":8026:8031  index */\n      dup8\n        /* \"Entity.sol\":8008:8032  pendingDataToSend[index] */\n      0xffffffff\n      and\n      dup2\n      sload\n      dup2\n      lt\n      tag_329\n      jumpi\n      invalid\n    tag_329:\n      swap1\n      0x00\n      mstore\n      keccak256(0x00, 0x20)\n      swap1\n      0x08\n      mul\n      add\n        /* \"Entity.sol\":8008:8038  pendingDataToSend[index].value */\n      0x06\n      add\n        /* \"Entity.sol\":8039:8040  i */\n      dup5\n        /* \"Entity.sol\":8008:8041  pendingDataToSend[index].value[i] */\n      0xffffffff\n      and\n      dup2\n      sload\n      dup2\n      lt\n      tag_331\n      jumpi\n      invalid\n    tag_331:\n      0x00\n      swap2\n      dup3\n      mstore\n      0x20\n      swap1\n      swap2\n      keccak256\n        /* \"Entity.sol\":7953:8047  receiver._receiveData(pendingDataToSend[index].key[i], pendingDataToSend[index].value[i], idx) */\n      mload(0x40)\n      not(sub(shl(0xe0, 0x01), 0x01))\n      0xe0\n      dup7\n      swap1\n      shl\n      and\n      dup2\n      mstore\n      0xffffffff\n      dup9\n      and\n      0x44\n      dup3\n      add\n      mstore\n      0x60\n      0x04\n      dup3\n      add\n      swap1\n      dup2\n      mstore\n      dup5\n      sload\n      0x02\n      not(0x00)\n      0x0100\n      0x01\n      dup5\n      and\n      iszero\n      mul\n      add\n      swap1\n      swap2\n      and\n      div\n      0x64\n      dup4\n      add\n      dup2\n      swap1\n      mstore\n        /* \"Entity.sol\":8008:8041  pendingDataToSend[index].value[i] */\n      swap3\n      swap1\n      swap4\n      add\n      swap3\n        /* \"Entity.sol\":8043:8046  idx */\n      dup9\n      swap3\n        /* \"Entity.sol\":7953:8047  receiver._receiveData(pendingDataToSend[index].key[i], pendingDataToSend[index].value[i], idx) */\n      swap1\n      swap2\n      dup3\n      swap2\n      0x24\n      dup3\n      add\n      swap2\n      0x84\n      add\n      swap1\n      dup8\n      swap1\n      dup1\n      iszero\n      tag_333\n      jumpi\n      dup1\n      0x1f\n      lt\n      tag_334\n      jumpi\n      0x0100\n      dup1\n      dup4\n      sload\n      div\n      mul\n      dup4\n      mstore\n      swap2\n      0x20\n      add\n      swap2\n      jump(tag_333)\n    tag_334:\n      dup3\n      add\n      swap2\n      swap1\n      0x00\n      mstore\n      keccak256(0x00, 0x20)\n      swap1\n    tag_335:\n      dup2\n      sload\n      dup2\n      mstore\n      swap1\n      0x01\n      add\n      swap1\n      0x20\n      add\n      dup1\n      dup4\n      gt\n      tag_335\n      jumpi\n      dup3\n      swap1\n      sub\n      0x1f\n      and\n      dup3\n      add\n      swap2\n    tag_333:\n      pop\n      pop\n      dup4\n      dup2\n      sub\n      dup3\n      mstore\n      dup6\n      sload\n      0x02\n      not(0x00)\n      0x0100\n      0x01\n      dup5\n      and\n      iszero\n      mul\n      add\n      swap1\n      swap2\n      and\n      div\n      dup1\n      dup3\n      mstore\n      0x20\n      swap1\n      swap2\n      add\n      swap1\n      dup7\n      swap1\n      dup1\n      iszero\n      tag_336\n      jumpi\n      dup1\n      0x1f\n      lt\n      tag_337\n      jumpi\n      0x0100\n      dup1\n      dup4\n      sload\n      div\n      mul\n      dup4\n      mstore\n      swap2\n      0x20\n      add\n      swap2\n      jump(tag_336)\n    tag_337:\n      dup3\n      add\n      swap2\n      swap1\n      0x00\n      mstore\n      keccak256(0x00, 0x20)\n      swap1\n    tag_338:\n      dup2\n      sload\n      dup2\n      mstore\n      swap1\n      0x01\n      add\n      swap1\n      0x20\n      add\n      dup1\n      dup4\n      gt\n      tag_338\n      jumpi\n      dup3\n      swap1\n      sub\n      0x1f\n      and\n      dup3\n      add\n      swap2\n    tag_336:\n      pop\n      pop\n      swap6\n      pop\n      pop\n      pop\n      pop\n      pop\n      pop\n      0x00\n      mload(0x40)\n      dup1\n      dup4\n      sub\n      dup2\n      0x00\n      dup8\n      dup1\n      extcodesize\n      iszero\n        /* \"--CODEGEN--\":5:14   */\n      dup1\n        /* \"--CODEGEN--\":2:4   */\n      iszero\n      tag_339\n      jumpi\n        /* \"--CODEGEN--\":27:28   */\n      0x00\n        /* \"--CODEGEN--\":24:25   */\n      dup1\n        /* \"--CODEGEN--\":17:29   */\n      revert\n        /* \"--CODEGEN--\":2:4   */\n    tag_339:\n        /* \"Entity.sol\":7953:8047  receiver._receiveData(pendingDataToSend[index].key[i], pendingDataToSend[index].value[i], idx) */\n      pop\n      gas\n      call\n      iszero\n        /* \"--CODEGEN--\":8:17   */\n      dup1\n        /* \"--CODEGEN--\":5:7   */\n      iszero\n      tag_341\n      jumpi\n        /* \"--CODEGEN--\":45:61   */\n      returndatasize\n        /* \"--CODEGEN--\":42:43   */\n      0x00\n        /* \"--CODEGEN--\":39:40   */\n      dup1\n        /* \"--CODEGEN--\":24:62   */\n      returndatacopy\n        /* \"--CODEGEN--\":77:93   */\n      returndatasize\n        /* \"--CODEGEN--\":74:75   */\n      0x00\n        /* \"--CODEGEN--\":67:94   */\n      revert\n        /* \"--CODEGEN--\":5:7   */\n    tag_341:\n      pop\n      pop\n        /* \"Entity.sol\":7934:7937  i++ */\n      0x01\n      swap1\n      swap3\n      add\n      swap2\n      pop\n        /* \"Entity.sol\":7879:8059  for(uint32 i=0; i<pendingDataToSend[index].key.length; i++){\r... */\n      tag_320\n      swap1\n      pop\n      jump\n    tag_321:\n      pop\n        /* \"Entity.sol\":8105:8109  true */\n      0x01\n        /* \"Entity.sol\":8069:8086  pendingDataToSend */\n      0x09\n        /* \"Entity.sol\":8087:8092  index */\n      dup5\n        /* \"Entity.sol\":8069:8093  pendingDataToSend[index] */\n      0xffffffff\n      and\n      dup2\n      sload\n      dup2\n      lt\n      tag_342\n      jumpi\n      invalid\n    tag_342:\n      0x00\n      swap2\n      dup3\n      mstore\n      0x20\n      swap1\n      swap2\n      keccak256\n      0x08\n      swap1\n      swap2\n      mul\n      add\n        /* \"Entity.sol\":8069:8102  pendingDataToSend[index].approved */\n      0x07\n      add\n        /* \"Entity.sol\":8069:8109  pendingDataToSend[index].approved = true */\n      dup1\n      sload\n      not(0xff)\n      and\n      swap2\n      iszero\n      iszero\n      swap2\n      swap1\n      swap2\n      or\n      swap1\n      sstore\n      pop\n      pop\n      pop\n        /* \"Entity.sol\":7575:8117  function approveDataToSend(uint32 index) \r... */\n      jump\t// out\n        /* \"Entity.sol\":789:825  bool constant public isEntity = true */\n    tag_121:\n        /* \"Entity.sol\":821:825  true */\n      0x01\n        /* \"Entity.sol\":789:825  bool constant public isEntity = true */\n      dup2\n      jump\t// out\n        /* \"Entity.sol\":4672:6277  function newDataToSend(address _receiver, string memory _description, string memory _key, string memory _value, bool direct) \r... */\n    tag_133:\n        /* \"Entity.sol\":4892:4911  newData.destination */\n      0x01\n        /* \"Entity.sol\":4892:4923  newData.destination = _receiver */\n      dup1\n      sload\n      not(sub(shl(0xa0, 0x01), 0x01))\n      and\n      sub(shl(0xa0, 0x01), 0x01)\n      dup8\n      and\n      or\n      swap1\n      sstore\n        /* \"Entity.sol\":4934:4968  newData.description = _description */\n      dup4\n      mload\n      0x00\n      swap1\n      tag_346\n      swap1\n        /* \"Entity.sol\":4934:4953  newData.description */\n      0x02\n      swap1\n        /* \"Entity.sol\":4934:4968  newData.description = _description */\n      0x20\n      dup9\n      add\n      swap1\n      tag_347\n      jump\t// in\n    tag_346:\n      pop\n        /* \"Entity.sol\":4979:4995  newData.approved */\n      0x07\n      dup2\n      add\n        /* \"Entity.sol\":4979:5003  newData.approved = false */\n      dup1\n      sload\n      not(0xff)\n      and\n      swap1\n      sstore\n        /* \"Entity.sol\":5053:5070  pendingDataToSend */\n      0x09\n        /* \"Entity.sol\":5053:5077  pendingDataToSend.length */\n      sload\n      sub(shl(0xa0, 0x01), 0x01)\n        /* \"Entity.sol\":5014:5043  recentSendingIndex[_receiver] */\n      dup8\n      and\n      0x00\n      swap1\n      dup2\n      mstore\n      mstore(0x20, 0x01)\n      0x40\n      swap1\n      keccak256\n        /* \"Entity.sol\":5014:5082  recentSendingIndex[_receiver] = uint32(pendingDataToSend.length - 1) */\n      dup1\n      sload\n      not(0xffffffff)\n      and\n      not(0x00)\n        /* \"Entity.sol\":5053:5081  pendingDataToSend.length - 1 */\n      swap1\n      swap3\n      add\n        /* \"Entity.sol\":5014:5082  recentSendingIndex[_receiver] = uint32(pendingDataToSend.length - 1) */\n      0xffffffff\n      and\n      swap2\n      swap1\n      swap2\n      or\n      swap1\n      sstore\n        /* \"Entity.sol\":5095:5120  strings.slice memory keys */\n      tag_348\n      tag_349\n      jump\t// in\n    tag_348:\n        /* \"Entity.sol\":5123:5137  _key.toSlice() */\n      tag_350\n        /* \"Entity.sol\":5123:5127  _key */\n      dup6\n        /* \"Entity.sol\":5123:5135  _key.toSlice */\n      tag_351\n        /* \"Entity.sol\":5123:5137  _key.toSlice() */\n      jump\t// in\n    tag_350:\n        /* \"Entity.sol\":5095:5137  strings.slice memory keys = _key.toSlice() */\n      swap1\n      pop\n        /* \"Entity.sol\":5148:5175  strings.slice memory values */\n      tag_352\n      tag_349\n      jump\t// in\n    tag_352:\n        /* \"Entity.sol\":5178:5194  _value.toSlice() */\n      tag_353\n        /* \"Entity.sol\":5178:5184  _value */\n      dup6\n        /* \"Entity.sol\":5178:5192  _value.toSlice */\n      tag_351\n        /* \"Entity.sol\":5178:5194  _value.toSlice() */\n      jump\t// in\n    tag_353:\n        /* \"Entity.sol\":5148:5194  strings.slice memory values = _value.toSlice() */\n      swap1\n      pop\n        /* \"Entity.sol\":5205:5232  strings.slice memory deKeys */\n      tag_354\n      tag_349\n      jump\t// in\n    tag_354:\n        /* \"Entity.sol\":5235:5248  \",\".toSlice() */\n      tag_355\n        /* \"Entity.sol\":5235:5246  \",\".toSlice */\n      mload(0x40)\n      dup1\n      0x40\n      add\n      0x40\n      mstore\n      dup1\n      0x01\n      dup2\n      mstore\n      0x20\n      add\n      shl(0xfa, 0x0b)\n      dup2\n      mstore\n      pop\n      tag_351\n        /* \"Entity.sol\":5235:5248  \",\".toSlice() */\n      jump\t// in\n    tag_355:\n        /* \"Entity.sol\":5205:5248  strings.slice memory deKeys = \",\".toSlice() */\n      swap1\n      pop\n        /* \"Entity.sol\":5405:5417  uint32 count */\n      0x00\n        /* \"Entity.sol\":5427:5445  keys.count(deKeys) */\n      tag_356\n        /* \"Entity.sol\":5427:5431  keys */\n      dup5\n        /* \"Entity.sol\":5205:5248  strings.slice memory deKeys = \",\".toSlice() */\n      dup4\n        /* \"Entity.sol\":5427:5445  keys.count(deKeys) */\n      0xffffffff\n        /* \"Entity.sol\":5427:5437  keys.count */\n      tag_357\n        /* \"Entity.sol\":5427:5445  keys.count(deKeys) */\n      and\n      jump\t// in\n    tag_356:\n        /* \"Entity.sol\":5446:5447  1 */\n      0x01\n        /* \"Entity.sol\":5427:5447  keys.count(deKeys)+1 */\n      add\n      swap1\n      pop\n        /* \"Entity.sol\":5463:5471  uint32 i */\n      0x00\n        /* \"Entity.sol\":5459:6128  for(uint32 i=0; i<count; i++){\r... */\n    tag_358:\n        /* \"Entity.sol\":5477:5482  count */\n      dup2\n        /* \"Entity.sol\":5475:5482  i<count */\n      0xffffffff\n      and\n        /* \"Entity.sol\":5475:5476  i */\n      dup2\n        /* \"Entity.sol\":5475:5482  i<count */\n      0xffffffff\n      and\n      lt\n        /* \"Entity.sol\":5459:6128  for(uint32 i=0; i<count; i++){\r... */\n      iszero\n      tag_359\n      jumpi\n        /* \"Entity.sol\":5503:5523  string memory addKey */\n      0x60\n        /* \"Entity.sol\":5526:5555  keys.split(deKeys).toString() */\n      tag_361\n        /* \"Entity.sol\":5526:5544  keys.split(deKeys) */\n      tag_362\n        /* \"Entity.sol\":5526:5530  keys */\n      dup8\n        /* \"Entity.sol\":5537:5543  deKeys */\n      dup7\n        /* \"Entity.sol\":5526:5544  keys.split(deKeys) */\n      0xffffffff\n        /* \"Entity.sol\":5526:5536  keys.split */\n      tag_363\n        /* \"Entity.sol\":5526:5544  keys.split(deKeys) */\n      and\n      jump\t// in\n    tag_362:\n        /* \"Entity.sol\":5526:5553  keys.split(deKeys).toString */\n      tag_364\n        /* \"Entity.sol\":5526:5555  keys.split(deKeys).toString() */\n      jump\t// in\n    tag_361:\n        /* \"Entity.sol\":5503:5555  string memory addKey = keys.split(deKeys).toString() */\n      swap1\n      pop\n        /* \"Entity.sol\":5570:5592  string memory addValue */\n      0x60\n        /* \"Entity.sol\":5595:5626  values.split(deKeys).toString() */\n      tag_365\n        /* \"Entity.sol\":5595:5615  values.split(deKeys) */\n      tag_362\n        /* \"Entity.sol\":5595:5601  values */\n      dup8\n        /* \"Entity.sol\":5608:5614  deKeys */\n      dup8\n        /* \"Entity.sol\":5595:5615  values.split(deKeys) */\n      0xffffffff\n        /* \"Entity.sol\":5595:5607  values.split */\n      tag_363\n        /* \"Entity.sol\":5595:5615  values.split(deKeys) */\n      and\n      jump\t// in\n        /* \"Entity.sol\":5595:5626  values.split(deKeys).toString() */\n    tag_365:\n        /* \"Entity.sol\":5570:5626  string memory addValue = values.split(deKeys).toString() */\n      swap1\n      pop\n        /* \"Entity.sol\":5645:5652  newData */\n      dup8\n        /* \"Entity.sol\":5645:5665  newData.keyExistence */\n      0x04\n      add\n        /* \"Entity.sol\":5666:5672  addKey */\n      dup3\n        /* \"Entity.sol\":5645:5673  newData.keyExistence[addKey] */\n      mload(0x40)\n      dup1\n      dup3\n      dup1\n      mload\n      swap1\n      0x20\n      add\n      swap1\n      dup1\n      dup4\n      dup4\n        /* \"--CODEGEN--\":36:189   */\n    tag_367:\n        /* \"--CODEGEN--\":66:68   */\n      0x20\n        /* \"--CODEGEN--\":61:64   */\n      dup4\n        /* \"--CODEGEN--\":58:69   */\n      lt\n        /* \"--CODEGEN--\":36:189   */\n      tag_369\n      jumpi\n        /* \"--CODEGEN--\":176:186   */\n      dup1\n      mload\n        /* \"--CODEGEN--\":164:187   */\n      dup3\n      mstore\n      not(0x1f)\n        /* \"--CODEGEN--\":139:151   */\n      swap1\n      swap3\n      add\n      swap2\n        /* \"--CODEGEN--\":98:100   */\n      0x20\n        /* \"--CODEGEN--\":89:101   */\n      swap2\n      dup3\n      add\n      swap2\n        /* \"--CODEGEN--\":114:126   */\n      add\n        /* \"--CODEGEN--\":36:189   */\n      jump(tag_367)\n    tag_369:\n        /* \"--CODEGEN--\":299:309   */\n      mload\n        /* \"--CODEGEN--\":344:354   */\n      dup2\n      mload\n        /* \"--CODEGEN--\":263:265   */\n      0x20\n        /* \"--CODEGEN--\":259:271   */\n      swap4\n      dup5\n      sub\n        /* \"--CODEGEN--\":254:257   */\n      0x0100\n        /* \"--CODEGEN--\":250:272   */\n      exp\n      not(0x00)\n        /* \"--CODEGEN--\":246:276   */\n      add\n        /* \"--CODEGEN--\":311:320   */\n      dup1\n      not\n        /* \"--CODEGEN--\":295:321   */\n      swap1\n      swap3\n      and\n        /* \"--CODEGEN--\":340:361   */\n      swap2\n      and\n        /* \"--CODEGEN--\":377:397   */\n      or\n        /* \"--CODEGEN--\":365:398   */\n      swap1\n      mstore\n        /* \"Entity.sol\":5645:5673  newData.keyExistence[addKey] */\n      swap3\n      add\n      swap5\n      dup6\n      mstore\n      pop\n      mload(0x40)\n      swap4\n      dup5\n      swap1\n      sub\n      add\n      swap1\n      swap3\n      keccak256\n      sload\n      0xff\n      and\n      swap2\n      pop\n        /* \"Entity.sol\":5641:5985  if(!newData.keyExistence[addKey]){\r... */\n      tag_370\n      swap1\n      pop\n      jumpi\n        /* \"Entity.sol\":5693:5704  newData.key */\n      0x03\n      dup9\n      add\n        /* \"--CODEGEN--\":27:37   */\n      dup1\n      sload\n        /* \"--CODEGEN--\":39:40   */\n      0x01\n        /* \"--CODEGEN--\":23:41   */\n      dup2\n      add\n        /* \"--CODEGEN--\":45:68   */\n      dup3\n      sstore\n      0x00\n        /* \"Entity.sol\":5693:5717  newData.key.push(addKey) */\n      swap2\n      dup3\n      mstore\n      0x20\n      swap2\n      dup3\n      swap1\n      keccak256\n      dup5\n      mload\n      tag_372\n      swap4\n      swap2\n      swap1\n      swap3\n      add\n      swap2\n      swap1\n      dup6\n      add\n      swap1\n      tag_347\n      jump\t// in\n    tag_372:\n      pop\n        /* \"Entity.sol\":5767:5771  true */\n      0x01\n        /* \"Entity.sol\":5736:5743  newData */\n      dup9\n        /* \"Entity.sol\":5736:5756  newData.keyExistence */\n      0x04\n      add\n        /* \"Entity.sol\":5757:5763  addKey */\n      dup4\n        /* \"Entity.sol\":5736:5764  newData.keyExistence[addKey] */\n      mload(0x40)\n      dup1\n      dup3\n      dup1\n      mload\n      swap1\n      0x20\n      add\n      swap1\n      dup1\n      dup4\n      dup4\n        /* \"--CODEGEN--\":36:189   */\n    tag_373:\n        /* \"--CODEGEN--\":66:68   */\n      0x20\n        /* \"--CODEGEN--\":61:64   */\n      dup4\n        /* \"--CODEGEN--\":58:69   */\n      lt\n        /* \"--CODEGEN--\":36:189   */\n      tag_375\n      jumpi\n        /* \"--CODEGEN--\":176:186   */\n      dup1\n      mload\n        /* \"--CODEGEN--\":164:187   */\n      dup3\n      mstore\n      not(0x1f)\n        /* \"--CODEGEN--\":139:151   */\n      swap1\n      swap3\n      add\n      swap2\n        /* \"--CODEGEN--\":98:100   */\n      0x20\n        /* \"--CODEGEN--\":89:101   */\n      swap2\n      dup3\n      add\n      swap2\n        /* \"--CODEGEN--\":114:126   */\n      add\n        /* \"--CODEGEN--\":36:189   */\n      jump(tag_373)\n    tag_375:\n        /* \"--CODEGEN--\":299:309   */\n      mload\n        /* \"--CODEGEN--\":344:354   */\n      dup2\n      mload\n        /* \"--CODEGEN--\":263:265   */\n      0x20\n        /* \"--CODEGEN--\":259:271   */\n      swap4\n      dup5\n      sub\n        /* \"--CODEGEN--\":254:257   */\n      0x0100\n        /* \"--CODEGEN--\":250:272   */\n      exp\n      not(0x00)\n        /* \"--CODEGEN--\":246:276   */\n      add\n        /* \"--CODEGEN--\":311:320   */\n      dup1\n      not\n        /* \"--CODEGEN--\":295:321   */\n      swap1\n      swap3\n      and\n        /* \"--CODEGEN--\":340:361   */\n      swap2\n      and\n        /* \"--CODEGEN--\":377:397   */\n      or\n        /* \"--CODEGEN--\":365:398   */\n      swap1\n      mstore\n        /* \"Entity.sol\":5736:5764  newData.keyExistence[addKey] */\n      swap3\n      add\n      swap5\n      dup6\n      mstore\n      pop\n      mload(0x40)\n      swap4\n      dup5\n      swap1\n      sub\n      dup2\n      add\n      dup5\n      keccak256\n        /* \"Entity.sol\":5736:5771  newData.keyExistence[addKey] = true */\n      dup1\n      sload\n      not(0xff)\n      and\n      swap6\n      iszero\n      iszero\n      swap6\n      swap1\n      swap6\n      or\n      swap1\n      swap5\n      sstore\n      pop\n      pop\n        /* \"Entity.sol\":5790:5814  newData.keyIndex[addKey] */\n      dup4\n      mload\n        /* \"Entity.sol\":5817:5818  i */\n      dup6\n      swap3\n        /* \"Entity.sol\":5790:5806  newData.keyIndex */\n      0x05\n      dup13\n      add\n      swap3\n        /* \"Entity.sol\":5790:5814  newData.keyIndex[addKey] */\n      dup7\n      swap3\n        /* \"Entity.sol\":5736:5764  newData.keyExistence[addKey] */\n      swap1\n      swap2\n      dup3\n      swap2\n        /* \"Entity.sol\":5790:5814  newData.keyIndex[addKey] */\n      swap1\n      dup5\n      add\n      swap1\n      dup1\n        /* \"Entity.sol\":5736:5764  newData.keyExistence[addKey] */\n      dup4\n        /* \"Entity.sol\":5790:5814  newData.keyIndex[addKey] */\n      dup4\n        /* \"--CODEGEN--\":36:189   */\n    tag_376:\n        /* \"--CODEGEN--\":66:68   */\n      0x20\n        /* \"--CODEGEN--\":61:64   */\n      dup4\n        /* \"--CODEGEN--\":58:69   */\n      lt\n        /* \"--CODEGEN--\":36:189   */\n      tag_378\n      jumpi\n        /* \"--CODEGEN--\":176:186   */\n      dup1\n      mload\n        /* \"--CODEGEN--\":164:187   */\n      dup3\n      mstore\n      not(0x1f)\n        /* \"--CODEGEN--\":139:151   */\n      swap1\n      swap3\n      add\n      swap2\n        /* \"--CODEGEN--\":98:100   */\n      0x20\n        /* \"--CODEGEN--\":89:101   */\n      swap2\n      dup3\n      add\n      swap2\n        /* \"--CODEGEN--\":114:126   */\n      add\n        /* \"--CODEGEN--\":36:189   */\n      jump(tag_376)\n    tag_378:\n        /* \"--CODEGEN--\":299:309   */\n      mload\n        /* \"--CODEGEN--\":344:354   */\n      dup2\n      mload\n        /* \"--CODEGEN--\":263:265   */\n      0x20\n        /* \"--CODEGEN--\":259:271   */\n      swap4\n      dup5\n      sub\n        /* \"--CODEGEN--\":254:257   */\n      0x0100\n        /* \"--CODEGEN--\":250:272   */\n      exp\n      not(0x00)\n        /* \"--CODEGEN--\":246:276   */\n      add\n        /* \"--CODEGEN--\":311:320   */\n      dup1\n      not\n        /* \"--CODEGEN--\":295:321   */\n      swap1\n      swap3\n      and\n        /* \"--CODEGEN--\":340:361   */\n      swap2\n      and\n        /* \"--CODEGEN--\":377:397   */\n      or\n        /* \"--CODEGEN--\":365:398   */\n      swap1\n      mstore\n        /* \"Entity.sol\":5790:5814  newData.keyIndex[addKey] */\n      swap3\n      add\n      swap5\n      dup6\n      mstore\n      pop\n      mload(0x40)\n      swap4\n      dup5\n      swap1\n      sub\n      dup2\n      add\n      swap1\n      swap4\n      keccak256\n        /* \"Entity.sol\":5790:5818  newData.keyIndex[addKey] = i */\n      dup1\n      sload\n      not(0xffffffff)\n      and\n      0xffffffff\n      swap6\n      swap1\n      swap6\n      and\n      swap5\n      swap1\n      swap5\n      or\n      swap1\n      swap4\n      sstore\n      pop\n        /* \"Entity.sol\":5838:5851  newData.value */\n      0x06\n      dup11\n      add\n        /* \"--CODEGEN--\":27:37   */\n      dup1\n      sload\n      0x01\n        /* \"--CODEGEN--\":23:41   */\n      dup2\n      add\n        /* \"--CODEGEN--\":45:68   */\n      dup3\n      sstore\n      0x00\n        /* \"Entity.sol\":5838:5866  newData.value.push(addValue) */\n      swap2\n      dup3\n      mstore\n      swap1\n      dup3\n      swap1\n      keccak256\n      dup5\n      mload\n      tag_380\n      swap5\n      pop\n      swap2\n      add\n      swap2\n      dup5\n      add\n      swap1\n      tag_347\n      jump\t// in\n    tag_380:\n      pop\n        /* \"Entity.sol\":5641:5985  if(!newData.keyExistence[addKey]){\r... */\n      jump(tag_381)\n    tag_370:\n        /* \"Entity.sol\":5961:5969  addValue */\n      dup1\n        /* \"Entity.sol\":5919:5926  newData */\n      dup9\n        /* \"Entity.sol\":5919:5932  newData.value */\n      0x06\n      add\n        /* \"Entity.sol\":5933:5940  newData */\n      dup10\n        /* \"Entity.sol\":5933:5949  newData.keyIndex */\n      0x05\n      add\n        /* \"Entity.sol\":5950:5956  addKey */\n      dup5\n        /* \"Entity.sol\":5933:5957  newData.keyIndex[addKey] */\n      mload(0x40)\n      dup1\n      dup3\n      dup1\n      mload\n      swap1\n      0x20\n      add\n      swap1\n      dup1\n      dup4\n      dup4\n        /* \"--CODEGEN--\":36:189   */\n    tag_382:\n        /* \"--CODEGEN--\":66:68   */\n      0x20\n        /* \"--CODEGEN--\":61:64   */\n      dup4\n        /* \"--CODEGEN--\":58:69   */\n      lt\n        /* \"--CODEGEN--\":36:189   */\n      tag_384\n      jumpi\n        /* \"--CODEGEN--\":176:186   */\n      dup1\n      mload\n        /* \"--CODEGEN--\":164:187   */\n      dup3\n      mstore\n      not(0x1f)\n        /* \"--CODEGEN--\":139:151   */\n      swap1\n      swap3\n      add\n      swap2\n        /* \"--CODEGEN--\":98:100   */\n      0x20\n        /* \"--CODEGEN--\":89:101   */\n      swap2\n      dup3\n      add\n      swap2\n        /* \"--CODEGEN--\":114:126   */\n      add\n        /* \"--CODEGEN--\":36:189   */\n      jump(tag_382)\n    tag_384:\n        /* \"--CODEGEN--\":299:309   */\n      mload\n        /* \"--CODEGEN--\":344:354   */\n      dup2\n      mload\n        /* \"--CODEGEN--\":263:265   */\n      0x20\n        /* \"--CODEGEN--\":259:271   */\n      swap4\n      dup5\n      sub\n        /* \"--CODEGEN--\":254:257   */\n      0x0100\n        /* \"--CODEGEN--\":250:272   */\n      exp\n      not(0x00)\n        /* \"--CODEGEN--\":246:276   */\n      add\n        /* \"--CODEGEN--\":311:320   */\n      dup1\n      not\n        /* \"--CODEGEN--\":295:321   */\n      swap1\n      swap3\n      and\n        /* \"--CODEGEN--\":340:361   */\n      swap2\n      and\n        /* \"--CODEGEN--\":377:397   */\n      or\n        /* \"--CODEGEN--\":365:398   */\n      swap1\n      mstore\n        /* \"Entity.sol\":5933:5957  newData.keyIndex[addKey] */\n      swap3\n      add\n      swap5\n      dup6\n      mstore\n      pop\n      mload(0x40)\n      swap4\n      dup5\n      swap1\n      sub\n      add\n      swap1\n      swap3\n      keccak256\n      sload\n        /* \"Entity.sol\":5919:5958  newData.value[newData.keyIndex[addKey]] */\n      dup4\n      sload\n        /* \"Entity.sol\":5933:5957  newData.keyIndex[addKey] */\n      0xffffffff\n      swap1\n      swap2\n      and\n      swap3\n      pop\n        /* \"Entity.sol\":5919:5958  newData.value[newData.keyIndex[addKey]] */\n      dup3\n      lt\n      swap1\n      pop\n      tag_385\n      jumpi\n      invalid\n    tag_385:\n      swap1\n      0x00\n      mstore\n      keccak256(0x00, 0x20)\n      add\n        /* \"Entity.sol\":5919:5969  newData.value[newData.keyIndex[addKey]] = addValue */\n      swap1\n      dup1\n      mload\n      swap1\n      0x20\n      add\n      swap1\n      tag_387\n      swap3\n      swap2\n      swap1\n      tag_347\n      jump\t// in\n    tag_387:\n      pop\n        /* \"Entity.sol\":5641:5985  if(!newData.keyExistence[addKey]){\r... */\n    tag_381:\n      pop\n      pop\n        /* \"Entity.sol\":5484:5487  i++ */\n      0x01\n      add\n        /* \"Entity.sol\":5459:6128  for(uint32 i=0; i<count; i++){\r... */\n      jump(tag_358)\n    tag_359:\n      pop\n        /* \"Entity.sol\":6148:6165  pendingDataToSend */\n      0x09\n        /* \"--CODEGEN--\":27:37   */\n      dup1\n      sload\n        /* \"--CODEGEN--\":39:40   */\n      0x01\n        /* \"--CODEGEN--\":23:41   */\n      dup2\n      dup2\n      add\n        /* \"--CODEGEN--\":45:68   */\n      dup4\n      sstore\n      0x00\n        /* \"Entity.sol\":6148:6179  pendingDataToSend.push(newData) */\n      swap3\n      swap1\n      swap3\n      mstore\n      dup7\n      sload\n      0x08\n      swap1\n      swap2\n      mul\n      0x6e1540171b6c0c960b71a7020d9f60077f6af931a8bbf590da0223dacf75c7af\n      dup2\n      add\n      dup1\n      sload\n      not(sub(shl(0xa0, 0x01), 0x01))\n      swap1\n      dup2\n      and\n      sub(shl(0xa0, 0x01), 0x01)\n      swap5\n      dup6\n      and\n      or\n      dup3\n      sstore\n      dup5\n      dup11\n      add\n      sload\n      0x6e1540171b6c0c960b71a7020d9f60077f6af931a8bbf590da0223dacf75c7b0\n      dup5\n      add\n      dup1\n      sload\n      swap1\n      swap3\n      and\n      swap5\n      and\n      swap4\n      swap1\n      swap4\n      or\n      swap1\n      swap3\n      sstore\n      0x02\n      dup1\n      dup10\n      add\n      dup1\n      sload\n        /* \"Entity.sol\":6171:6178  newData */\n      dup11\n      swap6\n        /* \"Entity.sol\":6148:6179  pendingDataToSend.push(newData) */\n      tag_389\n      swap5\n      0x6e1540171b6c0c960b71a7020d9f60077f6af931a8bbf590da0223dacf75c7b1\n      add\n      swap4\n      swap1\n      dup3\n      and\n      iszero\n      0x0100\n      mul\n      not(0x00)\n      add\n      swap1\n      swap2\n      and\n      div\n      tag_390\n      jump\t// in\n    tag_389:\n      pop\n      0x03\n      dup3\n      dup2\n      add\n      dup1\n      sload\n      tag_391\n      swap3\n      dup5\n      add\n      swap2\n      swap1\n      tag_392\n      jump\t// in\n    tag_391:\n      pop\n      0x06\n      dup3\n      dup2\n      add\n      dup1\n      sload\n      tag_393\n      swap3\n      dup5\n      add\n      swap2\n      swap1\n      tag_392\n      jump\t// in\n    tag_393:\n      pop\n      0x07\n      swap2\n      dup3\n      add\n      sload\n      swap2\n      add\n      dup1\n      sload\n      not(0xff)\n      and\n      0xff\n      swap1\n      swap3\n      and\n      iszero\n      iszero\n      swap2\n      swap1\n      swap2\n      or\n      swap1\n      sstore\n        /* \"Entity.sol\":6190:6269  if(direct)\r... */\n      dup6\n      iszero\n      tag_395\n      jumpi\n        /* \"Entity.sol\":6239:6256  pendingDataToSend */\n      0x09\n        /* \"Entity.sol\":6239:6263  pendingDataToSend.length */\n      sload\n        /* \"Entity.sol\":6214:6269  approveDataToSend(uint32(pendingDataToSend.length - 1)) */\n      tag_395\n      swap1\n      not(0x00)\n        /* \"Entity.sol\":6239:6267  pendingDataToSend.length - 1 */\n      add\n        /* \"Entity.sol\":6214:6231  approveDataToSend */\n      tag_119\n        /* \"Entity.sol\":6214:6269  approveDataToSend(uint32(pendingDataToSend.length - 1)) */\n      jump\t// in\n    tag_395:\n        /* \"Entity.sol\":671:672  _ */\n      pop\n      pop\n      pop\n      pop\n      pop\n        /* \"Entity.sol\":4672:6277  function newDataToSend(address _receiver, string memory _description, string memory _key, string memory _value, bool direct) \r... */\n      pop\n      pop\n      pop\n      pop\n      pop\n      jump\t// out\n        /* \"Entity.sol\":3783:3993  function approveMultipleToReceive(address multipleEntity, uint32 index)\r... */\n    tag_149:\n        /* \"Entity.sol\":3955:3985  mE.approveDataToReceive(index) */\n      0x40\n      dup1\n      mload\n      shl(0xe0, 0x4f2bcbef)\n      dup2\n      mstore\n      0xffffffff\n      dup4\n      and\n      0x04\n      dup3\n      add\n      mstore\n      swap1\n      mload\n        /* \"Entity.sol\":3929:3943  multipleEntity */\n      dup4\n      swap2\n      sub(shl(0xa0, 0x01), 0x01)\n        /* \"Entity.sol\":3955:3978  mE.approveDataToReceive */\n      dup4\n      and\n      swap2\n      0x4f2bcbef\n      swap2\n        /* \"Entity.sol\":3955:3985  mE.approveDataToReceive(index) */\n      0x24\n      dup1\n      dup3\n      add\n      swap3\n        /* \"Entity.sol\":3910:3919  Entity mE */\n      0x00\n      swap3\n        /* \"Entity.sol\":3955:3985  mE.approveDataToReceive(index) */\n      swap1\n      swap2\n      swap1\n      dup3\n      swap1\n      sub\n      add\n      dup2\n        /* \"Entity.sol\":3910:3919  Entity mE */\n      dup4\n        /* \"Entity.sol\":3955:3978  mE.approveDataToReceive */\n      dup8\n        /* \"Entity.sol\":3955:3985  mE.approveDataToReceive(index) */\n      dup1\n      extcodesize\n      iszero\n        /* \"--CODEGEN--\":2:4   */\n      dup1\n      iszero\n      tag_408\n      jumpi\n        /* \"--CODEGEN--\":27:28   */\n      0x00\n        /* \"--CODEGEN--\":24:25   */\n      dup1\n        /* \"--CODEGEN--\":17:29   */\n      revert\n        /* \"--CODEGEN--\":2:4   */\n    tag_408:\n        /* \"Entity.sol\":3955:3985  mE.approveDataToReceive(index) */\n      pop\n      gas\n      call\n      iszero\n        /* \"--CODEGEN--\":8:17   */\n      dup1\n        /* \"--CODEGEN--\":5:7   */\n      iszero\n      tag_410\n      jumpi\n        /* \"--CODEGEN--\":45:61   */\n      returndatasize\n        /* \"--CODEGEN--\":42:43   */\n      0x00\n        /* \"--CODEGEN--\":39:40   */\n      dup1\n        /* \"--CODEGEN--\":24:62   */\n      returndatacopy\n        /* \"--CODEGEN--\":77:93   */\n      returndatasize\n        /* \"--CODEGEN--\":74:75   */\n      0x00\n        /* \"--CODEGEN--\":67:94   */\n      revert\n        /* \"--CODEGEN--\":5:7   */\n    tag_410:\n        /* \"Entity.sol\":3955:3985  mE.approveDataToReceive(index) */\n      pop\n      pop\n      pop\n      pop\n        /* \"Entity.sol\":671:672  _ */\n      pop\n        /* \"Entity.sol\":3783:3993  function approveMultipleToReceive(address multipleEntity, uint32 index)\r... */\n      pop\n      pop\n      jump\t// out\n        /* \"Entity.sol\":1268:1309  pendingData[] public pendingDataToReceive */\n    tag_152:\n      0x07\n      dup2\n      dup2\n      sload\n      dup2\n      lt\n      tag_411\n      jumpi\n      invalid\n    tag_411:\n      0x00\n      swap2\n      dup3\n      mstore\n      0x20\n      swap2\n      dup3\n      swap1\n      keccak256\n      0x08\n      swap1\n      swap2\n      mul\n      add\n      dup1\n      sload\n      0x01\n      dup1\n      dup4\n      add\n      sload\n      0x02\n      dup1\n      dup6\n      add\n      dup1\n      sload\n      0x40\n      dup1\n      mload\n      0x1f\n      not(0x00)\n      swap8\n      dup5\n      and\n      iszero\n      0x0100\n      mul\n      swap8\n      swap1\n      swap8\n      add\n      swap1\n      swap3\n      and\n      swap4\n      swap1\n      swap4\n      div\n      swap5\n      dup6\n      add\n      dup9\n      swap1\n      div\n      dup9\n      mul\n      dup2\n      add\n      dup9\n      add\n      swap1\n      swap3\n      mstore\n      dup4\n      dup3\n      mstore\n      sub(shl(0xa0, 0x01), 0x01)\n      swap5\n      dup6\n      and\n      swap8\n      pop\n      swap2\n      swap1\n      swap4\n      and\n      swap5\n      swap1\n      swap2\n      swap1\n      dup4\n      add\n      dup3\n      dup3\n      dup1\n      iszero\n      tag_413\n      jumpi\n      dup1\n      0x1f\n      lt\n      tag_414\n      jumpi\n      0x0100\n      dup1\n      dup4\n      sload\n      div\n      mul\n      dup4\n      mstore\n      swap2\n      0x20\n      add\n      swap2\n      jump(tag_413)\n    tag_414:\n      dup3\n      add\n      swap2\n      swap1\n      0x00\n      mstore\n      keccak256(0x00, 0x20)\n      swap1\n    tag_415:\n      dup2\n      sload\n      dup2\n      mstore\n      swap1\n      0x01\n      add\n      swap1\n      0x20\n      add\n      dup1\n      dup4\n      gt\n      tag_415\n      jumpi\n      dup3\n      swap1\n      sub\n      0x1f\n      and\n      dup3\n      add\n      swap2\n    tag_413:\n      pop\n      pop\n      pop\n      0x07\n      swap1\n      swap4\n      add\n      sload\n      swap2\n      swap3\n      pop\n      pop\n      0xff\n      and\n      dup5\n      jump\t// out\n        /* \"Entity.sol\":1860:2084  function _receiveData(string calldata _key, string calldata _value, uint32 index)\r... */\n    tag_165:\n        /* \"Entity.sol\":1977:1997  pendingDataToReceive */\n      0x07\n        /* \"Entity.sol\":1998:2003  index */\n      dup2\n        /* \"Entity.sol\":1977:2004  pendingDataToReceive[index] */\n      0xffffffff\n      and\n      dup2\n      sload\n      dup2\n      lt\n      tag_417\n      jumpi\n      invalid\n    tag_417:\n      0x00\n      swap2\n      dup3\n      mstore\n      0x20\n      dup1\n      dup4\n      keccak256\n        /* \"Entity.sol\":1977:2010  pendingDataToReceive[index].value */\n      0x06\n        /* \"Entity.sol\":1977:2004  pendingDataToReceive[index] */\n      0x08\n      swap1\n      swap4\n      mul\n      add\n        /* \"Entity.sol\":1977:2010  pendingDataToReceive[index].value */\n      swap2\n      swap1\n      swap2\n      add\n        /* \"--CODEGEN--\":27:37   */\n      dup1\n      sload\n        /* \"--CODEGEN--\":39:40   */\n      0x01\n        /* \"--CODEGEN--\":23:41   */\n      dup2\n      add\n        /* \"--CODEGEN--\":45:68   */\n      dup3\n      sstore\n        /* \"Entity.sol\":1977:2023  pendingDataToReceive[index].value.push(_value) */\n      swap1\n      dup4\n      mstore\n      swap2\n      keccak256\n      tag_420\n      swap2\n      add\n        /* \"Entity.sol\":2016:2022  _value */\n      dup5\n      dup5\n        /* \"Entity.sol\":1977:2023  pendingDataToReceive[index].value.push(_value) */\n      tag_421\n      jump\t// in\n    tag_420:\n      pop\n        /* \"Entity.sol\":2034:2054  pendingDataToReceive */\n      0x07\n        /* \"Entity.sol\":2055:2060  index */\n      dup2\n        /* \"Entity.sol\":2034:2061  pendingDataToReceive[index] */\n      0xffffffff\n      and\n      dup2\n      sload\n      dup2\n      lt\n      tag_422\n      jumpi\n      invalid\n    tag_422:\n      0x00\n      swap2\n      dup3\n      mstore\n      0x20\n      dup1\n      dup4\n      keccak256\n        /* \"Entity.sol\":2034:2065  pendingDataToReceive[index].key */\n      0x03\n        /* \"Entity.sol\":2034:2061  pendingDataToReceive[index] */\n      0x08\n      swap1\n      swap4\n      mul\n      add\n        /* \"Entity.sol\":2034:2065  pendingDataToReceive[index].key */\n      swap2\n      swap1\n      swap2\n      add\n        /* \"--CODEGEN--\":27:37   */\n      dup1\n      sload\n        /* \"--CODEGEN--\":39:40   */\n      0x01\n        /* \"--CODEGEN--\":23:41   */\n      dup2\n      add\n        /* \"--CODEGEN--\":45:68   */\n      dup3\n      sstore\n        /* \"Entity.sol\":2034:2076  pendingDataToReceive[index].key.push(_key) */\n      swap1\n      dup4\n      mstore\n      swap2\n      keccak256\n      tag_425\n      swap2\n      add\n        /* \"Entity.sol\":2071:2075  _key */\n      dup7\n      dup7\n        /* \"Entity.sol\":2034:2076  pendingDataToReceive[index].key.push(_key) */\n      tag_421\n      jump\t// in\n    tag_425:\n      pop\n        /* \"Entity.sol\":1860:2084  function _receiveData(string calldata _key, string calldata _value, uint32 index)\r... */\n      pop\n      pop\n      pop\n      pop\n      pop\n      jump\t// out\n        /* \"Entity.sol\":8513:8685  function dataSizeToSend(uint32 index) \r... */\n    tag_168:\n        /* \"Entity.sol\":8602:8608  uint32 */\n      0x00\n        /* \"Entity.sol\":8641:8658  pendingDataToSend */\n      0x09\n        /* \"Entity.sol\":8659:8664  index */\n      dup3\n        /* \"Entity.sol\":8641:8665  pendingDataToSend[index] */\n      0xffffffff\n      and\n      dup2\n      sload\n      dup2\n      lt\n      tag_302\n      jumpi\n      invalid\n        /* \"Entity.sol\":1402:1440  pendingData[] public pendingDataToSend */\n    tag_171:\n      0x09\n      dup2\n      dup2\n      sload\n      dup2\n      lt\n      tag_411\n      jumpi\n      invalid\n        /* \"Entity.sol\":1158:1223  mapping(address=>mapping(string=>bool)) public writtenDescription */\n    tag_181:\n      0x06\n      0x20\n      swap1\n      dup2\n      mstore\n      0x00\n      swap3\n      dup4\n      mstore\n      0x40\n      swap1\n      swap3\n      keccak256\n        /* \"--CODEGEN--\":22:36   */\n      dup2\n      mload\n        /* \"--CODEGEN--\":143:175   */\n      dup1\n      dup4\n      add\n      dup5\n      add\n        /* \"--CODEGEN--\":198:218   */\n      dup1\n      mload\n        /* \"--CODEGEN--\":224:255   */\n      swap3\n      dup2\n      mstore\n        /* \"--CODEGEN--\":156:174   */\n      swap1\n      dup5\n      add\n        /* \"--CODEGEN--\":283:301   */\n      swap3\n      swap1\n      swap4\n      add\n        /* \"--CODEGEN--\":273:322   */\n      swap2\n      swap1\n      swap2\n      keccak256\n        /* \"--CODEGEN--\":328:360   */\n      swap2\n      mstore\n        /* \"Entity.sol\":1158:1223  mapping(address=>mapping(string=>bool)) public writtenDescription */\n      sload\n      0xff\n      and\n      dup2\n      jump\t// out\n        /* \"Entity.sol\":1485:1848  function _newData(string calldata _description)\r... */\n    tag_187:\n        /* \"Entity.sol\":1569:1575  uint32 */\n      0x00\n        /* \"Entity.sol\":1594:1620  pendingData memory newData */\n      tag_435\n      tag_436\n      jump\t// in\n    tag_435:\n        /* \"Entity.sol\":1648:1658  msg.sender */\n      caller\n        /* \"Entity.sol\":1631:1658  newData.source = msg.sender */\n      dup2\n      mstore\n        /* \"Entity.sol\":1669:1703  newData.description = _description */\n      0x40\n      dup1\n      mload\n      0x20\n      0x1f\n      dup7\n      add\n      dup2\n      swap1\n      div\n      dup2\n      mul\n      dup3\n      add\n      dup2\n      add\n      swap1\n      swap3\n      mstore\n      dup5\n      dup2\n      mstore\n      swap1\n        /* \"Entity.sol\":1691:1703  _description */\n      dup6\n      swap1\n      dup6\n      swap1\n      dup2\n      swap1\n        /* \"Entity.sol\":1669:1703  newData.description = _description */\n      dup5\n      add\n        /* \"Entity.sol\":1691:1703  _description */\n      dup4\n      dup3\n      dup1\n      dup3\n        /* \"Entity.sol\":1669:1703  newData.description = _description */\n      dup5\n        /* \"--CODEGEN--\":1:34   */\n      calldatacopy\n        /* \"--CODEGEN--\":99:100   */\n      0x00\n        /* \"--CODEGEN--\":81:97   */\n      swap3\n      add\n        /* \"--CODEGEN--\":74:101   */\n      dup3\n      swap1\n      mstore\n      pop\n        /* \"Entity.sol\":1669:1688  newData.description */\n      0x40\n      dup7\n      add\n        /* \"Entity.sol\":1669:1703  newData.description = _description */\n      swap5\n      dup6\n      mstore\n        /* \"Entity.sol\":1714:1730  newData.approved */\n      0xa0\n      dup7\n      add\n        /* \"Entity.sol\":1714:1738  newData.approved = false */\n      dup2\n      swap1\n      mstore\n        /* \"Entity.sol\":1749:1769  pendingDataToReceive */\n      0x07\n        /* \"--CODEGEN--\":27:37   */\n      dup1\n      sload\n        /* \"Entity.sol\":1714:1738  newData.approved = false */\n      0x01\n        /* \"--CODEGEN--\":23:41   */\n      dup2\n      add\n        /* \"--CODEGEN--\":45:68   */\n      dup3\n      sstore\n        /* \"Entity.sol\":1749:1783  pendingDataToReceive.push(newData) */\n      swap2\n      mstore\n      dup6\n      mload\n      0xa66cc928b5edb82af9bd49922954155ab7b0942694bea4ce44661d9a8736c688\n      0x08\n      swap1\n      swap3\n      mul\n      swap2\n      dup3\n      add\n      dup1\n      sload\n      not(sub(shl(0xa0, 0x01), 0x01))\n      swap1\n      dup2\n      and\n      sub(shl(0xa0, 0x01), 0x01)\n      swap4\n      dup5\n      and\n      or\n      dup3\n      sstore\n      0x20\n      dup1\n      dup11\n      add\n      mload\n      0xa66cc928b5edb82af9bd49922954155ab7b0942694bea4ce44661d9a8736c689\n      dup7\n      add\n      dup1\n      sload\n      swap1\n      swap4\n      and\n      swap5\n      and\n      swap4\n      swap1\n      swap4\n      or\n      swap1\n      sstore\n      swap6\n      mload\n      dup1\n      mload\n        /* \"Entity.sol\":1669:1688  newData.description */\n      dup9\n      swap8\n        /* \"Entity.sol\":1749:1783  pendingDataToReceive.push(newData) */\n      swap7\n      pop\n      tag_438\n      swap6\n      pop\n      0xa66cc928b5edb82af9bd49922954155ab7b0942694bea4ce44661d9a8736c68a\n      swap1\n      swap4\n      add\n      swap4\n      pop\n      add\n      swap1\n      tag_347\n      jump\t// in\n    tag_438:\n      pop\n      0x60\n      dup3\n      add\n      mload\n      dup1\n      mload\n      tag_439\n      swap2\n      0x03\n      dup5\n      add\n      swap2\n      0x20\n      swap1\n      swap2\n      add\n      swap1\n      tag_440\n      jump\t// in\n    tag_439:\n      pop\n      0x80\n      dup3\n      add\n      mload\n      dup1\n      mload\n      tag_441\n      swap2\n      0x06\n      dup5\n      add\n      swap2\n      0x20\n      swap1\n      swap2\n      add\n      swap1\n      tag_440\n      jump\t// in\n    tag_441:\n      pop\n      0xa0\n      swap2\n      swap1\n      swap2\n      add\n      mload\n      0x07\n      swap2\n      dup3\n      add\n      dup1\n      sload\n      not(0xff)\n      and\n      swap2\n      iszero\n      iszero\n      swap2\n      swap1\n      swap2\n      or\n      swap1\n      sstore\n        /* \"Entity.sol\":1808:1835  pendingDataToReceive.length */\n      sload\n      not(0x00)\n        /* \"Entity.sol\":1808:1839  pendingDataToReceive.length - 1 */\n      add\n      swap5\n        /* \"Entity.sol\":1485:1848  function _newData(string calldata _description)\r... */\n      swap4\n      pop\n      pop\n      pop\n      pop\n      jump\t// out\n        /* \"Entity.sol\":9367:9539  function descriptionLength(address source)\r... */\n    tag_190:\n      sub(shl(0xa0, 0x01), 0x01)\n        /* \"Entity.sol\":9495:9523  descriptionsBySource[source] */\n      and\n        /* \"Entity.sol\":9457:9463  uint32 */\n      0x00\n        /* \"Entity.sol\":9495:9523  descriptionsBySource[source] */\n      swap1\n      dup2\n      mstore\n        /* \"Entity.sol\":9495:9515  descriptionsBySource */\n      0x05\n        /* \"Entity.sol\":9495:9523  descriptionsBySource[source] */\n      0x20\n      mstore\n      0x40\n      swap1\n      keccak256\n        /* \"Entity.sol\":9495:9530  descriptionsBySource[source].length */\n      sload\n      swap1\n        /* \"Entity.sol\":9367:9539  function descriptionLength(address source)\r... */\n      jump\t// out\n        /* \"Entity.sol\":8345:8501  function pendingDataToSendCount() \r... */\n    tag_192:\n        /* \"Entity.sol\":8468:8485  pendingDataToSend */\n      0x09\n        /* \"Entity.sol\":8468:8492  pendingDataToSend.length */\n      sload\n        /* \"Entity.sol\":8345:8501  function pendingDataToSendCount() \r... */\n      swap1\n      jump\t// out\n        /* \"Entity.sol\":859:909  mapping(address=>uint32) public recentSendingIndex */\n    tag_195:\n      mstore(0x20, 0x01)\n      0x00\n      swap1\n      dup2\n      mstore\n      0x40\n      swap1\n      keccak256\n      sload\n      0xffffffff\n      and\n      dup2\n      jump\t// out\n        /* \"Entity.sol\":4369:4630  function keyValueOfDataToReceive(uint32 index, uint32 keyIndex)\r... */\n    tag_198:\n        /* \"Entity.sol\":4481:4494  string memory */\n      0x60\n        /* \"Entity.sol\":4496:4509  string memory */\n      dup1\n        /* \"Entity.sol\":4535:4555  pendingDataToReceive */\n      0x07\n        /* \"Entity.sol\":4556:4561  index */\n      dup5\n        /* \"Entity.sol\":4535:4562  pendingDataToReceive[index] */\n      0xffffffff\n      and\n      dup2\n      sload\n      dup2\n      lt\n      tag_445\n      jumpi\n      invalid\n    tag_445:\n      swap1\n      0x00\n      mstore\n      keccak256(0x00, 0x20)\n      swap1\n      0x08\n      mul\n      add\n        /* \"Entity.sol\":4535:4566  pendingDataToReceive[index].key */\n      0x03\n      add\n        /* \"Entity.sol\":4567:4575  keyIndex */\n      dup4\n        /* \"Entity.sol\":4535:4576  pendingDataToReceive[index].key[keyIndex] */\n      0xffffffff\n      and\n      dup2\n      sload\n      dup2\n      lt\n      tag_447\n      jumpi\n      invalid\n    tag_447:\n      swap1\n      0x00\n      mstore\n      keccak256(0x00, 0x20)\n      add\n        /* \"Entity.sol\":4578:4598  pendingDataToReceive */\n      0x07\n        /* \"Entity.sol\":4599:4604  index */\n      dup6\n        /* \"Entity.sol\":4578:4605  pendingDataToReceive[index] */\n      0xffffffff\n      and\n      dup2\n      sload\n      dup2\n      lt\n      tag_245\n      jumpi\n      invalid\n        /* \"Entity.sol\":8129:8333  function approveMultipleToSend(address multipleEntity, uint32 index)\r... */\n    tag_209:\n        /* \"Entity.sol\":8298:8325  me.approveDataToSend(index) */\n      0x40\n      dup1\n      mload\n      shl(0xe0, 0x838ebd85)\n      dup2\n      mstore\n      0xffffffff\n      dup4\n      and\n      0x04\n      dup3\n      add\n      mstore\n      swap1\n      mload\n        /* \"Entity.sol\":8272:8286  multipleEntity */\n      dup4\n      swap2\n      sub(shl(0xa0, 0x01), 0x01)\n        /* \"Entity.sol\":8298:8318  me.approveDataToSend */\n      dup4\n      and\n      swap2\n      0x838ebd85\n      swap2\n        /* \"Entity.sol\":8298:8325  me.approveDataToSend(index) */\n      0x24\n      dup1\n      dup3\n      add\n      swap3\n        /* \"Entity.sol\":8253:8262  Entity me */\n      0x00\n      swap3\n        /* \"Entity.sol\":8298:8325  me.approveDataToSend(index) */\n      swap1\n      swap2\n      swap1\n      dup3\n      swap1\n      sub\n      add\n      dup2\n        /* \"Entity.sol\":8253:8262  Entity me */\n      dup4\n        /* \"Entity.sol\":8298:8318  me.approveDataToSend */\n      dup8\n        /* \"Entity.sol\":8298:8325  me.approveDataToSend(index) */\n      dup1\n      extcodesize\n      iszero\n        /* \"--CODEGEN--\":2:4   */\n      dup1\n      iszero\n      tag_408\n      jumpi\n        /* \"--CODEGEN--\":27:28   */\n      0x00\n        /* \"--CODEGEN--\":24:25   */\n      dup1\n        /* \"--CODEGEN--\":17:29   */\n      revert\n        /* \"Entity.sol\":832:852  bool public isSingle */\n    tag_211:\n      and(0xff, sload(0x00))\n      dup2\n      jump\t// out\n        /* \"Entity.sol\":7305:7563  function addDataMultipleToSend(address multipleEntity, string memory _key, string memory _value, uint32 index) \r... */\n    tag_220:\n        /* \"Entity.sol\":7518:7555  me.addDataToSend(_key, _value, index) */\n      mload(0x40)\n      shl(0xe1, 0x7e15477d)\n      dup2\n      mstore\n      0xffffffff\n      dup3\n      and\n      0x44\n      dup3\n      add\n      mstore\n      0x60\n      0x04\n      dup3\n      add\n      swap1\n      dup2\n      mstore\n      dup5\n      mload\n      0x64\n      dup4\n      add\n      mstore\n      dup5\n      mload\n        /* \"Entity.sol\":7492:7506  multipleEntity */\n      dup7\n      swap3\n      sub(shl(0xa0, 0x01), 0x01)\n        /* \"Entity.sol\":7518:7534  me.addDataToSend */\n      dup5\n      and\n      swap3\n      0xfc2a8efa\n      swap3\n        /* \"Entity.sol\":7535:7539  _key */\n      dup9\n      swap3\n        /* \"Entity.sol\":7541:7547  _value */\n      dup9\n      swap3\n        /* \"Entity.sol\":7549:7554  index */\n      dup9\n      swap3\n        /* \"Entity.sol\":7518:7555  me.addDataToSend(_key, _value, index) */\n      swap1\n      swap2\n      dup3\n      swap2\n      0x24\n      dup3\n      add\n      swap2\n      0x84\n      add\n      swap1\n      0x20\n      dup9\n      add\n      swap1\n      dup1\n      dup4\n      dup4\n        /* \"Entity.sol\":7473:7482  Entity me */\n      0x00\n        /* \"--CODEGEN--\":8:108   */\n    tag_466:\n        /* \"--CODEGEN--\":33:36   */\n      dup4\n        /* \"--CODEGEN--\":30:31   */\n      dup2\n        /* \"--CODEGEN--\":27:37   */\n      lt\n        /* \"--CODEGEN--\":8:108   */\n      iszero\n      tag_468\n      jumpi\n        /* \"--CODEGEN--\":90:101   */\n      dup2\n      dup2\n      add\n        /* \"--CODEGEN--\":84:102   */\n      mload\n        /* \"--CODEGEN--\":71:82   */\n      dup4\n      dup3\n      add\n        /* \"--CODEGEN--\":64:103   */\n      mstore\n        /* \"--CODEGEN--\":52:54   */\n      0x20\n        /* \"--CODEGEN--\":45:55   */\n      add\n        /* \"--CODEGEN--\":8:108   */\n      jump(tag_466)\n    tag_468:\n        /* \"--CODEGEN--\":12:26   */\n      pop\n        /* \"Entity.sol\":7518:7555  me.addDataToSend(_key, _value, index) */\n      pop\n      pop\n      pop\n      swap1\n      pop\n      swap1\n      dup2\n      add\n      swap1\n      0x1f\n      and\n      dup1\n      iszero\n      tag_469\n      jumpi\n      dup1\n      dup3\n      sub\n      dup1\n      mload\n      0x01\n      dup4\n      0x20\n      sub\n      0x0100\n      exp\n      sub\n      not\n      and\n      dup2\n      mstore\n      0x20\n      add\n      swap2\n      pop\n    tag_469:\n      pop\n      dup4\n      dup2\n      sub\n      dup3\n      mstore\n      dup6\n      mload\n      dup2\n      mstore\n      dup6\n      mload\n      0x20\n      swap2\n      dup3\n      add\n      swap2\n      dup8\n      add\n      swap1\n      dup1\n      dup4\n      dup4\n        /* \"--CODEGEN--\":23:24   */\n      0x00\n        /* \"--CODEGEN--\":8:108   */\n    tag_470:\n        /* \"--CODEGEN--\":33:36   */\n      dup4\n        /* \"--CODEGEN--\":30:31   */\n      dup2\n        /* \"--CODEGEN--\":27:37   */\n      lt\n        /* \"--CODEGEN--\":8:108   */\n      iszero\n      tag_472\n      jumpi\n        /* \"--CODEGEN--\":90:101   */\n      dup2\n      dup2\n      add\n        /* \"--CODEGEN--\":84:102   */\n      mload\n        /* \"--CODEGEN--\":71:82   */\n      dup4\n      dup3\n      add\n        /* \"--CODEGEN--\":64:103   */\n      mstore\n        /* \"--CODEGEN--\":52:54   */\n      0x20\n        /* \"--CODEGEN--\":45:55   */\n      add\n        /* \"--CODEGEN--\":8:108   */\n      jump(tag_470)\n    tag_472:\n        /* \"--CODEGEN--\":12:26   */\n      pop\n        /* \"Entity.sol\":7518:7555  me.addDataToSend(_key, _value, index) */\n      pop\n      pop\n      pop\n      swap1\n      pop\n      swap1\n      dup2\n      add\n      swap1\n      0x1f\n      and\n      dup1\n      iszero\n      tag_473\n      jumpi\n      dup1\n      dup3\n      sub\n      dup1\n      mload\n      0x01\n      dup4\n      0x20\n      sub\n      0x0100\n      exp\n      sub\n      not\n      and\n      dup2\n      mstore\n      0x20\n      add\n      swap2\n      pop\n    tag_473:\n      pop\n      swap6\n      pop\n      pop\n      pop\n      pop\n      pop\n      pop\n      0x00\n      mload(0x40)\n      dup1\n      dup4\n      sub\n      dup2\n      0x00\n      dup8\n      dup1\n      extcodesize\n      iszero\n        /* \"--CODEGEN--\":5:14   */\n      dup1\n        /* \"--CODEGEN--\":2:4   */\n      iszero\n      tag_474\n      jumpi\n        /* \"--CODEGEN--\":27:28   */\n      0x00\n        /* \"--CODEGEN--\":24:25   */\n      dup1\n        /* \"--CODEGEN--\":17:29   */\n      revert\n        /* \"--CODEGEN--\":2:4   */\n    tag_474:\n        /* \"Entity.sol\":7518:7555  me.addDataToSend(_key, _value, index) */\n      pop\n      gas\n      call\n      iszero\n        /* \"--CODEGEN--\":8:17   */\n      dup1\n        /* \"--CODEGEN--\":5:7   */\n      iszero\n      tag_476\n      jumpi\n        /* \"--CODEGEN--\":45:61   */\n      returndatasize\n        /* \"--CODEGEN--\":42:43   */\n      0x00\n        /* \"--CODEGEN--\":39:40   */\n      dup1\n        /* \"--CODEGEN--\":24:62   */\n      returndatacopy\n        /* \"--CODEGEN--\":77:93   */\n      returndatasize\n        /* \"--CODEGEN--\":74:75   */\n      0x00\n        /* \"--CODEGEN--\":67:94   */\n      revert\n        /* \"--CODEGEN--\":5:7   */\n    tag_476:\n        /* \"Entity.sol\":7518:7555  me.addDataToSend(_key, _value, index) */\n      pop\n      pop\n      pop\n      pop\n        /* \"Entity.sol\":671:672  _ */\n      pop\n        /* \"Entity.sol\":7305:7563  function addDataMultipleToSend(address multipleEntity, string memory _key, string memory _value, uint32 index) \r... */\n      pop\n      pop\n      pop\n      pop\n      jump\t// out\n        /* \"Entity.sol\":1049:1089  mapping(address=>bool) public hasWritten */\n    tag_223:\n      mstore(0x20, 0x04)\n      0x00\n      swap1\n      dup2\n      mstore\n      0x40\n      swap1\n      keccak256\n      sload\n      0xff\n      and\n      dup2\n      jump\t// out\n        /* \"Entity.sol\":6665:7293  function addDataToSend(string memory _key, string memory _value, uint32 index) \r... */\n    tag_232:\n        /* \"Entity.sol\":6805:6822  pendingDataToSend */\n      0x09\n        /* \"Entity.sol\":6823:6828  index */\n      dup2\n        /* \"Entity.sol\":6805:6829  pendingDataToSend[index] */\n      0xffffffff\n      and\n      dup2\n      sload\n      dup2\n      lt\n      tag_479\n      jumpi\n      invalid\n    tag_479:\n      swap1\n      0x00\n      mstore\n      keccak256(0x00, 0x20)\n      swap1\n      0x08\n      mul\n      add\n        /* \"Entity.sol\":6805:6842  pendingDataToSend[index].keyExistence */\n      0x04\n      add\n        /* \"Entity.sol\":6843:6847  _key */\n      dup4\n        /* \"Entity.sol\":6805:6848  pendingDataToSend[index].keyExistence[_key] */\n      mload(0x40)\n      dup1\n      dup3\n      dup1\n      mload\n      swap1\n      0x20\n      add\n      swap1\n      dup1\n      dup4\n      dup4\n        /* \"--CODEGEN--\":36:189   */\n    tag_481:\n        /* \"--CODEGEN--\":66:68   */\n      0x20\n        /* \"--CODEGEN--\":61:64   */\n      dup4\n        /* \"--CODEGEN--\":58:69   */\n      lt\n        /* \"--CODEGEN--\":36:189   */\n      tag_483\n      jumpi\n        /* \"--CODEGEN--\":176:186   */\n      dup1\n      mload\n        /* \"--CODEGEN--\":164:187   */\n      dup3\n      mstore\n      not(0x1f)\n        /* \"--CODEGEN--\":139:151   */\n      swap1\n      swap3\n      add\n      swap2\n        /* \"--CODEGEN--\":98:100   */\n      0x20\n        /* \"--CODEGEN--\":89:101   */\n      swap2\n      dup3\n      add\n      swap2\n        /* \"--CODEGEN--\":114:126   */\n      add\n        /* \"--CODEGEN--\":36:189   */\n      jump(tag_481)\n    tag_483:\n        /* \"--CODEGEN--\":299:309   */\n      mload\n        /* \"--CODEGEN--\":344:354   */\n      dup2\n      mload\n        /* \"--CODEGEN--\":263:265   */\n      0x20\n        /* \"--CODEGEN--\":259:271   */\n      swap4\n      dup5\n      sub\n        /* \"--CODEGEN--\":254:257   */\n      0x0100\n        /* \"--CODEGEN--\":250:272   */\n      exp\n      not(0x00)\n        /* \"--CODEGEN--\":246:276   */\n      add\n        /* \"--CODEGEN--\":311:320   */\n      dup1\n      not\n        /* \"--CODEGEN--\":295:321   */\n      swap1\n      swap3\n      and\n        /* \"--CODEGEN--\":340:361   */\n      swap2\n      and\n        /* \"--CODEGEN--\":377:397   */\n      or\n        /* \"--CODEGEN--\":365:398   */\n      swap1\n      mstore\n        /* \"Entity.sol\":6805:6848  pendingDataToSend[index].keyExistence[_key] */\n      swap3\n      add\n      swap5\n      dup6\n      mstore\n      pop\n      mload(0x40)\n      swap4\n      dup5\n      swap1\n      sub\n      add\n      swap1\n      swap3\n      keccak256\n      sload\n      0xff\n      and\n      swap2\n      pop\n        /* \"Entity.sol\":6801:7286  if(!pendingDataToSend[index].keyExistence[_key]){\r... */\n      tag_484\n      swap1\n      pop\n      jumpi\n        /* \"Entity.sol\":6913:6930  pendingDataToSend */\n      0x09\n        /* \"Entity.sol\":6931:6936  index */\n      dup2\n        /* \"Entity.sol\":6913:6937  pendingDataToSend[index] */\n      0xffffffff\n      and\n      dup2\n      sload\n      dup2\n      lt\n      tag_485\n      jumpi\n      invalid\n    tag_485:\n      swap1\n      0x00\n      mstore\n      keccak256(0x00, 0x20)\n      swap1\n      0x08\n      mul\n      add\n        /* \"Entity.sol\":6913:6941  pendingDataToSend[index].key */\n      0x03\n      add\n        /* \"Entity.sol\":6913:6948  pendingDataToSend[index].key.length */\n      dup1\n      sload\n      swap1\n      pop\n        /* \"Entity.sol\":6864:6881  pendingDataToSend */\n      0x09\n        /* \"Entity.sol\":6882:6887  index */\n      dup3\n        /* \"Entity.sol\":6864:6888  pendingDataToSend[index] */\n      0xffffffff\n      and\n      dup2\n      sload\n      dup2\n      lt\n      tag_487\n      jumpi\n      invalid\n    tag_487:\n      swap1\n      0x00\n      mstore\n      keccak256(0x00, 0x20)\n      swap1\n      0x08\n      mul\n      add\n        /* \"Entity.sol\":6864:6897  pendingDataToSend[index].keyIndex */\n      0x05\n      add\n        /* \"Entity.sol\":6898:6902  _key */\n      dup5\n        /* \"Entity.sol\":6864:6903  pendingDataToSend[index].keyIndex[_key] */\n      mload(0x40)\n      dup1\n      dup3\n      dup1\n      mload\n      swap1\n      0x20\n      add\n      swap1\n      dup1\n      dup4\n      dup4\n        /* \"--CODEGEN--\":36:189   */\n    tag_489:\n        /* \"--CODEGEN--\":66:68   */\n      0x20\n        /* \"--CODEGEN--\":61:64   */\n      dup4\n        /* \"--CODEGEN--\":58:69   */\n      lt\n        /* \"--CODEGEN--\":36:189   */\n      tag_491\n      jumpi\n        /* \"--CODEGEN--\":176:186   */\n      dup1\n      mload\n        /* \"--CODEGEN--\":164:187   */\n      dup3\n      mstore\n      not(0x1f)\n        /* \"--CODEGEN--\":139:151   */\n      swap1\n      swap3\n      add\n      swap2\n        /* \"--CODEGEN--\":98:100   */\n      0x20\n        /* \"--CODEGEN--\":89:101   */\n      swap2\n      dup3\n      add\n      swap2\n        /* \"--CODEGEN--\":114:126   */\n      add\n        /* \"--CODEGEN--\":36:189   */\n      jump(tag_489)\n    tag_491:\n        /* \"--CODEGEN--\":299:309   */\n      mload\n        /* \"--CODEGEN--\":344:354   */\n      dup2\n      mload\n        /* \"--CODEGEN--\":263:265   */\n      0x20\n        /* \"--CODEGEN--\":259:271   */\n      swap4\n      dup5\n      sub\n        /* \"--CODEGEN--\":254:257   */\n      0x0100\n        /* \"--CODEGEN--\":250:272   */\n      exp\n      not(0x00)\n        /* \"--CODEGEN--\":246:276   */\n      add\n        /* \"--CODEGEN--\":311:320   */\n      dup1\n      not\n        /* \"--CODEGEN--\":295:321   */\n      swap1\n      swap3\n      and\n        /* \"--CODEGEN--\":340:361   */\n      swap2\n      and\n        /* \"--CODEGEN--\":377:397   */\n      or\n        /* \"--CODEGEN--\":365:398   */\n      swap1\n      mstore\n        /* \"Entity.sol\":6864:6903  pendingDataToSend[index].keyIndex[_key] */\n      swap3\n      add\n      swap5\n      dup6\n      mstore\n      pop\n      mload(0x40)\n      swap4\n      dup5\n      swap1\n      sub\n      add\n      swap1\n      swap3\n      keccak256\n        /* \"Entity.sol\":6864:6949  pendingDataToSend[index].keyIndex[_key] = uint32(pendingDataToSend[index].key.length) */\n      dup1\n      sload\n      not(0xffffffff)\n      and\n      0xffffffff\n      swap5\n      dup6\n      and\n      or\n      swap1\n      sstore\n      pop\n      pop\n        /* \"Entity.sol\":6964:6981  pendingDataToSend */\n      0x09\n        /* \"Entity.sol\":6964:6988  pendingDataToSend[index] */\n      dup1\n      sload\n      0x01\n      swap3\n      dup5\n      and\n      swap1\n      dup2\n      lt\n      tag_492\n      jumpi\n      invalid\n    tag_492:\n      swap1\n      0x00\n      mstore\n      keccak256(0x00, 0x20)\n      swap1\n      0x08\n      mul\n      add\n        /* \"Entity.sol\":6964:7001  pendingDataToSend[index].keyExistence */\n      0x04\n      add\n        /* \"Entity.sol\":7002:7006  _key */\n      dup5\n        /* \"Entity.sol\":6964:7007  pendingDataToSend[index].keyExistence[_key] */\n      mload(0x40)\n      dup1\n      dup3\n      dup1\n      mload\n      swap1\n      0x20\n      add\n      swap1\n      dup1\n      dup4\n      dup4\n        /* \"--CODEGEN--\":36:189   */\n    tag_494:\n        /* \"--CODEGEN--\":66:68   */\n      0x20\n        /* \"--CODEGEN--\":61:64   */\n      dup4\n        /* \"--CODEGEN--\":58:69   */\n      lt\n        /* \"--CODEGEN--\":36:189   */\n      tag_496\n      jumpi\n        /* \"--CODEGEN--\":176:186   */\n      dup1\n      mload\n        /* \"--CODEGEN--\":164:187   */\n      dup3\n      mstore\n      not(0x1f)\n        /* \"--CODEGEN--\":139:151   */\n      swap1\n      swap3\n      add\n      swap2\n        /* \"--CODEGEN--\":98:100   */\n      0x20\n        /* \"--CODEGEN--\":89:101   */\n      swap2\n      dup3\n      add\n      swap2\n        /* \"--CODEGEN--\":114:126   */\n      add\n        /* \"--CODEGEN--\":36:189   */\n      jump(tag_494)\n    tag_496:\n        /* \"--CODEGEN--\":299:309   */\n      mload\n        /* \"--CODEGEN--\":344:354   */\n      dup2\n      mload\n        /* \"--CODEGEN--\":263:265   */\n      0x20\n        /* \"--CODEGEN--\":259:271   */\n      swap4\n      dup5\n      sub\n        /* \"--CODEGEN--\":254:257   */\n      0x0100\n        /* \"--CODEGEN--\":250:272   */\n      exp\n      not(0x00)\n        /* \"--CODEGEN--\":246:276   */\n      add\n        /* \"--CODEGEN--\":311:320   */\n      dup1\n      not\n        /* \"--CODEGEN--\":295:321   */\n      swap1\n      swap3\n      and\n        /* \"--CODEGEN--\":340:361   */\n      swap2\n      and\n        /* \"--CODEGEN--\":377:397   */\n      or\n        /* \"--CODEGEN--\":365:398   */\n      swap1\n      mstore\n        /* \"Entity.sol\":6964:7007  pendingDataToSend[index].keyExistence[_key] */\n      swap3\n      add\n      swap5\n      dup6\n      mstore\n      pop\n      mload(0x40)\n      swap4\n      dup5\n      swap1\n      sub\n      add\n      swap1\n      swap3\n      keccak256\n        /* \"Entity.sol\":6964:7014  pendingDataToSend[index].keyExistence[_key] = true */\n      dup1\n      sload\n      not(0xff)\n      and\n      swap4\n      iszero\n      iszero\n      swap4\n      swap1\n      swap4\n      or\n      swap1\n      swap3\n      sstore\n      pop\n      pop\n        /* \"Entity.sol\":7029:7046  pendingDataToSend */\n      0x09\n        /* \"Entity.sol\":7029:7053  pendingDataToSend[index] */\n      dup1\n      sload\n      0xffffffff\n      dup4\n      and\n      swap1\n      dup2\n      lt\n      tag_497\n      jumpi\n      invalid\n    tag_497:\n      0x00\n      swap2\n      dup3\n      mstore\n      0x20\n      dup1\n      dup4\n      keccak256\n        /* \"Entity.sol\":7029:7057  pendingDataToSend[index].key */\n      0x03\n        /* \"Entity.sol\":7029:7053  pendingDataToSend[index] */\n      0x08\n      swap1\n      swap4\n      mul\n      add\n        /* \"Entity.sol\":7029:7057  pendingDataToSend[index].key */\n      swap2\n      swap1\n      swap2\n      add\n        /* \"--CODEGEN--\":27:37   */\n      dup1\n      sload\n        /* \"--CODEGEN--\":39:40   */\n      0x01\n        /* \"--CODEGEN--\":23:41   */\n      dup2\n      add\n        /* \"--CODEGEN--\":45:68   */\n      dup3\n      sstore\n        /* \"Entity.sol\":7029:7068  pendingDataToSend[index].key.push(_key) */\n      swap1\n      dup4\n      mstore\n      swap2\n      dup2\n      swap1\n      keccak256\n      dup6\n      mload\n      tag_500\n      swap4\n      swap2\n      swap1\n      swap2\n      add\n      swap2\n      dup7\n      add\n      swap1\n      tag_347\n      jump\t// in\n    tag_500:\n      pop\n        /* \"Entity.sol\":7083:7100  pendingDataToSend */\n      0x09\n        /* \"Entity.sol\":7101:7106  index */\n      dup2\n        /* \"Entity.sol\":7083:7107  pendingDataToSend[index] */\n      0xffffffff\n      and\n      dup2\n      sload\n      dup2\n      lt\n      tag_501\n      jumpi\n      invalid\n    tag_501:\n      0x00\n      swap2\n      dup3\n      mstore\n      0x20\n      dup1\n      dup4\n      keccak256\n        /* \"Entity.sol\":7083:7113  pendingDataToSend[index].value */\n      0x06\n        /* \"Entity.sol\":7083:7107  pendingDataToSend[index] */\n      0x08\n      swap1\n      swap4\n      mul\n      add\n        /* \"Entity.sol\":7083:7113  pendingDataToSend[index].value */\n      swap2\n      swap1\n      swap2\n      add\n        /* \"--CODEGEN--\":27:37   */\n      dup1\n      sload\n        /* \"--CODEGEN--\":39:40   */\n      0x01\n        /* \"--CODEGEN--\":23:41   */\n      dup2\n      add\n        /* \"--CODEGEN--\":45:68   */\n      dup3\n      sstore\n        /* \"Entity.sol\":7083:7126  pendingDataToSend[index].value.push(_value) */\n      swap1\n      dup4\n      mstore\n      swap2\n      dup2\n      swap1\n      keccak256\n      dup5\n      mload\n      tag_504\n      swap4\n      swap2\n      swap1\n      swap2\n      add\n      swap2\n      dup6\n      add\n      swap1\n      tag_347\n      jump\t// in\n    tag_504:\n      pop\n        /* \"Entity.sol\":6801:7286  if(!pendingDataToSend[index].keyExistence[_key]){\r... */\n      jump(tag_505)\n    tag_484:\n        /* \"Entity.sol\":7167:7175  uint32 i */\n      0x00\n        /* \"Entity.sol\":7178:7195  pendingDataToSend */\n      0x09\n        /* \"Entity.sol\":7196:7201  index */\n      dup3\n        /* \"Entity.sol\":7178:7202  pendingDataToSend[index] */\n      0xffffffff\n      and\n      dup2\n      sload\n      dup2\n      lt\n      tag_506\n      jumpi\n      invalid\n    tag_506:\n      swap1\n      0x00\n      mstore\n      keccak256(0x00, 0x20)\n      swap1\n      0x08\n      mul\n      add\n        /* \"Entity.sol\":7178:7211  pendingDataToSend[index].keyIndex */\n      0x05\n      add\n        /* \"Entity.sol\":7212:7216  _key */\n      dup5\n        /* \"Entity.sol\":7178:7217  pendingDataToSend[index].keyIndex[_key] */\n      mload(0x40)\n      dup1\n      dup3\n      dup1\n      mload\n      swap1\n      0x20\n      add\n      swap1\n      dup1\n      dup4\n      dup4\n        /* \"--CODEGEN--\":36:189   */\n    tag_508:\n        /* \"--CODEGEN--\":66:68   */\n      0x20\n        /* \"--CODEGEN--\":61:64   */\n      dup4\n        /* \"--CODEGEN--\":58:69   */\n      lt\n        /* \"--CODEGEN--\":36:189   */\n      tag_510\n      jumpi\n        /* \"--CODEGEN--\":176:186   */\n      dup1\n      mload\n        /* \"--CODEGEN--\":164:187   */\n      dup3\n      mstore\n      not(0x1f)\n        /* \"--CODEGEN--\":139:151   */\n      swap1\n      swap3\n      add\n      swap2\n        /* \"--CODEGEN--\":98:100   */\n      0x20\n        /* \"--CODEGEN--\":89:101   */\n      swap2\n      dup3\n      add\n      swap2\n        /* \"--CODEGEN--\":114:126   */\n      add\n        /* \"--CODEGEN--\":36:189   */\n      jump(tag_508)\n    tag_510:\n        /* \"--CODEGEN--\":299:309   */\n      mload\n        /* \"--CODEGEN--\":344:354   */\n      dup2\n      mload\n        /* \"--CODEGEN--\":263:265   */\n      0x20\n        /* \"--CODEGEN--\":259:271   */\n      swap4\n      dup5\n      sub\n        /* \"--CODEGEN--\":254:257   */\n      0x0100\n        /* \"--CODEGEN--\":250:272   */\n      exp\n      not(0x00)\n        /* \"--CODEGEN--\":246:276   */\n      add\n        /* \"--CODEGEN--\":311:320   */\n      dup1\n      not\n        /* \"--CODEGEN--\":295:321   */\n      swap1\n      swap3\n      and\n        /* \"--CODEGEN--\":340:361   */\n      swap2\n      and\n        /* \"--CODEGEN--\":377:397   */\n      or\n        /* \"--CODEGEN--\":365:398   */\n      swap1\n      mstore\n        /* \"Entity.sol\":7178:7217  pendingDataToSend[index].keyIndex[_key] */\n      swap3\n      add\n      swap5\n      dup6\n      mstore\n      pop\n      mload(0x40)\n      swap4\n      dup5\n      swap1\n      sub\n      add\n      swap1\n      swap3\n      keccak256\n      sload\n        /* \"Entity.sol\":7232:7249  pendingDataToSend */\n      0x09\n        /* \"Entity.sol\":7232:7256  pendingDataToSend[index] */\n      dup1\n      sload\n        /* \"Entity.sol\":7178:7217  pendingDataToSend[index].keyIndex[_key] */\n      0xffffffff\n      swap3\n      dup4\n      and\n      swap6\n      pop\n        /* \"Entity.sol\":7268:7274  _value */\n      dup8\n      swap5\n      pop\n        /* \"Entity.sol\":7232:7249  pendingDataToSend */\n      swap1\n      swap3\n      pop\n        /* \"Entity.sol\":7232:7256  pendingDataToSend[index] */\n      swap1\n      dup6\n      and\n      swap1\n      dup2\n      lt\n      tag_511\n      jumpi\n      invalid\n    tag_511:\n      swap1\n      0x00\n      mstore\n      keccak256(0x00, 0x20)\n      swap1\n      0x08\n      mul\n      add\n        /* \"Entity.sol\":7232:7262  pendingDataToSend[index].value */\n      0x06\n      add\n        /* \"Entity.sol\":7263:7264  i */\n      dup3\n        /* \"Entity.sol\":7232:7265  pendingDataToSend[index].value[i] */\n      0xffffffff\n      and\n      dup2\n      sload\n      dup2\n      lt\n      tag_513\n      jumpi\n      invalid\n    tag_513:\n      swap1\n      0x00\n      mstore\n      keccak256(0x00, 0x20)\n      add\n        /* \"Entity.sol\":7232:7274  pendingDataToSend[index].value[i] = _value */\n      swap1\n      dup1\n      mload\n      swap1\n      0x20\n      add\n      swap1\n      tag_515\n      swap3\n      swap2\n      swap1\n      tag_347\n      jump\t// in\n    tag_515:\n      pop\n        /* \"Entity.sol\":6801:7286  if(!pendingDataToSend[index].keyExistence[_key]){\r... */\n      pop\n    tag_505:\n        /* \"Entity.sol\":6665:7293  function addDataToSend(string memory _key, string memory _value, uint32 index) \r... */\n      pop\n      pop\n      pop\n      jump\t// out\n        /* \"Entity.sol\":2096:3523  function _approveDataToReceive(uint32 index) \r... */\n    tag_299:\n        /* \"Entity.sol\":2185:2205  pendingDataToReceive */\n      0x07\n        /* \"Entity.sol\":2206:2211  index */\n      dup2\n        /* \"Entity.sol\":2185:2212  pendingDataToReceive[index] */\n      0xffffffff\n      and\n      dup2\n      sload\n      dup2\n      lt\n      tag_517\n      jumpi\n      invalid\n    tag_517:\n      0x00\n      swap2\n      dup3\n      mstore\n      0x20\n      swap1\n      swap2\n      keccak256\n        /* \"Entity.sol\":2185:2221  pendingDataToReceive[index].approved */\n      0x07\n        /* \"Entity.sol\":2185:2212  pendingDataToReceive[index] */\n      0x08\n      swap1\n      swap3\n      mul\n      add\n        /* \"Entity.sol\":2185:2221  pendingDataToReceive[index].approved */\n      add\n      sload\n      0xff\n      and\n        /* \"Entity.sol\":2184:2221  !pendingDataToReceive[index].approved */\n      iszero\n        /* \"Entity.sol\":2176:2222  require(!pendingDataToReceive[index].approved) */\n      tag_519\n      jumpi\n        /* \"--CODEGEN--\":12:13   */\n      0x00\n        /* \"--CODEGEN--\":9:10   */\n      dup1\n        /* \"--CODEGEN--\":2:14   */\n      revert\n        /* \"Entity.sol\":2176:2222  require(!pendingDataToReceive[index].approved) */\n    tag_519:\n        /* \"Entity.sol\":2233:2262  storingData storage toApprove */\n      0x00\n        /* \"Entity.sol\":2265:2272  Storage */\n      0x02\n        /* \"Entity.sol\":2265:2308  Storage[pendingDataToReceive[index].source] */\n      0x00\n        /* \"Entity.sol\":2273:2293  pendingDataToReceive */\n      0x07\n        /* \"Entity.sol\":2294:2299  index */\n      dup5\n        /* \"Entity.sol\":2273:2300  pendingDataToReceive[index] */\n      0xffffffff\n      and\n      dup2\n      sload\n      dup2\n      lt\n      tag_520\n      jumpi\n      invalid\n    tag_520:\n      0x00\n      swap2\n      dup3\n      mstore\n      0x20\n      dup1\n      dup4\n      keccak256\n      0x08\n      swap1\n      swap3\n      mul\n      swap1\n      swap2\n      add\n        /* \"Entity.sol\":2273:2307  pendingDataToReceive[index].source */\n      sload\n      sub(shl(0xa0, 0x01), 0x01)\n      and\n        /* \"Entity.sol\":2265:2308  Storage[pendingDataToReceive[index].source] */\n      dup4\n      mstore\n      dup3\n      add\n      swap3\n      swap1\n      swap3\n      mstore\n      0x40\n      add\n      swap1\n      keccak256\n        /* \"Entity.sol\":2309:2329  pendingDataToReceive */\n      0x07\n        /* \"Entity.sol\":2309:2336  pendingDataToReceive[index] */\n      dup1\n      sload\n      0xffffffff\n      dup6\n      and\n      swap1\n      dup2\n      lt\n      tag_522\n      jumpi\n      invalid\n    tag_522:\n      swap1\n      0x00\n      mstore\n      keccak256(0x00, 0x20)\n      swap1\n      0x08\n      mul\n      add\n        /* \"Entity.sol\":2309:2348  pendingDataToReceive[index].description */\n      0x02\n      add\n        /* \"Entity.sol\":2265:2349  Storage[pendingDataToReceive[index].source][pendingDataToReceive[index].description] */\n      mload(0x40)\n      dup1\n      dup3\n      dup1\n      sload\n      0x01\n      dup2\n      0x01\n      and\n      iszero\n      0x0100\n      mul\n      sub\n      and\n      0x02\n      swap1\n      div\n      dup1\n      iszero\n      tag_524\n      jumpi\n      dup1\n      0x1f\n      lt\n      tag_525\n      jumpi\n      0x0100\n      dup1\n      dup4\n      sload\n      div\n      mul\n      dup4\n      mstore\n      swap2\n      dup3\n      add\n      swap2\n      jump(tag_524)\n    tag_525:\n      dup3\n      add\n      swap2\n      swap1\n      0x00\n      mstore\n      keccak256(0x00, 0x20)\n      swap1\n    tag_526:\n      dup2\n      sload\n      dup2\n      mstore\n      swap1\n      0x01\n      add\n      swap1\n      0x20\n      add\n      dup1\n      dup4\n      gt\n      tag_526\n      jumpi\n    tag_524:\n      pop\n      pop\n      swap3\n      dup4\n      mstore\n      pop\n      pop\n      mload(0x40)\n      swap1\n      dup2\n      swap1\n      sub\n      0x20\n      add\n      swap1\n      keccak256\n      swap1\n      pop\n        /* \"Entity.sol\":2364:2372  uint32 i */\n      0x00\n        /* \"Entity.sol\":2360:2899  for(uint32 i=0; i<pendingDataToReceive[index].key.length; i++){\r... */\n    tag_527:\n        /* \"Entity.sol\":2378:2398  pendingDataToReceive */\n      0x07\n        /* \"Entity.sol\":2399:2404  index */\n      dup4\n        /* \"Entity.sol\":2378:2405  pendingDataToReceive[index] */\n      0xffffffff\n      and\n      dup2\n      sload\n      dup2\n      lt\n      tag_530\n      jumpi\n      invalid\n    tag_530:\n      swap1\n      0x00\n      mstore\n      keccak256(0x00, 0x20)\n      swap1\n      0x08\n      mul\n      add\n        /* \"Entity.sol\":2378:2409  pendingDataToReceive[index].key */\n      0x03\n      add\n        /* \"Entity.sol\":2378:2416  pendingDataToReceive[index].key.length */\n      dup1\n      sload\n      swap1\n      pop\n        /* \"Entity.sol\":2376:2377  i */\n      dup2\n        /* \"Entity.sol\":2376:2416  i<pendingDataToReceive[index].key.length */\n      0xffffffff\n      and\n      lt\n        /* \"Entity.sol\":2360:2899  for(uint32 i=0; i<pendingDataToReceive[index].key.length; i++){\r... */\n      iszero\n      tag_528\n      jumpi\n        /* \"Entity.sol\":2492:2512  pendingDataToReceive */\n      0x07\n        /* \"Entity.sol\":2513:2518  index */\n      dup4\n        /* \"Entity.sol\":2492:2519  pendingDataToReceive[index] */\n      0xffffffff\n      and\n      dup2\n      sload\n      dup2\n      lt\n      tag_532\n      jumpi\n      invalid\n    tag_532:\n      swap1\n      0x00\n      mstore\n      keccak256(0x00, 0x20)\n      swap1\n      0x08\n      mul\n      add\n        /* \"Entity.sol\":2492:2525  pendingDataToReceive[index].value */\n      0x06\n      add\n        /* \"Entity.sol\":2526:2527  i */\n      dup2\n        /* \"Entity.sol\":2492:2528  pendingDataToReceive[index].value[i] */\n      0xffffffff\n      and\n      dup2\n      sload\n      dup2\n      lt\n      tag_534\n      jumpi\n      invalid\n    tag_534:\n      swap1\n      0x00\n      mstore\n      keccak256(0x00, 0x20)\n      add\n        /* \"Entity.sol\":2437:2446  toApprove */\n      dup3\n        /* \"Entity.sol\":2437:2453  toApprove.column */\n      0x00\n      add\n        /* \"Entity.sol\":2454:2474  pendingDataToReceive */\n      0x07\n        /* \"Entity.sol\":2475:2480  index */\n      dup6\n        /* \"Entity.sol\":2454:2481  pendingDataToReceive[index] */\n      0xffffffff\n      and\n      dup2\n      sload\n      dup2\n      lt\n      tag_536\n      jumpi\n      invalid\n    tag_536:\n      swap1\n      0x00\n      mstore\n      keccak256(0x00, 0x20)\n      swap1\n      0x08\n      mul\n      add\n        /* \"Entity.sol\":2454:2485  pendingDataToReceive[index].key */\n      0x03\n      add\n        /* \"Entity.sol\":2486:2487  i */\n      dup4\n        /* \"Entity.sol\":2454:2488  pendingDataToReceive[index].key[i] */\n      0xffffffff\n      and\n      dup2\n      sload\n      dup2\n      lt\n      tag_538\n      jumpi\n      invalid\n    tag_538:\n      swap1\n      0x00\n      mstore\n      keccak256(0x00, 0x20)\n      add\n        /* \"Entity.sol\":2437:2489  toApprove.column[pendingDataToReceive[index].key[i]] */\n      mload(0x40)\n      dup1\n      dup3\n      dup1\n      sload\n      0x01\n      dup2\n      0x01\n      and\n      iszero\n      0x0100\n      mul\n      sub\n      and\n      0x02\n      swap1\n      div\n      dup1\n      iszero\n      tag_540\n      jumpi\n      dup1\n      0x1f\n      lt\n      tag_541\n      jumpi\n      0x0100\n      dup1\n      dup4\n      sload\n      div\n      mul\n      dup4\n      mstore\n      swap2\n      dup3\n      add\n      swap2\n      jump(tag_540)\n    tag_541:\n      dup3\n      add\n      swap2\n      swap1\n      0x00\n      mstore\n      keccak256(0x00, 0x20)\n      swap1\n    tag_542:\n      dup2\n      sload\n      dup2\n      mstore\n      swap1\n      0x01\n      add\n      swap1\n      0x20\n      add\n      dup1\n      dup4\n      gt\n      tag_542\n      jumpi\n    tag_540:\n      pop\n      pop\n      swap3\n      dup4\n      mstore\n      pop\n      pop\n      mload(0x40)\n      swap1\n      dup2\n      swap1\n      sub\n      0x20\n      add\n      swap1\n      keccak256\n        /* \"Entity.sol\":2437:2528  toApprove.column[pendingDataToReceive[index].key[i]] = pendingDataToReceive[index].value[i] */\n      dup2\n      sload\n      tag_543\n      swap3\n      swap1\n      0x02\n      not(0x00)\n      0x0100\n      0x01\n      dup5\n      and\n      iszero\n      mul\n      add\n      swap1\n      swap2\n      and\n      div\n      tag_390\n      jump\t// in\n    tag_543:\n      pop\n        /* \"Entity.sol\":2547:2556  toApprove */\n      dup2\n        /* \"Entity.sol\":2547:2569  toApprove.keyExistence */\n      0x01\n      add\n        /* \"Entity.sol\":2570:2590  pendingDataToReceive */\n      0x07\n        /* \"Entity.sol\":2591:2596  index */\n      dup5\n        /* \"Entity.sol\":2570:2597  pendingDataToReceive[index] */\n      0xffffffff\n      and\n      dup2\n      sload\n      dup2\n      lt\n      tag_545\n      jumpi\n      invalid\n    tag_545:\n      swap1\n      0x00\n      mstore\n      keccak256(0x00, 0x20)\n      swap1\n      0x08\n      mul\n      add\n        /* \"Entity.sol\":2570:2601  pendingDataToReceive[index].key */\n      0x03\n      add\n        /* \"Entity.sol\":2602:2603  i */\n      dup3\n        /* \"Entity.sol\":2570:2604  pendingDataToReceive[index].key[i] */\n      0xffffffff\n      and\n      dup2\n      sload\n      dup2\n      lt\n      tag_547\n      jumpi\n      invalid\n    tag_547:\n      swap1\n      0x00\n      mstore\n      keccak256(0x00, 0x20)\n      add\n        /* \"Entity.sol\":2547:2605  toApprove.keyExistence[pendingDataToReceive[index].key[i]] */\n      mload(0x40)\n      dup1\n      dup3\n      dup1\n      sload\n      0x01\n      dup2\n      0x01\n      and\n      iszero\n      0x0100\n      mul\n      sub\n      and\n      0x02\n      swap1\n      div\n      dup1\n      iszero\n      tag_549\n      jumpi\n      dup1\n      0x1f\n      lt\n      tag_550\n      jumpi\n      0x0100\n      dup1\n      dup4\n      sload\n      div\n      mul\n      dup4\n      mstore\n      swap2\n      dup3\n      add\n      swap2\n      jump(tag_549)\n    tag_550:\n      dup3\n      add\n      swap2\n      swap1\n      0x00\n      mstore\n      keccak256(0x00, 0x20)\n      swap1\n    tag_551:\n      dup2\n      sload\n      dup2\n      mstore\n      swap1\n      0x01\n      add\n      swap1\n      0x20\n      add\n      dup1\n      dup4\n      gt\n      tag_551\n      jumpi\n    tag_549:\n      pop\n      pop\n      swap3\n      dup4\n      mstore\n      pop\n      pop\n      mload(0x40)\n      swap1\n      dup2\n      swap1\n      sub\n      0x20\n      add\n      swap1\n      keccak256\n      sload\n      0xff\n      and\n        /* \"Entity.sol\":2543:2888  if(!toApprove.keyExistence[pendingDataToReceive[index].key[i]]){\r... */\n      tag_552\n      jumpi\n        /* \"Entity.sol\":2688:2697  toApprove */\n      dup2\n        /* \"Entity.sol\":2688:2702  toApprove.keys */\n      0x02\n      add\n        /* \"Entity.sol\":2752:2772  pendingDataToReceive */\n      0x07\n        /* \"Entity.sol\":2773:2778  index */\n      dup5\n        /* \"Entity.sol\":2752:2779  pendingDataToReceive[index] */\n      0xffffffff\n      and\n      dup2\n      sload\n      dup2\n      lt\n      tag_553\n      jumpi\n      invalid\n    tag_553:\n      swap1\n      0x00\n      mstore\n      keccak256(0x00, 0x20)\n      swap1\n      0x08\n      mul\n      add\n        /* \"Entity.sol\":2752:2783  pendingDataToReceive[index].key */\n      0x03\n      add\n        /* \"Entity.sol\":2784:2785  i */\n      dup3\n        /* \"Entity.sol\":2752:2786  pendingDataToReceive[index].key[i] */\n      0xffffffff\n      and\n      dup2\n      sload\n      dup2\n      lt\n      tag_555\n      jumpi\n      invalid\n    tag_555:\n      swap1\n      0x00\n      mstore\n      keccak256(0x00, 0x20)\n      add\n        /* \"Entity.sol\":2649:2787  abi.encodePacked(\r... */\n      add(0x20, mload(0x40))\n      dup1\n      dup4\n      dup1\n      sload\n      0x01\n      dup2\n      0x01\n      and\n      iszero\n      0x0100\n      mul\n      sub\n      and\n      0x02\n      swap1\n      div\n      dup1\n      iszero\n      tag_557\n      jumpi\n      dup1\n      0x1f\n      lt\n      tag_558\n      jumpi\n      0x0100\n      dup1\n      dup4\n      sload\n      div\n      mul\n      dup4\n      mstore\n      swap2\n      dup3\n      add\n      swap2\n      jump(tag_557)\n    tag_558:\n      dup3\n      add\n      swap2\n      swap1\n      0x00\n      mstore\n      keccak256(0x00, 0x20)\n      swap1\n    tag_559:\n      dup2\n      sload\n      dup2\n      mstore\n      swap1\n      0x01\n      add\n      swap1\n      0x20\n      add\n      dup1\n      dup4\n      gt\n      tag_559\n      jumpi\n    tag_557:\n      pop\n      pop\n      dup1\n      shl(0xf5, 0x0161)\n      dup2\n      mstore\n      pop\n      0x02\n      add\n      dup3\n      dup1\n      sload\n      0x01\n      dup2\n      0x01\n      and\n      iszero\n      0x0100\n      mul\n      sub\n      and\n      0x02\n      swap1\n      div\n      dup1\n      iszero\n      tag_560\n      jumpi\n      dup1\n      0x1f\n      lt\n      tag_561\n      jumpi\n      0x0100\n      dup1\n      dup4\n      sload\n      div\n      mul\n      dup4\n      mstore\n      swap2\n      dup3\n      add\n      swap2\n      jump(tag_560)\n    tag_561:\n      dup3\n      add\n      swap2\n      swap1\n      0x00\n      mstore\n      keccak256(0x00, 0x20)\n      swap1\n    tag_562:\n      dup2\n      sload\n      dup2\n      mstore\n      swap1\n      0x01\n      add\n      swap1\n      0x20\n      add\n      dup1\n      dup4\n      gt\n      tag_562\n      jumpi\n    tag_560:\n      pop\n      pop\n      0x40\n      dup1\n      mload\n      not(0x1f)\n        /* \"--CODEGEN--\":26:47   */\n      dup2\n      dup5\n      sub\n        /* \"--CODEGEN--\":22:54   */\n      add\n        /* \"--CODEGEN--\":6:55   */\n      dup2\n      mstore\n        /* \"Entity.sol\":2649:2787  abi.encodePacked(\r... */\n      swap2\n      swap1\n      mstore\n        /* \"Entity.sol\":2625:2788  toApprove.keys = string(abi.encodePacked(\r... */\n      dup1\n      mload\n      tag_563\n      swap5\n      pop\n        /* \"Entity.sol\":2625:2639  toApprove.keys */\n      0x02\n      dup8\n      add\n      swap4\n      pop\n        /* \"--CODEGEN--\":49:53   */\n      0x20\n        /* \"Entity.sol\":2625:2788  toApprove.keys = string(abi.encodePacked(\r... */\n      swap1\n      swap2\n      add\n      swap2\n      pop\n      tag_347\n      jump\t// in\n    tag_563:\n      pop\n        /* \"Entity.sol\":2868:2872  true */\n      0x01\n        /* \"Entity.sol\":2807:2816  toApprove */\n      dup3\n        /* \"Entity.sol\":2807:2829  toApprove.keyExistence */\n      0x01\n      add\n        /* \"Entity.sol\":2830:2850  pendingDataToReceive */\n      0x07\n        /* \"Entity.sol\":2851:2856  index */\n      dup6\n        /* \"Entity.sol\":2830:2857  pendingDataToReceive[index] */\n      0xffffffff\n      and\n      dup2\n      sload\n      dup2\n      lt\n      tag_564\n      jumpi\n      invalid\n    tag_564:\n      swap1\n      0x00\n      mstore\n      keccak256(0x00, 0x20)\n      swap1\n      0x08\n      mul\n      add\n        /* \"Entity.sol\":2830:2861  pendingDataToReceive[index].key */\n      0x03\n      add\n        /* \"Entity.sol\":2862:2863  i */\n      dup4\n        /* \"Entity.sol\":2830:2864  pendingDataToReceive[index].key[i] */\n      0xffffffff\n      and\n      dup2\n      sload\n      dup2\n      lt\n      tag_566\n      jumpi\n      invalid\n    tag_566:\n      swap1\n      0x00\n      mstore\n      keccak256(0x00, 0x20)\n      add\n        /* \"Entity.sol\":2807:2865  toApprove.keyExistence[pendingDataToReceive[index].key[i]] */\n      mload(0x40)\n      dup1\n      dup3\n      dup1\n      sload\n      0x01\n      dup2\n      0x01\n      and\n      iszero\n      0x0100\n      mul\n      sub\n      and\n      0x02\n      swap1\n      div\n      dup1\n      iszero\n      tag_568\n      jumpi\n      dup1\n      0x1f\n      lt\n      tag_569\n      jumpi\n      0x0100\n      dup1\n      dup4\n      sload\n      div\n      mul\n      dup4\n      mstore\n      swap2\n      dup3\n      add\n      swap2\n      jump(tag_568)\n    tag_569:\n      dup3\n      add\n      swap2\n      swap1\n      0x00\n      mstore\n      keccak256(0x00, 0x20)\n      swap1\n    tag_570:\n      dup2\n      sload\n      dup2\n      mstore\n      swap1\n      0x01\n      add\n      swap1\n      0x20\n      add\n      dup1\n      dup4\n      gt\n      tag_570\n      jumpi\n    tag_568:\n      pop\n      pop\n      swap3\n      dup4\n      mstore\n      pop\n      pop\n      mload(0x40)\n      swap1\n      dup2\n      swap1\n      sub\n      0x20\n      add\n      swap1\n      keccak256\n        /* \"Entity.sol\":2807:2872  toApprove.keyExistence[pendingDataToReceive[index].key[i]] = true */\n      dup1\n      sload\n      swap2\n      iszero\n      iszero\n      not(0xff)\n      swap1\n      swap3\n      and\n      swap2\n      swap1\n      swap2\n      or\n      swap1\n      sstore\n        /* \"Entity.sol\":2543:2888  if(!toApprove.keyExistence[pendingDataToReceive[index].key[i]]){\r... */\n    tag_552:\n        /* \"Entity.sol\":2418:2421  i++ */\n      0x01\n      add\n        /* \"Entity.sol\":2360:2899  for(uint32 i=0; i<pendingDataToReceive[index].key.length; i++){\r... */\n      jump(tag_527)\n    tag_528:\n      pop\n        /* \"Entity.sol\":2913:2923  hasWritten */\n      0x04\n        /* \"Entity.sol\":2913:2959  hasWritten[pendingDataToReceive[index].source] */\n      0x00\n        /* \"Entity.sol\":2924:2944  pendingDataToReceive */\n      0x07\n        /* \"Entity.sol\":2945:2950  index */\n      dup5\n        /* \"Entity.sol\":2924:2951  pendingDataToReceive[index] */\n      0xffffffff\n      and\n      dup2\n      sload\n      dup2\n      lt\n      tag_571\n      jumpi\n      invalid\n    tag_571:\n      0x00\n      swap2\n      dup3\n      mstore\n      0x20\n      dup1\n      dup4\n      keccak256\n      0x08\n      swap1\n      swap3\n      mul\n      swap1\n      swap2\n      add\n        /* \"Entity.sol\":2924:2958  pendingDataToReceive[index].source */\n      sload\n      sub(shl(0xa0, 0x01), 0x01)\n      and\n        /* \"Entity.sol\":2913:2959  hasWritten[pendingDataToReceive[index].source] */\n      dup4\n      mstore\n      dup3\n      add\n      swap3\n      swap1\n      swap3\n      mstore\n      0x40\n      add\n      swap1\n      keccak256\n      sload\n      0xff\n      and\n        /* \"Entity.sol\":2909:3106  if(!hasWritten[pendingDataToReceive[index].source]){\r... */\n      tag_573\n      jumpi\n        /* \"Entity.sol\":2975:2985  dataSource */\n      0x03\n        /* \"Entity.sol\":2991:3011  pendingDataToReceive */\n      0x07\n        /* \"Entity.sol\":3012:3017  index */\n      dup4\n        /* \"Entity.sol\":2991:3018  pendingDataToReceive[index] */\n      0xffffffff\n      and\n      dup2\n      sload\n      dup2\n      lt\n      tag_574\n      jumpi\n      invalid\n    tag_574:\n      0x00\n      swap2\n      dup3\n      mstore\n      0x20\n      dup1\n      dup4\n      keccak256\n      0x08\n      swap1\n      swap3\n      mul\n      swap1\n      swap2\n      add\n        /* \"Entity.sol\":2991:3025  pendingDataToReceive[index].source */\n      sload\n        /* \"--CODEGEN--\":27:37   */\n      dup4\n      sload\n        /* \"Entity.sol\":2991:3025  pendingDataToReceive[index].source */\n      0x01\n        /* \"--CODEGEN--\":23:41   */\n      dup2\n      dup2\n      add\n        /* \"--CODEGEN--\":45:68   */\n      dup7\n      sstore\n        /* \"Entity.sol\":2975:3026  dataSource.push(pendingDataToReceive[index].source) */\n      swap5\n      dup5\n      mstore\n      swap2\n      dup4\n      keccak256\n      swap1\n      swap2\n      add\n      dup1\n      sload\n      not(sub(shl(0xa0, 0x01), 0x01))\n      and\n      sub(shl(0xa0, 0x01), 0x01)\n        /* \"Entity.sol\":2991:3025  pendingDataToReceive[index].source */\n      swap1\n      swap3\n      and\n        /* \"Entity.sol\":2975:3026  dataSource.push(pendingDataToReceive[index].source) */\n      swap2\n      swap1\n      swap2\n      or\n      swap1\n      sstore\n        /* \"Entity.sol\":3052:3072  pendingDataToReceive */\n      0x07\n        /* \"Entity.sol\":3052:3079  pendingDataToReceive[index] */\n      dup1\n      sload\n        /* \"Entity.sol\":3041:3051  hasWritten */\n      0x04\n      swap3\n        /* \"Entity.sol\":2991:3018  pendingDataToReceive[index] */\n      swap2\n        /* \"Entity.sol\":3052:3072  pendingDataToReceive */\n      swap1\n        /* \"Entity.sol\":3052:3079  pendingDataToReceive[index] */\n      0xffffffff\n      dup8\n      and\n      swap1\n      dup2\n      lt\n      tag_577\n      jumpi\n      invalid\n    tag_577:\n      0x00\n      swap2\n      dup3\n      mstore\n      0x20\n      dup1\n      dup4\n      keccak256\n      0x08\n      swap3\n      swap1\n      swap3\n      mul\n      swap1\n      swap2\n      add\n        /* \"Entity.sol\":3052:3086  pendingDataToReceive[index].source */\n      sload\n      sub(shl(0xa0, 0x01), 0x01)\n      and\n        /* \"Entity.sol\":3041:3087  hasWritten[pendingDataToReceive[index].source] */\n      dup4\n      mstore\n      dup3\n      add\n      swap3\n      swap1\n      swap3\n      mstore\n      0x40\n      add\n      swap1\n      keccak256\n        /* \"Entity.sol\":3041:3094  hasWritten[pendingDataToReceive[index].source] = true */\n      dup1\n      sload\n      not(0xff)\n      and\n      swap2\n      iszero\n      iszero\n      swap2\n      swap1\n      swap2\n      or\n      swap1\n      sstore\n        /* \"Entity.sol\":2909:3106  if(!hasWritten[pendingDataToReceive[index].source]){\r... */\n    tag_573:\n        /* \"Entity.sol\":3120:3138  writtenDescription */\n      0x06\n        /* \"Entity.sol\":3120:3174  writtenDescription[pendingDataToReceive[index].source] */\n      0x00\n        /* \"Entity.sol\":3139:3159  pendingDataToReceive */\n      0x07\n        /* \"Entity.sol\":3160:3165  index */\n      dup5\n        /* \"Entity.sol\":3139:3166  pendingDataToReceive[index] */\n      0xffffffff\n      and\n      dup2\n      sload\n      dup2\n      lt\n      tag_579\n      jumpi\n      invalid\n    tag_579:\n      0x00\n      swap2\n      dup3\n      mstore\n      0x20\n      dup1\n      dup4\n      keccak256\n      0x08\n      swap1\n      swap3\n      mul\n      swap1\n      swap2\n      add\n        /* \"Entity.sol\":3139:3173  pendingDataToReceive[index].source */\n      sload\n      sub(shl(0xa0, 0x01), 0x01)\n      and\n        /* \"Entity.sol\":3120:3174  writtenDescription[pendingDataToReceive[index].source] */\n      dup4\n      mstore\n      dup3\n      add\n      swap3\n      swap1\n      swap3\n      mstore\n      0x40\n      add\n      swap1\n      keccak256\n        /* \"Entity.sol\":3175:3195  pendingDataToReceive */\n      0x07\n        /* \"Entity.sol\":3175:3202  pendingDataToReceive[index] */\n      dup1\n      sload\n      0xffffffff\n      dup6\n      and\n      swap1\n      dup2\n      lt\n      tag_581\n      jumpi\n      invalid\n    tag_581:\n      swap1\n      0x00\n      mstore\n      keccak256(0x00, 0x20)\n      swap1\n      0x08\n      mul\n      add\n        /* \"Entity.sol\":3175:3214  pendingDataToReceive[index].description */\n      0x02\n      add\n        /* \"Entity.sol\":3120:3215  writtenDescription[pendingDataToReceive[index].source][pendingDataToReceive[index].description] */\n      mload(0x40)\n      dup1\n      dup3\n      dup1\n      sload\n      0x01\n      dup2\n      0x01\n      and\n      iszero\n      0x0100\n      mul\n      sub\n      and\n      0x02\n      swap1\n      div\n      dup1\n      iszero\n      tag_583\n      jumpi\n      dup1\n      0x1f\n      lt\n      tag_584\n      jumpi\n      0x0100\n      dup1\n      dup4\n      sload\n      div\n      mul\n      dup4\n      mstore\n      swap2\n      dup3\n      add\n      swap2\n      jump(tag_583)\n    tag_584:\n      dup3\n      add\n      swap2\n      swap1\n      0x00\n      mstore\n      keccak256(0x00, 0x20)\n      swap1\n    tag_585:\n      dup2\n      sload\n      dup2\n      mstore\n      swap1\n      0x01\n      add\n      swap1\n      0x20\n      add\n      dup1\n      dup4\n      gt\n      tag_585\n      jumpi\n    tag_583:\n      pop\n      pop\n      swap3\n      dup4\n      mstore\n      pop\n      pop\n      mload(0x40)\n      swap1\n      dup2\n      swap1\n      sub\n      0x20\n      add\n      swap1\n      keccak256\n      sload\n      0xff\n      and\n        /* \"Entity.sol\":3116:3462  if(!writtenDescription[pendingDataToReceive[index].source][pendingDataToReceive[index].description]){\r... */\n      tag_586\n      jumpi\n        /* \"Entity.sol\":3231:3251  descriptionsBySource */\n      0x05\n        /* \"Entity.sol\":3231:3287  descriptionsBySource[pendingDataToReceive[index].source] */\n      0x00\n        /* \"Entity.sol\":3252:3272  pendingDataToReceive */\n      0x07\n        /* \"Entity.sol\":3273:3278  index */\n      dup5\n        /* \"Entity.sol\":3252:3279  pendingDataToReceive[index] */\n      0xffffffff\n      and\n      dup2\n      sload\n      dup2\n      lt\n      tag_587\n      jumpi\n      invalid\n    tag_587:\n      0x00\n      swap2\n      dup3\n      mstore\n      0x20\n      dup1\n      dup4\n      keccak256\n      0x08\n      swap1\n      swap3\n      mul\n      swap1\n      swap2\n      add\n        /* \"Entity.sol\":3252:3286  pendingDataToReceive[index].source */\n      sload\n      sub(shl(0xa0, 0x01), 0x01)\n      and\n        /* \"Entity.sol\":3231:3287  descriptionsBySource[pendingDataToReceive[index].source] */\n      dup4\n      mstore\n      dup3\n      add\n      swap3\n      swap1\n      swap3\n      mstore\n      0x40\n      add\n      swap1\n      keccak256\n        /* \"Entity.sol\":3293:3313  pendingDataToReceive */\n      0x07\n        /* \"Entity.sol\":3293:3320  pendingDataToReceive[index] */\n      dup1\n      sload\n      0xffffffff\n      dup6\n      and\n      swap1\n      dup2\n      lt\n      tag_589\n      jumpi\n      invalid\n    tag_589:\n      0x00\n      swap2\n      dup3\n      mstore\n      0x20\n      dup1\n      dup4\n      keccak256\n        /* \"--CODEGEN--\":27:37   */\n      dup5\n      sload\n        /* \"--CODEGEN--\":39:40   */\n      0x01\n        /* \"--CODEGEN--\":23:41   */\n      dup1\n      dup3\n      add\n        /* \"--CODEGEN--\":45:68   */\n      dup8\n      sstore\n        /* \"Entity.sol\":3231:3333  descriptionsBySource[pendingDataToReceive[index].source].push(pendingDataToReceive[index].description) */\n      swap6\n      dup6\n      mstore\n      swap2\n      swap1\n      swap4\n      keccak256\n        /* \"Entity.sol\":3293:3320  pendingDataToReceive[index] */\n      0x08\n      swap3\n      swap1\n      swap3\n      mul\n      swap1\n      swap3\n      add\n        /* \"Entity.sol\":3293:3332  pendingDataToReceive[index].description */\n      0x02\n      swap1\n      dup2\n      add\n        /* \"Entity.sol\":3231:3333  descriptionsBySource[pendingDataToReceive[index].source].push(pendingDataToReceive[index].description) */\n      dup1\n      sload\n      tag_592\n      swap6\n      swap4\n      swap1\n      swap5\n      add\n      swap4\n        /* \"Entity.sol\":3293:3332  pendingDataToReceive[index].description */\n      swap1\n      swap3\n      not(0x00)\n        /* \"Entity.sol\":3231:3333  descriptionsBySource[pendingDataToReceive[index].source].push(pendingDataToReceive[index].description) */\n      swap1\n      dup3\n      and\n      iszero\n      0x0100\n      mul\n      add\n      and\n      div\n      tag_390\n      jump\t// in\n    tag_592:\n      pop\n        /* \"Entity.sol\":3446:3450  true */\n      0x01\n        /* \"Entity.sol\":3348:3366  writtenDescription */\n      0x06\n        /* \"Entity.sol\":3348:3402  writtenDescription[pendingDataToReceive[index].source] */\n      0x00\n        /* \"Entity.sol\":3367:3387  pendingDataToReceive */\n      0x07\n        /* \"Entity.sol\":3388:3393  index */\n      dup6\n        /* \"Entity.sol\":3367:3394  pendingDataToReceive[index] */\n      0xffffffff\n      and\n      dup2\n      sload\n      dup2\n      lt\n      tag_593\n      jumpi\n      invalid\n    tag_593:\n      0x00\n      swap2\n      dup3\n      mstore\n      0x20\n      dup1\n      dup4\n      keccak256\n      0x08\n      swap1\n      swap3\n      mul\n      swap1\n      swap2\n      add\n        /* \"Entity.sol\":3367:3401  pendingDataToReceive[index].source */\n      sload\n      sub(shl(0xa0, 0x01), 0x01)\n      and\n        /* \"Entity.sol\":3348:3402  writtenDescription[pendingDataToReceive[index].source] */\n      dup4\n      mstore\n      dup3\n      add\n      swap3\n      swap1\n      swap3\n      mstore\n      0x40\n      add\n      swap1\n      keccak256\n        /* \"Entity.sol\":3403:3423  pendingDataToReceive */\n      0x07\n        /* \"Entity.sol\":3403:3430  pendingDataToReceive[index] */\n      dup1\n      sload\n      0xffffffff\n      dup7\n      and\n      swap1\n      dup2\n      lt\n      tag_595\n      jumpi\n      invalid\n    tag_595:\n      swap1\n      0x00\n      mstore\n      keccak256(0x00, 0x20)\n      swap1\n      0x08\n      mul\n      add\n        /* \"Entity.sol\":3403:3442  pendingDataToReceive[index].description */\n      0x02\n      add\n        /* \"Entity.sol\":3348:3443  writtenDescription[pendingDataToReceive[index].source][pendingDataToReceive[index].description] */\n      mload(0x40)\n      dup1\n      dup3\n      dup1\n      sload\n      0x01\n      dup2\n      0x01\n      and\n      iszero\n      0x0100\n      mul\n      sub\n      and\n      0x02\n      swap1\n      div\n      dup1\n      iszero\n      tag_597\n      jumpi\n      dup1\n      0x1f\n      lt\n      tag_598\n      jumpi\n      0x0100\n      dup1\n      dup4\n      sload\n      div\n      mul\n      dup4\n      mstore\n      swap2\n      dup3\n      add\n      swap2\n      jump(tag_597)\n    tag_598:\n      dup3\n      add\n      swap2\n      swap1\n      0x00\n      mstore\n      keccak256(0x00, 0x20)\n      swap1\n    tag_599:\n      dup2\n      sload\n      dup2\n      mstore\n      swap1\n      0x01\n      add\n      swap1\n      0x20\n      add\n      dup1\n      dup4\n      gt\n      tag_599\n      jumpi\n    tag_597:\n      pop\n      pop\n      swap3\n      dup4\n      mstore\n      pop\n      pop\n      mload(0x40)\n      swap1\n      dup2\n      swap1\n      sub\n      0x20\n      add\n      swap1\n      keccak256\n        /* \"Entity.sol\":3348:3450  writtenDescription[pendingDataToReceive[index].source][pendingDataToReceive[index].description] = true */\n      dup1\n      sload\n      swap2\n      iszero\n      iszero\n      not(0xff)\n      swap1\n      swap3\n      and\n      swap2\n      swap1\n      swap2\n      or\n      swap1\n      sstore\n        /* \"Entity.sol\":3116:3462  if(!writtenDescription[pendingDataToReceive[index].source][pendingDataToReceive[index].description]){\r... */\n    tag_586:\n        /* \"Entity.sol\":3511:3515  true */\n      0x01\n        /* \"Entity.sol\":3472:3492  pendingDataToReceive */\n      0x07\n        /* \"Entity.sol\":3493:3498  index */\n      dup4\n        /* \"Entity.sol\":3472:3499  pendingDataToReceive[index] */\n      0xffffffff\n      and\n      dup2\n      sload\n      dup2\n      lt\n      tag_600\n      jumpi\n      invalid\n    tag_600:\n      0x00\n      swap2\n      dup3\n      mstore\n      0x20\n      swap1\n      swap2\n      keccak256\n      0x08\n      swap1\n      swap2\n      mul\n      add\n        /* \"Entity.sol\":3472:3508  pendingDataToReceive[index].approved */\n      0x07\n      add\n        /* \"Entity.sol\":3472:3515  pendingDataToReceive[index].approved = true */\n      dup1\n      sload\n      not(0xff)\n      and\n      swap2\n      iszero\n      iszero\n      swap2\n      swap1\n      swap2\n      or\n      swap1\n      sstore\n      pop\n      pop\n        /* \"Entity.sol\":2096:3523  function _approveDataToReceive(uint32 index) \r... */\n      jump\t// out\n        /* \"strings.sol\":3559:3775  function toSlice(string memory self) internal pure returns (slice memory) {\r... */\n    tag_351:\n        /* \"strings.sol\":3619:3631  slice memory */\n      tag_602\n      tag_349\n      jump\t// in\n    tag_602:\n      pop\n        /* \"strings.sol\":3737:3767  slice(bytes(self).length, ptr) */\n      0x40\n      dup1\n      mload\n      dup1\n      dup3\n      add\n      swap1\n      swap2\n      mstore\n        /* \"strings.sol\":3743:3761  bytes(self).length */\n      dup2\n      mload\n        /* \"strings.sol\":3737:3767  slice(bytes(self).length, ptr) */\n      dup2\n      mstore\n        /* \"strings.sol\":3704:3708  0x20 */\n      0x20\n        /* \"strings.sol\":3694:3709  add(self, 0x20) */\n      dup3\n      dup2\n      add\n        /* \"strings.sol\":3737:3767  slice(bytes(self).length, ptr) */\n      swap1\n      dup3\n      add\n      mstore\n        /* \"strings.sol\":3559:3775  function toSlice(string memory self) internal pure returns (slice memory) {\r... */\n      swap2\n      swap1\n      pop\n      jump\t// out\n        /* \"strings.sol\":24217:24587  function count(slice memory self, slice memory needle) internal pure returns (uint cnt) {\r... */\n    tag_357:\n        /* \"strings.sol\":24295:24303  uint cnt */\n      0x00\n        /* \"strings.sol\":24316:24324  uint ptr */\n      dup1\n        /* \"strings.sol\":24385:24391  needle */\n      dup3\n        /* \"strings.sol\":24385:24396  needle._len */\n      0x00\n      add\n      mload\n        /* \"strings.sol\":24327:24382  findPtr(self._len, self._ptr, needle._len, needle._ptr) */\n      tag_605\n        /* \"strings.sol\":24335:24339  self */\n      dup6\n        /* \"strings.sol\":24335:24344  self._len */\n      0x00\n      add\n      mload\n        /* \"strings.sol\":24346:24350  self */\n      dup7\n        /* \"strings.sol\":24346:24355  self._ptr */\n      0x20\n      add\n      mload\n        /* \"strings.sol\":24357:24363  needle */\n      dup7\n        /* \"strings.sol\":24357:24368  needle._len */\n      0x00\n      add\n      mload\n        /* \"strings.sol\":24370:24376  needle */\n      dup8\n        /* \"strings.sol\":24370:24381  needle._ptr */\n      0x20\n      add\n      mload\n        /* \"strings.sol\":24327:24334  findPtr */\n      tag_606\n        /* \"strings.sol\":24327:24382  findPtr(self._len, self._ptr, needle._len, needle._ptr) */\n      jump\t// in\n    tag_605:\n        /* \"strings.sol\":24327:24396  findPtr(self._len, self._ptr, needle._len, needle._ptr) + needle._len */\n      add\n        /* \"strings.sol\":24316:24396  uint ptr = findPtr(self._len, self._ptr, needle._len, needle._ptr) + needle._len */\n      swap1\n      pop\n        /* \"strings.sol\":24407:24580  while (ptr <= self._ptr + self._len) {\r... */\n    tag_607:\n        /* \"strings.sol\":24433:24442  self._len */\n      dup4\n      mload\n        /* \"strings.sol\":24421:24430  self._ptr */\n      0x20\n      dup6\n      add\n      mload\n        /* \"strings.sol\":24421:24442  self._ptr + self._len */\n      add\n        /* \"strings.sol\":24414:24442  ptr <= self._ptr + self._len */\n      dup2\n      gt\n        /* \"strings.sol\":24407:24580  while (ptr <= self._ptr + self._len) {\r... */\n      tag_608\n      jumpi\n        /* \"strings.sol\":24557:24568  needle._len */\n      dup3\n      mload\n        /* \"strings.sol\":24512:24521  self._ptr */\n      0x20\n      dup1\n      dup7\n      add\n      mload\n        /* \"strings.sol\":24493:24502  self._len */\n      dup7\n      mload\n        /* \"strings.sol\":24542:24553  needle._ptr */\n      swap2\n      dup7\n      add\n      mload\n        /* \"strings.sol\":24459:24464  cnt++ */\n      0x01\n      swap1\n      swap6\n      add\n      swap5\n        /* \"strings.sol\":24485:24554  findPtr(self._len - (ptr - self._ptr), ptr, needle._len, needle._ptr) */\n      tag_609\n      swap3\n        /* \"strings.sol\":24506:24521  ptr - self._ptr */\n      swap2\n      dup6\n      sub\n        /* \"strings.sol\":24493:24522  self._len - (ptr - self._ptr) */\n      swap1\n      swap2\n      sub\n      swap1\n        /* \"strings.sol\":24506:24509  ptr */\n      dup5\n      swap1\n        /* \"strings.sol\":24557:24568  needle._len */\n      dup5\n      swap1\n        /* \"strings.sol\":24485:24492  findPtr */\n      tag_606\n        /* \"strings.sol\":24485:24554  findPtr(self._len - (ptr - self._ptr), ptr, needle._len, needle._ptr) */\n      jump\t// in\n    tag_609:\n        /* \"strings.sol\":24485:24568  findPtr(self._len - (ptr - self._ptr), ptr, needle._len, needle._ptr) + needle._len */\n      add\n        /* \"strings.sol\":24479:24568  ptr = findPtr(self._len - (ptr - self._ptr), ptr, needle._len, needle._ptr) + needle._len */\n      swap1\n      pop\n        /* \"strings.sol\":24407:24580  while (ptr <= self._ptr + self._len) {\r... */\n      jump(tag_607)\n    tag_608:\n        /* \"strings.sol\":24217:24587  function count(slice memory self, slice memory needle) internal pure returns (uint cnt) {\r... */\n      pop\n      swap3\n      swap2\n      pop\n      pop\n      jump\t// out\n        /* \"strings.sol\":22185:22328  function split(slice memory self, slice memory needle) internal pure returns (slice memory token) {\r... */\n    tag_363:\n        /* \"strings.sol\":22263:22281  slice memory token */\n      tag_610\n      tag_349\n      jump\t// in\n    tag_610:\n        /* \"strings.sol\":22294:22320  split(self, needle, token) */\n      tag_608\n        /* \"strings.sol\":22300:22304  self */\n      dup4\n        /* \"strings.sol\":22306:22312  needle */\n      dup4\n        /* \"strings.sol\":22314:22319  token */\n      dup4\n        /* \"strings.sol\":22294:22299  split */\n      tag_613\n        /* \"strings.sol\":22294:22320  split(self, needle, token) */\n      jump\t// in\n        /* \"strings.sol\":6004:6276  function toString(slice memory self) internal pure returns (string memory) {\r... */\n    tag_364:\n        /* \"strings.sol\":6064:6077  string memory */\n      0x60\n        /* \"strings.sol\":6090:6107  string memory ret */\n      dup1\n        /* \"strings.sol\":6121:6125  self */\n      dup3\n        /* \"strings.sol\":6121:6130  self._len */\n      0x00\n      add\n      mload\n        /* \"strings.sol\":6110:6131  new string(self._len) */\n      0xffffffffffffffff\n      dup2\n      gt\n        /* \"--CODEGEN--\":5:14   */\n      dup1\n        /* \"--CODEGEN--\":2:4   */\n      iszero\n      tag_615\n      jumpi\n        /* \"--CODEGEN--\":27:28   */\n      0x00\n        /* \"--CODEGEN--\":24:25   */\n      dup1\n        /* \"--CODEGEN--\":17:29   */\n      revert\n        /* \"--CODEGEN--\":2:4   */\n    tag_615:\n        /* \"strings.sol\":6110:6131  new string(self._len) */\n      pop\n      mload(0x40)\n      swap1\n      dup1\n      dup3\n      mstore\n      dup1\n      0x1f\n      add\n      not(0x1f)\n      and\n      0x20\n      add\n      dup3\n      add\n      0x40\n      mstore\n      dup1\n      iszero\n      tag_616\n      jumpi\n      0x20\n      dup3\n      add\n        /* \"--CODEGEN--\":21:27   */\n      dup2\n      dup1\n        /* \"--CODEGEN--\":108:122   */\n      calldatasize\n        /* \"strings.sol\":6110:6131  new string(self._len) */\n      dup4\n        /* \"--CODEGEN--\":87:129   */\n      calldatacopy\n        /* \"--CODEGEN--\":143:160   */\n      add\n      swap1\n      pop\n        /* \"strings.sol\":6110:6131  new string(self._len) */\n    tag_616:\n      pop\n        /* \"strings.sol\":6090:6131  string memory ret = new string(self._len) */\n      swap1\n      pop\n        /* \"strings.sol\":6142:6153  uint retptr */\n      0x00\n        /* \"strings.sol\":6194:6196  32 */\n      0x20\n        /* \"strings.sol\":6189:6192  ret */\n      dup3\n        /* \"strings.sol\":6185:6197  add(ret, 32) */\n      add\n        /* \"strings.sol\":6175:6197  retptr := add(ret, 32) */\n      swap1\n      pop\n        /* \"strings.sol\":6211:6247  memcpy(retptr, self._ptr, self._len) */\n      tag_608\n        /* \"strings.sol\":6218:6224  retptr */\n      dup2\n        /* \"strings.sol\":6226:6230  self */\n      dup6\n        /* \"strings.sol\":6226:6235  self._ptr */\n      0x20\n      add\n      mload\n        /* \"strings.sol\":6237:6241  self */\n      dup7\n        /* \"strings.sol\":6237:6246  self._len */\n      0x00\n      add\n      mload\n        /* \"strings.sol\":6211:6217  memcpy */\n      tag_618\n        /* \"strings.sol\":6211:6247  memcpy(retptr, self._ptr, self._len) */\n      jump\t// in\n        /* \"strings.sol\":16475:17884  function findPtr(uint selflen, uint selfptr, uint needlelen, uint needleptr) private pure returns (uint) {\r... */\n    tag_606:\n        /* \"strings.sol\":16574:16578  uint */\n      0x00\n        /* \"strings.sol\":16602:16609  selfptr */\n      dup4\n        /* \"strings.sol\":16574:16578  uint */\n      dup2\n        /* \"strings.sol\":16645:16665  needlelen <= selflen */\n      dup7\n      dup6\n      gt\n        /* \"strings.sol\":16641:17842  if (needlelen <= selflen) {\r... */\n      tag_625\n      jumpi\n        /* \"strings.sol\":16699:16701  32 */\n      0x20\n        /* \"strings.sol\":16686:16695  needlelen */\n      dup6\n        /* \"strings.sol\":16686:16701  needlelen <= 32 */\n      gt\n        /* \"strings.sol\":16682:17831  if (needlelen <= 32) {\r... */\n      tag_621\n      jumpi\n        /* \"strings.sol\":16867:16883  mload(needleptr) */\n      dup4\n      mload\n        /* \"strings.sol\":17031:17041  mload(ptr) */\n      dup3\n      mload\n      not(0x00)\n        /* \"strings.sol\":16753:16754  8 */\n      0x08\n        /* \"strings.sol\":16758:16760  32 */\n      0x20\n        /* \"strings.sol\":16758:16772  32 - needlelen */\n      dup10\n      swap1\n      sub\n        /* \"strings.sol\":16753:16773  8 * (32 - needlelen) */\n      mul\n        /* \"strings.sol\":16747:16748  2 */\n      0x02\n        /* \"strings.sol\":16747:16774  2 ** (8 * (32 - needlelen)) */\n      exp\n        /* \"strings.sol\":16747:16778  2 ** (8 * (32 - needlelen)) - 1 */\n      add\n        /* \"strings.sol\":16745:16779  ~(2 ** (8 * (32 - needlelen)) - 1) */\n      not\n      swap2\n        /* \"strings.sol\":16863:16890  and(mload(needleptr), mask) */\n      dup3\n      and\n      swap1\n        /* \"strings.sol\":16923:16940  selfptr + selflen */\n      dup9\n      dup11\n      add\n        /* \"strings.sol\":16923:16952  selfptr + selflen - needlelen */\n      dup9\n      swap1\n      sub\n      swap1\n        /* \"strings.sol\":17027:17048  and(mload(ptr), mask) */\n      dup4\n      and\n        /* \"strings.sol\":17070:17303  while (ptrdata != needledata) {\r... */\n    tag_622:\n        /* \"strings.sol\":17088:17098  needledata */\n      dup3\n        /* \"strings.sol\":17077:17084  ptrdata */\n      dup2\n        /* \"strings.sol\":17077:17098  ptrdata != needledata */\n      eq\n        /* \"strings.sol\":17070:17303  while (ptrdata != needledata) {\r... */\n      tag_623\n      jumpi\n        /* \"strings.sol\":17134:17137  end */\n      dup2\n        /* \"strings.sol\":17127:17130  ptr */\n      dup7\n        /* \"strings.sol\":17127:17137  ptr >= end */\n      lt\n        /* \"strings.sol\":17123:17188  if (ptr >= end)\r... */\n      tag_624\n      jumpi\n        /* \"strings.sol\":17181:17188  selflen */\n      dup11\n        /* \"strings.sol\":17171:17178  selfptr */\n      dup11\n        /* \"strings.sol\":17171:17188  selfptr + selflen */\n      add\n        /* \"strings.sol\":17164:17188  return selfptr + selflen */\n      swap7\n      pop\n      pop\n      pop\n      pop\n      pop\n      pop\n      pop\n      jump(tag_619)\n        /* \"strings.sol\":17123:17188  if (ptr >= end)\r... */\n    tag_624:\n      pop\n        /* \"strings.sol\":17211:17216  ptr++ */\n      0x01\n      swap1\n      swap5\n      add\n        /* \"strings.sol\":17265:17275  mload(ptr) */\n      dup1\n      mload\n        /* \"strings.sol\":17211:17216  ptr++ */\n      swap1\n      swap5\n      swap1\n        /* \"strings.sol\":17261:17282  and(mload(ptr), mask) */\n      dup4\n      and\n        /* \"strings.sol\":17248:17284  { ptrdata := and(mload(ptr), mask) } */\n      jump(tag_622)\n    tag_623:\n        /* \"strings.sol\":17328:17331  ptr */\n      dup6\n        /* \"strings.sol\":17321:17331  return ptr */\n      swap7\n      pop\n      pop\n      pop\n      pop\n      pop\n      pop\n      pop\n      jump(tag_619)\n        /* \"strings.sol\":16682:17831  if (needlelen <= 32) {\r... */\n    tag_621:\n      pop\n        /* \"strings.sol\":17472:17503  keccak256(needleptr, needlelen) */\n      dup4\n      dup4\n      keccak256\n        /* \"strings.sol\":17422:17434  bytes32 hash */\n      0x00\n      swap1\n        /* \"strings.sol\":17525:17816  for (idx = 0; idx <= selflen - needlelen; idx++) {\r... */\n    tag_626:\n        /* \"strings.sol\":17556:17565  needlelen */\n      dup6\n        /* \"strings.sol\":17546:17553  selflen */\n      dup9\n        /* \"strings.sol\":17546:17565  selflen - needlelen */\n      sub\n        /* \"strings.sol\":17539:17542  idx */\n      dup3\n        /* \"strings.sol\":17539:17565  idx <= selflen - needlelen */\n      gt\n        /* \"strings.sol\":17525:17816  for (idx = 0; idx <= selflen - needlelen; idx++) {\r... */\n      tag_627\n      jumpi\n        /* \"strings.sol\":17659:17684  keccak256(ptr, needlelen) */\n      dup6\n      dup4\n      keccak256\n        /* \"strings.sol\":17712:17728  hash == testHash */\n      dup2\n      dup2\n      eq\n        /* \"strings.sol\":17708:17765  if (hash == testHash)\r... */\n      iszero\n      tag_629\n      jumpi\n        /* \"strings.sol\":17762:17765  ptr */\n      dup4\n        /* \"strings.sol\":17755:17765  return ptr */\n      swap5\n      pop\n      pop\n      pop\n      pop\n      pop\n      jump(tag_619)\n        /* \"strings.sol\":17708:17765  if (hash == testHash)\r... */\n    tag_629:\n      pop\n        /* \"strings.sol\":17795:17796  1 */\n      0x01\n        /* \"strings.sol\":17788:17796  ptr += 1 */\n      swap3\n      dup4\n      add\n      swap3\n        /* \"strings.sol\":17567:17572  idx++ */\n      swap2\n      swap1\n      swap2\n      add\n      swap1\n        /* \"strings.sol\":17525:17816  for (idx = 0; idx <= selflen - needlelen; idx++) {\r... */\n      jump(tag_626)\n    tag_627:\n        /* \"strings.sol\":16682:17831  if (needlelen <= 32) {\r... */\n      pop\n    tag_625:\n      pop\n      pop\n      pop\n        /* \"strings.sol\":17859:17876  selfptr + selflen */\n      dup3\n      dup5\n      add\n        /* \"strings.sol\":16475:17884  function findPtr(uint selflen, uint selfptr, uint needlelen, uint needleptr) private pure returns (uint) {\r... */\n    tag_619:\n      swap5\n      swap4\n      pop\n      pop\n      pop\n      pop\n      jump\t// out\n        /* \"strings.sol\":21187:21703  function split(slice memory self, slice memory needle, slice memory token) internal pure returns (slice memory) {\r... */\n    tag_613:\n        /* \"strings.sol\":21285:21297  slice memory */\n      tag_630\n      tag_349\n      jump\t// in\n    tag_630:\n        /* \"strings.sol\":21310:21318  uint ptr */\n      0x00\n        /* \"strings.sol\":21321:21376  findPtr(self._len, self._ptr, needle._len, needle._ptr) */\n      tag_632\n        /* \"strings.sol\":21329:21333  self */\n      dup6\n        /* \"strings.sol\":21329:21338  self._len */\n      0x00\n      add\n      mload\n        /* \"strings.sol\":21340:21344  self */\n      dup7\n        /* \"strings.sol\":21340:21349  self._ptr */\n      0x20\n      add\n      mload\n        /* \"strings.sol\":21351:21357  needle */\n      dup7\n        /* \"strings.sol\":21351:21362  needle._len */\n      0x00\n      add\n      mload\n        /* \"strings.sol\":21364:21370  needle */\n      dup8\n        /* \"strings.sol\":21364:21375  needle._ptr */\n      0x20\n      add\n      mload\n        /* \"strings.sol\":21321:21328  findPtr */\n      tag_606\n        /* \"strings.sol\":21321:21376  findPtr(self._len, self._ptr, needle._len, needle._ptr) */\n      jump\t// in\n    tag_632:\n        /* \"strings.sol\":21400:21409  self._ptr */\n      0x20\n      dup1\n      dup8\n      add\n      dup1\n      mload\n        /* \"strings.sol\":21387:21397  token._ptr */\n      swap2\n      dup7\n      add\n        /* \"strings.sol\":21387:21409  token._ptr = self._ptr */\n      swap2\n      swap1\n      swap2\n      mstore\n        /* \"strings.sol\":21439:21448  self._ptr */\n      dup1\n      mload\n        /* \"strings.sol\":21433:21448  ptr - self._ptr */\n      dup3\n      sub\n        /* \"strings.sol\":21420:21448  token._len = ptr - self._ptr */\n      dup6\n      mstore\n        /* \"strings.sol\":21482:21491  self._len */\n      dup7\n      mload\n        /* \"strings.sol\":21470:21479  self._ptr */\n      swap1\n      mload\n        /* \"strings.sol\":21310:21376  uint ptr = findPtr(self._len, self._ptr, needle._len, needle._ptr) */\n      swap2\n      swap3\n      pop\n        /* \"strings.sol\":21470:21491  self._ptr + self._len */\n      add\n        /* \"strings.sol\":21463:21491  ptr == self._ptr + self._len */\n      dup2\n      eq\n        /* \"strings.sol\":21459:21673  if (ptr == self._ptr + self._len) {\r... */\n      iszero\n      tag_633\n      jumpi\n        /* \"strings.sol\":21546:21547  0 */\n      0x00\n        /* \"strings.sol\":21534:21547  self._len = 0 */\n      dup6\n      mstore\n        /* \"strings.sol\":21459:21673  if (ptr == self._ptr + self._len) {\r... */\n      jump(tag_634)\n    tag_633:\n        /* \"strings.sol\":21606:21617  needle._len */\n      dup4\n      mload\n        /* \"strings.sol\":21593:21603  token._len */\n      dup4\n      mload\n        /* \"strings.sol\":21580:21617  self._len -= token._len + needle._len */\n      dup7\n      mload\n        /* \"strings.sol\":21593:21617  token._len + needle._len */\n      swap2\n      add\n        /* \"strings.sol\":21580:21617  self._len -= token._len + needle._len */\n      swap1\n      sub\n      dup6\n      mstore\n        /* \"strings.sol\":21650:21661  needle._len */\n      dup4\n      mload\n        /* \"strings.sol\":21644:21661  ptr + needle._len */\n      dup2\n      add\n        /* \"strings.sol\":21632:21641  self._ptr */\n      0x20\n      dup7\n      add\n        /* \"strings.sol\":21632:21661  self._ptr = ptr + needle._len */\n      mstore\n        /* \"strings.sol\":21459:21673  if (ptr == self._ptr + self._len) {\r... */\n    tag_634:\n      pop\n        /* \"strings.sol\":21690:21695  token */\n      swap1\n      swap4\n        /* \"strings.sol\":21187:21703  function split(slice memory self, slice memory needle, slice memory token) internal pure returns (slice memory) {\r... */\n      swap3\n      pop\n      pop\n      pop\n      jump\t// out\n        /* \"strings.sol\":2786:3352  function memcpy(uint dest, uint src, uint len) internal pure {\r... */\n    tag_618:\n        /* \"strings.sol\":2909:3079  for(; len >= 32; len -= 32) {\r... */\n    tag_636:\n        /* \"strings.sol\":2922:2924  32 */\n      0x20\n        /* \"strings.sol\":2915:2918  len */\n      dup2\n        /* \"strings.sol\":2915:2924  len >= 32 */\n      lt\n        /* \"strings.sol\":2909:3079  for(; len >= 32; len -= 32) {\r... */\n      tag_637\n      jumpi\n        /* \"strings.sol\":2993:3003  mload(src) */\n      dup2\n      mload\n        /* \"strings.sol\":2980:3004  mstore(dest, mload(src)) */\n      dup4\n      mstore\n        /* \"strings.sol\":3041:3043  32 */\n      0x20\n        /* \"strings.sol\":3033:3043  dest += 32 */\n      swap3\n      dup4\n      add\n      swap3\n        /* \"strings.sol\":3058:3067  src += 32 */\n      swap1\n      swap2\n      add\n      swap1\n      not(0x1f)\n        /* \"strings.sol\":2926:2935  len -= 32 */\n      add\n        /* \"strings.sol\":2909:3079  for(; len >= 32; len -= 32) {\r... */\n      jump(tag_636)\n    tag_637:\n        /* \"strings.sol\":3211:3221  mload(src) */\n      swap1\n      mload\n        /* \"strings.sol\":3267:3278  mload(dest) */\n      dup3\n      mload\n        /* \"strings.sol\":3144:3146  32 */\n      0x20\n        /* \"strings.sol\":3144:3152  32 - len */\n      swap3\n      swap1\n      swap3\n      sub\n        /* \"strings.sol\":3136:3139  256 */\n      0x0100\n        /* \"strings.sol\":3136:3153  256 ** (32 - len) */\n      exp\n      not(0x00)\n        /* \"strings.sol\":3136:3157  256 ** (32 - len) - 1 */\n      add\n        /* \"strings.sol\":3223:3232  not(mask) */\n      dup1\n      not\n        /* \"strings.sol\":3207:3233  and(mload(src), not(mask)) */\n      swap1\n      swap2\n      and\n        /* \"strings.sol\":3263:3285  and(mload(dest), mask) */\n      swap2\n      and\n        /* \"strings.sol\":3312:3333  or(destpart, srcpart) */\n      or\n        /* \"strings.sol\":3299:3334  mstore(dest, or(destpart, srcpart)) */\n      swap1\n      mstore\n        /* \"strings.sol\":3177:3345  {\r... */\n      jump\t// out\n        /* \"Entity.sol\":69:9918  contract Entity {\r... */\n    tag_347:\n      dup3\n      dup1\n      sload\n      0x01\n      dup2\n      0x01\n      and\n      iszero\n      0x0100\n      mul\n      sub\n      and\n      0x02\n      swap1\n      div\n      swap1\n      0x00\n      mstore\n      keccak256(0x00, 0x20)\n      swap1\n      0x1f\n      add\n      0x20\n      swap1\n      div\n      dup2\n      add\n      swap3\n      dup3\n      0x1f\n      lt\n      tag_640\n      jumpi\n      dup1\n      mload\n      not(0xff)\n      and\n      dup4\n      dup1\n      add\n      or\n      dup6\n      sstore\n      jump(tag_642)\n    tag_640:\n      dup3\n      dup1\n      add\n      0x01\n      add\n      dup6\n      sstore\n      dup3\n      iszero\n      tag_642\n      jumpi\n      swap2\n      dup3\n      add\n    tag_641:\n      dup3\n      dup2\n      gt\n      iszero\n      tag_642\n      jumpi\n      dup3\n      mload\n      dup3\n      sstore\n      swap2\n      0x20\n      add\n      swap2\n      swap1\n      0x01\n      add\n      swap1\n      jump(tag_641)\n    tag_642:\n      pop\n      tag_643\n      swap3\n      swap2\n      pop\n      tag_644\n      jump\t// in\n    tag_643:\n      pop\n      swap1\n      jump\t// out\n    tag_349:\n      mload(0x40)\n      dup1\n      0x40\n      add\n      0x40\n      mstore\n      dup1\n      0x00\n      dup2\n      mstore\n      0x20\n      add\n      0x00\n      dup2\n      mstore\n      pop\n      swap1\n      jump\t// out\n    tag_390:\n      dup3\n      dup1\n      sload\n      0x01\n      dup2\n      0x01\n      and\n      iszero\n      0x0100\n      mul\n      sub\n      and\n      0x02\n      swap1\n      div\n      swap1\n      0x00\n      mstore\n      keccak256(0x00, 0x20)\n      swap1\n      0x1f\n      add\n      0x20\n      swap1\n      div\n      dup2\n      add\n      swap3\n      dup3\n      0x1f\n      lt\n      tag_646\n      jumpi\n      dup1\n      sload\n      dup6\n      sstore\n      jump(tag_642)\n    tag_646:\n      dup3\n      dup1\n      add\n      0x01\n      add\n      dup6\n      sstore\n      dup3\n      iszero\n      tag_642\n      jumpi\n      0x00\n      mstore\n      keccak256(0x00, 0x20)\n      swap2\n      0x1f\n      add\n      0x20\n      swap1\n      div\n      dup3\n      add\n    tag_647:\n      dup3\n      dup2\n      gt\n      iszero\n      tag_642\n      jumpi\n      dup3\n      sload\n      dup3\n      sstore\n      swap2\n      0x01\n      add\n      swap2\n      swap1\n      0x01\n      add\n      swap1\n      jump(tag_647)\n    tag_392:\n      dup3\n      dup1\n      sload\n      dup3\n      dup3\n      sstore\n      swap1\n      0x00\n      mstore\n      keccak256(0x00, 0x20)\n      swap1\n      dup2\n      add\n      swap3\n      dup3\n      iszero\n      tag_652\n      jumpi\n      0x00\n      mstore\n      keccak256(0x00, 0x20)\n      swap2\n      dup3\n      add\n    tag_651:\n      dup3\n      dup2\n      gt\n      iszero\n      tag_652\n      jumpi\n      dup3\n      dup3\n      swap1\n      dup1\n      sload\n      0x01\n      dup2\n      0x01\n      and\n      iszero\n      0x0100\n      mul\n      sub\n      and\n      0x02\n      swap1\n      div\n      tag_653\n      swap3\n      swap2\n      swap1\n      tag_390\n      jump\t// in\n    tag_653:\n      pop\n      swap2\n      0x01\n      add\n      swap2\n      swap1\n      0x01\n      add\n      swap1\n      jump(tag_651)\n    tag_652:\n      pop\n      tag_643\n      swap3\n      swap2\n      pop\n      tag_655\n      jump\t// in\n    tag_421:\n      dup3\n      dup1\n      sload\n      0x01\n      dup2\n      0x01\n      and\n      iszero\n      0x0100\n      mul\n      sub\n      and\n      0x02\n      swap1\n      div\n      swap1\n      0x00\n      mstore\n      keccak256(0x00, 0x20)\n      swap1\n      0x1f\n      add\n      0x20\n      swap1\n      div\n      dup2\n      add\n      swap3\n      dup3\n      0x1f\n      lt\n      tag_657\n      jumpi\n      dup3\n      dup1\n      add\n      not(0xff)\n      dup3\n      calldataload\n      and\n      or\n      dup6\n      sstore\n      jump(tag_642)\n    tag_657:\n      dup3\n      dup1\n      add\n      0x01\n      add\n      dup6\n      sstore\n      dup3\n      iszero\n      tag_642\n      jumpi\n      swap2\n      dup3\n      add\n    tag_658:\n      dup3\n      dup2\n      gt\n      iszero\n      tag_642\n      jumpi\n      dup3\n      calldataload\n      dup3\n      sstore\n      swap2\n      0x20\n      add\n      swap2\n      swap1\n      0x01\n      add\n      swap1\n      jump(tag_658)\n    tag_436:\n      mload(0x40)\n      dup1\n      0xc0\n      add\n      0x40\n      mstore\n      dup1\n      and(sub(shl(0xa0, 0x01), 0x01), 0x00)\n      dup2\n      mstore\n      0x20\n      add\n      and(sub(shl(0xa0, 0x01), 0x01), 0x00)\n      dup2\n      mstore\n      0x20\n      add\n      0x60\n      dup2\n      mstore\n      0x20\n      add\n      0x60\n      dup2\n      mstore\n      0x20\n      add\n      0x60\n      dup2\n      mstore\n      0x20\n      add\n      iszero(iszero(0x00))\n      dup2\n      mstore\n      pop\n      swap1\n      jump\t// out\n    tag_440:\n      dup3\n      dup1\n      sload\n      dup3\n      dup3\n      sstore\n      swap1\n      0x00\n      mstore\n      keccak256(0x00, 0x20)\n      swap1\n      dup2\n      add\n      swap3\n      dup3\n      iszero\n      tag_652\n      jumpi\n      swap2\n      0x20\n      mul\n      dup3\n      add\n    tag_662:\n      dup3\n      dup2\n      gt\n      iszero\n      tag_652\n      jumpi\n      dup3\n      mload\n      dup1\n      mload\n      tag_664\n      swap2\n      dup5\n      swap2\n      0x20\n      swap1\n      swap2\n      add\n      swap1\n      tag_347\n      jump\t// in\n    tag_664:\n      pop\n      swap2\n      0x20\n      add\n      swap2\n      swap1\n      0x01\n      add\n      swap1\n      jump(tag_662)\n    tag_644:\n      tag_292\n      swap2\n      swap1\n    tag_672:\n      dup1\n      dup3\n      gt\n      iszero\n      tag_643\n      jumpi\n      0x00\n      dup2\n      sstore\n      0x01\n      add\n      jump(tag_672)\n    tag_655:\n      tag_292\n      swap2\n      swap1\n    tag_675:\n      dup1\n      dup3\n      gt\n      iszero\n      tag_643\n      jumpi\n      0x00\n      tag_677\n      dup3\n      dup3\n      tag_678\n      jump\t// in\n    tag_677:\n      pop\n      0x01\n      add\n      jump(tag_675)\n    tag_678:\n      pop\n      dup1\n      sload\n      0x01\n      dup2\n      0x01\n      and\n      iszero\n      0x0100\n      mul\n      sub\n      and\n      0x02\n      swap1\n      div\n      0x00\n      dup3\n      sstore\n      dup1\n      0x1f\n      lt\n      tag_680\n      jumpi\n      pop\n      jump(tag_681)\n    tag_680:\n      0x1f\n      add\n      0x20\n      swap1\n      div\n      swap1\n      0x00\n      mstore\n      keccak256(0x00, 0x20)\n      swap1\n      dup2\n      add\n      swap1\n      tag_681\n      swap2\n      swap1\n      tag_644\n      jump\t// in\n    tag_681:\n      pop\n      jump\t// out\n\n    auxdata: 0xa2646970667358221220ee8eb0d89a92941262b2894995418eaf5ba6e869838f167afa2fa013866ffa7164736f6c63430006060033\n}\n","bytecode":{"linkReferences":{},"object":"608060405234801561001057600080fd5b5061393b806100206000396000f3fe608060405234801561001057600080fd5b50600436106101e55760003560e01c80638e6365141161010f578063d027a93e116100a2578063e9dff3b411610071578063e9dff3b414610e82578063f10f731c14610e8a578063f396b51f14610fcb578063fc2a8efa14610ff1576101e5565b8063d027a93e14610df7578063db40659714610dff578063e24e791214610e25578063e29e929014610e50576101e5565b8063a63de8cf116100de578063a63de8cf14610c92578063a7ed560314610caf578063c09bc35b14610d63578063cf6ae52814610dd1576101e5565b80638e63651414610aa75780639169b32314610ad9578063928ec3e514610bab578063a1a298da14610c6f576101e5565b80634d981cf711610187578063838ebd8511610156578063838ebd85146108a857806384aeb694146108cb5780638c162152146108e75780638cba76b1146106b2576101e5565b80634d981cf7146108505780634f2bcbef146108585780634f51433d1461087d578063834fde3414610885576101e5565b80632a4541d4116101c35780632a4541d4146104d057806330699892146106b25780633296e5ca146107eb578063359589ac14610824576101e5565b806308ac733a146101ea5780630f12192514610313578063173610841461041c575b600080fd5b61029e6004803603604081101561020057600080fd5b6001600160a01b038235169190810190604081016020820135600160201b81111561022a57600080fd5b82018360208201111561023c57600080fd5b803590602001918460018302840111600160201b8311171561025d57600080fd5b91908080601f016020809104026020016040519081016040528093929190818152602001838380828437600092019190915250929550611122945050505050565b6040805160208082528351818301528351919283929083019185019080838360005b838110156102d85781810151838201526020016102c0565b50505050905090810190601f1680156103055780820380516001836020036101000a031916815260200191505b509250505060405180910390f35b61033e6004803603604081101561032957600080fd5b5063ffffffff8135811691602001351661123d565b604051808060200180602001838103835285818151815260200191508051906020019080838360005b8381101561037f578181015183820152602001610367565b50505050905090810190601f1680156103ac5780820380516001836020036101000a031916815260200191505b50838103825284518152845160209182019186019080838360005b838110156103df5781810151838201526020016103c7565b50505050905090810190601f16801561040c5780820380516001836020036101000a031916815260200191505b5094505050505060405180910390f35b61029e6004803603604081101561043257600080fd5b6001600160a01b038235169190810190604081016020820135600160201b81111561045c57600080fd5b82018360208201111561046e57600080fd5b803590602001918460018302840111600160201b8311171561048f57600080fd5b91908080601f0160208091040260200160405190810160405280939291908181526020018383808284376000920191909152509295506113e8945050505050565b610699600480360360c08110156104e657600080fd5b6001600160a01b038235811692602081013590911691810190606081016040820135600160201b81111561051957600080fd5b82018360208201111561052b57600080fd5b803590602001918460018302840111600160201b8311171561054c57600080fd5b91908080601f0160208091040260200160405190810160405280939291908181526020018383808284376000920191909152509295949360208101935035915050600160201b81111561059e57600080fd5b8201836020820111156105b057600080fd5b803590602001918460018302840111600160201b831117156105d157600080fd5b91908080601f0160208091040260200160405190810160405280939291908181526020018383808284376000920191909152509295949360208101935035915050600160201b81111561062357600080fd5b82018360208201111561063557600080fd5b803590602001918460018302840111600160201b8311171561065657600080fd5b91908080601f01602080910402602001604051908101604052809392919081815260200183838082843760009201919091525092955050505035151590506114a1565b6040805163ffffffff9092168252519081900360200190f35b61029e600480360360608110156106c857600080fd5b6001600160a01b038235169190810190604081016020820135600160201b8111156106f257600080fd5b82018360208201111561070457600080fd5b803590602001918460018302840111600160201b8311171561072557600080fd5b91908080601f0160208091040260200160405190810160405280939291908181526020018383808284376000920191909152509295949360208101935035915050600160201b81111561077757600080fd5b82018360208201111561078957600080fd5b803590602001918460018302840111600160201b831117156107aa57600080fd5b91908080601f016020809104026020016040519081016040528093929190818152602001838380828437600092019190915250929550611666945050505050565b6108086004803603602081101561080157600080fd5b50356117db565b604080516001600160a01b039092168252519081900360200190f35b61029e6004803603604081101561083a57600080fd5b506001600160a01b038135169060200135611802565b6106996118b6565b61087b6004803603602081101561086e57600080fd5b503563ffffffff166118bd565b005b6106996118f7565b6106996004803603602081101561089b57600080fd5b503563ffffffff166118fd565b61087b600480360360208110156108be57600080fd5b503563ffffffff1661192c565b6108d3611d0a565b604080519115158252519081900360200190f35b61087b600480360360a08110156108fd57600080fd5b6001600160a01b038235169190810190604081016020820135600160201b81111561092757600080fd5b82018360208201111561093957600080fd5b803590602001918460018302840111600160201b8311171561095a57600080fd5b91908080601f0160208091040260200160405190810160405280939291908181526020018383808284376000920191909152509295949360208101935035915050600160201b8111156109ac57600080fd5b8201836020820111156109be57600080fd5b803590602001918460018302840111600160201b831117156109df57600080fd5b91908080601f0160208091040260200160405190810160405280939291908181526020018383808284376000920191909152509295949360208101935035915050600160201b811115610a3157600080fd5b820183602082011115610a4357600080fd5b803590602001918460018302840111600160201b83111715610a6457600080fd5b91908080601f0160208091040260200160405190810160405280939291908181526020018383808284376000920191909152509295505050503515159050611d0f565b61087b60048036036040811015610abd57600080fd5b5080356001600160a01b0316906020013563ffffffff166121c7565b610af660048036036020811015610aef57600080fd5b5035612234565b60405180856001600160a01b03166001600160a01b03168152602001846001600160a01b03166001600160a01b031681526020018060200183151515158152602001828103825284818151815260200191508051906020019080838360005b83811015610b6d578181015183820152602001610b55565b50505050905090810190601f168015610b9a5780820380516001836020036101000a031916815260200191505b509550505050505060405180910390f35b61087b60048036036060811015610bc157600080fd5b810190602081018135600160201b811115610bdb57600080fd5b820183602082011115610bed57600080fd5b803590602001918460018302840111600160201b83111715610c0e57600080fd5b919390929091602081019035600160201b811115610c2b57600080fd5b820183602082011115610c3d57600080fd5b803590602001918460018302840111600160201b83111715610c5e57600080fd5b91935091503563ffffffff16612308565b61069960048036036020811015610c8557600080fd5b503563ffffffff16612395565b610af660048036036020811015610ca857600080fd5b50356123aa565b6108d360048036036040811015610cc557600080fd5b6001600160a01b038235169190810190604081016020820135600160201b811115610cef57600080fd5b820183602082011115610d0157600080fd5b803590602001918460018302840111600160201b83111715610d2257600080fd5b91908080601f0160208091040260200160405190810160405280939291908181526020018383808284376000920191909152509295506123b7945050505050565b61069960048036036020811015610d7957600080fd5b810190602081018135600160201b811115610d9357600080fd5b820183602082011115610da557600080fd5b803590602001918460018302840111600160201b83111715610dc657600080fd5b5090925090506123e8565b61069960048036036020811015610de757600080fd5b50356001600160a01b0316612557565b610699612572565b61069960048036036020811015610e1557600080fd5b50356001600160a01b0316612578565b61033e60048036036040811015610e3b57600080fd5b5063ffffffff81358116916020013516612590565b61087b60048036036040811015610e6657600080fd5b5080356001600160a01b0316906020013563ffffffff166125e5565b6108d3612635565b61087b60048036036080811015610ea057600080fd5b6001600160a01b038235169190810190604081016020820135600160201b811115610eca57600080fd5b820183602082011115610edc57600080fd5b803590602001918460018302840111600160201b83111715610efd57600080fd5b91908080601f0160208091040260200160405190810160405280939291908181526020018383808284376000920191909152509295949360208101935035915050600160201b811115610f4f57600080fd5b820183602082011115610f6157600080fd5b803590602001918460018302840111600160201b83111715610f8257600080fd5b91908080601f0160208091040260200160405190810160405280939291908181526020018383808284376000920191909152509295505050903563ffffffff16915061263e9050565b6108d360048036036020811015610fe157600080fd5b50356001600160a01b0316612780565b61087b6004803603606081101561100757600080fd5b810190602081018135600160201b81111561102157600080fd5b82018360208201111561103357600080fd5b803590602001918460018302840111600160201b8311171561105457600080fd5b91908080601f0160208091040260200160405190810160405280939291908181526020018383808284376000920191909152509295949360208101935035915050600160201b8111156110a657600080fd5b8201836020820111156110b857600080fd5b803590602001918460018302840111600160201b831117156110d957600080fd5b91908080601f0160208091040260200160405190810160405280939291908181526020018383808284376000920191909152509295505050903563ffffffff1691506127959050565b606060026000846001600160a01b03166001600160a01b03168152602001908152602001600020826040518082805190602001908083835b602083106111795780518252601f19909201916020918201910161115a565b518151600019602094850361010090810a8201928316921993909316919091179092529490920196875260408051978890038201882060029081018054601f6001821615909802909501909416049485018290048202880182019052838752909450919250508301828280156112305780601f1061120557610100808354040283529160200191611230565b820191906000526020600020905b81548152906001019060200180831161121357829003601f168201915b5050505050905092915050565b60608060098463ffffffff168154811061125357fe5b90600052602060002090600802016003018363ffffffff168154811061127557fe5b9060005260206000200160098563ffffffff168154811061129257fe5b90600052602060002090600802016006018463ffffffff16815481106112b457fe5b600091825260209182902083546040805160026001841615610100026000190190931692909204601f81018690048602830186019091528082529290910192909184918301828280156113485780601f1061131d57610100808354040283529160200191611348565b820191906000526020600020905b81548152906001019060200180831161132b57829003601f168201915b5050845460408051602060026001851615610100026000190190941693909304601f8101849004840282018401909252818152959750869450925084019050828280156113d65780601f106113ab576101008083540402835291602001916113d6565b820191906000526020600020905b8154815290600101906020018083116113b957829003601f168201915b50505050509050915091509250929050565b600260208181526000938452604093849020835180850183018051928152908301948301949094209352828201805485516001821615610100026000190190911693909304601f81018390048302840183019095528483529293919291908301828280156114975780601f1061146c57610100808354040283529160200191611497565b820191906000526020600020905b81548152906001019060200180831161147a57829003601f168201915b5050505050905081565b600080879050806001600160a01b0316638c16215288888888886040518663ffffffff1660e01b815260040180866001600160a01b03166001600160a01b0316815260200180602001806020018060200185151515158152602001848103845288818151815260200191508051906020019080838360005b83811015611531578181015183820152602001611519565b50505050905090810190601f16801561155e5780820380516001836020036101000a031916815260200191505b50848103835287518152875160209182019189019080838360005b83811015611591578181015183820152602001611579565b50505050905090810190601f1680156115be5780820380516001836020036101000a031916815260200191505b50848103825286518152865160209182019188019080838360005b838110156115f15781810151838201526020016115d9565b50505050905090810190601f16801561161e5780820380516001836020036101000a031916815260200191505b5098505050505050505050600060405180830381600087803b15801561164357600080fd5b505af1158015611657573d6000803e3d6000fd5b50505050509695505050505050565b606060026000856001600160a01b03166001600160a01b03168152602001908152602001600020836040518082805190602001908083835b602083106116bd5780518252601f19909201916020918201910161169e565b51815160209384036101000a6000190180199092169116179052920194855250604051938490038101842086519094879450925082918401908083835b602083106117195780518252601f1990920191602091820191016116fa565b518151600019602094850361010090810a820192831692199390931691909117909252949092019687526040805197889003820188208054601f60026001831615909802909501169590950492830182900482028801820190528187529294509250508301828280156117cd5780601f106117a2576101008083540402835291602001916117cd565b820191906000526020600020905b8154815290600101906020018083116117b057829003601f168201915b505050505090509392505050565b600381815481106117e857fe5b6000918252602090912001546001600160a01b0316905081565b6005602052816000526040600020818154811061181b57fe5b600091825260209182902001805460408051601f600260001961010060018716150201909416939093049283018590048502810185019091528181529450909250908301828280156118ae5780601f10611883576101008083540402835291602001916118ae565b820191906000526020600020905b81548152906001019060200180831161189157829003601f168201915b505050505081565b6003545b90565b63ffffffff8116600090815260086020526040902054819060ff16806118e5575060005460ff165b156118f3576118f382612af4565b5050565b60075490565b600060078263ffffffff168154811061191257fe5b600091825260209091206003600890920201015492915050565b60098163ffffffff168154811061193f57fe5b600091825260209091206007600890920201015460ff161561196057600080fd5b600060098263ffffffff168154811061197557fe5b60009182526020822060016008909202010154600980546001600160a01b039092169350839163c09bc35b919063ffffffff87169081106119b257fe5b60009182526020918290206040516001600160e01b031960e086901b1681526004810193845260026008909302909101820180546000196101006001831615020116929092046024820181905291929182916044019084908015611a575780601f10611a2c57610100808354040283529160200191611a57565b820191906000526020600020905b815481529060010190602001808311611a3a57829003601f168201915b505092505050602060405180830381600087803b158015611a7757600080fd5b505af1158015611a8b573d6000803e3d6000fd5b505050506040513d6020811015611aa157600080fd5b5051905060005b60098463ffffffff1681548110611abb57fe5b9060005260206000209060080201600301805490508163ffffffff161015611ccd57826001600160a01b031663928ec3e560098663ffffffff1681548110611aff57fe5b90600052602060002090600802016003018363ffffffff1681548110611b2157fe5b9060005260206000200160098763ffffffff1681548110611b3e57fe5b90600052602060002090600802016006018463ffffffff1681548110611b6057fe5b600091825260209091206040516001600160e01b031960e086901b16815263ffffffff8816604482015260606004820190815284546002600019610100600184161502019091160460648301819052929093019288929091829160248201916084019087908015611c125780601f10611be757610100808354040283529160200191611c12565b820191906000526020600020905b815481529060010190602001808311611bf557829003601f168201915b5050838103825285546002600019610100600184161502019091160480825260209091019086908015611c865780601f10611c5b57610100808354040283529160200191611c86565b820191906000526020600020905b815481529060010190602001808311611c6957829003601f168201915b505095505050505050600060405180830381600087803b158015611ca957600080fd5b505af1158015611cbd573d6000803e3d6000fd5b505060019092019150611aa89050565b50600160098463ffffffff1681548110611ce357fe5b60009182526020909120600890910201600701805460ff1916911515919091179055505050565b600181565b600180546001600160a01b0319166001600160a01b0387161790558351600090611d40906002906020880190613605565b5060078101805460ff191690556009546001600160a01b0387166000908152600160205260409020805463ffffffff191660001990920163ffffffff16919091179055611d8b613683565b611d948561338d565b9050611d9e613683565b611da78561338d565b9050611db1613683565b611dd3604051806040016040528060018152602001600b60fa1b81525061338d565b90506000611de7848363ffffffff6133b216565b600101905060005b8163ffffffff168163ffffffff16101561208d576060611e1d611e18878663ffffffff61341f16565b613432565b90506060611e34611e18878763ffffffff61341f16565b905087600401826040518082805190602001908083835b60208310611e6a5780518252601f199092019160209182019101611e4b565b51815160209384036101000a600019018019909216911617905292019485525060405193849003019092205460ff169150611fe990505760038801805460018101825560009182526020918290208451611ecc93919092019190850190613605565b50600188600401836040518082805190602001908083835b60208310611f035780518252601f199092019160209182019101611ee4565b51815160209384036101000a60001901801990921691161790529201948552506040519384900381018420805460ff19169515159590951790945550508351859260058c0192869290918291908401908083835b60208310611f765780518252601f199092019160209182019101611f57565b51815160209384036101000a6000190180199092169116179052920194855250604051938490038101909320805463ffffffff191663ffffffff95909516949094179093555060068a0180546001810182556000918252908290208451611fe39450910191840190613605565b50612083565b808860060189600501846040518082805190602001908083835b602083106120225780518252601f199092019160209182019101612003565b51815160209384036101000a6000190180199092169116179052920194855250604051938490030190922054835463ffffffff90911692508210905061206457fe5b906000526020600020019080519060200190612081929190613605565b505b5050600101611def565b506009805460018181018355600092909252865460089091027f6e1540171b6c0c960b71a7020d9f60077f6af931a8bbf590da0223dacf75c7af810180546001600160a01b03199081166001600160a01b03948516178255848a01547f6e1540171b6c0c960b71a7020d9f60077f6af931a8bbf590da0223dacf75c7b084018054909216941693909317909255600280890180548a9561215f947f6e1540171b6c0c960b71a7020d9f60077f6af931a8bbf590da0223dacf75c7b101939082161561010002600019019091160461369d565b50600382810180546121749284019190613712565b50600682810180546121899284019190613712565b506007918201549101805460ff191660ff909216151591909117905585156121bb576009546121bb906000190161192c565b50505050505050505050565b60408051634f2bcbef60e01b815263ffffffff83166004820152905183916001600160a01b03831691634f2bcbef9160248082019260009290919082900301818387803b15801561221757600080fd5b505af115801561222b573d6000803e3d6000fd5b50505050505050565b6007818154811061224157fe5b600091825260209182902060089091020180546001808301546002808501805460408051601f600019978416156101000297909701909216939093049485018890048802810188019092528382526001600160a01b03948516975091909316949091908301828280156122f55780601f106122ca576101008083540402835291602001916122f5565b820191906000526020600020905b8154815290600101906020018083116122d857829003601f168201915b5050506007909301549192505060ff1684565b60078163ffffffff168154811061231b57fe5b600091825260208083206006600890930201919091018054600181018255908352912061234a9101848461377c565b5060078163ffffffff168154811061235e57fe5b600091825260208083206003600890930201919091018054600181018255908352912061238d9101868661377c565b505050505050565b600060098263ffffffff168154811061191257fe5b6009818154811061224157fe5b6006602090815260009283526040909220815180830184018051928152908401929093019190912091525460ff1681565b60006123f26137ea565b338152604080516020601f860181900481028201810190925284815290859085908190840183828082843760009201829052506040860194855260a0860181905260078054600181018255915285517fa66cc928b5edb82af9bd49922954155ab7b0942694bea4ce44661d9a8736c688600890920291820180546001600160a01b03199081166001600160a01b039384161782556020808a01517fa66cc928b5edb82af9bd49922954155ab7b0942694bea4ce44661d9a8736c68986018054909316941693909317905595518051889796506124f695507fa66cc928b5edb82af9bd49922954155ab7b0942694bea4ce44661d9a8736c68a90930193500190613605565b5060608201518051612512916003840191602090910190613834565b506080820151805161252e916006840191602090910190613834565b5060a091909101516007918201805460ff19169115159190911790555460001901949350505050565b6001600160a01b031660009081526005602052604090205490565b60095490565b60016020526000908152604090205463ffffffff1681565b60608060078463ffffffff16815481106125a657fe5b90600052602060002090600802016003018363ffffffff16815481106125c857fe5b9060005260206000200160078563ffffffff168154811061129257fe5b6040805163838ebd8560e01b815263ffffffff83166004820152905183916001600160a01b0383169163838ebd859160248082019260009290919082900301818387803b15801561221757600080fd5b60005460ff1681565b604051637e15477d60e11b815263ffffffff8216604482015260606004820190815284516064830152845186926001600160a01b0384169263fc2a8efa9288928892889290918291602482019160840190602088019080838360005b838110156126b257818101518382015260200161269a565b50505050905090810190601f1680156126df5780820380516001836020036101000a031916815260200191505b50838103825285518152855160209182019187019080838360005b838110156127125781810151838201526020016126fa565b50505050905090810190601f16801561273f5780820380516001836020036101000a031916815260200191505b5095505050505050600060405180830381600087803b15801561276157600080fd5b505af1158015612775573d6000803e3d6000fd5b505050505050505050565b60046020526000908152604090205460ff1681565b60098163ffffffff16815481106127a857fe5b9060005260206000209060080201600401836040518082805190602001908083835b602083106127e95780518252601f1990920191602091820191016127ca565b51815160209384036101000a600019018019909216911617905292019485525060405193849003019092205460ff169150612a0b90505760098163ffffffff168154811061283357fe5b90600052602060002090600802016003018054905060098263ffffffff168154811061285b57fe5b9060005260206000209060080201600501846040518082805190602001908083835b6020831061289c5780518252601f19909201916020918201910161287d565b51815160209384036101000a60001901801990921691161790529201948552506040519384900301909220805463ffffffff191663ffffffff94851617905550506009805460019284169081106128ef57fe5b9060005260206000209060080201600401846040518082805190602001908083835b602083106129305780518252601f199092019160209182019101612911565b51815160209384036101000a60001901801990921691161790529201948552506040519384900301909220805460ff19169315159390931790925550506009805463ffffffff831690811061298157fe5b6000918252602080832060036008909302019190910180546001810182559083529181902085516129b9939190910191860190613605565b5060098163ffffffff16815481106129cd57fe5b600091825260208083206006600890930201919091018054600181018255908352918190208451612a05939190910191850190613605565b50612aef565b600060098263ffffffff1681548110612a2057fe5b9060005260206000209060080201600501846040518082805190602001908083835b60208310612a615780518252601f199092019160209182019101612a42565b51815160209384036101000a60001901801990921691161790529201948552506040519384900301909220546009805463ffffffff9283169550879450909250908516908110612aad57fe5b90600052602060002090600802016006018263ffffffff1681548110612acf57fe5b906000526020600020019080519060200190612aec929190613605565b50505b505050565b60078163ffffffff1681548110612b0757fe5b600091825260209091206007600890920201015460ff1615612b2857600080fd5b60006002600060078463ffffffff1681548110612b4157fe5b600091825260208083206008909202909101546001600160a01b0316835282019290925260400190206007805463ffffffff8516908110612b7e57fe5b90600052602060002090600802016002016040518082805460018160011615610100020316600290048015612bea5780601f10612bc8576101008083540402835291820191612bea565b820191906000526020600020905b815481529060010190602001808311612bd6575b50509283525050604051908190036020019020905060005b60078363ffffffff1681548110612c1557fe5b9060005260206000209060080201600301805490508163ffffffff1610156130005760078363ffffffff1681548110612c4a57fe5b90600052602060002090600802016006018163ffffffff1681548110612c6c57fe5b906000526020600020018260000160078563ffffffff1681548110612c8d57fe5b90600052602060002090600802016003018363ffffffff1681548110612caf57fe5b906000526020600020016040518082805460018160011615610100020316600290048015612d145780601f10612cf2576101008083540402835291820191612d14565b820191906000526020600020905b815481529060010190602001808311612d00575b505092835250506040519081900360200190208154612d4692906002600019610100600184161502019091160461369d565b508160010160078463ffffffff1681548110612d5e57fe5b90600052602060002090600802016003018263ffffffff1681548110612d8057fe5b906000526020600020016040518082805460018160011615610100020316600290048015612de55780601f10612dc3576101008083540402835291820191612de5565b820191906000526020600020905b815481529060010190602001808311612dd1575b505092835250506040519081900360200190205460ff16612ff8578160020160078463ffffffff1681548110612e1757fe5b90600052602060002090600802016003018263ffffffff1681548110612e3957fe5b906000526020600020016040516020018083805460018160011615610100020316600290048015612ea15780601f10612e7f576101008083540402835291820191612ea1565b820191906000526020600020905b815481529060010190602001808311612e8d575b50508061016160f51b81525060020182805460018160011615610100020316600290048015612f075780601f10612ee5576101008083540402835291820191612f07565b820191906000526020600020905b815481529060010190602001808311612ef3575b505060408051601f198184030181529190528051612f32945060028701935060209091019150613605565b5060018260010160078563ffffffff1681548110612f4c57fe5b90600052602060002090600802016003018363ffffffff1681548110612f6e57fe5b906000526020600020016040518082805460018160011615610100020316600290048015612fd35780601f10612fb1576101008083540402835291820191612fd3565b820191906000526020600020905b815481529060010190602001808311612fbf575b50509283525050604051908190036020019020805491151560ff199092169190911790555b600101612c02565b506004600060078463ffffffff168154811061301857fe5b600091825260208083206008909202909101546001600160a01b0316835282019290925260400190205460ff166130f357600360078363ffffffff168154811061305e57fe5b6000918252602080832060089092029091015483546001818101865594845291832090910180546001600160a01b0319166001600160a01b0390921691909117905560078054600492919063ffffffff87169081106130b957fe5b60009182526020808320600892909202909101546001600160a01b031683528201929092526040019020805460ff19169115159190911790555b6006600060078463ffffffff168154811061310a57fe5b600091825260208083206008909202909101546001600160a01b0316835282019290925260400190206007805463ffffffff851690811061314757fe5b906000526020600020906008020160020160405180828054600181600116156101000203166002900480156131b35780601f106131915761010080835404028352918201916131b3565b820191906000526020600020905b81548152906001019060200180831161319f575b505092835250506040519081900360200190205460ff16613352576005600060078463ffffffff16815481106131e557fe5b600091825260208083206008909202909101546001600160a01b0316835282019290925260400190206007805463ffffffff851690811061322257fe5b60009182526020808320845460018082018755958552919093206008929092029092016002908101805461326a9593909401939092600019908216156101000201160461369d565b5060016006600060078563ffffffff168154811061328457fe5b600091825260208083206008909202909101546001600160a01b0316835282019290925260400190206007805463ffffffff86169081106132c157fe5b9060005260206000209060080201600201604051808280546001816001161561010002031660029004801561332d5780601f1061330b57610100808354040283529182019161332d565b820191906000526020600020905b815481529060010190602001808311613319575b50509283525050604051908190036020019020805491151560ff199092169190911790555b600160078363ffffffff168154811061336757fe5b60009182526020909120600890910201600701805460ff19169115159190911790555050565b613395613683565b506040805180820190915281518152602082810190820152919050565b60008082600001516133d68560000151866020015186600001518760200151613499565b0190505b83516020850151018111613418578251602080860151865191860151600190950194613410929185039091039084908490613499565b0190506133da565b5092915050565b613427613683565b613418838383613556565b606080826000015167ffffffffffffffff8111801561345057600080fd5b506040519080825280601f01601f19166020018201604052801561347b576020820181803683370190505b509050600060208201905061341881856020015186600001516135c7565b60008381868511613547576020851161350c5783518251600019600860208990030260020a011991821690888a018890039083165b8281146134fe578186106134ec578a8a01965050505050505061354e565b506001909401805190949083166134ce565b85965050505050505061354e565b508383206000905b85880382116135455785832081811415613534578394505050505061354e565b506001928301929190910190613514565b505b5050508284015b949350505050565b61355e613683565b600061357c8560000151866020015186600001518760200151613499565b602080870180519186019190915280518203855286519051919250018114156135a857600085526135be565b8351835186519101900385528351810160208601525b50909392505050565b5b602081106135e7578151835260209283019290910190601f19016135c8565b905182516020929092036101000a6000190180199091169116179052565b828054600181600116156101000203166002900490600052602060002090601f016020900481019282601f1061364657805160ff1916838001178555613673565b82800160010185558215613673579182015b82811115613673578251825591602001919060010190613658565b5061367f929150613881565b5090565b604051806040016040528060008152602001600081525090565b828054600181600116156101000203166002900490600052602060002090601f016020900481019282601f106136d65780548555613673565b8280016001018555821561367357600052602060002091601f016020900482015b828111156136735782548255916001019190600101906136f7565b8280548282559060005260206000209081019282156137705760005260206000209182015b82811115613770578282908054600181600116156101000203166002900461376092919061369d565b5091600101919060010190613737565b5061367f92915061389b565b828054600181600116156101000203166002900490600052602060002090601f016020900481019282601f106137bd5782800160ff19823516178555613673565b82800160010185558215613673579182015b828111156136735782358255916020019190600101906137cf565b6040518060c0016040528060006001600160a01b0316815260200160006001600160a01b031681526020016060815260200160608152602001606081526020016000151581525090565b828054828255906000526020600020908101928215613770579160200282015b828111156137705782518051613871918491602090910190613605565b5091602001919060010190613854565b6118ba91905b8082111561367f5760008155600101613887565b6118ba91905b8082111561367f5760006138b582826138be565b506001016138a1565b50805460018160011615610100020316600290046000825580601f106138e45750613902565b601f0160209004906000526020600020908101906139029190613881565b5056fea2646970667358221220ee8eb0d89a92941262b2894995418eaf5ba6e869838f167afa2fa013866ffa7164736f6c63430006060033","opcodes":"PUSH1 0x80 PUSH1 0x40 MSTORE CALLVALUE DUP1 ISZERO PUSH2 0x10 JUMPI PUSH1 0x0 DUP1 REVERT JUMPDEST POP PUSH2 0x393B DUP1 PUSH2 0x20 PUSH1 0x0 CODECOPY PUSH1 0x0 RETURN INVALID PUSH1 0x80 PUSH1 0x40 MSTORE CALLVALUE DUP1 ISZERO PUSH2 0x10 JUMPI PUSH1 0x0 DUP1 REVERT JUMPDEST POP PUSH1 0x4 CALLDATASIZE LT PUSH2 0x1E5 JUMPI PUSH1 0x0 CALLDATALOAD PUSH1 0xE0 SHR DUP1 PUSH4 0x8E636514 GT PUSH2 0x10F JUMPI DUP1 PUSH4 0xD027A93E GT PUSH2 0xA2 JUMPI DUP1 PUSH4 0xE9DFF3B4 GT PUSH2 0x71 JUMPI DUP1 PUSH4 0xE9DFF3B4 EQ PUSH2 0xE82 JUMPI DUP1 PUSH4 0xF10F731C EQ PUSH2 0xE8A JUMPI DUP1 PUSH4 0xF396B51F EQ PUSH2 0xFCB JUMPI DUP1 PUSH4 0xFC2A8EFA EQ PUSH2 0xFF1 JUMPI PUSH2 0x1E5 JUMP JUMPDEST DUP1 PUSH4 0xD027A93E EQ PUSH2 0xDF7 JUMPI DUP1 PUSH4 0xDB406597 EQ PUSH2 0xDFF JUMPI DUP1 PUSH4 0xE24E7912 EQ PUSH2 0xE25 JUMPI DUP1 PUSH4 0xE29E9290 EQ PUSH2 0xE50 JUMPI PUSH2 0x1E5 JUMP JUMPDEST DUP1 PUSH4 0xA63DE8CF GT PUSH2 0xDE JUMPI DUP1 PUSH4 0xA63DE8CF EQ PUSH2 0xC92 JUMPI DUP1 PUSH4 0xA7ED5603 EQ PUSH2 0xCAF JUMPI DUP1 PUSH4 0xC09BC35B EQ PUSH2 0xD63 JUMPI DUP1 PUSH4 0xCF6AE528 EQ PUSH2 0xDD1 JUMPI PUSH2 0x1E5 JUMP JUMPDEST DUP1 PUSH4 0x8E636514 EQ PUSH2 0xAA7 JUMPI DUP1 PUSH4 0x9169B323 EQ PUSH2 0xAD9 JUMPI DUP1 PUSH4 0x928EC3E5 EQ PUSH2 0xBAB JUMPI DUP1 PUSH4 0xA1A298DA EQ PUSH2 0xC6F JUMPI PUSH2 0x1E5 JUMP JUMPDEST DUP1 PUSH4 0x4D981CF7 GT PUSH2 0x187 JUMPI DUP1 PUSH4 0x838EBD85 GT PUSH2 0x156 JUMPI DUP1 PUSH4 0x838EBD85 EQ PUSH2 0x8A8 JUMPI DUP1 PUSH4 0x84AEB694 EQ PUSH2 0x8CB JUMPI DUP1 PUSH4 0x8C162152 EQ PUSH2 0x8E7 JUMPI DUP1 PUSH4 0x8CBA76B1 EQ PUSH2 0x6B2 JUMPI PUSH2 0x1E5 JUMP JUMPDEST DUP1 PUSH4 0x4D981CF7 EQ PUSH2 0x850 JUMPI DUP1 PUSH4 0x4F2BCBEF EQ PUSH2 0x858 JUMPI DUP1 PUSH4 0x4F51433D EQ PUSH2 0x87D JUMPI DUP1 PUSH4 0x834FDE34 EQ PUSH2 0x885 JUMPI PUSH2 0x1E5 JUMP JUMPDEST DUP1 PUSH4 0x2A4541D4 GT PUSH2 0x1C3 JUMPI DUP1 PUSH4 0x2A4541D4 EQ PUSH2 0x4D0 JUMPI DUP1 PUSH4 0x30699892 EQ PUSH2 0x6B2 JUMPI DUP1 PUSH4 0x3296E5CA EQ PUSH2 0x7EB JUMPI DUP1 PUSH4 0x359589AC EQ PUSH2 0x824 JUMPI PUSH2 0x1E5 JUMP JUMPDEST DUP1 PUSH4 0x8AC733A EQ PUSH2 0x1EA JUMPI DUP1 PUSH4 0xF121925 EQ PUSH2 0x313 JUMPI DUP1 PUSH4 0x17361084 EQ PUSH2 0x41C JUMPI JUMPDEST PUSH1 0x0 DUP1 REVERT JUMPDEST PUSH2 0x29E PUSH1 0x4 DUP1 CALLDATASIZE SUB PUSH1 0x40 DUP2 LT ISZERO PUSH2 0x200 JUMPI PUSH1 0x0 DUP1 REVERT JUMPDEST PUSH1 0x1 PUSH1 0x1 PUSH1 0xA0 SHL SUB DUP3 CALLDATALOAD AND SWAP2 SWAP1 DUP2 ADD SWAP1 PUSH1 0x40 DUP2 ADD PUSH1 0x20 DUP3 ADD CALLDATALOAD PUSH1 0x1 PUSH1 0x20 SHL DUP2 GT ISZERO PUSH2 0x22A JUMPI PUSH1 0x0 DUP1 REVERT JUMPDEST DUP3 ADD DUP4 PUSH1 0x20 DUP3 ADD GT ISZERO PUSH2 0x23C JUMPI PUSH1 0x0 DUP1 REVERT JUMPDEST DUP1 CALLDATALOAD SWAP1 PUSH1 0x20 ADD SWAP2 DUP5 PUSH1 0x1 DUP4 MUL DUP5 ADD GT PUSH1 0x1 PUSH1 0x20 SHL DUP4 GT OR ISZERO PUSH2 0x25D JUMPI PUSH1 0x0 DUP1 REVERT JUMPDEST SWAP2 SWAP1 DUP1 DUP1 PUSH1 0x1F ADD PUSH1 0x20 DUP1 SWAP2 DIV MUL PUSH1 0x20 ADD PUSH1 0x40 MLOAD SWAP1 DUP2 ADD PUSH1 0x40 MSTORE DUP1 SWAP4 SWAP3 SWAP2 SWAP1 DUP2 DUP2 MSTORE PUSH1 0x20 ADD DUP4 DUP4 DUP1 DUP3 DUP5 CALLDATACOPY PUSH1 0x0 SWAP3 ADD SWAP2 SWAP1 SWAP2 MSTORE POP SWAP3 SWAP6 POP PUSH2 0x1122 SWAP5 POP POP POP POP POP JUMP JUMPDEST PUSH1 0x40 DUP1 MLOAD PUSH1 0x20 DUP1 DUP3 MSTORE DUP4 MLOAD DUP2 DUP4 ADD MSTORE DUP4 MLOAD SWAP2 SWAP3 DUP4 SWAP3 SWAP1 DUP4 ADD SWAP2 DUP6 ADD SWAP1 DUP1 DUP4 DUP4 PUSH1 0x0 JUMPDEST DUP4 DUP2 LT ISZERO PUSH2 0x2D8 JUMPI DUP2 DUP2 ADD MLOAD DUP4 DUP3 ADD MSTORE PUSH1 0x20 ADD PUSH2 0x2C0 JUMP JUMPDEST POP POP POP POP SWAP1 POP SWAP1 DUP2 ADD SWAP1 PUSH1 0x1F AND DUP1 ISZERO PUSH2 0x305 JUMPI DUP1 DUP3 SUB DUP1 MLOAD PUSH1 0x1 DUP4 PUSH1 0x20 SUB PUSH2 0x100 EXP SUB NOT AND DUP2 MSTORE PUSH1 0x20 ADD SWAP2 POP JUMPDEST POP SWAP3 POP POP POP PUSH1 0x40 MLOAD DUP1 SWAP2 SUB SWAP1 RETURN JUMPDEST PUSH2 0x33E PUSH1 0x4 DUP1 CALLDATASIZE SUB PUSH1 0x40 DUP2 LT ISZERO PUSH2 0x329 JUMPI PUSH1 0x0 DUP1 REVERT JUMPDEST POP PUSH4 0xFFFFFFFF DUP2 CALLDATALOAD DUP2 AND SWAP2 PUSH1 0x20 ADD CALLDATALOAD AND PUSH2 0x123D JUMP JUMPDEST PUSH1 0x40 MLOAD DUP1 DUP1 PUSH1 0x20 ADD DUP1 PUSH1 0x20 ADD DUP4 DUP2 SUB DUP4 MSTORE DUP6 DUP2 DUP2 MLOAD DUP2 MSTORE PUSH1 0x20 ADD SWAP2 POP DUP1 MLOAD SWAP1 PUSH1 0x20 ADD SWAP1 DUP1 DUP4 DUP4 PUSH1 0x0 JUMPDEST DUP4 DUP2 LT ISZERO PUSH2 0x37F JUMPI DUP2 DUP2 ADD MLOAD DUP4 DUP3 ADD MSTORE PUSH1 0x20 ADD PUSH2 0x367 JUMP JUMPDEST POP POP POP POP SWAP1 POP SWAP1 DUP2 ADD SWAP1 PUSH1 0x1F AND DUP1 ISZERO PUSH2 0x3AC JUMPI DUP1 DUP3 SUB DUP1 MLOAD PUSH1 0x1 DUP4 PUSH1 0x20 SUB PUSH2 0x100 EXP SUB NOT AND DUP2 MSTORE PUSH1 0x20 ADD SWAP2 POP JUMPDEST POP DUP4 DUP2 SUB DUP3 MSTORE DUP5 MLOAD DUP2 MSTORE DUP5 MLOAD PUSH1 0x20 SWAP2 DUP3 ADD SWAP2 DUP7 ADD SWAP1 DUP1 DUP4 DUP4 PUSH1 0x0 JUMPDEST DUP4 DUP2 LT ISZERO PUSH2 0x3DF JUMPI DUP2 DUP2 ADD MLOAD DUP4 DUP3 ADD MSTORE PUSH1 0x20 ADD PUSH2 0x3C7 JUMP JUMPDEST POP POP POP POP SWAP1 POP SWAP1 DUP2 ADD SWAP1 PUSH1 0x1F AND DUP1 ISZERO PUSH2 0x40C JUMPI DUP1 DUP3 SUB DUP1 MLOAD PUSH1 0x1 DUP4 PUSH1 0x20 SUB PUSH2 0x100 EXP SUB NOT AND DUP2 MSTORE PUSH1 0x20 ADD SWAP2 POP JUMPDEST POP SWAP5 POP POP POP POP POP PUSH1 0x40 MLOAD DUP1 SWAP2 SUB SWAP1 RETURN JUMPDEST PUSH2 0x29E PUSH1 0x4 DUP1 CALLDATASIZE SUB PUSH1 0x40 DUP2 LT ISZERO PUSH2 0x432 JUMPI PUSH1 0x0 DUP1 REVERT JUMPDEST PUSH1 0x1 PUSH1 0x1 PUSH1 0xA0 SHL SUB DUP3 CALLDATALOAD AND SWAP2 SWAP1 DUP2 ADD SWAP1 PUSH1 0x40 DUP2 ADD PUSH1 0x20 DUP3 ADD CALLDATALOAD PUSH1 0x1 PUSH1 0x20 SHL DUP2 GT ISZERO PUSH2 0x45C JUMPI PUSH1 0x0 DUP1 REVERT JUMPDEST DUP3 ADD DUP4 PUSH1 0x20 DUP3 ADD GT ISZERO PUSH2 0x46E JUMPI PUSH1 0x0 DUP1 REVERT JUMPDEST DUP1 CALLDATALOAD SWAP1 PUSH1 0x20 ADD SWAP2 DUP5 PUSH1 0x1 DUP4 MUL DUP5 ADD GT PUSH1 0x1 PUSH1 0x20 SHL DUP4 GT OR ISZERO PUSH2 0x48F JUMPI PUSH1 0x0 DUP1 REVERT JUMPDEST SWAP2 SWAP1 DUP1 DUP1 PUSH1 0x1F ADD PUSH1 0x20 DUP1 SWAP2 DIV MUL PUSH1 0x20 ADD PUSH1 0x40 MLOAD SWAP1 DUP2 ADD PUSH1 0x40 MSTORE DUP1 SWAP4 SWAP3 SWAP2 SWAP1 DUP2 DUP2 MSTORE PUSH1 0x20 ADD DUP4 DUP4 DUP1 DUP3 DUP5 CALLDATACOPY PUSH1 0x0 SWAP3 ADD SWAP2 SWAP1 SWAP2 MSTORE POP SWAP3 SWAP6 POP PUSH2 0x13E8 SWAP5 POP POP POP POP POP JUMP JUMPDEST PUSH2 0x699 PUSH1 0x4 DUP1 CALLDATASIZE SUB PUSH1 0xC0 DUP2 LT ISZERO PUSH2 0x4E6 JUMPI PUSH1 0x0 DUP1 REVERT JUMPDEST PUSH1 0x1 PUSH1 0x1 PUSH1 0xA0 SHL SUB DUP3 CALLDATALOAD DUP2 AND SWAP3 PUSH1 0x20 DUP2 ADD CALLDATALOAD SWAP1 SWAP2 AND SWAP2 DUP2 ADD SWAP1 PUSH1 0x60 DUP2 ADD PUSH1 0x40 DUP3 ADD CALLDATALOAD PUSH1 0x1 PUSH1 0x20 SHL DUP2 GT ISZERO PUSH2 0x519 JUMPI PUSH1 0x0 DUP1 REVERT JUMPDEST DUP3 ADD DUP4 PUSH1 0x20 DUP3 ADD GT ISZERO PUSH2 0x52B JUMPI PUSH1 0x0 DUP1 REVERT JUMPDEST DUP1 CALLDATALOAD SWAP1 PUSH1 0x20 ADD SWAP2 DUP5 PUSH1 0x1 DUP4 MUL DUP5 ADD GT PUSH1 0x1 PUSH1 0x20 SHL DUP4 GT OR ISZERO PUSH2 0x54C JUMPI PUSH1 0x0 DUP1 REVERT JUMPDEST SWAP2 SWAP1 DUP1 DUP1 PUSH1 0x1F ADD PUSH1 0x20 DUP1 SWAP2 DIV MUL PUSH1 0x20 ADD PUSH1 0x40 MLOAD SWAP1 DUP2 ADD PUSH1 0x40 MSTORE DUP1 SWAP4 SWAP3 SWAP2 SWAP1 DUP2 DUP2 MSTORE PUSH1 0x20 ADD DUP4 DUP4 DUP1 DUP3 DUP5 CALLDATACOPY PUSH1 0x0 SWAP3 ADD SWAP2 SWAP1 SWAP2 MSTORE POP SWAP3 SWAP6 SWAP5 SWAP4 PUSH1 0x20 DUP2 ADD SWAP4 POP CALLDATALOAD SWAP2 POP POP PUSH1 0x1 PUSH1 0x20 SHL DUP2 GT ISZERO PUSH2 0x59E JUMPI PUSH1 0x0 DUP1 REVERT JUMPDEST DUP3 ADD DUP4 PUSH1 0x20 DUP3 ADD GT ISZERO PUSH2 0x5B0 JUMPI PUSH1 0x0 DUP1 REVERT JUMPDEST DUP1 CALLDATALOAD SWAP1 PUSH1 0x20 ADD SWAP2 DUP5 PUSH1 0x1 DUP4 MUL DUP5 ADD GT PUSH1 0x1 PUSH1 0x20 SHL DUP4 GT OR ISZERO PUSH2 0x5D1 JUMPI PUSH1 0x0 DUP1 REVERT JUMPDEST SWAP2 SWAP1 DUP1 DUP1 PUSH1 0x1F ADD PUSH1 0x20 DUP1 SWAP2 DIV MUL PUSH1 0x20 ADD PUSH1 0x40 MLOAD SWAP1 DUP2 ADD PUSH1 0x40 MSTORE DUP1 SWAP4 SWAP3 SWAP2 SWAP1 DUP2 DUP2 MSTORE PUSH1 0x20 ADD DUP4 DUP4 DUP1 DUP3 DUP5 CALLDATACOPY PUSH1 0x0 SWAP3 ADD SWAP2 SWAP1 SWAP2 MSTORE POP SWAP3 SWAP6 SWAP5 SWAP4 PUSH1 0x20 DUP2 ADD SWAP4 POP CALLDATALOAD SWAP2 POP POP PUSH1 0x1 PUSH1 0x20 SHL DUP2 GT ISZERO PUSH2 0x623 JUMPI PUSH1 0x0 DUP1 REVERT JUMPDEST DUP3 ADD DUP4 PUSH1 0x20 DUP3 ADD GT ISZERO PUSH2 0x635 JUMPI PUSH1 0x0 DUP1 REVERT JUMPDEST DUP1 CALLDATALOAD SWAP1 PUSH1 0x20 ADD SWAP2 DUP5 PUSH1 0x1 DUP4 MUL DUP5 ADD GT PUSH1 0x1 PUSH1 0x20 SHL DUP4 GT OR ISZERO PUSH2 0x656 JUMPI PUSH1 0x0 DUP1 REVERT JUMPDEST SWAP2 SWAP1 DUP1 DUP1 PUSH1 0x1F ADD PUSH1 0x20 DUP1 SWAP2 DIV MUL PUSH1 0x20 ADD PUSH1 0x40 MLOAD SWAP1 DUP2 ADD PUSH1 0x40 MSTORE DUP1 SWAP4 SWAP3 SWAP2 SWAP1 DUP2 DUP2 MSTORE PUSH1 0x20 ADD DUP4 DUP4 DUP1 DUP3 DUP5 CALLDATACOPY PUSH1 0x0 SWAP3 ADD SWAP2 SWAP1 SWAP2 MSTORE POP SWAP3 SWAP6 POP POP POP POP CALLDATALOAD ISZERO ISZERO SWAP1 POP PUSH2 0x14A1 JUMP JUMPDEST PUSH1 0x40 DUP1 MLOAD PUSH4 0xFFFFFFFF SWAP1 SWAP3 AND DUP3 MSTORE MLOAD SWAP1 DUP2 SWAP1 SUB PUSH1 0x20 ADD SWAP1 RETURN JUMPDEST PUSH2 0x29E PUSH1 0x4 DUP1 CALLDATASIZE SUB PUSH1 0x60 DUP2 LT ISZERO PUSH2 0x6C8 JUMPI PUSH1 0x0 DUP1 REVERT JUMPDEST PUSH1 0x1 PUSH1 0x1 PUSH1 0xA0 SHL SUB DUP3 CALLDATALOAD AND SWAP2 SWAP1 DUP2 ADD SWAP1 PUSH1 0x40 DUP2 ADD PUSH1 0x20 DUP3 ADD CALLDATALOAD PUSH1 0x1 PUSH1 0x20 SHL DUP2 GT ISZERO PUSH2 0x6F2 JUMPI PUSH1 0x0 DUP1 REVERT JUMPDEST DUP3 ADD DUP4 PUSH1 0x20 DUP3 ADD GT ISZERO PUSH2 0x704 JUMPI PUSH1 0x0 DUP1 REVERT JUMPDEST DUP1 CALLDATALOAD SWAP1 PUSH1 0x20 ADD SWAP2 DUP5 PUSH1 0x1 DUP4 MUL DUP5 ADD GT PUSH1 0x1 PUSH1 0x20 SHL DUP4 GT OR ISZERO PUSH2 0x725 JUMPI PUSH1 0x0 DUP1 REVERT JUMPDEST SWAP2 SWAP1 DUP1 DUP1 PUSH1 0x1F ADD PUSH1 0x20 DUP1 SWAP2 DIV MUL PUSH1 0x20 ADD PUSH1 0x40 MLOAD SWAP1 DUP2 ADD PUSH1 0x40 MSTORE DUP1 SWAP4 SWAP3 SWAP2 SWAP1 DUP2 DUP2 MSTORE PUSH1 0x20 ADD DUP4 DUP4 DUP1 DUP3 DUP5 CALLDATACOPY PUSH1 0x0 SWAP3 ADD SWAP2 SWAP1 SWAP2 MSTORE POP SWAP3 SWAP6 SWAP5 SWAP4 PUSH1 0x20 DUP2 ADD SWAP4 POP CALLDATALOAD SWAP2 POP POP PUSH1 0x1 PUSH1 0x20 SHL DUP2 GT ISZERO PUSH2 0x777 JUMPI PUSH1 0x0 DUP1 REVERT JUMPDEST DUP3 ADD DUP4 PUSH1 0x20 DUP3 ADD GT ISZERO PUSH2 0x789 JUMPI PUSH1 0x0 DUP1 REVERT JUMPDEST DUP1 CALLDATALOAD SWAP1 PUSH1 0x20 ADD SWAP2 DUP5 PUSH1 0x1 DUP4 MUL DUP5 ADD GT PUSH1 0x1 PUSH1 0x20 SHL DUP4 GT OR ISZERO PUSH2 0x7AA JUMPI PUSH1 0x0 DUP1 REVERT JUMPDEST SWAP2 SWAP1 DUP1 DUP1 PUSH1 0x1F ADD PUSH1 0x20 DUP1 SWAP2 DIV MUL PUSH1 0x20 ADD PUSH1 0x40 MLOAD SWAP1 DUP2 ADD PUSH1 0x40 MSTORE DUP1 SWAP4 SWAP3 SWAP2 SWAP1 DUP2 DUP2 MSTORE PUSH1 0x20 ADD DUP4 DUP4 DUP1 DUP3 DUP5 CALLDATACOPY PUSH1 0x0 SWAP3 ADD SWAP2 SWAP1 SWAP2 MSTORE POP SWAP3 SWAP6 POP PUSH2 0x1666 SWAP5 POP POP POP POP POP JUMP JUMPDEST PUSH2 0x808 PUSH1 0x4 DUP1 CALLDATASIZE SUB PUSH1 0x20 DUP2 LT ISZERO PUSH2 0x801 JUMPI PUSH1 0x0 DUP1 REVERT JUMPDEST POP CALLDATALOAD PUSH2 0x17DB JUMP JUMPDEST PUSH1 0x40 DUP1 MLOAD PUSH1 0x1 PUSH1 0x1 PUSH1 0xA0 SHL SUB SWAP1 SWAP3 AND DUP3 MSTORE MLOAD SWAP1 DUP2 SWAP1 SUB PUSH1 0x20 ADD SWAP1 RETURN JUMPDEST PUSH2 0x29E PUSH1 0x4 DUP1 CALLDATASIZE SUB PUSH1 0x40 DUP2 LT ISZERO PUSH2 0x83A JUMPI PUSH1 0x0 DUP1 REVERT JUMPDEST POP PUSH1 0x1 PUSH1 0x1 PUSH1 0xA0 SHL SUB DUP2 CALLDATALOAD AND SWAP1 PUSH1 0x20 ADD CALLDATALOAD PUSH2 0x1802 JUMP JUMPDEST PUSH2 0x699 PUSH2 0x18B6 JUMP JUMPDEST PUSH2 0x87B PUSH1 0x4 DUP1 CALLDATASIZE SUB PUSH1 0x20 DUP2 LT ISZERO PUSH2 0x86E JUMPI PUSH1 0x0 DUP1 REVERT JUMPDEST POP CALLDATALOAD PUSH4 0xFFFFFFFF AND PUSH2 0x18BD JUMP JUMPDEST STOP JUMPDEST PUSH2 0x699 PUSH2 0x18F7 JUMP JUMPDEST PUSH2 0x699 PUSH1 0x4 DUP1 CALLDATASIZE SUB PUSH1 0x20 DUP2 LT ISZERO PUSH2 0x89B JUMPI PUSH1 0x0 DUP1 REVERT JUMPDEST POP CALLDATALOAD PUSH4 0xFFFFFFFF AND PUSH2 0x18FD JUMP JUMPDEST PUSH2 0x87B PUSH1 0x4 DUP1 CALLDATASIZE SUB PUSH1 0x20 DUP2 LT ISZERO PUSH2 0x8BE JUMPI PUSH1 0x0 DUP1 REVERT JUMPDEST POP CALLDATALOAD PUSH4 0xFFFFFFFF AND PUSH2 0x192C JUMP JUMPDEST PUSH2 0x8D3 PUSH2 0x1D0A JUMP JUMPDEST PUSH1 0x40 DUP1 MLOAD SWAP2 ISZERO ISZERO DUP3 MSTORE MLOAD SWAP1 DUP2 SWAP1 SUB PUSH1 0x20 ADD SWAP1 RETURN JUMPDEST PUSH2 0x87B PUSH1 0x4 DUP1 CALLDATASIZE SUB PUSH1 0xA0 DUP2 LT ISZERO PUSH2 0x8FD JUMPI PUSH1 0x0 DUP1 REVERT JUMPDEST PUSH1 0x1 PUSH1 0x1 PUSH1 0xA0 SHL SUB DUP3 CALLDATALOAD AND SWAP2 SWAP1 DUP2 ADD SWAP1 PUSH1 0x40 DUP2 ADD PUSH1 0x20 DUP3 ADD CALLDATALOAD PUSH1 0x1 PUSH1 0x20 SHL DUP2 GT ISZERO PUSH2 0x927 JUMPI PUSH1 0x0 DUP1 REVERT JUMPDEST DUP3 ADD DUP4 PUSH1 0x20 DUP3 ADD GT ISZERO PUSH2 0x939 JUMPI PUSH1 0x0 DUP1 REVERT JUMPDEST DUP1 CALLDATALOAD SWAP1 PUSH1 0x20 ADD SWAP2 DUP5 PUSH1 0x1 DUP4 MUL DUP5 ADD GT PUSH1 0x1 PUSH1 0x20 SHL DUP4 GT OR ISZERO PUSH2 0x95A JUMPI PUSH1 0x0 DUP1 REVERT JUMPDEST SWAP2 SWAP1 DUP1 DUP1 PUSH1 0x1F ADD PUSH1 0x20 DUP1 SWAP2 DIV MUL PUSH1 0x20 ADD PUSH1 0x40 MLOAD SWAP1 DUP2 ADD PUSH1 0x40 MSTORE DUP1 SWAP4 SWAP3 SWAP2 SWAP1 DUP2 DUP2 MSTORE PUSH1 0x20 ADD DUP4 DUP4 DUP1 DUP3 DUP5 CALLDATACOPY PUSH1 0x0 SWAP3 ADD SWAP2 SWAP1 SWAP2 MSTORE POP SWAP3 SWAP6 SWAP5 SWAP4 PUSH1 0x20 DUP2 ADD SWAP4 POP CALLDATALOAD SWAP2 POP POP PUSH1 0x1 PUSH1 0x20 SHL DUP2 GT ISZERO PUSH2 0x9AC JUMPI PUSH1 0x0 DUP1 REVERT JUMPDEST DUP3 ADD DUP4 PUSH1 0x20 DUP3 ADD GT ISZERO PUSH2 0x9BE JUMPI PUSH1 0x0 DUP1 REVERT JUMPDEST DUP1 CALLDATALOAD SWAP1 PUSH1 0x20 ADD SWAP2 DUP5 PUSH1 0x1 DUP4 MUL DUP5 ADD GT PUSH1 0x1 PUSH1 0x20 SHL DUP4 GT OR ISZERO PUSH2 0x9DF JUMPI PUSH1 0x0 DUP1 REVERT JUMPDEST SWAP2 SWAP1 DUP1 DUP1 PUSH1 0x1F ADD PUSH1 0x20 DUP1 SWAP2 DIV MUL PUSH1 0x20 ADD PUSH1 0x40 MLOAD SWAP1 DUP2 ADD PUSH1 0x40 MSTORE DUP1 SWAP4 SWAP3 SWAP2 SWAP1 DUP2 DUP2 MSTORE PUSH1 0x20 ADD DUP4 DUP4 DUP1 DUP3 DUP5 CALLDATACOPY PUSH1 0x0 SWAP3 ADD SWAP2 SWAP1 SWAP2 MSTORE POP SWAP3 SWAP6 SWAP5 SWAP4 PUSH1 0x20 DUP2 ADD SWAP4 POP CALLDATALOAD SWAP2 POP POP PUSH1 0x1 PUSH1 0x20 SHL DUP2 GT ISZERO PUSH2 0xA31 JUMPI PUSH1 0x0 DUP1 REVERT JUMPDEST DUP3 ADD DUP4 PUSH1 0x20 DUP3 ADD GT ISZERO PUSH2 0xA43 JUMPI PUSH1 0x0 DUP1 REVERT JUMPDEST DUP1 CALLDATALOAD SWAP1 PUSH1 0x20 ADD SWAP2 DUP5 PUSH1 0x1 DUP4 MUL DUP5 ADD GT PUSH1 0x1 PUSH1 0x20 SHL DUP4 GT OR ISZERO PUSH2 0xA64 JUMPI PUSH1 0x0 DUP1 REVERT JUMPDEST SWAP2 SWAP1 DUP1 DUP1 PUSH1 0x1F ADD PUSH1 0x20 DUP1 SWAP2 DIV MUL PUSH1 0x20 ADD PUSH1 0x40 MLOAD SWAP1 DUP2 ADD PUSH1 0x40 MSTORE DUP1 SWAP4 SWAP3 SWAP2 SWAP1 DUP2 DUP2 MSTORE PUSH1 0x20 ADD DUP4 DUP4 DUP1 DUP3 DUP5 CALLDATACOPY PUSH1 0x0 SWAP3 ADD SWAP2 SWAP1 SWAP2 MSTORE POP SWAP3 SWAP6 POP POP POP POP CALLDATALOAD ISZERO ISZERO SWAP1 POP PUSH2 0x1D0F JUMP JUMPDEST PUSH2 0x87B PUSH1 0x4 DUP1 CALLDATASIZE SUB PUSH1 0x40 DUP2 LT ISZERO PUSH2 0xABD JUMPI PUSH1 0x0 DUP1 REVERT JUMPDEST POP DUP1 CALLDATALOAD PUSH1 0x1 PUSH1 0x1 PUSH1 0xA0 SHL SUB AND SWAP1 PUSH1 0x20 ADD CALLDATALOAD PUSH4 0xFFFFFFFF AND PUSH2 0x21C7 JUMP JUMPDEST PUSH2 0xAF6 PUSH1 0x4 DUP1 CALLDATASIZE SUB PUSH1 0x20 DUP2 LT ISZERO PUSH2 0xAEF JUMPI PUSH1 0x0 DUP1 REVERT JUMPDEST POP CALLDATALOAD PUSH2 0x2234 JUMP JUMPDEST PUSH1 0x40 MLOAD DUP1 DUP6 PUSH1 0x1 PUSH1 0x1 PUSH1 0xA0 SHL SUB AND PUSH1 0x1 PUSH1 0x1 PUSH1 0xA0 SHL SUB AND DUP2 MSTORE PUSH1 0x20 ADD DUP5 PUSH1 0x1 PUSH1 0x1 PUSH1 0xA0 SHL SUB AND PUSH1 0x1 PUSH1 0x1 PUSH1 0xA0 SHL SUB AND DUP2 MSTORE PUSH1 0x20 ADD DUP1 PUSH1 0x20 ADD DUP4 ISZERO ISZERO ISZERO ISZERO DUP2 MSTORE PUSH1 0x20 ADD DUP3 DUP2 SUB DUP3 MSTORE DUP5 DUP2 DUP2 MLOAD DUP2 MSTORE PUSH1 0x20 ADD SWAP2 POP DUP1 MLOAD SWAP1 PUSH1 0x20 ADD SWAP1 DUP1 DUP4 DUP4 PUSH1 0x0 JUMPDEST DUP4 DUP2 LT ISZERO PUSH2 0xB6D JUMPI DUP2 DUP2 ADD MLOAD DUP4 DUP3 ADD MSTORE PUSH1 0x20 ADD PUSH2 0xB55 JUMP JUMPDEST POP POP POP POP SWAP1 POP SWAP1 DUP2 ADD SWAP1 PUSH1 0x1F AND DUP1 ISZERO PUSH2 0xB9A JUMPI DUP1 DUP3 SUB DUP1 MLOAD PUSH1 0x1 DUP4 PUSH1 0x20 SUB PUSH2 0x100 EXP SUB NOT AND DUP2 MSTORE PUSH1 0x20 ADD SWAP2 POP JUMPDEST POP SWAP6 POP POP POP POP POP POP PUSH1 0x40 MLOAD DUP1 SWAP2 SUB SWAP1 RETURN JUMPDEST PUSH2 0x87B PUSH1 0x4 DUP1 CALLDATASIZE SUB PUSH1 0x60 DUP2 LT ISZERO PUSH2 0xBC1 JUMPI PUSH1 0x0 DUP1 REVERT JUMPDEST DUP2 ADD SWAP1 PUSH1 0x20 DUP2 ADD DUP2 CALLDATALOAD PUSH1 0x1 PUSH1 0x20 SHL DUP2 GT ISZERO PUSH2 0xBDB JUMPI PUSH1 0x0 DUP1 REVERT JUMPDEST DUP3 ADD DUP4 PUSH1 0x20 DUP3 ADD GT ISZERO PUSH2 0xBED JUMPI PUSH1 0x0 DUP1 REVERT JUMPDEST DUP1 CALLDATALOAD SWAP1 PUSH1 0x20 ADD SWAP2 DUP5 PUSH1 0x1 DUP4 MUL DUP5 ADD GT PUSH1 0x1 PUSH1 0x20 SHL DUP4 GT OR ISZERO PUSH2 0xC0E JUMPI PUSH1 0x0 DUP1 REVERT JUMPDEST SWAP2 SWAP4 SWAP1 SWAP3 SWAP1 SWAP2 PUSH1 0x20 DUP2 ADD SWAP1 CALLDATALOAD PUSH1 0x1 PUSH1 0x20 SHL DUP2 GT ISZERO PUSH2 0xC2B JUMPI PUSH1 0x0 DUP1 REVERT JUMPDEST DUP3 ADD DUP4 PUSH1 0x20 DUP3 ADD GT ISZERO PUSH2 0xC3D JUMPI PUSH1 0x0 DUP1 REVERT JUMPDEST DUP1 CALLDATALOAD SWAP1 PUSH1 0x20 ADD SWAP2 DUP5 PUSH1 0x1 DUP4 MUL DUP5 ADD GT PUSH1 0x1 PUSH1 0x20 SHL DUP4 GT OR ISZERO PUSH2 0xC5E JUMPI PUSH1 0x0 DUP1 REVERT JUMPDEST SWAP2 SWAP4 POP SWAP2 POP CALLDATALOAD PUSH4 0xFFFFFFFF AND PUSH2 0x2308 JUMP JUMPDEST PUSH2 0x699 PUSH1 0x4 DUP1 CALLDATASIZE SUB PUSH1 0x20 DUP2 LT ISZERO PUSH2 0xC85 JUMPI PUSH1 0x0 DUP1 REVERT JUMPDEST POP CALLDATALOAD PUSH4 0xFFFFFFFF AND PUSH2 0x2395 JUMP JUMPDEST PUSH2 0xAF6 PUSH1 0x4 DUP1 CALLDATASIZE SUB PUSH1 0x20 DUP2 LT ISZERO PUSH2 0xCA8 JUMPI PUSH1 0x0 DUP1 REVERT JUMPDEST POP CALLDATALOAD PUSH2 0x23AA JUMP JUMPDEST PUSH2 0x8D3 PUSH1 0x4 DUP1 CALLDATASIZE SUB PUSH1 0x40 DUP2 LT ISZERO PUSH2 0xCC5 JUMPI PUSH1 0x0 DUP1 REVERT JUMPDEST PUSH1 0x1 PUSH1 0x1 PUSH1 0xA0 SHL SUB DUP3 CALLDATALOAD AND SWAP2 SWAP1 DUP2 ADD SWAP1 PUSH1 0x40 DUP2 ADD PUSH1 0x20 DUP3 ADD CALLDATALOAD PUSH1 0x1 PUSH1 0x20 SHL DUP2 GT ISZERO PUSH2 0xCEF JUMPI PUSH1 0x0 DUP1 REVERT JUMPDEST DUP3 ADD DUP4 PUSH1 0x20 DUP3 ADD GT ISZERO PUSH2 0xD01 JUMPI PUSH1 0x0 DUP1 REVERT JUMPDEST DUP1 CALLDATALOAD SWAP1 PUSH1 0x20 ADD SWAP2 DUP5 PUSH1 0x1 DUP4 MUL DUP5 ADD GT PUSH1 0x1 PUSH1 0x20 SHL DUP4 GT OR ISZERO PUSH2 0xD22 JUMPI PUSH1 0x0 DUP1 REVERT JUMPDEST SWAP2 SWAP1 DUP1 DUP1 PUSH1 0x1F ADD PUSH1 0x20 DUP1 SWAP2 DIV MUL PUSH1 0x20 ADD PUSH1 0x40 MLOAD SWAP1 DUP2 ADD PUSH1 0x40 MSTORE DUP1 SWAP4 SWAP3 SWAP2 SWAP1 DUP2 DUP2 MSTORE PUSH1 0x20 ADD DUP4 DUP4 DUP1 DUP3 DUP5 CALLDATACOPY PUSH1 0x0 SWAP3 ADD SWAP2 SWAP1 SWAP2 MSTORE POP SWAP3 SWAP6 POP PUSH2 0x23B7 SWAP5 POP POP POP POP POP JUMP JUMPDEST PUSH2 0x699 PUSH1 0x4 DUP1 CALLDATASIZE SUB PUSH1 0x20 DUP2 LT ISZERO PUSH2 0xD79 JUMPI PUSH1 0x0 DUP1 REVERT JUMPDEST DUP2 ADD SWAP1 PUSH1 0x20 DUP2 ADD DUP2 CALLDATALOAD PUSH1 0x1 PUSH1 0x20 SHL DUP2 GT ISZERO PUSH2 0xD93 JUMPI PUSH1 0x0 DUP1 REVERT JUMPDEST DUP3 ADD DUP4 PUSH1 0x20 DUP3 ADD GT ISZERO PUSH2 0xDA5 JUMPI PUSH1 0x0 DUP1 REVERT JUMPDEST DUP1 CALLDATALOAD SWAP1 PUSH1 0x20 ADD SWAP2 DUP5 PUSH1 0x1 DUP4 MUL DUP5 ADD GT PUSH1 0x1 PUSH1 0x20 SHL DUP4 GT OR ISZERO PUSH2 0xDC6 JUMPI PUSH1 0x0 DUP1 REVERT JUMPDEST POP SWAP1 SWAP3 POP SWAP1 POP PUSH2 0x23E8 JUMP JUMPDEST PUSH2 0x699 PUSH1 0x4 DUP1 CALLDATASIZE SUB PUSH1 0x20 DUP2 LT ISZERO PUSH2 0xDE7 JUMPI PUSH1 0x0 DUP1 REVERT JUMPDEST POP CALLDATALOAD PUSH1 0x1 PUSH1 0x1 PUSH1 0xA0 SHL SUB AND PUSH2 0x2557 JUMP JUMPDEST PUSH2 0x699 PUSH2 0x2572 JUMP JUMPDEST PUSH2 0x699 PUSH1 0x4 DUP1 CALLDATASIZE SUB PUSH1 0x20 DUP2 LT ISZERO PUSH2 0xE15 JUMPI PUSH1 0x0 DUP1 REVERT JUMPDEST POP CALLDATALOAD PUSH1 0x1 PUSH1 0x1 PUSH1 0xA0 SHL SUB AND PUSH2 0x2578 JUMP JUMPDEST PUSH2 0x33E PUSH1 0x4 DUP1 CALLDATASIZE SUB PUSH1 0x40 DUP2 LT ISZERO PUSH2 0xE3B JUMPI PUSH1 0x0 DUP1 REVERT JUMPDEST POP PUSH4 0xFFFFFFFF DUP2 CALLDATALOAD DUP2 AND SWAP2 PUSH1 0x20 ADD CALLDATALOAD AND PUSH2 0x2590 JUMP JUMPDEST PUSH2 0x87B PUSH1 0x4 DUP1 CALLDATASIZE SUB PUSH1 0x40 DUP2 LT ISZERO PUSH2 0xE66 JUMPI PUSH1 0x0 DUP1 REVERT JUMPDEST POP DUP1 CALLDATALOAD PUSH1 0x1 PUSH1 0x1 PUSH1 0xA0 SHL SUB AND SWAP1 PUSH1 0x20 ADD CALLDATALOAD PUSH4 0xFFFFFFFF AND PUSH2 0x25E5 JUMP JUMPDEST PUSH2 0x8D3 PUSH2 0x2635 JUMP JUMPDEST PUSH2 0x87B PUSH1 0x4 DUP1 CALLDATASIZE SUB PUSH1 0x80 DUP2 LT ISZERO PUSH2 0xEA0 JUMPI PUSH1 0x0 DUP1 REVERT JUMPDEST PUSH1 0x1 PUSH1 0x1 PUSH1 0xA0 SHL SUB DUP3 CALLDATALOAD AND SWAP2 SWAP1 DUP2 ADD SWAP1 PUSH1 0x40 DUP2 ADD PUSH1 0x20 DUP3 ADD CALLDATALOAD PUSH1 0x1 PUSH1 0x20 SHL DUP2 GT ISZERO PUSH2 0xECA JUMPI PUSH1 0x0 DUP1 REVERT JUMPDEST DUP3 ADD DUP4 PUSH1 0x20 DUP3 ADD GT ISZERO PUSH2 0xEDC JUMPI PUSH1 0x0 DUP1 REVERT JUMPDEST DUP1 CALLDATALOAD SWAP1 PUSH1 0x20 ADD SWAP2 DUP5 PUSH1 0x1 DUP4 MUL DUP5 ADD GT PUSH1 0x1 PUSH1 0x20 SHL DUP4 GT OR ISZERO PUSH2 0xEFD JUMPI PUSH1 0x0 DUP1 REVERT JUMPDEST SWAP2 SWAP1 DUP1 DUP1 PUSH1 0x1F ADD PUSH1 0x20 DUP1 SWAP2 DIV MUL PUSH1 0x20 ADD PUSH1 0x40 MLOAD SWAP1 DUP2 ADD PUSH1 0x40 MSTORE DUP1 SWAP4 SWAP3 SWAP2 SWAP1 DUP2 DUP2 MSTORE PUSH1 0x20 ADD DUP4 DUP4 DUP1 DUP3 DUP5 CALLDATACOPY PUSH1 0x0 SWAP3 ADD SWAP2 SWAP1 SWAP2 MSTORE POP SWAP3 SWAP6 SWAP5 SWAP4 PUSH1 0x20 DUP2 ADD SWAP4 POP CALLDATALOAD SWAP2 POP POP PUSH1 0x1 PUSH1 0x20 SHL DUP2 GT ISZERO PUSH2 0xF4F JUMPI PUSH1 0x0 DUP1 REVERT JUMPDEST DUP3 ADD DUP4 PUSH1 0x20 DUP3 ADD GT ISZERO PUSH2 0xF61 JUMPI PUSH1 0x0 DUP1 REVERT JUMPDEST DUP1 CALLDATALOAD SWAP1 PUSH1 0x20 ADD SWAP2 DUP5 PUSH1 0x1 DUP4 MUL DUP5 ADD GT PUSH1 0x1 PUSH1 0x20 SHL DUP4 GT OR ISZERO PUSH2 0xF82 JUMPI PUSH1 0x0 DUP1 REVERT JUMPDEST SWAP2 SWAP1 DUP1 DUP1 PUSH1 0x1F ADD PUSH1 0x20 DUP1 SWAP2 DIV MUL PUSH1 0x20 ADD PUSH1 0x40 MLOAD SWAP1 DUP2 ADD PUSH1 0x40 MSTORE DUP1 SWAP4 SWAP3 SWAP2 SWAP1 DUP2 DUP2 MSTORE PUSH1 0x20 ADD DUP4 DUP4 DUP1 DUP3 DUP5 CALLDATACOPY PUSH1 0x0 SWAP3 ADD SWAP2 SWAP1 SWAP2 MSTORE POP SWAP3 SWAP6 POP POP POP SWAP1 CALLDATALOAD PUSH4 0xFFFFFFFF AND SWAP2 POP PUSH2 0x263E SWAP1 POP JUMP JUMPDEST PUSH2 0x8D3 PUSH1 0x4 DUP1 CALLDATASIZE SUB PUSH1 0x20 DUP2 LT ISZERO PUSH2 0xFE1 JUMPI PUSH1 0x0 DUP1 REVERT JUMPDEST POP CALLDATALOAD PUSH1 0x1 PUSH1 0x1 PUSH1 0xA0 SHL SUB AND PUSH2 0x2780 JUMP JUMPDEST PUSH2 0x87B PUSH1 0x4 DUP1 CALLDATASIZE SUB PUSH1 0x60 DUP2 LT ISZERO PUSH2 0x1007 JUMPI PUSH1 0x0 DUP1 REVERT JUMPDEST DUP2 ADD SWAP1 PUSH1 0x20 DUP2 ADD DUP2 CALLDATALOAD PUSH1 0x1 PUSH1 0x20 SHL DUP2 GT ISZERO PUSH2 0x1021 JUMPI PUSH1 0x0 DUP1 REVERT JUMPDEST DUP3 ADD DUP4 PUSH1 0x20 DUP3 ADD GT ISZERO PUSH2 0x1033 JUMPI PUSH1 0x0 DUP1 REVERT JUMPDEST DUP1 CALLDATALOAD SWAP1 PUSH1 0x20 ADD SWAP2 DUP5 PUSH1 0x1 DUP4 MUL DUP5 ADD GT PUSH1 0x1 PUSH1 0x20 SHL DUP4 GT OR ISZERO PUSH2 0x1054 JUMPI PUSH1 0x0 DUP1 REVERT JUMPDEST SWAP2 SWAP1 DUP1 DUP1 PUSH1 0x1F ADD PUSH1 0x20 DUP1 SWAP2 DIV MUL PUSH1 0x20 ADD PUSH1 0x40 MLOAD SWAP1 DUP2 ADD PUSH1 0x40 MSTORE DUP1 SWAP4 SWAP3 SWAP2 SWAP1 DUP2 DUP2 MSTORE PUSH1 0x20 ADD DUP4 DUP4 DUP1 DUP3 DUP5 CALLDATACOPY PUSH1 0x0 SWAP3 ADD SWAP2 SWAP1 SWAP2 MSTORE POP SWAP3 SWAP6 SWAP5 SWAP4 PUSH1 0x20 DUP2 ADD SWAP4 POP CALLDATALOAD SWAP2 POP POP PUSH1 0x1 PUSH1 0x20 SHL DUP2 GT ISZERO PUSH2 0x10A6 JUMPI PUSH1 0x0 DUP1 REVERT JUMPDEST DUP3 ADD DUP4 PUSH1 0x20 DUP3 ADD GT ISZERO PUSH2 0x10B8 JUMPI PUSH1 0x0 DUP1 REVERT JUMPDEST DUP1 CALLDATALOAD SWAP1 PUSH1 0x20 ADD SWAP2 DUP5 PUSH1 0x1 DUP4 MUL DUP5 ADD GT PUSH1 0x1 PUSH1 0x20 SHL DUP4 GT OR ISZERO PUSH2 0x10D9 JUMPI PUSH1 0x0 DUP1 REVERT JUMPDEST SWAP2 SWAP1 DUP1 DUP1 PUSH1 0x1F ADD PUSH1 0x20 DUP1 SWAP2 DIV MUL PUSH1 0x20 ADD PUSH1 0x40 MLOAD SWAP1 DUP2 ADD PUSH1 0x40 MSTORE DUP1 SWAP4 SWAP3 SWAP2 SWAP1 DUP2 DUP2 MSTORE PUSH1 0x20 ADD DUP4 DUP4 DUP1 DUP3 DUP5 CALLDATACOPY PUSH1 0x0 SWAP3 ADD SWAP2 SWAP1 SWAP2 MSTORE POP SWAP3 SWAP6 POP POP POP SWAP1 CALLDATALOAD PUSH4 0xFFFFFFFF AND SWAP2 POP PUSH2 0x2795 SWAP1 POP JUMP JUMPDEST PUSH1 0x60 PUSH1 0x2 PUSH1 0x0 DUP5 PUSH1 0x1 PUSH1 0x1 PUSH1 0xA0 SHL SUB AND PUSH1 0x1 PUSH1 0x1 PUSH1 0xA0 SHL SUB AND DUP2 MSTORE PUSH1 0x20 ADD SWAP1 DUP2 MSTORE PUSH1 0x20 ADD PUSH1 0x0 KECCAK256 DUP3 PUSH1 0x40 MLOAD DUP1 DUP3 DUP1 MLOAD SWAP1 PUSH1 0x20 ADD SWAP1 DUP1 DUP4 DUP4 JUMPDEST PUSH1 0x20 DUP4 LT PUSH2 0x1179 JUMPI DUP1 MLOAD DUP3 MSTORE PUSH1 0x1F NOT SWAP1 SWAP3 ADD SWAP2 PUSH1 0x20 SWAP2 DUP3 ADD SWAP2 ADD PUSH2 0x115A JUMP JUMPDEST MLOAD DUP2 MLOAD PUSH1 0x0 NOT PUSH1 0x20 SWAP5 DUP6 SUB PUSH2 0x100 SWAP1 DUP2 EXP DUP3 ADD SWAP3 DUP4 AND SWAP3 NOT SWAP4 SWAP1 SWAP4 AND SWAP2 SWAP1 SWAP2 OR SWAP1 SWAP3 MSTORE SWAP5 SWAP1 SWAP3 ADD SWAP7 DUP8 MSTORE PUSH1 0x40 DUP1 MLOAD SWAP8 DUP9 SWAP1 SUB DUP3 ADD DUP9 KECCAK256 PUSH1 0x2 SWAP1 DUP2 ADD DUP1 SLOAD PUSH1 0x1F PUSH1 0x1 DUP3 AND ISZERO SWAP1 SWAP9 MUL SWAP1 SWAP6 ADD SWAP1 SWAP5 AND DIV SWAP5 DUP6 ADD DUP3 SWAP1 DIV DUP3 MUL DUP9 ADD DUP3 ADD SWAP1 MSTORE DUP4 DUP8 MSTORE SWAP1 SWAP5 POP SWAP2 SWAP3 POP POP DUP4 ADD DUP3 DUP3 DUP1 ISZERO PUSH2 0x1230 JUMPI DUP1 PUSH1 0x1F LT PUSH2 0x1205 JUMPI PUSH2 0x100 DUP1 DUP4 SLOAD DIV MUL DUP4 MSTORE SWAP2 PUSH1 0x20 ADD SWAP2 PUSH2 0x1230 JUMP JUMPDEST DUP3 ADD SWAP2 SWAP1 PUSH1 0x0 MSTORE PUSH1 0x20 PUSH1 0x0 KECCAK256 SWAP1 JUMPDEST DUP2 SLOAD DUP2 MSTORE SWAP1 PUSH1 0x1 ADD SWAP1 PUSH1 0x20 ADD DUP1 DUP4 GT PUSH2 0x1213 JUMPI DUP3 SWAP1 SUB PUSH1 0x1F AND DUP3 ADD SWAP2 JUMPDEST POP POP POP POP POP SWAP1 POP SWAP3 SWAP2 POP POP JUMP JUMPDEST PUSH1 0x60 DUP1 PUSH1 0x9 DUP5 PUSH4 0xFFFFFFFF AND DUP2 SLOAD DUP2 LT PUSH2 0x1253 JUMPI INVALID JUMPDEST SWAP1 PUSH1 0x0 MSTORE PUSH1 0x20 PUSH1 0x0 KECCAK256 SWAP1 PUSH1 0x8 MUL ADD PUSH1 0x3 ADD DUP4 PUSH4 0xFFFFFFFF AND DUP2 SLOAD DUP2 LT PUSH2 0x1275 JUMPI INVALID JUMPDEST SWAP1 PUSH1 0x0 MSTORE PUSH1 0x20 PUSH1 0x0 KECCAK256 ADD PUSH1 0x9 DUP6 PUSH4 0xFFFFFFFF AND DUP2 SLOAD DUP2 LT PUSH2 0x1292 JUMPI INVALID JUMPDEST SWAP1 PUSH1 0x0 MSTORE PUSH1 0x20 PUSH1 0x0 KECCAK256 SWAP1 PUSH1 0x8 MUL ADD PUSH1 0x6 ADD DUP5 PUSH4 0xFFFFFFFF AND DUP2 SLOAD DUP2 LT PUSH2 0x12B4 JUMPI INVALID JUMPDEST PUSH1 0x0 SWAP2 DUP3 MSTORE PUSH1 0x20 SWAP2 DUP3 SWAP1 KECCAK256 DUP4 SLOAD PUSH1 0x40 DUP1 MLOAD PUSH1 0x2 PUSH1 0x1 DUP5 AND ISZERO PUSH2 0x100 MUL PUSH1 0x0 NOT ADD SWAP1 SWAP4 AND SWAP3 SWAP1 SWAP3 DIV PUSH1 0x1F DUP2 ADD DUP7 SWAP1 DIV DUP7 MUL DUP4 ADD DUP7 ADD SWAP1 SWAP2 MSTORE DUP1 DUP3 MSTORE SWAP3 SWAP1 SWAP2 ADD SWAP3 SWAP1 SWAP2 DUP5 SWAP2 DUP4 ADD DUP3 DUP3 DUP1 ISZERO PUSH2 0x1348 JUMPI DUP1 PUSH1 0x1F LT PUSH2 0x131D JUMPI PUSH2 0x100 DUP1 DUP4 SLOAD DIV MUL DUP4 MSTORE SWAP2 PUSH1 0x20 ADD SWAP2 PUSH2 0x1348 JUMP JUMPDEST DUP3 ADD SWAP2 SWAP1 PUSH1 0x0 MSTORE PUSH1 0x20 PUSH1 0x0 KECCAK256 SWAP1 JUMPDEST DUP2 SLOAD DUP2 MSTORE SWAP1 PUSH1 0x1 ADD SWAP1 PUSH1 0x20 ADD DUP1 DUP4 GT PUSH2 0x132B JUMPI DUP3 SWAP1 SUB PUSH1 0x1F AND DUP3 ADD SWAP2 JUMPDEST POP POP DUP5 SLOAD PUSH1 0x40 DUP1 MLOAD PUSH1 0x20 PUSH1 0x2 PUSH1 0x1 DUP6 AND ISZERO PUSH2 0x100 MUL PUSH1 0x0 NOT ADD SWAP1 SWAP5 AND SWAP4 SWAP1 SWAP4 DIV PUSH1 0x1F DUP2 ADD DUP5 SWAP1 DIV DUP5 MUL DUP3 ADD DUP5 ADD SWAP1 SWAP3 MSTORE DUP2 DUP2 MSTORE SWAP6 SWAP8 POP DUP7 SWAP5 POP SWAP3 POP DUP5 ADD SWAP1 POP DUP3 DUP3 DUP1 ISZERO PUSH2 0x13D6 JUMPI DUP1 PUSH1 0x1F LT PUSH2 0x13AB JUMPI PUSH2 0x100 DUP1 DUP4 SLOAD DIV MUL DUP4 MSTORE SWAP2 PUSH1 0x20 ADD SWAP2 PUSH2 0x13D6 JUMP JUMPDEST DUP3 ADD SWAP2 SWAP1 PUSH1 0x0 MSTORE PUSH1 0x20 PUSH1 0x0 KECCAK256 SWAP1 JUMPDEST DUP2 SLOAD DUP2 MSTORE SWAP1 PUSH1 0x1 ADD SWAP1 PUSH1 0x20 ADD DUP1 DUP4 GT PUSH2 0x13B9 JUMPI DUP3 SWAP1 SUB PUSH1 0x1F AND DUP3 ADD SWAP2 JUMPDEST POP POP POP POP POP SWAP1 POP SWAP2 POP SWAP2 POP SWAP3 POP SWAP3 SWAP1 POP JUMP JUMPDEST PUSH1 0x2 PUSH1 0x20 DUP2 DUP2 MSTORE PUSH1 0x0 SWAP4 DUP5 MSTORE PUSH1 0x40 SWAP4 DUP5 SWAP1 KECCAK256 DUP4 MLOAD DUP1 DUP6 ADD DUP4 ADD DUP1 MLOAD SWAP3 DUP2 MSTORE SWAP1 DUP4 ADD SWAP5 DUP4 ADD SWAP5 SWAP1 SWAP5 KECCAK256 SWAP4 MSTORE DUP3 DUP3 ADD DUP1 SLOAD DUP6 MLOAD PUSH1 0x1 DUP3 AND ISZERO PUSH2 0x100 MUL PUSH1 0x0 NOT ADD SWAP1 SWAP2 AND SWAP4 SWAP1 SWAP4 DIV PUSH1 0x1F DUP2 ADD DUP4 SWAP1 DIV DUP4 MUL DUP5 ADD DUP4 ADD SWAP1 SWAP6 MSTORE DUP5 DUP4 MSTORE SWAP3 SWAP4 SWAP2 SWAP3 SWAP2 SWAP1 DUP4 ADD DUP3 DUP3 DUP1 ISZERO PUSH2 0x1497 JUMPI DUP1 PUSH1 0x1F LT PUSH2 0x146C JUMPI PUSH2 0x100 DUP1 DUP4 SLOAD DIV MUL DUP4 MSTORE SWAP2 PUSH1 0x20 ADD SWAP2 PUSH2 0x1497 JUMP JUMPDEST DUP3 ADD SWAP2 SWAP1 PUSH1 0x0 MSTORE PUSH1 0x20 PUSH1 0x0 KECCAK256 SWAP1 JUMPDEST DUP2 SLOAD DUP2 MSTORE SWAP1 PUSH1 0x1 ADD SWAP1 PUSH1 0x20 ADD DUP1 DUP4 GT PUSH2 0x147A JUMPI DUP3 SWAP1 SUB PUSH1 0x1F AND DUP3 ADD SWAP2 JUMPDEST POP POP POP POP POP SWAP1 POP DUP2 JUMP JUMPDEST PUSH1 0x0 DUP1 DUP8 SWAP1 POP DUP1 PUSH1 0x1 PUSH1 0x1 PUSH1 0xA0 SHL SUB AND PUSH4 0x8C162152 DUP9 DUP9 DUP9 DUP9 DUP9 PUSH1 0x40 MLOAD DUP7 PUSH4 0xFFFFFFFF AND PUSH1 0xE0 SHL DUP2 MSTORE PUSH1 0x4 ADD DUP1 DUP7 PUSH1 0x1 PUSH1 0x1 PUSH1 0xA0 SHL SUB AND PUSH1 0x1 PUSH1 0x1 PUSH1 0xA0 SHL SUB AND DUP2 MSTORE PUSH1 0x20 ADD DUP1 PUSH1 0x20 ADD DUP1 PUSH1 0x20 ADD DUP1 PUSH1 0x20 ADD DUP6 ISZERO ISZERO ISZERO ISZERO DUP2 MSTORE PUSH1 0x20 ADD DUP5 DUP2 SUB DUP5 MSTORE DUP9 DUP2 DUP2 MLOAD DUP2 MSTORE PUSH1 0x20 ADD SWAP2 POP DUP1 MLOAD SWAP1 PUSH1 0x20 ADD SWAP1 DUP1 DUP4 DUP4 PUSH1 0x0 JUMPDEST DUP4 DUP2 LT ISZERO PUSH2 0x1531 JUMPI DUP2 DUP2 ADD MLOAD DUP4 DUP3 ADD MSTORE PUSH1 0x20 ADD PUSH2 0x1519 JUMP JUMPDEST POP POP POP POP SWAP1 POP SWAP1 DUP2 ADD SWAP1 PUSH1 0x1F AND DUP1 ISZERO PUSH2 0x155E JUMPI DUP1 DUP3 SUB DUP1 MLOAD PUSH1 0x1 DUP4 PUSH1 0x20 SUB PUSH2 0x100 EXP SUB NOT AND DUP2 MSTORE PUSH1 0x20 ADD SWAP2 POP JUMPDEST POP DUP5 DUP2 SUB DUP4 MSTORE DUP8 MLOAD DUP2 MSTORE DUP8 MLOAD PUSH1 0x20 SWAP2 DUP3 ADD SWAP2 DUP10 ADD SWAP1 DUP1 DUP4 DUP4 PUSH1 0x0 JUMPDEST DUP4 DUP2 LT ISZERO PUSH2 0x1591 JUMPI DUP2 DUP2 ADD MLOAD DUP4 DUP3 ADD MSTORE PUSH1 0x20 ADD PUSH2 0x1579 JUMP JUMPDEST POP POP POP POP SWAP1 POP SWAP1 DUP2 ADD SWAP1 PUSH1 0x1F AND DUP1 ISZERO PUSH2 0x15BE JUMPI DUP1 DUP3 SUB DUP1 MLOAD PUSH1 0x1 DUP4 PUSH1 0x20 SUB PUSH2 0x100 EXP SUB NOT AND DUP2 MSTORE PUSH1 0x20 ADD SWAP2 POP JUMPDEST POP DUP5 DUP2 SUB DUP3 MSTORE DUP7 MLOAD DUP2 MSTORE DUP7 MLOAD PUSH1 0x20 SWAP2 DUP3 ADD SWAP2 DUP9 ADD SWAP1 DUP1 DUP4 DUP4 PUSH1 0x0 JUMPDEST DUP4 DUP2 LT ISZERO PUSH2 0x15F1 JUMPI DUP2 DUP2 ADD MLOAD DUP4 DUP3 ADD MSTORE PUSH1 0x20 ADD PUSH2 0x15D9 JUMP JUMPDEST POP POP POP POP SWAP1 POP SWAP1 DUP2 ADD SWAP1 PUSH1 0x1F AND DUP1 ISZERO PUSH2 0x161E JUMPI DUP1 DUP3 SUB DUP1 MLOAD PUSH1 0x1 DUP4 PUSH1 0x20 SUB PUSH2 0x100 EXP SUB NOT AND DUP2 MSTORE PUSH1 0x20 ADD SWAP2 POP JUMPDEST POP SWAP9 POP POP POP POP POP POP POP POP POP PUSH1 0x0 PUSH1 0x40 MLOAD DUP1 DUP4 SUB DUP2 PUSH1 0x0 DUP8 DUP1 EXTCODESIZE ISZERO DUP1 ISZERO PUSH2 0x1643 JUMPI PUSH1 0x0 DUP1 REVERT JUMPDEST POP GAS CALL ISZERO DUP1 ISZERO PUSH2 0x1657 JUMPI RETURNDATASIZE PUSH1 0x0 DUP1 RETURNDATACOPY RETURNDATASIZE PUSH1 0x0 REVERT JUMPDEST POP POP POP POP POP SWAP7 SWAP6 POP POP POP POP POP POP JUMP JUMPDEST PUSH1 0x60 PUSH1 0x2 PUSH1 0x0 DUP6 PUSH1 0x1 PUSH1 0x1 PUSH1 0xA0 SHL SUB AND PUSH1 0x1 PUSH1 0x1 PUSH1 0xA0 SHL SUB AND DUP2 MSTORE PUSH1 0x20 ADD SWAP1 DUP2 MSTORE PUSH1 0x20 ADD PUSH1 0x0 KECCAK256 DUP4 PUSH1 0x40 MLOAD DUP1 DUP3 DUP1 MLOAD SWAP1 PUSH1 0x20 ADD SWAP1 DUP1 DUP4 DUP4 JUMPDEST PUSH1 0x20 DUP4 LT PUSH2 0x16BD JUMPI DUP1 MLOAD DUP3 MSTORE PUSH1 0x1F NOT SWAP1 SWAP3 ADD SWAP2 PUSH1 0x20 SWAP2 DUP3 ADD SWAP2 ADD PUSH2 0x169E JUMP JUMPDEST MLOAD DUP2 MLOAD PUSH1 0x20 SWAP4 DUP5 SUB PUSH2 0x100 EXP PUSH1 0x0 NOT ADD DUP1 NOT SWAP1 SWAP3 AND SWAP2 AND OR SWAP1 MSTORE SWAP3 ADD SWAP5 DUP6 MSTORE POP PUSH1 0x40 MLOAD SWAP4 DUP5 SWAP1 SUB DUP2 ADD DUP5 KECCAK256 DUP7 MLOAD SWAP1 SWAP5 DUP8 SWAP5 POP SWAP3 POP DUP3 SWAP2 DUP5 ADD SWAP1 DUP1 DUP4 DUP4 JUMPDEST PUSH1 0x20 DUP4 LT PUSH2 0x1719 JUMPI DUP1 MLOAD DUP3 MSTORE PUSH1 0x1F NOT SWAP1 SWAP3 ADD SWAP2 PUSH1 0x20 SWAP2 DUP3 ADD SWAP2 ADD PUSH2 0x16FA JUMP JUMPDEST MLOAD DUP2 MLOAD PUSH1 0x0 NOT PUSH1 0x20 SWAP5 DUP6 SUB PUSH2 0x100 SWAP1 DUP2 EXP DUP3 ADD SWAP3 DUP4 AND SWAP3 NOT SWAP4 SWAP1 SWAP4 AND SWAP2 SWAP1 SWAP2 OR SWAP1 SWAP3 MSTORE SWAP5 SWAP1 SWAP3 ADD SWAP7 DUP8 MSTORE PUSH1 0x40 DUP1 MLOAD SWAP8 DUP9 SWAP1 SUB DUP3 ADD DUP9 KECCAK256 DUP1 SLOAD PUSH1 0x1F PUSH1 0x2 PUSH1 0x1 DUP4 AND ISZERO SWAP1 SWAP9 MUL SWAP1 SWAP6 ADD AND SWAP6 SWAP1 SWAP6 DIV SWAP3 DUP4 ADD DUP3 SWAP1 DIV DUP3 MUL DUP9 ADD DUP3 ADD SWAP1 MSTORE DUP2 DUP8 MSTORE SWAP3 SWAP5 POP SWAP3 POP POP DUP4 ADD DUP3 DUP3 DUP1 ISZERO PUSH2 0x17CD JUMPI DUP1 PUSH1 0x1F LT PUSH2 0x17A2 JUMPI PUSH2 0x100 DUP1 DUP4 SLOAD DIV MUL DUP4 MSTORE SWAP2 PUSH1 0x20 ADD SWAP2 PUSH2 0x17CD JUMP JUMPDEST DUP3 ADD SWAP2 SWAP1 PUSH1 0x0 MSTORE PUSH1 0x20 PUSH1 0x0 KECCAK256 SWAP1 JUMPDEST DUP2 SLOAD DUP2 MSTORE SWAP1 PUSH1 0x1 ADD SWAP1 PUSH1 0x20 ADD DUP1 DUP4 GT PUSH2 0x17B0 JUMPI DUP3 SWAP1 SUB PUSH1 0x1F AND DUP3 ADD SWAP2 JUMPDEST POP POP POP POP POP SWAP1 POP SWAP4 SWAP3 POP POP POP JUMP JUMPDEST PUSH1 0x3 DUP2 DUP2 SLOAD DUP2 LT PUSH2 0x17E8 JUMPI INVALID JUMPDEST PUSH1 0x0 SWAP2 DUP3 MSTORE PUSH1 0x20 SWAP1 SWAP2 KECCAK256 ADD SLOAD PUSH1 0x1 PUSH1 0x1 PUSH1 0xA0 SHL SUB AND SWAP1 POP DUP2 JUMP JUMPDEST PUSH1 0x5 PUSH1 0x20 MSTORE DUP2 PUSH1 0x0 MSTORE PUSH1 0x40 PUSH1 0x0 KECCAK256 DUP2 DUP2 SLOAD DUP2 LT PUSH2 0x181B JUMPI INVALID JUMPDEST PUSH1 0x0 SWAP2 DUP3 MSTORE PUSH1 0x20 SWAP2 DUP3 SWAP1 KECCAK256 ADD DUP1 SLOAD PUSH1 0x40 DUP1 MLOAD PUSH1 0x1F PUSH1 0x2 PUSH1 0x0 NOT PUSH2 0x100 PUSH1 0x1 DUP8 AND ISZERO MUL ADD SWAP1 SWAP5 AND SWAP4 SWAP1 SWAP4 DIV SWAP3 DUP4 ADD DUP6 SWAP1 DIV DUP6 MUL DUP2 ADD DUP6 ADD SWAP1 SWAP2 MSTORE DUP2 DUP2 MSTORE SWAP5 POP SWAP1 SWAP3 POP SWAP1 DUP4 ADD DUP3 DUP3 DUP1 ISZERO PUSH2 0x18AE JUMPI DUP1 PUSH1 0x1F LT PUSH2 0x1883 JUMPI PUSH2 0x100 DUP1 DUP4 SLOAD DIV MUL DUP4 MSTORE SWAP2 PUSH1 0x20 ADD SWAP2 PUSH2 0x18AE JUMP JUMPDEST DUP3 ADD SWAP2 SWAP1 PUSH1 0x0 MSTORE PUSH1 0x20 PUSH1 0x0 KECCAK256 SWAP1 JUMPDEST DUP2 SLOAD DUP2 MSTORE SWAP1 PUSH1 0x1 ADD SWAP1 PUSH1 0x20 ADD DUP1 DUP4 GT PUSH2 0x1891 JUMPI DUP3 SWAP1 SUB PUSH1 0x1F AND DUP3 ADD SWAP2 JUMPDEST POP POP POP POP POP DUP2 JUMP JUMPDEST PUSH1 0x3 SLOAD JUMPDEST SWAP1 JUMP JUMPDEST PUSH4 0xFFFFFFFF DUP2 AND PUSH1 0x0 SWAP1 DUP2 MSTORE PUSH1 0x8 PUSH1 0x20 MSTORE PUSH1 0x40 SWAP1 KECCAK256 SLOAD DUP2 SWAP1 PUSH1 0xFF AND DUP1 PUSH2 0x18E5 JUMPI POP PUSH1 0x0 SLOAD PUSH1 0xFF AND JUMPDEST ISZERO PUSH2 0x18F3 JUMPI PUSH2 0x18F3 DUP3 PUSH2 0x2AF4 JUMP JUMPDEST POP POP JUMP JUMPDEST PUSH1 0x7 SLOAD SWAP1 JUMP JUMPDEST PUSH1 0x0 PUSH1 0x7 DUP3 PUSH4 0xFFFFFFFF AND DUP2 SLOAD DUP2 LT PUSH2 0x1912 JUMPI INVALID JUMPDEST PUSH1 0x0 SWAP2 DUP3 MSTORE PUSH1 0x20 SWAP1 SWAP2 KECCAK256 PUSH1 0x3 PUSH1 0x8 SWAP1 SWAP3 MUL ADD ADD SLOAD SWAP3 SWAP2 POP POP JUMP JUMPDEST PUSH1 0x9 DUP2 PUSH4 0xFFFFFFFF AND DUP2 SLOAD DUP2 LT PUSH2 0x193F JUMPI INVALID JUMPDEST PUSH1 0x0 SWAP2 DUP3 MSTORE PUSH1 0x20 SWAP1 SWAP2 KECCAK256 PUSH1 0x7 PUSH1 0x8 SWAP1 SWAP3 MUL ADD ADD SLOAD PUSH1 0xFF AND ISZERO PUSH2 0x1960 JUMPI PUSH1 0x0 DUP1 REVERT JUMPDEST PUSH1 0x0 PUSH1 0x9 DUP3 PUSH4 0xFFFFFFFF AND DUP2 SLOAD DUP2 LT PUSH2 0x1975 JUMPI INVALID JUMPDEST PUSH1 0x0 SWAP2 DUP3 MSTORE PUSH1 0x20 DUP3 KECCAK256 PUSH1 0x1 PUSH1 0x8 SWAP1 SWAP3 MUL ADD ADD SLOAD PUSH1 0x9 DUP1 SLOAD PUSH1 0x1 PUSH1 0x1 PUSH1 0xA0 SHL SUB SWAP1 SWAP3 AND SWAP4 POP DUP4 SWAP2 PUSH4 0xC09BC35B SWAP2 SWAP1 PUSH4 0xFFFFFFFF DUP8 AND SWAP1 DUP2 LT PUSH2 0x19B2 JUMPI INVALID JUMPDEST PUSH1 0x0 SWAP2 DUP3 MSTORE PUSH1 0x20 SWAP2 DUP3 SWAP1 KECCAK256 PUSH1 0x40 MLOAD PUSH1 0x1 PUSH1 0x1 PUSH1 0xE0 SHL SUB NOT PUSH1 0xE0 DUP7 SWAP1 SHL AND DUP2 MSTORE PUSH1 0x4 DUP2 ADD SWAP4 DUP5 MSTORE PUSH1 0x2 PUSH1 0x8 SWAP1 SWAP4 MUL SWAP1 SWAP2 ADD DUP3 ADD DUP1 SLOAD PUSH1 0x0 NOT PUSH2 0x100 PUSH1 0x1 DUP4 AND ISZERO MUL ADD AND SWAP3 SWAP1 SWAP3 DIV PUSH1 0x24 DUP3 ADD DUP2 SWAP1 MSTORE SWAP2 SWAP3 SWAP2 DUP3 SWAP2 PUSH1 0x44 ADD SWAP1 DUP5 SWAP1 DUP1 ISZERO PUSH2 0x1A57 JUMPI DUP1 PUSH1 0x1F LT PUSH2 0x1A2C JUMPI PUSH2 0x100 DUP1 DUP4 SLOAD DIV MUL DUP4 MSTORE SWAP2 PUSH1 0x20 ADD SWAP2 PUSH2 0x1A57 JUMP JUMPDEST DUP3 ADD SWAP2 SWAP1 PUSH1 0x0 MSTORE PUSH1 0x20 PUSH1 0x0 KECCAK256 SWAP1 JUMPDEST DUP2 SLOAD DUP2 MSTORE SWAP1 PUSH1 0x1 ADD SWAP1 PUSH1 0x20 ADD DUP1 DUP4 GT PUSH2 0x1A3A JUMPI DUP3 SWAP1 SUB PUSH1 0x1F AND DUP3 ADD SWAP2 JUMPDEST POP POP SWAP3 POP POP POP PUSH1 0x20 PUSH1 0x40 MLOAD DUP1 DUP4 SUB DUP2 PUSH1 0x0 DUP8 DUP1 EXTCODESIZE ISZERO DUP1 ISZERO PUSH2 0x1A77 JUMPI PUSH1 0x0 DUP1 REVERT JUMPDEST POP GAS CALL ISZERO DUP1 ISZERO PUSH2 0x1A8B JUMPI RETURNDATASIZE PUSH1 0x0 DUP1 RETURNDATACOPY RETURNDATASIZE PUSH1 0x0 REVERT JUMPDEST POP POP POP POP PUSH1 0x40 MLOAD RETURNDATASIZE PUSH1 0x20 DUP2 LT ISZERO PUSH2 0x1AA1 JUMPI PUSH1 0x0 DUP1 REVERT JUMPDEST POP MLOAD SWAP1 POP PUSH1 0x0 JUMPDEST PUSH1 0x9 DUP5 PUSH4 0xFFFFFFFF AND DUP2 SLOAD DUP2 LT PUSH2 0x1ABB JUMPI INVALID JUMPDEST SWAP1 PUSH1 0x0 MSTORE PUSH1 0x20 PUSH1 0x0 KECCAK256 SWAP1 PUSH1 0x8 MUL ADD PUSH1 0x3 ADD DUP1 SLOAD SWAP1 POP DUP2 PUSH4 0xFFFFFFFF AND LT ISZERO PUSH2 0x1CCD JUMPI DUP3 PUSH1 0x1 PUSH1 0x1 PUSH1 0xA0 SHL SUB AND PUSH4 0x928EC3E5 PUSH1 0x9 DUP7 PUSH4 0xFFFFFFFF AND DUP2 SLOAD DUP2 LT PUSH2 0x1AFF JUMPI INVALID JUMPDEST SWAP1 PUSH1 0x0 MSTORE PUSH1 0x20 PUSH1 0x0 KECCAK256 SWAP1 PUSH1 0x8 MUL ADD PUSH1 0x3 ADD DUP4 PUSH4 0xFFFFFFFF AND DUP2 SLOAD DUP2 LT PUSH2 0x1B21 JUMPI INVALID JUMPDEST SWAP1 PUSH1 0x0 MSTORE PUSH1 0x20 PUSH1 0x0 KECCAK256 ADD PUSH1 0x9 DUP8 PUSH4 0xFFFFFFFF AND DUP2 SLOAD DUP2 LT PUSH2 0x1B3E JUMPI INVALID JUMPDEST SWAP1 PUSH1 0x0 MSTORE PUSH1 0x20 PUSH1 0x0 KECCAK256 SWAP1 PUSH1 0x8 MUL ADD PUSH1 0x6 ADD DUP5 PUSH4 0xFFFFFFFF AND DUP2 SLOAD DUP2 LT PUSH2 0x1B60 JUMPI INVALID JUMPDEST PUSH1 0x0 SWAP2 DUP3 MSTORE PUSH1 0x20 SWAP1 SWAP2 KECCAK256 PUSH1 0x40 MLOAD PUSH1 0x1 PUSH1 0x1 PUSH1 0xE0 SHL SUB NOT PUSH1 0xE0 DUP7 SWAP1 SHL AND DUP2 MSTORE PUSH4 0xFFFFFFFF DUP9 AND PUSH1 0x44 DUP3 ADD MSTORE PUSH1 0x60 PUSH1 0x4 DUP3 ADD SWAP1 DUP2 MSTORE DUP5 SLOAD PUSH1 0x2 PUSH1 0x0 NOT PUSH2 0x100 PUSH1 0x1 DUP5 AND ISZERO MUL ADD SWAP1 SWAP2 AND DIV PUSH1 0x64 DUP4 ADD DUP2 SWAP1 MSTORE SWAP3 SWAP1 SWAP4 ADD SWAP3 DUP9 SWAP3 SWAP1 SWAP2 DUP3 SWAP2 PUSH1 0x24 DUP3 ADD SWAP2 PUSH1 0x84 ADD SWAP1 DUP8 SWAP1 DUP1 ISZERO PUSH2 0x1C12 JUMPI DUP1 PUSH1 0x1F LT PUSH2 0x1BE7 JUMPI PUSH2 0x100 DUP1 DUP4 SLOAD DIV MUL DUP4 MSTORE SWAP2 PUSH1 0x20 ADD SWAP2 PUSH2 0x1C12 JUMP JUMPDEST DUP3 ADD SWAP2 SWAP1 PUSH1 0x0 MSTORE PUSH1 0x20 PUSH1 0x0 KECCAK256 SWAP1 JUMPDEST DUP2 SLOAD DUP2 MSTORE SWAP1 PUSH1 0x1 ADD SWAP1 PUSH1 0x20 ADD DUP1 DUP4 GT PUSH2 0x1BF5 JUMPI DUP3 SWAP1 SUB PUSH1 0x1F AND DUP3 ADD SWAP2 JUMPDEST POP POP DUP4 DUP2 SUB DUP3 MSTORE DUP6 SLOAD PUSH1 0x2 PUSH1 0x0 NOT PUSH2 0x100 PUSH1 0x1 DUP5 AND ISZERO MUL ADD SWAP1 SWAP2 AND DIV DUP1 DUP3 MSTORE PUSH1 0x20 SWAP1 SWAP2 ADD SWAP1 DUP7 SWAP1 DUP1 ISZERO PUSH2 0x1C86 JUMPI DUP1 PUSH1 0x1F LT PUSH2 0x1C5B JUMPI PUSH2 0x100 DUP1 DUP4 SLOAD DIV MUL DUP4 MSTORE SWAP2 PUSH1 0x20 ADD SWAP2 PUSH2 0x1C86 JUMP JUMPDEST DUP3 ADD SWAP2 SWAP1 PUSH1 0x0 MSTORE PUSH1 0x20 PUSH1 0x0 KECCAK256 SWAP1 JUMPDEST DUP2 SLOAD DUP2 MSTORE SWAP1 PUSH1 0x1 ADD SWAP1 PUSH1 0x20 ADD DUP1 DUP4 GT PUSH2 0x1C69 JUMPI DUP3 SWAP1 SUB PUSH1 0x1F AND DUP3 ADD SWAP2 JUMPDEST POP POP SWAP6 POP POP POP POP POP POP PUSH1 0x0 PUSH1 0x40 MLOAD DUP1 DUP4 SUB DUP2 PUSH1 0x0 DUP8 DUP1 EXTCODESIZE ISZERO DUP1 ISZERO PUSH2 0x1CA9 JUMPI PUSH1 0x0 DUP1 REVERT JUMPDEST POP GAS CALL ISZERO DUP1 ISZERO PUSH2 0x1CBD JUMPI RETURNDATASIZE PUSH1 0x0 DUP1 RETURNDATACOPY RETURNDATASIZE PUSH1 0x0 REVERT JUMPDEST POP POP PUSH1 0x1 SWAP1 SWAP3 ADD SWAP2 POP PUSH2 0x1AA8 SWAP1 POP JUMP JUMPDEST POP PUSH1 0x1 PUSH1 0x9 DUP5 PUSH4 0xFFFFFFFF AND DUP2 SLOAD DUP2 LT PUSH2 0x1CE3 JUMPI INVALID JUMPDEST PUSH1 0x0 SWAP2 DUP3 MSTORE PUSH1 0x20 SWAP1 SWAP2 KECCAK256 PUSH1 0x8 SWAP1 SWAP2 MUL ADD PUSH1 0x7 ADD DUP1 SLOAD PUSH1 0xFF NOT AND SWAP2 ISZERO ISZERO SWAP2 SWAP1 SWAP2 OR SWAP1 SSTORE POP POP POP JUMP JUMPDEST PUSH1 0x1 DUP2 JUMP JUMPDEST PUSH1 0x1 DUP1 SLOAD PUSH1 0x1 PUSH1 0x1 PUSH1 0xA0 SHL SUB NOT AND PUSH1 0x1 PUSH1 0x1 PUSH1 0xA0 SHL SUB DUP8 AND OR SWAP1 SSTORE DUP4 MLOAD PUSH1 0x0 SWAP1 PUSH2 0x1D40 SWAP1 PUSH1 0x2 SWAP1 PUSH1 0x20 DUP9 ADD SWAP1 PUSH2 0x3605 JUMP JUMPDEST POP PUSH1 0x7 DUP2 ADD DUP1 SLOAD PUSH1 0xFF NOT AND SWAP1 SSTORE PUSH1 0x9 SLOAD PUSH1 0x1 PUSH1 0x1 PUSH1 0xA0 SHL SUB DUP8 AND PUSH1 0x0 SWAP1 DUP2 MSTORE PUSH1 0x1 PUSH1 0x20 MSTORE PUSH1 0x40 SWAP1 KECCAK256 DUP1 SLOAD PUSH4 0xFFFFFFFF NOT AND PUSH1 0x0 NOT SWAP1 SWAP3 ADD PUSH4 0xFFFFFFFF AND SWAP2 SWAP1 SWAP2 OR SWAP1 SSTORE PUSH2 0x1D8B PUSH2 0x3683 JUMP JUMPDEST PUSH2 0x1D94 DUP6 PUSH2 0x338D JUMP JUMPDEST SWAP1 POP PUSH2 0x1D9E PUSH2 0x3683 JUMP JUMPDEST PUSH2 0x1DA7 DUP6 PUSH2 0x338D JUMP JUMPDEST SWAP1 POP PUSH2 0x1DB1 PUSH2 0x3683 JUMP JUMPDEST PUSH2 0x1DD3 PUSH1 0x40 MLOAD DUP1 PUSH1 0x40 ADD PUSH1 0x40 MSTORE DUP1 PUSH1 0x1 DUP2 MSTORE PUSH1 0x20 ADD PUSH1 0xB PUSH1 0xFA SHL DUP2 MSTORE POP PUSH2 0x338D JUMP JUMPDEST SWAP1 POP PUSH1 0x0 PUSH2 0x1DE7 DUP5 DUP4 PUSH4 0xFFFFFFFF PUSH2 0x33B2 AND JUMP JUMPDEST PUSH1 0x1 ADD SWAP1 POP PUSH1 0x0 JUMPDEST DUP2 PUSH4 0xFFFFFFFF AND DUP2 PUSH4 0xFFFFFFFF AND LT ISZERO PUSH2 0x208D JUMPI PUSH1 0x60 PUSH2 0x1E1D PUSH2 0x1E18 DUP8 DUP7 PUSH4 0xFFFFFFFF PUSH2 0x341F AND JUMP JUMPDEST PUSH2 0x3432 JUMP JUMPDEST SWAP1 POP PUSH1 0x60 PUSH2 0x1E34 PUSH2 0x1E18 DUP8 DUP8 PUSH4 0xFFFFFFFF PUSH2 0x341F AND JUMP JUMPDEST SWAP1 POP DUP8 PUSH1 0x4 ADD DUP3 PUSH1 0x40 MLOAD DUP1 DUP3 DUP1 MLOAD SWAP1 PUSH1 0x20 ADD SWAP1 DUP1 DUP4 DUP4 JUMPDEST PUSH1 0x20 DUP4 LT PUSH2 0x1E6A JUMPI DUP1 MLOAD DUP3 MSTORE PUSH1 0x1F NOT SWAP1 SWAP3 ADD SWAP2 PUSH1 0x20 SWAP2 DUP3 ADD SWAP2 ADD PUSH2 0x1E4B JUMP JUMPDEST MLOAD DUP2 MLOAD PUSH1 0x20 SWAP4 DUP5 SUB PUSH2 0x100 EXP PUSH1 0x0 NOT ADD DUP1 NOT SWAP1 SWAP3 AND SWAP2 AND OR SWAP1 MSTORE SWAP3 ADD SWAP5 DUP6 MSTORE POP PUSH1 0x40 MLOAD SWAP4 DUP5 SWAP1 SUB ADD SWAP1 SWAP3 KECCAK256 SLOAD PUSH1 0xFF AND SWAP2 POP PUSH2 0x1FE9 SWAP1 POP JUMPI PUSH1 0x3 DUP9 ADD DUP1 SLOAD PUSH1 0x1 DUP2 ADD DUP3 SSTORE PUSH1 0x0 SWAP2 DUP3 MSTORE PUSH1 0x20 SWAP2 DUP3 SWAP1 KECCAK256 DUP5 MLOAD PUSH2 0x1ECC SWAP4 SWAP2 SWAP1 SWAP3 ADD SWAP2 SWAP1 DUP6 ADD SWAP1 PUSH2 0x3605 JUMP JUMPDEST POP PUSH1 0x1 DUP9 PUSH1 0x4 ADD DUP4 PUSH1 0x40 MLOAD DUP1 DUP3 DUP1 MLOAD SWAP1 PUSH1 0x20 ADD SWAP1 DUP1 DUP4 DUP4 JUMPDEST PUSH1 0x20 DUP4 LT PUSH2 0x1F03 JUMPI DUP1 MLOAD DUP3 MSTORE PUSH1 0x1F NOT SWAP1 SWAP3 ADD SWAP2 PUSH1 0x20 SWAP2 DUP3 ADD SWAP2 ADD PUSH2 0x1EE4 JUMP JUMPDEST MLOAD DUP2 MLOAD PUSH1 0x20 SWAP4 DUP5 SUB PUSH2 0x100 EXP PUSH1 0x0 NOT ADD DUP1 NOT SWAP1 SWAP3 AND SWAP2 AND OR SWAP1 MSTORE SWAP3 ADD SWAP5 DUP6 MSTORE POP PUSH1 0x40 MLOAD SWAP4 DUP5 SWAP1 SUB DUP2 ADD DUP5 KECCAK256 DUP1 SLOAD PUSH1 0xFF NOT AND SWAP6 ISZERO ISZERO SWAP6 SWAP1 SWAP6 OR SWAP1 SWAP5 SSTORE POP POP DUP4 MLOAD DUP6 SWAP3 PUSH1 0x5 DUP13 ADD SWAP3 DUP7 SWAP3 SWAP1 SWAP2 DUP3 SWAP2 SWAP1 DUP5 ADD SWAP1 DUP1 DUP4 DUP4 JUMPDEST PUSH1 0x20 DUP4 LT PUSH2 0x1F76 JUMPI DUP1 MLOAD DUP3 MSTORE PUSH1 0x1F NOT SWAP1 SWAP3 ADD SWAP2 PUSH1 0x20 SWAP2 DUP3 ADD SWAP2 ADD PUSH2 0x1F57 JUMP JUMPDEST MLOAD DUP2 MLOAD PUSH1 0x20 SWAP4 DUP5 SUB PUSH2 0x100 EXP PUSH1 0x0 NOT ADD DUP1 NOT SWAP1 SWAP3 AND SWAP2 AND OR SWAP1 MSTORE SWAP3 ADD SWAP5 DUP6 MSTORE POP PUSH1 0x40 MLOAD SWAP4 DUP5 SWAP1 SUB DUP2 ADD SWAP1 SWAP4 KECCAK256 DUP1 SLOAD PUSH4 0xFFFFFFFF NOT AND PUSH4 0xFFFFFFFF SWAP6 SWAP1 SWAP6 AND SWAP5 SWAP1 SWAP5 OR SWAP1 SWAP4 SSTORE POP PUSH1 0x6 DUP11 ADD DUP1 SLOAD PUSH1 0x1 DUP2 ADD DUP3 SSTORE PUSH1 0x0 SWAP2 DUP3 MSTORE SWAP1 DUP3 SWAP1 KECCAK256 DUP5 MLOAD PUSH2 0x1FE3 SWAP5 POP SWAP2 ADD SWAP2 DUP5 ADD SWAP1 PUSH2 0x3605 JUMP JUMPDEST POP PUSH2 0x2083 JUMP JUMPDEST DUP1 DUP9 PUSH1 0x6 ADD DUP10 PUSH1 0x5 ADD DUP5 PUSH1 0x40 MLOAD DUP1 DUP3 DUP1 MLOAD SWAP1 PUSH1 0x20 ADD SWAP1 DUP1 DUP4 DUP4 JUMPDEST PUSH1 0x20 DUP4 LT PUSH2 0x2022 JUMPI DUP1 MLOAD DUP3 MSTORE PUSH1 0x1F NOT SWAP1 SWAP3 ADD SWAP2 PUSH1 0x20 SWAP2 DUP3 ADD SWAP2 ADD PUSH2 0x2003 JUMP JUMPDEST MLOAD DUP2 MLOAD PUSH1 0x20 SWAP4 DUP5 SUB PUSH2 0x100 EXP PUSH1 0x0 NOT ADD DUP1 NOT SWAP1 SWAP3 AND SWAP2 AND OR SWAP1 MSTORE SWAP3 ADD SWAP5 DUP6 MSTORE POP PUSH1 0x40 MLOAD SWAP4 DUP5 SWAP1 SUB ADD SWAP1 SWAP3 KECCAK256 SLOAD DUP4 SLOAD PUSH4 0xFFFFFFFF SWAP1 SWAP2 AND SWAP3 POP DUP3 LT SWAP1 POP PUSH2 0x2064 JUMPI INVALID JUMPDEST SWAP1 PUSH1 0x0 MSTORE PUSH1 0x20 PUSH1 0x0 KECCAK256 ADD SWAP1 DUP1 MLOAD SWAP1 PUSH1 0x20 ADD SWAP1 PUSH2 0x2081 SWAP3 SWAP2 SWAP1 PUSH2 0x3605 JUMP JUMPDEST POP JUMPDEST POP POP PUSH1 0x1 ADD PUSH2 0x1DEF JUMP JUMPDEST POP PUSH1 0x9 DUP1 SLOAD PUSH1 0x1 DUP2 DUP2 ADD DUP4 SSTORE PUSH1 0x0 SWAP3 SWAP1 SWAP3 MSTORE DUP7 SLOAD PUSH1 0x8 SWAP1 SWAP2 MUL PUSH32 0x6E1540171B6C0C960B71A7020D9F60077F6AF931A8BBF590DA0223DACF75C7AF DUP2 ADD DUP1 SLOAD PUSH1 0x1 PUSH1 0x1 PUSH1 0xA0 SHL SUB NOT SWAP1 DUP2 AND PUSH1 0x1 PUSH1 0x1 PUSH1 0xA0 SHL SUB SWAP5 DUP6 AND OR DUP3 SSTORE DUP5 DUP11 ADD SLOAD PUSH32 0x6E1540171B6C0C960B71A7020D9F60077F6AF931A8BBF590DA0223DACF75C7B0 DUP5 ADD DUP1 SLOAD SWAP1 SWAP3 AND SWAP5 AND SWAP4 SWAP1 SWAP4 OR SWAP1 SWAP3 SSTORE PUSH1 0x2 DUP1 DUP10 ADD DUP1 SLOAD DUP11 SWAP6 PUSH2 0x215F SWAP5 PUSH32 0x6E1540171B6C0C960B71A7020D9F60077F6AF931A8BBF590DA0223DACF75C7B1 ADD SWAP4 SWAP1 DUP3 AND ISZERO PUSH2 0x100 MUL PUSH1 0x0 NOT ADD SWAP1 SWAP2 AND DIV PUSH2 0x369D JUMP JUMPDEST POP PUSH1 0x3 DUP3 DUP2 ADD DUP1 SLOAD PUSH2 0x2174 SWAP3 DUP5 ADD SWAP2 SWAP1 PUSH2 0x3712 JUMP JUMPDEST POP PUSH1 0x6 DUP3 DUP2 ADD DUP1 SLOAD PUSH2 0x2189 SWAP3 DUP5 ADD SWAP2 SWAP1 PUSH2 0x3712 JUMP JUMPDEST POP PUSH1 0x7 SWAP2 DUP3 ADD SLOAD SWAP2 ADD DUP1 SLOAD PUSH1 0xFF NOT AND PUSH1 0xFF SWAP1 SWAP3 AND ISZERO ISZERO SWAP2 SWAP1 SWAP2 OR SWAP1 SSTORE DUP6 ISZERO PUSH2 0x21BB JUMPI PUSH1 0x9 SLOAD PUSH2 0x21BB SWAP1 PUSH1 0x0 NOT ADD PUSH2 0x192C JUMP JUMPDEST POP POP POP POP POP POP POP POP POP POP JUMP JUMPDEST PUSH1 0x40 DUP1 MLOAD PUSH4 0x4F2BCBEF PUSH1 0xE0 SHL DUP2 MSTORE PUSH4 0xFFFFFFFF DUP4 AND PUSH1 0x4 DUP3 ADD MSTORE SWAP1 MLOAD DUP4 SWAP2 PUSH1 0x1 PUSH1 0x1 PUSH1 0xA0 SHL SUB DUP4 AND SWAP2 PUSH4 0x4F2BCBEF SWAP2 PUSH1 0x24 DUP1 DUP3 ADD SWAP3 PUSH1 0x0 SWAP3 SWAP1 SWAP2 SWAP1 DUP3 SWAP1 SUB ADD DUP2 DUP4 DUP8 DUP1 EXTCODESIZE ISZERO DUP1 ISZERO PUSH2 0x2217 JUMPI PUSH1 0x0 DUP1 REVERT JUMPDEST POP GAS CALL ISZERO DUP1 ISZERO PUSH2 0x222B JUMPI RETURNDATASIZE PUSH1 0x0 DUP1 RETURNDATACOPY RETURNDATASIZE PUSH1 0x0 REVERT JUMPDEST POP POP POP POP POP POP POP JUMP JUMPDEST PUSH1 0x7 DUP2 DUP2 SLOAD DUP2 LT PUSH2 0x2241 JUMPI INVALID JUMPDEST PUSH1 0x0 SWAP2 DUP3 MSTORE PUSH1 0x20 SWAP2 DUP3 SWAP1 KECCAK256 PUSH1 0x8 SWAP1 SWAP2 MUL ADD DUP1 SLOAD PUSH1 0x1 DUP1 DUP4 ADD SLOAD PUSH1 0x2 DUP1 DUP6 ADD DUP1 SLOAD PUSH1 0x40 DUP1 MLOAD PUSH1 0x1F PUSH1 0x0 NOT SWAP8 DUP5 AND ISZERO PUSH2 0x100 MUL SWAP8 SWAP1 SWAP8 ADD SWAP1 SWAP3 AND SWAP4 SWAP1 SWAP4 DIV SWAP5 DUP6 ADD DUP9 SWAP1 DIV DUP9 MUL DUP2 ADD DUP9 ADD SWAP1 SWAP3 MSTORE DUP4 DUP3 MSTORE PUSH1 0x1 PUSH1 0x1 PUSH1 0xA0 SHL SUB SWAP5 DUP6 AND SWAP8 POP SWAP2 SWAP1 SWAP4 AND SWAP5 SWAP1 SWAP2 SWAP1 DUP4 ADD DUP3 DUP3 DUP1 ISZERO PUSH2 0x22F5 JUMPI DUP1 PUSH1 0x1F LT PUSH2 0x22CA JUMPI PUSH2 0x100 DUP1 DUP4 SLOAD DIV MUL DUP4 MSTORE SWAP2 PUSH1 0x20 ADD SWAP2 PUSH2 0x22F5 JUMP JUMPDEST DUP3 ADD SWAP2 SWAP1 PUSH1 0x0 MSTORE PUSH1 0x20 PUSH1 0x0 KECCAK256 SWAP1 JUMPDEST DUP2 SLOAD DUP2 MSTORE SWAP1 PUSH1 0x1 ADD SWAP1 PUSH1 0x20 ADD DUP1 DUP4 GT PUSH2 0x22D8 JUMPI DUP3 SWAP1 SUB PUSH1 0x1F AND DUP3 ADD SWAP2 JUMPDEST POP POP POP PUSH1 0x7 SWAP1 SWAP4 ADD SLOAD SWAP2 SWAP3 POP POP PUSH1 0xFF AND DUP5 JUMP JUMPDEST PUSH1 0x7 DUP2 PUSH4 0xFFFFFFFF AND DUP2 SLOAD DUP2 LT PUSH2 0x231B JUMPI INVALID JUMPDEST PUSH1 0x0 SWAP2 DUP3 MSTORE PUSH1 0x20 DUP1 DUP4 KECCAK256 PUSH1 0x6 PUSH1 0x8 SWAP1 SWAP4 MUL ADD SWAP2 SWAP1 SWAP2 ADD DUP1 SLOAD PUSH1 0x1 DUP2 ADD DUP3 SSTORE SWAP1 DUP4 MSTORE SWAP2 KECCAK256 PUSH2 0x234A SWAP2 ADD DUP5 DUP5 PUSH2 0x377C JUMP JUMPDEST POP PUSH1 0x7 DUP2 PUSH4 0xFFFFFFFF AND DUP2 SLOAD DUP2 LT PUSH2 0x235E JUMPI INVALID JUMPDEST PUSH1 0x0 SWAP2 DUP3 MSTORE PUSH1 0x20 DUP1 DUP4 KECCAK256 PUSH1 0x3 PUSH1 0x8 SWAP1 SWAP4 MUL ADD SWAP2 SWAP1 SWAP2 ADD DUP1 SLOAD PUSH1 0x1 DUP2 ADD DUP3 SSTORE SWAP1 DUP4 MSTORE SWAP2 KECCAK256 PUSH2 0x238D SWAP2 ADD DUP7 DUP7 PUSH2 0x377C JUMP JUMPDEST POP POP POP POP POP POP JUMP JUMPDEST PUSH1 0x0 PUSH1 0x9 DUP3 PUSH4 0xFFFFFFFF AND DUP2 SLOAD DUP2 LT PUSH2 0x1912 JUMPI INVALID JUMPDEST PUSH1 0x9 DUP2 DUP2 SLOAD DUP2 LT PUSH2 0x2241 JUMPI INVALID JUMPDEST PUSH1 0x6 PUSH1 0x20 SWAP1 DUP2 MSTORE PUSH1 0x0 SWAP3 DUP4 MSTORE PUSH1 0x40 SWAP1 SWAP3 KECCAK256 DUP2 MLOAD DUP1 DUP4 ADD DUP5 ADD DUP1 MLOAD SWAP3 DUP2 MSTORE SWAP1 DUP5 ADD SWAP3 SWAP1 SWAP4 ADD SWAP2 SWAP1 SWAP2 KECCAK256 SWAP2 MSTORE SLOAD PUSH1 0xFF AND DUP2 JUMP JUMPDEST PUSH1 0x0 PUSH2 0x23F2 PUSH2 0x37EA JUMP JUMPDEST CALLER DUP2 MSTORE PUSH1 0x40 DUP1 MLOAD PUSH1 0x20 PUSH1 0x1F DUP7 ADD DUP2 SWAP1 DIV DUP2 MUL DUP3 ADD DUP2 ADD SWAP1 SWAP3 MSTORE DUP5 DUP2 MSTORE SWAP1 DUP6 SWAP1 DUP6 SWAP1 DUP2 SWAP1 DUP5 ADD DUP4 DUP3 DUP1 DUP3 DUP5 CALLDATACOPY PUSH1 0x0 SWAP3 ADD DUP3 SWAP1 MSTORE POP PUSH1 0x40 DUP7 ADD SWAP5 DUP6 MSTORE PUSH1 0xA0 DUP7 ADD DUP2 SWAP1 MSTORE PUSH1 0x7 DUP1 SLOAD PUSH1 0x1 DUP2 ADD DUP3 SSTORE SWAP2 MSTORE DUP6 MLOAD PUSH32 0xA66CC928B5EDB82AF9BD49922954155AB7B0942694BEA4CE44661D9A8736C688 PUSH1 0x8 SWAP1 SWAP3 MUL SWAP2 DUP3 ADD DUP1 SLOAD PUSH1 0x1 PUSH1 0x1 PUSH1 0xA0 SHL SUB NOT SWAP1 DUP2 AND PUSH1 0x1 PUSH1 0x1 PUSH1 0xA0 SHL SUB SWAP4 DUP5 AND OR DUP3 SSTORE PUSH1 0x20 DUP1 DUP11 ADD MLOAD PUSH32 0xA66CC928B5EDB82AF9BD49922954155AB7B0942694BEA4CE44661D9A8736C689 DUP7 ADD DUP1 SLOAD SWAP1 SWAP4 AND SWAP5 AND SWAP4 SWAP1 SWAP4 OR SWAP1 SSTORE SWAP6 MLOAD DUP1 MLOAD DUP9 SWAP8 SWAP7 POP PUSH2 0x24F6 SWAP6 POP PUSH32 0xA66CC928B5EDB82AF9BD49922954155AB7B0942694BEA4CE44661D9A8736C68A SWAP1 SWAP4 ADD SWAP4 POP ADD SWAP1 PUSH2 0x3605 JUMP JUMPDEST POP PUSH1 0x60 DUP3 ADD MLOAD DUP1 MLOAD PUSH2 0x2512 SWAP2 PUSH1 0x3 DUP5 ADD SWAP2 PUSH1 0x20 SWAP1 SWAP2 ADD SWAP1 PUSH2 0x3834 JUMP JUMPDEST POP PUSH1 0x80 DUP3 ADD MLOAD DUP1 MLOAD PUSH2 0x252E SWAP2 PUSH1 0x6 DUP5 ADD SWAP2 PUSH1 0x20 SWAP1 SWAP2 ADD SWAP1 PUSH2 0x3834 JUMP JUMPDEST POP PUSH1 0xA0 SWAP2 SWAP1 SWAP2 ADD MLOAD PUSH1 0x7 SWAP2 DUP3 ADD DUP1 SLOAD PUSH1 0xFF NOT AND SWAP2 ISZERO ISZERO SWAP2 SWAP1 SWAP2 OR SWAP1 SSTORE SLOAD PUSH1 0x0 NOT ADD SWAP5 SWAP4 POP POP POP POP JUMP JUMPDEST PUSH1 0x1 PUSH1 0x1 PUSH1 0xA0 SHL SUB AND PUSH1 0x0 SWAP1 DUP2 MSTORE PUSH1 0x5 PUSH1 0x20 MSTORE PUSH1 0x40 SWAP1 KECCAK256 SLOAD SWAP1 JUMP JUMPDEST PUSH1 0x9 SLOAD SWAP1 JUMP JUMPDEST PUSH1 0x1 PUSH1 0x20 MSTORE PUSH1 0x0 SWAP1 DUP2 MSTORE PUSH1 0x40 SWAP1 KECCAK256 SLOAD PUSH4 0xFFFFFFFF AND DUP2 JUMP JUMPDEST PUSH1 0x60 DUP1 PUSH1 0x7 DUP5 PUSH4 0xFFFFFFFF AND DUP2 SLOAD DUP2 LT PUSH2 0x25A6 JUMPI INVALID JUMPDEST SWAP1 PUSH1 0x0 MSTORE PUSH1 0x20 PUSH1 0x0 KECCAK256 SWAP1 PUSH1 0x8 MUL ADD PUSH1 0x3 ADD DUP4 PUSH4 0xFFFFFFFF AND DUP2 SLOAD DUP2 LT PUSH2 0x25C8 JUMPI INVALID JUMPDEST SWAP1 PUSH1 0x0 MSTORE PUSH1 0x20 PUSH1 0x0 KECCAK256 ADD PUSH1 0x7 DUP6 PUSH4 0xFFFFFFFF AND DUP2 SLOAD DUP2 LT PUSH2 0x1292 JUMPI INVALID JUMPDEST PUSH1 0x40 DUP1 MLOAD PUSH4 0x838EBD85 PUSH1 0xE0 SHL DUP2 MSTORE PUSH4 0xFFFFFFFF DUP4 AND PUSH1 0x4 DUP3 ADD MSTORE SWAP1 MLOAD DUP4 SWAP2 PUSH1 0x1 PUSH1 0x1 PUSH1 0xA0 SHL SUB DUP4 AND SWAP2 PUSH4 0x838EBD85 SWAP2 PUSH1 0x24 DUP1 DUP3 ADD SWAP3 PUSH1 0x0 SWAP3 SWAP1 SWAP2 SWAP1 DUP3 SWAP1 SUB ADD DUP2 DUP4 DUP8 DUP1 EXTCODESIZE ISZERO DUP1 ISZERO PUSH2 0x2217 JUMPI PUSH1 0x0 DUP1 REVERT JUMPDEST PUSH1 0x0 SLOAD PUSH1 0xFF AND DUP2 JUMP JUMPDEST PUSH1 0x40 MLOAD PUSH4 0x7E15477D PUSH1 0xE1 SHL DUP2 MSTORE PUSH4 0xFFFFFFFF DUP3 AND PUSH1 0x44 DUP3 ADD MSTORE PUSH1 0x60 PUSH1 0x4 DUP3 ADD SWAP1 DUP2 MSTORE DUP5 MLOAD PUSH1 0x64 DUP4 ADD MSTORE DUP5 MLOAD DUP7 SWAP3 PUSH1 0x1 PUSH1 0x1 PUSH1 0xA0 SHL SUB DUP5 AND SWAP3 PUSH4 0xFC2A8EFA SWAP3 DUP9 SWAP3 DUP9 SWAP3 DUP9 SWAP3 SWAP1 SWAP2 DUP3 SWAP2 PUSH1 0x24 DUP3 ADD SWAP2 PUSH1 0x84 ADD SWAP1 PUSH1 0x20 DUP9 ADD SWAP1 DUP1 DUP4 DUP4 PUSH1 0x0 JUMPDEST DUP4 DUP2 LT ISZERO PUSH2 0x26B2 JUMPI DUP2 DUP2 ADD MLOAD DUP4 DUP3 ADD MSTORE PUSH1 0x20 ADD PUSH2 0x269A JUMP JUMPDEST POP POP POP POP SWAP1 POP SWAP1 DUP2 ADD SWAP1 PUSH1 0x1F AND DUP1 ISZERO PUSH2 0x26DF JUMPI DUP1 DUP3 SUB DUP1 MLOAD PUSH1 0x1 DUP4 PUSH1 0x20 SUB PUSH2 0x100 EXP SUB NOT AND DUP2 MSTORE PUSH1 0x20 ADD SWAP2 POP JUMPDEST POP DUP4 DUP2 SUB DUP3 MSTORE DUP6 MLOAD DUP2 MSTORE DUP6 MLOAD PUSH1 0x20 SWAP2 DUP3 ADD SWAP2 DUP8 ADD SWAP1 DUP1 DUP4 DUP4 PUSH1 0x0 JUMPDEST DUP4 DUP2 LT ISZERO PUSH2 0x2712 JUMPI DUP2 DUP2 ADD MLOAD DUP4 DUP3 ADD MSTORE PUSH1 0x20 ADD PUSH2 0x26FA JUMP JUMPDEST POP POP POP POP SWAP1 POP SWAP1 DUP2 ADD SWAP1 PUSH1 0x1F AND DUP1 ISZERO PUSH2 0x273F JUMPI DUP1 DUP3 SUB DUP1 MLOAD PUSH1 0x1 DUP4 PUSH1 0x20 SUB PUSH2 0x100 EXP SUB NOT AND DUP2 MSTORE PUSH1 0x20 ADD SWAP2 POP JUMPDEST POP SWAP6 POP POP POP POP POP POP PUSH1 0x0 PUSH1 0x40 MLOAD DUP1 DUP4 SUB DUP2 PUSH1 0x0 DUP8 DUP1 EXTCODESIZE ISZERO DUP1 ISZERO PUSH2 0x2761 JUMPI PUSH1 0x0 DUP1 REVERT JUMPDEST POP GAS CALL ISZERO DUP1 ISZERO PUSH2 0x2775 JUMPI RETURNDATASIZE PUSH1 0x0 DUP1 RETURNDATACOPY RETURNDATASIZE PUSH1 0x0 REVERT JUMPDEST POP POP POP POP POP POP POP POP POP JUMP JUMPDEST PUSH1 0x4 PUSH1 0x20 MSTORE PUSH1 0x0 SWAP1 DUP2 MSTORE PUSH1 0x40 SWAP1 KECCAK256 SLOAD PUSH1 0xFF AND DUP2 JUMP JUMPDEST PUSH1 0x9 DUP2 PUSH4 0xFFFFFFFF AND DUP2 SLOAD DUP2 LT PUSH2 0x27A8 JUMPI INVALID JUMPDEST SWAP1 PUSH1 0x0 MSTORE PUSH1 0x20 PUSH1 0x0 KECCAK256 SWAP1 PUSH1 0x8 MUL ADD PUSH1 0x4 ADD DUP4 PUSH1 0x40 MLOAD DUP1 DUP3 DUP1 MLOAD SWAP1 PUSH1 0x20 ADD SWAP1 DUP1 DUP4 DUP4 JUMPDEST PUSH1 0x20 DUP4 LT PUSH2 0x27E9 JUMPI DUP1 MLOAD DUP3 MSTORE PUSH1 0x1F NOT SWAP1 SWAP3 ADD SWAP2 PUSH1 0x20 SWAP2 DUP3 ADD SWAP2 ADD PUSH2 0x27CA JUMP JUMPDEST MLOAD DUP2 MLOAD PUSH1 0x20 SWAP4 DUP5 SUB PUSH2 0x100 EXP PUSH1 0x0 NOT ADD DUP1 NOT SWAP1 SWAP3 AND SWAP2 AND OR SWAP1 MSTORE SWAP3 ADD SWAP5 DUP6 MSTORE POP PUSH1 0x40 MLOAD SWAP4 DUP5 SWAP1 SUB ADD SWAP1 SWAP3 KECCAK256 SLOAD PUSH1 0xFF AND SWAP2 POP PUSH2 0x2A0B SWAP1 POP JUMPI PUSH1 0x9 DUP2 PUSH4 0xFFFFFFFF AND DUP2 SLOAD DUP2 LT PUSH2 0x2833 JUMPI INVALID JUMPDEST SWAP1 PUSH1 0x0 MSTORE PUSH1 0x20 PUSH1 0x0 KECCAK256 SWAP1 PUSH1 0x8 MUL ADD PUSH1 0x3 ADD DUP1 SLOAD SWAP1 POP PUSH1 0x9 DUP3 PUSH4 0xFFFFFFFF AND DUP2 SLOAD DUP2 LT PUSH2 0x285B JUMPI INVALID JUMPDEST SWAP1 PUSH1 0x0 MSTORE PUSH1 0x20 PUSH1 0x0 KECCAK256 SWAP1 PUSH1 0x8 MUL ADD PUSH1 0x5 ADD DUP5 PUSH1 0x40 MLOAD DUP1 DUP3 DUP1 MLOAD SWAP1 PUSH1 0x20 ADD SWAP1 DUP1 DUP4 DUP4 JUMPDEST PUSH1 0x20 DUP4 LT PUSH2 0x289C JUMPI DUP1 MLOAD DUP3 MSTORE PUSH1 0x1F NOT SWAP1 SWAP3 ADD SWAP2 PUSH1 0x20 SWAP2 DUP3 ADD SWAP2 ADD PUSH2 0x287D JUMP JUMPDEST MLOAD DUP2 MLOAD PUSH1 0x20 SWAP4 DUP5 SUB PUSH2 0x100 EXP PUSH1 0x0 NOT ADD DUP1 NOT SWAP1 SWAP3 AND SWAP2 AND OR SWAP1 MSTORE SWAP3 ADD SWAP5 DUP6 MSTORE POP PUSH1 0x40 MLOAD SWAP4 DUP5 SWAP1 SUB ADD SWAP1 SWAP3 KECCAK256 DUP1 SLOAD PUSH4 0xFFFFFFFF NOT AND PUSH4 0xFFFFFFFF SWAP5 DUP6 AND OR SWAP1 SSTORE POP POP PUSH1 0x9 DUP1 SLOAD PUSH1 0x1 SWAP3 DUP5 AND SWAP1 DUP2 LT PUSH2 0x28EF JUMPI INVALID JUMPDEST SWAP1 PUSH1 0x0 MSTORE PUSH1 0x20 PUSH1 0x0 KECCAK256 SWAP1 PUSH1 0x8 MUL ADD PUSH1 0x4 ADD DUP5 PUSH1 0x40 MLOAD DUP1 DUP3 DUP1 MLOAD SWAP1 PUSH1 0x20 ADD SWAP1 DUP1 DUP4 DUP4 JUMPDEST PUSH1 0x20 DUP4 LT PUSH2 0x2930 JUMPI DUP1 MLOAD DUP3 MSTORE PUSH1 0x1F NOT SWAP1 SWAP3 ADD SWAP2 PUSH1 0x20 SWAP2 DUP3 ADD SWAP2 ADD PUSH2 0x2911 JUMP JUMPDEST MLOAD DUP2 MLOAD PUSH1 0x20 SWAP4 DUP5 SUB PUSH2 0x100 EXP PUSH1 0x0 NOT ADD DUP1 NOT SWAP1 SWAP3 AND SWAP2 AND OR SWAP1 MSTORE SWAP3 ADD SWAP5 DUP6 MSTORE POP PUSH1 0x40 MLOAD SWAP4 DUP5 SWAP1 SUB ADD SWAP1 SWAP3 KECCAK256 DUP1 SLOAD PUSH1 0xFF NOT AND SWAP4 ISZERO ISZERO SWAP4 SWAP1 SWAP4 OR SWAP1 SWAP3 SSTORE POP POP PUSH1 0x9 DUP1 SLOAD PUSH4 0xFFFFFFFF DUP4 AND SWAP1 DUP2 LT PUSH2 0x2981 JUMPI INVALID JUMPDEST PUSH1 0x0 SWAP2 DUP3 MSTORE PUSH1 0x20 DUP1 DUP4 KECCAK256 PUSH1 0x3 PUSH1 0x8 SWAP1 SWAP4 MUL ADD SWAP2 SWAP1 SWAP2 ADD DUP1 SLOAD PUSH1 0x1 DUP2 ADD DUP3 SSTORE SWAP1 DUP4 MSTORE SWAP2 DUP2 SWAP1 KECCAK256 DUP6 MLOAD PUSH2 0x29B9 SWAP4 SWAP2 SWAP1 SWAP2 ADD SWAP2 DUP7 ADD SWAP1 PUSH2 0x3605 JUMP JUMPDEST POP PUSH1 0x9 DUP2 PUSH4 0xFFFFFFFF AND DUP2 SLOAD DUP2 LT PUSH2 0x29CD JUMPI INVALID JUMPDEST PUSH1 0x0 SWAP2 DUP3 MSTORE PUSH1 0x20 DUP1 DUP4 KECCAK256 PUSH1 0x6 PUSH1 0x8 SWAP1 SWAP4 MUL ADD SWAP2 SWAP1 SWAP2 ADD DUP1 SLOAD PUSH1 0x1 DUP2 ADD DUP3 SSTORE SWAP1 DUP4 MSTORE SWAP2 DUP2 SWAP1 KECCAK256 DUP5 MLOAD PUSH2 0x2A05 SWAP4 SWAP2 SWAP1 SWAP2 ADD SWAP2 DUP6 ADD SWAP1 PUSH2 0x3605 JUMP JUMPDEST POP PUSH2 0x2AEF JUMP JUMPDEST PUSH1 0x0 PUSH1 0x9 DUP3 PUSH4 0xFFFFFFFF AND DUP2 SLOAD DUP2 LT PUSH2 0x2A20 JUMPI INVALID JUMPDEST SWAP1 PUSH1 0x0 MSTORE PUSH1 0x20 PUSH1 0x0 KECCAK256 SWAP1 PUSH1 0x8 MUL ADD PUSH1 0x5 ADD DUP5 PUSH1 0x40 MLOAD DUP1 DUP3 DUP1 MLOAD SWAP1 PUSH1 0x20 ADD SWAP1 DUP1 DUP4 DUP4 JUMPDEST PUSH1 0x20 DUP4 LT PUSH2 0x2A61 JUMPI DUP1 MLOAD DUP3 MSTORE PUSH1 0x1F NOT SWAP1 SWAP3 ADD SWAP2 PUSH1 0x20 SWAP2 DUP3 ADD SWAP2 ADD PUSH2 0x2A42 JUMP JUMPDEST MLOAD DUP2 MLOAD PUSH1 0x20 SWAP4 DUP5 SUB PUSH2 0x100 EXP PUSH1 0x0 NOT ADD DUP1 NOT SWAP1 SWAP3 AND SWAP2 AND OR SWAP1 MSTORE SWAP3 ADD SWAP5 DUP6 MSTORE POP PUSH1 0x40 MLOAD SWAP4 DUP5 SWAP1 SUB ADD SWAP1 SWAP3 KECCAK256 SLOAD PUSH1 0x9 DUP1 SLOAD PUSH4 0xFFFFFFFF SWAP3 DUP4 AND SWAP6 POP DUP8 SWAP5 POP SWAP1 SWAP3 POP SWAP1 DUP6 AND SWAP1 DUP2 LT PUSH2 0x2AAD JUMPI INVALID JUMPDEST SWAP1 PUSH1 0x0 MSTORE PUSH1 0x20 PUSH1 0x0 KECCAK256 SWAP1 PUSH1 0x8 MUL ADD PUSH1 0x6 ADD DUP3 PUSH4 0xFFFFFFFF AND DUP2 SLOAD DUP2 LT PUSH2 0x2ACF JUMPI INVALID JUMPDEST SWAP1 PUSH1 0x0 MSTORE PUSH1 0x20 PUSH1 0x0 KECCAK256 ADD SWAP1 DUP1 MLOAD SWAP1 PUSH1 0x20 ADD SWAP1 PUSH2 0x2AEC SWAP3 SWAP2 SWAP1 PUSH2 0x3605 JUMP JUMPDEST POP POP JUMPDEST POP POP POP JUMP JUMPDEST PUSH1 0x7 DUP2 PUSH4 0xFFFFFFFF AND DUP2 SLOAD DUP2 LT PUSH2 0x2B07 JUMPI INVALID JUMPDEST PUSH1 0x0 SWAP2 DUP3 MSTORE PUSH1 0x20 SWAP1 SWAP2 KECCAK256 PUSH1 0x7 PUSH1 0x8 SWAP1 SWAP3 MUL ADD ADD SLOAD PUSH1 0xFF AND ISZERO PUSH2 0x2B28 JUMPI PUSH1 0x0 DUP1 REVERT JUMPDEST PUSH1 0x0 PUSH1 0x2 PUSH1 0x0 PUSH1 0x7 DUP5 PUSH4 0xFFFFFFFF AND DUP2 SLOAD DUP2 LT PUSH2 0x2B41 JUMPI INVALID JUMPDEST PUSH1 0x0 SWAP2 DUP3 MSTORE PUSH1 0x20 DUP1 DUP4 KECCAK256 PUSH1 0x8 SWAP1 SWAP3 MUL SWAP1 SWAP2 ADD SLOAD PUSH1 0x1 PUSH1 0x1 PUSH1 0xA0 SHL SUB AND DUP4 MSTORE DUP3 ADD SWAP3 SWAP1 SWAP3 MSTORE PUSH1 0x40 ADD SWAP1 KECCAK256 PUSH1 0x7 DUP1 SLOAD PUSH4 0xFFFFFFFF DUP6 AND SWAP1 DUP2 LT PUSH2 0x2B7E JUMPI INVALID JUMPDEST SWAP1 PUSH1 0x0 MSTORE PUSH1 0x20 PUSH1 0x0 KECCAK256 SWAP1 PUSH1 0x8 MUL ADD PUSH1 0x2 ADD PUSH1 0x40 MLOAD DUP1 DUP3 DUP1 SLOAD PUSH1 0x1 DUP2 PUSH1 0x1 AND ISZERO PUSH2 0x100 MUL SUB AND PUSH1 0x2 SWAP1 DIV DUP1 ISZERO PUSH2 0x2BEA JUMPI DUP1 PUSH1 0x1F LT PUSH2 0x2BC8 JUMPI PUSH2 0x100 DUP1 DUP4 SLOAD DIV MUL DUP4 MSTORE SWAP2 DUP3 ADD SWAP2 PUSH2 0x2BEA JUMP JUMPDEST DUP3 ADD SWAP2 SWAP1 PUSH1 0x0 MSTORE PUSH1 0x20 PUSH1 0x0 KECCAK256 SWAP1 JUMPDEST DUP2 SLOAD DUP2 MSTORE SWAP1 PUSH1 0x1 ADD SWAP1 PUSH1 0x20 ADD DUP1 DUP4 GT PUSH2 0x2BD6 JUMPI JUMPDEST POP POP SWAP3 DUP4 MSTORE POP POP PUSH1 0x40 MLOAD SWAP1 DUP2 SWAP1 SUB PUSH1 0x20 ADD SWAP1 KECCAK256 SWAP1 POP PUSH1 0x0 JUMPDEST PUSH1 0x7 DUP4 PUSH4 0xFFFFFFFF AND DUP2 SLOAD DUP2 LT PUSH2 0x2C15 JUMPI INVALID JUMPDEST SWAP1 PUSH1 0x0 MSTORE PUSH1 0x20 PUSH1 0x0 KECCAK256 SWAP1 PUSH1 0x8 MUL ADD PUSH1 0x3 ADD DUP1 SLOAD SWAP1 POP DUP2 PUSH4 0xFFFFFFFF AND LT ISZERO PUSH2 0x3000 JUMPI PUSH1 0x7 DUP4 PUSH4 0xFFFFFFFF AND DUP2 SLOAD DUP2 LT PUSH2 0x2C4A JUMPI INVALID JUMPDEST SWAP1 PUSH1 0x0 MSTORE PUSH1 0x20 PUSH1 0x0 KECCAK256 SWAP1 PUSH1 0x8 MUL ADD PUSH1 0x6 ADD DUP2 PUSH4 0xFFFFFFFF AND DUP2 SLOAD DUP2 LT PUSH2 0x2C6C JUMPI INVALID JUMPDEST SWAP1 PUSH1 0x0 MSTORE PUSH1 0x20 PUSH1 0x0 KECCAK256 ADD DUP3 PUSH1 0x0 ADD PUSH1 0x7 DUP6 PUSH4 0xFFFFFFFF AND DUP2 SLOAD DUP2 LT PUSH2 0x2C8D JUMPI INVALID JUMPDEST SWAP1 PUSH1 0x0 MSTORE PUSH1 0x20 PUSH1 0x0 KECCAK256 SWAP1 PUSH1 0x8 MUL ADD PUSH1 0x3 ADD DUP4 PUSH4 0xFFFFFFFF AND DUP2 SLOAD DUP2 LT PUSH2 0x2CAF JUMPI INVALID JUMPDEST SWAP1 PUSH1 0x0 MSTORE PUSH1 0x20 PUSH1 0x0 KECCAK256 ADD PUSH1 0x40 MLOAD DUP1 DUP3 DUP1 SLOAD PUSH1 0x1 DUP2 PUSH1 0x1 AND ISZERO PUSH2 0x100 MUL SUB AND PUSH1 0x2 SWAP1 DIV DUP1 ISZERO PUSH2 0x2D14 JUMPI DUP1 PUSH1 0x1F LT PUSH2 0x2CF2 JUMPI PUSH2 0x100 DUP1 DUP4 SLOAD DIV MUL DUP4 MSTORE SWAP2 DUP3 ADD SWAP2 PUSH2 0x2D14 JUMP JUMPDEST DUP3 ADD SWAP2 SWAP1 PUSH1 0x0 MSTORE PUSH1 0x20 PUSH1 0x0 KECCAK256 SWAP1 JUMPDEST DUP2 SLOAD DUP2 MSTORE SWAP1 PUSH1 0x1 ADD SWAP1 PUSH1 0x20 ADD DUP1 DUP4 GT PUSH2 0x2D00 JUMPI JUMPDEST POP POP SWAP3 DUP4 MSTORE POP POP PUSH1 0x40 MLOAD SWAP1 DUP2 SWAP1 SUB PUSH1 0x20 ADD SWAP1 KECCAK256 DUP2 SLOAD PUSH2 0x2D46 SWAP3 SWAP1 PUSH1 0x2 PUSH1 0x0 NOT PUSH2 0x100 PUSH1 0x1 DUP5 AND ISZERO MUL ADD SWAP1 SWAP2 AND DIV PUSH2 0x369D JUMP JUMPDEST POP DUP2 PUSH1 0x1 ADD PUSH1 0x7 DUP5 PUSH4 0xFFFFFFFF AND DUP2 SLOAD DUP2 LT PUSH2 0x2D5E JUMPI INVALID JUMPDEST SWAP1 PUSH1 0x0 MSTORE PUSH1 0x20 PUSH1 0x0 KECCAK256 SWAP1 PUSH1 0x8 MUL ADD PUSH1 0x3 ADD DUP3 PUSH4 0xFFFFFFFF AND DUP2 SLOAD DUP2 LT PUSH2 0x2D80 JUMPI INVALID JUMPDEST SWAP1 PUSH1 0x0 MSTORE PUSH1 0x20 PUSH1 0x0 KECCAK256 ADD PUSH1 0x40 MLOAD DUP1 DUP3 DUP1 SLOAD PUSH1 0x1 DUP2 PUSH1 0x1 AND ISZERO PUSH2 0x100 MUL SUB AND PUSH1 0x2 SWAP1 DIV DUP1 ISZERO PUSH2 0x2DE5 JUMPI DUP1 PUSH1 0x1F LT PUSH2 0x2DC3 JUMPI PUSH2 0x100 DUP1 DUP4 SLOAD DIV MUL DUP4 MSTORE SWAP2 DUP3 ADD SWAP2 PUSH2 0x2DE5 JUMP JUMPDEST DUP3 ADD SWAP2 SWAP1 PUSH1 0x0 MSTORE PUSH1 0x20 PUSH1 0x0 KECCAK256 SWAP1 JUMPDEST DUP2 SLOAD DUP2 MSTORE SWAP1 PUSH1 0x1 ADD SWAP1 PUSH1 0x20 ADD DUP1 DUP4 GT PUSH2 0x2DD1 JUMPI JUMPDEST POP POP SWAP3 DUP4 MSTORE POP POP PUSH1 0x40 MLOAD SWAP1 DUP2 SWAP1 SUB PUSH1 0x20 ADD SWAP1 KECCAK256 SLOAD PUSH1 0xFF AND PUSH2 0x2FF8 JUMPI DUP2 PUSH1 0x2 ADD PUSH1 0x7 DUP5 PUSH4 0xFFFFFFFF AND DUP2 SLOAD DUP2 LT PUSH2 0x2E17 JUMPI INVALID JUMPDEST SWAP1 PUSH1 0x0 MSTORE PUSH1 0x20 PUSH1 0x0 KECCAK256 SWAP1 PUSH1 0x8 MUL ADD PUSH1 0x3 ADD DUP3 PUSH4 0xFFFFFFFF AND DUP2 SLOAD DUP2 LT PUSH2 0x2E39 JUMPI INVALID JUMPDEST SWAP1 PUSH1 0x0 MSTORE PUSH1 0x20 PUSH1 0x0 KECCAK256 ADD PUSH1 0x40 MLOAD PUSH1 0x20 ADD DUP1 DUP4 DUP1 SLOAD PUSH1 0x1 DUP2 PUSH1 0x1 AND ISZERO PUSH2 0x100 MUL SUB AND PUSH1 0x2 SWAP1 DIV DUP1 ISZERO PUSH2 0x2EA1 JUMPI DUP1 PUSH1 0x1F LT PUSH2 0x2E7F JUMPI PUSH2 0x100 DUP1 DUP4 SLOAD DIV MUL DUP4 MSTORE SWAP2 DUP3 ADD SWAP2 PUSH2 0x2EA1 JUMP JUMPDEST DUP3 ADD SWAP2 SWAP1 PUSH1 0x0 MSTORE PUSH1 0x20 PUSH1 0x0 KECCAK256 SWAP1 JUMPDEST DUP2 SLOAD DUP2 MSTORE SWAP1 PUSH1 0x1 ADD SWAP1 PUSH1 0x20 ADD DUP1 DUP4 GT PUSH2 0x2E8D JUMPI JUMPDEST POP POP DUP1 PUSH2 0x161 PUSH1 0xF5 SHL DUP2 MSTORE POP PUSH1 0x2 ADD DUP3 DUP1 SLOAD PUSH1 0x1 DUP2 PUSH1 0x1 AND ISZERO PUSH2 0x100 MUL SUB AND PUSH1 0x2 SWAP1 DIV DUP1 ISZERO PUSH2 0x2F07 JUMPI DUP1 PUSH1 0x1F LT PUSH2 0x2EE5 JUMPI PUSH2 0x100 DUP1 DUP4 SLOAD DIV MUL DUP4 MSTORE SWAP2 DUP3 ADD SWAP2 PUSH2 0x2F07 JUMP JUMPDEST DUP3 ADD SWAP2 SWAP1 PUSH1 0x0 MSTORE PUSH1 0x20 PUSH1 0x0 KECCAK256 SWAP1 JUMPDEST DUP2 SLOAD DUP2 MSTORE SWAP1 PUSH1 0x1 ADD SWAP1 PUSH1 0x20 ADD DUP1 DUP4 GT PUSH2 0x2EF3 JUMPI JUMPDEST POP POP PUSH1 0x40 DUP1 MLOAD PUSH1 0x1F NOT DUP2 DUP5 SUB ADD DUP2 MSTORE SWAP2 SWAP1 MSTORE DUP1 MLOAD PUSH2 0x2F32 SWAP5 POP PUSH1 0x2 DUP8 ADD SWAP4 POP PUSH1 0x20 SWAP1 SWAP2 ADD SWAP2 POP PUSH2 0x3605 JUMP JUMPDEST POP PUSH1 0x1 DUP3 PUSH1 0x1 ADD PUSH1 0x7 DUP6 PUSH4 0xFFFFFFFF AND DUP2 SLOAD DUP2 LT PUSH2 0x2F4C JUMPI INVALID JUMPDEST SWAP1 PUSH1 0x0 MSTORE PUSH1 0x20 PUSH1 0x0 KECCAK256 SWAP1 PUSH1 0x8 MUL ADD PUSH1 0x3 ADD DUP4 PUSH4 0xFFFFFFFF AND DUP2 SLOAD DUP2 LT PUSH2 0x2F6E JUMPI INVALID JUMPDEST SWAP1 PUSH1 0x0 MSTORE PUSH1 0x20 PUSH1 0x0 KECCAK256 ADD PUSH1 0x40 MLOAD DUP1 DUP3 DUP1 SLOAD PUSH1 0x1 DUP2 PUSH1 0x1 AND ISZERO PUSH2 0x100 MUL SUB AND PUSH1 0x2 SWAP1 DIV DUP1 ISZERO PUSH2 0x2FD3 JUMPI DUP1 PUSH1 0x1F LT PUSH2 0x2FB1 JUMPI PUSH2 0x100 DUP1 DUP4 SLOAD DIV MUL DUP4 MSTORE SWAP2 DUP3 ADD SWAP2 PUSH2 0x2FD3 JUMP JUMPDEST DUP3 ADD SWAP2 SWAP1 PUSH1 0x0 MSTORE PUSH1 0x20 PUSH1 0x0 KECCAK256 SWAP1 JUMPDEST DUP2 SLOAD DUP2 MSTORE SWAP1 PUSH1 0x1 ADD SWAP1 PUSH1 0x20 ADD DUP1 DUP4 GT PUSH2 0x2FBF JUMPI JUMPDEST POP POP SWAP3 DUP4 MSTORE POP POP PUSH1 0x40 MLOAD SWAP1 DUP2 SWAP1 SUB PUSH1 0x20 ADD SWAP1 KECCAK256 DUP1 SLOAD SWAP2 ISZERO ISZERO PUSH1 0xFF NOT SWAP1 SWAP3 AND SWAP2 SWAP1 SWAP2 OR SWAP1 SSTORE JUMPDEST PUSH1 0x1 ADD PUSH2 0x2C02 JUMP JUMPDEST POP PUSH1 0x4 PUSH1 0x0 PUSH1 0x7 DUP5 PUSH4 0xFFFFFFFF AND DUP2 SLOAD DUP2 LT PUSH2 0x3018 JUMPI INVALID JUMPDEST PUSH1 0x0 SWAP2 DUP3 MSTORE PUSH1 0x20 DUP1 DUP4 KECCAK256 PUSH1 0x8 SWAP1 SWAP3 MUL SWAP1 SWAP2 ADD SLOAD PUSH1 0x1 PUSH1 0x1 PUSH1 0xA0 SHL SUB AND DUP4 MSTORE DUP3 ADD SWAP3 SWAP1 SWAP3 MSTORE PUSH1 0x40 ADD SWAP1 KECCAK256 SLOAD PUSH1 0xFF AND PUSH2 0x30F3 JUMPI PUSH1 0x3 PUSH1 0x7 DUP4 PUSH4 0xFFFFFFFF AND DUP2 SLOAD DUP2 LT PUSH2 0x305E JUMPI INVALID JUMPDEST PUSH1 0x0 SWAP2 DUP3 MSTORE PUSH1 0x20 DUP1 DUP4 KECCAK256 PUSH1 0x8 SWAP1 SWAP3 MUL SWAP1 SWAP2 ADD SLOAD DUP4 SLOAD PUSH1 0x1 DUP2 DUP2 ADD DUP7 SSTORE SWAP5 DUP5 MSTORE SWAP2 DUP4 KECCAK256 SWAP1 SWAP2 ADD DUP1 SLOAD PUSH1 0x1 PUSH1 0x1 PUSH1 0xA0 SHL SUB NOT AND PUSH1 0x1 PUSH1 0x1 PUSH1 0xA0 SHL SUB SWAP1 SWAP3 AND SWAP2 SWAP1 SWAP2 OR SWAP1 SSTORE PUSH1 0x7 DUP1 SLOAD PUSH1 0x4 SWAP3 SWAP2 SWAP1 PUSH4 0xFFFFFFFF DUP8 AND SWAP1 DUP2 LT PUSH2 0x30B9 JUMPI INVALID JUMPDEST PUSH1 0x0 SWAP2 DUP3 MSTORE PUSH1 0x20 DUP1 DUP4 KECCAK256 PUSH1 0x8 SWAP3 SWAP1 SWAP3 MUL SWAP1 SWAP2 ADD SLOAD PUSH1 0x1 PUSH1 0x1 PUSH1 0xA0 SHL SUB AND DUP4 MSTORE DUP3 ADD SWAP3 SWAP1 SWAP3 MSTORE PUSH1 0x40 ADD SWAP1 KECCAK256 DUP1 SLOAD PUSH1 0xFF NOT AND SWAP2 ISZERO ISZERO SWAP2 SWAP1 SWAP2 OR SWAP1 SSTORE JUMPDEST PUSH1 0x6 PUSH1 0x0 PUSH1 0x7 DUP5 PUSH4 0xFFFFFFFF AND DUP2 SLOAD DUP2 LT PUSH2 0x310A JUMPI INVALID JUMPDEST PUSH1 0x0 SWAP2 DUP3 MSTORE PUSH1 0x20 DUP1 DUP4 KECCAK256 PUSH1 0x8 SWAP1 SWAP3 MUL SWAP1 SWAP2 ADD SLOAD PUSH1 0x1 PUSH1 0x1 PUSH1 0xA0 SHL SUB AND DUP4 MSTORE DUP3 ADD SWAP3 SWAP1 SWAP3 MSTORE PUSH1 0x40 ADD SWAP1 KECCAK256 PUSH1 0x7 DUP1 SLOAD PUSH4 0xFFFFFFFF DUP6 AND SWAP1 DUP2 LT PUSH2 0x3147 JUMPI INVALID JUMPDEST SWAP1 PUSH1 0x0 MSTORE PUSH1 0x20 PUSH1 0x0 KECCAK256 SWAP1 PUSH1 0x8 MUL ADD PUSH1 0x2 ADD PUSH1 0x40 MLOAD DUP1 DUP3 DUP1 SLOAD PUSH1 0x1 DUP2 PUSH1 0x1 AND ISZERO PUSH2 0x100 MUL SUB AND PUSH1 0x2 SWAP1 DIV DUP1 ISZERO PUSH2 0x31B3 JUMPI DUP1 PUSH1 0x1F LT PUSH2 0x3191 JUMPI PUSH2 0x100 DUP1 DUP4 SLOAD DIV MUL DUP4 MSTORE SWAP2 DUP3 ADD SWAP2 PUSH2 0x31B3 JUMP JUMPDEST DUP3 ADD SWAP2 SWAP1 PUSH1 0x0 MSTORE PUSH1 0x20 PUSH1 0x0 KECCAK256 SWAP1 JUMPDEST DUP2 SLOAD DUP2 MSTORE SWAP1 PUSH1 0x1 ADD SWAP1 PUSH1 0x20 ADD DUP1 DUP4 GT PUSH2 0x319F JUMPI JUMPDEST POP POP SWAP3 DUP4 MSTORE POP POP PUSH1 0x40 MLOAD SWAP1 DUP2 SWAP1 SUB PUSH1 0x20 ADD SWAP1 KECCAK256 SLOAD PUSH1 0xFF AND PUSH2 0x3352 JUMPI PUSH1 0x5 PUSH1 0x0 PUSH1 0x7 DUP5 PUSH4 0xFFFFFFFF AND DUP2 SLOAD DUP2 LT PUSH2 0x31E5 JUMPI INVALID JUMPDEST PUSH1 0x0 SWAP2 DUP3 MSTORE PUSH1 0x20 DUP1 DUP4 KECCAK256 PUSH1 0x8 SWAP1 SWAP3 MUL SWAP1 SWAP2 ADD SLOAD PUSH1 0x1 PUSH1 0x1 PUSH1 0xA0 SHL SUB AND DUP4 MSTORE DUP3 ADD SWAP3 SWAP1 SWAP3 MSTORE PUSH1 0x40 ADD SWAP1 KECCAK256 PUSH1 0x7 DUP1 SLOAD PUSH4 0xFFFFFFFF DUP6 AND SWAP1 DUP2 LT PUSH2 0x3222 JUMPI INVALID JUMPDEST PUSH1 0x0 SWAP2 DUP3 MSTORE PUSH1 0x20 DUP1 DUP4 KECCAK256 DUP5 SLOAD PUSH1 0x1 DUP1 DUP3 ADD DUP8 SSTORE SWAP6 DUP6 MSTORE SWAP2 SWAP1 SWAP4 KECCAK256 PUSH1 0x8 SWAP3 SWAP1 SWAP3 MUL SWAP1 SWAP3 ADD PUSH1 0x2 SWAP1 DUP2 ADD DUP1 SLOAD PUSH2 0x326A SWAP6 SWAP4 SWAP1 SWAP5 ADD SWAP4 SWAP1 SWAP3 PUSH1 0x0 NOT SWAP1 DUP3 AND ISZERO PUSH2 0x100 MUL ADD AND DIV PUSH2 0x369D JUMP JUMPDEST POP PUSH1 0x1 PUSH1 0x6 PUSH1 0x0 PUSH1 0x7 DUP6 PUSH4 0xFFFFFFFF AND DUP2 SLOAD DUP2 LT PUSH2 0x3284 JUMPI INVALID JUMPDEST PUSH1 0x0 SWAP2 DUP3 MSTORE PUSH1 0x20 DUP1 DUP4 KECCAK256 PUSH1 0x8 SWAP1 SWAP3 MUL SWAP1 SWAP2 ADD SLOAD PUSH1 0x1 PUSH1 0x1 PUSH1 0xA0 SHL SUB AND DUP4 MSTORE DUP3 ADD SWAP3 SWAP1 SWAP3 MSTORE PUSH1 0x40 ADD SWAP1 KECCAK256 PUSH1 0x7 DUP1 SLOAD PUSH4 0xFFFFFFFF DUP7 AND SWAP1 DUP2 LT PUSH2 0x32C1 JUMPI INVALID JUMPDEST SWAP1 PUSH1 0x0 MSTORE PUSH1 0x20 PUSH1 0x0 KECCAK256 SWAP1 PUSH1 0x8 MUL ADD PUSH1 0x2 ADD PUSH1 0x40 MLOAD DUP1 DUP3 DUP1 SLOAD PUSH1 0x1 DUP2 PUSH1 0x1 AND ISZERO PUSH2 0x100 MUL SUB AND PUSH1 0x2 SWAP1 DIV DUP1 ISZERO PUSH2 0x332D JUMPI DUP1 PUSH1 0x1F LT PUSH2 0x330B JUMPI PUSH2 0x100 DUP1 DUP4 SLOAD DIV MUL DUP4 MSTORE SWAP2 DUP3 ADD SWAP2 PUSH2 0x332D JUMP JUMPDEST DUP3 ADD SWAP2 SWAP1 PUSH1 0x0 MSTORE PUSH1 0x20 PUSH1 0x0 KECCAK256 SWAP1 JUMPDEST DUP2 SLOAD DUP2 MSTORE SWAP1 PUSH1 0x1 ADD SWAP1 PUSH1 0x20 ADD DUP1 DUP4 GT PUSH2 0x3319 JUMPI JUMPDEST POP POP SWAP3 DUP4 MSTORE POP POP PUSH1 0x40 MLOAD SWAP1 DUP2 SWAP1 SUB PUSH1 0x20 ADD SWAP1 KECCAK256 DUP1 SLOAD SWAP2 ISZERO ISZERO PUSH1 0xFF NOT SWAP1 SWAP3 AND SWAP2 SWAP1 SWAP2 OR SWAP1 SSTORE JUMPDEST PUSH1 0x1 PUSH1 0x7 DUP4 PUSH4 0xFFFFFFFF AND DUP2 SLOAD DUP2 LT PUSH2 0x3367 JUMPI INVALID JUMPDEST PUSH1 0x0 SWAP2 DUP3 MSTORE PUSH1 0x20 SWAP1 SWAP2 KECCAK256 PUSH1 0x8 SWAP1 SWAP2 MUL ADD PUSH1 0x7 ADD DUP1 SLOAD PUSH1 0xFF NOT AND SWAP2 ISZERO ISZERO SWAP2 SWAP1 SWAP2 OR SWAP1 SSTORE POP POP JUMP JUMPDEST PUSH2 0x3395 PUSH2 0x3683 JUMP JUMPDEST POP PUSH1 0x40 DUP1 MLOAD DUP1 DUP3 ADD SWAP1 SWAP2 MSTORE DUP2 MLOAD DUP2 MSTORE PUSH1 0x20 DUP3 DUP2 ADD SWAP1 DUP3 ADD MSTORE SWAP2 SWAP1 POP JUMP JUMPDEST PUSH1 0x0 DUP1 DUP3 PUSH1 0x0 ADD MLOAD PUSH2 0x33D6 DUP6 PUSH1 0x0 ADD MLOAD DUP7 PUSH1 0x20 ADD MLOAD DUP7 PUSH1 0x0 ADD MLOAD DUP8 PUSH1 0x20 ADD MLOAD PUSH2 0x3499 JUMP JUMPDEST ADD SWAP1 POP JUMPDEST DUP4 MLOAD PUSH1 0x20 DUP6 ADD MLOAD ADD DUP2 GT PUSH2 0x3418 JUMPI DUP3 MLOAD PUSH1 0x20 DUP1 DUP7 ADD MLOAD DUP7 MLOAD SWAP2 DUP7 ADD MLOAD PUSH1 0x1 SWAP1 SWAP6 ADD SWAP5 PUSH2 0x3410 SWAP3 SWAP2 DUP6 SUB SWAP1 SWAP2 SUB SWAP1 DUP5 SWAP1 DUP5 SWAP1 PUSH2 0x3499 JUMP JUMPDEST ADD SWAP1 POP PUSH2 0x33DA JUMP JUMPDEST POP SWAP3 SWAP2 POP POP JUMP JUMPDEST PUSH2 0x3427 PUSH2 0x3683 JUMP JUMPDEST PUSH2 0x3418 DUP4 DUP4 DUP4 PUSH2 0x3556 JUMP JUMPDEST PUSH1 0x60 DUP1 DUP3 PUSH1 0x0 ADD MLOAD PUSH8 0xFFFFFFFFFFFFFFFF DUP2 GT DUP1 ISZERO PUSH2 0x3450 JUMPI PUSH1 0x0 DUP1 REVERT JUMPDEST POP PUSH1 0x40 MLOAD SWAP1 DUP1 DUP3 MSTORE DUP1 PUSH1 0x1F ADD PUSH1 0x1F NOT AND PUSH1 0x20 ADD DUP3 ADD PUSH1 0x40 MSTORE DUP1 ISZERO PUSH2 0x347B JUMPI PUSH1 0x20 DUP3 ADD DUP2 DUP1 CALLDATASIZE DUP4 CALLDATACOPY ADD SWAP1 POP JUMPDEST POP SWAP1 POP PUSH1 0x0 PUSH1 0x20 DUP3 ADD SWAP1 POP PUSH2 0x3418 DUP2 DUP6 PUSH1 0x20 ADD MLOAD DUP7 PUSH1 0x0 ADD MLOAD PUSH2 0x35C7 JUMP JUMPDEST PUSH1 0x0 DUP4 DUP2 DUP7 DUP6 GT PUSH2 0x3547 JUMPI PUSH1 0x20 DUP6 GT PUSH2 0x350C JUMPI DUP4 MLOAD DUP3 MLOAD PUSH1 0x0 NOT PUSH1 0x8 PUSH1 0x20 DUP10 SWAP1 SUB MUL PUSH1 0x2 EXP ADD NOT SWAP2 DUP3 AND SWAP1 DUP9 DUP11 ADD DUP9 SWAP1 SUB SWAP1 DUP4 AND JUMPDEST DUP3 DUP2 EQ PUSH2 0x34FE JUMPI DUP2 DUP7 LT PUSH2 0x34EC JUMPI DUP11 DUP11 ADD SWAP7 POP POP POP POP POP POP POP PUSH2 0x354E JUMP JUMPDEST POP PUSH1 0x1 SWAP1 SWAP5 ADD DUP1 MLOAD SWAP1 SWAP5 SWAP1 DUP4 AND PUSH2 0x34CE JUMP JUMPDEST DUP6 SWAP7 POP POP POP POP POP POP POP PUSH2 0x354E JUMP JUMPDEST POP DUP4 DUP4 KECCAK256 PUSH1 0x0 SWAP1 JUMPDEST DUP6 DUP9 SUB DUP3 GT PUSH2 0x3545 JUMPI DUP6 DUP4 KECCAK256 DUP2 DUP2 EQ ISZERO PUSH2 0x3534 JUMPI DUP4 SWAP5 POP POP POP POP POP PUSH2 0x354E JUMP JUMPDEST POP PUSH1 0x1 SWAP3 DUP4 ADD SWAP3 SWAP2 SWAP1 SWAP2 ADD SWAP1 PUSH2 0x3514 JUMP JUMPDEST POP JUMPDEST POP POP POP DUP3 DUP5 ADD JUMPDEST SWAP5 SWAP4 POP POP POP POP JUMP JUMPDEST PUSH2 0x355E PUSH2 0x3683 JUMP JUMPDEST PUSH1 0x0 PUSH2 0x357C DUP6 PUSH1 0x0 ADD MLOAD DUP7 PUSH1 0x20 ADD MLOAD DUP7 PUSH1 0x0 ADD MLOAD DUP8 PUSH1 0x20 ADD MLOAD PUSH2 0x3499 JUMP JUMPDEST PUSH1 0x20 DUP1 DUP8 ADD DUP1 MLOAD SWAP2 DUP7 ADD SWAP2 SWAP1 SWAP2 MSTORE DUP1 MLOAD DUP3 SUB DUP6 MSTORE DUP7 MLOAD SWAP1 MLOAD SWAP2 SWAP3 POP ADD DUP2 EQ ISZERO PUSH2 0x35A8 JUMPI PUSH1 0x0 DUP6 MSTORE PUSH2 0x35BE JUMP JUMPDEST DUP4 MLOAD DUP4 MLOAD DUP7 MLOAD SWAP2 ADD SWAP1 SUB DUP6 MSTORE DUP4 MLOAD DUP2 ADD PUSH1 0x20 DUP7 ADD MSTORE JUMPDEST POP SWAP1 SWAP4 SWAP3 POP POP POP JUMP JUMPDEST JUMPDEST PUSH1 0x20 DUP2 LT PUSH2 0x35E7 JUMPI DUP2 MLOAD DUP4 MSTORE PUSH1 0x20 SWAP3 DUP4 ADD SWAP3 SWAP1 SWAP2 ADD SWAP1 PUSH1 0x1F NOT ADD PUSH2 0x35C8 JUMP JUMPDEST SWAP1 MLOAD DUP3 MLOAD PUSH1 0x20 SWAP3 SWAP1 SWAP3 SUB PUSH2 0x100 EXP PUSH1 0x0 NOT ADD DUP1 NOT SWAP1 SWAP2 AND SWAP2 AND OR SWAP1 MSTORE JUMP JUMPDEST DUP3 DUP1 SLOAD PUSH1 0x1 DUP2 PUSH1 0x1 AND ISZERO PUSH2 0x100 MUL SUB AND PUSH1 0x2 SWAP1 DIV SWAP1 PUSH1 0x0 MSTORE PUSH1 0x20 PUSH1 0x0 KECCAK256 SWAP1 PUSH1 0x1F ADD PUSH1 0x20 SWAP1 DIV DUP2 ADD SWAP3 DUP3 PUSH1 0x1F LT PUSH2 0x3646 JUMPI DUP1 MLOAD PUSH1 0xFF NOT AND DUP4 DUP1 ADD OR DUP6 SSTORE PUSH2 0x3673 JUMP JUMPDEST DUP3 DUP1 ADD PUSH1 0x1 ADD DUP6 SSTORE DUP3 ISZERO PUSH2 0x3673 JUMPI SWAP2 DUP3 ADD JUMPDEST DUP3 DUP2 GT ISZERO PUSH2 0x3673 JUMPI DUP3 MLOAD DUP3 SSTORE SWAP2 PUSH1 0x20 ADD SWAP2 SWAP1 PUSH1 0x1 ADD SWAP1 PUSH2 0x3658 JUMP JUMPDEST POP PUSH2 0x367F SWAP3 SWAP2 POP PUSH2 0x3881 JUMP JUMPDEST POP SWAP1 JUMP JUMPDEST PUSH1 0x40 MLOAD DUP1 PUSH1 0x40 ADD PUSH1 0x40 MSTORE DUP1 PUSH1 0x0 DUP2 MSTORE PUSH1 0x20 ADD PUSH1 0x0 DUP2 MSTORE POP SWAP1 JUMP JUMPDEST DUP3 DUP1 SLOAD PUSH1 0x1 DUP2 PUSH1 0x1 AND ISZERO PUSH2 0x100 MUL SUB AND PUSH1 0x2 SWAP1 DIV SWAP1 PUSH1 0x0 MSTORE PUSH1 0x20 PUSH1 0x0 KECCAK256 SWAP1 PUSH1 0x1F ADD PUSH1 0x20 SWAP1 DIV DUP2 ADD SWAP3 DUP3 PUSH1 0x1F LT PUSH2 0x36D6 JUMPI DUP1 SLOAD DUP6 SSTORE PUSH2 0x3673 JUMP JUMPDEST DUP3 DUP1 ADD PUSH1 0x1 ADD DUP6 SSTORE DUP3 ISZERO PUSH2 0x3673 JUMPI PUSH1 0x0 MSTORE PUSH1 0x20 PUSH1 0x0 KECCAK256 SWAP2 PUSH1 0x1F ADD PUSH1 0x20 SWAP1 DIV DUP3 ADD JUMPDEST DUP3 DUP2 GT ISZERO PUSH2 0x3673 JUMPI DUP3 SLOAD DUP3 SSTORE SWAP2 PUSH1 0x1 ADD SWAP2 SWAP1 PUSH1 0x1 ADD SWAP1 PUSH2 0x36F7 JUMP JUMPDEST DUP3 DUP1 SLOAD DUP3 DUP3 SSTORE SWAP1 PUSH1 0x0 MSTORE PUSH1 0x20 PUSH1 0x0 KECCAK256 SWAP1 DUP2 ADD SWAP3 DUP3 ISZERO PUSH2 0x3770 JUMPI PUSH1 0x0 MSTORE PUSH1 0x20 PUSH1 0x0 KECCAK256 SWAP2 DUP3 ADD JUMPDEST DUP3 DUP2 GT ISZERO PUSH2 0x3770 JUMPI DUP3 DUP3 SWAP1 DUP1 SLOAD PUSH1 0x1 DUP2 PUSH1 0x1 AND ISZERO PUSH2 0x100 MUL SUB AND PUSH1 0x2 SWAP1 DIV PUSH2 0x3760 SWAP3 SWAP2 SWAP1 PUSH2 0x369D JUMP JUMPDEST POP SWAP2 PUSH1 0x1 ADD SWAP2 SWAP1 PUSH1 0x1 ADD SWAP1 PUSH2 0x3737 JUMP JUMPDEST POP PUSH2 0x367F SWAP3 SWAP2 POP PUSH2 0x389B JUMP JUMPDEST DUP3 DUP1 SLOAD PUSH1 0x1 DUP2 PUSH1 0x1 AND ISZERO PUSH2 0x100 MUL SUB AND PUSH1 0x2 SWAP1 DIV SWAP1 PUSH1 0x0 MSTORE PUSH1 0x20 PUSH1 0x0 KECCAK256 SWAP1 PUSH1 0x1F ADD PUSH1 0x20 SWAP1 DIV DUP2 ADD SWAP3 DUP3 PUSH1 0x1F LT PUSH2 0x37BD JUMPI DUP3 DUP1 ADD PUSH1 0xFF NOT DUP3 CALLDATALOAD AND OR DUP6 SSTORE PUSH2 0x3673 JUMP JUMPDEST DUP3 DUP1 ADD PUSH1 0x1 ADD DUP6 SSTORE DUP3 ISZERO PUSH2 0x3673 JUMPI SWAP2 DUP3 ADD JUMPDEST DUP3 DUP2 GT ISZERO PUSH2 0x3673 JUMPI DUP3 CALLDATALOAD DUP3 SSTORE SWAP2 PUSH1 0x20 ADD SWAP2 SWAP1 PUSH1 0x1 ADD SWAP1 PUSH2 0x37CF JUMP JUMPDEST PUSH1 0x40 MLOAD DUP1 PUSH1 0xC0 ADD PUSH1 0x40 MSTORE DUP1 PUSH1 0x0 PUSH1 0x1 PUSH1 0x1 PUSH1 0xA0 SHL SUB AND DUP2 MSTORE PUSH1 0x20 ADD PUSH1 0x0 PUSH1 0x1 PUSH1 0x1 PUSH1 0xA0 SHL SUB AND DUP2 MSTORE PUSH1 0x20 ADD PUSH1 0x60 DUP2 MSTORE PUSH1 0x20 ADD PUSH1 0x60 DUP2 MSTORE PUSH1 0x20 ADD PUSH1 0x60 DUP2 MSTORE PUSH1 0x20 ADD PUSH1 0x0 ISZERO ISZERO DUP2 MSTORE POP SWAP1 JUMP JUMPDEST DUP3 DUP1 SLOAD DUP3 DUP3 SSTORE SWAP1 PUSH1 0x0 MSTORE PUSH1 0x20 PUSH1 0x0 KECCAK256 SWAP1 DUP2 ADD SWAP3 DUP3 ISZERO PUSH2 0x3770 JUMPI SWAP2 PUSH1 0x20 MUL DUP3 ADD JUMPDEST DUP3 DUP2 GT ISZERO PUSH2 0x3770 JUMPI DUP3 MLOAD DUP1 MLOAD PUSH2 0x3871 SWAP2 DUP5 SWAP2 PUSH1 0x20 SWAP1 SWAP2 ADD SWAP1 PUSH2 0x3605 JUMP JUMPDEST POP SWAP2 PUSH1 0x20 ADD SWAP2 SWAP1 PUSH1 0x1 ADD SWAP1 PUSH2 0x3854 JUMP JUMPDEST PUSH2 0x18BA SWAP2 SWAP1 JUMPDEST DUP1 DUP3 GT ISZERO PUSH2 0x367F JUMPI PUSH1 0x0 DUP2 SSTORE PUSH1 0x1 ADD PUSH2 0x3887 JUMP JUMPDEST PUSH2 0x18BA SWAP2 SWAP1 JUMPDEST DUP1 DUP3 GT ISZERO PUSH2 0x367F JUMPI PUSH1 0x0 PUSH2 0x38B5 DUP3 DUP3 PUSH2 0x38BE JUMP JUMPDEST POP PUSH1 0x1 ADD PUSH2 0x38A1 JUMP JUMPDEST POP DUP1 SLOAD PUSH1 0x1 DUP2 PUSH1 0x1 AND ISZERO PUSH2 0x100 MUL SUB AND PUSH1 0x2 SWAP1 DIV PUSH1 0x0 DUP3 SSTORE DUP1 PUSH1 0x1F LT PUSH2 0x38E4 JUMPI POP PUSH2 0x3902 JUMP JUMPDEST PUSH1 0x1F ADD PUSH1 0x20 SWAP1 DIV SWAP1 PUSH1 0x0 MSTORE PUSH1 0x20 PUSH1 0x0 KECCAK256 SWAP1 DUP2 ADD SWAP1 PUSH2 0x3902 SWAP2 SWAP1 PUSH2 0x3881 JUMP JUMPDEST POP JUMP INVALID LOG2 PUSH5 0x6970667358 0x22 SLT KECCAK256 0xEE DUP15 0xB0 0xD8 SWAP11 SWAP3 SWAP5 SLT PUSH3 0xB28949 SWAP6 COINBASE DUP15 0xAF JUMPDEST 0xA6 0xE8 PUSH10 0x838F167AFA2FA013866F STATICCALL PUSH18 0x64736F6C6343000606003300000000000000 "},"gasEstimates":{"creation":{"codeDepositCost":"2930200","executionCost":"3208","totalCost":"2933408"},"external":{"Storage(address,string)":"infinite","_newData(string)":"infinite","_receiveData(string,string,uint32)":"infinite","addDataMultipleToSend(address,string,string,uint32)":"infinite","addDataToSend(string,string,uint32)":"infinite","approveDataToReceive(uint32)":"infinite","approveDataToSend(uint32)":"infinite","approveMultipleToReceive(address,uint32)":"infinite","approveMultipleToSend(address,uint32)":"infinite","columnValue(address,string,string)":"infinite","dataSizeToReceive(uint32)":"2089","dataSizeToSend(uint32)":"2089","dataSource(uint256)":"2060","descriptionLength(address)":"1262","descriptionsBySource(address,uint256)":"infinite","fetchValue(address,string,string)":"infinite","hasWritten(address)":"1224","isEntity()":"271","isSingle()":"1054","keyValueOfDataToReceive(uint32,uint32)":"infinite","keyValueOfDataToSend(uint32,uint32)":"infinite","keysOfData(address,string)":"infinite","newDataMultipleToSend(address,address,string,string,string,bool)":"infinite","newDataToSend(address,string,string,string,bool)":"infinite","pendingDataToReceive(uint256)":"infinite","pendingDataToReceiveCount()":"1097","pendingDataToSend(uint256)":"infinite","pendingDataToSendCount()":"1052","recentSendingIndex(address)":"1206","sourceLength()":"1054","writtenDescription(address,string)":"infinite"},"internal":{"_approveDataToReceive(uint32)":"infinite"}},"methodIdentifiers":{"Storage(address,string)":"17361084","_newData(string)":"c09bc35b","_receiveData(string,string,uint32)":"928ec3e5","addDataMultipleToSend(address,string,string,uint32)":"f10f731c","addDataToSend(string,string,uint32)":"fc2a8efa","approveDataToReceive(uint32)":"4f2bcbef","approveDataToSend(uint32)":"838ebd85","approveMultipleToReceive(address,uint32)":"8e636514","approveMultipleToSend(address,uint32)":"e29e9290","columnValue(address,string,string)":"8cba76b1","dataSizeToReceive(uint32)":"834fde34","dataSizeToSend(uint32)":"a1a298da","dataSource(uint256)":"3296e5ca","descriptionLength(address)":"cf6ae528","descriptionsBySource(address,uint256)":"359589ac","fetchValue(address,string,string)":"30699892","hasWritten(address)":"f396b51f","isEntity()":"84aeb694","isSingle()":"e9dff3b4","keyValueOfDataToReceive(uint32,uint32)":"e24e7912","keyValueOfDataToSend(uint32,uint32)":"0f121925","keysOfData(address,string)":"08ac733a","newDataMultipleToSend(address,address,string,string,string,bool)":"2a4541d4","newDataToSend(address,string,string,string,bool)":"8c162152","pendingDataToReceive(uint256)":"9169b323","pendingDataToReceiveCount()":"4f51433d","pendingDataToSend(uint256)":"a63de8cf","pendingDataToSendCount()":"d027a93e","recentSendingIndex(address)":"db406597","sourceLength()":"4d981cf7","writtenDescription(address,string)":"a7ed5603"}},"storageLayout":{"storage":[{"astId":54,"contract":"Entity.sol:Entity","label":"isSingle","offset":0,"slot":"0","type":"t_bool"},{"astId":58,"contract":"Entity.sol:Entity","label":"recentSendingIndex","offset":0,"slot":"1","type":"t_mapping(t_address,t_uint32)"},{"astId":64,"contract":"Entity.sol:Entity","label":"Storage","offset":0,"slot":"2","type":"t_mapping(t_address,t_mapping(t_string_memory_ptr,t_struct(storingData)16_storage))"},{"astId":67,"contract":"Entity.sol:Entity","label":"dataSource","offset":0,"slot":"3","type":"t_array(t_address)dyn_storage"},{"astId":71,"contract":"Entity.sol:Entity","label":"hasWritten","offset":0,"slot":"4","type":"t_mapping(t_address,t_bool)"},{"astId":76,"contract":"Entity.sol:Entity","label":"descriptionsBySource","offset":0,"slot":"5","type":"t_mapping(t_address,t_array(t_string_storage)dyn_storage)"},{"astId":82,"contract":"Entity.sol:Entity","label":"writtenDescription","offset":0,"slot":"6","type":"t_mapping(t_address,t_mapping(t_string_memory_ptr,t_bool))"},{"astId":85,"contract":"Entity.sol:Entity","label":"pendingDataToReceive","offset":0,"slot":"7","type":"t_array(t_struct(pendingData)39_storage)dyn_storage"},{"astId":89,"contract":"Entity.sol:Entity","label":"toReceiveIsConfirmed","offset":0,"slot":"8","type":"t_mapping(t_uint32,t_bool)"},{"astId":92,"contract":"Entity.sol:Entity","label":"pendingDataToSend","offset":0,"slot":"9","type":"t_array(t_struct(pendingData)39_storage)dyn_storage"}],"types":{"t_address":{"encoding":"inplace","label":"address","numberOfBytes":"20"},"t_array(t_address)dyn_storage":{"base":"t_address","encoding":"dynamic_array","label":"address[]","numberOfBytes":"32"},"t_array(t_string_storage)dyn_storage":{"base":"t_string_storage","encoding":"dynamic_array","label":"string[]","numberOfBytes":"32"},"t_array(t_struct(pendingData)39_storage)dyn_storage":{"base":"t_struct(pendingData)39_storage","encoding":"dynamic_array","label":"struct Entity.pendingData[]","numberOfBytes":"32"},"t_bool":{"encoding":"inplace","label":"bool","numberOfBytes":"1"},"t_mapping(t_address,t_array(t_string_storage)dyn_storage)":{"encoding":"mapping","key":"t_address","label":"mapping(address => string[])","numberOfBytes":"32","value":"t_array(t_string_storage)dyn_storage"},"t_mapping(t_address,t_bool)":{"encoding":"mapping","key":"t_address","label":"mapping(address => bool)","numberOfBytes":"32","value":"t_bool"},"t_mapping(t_address,t_mapping(t_string_memory_ptr,t_bool))":{"encoding":"mapping","key":"t_address","label":"mapping(address => mapping(string => bool))","numberOfBytes":"32","value":"t_mapping(t_string_memory_ptr,t_bool)"},"t_mapping(t_address,t_mapping(t_string_memory_ptr,t_struct(storingData)16_storage))":{"encoding":"mapping","key":"t_address","label":"mapping(address => mapping(string => struct Entity.storingData))","numberOfBytes":"32","value":"t_mapping(t_string_memory_ptr,t_struct(storingData)16_storage)"},"t_mapping(t_address,t_uint32)":{"encoding":"mapping","key":"t_address","label":"mapping(address => uint32)","numberOfBytes":"32","value":"t_uint32"},"t_mapping(t_string_memory_ptr,t_bool)":{"encoding":"mapping","key":"t_string_memory_ptr","label":"mapping(string => bool)","numberOfBytes":"32","value":"t_bool"},"t_mapping(t_string_memory_ptr,t_string_storage)":{"encoding":"mapping","key":"t_string_memory_ptr","label":"mapping(string => string)","numberOfBytes":"32","value":"t_string_storage"},"t_mapping(t_string_memory_ptr,t_struct(storingData)16_storage)":{"encoding":"mapping","key":"t_string_memory_ptr","label":"mapping(string => struct Entity.storingData)","numberOfBytes":"32","value":"t_struct(storingData)16_storage"},"t_mapping(t_string_memory_ptr,t_uint32)":{"encoding":"mapping","key":"t_string_memory_ptr","label":"mapping(string => uint32)","numberOfBytes":"32","value":"t_uint32"},"t_mapping(t_uint32,t_bool)":{"encoding":"mapping","key":"t_uint32","label":"mapping(uint32 => bool)","numberOfBytes":"32","value":"t_bool"},"t_string_memory_ptr":{"encoding":"bytes","label":"string","numberOfBytes":"32"},"t_string_storage":{"encoding":"bytes","label":"string","numberOfBytes":"32"},"t_struct(pendingData)39_storage":{"encoding":"inplace","label":"struct Entity.pendingData","members":[{"astId":18,"contract":"Entity.sol:Entity","label":"source","offset":0,"slot":"0","type":"t_address"},{"astId":20,"contract":"Entity.sol:Entity","label":"destination","offset":0,"slot":"1","type":"t_address"},{"astId":22,"contract":"Entity.sol:Entity","label":"description","offset":0,"slot":"2","type":"t_string_storage"},{"astId":25,"contract":"Entity.sol:Entity","label":"key","offset":0,"slot":"3","type":"t_array(t_string_storage)dyn_storage"},{"astId":29,"contract":"Entity.sol:Entity","label":"keyExistence","offset":0,"slot":"4","type":"t_mapping(t_string_memory_ptr,t_bool)"},{"astId":33,"contract":"Entity.sol:Entity","label":"keyIndex","offset":0,"slot":"5","type":"t_mapping(t_string_memory_ptr,t_uint32)"},{"astId":36,"contract":"Entity.sol:Entity","label":"value","offset":0,"slot":"6","type":"t_array(t_string_storage)dyn_storage"},{"astId":38,"contract":"Entity.sol:Entity","label":"approved","offset":0,"slot":"7","type":"t_bool"}],"numberOfBytes":"256"},"t_struct(storingData)16_storage":{"encoding":"inplace","label":"struct Entity.storingData","members":[{"astId":9,"contract":"Entity.sol:Entity","label":"column","offset":0,"slot":"0","type":"t_mapping(t_string_memory_ptr,t_string_storage)"},{"astId":13,"contract":"Entity.sol:Entity","label":"keyExistence","offset":0,"slot":"1","type":"t_mapping(t_string_memory_ptr,t_bool)"},{"astId":15,"contract":"Entity.sol:Entity","label":"keys","offset":0,"slot":"2","type":"t_string_storage"}],"numberOfBytes":"96"},"t_uint32":{"encoding":"inplace","label":"uint32","numberOfBytes":"4"}}},"userdoc":{"methods":{}}}