{"abi":[{"inputs":[],"stateMutability":"nonpayable","type":"constructor"},{"inputs":[],"name":"MinistryofEducation","outputs":[{"internalType":"address","name":"","type":"address"}],"stateMutability":"view","type":"function"},{"inputs":[{"internalType":"address","name":"schoolAddr","type":"address"},{"internalType":"string","name":"schoolName","type":"string"}],"name":"addNewSchool","outputs":[],"stateMutability":"nonpayable","type":"function"},{"inputs":[],"name":"certHash","outputs":[{"internalType":"string","name":"","type":"string"}],"stateMutability":"view","type":"function"},{"inputs":[{"internalType":"uint256","name":"","type":"uint256"}],"name":"certHashOnChain","outputs":[{"internalType":"string","name":"","type":"string"}],"stateMutability":"view","type":"function"},{"inputs":[{"internalType":"address","name":"addr","type":"address"}],"name":"changeAddress","outputs":[],"stateMutability":"nonpayable","type":"function"},{"inputs":[{"internalType":"address","name":"student","type":"address"}],"name":"existence","outputs":[],"stateMutability":"view","type":"function"},{"inputs":[],"name":"getDeployedCerts","outputs":[{"internalType":"string[]","name":"","type":"string[]"}],"stateMutability":"view","type":"function"},{"inputs":[],"name":"getSchoolsCount","outputs":[{"internalType":"uint256","name":"","type":"uint256"}],"stateMutability":"view","type":"function"},{"inputs":[{"internalType":"address","name":"school","type":"address"}],"name":"legality","outputs":[],"stateMutability":"view","type":"function"},{"inputs":[{"internalType":"uint256","name":"","type":"uint256"}],"name":"schools","outputs":[{"internalType":"string","name":"name","type":"string"},{"internalType":"address","name":"schoolAddr","type":"address"}],"stateMutability":"view","type":"function"},{"inputs":[{"internalType":"string","name":"hashValue","type":"string"},{"internalType":"address","name":"student","type":"address"}],"name":"upload","outputs":[],"stateMutability":"nonpayable","type":"function"},{"inputs":[{"internalType":"string","name":"hashValue","type":"string"}],"name":"validation","outputs":[],"stateMutability":"nonpayable","type":"function"}],"devdoc":{"methods":{}},"evm":{"assembly":"    /* \"Verify.sol\":152:3260  contract Verify {\r... */\n  mstore(0x40, 0x80)\n    /* \"Verify.sol\":508:580  constructor() public {\r... */\n  callvalue\n    /* \"--CODEGEN--\":5:14   */\n  dup1\n    /* \"--CODEGEN--\":2:4   */\n  iszero\n  tag_1\n  jumpi\n    /* \"--CODEGEN--\":27:28   */\n  0x00\n    /* \"--CODEGEN--\":24:25   */\n  dup1\n    /* \"--CODEGEN--\":17:29   */\n  revert\n    /* \"--CODEGEN--\":2:4   */\ntag_1:\n    /* \"Verify.sol\":508:580  constructor() public {\r... */\n  pop\n    /* \"Verify.sol\":562:572  msg.sender */\n  caller\n    /* \"Verify.sol\":540:559  MinistryofEducation */\n  0x01\n  0x00\n    /* \"Verify.sol\":540:572  MinistryofEducation = msg.sender */\n  0x0100\n  exp\n  dup2\n  sload\n  dup2\n  0xffffffffffffffffffffffffffffffffffffffff\n  mul\n  not\n  and\n  swap1\n  dup4\n  0xffffffffffffffffffffffffffffffffffffffff\n  and\n  mul\n  or\n  swap1\n  sstore\n  pop\n    /* \"Verify.sol\":152:3260  contract Verify {\r... */\n  dataSize(sub_0)\n  dup1\n  dataOffset(sub_0)\n  0x00\n  codecopy\n  0x00\n  return\nstop\n\nsub_0: assembly {\n        /* \"Verify.sol\":152:3260  contract Verify {\r... */\n      mstore(0x40, 0x80)\n      callvalue\n        /* \"--CODEGEN--\":5:14   */\n      dup1\n        /* \"--CODEGEN--\":2:4   */\n      iszero\n      tag_1\n      jumpi\n        /* \"--CODEGEN--\":27:28   */\n      0x00\n        /* \"--CODEGEN--\":24:25   */\n      dup1\n        /* \"--CODEGEN--\":17:29   */\n      revert\n        /* \"--CODEGEN--\":2:4   */\n    tag_1:\n        /* \"Verify.sol\":152:3260  contract Verify {\r... */\n      pop\n      jumpi(tag_2, lt(calldatasize, 0x04))\n      shr(0xe0, calldataload(0x00))\n      dup1\n      0x6fb2ddaf\n      gt\n      tag_15\n      jumpi\n      dup1\n      0x6fb2ddaf\n      eq\n      tag_9\n      jumpi\n      dup1\n      0x719c0d04\n      eq\n      tag_10\n      jumpi\n      dup1\n      0xa336acfc\n      eq\n      tag_11\n      jumpi\n      dup1\n      0xdc0da51c\n      eq\n      tag_12\n      jumpi\n      dup1\n      0xfe2f3d8e\n      eq\n      tag_13\n      jumpi\n      dup1\n      0xfe64d6ff\n      eq\n      tag_14\n      jumpi\n      jump(tag_2)\n    tag_15:\n      dup1\n      0x01307b37\n      eq\n      tag_3\n      jumpi\n      dup1\n      0x03ecd77f\n      eq\n      tag_4\n      jumpi\n      dup1\n      0x04f737bb\n      eq\n      tag_5\n      jumpi\n      dup1\n      0x11913d6d\n      eq\n      tag_6\n      jumpi\n      dup1\n      0x4c0822f2\n      eq\n      tag_7\n      jumpi\n      dup1\n      0x5624e7c9\n      eq\n      tag_8\n      jumpi\n    tag_2:\n        /* \"--CODEGEN--\":12:13   */\n      0x00\n        /* \"--CODEGEN--\":9:10   */\n      dup1\n        /* \"--CODEGEN--\":2:14   */\n      revert\n        /* \"Verify.sol\":3041:3138  function getSchoolsCount() public view returns (uint256) {\r... */\n    tag_3:\n      tag_16\n      tag_17\n      jump\t// in\n    tag_16:\n      mload(0x40)\n      tag_18\n      swap2\n      swap1\n      jump(tag_19)\n    tag_18:\n      mload(0x40)\n      dup1\n      swap2\n      sub\n      swap1\n      return\n        /* \"Verify.sol\":2238:2624  function legality(address school) public view {\r... */\n    tag_4:\n      tag_20\n      0x04\n      dup1\n      calldatasize\n      sub\n      dup2\n      add\n      swap1\n      tag_21\n      swap2\n      swap1\n      jump(tag_22)\n    tag_21:\n      tag_23\n      jump\t// in\n    tag_20:\n      stop\n        /* \"Verify.sol\":1638:2084  function upload(string memory hashValue, address student) public restricted_school {\r... */\n    tag_5:\n      tag_24\n      0x04\n      dup1\n      calldatasize\n      sub\n      dup2\n      add\n      swap1\n      tag_25\n      swap2\n      swap1\n      jump(tag_26)\n    tag_25:\n      tag_27\n      jump\t// in\n    tag_24:\n      stop\n        /* \"Verify.sol\":2096:2226  function validation(string memory hashValue) public {\r... */\n    tag_6:\n      tag_28\n      0x04\n      dup1\n      calldatasize\n      sub\n      dup2\n      add\n      swap1\n      tag_29\n      swap2\n      swap1\n      jump(tag_30)\n    tag_29:\n      tag_31\n      jump\t// in\n    tag_28:\n      stop\n        /* \"Verify.sol\":369:391  string public certHash */\n    tag_7:\n      tag_32\n      tag_33\n      jump\t// in\n    tag_32:\n      mload(0x40)\n      tag_34\n      swap2\n      swap1\n      jump(tag_35)\n    tag_34:\n      mload(0x40)\n      dup1\n      swap2\n      sub\n      swap1\n      return\n        /* \"Verify.sol\":1049:1626  function addNewSchool(address schoolAddr, string memory schoolName) public restricted_ministry {\r... */\n    tag_8:\n      tag_36\n      0x04\n      dup1\n      calldatasize\n      sub\n      dup2\n      add\n      swap1\n      tag_37\n      swap2\n      swap1\n      jump(tag_38)\n    tag_37:\n      tag_39\n      jump\t// in\n    tag_36:\n      stop\n        /* \"Verify.sol\":3150:3257  function getDeployedCerts() public view returns (string[] memory) {\r... */\n    tag_9:\n      tag_40\n      tag_41\n      jump\t// in\n    tag_40:\n      mload(0x40)\n      tag_42\n      swap2\n      swap1\n      jump(tag_43)\n    tag_42:\n      mload(0x40)\n      dup1\n      swap2\n      sub\n      swap1\n      return\n        /* \"Verify.sol\":260:283  School[] public schools */\n    tag_10:\n      tag_44\n      0x04\n      dup1\n      calldatasize\n      sub\n      dup2\n      add\n      swap1\n      tag_45\n      swap2\n      swap1\n      jump(tag_46)\n    tag_45:\n      tag_47\n      jump\t// in\n    tag_44:\n      mload(0x40)\n      tag_48\n      swap3\n      swap2\n      swap1\n      jump(tag_49)\n    tag_48:\n      mload(0x40)\n      dup1\n      swap2\n      sub\n      swap1\n      return\n        /* \"Verify.sol\":2632:3029  function existence(address student) public view {\r... */\n    tag_11:\n      tag_50\n      0x04\n      dup1\n      calldatasize\n      sub\n      dup2\n      add\n      swap1\n      tag_51\n      swap2\n      swap1\n      jump(tag_22)\n    tag_51:\n      tag_52\n      jump\t// in\n    tag_50:\n      stop\n        /* \"Verify.sol\":331:362  string[] public certHashOnChain */\n    tag_12:\n      tag_53\n      0x04\n      dup1\n      calldatasize\n      sub\n      dup2\n      add\n      swap1\n      tag_54\n      swap2\n      swap1\n      jump(tag_46)\n    tag_54:\n      tag_55\n      jump\t// in\n    tag_53:\n      mload(0x40)\n      tag_56\n      swap2\n      swap1\n      jump(tag_35)\n    tag_56:\n      mload(0x40)\n      dup1\n      swap2\n      sub\n      swap1\n      return\n        /* \"Verify.sol\":290:324  address public MinistryofEducation */\n    tag_13:\n      tag_57\n      tag_58\n      jump\t// in\n    tag_57:\n      mload(0x40)\n      tag_59\n      swap2\n      swap1\n      jump(tag_60)\n    tag_59:\n      mload(0x40)\n      dup1\n      swap2\n      sub\n      swap1\n      return\n        /* \"Verify.sol\":962:1041  function changeAddress(address addr) public {\r... */\n    tag_14:\n      tag_61\n      0x04\n      dup1\n      calldatasize\n      sub\n      dup2\n      add\n      swap1\n      tag_62\n      swap2\n      swap1\n      jump(tag_22)\n    tag_62:\n      tag_63\n      jump\t// in\n    tag_61:\n      stop\n        /* \"Verify.sol\":3041:3138  function getSchoolsCount() public view returns (uint256) {\r... */\n    tag_17:\n        /* \"Verify.sol\":3089:3096  uint256 */\n      0x00\n        /* \"Verify.sol\":3116:3123  schools */\n      dup1\n        /* \"Verify.sol\":3116:3130  schools.length */\n      dup1\n      sload\n      swap1\n      pop\n        /* \"Verify.sol\":3109:3130  return schools.length */\n      swap1\n      pop\n        /* \"Verify.sol\":3041:3138  function getSchoolsCount() public view returns (uint256) {\r... */\n      swap1\n      jump\t// out\n        /* \"Verify.sol\":2238:2624  function legality(address school) public view {\r... */\n    tag_23:\n        /* \"Verify.sol\":2295:2314  Entity entitySchool */\n      0x00\n        /* \"Verify.sol\":2324:2330  school */\n      dup2\n        /* \"Verify.sol\":2295:2331  Entity entitySchool = Entity(school) */\n      swap1\n      pop\n        /* \"Verify.sol\":2342:2362  address addrRegistry */\n      0x00\n        /* \"Verify.sol\":2365:2377  entitySchool */\n      dup2\n        /* \"Verify.sol\":2365:2386  entitySchool.registry */\n      0xffffffffffffffffffffffffffffffffffffffff\n      and\n      0x7b103999\n        /* \"Verify.sol\":2365:2388  entitySchool.registry() */\n      mload(0x40)\n      dup2\n      0xffffffff\n      and\n      0xe0\n      shl\n      dup2\n      mstore\n      0x04\n      add\n      0x20\n      mload(0x40)\n      dup1\n      dup4\n      sub\n      dup2\n      dup7\n      dup1\n      extcodesize\n      iszero\n        /* \"--CODEGEN--\":5:14   */\n      dup1\n        /* \"--CODEGEN--\":2:4   */\n      iszero\n      tag_66\n      jumpi\n        /* \"--CODEGEN--\":27:28   */\n      0x00\n        /* \"--CODEGEN--\":24:25   */\n      dup1\n        /* \"--CODEGEN--\":17:29   */\n      revert\n        /* \"--CODEGEN--\":2:4   */\n    tag_66:\n        /* \"Verify.sol\":2365:2388  entitySchool.registry() */\n      pop\n      gas\n      staticcall\n      iszero\n        /* \"--CODEGEN--\":8:17   */\n      dup1\n        /* \"--CODEGEN--\":5:7   */\n      iszero\n      tag_68\n      jumpi\n        /* \"--CODEGEN--\":45:61   */\n      returndatasize\n        /* \"--CODEGEN--\":42:43   */\n      0x00\n        /* \"--CODEGEN--\":39:40   */\n      dup1\n        /* \"--CODEGEN--\":24:62   */\n      returndatacopy\n        /* \"--CODEGEN--\":77:93   */\n      returndatasize\n        /* \"--CODEGEN--\":74:75   */\n      0x00\n        /* \"--CODEGEN--\":67:94   */\n      revert\n        /* \"--CODEGEN--\":5:7   */\n    tag_68:\n        /* \"Verify.sol\":2365:2388  entitySchool.registry() */\n      pop\n      pop\n      pop\n      pop\n      mload(0x40)\n      returndatasize\n        /* \"--CODEGEN--\":101:105   */\n      0x1f\n        /* \"--CODEGEN--\":97:106   */\n      not\n        /* \"--CODEGEN--\":90:94   */\n      0x1f\n        /* \"--CODEGEN--\":84:88   */\n      dup3\n        /* \"--CODEGEN--\":80:95   */\n      add\n        /* \"--CODEGEN--\":76:107   */\n      and\n        /* \"--CODEGEN--\":69:74   */\n      dup3\n        /* \"--CODEGEN--\":65:108   */\n      add\n        /* \"--CODEGEN--\":126:132   */\n      dup1\n        /* \"--CODEGEN--\":120:124   */\n      0x40\n        /* \"--CODEGEN--\":113:133   */\n      mstore\n        /* \"--CODEGEN--\":0:138   */\n      pop\n        /* \"Verify.sol\":2365:2388  entitySchool.registry() */\n      dup2\n      add\n      swap1\n      tag_69\n      swap2\n      swap1\n      jump(tag_70)\n    tag_69:\n        /* \"Verify.sol\":2342:2388  address addrRegistry = entitySchool.registry() */\n      swap1\n      pop\n        /* \"Verify.sol\":2399:2422  Registry registrySchool */\n      0x00\n        /* \"Verify.sol\":2434:2446  addrRegistry */\n      dup2\n        /* \"Verify.sol\":2399:2447  Registry registrySchool = Registry(addrRegistry) */\n      swap1\n      pop\n        /* \"Verify.sol\":2458:2476  string memory text */\n      0x60\n        /* \"Verify.sol\":2479:2493  registrySchool */\n      dup2\n        /* \"Verify.sol\":2479:2503  registrySchool.dataField */\n      0xffffffffffffffffffffffffffffffffffffffff\n      and\n      0xecbcb122\n        /* \"Verify.sol\":2512:2516  this */\n      address\n        /* \"Verify.sol\":2518:2519  0 */\n      0x00\n        /* \"Verify.sol\":2479:2520  registrySchool.dataField(address(this),0) */\n      mload(0x40)\n      dup4\n      0xffffffff\n      and\n      0xe0\n      shl\n      dup2\n      mstore\n      0x04\n      add\n      tag_71\n      swap3\n      swap2\n      swap1\n      jump(tag_72)\n    tag_71:\n      0x00\n      mload(0x40)\n      dup1\n      dup4\n      sub\n      dup2\n      dup7\n      dup1\n      extcodesize\n      iszero\n        /* \"--CODEGEN--\":5:14   */\n      dup1\n        /* \"--CODEGEN--\":2:4   */\n      iszero\n      tag_73\n      jumpi\n        /* \"--CODEGEN--\":27:28   */\n      0x00\n        /* \"--CODEGEN--\":24:25   */\n      dup1\n        /* \"--CODEGEN--\":17:29   */\n      revert\n        /* \"--CODEGEN--\":2:4   */\n    tag_73:\n        /* \"Verify.sol\":2479:2520  registrySchool.dataField(address(this),0) */\n      pop\n      gas\n      staticcall\n      iszero\n        /* \"--CODEGEN--\":8:17   */\n      dup1\n        /* \"--CODEGEN--\":5:7   */\n      iszero\n      tag_75\n      jumpi\n        /* \"--CODEGEN--\":45:61   */\n      returndatasize\n        /* \"--CODEGEN--\":42:43   */\n      0x00\n        /* \"--CODEGEN--\":39:40   */\n      dup1\n        /* \"--CODEGEN--\":24:62   */\n      returndatacopy\n        /* \"--CODEGEN--\":77:93   */\n      returndatasize\n        /* \"--CODEGEN--\":74:75   */\n      0x00\n        /* \"--CODEGEN--\":67:94   */\n      revert\n        /* \"--CODEGEN--\":5:7   */\n    tag_75:\n        /* \"Verify.sol\":2479:2520  registrySchool.dataField(address(this),0) */\n      pop\n      pop\n      pop\n      pop\n      mload(0x40)\n        /* \"--CODEGEN--\":39:55   */\n      returndatasize\n        /* \"--CODEGEN--\":36:37   */\n      0x00\n        /* \"--CODEGEN--\":17:34   */\n      dup3\n        /* \"--CODEGEN--\":2:56   */\n      returndatacopy\n        /* \"Verify.sol\":2479:2520  registrySchool.dataField(address(this),0) */\n      returndatasize\n        /* \"--CODEGEN--\":101:105   */\n      0x1f\n        /* \"--CODEGEN--\":97:106   */\n      not\n        /* \"--CODEGEN--\":90:94   */\n      0x1f\n        /* \"--CODEGEN--\":84:88   */\n      dup3\n        /* \"--CODEGEN--\":80:95   */\n      add\n        /* \"--CODEGEN--\":76:107   */\n      and\n        /* \"--CODEGEN--\":69:74   */\n      dup3\n        /* \"--CODEGEN--\":65:108   */\n      add\n        /* \"--CODEGEN--\":126:132   */\n      dup1\n        /* \"--CODEGEN--\":120:124   */\n      0x40\n        /* \"--CODEGEN--\":113:133   */\n      mstore\n        /* \"--CODEGEN--\":0:138   */\n      pop\n        /* \"Verify.sol\":2479:2520  registrySchool.dataField(address(this),0) */\n      dup2\n      add\n      swap1\n      tag_76\n      swap2\n      swap1\n      jump(tag_77)\n    tag_76:\n        /* \"Verify.sol\":2458:2520  string memory text = registrySchool.dataField(address(this),0) */\n      swap1\n      pop\n        /* \"Verify.sol\":2586:2614  abi.encodePacked(\"isSchool\") */\n      add(0x20, mload(0x40))\n      tag_78\n      swap1\n      jump(tag_79)\n    tag_78:\n      mload(0x40)\n        /* \"--CODEGEN--\":49:53   */\n      0x20\n        /* \"--CODEGEN--\":39:46   */\n      dup2\n        /* \"--CODEGEN--\":30:37   */\n      dup4\n        /* \"--CODEGEN--\":26:47   */\n      sub\n        /* \"--CODEGEN--\":22:54   */\n      sub\n        /* \"--CODEGEN--\":13:20   */\n      dup2\n        /* \"--CODEGEN--\":6:55   */\n      mstore\n        /* \"Verify.sol\":2586:2614  abi.encodePacked(\"isSchool\") */\n      swap1\n      0x40\n      mstore\n        /* \"Verify.sol\":2576:2615  keccak256(abi.encodePacked(\"isSchool\")) */\n      dup1\n      mload\n      swap1\n      0x20\n      add\n      keccak256\n        /* \"Verify.sol\":2566:2570  text */\n      dup2\n        /* \"Verify.sol\":2549:2571  abi.encodePacked(text) */\n      add(0x20, mload(0x40))\n      tag_80\n      swap2\n      swap1\n      jump(tag_81)\n    tag_80:\n      mload(0x40)\n        /* \"--CODEGEN--\":49:53   */\n      0x20\n        /* \"--CODEGEN--\":39:46   */\n      dup2\n        /* \"--CODEGEN--\":30:37   */\n      dup4\n        /* \"--CODEGEN--\":26:47   */\n      sub\n        /* \"--CODEGEN--\":22:54   */\n      sub\n        /* \"--CODEGEN--\":13:20   */\n      dup2\n        /* \"--CODEGEN--\":6:55   */\n      mstore\n        /* \"Verify.sol\":2549:2571  abi.encodePacked(text) */\n      swap1\n      0x40\n      mstore\n        /* \"Verify.sol\":2539:2572  keccak256(abi.encodePacked(text)) */\n      dup1\n      mload\n      swap1\n      0x20\n      add\n      keccak256\n        /* \"Verify.sol\":2539:2615  keccak256(abi.encodePacked(text)) == keccak256(abi.encodePacked(\"isSchool\")) */\n      eq\n        /* \"Verify.sol\":2531:2616  require(keccak256(abi.encodePacked(text)) == keccak256(abi.encodePacked(\"isSchool\"))) */\n      tag_82\n      jumpi\n        /* \"--CODEGEN--\":12:13   */\n      0x00\n        /* \"--CODEGEN--\":9:10   */\n      dup1\n        /* \"--CODEGEN--\":2:14   */\n      revert\n        /* \"Verify.sol\":2531:2616  require(keccak256(abi.encodePacked(text)) == keccak256(abi.encodePacked(\"isSchool\"))) */\n    tag_82:\n        /* \"Verify.sol\":2238:2624  function legality(address school) public view {\r... */\n      pop\n      pop\n      pop\n      pop\n      pop\n      jump\t// out\n        /* \"Verify.sol\":1638:2084  function upload(string memory hashValue, address student) public restricted_school {\r... */\n    tag_27:\n        /* \"Verify.sol\":628:647  CreateEntity search */\n      0x00\n        /* \"Verify.sol\":671:713  0x950BD33F71A716B0a6161eBC09Cd89F446698abf */\n      0x950bd33f71a716b0a6161ebc09cd89f446698abf\n        /* \"Verify.sol\":628:715  CreateEntity search = CreateEntity(address(0x950BD33F71A716B0a6161eBC09Cd89F446698abf)) */\n      swap1\n      pop\n        /* \"Verify.sol\":726:742  address toSearch */\n      0x00\n        /* \"Verify.sol\":745:751  search */\n      dup2\n        /* \"Verify.sol\":745:764  search.searchEntity */\n      0xffffffffffffffffffffffffffffffffffffffff\n      and\n      0x815214f8\n        /* \"Verify.sol\":765:775  msg.sender */\n      caller\n        /* \"Verify.sol\":745:776  search.searchEntity(msg.sender) */\n      mload(0x40)\n      dup3\n      0xffffffff\n      and\n      0xe0\n      shl\n      dup2\n      mstore\n      0x04\n      add\n      tag_84\n      swap2\n      swap1\n      jump(tag_85)\n    tag_84:\n      0x20\n      mload(0x40)\n      dup1\n      dup4\n      sub\n      dup2\n      dup7\n      dup1\n      extcodesize\n      iszero\n        /* \"--CODEGEN--\":5:14   */\n      dup1\n        /* \"--CODEGEN--\":2:4   */\n      iszero\n      tag_86\n      jumpi\n        /* \"--CODEGEN--\":27:28   */\n      0x00\n        /* \"--CODEGEN--\":24:25   */\n      dup1\n        /* \"--CODEGEN--\":17:29   */\n      revert\n        /* \"--CODEGEN--\":2:4   */\n    tag_86:\n        /* \"Verify.sol\":745:776  search.searchEntity(msg.sender) */\n      pop\n      gas\n      staticcall\n      iszero\n        /* \"--CODEGEN--\":8:17   */\n      dup1\n        /* \"--CODEGEN--\":5:7   */\n      iszero\n      tag_88\n      jumpi\n        /* \"--CODEGEN--\":45:61   */\n      returndatasize\n        /* \"--CODEGEN--\":42:43   */\n      0x00\n        /* \"--CODEGEN--\":39:40   */\n      dup1\n        /* \"--CODEGEN--\":24:62   */\n      returndatacopy\n        /* \"--CODEGEN--\":77:93   */\n      returndatasize\n        /* \"--CODEGEN--\":74:75   */\n      0x00\n        /* \"--CODEGEN--\":67:94   */\n      revert\n        /* \"--CODEGEN--\":5:7   */\n    tag_88:\n        /* \"Verify.sol\":745:776  search.searchEntity(msg.sender) */\n      pop\n      pop\n      pop\n      pop\n      mload(0x40)\n      returndatasize\n        /* \"--CODEGEN--\":101:105   */\n      0x1f\n        /* \"--CODEGEN--\":97:106   */\n      not\n        /* \"--CODEGEN--\":90:94   */\n      0x1f\n        /* \"--CODEGEN--\":84:88   */\n      dup3\n        /* \"--CODEGEN--\":80:95   */\n      add\n        /* \"--CODEGEN--\":76:107   */\n      and\n        /* \"--CODEGEN--\":69:74   */\n      dup3\n        /* \"--CODEGEN--\":65:108   */\n      add\n        /* \"--CODEGEN--\":126:132   */\n      dup1\n        /* \"--CODEGEN--\":120:124   */\n      0x40\n        /* \"--CODEGEN--\":113:133   */\n      mstore\n        /* \"--CODEGEN--\":0:138   */\n      pop\n        /* \"Verify.sol\":745:776  search.searchEntity(msg.sender) */\n      dup2\n      add\n      swap1\n      tag_89\n      swap2\n      swap1\n      jump(tag_70)\n    tag_89:\n        /* \"Verify.sol\":726:776  address toSearch = search.searchEntity(msg.sender) */\n      swap1\n      pop\n        /* \"Verify.sol\":795:803  isSchool */\n      0x04\n        /* \"Verify.sol\":795:813  isSchool[toSearch] */\n      0x00\n        /* \"Verify.sol\":804:812  toSearch */\n      dup3\n        /* \"Verify.sol\":795:813  isSchool[toSearch] */\n      0xffffffffffffffffffffffffffffffffffffffff\n      and\n      0xffffffffffffffffffffffffffffffffffffffff\n      and\n      dup2\n      mstore\n      0x20\n      add\n      swap1\n      dup2\n      mstore\n      0x20\n      add\n      0x00\n      keccak256\n      0x00\n      swap1\n      sload\n      swap1\n      0x0100\n      exp\n      swap1\n      div\n      0xff\n      and\n        /* \"Verify.sol\":787:814  require(isSchool[toSearch]) */\n      tag_90\n      jumpi\n        /* \"--CODEGEN--\":12:13   */\n      0x00\n        /* \"--CODEGEN--\":9:10   */\n      dup1\n        /* \"--CODEGEN--\":2:14   */\n      revert\n        /* \"Verify.sol\":787:814  require(isSchool[toSearch]) */\n    tag_90:\n        /* \"Verify.sol\":1741:1750  isOnChain */\n      0x05\n        /* \"Verify.sol\":1751:1760  hashValue */\n      dup5\n        /* \"Verify.sol\":1741:1761  isOnChain[hashValue] */\n      mload(0x40)\n      tag_92\n      swap2\n      swap1\n      jump(tag_81)\n    tag_92:\n      swap1\n      dup2\n      mstore\n      0x20\n      add\n      mload(0x40)\n      dup1\n      swap2\n      sub\n      swap1\n      keccak256\n      0x00\n      swap1\n      sload\n      swap1\n      0x0100\n      exp\n      swap1\n      div\n      0xff\n      and\n        /* \"Verify.sol\":1740:1761  !isOnChain[hashValue] */\n      iszero\n        /* \"Verify.sol\":1732:1762  require(!isOnChain[hashValue]) */\n      tag_93\n      jumpi\n        /* \"--CODEGEN--\":12:13   */\n      0x00\n        /* \"--CODEGEN--\":9:10   */\n      dup1\n        /* \"--CODEGEN--\":2:14   */\n      revert\n        /* \"Verify.sol\":1732:1762  require(!isOnChain[hashValue]) */\n    tag_93:\n        /* \"Verify.sol\":1775:1795  Entity entityStudent */\n      0x00\n        /* \"Verify.sol\":1805:1812  student */\n      dup4\n        /* \"Verify.sol\":1775:1813  Entity entityStudent = Entity(student) */\n      swap1\n      pop\n        /* \"Verify.sol\":1824:1844  address addrRegistry */\n      0x00\n        /* \"Verify.sol\":1847:1860  entityStudent */\n      dup2\n        /* \"Verify.sol\":1847:1869  entityStudent.registry */\n      0xffffffffffffffffffffffffffffffffffffffff\n      and\n      0x7b103999\n        /* \"Verify.sol\":1847:1871  entityStudent.registry() */\n      mload(0x40)\n      dup2\n      0xffffffff\n      and\n      0xe0\n      shl\n      dup2\n      mstore\n      0x04\n      add\n      0x20\n      mload(0x40)\n      dup1\n      dup4\n      sub\n      dup2\n      dup7\n      dup1\n      extcodesize\n      iszero\n        /* \"--CODEGEN--\":5:14   */\n      dup1\n        /* \"--CODEGEN--\":2:4   */\n      iszero\n      tag_94\n      jumpi\n        /* \"--CODEGEN--\":27:28   */\n      0x00\n        /* \"--CODEGEN--\":24:25   */\n      dup1\n        /* \"--CODEGEN--\":17:29   */\n      revert\n        /* \"--CODEGEN--\":2:4   */\n    tag_94:\n        /* \"Verify.sol\":1847:1871  entityStudent.registry() */\n      pop\n      gas\n      staticcall\n      iszero\n        /* \"--CODEGEN--\":8:17   */\n      dup1\n        /* \"--CODEGEN--\":5:7   */\n      iszero\n      tag_96\n      jumpi\n        /* \"--CODEGEN--\":45:61   */\n      returndatasize\n        /* \"--CODEGEN--\":42:43   */\n      0x00\n        /* \"--CODEGEN--\":39:40   */\n      dup1\n        /* \"--CODEGEN--\":24:62   */\n      returndatacopy\n        /* \"--CODEGEN--\":77:93   */\n      returndatasize\n        /* \"--CODEGEN--\":74:75   */\n      0x00\n        /* \"--CODEGEN--\":67:94   */\n      revert\n        /* \"--CODEGEN--\":5:7   */\n    tag_96:\n        /* \"Verify.sol\":1847:1871  entityStudent.registry() */\n      pop\n      pop\n      pop\n      pop\n      mload(0x40)\n      returndatasize\n        /* \"--CODEGEN--\":101:105   */\n      0x1f\n        /* \"--CODEGEN--\":97:106   */\n      not\n        /* \"--CODEGEN--\":90:94   */\n      0x1f\n        /* \"--CODEGEN--\":84:88   */\n      dup3\n        /* \"--CODEGEN--\":80:95   */\n      add\n        /* \"--CODEGEN--\":76:107   */\n      and\n        /* \"--CODEGEN--\":69:74   */\n      dup3\n        /* \"--CODEGEN--\":65:108   */\n      add\n        /* \"--CODEGEN--\":126:132   */\n      dup1\n        /* \"--CODEGEN--\":120:124   */\n      0x40\n        /* \"--CODEGEN--\":113:133   */\n      mstore\n        /* \"--CODEGEN--\":0:138   */\n      pop\n        /* \"Verify.sol\":1847:1871  entityStudent.registry() */\n      dup2\n      add\n      swap1\n      tag_97\n      swap2\n      swap1\n      jump(tag_70)\n    tag_97:\n        /* \"Verify.sol\":1824:1871  address addrRegistry = entityStudent.registry() */\n      swap1\n      pop\n        /* \"Verify.sol\":1882:1906  Registry registryStudent */\n      0x00\n        /* \"Verify.sol\":1918:1930  addrRegistry */\n      dup2\n        /* \"Verify.sol\":1882:1931  Registry registryStudent = Registry(addrRegistry) */\n      swap1\n      pop\n        /* \"Verify.sol\":1942:1957  registryStudent */\n      dup1\n        /* \"Verify.sol\":1942:1978  registryStudent.writeFromOtherEntity */\n      0xffffffffffffffffffffffffffffffffffffffff\n      and\n      0x1ce53428\n        /* \"Verify.sol\":1942:1994  registryStudent.writeFromOtherEntity(\"CertisIssued\") */\n      mload(0x40)\n      dup2\n      0xffffffff\n      and\n      0xe0\n      shl\n      dup2\n      mstore\n      0x04\n      add\n      tag_98\n      swap1\n      jump(tag_99)\n    tag_98:\n      0x00\n      mload(0x40)\n      dup1\n      dup4\n      sub\n      dup2\n      0x00\n      dup8\n      dup1\n      extcodesize\n      iszero\n        /* \"--CODEGEN--\":5:14   */\n      dup1\n        /* \"--CODEGEN--\":2:4   */\n      iszero\n      tag_100\n      jumpi\n        /* \"--CODEGEN--\":27:28   */\n      0x00\n        /* \"--CODEGEN--\":24:25   */\n      dup1\n        /* \"--CODEGEN--\":17:29   */\n      revert\n        /* \"--CODEGEN--\":2:4   */\n    tag_100:\n        /* \"Verify.sol\":1942:1994  registryStudent.writeFromOtherEntity(\"CertisIssued\") */\n      pop\n      gas\n      call\n      iszero\n        /* \"--CODEGEN--\":8:17   */\n      dup1\n        /* \"--CODEGEN--\":5:7   */\n      iszero\n      tag_102\n      jumpi\n        /* \"--CODEGEN--\":45:61   */\n      returndatasize\n        /* \"--CODEGEN--\":42:43   */\n      0x00\n        /* \"--CODEGEN--\":39:40   */\n      dup1\n        /* \"--CODEGEN--\":24:62   */\n      returndatacopy\n        /* \"--CODEGEN--\":77:93   */\n      returndatasize\n        /* \"--CODEGEN--\":74:75   */\n      0x00\n        /* \"--CODEGEN--\":67:94   */\n      revert\n        /* \"--CODEGEN--\":5:7   */\n    tag_102:\n        /* \"Verify.sol\":1942:1994  registryStudent.writeFromOtherEntity(\"CertisIssued\") */\n      pop\n      pop\n      pop\n      pop\n        /* \"Verify.sol\":2007:2022  certHashOnChain */\n      0x02\n        /* \"Verify.sol\":2028:2037  hashValue */\n      dup8\n        /* \"Verify.sol\":2007:2038  certHashOnChain.push(hashValue) */\n      swap1\n      dup1\n        /* \"--CODEGEN--\":39:40   */\n      0x01\n        /* \"--CODEGEN--\":33:36   */\n      dup2\n        /* \"--CODEGEN--\":27:37   */\n      sload\n        /* \"--CODEGEN--\":23:41   */\n      add\n        /* \"--CODEGEN--\":57:67   */\n      dup1\n        /* \"--CODEGEN--\":52:55   */\n      dup3\n        /* \"--CODEGEN--\":45:68   */\n      sstore\n        /* \"--CODEGEN--\":79:89   */\n      dup1\n        /* \"--CODEGEN--\":72:89   */\n      swap2\n      pop\n        /* \"--CODEGEN--\":0:93   */\n      pop\n        /* \"Verify.sol\":2007:2038  certHashOnChain.push(hashValue) */\n      0x01\n      swap1\n      sub\n      swap1\n      0x00\n      mstore\n      keccak256(0x00, 0x20)\n      add\n      0x00\n      swap1\n      swap2\n      swap1\n      swap2\n      swap1\n      swap2\n      pop\n      swap1\n      dup1\n      mload\n      swap1\n      0x20\n      add\n      swap1\n      tag_104\n      swap3\n      swap2\n      swap1\n      tag_105\n      jump\t// in\n    tag_104:\n      pop\n        /* \"Verify.sol\":2072:2076  true */\n      0x01\n        /* \"Verify.sol\":2049:2058  isOnChain */\n      0x05\n        /* \"Verify.sol\":2059:2068  hashValue */\n      dup9\n        /* \"Verify.sol\":2049:2069  isOnChain[hashValue] */\n      mload(0x40)\n      tag_106\n      swap2\n      swap1\n      jump(tag_81)\n    tag_106:\n      swap1\n      dup2\n      mstore\n      0x20\n      add\n      mload(0x40)\n      dup1\n      swap2\n      sub\n      swap1\n      keccak256\n      0x00\n        /* \"Verify.sol\":2049:2076  isOnChain[hashValue] = true */\n      0x0100\n      exp\n      dup2\n      sload\n      dup2\n      0xff\n      mul\n      not\n      and\n      swap1\n      dup4\n      iszero\n      iszero\n      mul\n      or\n      swap1\n      sstore\n      pop\n        /* \"Verify.sol\":825:826  _ */\n      pop\n      pop\n      pop\n        /* \"Verify.sol\":1638:2084  function upload(string memory hashValue, address student) public restricted_school {\r... */\n      pop\n      pop\n      pop\n      pop\n      jump\t// out\n        /* \"Verify.sol\":2096:2226  function validation(string memory hashValue) public {\r... */\n    tag_31:\n        /* \"Verify.sol\":2170:2179  hashValue */\n      dup1\n        /* \"Verify.sol\":2159:2167  certHash */\n      0x03\n        /* \"Verify.sol\":2159:2179  certHash = hashValue */\n      swap1\n      dup1\n      mload\n      swap1\n      0x20\n      add\n      swap1\n      tag_108\n      swap3\n      swap2\n      swap1\n      tag_105\n      jump\t// in\n    tag_108:\n      pop\n        /* \"Verify.sol\":2198:2207  isOnChain */\n      0x05\n        /* \"Verify.sol\":2208:2216  certHash */\n      0x03\n        /* \"Verify.sol\":2198:2217  isOnChain[certHash] */\n      mload(0x40)\n      tag_109\n      swap2\n      swap1\n      jump(tag_110)\n    tag_109:\n      swap1\n      dup2\n      mstore\n      0x20\n      add\n      mload(0x40)\n      dup1\n      swap2\n      sub\n      swap1\n      keccak256\n      0x00\n      swap1\n      sload\n      swap1\n      0x0100\n      exp\n      swap1\n      div\n      0xff\n      and\n        /* \"Verify.sol\":2190:2218  require(isOnChain[certHash]) */\n      tag_111\n      jumpi\n        /* \"--CODEGEN--\":12:13   */\n      0x00\n        /* \"--CODEGEN--\":9:10   */\n      dup1\n        /* \"--CODEGEN--\":2:14   */\n      revert\n        /* \"Verify.sol\":2190:2218  require(isOnChain[certHash]) */\n    tag_111:\n        /* \"Verify.sol\":2096:2226  function validation(string memory hashValue) public {\r... */\n      pop\n      jump\t// out\n        /* \"Verify.sol\":369:391  string public certHash */\n    tag_33:\n      0x03\n      dup1\n      sload\n      0x01\n      dup2\n      0x01\n      and\n      iszero\n      0x0100\n      mul\n      sub\n      and\n      0x02\n      swap1\n      div\n      dup1\n      0x1f\n      add\n      0x20\n      dup1\n      swap2\n      div\n      mul\n      0x20\n      add\n      mload(0x40)\n      swap1\n      dup2\n      add\n      0x40\n      mstore\n      dup1\n      swap3\n      swap2\n      swap1\n      dup2\n      dup2\n      mstore\n      0x20\n      add\n      dup3\n      dup1\n      sload\n      0x01\n      dup2\n      0x01\n      and\n      iszero\n      0x0100\n      mul\n      sub\n      and\n      0x02\n      swap1\n      div\n      dup1\n      iszero\n      tag_112\n      jumpi\n      dup1\n      0x1f\n      lt\n      tag_113\n      jumpi\n      0x0100\n      dup1\n      dup4\n      sload\n      div\n      mul\n      dup4\n      mstore\n      swap2\n      0x20\n      add\n      swap2\n      jump(tag_112)\n    tag_113:\n      dup3\n      add\n      swap2\n      swap1\n      0x00\n      mstore\n      keccak256(0x00, 0x20)\n      swap1\n    tag_114:\n      dup2\n      sload\n      dup2\n      mstore\n      swap1\n      0x01\n      add\n      swap1\n      0x20\n      add\n      dup1\n      dup4\n      gt\n      tag_114\n      jumpi\n      dup3\n      swap1\n      sub\n      0x1f\n      and\n      dup3\n      add\n      swap2\n    tag_112:\n      pop\n      pop\n      pop\n      pop\n      pop\n      dup2\n      jump\t// out\n        /* \"Verify.sol\":1049:1626  function addNewSchool(address schoolAddr, string memory schoolName) public restricted_ministry {\r... */\n    tag_39:\n        /* \"Verify.sol\":910:929  MinistryofEducation */\n      0x01\n      0x00\n      swap1\n      sload\n      swap1\n      0x0100\n      exp\n      swap1\n      div\n      0xffffffffffffffffffffffffffffffffffffffff\n      and\n        /* \"Verify.sol\":896:929  msg.sender == MinistryofEducation */\n      0xffffffffffffffffffffffffffffffffffffffff\n      and\n        /* \"Verify.sol\":896:906  msg.sender */\n      caller\n        /* \"Verify.sol\":896:929  msg.sender == MinistryofEducation */\n      0xffffffffffffffffffffffffffffffffffffffff\n      and\n      eq\n        /* \"Verify.sol\":888:930  require(msg.sender == MinistryofEducation) */\n      tag_116\n      jumpi\n        /* \"--CODEGEN--\":12:13   */\n      0x00\n        /* \"--CODEGEN--\":9:10   */\n      dup1\n        /* \"--CODEGEN--\":2:14   */\n      revert\n        /* \"Verify.sol\":888:930  require(msg.sender == MinistryofEducation) */\n    tag_116:\n        /* \"Verify.sol\":1164:1172  isSchool */\n      0x04\n        /* \"Verify.sol\":1164:1184  isSchool[schoolAddr] */\n      0x00\n        /* \"Verify.sol\":1173:1183  schoolAddr */\n      dup4\n        /* \"Verify.sol\":1164:1184  isSchool[schoolAddr] */\n      0xffffffffffffffffffffffffffffffffffffffff\n      and\n      0xffffffffffffffffffffffffffffffffffffffff\n      and\n      dup2\n      mstore\n      0x20\n      add\n      swap1\n      dup2\n      mstore\n      0x20\n      add\n      0x00\n      keccak256\n      0x00\n      swap1\n      sload\n      swap1\n      0x0100\n      exp\n      swap1\n      div\n      0xff\n      and\n        /* \"Verify.sol\":1163:1184  !isSchool[schoolAddr] */\n      iszero\n        /* \"Verify.sol\":1155:1185  require(!isSchool[schoolAddr]) */\n      tag_118\n      jumpi\n        /* \"--CODEGEN--\":12:13   */\n      0x00\n        /* \"--CODEGEN--\":9:10   */\n      dup1\n        /* \"--CODEGEN--\":2:14   */\n      revert\n        /* \"Verify.sol\":1155:1185  require(!isSchool[schoolAddr]) */\n    tag_118:\n        /* \"Verify.sol\":1198:1217  Entity entitySchool */\n      0x00\n        /* \"Verify.sol\":1227:1237  schoolAddr */\n      dup3\n        /* \"Verify.sol\":1198:1238  Entity entitySchool = Entity(schoolAddr) */\n      swap1\n      pop\n        /* \"Verify.sol\":1249:1269  address addrRegistry */\n      0x00\n        /* \"Verify.sol\":1272:1284  entitySchool */\n      dup2\n        /* \"Verify.sol\":1272:1293  entitySchool.registry */\n      0xffffffffffffffffffffffffffffffffffffffff\n      and\n      0x7b103999\n        /* \"Verify.sol\":1272:1295  entitySchool.registry() */\n      mload(0x40)\n      dup2\n      0xffffffff\n      and\n      0xe0\n      shl\n      dup2\n      mstore\n      0x04\n      add\n      0x20\n      mload(0x40)\n      dup1\n      dup4\n      sub\n      dup2\n      dup7\n      dup1\n      extcodesize\n      iszero\n        /* \"--CODEGEN--\":5:14   */\n      dup1\n        /* \"--CODEGEN--\":2:4   */\n      iszero\n      tag_119\n      jumpi\n        /* \"--CODEGEN--\":27:28   */\n      0x00\n        /* \"--CODEGEN--\":24:25   */\n      dup1\n        /* \"--CODEGEN--\":17:29   */\n      revert\n        /* \"--CODEGEN--\":2:4   */\n    tag_119:\n        /* \"Verify.sol\":1272:1295  entitySchool.registry() */\n      pop\n      gas\n      staticcall\n      iszero\n        /* \"--CODEGEN--\":8:17   */\n      dup1\n        /* \"--CODEGEN--\":5:7   */\n      iszero\n      tag_121\n      jumpi\n        /* \"--CODEGEN--\":45:61   */\n      returndatasize\n        /* \"--CODEGEN--\":42:43   */\n      0x00\n        /* \"--CODEGEN--\":39:40   */\n      dup1\n        /* \"--CODEGEN--\":24:62   */\n      returndatacopy\n        /* \"--CODEGEN--\":77:93   */\n      returndatasize\n        /* \"--CODEGEN--\":74:75   */\n      0x00\n        /* \"--CODEGEN--\":67:94   */\n      revert\n        /* \"--CODEGEN--\":5:7   */\n    tag_121:\n        /* \"Verify.sol\":1272:1295  entitySchool.registry() */\n      pop\n      pop\n      pop\n      pop\n      mload(0x40)\n      returndatasize\n        /* \"--CODEGEN--\":101:105   */\n      0x1f\n        /* \"--CODEGEN--\":97:106   */\n      not\n        /* \"--CODEGEN--\":90:94   */\n      0x1f\n        /* \"--CODEGEN--\":84:88   */\n      dup3\n        /* \"--CODEGEN--\":80:95   */\n      add\n        /* \"--CODEGEN--\":76:107   */\n      and\n        /* \"--CODEGEN--\":69:74   */\n      dup3\n        /* \"--CODEGEN--\":65:108   */\n      add\n        /* \"--CODEGEN--\":126:132   */\n      dup1\n        /* \"--CODEGEN--\":120:124   */\n      0x40\n        /* \"--CODEGEN--\":113:133   */\n      mstore\n        /* \"--CODEGEN--\":0:138   */\n      pop\n        /* \"Verify.sol\":1272:1295  entitySchool.registry() */\n      dup2\n      add\n      swap1\n      tag_122\n      swap2\n      swap1\n      jump(tag_70)\n    tag_122:\n        /* \"Verify.sol\":1249:1295  address addrRegistry = entitySchool.registry() */\n      swap1\n      pop\n        /* \"Verify.sol\":1306:1329  Registry registrySchool */\n      0x00\n        /* \"Verify.sol\":1341:1353  addrRegistry */\n      dup2\n        /* \"Verify.sol\":1306:1354  Registry registrySchool = Registry(addrRegistry) */\n      swap1\n      pop\n        /* \"Verify.sol\":1365:1379  registrySchool */\n      dup1\n        /* \"Verify.sol\":1365:1400  registrySchool.writeFromOtherEntity */\n      0xffffffffffffffffffffffffffffffffffffffff\n      and\n      0x1ce53428\n        /* \"Verify.sol\":1365:1412  registrySchool.writeFromOtherEntity(\"isSchool\") */\n      mload(0x40)\n      dup2\n      0xffffffff\n      and\n      0xe0\n      shl\n      dup2\n      mstore\n      0x04\n      add\n      tag_123\n      swap1\n      jump(tag_124)\n    tag_123:\n      0x00\n      mload(0x40)\n      dup1\n      dup4\n      sub\n      dup2\n      0x00\n      dup8\n      dup1\n      extcodesize\n      iszero\n        /* \"--CODEGEN--\":5:14   */\n      dup1\n        /* \"--CODEGEN--\":2:4   */\n      iszero\n      tag_125\n      jumpi\n        /* \"--CODEGEN--\":27:28   */\n      0x00\n        /* \"--CODEGEN--\":24:25   */\n      dup1\n        /* \"--CODEGEN--\":17:29   */\n      revert\n        /* \"--CODEGEN--\":2:4   */\n    tag_125:\n        /* \"Verify.sol\":1365:1412  registrySchool.writeFromOtherEntity(\"isSchool\") */\n      pop\n      gas\n      call\n      iszero\n        /* \"--CODEGEN--\":8:17   */\n      dup1\n        /* \"--CODEGEN--\":5:7   */\n      iszero\n      tag_127\n      jumpi\n        /* \"--CODEGEN--\":45:61   */\n      returndatasize\n        /* \"--CODEGEN--\":42:43   */\n      0x00\n        /* \"--CODEGEN--\":39:40   */\n      dup1\n        /* \"--CODEGEN--\":24:62   */\n      returndatacopy\n        /* \"--CODEGEN--\":77:93   */\n      returndatasize\n        /* \"--CODEGEN--\":74:75   */\n      0x00\n        /* \"--CODEGEN--\":67:94   */\n      revert\n        /* \"--CODEGEN--\":5:7   */\n    tag_127:\n        /* \"Verify.sol\":1365:1412  registrySchool.writeFromOtherEntity(\"isSchool\") */\n      pop\n      pop\n      pop\n      pop\n        /* \"Verify.sol\":1433:1456  School memory newSchool */\n      tag_128\n      tag_129\n      jump\t// in\n    tag_128:\n        /* \"Verify.sol\":1459:1546  School({\r... */\n      mload(0x40)\n      dup1\n      0x40\n      add\n      0x40\n      mstore\n      dup1\n        /* \"Verify.sol\":1487:1497  schoolName */\n      dup7\n        /* \"Verify.sol\":1459:1546  School({\r... */\n      dup2\n      mstore\n      0x20\n      add\n        /* \"Verify.sol\":1524:1534  schoolAddr */\n      dup8\n        /* \"Verify.sol\":1459:1546  School({\r... */\n      0xffffffffffffffffffffffffffffffffffffffff\n      and\n      dup2\n      mstore\n      pop\n        /* \"Verify.sol\":1433:1546  School memory newSchool = School({\r... */\n      swap1\n      pop\n        /* \"Verify.sol\":1557:1564  schools */\n      0x00\n        /* \"Verify.sol\":1570:1579  newSchool */\n      dup2\n        /* \"Verify.sol\":1557:1580  schools.push(newSchool) */\n      swap1\n      dup1\n        /* \"--CODEGEN--\":39:40   */\n      0x01\n        /* \"--CODEGEN--\":33:36   */\n      dup2\n        /* \"--CODEGEN--\":27:37   */\n      sload\n        /* \"--CODEGEN--\":23:41   */\n      add\n        /* \"--CODEGEN--\":57:67   */\n      dup1\n        /* \"--CODEGEN--\":52:55   */\n      dup3\n        /* \"--CODEGEN--\":45:68   */\n      sstore\n        /* \"--CODEGEN--\":79:89   */\n      dup1\n        /* \"--CODEGEN--\":72:89   */\n      swap2\n      pop\n        /* \"--CODEGEN--\":0:93   */\n      pop\n        /* \"Verify.sol\":1557:1580  schools.push(newSchool) */\n      0x01\n      swap1\n      sub\n      swap1\n      0x00\n      mstore\n      keccak256(0x00, 0x20)\n      swap1\n      0x02\n      mul\n      add\n      0x00\n      swap1\n      swap2\n      swap1\n      swap2\n      swap1\n      swap2\n      pop\n      0x00\n      dup3\n      add\n      mload\n      dup2\n      0x00\n      add\n      swap1\n      dup1\n      mload\n      swap1\n      0x20\n      add\n      swap1\n      tag_131\n      swap3\n      swap2\n      swap1\n      tag_105\n      jump\t// in\n    tag_131:\n      pop\n      0x20\n      dup3\n      add\n      mload\n      dup2\n      0x01\n      add\n      exp(0x0100, 0x00)\n      dup2\n      sload\n      dup2\n      0xffffffffffffffffffffffffffffffffffffffff\n      mul\n      not\n      and\n      swap1\n      dup4\n      0xffffffffffffffffffffffffffffffffffffffff\n      and\n      mul\n      or\n      swap1\n      sstore\n      pop\n      pop\n      pop\n        /* \"Verify.sol\":1614:1618  true */\n      0x01\n        /* \"Verify.sol\":1591:1599  isSchool */\n      0x04\n        /* \"Verify.sol\":1591:1611  isSchool[schoolAddr] */\n      0x00\n        /* \"Verify.sol\":1600:1610  schoolAddr */\n      dup9\n        /* \"Verify.sol\":1591:1611  isSchool[schoolAddr] */\n      0xffffffffffffffffffffffffffffffffffffffff\n      and\n      0xffffffffffffffffffffffffffffffffffffffff\n      and\n      dup2\n      mstore\n      0x20\n      add\n      swap1\n      dup2\n      mstore\n      0x20\n      add\n      0x00\n      keccak256\n      0x00\n        /* \"Verify.sol\":1591:1618  isSchool[schoolAddr] = true */\n      0x0100\n      exp\n      dup2\n      sload\n      dup2\n      0xff\n      mul\n      not\n      and\n      swap1\n      dup4\n      iszero\n      iszero\n      mul\n      or\n      swap1\n      sstore\n      pop\n        /* \"Verify.sol\":941:942  _ */\n      pop\n      pop\n      pop\n      pop\n        /* \"Verify.sol\":1049:1626  function addNewSchool(address schoolAddr, string memory schoolName) public restricted_ministry {\r... */\n      pop\n      pop\n      jump\t// out\n        /* \"Verify.sol\":3150:3257  function getDeployedCerts() public view returns (string[] memory) {\r... */\n    tag_41:\n        /* \"Verify.sol\":3199:3214  string[] memory */\n      0x60\n        /* \"Verify.sol\":3234:3249  certHashOnChain */\n      0x02\n        /* \"Verify.sol\":3227:3249  return certHashOnChain */\n      dup1\n      sload\n      dup1\n      0x20\n      mul\n      0x20\n      add\n      mload(0x40)\n      swap1\n      dup2\n      add\n      0x40\n      mstore\n      dup1\n      swap3\n      swap2\n      swap1\n      dup2\n      dup2\n      mstore\n      0x20\n      add\n      0x00\n      swap1\n    tag_133:\n      dup3\n      dup3\n      lt\n      iszero\n      tag_134\n      jumpi\n      dup4\n      dup3\n      swap1\n      0x00\n      mstore\n      keccak256(0x00, 0x20)\n      add\n      dup1\n      sload\n      0x01\n      dup2\n      0x01\n      and\n      iszero\n      0x0100\n      mul\n      sub\n      and\n      0x02\n      swap1\n      div\n      dup1\n      0x1f\n      add\n      0x20\n      dup1\n      swap2\n      div\n      mul\n      0x20\n      add\n      mload(0x40)\n      swap1\n      dup2\n      add\n      0x40\n      mstore\n      dup1\n      swap3\n      swap2\n      swap1\n      dup2\n      dup2\n      mstore\n      0x20\n      add\n      dup3\n      dup1\n      sload\n      0x01\n      dup2\n      0x01\n      and\n      iszero\n      0x0100\n      mul\n      sub\n      and\n      0x02\n      swap1\n      div\n      dup1\n      iszero\n      tag_136\n      jumpi\n      dup1\n      0x1f\n      lt\n      tag_137\n      jumpi\n      0x0100\n      dup1\n      dup4\n      sload\n      div\n      mul\n      dup4\n      mstore\n      swap2\n      0x20\n      add\n      swap2\n      jump(tag_136)\n    tag_137:\n      dup3\n      add\n      swap2\n      swap1\n      0x00\n      mstore\n      keccak256(0x00, 0x20)\n      swap1\n    tag_138:\n      dup2\n      sload\n      dup2\n      mstore\n      swap1\n      0x01\n      add\n      swap1\n      0x20\n      add\n      dup1\n      dup4\n      gt\n      tag_138\n      jumpi\n      dup3\n      swap1\n      sub\n      0x1f\n      and\n      dup3\n      add\n      swap2\n    tag_136:\n      pop\n      pop\n      pop\n      pop\n      pop\n      dup2\n      mstore\n      0x20\n      add\n      swap1\n      0x01\n      add\n      swap1\n      jump(tag_133)\n    tag_134:\n      pop\n      pop\n      pop\n      pop\n      swap1\n      pop\n        /* \"Verify.sol\":3150:3257  function getDeployedCerts() public view returns (string[] memory) {\r... */\n      swap1\n      jump\t// out\n        /* \"Verify.sol\":260:283  School[] public schools */\n    tag_47:\n      0x00\n      dup2\n      dup2\n      sload\n      dup2\n      lt\n      tag_139\n      jumpi\n      invalid\n    tag_139:\n      swap1\n      0x00\n      mstore\n      keccak256(0x00, 0x20)\n      swap1\n      0x02\n      mul\n      add\n      0x00\n      swap2\n      pop\n      swap1\n      pop\n      dup1\n      0x00\n      add\n      dup1\n      sload\n      0x01\n      dup2\n      0x01\n      and\n      iszero\n      0x0100\n      mul\n      sub\n      and\n      0x02\n      swap1\n      div\n      dup1\n      0x1f\n      add\n      0x20\n      dup1\n      swap2\n      div\n      mul\n      0x20\n      add\n      mload(0x40)\n      swap1\n      dup2\n      add\n      0x40\n      mstore\n      dup1\n      swap3\n      swap2\n      swap1\n      dup2\n      dup2\n      mstore\n      0x20\n      add\n      dup3\n      dup1\n      sload\n      0x01\n      dup2\n      0x01\n      and\n      iszero\n      0x0100\n      mul\n      sub\n      and\n      0x02\n      swap1\n      div\n      dup1\n      iszero\n      tag_141\n      jumpi\n      dup1\n      0x1f\n      lt\n      tag_142\n      jumpi\n      0x0100\n      dup1\n      dup4\n      sload\n      div\n      mul\n      dup4\n      mstore\n      swap2\n      0x20\n      add\n      swap2\n      jump(tag_141)\n    tag_142:\n      dup3\n      add\n      swap2\n      swap1\n      0x00\n      mstore\n      keccak256(0x00, 0x20)\n      swap1\n    tag_143:\n      dup2\n      sload\n      dup2\n      mstore\n      swap1\n      0x01\n      add\n      swap1\n      0x20\n      add\n      dup1\n      dup4\n      gt\n      tag_143\n      jumpi\n      dup3\n      swap1\n      sub\n      0x1f\n      and\n      dup3\n      add\n      swap2\n    tag_141:\n      pop\n      pop\n      pop\n      pop\n      pop\n      swap1\n      dup1\n      0x01\n      add\n      0x00\n      swap1\n      sload\n      swap1\n      0x0100\n      exp\n      swap1\n      div\n      0xffffffffffffffffffffffffffffffffffffffff\n      and\n      swap1\n      pop\n      dup3\n      jump\t// out\n        /* \"Verify.sol\":2632:3029  function existence(address student) public view {\r... */\n    tag_52:\n        /* \"Verify.sol\":2691:2711  Entity entityStudent */\n      0x00\n        /* \"Verify.sol\":2721:2728  student */\n      dup2\n        /* \"Verify.sol\":2691:2729  Entity entityStudent = Entity(student) */\n      swap1\n      pop\n        /* \"Verify.sol\":2740:2760  address addrRegistry */\n      0x00\n        /* \"Verify.sol\":2763:2776  entityStudent */\n      dup2\n        /* \"Verify.sol\":2763:2785  entityStudent.registry */\n      0xffffffffffffffffffffffffffffffffffffffff\n      and\n      0x7b103999\n        /* \"Verify.sol\":2763:2787  entityStudent.registry() */\n      mload(0x40)\n      dup2\n      0xffffffff\n      and\n      0xe0\n      shl\n      dup2\n      mstore\n      0x04\n      add\n      0x20\n      mload(0x40)\n      dup1\n      dup4\n      sub\n      dup2\n      dup7\n      dup1\n      extcodesize\n      iszero\n        /* \"--CODEGEN--\":5:14   */\n      dup1\n        /* \"--CODEGEN--\":2:4   */\n      iszero\n      tag_145\n      jumpi\n        /* \"--CODEGEN--\":27:28   */\n      0x00\n        /* \"--CODEGEN--\":24:25   */\n      dup1\n        /* \"--CODEGEN--\":17:29   */\n      revert\n        /* \"--CODEGEN--\":2:4   */\n    tag_145:\n        /* \"Verify.sol\":2763:2787  entityStudent.registry() */\n      pop\n      gas\n      staticcall\n      iszero\n        /* \"--CODEGEN--\":8:17   */\n      dup1\n        /* \"--CODEGEN--\":5:7   */\n      iszero\n      tag_147\n      jumpi\n        /* \"--CODEGEN--\":45:61   */\n      returndatasize\n        /* \"--CODEGEN--\":42:43   */\n      0x00\n        /* \"--CODEGEN--\":39:40   */\n      dup1\n        /* \"--CODEGEN--\":24:62   */\n      returndatacopy\n        /* \"--CODEGEN--\":77:93   */\n      returndatasize\n        /* \"--CODEGEN--\":74:75   */\n      0x00\n        /* \"--CODEGEN--\":67:94   */\n      revert\n        /* \"--CODEGEN--\":5:7   */\n    tag_147:\n        /* \"Verify.sol\":2763:2787  entityStudent.registry() */\n      pop\n      pop\n      pop\n      pop\n      mload(0x40)\n      returndatasize\n        /* \"--CODEGEN--\":101:105   */\n      0x1f\n        /* \"--CODEGEN--\":97:106   */\n      not\n        /* \"--CODEGEN--\":90:94   */\n      0x1f\n        /* \"--CODEGEN--\":84:88   */\n      dup3\n        /* \"--CODEGEN--\":80:95   */\n      add\n        /* \"--CODEGEN--\":76:107   */\n      and\n        /* \"--CODEGEN--\":69:74   */\n      dup3\n        /* \"--CODEGEN--\":65:108   */\n      add\n        /* \"--CODEGEN--\":126:132   */\n      dup1\n        /* \"--CODEGEN--\":120:124   */\n      0x40\n        /* \"--CODEGEN--\":113:133   */\n      mstore\n        /* \"--CODEGEN--\":0:138   */\n      pop\n        /* \"Verify.sol\":2763:2787  entityStudent.registry() */\n      dup2\n      add\n      swap1\n      tag_148\n      swap2\n      swap1\n      jump(tag_70)\n    tag_148:\n        /* \"Verify.sol\":2740:2787  address addrRegistry = entityStudent.registry() */\n      swap1\n      pop\n        /* \"Verify.sol\":2798:2822  Registry registryStudent */\n      0x00\n        /* \"Verify.sol\":2834:2846  addrRegistry */\n      dup2\n        /* \"Verify.sol\":2798:2847  Registry registryStudent = Registry(addrRegistry) */\n      swap1\n      pop\n        /* \"Verify.sol\":2858:2876  string memory text */\n      0x60\n        /* \"Verify.sol\":2879:2894  registryStudent */\n      dup2\n        /* \"Verify.sol\":2879:2904  registryStudent.dataField */\n      0xffffffffffffffffffffffffffffffffffffffff\n      and\n      0xecbcb122\n        /* \"Verify.sol\":2913:2917  this */\n      address\n        /* \"Verify.sol\":2919:2920  0 */\n      0x00\n        /* \"Verify.sol\":2879:2921  registryStudent.dataField(address(this),0) */\n      mload(0x40)\n      dup4\n      0xffffffff\n      and\n      0xe0\n      shl\n      dup2\n      mstore\n      0x04\n      add\n      tag_149\n      swap3\n      swap2\n      swap1\n      jump(tag_72)\n    tag_149:\n      0x00\n      mload(0x40)\n      dup1\n      dup4\n      sub\n      dup2\n      dup7\n      dup1\n      extcodesize\n      iszero\n        /* \"--CODEGEN--\":5:14   */\n      dup1\n        /* \"--CODEGEN--\":2:4   */\n      iszero\n      tag_150\n      jumpi\n        /* \"--CODEGEN--\":27:28   */\n      0x00\n        /* \"--CODEGEN--\":24:25   */\n      dup1\n        /* \"--CODEGEN--\":17:29   */\n      revert\n        /* \"--CODEGEN--\":2:4   */\n    tag_150:\n        /* \"Verify.sol\":2879:2921  registryStudent.dataField(address(this),0) */\n      pop\n      gas\n      staticcall\n      iszero\n        /* \"--CODEGEN--\":8:17   */\n      dup1\n        /* \"--CODEGEN--\":5:7   */\n      iszero\n      tag_152\n      jumpi\n        /* \"--CODEGEN--\":45:61   */\n      returndatasize\n        /* \"--CODEGEN--\":42:43   */\n      0x00\n        /* \"--CODEGEN--\":39:40   */\n      dup1\n        /* \"--CODEGEN--\":24:62   */\n      returndatacopy\n        /* \"--CODEGEN--\":77:93   */\n      returndatasize\n        /* \"--CODEGEN--\":74:75   */\n      0x00\n        /* \"--CODEGEN--\":67:94   */\n      revert\n        /* \"--CODEGEN--\":5:7   */\n    tag_152:\n        /* \"Verify.sol\":2879:2921  registryStudent.dataField(address(this),0) */\n      pop\n      pop\n      pop\n      pop\n      mload(0x40)\n        /* \"--CODEGEN--\":39:55   */\n      returndatasize\n        /* \"--CODEGEN--\":36:37   */\n      0x00\n        /* \"--CODEGEN--\":17:34   */\n      dup3\n        /* \"--CODEGEN--\":2:56   */\n      returndatacopy\n        /* \"Verify.sol\":2879:2921  registryStudent.dataField(address(this),0) */\n      returndatasize\n        /* \"--CODEGEN--\":101:105   */\n      0x1f\n        /* \"--CODEGEN--\":97:106   */\n      not\n        /* \"--CODEGEN--\":90:94   */\n      0x1f\n        /* \"--CODEGEN--\":84:88   */\n      dup3\n        /* \"--CODEGEN--\":80:95   */\n      add\n        /* \"--CODEGEN--\":76:107   */\n      and\n        /* \"--CODEGEN--\":69:74   */\n      dup3\n        /* \"--CODEGEN--\":65:108   */\n      add\n        /* \"--CODEGEN--\":126:132   */\n      dup1\n        /* \"--CODEGEN--\":120:124   */\n      0x40\n        /* \"--CODEGEN--\":113:133   */\n      mstore\n        /* \"--CODEGEN--\":0:138   */\n      pop\n        /* \"Verify.sol\":2879:2921  registryStudent.dataField(address(this),0) */\n      dup2\n      add\n      swap1\n      tag_153\n      swap2\n      swap1\n      jump(tag_77)\n    tag_153:\n        /* \"Verify.sol\":2858:2921  string memory text = registryStudent.dataField(address(this),0) */\n      swap1\n      pop\n        /* \"Verify.sol\":2987:3019  abi.encodePacked(\"CertisIssued\") */\n      add(0x20, mload(0x40))\n      tag_154\n      swap1\n      jump(tag_155)\n    tag_154:\n      mload(0x40)\n        /* \"--CODEGEN--\":49:53   */\n      0x20\n        /* \"--CODEGEN--\":39:46   */\n      dup2\n        /* \"--CODEGEN--\":30:37   */\n      dup4\n        /* \"--CODEGEN--\":26:47   */\n      sub\n        /* \"--CODEGEN--\":22:54   */\n      sub\n        /* \"--CODEGEN--\":13:20   */\n      dup2\n        /* \"--CODEGEN--\":6:55   */\n      mstore\n        /* \"Verify.sol\":2987:3019  abi.encodePacked(\"CertisIssued\") */\n      swap1\n      0x40\n      mstore\n        /* \"Verify.sol\":2977:3020  keccak256(abi.encodePacked(\"CertisIssued\")) */\n      dup1\n      mload\n      swap1\n      0x20\n      add\n      keccak256\n        /* \"Verify.sol\":2967:2971  text */\n      dup2\n        /* \"Verify.sol\":2950:2972  abi.encodePacked(text) */\n      add(0x20, mload(0x40))\n      tag_156\n      swap2\n      swap1\n      jump(tag_81)\n    tag_156:\n      mload(0x40)\n        /* \"--CODEGEN--\":49:53   */\n      0x20\n        /* \"--CODEGEN--\":39:46   */\n      dup2\n        /* \"--CODEGEN--\":30:37   */\n      dup4\n        /* \"--CODEGEN--\":26:47   */\n      sub\n        /* \"--CODEGEN--\":22:54   */\n      sub\n        /* \"--CODEGEN--\":13:20   */\n      dup2\n        /* \"--CODEGEN--\":6:55   */\n      mstore\n        /* \"Verify.sol\":2950:2972  abi.encodePacked(text) */\n      swap1\n      0x40\n      mstore\n        /* \"Verify.sol\":2940:2973  keccak256(abi.encodePacked(text)) */\n      dup1\n      mload\n      swap1\n      0x20\n      add\n      keccak256\n        /* \"Verify.sol\":2940:3020  keccak256(abi.encodePacked(text)) == keccak256(abi.encodePacked(\"CertisIssued\")) */\n      eq\n        /* \"Verify.sol\":2932:3021  require(keccak256(abi.encodePacked(text)) == keccak256(abi.encodePacked(\"CertisIssued\"))) */\n      tag_157\n      jumpi\n        /* \"--CODEGEN--\":12:13   */\n      0x00\n        /* \"--CODEGEN--\":9:10   */\n      dup1\n        /* \"--CODEGEN--\":2:14   */\n      revert\n        /* \"Verify.sol\":2932:3021  require(keccak256(abi.encodePacked(text)) == keccak256(abi.encodePacked(\"CertisIssued\"))) */\n    tag_157:\n        /* \"Verify.sol\":2632:3029  function existence(address student) public view {\r... */\n      pop\n      pop\n      pop\n      pop\n      pop\n      jump\t// out\n        /* \"Verify.sol\":331:362  string[] public certHashOnChain */\n    tag_55:\n      0x02\n      dup2\n      dup2\n      sload\n      dup2\n      lt\n      tag_158\n      jumpi\n      invalid\n    tag_158:\n      swap1\n      0x00\n      mstore\n      keccak256(0x00, 0x20)\n      add\n      0x00\n      swap2\n      pop\n      swap1\n      pop\n      dup1\n      sload\n      0x01\n      dup2\n      0x01\n      and\n      iszero\n      0x0100\n      mul\n      sub\n      and\n      0x02\n      swap1\n      div\n      dup1\n      0x1f\n      add\n      0x20\n      dup1\n      swap2\n      div\n      mul\n      0x20\n      add\n      mload(0x40)\n      swap1\n      dup2\n      add\n      0x40\n      mstore\n      dup1\n      swap3\n      swap2\n      swap1\n      dup2\n      dup2\n      mstore\n      0x20\n      add\n      dup3\n      dup1\n      sload\n      0x01\n      dup2\n      0x01\n      and\n      iszero\n      0x0100\n      mul\n      sub\n      and\n      0x02\n      swap1\n      div\n      dup1\n      iszero\n      tag_160\n      jumpi\n      dup1\n      0x1f\n      lt\n      tag_161\n      jumpi\n      0x0100\n      dup1\n      dup4\n      sload\n      div\n      mul\n      dup4\n      mstore\n      swap2\n      0x20\n      add\n      swap2\n      jump(tag_160)\n    tag_161:\n      dup3\n      add\n      swap2\n      swap1\n      0x00\n      mstore\n      keccak256(0x00, 0x20)\n      swap1\n    tag_162:\n      dup2\n      sload\n      dup2\n      mstore\n      swap1\n      0x01\n      add\n      swap1\n      0x20\n      add\n      dup1\n      dup4\n      gt\n      tag_162\n      jumpi\n      dup3\n      swap1\n      sub\n      0x1f\n      and\n      dup3\n      add\n      swap2\n    tag_160:\n      pop\n      pop\n      pop\n      pop\n      pop\n      dup2\n      jump\t// out\n        /* \"Verify.sol\":290:324  address public MinistryofEducation */\n    tag_58:\n      0x01\n      0x00\n      swap1\n      sload\n      swap1\n      0x0100\n      exp\n      swap1\n      div\n      0xffffffffffffffffffffffffffffffffffffffff\n      and\n      dup2\n      jump\t// out\n        /* \"Verify.sol\":962:1041  function changeAddress(address addr) public {\r... */\n    tag_63:\n        /* \"Verify.sol\":1029:1033  addr */\n      dup1\n        /* \"Verify.sol\":1017:1026  CEaddress */\n      0x06\n      0x00\n        /* \"Verify.sol\":1017:1033  CEaddress = addr */\n      0x0100\n      exp\n      dup2\n      sload\n      dup2\n      0xffffffffffffffffffffffffffffffffffffffff\n      mul\n      not\n      and\n      swap1\n      dup4\n      0xffffffffffffffffffffffffffffffffffffffff\n      and\n      mul\n      or\n      swap1\n      sstore\n      pop\n        /* \"Verify.sol\":962:1041  function changeAddress(address addr) public {\r... */\n      pop\n      jump\t// out\n        /* \"Verify.sol\":152:3260  contract Verify {\r... */\n    tag_105:\n      dup3\n      dup1\n      sload\n      0x01\n      dup2\n      0x01\n      and\n      iszero\n      0x0100\n      mul\n      sub\n      and\n      0x02\n      swap1\n      div\n      swap1\n      0x00\n      mstore\n      keccak256(0x00, 0x20)\n      swap1\n      0x1f\n      add\n      0x20\n      swap1\n      div\n      dup2\n      add\n      swap3\n      dup3\n      0x1f\n      lt\n      tag_165\n      jumpi\n      dup1\n      mload\n      not(0xff)\n      and\n      dup4\n      dup1\n      add\n      or\n      dup6\n      sstore\n      jump(tag_164)\n    tag_165:\n      dup3\n      dup1\n      add\n      0x01\n      add\n      dup6\n      sstore\n      dup3\n      iszero\n      tag_164\n      jumpi\n      swap2\n      dup3\n      add\n    tag_166:\n      dup3\n      dup2\n      gt\n      iszero\n      tag_167\n      jumpi\n      dup3\n      mload\n      dup3\n      sstore\n      swap2\n      0x20\n      add\n      swap2\n      swap1\n      0x01\n      add\n      swap1\n      jump(tag_166)\n    tag_167:\n    tag_164:\n      pop\n      swap1\n      pop\n      tag_168\n      swap2\n      swap1\n      tag_169\n      jump\t// in\n    tag_168:\n      pop\n      swap1\n      jump\t// out\n    tag_129:\n      mload(0x40)\n      dup1\n      0x40\n      add\n      0x40\n      mstore\n      dup1\n      0x60\n      dup2\n      mstore\n      0x20\n      add\n      and(0xffffffffffffffffffffffffffffffffffffffff, 0x00)\n      dup2\n      mstore\n      pop\n      swap1\n      jump\t// out\n    tag_169:\n      tag_170\n      swap2\n      swap1\n    tag_171:\n      dup1\n      dup3\n      gt\n      iszero\n      tag_172\n      jumpi\n      0x00\n      dup2\n      0x00\n      swap1\n      sstore\n      pop\n      0x01\n      add\n      jump(tag_171)\n    tag_172:\n      pop\n      swap1\n      jump\n    tag_170:\n      swap1\n      jump\t// out\n        /* \"--CODEGEN--\":5:135   */\n    tag_174:\n      0x00\n        /* \"--CODEGEN--\":85:91   */\n      dup2\n        /* \"--CODEGEN--\":72:92   */\n      calldataload\n        /* \"--CODEGEN--\":63:92   */\n      swap1\n      pop\n        /* \"--CODEGEN--\":97:130   */\n      tag_176\n        /* \"--CODEGEN--\":124:129   */\n      dup2\n        /* \"--CODEGEN--\":97:130   */\n      jump(tag_177)\n    tag_176:\n        /* \"--CODEGEN--\":57:135   */\n      swap3\n      swap2\n      pop\n      pop\n      jump\n        /* \"--CODEGEN--\":142:276   */\n    tag_178:\n      0x00\n        /* \"--CODEGEN--\":226:232   */\n      dup2\n        /* \"--CODEGEN--\":220:233   */\n      mload\n        /* \"--CODEGEN--\":211:233   */\n      swap1\n      pop\n        /* \"--CODEGEN--\":238:271   */\n      tag_180\n        /* \"--CODEGEN--\":265:270   */\n      dup2\n        /* \"--CODEGEN--\":238:271   */\n      jump(tag_177)\n    tag_180:\n        /* \"--CODEGEN--\":205:276   */\n      swap3\n      swap2\n      pop\n      pop\n      jump\n        /* \"--CODEGEN--\":284:726   */\n    tag_181:\n      0x00\n        /* \"--CODEGEN--\":386:389   */\n      dup3\n        /* \"--CODEGEN--\":379:383   */\n      0x1f\n        /* \"--CODEGEN--\":371:377   */\n      dup4\n        /* \"--CODEGEN--\":367:384   */\n      add\n        /* \"--CODEGEN--\":363:390   */\n      slt\n        /* \"--CODEGEN--\":353:355   */\n      tag_183\n      jumpi\n        /* \"--CODEGEN--\":404:405   */\n      0x00\n        /* \"--CODEGEN--\":401:402   */\n      dup1\n        /* \"--CODEGEN--\":394:406   */\n      revert\n        /* \"--CODEGEN--\":353:355   */\n    tag_183:\n        /* \"--CODEGEN--\":441:447   */\n      dup2\n        /* \"--CODEGEN--\":428:448   */\n      calldataload\n        /* \"--CODEGEN--\":463:528   */\n      tag_184\n        /* \"--CODEGEN--\":478:527   */\n      tag_185\n        /* \"--CODEGEN--\":520:526   */\n      dup3\n        /* \"--CODEGEN--\":478:527   */\n      jump(tag_186)\n    tag_185:\n        /* \"--CODEGEN--\":463:528   */\n      jump(tag_187)\n    tag_184:\n        /* \"--CODEGEN--\":454:528   */\n      swap2\n      pop\n        /* \"--CODEGEN--\":548:554   */\n      dup1\n        /* \"--CODEGEN--\":541:546   */\n      dup3\n        /* \"--CODEGEN--\":534:555   */\n      mstore\n        /* \"--CODEGEN--\":584:588   */\n      0x20\n        /* \"--CODEGEN--\":576:582   */\n      dup4\n        /* \"--CODEGEN--\":572:589   */\n      add\n        /* \"--CODEGEN--\":617:621   */\n      0x20\n        /* \"--CODEGEN--\":610:615   */\n      dup4\n        /* \"--CODEGEN--\":606:622   */\n      add\n        /* \"--CODEGEN--\":652:655   */\n      dup6\n        /* \"--CODEGEN--\":643:649   */\n      dup4\n        /* \"--CODEGEN--\":638:641   */\n      dup4\n        /* \"--CODEGEN--\":634:650   */\n      add\n        /* \"--CODEGEN--\":631:656   */\n      gt\n        /* \"--CODEGEN--\":628:630   */\n      iszero\n      tag_188\n      jumpi\n        /* \"--CODEGEN--\":669:670   */\n      0x00\n        /* \"--CODEGEN--\":666:667   */\n      dup1\n        /* \"--CODEGEN--\":659:671   */\n      revert\n        /* \"--CODEGEN--\":628:630   */\n    tag_188:\n        /* \"--CODEGEN--\":679:720   */\n      tag_189\n        /* \"--CODEGEN--\":713:719   */\n      dup4\n        /* \"--CODEGEN--\":708:711   */\n      dup3\n        /* \"--CODEGEN--\":703:706   */\n      dup5\n        /* \"--CODEGEN--\":679:720   */\n      jump(tag_190)\n    tag_189:\n        /* \"--CODEGEN--\":346:726   */\n      pop\n      pop\n      pop\n      swap3\n      swap2\n      pop\n      pop\n      jump\n        /* \"--CODEGEN--\":735:1179   */\n    tag_191:\n      0x00\n        /* \"--CODEGEN--\":848:851   */\n      dup3\n        /* \"--CODEGEN--\":841:845   */\n      0x1f\n        /* \"--CODEGEN--\":833:839   */\n      dup4\n        /* \"--CODEGEN--\":829:846   */\n      add\n        /* \"--CODEGEN--\":825:852   */\n      slt\n        /* \"--CODEGEN--\":815:817   */\n      tag_193\n      jumpi\n        /* \"--CODEGEN--\":866:867   */\n      0x00\n        /* \"--CODEGEN--\":863:864   */\n      dup1\n        /* \"--CODEGEN--\":856:868   */\n      revert\n        /* \"--CODEGEN--\":815:817   */\n    tag_193:\n        /* \"--CODEGEN--\":896:902   */\n      dup2\n        /* \"--CODEGEN--\":890:903   */\n      mload\n        /* \"--CODEGEN--\":918:983   */\n      tag_194\n        /* \"--CODEGEN--\":933:982   */\n      tag_195\n        /* \"--CODEGEN--\":975:981   */\n      dup3\n        /* \"--CODEGEN--\":933:982   */\n      jump(tag_186)\n    tag_195:\n        /* \"--CODEGEN--\":918:983   */\n      jump(tag_187)\n    tag_194:\n        /* \"--CODEGEN--\":909:983   */\n      swap2\n      pop\n        /* \"--CODEGEN--\":1003:1009   */\n      dup1\n        /* \"--CODEGEN--\":996:1001   */\n      dup3\n        /* \"--CODEGEN--\":989:1010   */\n      mstore\n        /* \"--CODEGEN--\":1039:1043   */\n      0x20\n        /* \"--CODEGEN--\":1031:1037   */\n      dup4\n        /* \"--CODEGEN--\":1027:1044   */\n      add\n        /* \"--CODEGEN--\":1072:1076   */\n      0x20\n        /* \"--CODEGEN--\":1065:1070   */\n      dup4\n        /* \"--CODEGEN--\":1061:1077   */\n      add\n        /* \"--CODEGEN--\":1107:1110   */\n      dup6\n        /* \"--CODEGEN--\":1098:1104   */\n      dup4\n        /* \"--CODEGEN--\":1093:1096   */\n      dup4\n        /* \"--CODEGEN--\":1089:1105   */\n      add\n        /* \"--CODEGEN--\":1086:1111   */\n      gt\n        /* \"--CODEGEN--\":1083:1085   */\n      iszero\n      tag_196\n      jumpi\n        /* \"--CODEGEN--\":1124:1125   */\n      0x00\n        /* \"--CODEGEN--\":1121:1122   */\n      dup1\n        /* \"--CODEGEN--\":1114:1126   */\n      revert\n        /* \"--CODEGEN--\":1083:1085   */\n    tag_196:\n        /* \"--CODEGEN--\":1134:1173   */\n      tag_197\n        /* \"--CODEGEN--\":1166:1172   */\n      dup4\n        /* \"--CODEGEN--\":1161:1164   */\n      dup3\n        /* \"--CODEGEN--\":1156:1159   */\n      dup5\n        /* \"--CODEGEN--\":1134:1173   */\n      jump(tag_198)\n    tag_197:\n        /* \"--CODEGEN--\":808:1179   */\n      pop\n      pop\n      pop\n      swap3\n      swap2\n      pop\n      pop\n      jump\n        /* \"--CODEGEN--\":1187:1317   */\n    tag_199:\n      0x00\n        /* \"--CODEGEN--\":1267:1273   */\n      dup2\n        /* \"--CODEGEN--\":1254:1274   */\n      calldataload\n        /* \"--CODEGEN--\":1245:1274   */\n      swap1\n      pop\n        /* \"--CODEGEN--\":1279:1312   */\n      tag_201\n        /* \"--CODEGEN--\":1306:1311   */\n      dup2\n        /* \"--CODEGEN--\":1279:1312   */\n      jump(tag_202)\n    tag_201:\n        /* \"--CODEGEN--\":1239:1317   */\n      swap3\n      swap2\n      pop\n      pop\n      jump\n        /* \"--CODEGEN--\":1324:1565   */\n    tag_22:\n      0x00\n        /* \"--CODEGEN--\":1428:1430   */\n      0x20\n        /* \"--CODEGEN--\":1416:1425   */\n      dup3\n        /* \"--CODEGEN--\":1407:1414   */\n      dup5\n        /* \"--CODEGEN--\":1403:1426   */\n      sub\n        /* \"--CODEGEN--\":1399:1431   */\n      slt\n        /* \"--CODEGEN--\":1396:1398   */\n      iszero\n      tag_204\n      jumpi\n        /* \"--CODEGEN--\":1444:1445   */\n      0x00\n        /* \"--CODEGEN--\":1441:1442   */\n      dup1\n        /* \"--CODEGEN--\":1434:1446   */\n      revert\n        /* \"--CODEGEN--\":1396:1398   */\n    tag_204:\n        /* \"--CODEGEN--\":1479:1480   */\n      0x00\n        /* \"--CODEGEN--\":1496:1549   */\n      tag_205\n        /* \"--CODEGEN--\":1541:1548   */\n      dup5\n        /* \"--CODEGEN--\":1532:1538   */\n      dup3\n        /* \"--CODEGEN--\":1521:1530   */\n      dup6\n        /* \"--CODEGEN--\":1517:1539   */\n      add\n        /* \"--CODEGEN--\":1496:1549   */\n      jump(tag_174)\n    tag_205:\n        /* \"--CODEGEN--\":1486:1549   */\n      swap2\n      pop\n        /* \"--CODEGEN--\":1458:1555   */\n      pop\n        /* \"--CODEGEN--\":1390:1565   */\n      swap3\n      swap2\n      pop\n      pop\n      jump\n        /* \"--CODEGEN--\":1572:1835   */\n    tag_70:\n      0x00\n        /* \"--CODEGEN--\":1687:1689   */\n      0x20\n        /* \"--CODEGEN--\":1675:1684   */\n      dup3\n        /* \"--CODEGEN--\":1666:1673   */\n      dup5\n        /* \"--CODEGEN--\":1662:1685   */\n      sub\n        /* \"--CODEGEN--\":1658:1690   */\n      slt\n        /* \"--CODEGEN--\":1655:1657   */\n      iszero\n      tag_207\n      jumpi\n        /* \"--CODEGEN--\":1703:1704   */\n      0x00\n        /* \"--CODEGEN--\":1700:1701   */\n      dup1\n        /* \"--CODEGEN--\":1693:1705   */\n      revert\n        /* \"--CODEGEN--\":1655:1657   */\n    tag_207:\n        /* \"--CODEGEN--\":1738:1739   */\n      0x00\n        /* \"--CODEGEN--\":1755:1819   */\n      tag_208\n        /* \"--CODEGEN--\":1811:1818   */\n      dup5\n        /* \"--CODEGEN--\":1802:1808   */\n      dup3\n        /* \"--CODEGEN--\":1791:1800   */\n      dup6\n        /* \"--CODEGEN--\":1787:1809   */\n      add\n        /* \"--CODEGEN--\":1755:1819   */\n      jump(tag_178)\n    tag_208:\n        /* \"--CODEGEN--\":1745:1819   */\n      swap2\n      pop\n        /* \"--CODEGEN--\":1717:1825   */\n      pop\n        /* \"--CODEGEN--\":1649:1835   */\n      swap3\n      swap2\n      pop\n      pop\n      jump\n        /* \"--CODEGEN--\":1842:2314   */\n    tag_38:\n      0x00\n      dup1\n        /* \"--CODEGEN--\":1973:1975   */\n      0x40\n        /* \"--CODEGEN--\":1961:1970   */\n      dup4\n        /* \"--CODEGEN--\":1952:1959   */\n      dup6\n        /* \"--CODEGEN--\":1948:1971   */\n      sub\n        /* \"--CODEGEN--\":1944:1976   */\n      slt\n        /* \"--CODEGEN--\":1941:1943   */\n      iszero\n      tag_210\n      jumpi\n        /* \"--CODEGEN--\":1989:1990   */\n      0x00\n        /* \"--CODEGEN--\":1986:1987   */\n      dup1\n        /* \"--CODEGEN--\":1979:1991   */\n      revert\n        /* \"--CODEGEN--\":1941:1943   */\n    tag_210:\n        /* \"--CODEGEN--\":2024:2025   */\n      0x00\n        /* \"--CODEGEN--\":2041:2094   */\n      tag_211\n        /* \"--CODEGEN--\":2086:2093   */\n      dup6\n        /* \"--CODEGEN--\":2077:2083   */\n      dup3\n        /* \"--CODEGEN--\":2066:2075   */\n      dup7\n        /* \"--CODEGEN--\":2062:2084   */\n      add\n        /* \"--CODEGEN--\":2041:2094   */\n      jump(tag_174)\n    tag_211:\n        /* \"--CODEGEN--\":2031:2094   */\n      swap3\n      pop\n        /* \"--CODEGEN--\":2003:2100   */\n      pop\n        /* \"--CODEGEN--\":2159:2161   */\n      0x20\n        /* \"--CODEGEN--\":2148:2157   */\n      dup4\n        /* \"--CODEGEN--\":2144:2162   */\n      add\n        /* \"--CODEGEN--\":2131:2163   */\n      calldataload\n        /* \"--CODEGEN--\":2183:2201   */\n      0xffffffffffffffff\n        /* \"--CODEGEN--\":2175:2181   */\n      dup2\n        /* \"--CODEGEN--\":2172:2202   */\n      gt\n        /* \"--CODEGEN--\":2169:2171   */\n      iszero\n      tag_212\n      jumpi\n        /* \"--CODEGEN--\":2215:2216   */\n      0x00\n        /* \"--CODEGEN--\":2212:2213   */\n      dup1\n        /* \"--CODEGEN--\":2205:2217   */\n      revert\n        /* \"--CODEGEN--\":2169:2171   */\n    tag_212:\n        /* \"--CODEGEN--\":2235:2298   */\n      tag_213\n        /* \"--CODEGEN--\":2290:2297   */\n      dup6\n        /* \"--CODEGEN--\":2281:2287   */\n      dup3\n        /* \"--CODEGEN--\":2270:2279   */\n      dup7\n        /* \"--CODEGEN--\":2266:2288   */\n      add\n        /* \"--CODEGEN--\":2235:2298   */\n      jump(tag_181)\n    tag_213:\n        /* \"--CODEGEN--\":2225:2298   */\n      swap2\n      pop\n        /* \"--CODEGEN--\":2110:2304   */\n      pop\n        /* \"--CODEGEN--\":1935:2314   */\n      swap3\n      pop\n      swap3\n      swap1\n      pop\n      jump\n        /* \"--CODEGEN--\":2321:2668   */\n    tag_30:\n      0x00\n        /* \"--CODEGEN--\":2435:2437   */\n      0x20\n        /* \"--CODEGEN--\":2423:2432   */\n      dup3\n        /* \"--CODEGEN--\":2414:2421   */\n      dup5\n        /* \"--CODEGEN--\":2410:2433   */\n      sub\n        /* \"--CODEGEN--\":2406:2438   */\n      slt\n        /* \"--CODEGEN--\":2403:2405   */\n      iszero\n      tag_215\n      jumpi\n        /* \"--CODEGEN--\":2451:2452   */\n      0x00\n        /* \"--CODEGEN--\":2448:2449   */\n      dup1\n        /* \"--CODEGEN--\":2441:2453   */\n      revert\n        /* \"--CODEGEN--\":2403:2405   */\n    tag_215:\n        /* \"--CODEGEN--\":2514:2515   */\n      0x00\n        /* \"--CODEGEN--\":2503:2512   */\n      dup3\n        /* \"--CODEGEN--\":2499:2516   */\n      add\n        /* \"--CODEGEN--\":2486:2517   */\n      calldataload\n        /* \"--CODEGEN--\":2537:2555   */\n      0xffffffffffffffff\n        /* \"--CODEGEN--\":2529:2535   */\n      dup2\n        /* \"--CODEGEN--\":2526:2556   */\n      gt\n        /* \"--CODEGEN--\":2523:2525   */\n      iszero\n      tag_216\n      jumpi\n        /* \"--CODEGEN--\":2569:2570   */\n      0x00\n        /* \"--CODEGEN--\":2566:2567   */\n      dup1\n        /* \"--CODEGEN--\":2559:2571   */\n      revert\n        /* \"--CODEGEN--\":2523:2525   */\n    tag_216:\n        /* \"--CODEGEN--\":2589:2652   */\n      tag_217\n        /* \"--CODEGEN--\":2644:2651   */\n      dup5\n        /* \"--CODEGEN--\":2635:2641   */\n      dup3\n        /* \"--CODEGEN--\":2624:2633   */\n      dup6\n        /* \"--CODEGEN--\":2620:2642   */\n      add\n        /* \"--CODEGEN--\":2589:2652   */\n      jump(tag_181)\n    tag_217:\n        /* \"--CODEGEN--\":2579:2652   */\n      swap2\n      pop\n        /* \"--CODEGEN--\":2465:2658   */\n      pop\n        /* \"--CODEGEN--\":2397:2668   */\n      swap3\n      swap2\n      pop\n      pop\n      jump\n        /* \"--CODEGEN--\":2675:3037   */\n    tag_77:\n      0x00\n        /* \"--CODEGEN--\":2800:2802   */\n      0x20\n        /* \"--CODEGEN--\":2788:2797   */\n      dup3\n        /* \"--CODEGEN--\":2779:2786   */\n      dup5\n        /* \"--CODEGEN--\":2775:2798   */\n      sub\n        /* \"--CODEGEN--\":2771:2803   */\n      slt\n        /* \"--CODEGEN--\":2768:2770   */\n      iszero\n      tag_219\n      jumpi\n        /* \"--CODEGEN--\":2816:2817   */\n      0x00\n        /* \"--CODEGEN--\":2813:2814   */\n      dup1\n        /* \"--CODEGEN--\":2806:2818   */\n      revert\n        /* \"--CODEGEN--\":2768:2770   */\n    tag_219:\n        /* \"--CODEGEN--\":2872:2873   */\n      0x00\n        /* \"--CODEGEN--\":2861:2870   */\n      dup3\n        /* \"--CODEGEN--\":2857:2874   */\n      add\n        /* \"--CODEGEN--\":2851:2875   */\n      mload\n        /* \"--CODEGEN--\":2895:2913   */\n      0xffffffffffffffff\n        /* \"--CODEGEN--\":2887:2893   */\n      dup2\n        /* \"--CODEGEN--\":2884:2914   */\n      gt\n        /* \"--CODEGEN--\":2881:2883   */\n      iszero\n      tag_220\n      jumpi\n        /* \"--CODEGEN--\":2927:2928   */\n      0x00\n        /* \"--CODEGEN--\":2924:2925   */\n      dup1\n        /* \"--CODEGEN--\":2917:2929   */\n      revert\n        /* \"--CODEGEN--\":2881:2883   */\n    tag_220:\n        /* \"--CODEGEN--\":2947:3021   */\n      tag_221\n        /* \"--CODEGEN--\":3013:3020   */\n      dup5\n        /* \"--CODEGEN--\":3004:3010   */\n      dup3\n        /* \"--CODEGEN--\":2993:3002   */\n      dup6\n        /* \"--CODEGEN--\":2989:3011   */\n      add\n        /* \"--CODEGEN--\":2947:3021   */\n      jump(tag_191)\n    tag_221:\n        /* \"--CODEGEN--\":2937:3021   */\n      swap2\n      pop\n        /* \"--CODEGEN--\":2830:3027   */\n      pop\n        /* \"--CODEGEN--\":2762:3037   */\n      swap3\n      swap2\n      pop\n      pop\n      jump\n        /* \"--CODEGEN--\":3044:3516   */\n    tag_26:\n      0x00\n      dup1\n        /* \"--CODEGEN--\":3175:3177   */\n      0x40\n        /* \"--CODEGEN--\":3163:3172   */\n      dup4\n        /* \"--CODEGEN--\":3154:3161   */\n      dup6\n        /* \"--CODEGEN--\":3150:3173   */\n      sub\n        /* \"--CODEGEN--\":3146:3178   */\n      slt\n        /* \"--CODEGEN--\":3143:3145   */\n      iszero\n      tag_223\n      jumpi\n        /* \"--CODEGEN--\":3191:3192   */\n      0x00\n        /* \"--CODEGEN--\":3188:3189   */\n      dup1\n        /* \"--CODEGEN--\":3181:3193   */\n      revert\n        /* \"--CODEGEN--\":3143:3145   */\n    tag_223:\n        /* \"--CODEGEN--\":3254:3255   */\n      0x00\n        /* \"--CODEGEN--\":3243:3252   */\n      dup4\n        /* \"--CODEGEN--\":3239:3256   */\n      add\n        /* \"--CODEGEN--\":3226:3257   */\n      calldataload\n        /* \"--CODEGEN--\":3277:3295   */\n      0xffffffffffffffff\n        /* \"--CODEGEN--\":3269:3275   */\n      dup2\n        /* \"--CODEGEN--\":3266:3296   */\n      gt\n        /* \"--CODEGEN--\":3263:3265   */\n      iszero\n      tag_224\n      jumpi\n        /* \"--CODEGEN--\":3309:3310   */\n      0x00\n        /* \"--CODEGEN--\":3306:3307   */\n      dup1\n        /* \"--CODEGEN--\":3299:3311   */\n      revert\n        /* \"--CODEGEN--\":3263:3265   */\n    tag_224:\n        /* \"--CODEGEN--\":3329:3392   */\n      tag_225\n        /* \"--CODEGEN--\":3384:3391   */\n      dup6\n        /* \"--CODEGEN--\":3375:3381   */\n      dup3\n        /* \"--CODEGEN--\":3364:3373   */\n      dup7\n        /* \"--CODEGEN--\":3360:3382   */\n      add\n        /* \"--CODEGEN--\":3329:3392   */\n      jump(tag_181)\n    tag_225:\n        /* \"--CODEGEN--\":3319:3392   */\n      swap3\n      pop\n        /* \"--CODEGEN--\":3205:3398   */\n      pop\n        /* \"--CODEGEN--\":3429:3431   */\n      0x20\n        /* \"--CODEGEN--\":3447:3500   */\n      tag_226\n        /* \"--CODEGEN--\":3492:3499   */\n      dup6\n        /* \"--CODEGEN--\":3483:3489   */\n      dup3\n        /* \"--CODEGEN--\":3472:3481   */\n      dup7\n        /* \"--CODEGEN--\":3468:3490   */\n      add\n        /* \"--CODEGEN--\":3447:3500   */\n      jump(tag_174)\n    tag_226:\n        /* \"--CODEGEN--\":3437:3500   */\n      swap2\n      pop\n        /* \"--CODEGEN--\":3408:3506   */\n      pop\n        /* \"--CODEGEN--\":3137:3516   */\n      swap3\n      pop\n      swap3\n      swap1\n      pop\n      jump\n        /* \"--CODEGEN--\":3523:3764   */\n    tag_46:\n      0x00\n        /* \"--CODEGEN--\":3627:3629   */\n      0x20\n        /* \"--CODEGEN--\":3615:3624   */\n      dup3\n        /* \"--CODEGEN--\":3606:3613   */\n      dup5\n        /* \"--CODEGEN--\":3602:3625   */\n      sub\n        /* \"--CODEGEN--\":3598:3630   */\n      slt\n        /* \"--CODEGEN--\":3595:3597   */\n      iszero\n      tag_228\n      jumpi\n        /* \"--CODEGEN--\":3643:3644   */\n      0x00\n        /* \"--CODEGEN--\":3640:3641   */\n      dup1\n        /* \"--CODEGEN--\":3633:3645   */\n      revert\n        /* \"--CODEGEN--\":3595:3597   */\n    tag_228:\n        /* \"--CODEGEN--\":3678:3679   */\n      0x00\n        /* \"--CODEGEN--\":3695:3748   */\n      tag_229\n        /* \"--CODEGEN--\":3740:3747   */\n      dup5\n        /* \"--CODEGEN--\":3731:3737   */\n      dup3\n        /* \"--CODEGEN--\":3720:3729   */\n      dup6\n        /* \"--CODEGEN--\":3716:3738   */\n      add\n        /* \"--CODEGEN--\":3695:3748   */\n      jump(tag_199)\n    tag_229:\n        /* \"--CODEGEN--\":3685:3748   */\n      swap2\n      pop\n        /* \"--CODEGEN--\":3657:3754   */\n      pop\n        /* \"--CODEGEN--\":3589:3764   */\n      swap3\n      swap2\n      pop\n      pop\n      jump\n        /* \"--CODEGEN--\":3772:3965   */\n    tag_230:\n      0x00\n        /* \"--CODEGEN--\":3893:3959   */\n      tag_232\n        /* \"--CODEGEN--\":3955:3958   */\n      dup4\n        /* \"--CODEGEN--\":3947:3953   */\n      dup4\n        /* \"--CODEGEN--\":3893:3959   */\n      jump(tag_233)\n    tag_232:\n        /* \"--CODEGEN--\":3879:3959   */\n      swap1\n      pop\n        /* \"--CODEGEN--\":3872:3965   */\n      swap3\n      swap2\n      pop\n      pop\n      jump\n        /* \"--CODEGEN--\":3973:4115   */\n    tag_234:\n        /* \"--CODEGEN--\":4064:4109   */\n      tag_236\n        /* \"--CODEGEN--\":4103:4108   */\n      dup2\n        /* \"--CODEGEN--\":4064:4109   */\n      jump(tag_237)\n    tag_236:\n        /* \"--CODEGEN--\":4059:4062   */\n      dup3\n        /* \"--CODEGEN--\":4052:4110   */\n      mstore\n        /* \"--CODEGEN--\":4046:4115   */\n      pop\n      pop\n      jump\n        /* \"--CODEGEN--\":4122:4235   */\n    tag_238:\n        /* \"--CODEGEN--\":4205:4229   */\n      tag_240\n        /* \"--CODEGEN--\":4223:4228   */\n      dup2\n        /* \"--CODEGEN--\":4205:4229   */\n      jump(tag_241)\n    tag_240:\n        /* \"--CODEGEN--\":4200:4203   */\n      dup3\n        /* \"--CODEGEN--\":4193:4230   */\n      mstore\n        /* \"--CODEGEN--\":4187:4235   */\n      pop\n      pop\n      jump\n        /* \"--CODEGEN--\":4271:5199   */\n    tag_242:\n      0x00\n        /* \"--CODEGEN--\":4436:4500   */\n      tag_244\n        /* \"--CODEGEN--\":4494:4499   */\n      dup3\n        /* \"--CODEGEN--\":4436:4500   */\n      jump(tag_245)\n    tag_244:\n        /* \"--CODEGEN--\":4513:4609   */\n      tag_246\n        /* \"--CODEGEN--\":4602:4608   */\n      dup2\n        /* \"--CODEGEN--\":4597:4600   */\n      dup6\n        /* \"--CODEGEN--\":4513:4609   */\n      jump(tag_247)\n    tag_246:\n        /* \"--CODEGEN--\":4506:4609   */\n      swap4\n      pop\n        /* \"--CODEGEN--\":4632:4635   */\n      dup4\n        /* \"--CODEGEN--\":4674:4678   */\n      0x20\n        /* \"--CODEGEN--\":4666:4672   */\n      dup3\n        /* \"--CODEGEN--\":4662:4679   */\n      mul\n        /* \"--CODEGEN--\":4657:4660   */\n      dup6\n        /* \"--CODEGEN--\":4653:4680   */\n      add\n        /* \"--CODEGEN--\":4701:4767   */\n      tag_248\n        /* \"--CODEGEN--\":4761:4766   */\n      dup6\n        /* \"--CODEGEN--\":4701:4767   */\n      jump(tag_249)\n    tag_248:\n        /* \"--CODEGEN--\":4787:4794   */\n      dup1\n        /* \"--CODEGEN--\":4815:4816   */\n      0x00\n        /* \"--CODEGEN--\":4800:5160   */\n    tag_250:\n        /* \"--CODEGEN--\":4825:4831   */\n      dup6\n        /* \"--CODEGEN--\":4822:4823   */\n      dup2\n        /* \"--CODEGEN--\":4819:4832   */\n      lt\n        /* \"--CODEGEN--\":4800:5160   */\n      iszero\n      tag_252\n      jumpi\n        /* \"--CODEGEN--\":4887:4896   */\n      dup5\n        /* \"--CODEGEN--\":4881:4885   */\n      dup5\n        /* \"--CODEGEN--\":4877:4897   */\n      sub\n        /* \"--CODEGEN--\":4872:4875   */\n      dup10\n        /* \"--CODEGEN--\":4865:4898   */\n      mstore\n        /* \"--CODEGEN--\":4932:4938   */\n      dup2\n        /* \"--CODEGEN--\":4926:4939   */\n      mload\n        /* \"--CODEGEN--\":4954:5038   */\n      tag_253\n        /* \"--CODEGEN--\":5033:5037   */\n      dup6\n        /* \"--CODEGEN--\":5018:5031   */\n      dup3\n        /* \"--CODEGEN--\":4954:5038   */\n      jump(tag_230)\n    tag_253:\n        /* \"--CODEGEN--\":4946:5038   */\n      swap5\n      pop\n        /* \"--CODEGEN--\":5055:5125   */\n      tag_254\n        /* \"--CODEGEN--\":5118:5124   */\n      dup4\n        /* \"--CODEGEN--\":5055:5125   */\n      jump(tag_255)\n    tag_254:\n        /* \"--CODEGEN--\":5045:5125   */\n      swap3\n      pop\n        /* \"--CODEGEN--\":5148:5152   */\n      0x20\n        /* \"--CODEGEN--\":5143:5146   */\n      dup11\n        /* \"--CODEGEN--\":5139:5153   */\n      add\n        /* \"--CODEGEN--\":5132:5153   */\n      swap10\n      pop\n        /* \"--CODEGEN--\":4857:5160   */\n      pop\n        /* \"--CODEGEN--\":4847:4848   */\n      0x01\n        /* \"--CODEGEN--\":4844:4845   */\n      dup2\n        /* \"--CODEGEN--\":4840:4849   */\n      add\n        /* \"--CODEGEN--\":4835:4849   */\n      swap1\n      pop\n        /* \"--CODEGEN--\":4800:5160   */\n      jump(tag_250)\n    tag_252:\n        /* \"--CODEGEN--\":4804:4818   */\n      pop\n        /* \"--CODEGEN--\":5173:5177   */\n      dup3\n        /* \"--CODEGEN--\":5166:5177   */\n      swap8\n      pop\n        /* \"--CODEGEN--\":5190:5193   */\n      dup8\n        /* \"--CODEGEN--\":5183:5193   */\n      swap6\n      pop\n        /* \"--CODEGEN--\":4415:5199   */\n      pop\n      pop\n      pop\n      pop\n      pop\n      swap3\n      swap2\n      pop\n      pop\n      jump\n        /* \"--CODEGEN--\":5207:5349   */\n    tag_256:\n        /* \"--CODEGEN--\":5298:5343   */\n      tag_258\n        /* \"--CODEGEN--\":5337:5342   */\n      dup2\n        /* \"--CODEGEN--\":5298:5343   */\n      jump(tag_259)\n    tag_258:\n        /* \"--CODEGEN--\":5293:5296   */\n      dup3\n        /* \"--CODEGEN--\":5286:5344   */\n      mstore\n        /* \"--CODEGEN--\":5280:5349   */\n      pop\n      pop\n      jump\n        /* \"--CODEGEN--\":5356:5683   */\n    tag_233:\n      0x00\n        /* \"--CODEGEN--\":5458:5497   */\n      tag_261\n        /* \"--CODEGEN--\":5491:5496   */\n      dup3\n        /* \"--CODEGEN--\":5458:5497   */\n      jump(tag_262)\n    tag_261:\n        /* \"--CODEGEN--\":5509:5570   */\n      tag_263\n        /* \"--CODEGEN--\":5563:5569   */\n      dup2\n        /* \"--CODEGEN--\":5558:5561   */\n      dup6\n        /* \"--CODEGEN--\":5509:5570   */\n      jump(tag_264)\n    tag_263:\n        /* \"--CODEGEN--\":5502:5570   */\n      swap4\n      pop\n        /* \"--CODEGEN--\":5575:5627   */\n      tag_265\n        /* \"--CODEGEN--\":5620:5626   */\n      dup2\n        /* \"--CODEGEN--\":5615:5618   */\n      dup6\n        /* \"--CODEGEN--\":5608:5612   */\n      0x20\n        /* \"--CODEGEN--\":5601:5606   */\n      dup7\n        /* \"--CODEGEN--\":5597:5613   */\n      add\n        /* \"--CODEGEN--\":5575:5627   */\n      jump(tag_198)\n    tag_265:\n        /* \"--CODEGEN--\":5648:5677   */\n      tag_266\n        /* \"--CODEGEN--\":5670:5676   */\n      dup2\n        /* \"--CODEGEN--\":5648:5677   */\n      jump(tag_267)\n    tag_266:\n        /* \"--CODEGEN--\":5643:5646   */\n      dup5\n        /* \"--CODEGEN--\":5639:5678   */\n      add\n        /* \"--CODEGEN--\":5632:5678   */\n      swap2\n      pop\n        /* \"--CODEGEN--\":5438:5683   */\n      pop\n      swap3\n      swap2\n      pop\n      pop\n      jump\n        /* \"--CODEGEN--\":5690:6037   */\n    tag_268:\n      0x00\n        /* \"--CODEGEN--\":5802:5841   */\n      tag_270\n        /* \"--CODEGEN--\":5835:5840   */\n      dup3\n        /* \"--CODEGEN--\":5802:5841   */\n      jump(tag_262)\n    tag_270:\n        /* \"--CODEGEN--\":5853:5924   */\n      tag_271\n        /* \"--CODEGEN--\":5917:5923   */\n      dup2\n        /* \"--CODEGEN--\":5912:5915   */\n      dup6\n        /* \"--CODEGEN--\":5853:5924   */\n      jump(tag_272)\n    tag_271:\n        /* \"--CODEGEN--\":5846:5924   */\n      swap4\n      pop\n        /* \"--CODEGEN--\":5929:5981   */\n      tag_273\n        /* \"--CODEGEN--\":5974:5980   */\n      dup2\n        /* \"--CODEGEN--\":5969:5972   */\n      dup6\n        /* \"--CODEGEN--\":5962:5966   */\n      0x20\n        /* \"--CODEGEN--\":5955:5960   */\n      dup7\n        /* \"--CODEGEN--\":5951:5967   */\n      add\n        /* \"--CODEGEN--\":5929:5981   */\n      jump(tag_198)\n    tag_273:\n        /* \"--CODEGEN--\":6002:6031   */\n      tag_274\n        /* \"--CODEGEN--\":6024:6030   */\n      dup2\n        /* \"--CODEGEN--\":6002:6031   */\n      jump(tag_267)\n    tag_274:\n        /* \"--CODEGEN--\":5997:6000   */\n      dup5\n        /* \"--CODEGEN--\":5993:6032   */\n      add\n        /* \"--CODEGEN--\":5986:6032   */\n      swap2\n      pop\n        /* \"--CODEGEN--\":5782:6037   */\n      pop\n      swap3\n      swap2\n      pop\n      pop\n      jump\n        /* \"--CODEGEN--\":6044:6404   */\n    tag_275:\n      0x00\n        /* \"--CODEGEN--\":6174:6213   */\n      tag_277\n        /* \"--CODEGEN--\":6207:6212   */\n      dup3\n        /* \"--CODEGEN--\":6174:6213   */\n      jump(tag_262)\n    tag_277:\n        /* \"--CODEGEN--\":6225:6314   */\n      tag_278\n        /* \"--CODEGEN--\":6307:6313   */\n      dup2\n        /* \"--CODEGEN--\":6302:6305   */\n      dup6\n        /* \"--CODEGEN--\":6225:6314   */\n      jump(tag_279)\n    tag_278:\n        /* \"--CODEGEN--\":6218:6314   */\n      swap4\n      pop\n        /* \"--CODEGEN--\":6319:6371   */\n      tag_280\n        /* \"--CODEGEN--\":6364:6370   */\n      dup2\n        /* \"--CODEGEN--\":6359:6362   */\n      dup6\n        /* \"--CODEGEN--\":6352:6356   */\n      0x20\n        /* \"--CODEGEN--\":6345:6350   */\n      dup7\n        /* \"--CODEGEN--\":6341:6357   */\n      add\n        /* \"--CODEGEN--\":6319:6371   */\n      jump(tag_198)\n    tag_280:\n        /* \"--CODEGEN--\":6392:6398   */\n      dup1\n        /* \"--CODEGEN--\":6387:6390   */\n      dup5\n        /* \"--CODEGEN--\":6383:6399   */\n      add\n        /* \"--CODEGEN--\":6376:6399   */\n      swap2\n      pop\n        /* \"--CODEGEN--\":6154:6404   */\n      pop\n      swap3\n      swap2\n      pop\n      pop\n      jump\n        /* \"--CODEGEN--\":6436:7320   */\n    tag_281:\n      0x00\n        /* \"--CODEGEN--\":6573:6578   */\n      dup2\n        /* \"--CODEGEN--\":6567:6579   */\n      sload\n        /* \"--CODEGEN--\":6607:6608   */\n      0x01\n        /* \"--CODEGEN--\":6596:6605   */\n      dup2\n        /* \"--CODEGEN--\":6592:6609   */\n      and\n        /* \"--CODEGEN--\":6620:6621   */\n      0x00\n        /* \"--CODEGEN--\":6615:6883   */\n      dup2\n      eq\n      tag_284\n      jumpi\n        /* \"--CODEGEN--\":6894:6895   */\n      0x01\n        /* \"--CODEGEN--\":6889:7314   */\n      dup2\n      eq\n      tag_285\n      jumpi\n        /* \"--CODEGEN--\":6585:7314   */\n      jump(tag_283)\n        /* \"--CODEGEN--\":6615:6883   */\n    tag_284:\n        /* \"--CODEGEN--\":6693:6697   */\n      0x7f\n        /* \"--CODEGEN--\":6689:6690   */\n      0x02\n        /* \"--CODEGEN--\":6678:6687   */\n      dup4\n        /* \"--CODEGEN--\":6674:6691   */\n      div\n        /* \"--CODEGEN--\":6670:6698   */\n      and\n        /* \"--CODEGEN--\":6712:6801   */\n      tag_286\n        /* \"--CODEGEN--\":6794:6800   */\n      dup2\n        /* \"--CODEGEN--\":6789:6792   */\n      dup8\n        /* \"--CODEGEN--\":6712:6801   */\n      jump(tag_279)\n    tag_286:\n        /* \"--CODEGEN--\":6705:6801   */\n      swap6\n      pop\n        /* \"--CODEGEN--\":6839:6843   */\n      0xff\n        /* \"--CODEGEN--\":6835:6844   */\n      not\n        /* \"--CODEGEN--\":6824:6833   */\n      dup4\n        /* \"--CODEGEN--\":6820:6845   */\n      and\n        /* \"--CODEGEN--\":6815:6818   */\n      dup7\n        /* \"--CODEGEN--\":6808:6846   */\n      mstore\n        /* \"--CODEGEN--\":6869:6875   */\n      dup1\n        /* \"--CODEGEN--\":6864:6867   */\n      dup7\n        /* \"--CODEGEN--\":6860:6876   */\n      add\n        /* \"--CODEGEN--\":6853:6876   */\n      swap4\n      pop\n        /* \"--CODEGEN--\":6622:6883   */\n      pop\n        /* \"--CODEGEN--\":6615:6883   */\n      jump(tag_283)\n        /* \"--CODEGEN--\":6889:7314   */\n    tag_285:\n        /* \"--CODEGEN--\":6958:6959   */\n      0x02\n        /* \"--CODEGEN--\":6947:6956   */\n      dup3\n        /* \"--CODEGEN--\":6943:6960   */\n      div\n        /* \"--CODEGEN--\":6974:7063   */\n      tag_287\n        /* \"--CODEGEN--\":7056:7062   */\n      dup2\n        /* \"--CODEGEN--\":7051:7054   */\n      dup8\n        /* \"--CODEGEN--\":6974:7063   */\n      jump(tag_279)\n    tag_287:\n        /* \"--CODEGEN--\":6967:7063   */\n      swap6\n      pop\n        /* \"--CODEGEN--\":7085:7123   */\n      tag_288\n        /* \"--CODEGEN--\":7117:7122   */\n      dup6\n        /* \"--CODEGEN--\":7085:7123   */\n      jump(tag_289)\n    tag_288:\n        /* \"--CODEGEN--\":7139:7140   */\n      0x00\n        /* \"--CODEGEN--\":7147:7277   */\n    tag_290:\n        /* \"--CODEGEN--\":7161:7167   */\n      dup3\n        /* \"--CODEGEN--\":7158:7159   */\n      dup2\n        /* \"--CODEGEN--\":7155:7168   */\n      lt\n        /* \"--CODEGEN--\":7147:7277   */\n      iszero\n      tag_292\n      jumpi\n        /* \"--CODEGEN--\":7226:7233   */\n      dup2\n        /* \"--CODEGEN--\":7220:7234   */\n      sload\n        /* \"--CODEGEN--\":7216:7217   */\n      dup2\n        /* \"--CODEGEN--\":7211:7214   */\n      dup10\n        /* \"--CODEGEN--\":7207:7218   */\n      add\n        /* \"--CODEGEN--\":7200:7235   */\n      mstore\n        /* \"--CODEGEN--\":7267:7268   */\n      0x01\n        /* \"--CODEGEN--\":7258:7265   */\n      dup3\n        /* \"--CODEGEN--\":7254:7269   */\n      add\n        /* \"--CODEGEN--\":7243:7269   */\n      swap2\n      pop\n        /* \"--CODEGEN--\":7183:7187   */\n      0x20\n        /* \"--CODEGEN--\":7180:7181   */\n      dup2\n        /* \"--CODEGEN--\":7176:7188   */\n      add\n        /* \"--CODEGEN--\":7171:7188   */\n      swap1\n      pop\n        /* \"--CODEGEN--\":7147:7277   */\n      jump(tag_290)\n    tag_292:\n        /* \"--CODEGEN--\":7300:7306   */\n      dup3\n        /* \"--CODEGEN--\":7295:7298   */\n      dup9\n        /* \"--CODEGEN--\":7291:7307   */\n      add\n        /* \"--CODEGEN--\":7284:7307   */\n      swap6\n      pop\n        /* \"--CODEGEN--\":6896:7314   */\n      pop\n      pop\n      pop\n        /* \"--CODEGEN--\":6585:7314   */\n    tag_283:\n      pop\n        /* \"--CODEGEN--\":6543:7320   */\n      pop\n      swap3\n      swap2\n      pop\n      pop\n      jump\n        /* \"--CODEGEN--\":7329:7636   */\n    tag_293:\n      0x00\n        /* \"--CODEGEN--\":7489:7555   */\n      tag_295\n        /* \"--CODEGEN--\":7553:7554   */\n      0x08\n        /* \"--CODEGEN--\":7548:7551   */\n      dup4\n        /* \"--CODEGEN--\":7489:7555   */\n      jump(tag_272)\n    tag_295:\n        /* \"--CODEGEN--\":7482:7555   */\n      swap2\n      pop\n        /* \"--CODEGEN--\":7588:7598   */\n      0x69735363686f6f6c000000000000000000000000000000000000000000000000\n        /* \"--CODEGEN--\":7584:7585   */\n      0x00\n        /* \"--CODEGEN--\":7579:7582   */\n      dup4\n        /* \"--CODEGEN--\":7575:7586   */\n      add\n        /* \"--CODEGEN--\":7568:7599   */\n      mstore\n        /* \"--CODEGEN--\":7627:7629   */\n      0x20\n        /* \"--CODEGEN--\":7622:7625   */\n      dup3\n        /* \"--CODEGEN--\":7618:7630   */\n      add\n        /* \"--CODEGEN--\":7611:7630   */\n      swap1\n      pop\n        /* \"--CODEGEN--\":7475:7636   */\n      swap2\n      swap1\n      pop\n      jump\n        /* \"--CODEGEN--\":7645:7987   */\n    tag_296:\n      0x00\n        /* \"--CODEGEN--\":7823:7907   */\n      tag_298\n        /* \"--CODEGEN--\":7905:7906   */\n      0x08\n        /* \"--CODEGEN--\":7900:7903   */\n      dup4\n        /* \"--CODEGEN--\":7823:7907   */\n      jump(tag_279)\n    tag_298:\n        /* \"--CODEGEN--\":7816:7907   */\n      swap2\n      pop\n        /* \"--CODEGEN--\":7940:7950   */\n      0x69735363686f6f6c000000000000000000000000000000000000000000000000\n        /* \"--CODEGEN--\":7936:7937   */\n      0x00\n        /* \"--CODEGEN--\":7931:7934   */\n      dup4\n        /* \"--CODEGEN--\":7927:7938   */\n      add\n        /* \"--CODEGEN--\":7920:7951   */\n      mstore\n        /* \"--CODEGEN--\":7979:7980   */\n      0x08\n        /* \"--CODEGEN--\":7974:7977   */\n      dup3\n        /* \"--CODEGEN--\":7970:7981   */\n      add\n        /* \"--CODEGEN--\":7963:7981   */\n      swap1\n      pop\n        /* \"--CODEGEN--\":7809:7987   */\n      swap2\n      swap1\n      pop\n      jump\n        /* \"--CODEGEN--\":7996:8308   */\n    tag_299:\n      0x00\n        /* \"--CODEGEN--\":8156:8223   */\n      tag_301\n        /* \"--CODEGEN--\":8220:8222   */\n      0x0c\n        /* \"--CODEGEN--\":8215:8218   */\n      dup4\n        /* \"--CODEGEN--\":8156:8223   */\n      jump(tag_272)\n    tag_301:\n        /* \"--CODEGEN--\":8149:8223   */\n      swap2\n      pop\n        /* \"--CODEGEN--\":8256:8270   */\n      0x4365727469734973737565640000000000000000000000000000000000000000\n        /* \"--CODEGEN--\":8252:8253   */\n      0x00\n        /* \"--CODEGEN--\":8247:8250   */\n      dup4\n        /* \"--CODEGEN--\":8243:8254   */\n      add\n        /* \"--CODEGEN--\":8236:8271   */\n      mstore\n        /* \"--CODEGEN--\":8299:8301   */\n      0x20\n        /* \"--CODEGEN--\":8294:8297   */\n      dup3\n        /* \"--CODEGEN--\":8290:8302   */\n      add\n        /* \"--CODEGEN--\":8283:8302   */\n      swap1\n      pop\n        /* \"--CODEGEN--\":8142:8308   */\n      swap2\n      swap1\n      pop\n      jump\n        /* \"--CODEGEN--\":8317:8665   */\n    tag_302:\n      0x00\n        /* \"--CODEGEN--\":8495:8580   */\n      tag_304\n        /* \"--CODEGEN--\":8577:8579   */\n      0x0c\n        /* \"--CODEGEN--\":8572:8575   */\n      dup4\n        /* \"--CODEGEN--\":8495:8580   */\n      jump(tag_279)\n    tag_304:\n        /* \"--CODEGEN--\":8488:8580   */\n      swap2\n      pop\n        /* \"--CODEGEN--\":8613:8627   */\n      0x4365727469734973737565640000000000000000000000000000000000000000\n        /* \"--CODEGEN--\":8609:8610   */\n      0x00\n        /* \"--CODEGEN--\":8604:8607   */\n      dup4\n        /* \"--CODEGEN--\":8600:8611   */\n      add\n        /* \"--CODEGEN--\":8593:8628   */\n      mstore\n        /* \"--CODEGEN--\":8656:8658   */\n      0x0c\n        /* \"--CODEGEN--\":8651:8654   */\n      dup3\n        /* \"--CODEGEN--\":8647:8659   */\n      add\n        /* \"--CODEGEN--\":8640:8659   */\n      swap1\n      pop\n        /* \"--CODEGEN--\":8481:8665   */\n      swap2\n      swap1\n      pop\n      jump\n        /* \"--CODEGEN--\":8673:8786   */\n    tag_305:\n        /* \"--CODEGEN--\":8756:8780   */\n      tag_307\n        /* \"--CODEGEN--\":8774:8779   */\n      dup2\n        /* \"--CODEGEN--\":8756:8780   */\n      jump(tag_308)\n    tag_307:\n        /* \"--CODEGEN--\":8751:8754   */\n      dup3\n        /* \"--CODEGEN--\":8744:8781   */\n      mstore\n        /* \"--CODEGEN--\":8738:8786   */\n      pop\n      pop\n      jump\n        /* \"--CODEGEN--\":8793:9059   */\n    tag_81:\n      0x00\n        /* \"--CODEGEN--\":8939:9034   */\n      tag_310\n        /* \"--CODEGEN--\":9030:9033   */\n      dup3\n        /* \"--CODEGEN--\":9021:9027   */\n      dup5\n        /* \"--CODEGEN--\":8939:9034   */\n      jump(tag_275)\n    tag_310:\n        /* \"--CODEGEN--\":8932:9034   */\n      swap2\n      pop\n        /* \"--CODEGEN--\":9051:9054   */\n      dup2\n        /* \"--CODEGEN--\":9044:9054   */\n      swap1\n      pop\n        /* \"--CODEGEN--\":8920:9059   */\n      swap3\n      swap2\n      pop\n      pop\n      jump\n        /* \"--CODEGEN--\":9066:9326   */\n    tag_110:\n      0x00\n        /* \"--CODEGEN--\":9209:9301   */\n      tag_312\n        /* \"--CODEGEN--\":9297:9300   */\n      dup3\n        /* \"--CODEGEN--\":9288:9294   */\n      dup5\n        /* \"--CODEGEN--\":9209:9301   */\n      jump(tag_281)\n    tag_312:\n        /* \"--CODEGEN--\":9202:9301   */\n      swap2\n      pop\n        /* \"--CODEGEN--\":9318:9321   */\n      dup2\n        /* \"--CODEGEN--\":9311:9321   */\n      swap1\n      pop\n        /* \"--CODEGEN--\":9190:9326   */\n      swap3\n      swap2\n      pop\n      pop\n      jump\n        /* \"--CODEGEN--\":9333:9705   */\n    tag_79:\n      0x00\n        /* \"--CODEGEN--\":9532:9680   */\n      tag_314\n        /* \"--CODEGEN--\":9676:9679   */\n      dup3\n        /* \"--CODEGEN--\":9532:9680   */\n      jump(tag_296)\n    tag_314:\n        /* \"--CODEGEN--\":9525:9680   */\n      swap2\n      pop\n        /* \"--CODEGEN--\":9697:9700   */\n      dup2\n        /* \"--CODEGEN--\":9690:9700   */\n      swap1\n      pop\n        /* \"--CODEGEN--\":9513:9705   */\n      swap2\n      swap1\n      pop\n      jump\n        /* \"--CODEGEN--\":9712:10084   */\n    tag_155:\n      0x00\n        /* \"--CODEGEN--\":9911:10059   */\n      tag_316\n        /* \"--CODEGEN--\":10055:10058   */\n      dup3\n        /* \"--CODEGEN--\":9911:10059   */\n      jump(tag_302)\n    tag_316:\n        /* \"--CODEGEN--\":9904:10059   */\n      swap2\n      pop\n        /* \"--CODEGEN--\":10076:10079   */\n      dup2\n        /* \"--CODEGEN--\":10069:10079   */\n      swap1\n      pop\n        /* \"--CODEGEN--\":9892:10084   */\n      swap2\n      swap1\n      pop\n      jump\n        /* \"--CODEGEN--\":10091:10304   */\n    tag_60:\n      0x00\n        /* \"--CODEGEN--\":10209:10211   */\n      0x20\n        /* \"--CODEGEN--\":10198:10207   */\n      dup3\n        /* \"--CODEGEN--\":10194:10212   */\n      add\n        /* \"--CODEGEN--\":10186:10212   */\n      swap1\n      pop\n        /* \"--CODEGEN--\":10223:10294   */\n      tag_318\n        /* \"--CODEGEN--\":10291:10292   */\n      0x00\n        /* \"--CODEGEN--\":10280:10289   */\n      dup4\n        /* \"--CODEGEN--\":10276:10293   */\n      add\n        /* \"--CODEGEN--\":10267:10273   */\n      dup5\n        /* \"--CODEGEN--\":10223:10294   */\n      jump(tag_238)\n    tag_318:\n        /* \"--CODEGEN--\":10180:10304   */\n      swap3\n      swap2\n      pop\n      pop\n      jump\n        /* \"--CODEGEN--\":10311:10540   */\n    tag_85:\n      0x00\n        /* \"--CODEGEN--\":10437:10439   */\n      0x20\n        /* \"--CODEGEN--\":10426:10435   */\n      dup3\n        /* \"--CODEGEN--\":10422:10440   */\n      add\n        /* \"--CODEGEN--\":10414:10440   */\n      swap1\n      pop\n        /* \"--CODEGEN--\":10451:10530   */\n      tag_320\n        /* \"--CODEGEN--\":10527:10528   */\n      0x00\n        /* \"--CODEGEN--\":10516:10525   */\n      dup4\n        /* \"--CODEGEN--\":10512:10529   */\n      add\n        /* \"--CODEGEN--\":10503:10509   */\n      dup5\n        /* \"--CODEGEN--\":10451:10530   */\n      jump(tag_234)\n    tag_320:\n        /* \"--CODEGEN--\":10408:10540   */\n      swap3\n      swap2\n      pop\n      pop\n      jump\n        /* \"--CODEGEN--\":10547:10887   */\n    tag_72:\n      0x00\n        /* \"--CODEGEN--\":10701:10703   */\n      0x40\n        /* \"--CODEGEN--\":10690:10699   */\n      dup3\n        /* \"--CODEGEN--\":10686:10704   */\n      add\n        /* \"--CODEGEN--\":10678:10704   */\n      swap1\n      pop\n        /* \"--CODEGEN--\":10715:10786   */\n      tag_322\n        /* \"--CODEGEN--\":10783:10784   */\n      0x00\n        /* \"--CODEGEN--\":10772:10781   */\n      dup4\n        /* \"--CODEGEN--\":10768:10785   */\n      add\n        /* \"--CODEGEN--\":10759:10765   */\n      dup6\n        /* \"--CODEGEN--\":10715:10786   */\n      jump(tag_238)\n    tag_322:\n        /* \"--CODEGEN--\":10797:10877   */\n      tag_323\n        /* \"--CODEGEN--\":10873:10875   */\n      0x20\n        /* \"--CODEGEN--\":10862:10871   */\n      dup4\n        /* \"--CODEGEN--\":10858:10876   */\n      add\n        /* \"--CODEGEN--\":10849:10855   */\n      dup5\n        /* \"--CODEGEN--\":10797:10877   */\n      jump(tag_256)\n    tag_323:\n        /* \"--CODEGEN--\":10672:10887   */\n      swap4\n      swap3\n      pop\n      pop\n      pop\n      jump\n        /* \"--CODEGEN--\":10894:11295   */\n    tag_43:\n      0x00\n        /* \"--CODEGEN--\":11082:11084   */\n      0x20\n        /* \"--CODEGEN--\":11071:11080   */\n      dup3\n        /* \"--CODEGEN--\":11067:11085   */\n      add\n        /* \"--CODEGEN--\":11059:11085   */\n      swap1\n      pop\n        /* \"--CODEGEN--\":11132:11141   */\n      dup2\n        /* \"--CODEGEN--\":11126:11130   */\n      dup2\n        /* \"--CODEGEN--\":11122:11142   */\n      sub\n        /* \"--CODEGEN--\":11118:11119   */\n      0x00\n        /* \"--CODEGEN--\":11107:11116   */\n      dup4\n        /* \"--CODEGEN--\":11103:11120   */\n      add\n        /* \"--CODEGEN--\":11096:11143   */\n      mstore\n        /* \"--CODEGEN--\":11157:11285   */\n      tag_325\n        /* \"--CODEGEN--\":11280:11284   */\n      dup2\n        /* \"--CODEGEN--\":11271:11277   */\n      dup5\n        /* \"--CODEGEN--\":11157:11285   */\n      jump(tag_242)\n    tag_325:\n        /* \"--CODEGEN--\":11149:11285   */\n      swap1\n      pop\n        /* \"--CODEGEN--\":11053:11295   */\n      swap3\n      swap2\n      pop\n      pop\n      jump\n        /* \"--CODEGEN--\":11302:11603   */\n    tag_35:\n      0x00\n        /* \"--CODEGEN--\":11440:11442   */\n      0x20\n        /* \"--CODEGEN--\":11429:11438   */\n      dup3\n        /* \"--CODEGEN--\":11425:11443   */\n      add\n        /* \"--CODEGEN--\":11417:11443   */\n      swap1\n      pop\n        /* \"--CODEGEN--\":11490:11499   */\n      dup2\n        /* \"--CODEGEN--\":11484:11488   */\n      dup2\n        /* \"--CODEGEN--\":11480:11500   */\n      sub\n        /* \"--CODEGEN--\":11476:11477   */\n      0x00\n        /* \"--CODEGEN--\":11465:11474   */\n      dup4\n        /* \"--CODEGEN--\":11461:11478   */\n      add\n        /* \"--CODEGEN--\":11454:11501   */\n      mstore\n        /* \"--CODEGEN--\":11515:11593   */\n      tag_327\n        /* \"--CODEGEN--\":11588:11592   */\n      dup2\n        /* \"--CODEGEN--\":11579:11585   */\n      dup5\n        /* \"--CODEGEN--\":11515:11593   */\n      jump(tag_268)\n    tag_327:\n        /* \"--CODEGEN--\":11507:11593   */\n      swap1\n      pop\n        /* \"--CODEGEN--\":11411:11603   */\n      swap3\n      swap2\n      pop\n      pop\n      jump\n        /* \"--CODEGEN--\":11610:12022   */\n    tag_49:\n      0x00\n        /* \"--CODEGEN--\":11776:11778   */\n      0x40\n        /* \"--CODEGEN--\":11765:11774   */\n      dup3\n        /* \"--CODEGEN--\":11761:11779   */\n      add\n        /* \"--CODEGEN--\":11753:11779   */\n      swap1\n      pop\n        /* \"--CODEGEN--\":11826:11835   */\n      dup2\n        /* \"--CODEGEN--\":11820:11824   */\n      dup2\n        /* \"--CODEGEN--\":11816:11836   */\n      sub\n        /* \"--CODEGEN--\":11812:11813   */\n      0x00\n        /* \"--CODEGEN--\":11801:11810   */\n      dup4\n        /* \"--CODEGEN--\":11797:11814   */\n      add\n        /* \"--CODEGEN--\":11790:11837   */\n      mstore\n        /* \"--CODEGEN--\":11851:11929   */\n      tag_329\n        /* \"--CODEGEN--\":11924:11928   */\n      dup2\n        /* \"--CODEGEN--\":11915:11921   */\n      dup6\n        /* \"--CODEGEN--\":11851:11929   */\n      jump(tag_268)\n    tag_329:\n        /* \"--CODEGEN--\":11843:11929   */\n      swap1\n      pop\n        /* \"--CODEGEN--\":11940:12012   */\n      tag_330\n        /* \"--CODEGEN--\":12008:12010   */\n      0x20\n        /* \"--CODEGEN--\":11997:12006   */\n      dup4\n        /* \"--CODEGEN--\":11993:12011   */\n      add\n        /* \"--CODEGEN--\":11984:11990   */\n      dup5\n        /* \"--CODEGEN--\":11940:12012   */\n      jump(tag_238)\n    tag_330:\n        /* \"--CODEGEN--\":11747:12022   */\n      swap4\n      swap3\n      pop\n      pop\n      pop\n      jump\n        /* \"--CODEGEN--\":12029:12436   */\n    tag_124:\n      0x00\n        /* \"--CODEGEN--\":12220:12222   */\n      0x20\n        /* \"--CODEGEN--\":12209:12218   */\n      dup3\n        /* \"--CODEGEN--\":12205:12223   */\n      add\n        /* \"--CODEGEN--\":12197:12223   */\n      swap1\n      pop\n        /* \"--CODEGEN--\":12270:12279   */\n      dup2\n        /* \"--CODEGEN--\":12264:12268   */\n      dup2\n        /* \"--CODEGEN--\":12260:12280   */\n      sub\n        /* \"--CODEGEN--\":12256:12257   */\n      0x00\n        /* \"--CODEGEN--\":12245:12254   */\n      dup4\n        /* \"--CODEGEN--\":12241:12258   */\n      add\n        /* \"--CODEGEN--\":12234:12281   */\n      mstore\n        /* \"--CODEGEN--\":12295:12426   */\n      tag_332\n        /* \"--CODEGEN--\":12421:12425   */\n      dup2\n        /* \"--CODEGEN--\":12295:12426   */\n      jump(tag_293)\n    tag_332:\n        /* \"--CODEGEN--\":12287:12426   */\n      swap1\n      pop\n        /* \"--CODEGEN--\":12191:12436   */\n      swap2\n      swap1\n      pop\n      jump\n        /* \"--CODEGEN--\":12443:12850   */\n    tag_99:\n      0x00\n        /* \"--CODEGEN--\":12634:12636   */\n      0x20\n        /* \"--CODEGEN--\":12623:12632   */\n      dup3\n        /* \"--CODEGEN--\":12619:12637   */\n      add\n        /* \"--CODEGEN--\":12611:12637   */\n      swap1\n      pop\n        /* \"--CODEGEN--\":12684:12693   */\n      dup2\n        /* \"--CODEGEN--\":12678:12682   */\n      dup2\n        /* \"--CODEGEN--\":12674:12694   */\n      sub\n        /* \"--CODEGEN--\":12670:12671   */\n      0x00\n        /* \"--CODEGEN--\":12659:12668   */\n      dup4\n        /* \"--CODEGEN--\":12655:12672   */\n      add\n        /* \"--CODEGEN--\":12648:12695   */\n      mstore\n        /* \"--CODEGEN--\":12709:12840   */\n      tag_334\n        /* \"--CODEGEN--\":12835:12839   */\n      dup2\n        /* \"--CODEGEN--\":12709:12840   */\n      jump(tag_299)\n    tag_334:\n        /* \"--CODEGEN--\":12701:12840   */\n      swap1\n      pop\n        /* \"--CODEGEN--\":12605:12850   */\n      swap2\n      swap1\n      pop\n      jump\n        /* \"--CODEGEN--\":12857:13070   */\n    tag_19:\n      0x00\n        /* \"--CODEGEN--\":12975:12977   */\n      0x20\n        /* \"--CODEGEN--\":12964:12973   */\n      dup3\n        /* \"--CODEGEN--\":12960:12978   */\n      add\n        /* \"--CODEGEN--\":12952:12978   */\n      swap1\n      pop\n        /* \"--CODEGEN--\":12989:13060   */\n      tag_336\n        /* \"--CODEGEN--\":13057:13058   */\n      0x00\n        /* \"--CODEGEN--\":13046:13055   */\n      dup4\n        /* \"--CODEGEN--\":13042:13059   */\n      add\n        /* \"--CODEGEN--\":13033:13039   */\n      dup5\n        /* \"--CODEGEN--\":12989:13060   */\n      jump(tag_305)\n    tag_336:\n        /* \"--CODEGEN--\":12946:13070   */\n      swap3\n      swap2\n      pop\n      pop\n      jump\n        /* \"--CODEGEN--\":13077:13333   */\n    tag_187:\n      0x00\n        /* \"--CODEGEN--\":13139:13141   */\n      0x40\n        /* \"--CODEGEN--\":13133:13142   */\n      mload\n        /* \"--CODEGEN--\":13123:13142   */\n      swap1\n      pop\n        /* \"--CODEGEN--\":13177:13181   */\n      dup2\n        /* \"--CODEGEN--\":13169:13175   */\n      dup2\n        /* \"--CODEGEN--\":13165:13182   */\n      add\n        /* \"--CODEGEN--\":13276:13282   */\n      dup2\n        /* \"--CODEGEN--\":13264:13274   */\n      dup2\n        /* \"--CODEGEN--\":13261:13283   */\n      lt\n        /* \"--CODEGEN--\":13240:13258   */\n      0xffffffffffffffff\n        /* \"--CODEGEN--\":13228:13238   */\n      dup3\n        /* \"--CODEGEN--\":13225:13259   */\n      gt\n        /* \"--CODEGEN--\":13222:13284   */\n      or\n        /* \"--CODEGEN--\":13219:13221   */\n      iszero\n      tag_338\n      jumpi\n        /* \"--CODEGEN--\":13297:13298   */\n      0x00\n        /* \"--CODEGEN--\":13294:13295   */\n      dup1\n        /* \"--CODEGEN--\":13287:13299   */\n      revert\n        /* \"--CODEGEN--\":13219:13221   */\n    tag_338:\n        /* \"--CODEGEN--\":13317:13327   */\n      dup1\n        /* \"--CODEGEN--\":13313:13315   */\n      0x40\n        /* \"--CODEGEN--\":13306:13328   */\n      mstore\n        /* \"--CODEGEN--\":13117:13333   */\n      pop\n      swap2\n      swap1\n      pop\n      jump\n        /* \"--CODEGEN--\":13340:13662   */\n    tag_186:\n      0x00\n        /* \"--CODEGEN--\":13484:13502   */\n      0xffffffffffffffff\n        /* \"--CODEGEN--\":13476:13482   */\n      dup3\n        /* \"--CODEGEN--\":13473:13503   */\n      gt\n        /* \"--CODEGEN--\":13470:13472   */\n      iszero\n      tag_340\n      jumpi\n        /* \"--CODEGEN--\":13516:13517   */\n      0x00\n        /* \"--CODEGEN--\":13513:13514   */\n      dup1\n        /* \"--CODEGEN--\":13506:13518   */\n      revert\n        /* \"--CODEGEN--\":13470:13472   */\n    tag_340:\n        /* \"--CODEGEN--\":13583:13587   */\n      0x1f\n        /* \"--CODEGEN--\":13579:13588   */\n      not\n        /* \"--CODEGEN--\":13572:13576   */\n      0x1f\n        /* \"--CODEGEN--\":13564:13570   */\n      dup4\n        /* \"--CODEGEN--\":13560:13577   */\n      add\n        /* \"--CODEGEN--\":13556:13589   */\n      and\n        /* \"--CODEGEN--\":13548:13589   */\n      swap1\n      pop\n        /* \"--CODEGEN--\":13647:13651   */\n      0x20\n        /* \"--CODEGEN--\":13641:13645   */\n      dup2\n        /* \"--CODEGEN--\":13637:13652   */\n      add\n        /* \"--CODEGEN--\":13629:13652   */\n      swap1\n      pop\n        /* \"--CODEGEN--\":13407:13662   */\n      swap2\n      swap1\n      pop\n      jump\n        /* \"--CODEGEN--\":13669:13830   */\n    tag_249:\n      0x00\n        /* \"--CODEGEN--\":13765:13768   */\n      dup2\n        /* \"--CODEGEN--\":13757:13768   */\n      swap1\n      pop\n        /* \"--CODEGEN--\":13803:13807   */\n      0x20\n        /* \"--CODEGEN--\":13798:13801   */\n      dup3\n        /* \"--CODEGEN--\":13794:13808   */\n      add\n        /* \"--CODEGEN--\":13786:13808   */\n      swap1\n      pop\n        /* \"--CODEGEN--\":13751:13830   */\n      swap2\n      swap1\n      pop\n      jump\n        /* \"--CODEGEN--\":13837:13995   */\n    tag_289:\n      0x00\n        /* \"--CODEGEN--\":13905:13908   */\n      dup2\n        /* \"--CODEGEN--\":13897:13908   */\n      swap1\n      pop\n        /* \"--CODEGEN--\":13942:13945   */\n      dup2\n        /* \"--CODEGEN--\":13939:13940   */\n      0x00\n        /* \"--CODEGEN--\":13932:13946   */\n      mstore\n        /* \"--CODEGEN--\":13974:13978   */\n      0x20\n        /* \"--CODEGEN--\":13971:13972   */\n      0x00\n        /* \"--CODEGEN--\":13961:13979   */\n      keccak256\n        /* \"--CODEGEN--\":13953:13979   */\n      swap1\n      pop\n        /* \"--CODEGEN--\":13891:13995   */\n      swap2\n      swap1\n      pop\n      jump\n        /* \"--CODEGEN--\":14002:14149   */\n    tag_245:\n      0x00\n        /* \"--CODEGEN--\":14121:14126   */\n      dup2\n        /* \"--CODEGEN--\":14115:14127   */\n      mload\n        /* \"--CODEGEN--\":14105:14127   */\n      swap1\n      pop\n        /* \"--CODEGEN--\":14086:14149   */\n      swap2\n      swap1\n      pop\n      jump\n        /* \"--CODEGEN--\":14156:14278   */\n    tag_262:\n      0x00\n        /* \"--CODEGEN--\":14250:14255   */\n      dup2\n        /* \"--CODEGEN--\":14244:14256   */\n      mload\n        /* \"--CODEGEN--\":14234:14256   */\n      swap1\n      pop\n        /* \"--CODEGEN--\":14215:14278   */\n      swap2\n      swap1\n      pop\n      jump\n        /* \"--CODEGEN--\":14285:14403   */\n    tag_255:\n      0x00\n        /* \"--CODEGEN--\":14393:14397   */\n      0x20\n        /* \"--CODEGEN--\":14388:14391   */\n      dup3\n        /* \"--CODEGEN--\":14384:14398   */\n      add\n        /* \"--CODEGEN--\":14376:14398   */\n      swap1\n      pop\n        /* \"--CODEGEN--\":14370:14403   */\n      swap2\n      swap1\n      pop\n      jump\n        /* \"--CODEGEN--\":14411:14599   */\n    tag_247:\n      0x00\n        /* \"--CODEGEN--\":14551:14557   */\n      dup3\n        /* \"--CODEGEN--\":14546:14549   */\n      dup3\n        /* \"--CODEGEN--\":14539:14558   */\n      mstore\n        /* \"--CODEGEN--\":14588:14592   */\n      0x20\n        /* \"--CODEGEN--\":14583:14586   */\n      dup3\n        /* \"--CODEGEN--\":14579:14593   */\n      add\n        /* \"--CODEGEN--\":14564:14593   */\n      swap1\n      pop\n        /* \"--CODEGEN--\":14532:14599   */\n      swap3\n      swap2\n      pop\n      pop\n      jump\n        /* \"--CODEGEN--\":14608:14761   */\n    tag_264:\n      0x00\n        /* \"--CODEGEN--\":14713:14719   */\n      dup3\n        /* \"--CODEGEN--\":14708:14711   */\n      dup3\n        /* \"--CODEGEN--\":14701:14720   */\n      mstore\n        /* \"--CODEGEN--\":14750:14754   */\n      0x20\n        /* \"--CODEGEN--\":14745:14748   */\n      dup3\n        /* \"--CODEGEN--\":14741:14755   */\n      add\n        /* \"--CODEGEN--\":14726:14755   */\n      swap1\n      pop\n        /* \"--CODEGEN--\":14694:14761   */\n      swap3\n      swap2\n      pop\n      pop\n      jump\n        /* \"--CODEGEN--\":14770:14933   */\n    tag_272:\n      0x00\n        /* \"--CODEGEN--\":14885:14891   */\n      dup3\n        /* \"--CODEGEN--\":14880:14883   */\n      dup3\n        /* \"--CODEGEN--\":14873:14892   */\n      mstore\n        /* \"--CODEGEN--\":14922:14926   */\n      0x20\n        /* \"--CODEGEN--\":14917:14920   */\n      dup3\n        /* \"--CODEGEN--\":14913:14927   */\n      add\n        /* \"--CODEGEN--\":14898:14927   */\n      swap1\n      pop\n        /* \"--CODEGEN--\":14866:14933   */\n      swap3\n      swap2\n      pop\n      pop\n      jump\n        /* \"--CODEGEN--\":14942:15087   */\n    tag_279:\n      0x00\n        /* \"--CODEGEN--\":15078:15081   */\n      dup2\n        /* \"--CODEGEN--\":15063:15081   */\n      swap1\n      pop\n        /* \"--CODEGEN--\":15056:15087   */\n      swap3\n      swap2\n      pop\n      pop\n      jump\n        /* \"--CODEGEN--\":15095:15186   */\n    tag_241:\n      0x00\n        /* \"--CODEGEN--\":15157:15181   */\n      tag_351\n        /* \"--CODEGEN--\":15175:15180   */\n      dup3\n        /* \"--CODEGEN--\":15157:15181   */\n      jump(tag_352)\n    tag_351:\n        /* \"--CODEGEN--\":15146:15181   */\n      swap1\n      pop\n        /* \"--CODEGEN--\":15140:15186   */\n      swap2\n      swap1\n      pop\n      jump\n        /* \"--CODEGEN--\":15193:15314   */\n    tag_352:\n      0x00\n        /* \"--CODEGEN--\":15266:15308   */\n      0xffffffffffffffffffffffffffffffffffffffff\n        /* \"--CODEGEN--\":15259:15264   */\n      dup3\n        /* \"--CODEGEN--\":15255:15309   */\n      and\n        /* \"--CODEGEN--\":15244:15309   */\n      swap1\n      pop\n        /* \"--CODEGEN--\":15238:15314   */\n      swap2\n      swap1\n      pop\n      jump\n        /* \"--CODEGEN--\":15321:15393   */\n    tag_308:\n      0x00\n        /* \"--CODEGEN--\":15383:15388   */\n      dup2\n        /* \"--CODEGEN--\":15372:15388   */\n      swap1\n      pop\n        /* \"--CODEGEN--\":15366:15393   */\n      swap2\n      swap1\n      pop\n      jump\n        /* \"--CODEGEN--\":15400:15529   */\n    tag_237:\n      0x00\n        /* \"--CODEGEN--\":15487:15524   */\n      tag_356\n        /* \"--CODEGEN--\":15518:15523   */\n      dup3\n        /* \"--CODEGEN--\":15487:15524   */\n      jump(tag_357)\n    tag_356:\n        /* \"--CODEGEN--\":15474:15524   */\n      swap1\n      pop\n        /* \"--CODEGEN--\":15468:15529   */\n      swap2\n      swap1\n      pop\n      jump\n        /* \"--CODEGEN--\":15536:15652   */\n    tag_259:\n      0x00\n        /* \"--CODEGEN--\":15623:15647   */\n      tag_359\n        /* \"--CODEGEN--\":15641:15646   */\n      dup3\n        /* \"--CODEGEN--\":15623:15647   */\n      jump(tag_308)\n    tag_359:\n        /* \"--CODEGEN--\":15610:15647   */\n      swap1\n      pop\n        /* \"--CODEGEN--\":15604:15652   */\n      swap2\n      swap1\n      pop\n      jump\n        /* \"--CODEGEN--\":15659:15780   */\n    tag_357:\n      0x00\n        /* \"--CODEGEN--\":15738:15775   */\n      tag_361\n        /* \"--CODEGEN--\":15769:15774   */\n      dup3\n        /* \"--CODEGEN--\":15738:15775   */\n      jump(tag_362)\n    tag_361:\n        /* \"--CODEGEN--\":15725:15775   */\n      swap1\n      pop\n        /* \"--CODEGEN--\":15719:15780   */\n      swap2\n      swap1\n      pop\n      jump\n        /* \"--CODEGEN--\":15787:15895   */\n    tag_362:\n      0x00\n        /* \"--CODEGEN--\":15866:15890   */\n      tag_364\n        /* \"--CODEGEN--\":15884:15889   */\n      dup3\n        /* \"--CODEGEN--\":15866:15890   */\n      jump(tag_352)\n    tag_364:\n        /* \"--CODEGEN--\":15853:15890   */\n      swap1\n      pop\n        /* \"--CODEGEN--\":15847:15895   */\n      swap2\n      swap1\n      pop\n      jump\n        /* \"--CODEGEN--\":15903:16048   */\n    tag_190:\n        /* \"--CODEGEN--\":15984:15990   */\n      dup3\n        /* \"--CODEGEN--\":15979:15982   */\n      dup2\n        /* \"--CODEGEN--\":15974:15977   */\n      dup4\n        /* \"--CODEGEN--\":15961:15991   */\n      calldatacopy\n        /* \"--CODEGEN--\":16040:16041   */\n      0x00\n        /* \"--CODEGEN--\":16031:16037   */\n      dup4\n        /* \"--CODEGEN--\":16026:16029   */\n      dup4\n        /* \"--CODEGEN--\":16022:16038   */\n      add\n        /* \"--CODEGEN--\":16015:16042   */\n      mstore\n        /* \"--CODEGEN--\":15954:16048   */\n      pop\n      pop\n      pop\n      jump\n        /* \"--CODEGEN--\":16057:16325   */\n    tag_198:\n        /* \"--CODEGEN--\":16122:16123   */\n      0x00\n        /* \"--CODEGEN--\":16129:16230   */\n    tag_367:\n        /* \"--CODEGEN--\":16143:16149   */\n      dup4\n        /* \"--CODEGEN--\":16140:16141   */\n      dup2\n        /* \"--CODEGEN--\":16137:16150   */\n      lt\n        /* \"--CODEGEN--\":16129:16230   */\n      iszero\n      tag_369\n      jumpi\n        /* \"--CODEGEN--\":16219:16220   */\n      dup1\n        /* \"--CODEGEN--\":16214:16217   */\n      dup3\n        /* \"--CODEGEN--\":16210:16221   */\n      add\n        /* \"--CODEGEN--\":16204:16222   */\n      mload\n        /* \"--CODEGEN--\":16200:16201   */\n      dup2\n        /* \"--CODEGEN--\":16195:16198   */\n      dup5\n        /* \"--CODEGEN--\":16191:16202   */\n      add\n        /* \"--CODEGEN--\":16184:16223   */\n      mstore\n        /* \"--CODEGEN--\":16165:16167   */\n      0x20\n        /* \"--CODEGEN--\":16162:16163   */\n      dup2\n        /* \"--CODEGEN--\":16158:16168   */\n      add\n        /* \"--CODEGEN--\":16153:16168   */\n      swap1\n      pop\n        /* \"--CODEGEN--\":16129:16230   */\n      jump(tag_367)\n    tag_369:\n        /* \"--CODEGEN--\":16245:16251   */\n      dup4\n        /* \"--CODEGEN--\":16242:16243   */\n      dup2\n        /* \"--CODEGEN--\":16239:16252   */\n      gt\n        /* \"--CODEGEN--\":16236:16238   */\n      iszero\n      tag_370\n      jumpi\n        /* \"--CODEGEN--\":16310:16311   */\n      0x00\n        /* \"--CODEGEN--\":16301:16307   */\n      dup5\n        /* \"--CODEGEN--\":16296:16299   */\n      dup5\n        /* \"--CODEGEN--\":16292:16308   */\n      add\n        /* \"--CODEGEN--\":16285:16312   */\n      mstore\n        /* \"--CODEGEN--\":16236:16238   */\n    tag_370:\n        /* \"--CODEGEN--\":16106:16325   */\n      pop\n      pop\n      pop\n      pop\n      jump\n        /* \"--CODEGEN--\":16333:16430   */\n    tag_267:\n      0x00\n        /* \"--CODEGEN--\":16421:16423   */\n      0x1f\n        /* \"--CODEGEN--\":16417:16424   */\n      not\n        /* \"--CODEGEN--\":16412:16414   */\n      0x1f\n        /* \"--CODEGEN--\":16405:16410   */\n      dup4\n        /* \"--CODEGEN--\":16401:16415   */\n      add\n        /* \"--CODEGEN--\":16397:16425   */\n      and\n        /* \"--CODEGEN--\":16387:16425   */\n      swap1\n      pop\n        /* \"--CODEGEN--\":16381:16430   */\n      swap2\n      swap1\n      pop\n      jump\n        /* \"--CODEGEN--\":16438:16555   */\n    tag_177:\n        /* \"--CODEGEN--\":16507:16531   */\n      tag_373\n        /* \"--CODEGEN--\":16525:16530   */\n      dup2\n        /* \"--CODEGEN--\":16507:16531   */\n      jump(tag_241)\n    tag_373:\n        /* \"--CODEGEN--\":16500:16505   */\n      dup2\n        /* \"--CODEGEN--\":16497:16532   */\n      eq\n        /* \"--CODEGEN--\":16487:16489   */\n      tag_374\n      jumpi\n        /* \"--CODEGEN--\":16546:16547   */\n      0x00\n        /* \"--CODEGEN--\":16543:16544   */\n      dup1\n        /* \"--CODEGEN--\":16536:16548   */\n      revert\n        /* \"--CODEGEN--\":16487:16489   */\n    tag_374:\n        /* \"--CODEGEN--\":16481:16555   */\n      pop\n      jump\n        /* \"--CODEGEN--\":16562:16679   */\n    tag_202:\n        /* \"--CODEGEN--\":16631:16655   */\n      tag_376\n        /* \"--CODEGEN--\":16649:16654   */\n      dup2\n        /* \"--CODEGEN--\":16631:16655   */\n      jump(tag_308)\n    tag_376:\n        /* \"--CODEGEN--\":16624:16629   */\n      dup2\n        /* \"--CODEGEN--\":16621:16656   */\n      eq\n        /* \"--CODEGEN--\":16611:16613   */\n      tag_377\n      jumpi\n        /* \"--CODEGEN--\":16670:16671   */\n      0x00\n        /* \"--CODEGEN--\":16667:16668   */\n      dup1\n        /* \"--CODEGEN--\":16660:16672   */\n      revert\n        /* \"--CODEGEN--\":16611:16613   */\n    tag_377:\n        /* \"--CODEGEN--\":16605:16679   */\n      pop\n      jump\n\n    auxdata: 0xa2646970667358221220557ed13b3000e1675b5a49aa3f0a2e0dfe0399b11ac77d7cc0a692600ffa8ae364736f6c63430006060033\n}\n","bytecode":{"linkReferences":{},"object":"608060405234801561001057600080fd5b5033600160006101000a81548173ffffffffffffffffffffffffffffffffffffffff021916908373ffffffffffffffffffffffffffffffffffffffff16021790555061188c806100616000396000f3fe608060405234801561001057600080fd5b50600436106100b45760003560e01c80636fb2ddaf116100715780636fb2ddaf14610165578063719c0d0414610183578063a336acfc146101b4578063dc0da51c146101d0578063fe2f3d8e14610200578063fe64d6ff1461021e576100b4565b806301307b37146100b957806303ecd77f146100d757806304f737bb146100f357806311913d6d1461010f5780634c0822f21461012b5780635624e7c914610149575b600080fd5b6100c161023a565b6040516100ce9190611657565b60405180910390f35b6100f160048036038101906100ec9190611051565b610246565b005b61010d60048036038101906101089190611179565b6103c4565b005b610129600480360381019061012491906110f7565b610667565b005b6101336106b7565b60405161014091906115c5565b60405180910390f35b610163600480360381019061015e91906110a3565b610755565b005b61016d610a22565b60405161017a91906115a3565b60405180910390f35b61019d600480360381019061019891906111cd565b610b0b565b6040516101ab9291906115e7565b60405180910390f35b6101ce60048036038101906101c99190611051565b610bf4565b005b6101ea60048036038101906101e591906111cd565b610d72565b6040516101f791906115c5565b60405180910390f35b610208610e2b565b6040516102159190611544565b60405180910390f35b61023860048036038101906102339190611051565b610e51565b005b60008080549050905090565b600081905060008173ffffffffffffffffffffffffffffffffffffffff16637b1039996040518163ffffffff1660e01b815260040160206040518083038186803b15801561029357600080fd5b505afa1580156102a7573d6000803e3d6000fd5b505050506040513d601f19601f820116820180604052508101906102cb919061107a565b9050600081905060608173ffffffffffffffffffffffffffffffffffffffff1663ecbcb1223060006040518363ffffffff1660e01b815260040161031092919061157a565b60006040518083038186803b15801561032857600080fd5b505afa15801561033c573d6000803e3d6000fd5b505050506040513d6000823e3d601f19601f820116820180604052508101906103659190611138565b90506040516020016103769061151a565b604051602081830303815290604052805190602001208160405160200161039d91906114ec565b60405160208183030381529060405280519060200120146103bd57600080fd5b5050505050565b600073950bd33f71a716b0a6161ebc09cd89f446698abf905060008173ffffffffffffffffffffffffffffffffffffffff1663815214f8336040518263ffffffff1660e01b8152600401610418919061155f565b60206040518083038186803b15801561043057600080fd5b505afa158015610444573d6000803e3d6000fd5b505050506040513d601f19601f82011682018060405250810190610468919061107a565b9050600460008273ffffffffffffffffffffffffffffffffffffffff1673ffffffffffffffffffffffffffffffffffffffff16815260200190815260200160002060009054906101000a900460ff166104c057600080fd5b6005846040516104d091906114ec565b908152602001604051809103902060009054906101000a900460ff16156104f657600080fd5b600083905060008173ffffffffffffffffffffffffffffffffffffffff16637b1039996040518163ffffffff1660e01b815260040160206040518083038186803b15801561054357600080fd5b505afa158015610557573d6000803e3d6000fd5b505050506040513d601f19601f8201168201806040525081019061057b919061107a565b905060008190508073ffffffffffffffffffffffffffffffffffffffff16631ce534286040518163ffffffff1660e01b81526004016105b990611637565b600060405180830381600087803b1580156105d357600080fd5b505af11580156105e7573d6000803e3d6000fd5b50505050600287908060018154018082558091505060019003906000526020600020016000909190919091509080519060200190610626929190610e95565b50600160058860405161063991906114ec565b908152602001604051809103902060006101000a81548160ff02191690831515021790555050505050505050565b806003908051906020019061067d929190610e95565b506005600360405161068f9190611503565b908152602001604051809103902060009054906101000a900460ff166106b457600080fd5b50565b60038054600181600116156101000203166002900480601f01602080910402602001604051908101604052809291908181526020018280546001816001161561010002031660029004801561074d5780601f106107225761010080835404028352916020019161074d565b820191906000526020600020905b81548152906001019060200180831161073057829003601f168201915b505050505081565b600160009054906101000a900473ffffffffffffffffffffffffffffffffffffffff1673ffffffffffffffffffffffffffffffffffffffff163373ffffffffffffffffffffffffffffffffffffffff16146107af57600080fd5b600460008373ffffffffffffffffffffffffffffffffffffffff1673ffffffffffffffffffffffffffffffffffffffff16815260200190815260200160002060009054906101000a900460ff161561080657600080fd5b600082905060008173ffffffffffffffffffffffffffffffffffffffff16637b1039996040518163ffffffff1660e01b815260040160206040518083038186803b15801561085357600080fd5b505afa158015610867573d6000803e3d6000fd5b505050506040513d601f19601f8201168201806040525081019061088b919061107a565b905060008190508073ffffffffffffffffffffffffffffffffffffffff16631ce534286040518163ffffffff1660e01b81526004016108c990611617565b600060405180830381600087803b1580156108e357600080fd5b505af11580156108f7573d6000803e3d6000fd5b50505050610903610f15565b60405180604001604052808681526020018773ffffffffffffffffffffffffffffffffffffffff16815250905060008190806001815401808255809150506001900390600052602060002090600202016000909190919091506000820151816000019080519060200190610978929190610e95565b5060208201518160010160006101000a81548173ffffffffffffffffffffffffffffffffffffffff021916908373ffffffffffffffffffffffffffffffffffffffff16021790555050506001600460008873ffffffffffffffffffffffffffffffffffffffff1673ffffffffffffffffffffffffffffffffffffffff16815260200190815260200160002060006101000a81548160ff021916908315150217905550505050505050565b60606002805480602002602001604051908101604052809291908181526020016000905b82821015610b02578382906000526020600020018054600181600116156101000203166002900480601f016020809104026020016040519081016040528092919081815260200182805460018160011615610100020316600290048015610aee5780601f10610ac357610100808354040283529160200191610aee565b820191906000526020600020905b815481529060010190602001808311610ad157829003601f168201915b505050505081526020019060010190610a46565b50505050905090565b60008181548110610b1857fe5b9060005260206000209060020201600091509050806000018054600181600116156101000203166002900480601f016020809104026020016040519081016040528092919081815260200182805460018160011615610100020316600290048015610bc45780601f10610b9957610100808354040283529160200191610bc4565b820191906000526020600020905b815481529060010190602001808311610ba757829003601f168201915b5050505050908060010160009054906101000a900473ffffffffffffffffffffffffffffffffffffffff16905082565b600081905060008173ffffffffffffffffffffffffffffffffffffffff16637b1039996040518163ffffffff1660e01b815260040160206040518083038186803b158015610c4157600080fd5b505afa158015610c55573d6000803e3d6000fd5b505050506040513d601f19601f82011682018060405250810190610c79919061107a565b9050600081905060608173ffffffffffffffffffffffffffffffffffffffff1663ecbcb1223060006040518363ffffffff1660e01b8152600401610cbe92919061157a565b60006040518083038186803b158015610cd657600080fd5b505afa158015610cea573d6000803e3d6000fd5b505050506040513d6000823e3d601f19601f82011682018060405250810190610d139190611138565b9050604051602001610d249061152f565b6040516020818303038152906040528051906020012081604051602001610d4b91906114ec565b6040516020818303038152906040528051906020012014610d6b57600080fd5b5050505050565b60028181548110610d7f57fe5b906000526020600020016000915090508054600181600116156101000203166002900480601f016020809104026020016040519081016040528092919081815260200182805460018160011615610100020316600290048015610e235780601f10610df857610100808354040283529160200191610e23565b820191906000526020600020905b815481529060010190602001808311610e0657829003601f168201915b505050505081565b600160009054906101000a900473ffffffffffffffffffffffffffffffffffffffff1681565b80600660006101000a81548173ffffffffffffffffffffffffffffffffffffffff021916908373ffffffffffffffffffffffffffffffffffffffff16021790555050565b828054600181600116156101000203166002900490600052602060002090601f016020900481019282601f10610ed657805160ff1916838001178555610f04565b82800160010185558215610f04579182015b82811115610f03578251825591602001919060010190610ee8565b5b509050610f119190610f45565b5090565b604051806040016040528060608152602001600073ffffffffffffffffffffffffffffffffffffffff1681525090565b610f6791905b80821115610f63576000816000905550600101610f4b565b5090565b90565b600081359050610f7981611828565b92915050565b600081519050610f8e81611828565b92915050565b600082601f830112610fa557600080fd5b8135610fb8610fb38261169f565b611672565b91508082526020830160208301858383011115610fd457600080fd5b610fdf8382846117d5565b50505092915050565b600082601f830112610ff957600080fd5b815161100c6110078261169f565b611672565b9150808252602083016020830185838301111561102857600080fd5b6110338382846117e4565b50505092915050565b60008135905061104b8161183f565b92915050565b60006020828403121561106357600080fd5b600061107184828501610f6a565b91505092915050565b60006020828403121561108c57600080fd5b600061109a84828501610f7f565b91505092915050565b600080604083850312156110b657600080fd5b60006110c485828601610f6a565b925050602083013567ffffffffffffffff8111156110e157600080fd5b6110ed85828601610f94565b9150509250929050565b60006020828403121561110957600080fd5b600082013567ffffffffffffffff81111561112357600080fd5b61112f84828501610f94565b91505092915050565b60006020828403121561114a57600080fd5b600082015167ffffffffffffffff81111561116457600080fd5b61117084828501610fe8565b91505092915050565b6000806040838503121561118c57600080fd5b600083013567ffffffffffffffff8111156111a657600080fd5b6111b285828601610f94565b92505060206111c385828601610f6a565b9150509250929050565b6000602082840312156111df57600080fd5b60006111ed8482850161103c565b91505092915050565b600061120283836112ac565b905092915050565b6112138161178d565b82525050565b61122281611751565b82525050565b6000611233826116f0565b61123d8185611713565b93508360208202850161124f856116cb565b8060005b8581101561128b578484038952815161126c85826111f6565b945061127783611706565b925060208a01995050600181019050611253565b50829750879550505050505092915050565b6112a68161179f565b82525050565b60006112b7826116fb565b6112c18185611724565b93506112d18185602086016117e4565b6112da81611817565b840191505092915050565b60006112f0826116fb565b6112fa8185611735565b935061130a8185602086016117e4565b61131381611817565b840191505092915050565b6000611329826116fb565b6113338185611746565b93506113438185602086016117e4565b80840191505092915050565b60008154600181166000811461136c5760018114611391576113d5565b607f600283041661137d8187611746565b955060ff19831686528086019350506113d5565b6002820461139f8187611746565b95506113aa856116db565b60005b828110156113cc578154818901526001820191506020810190506113ad565b82880195505050505b505092915050565b60006113ea600883611735565b91507f69735363686f6f6c0000000000000000000000000000000000000000000000006000830152602082019050919050565b600061142a600883611746565b91507f69735363686f6f6c0000000000000000000000000000000000000000000000006000830152600882019050919050565b600061146a600c83611735565b91507f43657274697349737375656400000000000000000000000000000000000000006000830152602082019050919050565b60006114aa600c83611746565b91507f43657274697349737375656400000000000000000000000000000000000000006000830152600c82019050919050565b6114e681611783565b82525050565b60006114f8828461131e565b915081905092915050565b600061150f828461134f565b915081905092915050565b60006115258261141d565b9150819050919050565b600061153a8261149d565b9150819050919050565b60006020820190506115596000830184611219565b92915050565b6000602082019050611574600083018461120a565b92915050565b600060408201905061158f6000830185611219565b61159c602083018461129d565b9392505050565b600060208201905081810360008301526115bd8184611228565b905092915050565b600060208201905081810360008301526115df81846112e5565b905092915050565b6000604082019050818103600083015261160181856112e5565b90506116106020830184611219565b9392505050565b60006020820190508181036000830152611630816113dd565b9050919050565b600060208201905081810360008301526116508161145d565b9050919050565b600060208201905061166c60008301846114dd565b92915050565b6000604051905081810181811067ffffffffffffffff8211171561169557600080fd5b8060405250919050565b600067ffffffffffffffff8211156116b657600080fd5b601f19601f8301169050602081019050919050565b6000819050602082019050919050565b60008190508160005260206000209050919050565b600081519050919050565b600081519050919050565b6000602082019050919050565b600082825260208201905092915050565b600082825260208201905092915050565b600082825260208201905092915050565b600081905092915050565b600061175c82611763565b9050919050565b600073ffffffffffffffffffffffffffffffffffffffff82169050919050565b6000819050919050565b6000611798826117b1565b9050919050565b60006117aa82611783565b9050919050565b60006117bc826117c3565b9050919050565b60006117ce82611763565b9050919050565b82818337600083830152505050565b60005b838110156118025780820151818401526020810190506117e7565b83811115611811576000848401525b50505050565b6000601f19601f8301169050919050565b61183181611751565b811461183c57600080fd5b50565b61184881611783565b811461185357600080fd5b5056fea2646970667358221220557ed13b3000e1675b5a49aa3f0a2e0dfe0399b11ac77d7cc0a692600ffa8ae364736f6c63430006060033","opcodes":"PUSH1 0x80 PUSH1 0x40 MSTORE CALLVALUE DUP1 ISZERO PUSH2 0x10 JUMPI PUSH1 0x0 DUP1 REVERT JUMPDEST POP CALLER PUSH1 0x1 PUSH1 0x0 PUSH2 0x100 EXP DUP2 SLOAD DUP2 PUSH20 0xFFFFFFFFFFFFFFFFFFFFFFFFFFFFFFFFFFFFFFFF MUL NOT AND SWAP1 DUP4 PUSH20 0xFFFFFFFFFFFFFFFFFFFFFFFFFFFFFFFFFFFFFFFF AND MUL OR SWAP1 SSTORE POP PUSH2 0x188C DUP1 PUSH2 0x61 PUSH1 0x0 CODECOPY PUSH1 0x0 RETURN INVALID PUSH1 0x80 PUSH1 0x40 MSTORE CALLVALUE DUP1 ISZERO PUSH2 0x10 JUMPI PUSH1 0x0 DUP1 REVERT JUMPDEST POP PUSH1 0x4 CALLDATASIZE LT PUSH2 0xB4 JUMPI PUSH1 0x0 CALLDATALOAD PUSH1 0xE0 SHR DUP1 PUSH4 0x6FB2DDAF GT PUSH2 0x71 JUMPI DUP1 PUSH4 0x6FB2DDAF EQ PUSH2 0x165 JUMPI DUP1 PUSH4 0x719C0D04 EQ PUSH2 0x183 JUMPI DUP1 PUSH4 0xA336ACFC EQ PUSH2 0x1B4 JUMPI DUP1 PUSH4 0xDC0DA51C EQ PUSH2 0x1D0 JUMPI DUP1 PUSH4 0xFE2F3D8E EQ PUSH2 0x200 JUMPI DUP1 PUSH4 0xFE64D6FF EQ PUSH2 0x21E JUMPI PUSH2 0xB4 JUMP JUMPDEST DUP1 PUSH4 0x1307B37 EQ PUSH2 0xB9 JUMPI DUP1 PUSH4 0x3ECD77F EQ PUSH2 0xD7 JUMPI DUP1 PUSH4 0x4F737BB EQ PUSH2 0xF3 JUMPI DUP1 PUSH4 0x11913D6D EQ PUSH2 0x10F JUMPI DUP1 PUSH4 0x4C0822F2 EQ PUSH2 0x12B JUMPI DUP1 PUSH4 0x5624E7C9 EQ PUSH2 0x149 JUMPI JUMPDEST PUSH1 0x0 DUP1 REVERT JUMPDEST PUSH2 0xC1 PUSH2 0x23A JUMP JUMPDEST PUSH1 0x40 MLOAD PUSH2 0xCE SWAP2 SWAP1 PUSH2 0x1657 JUMP JUMPDEST PUSH1 0x40 MLOAD DUP1 SWAP2 SUB SWAP1 RETURN JUMPDEST PUSH2 0xF1 PUSH1 0x4 DUP1 CALLDATASIZE SUB DUP2 ADD SWAP1 PUSH2 0xEC SWAP2 SWAP1 PUSH2 0x1051 JUMP JUMPDEST PUSH2 0x246 JUMP JUMPDEST STOP JUMPDEST PUSH2 0x10D PUSH1 0x4 DUP1 CALLDATASIZE SUB DUP2 ADD SWAP1 PUSH2 0x108 SWAP2 SWAP1 PUSH2 0x1179 JUMP JUMPDEST PUSH2 0x3C4 JUMP JUMPDEST STOP JUMPDEST PUSH2 0x129 PUSH1 0x4 DUP1 CALLDATASIZE SUB DUP2 ADD SWAP1 PUSH2 0x124 SWAP2 SWAP1 PUSH2 0x10F7 JUMP JUMPDEST PUSH2 0x667 JUMP JUMPDEST STOP JUMPDEST PUSH2 0x133 PUSH2 0x6B7 JUMP JUMPDEST PUSH1 0x40 MLOAD PUSH2 0x140 SWAP2 SWAP1 PUSH2 0x15C5 JUMP JUMPDEST PUSH1 0x40 MLOAD DUP1 SWAP2 SUB SWAP1 RETURN JUMPDEST PUSH2 0x163 PUSH1 0x4 DUP1 CALLDATASIZE SUB DUP2 ADD SWAP1 PUSH2 0x15E SWAP2 SWAP1 PUSH2 0x10A3 JUMP JUMPDEST PUSH2 0x755 JUMP JUMPDEST STOP JUMPDEST PUSH2 0x16D PUSH2 0xA22 JUMP JUMPDEST PUSH1 0x40 MLOAD PUSH2 0x17A SWAP2 SWAP1 PUSH2 0x15A3 JUMP JUMPDEST PUSH1 0x40 MLOAD DUP1 SWAP2 SUB SWAP1 RETURN JUMPDEST PUSH2 0x19D PUSH1 0x4 DUP1 CALLDATASIZE SUB DUP2 ADD SWAP1 PUSH2 0x198 SWAP2 SWAP1 PUSH2 0x11CD JUMP JUMPDEST PUSH2 0xB0B JUMP JUMPDEST PUSH1 0x40 MLOAD PUSH2 0x1AB SWAP3 SWAP2 SWAP1 PUSH2 0x15E7 JUMP JUMPDEST PUSH1 0x40 MLOAD DUP1 SWAP2 SUB SWAP1 RETURN JUMPDEST PUSH2 0x1CE PUSH1 0x4 DUP1 CALLDATASIZE SUB DUP2 ADD SWAP1 PUSH2 0x1C9 SWAP2 SWAP1 PUSH2 0x1051 JUMP JUMPDEST PUSH2 0xBF4 JUMP JUMPDEST STOP JUMPDEST PUSH2 0x1EA PUSH1 0x4 DUP1 CALLDATASIZE SUB DUP2 ADD SWAP1 PUSH2 0x1E5 SWAP2 SWAP1 PUSH2 0x11CD JUMP JUMPDEST PUSH2 0xD72 JUMP JUMPDEST PUSH1 0x40 MLOAD PUSH2 0x1F7 SWAP2 SWAP1 PUSH2 0x15C5 JUMP JUMPDEST PUSH1 0x40 MLOAD DUP1 SWAP2 SUB SWAP1 RETURN JUMPDEST PUSH2 0x208 PUSH2 0xE2B JUMP JUMPDEST PUSH1 0x40 MLOAD PUSH2 0x215 SWAP2 SWAP1 PUSH2 0x1544 JUMP JUMPDEST PUSH1 0x40 MLOAD DUP1 SWAP2 SUB SWAP1 RETURN JUMPDEST PUSH2 0x238 PUSH1 0x4 DUP1 CALLDATASIZE SUB DUP2 ADD SWAP1 PUSH2 0x233 SWAP2 SWAP1 PUSH2 0x1051 JUMP JUMPDEST PUSH2 0xE51 JUMP JUMPDEST STOP JUMPDEST PUSH1 0x0 DUP1 DUP1 SLOAD SWAP1 POP SWAP1 POP SWAP1 JUMP JUMPDEST PUSH1 0x0 DUP2 SWAP1 POP PUSH1 0x0 DUP2 PUSH20 0xFFFFFFFFFFFFFFFFFFFFFFFFFFFFFFFFFFFFFFFF AND PUSH4 0x7B103999 PUSH1 0x40 MLOAD DUP2 PUSH4 0xFFFFFFFF AND PUSH1 0xE0 SHL DUP2 MSTORE PUSH1 0x4 ADD PUSH1 0x20 PUSH1 0x40 MLOAD DUP1 DUP4 SUB DUP2 DUP7 DUP1 EXTCODESIZE ISZERO DUP1 ISZERO PUSH2 0x293 JUMPI PUSH1 0x0 DUP1 REVERT JUMPDEST POP GAS STATICCALL ISZERO DUP1 ISZERO PUSH2 0x2A7 JUMPI RETURNDATASIZE PUSH1 0x0 DUP1 RETURNDATACOPY RETURNDATASIZE PUSH1 0x0 REVERT JUMPDEST POP POP POP POP PUSH1 0x40 MLOAD RETURNDATASIZE PUSH1 0x1F NOT PUSH1 0x1F DUP3 ADD AND DUP3 ADD DUP1 PUSH1 0x40 MSTORE POP DUP2 ADD SWAP1 PUSH2 0x2CB SWAP2 SWAP1 PUSH2 0x107A JUMP JUMPDEST SWAP1 POP PUSH1 0x0 DUP2 SWAP1 POP PUSH1 0x60 DUP2 PUSH20 0xFFFFFFFFFFFFFFFFFFFFFFFFFFFFFFFFFFFFFFFF AND PUSH4 0xECBCB122 ADDRESS PUSH1 0x0 PUSH1 0x40 MLOAD DUP4 PUSH4 0xFFFFFFFF AND PUSH1 0xE0 SHL DUP2 MSTORE PUSH1 0x4 ADD PUSH2 0x310 SWAP3 SWAP2 SWAP1 PUSH2 0x157A JUMP JUMPDEST PUSH1 0x0 PUSH1 0x40 MLOAD DUP1 DUP4 SUB DUP2 DUP7 DUP1 EXTCODESIZE ISZERO DUP1 ISZERO PUSH2 0x328 JUMPI PUSH1 0x0 DUP1 REVERT JUMPDEST POP GAS STATICCALL ISZERO DUP1 ISZERO PUSH2 0x33C JUMPI RETURNDATASIZE PUSH1 0x0 DUP1 RETURNDATACOPY RETURNDATASIZE PUSH1 0x0 REVERT JUMPDEST POP POP POP POP PUSH1 0x40 MLOAD RETURNDATASIZE PUSH1 0x0 DUP3 RETURNDATACOPY RETURNDATASIZE PUSH1 0x1F NOT PUSH1 0x1F DUP3 ADD AND DUP3 ADD DUP1 PUSH1 0x40 MSTORE POP DUP2 ADD SWAP1 PUSH2 0x365 SWAP2 SWAP1 PUSH2 0x1138 JUMP JUMPDEST SWAP1 POP PUSH1 0x40 MLOAD PUSH1 0x20 ADD PUSH2 0x376 SWAP1 PUSH2 0x151A JUMP JUMPDEST PUSH1 0x40 MLOAD PUSH1 0x20 DUP2 DUP4 SUB SUB DUP2 MSTORE SWAP1 PUSH1 0x40 MSTORE DUP1 MLOAD SWAP1 PUSH1 0x20 ADD KECCAK256 DUP2 PUSH1 0x40 MLOAD PUSH1 0x20 ADD PUSH2 0x39D SWAP2 SWAP1 PUSH2 0x14EC JUMP JUMPDEST PUSH1 0x40 MLOAD PUSH1 0x20 DUP2 DUP4 SUB SUB DUP2 MSTORE SWAP1 PUSH1 0x40 MSTORE DUP1 MLOAD SWAP1 PUSH1 0x20 ADD KECCAK256 EQ PUSH2 0x3BD JUMPI PUSH1 0x0 DUP1 REVERT JUMPDEST POP POP POP POP POP JUMP JUMPDEST PUSH1 0x0 PUSH20 0x950BD33F71A716B0A6161EBC09CD89F446698ABF SWAP1 POP PUSH1 0x0 DUP2 PUSH20 0xFFFFFFFFFFFFFFFFFFFFFFFFFFFFFFFFFFFFFFFF AND PUSH4 0x815214F8 CALLER PUSH1 0x40 MLOAD DUP3 PUSH4 0xFFFFFFFF AND PUSH1 0xE0 SHL DUP2 MSTORE PUSH1 0x4 ADD PUSH2 0x418 SWAP2 SWAP1 PUSH2 0x155F JUMP JUMPDEST PUSH1 0x20 PUSH1 0x40 MLOAD DUP1 DUP4 SUB DUP2 DUP7 DUP1 EXTCODESIZE ISZERO DUP1 ISZERO PUSH2 0x430 JUMPI PUSH1 0x0 DUP1 REVERT JUMPDEST POP GAS STATICCALL ISZERO DUP1 ISZERO PUSH2 0x444 JUMPI RETURNDATASIZE PUSH1 0x0 DUP1 RETURNDATACOPY RETURNDATASIZE PUSH1 0x0 REVERT JUMPDEST POP POP POP POP PUSH1 0x40 MLOAD RETURNDATASIZE PUSH1 0x1F NOT PUSH1 0x1F DUP3 ADD AND DUP3 ADD DUP1 PUSH1 0x40 MSTORE POP DUP2 ADD SWAP1 PUSH2 0x468 SWAP2 SWAP1 PUSH2 0x107A JUMP JUMPDEST SWAP1 POP PUSH1 0x4 PUSH1 0x0 DUP3 PUSH20 0xFFFFFFFFFFFFFFFFFFFFFFFFFFFFFFFFFFFFFFFF AND PUSH20 0xFFFFFFFFFFFFFFFFFFFFFFFFFFFFFFFFFFFFFFFF AND DUP2 MSTORE PUSH1 0x20 ADD SWAP1 DUP2 MSTORE PUSH1 0x20 ADD PUSH1 0x0 KECCAK256 PUSH1 0x0 SWAP1 SLOAD SWAP1 PUSH2 0x100 EXP SWAP1 DIV PUSH1 0xFF AND PUSH2 0x4C0 JUMPI PUSH1 0x0 DUP1 REVERT JUMPDEST PUSH1 0x5 DUP5 PUSH1 0x40 MLOAD PUSH2 0x4D0 SWAP2 SWAP1 PUSH2 0x14EC JUMP JUMPDEST SWAP1 DUP2 MSTORE PUSH1 0x20 ADD PUSH1 0x40 MLOAD DUP1 SWAP2 SUB SWAP1 KECCAK256 PUSH1 0x0 SWAP1 SLOAD SWAP1 PUSH2 0x100 EXP SWAP1 DIV PUSH1 0xFF AND ISZERO PUSH2 0x4F6 JUMPI PUSH1 0x0 DUP1 REVERT JUMPDEST PUSH1 0x0 DUP4 SWAP1 POP PUSH1 0x0 DUP2 PUSH20 0xFFFFFFFFFFFFFFFFFFFFFFFFFFFFFFFFFFFFFFFF AND PUSH4 0x7B103999 PUSH1 0x40 MLOAD DUP2 PUSH4 0xFFFFFFFF AND PUSH1 0xE0 SHL DUP2 MSTORE PUSH1 0x4 ADD PUSH1 0x20 PUSH1 0x40 MLOAD DUP1 DUP4 SUB DUP2 DUP7 DUP1 EXTCODESIZE ISZERO DUP1 ISZERO PUSH2 0x543 JUMPI PUSH1 0x0 DUP1 REVERT JUMPDEST POP GAS STATICCALL ISZERO DUP1 ISZERO PUSH2 0x557 JUMPI RETURNDATASIZE PUSH1 0x0 DUP1 RETURNDATACOPY RETURNDATASIZE PUSH1 0x0 REVERT JUMPDEST POP POP POP POP PUSH1 0x40 MLOAD RETURNDATASIZE PUSH1 0x1F NOT PUSH1 0x1F DUP3 ADD AND DUP3 ADD DUP1 PUSH1 0x40 MSTORE POP DUP2 ADD SWAP1 PUSH2 0x57B SWAP2 SWAP1 PUSH2 0x107A JUMP JUMPDEST SWAP1 POP PUSH1 0x0 DUP2 SWAP1 POP DUP1 PUSH20 0xFFFFFFFFFFFFFFFFFFFFFFFFFFFFFFFFFFFFFFFF AND PUSH4 0x1CE53428 PUSH1 0x40 MLOAD DUP2 PUSH4 0xFFFFFFFF AND PUSH1 0xE0 SHL DUP2 MSTORE PUSH1 0x4 ADD PUSH2 0x5B9 SWAP1 PUSH2 0x1637 JUMP JUMPDEST PUSH1 0x0 PUSH1 0x40 MLOAD DUP1 DUP4 SUB DUP2 PUSH1 0x0 DUP8 DUP1 EXTCODESIZE ISZERO DUP1 ISZERO PUSH2 0x5D3 JUMPI PUSH1 0x0 DUP1 REVERT JUMPDEST POP GAS CALL ISZERO DUP1 ISZERO PUSH2 0x5E7 JUMPI RETURNDATASIZE PUSH1 0x0 DUP1 RETURNDATACOPY RETURNDATASIZE PUSH1 0x0 REVERT JUMPDEST POP POP POP POP PUSH1 0x2 DUP8 SWAP1 DUP1 PUSH1 0x1 DUP2 SLOAD ADD DUP1 DUP3 SSTORE DUP1 SWAP2 POP POP PUSH1 0x1 SWAP1 SUB SWAP1 PUSH1 0x0 MSTORE PUSH1 0x20 PUSH1 0x0 KECCAK256 ADD PUSH1 0x0 SWAP1 SWAP2 SWAP1 SWAP2 SWAP1 SWAP2 POP SWAP1 DUP1 MLOAD SWAP1 PUSH1 0x20 ADD SWAP1 PUSH2 0x626 SWAP3 SWAP2 SWAP1 PUSH2 0xE95 JUMP JUMPDEST POP PUSH1 0x1 PUSH1 0x5 DUP9 PUSH1 0x40 MLOAD PUSH2 0x639 SWAP2 SWAP1 PUSH2 0x14EC JUMP JUMPDEST SWAP1 DUP2 MSTORE PUSH1 0x20 ADD PUSH1 0x40 MLOAD DUP1 SWAP2 SUB SWAP1 KECCAK256 PUSH1 0x0 PUSH2 0x100 EXP DUP2 SLOAD DUP2 PUSH1 0xFF MUL NOT AND SWAP1 DUP4 ISZERO ISZERO MUL OR SWAP1 SSTORE POP POP POP POP POP POP POP POP JUMP JUMPDEST DUP1 PUSH1 0x3 SWAP1 DUP1 MLOAD SWAP1 PUSH1 0x20 ADD SWAP1 PUSH2 0x67D SWAP3 SWAP2 SWAP1 PUSH2 0xE95 JUMP JUMPDEST POP PUSH1 0x5 PUSH1 0x3 PUSH1 0x40 MLOAD PUSH2 0x68F SWAP2 SWAP1 PUSH2 0x1503 JUMP JUMPDEST SWAP1 DUP2 MSTORE PUSH1 0x20 ADD PUSH1 0x40 MLOAD DUP1 SWAP2 SUB SWAP1 KECCAK256 PUSH1 0x0 SWAP1 SLOAD SWAP1 PUSH2 0x100 EXP SWAP1 DIV PUSH1 0xFF AND PUSH2 0x6B4 JUMPI PUSH1 0x0 DUP1 REVERT JUMPDEST POP JUMP JUMPDEST PUSH1 0x3 DUP1 SLOAD PUSH1 0x1 DUP2 PUSH1 0x1 AND ISZERO PUSH2 0x100 MUL SUB AND PUSH1 0x2 SWAP1 DIV DUP1 PUSH1 0x1F ADD PUSH1 0x20 DUP1 SWAP2 DIV MUL PUSH1 0x20 ADD PUSH1 0x40 MLOAD SWAP1 DUP2 ADD PUSH1 0x40 MSTORE DUP1 SWAP3 SWAP2 SWAP1 DUP2 DUP2 MSTORE PUSH1 0x20 ADD DUP3 DUP1 SLOAD PUSH1 0x1 DUP2 PUSH1 0x1 AND ISZERO PUSH2 0x100 MUL SUB AND PUSH1 0x2 SWAP1 DIV DUP1 ISZERO PUSH2 0x74D JUMPI DUP1 PUSH1 0x1F LT PUSH2 0x722 JUMPI PUSH2 0x100 DUP1 DUP4 SLOAD DIV MUL DUP4 MSTORE SWAP2 PUSH1 0x20 ADD SWAP2 PUSH2 0x74D JUMP JUMPDEST DUP3 ADD SWAP2 SWAP1 PUSH1 0x0 MSTORE PUSH1 0x20 PUSH1 0x0 KECCAK256 SWAP1 JUMPDEST DUP2 SLOAD DUP2 MSTORE SWAP1 PUSH1 0x1 ADD SWAP1 PUSH1 0x20 ADD DUP1 DUP4 GT PUSH2 0x730 JUMPI DUP3 SWAP1 SUB PUSH1 0x1F AND DUP3 ADD SWAP2 JUMPDEST POP POP POP POP POP DUP2 JUMP JUMPDEST PUSH1 0x1 PUSH1 0x0 SWAP1 SLOAD SWAP1 PUSH2 0x100 EXP SWAP1 DIV PUSH20 0xFFFFFFFFFFFFFFFFFFFFFFFFFFFFFFFFFFFFFFFF AND PUSH20 0xFFFFFFFFFFFFFFFFFFFFFFFFFFFFFFFFFFFFFFFF AND CALLER PUSH20 0xFFFFFFFFFFFFFFFFFFFFFFFFFFFFFFFFFFFFFFFF AND EQ PUSH2 0x7AF JUMPI PUSH1 0x0 DUP1 REVERT JUMPDEST PUSH1 0x4 PUSH1 0x0 DUP4 PUSH20 0xFFFFFFFFFFFFFFFFFFFFFFFFFFFFFFFFFFFFFFFF AND PUSH20 0xFFFFFFFFFFFFFFFFFFFFFFFFFFFFFFFFFFFFFFFF AND DUP2 MSTORE PUSH1 0x20 ADD SWAP1 DUP2 MSTORE PUSH1 0x20 ADD PUSH1 0x0 KECCAK256 PUSH1 0x0 SWAP1 SLOAD SWAP1 PUSH2 0x100 EXP SWAP1 DIV PUSH1 0xFF AND ISZERO PUSH2 0x806 JUMPI PUSH1 0x0 DUP1 REVERT JUMPDEST PUSH1 0x0 DUP3 SWAP1 POP PUSH1 0x0 DUP2 PUSH20 0xFFFFFFFFFFFFFFFFFFFFFFFFFFFFFFFFFFFFFFFF AND PUSH4 0x7B103999 PUSH1 0x40 MLOAD DUP2 PUSH4 0xFFFFFFFF AND PUSH1 0xE0 SHL DUP2 MSTORE PUSH1 0x4 ADD PUSH1 0x20 PUSH1 0x40 MLOAD DUP1 DUP4 SUB DUP2 DUP7 DUP1 EXTCODESIZE ISZERO DUP1 ISZERO PUSH2 0x853 JUMPI PUSH1 0x0 DUP1 REVERT JUMPDEST POP GAS STATICCALL ISZERO DUP1 ISZERO PUSH2 0x867 JUMPI RETURNDATASIZE PUSH1 0x0 DUP1 RETURNDATACOPY RETURNDATASIZE PUSH1 0x0 REVERT JUMPDEST POP POP POP POP PUSH1 0x40 MLOAD RETURNDATASIZE PUSH1 0x1F NOT PUSH1 0x1F DUP3 ADD AND DUP3 ADD DUP1 PUSH1 0x40 MSTORE POP DUP2 ADD SWAP1 PUSH2 0x88B SWAP2 SWAP1 PUSH2 0x107A JUMP JUMPDEST SWAP1 POP PUSH1 0x0 DUP2 SWAP1 POP DUP1 PUSH20 0xFFFFFFFFFFFFFFFFFFFFFFFFFFFFFFFFFFFFFFFF AND PUSH4 0x1CE53428 PUSH1 0x40 MLOAD DUP2 PUSH4 0xFFFFFFFF AND PUSH1 0xE0 SHL DUP2 MSTORE PUSH1 0x4 ADD PUSH2 0x8C9 SWAP1 PUSH2 0x1617 JUMP JUMPDEST PUSH1 0x0 PUSH1 0x40 MLOAD DUP1 DUP4 SUB DUP2 PUSH1 0x0 DUP8 DUP1 EXTCODESIZE ISZERO DUP1 ISZERO PUSH2 0x8E3 JUMPI PUSH1 0x0 DUP1 REVERT JUMPDEST POP GAS CALL ISZERO DUP1 ISZERO PUSH2 0x8F7 JUMPI RETURNDATASIZE PUSH1 0x0 DUP1 RETURNDATACOPY RETURNDATASIZE PUSH1 0x0 REVERT JUMPDEST POP POP POP POP PUSH2 0x903 PUSH2 0xF15 JUMP JUMPDEST PUSH1 0x40 MLOAD DUP1 PUSH1 0x40 ADD PUSH1 0x40 MSTORE DUP1 DUP7 DUP2 MSTORE PUSH1 0x20 ADD DUP8 PUSH20 0xFFFFFFFFFFFFFFFFFFFFFFFFFFFFFFFFFFFFFFFF AND DUP2 MSTORE POP SWAP1 POP PUSH1 0x0 DUP2 SWAP1 DUP1 PUSH1 0x1 DUP2 SLOAD ADD DUP1 DUP3 SSTORE DUP1 SWAP2 POP POP PUSH1 0x1 SWAP1 SUB SWAP1 PUSH1 0x0 MSTORE PUSH1 0x20 PUSH1 0x0 KECCAK256 SWAP1 PUSH1 0x2 MUL ADD PUSH1 0x0 SWAP1 SWAP2 SWAP1 SWAP2 SWAP1 SWAP2 POP PUSH1 0x0 DUP3 ADD MLOAD DUP2 PUSH1 0x0 ADD SWAP1 DUP1 MLOAD SWAP1 PUSH1 0x20 ADD SWAP1 PUSH2 0x978 SWAP3 SWAP2 SWAP1 PUSH2 0xE95 JUMP JUMPDEST POP PUSH1 0x20 DUP3 ADD MLOAD DUP2 PUSH1 0x1 ADD PUSH1 0x0 PUSH2 0x100 EXP DUP2 SLOAD DUP2 PUSH20 0xFFFFFFFFFFFFFFFFFFFFFFFFFFFFFFFFFFFFFFFF MUL NOT AND SWAP1 DUP4 PUSH20 0xFFFFFFFFFFFFFFFFFFFFFFFFFFFFFFFFFFFFFFFF AND MUL OR SWAP1 SSTORE POP POP POP PUSH1 0x1 PUSH1 0x4 PUSH1 0x0 DUP9 PUSH20 0xFFFFFFFFFFFFFFFFFFFFFFFFFFFFFFFFFFFFFFFF AND PUSH20 0xFFFFFFFFFFFFFFFFFFFFFFFFFFFFFFFFFFFFFFFF AND DUP2 MSTORE PUSH1 0x20 ADD SWAP1 DUP2 MSTORE PUSH1 0x20 ADD PUSH1 0x0 KECCAK256 PUSH1 0x0 PUSH2 0x100 EXP DUP2 SLOAD DUP2 PUSH1 0xFF MUL NOT AND SWAP1 DUP4 ISZERO ISZERO MUL OR SWAP1 SSTORE POP POP POP POP POP POP POP JUMP JUMPDEST PUSH1 0x60 PUSH1 0x2 DUP1 SLOAD DUP1 PUSH1 0x20 MUL PUSH1 0x20 ADD PUSH1 0x40 MLOAD SWAP1 DUP2 ADD PUSH1 0x40 MSTORE DUP1 SWAP3 SWAP2 SWAP1 DUP2 DUP2 MSTORE PUSH1 0x20 ADD PUSH1 0x0 SWAP1 JUMPDEST DUP3 DUP3 LT ISZERO PUSH2 0xB02 JUMPI DUP4 DUP3 SWAP1 PUSH1 0x0 MSTORE PUSH1 0x20 PUSH1 0x0 KECCAK256 ADD DUP1 SLOAD PUSH1 0x1 DUP2 PUSH1 0x1 AND ISZERO PUSH2 0x100 MUL SUB AND PUSH1 0x2 SWAP1 DIV DUP1 PUSH1 0x1F ADD PUSH1 0x20 DUP1 SWAP2 DIV MUL PUSH1 0x20 ADD PUSH1 0x40 MLOAD SWAP1 DUP2 ADD PUSH1 0x40 MSTORE DUP1 SWAP3 SWAP2 SWAP1 DUP2 DUP2 MSTORE PUSH1 0x20 ADD DUP3 DUP1 SLOAD PUSH1 0x1 DUP2 PUSH1 0x1 AND ISZERO PUSH2 0x100 MUL SUB AND PUSH1 0x2 SWAP1 DIV DUP1 ISZERO PUSH2 0xAEE JUMPI DUP1 PUSH1 0x1F LT PUSH2 0xAC3 JUMPI PUSH2 0x100 DUP1 DUP4 SLOAD DIV MUL DUP4 MSTORE SWAP2 PUSH1 0x20 ADD SWAP2 PUSH2 0xAEE JUMP JUMPDEST DUP3 ADD SWAP2 SWAP1 PUSH1 0x0 MSTORE PUSH1 0x20 PUSH1 0x0 KECCAK256 SWAP1 JUMPDEST DUP2 SLOAD DUP2 MSTORE SWAP1 PUSH1 0x1 ADD SWAP1 PUSH1 0x20 ADD DUP1 DUP4 GT PUSH2 0xAD1 JUMPI DUP3 SWAP1 SUB PUSH1 0x1F AND DUP3 ADD SWAP2 JUMPDEST POP POP POP POP POP DUP2 MSTORE PUSH1 0x20 ADD SWAP1 PUSH1 0x1 ADD SWAP1 PUSH2 0xA46 JUMP JUMPDEST POP POP POP POP SWAP1 POP SWAP1 JUMP JUMPDEST PUSH1 0x0 DUP2 DUP2 SLOAD DUP2 LT PUSH2 0xB18 JUMPI INVALID JUMPDEST SWAP1 PUSH1 0x0 MSTORE PUSH1 0x20 PUSH1 0x0 KECCAK256 SWAP1 PUSH1 0x2 MUL ADD PUSH1 0x0 SWAP2 POP SWAP1 POP DUP1 PUSH1 0x0 ADD DUP1 SLOAD PUSH1 0x1 DUP2 PUSH1 0x1 AND ISZERO PUSH2 0x100 MUL SUB AND PUSH1 0x2 SWAP1 DIV DUP1 PUSH1 0x1F ADD PUSH1 0x20 DUP1 SWAP2 DIV MUL PUSH1 0x20 ADD PUSH1 0x40 MLOAD SWAP1 DUP2 ADD PUSH1 0x40 MSTORE DUP1 SWAP3 SWAP2 SWAP1 DUP2 DUP2 MSTORE PUSH1 0x20 ADD DUP3 DUP1 SLOAD PUSH1 0x1 DUP2 PUSH1 0x1 AND ISZERO PUSH2 0x100 MUL SUB AND PUSH1 0x2 SWAP1 DIV DUP1 ISZERO PUSH2 0xBC4 JUMPI DUP1 PUSH1 0x1F LT PUSH2 0xB99 JUMPI PUSH2 0x100 DUP1 DUP4 SLOAD DIV MUL DUP4 MSTORE SWAP2 PUSH1 0x20 ADD SWAP2 PUSH2 0xBC4 JUMP JUMPDEST DUP3 ADD SWAP2 SWAP1 PUSH1 0x0 MSTORE PUSH1 0x20 PUSH1 0x0 KECCAK256 SWAP1 JUMPDEST DUP2 SLOAD DUP2 MSTORE SWAP1 PUSH1 0x1 ADD SWAP1 PUSH1 0x20 ADD DUP1 DUP4 GT PUSH2 0xBA7 JUMPI DUP3 SWAP1 SUB PUSH1 0x1F AND DUP3 ADD SWAP2 JUMPDEST POP POP POP POP POP SWAP1 DUP1 PUSH1 0x1 ADD PUSH1 0x0 SWAP1 SLOAD SWAP1 PUSH2 0x100 EXP SWAP1 DIV PUSH20 0xFFFFFFFFFFFFFFFFFFFFFFFFFFFFFFFFFFFFFFFF AND SWAP1 POP DUP3 JUMP JUMPDEST PUSH1 0x0 DUP2 SWAP1 POP PUSH1 0x0 DUP2 PUSH20 0xFFFFFFFFFFFFFFFFFFFFFFFFFFFFFFFFFFFFFFFF AND PUSH4 0x7B103999 PUSH1 0x40 MLOAD DUP2 PUSH4 0xFFFFFFFF AND PUSH1 0xE0 SHL DUP2 MSTORE PUSH1 0x4 ADD PUSH1 0x20 PUSH1 0x40 MLOAD DUP1 DUP4 SUB DUP2 DUP7 DUP1 EXTCODESIZE ISZERO DUP1 ISZERO PUSH2 0xC41 JUMPI PUSH1 0x0 DUP1 REVERT JUMPDEST POP GAS STATICCALL ISZERO DUP1 ISZERO PUSH2 0xC55 JUMPI RETURNDATASIZE PUSH1 0x0 DUP1 RETURNDATACOPY RETURNDATASIZE PUSH1 0x0 REVERT JUMPDEST POP POP POP POP PUSH1 0x40 MLOAD RETURNDATASIZE PUSH1 0x1F NOT PUSH1 0x1F DUP3 ADD AND DUP3 ADD DUP1 PUSH1 0x40 MSTORE POP DUP2 ADD SWAP1 PUSH2 0xC79 SWAP2 SWAP1 PUSH2 0x107A JUMP JUMPDEST SWAP1 POP PUSH1 0x0 DUP2 SWAP1 POP PUSH1 0x60 DUP2 PUSH20 0xFFFFFFFFFFFFFFFFFFFFFFFFFFFFFFFFFFFFFFFF AND PUSH4 0xECBCB122 ADDRESS PUSH1 0x0 PUSH1 0x40 MLOAD DUP4 PUSH4 0xFFFFFFFF AND PUSH1 0xE0 SHL DUP2 MSTORE PUSH1 0x4 ADD PUSH2 0xCBE SWAP3 SWAP2 SWAP1 PUSH2 0x157A JUMP JUMPDEST PUSH1 0x0 PUSH1 0x40 MLOAD DUP1 DUP4 SUB DUP2 DUP7 DUP1 EXTCODESIZE ISZERO DUP1 ISZERO PUSH2 0xCD6 JUMPI PUSH1 0x0 DUP1 REVERT JUMPDEST POP GAS STATICCALL ISZERO DUP1 ISZERO PUSH2 0xCEA JUMPI RETURNDATASIZE PUSH1 0x0 DUP1 RETURNDATACOPY RETURNDATASIZE PUSH1 0x0 REVERT JUMPDEST POP POP POP POP PUSH1 0x40 MLOAD RETURNDATASIZE PUSH1 0x0 DUP3 RETURNDATACOPY RETURNDATASIZE PUSH1 0x1F NOT PUSH1 0x1F DUP3 ADD AND DUP3 ADD DUP1 PUSH1 0x40 MSTORE POP DUP2 ADD SWAP1 PUSH2 0xD13 SWAP2 SWAP1 PUSH2 0x1138 JUMP JUMPDEST SWAP1 POP PUSH1 0x40 MLOAD PUSH1 0x20 ADD PUSH2 0xD24 SWAP1 PUSH2 0x152F JUMP JUMPDEST PUSH1 0x40 MLOAD PUSH1 0x20 DUP2 DUP4 SUB SUB DUP2 MSTORE SWAP1 PUSH1 0x40 MSTORE DUP1 MLOAD SWAP1 PUSH1 0x20 ADD KECCAK256 DUP2 PUSH1 0x40 MLOAD PUSH1 0x20 ADD PUSH2 0xD4B SWAP2 SWAP1 PUSH2 0x14EC JUMP JUMPDEST PUSH1 0x40 MLOAD PUSH1 0x20 DUP2 DUP4 SUB SUB DUP2 MSTORE SWAP1 PUSH1 0x40 MSTORE DUP1 MLOAD SWAP1 PUSH1 0x20 ADD KECCAK256 EQ PUSH2 0xD6B JUMPI PUSH1 0x0 DUP1 REVERT JUMPDEST POP POP POP POP POP JUMP JUMPDEST PUSH1 0x2 DUP2 DUP2 SLOAD DUP2 LT PUSH2 0xD7F JUMPI INVALID JUMPDEST SWAP1 PUSH1 0x0 MSTORE PUSH1 0x20 PUSH1 0x0 KECCAK256 ADD PUSH1 0x0 SWAP2 POP SWAP1 POP DUP1 SLOAD PUSH1 0x1 DUP2 PUSH1 0x1 AND ISZERO PUSH2 0x100 MUL SUB AND PUSH1 0x2 SWAP1 DIV DUP1 PUSH1 0x1F ADD PUSH1 0x20 DUP1 SWAP2 DIV MUL PUSH1 0x20 ADD PUSH1 0x40 MLOAD SWAP1 DUP2 ADD PUSH1 0x40 MSTORE DUP1 SWAP3 SWAP2 SWAP1 DUP2 DUP2 MSTORE PUSH1 0x20 ADD DUP3 DUP1 SLOAD PUSH1 0x1 DUP2 PUSH1 0x1 AND ISZERO PUSH2 0x100 MUL SUB AND PUSH1 0x2 SWAP1 DIV DUP1 ISZERO PUSH2 0xE23 JUMPI DUP1 PUSH1 0x1F LT PUSH2 0xDF8 JUMPI PUSH2 0x100 DUP1 DUP4 SLOAD DIV MUL DUP4 MSTORE SWAP2 PUSH1 0x20 ADD SWAP2 PUSH2 0xE23 JUMP JUMPDEST DUP3 ADD SWAP2 SWAP1 PUSH1 0x0 MSTORE PUSH1 0x20 PUSH1 0x0 KECCAK256 SWAP1 JUMPDEST DUP2 SLOAD DUP2 MSTORE SWAP1 PUSH1 0x1 ADD SWAP1 PUSH1 0x20 ADD DUP1 DUP4 GT PUSH2 0xE06 JUMPI DUP3 SWAP1 SUB PUSH1 0x1F AND DUP3 ADD SWAP2 JUMPDEST POP POP POP POP POP DUP2 JUMP JUMPDEST PUSH1 0x1 PUSH1 0x0 SWAP1 SLOAD SWAP1 PUSH2 0x100 EXP SWAP1 DIV PUSH20 0xFFFFFFFFFFFFFFFFFFFFFFFFFFFFFFFFFFFFFFFF AND DUP2 JUMP JUMPDEST DUP1 PUSH1 0x6 PUSH1 0x0 PUSH2 0x100 EXP DUP2 SLOAD DUP2 PUSH20 0xFFFFFFFFFFFFFFFFFFFFFFFFFFFFFFFFFFFFFFFF MUL NOT AND SWAP1 DUP4 PUSH20 0xFFFFFFFFFFFFFFFFFFFFFFFFFFFFFFFFFFFFFFFF AND MUL OR SWAP1 SSTORE POP POP JUMP JUMPDEST DUP3 DUP1 SLOAD PUSH1 0x1 DUP2 PUSH1 0x1 AND ISZERO PUSH2 0x100 MUL SUB AND PUSH1 0x2 SWAP1 DIV SWAP1 PUSH1 0x0 MSTORE PUSH1 0x20 PUSH1 0x0 KECCAK256 SWAP1 PUSH1 0x1F ADD PUSH1 0x20 SWAP1 DIV DUP2 ADD SWAP3 DUP3 PUSH1 0x1F LT PUSH2 0xED6 JUMPI DUP1 MLOAD PUSH1 0xFF NOT AND DUP4 DUP1 ADD OR DUP6 SSTORE PUSH2 0xF04 JUMP JUMPDEST DUP3 DUP1 ADD PUSH1 0x1 ADD DUP6 SSTORE DUP3 ISZERO PUSH2 0xF04 JUMPI SWAP2 DUP3 ADD JUMPDEST DUP3 DUP2 GT ISZERO PUSH2 0xF03 JUMPI DUP3 MLOAD DUP3 SSTORE SWAP2 PUSH1 0x20 ADD SWAP2 SWAP1 PUSH1 0x1 ADD SWAP1 PUSH2 0xEE8 JUMP JUMPDEST JUMPDEST POP SWAP1 POP PUSH2 0xF11 SWAP2 SWAP1 PUSH2 0xF45 JUMP JUMPDEST POP SWAP1 JUMP JUMPDEST PUSH1 0x40 MLOAD DUP1 PUSH1 0x40 ADD PUSH1 0x40 MSTORE DUP1 PUSH1 0x60 DUP2 MSTORE PUSH1 0x20 ADD PUSH1 0x0 PUSH20 0xFFFFFFFFFFFFFFFFFFFFFFFFFFFFFFFFFFFFFFFF AND DUP2 MSTORE POP SWAP1 JUMP JUMPDEST PUSH2 0xF67 SWAP2 SWAP1 JUMPDEST DUP1 DUP3 GT ISZERO PUSH2 0xF63 JUMPI PUSH1 0x0 DUP2 PUSH1 0x0 SWAP1 SSTORE POP PUSH1 0x1 ADD PUSH2 0xF4B JUMP JUMPDEST POP SWAP1 JUMP JUMPDEST SWAP1 JUMP JUMPDEST PUSH1 0x0 DUP2 CALLDATALOAD SWAP1 POP PUSH2 0xF79 DUP2 PUSH2 0x1828 JUMP JUMPDEST SWAP3 SWAP2 POP POP JUMP JUMPDEST PUSH1 0x0 DUP2 MLOAD SWAP1 POP PUSH2 0xF8E DUP2 PUSH2 0x1828 JUMP JUMPDEST SWAP3 SWAP2 POP POP JUMP JUMPDEST PUSH1 0x0 DUP3 PUSH1 0x1F DUP4 ADD SLT PUSH2 0xFA5 JUMPI PUSH1 0x0 DUP1 REVERT JUMPDEST DUP2 CALLDATALOAD PUSH2 0xFB8 PUSH2 0xFB3 DUP3 PUSH2 0x169F JUMP JUMPDEST PUSH2 0x1672 JUMP JUMPDEST SWAP2 POP DUP1 DUP3 MSTORE PUSH1 0x20 DUP4 ADD PUSH1 0x20 DUP4 ADD DUP6 DUP4 DUP4 ADD GT ISZERO PUSH2 0xFD4 JUMPI PUSH1 0x0 DUP1 REVERT JUMPDEST PUSH2 0xFDF DUP4 DUP3 DUP5 PUSH2 0x17D5 JUMP JUMPDEST POP POP POP SWAP3 SWAP2 POP POP JUMP JUMPDEST PUSH1 0x0 DUP3 PUSH1 0x1F DUP4 ADD SLT PUSH2 0xFF9 JUMPI PUSH1 0x0 DUP1 REVERT JUMPDEST DUP2 MLOAD PUSH2 0x100C PUSH2 0x1007 DUP3 PUSH2 0x169F JUMP JUMPDEST PUSH2 0x1672 JUMP JUMPDEST SWAP2 POP DUP1 DUP3 MSTORE PUSH1 0x20 DUP4 ADD PUSH1 0x20 DUP4 ADD DUP6 DUP4 DUP4 ADD GT ISZERO PUSH2 0x1028 JUMPI PUSH1 0x0 DUP1 REVERT JUMPDEST PUSH2 0x1033 DUP4 DUP3 DUP5 PUSH2 0x17E4 JUMP JUMPDEST POP POP POP SWAP3 SWAP2 POP POP JUMP JUMPDEST PUSH1 0x0 DUP2 CALLDATALOAD SWAP1 POP PUSH2 0x104B DUP2 PUSH2 0x183F JUMP JUMPDEST SWAP3 SWAP2 POP POP JUMP JUMPDEST PUSH1 0x0 PUSH1 0x20 DUP3 DUP5 SUB SLT ISZERO PUSH2 0x1063 JUMPI PUSH1 0x0 DUP1 REVERT JUMPDEST PUSH1 0x0 PUSH2 0x1071 DUP5 DUP3 DUP6 ADD PUSH2 0xF6A JUMP JUMPDEST SWAP2 POP POP SWAP3 SWAP2 POP POP JUMP JUMPDEST PUSH1 0x0 PUSH1 0x20 DUP3 DUP5 SUB SLT ISZERO PUSH2 0x108C JUMPI PUSH1 0x0 DUP1 REVERT JUMPDEST PUSH1 0x0 PUSH2 0x109A DUP5 DUP3 DUP6 ADD PUSH2 0xF7F JUMP JUMPDEST SWAP2 POP POP SWAP3 SWAP2 POP POP JUMP JUMPDEST PUSH1 0x0 DUP1 PUSH1 0x40 DUP4 DUP6 SUB SLT ISZERO PUSH2 0x10B6 JUMPI PUSH1 0x0 DUP1 REVERT JUMPDEST PUSH1 0x0 PUSH2 0x10C4 DUP6 DUP3 DUP7 ADD PUSH2 0xF6A JUMP JUMPDEST SWAP3 POP POP PUSH1 0x20 DUP4 ADD CALLDATALOAD PUSH8 0xFFFFFFFFFFFFFFFF DUP2 GT ISZERO PUSH2 0x10E1 JUMPI PUSH1 0x0 DUP1 REVERT JUMPDEST PUSH2 0x10ED DUP6 DUP3 DUP7 ADD PUSH2 0xF94 JUMP JUMPDEST SWAP2 POP POP SWAP3 POP SWAP3 SWAP1 POP JUMP JUMPDEST PUSH1 0x0 PUSH1 0x20 DUP3 DUP5 SUB SLT ISZERO PUSH2 0x1109 JUMPI PUSH1 0x0 DUP1 REVERT JUMPDEST PUSH1 0x0 DUP3 ADD CALLDATALOAD PUSH8 0xFFFFFFFFFFFFFFFF DUP2 GT ISZERO PUSH2 0x1123 JUMPI PUSH1 0x0 DUP1 REVERT JUMPDEST PUSH2 0x112F DUP5 DUP3 DUP6 ADD PUSH2 0xF94 JUMP JUMPDEST SWAP2 POP POP SWAP3 SWAP2 POP POP JUMP JUMPDEST PUSH1 0x0 PUSH1 0x20 DUP3 DUP5 SUB SLT ISZERO PUSH2 0x114A JUMPI PUSH1 0x0 DUP1 REVERT JUMPDEST PUSH1 0x0 DUP3 ADD MLOAD PUSH8 0xFFFFFFFFFFFFFFFF DUP2 GT ISZERO PUSH2 0x1164 JUMPI PUSH1 0x0 DUP1 REVERT JUMPDEST PUSH2 0x1170 DUP5 DUP3 DUP6 ADD PUSH2 0xFE8 JUMP JUMPDEST SWAP2 POP POP SWAP3 SWAP2 POP POP JUMP JUMPDEST PUSH1 0x0 DUP1 PUSH1 0x40 DUP4 DUP6 SUB SLT ISZERO PUSH2 0x118C JUMPI PUSH1 0x0 DUP1 REVERT JUMPDEST PUSH1 0x0 DUP4 ADD CALLDATALOAD PUSH8 0xFFFFFFFFFFFFFFFF DUP2 GT ISZERO PUSH2 0x11A6 JUMPI PUSH1 0x0 DUP1 REVERT JUMPDEST PUSH2 0x11B2 DUP6 DUP3 DUP7 ADD PUSH2 0xF94 JUMP JUMPDEST SWAP3 POP POP PUSH1 0x20 PUSH2 0x11C3 DUP6 DUP3 DUP7 ADD PUSH2 0xF6A JUMP JUMPDEST SWAP2 POP POP SWAP3 POP SWAP3 SWAP1 POP JUMP JUMPDEST PUSH1 0x0 PUSH1 0x20 DUP3 DUP5 SUB SLT ISZERO PUSH2 0x11DF JUMPI PUSH1 0x0 DUP1 REVERT JUMPDEST PUSH1 0x0 PUSH2 0x11ED DUP5 DUP3 DUP6 ADD PUSH2 0x103C JUMP JUMPDEST SWAP2 POP POP SWAP3 SWAP2 POP POP JUMP JUMPDEST PUSH1 0x0 PUSH2 0x1202 DUP4 DUP4 PUSH2 0x12AC JUMP JUMPDEST SWAP1 POP SWAP3 SWAP2 POP POP JUMP JUMPDEST PUSH2 0x1213 DUP2 PUSH2 0x178D JUMP JUMPDEST DUP3 MSTORE POP POP JUMP JUMPDEST PUSH2 0x1222 DUP2 PUSH2 0x1751 JUMP JUMPDEST DUP3 MSTORE POP POP JUMP JUMPDEST PUSH1 0x0 PUSH2 0x1233 DUP3 PUSH2 0x16F0 JUMP JUMPDEST PUSH2 0x123D DUP2 DUP6 PUSH2 0x1713 JUMP JUMPDEST SWAP4 POP DUP4 PUSH1 0x20 DUP3 MUL DUP6 ADD PUSH2 0x124F DUP6 PUSH2 0x16CB JUMP JUMPDEST DUP1 PUSH1 0x0 JUMPDEST DUP6 DUP2 LT ISZERO PUSH2 0x128B JUMPI DUP5 DUP5 SUB DUP10 MSTORE DUP2 MLOAD PUSH2 0x126C DUP6 DUP3 PUSH2 0x11F6 JUMP JUMPDEST SWAP5 POP PUSH2 0x1277 DUP4 PUSH2 0x1706 JUMP JUMPDEST SWAP3 POP PUSH1 0x20 DUP11 ADD SWAP10 POP POP PUSH1 0x1 DUP2 ADD SWAP1 POP PUSH2 0x1253 JUMP JUMPDEST POP DUP3 SWAP8 POP DUP8 SWAP6 POP POP POP POP POP POP SWAP3 SWAP2 POP POP JUMP JUMPDEST PUSH2 0x12A6 DUP2 PUSH2 0x179F JUMP JUMPDEST DUP3 MSTORE POP POP JUMP JUMPDEST PUSH1 0x0 PUSH2 0x12B7 DUP3 PUSH2 0x16FB JUMP JUMPDEST PUSH2 0x12C1 DUP2 DUP6 PUSH2 0x1724 JUMP JUMPDEST SWAP4 POP PUSH2 0x12D1 DUP2 DUP6 PUSH1 0x20 DUP7 ADD PUSH2 0x17E4 JUMP JUMPDEST PUSH2 0x12DA DUP2 PUSH2 0x1817 JUMP JUMPDEST DUP5 ADD SWAP2 POP POP SWAP3 SWAP2 POP POP JUMP JUMPDEST PUSH1 0x0 PUSH2 0x12F0 DUP3 PUSH2 0x16FB JUMP JUMPDEST PUSH2 0x12FA DUP2 DUP6 PUSH2 0x1735 JUMP JUMPDEST SWAP4 POP PUSH2 0x130A DUP2 DUP6 PUSH1 0x20 DUP7 ADD PUSH2 0x17E4 JUMP JUMPDEST PUSH2 0x1313 DUP2 PUSH2 0x1817 JUMP JUMPDEST DUP5 ADD SWAP2 POP POP SWAP3 SWAP2 POP POP JUMP JUMPDEST PUSH1 0x0 PUSH2 0x1329 DUP3 PUSH2 0x16FB JUMP JUMPDEST PUSH2 0x1333 DUP2 DUP6 PUSH2 0x1746 JUMP JUMPDEST SWAP4 POP PUSH2 0x1343 DUP2 DUP6 PUSH1 0x20 DUP7 ADD PUSH2 0x17E4 JUMP JUMPDEST DUP1 DUP5 ADD SWAP2 POP POP SWAP3 SWAP2 POP POP JUMP JUMPDEST PUSH1 0x0 DUP2 SLOAD PUSH1 0x1 DUP2 AND PUSH1 0x0 DUP2 EQ PUSH2 0x136C JUMPI PUSH1 0x1 DUP2 EQ PUSH2 0x1391 JUMPI PUSH2 0x13D5 JUMP JUMPDEST PUSH1 0x7F PUSH1 0x2 DUP4 DIV AND PUSH2 0x137D DUP2 DUP8 PUSH2 0x1746 JUMP JUMPDEST SWAP6 POP PUSH1 0xFF NOT DUP4 AND DUP7 MSTORE DUP1 DUP7 ADD SWAP4 POP POP PUSH2 0x13D5 JUMP JUMPDEST PUSH1 0x2 DUP3 DIV PUSH2 0x139F DUP2 DUP8 PUSH2 0x1746 JUMP JUMPDEST SWAP6 POP PUSH2 0x13AA DUP6 PUSH2 0x16DB JUMP JUMPDEST PUSH1 0x0 JUMPDEST DUP3 DUP2 LT ISZERO PUSH2 0x13CC JUMPI DUP2 SLOAD DUP2 DUP10 ADD MSTORE PUSH1 0x1 DUP3 ADD SWAP2 POP PUSH1 0x20 DUP2 ADD SWAP1 POP PUSH2 0x13AD JUMP JUMPDEST DUP3 DUP9 ADD SWAP6 POP POP POP POP JUMPDEST POP POP SWAP3 SWAP2 POP POP JUMP JUMPDEST PUSH1 0x0 PUSH2 0x13EA PUSH1 0x8 DUP4 PUSH2 0x1735 JUMP JUMPDEST SWAP2 POP PUSH32 0x69735363686F6F6C000000000000000000000000000000000000000000000000 PUSH1 0x0 DUP4 ADD MSTORE PUSH1 0x20 DUP3 ADD SWAP1 POP SWAP2 SWAP1 POP JUMP JUMPDEST PUSH1 0x0 PUSH2 0x142A PUSH1 0x8 DUP4 PUSH2 0x1746 JUMP JUMPDEST SWAP2 POP PUSH32 0x69735363686F6F6C000000000000000000000000000000000000000000000000 PUSH1 0x0 DUP4 ADD MSTORE PUSH1 0x8 DUP3 ADD SWAP1 POP SWAP2 SWAP1 POP JUMP JUMPDEST PUSH1 0x0 PUSH2 0x146A PUSH1 0xC DUP4 PUSH2 0x1735 JUMP JUMPDEST SWAP2 POP PUSH32 0x4365727469734973737565640000000000000000000000000000000000000000 PUSH1 0x0 DUP4 ADD MSTORE PUSH1 0x20 DUP3 ADD SWAP1 POP SWAP2 SWAP1 POP JUMP JUMPDEST PUSH1 0x0 PUSH2 0x14AA PUSH1 0xC DUP4 PUSH2 0x1746 JUMP JUMPDEST SWAP2 POP PUSH32 0x4365727469734973737565640000000000000000000000000000000000000000 PUSH1 0x0 DUP4 ADD MSTORE PUSH1 0xC DUP3 ADD SWAP1 POP SWAP2 SWAP1 POP JUMP JUMPDEST PUSH2 0x14E6 DUP2 PUSH2 0x1783 JUMP JUMPDEST DUP3 MSTORE POP POP JUMP JUMPDEST PUSH1 0x0 PUSH2 0x14F8 DUP3 DUP5 PUSH2 0x131E JUMP JUMPDEST SWAP2 POP DUP2 SWAP1 POP SWAP3 SWAP2 POP POP JUMP JUMPDEST PUSH1 0x0 PUSH2 0x150F DUP3 DUP5 PUSH2 0x134F JUMP JUMPDEST SWAP2 POP DUP2 SWAP1 POP SWAP3 SWAP2 POP POP JUMP JUMPDEST PUSH1 0x0 PUSH2 0x1525 DUP3 PUSH2 0x141D JUMP JUMPDEST SWAP2 POP DUP2 SWAP1 POP SWAP2 SWAP1 POP JUMP JUMPDEST PUSH1 0x0 PUSH2 0x153A DUP3 PUSH2 0x149D JUMP JUMPDEST SWAP2 POP DUP2 SWAP1 POP SWAP2 SWAP1 POP JUMP JUMPDEST PUSH1 0x0 PUSH1 0x20 DUP3 ADD SWAP1 POP PUSH2 0x1559 PUSH1 0x0 DUP4 ADD DUP5 PUSH2 0x1219 JUMP JUMPDEST SWAP3 SWAP2 POP POP JUMP JUMPDEST PUSH1 0x0 PUSH1 0x20 DUP3 ADD SWAP1 POP PUSH2 0x1574 PUSH1 0x0 DUP4 ADD DUP5 PUSH2 0x120A JUMP JUMPDEST SWAP3 SWAP2 POP POP JUMP JUMPDEST PUSH1 0x0 PUSH1 0x40 DUP3 ADD SWAP1 POP PUSH2 0x158F PUSH1 0x0 DUP4 ADD DUP6 PUSH2 0x1219 JUMP JUMPDEST PUSH2 0x159C PUSH1 0x20 DUP4 ADD DUP5 PUSH2 0x129D JUMP JUMPDEST SWAP4 SWAP3 POP POP POP JUMP JUMPDEST PUSH1 0x0 PUSH1 0x20 DUP3 ADD SWAP1 POP DUP2 DUP2 SUB PUSH1 0x0 DUP4 ADD MSTORE PUSH2 0x15BD DUP2 DUP5 PUSH2 0x1228 JUMP JUMPDEST SWAP1 POP SWAP3 SWAP2 POP POP JUMP JUMPDEST PUSH1 0x0 PUSH1 0x20 DUP3 ADD SWAP1 POP DUP2 DUP2 SUB PUSH1 0x0 DUP4 ADD MSTORE PUSH2 0x15DF DUP2 DUP5 PUSH2 0x12E5 JUMP JUMPDEST SWAP1 POP SWAP3 SWAP2 POP POP JUMP JUMPDEST PUSH1 0x0 PUSH1 0x40 DUP3 ADD SWAP1 POP DUP2 DUP2 SUB PUSH1 0x0 DUP4 ADD MSTORE PUSH2 0x1601 DUP2 DUP6 PUSH2 0x12E5 JUMP JUMPDEST SWAP1 POP PUSH2 0x1610 PUSH1 0x20 DUP4 ADD DUP5 PUSH2 0x1219 JUMP JUMPDEST SWAP4 SWAP3 POP POP POP JUMP JUMPDEST PUSH1 0x0 PUSH1 0x20 DUP3 ADD SWAP1 POP DUP2 DUP2 SUB PUSH1 0x0 DUP4 ADD MSTORE PUSH2 0x1630 DUP2 PUSH2 0x13DD JUMP JUMPDEST SWAP1 POP SWAP2 SWAP1 POP JUMP JUMPDEST PUSH1 0x0 PUSH1 0x20 DUP3 ADD SWAP1 POP DUP2 DUP2 SUB PUSH1 0x0 DUP4 ADD MSTORE PUSH2 0x1650 DUP2 PUSH2 0x145D JUMP JUMPDEST SWAP1 POP SWAP2 SWAP1 POP JUMP JUMPDEST PUSH1 0x0 PUSH1 0x20 DUP3 ADD SWAP1 POP PUSH2 0x166C PUSH1 0x0 DUP4 ADD DUP5 PUSH2 0x14DD JUMP JUMPDEST SWAP3 SWAP2 POP POP JUMP JUMPDEST PUSH1 0x0 PUSH1 0x40 MLOAD SWAP1 POP DUP2 DUP2 ADD DUP2 DUP2 LT PUSH8 0xFFFFFFFFFFFFFFFF DUP3 GT OR ISZERO PUSH2 0x1695 JUMPI PUSH1 0x0 DUP1 REVERT JUMPDEST DUP1 PUSH1 0x40 MSTORE POP SWAP2 SWAP1 POP JUMP JUMPDEST PUSH1 0x0 PUSH8 0xFFFFFFFFFFFFFFFF DUP3 GT ISZERO PUSH2 0x16B6 JUMPI PUSH1 0x0 DUP1 REVERT JUMPDEST PUSH1 0x1F NOT PUSH1 0x1F DUP4 ADD AND SWAP1 POP PUSH1 0x20 DUP2 ADD SWAP1 POP SWAP2 SWAP1 POP JUMP JUMPDEST PUSH1 0x0 DUP2 SWAP1 POP PUSH1 0x20 DUP3 ADD SWAP1 POP SWAP2 SWAP1 POP JUMP JUMPDEST PUSH1 0x0 DUP2 SWAP1 POP DUP2 PUSH1 0x0 MSTORE PUSH1 0x20 PUSH1 0x0 KECCAK256 SWAP1 POP SWAP2 SWAP1 POP JUMP JUMPDEST PUSH1 0x0 DUP2 MLOAD SWAP1 POP SWAP2 SWAP1 POP JUMP JUMPDEST PUSH1 0x0 DUP2 MLOAD SWAP1 POP SWAP2 SWAP1 POP JUMP JUMPDEST PUSH1 0x0 PUSH1 0x20 DUP3 ADD SWAP1 POP SWAP2 SWAP1 POP JUMP JUMPDEST PUSH1 0x0 DUP3 DUP3 MSTORE PUSH1 0x20 DUP3 ADD SWAP1 POP SWAP3 SWAP2 POP POP JUMP JUMPDEST PUSH1 0x0 DUP3 DUP3 MSTORE PUSH1 0x20 DUP3 ADD SWAP1 POP SWAP3 SWAP2 POP POP JUMP JUMPDEST PUSH1 0x0 DUP3 DUP3 MSTORE PUSH1 0x20 DUP3 ADD SWAP1 POP SWAP3 SWAP2 POP POP JUMP JUMPDEST PUSH1 0x0 DUP2 SWAP1 POP SWAP3 SWAP2 POP POP JUMP JUMPDEST PUSH1 0x0 PUSH2 0x175C DUP3 PUSH2 0x1763 JUMP JUMPDEST SWAP1 POP SWAP2 SWAP1 POP JUMP JUMPDEST PUSH1 0x0 PUSH20 0xFFFFFFFFFFFFFFFFFFFFFFFFFFFFFFFFFFFFFFFF DUP3 AND SWAP1 POP SWAP2 SWAP1 POP JUMP JUMPDEST PUSH1 0x0 DUP2 SWAP1 POP SWAP2 SWAP1 POP JUMP JUMPDEST PUSH1 0x0 PUSH2 0x1798 DUP3 PUSH2 0x17B1 JUMP JUMPDEST SWAP1 POP SWAP2 SWAP1 POP JUMP JUMPDEST PUSH1 0x0 PUSH2 0x17AA DUP3 PUSH2 0x1783 JUMP JUMPDEST SWAP1 POP SWAP2 SWAP1 POP JUMP JUMPDEST PUSH1 0x0 PUSH2 0x17BC DUP3 PUSH2 0x17C3 JUMP JUMPDEST SWAP1 POP SWAP2 SWAP1 POP JUMP JUMPDEST PUSH1 0x0 PUSH2 0x17CE DUP3 PUSH2 0x1763 JUMP JUMPDEST SWAP1 POP SWAP2 SWAP1 POP JUMP JUMPDEST DUP3 DUP2 DUP4 CALLDATACOPY PUSH1 0x0 DUP4 DUP4 ADD MSTORE POP POP POP JUMP JUMPDEST PUSH1 0x0 JUMPDEST DUP4 DUP2 LT ISZERO PUSH2 0x1802 JUMPI DUP1 DUP3 ADD MLOAD DUP2 DUP5 ADD MSTORE PUSH1 0x20 DUP2 ADD SWAP1 POP PUSH2 0x17E7 JUMP JUMPDEST DUP4 DUP2 GT ISZERO PUSH2 0x1811 JUMPI PUSH1 0x0 DUP5 DUP5 ADD MSTORE JUMPDEST POP POP POP POP JUMP JUMPDEST PUSH1 0x0 PUSH1 0x1F NOT PUSH1 0x1F DUP4 ADD AND SWAP1 POP SWAP2 SWAP1 POP JUMP JUMPDEST PUSH2 0x1831 DUP2 PUSH2 0x1751 JUMP JUMPDEST DUP2 EQ PUSH2 0x183C JUMPI PUSH1 0x0 DUP1 REVERT JUMPDEST POP JUMP JUMPDEST PUSH2 0x1848 DUP2 PUSH2 0x1783 JUMP JUMPDEST DUP2 EQ PUSH2 0x1853 JUMPI PUSH1 0x0 DUP1 REVERT JUMPDEST POP JUMP INVALID LOG2 PUSH5 0x6970667358 0x22 SLT KECCAK256 SSTORE PUSH31 0xD13B3000E1675B5A49AA3F0A2E0DFE0399B11AC77D7CC0A692600FFA8AE364 PUSH20 0x6F6C634300060600330000000000000000000000 "},"gasEstimates":{"creation":{"codeDepositCost":"1256800","executionCost":"22174","totalCost":"1278974"},"external":{"MinistryofEducation()":"1302","addNewSchool(address,string)":"infinite","certHash()":"infinite","certHashOnChain(uint256)":"infinite","changeAddress(address)":"21432","existence(address)":"infinite","getDeployedCerts()":"infinite","getSchoolsCount()":"1146","legality(address)":"infinite","schools(uint256)":"infinite","upload(string,address)":"infinite","validation(string)":"infinite"}},"methodIdentifiers":{"MinistryofEducation()":"fe2f3d8e","addNewSchool(address,string)":"5624e7c9","certHash()":"4c0822f2","certHashOnChain(uint256)":"dc0da51c","changeAddress(address)":"fe64d6ff","existence(address)":"a336acfc","getDeployedCerts()":"6fb2ddaf","getSchoolsCount()":"01307b37","legality(address)":"03ecd77f","schools(uint256)":"719c0d04","upload(string,address)":"04f737bb","validation(string)":"11913d6d"}},"storageLayout":{"storage":[{"astId":658,"contract":"Verify.sol:Verify","label":"schools","offset":0,"slot":"0","type":"t_array(t_struct(School)655_storage)dyn_storage"},{"astId":660,"contract":"Verify.sol:Verify","label":"MinistryofEducation","offset":0,"slot":"1","type":"t_address"},{"astId":663,"contract":"Verify.sol:Verify","label":"certHashOnChain","offset":0,"slot":"2","type":"t_array(t_string_storage)dyn_storage"},{"astId":665,"contract":"Verify.sol:Verify","label":"certHash","offset":0,"slot":"3","type":"t_string_storage"},{"astId":669,"contract":"Verify.sol:Verify","label":"isSchool","offset":0,"slot":"4","type":"t_mapping(t_address,t_bool)"},{"astId":673,"contract":"Verify.sol:Verify","label":"isOnChain","offset":0,"slot":"5","type":"t_mapping(t_string_memory_ptr,t_bool)"},{"astId":675,"contract":"Verify.sol:Verify","label":"CEaddress","offset":0,"slot":"6","type":"t_address"}],"types":{"t_address":{"encoding":"inplace","label":"address","numberOfBytes":"20"},"t_array(t_string_storage)dyn_storage":{"base":"t_string_storage","encoding":"dynamic_array","label":"string[]","numberOfBytes":"32"},"t_array(t_struct(School)655_storage)dyn_storage":{"base":"t_struct(School)655_storage","encoding":"dynamic_array","label":"struct Verify.School[]","numberOfBytes":"32"},"t_bool":{"encoding":"inplace","label":"bool","numberOfBytes":"1"},"t_mapping(t_address,t_bool)":{"encoding":"mapping","key":"t_address","label":"mapping(address => bool)","numberOfBytes":"32","value":"t_bool"},"t_mapping(t_string_memory_ptr,t_bool)":{"encoding":"mapping","key":"t_string_memory_ptr","label":"mapping(string => bool)","numberOfBytes":"32","value":"t_bool"},"t_string_memory_ptr":{"encoding":"bytes","label":"string","numberOfBytes":"32"},"t_string_storage":{"encoding":"bytes","label":"string","numberOfBytes":"32"},"t_struct(School)655_storage":{"encoding":"inplace","label":"struct Verify.School","members":[{"astId":652,"contract":"Verify.sol:Verify","label":"name","offset":0,"slot":"0","type":"t_string_storage"},{"astId":654,"contract":"Verify.sol:Verify","label":"schoolAddr","offset":0,"slot":"1","type":"t_address"}],"numberOfBytes":"64"}}},"userdoc":{"methods":{}}}