{"abi":[{"inputs":[],"stateMutability":"nonpayable","type":"constructor"},{"inputs":[{"internalType":"address","name":"schoolAddr","type":"address"},{"internalType":"string","name":"schoolName","type":"string"}],"name":"addNewSchool","outputs":[],"stateMutability":"nonpayable","type":"function"},{"inputs":[{"internalType":"address","name":"studentAddr","type":"address"},{"internalType":"address","name":"schoolAddr","type":"address"}],"name":"existence","outputs":[{"internalType":"bool","name":"","type":"bool"}],"stateMutability":"view","type":"function"},{"inputs":[{"internalType":"address","name":"studentAddr","type":"address"},{"internalType":"address","name":"schoolAddr","type":"address"}],"name":"expired","outputs":[{"internalType":"bool","name":"","type":"bool"}],"stateMutability":"view","type":"function"},{"inputs":[{"internalType":"address","name":"sender","type":"address"}],"name":"getDeployedCerts","outputs":[{"internalType":"uint256","name":"","type":"uint256"}],"stateMutability":"view","type":"function"},{"inputs":[{"internalType":"address","name":"studentAddr","type":"address"},{"internalType":"address","name":"schoolAddr","type":"address"}],"name":"getIPFS","outputs":[{"internalType":"string","name":"","type":"string"}],"stateMutability":"view","type":"function"},{"inputs":[],"name":"getSchoolsCount","outputs":[{"internalType":"uint256","name":"","type":"uint256"}],"stateMutability":"view","type":"function"},{"inputs":[{"internalType":"address","name":"sender","type":"address"}],"name":"getStudentList","outputs":[{"internalType":"address[]","name":"","type":"address[]"}],"stateMutability":"view","type":"function"},{"inputs":[],"name":"manager","outputs":[{"internalType":"address","name":"","type":"address"}],"stateMutability":"view","type":"function"},{"inputs":[],"name":"ministryEntity","outputs":[{"internalType":"address","name":"","type":"address"}],"stateMutability":"view","type":"function"},{"inputs":[{"internalType":"address","name":"ministryAddr","type":"address"}],"name":"ministryLogin","outputs":[{"internalType":"bool","name":"","type":"bool"}],"stateMutability":"view","type":"function"},{"inputs":[{"internalType":"address","name":"","type":"address"},{"internalType":"address","name":"","type":"address"}],"name":"schoolOwnedCert","outputs":[{"internalType":"string","name":"name","type":"string"},{"internalType":"address","name":"studentAddr","type":"address"},{"internalType":"string","name":"certHash","type":"string"},{"internalType":"string","name":"isGraduated","type":"string"}],"stateMutability":"view","type":"function"},{"inputs":[{"internalType":"address","name":"","type":"address"},{"internalType":"uint256","name":"","type":"uint256"}],"name":"schoolOwnedStudent","outputs":[{"internalType":"address","name":"","type":"address"}],"stateMutability":"view","type":"function"},{"inputs":[{"internalType":"uint256","name":"","type":"uint256"}],"name":"schools","outputs":[{"internalType":"string","name":"name","type":"string"},{"internalType":"address","name":"schoolAddr","type":"address"}],"stateMutability":"view","type":"function"},{"inputs":[{"internalType":"string","name":"s","type":"string"}],"name":"stringToUint","outputs":[{"internalType":"uint256","name":"","type":"uint256"}],"stateMutability":"pure","type":"function"},{"inputs":[{"internalType":"string","name":"hashValue","type":"string"},{"internalType":"address","name":"studentAddr","type":"address"},{"internalType":"string","name":"studentName","type":"string"},{"internalType":"string","name":"graduate","type":"string"}],"name":"upload","outputs":[],"stateMutability":"nonpayable","type":"function"},{"inputs":[{"internalType":"address","name":"schoolAddr","type":"address"}],"name":"verifyIsSchool","outputs":[{"internalType":"bool","name":"","type":"bool"}],"stateMutability":"view","type":"function"}],"devdoc":{"methods":{}},"evm":{"assembly":"    /* \"Verify.sol\":96:4091  contract Verify {\r... */\n  mstore(0x40, 0x80)\n    /* \"Verify.sol\":409:483  address public ministryEntity = 0x0dE304Ff69D56b15b6d47A7B985D3B620f2171DC */\n  0x02\n  dup1\n  sload\n  not(sub(shl(0xa0, 0x01), 0x01))\n  and\n    /* \"Verify.sol\":441:483  0x0dE304Ff69D56b15b6d47A7B985D3B620f2171DC */\n  0x0de304ff69d56b15b6d47a7b985d3b620f2171dc\n    /* \"Verify.sol\":409:483  address public ministryEntity = 0x0dE304Ff69D56b15b6d47A7B985D3B620f2171DC */\n  or\n  swap1\n  sstore\n    /* \"Verify.sol\":685:745  constructor() public {\r... */\n  callvalue\n    /* \"--CODEGEN--\":2:4   */\n  dup1\n  iszero\n  tag_1\n  jumpi\n    /* \"--CODEGEN--\":27:28   */\n  0x00\n    /* \"--CODEGEN--\":24:25   */\n  dup1\n    /* \"--CODEGEN--\":17:29   */\n  revert\n    /* \"--CODEGEN--\":2:4   */\ntag_1:\n  pop\n    /* \"Verify.sol\":717:724  manager */\n  0x01\n    /* \"Verify.sol\":717:737  manager = msg.sender */\n  dup1\n  sload\n  not(sub(shl(0xa0, 0x01), 0x01))\n  and\n    /* \"Verify.sol\":727:737  msg.sender */\n  caller\n    /* \"Verify.sol\":717:737  manager = msg.sender */\n  or\n  swap1\n  sstore\n    /* \"Verify.sol\":96:4091  contract Verify {\r... */\n  dataSize(sub_0)\n  dup1\n  dataOffset(sub_0)\n  0x00\n  codecopy\n  0x00\n  return\nstop\n\nsub_0: assembly {\n        /* \"Verify.sol\":96:4091  contract Verify {\r... */\n      mstore(0x40, 0x80)\n      callvalue\n        /* \"--CODEGEN--\":5:14   */\n      dup1\n        /* \"--CODEGEN--\":2:4   */\n      iszero\n      tag_1\n      jumpi\n        /* \"--CODEGEN--\":27:28   */\n      0x00\n        /* \"--CODEGEN--\":24:25   */\n      dup1\n        /* \"--CODEGEN--\":17:29   */\n      revert\n        /* \"--CODEGEN--\":2:4   */\n    tag_1:\n        /* \"Verify.sol\":96:4091  contract Verify {\r... */\n      pop\n      jumpi(tag_2, lt(calldatasize, 0x04))\n      shr(0xe0, calldataload(0x00))\n      dup1\n      0x5f460c91\n      gt\n      tag_19\n      jumpi\n      dup1\n      0x82c10560\n      gt\n      tag_20\n      jumpi\n      dup1\n      0x82c10560\n      eq\n      tag_15\n      jumpi\n      dup1\n      0x8a7f7f46\n      eq\n      tag_16\n      jumpi\n      dup1\n      0xbe87a975\n      eq\n      tag_17\n      jumpi\n      dup1\n      0xc89778b4\n      eq\n      tag_18\n      jumpi\n      jump(tag_2)\n    tag_20:\n      dup1\n      0x5f460c91\n      eq\n      tag_11\n      jumpi\n      dup1\n      0x61f0eff9\n      eq\n      tag_12\n      jumpi\n      dup1\n      0x719c0d04\n      eq\n      tag_13\n      jumpi\n      dup1\n      0x7858b264\n      eq\n      tag_14\n      jumpi\n      jump(tag_2)\n    tag_19:\n      dup1\n      0x3afe4f7c\n      gt\n      tag_21\n      jumpi\n      dup1\n      0x3afe4f7c\n      eq\n      tag_7\n      jumpi\n      dup1\n      0x481c6a75\n      eq\n      tag_8\n      jumpi\n      dup1\n      0x4bc395bb\n      eq\n      tag_9\n      jumpi\n      dup1\n      0x5624e7c9\n      eq\n      tag_10\n      jumpi\n      jump(tag_2)\n    tag_21:\n      dup1\n      0x01307b37\n      eq\n      tag_3\n      jumpi\n      dup1\n      0x1bd95155\n      eq\n      tag_4\n      jumpi\n      dup1\n      0x2dd8e5f0\n      eq\n      tag_5\n      jumpi\n      dup1\n      0x2e2cde3a\n      eq\n      tag_6\n      jumpi\n    tag_2:\n        /* \"--CODEGEN--\":12:13   */\n      0x00\n        /* \"--CODEGEN--\":9:10   */\n      dup1\n        /* \"--CODEGEN--\":2:14   */\n      revert\n        /* \"Verify.sol\":3705:3802  function getSchoolsCount() public view returns (uint256) {\r... */\n    tag_3:\n      tag_22\n      tag_23\n      jump\t// in\n    tag_22:\n      mload(0x40)\n      tag_24\n      swap2\n      swap1\n      jump(tag_25)\n    tag_24:\n      mload(0x40)\n      dup1\n      swap2\n      sub\n      swap1\n      return\n        /* \"Verify.sol\":757:1123  function stringToUint(string memory s)public pure returns (uint) {\r... */\n    tag_4:\n      tag_22\n      tag_27\n      calldatasize\n      0x04\n      jump(tag_28)\n    tag_27:\n      tag_29\n      jump\t// in\n        /* \"Verify.sol\":2254:2643  function verifyIsSchool(address schoolAddr) public view returns (bool) {\r... */\n    tag_5:\n      tag_31\n      tag_32\n      calldatasize\n      0x04\n      jump(tag_33)\n    tag_32:\n      tag_34\n      jump\t// in\n    tag_31:\n      mload(0x40)\n      tag_24\n      swap2\n      swap1\n      jump(tag_36)\n        /* \"Verify.sol\":536:610  mapping(address => mapping(address => Certificate)) public schoolOwnedCert */\n    tag_6:\n      tag_37\n      tag_38\n      calldatasize\n      0x04\n      jump(tag_39)\n    tag_38:\n      tag_40\n      jump\t// in\n    tag_37:\n      mload(0x40)\n      tag_24\n      swap5\n      swap4\n      swap3\n      swap2\n      swap1\n      jump(tag_42)\n        /* \"Verify.sol\":3064:3403  function expired(address studentAddr, address schoolAddr) public view returns (bool) {\r... */\n    tag_7:\n      tag_31\n      tag_44\n      calldatasize\n      0x04\n      jump(tag_39)\n    tag_44:\n      tag_45\n      jump\t// in\n        /* \"Verify.sol\":380:402  address public manager */\n    tag_8:\n      tag_47\n      tag_48\n      jump\t// in\n    tag_47:\n      mload(0x40)\n      tag_24\n      swap2\n      swap1\n      jump(tag_50)\n        /* \"Verify.sol\":617:672  mapping(address => address[]) public schoolOwnedStudent */\n    tag_9:\n      tag_47\n      tag_52\n      calldatasize\n      0x04\n      jump(tag_53)\n    tag_52:\n      tag_54\n      jump\t// in\n        /* \"Verify.sol\":1135:1376  function addNewSchool(address schoolAddr, string memory schoolName) public {\r... */\n    tag_10:\n      tag_56\n      tag_57\n      calldatasize\n      0x04\n      jump(tag_58)\n    tag_57:\n      tag_59\n      jump\t// in\n    tag_56:\n      stop\n        /* \"Verify.sol\":1388:1852  function upload(string memory hashValue, address studentAddr, string memory studentName, string memory graduate) public {\r... */\n    tag_11:\n      tag_56\n      tag_61\n      calldatasize\n      0x04\n      jump(tag_62)\n    tag_61:\n      tag_63\n      jump\t// in\n        /* \"Verify.sol\":2651:3052  function existence(address studentAddr, address schoolAddr) public view returns (bool) {\r... */\n    tag_12:\n      tag_31\n      tag_65\n      calldatasize\n      0x04\n      jump(tag_39)\n    tag_65:\n      tag_66\n      jump\t// in\n        /* \"Verify.sol\":350:373  School[] public schools */\n    tag_13:\n      tag_68\n      tag_69\n      calldatasize\n      0x04\n      jump(tag_70)\n    tag_69:\n      tag_71\n      jump\t// in\n    tag_68:\n      mload(0x40)\n      tag_24\n      swap3\n      swap2\n      swap1\n      jump(tag_73)\n        /* \"Verify.sol\":3957:4088  function getStudentList(address sender) public view returns (address[] memory) {\r... */\n    tag_14:\n      tag_74\n      tag_75\n      calldatasize\n      0x04\n      jump(tag_33)\n    tag_75:\n      tag_76\n      jump\t// in\n    tag_74:\n      mload(0x40)\n      tag_24\n      swap2\n      swap1\n      jump(tag_78)\n        /* \"Verify.sol\":3415:3693  function getIPFS(address studentAddr, address schoolAddr) public view returns (string memory){\r... */\n    tag_15:\n      tag_79\n      tag_80\n      calldatasize\n      0x04\n      jump(tag_39)\n    tag_80:\n      tag_81\n      jump\t// in\n    tag_79:\n      mload(0x40)\n      tag_24\n      swap2\n      swap1\n      jump(tag_83)\n        /* \"Verify.sol\":3814:3945  function getDeployedCerts(address sender) public view returns (uint256) {\r... */\n    tag_16:\n      tag_22\n      tag_85\n      calldatasize\n      0x04\n      jump(tag_33)\n    tag_85:\n      tag_86\n      jump\t// in\n        /* \"Verify.sol\":1864:2242  function ministryLogin(address ministryAddr) public view returns (bool) {\r... */\n    tag_17:\n      tag_31\n      tag_89\n      calldatasize\n      0x04\n      jump(tag_33)\n    tag_89:\n      tag_90\n      jump\t// in\n        /* \"Verify.sol\":409:483  address public ministryEntity = 0x0dE304Ff69D56b15b6d47A7B985D3B620f2171DC */\n    tag_18:\n      tag_47\n      tag_93\n      jump\t// in\n        /* \"Verify.sol\":3705:3802  function getSchoolsCount() public view returns (uint256) {\r... */\n    tag_23:\n        /* \"Verify.sol\":3753:3760  uint256 */\n      0x00\n        /* \"Verify.sol\":3780:3794  schools.length */\n      sload\n        /* \"Verify.sol\":3705:3802  function getSchoolsCount() public view returns (uint256) {\r... */\n    tag_95:\n      swap1\n      jump\t// out\n        /* \"Verify.sol\":757:1123  function stringToUint(string memory s)public pure returns (uint) {\r... */\n    tag_29:\n        /* \"Verify.sol\":816:820  uint */\n      0x00\n        /* \"Verify.sol\":856:857  s */\n      dup2\n        /* \"Verify.sol\":816:820  uint */\n      dup2\n      dup1\n        /* \"Verify.sol\":910:1094  for (i = 0; i < b.length; i++) {\r... */\n    tag_97:\n        /* \"Verify.sol\":926:927  b */\n      dup3\n        /* \"Verify.sol\":926:934  b.length */\n      mload\n        /* \"Verify.sol\":922:923  i */\n      dup3\n        /* \"Verify.sol\":922:934  i < b.length */\n      lt\n        /* \"Verify.sol\":910:1094  for (i = 0; i < b.length; i++) {\r... */\n      iszero\n      tag_98\n      jumpi\n        /* \"Verify.sol\":956:962  uint c */\n      0x00\n        /* \"Verify.sol\":976:977  b */\n      dup4\n        /* \"Verify.sol\":978:979  i */\n      dup4\n        /* \"Verify.sol\":976:980  b[i] */\n      dup2\n      mload\n      dup2\n      lt\n      tag_100\n      jumpi\n      invalid\n    tag_100:\n      add\n      0x20\n      add\n      mload\n      0xf8\n      shr\n      swap1\n      pop\n        /* \"Verify.sol\":1006:1008  48 */\n      0x30\n        /* \"Verify.sol\":1001:1008  c >= 48 */\n      dup2\n      lt\n      dup1\n      iszero\n      swap1\n        /* \"Verify.sol\":1001:1019  c >= 48 && c <= 57 */\n      tag_101\n      jumpi\n      pop\n        /* \"Verify.sol\":1017:1019  57 */\n      0x39\n        /* \"Verify.sol\":1012:1013  c */\n      dup2\n        /* \"Verify.sol\":1012:1019  c <= 57 */\n      gt\n      iszero\n        /* \"Verify.sol\":1001:1019  c >= 48 && c <= 57 */\n    tag_101:\n        /* \"Verify.sol\":997:1083  if (c >= 48 && c <= 57) {\r... */\n      iszero\n      tag_102\n      jumpi\n        /* \"Verify.sol\":1064:1066  48 */\n      0x30\n        /* \"Verify.sol\":1060:1061  c */\n      dup2\n        /* \"Verify.sol\":1060:1066  c - 48 */\n      sub\n        /* \"Verify.sol\":1047:1051  temp */\n      dup3\n        /* \"Verify.sol\":1054:1056  10 */\n      0x0a\n        /* \"Verify.sol\":1047:1056  temp * 10 */\n      mul\n        /* \"Verify.sol\":1047:1067  temp * 10 + (c - 48) */\n      add\n        /* \"Verify.sol\":1040:1067  temp = temp * 10 + (c - 48) */\n      swap2\n      pop\n        /* \"Verify.sol\":997:1083  if (c >= 48 && c <= 57) {\r... */\n    tag_102:\n      pop\n        /* \"Verify.sol\":936:939  i++ */\n      0x01\n      swap1\n      swap2\n      add\n      swap1\n        /* \"Verify.sol\":910:1094  for (i = 0; i < b.length; i++) {\r... */\n      jump(tag_97)\n    tag_98:\n        /* \"Verify.sol\":1111:1115  temp */\n      swap3\n      pop\n      pop\n      pop\n        /* \"Verify.sol\":757:1123  function stringToUint(string memory s)public pure returns (uint) {\r... */\n    tag_96:\n      swap2\n      swap1\n      pop\n      jump\t// out\n        /* \"Verify.sol\":2254:2643  function verifyIsSchool(address schoolAddr) public view returns (bool) {\r... */\n    tag_34:\n        /* \"Verify.sol\":2440:2454  ministryEntity */\n      sload(0x02)\n        /* \"Verify.sol\":2415:2488  entitySchool.columnValue(ministryEntity, \"schoolCertificate\", \"isSchool\") */\n      mload(0x40)\n      shl(0xe0, 0x8cba76b1)\n      dup2\n      mstore\n        /* \"Verify.sol\":2319:2323  bool */\n      0x00\n      swap2\n        /* \"Verify.sol\":2365:2375  schoolAddr */\n      dup4\n      swap2\n        /* \"Verify.sol\":2387:2412  string memory text_school */\n      0x60\n      swap2\n      sub(shl(0xa0, 0x01), 0x01)\n        /* \"Verify.sol\":2415:2439  entitySchool.columnValue */\n      dup1\n      dup6\n      and\n      swap3\n      0x8cba76b1\n      swap3\n        /* \"Verify.sol\":2415:2488  entitySchool.columnValue(ministryEntity, \"schoolCertificate\", \"isSchool\") */\n      tag_104\n      swap3\n        /* \"Verify.sol\":2440:2454  ministryEntity */\n      and\n      swap1\n        /* \"Verify.sol\":2415:2488  entitySchool.columnValue(ministryEntity, \"schoolCertificate\", \"isSchool\") */\n      0x04\n      add\n      jump(tag_105)\n    tag_104:\n      0x00\n      mload(0x40)\n      dup1\n      dup4\n      sub\n      dup2\n      dup7\n      dup1\n      extcodesize\n      iszero\n        /* \"--CODEGEN--\":5:14   */\n      dup1\n        /* \"--CODEGEN--\":2:4   */\n      iszero\n      tag_106\n      jumpi\n        /* \"--CODEGEN--\":27:28   */\n      0x00\n        /* \"--CODEGEN--\":24:25   */\n      dup1\n        /* \"--CODEGEN--\":17:29   */\n      revert\n        /* \"--CODEGEN--\":2:4   */\n    tag_106:\n        /* \"Verify.sol\":2415:2488  entitySchool.columnValue(ministryEntity, \"schoolCertificate\", \"isSchool\") */\n      pop\n      gas\n      staticcall\n      iszero\n        /* \"--CODEGEN--\":8:17   */\n      dup1\n        /* \"--CODEGEN--\":5:7   */\n      iszero\n      tag_108\n      jumpi\n        /* \"--CODEGEN--\":45:61   */\n      returndatasize\n        /* \"--CODEGEN--\":42:43   */\n      0x00\n        /* \"--CODEGEN--\":39:40   */\n      dup1\n        /* \"--CODEGEN--\":24:62   */\n      returndatacopy\n        /* \"--CODEGEN--\":77:93   */\n      returndatasize\n        /* \"--CODEGEN--\":74:75   */\n      0x00\n        /* \"--CODEGEN--\":67:94   */\n      revert\n        /* \"--CODEGEN--\":5:7   */\n    tag_108:\n        /* \"Verify.sol\":2415:2488  entitySchool.columnValue(ministryEntity, \"schoolCertificate\", \"isSchool\") */\n      pop\n      pop\n      pop\n      pop\n      mload(0x40)\n        /* \"--CODEGEN--\":39:55   */\n      returndatasize\n        /* \"--CODEGEN--\":36:37   */\n      0x00\n        /* \"--CODEGEN--\":17:34   */\n      dup3\n        /* \"--CODEGEN--\":2:56   */\n      returndatacopy\n        /* \"--CODEGEN--\":101:105   */\n      0x1f\n        /* \"Verify.sol\":2415:2488  entitySchool.columnValue(ministryEntity, \"schoolCertificate\", \"isSchool\") */\n      returndatasize\n        /* \"--CODEGEN--\":80:95   */\n      swap1\n      dup2\n      add\n      not(0x1f)\n        /* \"--CODEGEN--\":76:107   */\n      and\n        /* \"--CODEGEN--\":65:108   */\n      dup3\n      add\n        /* \"--CODEGEN--\":120:124   */\n      0x40\n        /* \"--CODEGEN--\":113:133   */\n      mstore\n        /* \"Verify.sol\":2415:2488  entitySchool.columnValue(ministryEntity, \"schoolCertificate\", \"isSchool\") */\n      tag_109\n      swap2\n      swap1\n      dup2\n      add\n      swap1\n      jump(tag_110)\n    tag_109:\n        /* \"Verify.sol\":2387:2488  string memory text_school = entitySchool.columnValue(ministryEntity, \"schoolCertificate\", \"isSchool\") */\n      swap1\n      pop\n        /* \"Verify.sol\":2557:2580  abi.encodePacked(\"Yes\") */\n      add(0x20, mload(0x40))\n      tag_111\n      swap1\n      jump(tag_112)\n    tag_111:\n      mload(0x40)\n        /* \"--CODEGEN--\":49:53   */\n      0x20\n        /* \"--CODEGEN--\":39:46   */\n      dup2\n        /* \"--CODEGEN--\":30:37   */\n      dup4\n        /* \"--CODEGEN--\":26:47   */\n      sub\n        /* \"--CODEGEN--\":22:54   */\n      sub\n        /* \"--CODEGEN--\":13:20   */\n      dup2\n        /* \"--CODEGEN--\":6:55   */\n      mstore\n        /* \"Verify.sol\":2557:2580  abi.encodePacked(\"Yes\") */\n      swap1\n      0x40\n      mstore\n        /* \"Verify.sol\":2547:2581  keccak256(abi.encodePacked(\"Yes\")) */\n      dup1\n      mload\n      swap1\n      0x20\n      add\n      keccak256\n        /* \"Verify.sol\":2530:2541  text_school */\n      dup2\n        /* \"Verify.sol\":2513:2542  abi.encodePacked(text_school) */\n      add(0x20, mload(0x40))\n      tag_113\n      swap2\n      swap1\n      jump(tag_114)\n    tag_113:\n      mload(0x40)\n        /* \"--CODEGEN--\":49:53   */\n      0x20\n        /* \"--CODEGEN--\":39:46   */\n      dup2\n        /* \"--CODEGEN--\":30:37   */\n      dup4\n        /* \"--CODEGEN--\":26:47   */\n      sub\n        /* \"--CODEGEN--\":22:54   */\n      sub\n        /* \"--CODEGEN--\":13:20   */\n      dup2\n        /* \"--CODEGEN--\":6:55   */\n      mstore\n        /* \"Verify.sol\":2513:2542  abi.encodePacked(text_school) */\n      swap1\n      0x40\n      mstore\n        /* \"Verify.sol\":2503:2543  keccak256(abi.encodePacked(text_school)) */\n      dup1\n      mload\n      swap1\n      0x20\n      add\n      keccak256\n        /* \"Verify.sol\":2503:2581  keccak256(abi.encodePacked(text_school)) == keccak256(abi.encodePacked(\"Yes\")) */\n      eq\n        /* \"Verify.sol\":2499:2635  if (keccak256(abi.encodePacked(text_school)) == keccak256(abi.encodePacked(\"Yes\")))\r... */\n      iszero\n      tag_115\n      jumpi\n        /* \"Verify.sol\":2603:2607  true */\n      0x01\n        /* \"Verify.sol\":2596:2607  return true */\n      swap3\n      pop\n      pop\n      pop\n      jump(tag_96)\n        /* \"Verify.sol\":2499:2635  if (keccak256(abi.encodePacked(text_school)) == keccak256(abi.encodePacked(\"Yes\")))\r... */\n    tag_115:\n        /* \"Verify.sol\":2630:2635  false */\n      0x00\n        /* \"Verify.sol\":2623:2635  return false */\n      swap3\n      pop\n      pop\n      pop\n      jump(tag_96)\n        /* \"Verify.sol\":536:610  mapping(address => mapping(address => Certificate)) public schoolOwnedCert */\n    tag_40:\n      0x04\n      0x20\n      swap1\n      dup2\n      mstore\n      0x00\n      swap3\n      dup4\n      mstore\n      0x40\n      dup1\n      dup5\n      keccak256\n      dup3\n      mstore\n      swap2\n      dup4\n      mstore\n      swap2\n      dup2\n      swap1\n      keccak256\n      dup1\n      sload\n      dup3\n      mload\n      0x1f\n      0x02\n      not(0x00)\n      0x0100\n      0x01\n      dup7\n      and\n      iszero\n      mul\n      add\n      swap1\n      swap4\n      and\n      swap3\n      swap1\n      swap3\n      div\n      swap2\n      dup3\n      add\n      dup6\n      swap1\n      div\n      dup6\n      mul\n      dup2\n      add\n      dup6\n      add\n      swap1\n      swap4\n      mstore\n      dup1\n      dup4\n      mstore\n      swap1\n      swap3\n      dup4\n      swap2\n      swap1\n      dup4\n      add\n      dup3\n      dup3\n      dup1\n      iszero\n      tag_117\n      jumpi\n      dup1\n      0x1f\n      lt\n      tag_118\n      jumpi\n      0x0100\n      dup1\n      dup4\n      sload\n      div\n      mul\n      dup4\n      mstore\n      swap2\n      0x20\n      add\n      swap2\n      jump(tag_117)\n    tag_118:\n      dup3\n      add\n      swap2\n      swap1\n      0x00\n      mstore\n      keccak256(0x00, 0x20)\n      swap1\n    tag_119:\n      dup2\n      sload\n      dup2\n      mstore\n      swap1\n      0x01\n      add\n      swap1\n      0x20\n      add\n      dup1\n      dup4\n      gt\n      tag_119\n      jumpi\n      dup3\n      swap1\n      sub\n      0x1f\n      and\n      dup3\n      add\n      swap2\n    tag_117:\n      pop\n      pop\n      pop\n      pop\n      0x01\n      dup4\n      dup2\n      add\n      sload\n      0x02\n      dup1\n      dup7\n      add\n      dup1\n      sload\n      0x40\n      dup1\n      mload\n      0x20\n      0x0100\n      swap8\n      dup5\n      and\n      iszero\n      swap8\n      swap1\n      swap8\n      mul\n      not(0x00)\n      add\n      swap1\n      swap3\n      and\n      swap4\n      swap1\n      swap4\n      div\n      0x1f\n      dup2\n      add\n      dup7\n      swap1\n      div\n      dup7\n      mul\n      dup3\n      add\n      dup7\n      add\n      swap1\n      swap4\n      mstore\n      dup3\n      dup2\n      mstore\n      swap6\n      swap7\n      sub(shl(0xa0, 0x01), 0x01)\n      swap1\n      swap4\n      and\n      swap6\n      swap3\n      swap5\n      pop\n      swap2\n      swap3\n      dup4\n      add\n      dup3\n      dup3\n      dup1\n      iszero\n      tag_120\n      jumpi\n      dup1\n      0x1f\n      lt\n      tag_121\n      jumpi\n      0x0100\n      dup1\n      dup4\n      sload\n      div\n      mul\n      dup4\n      mstore\n      swap2\n      0x20\n      add\n      swap2\n      jump(tag_120)\n    tag_121:\n      dup3\n      add\n      swap2\n      swap1\n      0x00\n      mstore\n      keccak256(0x00, 0x20)\n      swap1\n    tag_122:\n      dup2\n      sload\n      dup2\n      mstore\n      swap1\n      0x01\n      add\n      swap1\n      0x20\n      add\n      dup1\n      dup4\n      gt\n      tag_122\n      jumpi\n      dup3\n      swap1\n      sub\n      0x1f\n      and\n      dup3\n      add\n      swap2\n    tag_120:\n      pop\n      pop\n      pop\n      pop\n      0x03\n      dup4\n      add\n      dup1\n      sload\n      0x40\n      dup1\n      mload\n      0x20\n      0x02\n      0x01\n      dup6\n      and\n      iszero\n      0x0100\n      mul\n      not(0x00)\n      add\n      swap1\n      swap5\n      and\n      swap4\n      swap1\n      swap4\n      div\n      0x1f\n      dup2\n      add\n      dup5\n      swap1\n      div\n      dup5\n      mul\n      dup3\n      add\n      dup5\n      add\n      swap1\n      swap3\n      mstore\n      dup2\n      dup2\n      mstore\n      swap5\n      swap6\n      swap5\n      swap4\n      pop\n      swap1\n      dup4\n      add\n      dup3\n      dup3\n      dup1\n      iszero\n      tag_123\n      jumpi\n      dup1\n      0x1f\n      lt\n      tag_124\n      jumpi\n      0x0100\n      dup1\n      dup4\n      sload\n      div\n      mul\n      dup4\n      mstore\n      swap2\n      0x20\n      add\n      swap2\n      jump(tag_123)\n    tag_124:\n      dup3\n      add\n      swap2\n      swap1\n      0x00\n      mstore\n      keccak256(0x00, 0x20)\n      swap1\n    tag_125:\n      dup2\n      sload\n      dup2\n      mstore\n      swap1\n      0x01\n      add\n      swap1\n      0x20\n      add\n      dup1\n      dup4\n      gt\n      tag_125\n      jumpi\n      dup3\n      swap1\n      sub\n      0x1f\n      and\n      dup3\n      add\n      swap2\n    tag_123:\n      pop\n      pop\n      pop\n      pop\n      pop\n      swap1\n      pop\n      dup5\n      jump\t// out\n        /* \"Verify.sol\":3064:3403  function expired(address studentAddr, address schoolAddr) public view returns (bool) {\r... */\n    tag_45:\n        /* \"Verify.sol\":3238:3308  entityStudent.columnValue(schoolAddr, \"diploma\", \"CertificateEndDate\") */\n      mload(0x40)\n      shl(0xe0, 0x8cba76b1)\n      dup2\n      mstore\n        /* \"Verify.sol\":3143:3147  bool */\n      0x00\n      swap1\n        /* \"Verify.sol\":3190:3201  studentAddr */\n      dup4\n      swap1\n        /* \"Verify.sol\":3143:3147  bool */\n      dup3\n      swap1\n        /* \"Verify.sol\":3225:3309  stringToUint(entityStudent.columnValue(schoolAddr, \"diploma\", \"CertificateEndDate\")) */\n      tag_127\n      swap1\n      sub(shl(0xa0, 0x01), 0x01)\n        /* \"Verify.sol\":3238:3263  entityStudent.columnValue */\n      dup5\n      and\n      swap1\n      0x8cba76b1\n      swap1\n        /* \"Verify.sol\":3238:3308  entityStudent.columnValue(schoolAddr, \"diploma\", \"CertificateEndDate\") */\n      tag_128\n      swap1\n        /* \"Verify.sol\":3264:3274  schoolAddr */\n      dup9\n      swap1\n        /* \"Verify.sol\":3238:3308  entityStudent.columnValue(schoolAddr, \"diploma\", \"CertificateEndDate\") */\n      0x04\n      add\n      jump(tag_129)\n    tag_128:\n      0x00\n      mload(0x40)\n      dup1\n      dup4\n      sub\n      dup2\n      dup7\n      dup1\n      extcodesize\n      iszero\n        /* \"--CODEGEN--\":5:14   */\n      dup1\n        /* \"--CODEGEN--\":2:4   */\n      iszero\n      tag_130\n      jumpi\n        /* \"--CODEGEN--\":27:28   */\n      0x00\n        /* \"--CODEGEN--\":24:25   */\n      dup1\n        /* \"--CODEGEN--\":17:29   */\n      revert\n        /* \"--CODEGEN--\":2:4   */\n    tag_130:\n        /* \"Verify.sol\":3238:3308  entityStudent.columnValue(schoolAddr, \"diploma\", \"CertificateEndDate\") */\n      pop\n      gas\n      staticcall\n      iszero\n        /* \"--CODEGEN--\":8:17   */\n      dup1\n        /* \"--CODEGEN--\":5:7   */\n      iszero\n      tag_132\n      jumpi\n        /* \"--CODEGEN--\":45:61   */\n      returndatasize\n        /* \"--CODEGEN--\":42:43   */\n      0x00\n        /* \"--CODEGEN--\":39:40   */\n      dup1\n        /* \"--CODEGEN--\":24:62   */\n      returndatacopy\n        /* \"--CODEGEN--\":77:93   */\n      returndatasize\n        /* \"--CODEGEN--\":74:75   */\n      0x00\n        /* \"--CODEGEN--\":67:94   */\n      revert\n        /* \"--CODEGEN--\":5:7   */\n    tag_132:\n        /* \"Verify.sol\":3238:3308  entityStudent.columnValue(schoolAddr, \"diploma\", \"CertificateEndDate\") */\n      pop\n      pop\n      pop\n      pop\n      mload(0x40)\n        /* \"--CODEGEN--\":39:55   */\n      returndatasize\n        /* \"--CODEGEN--\":36:37   */\n      0x00\n        /* \"--CODEGEN--\":17:34   */\n      dup3\n        /* \"--CODEGEN--\":2:56   */\n      returndatacopy\n        /* \"--CODEGEN--\":101:105   */\n      0x1f\n        /* \"Verify.sol\":3238:3308  entityStudent.columnValue(schoolAddr, \"diploma\", \"CertificateEndDate\") */\n      returndatasize\n        /* \"--CODEGEN--\":80:95   */\n      swap1\n      dup2\n      add\n      not(0x1f)\n        /* \"--CODEGEN--\":76:107   */\n      and\n        /* \"--CODEGEN--\":65:108   */\n      dup3\n      add\n        /* \"--CODEGEN--\":120:124   */\n      0x40\n        /* \"--CODEGEN--\":113:133   */\n      mstore\n        /* \"Verify.sol\":3238:3308  entityStudent.columnValue(schoolAddr, \"diploma\", \"CertificateEndDate\") */\n      tag_27\n      swap2\n      swap1\n      dup2\n      add\n      swap1\n      jump(tag_110)\n        /* \"Verify.sol\":3225:3309  stringToUint(entityStudent.columnValue(schoolAddr, \"diploma\", \"CertificateEndDate\")) */\n    tag_127:\n        /* \"Verify.sol\":3213:3309  uint time = stringToUint(entityStudent.columnValue(schoolAddr, \"diploma\", \"CertificateEndDate\")) */\n      swap1\n      pop\n        /* \"Verify.sol\":3337:3341  time */\n      dup1\n        /* \"Verify.sol\":3324:3327  now */\n      timestamp\n        /* \"Verify.sol\":3330:3334  1000 */\n      0x03e8\n        /* \"Verify.sol\":3324:3334  now * 1000 */\n      mul\n        /* \"Verify.sol\":3324:3341  now * 1000 < time */\n      lt\n        /* \"Verify.sol\":3320:3395  if (now * 1000 < time)\r... */\n      iszero\n      tag_134\n      jumpi\n        /* \"Verify.sol\":3363:3367  true */\n      0x01\n        /* \"Verify.sol\":3356:3367  return true */\n      swap3\n      pop\n      pop\n      pop\n      jump(tag_126)\n        /* \"Verify.sol\":3320:3395  if (now * 1000 < time)\r... */\n    tag_134:\n        /* \"Verify.sol\":3390:3395  false */\n      0x00\n        /* \"Verify.sol\":3383:3395  return false */\n      swap3\n      pop\n      pop\n      pop\n        /* \"Verify.sol\":3064:3403  function expired(address studentAddr, address schoolAddr) public view returns (bool) {\r... */\n    tag_126:\n      swap3\n      swap2\n      pop\n      pop\n      jump\t// out\n        /* \"Verify.sol\":380:402  address public manager */\n    tag_48:\n      and(sub(shl(0xa0, 0x01), 0x01), sload(0x01))\n      dup2\n      jump\t// out\n        /* \"Verify.sol\":617:672  mapping(address => address[]) public schoolOwnedStudent */\n    tag_54:\n      mstore(0x20, 0x05)\n      dup2\n      0x00\n      mstore\n      keccak256(0x00, 0x40)\n      dup2\n      dup2\n      sload\n      dup2\n      lt\n      tag_136\n      jumpi\n      invalid\n    tag_136:\n      0x00\n      swap2\n      dup3\n      mstore\n      0x20\n      swap1\n      swap2\n      keccak256\n      add\n      sload\n      sub(shl(0xa0, 0x01), 0x01)\n      and\n      swap2\n      pop\n      dup3\n      swap1\n      pop\n      jump\t// out\n        /* \"Verify.sol\":1135:1376  function addNewSchool(address schoolAddr, string memory schoolName) public {\r... */\n    tag_59:\n        /* \"Verify.sol\":1221:1244  School memory newSchool */\n      tag_139\n      tag_140\n      jump\t// in\n    tag_139:\n      pop\n        /* \"Verify.sol\":1247:1334  School({\r... */\n      0x40\n      dup1\n      mload\n      dup1\n      dup3\n      add\n      swap1\n      swap2\n      mstore\n      dup2\n      dup2\n      mstore\n      sub(shl(0xa0, 0x01), 0x01)\n      dup4\n      and\n      0x20\n      dup1\n      dup4\n      add\n      swap2\n      swap1\n      swap2\n      mstore\n      0x00\n        /* \"--CODEGEN--\":27:37   */\n      dup1\n      sload\n        /* \"--CODEGEN--\":39:40   */\n      0x01\n        /* \"--CODEGEN--\":23:41   */\n      dup2\n      add\n        /* \"--CODEGEN--\":45:68   */\n      dup3\n      sstore\n        /* \"Verify.sol\":1345:1368  schools.push(newSchool) */\n      swap1\n      dup1\n      mstore\n      dup3\n      mload\n      dup1\n      mload\n        /* \"Verify.sol\":1247:1334  School({\r... */\n      dup5\n      swap4\n        /* \"Verify.sol\":1345:1368  schools.push(newSchool) */\n      0x02\n      swap1\n      swap4\n      mul\n      0x290decd9548b62a8d60345a988386fc84ba6bc95484008f6362f93160ef3e563\n      add\n      swap3\n      tag_142\n      swap3\n      dup5\n      swap3\n      swap2\n      add\n      swap1\n      tag_143\n      jump\t// in\n    tag_142:\n      pop\n      0x20\n      swap2\n      swap1\n      swap2\n      add\n      mload\n      0x01\n      swap1\n      swap2\n      add\n      dup1\n      sload\n      not(sub(shl(0xa0, 0x01), 0x01))\n      and\n      sub(shl(0xa0, 0x01), 0x01)\n      swap1\n      swap3\n      and\n      swap2\n      swap1\n      swap2\n      or\n      swap1\n      sstore\n      pop\n      pop\n      pop\n        /* \"Verify.sol\":1135:1376  function addNewSchool(address schoolAddr, string memory schoolName) public {\r... */\n      jump\t// out\n        /* \"Verify.sol\":1388:1852  function upload(string memory hashValue, address studentAddr, string memory studentName, string memory graduate) public {\r... */\n    tag_63:\n        /* \"Verify.sol\":1519:1545  Certificate memory newCert */\n      tag_145\n      tag_146\n      jump\t// in\n    tag_145:\n      pop\n        /* \"Verify.sol\":1548:1714  Certificate ({\r... */\n      0x40\n      dup1\n      mload\n      0x80\n      dup2\n      add\n      dup3\n      mstore\n      dup4\n      dup2\n      mstore\n      sub(shl(0xa0, 0x01), 0x01)\n      dup6\n      and\n      0x20\n      dup1\n      dup4\n      add\n      dup3\n      swap1\n      mstore\n      dup3\n      dup5\n      add\n      dup9\n      swap1\n      mstore\n      0x60\n      dup4\n      add\n      dup6\n      swap1\n      mstore\n        /* \"Verify.sol\":1754:1764  msg.sender */\n      caller\n      0x00\n        /* \"Verify.sol\":1735:1765  schoolOwnedStudent[msg.sender] */\n      dup2\n      dup2\n      mstore\n        /* \"Verify.sol\":1735:1753  schoolOwnedStudent */\n      0x05\n        /* \"Verify.sol\":1735:1765  schoolOwnedStudent[msg.sender] */\n      dup4\n      mstore\n      dup6\n      dup2\n      keccak256\n        /* \"--CODEGEN--\":27:37   */\n      dup1\n      sload\n        /* \"--CODEGEN--\":39:40   */\n      0x01\n        /* \"--CODEGEN--\":23:41   */\n      dup2\n      add\n        /* \"--CODEGEN--\":45:68   */\n      dup3\n      sstore\n        /* \"Verify.sol\":1735:1783  schoolOwnedStudent[msg.sender].push(studentAddr) */\n      swap1\n      dup3\n      mstore\n      dup4\n      dup3\n      keccak256\n      add\n      dup1\n      sload\n      not(sub(shl(0xa0, 0x01), 0x01))\n      and\n      dup6\n      or\n      swap1\n      sstore\n        /* \"Verify.sol\":1794:1821  schoolOwnedCert[msg.sender] */\n      swap1\n      dup2\n      mstore\n        /* \"Verify.sol\":1794:1809  schoolOwnedCert */\n      0x04\n        /* \"Verify.sol\":1794:1821  schoolOwnedCert[msg.sender] */\n      dup3\n      mstore\n      dup5\n      dup2\n      keccak256\n        /* \"Verify.sol\":1794:1834  schoolOwnedCert[msg.sender][studentAddr] */\n      swap3\n      dup2\n      mstore\n      swap2\n      dup2\n      mstore\n      swap3\n      swap1\n      keccak256\n        /* \"Verify.sol\":1794:1844  schoolOwnedCert[msg.sender][studentAddr] = newCert */\n      dup2\n      mload\n      dup1\n      mload\n        /* \"Verify.sol\":1548:1714  Certificate ({\r... */\n      swap3\n      swap4\n      dup5\n      swap4\n        /* \"Verify.sol\":1794:1844  schoolOwnedCert[msg.sender][studentAddr] = newCert */\n      tag_148\n      swap3\n        /* \"Verify.sol\":1794:1834  schoolOwnedCert[msg.sender][studentAddr] */\n      dup5\n      swap3\n        /* \"Verify.sol\":1794:1844  schoolOwnedCert[msg.sender][studentAddr] = newCert */\n      add\n      swap1\n      tag_143\n      jump\t// in\n    tag_148:\n      pop\n      0x20\n      dup3\n      dup2\n      add\n      mload\n      0x01\n      dup4\n      add\n      dup1\n      sload\n      not(sub(shl(0xa0, 0x01), 0x01))\n      and\n      sub(shl(0xa0, 0x01), 0x01)\n      swap1\n      swap3\n      and\n      swap2\n      swap1\n      swap2\n      or\n      swap1\n      sstore\n      0x40\n      dup4\n      add\n      mload\n      dup1\n      mload\n      tag_149\n      swap3\n      0x02\n      dup6\n      add\n      swap3\n      add\n      swap1\n      tag_143\n      jump\t// in\n    tag_149:\n      pop\n      0x60\n      dup3\n      add\n      mload\n      dup1\n      mload\n      tag_150\n      swap2\n      0x03\n      dup5\n      add\n      swap2\n      0x20\n      swap1\n      swap2\n      add\n      swap1\n      tag_143\n      jump\t// in\n    tag_150:\n      pop\n      pop\n      pop\n      pop\n      pop\n      pop\n      pop\n      pop\n        /* \"Verify.sol\":1388:1852  function upload(string memory hashValue, address studentAddr, string memory studentName, string memory graduate) public {\r... */\n      jump\t// out\n        /* \"Verify.sol\":2651:3052  function existence(address studentAddr, address schoolAddr) public view returns (bool) {\r... */\n    tag_66:\n        /* \"Verify.sol\":2832:2895  entityStudent.columnValue(schoolAddr, \"diploma\", \"isGraduated\") */\n      mload(0x40)\n      shl(0xe0, 0x8cba76b1)\n      dup2\n      mstore\n        /* \"Verify.sol\":2732:2736  bool */\n      0x00\n      swap1\n        /* \"Verify.sol\":2779:2790  studentAddr */\n      dup4\n      swap1\n        /* \"Verify.sol\":2802:2829  string memory text_graduate */\n      0x60\n      swap1\n      sub(shl(0xa0, 0x01), 0x01)\n        /* \"Verify.sol\":2832:2857  entityStudent.columnValue */\n      dup4\n      and\n      swap1\n      0x8cba76b1\n      swap1\n        /* \"Verify.sol\":2832:2895  entityStudent.columnValue(schoolAddr, \"diploma\", \"isGraduated\") */\n      tag_152\n      swap1\n        /* \"Verify.sol\":2858:2868  schoolAddr */\n      dup8\n      swap1\n        /* \"Verify.sol\":2832:2895  entityStudent.columnValue(schoolAddr, \"diploma\", \"isGraduated\") */\n      0x04\n      add\n      jump(tag_153)\n    tag_152:\n      0x00\n      mload(0x40)\n      dup1\n      dup4\n      sub\n      dup2\n      dup7\n      dup1\n      extcodesize\n      iszero\n        /* \"--CODEGEN--\":5:14   */\n      dup1\n        /* \"--CODEGEN--\":2:4   */\n      iszero\n      tag_154\n      jumpi\n        /* \"--CODEGEN--\":27:28   */\n      0x00\n        /* \"--CODEGEN--\":24:25   */\n      dup1\n        /* \"--CODEGEN--\":17:29   */\n      revert\n        /* \"--CODEGEN--\":2:4   */\n    tag_154:\n        /* \"Verify.sol\":2832:2895  entityStudent.columnValue(schoolAddr, \"diploma\", \"isGraduated\") */\n      pop\n      gas\n      staticcall\n      iszero\n        /* \"--CODEGEN--\":8:17   */\n      dup1\n        /* \"--CODEGEN--\":5:7   */\n      iszero\n      tag_156\n      jumpi\n        /* \"--CODEGEN--\":45:61   */\n      returndatasize\n        /* \"--CODEGEN--\":42:43   */\n      0x00\n        /* \"--CODEGEN--\":39:40   */\n      dup1\n        /* \"--CODEGEN--\":24:62   */\n      returndatacopy\n        /* \"--CODEGEN--\":77:93   */\n      returndatasize\n        /* \"--CODEGEN--\":74:75   */\n      0x00\n        /* \"--CODEGEN--\":67:94   */\n      revert\n        /* \"--CODEGEN--\":5:7   */\n    tag_156:\n        /* \"Verify.sol\":2832:2895  entityStudent.columnValue(schoolAddr, \"diploma\", \"isGraduated\") */\n      pop\n      pop\n      pop\n      pop\n      mload(0x40)\n        /* \"--CODEGEN--\":39:55   */\n      returndatasize\n        /* \"--CODEGEN--\":36:37   */\n      0x00\n        /* \"--CODEGEN--\":17:34   */\n      dup3\n        /* \"--CODEGEN--\":2:56   */\n      returndatacopy\n        /* \"--CODEGEN--\":101:105   */\n      0x1f\n        /* \"Verify.sol\":2832:2895  entityStudent.columnValue(schoolAddr, \"diploma\", \"isGraduated\") */\n      returndatasize\n        /* \"--CODEGEN--\":80:95   */\n      swap1\n      dup2\n      add\n      not(0x1f)\n        /* \"--CODEGEN--\":76:107   */\n      and\n        /* \"--CODEGEN--\":65:108   */\n      dup3\n      add\n        /* \"--CODEGEN--\":120:124   */\n      0x40\n        /* \"--CODEGEN--\":113:133   */\n      mstore\n        /* \"Verify.sol\":2832:2895  entityStudent.columnValue(schoolAddr, \"diploma\", \"isGraduated\") */\n      tag_157\n      swap2\n      swap1\n      dup2\n      add\n      swap1\n      jump(tag_110)\n    tag_157:\n        /* \"Verify.sol\":2802:2895  string memory text_graduate = entityStudent.columnValue(schoolAddr, \"diploma\", \"isGraduated\") */\n      swap1\n      pop\n        /* \"Verify.sol\":2966:2989  abi.encodePacked(\"Yes\") */\n      add(0x20, mload(0x40))\n      tag_158\n      swap1\n      jump(tag_112)\n    tag_158:\n      mload(0x40)\n        /* \"--CODEGEN--\":49:53   */\n      0x20\n        /* \"--CODEGEN--\":39:46   */\n      dup2\n        /* \"--CODEGEN--\":30:37   */\n      dup4\n        /* \"--CODEGEN--\":26:47   */\n      sub\n        /* \"--CODEGEN--\":22:54   */\n      sub\n        /* \"--CODEGEN--\":13:20   */\n      dup2\n        /* \"--CODEGEN--\":6:55   */\n      mstore\n        /* \"Verify.sol\":2966:2989  abi.encodePacked(\"Yes\") */\n      swap1\n      0x40\n      mstore\n        /* \"Verify.sol\":2956:2990  keccak256(abi.encodePacked(\"Yes\")) */\n      dup1\n      mload\n      swap1\n      0x20\n      add\n      keccak256\n        /* \"Verify.sol\":2937:2950  text_graduate */\n      dup2\n        /* \"Verify.sol\":2920:2951  abi.encodePacked(text_graduate) */\n      add(0x20, mload(0x40))\n      tag_159\n      swap2\n      swap1\n      jump(tag_114)\n    tag_159:\n      mload(0x40)\n        /* \"--CODEGEN--\":49:53   */\n      0x20\n        /* \"--CODEGEN--\":39:46   */\n      dup2\n        /* \"--CODEGEN--\":30:37   */\n      dup4\n        /* \"--CODEGEN--\":26:47   */\n      sub\n        /* \"--CODEGEN--\":22:54   */\n      sub\n        /* \"--CODEGEN--\":13:20   */\n      dup2\n        /* \"--CODEGEN--\":6:55   */\n      mstore\n        /* \"Verify.sol\":2920:2951  abi.encodePacked(text_graduate) */\n      swap1\n      0x40\n      mstore\n        /* \"Verify.sol\":2910:2952  keccak256(abi.encodePacked(text_graduate)) */\n      dup1\n      mload\n      swap1\n      0x20\n      add\n      keccak256\n        /* \"Verify.sol\":2910:2990  keccak256(abi.encodePacked(text_graduate)) == keccak256(abi.encodePacked(\"Yes\")) */\n      eq\n        /* \"Verify.sol\":2906:3044  if (keccak256(abi.encodePacked(text_graduate)) == keccak256(abi.encodePacked(\"Yes\")))\r... */\n      iszero\n      tag_134\n      jumpi\n        /* \"Verify.sol\":3012:3016  true */\n      0x01\n        /* \"Verify.sol\":3005:3016  return true */\n      swap3\n      pop\n      pop\n      pop\n      jump(tag_126)\n        /* \"Verify.sol\":350:373  School[] public schools */\n    tag_71:\n      0x00\n      dup2\n      dup2\n      sload\n      dup2\n      lt\n      tag_162\n      jumpi\n      invalid\n    tag_162:\n      0x00\n      swap2\n      dup3\n      mstore\n      0x20\n      swap2\n      dup3\n      swap1\n      keccak256\n      0x02\n      swap2\n      dup3\n      mul\n      add\n      dup1\n      sload\n      0x40\n      dup1\n      mload\n      0x01\n      dup4\n      and\n      iszero\n      0x0100\n      mul\n      not(0x00)\n      add\n      swap1\n      swap3\n      and\n      swap4\n      swap1\n      swap4\n      div\n      0x1f\n      dup2\n      add\n      dup6\n      swap1\n      div\n      dup6\n      mul\n      dup3\n      add\n      dup6\n      add\n      swap1\n      swap4\n      mstore\n      dup3\n      dup2\n      mstore\n      swap1\n      swap4\n      pop\n      swap2\n      dup4\n      swap2\n      swap1\n      dup4\n      add\n      dup3\n      dup3\n      dup1\n      iszero\n      tag_164\n      jumpi\n      dup1\n      0x1f\n      lt\n      tag_165\n      jumpi\n      0x0100\n      dup1\n      dup4\n      sload\n      div\n      mul\n      dup4\n      mstore\n      swap2\n      0x20\n      add\n      swap2\n      jump(tag_164)\n    tag_165:\n      dup3\n      add\n      swap2\n      swap1\n      0x00\n      mstore\n      keccak256(0x00, 0x20)\n      swap1\n    tag_166:\n      dup2\n      sload\n      dup2\n      mstore\n      swap1\n      0x01\n      add\n      swap1\n      0x20\n      add\n      dup1\n      dup4\n      gt\n      tag_166\n      jumpi\n      dup3\n      swap1\n      sub\n      0x1f\n      and\n      dup3\n      add\n      swap2\n    tag_164:\n      pop\n      pop\n      pop\n      0x01\n      swap1\n      swap4\n      add\n      sload\n      swap2\n      swap3\n      pop\n      pop\n      sub(shl(0xa0, 0x01), 0x01)\n      and\n      dup3\n      jump\t// out\n        /* \"Verify.sol\":3957:4088  function getStudentList(address sender) public view returns (address[] memory) {\r... */\n    tag_76:\n      sub(shl(0xa0, 0x01), 0x01)\n        /* \"Verify.sol\":4054:4080  schoolOwnedStudent[sender] */\n      dup2\n      and\n      0x00\n      swap1\n      dup2\n      mstore\n        /* \"Verify.sol\":4054:4072  schoolOwnedStudent */\n      0x05\n        /* \"Verify.sol\":4054:4080  schoolOwnedStudent[sender] */\n      0x20\n      swap1\n      dup2\n      mstore\n      0x40\n      swap2\n      dup3\n      swap1\n      keccak256\n        /* \"Verify.sol\":4047:4080  return schoolOwnedStudent[sender] */\n      dup1\n      sload\n      dup4\n      mload\n      dup2\n      dup5\n      mul\n      dup2\n      add\n      dup5\n      add\n      swap1\n      swap5\n      mstore\n      dup1\n      dup5\n      mstore\n        /* \"Verify.sol\":4018:4034  address[] memory */\n      0x60\n      swap4\n        /* \"Verify.sol\":4047:4080  return schoolOwnedStudent[sender] */\n      swap3\n      dup4\n      add\n        /* \"Verify.sol\":4054:4080  schoolOwnedStudent[sender] */\n      dup3\n        /* \"Verify.sol\":4047:4080  return schoolOwnedStudent[sender] */\n      dup3\n      dup1\n      iszero\n      tag_168\n      jumpi\n      0x20\n      mul\n      dup3\n      add\n      swap2\n      swap1\n      0x00\n      mstore\n      keccak256(0x00, 0x20)\n      swap1\n    tag_169:\n      dup2\n      sload\n      sub(shl(0xa0, 0x01), 0x01)\n      and\n      dup2\n      mstore\n      0x01\n      swap1\n      swap2\n      add\n      swap1\n      0x20\n      add\n      dup1\n      dup4\n      gt\n      tag_169\n      jumpi\n    tag_168:\n      pop\n      pop\n      pop\n      pop\n      pop\n      swap1\n      pop\n        /* \"Verify.sol\":3957:4088  function getStudentList(address sender) public view returns (address[] memory) {\r... */\n      swap2\n      swap1\n      pop\n      jump\t// out\n        /* \"Verify.sol\":3415:3693  function getIPFS(address studentAddr, address schoolAddr) public view returns (string memory){\r... */\n    tag_81:\n        /* \"Verify.sol\":3598:3658  entityStudent.columnValue(schoolAddr, \"diploma\", \"IPFShash\") */\n      mload(0x40)\n      shl(0xe0, 0x8cba76b1)\n      dup2\n      mstore\n        /* \"Verify.sol\":3494:3507  string memory */\n      0x60\n      swap1\n        /* \"Verify.sol\":3549:3560  studentAddr */\n      dup4\n      swap1\n        /* \"Verify.sol\":3494:3507  string memory */\n      dup3\n      swap1\n      sub(shl(0xa0, 0x01), 0x01)\n        /* \"Verify.sol\":3598:3623  entityStudent.columnValue */\n      dup4\n      and\n      swap1\n      0x8cba76b1\n      swap1\n        /* \"Verify.sol\":3598:3658  entityStudent.columnValue(schoolAddr, \"diploma\", \"IPFShash\") */\n      tag_171\n      swap1\n        /* \"Verify.sol\":3624:3634  schoolAddr */\n      dup8\n      swap1\n        /* \"Verify.sol\":3598:3658  entityStudent.columnValue(schoolAddr, \"diploma\", \"IPFShash\") */\n      0x04\n      add\n      jump(tag_172)\n    tag_171:\n      0x00\n      mload(0x40)\n      dup1\n      dup4\n      sub\n      dup2\n      dup7\n      dup1\n      extcodesize\n      iszero\n        /* \"--CODEGEN--\":5:14   */\n      dup1\n        /* \"--CODEGEN--\":2:4   */\n      iszero\n      tag_173\n      jumpi\n        /* \"--CODEGEN--\":27:28   */\n      0x00\n        /* \"--CODEGEN--\":24:25   */\n      dup1\n        /* \"--CODEGEN--\":17:29   */\n      revert\n        /* \"--CODEGEN--\":2:4   */\n    tag_173:\n        /* \"Verify.sol\":3598:3658  entityStudent.columnValue(schoolAddr, \"diploma\", \"IPFShash\") */\n      pop\n      gas\n      staticcall\n      iszero\n        /* \"--CODEGEN--\":8:17   */\n      dup1\n        /* \"--CODEGEN--\":5:7   */\n      iszero\n      tag_175\n      jumpi\n        /* \"--CODEGEN--\":45:61   */\n      returndatasize\n        /* \"--CODEGEN--\":42:43   */\n      0x00\n        /* \"--CODEGEN--\":39:40   */\n      dup1\n        /* \"--CODEGEN--\":24:62   */\n      returndatacopy\n        /* \"--CODEGEN--\":77:93   */\n      returndatasize\n        /* \"--CODEGEN--\":74:75   */\n      0x00\n        /* \"--CODEGEN--\":67:94   */\n      revert\n        /* \"--CODEGEN--\":5:7   */\n    tag_175:\n        /* \"Verify.sol\":3598:3658  entityStudent.columnValue(schoolAddr, \"diploma\", \"IPFShash\") */\n      pop\n      pop\n      pop\n      pop\n      mload(0x40)\n        /* \"--CODEGEN--\":39:55   */\n      returndatasize\n        /* \"--CODEGEN--\":36:37   */\n      0x00\n        /* \"--CODEGEN--\":17:34   */\n      dup3\n        /* \"--CODEGEN--\":2:56   */\n      returndatacopy\n        /* \"--CODEGEN--\":101:105   */\n      0x1f\n        /* \"Verify.sol\":3598:3658  entityStudent.columnValue(schoolAddr, \"diploma\", \"IPFShash\") */\n      returndatasize\n        /* \"--CODEGEN--\":80:95   */\n      swap1\n      dup2\n      add\n      not(0x1f)\n        /* \"--CODEGEN--\":76:107   */\n      and\n        /* \"--CODEGEN--\":65:108   */\n      dup3\n      add\n        /* \"--CODEGEN--\":120:124   */\n      0x40\n        /* \"--CODEGEN--\":113:133   */\n      mstore\n        /* \"Verify.sol\":3598:3658  entityStudent.columnValue(schoolAddr, \"diploma\", \"IPFShash\") */\n      tag_176\n      swap2\n      swap1\n      dup2\n      add\n      swap1\n      jump(tag_110)\n    tag_176:\n        /* \"Verify.sol\":3572:3658  string memory text_IPFS = entityStudent.columnValue(schoolAddr, \"diploma\", \"IPFShash\") */\n      swap6\n        /* \"Verify.sol\":3415:3693  function getIPFS(address studentAddr, address schoolAddr) public view returns (string memory){\r... */\n      swap5\n      pop\n      pop\n      pop\n      pop\n      pop\n      jump\t// out\n        /* \"Verify.sol\":3814:3945  function getDeployedCerts(address sender) public view returns (uint256) {\r... */\n    tag_86:\n      sub(shl(0xa0, 0x01), 0x01)\n        /* \"Verify.sol\":3904:3930  schoolOwnedStudent[sender] */\n      and\n        /* \"Verify.sol\":3877:3884  uint256 */\n      0x00\n        /* \"Verify.sol\":3904:3930  schoolOwnedStudent[sender] */\n      swap1\n      dup2\n      mstore\n        /* \"Verify.sol\":3904:3922  schoolOwnedStudent */\n      0x05\n        /* \"Verify.sol\":3904:3930  schoolOwnedStudent[sender] */\n      0x20\n      mstore\n      0x40\n      swap1\n      keccak256\n        /* \"Verify.sol\":3904:3937  schoolOwnedStudent[sender].length */\n      sload\n      swap1\n        /* \"Verify.sol\":3814:3945  function getDeployedCerts(address sender) public view returns (uint256) {\r... */\n      jump\t// out\n        /* \"Verify.sol\":1864:2242  function ministryLogin(address ministryAddr) public view returns (bool) {\r... */\n    tag_90:\n        /* \"Verify.sol\":2050:2064  ministryEntity */\n      sload(0x02)\n        /* \"Verify.sol\":2023:2094  entityMinistry.columnValue(ministryEntity, \"certificate\", \"isMinistry\") */\n      mload(0x40)\n      shl(0xe0, 0x8cba76b1)\n      dup2\n      mstore\n        /* \"Verify.sol\":1930:1934  bool */\n      0x00\n      swap2\n        /* \"Verify.sol\":1978:1990  ministryAddr */\n      dup4\n      swap2\n        /* \"Verify.sol\":2002:2020  string memory text */\n      0x60\n      swap2\n      sub(shl(0xa0, 0x01), 0x01)\n        /* \"Verify.sol\":2023:2049  entityMinistry.columnValue */\n      dup1\n      dup6\n      and\n      swap3\n      0x8cba76b1\n      swap3\n        /* \"Verify.sol\":2023:2094  entityMinistry.columnValue(ministryEntity, \"certificate\", \"isMinistry\") */\n      tag_104\n      swap3\n        /* \"Verify.sol\":2050:2064  ministryEntity */\n      and\n      swap1\n        /* \"Verify.sol\":2023:2094  entityMinistry.columnValue(ministryEntity, \"certificate\", \"isMinistry\") */\n      0x04\n      add\n      jump(tag_180)\n        /* \"Verify.sol\":409:483  address public ministryEntity = 0x0dE304Ff69D56b15b6d47A7B985D3B620f2171DC */\n    tag_93:\n      and(sub(shl(0xa0, 0x01), 0x01), sload(0x02))\n      dup2\n      jump\t// out\n        /* \"Verify.sol\":96:4091  contract Verify {\r... */\n    tag_140:\n      0x40\n      dup1\n      mload\n      dup1\n      dup3\n      add\n      swap1\n      swap2\n      mstore\n      0x60\n      dup2\n      mstore\n      0x00\n      0x20\n      dup3\n      add\n      mstore\n      swap1\n      jump\t// out\n    tag_143:\n      dup3\n      dup1\n      sload\n      0x01\n      dup2\n      0x01\n      and\n      iszero\n      0x0100\n      mul\n      sub\n      and\n      0x02\n      swap1\n      div\n      swap1\n      0x00\n      mstore\n      keccak256(0x00, 0x20)\n      swap1\n      0x1f\n      add\n      0x20\n      swap1\n      div\n      dup2\n      add\n      swap3\n      dup3\n      0x1f\n      lt\n      tag_190\n      jumpi\n      dup1\n      mload\n      not(0xff)\n      and\n      dup4\n      dup1\n      add\n      or\n      dup6\n      sstore\n      jump(tag_192)\n    tag_190:\n      dup3\n      dup1\n      add\n      0x01\n      add\n      dup6\n      sstore\n      dup3\n      iszero\n      tag_192\n      jumpi\n      swap2\n      dup3\n      add\n    tag_191:\n      dup3\n      dup2\n      gt\n      iszero\n      tag_192\n      jumpi\n      dup3\n      mload\n      dup3\n      sstore\n      swap2\n      0x20\n      add\n      swap2\n      swap1\n      0x01\n      add\n      swap1\n      jump(tag_191)\n    tag_192:\n      pop\n      tag_193\n      swap3\n      swap2\n      pop\n      tag_194\n      jump\t// in\n    tag_193:\n      pop\n      swap1\n      jump\t// out\n    tag_146:\n      mload(0x40)\n      dup1\n      0x80\n      add\n      0x40\n      mstore\n      dup1\n      0x60\n      dup2\n      mstore\n      0x20\n      add\n      and(sub(shl(0xa0, 0x01), 0x01), 0x00)\n      dup2\n      mstore\n      0x20\n      add\n      0x60\n      dup2\n      mstore\n      0x20\n      add\n      0x60\n      dup2\n      mstore\n      pop\n      swap1\n      jump\t// out\n    tag_194:\n      tag_95\n      swap2\n      swap1\n    tag_196:\n      dup1\n      dup3\n      gt\n      iszero\n      tag_193\n      jumpi\n      0x00\n      dup2\n      sstore\n      0x01\n      add\n      jump(tag_196)\n        /* \"--CODEGEN--\":5:135   */\n    tag_199:\n        /* \"--CODEGEN--\":72:92   */\n      dup1\n      calldataload\n      sub(shl(0xa0, 0x01), 0x01)\n        /* \"--CODEGEN--\":18833:18887   */\n      dup2\n      and\n        /* \"--CODEGEN--\":19573:19608   */\n      dup2\n      eq\n        /* \"--CODEGEN--\":19563:19565   */\n      tag_126\n      jumpi\n        /* \"--CODEGEN--\":19622:19623   */\n      0x00\n      dup1\n        /* \"--CODEGEN--\":19612:19624   */\n      revert\n        /* \"--CODEGEN--\":143:585   */\n    tag_202:\n      0x00\n        /* \"--CODEGEN--\":245:248   */\n      dup3\n        /* \"--CODEGEN--\":238:242   */\n      0x1f\n        /* \"--CODEGEN--\":230:236   */\n      dup4\n        /* \"--CODEGEN--\":226:243   */\n      add\n        /* \"--CODEGEN--\":222:249   */\n      slt\n        /* \"--CODEGEN--\":212:214   */\n      tag_204\n      jumpi\n      dup1\n      dup2\n        /* \"--CODEGEN--\":253:265   */\n      revert\n        /* \"--CODEGEN--\":212:214   */\n    tag_204:\n        /* \"--CODEGEN--\":300:306   */\n      dup2\n        /* \"--CODEGEN--\":287:307   */\n      calldataload\n        /* \"--CODEGEN--\":322:387   */\n      tag_205\n        /* \"--CODEGEN--\":337:386   */\n      tag_206\n        /* \"--CODEGEN--\":379:385   */\n      dup3\n        /* \"--CODEGEN--\":337:386   */\n      jump(tag_207)\n    tag_206:\n        /* \"--CODEGEN--\":322:387   */\n      jump(tag_208)\n    tag_205:\n        /* \"--CODEGEN--\":313:387   */\n      swap2\n      pop\n        /* \"--CODEGEN--\":407:413   */\n      dup1\n        /* \"--CODEGEN--\":400:405   */\n      dup3\n        /* \"--CODEGEN--\":393:414   */\n      mstore\n        /* \"--CODEGEN--\":511:514   */\n      dup4\n        /* \"--CODEGEN--\":443:447   */\n      0x20\n        /* \"--CODEGEN--\":502:508   */\n      dup3\n        /* \"--CODEGEN--\":435:441   */\n      dup6\n        /* \"--CODEGEN--\":493:509   */\n      add\n      add\n        /* \"--CODEGEN--\":490:515   */\n      gt\n        /* \"--CODEGEN--\":487:489   */\n      iszero\n      tag_209\n      jumpi\n        /* \"--CODEGEN--\":528:529   */\n      0x00\n      dup1\n        /* \"--CODEGEN--\":518:530   */\n      revert\n        /* \"--CODEGEN--\":487:489   */\n    tag_209:\n        /* \"--CODEGEN--\":19060:19066   */\n      dup1\n        /* \"--CODEGEN--\":443:447   */\n      0x20\n        /* \"--CODEGEN--\":435:441   */\n      dup5\n        /* \"--CODEGEN--\":431:448   */\n      add\n        /* \"--CODEGEN--\":443:447   */\n      0x20\n        /* \"--CODEGEN--\":469:474   */\n      dup5\n        /* \"--CODEGEN--\":465:481   */\n      add\n        /* \"--CODEGEN--\":19037:19067   */\n      calldatacopy\n        /* \"--CODEGEN--\":19116:19117   */\n      0x00\n        /* \"--CODEGEN--\":19098:19114   */\n      swap1\n      dup3\n      add\n        /* \"--CODEGEN--\":443:447   */\n      0x20\n        /* \"--CODEGEN--\":19098:19114   */\n      add\n        /* \"--CODEGEN--\":19091:19118   */\n      mstore\n        /* \"--CODEGEN--\":469:474   */\n      swap3\n        /* \"--CODEGEN--\":205:585   */\n      swap2\n      pop\n      pop\n      jump\n        /* \"--CODEGEN--\":1183:1424   */\n    tag_33:\n      0x00\n        /* \"--CODEGEN--\":1287:1289   */\n      0x20\n        /* \"--CODEGEN--\":1275:1284   */\n      dup3\n        /* \"--CODEGEN--\":1266:1273   */\n      dup5\n        /* \"--CODEGEN--\":1262:1285   */\n      sub\n        /* \"--CODEGEN--\":1258:1290   */\n      slt\n        /* \"--CODEGEN--\":1255:1257   */\n      iszero\n      tag_211\n      jumpi\n      dup1\n      dup2\n        /* \"--CODEGEN--\":1293:1305   */\n      revert\n        /* \"--CODEGEN--\":1255:1257   */\n    tag_211:\n        /* \"--CODEGEN--\":1355:1408   */\n      tag_212\n        /* \"--CODEGEN--\":1400:1407   */\n      dup4\n        /* \"--CODEGEN--\":1376:1398   */\n      dup4\n        /* \"--CODEGEN--\":1355:1408   */\n      jump(tag_199)\n    tag_212:\n        /* \"--CODEGEN--\":1345:1408   */\n      swap4\n        /* \"--CODEGEN--\":1249:1424   */\n      swap3\n      pop\n      pop\n      pop\n      jump\n        /* \"--CODEGEN--\":1431:1797   */\n    tag_39:\n      0x00\n      dup1\n        /* \"--CODEGEN--\":1552:1554   */\n      0x40\n        /* \"--CODEGEN--\":1540:1549   */\n      dup4\n        /* \"--CODEGEN--\":1531:1538   */\n      dup6\n        /* \"--CODEGEN--\":1527:1550   */\n      sub\n        /* \"--CODEGEN--\":1523:1555   */\n      slt\n        /* \"--CODEGEN--\":1520:1522   */\n      iszero\n      tag_214\n      jumpi\n      dup1\n      dup2\n        /* \"--CODEGEN--\":1558:1570   */\n      revert\n        /* \"--CODEGEN--\":1520:1522   */\n    tag_214:\n        /* \"--CODEGEN--\":1620:1673   */\n      tag_215\n        /* \"--CODEGEN--\":1665:1672   */\n      dup5\n        /* \"--CODEGEN--\":1641:1663   */\n      dup5\n        /* \"--CODEGEN--\":1620:1673   */\n      jump(tag_199)\n    tag_215:\n        /* \"--CODEGEN--\":1610:1673   */\n      swap2\n      pop\n        /* \"--CODEGEN--\":1728:1781   */\n      tag_216\n        /* \"--CODEGEN--\":1773:1780   */\n      dup5\n        /* \"--CODEGEN--\":1710:1712   */\n      0x20\n        /* \"--CODEGEN--\":1753:1762   */\n      dup6\n        /* \"--CODEGEN--\":1749:1771   */\n      add\n        /* \"--CODEGEN--\":1728:1781   */\n      jump(tag_199)\n    tag_216:\n        /* \"--CODEGEN--\":1718:1781   */\n      swap1\n      pop\n        /* \"--CODEGEN--\":1514:1797   */\n      swap3\n      pop\n      swap3\n      swap1\n      pop\n      jump\n        /* \"--CODEGEN--\":1804:2276   */\n    tag_58:\n      0x00\n      dup1\n        /* \"--CODEGEN--\":1935:1937   */\n      0x40\n        /* \"--CODEGEN--\":1923:1932   */\n      dup4\n        /* \"--CODEGEN--\":1914:1921   */\n      dup6\n        /* \"--CODEGEN--\":1910:1933   */\n      sub\n        /* \"--CODEGEN--\":1906:1938   */\n      slt\n        /* \"--CODEGEN--\":1903:1905   */\n      iszero\n      tag_218\n      jumpi\n      dup2\n      dup3\n        /* \"--CODEGEN--\":1941:1953   */\n      revert\n        /* \"--CODEGEN--\":1903:1905   */\n    tag_218:\n        /* \"--CODEGEN--\":72:92   */\n      dup3\n      calldataload\n      sub(shl(0xa0, 0x01), 0x01)\n        /* \"--CODEGEN--\":18833:18887   */\n      dup2\n      and\n        /* \"--CODEGEN--\":19573:19608   */\n      dup2\n      eq\n        /* \"--CODEGEN--\":19563:19565   */\n      tag_219\n      jumpi\n      dup3\n      dup4\n        /* \"--CODEGEN--\":19612:19624   */\n      revert\n        /* \"--CODEGEN--\":19563:19565   */\n    tag_219:\n        /* \"--CODEGEN--\":1993:2056   */\n      swap2\n      pop\n        /* \"--CODEGEN--\":2121:2123   */\n      0x20\n        /* \"--CODEGEN--\":2106:2124   */\n      dup4\n      add\n        /* \"--CODEGEN--\":2093:2125   */\n      calldataload\n        /* \"--CODEGEN--\":2145:2163   */\n      0xffffffffffffffff\n        /* \"--CODEGEN--\":2134:2164   */\n      dup2\n      gt\n        /* \"--CODEGEN--\":2131:2133   */\n      iszero\n      tag_220\n      jumpi\n      dup2\n      dup3\n        /* \"--CODEGEN--\":2167:2179   */\n      revert\n        /* \"--CODEGEN--\":2131:2133   */\n    tag_220:\n        /* \"--CODEGEN--\":2197:2260   */\n      tag_221\n        /* \"--CODEGEN--\":2252:2259   */\n      dup6\n        /* \"--CODEGEN--\":2243:2249   */\n      dup3\n        /* \"--CODEGEN--\":2232:2241   */\n      dup7\n        /* \"--CODEGEN--\":2228:2250   */\n      add\n        /* \"--CODEGEN--\":2197:2260   */\n      jump(tag_202)\n    tag_221:\n        /* \"--CODEGEN--\":2187:2260   */\n      swap2\n      pop\n      pop\n        /* \"--CODEGEN--\":1897:2276   */\n      swap3\n      pop\n      swap3\n      swap1\n      pop\n      jump\n        /* \"--CODEGEN--\":2283:2649   */\n    tag_53:\n      0x00\n      dup1\n        /* \"--CODEGEN--\":2404:2406   */\n      0x40\n        /* \"--CODEGEN--\":2392:2401   */\n      dup4\n        /* \"--CODEGEN--\":2383:2390   */\n      dup6\n        /* \"--CODEGEN--\":2379:2402   */\n      sub\n        /* \"--CODEGEN--\":2375:2407   */\n      slt\n        /* \"--CODEGEN--\":2372:2374   */\n      iszero\n      tag_223\n      jumpi\n      dup2\n      dup3\n        /* \"--CODEGEN--\":2410:2422   */\n      revert\n        /* \"--CODEGEN--\":2372:2374   */\n    tag_223:\n        /* \"--CODEGEN--\":2472:2525   */\n      tag_224\n        /* \"--CODEGEN--\":2517:2524   */\n      dup5\n        /* \"--CODEGEN--\":2493:2515   */\n      dup5\n        /* \"--CODEGEN--\":2472:2525   */\n      jump(tag_199)\n    tag_224:\n        /* \"--CODEGEN--\":2462:2525   */\n      swap5\n        /* \"--CODEGEN--\":2562:2564   */\n      0x20\n        /* \"--CODEGEN--\":2601:2623   */\n      swap4\n      swap1\n      swap4\n      add\n        /* \"--CODEGEN--\":1113:1133   */\n      calldataload\n      swap4\n      pop\n      pop\n      pop\n        /* \"--CODEGEN--\":2366:2649   */\n      jump\n        /* \"--CODEGEN--\":2656:3003   */\n    tag_28:\n      0x00\n        /* \"--CODEGEN--\":2770:2772   */\n      0x20\n        /* \"--CODEGEN--\":2758:2767   */\n      dup3\n        /* \"--CODEGEN--\":2749:2756   */\n      dup5\n        /* \"--CODEGEN--\":2745:2768   */\n      sub\n        /* \"--CODEGEN--\":2741:2773   */\n      slt\n        /* \"--CODEGEN--\":2738:2740   */\n      iszero\n      tag_226\n      jumpi\n      dup1\n      dup2\n        /* \"--CODEGEN--\":2776:2788   */\n      revert\n        /* \"--CODEGEN--\":2738:2740   */\n    tag_226:\n        /* \"--CODEGEN--\":2834:2851   */\n      dup2\n        /* \"--CODEGEN--\":2821:2852   */\n      calldataload\n        /* \"--CODEGEN--\":2872:2890   */\n      0xffffffffffffffff\n        /* \"--CODEGEN--\":2864:2870   */\n      dup2\n        /* \"--CODEGEN--\":2861:2891   */\n      gt\n        /* \"--CODEGEN--\":2858:2860   */\n      iszero\n      tag_227\n      jumpi\n      dup2\n      dup3\n        /* \"--CODEGEN--\":2894:2906   */\n      revert\n        /* \"--CODEGEN--\":2858:2860   */\n    tag_227:\n        /* \"--CODEGEN--\":2924:2987   */\n      tag_228\n        /* \"--CODEGEN--\":2979:2986   */\n      dup5\n        /* \"--CODEGEN--\":2970:2976   */\n      dup3\n        /* \"--CODEGEN--\":2959:2968   */\n      dup6\n        /* \"--CODEGEN--\":2955:2977   */\n      add\n        /* \"--CODEGEN--\":2924:2987   */\n      jump(tag_202)\n    tag_228:\n        /* \"--CODEGEN--\":2914:2987   */\n      swap5\n        /* \"--CODEGEN--\":2732:3003   */\n      swap4\n      pop\n      pop\n      pop\n      pop\n      jump\n        /* \"--CODEGEN--\":3010:3372   */\n    tag_110:\n      0x00\n        /* \"--CODEGEN--\":3135:3137   */\n      0x20\n        /* \"--CODEGEN--\":3123:3132   */\n      dup3\n        /* \"--CODEGEN--\":3114:3121   */\n      dup5\n        /* \"--CODEGEN--\":3110:3133   */\n      sub\n        /* \"--CODEGEN--\":3106:3138   */\n      slt\n        /* \"--CODEGEN--\":3103:3105   */\n      iszero\n      tag_230\n      jumpi\n      dup1\n      dup2\n        /* \"--CODEGEN--\":3141:3153   */\n      revert\n        /* \"--CODEGEN--\":3103:3105   */\n    tag_230:\n        /* \"--CODEGEN--\":3192:3209   */\n      dup2\n        /* \"--CODEGEN--\":3186:3210   */\n      mload\n        /* \"--CODEGEN--\":3230:3248   */\n      0xffffffffffffffff\n        /* \"--CODEGEN--\":3222:3228   */\n      dup2\n        /* \"--CODEGEN--\":3219:3249   */\n      gt\n        /* \"--CODEGEN--\":3216:3218   */\n      iszero\n      tag_231\n      jumpi\n      dup2\n      dup3\n        /* \"--CODEGEN--\":3252:3264   */\n      revert\n        /* \"--CODEGEN--\":3216:3218   */\n    tag_231:\n        /* \"--CODEGEN--\":3339:3345   */\n      dup1\n        /* \"--CODEGEN--\":3328:3337   */\n      dup4\n        /* \"--CODEGEN--\":3324:3346   */\n      add\n        /* \"--CODEGEN--\":707:710   */\n      dup5\n        /* \"--CODEGEN--\":700:704   */\n      0x1f\n        /* \"--CODEGEN--\":692:698   */\n      dup3\n        /* \"--CODEGEN--\":688:705   */\n      add\n        /* \"--CODEGEN--\":684:711   */\n      slt\n        /* \"--CODEGEN--\":674:676   */\n      tag_232\n      jumpi\n      dup3\n      dup4\n        /* \"--CODEGEN--\":715:727   */\n      revert\n        /* \"--CODEGEN--\":674:676   */\n    tag_232:\n        /* \"--CODEGEN--\":755:761   */\n      dup1\n        /* \"--CODEGEN--\":749:762   */\n      mload\n        /* \"--CODEGEN--\":735:762   */\n      swap2\n      pop\n        /* \"--CODEGEN--\":777:842   */\n      tag_233\n        /* \"--CODEGEN--\":792:841   */\n      tag_206\n        /* \"--CODEGEN--\":834:840   */\n      dup4\n        /* \"--CODEGEN--\":792:841   */\n      jump(tag_207)\n        /* \"--CODEGEN--\":777:842   */\n    tag_233:\n        /* \"--CODEGEN--\":862:868   */\n      dup3\n        /* \"--CODEGEN--\":855:860   */\n      dup2\n        /* \"--CODEGEN--\":848:869   */\n      mstore\n        /* \"--CODEGEN--\":966:969   */\n      dup6\n        /* \"--CODEGEN--\":3135:3137   */\n      0x20\n        /* \"--CODEGEN--\":957:963   */\n      dup5\n        /* \"--CODEGEN--\":890:896   */\n      dup5\n        /* \"--CODEGEN--\":948:964   */\n      add\n      add\n        /* \"--CODEGEN--\":945:970   */\n      gt\n        /* \"--CODEGEN--\":942:944   */\n      iszero\n      tag_235\n      jumpi\n      dup4\n      dup5\n        /* \"--CODEGEN--\":973:985   */\n      revert\n        /* \"--CODEGEN--\":942:944   */\n    tag_235:\n        /* \"--CODEGEN--\":993:1032   */\n      tag_176\n        /* \"--CODEGEN--\":1025:1031   */\n      dup4\n        /* \"--CODEGEN--\":3135:3137   */\n      0x20\n        /* \"--CODEGEN--\":924:929   */\n      dup4\n        /* \"--CODEGEN--\":920:936   */\n      add\n        /* \"--CODEGEN--\":3135:3137   */\n      0x20\n        /* \"--CODEGEN--\":890:896   */\n      dup6\n        /* \"--CODEGEN--\":886:903   */\n      add\n        /* \"--CODEGEN--\":993:1032   */\n      jump(tag_237)\n        /* \"--CODEGEN--\":3379:4314   */\n    tag_62:\n      0x00\n      dup1\n      0x00\n      dup1\n        /* \"--CODEGEN--\":3564:3567   */\n      0x80\n        /* \"--CODEGEN--\":3552:3561   */\n      dup6\n        /* \"--CODEGEN--\":3543:3550   */\n      dup8\n        /* \"--CODEGEN--\":3539:3562   */\n      sub\n        /* \"--CODEGEN--\":3535:3568   */\n      slt\n        /* \"--CODEGEN--\":3532:3534   */\n      iszero\n      tag_239\n      jumpi\n      dup2\n      dup3\n        /* \"--CODEGEN--\":3571:3583   */\n      revert\n        /* \"--CODEGEN--\":3532:3534   */\n    tag_239:\n        /* \"--CODEGEN--\":3629:3646   */\n      dup5\n        /* \"--CODEGEN--\":3616:3647   */\n      calldataload\n        /* \"--CODEGEN--\":3667:3685   */\n      0xffffffffffffffff\n      dup1\n        /* \"--CODEGEN--\":3659:3665   */\n      dup3\n        /* \"--CODEGEN--\":3656:3686   */\n      gt\n        /* \"--CODEGEN--\":3653:3655   */\n      iszero\n      tag_240\n      jumpi\n      dup4\n      dup5\n        /* \"--CODEGEN--\":3689:3701   */\n      revert\n        /* \"--CODEGEN--\":3653:3655   */\n    tag_240:\n        /* \"--CODEGEN--\":3719:3782   */\n      tag_241\n        /* \"--CODEGEN--\":3774:3781   */\n      dup9\n        /* \"--CODEGEN--\":3765:3771   */\n      dup4\n        /* \"--CODEGEN--\":3754:3763   */\n      dup10\n        /* \"--CODEGEN--\":3750:3772   */\n      add\n        /* \"--CODEGEN--\":3719:3782   */\n      jump(tag_202)\n    tag_241:\n        /* \"--CODEGEN--\":3709:3782   */\n      swap6\n      pop\n        /* \"--CODEGEN--\":3837:3890   */\n      tag_242\n        /* \"--CODEGEN--\":3882:3889   */\n      dup9\n        /* \"--CODEGEN--\":3819:3821   */\n      0x20\n        /* \"--CODEGEN--\":3862:3871   */\n      dup10\n        /* \"--CODEGEN--\":3858:3880   */\n      add\n        /* \"--CODEGEN--\":3837:3890   */\n      jump(tag_199)\n    tag_242:\n        /* \"--CODEGEN--\":3827:3890   */\n      swap5\n      pop\n        /* \"--CODEGEN--\":3955:3957   */\n      0x40\n        /* \"--CODEGEN--\":3944:3953   */\n      dup8\n        /* \"--CODEGEN--\":3940:3958   */\n      add\n        /* \"--CODEGEN--\":3927:3959   */\n      calldataload\n        /* \"--CODEGEN--\":3913:3959   */\n      swap2\n      pop\n        /* \"--CODEGEN--\":3667:3685   */\n      dup1\n        /* \"--CODEGEN--\":3971:3977   */\n      dup3\n        /* \"--CODEGEN--\":3968:3998   */\n      gt\n        /* \"--CODEGEN--\":3965:3967   */\n      iszero\n      tag_243\n      jumpi\n      dup4\n      dup5\n        /* \"--CODEGEN--\":4001:4013   */\n      revert\n        /* \"--CODEGEN--\":3965:3967   */\n    tag_243:\n        /* \"--CODEGEN--\":4031:4094   */\n      tag_244\n        /* \"--CODEGEN--\":4086:4093   */\n      dup9\n        /* \"--CODEGEN--\":4077:4083   */\n      dup4\n        /* \"--CODEGEN--\":4066:4075   */\n      dup10\n        /* \"--CODEGEN--\":4062:4084   */\n      add\n        /* \"--CODEGEN--\":4031:4094   */\n      jump(tag_202)\n    tag_244:\n        /* \"--CODEGEN--\":4021:4094   */\n      swap4\n      pop\n        /* \"--CODEGEN--\":4159:4161   */\n      0x60\n        /* \"--CODEGEN--\":4148:4157   */\n      dup8\n        /* \"--CODEGEN--\":4144:4162   */\n      add\n        /* \"--CODEGEN--\":4131:4163   */\n      calldataload\n        /* \"--CODEGEN--\":4117:4163   */\n      swap2\n      pop\n        /* \"--CODEGEN--\":3667:3685   */\n      dup1\n        /* \"--CODEGEN--\":4175:4181   */\n      dup3\n        /* \"--CODEGEN--\":4172:4202   */\n      gt\n        /* \"--CODEGEN--\":4169:4171   */\n      iszero\n      tag_245\n      jumpi\n      dup3\n      dup4\n        /* \"--CODEGEN--\":4205:4217   */\n      revert\n        /* \"--CODEGEN--\":4169:4171   */\n    tag_245:\n      pop\n        /* \"--CODEGEN--\":4235:4298   */\n      tag_246\n        /* \"--CODEGEN--\":4290:4297   */\n      dup8\n        /* \"--CODEGEN--\":4281:4287   */\n      dup3\n        /* \"--CODEGEN--\":4270:4279   */\n      dup9\n        /* \"--CODEGEN--\":4266:4288   */\n      add\n        /* \"--CODEGEN--\":4235:4298   */\n      jump(tag_202)\n    tag_246:\n        /* \"--CODEGEN--\":4225:4298   */\n      swap2\n      pop\n      pop\n        /* \"--CODEGEN--\":3526:4314   */\n      swap3\n      swap6\n      swap2\n      swap5\n      pop\n      swap3\n      pop\n      jump\n        /* \"--CODEGEN--\":4321:4562   */\n    tag_70:\n      0x00\n        /* \"--CODEGEN--\":4425:4427   */\n      0x20\n        /* \"--CODEGEN--\":4413:4422   */\n      dup3\n        /* \"--CODEGEN--\":4404:4411   */\n      dup5\n        /* \"--CODEGEN--\":4400:4423   */\n      sub\n        /* \"--CODEGEN--\":4396:4428   */\n      slt\n        /* \"--CODEGEN--\":4393:4395   */\n      iszero\n      tag_248\n      jumpi\n      dup1\n      dup2\n        /* \"--CODEGEN--\":4431:4443   */\n      revert\n        /* \"--CODEGEN--\":4393:4395   */\n    tag_248:\n      pop\n        /* \"--CODEGEN--\":1113:1133   */\n      calldataload\n      swap2\n        /* \"--CODEGEN--\":4387:4562   */\n      swap1\n      pop\n      jump\n        /* \"--CODEGEN--\":5821:6168   */\n    tag_249:\n      0x00\n        /* \"--CODEGEN--\":5966:5971   */\n      dup2\n        /* \"--CODEGEN--\":17783:17795   */\n      mload\n        /* \"--CODEGEN--\":18199:18205   */\n      dup1\n        /* \"--CODEGEN--\":18194:18197   */\n      dup5\n        /* \"--CODEGEN--\":18187:18206   */\n      mstore\n        /* \"--CODEGEN--\":6060:6112   */\n      tag_251\n        /* \"--CODEGEN--\":6105:6111   */\n      dup2\n        /* \"--CODEGEN--\":18236:18240   */\n      0x20\n        /* \"--CODEGEN--\":18231:18234   */\n      dup7\n        /* \"--CODEGEN--\":18227:18241   */\n      add\n        /* \"--CODEGEN--\":18236:18240   */\n      0x20\n        /* \"--CODEGEN--\":6086:6091   */\n      dup7\n        /* \"--CODEGEN--\":6082:6098   */\n      add\n        /* \"--CODEGEN--\":6060:6112   */\n      jump(tag_237)\n    tag_251:\n        /* \"--CODEGEN--\":19493:19500   */\n      0x1f\n        /* \"--CODEGEN--\":19477:19491   */\n      add\n      not(0x1f)\n        /* \"--CODEGEN--\":19473:19501   */\n      and\n        /* \"--CODEGEN--\":6124:6163   */\n      swap3\n      swap1\n      swap3\n      add\n        /* \"--CODEGEN--\":18236:18240   */\n      0x20\n        /* \"--CODEGEN--\":6124:6163   */\n      add\n      swap3\n        /* \"--CODEGEN--\":5913:6168   */\n      swap2\n      pop\n      pop\n      jump\n        /* \"--CODEGEN--\":9133:9439   */\n    tag_252:\n        /* \"--CODEGEN--\":9357:9358   */\n      0x07\n        /* \"--CODEGEN--\":18187:18206   */\n      dup2\n      mstore\n      shl(0xc8, 0x6469706c6f6d61)\n        /* \"--CODEGEN--\":18236:18240   */\n      0x20\n        /* \"--CODEGEN--\":18227:18241   */\n      dup3\n      add\n        /* \"--CODEGEN--\":9372:9402   */\n      mstore\n        /* \"--CODEGEN--\":9421:9433   */\n      0x40\n      add\n      swap1\n        /* \"--CODEGEN--\":9279:9439   */\n      jump\n        /* \"--CODEGEN--\":9567:9833   */\n    tag_114:\n      0x00\n        /* \"--CODEGEN--\":6338:6343   */\n      dup3\n        /* \"--CODEGEN--\":17783:17795   */\n      mload\n        /* \"--CODEGEN--\":6450:6502   */\n      tag_255\n        /* \"--CODEGEN--\":6495:6501   */\n      dup2\n        /* \"--CODEGEN--\":6490:6493   */\n      dup5\n        /* \"--CODEGEN--\":6483:6487   */\n      0x20\n        /* \"--CODEGEN--\":6476:6481   */\n      dup8\n        /* \"--CODEGEN--\":6472:6488   */\n      add\n        /* \"--CODEGEN--\":6450:6502   */\n      jump(tag_237)\n    tag_255:\n        /* \"--CODEGEN--\":6514:6530   */\n      swap2\n      swap1\n      swap2\n      add\n      swap3\n        /* \"--CODEGEN--\":9694:9833   */\n      swap2\n      pop\n      pop\n      jump\n        /* \"--CODEGEN--\":9840:10212   */\n    tag_112:\n      shl(0xe8, 0x596573)\n        /* \"--CODEGEN--\":8107:8133   */\n      dup2\n      mstore\n        /* \"--CODEGEN--\":8092:8093   */\n      0x03\n        /* \"--CODEGEN--\":8152:8163   */\n      add\n      swap1\n        /* \"--CODEGEN--\":10020:10212   */\n      jump\n        /* \"--CODEGEN--\":10219:10432   */\n    tag_50:\n      sub(shl(0xa0, 0x01), 0x01)\n        /* \"--CODEGEN--\":18833:18887   */\n      swap2\n      swap1\n      swap2\n      and\n        /* \"--CODEGEN--\":4812:4849   */\n      dup2\n      mstore\n        /* \"--CODEGEN--\":10337:10339   */\n      0x20\n        /* \"--CODEGEN--\":10322:10340   */\n      add\n      swap1\n        /* \"--CODEGEN--\":10308:10432   */\n      jump\n        /* \"--CODEGEN--\":10439:11262   */\n    tag_105:\n      sub(shl(0xa0, 0x01), 0x01)\n        /* \"--CODEGEN--\":18833:18887   */\n      swap2\n      swap1\n      swap2\n      and\n        /* \"--CODEGEN--\":4812:4849   */\n      dup2\n      mstore\n        /* \"--CODEGEN--\":10759:10761   */\n      0x60\n        /* \"--CODEGEN--\":10877:10879   */\n      0x20\n        /* \"--CODEGEN--\":10862:10880   */\n      dup3\n      add\n        /* \"--CODEGEN--\":10855:10903   */\n      dup2\n      swap1\n      mstore\n        /* \"--CODEGEN--\":7414:7416   */\n      0x11\n        /* \"--CODEGEN--\":10744:10762   */\n      swap1\n      dup3\n      add\n        /* \"--CODEGEN--\":18187:18206   */\n      mstore\n      shl(0x78, 0x7363686f6f6c4365727469666963617465)\n        /* \"--CODEGEN--\":18227:18241   */\n      0x80\n      dup3\n      add\n        /* \"--CODEGEN--\":7430:7470   */\n      mstore\n        /* \"--CODEGEN--\":18844:18886   */\n      0xa0\n        /* \"--CODEGEN--\":11081:11083   */\n      0x40\n        /* \"--CODEGEN--\":11066:11084   */\n      dup3\n      add\n        /* \"--CODEGEN--\":11059:11107   */\n      dup2\n      swap1\n      mstore\n        /* \"--CODEGEN--\":7740:7741   */\n      0x08\n        /* \"--CODEGEN--\":7489:7501   */\n      swap1\n      dup3\n      add\n        /* \"--CODEGEN--\":18187:18206   */\n      mstore\n      shl(0xc2, 0x1a5cd4d8da1bdbdb)\n        /* \"--CODEGEN--\":18227:18241   */\n      0xc0\n      dup3\n      add\n        /* \"--CODEGEN--\":7755:7786   */\n      mstore\n        /* \"--CODEGEN--\":7805:7817   */\n      0xe0\n      add\n      swap1\n        /* \"--CODEGEN--\":10730:11262   */\n      jump\n        /* \"--CODEGEN--\":11269:12092   */\n    tag_180:\n      sub(shl(0xa0, 0x01), 0x01)\n        /* \"--CODEGEN--\":18833:18887   */\n      swap2\n      swap1\n      swap2\n      and\n        /* \"--CODEGEN--\":4812:4849   */\n      dup2\n      mstore\n        /* \"--CODEGEN--\":11589:11591   */\n      0x60\n        /* \"--CODEGEN--\":11707:11709   */\n      0x20\n        /* \"--CODEGEN--\":11692:11710   */\n      dup3\n      add\n        /* \"--CODEGEN--\":11685:11733   */\n      dup2\n      swap1\n      mstore\n        /* \"--CODEGEN--\":8402:8404   */\n      0x0b\n        /* \"--CODEGEN--\":11574:11592   */\n      swap1\n      dup3\n      add\n        /* \"--CODEGEN--\":18187:18206   */\n      mstore\n      shl(0xa8, 0x6365727469666963617465)\n        /* \"--CODEGEN--\":18227:18241   */\n      0x80\n      dup3\n      add\n        /* \"--CODEGEN--\":8418:8452   */\n      mstore\n        /* \"--CODEGEN--\":18844:18886   */\n      0xa0\n        /* \"--CODEGEN--\":11911:11913   */\n      0x40\n        /* \"--CODEGEN--\":11896:11914   */\n      dup3\n      add\n        /* \"--CODEGEN--\":11889:11937   */\n      dup2\n      swap1\n      mstore\n        /* \"--CODEGEN--\":9038:9040   */\n      0x0a\n        /* \"--CODEGEN--\":8471:8483   */\n      swap1\n      dup3\n      add\n        /* \"--CODEGEN--\":18187:18206   */\n      mstore\n      shl(0xb0, 0x69734d696e6973747279)\n        /* \"--CODEGEN--\":18227:18241   */\n      0xc0\n      dup3\n      add\n        /* \"--CODEGEN--\":9054:9087   */\n      mstore\n        /* \"--CODEGEN--\":9106:9118   */\n      0xe0\n      add\n      swap1\n        /* \"--CODEGEN--\":11560:12092   */\n      jump\n        /* \"--CODEGEN--\":12099:12922   */\n    tag_129:\n      sub(shl(0xa0, 0x01), 0x01)\n        /* \"--CODEGEN--\":18833:18887   */\n      dup3\n      and\n        /* \"--CODEGEN--\":4812:4849   */\n      dup2\n      mstore\n        /* \"--CODEGEN--\":12419:12421   */\n      0x60\n        /* \"--CODEGEN--\":12537:12539   */\n      0x20\n        /* \"--CODEGEN--\":12522:12540   */\n      dup3\n      add\n        /* \"--CODEGEN--\":12515:12563   */\n      dup2\n      swap1\n      mstore\n        /* \"--CODEGEN--\":12099:12922   */\n      0x00\n      swap1\n        /* \"--CODEGEN--\":12577:12708   */\n      tag_261\n      swap1\n        /* \"--CODEGEN--\":12404:12422   */\n      dup4\n      add\n        /* \"--CODEGEN--\":12577:12708   */\n      jump(tag_252)\n    tag_261:\n        /* \"--CODEGEN--\":12746:12766   */\n      dup3\n      dup2\n      sub\n        /* \"--CODEGEN--\":12741:12743   */\n      0x40\n        /* \"--CODEGEN--\":12726:12744   */\n      swap4\n      dup5\n      add\n        /* \"--CODEGEN--\":12719:12767   */\n      mstore\n        /* \"--CODEGEN--\":6767:6769   */\n      0x12\n        /* \"--CODEGEN--\":18187:18206   */\n      dup2\n      mstore\n      shl(0x70, 0x4365727469666963617465456e6444617465)\n        /* \"--CODEGEN--\":12537:12539   */\n      0x20\n        /* \"--CODEGEN--\":18227:18241   */\n      dup3\n      add\n        /* \"--CODEGEN--\":6783:6824   */\n      mstore\n        /* \"--CODEGEN--\":6843:6855   */\n      swap2\n      swap1\n      swap2\n      add\n      swap3\n        /* \"--CODEGEN--\":12390:12922   */\n      swap2\n      pop\n      pop\n      jump\n        /* \"--CODEGEN--\":12929:13752   */\n    tag_153:\n      sub(shl(0xa0, 0x01), 0x01)\n        /* \"--CODEGEN--\":18833:18887   */\n      dup3\n      and\n        /* \"--CODEGEN--\":4812:4849   */\n      dup2\n      mstore\n        /* \"--CODEGEN--\":13249:13251   */\n      0x60\n        /* \"--CODEGEN--\":13367:13369   */\n      0x20\n        /* \"--CODEGEN--\":13352:13370   */\n      dup3\n      add\n        /* \"--CODEGEN--\":13345:13393   */\n      dup2\n      swap1\n      mstore\n        /* \"--CODEGEN--\":12929:13752   */\n      0x00\n      swap1\n        /* \"--CODEGEN--\":13407:13538   */\n      tag_263\n      swap1\n        /* \"--CODEGEN--\":13234:13252   */\n      dup4\n      add\n        /* \"--CODEGEN--\":13407:13538   */\n      jump(tag_252)\n    tag_263:\n        /* \"--CODEGEN--\":13576:13596   */\n      dup3\n      dup2\n      sub\n        /* \"--CODEGEN--\":13571:13573   */\n      0x40\n        /* \"--CODEGEN--\":13556:13574   */\n      swap4\n      dup5\n      add\n        /* \"--CODEGEN--\":13549:13597   */\n      mstore\n        /* \"--CODEGEN--\":7094:7096   */\n      0x0b\n        /* \"--CODEGEN--\":18187:18206   */\n      dup2\n      mstore\n      shl(0xaa, 0x1a5cd1dc98591d585d1959)\n        /* \"--CODEGEN--\":13367:13369   */\n      0x20\n        /* \"--CODEGEN--\":18227:18241   */\n      dup3\n      add\n        /* \"--CODEGEN--\":7110:7144   */\n      mstore\n        /* \"--CODEGEN--\":7163:7175   */\n      swap2\n      swap1\n      swap2\n      add\n      swap3\n        /* \"--CODEGEN--\":13220:13752   */\n      swap2\n      pop\n      pop\n      jump\n        /* \"--CODEGEN--\":13759:14582   */\n    tag_172:\n      sub(shl(0xa0, 0x01), 0x01)\n        /* \"--CODEGEN--\":18833:18887   */\n      dup3\n      and\n        /* \"--CODEGEN--\":4812:4849   */\n      dup2\n      mstore\n        /* \"--CODEGEN--\":14079:14081   */\n      0x60\n        /* \"--CODEGEN--\":14197:14199   */\n      0x20\n        /* \"--CODEGEN--\":14182:14200   */\n      dup3\n      add\n        /* \"--CODEGEN--\":14175:14223   */\n      dup2\n      swap1\n      mstore\n        /* \"--CODEGEN--\":13759:14582   */\n      0x00\n      swap1\n        /* \"--CODEGEN--\":14237:14368   */\n      tag_265\n      swap1\n        /* \"--CODEGEN--\":14064:14082   */\n      dup4\n      add\n        /* \"--CODEGEN--\":14237:14368   */\n      jump(tag_252)\n    tag_265:\n        /* \"--CODEGEN--\":14406:14426   */\n      dup3\n      dup2\n      sub\n        /* \"--CODEGEN--\":14401:14403   */\n      0x40\n        /* \"--CODEGEN--\":14386:14404   */\n      swap4\n      dup5\n      add\n        /* \"--CODEGEN--\":14379:14427   */\n      mstore\n        /* \"--CODEGEN--\":8722:8723   */\n      0x08\n        /* \"--CODEGEN--\":18187:18206   */\n      dup2\n      mstore\n      shl(0xc3, 0x092a08ca6d0c2e6d)\n        /* \"--CODEGEN--\":14197:14199   */\n      0x20\n        /* \"--CODEGEN--\":18227:18241   */\n      dup3\n      add\n        /* \"--CODEGEN--\":8737:8768   */\n      mstore\n        /* \"--CODEGEN--\":8787:8799   */\n      swap2\n      swap1\n      swap2\n      add\n      swap3\n        /* \"--CODEGEN--\":14050:14582   */\n      swap2\n      pop\n      pop\n      jump\n        /* \"--CODEGEN--\":14589:14950   */\n    tag_78:\n        /* \"--CODEGEN--\":14757:14759   */\n      0x20\n        /* \"--CODEGEN--\":14771:14818   */\n      dup1\n      dup3\n      mstore\n        /* \"--CODEGEN--\":17783:17795   */\n      dup3\n      mload\n        /* \"--CODEGEN--\":14742:14760   */\n      dup3\n      dup3\n      add\n        /* \"--CODEGEN--\":18187:18206   */\n      dup2\n      swap1\n      mstore\n        /* \"--CODEGEN--\":14589:14950   */\n      0x00\n      swap2\n        /* \"--CODEGEN--\":14757:14759   */\n      swap1\n        /* \"--CODEGEN--\":17637:17651   */\n      dup5\n      dup3\n      add\n      swap1\n        /* \"--CODEGEN--\":18227:18241   */\n      0x40\n      dup6\n      add\n      swap1\n        /* \"--CODEGEN--\":14589:14950   */\n      dup5\n        /* \"--CODEGEN--\":5420:5680   */\n    tag_267:\n        /* \"--CODEGEN--\":5445:5451   */\n      dup2\n        /* \"--CODEGEN--\":5442:5443   */\n      dup2\n        /* \"--CODEGEN--\":5439:5452   */\n      lt\n        /* \"--CODEGEN--\":5420:5680   */\n      iszero\n      tag_269\n      jumpi\n        /* \"--CODEGEN--\":5506:5519   */\n      dup4\n      mload\n      sub(shl(0xa0, 0x01), 0x01)\n        /* \"--CODEGEN--\":18833:18887   */\n      and\n        /* \"--CODEGEN--\":4812:4849   */\n      dup4\n      mstore\n        /* \"--CODEGEN--\":18042:18056   */\n      swap3\n      dup5\n      add\n      swap3\n        /* \"--CODEGEN--\":4723:4737   */\n      swap2\n      dup5\n      add\n      swap2\n        /* \"--CODEGEN--\":18844:18886   */\n      0x01\n        /* \"--CODEGEN--\":5460:5469   */\n      add\n        /* \"--CODEGEN--\":5420:5680   */\n      jump(tag_267)\n    tag_269:\n      pop\n        /* \"--CODEGEN--\":14824:14940   */\n      swap1\n      swap7\n        /* \"--CODEGEN--\":14728:14950   */\n      swap6\n      pop\n      pop\n      pop\n      pop\n      pop\n      pop\n      jump\n        /* \"--CODEGEN--\":14957:15158   */\n    tag_36:\n        /* \"--CODEGEN--\":18745:18758   */\n      swap1\n      iszero\n        /* \"--CODEGEN--\":18738:18759   */\n      iszero\n        /* \"--CODEGEN--\":5775:5809   */\n      dup2\n      mstore\n        /* \"--CODEGEN--\":15069:15071   */\n      0x20\n        /* \"--CODEGEN--\":15054:15072   */\n      add\n      swap1\n        /* \"--CODEGEN--\":15040:15158   */\n      jump\n        /* \"--CODEGEN--\":15165:15466   */\n    tag_83:\n      0x00\n        /* \"--CODEGEN--\":15303:15305   */\n      0x20\n        /* \"--CODEGEN--\":15324:15341   */\n      dup3\n        /* \"--CODEGEN--\":15317:15364   */\n      mstore\n        /* \"--CODEGEN--\":15378:15456   */\n      tag_212\n        /* \"--CODEGEN--\":15303:15305   */\n      0x20\n        /* \"--CODEGEN--\":15292:15301   */\n      dup4\n        /* \"--CODEGEN--\":15288:15306   */\n      add\n        /* \"--CODEGEN--\":15442:15448   */\n      dup5\n        /* \"--CODEGEN--\":15378:15456   */\n      jump(tag_249)\n        /* \"--CODEGEN--\":15473:15885   */\n    tag_73:\n      0x00\n        /* \"--CODEGEN--\":15639:15641   */\n      0x40\n        /* \"--CODEGEN--\":15660:15677   */\n      dup3\n        /* \"--CODEGEN--\":15653:15700   */\n      mstore\n        /* \"--CODEGEN--\":15714:15792   */\n      tag_274\n        /* \"--CODEGEN--\":15639:15641   */\n      0x40\n        /* \"--CODEGEN--\":15628:15637   */\n      dup4\n        /* \"--CODEGEN--\":15624:15642   */\n      add\n        /* \"--CODEGEN--\":15778:15784   */\n      dup6\n        /* \"--CODEGEN--\":15714:15792   */\n      jump(tag_249)\n    tag_274:\n        /* \"--CODEGEN--\":15706:15792   */\n      swap1\n      pop\n        /* \"--CODEGEN--\":18844:18886   */\n      0x01\n      dup1\n      0xa0\n      shl\n      sub\n        /* \"--CODEGEN--\":4842:4847   */\n      dup4\n        /* \"--CODEGEN--\":18833:18887   */\n      and\n        /* \"--CODEGEN--\":15871:15873   */\n      0x20\n        /* \"--CODEGEN--\":15860:15869   */\n      dup4\n        /* \"--CODEGEN--\":15856:15874   */\n      add\n        /* \"--CODEGEN--\":4812:4849   */\n      mstore\n        /* \"--CODEGEN--\":15610:15885   */\n      swap4\n      swap3\n      pop\n      pop\n      pop\n      jump\n        /* \"--CODEGEN--\":15892:16703   */\n    tag_42:\n      0x00\n        /* \"--CODEGEN--\":16154:16157   */\n      0x80\n        /* \"--CODEGEN--\":16176:16193   */\n      dup3\n        /* \"--CODEGEN--\":16169:16216   */\n      mstore\n        /* \"--CODEGEN--\":16230:16308   */\n      tag_276\n        /* \"--CODEGEN--\":16154:16157   */\n      0x80\n        /* \"--CODEGEN--\":16143:16152   */\n      dup4\n        /* \"--CODEGEN--\":16139:16158   */\n      add\n        /* \"--CODEGEN--\":16294:16300   */\n      dup8\n        /* \"--CODEGEN--\":16230:16308   */\n      jump(tag_249)\n    tag_276:\n      sub(shl(0xa0, 0x01), 0x01)\n        /* \"--CODEGEN--\":18833:18887   */\n      dup7\n      and\n        /* \"--CODEGEN--\":16387:16389   */\n      0x20\n        /* \"--CODEGEN--\":16372:16390   */\n      dup5\n      add\n        /* \"--CODEGEN--\":4812:4849   */\n      mstore\n        /* \"--CODEGEN--\":16429:16449   */\n      dup3\n      dup2\n      sub\n        /* \"--CODEGEN--\":16424:16426   */\n      0x40\n        /* \"--CODEGEN--\":16409:16427   */\n      dup5\n      add\n        /* \"--CODEGEN--\":16402:16450   */\n      mstore\n        /* \"--CODEGEN--\":16464:16542   */\n      tag_277\n        /* \"--CODEGEN--\":16433:16437   */\n      dup2\n        /* \"--CODEGEN--\":16528:16534   */\n      dup7\n        /* \"--CODEGEN--\":16464:16542   */\n      jump(tag_249)\n    tag_277:\n        /* \"--CODEGEN--\":16590:16599   */\n      dup4\n        /* \"--CODEGEN--\":16584:16588   */\n      dup2\n        /* \"--CODEGEN--\":16580:16600   */\n      sub\n        /* \"--CODEGEN--\":16575:16577   */\n      0x60\n        /* \"--CODEGEN--\":16564:16573   */\n      dup6\n        /* \"--CODEGEN--\":16560:16578   */\n      add\n        /* \"--CODEGEN--\":16553:16601   */\n      mstore\n        /* \"--CODEGEN--\":16615:16693   */\n      tag_278\n        /* \"--CODEGEN--\":16688:16692   */\n      dup2\n        /* \"--CODEGEN--\":16679:16685   */\n      dup7\n        /* \"--CODEGEN--\":16615:16693   */\n      jump(tag_249)\n    tag_278:\n        /* \"--CODEGEN--\":16607:16693   */\n      swap9\n        /* \"--CODEGEN--\":16125:16703   */\n      swap8\n      pop\n      pop\n      pop\n      pop\n      pop\n      pop\n      pop\n      pop\n      jump\n        /* \"--CODEGEN--\":16710:16923   */\n    tag_25:\n        /* \"--CODEGEN--\":9518:9555   */\n      swap1\n      dup2\n      mstore\n        /* \"--CODEGEN--\":16828:16830   */\n      0x20\n        /* \"--CODEGEN--\":16813:16831   */\n      add\n      swap1\n        /* \"--CODEGEN--\":16799:16923   */\n      jump\n        /* \"--CODEGEN--\":16930:17186   */\n    tag_208:\n        /* \"--CODEGEN--\":16992:16994   */\n      0x40\n        /* \"--CODEGEN--\":16986:16995   */\n      mload\n        /* \"--CODEGEN--\":17018:17035   */\n      dup2\n      dup2\n      add\n        /* \"--CODEGEN--\":17093:17111   */\n      0xffffffffffffffff\n        /* \"--CODEGEN--\":17078:17112   */\n      dup2\n      gt\n        /* \"--CODEGEN--\":17114:17136   */\n      dup3\n      dup3\n      lt\n        /* \"--CODEGEN--\":17075:17137   */\n      or\n        /* \"--CODEGEN--\":17072:17074   */\n      iszero\n      tag_281\n      jumpi\n        /* \"--CODEGEN--\":17150:17151   */\n      0x00\n      dup1\n        /* \"--CODEGEN--\":17140:17152   */\n      revert\n        /* \"--CODEGEN--\":17072:17074   */\n    tag_281:\n        /* \"--CODEGEN--\":16992:16994   */\n      0x40\n        /* \"--CODEGEN--\":17159:17181   */\n      mstore\n        /* \"--CODEGEN--\":16970:17186   */\n      swap2\n      swap1\n      pop\n      jump\n        /* \"--CODEGEN--\":17193:17515   */\n    tag_207:\n      0x00\n        /* \"--CODEGEN--\":17337:17355   */\n      0xffffffffffffffff\n        /* \"--CODEGEN--\":17329:17335   */\n      dup3\n        /* \"--CODEGEN--\":17326:17356   */\n      gt\n        /* \"--CODEGEN--\":17323:17325   */\n      iszero\n      tag_283\n      jumpi\n      dup1\n      dup2\n        /* \"--CODEGEN--\":17359:17371   */\n      revert\n        /* \"--CODEGEN--\":17323:17325   */\n    tag_283:\n      pop\n        /* \"--CODEGEN--\":19493:19500   */\n      0x1f\n        /* \"--CODEGEN--\":17413:17430   */\n      add\n      not(0x1f)\n        /* \"--CODEGEN--\":17409:17442   */\n      and\n        /* \"--CODEGEN--\":17500:17504   */\n      0x20\n        /* \"--CODEGEN--\":17490:17505   */\n      add\n      swap1\n        /* \"--CODEGEN--\":17260:17515   */\n      jump\n        /* \"--CODEGEN--\":19133:19401   */\n    tag_237:\n        /* \"--CODEGEN--\":19198:19199   */\n      0x00\n        /* \"--CODEGEN--\":19205:19306   */\n    tag_285:\n        /* \"--CODEGEN--\":19219:19225   */\n      dup4\n        /* \"--CODEGEN--\":19216:19217   */\n      dup2\n        /* \"--CODEGEN--\":19213:19226   */\n      lt\n        /* \"--CODEGEN--\":19205:19306   */\n      iszero\n      tag_287\n      jumpi\n        /* \"--CODEGEN--\":19286:19297   */\n      dup2\n      dup2\n      add\n        /* \"--CODEGEN--\":19280:19298   */\n      mload\n        /* \"--CODEGEN--\":19267:19278   */\n      dup4\n      dup3\n      add\n        /* \"--CODEGEN--\":19260:19299   */\n      mstore\n        /* \"--CODEGEN--\":19241:19243   */\n      0x20\n        /* \"--CODEGEN--\":19234:19244   */\n      add\n        /* \"--CODEGEN--\":19205:19306   */\n      jump(tag_285)\n    tag_287:\n        /* \"--CODEGEN--\":19321:19327   */\n      dup4\n        /* \"--CODEGEN--\":19318:19319   */\n      dup2\n        /* \"--CODEGEN--\":19315:19328   */\n      gt\n        /* \"--CODEGEN--\":19312:19314   */\n      iszero\n      tag_288\n      jumpi\n        /* \"--CODEGEN--\":19198:19199   */\n      0x00\n        /* \"--CODEGEN--\":19377:19383   */\n      dup5\n        /* \"--CODEGEN--\":19372:19375   */\n      dup5\n        /* \"--CODEGEN--\":19368:19384   */\n      add\n        /* \"--CODEGEN--\":19361:19388   */\n      mstore\n        /* \"--CODEGEN--\":19312:19314   */\n    tag_288:\n      pop\n        /* \"--CODEGEN--\":19182:19401   */\n      pop\n      pop\n      pop\n      jump\n\n    auxdata: 0xa26469706673582212203cf87d0d93a5f633c1038d1422deb79b24c0b9b8c4cf60f635782f1a08ac53e864736f6c63430006060033\n}\n","bytecode":{"linkReferences":{},"object":"6080604052600280546001600160a01b031916730de304ff69d56b15b6d47a7b985d3b620f2171dc17905534801561003657600080fd5b50600180546001600160a01b0319163317905561128a806100586000396000f3fe608060405234801561001057600080fd5b50600436106101005760003560e01c80635f460c911161009757806382c105601161006657806382c10560146102305780638a7f7f4614610250578063be87a97514610263578063c89778b41461027657610100565b80635f460c91146101c957806361f0eff9146101dc578063719c0d04146101ef5780637858b2641461021057610100565b80633afe4f7c116100d35780633afe4f7c14610179578063481c6a751461018c5780634bc395bb146101a15780635624e7c9146101b457610100565b806301307b37146101055780631bd95155146101235780632dd8e5f0146101365780632e2cde3a14610156575b600080fd5b61010d61027e565b60405161011a91906111d0565b60405180910390f35b61010d610131366004610d6a565b610285565b610149610144366004610c91565b6102e5565b60405161011a9190611136565b610169610164366004610cb3565b6103db565b60405161011a949392919061117e565b610149610187366004610cb3565b6105b7565b610194610668565b60405161011a9190610f31565b6101946101af366004610d40565b610677565b6101c76101c2366004610ce7565b6106ac565b005b6101c76101d7366004610e12565b61074d565b6101496101ea366004610cb3565b61083b565b6102026101fd366004610ea8565b610922565b60405161011a929190611154565b61022361021e366004610c91565b6109de565b60405161011a91906110e9565b61024361023e366004610cb3565b610a54565b60405161011a9190611141565b61010d61025e366004610c91565b610ae4565b610149610271366004610c91565b610aff565b610194610b37565b6000545b90565b60008181805b82518210156102db5760008383815181106102a257fe5b016020015160f81c9050603081108015906102be575060398111155b156102cf576030810382600a020191505b5060019091019061028b565b925050505b919050565b600254604051638cba76b160e01b815260009183916060916001600160a01b0380851692638cba76b19261031d921690600401610f45565b60006040518083038186803b15801561033557600080fd5b505afa158015610349573d6000803e3d6000fd5b505050506040513d6000823e601f3d908101601f191682016040526103719190810190610da5565b905060405160200161038290610f22565b60405160208183030381529060405280519060200120816040516020016103a99190610f06565b6040516020818303038152906040528051906020012014156103d0576001925050506102e0565b6000925050506102e0565b600460209081526000928352604080842082529183529181902080548251601f6002600019610100600186161502019093169290920491820185900485028101850190935280835290928391908301828280156104795780601f1061044e57610100808354040283529160200191610479565b820191906000526020600020905b81548152906001019060200180831161045c57829003601f168201915b505050506001838101546002808601805460408051602061010097841615979097026000190190921693909304601f810186900486028201860190935282815295966001600160a01b0390931695929450919283018282801561051d5780601f106104f25761010080835404028352916020019161051d565b820191906000526020600020905b81548152906001019060200180831161050057829003601f168201915b5050505060038301805460408051602060026001851615610100026000190190941693909304601f81018490048402820184019092528181529495949350908301828280156105ad5780601f10610582576101008083540402835291602001916105ad565b820191906000526020600020905b81548152906001019060200180831161059057829003601f168201915b5050505050905084565b604051638cba76b160e01b815260009083908290610642906001600160a01b03841690638cba76b1906105ee908890600401610ffb565b60006040518083038186803b15801561060657600080fd5b505afa15801561061a573d6000803e3d6000fd5b505050506040513d6000823e601f3d908101601f191682016040526101319190810190610da5565b905080426103e802101561065b57600192505050610662565b6000925050505b92915050565b6001546001600160a01b031681565b6005602052816000526040600020818154811061069057fe5b6000918252602090912001546001600160a01b03169150829050565b6106b4610b46565b50604080518082019091528181526001600160a01b0383166020808301919091526000805460018101825590805282518051849360029093027f290decd9548b62a8d60345a988386fc84ba6bc95484008f6362f93160ef3e563019261071e928492910190610b5e565b5060209190910151600190910180546001600160a01b0319166001600160a01b03909216919091179055505050565b610755610bdc565b50604080516080810182528381526001600160a01b0385166020808301829052828401889052606083018590523360008181526005835285812080546001810182559082528382200180546001600160a01b031916851790559081526004825284812092815291815292902081518051929384936107d69284920190610b5e565b506020828101516001830180546001600160a01b0319166001600160a01b03909216919091179055604083015180516108159260028501920190610b5e565b5060608201518051610831916003840191602090910190610b5e565b5050505050505050565b604051638cba76b160e01b815260009083906060906001600160a01b03831690638cba76b19061086f908790600401611050565b60006040518083038186803b15801561088757600080fd5b505afa15801561089b573d6000803e3d6000fd5b505050506040513d6000823e601f3d908101601f191682016040526108c39190810190610da5565b90506040516020016108d490610f22565b60405160208183030381529060405280519060200120816040516020016108fb9190610f06565b60405160208183030381529060405280519060200120141561065b57600192505050610662565b6000818154811061092f57fe5b60009182526020918290206002918202018054604080516001831615610100026000190190921693909304601f8101859004850282018501909352828152909350918391908301828280156109c55780601f1061099a576101008083540402835291602001916109c5565b820191906000526020600020905b8154815290600101906020018083116109a857829003601f168201915b505050600190930154919250506001600160a01b031682565b6001600160a01b038116600090815260056020908152604091829020805483518184028101840190945280845260609392830182828015610a4857602002820191906000526020600020905b81546001600160a01b03168152600190910190602001808311610a2a575b50505050509050919050565b604051638cba76b160e01b8152606090839082906001600160a01b03831690638cba76b190610a8790879060040161109e565b60006040518083038186803b158015610a9f57600080fd5b505afa158015610ab3573d6000803e3d6000fd5b505050506040513d6000823e601f3d908101601f19168201604052610adb9190810190610da5565b95945050505050565b6001600160a01b031660009081526005602052604090205490565b600254604051638cba76b160e01b815260009183916060916001600160a01b0380851692638cba76b19261031d921690600401610fa2565b6002546001600160a01b031681565b60408051808201909152606081526000602082015290565b828054600181600116156101000203166002900490600052602060002090601f016020900481019282601f10610b9f57805160ff1916838001178555610bcc565b82800160010185558215610bcc579182015b82811115610bcc578251825591602001919060010190610bb1565b50610bd8929150610c0d565b5090565b60405180608001604052806060815260200160006001600160a01b0316815260200160608152602001606081525090565b61028291905b80821115610bd85760008155600101610c13565b80356001600160a01b038116811461066257600080fd5b600082601f830112610c4e578081fd5b8135610c61610c5c82611200565b6111d9565b9150808252836020828501011115610c7857600080fd5b8060208401602084013760009082016020015292915050565b600060208284031215610ca2578081fd5b610cac8383610c27565b9392505050565b60008060408385031215610cc5578081fd5b610ccf8484610c27565b9150610cde8460208501610c27565b90509250929050565b60008060408385031215610cf9578182fd5b82356001600160a01b0381168114610d0f578283fd5b9150602083013567ffffffffffffffff811115610d2a578182fd5b610d3685828601610c3e565b9150509250929050565b60008060408385031215610d52578182fd5b610d5c8484610c27565b946020939093013593505050565b600060208284031215610d7b578081fd5b813567ffffffffffffffff811115610d91578182fd5b610d9d84828501610c3e565b949350505050565b600060208284031215610db6578081fd5b815167ffffffffffffffff811115610dcc578182fd5b80830184601f820112610ddd578283fd5b80519150610ded610c5c83611200565b828152856020848401011115610e01578384fd5b610adb836020830160208501611224565b60008060008060808587031215610e27578182fd5b843567ffffffffffffffff80821115610e3e578384fd5b610e4a88838901610c3e565b9550610e598860208901610c27565b94506040870135915080821115610e6e578384fd5b610e7a88838901610c3e565b93506060870135915080821115610e8f578283fd5b50610e9c87828801610c3e565b91505092959194509250565b600060208284031215610eb9578081fd5b5035919050565b60008151808452610ed8816020860160208601611224565b601f01601f19169290920160200192915050565b60078152666469706c6f6d6160c81b602082015260400190565b60008251610f18818460208701611224565b9190910192915050565b6259657360e81b815260030190565b6001600160a01b0391909116815260200190565b6001600160a01b03919091168152606060208201819052601190820152707363686f6f6c436572746966696361746560781b608082015260a060408201819052600890820152671a5cd4d8da1bdbdb60c21b60c082015260e00190565b6001600160a01b03919091168152606060208201819052600b908201526a636572746966696361746560a81b608082015260a060408201819052600a908201526969734d696e697374727960b01b60c082015260e00190565b6001600160a01b038216815260606020820181905260009061101e908301610eec565b82810360409384015260128152714365727469666963617465456e644461746560701b60208201529190910192915050565b6001600160a01b0382168152606060208201819052600090611073908301610eec565b828103604093840152600b81526a1a5cd1dc98591d585d195960aa1b60208201529190910192915050565b6001600160a01b03821681526060602082018190526000906110c1908301610eec565b8281036040938401526008815267092a08ca6d0c2e6d60c31b60208201529190910192915050565b6020808252825182820181905260009190848201906040850190845b8181101561112a5783516001600160a01b031683529284019291840191600101611105565b50909695505050505050565b901515815260200190565b600060208252610cac6020830184610ec0565b6000604082526111676040830185610ec0565b905060018060a01b03831660208301529392505050565b6000608082526111916080830187610ec0565b6001600160a01b038616602084015282810360408401526111b28186610ec0565b83810360608501526111c48186610ec0565b98975050505050505050565b90815260200190565b60405181810167ffffffffffffffff811182821017156111f857600080fd5b604052919050565b600067ffffffffffffffff821115611216578081fd5b50601f01601f191660200190565b60005b8381101561123f578181015183820152602001611227565b8381111561124e576000848401525b5050505056fea26469706673582212203cf87d0d93a5f633c1038d1422deb79b24c0b9b8c4cf60f635782f1a08ac53e864736f6c63430006060033","opcodes":"PUSH1 0x80 PUSH1 0x40 MSTORE PUSH1 0x2 DUP1 SLOAD PUSH1 0x1 PUSH1 0x1 PUSH1 0xA0 SHL SUB NOT AND PUSH20 0xDE304FF69D56B15B6D47A7B985D3B620F2171DC OR SWAP1 SSTORE CALLVALUE DUP1 ISZERO PUSH2 0x36 JUMPI PUSH1 0x0 DUP1 REVERT JUMPDEST POP PUSH1 0x1 DUP1 SLOAD PUSH1 0x1 PUSH1 0x1 PUSH1 0xA0 SHL SUB NOT AND CALLER OR SWAP1 SSTORE PUSH2 0x128A DUP1 PUSH2 0x58 PUSH1 0x0 CODECOPY PUSH1 0x0 RETURN INVALID PUSH1 0x80 PUSH1 0x40 MSTORE CALLVALUE DUP1 ISZERO PUSH2 0x10 JUMPI PUSH1 0x0 DUP1 REVERT JUMPDEST POP PUSH1 0x4 CALLDATASIZE LT PUSH2 0x100 JUMPI PUSH1 0x0 CALLDATALOAD PUSH1 0xE0 SHR DUP1 PUSH4 0x5F460C91 GT PUSH2 0x97 JUMPI DUP1 PUSH4 0x82C10560 GT PUSH2 0x66 JUMPI DUP1 PUSH4 0x82C10560 EQ PUSH2 0x230 JUMPI DUP1 PUSH4 0x8A7F7F46 EQ PUSH2 0x250 JUMPI DUP1 PUSH4 0xBE87A975 EQ PUSH2 0x263 JUMPI DUP1 PUSH4 0xC89778B4 EQ PUSH2 0x276 JUMPI PUSH2 0x100 JUMP JUMPDEST DUP1 PUSH4 0x5F460C91 EQ PUSH2 0x1C9 JUMPI DUP1 PUSH4 0x61F0EFF9 EQ PUSH2 0x1DC JUMPI DUP1 PUSH4 0x719C0D04 EQ PUSH2 0x1EF JUMPI DUP1 PUSH4 0x7858B264 EQ PUSH2 0x210 JUMPI PUSH2 0x100 JUMP JUMPDEST DUP1 PUSH4 0x3AFE4F7C GT PUSH2 0xD3 JUMPI DUP1 PUSH4 0x3AFE4F7C EQ PUSH2 0x179 JUMPI DUP1 PUSH4 0x481C6A75 EQ PUSH2 0x18C JUMPI DUP1 PUSH4 0x4BC395BB EQ PUSH2 0x1A1 JUMPI DUP1 PUSH4 0x5624E7C9 EQ PUSH2 0x1B4 JUMPI PUSH2 0x100 JUMP JUMPDEST DUP1 PUSH4 0x1307B37 EQ PUSH2 0x105 JUMPI DUP1 PUSH4 0x1BD95155 EQ PUSH2 0x123 JUMPI DUP1 PUSH4 0x2DD8E5F0 EQ PUSH2 0x136 JUMPI DUP1 PUSH4 0x2E2CDE3A EQ PUSH2 0x156 JUMPI JUMPDEST PUSH1 0x0 DUP1 REVERT JUMPDEST PUSH2 0x10D PUSH2 0x27E JUMP JUMPDEST PUSH1 0x40 MLOAD PUSH2 0x11A SWAP2 SWAP1 PUSH2 0x11D0 JUMP JUMPDEST PUSH1 0x40 MLOAD DUP1 SWAP2 SUB SWAP1 RETURN JUMPDEST PUSH2 0x10D PUSH2 0x131 CALLDATASIZE PUSH1 0x4 PUSH2 0xD6A JUMP JUMPDEST PUSH2 0x285 JUMP JUMPDEST PUSH2 0x149 PUSH2 0x144 CALLDATASIZE PUSH1 0x4 PUSH2 0xC91 JUMP JUMPDEST PUSH2 0x2E5 JUMP JUMPDEST PUSH1 0x40 MLOAD PUSH2 0x11A SWAP2 SWAP1 PUSH2 0x1136 JUMP JUMPDEST PUSH2 0x169 PUSH2 0x164 CALLDATASIZE PUSH1 0x4 PUSH2 0xCB3 JUMP JUMPDEST PUSH2 0x3DB JUMP JUMPDEST PUSH1 0x40 MLOAD PUSH2 0x11A SWAP5 SWAP4 SWAP3 SWAP2 SWAP1 PUSH2 0x117E JUMP JUMPDEST PUSH2 0x149 PUSH2 0x187 CALLDATASIZE PUSH1 0x4 PUSH2 0xCB3 JUMP JUMPDEST PUSH2 0x5B7 JUMP JUMPDEST PUSH2 0x194 PUSH2 0x668 JUMP JUMPDEST PUSH1 0x40 MLOAD PUSH2 0x11A SWAP2 SWAP1 PUSH2 0xF31 JUMP JUMPDEST PUSH2 0x194 PUSH2 0x1AF CALLDATASIZE PUSH1 0x4 PUSH2 0xD40 JUMP JUMPDEST PUSH2 0x677 JUMP JUMPDEST PUSH2 0x1C7 PUSH2 0x1C2 CALLDATASIZE PUSH1 0x4 PUSH2 0xCE7 JUMP JUMPDEST PUSH2 0x6AC JUMP JUMPDEST STOP JUMPDEST PUSH2 0x1C7 PUSH2 0x1D7 CALLDATASIZE PUSH1 0x4 PUSH2 0xE12 JUMP JUMPDEST PUSH2 0x74D JUMP JUMPDEST PUSH2 0x149 PUSH2 0x1EA CALLDATASIZE PUSH1 0x4 PUSH2 0xCB3 JUMP JUMPDEST PUSH2 0x83B JUMP JUMPDEST PUSH2 0x202 PUSH2 0x1FD CALLDATASIZE PUSH1 0x4 PUSH2 0xEA8 JUMP JUMPDEST PUSH2 0x922 JUMP JUMPDEST PUSH1 0x40 MLOAD PUSH2 0x11A SWAP3 SWAP2 SWAP1 PUSH2 0x1154 JUMP JUMPDEST PUSH2 0x223 PUSH2 0x21E CALLDATASIZE PUSH1 0x4 PUSH2 0xC91 JUMP JUMPDEST PUSH2 0x9DE JUMP JUMPDEST PUSH1 0x40 MLOAD PUSH2 0x11A SWAP2 SWAP1 PUSH2 0x10E9 JUMP JUMPDEST PUSH2 0x243 PUSH2 0x23E CALLDATASIZE PUSH1 0x4 PUSH2 0xCB3 JUMP JUMPDEST PUSH2 0xA54 JUMP JUMPDEST PUSH1 0x40 MLOAD PUSH2 0x11A SWAP2 SWAP1 PUSH2 0x1141 JUMP JUMPDEST PUSH2 0x10D PUSH2 0x25E CALLDATASIZE PUSH1 0x4 PUSH2 0xC91 JUMP JUMPDEST PUSH2 0xAE4 JUMP JUMPDEST PUSH2 0x149 PUSH2 0x271 CALLDATASIZE PUSH1 0x4 PUSH2 0xC91 JUMP JUMPDEST PUSH2 0xAFF JUMP JUMPDEST PUSH2 0x194 PUSH2 0xB37 JUMP JUMPDEST PUSH1 0x0 SLOAD JUMPDEST SWAP1 JUMP JUMPDEST PUSH1 0x0 DUP2 DUP2 DUP1 JUMPDEST DUP3 MLOAD DUP3 LT ISZERO PUSH2 0x2DB JUMPI PUSH1 0x0 DUP4 DUP4 DUP2 MLOAD DUP2 LT PUSH2 0x2A2 JUMPI INVALID JUMPDEST ADD PUSH1 0x20 ADD MLOAD PUSH1 0xF8 SHR SWAP1 POP PUSH1 0x30 DUP2 LT DUP1 ISZERO SWAP1 PUSH2 0x2BE JUMPI POP PUSH1 0x39 DUP2 GT ISZERO JUMPDEST ISZERO PUSH2 0x2CF JUMPI PUSH1 0x30 DUP2 SUB DUP3 PUSH1 0xA MUL ADD SWAP2 POP JUMPDEST POP PUSH1 0x1 SWAP1 SWAP2 ADD SWAP1 PUSH2 0x28B JUMP JUMPDEST SWAP3 POP POP POP JUMPDEST SWAP2 SWAP1 POP JUMP JUMPDEST PUSH1 0x2 SLOAD PUSH1 0x40 MLOAD PUSH4 0x8CBA76B1 PUSH1 0xE0 SHL DUP2 MSTORE PUSH1 0x0 SWAP2 DUP4 SWAP2 PUSH1 0x60 SWAP2 PUSH1 0x1 PUSH1 0x1 PUSH1 0xA0 SHL SUB DUP1 DUP6 AND SWAP3 PUSH4 0x8CBA76B1 SWAP3 PUSH2 0x31D SWAP3 AND SWAP1 PUSH1 0x4 ADD PUSH2 0xF45 JUMP JUMPDEST PUSH1 0x0 PUSH1 0x40 MLOAD DUP1 DUP4 SUB DUP2 DUP7 DUP1 EXTCODESIZE ISZERO DUP1 ISZERO PUSH2 0x335 JUMPI PUSH1 0x0 DUP1 REVERT JUMPDEST POP GAS STATICCALL ISZERO DUP1 ISZERO PUSH2 0x349 JUMPI RETURNDATASIZE PUSH1 0x0 DUP1 RETURNDATACOPY RETURNDATASIZE PUSH1 0x0 REVERT JUMPDEST POP POP POP POP PUSH1 0x40 MLOAD RETURNDATASIZE PUSH1 0x0 DUP3 RETURNDATACOPY PUSH1 0x1F RETURNDATASIZE SWAP1 DUP2 ADD PUSH1 0x1F NOT AND DUP3 ADD PUSH1 0x40 MSTORE PUSH2 0x371 SWAP2 SWAP1 DUP2 ADD SWAP1 PUSH2 0xDA5 JUMP JUMPDEST SWAP1 POP PUSH1 0x40 MLOAD PUSH1 0x20 ADD PUSH2 0x382 SWAP1 PUSH2 0xF22 JUMP JUMPDEST PUSH1 0x40 MLOAD PUSH1 0x20 DUP2 DUP4 SUB SUB DUP2 MSTORE SWAP1 PUSH1 0x40 MSTORE DUP1 MLOAD SWAP1 PUSH1 0x20 ADD KECCAK256 DUP2 PUSH1 0x40 MLOAD PUSH1 0x20 ADD PUSH2 0x3A9 SWAP2 SWAP1 PUSH2 0xF06 JUMP JUMPDEST PUSH1 0x40 MLOAD PUSH1 0x20 DUP2 DUP4 SUB SUB DUP2 MSTORE SWAP1 PUSH1 0x40 MSTORE DUP1 MLOAD SWAP1 PUSH1 0x20 ADD KECCAK256 EQ ISZERO PUSH2 0x3D0 JUMPI PUSH1 0x1 SWAP3 POP POP POP PUSH2 0x2E0 JUMP JUMPDEST PUSH1 0x0 SWAP3 POP POP POP PUSH2 0x2E0 JUMP JUMPDEST PUSH1 0x4 PUSH1 0x20 SWAP1 DUP2 MSTORE PUSH1 0x0 SWAP3 DUP4 MSTORE PUSH1 0x40 DUP1 DUP5 KECCAK256 DUP3 MSTORE SWAP2 DUP4 MSTORE SWAP2 DUP2 SWAP1 KECCAK256 DUP1 SLOAD DUP3 MLOAD PUSH1 0x1F PUSH1 0x2 PUSH1 0x0 NOT PUSH2 0x100 PUSH1 0x1 DUP7 AND ISZERO MUL ADD SWAP1 SWAP4 AND SWAP3 SWAP1 SWAP3 DIV SWAP2 DUP3 ADD DUP6 SWAP1 DIV DUP6 MUL DUP2 ADD DUP6 ADD SWAP1 SWAP4 MSTORE DUP1 DUP4 MSTORE SWAP1 SWAP3 DUP4 SWAP2 SWAP1 DUP4 ADD DUP3 DUP3 DUP1 ISZERO PUSH2 0x479 JUMPI DUP1 PUSH1 0x1F LT PUSH2 0x44E JUMPI PUSH2 0x100 DUP1 DUP4 SLOAD DIV MUL DUP4 MSTORE SWAP2 PUSH1 0x20 ADD SWAP2 PUSH2 0x479 JUMP JUMPDEST DUP3 ADD SWAP2 SWAP1 PUSH1 0x0 MSTORE PUSH1 0x20 PUSH1 0x0 KECCAK256 SWAP1 JUMPDEST DUP2 SLOAD DUP2 MSTORE SWAP1 PUSH1 0x1 ADD SWAP1 PUSH1 0x20 ADD DUP1 DUP4 GT PUSH2 0x45C JUMPI DUP3 SWAP1 SUB PUSH1 0x1F AND DUP3 ADD SWAP2 JUMPDEST POP POP POP POP PUSH1 0x1 DUP4 DUP2 ADD SLOAD PUSH1 0x2 DUP1 DUP7 ADD DUP1 SLOAD PUSH1 0x40 DUP1 MLOAD PUSH1 0x20 PUSH2 0x100 SWAP8 DUP5 AND ISZERO SWAP8 SWAP1 SWAP8 MUL PUSH1 0x0 NOT ADD SWAP1 SWAP3 AND SWAP4 SWAP1 SWAP4 DIV PUSH1 0x1F DUP2 ADD DUP7 SWAP1 DIV DUP7 MUL DUP3 ADD DUP7 ADD SWAP1 SWAP4 MSTORE DUP3 DUP2 MSTORE SWAP6 SWAP7 PUSH1 0x1 PUSH1 0x1 PUSH1 0xA0 SHL SUB SWAP1 SWAP4 AND SWAP6 SWAP3 SWAP5 POP SWAP2 SWAP3 DUP4 ADD DUP3 DUP3 DUP1 ISZERO PUSH2 0x51D JUMPI DUP1 PUSH1 0x1F LT PUSH2 0x4F2 JUMPI PUSH2 0x100 DUP1 DUP4 SLOAD DIV MUL DUP4 MSTORE SWAP2 PUSH1 0x20 ADD SWAP2 PUSH2 0x51D JUMP JUMPDEST DUP3 ADD SWAP2 SWAP1 PUSH1 0x0 MSTORE PUSH1 0x20 PUSH1 0x0 KECCAK256 SWAP1 JUMPDEST DUP2 SLOAD DUP2 MSTORE SWAP1 PUSH1 0x1 ADD SWAP1 PUSH1 0x20 ADD DUP1 DUP4 GT PUSH2 0x500 JUMPI DUP3 SWAP1 SUB PUSH1 0x1F AND DUP3 ADD SWAP2 JUMPDEST POP POP POP POP PUSH1 0x3 DUP4 ADD DUP1 SLOAD PUSH1 0x40 DUP1 MLOAD PUSH1 0x20 PUSH1 0x2 PUSH1 0x1 DUP6 AND ISZERO PUSH2 0x100 MUL PUSH1 0x0 NOT ADD SWAP1 SWAP5 AND SWAP4 SWAP1 SWAP4 DIV PUSH1 0x1F DUP2 ADD DUP5 SWAP1 DIV DUP5 MUL DUP3 ADD DUP5 ADD SWAP1 SWAP3 MSTORE DUP2 DUP2 MSTORE SWAP5 SWAP6 SWAP5 SWAP4 POP SWAP1 DUP4 ADD DUP3 DUP3 DUP1 ISZERO PUSH2 0x5AD JUMPI DUP1 PUSH1 0x1F LT PUSH2 0x582 JUMPI PUSH2 0x100 DUP1 DUP4 SLOAD DIV MUL DUP4 MSTORE SWAP2 PUSH1 0x20 ADD SWAP2 PUSH2 0x5AD JUMP JUMPDEST DUP3 ADD SWAP2 SWAP1 PUSH1 0x0 MSTORE PUSH1 0x20 PUSH1 0x0 KECCAK256 SWAP1 JUMPDEST DUP2 SLOAD DUP2 MSTORE SWAP1 PUSH1 0x1 ADD SWAP1 PUSH1 0x20 ADD DUP1 DUP4 GT PUSH2 0x590 JUMPI DUP3 SWAP1 SUB PUSH1 0x1F AND DUP3 ADD SWAP2 JUMPDEST POP POP POP POP POP SWAP1 POP DUP5 JUMP JUMPDEST PUSH1 0x40 MLOAD PUSH4 0x8CBA76B1 PUSH1 0xE0 SHL DUP2 MSTORE PUSH1 0x0 SWAP1 DUP4 SWAP1 DUP3 SWAP1 PUSH2 0x642 SWAP1 PUSH1 0x1 PUSH1 0x1 PUSH1 0xA0 SHL SUB DUP5 AND SWAP1 PUSH4 0x8CBA76B1 SWAP1 PUSH2 0x5EE SWAP1 DUP9 SWAP1 PUSH1 0x4 ADD PUSH2 0xFFB JUMP JUMPDEST PUSH1 0x0 PUSH1 0x40 MLOAD DUP1 DUP4 SUB DUP2 DUP7 DUP1 EXTCODESIZE ISZERO DUP1 ISZERO PUSH2 0x606 JUMPI PUSH1 0x0 DUP1 REVERT JUMPDEST POP GAS STATICCALL ISZERO DUP1 ISZERO PUSH2 0x61A JUMPI RETURNDATASIZE PUSH1 0x0 DUP1 RETURNDATACOPY RETURNDATASIZE PUSH1 0x0 REVERT JUMPDEST POP POP POP POP PUSH1 0x40 MLOAD RETURNDATASIZE PUSH1 0x0 DUP3 RETURNDATACOPY PUSH1 0x1F RETURNDATASIZE SWAP1 DUP2 ADD PUSH1 0x1F NOT AND DUP3 ADD PUSH1 0x40 MSTORE PUSH2 0x131 SWAP2 SWAP1 DUP2 ADD SWAP1 PUSH2 0xDA5 JUMP JUMPDEST SWAP1 POP DUP1 TIMESTAMP PUSH2 0x3E8 MUL LT ISZERO PUSH2 0x65B JUMPI PUSH1 0x1 SWAP3 POP POP POP PUSH2 0x662 JUMP JUMPDEST PUSH1 0x0 SWAP3 POP POP POP JUMPDEST SWAP3 SWAP2 POP POP JUMP JUMPDEST PUSH1 0x1 SLOAD PUSH1 0x1 PUSH1 0x1 PUSH1 0xA0 SHL SUB AND DUP2 JUMP JUMPDEST PUSH1 0x5 PUSH1 0x20 MSTORE DUP2 PUSH1 0x0 MSTORE PUSH1 0x40 PUSH1 0x0 KECCAK256 DUP2 DUP2 SLOAD DUP2 LT PUSH2 0x690 JUMPI INVALID JUMPDEST PUSH1 0x0 SWAP2 DUP3 MSTORE PUSH1 0x20 SWAP1 SWAP2 KECCAK256 ADD SLOAD PUSH1 0x1 PUSH1 0x1 PUSH1 0xA0 SHL SUB AND SWAP2 POP DUP3 SWAP1 POP JUMP JUMPDEST PUSH2 0x6B4 PUSH2 0xB46 JUMP JUMPDEST POP PUSH1 0x40 DUP1 MLOAD DUP1 DUP3 ADD SWAP1 SWAP2 MSTORE DUP2 DUP2 MSTORE PUSH1 0x1 PUSH1 0x1 PUSH1 0xA0 SHL SUB DUP4 AND PUSH1 0x20 DUP1 DUP4 ADD SWAP2 SWAP1 SWAP2 MSTORE PUSH1 0x0 DUP1 SLOAD PUSH1 0x1 DUP2 ADD DUP3 SSTORE SWAP1 DUP1 MSTORE DUP3 MLOAD DUP1 MLOAD DUP5 SWAP4 PUSH1 0x2 SWAP1 SWAP4 MUL PUSH32 0x290DECD9548B62A8D60345A988386FC84BA6BC95484008F6362F93160EF3E563 ADD SWAP3 PUSH2 0x71E SWAP3 DUP5 SWAP3 SWAP2 ADD SWAP1 PUSH2 0xB5E JUMP JUMPDEST POP PUSH1 0x20 SWAP2 SWAP1 SWAP2 ADD MLOAD PUSH1 0x1 SWAP1 SWAP2 ADD DUP1 SLOAD PUSH1 0x1 PUSH1 0x1 PUSH1 0xA0 SHL SUB NOT AND PUSH1 0x1 PUSH1 0x1 PUSH1 0xA0 SHL SUB SWAP1 SWAP3 AND SWAP2 SWAP1 SWAP2 OR SWAP1 SSTORE POP POP POP JUMP JUMPDEST PUSH2 0x755 PUSH2 0xBDC JUMP JUMPDEST POP PUSH1 0x40 DUP1 MLOAD PUSH1 0x80 DUP2 ADD DUP3 MSTORE DUP4 DUP2 MSTORE PUSH1 0x1 PUSH1 0x1 PUSH1 0xA0 SHL SUB DUP6 AND PUSH1 0x20 DUP1 DUP4 ADD DUP3 SWAP1 MSTORE DUP3 DUP5 ADD DUP9 SWAP1 MSTORE PUSH1 0x60 DUP4 ADD DUP6 SWAP1 MSTORE CALLER PUSH1 0x0 DUP2 DUP2 MSTORE PUSH1 0x5 DUP4 MSTORE DUP6 DUP2 KECCAK256 DUP1 SLOAD PUSH1 0x1 DUP2 ADD DUP3 SSTORE SWAP1 DUP3 MSTORE DUP4 DUP3 KECCAK256 ADD DUP1 SLOAD PUSH1 0x1 PUSH1 0x1 PUSH1 0xA0 SHL SUB NOT AND DUP6 OR SWAP1 SSTORE SWAP1 DUP2 MSTORE PUSH1 0x4 DUP3 MSTORE DUP5 DUP2 KECCAK256 SWAP3 DUP2 MSTORE SWAP2 DUP2 MSTORE SWAP3 SWAP1 KECCAK256 DUP2 MLOAD DUP1 MLOAD SWAP3 SWAP4 DUP5 SWAP4 PUSH2 0x7D6 SWAP3 DUP5 SWAP3 ADD SWAP1 PUSH2 0xB5E JUMP JUMPDEST POP PUSH1 0x20 DUP3 DUP2 ADD MLOAD PUSH1 0x1 DUP4 ADD DUP1 SLOAD PUSH1 0x1 PUSH1 0x1 PUSH1 0xA0 SHL SUB NOT AND PUSH1 0x1 PUSH1 0x1 PUSH1 0xA0 SHL SUB SWAP1 SWAP3 AND SWAP2 SWAP1 SWAP2 OR SWAP1 SSTORE PUSH1 0x40 DUP4 ADD MLOAD DUP1 MLOAD PUSH2 0x815 SWAP3 PUSH1 0x2 DUP6 ADD SWAP3 ADD SWAP1 PUSH2 0xB5E JUMP JUMPDEST POP PUSH1 0x60 DUP3 ADD MLOAD DUP1 MLOAD PUSH2 0x831 SWAP2 PUSH1 0x3 DUP5 ADD SWAP2 PUSH1 0x20 SWAP1 SWAP2 ADD SWAP1 PUSH2 0xB5E JUMP JUMPDEST POP POP POP POP POP POP POP POP JUMP JUMPDEST PUSH1 0x40 MLOAD PUSH4 0x8CBA76B1 PUSH1 0xE0 SHL DUP2 MSTORE PUSH1 0x0 SWAP1 DUP4 SWAP1 PUSH1 0x60 SWAP1 PUSH1 0x1 PUSH1 0x1 PUSH1 0xA0 SHL SUB DUP4 AND SWAP1 PUSH4 0x8CBA76B1 SWAP1 PUSH2 0x86F SWAP1 DUP8 SWAP1 PUSH1 0x4 ADD PUSH2 0x1050 JUMP JUMPDEST PUSH1 0x0 PUSH1 0x40 MLOAD DUP1 DUP4 SUB DUP2 DUP7 DUP1 EXTCODESIZE ISZERO DUP1 ISZERO PUSH2 0x887 JUMPI PUSH1 0x0 DUP1 REVERT JUMPDEST POP GAS STATICCALL ISZERO DUP1 ISZERO PUSH2 0x89B JUMPI RETURNDATASIZE PUSH1 0x0 DUP1 RETURNDATACOPY RETURNDATASIZE PUSH1 0x0 REVERT JUMPDEST POP POP POP POP PUSH1 0x40 MLOAD RETURNDATASIZE PUSH1 0x0 DUP3 RETURNDATACOPY PUSH1 0x1F RETURNDATASIZE SWAP1 DUP2 ADD PUSH1 0x1F NOT AND DUP3 ADD PUSH1 0x40 MSTORE PUSH2 0x8C3 SWAP2 SWAP1 DUP2 ADD SWAP1 PUSH2 0xDA5 JUMP JUMPDEST SWAP1 POP PUSH1 0x40 MLOAD PUSH1 0x20 ADD PUSH2 0x8D4 SWAP1 PUSH2 0xF22 JUMP JUMPDEST PUSH1 0x40 MLOAD PUSH1 0x20 DUP2 DUP4 SUB SUB DUP2 MSTORE SWAP1 PUSH1 0x40 MSTORE DUP1 MLOAD SWAP1 PUSH1 0x20 ADD KECCAK256 DUP2 PUSH1 0x40 MLOAD PUSH1 0x20 ADD PUSH2 0x8FB SWAP2 SWAP1 PUSH2 0xF06 JUMP JUMPDEST PUSH1 0x40 MLOAD PUSH1 0x20 DUP2 DUP4 SUB SUB DUP2 MSTORE SWAP1 PUSH1 0x40 MSTORE DUP1 MLOAD SWAP1 PUSH1 0x20 ADD KECCAK256 EQ ISZERO PUSH2 0x65B JUMPI PUSH1 0x1 SWAP3 POP POP POP PUSH2 0x662 JUMP JUMPDEST PUSH1 0x0 DUP2 DUP2 SLOAD DUP2 LT PUSH2 0x92F JUMPI INVALID JUMPDEST PUSH1 0x0 SWAP2 DUP3 MSTORE PUSH1 0x20 SWAP2 DUP3 SWAP1 KECCAK256 PUSH1 0x2 SWAP2 DUP3 MUL ADD DUP1 SLOAD PUSH1 0x40 DUP1 MLOAD PUSH1 0x1 DUP4 AND ISZERO PUSH2 0x100 MUL PUSH1 0x0 NOT ADD SWAP1 SWAP3 AND SWAP4 SWAP1 SWAP4 DIV PUSH1 0x1F DUP2 ADD DUP6 SWAP1 DIV DUP6 MUL DUP3 ADD DUP6 ADD SWAP1 SWAP4 MSTORE DUP3 DUP2 MSTORE SWAP1 SWAP4 POP SWAP2 DUP4 SWAP2 SWAP1 DUP4 ADD DUP3 DUP3 DUP1 ISZERO PUSH2 0x9C5 JUMPI DUP1 PUSH1 0x1F LT PUSH2 0x99A JUMPI PUSH2 0x100 DUP1 DUP4 SLOAD DIV MUL DUP4 MSTORE SWAP2 PUSH1 0x20 ADD SWAP2 PUSH2 0x9C5 JUMP JUMPDEST DUP3 ADD SWAP2 SWAP1 PUSH1 0x0 MSTORE PUSH1 0x20 PUSH1 0x0 KECCAK256 SWAP1 JUMPDEST DUP2 SLOAD DUP2 MSTORE SWAP1 PUSH1 0x1 ADD SWAP1 PUSH1 0x20 ADD DUP1 DUP4 GT PUSH2 0x9A8 JUMPI DUP3 SWAP1 SUB PUSH1 0x1F AND DUP3 ADD SWAP2 JUMPDEST POP POP POP PUSH1 0x1 SWAP1 SWAP4 ADD SLOAD SWAP2 SWAP3 POP POP PUSH1 0x1 PUSH1 0x1 PUSH1 0xA0 SHL SUB AND DUP3 JUMP JUMPDEST PUSH1 0x1 PUSH1 0x1 PUSH1 0xA0 SHL SUB DUP2 AND PUSH1 0x0 SWAP1 DUP2 MSTORE PUSH1 0x5 PUSH1 0x20 SWAP1 DUP2 MSTORE PUSH1 0x40 SWAP2 DUP3 SWAP1 KECCAK256 DUP1 SLOAD DUP4 MLOAD DUP2 DUP5 MUL DUP2 ADD DUP5 ADD SWAP1 SWAP5 MSTORE DUP1 DUP5 MSTORE PUSH1 0x60 SWAP4 SWAP3 DUP4 ADD DUP3 DUP3 DUP1 ISZERO PUSH2 0xA48 JUMPI PUSH1 0x20 MUL DUP3 ADD SWAP2 SWAP1 PUSH1 0x0 MSTORE PUSH1 0x20 PUSH1 0x0 KECCAK256 SWAP1 JUMPDEST DUP2 SLOAD PUSH1 0x1 PUSH1 0x1 PUSH1 0xA0 SHL SUB AND DUP2 MSTORE PUSH1 0x1 SWAP1 SWAP2 ADD SWAP1 PUSH1 0x20 ADD DUP1 DUP4 GT PUSH2 0xA2A JUMPI JUMPDEST POP POP POP POP POP SWAP1 POP SWAP2 SWAP1 POP JUMP JUMPDEST PUSH1 0x40 MLOAD PUSH4 0x8CBA76B1 PUSH1 0xE0 SHL DUP2 MSTORE PUSH1 0x60 SWAP1 DUP4 SWAP1 DUP3 SWAP1 PUSH1 0x1 PUSH1 0x1 PUSH1 0xA0 SHL SUB DUP4 AND SWAP1 PUSH4 0x8CBA76B1 SWAP1 PUSH2 0xA87 SWAP1 DUP8 SWAP1 PUSH1 0x4 ADD PUSH2 0x109E JUMP JUMPDEST PUSH1 0x0 PUSH1 0x40 MLOAD DUP1 DUP4 SUB DUP2 DUP7 DUP1 EXTCODESIZE ISZERO DUP1 ISZERO PUSH2 0xA9F JUMPI PUSH1 0x0 DUP1 REVERT JUMPDEST POP GAS STATICCALL ISZERO DUP1 ISZERO PUSH2 0xAB3 JUMPI RETURNDATASIZE PUSH1 0x0 DUP1 RETURNDATACOPY RETURNDATASIZE PUSH1 0x0 REVERT JUMPDEST POP POP POP POP PUSH1 0x40 MLOAD RETURNDATASIZE PUSH1 0x0 DUP3 RETURNDATACOPY PUSH1 0x1F RETURNDATASIZE SWAP1 DUP2 ADD PUSH1 0x1F NOT AND DUP3 ADD PUSH1 0x40 MSTORE PUSH2 0xADB SWAP2 SWAP1 DUP2 ADD SWAP1 PUSH2 0xDA5 JUMP JUMPDEST SWAP6 SWAP5 POP POP POP POP POP JUMP JUMPDEST PUSH1 0x1 PUSH1 0x1 PUSH1 0xA0 SHL SUB AND PUSH1 0x0 SWAP1 DUP2 MSTORE PUSH1 0x5 PUSH1 0x20 MSTORE PUSH1 0x40 SWAP1 KECCAK256 SLOAD SWAP1 JUMP JUMPDEST PUSH1 0x2 SLOAD PUSH1 0x40 MLOAD PUSH4 0x8CBA76B1 PUSH1 0xE0 SHL DUP2 MSTORE PUSH1 0x0 SWAP2 DUP4 SWAP2 PUSH1 0x60 SWAP2 PUSH1 0x1 PUSH1 0x1 PUSH1 0xA0 SHL SUB DUP1 DUP6 AND SWAP3 PUSH4 0x8CBA76B1 SWAP3 PUSH2 0x31D SWAP3 AND SWAP1 PUSH1 0x4 ADD PUSH2 0xFA2 JUMP JUMPDEST PUSH1 0x2 SLOAD PUSH1 0x1 PUSH1 0x1 PUSH1 0xA0 SHL SUB AND DUP2 JUMP JUMPDEST PUSH1 0x40 DUP1 MLOAD DUP1 DUP3 ADD SWAP1 SWAP2 MSTORE PUSH1 0x60 DUP2 MSTORE PUSH1 0x0 PUSH1 0x20 DUP3 ADD MSTORE SWAP1 JUMP JUMPDEST DUP3 DUP1 SLOAD PUSH1 0x1 DUP2 PUSH1 0x1 AND ISZERO PUSH2 0x100 MUL SUB AND PUSH1 0x2 SWAP1 DIV SWAP1 PUSH1 0x0 MSTORE PUSH1 0x20 PUSH1 0x0 KECCAK256 SWAP1 PUSH1 0x1F ADD PUSH1 0x20 SWAP1 DIV DUP2 ADD SWAP3 DUP3 PUSH1 0x1F LT PUSH2 0xB9F JUMPI DUP1 MLOAD PUSH1 0xFF NOT AND DUP4 DUP1 ADD OR DUP6 SSTORE PUSH2 0xBCC JUMP JUMPDEST DUP3 DUP1 ADD PUSH1 0x1 ADD DUP6 SSTORE DUP3 ISZERO PUSH2 0xBCC JUMPI SWAP2 DUP3 ADD JUMPDEST DUP3 DUP2 GT ISZERO PUSH2 0xBCC JUMPI DUP3 MLOAD DUP3 SSTORE SWAP2 PUSH1 0x20 ADD SWAP2 SWAP1 PUSH1 0x1 ADD SWAP1 PUSH2 0xBB1 JUMP JUMPDEST POP PUSH2 0xBD8 SWAP3 SWAP2 POP PUSH2 0xC0D JUMP JUMPDEST POP SWAP1 JUMP JUMPDEST PUSH1 0x40 MLOAD DUP1 PUSH1 0x80 ADD PUSH1 0x40 MSTORE DUP1 PUSH1 0x60 DUP2 MSTORE PUSH1 0x20 ADD PUSH1 0x0 PUSH1 0x1 PUSH1 0x1 PUSH1 0xA0 SHL SUB AND DUP2 MSTORE PUSH1 0x20 ADD PUSH1 0x60 DUP2 MSTORE PUSH1 0x20 ADD PUSH1 0x60 DUP2 MSTORE POP SWAP1 JUMP JUMPDEST PUSH2 0x282 SWAP2 SWAP1 JUMPDEST DUP1 DUP3 GT ISZERO PUSH2 0xBD8 JUMPI PUSH1 0x0 DUP2 SSTORE PUSH1 0x1 ADD PUSH2 0xC13 JUMP JUMPDEST DUP1 CALLDATALOAD PUSH1 0x1 PUSH1 0x1 PUSH1 0xA0 SHL SUB DUP2 AND DUP2 EQ PUSH2 0x662 JUMPI PUSH1 0x0 DUP1 REVERT JUMPDEST PUSH1 0x0 DUP3 PUSH1 0x1F DUP4 ADD SLT PUSH2 0xC4E JUMPI DUP1 DUP2 REVERT JUMPDEST DUP2 CALLDATALOAD PUSH2 0xC61 PUSH2 0xC5C DUP3 PUSH2 0x1200 JUMP JUMPDEST PUSH2 0x11D9 JUMP JUMPDEST SWAP2 POP DUP1 DUP3 MSTORE DUP4 PUSH1 0x20 DUP3 DUP6 ADD ADD GT ISZERO PUSH2 0xC78 JUMPI PUSH1 0x0 DUP1 REVERT JUMPDEST DUP1 PUSH1 0x20 DUP5 ADD PUSH1 0x20 DUP5 ADD CALLDATACOPY PUSH1 0x0 SWAP1 DUP3 ADD PUSH1 0x20 ADD MSTORE SWAP3 SWAP2 POP POP JUMP JUMPDEST PUSH1 0x0 PUSH1 0x20 DUP3 DUP5 SUB SLT ISZERO PUSH2 0xCA2 JUMPI DUP1 DUP2 REVERT JUMPDEST PUSH2 0xCAC DUP4 DUP4 PUSH2 0xC27 JUMP JUMPDEST SWAP4 SWAP3 POP POP POP JUMP JUMPDEST PUSH1 0x0 DUP1 PUSH1 0x40 DUP4 DUP6 SUB SLT ISZERO PUSH2 0xCC5 JUMPI DUP1 DUP2 REVERT JUMPDEST PUSH2 0xCCF DUP5 DUP5 PUSH2 0xC27 JUMP JUMPDEST SWAP2 POP PUSH2 0xCDE DUP5 PUSH1 0x20 DUP6 ADD PUSH2 0xC27 JUMP JUMPDEST SWAP1 POP SWAP3 POP SWAP3 SWAP1 POP JUMP JUMPDEST PUSH1 0x0 DUP1 PUSH1 0x40 DUP4 DUP6 SUB SLT ISZERO PUSH2 0xCF9 JUMPI DUP2 DUP3 REVERT JUMPDEST DUP3 CALLDATALOAD PUSH1 0x1 PUSH1 0x1 PUSH1 0xA0 SHL SUB DUP2 AND DUP2 EQ PUSH2 0xD0F JUMPI DUP3 DUP4 REVERT JUMPDEST SWAP2 POP PUSH1 0x20 DUP4 ADD CALLDATALOAD PUSH8 0xFFFFFFFFFFFFFFFF DUP2 GT ISZERO PUSH2 0xD2A JUMPI DUP2 DUP3 REVERT JUMPDEST PUSH2 0xD36 DUP6 DUP3 DUP7 ADD PUSH2 0xC3E JUMP JUMPDEST SWAP2 POP POP SWAP3 POP SWAP3 SWAP1 POP JUMP JUMPDEST PUSH1 0x0 DUP1 PUSH1 0x40 DUP4 DUP6 SUB SLT ISZERO PUSH2 0xD52 JUMPI DUP2 DUP3 REVERT JUMPDEST PUSH2 0xD5C DUP5 DUP5 PUSH2 0xC27 JUMP JUMPDEST SWAP5 PUSH1 0x20 SWAP4 SWAP1 SWAP4 ADD CALLDATALOAD SWAP4 POP POP POP JUMP JUMPDEST PUSH1 0x0 PUSH1 0x20 DUP3 DUP5 SUB SLT ISZERO PUSH2 0xD7B JUMPI DUP1 DUP2 REVERT JUMPDEST DUP2 CALLDATALOAD PUSH8 0xFFFFFFFFFFFFFFFF DUP2 GT ISZERO PUSH2 0xD91 JUMPI DUP2 DUP3 REVERT JUMPDEST PUSH2 0xD9D DUP5 DUP3 DUP6 ADD PUSH2 0xC3E JUMP JUMPDEST SWAP5 SWAP4 POP POP POP POP JUMP JUMPDEST PUSH1 0x0 PUSH1 0x20 DUP3 DUP5 SUB SLT ISZERO PUSH2 0xDB6 JUMPI DUP1 DUP2 REVERT JUMPDEST DUP2 MLOAD PUSH8 0xFFFFFFFFFFFFFFFF DUP2 GT ISZERO PUSH2 0xDCC JUMPI DUP2 DUP3 REVERT JUMPDEST DUP1 DUP4 ADD DUP5 PUSH1 0x1F DUP3 ADD SLT PUSH2 0xDDD JUMPI DUP3 DUP4 REVERT JUMPDEST DUP1 MLOAD SWAP2 POP PUSH2 0xDED PUSH2 0xC5C DUP4 PUSH2 0x1200 JUMP JUMPDEST DUP3 DUP2 MSTORE DUP6 PUSH1 0x20 DUP5 DUP5 ADD ADD GT ISZERO PUSH2 0xE01 JUMPI DUP4 DUP5 REVERT JUMPDEST PUSH2 0xADB DUP4 PUSH1 0x20 DUP4 ADD PUSH1 0x20 DUP6 ADD PUSH2 0x1224 JUMP JUMPDEST PUSH1 0x0 DUP1 PUSH1 0x0 DUP1 PUSH1 0x80 DUP6 DUP8 SUB SLT ISZERO PUSH2 0xE27 JUMPI DUP2 DUP3 REVERT JUMPDEST DUP5 CALLDATALOAD PUSH8 0xFFFFFFFFFFFFFFFF DUP1 DUP3 GT ISZERO PUSH2 0xE3E JUMPI DUP4 DUP5 REVERT JUMPDEST PUSH2 0xE4A DUP9 DUP4 DUP10 ADD PUSH2 0xC3E JUMP JUMPDEST SWAP6 POP PUSH2 0xE59 DUP9 PUSH1 0x20 DUP10 ADD PUSH2 0xC27 JUMP JUMPDEST SWAP5 POP PUSH1 0x40 DUP8 ADD CALLDATALOAD SWAP2 POP DUP1 DUP3 GT ISZERO PUSH2 0xE6E JUMPI DUP4 DUP5 REVERT JUMPDEST PUSH2 0xE7A DUP9 DUP4 DUP10 ADD PUSH2 0xC3E JUMP JUMPDEST SWAP4 POP PUSH1 0x60 DUP8 ADD CALLDATALOAD SWAP2 POP DUP1 DUP3 GT ISZERO PUSH2 0xE8F JUMPI DUP3 DUP4 REVERT JUMPDEST POP PUSH2 0xE9C DUP8 DUP3 DUP9 ADD PUSH2 0xC3E JUMP JUMPDEST SWAP2 POP POP SWAP3 SWAP6 SWAP2 SWAP5 POP SWAP3 POP JUMP JUMPDEST PUSH1 0x0 PUSH1 0x20 DUP3 DUP5 SUB SLT ISZERO PUSH2 0xEB9 JUMPI DUP1 DUP2 REVERT JUMPDEST POP CALLDATALOAD SWAP2 SWAP1 POP JUMP JUMPDEST PUSH1 0x0 DUP2 MLOAD DUP1 DUP5 MSTORE PUSH2 0xED8 DUP2 PUSH1 0x20 DUP7 ADD PUSH1 0x20 DUP7 ADD PUSH2 0x1224 JUMP JUMPDEST PUSH1 0x1F ADD PUSH1 0x1F NOT AND SWAP3 SWAP1 SWAP3 ADD PUSH1 0x20 ADD SWAP3 SWAP2 POP POP JUMP JUMPDEST PUSH1 0x7 DUP2 MSTORE PUSH7 0x6469706C6F6D61 PUSH1 0xC8 SHL PUSH1 0x20 DUP3 ADD MSTORE PUSH1 0x40 ADD SWAP1 JUMP JUMPDEST PUSH1 0x0 DUP3 MLOAD PUSH2 0xF18 DUP2 DUP5 PUSH1 0x20 DUP8 ADD PUSH2 0x1224 JUMP JUMPDEST SWAP2 SWAP1 SWAP2 ADD SWAP3 SWAP2 POP POP JUMP JUMPDEST PUSH3 0x596573 PUSH1 0xE8 SHL DUP2 MSTORE PUSH1 0x3 ADD SWAP1 JUMP JUMPDEST PUSH1 0x1 PUSH1 0x1 PUSH1 0xA0 SHL SUB SWAP2 SWAP1 SWAP2 AND DUP2 MSTORE PUSH1 0x20 ADD SWAP1 JUMP JUMPDEST PUSH1 0x1 PUSH1 0x1 PUSH1 0xA0 SHL SUB SWAP2 SWAP1 SWAP2 AND DUP2 MSTORE PUSH1 0x60 PUSH1 0x20 DUP3 ADD DUP2 SWAP1 MSTORE PUSH1 0x11 SWAP1 DUP3 ADD MSTORE PUSH17 0x7363686F6F6C4365727469666963617465 PUSH1 0x78 SHL PUSH1 0x80 DUP3 ADD MSTORE PUSH1 0xA0 PUSH1 0x40 DUP3 ADD DUP2 SWAP1 MSTORE PUSH1 0x8 SWAP1 DUP3 ADD MSTORE PUSH8 0x1A5CD4D8DA1BDBDB PUSH1 0xC2 SHL PUSH1 0xC0 DUP3 ADD MSTORE PUSH1 0xE0 ADD SWAP1 JUMP JUMPDEST PUSH1 0x1 PUSH1 0x1 PUSH1 0xA0 SHL SUB SWAP2 SWAP1 SWAP2 AND DUP2 MSTORE PUSH1 0x60 PUSH1 0x20 DUP3 ADD DUP2 SWAP1 MSTORE PUSH1 0xB SWAP1 DUP3 ADD MSTORE PUSH11 0x6365727469666963617465 PUSH1 0xA8 SHL PUSH1 0x80 DUP3 ADD MSTORE PUSH1 0xA0 PUSH1 0x40 DUP3 ADD DUP2 SWAP1 MSTORE PUSH1 0xA SWAP1 DUP3 ADD MSTORE PUSH10 0x69734D696E6973747279 PUSH1 0xB0 SHL PUSH1 0xC0 DUP3 ADD MSTORE PUSH1 0xE0 ADD SWAP1 JUMP JUMPDEST PUSH1 0x1 PUSH1 0x1 PUSH1 0xA0 SHL SUB DUP3 AND DUP2 MSTORE PUSH1 0x60 PUSH1 0x20 DUP3 ADD DUP2 SWAP1 MSTORE PUSH1 0x0 SWAP1 PUSH2 0x101E SWAP1 DUP4 ADD PUSH2 0xEEC JUMP JUMPDEST DUP3 DUP2 SUB PUSH1 0x40 SWAP4 DUP5 ADD MSTORE PUSH1 0x12 DUP2 MSTORE PUSH18 0x4365727469666963617465456E6444617465 PUSH1 0x70 SHL PUSH1 0x20 DUP3 ADD MSTORE SWAP2 SWAP1 SWAP2 ADD SWAP3 SWAP2 POP POP JUMP JUMPDEST PUSH1 0x1 PUSH1 0x1 PUSH1 0xA0 SHL SUB DUP3 AND DUP2 MSTORE PUSH1 0x60 PUSH1 0x20 DUP3 ADD DUP2 SWAP1 MSTORE PUSH1 0x0 SWAP1 PUSH2 0x1073 SWAP1 DUP4 ADD PUSH2 0xEEC JUMP JUMPDEST DUP3 DUP2 SUB PUSH1 0x40 SWAP4 DUP5 ADD MSTORE PUSH1 0xB DUP2 MSTORE PUSH11 0x1A5CD1DC98591D585D1959 PUSH1 0xAA SHL PUSH1 0x20 DUP3 ADD MSTORE SWAP2 SWAP1 SWAP2 ADD SWAP3 SWAP2 POP POP JUMP JUMPDEST PUSH1 0x1 PUSH1 0x1 PUSH1 0xA0 SHL SUB DUP3 AND DUP2 MSTORE PUSH1 0x60 PUSH1 0x20 DUP3 ADD DUP2 SWAP1 MSTORE PUSH1 0x0 SWAP1 PUSH2 0x10C1 SWAP1 DUP4 ADD PUSH2 0xEEC JUMP JUMPDEST DUP3 DUP2 SUB PUSH1 0x40 SWAP4 DUP5 ADD MSTORE PUSH1 0x8 DUP2 MSTORE PUSH8 0x92A08CA6D0C2E6D PUSH1 0xC3 SHL PUSH1 0x20 DUP3 ADD MSTORE SWAP2 SWAP1 SWAP2 ADD SWAP3 SWAP2 POP POP JUMP JUMPDEST PUSH1 0x20 DUP1 DUP3 MSTORE DUP3 MLOAD DUP3 DUP3 ADD DUP2 SWAP1 MSTORE PUSH1 0x0 SWAP2 SWAP1 DUP5 DUP3 ADD SWAP1 PUSH1 0x40 DUP6 ADD SWAP1 DUP5 JUMPDEST DUP2 DUP2 LT ISZERO PUSH2 0x112A JUMPI DUP4 MLOAD PUSH1 0x1 PUSH1 0x1 PUSH1 0xA0 SHL SUB AND DUP4 MSTORE SWAP3 DUP5 ADD SWAP3 SWAP2 DUP5 ADD SWAP2 PUSH1 0x1 ADD PUSH2 0x1105 JUMP JUMPDEST POP SWAP1 SWAP7 SWAP6 POP POP POP POP POP POP JUMP JUMPDEST SWAP1 ISZERO ISZERO DUP2 MSTORE PUSH1 0x20 ADD SWAP1 JUMP JUMPDEST PUSH1 0x0 PUSH1 0x20 DUP3 MSTORE PUSH2 0xCAC PUSH1 0x20 DUP4 ADD DUP5 PUSH2 0xEC0 JUMP JUMPDEST PUSH1 0x0 PUSH1 0x40 DUP3 MSTORE PUSH2 0x1167 PUSH1 0x40 DUP4 ADD DUP6 PUSH2 0xEC0 JUMP JUMPDEST SWAP1 POP PUSH1 0x1 DUP1 PUSH1 0xA0 SHL SUB DUP4 AND PUSH1 0x20 DUP4 ADD MSTORE SWAP4 SWAP3 POP POP POP JUMP JUMPDEST PUSH1 0x0 PUSH1 0x80 DUP3 MSTORE PUSH2 0x1191 PUSH1 0x80 DUP4 ADD DUP8 PUSH2 0xEC0 JUMP JUMPDEST PUSH1 0x1 PUSH1 0x1 PUSH1 0xA0 SHL SUB DUP7 AND PUSH1 0x20 DUP5 ADD MSTORE DUP3 DUP2 SUB PUSH1 0x40 DUP5 ADD MSTORE PUSH2 0x11B2 DUP2 DUP7 PUSH2 0xEC0 JUMP JUMPDEST DUP4 DUP2 SUB PUSH1 0x60 DUP6 ADD MSTORE PUSH2 0x11C4 DUP2 DUP7 PUSH2 0xEC0 JUMP JUMPDEST SWAP9 SWAP8 POP POP POP POP POP POP POP POP JUMP JUMPDEST SWAP1 DUP2 MSTORE PUSH1 0x20 ADD SWAP1 JUMP JUMPDEST PUSH1 0x40 MLOAD DUP2 DUP2 ADD PUSH8 0xFFFFFFFFFFFFFFFF DUP2 GT DUP3 DUP3 LT OR ISZERO PUSH2 0x11F8 JUMPI PUSH1 0x0 DUP1 REVERT JUMPDEST PUSH1 0x40 MSTORE SWAP2 SWAP1 POP JUMP JUMPDEST PUSH1 0x0 PUSH8 0xFFFFFFFFFFFFFFFF DUP3 GT ISZERO PUSH2 0x1216 JUMPI DUP1 DUP2 REVERT JUMPDEST POP PUSH1 0x1F ADD PUSH1 0x1F NOT AND PUSH1 0x20 ADD SWAP1 JUMP JUMPDEST PUSH1 0x0 JUMPDEST DUP4 DUP2 LT ISZERO PUSH2 0x123F JUMPI DUP2 DUP2 ADD MLOAD DUP4 DUP3 ADD MSTORE PUSH1 0x20 ADD PUSH2 0x1227 JUMP JUMPDEST DUP4 DUP2 GT ISZERO PUSH2 0x124E JUMPI PUSH1 0x0 DUP5 DUP5 ADD MSTORE JUMPDEST POP POP POP POP JUMP INVALID LOG2 PUSH5 0x6970667358 0x22 SLT KECCAK256 EXTCODECOPY 0xF8 PUSH30 0xD93A5F633C1038D1422DEB79B24C0B9B8C4CF60F635782F1A08AC53E864 PUSH20 0x6F6C634300060600330000000000000000000000 "},"gasEstimates":{"creation":{"codeDepositCost":"949200","executionCost":"42659","totalCost":"991859"},"external":{"addNewSchool(address,string)":"infinite","existence(address,address)":"infinite","expired(address,address)":"infinite","getDeployedCerts(address)":"1319","getIPFS(address,address)":"infinite","getSchoolsCount()":"1053","getStudentList(address)":"infinite","manager()":"1115","ministryEntity()":"1158","ministryLogin(address)":"infinite","schoolOwnedCert(address,address)":"infinite","schoolOwnedStudent(address,uint256)":"2280","schools(uint256)":"infinite","stringToUint(string)":"infinite","upload(string,address,string,string)":"infinite","verifyIsSchool(address)":"infinite"}},"methodIdentifiers":{"addNewSchool(address,string)":"5624e7c9","existence(address,address)":"61f0eff9","expired(address,address)":"3afe4f7c","getDeployedCerts(address)":"8a7f7f46","getIPFS(address,address)":"82c10560","getSchoolsCount()":"01307b37","getStudentList(address)":"7858b264","manager()":"481c6a75","ministryEntity()":"c89778b4","ministryLogin(address)":"be87a975","schoolOwnedCert(address,address)":"2e2cde3a","schoolOwnedStudent(address,uint256)":"4bc395bb","schools(uint256)":"719c0d04","stringToUint(string)":"1bd95155","upload(string,address,string,string)":"5f460c91","verifyIsSchool(address)":"2dd8e5f0"}},"storageLayout":{"storage":[{"astId":1125,"contract":"Verify.sol:Verify","label":"schools","offset":0,"slot":"0","type":"t_array(t_struct(School)1113_storage)dyn_storage"},{"astId":1127,"contract":"Verify.sol:Verify","label":"manager","offset":0,"slot":"1","type":"t_address"},{"astId":1130,"contract":"Verify.sol:Verify","label":"ministryEntity","offset":0,"slot":"2","type":"t_address"},{"astId":1134,"contract":"Verify.sol:Verify","label":"isSchool","offset":0,"slot":"3","type":"t_mapping(t_address,t_bool)"},{"astId":1140,"contract":"Verify.sol:Verify","label":"schoolOwnedCert","offset":0,"slot":"4","type":"t_mapping(t_address,t_mapping(t_address,t_struct(Certificate)1122_storage))"},{"astId":1145,"contract":"Verify.sol:Verify","label":"schoolOwnedStudent","offset":0,"slot":"5","type":"t_mapping(t_address,t_array(t_address)dyn_storage)"}],"types":{"t_address":{"encoding":"inplace","label":"address","numberOfBytes":"20"},"t_array(t_address)dyn_storage":{"base":"t_address","encoding":"dynamic_array","label":"address[]","numberOfBytes":"32"},"t_array(t_struct(School)1113_storage)dyn_storage":{"base":"t_struct(School)1113_storage","encoding":"dynamic_array","label":"struct Verify.School[]","numberOfBytes":"32"},"t_bool":{"encoding":"inplace","label":"bool","numberOfBytes":"1"},"t_mapping(t_address,t_array(t_address)dyn_storage)":{"encoding":"mapping","key":"t_address","label":"mapping(address => address[])","numberOfBytes":"32","value":"t_array(t_address)dyn_storage"},"t_mapping(t_address,t_bool)":{"encoding":"mapping","key":"t_address","label":"mapping(address => bool)","numberOfBytes":"32","value":"t_bool"},"t_mapping(t_address,t_mapping(t_address,t_struct(Certificate)1122_storage))":{"encoding":"mapping","key":"t_address","label":"mapping(address => mapping(address => struct Verify.Certificate))","numberOfBytes":"32","value":"t_mapping(t_address,t_struct(Certificate)1122_storage)"},"t_mapping(t_address,t_struct(Certificate)1122_storage)":{"encoding":"mapping","key":"t_address","label":"mapping(address => struct Verify.Certificate)","numberOfBytes":"32","value":"t_struct(Certificate)1122_storage"},"t_string_storage":{"encoding":"bytes","label":"string","numberOfBytes":"32"},"t_struct(Certificate)1122_storage":{"encoding":"inplace","label":"struct Verify.Certificate","members":[{"astId":1115,"contract":"Verify.sol:Verify","label":"name","offset":0,"slot":"0","type":"t_string_storage"},{"astId":1117,"contract":"Verify.sol:Verify","label":"studentAddr","offset":0,"slot":"1","type":"t_address"},{"astId":1119,"contract":"Verify.sol:Verify","label":"certHash","offset":0,"slot":"2","type":"t_string_storage"},{"astId":1121,"contract":"Verify.sol:Verify","label":"isGraduated","offset":0,"slot":"3","type":"t_string_storage"}],"numberOfBytes":"128"},"t_struct(School)1113_storage":{"encoding":"inplace","label":"struct Verify.School","members":[{"astId":1110,"contract":"Verify.sol:Verify","label":"name","offset":0,"slot":"0","type":"t_string_storage"},{"astId":1112,"contract":"Verify.sol:Verify","label":"schoolAddr","offset":0,"slot":"1","type":"t_address"}],"numberOfBytes":"64"}}},"userdoc":{"methods":{}}}