{"abi":[{"inputs":[],"stateMutability":"nonpayable","type":"constructor"},{"inputs":[{"internalType":"address","name":"schoolAddr","type":"address"},{"internalType":"string","name":"schoolName","type":"string"}],"name":"addNewSchool","outputs":[],"stateMutability":"nonpayable","type":"function"},{"inputs":[{"internalType":"address","name":"studentAddr","type":"address"},{"internalType":"address","name":"schoolAddr","type":"address"}],"name":"existence","outputs":[{"internalType":"bool","name":"","type":"bool"}],"stateMutability":"view","type":"function"},{"inputs":[{"internalType":"address","name":"studentAddr","type":"address"},{"internalType":"address","name":"schoolAddr","type":"address"}],"name":"expired","outputs":[{"internalType":"bool","name":"","type":"bool"}],"stateMutability":"view","type":"function"},{"inputs":[{"internalType":"address","name":"sender","type":"address"}],"name":"getDeployedCerts","outputs":[{"internalType":"uint256","name":"","type":"uint256"}],"stateMutability":"view","type":"function"},{"inputs":[{"internalType":"address","name":"studentAddr","type":"address"},{"internalType":"address","name":"schoolAddr","type":"address"}],"name":"getIPFS","outputs":[{"internalType":"string","name":"","type":"string"}],"stateMutability":"view","type":"function"},{"inputs":[],"name":"getSchoolsCount","outputs":[{"internalType":"uint256","name":"","type":"uint256"}],"stateMutability":"view","type":"function"},{"inputs":[{"internalType":"address","name":"sender","type":"address"}],"name":"getStudentList","outputs":[{"internalType":"address[]","name":"","type":"address[]"}],"stateMutability":"view","type":"function"},{"inputs":[],"name":"manager","outputs":[{"internalType":"address","name":"","type":"address"}],"stateMutability":"view","type":"function"},{"inputs":[],"name":"ministryEntity","outputs":[{"internalType":"address","name":"","type":"address"}],"stateMutability":"view","type":"function"},{"inputs":[{"internalType":"address","name":"ministryAddr","type":"address"}],"name":"ministryLogin","outputs":[{"internalType":"bool","name":"","type":"bool"}],"stateMutability":"view","type":"function"},{"inputs":[{"internalType":"address","name":"","type":"address"},{"internalType":"address","name":"","type":"address"}],"name":"schoolOwnedCert","outputs":[{"internalType":"string","name":"name","type":"string"},{"internalType":"address","name":"studentAddr","type":"address"},{"internalType":"string","name":"certHash","type":"string"},{"internalType":"string","name":"isGraduated","type":"string"}],"stateMutability":"view","type":"function"},{"inputs":[{"internalType":"address","name":"","type":"address"},{"internalType":"uint256","name":"","type":"uint256"}],"name":"schoolOwnedStudent","outputs":[{"internalType":"address","name":"","type":"address"}],"stateMutability":"view","type":"function"},{"inputs":[{"internalType":"uint256","name":"","type":"uint256"}],"name":"schools","outputs":[{"internalType":"string","name":"name","type":"string"},{"internalType":"address","name":"schoolAddr","type":"address"}],"stateMutability":"view","type":"function"},{"inputs":[{"internalType":"string","name":"s","type":"string"}],"name":"stringToUint","outputs":[{"internalType":"uint256","name":"","type":"uint256"}],"stateMutability":"pure","type":"function"},{"inputs":[{"internalType":"address","name":"school","type":"address"},{"internalType":"string","name":"hashValue","type":"string"},{"internalType":"address","name":"studentAddr","type":"address"},{"internalType":"string","name":"studentName","type":"string"},{"internalType":"string","name":"graduate","type":"string"}],"name":"upload","outputs":[],"stateMutability":"nonpayable","type":"function"},{"inputs":[{"internalType":"address","name":"schoolAddr","type":"address"}],"name":"verifyIsSchool","outputs":[{"internalType":"bool","name":"","type":"bool"}],"stateMutability":"view","type":"function"},{"inputs":[{"internalType":"address","name":"studentAddr","type":"address"},{"internalType":"address","name":"schoolAddr","type":"address"}],"name":"verifyMarkup","outputs":[{"internalType":"bool","name":"","type":"bool"}],"stateMutability":"view","type":"function"}],"devdoc":{"methods":{}},"evm":{"assembly":"    /* \"Verify.sol\":96:4504  contract Verify {\r... */\n  mstore(0x40, 0x80)\n    /* \"Verify.sol\":409:483  address public ministryEntity = 0x11d1b708790B3BA3c25FdB9fe7c0d5196A1d1689 */\n  0x02\n  dup1\n  sload\n  not(sub(shl(0xa0, 0x01), 0x01))\n  and\n    /* \"Verify.sol\":441:483  0x11d1b708790B3BA3c25FdB9fe7c0d5196A1d1689 */\n  0x11d1b708790b3ba3c25fdb9fe7c0d5196a1d1689\n    /* \"Verify.sol\":409:483  address public ministryEntity = 0x11d1b708790B3BA3c25FdB9fe7c0d5196A1d1689 */\n  or\n  swap1\n  sstore\n    /* \"Verify.sol\":685:745  constructor() public {\r... */\n  callvalue\n    /* \"--CODEGEN--\":2:4   */\n  dup1\n  iszero\n  tag_1\n  jumpi\n    /* \"--CODEGEN--\":27:28   */\n  0x00\n    /* \"--CODEGEN--\":24:25   */\n  dup1\n    /* \"--CODEGEN--\":17:29   */\n  revert\n    /* \"--CODEGEN--\":2:4   */\ntag_1:\n  pop\n    /* \"Verify.sol\":717:724  manager */\n  0x01\n    /* \"Verify.sol\":717:737  manager = msg.sender */\n  dup1\n  sload\n  not(sub(shl(0xa0, 0x01), 0x01))\n  and\n    /* \"Verify.sol\":727:737  msg.sender */\n  caller\n    /* \"Verify.sol\":717:737  manager = msg.sender */\n  or\n  swap1\n  sstore\n    /* \"Verify.sol\":96:4504  contract Verify {\r... */\n  dataSize(sub_0)\n  dup1\n  dataOffset(sub_0)\n  0x00\n  codecopy\n  0x00\n  return\nstop\n\nsub_0: assembly {\n        /* \"Verify.sol\":96:4504  contract Verify {\r... */\n      mstore(0x40, 0x80)\n      callvalue\n        /* \"--CODEGEN--\":5:14   */\n      dup1\n        /* \"--CODEGEN--\":2:4   */\n      iszero\n      tag_1\n      jumpi\n        /* \"--CODEGEN--\":27:28   */\n      0x00\n        /* \"--CODEGEN--\":24:25   */\n      dup1\n        /* \"--CODEGEN--\":17:29   */\n      revert\n        /* \"--CODEGEN--\":2:4   */\n    tag_1:\n        /* \"Verify.sol\":96:4504  contract Verify {\r... */\n      pop\n      jumpi(tag_2, lt(calldatasize, 0x04))\n      shr(0xe0, calldataload(0x00))\n      dup1\n      0x5624e7c9\n      gt\n      tag_20\n      jumpi\n      dup1\n      0x82c10560\n      gt\n      tag_21\n      jumpi\n      dup1\n      0x82c10560\n      eq\n      tag_15\n      jumpi\n      dup1\n      0x8a7f7f46\n      eq\n      tag_16\n      jumpi\n      dup1\n      0xb4490cc0\n      eq\n      tag_17\n      jumpi\n      dup1\n      0xbe87a975\n      eq\n      tag_18\n      jumpi\n      dup1\n      0xc89778b4\n      eq\n      tag_19\n      jumpi\n      jump(tag_2)\n    tag_21:\n      dup1\n      0x5624e7c9\n      eq\n      tag_11\n      jumpi\n      dup1\n      0x61f0eff9\n      eq\n      tag_12\n      jumpi\n      dup1\n      0x719c0d04\n      eq\n      tag_13\n      jumpi\n      dup1\n      0x7858b264\n      eq\n      tag_14\n      jumpi\n      jump(tag_2)\n    tag_20:\n      dup1\n      0x2e2cde3a\n      gt\n      tag_22\n      jumpi\n      dup1\n      0x2e2cde3a\n      eq\n      tag_7\n      jumpi\n      dup1\n      0x3afe4f7c\n      eq\n      tag_8\n      jumpi\n      dup1\n      0x481c6a75\n      eq\n      tag_9\n      jumpi\n      dup1\n      0x4bc395bb\n      eq\n      tag_10\n      jumpi\n      jump(tag_2)\n    tag_22:\n      dup1\n      0x01307b37\n      eq\n      tag_3\n      jumpi\n      dup1\n      0x0a0f01d3\n      eq\n      tag_4\n      jumpi\n      dup1\n      0x1bd95155\n      eq\n      tag_5\n      jumpi\n      dup1\n      0x2dd8e5f0\n      eq\n      tag_6\n      jumpi\n    tag_2:\n        /* \"--CODEGEN--\":12:13   */\n      0x00\n        /* \"--CODEGEN--\":9:10   */\n      dup1\n        /* \"--CODEGEN--\":2:14   */\n      revert\n        /* \"Verify.sol\":4118:4215  function getSchoolsCount() public view returns (uint256) {\r... */\n    tag_3:\n      tag_23\n      tag_24\n      jump\t// in\n    tag_23:\n      mload(0x40)\n      tag_25\n      swap2\n      swap1\n      jump(tag_26)\n    tag_25:\n      mload(0x40)\n      dup1\n      swap2\n      sub\n      swap1\n      return\n        /* \"Verify.sol\":1388:1860  function upload(address school, string memory hashValue, address studentAddr, string memory studentName, string memory graduate) public {\r... */\n    tag_4:\n      tag_27\n      tag_28\n      calldatasize\n      0x04\n      jump(tag_29)\n    tag_28:\n      tag_30\n      jump\t// in\n    tag_27:\n      stop\n        /* \"Verify.sol\":757:1123  function stringToUint(string memory s)public pure returns (uint) {\r... */\n    tag_5:\n      tag_23\n      tag_32\n      calldatasize\n      0x04\n      jump(tag_33)\n    tag_32:\n      tag_34\n      jump\t// in\n        /* \"Verify.sol\":2262:2651  function verifyIsSchool(address schoolAddr) public view returns (bool) {\r... */\n    tag_6:\n      tag_36\n      tag_37\n      calldatasize\n      0x04\n      jump(tag_38)\n    tag_37:\n      tag_39\n      jump\t// in\n    tag_36:\n      mload(0x40)\n      tag_25\n      swap2\n      swap1\n      jump(tag_41)\n        /* \"Verify.sol\":536:610  mapping(address => mapping(address => Certificate)) public schoolOwnedCert */\n    tag_7:\n      tag_42\n      tag_43\n      calldatasize\n      0x04\n      jump(tag_44)\n    tag_43:\n      tag_45\n      jump\t// in\n    tag_42:\n      mload(0x40)\n      tag_25\n      swap5\n      swap4\n      swap3\n      swap2\n      swap1\n      jump(tag_47)\n        /* \"Verify.sol\":3072:3411  function expired(address studentAddr, address schoolAddr) public view returns (bool) {\r... */\n    tag_8:\n      tag_36\n      tag_49\n      calldatasize\n      0x04\n      jump(tag_44)\n    tag_49:\n      tag_50\n      jump\t// in\n        /* \"Verify.sol\":380:402  address public manager */\n    tag_9:\n      tag_52\n      tag_53\n      jump\t// in\n    tag_52:\n      mload(0x40)\n      tag_25\n      swap2\n      swap1\n      jump(tag_55)\n        /* \"Verify.sol\":617:672  mapping(address => address[]) public schoolOwnedStudent */\n    tag_10:\n      tag_52\n      tag_57\n      calldatasize\n      0x04\n      jump(tag_58)\n    tag_57:\n      tag_59\n      jump\t// in\n        /* \"Verify.sol\":1135:1376  function addNewSchool(address schoolAddr, string memory schoolName) public {\r... */\n    tag_11:\n      tag_27\n      tag_62\n      calldatasize\n      0x04\n      jump(tag_63)\n    tag_62:\n      tag_64\n      jump\t// in\n        /* \"Verify.sol\":2659:3060  function existence(address studentAddr, address schoolAddr) public view returns (bool) {\r... */\n    tag_12:\n      tag_36\n      tag_66\n      calldatasize\n      0x04\n      jump(tag_44)\n    tag_66:\n      tag_67\n      jump\t// in\n        /* \"Verify.sol\":350:373  School[] public schools */\n    tag_13:\n      tag_69\n      tag_70\n      calldatasize\n      0x04\n      jump(tag_71)\n    tag_70:\n      tag_72\n      jump\t// in\n    tag_69:\n      mload(0x40)\n      tag_25\n      swap3\n      swap2\n      swap1\n      jump(tag_74)\n        /* \"Verify.sol\":4370:4501  function getStudentList(address sender) public view returns (address[] memory) {\r... */\n    tag_14:\n      tag_75\n      tag_76\n      calldatasize\n      0x04\n      jump(tag_38)\n    tag_76:\n      tag_77\n      jump\t// in\n    tag_75:\n      mload(0x40)\n      tag_25\n      swap2\n      swap1\n      jump(tag_79)\n        /* \"Verify.sol\":3828:4106  function getIPFS(address studentAddr, address schoolAddr) public view returns (string memory){\r... */\n    tag_15:\n      tag_80\n      tag_81\n      calldatasize\n      0x04\n      jump(tag_44)\n    tag_81:\n      tag_82\n      jump\t// in\n    tag_80:\n      mload(0x40)\n      tag_25\n      swap2\n      swap1\n      jump(tag_84)\n        /* \"Verify.sol\":4227:4358  function getDeployedCerts(address sender) public view returns (uint256) {\r... */\n    tag_16:\n      tag_23\n      tag_86\n      calldatasize\n      0x04\n      jump(tag_38)\n    tag_86:\n      tag_87\n      jump\t// in\n        /* \"Verify.sol\":3423:3816  function verifyMarkup (address studentAddr, address schoolAddr) public view returns (bool) {\r... */\n    tag_17:\n      tag_36\n      tag_90\n      calldatasize\n      0x04\n      jump(tag_44)\n    tag_90:\n      tag_91\n      jump\t// in\n        /* \"Verify.sol\":1872:2250  function ministryLogin(address ministryAddr) public view returns (bool) {\r... */\n    tag_18:\n      tag_36\n      tag_94\n      calldatasize\n      0x04\n      jump(tag_38)\n    tag_94:\n      tag_95\n      jump\t// in\n        /* \"Verify.sol\":409:483  address public ministryEntity = 0x11d1b708790B3BA3c25FdB9fe7c0d5196A1d1689 */\n    tag_19:\n      tag_52\n      tag_98\n      jump\t// in\n        /* \"Verify.sol\":4118:4215  function getSchoolsCount() public view returns (uint256) {\r... */\n    tag_24:\n        /* \"Verify.sol\":4166:4173  uint256 */\n      0x00\n        /* \"Verify.sol\":4193:4207  schools.length */\n      sload\n        /* \"Verify.sol\":4118:4215  function getSchoolsCount() public view returns (uint256) {\r... */\n    tag_100:\n      swap1\n      jump\t// out\n        /* \"Verify.sol\":1388:1860  function upload(address school, string memory hashValue, address studentAddr, string memory studentName, string memory graduate) public {\r... */\n    tag_30:\n        /* \"Verify.sol\":1535:1561  Certificate memory newCert */\n      tag_102\n      tag_103\n      jump\t// in\n    tag_102:\n      pop\n        /* \"Verify.sol\":1564:1730  Certificate ({\r... */\n      0x40\n      dup1\n      mload\n      0x80\n      dup2\n      add\n      dup3\n      mstore\n      dup4\n      dup2\n      mstore\n      sub(shl(0xa0, 0x01), 0x01)\n      dup1\n      dup7\n      and\n      0x20\n      dup1\n      dup5\n      add\n      dup3\n      swap1\n      mstore\n      dup4\n      dup6\n      add\n      dup10\n      swap1\n      mstore\n      0x60\n      dup5\n      add\n      dup7\n      swap1\n      mstore\n        /* \"Verify.sol\":1751:1777  schoolOwnedStudent[school] */\n      swap2\n      dup10\n      and\n      0x00\n      dup2\n      dup2\n      mstore\n        /* \"Verify.sol\":1751:1769  schoolOwnedStudent */\n      0x05\n        /* \"Verify.sol\":1751:1777  schoolOwnedStudent[school] */\n      dup5\n      mstore\n      dup6\n      dup2\n      keccak256\n        /* \"--CODEGEN--\":27:37   */\n      dup1\n      sload\n        /* \"--CODEGEN--\":39:40   */\n      0x01\n        /* \"--CODEGEN--\":23:41   */\n      dup2\n      add\n        /* \"--CODEGEN--\":45:68   */\n      dup3\n      sstore\n        /* \"Verify.sol\":1751:1795  schoolOwnedStudent[school].push(studentAddr) */\n      swap1\n      dup3\n      mstore\n      dup5\n      dup3\n      keccak256\n      add\n      dup1\n      sload\n      not(sub(shl(0xa0, 0x01), 0x01))\n      and\n      dup5\n      or\n      swap1\n      sstore\n        /* \"Verify.sol\":1806:1829  schoolOwnedCert[school] */\n      swap1\n      dup2\n      mstore\n        /* \"Verify.sol\":1806:1821  schoolOwnedCert */\n      0x04\n        /* \"Verify.sol\":1806:1829  schoolOwnedCert[school] */\n      dup4\n      mstore\n      dup5\n      dup2\n      keccak256\n        /* \"Verify.sol\":1806:1842  schoolOwnedCert[school][studentAddr] */\n      swap2\n      dup2\n      mstore\n      swap1\n      dup3\n      mstore\n      swap3\n      swap1\n      swap3\n      keccak256\n        /* \"Verify.sol\":1806:1852  schoolOwnedCert[school][studentAddr] = newCert */\n      dup2\n      mload\n      dup1\n      mload\n        /* \"Verify.sol\":1564:1730  Certificate ({\r... */\n      swap3\n      swap4\n      dup5\n      swap4\n        /* \"Verify.sol\":1806:1852  schoolOwnedCert[school][studentAddr] = newCert */\n      tag_105\n      swap3\n        /* \"Verify.sol\":1806:1842  schoolOwnedCert[school][studentAddr] */\n      dup5\n      swap3\n        /* \"Verify.sol\":1806:1852  schoolOwnedCert[school][studentAddr] = newCert */\n      add\n      swap1\n      tag_106\n      jump\t// in\n    tag_105:\n      pop\n      0x20\n      dup3\n      dup2\n      add\n      mload\n      0x01\n      dup4\n      add\n      dup1\n      sload\n      not(sub(shl(0xa0, 0x01), 0x01))\n      and\n      sub(shl(0xa0, 0x01), 0x01)\n      swap1\n      swap3\n      and\n      swap2\n      swap1\n      swap2\n      or\n      swap1\n      sstore\n      0x40\n      dup4\n      add\n      mload\n      dup1\n      mload\n      tag_107\n      swap3\n      0x02\n      dup6\n      add\n      swap3\n      add\n      swap1\n      tag_106\n      jump\t// in\n    tag_107:\n      pop\n      0x60\n      dup3\n      add\n      mload\n      dup1\n      mload\n      tag_108\n      swap2\n      0x03\n      dup5\n      add\n      swap2\n      0x20\n      swap1\n      swap2\n      add\n      swap1\n      tag_106\n      jump\t// in\n    tag_108:\n      pop\n      pop\n      pop\n      pop\n      pop\n      pop\n      pop\n      pop\n      pop\n        /* \"Verify.sol\":1388:1860  function upload(address school, string memory hashValue, address studentAddr, string memory studentName, string memory graduate) public {\r... */\n      jump\t// out\n        /* \"Verify.sol\":757:1123  function stringToUint(string memory s)public pure returns (uint) {\r... */\n    tag_34:\n        /* \"Verify.sol\":816:820  uint */\n      0x00\n        /* \"Verify.sol\":856:857  s */\n      dup2\n        /* \"Verify.sol\":816:820  uint */\n      dup2\n      dup1\n        /* \"Verify.sol\":910:1094  for (i = 0; i < b.length; i++) {\r... */\n    tag_110:\n        /* \"Verify.sol\":926:927  b */\n      dup3\n        /* \"Verify.sol\":926:934  b.length */\n      mload\n        /* \"Verify.sol\":922:923  i */\n      dup3\n        /* \"Verify.sol\":922:934  i < b.length */\n      lt\n        /* \"Verify.sol\":910:1094  for (i = 0; i < b.length; i++) {\r... */\n      iszero\n      tag_111\n      jumpi\n        /* \"Verify.sol\":956:962  uint c */\n      0x00\n        /* \"Verify.sol\":976:977  b */\n      dup4\n        /* \"Verify.sol\":978:979  i */\n      dup4\n        /* \"Verify.sol\":976:980  b[i] */\n      dup2\n      mload\n      dup2\n      lt\n      tag_113\n      jumpi\n      invalid\n    tag_113:\n      add\n      0x20\n      add\n      mload\n      0xf8\n      shr\n      swap1\n      pop\n        /* \"Verify.sol\":1006:1008  48 */\n      0x30\n        /* \"Verify.sol\":1001:1008  c >= 48 */\n      dup2\n      lt\n      dup1\n      iszero\n      swap1\n        /* \"Verify.sol\":1001:1019  c >= 48 && c <= 57 */\n      tag_114\n      jumpi\n      pop\n        /* \"Verify.sol\":1017:1019  57 */\n      0x39\n        /* \"Verify.sol\":1012:1013  c */\n      dup2\n        /* \"Verify.sol\":1012:1019  c <= 57 */\n      gt\n      iszero\n        /* \"Verify.sol\":1001:1019  c >= 48 && c <= 57 */\n    tag_114:\n        /* \"Verify.sol\":997:1083  if (c >= 48 && c <= 57) {\r... */\n      iszero\n      tag_115\n      jumpi\n        /* \"Verify.sol\":1064:1066  48 */\n      0x30\n        /* \"Verify.sol\":1060:1061  c */\n      dup2\n        /* \"Verify.sol\":1060:1066  c - 48 */\n      sub\n        /* \"Verify.sol\":1047:1051  temp */\n      dup3\n        /* \"Verify.sol\":1054:1056  10 */\n      0x0a\n        /* \"Verify.sol\":1047:1056  temp * 10 */\n      mul\n        /* \"Verify.sol\":1047:1067  temp * 10 + (c - 48) */\n      add\n        /* \"Verify.sol\":1040:1067  temp = temp * 10 + (c - 48) */\n      swap2\n      pop\n        /* \"Verify.sol\":997:1083  if (c >= 48 && c <= 57) {\r... */\n    tag_115:\n      pop\n        /* \"Verify.sol\":936:939  i++ */\n      0x01\n      swap1\n      swap2\n      add\n      swap1\n        /* \"Verify.sol\":910:1094  for (i = 0; i < b.length; i++) {\r... */\n      jump(tag_110)\n    tag_111:\n        /* \"Verify.sol\":1111:1115  temp */\n      swap3\n      pop\n      pop\n      pop\n        /* \"Verify.sol\":757:1123  function stringToUint(string memory s)public pure returns (uint) {\r... */\n    tag_109:\n      swap2\n      swap1\n      pop\n      jump\t// out\n        /* \"Verify.sol\":2262:2651  function verifyIsSchool(address schoolAddr) public view returns (bool) {\r... */\n    tag_39:\n        /* \"Verify.sol\":2448:2462  ministryEntity */\n      sload(0x02)\n        /* \"Verify.sol\":2423:2496  entitySchool.columnValue(ministryEntity, \"schoolCertificate\", \"isSchool\") */\n      mload(0x40)\n      shl(0xe0, 0x8cba76b1)\n      dup2\n      mstore\n        /* \"Verify.sol\":2327:2331  bool */\n      0x00\n      swap2\n        /* \"Verify.sol\":2373:2383  schoolAddr */\n      dup4\n      swap2\n        /* \"Verify.sol\":2395:2420  string memory text_school */\n      0x60\n      swap2\n      sub(shl(0xa0, 0x01), 0x01)\n        /* \"Verify.sol\":2423:2447  entitySchool.columnValue */\n      dup1\n      dup6\n      and\n      swap3\n      0x8cba76b1\n      swap3\n        /* \"Verify.sol\":2423:2496  entitySchool.columnValue(ministryEntity, \"schoolCertificate\", \"isSchool\") */\n      tag_117\n      swap3\n        /* \"Verify.sol\":2448:2462  ministryEntity */\n      and\n      swap1\n        /* \"Verify.sol\":2423:2496  entitySchool.columnValue(ministryEntity, \"schoolCertificate\", \"isSchool\") */\n      0x04\n      add\n      jump(tag_118)\n    tag_117:\n      0x00\n      mload(0x40)\n      dup1\n      dup4\n      sub\n      dup2\n      dup7\n      dup1\n      extcodesize\n      iszero\n        /* \"--CODEGEN--\":5:14   */\n      dup1\n        /* \"--CODEGEN--\":2:4   */\n      iszero\n      tag_119\n      jumpi\n        /* \"--CODEGEN--\":27:28   */\n      0x00\n        /* \"--CODEGEN--\":24:25   */\n      dup1\n        /* \"--CODEGEN--\":17:29   */\n      revert\n        /* \"--CODEGEN--\":2:4   */\n    tag_119:\n        /* \"Verify.sol\":2423:2496  entitySchool.columnValue(ministryEntity, \"schoolCertificate\", \"isSchool\") */\n      pop\n      gas\n      staticcall\n      iszero\n        /* \"--CODEGEN--\":8:17   */\n      dup1\n        /* \"--CODEGEN--\":5:7   */\n      iszero\n      tag_121\n      jumpi\n        /* \"--CODEGEN--\":45:61   */\n      returndatasize\n        /* \"--CODEGEN--\":42:43   */\n      0x00\n        /* \"--CODEGEN--\":39:40   */\n      dup1\n        /* \"--CODEGEN--\":24:62   */\n      returndatacopy\n        /* \"--CODEGEN--\":77:93   */\n      returndatasize\n        /* \"--CODEGEN--\":74:75   */\n      0x00\n        /* \"--CODEGEN--\":67:94   */\n      revert\n        /* \"--CODEGEN--\":5:7   */\n    tag_121:\n        /* \"Verify.sol\":2423:2496  entitySchool.columnValue(ministryEntity, \"schoolCertificate\", \"isSchool\") */\n      pop\n      pop\n      pop\n      pop\n      mload(0x40)\n        /* \"--CODEGEN--\":39:55   */\n      returndatasize\n        /* \"--CODEGEN--\":36:37   */\n      0x00\n        /* \"--CODEGEN--\":17:34   */\n      dup3\n        /* \"--CODEGEN--\":2:56   */\n      returndatacopy\n        /* \"--CODEGEN--\":101:105   */\n      0x1f\n        /* \"Verify.sol\":2423:2496  entitySchool.columnValue(ministryEntity, \"schoolCertificate\", \"isSchool\") */\n      returndatasize\n        /* \"--CODEGEN--\":80:95   */\n      swap1\n      dup2\n      add\n      not(0x1f)\n        /* \"--CODEGEN--\":76:107   */\n      and\n        /* \"--CODEGEN--\":65:108   */\n      dup3\n      add\n        /* \"--CODEGEN--\":120:124   */\n      0x40\n        /* \"--CODEGEN--\":113:133   */\n      mstore\n        /* \"Verify.sol\":2423:2496  entitySchool.columnValue(ministryEntity, \"schoolCertificate\", \"isSchool\") */\n      tag_122\n      swap2\n      swap1\n      dup2\n      add\n      swap1\n      jump(tag_123)\n    tag_122:\n        /* \"Verify.sol\":2395:2496  string memory text_school = entitySchool.columnValue(ministryEntity, \"schoolCertificate\", \"isSchool\") */\n      swap1\n      pop\n        /* \"Verify.sol\":2565:2588  abi.encodePacked(\"Yes\") */\n      add(0x20, mload(0x40))\n      tag_124\n      swap1\n      jump(tag_125)\n    tag_124:\n      mload(0x40)\n        /* \"--CODEGEN--\":49:53   */\n      0x20\n        /* \"--CODEGEN--\":39:46   */\n      dup2\n        /* \"--CODEGEN--\":30:37   */\n      dup4\n        /* \"--CODEGEN--\":26:47   */\n      sub\n        /* \"--CODEGEN--\":22:54   */\n      sub\n        /* \"--CODEGEN--\":13:20   */\n      dup2\n        /* \"--CODEGEN--\":6:55   */\n      mstore\n        /* \"Verify.sol\":2565:2588  abi.encodePacked(\"Yes\") */\n      swap1\n      0x40\n      mstore\n        /* \"Verify.sol\":2555:2589  keccak256(abi.encodePacked(\"Yes\")) */\n      dup1\n      mload\n      swap1\n      0x20\n      add\n      keccak256\n        /* \"Verify.sol\":2538:2549  text_school */\n      dup2\n        /* \"Verify.sol\":2521:2550  abi.encodePacked(text_school) */\n      add(0x20, mload(0x40))\n      tag_126\n      swap2\n      swap1\n      jump(tag_127)\n    tag_126:\n      mload(0x40)\n        /* \"--CODEGEN--\":49:53   */\n      0x20\n        /* \"--CODEGEN--\":39:46   */\n      dup2\n        /* \"--CODEGEN--\":30:37   */\n      dup4\n        /* \"--CODEGEN--\":26:47   */\n      sub\n        /* \"--CODEGEN--\":22:54   */\n      sub\n        /* \"--CODEGEN--\":13:20   */\n      dup2\n        /* \"--CODEGEN--\":6:55   */\n      mstore\n        /* \"Verify.sol\":2521:2550  abi.encodePacked(text_school) */\n      swap1\n      0x40\n      mstore\n        /* \"Verify.sol\":2511:2551  keccak256(abi.encodePacked(text_school)) */\n      dup1\n      mload\n      swap1\n      0x20\n      add\n      keccak256\n        /* \"Verify.sol\":2511:2589  keccak256(abi.encodePacked(text_school)) == keccak256(abi.encodePacked(\"Yes\")) */\n      eq\n        /* \"Verify.sol\":2507:2643  if (keccak256(abi.encodePacked(text_school)) == keccak256(abi.encodePacked(\"Yes\")))\r... */\n      iszero\n      tag_128\n      jumpi\n        /* \"Verify.sol\":2611:2615  true */\n      0x01\n        /* \"Verify.sol\":2604:2615  return true */\n      swap3\n      pop\n      pop\n      pop\n      jump(tag_109)\n        /* \"Verify.sol\":2507:2643  if (keccak256(abi.encodePacked(text_school)) == keccak256(abi.encodePacked(\"Yes\")))\r... */\n    tag_128:\n        /* \"Verify.sol\":2638:2643  false */\n      0x00\n        /* \"Verify.sol\":2631:2643  return false */\n      swap3\n      pop\n      pop\n      pop\n      jump(tag_109)\n        /* \"Verify.sol\":536:610  mapping(address => mapping(address => Certificate)) public schoolOwnedCert */\n    tag_45:\n      0x04\n      0x20\n      swap1\n      dup2\n      mstore\n      0x00\n      swap3\n      dup4\n      mstore\n      0x40\n      dup1\n      dup5\n      keccak256\n      dup3\n      mstore\n      swap2\n      dup4\n      mstore\n      swap2\n      dup2\n      swap1\n      keccak256\n      dup1\n      sload\n      dup3\n      mload\n      0x1f\n      0x02\n      not(0x00)\n      0x0100\n      0x01\n      dup7\n      and\n      iszero\n      mul\n      add\n      swap1\n      swap4\n      and\n      swap3\n      swap1\n      swap3\n      div\n      swap2\n      dup3\n      add\n      dup6\n      swap1\n      div\n      dup6\n      mul\n      dup2\n      add\n      dup6\n      add\n      swap1\n      swap4\n      mstore\n      dup1\n      dup4\n      mstore\n      swap1\n      swap3\n      dup4\n      swap2\n      swap1\n      dup4\n      add\n      dup3\n      dup3\n      dup1\n      iszero\n      tag_130\n      jumpi\n      dup1\n      0x1f\n      lt\n      tag_131\n      jumpi\n      0x0100\n      dup1\n      dup4\n      sload\n      div\n      mul\n      dup4\n      mstore\n      swap2\n      0x20\n      add\n      swap2\n      jump(tag_130)\n    tag_131:\n      dup3\n      add\n      swap2\n      swap1\n      0x00\n      mstore\n      keccak256(0x00, 0x20)\n      swap1\n    tag_132:\n      dup2\n      sload\n      dup2\n      mstore\n      swap1\n      0x01\n      add\n      swap1\n      0x20\n      add\n      dup1\n      dup4\n      gt\n      tag_132\n      jumpi\n      dup3\n      swap1\n      sub\n      0x1f\n      and\n      dup3\n      add\n      swap2\n    tag_130:\n      pop\n      pop\n      pop\n      pop\n      0x01\n      dup4\n      dup2\n      add\n      sload\n      0x02\n      dup1\n      dup7\n      add\n      dup1\n      sload\n      0x40\n      dup1\n      mload\n      0x20\n      0x0100\n      swap8\n      dup5\n      and\n      iszero\n      swap8\n      swap1\n      swap8\n      mul\n      not(0x00)\n      add\n      swap1\n      swap3\n      and\n      swap4\n      swap1\n      swap4\n      div\n      0x1f\n      dup2\n      add\n      dup7\n      swap1\n      div\n      dup7\n      mul\n      dup3\n      add\n      dup7\n      add\n      swap1\n      swap4\n      mstore\n      dup3\n      dup2\n      mstore\n      swap6\n      swap7\n      sub(shl(0xa0, 0x01), 0x01)\n      swap1\n      swap4\n      and\n      swap6\n      swap3\n      swap5\n      pop\n      swap2\n      swap3\n      dup4\n      add\n      dup3\n      dup3\n      dup1\n      iszero\n      tag_133\n      jumpi\n      dup1\n      0x1f\n      lt\n      tag_134\n      jumpi\n      0x0100\n      dup1\n      dup4\n      sload\n      div\n      mul\n      dup4\n      mstore\n      swap2\n      0x20\n      add\n      swap2\n      jump(tag_133)\n    tag_134:\n      dup3\n      add\n      swap2\n      swap1\n      0x00\n      mstore\n      keccak256(0x00, 0x20)\n      swap1\n    tag_135:\n      dup2\n      sload\n      dup2\n      mstore\n      swap1\n      0x01\n      add\n      swap1\n      0x20\n      add\n      dup1\n      dup4\n      gt\n      tag_135\n      jumpi\n      dup3\n      swap1\n      sub\n      0x1f\n      and\n      dup3\n      add\n      swap2\n    tag_133:\n      pop\n      pop\n      pop\n      pop\n      0x03\n      dup4\n      add\n      dup1\n      sload\n      0x40\n      dup1\n      mload\n      0x20\n      0x02\n      0x01\n      dup6\n      and\n      iszero\n      0x0100\n      mul\n      not(0x00)\n      add\n      swap1\n      swap5\n      and\n      swap4\n      swap1\n      swap4\n      div\n      0x1f\n      dup2\n      add\n      dup5\n      swap1\n      div\n      dup5\n      mul\n      dup3\n      add\n      dup5\n      add\n      swap1\n      swap3\n      mstore\n      dup2\n      dup2\n      mstore\n      swap5\n      swap6\n      swap5\n      swap4\n      pop\n      swap1\n      dup4\n      add\n      dup3\n      dup3\n      dup1\n      iszero\n      tag_136\n      jumpi\n      dup1\n      0x1f\n      lt\n      tag_137\n      jumpi\n      0x0100\n      dup1\n      dup4\n      sload\n      div\n      mul\n      dup4\n      mstore\n      swap2\n      0x20\n      add\n      swap2\n      jump(tag_136)\n    tag_137:\n      dup3\n      add\n      swap2\n      swap1\n      0x00\n      mstore\n      keccak256(0x00, 0x20)\n      swap1\n    tag_138:\n      dup2\n      sload\n      dup2\n      mstore\n      swap1\n      0x01\n      add\n      swap1\n      0x20\n      add\n      dup1\n      dup4\n      gt\n      tag_138\n      jumpi\n      dup3\n      swap1\n      sub\n      0x1f\n      and\n      dup3\n      add\n      swap2\n    tag_136:\n      pop\n      pop\n      pop\n      pop\n      pop\n      swap1\n      pop\n      dup5\n      jump\t// out\n        /* \"Verify.sol\":3072:3411  function expired(address studentAddr, address schoolAddr) public view returns (bool) {\r... */\n    tag_50:\n        /* \"Verify.sol\":3246:3316  entityStudent.columnValue(schoolAddr, \"diploma\", \"CertificateEndDate\") */\n      mload(0x40)\n      shl(0xe0, 0x8cba76b1)\n      dup2\n      mstore\n        /* \"Verify.sol\":3151:3155  bool */\n      0x00\n      swap1\n        /* \"Verify.sol\":3198:3209  studentAddr */\n      dup4\n      swap1\n        /* \"Verify.sol\":3151:3155  bool */\n      dup3\n      swap1\n        /* \"Verify.sol\":3233:3317  stringToUint(entityStudent.columnValue(schoolAddr, \"diploma\", \"CertificateEndDate\")) */\n      tag_140\n      swap1\n      sub(shl(0xa0, 0x01), 0x01)\n        /* \"Verify.sol\":3246:3271  entityStudent.columnValue */\n      dup5\n      and\n      swap1\n      0x8cba76b1\n      swap1\n        /* \"Verify.sol\":3246:3316  entityStudent.columnValue(schoolAddr, \"diploma\", \"CertificateEndDate\") */\n      tag_141\n      swap1\n        /* \"Verify.sol\":3272:3282  schoolAddr */\n      dup9\n      swap1\n        /* \"Verify.sol\":3246:3316  entityStudent.columnValue(schoolAddr, \"diploma\", \"CertificateEndDate\") */\n      0x04\n      add\n      jump(tag_142)\n    tag_141:\n      0x00\n      mload(0x40)\n      dup1\n      dup4\n      sub\n      dup2\n      dup7\n      dup1\n      extcodesize\n      iszero\n        /* \"--CODEGEN--\":5:14   */\n      dup1\n        /* \"--CODEGEN--\":2:4   */\n      iszero\n      tag_143\n      jumpi\n        /* \"--CODEGEN--\":27:28   */\n      0x00\n        /* \"--CODEGEN--\":24:25   */\n      dup1\n        /* \"--CODEGEN--\":17:29   */\n      revert\n        /* \"--CODEGEN--\":2:4   */\n    tag_143:\n        /* \"Verify.sol\":3246:3316  entityStudent.columnValue(schoolAddr, \"diploma\", \"CertificateEndDate\") */\n      pop\n      gas\n      staticcall\n      iszero\n        /* \"--CODEGEN--\":8:17   */\n      dup1\n        /* \"--CODEGEN--\":5:7   */\n      iszero\n      tag_145\n      jumpi\n        /* \"--CODEGEN--\":45:61   */\n      returndatasize\n        /* \"--CODEGEN--\":42:43   */\n      0x00\n        /* \"--CODEGEN--\":39:40   */\n      dup1\n        /* \"--CODEGEN--\":24:62   */\n      returndatacopy\n        /* \"--CODEGEN--\":77:93   */\n      returndatasize\n        /* \"--CODEGEN--\":74:75   */\n      0x00\n        /* \"--CODEGEN--\":67:94   */\n      revert\n        /* \"--CODEGEN--\":5:7   */\n    tag_145:\n        /* \"Verify.sol\":3246:3316  entityStudent.columnValue(schoolAddr, \"diploma\", \"CertificateEndDate\") */\n      pop\n      pop\n      pop\n      pop\n      mload(0x40)\n        /* \"--CODEGEN--\":39:55   */\n      returndatasize\n        /* \"--CODEGEN--\":36:37   */\n      0x00\n        /* \"--CODEGEN--\":17:34   */\n      dup3\n        /* \"--CODEGEN--\":2:56   */\n      returndatacopy\n        /* \"--CODEGEN--\":101:105   */\n      0x1f\n        /* \"Verify.sol\":3246:3316  entityStudent.columnValue(schoolAddr, \"diploma\", \"CertificateEndDate\") */\n      returndatasize\n        /* \"--CODEGEN--\":80:95   */\n      swap1\n      dup2\n      add\n      not(0x1f)\n        /* \"--CODEGEN--\":76:107   */\n      and\n        /* \"--CODEGEN--\":65:108   */\n      dup3\n      add\n        /* \"--CODEGEN--\":120:124   */\n      0x40\n        /* \"--CODEGEN--\":113:133   */\n      mstore\n        /* \"Verify.sol\":3246:3316  entityStudent.columnValue(schoolAddr, \"diploma\", \"CertificateEndDate\") */\n      tag_32\n      swap2\n      swap1\n      dup2\n      add\n      swap1\n      jump(tag_123)\n        /* \"Verify.sol\":3233:3317  stringToUint(entityStudent.columnValue(schoolAddr, \"diploma\", \"CertificateEndDate\")) */\n    tag_140:\n        /* \"Verify.sol\":3221:3317  uint time = stringToUint(entityStudent.columnValue(schoolAddr, \"diploma\", \"CertificateEndDate\")) */\n      swap1\n      pop\n        /* \"Verify.sol\":3345:3349  time */\n      dup1\n        /* \"Verify.sol\":3332:3335  now */\n      timestamp\n        /* \"Verify.sol\":3338:3342  1000 */\n      0x03e8\n        /* \"Verify.sol\":3332:3342  now * 1000 */\n      mul\n        /* \"Verify.sol\":3332:3349  now * 1000 < time */\n      lt\n        /* \"Verify.sol\":3328:3403  if (now * 1000 < time)\r... */\n      iszero\n      tag_147\n      jumpi\n        /* \"Verify.sol\":3371:3375  true */\n      0x01\n        /* \"Verify.sol\":3364:3375  return true */\n      swap3\n      pop\n      pop\n      pop\n      jump(tag_139)\n        /* \"Verify.sol\":3328:3403  if (now * 1000 < time)\r... */\n    tag_147:\n        /* \"Verify.sol\":3398:3403  false */\n      0x00\n        /* \"Verify.sol\":3391:3403  return false */\n      swap3\n      pop\n      pop\n      pop\n        /* \"Verify.sol\":3072:3411  function expired(address studentAddr, address schoolAddr) public view returns (bool) {\r... */\n    tag_139:\n      swap3\n      swap2\n      pop\n      pop\n      jump\t// out\n        /* \"Verify.sol\":380:402  address public manager */\n    tag_53:\n      and(sub(shl(0xa0, 0x01), 0x01), sload(0x01))\n      dup2\n      jump\t// out\n        /* \"Verify.sol\":617:672  mapping(address => address[]) public schoolOwnedStudent */\n    tag_59:\n      mstore(0x20, 0x05)\n      dup2\n      0x00\n      mstore\n      keccak256(0x00, 0x40)\n      dup2\n      dup2\n      sload\n      dup2\n      lt\n      tag_149\n      jumpi\n      invalid\n    tag_149:\n      0x00\n      swap2\n      dup3\n      mstore\n      0x20\n      swap1\n      swap2\n      keccak256\n      add\n      sload\n      sub(shl(0xa0, 0x01), 0x01)\n      and\n      swap2\n      pop\n      dup3\n      swap1\n      pop\n      jump\t// out\n        /* \"Verify.sol\":1135:1376  function addNewSchool(address schoolAddr, string memory schoolName) public {\r... */\n    tag_64:\n        /* \"Verify.sol\":1221:1244  School memory newSchool */\n      tag_152\n      tag_153\n      jump\t// in\n    tag_152:\n      pop\n        /* \"Verify.sol\":1247:1334  School({\r... */\n      0x40\n      dup1\n      mload\n      dup1\n      dup3\n      add\n      swap1\n      swap2\n      mstore\n      dup2\n      dup2\n      mstore\n      sub(shl(0xa0, 0x01), 0x01)\n      dup4\n      and\n      0x20\n      dup1\n      dup4\n      add\n      swap2\n      swap1\n      swap2\n      mstore\n      0x00\n        /* \"--CODEGEN--\":27:37   */\n      dup1\n      sload\n        /* \"--CODEGEN--\":39:40   */\n      0x01\n        /* \"--CODEGEN--\":23:41   */\n      dup2\n      add\n        /* \"--CODEGEN--\":45:68   */\n      dup3\n      sstore\n        /* \"Verify.sol\":1345:1368  schools.push(newSchool) */\n      swap1\n      dup1\n      mstore\n      dup3\n      mload\n      dup1\n      mload\n        /* \"Verify.sol\":1247:1334  School({\r... */\n      dup5\n      swap4\n        /* \"Verify.sol\":1345:1368  schools.push(newSchool) */\n      0x02\n      swap1\n      swap4\n      mul\n      0x290decd9548b62a8d60345a988386fc84ba6bc95484008f6362f93160ef3e563\n      add\n      swap3\n      tag_155\n      swap3\n      dup5\n      swap3\n      swap2\n      add\n      swap1\n      tag_106\n      jump\t// in\n    tag_155:\n      pop\n      0x20\n      swap2\n      swap1\n      swap2\n      add\n      mload\n      0x01\n      swap1\n      swap2\n      add\n      dup1\n      sload\n      not(sub(shl(0xa0, 0x01), 0x01))\n      and\n      sub(shl(0xa0, 0x01), 0x01)\n      swap1\n      swap3\n      and\n      swap2\n      swap1\n      swap2\n      or\n      swap1\n      sstore\n      pop\n      pop\n      pop\n        /* \"Verify.sol\":1135:1376  function addNewSchool(address schoolAddr, string memory schoolName) public {\r... */\n      jump\t// out\n        /* \"Verify.sol\":2659:3060  function existence(address studentAddr, address schoolAddr) public view returns (bool) {\r... */\n    tag_67:\n        /* \"Verify.sol\":2840:2903  entityStudent.columnValue(schoolAddr, \"diploma\", \"isGraduated\") */\n      mload(0x40)\n      shl(0xe0, 0x8cba76b1)\n      dup2\n      mstore\n        /* \"Verify.sol\":2740:2744  bool */\n      0x00\n      swap1\n        /* \"Verify.sol\":2787:2798  studentAddr */\n      dup4\n      swap1\n        /* \"Verify.sol\":2810:2837  string memory text_graduate */\n      0x60\n      swap1\n      sub(shl(0xa0, 0x01), 0x01)\n        /* \"Verify.sol\":2840:2865  entityStudent.columnValue */\n      dup4\n      and\n      swap1\n      0x8cba76b1\n      swap1\n        /* \"Verify.sol\":2840:2903  entityStudent.columnValue(schoolAddr, \"diploma\", \"isGraduated\") */\n      tag_157\n      swap1\n        /* \"Verify.sol\":2866:2876  schoolAddr */\n      dup8\n      swap1\n        /* \"Verify.sol\":2840:2903  entityStudent.columnValue(schoolAddr, \"diploma\", \"isGraduated\") */\n      0x04\n      add\n      jump(tag_158)\n    tag_157:\n      0x00\n      mload(0x40)\n      dup1\n      dup4\n      sub\n      dup2\n      dup7\n      dup1\n      extcodesize\n      iszero\n        /* \"--CODEGEN--\":5:14   */\n      dup1\n        /* \"--CODEGEN--\":2:4   */\n      iszero\n      tag_159\n      jumpi\n        /* \"--CODEGEN--\":27:28   */\n      0x00\n        /* \"--CODEGEN--\":24:25   */\n      dup1\n        /* \"--CODEGEN--\":17:29   */\n      revert\n        /* \"--CODEGEN--\":2:4   */\n    tag_159:\n        /* \"Verify.sol\":2840:2903  entityStudent.columnValue(schoolAddr, \"diploma\", \"isGraduated\") */\n      pop\n      gas\n      staticcall\n      iszero\n        /* \"--CODEGEN--\":8:17   */\n      dup1\n        /* \"--CODEGEN--\":5:7   */\n      iszero\n      tag_161\n      jumpi\n        /* \"--CODEGEN--\":45:61   */\n      returndatasize\n        /* \"--CODEGEN--\":42:43   */\n      0x00\n        /* \"--CODEGEN--\":39:40   */\n      dup1\n        /* \"--CODEGEN--\":24:62   */\n      returndatacopy\n        /* \"--CODEGEN--\":77:93   */\n      returndatasize\n        /* \"--CODEGEN--\":74:75   */\n      0x00\n        /* \"--CODEGEN--\":67:94   */\n      revert\n        /* \"--CODEGEN--\":5:7   */\n    tag_161:\n        /* \"Verify.sol\":2840:2903  entityStudent.columnValue(schoolAddr, \"diploma\", \"isGraduated\") */\n      pop\n      pop\n      pop\n      pop\n      mload(0x40)\n        /* \"--CODEGEN--\":39:55   */\n      returndatasize\n        /* \"--CODEGEN--\":36:37   */\n      0x00\n        /* \"--CODEGEN--\":17:34   */\n      dup3\n        /* \"--CODEGEN--\":2:56   */\n      returndatacopy\n        /* \"--CODEGEN--\":101:105   */\n      0x1f\n        /* \"Verify.sol\":2840:2903  entityStudent.columnValue(schoolAddr, \"diploma\", \"isGraduated\") */\n      returndatasize\n        /* \"--CODEGEN--\":80:95   */\n      swap1\n      dup2\n      add\n      not(0x1f)\n        /* \"--CODEGEN--\":76:107   */\n      and\n        /* \"--CODEGEN--\":65:108   */\n      dup3\n      add\n        /* \"--CODEGEN--\":120:124   */\n      0x40\n        /* \"--CODEGEN--\":113:133   */\n      mstore\n        /* \"Verify.sol\":2840:2903  entityStudent.columnValue(schoolAddr, \"diploma\", \"isGraduated\") */\n      tag_162\n      swap2\n      swap1\n      dup2\n      add\n      swap1\n      jump(tag_123)\n    tag_162:\n        /* \"Verify.sol\":2810:2903  string memory text_graduate = entityStudent.columnValue(schoolAddr, \"diploma\", \"isGraduated\") */\n      swap1\n      pop\n        /* \"Verify.sol\":2974:2997  abi.encodePacked(\"Yes\") */\n      add(0x20, mload(0x40))\n      tag_163\n      swap1\n      jump(tag_125)\n    tag_163:\n      mload(0x40)\n        /* \"--CODEGEN--\":49:53   */\n      0x20\n        /* \"--CODEGEN--\":39:46   */\n      dup2\n        /* \"--CODEGEN--\":30:37   */\n      dup4\n        /* \"--CODEGEN--\":26:47   */\n      sub\n        /* \"--CODEGEN--\":22:54   */\n      sub\n        /* \"--CODEGEN--\":13:20   */\n      dup2\n        /* \"--CODEGEN--\":6:55   */\n      mstore\n        /* \"Verify.sol\":2974:2997  abi.encodePacked(\"Yes\") */\n      swap1\n      0x40\n      mstore\n        /* \"Verify.sol\":2964:2998  keccak256(abi.encodePacked(\"Yes\")) */\n      dup1\n      mload\n      swap1\n      0x20\n      add\n      keccak256\n        /* \"Verify.sol\":2945:2958  text_graduate */\n      dup2\n        /* \"Verify.sol\":2928:2959  abi.encodePacked(text_graduate) */\n      add(0x20, mload(0x40))\n      tag_164\n      swap2\n      swap1\n      jump(tag_127)\n    tag_164:\n      mload(0x40)\n        /* \"--CODEGEN--\":49:53   */\n      0x20\n        /* \"--CODEGEN--\":39:46   */\n      dup2\n        /* \"--CODEGEN--\":30:37   */\n      dup4\n        /* \"--CODEGEN--\":26:47   */\n      sub\n        /* \"--CODEGEN--\":22:54   */\n      sub\n        /* \"--CODEGEN--\":13:20   */\n      dup2\n        /* \"--CODEGEN--\":6:55   */\n      mstore\n        /* \"Verify.sol\":2928:2959  abi.encodePacked(text_graduate) */\n      swap1\n      0x40\n      mstore\n        /* \"Verify.sol\":2918:2960  keccak256(abi.encodePacked(text_graduate)) */\n      dup1\n      mload\n      swap1\n      0x20\n      add\n      keccak256\n        /* \"Verify.sol\":2918:2998  keccak256(abi.encodePacked(text_graduate)) == keccak256(abi.encodePacked(\"Yes\")) */\n      eq\n        /* \"Verify.sol\":2914:3052  if (keccak256(abi.encodePacked(text_graduate)) == keccak256(abi.encodePacked(\"Yes\")))\r... */\n      iszero\n      tag_147\n      jumpi\n        /* \"Verify.sol\":3020:3024  true */\n      0x01\n        /* \"Verify.sol\":3013:3024  return true */\n      swap3\n      pop\n      pop\n      pop\n      jump(tag_139)\n        /* \"Verify.sol\":350:373  School[] public schools */\n    tag_72:\n      0x00\n      dup2\n      dup2\n      sload\n      dup2\n      lt\n      tag_167\n      jumpi\n      invalid\n    tag_167:\n      0x00\n      swap2\n      dup3\n      mstore\n      0x20\n      swap2\n      dup3\n      swap1\n      keccak256\n      0x02\n      swap2\n      dup3\n      mul\n      add\n      dup1\n      sload\n      0x40\n      dup1\n      mload\n      0x01\n      dup4\n      and\n      iszero\n      0x0100\n      mul\n      not(0x00)\n      add\n      swap1\n      swap3\n      and\n      swap4\n      swap1\n      swap4\n      div\n      0x1f\n      dup2\n      add\n      dup6\n      swap1\n      div\n      dup6\n      mul\n      dup3\n      add\n      dup6\n      add\n      swap1\n      swap4\n      mstore\n      dup3\n      dup2\n      mstore\n      swap1\n      swap4\n      pop\n      swap2\n      dup4\n      swap2\n      swap1\n      dup4\n      add\n      dup3\n      dup3\n      dup1\n      iszero\n      tag_169\n      jumpi\n      dup1\n      0x1f\n      lt\n      tag_170\n      jumpi\n      0x0100\n      dup1\n      dup4\n      sload\n      div\n      mul\n      dup4\n      mstore\n      swap2\n      0x20\n      add\n      swap2\n      jump(tag_169)\n    tag_170:\n      dup3\n      add\n      swap2\n      swap1\n      0x00\n      mstore\n      keccak256(0x00, 0x20)\n      swap1\n    tag_171:\n      dup2\n      sload\n      dup2\n      mstore\n      swap1\n      0x01\n      add\n      swap1\n      0x20\n      add\n      dup1\n      dup4\n      gt\n      tag_171\n      jumpi\n      dup3\n      swap1\n      sub\n      0x1f\n      and\n      dup3\n      add\n      swap2\n    tag_169:\n      pop\n      pop\n      pop\n      0x01\n      swap1\n      swap4\n      add\n      sload\n      swap2\n      swap3\n      pop\n      pop\n      sub(shl(0xa0, 0x01), 0x01)\n      and\n      dup3\n      jump\t// out\n        /* \"Verify.sol\":4370:4501  function getStudentList(address sender) public view returns (address[] memory) {\r... */\n    tag_77:\n      sub(shl(0xa0, 0x01), 0x01)\n        /* \"Verify.sol\":4467:4493  schoolOwnedStudent[sender] */\n      dup2\n      and\n      0x00\n      swap1\n      dup2\n      mstore\n        /* \"Verify.sol\":4467:4485  schoolOwnedStudent */\n      0x05\n        /* \"Verify.sol\":4467:4493  schoolOwnedStudent[sender] */\n      0x20\n      swap1\n      dup2\n      mstore\n      0x40\n      swap2\n      dup3\n      swap1\n      keccak256\n        /* \"Verify.sol\":4460:4493  return schoolOwnedStudent[sender] */\n      dup1\n      sload\n      dup4\n      mload\n      dup2\n      dup5\n      mul\n      dup2\n      add\n      dup5\n      add\n      swap1\n      swap5\n      mstore\n      dup1\n      dup5\n      mstore\n        /* \"Verify.sol\":4431:4447  address[] memory */\n      0x60\n      swap4\n        /* \"Verify.sol\":4460:4493  return schoolOwnedStudent[sender] */\n      swap3\n      dup4\n      add\n        /* \"Verify.sol\":4467:4493  schoolOwnedStudent[sender] */\n      dup3\n        /* \"Verify.sol\":4460:4493  return schoolOwnedStudent[sender] */\n      dup3\n      dup1\n      iszero\n      tag_173\n      jumpi\n      0x20\n      mul\n      dup3\n      add\n      swap2\n      swap1\n      0x00\n      mstore\n      keccak256(0x00, 0x20)\n      swap1\n    tag_174:\n      dup2\n      sload\n      sub(shl(0xa0, 0x01), 0x01)\n      and\n      dup2\n      mstore\n      0x01\n      swap1\n      swap2\n      add\n      swap1\n      0x20\n      add\n      dup1\n      dup4\n      gt\n      tag_174\n      jumpi\n    tag_173:\n      pop\n      pop\n      pop\n      pop\n      pop\n      swap1\n      pop\n        /* \"Verify.sol\":4370:4501  function getStudentList(address sender) public view returns (address[] memory) {\r... */\n      swap2\n      swap1\n      pop\n      jump\t// out\n        /* \"Verify.sol\":3828:4106  function getIPFS(address studentAddr, address schoolAddr) public view returns (string memory){\r... */\n    tag_82:\n        /* \"Verify.sol\":4011:4071  entityStudent.columnValue(schoolAddr, \"diploma\", \"IPFShash\") */\n      mload(0x40)\n      shl(0xe0, 0x8cba76b1)\n      dup2\n      mstore\n        /* \"Verify.sol\":3907:3920  string memory */\n      0x60\n      swap1\n        /* \"Verify.sol\":3962:3973  studentAddr */\n      dup4\n      swap1\n        /* \"Verify.sol\":3907:3920  string memory */\n      dup3\n      swap1\n      sub(shl(0xa0, 0x01), 0x01)\n        /* \"Verify.sol\":4011:4036  entityStudent.columnValue */\n      dup4\n      and\n      swap1\n      0x8cba76b1\n      swap1\n        /* \"Verify.sol\":4011:4071  entityStudent.columnValue(schoolAddr, \"diploma\", \"IPFShash\") */\n      tag_176\n      swap1\n        /* \"Verify.sol\":4037:4047  schoolAddr */\n      dup8\n      swap1\n        /* \"Verify.sol\":4011:4071  entityStudent.columnValue(schoolAddr, \"diploma\", \"IPFShash\") */\n      0x04\n      add\n      jump(tag_177)\n    tag_176:\n      0x00\n      mload(0x40)\n      dup1\n      dup4\n      sub\n      dup2\n      dup7\n      dup1\n      extcodesize\n      iszero\n        /* \"--CODEGEN--\":5:14   */\n      dup1\n        /* \"--CODEGEN--\":2:4   */\n      iszero\n      tag_178\n      jumpi\n        /* \"--CODEGEN--\":27:28   */\n      0x00\n        /* \"--CODEGEN--\":24:25   */\n      dup1\n        /* \"--CODEGEN--\":17:29   */\n      revert\n        /* \"--CODEGEN--\":2:4   */\n    tag_178:\n        /* \"Verify.sol\":4011:4071  entityStudent.columnValue(schoolAddr, \"diploma\", \"IPFShash\") */\n      pop\n      gas\n      staticcall\n      iszero\n        /* \"--CODEGEN--\":8:17   */\n      dup1\n        /* \"--CODEGEN--\":5:7   */\n      iszero\n      tag_180\n      jumpi\n        /* \"--CODEGEN--\":45:61   */\n      returndatasize\n        /* \"--CODEGEN--\":42:43   */\n      0x00\n        /* \"--CODEGEN--\":39:40   */\n      dup1\n        /* \"--CODEGEN--\":24:62   */\n      returndatacopy\n        /* \"--CODEGEN--\":77:93   */\n      returndatasize\n        /* \"--CODEGEN--\":74:75   */\n      0x00\n        /* \"--CODEGEN--\":67:94   */\n      revert\n        /* \"--CODEGEN--\":5:7   */\n    tag_180:\n        /* \"Verify.sol\":4011:4071  entityStudent.columnValue(schoolAddr, \"diploma\", \"IPFShash\") */\n      pop\n      pop\n      pop\n      pop\n      mload(0x40)\n        /* \"--CODEGEN--\":39:55   */\n      returndatasize\n        /* \"--CODEGEN--\":36:37   */\n      0x00\n        /* \"--CODEGEN--\":17:34   */\n      dup3\n        /* \"--CODEGEN--\":2:56   */\n      returndatacopy\n        /* \"--CODEGEN--\":101:105   */\n      0x1f\n        /* \"Verify.sol\":4011:4071  entityStudent.columnValue(schoolAddr, \"diploma\", \"IPFShash\") */\n      returndatasize\n        /* \"--CODEGEN--\":80:95   */\n      swap1\n      dup2\n      add\n      not(0x1f)\n        /* \"--CODEGEN--\":76:107   */\n      and\n        /* \"--CODEGEN--\":65:108   */\n      dup3\n      add\n        /* \"--CODEGEN--\":120:124   */\n      0x40\n        /* \"--CODEGEN--\":113:133   */\n      mstore\n        /* \"Verify.sol\":4011:4071  entityStudent.columnValue(schoolAddr, \"diploma\", \"IPFShash\") */\n      tag_181\n      swap2\n      swap1\n      dup2\n      add\n      swap1\n      jump(tag_123)\n    tag_181:\n        /* \"Verify.sol\":3985:4071  string memory text_IPFS = entityStudent.columnValue(schoolAddr, \"diploma\", \"IPFShash\") */\n      swap6\n        /* \"Verify.sol\":3828:4106  function getIPFS(address studentAddr, address schoolAddr) public view returns (string memory){\r... */\n      swap5\n      pop\n      pop\n      pop\n      pop\n      pop\n      jump\t// out\n        /* \"Verify.sol\":4227:4358  function getDeployedCerts(address sender) public view returns (uint256) {\r... */\n    tag_87:\n      sub(shl(0xa0, 0x01), 0x01)\n        /* \"Verify.sol\":4317:4343  schoolOwnedStudent[sender] */\n      and\n        /* \"Verify.sol\":4290:4297  uint256 */\n      0x00\n        /* \"Verify.sol\":4317:4343  schoolOwnedStudent[sender] */\n      swap1\n      dup2\n      mstore\n        /* \"Verify.sol\":4317:4335  schoolOwnedStudent */\n      0x05\n        /* \"Verify.sol\":4317:4343  schoolOwnedStudent[sender] */\n      0x20\n      mstore\n      0x40\n      swap1\n      keccak256\n        /* \"Verify.sol\":4317:4350  schoolOwnedStudent[sender].length */\n      sload\n      swap1\n        /* \"Verify.sol\":4227:4358  function getDeployedCerts(address sender) public view returns (uint256) {\r... */\n      jump\t// out\n        /* \"Verify.sol\":3423:3816  function verifyMarkup (address studentAddr, address schoolAddr) public view returns (bool) {\r... */\n    tag_91:\n        /* \"Verify.sol\":3606:3656  entityStudent.MarkupsSender(schoolAddr, \"diploma\") */\n      mload(0x40)\n      shl(0xe0, 0x6b31c5f1)\n      dup2\n      mstore\n        /* \"Verify.sol\":3508:3512  bool */\n      0x00\n      swap1\n        /* \"Verify.sol\":3555:3566  studentAddr */\n      dup4\n      swap1\n        /* \"Verify.sol\":3578:3603  string memory text_markup */\n      0x60\n      swap1\n      sub(shl(0xa0, 0x01), 0x01)\n        /* \"Verify.sol\":3606:3633  entityStudent.MarkupsSender */\n      dup4\n      and\n      swap1\n      0x6b31c5f1\n      swap1\n        /* \"Verify.sol\":3606:3656  entityStudent.MarkupsSender(schoolAddr, \"diploma\") */\n      tag_184\n      swap1\n        /* \"Verify.sol\":3634:3644  schoolAddr */\n      dup8\n      swap1\n        /* \"Verify.sol\":3606:3656  entityStudent.MarkupsSender(schoolAddr, \"diploma\") */\n      0x04\n      add\n      jump(tag_185)\n    tag_184:\n      0x00\n      mload(0x40)\n      dup1\n      dup4\n      sub\n      dup2\n      dup7\n      dup1\n      extcodesize\n      iszero\n        /* \"--CODEGEN--\":5:14   */\n      dup1\n        /* \"--CODEGEN--\":2:4   */\n      iszero\n      tag_186\n      jumpi\n        /* \"--CODEGEN--\":27:28   */\n      0x00\n        /* \"--CODEGEN--\":24:25   */\n      dup1\n        /* \"--CODEGEN--\":17:29   */\n      revert\n        /* \"--CODEGEN--\":2:4   */\n    tag_186:\n        /* \"Verify.sol\":3606:3656  entityStudent.MarkupsSender(schoolAddr, \"diploma\") */\n      pop\n      gas\n      staticcall\n      iszero\n        /* \"--CODEGEN--\":8:17   */\n      dup1\n        /* \"--CODEGEN--\":5:7   */\n      iszero\n      tag_188\n      jumpi\n        /* \"--CODEGEN--\":45:61   */\n      returndatasize\n        /* \"--CODEGEN--\":42:43   */\n      0x00\n        /* \"--CODEGEN--\":39:40   */\n      dup1\n        /* \"--CODEGEN--\":24:62   */\n      returndatacopy\n        /* \"--CODEGEN--\":77:93   */\n      returndatasize\n        /* \"--CODEGEN--\":74:75   */\n      0x00\n        /* \"--CODEGEN--\":67:94   */\n      revert\n        /* \"--CODEGEN--\":5:7   */\n    tag_188:\n        /* \"Verify.sol\":3606:3656  entityStudent.MarkupsSender(schoolAddr, \"diploma\") */\n      pop\n      pop\n      pop\n      pop\n      mload(0x40)\n        /* \"--CODEGEN--\":39:55   */\n      returndatasize\n        /* \"--CODEGEN--\":36:37   */\n      0x00\n        /* \"--CODEGEN--\":17:34   */\n      dup3\n        /* \"--CODEGEN--\":2:56   */\n      returndatacopy\n        /* \"--CODEGEN--\":101:105   */\n      0x1f\n        /* \"Verify.sol\":3606:3656  entityStudent.MarkupsSender(schoolAddr, \"diploma\") */\n      returndatasize\n        /* \"--CODEGEN--\":80:95   */\n      swap1\n      dup2\n      add\n      not(0x1f)\n        /* \"--CODEGEN--\":76:107   */\n      and\n        /* \"--CODEGEN--\":65:108   */\n      dup3\n      add\n        /* \"--CODEGEN--\":120:124   */\n      0x40\n        /* \"--CODEGEN--\":113:133   */\n      mstore\n        /* \"Verify.sol\":3606:3656  entityStudent.MarkupsSender(schoolAddr, \"diploma\") */\n      tag_189\n      swap2\n      swap1\n      dup2\n      add\n      swap1\n      jump(tag_123)\n    tag_189:\n        /* \"Verify.sol\":3578:3656  string memory text_markup = entityStudent.MarkupsSender(schoolAddr, \"diploma\") */\n      swap1\n      pop\n        /* \"Verify.sol\":3725:3753  abi.encodePacked(\"Canceled\") */\n      add(0x20, mload(0x40))\n      tag_190\n      swap1\n      jump(tag_191)\n    tag_190:\n      mload(0x40)\n        /* \"--CODEGEN--\":49:53   */\n      0x20\n        /* \"--CODEGEN--\":39:46   */\n      dup2\n        /* \"--CODEGEN--\":30:37   */\n      dup4\n        /* \"--CODEGEN--\":26:47   */\n      sub\n        /* \"--CODEGEN--\":22:54   */\n      sub\n        /* \"--CODEGEN--\":13:20   */\n      dup2\n        /* \"--CODEGEN--\":6:55   */\n      mstore\n        /* \"Verify.sol\":3725:3753  abi.encodePacked(\"Canceled\") */\n      swap1\n      0x40\n      mstore\n        /* \"Verify.sol\":3715:3754  keccak256(abi.encodePacked(\"Canceled\")) */\n      dup1\n      mload\n      swap1\n      0x20\n      add\n      keccak256\n        /* \"Verify.sol\":3698:3709  text_markup */\n      dup2\n        /* \"Verify.sol\":3681:3710  abi.encodePacked(text_markup) */\n      add(0x20, mload(0x40))\n      tag_192\n      swap2\n      swap1\n      jump(tag_127)\n    tag_192:\n      mload(0x40)\n        /* \"--CODEGEN--\":49:53   */\n      0x20\n        /* \"--CODEGEN--\":39:46   */\n      dup2\n        /* \"--CODEGEN--\":30:37   */\n      dup4\n        /* \"--CODEGEN--\":26:47   */\n      sub\n        /* \"--CODEGEN--\":22:54   */\n      sub\n        /* \"--CODEGEN--\":13:20   */\n      dup2\n        /* \"--CODEGEN--\":6:55   */\n      mstore\n        /* \"Verify.sol\":3681:3710  abi.encodePacked(text_markup) */\n      swap1\n      0x40\n      mstore\n        /* \"Verify.sol\":3671:3711  keccak256(abi.encodePacked(text_markup)) */\n      dup1\n      mload\n      swap1\n      0x20\n      add\n      keccak256\n        /* \"Verify.sol\":3671:3754  keccak256(abi.encodePacked(text_markup)) == keccak256(abi.encodePacked(\"Canceled\")) */\n      eq\n        /* \"Verify.sol\":3667:3808  if (keccak256(abi.encodePacked(text_markup)) == keccak256(abi.encodePacked(\"Canceled\")))\r... */\n      iszero\n      tag_193\n      jumpi\n        /* \"Verify.sol\":3776:3781  false */\n      0x00\n        /* \"Verify.sol\":3769:3781  return false */\n      swap3\n      pop\n      pop\n      pop\n      jump(tag_139)\n        /* \"Verify.sol\":3667:3808  if (keccak256(abi.encodePacked(text_markup)) == keccak256(abi.encodePacked(\"Canceled\")))\r... */\n    tag_193:\n        /* \"Verify.sol\":3804:3808  true */\n      0x01\n        /* \"Verify.sol\":3797:3808  return true */\n      swap3\n      pop\n      pop\n      pop\n      jump(tag_139)\n        /* \"Verify.sol\":1872:2250  function ministryLogin(address ministryAddr) public view returns (bool) {\r... */\n    tag_95:\n        /* \"Verify.sol\":2058:2072  ministryEntity */\n      sload(0x02)\n        /* \"Verify.sol\":2031:2102  entityMinistry.columnValue(ministryEntity, \"certificate\", \"isMinistry\") */\n      mload(0x40)\n      shl(0xe0, 0x8cba76b1)\n      dup2\n      mstore\n        /* \"Verify.sol\":1938:1942  bool */\n      0x00\n      swap2\n        /* \"Verify.sol\":1986:1998  ministryAddr */\n      dup4\n      swap2\n        /* \"Verify.sol\":2010:2028  string memory text */\n      0x60\n      swap2\n      sub(shl(0xa0, 0x01), 0x01)\n        /* \"Verify.sol\":2031:2057  entityMinistry.columnValue */\n      dup1\n      dup6\n      and\n      swap3\n      0x8cba76b1\n      swap3\n        /* \"Verify.sol\":2031:2102  entityMinistry.columnValue(ministryEntity, \"certificate\", \"isMinistry\") */\n      tag_117\n      swap3\n        /* \"Verify.sol\":2058:2072  ministryEntity */\n      and\n      swap1\n        /* \"Verify.sol\":2031:2102  entityMinistry.columnValue(ministryEntity, \"certificate\", \"isMinistry\") */\n      0x04\n      add\n      jump(tag_197)\n        /* \"Verify.sol\":409:483  address public ministryEntity = 0x11d1b708790B3BA3c25FdB9fe7c0d5196A1d1689 */\n    tag_98:\n      and(sub(shl(0xa0, 0x01), 0x01), sload(0x02))\n      dup2\n      jump\t// out\n        /* \"Verify.sol\":96:4504  contract Verify {\r... */\n    tag_103:\n      mload(0x40)\n      dup1\n      0x80\n      add\n      0x40\n      mstore\n      dup1\n      0x60\n      dup2\n      mstore\n      0x20\n      add\n      and(sub(shl(0xa0, 0x01), 0x01), 0x00)\n      dup2\n      mstore\n      0x20\n      add\n      0x60\n      dup2\n      mstore\n      0x20\n      add\n      0x60\n      dup2\n      mstore\n      pop\n      swap1\n      jump\t// out\n    tag_106:\n      dup3\n      dup1\n      sload\n      0x01\n      dup2\n      0x01\n      and\n      iszero\n      0x0100\n      mul\n      sub\n      and\n      0x02\n      swap1\n      div\n      swap1\n      0x00\n      mstore\n      keccak256(0x00, 0x20)\n      swap1\n      0x1f\n      add\n      0x20\n      swap1\n      div\n      dup2\n      add\n      swap3\n      dup3\n      0x1f\n      lt\n      tag_207\n      jumpi\n      dup1\n      mload\n      not(0xff)\n      and\n      dup4\n      dup1\n      add\n      or\n      dup6\n      sstore\n      jump(tag_209)\n    tag_207:\n      dup3\n      dup1\n      add\n      0x01\n      add\n      dup6\n      sstore\n      dup3\n      iszero\n      tag_209\n      jumpi\n      swap2\n      dup3\n      add\n    tag_208:\n      dup3\n      dup2\n      gt\n      iszero\n      tag_209\n      jumpi\n      dup3\n      mload\n      dup3\n      sstore\n      swap2\n      0x20\n      add\n      swap2\n      swap1\n      0x01\n      add\n      swap1\n      jump(tag_208)\n    tag_209:\n      pop\n      tag_210\n      swap3\n      swap2\n      pop\n      tag_211\n      jump\t// in\n    tag_210:\n      pop\n      swap1\n      jump\t// out\n    tag_153:\n      0x40\n      dup1\n      mload\n      dup1\n      dup3\n      add\n      swap1\n      swap2\n      mstore\n      0x60\n      dup2\n      mstore\n      0x00\n      0x20\n      dup3\n      add\n      mstore\n      swap1\n      jump\t// out\n    tag_211:\n      tag_100\n      swap2\n      swap1\n    tag_213:\n      dup1\n      dup3\n      gt\n      iszero\n      tag_210\n      jumpi\n      0x00\n      dup2\n      sstore\n      0x01\n      add\n      jump(tag_213)\n        /* \"--CODEGEN--\":5:135   */\n    tag_216:\n        /* \"--CODEGEN--\":72:92   */\n      dup1\n      calldataload\n      sub(shl(0xa0, 0x01), 0x01)\n        /* \"--CODEGEN--\":20214:20268   */\n      dup2\n      and\n        /* \"--CODEGEN--\":20954:20989   */\n      dup2\n      eq\n        /* \"--CODEGEN--\":20944:20946   */\n      tag_139\n      jumpi\n        /* \"--CODEGEN--\":21003:21004   */\n      0x00\n      dup1\n        /* \"--CODEGEN--\":20993:21005   */\n      revert\n        /* \"--CODEGEN--\":143:585   */\n    tag_219:\n      0x00\n        /* \"--CODEGEN--\":245:248   */\n      dup3\n        /* \"--CODEGEN--\":238:242   */\n      0x1f\n        /* \"--CODEGEN--\":230:236   */\n      dup4\n        /* \"--CODEGEN--\":226:243   */\n      add\n        /* \"--CODEGEN--\":222:249   */\n      slt\n        /* \"--CODEGEN--\":212:214   */\n      tag_221\n      jumpi\n      dup1\n      dup2\n        /* \"--CODEGEN--\":253:265   */\n      revert\n        /* \"--CODEGEN--\":212:214   */\n    tag_221:\n        /* \"--CODEGEN--\":300:306   */\n      dup2\n        /* \"--CODEGEN--\":287:307   */\n      calldataload\n        /* \"--CODEGEN--\":322:387   */\n      tag_222\n        /* \"--CODEGEN--\":337:386   */\n      tag_223\n        /* \"--CODEGEN--\":379:385   */\n      dup3\n        /* \"--CODEGEN--\":337:386   */\n      jump(tag_224)\n    tag_223:\n        /* \"--CODEGEN--\":322:387   */\n      jump(tag_225)\n    tag_222:\n        /* \"--CODEGEN--\":313:387   */\n      swap2\n      pop\n        /* \"--CODEGEN--\":407:413   */\n      dup1\n        /* \"--CODEGEN--\":400:405   */\n      dup3\n        /* \"--CODEGEN--\":393:414   */\n      mstore\n        /* \"--CODEGEN--\":511:514   */\n      dup4\n        /* \"--CODEGEN--\":443:447   */\n      0x20\n        /* \"--CODEGEN--\":502:508   */\n      dup3\n        /* \"--CODEGEN--\":435:441   */\n      dup6\n        /* \"--CODEGEN--\":493:509   */\n      add\n      add\n        /* \"--CODEGEN--\":490:515   */\n      gt\n        /* \"--CODEGEN--\":487:489   */\n      iszero\n      tag_226\n      jumpi\n        /* \"--CODEGEN--\":528:529   */\n      0x00\n      dup1\n        /* \"--CODEGEN--\":518:530   */\n      revert\n        /* \"--CODEGEN--\":487:489   */\n    tag_226:\n        /* \"--CODEGEN--\":20441:20447   */\n      dup1\n        /* \"--CODEGEN--\":443:447   */\n      0x20\n        /* \"--CODEGEN--\":435:441   */\n      dup5\n        /* \"--CODEGEN--\":431:448   */\n      add\n        /* \"--CODEGEN--\":443:447   */\n      0x20\n        /* \"--CODEGEN--\":469:474   */\n      dup5\n        /* \"--CODEGEN--\":465:481   */\n      add\n        /* \"--CODEGEN--\":20418:20448   */\n      calldatacopy\n        /* \"--CODEGEN--\":20497:20498   */\n      0x00\n        /* \"--CODEGEN--\":20479:20495   */\n      swap1\n      dup3\n      add\n        /* \"--CODEGEN--\":443:447   */\n      0x20\n        /* \"--CODEGEN--\":20479:20495   */\n      add\n        /* \"--CODEGEN--\":20472:20499   */\n      mstore\n        /* \"--CODEGEN--\":469:474   */\n      swap3\n        /* \"--CODEGEN--\":205:585   */\n      swap2\n      pop\n      pop\n      jump\n        /* \"--CODEGEN--\":1183:1424   */\n    tag_38:\n      0x00\n        /* \"--CODEGEN--\":1287:1289   */\n      0x20\n        /* \"--CODEGEN--\":1275:1284   */\n      dup3\n        /* \"--CODEGEN--\":1266:1273   */\n      dup5\n        /* \"--CODEGEN--\":1262:1285   */\n      sub\n        /* \"--CODEGEN--\":1258:1290   */\n      slt\n        /* \"--CODEGEN--\":1255:1257   */\n      iszero\n      tag_228\n      jumpi\n      dup1\n      dup2\n        /* \"--CODEGEN--\":1293:1305   */\n      revert\n        /* \"--CODEGEN--\":1255:1257   */\n    tag_228:\n        /* \"--CODEGEN--\":1355:1408   */\n      tag_229\n        /* \"--CODEGEN--\":1400:1407   */\n      dup4\n        /* \"--CODEGEN--\":1376:1398   */\n      dup4\n        /* \"--CODEGEN--\":1355:1408   */\n      jump(tag_216)\n    tag_229:\n        /* \"--CODEGEN--\":1345:1408   */\n      swap4\n        /* \"--CODEGEN--\":1249:1424   */\n      swap3\n      pop\n      pop\n      pop\n      jump\n        /* \"--CODEGEN--\":1431:1797   */\n    tag_44:\n      0x00\n      dup1\n        /* \"--CODEGEN--\":1552:1554   */\n      0x40\n        /* \"--CODEGEN--\":1540:1549   */\n      dup4\n        /* \"--CODEGEN--\":1531:1538   */\n      dup6\n        /* \"--CODEGEN--\":1527:1550   */\n      sub\n        /* \"--CODEGEN--\":1523:1555   */\n      slt\n        /* \"--CODEGEN--\":1520:1522   */\n      iszero\n      tag_231\n      jumpi\n      dup1\n      dup2\n        /* \"--CODEGEN--\":1558:1570   */\n      revert\n        /* \"--CODEGEN--\":1520:1522   */\n    tag_231:\n        /* \"--CODEGEN--\":1620:1673   */\n      tag_232\n        /* \"--CODEGEN--\":1665:1672   */\n      dup5\n        /* \"--CODEGEN--\":1641:1663   */\n      dup5\n        /* \"--CODEGEN--\":1620:1673   */\n      jump(tag_216)\n    tag_232:\n        /* \"--CODEGEN--\":1610:1673   */\n      swap2\n      pop\n        /* \"--CODEGEN--\":1728:1781   */\n      tag_233\n        /* \"--CODEGEN--\":1773:1780   */\n      dup5\n        /* \"--CODEGEN--\":1710:1712   */\n      0x20\n        /* \"--CODEGEN--\":1753:1762   */\n      dup6\n        /* \"--CODEGEN--\":1749:1771   */\n      add\n        /* \"--CODEGEN--\":1728:1781   */\n      jump(tag_216)\n    tag_233:\n        /* \"--CODEGEN--\":1718:1781   */\n      swap1\n      pop\n        /* \"--CODEGEN--\":1514:1797   */\n      swap3\n      pop\n      swap3\n      swap1\n      pop\n      jump\n        /* \"--CODEGEN--\":1804:2276   */\n    tag_63:\n      0x00\n      dup1\n        /* \"--CODEGEN--\":1935:1937   */\n      0x40\n        /* \"--CODEGEN--\":1923:1932   */\n      dup4\n        /* \"--CODEGEN--\":1914:1921   */\n      dup6\n        /* \"--CODEGEN--\":1910:1933   */\n      sub\n        /* \"--CODEGEN--\":1906:1938   */\n      slt\n        /* \"--CODEGEN--\":1903:1905   */\n      iszero\n      tag_235\n      jumpi\n      dup2\n      dup3\n        /* \"--CODEGEN--\":1941:1953   */\n      revert\n        /* \"--CODEGEN--\":1903:1905   */\n    tag_235:\n        /* \"--CODEGEN--\":72:92   */\n      dup3\n      calldataload\n      sub(shl(0xa0, 0x01), 0x01)\n        /* \"--CODEGEN--\":20214:20268   */\n      dup2\n      and\n        /* \"--CODEGEN--\":20954:20989   */\n      dup2\n      eq\n        /* \"--CODEGEN--\":20944:20946   */\n      tag_236\n      jumpi\n      dup3\n      dup4\n        /* \"--CODEGEN--\":20993:21005   */\n      revert\n        /* \"--CODEGEN--\":20944:20946   */\n    tag_236:\n        /* \"--CODEGEN--\":1993:2056   */\n      swap2\n      pop\n        /* \"--CODEGEN--\":2121:2123   */\n      0x20\n        /* \"--CODEGEN--\":2106:2124   */\n      dup4\n      add\n        /* \"--CODEGEN--\":2093:2125   */\n      calldataload\n        /* \"--CODEGEN--\":2145:2163   */\n      0xffffffffffffffff\n        /* \"--CODEGEN--\":2134:2164   */\n      dup2\n      gt\n        /* \"--CODEGEN--\":2131:2133   */\n      iszero\n      tag_237\n      jumpi\n      dup2\n      dup3\n        /* \"--CODEGEN--\":2167:2179   */\n      revert\n        /* \"--CODEGEN--\":2131:2133   */\n    tag_237:\n        /* \"--CODEGEN--\":2197:2260   */\n      tag_238\n        /* \"--CODEGEN--\":2252:2259   */\n      dup6\n        /* \"--CODEGEN--\":2243:2249   */\n      dup3\n        /* \"--CODEGEN--\":2232:2241   */\n      dup7\n        /* \"--CODEGEN--\":2228:2250   */\n      add\n        /* \"--CODEGEN--\":2197:2260   */\n      jump(tag_219)\n    tag_238:\n        /* \"--CODEGEN--\":2187:2260   */\n      swap2\n      pop\n      pop\n        /* \"--CODEGEN--\":1897:2276   */\n      swap3\n      pop\n      swap3\n      swap1\n      pop\n      jump\n        /* \"--CODEGEN--\":2283:3344   */\n    tag_29:\n      0x00\n      dup1\n      0x00\n      dup1\n      0x00\n        /* \"--CODEGEN--\":2485:2488   */\n      0xa0\n        /* \"--CODEGEN--\":2473:2482   */\n      dup7\n        /* \"--CODEGEN--\":2464:2471   */\n      dup9\n        /* \"--CODEGEN--\":2460:2483   */\n      sub\n        /* \"--CODEGEN--\":2456:2489   */\n      slt\n        /* \"--CODEGEN--\":2453:2455   */\n      iszero\n      tag_240\n      jumpi\n      dup1\n      dup2\n        /* \"--CODEGEN--\":2492:2504   */\n      revert\n        /* \"--CODEGEN--\":2453:2455   */\n    tag_240:\n        /* \"--CODEGEN--\":2554:2607   */\n      tag_241\n        /* \"--CODEGEN--\":2599:2606   */\n      dup8\n        /* \"--CODEGEN--\":2575:2597   */\n      dup8\n        /* \"--CODEGEN--\":2554:2607   */\n      jump(tag_216)\n    tag_241:\n        /* \"--CODEGEN--\":2544:2607   */\n      swap5\n      pop\n        /* \"--CODEGEN--\":2672:2674   */\n      0x20\n        /* \"--CODEGEN--\":2661:2670   */\n      dup7\n        /* \"--CODEGEN--\":2657:2675   */\n      add\n        /* \"--CODEGEN--\":2644:2676   */\n      calldataload\n        /* \"--CODEGEN--\":2696:2714   */\n      0xffffffffffffffff\n      dup1\n        /* \"--CODEGEN--\":2688:2694   */\n      dup3\n        /* \"--CODEGEN--\":2685:2715   */\n      gt\n        /* \"--CODEGEN--\":2682:2684   */\n      iszero\n      tag_242\n      jumpi\n      dup3\n      dup4\n        /* \"--CODEGEN--\":2718:2730   */\n      revert\n        /* \"--CODEGEN--\":2682:2684   */\n    tag_242:\n        /* \"--CODEGEN--\":2748:2811   */\n      tag_243\n        /* \"--CODEGEN--\":2803:2810   */\n      dup10\n        /* \"--CODEGEN--\":2794:2800   */\n      dup4\n        /* \"--CODEGEN--\":2783:2792   */\n      dup11\n        /* \"--CODEGEN--\":2779:2801   */\n      add\n        /* \"--CODEGEN--\":2748:2811   */\n      jump(tag_219)\n    tag_243:\n        /* \"--CODEGEN--\":2738:2811   */\n      swap6\n      pop\n        /* \"--CODEGEN--\":2866:2919   */\n      tag_244\n        /* \"--CODEGEN--\":2911:2918   */\n      dup10\n        /* \"--CODEGEN--\":2848:2850   */\n      0x40\n        /* \"--CODEGEN--\":2891:2900   */\n      dup11\n        /* \"--CODEGEN--\":2887:2909   */\n      add\n        /* \"--CODEGEN--\":2866:2919   */\n      jump(tag_216)\n    tag_244:\n        /* \"--CODEGEN--\":2856:2919   */\n      swap5\n      pop\n        /* \"--CODEGEN--\":2984:2986   */\n      0x60\n        /* \"--CODEGEN--\":2973:2982   */\n      dup9\n        /* \"--CODEGEN--\":2969:2987   */\n      add\n        /* \"--CODEGEN--\":2956:2988   */\n      calldataload\n        /* \"--CODEGEN--\":2942:2988   */\n      swap2\n      pop\n        /* \"--CODEGEN--\":2696:2714   */\n      dup1\n        /* \"--CODEGEN--\":3000:3006   */\n      dup3\n        /* \"--CODEGEN--\":2997:3027   */\n      gt\n        /* \"--CODEGEN--\":2994:2996   */\n      iszero\n      tag_245\n      jumpi\n      dup3\n      dup4\n        /* \"--CODEGEN--\":3030:3042   */\n      revert\n        /* \"--CODEGEN--\":2994:2996   */\n    tag_245:\n        /* \"--CODEGEN--\":3060:3123   */\n      tag_246\n        /* \"--CODEGEN--\":3115:3122   */\n      dup10\n        /* \"--CODEGEN--\":3106:3112   */\n      dup4\n        /* \"--CODEGEN--\":3095:3104   */\n      dup11\n        /* \"--CODEGEN--\":3091:3113   */\n      add\n        /* \"--CODEGEN--\":3060:3123   */\n      jump(tag_219)\n    tag_246:\n        /* \"--CODEGEN--\":3050:3123   */\n      swap4\n      pop\n        /* \"--CODEGEN--\":3188:3191   */\n      0x80\n        /* \"--CODEGEN--\":3177:3186   */\n      dup9\n        /* \"--CODEGEN--\":3173:3192   */\n      add\n        /* \"--CODEGEN--\":3160:3193   */\n      calldataload\n        /* \"--CODEGEN--\":3146:3193   */\n      swap2\n      pop\n        /* \"--CODEGEN--\":2696:2714   */\n      dup1\n        /* \"--CODEGEN--\":3205:3211   */\n      dup3\n        /* \"--CODEGEN--\":3202:3232   */\n      gt\n        /* \"--CODEGEN--\":3199:3201   */\n      iszero\n      tag_247\n      jumpi\n      dup3\n      dup4\n        /* \"--CODEGEN--\":3235:3247   */\n      revert\n        /* \"--CODEGEN--\":3199:3201   */\n    tag_247:\n      pop\n        /* \"--CODEGEN--\":3265:3328   */\n      tag_248\n        /* \"--CODEGEN--\":3320:3327   */\n      dup9\n        /* \"--CODEGEN--\":3311:3317   */\n      dup3\n        /* \"--CODEGEN--\":3300:3309   */\n      dup10\n        /* \"--CODEGEN--\":3296:3318   */\n      add\n        /* \"--CODEGEN--\":3265:3328   */\n      jump(tag_219)\n    tag_248:\n        /* \"--CODEGEN--\":3255:3328   */\n      swap2\n      pop\n      pop\n        /* \"--CODEGEN--\":2447:3344   */\n      swap3\n      swap6\n      pop\n      swap3\n      swap6\n      swap1\n      swap4\n      pop\n      jump\n        /* \"--CODEGEN--\":3351:3717   */\n    tag_58:\n      0x00\n      dup1\n        /* \"--CODEGEN--\":3472:3474   */\n      0x40\n        /* \"--CODEGEN--\":3460:3469   */\n      dup4\n        /* \"--CODEGEN--\":3451:3458   */\n      dup6\n        /* \"--CODEGEN--\":3447:3470   */\n      sub\n        /* \"--CODEGEN--\":3443:3475   */\n      slt\n        /* \"--CODEGEN--\":3440:3442   */\n      iszero\n      tag_250\n      jumpi\n      dup2\n      dup3\n        /* \"--CODEGEN--\":3478:3490   */\n      revert\n        /* \"--CODEGEN--\":3440:3442   */\n    tag_250:\n        /* \"--CODEGEN--\":3540:3593   */\n      tag_251\n        /* \"--CODEGEN--\":3585:3592   */\n      dup5\n        /* \"--CODEGEN--\":3561:3583   */\n      dup5\n        /* \"--CODEGEN--\":3540:3593   */\n      jump(tag_216)\n    tag_251:\n        /* \"--CODEGEN--\":3530:3593   */\n      swap5\n        /* \"--CODEGEN--\":3630:3632   */\n      0x20\n        /* \"--CODEGEN--\":3669:3691   */\n      swap4\n      swap1\n      swap4\n      add\n        /* \"--CODEGEN--\":1113:1133   */\n      calldataload\n      swap4\n      pop\n      pop\n      pop\n        /* \"--CODEGEN--\":3434:3717   */\n      jump\n        /* \"--CODEGEN--\":3724:4071   */\n    tag_33:\n      0x00\n        /* \"--CODEGEN--\":3838:3840   */\n      0x20\n        /* \"--CODEGEN--\":3826:3835   */\n      dup3\n        /* \"--CODEGEN--\":3817:3824   */\n      dup5\n        /* \"--CODEGEN--\":3813:3836   */\n      sub\n        /* \"--CODEGEN--\":3809:3841   */\n      slt\n        /* \"--CODEGEN--\":3806:3808   */\n      iszero\n      tag_253\n      jumpi\n      dup1\n      dup2\n        /* \"--CODEGEN--\":3844:3856   */\n      revert\n        /* \"--CODEGEN--\":3806:3808   */\n    tag_253:\n        /* \"--CODEGEN--\":3902:3919   */\n      dup2\n        /* \"--CODEGEN--\":3889:3920   */\n      calldataload\n        /* \"--CODEGEN--\":3940:3958   */\n      0xffffffffffffffff\n        /* \"--CODEGEN--\":3932:3938   */\n      dup2\n        /* \"--CODEGEN--\":3929:3959   */\n      gt\n        /* \"--CODEGEN--\":3926:3928   */\n      iszero\n      tag_254\n      jumpi\n      dup2\n      dup3\n        /* \"--CODEGEN--\":3962:3974   */\n      revert\n        /* \"--CODEGEN--\":3926:3928   */\n    tag_254:\n        /* \"--CODEGEN--\":3992:4055   */\n      tag_255\n        /* \"--CODEGEN--\":4047:4054   */\n      dup5\n        /* \"--CODEGEN--\":4038:4044   */\n      dup3\n        /* \"--CODEGEN--\":4027:4036   */\n      dup6\n        /* \"--CODEGEN--\":4023:4045   */\n      add\n        /* \"--CODEGEN--\":3992:4055   */\n      jump(tag_219)\n    tag_255:\n        /* \"--CODEGEN--\":3982:4055   */\n      swap5\n        /* \"--CODEGEN--\":3800:4071   */\n      swap4\n      pop\n      pop\n      pop\n      pop\n      jump\n        /* \"--CODEGEN--\":4078:4440   */\n    tag_123:\n      0x00\n        /* \"--CODEGEN--\":4203:4205   */\n      0x20\n        /* \"--CODEGEN--\":4191:4200   */\n      dup3\n        /* \"--CODEGEN--\":4182:4189   */\n      dup5\n        /* \"--CODEGEN--\":4178:4201   */\n      sub\n        /* \"--CODEGEN--\":4174:4206   */\n      slt\n        /* \"--CODEGEN--\":4171:4173   */\n      iszero\n      tag_257\n      jumpi\n      dup1\n      dup2\n        /* \"--CODEGEN--\":4209:4221   */\n      revert\n        /* \"--CODEGEN--\":4171:4173   */\n    tag_257:\n        /* \"--CODEGEN--\":4260:4277   */\n      dup2\n        /* \"--CODEGEN--\":4254:4278   */\n      mload\n        /* \"--CODEGEN--\":4298:4316   */\n      0xffffffffffffffff\n        /* \"--CODEGEN--\":4290:4296   */\n      dup2\n        /* \"--CODEGEN--\":4287:4317   */\n      gt\n        /* \"--CODEGEN--\":4284:4286   */\n      iszero\n      tag_258\n      jumpi\n      dup2\n      dup3\n        /* \"--CODEGEN--\":4320:4332   */\n      revert\n        /* \"--CODEGEN--\":4284:4286   */\n    tag_258:\n        /* \"--CODEGEN--\":4407:4413   */\n      dup1\n        /* \"--CODEGEN--\":4396:4405   */\n      dup4\n        /* \"--CODEGEN--\":4392:4414   */\n      add\n        /* \"--CODEGEN--\":707:710   */\n      dup5\n        /* \"--CODEGEN--\":700:704   */\n      0x1f\n        /* \"--CODEGEN--\":692:698   */\n      dup3\n        /* \"--CODEGEN--\":688:705   */\n      add\n        /* \"--CODEGEN--\":684:711   */\n      slt\n        /* \"--CODEGEN--\":674:676   */\n      tag_259\n      jumpi\n      dup3\n      dup4\n        /* \"--CODEGEN--\":715:727   */\n      revert\n        /* \"--CODEGEN--\":674:676   */\n    tag_259:\n        /* \"--CODEGEN--\":755:761   */\n      dup1\n        /* \"--CODEGEN--\":749:762   */\n      mload\n        /* \"--CODEGEN--\":735:762   */\n      swap2\n      pop\n        /* \"--CODEGEN--\":777:842   */\n      tag_260\n        /* \"--CODEGEN--\":792:841   */\n      tag_223\n        /* \"--CODEGEN--\":834:840   */\n      dup4\n        /* \"--CODEGEN--\":792:841   */\n      jump(tag_224)\n        /* \"--CODEGEN--\":777:842   */\n    tag_260:\n        /* \"--CODEGEN--\":862:868   */\n      dup3\n        /* \"--CODEGEN--\":855:860   */\n      dup2\n        /* \"--CODEGEN--\":848:869   */\n      mstore\n        /* \"--CODEGEN--\":966:969   */\n      dup6\n        /* \"--CODEGEN--\":4203:4205   */\n      0x20\n        /* \"--CODEGEN--\":957:963   */\n      dup5\n        /* \"--CODEGEN--\":890:896   */\n      dup5\n        /* \"--CODEGEN--\":948:964   */\n      add\n      add\n        /* \"--CODEGEN--\":945:970   */\n      gt\n        /* \"--CODEGEN--\":942:944   */\n      iszero\n      tag_262\n      jumpi\n      dup4\n      dup5\n        /* \"--CODEGEN--\":973:985   */\n      revert\n        /* \"--CODEGEN--\":942:944   */\n    tag_262:\n        /* \"--CODEGEN--\":993:1032   */\n      tag_181\n        /* \"--CODEGEN--\":1025:1031   */\n      dup4\n        /* \"--CODEGEN--\":4203:4205   */\n      0x20\n        /* \"--CODEGEN--\":924:929   */\n      dup4\n        /* \"--CODEGEN--\":920:936   */\n      add\n        /* \"--CODEGEN--\":4203:4205   */\n      0x20\n        /* \"--CODEGEN--\":890:896   */\n      dup6\n        /* \"--CODEGEN--\":886:903   */\n      add\n        /* \"--CODEGEN--\":993:1032   */\n      jump(tag_264)\n        /* \"--CODEGEN--\":4447:4688   */\n    tag_71:\n      0x00\n        /* \"--CODEGEN--\":4551:4553   */\n      0x20\n        /* \"--CODEGEN--\":4539:4548   */\n      dup3\n        /* \"--CODEGEN--\":4530:4537   */\n      dup5\n        /* \"--CODEGEN--\":4526:4549   */\n      sub\n        /* \"--CODEGEN--\":4522:4554   */\n      slt\n        /* \"--CODEGEN--\":4519:4521   */\n      iszero\n      tag_266\n      jumpi\n      dup1\n      dup2\n        /* \"--CODEGEN--\":4557:4569   */\n      revert\n        /* \"--CODEGEN--\":4519:4521   */\n    tag_266:\n      pop\n        /* \"--CODEGEN--\":1113:1133   */\n      calldataload\n      swap2\n        /* \"--CODEGEN--\":4513:4688   */\n      swap1\n      pop\n      jump\n        /* \"--CODEGEN--\":5947:6294   */\n    tag_267:\n      0x00\n        /* \"--CODEGEN--\":6092:6097   */\n      dup2\n        /* \"--CODEGEN--\":19164:19176   */\n      mload\n        /* \"--CODEGEN--\":19580:19586   */\n      dup1\n        /* \"--CODEGEN--\":19575:19578   */\n      dup5\n        /* \"--CODEGEN--\":19568:19587   */\n      mstore\n        /* \"--CODEGEN--\":6186:6238   */\n      tag_269\n        /* \"--CODEGEN--\":6231:6237   */\n      dup2\n        /* \"--CODEGEN--\":19617:19621   */\n      0x20\n        /* \"--CODEGEN--\":19612:19615   */\n      dup7\n        /* \"--CODEGEN--\":19608:19622   */\n      add\n        /* \"--CODEGEN--\":19617:19621   */\n      0x20\n        /* \"--CODEGEN--\":6212:6217   */\n      dup7\n        /* \"--CODEGEN--\":6208:6224   */\n      add\n        /* \"--CODEGEN--\":6186:6238   */\n      jump(tag_264)\n    tag_269:\n        /* \"--CODEGEN--\":20874:20881   */\n      0x1f\n        /* \"--CODEGEN--\":20858:20872   */\n      add\n      not(0x1f)\n        /* \"--CODEGEN--\":20854:20882   */\n      and\n        /* \"--CODEGEN--\":6250:6289   */\n      swap3\n      swap1\n      swap3\n      add\n        /* \"--CODEGEN--\":19617:19621   */\n      0x20\n        /* \"--CODEGEN--\":6250:6289   */\n      add\n      swap3\n        /* \"--CODEGEN--\":6039:6294   */\n      swap2\n      pop\n      pop\n      jump\n        /* \"--CODEGEN--\":9610:9916   */\n    tag_270:\n        /* \"--CODEGEN--\":9834:9835   */\n      0x07\n        /* \"--CODEGEN--\":19568:19587   */\n      dup2\n      mstore\n      shl(0xc8, 0x6469706c6f6d61)\n        /* \"--CODEGEN--\":19617:19621   */\n      0x20\n        /* \"--CODEGEN--\":19608:19622   */\n      dup3\n      add\n        /* \"--CODEGEN--\":9849:9879   */\n      mstore\n        /* \"--CODEGEN--\":9898:9910   */\n      0x40\n      add\n      swap1\n        /* \"--CODEGEN--\":9756:9916   */\n      jump\n        /* \"--CODEGEN--\":10044:10310   */\n    tag_127:\n      0x00\n        /* \"--CODEGEN--\":6464:6469   */\n      dup3\n        /* \"--CODEGEN--\":19164:19176   */\n      mload\n        /* \"--CODEGEN--\":6576:6628   */\n      tag_273\n        /* \"--CODEGEN--\":6621:6627   */\n      dup2\n        /* \"--CODEGEN--\":6616:6619   */\n      dup5\n        /* \"--CODEGEN--\":6609:6613   */\n      0x20\n        /* \"--CODEGEN--\":6602:6607   */\n      dup8\n        /* \"--CODEGEN--\":6598:6614   */\n      add\n        /* \"--CODEGEN--\":6576:6628   */\n      jump(tag_264)\n    tag_273:\n        /* \"--CODEGEN--\":6640:6656   */\n      swap2\n      swap1\n      swap2\n      add\n      swap3\n        /* \"--CODEGEN--\":10171:10310   */\n      swap2\n      pop\n      pop\n      jump\n        /* \"--CODEGEN--\":10317:10689   */\n    tag_125:\n      shl(0xe8, 0x596573)\n        /* \"--CODEGEN--\":8233:8259   */\n      dup2\n      mstore\n        /* \"--CODEGEN--\":8218:8219   */\n      0x03\n        /* \"--CODEGEN--\":8278:8289   */\n      add\n      swap1\n        /* \"--CODEGEN--\":10497:10689   */\n      jump\n        /* \"--CODEGEN--\":10696:11068   */\n    tag_191:\n      shl(0xc2, 0x10d85b98d95b1959)\n        /* \"--CODEGEN--\":8899:8930   */\n      dup2\n      mstore\n        /* \"--CODEGEN--\":8884:8885   */\n      0x08\n        /* \"--CODEGEN--\":8949:8960   */\n      add\n      swap1\n        /* \"--CODEGEN--\":10876:11068   */\n      jump\n        /* \"--CODEGEN--\":11075:11288   */\n    tag_55:\n      sub(shl(0xa0, 0x01), 0x01)\n        /* \"--CODEGEN--\":20214:20268   */\n      swap2\n      swap1\n      swap2\n      and\n        /* \"--CODEGEN--\":4938:4975   */\n      dup2\n      mstore\n        /* \"--CODEGEN--\":11193:11195   */\n      0x20\n        /* \"--CODEGEN--\":11178:11196   */\n      add\n      swap1\n        /* \"--CODEGEN--\":11164:11288   */\n      jump\n        /* \"--CODEGEN--\":11295:12118   */\n    tag_118:\n      sub(shl(0xa0, 0x01), 0x01)\n        /* \"--CODEGEN--\":20214:20268   */\n      swap2\n      swap1\n      swap2\n      and\n        /* \"--CODEGEN--\":4938:4975   */\n      dup2\n      mstore\n        /* \"--CODEGEN--\":11615:11617   */\n      0x60\n        /* \"--CODEGEN--\":11733:11735   */\n      0x20\n        /* \"--CODEGEN--\":11718:11736   */\n      dup3\n      add\n        /* \"--CODEGEN--\":11711:11759   */\n      dup2\n      swap1\n      mstore\n        /* \"--CODEGEN--\":7540:7542   */\n      0x11\n        /* \"--CODEGEN--\":11600:11618   */\n      swap1\n      dup3\n      add\n        /* \"--CODEGEN--\":19568:19587   */\n      mstore\n      shl(0x78, 0x7363686f6f6c4365727469666963617465)\n        /* \"--CODEGEN--\":19608:19622   */\n      0x80\n      dup3\n      add\n        /* \"--CODEGEN--\":7556:7596   */\n      mstore\n        /* \"--CODEGEN--\":20225:20267   */\n      0xa0\n        /* \"--CODEGEN--\":11937:11939   */\n      0x40\n        /* \"--CODEGEN--\":11922:11940   */\n      dup3\n      add\n        /* \"--CODEGEN--\":11915:11963   */\n      dup2\n      swap1\n      mstore\n        /* \"--CODEGEN--\":7866:7867   */\n      0x08\n        /* \"--CODEGEN--\":7615:7627   */\n      swap1\n      dup3\n      add\n        /* \"--CODEGEN--\":19568:19587   */\n      mstore\n      shl(0xc2, 0x1a5cd4d8da1bdbdb)\n        /* \"--CODEGEN--\":19608:19622   */\n      0xc0\n      dup3\n      add\n        /* \"--CODEGEN--\":7881:7912   */\n      mstore\n        /* \"--CODEGEN--\":7931:7943   */\n      0xe0\n      add\n      swap1\n        /* \"--CODEGEN--\":11586:12118   */\n      jump\n        /* \"--CODEGEN--\":12125:12948   */\n    tag_197:\n      sub(shl(0xa0, 0x01), 0x01)\n        /* \"--CODEGEN--\":20214:20268   */\n      swap2\n      swap1\n      swap2\n      and\n        /* \"--CODEGEN--\":4938:4975   */\n      dup2\n      mstore\n        /* \"--CODEGEN--\":12445:12447   */\n      0x60\n        /* \"--CODEGEN--\":12563:12565   */\n      0x20\n        /* \"--CODEGEN--\":12548:12566   */\n      dup3\n      add\n        /* \"--CODEGEN--\":12541:12589   */\n      dup2\n      swap1\n      mstore\n        /* \"--CODEGEN--\":8528:8530   */\n      0x0b\n        /* \"--CODEGEN--\":12430:12448   */\n      swap1\n      dup3\n      add\n        /* \"--CODEGEN--\":19568:19587   */\n      mstore\n      shl(0xa8, 0x6365727469666963617465)\n        /* \"--CODEGEN--\":19608:19622   */\n      0x80\n      dup3\n      add\n        /* \"--CODEGEN--\":8544:8578   */\n      mstore\n        /* \"--CODEGEN--\":20225:20267   */\n      0xa0\n        /* \"--CODEGEN--\":12767:12769   */\n      0x40\n        /* \"--CODEGEN--\":12752:12770   */\n      dup3\n      add\n        /* \"--CODEGEN--\":12745:12793   */\n      dup2\n      swap1\n      mstore\n        /* \"--CODEGEN--\":9515:9517   */\n      0x0a\n        /* \"--CODEGEN--\":8597:8609   */\n      swap1\n      dup3\n      add\n        /* \"--CODEGEN--\":19568:19587   */\n      mstore\n      shl(0xb0, 0x69734d696e6973747279)\n        /* \"--CODEGEN--\":19608:19622   */\n      0xc0\n      dup3\n      add\n        /* \"--CODEGEN--\":9531:9564   */\n      mstore\n        /* \"--CODEGEN--\":9583:9595   */\n      0xe0\n      add\n      swap1\n        /* \"--CODEGEN--\":12416:12948   */\n      jump\n        /* \"--CODEGEN--\":12955:13473   */\n    tag_185:\n      sub(shl(0xa0, 0x01), 0x01)\n        /* \"--CODEGEN--\":20214:20268   */\n      dup3\n      and\n        /* \"--CODEGEN--\":4938:4975   */\n      dup2\n      mstore\n        /* \"--CODEGEN--\":13174:13176   */\n      0x40\n        /* \"--CODEGEN--\":13292:13294   */\n      0x20\n        /* \"--CODEGEN--\":13277:13295   */\n      dup3\n      add\n        /* \"--CODEGEN--\":13270:13318   */\n      dup2\n      swap1\n      mstore\n        /* \"--CODEGEN--\":12955:13473   */\n      0x00\n      swap1\n        /* \"--CODEGEN--\":13332:13463   */\n      tag_229\n      swap1\n        /* \"--CODEGEN--\":13159:13177   */\n      dup4\n      add\n        /* \"--CODEGEN--\":13332:13463   */\n      jump(tag_270)\n        /* \"--CODEGEN--\":13480:14303   */\n    tag_142:\n      sub(shl(0xa0, 0x01), 0x01)\n        /* \"--CODEGEN--\":20214:20268   */\n      dup3\n      and\n        /* \"--CODEGEN--\":4938:4975   */\n      dup2\n      mstore\n        /* \"--CODEGEN--\":13800:13802   */\n      0x60\n        /* \"--CODEGEN--\":13918:13920   */\n      0x20\n        /* \"--CODEGEN--\":13903:13921   */\n      dup3\n      add\n        /* \"--CODEGEN--\":13896:13944   */\n      dup2\n      swap1\n      mstore\n        /* \"--CODEGEN--\":13480:14303   */\n      0x00\n      swap1\n        /* \"--CODEGEN--\":13958:14089   */\n      tag_282\n      swap1\n        /* \"--CODEGEN--\":13785:13803   */\n      dup4\n      add\n        /* \"--CODEGEN--\":13958:14089   */\n      jump(tag_270)\n    tag_282:\n        /* \"--CODEGEN--\":14127:14147   */\n      dup3\n      dup2\n      sub\n        /* \"--CODEGEN--\":14122:14124   */\n      0x40\n        /* \"--CODEGEN--\":14107:14125   */\n      swap4\n      dup5\n      add\n        /* \"--CODEGEN--\":14100:14148   */\n      mstore\n        /* \"--CODEGEN--\":6893:6895   */\n      0x12\n        /* \"--CODEGEN--\":19568:19587   */\n      dup2\n      mstore\n      shl(0x70, 0x4365727469666963617465456e6444617465)\n        /* \"--CODEGEN--\":13918:13920   */\n      0x20\n        /* \"--CODEGEN--\":19608:19622   */\n      dup3\n      add\n        /* \"--CODEGEN--\":6909:6950   */\n      mstore\n        /* \"--CODEGEN--\":6969:6981   */\n      swap2\n      swap1\n      swap2\n      add\n      swap3\n        /* \"--CODEGEN--\":13771:14303   */\n      swap2\n      pop\n      pop\n      jump\n        /* \"--CODEGEN--\":14310:15133   */\n    tag_158:\n      sub(shl(0xa0, 0x01), 0x01)\n        /* \"--CODEGEN--\":20214:20268   */\n      dup3\n      and\n        /* \"--CODEGEN--\":4938:4975   */\n      dup2\n      mstore\n        /* \"--CODEGEN--\":14630:14632   */\n      0x60\n        /* \"--CODEGEN--\":14748:14750   */\n      0x20\n        /* \"--CODEGEN--\":14733:14751   */\n      dup3\n      add\n        /* \"--CODEGEN--\":14726:14774   */\n      dup2\n      swap1\n      mstore\n        /* \"--CODEGEN--\":14310:15133   */\n      0x00\n      swap1\n        /* \"--CODEGEN--\":14788:14919   */\n      tag_284\n      swap1\n        /* \"--CODEGEN--\":14615:14633   */\n      dup4\n      add\n        /* \"--CODEGEN--\":14788:14919   */\n      jump(tag_270)\n    tag_284:\n        /* \"--CODEGEN--\":14957:14977   */\n      dup3\n      dup2\n      sub\n        /* \"--CODEGEN--\":14952:14954   */\n      0x40\n        /* \"--CODEGEN--\":14937:14955   */\n      swap4\n      dup5\n      add\n        /* \"--CODEGEN--\":14930:14978   */\n      mstore\n        /* \"--CODEGEN--\":7220:7222   */\n      0x0b\n        /* \"--CODEGEN--\":19568:19587   */\n      dup2\n      mstore\n      shl(0xaa, 0x1a5cd1dc98591d585d1959)\n        /* \"--CODEGEN--\":14748:14750   */\n      0x20\n        /* \"--CODEGEN--\":19608:19622   */\n      dup3\n      add\n        /* \"--CODEGEN--\":7236:7270   */\n      mstore\n        /* \"--CODEGEN--\":7289:7301   */\n      swap2\n      swap1\n      swap2\n      add\n      swap3\n        /* \"--CODEGEN--\":14601:15133   */\n      swap2\n      pop\n      pop\n      jump\n        /* \"--CODEGEN--\":15140:15963   */\n    tag_177:\n      sub(shl(0xa0, 0x01), 0x01)\n        /* \"--CODEGEN--\":20214:20268   */\n      dup3\n      and\n        /* \"--CODEGEN--\":4938:4975   */\n      dup2\n      mstore\n        /* \"--CODEGEN--\":15460:15462   */\n      0x60\n        /* \"--CODEGEN--\":15578:15580   */\n      0x20\n        /* \"--CODEGEN--\":15563:15581   */\n      dup3\n      add\n        /* \"--CODEGEN--\":15556:15604   */\n      dup2\n      swap1\n      mstore\n        /* \"--CODEGEN--\":15140:15963   */\n      0x00\n      swap1\n        /* \"--CODEGEN--\":15618:15749   */\n      tag_286\n      swap1\n        /* \"--CODEGEN--\":15445:15463   */\n      dup4\n      add\n        /* \"--CODEGEN--\":15618:15749   */\n      jump(tag_270)\n    tag_286:\n        /* \"--CODEGEN--\":15787:15807   */\n      dup3\n      dup2\n      sub\n        /* \"--CODEGEN--\":15782:15784   */\n      0x40\n        /* \"--CODEGEN--\":15767:15785   */\n      swap4\n      dup5\n      add\n        /* \"--CODEGEN--\":15760:15808   */\n      mstore\n        /* \"--CODEGEN--\":9199:9200   */\n      0x08\n        /* \"--CODEGEN--\":19568:19587   */\n      dup2\n      mstore\n      shl(0xc3, 0x092a08ca6d0c2e6d)\n        /* \"--CODEGEN--\":15578:15580   */\n      0x20\n        /* \"--CODEGEN--\":19608:19622   */\n      dup3\n      add\n        /* \"--CODEGEN--\":9214:9245   */\n      mstore\n        /* \"--CODEGEN--\":9264:9276   */\n      swap2\n      swap1\n      swap2\n      add\n      swap3\n        /* \"--CODEGEN--\":15431:15963   */\n      swap2\n      pop\n      pop\n      jump\n        /* \"--CODEGEN--\":15970:16331   */\n    tag_79:\n        /* \"--CODEGEN--\":16138:16140   */\n      0x20\n        /* \"--CODEGEN--\":16152:16199   */\n      dup1\n      dup3\n      mstore\n        /* \"--CODEGEN--\":19164:19176   */\n      dup3\n      mload\n        /* \"--CODEGEN--\":16123:16141   */\n      dup3\n      dup3\n      add\n        /* \"--CODEGEN--\":19568:19587   */\n      dup2\n      swap1\n      mstore\n        /* \"--CODEGEN--\":15970:16331   */\n      0x00\n      swap2\n        /* \"--CODEGEN--\":16138:16140   */\n      swap1\n        /* \"--CODEGEN--\":19018:19032   */\n      dup5\n      dup3\n      add\n      swap1\n        /* \"--CODEGEN--\":19608:19622   */\n      0x40\n      dup6\n      add\n      swap1\n        /* \"--CODEGEN--\":15970:16331   */\n      dup5\n        /* \"--CODEGEN--\":5546:5806   */\n    tag_288:\n        /* \"--CODEGEN--\":5571:5577   */\n      dup2\n        /* \"--CODEGEN--\":5568:5569   */\n      dup2\n        /* \"--CODEGEN--\":5565:5578   */\n      lt\n        /* \"--CODEGEN--\":5546:5806   */\n      iszero\n      tag_290\n      jumpi\n        /* \"--CODEGEN--\":5632:5645   */\n      dup4\n      mload\n      sub(shl(0xa0, 0x01), 0x01)\n        /* \"--CODEGEN--\":20214:20268   */\n      and\n        /* \"--CODEGEN--\":4938:4975   */\n      dup4\n      mstore\n        /* \"--CODEGEN--\":19423:19437   */\n      swap3\n      dup5\n      add\n      swap3\n        /* \"--CODEGEN--\":4849:4863   */\n      swap2\n      dup5\n      add\n      swap2\n        /* \"--CODEGEN--\":20225:20267   */\n      0x01\n        /* \"--CODEGEN--\":5586:5595   */\n      add\n        /* \"--CODEGEN--\":5546:5806   */\n      jump(tag_288)\n    tag_290:\n      pop\n        /* \"--CODEGEN--\":16205:16321   */\n      swap1\n      swap7\n        /* \"--CODEGEN--\":16109:16331   */\n      swap6\n      pop\n      pop\n      pop\n      pop\n      pop\n      pop\n      jump\n        /* \"--CODEGEN--\":16338:16539   */\n    tag_41:\n        /* \"--CODEGEN--\":20126:20139   */\n      swap1\n      iszero\n        /* \"--CODEGEN--\":20119:20140   */\n      iszero\n        /* \"--CODEGEN--\":5901:5935   */\n      dup2\n      mstore\n        /* \"--CODEGEN--\":16450:16452   */\n      0x20\n        /* \"--CODEGEN--\":16435:16453   */\n      add\n      swap1\n        /* \"--CODEGEN--\":16421:16539   */\n      jump\n        /* \"--CODEGEN--\":16546:16847   */\n    tag_84:\n      0x00\n        /* \"--CODEGEN--\":16684:16686   */\n      0x20\n        /* \"--CODEGEN--\":16705:16722   */\n      dup3\n        /* \"--CODEGEN--\":16698:16745   */\n      mstore\n        /* \"--CODEGEN--\":16759:16837   */\n      tag_229\n        /* \"--CODEGEN--\":16684:16686   */\n      0x20\n        /* \"--CODEGEN--\":16673:16682   */\n      dup4\n        /* \"--CODEGEN--\":16669:16687   */\n      add\n        /* \"--CODEGEN--\":16823:16829   */\n      dup5\n        /* \"--CODEGEN--\":16759:16837   */\n      jump(tag_267)\n        /* \"--CODEGEN--\":16854:17266   */\n    tag_74:\n      0x00\n        /* \"--CODEGEN--\":17020:17022   */\n      0x40\n        /* \"--CODEGEN--\":17041:17058   */\n      dup3\n        /* \"--CODEGEN--\":17034:17081   */\n      mstore\n        /* \"--CODEGEN--\":17095:17173   */\n      tag_295\n        /* \"--CODEGEN--\":17020:17022   */\n      0x40\n        /* \"--CODEGEN--\":17009:17018   */\n      dup4\n        /* \"--CODEGEN--\":17005:17023   */\n      add\n        /* \"--CODEGEN--\":17159:17165   */\n      dup6\n        /* \"--CODEGEN--\":17095:17173   */\n      jump(tag_267)\n    tag_295:\n        /* \"--CODEGEN--\":17087:17173   */\n      swap1\n      pop\n        /* \"--CODEGEN--\":20225:20267   */\n      0x01\n      dup1\n      0xa0\n      shl\n      sub\n        /* \"--CODEGEN--\":4968:4973   */\n      dup4\n        /* \"--CODEGEN--\":20214:20268   */\n      and\n        /* \"--CODEGEN--\":17252:17254   */\n      0x20\n        /* \"--CODEGEN--\":17241:17250   */\n      dup4\n        /* \"--CODEGEN--\":17237:17255   */\n      add\n        /* \"--CODEGEN--\":4938:4975   */\n      mstore\n        /* \"--CODEGEN--\":16991:17266   */\n      swap4\n      swap3\n      pop\n      pop\n      pop\n      jump\n        /* \"--CODEGEN--\":17273:18084   */\n    tag_47:\n      0x00\n        /* \"--CODEGEN--\":17535:17538   */\n      0x80\n        /* \"--CODEGEN--\":17557:17574   */\n      dup3\n        /* \"--CODEGEN--\":17550:17597   */\n      mstore\n        /* \"--CODEGEN--\":17611:17689   */\n      tag_297\n        /* \"--CODEGEN--\":17535:17538   */\n      0x80\n        /* \"--CODEGEN--\":17524:17533   */\n      dup4\n        /* \"--CODEGEN--\":17520:17539   */\n      add\n        /* \"--CODEGEN--\":17675:17681   */\n      dup8\n        /* \"--CODEGEN--\":17611:17689   */\n      jump(tag_267)\n    tag_297:\n      sub(shl(0xa0, 0x01), 0x01)\n        /* \"--CODEGEN--\":20214:20268   */\n      dup7\n      and\n        /* \"--CODEGEN--\":17768:17770   */\n      0x20\n        /* \"--CODEGEN--\":17753:17771   */\n      dup5\n      add\n        /* \"--CODEGEN--\":4938:4975   */\n      mstore\n        /* \"--CODEGEN--\":17810:17830   */\n      dup3\n      dup2\n      sub\n        /* \"--CODEGEN--\":17805:17807   */\n      0x40\n        /* \"--CODEGEN--\":17790:17808   */\n      dup5\n      add\n        /* \"--CODEGEN--\":17783:17831   */\n      mstore\n        /* \"--CODEGEN--\":17845:17923   */\n      tag_298\n        /* \"--CODEGEN--\":17814:17818   */\n      dup2\n        /* \"--CODEGEN--\":17909:17915   */\n      dup7\n        /* \"--CODEGEN--\":17845:17923   */\n      jump(tag_267)\n    tag_298:\n        /* \"--CODEGEN--\":17971:17980   */\n      dup4\n        /* \"--CODEGEN--\":17965:17969   */\n      dup2\n        /* \"--CODEGEN--\":17961:17981   */\n      sub\n        /* \"--CODEGEN--\":17956:17958   */\n      0x60\n        /* \"--CODEGEN--\":17945:17954   */\n      dup6\n        /* \"--CODEGEN--\":17941:17959   */\n      add\n        /* \"--CODEGEN--\":17934:17982   */\n      mstore\n        /* \"--CODEGEN--\":17996:18074   */\n      tag_299\n        /* \"--CODEGEN--\":18069:18073   */\n      dup2\n        /* \"--CODEGEN--\":18060:18066   */\n      dup7\n        /* \"--CODEGEN--\":17996:18074   */\n      jump(tag_267)\n    tag_299:\n        /* \"--CODEGEN--\":17988:18074   */\n      swap9\n        /* \"--CODEGEN--\":17506:18084   */\n      swap8\n      pop\n      pop\n      pop\n      pop\n      pop\n      pop\n      pop\n      pop\n      jump\n        /* \"--CODEGEN--\":18091:18304   */\n    tag_26:\n        /* \"--CODEGEN--\":9995:10032   */\n      swap1\n      dup2\n      mstore\n        /* \"--CODEGEN--\":18209:18211   */\n      0x20\n        /* \"--CODEGEN--\":18194:18212   */\n      add\n      swap1\n        /* \"--CODEGEN--\":18180:18304   */\n      jump\n        /* \"--CODEGEN--\":18311:18567   */\n    tag_225:\n        /* \"--CODEGEN--\":18373:18375   */\n      0x40\n        /* \"--CODEGEN--\":18367:18376   */\n      mload\n        /* \"--CODEGEN--\":18399:18416   */\n      dup2\n      dup2\n      add\n        /* \"--CODEGEN--\":18474:18492   */\n      0xffffffffffffffff\n        /* \"--CODEGEN--\":18459:18493   */\n      dup2\n      gt\n        /* \"--CODEGEN--\":18495:18517   */\n      dup3\n      dup3\n      lt\n        /* \"--CODEGEN--\":18456:18518   */\n      or\n        /* \"--CODEGEN--\":18453:18455   */\n      iszero\n      tag_302\n      jumpi\n        /* \"--CODEGEN--\":18531:18532   */\n      0x00\n      dup1\n        /* \"--CODEGEN--\":18521:18533   */\n      revert\n        /* \"--CODEGEN--\":18453:18455   */\n    tag_302:\n        /* \"--CODEGEN--\":18373:18375   */\n      0x40\n        /* \"--CODEGEN--\":18540:18562   */\n      mstore\n        /* \"--CODEGEN--\":18351:18567   */\n      swap2\n      swap1\n      pop\n      jump\n        /* \"--CODEGEN--\":18574:18896   */\n    tag_224:\n      0x00\n        /* \"--CODEGEN--\":18718:18736   */\n      0xffffffffffffffff\n        /* \"--CODEGEN--\":18710:18716   */\n      dup3\n        /* \"--CODEGEN--\":18707:18737   */\n      gt\n        /* \"--CODEGEN--\":18704:18706   */\n      iszero\n      tag_304\n      jumpi\n      dup1\n      dup2\n        /* \"--CODEGEN--\":18740:18752   */\n      revert\n        /* \"--CODEGEN--\":18704:18706   */\n    tag_304:\n      pop\n        /* \"--CODEGEN--\":20874:20881   */\n      0x1f\n        /* \"--CODEGEN--\":18794:18811   */\n      add\n      not(0x1f)\n        /* \"--CODEGEN--\":18790:18823   */\n      and\n        /* \"--CODEGEN--\":18881:18885   */\n      0x20\n        /* \"--CODEGEN--\":18871:18886   */\n      add\n      swap1\n        /* \"--CODEGEN--\":18641:18896   */\n      jump\n        /* \"--CODEGEN--\":20514:20782   */\n    tag_264:\n        /* \"--CODEGEN--\":20579:20580   */\n      0x00\n        /* \"--CODEGEN--\":20586:20687   */\n    tag_306:\n        /* \"--CODEGEN--\":20600:20606   */\n      dup4\n        /* \"--CODEGEN--\":20597:20598   */\n      dup2\n        /* \"--CODEGEN--\":20594:20607   */\n      lt\n        /* \"--CODEGEN--\":20586:20687   */\n      iszero\n      tag_308\n      jumpi\n        /* \"--CODEGEN--\":20667:20678   */\n      dup2\n      dup2\n      add\n        /* \"--CODEGEN--\":20661:20679   */\n      mload\n        /* \"--CODEGEN--\":20648:20659   */\n      dup4\n      dup3\n      add\n        /* \"--CODEGEN--\":20641:20680   */\n      mstore\n        /* \"--CODEGEN--\":20622:20624   */\n      0x20\n        /* \"--CODEGEN--\":20615:20625   */\n      add\n        /* \"--CODEGEN--\":20586:20687   */\n      jump(tag_306)\n    tag_308:\n        /* \"--CODEGEN--\":20702:20708   */\n      dup4\n        /* \"--CODEGEN--\":20699:20700   */\n      dup2\n        /* \"--CODEGEN--\":20696:20709   */\n      gt\n        /* \"--CODEGEN--\":20693:20695   */\n      iszero\n      tag_309\n      jumpi\n        /* \"--CODEGEN--\":20579:20580   */\n      0x00\n        /* \"--CODEGEN--\":20758:20764   */\n      dup5\n        /* \"--CODEGEN--\":20753:20756   */\n      dup5\n        /* \"--CODEGEN--\":20749:20765   */\n      add\n        /* \"--CODEGEN--\":20742:20769   */\n      mstore\n        /* \"--CODEGEN--\":20693:20695   */\n    tag_309:\n      pop\n        /* \"--CODEGEN--\":20563:20782   */\n      pop\n      pop\n      pop\n      jump\n\n    auxdata: 0xa26469706673582212202c21388850bc308b39e1c7775af72858994f405083a1df6c95ab529d6780815764736f6c63430006060033\n}\n","bytecode":{"linkReferences":{},"object":"6080604052600280546001600160a01b0319167311d1b708790b3ba3c25fdb9fe7c0d5196a1d168917905534801561003657600080fd5b50600180546001600160a01b031916331790556113e8806100586000396000f3fe608060405234801561001057600080fd5b506004361061010b5760003560e01c80635624e7c9116100a257806382c105601161007157806382c105601461023b5780638a7f7f461461025b578063b4490cc01461026e578063be87a97514610281578063c89778b4146102945761010b565b80635624e7c9146101d457806361f0eff9146101e7578063719c0d04146101fa5780637858b2641461021b5761010b565b80632e2cde3a116100de5780632e2cde3a146101765780633afe4f7c14610199578063481c6a75146101ac5780634bc395bb146101c15761010b565b806301307b37146101105780630a0f01d31461012e5780631bd95155146101435780632dd8e5f014610156575b600080fd5b61011861029c565b604051610125919061132e565b60405180910390f35b61014161013c366004610e55565b6102a3565b005b610118610151366004610f27565b610396565b610169610164366004610da6565b6103f6565b6040516101259190611294565b610189610184366004610dc8565b6104ec565b60405161012594939291906112dc565b6101696101a7366004610dc8565b6106c8565b6101b4610779565b604051610125919061106c565b6101b46101cf366004610efd565b610788565b6101416101e2366004610dfc565b6107bd565b6101696101f5366004610dc8565b61085e565b61020d610208366004610fcf565b610945565b6040516101259291906112b2565b61022e610229366004610da6565b610a01565b6040516101259190611247565b61024e610249366004610dc8565b610a77565b604051610125919061129f565b610118610269366004610da6565b610b07565b61016961027c366004610dc8565b610b22565b61016961028f366004610da6565b610c14565b6101b4610c4c565b6000545b90565b6102ab610c5b565b50604080516080810182528381526001600160a01b0380861660208084018290528385018990526060840186905291891660008181526005845285812080546001810182559082528482200180546001600160a01b03191684179055908152600483528481209181529082529290922081518051929384936103309284920190610c8c565b506020828101516001830180546001600160a01b0319166001600160a01b039092169190911790556040830151805161036f9260028501920190610c8c565b506060820151805161038b916003840191602090910190610c8c565b505050505050505050565b60008181805b82518210156103ec5760008383815181106103b357fe5b016020015160f81c9050603081108015906103cf575060398111155b156103e0576030810382600a020191505b5060019091019061039c565b925050505b919050565b600254604051638cba76b160e01b815260009183916060916001600160a01b0380851692638cba76b19261042e921690600401611080565b60006040518083038186803b15801561044657600080fd5b505afa15801561045a573d6000803e3d6000fd5b505050506040513d6000823e601f3d908101601f191682016040526104829190810190610f62565b905060405160200161049390611049565b60405160208183030381529060405280519060200120816040516020016104ba919061102d565b6040516020818303038152906040528051906020012014156104e1576001925050506103f1565b6000925050506103f1565b600460209081526000928352604080842082529183529181902080548251601f60026000196101006001861615020190931692909204918201859004850281018501909352808352909283919083018282801561058a5780601f1061055f5761010080835404028352916020019161058a565b820191906000526020600020905b81548152906001019060200180831161056d57829003601f168201915b505050506001838101546002808601805460408051602061010097841615979097026000190190921693909304601f810186900486028201860190935282815295966001600160a01b0390931695929450919283018282801561062e5780601f106106035761010080835404028352916020019161062e565b820191906000526020600020905b81548152906001019060200180831161061157829003601f168201915b5050505060038301805460408051602060026001851615610100026000190190941693909304601f81018490048402820184019092528181529495949350908301828280156106be5780601f10610693576101008083540402835291602001916106be565b820191906000526020600020905b8154815290600101906020018083116106a157829003601f168201915b5050505050905084565b604051638cba76b160e01b815260009083908290610753906001600160a01b03841690638cba76b1906106ff908890600401611159565b60006040518083038186803b15801561071757600080fd5b505afa15801561072b573d6000803e3d6000fd5b505050506040513d6000823e601f3d908101601f191682016040526101519190810190610f62565b905080426103e802101561076c57600192505050610773565b6000925050505b92915050565b6001546001600160a01b031681565b600560205281600052604060002081815481106107a157fe5b6000918252602090912001546001600160a01b03169150829050565b6107c5610d0a565b50604080518082019091528181526001600160a01b0383166020808301919091526000805460018101825590805282518051849360029093027f290decd9548b62a8d60345a988386fc84ba6bc95484008f6362f93160ef3e563019261082f928492910190610c8c565b5060209190910151600190910180546001600160a01b0319166001600160a01b03909216919091179055505050565b604051638cba76b160e01b815260009083906060906001600160a01b03831690638cba76b1906108929087906004016111ae565b60006040518083038186803b1580156108aa57600080fd5b505afa1580156108be573d6000803e3d6000fd5b505050506040513d6000823e601f3d908101601f191682016040526108e69190810190610f62565b90506040516020016108f790611049565b604051602081830303815290604052805190602001208160405160200161091e919061102d565b60405160208183030381529060405280519060200120141561076c57600192505050610773565b6000818154811061095257fe5b60009182526020918290206002918202018054604080516001831615610100026000190190921693909304601f8101859004850282018501909352828152909350918391908301828280156109e85780601f106109bd576101008083540402835291602001916109e8565b820191906000526020600020905b8154815290600101906020018083116109cb57829003601f168201915b505050600190930154919250506001600160a01b031682565b6001600160a01b038116600090815260056020908152604091829020805483518184028101840190945280845260609392830182828015610a6b57602002820191906000526020600020905b81546001600160a01b03168152600190910190602001808311610a4d575b50505050509050919050565b604051638cba76b160e01b8152606090839082906001600160a01b03831690638cba76b190610aaa9087906004016111fc565b60006040518083038186803b158015610ac257600080fd5b505afa158015610ad6573d6000803e3d6000fd5b505050506040513d6000823e601f3d908101601f19168201604052610afe9190810190610f62565b95945050505050565b6001600160a01b031660009081526005602052604090205490565b604051636b31c5f160e01b815260009083906060906001600160a01b03831690636b31c5f190610b56908790600401611136565b60006040518083038186803b158015610b6e57600080fd5b505afa158015610b82573d6000803e3d6000fd5b505050506040513d6000823e601f3d908101601f19168201604052610baa9190810190610f62565b9050604051602001610bbb90611058565b6040516020818303038152906040528051906020012081604051602001610be2919061102d565b604051602081830303815290604052805190602001201415610c0957600092505050610773565b600192505050610773565b600254604051638cba76b160e01b815260009183916060916001600160a01b0380851692638cba76b19261042e9216906004016110dd565b6002546001600160a01b031681565b60405180608001604052806060815260200160006001600160a01b0316815260200160608152602001606081525090565b828054600181600116156101000203166002900490600052602060002090601f016020900481019282601f10610ccd57805160ff1916838001178555610cfa565b82800160010185558215610cfa579182015b82811115610cfa578251825591602001919060010190610cdf565b50610d06929150610d22565b5090565b60408051808201909152606081526000602082015290565b6102a091905b80821115610d065760008155600101610d28565b80356001600160a01b038116811461077357600080fd5b600082601f830112610d63578081fd5b8135610d76610d718261135e565b611337565b9150808252836020828501011115610d8d57600080fd5b8060208401602084013760009082016020015292915050565b600060208284031215610db7578081fd5b610dc18383610d3c565b9392505050565b60008060408385031215610dda578081fd5b610de48484610d3c565b9150610df38460208501610d3c565b90509250929050565b60008060408385031215610e0e578182fd5b82356001600160a01b0381168114610e24578283fd5b9150602083013567ffffffffffffffff811115610e3f578182fd5b610e4b85828601610d53565b9150509250929050565b600080600080600060a08688031215610e6c578081fd5b610e768787610d3c565b9450602086013567ffffffffffffffff80821115610e92578283fd5b610e9e89838a01610d53565b9550610ead8960408a01610d3c565b94506060880135915080821115610ec2578283fd5b610ece89838a01610d53565b93506080880135915080821115610ee3578283fd5b50610ef088828901610d53565b9150509295509295909350565b60008060408385031215610f0f578182fd5b610f198484610d3c565b946020939093013593505050565b600060208284031215610f38578081fd5b813567ffffffffffffffff811115610f4e578182fd5b610f5a84828501610d53565b949350505050565b600060208284031215610f73578081fd5b815167ffffffffffffffff811115610f89578182fd5b80830184601f820112610f9a578283fd5b80519150610faa610d718361135e565b828152856020848401011115610fbe578384fd5b610afe836020830160208501611382565b600060208284031215610fe0578081fd5b5035919050565b60008151808452610fff816020860160208601611382565b601f01601f19169290920160200192915050565b60078152666469706c6f6d6160c81b602082015260400190565b6000825161103f818460208701611382565b9190910192915050565b6259657360e81b815260030190565b6710d85b98d95b195960c21b815260080190565b6001600160a01b0391909116815260200190565b6001600160a01b03919091168152606060208201819052601190820152707363686f6f6c436572746966696361746560781b608082015260a060408201819052600890820152671a5cd4d8da1bdbdb60c21b60c082015260e00190565b6001600160a01b03919091168152606060208201819052600b908201526a636572746966696361746560a81b608082015260a060408201819052600a908201526969734d696e697374727960b01b60c082015260e00190565b6001600160a01b0382168152604060208201819052600090610dc1908301611013565b6001600160a01b038216815260606020820181905260009061117c908301611013565b82810360409384015260128152714365727469666963617465456e644461746560701b60208201529190910192915050565b6001600160a01b03821681526060602082018190526000906111d1908301611013565b828103604093840152600b81526a1a5cd1dc98591d585d195960aa1b60208201529190910192915050565b6001600160a01b038216815260606020820181905260009061121f908301611013565b8281036040938401526008815267092a08ca6d0c2e6d60c31b60208201529190910192915050565b6020808252825182820181905260009190848201906040850190845b818110156112885783516001600160a01b031683529284019291840191600101611263565b50909695505050505050565b901515815260200190565b600060208252610dc16020830184610fe7565b6000604082526112c56040830185610fe7565b905060018060a01b03831660208301529392505050565b6000608082526112ef6080830187610fe7565b6001600160a01b038616602084015282810360408401526113108186610fe7565b83810360608501526113228186610fe7565b98975050505050505050565b90815260200190565b60405181810167ffffffffffffffff8111828210171561135657600080fd5b604052919050565b600067ffffffffffffffff821115611374578081fd5b50601f01601f191660200190565b60005b8381101561139d578181015183820152602001611385565b838111156113ac576000848401525b5050505056fea26469706673582212202c21388850bc308b39e1c7775af72858994f405083a1df6c95ab529d6780815764736f6c63430006060033","opcodes":"PUSH1 0x80 PUSH1 0x40 MSTORE PUSH1 0x2 DUP1 SLOAD PUSH1 0x1 PUSH1 0x1 PUSH1 0xA0 SHL SUB NOT AND PUSH20 0x11D1B708790B3BA3C25FDB9FE7C0D5196A1D1689 OR SWAP1 SSTORE CALLVALUE DUP1 ISZERO PUSH2 0x36 JUMPI PUSH1 0x0 DUP1 REVERT JUMPDEST POP PUSH1 0x1 DUP1 SLOAD PUSH1 0x1 PUSH1 0x1 PUSH1 0xA0 SHL SUB NOT AND CALLER OR SWAP1 SSTORE PUSH2 0x13E8 DUP1 PUSH2 0x58 PUSH1 0x0 CODECOPY PUSH1 0x0 RETURN INVALID PUSH1 0x80 PUSH1 0x40 MSTORE CALLVALUE DUP1 ISZERO PUSH2 0x10 JUMPI PUSH1 0x0 DUP1 REVERT JUMPDEST POP PUSH1 0x4 CALLDATASIZE LT PUSH2 0x10B JUMPI PUSH1 0x0 CALLDATALOAD PUSH1 0xE0 SHR DUP1 PUSH4 0x5624E7C9 GT PUSH2 0xA2 JUMPI DUP1 PUSH4 0x82C10560 GT PUSH2 0x71 JUMPI DUP1 PUSH4 0x82C10560 EQ PUSH2 0x23B JUMPI DUP1 PUSH4 0x8A7F7F46 EQ PUSH2 0x25B JUMPI DUP1 PUSH4 0xB4490CC0 EQ PUSH2 0x26E JUMPI DUP1 PUSH4 0xBE87A975 EQ PUSH2 0x281 JUMPI DUP1 PUSH4 0xC89778B4 EQ PUSH2 0x294 JUMPI PUSH2 0x10B JUMP JUMPDEST DUP1 PUSH4 0x5624E7C9 EQ PUSH2 0x1D4 JUMPI DUP1 PUSH4 0x61F0EFF9 EQ PUSH2 0x1E7 JUMPI DUP1 PUSH4 0x719C0D04 EQ PUSH2 0x1FA JUMPI DUP1 PUSH4 0x7858B264 EQ PUSH2 0x21B JUMPI PUSH2 0x10B JUMP JUMPDEST DUP1 PUSH4 0x2E2CDE3A GT PUSH2 0xDE JUMPI DUP1 PUSH4 0x2E2CDE3A EQ PUSH2 0x176 JUMPI DUP1 PUSH4 0x3AFE4F7C EQ PUSH2 0x199 JUMPI DUP1 PUSH4 0x481C6A75 EQ PUSH2 0x1AC JUMPI DUP1 PUSH4 0x4BC395BB EQ PUSH2 0x1C1 JUMPI PUSH2 0x10B JUMP JUMPDEST DUP1 PUSH4 0x1307B37 EQ PUSH2 0x110 JUMPI DUP1 PUSH4 0xA0F01D3 EQ PUSH2 0x12E JUMPI DUP1 PUSH4 0x1BD95155 EQ PUSH2 0x143 JUMPI DUP1 PUSH4 0x2DD8E5F0 EQ PUSH2 0x156 JUMPI JUMPDEST PUSH1 0x0 DUP1 REVERT JUMPDEST PUSH2 0x118 PUSH2 0x29C JUMP JUMPDEST PUSH1 0x40 MLOAD PUSH2 0x125 SWAP2 SWAP1 PUSH2 0x132E JUMP JUMPDEST PUSH1 0x40 MLOAD DUP1 SWAP2 SUB SWAP1 RETURN JUMPDEST PUSH2 0x141 PUSH2 0x13C CALLDATASIZE PUSH1 0x4 PUSH2 0xE55 JUMP JUMPDEST PUSH2 0x2A3 JUMP JUMPDEST STOP JUMPDEST PUSH2 0x118 PUSH2 0x151 CALLDATASIZE PUSH1 0x4 PUSH2 0xF27 JUMP JUMPDEST PUSH2 0x396 JUMP JUMPDEST PUSH2 0x169 PUSH2 0x164 CALLDATASIZE PUSH1 0x4 PUSH2 0xDA6 JUMP JUMPDEST PUSH2 0x3F6 JUMP JUMPDEST PUSH1 0x40 MLOAD PUSH2 0x125 SWAP2 SWAP1 PUSH2 0x1294 JUMP JUMPDEST PUSH2 0x189 PUSH2 0x184 CALLDATASIZE PUSH1 0x4 PUSH2 0xDC8 JUMP JUMPDEST PUSH2 0x4EC JUMP JUMPDEST PUSH1 0x40 MLOAD PUSH2 0x125 SWAP5 SWAP4 SWAP3 SWAP2 SWAP1 PUSH2 0x12DC JUMP JUMPDEST PUSH2 0x169 PUSH2 0x1A7 CALLDATASIZE PUSH1 0x4 PUSH2 0xDC8 JUMP JUMPDEST PUSH2 0x6C8 JUMP JUMPDEST PUSH2 0x1B4 PUSH2 0x779 JUMP JUMPDEST PUSH1 0x40 MLOAD PUSH2 0x125 SWAP2 SWAP1 PUSH2 0x106C JUMP JUMPDEST PUSH2 0x1B4 PUSH2 0x1CF CALLDATASIZE PUSH1 0x4 PUSH2 0xEFD JUMP JUMPDEST PUSH2 0x788 JUMP JUMPDEST PUSH2 0x141 PUSH2 0x1E2 CALLDATASIZE PUSH1 0x4 PUSH2 0xDFC JUMP JUMPDEST PUSH2 0x7BD JUMP JUMPDEST PUSH2 0x169 PUSH2 0x1F5 CALLDATASIZE PUSH1 0x4 PUSH2 0xDC8 JUMP JUMPDEST PUSH2 0x85E JUMP JUMPDEST PUSH2 0x20D PUSH2 0x208 CALLDATASIZE PUSH1 0x4 PUSH2 0xFCF JUMP JUMPDEST PUSH2 0x945 JUMP JUMPDEST PUSH1 0x40 MLOAD PUSH2 0x125 SWAP3 SWAP2 SWAP1 PUSH2 0x12B2 JUMP JUMPDEST PUSH2 0x22E PUSH2 0x229 CALLDATASIZE PUSH1 0x4 PUSH2 0xDA6 JUMP JUMPDEST PUSH2 0xA01 JUMP JUMPDEST PUSH1 0x40 MLOAD PUSH2 0x125 SWAP2 SWAP1 PUSH2 0x1247 JUMP JUMPDEST PUSH2 0x24E PUSH2 0x249 CALLDATASIZE PUSH1 0x4 PUSH2 0xDC8 JUMP JUMPDEST PUSH2 0xA77 JUMP JUMPDEST PUSH1 0x40 MLOAD PUSH2 0x125 SWAP2 SWAP1 PUSH2 0x129F JUMP JUMPDEST PUSH2 0x118 PUSH2 0x269 CALLDATASIZE PUSH1 0x4 PUSH2 0xDA6 JUMP JUMPDEST PUSH2 0xB07 JUMP JUMPDEST PUSH2 0x169 PUSH2 0x27C CALLDATASIZE PUSH1 0x4 PUSH2 0xDC8 JUMP JUMPDEST PUSH2 0xB22 JUMP JUMPDEST PUSH2 0x169 PUSH2 0x28F CALLDATASIZE PUSH1 0x4 PUSH2 0xDA6 JUMP JUMPDEST PUSH2 0xC14 JUMP JUMPDEST PUSH2 0x1B4 PUSH2 0xC4C JUMP JUMPDEST PUSH1 0x0 SLOAD JUMPDEST SWAP1 JUMP JUMPDEST PUSH2 0x2AB PUSH2 0xC5B JUMP JUMPDEST POP PUSH1 0x40 DUP1 MLOAD PUSH1 0x80 DUP2 ADD DUP3 MSTORE DUP4 DUP2 MSTORE PUSH1 0x1 PUSH1 0x1 PUSH1 0xA0 SHL SUB DUP1 DUP7 AND PUSH1 0x20 DUP1 DUP5 ADD DUP3 SWAP1 MSTORE DUP4 DUP6 ADD DUP10 SWAP1 MSTORE PUSH1 0x60 DUP5 ADD DUP7 SWAP1 MSTORE SWAP2 DUP10 AND PUSH1 0x0 DUP2 DUP2 MSTORE PUSH1 0x5 DUP5 MSTORE DUP6 DUP2 KECCAK256 DUP1 SLOAD PUSH1 0x1 DUP2 ADD DUP3 SSTORE SWAP1 DUP3 MSTORE DUP5 DUP3 KECCAK256 ADD DUP1 SLOAD PUSH1 0x1 PUSH1 0x1 PUSH1 0xA0 SHL SUB NOT AND DUP5 OR SWAP1 SSTORE SWAP1 DUP2 MSTORE PUSH1 0x4 DUP4 MSTORE DUP5 DUP2 KECCAK256 SWAP2 DUP2 MSTORE SWAP1 DUP3 MSTORE SWAP3 SWAP1 SWAP3 KECCAK256 DUP2 MLOAD DUP1 MLOAD SWAP3 SWAP4 DUP5 SWAP4 PUSH2 0x330 SWAP3 DUP5 SWAP3 ADD SWAP1 PUSH2 0xC8C JUMP JUMPDEST POP PUSH1 0x20 DUP3 DUP2 ADD MLOAD PUSH1 0x1 DUP4 ADD DUP1 SLOAD PUSH1 0x1 PUSH1 0x1 PUSH1 0xA0 SHL SUB NOT AND PUSH1 0x1 PUSH1 0x1 PUSH1 0xA0 SHL SUB SWAP1 SWAP3 AND SWAP2 SWAP1 SWAP2 OR SWAP1 SSTORE PUSH1 0x40 DUP4 ADD MLOAD DUP1 MLOAD PUSH2 0x36F SWAP3 PUSH1 0x2 DUP6 ADD SWAP3 ADD SWAP1 PUSH2 0xC8C JUMP JUMPDEST POP PUSH1 0x60 DUP3 ADD MLOAD DUP1 MLOAD PUSH2 0x38B SWAP2 PUSH1 0x3 DUP5 ADD SWAP2 PUSH1 0x20 SWAP1 SWAP2 ADD SWAP1 PUSH2 0xC8C JUMP JUMPDEST POP POP POP POP POP POP POP POP POP JUMP JUMPDEST PUSH1 0x0 DUP2 DUP2 DUP1 JUMPDEST DUP3 MLOAD DUP3 LT ISZERO PUSH2 0x3EC JUMPI PUSH1 0x0 DUP4 DUP4 DUP2 MLOAD DUP2 LT PUSH2 0x3B3 JUMPI INVALID JUMPDEST ADD PUSH1 0x20 ADD MLOAD PUSH1 0xF8 SHR SWAP1 POP PUSH1 0x30 DUP2 LT DUP1 ISZERO SWAP1 PUSH2 0x3CF JUMPI POP PUSH1 0x39 DUP2 GT ISZERO JUMPDEST ISZERO PUSH2 0x3E0 JUMPI PUSH1 0x30 DUP2 SUB DUP3 PUSH1 0xA MUL ADD SWAP2 POP JUMPDEST POP PUSH1 0x1 SWAP1 SWAP2 ADD SWAP1 PUSH2 0x39C JUMP JUMPDEST SWAP3 POP POP POP JUMPDEST SWAP2 SWAP1 POP JUMP JUMPDEST PUSH1 0x2 SLOAD PUSH1 0x40 MLOAD PUSH4 0x8CBA76B1 PUSH1 0xE0 SHL DUP2 MSTORE PUSH1 0x0 SWAP2 DUP4 SWAP2 PUSH1 0x60 SWAP2 PUSH1 0x1 PUSH1 0x1 PUSH1 0xA0 SHL SUB DUP1 DUP6 AND SWAP3 PUSH4 0x8CBA76B1 SWAP3 PUSH2 0x42E SWAP3 AND SWAP1 PUSH1 0x4 ADD PUSH2 0x1080 JUMP JUMPDEST PUSH1 0x0 PUSH1 0x40 MLOAD DUP1 DUP4 SUB DUP2 DUP7 DUP1 EXTCODESIZE ISZERO DUP1 ISZERO PUSH2 0x446 JUMPI PUSH1 0x0 DUP1 REVERT JUMPDEST POP GAS STATICCALL ISZERO DUP1 ISZERO PUSH2 0x45A JUMPI RETURNDATASIZE PUSH1 0x0 DUP1 RETURNDATACOPY RETURNDATASIZE PUSH1 0x0 REVERT JUMPDEST POP POP POP POP PUSH1 0x40 MLOAD RETURNDATASIZE PUSH1 0x0 DUP3 RETURNDATACOPY PUSH1 0x1F RETURNDATASIZE SWAP1 DUP2 ADD PUSH1 0x1F NOT AND DUP3 ADD PUSH1 0x40 MSTORE PUSH2 0x482 SWAP2 SWAP1 DUP2 ADD SWAP1 PUSH2 0xF62 JUMP JUMPDEST SWAP1 POP PUSH1 0x40 MLOAD PUSH1 0x20 ADD PUSH2 0x493 SWAP1 PUSH2 0x1049 JUMP JUMPDEST PUSH1 0x40 MLOAD PUSH1 0x20 DUP2 DUP4 SUB SUB DUP2 MSTORE SWAP1 PUSH1 0x40 MSTORE DUP1 MLOAD SWAP1 PUSH1 0x20 ADD KECCAK256 DUP2 PUSH1 0x40 MLOAD PUSH1 0x20 ADD PUSH2 0x4BA SWAP2 SWAP1 PUSH2 0x102D JUMP JUMPDEST PUSH1 0x40 MLOAD PUSH1 0x20 DUP2 DUP4 SUB SUB DUP2 MSTORE SWAP1 PUSH1 0x40 MSTORE DUP1 MLOAD SWAP1 PUSH1 0x20 ADD KECCAK256 EQ ISZERO PUSH2 0x4E1 JUMPI PUSH1 0x1 SWAP3 POP POP POP PUSH2 0x3F1 JUMP JUMPDEST PUSH1 0x0 SWAP3 POP POP POP PUSH2 0x3F1 JUMP JUMPDEST PUSH1 0x4 PUSH1 0x20 SWAP1 DUP2 MSTORE PUSH1 0x0 SWAP3 DUP4 MSTORE PUSH1 0x40 DUP1 DUP5 KECCAK256 DUP3 MSTORE SWAP2 DUP4 MSTORE SWAP2 DUP2 SWAP1 KECCAK256 DUP1 SLOAD DUP3 MLOAD PUSH1 0x1F PUSH1 0x2 PUSH1 0x0 NOT PUSH2 0x100 PUSH1 0x1 DUP7 AND ISZERO MUL ADD SWAP1 SWAP4 AND SWAP3 SWAP1 SWAP3 DIV SWAP2 DUP3 ADD DUP6 SWAP1 DIV DUP6 MUL DUP2 ADD DUP6 ADD SWAP1 SWAP4 MSTORE DUP1 DUP4 MSTORE SWAP1 SWAP3 DUP4 SWAP2 SWAP1 DUP4 ADD DUP3 DUP3 DUP1 ISZERO PUSH2 0x58A JUMPI DUP1 PUSH1 0x1F LT PUSH2 0x55F JUMPI PUSH2 0x100 DUP1 DUP4 SLOAD DIV MUL DUP4 MSTORE SWAP2 PUSH1 0x20 ADD SWAP2 PUSH2 0x58A JUMP JUMPDEST DUP3 ADD SWAP2 SWAP1 PUSH1 0x0 MSTORE PUSH1 0x20 PUSH1 0x0 KECCAK256 SWAP1 JUMPDEST DUP2 SLOAD DUP2 MSTORE SWAP1 PUSH1 0x1 ADD SWAP1 PUSH1 0x20 ADD DUP1 DUP4 GT PUSH2 0x56D JUMPI DUP3 SWAP1 SUB PUSH1 0x1F AND DUP3 ADD SWAP2 JUMPDEST POP POP POP POP PUSH1 0x1 DUP4 DUP2 ADD SLOAD PUSH1 0x2 DUP1 DUP7 ADD DUP1 SLOAD PUSH1 0x40 DUP1 MLOAD PUSH1 0x20 PUSH2 0x100 SWAP8 DUP5 AND ISZERO SWAP8 SWAP1 SWAP8 MUL PUSH1 0x0 NOT ADD SWAP1 SWAP3 AND SWAP4 SWAP1 SWAP4 DIV PUSH1 0x1F DUP2 ADD DUP7 SWAP1 DIV DUP7 MUL DUP3 ADD DUP7 ADD SWAP1 SWAP4 MSTORE DUP3 DUP2 MSTORE SWAP6 SWAP7 PUSH1 0x1 PUSH1 0x1 PUSH1 0xA0 SHL SUB SWAP1 SWAP4 AND SWAP6 SWAP3 SWAP5 POP SWAP2 SWAP3 DUP4 ADD DUP3 DUP3 DUP1 ISZERO PUSH2 0x62E JUMPI DUP1 PUSH1 0x1F LT PUSH2 0x603 JUMPI PUSH2 0x100 DUP1 DUP4 SLOAD DIV MUL DUP4 MSTORE SWAP2 PUSH1 0x20 ADD SWAP2 PUSH2 0x62E JUMP JUMPDEST DUP3 ADD SWAP2 SWAP1 PUSH1 0x0 MSTORE PUSH1 0x20 PUSH1 0x0 KECCAK256 SWAP1 JUMPDEST DUP2 SLOAD DUP2 MSTORE SWAP1 PUSH1 0x1 ADD SWAP1 PUSH1 0x20 ADD DUP1 DUP4 GT PUSH2 0x611 JUMPI DUP3 SWAP1 SUB PUSH1 0x1F AND DUP3 ADD SWAP2 JUMPDEST POP POP POP POP PUSH1 0x3 DUP4 ADD DUP1 SLOAD PUSH1 0x40 DUP1 MLOAD PUSH1 0x20 PUSH1 0x2 PUSH1 0x1 DUP6 AND ISZERO PUSH2 0x100 MUL PUSH1 0x0 NOT ADD SWAP1 SWAP5 AND SWAP4 SWAP1 SWAP4 DIV PUSH1 0x1F DUP2 ADD DUP5 SWAP1 DIV DUP5 MUL DUP3 ADD DUP5 ADD SWAP1 SWAP3 MSTORE DUP2 DUP2 MSTORE SWAP5 SWAP6 SWAP5 SWAP4 POP SWAP1 DUP4 ADD DUP3 DUP3 DUP1 ISZERO PUSH2 0x6BE JUMPI DUP1 PUSH1 0x1F LT PUSH2 0x693 JUMPI PUSH2 0x100 DUP1 DUP4 SLOAD DIV MUL DUP4 MSTORE SWAP2 PUSH1 0x20 ADD SWAP2 PUSH2 0x6BE JUMP JUMPDEST DUP3 ADD SWAP2 SWAP1 PUSH1 0x0 MSTORE PUSH1 0x20 PUSH1 0x0 KECCAK256 SWAP1 JUMPDEST DUP2 SLOAD DUP2 MSTORE SWAP1 PUSH1 0x1 ADD SWAP1 PUSH1 0x20 ADD DUP1 DUP4 GT PUSH2 0x6A1 JUMPI DUP3 SWAP1 SUB PUSH1 0x1F AND DUP3 ADD SWAP2 JUMPDEST POP POP POP POP POP SWAP1 POP DUP5 JUMP JUMPDEST PUSH1 0x40 MLOAD PUSH4 0x8CBA76B1 PUSH1 0xE0 SHL DUP2 MSTORE PUSH1 0x0 SWAP1 DUP4 SWAP1 DUP3 SWAP1 PUSH2 0x753 SWAP1 PUSH1 0x1 PUSH1 0x1 PUSH1 0xA0 SHL SUB DUP5 AND SWAP1 PUSH4 0x8CBA76B1 SWAP1 PUSH2 0x6FF SWAP1 DUP9 SWAP1 PUSH1 0x4 ADD PUSH2 0x1159 JUMP JUMPDEST PUSH1 0x0 PUSH1 0x40 MLOAD DUP1 DUP4 SUB DUP2 DUP7 DUP1 EXTCODESIZE ISZERO DUP1 ISZERO PUSH2 0x717 JUMPI PUSH1 0x0 DUP1 REVERT JUMPDEST POP GAS STATICCALL ISZERO DUP1 ISZERO PUSH2 0x72B JUMPI RETURNDATASIZE PUSH1 0x0 DUP1 RETURNDATACOPY RETURNDATASIZE PUSH1 0x0 REVERT JUMPDEST POP POP POP POP PUSH1 0x40 MLOAD RETURNDATASIZE PUSH1 0x0 DUP3 RETURNDATACOPY PUSH1 0x1F RETURNDATASIZE SWAP1 DUP2 ADD PUSH1 0x1F NOT AND DUP3 ADD PUSH1 0x40 MSTORE PUSH2 0x151 SWAP2 SWAP1 DUP2 ADD SWAP1 PUSH2 0xF62 JUMP JUMPDEST SWAP1 POP DUP1 TIMESTAMP PUSH2 0x3E8 MUL LT ISZERO PUSH2 0x76C JUMPI PUSH1 0x1 SWAP3 POP POP POP PUSH2 0x773 JUMP JUMPDEST PUSH1 0x0 SWAP3 POP POP POP JUMPDEST SWAP3 SWAP2 POP POP JUMP JUMPDEST PUSH1 0x1 SLOAD PUSH1 0x1 PUSH1 0x1 PUSH1 0xA0 SHL SUB AND DUP2 JUMP JUMPDEST PUSH1 0x5 PUSH1 0x20 MSTORE DUP2 PUSH1 0x0 MSTORE PUSH1 0x40 PUSH1 0x0 KECCAK256 DUP2 DUP2 SLOAD DUP2 LT PUSH2 0x7A1 JUMPI INVALID JUMPDEST PUSH1 0x0 SWAP2 DUP3 MSTORE PUSH1 0x20 SWAP1 SWAP2 KECCAK256 ADD SLOAD PUSH1 0x1 PUSH1 0x1 PUSH1 0xA0 SHL SUB AND SWAP2 POP DUP3 SWAP1 POP JUMP JUMPDEST PUSH2 0x7C5 PUSH2 0xD0A JUMP JUMPDEST POP PUSH1 0x40 DUP1 MLOAD DUP1 DUP3 ADD SWAP1 SWAP2 MSTORE DUP2 DUP2 MSTORE PUSH1 0x1 PUSH1 0x1 PUSH1 0xA0 SHL SUB DUP4 AND PUSH1 0x20 DUP1 DUP4 ADD SWAP2 SWAP1 SWAP2 MSTORE PUSH1 0x0 DUP1 SLOAD PUSH1 0x1 DUP2 ADD DUP3 SSTORE SWAP1 DUP1 MSTORE DUP3 MLOAD DUP1 MLOAD DUP5 SWAP4 PUSH1 0x2 SWAP1 SWAP4 MUL PUSH32 0x290DECD9548B62A8D60345A988386FC84BA6BC95484008F6362F93160EF3E563 ADD SWAP3 PUSH2 0x82F SWAP3 DUP5 SWAP3 SWAP2 ADD SWAP1 PUSH2 0xC8C JUMP JUMPDEST POP PUSH1 0x20 SWAP2 SWAP1 SWAP2 ADD MLOAD PUSH1 0x1 SWAP1 SWAP2 ADD DUP1 SLOAD PUSH1 0x1 PUSH1 0x1 PUSH1 0xA0 SHL SUB NOT AND PUSH1 0x1 PUSH1 0x1 PUSH1 0xA0 SHL SUB SWAP1 SWAP3 AND SWAP2 SWAP1 SWAP2 OR SWAP1 SSTORE POP POP POP JUMP JUMPDEST PUSH1 0x40 MLOAD PUSH4 0x8CBA76B1 PUSH1 0xE0 SHL DUP2 MSTORE PUSH1 0x0 SWAP1 DUP4 SWAP1 PUSH1 0x60 SWAP1 PUSH1 0x1 PUSH1 0x1 PUSH1 0xA0 SHL SUB DUP4 AND SWAP1 PUSH4 0x8CBA76B1 SWAP1 PUSH2 0x892 SWAP1 DUP8 SWAP1 PUSH1 0x4 ADD PUSH2 0x11AE JUMP JUMPDEST PUSH1 0x0 PUSH1 0x40 MLOAD DUP1 DUP4 SUB DUP2 DUP7 DUP1 EXTCODESIZE ISZERO DUP1 ISZERO PUSH2 0x8AA JUMPI PUSH1 0x0 DUP1 REVERT JUMPDEST POP GAS STATICCALL ISZERO DUP1 ISZERO PUSH2 0x8BE JUMPI RETURNDATASIZE PUSH1 0x0 DUP1 RETURNDATACOPY RETURNDATASIZE PUSH1 0x0 REVERT JUMPDEST POP POP POP POP PUSH1 0x40 MLOAD RETURNDATASIZE PUSH1 0x0 DUP3 RETURNDATACOPY PUSH1 0x1F RETURNDATASIZE SWAP1 DUP2 ADD PUSH1 0x1F NOT AND DUP3 ADD PUSH1 0x40 MSTORE PUSH2 0x8E6 SWAP2 SWAP1 DUP2 ADD SWAP1 PUSH2 0xF62 JUMP JUMPDEST SWAP1 POP PUSH1 0x40 MLOAD PUSH1 0x20 ADD PUSH2 0x8F7 SWAP1 PUSH2 0x1049 JUMP JUMPDEST PUSH1 0x40 MLOAD PUSH1 0x20 DUP2 DUP4 SUB SUB DUP2 MSTORE SWAP1 PUSH1 0x40 MSTORE DUP1 MLOAD SWAP1 PUSH1 0x20 ADD KECCAK256 DUP2 PUSH1 0x40 MLOAD PUSH1 0x20 ADD PUSH2 0x91E SWAP2 SWAP1 PUSH2 0x102D JUMP JUMPDEST PUSH1 0x40 MLOAD PUSH1 0x20 DUP2 DUP4 SUB SUB DUP2 MSTORE SWAP1 PUSH1 0x40 MSTORE DUP1 MLOAD SWAP1 PUSH1 0x20 ADD KECCAK256 EQ ISZERO PUSH2 0x76C JUMPI PUSH1 0x1 SWAP3 POP POP POP PUSH2 0x773 JUMP JUMPDEST PUSH1 0x0 DUP2 DUP2 SLOAD DUP2 LT PUSH2 0x952 JUMPI INVALID JUMPDEST PUSH1 0x0 SWAP2 DUP3 MSTORE PUSH1 0x20 SWAP2 DUP3 SWAP1 KECCAK256 PUSH1 0x2 SWAP2 DUP3 MUL ADD DUP1 SLOAD PUSH1 0x40 DUP1 MLOAD PUSH1 0x1 DUP4 AND ISZERO PUSH2 0x100 MUL PUSH1 0x0 NOT ADD SWAP1 SWAP3 AND SWAP4 SWAP1 SWAP4 DIV PUSH1 0x1F DUP2 ADD DUP6 SWAP1 DIV DUP6 MUL DUP3 ADD DUP6 ADD SWAP1 SWAP4 MSTORE DUP3 DUP2 MSTORE SWAP1 SWAP4 POP SWAP2 DUP4 SWAP2 SWAP1 DUP4 ADD DUP3 DUP3 DUP1 ISZERO PUSH2 0x9E8 JUMPI DUP1 PUSH1 0x1F LT PUSH2 0x9BD JUMPI PUSH2 0x100 DUP1 DUP4 SLOAD DIV MUL DUP4 MSTORE SWAP2 PUSH1 0x20 ADD SWAP2 PUSH2 0x9E8 JUMP JUMPDEST DUP3 ADD SWAP2 SWAP1 PUSH1 0x0 MSTORE PUSH1 0x20 PUSH1 0x0 KECCAK256 SWAP1 JUMPDEST DUP2 SLOAD DUP2 MSTORE SWAP1 PUSH1 0x1 ADD SWAP1 PUSH1 0x20 ADD DUP1 DUP4 GT PUSH2 0x9CB JUMPI DUP3 SWAP1 SUB PUSH1 0x1F AND DUP3 ADD SWAP2 JUMPDEST POP POP POP PUSH1 0x1 SWAP1 SWAP4 ADD SLOAD SWAP2 SWAP3 POP POP PUSH1 0x1 PUSH1 0x1 PUSH1 0xA0 SHL SUB AND DUP3 JUMP JUMPDEST PUSH1 0x1 PUSH1 0x1 PUSH1 0xA0 SHL SUB DUP2 AND PUSH1 0x0 SWAP1 DUP2 MSTORE PUSH1 0x5 PUSH1 0x20 SWAP1 DUP2 MSTORE PUSH1 0x40 SWAP2 DUP3 SWAP1 KECCAK256 DUP1 SLOAD DUP4 MLOAD DUP2 DUP5 MUL DUP2 ADD DUP5 ADD SWAP1 SWAP5 MSTORE DUP1 DUP5 MSTORE PUSH1 0x60 SWAP4 SWAP3 DUP4 ADD DUP3 DUP3 DUP1 ISZERO PUSH2 0xA6B JUMPI PUSH1 0x20 MUL DUP3 ADD SWAP2 SWAP1 PUSH1 0x0 MSTORE PUSH1 0x20 PUSH1 0x0 KECCAK256 SWAP1 JUMPDEST DUP2 SLOAD PUSH1 0x1 PUSH1 0x1 PUSH1 0xA0 SHL SUB AND DUP2 MSTORE PUSH1 0x1 SWAP1 SWAP2 ADD SWAP1 PUSH1 0x20 ADD DUP1 DUP4 GT PUSH2 0xA4D JUMPI JUMPDEST POP POP POP POP POP SWAP1 POP SWAP2 SWAP1 POP JUMP JUMPDEST PUSH1 0x40 MLOAD PUSH4 0x8CBA76B1 PUSH1 0xE0 SHL DUP2 MSTORE PUSH1 0x60 SWAP1 DUP4 SWAP1 DUP3 SWAP1 PUSH1 0x1 PUSH1 0x1 PUSH1 0xA0 SHL SUB DUP4 AND SWAP1 PUSH4 0x8CBA76B1 SWAP1 PUSH2 0xAAA SWAP1 DUP8 SWAP1 PUSH1 0x4 ADD PUSH2 0x11FC JUMP JUMPDEST PUSH1 0x0 PUSH1 0x40 MLOAD DUP1 DUP4 SUB DUP2 DUP7 DUP1 EXTCODESIZE ISZERO DUP1 ISZERO PUSH2 0xAC2 JUMPI PUSH1 0x0 DUP1 REVERT JUMPDEST POP GAS STATICCALL ISZERO DUP1 ISZERO PUSH2 0xAD6 JUMPI RETURNDATASIZE PUSH1 0x0 DUP1 RETURNDATACOPY RETURNDATASIZE PUSH1 0x0 REVERT JUMPDEST POP POP POP POP PUSH1 0x40 MLOAD RETURNDATASIZE PUSH1 0x0 DUP3 RETURNDATACOPY PUSH1 0x1F RETURNDATASIZE SWAP1 DUP2 ADD PUSH1 0x1F NOT AND DUP3 ADD PUSH1 0x40 MSTORE PUSH2 0xAFE SWAP2 SWAP1 DUP2 ADD SWAP1 PUSH2 0xF62 JUMP JUMPDEST SWAP6 SWAP5 POP POP POP POP POP JUMP JUMPDEST PUSH1 0x1 PUSH1 0x1 PUSH1 0xA0 SHL SUB AND PUSH1 0x0 SWAP1 DUP2 MSTORE PUSH1 0x5 PUSH1 0x20 MSTORE PUSH1 0x40 SWAP1 KECCAK256 SLOAD SWAP1 JUMP JUMPDEST PUSH1 0x40 MLOAD PUSH4 0x6B31C5F1 PUSH1 0xE0 SHL DUP2 MSTORE PUSH1 0x0 SWAP1 DUP4 SWAP1 PUSH1 0x60 SWAP1 PUSH1 0x1 PUSH1 0x1 PUSH1 0xA0 SHL SUB DUP4 AND SWAP1 PUSH4 0x6B31C5F1 SWAP1 PUSH2 0xB56 SWAP1 DUP8 SWAP1 PUSH1 0x4 ADD PUSH2 0x1136 JUMP JUMPDEST PUSH1 0x0 PUSH1 0x40 MLOAD DUP1 DUP4 SUB DUP2 DUP7 DUP1 EXTCODESIZE ISZERO DUP1 ISZERO PUSH2 0xB6E JUMPI PUSH1 0x0 DUP1 REVERT JUMPDEST POP GAS STATICCALL ISZERO DUP1 ISZERO PUSH2 0xB82 JUMPI RETURNDATASIZE PUSH1 0x0 DUP1 RETURNDATACOPY RETURNDATASIZE PUSH1 0x0 REVERT JUMPDEST POP POP POP POP PUSH1 0x40 MLOAD RETURNDATASIZE PUSH1 0x0 DUP3 RETURNDATACOPY PUSH1 0x1F RETURNDATASIZE SWAP1 DUP2 ADD PUSH1 0x1F NOT AND DUP3 ADD PUSH1 0x40 MSTORE PUSH2 0xBAA SWAP2 SWAP1 DUP2 ADD SWAP1 PUSH2 0xF62 JUMP JUMPDEST SWAP1 POP PUSH1 0x40 MLOAD PUSH1 0x20 ADD PUSH2 0xBBB SWAP1 PUSH2 0x1058 JUMP JUMPDEST PUSH1 0x40 MLOAD PUSH1 0x20 DUP2 DUP4 SUB SUB DUP2 MSTORE SWAP1 PUSH1 0x40 MSTORE DUP1 MLOAD SWAP1 PUSH1 0x20 ADD KECCAK256 DUP2 PUSH1 0x40 MLOAD PUSH1 0x20 ADD PUSH2 0xBE2 SWAP2 SWAP1 PUSH2 0x102D JUMP JUMPDEST PUSH1 0x40 MLOAD PUSH1 0x20 DUP2 DUP4 SUB SUB DUP2 MSTORE SWAP1 PUSH1 0x40 MSTORE DUP1 MLOAD SWAP1 PUSH1 0x20 ADD KECCAK256 EQ ISZERO PUSH2 0xC09 JUMPI PUSH1 0x0 SWAP3 POP POP POP PUSH2 0x773 JUMP JUMPDEST PUSH1 0x1 SWAP3 POP POP POP PUSH2 0x773 JUMP JUMPDEST PUSH1 0x2 SLOAD PUSH1 0x40 MLOAD PUSH4 0x8CBA76B1 PUSH1 0xE0 SHL DUP2 MSTORE PUSH1 0x0 SWAP2 DUP4 SWAP2 PUSH1 0x60 SWAP2 PUSH1 0x1 PUSH1 0x1 PUSH1 0xA0 SHL SUB DUP1 DUP6 AND SWAP3 PUSH4 0x8CBA76B1 SWAP3 PUSH2 0x42E SWAP3 AND SWAP1 PUSH1 0x4 ADD PUSH2 0x10DD JUMP JUMPDEST PUSH1 0x2 SLOAD PUSH1 0x1 PUSH1 0x1 PUSH1 0xA0 SHL SUB AND DUP2 JUMP JUMPDEST PUSH1 0x40 MLOAD DUP1 PUSH1 0x80 ADD PUSH1 0x40 MSTORE DUP1 PUSH1 0x60 DUP2 MSTORE PUSH1 0x20 ADD PUSH1 0x0 PUSH1 0x1 PUSH1 0x1 PUSH1 0xA0 SHL SUB AND DUP2 MSTORE PUSH1 0x20 ADD PUSH1 0x60 DUP2 MSTORE PUSH1 0x20 ADD PUSH1 0x60 DUP2 MSTORE POP SWAP1 JUMP JUMPDEST DUP3 DUP1 SLOAD PUSH1 0x1 DUP2 PUSH1 0x1 AND ISZERO PUSH2 0x100 MUL SUB AND PUSH1 0x2 SWAP1 DIV SWAP1 PUSH1 0x0 MSTORE PUSH1 0x20 PUSH1 0x0 KECCAK256 SWAP1 PUSH1 0x1F ADD PUSH1 0x20 SWAP1 DIV DUP2 ADD SWAP3 DUP3 PUSH1 0x1F LT PUSH2 0xCCD JUMPI DUP1 MLOAD PUSH1 0xFF NOT AND DUP4 DUP1 ADD OR DUP6 SSTORE PUSH2 0xCFA JUMP JUMPDEST DUP3 DUP1 ADD PUSH1 0x1 ADD DUP6 SSTORE DUP3 ISZERO PUSH2 0xCFA JUMPI SWAP2 DUP3 ADD JUMPDEST DUP3 DUP2 GT ISZERO PUSH2 0xCFA JUMPI DUP3 MLOAD DUP3 SSTORE SWAP2 PUSH1 0x20 ADD SWAP2 SWAP1 PUSH1 0x1 ADD SWAP1 PUSH2 0xCDF JUMP JUMPDEST POP PUSH2 0xD06 SWAP3 SWAP2 POP PUSH2 0xD22 JUMP JUMPDEST POP SWAP1 JUMP JUMPDEST PUSH1 0x40 DUP1 MLOAD DUP1 DUP3 ADD SWAP1 SWAP2 MSTORE PUSH1 0x60 DUP2 MSTORE PUSH1 0x0 PUSH1 0x20 DUP3 ADD MSTORE SWAP1 JUMP JUMPDEST PUSH2 0x2A0 SWAP2 SWAP1 JUMPDEST DUP1 DUP3 GT ISZERO PUSH2 0xD06 JUMPI PUSH1 0x0 DUP2 SSTORE PUSH1 0x1 ADD PUSH2 0xD28 JUMP JUMPDEST DUP1 CALLDATALOAD PUSH1 0x1 PUSH1 0x1 PUSH1 0xA0 SHL SUB DUP2 AND DUP2 EQ PUSH2 0x773 JUMPI PUSH1 0x0 DUP1 REVERT JUMPDEST PUSH1 0x0 DUP3 PUSH1 0x1F DUP4 ADD SLT PUSH2 0xD63 JUMPI DUP1 DUP2 REVERT JUMPDEST DUP2 CALLDATALOAD PUSH2 0xD76 PUSH2 0xD71 DUP3 PUSH2 0x135E JUMP JUMPDEST PUSH2 0x1337 JUMP JUMPDEST SWAP2 POP DUP1 DUP3 MSTORE DUP4 PUSH1 0x20 DUP3 DUP6 ADD ADD GT ISZERO PUSH2 0xD8D JUMPI PUSH1 0x0 DUP1 REVERT JUMPDEST DUP1 PUSH1 0x20 DUP5 ADD PUSH1 0x20 DUP5 ADD CALLDATACOPY PUSH1 0x0 SWAP1 DUP3 ADD PUSH1 0x20 ADD MSTORE SWAP3 SWAP2 POP POP JUMP JUMPDEST PUSH1 0x0 PUSH1 0x20 DUP3 DUP5 SUB SLT ISZERO PUSH2 0xDB7 JUMPI DUP1 DUP2 REVERT JUMPDEST PUSH2 0xDC1 DUP4 DUP4 PUSH2 0xD3C JUMP JUMPDEST SWAP4 SWAP3 POP POP POP JUMP JUMPDEST PUSH1 0x0 DUP1 PUSH1 0x40 DUP4 DUP6 SUB SLT ISZERO PUSH2 0xDDA JUMPI DUP1 DUP2 REVERT JUMPDEST PUSH2 0xDE4 DUP5 DUP5 PUSH2 0xD3C JUMP JUMPDEST SWAP2 POP PUSH2 0xDF3 DUP5 PUSH1 0x20 DUP6 ADD PUSH2 0xD3C JUMP JUMPDEST SWAP1 POP SWAP3 POP SWAP3 SWAP1 POP JUMP JUMPDEST PUSH1 0x0 DUP1 PUSH1 0x40 DUP4 DUP6 SUB SLT ISZERO PUSH2 0xE0E JUMPI DUP2 DUP3 REVERT JUMPDEST DUP3 CALLDATALOAD PUSH1 0x1 PUSH1 0x1 PUSH1 0xA0 SHL SUB DUP2 AND DUP2 EQ PUSH2 0xE24 JUMPI DUP3 DUP4 REVERT JUMPDEST SWAP2 POP PUSH1 0x20 DUP4 ADD CALLDATALOAD PUSH8 0xFFFFFFFFFFFFFFFF DUP2 GT ISZERO PUSH2 0xE3F JUMPI DUP2 DUP3 REVERT JUMPDEST PUSH2 0xE4B DUP6 DUP3 DUP7 ADD PUSH2 0xD53 JUMP JUMPDEST SWAP2 POP POP SWAP3 POP SWAP3 SWAP1 POP JUMP JUMPDEST PUSH1 0x0 DUP1 PUSH1 0x0 DUP1 PUSH1 0x0 PUSH1 0xA0 DUP7 DUP9 SUB SLT ISZERO PUSH2 0xE6C JUMPI DUP1 DUP2 REVERT JUMPDEST PUSH2 0xE76 DUP8 DUP8 PUSH2 0xD3C JUMP JUMPDEST SWAP5 POP PUSH1 0x20 DUP7 ADD CALLDATALOAD PUSH8 0xFFFFFFFFFFFFFFFF DUP1 DUP3 GT ISZERO PUSH2 0xE92 JUMPI DUP3 DUP4 REVERT JUMPDEST PUSH2 0xE9E DUP10 DUP4 DUP11 ADD PUSH2 0xD53 JUMP JUMPDEST SWAP6 POP PUSH2 0xEAD DUP10 PUSH1 0x40 DUP11 ADD PUSH2 0xD3C JUMP JUMPDEST SWAP5 POP PUSH1 0x60 DUP9 ADD CALLDATALOAD SWAP2 POP DUP1 DUP3 GT ISZERO PUSH2 0xEC2 JUMPI DUP3 DUP4 REVERT JUMPDEST PUSH2 0xECE DUP10 DUP4 DUP11 ADD PUSH2 0xD53 JUMP JUMPDEST SWAP4 POP PUSH1 0x80 DUP9 ADD CALLDATALOAD SWAP2 POP DUP1 DUP3 GT ISZERO PUSH2 0xEE3 JUMPI DUP3 DUP4 REVERT JUMPDEST POP PUSH2 0xEF0 DUP9 DUP3 DUP10 ADD PUSH2 0xD53 JUMP JUMPDEST SWAP2 POP POP SWAP3 SWAP6 POP SWAP3 SWAP6 SWAP1 SWAP4 POP JUMP JUMPDEST PUSH1 0x0 DUP1 PUSH1 0x40 DUP4 DUP6 SUB SLT ISZERO PUSH2 0xF0F JUMPI DUP2 DUP3 REVERT JUMPDEST PUSH2 0xF19 DUP5 DUP5 PUSH2 0xD3C JUMP JUMPDEST SWAP5 PUSH1 0x20 SWAP4 SWAP1 SWAP4 ADD CALLDATALOAD SWAP4 POP POP POP JUMP JUMPDEST PUSH1 0x0 PUSH1 0x20 DUP3 DUP5 SUB SLT ISZERO PUSH2 0xF38 JUMPI DUP1 DUP2 REVERT JUMPDEST DUP2 CALLDATALOAD PUSH8 0xFFFFFFFFFFFFFFFF DUP2 GT ISZERO PUSH2 0xF4E JUMPI DUP2 DUP3 REVERT JUMPDEST PUSH2 0xF5A DUP5 DUP3 DUP6 ADD PUSH2 0xD53 JUMP JUMPDEST SWAP5 SWAP4 POP POP POP POP JUMP JUMPDEST PUSH1 0x0 PUSH1 0x20 DUP3 DUP5 SUB SLT ISZERO PUSH2 0xF73 JUMPI DUP1 DUP2 REVERT JUMPDEST DUP2 MLOAD PUSH8 0xFFFFFFFFFFFFFFFF DUP2 GT ISZERO PUSH2 0xF89 JUMPI DUP2 DUP3 REVERT JUMPDEST DUP1 DUP4 ADD DUP5 PUSH1 0x1F DUP3 ADD SLT PUSH2 0xF9A JUMPI DUP3 DUP4 REVERT JUMPDEST DUP1 MLOAD SWAP2 POP PUSH2 0xFAA PUSH2 0xD71 DUP4 PUSH2 0x135E JUMP JUMPDEST DUP3 DUP2 MSTORE DUP6 PUSH1 0x20 DUP5 DUP5 ADD ADD GT ISZERO PUSH2 0xFBE JUMPI DUP4 DUP5 REVERT JUMPDEST PUSH2 0xAFE DUP4 PUSH1 0x20 DUP4 ADD PUSH1 0x20 DUP6 ADD PUSH2 0x1382 JUMP JUMPDEST PUSH1 0x0 PUSH1 0x20 DUP3 DUP5 SUB SLT ISZERO PUSH2 0xFE0 JUMPI DUP1 DUP2 REVERT JUMPDEST POP CALLDATALOAD SWAP2 SWAP1 POP JUMP JUMPDEST PUSH1 0x0 DUP2 MLOAD DUP1 DUP5 MSTORE PUSH2 0xFFF DUP2 PUSH1 0x20 DUP7 ADD PUSH1 0x20 DUP7 ADD PUSH2 0x1382 JUMP JUMPDEST PUSH1 0x1F ADD PUSH1 0x1F NOT AND SWAP3 SWAP1 SWAP3 ADD PUSH1 0x20 ADD SWAP3 SWAP2 POP POP JUMP JUMPDEST PUSH1 0x7 DUP2 MSTORE PUSH7 0x6469706C6F6D61 PUSH1 0xC8 SHL PUSH1 0x20 DUP3 ADD MSTORE PUSH1 0x40 ADD SWAP1 JUMP JUMPDEST PUSH1 0x0 DUP3 MLOAD PUSH2 0x103F DUP2 DUP5 PUSH1 0x20 DUP8 ADD PUSH2 0x1382 JUMP JUMPDEST SWAP2 SWAP1 SWAP2 ADD SWAP3 SWAP2 POP POP JUMP JUMPDEST PUSH3 0x596573 PUSH1 0xE8 SHL DUP2 MSTORE PUSH1 0x3 ADD SWAP1 JUMP JUMPDEST PUSH8 0x10D85B98D95B1959 PUSH1 0xC2 SHL DUP2 MSTORE PUSH1 0x8 ADD SWAP1 JUMP JUMPDEST PUSH1 0x1 PUSH1 0x1 PUSH1 0xA0 SHL SUB SWAP2 SWAP1 SWAP2 AND DUP2 MSTORE PUSH1 0x20 ADD SWAP1 JUMP JUMPDEST PUSH1 0x1 PUSH1 0x1 PUSH1 0xA0 SHL SUB SWAP2 SWAP1 SWAP2 AND DUP2 MSTORE PUSH1 0x60 PUSH1 0x20 DUP3 ADD DUP2 SWAP1 MSTORE PUSH1 0x11 SWAP1 DUP3 ADD MSTORE PUSH17 0x7363686F6F6C4365727469666963617465 PUSH1 0x78 SHL PUSH1 0x80 DUP3 ADD MSTORE PUSH1 0xA0 PUSH1 0x40 DUP3 ADD DUP2 SWAP1 MSTORE PUSH1 0x8 SWAP1 DUP3 ADD MSTORE PUSH8 0x1A5CD4D8DA1BDBDB PUSH1 0xC2 SHL PUSH1 0xC0 DUP3 ADD MSTORE PUSH1 0xE0 ADD SWAP1 JUMP JUMPDEST PUSH1 0x1 PUSH1 0x1 PUSH1 0xA0 SHL SUB SWAP2 SWAP1 SWAP2 AND DUP2 MSTORE PUSH1 0x60 PUSH1 0x20 DUP3 ADD DUP2 SWAP1 MSTORE PUSH1 0xB SWAP1 DUP3 ADD MSTORE PUSH11 0x6365727469666963617465 PUSH1 0xA8 SHL PUSH1 0x80 DUP3 ADD MSTORE PUSH1 0xA0 PUSH1 0x40 DUP3 ADD DUP2 SWAP1 MSTORE PUSH1 0xA SWAP1 DUP3 ADD MSTORE PUSH10 0x69734D696E6973747279 PUSH1 0xB0 SHL PUSH1 0xC0 DUP3 ADD MSTORE PUSH1 0xE0 ADD SWAP1 JUMP JUMPDEST PUSH1 0x1 PUSH1 0x1 PUSH1 0xA0 SHL SUB DUP3 AND DUP2 MSTORE PUSH1 0x40 PUSH1 0x20 DUP3 ADD DUP2 SWAP1 MSTORE PUSH1 0x0 SWAP1 PUSH2 0xDC1 SWAP1 DUP4 ADD PUSH2 0x1013 JUMP JUMPDEST PUSH1 0x1 PUSH1 0x1 PUSH1 0xA0 SHL SUB DUP3 AND DUP2 MSTORE PUSH1 0x60 PUSH1 0x20 DUP3 ADD DUP2 SWAP1 MSTORE PUSH1 0x0 SWAP1 PUSH2 0x117C SWAP1 DUP4 ADD PUSH2 0x1013 JUMP JUMPDEST DUP3 DUP2 SUB PUSH1 0x40 SWAP4 DUP5 ADD MSTORE PUSH1 0x12 DUP2 MSTORE PUSH18 0x4365727469666963617465456E6444617465 PUSH1 0x70 SHL PUSH1 0x20 DUP3 ADD MSTORE SWAP2 SWAP1 SWAP2 ADD SWAP3 SWAP2 POP POP JUMP JUMPDEST PUSH1 0x1 PUSH1 0x1 PUSH1 0xA0 SHL SUB DUP3 AND DUP2 MSTORE PUSH1 0x60 PUSH1 0x20 DUP3 ADD DUP2 SWAP1 MSTORE PUSH1 0x0 SWAP1 PUSH2 0x11D1 SWAP1 DUP4 ADD PUSH2 0x1013 JUMP JUMPDEST DUP3 DUP2 SUB PUSH1 0x40 SWAP4 DUP5 ADD MSTORE PUSH1 0xB DUP2 MSTORE PUSH11 0x1A5CD1DC98591D585D1959 PUSH1 0xAA SHL PUSH1 0x20 DUP3 ADD MSTORE SWAP2 SWAP1 SWAP2 ADD SWAP3 SWAP2 POP POP JUMP JUMPDEST PUSH1 0x1 PUSH1 0x1 PUSH1 0xA0 SHL SUB DUP3 AND DUP2 MSTORE PUSH1 0x60 PUSH1 0x20 DUP3 ADD DUP2 SWAP1 MSTORE PUSH1 0x0 SWAP1 PUSH2 0x121F SWAP1 DUP4 ADD PUSH2 0x1013 JUMP JUMPDEST DUP3 DUP2 SUB PUSH1 0x40 SWAP4 DUP5 ADD MSTORE PUSH1 0x8 DUP2 MSTORE PUSH8 0x92A08CA6D0C2E6D PUSH1 0xC3 SHL PUSH1 0x20 DUP3 ADD MSTORE SWAP2 SWAP1 SWAP2 ADD SWAP3 SWAP2 POP POP JUMP JUMPDEST PUSH1 0x20 DUP1 DUP3 MSTORE DUP3 MLOAD DUP3 DUP3 ADD DUP2 SWAP1 MSTORE PUSH1 0x0 SWAP2 SWAP1 DUP5 DUP3 ADD SWAP1 PUSH1 0x40 DUP6 ADD SWAP1 DUP5 JUMPDEST DUP2 DUP2 LT ISZERO PUSH2 0x1288 JUMPI DUP4 MLOAD PUSH1 0x1 PUSH1 0x1 PUSH1 0xA0 SHL SUB AND DUP4 MSTORE SWAP3 DUP5 ADD SWAP3 SWAP2 DUP5 ADD SWAP2 PUSH1 0x1 ADD PUSH2 0x1263 JUMP JUMPDEST POP SWAP1 SWAP7 SWAP6 POP POP POP POP POP POP JUMP JUMPDEST SWAP1 ISZERO ISZERO DUP2 MSTORE PUSH1 0x20 ADD SWAP1 JUMP JUMPDEST PUSH1 0x0 PUSH1 0x20 DUP3 MSTORE PUSH2 0xDC1 PUSH1 0x20 DUP4 ADD DUP5 PUSH2 0xFE7 JUMP JUMPDEST PUSH1 0x0 PUSH1 0x40 DUP3 MSTORE PUSH2 0x12C5 PUSH1 0x40 DUP4 ADD DUP6 PUSH2 0xFE7 JUMP JUMPDEST SWAP1 POP PUSH1 0x1 DUP1 PUSH1 0xA0 SHL SUB DUP4 AND PUSH1 0x20 DUP4 ADD MSTORE SWAP4 SWAP3 POP POP POP JUMP JUMPDEST PUSH1 0x0 PUSH1 0x80 DUP3 MSTORE PUSH2 0x12EF PUSH1 0x80 DUP4 ADD DUP8 PUSH2 0xFE7 JUMP JUMPDEST PUSH1 0x1 PUSH1 0x1 PUSH1 0xA0 SHL SUB DUP7 AND PUSH1 0x20 DUP5 ADD MSTORE DUP3 DUP2 SUB PUSH1 0x40 DUP5 ADD MSTORE PUSH2 0x1310 DUP2 DUP7 PUSH2 0xFE7 JUMP JUMPDEST DUP4 DUP2 SUB PUSH1 0x60 DUP6 ADD MSTORE PUSH2 0x1322 DUP2 DUP7 PUSH2 0xFE7 JUMP JUMPDEST SWAP9 SWAP8 POP POP POP POP POP POP POP POP JUMP JUMPDEST SWAP1 DUP2 MSTORE PUSH1 0x20 ADD SWAP1 JUMP JUMPDEST PUSH1 0x40 MLOAD DUP2 DUP2 ADD PUSH8 0xFFFFFFFFFFFFFFFF DUP2 GT DUP3 DUP3 LT OR ISZERO PUSH2 0x1356 JUMPI PUSH1 0x0 DUP1 REVERT JUMPDEST PUSH1 0x40 MSTORE SWAP2 SWAP1 POP JUMP JUMPDEST PUSH1 0x0 PUSH8 0xFFFFFFFFFFFFFFFF DUP3 GT ISZERO PUSH2 0x1374 JUMPI DUP1 DUP2 REVERT JUMPDEST POP PUSH1 0x1F ADD PUSH1 0x1F NOT AND PUSH1 0x20 ADD SWAP1 JUMP JUMPDEST PUSH1 0x0 JUMPDEST DUP4 DUP2 LT ISZERO PUSH2 0x139D JUMPI DUP2 DUP2 ADD MLOAD DUP4 DUP3 ADD MSTORE PUSH1 0x20 ADD PUSH2 0x1385 JUMP JUMPDEST DUP4 DUP2 GT ISZERO PUSH2 0x13AC JUMPI PUSH1 0x0 DUP5 DUP5 ADD MSTORE JUMPDEST POP POP POP POP JUMP INVALID LOG2 PUSH5 0x6970667358 0x22 SLT KECCAK256 0x2C 0x21 CODESIZE DUP9 POP 0xBC ADDRESS DUP12 CODECOPY 0xE1 0xC7 PUSH24 0x5AF72858994F405083A1DF6C95AB529D6780815764736F6C PUSH4 0x43000606 STOP CALLER "},"gasEstimates":{"creation":{"codeDepositCost":"1019200","executionCost":"42732","totalCost":"1061932"},"external":{"addNewSchool(address,string)":"infinite","existence(address,address)":"infinite","expired(address,address)":"infinite","getDeployedCerts(address)":"1319","getIPFS(address,address)":"infinite","getSchoolsCount()":"1053","getStudentList(address)":"infinite","manager()":"1137","ministryEntity()":"1180","ministryLogin(address)":"infinite","schoolOwnedCert(address,address)":"infinite","schoolOwnedStudent(address,uint256)":"2302","schools(uint256)":"infinite","stringToUint(string)":"infinite","upload(address,string,address,string,string)":"infinite","verifyIsSchool(address)":"infinite","verifyMarkup(address,address)":"infinite"}},"methodIdentifiers":{"addNewSchool(address,string)":"5624e7c9","existence(address,address)":"61f0eff9","expired(address,address)":"3afe4f7c","getDeployedCerts(address)":"8a7f7f46","getIPFS(address,address)":"82c10560","getSchoolsCount()":"01307b37","getStudentList(address)":"7858b264","manager()":"481c6a75","ministryEntity()":"c89778b4","ministryLogin(address)":"be87a975","schoolOwnedCert(address,address)":"2e2cde3a","schoolOwnedStudent(address,uint256)":"4bc395bb","schools(uint256)":"719c0d04","stringToUint(string)":"1bd95155","upload(address,string,address,string,string)":"0a0f01d3","verifyIsSchool(address)":"2dd8e5f0","verifyMarkup(address,address)":"b4490cc0"}},"storageLayout":{"storage":[{"astId":1089,"contract":"Verify.sol:Verify","label":"schools","offset":0,"slot":"0","type":"t_array(t_struct(School)1077_storage)dyn_storage"},{"astId":1091,"contract":"Verify.sol:Verify","label":"manager","offset":0,"slot":"1","type":"t_address"},{"astId":1094,"contract":"Verify.sol:Verify","label":"ministryEntity","offset":0,"slot":"2","type":"t_address"},{"astId":1098,"contract":"Verify.sol:Verify","label":"isSchool","offset":0,"slot":"3","type":"t_mapping(t_address,t_bool)"},{"astId":1104,"contract":"Verify.sol:Verify","label":"schoolOwnedCert","offset":0,"slot":"4","type":"t_mapping(t_address,t_mapping(t_address,t_struct(Certificate)1086_storage))"},{"astId":1109,"contract":"Verify.sol:Verify","label":"schoolOwnedStudent","offset":0,"slot":"5","type":"t_mapping(t_address,t_array(t_address)dyn_storage)"}],"types":{"t_address":{"encoding":"inplace","label":"address","numberOfBytes":"20"},"t_array(t_address)dyn_storage":{"base":"t_address","encoding":"dynamic_array","label":"address[]","numberOfBytes":"32"},"t_array(t_struct(School)1077_storage)dyn_storage":{"base":"t_struct(School)1077_storage","encoding":"dynamic_array","label":"struct Verify.School[]","numberOfBytes":"32"},"t_bool":{"encoding":"inplace","label":"bool","numberOfBytes":"1"},"t_mapping(t_address,t_array(t_address)dyn_storage)":{"encoding":"mapping","key":"t_address","label":"mapping(address => address[])","numberOfBytes":"32","value":"t_array(t_address)dyn_storage"},"t_mapping(t_address,t_bool)":{"encoding":"mapping","key":"t_address","label":"mapping(address => bool)","numberOfBytes":"32","value":"t_bool"},"t_mapping(t_address,t_mapping(t_address,t_struct(Certificate)1086_storage))":{"encoding":"mapping","key":"t_address","label":"mapping(address => mapping(address => struct Verify.Certificate))","numberOfBytes":"32","value":"t_mapping(t_address,t_struct(Certificate)1086_storage)"},"t_mapping(t_address,t_struct(Certificate)1086_storage)":{"encoding":"mapping","key":"t_address","label":"mapping(address => struct Verify.Certificate)","numberOfBytes":"32","value":"t_struct(Certificate)1086_storage"},"t_string_storage":{"encoding":"bytes","label":"string","numberOfBytes":"32"},"t_struct(Certificate)1086_storage":{"encoding":"inplace","label":"struct Verify.Certificate","members":[{"astId":1079,"contract":"Verify.sol:Verify","label":"name","offset":0,"slot":"0","type":"t_string_storage"},{"astId":1081,"contract":"Verify.sol:Verify","label":"studentAddr","offset":0,"slot":"1","type":"t_address"},{"astId":1083,"contract":"Verify.sol:Verify","label":"certHash","offset":0,"slot":"2","type":"t_string_storage"},{"astId":1085,"contract":"Verify.sol:Verify","label":"isGraduated","offset":0,"slot":"3","type":"t_string_storage"}],"numberOfBytes":"128"},"t_struct(School)1077_storage":{"encoding":"inplace","label":"struct Verify.School","members":[{"astId":1074,"contract":"Verify.sol:Verify","label":"name","offset":0,"slot":"0","type":"t_string_storage"},{"astId":1076,"contract":"Verify.sol:Verify","label":"schoolAddr","offset":0,"slot":"1","type":"t_address"}],"numberOfBytes":"64"}}},"userdoc":{"methods":{}}}