{"abi":[{"inputs":[],"stateMutability":"nonpayable","type":"constructor"},{"inputs":[],"name":"MinistryofEducation","outputs":[{"internalType":"address","name":"","type":"address"}],"stateMutability":"view","type":"function"},{"inputs":[{"internalType":"address","name":"schoolAddr","type":"address"},{"internalType":"string","name":"schoolName","type":"string"}],"name":"addNewSchool","outputs":[],"stateMutability":"nonpayable","type":"function"},{"inputs":[{"internalType":"address","name":"studentAddr","type":"address"},{"internalType":"address","name":"schoolAddr","type":"address"}],"name":"existence","outputs":[{"internalType":"bool","name":"","type":"bool"}],"stateMutability":"view","type":"function"},{"inputs":[{"internalType":"address","name":"studentAddr","type":"address"},{"internalType":"address","name":"schoolAddr","type":"address"}],"name":"expired","outputs":[{"internalType":"bool","name":"","type":"bool"}],"stateMutability":"view","type":"function"},{"inputs":[{"internalType":"address","name":"sender","type":"address"}],"name":"getDeployedCerts","outputs":[{"internalType":"uint256","name":"","type":"uint256"}],"stateMutability":"view","type":"function"},{"inputs":[{"internalType":"address","name":"studentAddr","type":"address"},{"internalType":"address","name":"schoolAddr","type":"address"}],"name":"getIPFS","outputs":[{"internalType":"string","name":"","type":"string"}],"stateMutability":"view","type":"function"},{"inputs":[],"name":"getSchoolsCount","outputs":[{"internalType":"uint256","name":"","type":"uint256"}],"stateMutability":"view","type":"function"},{"inputs":[{"internalType":"address","name":"sender","type":"address"}],"name":"getStudentList","outputs":[{"internalType":"address[]","name":"","type":"address[]"}],"stateMutability":"view","type":"function"},{"inputs":[],"name":"ministryEntity","outputs":[{"internalType":"address","name":"","type":"address"}],"stateMutability":"view","type":"function"},{"inputs":[{"internalType":"address","name":"ministryAddr","type":"address"}],"name":"ministryLogin","outputs":[{"internalType":"bool","name":"","type":"bool"}],"stateMutability":"view","type":"function"},{"inputs":[{"internalType":"address","name":"","type":"address"},{"internalType":"address","name":"","type":"address"}],"name":"schoolOwnedCert","outputs":[{"internalType":"string","name":"name","type":"string"},{"internalType":"address","name":"studentAddr","type":"address"},{"internalType":"string","name":"certHash","type":"string"},{"internalType":"string","name":"isGraduated","type":"string"}],"stateMutability":"view","type":"function"},{"inputs":[{"internalType":"address","name":"","type":"address"},{"internalType":"uint256","name":"","type":"uint256"}],"name":"schoolOwnedStudent","outputs":[{"internalType":"address","name":"","type":"address"}],"stateMutability":"view","type":"function"},{"inputs":[{"internalType":"uint256","name":"","type":"uint256"}],"name":"schools","outputs":[{"internalType":"string","name":"name","type":"string"},{"internalType":"address","name":"schoolAddr","type":"address"}],"stateMutability":"view","type":"function"},{"inputs":[{"internalType":"string","name":"s","type":"string"}],"name":"stringToUint","outputs":[{"internalType":"uint256","name":"","type":"uint256"}],"stateMutability":"pure","type":"function"},{"inputs":[{"internalType":"string","name":"hashValue","type":"string"},{"internalType":"address","name":"studentAddr","type":"address"},{"internalType":"string","name":"studentName","type":"string"},{"internalType":"string","name":"graduate","type":"string"}],"name":"upload","outputs":[],"stateMutability":"nonpayable","type":"function"},{"inputs":[{"internalType":"address","name":"schoolAddr","type":"address"}],"name":"verifyIsSchool","outputs":[{"internalType":"bool","name":"","type":"bool"}],"stateMutability":"view","type":"function"}],"devdoc":{"methods":{}},"evm":{"assembly":"    /* \"Verify.sol\":96:5268  contract Verify {\r... */\n  mstore(0x40, 0x80)\n    /* \"Verify.sol\":495:537  0x82909e8eC9EC085540bC0c7Ea5f3BA1fD9425Fa6 */\n  0x82909e8ec9ec085540bc0c7ea5f3ba1fd9425fa6\n    /* \"Verify.sol\":463:537  address public ministryEntity = 0x82909e8eC9EC085540bC0c7Ea5f3BA1fD9425Fa6 */\n  0x02\n  exp(0x0100, 0x00)\n  dup2\n  sload\n  dup2\n  0xffffffffffffffffffffffffffffffffffffffff\n  mul\n  not\n  and\n  swap1\n  dup4\n  0xffffffffffffffffffffffffffffffffffffffff\n  and\n  mul\n  or\n  swap1\n  sstore\n  pop\n    /* \"Verify.sol\":779:851  constructor() public {\r... */\n  callvalue\n    /* \"--CODEGEN--\":5:14   */\n  dup1\n    /* \"--CODEGEN--\":2:4   */\n  iszero\n  tag_1\n  jumpi\n    /* \"--CODEGEN--\":27:28   */\n  0x00\n    /* \"--CODEGEN--\":24:25   */\n  dup1\n    /* \"--CODEGEN--\":17:29   */\n  revert\n    /* \"--CODEGEN--\":2:4   */\ntag_1:\n    /* \"Verify.sol\":779:851  constructor() public {\r... */\n  pop\n    /* \"Verify.sol\":833:843  msg.sender */\n  caller\n    /* \"Verify.sol\":811:830  MinistryofEducation */\n  0x01\n  0x00\n    /* \"Verify.sol\":811:843  MinistryofEducation = msg.sender */\n  0x0100\n  exp\n  dup2\n  sload\n  dup2\n  0xffffffffffffffffffffffffffffffffffffffff\n  mul\n  not\n  and\n  swap1\n  dup4\n  0xffffffffffffffffffffffffffffffffffffffff\n  and\n  mul\n  or\n  swap1\n  sstore\n  pop\n    /* \"Verify.sol\":96:5268  contract Verify {\r... */\n  dataSize(sub_0)\n  dup1\n  dataOffset(sub_0)\n  0x00\n  codecopy\n  0x00\n  return\nstop\n\nsub_0: assembly {\n        /* \"Verify.sol\":96:5268  contract Verify {\r... */\n      mstore(0x40, 0x80)\n      callvalue\n        /* \"--CODEGEN--\":5:14   */\n      dup1\n        /* \"--CODEGEN--\":2:4   */\n      iszero\n      tag_1\n      jumpi\n        /* \"--CODEGEN--\":27:28   */\n      0x00\n        /* \"--CODEGEN--\":24:25   */\n      dup1\n        /* \"--CODEGEN--\":17:29   */\n      revert\n        /* \"--CODEGEN--\":2:4   */\n    tag_1:\n        /* \"Verify.sol\":96:5268  contract Verify {\r... */\n      pop\n      jumpi(tag_2, lt(calldatasize, 0x04))\n      shr(0xe0, calldataload(0x00))\n      dup1\n      0x61f0eff9\n      gt\n      tag_19\n      jumpi\n      dup1\n      0x8a7f7f46\n      gt\n      tag_20\n      jumpi\n      dup1\n      0x8a7f7f46\n      eq\n      tag_15\n      jumpi\n      dup1\n      0xbe87a975\n      eq\n      tag_16\n      jumpi\n      dup1\n      0xc89778b4\n      eq\n      tag_17\n      jumpi\n      dup1\n      0xfe2f3d8e\n      eq\n      tag_18\n      jumpi\n      jump(tag_2)\n    tag_20:\n      dup1\n      0x61f0eff9\n      eq\n      tag_11\n      jumpi\n      dup1\n      0x719c0d04\n      eq\n      tag_12\n      jumpi\n      dup1\n      0x7858b264\n      eq\n      tag_13\n      jumpi\n      dup1\n      0x82c10560\n      eq\n      tag_14\n      jumpi\n      jump(tag_2)\n    tag_19:\n      dup1\n      0x3afe4f7c\n      gt\n      tag_21\n      jumpi\n      dup1\n      0x3afe4f7c\n      eq\n      tag_7\n      jumpi\n      dup1\n      0x4bc395bb\n      eq\n      tag_8\n      jumpi\n      dup1\n      0x5624e7c9\n      eq\n      tag_9\n      jumpi\n      dup1\n      0x5f460c91\n      eq\n      tag_10\n      jumpi\n      jump(tag_2)\n    tag_21:\n      dup1\n      0x01307b37\n      eq\n      tag_3\n      jumpi\n      dup1\n      0x1bd95155\n      eq\n      tag_4\n      jumpi\n      dup1\n      0x2dd8e5f0\n      eq\n      tag_5\n      jumpi\n      dup1\n      0x2e2cde3a\n      eq\n      tag_6\n      jumpi\n    tag_2:\n        /* \"--CODEGEN--\":12:13   */\n      0x00\n        /* \"--CODEGEN--\":9:10   */\n      dup1\n        /* \"--CODEGEN--\":2:14   */\n      revert\n        /* \"Verify.sol\":4882:4979  function getSchoolsCount() public view returns (uint256) {\r... */\n    tag_3:\n      tag_22\n      tag_23\n      jump\t// in\n    tag_22:\n      mload(0x40)\n      tag_24\n      swap2\n      swap1\n      jump(tag_25)\n    tag_24:\n      mload(0x40)\n      dup1\n      swap2\n      sub\n      swap1\n      return\n        /* \"Verify.sol\":979:1345  function stringToUint(string memory s)public pure returns (uint) {\r... */\n    tag_4:\n      tag_26\n      0x04\n      dup1\n      calldatasize\n      sub\n      dup2\n      add\n      swap1\n      tag_27\n      swap2\n      swap1\n      jump(tag_28)\n    tag_27:\n      tag_29\n      jump\t// in\n    tag_26:\n      mload(0x40)\n      tag_30\n      swap2\n      swap1\n      jump(tag_25)\n    tag_30:\n      mload(0x40)\n      dup1\n      swap2\n      sub\n      swap1\n      return\n        /* \"Verify.sol\":3431:3820  function verifyIsSchool(address schoolAddr) public view returns (bool) {\r... */\n    tag_5:\n      tag_31\n      0x04\n      dup1\n      calldatasize\n      sub\n      dup2\n      add\n      swap1\n      tag_32\n      swap2\n      swap1\n      jump(tag_33)\n    tag_32:\n      tag_34\n      jump\t// in\n    tag_31:\n      mload(0x40)\n      tag_35\n      swap2\n      swap1\n      jump(tag_36)\n    tag_35:\n      mload(0x40)\n      dup1\n      swap2\n      sub\n      swap1\n      return\n        /* \"Verify.sol\":630:704  mapping(address => mapping(address => Certificate)) public schoolOwnedCert */\n    tag_6:\n      tag_37\n      0x04\n      dup1\n      calldatasize\n      sub\n      dup2\n      add\n      swap1\n      tag_38\n      swap2\n      swap1\n      jump(tag_39)\n    tag_38:\n      tag_40\n      jump\t// in\n    tag_37:\n      mload(0x40)\n      tag_41\n      swap5\n      swap4\n      swap3\n      swap2\n      swap1\n      jump(tag_42)\n    tag_41:\n      mload(0x40)\n      dup1\n      swap2\n      sub\n      swap1\n      return\n        /* \"Verify.sol\":4241:4580  function expired(address studentAddr, address schoolAddr) public view returns (bool) {\r... */\n    tag_7:\n      tag_43\n      0x04\n      dup1\n      calldatasize\n      sub\n      dup2\n      add\n      swap1\n      tag_44\n      swap2\n      swap1\n      jump(tag_39)\n    tag_44:\n      tag_45\n      jump\t// in\n    tag_43:\n      mload(0x40)\n      tag_46\n      swap2\n      swap1\n      jump(tag_36)\n    tag_46:\n      mload(0x40)\n      dup1\n      swap2\n      sub\n      swap1\n      return\n        /* \"Verify.sol\":711:766  mapping(address => address[]) public schoolOwnedStudent */\n    tag_8:\n      tag_47\n      0x04\n      dup1\n      calldatasize\n      sub\n      dup2\n      add\n      swap1\n      tag_48\n      swap2\n      swap1\n      jump(tag_49)\n    tag_48:\n      tag_50\n      jump\t// in\n    tag_47:\n      mload(0x40)\n      tag_51\n      swap2\n      swap1\n      jump(tag_52)\n    tag_51:\n      mload(0x40)\n      dup1\n      swap2\n      sub\n      swap1\n      return\n        /* \"Verify.sol\":1357:1636  function addNewSchool(address schoolAddr, string memory schoolName) public {\r... */\n    tag_9:\n      tag_53\n      0x04\n      dup1\n      calldatasize\n      sub\n      dup2\n      add\n      swap1\n      tag_54\n      swap2\n      swap1\n      jump(tag_55)\n    tag_54:\n      tag_56\n      jump\t// in\n    tag_53:\n      stop\n        /* \"Verify.sol\":1648:2199  function upload(string memory hashValue, address studentAddr, string memory studentName, string memory graduate) public {\r... */\n    tag_10:\n      tag_57\n      0x04\n      dup1\n      calldatasize\n      sub\n      dup2\n      add\n      swap1\n      tag_58\n      swap2\n      swap1\n      jump(tag_59)\n    tag_58:\n      tag_60\n      jump\t// in\n    tag_57:\n      stop\n        /* \"Verify.sol\":3828:4229  function existence(address studentAddr, address schoolAddr) public view returns (bool) {\r... */\n    tag_11:\n      tag_61\n      0x04\n      dup1\n      calldatasize\n      sub\n      dup2\n      add\n      swap1\n      tag_62\n      swap2\n      swap1\n      jump(tag_39)\n    tag_62:\n      tag_63\n      jump\t// in\n    tag_61:\n      mload(0x40)\n      tag_64\n      swap2\n      swap1\n      jump(tag_36)\n    tag_64:\n      mload(0x40)\n      dup1\n      swap2\n      sub\n      swap1\n      return\n        /* \"Verify.sol\":350:373  School[] public schools */\n    tag_12:\n      tag_65\n      0x04\n      dup1\n      calldatasize\n      sub\n      dup2\n      add\n      swap1\n      tag_66\n      swap2\n      swap1\n      jump(tag_67)\n    tag_66:\n      tag_68\n      jump\t// in\n    tag_65:\n      mload(0x40)\n      tag_69\n      swap3\n      swap2\n      swap1\n      jump(tag_70)\n    tag_69:\n      mload(0x40)\n      dup1\n      swap2\n      sub\n      swap1\n      return\n        /* \"Verify.sol\":5134:5265  function getStudentList(address sender) public view returns (address[] memory) {\r... */\n    tag_13:\n      tag_71\n      0x04\n      dup1\n      calldatasize\n      sub\n      dup2\n      add\n      swap1\n      tag_72\n      swap2\n      swap1\n      jump(tag_33)\n    tag_72:\n      tag_73\n      jump\t// in\n    tag_71:\n      mload(0x40)\n      tag_74\n      swap2\n      swap1\n      jump(tag_75)\n    tag_74:\n      mload(0x40)\n      dup1\n      swap2\n      sub\n      swap1\n      return\n        /* \"Verify.sol\":4592:4870  function getIPFS(address studentAddr, address schoolAddr) public view returns (string memory){\r... */\n    tag_14:\n      tag_76\n      0x04\n      dup1\n      calldatasize\n      sub\n      dup2\n      add\n      swap1\n      tag_77\n      swap2\n      swap1\n      jump(tag_39)\n    tag_77:\n      tag_78\n      jump\t// in\n    tag_76:\n      mload(0x40)\n      tag_79\n      swap2\n      swap1\n      jump(tag_80)\n    tag_79:\n      mload(0x40)\n      dup1\n      swap2\n      sub\n      swap1\n      return\n        /* \"Verify.sol\":4991:5122  function getDeployedCerts(address sender) public view returns (uint256) {\r... */\n    tag_15:\n      tag_81\n      0x04\n      dup1\n      calldatasize\n      sub\n      dup2\n      add\n      swap1\n      tag_82\n      swap2\n      swap1\n      jump(tag_33)\n    tag_82:\n      tag_83\n      jump\t// in\n    tag_81:\n      mload(0x40)\n      tag_84\n      swap2\n      swap1\n      jump(tag_25)\n    tag_84:\n      mload(0x40)\n      dup1\n      swap2\n      sub\n      swap1\n      return\n        /* \"Verify.sol\":3031:3419  function ministryLogin(address ministryAddr) public view returns (bool) {\r... */\n    tag_16:\n      tag_85\n      0x04\n      dup1\n      calldatasize\n      sub\n      dup2\n      add\n      swap1\n      tag_86\n      swap2\n      swap1\n      jump(tag_33)\n    tag_86:\n      tag_87\n      jump\t// in\n    tag_85:\n      mload(0x40)\n      tag_88\n      swap2\n      swap1\n      jump(tag_36)\n    tag_88:\n      mload(0x40)\n      dup1\n      swap2\n      sub\n      swap1\n      return\n        /* \"Verify.sol\":463:537  address public ministryEntity = 0x82909e8eC9EC085540bC0c7Ea5f3BA1fD9425Fa6 */\n    tag_17:\n      tag_89\n      tag_90\n      jump\t// in\n    tag_89:\n      mload(0x40)\n      tag_91\n      swap2\n      swap1\n      jump(tag_52)\n    tag_91:\n      mload(0x40)\n      dup1\n      swap2\n      sub\n      swap1\n      return\n        /* \"Verify.sol\":422:456  address public MinistryofEducation */\n    tag_18:\n      tag_92\n      tag_93\n      jump\t// in\n    tag_92:\n      mload(0x40)\n      tag_94\n      swap2\n      swap1\n      jump(tag_52)\n    tag_94:\n      mload(0x40)\n      dup1\n      swap2\n      sub\n      swap1\n      return\n        /* \"Verify.sol\":4882:4979  function getSchoolsCount() public view returns (uint256) {\r... */\n    tag_23:\n        /* \"Verify.sol\":4930:4937  uint256 */\n      0x00\n        /* \"Verify.sol\":4957:4964  schools */\n      dup1\n        /* \"Verify.sol\":4957:4971  schools.length */\n      dup1\n      sload\n      swap1\n      pop\n        /* \"Verify.sol\":4950:4971  return schools.length */\n      swap1\n      pop\n        /* \"Verify.sol\":4882:4979  function getSchoolsCount() public view returns (uint256) {\r... */\n      swap1\n      jump\t// out\n        /* \"Verify.sol\":979:1345  function stringToUint(string memory s)public pure returns (uint) {\r... */\n    tag_29:\n        /* \"Verify.sol\":1038:1042  uint */\n      0x00\n        /* \"Verify.sol\":1055:1069  bytes memory b */\n      0x60\n        /* \"Verify.sol\":1078:1079  s */\n      dup3\n        /* \"Verify.sol\":1055:1080  bytes memory b = bytes(s) */\n      swap1\n      pop\n        /* \"Verify.sol\":1091:1097  uint i */\n      0x00\n        /* \"Verify.sol\":1108:1117  uint temp */\n      dup1\n        /* \"Verify.sol\":1120:1121  0 */\n      0x00\n        /* \"Verify.sol\":1108:1121  uint temp = 0 */\n      swap1\n      pop\n        /* \"Verify.sol\":1141:1142  0 */\n      0x00\n        /* \"Verify.sol\":1137:1142  i = 0 */\n      swap2\n      pop\n        /* \"Verify.sol\":1132:1316  for (i = 0; i < b.length; i++) {\r... */\n    tag_97:\n        /* \"Verify.sol\":1148:1149  b */\n      dup3\n        /* \"Verify.sol\":1148:1156  b.length */\n      mload\n        /* \"Verify.sol\":1144:1145  i */\n      dup3\n        /* \"Verify.sol\":1144:1156  i < b.length */\n      lt\n        /* \"Verify.sol\":1132:1316  for (i = 0; i < b.length; i++) {\r... */\n      iszero\n      tag_98\n      jumpi\n        /* \"Verify.sol\":1178:1184  uint c */\n      0x00\n        /* \"Verify.sol\":1198:1199  b */\n      dup4\n        /* \"Verify.sol\":1200:1201  i */\n      dup4\n        /* \"Verify.sol\":1198:1202  b[i] */\n      dup2\n      mload\n      dup2\n      lt\n      tag_100\n      jumpi\n      invalid\n    tag_100:\n      0x20\n      add\n      add\n      mload\n      0xf8\n      shr\n      0xf8\n      shl\n        /* \"Verify.sol\":1192:1203  uint8(b[i]) */\n      0xf8\n      shr\n        /* \"Verify.sol\":1187:1204  uint(uint8(b[i])) */\n      0xff\n      and\n        /* \"Verify.sol\":1178:1204  uint c = uint(uint8(b[i])) */\n      swap1\n      pop\n        /* \"Verify.sol\":1228:1230  48 */\n      0x30\n        /* \"Verify.sol\":1223:1224  c */\n      dup2\n        /* \"Verify.sol\":1223:1230  c >= 48 */\n      lt\n      iszero\n        /* \"Verify.sol\":1223:1241  c >= 48 && c <= 57 */\n      dup1\n      iszero\n      tag_101\n      jumpi\n      pop\n        /* \"Verify.sol\":1239:1241  57 */\n      0x39\n        /* \"Verify.sol\":1234:1235  c */\n      dup2\n        /* \"Verify.sol\":1234:1241  c <= 57 */\n      gt\n      iszero\n        /* \"Verify.sol\":1223:1241  c >= 48 && c <= 57 */\n    tag_101:\n        /* \"Verify.sol\":1219:1305  if (c >= 48 && c <= 57) {\r... */\n      iszero\n      tag_102\n      jumpi\n        /* \"Verify.sol\":1286:1288  48 */\n      0x30\n        /* \"Verify.sol\":1282:1283  c */\n      dup2\n        /* \"Verify.sol\":1282:1288  c - 48 */\n      sub\n        /* \"Verify.sol\":1276:1278  10 */\n      0x0a\n        /* \"Verify.sol\":1269:1273  temp */\n      dup4\n        /* \"Verify.sol\":1269:1278  temp * 10 */\n      mul\n        /* \"Verify.sol\":1269:1289  temp * 10 + (c - 48) */\n      add\n        /* \"Verify.sol\":1262:1289  temp = temp * 10 + (c - 48) */\n      swap2\n      pop\n        /* \"Verify.sol\":1219:1305  if (c >= 48 && c <= 57) {\r... */\n    tag_102:\n        /* \"Verify.sol\":1132:1316  for (i = 0; i < b.length; i++) {\r... */\n      pop\n        /* \"Verify.sol\":1158:1161  i++ */\n      dup2\n      dup1\n      0x01\n      add\n      swap3\n      pop\n      pop\n        /* \"Verify.sol\":1132:1316  for (i = 0; i < b.length; i++) {\r... */\n      jump(tag_97)\n    tag_98:\n        /* \"Verify.sol\":1333:1337  temp */\n      dup1\n        /* \"Verify.sol\":1326:1337  return temp */\n      swap4\n      pop\n      pop\n      pop\n      pop\n        /* \"Verify.sol\":979:1345  function stringToUint(string memory s)public pure returns (uint) {\r... */\n      swap2\n      swap1\n      pop\n      jump\t// out\n        /* \"Verify.sol\":3431:3820  function verifyIsSchool(address schoolAddr) public view returns (bool) {\r... */\n    tag_34:\n        /* \"Verify.sol\":3496:3500  bool */\n      0x00\n        /* \"Verify.sol\":3513:3532  Entity entitySchool */\n      dup1\n        /* \"Verify.sol\":3542:3552  schoolAddr */\n      dup3\n        /* \"Verify.sol\":3513:3553  Entity entitySchool = Entity(schoolAddr) */\n      swap1\n      pop\n        /* \"Verify.sol\":3564:3589  string memory text_school */\n      0x60\n        /* \"Verify.sol\":3592:3604  entitySchool */\n      dup2\n        /* \"Verify.sol\":3592:3616  entitySchool.columnValue */\n      0xffffffffffffffffffffffffffffffffffffffff\n      and\n      0x8cba76b1\n        /* \"Verify.sol\":3617:3631  ministryEntity */\n      0x02\n      0x00\n      swap1\n      sload\n      swap1\n      0x0100\n      exp\n      swap1\n      div\n      0xffffffffffffffffffffffffffffffffffffffff\n      and\n        /* \"Verify.sol\":3592:3665  entitySchool.columnValue(ministryEntity, \"schoolCertificate\", \"isSchool\") */\n      mload(0x40)\n      dup3\n      0xffffffff\n      and\n      0xe0\n      shl\n      dup2\n      mstore\n      0x04\n      add\n      tag_104\n      swap2\n      swap1\n      jump(tag_105)\n    tag_104:\n      0x00\n      mload(0x40)\n      dup1\n      dup4\n      sub\n      dup2\n      dup7\n      dup1\n      extcodesize\n      iszero\n        /* \"--CODEGEN--\":5:14   */\n      dup1\n        /* \"--CODEGEN--\":2:4   */\n      iszero\n      tag_106\n      jumpi\n        /* \"--CODEGEN--\":27:28   */\n      0x00\n        /* \"--CODEGEN--\":24:25   */\n      dup1\n        /* \"--CODEGEN--\":17:29   */\n      revert\n        /* \"--CODEGEN--\":2:4   */\n    tag_106:\n        /* \"Verify.sol\":3592:3665  entitySchool.columnValue(ministryEntity, \"schoolCertificate\", \"isSchool\") */\n      pop\n      gas\n      staticcall\n      iszero\n        /* \"--CODEGEN--\":8:17   */\n      dup1\n        /* \"--CODEGEN--\":5:7   */\n      iszero\n      tag_108\n      jumpi\n        /* \"--CODEGEN--\":45:61   */\n      returndatasize\n        /* \"--CODEGEN--\":42:43   */\n      0x00\n        /* \"--CODEGEN--\":39:40   */\n      dup1\n        /* \"--CODEGEN--\":24:62   */\n      returndatacopy\n        /* \"--CODEGEN--\":77:93   */\n      returndatasize\n        /* \"--CODEGEN--\":74:75   */\n      0x00\n        /* \"--CODEGEN--\":67:94   */\n      revert\n        /* \"--CODEGEN--\":5:7   */\n    tag_108:\n        /* \"Verify.sol\":3592:3665  entitySchool.columnValue(ministryEntity, \"schoolCertificate\", \"isSchool\") */\n      pop\n      pop\n      pop\n      pop\n      mload(0x40)\n        /* \"--CODEGEN--\":39:55   */\n      returndatasize\n        /* \"--CODEGEN--\":36:37   */\n      0x00\n        /* \"--CODEGEN--\":17:34   */\n      dup3\n        /* \"--CODEGEN--\":2:56   */\n      returndatacopy\n        /* \"Verify.sol\":3592:3665  entitySchool.columnValue(ministryEntity, \"schoolCertificate\", \"isSchool\") */\n      returndatasize\n        /* \"--CODEGEN--\":101:105   */\n      0x1f\n        /* \"--CODEGEN--\":97:106   */\n      not\n        /* \"--CODEGEN--\":90:94   */\n      0x1f\n        /* \"--CODEGEN--\":84:88   */\n      dup3\n        /* \"--CODEGEN--\":80:95   */\n      add\n        /* \"--CODEGEN--\":76:107   */\n      and\n        /* \"--CODEGEN--\":69:74   */\n      dup3\n        /* \"--CODEGEN--\":65:108   */\n      add\n        /* \"--CODEGEN--\":126:132   */\n      dup1\n        /* \"--CODEGEN--\":120:124   */\n      0x40\n        /* \"--CODEGEN--\":113:133   */\n      mstore\n        /* \"--CODEGEN--\":0:138   */\n      pop\n        /* \"Verify.sol\":3592:3665  entitySchool.columnValue(ministryEntity, \"schoolCertificate\", \"isSchool\") */\n      dup2\n      add\n      swap1\n      tag_109\n      swap2\n      swap1\n      jump(tag_110)\n    tag_109:\n        /* \"Verify.sol\":3564:3665  string memory text_school = entitySchool.columnValue(ministryEntity, \"schoolCertificate\", \"isSchool\") */\n      swap1\n      pop\n        /* \"Verify.sol\":3734:3757  abi.encodePacked(\"Yes\") */\n      add(0x20, mload(0x40))\n      tag_111\n      swap1\n      jump(tag_112)\n    tag_111:\n      mload(0x40)\n        /* \"--CODEGEN--\":49:53   */\n      0x20\n        /* \"--CODEGEN--\":39:46   */\n      dup2\n        /* \"--CODEGEN--\":30:37   */\n      dup4\n        /* \"--CODEGEN--\":26:47   */\n      sub\n        /* \"--CODEGEN--\":22:54   */\n      sub\n        /* \"--CODEGEN--\":13:20   */\n      dup2\n        /* \"--CODEGEN--\":6:55   */\n      mstore\n        /* \"Verify.sol\":3734:3757  abi.encodePacked(\"Yes\") */\n      swap1\n      0x40\n      mstore\n        /* \"Verify.sol\":3724:3758  keccak256(abi.encodePacked(\"Yes\")) */\n      dup1\n      mload\n      swap1\n      0x20\n      add\n      keccak256\n        /* \"Verify.sol\":3707:3718  text_school */\n      dup2\n        /* \"Verify.sol\":3690:3719  abi.encodePacked(text_school) */\n      add(0x20, mload(0x40))\n      tag_113\n      swap2\n      swap1\n      jump(tag_114)\n    tag_113:\n      mload(0x40)\n        /* \"--CODEGEN--\":49:53   */\n      0x20\n        /* \"--CODEGEN--\":39:46   */\n      dup2\n        /* \"--CODEGEN--\":30:37   */\n      dup4\n        /* \"--CODEGEN--\":26:47   */\n      sub\n        /* \"--CODEGEN--\":22:54   */\n      sub\n        /* \"--CODEGEN--\":13:20   */\n      dup2\n        /* \"--CODEGEN--\":6:55   */\n      mstore\n        /* \"Verify.sol\":3690:3719  abi.encodePacked(text_school) */\n      swap1\n      0x40\n      mstore\n        /* \"Verify.sol\":3680:3720  keccak256(abi.encodePacked(text_school)) */\n      dup1\n      mload\n      swap1\n      0x20\n      add\n      keccak256\n        /* \"Verify.sol\":3680:3758  keccak256(abi.encodePacked(text_school)) == keccak256(abi.encodePacked(\"Yes\")) */\n      eq\n        /* \"Verify.sol\":3676:3812  if (keccak256(abi.encodePacked(text_school)) == keccak256(abi.encodePacked(\"Yes\")))\r... */\n      iszero\n      tag_115\n      jumpi\n        /* \"Verify.sol\":3780:3784  true */\n      0x01\n        /* \"Verify.sol\":3773:3784  return true */\n      swap3\n      pop\n      pop\n      pop\n      jump(tag_103)\n        /* \"Verify.sol\":3676:3812  if (keccak256(abi.encodePacked(text_school)) == keccak256(abi.encodePacked(\"Yes\")))\r... */\n    tag_115:\n        /* \"Verify.sol\":3807:3812  false */\n      0x00\n        /* \"Verify.sol\":3800:3812  return false */\n      swap3\n      pop\n      pop\n      pop\n        /* \"Verify.sol\":3431:3820  function verifyIsSchool(address schoolAddr) public view returns (bool) {\r... */\n    tag_103:\n      swap2\n      swap1\n      pop\n      jump\t// out\n        /* \"Verify.sol\":630:704  mapping(address => mapping(address => Certificate)) public schoolOwnedCert */\n    tag_40:\n      mstore(0x20, 0x05)\n      dup2\n      0x00\n      mstore\n      mstore(0x20, keccak256(0x00, 0x40))\n      dup1\n      0x00\n      mstore\n      keccak256(0x00, 0x40)\n      0x00\n      swap2\n      pop\n      swap2\n      pop\n      pop\n      dup1\n      0x00\n      add\n      dup1\n      sload\n      0x01\n      dup2\n      0x01\n      and\n      iszero\n      0x0100\n      mul\n      sub\n      and\n      0x02\n      swap1\n      div\n      dup1\n      0x1f\n      add\n      0x20\n      dup1\n      swap2\n      div\n      mul\n      0x20\n      add\n      mload(0x40)\n      swap1\n      dup2\n      add\n      0x40\n      mstore\n      dup1\n      swap3\n      swap2\n      swap1\n      dup2\n      dup2\n      mstore\n      0x20\n      add\n      dup3\n      dup1\n      sload\n      0x01\n      dup2\n      0x01\n      and\n      iszero\n      0x0100\n      mul\n      sub\n      and\n      0x02\n      swap1\n      div\n      dup1\n      iszero\n      tag_117\n      jumpi\n      dup1\n      0x1f\n      lt\n      tag_118\n      jumpi\n      0x0100\n      dup1\n      dup4\n      sload\n      div\n      mul\n      dup4\n      mstore\n      swap2\n      0x20\n      add\n      swap2\n      jump(tag_117)\n    tag_118:\n      dup3\n      add\n      swap2\n      swap1\n      0x00\n      mstore\n      keccak256(0x00, 0x20)\n      swap1\n    tag_119:\n      dup2\n      sload\n      dup2\n      mstore\n      swap1\n      0x01\n      add\n      swap1\n      0x20\n      add\n      dup1\n      dup4\n      gt\n      tag_119\n      jumpi\n      dup3\n      swap1\n      sub\n      0x1f\n      and\n      dup3\n      add\n      swap2\n    tag_117:\n      pop\n      pop\n      pop\n      pop\n      pop\n      swap1\n      dup1\n      0x01\n      add\n      0x00\n      swap1\n      sload\n      swap1\n      0x0100\n      exp\n      swap1\n      div\n      0xffffffffffffffffffffffffffffffffffffffff\n      and\n      swap1\n      dup1\n      0x02\n      add\n      dup1\n      sload\n      0x01\n      dup2\n      0x01\n      and\n      iszero\n      0x0100\n      mul\n      sub\n      and\n      0x02\n      swap1\n      div\n      dup1\n      0x1f\n      add\n      0x20\n      dup1\n      swap2\n      div\n      mul\n      0x20\n      add\n      mload(0x40)\n      swap1\n      dup2\n      add\n      0x40\n      mstore\n      dup1\n      swap3\n      swap2\n      swap1\n      dup2\n      dup2\n      mstore\n      0x20\n      add\n      dup3\n      dup1\n      sload\n      0x01\n      dup2\n      0x01\n      and\n      iszero\n      0x0100\n      mul\n      sub\n      and\n      0x02\n      swap1\n      div\n      dup1\n      iszero\n      tag_120\n      jumpi\n      dup1\n      0x1f\n      lt\n      tag_121\n      jumpi\n      0x0100\n      dup1\n      dup4\n      sload\n      div\n      mul\n      dup4\n      mstore\n      swap2\n      0x20\n      add\n      swap2\n      jump(tag_120)\n    tag_121:\n      dup3\n      add\n      swap2\n      swap1\n      0x00\n      mstore\n      keccak256(0x00, 0x20)\n      swap1\n    tag_122:\n      dup2\n      sload\n      dup2\n      mstore\n      swap1\n      0x01\n      add\n      swap1\n      0x20\n      add\n      dup1\n      dup4\n      gt\n      tag_122\n      jumpi\n      dup3\n      swap1\n      sub\n      0x1f\n      and\n      dup3\n      add\n      swap2\n    tag_120:\n      pop\n      pop\n      pop\n      pop\n      pop\n      swap1\n      dup1\n      0x03\n      add\n      dup1\n      sload\n      0x01\n      dup2\n      0x01\n      and\n      iszero\n      0x0100\n      mul\n      sub\n      and\n      0x02\n      swap1\n      div\n      dup1\n      0x1f\n      add\n      0x20\n      dup1\n      swap2\n      div\n      mul\n      0x20\n      add\n      mload(0x40)\n      swap1\n      dup2\n      add\n      0x40\n      mstore\n      dup1\n      swap3\n      swap2\n      swap1\n      dup2\n      dup2\n      mstore\n      0x20\n      add\n      dup3\n      dup1\n      sload\n      0x01\n      dup2\n      0x01\n      and\n      iszero\n      0x0100\n      mul\n      sub\n      and\n      0x02\n      swap1\n      div\n      dup1\n      iszero\n      tag_123\n      jumpi\n      dup1\n      0x1f\n      lt\n      tag_124\n      jumpi\n      0x0100\n      dup1\n      dup4\n      sload\n      div\n      mul\n      dup4\n      mstore\n      swap2\n      0x20\n      add\n      swap2\n      jump(tag_123)\n    tag_124:\n      dup3\n      add\n      swap2\n      swap1\n      0x00\n      mstore\n      keccak256(0x00, 0x20)\n      swap1\n    tag_125:\n      dup2\n      sload\n      dup2\n      mstore\n      swap1\n      0x01\n      add\n      swap1\n      0x20\n      add\n      dup1\n      dup4\n      gt\n      tag_125\n      jumpi\n      dup3\n      swap1\n      sub\n      0x1f\n      and\n      dup3\n      add\n      swap2\n    tag_123:\n      pop\n      pop\n      pop\n      pop\n      pop\n      swap1\n      pop\n      dup5\n      jump\t// out\n        /* \"Verify.sol\":4241:4580  function expired(address studentAddr, address schoolAddr) public view returns (bool) {\r... */\n    tag_45:\n        /* \"Verify.sol\":4320:4324  bool */\n      0x00\n        /* \"Verify.sol\":4337:4357  Entity entityStudent */\n      dup1\n        /* \"Verify.sol\":4367:4378  studentAddr */\n      dup4\n        /* \"Verify.sol\":4337:4379  Entity entityStudent = Entity(studentAddr) */\n      swap1\n      pop\n        /* \"Verify.sol\":4390:4399  uint time */\n      0x00\n        /* \"Verify.sol\":4402:4486  stringToUint(entityStudent.columnValue(schoolAddr, \"diploma\", \"CertificateEndDate\")) */\n      tag_127\n        /* \"Verify.sol\":4415:4428  entityStudent */\n      dup3\n        /* \"Verify.sol\":4415:4440  entityStudent.columnValue */\n      0xffffffffffffffffffffffffffffffffffffffff\n      and\n      0x8cba76b1\n        /* \"Verify.sol\":4441:4451  schoolAddr */\n      dup7\n        /* \"Verify.sol\":4415:4485  entityStudent.columnValue(schoolAddr, \"diploma\", \"CertificateEndDate\") */\n      mload(0x40)\n      dup3\n      0xffffffff\n      and\n      0xe0\n      shl\n      dup2\n      mstore\n      0x04\n      add\n      tag_128\n      swap2\n      swap1\n      jump(tag_129)\n    tag_128:\n      0x00\n      mload(0x40)\n      dup1\n      dup4\n      sub\n      dup2\n      dup7\n      dup1\n      extcodesize\n      iszero\n        /* \"--CODEGEN--\":5:14   */\n      dup1\n        /* \"--CODEGEN--\":2:4   */\n      iszero\n      tag_130\n      jumpi\n        /* \"--CODEGEN--\":27:28   */\n      0x00\n        /* \"--CODEGEN--\":24:25   */\n      dup1\n        /* \"--CODEGEN--\":17:29   */\n      revert\n        /* \"--CODEGEN--\":2:4   */\n    tag_130:\n        /* \"Verify.sol\":4415:4485  entityStudent.columnValue(schoolAddr, \"diploma\", \"CertificateEndDate\") */\n      pop\n      gas\n      staticcall\n      iszero\n        /* \"--CODEGEN--\":8:17   */\n      dup1\n        /* \"--CODEGEN--\":5:7   */\n      iszero\n      tag_132\n      jumpi\n        /* \"--CODEGEN--\":45:61   */\n      returndatasize\n        /* \"--CODEGEN--\":42:43   */\n      0x00\n        /* \"--CODEGEN--\":39:40   */\n      dup1\n        /* \"--CODEGEN--\":24:62   */\n      returndatacopy\n        /* \"--CODEGEN--\":77:93   */\n      returndatasize\n        /* \"--CODEGEN--\":74:75   */\n      0x00\n        /* \"--CODEGEN--\":67:94   */\n      revert\n        /* \"--CODEGEN--\":5:7   */\n    tag_132:\n        /* \"Verify.sol\":4415:4485  entityStudent.columnValue(schoolAddr, \"diploma\", \"CertificateEndDate\") */\n      pop\n      pop\n      pop\n      pop\n      mload(0x40)\n        /* \"--CODEGEN--\":39:55   */\n      returndatasize\n        /* \"--CODEGEN--\":36:37   */\n      0x00\n        /* \"--CODEGEN--\":17:34   */\n      dup3\n        /* \"--CODEGEN--\":2:56   */\n      returndatacopy\n        /* \"Verify.sol\":4415:4485  entityStudent.columnValue(schoolAddr, \"diploma\", \"CertificateEndDate\") */\n      returndatasize\n        /* \"--CODEGEN--\":101:105   */\n      0x1f\n        /* \"--CODEGEN--\":97:106   */\n      not\n        /* \"--CODEGEN--\":90:94   */\n      0x1f\n        /* \"--CODEGEN--\":84:88   */\n      dup3\n        /* \"--CODEGEN--\":80:95   */\n      add\n        /* \"--CODEGEN--\":76:107   */\n      and\n        /* \"--CODEGEN--\":69:74   */\n      dup3\n        /* \"--CODEGEN--\":65:108   */\n      add\n        /* \"--CODEGEN--\":126:132   */\n      dup1\n        /* \"--CODEGEN--\":120:124   */\n      0x40\n        /* \"--CODEGEN--\":113:133   */\n      mstore\n        /* \"--CODEGEN--\":0:138   */\n      pop\n        /* \"Verify.sol\":4415:4485  entityStudent.columnValue(schoolAddr, \"diploma\", \"CertificateEndDate\") */\n      dup2\n      add\n      swap1\n      tag_133\n      swap2\n      swap1\n      jump(tag_110)\n    tag_133:\n        /* \"Verify.sol\":4402:4414  stringToUint */\n      tag_29\n        /* \"Verify.sol\":4402:4486  stringToUint(entityStudent.columnValue(schoolAddr, \"diploma\", \"CertificateEndDate\")) */\n      jump\t// in\n    tag_127:\n        /* \"Verify.sol\":4390:4486  uint time = stringToUint(entityStudent.columnValue(schoolAddr, \"diploma\", \"CertificateEndDate\")) */\n      swap1\n      pop\n        /* \"Verify.sol\":4514:4518  time */\n      dup1\n        /* \"Verify.sol\":4507:4511  1000 */\n      0x03e8\n        /* \"Verify.sol\":4501:4504  now */\n      timestamp\n        /* \"Verify.sol\":4501:4511  now * 1000 */\n      mul\n        /* \"Verify.sol\":4501:4518  now * 1000 < time */\n      lt\n        /* \"Verify.sol\":4497:4572  if (now * 1000 < time)\r... */\n      iszero\n      tag_134\n      jumpi\n        /* \"Verify.sol\":4540:4544  true */\n      0x01\n        /* \"Verify.sol\":4533:4544  return true */\n      swap3\n      pop\n      pop\n      pop\n      jump(tag_126)\n        /* \"Verify.sol\":4497:4572  if (now * 1000 < time)\r... */\n    tag_134:\n        /* \"Verify.sol\":4567:4572  false */\n      0x00\n        /* \"Verify.sol\":4560:4572  return false */\n      swap3\n      pop\n      pop\n      pop\n        /* \"Verify.sol\":4241:4580  function expired(address studentAddr, address schoolAddr) public view returns (bool) {\r... */\n    tag_126:\n      swap3\n      swap2\n      pop\n      pop\n      jump\t// out\n        /* \"Verify.sol\":711:766  mapping(address => address[]) public schoolOwnedStudent */\n    tag_50:\n      mstore(0x20, 0x06)\n      dup2\n      0x00\n      mstore\n      keccak256(0x00, 0x40)\n      dup2\n      dup2\n      sload\n      dup2\n      lt\n      tag_136\n      jumpi\n      invalid\n    tag_136:\n      swap1\n      0x00\n      mstore\n      keccak256(0x00, 0x20)\n      add\n      0x00\n      swap2\n      pop\n      swap2\n      pop\n      swap1\n      sload\n      swap1\n      0x0100\n      exp\n      swap1\n      div\n      0xffffffffffffffffffffffffffffffffffffffff\n      and\n      dup2\n      jump\t// out\n        /* \"Verify.sol\":1357:1636  function addNewSchool(address schoolAddr, string memory schoolName) public {\r... */\n    tag_56:\n        /* \"Verify.sol\":1443:1466  School memory newSchool */\n      tag_139\n      tag_140\n      jump\t// in\n    tag_139:\n        /* \"Verify.sol\":1469:1556  School({\r... */\n      mload(0x40)\n      dup1\n      0x40\n      add\n      0x40\n      mstore\n      dup1\n        /* \"Verify.sol\":1497:1507  schoolName */\n      dup4\n        /* \"Verify.sol\":1469:1556  School({\r... */\n      dup2\n      mstore\n      0x20\n      add\n        /* \"Verify.sol\":1534:1544  schoolAddr */\n      dup5\n        /* \"Verify.sol\":1469:1556  School({\r... */\n      0xffffffffffffffffffffffffffffffffffffffff\n      and\n      dup2\n      mstore\n      pop\n        /* \"Verify.sol\":1443:1556  School memory newSchool = School({\r... */\n      swap1\n      pop\n        /* \"Verify.sol\":1567:1574  schools */\n      0x00\n        /* \"Verify.sol\":1580:1589  newSchool */\n      dup2\n        /* \"Verify.sol\":1567:1590  schools.push(newSchool) */\n      swap1\n      dup1\n        /* \"--CODEGEN--\":39:40   */\n      0x01\n        /* \"--CODEGEN--\":33:36   */\n      dup2\n        /* \"--CODEGEN--\":27:37   */\n      sload\n        /* \"--CODEGEN--\":23:41   */\n      add\n        /* \"--CODEGEN--\":57:67   */\n      dup1\n        /* \"--CODEGEN--\":52:55   */\n      dup3\n        /* \"--CODEGEN--\":45:68   */\n      sstore\n        /* \"--CODEGEN--\":79:89   */\n      dup1\n        /* \"--CODEGEN--\":72:89   */\n      swap2\n      pop\n        /* \"--CODEGEN--\":0:93   */\n      pop\n        /* \"Verify.sol\":1567:1590  schools.push(newSchool) */\n      0x01\n      swap1\n      sub\n      swap1\n      0x00\n      mstore\n      keccak256(0x00, 0x20)\n      swap1\n      0x02\n      mul\n      add\n      0x00\n      swap1\n      swap2\n      swap1\n      swap2\n      swap1\n      swap2\n      pop\n      0x00\n      dup3\n      add\n      mload\n      dup2\n      0x00\n      add\n      swap1\n      dup1\n      mload\n      swap1\n      0x20\n      add\n      swap1\n      tag_142\n      swap3\n      swap2\n      swap1\n      tag_143\n      jump\t// in\n    tag_142:\n      pop\n      0x20\n      dup3\n      add\n      mload\n      dup2\n      0x01\n      add\n      exp(0x0100, 0x00)\n      dup2\n      sload\n      dup2\n      0xffffffffffffffffffffffffffffffffffffffff\n      mul\n      not\n      and\n      swap1\n      dup4\n      0xffffffffffffffffffffffffffffffffffffffff\n      and\n      mul\n      or\n      swap1\n      sstore\n      pop\n      pop\n      pop\n        /* \"Verify.sol\":1624:1628  true */\n      0x01\n        /* \"Verify.sol\":1601:1609  isSchool */\n      0x03\n        /* \"Verify.sol\":1601:1621  isSchool[schoolAddr] */\n      0x00\n        /* \"Verify.sol\":1610:1620  schoolAddr */\n      dup6\n        /* \"Verify.sol\":1601:1621  isSchool[schoolAddr] */\n      0xffffffffffffffffffffffffffffffffffffffff\n      and\n      0xffffffffffffffffffffffffffffffffffffffff\n      and\n      dup2\n      mstore\n      0x20\n      add\n      swap1\n      dup2\n      mstore\n      0x20\n      add\n      0x00\n      keccak256\n      0x00\n        /* \"Verify.sol\":1601:1628  isSchool[schoolAddr] = true */\n      0x0100\n      exp\n      dup2\n      sload\n      dup2\n      0xff\n      mul\n      not\n      and\n      swap1\n      dup4\n      iszero\n      iszero\n      mul\n      or\n      swap1\n      sstore\n      pop\n        /* \"Verify.sol\":1357:1636  function addNewSchool(address schoolAddr, string memory schoolName) public {\r... */\n      pop\n      pop\n      pop\n      jump\t// out\n        /* \"Verify.sol\":1648:2199  function upload(string memory hashValue, address studentAddr, string memory studentName, string memory graduate) public {\r... */\n    tag_60:\n        /* \"Verify.sol\":1779:1805  Certificate memory newCert */\n      tag_145\n      tag_146\n      jump\t// in\n    tag_145:\n        /* \"Verify.sol\":1808:1974  Certificate ({\r... */\n      mload(0x40)\n      dup1\n      0x80\n      add\n      0x40\n      mstore\n      dup1\n        /* \"Verify.sol\":1842:1853  studentName */\n      dup5\n        /* \"Verify.sol\":1808:1974  Certificate ({\r... */\n      dup2\n      mstore\n      0x20\n      add\n        /* \"Verify.sol\":1881:1892  studentAddr */\n      dup6\n        /* \"Verify.sol\":1808:1974  Certificate ({\r... */\n      0xffffffffffffffffffffffffffffffffffffffff\n      and\n      dup2\n      mstore\n      0x20\n      add\n        /* \"Verify.sol\":1917:1926  hashValue */\n      dup7\n        /* \"Verify.sol\":1808:1974  Certificate ({\r... */\n      dup2\n      mstore\n      0x20\n      add\n        /* \"Verify.sol\":1954:1962  graduate */\n      dup4\n        /* \"Verify.sol\":1808:1974  Certificate ({\r... */\n      dup2\n      mstore\n      pop\n        /* \"Verify.sol\":1779:1974  Certificate memory newCert = Certificate ({\r... */\n      swap1\n      pop\n        /* \"Verify.sol\":2057:2061  true */\n      0x01\n        /* \"Verify.sol\":2034:2043  isOnChain */\n      0x04\n        /* \"Verify.sol\":2044:2053  hashValue */\n      dup7\n        /* \"Verify.sol\":2034:2054  isOnChain[hashValue] */\n      mload(0x40)\n      tag_147\n      swap2\n      swap1\n      jump(tag_114)\n    tag_147:\n      swap1\n      dup2\n      mstore\n      0x20\n      add\n      mload(0x40)\n      dup1\n      swap2\n      sub\n      swap1\n      keccak256\n      0x00\n        /* \"Verify.sol\":2034:2061  isOnChain[hashValue] = true */\n      0x0100\n      exp\n      dup2\n      sload\n      dup2\n      0xff\n      mul\n      not\n      and\n      swap1\n      dup4\n      iszero\n      iszero\n      mul\n      or\n      swap1\n      sstore\n      pop\n        /* \"Verify.sol\":2082:2100  schoolOwnedStudent */\n      0x06\n        /* \"Verify.sol\":2082:2112  schoolOwnedStudent[msg.sender] */\n      0x00\n        /* \"Verify.sol\":2101:2111  msg.sender */\n      caller\n        /* \"Verify.sol\":2082:2112  schoolOwnedStudent[msg.sender] */\n      0xffffffffffffffffffffffffffffffffffffffff\n      and\n      0xffffffffffffffffffffffffffffffffffffffff\n      and\n      dup2\n      mstore\n      0x20\n      add\n      swap1\n      dup2\n      mstore\n      0x20\n      add\n      0x00\n      keccak256\n        /* \"Verify.sol\":2118:2129  studentAddr */\n      dup5\n        /* \"Verify.sol\":2082:2130  schoolOwnedStudent[msg.sender].push(studentAddr) */\n      swap1\n      dup1\n        /* \"--CODEGEN--\":39:40   */\n      0x01\n        /* \"--CODEGEN--\":33:36   */\n      dup2\n        /* \"--CODEGEN--\":27:37   */\n      sload\n        /* \"--CODEGEN--\":23:41   */\n      add\n        /* \"--CODEGEN--\":57:67   */\n      dup1\n        /* \"--CODEGEN--\":52:55   */\n      dup3\n        /* \"--CODEGEN--\":45:68   */\n      sstore\n        /* \"--CODEGEN--\":79:89   */\n      dup1\n        /* \"--CODEGEN--\":72:89   */\n      swap2\n      pop\n        /* \"--CODEGEN--\":0:93   */\n      pop\n        /* \"Verify.sol\":2082:2130  schoolOwnedStudent[msg.sender].push(studentAddr) */\n      0x01\n      swap1\n      sub\n      swap1\n      0x00\n      mstore\n      keccak256(0x00, 0x20)\n      add\n      0x00\n      swap1\n      swap2\n      swap1\n      swap2\n      swap1\n      swap2\n      0x0100\n      exp\n      dup2\n      sload\n      dup2\n      0xffffffffffffffffffffffffffffffffffffffff\n      mul\n      not\n      and\n      swap1\n      dup4\n      0xffffffffffffffffffffffffffffffffffffffff\n      and\n      mul\n      or\n      swap1\n      sstore\n      pop\n        /* \"Verify.sol\":2184:2191  newCert */\n      dup1\n        /* \"Verify.sol\":2141:2156  schoolOwnedCert */\n      0x05\n        /* \"Verify.sol\":2141:2168  schoolOwnedCert[msg.sender] */\n      0x00\n        /* \"Verify.sol\":2157:2167  msg.sender */\n      caller\n        /* \"Verify.sol\":2141:2168  schoolOwnedCert[msg.sender] */\n      0xffffffffffffffffffffffffffffffffffffffff\n      and\n      0xffffffffffffffffffffffffffffffffffffffff\n      and\n      dup2\n      mstore\n      0x20\n      add\n      swap1\n      dup2\n      mstore\n      0x20\n      add\n      0x00\n      keccak256\n        /* \"Verify.sol\":2141:2181  schoolOwnedCert[msg.sender][studentAddr] */\n      0x00\n        /* \"Verify.sol\":2169:2180  studentAddr */\n      dup7\n        /* \"Verify.sol\":2141:2181  schoolOwnedCert[msg.sender][studentAddr] */\n      0xffffffffffffffffffffffffffffffffffffffff\n      and\n      0xffffffffffffffffffffffffffffffffffffffff\n      and\n      dup2\n      mstore\n      0x20\n      add\n      swap1\n      dup2\n      mstore\n      0x20\n      add\n      0x00\n      keccak256\n        /* \"Verify.sol\":2141:2191  schoolOwnedCert[msg.sender][studentAddr] = newCert */\n      0x00\n      dup3\n      add\n      mload\n      dup2\n      0x00\n      add\n      swap1\n      dup1\n      mload\n      swap1\n      0x20\n      add\n      swap1\n      tag_149\n      swap3\n      swap2\n      swap1\n      tag_143\n      jump\t// in\n    tag_149:\n      pop\n      0x20\n      dup3\n      add\n      mload\n      dup2\n      0x01\n      add\n      exp(0x0100, 0x00)\n      dup2\n      sload\n      dup2\n      0xffffffffffffffffffffffffffffffffffffffff\n      mul\n      not\n      and\n      swap1\n      dup4\n      0xffffffffffffffffffffffffffffffffffffffff\n      and\n      mul\n      or\n      swap1\n      sstore\n      pop\n      0x40\n      dup3\n      add\n      mload\n      dup2\n      0x02\n      add\n      swap1\n      dup1\n      mload\n      swap1\n      0x20\n      add\n      swap1\n      tag_150\n      swap3\n      swap2\n      swap1\n      tag_143\n      jump\t// in\n    tag_150:\n      pop\n      0x60\n      dup3\n      add\n      mload\n      dup2\n      0x03\n      add\n      swap1\n      dup1\n      mload\n      swap1\n      0x20\n      add\n      swap1\n      tag_151\n      swap3\n      swap2\n      swap1\n      tag_143\n      jump\t// in\n    tag_151:\n      pop\n      swap1\n      pop\n      pop\n        /* \"Verify.sol\":1648:2199  function upload(string memory hashValue, address studentAddr, string memory studentName, string memory graduate) public {\r... */\n      pop\n      pop\n      pop\n      pop\n      pop\n      jump\t// out\n        /* \"Verify.sol\":3828:4229  function existence(address studentAddr, address schoolAddr) public view returns (bool) {\r... */\n    tag_63:\n        /* \"Verify.sol\":3909:3913  bool */\n      0x00\n        /* \"Verify.sol\":3926:3946  Entity entityStudent */\n      dup1\n        /* \"Verify.sol\":3956:3967  studentAddr */\n      dup4\n        /* \"Verify.sol\":3926:3968  Entity entityStudent = Entity(studentAddr) */\n      swap1\n      pop\n        /* \"Verify.sol\":3979:4006  string memory text_graduate */\n      0x60\n        /* \"Verify.sol\":4009:4022  entityStudent */\n      dup2\n        /* \"Verify.sol\":4009:4034  entityStudent.columnValue */\n      0xffffffffffffffffffffffffffffffffffffffff\n      and\n      0x8cba76b1\n        /* \"Verify.sol\":4035:4045  schoolAddr */\n      dup6\n        /* \"Verify.sol\":4009:4072  entityStudent.columnValue(schoolAddr, \"diploma\", \"isGraduated\") */\n      mload(0x40)\n      dup3\n      0xffffffff\n      and\n      0xe0\n      shl\n      dup2\n      mstore\n      0x04\n      add\n      tag_153\n      swap2\n      swap1\n      jump(tag_154)\n    tag_153:\n      0x00\n      mload(0x40)\n      dup1\n      dup4\n      sub\n      dup2\n      dup7\n      dup1\n      extcodesize\n      iszero\n        /* \"--CODEGEN--\":5:14   */\n      dup1\n        /* \"--CODEGEN--\":2:4   */\n      iszero\n      tag_155\n      jumpi\n        /* \"--CODEGEN--\":27:28   */\n      0x00\n        /* \"--CODEGEN--\":24:25   */\n      dup1\n        /* \"--CODEGEN--\":17:29   */\n      revert\n        /* \"--CODEGEN--\":2:4   */\n    tag_155:\n        /* \"Verify.sol\":4009:4072  entityStudent.columnValue(schoolAddr, \"diploma\", \"isGraduated\") */\n      pop\n      gas\n      staticcall\n      iszero\n        /* \"--CODEGEN--\":8:17   */\n      dup1\n        /* \"--CODEGEN--\":5:7   */\n      iszero\n      tag_157\n      jumpi\n        /* \"--CODEGEN--\":45:61   */\n      returndatasize\n        /* \"--CODEGEN--\":42:43   */\n      0x00\n        /* \"--CODEGEN--\":39:40   */\n      dup1\n        /* \"--CODEGEN--\":24:62   */\n      returndatacopy\n        /* \"--CODEGEN--\":77:93   */\n      returndatasize\n        /* \"--CODEGEN--\":74:75   */\n      0x00\n        /* \"--CODEGEN--\":67:94   */\n      revert\n        /* \"--CODEGEN--\":5:7   */\n    tag_157:\n        /* \"Verify.sol\":4009:4072  entityStudent.columnValue(schoolAddr, \"diploma\", \"isGraduated\") */\n      pop\n      pop\n      pop\n      pop\n      mload(0x40)\n        /* \"--CODEGEN--\":39:55   */\n      returndatasize\n        /* \"--CODEGEN--\":36:37   */\n      0x00\n        /* \"--CODEGEN--\":17:34   */\n      dup3\n        /* \"--CODEGEN--\":2:56   */\n      returndatacopy\n        /* \"Verify.sol\":4009:4072  entityStudent.columnValue(schoolAddr, \"diploma\", \"isGraduated\") */\n      returndatasize\n        /* \"--CODEGEN--\":101:105   */\n      0x1f\n        /* \"--CODEGEN--\":97:106   */\n      not\n        /* \"--CODEGEN--\":90:94   */\n      0x1f\n        /* \"--CODEGEN--\":84:88   */\n      dup3\n        /* \"--CODEGEN--\":80:95   */\n      add\n        /* \"--CODEGEN--\":76:107   */\n      and\n        /* \"--CODEGEN--\":69:74   */\n      dup3\n        /* \"--CODEGEN--\":65:108   */\n      add\n        /* \"--CODEGEN--\":126:132   */\n      dup1\n        /* \"--CODEGEN--\":120:124   */\n      0x40\n        /* \"--CODEGEN--\":113:133   */\n      mstore\n        /* \"--CODEGEN--\":0:138   */\n      pop\n        /* \"Verify.sol\":4009:4072  entityStudent.columnValue(schoolAddr, \"diploma\", \"isGraduated\") */\n      dup2\n      add\n      swap1\n      tag_158\n      swap2\n      swap1\n      jump(tag_110)\n    tag_158:\n        /* \"Verify.sol\":3979:4072  string memory text_graduate = entityStudent.columnValue(schoolAddr, \"diploma\", \"isGraduated\") */\n      swap1\n      pop\n        /* \"Verify.sol\":4143:4166  abi.encodePacked(\"Yes\") */\n      add(0x20, mload(0x40))\n      tag_159\n      swap1\n      jump(tag_112)\n    tag_159:\n      mload(0x40)\n        /* \"--CODEGEN--\":49:53   */\n      0x20\n        /* \"--CODEGEN--\":39:46   */\n      dup2\n        /* \"--CODEGEN--\":30:37   */\n      dup4\n        /* \"--CODEGEN--\":26:47   */\n      sub\n        /* \"--CODEGEN--\":22:54   */\n      sub\n        /* \"--CODEGEN--\":13:20   */\n      dup2\n        /* \"--CODEGEN--\":6:55   */\n      mstore\n        /* \"Verify.sol\":4143:4166  abi.encodePacked(\"Yes\") */\n      swap1\n      0x40\n      mstore\n        /* \"Verify.sol\":4133:4167  keccak256(abi.encodePacked(\"Yes\")) */\n      dup1\n      mload\n      swap1\n      0x20\n      add\n      keccak256\n        /* \"Verify.sol\":4114:4127  text_graduate */\n      dup2\n        /* \"Verify.sol\":4097:4128  abi.encodePacked(text_graduate) */\n      add(0x20, mload(0x40))\n      tag_160\n      swap2\n      swap1\n      jump(tag_114)\n    tag_160:\n      mload(0x40)\n        /* \"--CODEGEN--\":49:53   */\n      0x20\n        /* \"--CODEGEN--\":39:46   */\n      dup2\n        /* \"--CODEGEN--\":30:37   */\n      dup4\n        /* \"--CODEGEN--\":26:47   */\n      sub\n        /* \"--CODEGEN--\":22:54   */\n      sub\n        /* \"--CODEGEN--\":13:20   */\n      dup2\n        /* \"--CODEGEN--\":6:55   */\n      mstore\n        /* \"Verify.sol\":4097:4128  abi.encodePacked(text_graduate) */\n      swap1\n      0x40\n      mstore\n        /* \"Verify.sol\":4087:4129  keccak256(abi.encodePacked(text_graduate)) */\n      dup1\n      mload\n      swap1\n      0x20\n      add\n      keccak256\n        /* \"Verify.sol\":4087:4167  keccak256(abi.encodePacked(text_graduate)) == keccak256(abi.encodePacked(\"Yes\")) */\n      eq\n        /* \"Verify.sol\":4083:4221  if (keccak256(abi.encodePacked(text_graduate)) == keccak256(abi.encodePacked(\"Yes\")))\r... */\n      iszero\n      tag_161\n      jumpi\n        /* \"Verify.sol\":4189:4193  true */\n      0x01\n        /* \"Verify.sol\":4182:4193  return true */\n      swap3\n      pop\n      pop\n      pop\n      jump(tag_152)\n        /* \"Verify.sol\":4083:4221  if (keccak256(abi.encodePacked(text_graduate)) == keccak256(abi.encodePacked(\"Yes\")))\r... */\n    tag_161:\n        /* \"Verify.sol\":4216:4221  false */\n      0x00\n        /* \"Verify.sol\":4209:4221  return false */\n      swap3\n      pop\n      pop\n      pop\n        /* \"Verify.sol\":3828:4229  function existence(address studentAddr, address schoolAddr) public view returns (bool) {\r... */\n    tag_152:\n      swap3\n      swap2\n      pop\n      pop\n      jump\t// out\n        /* \"Verify.sol\":350:373  School[] public schools */\n    tag_68:\n      0x00\n      dup2\n      dup2\n      sload\n      dup2\n      lt\n      tag_163\n      jumpi\n      invalid\n    tag_163:\n      swap1\n      0x00\n      mstore\n      keccak256(0x00, 0x20)\n      swap1\n      0x02\n      mul\n      add\n      0x00\n      swap2\n      pop\n      swap1\n      pop\n      dup1\n      0x00\n      add\n      dup1\n      sload\n      0x01\n      dup2\n      0x01\n      and\n      iszero\n      0x0100\n      mul\n      sub\n      and\n      0x02\n      swap1\n      div\n      dup1\n      0x1f\n      add\n      0x20\n      dup1\n      swap2\n      div\n      mul\n      0x20\n      add\n      mload(0x40)\n      swap1\n      dup2\n      add\n      0x40\n      mstore\n      dup1\n      swap3\n      swap2\n      swap1\n      dup2\n      dup2\n      mstore\n      0x20\n      add\n      dup3\n      dup1\n      sload\n      0x01\n      dup2\n      0x01\n      and\n      iszero\n      0x0100\n      mul\n      sub\n      and\n      0x02\n      swap1\n      div\n      dup1\n      iszero\n      tag_165\n      jumpi\n      dup1\n      0x1f\n      lt\n      tag_166\n      jumpi\n      0x0100\n      dup1\n      dup4\n      sload\n      div\n      mul\n      dup4\n      mstore\n      swap2\n      0x20\n      add\n      swap2\n      jump(tag_165)\n    tag_166:\n      dup3\n      add\n      swap2\n      swap1\n      0x00\n      mstore\n      keccak256(0x00, 0x20)\n      swap1\n    tag_167:\n      dup2\n      sload\n      dup2\n      mstore\n      swap1\n      0x01\n      add\n      swap1\n      0x20\n      add\n      dup1\n      dup4\n      gt\n      tag_167\n      jumpi\n      dup3\n      swap1\n      sub\n      0x1f\n      and\n      dup3\n      add\n      swap2\n    tag_165:\n      pop\n      pop\n      pop\n      pop\n      pop\n      swap1\n      dup1\n      0x01\n      add\n      0x00\n      swap1\n      sload\n      swap1\n      0x0100\n      exp\n      swap1\n      div\n      0xffffffffffffffffffffffffffffffffffffffff\n      and\n      swap1\n      pop\n      dup3\n      jump\t// out\n        /* \"Verify.sol\":5134:5265  function getStudentList(address sender) public view returns (address[] memory) {\r... */\n    tag_73:\n        /* \"Verify.sol\":5195:5211  address[] memory */\n      0x60\n        /* \"Verify.sol\":5231:5249  schoolOwnedStudent */\n      0x06\n        /* \"Verify.sol\":5231:5257  schoolOwnedStudent[sender] */\n      0x00\n        /* \"Verify.sol\":5250:5256  sender */\n      dup4\n        /* \"Verify.sol\":5231:5257  schoolOwnedStudent[sender] */\n      0xffffffffffffffffffffffffffffffffffffffff\n      and\n      0xffffffffffffffffffffffffffffffffffffffff\n      and\n      dup2\n      mstore\n      0x20\n      add\n      swap1\n      dup2\n      mstore\n      0x20\n      add\n      0x00\n      keccak256\n        /* \"Verify.sol\":5224:5257  return schoolOwnedStudent[sender] */\n      dup1\n      sload\n      dup1\n      0x20\n      mul\n      0x20\n      add\n      mload(0x40)\n      swap1\n      dup2\n      add\n      0x40\n      mstore\n      dup1\n      swap3\n      swap2\n      swap1\n      dup2\n      dup2\n      mstore\n      0x20\n      add\n      dup3\n      dup1\n      sload\n      dup1\n      iszero\n      tag_169\n      jumpi\n      0x20\n      mul\n      dup3\n      add\n      swap2\n      swap1\n      0x00\n      mstore\n      keccak256(0x00, 0x20)\n      swap1\n    tag_170:\n      dup2\n      0x00\n      swap1\n      sload\n      swap1\n      0x0100\n      exp\n      swap1\n      div\n      0xffffffffffffffffffffffffffffffffffffffff\n      and\n      0xffffffffffffffffffffffffffffffffffffffff\n      and\n      dup2\n      mstore\n      0x20\n      add\n      swap1\n      0x01\n      add\n      swap1\n      dup1\n      dup4\n      gt\n      tag_170\n      jumpi\n    tag_169:\n      pop\n      pop\n      pop\n      pop\n      pop\n      swap1\n      pop\n        /* \"Verify.sol\":5134:5265  function getStudentList(address sender) public view returns (address[] memory) {\r... */\n      swap2\n      swap1\n      pop\n      jump\t// out\n        /* \"Verify.sol\":4592:4870  function getIPFS(address studentAddr, address schoolAddr) public view returns (string memory){\r... */\n    tag_78:\n        /* \"Verify.sol\":4671:4684  string memory */\n      0x60\n        /* \"Verify.sol\":4696:4716  Entity entityStudent */\n      0x00\n        /* \"Verify.sol\":4726:4737  studentAddr */\n      dup4\n        /* \"Verify.sol\":4696:4738  Entity entityStudent = Entity(studentAddr) */\n      swap1\n      pop\n        /* \"Verify.sol\":4749:4772  string memory text_IPFS */\n      0x60\n        /* \"Verify.sol\":4775:4788  entityStudent */\n      dup2\n        /* \"Verify.sol\":4775:4800  entityStudent.columnValue */\n      0xffffffffffffffffffffffffffffffffffffffff\n      and\n      0x8cba76b1\n        /* \"Verify.sol\":4801:4811  schoolAddr */\n      dup6\n        /* \"Verify.sol\":4775:4835  entityStudent.columnValue(schoolAddr, \"diploma\", \"IPFShash\") */\n      mload(0x40)\n      dup3\n      0xffffffff\n      and\n      0xe0\n      shl\n      dup2\n      mstore\n      0x04\n      add\n      tag_172\n      swap2\n      swap1\n      jump(tag_173)\n    tag_172:\n      0x00\n      mload(0x40)\n      dup1\n      dup4\n      sub\n      dup2\n      dup7\n      dup1\n      extcodesize\n      iszero\n        /* \"--CODEGEN--\":5:14   */\n      dup1\n        /* \"--CODEGEN--\":2:4   */\n      iszero\n      tag_174\n      jumpi\n        /* \"--CODEGEN--\":27:28   */\n      0x00\n        /* \"--CODEGEN--\":24:25   */\n      dup1\n        /* \"--CODEGEN--\":17:29   */\n      revert\n        /* \"--CODEGEN--\":2:4   */\n    tag_174:\n        /* \"Verify.sol\":4775:4835  entityStudent.columnValue(schoolAddr, \"diploma\", \"IPFShash\") */\n      pop\n      gas\n      staticcall\n      iszero\n        /* \"--CODEGEN--\":8:17   */\n      dup1\n        /* \"--CODEGEN--\":5:7   */\n      iszero\n      tag_176\n      jumpi\n        /* \"--CODEGEN--\":45:61   */\n      returndatasize\n        /* \"--CODEGEN--\":42:43   */\n      0x00\n        /* \"--CODEGEN--\":39:40   */\n      dup1\n        /* \"--CODEGEN--\":24:62   */\n      returndatacopy\n        /* \"--CODEGEN--\":77:93   */\n      returndatasize\n        /* \"--CODEGEN--\":74:75   */\n      0x00\n        /* \"--CODEGEN--\":67:94   */\n      revert\n        /* \"--CODEGEN--\":5:7   */\n    tag_176:\n        /* \"Verify.sol\":4775:4835  entityStudent.columnValue(schoolAddr, \"diploma\", \"IPFShash\") */\n      pop\n      pop\n      pop\n      pop\n      mload(0x40)\n        /* \"--CODEGEN--\":39:55   */\n      returndatasize\n        /* \"--CODEGEN--\":36:37   */\n      0x00\n        /* \"--CODEGEN--\":17:34   */\n      dup3\n        /* \"--CODEGEN--\":2:56   */\n      returndatacopy\n        /* \"Verify.sol\":4775:4835  entityStudent.columnValue(schoolAddr, \"diploma\", \"IPFShash\") */\n      returndatasize\n        /* \"--CODEGEN--\":101:105   */\n      0x1f\n        /* \"--CODEGEN--\":97:106   */\n      not\n        /* \"--CODEGEN--\":90:94   */\n      0x1f\n        /* \"--CODEGEN--\":84:88   */\n      dup3\n        /* \"--CODEGEN--\":80:95   */\n      add\n        /* \"--CODEGEN--\":76:107   */\n      and\n        /* \"--CODEGEN--\":69:74   */\n      dup3\n        /* \"--CODEGEN--\":65:108   */\n      add\n        /* \"--CODEGEN--\":126:132   */\n      dup1\n        /* \"--CODEGEN--\":120:124   */\n      0x40\n        /* \"--CODEGEN--\":113:133   */\n      mstore\n        /* \"--CODEGEN--\":0:138   */\n      pop\n        /* \"Verify.sol\":4775:4835  entityStudent.columnValue(schoolAddr, \"diploma\", \"IPFShash\") */\n      dup2\n      add\n      swap1\n      tag_177\n      swap2\n      swap1\n      jump(tag_110)\n    tag_177:\n        /* \"Verify.sol\":4749:4835  string memory text_IPFS = entityStudent.columnValue(schoolAddr, \"diploma\", \"IPFShash\") */\n      swap1\n      pop\n        /* \"Verify.sol\":4853:4862  text_IPFS */\n      dup1\n        /* \"Verify.sol\":4846:4862  return text_IPFS */\n      swap3\n      pop\n      pop\n      pop\n        /* \"Verify.sol\":4592:4870  function getIPFS(address studentAddr, address schoolAddr) public view returns (string memory){\r... */\n      swap3\n      swap2\n      pop\n      pop\n      jump\t// out\n        /* \"Verify.sol\":4991:5122  function getDeployedCerts(address sender) public view returns (uint256) {\r... */\n    tag_83:\n        /* \"Verify.sol\":5054:5061  uint256 */\n      0x00\n        /* \"Verify.sol\":5081:5099  schoolOwnedStudent */\n      0x06\n        /* \"Verify.sol\":5081:5107  schoolOwnedStudent[sender] */\n      0x00\n        /* \"Verify.sol\":5100:5106  sender */\n      dup4\n        /* \"Verify.sol\":5081:5107  schoolOwnedStudent[sender] */\n      0xffffffffffffffffffffffffffffffffffffffff\n      and\n      0xffffffffffffffffffffffffffffffffffffffff\n      and\n      dup2\n      mstore\n      0x20\n      add\n      swap1\n      dup2\n      mstore\n      0x20\n      add\n      0x00\n      keccak256\n        /* \"Verify.sol\":5081:5114  schoolOwnedStudent[sender].length */\n      dup1\n      sload\n      swap1\n      pop\n        /* \"Verify.sol\":5074:5114  return schoolOwnedStudent[sender].length */\n      swap1\n      pop\n        /* \"Verify.sol\":4991:5122  function getDeployedCerts(address sender) public view returns (uint256) {\r... */\n      swap2\n      swap1\n      pop\n      jump\t// out\n        /* \"Verify.sol\":3031:3419  function ministryLogin(address ministryAddr) public view returns (bool) {\r... */\n    tag_87:\n        /* \"Verify.sol\":3097:3101  bool */\n      0x00\n        /* \"Verify.sol\":3114:3135  Entity entityMinistry */\n      dup1\n        /* \"Verify.sol\":3145:3157  ministryAddr */\n      dup3\n        /* \"Verify.sol\":3114:3158  Entity entityMinistry = Entity(ministryAddr) */\n      swap1\n      pop\n        /* \"Verify.sol\":3169:3187  string memory text */\n      0x60\n        /* \"Verify.sol\":3190:3204  entityMinistry */\n      dup2\n        /* \"Verify.sol\":3190:3216  entityMinistry.columnValue */\n      0xffffffffffffffffffffffffffffffffffffffff\n      and\n      0x8cba76b1\n        /* \"Verify.sol\":3217:3231  ministryEntity */\n      0x02\n      0x00\n      swap1\n      sload\n      swap1\n      0x0100\n      exp\n      swap1\n      div\n      0xffffffffffffffffffffffffffffffffffffffff\n      and\n        /* \"Verify.sol\":3190:3261  entityMinistry.columnValue(ministryEntity, \"certificate\", \"isMinistry\") */\n      mload(0x40)\n      dup3\n      0xffffffff\n      and\n      0xe0\n      shl\n      dup2\n      mstore\n      0x04\n      add\n      tag_180\n      swap2\n      swap1\n      jump(tag_181)\n    tag_180:\n      0x00\n      mload(0x40)\n      dup1\n      dup4\n      sub\n      dup2\n      dup7\n      dup1\n      extcodesize\n      iszero\n        /* \"--CODEGEN--\":5:14   */\n      dup1\n        /* \"--CODEGEN--\":2:4   */\n      iszero\n      tag_182\n      jumpi\n        /* \"--CODEGEN--\":27:28   */\n      0x00\n        /* \"--CODEGEN--\":24:25   */\n      dup1\n        /* \"--CODEGEN--\":17:29   */\n      revert\n        /* \"--CODEGEN--\":2:4   */\n    tag_182:\n        /* \"Verify.sol\":3190:3261  entityMinistry.columnValue(ministryEntity, \"certificate\", \"isMinistry\") */\n      pop\n      gas\n      staticcall\n      iszero\n        /* \"--CODEGEN--\":8:17   */\n      dup1\n        /* \"--CODEGEN--\":5:7   */\n      iszero\n      tag_184\n      jumpi\n        /* \"--CODEGEN--\":45:61   */\n      returndatasize\n        /* \"--CODEGEN--\":42:43   */\n      0x00\n        /* \"--CODEGEN--\":39:40   */\n      dup1\n        /* \"--CODEGEN--\":24:62   */\n      returndatacopy\n        /* \"--CODEGEN--\":77:93   */\n      returndatasize\n        /* \"--CODEGEN--\":74:75   */\n      0x00\n        /* \"--CODEGEN--\":67:94   */\n      revert\n        /* \"--CODEGEN--\":5:7   */\n    tag_184:\n        /* \"Verify.sol\":3190:3261  entityMinistry.columnValue(ministryEntity, \"certificate\", \"isMinistry\") */\n      pop\n      pop\n      pop\n      pop\n      mload(0x40)\n        /* \"--CODEGEN--\":39:55   */\n      returndatasize\n        /* \"--CODEGEN--\":36:37   */\n      0x00\n        /* \"--CODEGEN--\":17:34   */\n      dup3\n        /* \"--CODEGEN--\":2:56   */\n      returndatacopy\n        /* \"Verify.sol\":3190:3261  entityMinistry.columnValue(ministryEntity, \"certificate\", \"isMinistry\") */\n      returndatasize\n        /* \"--CODEGEN--\":101:105   */\n      0x1f\n        /* \"--CODEGEN--\":97:106   */\n      not\n        /* \"--CODEGEN--\":90:94   */\n      0x1f\n        /* \"--CODEGEN--\":84:88   */\n      dup3\n        /* \"--CODEGEN--\":80:95   */\n      add\n        /* \"--CODEGEN--\":76:107   */\n      and\n        /* \"--CODEGEN--\":69:74   */\n      dup3\n        /* \"--CODEGEN--\":65:108   */\n      add\n        /* \"--CODEGEN--\":126:132   */\n      dup1\n        /* \"--CODEGEN--\":120:124   */\n      0x40\n        /* \"--CODEGEN--\":113:133   */\n      mstore\n        /* \"--CODEGEN--\":0:138   */\n      pop\n        /* \"Verify.sol\":3190:3261  entityMinistry.columnValue(ministryEntity, \"certificate\", \"isMinistry\") */\n      dup2\n      add\n      swap1\n      tag_185\n      swap2\n      swap1\n      jump(tag_110)\n    tag_185:\n        /* \"Verify.sol\":3169:3261  string memory text = entityMinistry.columnValue(ministryEntity, \"certificate\", \"isMinistry\") */\n      swap1\n      pop\n        /* \"Verify.sol\":3328:3351  abi.encodePacked(\"Yes\") */\n      add(0x20, mload(0x40))\n      tag_186\n      swap1\n      jump(tag_112)\n    tag_186:\n      mload(0x40)\n        /* \"--CODEGEN--\":49:53   */\n      0x20\n        /* \"--CODEGEN--\":39:46   */\n      dup2\n        /* \"--CODEGEN--\":30:37   */\n      dup4\n        /* \"--CODEGEN--\":26:47   */\n      sub\n        /* \"--CODEGEN--\":22:54   */\n      sub\n        /* \"--CODEGEN--\":13:20   */\n      dup2\n        /* \"--CODEGEN--\":6:55   */\n      mstore\n        /* \"Verify.sol\":3328:3351  abi.encodePacked(\"Yes\") */\n      swap1\n      0x40\n      mstore\n        /* \"Verify.sol\":3318:3352  keccak256(abi.encodePacked(\"Yes\")) */\n      dup1\n      mload\n      swap1\n      0x20\n      add\n      keccak256\n        /* \"Verify.sol\":3308:3312  text */\n      dup2\n        /* \"Verify.sol\":3291:3313  abi.encodePacked(text) */\n      add(0x20, mload(0x40))\n      tag_187\n      swap2\n      swap1\n      jump(tag_114)\n    tag_187:\n      mload(0x40)\n        /* \"--CODEGEN--\":49:53   */\n      0x20\n        /* \"--CODEGEN--\":39:46   */\n      dup2\n        /* \"--CODEGEN--\":30:37   */\n      dup4\n        /* \"--CODEGEN--\":26:47   */\n      sub\n        /* \"--CODEGEN--\":22:54   */\n      sub\n        /* \"--CODEGEN--\":13:20   */\n      dup2\n        /* \"--CODEGEN--\":6:55   */\n      mstore\n        /* \"Verify.sol\":3291:3313  abi.encodePacked(text) */\n      swap1\n      0x40\n      mstore\n        /* \"Verify.sol\":3281:3314  keccak256(abi.encodePacked(text)) */\n      dup1\n      mload\n      swap1\n      0x20\n      add\n      keccak256\n        /* \"Verify.sol\":3281:3352  keccak256(abi.encodePacked(text)) == keccak256(abi.encodePacked(\"Yes\")) */\n      eq\n        /* \"Verify.sol\":3272:3353  require (keccak256(abi.encodePacked(text)) == keccak256(abi.encodePacked(\"Yes\"))) */\n      tag_188\n      jumpi\n        /* \"--CODEGEN--\":12:13   */\n      0x00\n        /* \"--CODEGEN--\":9:10   */\n      dup1\n        /* \"--CODEGEN--\":2:14   */\n      revert\n        /* \"Verify.sol\":3272:3353  require (keccak256(abi.encodePacked(text)) == keccak256(abi.encodePacked(\"Yes\"))) */\n    tag_188:\n        /* \"Verify.sol\":3031:3419  function ministryLogin(address ministryAddr) public view returns (bool) {\r... */\n      pop\n      pop\n      swap2\n      swap1\n      pop\n      jump\t// out\n        /* \"Verify.sol\":463:537  address public ministryEntity = 0x82909e8eC9EC085540bC0c7Ea5f3BA1fD9425Fa6 */\n    tag_90:\n      0x02\n      0x00\n      swap1\n      sload\n      swap1\n      0x0100\n      exp\n      swap1\n      div\n      0xffffffffffffffffffffffffffffffffffffffff\n      and\n      dup2\n      jump\t// out\n        /* \"Verify.sol\":422:456  address public MinistryofEducation */\n    tag_93:\n      0x01\n      0x00\n      swap1\n      sload\n      swap1\n      0x0100\n      exp\n      swap1\n      div\n      0xffffffffffffffffffffffffffffffffffffffff\n      and\n      dup2\n      jump\t// out\n        /* \"Verify.sol\":96:5268  contract Verify {\r... */\n    tag_140:\n      mload(0x40)\n      dup1\n      0x40\n      add\n      0x40\n      mstore\n      dup1\n      0x60\n      dup2\n      mstore\n      0x20\n      add\n      and(0xffffffffffffffffffffffffffffffffffffffff, 0x00)\n      dup2\n      mstore\n      pop\n      swap1\n      jump\t// out\n    tag_143:\n      dup3\n      dup1\n      sload\n      0x01\n      dup2\n      0x01\n      and\n      iszero\n      0x0100\n      mul\n      sub\n      and\n      0x02\n      swap1\n      div\n      swap1\n      0x00\n      mstore\n      keccak256(0x00, 0x20)\n      swap1\n      0x1f\n      add\n      0x20\n      swap1\n      div\n      dup2\n      add\n      swap3\n      dup3\n      0x1f\n      lt\n      tag_190\n      jumpi\n      dup1\n      mload\n      not(0xff)\n      and\n      dup4\n      dup1\n      add\n      or\n      dup6\n      sstore\n      jump(tag_189)\n    tag_190:\n      dup3\n      dup1\n      add\n      0x01\n      add\n      dup6\n      sstore\n      dup3\n      iszero\n      tag_189\n      jumpi\n      swap2\n      dup3\n      add\n    tag_191:\n      dup3\n      dup2\n      gt\n      iszero\n      tag_192\n      jumpi\n      dup3\n      mload\n      dup3\n      sstore\n      swap2\n      0x20\n      add\n      swap2\n      swap1\n      0x01\n      add\n      swap1\n      jump(tag_191)\n    tag_192:\n    tag_189:\n      pop\n      swap1\n      pop\n      tag_193\n      swap2\n      swap1\n      tag_194\n      jump\t// in\n    tag_193:\n      pop\n      swap1\n      jump\t// out\n    tag_146:\n      mload(0x40)\n      dup1\n      0x80\n      add\n      0x40\n      mstore\n      dup1\n      0x60\n      dup2\n      mstore\n      0x20\n      add\n      and(0xffffffffffffffffffffffffffffffffffffffff, 0x00)\n      dup2\n      mstore\n      0x20\n      add\n      0x60\n      dup2\n      mstore\n      0x20\n      add\n      0x60\n      dup2\n      mstore\n      pop\n      swap1\n      jump\t// out\n    tag_194:\n      tag_195\n      swap2\n      swap1\n    tag_196:\n      dup1\n      dup3\n      gt\n      iszero\n      tag_197\n      jumpi\n      0x00\n      dup2\n      0x00\n      swap1\n      sstore\n      pop\n      0x01\n      add\n      jump(tag_196)\n    tag_197:\n      pop\n      swap1\n      jump\n    tag_195:\n      swap1\n      jump\t// out\n        /* \"--CODEGEN--\":5:135   */\n    tag_199:\n      0x00\n        /* \"--CODEGEN--\":85:91   */\n      dup2\n        /* \"--CODEGEN--\":72:92   */\n      calldataload\n        /* \"--CODEGEN--\":63:92   */\n      swap1\n      pop\n        /* \"--CODEGEN--\":97:130   */\n      tag_201\n        /* \"--CODEGEN--\":124:129   */\n      dup2\n        /* \"--CODEGEN--\":97:130   */\n      jump(tag_202)\n    tag_201:\n        /* \"--CODEGEN--\":57:135   */\n      swap3\n      swap2\n      pop\n      pop\n      jump\n        /* \"--CODEGEN--\":143:585   */\n    tag_203:\n      0x00\n        /* \"--CODEGEN--\":245:248   */\n      dup3\n        /* \"--CODEGEN--\":238:242   */\n      0x1f\n        /* \"--CODEGEN--\":230:236   */\n      dup4\n        /* \"--CODEGEN--\":226:243   */\n      add\n        /* \"--CODEGEN--\":222:249   */\n      slt\n        /* \"--CODEGEN--\":212:214   */\n      tag_205\n      jumpi\n        /* \"--CODEGEN--\":263:264   */\n      0x00\n        /* \"--CODEGEN--\":260:261   */\n      dup1\n        /* \"--CODEGEN--\":253:265   */\n      revert\n        /* \"--CODEGEN--\":212:214   */\n    tag_205:\n        /* \"--CODEGEN--\":300:306   */\n      dup2\n        /* \"--CODEGEN--\":287:307   */\n      calldataload\n        /* \"--CODEGEN--\":322:387   */\n      tag_206\n        /* \"--CODEGEN--\":337:386   */\n      tag_207\n        /* \"--CODEGEN--\":379:385   */\n      dup3\n        /* \"--CODEGEN--\":337:386   */\n      jump(tag_208)\n    tag_207:\n        /* \"--CODEGEN--\":322:387   */\n      jump(tag_209)\n    tag_206:\n        /* \"--CODEGEN--\":313:387   */\n      swap2\n      pop\n        /* \"--CODEGEN--\":407:413   */\n      dup1\n        /* \"--CODEGEN--\":400:405   */\n      dup3\n        /* \"--CODEGEN--\":393:414   */\n      mstore\n        /* \"--CODEGEN--\":443:447   */\n      0x20\n        /* \"--CODEGEN--\":435:441   */\n      dup4\n        /* \"--CODEGEN--\":431:448   */\n      add\n        /* \"--CODEGEN--\":476:480   */\n      0x20\n        /* \"--CODEGEN--\":469:474   */\n      dup4\n        /* \"--CODEGEN--\":465:481   */\n      add\n        /* \"--CODEGEN--\":511:514   */\n      dup6\n        /* \"--CODEGEN--\":502:508   */\n      dup4\n        /* \"--CODEGEN--\":497:500   */\n      dup4\n        /* \"--CODEGEN--\":493:509   */\n      add\n        /* \"--CODEGEN--\":490:515   */\n      gt\n        /* \"--CODEGEN--\":487:489   */\n      iszero\n      tag_210\n      jumpi\n        /* \"--CODEGEN--\":528:529   */\n      0x00\n        /* \"--CODEGEN--\":525:526   */\n      dup1\n        /* \"--CODEGEN--\":518:530   */\n      revert\n        /* \"--CODEGEN--\":487:489   */\n    tag_210:\n        /* \"--CODEGEN--\":538:579   */\n      tag_211\n        /* \"--CODEGEN--\":572:578   */\n      dup4\n        /* \"--CODEGEN--\":567:570   */\n      dup3\n        /* \"--CODEGEN--\":562:565   */\n      dup5\n        /* \"--CODEGEN--\":538:579   */\n      jump(tag_212)\n    tag_211:\n        /* \"--CODEGEN--\":205:585   */\n      pop\n      pop\n      pop\n      swap3\n      swap2\n      pop\n      pop\n      jump\n        /* \"--CODEGEN--\":594:1038   */\n    tag_213:\n      0x00\n        /* \"--CODEGEN--\":707:710   */\n      dup3\n        /* \"--CODEGEN--\":700:704   */\n      0x1f\n        /* \"--CODEGEN--\":692:698   */\n      dup4\n        /* \"--CODEGEN--\":688:705   */\n      add\n        /* \"--CODEGEN--\":684:711   */\n      slt\n        /* \"--CODEGEN--\":674:676   */\n      tag_215\n      jumpi\n        /* \"--CODEGEN--\":725:726   */\n      0x00\n        /* \"--CODEGEN--\":722:723   */\n      dup1\n        /* \"--CODEGEN--\":715:727   */\n      revert\n        /* \"--CODEGEN--\":674:676   */\n    tag_215:\n        /* \"--CODEGEN--\":755:761   */\n      dup2\n        /* \"--CODEGEN--\":749:762   */\n      mload\n        /* \"--CODEGEN--\":777:842   */\n      tag_216\n        /* \"--CODEGEN--\":792:841   */\n      tag_217\n        /* \"--CODEGEN--\":834:840   */\n      dup3\n        /* \"--CODEGEN--\":792:841   */\n      jump(tag_208)\n    tag_217:\n        /* \"--CODEGEN--\":777:842   */\n      jump(tag_209)\n    tag_216:\n        /* \"--CODEGEN--\":768:842   */\n      swap2\n      pop\n        /* \"--CODEGEN--\":862:868   */\n      dup1\n        /* \"--CODEGEN--\":855:860   */\n      dup3\n        /* \"--CODEGEN--\":848:869   */\n      mstore\n        /* \"--CODEGEN--\":898:902   */\n      0x20\n        /* \"--CODEGEN--\":890:896   */\n      dup4\n        /* \"--CODEGEN--\":886:903   */\n      add\n        /* \"--CODEGEN--\":931:935   */\n      0x20\n        /* \"--CODEGEN--\":924:929   */\n      dup4\n        /* \"--CODEGEN--\":920:936   */\n      add\n        /* \"--CODEGEN--\":966:969   */\n      dup6\n        /* \"--CODEGEN--\":957:963   */\n      dup4\n        /* \"--CODEGEN--\":952:955   */\n      dup4\n        /* \"--CODEGEN--\":948:964   */\n      add\n        /* \"--CODEGEN--\":945:970   */\n      gt\n        /* \"--CODEGEN--\":942:944   */\n      iszero\n      tag_218\n      jumpi\n        /* \"--CODEGEN--\":983:984   */\n      0x00\n        /* \"--CODEGEN--\":980:981   */\n      dup1\n        /* \"--CODEGEN--\":973:985   */\n      revert\n        /* \"--CODEGEN--\":942:944   */\n    tag_218:\n        /* \"--CODEGEN--\":993:1032   */\n      tag_219\n        /* \"--CODEGEN--\":1025:1031   */\n      dup4\n        /* \"--CODEGEN--\":1020:1023   */\n      dup3\n        /* \"--CODEGEN--\":1015:1018   */\n      dup5\n        /* \"--CODEGEN--\":993:1032   */\n      jump(tag_220)\n    tag_219:\n        /* \"--CODEGEN--\":667:1038   */\n      pop\n      pop\n      pop\n      swap3\n      swap2\n      pop\n      pop\n      jump\n        /* \"--CODEGEN--\":1046:1176   */\n    tag_221:\n      0x00\n        /* \"--CODEGEN--\":1126:1132   */\n      dup2\n        /* \"--CODEGEN--\":1113:1133   */\n      calldataload\n        /* \"--CODEGEN--\":1104:1133   */\n      swap1\n      pop\n        /* \"--CODEGEN--\":1138:1171   */\n      tag_223\n        /* \"--CODEGEN--\":1165:1170   */\n      dup2\n        /* \"--CODEGEN--\":1138:1171   */\n      jump(tag_224)\n    tag_223:\n        /* \"--CODEGEN--\":1098:1176   */\n      swap3\n      swap2\n      pop\n      pop\n      jump\n        /* \"--CODEGEN--\":1183:1424   */\n    tag_33:\n      0x00\n        /* \"--CODEGEN--\":1287:1289   */\n      0x20\n        /* \"--CODEGEN--\":1275:1284   */\n      dup3\n        /* \"--CODEGEN--\":1266:1273   */\n      dup5\n        /* \"--CODEGEN--\":1262:1285   */\n      sub\n        /* \"--CODEGEN--\":1258:1290   */\n      slt\n        /* \"--CODEGEN--\":1255:1257   */\n      iszero\n      tag_226\n      jumpi\n        /* \"--CODEGEN--\":1303:1304   */\n      0x00\n        /* \"--CODEGEN--\":1300:1301   */\n      dup1\n        /* \"--CODEGEN--\":1293:1305   */\n      revert\n        /* \"--CODEGEN--\":1255:1257   */\n    tag_226:\n        /* \"--CODEGEN--\":1338:1339   */\n      0x00\n        /* \"--CODEGEN--\":1355:1408   */\n      tag_227\n        /* \"--CODEGEN--\":1400:1407   */\n      dup5\n        /* \"--CODEGEN--\":1391:1397   */\n      dup3\n        /* \"--CODEGEN--\":1380:1389   */\n      dup6\n        /* \"--CODEGEN--\":1376:1398   */\n      add\n        /* \"--CODEGEN--\":1355:1408   */\n      jump(tag_199)\n    tag_227:\n        /* \"--CODEGEN--\":1345:1408   */\n      swap2\n      pop\n        /* \"--CODEGEN--\":1317:1414   */\n      pop\n        /* \"--CODEGEN--\":1249:1424   */\n      swap3\n      swap2\n      pop\n      pop\n      jump\n        /* \"--CODEGEN--\":1431:1797   */\n    tag_39:\n      0x00\n      dup1\n        /* \"--CODEGEN--\":1552:1554   */\n      0x40\n        /* \"--CODEGEN--\":1540:1549   */\n      dup4\n        /* \"--CODEGEN--\":1531:1538   */\n      dup6\n        /* \"--CODEGEN--\":1527:1550   */\n      sub\n        /* \"--CODEGEN--\":1523:1555   */\n      slt\n        /* \"--CODEGEN--\":1520:1522   */\n      iszero\n      tag_229\n      jumpi\n        /* \"--CODEGEN--\":1568:1569   */\n      0x00\n        /* \"--CODEGEN--\":1565:1566   */\n      dup1\n        /* \"--CODEGEN--\":1558:1570   */\n      revert\n        /* \"--CODEGEN--\":1520:1522   */\n    tag_229:\n        /* \"--CODEGEN--\":1603:1604   */\n      0x00\n        /* \"--CODEGEN--\":1620:1673   */\n      tag_230\n        /* \"--CODEGEN--\":1665:1672   */\n      dup6\n        /* \"--CODEGEN--\":1656:1662   */\n      dup3\n        /* \"--CODEGEN--\":1645:1654   */\n      dup7\n        /* \"--CODEGEN--\":1641:1663   */\n      add\n        /* \"--CODEGEN--\":1620:1673   */\n      jump(tag_199)\n    tag_230:\n        /* \"--CODEGEN--\":1610:1673   */\n      swap3\n      pop\n        /* \"--CODEGEN--\":1582:1679   */\n      pop\n        /* \"--CODEGEN--\":1710:1712   */\n      0x20\n        /* \"--CODEGEN--\":1728:1781   */\n      tag_231\n        /* \"--CODEGEN--\":1773:1780   */\n      dup6\n        /* \"--CODEGEN--\":1764:1770   */\n      dup3\n        /* \"--CODEGEN--\":1753:1762   */\n      dup7\n        /* \"--CODEGEN--\":1749:1771   */\n      add\n        /* \"--CODEGEN--\":1728:1781   */\n      jump(tag_199)\n    tag_231:\n        /* \"--CODEGEN--\":1718:1781   */\n      swap2\n      pop\n        /* \"--CODEGEN--\":1689:1787   */\n      pop\n        /* \"--CODEGEN--\":1514:1797   */\n      swap3\n      pop\n      swap3\n      swap1\n      pop\n      jump\n        /* \"--CODEGEN--\":1804:2276   */\n    tag_55:\n      0x00\n      dup1\n        /* \"--CODEGEN--\":1935:1937   */\n      0x40\n        /* \"--CODEGEN--\":1923:1932   */\n      dup4\n        /* \"--CODEGEN--\":1914:1921   */\n      dup6\n        /* \"--CODEGEN--\":1910:1933   */\n      sub\n        /* \"--CODEGEN--\":1906:1938   */\n      slt\n        /* \"--CODEGEN--\":1903:1905   */\n      iszero\n      tag_233\n      jumpi\n        /* \"--CODEGEN--\":1951:1952   */\n      0x00\n        /* \"--CODEGEN--\":1948:1949   */\n      dup1\n        /* \"--CODEGEN--\":1941:1953   */\n      revert\n        /* \"--CODEGEN--\":1903:1905   */\n    tag_233:\n        /* \"--CODEGEN--\":1986:1987   */\n      0x00\n        /* \"--CODEGEN--\":2003:2056   */\n      tag_234\n        /* \"--CODEGEN--\":2048:2055   */\n      dup6\n        /* \"--CODEGEN--\":2039:2045   */\n      dup3\n        /* \"--CODEGEN--\":2028:2037   */\n      dup7\n        /* \"--CODEGEN--\":2024:2046   */\n      add\n        /* \"--CODEGEN--\":2003:2056   */\n      jump(tag_199)\n    tag_234:\n        /* \"--CODEGEN--\":1993:2056   */\n      swap3\n      pop\n        /* \"--CODEGEN--\":1965:2062   */\n      pop\n        /* \"--CODEGEN--\":2121:2123   */\n      0x20\n        /* \"--CODEGEN--\":2110:2119   */\n      dup4\n        /* \"--CODEGEN--\":2106:2124   */\n      add\n        /* \"--CODEGEN--\":2093:2125   */\n      calldataload\n        /* \"--CODEGEN--\":2145:2163   */\n      0xffffffffffffffff\n        /* \"--CODEGEN--\":2137:2143   */\n      dup2\n        /* \"--CODEGEN--\":2134:2164   */\n      gt\n        /* \"--CODEGEN--\":2131:2133   */\n      iszero\n      tag_235\n      jumpi\n        /* \"--CODEGEN--\":2177:2178   */\n      0x00\n        /* \"--CODEGEN--\":2174:2175   */\n      dup1\n        /* \"--CODEGEN--\":2167:2179   */\n      revert\n        /* \"--CODEGEN--\":2131:2133   */\n    tag_235:\n        /* \"--CODEGEN--\":2197:2260   */\n      tag_236\n        /* \"--CODEGEN--\":2252:2259   */\n      dup6\n        /* \"--CODEGEN--\":2243:2249   */\n      dup3\n        /* \"--CODEGEN--\":2232:2241   */\n      dup7\n        /* \"--CODEGEN--\":2228:2250   */\n      add\n        /* \"--CODEGEN--\":2197:2260   */\n      jump(tag_203)\n    tag_236:\n        /* \"--CODEGEN--\":2187:2260   */\n      swap2\n      pop\n        /* \"--CODEGEN--\":2072:2266   */\n      pop\n        /* \"--CODEGEN--\":1897:2276   */\n      swap3\n      pop\n      swap3\n      swap1\n      pop\n      jump\n        /* \"--CODEGEN--\":2283:2649   */\n    tag_49:\n      0x00\n      dup1\n        /* \"--CODEGEN--\":2404:2406   */\n      0x40\n        /* \"--CODEGEN--\":2392:2401   */\n      dup4\n        /* \"--CODEGEN--\":2383:2390   */\n      dup6\n        /* \"--CODEGEN--\":2379:2402   */\n      sub\n        /* \"--CODEGEN--\":2375:2407   */\n      slt\n        /* \"--CODEGEN--\":2372:2374   */\n      iszero\n      tag_238\n      jumpi\n        /* \"--CODEGEN--\":2420:2421   */\n      0x00\n        /* \"--CODEGEN--\":2417:2418   */\n      dup1\n        /* \"--CODEGEN--\":2410:2422   */\n      revert\n        /* \"--CODEGEN--\":2372:2374   */\n    tag_238:\n        /* \"--CODEGEN--\":2455:2456   */\n      0x00\n        /* \"--CODEGEN--\":2472:2525   */\n      tag_239\n        /* \"--CODEGEN--\":2517:2524   */\n      dup6\n        /* \"--CODEGEN--\":2508:2514   */\n      dup3\n        /* \"--CODEGEN--\":2497:2506   */\n      dup7\n        /* \"--CODEGEN--\":2493:2515   */\n      add\n        /* \"--CODEGEN--\":2472:2525   */\n      jump(tag_199)\n    tag_239:\n        /* \"--CODEGEN--\":2462:2525   */\n      swap3\n      pop\n        /* \"--CODEGEN--\":2434:2531   */\n      pop\n        /* \"--CODEGEN--\":2562:2564   */\n      0x20\n        /* \"--CODEGEN--\":2580:2633   */\n      tag_240\n        /* \"--CODEGEN--\":2625:2632   */\n      dup6\n        /* \"--CODEGEN--\":2616:2622   */\n      dup3\n        /* \"--CODEGEN--\":2605:2614   */\n      dup7\n        /* \"--CODEGEN--\":2601:2623   */\n      add\n        /* \"--CODEGEN--\":2580:2633   */\n      jump(tag_221)\n    tag_240:\n        /* \"--CODEGEN--\":2570:2633   */\n      swap2\n      pop\n        /* \"--CODEGEN--\":2541:2639   */\n      pop\n        /* \"--CODEGEN--\":2366:2649   */\n      swap3\n      pop\n      swap3\n      swap1\n      pop\n      jump\n        /* \"--CODEGEN--\":2656:3003   */\n    tag_28:\n      0x00\n        /* \"--CODEGEN--\":2770:2772   */\n      0x20\n        /* \"--CODEGEN--\":2758:2767   */\n      dup3\n        /* \"--CODEGEN--\":2749:2756   */\n      dup5\n        /* \"--CODEGEN--\":2745:2768   */\n      sub\n        /* \"--CODEGEN--\":2741:2773   */\n      slt\n        /* \"--CODEGEN--\":2738:2740   */\n      iszero\n      tag_242\n      jumpi\n        /* \"--CODEGEN--\":2786:2787   */\n      0x00\n        /* \"--CODEGEN--\":2783:2784   */\n      dup1\n        /* \"--CODEGEN--\":2776:2788   */\n      revert\n        /* \"--CODEGEN--\":2738:2740   */\n    tag_242:\n        /* \"--CODEGEN--\":2849:2850   */\n      0x00\n        /* \"--CODEGEN--\":2838:2847   */\n      dup3\n        /* \"--CODEGEN--\":2834:2851   */\n      add\n        /* \"--CODEGEN--\":2821:2852   */\n      calldataload\n        /* \"--CODEGEN--\":2872:2890   */\n      0xffffffffffffffff\n        /* \"--CODEGEN--\":2864:2870   */\n      dup2\n        /* \"--CODEGEN--\":2861:2891   */\n      gt\n        /* \"--CODEGEN--\":2858:2860   */\n      iszero\n      tag_243\n      jumpi\n        /* \"--CODEGEN--\":2904:2905   */\n      0x00\n        /* \"--CODEGEN--\":2901:2902   */\n      dup1\n        /* \"--CODEGEN--\":2894:2906   */\n      revert\n        /* \"--CODEGEN--\":2858:2860   */\n    tag_243:\n        /* \"--CODEGEN--\":2924:2987   */\n      tag_244\n        /* \"--CODEGEN--\":2979:2986   */\n      dup5\n        /* \"--CODEGEN--\":2970:2976   */\n      dup3\n        /* \"--CODEGEN--\":2959:2968   */\n      dup6\n        /* \"--CODEGEN--\":2955:2977   */\n      add\n        /* \"--CODEGEN--\":2924:2987   */\n      jump(tag_203)\n    tag_244:\n        /* \"--CODEGEN--\":2914:2987   */\n      swap2\n      pop\n        /* \"--CODEGEN--\":2800:2993   */\n      pop\n        /* \"--CODEGEN--\":2732:3003   */\n      swap3\n      swap2\n      pop\n      pop\n      jump\n        /* \"--CODEGEN--\":3010:3372   */\n    tag_110:\n      0x00\n        /* \"--CODEGEN--\":3135:3137   */\n      0x20\n        /* \"--CODEGEN--\":3123:3132   */\n      dup3\n        /* \"--CODEGEN--\":3114:3121   */\n      dup5\n        /* \"--CODEGEN--\":3110:3133   */\n      sub\n        /* \"--CODEGEN--\":3106:3138   */\n      slt\n        /* \"--CODEGEN--\":3103:3105   */\n      iszero\n      tag_246\n      jumpi\n        /* \"--CODEGEN--\":3151:3152   */\n      0x00\n        /* \"--CODEGEN--\":3148:3149   */\n      dup1\n        /* \"--CODEGEN--\":3141:3153   */\n      revert\n        /* \"--CODEGEN--\":3103:3105   */\n    tag_246:\n        /* \"--CODEGEN--\":3207:3208   */\n      0x00\n        /* \"--CODEGEN--\":3196:3205   */\n      dup3\n        /* \"--CODEGEN--\":3192:3209   */\n      add\n        /* \"--CODEGEN--\":3186:3210   */\n      mload\n        /* \"--CODEGEN--\":3230:3248   */\n      0xffffffffffffffff\n        /* \"--CODEGEN--\":3222:3228   */\n      dup2\n        /* \"--CODEGEN--\":3219:3249   */\n      gt\n        /* \"--CODEGEN--\":3216:3218   */\n      iszero\n      tag_247\n      jumpi\n        /* \"--CODEGEN--\":3262:3263   */\n      0x00\n        /* \"--CODEGEN--\":3259:3260   */\n      dup1\n        /* \"--CODEGEN--\":3252:3264   */\n      revert\n        /* \"--CODEGEN--\":3216:3218   */\n    tag_247:\n        /* \"--CODEGEN--\":3282:3356   */\n      tag_248\n        /* \"--CODEGEN--\":3348:3355   */\n      dup5\n        /* \"--CODEGEN--\":3339:3345   */\n      dup3\n        /* \"--CODEGEN--\":3328:3337   */\n      dup6\n        /* \"--CODEGEN--\":3324:3346   */\n      add\n        /* \"--CODEGEN--\":3282:3356   */\n      jump(tag_213)\n    tag_248:\n        /* \"--CODEGEN--\":3272:3356   */\n      swap2\n      pop\n        /* \"--CODEGEN--\":3165:3362   */\n      pop\n        /* \"--CODEGEN--\":3097:3372   */\n      swap3\n      swap2\n      pop\n      pop\n      jump\n        /* \"--CODEGEN--\":3379:4314   */\n    tag_59:\n      0x00\n      dup1\n      0x00\n      dup1\n        /* \"--CODEGEN--\":3564:3567   */\n      0x80\n        /* \"--CODEGEN--\":3552:3561   */\n      dup6\n        /* \"--CODEGEN--\":3543:3550   */\n      dup8\n        /* \"--CODEGEN--\":3539:3562   */\n      sub\n        /* \"--CODEGEN--\":3535:3568   */\n      slt\n        /* \"--CODEGEN--\":3532:3534   */\n      iszero\n      tag_250\n      jumpi\n        /* \"--CODEGEN--\":3581:3582   */\n      0x00\n        /* \"--CODEGEN--\":3578:3579   */\n      dup1\n        /* \"--CODEGEN--\":3571:3583   */\n      revert\n        /* \"--CODEGEN--\":3532:3534   */\n    tag_250:\n        /* \"--CODEGEN--\":3644:3645   */\n      0x00\n        /* \"--CODEGEN--\":3633:3642   */\n      dup6\n        /* \"--CODEGEN--\":3629:3646   */\n      add\n        /* \"--CODEGEN--\":3616:3647   */\n      calldataload\n        /* \"--CODEGEN--\":3667:3685   */\n      0xffffffffffffffff\n        /* \"--CODEGEN--\":3659:3665   */\n      dup2\n        /* \"--CODEGEN--\":3656:3686   */\n      gt\n        /* \"--CODEGEN--\":3653:3655   */\n      iszero\n      tag_251\n      jumpi\n        /* \"--CODEGEN--\":3699:3700   */\n      0x00\n        /* \"--CODEGEN--\":3696:3697   */\n      dup1\n        /* \"--CODEGEN--\":3689:3701   */\n      revert\n        /* \"--CODEGEN--\":3653:3655   */\n    tag_251:\n        /* \"--CODEGEN--\":3719:3782   */\n      tag_252\n        /* \"--CODEGEN--\":3774:3781   */\n      dup8\n        /* \"--CODEGEN--\":3765:3771   */\n      dup3\n        /* \"--CODEGEN--\":3754:3763   */\n      dup9\n        /* \"--CODEGEN--\":3750:3772   */\n      add\n        /* \"--CODEGEN--\":3719:3782   */\n      jump(tag_203)\n    tag_252:\n        /* \"--CODEGEN--\":3709:3782   */\n      swap5\n      pop\n        /* \"--CODEGEN--\":3595:3788   */\n      pop\n        /* \"--CODEGEN--\":3819:3821   */\n      0x20\n        /* \"--CODEGEN--\":3837:3890   */\n      tag_253\n        /* \"--CODEGEN--\":3882:3889   */\n      dup8\n        /* \"--CODEGEN--\":3873:3879   */\n      dup3\n        /* \"--CODEGEN--\":3862:3871   */\n      dup9\n        /* \"--CODEGEN--\":3858:3880   */\n      add\n        /* \"--CODEGEN--\":3837:3890   */\n      jump(tag_199)\n    tag_253:\n        /* \"--CODEGEN--\":3827:3890   */\n      swap4\n      pop\n        /* \"--CODEGEN--\":3798:3896   */\n      pop\n        /* \"--CODEGEN--\":3955:3957   */\n      0x40\n        /* \"--CODEGEN--\":3944:3953   */\n      dup6\n        /* \"--CODEGEN--\":3940:3958   */\n      add\n        /* \"--CODEGEN--\":3927:3959   */\n      calldataload\n        /* \"--CODEGEN--\":3979:3997   */\n      0xffffffffffffffff\n        /* \"--CODEGEN--\":3971:3977   */\n      dup2\n        /* \"--CODEGEN--\":3968:3998   */\n      gt\n        /* \"--CODEGEN--\":3965:3967   */\n      iszero\n      tag_254\n      jumpi\n        /* \"--CODEGEN--\":4011:4012   */\n      0x00\n        /* \"--CODEGEN--\":4008:4009   */\n      dup1\n        /* \"--CODEGEN--\":4001:4013   */\n      revert\n        /* \"--CODEGEN--\":3965:3967   */\n    tag_254:\n        /* \"--CODEGEN--\":4031:4094   */\n      tag_255\n        /* \"--CODEGEN--\":4086:4093   */\n      dup8\n        /* \"--CODEGEN--\":4077:4083   */\n      dup3\n        /* \"--CODEGEN--\":4066:4075   */\n      dup9\n        /* \"--CODEGEN--\":4062:4084   */\n      add\n        /* \"--CODEGEN--\":4031:4094   */\n      jump(tag_203)\n    tag_255:\n        /* \"--CODEGEN--\":4021:4094   */\n      swap3\n      pop\n        /* \"--CODEGEN--\":3906:4100   */\n      pop\n        /* \"--CODEGEN--\":4159:4161   */\n      0x60\n        /* \"--CODEGEN--\":4148:4157   */\n      dup6\n        /* \"--CODEGEN--\":4144:4162   */\n      add\n        /* \"--CODEGEN--\":4131:4163   */\n      calldataload\n        /* \"--CODEGEN--\":4183:4201   */\n      0xffffffffffffffff\n        /* \"--CODEGEN--\":4175:4181   */\n      dup2\n        /* \"--CODEGEN--\":4172:4202   */\n      gt\n        /* \"--CODEGEN--\":4169:4171   */\n      iszero\n      tag_256\n      jumpi\n        /* \"--CODEGEN--\":4215:4216   */\n      0x00\n        /* \"--CODEGEN--\":4212:4213   */\n      dup1\n        /* \"--CODEGEN--\":4205:4217   */\n      revert\n        /* \"--CODEGEN--\":4169:4171   */\n    tag_256:\n        /* \"--CODEGEN--\":4235:4298   */\n      tag_257\n        /* \"--CODEGEN--\":4290:4297   */\n      dup8\n        /* \"--CODEGEN--\":4281:4287   */\n      dup3\n        /* \"--CODEGEN--\":4270:4279   */\n      dup9\n        /* \"--CODEGEN--\":4266:4288   */\n      add\n        /* \"--CODEGEN--\":4235:4298   */\n      jump(tag_203)\n    tag_257:\n        /* \"--CODEGEN--\":4225:4298   */\n      swap2\n      pop\n        /* \"--CODEGEN--\":4110:4304   */\n      pop\n        /* \"--CODEGEN--\":3526:4314   */\n      swap3\n      swap6\n      swap2\n      swap5\n      pop\n      swap3\n      pop\n      jump\n        /* \"--CODEGEN--\":4321:4562   */\n    tag_67:\n      0x00\n        /* \"--CODEGEN--\":4425:4427   */\n      0x20\n        /* \"--CODEGEN--\":4413:4422   */\n      dup3\n        /* \"--CODEGEN--\":4404:4411   */\n      dup5\n        /* \"--CODEGEN--\":4400:4423   */\n      sub\n        /* \"--CODEGEN--\":4396:4428   */\n      slt\n        /* \"--CODEGEN--\":4393:4395   */\n      iszero\n      tag_259\n      jumpi\n        /* \"--CODEGEN--\":4441:4442   */\n      0x00\n        /* \"--CODEGEN--\":4438:4439   */\n      dup1\n        /* \"--CODEGEN--\":4431:4443   */\n      revert\n        /* \"--CODEGEN--\":4393:4395   */\n    tag_259:\n        /* \"--CODEGEN--\":4476:4477   */\n      0x00\n        /* \"--CODEGEN--\":4493:4546   */\n      tag_260\n        /* \"--CODEGEN--\":4538:4545   */\n      dup5\n        /* \"--CODEGEN--\":4529:4535   */\n      dup3\n        /* \"--CODEGEN--\":4518:4527   */\n      dup6\n        /* \"--CODEGEN--\":4514:4536   */\n      add\n        /* \"--CODEGEN--\":4493:4546   */\n      jump(tag_221)\n    tag_260:\n        /* \"--CODEGEN--\":4483:4546   */\n      swap2\n      pop\n        /* \"--CODEGEN--\":4455:4552   */\n      pop\n        /* \"--CODEGEN--\":4387:4562   */\n      swap3\n      swap2\n      pop\n      pop\n      jump\n        /* \"--CODEGEN--\":4570:4743   */\n    tag_261:\n      0x00\n        /* \"--CODEGEN--\":4657:4703   */\n      tag_263\n        /* \"--CODEGEN--\":4699:4702   */\n      dup4\n        /* \"--CODEGEN--\":4691:4697   */\n      dup4\n        /* \"--CODEGEN--\":4657:4703   */\n      jump(tag_264)\n    tag_263:\n        /* \"--CODEGEN--\":4732:4736   */\n      0x20\n        /* \"--CODEGEN--\":4727:4730   */\n      dup4\n        /* \"--CODEGEN--\":4723:4737   */\n      add\n        /* \"--CODEGEN--\":4709:4737   */\n      swap1\n      pop\n        /* \"--CODEGEN--\":4650:4743   */\n      swap3\n      swap2\n      pop\n      pop\n      jump\n        /* \"--CODEGEN--\":4751:4854   */\n    tag_264:\n        /* \"--CODEGEN--\":4824:4848   */\n      tag_266\n        /* \"--CODEGEN--\":4842:4847   */\n      dup2\n        /* \"--CODEGEN--\":4824:4848   */\n      jump(tag_267)\n    tag_266:\n        /* \"--CODEGEN--\":4819:4822   */\n      dup3\n        /* \"--CODEGEN--\":4812:4849   */\n      mstore\n        /* \"--CODEGEN--\":4806:4854   */\n      pop\n      pop\n      jump\n        /* \"--CODEGEN--\":4861:4974   */\n    tag_268:\n        /* \"--CODEGEN--\":4944:4968   */\n      tag_270\n        /* \"--CODEGEN--\":4962:4967   */\n      dup2\n        /* \"--CODEGEN--\":4944:4968   */\n      jump(tag_267)\n    tag_270:\n        /* \"--CODEGEN--\":4939:4942   */\n      dup3\n        /* \"--CODEGEN--\":4932:4969   */\n      mstore\n        /* \"--CODEGEN--\":4926:4974   */\n      pop\n      pop\n      jump\n        /* \"--CODEGEN--\":5012:5702   */\n    tag_271:\n      0x00\n        /* \"--CODEGEN--\":5157:5211   */\n      tag_273\n        /* \"--CODEGEN--\":5205:5210   */\n      dup3\n        /* \"--CODEGEN--\":5157:5211   */\n      jump(tag_274)\n    tag_273:\n        /* \"--CODEGEN--\":5224:5310   */\n      tag_275\n        /* \"--CODEGEN--\":5303:5309   */\n      dup2\n        /* \"--CODEGEN--\":5298:5301   */\n      dup6\n        /* \"--CODEGEN--\":5224:5310   */\n      jump(tag_276)\n    tag_275:\n        /* \"--CODEGEN--\":5217:5310   */\n      swap4\n      pop\n        /* \"--CODEGEN--\":5331:5387   */\n      tag_277\n        /* \"--CODEGEN--\":5381:5386   */\n      dup4\n        /* \"--CODEGEN--\":5331:5387   */\n      jump(tag_278)\n    tag_277:\n        /* \"--CODEGEN--\":5407:5414   */\n      dup1\n        /* \"--CODEGEN--\":5435:5436   */\n      0x00\n        /* \"--CODEGEN--\":5420:5680   */\n    tag_279:\n        /* \"--CODEGEN--\":5445:5451   */\n      dup4\n        /* \"--CODEGEN--\":5442:5443   */\n      dup2\n        /* \"--CODEGEN--\":5439:5452   */\n      lt\n        /* \"--CODEGEN--\":5420:5680   */\n      iszero\n      tag_281\n      jumpi\n        /* \"--CODEGEN--\":5512:5518   */\n      dup2\n        /* \"--CODEGEN--\":5506:5519   */\n      mload\n        /* \"--CODEGEN--\":5533:5596   */\n      tag_282\n        /* \"--CODEGEN--\":5592:5595   */\n      dup9\n        /* \"--CODEGEN--\":5577:5590   */\n      dup3\n        /* \"--CODEGEN--\":5533:5596   */\n      jump(tag_261)\n    tag_282:\n        /* \"--CODEGEN--\":5526:5596   */\n      swap8\n      pop\n        /* \"--CODEGEN--\":5613:5673   */\n      tag_283\n        /* \"--CODEGEN--\":5666:5672   */\n      dup4\n        /* \"--CODEGEN--\":5613:5673   */\n      jump(tag_284)\n    tag_283:\n        /* \"--CODEGEN--\":5603:5673   */\n      swap3\n      pop\n        /* \"--CODEGEN--\":5477:5680   */\n      pop\n        /* \"--CODEGEN--\":5467:5468   */\n      0x01\n        /* \"--CODEGEN--\":5464:5465   */\n      dup2\n        /* \"--CODEGEN--\":5460:5469   */\n      add\n        /* \"--CODEGEN--\":5455:5469   */\n      swap1\n      pop\n        /* \"--CODEGEN--\":5420:5680   */\n      jump(tag_279)\n    tag_281:\n        /* \"--CODEGEN--\":5424:5438   */\n      pop\n        /* \"--CODEGEN--\":5693:5696   */\n      dup6\n        /* \"--CODEGEN--\":5686:5696   */\n      swap4\n      pop\n        /* \"--CODEGEN--\":5136:5702   */\n      pop\n      pop\n      pop\n      swap3\n      swap2\n      pop\n      pop\n      jump\n        /* \"--CODEGEN--\":5710:5814   */\n    tag_285:\n        /* \"--CODEGEN--\":5787:5808   */\n      tag_287\n        /* \"--CODEGEN--\":5802:5807   */\n      dup2\n        /* \"--CODEGEN--\":5787:5808   */\n      jump(tag_288)\n    tag_287:\n        /* \"--CODEGEN--\":5782:5785   */\n      dup3\n        /* \"--CODEGEN--\":5775:5809   */\n      mstore\n        /* \"--CODEGEN--\":5769:5814   */\n      pop\n      pop\n      jump\n        /* \"--CODEGEN--\":5821:6168   */\n    tag_289:\n      0x00\n        /* \"--CODEGEN--\":5933:5972   */\n      tag_291\n        /* \"--CODEGEN--\":5966:5971   */\n      dup3\n        /* \"--CODEGEN--\":5933:5972   */\n      jump(tag_292)\n    tag_291:\n        /* \"--CODEGEN--\":5984:6055   */\n      tag_293\n        /* \"--CODEGEN--\":6048:6054   */\n      dup2\n        /* \"--CODEGEN--\":6043:6046   */\n      dup6\n        /* \"--CODEGEN--\":5984:6055   */\n      jump(tag_294)\n    tag_293:\n        /* \"--CODEGEN--\":5977:6055   */\n      swap4\n      pop\n        /* \"--CODEGEN--\":6060:6112   */\n      tag_295\n        /* \"--CODEGEN--\":6105:6111   */\n      dup2\n        /* \"--CODEGEN--\":6100:6103   */\n      dup6\n        /* \"--CODEGEN--\":6093:6097   */\n      0x20\n        /* \"--CODEGEN--\":6086:6091   */\n      dup7\n        /* \"--CODEGEN--\":6082:6098   */\n      add\n        /* \"--CODEGEN--\":6060:6112   */\n      jump(tag_220)\n    tag_295:\n        /* \"--CODEGEN--\":6133:6162   */\n      tag_296\n        /* \"--CODEGEN--\":6155:6161   */\n      dup2\n        /* \"--CODEGEN--\":6133:6162   */\n      jump(tag_297)\n    tag_296:\n        /* \"--CODEGEN--\":6128:6131   */\n      dup5\n        /* \"--CODEGEN--\":6124:6163   */\n      add\n        /* \"--CODEGEN--\":6117:6163   */\n      swap2\n      pop\n        /* \"--CODEGEN--\":5913:6168   */\n      pop\n      swap3\n      swap2\n      pop\n      pop\n      jump\n        /* \"--CODEGEN--\":6175:6535   */\n    tag_298:\n      0x00\n        /* \"--CODEGEN--\":6305:6344   */\n      tag_300\n        /* \"--CODEGEN--\":6338:6343   */\n      dup3\n        /* \"--CODEGEN--\":6305:6344   */\n      jump(tag_292)\n    tag_300:\n        /* \"--CODEGEN--\":6356:6445   */\n      tag_301\n        /* \"--CODEGEN--\":6438:6444   */\n      dup2\n        /* \"--CODEGEN--\":6433:6436   */\n      dup6\n        /* \"--CODEGEN--\":6356:6445   */\n      jump(tag_302)\n    tag_301:\n        /* \"--CODEGEN--\":6349:6445   */\n      swap4\n      pop\n        /* \"--CODEGEN--\":6450:6502   */\n      tag_303\n        /* \"--CODEGEN--\":6495:6501   */\n      dup2\n        /* \"--CODEGEN--\":6490:6493   */\n      dup6\n        /* \"--CODEGEN--\":6483:6487   */\n      0x20\n        /* \"--CODEGEN--\":6476:6481   */\n      dup7\n        /* \"--CODEGEN--\":6472:6488   */\n      add\n        /* \"--CODEGEN--\":6450:6502   */\n      jump(tag_220)\n    tag_303:\n        /* \"--CODEGEN--\":6523:6529   */\n      dup1\n        /* \"--CODEGEN--\":6518:6521   */\n      dup5\n        /* \"--CODEGEN--\":6514:6530   */\n      add\n        /* \"--CODEGEN--\":6507:6530   */\n      swap2\n      pop\n        /* \"--CODEGEN--\":6285:6535   */\n      pop\n      swap3\n      swap2\n      pop\n      pop\n      jump\n        /* \"--CODEGEN--\":6543:6861   */\n    tag_304:\n      0x00\n        /* \"--CODEGEN--\":6703:6770   */\n      tag_306\n        /* \"--CODEGEN--\":6767:6769   */\n      0x12\n        /* \"--CODEGEN--\":6762:6765   */\n      dup4\n        /* \"--CODEGEN--\":6703:6770   */\n      jump(tag_294)\n    tag_306:\n        /* \"--CODEGEN--\":6696:6770   */\n      swap2\n      pop\n        /* \"--CODEGEN--\":6803:6823   */\n      0x4365727469666963617465456e64446174650000000000000000000000000000\n        /* \"--CODEGEN--\":6799:6800   */\n      0x00\n        /* \"--CODEGEN--\":6794:6797   */\n      dup4\n        /* \"--CODEGEN--\":6790:6801   */\n      add\n        /* \"--CODEGEN--\":6783:6824   */\n      mstore\n        /* \"--CODEGEN--\":6852:6854   */\n      0x20\n        /* \"--CODEGEN--\":6847:6850   */\n      dup3\n        /* \"--CODEGEN--\":6843:6855   */\n      add\n        /* \"--CODEGEN--\":6836:6855   */\n      swap1\n      pop\n        /* \"--CODEGEN--\":6689:6861   */\n      swap2\n      swap1\n      pop\n      jump\n        /* \"--CODEGEN--\":6870:7181   */\n    tag_307:\n      0x00\n        /* \"--CODEGEN--\":7030:7097   */\n      tag_309\n        /* \"--CODEGEN--\":7094:7096   */\n      0x0b\n        /* \"--CODEGEN--\":7089:7092   */\n      dup4\n        /* \"--CODEGEN--\":7030:7097   */\n      jump(tag_294)\n    tag_309:\n        /* \"--CODEGEN--\":7023:7097   */\n      swap2\n      pop\n        /* \"--CODEGEN--\":7130:7143   */\n      0x6973477261647561746564000000000000000000000000000000000000000000\n        /* \"--CODEGEN--\":7126:7127   */\n      0x00\n        /* \"--CODEGEN--\":7121:7124   */\n      dup4\n        /* \"--CODEGEN--\":7117:7128   */\n      add\n        /* \"--CODEGEN--\":7110:7144   */\n      mstore\n        /* \"--CODEGEN--\":7172:7174   */\n      0x20\n        /* \"--CODEGEN--\":7167:7170   */\n      dup3\n        /* \"--CODEGEN--\":7163:7175   */\n      add\n        /* \"--CODEGEN--\":7156:7175   */\n      swap1\n      pop\n        /* \"--CODEGEN--\":7016:7181   */\n      swap2\n      swap1\n      pop\n      jump\n        /* \"--CODEGEN--\":7190:7507   */\n    tag_310:\n      0x00\n        /* \"--CODEGEN--\":7350:7417   */\n      tag_312\n        /* \"--CODEGEN--\":7414:7416   */\n      0x11\n        /* \"--CODEGEN--\":7409:7412   */\n      dup4\n        /* \"--CODEGEN--\":7350:7417   */\n      jump(tag_294)\n    tag_312:\n        /* \"--CODEGEN--\":7343:7417   */\n      swap2\n      pop\n        /* \"--CODEGEN--\":7450:7469   */\n      0x7363686f6f6c4365727469666963617465000000000000000000000000000000\n        /* \"--CODEGEN--\":7446:7447   */\n      0x00\n        /* \"--CODEGEN--\":7441:7444   */\n      dup4\n        /* \"--CODEGEN--\":7437:7448   */\n      add\n        /* \"--CODEGEN--\":7430:7470   */\n      mstore\n        /* \"--CODEGEN--\":7498:7500   */\n      0x20\n        /* \"--CODEGEN--\":7493:7496   */\n      dup3\n        /* \"--CODEGEN--\":7489:7501   */\n      add\n        /* \"--CODEGEN--\":7482:7501   */\n      swap1\n      pop\n        /* \"--CODEGEN--\":7336:7507   */\n      swap2\n      swap1\n      pop\n      jump\n        /* \"--CODEGEN--\":7516:7823   */\n    tag_313:\n      0x00\n        /* \"--CODEGEN--\":7676:7742   */\n      tag_315\n        /* \"--CODEGEN--\":7740:7741   */\n      0x08\n        /* \"--CODEGEN--\":7735:7738   */\n      dup4\n        /* \"--CODEGEN--\":7676:7742   */\n      jump(tag_294)\n    tag_315:\n        /* \"--CODEGEN--\":7669:7742   */\n      swap2\n      pop\n        /* \"--CODEGEN--\":7775:7785   */\n      0x69735363686f6f6c000000000000000000000000000000000000000000000000\n        /* \"--CODEGEN--\":7771:7772   */\n      0x00\n        /* \"--CODEGEN--\":7766:7769   */\n      dup4\n        /* \"--CODEGEN--\":7762:7773   */\n      add\n        /* \"--CODEGEN--\":7755:7786   */\n      mstore\n        /* \"--CODEGEN--\":7814:7816   */\n      0x20\n        /* \"--CODEGEN--\":7809:7812   */\n      dup3\n        /* \"--CODEGEN--\":7805:7817   */\n      add\n        /* \"--CODEGEN--\":7798:7817   */\n      swap1\n      pop\n        /* \"--CODEGEN--\":7662:7823   */\n      swap2\n      swap1\n      pop\n      jump\n        /* \"--CODEGEN--\":7832:8169   */\n    tag_316:\n      0x00\n        /* \"--CODEGEN--\":8010:8094   */\n      tag_318\n        /* \"--CODEGEN--\":8092:8093   */\n      0x03\n        /* \"--CODEGEN--\":8087:8090   */\n      dup4\n        /* \"--CODEGEN--\":8010:8094   */\n      jump(tag_302)\n    tag_318:\n        /* \"--CODEGEN--\":8003:8094   */\n      swap2\n      pop\n        /* \"--CODEGEN--\":8127:8132   */\n      0x5965730000000000000000000000000000000000000000000000000000000000\n        /* \"--CODEGEN--\":8123:8124   */\n      0x00\n        /* \"--CODEGEN--\":8118:8121   */\n      dup4\n        /* \"--CODEGEN--\":8114:8125   */\n      add\n        /* \"--CODEGEN--\":8107:8133   */\n      mstore\n        /* \"--CODEGEN--\":8161:8162   */\n      0x03\n        /* \"--CODEGEN--\":8156:8159   */\n      dup3\n        /* \"--CODEGEN--\":8152:8163   */\n      add\n        /* \"--CODEGEN--\":8145:8163   */\n      swap1\n      pop\n        /* \"--CODEGEN--\":7996:8169   */\n      swap2\n      swap1\n      pop\n      jump\n        /* \"--CODEGEN--\":8178:8489   */\n    tag_319:\n      0x00\n        /* \"--CODEGEN--\":8338:8405   */\n      tag_321\n        /* \"--CODEGEN--\":8402:8404   */\n      0x0b\n        /* \"--CODEGEN--\":8397:8400   */\n      dup4\n        /* \"--CODEGEN--\":8338:8405   */\n      jump(tag_294)\n    tag_321:\n        /* \"--CODEGEN--\":8331:8405   */\n      swap2\n      pop\n        /* \"--CODEGEN--\":8438:8451   */\n      0x6365727469666963617465000000000000000000000000000000000000000000\n        /* \"--CODEGEN--\":8434:8435   */\n      0x00\n        /* \"--CODEGEN--\":8429:8432   */\n      dup4\n        /* \"--CODEGEN--\":8425:8436   */\n      add\n        /* \"--CODEGEN--\":8418:8452   */\n      mstore\n        /* \"--CODEGEN--\":8480:8482   */\n      0x20\n        /* \"--CODEGEN--\":8475:8478   */\n      dup3\n        /* \"--CODEGEN--\":8471:8483   */\n      add\n        /* \"--CODEGEN--\":8464:8483   */\n      swap1\n      pop\n        /* \"--CODEGEN--\":8324:8489   */\n      swap2\n      swap1\n      pop\n      jump\n        /* \"--CODEGEN--\":8498:8805   */\n    tag_322:\n      0x00\n        /* \"--CODEGEN--\":8658:8724   */\n      tag_324\n        /* \"--CODEGEN--\":8722:8723   */\n      0x08\n        /* \"--CODEGEN--\":8717:8720   */\n      dup4\n        /* \"--CODEGEN--\":8658:8724   */\n      jump(tag_294)\n    tag_324:\n        /* \"--CODEGEN--\":8651:8724   */\n      swap2\n      pop\n        /* \"--CODEGEN--\":8757:8767   */\n      0x4950465368617368000000000000000000000000000000000000000000000000\n        /* \"--CODEGEN--\":8753:8754   */\n      0x00\n        /* \"--CODEGEN--\":8748:8751   */\n      dup4\n        /* \"--CODEGEN--\":8744:8755   */\n      add\n        /* \"--CODEGEN--\":8737:8768   */\n      mstore\n        /* \"--CODEGEN--\":8796:8798   */\n      0x20\n        /* \"--CODEGEN--\":8791:8794   */\n      dup3\n        /* \"--CODEGEN--\":8787:8799   */\n      add\n        /* \"--CODEGEN--\":8780:8799   */\n      swap1\n      pop\n        /* \"--CODEGEN--\":8644:8805   */\n      swap2\n      swap1\n      pop\n      jump\n        /* \"--CODEGEN--\":8814:9124   */\n    tag_325:\n      0x00\n        /* \"--CODEGEN--\":8974:9041   */\n      tag_327\n        /* \"--CODEGEN--\":9038:9040   */\n      0x0a\n        /* \"--CODEGEN--\":9033:9036   */\n      dup4\n        /* \"--CODEGEN--\":8974:9041   */\n      jump(tag_294)\n    tag_327:\n        /* \"--CODEGEN--\":8967:9041   */\n      swap2\n      pop\n        /* \"--CODEGEN--\":9074:9086   */\n      0x69734d696e697374727900000000000000000000000000000000000000000000\n        /* \"--CODEGEN--\":9070:9071   */\n      0x00\n        /* \"--CODEGEN--\":9065:9068   */\n      dup4\n        /* \"--CODEGEN--\":9061:9072   */\n      add\n        /* \"--CODEGEN--\":9054:9087   */\n      mstore\n        /* \"--CODEGEN--\":9115:9117   */\n      0x20\n        /* \"--CODEGEN--\":9110:9113   */\n      dup3\n        /* \"--CODEGEN--\":9106:9118   */\n      add\n        /* \"--CODEGEN--\":9099:9118   */\n      swap1\n      pop\n        /* \"--CODEGEN--\":8960:9124   */\n      swap2\n      swap1\n      pop\n      jump\n        /* \"--CODEGEN--\":9133:9439   */\n    tag_328:\n      0x00\n        /* \"--CODEGEN--\":9293:9359   */\n      tag_330\n        /* \"--CODEGEN--\":9357:9358   */\n      0x07\n        /* \"--CODEGEN--\":9352:9355   */\n      dup4\n        /* \"--CODEGEN--\":9293:9359   */\n      jump(tag_294)\n    tag_330:\n        /* \"--CODEGEN--\":9286:9359   */\n      swap2\n      pop\n        /* \"--CODEGEN--\":9392:9401   */\n      0x6469706c6f6d6100000000000000000000000000000000000000000000000000\n        /* \"--CODEGEN--\":9388:9389   */\n      0x00\n        /* \"--CODEGEN--\":9383:9386   */\n      dup4\n        /* \"--CODEGEN--\":9379:9390   */\n      add\n        /* \"--CODEGEN--\":9372:9402   */\n      mstore\n        /* \"--CODEGEN--\":9430:9432   */\n      0x20\n        /* \"--CODEGEN--\":9425:9428   */\n      dup3\n        /* \"--CODEGEN--\":9421:9433   */\n      add\n        /* \"--CODEGEN--\":9414:9433   */\n      swap1\n      pop\n        /* \"--CODEGEN--\":9279:9439   */\n      swap2\n      swap1\n      pop\n      jump\n        /* \"--CODEGEN--\":9447:9560   */\n    tag_331:\n        /* \"--CODEGEN--\":9530:9554   */\n      tag_333\n        /* \"--CODEGEN--\":9548:9553   */\n      dup2\n        /* \"--CODEGEN--\":9530:9554   */\n      jump(tag_334)\n    tag_333:\n        /* \"--CODEGEN--\":9525:9528   */\n      dup3\n        /* \"--CODEGEN--\":9518:9555   */\n      mstore\n        /* \"--CODEGEN--\":9512:9560   */\n      pop\n      pop\n      jump\n        /* \"--CODEGEN--\":9567:9833   */\n    tag_114:\n      0x00\n        /* \"--CODEGEN--\":9713:9808   */\n      tag_336\n        /* \"--CODEGEN--\":9804:9807   */\n      dup3\n        /* \"--CODEGEN--\":9795:9801   */\n      dup5\n        /* \"--CODEGEN--\":9713:9808   */\n      jump(tag_298)\n    tag_336:\n        /* \"--CODEGEN--\":9706:9808   */\n      swap2\n      pop\n        /* \"--CODEGEN--\":9825:9828   */\n      dup2\n        /* \"--CODEGEN--\":9818:9828   */\n      swap1\n      pop\n        /* \"--CODEGEN--\":9694:9833   */\n      swap3\n      swap2\n      pop\n      pop\n      jump\n        /* \"--CODEGEN--\":9840:10212   */\n    tag_112:\n      0x00\n        /* \"--CODEGEN--\":10039:10187   */\n      tag_338\n        /* \"--CODEGEN--\":10183:10186   */\n      dup3\n        /* \"--CODEGEN--\":10039:10187   */\n      jump(tag_316)\n    tag_338:\n        /* \"--CODEGEN--\":10032:10187   */\n      swap2\n      pop\n        /* \"--CODEGEN--\":10204:10207   */\n      dup2\n        /* \"--CODEGEN--\":10197:10207   */\n      swap1\n      pop\n        /* \"--CODEGEN--\":10020:10212   */\n      swap2\n      swap1\n      pop\n      jump\n        /* \"--CODEGEN--\":10219:10432   */\n    tag_52:\n      0x00\n        /* \"--CODEGEN--\":10337:10339   */\n      0x20\n        /* \"--CODEGEN--\":10326:10335   */\n      dup3\n        /* \"--CODEGEN--\":10322:10340   */\n      add\n        /* \"--CODEGEN--\":10314:10340   */\n      swap1\n      pop\n        /* \"--CODEGEN--\":10351:10422   */\n      tag_340\n        /* \"--CODEGEN--\":10419:10420   */\n      0x00\n        /* \"--CODEGEN--\":10408:10417   */\n      dup4\n        /* \"--CODEGEN--\":10404:10421   */\n      add\n        /* \"--CODEGEN--\":10395:10401   */\n      dup5\n        /* \"--CODEGEN--\":10351:10422   */\n      jump(tag_268)\n    tag_340:\n        /* \"--CODEGEN--\":10308:10432   */\n      swap3\n      swap2\n      pop\n      pop\n      jump\n        /* \"--CODEGEN--\":10439:11262   */\n    tag_105:\n      0x00\n        /* \"--CODEGEN--\":10759:10761   */\n      0x60\n        /* \"--CODEGEN--\":10748:10757   */\n      dup3\n        /* \"--CODEGEN--\":10744:10762   */\n      add\n        /* \"--CODEGEN--\":10736:10762   */\n      swap1\n      pop\n        /* \"--CODEGEN--\":10773:10844   */\n      tag_342\n        /* \"--CODEGEN--\":10841:10842   */\n      0x00\n        /* \"--CODEGEN--\":10830:10839   */\n      dup4\n        /* \"--CODEGEN--\":10826:10843   */\n      add\n        /* \"--CODEGEN--\":10817:10823   */\n      dup5\n        /* \"--CODEGEN--\":10773:10844   */\n      jump(tag_268)\n    tag_342:\n        /* \"--CODEGEN--\":10892:10901   */\n      dup2\n        /* \"--CODEGEN--\":10886:10890   */\n      dup2\n        /* \"--CODEGEN--\":10882:10902   */\n      sub\n        /* \"--CODEGEN--\":10877:10879   */\n      0x20\n        /* \"--CODEGEN--\":10866:10875   */\n      dup4\n        /* \"--CODEGEN--\":10862:10880   */\n      add\n        /* \"--CODEGEN--\":10855:10903   */\n      mstore\n        /* \"--CODEGEN--\":10917:11048   */\n      tag_343\n        /* \"--CODEGEN--\":11043:11047   */\n      dup2\n        /* \"--CODEGEN--\":10917:11048   */\n      jump(tag_310)\n    tag_343:\n        /* \"--CODEGEN--\":10909:11048   */\n      swap1\n      pop\n        /* \"--CODEGEN--\":11096:11105   */\n      dup2\n        /* \"--CODEGEN--\":11090:11094   */\n      dup2\n        /* \"--CODEGEN--\":11086:11106   */\n      sub\n        /* \"--CODEGEN--\":11081:11083   */\n      0x40\n        /* \"--CODEGEN--\":11070:11079   */\n      dup4\n        /* \"--CODEGEN--\":11066:11084   */\n      add\n        /* \"--CODEGEN--\":11059:11107   */\n      mstore\n        /* \"--CODEGEN--\":11121:11252   */\n      tag_344\n        /* \"--CODEGEN--\":11247:11251   */\n      dup2\n        /* \"--CODEGEN--\":11121:11252   */\n      jump(tag_313)\n    tag_344:\n        /* \"--CODEGEN--\":11113:11252   */\n      swap1\n      pop\n        /* \"--CODEGEN--\":10730:11262   */\n      swap3\n      swap2\n      pop\n      pop\n      jump\n        /* \"--CODEGEN--\":11269:12092   */\n    tag_181:\n      0x00\n        /* \"--CODEGEN--\":11589:11591   */\n      0x60\n        /* \"--CODEGEN--\":11578:11587   */\n      dup3\n        /* \"--CODEGEN--\":11574:11592   */\n      add\n        /* \"--CODEGEN--\":11566:11592   */\n      swap1\n      pop\n        /* \"--CODEGEN--\":11603:11674   */\n      tag_346\n        /* \"--CODEGEN--\":11671:11672   */\n      0x00\n        /* \"--CODEGEN--\":11660:11669   */\n      dup4\n        /* \"--CODEGEN--\":11656:11673   */\n      add\n        /* \"--CODEGEN--\":11647:11653   */\n      dup5\n        /* \"--CODEGEN--\":11603:11674   */\n      jump(tag_268)\n    tag_346:\n        /* \"--CODEGEN--\":11722:11731   */\n      dup2\n        /* \"--CODEGEN--\":11716:11720   */\n      dup2\n        /* \"--CODEGEN--\":11712:11732   */\n      sub\n        /* \"--CODEGEN--\":11707:11709   */\n      0x20\n        /* \"--CODEGEN--\":11696:11705   */\n      dup4\n        /* \"--CODEGEN--\":11692:11710   */\n      add\n        /* \"--CODEGEN--\":11685:11733   */\n      mstore\n        /* \"--CODEGEN--\":11747:11878   */\n      tag_347\n        /* \"--CODEGEN--\":11873:11877   */\n      dup2\n        /* \"--CODEGEN--\":11747:11878   */\n      jump(tag_319)\n    tag_347:\n        /* \"--CODEGEN--\":11739:11878   */\n      swap1\n      pop\n        /* \"--CODEGEN--\":11926:11935   */\n      dup2\n        /* \"--CODEGEN--\":11920:11924   */\n      dup2\n        /* \"--CODEGEN--\":11916:11936   */\n      sub\n        /* \"--CODEGEN--\":11911:11913   */\n      0x40\n        /* \"--CODEGEN--\":11900:11909   */\n      dup4\n        /* \"--CODEGEN--\":11896:11914   */\n      add\n        /* \"--CODEGEN--\":11889:11937   */\n      mstore\n        /* \"--CODEGEN--\":11951:12082   */\n      tag_348\n        /* \"--CODEGEN--\":12077:12081   */\n      dup2\n        /* \"--CODEGEN--\":11951:12082   */\n      jump(tag_325)\n    tag_348:\n        /* \"--CODEGEN--\":11943:12082   */\n      swap1\n      pop\n        /* \"--CODEGEN--\":11560:12092   */\n      swap3\n      swap2\n      pop\n      pop\n      jump\n        /* \"--CODEGEN--\":12099:12922   */\n    tag_129:\n      0x00\n        /* \"--CODEGEN--\":12419:12421   */\n      0x60\n        /* \"--CODEGEN--\":12408:12417   */\n      dup3\n        /* \"--CODEGEN--\":12404:12422   */\n      add\n        /* \"--CODEGEN--\":12396:12422   */\n      swap1\n      pop\n        /* \"--CODEGEN--\":12433:12504   */\n      tag_350\n        /* \"--CODEGEN--\":12501:12502   */\n      0x00\n        /* \"--CODEGEN--\":12490:12499   */\n      dup4\n        /* \"--CODEGEN--\":12486:12503   */\n      add\n        /* \"--CODEGEN--\":12477:12483   */\n      dup5\n        /* \"--CODEGEN--\":12433:12504   */\n      jump(tag_268)\n    tag_350:\n        /* \"--CODEGEN--\":12552:12561   */\n      dup2\n        /* \"--CODEGEN--\":12546:12550   */\n      dup2\n        /* \"--CODEGEN--\":12542:12562   */\n      sub\n        /* \"--CODEGEN--\":12537:12539   */\n      0x20\n        /* \"--CODEGEN--\":12526:12535   */\n      dup4\n        /* \"--CODEGEN--\":12522:12540   */\n      add\n        /* \"--CODEGEN--\":12515:12563   */\n      mstore\n        /* \"--CODEGEN--\":12577:12708   */\n      tag_351\n        /* \"--CODEGEN--\":12703:12707   */\n      dup2\n        /* \"--CODEGEN--\":12577:12708   */\n      jump(tag_328)\n    tag_351:\n        /* \"--CODEGEN--\":12569:12708   */\n      swap1\n      pop\n        /* \"--CODEGEN--\":12756:12765   */\n      dup2\n        /* \"--CODEGEN--\":12750:12754   */\n      dup2\n        /* \"--CODEGEN--\":12746:12766   */\n      sub\n        /* \"--CODEGEN--\":12741:12743   */\n      0x40\n        /* \"--CODEGEN--\":12730:12739   */\n      dup4\n        /* \"--CODEGEN--\":12726:12744   */\n      add\n        /* \"--CODEGEN--\":12719:12767   */\n      mstore\n        /* \"--CODEGEN--\":12781:12912   */\n      tag_352\n        /* \"--CODEGEN--\":12907:12911   */\n      dup2\n        /* \"--CODEGEN--\":12781:12912   */\n      jump(tag_304)\n    tag_352:\n        /* \"--CODEGEN--\":12773:12912   */\n      swap1\n      pop\n        /* \"--CODEGEN--\":12390:12922   */\n      swap3\n      swap2\n      pop\n      pop\n      jump\n        /* \"--CODEGEN--\":12929:13752   */\n    tag_154:\n      0x00\n        /* \"--CODEGEN--\":13249:13251   */\n      0x60\n        /* \"--CODEGEN--\":13238:13247   */\n      dup3\n        /* \"--CODEGEN--\":13234:13252   */\n      add\n        /* \"--CODEGEN--\":13226:13252   */\n      swap1\n      pop\n        /* \"--CODEGEN--\":13263:13334   */\n      tag_354\n        /* \"--CODEGEN--\":13331:13332   */\n      0x00\n        /* \"--CODEGEN--\":13320:13329   */\n      dup4\n        /* \"--CODEGEN--\":13316:13333   */\n      add\n        /* \"--CODEGEN--\":13307:13313   */\n      dup5\n        /* \"--CODEGEN--\":13263:13334   */\n      jump(tag_268)\n    tag_354:\n        /* \"--CODEGEN--\":13382:13391   */\n      dup2\n        /* \"--CODEGEN--\":13376:13380   */\n      dup2\n        /* \"--CODEGEN--\":13372:13392   */\n      sub\n        /* \"--CODEGEN--\":13367:13369   */\n      0x20\n        /* \"--CODEGEN--\":13356:13365   */\n      dup4\n        /* \"--CODEGEN--\":13352:13370   */\n      add\n        /* \"--CODEGEN--\":13345:13393   */\n      mstore\n        /* \"--CODEGEN--\":13407:13538   */\n      tag_355\n        /* \"--CODEGEN--\":13533:13537   */\n      dup2\n        /* \"--CODEGEN--\":13407:13538   */\n      jump(tag_328)\n    tag_355:\n        /* \"--CODEGEN--\":13399:13538   */\n      swap1\n      pop\n        /* \"--CODEGEN--\":13586:13595   */\n      dup2\n        /* \"--CODEGEN--\":13580:13584   */\n      dup2\n        /* \"--CODEGEN--\":13576:13596   */\n      sub\n        /* \"--CODEGEN--\":13571:13573   */\n      0x40\n        /* \"--CODEGEN--\":13560:13569   */\n      dup4\n        /* \"--CODEGEN--\":13556:13574   */\n      add\n        /* \"--CODEGEN--\":13549:13597   */\n      mstore\n        /* \"--CODEGEN--\":13611:13742   */\n      tag_356\n        /* \"--CODEGEN--\":13737:13741   */\n      dup2\n        /* \"--CODEGEN--\":13611:13742   */\n      jump(tag_307)\n    tag_356:\n        /* \"--CODEGEN--\":13603:13742   */\n      swap1\n      pop\n        /* \"--CODEGEN--\":13220:13752   */\n      swap3\n      swap2\n      pop\n      pop\n      jump\n        /* \"--CODEGEN--\":13759:14582   */\n    tag_173:\n      0x00\n        /* \"--CODEGEN--\":14079:14081   */\n      0x60\n        /* \"--CODEGEN--\":14068:14077   */\n      dup3\n        /* \"--CODEGEN--\":14064:14082   */\n      add\n        /* \"--CODEGEN--\":14056:14082   */\n      swap1\n      pop\n        /* \"--CODEGEN--\":14093:14164   */\n      tag_358\n        /* \"--CODEGEN--\":14161:14162   */\n      0x00\n        /* \"--CODEGEN--\":14150:14159   */\n      dup4\n        /* \"--CODEGEN--\":14146:14163   */\n      add\n        /* \"--CODEGEN--\":14137:14143   */\n      dup5\n        /* \"--CODEGEN--\":14093:14164   */\n      jump(tag_268)\n    tag_358:\n        /* \"--CODEGEN--\":14212:14221   */\n      dup2\n        /* \"--CODEGEN--\":14206:14210   */\n      dup2\n        /* \"--CODEGEN--\":14202:14222   */\n      sub\n        /* \"--CODEGEN--\":14197:14199   */\n      0x20\n        /* \"--CODEGEN--\":14186:14195   */\n      dup4\n        /* \"--CODEGEN--\":14182:14200   */\n      add\n        /* \"--CODEGEN--\":14175:14223   */\n      mstore\n        /* \"--CODEGEN--\":14237:14368   */\n      tag_359\n        /* \"--CODEGEN--\":14363:14367   */\n      dup2\n        /* \"--CODEGEN--\":14237:14368   */\n      jump(tag_328)\n    tag_359:\n        /* \"--CODEGEN--\":14229:14368   */\n      swap1\n      pop\n        /* \"--CODEGEN--\":14416:14425   */\n      dup2\n        /* \"--CODEGEN--\":14410:14414   */\n      dup2\n        /* \"--CODEGEN--\":14406:14426   */\n      sub\n        /* \"--CODEGEN--\":14401:14403   */\n      0x40\n        /* \"--CODEGEN--\":14390:14399   */\n      dup4\n        /* \"--CODEGEN--\":14386:14404   */\n      add\n        /* \"--CODEGEN--\":14379:14427   */\n      mstore\n        /* \"--CODEGEN--\":14441:14572   */\n      tag_360\n        /* \"--CODEGEN--\":14567:14571   */\n      dup2\n        /* \"--CODEGEN--\":14441:14572   */\n      jump(tag_322)\n    tag_360:\n        /* \"--CODEGEN--\":14433:14572   */\n      swap1\n      pop\n        /* \"--CODEGEN--\":14050:14582   */\n      swap3\n      swap2\n      pop\n      pop\n      jump\n        /* \"--CODEGEN--\":14589:14950   */\n    tag_75:\n      0x00\n        /* \"--CODEGEN--\":14757:14759   */\n      0x20\n        /* \"--CODEGEN--\":14746:14755   */\n      dup3\n        /* \"--CODEGEN--\":14742:14760   */\n      add\n        /* \"--CODEGEN--\":14734:14760   */\n      swap1\n      pop\n        /* \"--CODEGEN--\":14807:14816   */\n      dup2\n        /* \"--CODEGEN--\":14801:14805   */\n      dup2\n        /* \"--CODEGEN--\":14797:14817   */\n      sub\n        /* \"--CODEGEN--\":14793:14794   */\n      0x00\n        /* \"--CODEGEN--\":14782:14791   */\n      dup4\n        /* \"--CODEGEN--\":14778:14795   */\n      add\n        /* \"--CODEGEN--\":14771:14818   */\n      mstore\n        /* \"--CODEGEN--\":14832:14940   */\n      tag_362\n        /* \"--CODEGEN--\":14935:14939   */\n      dup2\n        /* \"--CODEGEN--\":14926:14932   */\n      dup5\n        /* \"--CODEGEN--\":14832:14940   */\n      jump(tag_271)\n    tag_362:\n        /* \"--CODEGEN--\":14824:14940   */\n      swap1\n      pop\n        /* \"--CODEGEN--\":14728:14950   */\n      swap3\n      swap2\n      pop\n      pop\n      jump\n        /* \"--CODEGEN--\":14957:15158   */\n    tag_36:\n      0x00\n        /* \"--CODEGEN--\":15069:15071   */\n      0x20\n        /* \"--CODEGEN--\":15058:15067   */\n      dup3\n        /* \"--CODEGEN--\":15054:15072   */\n      add\n        /* \"--CODEGEN--\":15046:15072   */\n      swap1\n      pop\n        /* \"--CODEGEN--\":15083:15148   */\n      tag_364\n        /* \"--CODEGEN--\":15145:15146   */\n      0x00\n        /* \"--CODEGEN--\":15134:15143   */\n      dup4\n        /* \"--CODEGEN--\":15130:15147   */\n      add\n        /* \"--CODEGEN--\":15121:15127   */\n      dup5\n        /* \"--CODEGEN--\":15083:15148   */\n      jump(tag_285)\n    tag_364:\n        /* \"--CODEGEN--\":15040:15158   */\n      swap3\n      swap2\n      pop\n      pop\n      jump\n        /* \"--CODEGEN--\":15165:15466   */\n    tag_80:\n      0x00\n        /* \"--CODEGEN--\":15303:15305   */\n      0x20\n        /* \"--CODEGEN--\":15292:15301   */\n      dup3\n        /* \"--CODEGEN--\":15288:15306   */\n      add\n        /* \"--CODEGEN--\":15280:15306   */\n      swap1\n      pop\n        /* \"--CODEGEN--\":15353:15362   */\n      dup2\n        /* \"--CODEGEN--\":15347:15351   */\n      dup2\n        /* \"--CODEGEN--\":15343:15363   */\n      sub\n        /* \"--CODEGEN--\":15339:15340   */\n      0x00\n        /* \"--CODEGEN--\":15328:15337   */\n      dup4\n        /* \"--CODEGEN--\":15324:15341   */\n      add\n        /* \"--CODEGEN--\":15317:15364   */\n      mstore\n        /* \"--CODEGEN--\":15378:15456   */\n      tag_366\n        /* \"--CODEGEN--\":15451:15455   */\n      dup2\n        /* \"--CODEGEN--\":15442:15448   */\n      dup5\n        /* \"--CODEGEN--\":15378:15456   */\n      jump(tag_289)\n    tag_366:\n        /* \"--CODEGEN--\":15370:15456   */\n      swap1\n      pop\n        /* \"--CODEGEN--\":15274:15466   */\n      swap3\n      swap2\n      pop\n      pop\n      jump\n        /* \"--CODEGEN--\":15473:15885   */\n    tag_70:\n      0x00\n        /* \"--CODEGEN--\":15639:15641   */\n      0x40\n        /* \"--CODEGEN--\":15628:15637   */\n      dup3\n        /* \"--CODEGEN--\":15624:15642   */\n      add\n        /* \"--CODEGEN--\":15616:15642   */\n      swap1\n      pop\n        /* \"--CODEGEN--\":15689:15698   */\n      dup2\n        /* \"--CODEGEN--\":15683:15687   */\n      dup2\n        /* \"--CODEGEN--\":15679:15699   */\n      sub\n        /* \"--CODEGEN--\":15675:15676   */\n      0x00\n        /* \"--CODEGEN--\":15664:15673   */\n      dup4\n        /* \"--CODEGEN--\":15660:15677   */\n      add\n        /* \"--CODEGEN--\":15653:15700   */\n      mstore\n        /* \"--CODEGEN--\":15714:15792   */\n      tag_368\n        /* \"--CODEGEN--\":15787:15791   */\n      dup2\n        /* \"--CODEGEN--\":15778:15784   */\n      dup6\n        /* \"--CODEGEN--\":15714:15792   */\n      jump(tag_289)\n    tag_368:\n        /* \"--CODEGEN--\":15706:15792   */\n      swap1\n      pop\n        /* \"--CODEGEN--\":15803:15875   */\n      tag_369\n        /* \"--CODEGEN--\":15871:15873   */\n      0x20\n        /* \"--CODEGEN--\":15860:15869   */\n      dup4\n        /* \"--CODEGEN--\":15856:15874   */\n      add\n        /* \"--CODEGEN--\":15847:15853   */\n      dup5\n        /* \"--CODEGEN--\":15803:15875   */\n      jump(tag_268)\n    tag_369:\n        /* \"--CODEGEN--\":15610:15885   */\n      swap4\n      swap3\n      pop\n      pop\n      pop\n      jump\n        /* \"--CODEGEN--\":15892:16703   */\n    tag_42:\n      0x00\n        /* \"--CODEGEN--\":16154:16157   */\n      0x80\n        /* \"--CODEGEN--\":16143:16152   */\n      dup3\n        /* \"--CODEGEN--\":16139:16158   */\n      add\n        /* \"--CODEGEN--\":16131:16158   */\n      swap1\n      pop\n        /* \"--CODEGEN--\":16205:16214   */\n      dup2\n        /* \"--CODEGEN--\":16199:16203   */\n      dup2\n        /* \"--CODEGEN--\":16195:16215   */\n      sub\n        /* \"--CODEGEN--\":16191:16192   */\n      0x00\n        /* \"--CODEGEN--\":16180:16189   */\n      dup4\n        /* \"--CODEGEN--\":16176:16193   */\n      add\n        /* \"--CODEGEN--\":16169:16216   */\n      mstore\n        /* \"--CODEGEN--\":16230:16308   */\n      tag_371\n        /* \"--CODEGEN--\":16303:16307   */\n      dup2\n        /* \"--CODEGEN--\":16294:16300   */\n      dup8\n        /* \"--CODEGEN--\":16230:16308   */\n      jump(tag_289)\n    tag_371:\n        /* \"--CODEGEN--\":16222:16308   */\n      swap1\n      pop\n        /* \"--CODEGEN--\":16319:16391   */\n      tag_372\n        /* \"--CODEGEN--\":16387:16389   */\n      0x20\n        /* \"--CODEGEN--\":16376:16385   */\n      dup4\n        /* \"--CODEGEN--\":16372:16390   */\n      add\n        /* \"--CODEGEN--\":16363:16369   */\n      dup7\n        /* \"--CODEGEN--\":16319:16391   */\n      jump(tag_268)\n    tag_372:\n        /* \"--CODEGEN--\":16439:16448   */\n      dup2\n        /* \"--CODEGEN--\":16433:16437   */\n      dup2\n        /* \"--CODEGEN--\":16429:16449   */\n      sub\n        /* \"--CODEGEN--\":16424:16426   */\n      0x40\n        /* \"--CODEGEN--\":16413:16422   */\n      dup4\n        /* \"--CODEGEN--\":16409:16427   */\n      add\n        /* \"--CODEGEN--\":16402:16450   */\n      mstore\n        /* \"--CODEGEN--\":16464:16542   */\n      tag_373\n        /* \"--CODEGEN--\":16537:16541   */\n      dup2\n        /* \"--CODEGEN--\":16528:16534   */\n      dup6\n        /* \"--CODEGEN--\":16464:16542   */\n      jump(tag_289)\n    tag_373:\n        /* \"--CODEGEN--\":16456:16542   */\n      swap1\n      pop\n        /* \"--CODEGEN--\":16590:16599   */\n      dup2\n        /* \"--CODEGEN--\":16584:16588   */\n      dup2\n        /* \"--CODEGEN--\":16580:16600   */\n      sub\n        /* \"--CODEGEN--\":16575:16577   */\n      0x60\n        /* \"--CODEGEN--\":16564:16573   */\n      dup4\n        /* \"--CODEGEN--\":16560:16578   */\n      add\n        /* \"--CODEGEN--\":16553:16601   */\n      mstore\n        /* \"--CODEGEN--\":16615:16693   */\n      tag_374\n        /* \"--CODEGEN--\":16688:16692   */\n      dup2\n        /* \"--CODEGEN--\":16679:16685   */\n      dup5\n        /* \"--CODEGEN--\":16615:16693   */\n      jump(tag_289)\n    tag_374:\n        /* \"--CODEGEN--\":16607:16693   */\n      swap1\n      pop\n        /* \"--CODEGEN--\":16125:16703   */\n      swap6\n      swap5\n      pop\n      pop\n      pop\n      pop\n      pop\n      jump\n        /* \"--CODEGEN--\":16710:16923   */\n    tag_25:\n      0x00\n        /* \"--CODEGEN--\":16828:16830   */\n      0x20\n        /* \"--CODEGEN--\":16817:16826   */\n      dup3\n        /* \"--CODEGEN--\":16813:16831   */\n      add\n        /* \"--CODEGEN--\":16805:16831   */\n      swap1\n      pop\n        /* \"--CODEGEN--\":16842:16913   */\n      tag_376\n        /* \"--CODEGEN--\":16910:16911   */\n      0x00\n        /* \"--CODEGEN--\":16899:16908   */\n      dup4\n        /* \"--CODEGEN--\":16895:16912   */\n      add\n        /* \"--CODEGEN--\":16886:16892   */\n      dup5\n        /* \"--CODEGEN--\":16842:16913   */\n      jump(tag_331)\n    tag_376:\n        /* \"--CODEGEN--\":16799:16923   */\n      swap3\n      swap2\n      pop\n      pop\n      jump\n        /* \"--CODEGEN--\":16930:17186   */\n    tag_209:\n      0x00\n        /* \"--CODEGEN--\":16992:16994   */\n      0x40\n        /* \"--CODEGEN--\":16986:16995   */\n      mload\n        /* \"--CODEGEN--\":16976:16995   */\n      swap1\n      pop\n        /* \"--CODEGEN--\":17030:17034   */\n      dup2\n        /* \"--CODEGEN--\":17022:17028   */\n      dup2\n        /* \"--CODEGEN--\":17018:17035   */\n      add\n        /* \"--CODEGEN--\":17129:17135   */\n      dup2\n        /* \"--CODEGEN--\":17117:17127   */\n      dup2\n        /* \"--CODEGEN--\":17114:17136   */\n      lt\n        /* \"--CODEGEN--\":17093:17111   */\n      0xffffffffffffffff\n        /* \"--CODEGEN--\":17081:17091   */\n      dup3\n        /* \"--CODEGEN--\":17078:17112   */\n      gt\n        /* \"--CODEGEN--\":17075:17137   */\n      or\n        /* \"--CODEGEN--\":17072:17074   */\n      iszero\n      tag_378\n      jumpi\n        /* \"--CODEGEN--\":17150:17151   */\n      0x00\n        /* \"--CODEGEN--\":17147:17148   */\n      dup1\n        /* \"--CODEGEN--\":17140:17152   */\n      revert\n        /* \"--CODEGEN--\":17072:17074   */\n    tag_378:\n        /* \"--CODEGEN--\":17170:17180   */\n      dup1\n        /* \"--CODEGEN--\":17166:17168   */\n      0x40\n        /* \"--CODEGEN--\":17159:17181   */\n      mstore\n        /* \"--CODEGEN--\":16970:17186   */\n      pop\n      swap2\n      swap1\n      pop\n      jump\n        /* \"--CODEGEN--\":17193:17515   */\n    tag_208:\n      0x00\n        /* \"--CODEGEN--\":17337:17355   */\n      0xffffffffffffffff\n        /* \"--CODEGEN--\":17329:17335   */\n      dup3\n        /* \"--CODEGEN--\":17326:17356   */\n      gt\n        /* \"--CODEGEN--\":17323:17325   */\n      iszero\n      tag_380\n      jumpi\n        /* \"--CODEGEN--\":17369:17370   */\n      0x00\n        /* \"--CODEGEN--\":17366:17367   */\n      dup1\n        /* \"--CODEGEN--\":17359:17371   */\n      revert\n        /* \"--CODEGEN--\":17323:17325   */\n    tag_380:\n        /* \"--CODEGEN--\":17436:17440   */\n      0x1f\n        /* \"--CODEGEN--\":17432:17441   */\n      not\n        /* \"--CODEGEN--\":17425:17429   */\n      0x1f\n        /* \"--CODEGEN--\":17417:17423   */\n      dup4\n        /* \"--CODEGEN--\":17413:17430   */\n      add\n        /* \"--CODEGEN--\":17409:17442   */\n      and\n        /* \"--CODEGEN--\":17401:17442   */\n      swap1\n      pop\n        /* \"--CODEGEN--\":17500:17504   */\n      0x20\n        /* \"--CODEGEN--\":17494:17498   */\n      dup2\n        /* \"--CODEGEN--\":17490:17505   */\n      add\n        /* \"--CODEGEN--\":17482:17505   */\n      swap1\n      pop\n        /* \"--CODEGEN--\":17260:17515   */\n      swap2\n      swap1\n      pop\n      jump\n        /* \"--CODEGEN--\":17522:17673   */\n    tag_278:\n      0x00\n        /* \"--CODEGEN--\":17608:17611   */\n      dup2\n        /* \"--CODEGEN--\":17600:17611   */\n      swap1\n      pop\n        /* \"--CODEGEN--\":17646:17650   */\n      0x20\n        /* \"--CODEGEN--\":17641:17644   */\n      dup3\n        /* \"--CODEGEN--\":17637:17651   */\n      add\n        /* \"--CODEGEN--\":17629:17651   */\n      swap1\n      pop\n        /* \"--CODEGEN--\":17594:17673   */\n      swap2\n      swap1\n      pop\n      jump\n        /* \"--CODEGEN--\":17680:17817   */\n    tag_274:\n      0x00\n        /* \"--CODEGEN--\":17789:17794   */\n      dup2\n        /* \"--CODEGEN--\":17783:17795   */\n      mload\n        /* \"--CODEGEN--\":17773:17795   */\n      swap1\n      pop\n        /* \"--CODEGEN--\":17754:17817   */\n      swap2\n      swap1\n      pop\n      jump\n        /* \"--CODEGEN--\":17824:17946   */\n    tag_292:\n      0x00\n        /* \"--CODEGEN--\":17918:17923   */\n      dup2\n        /* \"--CODEGEN--\":17912:17924   */\n      mload\n        /* \"--CODEGEN--\":17902:17924   */\n      swap1\n      pop\n        /* \"--CODEGEN--\":17883:17946   */\n      swap2\n      swap1\n      pop\n      jump\n        /* \"--CODEGEN--\":17953:18061   */\n    tag_284:\n      0x00\n        /* \"--CODEGEN--\":18051:18055   */\n      0x20\n        /* \"--CODEGEN--\":18046:18049   */\n      dup3\n        /* \"--CODEGEN--\":18042:18056   */\n      add\n        /* \"--CODEGEN--\":18034:18056   */\n      swap1\n      pop\n        /* \"--CODEGEN--\":18028:18061   */\n      swap2\n      swap1\n      pop\n      jump\n        /* \"--CODEGEN--\":18069:18247   */\n    tag_276:\n      0x00\n        /* \"--CODEGEN--\":18199:18205   */\n      dup3\n        /* \"--CODEGEN--\":18194:18197   */\n      dup3\n        /* \"--CODEGEN--\":18187:18206   */\n      mstore\n        /* \"--CODEGEN--\":18236:18240   */\n      0x20\n        /* \"--CODEGEN--\":18231:18234   */\n      dup3\n        /* \"--CODEGEN--\":18227:18241   */\n      add\n        /* \"--CODEGEN--\":18212:18241   */\n      swap1\n      pop\n        /* \"--CODEGEN--\":18180:18247   */\n      swap3\n      swap2\n      pop\n      pop\n      jump\n        /* \"--CODEGEN--\":18256:18419   */\n    tag_294:\n      0x00\n        /* \"--CODEGEN--\":18371:18377   */\n      dup3\n        /* \"--CODEGEN--\":18366:18369   */\n      dup3\n        /* \"--CODEGEN--\":18359:18378   */\n      mstore\n        /* \"--CODEGEN--\":18408:18412   */\n      0x20\n        /* \"--CODEGEN--\":18403:18406   */\n      dup3\n        /* \"--CODEGEN--\":18399:18413   */\n      add\n        /* \"--CODEGEN--\":18384:18413   */\n      swap1\n      pop\n        /* \"--CODEGEN--\":18352:18419   */\n      swap3\n      swap2\n      pop\n      pop\n      jump\n        /* \"--CODEGEN--\":18428:18573   */\n    tag_302:\n      0x00\n        /* \"--CODEGEN--\":18564:18567   */\n      dup2\n        /* \"--CODEGEN--\":18549:18567   */\n      swap1\n      pop\n        /* \"--CODEGEN--\":18542:18573   */\n      swap3\n      swap2\n      pop\n      pop\n      jump\n        /* \"--CODEGEN--\":18581:18672   */\n    tag_267:\n      0x00\n        /* \"--CODEGEN--\":18643:18667   */\n      tag_389\n        /* \"--CODEGEN--\":18661:18666   */\n      dup3\n        /* \"--CODEGEN--\":18643:18667   */\n      jump(tag_390)\n    tag_389:\n        /* \"--CODEGEN--\":18632:18667   */\n      swap1\n      pop\n        /* \"--CODEGEN--\":18626:18672   */\n      swap2\n      swap1\n      pop\n      jump\n        /* \"--CODEGEN--\":18679:18764   */\n    tag_288:\n      0x00\n        /* \"--CODEGEN--\":18752:18757   */\n      dup2\n        /* \"--CODEGEN--\":18745:18758   */\n      iszero\n        /* \"--CODEGEN--\":18738:18759   */\n      iszero\n        /* \"--CODEGEN--\":18727:18759   */\n      swap1\n      pop\n        /* \"--CODEGEN--\":18721:18764   */\n      swap2\n      swap1\n      pop\n      jump\n        /* \"--CODEGEN--\":18771:18892   */\n    tag_390:\n      0x00\n        /* \"--CODEGEN--\":18844:18886   */\n      0xffffffffffffffffffffffffffffffffffffffff\n        /* \"--CODEGEN--\":18837:18842   */\n      dup3\n        /* \"--CODEGEN--\":18833:18887   */\n      and\n        /* \"--CODEGEN--\":18822:18887   */\n      swap1\n      pop\n        /* \"--CODEGEN--\":18816:18892   */\n      swap2\n      swap1\n      pop\n      jump\n        /* \"--CODEGEN--\":18899:18971   */\n    tag_334:\n      0x00\n        /* \"--CODEGEN--\":18961:18966   */\n      dup2\n        /* \"--CODEGEN--\":18950:18966   */\n      swap1\n      pop\n        /* \"--CODEGEN--\":18944:18971   */\n      swap2\n      swap1\n      pop\n      jump\n        /* \"--CODEGEN--\":18979:19124   */\n    tag_212:\n        /* \"--CODEGEN--\":19060:19066   */\n      dup3\n        /* \"--CODEGEN--\":19055:19058   */\n      dup2\n        /* \"--CODEGEN--\":19050:19053   */\n      dup4\n        /* \"--CODEGEN--\":19037:19067   */\n      calldatacopy\n        /* \"--CODEGEN--\":19116:19117   */\n      0x00\n        /* \"--CODEGEN--\":19107:19113   */\n      dup4\n        /* \"--CODEGEN--\":19102:19105   */\n      dup4\n        /* \"--CODEGEN--\":19098:19114   */\n      add\n        /* \"--CODEGEN--\":19091:19118   */\n      mstore\n        /* \"--CODEGEN--\":19030:19124   */\n      pop\n      pop\n      pop\n      jump\n        /* \"--CODEGEN--\":19133:19401   */\n    tag_220:\n        /* \"--CODEGEN--\":19198:19199   */\n      0x00\n        /* \"--CODEGEN--\":19205:19306   */\n    tag_396:\n        /* \"--CODEGEN--\":19219:19225   */\n      dup4\n        /* \"--CODEGEN--\":19216:19217   */\n      dup2\n        /* \"--CODEGEN--\":19213:19226   */\n      lt\n        /* \"--CODEGEN--\":19205:19306   */\n      iszero\n      tag_398\n      jumpi\n        /* \"--CODEGEN--\":19295:19296   */\n      dup1\n        /* \"--CODEGEN--\":19290:19293   */\n      dup3\n        /* \"--CODEGEN--\":19286:19297   */\n      add\n        /* \"--CODEGEN--\":19280:19298   */\n      mload\n        /* \"--CODEGEN--\":19276:19277   */\n      dup2\n        /* \"--CODEGEN--\":19271:19274   */\n      dup5\n        /* \"--CODEGEN--\":19267:19278   */\n      add\n        /* \"--CODEGEN--\":19260:19299   */\n      mstore\n        /* \"--CODEGEN--\":19241:19243   */\n      0x20\n        /* \"--CODEGEN--\":19238:19239   */\n      dup2\n        /* \"--CODEGEN--\":19234:19244   */\n      add\n        /* \"--CODEGEN--\":19229:19244   */\n      swap1\n      pop\n        /* \"--CODEGEN--\":19205:19306   */\n      jump(tag_396)\n    tag_398:\n        /* \"--CODEGEN--\":19321:19327   */\n      dup4\n        /* \"--CODEGEN--\":19318:19319   */\n      dup2\n        /* \"--CODEGEN--\":19315:19328   */\n      gt\n        /* \"--CODEGEN--\":19312:19314   */\n      iszero\n      tag_399\n      jumpi\n        /* \"--CODEGEN--\":19386:19387   */\n      0x00\n        /* \"--CODEGEN--\":19377:19383   */\n      dup5\n        /* \"--CODEGEN--\":19372:19375   */\n      dup5\n        /* \"--CODEGEN--\":19368:19384   */\n      add\n        /* \"--CODEGEN--\":19361:19388   */\n      mstore\n        /* \"--CODEGEN--\":19312:19314   */\n    tag_399:\n        /* \"--CODEGEN--\":19182:19401   */\n      pop\n      pop\n      pop\n      pop\n      jump\n        /* \"--CODEGEN--\":19409:19506   */\n    tag_297:\n      0x00\n        /* \"--CODEGEN--\":19497:19499   */\n      0x1f\n        /* \"--CODEGEN--\":19493:19500   */\n      not\n        /* \"--CODEGEN--\":19488:19490   */\n      0x1f\n        /* \"--CODEGEN--\":19481:19486   */\n      dup4\n        /* \"--CODEGEN--\":19477:19491   */\n      add\n        /* \"--CODEGEN--\":19473:19501   */\n      and\n        /* \"--CODEGEN--\":19463:19501   */\n      swap1\n      pop\n        /* \"--CODEGEN--\":19457:19506   */\n      swap2\n      swap1\n      pop\n      jump\n        /* \"--CODEGEN--\":19514:19631   */\n    tag_202:\n        /* \"--CODEGEN--\":19583:19607   */\n      tag_402\n        /* \"--CODEGEN--\":19601:19606   */\n      dup2\n        /* \"--CODEGEN--\":19583:19607   */\n      jump(tag_267)\n    tag_402:\n        /* \"--CODEGEN--\":19576:19581   */\n      dup2\n        /* \"--CODEGEN--\":19573:19608   */\n      eq\n        /* \"--CODEGEN--\":19563:19565   */\n      tag_403\n      jumpi\n        /* \"--CODEGEN--\":19622:19623   */\n      0x00\n        /* \"--CODEGEN--\":19619:19620   */\n      dup1\n        /* \"--CODEGEN--\":19612:19624   */\n      revert\n        /* \"--CODEGEN--\":19563:19565   */\n    tag_403:\n        /* \"--CODEGEN--\":19557:19631   */\n      pop\n      jump\n        /* \"--CODEGEN--\":19638:19755   */\n    tag_224:\n        /* \"--CODEGEN--\":19707:19731   */\n      tag_405\n        /* \"--CODEGEN--\":19725:19730   */\n      dup2\n        /* \"--CODEGEN--\":19707:19731   */\n      jump(tag_334)\n    tag_405:\n        /* \"--CODEGEN--\":19700:19705   */\n      dup2\n        /* \"--CODEGEN--\":19697:19732   */\n      eq\n        /* \"--CODEGEN--\":19687:19689   */\n      tag_406\n      jumpi\n        /* \"--CODEGEN--\":19746:19747   */\n      0x00\n        /* \"--CODEGEN--\":19743:19744   */\n      dup1\n        /* \"--CODEGEN--\":19736:19748   */\n      revert\n        /* \"--CODEGEN--\":19687:19689   */\n    tag_406:\n        /* \"--CODEGEN--\":19681:19755   */\n      pop\n      jump\n\n    auxdata: 0xa2646970667358221220cca72dd6e790c9aca089fea3c306426bcbe1f2b112e89d093e0d439679aa2e3264736f6c63430006060033\n}\n","bytecode":{"linkReferences":{},"object":"60806040527382909e8ec9ec085540bc0c7ea5f3ba1fd9425fa6600260006101000a81548173ffffffffffffffffffffffffffffffffffffffff021916908373ffffffffffffffffffffffffffffffffffffffff16021790555034801561006557600080fd5b5033600160006101000a81548173ffffffffffffffffffffffffffffffffffffffff021916908373ffffffffffffffffffffffffffffffffffffffff160217905550611cc7806100b66000396000f3fe608060405234801561001057600080fd5b50600436106101005760003560e01c806361f0eff9116100975780638a7f7f46116100665780638a7f7f461461030f578063be87a9751461033f578063c89778b41461036f578063fe2f3d8e1461038d57610100565b806361f0eff91461024e578063719c0d041461027e5780637858b264146102af57806382c10560146102df57610100565b80633afe4f7c116100d35780633afe4f7c146101b65780634bc395bb146101e65780635624e7c9146102165780635f460c911461023257610100565b806301307b37146101055780631bd95155146101235780632dd8e5f0146101535780632e2cde3a14610183575b600080fd5b61010d6103ab565b60405161011a9190611af4565b60405180910390f35b61013d600480360381019061013891906113cd565b6103b7565b60405161014a9190611af4565b60405180910390f35b61016d600480360381019061016891906112d8565b610430565b60405161017a9190611a2d565b60405180910390f35b61019d60048036038101906101989190611301565b610553565b6040516101ad9493929190611a9a565b60405180910390f35b6101d060048036038101906101cb9190611301565b610778565b6040516101dd9190611a2d565b60405180910390f35b61020060048036038101906101fb9190611391565b61083c565b60405161020d91906118ab565b60405180910390f35b610230600480360381019061022b919061133d565b610887565b005b61024c6004803603810190610247919061144f565b6109ab565b005b61026860048036038101906102639190611301565b610be8565b6040516102759190611a2d565b60405180910390f35b610298600480360381019061029391906114fa565b610cea565b6040516102a6929190611a6a565b60405180910390f35b6102c960048036038101906102c491906112d8565b610dd3565b6040516102d69190611a0b565b60405180910390f35b6102f960048036038101906102f49190611301565b610ea0565b6040516103069190611a48565b60405180910390f35b610329600480360381019061032491906112d8565b610f44565b6040516103369190611af4565b60405180910390f35b610359600480360381019061035491906112d8565b610f90565b6040516103669190611a2d565b60405180910390f35b6103776110a7565b60405161038491906118ab565b60405180910390f35b6103956110cd565b6040516103a291906118ab565b60405180910390f35b60008080549050905090565b6000606082905060008060009050600091505b82518210156104255760008383815181106103e157fe5b602001015160f81c60f81b60f81c60ff16905060308110158015610406575060398111155b156104175760308103600a83020191505b5081806001019250506103ca565b809350505050919050565b60008082905060608173ffffffffffffffffffffffffffffffffffffffff16638cba76b1600260009054906101000a900473ffffffffffffffffffffffffffffffffffffffff166040518263ffffffff1660e01b815260040161049391906118c6565b60006040518083038186803b1580156104ab57600080fd5b505afa1580156104bf573d6000803e3d6000fd5b505050506040513d6000823e3d601f19601f820116820180604052508101906104e8919061140e565b90506040516020016104f990611896565b6040516020818303038152906040528051906020012081604051602001610520919061187f565b6040516020818303038152906040528051906020012014156105475760019250505061054e565b6000925050505b919050565b600560205281600052604060002060205280600052604060002060009150915050806000018054600181600116156101000203166002900480601f01602080910402602001604051908101604052809291908181526020018280546001816001161561010002031660029004801561060c5780601f106105e15761010080835404028352916020019161060c565b820191906000526020600020905b8154815290600101906020018083116105ef57829003601f168201915b5050505050908060010160009054906101000a900473ffffffffffffffffffffffffffffffffffffffff1690806002018054600181600116156101000203166002900480601f0160208091040260200160405190810160405280929190818152602001828054600181600116156101000203166002900480156106d05780601f106106a5576101008083540402835291602001916106d0565b820191906000526020600020905b8154815290600101906020018083116106b357829003601f168201915b505050505090806003018054600181600116156101000203166002900480601f01602080910402602001604051908101604052809291908181526020018280546001816001161561010002031660029004801561076e5780601f106107435761010080835404028352916020019161076e565b820191906000526020600020905b81548152906001019060200180831161075157829003601f168201915b5050505050905084565b60008083905060006108168273ffffffffffffffffffffffffffffffffffffffff16638cba76b1866040518263ffffffff1660e01b81526004016107bc9190611948565b60006040518083038186803b1580156107d457600080fd5b505afa1580156107e8573d6000803e3d6000fd5b505050506040513d6000823e3d601f19601f82011682018060405250810190610811919061140e565b6103b7565b9050806103e84202101561082f57600192505050610836565b6000925050505b92915050565b6006602052816000526040600020818154811061085557fe5b906000526020600020016000915091509054906101000a900473ffffffffffffffffffffffffffffffffffffffff1681565b61088f6110f3565b60405180604001604052808381526020018473ffffffffffffffffffffffffffffffffffffffff16815250905060008190806001815401808255809150506001900390600052602060002090600202016000909190919091506000820151816000019080519060200190610904929190611123565b5060208201518160010160006101000a81548173ffffffffffffffffffffffffffffffffffffffff021916908373ffffffffffffffffffffffffffffffffffffffff16021790555050506001600360008573ffffffffffffffffffffffffffffffffffffffff1673ffffffffffffffffffffffffffffffffffffffff16815260200190815260200160002060006101000a81548160ff021916908315150217905550505050565b6109b36111a3565b60405180608001604052808481526020018573ffffffffffffffffffffffffffffffffffffffff16815260200186815260200183815250905060016004866040516109fe919061187f565b908152602001604051809103902060006101000a81548160ff021916908315150217905550600660003373ffffffffffffffffffffffffffffffffffffffff1673ffffffffffffffffffffffffffffffffffffffff168152602001908152602001600020849080600181540180825580915050600190039060005260206000200160009091909190916101000a81548173ffffffffffffffffffffffffffffffffffffffff021916908373ffffffffffffffffffffffffffffffffffffffff16021790555080600560003373ffffffffffffffffffffffffffffffffffffffff1673ffffffffffffffffffffffffffffffffffffffff16815260200190815260200160002060008673ffffffffffffffffffffffffffffffffffffffff1673ffffffffffffffffffffffffffffffffffffffff1681526020019081526020016000206000820151816000019080519060200190610b5c929190611123565b5060208201518160010160006101000a81548173ffffffffffffffffffffffffffffffffffffffff021916908373ffffffffffffffffffffffffffffffffffffffff1602179055506040820151816002019080519060200190610bc0929190611123565b506060820151816003019080519060200190610bdd929190611123565b509050505050505050565b60008083905060608173ffffffffffffffffffffffffffffffffffffffff16638cba76b1856040518263ffffffff1660e01b8152600401610c299190611989565b60006040518083038186803b158015610c4157600080fd5b505afa158015610c55573d6000803e3d6000fd5b505050506040513d6000823e3d601f19601f82011682018060405250810190610c7e919061140e565b9050604051602001610c8f90611896565b6040516020818303038152906040528051906020012081604051602001610cb6919061187f565b604051602081830303815290604052805190602001201415610cdd57600192505050610ce4565b6000925050505b92915050565b60008181548110610cf757fe5b9060005260206000209060020201600091509050806000018054600181600116156101000203166002900480601f016020809104026020016040519081016040528092919081815260200182805460018160011615610100020316600290048015610da35780601f10610d7857610100808354040283529160200191610da3565b820191906000526020600020905b815481529060010190602001808311610d8657829003601f168201915b5050505050908060010160009054906101000a900473ffffffffffffffffffffffffffffffffffffffff16905082565b6060600660008373ffffffffffffffffffffffffffffffffffffffff1673ffffffffffffffffffffffffffffffffffffffff168152602001908152602001600020805480602002602001604051908101604052809291908181526020018280548015610e9457602002820191906000526020600020905b8160009054906101000a900473ffffffffffffffffffffffffffffffffffffffff1673ffffffffffffffffffffffffffffffffffffffff1681526020019060010190808311610e4a575b50505050509050919050565b6060600083905060608173ffffffffffffffffffffffffffffffffffffffff16638cba76b1856040518263ffffffff1660e01b8152600401610ee291906119ca565b60006040518083038186803b158015610efa57600080fd5b505afa158015610f0e573d6000803e3d6000fd5b505050506040513d6000823e3d601f19601f82011682018060405250810190610f37919061140e565b9050809250505092915050565b6000600660008373ffffffffffffffffffffffffffffffffffffffff1673ffffffffffffffffffffffffffffffffffffffff168152602001908152602001600020805490509050919050565b60008082905060608173ffffffffffffffffffffffffffffffffffffffff16638cba76b1600260009054906101000a900473ffffffffffffffffffffffffffffffffffffffff166040518263ffffffff1660e01b8152600401610ff39190611907565b60006040518083038186803b15801561100b57600080fd5b505afa15801561101f573d6000803e3d6000fd5b505050506040513d6000823e3d601f19601f82011682018060405250810190611048919061140e565b905060405160200161105990611896565b6040516020818303038152906040528051906020012081604051602001611080919061187f565b60405160208183030381529060405280519060200120146110a057600080fd5b5050919050565b600260009054906101000a900473ffffffffffffffffffffffffffffffffffffffff1681565b600160009054906101000a900473ffffffffffffffffffffffffffffffffffffffff1681565b604051806040016040528060608152602001600073ffffffffffffffffffffffffffffffffffffffff1681525090565b828054600181600116156101000203166002900490600052602060002090601f016020900481019282601f1061116457805160ff1916838001178555611192565b82800160010185558215611192579182015b82811115611191578251825591602001919060010190611176565b5b50905061119f91906111e1565b5090565b604051806080016040528060608152602001600073ffffffffffffffffffffffffffffffffffffffff16815260200160608152602001606081525090565b61120391905b808211156111ff5760008160009055506001016111e7565b5090565b90565b60008135905061121581611c63565b92915050565b600082601f83011261122c57600080fd5b813561123f61123a82611b3c565b611b0f565b9150808252602083016020830185838301111561125b57600080fd5b611266838284611c10565b50505092915050565b600082601f83011261128057600080fd5b815161129361128e82611b3c565b611b0f565b915080825260208301602083018583830111156112af57600080fd5b6112ba838284611c1f565b50505092915050565b6000813590506112d281611c7a565b92915050565b6000602082840312156112ea57600080fd5b60006112f884828501611206565b91505092915050565b6000806040838503121561131457600080fd5b600061132285828601611206565b925050602061133385828601611206565b9150509250929050565b6000806040838503121561135057600080fd5b600061135e85828601611206565b925050602083013567ffffffffffffffff81111561137b57600080fd5b6113878582860161121b565b9150509250929050565b600080604083850312156113a457600080fd5b60006113b285828601611206565b92505060206113c3858286016112c3565b9150509250929050565b6000602082840312156113df57600080fd5b600082013567ffffffffffffffff8111156113f957600080fd5b6114058482850161121b565b91505092915050565b60006020828403121561142057600080fd5b600082015167ffffffffffffffff81111561143a57600080fd5b6114468482850161126f565b91505092915050565b6000806000806080858703121561146557600080fd5b600085013567ffffffffffffffff81111561147f57600080fd5b61148b8782880161121b565b945050602061149c87828801611206565b935050604085013567ffffffffffffffff8111156114b957600080fd5b6114c58782880161121b565b925050606085013567ffffffffffffffff8111156114e257600080fd5b6114ee8782880161121b565b91505092959194509250565b60006020828403121561150c57600080fd5b600061151a848285016112c3565b91505092915050565b600061152f838361153b565b60208301905092915050565b61154481611bc8565b82525050565b61155381611bc8565b82525050565b600061156482611b78565b61156e8185611b9b565b935061157983611b68565b8060005b838110156115aa5781516115918882611523565b975061159c83611b8e565b92505060018101905061157d565b5085935050505092915050565b6115c081611bda565b82525050565b60006115d182611b83565b6115db8185611bac565b93506115eb818560208601611c1f565b6115f481611c52565b840191505092915050565b600061160a82611b83565b6116148185611bbd565b9350611624818560208601611c1f565b80840191505092915050565b600061163d601283611bac565b91507f4365727469666963617465456e644461746500000000000000000000000000006000830152602082019050919050565b600061167d600b83611bac565b91507f69734772616475617465640000000000000000000000000000000000000000006000830152602082019050919050565b60006116bd601183611bac565b91507f7363686f6f6c43657274696669636174650000000000000000000000000000006000830152602082019050919050565b60006116fd600883611bac565b91507f69735363686f6f6c0000000000000000000000000000000000000000000000006000830152602082019050919050565b600061173d600383611bbd565b91507f59657300000000000000000000000000000000000000000000000000000000006000830152600382019050919050565b600061177d600b83611bac565b91507f63657274696669636174650000000000000000000000000000000000000000006000830152602082019050919050565b60006117bd600883611bac565b91507f49504653686173680000000000000000000000000000000000000000000000006000830152602082019050919050565b60006117fd600a83611bac565b91507f69734d696e6973747279000000000000000000000000000000000000000000006000830152602082019050919050565b600061183d600783611bac565b91507f6469706c6f6d61000000000000000000000000000000000000000000000000006000830152602082019050919050565b61187981611c06565b82525050565b600061188b82846115ff565b915081905092915050565b60006118a182611730565b9150819050919050565b60006020820190506118c0600083018461154a565b92915050565b60006060820190506118db600083018461154a565b81810360208301526118ec816116b0565b905081810360408301526118ff816116f0565b905092915050565b600060608201905061191c600083018461154a565b818103602083015261192d81611770565b90508181036040830152611940816117f0565b905092915050565b600060608201905061195d600083018461154a565b818103602083015261196e81611830565b9050818103604083015261198181611630565b905092915050565b600060608201905061199e600083018461154a565b81810360208301526119af81611830565b905081810360408301526119c281611670565b905092915050565b60006060820190506119df600083018461154a565b81810360208301526119f081611830565b90508181036040830152611a03816117b0565b905092915050565b60006020820190508181036000830152611a258184611559565b905092915050565b6000602082019050611a4260008301846115b7565b92915050565b60006020820190508181036000830152611a6281846115c6565b905092915050565b60006040820190508181036000830152611a8481856115c6565b9050611a93602083018461154a565b9392505050565b60006080820190508181036000830152611ab481876115c6565b9050611ac3602083018661154a565b8181036040830152611ad581856115c6565b90508181036060830152611ae981846115c6565b905095945050505050565b6000602082019050611b096000830184611870565b92915050565b6000604051905081810181811067ffffffffffffffff82111715611b3257600080fd5b8060405250919050565b600067ffffffffffffffff821115611b5357600080fd5b601f19601f8301169050602081019050919050565b6000819050602082019050919050565b600081519050919050565b600081519050919050565b6000602082019050919050565b600082825260208201905092915050565b600082825260208201905092915050565b600081905092915050565b6000611bd382611be6565b9050919050565b60008115159050919050565b600073ffffffffffffffffffffffffffffffffffffffff82169050919050565b6000819050919050565b82818337600083830152505050565b60005b83811015611c3d578082015181840152602081019050611c22565b83811115611c4c576000848401525b50505050565b6000601f19601f8301169050919050565b611c6c81611bc8565b8114611c7757600080fd5b50565b611c8381611c06565b8114611c8e57600080fd5b5056fea2646970667358221220cca72dd6e790c9aca089fea3c306426bcbe1f2b112e89d093e0d439679aa2e3264736f6c63430006060033","opcodes":"PUSH1 0x80 PUSH1 0x40 MSTORE PUSH20 0x82909E8EC9EC085540BC0C7EA5F3BA1FD9425FA6 PUSH1 0x2 PUSH1 0x0 PUSH2 0x100 EXP DUP2 SLOAD DUP2 PUSH20 0xFFFFFFFFFFFFFFFFFFFFFFFFFFFFFFFFFFFFFFFF MUL NOT AND SWAP1 DUP4 PUSH20 0xFFFFFFFFFFFFFFFFFFFFFFFFFFFFFFFFFFFFFFFF AND MUL OR SWAP1 SSTORE POP CALLVALUE DUP1 ISZERO PUSH2 0x65 JUMPI PUSH1 0x0 DUP1 REVERT JUMPDEST POP CALLER PUSH1 0x1 PUSH1 0x0 PUSH2 0x100 EXP DUP2 SLOAD DUP2 PUSH20 0xFFFFFFFFFFFFFFFFFFFFFFFFFFFFFFFFFFFFFFFF MUL NOT AND SWAP1 DUP4 PUSH20 0xFFFFFFFFFFFFFFFFFFFFFFFFFFFFFFFFFFFFFFFF AND MUL OR SWAP1 SSTORE POP PUSH2 0x1CC7 DUP1 PUSH2 0xB6 PUSH1 0x0 CODECOPY PUSH1 0x0 RETURN INVALID PUSH1 0x80 PUSH1 0x40 MSTORE CALLVALUE DUP1 ISZERO PUSH2 0x10 JUMPI PUSH1 0x0 DUP1 REVERT JUMPDEST POP PUSH1 0x4 CALLDATASIZE LT PUSH2 0x100 JUMPI PUSH1 0x0 CALLDATALOAD PUSH1 0xE0 SHR DUP1 PUSH4 0x61F0EFF9 GT PUSH2 0x97 JUMPI DUP1 PUSH4 0x8A7F7F46 GT PUSH2 0x66 JUMPI DUP1 PUSH4 0x8A7F7F46 EQ PUSH2 0x30F JUMPI DUP1 PUSH4 0xBE87A975 EQ PUSH2 0x33F JUMPI DUP1 PUSH4 0xC89778B4 EQ PUSH2 0x36F JUMPI DUP1 PUSH4 0xFE2F3D8E EQ PUSH2 0x38D JUMPI PUSH2 0x100 JUMP JUMPDEST DUP1 PUSH4 0x61F0EFF9 EQ PUSH2 0x24E JUMPI DUP1 PUSH4 0x719C0D04 EQ PUSH2 0x27E JUMPI DUP1 PUSH4 0x7858B264 EQ PUSH2 0x2AF JUMPI DUP1 PUSH4 0x82C10560 EQ PUSH2 0x2DF JUMPI PUSH2 0x100 JUMP JUMPDEST DUP1 PUSH4 0x3AFE4F7C GT PUSH2 0xD3 JUMPI DUP1 PUSH4 0x3AFE4F7C EQ PUSH2 0x1B6 JUMPI DUP1 PUSH4 0x4BC395BB EQ PUSH2 0x1E6 JUMPI DUP1 PUSH4 0x5624E7C9 EQ PUSH2 0x216 JUMPI DUP1 PUSH4 0x5F460C91 EQ PUSH2 0x232 JUMPI PUSH2 0x100 JUMP JUMPDEST DUP1 PUSH4 0x1307B37 EQ PUSH2 0x105 JUMPI DUP1 PUSH4 0x1BD95155 EQ PUSH2 0x123 JUMPI DUP1 PUSH4 0x2DD8E5F0 EQ PUSH2 0x153 JUMPI DUP1 PUSH4 0x2E2CDE3A EQ PUSH2 0x183 JUMPI JUMPDEST PUSH1 0x0 DUP1 REVERT JUMPDEST PUSH2 0x10D PUSH2 0x3AB JUMP JUMPDEST PUSH1 0x40 MLOAD PUSH2 0x11A SWAP2 SWAP1 PUSH2 0x1AF4 JUMP JUMPDEST PUSH1 0x40 MLOAD DUP1 SWAP2 SUB SWAP1 RETURN JUMPDEST PUSH2 0x13D PUSH1 0x4 DUP1 CALLDATASIZE SUB DUP2 ADD SWAP1 PUSH2 0x138 SWAP2 SWAP1 PUSH2 0x13CD JUMP JUMPDEST PUSH2 0x3B7 JUMP JUMPDEST PUSH1 0x40 MLOAD PUSH2 0x14A SWAP2 SWAP1 PUSH2 0x1AF4 JUMP JUMPDEST PUSH1 0x40 MLOAD DUP1 SWAP2 SUB SWAP1 RETURN JUMPDEST PUSH2 0x16D PUSH1 0x4 DUP1 CALLDATASIZE SUB DUP2 ADD SWAP1 PUSH2 0x168 SWAP2 SWAP1 PUSH2 0x12D8 JUMP JUMPDEST PUSH2 0x430 JUMP JUMPDEST PUSH1 0x40 MLOAD PUSH2 0x17A SWAP2 SWAP1 PUSH2 0x1A2D JUMP JUMPDEST PUSH1 0x40 MLOAD DUP1 SWAP2 SUB SWAP1 RETURN JUMPDEST PUSH2 0x19D PUSH1 0x4 DUP1 CALLDATASIZE SUB DUP2 ADD SWAP1 PUSH2 0x198 SWAP2 SWAP1 PUSH2 0x1301 JUMP JUMPDEST PUSH2 0x553 JUMP JUMPDEST PUSH1 0x40 MLOAD PUSH2 0x1AD SWAP5 SWAP4 SWAP3 SWAP2 SWAP1 PUSH2 0x1A9A JUMP JUMPDEST PUSH1 0x40 MLOAD DUP1 SWAP2 SUB SWAP1 RETURN JUMPDEST PUSH2 0x1D0 PUSH1 0x4 DUP1 CALLDATASIZE SUB DUP2 ADD SWAP1 PUSH2 0x1CB SWAP2 SWAP1 PUSH2 0x1301 JUMP JUMPDEST PUSH2 0x778 JUMP JUMPDEST PUSH1 0x40 MLOAD PUSH2 0x1DD SWAP2 SWAP1 PUSH2 0x1A2D JUMP JUMPDEST PUSH1 0x40 MLOAD DUP1 SWAP2 SUB SWAP1 RETURN JUMPDEST PUSH2 0x200 PUSH1 0x4 DUP1 CALLDATASIZE SUB DUP2 ADD SWAP1 PUSH2 0x1FB SWAP2 SWAP1 PUSH2 0x1391 JUMP JUMPDEST PUSH2 0x83C JUMP JUMPDEST PUSH1 0x40 MLOAD PUSH2 0x20D SWAP2 SWAP1 PUSH2 0x18AB JUMP JUMPDEST PUSH1 0x40 MLOAD DUP1 SWAP2 SUB SWAP1 RETURN JUMPDEST PUSH2 0x230 PUSH1 0x4 DUP1 CALLDATASIZE SUB DUP2 ADD SWAP1 PUSH2 0x22B SWAP2 SWAP1 PUSH2 0x133D JUMP JUMPDEST PUSH2 0x887 JUMP JUMPDEST STOP JUMPDEST PUSH2 0x24C PUSH1 0x4 DUP1 CALLDATASIZE SUB DUP2 ADD SWAP1 PUSH2 0x247 SWAP2 SWAP1 PUSH2 0x144F JUMP JUMPDEST PUSH2 0x9AB JUMP JUMPDEST STOP JUMPDEST PUSH2 0x268 PUSH1 0x4 DUP1 CALLDATASIZE SUB DUP2 ADD SWAP1 PUSH2 0x263 SWAP2 SWAP1 PUSH2 0x1301 JUMP JUMPDEST PUSH2 0xBE8 JUMP JUMPDEST PUSH1 0x40 MLOAD PUSH2 0x275 SWAP2 SWAP1 PUSH2 0x1A2D JUMP JUMPDEST PUSH1 0x40 MLOAD DUP1 SWAP2 SUB SWAP1 RETURN JUMPDEST PUSH2 0x298 PUSH1 0x4 DUP1 CALLDATASIZE SUB DUP2 ADD SWAP1 PUSH2 0x293 SWAP2 SWAP1 PUSH2 0x14FA JUMP JUMPDEST PUSH2 0xCEA JUMP JUMPDEST PUSH1 0x40 MLOAD PUSH2 0x2A6 SWAP3 SWAP2 SWAP1 PUSH2 0x1A6A JUMP JUMPDEST PUSH1 0x40 MLOAD DUP1 SWAP2 SUB SWAP1 RETURN JUMPDEST PUSH2 0x2C9 PUSH1 0x4 DUP1 CALLDATASIZE SUB DUP2 ADD SWAP1 PUSH2 0x2C4 SWAP2 SWAP1 PUSH2 0x12D8 JUMP JUMPDEST PUSH2 0xDD3 JUMP JUMPDEST PUSH1 0x40 MLOAD PUSH2 0x2D6 SWAP2 SWAP1 PUSH2 0x1A0B JUMP JUMPDEST PUSH1 0x40 MLOAD DUP1 SWAP2 SUB SWAP1 RETURN JUMPDEST PUSH2 0x2F9 PUSH1 0x4 DUP1 CALLDATASIZE SUB DUP2 ADD SWAP1 PUSH2 0x2F4 SWAP2 SWAP1 PUSH2 0x1301 JUMP JUMPDEST PUSH2 0xEA0 JUMP JUMPDEST PUSH1 0x40 MLOAD PUSH2 0x306 SWAP2 SWAP1 PUSH2 0x1A48 JUMP JUMPDEST PUSH1 0x40 MLOAD DUP1 SWAP2 SUB SWAP1 RETURN JUMPDEST PUSH2 0x329 PUSH1 0x4 DUP1 CALLDATASIZE SUB DUP2 ADD SWAP1 PUSH2 0x324 SWAP2 SWAP1 PUSH2 0x12D8 JUMP JUMPDEST PUSH2 0xF44 JUMP JUMPDEST PUSH1 0x40 MLOAD PUSH2 0x336 SWAP2 SWAP1 PUSH2 0x1AF4 JUMP JUMPDEST PUSH1 0x40 MLOAD DUP1 SWAP2 SUB SWAP1 RETURN JUMPDEST PUSH2 0x359 PUSH1 0x4 DUP1 CALLDATASIZE SUB DUP2 ADD SWAP1 PUSH2 0x354 SWAP2 SWAP1 PUSH2 0x12D8 JUMP JUMPDEST PUSH2 0xF90 JUMP JUMPDEST PUSH1 0x40 MLOAD PUSH2 0x366 SWAP2 SWAP1 PUSH2 0x1A2D JUMP JUMPDEST PUSH1 0x40 MLOAD DUP1 SWAP2 SUB SWAP1 RETURN JUMPDEST PUSH2 0x377 PUSH2 0x10A7 JUMP JUMPDEST PUSH1 0x40 MLOAD PUSH2 0x384 SWAP2 SWAP1 PUSH2 0x18AB JUMP JUMPDEST PUSH1 0x40 MLOAD DUP1 SWAP2 SUB SWAP1 RETURN JUMPDEST PUSH2 0x395 PUSH2 0x10CD JUMP JUMPDEST PUSH1 0x40 MLOAD PUSH2 0x3A2 SWAP2 SWAP1 PUSH2 0x18AB JUMP JUMPDEST PUSH1 0x40 MLOAD DUP1 SWAP2 SUB SWAP1 RETURN JUMPDEST PUSH1 0x0 DUP1 DUP1 SLOAD SWAP1 POP SWAP1 POP SWAP1 JUMP JUMPDEST PUSH1 0x0 PUSH1 0x60 DUP3 SWAP1 POP PUSH1 0x0 DUP1 PUSH1 0x0 SWAP1 POP PUSH1 0x0 SWAP2 POP JUMPDEST DUP3 MLOAD DUP3 LT ISZERO PUSH2 0x425 JUMPI PUSH1 0x0 DUP4 DUP4 DUP2 MLOAD DUP2 LT PUSH2 0x3E1 JUMPI INVALID JUMPDEST PUSH1 0x20 ADD ADD MLOAD PUSH1 0xF8 SHR PUSH1 0xF8 SHL PUSH1 0xF8 SHR PUSH1 0xFF AND SWAP1 POP PUSH1 0x30 DUP2 LT ISZERO DUP1 ISZERO PUSH2 0x406 JUMPI POP PUSH1 0x39 DUP2 GT ISZERO JUMPDEST ISZERO PUSH2 0x417 JUMPI PUSH1 0x30 DUP2 SUB PUSH1 0xA DUP4 MUL ADD SWAP2 POP JUMPDEST POP DUP2 DUP1 PUSH1 0x1 ADD SWAP3 POP POP PUSH2 0x3CA JUMP JUMPDEST DUP1 SWAP4 POP POP POP POP SWAP2 SWAP1 POP JUMP JUMPDEST PUSH1 0x0 DUP1 DUP3 SWAP1 POP PUSH1 0x60 DUP2 PUSH20 0xFFFFFFFFFFFFFFFFFFFFFFFFFFFFFFFFFFFFFFFF AND PUSH4 0x8CBA76B1 PUSH1 0x2 PUSH1 0x0 SWAP1 SLOAD SWAP1 PUSH2 0x100 EXP SWAP1 DIV PUSH20 0xFFFFFFFFFFFFFFFFFFFFFFFFFFFFFFFFFFFFFFFF AND PUSH1 0x40 MLOAD DUP3 PUSH4 0xFFFFFFFF AND PUSH1 0xE0 SHL DUP2 MSTORE PUSH1 0x4 ADD PUSH2 0x493 SWAP2 SWAP1 PUSH2 0x18C6 JUMP JUMPDEST PUSH1 0x0 PUSH1 0x40 MLOAD DUP1 DUP4 SUB DUP2 DUP7 DUP1 EXTCODESIZE ISZERO DUP1 ISZERO PUSH2 0x4AB JUMPI PUSH1 0x0 DUP1 REVERT JUMPDEST POP GAS STATICCALL ISZERO DUP1 ISZERO PUSH2 0x4BF JUMPI RETURNDATASIZE PUSH1 0x0 DUP1 RETURNDATACOPY RETURNDATASIZE PUSH1 0x0 REVERT JUMPDEST POP POP POP POP PUSH1 0x40 MLOAD RETURNDATASIZE PUSH1 0x0 DUP3 RETURNDATACOPY RETURNDATASIZE PUSH1 0x1F NOT PUSH1 0x1F DUP3 ADD AND DUP3 ADD DUP1 PUSH1 0x40 MSTORE POP DUP2 ADD SWAP1 PUSH2 0x4E8 SWAP2 SWAP1 PUSH2 0x140E JUMP JUMPDEST SWAP1 POP PUSH1 0x40 MLOAD PUSH1 0x20 ADD PUSH2 0x4F9 SWAP1 PUSH2 0x1896 JUMP JUMPDEST PUSH1 0x40 MLOAD PUSH1 0x20 DUP2 DUP4 SUB SUB DUP2 MSTORE SWAP1 PUSH1 0x40 MSTORE DUP1 MLOAD SWAP1 PUSH1 0x20 ADD KECCAK256 DUP2 PUSH1 0x40 MLOAD PUSH1 0x20 ADD PUSH2 0x520 SWAP2 SWAP1 PUSH2 0x187F JUMP JUMPDEST PUSH1 0x40 MLOAD PUSH1 0x20 DUP2 DUP4 SUB SUB DUP2 MSTORE SWAP1 PUSH1 0x40 MSTORE DUP1 MLOAD SWAP1 PUSH1 0x20 ADD KECCAK256 EQ ISZERO PUSH2 0x547 JUMPI PUSH1 0x1 SWAP3 POP POP POP PUSH2 0x54E JUMP JUMPDEST PUSH1 0x0 SWAP3 POP POP POP JUMPDEST SWAP2 SWAP1 POP JUMP JUMPDEST PUSH1 0x5 PUSH1 0x20 MSTORE DUP2 PUSH1 0x0 MSTORE PUSH1 0x40 PUSH1 0x0 KECCAK256 PUSH1 0x20 MSTORE DUP1 PUSH1 0x0 MSTORE PUSH1 0x40 PUSH1 0x0 KECCAK256 PUSH1 0x0 SWAP2 POP SWAP2 POP POP DUP1 PUSH1 0x0 ADD DUP1 SLOAD PUSH1 0x1 DUP2 PUSH1 0x1 AND ISZERO PUSH2 0x100 MUL SUB AND PUSH1 0x2 SWAP1 DIV DUP1 PUSH1 0x1F ADD PUSH1 0x20 DUP1 SWAP2 DIV MUL PUSH1 0x20 ADD PUSH1 0x40 MLOAD SWAP1 DUP2 ADD PUSH1 0x40 MSTORE DUP1 SWAP3 SWAP2 SWAP1 DUP2 DUP2 MSTORE PUSH1 0x20 ADD DUP3 DUP1 SLOAD PUSH1 0x1 DUP2 PUSH1 0x1 AND ISZERO PUSH2 0x100 MUL SUB AND PUSH1 0x2 SWAP1 DIV DUP1 ISZERO PUSH2 0x60C JUMPI DUP1 PUSH1 0x1F LT PUSH2 0x5E1 JUMPI PUSH2 0x100 DUP1 DUP4 SLOAD DIV MUL DUP4 MSTORE SWAP2 PUSH1 0x20 ADD SWAP2 PUSH2 0x60C JUMP JUMPDEST DUP3 ADD SWAP2 SWAP1 PUSH1 0x0 MSTORE PUSH1 0x20 PUSH1 0x0 KECCAK256 SWAP1 JUMPDEST DUP2 SLOAD DUP2 MSTORE SWAP1 PUSH1 0x1 ADD SWAP1 PUSH1 0x20 ADD DUP1 DUP4 GT PUSH2 0x5EF JUMPI DUP3 SWAP1 SUB PUSH1 0x1F AND DUP3 ADD SWAP2 JUMPDEST POP POP POP POP POP SWAP1 DUP1 PUSH1 0x1 ADD PUSH1 0x0 SWAP1 SLOAD SWAP1 PUSH2 0x100 EXP SWAP1 DIV PUSH20 0xFFFFFFFFFFFFFFFFFFFFFFFFFFFFFFFFFFFFFFFF AND SWAP1 DUP1 PUSH1 0x2 ADD DUP1 SLOAD PUSH1 0x1 DUP2 PUSH1 0x1 AND ISZERO PUSH2 0x100 MUL SUB AND PUSH1 0x2 SWAP1 DIV DUP1 PUSH1 0x1F ADD PUSH1 0x20 DUP1 SWAP2 DIV MUL PUSH1 0x20 ADD PUSH1 0x40 MLOAD SWAP1 DUP2 ADD PUSH1 0x40 MSTORE DUP1 SWAP3 SWAP2 SWAP1 DUP2 DUP2 MSTORE PUSH1 0x20 ADD DUP3 DUP1 SLOAD PUSH1 0x1 DUP2 PUSH1 0x1 AND ISZERO PUSH2 0x100 MUL SUB AND PUSH1 0x2 SWAP1 DIV DUP1 ISZERO PUSH2 0x6D0 JUMPI DUP1 PUSH1 0x1F LT PUSH2 0x6A5 JUMPI PUSH2 0x100 DUP1 DUP4 SLOAD DIV MUL DUP4 MSTORE SWAP2 PUSH1 0x20 ADD SWAP2 PUSH2 0x6D0 JUMP JUMPDEST DUP3 ADD SWAP2 SWAP1 PUSH1 0x0 MSTORE PUSH1 0x20 PUSH1 0x0 KECCAK256 SWAP1 JUMPDEST DUP2 SLOAD DUP2 MSTORE SWAP1 PUSH1 0x1 ADD SWAP1 PUSH1 0x20 ADD DUP1 DUP4 GT PUSH2 0x6B3 JUMPI DUP3 SWAP1 SUB PUSH1 0x1F AND DUP3 ADD SWAP2 JUMPDEST POP POP POP POP POP SWAP1 DUP1 PUSH1 0x3 ADD DUP1 SLOAD PUSH1 0x1 DUP2 PUSH1 0x1 AND ISZERO PUSH2 0x100 MUL SUB AND PUSH1 0x2 SWAP1 DIV DUP1 PUSH1 0x1F ADD PUSH1 0x20 DUP1 SWAP2 DIV MUL PUSH1 0x20 ADD PUSH1 0x40 MLOAD SWAP1 DUP2 ADD PUSH1 0x40 MSTORE DUP1 SWAP3 SWAP2 SWAP1 DUP2 DUP2 MSTORE PUSH1 0x20 ADD DUP3 DUP1 SLOAD PUSH1 0x1 DUP2 PUSH1 0x1 AND ISZERO PUSH2 0x100 MUL SUB AND PUSH1 0x2 SWAP1 DIV DUP1 ISZERO PUSH2 0x76E JUMPI DUP1 PUSH1 0x1F LT PUSH2 0x743 JUMPI PUSH2 0x100 DUP1 DUP4 SLOAD DIV MUL DUP4 MSTORE SWAP2 PUSH1 0x20 ADD SWAP2 PUSH2 0x76E JUMP JUMPDEST DUP3 ADD SWAP2 SWAP1 PUSH1 0x0 MSTORE PUSH1 0x20 PUSH1 0x0 KECCAK256 SWAP1 JUMPDEST DUP2 SLOAD DUP2 MSTORE SWAP1 PUSH1 0x1 ADD SWAP1 PUSH1 0x20 ADD DUP1 DUP4 GT PUSH2 0x751 JUMPI DUP3 SWAP1 SUB PUSH1 0x1F AND DUP3 ADD SWAP2 JUMPDEST POP POP POP POP POP SWAP1 POP DUP5 JUMP JUMPDEST PUSH1 0x0 DUP1 DUP4 SWAP1 POP PUSH1 0x0 PUSH2 0x816 DUP3 PUSH20 0xFFFFFFFFFFFFFFFFFFFFFFFFFFFFFFFFFFFFFFFF AND PUSH4 0x8CBA76B1 DUP7 PUSH1 0x40 MLOAD DUP3 PUSH4 0xFFFFFFFF AND PUSH1 0xE0 SHL DUP2 MSTORE PUSH1 0x4 ADD PUSH2 0x7BC SWAP2 SWAP1 PUSH2 0x1948 JUMP JUMPDEST PUSH1 0x0 PUSH1 0x40 MLOAD DUP1 DUP4 SUB DUP2 DUP7 DUP1 EXTCODESIZE ISZERO DUP1 ISZERO PUSH2 0x7D4 JUMPI PUSH1 0x0 DUP1 REVERT JUMPDEST POP GAS STATICCALL ISZERO DUP1 ISZERO PUSH2 0x7E8 JUMPI RETURNDATASIZE PUSH1 0x0 DUP1 RETURNDATACOPY RETURNDATASIZE PUSH1 0x0 REVERT JUMPDEST POP POP POP POP PUSH1 0x40 MLOAD RETURNDATASIZE PUSH1 0x0 DUP3 RETURNDATACOPY RETURNDATASIZE PUSH1 0x1F NOT PUSH1 0x1F DUP3 ADD AND DUP3 ADD DUP1 PUSH1 0x40 MSTORE POP DUP2 ADD SWAP1 PUSH2 0x811 SWAP2 SWAP1 PUSH2 0x140E JUMP JUMPDEST PUSH2 0x3B7 JUMP JUMPDEST SWAP1 POP DUP1 PUSH2 0x3E8 TIMESTAMP MUL LT ISZERO PUSH2 0x82F JUMPI PUSH1 0x1 SWAP3 POP POP POP PUSH2 0x836 JUMP JUMPDEST PUSH1 0x0 SWAP3 POP POP POP JUMPDEST SWAP3 SWAP2 POP POP JUMP JUMPDEST PUSH1 0x6 PUSH1 0x20 MSTORE DUP2 PUSH1 0x0 MSTORE PUSH1 0x40 PUSH1 0x0 KECCAK256 DUP2 DUP2 SLOAD DUP2 LT PUSH2 0x855 JUMPI INVALID JUMPDEST SWAP1 PUSH1 0x0 MSTORE PUSH1 0x20 PUSH1 0x0 KECCAK256 ADD PUSH1 0x0 SWAP2 POP SWAP2 POP SWAP1 SLOAD SWAP1 PUSH2 0x100 EXP SWAP1 DIV PUSH20 0xFFFFFFFFFFFFFFFFFFFFFFFFFFFFFFFFFFFFFFFF AND DUP2 JUMP JUMPDEST PUSH2 0x88F PUSH2 0x10F3 JUMP JUMPDEST PUSH1 0x40 MLOAD DUP1 PUSH1 0x40 ADD PUSH1 0x40 MSTORE DUP1 DUP4 DUP2 MSTORE PUSH1 0x20 ADD DUP5 PUSH20 0xFFFFFFFFFFFFFFFFFFFFFFFFFFFFFFFFFFFFFFFF AND DUP2 MSTORE POP SWAP1 POP PUSH1 0x0 DUP2 SWAP1 DUP1 PUSH1 0x1 DUP2 SLOAD ADD DUP1 DUP3 SSTORE DUP1 SWAP2 POP POP PUSH1 0x1 SWAP1 SUB SWAP1 PUSH1 0x0 MSTORE PUSH1 0x20 PUSH1 0x0 KECCAK256 SWAP1 PUSH1 0x2 MUL ADD PUSH1 0x0 SWAP1 SWAP2 SWAP1 SWAP2 SWAP1 SWAP2 POP PUSH1 0x0 DUP3 ADD MLOAD DUP2 PUSH1 0x0 ADD SWAP1 DUP1 MLOAD SWAP1 PUSH1 0x20 ADD SWAP1 PUSH2 0x904 SWAP3 SWAP2 SWAP1 PUSH2 0x1123 JUMP JUMPDEST POP PUSH1 0x20 DUP3 ADD MLOAD DUP2 PUSH1 0x1 ADD PUSH1 0x0 PUSH2 0x100 EXP DUP2 SLOAD DUP2 PUSH20 0xFFFFFFFFFFFFFFFFFFFFFFFFFFFFFFFFFFFFFFFF MUL NOT AND SWAP1 DUP4 PUSH20 0xFFFFFFFFFFFFFFFFFFFFFFFFFFFFFFFFFFFFFFFF AND MUL OR SWAP1 SSTORE POP POP POP PUSH1 0x1 PUSH1 0x3 PUSH1 0x0 DUP6 PUSH20 0xFFFFFFFFFFFFFFFFFFFFFFFFFFFFFFFFFFFFFFFF AND PUSH20 0xFFFFFFFFFFFFFFFFFFFFFFFFFFFFFFFFFFFFFFFF AND DUP2 MSTORE PUSH1 0x20 ADD SWAP1 DUP2 MSTORE PUSH1 0x20 ADD PUSH1 0x0 KECCAK256 PUSH1 0x0 PUSH2 0x100 EXP DUP2 SLOAD DUP2 PUSH1 0xFF MUL NOT AND SWAP1 DUP4 ISZERO ISZERO MUL OR SWAP1 SSTORE POP POP POP POP JUMP JUMPDEST PUSH2 0x9B3 PUSH2 0x11A3 JUMP JUMPDEST PUSH1 0x40 MLOAD DUP1 PUSH1 0x80 ADD PUSH1 0x40 MSTORE DUP1 DUP5 DUP2 MSTORE PUSH1 0x20 ADD DUP6 PUSH20 0xFFFFFFFFFFFFFFFFFFFFFFFFFFFFFFFFFFFFFFFF AND DUP2 MSTORE PUSH1 0x20 ADD DUP7 DUP2 MSTORE PUSH1 0x20 ADD DUP4 DUP2 MSTORE POP SWAP1 POP PUSH1 0x1 PUSH1 0x4 DUP7 PUSH1 0x40 MLOAD PUSH2 0x9FE SWAP2 SWAP1 PUSH2 0x187F JUMP JUMPDEST SWAP1 DUP2 MSTORE PUSH1 0x20 ADD PUSH1 0x40 MLOAD DUP1 SWAP2 SUB SWAP1 KECCAK256 PUSH1 0x0 PUSH2 0x100 EXP DUP2 SLOAD DUP2 PUSH1 0xFF MUL NOT AND SWAP1 DUP4 ISZERO ISZERO MUL OR SWAP1 SSTORE POP PUSH1 0x6 PUSH1 0x0 CALLER PUSH20 0xFFFFFFFFFFFFFFFFFFFFFFFFFFFFFFFFFFFFFFFF AND PUSH20 0xFFFFFFFFFFFFFFFFFFFFFFFFFFFFFFFFFFFFFFFF AND DUP2 MSTORE PUSH1 0x20 ADD SWAP1 DUP2 MSTORE PUSH1 0x20 ADD PUSH1 0x0 KECCAK256 DUP5 SWAP1 DUP1 PUSH1 0x1 DUP2 SLOAD ADD DUP1 DUP3 SSTORE DUP1 SWAP2 POP POP PUSH1 0x1 SWAP1 SUB SWAP1 PUSH1 0x0 MSTORE PUSH1 0x20 PUSH1 0x0 KECCAK256 ADD PUSH1 0x0 SWAP1 SWAP2 SWAP1 SWAP2 SWAP1 SWAP2 PUSH2 0x100 EXP DUP2 SLOAD DUP2 PUSH20 0xFFFFFFFFFFFFFFFFFFFFFFFFFFFFFFFFFFFFFFFF MUL NOT AND SWAP1 DUP4 PUSH20 0xFFFFFFFFFFFFFFFFFFFFFFFFFFFFFFFFFFFFFFFF AND MUL OR SWAP1 SSTORE POP DUP1 PUSH1 0x5 PUSH1 0x0 CALLER PUSH20 0xFFFFFFFFFFFFFFFFFFFFFFFFFFFFFFFFFFFFFFFF AND PUSH20 0xFFFFFFFFFFFFFFFFFFFFFFFFFFFFFFFFFFFFFFFF AND DUP2 MSTORE PUSH1 0x20 ADD SWAP1 DUP2 MSTORE PUSH1 0x20 ADD PUSH1 0x0 KECCAK256 PUSH1 0x0 DUP7 PUSH20 0xFFFFFFFFFFFFFFFFFFFFFFFFFFFFFFFFFFFFFFFF AND PUSH20 0xFFFFFFFFFFFFFFFFFFFFFFFFFFFFFFFFFFFFFFFF AND DUP2 MSTORE PUSH1 0x20 ADD SWAP1 DUP2 MSTORE PUSH1 0x20 ADD PUSH1 0x0 KECCAK256 PUSH1 0x0 DUP3 ADD MLOAD DUP2 PUSH1 0x0 ADD SWAP1 DUP1 MLOAD SWAP1 PUSH1 0x20 ADD SWAP1 PUSH2 0xB5C SWAP3 SWAP2 SWAP1 PUSH2 0x1123 JUMP JUMPDEST POP PUSH1 0x20 DUP3 ADD MLOAD DUP2 PUSH1 0x1 ADD PUSH1 0x0 PUSH2 0x100 EXP DUP2 SLOAD DUP2 PUSH20 0xFFFFFFFFFFFFFFFFFFFFFFFFFFFFFFFFFFFFFFFF MUL NOT AND SWAP1 DUP4 PUSH20 0xFFFFFFFFFFFFFFFFFFFFFFFFFFFFFFFFFFFFFFFF AND MUL OR SWAP1 SSTORE POP PUSH1 0x40 DUP3 ADD MLOAD DUP2 PUSH1 0x2 ADD SWAP1 DUP1 MLOAD SWAP1 PUSH1 0x20 ADD SWAP1 PUSH2 0xBC0 SWAP3 SWAP2 SWAP1 PUSH2 0x1123 JUMP JUMPDEST POP PUSH1 0x60 DUP3 ADD MLOAD DUP2 PUSH1 0x3 ADD SWAP1 DUP1 MLOAD SWAP1 PUSH1 0x20 ADD SWAP1 PUSH2 0xBDD SWAP3 SWAP2 SWAP1 PUSH2 0x1123 JUMP JUMPDEST POP SWAP1 POP POP POP POP POP POP POP JUMP JUMPDEST PUSH1 0x0 DUP1 DUP4 SWAP1 POP PUSH1 0x60 DUP2 PUSH20 0xFFFFFFFFFFFFFFFFFFFFFFFFFFFFFFFFFFFFFFFF AND PUSH4 0x8CBA76B1 DUP6 PUSH1 0x40 MLOAD DUP3 PUSH4 0xFFFFFFFF AND PUSH1 0xE0 SHL DUP2 MSTORE PUSH1 0x4 ADD PUSH2 0xC29 SWAP2 SWAP1 PUSH2 0x1989 JUMP JUMPDEST PUSH1 0x0 PUSH1 0x40 MLOAD DUP1 DUP4 SUB DUP2 DUP7 DUP1 EXTCODESIZE ISZERO DUP1 ISZERO PUSH2 0xC41 JUMPI PUSH1 0x0 DUP1 REVERT JUMPDEST POP GAS STATICCALL ISZERO DUP1 ISZERO PUSH2 0xC55 JUMPI RETURNDATASIZE PUSH1 0x0 DUP1 RETURNDATACOPY RETURNDATASIZE PUSH1 0x0 REVERT JUMPDEST POP POP POP POP PUSH1 0x40 MLOAD RETURNDATASIZE PUSH1 0x0 DUP3 RETURNDATACOPY RETURNDATASIZE PUSH1 0x1F NOT PUSH1 0x1F DUP3 ADD AND DUP3 ADD DUP1 PUSH1 0x40 MSTORE POP DUP2 ADD SWAP1 PUSH2 0xC7E SWAP2 SWAP1 PUSH2 0x140E JUMP JUMPDEST SWAP1 POP PUSH1 0x40 MLOAD PUSH1 0x20 ADD PUSH2 0xC8F SWAP1 PUSH2 0x1896 JUMP JUMPDEST PUSH1 0x40 MLOAD PUSH1 0x20 DUP2 DUP4 SUB SUB DUP2 MSTORE SWAP1 PUSH1 0x40 MSTORE DUP1 MLOAD SWAP1 PUSH1 0x20 ADD KECCAK256 DUP2 PUSH1 0x40 MLOAD PUSH1 0x20 ADD PUSH2 0xCB6 SWAP2 SWAP1 PUSH2 0x187F JUMP JUMPDEST PUSH1 0x40 MLOAD PUSH1 0x20 DUP2 DUP4 SUB SUB DUP2 MSTORE SWAP1 PUSH1 0x40 MSTORE DUP1 MLOAD SWAP1 PUSH1 0x20 ADD KECCAK256 EQ ISZERO PUSH2 0xCDD JUMPI PUSH1 0x1 SWAP3 POP POP POP PUSH2 0xCE4 JUMP JUMPDEST PUSH1 0x0 SWAP3 POP POP POP JUMPDEST SWAP3 SWAP2 POP POP JUMP JUMPDEST PUSH1 0x0 DUP2 DUP2 SLOAD DUP2 LT PUSH2 0xCF7 JUMPI INVALID JUMPDEST SWAP1 PUSH1 0x0 MSTORE PUSH1 0x20 PUSH1 0x0 KECCAK256 SWAP1 PUSH1 0x2 MUL ADD PUSH1 0x0 SWAP2 POP SWAP1 POP DUP1 PUSH1 0x0 ADD DUP1 SLOAD PUSH1 0x1 DUP2 PUSH1 0x1 AND ISZERO PUSH2 0x100 MUL SUB AND PUSH1 0x2 SWAP1 DIV DUP1 PUSH1 0x1F ADD PUSH1 0x20 DUP1 SWAP2 DIV MUL PUSH1 0x20 ADD PUSH1 0x40 MLOAD SWAP1 DUP2 ADD PUSH1 0x40 MSTORE DUP1 SWAP3 SWAP2 SWAP1 DUP2 DUP2 MSTORE PUSH1 0x20 ADD DUP3 DUP1 SLOAD PUSH1 0x1 DUP2 PUSH1 0x1 AND ISZERO PUSH2 0x100 MUL SUB AND PUSH1 0x2 SWAP1 DIV DUP1 ISZERO PUSH2 0xDA3 JUMPI DUP1 PUSH1 0x1F LT PUSH2 0xD78 JUMPI PUSH2 0x100 DUP1 DUP4 SLOAD DIV MUL DUP4 MSTORE SWAP2 PUSH1 0x20 ADD SWAP2 PUSH2 0xDA3 JUMP JUMPDEST DUP3 ADD SWAP2 SWAP1 PUSH1 0x0 MSTORE PUSH1 0x20 PUSH1 0x0 KECCAK256 SWAP1 JUMPDEST DUP2 SLOAD DUP2 MSTORE SWAP1 PUSH1 0x1 ADD SWAP1 PUSH1 0x20 ADD DUP1 DUP4 GT PUSH2 0xD86 JUMPI DUP3 SWAP1 SUB PUSH1 0x1F AND DUP3 ADD SWAP2 JUMPDEST POP POP POP POP POP SWAP1 DUP1 PUSH1 0x1 ADD PUSH1 0x0 SWAP1 SLOAD SWAP1 PUSH2 0x100 EXP SWAP1 DIV PUSH20 0xFFFFFFFFFFFFFFFFFFFFFFFFFFFFFFFFFFFFFFFF AND SWAP1 POP DUP3 JUMP JUMPDEST PUSH1 0x60 PUSH1 0x6 PUSH1 0x0 DUP4 PUSH20 0xFFFFFFFFFFFFFFFFFFFFFFFFFFFFFFFFFFFFFFFF AND PUSH20 0xFFFFFFFFFFFFFFFFFFFFFFFFFFFFFFFFFFFFFFFF AND DUP2 MSTORE PUSH1 0x20 ADD SWAP1 DUP2 MSTORE PUSH1 0x20 ADD PUSH1 0x0 KECCAK256 DUP1 SLOAD DUP1 PUSH1 0x20 MUL PUSH1 0x20 ADD PUSH1 0x40 MLOAD SWAP1 DUP2 ADD PUSH1 0x40 MSTORE DUP1 SWAP3 SWAP2 SWAP1 DUP2 DUP2 MSTORE PUSH1 0x20 ADD DUP3 DUP1 SLOAD DUP1 ISZERO PUSH2 0xE94 JUMPI PUSH1 0x20 MUL DUP3 ADD SWAP2 SWAP1 PUSH1 0x0 MSTORE PUSH1 0x20 PUSH1 0x0 KECCAK256 SWAP1 JUMPDEST DUP2 PUSH1 0x0 SWAP1 SLOAD SWAP1 PUSH2 0x100 EXP SWAP1 DIV PUSH20 0xFFFFFFFFFFFFFFFFFFFFFFFFFFFFFFFFFFFFFFFF AND PUSH20 0xFFFFFFFFFFFFFFFFFFFFFFFFFFFFFFFFFFFFFFFF AND DUP2 MSTORE PUSH1 0x20 ADD SWAP1 PUSH1 0x1 ADD SWAP1 DUP1 DUP4 GT PUSH2 0xE4A JUMPI JUMPDEST POP POP POP POP POP SWAP1 POP SWAP2 SWAP1 POP JUMP JUMPDEST PUSH1 0x60 PUSH1 0x0 DUP4 SWAP1 POP PUSH1 0x60 DUP2 PUSH20 0xFFFFFFFFFFFFFFFFFFFFFFFFFFFFFFFFFFFFFFFF AND PUSH4 0x8CBA76B1 DUP6 PUSH1 0x40 MLOAD DUP3 PUSH4 0xFFFFFFFF AND PUSH1 0xE0 SHL DUP2 MSTORE PUSH1 0x4 ADD PUSH2 0xEE2 SWAP2 SWAP1 PUSH2 0x19CA JUMP JUMPDEST PUSH1 0x0 PUSH1 0x40 MLOAD DUP1 DUP4 SUB DUP2 DUP7 DUP1 EXTCODESIZE ISZERO DUP1 ISZERO PUSH2 0xEFA JUMPI PUSH1 0x0 DUP1 REVERT JUMPDEST POP GAS STATICCALL ISZERO DUP1 ISZERO PUSH2 0xF0E JUMPI RETURNDATASIZE PUSH1 0x0 DUP1 RETURNDATACOPY RETURNDATASIZE PUSH1 0x0 REVERT JUMPDEST POP POP POP POP PUSH1 0x40 MLOAD RETURNDATASIZE PUSH1 0x0 DUP3 RETURNDATACOPY RETURNDATASIZE PUSH1 0x1F NOT PUSH1 0x1F DUP3 ADD AND DUP3 ADD DUP1 PUSH1 0x40 MSTORE POP DUP2 ADD SWAP1 PUSH2 0xF37 SWAP2 SWAP1 PUSH2 0x140E JUMP JUMPDEST SWAP1 POP DUP1 SWAP3 POP POP POP SWAP3 SWAP2 POP POP JUMP JUMPDEST PUSH1 0x0 PUSH1 0x6 PUSH1 0x0 DUP4 PUSH20 0xFFFFFFFFFFFFFFFFFFFFFFFFFFFFFFFFFFFFFFFF AND PUSH20 0xFFFFFFFFFFFFFFFFFFFFFFFFFFFFFFFFFFFFFFFF AND DUP2 MSTORE PUSH1 0x20 ADD SWAP1 DUP2 MSTORE PUSH1 0x20 ADD PUSH1 0x0 KECCAK256 DUP1 SLOAD SWAP1 POP SWAP1 POP SWAP2 SWAP1 POP JUMP JUMPDEST PUSH1 0x0 DUP1 DUP3 SWAP1 POP PUSH1 0x60 DUP2 PUSH20 0xFFFFFFFFFFFFFFFFFFFFFFFFFFFFFFFFFFFFFFFF AND PUSH4 0x8CBA76B1 PUSH1 0x2 PUSH1 0x0 SWAP1 SLOAD SWAP1 PUSH2 0x100 EXP SWAP1 DIV PUSH20 0xFFFFFFFFFFFFFFFFFFFFFFFFFFFFFFFFFFFFFFFF AND PUSH1 0x40 MLOAD DUP3 PUSH4 0xFFFFFFFF AND PUSH1 0xE0 SHL DUP2 MSTORE PUSH1 0x4 ADD PUSH2 0xFF3 SWAP2 SWAP1 PUSH2 0x1907 JUMP JUMPDEST PUSH1 0x0 PUSH1 0x40 MLOAD DUP1 DUP4 SUB DUP2 DUP7 DUP1 EXTCODESIZE ISZERO DUP1 ISZERO PUSH2 0x100B JUMPI PUSH1 0x0 DUP1 REVERT JUMPDEST POP GAS STATICCALL ISZERO DUP1 ISZERO PUSH2 0x101F JUMPI RETURNDATASIZE PUSH1 0x0 DUP1 RETURNDATACOPY RETURNDATASIZE PUSH1 0x0 REVERT JUMPDEST POP POP POP POP PUSH1 0x40 MLOAD RETURNDATASIZE PUSH1 0x0 DUP3 RETURNDATACOPY RETURNDATASIZE PUSH1 0x1F NOT PUSH1 0x1F DUP3 ADD AND DUP3 ADD DUP1 PUSH1 0x40 MSTORE POP DUP2 ADD SWAP1 PUSH2 0x1048 SWAP2 SWAP1 PUSH2 0x140E JUMP JUMPDEST SWAP1 POP PUSH1 0x40 MLOAD PUSH1 0x20 ADD PUSH2 0x1059 SWAP1 PUSH2 0x1896 JUMP JUMPDEST PUSH1 0x40 MLOAD PUSH1 0x20 DUP2 DUP4 SUB SUB DUP2 MSTORE SWAP1 PUSH1 0x40 MSTORE DUP1 MLOAD SWAP1 PUSH1 0x20 ADD KECCAK256 DUP2 PUSH1 0x40 MLOAD PUSH1 0x20 ADD PUSH2 0x1080 SWAP2 SWAP1 PUSH2 0x187F JUMP JUMPDEST PUSH1 0x40 MLOAD PUSH1 0x20 DUP2 DUP4 SUB SUB DUP2 MSTORE SWAP1 PUSH1 0x40 MSTORE DUP1 MLOAD SWAP1 PUSH1 0x20 ADD KECCAK256 EQ PUSH2 0x10A0 JUMPI PUSH1 0x0 DUP1 REVERT JUMPDEST POP POP SWAP2 SWAP1 POP JUMP JUMPDEST PUSH1 0x2 PUSH1 0x0 SWAP1 SLOAD SWAP1 PUSH2 0x100 EXP SWAP1 DIV PUSH20 0xFFFFFFFFFFFFFFFFFFFFFFFFFFFFFFFFFFFFFFFF AND DUP2 JUMP JUMPDEST PUSH1 0x1 PUSH1 0x0 SWAP1 SLOAD SWAP1 PUSH2 0x100 EXP SWAP1 DIV PUSH20 0xFFFFFFFFFFFFFFFFFFFFFFFFFFFFFFFFFFFFFFFF AND DUP2 JUMP JUMPDEST PUSH1 0x40 MLOAD DUP1 PUSH1 0x40 ADD PUSH1 0x40 MSTORE DUP1 PUSH1 0x60 DUP2 MSTORE PUSH1 0x20 ADD PUSH1 0x0 PUSH20 0xFFFFFFFFFFFFFFFFFFFFFFFFFFFFFFFFFFFFFFFF AND DUP2 MSTORE POP SWAP1 JUMP JUMPDEST DUP3 DUP1 SLOAD PUSH1 0x1 DUP2 PUSH1 0x1 AND ISZERO PUSH2 0x100 MUL SUB AND PUSH1 0x2 SWAP1 DIV SWAP1 PUSH1 0x0 MSTORE PUSH1 0x20 PUSH1 0x0 KECCAK256 SWAP1 PUSH1 0x1F ADD PUSH1 0x20 SWAP1 DIV DUP2 ADD SWAP3 DUP3 PUSH1 0x1F LT PUSH2 0x1164 JUMPI DUP1 MLOAD PUSH1 0xFF NOT AND DUP4 DUP1 ADD OR DUP6 SSTORE PUSH2 0x1192 JUMP JUMPDEST DUP3 DUP1 ADD PUSH1 0x1 ADD DUP6 SSTORE DUP3 ISZERO PUSH2 0x1192 JUMPI SWAP2 DUP3 ADD JUMPDEST DUP3 DUP2 GT ISZERO PUSH2 0x1191 JUMPI DUP3 MLOAD DUP3 SSTORE SWAP2 PUSH1 0x20 ADD SWAP2 SWAP1 PUSH1 0x1 ADD SWAP1 PUSH2 0x1176 JUMP JUMPDEST JUMPDEST POP SWAP1 POP PUSH2 0x119F SWAP2 SWAP1 PUSH2 0x11E1 JUMP JUMPDEST POP SWAP1 JUMP JUMPDEST PUSH1 0x40 MLOAD DUP1 PUSH1 0x80 ADD PUSH1 0x40 MSTORE DUP1 PUSH1 0x60 DUP2 MSTORE PUSH1 0x20 ADD PUSH1 0x0 PUSH20 0xFFFFFFFFFFFFFFFFFFFFFFFFFFFFFFFFFFFFFFFF AND DUP2 MSTORE PUSH1 0x20 ADD PUSH1 0x60 DUP2 MSTORE PUSH1 0x20 ADD PUSH1 0x60 DUP2 MSTORE POP SWAP1 JUMP JUMPDEST PUSH2 0x1203 SWAP2 SWAP1 JUMPDEST DUP1 DUP3 GT ISZERO PUSH2 0x11FF JUMPI PUSH1 0x0 DUP2 PUSH1 0x0 SWAP1 SSTORE POP PUSH1 0x1 ADD PUSH2 0x11E7 JUMP JUMPDEST POP SWAP1 JUMP JUMPDEST SWAP1 JUMP JUMPDEST PUSH1 0x0 DUP2 CALLDATALOAD SWAP1 POP PUSH2 0x1215 DUP2 PUSH2 0x1C63 JUMP JUMPDEST SWAP3 SWAP2 POP POP JUMP JUMPDEST PUSH1 0x0 DUP3 PUSH1 0x1F DUP4 ADD SLT PUSH2 0x122C JUMPI PUSH1 0x0 DUP1 REVERT JUMPDEST DUP2 CALLDATALOAD PUSH2 0x123F PUSH2 0x123A DUP3 PUSH2 0x1B3C JUMP JUMPDEST PUSH2 0x1B0F JUMP JUMPDEST SWAP2 POP DUP1 DUP3 MSTORE PUSH1 0x20 DUP4 ADD PUSH1 0x20 DUP4 ADD DUP6 DUP4 DUP4 ADD GT ISZERO PUSH2 0x125B JUMPI PUSH1 0x0 DUP1 REVERT JUMPDEST PUSH2 0x1266 DUP4 DUP3 DUP5 PUSH2 0x1C10 JUMP JUMPDEST POP POP POP SWAP3 SWAP2 POP POP JUMP JUMPDEST PUSH1 0x0 DUP3 PUSH1 0x1F DUP4 ADD SLT PUSH2 0x1280 JUMPI PUSH1 0x0 DUP1 REVERT JUMPDEST DUP2 MLOAD PUSH2 0x1293 PUSH2 0x128E DUP3 PUSH2 0x1B3C JUMP JUMPDEST PUSH2 0x1B0F JUMP JUMPDEST SWAP2 POP DUP1 DUP3 MSTORE PUSH1 0x20 DUP4 ADD PUSH1 0x20 DUP4 ADD DUP6 DUP4 DUP4 ADD GT ISZERO PUSH2 0x12AF JUMPI PUSH1 0x0 DUP1 REVERT JUMPDEST PUSH2 0x12BA DUP4 DUP3 DUP5 PUSH2 0x1C1F JUMP JUMPDEST POP POP POP SWAP3 SWAP2 POP POP JUMP JUMPDEST PUSH1 0x0 DUP2 CALLDATALOAD SWAP1 POP PUSH2 0x12D2 DUP2 PUSH2 0x1C7A JUMP JUMPDEST SWAP3 SWAP2 POP POP JUMP JUMPDEST PUSH1 0x0 PUSH1 0x20 DUP3 DUP5 SUB SLT ISZERO PUSH2 0x12EA JUMPI PUSH1 0x0 DUP1 REVERT JUMPDEST PUSH1 0x0 PUSH2 0x12F8 DUP5 DUP3 DUP6 ADD PUSH2 0x1206 JUMP JUMPDEST SWAP2 POP POP SWAP3 SWAP2 POP POP JUMP JUMPDEST PUSH1 0x0 DUP1 PUSH1 0x40 DUP4 DUP6 SUB SLT ISZERO PUSH2 0x1314 JUMPI PUSH1 0x0 DUP1 REVERT JUMPDEST PUSH1 0x0 PUSH2 0x1322 DUP6 DUP3 DUP7 ADD PUSH2 0x1206 JUMP JUMPDEST SWAP3 POP POP PUSH1 0x20 PUSH2 0x1333 DUP6 DUP3 DUP7 ADD PUSH2 0x1206 JUMP JUMPDEST SWAP2 POP POP SWAP3 POP SWAP3 SWAP1 POP JUMP JUMPDEST PUSH1 0x0 DUP1 PUSH1 0x40 DUP4 DUP6 SUB SLT ISZERO PUSH2 0x1350 JUMPI PUSH1 0x0 DUP1 REVERT JUMPDEST PUSH1 0x0 PUSH2 0x135E DUP6 DUP3 DUP7 ADD PUSH2 0x1206 JUMP JUMPDEST SWAP3 POP POP PUSH1 0x20 DUP4 ADD CALLDATALOAD PUSH8 0xFFFFFFFFFFFFFFFF DUP2 GT ISZERO PUSH2 0x137B JUMPI PUSH1 0x0 DUP1 REVERT JUMPDEST PUSH2 0x1387 DUP6 DUP3 DUP7 ADD PUSH2 0x121B JUMP JUMPDEST SWAP2 POP POP SWAP3 POP SWAP3 SWAP1 POP JUMP JUMPDEST PUSH1 0x0 DUP1 PUSH1 0x40 DUP4 DUP6 SUB SLT ISZERO PUSH2 0x13A4 JUMPI PUSH1 0x0 DUP1 REVERT JUMPDEST PUSH1 0x0 PUSH2 0x13B2 DUP6 DUP3 DUP7 ADD PUSH2 0x1206 JUMP JUMPDEST SWAP3 POP POP PUSH1 0x20 PUSH2 0x13C3 DUP6 DUP3 DUP7 ADD PUSH2 0x12C3 JUMP JUMPDEST SWAP2 POP POP SWAP3 POP SWAP3 SWAP1 POP JUMP JUMPDEST PUSH1 0x0 PUSH1 0x20 DUP3 DUP5 SUB SLT ISZERO PUSH2 0x13DF JUMPI PUSH1 0x0 DUP1 REVERT JUMPDEST PUSH1 0x0 DUP3 ADD CALLDATALOAD PUSH8 0xFFFFFFFFFFFFFFFF DUP2 GT ISZERO PUSH2 0x13F9 JUMPI PUSH1 0x0 DUP1 REVERT JUMPDEST PUSH2 0x1405 DUP5 DUP3 DUP6 ADD PUSH2 0x121B JUMP JUMPDEST SWAP2 POP POP SWAP3 SWAP2 POP POP JUMP JUMPDEST PUSH1 0x0 PUSH1 0x20 DUP3 DUP5 SUB SLT ISZERO PUSH2 0x1420 JUMPI PUSH1 0x0 DUP1 REVERT JUMPDEST PUSH1 0x0 DUP3 ADD MLOAD PUSH8 0xFFFFFFFFFFFFFFFF DUP2 GT ISZERO PUSH2 0x143A JUMPI PUSH1 0x0 DUP1 REVERT JUMPDEST PUSH2 0x1446 DUP5 DUP3 DUP6 ADD PUSH2 0x126F JUMP JUMPDEST SWAP2 POP POP SWAP3 SWAP2 POP POP JUMP JUMPDEST PUSH1 0x0 DUP1 PUSH1 0x0 DUP1 PUSH1 0x80 DUP6 DUP8 SUB SLT ISZERO PUSH2 0x1465 JUMPI PUSH1 0x0 DUP1 REVERT JUMPDEST PUSH1 0x0 DUP6 ADD CALLDATALOAD PUSH8 0xFFFFFFFFFFFFFFFF DUP2 GT ISZERO PUSH2 0x147F JUMPI PUSH1 0x0 DUP1 REVERT JUMPDEST PUSH2 0x148B DUP8 DUP3 DUP9 ADD PUSH2 0x121B JUMP JUMPDEST SWAP5 POP POP PUSH1 0x20 PUSH2 0x149C DUP8 DUP3 DUP9 ADD PUSH2 0x1206 JUMP JUMPDEST SWAP4 POP POP PUSH1 0x40 DUP6 ADD CALLDATALOAD PUSH8 0xFFFFFFFFFFFFFFFF DUP2 GT ISZERO PUSH2 0x14B9 JUMPI PUSH1 0x0 DUP1 REVERT JUMPDEST PUSH2 0x14C5 DUP8 DUP3 DUP9 ADD PUSH2 0x121B JUMP JUMPDEST SWAP3 POP POP PUSH1 0x60 DUP6 ADD CALLDATALOAD PUSH8 0xFFFFFFFFFFFFFFFF DUP2 GT ISZERO PUSH2 0x14E2 JUMPI PUSH1 0x0 DUP1 REVERT JUMPDEST PUSH2 0x14EE DUP8 DUP3 DUP9 ADD PUSH2 0x121B JUMP JUMPDEST SWAP2 POP POP SWAP3 SWAP6 SWAP2 SWAP5 POP SWAP3 POP JUMP JUMPDEST PUSH1 0x0 PUSH1 0x20 DUP3 DUP5 SUB SLT ISZERO PUSH2 0x150C JUMPI PUSH1 0x0 DUP1 REVERT JUMPDEST PUSH1 0x0 PUSH2 0x151A DUP5 DUP3 DUP6 ADD PUSH2 0x12C3 JUMP JUMPDEST SWAP2 POP POP SWAP3 SWAP2 POP POP JUMP JUMPDEST PUSH1 0x0 PUSH2 0x152F DUP4 DUP4 PUSH2 0x153B JUMP JUMPDEST PUSH1 0x20 DUP4 ADD SWAP1 POP SWAP3 SWAP2 POP POP JUMP JUMPDEST PUSH2 0x1544 DUP2 PUSH2 0x1BC8 JUMP JUMPDEST DUP3 MSTORE POP POP JUMP JUMPDEST PUSH2 0x1553 DUP2 PUSH2 0x1BC8 JUMP JUMPDEST DUP3 MSTORE POP POP JUMP JUMPDEST PUSH1 0x0 PUSH2 0x1564 DUP3 PUSH2 0x1B78 JUMP JUMPDEST PUSH2 0x156E DUP2 DUP6 PUSH2 0x1B9B JUMP JUMPDEST SWAP4 POP PUSH2 0x1579 DUP4 PUSH2 0x1B68 JUMP JUMPDEST DUP1 PUSH1 0x0 JUMPDEST DUP4 DUP2 LT ISZERO PUSH2 0x15AA JUMPI DUP2 MLOAD PUSH2 0x1591 DUP9 DUP3 PUSH2 0x1523 JUMP JUMPDEST SWAP8 POP PUSH2 0x159C DUP4 PUSH2 0x1B8E JUMP JUMPDEST SWAP3 POP POP PUSH1 0x1 DUP2 ADD SWAP1 POP PUSH2 0x157D JUMP JUMPDEST POP DUP6 SWAP4 POP POP POP POP SWAP3 SWAP2 POP POP JUMP JUMPDEST PUSH2 0x15C0 DUP2 PUSH2 0x1BDA JUMP JUMPDEST DUP3 MSTORE POP POP JUMP JUMPDEST PUSH1 0x0 PUSH2 0x15D1 DUP3 PUSH2 0x1B83 JUMP JUMPDEST PUSH2 0x15DB DUP2 DUP6 PUSH2 0x1BAC JUMP JUMPDEST SWAP4 POP PUSH2 0x15EB DUP2 DUP6 PUSH1 0x20 DUP7 ADD PUSH2 0x1C1F JUMP JUMPDEST PUSH2 0x15F4 DUP2 PUSH2 0x1C52 JUMP JUMPDEST DUP5 ADD SWAP2 POP POP SWAP3 SWAP2 POP POP JUMP JUMPDEST PUSH1 0x0 PUSH2 0x160A DUP3 PUSH2 0x1B83 JUMP JUMPDEST PUSH2 0x1614 DUP2 DUP6 PUSH2 0x1BBD JUMP JUMPDEST SWAP4 POP PUSH2 0x1624 DUP2 DUP6 PUSH1 0x20 DUP7 ADD PUSH2 0x1C1F JUMP JUMPDEST DUP1 DUP5 ADD SWAP2 POP POP SWAP3 SWAP2 POP POP JUMP JUMPDEST PUSH1 0x0 PUSH2 0x163D PUSH1 0x12 DUP4 PUSH2 0x1BAC JUMP JUMPDEST SWAP2 POP PUSH32 0x4365727469666963617465456E64446174650000000000000000000000000000 PUSH1 0x0 DUP4 ADD MSTORE PUSH1 0x20 DUP3 ADD SWAP1 POP SWAP2 SWAP1 POP JUMP JUMPDEST PUSH1 0x0 PUSH2 0x167D PUSH1 0xB DUP4 PUSH2 0x1BAC JUMP JUMPDEST SWAP2 POP PUSH32 0x6973477261647561746564000000000000000000000000000000000000000000 PUSH1 0x0 DUP4 ADD MSTORE PUSH1 0x20 DUP3 ADD SWAP1 POP SWAP2 SWAP1 POP JUMP JUMPDEST PUSH1 0x0 PUSH2 0x16BD PUSH1 0x11 DUP4 PUSH2 0x1BAC JUMP JUMPDEST SWAP2 POP PUSH32 0x7363686F6F6C4365727469666963617465000000000000000000000000000000 PUSH1 0x0 DUP4 ADD MSTORE PUSH1 0x20 DUP3 ADD SWAP1 POP SWAP2 SWAP1 POP JUMP JUMPDEST PUSH1 0x0 PUSH2 0x16FD PUSH1 0x8 DUP4 PUSH2 0x1BAC JUMP JUMPDEST SWAP2 POP PUSH32 0x69735363686F6F6C000000000000000000000000000000000000000000000000 PUSH1 0x0 DUP4 ADD MSTORE PUSH1 0x20 DUP3 ADD SWAP1 POP SWAP2 SWAP1 POP JUMP JUMPDEST PUSH1 0x0 PUSH2 0x173D PUSH1 0x3 DUP4 PUSH2 0x1BBD JUMP JUMPDEST SWAP2 POP PUSH32 0x5965730000000000000000000000000000000000000000000000000000000000 PUSH1 0x0 DUP4 ADD MSTORE PUSH1 0x3 DUP3 ADD SWAP1 POP SWAP2 SWAP1 POP JUMP JUMPDEST PUSH1 0x0 PUSH2 0x177D PUSH1 0xB DUP4 PUSH2 0x1BAC JUMP JUMPDEST SWAP2 POP PUSH32 0x6365727469666963617465000000000000000000000000000000000000000000 PUSH1 0x0 DUP4 ADD MSTORE PUSH1 0x20 DUP3 ADD SWAP1 POP SWAP2 SWAP1 POP JUMP JUMPDEST PUSH1 0x0 PUSH2 0x17BD PUSH1 0x8 DUP4 PUSH2 0x1BAC JUMP JUMPDEST SWAP2 POP PUSH32 0x4950465368617368000000000000000000000000000000000000000000000000 PUSH1 0x0 DUP4 ADD MSTORE PUSH1 0x20 DUP3 ADD SWAP1 POP SWAP2 SWAP1 POP JUMP JUMPDEST PUSH1 0x0 PUSH2 0x17FD PUSH1 0xA DUP4 PUSH2 0x1BAC JUMP JUMPDEST SWAP2 POP PUSH32 0x69734D696E697374727900000000000000000000000000000000000000000000 PUSH1 0x0 DUP4 ADD MSTORE PUSH1 0x20 DUP3 ADD SWAP1 POP SWAP2 SWAP1 POP JUMP JUMPDEST PUSH1 0x0 PUSH2 0x183D PUSH1 0x7 DUP4 PUSH2 0x1BAC JUMP JUMPDEST SWAP2 POP PUSH32 0x6469706C6F6D6100000000000000000000000000000000000000000000000000 PUSH1 0x0 DUP4 ADD MSTORE PUSH1 0x20 DUP3 ADD SWAP1 POP SWAP2 SWAP1 POP JUMP JUMPDEST PUSH2 0x1879 DUP2 PUSH2 0x1C06 JUMP JUMPDEST DUP3 MSTORE POP POP JUMP JUMPDEST PUSH1 0x0 PUSH2 0x188B DUP3 DUP5 PUSH2 0x15FF JUMP JUMPDEST SWAP2 POP DUP2 SWAP1 POP SWAP3 SWAP2 POP POP JUMP JUMPDEST PUSH1 0x0 PUSH2 0x18A1 DUP3 PUSH2 0x1730 JUMP JUMPDEST SWAP2 POP DUP2 SWAP1 POP SWAP2 SWAP1 POP JUMP JUMPDEST PUSH1 0x0 PUSH1 0x20 DUP3 ADD SWAP1 POP PUSH2 0x18C0 PUSH1 0x0 DUP4 ADD DUP5 PUSH2 0x154A JUMP JUMPDEST SWAP3 SWAP2 POP POP JUMP JUMPDEST PUSH1 0x0 PUSH1 0x60 DUP3 ADD SWAP1 POP PUSH2 0x18DB PUSH1 0x0 DUP4 ADD DUP5 PUSH2 0x154A JUMP JUMPDEST DUP2 DUP2 SUB PUSH1 0x20 DUP4 ADD MSTORE PUSH2 0x18EC DUP2 PUSH2 0x16B0 JUMP JUMPDEST SWAP1 POP DUP2 DUP2 SUB PUSH1 0x40 DUP4 ADD MSTORE PUSH2 0x18FF DUP2 PUSH2 0x16F0 JUMP JUMPDEST SWAP1 POP SWAP3 SWAP2 POP POP JUMP JUMPDEST PUSH1 0x0 PUSH1 0x60 DUP3 ADD SWAP1 POP PUSH2 0x191C PUSH1 0x0 DUP4 ADD DUP5 PUSH2 0x154A JUMP JUMPDEST DUP2 DUP2 SUB PUSH1 0x20 DUP4 ADD MSTORE PUSH2 0x192D DUP2 PUSH2 0x1770 JUMP JUMPDEST SWAP1 POP DUP2 DUP2 SUB PUSH1 0x40 DUP4 ADD MSTORE PUSH2 0x1940 DUP2 PUSH2 0x17F0 JUMP JUMPDEST SWAP1 POP SWAP3 SWAP2 POP POP JUMP JUMPDEST PUSH1 0x0 PUSH1 0x60 DUP3 ADD SWAP1 POP PUSH2 0x195D PUSH1 0x0 DUP4 ADD DUP5 PUSH2 0x154A JUMP JUMPDEST DUP2 DUP2 SUB PUSH1 0x20 DUP4 ADD MSTORE PUSH2 0x196E DUP2 PUSH2 0x1830 JUMP JUMPDEST SWAP1 POP DUP2 DUP2 SUB PUSH1 0x40 DUP4 ADD MSTORE PUSH2 0x1981 DUP2 PUSH2 0x1630 JUMP JUMPDEST SWAP1 POP SWAP3 SWAP2 POP POP JUMP JUMPDEST PUSH1 0x0 PUSH1 0x60 DUP3 ADD SWAP1 POP PUSH2 0x199E PUSH1 0x0 DUP4 ADD DUP5 PUSH2 0x154A JUMP JUMPDEST DUP2 DUP2 SUB PUSH1 0x20 DUP4 ADD MSTORE PUSH2 0x19AF DUP2 PUSH2 0x1830 JUMP JUMPDEST SWAP1 POP DUP2 DUP2 SUB PUSH1 0x40 DUP4 ADD MSTORE PUSH2 0x19C2 DUP2 PUSH2 0x1670 JUMP JUMPDEST SWAP1 POP SWAP3 SWAP2 POP POP JUMP JUMPDEST PUSH1 0x0 PUSH1 0x60 DUP3 ADD SWAP1 POP PUSH2 0x19DF PUSH1 0x0 DUP4 ADD DUP5 PUSH2 0x154A JUMP JUMPDEST DUP2 DUP2 SUB PUSH1 0x20 DUP4 ADD MSTORE PUSH2 0x19F0 DUP2 PUSH2 0x1830 JUMP JUMPDEST SWAP1 POP DUP2 DUP2 SUB PUSH1 0x40 DUP4 ADD MSTORE PUSH2 0x1A03 DUP2 PUSH2 0x17B0 JUMP JUMPDEST SWAP1 POP SWAP3 SWAP2 POP POP JUMP JUMPDEST PUSH1 0x0 PUSH1 0x20 DUP3 ADD SWAP1 POP DUP2 DUP2 SUB PUSH1 0x0 DUP4 ADD MSTORE PUSH2 0x1A25 DUP2 DUP5 PUSH2 0x1559 JUMP JUMPDEST SWAP1 POP SWAP3 SWAP2 POP POP JUMP JUMPDEST PUSH1 0x0 PUSH1 0x20 DUP3 ADD SWAP1 POP PUSH2 0x1A42 PUSH1 0x0 DUP4 ADD DUP5 PUSH2 0x15B7 JUMP JUMPDEST SWAP3 SWAP2 POP POP JUMP JUMPDEST PUSH1 0x0 PUSH1 0x20 DUP3 ADD SWAP1 POP DUP2 DUP2 SUB PUSH1 0x0 DUP4 ADD MSTORE PUSH2 0x1A62 DUP2 DUP5 PUSH2 0x15C6 JUMP JUMPDEST SWAP1 POP SWAP3 SWAP2 POP POP JUMP JUMPDEST PUSH1 0x0 PUSH1 0x40 DUP3 ADD SWAP1 POP DUP2 DUP2 SUB PUSH1 0x0 DUP4 ADD MSTORE PUSH2 0x1A84 DUP2 DUP6 PUSH2 0x15C6 JUMP JUMPDEST SWAP1 POP PUSH2 0x1A93 PUSH1 0x20 DUP4 ADD DUP5 PUSH2 0x154A JUMP JUMPDEST SWAP4 SWAP3 POP POP POP JUMP JUMPDEST PUSH1 0x0 PUSH1 0x80 DUP3 ADD SWAP1 POP DUP2 DUP2 SUB PUSH1 0x0 DUP4 ADD MSTORE PUSH2 0x1AB4 DUP2 DUP8 PUSH2 0x15C6 JUMP JUMPDEST SWAP1 POP PUSH2 0x1AC3 PUSH1 0x20 DUP4 ADD DUP7 PUSH2 0x154A JUMP JUMPDEST DUP2 DUP2 SUB PUSH1 0x40 DUP4 ADD MSTORE PUSH2 0x1AD5 DUP2 DUP6 PUSH2 0x15C6 JUMP JUMPDEST SWAP1 POP DUP2 DUP2 SUB PUSH1 0x60 DUP4 ADD MSTORE PUSH2 0x1AE9 DUP2 DUP5 PUSH2 0x15C6 JUMP JUMPDEST SWAP1 POP SWAP6 SWAP5 POP POP POP POP POP JUMP JUMPDEST PUSH1 0x0 PUSH1 0x20 DUP3 ADD SWAP1 POP PUSH2 0x1B09 PUSH1 0x0 DUP4 ADD DUP5 PUSH2 0x1870 JUMP JUMPDEST SWAP3 SWAP2 POP POP JUMP JUMPDEST PUSH1 0x0 PUSH1 0x40 MLOAD SWAP1 POP DUP2 DUP2 ADD DUP2 DUP2 LT PUSH8 0xFFFFFFFFFFFFFFFF DUP3 GT OR ISZERO PUSH2 0x1B32 JUMPI PUSH1 0x0 DUP1 REVERT JUMPDEST DUP1 PUSH1 0x40 MSTORE POP SWAP2 SWAP1 POP JUMP JUMPDEST PUSH1 0x0 PUSH8 0xFFFFFFFFFFFFFFFF DUP3 GT ISZERO PUSH2 0x1B53 JUMPI PUSH1 0x0 DUP1 REVERT JUMPDEST PUSH1 0x1F NOT PUSH1 0x1F DUP4 ADD AND SWAP1 POP PUSH1 0x20 DUP2 ADD SWAP1 POP SWAP2 SWAP1 POP JUMP JUMPDEST PUSH1 0x0 DUP2 SWAP1 POP PUSH1 0x20 DUP3 ADD SWAP1 POP SWAP2 SWAP1 POP JUMP JUMPDEST PUSH1 0x0 DUP2 MLOAD SWAP1 POP SWAP2 SWAP1 POP JUMP JUMPDEST PUSH1 0x0 DUP2 MLOAD SWAP1 POP SWAP2 SWAP1 POP JUMP JUMPDEST PUSH1 0x0 PUSH1 0x20 DUP3 ADD SWAP1 POP SWAP2 SWAP1 POP JUMP JUMPDEST PUSH1 0x0 DUP3 DUP3 MSTORE PUSH1 0x20 DUP3 ADD SWAP1 POP SWAP3 SWAP2 POP POP JUMP JUMPDEST PUSH1 0x0 DUP3 DUP3 MSTORE PUSH1 0x20 DUP3 ADD SWAP1 POP SWAP3 SWAP2 POP POP JUMP JUMPDEST PUSH1 0x0 DUP2 SWAP1 POP SWAP3 SWAP2 POP POP JUMP JUMPDEST PUSH1 0x0 PUSH2 0x1BD3 DUP3 PUSH2 0x1BE6 JUMP JUMPDEST SWAP1 POP SWAP2 SWAP1 POP JUMP JUMPDEST PUSH1 0x0 DUP2 ISZERO ISZERO SWAP1 POP SWAP2 SWAP1 POP JUMP JUMPDEST PUSH1 0x0 PUSH20 0xFFFFFFFFFFFFFFFFFFFFFFFFFFFFFFFFFFFFFFFF DUP3 AND SWAP1 POP SWAP2 SWAP1 POP JUMP JUMPDEST PUSH1 0x0 DUP2 SWAP1 POP SWAP2 SWAP1 POP JUMP JUMPDEST DUP3 DUP2 DUP4 CALLDATACOPY PUSH1 0x0 DUP4 DUP4 ADD MSTORE POP POP POP JUMP JUMPDEST PUSH1 0x0 JUMPDEST DUP4 DUP2 LT ISZERO PUSH2 0x1C3D JUMPI DUP1 DUP3 ADD MLOAD DUP2 DUP5 ADD MSTORE PUSH1 0x20 DUP2 ADD SWAP1 POP PUSH2 0x1C22 JUMP JUMPDEST DUP4 DUP2 GT ISZERO PUSH2 0x1C4C JUMPI PUSH1 0x0 DUP5 DUP5 ADD MSTORE JUMPDEST POP POP POP POP JUMP JUMPDEST PUSH1 0x0 PUSH1 0x1F NOT PUSH1 0x1F DUP4 ADD AND SWAP1 POP SWAP2 SWAP1 POP JUMP JUMPDEST PUSH2 0x1C6C DUP2 PUSH2 0x1BC8 JUMP JUMPDEST DUP2 EQ PUSH2 0x1C77 JUMPI PUSH1 0x0 DUP1 REVERT JUMPDEST POP JUMP JUMPDEST PUSH2 0x1C83 DUP2 PUSH2 0x1C06 JUMP JUMPDEST DUP2 EQ PUSH2 0x1C8E JUMPI PUSH1 0x0 DUP1 REVERT JUMPDEST POP JUMP INVALID LOG2 PUSH5 0x6970667358 0x22 SLT KECCAK256 0xCC 0xA7 0x2D 0xD6 0xE7 SWAP1 0xC9 0xAC LOG0 DUP10 INVALID LOG3 0xC3 MOD TIMESTAMP PUSH12 0xCBE1F2B112E89D093E0D4396 PUSH26 0xAA2E3264736F6C63430006060033000000000000000000000000 "},"gasEstimates":{"creation":{"codeDepositCost":"1473400","executionCost":"43274","totalCost":"1516674"},"external":{"MinistryofEducation()":"1302","addNewSchool(address,string)":"infinite","existence(address,address)":"infinite","expired(address,address)":"infinite","getDeployedCerts(address)":"1571","getIPFS(address,address)":"infinite","getSchoolsCount()":"1169","getStudentList(address)":"infinite","ministryEntity()":"1280","ministryLogin(address)":"infinite","schoolOwnedCert(address,address)":"infinite","schoolOwnedStudent(address,uint256)":"infinite","schools(uint256)":"infinite","stringToUint(string)":"infinite","upload(string,address,string,string)":"infinite","verifyIsSchool(address)":"infinite"}},"methodIdentifiers":{"MinistryofEducation()":"fe2f3d8e","addNewSchool(address,string)":"5624e7c9","existence(address,address)":"61f0eff9","expired(address,address)":"3afe4f7c","getDeployedCerts(address)":"8a7f7f46","getIPFS(address,address)":"82c10560","getSchoolsCount()":"01307b37","getStudentList(address)":"7858b264","ministryEntity()":"c89778b4","ministryLogin(address)":"be87a975","schoolOwnedCert(address,address)":"2e2cde3a","schoolOwnedStudent(address,uint256)":"4bc395bb","schools(uint256)":"719c0d04","stringToUint(string)":"1bd95155","upload(string,address,string,string)":"5f460c91","verifyIsSchool(address)":"2dd8e5f0"}},"storageLayout":{"storage":[{"astId":738,"contract":"Verify.sol:Verify","label":"schools","offset":0,"slot":"0","type":"t_array(t_struct(School)726_storage)dyn_storage"},{"astId":740,"contract":"Verify.sol:Verify","label":"MinistryofEducation","offset":0,"slot":"1","type":"t_address"},{"astId":743,"contract":"Verify.sol:Verify","label":"ministryEntity","offset":0,"slot":"2","type":"t_address"},{"astId":747,"contract":"Verify.sol:Verify","label":"isSchool","offset":0,"slot":"3","type":"t_mapping(t_address,t_bool)"},{"astId":751,"contract":"Verify.sol:Verify","label":"isOnChain","offset":0,"slot":"4","type":"t_mapping(t_string_memory_ptr,t_bool)"},{"astId":757,"contract":"Verify.sol:Verify","label":"schoolOwnedCert","offset":0,"slot":"5","type":"t_mapping(t_address,t_mapping(t_address,t_struct(Certificate)735_storage))"},{"astId":762,"contract":"Verify.sol:Verify","label":"schoolOwnedStudent","offset":0,"slot":"6","type":"t_mapping(t_address,t_array(t_address)dyn_storage)"}],"types":{"t_address":{"encoding":"inplace","label":"address","numberOfBytes":"20"},"t_array(t_address)dyn_storage":{"base":"t_address","encoding":"dynamic_array","label":"address[]","numberOfBytes":"32"},"t_array(t_struct(School)726_storage)dyn_storage":{"base":"t_struct(School)726_storage","encoding":"dynamic_array","label":"struct Verify.School[]","numberOfBytes":"32"},"t_bool":{"encoding":"inplace","label":"bool","numberOfBytes":"1"},"t_mapping(t_address,t_array(t_address)dyn_storage)":{"encoding":"mapping","key":"t_address","label":"mapping(address => address[])","numberOfBytes":"32","value":"t_array(t_address)dyn_storage"},"t_mapping(t_address,t_bool)":{"encoding":"mapping","key":"t_address","label":"mapping(address => bool)","numberOfBytes":"32","value":"t_bool"},"t_mapping(t_address,t_mapping(t_address,t_struct(Certificate)735_storage))":{"encoding":"mapping","key":"t_address","label":"mapping(address => mapping(address => struct Verify.Certificate))","numberOfBytes":"32","value":"t_mapping(t_address,t_struct(Certificate)735_storage)"},"t_mapping(t_address,t_struct(Certificate)735_storage)":{"encoding":"mapping","key":"t_address","label":"mapping(address => struct Verify.Certificate)","numberOfBytes":"32","value":"t_struct(Certificate)735_storage"},"t_mapping(t_string_memory_ptr,t_bool)":{"encoding":"mapping","key":"t_string_memory_ptr","label":"mapping(string => bool)","numberOfBytes":"32","value":"t_bool"},"t_string_memory_ptr":{"encoding":"bytes","label":"string","numberOfBytes":"32"},"t_string_storage":{"encoding":"bytes","label":"string","numberOfBytes":"32"},"t_struct(Certificate)735_storage":{"encoding":"inplace","label":"struct Verify.Certificate","members":[{"astId":728,"contract":"Verify.sol:Verify","label":"name","offset":0,"slot":"0","type":"t_string_storage"},{"astId":730,"contract":"Verify.sol:Verify","label":"studentAddr","offset":0,"slot":"1","type":"t_address"},{"astId":732,"contract":"Verify.sol:Verify","label":"certHash","offset":0,"slot":"2","type":"t_string_storage"},{"astId":734,"contract":"Verify.sol:Verify","label":"isGraduated","offset":0,"slot":"3","type":"t_string_storage"}],"numberOfBytes":"128"},"t_struct(School)726_storage":{"encoding":"inplace","label":"struct Verify.School","members":[{"astId":723,"contract":"Verify.sol:Verify","label":"name","offset":0,"slot":"0","type":"t_string_storage"},{"astId":725,"contract":"Verify.sol:Verify","label":"schoolAddr","offset":0,"slot":"1","type":"t_address"}],"numberOfBytes":"64"}}},"userdoc":{"methods":{}}}